00COTAHIST.2013BOVESPA 20131017                                                                                                                                                                                                                      
012013101702ABCB4       010ABC BRASIL  PN      N2   R$  000000000136900000000013760000000001335000000000134500000000013400000000001340000000000135000505000000000000143000000000000192379400000000000000009999123100000010000000000000BRABCBACNPR4120
012013101796ABCB4F      020ABC BRASIL  PN      N2   R$  000000000135000000000013580000000001331000000000134000000000013370000000001338000000000135800025000000000000000354000000000000474710000000000000009999123100000010000000000000BRABCBACNPR4120
012013101712ABCP11      010FII ABC IMOBCI           R$  000000000098600000000009860000000000986000000000098600000000009860000000000986000000000099000002000000000000000150000000000000147900000000000000009999123100000010000000000000BRABCPCTF000216
012013101702ABRE11      010ABRIL EDUCA UNT     N2   R$  000000000341000000000034100000000003300000000000333300000000033000000000003299000000000330000572000000000000094100000000000313648000000000000000009999123100000010000000000000BRABRECDAM15102
012013101796ABRE11F     020ABRIL EDUCA UNT     N2   R$  000000000335000000000033500000000003280000000000331600000000032800000000003200000000000330000008000000000000000081000000000000268646000000000000009999123100000010000000000000BRABRECDAM15102
012013101702AEDU3       010ANHANGUERA  ON      NM   R$  000000000132000000000013200000000001273000000000128100000000012750000000001274000000000127511301000000000007028600000000009008421900000000000000009999123100000010000000000000BRAEDUACNOR9107
012013101796AEDU3F      020ANHANGUERA  ON      NM   R$  000000000131000000000013100000000001252000000000128400000000012520000000001255000000000134000035000000000000001013000000000001301702000000000000009999123100000010000000000000BRAEDUACNOR9107
012013101762AEDU3S      030ANHANGUERA  ON      NM090R$  000000000131600000000013190000000001316000000000131700000000013180000000000000000000000000000006000000000000015000000000000019761826000000000000009999123100000010000000000000BRAEDUACNOR9107
012013101762AEDU3T      030ANHANGUERA  ON      NM018R$  000000000131000000000013110000000001288000000000129900000000012890000000000000000000000000000004000000000000001000000000000001299623000000000000009999123100000010000000000000BRAEDUACNOR9107
012013101762AEDU3T      030ANHANGUERA  ON      NM060R$  000000000129600000000012970000000001293000000000129600000000012940000000000000000000000000000004000000000000043000000000000055752333000000000000009999123100000010000000000000BRAEDUACNOR9107
012013101712AEFI11      010FII AESAPAR CI           R$  000000001200000000000120480000000012000000000001201800000000120480000000012005000000001205000020000000000000001050000000000012619744000000000000009999123100000010000000000000BRAEFICTF002122
012013101712AGCX11      010FII AG CAIXACI           R$  000000009400000000000940000000000093799000000009384100000000940000000000093810000000009400000023000000000000000249000000000023366592000000000000009999123100000010000000000000BRAGCXCTF003111
012013101702AGRO3       010BRASILAGRO  ON      NM   R$  000000000098500000000010040000000000985000000000099300000000009920000000000986000000000100200015000000000000007200000000000007149700000000000000009999123100000010000000000000BRAGROACNOR7102
012013101702ALLL3       010ALL AMER LATON      NM   R$  000000000085000000000008540000000000829000000000084200000000008480000000000846000000000084807484000000000003678800000000003098976000000000000000009999123100000010000000000000BRALLLACNOR6118
012013101796ALLL3F      020ALL AMER LATON      NM   R$  000000000085300000000008530000000000830000000000083900000000008430000000000837000000000085200059000000000000001790000000000001502214000000000000009999123100000010000000000000BRALLLACNOR6118
012013101712ALMI11B     010FII TORRE ALCI      MB   R$  000000031710100000003180000000000317100000000031732500000003171000000000317100000000032280000003000000000000000004000000000001269302000000000000009999123100000010000000000000BRALMICTF003206
012013101796ALPA3F      020ALPARGATAS  ON      N1   R$  000000000126000000000012600000000001260000000000126000000000012600000000001211000000000129200001000000000000000012000000000000015120000000000000009999123100000010000000000000BRALPAACNOR0203
012013101702ALPA4       010ALPARGATAS  PN      N1   R$  000000000147300000000015000000000001473000000000148700000000014890000000001479000000000148900813000000000000293900000000000437169100000000000000009999123100000010000000000000BRALPAACNPR7203
012013101796ALPA4F      020ALPARGATAS  PN      N1   R$  000000000149900000000015000000000001472000000000148800000000014800000000001470000000000150000016000000000000000302000000000000449599000000000000009999123100000010000000000000BRALPAACNPR7203
012013101702ALSC3       010ALIANSCE    ON      NM   R$  000000000213000000000021970000000002127000000000217200000000021900000000002177000000000219001544000000000000362900000000000788510900000000000000009999123100000010000000000000BRALSCACNOR0104
012013101796ALSC3F      020ALIANSCE    ON      NM   R$  000000000213100000000021920000000002131000000000215400000000021920000000002100000000000220500005000000000000000185000000000000398595000000000000009999123100000010000000000000BRALSCACNOR0104
012013101762ALSC3T      030ALIANSCE    ON      NM032R$  000000000219500000000021960000000002195000000000219500000000021960000000000000000000000000000002000000000000000300000000000000658733000000000000009999123100000010000000000000BRALSCACNOR0104
012013101702ALUP11      010ALUPAR      UNT     N2   R$  000000000172300000000017270000000001714000000000172000000000017180000000001713000000000172000443000000000000181500000000000312232000000000000000009999123100000010000000000000BRALUPCDAM15100
012013101796ALUP11F     020ALUPAR      UNT     N2   R$  000000000172300000000017240000000001717000000000172200000000017240000000001719000000000177400012000000000000000230000000000000396201000000000000009999123100000010000000000000BRALUPCDAM15100
012013101702AMAR3       010LOJAS MARISAON      NM   R$  000000000201300000000020470000000002002000000000202900000000020350000000002035000000000203801725000000000000274100000000000556418400000000000000009999123100000010000000000000BRAMARACNOR4109
012013101796AMAR3F      020LOJAS MARISAON      NM   R$  000000000203900000000020400000000002015000000000203300000000020350000000001984000000000206100012000000000000000336000000000000683368000000000000009999123100000010000000000000BRAMARACNOR4109
012013101762AMAR3T      030LOJAS MARISAON      NM020R$  000000000204000000000020410000000002040000000000204000000000020410000000000000000000000000000004000000000000000500000000000001020278000000000000009999123100000010000000000000BRAMARACNOR4109
012013101702AMBV3       010AMBEV       ON           R$  000000000846900000000085990000000008451000000000854000000000085990000000008549000000000859900769000000000000119600000000001021490800000000000000009999123100000010000000000000BRAMBVACNOR4154
012013101796AMBV3F      020AMBEV       ON           R$  000000000847500000000085670000000008470000000000853200000000085670000000008540000000000856700025000000000000000661000000000005639819000000000000009999123100000010000000000000BRAMBVACNOR4154
012013101702AMBV4       010AMBEV       PN           R$  000000000844500000000085990000000008438000000000853700000000085780000000008576000000000857805514000000000001178300000000010060058800000000000000009999123100000010000000000000BRAMBVACNPR1154
012013101796AMBV4F      020AMBEV       PN           R$  000000000847300000000086000000000008430000000000852900000000086000000000008560000000000860000149000000000000003308000000000028224431000000000000009999123100000010000000000000BRAMBVACNPR1154
012013101762AMBV4S      030AMBEV       PN        090R$  000000000870700000000087080000000008707000000000870700000000087080000000000000000000000000000002000000000000000300000000000002612330000000000000009999123100000010000000000000BRAMBVACNPR1154
012013101762AMBV4T      030AMBEV       PN        120R$  000000000880800000000088080000000008808000000000880800000000088080000000000000000000000000000001000000000000000005000000000000044040000000000000009999123100000010000000000000BRAMBVACNPR1154
012013101762AMBV4T      030AMBEV       PN        060R$  000000000861800000000086630000000008618000000000864700000000086590000000000000000000000000000008000000000000000600000000000005188329000000000000009999123100000010000000000000BRAMBVACNPR1154
012013101778AMBVK85     070AMBV        PN        000R$  000000000020000000000002000000000000200000000000020000000000002000000000000000000000000000000001000000000000000600000000000000120000000000000850002013111800000010000000000000BRAMBVACNPR1154
012013101778AMBVK88     070AMBV        PN        000R$  000000000010000000000001000000000000100000000000010000000000001000000000000000000000000008800001000000000000002000000000000000200000000000000880002013111800000010000000000000BRAMBVACNPR1154
012013101778AMBVL9      070AMBV        PN        000R$  000000000007100000000001000000000000071000000000007700000000001000000000000000000000000000000013000000000000004300000000000000332000000000000900002013121600000010000000000000BRAMBVACNPR1154
012013101782AMBVX78     080AMBVE       PN        000R$  000000000003300000000000330000000000033000000000003300000000000330000000000000000000000000000001000000000000002600000000000000085800000000000780002013121600000010000000000000BRAMBVACNPR1154
012013101702ARTR3       010ARTERIS     ON      NM   R$  000000000194000000000019780000000001925000000000195800000000019440000000001944000000000195002052000000000000312100000000000611273900000000000000009999123100000010000000000000BRARTRACNOR3101
012013101796ARTR3F      020ARTERIS     ON      NM   R$  000000000193000000000019730000000001801000000000194600000000019620000000001945000000000196200026000000000000000675000000000001313759000000000000009999123100000010000000000000BRARTRACNOR3101
012013101702ARZZ3       010AREZZO CO   ON      NM   R$  000000000346600000000034900000000003440000000000345900000000034890000000003453000000000348900427000000000000061900000000000214142800000000000000009999123100000010000000000000BRARZZACNOR3109
012013101796ARZZ3F      020AREZZO CO   ON      NM   R$  000000000347300000000035990000000003160000000000345200000000035990000000003440000000000360000099000000000000001218000000000004205480000000000000009999123100000010000000000000BRARZZACNOR3109
012013101702AUTM3       010AUTOMETAL   ON      NM   R$  000000000183400000000018480000000001816000000000183900000000018430000000001840000000000184400076000000000000019700000000000036244800000000000000009999123100000010000000000000BRAUTMACNOR8109
012013101796AUTM3F      020AUTOMETAL   ON      NM   R$  000000000181000000000018300000000001810000000000181400000000018300000000001700000000000183000002000000000000000059000000000000107070000000000000009999123100000010000000000000BRAUTMACNOR8109
012013101702AXPB34      010AMERICAN EXPDRN          R$  000000001699000000000169900000000016990000000001699000000000169900000000017071000000001900000001000000000000000500000000000008495000000000000000009999123100000010000000000000BRAXPBBDR007106
012013101702AZEV4       010AZEVEDO     PN           R$  000000000013500000000001350000000000135000000000013500000000001350000000000131000000000016800001000000000000000100000000000000013500000000000000009999123100000010000000000000BRAZEVACNPR7113
012013101702BAHI3       010BAHEMA      ON           R$  000000000047700000000004770000000000475000000000047600000000004750000000000474000000000049000006000000000000005200000000000002479000000000000000009999123100000010000000000000BRBAHIACNOR1066
012013101702BAZA3       010AMAZONIA    ON           R$  000000000003300000000000330000000000033000000000003300000000000330000000000032000000000003400004000000000000010000000000000000330000000000000000009999123100000010000000000000BRBAZAACNOR0163
012013101796BAZA3F      020AMAZONIA    ON           R$  000000000003300000000000330000000000033000000000003300000000000330000000000032000000000003300001000000000000000110000000000000003630000000000000009999123100000010000000000000BRBAZAACNOR0163
012013101702BBAS3       010BRASIL      ON      NM   R$  000000000276100000000027890000000002731000000000276200000000027780000000002777000000000277813470000000000004695900000000012973708500000000000000009999123100000010000000000000BRBBASACNOR3239
012013101796BBAS3F      020BRASIL      ON      NM   R$  000000000274500000000027890000000002732000000000276000000000027560000000002756000000000279000243000000000000007112000000000019636351000000000000009999123100000010000000000000BRBBASACNOR3239
012013101762BBAS3T      030BRASIL      ON      NM032R$  000000000278700000000027880000000002787000000000278700000000027880000000000000000000000000000002000000000000005000000000000013939648000000000000009999123100000010000000000000BRBBASACNOR3239
012013101762BBAS3T      030BRASIL      ON      NM090R$  000000000283100000000028320000000002831000000000283100000000028320000000000000000000000000000002000000000000062000000000000175546006000000000000009999123100000010000000000000BRBBASACNOR3239
012013101762BBAS3T      030BRASIL      ON      NM120R$  000000000284900000000028500000000002849000000000284900000000028500000000000000000000000000000002000000000000000002000000000000005699000000000000009999123100000010000000000000BRBBASACNOR3239
012013101778BBASA27     070BBAS        ON      NM000R$  000000000026200000000002670000000000262000000000026300000000002670000000000000000000000000000003000000000000006000000000000001582000000000000259502014012000000010000000000000BRBBASACNOR3237
012013101778BBASJ21     070BBAS        ON      NM000R$  000000000077900000000007790000000000779000000000077900000000007790000000000000000000000000000002000000000000000300000000000000233700000000000199502013102100000010000000000000BRBBASACNOR3237
012013101778BBASJ22     070BBAS        ON      NM000R$  000000000066500000000006650000000000665000000000066500000000006650000000000640000000000000000002000000000000000900000000000000598500000000000209502013102100000010000000000000BRBBASACNOR3237
012013101778BBASJ24     070BBAS        ON      NM000R$  000000000049400000000005580000000000480000000000053300000000005580000000000000000000000000000126000000000000015900000000000008489200000000000227102013102100000010000000000000BRBBASACNOR3236
012013101778BBASJ25     070BBAS        ON      NM000R$  000000000036000000000003920000000000354000000000038200000000003800000000000370000000000000000010000000000000009800000000000003744500000000000239502013102100000010000000000000BRBBASACNOR3237
012013101778BBASJ26     070BBAS        ON      NM000R$  000000000031000000000003220000000000280000000000030300000000003220000000000281000000000000000052000000000000023300000000000007074000000000000246102013102100000010000000000000BRBBASACNOR3235
012013101778BBASJ27     070BBAS        ON      NM000R$  000000000021300000000002770000000000155000000000020100000000002150000000000200000000000024000121000000000000071200000000000014316000000000000256102013102100000010000000000000BRBBASACNOR3235
012013101778BBASJ28     070BBAS        ON      NM000R$  000000000008400000000000920000000000053000000000007000000000000850000000000085000000000009100212000000000000192800000000000013597600000000000269502013102100000010000000000000BRBBASACNOR3237
012013101778BBASJ29     070BBAS        ON      NM000R$  000000000002800000000000350000000000013000000000002300000000000300000000000018000000000003700046000000000000119900000000000002840200000000000276102013102100000010000000000000BRBBASACNOR3235
012013101778BBASJ30     070BBAS        ON      NM000R$  000000000000200000000000020000000000002000000000000200000000000020000000000001000000000000300001000000000000000100000000000000000200000000000286102013102100000010000000000000BRBBASACNOR3235
012013101778BBASJ55     070BBAS        ON      NM000R$  000000000016000000000001600000000000160000000000016000000000001600000000000000000000000000000001000000000000000100000000000000016000000000000260002013102100000010000000000000BRBBASACNOR3239
012013101778BBASK24     070BBAS        ON      NM000R$  000000000047600000000004760000000000476000000000047600000000004760000000000000000000000000000001000000000000000300000000000000142800000000000229502013111800000010000000000000BRBBASACNOR3237
012013101778BBASK25     070BBAS        ON      NM000R$  000000000040000000000004000000000000372000000000037900000000003850000000000350000000000043200121000000000000017800000000000006758400000000000237102013111800000010000000000000BRBBASACNOR3236
012013101778BBASK26     070BBAS        ON      NM000R$  000000000030700000000003320000000000284000000000030700000000003300000000000100000000000049700041000000000000014200000000000004373300000000000247102013111800000010000000000000BRBBASACNOR3236
012013101778BBASK27     070BBAS  FM    ON      NM000R$  000000000022300000000002410000000000197000000000021700000000002380000000000045000000000000000094000000000000173700000000000037855500000000000257102013111800000010000000000000BRBBASACNOR3236
012013101778BBASK28     070BBAS  FM    ON      NM000R$  000000000014800000000001570000000000119000000000013200000000001480000000000148000000000015000137000000000000216100000000000028697200000000000267102013111800000010000000000000BRBBASACNOR3236
012013101778BBASK29     070BBAS  FM    ON      NM000R$  000000000006700000000000730000000000051000000000005800000000000730000000000048000000000009000099000000000000149600000000000008692000000000000279502013111800000010000000000000BRBBASACNOR3237
012013101778BBASK30     070BBAS  FM    ON      NM000R$  000000000002900000000000320000000000024000000000002700000000000310000000000029000000000009800038000000000000069500000000000001901900000000000289502013111800000010000000000000BRBBASACNOR3237
012013101778BBASK31     070BBAS  FM    ON      NM000R$  000000000000900000000000140000000000009000000000001100000000000140000000000010000000000002000007000000000000018000000000000000215100000000000299502013111800000010000000000000BRBBASACNOR3237
012013101778BBASK32     070BBAS        ON      NM000R$  000000000000300000000000040000000000003000000000000300000000000040000000000002000000000001000005000000000000044300000000000000135200000000000320002013111800000010000000000000BRBBASACNOR3239
012013101778BBASK57     070BBAS        ON      NM000R$  000000000008900000000000930000000000082000000000008500000000000930000000000000000000000000000017000000000000023000000000000001961000000000000275002013111800000010000000000000BRBBASACNOR3239
012013101778BBASK58     070BBAS        ON      NM000R$  000000000003200000000000400000000000032000000000003800000000000400000000000000000000000009600004000000000000009300000000000000357600000000000285002013111800000010000000000000BRBBASACNOR3239
012013101778BBASL22     070BBAS        ON      NM000R$  000000000071000000000007100000000000710000000000071000000000007100000000000000000000000000000002000000000000000400000000000000284000000000000206102013121600000010000000000000BRBBASACNOR3235
012013101778BBASL23     070BBAS        ON      NM000R$  000000000057000000000005700000000000570000000000057000000000005700000000000000000000000000000001000000000000000600000000000000342000000000000219502013121600000010000000000000BRBBASACNOR3237
012013101778BBASL26     070BBAS        ON      NM000R$  000000000033100000000003600000000000331000000000034000000000003600000000000016000000000000000004000000000000003300000000000001122800000000000246102013121600000010000000000000BRBBASACNOR3235
012013101778BBASL27     070BBAS        ON      NM000R$  000000000023000000000002460000000000218000000000023200000000002460000000000201000000000000000007000000000000009000000000000002090000000000000259502013121600000010000000000000BRBBASACNOR3237
012013101778BBASL28     070BBAS  FM    ON      NM000R$  000000000016200000000001790000000000150000000000016800000000001760000000000090000000000000000022000000000000026800000000000004518100000000000269502013121600000010000000000000BRBBASACNOR3237
012013101778BBASL29     070BBAS  FM    ON      NM000R$  000000000012300000000001310000000000110000000000011900000000001290000000000034000000000000000025000000000000039200000000000004693800000000000276102013121600000010000000000000BRBBASACNOR3235
012013101778BBASL30     070BBAS  FM    ON      NM000R$  000000000002800000000000340000000000023000000000003100000000000330000000000010000000000000000065000000000000285100000000000008952000000000000300002013121600000010000000000000BRBBASACNOR3239
012013101778BBASL31     070BBAS  FM    ON      NM000R$  000000000001500000000000150000000000012000000000001300000000000150000000000007000000000000000045000000000000051800000000000000708800000000000310002013121600000010000000000000BRBBASACNOR3239
012013101778BBASL59     070BBAS        ON      NM000R$  000000000003800000000000400000000000035000000000003500000000000400000000000000000000000000000017000000000000452000000000000015992500000000000295002013121600000010000000000000BRBBASACNOR3239
012013101778BBASL60     070BBAS        ON      NM000R$  000000000006200000000000790000000000062000000000007500000000000790000000000014000000000007900070000000000000067600000000000005100700000000000286202013121600000010000000000000BRBBASACNOR3233
012013101778BBASL79     070BBAS  FM    ON      NM000R$  000000000005900000000000610000000000052000000000005700000000000610000000000000000000000000000028000000000000030300000000000001755000000000000290002013121600000010000000000000BRBBASACNOR3239
012013101782BBASM30     080BBASE       ON      NM000R$  000000000017400000000001740000000000174000000000017400000000001740000000000000000000000000000001000000000000003000000000000000522000000000000289502014012000000010000000000000BRBBASACNOR3237
012013101782BBASV22     080BBASE       ON      NM000R$  000000000000100000000000010000000000001000000000000100000000000010000000000000000000000000000002000000000000000800000000000000000800000000000209502013102100000010000000000000BRBBASACNOR3237
012013101782BBASV23     080BBASE       ON      NM000R$  000000000000100000000000010000000000001000000000000100000000000010000000000000000000000000100001000000000000000100000000000000000100000000000216102013102100000010000000000000BRBBASACNOR3235
012013101782BBASV25     080BBASE       ON      NM000R$  000000000000100000000000010000000000001000000000000100000000000010000000000000000000000000100001000000000000001000000000000000001000000000000239502013102100000010000000000000BRBBASACNOR3237
012013101782BBASV28     080BBASE       ON      NM000R$  000000000000600000000000080000000000005000000000000700000000000080000000000000000000000000400009000000000000037000000000000000278000000000000269502013102100000010000000000000BRBBASACNOR3237
012013101782BBASV29     080BBASE       ON      NM000R$  000000000002200000000000330000000000011000000000002300000000000120000000000000000000000003300068000000000000080700000000000001906700000000000276102013102100000010000000000000BRBBASACNOR3235
012013101782BBASW27     080BBASE FM    ON      NM000R$  000000000001800000000000180000000000015000000000001700000000000150000000000000000000000002200004000000000000005300000000000000090400000000000257102013111800000010000000000000BRBBASACNOR3236
012013101782BBASW28     080BBASE FM    ON      NM000R$  000000000003200000000000420000000000028000000000003500000000000280000000000029000000000003700050000000000000039200000000000001397400000000000267102013111800000010000000000000BRBBASACNOR3236
012013101782BBASW29     080BBASE FM    ON      NM000R$  000000000007500000000000960000000000068000000000007800000000000700000000000000000000000009000033000000000000062800000000000004899800000000000279502013111800000010000000000000BRBBASACNOR3237
012013101782BBASW30     080BBASE       ON      NM000R$  000000000013000000000001300000000000130000000000013000000000001300000000000000000000000000000001000000000000003000000000000000390000000000000289502013111800000010000000000000BRBBASACNOR3237
012013101782BBASW57     080BBASE       ON      NM000R$  000000000006400000000000640000000000064000000000006400000000000640000000000000000000000000000001000000000000003900000000000000249600000000000275002013111800000010000000000000BRBBASACNOR3239
012013101782BBASX26     080BBASE       ON      NM000R$  000000000001900000000000190000000000016000000000001600000000000160000000000015000000000002600005000000000000006000000000000000096500000000000246102013121600000010000000000000BRBBASACNOR3235
012013101782BBASX27     080BBASE FM    ON      NM000R$  000000000003500000000000400000000000035000000000003700000000000370000000000000000000000000000015000000000000029200000000000001086200000000000259502013121600000010000000000000BRBBASACNOR3237
012013101782BBASX28     080BBASE FM    ON      NM000R$  000000000005900000000000670000000000057000000000006200000000000580000000000000000000000010000012000000000000018700000000000001161700000000000269502013121600000010000000000000BRBBASACNOR3237
012013101782BBASX29     080BBASE FM    ON      NM000R$  000000000008200000000000930000000000082000000000008700000000000880000000000055000000000000000006000000000000011000000000000000958000000000000276102013121600000010000000000000BRBBASACNOR3235
012013101782BBASX79     080BBASE FM    ON      NM000R$  000000000015500000000001770000000000148000000000016100000000001480000000000000000000000000000030000000000000045800000000000007387400000000000290002013121600000010000000000000BRBBASACNOR3239
012013101702BBDC3       010BRADESCO    ON      N1   R$  000000000366500000000037240000000003665000000000368300000000036800000000003676000000000368004069000000000001166700000000004297941400000000000000009999123100000010000000000000BRBBDCACNOR1607
012013101796BBDC3F      020BRADESCO    ON      N1   R$  000000000367000000000037360000000003665000000000368100000000036860000000003652000000000371900018000000000000000777000000000002860693000000000000009999123100000010000000000000BRBBDCACNOR1607
012013101702BBDC4       010BRADESCO    PN      N1   R$  000000000324000000000033000000000003238000000000327700000000032770000000003277000000000328017366000000000005857500000000019198311000000000000000009999123100000010000000000000BRBBDCACNPR8607
012013101796BBDC4F      020BRADESCO    PN      N1   R$  000000000325500000000032960000000003245000000000327200000000032890000000003275000000000328900191000000000000005539000000000018128279000000000000009999123100000010000000000000BRBBDCACNPR8607
012013101762BBDC4T      030BRADESCO    PN      N1032R$  000000000329800000000032990000000003290000000000329700000000032910000000000000000000000000000004000000000000000600000000000001978307000000000000009999123100000010000000000000BRBBDCACNPR8607
012013101762BBDC4T      030BRADESCO    PN      N1090R$  000000000330800000000033090000000003308000000000330800000000033090000000000000000000000000000002000000000000000600000000000001984824000000000000009999123100000010000000000000BRBBDCACNPR8607
012013101762BBDC4T      030BRADESCO    PN      N1180R$  000000000344900000000034520000000003434000000000344500000000034350000000000000000000000000000006000000000000003000000000000010335346000000000000009999123100000010000000000000BRBBDCACNPR8607
012013101778BBDCA34     070BBDC        PN      N1000R$  000000000013500000000001350000000000120000000000013100000000001200000000000000000000000013500003000000000000007500000000000000984000000000000339402014012000000010000000000000BRBBDCACNPR8604
012013101778BBDCA35     070BBDC        PN      N1000R$  000000000008600000000000900000000000062000000000008500000000000850000000000000000000000000000044000000000000023500000000000002004000000000000350002014012000000010000000000000BRBBDCACNPR8607
012013101778BBDCA37     070BBDC        PN      N1000R$  000000000004600000000000460000000000040000000000004200000000000400000000000000000000000000000010000000000000026400000000000001119000000000000367402014012000000010000000000000BRBBDCACNPR8602
012013101778BBDCA40     070BBDC        PN      N1000R$  000000000006100000000000610000000000054000000000005700000000000540000000000000000000000006100003000000000000009000000000000000516000000000000360402014012000000010000000000000BRBBDCACNPR8598
012013101778BBDCJ2      070BBDC        PN      N1000R$  000000000006200000000000620000000000056000000000006000000000000560000000000000000000000000000002000000000000003000000000000000180000000000000324202013102100000010000000000000BRBBDCACNPR8603
012013101778BBDCJ29     070BBDC        PN      N1000R$  000000000038200000000004310000000000382000000000042200000000004150000000000395000000000051500074000000000000017500000000000007389000000000000287402013102100000010000000000000BRBBDCACNPR8602
012013101778BBDCJ30     070BBDC        PN      N1000R$  000000000031500000000003260000000000294000000000031600000000003030000000000302000000000035000026000000000000011400000000000003607800000000000297402013102100000010000000000000BRBBDCACNPR8602
012013101778BBDCJ31     070BBDC        PN      N1000R$  000000000018000000000002130000000000180000000000019800000000002100000000000040000000000000000019000000000000026800000000000005331000000000000307402013102100000010000000000000BRBBDCACNPR8602
012013101778BBDCJ32     070BBDC        PN      N1000R$  000000000012000000000001260000000000102000000000011600000000001020000000000100000000000000000032000000000000024100000000000002815800000000000317402013102100000010000000000000BRBBDCACNPR8602
012013101778BBDCJ33     070BBDC        PN      N1000R$  000000000004000000000000420000000000034000000000003900000000000360000000000026000000000000000013000000000000029700000000000001172600000000000327402013102100000010000000000000BRBBDCACNPR8602
012013101778BBDCJ34     070BBDC        PN      N1000R$  000000000000900000000000100000000000007000000000000900000000000070000000000005000000000000800016000000000000057900000000000000566700000000000337002013102100000010000000000000BRBBDCACNPR8600
012013101778BBDCJ4      070BBDC        PN      N1000R$  000000000000200000000000020000000000002000000000000200000000000020000000000000000000000000000001000000000000003300000000000000006600000000000344602013102100000010000000000000BRBBDCACNPR8605
012013101778BBDCK26     070BBDC        PN      N1000R$  000000000070200000000007120000000000702000000000070800000000007120000000000000000000000000000070000000000000024000000000000016993900000000000259402013111800000010000000000000BRBBDCACNPR8604
012013101778BBDCK30     070BBDC        PN      N1000R$  000000000031300000000003130000000000312000000000031200000000003120000000000020000000000041100052000000000000013900000000000004343700000000000299602013111800000010000000000000BRBBDCACNPR8605
012013101778BBDCK31     070BBDC  FM    PN      N1000R$  000000000022300000000002410000000000212000000000022500000000002290000000000102000000000000000111000000000000120600000000000027185600000000000309602013111800000010000000000000BRBBDCACNPR8605
012013101778BBDCK32     070BBDC  FM    PN      N1000R$  000000000014500000000001800000000000145000000000016300000000001700000000000152000000000000000073000000000000076500000000000012538500000000000317202013111800000010000000000000BRBBDCACNPR8601
012013101778BBDCK33     070BBDC  FM    PN      N1000R$  000000000009300000000001110000000000092000000000010000000000001020000000000077000000000010500121000000000000097400000000000009753000000000000327402013111800000010000000000000BRBBDCACNPR8602
012013101778BBDCK34     070BBDC  FM    PN      N1000R$  000000000005100000000000520000000000041000000000004700000000000440000000000017000000000005200028000000000000040600000000000001948000000000000339402013111800000010000000000000BRBBDCACNPR8604
012013101778BBDCK35     070BBDC  FM    PN      N1000R$  000000000002800000000000290000000000023000000000002600000000000250000000000000000000000002700035000000000000032400000000000000864300000000000347402013111800000010000000000000BRBBDCACNPR8602
012013101778BBDCL1      070BBDC  FM    PN      N1000R$  000000000028100000000002980000000000274000000000028700000000002820000000000000000000000000000051000000000000087000000000000025003600000000000307002013121600000010000000000000BRBBDCACNPR8600
012013101778BBDCL3      070BBDC  FM    PN      N1000R$  000000000015200000000001580000000000137000000000014500000000001430000000000000000000000000000755000000000000359900000000000052235800000000000327002013121600000010000000000000BRBBDCACNPR8601
012013101778BBDCL32     070BBDC  FM    PN      N1000R$  000000000021800000000002230000000000204000000000021300000000002100000000000068000000000026000032000000000000051200000000000010907600000000000317002013121600000010000000000000BRBBDCACNPR8600
012013101778BBDCL34     070BBDC  FM    PN      N1000R$  000000000010100000000001080000000000093000000000010300000000000960000000000000000000000011000170000000000000231200000000000024025100000000000337002013121600000010000000000000BRBBDCACNPR8600
012013101778BBDCL35     070BBDC        PN      N1000R$  000000000005900000000000590000000000058000000000005800000000000580000000000021000000000006300002000000000000000200000000000000011700000000000347002013121600000010000000000000BRBBDCACNPR8600
012013101778BBDCL36     070BBDC        PN      N1000R$  000000000017400000000001760000000000157000000000016400000000001640000000000000000000000000000478000000000000047800000000000007860800000000000323902013121600000010000000000000BRBBDCACNPR8597
012013101778BBDCL5      070BBDC  FM    PN      N1000R$  000000000005300000000000530000000000049000000000005100000000000500000000000000000000000000000013000000000000025600000000000001314400000000000349802013121600000010000000000000BRBBDCACNPR8606
012013101782BBDCM32     080BBDCE       PN      N1000R$  000000000009700000000000970000000000094000000000009500000000000940000000000000000000000000000002000000000000003000000000000000285000000000000319802014012000000010000000000000BRBBDCACNPR8606
012013101782BBDCM33     080BBDCE       PN      N1000R$  000000000013200000000001350000000000132000000000013300000000001350000000000000000000000000000002000000000000004000000000000000534000000000000329802014012000000010000000000000BRBBDCACNPR8606
012013101782BBDCM34     080BBDCE       PN      N1000R$  000000000018100000000001810000000000181000000000018100000000001810000000000000000000000000000001000000000000002000000000000000362000000000000339402014012000000010000000000000BRBBDCACNPR8604
012013101782BBDCM35     080BBDCE       PN      N1000R$  000000000024300000000002430000000000243000000000024300000000002430000000000000000000000000000001000000000000001800000000000000437400000000000350002014012000000010000000000000BRBBDCACNPR8607
012013101782BBDCV2      080BBDCE       PN      N1000R$  000000000001800000000000190000000000018000000000001800000000000190000000000000000000000000000003000000000000004000000000000000074000000000000324202013102100000010000000000000BRBBDCACNPR8603
012013101782BBDCV32     080BBDCE       PN      N1000R$  000000000000900000000000090000000000009000000000000900000000000090000000000000000000000000700020000000000000050000000000000000450000000000000317402013102100000010000000000000BRBBDCACNPR8602
012013101782BBDCV33     080BBDCE       PN      N1000R$  000000000002900000000000320000000000029000000000002900000000000320000000000000000000000000000007000000000000008700000000000000258300000000000327402013102100000010000000000000BRBBDCACNPR8602
012013101782BBDCV34     080BBDCE       PN      N1000R$  000000000009800000000000980000000000098000000000009800000000000980000000000000000000000000000001000000000000002000000000000000196000000000000337002013102100000010000000000000BRBBDCACNPR8600
012013101782BBDCW30     080BBDCE FM    PN      N1000R$  000000000001400000000000140000000000011000000000001300000000000110000000000000000000000001400017000000000000041000000000000000551800000000000299602013111800000010000000000000BRBBDCACNPR8605
012013101782BBDCW31     080BBDCE FM    PN      N1000R$  000000000002300000000000260000000000021000000000002300000000000230000000000000000000000002600039000000000000027300000000000000645000000000000309602013111800000010000000000000BRBBDCACNPR8605
012013101782BBDCW32     080BBDCE FM    PN      N1000R$  000000000003500000000000450000000000035000000000003900000000000390000000000000000000000006500066000000000000066700000000000002627200000000000317202013111800000010000000000000BRBBDCACNPR8601
012013101782BBDCW33     080BBDCE FM    PN      N1000R$  000000000006900000000000800000000000068000000000007300000000000710000000000000000000000015600045000000000000058400000000000004287300000000000327402013111800000010000000000000BRBBDCACNPR8602
012013101782BBDCW34     080BBDCE       PN      N1000R$  000000000013100000000001420000000000131000000000013600000000001420000000000000000000000000000025000000000000015800000000000002155900000000000339402013111800000010000000000000BRBBDCACNPR8604
012013101782BBDCW35     080BBDCE       PN      N1000R$  000000000020100000000002010000000000201000000000020100000000002010000000000000000000000000000002000000000000003000000000000000603000000000000347402013111800000010000000000000BRBBDCACNPR8602
012013101782BBDCX1      080BBDCE FM    PN      N1000R$  000000000003600000000000440000000000036000000000004000000000000390000000000000000000000000000040000000000000059200000000000002387700000000000307002013121600000010000000000000BRBBDCACNPR8600
012013101782BBDCX3      080BBDCE FM    PN      N1000R$  000000000009400000000001070000000000094000000000009800000000000970000000000000000000000000000042000000000000069500000000000006814600000000000327002013121600000010000000000000BRBBDCACNPR8601
012013101782BBDCX32     080BBDCE FM    PN      N1000R$  000000000006200000000000690000000000061000000000006300000000000630000000000000000000000000000032000000000000052800000000000003342300000000000317002013121600000010000000000000BRBBDCACNPR8600
012013101782BBDCX33     080BBDCE FM    PN      N1000R$  000000000002600000000000260000000000023000000000002500000000000250000000000000000000000002400021000000000000047100000000000001188300000000000296802013121600000010000000000000BRBBDCACNPR8598
012013101782BBDCX34     080BBDCE       PN      N1000R$  000000000014400000000001440000000000144000000000014400000000001440000000000000000000000000000001000000000000002000000000000000288000000000000337002013121600000010000000000000BRBBDCACNPR8600
012013101782BBDCX35     080BBDCE       PN      N1000R$  000000000020600000000002060000000000206000000000020600000000002060000000000000000000000000000001000000000000000300000000000000061800000000000347002013121600000010000000000000BRBBDCACNPR8600
012013101782BBDCX36     080BBDCE       PN      N1000R$  000000000008500000000000850000000000085000000000008500000000000850000000000000000000000000000001000000000000001200000000000000102000000000000323902013121600000010000000000000BRBBDCACNPR8597
012013101712BBFI11B     010FII BB PROGRCI      MB   R$  000000042000000000004200000000000415131000000041589300000004151310000000415200000000041910000013000000000000000035000000000014556261000000000000009999123100000010000000000000BRBBFICTF006199
012013101712BBPO11      010FII BB PRGIICI           R$  000000001117200000000111910000000011100000000001114700000000111680000000011120000000001116800161000000000000017754000000000197914169000000000000009999123100000010000000000000BRBBPOCTF003111
012013101712BBRC11      010FII BB CORP CI           R$  000000000880500000000088050000000008800000000000880000000000088000000000008812000000000895000017000000000000003100000000000027281306000000000000009999123100000010000000000000BRBBRCCTF004125
012013101702BBRK3       010BR BROKERS  ON      NM   R$  000000000063800000000006380000000000605000000000061400000000006100000000000609000000000061002290000000000001585000000000000974561900000000000000009999123100000010000000000000BRBBRKACNOR4108
012013101796BBRK3F      020BR BROKERS  ON      NM   R$  000000000062300000000006230000000000570000000000061100000000005700000000000571000000000060500005000000000000000067000000000000040949000000000000009999123100000010000000000000BRBBRKACNOR4108
012013101702BBSE3       010BBSEGURIDADEON      NM   R$  000000000234900000000023900000000002343000000000237600000000023900000000002390000000000239108290000000000005664100000000013461018300000000000000009999123100000010000000000000BRBBSEACNOR5101
012013101796BBSE3F      020BBSEGURIDADEON      NM   R$  000000000235000000000023890000000002335000000000236800000000023890000000002389000000000239000366000000000000011963000000000028339281000000000000009999123100000010000000000000BRBBSEACNOR5101
012013101762BBSE3T      030BBSEGURIDADEON      NM060R$  000000000239400000000023950000000002394000000000239400000000023950000000000000000000000000000002000000000000004500000000000010776743000000000000009999123100000010000000000000BRBBSEACNOR5101
012013101778BBSEK22     070BBSE        ON      NM000R$  000000000019100000000001910000000000191000000000019100000000001910000000000000000000000000000001000000000000025000000000000004775000000000000220002013111800000010000000000000BRBBSEACNOR5101
012013101778BBSEK23     070BBSE        ON      NM000R$  000000000010500000000001050000000000105000000000010500000000001050000000000000000000000012000001000000000000020000000000000002100000000000000230002013111800000010000000000000BRBBSEACNOR5101
012013101778BBSEL25     070BBSE        ON      NM000R$  000000000004200000000000420000000000042000000000004200000000000420000000000000000000000000000002000000000000034800000000000001461600000000000250002013121600000010000000000000BRBBSEACNOR5101
012013101782BBSEW23     080BBSEE       ON      NM000R$  000000000003500000000000350000000000035000000000003500000000000350000000000000000000000000000002000000000000006700000000000000234500000000000230002013111800000010000000000000BRBBSEACNOR5101
012013101782BBSEX21     080BBSEE       ON      NM000R$  000000000000600000000000060000000000006000000000000600000000000060000000000000000000000000000002000000000000034800000000000000208800000000000210002013121600000010000000000000BRBBSEACNOR5101
012013101782BBSEX23     080BBSEE       ON      NM000R$  000000000003300000000000330000000000033000000000003300000000000330000000000000000000000000000002000000000000034800000000000001148400000000000230002013121600000010000000000000BRBBSEACNOR5101
012013101702BBTG11      010BTG PACTUAL UNT          R$  000000000288800000000030060000000002874000000000299200000000029900000000002975000000000299000534000000000001814100000000005428325100000000000000009999123100000010000000000000BRBBTGUNT007105
012013101796BBTG11F     020BTG PACTUAL UNT          R$  000000000287800000000029950000000002865000000000292000000000029620000000002900000000000300000018000000000000000521000000000001521620000000000000009999123100000010000000000000BRBBTGUNT007105
012013101712BBVJ11      010FII C JARDIMCI           R$  000000000781000000000078100000000007681000000000771900000000076810000000007681000000000773400019000000000000000521000000000004021869000000000000009999123100000010000000000000BRBBVJCTF001134
012013101712BCFF11B     010FII BC FFII CI  ER  MB   R$  000000000892100000000089610000000008920000000000894000000000089220000000008922000000000895000055000000000000006012000000000053751515000000000000009999123100000010000000000000BRBCFFCTF000143
012013101702BDLL4       010BARDELLA    PN           R$  000000000510600000000051060000000005051000000000506400000000050510000000005050000000000540000004000000000000000400000000000002025900000000000000009999123100000010000000000000BRBDLLACNPR8149
012013101702BEEF3       010MINERVA     ON      NM   R$  000000000098700000000009980000000000975000000000098000000000009800000000000980000000000098201725000000000000440000000000000431627400000000000000009999123100000010000000000000BRBEEFACNOR6104
012013101796BEEF3F      020MINERVA     ON      NM   R$  000000000100000000000010000000000000975000000000098300000000009750000000000975000000000102400010000000000000000270000000000000265660000000000000009999123100000010000000000000BRBEEFACNOR6104
012013101702BEES3       010BANESTES    ON           R$  000000000005000000000000500000000000049000000000004900000000000500000000000049000000000005000008000000000000014200000000000000709000000000000000009999123100000010000000000000BRBEESACNOR9245
012013101702BEES4       010BANESTES    PN           R$  000000000004600000000000460000000000045000000000004500000000000460000000000045000000000004600004000000000000004000000000000000183900000000000000009999123100000010000000000000BRBEESACNPR6170
012013101702BEMA3       010BEMATECH    ON      NM   R$  000000000076800000000007790000000000768000000000077600000000007770000000000773000000000077700210000000000000251000000000000194918600000000000000009999123100000010000000000000BRBEMAACNOR0114
012013101796BEMA3F      020BEMATECH    ON      NM   R$  000000000075600000000007700000000000756000000000075600000000007700000000000756000000000084800002000000000000000054000000000000040866000000000000009999123100000010000000000000BRBEMAACNOR0114
012013101702BGIP4       010BANESE      PN           R$  000000000490000000000049000000000004900000000000490000000000049000000000004800000000000499700001000000000000000100000000000000490000000000000000009999123100000010000000000000BRBGIPACNPR8179
012013101702BHGR3       010BHG         ON      NM   R$  000000000145400000000014780000000001454000000000146600000000014660000000001466000000000147800018000000000000003600000000000005278000000000000000009999123100000010000000000000BRBHGRACNOR9101
012013101796BICB3F      020BICBANCO    ON      N1   R$  000000000061500000000006150000000000615000000000061500000000006150000000000600000000000070000001000000000000000028000000000000017220000000000000009999123100000010000000000000BRBICBACNOR0131
012013101702BICB4       010BICBANCO    PN      N1   R$  000000000059300000000006010000000000585000000000059500000000005970000000000595000000000059700057000000000000076700000000000045710900000000000000009999123100000010000000000000BRBICBACNPR7131
012013101796BICB4F      020BICBANCO    PN      N1   R$  000000000058200000000005960000000000582000000000058800000000005960000000000592000000000060200002000000000000000102000000000000060008000000000000009999123100000010000000000000BRBICBACNPR7131
012013101702BIOM3       010BIOMM       ON           R$  000000000092000000000009500000000000920000000000094600000000009500000000000935000000000099000003000000000000009000000000000008520000000000000000009999123100000010000000000000BRBIOMACNOR2101
012013101702BISA3       010BROOKFIELD  ON      NM   R$  000000000016100000000001680000000000159000000000016200000000001680000000000165000000000016803017000000000009745300000000001586144400000000000000009999123100000010000000000000BRBISAACNOR8109
012013101796BISA3F      020BROOKFIELD  ON      NM   R$  000000000015800000000001660000000000157000000000016000000000001570000000000157000000000016600013000000000000000243000000000000038964000000000000009999123100000010000000000000BRBISAACNOR8109
012013101762BISA3T      030BROOKFIELD  ON      NM060R$  000000000016200000000001630000000000162000000000016200000000001630000000000000000000000000000002000000000000020000000000000003246272000000000000009999123100000010000000000000BRBISAACNOR8109
012013101762BISA3T      030BROOKFIELD  ON      NM090R$  000000000016300000000001640000000000163000000000016300000000001640000000000000000000000000000002000000000002000000000000000326720000000000000000009999123100000010000000000000BRBISAACNOR8109
012013101762BISA3T      030BROOKFIELD  ON      NM120R$  000000000016800000000001680000000000168000000000016800000000001680000000000000000000000000000001000000000000000013000000000000002184000000000000009999123100000010000000000000BRBISAACNOR8109
012013101712BJRC11      010FII JS RECIMCI           R$  000000008500000000000850000000000084000000000008401400000000840000000000081000000000008400000002000000000000000071000000000005965000000000000000009999123100000010000000000000BRBJRCCTF007111
012013101702BMEB4       010MERC BRASIL PN           R$  000000000107800000000010780000000001055000000000106700000000010780000000001070000000000109800007000000000000003500000000000003736100000000000000009999123100000010000000000000BRBMEBACNPR5191
012013101702BMIN4       010MERC INVEST PN           R$  000000000002800000000000280000000000028000000000002800000000000280000000000027000000000002900002000000000000002000000000000000056000000000000000009999123100000010000000000000BRBMINACNPR1160
012013101796BMIN4F      020MERC INVEST PN           R$  000000000002800000000000280000000000028000000000002800000000000280000000000029000000000003000001000000000000000500000000000000014000000000000000009999123100000010000000000000BRBMINACNPR1160
012013101712BMLC11B     010FII BMBRC LCCI  ER  MB   R$  000000001160000000000116000000000011600000000001160000000000116000000000011451000000001160000005000000000000000046000000000000533600000000000000009999123100000010000000000000BRBMLCCTF004120
012013101702BMTO4       010BRASMOTOR   PN           R$  000000000008600000000000880000000000086000000000008600000000000880000000000086000000000008800009000000000000041000000000000003528000000000000000009999123100000010000000000000BRBMTOACNPR6065
012013101796BMTO4F      020BRASMOTOR   PN           R$  000000000008300000000000830000000000083000000000008300000000000830000000000083000000000009100003000000000000000814000000000000067562000000000000009999123100000010000000000000BRBMTOACNPR6065
012013101702BMYB34      010BRISTOLMYERSDRN          R$  000000001046900000000104690000000010469000000001046900000000104690000000010570000000001180000001000000000000000500000000000005234500000000000000009999123100000010000000000000BRBMYBBDR000101
012013101702BNBR4       010NORD BRASIL PN           R$  000000000240100000000024010000000002401000000000240100000000024010000000002400000000000260000001000000000000000100000000000000240100000000000000009999123100000010000000000000BRBNBRACNPR5187
012013101702BOBR4       010BOMBRIL     PN           R$  000000000062000000000006260000000000620000000000062300000000006220000000000622000000000064400007000000000000003900000000000002429800000000000000009999123100000010000000000000BRBOBRACNPR3127
012013101796BOBR4F      020BOMBRIL     PN           R$  000000000062000000000006200000000000620000000000062000000000006200000000000611000000000064500002000000000000000020000000000000012400000000000000009999123100000010000000000000BRBOBRACNPR3127
012013101714BOVA11      010ISHARES BOVACI           R$  000000000545000000000054720000000005390000000000543500000000054190000000005405000000000541903001000000000001229920000000006685820670000000000000009999123100000010000000000000BRBOVACTF003101
012013101796BOVA11F     020ISHARES BOVACI           R$  000000000544900000000054500000000005390000000000542300000000053900000000005384000000000542000019000000000000000093000000000000504401000000000000009999123100000010000000000000BRBOVACTF003101
012013101762BOVA11T     030ISHARES BOVACI        120R$  000000000558000000000055800000000005580000000000558000000000055800000000000000000000000000000001000000000000000001000000000000005580000000000000009999123100000010000000000000BRBOVACTF003101
012013101782BOVAV64     080BOVAE       CI        000R$  000000000096300000000009630000000000963000000000096300000000009630000000000000000000000000000001000000000000012000000000000011556000000000000640002013102100000010000000000000BRBOVACTF003101
012013101782BOVAW64     080BOVAE       CI        000R$  000000000091200000000009120000000000912000000000091200000000009120000000000000000000000000000002000000000000012000000000000010944000000000000640002013111800000010000000000000BRBOVACTF003101
012013101712BPFF11      010FII ABSOLUTOCI           R$  000000000830000000000084000000000008161000000000825600000000082750000000008160000000000828000049000000000000005401000000000044594528000000000000009999123100000010000000000000BRBPFFCTF002106
012013101702BPHA3       010BR PHARMA   ON      NM   R$  000000000085900000000008670000000000853000000000085800000000008630000000000857000000000086301004000000000000356900000000000306349100000000000000009999123100000010000000000000BRBPHAACNOR6102
012013101796BPHA3F      020BR PHARMA   ON      NM   R$  000000000086000000000008600000000000857000000000085700000000008570000000000851000000000087400002000000000000000063000000000000054030000000000000009999123100000010000000000000BRBPHAACNOR6102
012013101702BPNM4       010PANAMERICANOPN      N1   R$  000000000053700000000005420000000000537000000000053800000000005370000000000537000000000054000134000000000000102000000000000054964800000000000000009999123100000010000000000000BRBPNMACNPR6111
012013101796BPNM4F      020PANAMERICANOPN      N1   R$  000000000055200000000005520000000000535000000000053900000000005350000000000500000000000053500009000000000000000258000000000000139090000000000000009999123100000010000000000000BRBPNMACNPR6111
012013101702BRAP3       010BRADESPAR   ON      N1   R$  000000000206900000000020890000000002065000000000207300000000020890000000002068000000000209800015000000000000004800000000000009954100000000000000009999123100000010000000000000BRBRAPACNOR5124
012013101796BRAP3F      020BRADESPAR   ON      N1   R$  000000000206600000000020660000000002065000000000206500000000020650000000002011000000000209900002000000000000000088000000000000181760000000000000009999123100000010000000000000BRBRAPACNOR5124
012013101702BRAP4       010BRADESPAR   PN      N1   R$  000000000250500000000025460000000002505000000000253000000000025300000000002529000000000253003489000000000001023700000000002590401600000000000000009999123100000010000000000000BRBRAPACNPR2124
012013101796BRAP4F      020BRADESPAR   PN      N1   R$  000000000252300000000025630000000002502000000000252400000000025180000000002517000000000252600023000000000000000811000000000002047484000000000000009999123100000010000000000000BRBRAPACNPR2124
012013101712BRCR11      010FII BC FUND CI  ER       R$  000000001328000000000133930000000013215000000001329100000000133000000000013237000000001330000260000000000000025955000000000344987705000000000000009999123100000010000000000000BRBRCRCTF000134
012013101702BRFS3       010BRF SA      ON      NM   R$  000000000543400000000055190000000005432000000000547400000000054700000000005470000000000547505273000000000001238800000000006781658900000000000000009999123100000010000000000000BRBRFSACNOR8110
012013101796BRFS3F      020BRF SA      ON      NM   R$  000000000541000000000055270000000005410000000000547600000000054880000000005488000000000550000099000000000000003049000000000016699252000000000000009999123100000010000000000000BRBRFSACNOR8110
012013101762BRFS3S      030BRF SA      ON      NM090R$  000000000562200000000056230000000005622000000000562200000000056230000000000000000000000000000002000000000000000400000000000002249054000000000000009999123100000010000000000000BRBRFSACNOR8110
012013101762BRFS3T      030BRF SA      ON      NM032R$  000000000547800000000054970000000005478000000000548000000000054840000000000000000000000000000008000000000000000750000000000004110659000000000000009999123100000010000000000000BRBRFSACNOR8110
012013101762BRFS3T      030BRF SA      ON      NM060R$  000000000558900000000055900000000005547000000000555700000000055520000000000000000000000000000008000000000000000900000000000005002076000000000000009999123100000010000000000000BRBRFSACNOR8110
012013101702BRGE3       010ALFA CONSORCON           R$  000000000040000000000004000000000000400000000000040000000000004000000000000400000000000049900001000000000000000100000000000000040000000000000000009999123100000010000000000000BRBRGEACNOR6197
012013101702BRIN3       010BR INSURANCEON      NM   R$  000000000203400000000020800000000002023000000000205000000000020800000000002045000000000208100944000000000000171100000000000350789700000000000000009999123100000010000000000000BRBRINACNOR3106
012013101796BRIN3F      020BR INSURANCEON      NM   R$  000000000202500000000020590000000002025000000000204900000000020590000000002068000000000207900008000000000000000170000000000000348412000000000000009999123100000010000000000000BRBRINACNOR3106
012013101796BRIV3F      020ALFA INVEST ON           R$  000000000060000000000006000000000000600000000000060000000000006000000000000508000000000000000002000000000000000024000000000000014400000000000000009999123100000010000000000000BRBRIVACNOR6197
012013101702BRIV4       010ALFA INVEST PN           R$  000000000058900000000005890000000000589000000000058900000000005890000000000548000000000058800001000000000000000200000000000000117800000000000000009999123100000010000000000000BRBRIVACNPR3197
012013101796BRIV4F      020ALFA INVEST PN           R$  000000000054200000000005420000000000542000000000054200000000005420000000000542000000000059600001000000000000000066000000000000035772000000000000009999123100000010000000000000BRBRIVACNPR3197
012013101702BRKM3       010BRASKEM     ON      N1   R$  000000000133700000000013450000000001308000000000133900000000013450000000001292000000000134500012000000000000007400000000000009910400000000000000009999123100000010000000000000BRBRKMACNOR1110
012013101702BRKM5       010BRASKEM     PNA     N1   R$  000000000191000000000019620000000001900000000000193900000000019380000000001938000000000194010450000000000002513600000000004876091800000000000000009999123100000010000000000000BRBRKMACNPA4110
012013101796BRKM5F      020BRASKEM     PNA     N1   R$  000000000191100000000019550000000001871000000000194200000000019390000000001915000000000195000030000000000000001081000000000002099734000000000000009999123100000010000000000000BRBRKMACNPA4110
012013101762BRKM5T      030BRASKEM     PNA     N1120R$  000000000201000000000020100000000002010000000000201000000000020100000000000000000000000000000001000000000000000001000000000000002010000000000000009999123100000010000000000000BRBRKMACNPA4110
012013101778BRKMA19     070BRKM        PNA     N1000R$  000000000013700000000001370000000000137000000000013700000000001370000000000000000000000000000002000000000000100000000000000013700000000000000190002014012000000010000000000000BRBRKMACNPA4110
012013101778BRKMA21     070BRKM        PNA     N1000R$  000000000004300000000000430000000000043000000000004300000000000430000000000000000000000000000002000000000000100000000000000004300000000000000210002014012000000010000000000000BRBRKMACNPA4110
012013101782BRKMM17     080BRKME       PNA     N1000R$  000000000002100000000000210000000000021000000000002100000000000210000000000000000000000000000002000000000000100000000000000002100000000000000170002014012000000010000000000000BRBRKMACNPA4110
012013101702BRML3       010BR MALLS PARON      NM   R$  000000000210000000000022140000000002100000000000218000000000022050000000002205000000000220610229000000000003826000000000008344228900000000000000009999123100000010000000000000BRBRMLACNOR9105
012013101796BRML3F      020BR MALLS PARON      NM   R$  000000000213500000000022120000000002100000000000216400000000022120000000002217000000000222300115000000000000004553000000000009859082000000000000009999123100000010000000000000BRBRMLACNOR9105
012013101762BRML3T      030BR MALLS PARON      NM090R$  000000000214400000000021800000000002144000000000217800000000021800000000000000000000000000000004000000000000005200000000000011326726000000000000009999123100000010000000000000BRBRMLACNOR9105
012013101762BRML3T      030BR MALLS PARON      NM120R$  000000000226300000000022640000000002263000000000226300000000022640000000000000000000000000000002000000000000000004000000000000009055000000000000009999123100000010000000000000BRBRMLACNOR9105
012013101702BRPR3       010BR PROPERT  ON      NM   R$  000000000186200000000019560000000001856000000000190700000000019440000000001937000000000194408996000000000005128200000000009784277500000000000000009999123100000010000000000000BRBRPRACNOR9112
012013101796BRPR3F      020BR PROPERT  ON      NM   R$  000000000185900000000019500000000001847000000000191100000000018470000000001851000000000193300128000000000000003964000000000007577910000000000000009999123100000010000000000000BRBRPRACNOR9112
012013101762BRPR3T      030BR PROPERT  ON      NM120R$  000000000200000000000020000000000002000000000000200000000000020000000000000000000000000000000001000000000000000001000000000000002000000000000000009999123100000010000000000000BRBRPRACNOR9112
012013101702BRSR3       010BANRISUL    ON      N1   R$  000000000140000000000014000000000001400000000000140000000000014000000000001310000000000140900001000000000000000100000000000000140000000000000000009999123100000010000000000000BRBRSRACNOR3131
012013101796BRSR3F      020BANRISUL    ON      N1   R$  000000000142500000000014250000000001425000000000142500000000014250000000001301000000000142200001000000000000000028000000000000039900000000000000009999123100000010000000000000BRBRSRACNOR3131
012013101702BRSR6       010BANRISUL    PNB     N1   R$  000000000152000000000015640000000001520000000000154800000000015450000000001544000000000154502222000000000000558200000000000864317900000000000000009999123100000010000000000000BRBRSRACNPB4134
012013101796BRSR6F      020BANRISUL    PNB     N1   R$  000000000152000000000015650000000001501000000000154900000000015650000000001522000000000156400023000000000000000459000000000000711190000000000000009999123100000010000000000000BRBRSRACNPB4134
012013101762BRSR6T      030BANRISUL    PNB     N1120R$  000000000161100000000016110000000001611000000000161100000000016110000000000000000000000000000001000000000000000001000000000000001611000000000000009999123100000010000000000000BRBRSRACNPB4134
012013101702BSEV3       010BIOSEV      ON      NM   R$  000000000086500000000008840000000000856000000000087300000000008560000000000838000000000088300007000000000000003100000000000002707300000000000000009999123100000010000000000000BRBSEVACNOR3100
012013101702BTOW3       010B2W DIGITAL ON      NM   R$  000000000166400000000017110000000001618000000000166900000000017110000000001711000000000171201203000000000000277400000000000463464000000000000000009999123100000010000000000000BRBTOWACNOR8105
012013101796BTOW3F      020B2W DIGITAL ON      NM   R$  000000000173300000000017330000000001607000000000166200000000017280000000001607000000000172800027000000000000000895000000000001491092000000000000009999123100000010000000000000BRBTOWACNOR8105
012013101762BTOW3T      030B2W DIGITAL ON      NM032R$  000000000171100000000017120000000001711000000000171100000000017120000000000000000000000000000002000000000000001700000000000002909710000000000000009999123100000010000000000000BRBTOWACNOR8105
012013101762BTOW3T      030B2W DIGITAL ON      NM060R$  000000000166600000000016670000000001666000000000166600000000016670000000000000000000000000000002000000000000001000000000000001666687000000000000009999123100000010000000000000BRBTOWACNOR8105
012013101762BTOW3T      030B2W DIGITAL ON      NM120R$  000000000178100000000017820000000001781000000000178100000000017820000000000000000000000000000002000000000000000002000000000000003563000000000000009999123100000010000000000000BRBTOWACNOR8105
012013101702BVMF3       010BMFBOVESPA  ON      NM   R$  000000000128100000000012980000000001271000000000128600000000012800000000001280000000000128320665000000000010917000000000014042537400000000000000009999123100000010000000000000BRBVMFACNOR3126
012013101796BVMF3F      020BMFBOVESPA  ON      NM   R$  000000000128500000000012980000000001274000000000128600000000012960000000001280000000000129900112000000000000003974000000000005110835000000000000009999123100000010000000000000BRBVMFACNOR3126
012013101762BVMF3T      030BMFBOVESPA  ON      NM018R$  000000000128900000000012900000000001289000000000128900000000012900000000000000000000000000000002000000000000010000000000000012896496000000000000009999123100000010000000000000BRBVMFACNOR3126
012013101762BVMF3T      030BMFBOVESPA  ON      NM090R$  000000000131800000000013200000000001318000000000131900000000013190000000000000000000000000000032000000000002576000000000003398398981000000000000009999123100000010000000000000BRBVMFACNOR3126
012013101778BVMFA13     070BVMF        ON      NM000R$  000000000007400000000000740000000000074000000000007400000000000740000000000000000000000000000004000000000000006100000000000000451400000000000130002014012000000010000000000000BRBVMFACNOR3126
012013101778BVMFA14     070BVMF        ON      NM000R$  000000000003300000000000330000000000033000000000003300000000000330000000000025000000000000000001000000000000000800000000000000026400000000000140002014012000000010000000000000BRBVMFACNOR3126
012013101778BVMFA42     070BVMF        ON      NM000R$  000000000010300000000001030000000000103000000000010300000000001030000000000000000000000000000001000000000000000500000000000000051500000000000125002014012000000010000000000000BRBVMFACNOR3126
012013101778BVMFJ11     070BVMF        ON      NM000R$  000000000020100000000002050000000000200000000000020200000000002000000000000175000000000000000003000000000000002100000000000000425100000000000108502013102100000010000000000000BRBVMFACNOR3125
012013101778BVMFJ12     070BVMF        ON      NM000R$  000000000009300000000001130000000000090000000000010400000000001070000000000092000000000011500048000000000000075600000000000007866500000000000118502013102100000010000000000000BRBVMFACNOR3125
012013101778BVMFJ13     070BVMF        ON      NM000R$  000000000001000000000000220000000000010000000000001500000000000130000000000012000000000001300204000000000000275300000000000004217800000000000128502013102100000010000000000000BRBVMFACNOR3125
012013101778BVMFJ14     070BVMF        ON      NM000R$  000000000000100000000000010000000000001000000000000100000000000010000000000000000000000000100003000000000000001400000000000000001400000000000138502013102100000010000000000000BRBVMFACNOR3125
012013101778BVMFJ42     070BVMF        ON      NM000R$  000000000006500000000000650000000000051000000000005400000000000540000000000047000000000123500005000000000000014500000000000000783500000000000123502013102100000010000000000000BRBVMFACNOR3125
012013101778BVMFJ43     070BVMF        ON      NM000R$  000000000000100000000000020000000000001000000000000100000000000020000000000000000000000000000002000000000000001400000000000000001800000000000133502013102100000010000000000000BRBVMFACNOR3125
012013101778BVMFK11     070BVMF        ON      NM000R$  000000000021000000000002150000000000210000000000021200000000002150000000000146000000000021500002000000000000002000000000000000425000000000000108502013111800000010000000000000BRBVMFACNOR3125
012013101778BVMFK12     070BVMF        ON      NM000R$  000000000011000000000001250000000000110000000000012000000000001180000000000102000000000012600021000000000000030300000000000003664900000000000118502013111800000010000000000000BRBVMFACNOR3125
012013101778BVMFK13     070BVMF  FM    ON      NM000R$  000000000004100000000000510000000000040000000000004500000000000400000000000040000000000004700405000000000000247500000000000011245800000000000128502013111800000010000000000000BRBVMFACNOR3125
012013101778BVMFK14     070BVMF  FM    ON      NM000R$  000000000000900000000000110000000000009000000000000900000000000100000000000008000000000001000114000000000000100900000000000001001100000000000138502013111800000010000000000000BRBVMFACNOR3125
012013101778BVMFK15     070BVMF        ON      NM000R$  000000000000200000000000020000000000002000000000000200000000000020000000000002000000000000300002000000000000010800000000000000021600000000000148502013111800000010000000000000BRBVMFACNOR3125
012013101778BVMFK16     070BVMF        ON      NM000R$  000000000000100000000000010000000000001000000000000100000000000010000000000000000000000000000002000000000000010000000000000000010000000000000160002013111800000010000000000000BRBVMFACNOR3126
012013101778BVMFK42     070BVMF  FM    ON      NM000R$  000000000006800000000000710000000000064000000000006800000000000690000000000000000000000000000054000000000000050000000000000003403700000000000125002013111800000010000000000000BRBVMFACNOR3126
012013101778BVMFK43     070BVMF  FM    ON      NM000R$  000000000001500000000000200000000000015000000000001800000000000170000000000001000000000002100023000000000000026100000000000000476300000000000135002013111800000010000000000000BRBVMFACNOR3126
012013101778BVMFK44     070BVMF  FM    ON      NM000R$  000000000000400000000000050000000000004000000000000400000000000040000000000000000000000000000263000000000000062100000000000000264400000000000145002013111800000010000000000000BRBVMFACNOR3126
012013101778BVMFK52     070BVMFE       ON      NM000R$  000000000009000000000000900000000000085000000000008700000000000850000000000000000000000000000005000000000000020000000000000001750000000000000122502013111800000010000000000000BRBVMFACNOR3126
012013101778BVMFL12     070BVMF        ON      NM000R$  000000000016200000000001650000000000162000000000016400000000001650000000000000000000000020900006000000000000006500000000000001069000000000000115402013121600000010000000000000BRBVMFACNOR3123
012013101778BVMFL13     070BVMF  FM    ON      NM000R$  000000000006500000000000700000000000063000000000006500000000000630000000000060000000000007500010000000000000018700000000000001229000000000000128502013121600000010000000000000BRBVMFACNOR3125
012013101778BVMFL14     070BVMF  FM    ON      NM000R$  000000000002700000000000280000000000025000000000002600000000000250000000000014000000000003000006000000000000013300000000000000351500000000000137402013121600000010000000000000BRBVMFACNOR3124
012013101778BVMFL42     070BVMF  FM    ON      NM000R$  000000000008700000000000880000000000083000000000008500000000000860000000000000000000000000000017000000000000029100000000000002487700000000000125002013121600000010000000000000BRBVMFACNOR3126
012013101778BVMFL43     070BVMF        ON      NM000R$  000000000005000000000000500000000000050000000000005000000000000500000000000000000000000000000002000000000000003500000000000000175000000000000131902013121600000010000000000000BRBVMFACNOR3126
012013101778BVMFL44     070BVMF  FM    ON      NM000R$  000000000001000000000000160000000000010000000000001100000000000120000000000000000000000000000024000000000000052000000000000000592200000000000145002013121600000010000000000000BRBVMFACNOR3126
012013101778BVMFL64     070BVMF  FM    ON      NM000R$  000000000002100000000000210000000000021000000000002100000000000210000000000000000000000000000002000000000000005600000000000000117600000000000140002013121600000010000000000000BRBVMFACNOR3126
012013101782BVMFM12     080BVMFE       ON      NM000R$  000000000002400000000000260000000000024000000000002500000000000260000000000000000000000002800010000000000000035200000000000000909800000000000120002014012000000010000000000000BRBVMFACNOR3126
012013101782BVMFV12     080BVMFE       ON      NM000R$  000000000000300000000000030000000000001000000000000100000000000010000000000000000000000000100016000000000000062000000000000000064200000000000118502013102100000010000000000000BRBVMFACNOR3125
012013101782BVMFV13     080BVMFE       ON      NM000R$  000000000001800000000000180000000000009000000000001100000000000130000000000013000000000001400090000000000000229800000000000002596900000000000128502013102100000010000000000000BRBVMFACNOR3125
012013101782BVMFV14     080BVMFE       ON      NM000R$  000000000009800000000000980000000000098000000000009800000000000980000000000000000000000000000001000000000000003000000000000000294000000000000138502013102100000010000000000000BRBVMFACNOR3125
012013101782BVMFV41     080BVMFE       ON      NM000R$  000000000000100000000000010000000000001000000000000100000000000010000000000000000000000000000002000000000000000400000000000000000400000000000113502013102100000010000000000000BRBVMFACNOR3125
012013101782BVMFV42     080BVMFE       ON      NM000R$  000000000000400000000000040000000000001000000000000100000000000020000000000000000000000003200014000000000000170000000000000000174200000000000123502013102100000010000000000000BRBVMFACNOR3125
012013101782BVMFV43     080BVMFE       ON      NM000R$  000000000004200000000000520000000000042000000000005000000000000490000000000000000000000010000004000000000000007100000000000000357700000000000133502013102100000010000000000000BRBVMFACNOR3125
012013101782BVMFW12     080BVMFE FM    ON      NM000R$  000000000001200000000000120000000000010000000000001100000000000110000000000009000000000001500069000000000001096500000000000012105600000000000118502013111800000010000000000000BRBVMFACNOR3125
012013101782BVMFW13     080BVMFE FM    ON      NM000R$  000000000003700000000000380000000000031000000000003600000000000320000000000030000000000003900283000000000001168000000000000042699800000000000128502013111800000010000000000000BRBVMFACNOR3125
012013101782BVMFW42     080BVMFE FM    ON      NM000R$  000000000002500000000000260000000000025000000000002500000000000250000000000000000000000002700010000000000000023200000000000000592700000000000125002013111800000010000000000000BRBVMFACNOR3126
012013101782BVMFW43     080BVMFE FM    ON      NM000R$  000000000007300000000000780000000000067000000000007200000000000740000000000000000000000000000061000000000000155100000000000011182200000000000135002013111800000010000000000000BRBVMFACNOR3126
012013101782BVMFX13     080BVMFE FM    ON      NM000R$  000000000004700000000000470000000000043000000000004400000000000440000000000000000000000004700013000000000000035600000000000001594000000000000128502013121600000010000000000000BRBVMFACNOR3125
012013101782BVMFX14     080BVMFE FM    ON      NM000R$  000000000009500000000000990000000000090000000000009300000000000920000000000000000000000000000014000000000000040500000000000003802400000000000137402013121600000010000000000000BRBVMFACNOR3124
012013101782BVMFX42     080BVMFE FM    ON      NM000R$  000000000003500000000000350000000000034000000000003400000000000350000000000000000000000000000010000000000000026600000000000000923800000000000125002013121600000010000000000000BRBVMFACNOR3126
012013101782BVMFX62     080BVMFE FM    ON      NM000R$  000000000002200000000000220000000000021000000000002100000000000210000000000000000000000000000002000000000000007000000000000000150500000000000120002013121600000010000000000000BRBVMFACNOR3126
012013101702CAMB4       010CAMBUCI     PN           R$  000000000018000000000001840000000000180000000000018000000000001840000000000183000000000019000006000000000000003400000000000000614500000000000000009999123100000010000000000000BRCAMBACNPR1117
012013101702CARD3       010CSU CARDSYSTON      NM   R$  000000000030800000000003080000000000300000000000030400000000003070000000000302000000000030700036000000000000033300000000000010127900000000000000009999123100000010000000000000BRCARDACNOR9105
012013101796CARD3F      020CSU CARDSYSTON      NM   R$  000000000030000000000003000000000000300000000000030000000000003000000000000294000000000030000001000000000000000005000000000000001500000000000000009999123100000010000000000000BRCARDACNOR9105
012013101702CBEE3       010AMPLA ENERG ON *         R$  000000000013000000000001300000000000130000000000013000000000001300000000000125000000000013000001000000000001000000000000000000130000000000000000009999123100010000000000000000BRCBEEACNOR3149
012013101708CCHI3       010CHIARELLI   ON           R$  000000000001700000000000180000000000017000000000001700000000000180000000000017000000000001800036000000000000580000000000000010290000000000000000009999123100000010000000000000BRCCHIACNOR5123
012013101708CCHI4       010CHIARELLI   PN           R$  000000000001200000000000120000000000012000000000001200000000000120000000000012000000000001300002000000000000020000000000000000240000000000000000009999123100000010000000000000BRCCHIACNPR2122
012013101702CCPR3       010CYRE COM-CCPON      NM   R$  000000000205000000000020600000000002050000000000205000000000020500000000002010000000000209700008000000000000002700000000000005536000000000000000009999123100000010000000000000BRCCPRACNOR9107
012013101796CCPR3F      020CYRE COM-CCPON      NM   R$  000000000204000000000020400000000002040000000000204000000000020400000000001993000000000204000001000000000000000004000000000000008160000000000000009999123100000010000000000000BRCCPRACNOR9107
012013101702CCRO3       010CCR SA      ON      NM   R$  000000000175700000000017810000000001752000000000176000000000017750000000001774000000000177508487000000000006967400000000012269192500000000000000009999123100000010000000000000BRCCROACNOR2123
012013101796CCRO3F      020CCR SA      ON      NM   R$  000000000175200000000017840000000001752000000000176600000000017810000000001768000000000178100062000000000000002124000000000003751049000000000000009999123100000010000000000000BRCCROACNOR2123
012013101762CCRO3T      030CCR SA      ON      NM060R$  000000000178300000000017840000000001783000000000178300000000017840000000000000000000000000000002000000000000002000000000000003566710000000000000009999123100000010000000000000BRCCROACNOR2123
012013101702CCXC3       010CCX CARVAO  ON      NM   R$  000000000013400000000001520000000000134000000000014200000000001360000000000136000000000013802445000000000008092700000000001156659700000000000000009999123100000010000000000000BRCCXCACNOR5100
012013101796CCXC3F      020CCX CARVAO  ON      NM   R$  000000000013500000000001500000000000135000000000013900000000001480000000000134000000000014800011000000000000000397000000000000055477000000000000009999123100000010000000000000BRCCXCACNOR5100
012013101762CCXC3T      030CCX CARVAO  ON      NM018R$  000000000015100000000001520000000000151000000000015100000000001520000000000000000000000000000002000000000000050000000000000007583220000000000000009999123100000010000000000000BRCCXCACNOR5100
012013101762CCXC3T      030CCX CARVAO  ON      NM032R$  000000000014000000000001490000000000140000000000014200000000001490000000000000000000000000000004000000000000130000000000000018520569000000000000009999123100000010000000000000BRCCXCACNOR5100
012013101762CCXC3T      030CCX CARVAO  ON      NM120R$  000000000015400000000001550000000000154000000000015400000000001550000000000000000000000000000002000000000000000041000000000000006340000000000000009999123100000010000000000000BRCCXCACNOR5100
012013101702CEEB3       010COELBA      ON           R$  000000000330000000000033990000000003300000000000336600000000033990000000003208000000000339900002000000000000000300000000000001009800000000000000009999123100000010000000000000BRCEEBACNOR3163
012013101708CELP3       010CELPA       ON           R$  000000000008300000000000840000000000083000000000008300000000000840000000000070000000000008400005000000000000003900000000000000327300000000000000009999123100000010000000000000BRCELPACNOR8112
012013101712CEOC11B     010FII CEO CCP CI  ER  MB   R$  000000000865500000000087000000000008571000000000859400000000086900000000008600000000000869000019000000000000002707000000000023265400000000000000009999123100000010000000000000BRCEOCCTF003111
012013101702CESP3       010CESP        ON      N1   R$  000000000196000000000019900000000001920000000000196700000000019410000000001910000000000195900017000000000000006300000000000012392100000000000000009999123100000010000000000000BRCESPACNOR3160
012013101702CESP5       010CESP        PNA     N1   R$  000000000210100000000021010000000002101000000000210100000000021010000000002100000000000226900002000000000000000200000000000000420200000000000000009999123100000010000000000000BRCESPACNPA6108
012013101702CESP6       010CESP        PNB     N1   R$  000000000227300000000022790000000002244000000000226100000000022590000000002251000000000225902649000000000000444600000000001005637600000000000000009999123100000010000000000000BRCESPACNPB4119
012013101796CESP6F      020CESP        PNB     N1   R$  000000000227500000000023140000000002241000000000227100000000022410000000002241000000000229900019000000000000000577000000000001310072000000000000009999123100000010000000000000BRCESPACNPB4119
012013101762CESP6T      030CESP        PNB     N1018R$  000000000226900000000022700000000002269000000000226900000000022700000000000000000000000000000002000000000000001600000000000003631910000000000000009999123100000010000000000000BRCESPACNPB4119
012013101762CESP6T      030CESP        PNB     N1120R$  000000000238500000000023860000000002385000000000238500000000023860000000000000000000000000000002000000000000000002000000000000004771000000000000009999123100000010000000000000BRCESPACNPB4119
012013101702CGAS3       010COMGAS      ON           R$  000000000532000000000054000000000005320000000000536700000000054000000000000000000000000541900004000000000000000400000000000002147000000000000000009999123100000010000000000000BRCGASACNOR0132
012013101702CGAS5       010COMGAS      PNA          R$  000000000576100000000058190000000005761000000000579700000000057750000000005775000000000580000085000000000000032100000000000186103700000000000000009999123100000010000000000000BRCGASACNPA3129
012013101796CGAS5F      020COMGAS      PNA          R$  000000000580500000000058600000000005751000000000582600000000058600000000005850000000000629900007000000000000000251000000000001462524000000000000009999123100000010000000000000BRCGASACNPA3129
012013101702CGRA3       010GRAZZIOTIN  ON           R$  000000000164900000000016500000000001649000000000164900000000016500000000001635000000000164900002000000000000000300000000000000494900000000000000009999123100000010000000000000BRCGRAACNOR2061
012013101702CGRA4       010GRAZZIOTIN  PN           R$  000000000176500000000017730000000001764000000000176500000000017640000000001750000000000176500005000000000000002500000000000004413800000000000000009999123100000010000000000000BRCGRAACNPR9061
012013101796CGRA4F      020GRAZZIOTIN  PN           R$  000000000178500000000017850000000001730000000000176800000000017300000000001750000000000180000004000000000000000059000000000000104370000000000000009999123100000010000000000000BRCGRAACNPR9061
012013101702CIEL3       010CIELO       ON      NM   R$  000000000656400000000066740000000006562000000000661500000000066430000000006643000000000665605742000000000001763600000000011667053600000000000000009999123100000010000000000000BRCIELACNOR3112
012013101796CIEL3F      020CIELO       ON      NM   R$  000000000660500000000066500000000006570000000000661400000000066500000000006630000000000665000128000000000000004177000000000027631095000000000000009999123100000010000000000000BRCIELACNOR3112
012013101762CIEL3T      030CIELO       ON      NM090R$  000000000677900000000067800000000006779000000000677900000000067800000000000000000000000000000002000000000000200000000000001355956240000000000000009999123100000010000000000000BRCIELACNOR3112
012013101778CIELL69     070CIEL        ON      NM000R$  000000000010000000000001000000000000100000000000010000000000001000000000000000000000000000000002000000000000380000000000000038000000000000000690002013121600000010000000000000BRCIELACNOR3112
012013101782CIELX17     080CIELE       ON      NM000R$  000000000014200000000001420000000000142000000000014200000000001420000000000000000000000000000002000000000000380000000000000053960000000000000655002013121600000010000000000000BRCIELACNOR3112
012013101782CIELX62     080CIELE       ON      NM000R$  000000000005600000000000570000000000056000000000005600000000000570000000000000000000000000000002000000000000380000000000000021470000000000000620002013121600000010000000000000BRCIELACNOR3112
012013101702CLSC4       010CELESC      PN      N2   R$  000000000186100000000018610000000001840000000000185500000000018550000000001840000000000185500010000000000000003500000000000006495800000000000000009999123100000010000000000000BRCLSCACNPR3107
012013101758CMGR3       010CEMAT       ON           R$  000000000042000000000004200000000000411000000000041900000000004200000000000415000000000046900013000000000000008500000000000003568200000000000000009999123100000010000000000000BRCMGRACNOR7114
012013101702CMIG3       010CEMIG       ON      N1   R$  000000000195700000000019640000000001948000000000195100000000019520000000001952000000000195400112000000000000060600000000000118283700000000000000009999123100000010000000000000BRCMIGACNOR6208
012013101796CMIG3F      020CEMIG       ON      N1   R$  000000000194700000000019770000000001947000000000195600000000019500000000001947000000000195000013000000000000000403000000000000788571000000000000009999123100000010000000000000BRCMIGACNOR6208
012013101702CMIG4       010CEMIG       PN      N1   R$  000000000197000000000019880000000001966000000000197800000000019810000000001978000000000198103770000000000001510000000000002987631200000000000000009999123100000010000000000000BRCMIGACNPR3208
012013101796CMIG4F      020CEMIG       PN      N1   R$  000000000197000000000019890000000001967000000000197700000000019860000000001980000000000198700095000000000000002713000000000005365037000000000000009999123100000010000000000000BRCMIGACNPR3208
012013101762CMIG4S      030CEMIG       PN      N1060R$  000000000201200000000020130000000002012000000000201200000000020130000000000000000000000000000002000000000000003000000000000006036305000000000000009999123100000010000000000000BRCMIGACNPR3208
012013101762CMIG4T      030CEMIG       PN      N1090R$  000000000202700000000020280000000002027000000000202700000000020280000000000000000000000000000002000000000000000200000000000000405484000000000000009999123100000010000000000000BRCMIGACNPR3208
012013101762CMIG4T      030CEMIG       PN      N1120R$  000000000203800000000020390000000002038000000000203800000000020390000000000000000000000000000002000000000000000006000000000000012229000000000000009999123100000010000000000000BRCMIGACNPR3208
012013101702COCE3       010COELCE      ON           R$  000000000400300000000040400000000004000000000000401700000000040390000000004000000000000403900036000000000000007700000000000030931300000000000000009999123100000010000000000000BRCOCEACNOR0132
012013101796COCE3F      020COELCE      ON           R$  000000000400000000000040000000000003965000000000397000000000039650000000003825000000000400000002000000000000000012000000000000047650000000000000009999123100000010000000000000BRCOCEACNOR0132
012013101702COCE5       010COELCE      PNA          R$  000000000387000000000039450000000003870000000000391000000000039120000000003912000000000393000211000000000000079500000000000310922400000000000000009999123100000010000000000000BRCOCEACNPA3133
012013101796COCE5F      020COELCE      PNA          R$  000000000388000000000039100000000003880000000000389800000000038810000000003915000000000393600019000000000000000368000000000001434664000000000000009999123100000010000000000000BRCOCEACNPA3133
012013101702CPFE3       010CPFL ENERGIAON      NM   R$  000000000197700000000019820000000001957000000000196600000000019680000000001968000000000196903104000000000000643300000000001264934200000000000000009999123100000010000000000000BRCPFEACNOR0122
012013101796CPFE3F      020CPFL ENERGIAON      NM   R$  000000000197700000000019840000000001951000000000196500000000019570000000001957000000000198500034000000000000000893000000000001755140000000000000009999123100000010000000000000BRCPFEACNOR0122
012013101762CPFE3T      030CPFL ENERGIAON      NM120R$  000000000201800000000020190000000002018000000000201800000000020190000000000000000000000000000002000000000000000003000000000000006056000000000000009999123100000010000000000000BRCPFEACNOR0122
012013101702CPLE3       010COPEL       ON      N1   R$  000000000220300000000022250000000002203000000000221600000000022250000000002205000000000222500152000000000000034500000000000076485400000000000000009999123100000010000000000000BRCPLEACNOR8128
012013101796CPLE3F      020COPEL       ON      N1   R$  000000000239000000000023900000000002390000000000239000000000023900000000002140000000000239000001000000000000000076000000000000181640000000000000009999123100000010000000000000BRCPLEACNOR8128
012013101702CPLE6       010COPEL       PNB     N1   R$  000000000306700000000030700000000003025000000000305800000000030700000000003070000000000307202652000000000000501700000000001534685600000000000000009999123100000010000000000000BRCPLEACNPB9125
012013101796CPLE6F      020COPEL       PNB     N1   R$  000000000306500000000031190000000003022000000000306400000000031000000000003020000000000312000019000000000000000797000000000002442702000000000000009999123100000010000000000000BRCPLEACNPB9125
012013101702CPRE3       010CPFL RENOVAVON      NM   R$  000000000135400000000013540000000001335000000000134200000000013500000000001315000000000135000010000000000000003400000000000004563900000000000000009999123100000010000000000000BRCPREACNOR5100
012013101796CPRE3F      020CPFL RENOVAVON      NM   R$  000000000136000000000013600000000001350000000000135400000000013500000000001209000000000133500003000000000000000068000000000000092130000000000000009999123100000010000000000000BRCPREACNOR5100
012013101702CRDE3       010CR2         ON      NM   R$  000000000038400000000003920000000000384000000000038700000000003920000000000385000000000039500010000000000000010400000000000004030100000000000000009999123100000010000000000000BRCRDEACNOR1108
012013101702CREM3       010CREMER      ON      NM   R$  000000000147000000000014970000000001470000000000149000000000014970000000001470000000000149700025000000000000107500000000000160190400000000000000009999123100000010000000000000BRCREMACNOR2167
012013101796CREM3F      020CREMER      ON      NM   R$  000000000148900000000014900000000001489000000000148900000000014900000000001451000000000149000003000000000000000100000000000000148920000000000000009999123100000010000000000000BRCREMACNOR2167
012013101702CRUZ3       010SOUZA CRUZ  ON           R$  000000000255800000000025900000000002541000000000256700000000025740000000002574000000000257902349000000000000529400000000001359485900000000000000009999123100000010000000000000BRCRUZACNOR0248
012013101796CRUZ3F      020SOUZA CRUZ  ON           R$  000000000256200000000026340000000002543000000000256900000000025450000000002545000000000264000060000000000000001652000000000004244940000000000000009999123100000010000000000000BRCRUZACNOR0248
012013101702CSAN3       010COSAN       ON      NM   R$  000000000439100000000044650000000004352000000000440900000000044520000000004437000000000445202698000000000000629800000000002776965100000000000000009999123100000010000000000000BRCSANACNOR6108
012013101796CSAN3F      020COSAN       ON      NM   R$  000000000440000000000044400000000004351000000000439800000000043810000000004380000000000447000035000000000000001143000000000005026946000000000000009999123100000010000000000000BRCSANACNOR6108
012013101762CSAN3T      030COSAN       ON      NM090R$  000000000448300000000045200000000004481000000000449100000000045200000000000000000000000000000020000000000000109000000000000489626123000000000000009999123100000010000000000000BRCSANACNOR6108
012013101762CSAN3T      030COSAN       ON      NM120R$  000000000455500000000045560000000004555000000000455500000000045560000000000000000000000000000002000000000000000002000000000000009111000000000000009999123100000010000000000000BRCSANACNOR6108
012013101702CSMG3       010COPASA      ON      NM   R$  000000000355900000000036150000000003550000000000358300000000036100000000003600000000000361000764000000000000088100000000000315708800000000000000009999123100000010000000000000BRCSMGACNOR5128
012013101796CSMG3F      020COPASA      ON      NM   R$  000000000356000000000036340000000003560000000000362400000000036200000000003550000000000362000003000000000000000028000000000000101496000000000000009999123100000010000000000000BRCSMGACNOR5128
012013101702CSNA3       010SID NACIONALON           R$  000000000114500000000011720000000001118000000000114900000000011570000000001155000000000115718283000000000012738500000000014648340900000000000000009999123100000010000000000000BRCSNAACNOR6243
012013101796CSNA3F      020SID NACIONALON           R$  000000000117000000000011730000000001125000000000114700000000011610000000001146000000000117400075000000000000002612000000000002997095000000000000009999123100000010000000000000BRCSNAACNOR6243
012013101762CSNA3T      030SID NACIONALON        032R$  000000000116300000000011640000000001163000000000116300000000011640000000000000000000000000000002000000000000005000000000000005819467000000000000009999123100000010000000000000BRCSNAACNOR6243
012013101762CSNA3T      030SID NACIONALON        120R$  000000000118500000000011860000000001185000000000118500000000011860000000000000000000000000000002000000000000000002000000000000002371000000000000009999123100000010000000000000BRCSNAACNOR6243
012013101778CSNAJ10     070CSNA        ON        000R$  000000000015200000000001600000000000130000000000015200000000001440000000000131000000000000000035000000000000044700000000000006812700000000000100002013102100000010000000000000BRCSNAACNOR6243
012013101778CSNAJ11     070CSNA        ON        000R$  000000000006300000000000630000000000047000000000005400000000000500000000000000000000000008400007000000000000005500000000000000297300000000000110002013102100000010000000000000BRCSNAACNOR6243
012013101778CSNAJ20     070CSNA        ON        000R$  000000000012900000000001290000000000129000000000012900000000001290000000000000000000000000000001000000000000000900000000000000116100000000000102002013102100000010000000000000BRCSNAACNOR6243
012013101778CSNAJ60     070CSNA        ON        000R$  000000000009200000000000920000000000087000000000008900000000000870000000000000000000000000000007000000000000013300000000000001185100000000000106002013102100000010000000000000BRCSNAACNOR6243
012013101778CSNAJ7      070CSNA        ON        000R$  000000000048000000000004800000000000480000000000048000000000004800000000000000000000000000000001000000000000000600000000000000288000000000000068002013102100000010000000000000BRCSNAACNOR6242
012013101778CSNAJ74     070CSNA        ON        000R$  000000000041600000000004170000000000416000000000041600000000004170000000000000000000000000000002000000000000003000000000000001248600000000000074002013102100000010000000000000BRCSNAACNOR6243
012013101778CSNAJ78     070CSNA        ON        000R$  000000000039600000000003960000000000396000000000039600000000003960000000000000000000000000000002000000000000006000000000000002376000000000000076002013102100000010000000000000BRCSNAACNOR6242
012013101778CSNAJ8      070CSNA        ON        000R$  000000000038500000000003850000000000368000000000038200000000003680000000000000000000000000000002000000000000003500000000000001339000000000000078002013102100000010000000000000BRCSNAACNOR6242
012013101778CSNAJ82     070CSNA        ON        000R$  000000000035500000000003550000000000355000000000035500000000003550000000000000000000000000000001000000000000001000000000000000355000000000000080002013102100000010000000000000BRCSNAACNOR6242
012013101778CSNAJ86     070CSNA        ON        000R$  000000000031500000000003200000000000315000000000031600000000003200000000000000000000000000000002000000000000001600000000000000507000000000000084002013102100000010000000000000BRCSNAACNOR6242
012013101778CSNAJ9      070CSNA        ON        000R$  000000000027700000000002850000000000271000000000027700000000002790000000000000000000000000000009000000000000014000000000000003885000000000000088002013102100000010000000000000BRCSNAACNOR6242
012013101778CSNAJ92     070CSNA        ON        000R$  000000000023800000000002380000000000238000000000023800000000002380000000000000000000000000000001000000000000003000000000000000714000000000000092002013102100000010000000000000BRCSNAACNOR6243
012013101778CSNAJ94     070CSNA        ON        000R$  000000000021600000000002160000000000216000000000021600000000002160000000000000000000000000000001000000000000002000000000000000432000000000000094002013102100000010000000000000BRCSNAACNOR6243
012013101778CSNAJ96     070CSNA        ON        000R$  000000000019700000000001970000000000187000000000019000000000001870000000000000000000000000000008000000000000009400000000000001787800000000000096002013102100000010000000000000BRCSNAACNOR6243
012013101778CSNAJ98     070CSNA        ON        000R$  000000000014800000000001720000000000139000000000016500000000001710000000000000000000000000000006000000000000010000000000000001659000000000000098002013102100000010000000000000BRCSNAACNOR6243
012013101778CSNAK10     070CSNA        ON        000R$  000000000018600000000001900000000000175000000000018900000000001800000000000000000000000029600038000000000000051700000000000009778300000000000098002013111800000010000000000000BRCSNAACNOR6242
012013101778CSNAK11     070CSNA  FM    ON        000R$  000000000008200000000000990000000000071000000000008700000000000840000000000040000000000000000064000000000000122900000000000010697600000000000110002013111800000010000000000000BRCSNAACNOR6243
012013101778CSNAK12     070CSNA  FM    ON        000R$  000000000002900000000000340000000000021000000000002900000000000300000000000000000000000003500023000000000000046900000000000001373900000000000120002013111800000010000000000000BRCSNAACNOR6243
012013101778CSNAK13     070CSNA  FM    ON        000R$  000000000000600000000000080000000000006000000000000600000000000060000000000000000000000001500018000000000000073600000000000000504600000000000130002013111800000010000000000000BRCSNAACNOR6243
012013101778CSNAK41     070CSNA  FM    ON        000R$  000000000006000000000000600000000000050000000000005800000000000500000000000000000000000000000004000000000000008000000000000000466500000000000115002013111800000010000000000000BRCSNAACNOR6243
012013101778CSNAK42     070CSNA  FM    ON        000R$  000000000001400000000000170000000000014000000000001500000000000160000000000015000000000000000007000000000000017500000000000000267500000000000125002013111800000010000000000000BRCSNAACNOR6243
012013101778CSNAK60     070CSNA        ON        000R$  000000000011000000000001150000000000110000000000011200000000001150000000000080000000000014000002000000000000002000000000000000225000000000000106002013111800000010000000000000BRCSNAACNOR6243
012013101778CSNAK9      070CSNA        ON        000R$  000000000026800000000002680000000000251000000000025500000000002520000000000000000000000027000008000000000000016800000000000004296400000000000090002013111800000010000000000000BRCSNAACNOR6243
012013101778CSNAK92     070CSNA        ON        000R$  000000000023000000000002300000000000230000000000023000000000002300000000000000000000000000000002000000000000002000000000000000460000000000000092002013111800000010000000000000BRCSNAACNOR6243
012013101778CSNAK94     070CSNA        ON        000R$  000000000021200000000002120000000000212000000000021200000000002120000000000000000000000000000001000000000000002000000000000000424000000000000094002013111800000010000000000000BRCSNAACNOR6243
012013101778CSNAK96     070CSNA        ON        000R$  000000000019300000000001930000000000193000000000019300000000001930000000000000000000000000000006000000000000005400000000000001042200000000000096002013111800000010000000000000BRCSNAACNOR6243
012013101778CSNAL11     070CSNA        ON        000R$  000000000014500000000001450000000000145000000000014500000000001450000000000000000000000000000003000000000000005000000000000000725000000000000104702013121600000010000000000000BRCSNAACNOR6241
012013101778CSNAL12     070CSNA  FM    ON        000R$  000000000007600000000000810000000000075000000000007600000000000760000000000065000000000000000017000000000000043300000000000003325900000000000114702013121600000010000000000000BRCSNAACNOR6241
012013101778CSNAL13     070CSNA  FM    ON        000R$  000000000001600000000000170000000000016000000000001600000000000170000000000000000000000000000010000000000000020700000000000000338600000000000130002013121600000010000000000000BRCSNAACNOR6243
012013101778CSNAL2      070CSNA  FM    ON        000R$  000000000003100000000000310000000000029000000000002900000000000290000000000000000000000000000006000000000000012500000000000000364500000000000125002013121600000010000000000000BRCSNAACNOR6243
012013101778CSNAL41     070CSNA  FM    ON        000R$  000000000011200000000001120000000000112000000000011200000000001120000000000000000000000000000002000000000000005600000000000000627200000000000110002013121600000010000000000000BRCSNAACNOR6243
