00COTAHIST.2013BOVESPA 20130826                                                                                                                                                                                                                      
012013082602ABCB4       010ABC BRASIL  PN      N2   R$  000000000125000000000012500000000001201000000000122500000000012010000000001201000000000122000422000000000000093000000000000113983900000000000000009999123100000010000000000000BRABCBACNPR4120
012013082696ABCB4F      020ABC BRASIL  PN      N2   R$  000000000122500000000012340000000001211000000000123200000000012110000000001210000000000130000003000000000000000109000000000000134356000000000000009999123100000010000000000000BRABCBACNPR4120
012013082612ABCP11      010FII ABC IMOBCI           R$  000000000090700000000009200000000000905000000000090900000000009050000000000907000000000094700004000000000000000235000000000000213745000000000000009999123100000010000000000000BRABCPCTF000214
012013082602ABRE11      010ABRIL EDUCA UNT     N2   R$  000000000325900000000033260000000003154000000000321800000000032200000000003220000000000323000359000000000000084000000000000270386400000000000000009999123100000010000000000000BRABRECDAM15102
012013082696ABRE11F     020ABRIL EDUCA UNT     N2   R$  000000000321500000000033000000000003158000000000325000000000032500000000003200000000000332800013000000000000000254000000000000825729000000000000009999123100000010000000000000BRABRECDAM15102
012013082602AEDU3       010ANHANGUERA  ON      NM   R$  000000000128600000000013130000000001286000000000129500000000012990000000001294000000000130404837000000000005146900000000006669913400000000000000009999123100000010000000000000BRAEDUACNOR9107
012013082696AEDU3F      020ANHANGUERA  ON      NM   R$  000000000125300000000013220000000001253000000000129800000000012960000000001295000000000132300028000000000000000895000000000001161828000000000000009999123100000010000000000000BRAEDUACNOR9107
012013082612AEFI11      010FII AESAPAR CI           R$  000000001240000000000124100000000012351000000001239700000000123800000000012370000000001238000020000000000000000410000000000005082787000000000000009999123100000010000000000000BRAEFICTF002120
012013082612AGCX11      010FII AG CAIXACI           R$  000000009950000000000995000000000099200000000009930800000000992500000000099201000000009940000010000000000000000191000000000018967925000000000000009999123100000010000000000000BRAGCXCTF003109
012013082602AGRO3       010BRASILAGRO  ON      NM   R$  000000000093700000000009520000000000931000000000094300000000009510000000000945000000000095100035000000000000016700000000000015764300000000000000009999123100000010000000000000BRAGROACNOR7102
012013082696AGRO3F      020BRASILAGRO  ON      NM   R$  000000000095500000000009550000000000955000000000095500000000009550000000000955000000000109000001000000000000000010000000000000009550000000000000009999123100000010000000000000BRAGROACNOR7102
012013082602ALLL3       010ALL AMER LATON      NM   R$  000000000089900000000009020000000000879000000000089100000000008870000000000884000000000088802907000000000001051900000000000937445400000000000000009999123100000010000000000000BRALLLACNOR6118
012013082696ALLL3F      020ALL AMER LATON      NM   R$  000000000083100000000009040000000000831000000000088500000000008900000000000876000000000089800024000000000000000665000000000000588614000000000000009999123100000010000000000000BRALLLACNOR6118
012013082602ALPA4       010ALPARGATAS  PN  EJ  N1   R$  000000000128000000000012860000000001232000000000125200000000012340000000001234000000000124002120000000000000445800000000000558519700000000000000009999123100000010000000000000BRALPAACNPR7203
012013082696ALPA4F      020ALPARGATAS  PN  EJ  N1   R$  000000000125600000000012790000000001235000000000126200000000012360000000001236000000000131500043000000000000000561000000000000708180000000000000009999123100000010000000000000BRALPAACNPR7203
012013082662ALPA4T      030ALPARGATAS  PN  EJ  N1030R$  000000000126000000000012610000000001260000000000126000000000012610000000000000000000000000000002000000000000001600000000000002016400000000000000009999123100000010000000000000BRALPAACNPR7203
012013082662ALPA4T      030ALPARGATAS  PN  EJ  N1091R$  000000000128400000000012850000000001284000000000128400000000012850000000000000000000000000000002000000000000001000000000000001284684000000000000009999123100000010000000000000BRALPAACNPR7203
012013082602ALSC3       010ALIANSCE    ON      NM   R$  000000000191000000000019100000000001828000000000186000000000018280000000001826000000000182901359000000000000384000000000000714459100000000000000009999123100000010000000000000BRALSCACNOR0104
012013082696ALSC3F      020ALIANSCE    ON      NM   R$  000000000181000000000018600000000001810000000000183800000000018600000000001808000000000200000002000000000000000035000000000000064350000000000000009999123100000010000000000000BRALSCACNOR0104
012013082602ALUP11      010ALUPAR      UNT     N2   R$  000000000171000000000017400000000001708000000000172300000000017080000000001708000000000171600225000000000000053300000000000091876500000000000000009999123100000010000000000000BRALUPCDAM15100
012013082696ALUP11F     020ALUPAR      UNT     N2   R$  000000000169800000000017840000000001698000000000171900000000017150000000001715000000000179900015000000000000000427000000000000734085000000000000009999123100000010000000000000BRALUPCDAM15100
012013082602AMAR3       010LOJAS MARISAON      NM   R$  000000000194600000000019800000000001899000000000194200000000019580000000001958000000000196201928000000000000341300000000000663050500000000000000009999123100000010000000000000BRAMARACNOR4109
012013082696AMAR3F      020LOJAS MARISAON      NM   R$  000000000193300000000019700000000001933000000000195200000000019510000000001903000000000217000006000000000000000076000000000000148414000000000000009999123100000010000000000000BRAMARACNOR4109
012013082662AMAR3T      030LOJAS MARISAON      NM016R$  000000000196900000000019700000000001969000000000196900000000019700000000000000000000000000000002000000000000008000000000000015753696000000000000009999123100000010000000000000BRAMARACNOR4109
012013082662AMAR3T      030LOJAS MARISAON      NM030R$  000000000197500000000019760000000001975000000000197500000000019760000000000000000000000000000002000000000000010000000000000019754840000000000000009999123100000010000000000000BRAMARACNOR4109
012013082602AMBV3       010AMBEV       ON           R$  000000000823400000000082350000000008081000000000813400000000081180000000008118000000000813001435000000000000236400000000001923074700000000000000009999123100000010000000000000BRAMBVACNOR4153
012013082696AMBV3F      020AMBEV       ON           R$  000000000824500000000082740000000008100000000000816200000000081990000000008004000000000819900045000000000000000735000000000005999803000000000000009999123100000010000000000000BRAMBVACNOR4153
012013082662AMBV3T      030AMBEV       ON        016R$  000000000823100000000082320000000008144000000000819700000000081530000000000000000000000000000012000000000000001000000000000008197084000000000000009999123100000010000000000000BRAMBVACNOR4153
012013082602AMBV4       010AMBEV       PN           R$  000000000824900000000082490000000008075000000000814300000000081690000000008167000000000816911286000000000002053700000000016724944200000000000000009999123100000010000000000000BRAMBVACNPR1153
012013082696AMBV4F      020AMBEV       PN           R$  000000000810000000000083300000000008080000000000813900000000081200000000008120000000000819700202000000000000004491000000000036556003000000000000009999123100000010000000000000BRAMBVACNPR1153
012013082662AMBV4S      030AMBEV       PN        090R$  000000000831400000000083150000000008314000000000831400000000083150000000000000000000000000000002000000000000000100000000000000831407000000000000009999123100000010000000000000BRAMBVACNPR1153
012013082662AMBV4T      030AMBEV       PN        016R$  000000000814700000000081480000000008147000000000814700000000081480000000000000000000000000000002000000000000000500000000000004073537000000000000009999123100000010000000000000BRAMBVACNPR1153
012013082662AMBV4T      030AMBEV       PN        024R$  000000000816900000000081700000000008169000000000816900000000081700000000000000000000000000000002000000000000000100000000000000816976000000000000009999123100000010000000000000BRAMBVACNPR1153
012013082662AMBV4T      030AMBEV       PN        030R$  000000000822700000000082480000000008154000000000817200000000081550000000000000000000000000000012000000000000003600000000000029420840000000000000009999123100000010000000000000BRAMBVACNPR1153
012013082662AMBV4T      030AMBEV       PN        060R$  000000000827000000000082710000000008208000000000826100000000082090000000000000000000000000000014000000000000004700000000000038830493000000000000009999123100000010000000000000BRAMBVACNPR1153
012013082602ARTR3       010ARTERIS     ON      NM   R$  000000000226000000000022710000000002220000000000224100000000022400000000002240000000000224103529000000000002756700000000006178360800000000000000009999123100000010000000000000BRARTRACNOR3101
012013082696ARTR3F      020ARTERIS     ON      NM   R$  000000000225600000000022780000000002216000000000223900000000022300000000002216000000000223400025000000000000000628000000000001406604000000000000009999123100000010000000000000BRARTRACNOR3101
012013082602ARZZ3       010AREZZO CO   ON      NM   R$  000000000353200000000035480000000003465000000000350300000000034980000000003498000000000350700237000000000000083500000000000292514000000000000000009999123100000010000000000000BRARZZACNOR3109
012013082696ARZZ3F      020AREZZO CO   ON      NM   R$  000000000353000000000035370000000003467000000000350100000000034810000000003404000000000348600007000000000000000205000000000000717836000000000000009999123100000010000000000000BRARZZACNOR3109
012013082602AUTM3       010AUTOMETAL   ON      NM   R$  000000000185000000000018570000000001812000000000184200000000018500000000001850000000000185700391000000000000055400000000000102049700000000000000009999123100000010000000000000BRAUTMACNOR8109
012013082696AUTM3F      020AUTOMETAL   ON      NM   R$  000000000172200000000018440000000001722000000000178800000000018430000000001720000000000200000004000000000000000201000000000000359511000000000000009999123100000010000000000000BRAUTMACNOR8109
012013082602BAZA3       010AMAZONIA    ON           R$  000000000003200000000000330000000000032000000000003200000000000320000000000032000000000003300004000000000000011000000000000000359000000000000000009999123100000010000000000000BRBAZAACNOR0163
012013082602BBAS3       010BRASIL      ON  ED  NM   R$  000000000221800000000022250000000002180000000000219400000000021800000000002180000000000218407869000000000004332700000000009509608100000000000000009999123100000010000000000000BRBBASACNOR3238
012013082696BBAS3F      020BRASIL      ON  ED  NM   R$  000000000220300000000022220000000002181000000000219600000000021810000000002181000000000219800277000000000000007677000000000016860898000000000000009999123100000010000000000000BRBBASACNOR3238
012013082662BBAS3S      030BRASIL      ON  ED  NM090R$  000000000224300000000022440000000002243000000000224300000000022440000000000000000000000000000002000000000000001000000000000002243074000000000000009999123100000010000000000000BRBBASACNOR3238
012013082662BBAS3T      030BRASIL      ON  ED  NM091R$  000000000224300000000022440000000002242000000000224300000000022430000000000000000000000000000004000000000000003700000000000008301114000000000000009999123100000010000000000000BRBBASACNOR3238
012013082662BBAS3T      030BRASIL      ON  ED  NM016R$  000000000219500000000021960000000002195000000000219500000000021960000000000000000000000000000002000000000000005000000000000010975906000000000000009999123100000010000000000000BRBBASACNOR3238
012013082662BBAS3T      030BRASIL      ON  ED  NM024R$  000000000220800000000022090000000002208000000000220800000000022090000000000000000000000000000002000000000000000500000000000001104131000000000000009999123100000010000000000000BRBBASACNOR3238
012013082662BBAS3T      030BRASIL      ON  ED  NM030R$  000000000221800000000022190000000002213000000000221500000000022180000000000000000000000000000010000000000000009700000000000021489745000000000000009999123100000010000000000000BRBBASACNOR3238
012013082662BBAS3T      030BRASIL      ON  ED  NM032R$  000000000219700000000021980000000002197000000000219700000000021980000000000000000000000000000002000000000000010000000000000021970040000000000000009999123100000010000000000000BRBBASACNOR3238
012013082662BBAS3T      030BRASIL      ON  ED  NM060R$  000000000223200000000022330000000002210000000000221200000000022110000000000000000000000000000006000000000000011500000000000025447608000000000000009999123100000010000000000000BRBBASACNOR3238
012013082678BBASI21     070BBAS  FM/EDRON      NM000R$  000000000020200000000002020000000000186000000000019600000000001960000000000000000000000021000038000000000000040300000000000007905200000000000202202013091600000010000000000000BRBBASACNOR3237
012013082678BBASI22     070BBAS  FM/EDRON      NM000R$  000000000013000000000001500000000000120000000000013200000000001230000000000122000000000012300125000000000000222100000000000029394600000000000209802013091600000010000000000000BRBBASACNOR3236
012013082678BBASI23     070BBAS  FM/EDRON      NM000R$  000000000006200000000000780000000000055000000000006400000000000590000000000058000000000005900079000000000000090800000000000005846300000000000219802013091600000010000000000000BRBBASACNOR3236
012013082678BBASI24     070BBAS  FM/EDRON      NM000R$  000000000002700000000000270000000000021000000000002400000000000250000000000021000000000002300112000000000000180100000000000004366600000000000229802013091600000010000000000000BRBBASACNOR3236
012013082678BBASI25     070BBAS  FM/EDRON      NM000R$  000000000001200000000000120000000000007000000000000700000000000090000000000009000000000001100017000000000000044300000000000000339600000000000238802013091600000010000000000000BRBBASACNOR3235
012013082678BBASI26     070BBAS    /EDRON      NM000R$  000000000000500000000000050000000000004000000000000400000000000040000000000003000000000000500003000000000000016700000000000000076800000000000248802013091600000010000000000000BRBBASACNOR3235
012013082678BBASI27     070BBAS    /EDRON      NM000R$  000000000000200000000000020000000000002000000000000200000000000020000000000002000000000000500001000000000000000800000000000000001600000000000259802013091600000010000000000000BRBBASACNOR3236
012013082678BBASI52     070BBAS    /EDRON      NM000R$  000000000007900000000000790000000000079000000000007900000000000790000000000000000000000000000001000000000000003000000000000000237000000000000217202013091600000010000000000000BRBBASACNOR3237
012013082678BBASJ21     070BBAS  FM/EDRON      NM000R$  000000000024500000000002450000000000223000000000023500000000002280000000000000000000000000000023000000000000043600000000000010251600000000000202202013102100000010000000000000BRBBASACNOR3237
012013082678BBASJ22     070BBAS  FM/EDRON      NM000R$  000000000016000000000001610000000000154000000000015700000000001540000000000000000000000000000009000000000000015400000000000002431800000000000212202013102100000010000000000000BRBBASACNOR3237
012013082678BBASJ23     070BBAS  FM/EDRON      NM000R$  000000000012500000000001260000000000114000000000011900000000001150000000000000000000000000000019000000000000027100000000000003243900000000000218802013102100000010000000000000BRBBASACNOR3235
012013082678BBASJ24     070BBAS  FM/EDRON      NM000R$  000000000006600000000000670000000000060000000000006200000000000650000000000040000000000007500023000000000000061200000000000003816000000000000229802013102100000010000000000000BRBBASACNOR3236
012013082678BBASJ25     070BBAS  FM/EDRON      NM000R$  000000000003300000000000330000000000030000000000003000000000000300000000000018000000000003500112000000000000135000000000000004054000000000000242202013102100000010000000000000BRBBASACNOR3237
012013082678BBASJ27     070BBAS    /EDRON      NM000R$  000000000000900000000000100000000000009000000000000900000000000100000000000009000000000003800002000000000000002500000000000000024000000000000258802013102100000010000000000000BRBBASACNOR3235
012013082678BBASJ53     070BBAS    /EDRON      NM000R$  000000000009500000000000950000000000095000000000009500000000000950000000000000000000000000000001000000000000005000000000000000475000000000000223802013102100000010000000000000BRBBASACNOR3235
012013082678BBASJ56     070BBAS    /EDRON      NM000R$  000000000001600000000000160000000000016000000000001600000000000160000000000007000000000000000001000000000000001000000000000000016000000000000253802013102100000010000000000000BRBBASACNOR3235
012013082678BBASL24     070BBAS    /EDRON      NM000R$  000000000010000000000001060000000000100000000000010400000000001060000000000078000000000013000002000000000000000400000000000000041800000000000232202013121600000010000000000000BRBBASACNOR3237
012013082682BBASU20     080BBASE   /EDRON      NM000R$  000000000000500000000000090000000000005000000000000700000000000090000000000004000000000001000003000000000000008100000000000000061400000000000192202013091600000010000000000000BRBBASACNOR3237
012013082682BBASU21     080BBASE FM/EDRON      NM000R$  000000000001100000000000160000000000011000000000001400000000000150000000000000000000000000000027000000000000111600000000000001630000000000000202202013091600000010000000000000BRBBASACNOR3237
012013082682BBASU22     080BBASE FM/EDRON      NM000R$  000000000002100000000000270000000000021000000000002500000000000270000000000023000000000000000052000000000000114000000000000002891800000000000209802013091600000010000000000000BRBBASACNOR3236
012013082682BBASU23     080BBASE FM/EDRON      NM000R$  000000000005200000000000600000000000052000000000005700000000000590000000000000000000000000000011000000000000022700000000000001301400000000000219802013091600000010000000000000BRBBASACNOR3236
012013082682BBASU24     080BBASE FM/EDRON      NM000R$  000000000010200000000001280000000000102000000000011900000000001280000000000000000000000028000024000000000000041700000000000004998000000000000229802013091600000010000000000000BRBBASACNOR3236
012013082682BBASU61     080BBASE   /EDRON      NM000R$  000000000003800000000000380000000000038000000000003800000000000380000000000000000000000000000001000000000000001500000000000000057000000000000214702013091600000010000000000000BRBBASACNOR3237
012013082682BBASV20     080BBASE   /EDRON      NM000R$  000000000002200000000000250000000000022000000000002200000000000250000000000000000000000000000029000000000000182000000000000004182900000000000192202013102100000010000000000000BRBBASACNOR3237
012013082682BBASV21     080BBASE FM/EDRON      NM000R$  000000000003400000000000380000000000034000000000003600000000000380000000000000000000000000000024000000000000061300000000000002226000000000000202202013102100000010000000000000BRBBASACNOR3237
012013082682BBASV22     080BBASE FM/EDRON      NM000R$  000000000005300000000000660000000000053000000000005700000000000660000000000000000000000024700007000000000000018900000000000001090300000000000212202013102100000010000000000000BRBBASACNOR3237
012013082682BBASV23     080BBASE FM/EDRON      NM000R$  000000000007500000000000890000000000075000000000008200000000000890000000000000000000000000000013000000000000033000000000000002718600000000000218802013102100000010000000000000BRBBASACNOR3235
012013082682BBASV24     080BBASE FM/EDRON      NM000R$  000000000012800000000001470000000000128000000000013700000000001470000000000000000000000000000031000000000000071900000000000009914300000000000229802013102100000010000000000000BRBBASACNOR3236
012013082682BBASV25     080BBASE   /EDRON      NM000R$  000000000020800000000002080000000000208000000000020800000000002080000000000000000000000000000001000000000000004000000000000000832000000000000242202013102100000010000000000000BRBBASACNOR3237
012013082682BBASV53     080BBASE   /EDRON      NM000R$  000000000009500000000000950000000000095000000000009500000000000950000000000000000000000000000001000000000000004000000000000000380000000000000223802013102100000010000000000000BRBBASACNOR3235
012013082602BBDC3       010BRADESCO    ON      N1   R$  000000000315400000000031830000000003111000000000313600000000031110000000003111000000000314802693000000000000699200000000002193013500000000000000009999123100000010000000000000BRBBDCACNOR1605
012013082696BBDC3F      020BRADESCO    ON      N1   R$  000000000315900000000032000000000003137000000000316000000000032000000000003111000000000331500050000000000000001430000000000004521014000000000000009999123100000010000000000000BRBBDCACNOR1605
012013082602BBDC4       010BRADESCO    PN      N1   R$  000000000280500000000028260000000002770000000000278800000000027710000000002770000000000277510006000000000004561700000000012718859500000000000000009999123100000010000000000000BRBBDCACNPR8605
012013082696BBDC4F      020BRADESCO    PN      N1   R$  000000000280500000000028290000000002771000000000279600000000027890000000002770000000000278900242000000000000006145000000000017175720000000000000009999123100000010000000000000BRBBDCACNPR8605
012013082662BBDC4T      030BRADESCO    PN      N1024R$  000000000280600000000028100000000002806000000000280800000000028100000000000000000000000000000004000000000000009000000000000025278457000000000000009999123100000010000000000000BRBBDCACNPR8605
012013082662BBDC4T      030BRADESCO    PN      N1030R$  000000000283500000000028360000000002818000000000283200000000028290000000000000000000000000000006000000000000021000000000000059489266000000000000009999123100000010000000000000BRBBDCACNPR8605
012013082662BBDC4T      030BRADESCO    PN      N1060R$  000000000282900000000028300000000002822000000000282500000000028230000000000000000000000000000004000000000000001500000000000004237595000000000000009999123100000010000000000000BRBBDCACNPR8605
012013082662BBDC4T      030BRADESCO    PN      N1091R$  000000000286300000000028640000000002863000000000286300000000028640000000000000000000000000000002000000000000100000000000000286398668000000000000009999123100000010000000000000BRBBDCACNPR8605
012013082678BBDCI26     070BBDC        PN      N1000R$  000000000025300000000002530000000000230000000000023700000000002300000000000170000000000034000005000000000000003000000000000000713000000000000259802013091600000010000000000000BRBBDCACNPR8604
012013082678BBDCI27     070BBDC        PN      N1000R$  000000000015300000000001730000000000139000000000015400000000001390000000000135000000000014000053000000000000074700000000000011542000000000000267802013091600000010000000000000BRBBDCACNPR8602
012013082678BBDCI28     070BBDC        PN      N1000R$  000000000009200000000001030000000000072000000000008000000000000760000000000061000000000007900102000000000000124200000000000010030500000000000277802013091600000010000000000000BRBBDCACNPR8602
012013082678BBDCI29     070BBDC        PN      N1000R$  000000000005000000000000500000000000031000000000003800000000000340000000000030000000000003600068000000000000100500000000000003867000000000000287802013091600000010000000000000BRBBDCACNPR8602
012013082678BBDCI30     070BBDC        PN      N1000R$  000000000001800000000000180000000000012000000000001300000000000150000000000012000000000002400076000000000000062300000000000000855300000000000297802013091600000010000000000000BRBBDCACNPR8602
012013082678BBDCI58     070BBDC        PN      N1000R$  000000000006000000000000600000000000042000000000004400000000000420000000000000000000000006100002000000000000004800000000000000214200000000000285002013091600000010000000000000BRBBDCACNPR8605
012013082678BBDCI81     070BBDC        PN      N1000R$  000000000000600000000000060000000000006000000000000600000000000060000000000000000000000001200004000000000000008400000000000000050400000000000307802013091600000010000000000000BRBBDCACNPR8602
012013082678BBDCJ27     070BBDC        PN      N1000R$  000000000022500000000002290000000000204000000000021400000000002260000000000000000000000000000016000000000000028800000000000006186400000000000267802013102100000010000000000000BRBBDCACNPR8602
012013082678BBDCJ29     070BBDC        PN      N1000R$  000000000010600000000001080000000000086000000000009300000000000860000000000084000000000010200027000000000000037400000000000003487300000000000287802013102100000010000000000000BRBBDCACNPR8602
012013082678BBDCJ30     070BBDC        PN      N1000R$  000000000006500000000000650000000000055000000000005900000000000560000000000051000000000006900075000000000000144400000000000008528300000000000297802013102100000010000000000000BRBBDCACNPR8602
012013082678BBDCJ31     070BBDC        PN      N1000R$  000000000003800000000000400000000000032000000000003600000000000320000000000030000000000004000014000000000000029900000000000001081800000000000307802013102100000010000000000000BRBBDCACNPR8602
012013082678BBDCJ32     070BBDC        PN      N1000R$  000000000001900000000000190000000000019000000000001900000000000190000000000012000000000002900001000000000000002000000000000000038000000000000317802013102100000010000000000000BRBBDCACNPR8602
012013082678BBDCJ58     070BBDC        PN      N1000R$  000000000012900000000001480000000000125000000000013900000000001260000000000000000000000000000012000000000000024600000000000003422800000000000280002013102100000010000000000000BRBBDCACNPR8605
012013082678BBDCK30     070BBDC        PN      N1000R$  000000000008400000000000840000000000084000000000008400000000000840000000000000000000000000000001000000000000001000000000000000084000000000000300002013111800000010000000000000BRBBDCACNPR8605
012013082678BBDCK31     070BBDC        PN      N1000R$  000000000006000000000000600000000000060000000000006000000000000600000000000000000000000000000001000000000000003000000000000000180000000000000310002013111800000010000000000000BRBBDCACNPR8605
012013082678BBDCL27     070BBDC        PN      N1000R$  000000000026100000000002610000000000258000000000025800000000002580000000000000000000000000000004000000000000010000000000000002589000000000000269802013121600000010000000000000BRBBDCACNPR8604
012013082678BBDCL29     070BBDC        PN      N1000R$  000000000015200000000001530000000000152000000000015200000000001530000000000125000000000023100002000000000000100000000000000015270000000000000287802013121600000010000000000000BRBBDCACNPR8602
012013082678BBDCL34     070BBDC        PN      N1000R$  000000000002500000000000250000000000025000000000002500000000000250000000000002000000000000000001000000000000003000000000000000075000000000000337402013121600000010000000000000BRBBDCACNPR8600
012013082682BBDCN25     080BBDCE       PN      N1000R$  000000000007200000000000720000000000072000000000007200000000000720000000000000000000000000000001000000000000001200000000000000086400000000000250002014021700000010000000000000BRBBDCACNPR8605
012013082682BBDCN27     080BBDCE       PN      N1000R$  000000000012500000000001250000000000125000000000012500000000001250000000000000000000000000000001000000000000001200000000000000150000000000000270002014021700000010000000000000BRBBDCACNPR8605
012013082682BBDCU26     080BBDCE       PN      N1000R$  000000000001200000000000120000000000012000000000001200000000000120000000000000000000000000000002000000000000004200000000000000050400000000000259802013091600000010000000000000BRBBDCACNPR8604
012013082682BBDCU27     080BBDCE       PN      N1000R$  000000000003100000000000310000000000031000000000003100000000000310000000000017000000000000000001000000000000001100000000000000034100000000000267802013091600000010000000000000BRBBDCACNPR8602
012013082682BBDCU28     080BBDCE       PN      N1000R$  000000000006200000000000660000000000048000000000006100000000000640000000000000000000000000000036000000000000040700000000000002501800000000000277802013091600000010000000000000BRBBDCACNPR8602
012013082682BBDCU29     080BBDCE       PN      N1000R$  000000000011300000000001250000000000095000000000011300000000001200000000000000000000000000000029000000000000053700000000000006106600000000000287802013091600000010000000000000BRBBDCACNPR8602
012013082682BBDCU58     080BBDCE       PN      N1000R$  000000000009700000000000970000000000097000000000009700000000000970000000000000000000000000000001000000000000001000000000000000097000000000000285002013091600000010000000000000BRBBDCACNPR8605
012013082682BBDCU75     080BBDCE       PN      N1000R$  000000000008200000000000830000000000082000000000008200000000000830000000000000000000000000000003000000000000006000000000000000494000000000000282302013091600000010000000000000BRBBDCACNPR8604
012013082682BBDCV24     080BBDCE       PN      N1000R$  000000000001500000000000170000000000015000000000001600000000000170000000000000000000000000000002000000000000006200000000000000103000000000000239802013102100000010000000000000BRBBDCACNPR8604
012013082682BBDCV25     080BBDCE       PN      N1000R$  000000000002600000000000270000000000026000000000002600000000000270000000000000000000000000000002000000000000006200000000000000166200000000000249602013102100000010000000000000BRBBDCACNPR8603
012013082682BBDCV26     080BBDCE       PN      N1000R$  000000000004200000000000450000000000041000000000004300000000000410000000000000000000000000000011000000000000018400000000000000793300000000000259802013102100000010000000000000BRBBDCACNPR8604
012013082682BBDCV27     080BBDCE       PN      N1000R$  000000000006000000000000650000000000060000000000006100000000000610000000000000000000000000000009000000000000017500000000000001073500000000000267802013102100000010000000000000BRBBDCACNPR8602
012013082682BBDCV29     080BBDCE       PN      N1000R$  000000000013700000000001510000000000130000000000014300000000001440000000000000000000000000000019000000000000036900000000000005278100000000000287802013102100000010000000000000BRBBDCACNPR8602
012013082682BBDCV30     080BBDCE       PN      N1000R$  000000000019700000000002110000000000197000000000020300000000002110000000000000000000000000000003000000000000004700000000000000955700000000000297802013102100000010000000000000BRBBDCACNPR8602
012013082682BBDCV31     080BBDCE       PN      N1000R$  000000000026900000000002690000000000269000000000026900000000002690000000000000000000000000000001000000000000001000000000000000269000000000000307802013102100000010000000000000BRBBDCACNPR8602
012013082682BBDCV58     080BBDCE       PN      N1000R$  000000000010200000000001130000000000097000000000010700000000001120000000000000000000000000000013000000000000025400000000000002723600000000000280002013102100000010000000000000BRBBDCACNPR8605
012013082682BBDCW26     080BBDCE       PN      N1000R$  000000000005900000000000590000000000059000000000005900000000000590000000000000000000000000000001000000000000001000000000000000059000000000000259802013111800000010000000000000BRBBDCACNPR8604
012013082682BBDCW27     080BBDCE       PN      N1000R$  000000000008500000000000890000000000085000000000008600000000000890000000000000000000000000000002000000000000003000000000000000259000000000000269602013111800000010000000000000BRBBDCACNPR8603
012013082682BBDCW28     080BBDCE       PN      N1000R$  000000000011300000000001190000000000113000000000011500000000001190000000000000000000000000000002000000000000003300000000000000380700000000000277802013111800000010000000000000BRBBDCACNPR8602
012013082682BBDCW30     080BBDCE       PN      N1000R$  000000000022600000000002390000000000226000000000023100000000002390000000000000000000000000000003000000000000004100000000000000949500000000000300002013111800000010000000000000BRBBDCACNPR8605
012013082682BBDCW31     080BBDCE       PN      N1000R$  000000000029400000000003040000000000294000000000029800000000003040000000000000000000000000000002000000000000003900000000000001165600000000000310002013111800000010000000000000BRBBDCACNPR8605
012013082682BBDCW8      080BBDCE       PN      N1000R$  000000000003500000000000350000000000035000000000003500000000000350000000000000000000000000000001000000000000002000000000000000070000000000000246002013111800000010000000000000BRBBDCACNPR8592
012013082682BBDCW9      080BBDCE       PN      N1000R$  000000000016800000000001760000000000168000000000017300000000001760000000000000000000000000000002000000000000003000000000000000520000000000000290002013111800000010000000000000BRBBDCACNPR8605
012013082682BBDCX30     080BBDCE       PN      N1000R$  000000000010000000000001000000000000100000000000010000000000001000000000000000000000000000000001000000000000001200000000000000120000000000000269702013121600000010000000000000BRBBDCACNPR8597
012013082612BBFI11B     010FII BB PROGRCI      MB   R$  000000042500000000004298950000000425000000000042639800000004298950000000425100000000042989500007000000000000000014000000000005969580000000000000009999123100000010000000000000BRBBFICTF006197
012013082612BBPO11      010FII BB PRGIICI           R$  000000001105000000000110970000000010918000000001099600000000109180000000010918000000001099500242000000000000028913000000000317949787000000000000009999123100000010000000000000BRBBPOCTF003109
012013082612BBRC11      010FII BB CORP CI           R$  000000000921100000000092390000000009100000000000920200000000092390000000009070000000000923900029000000000000001070000000000009846296000000000000009999123100000010000000000000BRBBRCCTF004123
012013082602BBRK3       010BR BROKERS  ON      NM   R$  000000000054100000000005410000000000529000000000053500000000005350000000000531000000000053601442000000000000363200000000000194401800000000000000009999123100000010000000000000BRBBRKACNOR4108
012013082696BBRK3F      020BR BROKERS  ON      NM   R$  000000000053700000000005370000000000536000000000053600000000005360000000000506000000000060600002000000000000000063000000000000033811000000000000009999123100000010000000000000BRBBRKACNOR4108
012013082602BBSE3       010BBSEGURIDADEON  ED  NM   R$  000000000189500000000019050000000001887000000000189400000000018990000000001897000000000189911246000000000004006000000000007589094800000000000000009999123100000010000000000000BRBBSEACNOR5101
012013082696BBSE3F      020BBSEGURIDADEON  ED  NM   R$  000000000186100000000019040000000001861000000000189200000000018950000000001885000000000189503226000000000000108904000000000206132900000000000000009999123100000010000000000000BRBBSEACNOR5101
012013082602BBTG11      010BTG PACTUAL UNT          R$  000000000279000000000028400000000002771000000000279600000000027720000000002772000000000277400789000000000000339200000000000948635500000000000000009999123100000010000000000000BRBBTGUNT007105
012013082696BBTG11F     020BTG PACTUAL UNT          R$  000000000299500000000029950000000002781000000000279500000000027810000000002751000000000280000004000000000000000171000000000000478003000000000000009999123100000010000000000000BRBBTGUNT007105
012013082612BBVJ11      010FII C JARDIMCI           R$  000000000780300000000079000000000007707000000000784500000000078400000000007702000000000784000023000000000000000619000000000004856355000000000000009999123100000010000000000000BRBBVJCTF001132
012013082612BCFF11B     010FII BC FFII CI      MB   R$  000000000957300000000096900000000009500000000000962400000000096000000000009600000000000966000049000000000000001995000000000019201241000000000000009999123100000010000000000000BRBCFFCTF000141
012013082602BEEF3       010MINERVA     ON      NM   R$  000000000108500000000010990000000001060000000000108700000000010860000000001086000000000109002980000000000001233600000000001341790000000000000000009999123100000010000000000000BRBEEFACNOR6104
012013082696BEEF3F      020MINERVA     ON      NM   R$  000000000105000000000010900000000001050000000000107000000000010900000000001051000000000112200005000000000000000082000000000000087805000000000000009999123100000010000000000000BRBEEFACNOR6104
012013082602BEES3       010BANESTES    ON           R$  000000000004600000000000480000000000046000000000004600000000000480000000000047000000000004800013000000000000051700000000000002411200000000000000009999123100000010000000000000BRBEESACNOR9243
012013082602BEMA3       010BEMATECH    ON      NM   R$  000000000070000000000007000000000000681000000000068700000000006850000000000685000000000068700104000000000000048700000000000033493300000000000000009999123100000010000000000000BRBEMAACNOR0114
012013082696BEMA3F      020BEMATECH    ON      NM   R$  000000000069500000000006950000000000695000000000069500000000006950000000000656000000000080000001000000000000000044000000000000030580000000000000009999123100000010000000000000BRBEMAACNOR0114
012013082662BEMA3T      030BEMATECH    ON      NM030R$  000000000069200000000006930000000000692000000000069200000000006930000000000000000000000000000004000000000000002000000000000001385632000000000000009999123100000010000000000000BRBEMAACNOR0114
012013082602BGIP4       010BANESE      PN  ED       R$  000000000450000000000046700000000004500000000000462900000000046700000000004670000000000468000006000000000000000900000000000004166700000000000000009999123100000010000000000000BRBGIPACNPR8179
012013082602BHGR3       010BHG         ON      NM   R$  000000000138500000000014530000000001385000000000144000000000014500000000001450000000000145400068000000000000037600000000000054159000000000000000009999123100000010000000000000BRBHGRACNOR9101
012013082602BICB4       010BICBANCO    PN      N1   R$  000000000039400000000004050000000000390000000000039900000000004020000000000400000000000040200088000000000000050300000000000020083900000000000000009999123100000010000000000000BRBICBACNPR7131
012013082696BICB4F      020BICBANCO    PN      N1   R$  000000000038500000000004090000000000385000000000039700000000004090000000000362000000000040900004000000000000000100000000000000039767000000000000009999123100000010000000000000BRBICBACNPR7131
012013082602BIOM4       010BIOMM       PN           R$  000000000084000000000008400000000000800000000000080900000000008100000000000801000000000081000010000000000000023000000000000018610000000000000000009999123100000010000000000000BRBIOMACNPR9101
012013082696BIOM4F      020BIOMM       PN           R$  000000000082000000000008300000000000820000000000082200000000008300000000000782000000000087000004000000000000001037000000000000852840000000000000009999123100000010000000000000BRBIOMACNPR9101
012013082602BISA3       010BROOKFIELD  ON      NM   R$  000000000018600000000001910000000000180000000000018300000000001800000000000180000000000018102181000000000004942700000000000909102400000000000000009999123100000010000000000000BRBISAACNOR8109
012013082696BISA3F      020BROOKFIELD  ON      NM   R$  000000000018900000000001900000000000180000000000018400000000001880000000000180000000000018800023000000000000000756000000000000139950000000000000009999123100000010000000000000BRBISAACNOR8109
012013082662BISA3T      030BROOKFIELD  ON      NM091R$  000000000018500000000001860000000000183000000000018400000000001840000000000000000000000000000008000000000000500000000000000092285625000000000000009999123100000010000000000000BRBISAACNOR8109
012013082612BJRC11      010FII JS RECIMCI           R$  000000008800000000000880000000000088000000000008800000000000880000000000085000000000008800000002000000000000000070000000000006160000000000000000009999123100000010000000000000BRBJRCCTF007109
012013082602BMIN4       010MERC INVEST PN  EJ       R$  000000000002800000000000280000000000025000000000002500000000000250000000000024000000000002700006000000000000017000000000000000441000000000000000009999123100000010000000000000BRBMINACNPR1160
012013082696BMIN4F      020MERC INVEST PN  EJ       R$  000000000002500000000000250000000000025000000000002500000000000250000000000024000000000002700001000000000000000450000000000000011250000000000000009999123100000010000000000000BRBMINACNPR1160
012013082612BMLC11B     010FII BMBRC LCCI      MB   R$  000000001150000000000115200000000011500000000001150800000000115000000000011462000000001152000007000000000000000706000000000008124960000000000000009999123100000010000000000000BRBMLCCTF004118
012013082602BMTO4       010BRASMOTOR   PN           R$  000000000008400000000000860000000000084000000000008400000000000860000000000084000000000008600003000000000000041000000000000003446000000000000000009999123100000010000000000000BRBMTOACNPR6065
012013082602BNBR3       010NORD BRASIL ON           R$  000000000235100000000024890000000002351000000000237800000000024890000000002351000000000299900003000000000000000500000000000001189300000000000000009999123100000010000000000000BRBNBRACNOR8187
012013082612BNFS11      010FII BANRISULCI           R$  000000001006200000000100650000000010062000000001006300000000100650000000009600000000001004900002000000000000000059000000000000593766000000000000009999123100000010000000000000BRBNFSCTF000111
012013082602BOBR4       010BOMBRIL     PN           R$  000000000069800000000006980000000000698000000000069800000000006980000000000665000000000069500001000000000000000100000000000000069800000000000000009999123100000010000000000000BRBOBRACNPR3127
012013082614BOVA11      010ISHARES BOVACI           R$  000000000508100000000051490000000005053000000000508900000000050570000000005057000000000506004718000000000000780830000000003974296320000000000000009999123100000010000000000000BRBOVACTF003101
012013082696BOVA11F     020ISHARES BOVACI           R$  000000000512500000000051520000000005064000000000510800000000051520000000005064000000000515200027000000000000000075000000000000383147000000000000009999123100000010000000000000BRBOVACTF003101
012013082612BPFF11      010FII ABSOLUTOCI           R$  000000000870000000000087000000000008500000000000858300000000086000000000008600000000000868000040000000000000002782000000000023879665000000000000009999123100000010000000000000BRBPFFCTF002104
012013082602BPHA3       010BR PHARMA   ON      NM   R$  000000000096900000000009740000000000939000000000095700000000009390000000000939000000000094800676000000000001926300000000001843932300000000000000009999123100000010000000000000BRBPHAACNOR6102
012013082696BPHA3F      020BR PHARMA   ON      NM   R$  000000000097500000000009750000000000946000000000096300000000009460000000000921000000000098400005000000000000000163000000000000156995000000000000009999123100000010000000000000BRBPHAACNOR6102
012013082662BPHA3T      030BR PHARMA   ON      NM045R$  000000000096200000000009630000000000962000000000096200000000009630000000000000000000000000000002000000000000003000000000000002886559000000000000009999123100000010000000000000BRBPHAACNOR6102
012013082602BPNM4       010PANAMERICANOPN      N1   R$  000000000051500000000005150000000000501000000000050500000000005050000000000505000000000051100270000000000002382500000000001203921200000000000000009999123100000010000000000000BRBPNMACNPR6111
012013082696BPNM4F      020PANAMERICANOPN      N1   R$  000000000052000000000005200000000000485000000000050600000000004850000000000485000000000050800010000000000000000258000000000000130671000000000000009999123100000010000000000000BRBPNMACNPR6111
012013082662BPNM4T      030PANAMERICANOPN      N1030R$  000000000050800000000005090000000000508000000000050800000000005090000000000000000000000000000002000000000002050000000000001042600275000000000000009999123100000010000000000000BRBPNMACNPR6111
012013082662BPNM4T      030PANAMERICANOPN      N1090R$  000000000051800000000005190000000000518000000000051800000000005190000000000000000000000000000002000000000000200000000000000103764080000000000000009999123100000010000000000000BRBPNMACNPR6111
012013082602BRAP3       010BRADESPAR   ON      N1   R$  000000000209000000000021200000000002080000000000210800000000021050000000002039000000000210900013000000000000004500000000000009486800000000000000009999123100000010000000000000BRBRAPACNOR5124
012013082696BRAP3F      020BRADESPAR   ON      N1   R$  000000000208400000000021990000000002070000000000208900000000020700000000002036000000000219900008000000000000000199000000000000415744000000000000009999123100000010000000000000BRBRAPACNOR5124
012013082602BRAP4       010BRADESPAR   PN      N1   R$  000000000258500000000026090000000002556000000000257600000000025560000000002556000000000256303662000000000000905000000000002331868200000000000000009999123100000010000000000000BRBRAPACNPR2124
012013082696BRAP4F      020BRADESPAR   PN      N1   R$  000000000256900000000026150000000002530000000000257700000000026150000000002550000000000261500044000000000000001182000000000003046134000000000000009999123100000010000000000000BRBRAPACNPR2124
012013082662BRAP4T      030BRADESPAR   PN      N1030R$  000000000259800000000025990000000002598000000000259800000000025990000000000000000000000000000002000000000000000500000000000001299417000000000000009999123100000010000000000000BRBRAPACNPR2124
012013082662BRAP4T      030BRADESPAR   PN      N1091R$  000000000263400000000026350000000002633000000000263300000000026340000000000000000000000000000004000000000000020000000000000052679119000000000000009999123100000010000000000000BRBRAPACNPR2124
012013082612BRCR11      010FII BC FUND CI           R$  000000001263000000000127650000000012562000000001260400000000125980000000012580000000001259800834000000000000026845000000000338366186000000000000009999123100000010000000000000BRBRCRCTF000132
012013082602BRFS3       010BRF SA      ON      NM   R$  000000000541000000000054380000000005342000000000539100000000053770000000005377000000000539604026000000000000888400000000004789385800000000000000009999123100000010000000000000BRBRFSACNOR8110
012013082696BRFS3F      020BRF SA      ON      NM   R$  000000000535000000000054240000000005350000000000538900000000053960000000005316000000000540400079000000000000002403000000000012950403000000000000009999123100000010000000000000BRBRFSACNOR8110
012013082662BRFS3T      030BRF SA      ON      NM060R$  000000000544200000000054830000000005442000000000546200000000054830000000000000000000000000000008000000000000000620000000000003386446000000000000009999123100000010000000000000BRBRFSACNOR8110
012013082696BRGE11F     020ALFA CONSORCPNE          R$  000000000035500000000003550000000000355000000000035500000000003550000000000355000000000036000003000000000000000054000000000000019170000000000000009999123100000010000000000000BRBRGEACNPE1091
012013082602BRGE12      010ALFA CONSORCPNF          R$  000000000033600000000003360000000000336000000000033600000000003360000000000338000000000000000001000000000000000100000000000000033600000000000000009999123100000010000000000000BRBRGEACNPF8091
012013082696BRGE12F     020ALFA CONSORCPNF          R$  000000000037100000000003710000000000371000000000037100000000003710000000000336000000000000000003000000000000000085000000000000031535000000000000009999123100000010000000000000BRBRGEACNPF8091
012013082696BRGE3F      020ALFA CONSORCON           R$  000000000033000000000003460000000000330000000000033000000000003460000000000346000000000040000003000000000000000019000000000000006286000000000000009999123100000010000000000000BRBRGEACNOR6197
012013082696BRGE6F      020ALFA CONSORCPNB          R$  000000000055100000000005510000000000551000000000055100000000005510000000000551000000000000000002000000000000000036000000000000019836000000000000009999123100000010000000000000BRBRGEACNPB7198
012013082602BRIN3       010BR INSURANCEON  ED  NM   R$  000000000187200000000019400000000001851000000000187600000000018650000000001865000000000186601077000000000000739200000000001387425900000000000000009999123100000010000000000000BRBRINACNOR3106
012013082696BRIN3F      020BR INSURANCEON  ED  NM   R$  000000000187100000000018800000000001841000000000186100000000018580000000001851000000000186900024000000000000000641000000000001192985000000000000009999123100000010000000000000BRBRINACNOR3106
012013082696BRIV3F      020ALFA INVEST ON           R$  000000000062000000000006200000000000620000000000062000000000006200000000000508000000000070000001000000000000000054000000000000033480000000000000009999123100000010000000000000BRBRIVACNOR6197
012013082602BRIV4       010ALFA INVEST PN           R$  000000000059900000000005990000000000597000000000059800000000005980000000000575000000000060000003000000000000007100000000000004251700000000000000009999123100000010000000000000BRBRIVACNPR3197
012013082696BRIV4F      020ALFA INVEST PN           R$  000000000058500000000005850000000000552000000000056800000000005520000000000552000000000059600003000000000000000040000000000000022740000000000000009999123100000010000000000000BRBRIVACNPR3197
012013082662BRIV4T      030ALFA INVEST PN        091R$  000000000061200000000006130000000000612000000000061200000000006130000000000000000000000000000002000000000000006000000000000003674865000000000000009999123100000010000000000000BRBRIVACNPR3197
012013082602BRKM3       010BRASKEM     ON      N1   R$  000000000122200000000012220000000001222000000000122200000000012220000000001201000000000121000001000000000000000100000000000000122200000000000000009999123100000010000000000000BRBRKMACNOR1110
012013082696BRKM3F      020BRASKEM     ON      N1   R$  000000000114000000000012230000000001140000000000121600000000012230000000001223000000000125000002000000000000000012000000000000014593000000000000009999123100000010000000000000BRBRKMACNOR1110
012013082602BRKM5       010BRASKEM     PNA     N1   R$  000000000179200000000017960000000001756000000000177300000000017700000000001769000000000177005735000000000001066700000000001891616200000000000000009999123100000010000000000000BRBRKMACNPA4110
012013082696BRKM5F      020BRASKEM     PNA     N1   R$  000000000171700000000018190000000001717000000000177900000000018190000000001772000000000181900026000000000000000807000000000001436563000000000000009999123100000010000000000000BRBRKMACNPA4110
012013082602BRML3       010BR MALLS PARON      NM   R$  000000000185000000000018680000000001811000000000184200000000018160000000001816000000000182512131000000000002994100000000005516850300000000000000009999123100000010000000000000BRBRMLACNOR9105
012013082696BRML3F      020BR MALLS PARON      NM   R$  000000000184400000000018620000000001811000000000184700000000018250000000001811000000000187500048000000000000001278000000000002361464000000000000009999123100000010000000000000BRBRMLACNOR9105
012013082662BRML3T      030BR MALLS PARON      NM060R$  000000000186500000000018660000000001865000000000186500000000018660000000000000000000000000000002000000000000002000000000000003731888000000000000009999123100000010000000000000BRBRMLACNOR9105
012013082678BRMLI19     070BRML        ON      NM000R$  000000000002500000000000250000000000025000000000002500000000000250000000000000000000000000000001000000000000024800000000000000620000000000000190002013091600000010000000000000BRBRMLACNOR9105
012013082602BRPR3       010BR PROPERT  ON      NM   R$  000000000181500000000018190000000001764000000000179500000000017800000000001774000000000178307143000000000002336300000000004194122700000000000000009999123100000010000000000000BRBRPRACNOR9112
012013082696BRPR3F      020BR PROPERT  ON      NM   R$  000000000189000000000018900000000001780000000000181200000000018790000000001775000000000183900034000000000000001108000000000002007809000000000000009999123100000010000000000000BRBRPRACNOR9112
012013082662BRPR3T      030BR PROPERT  ON      NM030R$  000000000180900000000018100000000001809000000000180900000000018100000000000000000000000000000002000000000000017300000000000031311934000000000000009999123100000010000000000000BRBRPRACNOR9112
012013082602BRSR3       010BANRISUL    ON      N1   R$  000000000126000000000012600000000001260000000000126000000000012600000000001212000000000126000001000000000000000100000000000000126000000000000000009999123100000010000000000000BRBRSRACNOR3130
012013082602BRSR6       010BANRISUL    PNB     N1   R$  000000000139700000000014190000000001372000000000139100000000013720000000001372000000000137501827000000000000498900000000000693501700000000000000009999123100000010000000000000BRBRSRACNPB4133
012013082696BRSR6F      020BANRISUL    PNB     N1   R$  000000000141000000000014370000000001370000000000139900000000013750000000001370000000000143300024000000000000000613000000000000857823000000000000009999123100000010000000000000BRBRSRACNPB4133
012013082662BRSR6T      030BANRISUL    PNB     N1060R$  000000000139600000000013970000000001396000000000139600000000013970000000000000000000000000000002000000000000004000000000000005584303000000000000009999123100000010000000000000BRBRSRACNPB4133
012013082662BRSR6T      030BANRISUL    PNB     N1091R$  000000000144800000000014490000000001448000000000144800000000014490000000000000000000000000000002000000000000001000000000000001448851000000000000009999123100000010000000000000BRBRSRACNPB4133
012013082602BSEV3       010BIOSEV      ON      NM   R$  000000000085900000000008830000000000844000000000086700000000008830000000000870000000000088500013000000000000008600000000000007459800000000000000009999123100000010000000000000BRBSEVACNOR3100
012013082696BSEV3F      020BIOSEV      ON      NM   R$  000000000087000000000008700000000000870000000000087000000000008700000000000805000000000094500001000000000000000009000000000000007830000000000000009999123100000010000000000000BRBSEVACNOR3100
012013082602BTOW3       010B2W DIGITAL ON      NM   R$  000000000136000000000014080000000001265000000000135000000000012690000000001268000000000126901795000000000000733400000000000990047700000000000000009999123100000010000000000000BRBTOWACNOR8105
012013082696BTOW3F      020B2W DIGITAL ON      NM   R$  000000000135100000000014090000000001262000000000134700000000012620000000001261000000000133000053000000000000001474000000000001986778000000000000009999123100000010000000000000BRBTOWACNOR8105
012013082662BTOW3T      030B2W DIGITAL ON      NM021R$  000000000127900000000012800000000001279000000000127900000000012800000000000000000000000000000002000000000000000500000000000000639937000000000000009999123100000010000000000000BRBTOWACNOR8105
012013082602BTTL3       010BATTISTELLA ON           R$  000000000008500000000000890000000000085000000000008700000000000890000000000082000000000009200004000000000000027700000000000002437200000000000000009999123100000010000000000000BRBTTLACNOR0105
012013082602BTTL4       010BATTISTELLA PN           R$  000000000010000000000001000000000000099000000000009900000000001000000000000099000000000010000007000000000000032100000000000003188000000000000000009999123100000010000000000000BRBTTLACNPR7105
012013082602BVMF3       010BMFBOVESPA  ON  ED  NM   R$  000000000118900000000011970000000001168000000000118400000000011900000000001189000000000119018185000000000009898000000000011728462400000000000000009999123100000010000000000000BRBVMFACNOR3126
012013082696BVMF3F      020BMFBOVESPA  ON  ED  NM   R$  000000000117100000000011970000000001171000000000118500000000011810000000001181000000000119000088000000000000002901000000000003439081000000000000009999123100000010000000000000BRBVMFACNOR3126
012013082662BVMF3T      030BMFBOVESPA  ON  ED  NM024R$  000000000119400000000011950000000001194000000000119400000000011950000000000000000000000000000002000000000000005000000000000005970017000000000000009999123100000010000000000000BRBVMFACNOR3126
012013082662BVMF3T      030BMFBOVESPA  ON  ED  NM030R$  000000000118000000000011810000000001180000000000118000000000011810000000000000000000000000000002000000000000000100000000000000118079000000000000009999123100000010000000000000BRBVMFACNOR3126
012013082662BVMF3T      030BMFBOVESPA  ON  ED  NM091R$  000000000121400000000012150000000001206000000000120800000000012120000000000000000000000000000016000000000002007000000000002424886424000000000000009999123100000010000000000000BRBVMFACNOR3126
012013082678BVMFI10     070BVMF    /ED ON      NM000R$  000000000019300000000002050000000000193000000000019900000000002050000000000202000000000024500002000000000000000200000000000000039800000000000098502013091600000010000000000000BRBVMFACNOR3125
012013082678BVMFI11     070BVMF  FM/ED ON      NM000R$  000000000010100000000001190000000000100000000000011100000000001170000000000100000000000012500089000000000000058200000000000006478900000000000108502013091600000010000000000000BRBVMFACNOR3125
012013082678BVMFI12     070BVMF  FM/ED ON      NM000R$  000000000003900000000000480000000000032000000000003800000000000430000000000039000000000004300316000000000000368500000000000014346500000000000118502013091600000010000000000000BRBVMFACNOR3125
012013082678BVMFI13     070BVMF  FM/ED ON      NM000R$  000000000000900000000000120000000000007000000000000900000000000110000000000010000000000001100211000000000000578100000000000005340700000000000128502013091600000010000000000000BRBVMFACNOR3125
012013082678BVMFI14     070BVMF    /ED ON      NM000R$  000000000000300000000000040000000000002000000000000200000000000030000000000002000000000000300055000000000000294000000000000000865400000000000138502013091600000010000000000000BRBVMFACNOR3125
012013082678BVMFI41     070BVMF  FM/ED ON      NM000R$  000000000006900000000000790000000000061000000000007200000000000760000000000050000000000000000113000000000000038200000000000002765800000000000113502013091600000010000000000000BRBVMFACNOR3125
012013082678BVMFI42     070BVMF  FM/ED ON      NM000R$  000000000001900000000000240000000000019000000000002000000000000220000000000020000000000002200014000000000000042900000000000000879900000000000123502013091600000010000000000000BRBVMFACNOR3125
012013082678BVMFJ11     070BVMF  FM/ED ON      NM000R$  000000000012500000000001400000000000122000000000013200000000001350000000000000000000000018000014000000000000026300000000000003490400000000000108502013102100000010000000000000BRBVMFACNOR3125
012013082678BVMFJ12     070BVMF  FM/ED ON      NM000R$  000000000006400000000000720000000000058000000000006600000000000660000000000060000000000011000046000000000000121600000000000008093100000000000118502013102100000010000000000000BRBVMFACNOR3125
012013082678BVMFJ13     070BVMF  FM/ED ON      NM000R$  000000000002000000000000260000000000019000000000002100000000000210000000000020000000000006100065000000000000035600000000000000773000000000000128502013102100000010000000000000BRBVMFACNOR3125
012013082678BVMFJ14     070BVMF    /ED ON      NM000R$  000000000000700000000000090000000000006000000000000700000000000080000000000003000000000000000013000000000000044900000000000000331900000000000138502013102100000010000000000000BRBVMFACNOR3125
012013082678BVMFJ41     070BVMF  FM/ED ON      NM000R$  000000000008800000000001040000000000087000000000009200000000001040000000000000000000000010400015000000000000008900000000000000826100000000000113502013102100000010000000000000BRBVMFACNOR3125
012013082678BVMFJ42     070BVMF  FM/ED ON      NM000R$  000000000003700000000000470000000000037000000000004100000000000420000000000000000000000000000016000000000000037500000000000001559800000000000123502013102100000010000000000000BRBVMFACNOR3125
012013082678BVMFK12     070BVMF    /ED ON      NM000R$  000000000008300000000000830000000000083000000000008300000000000830000000000000000000000012700001000000000000000800000000000000066400000000000118502013111800000010000000000000BRBVMFACNOR3125
012013082678BVMFL13     070BVMF    /ED ON      NM000R$  000000000005500000000000550000000000052000000000005300000000000520000000000000000000000000000003000000000000008200000000000000441400000000000128502013121600000010000000000000BRBVMFACNOR3125
012013082682BVMFU11     080BVMFE FM/ED ON      NM000R$  000000000000900000000000090000000000008000000000000800000000000090000000000005000000000000900043000000000000022500000000000000192100000000000108502013091600000010000000000000BRBVMFACNOR3125
012013082682BVMFU12     080BVMFE FM/ED ON      NM000R$  000000000003900000000000420000000000031000000000003500000000000350000000000024000000000003900199000000000000130400000000000004622600000000000118502013091600000010000000000000BRBVMFACNOR3125
012013082682BVMFU13     080BVMFE   /ED ON      NM000R$  000000000010200000000001020000000000102000000000010200000000001020000000000000000000000000000001000000000000002000000000000000204000000000000128502013091600000010000000000000BRBVMFACNOR3125
012013082682BVMFU41     080BVMFE FM/ED ON      NM000R$  000000000002000000000000210000000000018000000000001800000000000180000000000000000000000000000023000000000000038100000000000000703500000000000113502013091600000010000000000000BRBVMFACNOR3125
012013082682BVMFU42     080BVMFE FM/ED ON      NM000R$  000000000007500000000000750000000000058000000000006300000000000640000000000000000000000000000049000000000000149200000000000009524300000000000123502013091600000010000000000000BRBVMFACNOR3125
012013082682BVMFV12     080BVMFE FM/ED ON      NM000R$  000000000006000000000000600000000000049000000000005700000000000490000000000049000000000006700007000000000000011300000000000000649700000000000118502013102100000010000000000000BRBVMFACNOR3125
012013082682BVMFV40     080BVMFE   /ED ON      NM000R$  000000000001300000000000130000000000013000000000001300000000000130000000000000000000000000000001000000000000003500000000000000045500000000000103502013102100000010000000000000BRBVMFACNOR3125
012013082682BVMFV41     080BVMFE FM/ED ON      NM000R$  000000000003700000000000390000000000034000000000003700000000000340000000000000000000000008000008000000000000030600000000000001159900000000000113502013102100000010000000000000BRBVMFACNOR3125
012013082682BVMFV42     080BVMFE FM/ED ON      NM000R$  000000000008500000000000850000000000072000000000007800000000000770000000000000000000000000000009000000000000027400000000000002158700000000000123502013102100000010000000000000BRBVMFACNOR3125
012013082682BVMFV51     080BVMFE   /ED ON      NM000R$  000000000004600000000000460000000000046000000000004600000000000460000000000000000000000000000001000000000000004000000000000000184000000000000116002013102100000010000000000000BRBVMFACNOR3125
012013082602CAMB4       010CAMBUCI     PN           R$  000000000018300000000001830000000000183000000000018300000000001830000000000183000000000018900001000000000000000600000000000000109800000000000000009999123100000010000000000000BRCAMBACNPR1117
012013082696CAMB4F      020CAMBUCI     PN           R$  000000000016800000000001680000000000167000000000016700000000001670000000000100000000000025000002000000000000000002000000000000000335000000000000009999123100000010000000000000BRCAMBACNPR1117
012013082602CARD3       010CSU CARDSYSTON      NM   R$  000000000032900000000003290000000000321000000000032700000000003290000000000315000000000032900013000000000000004900000000000001602400000000000000009999123100000010000000000000BRCARDACNOR9105
012013082602CBEE3       010AMPLA ENERG ON *         R$  000000000013300000000001330000000000133000000000013300000000001330000000000130000000000013500001000000000000100000000000000000013300000000000000009999123100010000000000000000BRCBEEACNOR3149
012013082696CBMA3F      020COBRASMA    ON           R$  000000000000600000000000060000000000006000000000000600000000000060000000000005000000000000600001000000000000000001000000000000000006000000000000009999123100000010000000000000BRCBMAACNOR4124
012013082602CBMA4       010COBRASMA    PN           R$  000000000000400000000000050000000000004000000000000400000000000050000000000004000000000000500004000000000000040000000000000000180000000000000000009999123100000010000000000000BRCBMAACNPR1124
012013082608CCHI3       010CHIARELLI   ON           R$  000000000003800000000000390000000000032000000000003400000000000320000000000031000000000003200103000000000001530000000000000052710000000000000000009999123100000010000000000000BRCCHIACNOR5123
012013082696CCHI3F      020CHIARELLI   ON           R$  000000000003600000000000390000000000030000000000003500000000000350000000000033000000000003500029000000000000045319000000000001623328000000000000009999123100000010000000000000BRCCHIACNOR5123
012013082608CCHI4       010CHIARELLI   PN           R$  000000000003200000000000320000000000026000000000002900000000000260000000000026000000000002700014000000000000160000000000000004690000000000000000009999123100000010000000000000BRCCHIACNPR2122
012013082696CCHI4F      020CHIARELLI   PN           R$  000000000003100000000000310000000000022000000000002600000000000220000000000027000000000003000002000000000000000002000000000000000053000000000000009999123100000010000000000000BRCCHIACNPR2122
012013082602CCPR3       010CYRE COM-CCPON      NM   R$  000000000213400000000021750000000002103000000000213300000000021030000000002103000000000217500006000000000000014900000000000031791400000000000000009999123100000010000000000000BRCCPRACNOR9107
012013082696CCPR3F      020CYRE COM-CCPON      NM   R$  000000000213400000000021340000000002102000000000211700000000021060000000002101000000000228900005000000000000000154000000000000326098000000000000009999123100000010000000000000BRCCPRACNOR9107
012013082602CCRO3       010CCR SA      ON      NM   R$  000000000172900000000017390000000001704000000000172500000000017190000000001719000000000172907085000000000003405000000000005874544500000000000000009999123100000010000000000000BRCCROACNOR2122
012013082696CCRO3F      020CCR SA      ON      NM   R$  000000000173000000000017500000000001709000000000172900000000017300000000001718000000000174800054000000000000001588000000000002745678000000000000009999123100000010000000000000BRCCROACNOR2122
012013082662CCRO3T      030CCR SA      ON      NM360R$  000000000190200000000019030000000001902000000000190200000000019030000000000000000000000000000002000000000000100000000000000190235760000000000000009999123100000010000000000000BRCCROACNOR2122
012013082602CCXC3       010CCX CARVAO  ON      NM   R$  000000000014700000000001490000000000139000000000014200000000001410000000000140000000000014100997000000000003362700000000000478514400000000000000009999123100000010000000000000BRCCXCACNOR5100
012013082696CCXC3F      020CCX CARVAO  ON      NM   R$  000000000014300000000001430000000000140000000000014000000000001400000000000140000000000014200003000000000000000087000000000000012201000000000000009999123100000010000000000000BRCCXCACNOR5100
012013082662CCXC3T      030CCX CARVAO  ON      NM030R$  000000000014400000000001450000000000144000000000014400000000001450000000000000000000000000000002000000000000020000000000000002880878000000000000009999123100000010000000000000BRCCXCACNOR5100
012013082602CEDO3       010CEDRO       ON      N1   R$  000000000097100000000009710000000000970000000000097000000000009700000000000960000000000101000003000000000000000300000000000000291100000000000000009999123100000010000000000000BRCEDOACNOR8094
012013082696CEDO3F      020CEDRO       ON      N1   R$  000000000096000000000009600000000000960000000000096000000000009600000000000900000000000100000001000000000000000030000000000000028800000000000000009999123100000010000000000000BRCEDOACNOR8094
012013082602CEDO4       010CEDRO       PN      N1   R$  000000000093400000000009340000000000934000000000093400000000009340000000000870000000000093500001000000000000000100000000000000093400000000000000009999123100000010000000000000BRCEDOACNPR5126
012013082696CEDO4F      020CEDRO       PN      N1   R$  000000000092000000000009200000000000920000000000092000000000009200000000000800000000000093500001000000000000000013000000000000011960000000000000009999123100000010000000000000BRCEDOACNPR5126
012013082608CELP3       010CELPA       ON           R$  000000000006900000000000690000000000065000000000006800000000000690000000000065000000000007000004000000000000002100000000000000143500000000000000009999123100000010000000000000BRCELPACNOR8112
012013082608CELP5       010CELPA       PNA          R$  000000000008000000000000800000000000080000000000008000000000000800000000000071000000000007800002000000000000000300000000000000024000000000000000009999123100000010000000000000BRCELPACNPA1114
012013082612CEOC11B     010FII CEO CCP CI      MB   R$  000000000896200000000090000000000008760000000000890500000000090000000000008800000000000900000050000000000000003449000000000030716413000000000000009999123100000010000000000000BRCEOCCTF003109
012013082602CESP3       010CESP        ON  EJ  N1   R$  000000000173000000000017450000000001720000000000174000000000017200000000001650000000000172000005000000000000002500000000000004352000000000000000009999123100000010000000000000BRCESPACNOR3160
012013082602CESP6       010CESP        PNB EJ  N1   R$  000000000207900000000020990000000002052000000000207500000000020660000000002066000000000207502391000000000000427700000000000887518700000000000000009999123100000010000000000000BRCESPACNPB4119
012013082696CESP6F      020CESP        PNB EJ  N1   R$  000000000208000000000020990000000002038000000000207500000000020900000000002037000000000209000022000000000000000656000000000001361685000000000000009999123100000010000000000000BRCESPACNPB4119
012013082602CGAS5       010COMGAS      PNA          R$  000000000560000000000056000000000005545000000000557900000000055810000000005581000000000559500109000000000000015800000000000088161800000000000000009999123100000010000000000000BRCGASACNPA3129
012013082696CGAS5F      020COMGAS      PNA          R$  000000000553100000000055310000000005531000000000553100000000055310000000005600000000000570000003000000000000000101000000000000558631000000000000009999123100000010000000000000BRCGASACNPA3129
012013082602CGRA3       010GRAZZIOTIN  ON           R$  000000000156800000000015990000000001565000000000157100000000015650000000001565000000000164000012000000000000003700000000000005813800000000000000009999123100000010000000000000BRCGRAACNOR2061
012013082602CGRA4       010GRAZZIOTIN  PN           R$  000000000171500000000017160000000001680000000000171200000000017130000000001680000000000171300173000000000000030600000000000052392400000000000000009999123100000010000000000000BRCGRAACNPR9061
012013082696CGRA4F      020GRAZZIOTIN  PN           R$  000000000171500000000017150000000001650000000000168100000000016600000000001660000000000180000004000000000000000139000000000000233660000000000000009999123100000010000000000000BRCGRAACNPR9061
012013082602CIEL3       010CIELO       ON      NM   R$  000000000583000000000059000000000005800000000000586400000000058820000000005880000000000589807310000000000002229300000000013074776900000000000000009999123100000010000000000000BRCIELACNOR3111
012013082696CIEL3F      020CIELO       ON      NM   R$  000000000580000000000059000000000005800000000000585300000000058990000000005887000000000589900163000000000000004638000000000027148919000000000000009999123100000010000000000000BRCIELACNOR3111
012013082662CIEL3T      030CIELO       ON      NM016R$  000000000589300000000058940000000005890000000000589300000000058930000000000000000000000000000006000000000000011200000000000066002612000000000000009999123100000010000000000000BRCIELACNOR3111
012013082662CIEL3T      030CIELO       ON      NM021R$  000000000592600000000059270000000005926000000000592600000000059270000000000000000000000000000002000000000000000200000000000001185367000000000000009999123100000010000000000000BRCIELACNOR3111
012013082662CIEL3T      030CIELO       ON      NM030R$  000000000592500000000059260000000005925000000000592500000000059260000000000000000000000000000002000000000000600000000000003555139620000000000000009999123100000010000000000000BRCIELACNOR3111
012013082662CIEL3T      030CIELO       ON      NM060R$  000000000595000000000059510000000005950000000000595000000000059510000000000000000000000000000002000000000000000400000000000002380232000000000000009999123100000010000000000000BRCIELACNOR3111
012013082602CLSC4       010CELESC      PN      N2   R$  000000000182200000000018220000000001794000000000180800000000018100000000001809000000000181000046000000000000008300000000000015014000000000000000009999123100000010000000000000BRCLSCACNPR3107
012013082696CLSC4F      020CELESC      PN      N2   R$  000000000180000000000018000000000001800000000000180000000000018000000000001678000000000178000001000000000000000025000000000000045000000000000000009999123100000010000000000000BRCLSCACNPR3107
012013082602CMIG3       010CEMIG       ON      N1   R$  000000000191800000000019180000000001888000000000189300000000018930000000001893000000000190300418000000000000159000000000000301019300000000000000009999123100000010000000000000BRCMIGACNOR6208
012013082696CMIG3F      020CEMIG       ON      N1   R$  000000000190000000000019000000000001890000000000189400000000018950000000001890000000000191600022000000000000000577000000000001093403000000000000009999123100000010000000000000BRCMIGACNOR6208
012013082602CMIG4       010CEMIG       PN      N1   R$  000000000194500000000019500000000001901000000000191600000000019070000000001907000000000190907906000000000002324800000000004456099000000000000000009999123100000010000000000000BRCMIGACNPR3208
012013082696CMIG4F      020CEMIG       PN      N1   R$  000000000194400000000019490000000001904000000000192400000000019490000000001906000000000191300131000000000000003367000000000006484063000000000000009999123100000010000000000000BRCMIGACNPR3208
012013082662CMIG4T      030CEMIG       PN      N1016R$  000000000195800000000019590000000001958000000000195800000000019590000000000000000000000000000002000000000000005000000000000009790801000000000000009999123100000010000000000000BRCMIGACNPR3208
012013082662CMIG4T      030CEMIG       PN      N1030R$  000000000195800000000019590000000001934000000000194600000000019410000000000000000000000000000006000000000000017700000000000034449022000000000000009999123100000010000000000000BRCMIGACNPR3208
012013082662CMIG4T      030CEMIG       PN      N1060R$  000000000193900000000019400000000001939000000000193900000000019400000000000000000000000000000002000000000000001000000000000001939591000000000000009999123100000010000000000000BRCMIGACNPR3208
012013082662CMIG4T      030CEMIG       PN      N1182R$  000000000201100000000020120000000002011000000000201100000000020120000000000000000000000000000002000000000000002000000000000004023759000000000000009999123100000010000000000000BRCMIGACNPR3208
012013082678CMIGI20     070CMIG        PN      N1000R$  000000000002600000000000260000000000026000000000002600000000000260000000000015000000000004600001000000000000000200000000000000005200000000000200002013091600000010000000000000BRCMIGACNPR3208
012013082678CMIGK48     070CMIG        PN      N1000R$  000000000017700000000001780000000000177000000000017700000000001780000000000000000000000000000002000000000000065000000000000011537500000000000185002013111800000010000000000000BRCMIGACNPR3208
012013082612CNES11B     010FII CENESP  CI  ER  MB   R$  000000001265000000000128190000000012500000000001254300000000125000000000012100000000001235700013000000000000000763000000000009570561000000000000009999123100000010000000000000BRCNESCTF001125
012013082602COCE3       010COELCE      ON           R$  000000000414900000000041490000000004080000000000409200000000040990000000004062000000000409900013000000000000002500000000000010232400000000000000009999123100000010000000000000BRCOCEACNOR0132
012013082602COCE5       010COELCE      PNA          R$  000000000401800000000040970000000004003000000000402600000000040050000000004005000000000401900194000000000000136300000000000548810200000000000000009999123100000010000000000000BRCOCEACNPA3133
012013082696COCE5F      020COELCE      PNA          R$  000000000402000000000040800000000004020000000000402900000000040420000000004000000000000405000016000000000000000429000000000001728611000000000000009999123100000010000000000000BRCOCEACNPA3133
012013082602CPFE3       010CPFL ENERGIAON  ED  NM   R$  000000000196300000000019800000000001937000000000195200000000019400000000001940000000000195003323000000000000629100000000001228231700000000000000009999123100000010000000000000BRCPFEACNOR0122
012013082696CPFE3F      020CPFL ENERGIAON  ED  NM   R$  000000000195900000000019790000000001940000000000195100000000019790000000001940000000000197800031000000000000000789000000000001541253000000000000009999123100000010000000000000BRCPFEACNOR0122
012013082602CPLE3       010COPEL       ON      N1   R$  000000000223500000000022750000000002199000000000221500000000021990000000002190000000000219900036000000000000005300000000000011740200000000000000009999123100000010000000000000BRCPLEACNOR8128
012013082602CPLE6       010COPEL       PNB     N1   R$  000000000297300000000029930000000002921000000000294300000000029230000000002923000000000293002456000000000000399500000000001175785900000000000000009999123100000010000000000000BRCPLEACNPB9125
012013082696CPLE6F      020COPEL       PNB     N1   R$  000000000294000000000030090000000002930000000000294900000000029500000000002940000000000298100013000000000000000378000000000001114819000000000000009999123100000010000000000000BRCPLEACNPB9125
012013082602CPRE3       010CPFL RENOVAVON      NM   R$  000000000119800000000011980000000001168000000000117700000000011680000000001150000000000119900040000000000000023700000000000027905200000000000000009999123100000010000000000000BRCPREACNOR5100
012013082696CPRE3F      020CPFL RENOVAVON      NM   R$  000000000115400000000011800000000001111000000000116600000000011110000000001111000000000116900010000000000000000297000000000000346444000000000000009999123100000010000000000000BRCPREACNOR5100
012013082602CRDE3       010CR2         ON      NM   R$  000000000041500000000004250000000000415000000000041800000000004250000000000415000000000042500006000000000000010100000000000004231500000000000000009999123100000010000000000000BRCRDEACNOR1108
012013082602CREM3       010CREMER      ON      NM   R$  000000000142000000000014200000000001406000000000141500000000014060000000001406000000000145500020000000000000005700000000000008071000000000000000009999123100000010000000000000BRCREMACNOR2166
012013082602CRIV4       010ALFA FINANC PN           R$  000000000045400000000004540000000000454000000000045400000000004540000000000442000000000045900001000000000000000400000000000000181600000000000000009999123100000010000000000000BRCRIVACNPR1190
012013082602CRUZ3       010SOUZA CRUZ  ON           R$  000000000264900000000026850000000002617000000000265300000000026450000000002645000000000265902883000000000000764300000000002027715200000000000000009999123100000010000000000000BRCRUZACNOR0246
012013082696CRUZ3F      020SOUZA CRUZ  ON           R$  000000000268500000000026850000000002609000000000265900000000026090000000002605000000000266300039000000000000001109000000000002949523000000000000009999123100000010000000000000BRCRUZACNOR0246
012013082662CRUZ3T      030SOUZA CRUZ  ON        021R$  000000000267500000000026760000000002661000000000267300000000026620000000000000000000000000000004000000000000000800000000000002138888000000000000009999123100000010000000000000BRCRUZACNOR0246
012013082662CRUZ3T      030SOUZA CRUZ  ON        024R$  000000000267300000000026740000000002673000000000267300000000026740000000000000000000000000000002000000000000029000000000000077543629000000000000009999123100000010000000000000BRCRUZACNOR0246
012013082662CRUZ3T      030SOUZA CRUZ  ON        030R$  000000000266700000000026680000000002667000000000266700000000026680000000000000000000000000000002000000000000006000000000000016006847000000000000009999123100000010000000000000BRCRUZACNOR0246
012013082678CRUZI28     070CRUZ        ON        000R$  000000000000500000000000050000000000005000000000000500000000000050000000000000000000000000000002000000000000004000000000000000020000000000000280002013091600000010000000000000BRCRUZACNOR0246
012013082682CRUZU28     080CRUZE       ON        000R$  000000000017600000000001760000000000175000000000017500000000001750000000000000000000000000000003000000000000035200000000000006181100000000000280002013091600000010000000000000BRCRUZACNOR0246
012013082602CSAN3       010COSAN       ON      NM   R$  000000000420800000000042200000000004150000000000418300000000041570000000004157000000000416803724000000000000927500000000003880483100000000000000009999123100000010000000000000BRCSANACNOR6108
012013082696CSAN3F      020COSAN       ON      NM   R$  000000000422000000000042440000000004170000000000419800000000041780000000004101000000000422800024000000000000000782000000000003282765000000000000009999123100000010000000000000BRCSANACNOR6108
012013082602CSMG3       010COPASA      ON      NM   R$  000000000291500000000029280000000002823000000000285900000000028280000000002828000000000283202141000000000000289400000000000827453900000000000000009999123100000010000000000000BRCSMGACNOR5127
012013082696CSMG3F      020COPASA      ON      NM   R$  000000000290000000000029570000000002801000000000286900000000028010000000002801000000000289700032000000000000000431000000000001236738000000000000009999123100000010000000000000BRCSMGACNOR5127
012013082614CSMO11      010ISHARES CSMOCI           R$  000000000453000000000045300000000004530000000000453000000000045300000000003800000000000475900001000000000000000100000000000000453000000000000000009999123100000010000000000000BRCSMOCTF002100
012013082602CSNA3       010SID NACIONALON           R$  000000000088100000000008940000000000874000000000088300000000008750000000000874000000000087509754000000000006505600000000005747098400000000000000009999123100000010000000000000BRCSNAACNOR6243
012013082696CSNA3F      020SID NACIONALON           R$  000000000087800000000008920000000000875000000000088200000000008850000000000875000000000088500061000000000000002264000000000001995931000000000000009999123100000010000000000000BRCSNAACNOR6243
012013082662CSNA3T      030SID NACIONALON        045R$  000000000089600000000008970000000000896000000000089600000000008970000000000000000000000000000002000000000000050000000000000044837850000000000000009999123100000010000000000000BRCSNAACNOR6243
012013082662CSNA3T      030SID NACIONALON        091R$  000000000090300000000009070000000000903000000000090600000000009070000000000000000000000000000006000000000000031500000000000028558630000000000000009999123100000010000000000000BRCSNAACNOR6243
012013082678CSNAI10     070CSNA        ON        000R$  000000000000700000000000080000000000007000000000000700000000000080000000000000000000000003000002000000000000004000000000000000031500000000000100002013091600000010000000000000BRCSNAACNOR6243
012013082678CSNAI7      070CSNA        ON        000R$  000000000021000000000002190000000000210000000000021400000000002190000000000000000000000000000002000000000000004000000000000000858000000000000068002013091600000010000000000000BRCSNAACNOR6242
012013082678CSNAI8      070CSNA        ON        000R$  000000000012400000000001240000000000115000000000012200000000001150000000000102000000000011500008000000000000012700000000000001550400000000000078002013091600000010000000000000BRCSNAACNOR6242
012013082678CSNAI9      070CSNA  FM    ON        000R$  000000000003200000000000370000000000031000000000003400000000000310000000000020000000000005900015000000000000041500000000000001426000000000000090002013091600000010000000000000BRCSNAACNOR6243
012013082678CSNAI92     070CSNA  FM    ON        000R$  000000000002600000000000280000000000025000000000002600000000000250000000000000000000000000000005000000000000006500000000000000173000000000000092002013091600000010000000000000BRCSNAACNOR6243
012013082678CSNAI94     070CSNA  FM    ON        000R$  000000000001900000000000190000000000019000000000001900000000000190000000000000000000000000000002000000000000001000000000000000019000000000000094002013091600000010000000000000BRCSNAACNOR6243
012013082678CSNAI98     070CSNA        ON        000R$  000000000000900000000000100000000000009000000000000900000000000100000000000000000000000000000010000000000000009900000000000000094100000000000098002013091600000010000000000000BRCSNAACNOR6243
012013082678CSNAJ10     070CSNA        ON        000R$  000000000002600000000000260000000000026000000000002600000000000260000000000000000000000000000006000000000000002300000000000000059800000000000100002013102100000010000000000000BRCSNAACNOR6243
012013082678CSNAJ72     070CSNA        ON        000R$  000000000020000000000002000000000000200000000000020000000000002000000000000000000000000000000001000000000000002000000000000000400000000000000070002013102100000010000000000000BRCSNAACNOR6242
012013082678CSNAJ8      070CSNA        ON        000R$  000000000014100000000001410000000000141000000000014100000000001410000000000020000000000014400004000000000000004900000000000000690900000000000078002013102100000010000000000000BRCSNAACNOR6242
012013082678CSNAJ82     070CSNA        ON        000R$  000000000011700000000001260000000000117000000000012200000000001260000000000000000000000013000009000000000000009900000000000001211400000000000080002013102100000010000000000000BRCSNAACNOR6242
012013082678CSNAJ86     070CSNA  FM    ON        000R$  000000000010000000000001000000000000096000000000009800000000000960000000000000000000000000000004000000000000010000000000000000980000000000000084002013102100000010000000000000BRCSNAACNOR6242
012013082678CSNAJ9      070CSNA  FM    ON        000R$  000000000007200000000000720000000000067000000000006800000000000670000000000000000000000000000002000000000000005500000000000000378500000000000088002013102100000010000000000000BRCSNAACNOR6242
012013082678CSNAJ92     070CSNA  FM    ON        000R$  000000000005200000000000550000000000048000000000005300000000000480000000000000000000000000000057000000000000131100000000000007010800000000000092002013102100000010000000000000BRCSNAACNOR6243
012013082678CSNAJ94     070CSNA  FM    ON        000R$  000000000004400000000000470000000000044000000000004500000000000470000000000000000000000000000002000000000000007500000000000000340500000000000094002013102100000010000000000000BRCSNAACNOR6243
012013082682CSNAU8      080CSNAE       ON        000R$  000000000001000000000000100000000000009000000000000900000000000100000000000010000000000002400005000000000000002500000000000000024500000000000078002013091600000010000000000000BRCSNAACNOR6242
012013082682CSNAU9      080CSNAE FM    ON        000R$  000000000004600000000000480000000000044000000000004600000000000480000000000042000000000006100004000000000000000900000000000000042000000000000090002013091600000010000000000000BRCSNAACNOR6243
012013082682CSNAV8      080CSNAE       ON        000R$  000000000002700000000000270000000000025000000000002600000000000260000000000026000000000003600062000000000000016300000000000000423900000000000078002013102100000010000000000000BRCSNAACNOR6242
012013082682CSNAV9      080CSNAE FM    ON        000R$  000000000005700000000000570000000000056000000000005600000000000560000000000055000000000007800002000000000000000200000000000000011300000000000088002013102100000010000000000000BRCSNAACNOR6242
012013082682CSNAV92     080CSNAE FM    ON        000R$  000000000008200000000000830000000000076000000000008000000000000800000000000000000000000000000014000000000000027500000000000002213000000000000092002013102100000010000000000000BRCSNAACNOR6243
012013082602CTAX11      010CONTAX      UNT     N2   R$  000000000189900000000018990000000001832000000000184800000000018800000000001880000000000191800054000000000000072000000000000133118100000000000000009999123100000010000000000000BRCTAXCDAM19100
012013082696CTAX11F     020CONTAX      UNT     N2   R$  000000000186300000000018630000000001863000000000186300000000018630000000001843000000000198800001000000000000000083000000000000154629000000000000009999123100000010000000000000BRCTAXCDAM19100
012013082602CTAX3       010CONTAX      ON      N2   R$  000000000040200000000004020000000000399000000000040000000000004000000000000371000000000040000010000000000000001700000000000000680300000000000000009999123100000010000000000000BRCTAXACNOR3113
012013082602CTAX4       010CONTAX      PN      N2   R$  000000000035100000000003650000000000351000000000035900000000003650000000000357000000000037800056000000000000019000000000000006833500000000000000009999123100000010000000000000BRCTAXACNPR0114
012013082696CTAX4F      020CONTAX      PN      N2   R$  000000000035600000000004000000000000356000000000037100000000004000000000000326000000000038100006000000000000000099000000000000036806000000000000009999123100000010000000000000BRCTAXACNPR0114
012013082602CTIP3       010CETIP       ON      NM   R$  000000000237000000000023790000000002300000000000232800000000023150000000002315000000000231605307000000000001436700000000003345074200000000000000009999123100000010000000000000BRCTIPACNOR2119
012013082696CTIP3F      020CETIP       ON      NM   R$  000000000236000000000023950000000002299000000000233700000000022990000000002206000000000230000027000000000000001013000000000002365997000000000000009999123100000010000000000000BRCTIPACNOR2119
012013082662CTIP3T      030CETIP       ON      NM060R$  000000000239800000000023990000000002359000000000236300000000023600000000000000000000000000000010000000000000214700000000000507523231000000000000009999123100000010000000000000BRCTIPACNOR2119
012013082602CTKA4       010KARSTEN     PN           R$  000000000008200000000000900000000000082000000000008400000000000900000000000084000000000009000015000000000000005900000000000000499700000000000000009999123100000010000000000000BRCTKAACNPR7041
012013082602CTNM4       010COTEMINAS   PN           R$  000000000023900000000002430000000000239000000000024000000000002420000000000231000000000024400006000000000000003800000000000000914600000000000000009999123100000010000000000000BRCTNMACNPR6128
012013082612CXTL11      010FII CX TRX  CI           R$  000000008100000000000810000000000078101000000007842400000000781010000000078101000000008100000006000000000000000033000000000002588010000000000000009999123100000010000000000000BRCXTLCTF003121
012013082602CYRE3       010CYRELA REALTON      NM   R$  000000000159200000000016440000000001585000000000161100000000016050000000001600000000000160606990000000000002341500000000003773660400000000000000009999123100000010000000000000BRCYREACNOR7125
012013082696CYRE3F      020CYRELA REALTON      NM   R$  000000000158500000000016480000000001576000000000159400000000016340000000001567000000000163500095000000000000002778000000000004429314000000000000009999123100000010000000000000BRCYREACNOR7125
012013082662CYRE3T      030CYRELA REALTON      NM060R$  000000000163700000000016410000000001636000000000163800000000016370000000000000000000000000000008000000000000315900000000000517714551000000000000009999123100000010000000000000BRCYREACNOR7125
012013082678CYREI15     070CYRE        ON      NM000R$  000000000015300000000001530000000000153000000000015300000000001530000000000000000000000000000002000000000000004000000000000000612000000000000150002013091600000010000000000000BRCYREACNOR7125
012013082678CYREI16     070CYRE  FM    ON      NM000R$  000000000005600000000000810000000000049000000000006100000000000490000000000000000000000000000016000000000000047000000000000002913000000000000160002013091600000010000000000000BRCYREACNOR7125
012013082678CYREI17     070CYRE  FM    ON      NM000R$  000000000001700000000000230000000000015000000000001700000000000150000000000000000000000002500008000000000000046800000000000000816600000000000170002013091600000010000000000000BRCYREACNOR7125
012013082678CYREI45     070CYRE  FM    ON      NM000R$  000000000010200000000001110000000000079000000000009700000000000870000000000000000000000000000010000000000000025500000000000002478900000000000155002013091600000010000000000000BRCYREACNOR7125
012013082678CYREI46     070CYRE  FM    ON      NM000R$  000000000003600000000000450000000000027000000000003500000000000340000000000000000000000000000016000000000000054900000000000001927700000000000165002013091600000010000000000000BRCYREACNOR7125
012013082678CYREJ16     070CYRE  FM    ON      NM000R$  000000000008000000000001130000000000080000000000010100000000000910000000000000000000000000000011000000000000029300000000000002960000000000000160002013102100000010000000000000BRCYREACNOR7125
012013082678CYREJ17     070CYRE  FM    ON      NM000R$  000000000005000000000000600000000000044000000000005600000000000440000000000000000000000000000012000000000000029600000000000001681400000000000170002013102100000010000000000000BRCYREACNOR7125
012013082678CYREJ18     070CYRE        ON      NM000R$  000000000002300000000000230000000000023000000000002300000000000230000000000000000000000000000001000000000000003000000000000000069000000000000180002013102100000010000000000000BRCYREACNOR7125
012013082678CYREJ19     070CYRE        ON      NM000R$  000000000001000000000000130000000000010000000000001100000000000130000000000000000000000000000005000000000000014500000000000000169000000000000190002013102100000010000000000000BRCYREACNOR7125
012013082678CYREJ20     070CYRE        ON      NM000R$  000000000000400000000000040000000000004000000000000400000000000040000000000000000000000000000001000000000000003000000000000000012000000000000200002013102100000010000000000000BRCYREACNOR7125
012013082678CYREJ45     070CYRE  FM    ON      NM000R$  000000000012700000000001430000000000124000000000013500000000001260000000000000000000000000000009000000000000024500000000000003314500000000000155002013102100000010000000000000BRCYREACNOR7125
012013082678CYREJ46     070CYRE  FM    ON      NM000R$  000000000007000000000000820000000000070000000000007800000000000820000000000000000000000000000006000000000000020500000000000001602500000000000165002013102100000010000000000000BRCYREACNOR7125
012013082678CYREJ47     070CYRE  FM    ON      NM000R$  000000000003400000000000430000000000034000000000003900000000000370000000000000000000000000000018000000000000047700000000000001905300000000000175002013102100000010000000000000BRCYREACNOR7125
012013082678CYREJ48     070CYRE        ON      NM000R$  000000000001500000000000200000000000015000000000001700000000000200000000000000000000000000000003000000000000008800000000000000149800000000000185002013102100000010000000000000BRCYREACNOR7125
012013082678CYREJ49     070CYRE        ON      NM000R$  000000000000700000000000070000000000007000000000000700000000000070000000000000000000000000000001000000000000003000000000000000021000000000000195002013102100000010000000000000BRCYREACNOR7125
012013082678CYREK17     070CYRE        ON      NM000R$  000000000007400000000000740000000000074000000000007400000000000740000000000000000000000000000001000000000000003000000000000000222000000000000170002013111800000010000000000000BRCYREACNOR7125
012013082678CYREK18     070CYRE        ON      NM000R$  000000000004200000000000420000000000041000000000004100000000000410000000000030000000000004500002000000000000006000000000000000249000000000000180002013111800000010000000000000BRCYREACNOR7125
012013082678CYREK19     070CYRE        ON      NM000R$  000000000002200000000000290000000000022000000000002500000000000290000000000000000000000000000002000000000000006000000000000000153000000000000190002013111800000010000000000000BRCYREACNOR7125
012013082682CYREU15     080CYREE FM    ON      NM000R$  000000000001500000000000150000000000015000000000001500000000000150000000000000000000000000000001000000000000000200000000000000003000000000000150002013091600000010000000000000BRCYREACNOR7125
012013082682CYREU16     080CYREE FM    ON      NM000R$  000000000004000000000000400000000000034000000000003700000000000370000000000000000000000000000004000000000000009000000000000000333000000000000160002013091600000010000000000000BRCYREACNOR7125
012013082682CYREU44     080CYREE       ON      NM000R$  000000000001000000000000100000000000010000000000001000000000000100000000000000000000000000000001000000000000001000000000000000010000000000000145002013091600000010000000000000BRCYREACNOR7125
012013082682CYREU46     080CYREE FM    ON      NM000R$  000000000006500000000000650000000000065000000000006500000000000650000000000000000000000000000001000000000000003500000000000000227500000000000165002013091600000010000000000000BRCYREACNOR7125
012013082682CYREV15     080CYREE FM    ON      NM000R$  000000000003400000000000340000000000032000000000003300000000000320000000000000000000000000000003000000000000005200000000000000173400000000000150002013102100000010000000000000BRCYREACNOR7125
012013082682CYREV16     080CYREE FM    ON      NM000R$  000000000006800000000000720000000000058000000000006400000000000610000000000000000000000000000007000000000000022500000000000001455000000000000160002013102100000010000000000000BRCYREACNOR7125
012013082682CYREV45     080CYREE FM    ON      NM000R$  000000000004800000000000500000000000041000000000004600000000000480000000000000000000000000000006000000000000016500000000000000766000000000000155002013102100000010000000000000BRCYREACNOR7125
012013082682CYREV46     080CYREE FM    ON      NM000R$  000000000009000000000000920000000000079000000000008400000000000880000000000000000000000000000007000000000000020000000000000001698500000000000165002013102100000010000000000000BRCYREACNOR7125
012013082682CYREW46     080CYREE       ON      NM000R$  000000000010700000000001070000000000107000000000010700000000001070000000000000000000000000000002000000000000006000000000000000642000000000000165002013111800000010000000000000BRCYREACNOR7125
012013082682CYREW47     080CYREE       ON      NM000R$  000000000016600000000001660000000000166000000000016600000000001660000000000000000000000000000002000000000000006000000000000000996000000000000175002013111800000010000000000000BRCYREACNOR7125
012013082602CZLT11      010COSAN LTD   DR3 ED       R$  000000000327500000000032750000000003214000000000323500000000032160000000003216000000000324800616000000000000384900000000001245192300000000000000009999123100000010000000000000BRCZLTBDR009105
012013082696CZLT11F     020COSAN LTD   DR3 ED       R$  000000000324800000000032480000000003248000000000324800000000032480000000003000000000000324800001000000000000000019000000000000061712000000000000009999123100000010000000000000BRCZLTBDR009105
012013082602DAGB11      010DUFRY AG    DR3          R$  000000003280000000000328980000000032000000000003226400000000322550000000032255000000003260000377000000000000018133000000000585043495000000000000009999123100000010000000000000BRDAGBBDR008100
012013082602DASA3       010DASA        ON      NM   R$  000000000109300000000011110000000001076000000000108800000000010780000000001078000000000108203816000000000002206100000000002400928900000000000000009999123100000010000000000000BRDASAACNOR1108
012013082696DASA3F      020DASA        ON      NM   R$  000000000108500000000010970000000001080000000000108800000000010970000000001057000000000109800018000000000000000291000000000000316872000000000000009999123100000010000000000000BRDASAACNOR1108
012013082662DASA3T      030DASA        ON      NM016R$  000000000108200000000010830000000001082000000000108200000000010830000000000000000000000000000002000000000000000400000000000000433011000000000000009999123100000010000000000000BRDASAACNOR1108
012013082662DASA3T      030DASA        ON      NM030R$  000000000111200000000011130000000001096000000000110600000000010970000000000000000000000000000004000000000000004800000000000005312875000000000000009999123100000010000000000000BRDASAACNOR1108
012013082602DAYC4       010DAYCOVAL    PN      N2   R$  000000000077600000000007970000000000760000000000078300000000007900000000000784000000000079000110000000000000032100000000000025152300000000000000009999123100000010000000000000BRDAYCACNPR2128
012013082602DIRR3       010DIRECIONAL  ON      NM   R$  000000000117000000000011700000000001132000000000114900000000011540000000001154000000000116302291000000000000587500000000000675535500000000000000009999123100000010000000000000BRDIRRACNOR0104
012013082696DIRR3F      020DIRECIONAL  ON      NM   R$  000000000115800000000011580000000001140000000000114800000000011510000000001140000000000119500012000000000000000342000000000000392946000000000000009999123100000010000000000000BRDIRRACNOR0104
012013082662DIRR3T      030DIRECIONAL  ON      NM030R$  000000000116200000000011640000000001162000000000116200000000011640000000000000000000000000000008000000000000030700000000000035685481000000000000009999123100000010000000000000BRDIRRACNOR0104
012013082614DIVO11      010IT NOW IDIV CI           R$  000000000326300000000032630000000003227000000000324600000000032270000000003200000000000322800019000000000000002210000000000007174870000000000000009999123100000010000000000000BRDIVOCTF002100
012013082696DIVO11F     020IT NOW IDIV CI           R$  000000000312200000000031220000000003122000000000312200000000031220000000003122000000000321000001000000000000000002000000000000006244000000000000009999123100000010000000000000BRDIVOCTF002100
