00COTAHIST.2013BOVESPA 20130822                                                                                                                                                                                                                      
012013082202AAPL11B     010APPLE       DRN     MB   R$  000000001222000000000122200000000012220000000001222000000000122200000000012165000000001230500001000000000000000200000000000002444000000000000000009999123100000010000000000000BRAAPLBDR004105
012013082202ABCB4       010ABC BRASIL  PN      N2   R$  000000000119700000000012010000000001157000000000117200000000011700000000001170000000000117300760000000000000138300000000000162207600000000000000009999123100000010000000000000BRABCBACNPR4120
012013082296ABCB4F      020ABC BRASIL  PN      N2   R$  000000000117000000000011700000000001156000000000115600000000011560000000001151000000000118800003000000000000000080000000000000092539000000000000009999123100000010000000000000BRABCBACNPR4120
012013082202ABRE11      010ABRIL EDUCA UNT     N2   R$  000000000329900000000033190000000003210000000000322900000000032600000000003260000000000327400554000000000000160700000000000518952800000000000000009999123100000010000000000000BRABRECDAM15102
012013082296ABRE11F     020ABRIL EDUCA UNT     N2   R$  000000000333500000000033350000000003217000000000323900000000032350000000002800000000000321000014000000000000000326000000000001056182000000000000009999123100000010000000000000BRABRECDAM15102
012013082202AEDU3       010ANHANGUERA  ON      NM   R$  000000000127200000000012730000000001236000000000125100000000012400000000001239000000000124705854000000000002522500000000003155764900000000000000009999123100000010000000000000BRAEDUACNOR9107
012013082296AEDU3F      020ANHANGUERA  ON      NM   R$  000000000126000000000012880000000001231000000000125400000000012310000000001230000000000138000032000000000000000958000000000001201726000000000000009999123100000010000000000000BRAEDUACNOR9107
012013082212AEFI11      010FII AESAPAR CI           R$  000000001240000000000124900000000012400000000001240000000000124900000000012401000000001249000015000000000000000855000000000010602809000000000000009999123100000010000000000000BRAEFICTF002120
012013082202AELP3       010AES ELPA    ON           R$  000000000085400000000008540000000000854000000000085400000000008540000000000801000000000084900009000000000000003000000000000002562000000000000000009999123100000010000000000000BRAELPACNOR2119
012013082296AELP3F      020AES ELPA    ON           R$  000000000088000000000008800000000000880000000000088000000000008800000000000752000000000090000003000000000000000053000000000000046640000000000000009999123100000010000000000000BRAELPACNOR2119
012013082212AGCX11      010FII AG CAIXACI           R$  000000009912500000000994000000000099125000000009918800000000994000000000099170000000009940000017000000000000000202000000000020036065000000000000009999123100000010000000000000BRAGCXCTF003109
012013082202AGRO3       010BRASILAGRO  ON      NM   R$  000000000093200000000009450000000000930000000000093500000000009300000000000930000000000094500066000000000000068500000000000064106300000000000000009999123100000010000000000000BRAGROACNOR7102
012013082262AGRO3T      030BRASILAGRO  ON      NM060R$  000000000094300000000009440000000000943000000000094300000000009440000000000000000000000000000002000000000000005000000000000004716960000000000000009999123100000010000000000000BRAGROACNOR7102
012013082262AGRO3T      030BRASILAGRO  ON      NM091R$  000000000095900000000009600000000000959000000000095900000000009600000000000000000000000000000002000000000000035000000000000033571160000000000000009999123100000010000000000000BRAGROACNOR7102
012013082202ALLL3       010ALL AMER LATON      NM   R$  000000000086300000000008930000000000860000000000088000000000008930000000000890000000000089307494000000000002746600000000002418593600000000000000009999123100000010000000000000BRALLLACNOR6118
012013082296ALLL3F      020ALL AMER LATON      NM   R$  000000000086000000000008900000000000860000000000088000000000008890000000000889000000000089100031000000000000000785000000000000691259000000000000009999123100000010000000000000BRALLLACNOR6118
012013082262ALLL3T      030ALL AMER LATON      NM032R$  000000000089300000000008970000000000893000000000089400000000008970000000000000000000000000000006000000000000009000000000000008054981000000000000009999123100000010000000000000BRALLLACNOR6118
012013082262ALLL3T      030ALL AMER LATON      NM060R$  000000000088300000000008840000000000883000000000088300000000008840000000000000000000000000000002000000000000001200000000000001059764000000000000009999123100000010000000000000BRALLLACNOR6118
012013082212ALMI11B     010FII TORRE ALCI      MB   R$  000000031429000000003174900000000309200000000031316300000003092000000000309003000000031449900022000000000000000053000000000016597670000000000000009999123100000010000000000000BRALMICTF003204
012013082202ALPA3       010ALPARGATAS  ON  EJ  N1   R$  000000000115200000000011520000000001091000000000113600000000010910000000001090000000000115500004000000000000000400000000000000454500000000000000009999123100000010000000000000BRALPAACNOR0203
012013082296ALPA3F      020ALPARGATAS  ON  EJ  N1   R$  000000000114000000000011400000000001140000000000114000000000011400000000001140000000000000000001000000000000000010000000000000011400000000000000009999123100000010000000000000BRALPAACNOR0203
012013082202ALPA4       010ALPARGATAS  PN  EJ  N1   R$  000000000127000000000012930000000001242000000000126300000000012630000000001261000000000126302514000000000000435500000000000550163700000000000000009999123100000010000000000000BRALPAACNPR7203
012013082296ALPA4F      020ALPARGATAS  PN  EJ  N1   R$  000000000128100000000013400000000001245000000000127500000000013400000000001255000000000139900027000000000000000525000000000000669889000000000000009999123100000010000000000000BRALPAACNPR7203
012013082278ALPAI42     070ALPA    /EJ PN      N1000R$  000000000004600000000000460000000000046000000000004600000000000460000000000000000000000000000001000000000000002000000000000000092000000000000125002013091600000010000000000000BRALPAACNPR7203
012013082202ALSC3       010ALIANSCE    ON      NM   R$  000000000184400000000018540000000001808000000000182600000000018390000000001838000000000183901725000000000000682300000000001245926900000000000000009999123100000010000000000000BRALSCACNOR0104
012013082296ALSC3F      020ALIANSCE    ON      NM   R$  000000000181400000000018370000000001813000000000181700000000018340000000001808000000000184000005000000000000000172000000000000312689000000000000009999123100000010000000000000BRALSCACNOR0104
012013082202ALUP11      010ALUPAR      UNT     N2   R$  000000000166000000000017180000000001660000000000169600000000017180000000001714000000000171800560000000000000172100000000000291978100000000000000009999123100000010000000000000BRALUPCDAM15100
012013082296ALUP11F     020ALUPAR      UNT     N2   R$  000000000167300000000017090000000001613000000000167600000000016700000000001671000000000170000015000000000000000503000000000000843284000000000000009999123100000010000000000000BRALUPCDAM15100
012013082262ALUP11T     030ALUPAR      UNT     N2018R$  000000000170400000000017050000000001704000000000170400000000017050000000000000000000000000000002000000000000002000000000000003408645000000000000009999123100000010000000000000BRALUPCDAM15100
012013082202AMAR3       010LOJAS MARISAON      NM   R$  000000000190100000000019380000000001890000000000191000000000019000000000001894000000000190002292000000000000508300000000000971211900000000000000009999123100000010000000000000BRAMARACNOR4109
012013082296AMAR3F      020LOJAS MARISAON      NM   R$  000000000192500000000019250000000001896000000000190300000000018960000000001920000000000217000006000000000000000156000000000000296932000000000000009999123100000010000000000000BRAMARACNOR4109
012013082202AMBV3       010AMBEV       ON           R$  000000000825000000000083780000000008212000000000829400000000083000000000008300000000000831200792000000000000144600000000001199322000000000000000009999123100000010000000000000BRAMBVACNOR4153
012013082296AMBV3F      020AMBEV       ON           R$  000000000823100000000084090000000008230000000000830900000000082700000000008250000000000828000045000000000000001236000000000010270502000000000000009999123100000010000000000000BRAMBVACNOR4153
012013082262AMBV3T      030AMBEV       ON        032R$  000000000831100000000083120000000008311000000000831100000000083120000000000000000000000000000002000000000000000100000000000000831187000000000000009999123100000010000000000000BRAMBVACNOR4153
012013082202AMBV4       010AMBEV       PN           R$  000000000828500000000083920000000008222000000000830700000000083220000000008319000000000832208117000000000001617100000000013434729000000000000000009999123100000010000000000000BRAMBVACNPR1153
012013082296AMBV4F      020AMBEV       PN           R$  000000000830000000000084490000000008227000000000831300000000084490000000008350000000000844900160000000000000004269000000000035493433000000000000009999123100000010000000000000BRAMBVACNPR1153
012013082262AMBV4T      030AMBEV       PN        018R$  000000000834400000000083450000000008344000000000834400000000083450000000000000000000000000000002000000000000000300000000000002503393000000000000009999123100000010000000000000BRAMBVACNPR1153
012013082262AMBV4T      030AMBEV       PN        060R$  000000000842200000000084230000000008422000000000842200000000084230000000000000000000000000000002000000000000002500000000000021056175000000000000009999123100000010000000000000BRAMBVACNPR1153
012013082262AMBV4T      030AMBEV       PN        091R$  000000000850000000000085010000000008479000000000850000000000084800000000000000000000000000000004000000000000015100000000000128362021000000000000009999123100000010000000000000BRAMBVACNPR1153
012013082202ARTR3       010ARTERIS     ON      NM   R$  000000000227800000000022970000000002267000000000227600000000022760000000002276000000000228504124000000000005441200000000012386812300000000000000009999123100000010000000000000BRARTRACNOR3101
012013082296ARTR3F      020ARTERIS     ON      NM   R$  000000000227800000000023350000000002263000000000228000000000023350000000002270000000000233500040000000000000001248000000000002847384000000000000009999123100000010000000000000BRARTRACNOR3101
012013082202ARZZ3       010AREZZO CO   ON      NM   R$  000000000337600000000034450000000003299000000000333900000000034450000000003427000000000344500832000000000000121900000000000407089800000000000000009999123100000010000000000000BRARZZACNOR3109
012013082296ARZZ3F      020AREZZO CO   ON      NM   R$  000000000335000000000033700000000003252000000000333700000000033700000000003302000000000350000010000000000000000288000000000000961085000000000000009999123100000010000000000000BRARZZACNOR3109
012013082202AUTM3       010AUTOMETAL   ON      NM   R$  000000000189500000000019090000000001867000000000187900000000018800000000001879000000000188000485000000000000168400000000000316503500000000000000009999123100000010000000000000BRAUTMACNOR8109
012013082296AUTM3F      020AUTOMETAL   ON      NM   R$  000000000184100000000019300000000001841000000000185800000000019300000000001900000000000200000004000000000000000072000000000000133835000000000000009999123100000010000000000000BRAUTMACNOR8109
012013082202AZEV4       010AZEVEDO     PN           R$  000000000016400000000001640000000000164000000000016400000000001640000000000164000000000016600001000000000000000900000000000000147600000000000000009999123100000010000000000000BRAZEVACNPR7113
012013082296AZEV4F      020AZEVEDO     PN           R$  000000000017500000000001750000000000175000000000017500000000001750000000000120000000000017500001000000000000000001000000000000000175000000000000009999123100000010000000000000BRAZEVACNPR7113
012013082202BAHI3       010BAHEMA      ON           R$  000000000047500000000004750000000000475000000000047500000000004750000000000472000000000049000001000000000000005000000000000002375000000000000000009999123100000010000000000000BRBAHIACNOR1066
012013082262BAHI3T      030BAHEMA      ON        032R$  000000000047900000000004800000000000479000000000047900000000004800000000000000000000000000000002000000000000005000000000000002395900000000000000009999123100000010000000000000BRBAHIACNOR1066
012013082202BALM4       010BAUMER      PN           R$  000000000880000000000088000000000008800000000000880000000000088000000000008000000000000880000002000000000000000200000000000001760000000000000000009999123100000010000000000000BRBALMACNPR2043
012013082296BAUH4F      020EXCELSIOR   PN           R$  000000000080100000000008010000000000801000000000080100000000008010000000000801000000000100000001000000000000000055000000000000044055000000000000009999123100000010000000000000BRBAUHACNPR3108
012013082202BAZA3       010AMAZONIA    ON           R$  000000000003300000000000330000000000032000000000003200000000000320000000000033000000000003400010000000000000273000000000000008739000000000000000009999123100000010000000000000BRBAZAACNOR0163
012013082296BAZA3F      020AMAZONIA    ON           R$  000000000003500000000000360000000000031000000000003500000000000310000000000032000000000003500007000000000000000825000000000000028880000000000000009999123100000010000000000000BRBAZAACNOR0163
012013082202BBAS3       010BRASIL      ON      NM   R$  000000000223600000000022780000000002227000000000225400000000022730000000002272000000000227316362000000000021172000000000047743727400000000000000009999123100000010000000000000BRBBASACNOR3237
012013082296BBAS3F      020BRASIL      ON      NM   R$  000000000223500000000022780000000002234000000000225500000000022780000000002278000000000227900307000000000000009595000000000021640979000000000000009999123100000010000000000000BRBBASACNOR3237
012013082262BBAS3T      030BRASIL      ON      NM018R$  000000000225300000000022720000000002253000000000226400000000022720000000000000000000000000000004000000000000005000000000000011322708000000000000009999123100000010000000000000BRBBASACNOR3237
012013082262BBAS3T      030BRASIL      ON      NM032R$  000000000225900000000022720000000002259000000000226200000000022720000000000000000000000000000006000000000000004100000000000009277142000000000000009999123100000010000000000000BRBBASACNOR3237
012013082262BBAS3T      030BRASIL      ON      NM060R$  000000000228900000000022970000000002286000000000228800000000022970000000000000000000000000000006000000000000001000000000000002288540000000000000009999123100000010000000000000BRBBASACNOR3237
012013082262BBAS3T      030BRASIL      ON      NM063R$  000000000230400000000023050000000002304000000000230400000000023050000000000000000000000000000002000000000000003000000000000006912150000000000000009999123100000010000000000000BRBBASACNOR3237
012013082262BBAS3T      030BRASIL      ON      NM180R$  000000000236700000000023810000000002367000000000237700000000023810000000000000000000000000000006000000000000004000000000000009509305000000000000009999123100000010000000000000BRBBASACNOR3237
012013082278BBASA24     070BBAS        ON      NM000R$  000000000011600000000001230000000000116000000000011900000000001230000000000000000000000000000004000000000001001200000000000119842600000000000240002014012000000010000000000000BRBBASACNOR3237
012013082278BBASA25     070BBAS        ON      NM000R$  000000000007300000000000850000000000073000000000007900000000000850000000000000000000000000000002000000000001000000000000000079000000000000000250002014012000000010000000000000BRBBASACNOR3237
012013082278BBASA26     070BBAS        ON      NM000R$  000000000005600000000000580000000000056000000000005600000000000580000000000000000000000000000003000000000001001200000000000057067200000000000260002014012000000010000000000000BRBBASACNOR3237
012013082278BBASA27     070BBAS        ON      NM000R$  000000000003800000000000380000000000036000000000003700000000000380000000000000000000000000000003000000000001000500000000000038018000000000000270002014012000000010000000000000BRBBASACNOR3237
012013082278BBASA30     070BBAS        ON      NM000R$  000000000000700000000000130000000000006000000000000900000000000070000000000000000000000000000005000000000002000000000000000018110000000000000300002014012000000010000000000000BRBBASACNOR3237
012013082278BBASB25     070BBAS        ON      NM000R$  000000000010000000000001000000000000100000000000010000000000001000000000000000000000000000000001000000000000001200000000000000120000000000000250002014021700000010000000000000BRBBASACNOR3237
012013082278BBASB26     070BBAS        ON      NM000R$  000000000006600000000000700000000000066000000000006800000000000700000000000000000000000000000002000000000000002400000000000000163200000000000260002014021700000010000000000000BRBBASACNOR3237
012013082278BBASI14     070BBAS        ON      NM000R$  000000000091500000000009150000000000915000000000091500000000009150000000000800000000000150000001000000000000003000000000000002745000000000000140002013091600000010000000000000BRBBASACNOR3237
012013082278BBASI21     070BBAS  FM    ON      NM000R$  000000000017500000000002020000000000165000000000018300000000002020000000000000000000000000000059000000000000087300000000000015988900000000000210002013091600000010000000000000BRBBASACNOR3237
012013082278BBASI22     070BBAS  FM    ON      NM000R$  000000000011600000000001380000000000105000000000012000000000001360000000000126000000000013600079000000000000193900000000000023371300000000000217602013091600000010000000000000BRBBASACNOR3236
012013082278BBASI23     070BBAS  FM    ON      NM000R$  000000000004800000000000700000000000048000000000005900000000000620000000000062000000000006800169000000000000314000000000000018584200000000000227602013091600000010000000000000BRBBASACNOR3236
012013082278BBASI24     070BBAS  FM    ON      NM000R$  000000000002500000000000270000000000019000000000002400000000000270000000000027000000000002800218000000000000365900000000000008838100000000000237602013091600000010000000000000BRBBASACNOR3236
012013082278BBASI25     070BBAS  FM    ON      NM000R$  000000000001000000000000130000000000010000000000001100000000000130000000000011000000000001300043000000000000069800000000000000791100000000000246602013091600000010000000000000BRBBASACNOR3235
012013082278BBASI26     070BBAS        ON      NM000R$  000000000000400000000000060000000000004000000000000500000000000060000000000004000000000000800002000000000000000700000000000000003600000000000256602013091600000010000000000000BRBBASACNOR3235
012013082278BBASI52     070BBAS        ON      NM000R$  000000000007300000000000730000000000073000000000007300000000000730000000000000000000000000000001000000000000003000000000000000219000000000000225002013091600000010000000000000BRBBASACNOR3237
012013082278BBASI61     070BBASE       ON      NM000R$  000000000008000000000000960000000000080000000000009000000000000920000000000000000000000000000026000000000000084200000000000007616900000000000222502013091600000010000000000000BRBBASACNOR3237
012013082278BBASJ21     070BBAS  FM    ON      NM000R$  000000000021200000000002350000000000210000000000022000000000002350000000000000000000000000000049000000000000070400000000000015557000000000000210002013102100000010000000000000BRBBASACNOR3237
012013082278BBASJ22     070BBAS  FM    ON      NM000R$  000000000014900000000001640000000000145000000000015000000000001640000000000000000000000000000028000000000000044400000000000006668400000000000220002013102100000010000000000000BRBBASACNOR3237
012013082278BBASJ23     070BBAS  FM    ON      NM000R$  000000000010300000000001160000000000103000000000010900000000001150000000000000000000000018500016000000000000027800000000000003046200000000000226602013102100000010000000000000BRBBASACNOR3235
012013082278BBASJ24     070BBAS  FM    ON      NM000R$  000000000006100000000000660000000000059000000000006200000000000650000000000060000000000000000074000000000000415500000000000025962400000000000237602013102100000010000000000000BRBBASACNOR3236
012013082278BBASJ25     070BBAS  FM    ON      NM000R$  000000000003200000000000320000000000028000000000003000000000000320000000000020000000000003400036000000000000027200000000000000832900000000000250002013102100000010000000000000BRBBASACNOR3237
012013082278BBASJ26     070BBAS        ON      NM000R$  000000000001800000000000200000000000017000000000001700000000000200000000000014000000000002800008000000000000026400000000000000466000000000000256602013102100000010000000000000BRBBASACNOR3235
012013082278BBASK24     070BBAS        ON      NM000R$  000000000007800000000000780000000000076000000000007700000000000760000000000064000000000009100005000000000000009500000000000000734000000000000240002013111800000010000000000000BRBBASACNOR3237
012013082278BBASK27     070BBAS        ON      NM000R$  000000000002100000000000210000000000021000000000002100000000000210000000000010000000000000000001000000000000000100000000000000002100000000000267602013111800000010000000000000BRBBASACNOR3236
012013082278BBASL24     070BBAS        ON      NM000R$  000000000010500000000001060000000000105000000000010500000000001060000000000073000000000013100009000000000000020800000000000002197100000000000240002013121600000010000000000000BRBBASACNOR3237
012013082278BBASL25     070BBAS        ON      NM000R$  000000000007800000000000790000000000078000000000007800000000000790000000000000000000000000000006000000000000016300000000000001278400000000000246602013121600000010000000000000BRBBASACNOR3235
012013082282BBASM20     080BBASE       ON      NM000R$  000000000004500000000000450000000000041000000000004100000000000410000000000000000000000000000003000000000000503000000000000021010000000000000200002014012000000010000000000000BRBBASACNOR3237
012013082282BBASM22     080BBASE       ON      NM000R$  000000000009100000000000910000000000091000000000009100000000000910000000000000000000000000000001000000000000500000000000000045500000000000000220002014012000000010000000000000BRBBASACNOR3237
012013082282BBASN23     080BBASE       ON      NM000R$  000000000014700000000001480000000000145000000000014600000000001480000000000000000000000000000003000000000000003600000000000000528000000000000230002014021700000010000000000000BRBBASACNOR3237
012013082282BBASU20     080BBASE       ON      NM000R$  000000000001100000000000110000000000011000000000001100000000000110000000000004000000000001100001000000000000000100000000000000001100000000000200002013091600000010000000000000BRBBASACNOR3237
012013082282BBASU21     080BBASE FM    ON      NM000R$  000000000002200000000000220000000000022000000000002200000000000220000000000000000000000000000002000000000000002400000000000000052800000000000210002013091600000010000000000000BRBBASACNOR3237
012013082282BBASU22     080BBASE FM    ON      NM000R$  000000000003800000000000390000000000027000000000003200000000000290000000000025000000000002900023000000000000068000000000000002224500000000000217602013091600000010000000000000BRBBASACNOR3236
012013082282BBASU23     080BBASE FM    ON      NM000R$  000000000008000000000000800000000000062000000000007000000000000620000000000050000000000007200025000000000000039300000000000002767900000000000227602013091600000010000000000000BRBBASACNOR3236
012013082282BBASU24     080BBASE FM    ON      NM000R$  000000000014200000000001420000000000122000000000013200000000001220000000000000000000000028000035000000000000060200000000000007991700000000000237602013091600000010000000000000BRBBASACNOR3236
012013082282BBASU25     080BBASE       ON      NM000R$  000000000019100000000001910000000000191000000000019100000000001910000000000000000000000000000001000000000000002000000000000000382000000000000246602013091600000010000000000000BRBBASACNOR3235
012013082282BBASU51     080BBASE       ON      NM000R$  000000000001400000000000140000000000014000000000001400000000000140000000000000000000000000000002000000000000002400000000000000033600000000000205002013091600000010000000000000BRBBASACNOR3237
012013082282BBASU52     080BBASE       ON      NM000R$  000000000006800000000000680000000000068000000000006800000000000680000000000000000000000000000001000000000000002700000000000000183600000000000225002013091600000010000000000000BRBBASACNOR3237
012013082282BBASU61     080BBASE       ON      NM000R$  000000000005600000000000560000000000056000000000005600000000000560000000000000000000000000000001000000000000004000000000000000224000000000000222502013091600000010000000000000BRBBASACNOR3237
012013082282BBASV21     080BBASE FM    ON      NM000R$  000000000003900000000000390000000000039000000000003900000000000390000000000034000000000000000003000000000000004100000000000000159900000000000210002013102100000010000000000000BRBBASACNOR3237
012013082282BBASV22     080BBASE FM    ON      NM000R$  000000000007600000000000760000000000066000000000006900000000000660000000000048000000000000000012000000000000021800000000000001510200000000000220002013102100000010000000000000BRBBASACNOR3237
012013082282BBASV23     080BBASE FM    ON      NM000R$  000000000010400000000001040000000000091000000000009500000000000910000000000000000000000000000024000000000000037100000000000003555600000000000226602013102100000010000000000000BRBBASACNOR3235
012013082282BBASV24     080BBASE FM    ON      NM000R$  000000000016600000000001660000000000150000000000015200000000001510000000000000000000000000000020000000000000040400000000000006178600000000000237602013102100000010000000000000BRBBASACNOR3236
012013082282BBASV53     080BBASE       ON      NM000R$  000000000013000000000001300000000000130000000000013000000000001300000000000000000000000000000001000000000000004000000000000000520000000000000231602013102100000010000000000000BRBBASACNOR3235
012013082282BBASW19     080BBASE       ON      NM000R$  000000000002300000000000230000000000023000000000002300000000000230000000000000000000000000000001000000000000001200000000000000027600000000000190002013111800000010000000000000BRBBASACNOR3237
012013082282BBASW20     080BBASE       ON      NM000R$  000000000004000000000000400000000000040000000000004000000000000400000000000000000000000000000001000000000000003000000000000000120000000000000200002013111800000010000000000000BRBBASACNOR3237
012013082282BBASW22     080BBASE       ON      NM000R$  000000000009400000000000940000000000094000000000009400000000000940000000000000000000000000000001000000000000003000000000000000282000000000000220002013111800000010000000000000BRBBASACNOR3237
012013082282BBASW23     080BBASE       ON      NM000R$  000000000013700000000001370000000000137000000000013700000000001370000000000000000000000000000001000000000000003000000000000000411000000000000230002013111800000010000000000000BRBBASACNOR3237
012013082282BBASW24     080BBASE       ON      NM000R$  000000000019600000000001960000000000196000000000019600000000001960000000000000000000000000000001000000000000003000000000000000588000000000000240002013111800000010000000000000BRBBASACNOR3237
012013082282BBASW25     080BBASE       ON      NM000R$  000000000024800000000002480000000000248000000000024800000000002480000000000000000000000000000001000000000000002800000000000000694400000000000247602013111800000010000000000000BRBBASACNOR3236
012013082282BBASW53     080BBASE       ON      NM000R$  000000000011000000000001100000000000110000000000011000000000001100000000000000000000000000000001000000000000003000000000000000330000000000000224202013111800000010000000000000BRBBASACNOR3232
012013082282BBASX20     080BBASE       ON      NM000R$  000000000004000000000000400000000000040000000000004000000000000400000000000000000000000000000001000000000000001000000000000000040000000000000200002013121600000010000000000000BRBBASACNOR3237
012013082282BBASX23     080BBASE       ON      NM000R$  000000000013200000000001320000000000132000000000013200000000001320000000000000000000000000000001000000000000001200000000000000158400000000000230002013121600000010000000000000BRBBASACNOR3237
012013082202BBDC3       010BRADESCO    ON      N1   R$  000000000309800000000031190000000003049000000000308100000000030700000000003070000000000307804657000000000001116800000000003441151600000000000000009999123100000010000000000000BRBBDCACNOR1605
012013082296BBDC3F      020BRADESCO    ON      N1   R$  000000000309000000000031090000000003038000000000307700000000030800000000003080000000000314100035000000000000000826000000000002542136000000000000009999123100000010000000000000BRBBDCACNOR1605
012013082262BBDC3T      030BRADESCO    ON      N1032R$  000000000313100000000031320000000003103000000000311900000000031040000000000000000000000000000006000000000000008500000000000026519361000000000000009999123100000010000000000000BRBBDCACNOR1605
012013082202BBDC4       010BRADESCO    PN      N1   R$  000000000280000000000028050000000002741000000000276600000000027500000000002749000000000275021086000000000007748300000000021437323300000000000000009999123100000010000000000000BRBBDCACNPR8605
012013082296BBDC4F      020BRADESCO    PN      N1   R$  000000000276500000000028000000000002726000000000276700000000027500000000002745000000000275000272000000000000007042000000000019486882000000000000009999123100000010000000000000BRBBDCACNPR8605
012013082262BBDC4T      030BRADESCO    PN      N1018R$  000000000276900000000027700000000002762000000000276500000000027630000000000000000000000000000006000000000000011000000000000030420823000000000000009999123100000010000000000000BRBBDCACNPR8605
012013082262BBDC4T      030BRADESCO    PN      N1032R$  000000000277500000000027760000000002775000000000277500000000027760000000000000000000000000000002000000000000005000000000000013876460000000000000009999123100000010000000000000BRBBDCACNPR8605
012013082262BBDC4T      030BRADESCO    PN      N1060R$  000000000281900000000028200000000002800000000000280500000000028010000000000000000000000000000004000000000000007000000000000019641807000000000000009999123100000010000000000000BRBBDCACNPR8605
012013082262BBDC4T      030BRADESCO    PN      N1120R$  000000000285100000000028600000000002850000000000285500000000028600000000000000000000000000000014000000000000050000000000000142756808000000000000009999123100000010000000000000BRBBDCACNPR8605
012013082278BBDCI26     070BBDC        PN      N1000R$  000000000019000000000001900000000000190000000000019000000000001900000000000172000000000034000002000000000000004000000000000000760000000000000259802013091600000010000000000000BRBBDCACNPR8604
012013082278BBDCI27     070BBDC        PN      N1000R$  000000000015500000000001590000000000122000000000014500000000001300000000000033000000000015300152000000000000153300000000000022313700000000000267802013091600000010000000000000BRBBDCACNPR8602
012013082278BBDCI28     070BBDC        PN      N1000R$  000000000009000000000000900000000000067000000000008100000000000670000000000066000000000007500325000000000000585700000000000047997700000000000277802013091600000010000000000000BRBBDCACNPR8602
012013082278BBDCI29     070BBDC        PN      N1000R$  000000000004500000000000470000000000030000000000003800000000000340000000000033000000000003400175000000000000481500000000000018628900000000000287802013091600000010000000000000BRBBDCACNPR8602
012013082278BBDCI30     070BBDC        PN      N1000R$  000000000001900000000000190000000000013000000000001500000000000140000000000013000000000001600159000000000000068800000000000001033700000000000297802013091600000010000000000000BRBBDCACNPR8602
012013082278BBDCI31     070BBDC        PN      N1000R$  000000000012100000000001210000000000112000000000011600000000001150000000000000000000000000000007000000000000016400000000000001911300000000000272902013091600000010000000000000BRBBDCACNPR8590
012013082278BBDCI32     070BBDC        PN      N1000R$  000000000000300000000000030000000000003000000000000300000000000030000000000002000000000000400007000000000000011000000000000000033000000000000317802013091600000010000000000000BRBBDCACNPR8602
012013082278BBDCI33     070BBDC        PN      N1000R$  000000000001600000000000170000000000015000000000001500000000000150000000000014000000000000000006000000000000006000000000000000094500000000000297202013091600000010000000000000BRBBDCACNPR8598
012013082278BBDCI58     070BBDC        PN      N1000R$  000000000005600000000000560000000000036000000000004800000000000360000000000000000000000000000004000000000000008700000000000000418700000000000285002013091600000010000000000000BRBBDCACNPR8605
012013082278BBDCI81     070BBDC        PN      N1000R$  000000000000700000000000070000000000007000000000000700000000000070000000000007000000000001000025000000000000052400000000000000366800000000000307802013091600000010000000000000BRBBDCACNPR8602
012013082278BBDCJ27     070BBDC        PN      N1000R$  000000000020800000000002140000000000184000000000020700000000001970000000000000000000000000000033000000000000056900000000000011800500000000000267802013102100000010000000000000BRBBDCACNPR8602
012013082278BBDCJ29     070BBDC        PN      N1000R$  000000000009400000000001010000000000080000000000009500000000000870000000000000000000000010000022000000000000048200000000000004593200000000000287802013102100000010000000000000BRBBDCACNPR8602
012013082278BBDCJ30     070BBDC        PN      N1000R$  000000000006000000000000630000000000050000000000005700000000000520000000000000000000000005700037000000000000060000000000000003477600000000000297802013102100000010000000000000BRBBDCACNPR8602
012013082278BBDCJ31     070BBDC        PN      N1000R$  000000000003700000000000370000000000030000000000003500000000000320000000000011000000000003800012000000000000020100000000000000723500000000000307802013102100000010000000000000BRBBDCACNPR8602
012013082278BBDCJ32     070BBDC        PN      N1000R$  000000000002100000000000210000000000018000000000001800000000000180000000000018000000000002900005000000000000035500000000000000657900000000000317802013102100000010000000000000BRBBDCACNPR8602
012013082278BBDCJ34     070BBDC        PN      N1000R$  000000000000700000000000070000000000007000000000000700000000000070000000000000000000000000000002000000000000000200000000000000001400000000000337402013102100000010000000000000BRBBDCACNPR8600
012013082278BBDCJ58     070BBDC        PN      N1000R$  000000000013200000000001400000000000113000000000013200000000001230000000000000000000000000000038000000000000077200000000000010200400000000000280002013102100000010000000000000BRBBDCACNPR8605
012013082278BBDCK27     070BBDC        PN      N1000R$  000000000022700000000002270000000000227000000000022700000000002270000000000000000000000000000001000000000000003000000000000000681000000000000269602013111800000010000000000000BRBBDCACNPR8603
012013082278BBDCK30     070BBDC        PN      N1000R$  000000000007900000000000790000000000079000000000007900000000000790000000000000000000000000000001000000000000002500000000000000197500000000000300002013111800000010000000000000BRBBDCACNPR8605
012013082278BBDCK33     070BBDC        PN      N1000R$  000000000002700000000000270000000000027000000000002700000000000270000000000000000000000000000001000000000000003000000000000000081000000000000327802013111800000010000000000000BRBBDCACNPR8602
012013082278BBDCL28     070BBDC        PN      N1000R$  000000000019900000000001990000000000199000000000019900000000001990000000000000000000000000000001000000000000001200000000000000238800000000000279802013121600000010000000000000BRBBDCACNPR8604
012013082278BBDCL29     070BBDC        PN      N1000R$  000000000015900000000001590000000000141000000000014200000000001410000000000130000000000023100005000000000000501200000000000071290800000000000287802013121600000010000000000000BRBBDCACNPR8602
012013082278BBDCL31     070BBDC        PN      N1000R$  000000000020500000000002050000000000205000000000020500000000002050000000000000000000000000000001000000000000001200000000000000246000000000000278802013121600000010000000000000BRBBDCACNPR8597
012013082282BBDCU26     080BBDCE       PN      N1000R$  000000000002000000000000230000000000018000000000002000000000000230000000000000000000000000000011000000000000018800000000000000392500000000000259802013091600000010000000000000BRBBDCACNPR8604
012013082282BBDCU27     080BBDCE       PN      N1000R$  000000000003500000000000410000000000035000000000003800000000000410000000000018000000000000000002000000000000003200000000000000124000000000000267802013091600000010000000000000BRBBDCACNPR8602
012013082282BBDCU28     080BBDCE       PN      N1000R$  000000000007100000000000860000000000065000000000007200000000000800000000000060000000000000000020000000000000038300000000000002789200000000000277802013091600000010000000000000BRBBDCACNPR8602
012013082282BBDCU29     080BBDCE       PN      N1000R$  000000000011900000000001510000000000117000000000012700000000001400000000000000000000000000000092000000000000131500000000000016777400000000000287802013091600000010000000000000BRBBDCACNPR8602
012013082282BBDCU30     080BBDCE       PN      N1000R$  000000000019300000000002030000000000192000000000019500000000001950000000000000000000000000000015000000000000030000000000000005858000000000000297802013091600000010000000000000BRBBDCACNPR8602
012013082282BBDCU31     080BBDCE       PN      N1000R$  000000000004700000000000560000000000047000000000004900000000000560000000000000000000000000000003000000000000004000000000000000197000000000000272902013091600000010000000000000BRBBDCACNPR8590
012013082282BBDCU33     080BBDCE       PN      N1000R$  000000000018800000000001920000000000186000000000018800000000001920000000000000000000000000000004000000000000008000000000000001506000000000000297202013091600000010000000000000BRBBDCACNPR8598
012013082282BBDCU58     080BBDCE       PN      N1000R$  000000000010400000000001270000000000103000000000011600000000001170000000000000000000000000000009000000000000014100000000000001648200000000000285002013091600000010000000000000BRBBDCACNPR8605
012013082282BBDCU75     080BBDCE       PN      N1000R$  000000000008600000000001000000000000084000000000008900000000001000000000000000000000000000000012000000000000019700000000000001756300000000000282302013091600000010000000000000BRBBDCACNPR8604
012013082282BBDCV1      080BBDCE       PN      N1000R$  000000000034200000000003420000000000342000000000034200000000003420000000000000000000000000000001000000000000002000000000000000684000000000000314602013102100000010000000000000BRBBDCACNPR8603
012013082282BBDCV22     080BBDCE       PN      N1000R$  000000000000800000000000080000000000008000000000000800000000000080000000000000000000000000000009000000000000015000000000000000120000000000000220002013102100000010000000000000BRBBDCACNPR8605
012013082282BBDCV23     080BBDCE       PN      N1000R$  000000000001300000000000130000000000013000000000001300000000000130000000000000000000000000000002000000000000004000000000000000052000000000000230002013102100000010000000000000BRBBDCACNPR8605
012013082282BBDCV24     080BBDCE       PN      N1000R$  000000000002000000000000200000000000020000000000002000000000000200000000000000000000000000000002000000000000003000000000000000060000000000000239802013102100000010000000000000BRBBDCACNPR8604
012013082282BBDCV25     080BBDCE       PN      N1000R$  000000000003000000000000310000000000028000000000002900000000000300000000000000000000000000000004000000000000008200000000000000242000000000000249602013102100000010000000000000BRBBDCACNPR8603
012013082282BBDCV26     080BBDCE       PN      N1000R$  000000000005100000000000560000000000051000000000005400000000000560000000000000000000000000000002000000000000003300000000000000178800000000000259802013102100000010000000000000BRBBDCACNPR8604
012013082282BBDCV27     080BBDCE       PN      N1000R$  000000000006800000000000810000000000067000000000007300000000000790000000000000000000000000000012000000000000023300000000000001703900000000000267802013102100000010000000000000BRBBDCACNPR8602
012013082282BBDCV28     080BBDCE       PN      N1000R$  000000000002600000000000290000000000026000000000002600000000000290000000000000000000000000000003000000000000003400000000000000089000000000000245802013102100000010000000000000BRBBDCACNPR8591
012013082282BBDCV29     080BBDCE       PN      N1000R$  000000000015300000000001780000000000150000000000016000000000001700000000000000000000000000000052000000000000103900000000000016674000000000000287802013102100000010000000000000BRBBDCACNPR8602
012013082282BBDCV30     080BBDCE       PN      N1000R$  000000000021300000000002410000000000212000000000022700000000002320000000000000000000000000000022000000000000040000000000000009093300000000000297802013102100000010000000000000BRBBDCACNPR8602
012013082282BBDCV31     080BBDCE       PN      N1000R$  000000000028800000000003140000000000288000000000030100000000003140000000000000000000000000000002000000000000004000000000000001204000000000000307802013102100000010000000000000BRBBDCACNPR8602
012013082282BBDCV58     080BBDCE       PN      N1000R$  000000000011300000000001320000000000112000000000011900000000001290000000000000000000000000000026000000000000047600000000000005689000000000000280002013102100000010000000000000BRBBDCACNPR8605
012013082282BBDCW23     080BBDCE       PN      N1000R$  000000000002300000000000230000000000023000000000002300000000000230000000000000000000000000000009000000000000010000000000000000230000000000000230002013111800000010000000000000BRBBDCACNPR8605
012013082282BBDCW24     080BBDCE       PN      N1000R$  000000000003200000000000320000000000032000000000003200000000000320000000000000000000000000000003000000000000004000000000000000128000000000000240002013111800000010000000000000BRBBDCACNPR8605
012013082282BBDCW25     080BBDCE       PN      N1000R$  000000000004600000000000460000000000046000000000004600000000000460000000000000000000000000000001000000000000002000000000000000092000000000000249802013111800000010000000000000BRBBDCACNPR8604
012013082282BBDCW8      080BBDCE       PN      N1000R$  000000000004000000000000400000000000037000000000003900000000000370000000000000000000000000000004000000000000005200000000000000204400000000000246002013111800000010000000000000BRBBDCACNPR8592
012013082212BBFI11B     010FII BB PROGRCI      MB   R$  000000042899900000004289990000000428997000000042899800000004289970000000420001000000042880000002000000000000000011000000000004718987000000000000009999123100000010000000000000BRBBFICTF006197
012013082212BBPO11      010FII BB PRGIICI           R$  000000001091500000000110990000000010915000000001096000000000109500000000010950000000001109000145000000000000023340000000000255824530000000000000009999123100000010000000000000BRBBPOCTF003109
012013082212BBRC11      010FII BB CORP CI           R$  000000000920500000000092400000000009201000000000922900000000092400000000009240000000000926000006000000000000000210000000000001938232000000000000009999123100000010000000000000BRBBRCCTF004123
012013082202BBRK3       010BR BROKERS  ON      NM   R$  000000000053200000000005380000000000508000000000051900000000005300000000000530000000000053104436000000000001311800000000000681542300000000000000009999123100000010000000000000BRBBRKACNOR4108
012013082296BBRK3F      020BR BROKERS  ON      NM   R$  000000000051400000000005210000000000506000000000051100000000005060000000000506000000000060600006000000000000000259000000000000132440000000000000009999123100000010000000000000BRBBRKACNOR4108
012013082202BBSE3       010BBSEGURIDADEON  ED  NM   R$  000000000184100000000018720000000001831000000000185500000000018720000000001872000000000187307062000000000002313000000000004292089600000000000000009999123100000010000000000000BRBBSEACNOR5101
012013082296BBSE3F      020BBSEGURIDADEON  ED  NM   R$  000000000183000000000018680000000001830000000000184900000000018500000000001850000000000186700198000000000000006362000000000011765102000000000000009999123100000010000000000000BRBBSEACNOR5101
012013082262BBSE3T      030BBSEGURIDADEON  ED  NM032R$  000000000186700000000018680000000001867000000000186700000000018680000000000000000000000000000002000000000000003000000000000005603955000000000000009999123100000010000000000000BRBBSEACNOR5101
012013082278BBSEI48     070BBSE    /EDRON      NM000R$  000000000003600000000000370000000000036000000000003600000000000370000000000000000000000000000002000000000000018000000000000000657000000000000185002013091600000010000000000000BRBBSEACNOR5101
012013082278BBSEI58     070BBSE    /EDRON      NM000R$  000000000004700000000000480000000000047000000000004700000000000470000000000000000000000000000007000000000000031000000000000001459000000000000180002013091600000010000000000000BRBBSEACNOR5101
012013082202BBTG11      010BTG PACTUAL UNT          R$  000000000278400000000028090000000002750000000000279700000000027910000000002790000000000279100745000000000000673300000000001883289400000000000000009999123100000010000000000000BRBBTGUNT007105
012013082296BBTG11F     020BTG PACTUAL UNT          R$  000000000278000000000028030000000002777000000000278400000000027900000000002719000000000281400015000000000000000467000000000001300291000000000000009999123100000010000000000000BRBBTGUNT007105
012013082212BBVJ11      010FII C JARDIMCI           R$  000000000786600000000079740000000007866000000000788600000000079000000000007880000000000790000014000000000000000526000000000004148430000000000000009999123100000010000000000000BRBBVJCTF001132
012013082212BCFF11B     010FII BC FFII CI      MB   R$  000000000955100000000096000000000009550000000000956000000000095550000000009555000000000957000035000000000000002477000000000023680426000000000000009999123100000010000000000000BRBCFFCTF000141
012013082202BEEF3       010MINERVA     ON      NM   R$  000000000111700000000011170000000001080000000000109700000000011100000000001110000000000111102899000000000000805600000000000884429000000000000000009999123100000010000000000000BRBEEFACNOR6104
012013082296BEEF3F      020MINERVA     ON      NM   R$  000000000110000000000011030000000001100000000000110100000000011030000000001077000000000112200003000000000000000105000000000000115695000000000000009999123100000010000000000000BRBEEFACNOR6104
012013082202BEES3       010BANESTES    ON           R$  000000000004700000000000470000000000046000000000004600000000000460000000000046000000000004800016000000000000122800000000000005654600000000000000009999123100000010000000000000BRBEESACNOR9243
012013082202BEES4       010BANESTES    PN           R$  000000000004200000000000420000000000042000000000004200000000000420000000000042000000000004400002000000000000001000000000000000042000000000000000009999123100000010000000000000BRBEESACNPR6168
012013082202BEMA3       010BEMATECH    ON      NM   R$  000000000070000000000007030000000000682000000000068900000000006980000000000696000000000069800410000000000000095500000000000065820300000000000000009999123100000010000000000000BRBEMAACNOR0114
012013082296BEMA3F      020BEMATECH    ON      NM   R$  000000000069400000000006950000000000694000000000069400000000006950000000000695000000000080000002000000000000000047000000000000032630000000000000009999123100000010000000000000BRBEMAACNOR0114
012013082202BHGR3       010BHG         ON      NM   R$  000000000131800000000013700000000001318000000000135500000000013550000000001355000000000136000122000000000000122100000000000165550400000000000000009999123100000010000000000000BRBHGRACNOR9101
012013082202BICB4       010BICBANCO    PN      N1   R$  000000000039500000000003980000000000385000000000039300000000003920000000000392000000000039500131000000000000117500000000000046240000000000000000009999123100000010000000000000BRBICBACNPR7131
012013082296BICB4F      020BICBANCO    PN      N1   R$  000000000039300000000004060000000000380000000000039200000000004060000000000363000000000040600010000000000000000252000000000000098928000000000000009999123100000010000000000000BRBICBACNPR7131
012013082262BICB4T      030BICBANCO    PN      N1180R$  000000000041600000000004170000000000416000000000041600000000004170000000000000000000000000000002000000000000025000000000000010415660000000000000009999123100000010000000000000BRBICBACNPR7131
012013082202BIOM4       010BIOMM       PN           R$  000000000081000000000008100000000000810000000000081000000000008100000000000786000000000089000001000000000000025000000000000020250000000000000000009999123100000010000000000000BRBIOMACNPR9101
012013082202BISA3       010BROOKFIELD  ON      NM   R$  000000000018000000000001810000000000173000000000017600000000001770000000000176000000000017703796000000000006183900000000001090326800000000000000009999123100000010000000000000BRBISAACNOR8109
012013082296BISA3F      020BROOKFIELD  ON      NM   R$  000000000017900000000001800000000000173000000000017700000000001730000000000173000000000018000017000000000000000536000000000000095078000000000000009999123100000010000000000000BRBISAACNOR8109
012013082262BISA3T      030BROOKFIELD  ON      NM060R$  000000000018200000000001830000000000182000000000018200000000001830000000000000000000000000000002000000000000020000000000000003648600000000000000009999123100000010000000000000BRBISAACNOR8109
012013082212BJRC11      010FII JS RECIMCI           R$  000000008500000000000850000000000085000000000008500000000000850000000000085000000000008980000001000000000000000029000000000002465000000000000000009999123100000010000000000000BRBJRCCTF007109
012013082202BMIN4       010MERC INVEST PN  EJ       R$  000000000002400000000000240000000000024000000000002400000000000240000000000024000000000002500002000000000000012000000000000000288000000000000000009999123100000010000000000000BRBMINACNPR1160
012013082296BMIN4F      020MERC INVEST PN  EJ       R$  000000000002300000000000230000000000023000000000002300000000000230000000000023000000000002700003000000000000000365000000000000008395000000000000009999123100000010000000000000BRBMINACNPR1160
012013082212BMLC11B     010FII BMBRC LCCI      MB   R$  000000001159000000000116000000000011590000000001159700000000116000000000011530000000001160000002000000000000000050000000000000579860000000000000009999123100000010000000000000BRBMLCCTF004118
012013082202BMTO3       010BRASMOTOR   ON           R$  000000000008200000000000820000000000082000000000008200000000000820000000000081000000000009500001000000000000001000000000000000082000000000000000009999123100000010000000000000BRBMTOACNOR9180
012013082202BMTO4       010BRASMOTOR   PN           R$  000000000008700000000000870000000000087000000000008700000000000870000000000084000000000008700001000000000000001000000000000000087000000000000000009999123100000010000000000000BRBMTOACNPR6065
012013082296BMTO4F      020BRASMOTOR   PN           R$  000000000008200000000000820000000000082000000000008200000000000820000000000082000000000008700001000000000000000543000000000000044526000000000000009999123100000010000000000000BRBMTOACNPR6065
012013082212BNFS11      010FII BANRISULCI           R$  000000000999800000000099980000000009998000000000999800000000099980000000009401000000001006200001000000000000000002000000000000019996000000000000009999123100000010000000000000BRBNFSCTF000111
012013082214BOVA11      010ISHARES BOVACI           R$  000000000500800000000050510000000004986000000000502100000000050420000000005023000000000504204299000000000001582510000000007947326580000000000000009999123100000010000000000000BRBOVACTF003101
012013082296BOVA11F     020ISHARES BOVACI           R$  000000000502500000000050500000000004965000000000502300000000050200000000004910000000000502000020000000000000000052000000000000261238000000000000009999123100000010000000000000BRBOVACTF003101
012013082212BPFF11      010FII ABSOLUTOCI           R$  000000000860000000000087000000000008600000000000868600000000086230000000008623000000000868000011000000000000000592000000000005142123000000000000009999123100000010000000000000BRBPFFCTF002104
012013082202BPHA3       010BR PHARMA   ON      NM   R$  000000000098300000000009840000000000960000000000096800000000009600000000000959000000000096001997000000000001140900000000001104836600000000000000009999123100000010000000000000BRBPHAACNOR6102
012013082296BPHA3F      020BR PHARMA   ON      NM   R$  000000000096100000000009750000000000961000000000096900000000009650000000000960000000000107000014000000000000000422000000000000409023000000000000009999123100000010000000000000BRBPHAACNOR6102
012013082202BPNM4       010PANAMERICANOPN      N1   R$  000000000053700000000005370000000000528000000000053300000000005340000000000528000000000053400047000000000000036400000000000019425700000000000000009999123100000010000000000000BRBPNMACNPR6111
012013082262BPNM4T      030PANAMERICANOPN      N1060R$  000000000054200000000005430000000000542000000000054200000000005430000000000000000000000000000002000000000000020000000000000010845520000000000000009999123100000010000000000000BRBPNMACNPR6111
012013082202BRAP3       010BRADESPAR   ON      N1   R$  000000000209500000000021100000000002072000000000208800000000020940000000002072000000000209500076000000000000035300000000000073729400000000000000009999123100000010000000000000BRBRAPACNOR5124
012013082296BRAP3F      020BRADESPAR   ON      N1   R$  000000000201500000000020300000000002015000000000201800000000020300000000002060000000000213000002000000000000000034000000000000068630000000000000009999123100000010000000000000BRBRAPACNOR5124
012013082202BRAP4       010BRADESPAR   PN      N1   R$  000000000254000000000026140000000002540000000000258100000000025900000000002590000000000259506956000000000001714500000000004425598100000000000000009999123100000010000000000000BRBRAPACNPR2124
012013082296BRAP4F      020BRADESPAR   PN      N1   R$  000000000256000000000026010000000002531000000000258100000000025310000000002531000000000259000039000000000000001350000000000003485299000000000000009999123100000010000000000000BRBRAPACNPR2124
012013082278BRAPI24     070BRAP        PN      N1000R$  000000000020500000000002050000000000205000000000020500000000002050000000000000000000000000000002000000000000020000000000000004100000000000000240002013091600000010000000000000BRBRAPACNPR2124
012013082214BRAX11      010ISHARES BRAXCI           R$  000000000400000000000040540000000004000000000000402500000000040490000000000000000000000404900007000000000000003600000000000014490800000000000000009999123100000010000000000000BRBRAXCTF002100
012013082212BRCR11      010FII BC FUND CI           R$  000000001259400000000126000000000012520000000001257400000000125600000000012560000000001259500498000000000000028620000000000359889990000000000000009999123100000010000000000000BRBRCRCTF000132
012013082202BRFS3       010BRF SA      ON      NM   R$  000000000549500000000054950000000005312000000000539600000000054000000000005390000000000540007093000000000004792300000000025861326800000000000000009999123100000010000000000000BRBRFSACNOR8110
012013082296BRFS3F      020BRF SA      ON      NM   R$  000000000546100000000054990000000005311000000000538700000000053920000000005336000000000538700128000000000000003686000000000019858666000000000000009999123100000010000000000000BRBRFSACNOR8110
012013082262BRFS3T      030BRF SA      ON      NM032R$  000000000541900000000054200000000005419000000000541900000000054200000000000000000000000000000004000000000000000400000000000002167710000000000000009999123100000010000000000000BRBRFSACNOR8110
012013082262BRFS3T      030BRF SA      ON      NM120R$  000000000551600000000055170000000005498000000000550700000000054990000000000000000000000000000004000000000000002000000000000011014889000000000000009999123100000010000000000000BRBRFSACNOR8110
012013082202BRGE3       010ALFA CONSORCON  EDJ      R$  000000000035100000000003510000000000351000000000035100000000003510000000000351000000000050000001000000000000000200000000000000070200000000000000009999123100000010000000000000BRBRGEACNOR6197
012013082202BRIN3       010BR INSURANCEON  ED  NM   R$  000000000191700000000019170000000001780000000000182300000000017900000000001790000000000180003072000000000001664500000000003035673600000000000000009999123100000010000000000000BRBRINACNOR3106
012013082296BRIN3F      020BR INSURANCEON  ED  NM   R$  000000000190400000000019040000000001801000000000182000000000018390000000001701000000000183900092000000000000000591000000000001075725000000000000009999123100000010000000000000BRBRINACNOR3106
012013082262BRIN3T      030BR INSURANCEON  ED  NM018R$  000000000183600000000018370000000001836000000000183600000000018370000000000000000000000000000002000000000000006000000000000011020031000000000000009999123100000010000000000000BRBRINACNOR3106
012013082202BRIV4       010ALFA INVEST PN  EJ       R$  000000000056000000000005750000000000554000000000056000000000005540000000000554000000000057700007000000000000002900000000000001626500000000000000009999123100000010000000000000BRBRIVACNPR3197
012013082296BRIV4F      020ALFA INVEST PN  EJ       R$  000000000053500000000005350000000000531000000000053300000000005310000000000531000000000058100003000000000000000074000000000000039442000000000000009999123100000010000000000000BRBRIVACNPR3197
012013082202BRKM3       010BRASKEM     ON      N1   R$  000000000122100000000012210000000001190000000000121700000000011900000000001189000000000122300017000000000000018000000000000021915300000000000000009999123100000010000000000000BRBRKMACNOR1110
012013082296BRKM3F      020BRASKEM     ON      N1   R$  000000000120000000000012000000000001200000000000120000000000012000000000001172000000000124900001000000000000000014000000000000016800000000000000009999123100000010000000000000BRBRKMACNOR1110
012013082262BRKM3T      030BRASKEM     ON      N1032R$  000000000123100000000012320000000001231000000000123100000000012320000000000000000000000000000002000000000000005000000000000006158724000000000000009999123100000010000000000000BRBRKMACNOR1110
012013082262BRKM3T      030BRASKEM     ON      N1091R$  000000000124900000000012500000000001249000000000124900000000012500000000000000000000000000000002000000000000010000000000000012499377000000000000009999123100000010000000000000BRBRKMACNOR1110
012013082202BRKM5       010BRASKEM     PNA     N1   R$  000000000177900000000017930000000001762000000000177700000000017820000000001775000000000178206521000000000001396700000000002482239500000000000000009999123100000010000000000000BRBRKMACNPA4110
012013082296BRKM5F      020BRASKEM     PNA     N1   R$  000000000176500000000017950000000001753000000000177700000000017700000000001770000000000178600075000000000000002299000000000004086599000000000000009999123100000010000000000000BRBRKMACNPA4110
012013082262BRKM5T      030BRASKEM     PNA     N1018R$  000000000178200000000017830000000001782000000000178200000000017830000000000000000000000000000002000000000000005000000000000008912275000000000000009999123100000010000000000000BRBRKMACNPA4110
012013082262BRKM5T      030BRASKEM     PNA     N1120R$  000000000182400000000018250000000001824000000000182400000000018250000000000000000000000000000002000000000000004500000000000008208754000000000000009999123100000010000000000000BRBRKMACNPA4110
012013082202BRML3       010BR MALLS PARON      NM   R$  000000000184500000000018550000000001794000000000181400000000018150000000001814000000000181506974000000000002748700000000004986964400000000000000009999123100000010000000000000BRBRMLACNOR9105
012013082296BRML3F      020BR MALLS PARON      NM   R$  000000000184500000000018550000000001799000000000181600000000018550000000001810000000000185500060000000000000001802000000000003273646000000000000009999123100000010000000000000BRBRMLACNOR9105
012013082262BRML3T      030BR MALLS PARON      NM030R$  000000000183900000000018400000000001839000000000183900000000018400000000000000000000000000000002000000000000000300000000000000551937000000000000009999123100000010000000000000BRBRMLACNOR9105
012013082202BRPR3       010BR PROPERT  ON      NM   R$  000000000178000000000018110000000001775000000000178900000000018000000000001793000000000180005945000000000002315000000000004141607200000000000000009999123100000010000000000000BRBRPRACNOR9112
012013082296BRPR3F      020BR PROPERT  ON      NM   R$  000000000178100000000018620000000001759000000000179000000000018620000000001800000000000186500022000000000000000543000000000000972856000000000000009999123100000010000000000000BRBRPRACNOR9112
012013082278BRPRB21     070BRPR        ON      NM000R$  000000000007000000000000700000000000070000000000007000000000000700000000000000000000000000000001000000000000159400000000000011158000000000000210002014021700000010000000000000BRBRPRACNOR9112
012013082282BRPRN45     080BRPRE       ON      NM000R$  000000000003000000000000300000000000030000000000003000000000000300000000000000000000000000000001000000000000159400000000000004782000000000000155002014021700000010000000000000BRBRPRACNOR9112
012013082282BRPRN47     080BRPRE       ON      NM000R$  000000000010200000000001030000000000102000000000010200000000001030000000000000000000000000000002000000000000159400000000000016338500000000000175002014021700000010000000000000BRBRPRACNOR9112
012013082202BRSR3       010BANRISUL    ON      N1   R$  000000000137900000000013790000000001350000000000135400000000013500000000001250000000000135000003000000000000000700000000000000947900000000000000009999123100000010000000000000BRBRSRACNOR3130
012013082202BRSR6       010BANRISUL    PNB     N1   R$  000000000135500000000013750000000001341000000000135900000000013580000000001353000000000135802442000000000001003700000000001365000200000000000000009999123100000010000000000000BRBRSRACNPB4133
012013082296BRSR6F      020BANRISUL    PNB     N1   R$  000000000135500000000014000000000001341000000000136000000000013790000000001340000000000137900032000000000000000998000000000001357367000000000000009999123100000010000000000000BRBRSRACNPB4133
012013082202BSEV3       010BIOSEV      ON      NM   R$  000000000087000000000008890000000000870000000000087400000000008700000000000868000000000089400043000000000000012300000000000010750600000000000000009999123100000010000000000000BRBSEVACNOR3100
012013082296BSEV3F      020BIOSEV      ON      NM   R$  000000000087000000000008700000000000870000000000087000000000008700000000000805000000000094400001000000000000000003000000000000002610000000000000009999123100000010000000000000BRBSEVACNOR3100
012013082202BTOW3       010B2W DIGITAL ON      NM   R$  000000000123700000000012650000000001202000000000123800000000012600000000001257000000000126000949000000000000398700000000000494153900000000000000009999123100000010000000000000BRBTOWACNOR8105
012013082296BTOW3F      020B2W DIGITAL ON      NM   R$  000000000122100000000012850000000001201000000000122700000000012830000000001185000000000128300014000000000000000522000000000000640864000000000000009999123100000010000000000000BRBTOWACNOR8105
012013082262BTOW3T      030B2W DIGITAL ON      NM032R$  000000000123900000000012400000000001233000000000123800000000012340000000000000000000000000000004000000000000003000000000000003715226000000000000009999123100000010000000000000BRBTOWACNOR8105
012013082262BTOW3T      030B2W DIGITAL ON      NM060R$  000000000127700000000012780000000001277000000000127700000000012780000000000000000000000000000002000000000000005000000000000006385050000000000000009999123100000010000000000000BRBTOWACNOR8105
012013082202BTTL3       010BATTISTELLA ON           R$  000000000008600000000000860000000000086000000000008600000000000860000000000084000000000008600002000000000000005000000000000000430000000000000000009999123100000010000000000000BRBTTLACNOR0105
012013082202BTTL4       010BATTISTELLA PN           R$  000000000010000000000001000000000000099000000000009900000000000990000000000099000000000010000004000000000000017000000000000001699000000000000000009999123100000010000000000000BRBTTLACNPR7105
012013082202BVMF3       010BMFBOVESPA  ON  ED  NM   R$  000000000115900000000011640000000001123000000000113500000000011400000000001135000000000114023505000000000013209200000000015003329600000000000000009999123100000010000000000000BRBVMFACNOR3126
012013082296BVMF3F      020BMFBOVESPA  ON  ED  NM   R$  000000000115200000000011610000000001123000000000114100000000011310000000001131000000000113600123000000000000003759000000000004288911000000000000009999123100000010000000000000BRBVMFACNOR3126
012013082262BVMF3T      030BMFBOVESPA  ON  ED  NM091R$  000000000116700000000011680000000001167000000000116700000000011680000000000000000000000000000002000000000000001000000000000001167338000000000000009999123100000010000000000000BRBVMFACNOR3126
012013082278BVMFI10     070BVMF    /ED ON      NM000R$  000000000016500000000001650000000000150000000000016300000000001560000000000152000000000017000016000000000000013200000000000002157400000000000098502013091600000010000000000000BRBVMFACNOR3125
012013082278BVMFI11     070BVMF  FM/ED ON      NM000R$  000000000008100000000000850000000000066000000000007400000000000750000000000075000000000007600203000000000000300300000000000022518800000000000108502013091600000010000000000000BRBVMFACNOR3125
012013082278BVMFI12     070BVMF  FM/ED ON      NM000R$  000000000002500000000000300000000000018000000000002200000000000230000000000020000000000002300239000000000000536700000000000012163000000000000118502013091600000010000000000000BRBVMFACNOR3125
012013082278BVMFI13     070BVMF  FM/ED ON      NM000R$  000000000000600000000000070000000000005000000000000500000000000060000000000006000000000000700051000000000000375100000000000002156000000000000128502013091600000010000000000000BRBVMFACNOR3125
012013082278BVMFI14     070BVMF    /ED ON      NM000R$  000000000000100000000000020000000000001000000000000100000000000020000000000001000000000000200010000000000000042000000000000000071700000000000138502013091600000010000000000000BRBVMFACNOR3125
012013082278BVMFI41     070BVMF  FM/ED ON      NM000R$  000000000005000000000000500000000000037000000000004400000000000400000000000037000000000004700006000000000000015100000000000000673900000000000113502013091600000010000000000000BRBVMFACNOR3125
012013082278BVMFI42     070BVMF  FM/ED ON      NM000R$  000000000001200000000000130000000000009000000000001100000000000100000000000000000000000001200077000000000000261900000000000002917700000000000123502013091600000010000000000000BRBVMFACNOR3125
012013082278BVMFI43     070BVMF    /ED ON      NM000R$  000000000000300000000000030000000000003000000000000300000000000030000000000000000000000000000001000000000000000600000000000000001800000000000133502013091600000010000000000000BRBVMFACNOR3125
012013082278BVMFJ11     070BVMF  FM/ED ON      NM000R$  000000000010100000000001090000000000095000000000009800000000000950000000000055000000000009900015000000000000034200000000000003355500000000000108502013102100000010000000000000BRBVMFACNOR3125
012013082278BVMFJ12     070BVMF  FM/ED ON      NM000R$  000000000004700000000000490000000000037000000000004300000000000400000000000010000000000004400047000000000000136000000000000005883400000000000118502013102100000010000000000000BRBVMFACNOR3125
012013082278BVMFJ13     070BVMF  FM/ED ON      NM000R$  000000000001700000000000170000000000011000000000001400000000000140000000000011000000000001500023000000000000258700000000000003665300000000000128502013102100000010000000000000BRBVMFACNOR3125
012013082278BVMFJ39     070BVMF    /ED ON      NM000R$  000000000021200000000002120000000000199000000000020600000000001990000000000000000000000000000005000000000000014000000000000002888000000000000095002013102100000010000000000000BRBVMFACNOR3126
012013082278BVMFJ41     070BVMF  FM/ED ON      NM000R$  000000000007500000000000750000000000058000000000007000000000000580000000000000000000000000000013000000000000039300000000000002775400000000000113502013102100000010000000000000BRBVMFACNOR3125
012013082278BVMFJ42     070BVMF  FM/ED ON      NM000R$  000000000003000000000000300000000000021000000000002300000000000250000000000000000000000000000016000000000000048700000000000001134100000000000123502013102100000010000000000000BRBVMFACNOR3125
012013082278BVMFJ43     070BVMF    /ED ON      NM000R$  000000000000900000000000090000000000009000000000000900000000000090000000000000000000000000000001000000000000000100000000000000000900000000000133502013102100000010000000000000BRBVMFACNOR3125
012013082278BVMFK13     070BVMF    /ED ON      NM000R$  000000000003000000000000300000000000030000000000003000000000000300000000000000000000000000000001000000000000003000000000000000090000000000000128502013111800000010000000000000BRBVMFACNOR3125
012013082282BVMFU10     080BVMFE   /ED ON      NM000R$  000000000000300000000000030000000000003000000000000300000000000030000000000001000000000001000002000000000000000200000000000000000600000000000098502013091600000010000000000000BRBVMFACNOR3125
012013082282BVMFU11     080BVMFE FM/ED ON      NM000R$  000000000001300000000000200000000000013000000000001500000000000180000000000013000000000002800055000000000000084800000000000001319900000000000108502013091600000010000000000000BRBVMFACNOR3125
012013082282BVMFU12     080BVMFE FM/ED ON      NM000R$  000000000005400000000000720000000000053000000000006000000000000650000000000000000000000008500060000000000000115800000000000006975500000000000118502013091600000010000000000000BRBVMFACNOR3125
012013082282BVMFU13     080BVMFE   /ED ON      NM000R$  000000000013100000000001600000000000131000000000013100000000001460000000000000000000000000000007000000000000012700000000000001675100000000000128502013091600000010000000000000BRBVMFACNOR3125
012013082282BVMFU40     080BVMFE FM/ED ON      NM000R$  000000000000700000000000080000000000007000000000000700000000000080000000000005000000000001800008000000000000017900000000000000138200000000000103502013091600000010000000000000BRBVMFACNOR3125
012013082282BVMFU41     080BVMFE FM/ED ON      NM000R$  000000000003000000000000410000000000028000000000003300000000000390000000000000000000000000000026000000000000102500000000000003397500000000000113502013091600000010000000000000BRBVMFACNOR3125
012013082282BVMFU42     080BVMFE   /ED ON      NM000R$  000000000009300000000000940000000000093000000000009300000000000930000000000000000000000000000003000000000000015400000000000001437500000000000123502013091600000010000000000000BRBVMFACNOR3125
012013082282BVMFV10     080BVMFE   /ED ON      NM000R$  000000000001100000000000110000000000011000000000001100000000000110000000000000000000000000000001000000000000006500000000000000071500000000000098502013102100000010000000000000BRBVMFACNOR3125
012013082282BVMFV11     080BVMFE FM/ED ON      NM000R$  000000000003000000000000360000000000030000000000003400000000000330000000000000000000000003600007000000000000013500000000000000459300000000000108502013102100000010000000000000BRBVMFACNOR3125
012013082282BVMFV12     080BVMFE FM/ED ON      NM000R$  000000000007000000000000820000000000068000000000007400000000000770000000000066000000000008800011000000000000026300000000000001947700000000000118502013102100000010000000000000BRBVMFACNOR3125
012013082282BVMFV39     080BVMFE   /ED ON      NM000R$  000000000000800000000000080000000000008000000000000800000000000080000000000000000000000000000001000000000000000100000000000000000800000000000095002013102100000010000000000000BRBVMFACNOR3126
012013082282BVMFV40     080BVMFE FM/ED ON      NM000R$  000000000001900000000000190000000000019000000000001900000000000190000000000000000000000000000001000000000000000100000000000000001900000000000103502013102100000010000000000000BRBVMFACNOR3125
012013082282BVMFV41     080BVMFE FM/ED ON      NM000R$  000000000004700000000000550000000000047000000000005400000000000550000000000000000000000008000002000000000000003600000000000000197200000000000113502013102100000010000000000000BRBVMFACNOR3125
012013082282BVMFX10     080BVMFE   /ED ON      NM000R$  000000000002600000000000260000000000026000000000002600000000000260000000000000000000000000000001000000000000000100000000000000002600000000000098502013121600000010000000000000BRBVMFACNOR3125
012013082282BVMFX11     080BVMFE   /ED ON      NM000R$  000000000004300000000000500000000000043000000000004700000000000500000000000000000000000005500002000000000000000300000000000000014300000000000108502013121600000010000000000000BRBVMFACNOR3125
012013082202CAMB4       010CAMBUCI     PN           R$  000000000018400000000001840000000000183000000000018300000000001830000000000182000000000018500002000000000000002200000000000000403700000000000000009999123100000010000000000000BRCAMBACNPR1117
012013082296CAMB4F      020CAMBUCI     PN           R$  000000000017000000000001700000000000165000000000016700000000001650000000000100000000000025000002000000000000000002000000000000000335000000000000009999123100000010000000000000BRCAMBACNPR1117
012013082202CARD3       010CSU CARDSYSTON      NM   R$  000000000032900000000003290000000000320000000000032400000000003290000000000322000000000032900017000000000000005300000000000001722400000000000000009999123100000010000000000000BRCARDACNOR9105
012013082296CARD3F      020CSU CARDSYSTON      NM   R$  000000000032000000000003240000000000320000000000032200000000003240000000000309000000000032400002000000000000000100000000000000032220000000000000009999123100000010000000000000BRCARDACNOR9105
012013082202CBEE3       010AMPLA ENERG ON *         R$  000000000013300000000001330000000000133000000000013300000000001330000000000130000000000013500001000000000002000000000000000000266000000000000000009999123100010000000000000000BRCBEEACNOR3149
012013082296CBEE3F      020AMPLA ENERG ON *         R$  000000000013000000000001300000000000130000000000013000000000001300000000000130000000000014900001000000000000007378000000000000000959000000000000009999123100010000000000000000BRCBEEACNOR3149
012013082202CBMA3       010COBRASMA    ON           R$  000000000000500000000000050000000000005000000000000500000000000050000000000004000000000000500004000000000000040000000000000000200000000000000000009999123100000010000000000000BRCBMAACNOR4124
012013082296CBMA3F      020COBRASMA    ON           R$  000000000000500000000000050000000000005000000000000500000000000050000000000005000000000000600004000000000000010001000000000000050005000000000000009999123100000010000000000000BRCBMAACNOR4124
012013082202CBMA4       010COBRASMA    PN           R$  000000000000400000000000040000000000004000000000000400000000000040000000000004000000000000500005000000000000070000000000000000280000000000000000009999123100000010000000000000BRCBMAACNPR1124
012013082296CBMA4F      020COBRASMA    PN           R$  000000000000400000000000040000000000004000000000000400000000000040000000000003000000000000400008000000000000018599000000000000074396000000000000009999123100000010000000000000BRCBMAACNPR1124
012013082208CCHI3       010CHIARELLI   ON           R$  000000000003100000000000400000000000030000000000003600000000000400000000000039000000000004100050000000000000740000000000000026880000000000000000009999123100000010000000000000BRCCHIACNOR5123
012013082296CCHI3F      020CHIARELLI   ON           R$  000000000003000000000000440000000000030000000000003600000000000440000000000037000000000004400020000000000000051103000000000001859553000000000000009999123100000010000000000000BRCCHIACNOR5123
012013082208CCHI4       010CHIARELLI   PN           R$  000000000002400000000000280000000000024000000000002600000000000280000000000026000000000002800011000000000000160000000000000004200000000000000000009999123100000010000000000000BRCCHIACNPR2122
012013082296CCHI4F      020CHIARELLI   PN           R$  000000000002300000000000260000000000023000000000002400000000000260000000000026000000000003000010000000000000025256000000000000627876000000000000009999123100000010000000000000BRCCHIACNPR2122
012013082202CCPR3       010CYRE COM-CCPON      NM   R$  000000000220200000000022050000000002200000000000220100000000022000000000002200000000000224800004000000000000000600000000000001320900000000000000009999123100000010000000000000BRCCPRACNOR9107
012013082202CCRO3       010CCR SA      ON      NM   R$  000000000170100000000017230000000001682000000000170700000000017050000000001705000000000171010847000000000004013700000000006853795700000000000000009999123100000010000000000000BRCCROACNOR2122
012013082296CCRO3F      020CCR SA      ON      NM   R$  000000000169500000000017270000000001681000000000170700000000016900000000001680000000000169000059000000000000001635000000000002790613000000000000009999123100000010000000000000BRCCROACNOR2122
012013082278CCROI18     070CCRO        ON      NM000R$  000000000001200000000000120000000000012000000000001200000000000120000000000000000000000000000001000000000000011000000000000000132000000000000180002013091600000010000000000000BRCCROACNOR2122
012013082202CCXC3       010CCX CARVAO  ON      NM   R$  000000000016900000000001690000000000137000000000015300000000001450000000000145000000000014604348000000000026569900000000004078491400000000000000009999123100000010000000000000BRCCXCACNOR5100
012013082296CCXC3F      020CCX CARVAO  ON      NM   R$  000000000016000000000001710000000000135000000000015300000000001550000000000146000000000015400058000000000000001667000000000000256288000000000000009999123100000010000000000000BRCCXCACNOR5100
012013082262CCXC3T      030CCX CARVAO  ON      NM018R$  000000000016900000000001700000000000169000000000016900000000001700000000000000000000000000000004000000000000071100000000000012064917000000000000009999123100000010000000000000BRCCXCACNOR5100
012013082262CCXC3T      030CCX CARVAO  ON      NM060R$  000000000014700000000001480000000000147000000000014700000000001480000000000000000000000000000002000000000000005000000000000000739709000000000000009999123100000010000000000000BRCCXCACNOR5100
012013082202CEDO3       010CEDRO       ON      N1   R$  000000000101000000000010100000000001010000000000101000000000010100000000000960000000000101000002000000000000001100000000000001111000000000000000009999123100000010000000000000BRCEDOACNOR8094
012013082202CEDO4       010CEDRO       PN      N1   R$  000000000090000000000009000000000000900000000000090000000000009000000000000890000000000093500001000000000000001000000000000000900000000000000000009999123100000010000000000000BRCEDOACNPR5126
012013082202CEEB3       010COELBA      ON           R$  000000000325000000000035000000000003250000000000330600000000035000000000003450000000000350000004000000000000000800000000000002645000000000000000009999123100000010000000000000BRCEEBACNOR3163
012013082296CEEB3F      020COELBA      ON           R$  000000000349900000000035000000000003499000000000349900000000035000000000003250000000000350000002000000000000000008000000000000027999000000000000009999123100000010000000000000BRCEEBACNOR3163
012013082208CELP3       010CELPA       ON           R$  000000000006300000000000650000000000063000000000006300000000000650000000000065000000000006700013000000000000071100000000000004535500000000000000009999123100000010000000000000BRCELPACNOR8112
012013082208CELP5       010CELPA       PNA          R$  000000000007700000000000770000000000077000000000007700000000000770000000000056000000000007800002000000000000000200000000000000015400000000000000009999123100000010000000000000BRCELPACNPA1114
012013082212CEOC11B     010FII CEO CCP CI      MB   R$  000000000909800000000091130000000008900000000000898600000000089500000000008802000000000895000032000000000000002073000000000018629748000000000000009999123100000010000000000000BRCEOCCTF003109
012013082202CESP3       010CESP        ON  EJ  N1   R$  000000000172000000000017200000000001718000000000171900000000017190000000001680000000000172000003000000000000003200000000000005500800000000000000009999123100000010000000000000BRCESPACNOR3160
012013082262CESP3T      030CESP        ON  EJ  N1060R$  000000000174600000000017470000000001746000000000174600000000017470000000000000000000000000000002000000000000003000000000000005238481000000000000009999123100000010000000000000BRCESPACNOR3160
012013082202CESP6       010CESP        PNB EJ  N1   R$  000000000208400000000020990000000002035000000000206200000000020600000000002057000000000207402504000000000000450200000000000928450000000000000000009999123100000010000000000000BRCESPACNPB4119
012013082296CESP6F      020CESP        PNB EJ  N1   R$  000000000206100000000020860000000002036000000000205800000000020360000000002035000000000208700025000000000000000755000000000001554327000000000000009999123100000010000000000000BRCESPACNPB4119
012013082202CGAS3       010COMGAS      ON           R$  000000000515000000000051500000000005149000000000514900000000051490000000004900000000000515000009000000000000004000000000000020599600000000000000009999123100000010000000000000BRCGASACNOR0132
012013082202CGAS5       010COMGAS      PNA          R$  000000000553300000000055650000000005500000000000553600000000055500000000005524000000000555000143000000000000025700000000000142284800000000000000009999123100000010000000000000BRCGASACNPA3129
012013082296CGAS5F      020COMGAS      PNA          R$  000000000543100000000055600000000005431000000000550000000000055600000000005500000000000590000003000000000000000108000000000000594030000000000000009999123100000010000000000000BRCGASACNPA3129
012013082202CGRA4       010GRAZZIOTIN  PN           R$  000000000165200000000016800000000001650000000000166800000000016800000000001673000000000168000044000000000000017800000000000029699800000000000000009999123100000010000000000000BRCGRAACNPR9061
012013082296CGRA4F      020GRAZZIOTIN  PN           R$  000000000165300000000016530000000001653000000000165300000000016530000000001675000000000190000001000000000000000008000000000000013224000000000000009999123100000010000000000000BRCGRAACNPR9061
012013082202CIEL3       010CIELO       ON      NM   R$  000000000570100000000057990000000005674000000000571800000000056740000000005674000000000568011253000000000002703100000000015458868500000000000000009999123100000010000000000000BRCIELACNOR3111
012013082296CIEL3F      020CIELO       ON      NM   R$  000000000570000000000058000000000005680000000000572700000000057000000000005693000000000572900129000000000000003331000000000019068157000000000000009999123100000010000000000000BRCIELACNOR3111
012013082262CIEL3T      030CIELO       ON      NM032R$  000000000575400000000058310000000005739000000000575900000000057400000000000000000000000000000054000000000000407000000000002344153423000000000000009999123100000010000000000000BRCIELACNOR3111
012013082282CIELU54     080CIELE       ON      NM000R$  000000000001000000000000100000000000010000000000001000000000000100000000000000000000000000000001000000000000000100000000000000001000000000000540002013091600000010000000000000BRCIELACNOR3111
012013082282CIELV52     080CIELE       ON      NM000R$  000000000002000000000000200000000000020000000000002000000000000200000000000000000000000000000001000000000000000100000000000000002000000000000520002013102100000010000000000000BRCIELACNOR3111
012013082202CLSC4       010CELESC      PN      N2   R$  000000000182500000000018250000000001810000000000181500000000018170000000001817000000000185000109000000000000023100000000000041936600000000000000009999123100000010000000000000BRCLSCACNPR3107
012013082202CMIG3       010CEMIG       ON      N1   R$  000000000191400000000019140000000001903000000000190900000000019080000000001908000000000191900726000000000000280000000000000534738200000000000000009999123100000010000000000000BRCMIGACNOR6208
012013082296CMIG3F      020CEMIG       ON      N1   R$  000000000191300000000019390000000001900000000000191200000000019000000000001901000000000195900018000000000000000276000000000000527739000000000000009999123100000010000000000000BRCMIGACNOR6208
012013082262CMIG3T      030CEMIG       ON      N1060R$  000000000193500000000019360000000001935000000000193500000000019360000000000000000000000000000002000000000000000100000000000000193515000000000000009999123100000010000000000000BRCMIGACNOR6208
012013082202CMIG4       010CEMIG       PN      N1   R$  000000000192600000000019540000000001923000000000193800000000019400000000001936000000000194006894000000000002280900000000004422659900000000000000009999123100000010000000000000BRCMIGACNPR3208
012013082296CMIG4F      020CEMIG       PN      N1   R$  000000000191500000000019730000000001915000000000193700000000019200000000001920000000000194800105000000000000003003000000000005818333000000000000009999123100000010000000000000BRCMIGACNPR3208
012013082262CMIG4T      030CEMIG       PN      N1032R$  000000000195400000000019550000000001954000000000195400000000019550000000000000000000000000000002000000000000046000000000000089900376000000000000009999123100000010000000000000BRCMIGACNPR3208
012013082278CMIGI20     070CMIG        PN      N1000R$  000000000003000000000000380000000000030000000000003400000000000380000000000025000000000004800002000000000000002000000000000000068000000000000200002013091600000010000000000000BRCMIGACNPR3208
012013082212CNES11B     010FII CENESP  CI  ER  MB   R$  000000001284000000000128400000000012602000000001273400000000126020000000012607000000001270000005000000000000000180000000000002292160000000000000009999123100000010000000000000BRCNESCTF001125
012013082202COCE3       010COELCE      ON           R$  000000000409800000000040980000000004023000000000403900000000040490000000003901000000000404900007000000000000001400000000000005655600000000000000009999123100000010000000000000BRCOCEACNOR0132
012013082202COCE5       010COELCE      PNA          R$  000000000390500000000039770000000003905000000000394200000000039360000000003936000000000395200498000000000000140400000000000553499100000000000000009999123100000010000000000000BRCOCEACNPA3133
012013082296COCE5F      020COELCE      PNA          R$  000000000390200000000039910000000003902000000000395600000000039400000000003905000000000399100007000000000000000101000000000000399565000000000000009999123100000010000000000000BRCOCEACNPA3133
012013082202CPFE3       010CPFL ENERGIAON      NM   R$  000000000198000000000020260000000001978000000000200800000000020110000000002010000000000201103862000000000000668400000000001342159500000000000000009999123100000010000000000000BRCPFEACNOR0121
012013082296CPFE3F      020CPFL ENERGIAON      NM   R$  000000000196100000000020400000000001961000000000199600000000020140000000001995000000000211700020000000000000000360000000000000718634000000000000009999123100000010000000000000BRCPFEACNOR0121
012013082262CPFE3T      030CPFL ENERGIAON      NM030R$  000000000202400000000020250000000002024000000000202400000000020250000000000000000000000000000002000000000000000600000000000001214683000000000000009999123100000010000000000000BRCPFEACNOR0121
012013082202CPLE3       010COPEL       ON      N1   R$  000000000226400000000023000000000002215000000000224200000000022150000000002205000000000221500069000000000000013700000000000030718000000000000000009999123100000010000000000000BRCPLEACNOR8128
012013082296CPLE3F      020COPEL       ON      N1   R$  000000000223500000000022600000000002235000000000225500000000022570000000002234000000000000000003000000000000000116000000000000261610000000000000009999123100000010000000000000BRCPLEACNOR8128
012013082296CPLE5F      020COPEL       PNA     N1   R$  000000000300000000000030000000000003000000000000300000000000030000000000002900000000000300000002000000000000000018000000000000054000000000000000009999123100000010000000000000BRCPLEACNPA1126
012013082202CPLE6       010COPEL       PNB     N1   R$  000000000296200000000030100000000002937000000000297800000000029630000000002963000000000296501604000000000000559600000000001666649100000000000000009999123100000010000000000000BRCPLEACNPB9125
012013082296CPLE6F      020COPEL       PNB     N1   R$  000000000298800000000030980000000002935000000000297400000000029350000000002935000000000309800020000000000000000646000000000001919099000000000000009999123100000010000000000000BRCPLEACNPB9125
012013082202CPRE3       010CPFL RENOVAVON      NM   R$  000000000119200000000012000000000001192000000000119500000000011920000000001157000000000121900011000000000000003300000000000003943600000000000000009999123100000010000000000000BRCPREACNOR5100
012013082296CPRE3F      020CPFL RENOVAVON      NM   R$  000000000119100000000012480000000001191000000000120800000000012000000000001155000000000119900009000000000000000398000000000000480947000000000000009999123100000010000000000000BRCPREACNOR5100
012013082262CPRE3T      030CPFL RENOVAVON      NM032R$  000000000125600000000012570000000001256000000000125600000000012570000000000000000000000000000002000000000000000098000000000000123160000000000000009999123100000010000000000000BRCPREACNOR5100
012013082202CRDE3       010CR2         ON      NM   R$  000000000041300000000004250000000000410000000000041700000000004170000000000417000000000042700010000000000000013200000000000005508300000000000000009999123100000010000000000000BRCRDEACNOR1108
012013082202CREM3       010CREMER      ON      NM   R$  000000000147400000000014900000000001439000000000146200000000014390000000001439000000000145400047000000000000021100000000000030867100000000000000009999123100000010000000000000BRCREMACNOR2166
012013082202CRIV3       010ALFA FINANC ON  EJ       R$  000000000049900000000004990000000000499000000000049900000000004990000000000477000000000050400001000000000000000200000000000000099800000000000000009999123100000010000000000000BRCRIVACNOR4190
012013082202CRIV4       010ALFA FINANC PN  EJ       R$  000000000045000000000004500000000000439000000000044300000000004390000000000439000000000048000014000000000000007900000000000003503600000000000000009999123100000010000000000000BRCRIVACNPR1190
012013082202CRUZ3       010SOUZA CRUZ  ON           R$  000000000264400000000026650000000002595000000000261400000000026020000000002602000000000260904306000000000000994900000000002601245900000000000000009999123100000010000000000000BRCRUZACNOR0246
012013082296CRUZ3F      020SOUZA CRUZ  ON           R$  000000000263300000000026740000000002592000000000261800000000026110000000002610000000000267400035000000000000001093000000000002861213000000000000009999123100000010000000000000BRCRUZACNOR0246
012013082202CSAN3       010COSAN       ON      NM   R$  000000000401800000000041270000000004018000000000405000000000041080000000004101000000000410803531000000000001402700000000005682280500000000000000009999123100000010000000000000BRCSANACNOR6108
012013082296CSAN3F      020COSAN       ON      NM   R$  000000000398400000000041100000000003984000000000405400000000040800000000004000000000000411000039000000000000000978000000000003965666000000000000009999123100000010000000000000BRCSANACNOR6108
012013082262CSAN3T      030COSAN       ON      NM060R$  000000000413400000000041520000000004134000000000414200000000041520000000000000000000000000000006000000000000002000000000000008284147000000000000009999123100000010000000000000BRCSANACNOR6108
012013082262CSAN3T      030COSAN       ON      NM091R$  000000000412000000000041920000000004120000000000412100000000041920000000000000000000000000000008000000000000395100000000001628303665000000000000009999123100000010000000000000BRCSANACNOR6108
012013082262CSAN3T      030COSAN       ON      NM180R$  000000000423800000000042420000000004238000000000423900000000042420000000000000000000000000000004000000000000000300000000000001271869000000000000009999123100000010000000000000BRCSANACNOR6108
012013082202CSMG3       010COPASA      ON      NM   R$  000000000292000000000029500000000002846000000000288900000000028710000000002871000000000287302290000000000000339100000000000979659900000000000000009999123100000010000000000000BRCSMGACNOR5127
012013082296CSMG3F      020COPASA      ON      NM   R$  000000000291500000000029150000000002847000000000288100000000028750000000002846000000000309900017000000000000000399000000000001149520000000000000009999123100000010000000000000BRCSMGACNOR5127
012013082262CSMG3T      030COPASA      ON      NM091R$  000000000294600000000029470000000002946000000000294600000000029470000000000000000000000000000002000000000000000100000000000000294605000000000000009999123100000010000000000000BRCSMGACNOR5127
012013082214CSMO11      010ISHARES CSMOCI           R$  000000000452100000000045390000000004521000000000452500000000045310000000003800000000000480000003000000000000000070000000000000316750000000000000009999123100000010000000000000BRCSMOCTF002100
012013082202CSNA3       010SID NACIONALON           R$  000000000089100000000009070000000000873000000000089800000000009040000000000903000000000090418241000000000008670600000000007791268500000000000000009999123100000010000000000000BRCSNAACNOR6243
012013082296CSNA3F      020SID NACIONALON           R$  000000000086100000000009060000000000861000000000089500000000009030000000000897000000000090400086000000000000002389000000000002140139000000000000009999123100000010000000000000BRCSNAACNOR6243
012013082262CSNA3T      030SID NACIONALON        018R$  000000000089300000000008940000000000893000000000089300000000008940000000000000000000000000000002000000000000010000000000000008937380000000000000009999123100000010000000000000BRCSNAACNOR6243
012013082262CSNA3T      030SID NACIONALON        032R$  000000000089800000000008990000000000898000000000089800000000008990000000000000000000000000000002000000000000003000000000000002694732000000000000009999123100000010000000000000BRCSNAACNOR6243
012013082262CSNA3T      030SID NACIONALON        060R$  000000000091600000000009170000000000910000000000091400000000009110000000000000000000000000000004000000000000005000000000000004572572000000000000009999123100000010000000000000BRCSNAACNOR6243
012013082262CSNA3T      030SID NACIONALON        090R$  000000000090900000000009100000000000909000000000090900000000009100000000000000000000000000000002000000000000001000000000000000909622000000000000009999123100000010000000000000BRCSNAACNOR6243
012013082262CSNA3T      030SID NACIONALON        120R$  000000000092500000000009300000000000925000000000092600000000009300000000000000000000000000000004000000000000005000000000000004633773000000000000009999123100000010000000000000BRCSNAACNOR6243
012013082278CSNAB11     070CSNA        ON        000R$  000000000006000000000000600000000000060000000000006000000000000600000000000001000000000000000002000000000000478200000000000028692000000000000110002014021700000010000000000000BRCSNAACNOR6243
012013082278CSNAI10     070CSNA        ON        000R$  000000000001400000000000150000000000012000000000001400000000000120000000000000000000000000000009000000000000008000000000000000112600000000000100002013091600000010000000000000BRCSNAACNOR6243
012013082278CSNAI6      070CSNA        ON        000R$  000000000031500000000003150000000000315000000000031500000000003150000000000315000000000000000001000000000000000100000000000000031500000000000058002013091600000010000000000000BRCSNAACNOR6242
012013082278CSNAI60     070CSNA        ON        000R$  000000000000600000000000060000000000005000000000000500000000000050000000000000000000000000000002000000000000002000000000000000011000000000000106002013091600000010000000000000BRCSNAACNOR6243
012013082278CSNAI7      070CSNA        ON        000R$  000000000021100000000002110000000000211000000000021100000000002110000000000146000000000000000001000000000000001000000000000000211000000000000068002013091600000010000000000000BRCSNAACNOR6242
012013082278CSNAI76     070CSNA        ON        000R$  000000000016500000000001650000000000165000000000016500000000001650000000000000000000000000000001000000000000002500000000000000412500000000000074002013091600000010000000000000BRCSNAACNOR6242
012013082278CSNAI8      070CSNA        ON        000R$  000000000011200000000001380000000000110000000000012400000000001340000000000102000000000013900013000000000000006800000000000000846200000000000078002013091600000010000000000000BRCSNAACNOR6242
012013082278CSNAI80     070CSNA  FM    ON        000R$  000000000006500000000000730000000000065000000000006700000000000730000000000000000000000000000012000000000000029500000000000001982500000000000086002013091600000010000000000000BRCSNAACNOR6243
012013082278CSNAI82     070CSNA        ON        000R$  000000000012200000000001220000000000117000000000012100000000001170000000000119000000000000000005000000000000005800000000000000701900000000000080002013091600000010000000000000BRCSNAACNOR6242
012013082278CSNAI84     070CSNA  FM    ON        000R$  000000000007100000000000890000000000071000000000008100000000000880000000000039000000000000000023000000000000034200000000000002777900000000000084002013091600000010000000000000BRCSNAACNOR6243
012013082278CSNAI88     070CSNA  FM    ON        000R$  000000000005300000000000600000000000053000000000005300000000000600000000000000000000000000000007000000000000019400000000000001045700000000000088002013091600000010000000000000BRCSNAACNOR6243
012013082278CSNAI9      070CSNA  FM    ON        000R$  000000000003500000000000510000000000035000000000004600000000000490000000000035000000000005000038000000000000063500000000000002979900000000000090002013091600000010000000000000BRCSNAACNOR6243
012013082278CSNAI92     070CSNA  FM    ON        000R$  000000000003000000000000400000000000030000000000003500000000000400000000000000000000000000000008000000000000026400000000000000929100000000000092002013091600000010000000000000BRCSNAACNOR6243
012013082278CSNAI94     070CSNA        ON        000R$  000000000002500000000000270000000000025000000000002500000000000270000000000030000000000000000004000000000000016000000000000000410000000000000094002013091600000010000000000000BRCSNAACNOR6243
012013082278CSNAI96     070CSNA        ON        000R$  000000000002300000000000230000000000023000000000002300000000000230000000000000000000000000000001000000000000003100000000000000071300000000000096002013091600000010000000000000BRCSNAACNOR6243
012013082278CSNAI98     070CSNA        ON        000R$  000000000001400000000000190000000000014000000000001700000000000170000000000012000000000000000011000000000000046900000000000000842000000000000098002013091600000010000000000000BRCSNAACNOR6243
012013082278CSNAJ10     070CSNA        ON        000R$  000000000003200000000000340000000000032000000000003200000000000320000000000000000000000000000004000000000000002500000000000000080200000000000100002013102100000010000000000000BRCSNAACNOR6243
012013082278CSNAJ40     070CSNA        ON        000R$  000000000002300000000000230000000000023000000000002300000000000230000000000000000000000000000001000000000000004000000000000000092000000000000104002013102100000010000000000000BRCSNAACNOR6243
012013082278CSNAJ60     070CSNA        ON        000R$  000000000002000000000000210000000000020000000000002000000000000210000000000000000000000000000006000000000000024000000000000000488000000000000106002013102100000010000000000000BRCSNAACNOR6243
012013082278CSNAJ8      070CSNA        ON        000R$  000000000014900000000001490000000000149000000000014900000000001490000000000000000000000000000002000000000000001100000000000000163900000000000078002013102100000010000000000000BRCSNAACNOR6242
012013082278CSNAJ86     070CSNA  FM    ON        000R$  000000000010300000000001030000000000103000000000010300000000001030000000000000000000000000000001000000000000003500000000000000360500000000000084002013102100000010000000000000BRCSNAACNOR6242
012013082278CSNAJ9      070CSNA  FM    ON        000R$  000000000007900000000000850000000000079000000000008000000000000850000000000000000000000000000004000000000000009000000000000000726000000000000088002013102100000010000000000000BRCSNAACNOR6242
012013082278CSNAJ92     070CSNA  FM    ON        000R$  000000000005900000000000590000000000059000000000005900000000000590000000000000000000000000000001000000000000003500000000000000206500000000000092002013102100000010000000000000BRCSNAACNOR6243
012013082278CSNAJ98     070CSNA        ON        000R$  000000000003700000000000370000000000037000000000003700000000000370000000000003000000000000000001000000000000001900000000000000070300000000000098002013102100000010000000000000BRCSNAACNOR6243
012013082278CSNAK10     070CSNA        ON        000R$  000000000004900000000000490000000000049000000000004900000000000490000000000000000000000000000001000000000000001000000000000000049000000000000098002013111800000010000000000000BRCSNAACNOR6242
012013082278CSNAK9      070CSNA        ON        000R$  000000000008200000000000820000000000082000000000008200000000000820000000000000000000000000000001000000000000002000000000000000164000000000000090002013111800000010000000000000BRCSNAACNOR6243
012013082282CSNAN60     080CSNAE       ON        000R$  000000000001000000000000100000000000010000000000001000000000000100000000000000000000000000000001000000000000478200000000000004782000000000000060002014021700000010000000000000BRCSNAACNOR6243
