00COTAHIST.2013BOVESPA 20130809                                                                                                                                                                                                                      
012013080902ABCB4       010ABC BRASIL  PN      N2   R$  000000000123500000000012590000000001218000000000124300000000012430000000001236000000000124300302000000000000098200000000000122086200000000000000009999123100000010000000000000BRABCBACNPR4120
012013080996ABCB4F      020ABC BRASIL  PN      N2   R$  000000000125800000000012580000000001237000000000124100000000012410000000001216000000000124200009000000000000000206000000000000255752000000000000009999123100000010000000000000BRABCBACNPR4120
012013080912ABCP11      010FII ABC IMOBCI  ER       R$  000000000097900000000009790000000000930000000000095500000000009300000000000902000000000093000005000000000000000039000000000000037250000000000000009999123100000010000000000000BRABCPCTF000214
012013080902ABRE11      010ABRIL EDUCA UNT     N2   R$  000000000332800000000035350000000003279000000000334200000000034640000000003464000000000347000512000000000000225400000000000753389700000000000000009999123100000010000000000000BRABRECDAM15102
012013080996ABRE11F     020ABRIL EDUCA UNT     N2   R$  000000000330000000000034710000000003300000000000338700000000034600000000003257000000000346000006000000000000000127000000000000430227000000000000009999123100000010000000000000BRABRECDAM15102
012013080962ABRE11T     030ABRIL EDUCA UNT     N2060R$  000000000351200000000035130000000003512000000000351200000000035130000000000000000000000000000002000000000000001000000000000003512838000000000000009999123100000010000000000000BRABRECDAM15102
012013080902AEDU3       010ANHANGUERA  ON      NM   R$  000000000138700000000014220000000001379000000000139800000000014000000000001398000000000140007274000000000002826800000000003953066100000000000000009999123100000010000000000000BRAEDUACNOR9107
012013080996AEDU3F      020ANHANGUERA  ON      NM   R$  000000000138000000000014230000000001367000000000139600000000013670000000001380000000000139900027000000000000000919000000000001283639000000000000009999123100000010000000000000BRAEDUACNOR9107
012013080962AEDU3T      030ANHANGUERA  ON      NM017R$  000000000139300000000013980000000001393000000000139400000000013970000000000000000000000000000010000000000000005000000000000006974002000000000000009999123100000010000000000000BRAEDUACNOR9107
012013080912AEFI11      010FII AESAPAR CI  ER       R$  000000001252400000000125240000000012500000000001250400000000125150000000012500000000001251500035000000000000002209000000000027623247000000000000009999123100000010000000000000BRAEFICTF002120
012013080902AELP3       010AES ELPA    ON           R$  000000000073200000000007880000000000730000000000074800000000007880000000000714000000000075000013000000000000002800000000000002096400000000000000009999123100000010000000000000BRAELPACNOR2119
012013080912AGCX11      010FII AG CAIXACI  ER       R$  000000009950100000000995010000000099501000000009950100000000995010000000099501000000009999900002000000000000000006000000000000597006000000000000009999123100000010000000000000BRAGCXCTF003109
012013080902AGRO3       010BRASILAGRO  ON      NM   R$  000000000107500000000011480000000001075000000000109900000000011350000000001117000000000113500026000000000000011800000000000012971300000000000000009999123100000010000000000000BRAGROACNOR7102
012013080996AGRO3F      020BRASILAGRO  ON      NM   R$  000000000109000000000010900000000001090000000000109000000000010900000000000950000000000109000001000000000000000075000000000000081750000000000000009999123100000010000000000000BRAGROACNOR7102
012013080902ALLL3       010ALL AMER LATON      NM   R$  000000000087900000000009040000000000872000000000089300000000009040000000000901000000000090406128000000000002145100000000001916651600000000000000009999123100000010000000000000BRALLLACNOR6118
012013080996ALLL3F      020ALL AMER LATON      NM   R$  000000000087900000000009000000000000852000000000087800000000009000000000000856000000000090000020000000000000000405000000000000356677000000000000009999123100000010000000000000BRALLLACNOR6118
012013080912ALMI11B     010FII TORRE ALCI  ER  MB   R$  000000031730000000003174900000000310000000000031094200000003174800000000311001000000031748000017000000000000000078000000000024253486000000000000009999123100000010000000000000BRALMICTF003204
012013080902ALPA3       010ALPARGATAS  ON      N1   R$  000000000118100000000011810000000001145000000000115700000000011800000000001147000000000118800005000000000000000900000000000001041300000000000000009999123100000010000000000000BRALPAACNOR0202
012013080996ALPA3F      020ALPARGATAS  ON      N1   R$  000000000113100000000013000000000001028000000000109500000000013000000000001145000000000128000005000000000000000154000000000000168704000000000000009999123100000010000000000000BRALPAACNOR0202
012013080902ALPA4       010ALPARGATAS  PN      N1   R$  000000000137800000000013830000000001355000000000136600000000013800000000001377000000000138000574000000000000667200000000000911639800000000000000009999123100000010000000000000BRALPAACNPR7202
012013080996ALPA4F      020ALPARGATAS  PN      N1   R$  000000000134100000000014310000000001341000000000136600000000013800000000001340000000000140000027000000000000000903000000000001234188000000000000009999123100000010000000000000BRALPAACNPR7202
012013080962ALPA4T      030ALPARGATAS  PN      N1017R$  000000000136400000000013650000000001364000000000136400000000013650000000000000000000000000000002000000000000000100000000000000136403000000000000009999123100000010000000000000BRALPAACNPR7202
012013080962ALPA4T      030ALPARGATAS  PN      N1031R$  000000000137200000000013730000000001372000000000137200000000013730000000000000000000000000000002000000000000001000000000000001372126000000000000009999123100000010000000000000BRALPAACNPR7202
012013080902ALSC3       010ALIANSCE    ON      NM   R$  000000000203400000000020760000000002015000000000204300000000020760000000002071000000000209402441000000000000356500000000000728448000000000000000009999123100000010000000000000BRALSCACNOR0104
012013080996ALSC3F      020ALIANSCE    ON      NM   R$  000000000203100000000020600000000002031000000000203800000000020600000000001960000000000206500003000000000000000038000000000000077457000000000000009999123100000010000000000000BRALSCACNOR0104
012013080902ALUP11      010ALUPAR      UNT     N2   R$  000000000170000000000017100000000001675000000000169200000000016750000000001675000000000168000345000000000000146500000000000247985000000000000000009999123100000010000000000000BRALUPCDAM15100
012013080996ALUP11F     020ALUPAR      UNT     N2   R$  000000000170500000000017680000000001680000000000169700000000016810000000001680000000000170500015000000000000000455000000000000772444000000000000009999123100000010000000000000BRALUPCDAM15100
012013080962ALUP11T     030ALUPAR      UNT     N2017R$  000000000170900000000017100000000001709000000000170900000000017100000000000000000000000000000002000000000000001500000000000002563515000000000000009999123100000010000000000000BRALUPCDAM15100
012013080902AMAR3       010LOJAS MARISAON      NM   R$  000000000209900000000021100000000002046000000000207800000000020960000000002091000000000209600957000000000000259600000000000539545100000000000000009999123100000010000000000000BRAMARACNOR4109
012013080996AMAR3F      020LOJAS MARISAON      NM   R$  000000000205000000000020810000000002050000000000205000000000020810000000002090000000000242400047000000000000001503000000000003081451000000000000009999123100000010000000000000BRAMARACNOR4109
012013080962AMAR3T      030LOJAS MARISAON      NM017R$  000000000209000000000020910000000002090000000000209000000000020910000000000000000000000000000002000000000000003000000000000006272858000000000000009999123100000010000000000000BRAMARACNOR4109
012013080902AMBV3       010AMBEV       ON           R$  000000000854600000000086120000000008482000000000853100000000085180000000008509000000000851800658000000000000174000000000001484421700000000000000009999123100000010000000000000BRAMBVACNOR4153
012013080996AMBV3F      020AMBEV       ON           R$  000000000858900000000086870000000008451000000000852800000000084510000000008451000000000859900033000000000000000696000000000005935488000000000000009999123100000010000000000000BRAMBVACNOR4153
012013080902AMBV4       010AMBEV       PN           R$  000000000860500000000086490000000008483000000000852500000000084830000000008483000000000852406703000000000001612500000000013747454100000000000000009999123100000010000000000000BRAMBVACNPR1153
012013080996AMBV4F      020AMBEV       PN           R$  000000000860000000000086900000000008493000000000854900000000085300000000008510000000000854800142000000000000003273000000000027979431000000000000009999123100000010000000000000BRAMBVACNPR1153
012013080962AMBV4T      030AMBEV       PN        017R$  000000000859200000000085930000000008515000000000855300000000085160000000000000000000000000000022000000000000002000000000000017107765000000000000009999123100000010000000000000BRAMBVACNPR1153
012013080962AMBV4T      030AMBEV       PN        031R$  000000000862300000000086240000000008594000000000861700000000085950000000000000000000000000000006000000000000001300000000000011203244000000000000009999123100000010000000000000BRAMBVACNPR1153
012013080962AMBV4T      030AMBEV       PN        042R$  000000000856100000000085620000000008561000000000856100000000085620000000000000000000000000000002000000000000010000000000000085618919000000000000009999123100000010000000000000BRAMBVACNPR1153
012013080978AMBVH81     070AMBV        PN        000R$  000000000050000000000005000000000000500000000000050000000000005000000000000000000000000000000001000000000000010000000000000005000000000000000810002013081900000010000000000000BRAMBVACNPR1153
012013080978AMBVH87     070AMBV        PN        000R$  000000000005000000000000500000000000050000000000005000000000000500000000000000000000000000000004000000000000000600000000000000030000000000000870002013081900000010000000000000BRAMBVACNPR1153
012013080978AMBVL92     070AMBV        PN        000R$  000000000032000000000003200000000000320000000000032000000000003200000000000000000000000000000001000000000000007000000000000002240000000000000920002013121600000010000000000000BRAMBVACNPR1153
012013080902ARMT11B     010ARCELOR     DRN     MB   R$  000000000155500000000015550000000001555000000000155500000000015550000000001540000000000157000001000000000000001800000000000002799000000000000000009999123100000010000000000000BRARMTBDR008111
012013080902ARTR3       010ARTERIS     ON      NM   R$  000000000225500000000022700000000002196000000000224900000000022400000000002234000000000225206620000000000005138400000000011559159200000000000000009999123100000010000000000000BRARTRACNOR3101
012013080996ARTR3F      020ARTERIS     ON      NM   R$  000000000225500000000022690000000002187000000000223300000000021870000000002187000000000226800078000000000000002642000000000005901859000000000000009999123100000010000000000000BRARTRACNOR3101
012013080902ARZZ3       010AREZZO CO   ON      NM   R$  000000000378400000000037990000000003729000000000376500000000037800000000003780000000000379000427000000000000102400000000000385605400000000000000009999123100000010000000000000BRARZZACNOR3109
012013080996ARZZ3F      020AREZZO CO   ON      NM   R$  000000000376800000000037990000000003755000000000379400000000037990000000003771000000000379900004000000000000000105000000000000398407000000000000009999123100000010000000000000BRARZZACNOR3109
012013080902AUTM3       010AUTOMETAL   ON      NM   R$  000000000187500000000018870000000001820000000000183800000000018200000000001819000000000182000134000000000000032200000000000059197500000000000000009999123100000010000000000000BRAUTMACNOR8109
012013080996AUTM3F      020AUTOMETAL   ON      NM   R$  000000000185000000000018500000000001850000000000185000000000018500000000001710000000000190000001000000000000000026000000000000048100000000000000009999123100000010000000000000BRAUTMACNOR8109
012013080902BAHI3       010BAHEMA      ON           R$  000000000048500000000004850000000000480000000000048200000000004800000000000477000000000049400007000000000000008200000000000003952700000000000000009999123100000010000000000000BRBAHIACNOR1066
012013080902BALM4       010BAUMER      PN           R$  000000000753000000000075300000000007530000000000753000000000075300000000007300000000000753000001000000000000000100000000000000753000000000000000009999123100000010000000000000BRBALMACNPR2043
012013080902BAUH4       010EXCELSIOR   PN           R$  000000000092000000000009200000000000920000000000092000000000009200000000000870000000000093800001000000000000000500000000000000460000000000000000009999123100000010000000000000BRBAUHACNPR3108
012013080902BAZA3       010AMAZONIA    ON           R$  000000000003300000000000330000000000033000000000003300000000000330000000000033000000000003400002000000000000015000000000000000495000000000000000009999123100000010000000000000BRBAZAACNOR0163
012013080902BBAS3       010BRASIL      ON      NM   R$  000000000222100000000022600000000002208000000000223900000000022600000000002255000000000226013922000000000006084800000000013627668100000000000000009999123100000010000000000000BRBBASACNOR3237
012013080996BBAS3F      020BRASIL      ON      NM   R$  000000000221100000000022530000000002209000000000223300000000022350000000002235000000000225000226000000000000006192000000000013834996000000000000009999123100000010000000000000BRBBASACNOR3237
012013080962BBAS3T      030BRASIL      ON      NM031R$  000000000224100000000022640000000002241000000000226200000000022630000000000000000000000000000012000000000000102100000000000230994859000000000000009999123100000010000000000000BRBBASACNOR3237
012013080962BBAS3T      030BRASIL      ON      NM122R$  000000000229400000000022950000000002294000000000229400000000022950000000000000000000000000000002000000000000002000000000000004589349000000000000009999123100000010000000000000BRBBASACNOR3237
012013080962BBAS3T      030BRASIL      ON      NM180R$  000000000234000000000023560000000002340000000000235200000000023560000000000000000000000000000004000000000000003100000000000007294132000000000000009999123100000010000000000000BRBBASACNOR3237
012013080978BBASA26     070BBAS        ON      NM000R$  000000000005300000000000530000000000053000000000005300000000000530000000000000000000000000000001000000000000001200000000000000063600000000000260002014012000000010000000000000BRBBASACNOR3237
012013080978BBASB25     070BBAS        ON      NM000R$  000000000009200000000000920000000000092000000000009200000000000920000000000000000000000000000001000000000000001200000000000000110400000000000250002014021700000010000000000000BRBBASACNOR3237
012013080978BBASB26     070BBAS        ON      NM000R$  000000000006500000000000650000000000065000000000006500000000000650000000000000000000000000000001000000000000001200000000000000078000000000000260002014021700000010000000000000BRBBASACNOR3237
012013080978BBASH20     070BBAS        ON      NM000R$  000000000024000000000002400000000000240000000000024000000000002400000000000000000000000030000001000000000000002000000000000000480000000000000200002013081900000010000000000000BRBBASACNOR3237
012013080978BBASH21     070BBAS  FM    ON      NM000R$  000000000017100000000001830000000000144000000000017100000000001760000000000101000000000024900182000000000000296300000000000050710100000000000207602013081900000010000000000000BRBBASACNOR3236
012013080978BBASH22     070BBAS  FM    ON      NM000R$  000000000009000000000000970000000000063000000000008600000000000970000000000097000000000009800125000000000000225700000000000019500100000000000217602013081900000010000000000000BRBBASACNOR3236
012013080978BBASH23     070BBAS  FM    ON      NM000R$  000000000002300000000000290000000000016000000000002500000000000290000000000026000000000003000112000000000000263600000000000006708100000000000227602013081900000010000000000000BRBBASACNOR3236
012013080978BBASH24     070BBAS  FM    ON      NM000R$  000000000001200000000000150000000000010000000000001300000000000140000000000014000000000001700036000000000000051200000000000000701900000000000231702013081900000010000000000000BRBBASACNOR3233
012013080978BBASH25     070BBAS  FM    ON      NM000R$  000000000000200000000000050000000000002000000000000300000000000050000000000003000000000001000012000000000000029200000000000000104700000000000241702013081900000010000000000000BRBBASACNOR3233
012013080978BBASI21     070BBAS  FM    ON      NM000R$  000000000017300000000001950000000000162000000000018300000000001890000000000000000000000020500064000000000000120400000000000022043600000000000210002013091600000010000000000000BRBBASACNOR3237
012013080978BBASI22     070BBAS  FM    ON      NM000R$  000000000012200000000001370000000000111000000000012800000000001330000000000092000000000000000034000000000000059000000000000007606200000000000217602013091600000010000000000000BRBBASACNOR3236
012013080978BBASI23     070BBAS  FM    ON      NM000R$  000000000006800000000000760000000000056000000000006700000000000760000000000026000000000007800034000000000000051900000000000003487000000000000227602013091600000010000000000000BRBBASACNOR3236
012013080978BBASI24     070BBAS  FM    ON      NM000R$  000000000003200000000000380000000000027000000000003200000000000350000000000016000000000007100033000000000000076200000000000002468400000000000237602013091600000010000000000000BRBBASACNOR3236
012013080978BBASI25     070BBAS  FM    ON      NM000R$  000000000001200000000000180000000000012000000000001400000000000160000000000015000000000002000006000000000000017100000000000000243500000000000246602013091600000010000000000000BRBBASACNOR3235
012013080978BBASJ23     070BBAS        ON      NM000R$  000000000010500000000001050000000000105000000000010500000000001050000000000000000000000000000001000000000000002000000000000000210000000000000226602013102100000010000000000000BRBBASACNOR3235
012013080978BBASJ24     070BBAS        ON      NM000R$  000000000005700000000000710000000000057000000000006700000000000710000000000022000000000010000005000000000000006400000000000000431200000000000237602013102100000010000000000000BRBBASACNOR3236
012013080978BBASJ25     070BBAS        ON      NM000R$  000000000003200000000000360000000000028000000000003200000000000350000000000017000000000000000010000000000000009500000000000000306600000000000250002013102100000010000000000000BRBBASACNOR3237
012013080978BBASJ26     070BBAS        ON      NM000R$  000000000002300000000000240000000000023000000000002300000000000240000000000013000000000002400002000000000000000600000000000000013900000000000256602013102100000010000000000000BRBBASACNOR3235
012013080978BBASJ29     070BBAS        ON      NM000R$  000000000000600000000000060000000000006000000000000600000000000060000000000001000000000000000001000000000000000100000000000000000600000000000286602013102100000010000000000000BRBBASACNOR3235
012013080978BBASL24     070BBAS        ON      NM000R$  000000000008600000000000860000000000086000000000008600000000000860000000000000000000000000000001000000000000001200000000000000103200000000000240002013121600000010000000000000BRBBASACNOR3237
012013080978BBASL25     070BBAS        ON      NM000R$  000000000006500000000000740000000000064000000000006800000000000740000000000000000000000000000004000000000001002400000000000069156000000000000246602013121600000010000000000000BRBBASACNOR3235
012013080978BBASL26     070BBAS        ON      NM000R$  000000000004000000000000460000000000040000000000004300000000000460000000000000000000000000000002000000000001000000000000000043000000000000000256602013121600000010000000000000BRBBASACNOR3235
012013080978BBASL27     070BBAS        ON      NM000R$  000000000002000000000000250000000000020000000000002200000000000250000000000000000000000000000002000000000001000000000000000022500000000000000270002013121600000010000000000000BRBBASACNOR3237
012013080978BBASL28     070BBAS        ON      NM000R$  000000000001200000000000150000000000012000000000001300000000000150000000000000000000000000000002000000000001000000000000000013500000000000000280002013121600000010000000000000BRBBASACNOR3237
012013080978BBASL29     070BBAS        ON      NM000R$  000000000000600000000000100000000000006000000000000700000000000090000000000000000000000000000003000000000001000000000000000007544000000000000286602013121600000010000000000000BRBBASACNOR3235
012013080978BBASL55     070BBASE       ON      NM000R$  000000000007000000000000770000000000070000000000007300000000000770000000000000000000000000000002000000000000002400000000000000176400000000000245702013121600000010000000000000BRBBASACNOR3233
012013080982BBAST19     080BBASE       ON      NM000R$  000000000000100000000000010000000000001000000000000100000000000010000000000000000000000000000004000000000000025400000000000000025400000000000190002013081900000010000000000000BRBBASACNOR3237
012013080982BBAST20     080BBASE FM    ON      NM000R$  000000000000200000000000020000000000002000000000000200000000000020000000000000000000000000000002000000000000001500000000000000003000000000000200002013081900000010000000000000BRBBASACNOR3237
012013080982BBAST21     080BBASE FM    ON      NM000R$  000000000000800000000000080000000000006000000000000700000000000060000000000003000000000004000002000000000000000600000000000000004600000000000207602013081900000010000000000000BRBBASACNOR3236
012013080982BBAST22     080BBASE FM    ON      NM000R$  000000000002200000000000230000000000015000000000001700000000000150000000000001000000000001700024000000000000069500000000000001243400000000000217602013081900000010000000000000BRBBASACNOR3236
012013080982BBAST23     080BBASE FM    ON      NM000R$  000000000006100000000000790000000000050000000000006000000000000530000000000000000000000008000045000000000000089800000000000005416500000000000227602013081900000010000000000000BRBBASACNOR3236
012013080982BBASU19     080BBASE       ON      NM000R$  000000000000700000000000070000000000007000000000000700000000000070000000000002000000000000000001000000000000000100000000000000000700000000000190002013091600000010000000000000BRBBASACNOR3237
012013080982BBASU21     080BBASE FM    ON      NM000R$  000000000003200000000000350000000000028000000000003100000000000280000000000000000000000007000012000000000000021000000000000000663200000000000210002013091600000010000000000000BRBBASACNOR3237
012013080982BBASU22     080BBASE FM    ON      NM000R$  000000000005300000000000530000000000046000000000004800000000000460000000000045000000000005600012000000000000003100000000000000149300000000000217602013091600000010000000000000BRBBASACNOR3236
012013080982BBASU23     080BBASE FM    ON      NM000R$  000000000009600000000000960000000000086000000000008900000000000860000000000000000000000009500007000000000000012300000000000001095000000000000227602013091600000010000000000000BRBBASACNOR3236
012013080982BBASV20     080BBASE       ON      NM000R$  000000000003100000000000310000000000031000000000003100000000000310000000000000000000000006000001000000000000000100000000000000003100000000000200002013102100000010000000000000BRBBASACNOR3237
012013080982BBASV21     080BBASE       ON      NM000R$  000000000005100000000000510000000000050000000000005000000000000500000000000000000000000000000002000000000000000200000000000000010100000000000210002013102100000010000000000000BRBBASACNOR3237
012013080982BBASV22     080BBASE       ON      NM000R$  000000000008000000000000800000000000080000000000008000000000000800000000000000000000000000000001000000000000000100000000000000008000000000000220002013102100000010000000000000BRBBASACNOR3237
012013080982BBASX20     080BBASE       ON      NM000R$  000000000005400000000000540000000000054000000000005400000000000540000000000000000000000000000001000000000000000700000000000000037800000000000200002013121600000010000000000000BRBBASACNOR3237
012013080982BBASX21     080BBASE       ON      NM000R$  000000000007900000000000790000000000068000000000007100000000000680000000000000000000000000000005000000000001002500000000000072101500000000000210002013121600000010000000000000BRBBASACNOR3237
012013080982BBASX68     080BBASE       ON      NM000R$  000000000003200000000000320000000000032000000000003200000000000320000000000000000000000000000001000000000000001200000000000000038400000000000187502013121600000010000000000000BRBBASACNOR3237
012013080902BBDC3       010BRADESCO    ON  EJ  N1   R$  000000000308900000000031330000000003020000000000308200000000030800000000003080000000000311603770000000000000937500000000002889414100000000000000009999123100000010000000000000BRBBDCACNOR1605
012013080996BBDC3F      020BRADESCO    ON  EJ  N1   R$  000000000303500000000031300000000002972000000000308400000000029720000000002973000000000319800052000000000000001371000000000004229082000000000000009999123100000010000000000000BRBBDCACNOR1605
012013080902BBDC4       010BRADESCO    PN  EJ  N1   R$  000000000281100000000028460000000002771000000000281700000000028310000000002830000000000283522223000000000008789000000000024764713800000000000000009999123100000010000000000000BRBBDCACNPR8605
012013080996BBDC4F      020BRADESCO    PN  EJ  N1   R$  000000000280000000000028490000000002771000000000281400000000028020000000002802000000000283600272000000000000007205000000000020278595000000000000009999123100000010000000000000BRBBDCACNPR8605
012013080962BBDC4T      030BRADESCO    PN  EJ  N1030R$  000000000285700000000028580000000002857000000000285700000000028580000000000000000000000000000002000000000000001200000000000003429439000000000000009999123100000010000000000000BRBBDCACNPR8605
012013080962BBDC4T      030BRADESCO    PN  EJ  N1180R$  000000000295100000000029560000000002946000000000295000000000029480000000000000000000000000000010000000000000001097000000000003236548000000000000009999123100000010000000000000BRBBDCACNPR8605
012013080978BBDCH27     070BBDC    /EJ PN      N1000R$  000000000014800000000001750000000000112000000000015000000000001660000000000142000000000000000423000000000000450100000000000067618900000000000267802013081900000010000000000000BRBBDCACNPR8602
012013080978BBDCH28     070BBDC    /EJ PN      N1000R$  000000000006600000000000870000000000041000000000006700000000000850000000000074000000000008500275000000000000400000000000000026814400000000000277802013081900000010000000000000BRBBDCACNPR8602
012013080978BBDCH29     070BBDC    /EJ PN      N1000R$  000000000001900000000000250000000000011000000000002200000000000240000000000012000000000002800101000000000000340800000000000007531500000000000287802013081900000010000000000000BRBBDCACNPR8602
012013080978BBDCH30     070BBDC    /EJ PN      N1000R$  000000000000400000000000060000000000004000000000000400000000000050000000000003000000000000700012000000000000090000000000000000415000000000000297802013081900000010000000000000BRBBDCACNPR8602
012013080978BBDCH31     070BBDC    /EJ PN      N1000R$  000000000000300000000000030000000000002000000000000200000000000020000000000001000000000000300004000000000000004400000000000000011100000000000307402013081900000010000000000000BRBBDCACNPR8600
012013080978BBDCH34     070BBDC    /EJ PN      N1000R$  000000000000100000000000010000000000001000000000000100000000000010000000000000000000000000000001000000000000000500000000000000000500000000000305302013081900000010000000000000BRBBDCACNPR8595
012013080978BBDCI27     070BBDC    /EJ PN      N1000R$  000000000019600000000002180000000000161000000000019100000000002120000000000152000000000000000292000000000000297500000000000056975700000000000267802013091600000010000000000000BRBBDCACNPR8602
012013080978BBDCI28     070BBDC    /EJ PN      N1000R$  000000000012900000000001430000000000099000000000012400000000001380000000000102000000000014500097000000000000197100000000000024624700000000000277802013091600000010000000000000BRBBDCACNPR8602
012013080978BBDCI29     070BBDC    /EJ PN      N1000R$  000000000006000000000000850000000000053000000000007100000000000820000000000074000000000008200043000000000000054500000000000003897300000000000287802013091600000010000000000000BRBBDCACNPR8602
012013080978BBDCI30     070BBDC    /EJ PN      N1000R$  000000000003700000000000440000000000024000000000002600000000000440000000000031000000000004300031000000000000089200000000000002404200000000000297802013091600000010000000000000BRBBDCACNPR8602
012013080978BBDCI31     070BBDC    /EJ PN      N1000R$  000000000015700000000001570000000000157000000000015700000000001570000000000000000000000000000001000000000000000100000000000000015700000000000272902013091600000010000000000000BRBBDCACNPR8590
012013080978BBDCI75     070BBDCE   /EJ PN      N1000R$  000000000009300000000000990000000000092000000000009500000000000990000000000000000000000000000008000000000000015000000000000001428000000000000282302013091600000010000000000000BRBBDCACNPR8604
012013080978BBDCI81     070BBDC    /EJ PN      N1000R$  000000000002000000000000200000000000020000000000002000000000000200000000000000000000000002200006000000000000034400000000000000688000000000000307802013091600000010000000000000BRBBDCACNPR8602
012013080978BBDCJ29     070BBDC    /EJ PN      N1000R$  000000000011500000000001150000000000114000000000011400000000001140000000000000000000000000000002000000000000005400000000000000620600000000000287802013102100000010000000000000BRBBDCACNPR8602
012013080978BBDCJ30     070BBDC    /EJ PN      N1000R$  000000000007800000000000780000000000078000000000007800000000000780000000000000000000000000000001000000000000001200000000000000093600000000000297802013102100000010000000000000BRBBDCACNPR8602
012013080978BBDCJ31     070BBDC    /EJ PN      N1000R$  000000000004400000000000520000000000044000000000004800000000000520000000000010000000000000000004000000000000006300000000000000308400000000000307802013102100000010000000000000BRBBDCACNPR8602
012013080978BBDCL31     070BBDC    /EJ PN      N1000R$  000000000024000000000002400000000000240000000000024000000000002400000000000000000000000000000001000000000000000100000000000000024000000000000278802013121600000010000000000000BRBBDCACNPR8597
012013080982BBDCT25     080BBDCE   /EJ PN      N1000R$  000000000000100000000000010000000000001000000000000100000000000010000000000000000000000000000002000000000000015700000000000000015700000000000247802013081900000010000000000000BRBBDCACNPR8602
012013080982BBDCT27     080BBDCE   /EJ PN      N1000R$  000000000000800000000000120000000000006000000000000600000000000060000000000004000000000001000021000000000000065300000000000000450000000000000267802013081900000010000000000000BRBBDCACNPR8602
012013080982BBDCT28     080BBDCE   /EJ PN      N1000R$  000000000002600000000000340000000000018000000000002400000000000180000000000000000000000000000015000000000000033300000000000000827600000000000277802013081900000010000000000000BRBBDCACNPR8602
012013080982BBDCT29     080BBDCE   /EJ PN      N1000R$  000000000009000000000001100000000000059000000000008100000000000600000000000036000000000000000107000000000000192300000000000015713800000000000287802013081900000010000000000000BRBBDCACNPR8602
012013080982BBDCT39     080BBDCE   /EJ PN      N1000R$  000000000067900000000006790000000000679000000000067900000000006790000000000000000000000000000002000000000000140000000000000095060000000000000351902013081900000010000000000000BRBBDCACNPR8601
012013080982BBDCU25     080BBDCE   /EJ PN      N1000R$  000000000001400000000000140000000000014000000000001400000000000140000000000000000000000000000002000000000000004000000000000000056000000000000249802013091600000010000000000000BRBBDCACNPR8604
012013080982BBDCU26     080BBDCE   /EJ PN      N1000R$  000000000002300000000000250000000000021000000000002200000000000210000000000007000000000000000028000000000000090000000000000002033000000000000259802013091600000010000000000000BRBBDCACNPR8604
012013080982BBDCU27     080BBDCE   /EJ PN      N1000R$  000000000004000000000000400000000000032000000000003500000000000320000000000000000000000005000013000000000000048400000000000001700800000000000267802013091600000010000000000000BRBBDCACNPR8602
012013080982BBDCU28     080BBDCE   /EJ PN      N1000R$  000000000006400000000000760000000000057000000000006300000000000570000000000000000000000009900024000000000000079400000000000005016100000000000277802013091600000010000000000000BRBBDCACNPR8602
012013080982BBDCU29     080BBDCE   /EJ PN      N1000R$  000000000010600000000001330000000000097000000000011300000000001000000000000000000000000000000029000000000000048900000000000005528900000000000287802013091600000010000000000000BRBBDCACNPR8602
012013080982BBDCU30     080BBDCE   /EJ PN      N1000R$  000000000017700000000001780000000000155000000000017000000000001550000000000000000000000000000009000000000000014900000000000002535900000000000297802013091600000010000000000000BRBBDCACNPR8602
012013080982BBDCU31     080BBDCE   /EJ PN      N1000R$  000000000005300000000000540000000000053000000000005300000000000540000000000000000000000000000003000000000000004000000000000000213000000000000272902013091600000010000000000000BRBBDCACNPR8590
012013080982BBDCU33     080BBDCE   /EJ PN      N1000R$  000000000017600000000001970000000000162000000000017400000000001620000000000000000000000000000016000000000000023100000000000004029200000000000297202013091600000010000000000000BRBBDCACNPR8598
012013080982BBDCU75     080BBDCE   /EJ PN      N1000R$  000000000008700000000001020000000000086000000000008900000000000860000000000000000000000000000009000000000000012300000000000001103900000000000282302013091600000010000000000000BRBBDCACNPR8604
012013080982BBDCV22     080BBDCE   /EJ PN      N1000R$  000000000001000000000000100000000000010000000000001000000000000100000000000000000000000000000004000000000000008000000000000000080000000000000220002013102100000010000000000000BRBBDCACNPR8605
012013080982BBDCV23     080BBDCE   /EJ PN      N1000R$  000000000001500000000000150000000000015000000000001500000000000150000000000000000000000000000010000000000000014000000000000000210000000000000230002013102100000010000000000000BRBBDCACNPR8605
012013080982BBDCV24     080BBDCE   /EJ PN      N1000R$  000000000002200000000000230000000000022000000000002200000000000230000000000000000000000000000005000000000000009000000000000000204000000000000239802013102100000010000000000000BRBBDCACNPR8604
012013080982BBDCV25     080BBDCE   /EJ PN      N1000R$  000000000003400000000000340000000000034000000000003400000000000340000000000000000000000000000002000000000000004000000000000000136000000000000249602013102100000010000000000000BRBBDCACNPR8603
012013080982BBDCV26     080BBDCE   /EJ PN      N1000R$  000000000005200000000000530000000000052000000000005200000000000530000000000000000000000000000003000000000000005000000000000000262000000000000259802013102100000010000000000000BRBBDCACNPR8604
012013080982BBDCV27     080BBDCE   /EJ PN      N1000R$  000000000007200000000000720000000000072000000000007200000000000720000000000000000000000000000002000000000000004000000000000000288000000000000267802013102100000010000000000000BRBBDCACNPR8602
012013080982BBDCV28     080BBDCE   /EJ PN      N1000R$  000000000002900000000000290000000000029000000000002900000000000290000000000000000000000000000002000000000000004000000000000000116000000000000245802013102100000010000000000000BRBBDCACNPR8591
012013080982BBDCV29     080BBDCE   /EJ PN      N1000R$  000000000015100000000001510000000000151000000000015100000000001510000000000000000000000000000001000000000000002000000000000000302000000000000287802013102100000010000000000000BRBBDCACNPR8602
012013080982BBDCV30     080BBDCE   /EJ PN      N1000R$  000000000020600000000002060000000000200000000000020200000000002000000000000000000000000000000003000000000000004400000000000000892000000000000297802013102100000010000000000000BRBBDCACNPR8602
012013080912BBFI11B     010FII BB PROGRCI  ER  MB   R$  000000042900000000004298790000000429000000000042943900000004298790000000420100000000042899900002000000000000000002000000000000858879000000000000009999123100000010000000000000BRBBFICTF006197
012013080912BBPO11      010FII BB PRGIICI  ER       R$  000000001109700000000112100000000011050000000001110300000000110960000000011096000000001110000198000000000000012976000000000144072601000000000000009999123100000010000000000000BRBBPOCTF003109
012013080912BBRC11      010FII BB CORP CI  ER       R$  000000000962800000000096280000000009300000000000940000000000094990000000009300000000000949900012000000000000000217000000000002039979000000000000009999123100000010000000000000BRBBRCCTF004123
012013080902BBRK3       010BR BROKERS  ON      NM   R$  000000000055700000000005690000000000548000000000055800000000005690000000000557000000000056902756000000000001415400000000000790764800000000000000009999123100000010000000000000BRBBRKACNOR4108
012013080996BBRK3F      020BR BROKERS  ON      NM   R$  000000000055600000000006470000000000556000000000057800000000006470000000000502000000000064700004000000000000000126000000000000072940000000000000009999123100000010000000000000BRBBRKACNOR4108
012013080902BBSE3       010BBSEGURIDADEON      NM   R$  000000000198000000000019990000000001941000000000197500000000019940000000001994000000000199509431000000000003321900000000006562995400000000000000009999123100000010000000000000BRBBSEACNOR5100
012013080996BBSE3F      020BBSEGURIDADEON      NM   R$  000000000197100000000019960000000001940000000000197200000000019710000000001971000000000197500627000000000000018788000000000037061500000000000000009999123100000010000000000000BRBBSEACNOR5100
012013080962BBSE3T      030BBSEGURIDADEON      NM090R$  000000000202000000000020270000000002015000000000202000000000020160000000000000000000000000000008000000000000200000000000000404041946000000000000009999123100000010000000000000BRBBSEACNOR5100
012013080938BBSEH49E    012BBSE        ON      NM000R$  000000000195000000000019500000000001950000000000195000000000019500000000000000000000000000000001000000000000004300000000000008385000000000000195002013081900000010000000000000BRBBSEACNOR5100
012013080938BBSEI19E    012BBSE        ON      NM000R$  000000000190000000000019000000000001900000000000190000000000019000000000000000000000000000000001000000000000000100000000000000190000000000000190002013091600000010000000000000BRBBSEACNOR5100
012013080902BBTG11      010BTG PACTUAL UNT          R$  000000000279000000000028890000000002768000000000283000000000028400000000002821000000000284001820000000000000459100000000001299571500000000000000009999123100000010000000000000BRBBTGUNT007104
012013080996BBTG11F     020BTG PACTUAL UNT          R$  000000000279800000000028690000000002798000000000282100000000028690000000002600000000000286900005000000000000000176000000000000496600000000000000009999123100000010000000000000BRBBTGUNT007104
012013080912BBVJ11      010FII C JARDIMCI  ER       R$  000000000803000000000080480000000008030000000000804100000000080480000000008040000000000804800014000000000000000545000000000004382607000000000000009999123100000010000000000000BRBBVJCTF001132
012013080912BCFF11B     010FII BC FFII CI  ER  MB   R$  000000001004900000000100500000000009960000000000999900000000100500000000010050000000001010000031000000000000002245000000000022449445000000000000009999123100000010000000000000BRBCFFCTF000141
012013080902BEEF3       010MINERVA     ON      NM   R$  000000000093800000000010050000000000934000000000097700000000010050000000000999000000000100501852000000000000668500000000000653204800000000000000009999123100000010000000000000BRBEEFACNOR6104
012013080996BEEF3F      020MINERVA     ON      NM   R$  000000000098100000000010350000000000973000000000098000000000009800000000000973000000000098500006000000000000000136000000000000133280000000000000009999123100000010000000000000BRBEEFACNOR6104
012013080962BEEF3T      030MINERVA     ON      NM017R$  000000000094300000000009600000000000943000000000095800000000009600000000000000000000000000000008000000000000022000000000000021096015000000000000009999123100000010000000000000BRBEEFACNOR6104
012013080962BEEF3T      030MINERVA     ON      NM031R$  000000000101200000000010130000000001012000000000101200000000010130000000000000000000000000000002000000000000001000000000000001012035000000000000009999123100000010000000000000BRBEEFACNOR6104
012013080902BEES3       010BANESTES    ON  EJ       R$  000000000004600000000000470000000000046000000000004600000000000470000000000046000000000004700006000000000000026200000000000001205300000000000000009999123100000010000000000000BRBEESACNOR9243
012013080902BEES4       010BANESTES    PN  EJ       R$  000000000004400000000000440000000000044000000000004400000000000440000000000043000000000004400002000000000000000200000000000000008800000000000000009999123100000010000000000000BRBEESACNPR6168
012013080902BEMA3       010BEMATECH    ON  ED  NM   R$  000000000072700000000007370000000000722000000000072700000000007250000000000725000000000073100384000000000000082600000000000060071400000000000000009999123100000010000000000000BRBEMAACNOR0114
012013080996BEMA3F      020BEMATECH    ON  ED  NM   R$  000000000072500000000007250000000000725000000000072500000000007250000000000725000000000079800002000000000000000076000000000000055100000000000000009999123100000010000000000000BRBEMAACNOR0114
012013080902BGIP4       010BANESE      PN           R$  000000000470100000000049700000000004700000000000477700000000049700000000004670000000000498000005000000000000000700000000000003344100000000000000009999123100000010000000000000BRBGIPACNPR8178
012013080996BGIP4F      020BANESE      PN           R$  000000000470100000000047010000000004701000000000470100000000047010000000004700000000000570000001000000000000000030000000000000141030000000000000009999123100000010000000000000BRBGIPACNPR8178
012013080902BHGR3       010BHG         ON      NM   R$  000000000150500000000015300000000001473000000000150000000000015280000000001495000000000152800047000000000000077900000000000116896800000000000000009999123100000010000000000000BRBHGRACNOR9101
012013080902BICB4       010BICBANCO    PN      N1   R$  000000000034500000000003450000000000334000000000033900000000003380000000000336000000000033800219000000000000157500000000000053515700000000000000009999123100000010000000000000BRBICBACNPR7131
012013080996BICB4F      020BICBANCO    PN      N1   R$  000000000034400000000003530000000000322000000000032800000000003220000000000322000000000035300012000000000000000126000000000000041396000000000000009999123100000010000000000000BRBICBACNPR7131
012013080902BIOM4       010BIOMM       PN           R$  000000000089000000000008900000000000890000000000089000000000008900000000000830000000000090000001000000000000001000000000000000890000000000000000009999123100000010000000000000BRBIOMACNPR9101
012013080902BISA3       010BROOKFIELD  ON      NM   R$  000000000016900000000001780000000000166000000000017200000000001780000000000177000000000017805710000000000013360700000000002304498300000000000000009999123100000010000000000000BRBISAACNOR8109
012013080996BISA3F      020BROOKFIELD  ON      NM   R$  000000000016900000000001780000000000166000000000017000000000001730000000000173000000000017600041000000000000001384000000000000236346000000000000009999123100000010000000000000BRBISAACNOR8109
012013080962BISA3T      030BROOKFIELD  ON      NM045R$  000000000017500000000001760000000000175000000000017500000000001760000000000000000000000000000002000000000000002000000000000000351515000000000000009999123100000010000000000000BRBISAACNOR8109
012013080962BISA3T      030BROOKFIELD  ON      NM122R$  000000000017200000000001730000000000172000000000017200000000001730000000000000000000000000000002000000000000003000000000000000517658000000000000009999123100000010000000000000BRBISAACNOR8109
012013080912BJRC11      010FII JS RECIMCI  ER       R$  000000008999800000000950000000000089998000000009000500000000950000000000080001000000009000000011000000000000000943000000000084874998000000000000009999123100000010000000000000BRBJRCCTF007109
012013080902BMEB3       010MERC BRASIL ON  EJ       R$  000000000170800000000017080000000001681000000000169400000000016810000000001600000000000179000002000000000000000200000000000000338900000000000000009999123100000010000000000000BRBMEBACNOR8190
012013080996BMIN3F      020MERC INVEST ON           R$  000000000007600000000000760000000000076000000000007600000000000760000000000076000000000000000001000000000000000405000000000000030780000000000000009999123100000010000000000000BRBMINACNOR4158
012013080902BMIN4       010MERC INVEST PN           R$  000000000002400000000000240000000000024000000000002400000000000240000000000024000000000002500001000000000000002000000000000000048000000000000000009999123100000010000000000000BRBMINACNPR1159
012013080912BMLC11B     010FII BMBRC LCCI  ER  MB   R$  000000001191000000000119100000000011700000000001180300000000117990000000011760000000001180000005000000000000000108000000000001274797000000000000009999123100000010000000000000BRBMLCCTF004118
012013080902BMTO4       010BRASMOTOR   PN           R$  000000000008700000000000870000000000087000000000008700000000000870000000000084000000000008600001000000000000001000000000000000087000000000000000009999123100000010000000000000BRBMTOACNPR6065
012013080996BMTO4F      020BRASMOTOR   PN           R$  000000000008400000000000840000000000084000000000008400000000000840000000000081000000000008400001000000000000000003000000000000000252000000000000009999123100000010000000000000BRBMTOACNPR6065
012013080912BNFS11      010FII BANRISULCI  ER       R$  000000001026500000000102650000000010265000000001026500000000102650000000009801000000001026500001000000000000000003000000000000030795000000000000009999123100000010000000000000BRBNFSCTF000111
012013080902BOAC11B     010BANK AMERICADRN     MB   R$  000000000329900000000032990000000003299000000000329900000000032990000000003250000000000331000001000000000000000900000000000002969100000000000000009999123100000010000000000000BRBOACBDR004111
012013080902BOBR4       010BOMBRIL     PN           R$  000000000072000000000007200000000000720000000000072000000000007200000000000680000000000072000005000000000000001000000000000000720000000000000000009999123100000010000000000000BRBOBRACNPR3127
012013080902BOEI11B     010BOEING      DRN ED  MB   R$  000000002403400000000240350000000024034000000002403400000000240350000000021500000000002650000002000000000000000400000000000009613800000000000000009999123100000010000000000000BRBOEIBDR003106
012013080914BOVA11      010ISHARES BOVACI           R$  000000000483600000000049080000000004797000000000488000000000048930000000004893000000000490007305000000000001636080000000007985150010000000000000009999123100000010000000000000BRBOVACTF003101
012013080996BOVA11F     020ISHARES BOVACI           R$  000000000484000000000049000000000004810000000000485500000000049000000000004874000000000493700010000000000000000030000000000000145650000000000000009999123100000010000000000000BRBOVACTF003101
012013080962BOVA11T     030ISHARES BOVACI        090R$  000000000500200000000050030000000005002000000000500200000000050030000000000000000000000000000002000000000000000300000000000001500686000000000000009999123100000010000000000000BRBOVACTF003101
012013080978BOVAH48     070BOVA        CI        000R$  000000000009600000000000960000000000096000000000009600000000000960000000000000000000000000000001000000000000000020000000000000001920000000000480002013081900000010000000000000BRBOVACTF003101
012013080912BPFF11      010FII ABSOLUTOCI  ER       R$  000000000895000000000090000000000008900000000000896200000000090000000000008865000000000900000020000000000000001084000000000009715290000000000000009999123100000010000000000000BRBPFFCTF002104
012013080902BPHA3       010BR PHARMA   ON      NM   R$  000000000098300000000009900000000000971000000000098000000000009800000000000980000000000098702248000000000001335800000000001309487100000000000000009999123100000010000000000000BRBPHAACNOR6102
012013080996BPHA3F      020BR PHARMA   ON      NM   R$  000000000098000000000009900000000000921000000000097300000000009900000000000950000000000109600010000000000000000377000000000000366930000000000000009999123100000010000000000000BRBPHAACNOR6102
012013080902BPNM4       010PANAMERICANOPN      N1   R$  000000000059100000000005940000000000583000000000058800000000005890000000000585000000000058900147000000000000089100000000000052436400000000000000009999123100000010000000000000BRBPNMACNPR6111
012013080996BPNM4F      020PANAMERICANOPN      N1   R$  000000000058900000000006040000000000589000000000058900000000006040000000000584000000000060400002000000000000000100000000000000058960000000000000009999123100000010000000000000BRBPNMACNPR6111
012013080902BRAP3       010BRADESPAR   ON      N1   R$  000000000196000000000020600000000001960000000000202400000000020590000000002044000000000206000076000000000000048700000000000098578000000000000000009999123100000010000000000000BRBRAPACNOR5124
012013080996BRAP3F      020BRADESPAR   ON      N1   R$  000000000195000000000020780000000001926000000000196600000000019260000000001957000000000207400005000000000000000105000000000000206518000000000000009999123100000010000000000000BRBRAPACNOR5124
012013080962BRAP3T      030BRADESPAR   ON      N1031R$  000000000204600000000020470000000002046000000000204600000000020470000000000000000000000000000002000000000000010600000000000021696599000000000000009999123100000010000000000000BRBRAPACNOR5124
012013080902BRAP4       010BRADESPAR   PN      N1   R$  000000000242700000000025140000000002400000000000248600000000025090000000002508000000000250907580000000000002007100000000004990725400000000000000009999123100000010000000000000BRBRAPACNPR2124
012013080996BRAP4F      020BRADESPAR   PN      N1   R$  000000000240100000000025140000000002394000000000247200000000024980000000002393000000000249800089000000000000002293000000000005672584000000000000009999123100000010000000000000BRBRAPACNPR2124
012013080914BRAX11      010ISHARES BRAXCI           R$  000000000400000000000040360000000004000000000000402800000000040290000000000000000000000000000156000000000000005840000000000023524250000000000000009999123100000010000000000000BRBRAXCTF002100
012013080912BRCR11      010FII BC FUND CI  ER       R$  000000001323100000000132890000000013152000000001319000000000131540000000013154000000001321000326000000000000022173000000000292474539000000000000009999123100000010000000000000BRBRCRCTF000132
012013080902BRFS3       010BRF SA      ON      NM   R$  000000000497300000000050650000000004954000000000503200000000050500000000005050000000000505107087000000000002353400000000011844772000000000000000009999123100000010000000000000BRBRFSACNOR8110
012013080996BRFS3F      020BRF SA      ON      NM   R$  000000000497300000000050600000000004941000000000502400000000049410000000004941000000000503600117000000000000003633000000000018254849000000000000009999123100000010000000000000BRBRFSACNOR8110
012013080962BRFS3T      030BRF SA      ON      NM180R$  000000000524600000000052470000000005246000000000524600000000052470000000000000000000000000000002000000000000001300000000000006820921000000000000009999123100000010000000000000BRBRFSACNOR8110
012013080978BRFSI50     070BRFS        ON      NM000R$  000000000012700000000001500000000000127000000000013700000000001500000000000000000000000018000003000000000000003000000000000000412000000000000500002013091600000010000000000000BRBRFSACNOR8110
012013080978BRFSI53     070BRFS        ON      NM000R$  000000000002000000000000200000000000020000000000002000000000000200000000000000000000000000000003000000000000001600000000000000032000000000000530002013091600000010000000000000BRBRFSACNOR8110
012013080902BRIN3       010BR INSURANCEON      NM   R$  000000000240600000000024060000000002340000000000237300000000023880000000002375000000000239501099000000000000231300000000000549027900000000000000009999123100000010000000000000BRBRINACNOR3105
012013080996BRIN3F      020BR INSURANCEON      NM   R$  000000000236500000000024930000000002365000000000238300000000024930000000002217000000000249300006000000000000000222000000000000529131000000000000009999123100000010000000000000BRBRINACNOR3105
012013080902BRIV4       010ALFA INVEST PN           R$  000000000060400000000006040000000000602000000000060300000000006020000000000577000000000060300002000000000000000200000000000000120600000000000000009999123100000010000000000000BRBRIVACNPR3196
012013080902BRKM3       010BRASKEM     ON      N1   R$  000000000124000000000012600000000001240000000000125300000000012530000000001246000000000125300015000000000000009500000000000011909100000000000000009999123100000010000000000000BRBRKMACNOR1110
012013080962BRKM3T      030BRASKEM     ON      N1031R$  000000000126300000000012640000000001263000000000126300000000012640000000000000000000000000000002000000000000004500000000000005685300000000000000009999123100000010000000000000BRBRKMACNOR1110
012013080902BRKM5       010BRASKEM     PNA     N1   R$  000000000175100000000017670000000001720000000000175000000000017640000000001751000000000176406732000000000001479000000000002589382900000000000000009999123100000010000000000000BRBRKMACNPA4110
012013080996BRKM5F      020BRASKEM     PNA     N1   R$  000000000175100000000017680000000001718000000000174800000000017480000000001744000000000175000101000000000000002362000000000004128792000000000000009999123100000010000000000000BRBRKMACNPA4110
012013080902BRML3       010BR MALLS PARON      NM   R$  000000000190300000000019280000000001884000000000191200000000019200000000001919000000000192009754000000000002715900000000005192965900000000000000009999123100000010000000000000BRBRMLACNOR9105
012013080996BRML3F      020BR MALLS PARON      NM   R$  000000000190000000000019220000000001882000000000191000000000019150000000001880000000000192000081000000000000002276000000000004348879000000000000009999123100000010000000000000BRBRMLACNOR9105
012013080962BRML3T      030BR MALLS PARON      NM017R$  000000000193200000000019330000000001932000000000193200000000019330000000000000000000000000000002000000000000001400000000000002704971000000000000009999123100000010000000000000BRBRMLACNOR9105
012013080962BRML3T      030BR MALLS PARON      NM031R$  000000000193000000000019310000000001902000000000192100000000019030000000000000000000000000000008000000000000011200000000000021522071000000000000009999123100000010000000000000BRBRMLACNOR9105
012013080962BRML3T      030BR MALLS PARON      NM045R$  000000000192300000000019240000000001923000000000192300000000019240000000000000000000000000000002000000000000001000000000000001923277000000000000009999123100000010000000000000BRBRMLACNOR9105
012013080962BRML3T      030BR MALLS PARON      NM060R$  000000000194500000000019460000000001945000000000194500000000019460000000000000000000000000000002000000000000001000000000000001945589000000000000009999123100000010000000000000BRBRMLACNOR9105
012013080902BRPR3       010BR PROPERT  ON      NM   R$  000000000189200000000019190000000001883000000000189400000000019030000000001903000000000191006027000000000002195400000000004158347300000000000000009999123100000010000000000000BRBRPRACNOR9112
012013080996BRPR3F      020BR PROPERT  ON      NM   R$  000000000182100000000019250000000001821000000000189500000000018810000000001882000000000193800023000000000000000702000000000001330432000000000000009999123100000010000000000000BRBRPRACNOR9112
012013080962BRPR3T      030BR PROPERT  ON      NM031R$  000000000191400000000019150000000001914000000000191400000000019150000000000000000000000000000002000000000000004500000000000008615573000000000000009999123100000010000000000000BRBRPRACNOR9112
012013080962BRPR3T      030BR PROPERT  ON      NM090R$  000000000194100000000019420000000001941000000000194100000000019420000000000000000000000000000002000000000000004000000000000007766797000000000000009999123100000010000000000000BRBRPRACNOR9112
012013080902BRSR6       010BANRISUL    PNB     N1   R$  000000000144500000000014520000000001399000000000141900000000014310000000001431000000000143502337000000000001040900000000001477664600000000000000009999123100000010000000000000BRBRSRACNPB4133
012013080996BRSR6F      020BANRISUL    PNB     N1   R$  000000000143900000000014500000000001400000000000142500000000014480000000001409000000000144800036000000000000000996000000000001420078000000000000009999123100000010000000000000BRBRSRACNPB4133
012013080962BRSR6T      030BANRISUL    PNB     N1031R$  000000000145300000000014540000000001440000000000145200000000014410000000000000000000000000000004000000000000001800000000000002613777000000000000009999123100000010000000000000BRBRSRACNPB4133
012013080902BSEV3       010BIOSEV      ON      NM   R$  000000000117700000000011770000000001130000000000114100000000011300000000001130000000000120000028000000000000023000000000000026251500000000000000009999123100000010000000000000BRBSEVACNOR3100
012013080982BSEVS99     080BSEVE       ON      NM000R$  000000000036500000000003650000000000365000000000036500000000003650000000000365000000000042000002000000000000010000000000000003650000000000000165702014072100000010000000000000BRBSEVACNOR3100
012013080902BTOW3       010B2W DIGITAL ON      NM   R$  000000000126800000000014940000000001266000000000137400000000014800000000001480000000000148303267000000000001072000000000001474773600000000000000009999123100000010000000000000BRBTOWACNOR8105
012013080996BTOW3F      020B2W DIGITAL ON      NM   R$  000000000123600000000014900000000001236000000000138400000000014400000000001440000000000145900078000000000000001870000000000002598645000000000000009999123100000010000000000000BRBTOWACNOR8105
012013080902BTTL3       010BATTISTELLA ON           R$  000000000008600000000000860000000000086000000000008600000000000860000000000079000000000008600001000000000000000100000000000000008600000000000000009999123100000010000000000000BRBTTLACNOR0105
012013080902BTTL4       010BATTISTELLA PN           R$  000000000010000000000001020000000000100000000000010000000000001020000000000101000000000010200003000000000000006100000000000000615200000000000000009999123100000010000000000000BRBTTLACNPR7105
012013080902BVMF3       010BMFBOVESPA  ON      NM   R$  000000000122400000000012280000000001168000000000118200000000011690000000001169000000000117037527000000000021210300000000025088465000000000000000009999123100000010000000000000BRBVMFACNOR3125
012013080996BVMF3F      020BMFBOVESPA  ON      NM   R$  000000000122000000000012200000000001168000000000118500000000011760000000001176000000000118500145000000000000004360000000000005167204000000000000009999123100000010000000000000BRBVMFACNOR3125
012013080962BVMF3T      030BMFBOVESPA  ON      NM031R$  000000000119400000000011960000000001176000000000118400000000011770000000000000000000000000000016000000000000600400000000000711221175000000000000009999123100000010000000000000BRBVMFACNOR3125
012013080962BVMF3T      030BMFBOVESPA  ON      NM041R$  000000000118900000000011900000000001189000000000118900000000011900000000000000000000000000000002000000000000003500000000000004162168000000000000009999123100000010000000000000BRBVMFACNOR3125
012013080962BVMF3T      030BMFBOVESPA  ON      NM060R$  000000000119600000000011970000000001190000000000119400000000011910000000000000000000000000000004000000000000001400000000000001672009000000000000009999123100000010000000000000BRBVMFACNOR3125
012013080962BVMF3T      030BMFBOVESPA  ON      NM180R$  000000000125100000000012520000000001251000000000125100000000012520000000000000000000000000000002000000000000002500000000000003128360000000000000009999123100000010000000000000BRBVMFACNOR3125
012013080978BVMFH10     070BVMF        ON      NM000R$  000000000018400000000001840000000000184000000000018400000000001840000000000000000000000000000001000000000000000200000000000000036800000000000100002013081900000010000000000000BRBVMFACNOR3125
012013080978BVMFH11     070BVMF        ON      NM000R$  000000000012300000000001230000000000081000000000009500000000000850000000000080000000000008600082000000000000144600000000000013799000000000000110002013081900000010000000000000BRBVMFACNOR3125
012013080978BVMFH12     070BVMF  FM    ON      NM000R$  000000000003600000000000360000000000016000000000002100000000000160000000000016000000000001800422000000000000621500000000000013415200000000000120002013081900000010000000000000BRBVMFACNOR3125
012013080978BVMFH13     070BVMF  FM    ON      NM000R$  000000000000500000000000070000000000002000000000000400000000000030000000000002000000000000300091000000000000412000000000000001668400000000000128902013081900000010000000000000BRBVMFACNOR3124
012013080978BVMFH14     070BVMF        ON      NM000R$  000000000000100000000000010000000000001000000000000100000000000010000000000000000000000000100014000000000000269800000000000000269800000000000138902013081900000010000000000000BRBVMFACNOR3124
012013080978BVMFH15     070BVMF        ON      NM000R$  000000000000100000000000010000000000001000000000000100000000000010000000000000000000000000100001000000000000020000000000000000020000000000000150002013081900000010000000000000BRBVMFACNOR3125
012013080978BVMFH41     070BVMF  FM    ON      NM000R$  000000000005000000000000520000000000050000000000005000000000000520000000000041000000000000000013000000000000024800000000000001248700000000000115002013081900000010000000000000BRBVMFACNOR3125
012013080978BVMFH42     070BVMF  FM    ON      NM000R$  000000000000800000000000080000000000006000000000000700000000000060000000000001000000000001500004000000000000013000000000000000091000000000000125002013081900000010000000000000BRBVMFACNOR3125
012013080978BVMFH43     070BVMF  FM    ON      NM000R$  000000000000200000000000020000000000001000000000000100000000000010000000000001000000000000200003000000000000006800000000000000007800000000000135002013081900000010000000000000BRBVMFACNOR3125
012013080978BVMFH62     070BVMFE       ON      NM000R$  000000000002000000000000200000000000015000000000001700000000000150000000000000000000000001500003000000000000011800000000000000202000000000000122502013081900000010000000000000BRBVMFACNOR3125
012013080978BVMFI10     070BVMF        ON      NM000R$  000000000018900000000001950000000000189000000000019100000000001900000000000000000000000000000006000000000000005200000000000000993200000000000100002013091600000010000000000000BRBVMFACNOR3125
012013080978BVMFI11     070BVMF        ON      NM000R$  000000000011500000000001150000000000111000000000011400000000001110000000000000000000000000000005000000000000011900000000000001364500000000000110002013091600000010000000000000BRBVMFACNOR3125
012013080978BVMFI12     070BVMF  FM    ON      NM000R$  000000000006500000000000650000000000042000000000004800000000000460000000000045000000000005200049000000000000088000000000000004243700000000000120002013091600000010000000000000BRBVMFACNOR3125
012013080978BVMFI13     070BVMF  FM    ON      NM000R$  000000000002000000000000230000000000014000000000001600000000000140000000000013000000000001800144000000000000336300000000000005626300000000000130002013091600000010000000000000BRBVMFACNOR3125
012013080978BVMFI14     070BVMF        ON      NM000R$  000000000000700000000000070000000000004000000000000500000000000040000000000004000000000000500044000000000000152800000000000000865500000000000140002013091600000010000000000000BRBVMFACNOR3125
012013080978BVMFI15     070BVMF        ON      NM000R$  000000000000100000000000010000000000001000000000000100000000000010000000000000000000000000200004000000000000016200000000000000016200000000000150002013091600000010000000000000BRBVMFACNOR3125
012013080978BVMFI41     070BVMF  FM    ON      NM000R$  000000000008000000000000830000000000072000000000007700000000000720000000000000000000000000000017000000000000048800000000000003795900000000000115002013091600000010000000000000BRBVMFACNOR3125
012013080978BVMFI42     070BVMF  FM    ON      NM000R$  000000000002800000000000280000000000025000000000002700000000000270000000000000000000000007800016000000000000043600000000000001184200000000000125002013091600000010000000000000BRBVMFACNOR3125
012013080978BVMFI43     070BVMF  FM    ON      NM000R$  000000000000700000000000090000000000007000000000000800000000000090000000000005000000000002500007000000000000012600000000000000107900000000000135002013091600000010000000000000BRBVMFACNOR3125
012013080978BVMFJ12     070BVMF        ON      NM000R$  000000000005900000000000590000000000059000000000005900000000000590000000000000000000000000000001000000000000000600000000000000035400000000000120002013102100000010000000000000BRBVMFACNOR3125
012013080978BVMFJ13     070BVMF        ON      NM000R$  000000000003500000000000350000000000028000000000002900000000000280000000000000000000000000000003000000000000002400000000000000070000000000000130002013102100000010000000000000BRBVMFACNOR3125
012013080978BVMFJ14     070BVMF        ON      NM000R$  000000000001300000000000130000000000013000000000001300000000000130000000000002000000000002000001000000000000002500000000000000032500000000000140002013102100000010000000000000BRBVMFACNOR3125
012013080978BVMFK13     070BVMF        ON      NM000R$  000000000004000000000000400000000000038000000000003900000000000380000000000000000000000000000002000000000000002100000000000000082400000000000130002013111800000010000000000000BRBVMFACNOR3125
012013080982BVMFT10     080BVMFE       ON      NM000R$  000000000000200000000000020000000000002000000000000200000000000020000000000000000000000010000001000000000000000100000000000000000200000000000100002013081900000010000000000000BRBVMFACNOR3125
012013080982BVMFT11     080BVMFE FM    ON      NM000R$  000000000000600000000000090000000000005000000000000600000000000090000000000001000000000000800059000000000000033700000000000000233100000000000110002013081900000010000000000000BRBVMFACNOR3125
012013080982BVMFT12     080BVMFE FM    ON      NM000R$  000000000003500000000000410000000000029000000000003500000000000400000000000031000000000000000257000000000000494700000000000017359500000000000120002013081900000010000000000000BRBVMFACNOR3125
012013080982BVMFT13     080BVMFE       ON      NM000R$  000000000011000000000001100000000000098000000000010400000000000980000000000000000000000000000002000000000000001000000000000000104000000000000128902013081900000010000000000000BRBVMFACNOR3124
012013080982BVMFT41     080BVMFE FM    ON      NM000R$  000000000001400000000000180000000000013000000000001400000000000160000000000017000000000002000029000000000000049300000000000000709700000000000115002013081900000010000000000000BRBVMFACNOR3125
012013080982BVMFT42     080BVMFE FM    ON      NM000R$  000000000006800000000000680000000000065000000000006500000000000650000000000000000000000000000008000000000000020800000000000001365400000000000125002013081900000010000000000000BRBVMFACNOR3125
012013080982BVMFT43     080BVMFE       ON      NM000R$  000000000016100000000001610000000000161000000000016100000000001610000000000000000000000000000002000000000000003500000000000000563500000000000135002013081900000010000000000000BRBVMFACNOR3125
012013080982BVMFT61     080BVMFE       ON      NM000R$  000000000002400000000000240000000000024000000000002400000000000240000000000000000000000000000001000000000000000100000000000000002400000000000117502013081900000010000000000000BRBVMFACNOR3125
012013080982BVMFU11     080BVMFE FM    ON      NM000R$  000000000001400000000000230000000000014000000000002000000000000200000000000013000000000000000009000000000000014300000000000000298800000000000110002013091600000010000000000000BRBVMFACNOR3125
012013080982BVMFU12     080BVMFE FM    ON      NM000R$  000000000004200000000000620000000000038000000000005600000000000580000000000049000000000006300092000000000000046700000000000002645100000000000120002013091600000010000000000000BRBVMFACNOR3125
012013080982BVMFU41     080BVMFE FM    ON      NM000R$  000000000003700000000000370000000000037000000000003700000000000370000000000000000000000000000001000000000000000100000000000000003700000000000115002013091600000010000000000000BRBVMFACNOR3125
012013080982BVMFU42     080BVMFE FM    ON      NM000R$  000000000008900000000000900000000000081000000000008800000000000900000000000074000000000000000003000000000000005600000000000000497800000000000125002013091600000010000000000000BRBVMFACNOR3125
012013080982BVMFV13     080BVMFE       ON      NM000R$  000000000012500000000001300000000000125000000000012700000000001300000000000000000000000000000002000000000000001000000000000000127500000000000130002013102100000010000000000000BRBVMFACNOR3125
012013080902CAMB4       010CAMBUCI     PN           R$  000000000018300000000001840000000000183000000000018300000000001840000000000184000000000019300005000000000000000800000000000000146900000000000000009999123100000010000000000000BRCAMBACNPR1117
012013080902CARD3       010CSU CARDSYSTON      NM   R$  000000000033000000000003300000000000321000000000032400000000003250000000000322000000000032500013000000000000013500000000000004384000000000000000009999123100000010000000000000BRCARDACNOR9105
012013080996CARD3F      020CSU CARDSYSTON      NM   R$  000000000032100000000003210000000000321000000000032100000000003210000000000321000000000033300001000000000000000090000000000000028890000000000000009999123100000010000000000000BRCARDACNOR9105
012013080902CBEE3       010AMPLA ENERG ON *         R$  000000000013300000000001330000000000133000000000013300000000001330000000000118000000000013000001000000000000100000000000000000013300000000000000009999123100010000000000000000BRCBEEACNOR3149
012013080902CBMA4       010COBRASMA    PN           R$  000000000000500000000000050000000000004000000000000400000000000040000000000004000000000000500003000000000000190000000000000000850000000000000000009999123100000010000000000000BRCBMAACNPR1124
012013080908CCHI3       010CHIARELLI   ON           R$  000000000002900000000000310000000000029000000000002900000000000310000000000030000000000003100021000000000000320000000000000009490000000000000000009999123100000010000000000000BRCCHIACNOR5123
012013080996CCHI3F      020CHIARELLI   ON           R$  000000000002900000000000310000000000027000000000002900000000000310000000000027000000000002900006000000000000016006000000000000479395000000000000009999123100000010000000000000BRCCHIACNOR5123
012013080908CCHI4       010CHIARELLI   PN           R$  000000000002400000000000240000000000024000000000002400000000000240000000000022000000000002400001000000000000010000000000000000240000000000000000009999123100000010000000000000BRCCHIACNPR2122
012013080902CCPR3       010CYRE COM-CCPON      NM   R$  000000000219900000000022110000000002199000000000220100000000022110000000002210000000000237000003000000000000000900000000000001980900000000000000009999123100000010000000000000BRCCPRACNOR9107
012013080902CCRO3       010CCR SA      ON      NM   R$  000000000173000000000017740000000001721000000000174800000000017670000000001763000000000176711417000000000005719300000000010001232500000000000000009999123100000010000000000000BRCCROACNOR2122
012013080996CCRO3F      020CCR SA      ON      NM   R$  000000000171500000000017740000000001715000000000174400000000017630000000001750000000000180000059000000000000001908000000000003327780000000000000009999123100000010000000000000BRCCROACNOR2122
012013080978CCROI18     070CCRO        ON      NM000R$  000000000001500000000000150000000000015000000000001500000000000150000000000000000000000000000002000000000000002000000000000000030000000000000180002013091600000010000000000000BRCCROACNOR2122
012013080902CCXC3       010CCX CARVAO  ON      NM   R$  000000000008400000000000870000000000081000000000008300000000000820000000000082000000000008400347000000000001138300000000000095430600000000000000009999123100000010000000000000BRCCXCACNOR5100
012013080996CCXC3F      020CCX CARVAO  ON      NM   R$  000000000008200000000000860000000000082000000000008400000000000820000000000083000000000008400006000000000000000251000000000000021032000000000000009999123100000010000000000000BRCCXCACNOR5100
012013080902CEDO4       010CEDRO       PN      N1   R$  000000000088000000000008900000000000880000000000088500000000008900000000000850000000000089000002000000000000000200000000000000177000000000000000009999123100000010000000000000BRCEDOACNPR5126
012013080908CELP3       010CELPA       ON           R$  000000000006400000000000640000000000064000000000006400000000000640000000000060000000000006400004000000000000036000000000000002304000000000000000009999123100000010000000000000BRCELPACNOR8112
012013080912CEOC11B     010FII CEO CCP CI  ER  MB   R$  000000000910000000000091500000000009020000000000908700000000091500000000009001000000000915000016000000000000000645000000000005861617000000000000009999123100000010000000000000BRCEOCCTF003109
012013080902CESP3       010CESP        ON      N1   R$  000000000169500000000017300000000001690000000000170000000000017040000000001605000000000170500010000000000000006700000000000011392100000000000000009999123100000010000000000000BRCESPACNOR3159
012013080902CESP6       010CESP        PNB     N1   R$  000000000211900000000021950000000002118000000000215400000000021500000000002145000000000215004140000000000000998000000000002150351700000000000000009999123100000010000000000000BRCESPACNPB4118
012013080996CESP6F      020CESP        PNB     N1   R$  000000000214000000000021900000000002116000000000215200000000021440000000002120000000000216000019000000000000000640000000000001376592000000000000009999123100000010000000000000BRCESPACNPB4118
012013080962CESP6T      030CESP        PNB     N1031R$  000000000216800000000021690000000002168000000000216800000000021690000000000000000000000000000002000000000000007000000000000015180530000000000000009999123100000010000000000000BRCESPACNPB4118
012013080902CGAS3       010COMGAS      ON           R$  000000000513200000000051500000000005100000000000514400000000051500000000004702000000000515000005000000000000001300000000000006688100000000000000009999123100000010000000000000BRCGASACNOR0132
012013080902CGAS5       010COMGAS      PNA          R$  000000000552900000000055800000000005491000000000552700000000055800000000005580000000000559900035000000000000025500000000000140939700000000000000009999123100000010000000000000BRCGASACNPA3129
012013080996CGAS5F      020COMGAS      PNA          R$  000000000559900000000056990000000005570000000000561800000000055700000000005311000000000560000008000000000000000109000000000000612368000000000000009999123100000010000000000000BRCGASACNPA3129
012013080902CGRA4       010GRAZZIOTIN  PN           R$  000000000163100000000016890000000001630000000000166400000000016700000000001665000000000168500024000000000000007400000000000012313700000000000000009999123100000010000000000000BRCGRAACNPR9061
012013080996CGRA4F      020GRAZZIOTIN  PN           R$  000000000159000000000015900000000001590000000000159000000000015900000000001500000000000167000001000000000000000050000000000000079500000000000000009999123100000010000000000000BRCGRAACNPR9061
012013080902CIEL3       010CIELO       ON      NM   R$  000000000557100000000056650000000005545000000000560100000000056250000000005625000000000562605962000000000001430900000000008015529700000000000000009999123100000010000000000000BRCIELACNOR3111
012013080996CIEL3F      020CIELO       ON      NM   R$  000000000560200000000056600000000005550000000000560100000000056050000000005568000000000563000106000000000000002942000000000016483252000000000000009999123100000010000000000000BRCIELACNOR3111
012013080902CIQU4       010CACIQUE     PN           R$  000000000071000000000007100000000000710000000000071000000000007100000000000633000000000090000001000000000000000100000000000000071000000000000000009999123100000010000000000000BRCIQUACNPR5157
012013080902CLSC4       010CELESC      PN      N2   R$  000000000190000000000019000000000001850000000000186200000000018650000000001855000000000186500023000000000000003000000000000005587000000000000000009999123100000010000000000000BRCLSCACNPR3107
012013080902CMIG3       010CEMIG       ON      N1   R$  000000000203000000000020800000000002004000000000201400000000020100000000002010000000000202000393000000000000133900000000000269779500000000000000009999123100000010000000000000BRCMIGACNOR6208
012013080996CMIG3F      020CEMIG       ON      N1   R$  000000000210000000000021000000000002010000000000202500000000020100000000002010000000000210000020000000000000000535000000000001083646000000000000009999123100000010000000000000BRCMIGACNOR6208
012013080962CMIG3T      030CEMIG       ON      N1180R$  000000000212000000000021330000000002120000000000212100000000021330000000000000000000000000000004000000000000000224000000000000475197000000000000009999123100000010000000000000BRCMIGACNOR6208
012013080902CMIG4       010CEMIG       PN      N1   R$  000000000206800000000020680000000002016000000000203700000000020470000000002047000000000204810397000000000003783400000000007709617600000000000000009999123100000010000000000000BRCMIGACNPR3208
012013080996CMIG4F      020CEMIG       PN      N1   R$  000000000206500000000020650000000002020000000000203500000000020400000000002043000000000205700141000000000000004442000000000009042936000000000000009999123100000010000000000000BRCMIGACNPR3208
012013080962CMIG4S      030CEMIG       PN      N1090R$  000000000206700000000020680000000002067000000000206700000000020680000000000000000000000000000002000000000000000200000000000000413494000000000000009999123100000010000000000000BRCMIGACNPR3208
012013080962CMIG4T      030CEMIG       PN      N1122R$  000000000207400000000020750000000002074000000000207400000000020750000000000000000000000000000002000000000000001000000000000002074961000000000000009999123100000010000000000000BRCMIGACNPR3208
012013080962CMIG4T      030CEMIG       PN      N1180R$  000000000213100000000021330000000002131000000000213100000000021330000000000000000000000000000004000000000000000225000000000000479629000000000000009999123100000010000000000000BRCMIGACNPR3208
012013080962CMIG4T      030CEMIG       PN      N1017R$  000000000205800000000020590000000002058000000000205800000000020590000000000000000000000000000002000000000000004000000000000008235260000000000000009999123100000010000000000000BRCMIGACNPR3208
012013080962CMIG4T      030CEMIG       PN      N1029R$  000000000206200000000020630000000002046000000000205800000000020470000000000000000000000000000004000000000000006700000000000013795286000000000000009999123100000010000000000000BRCMIGACNPR3208
012013080962CMIG4T      030CEMIG       PN      N1031R$  000000000205900000000020640000000002057000000000205900000000020610000000000000000000000000000010000000000000002100000000000004325897000000000000009999123100000010000000000000BRCMIGACNPR3208
012013080978CMIGH22     070CMIG        PN      N1000R$  000000000000400000000000040000000000004000000000000400000000000040000000000000000000000001000014000000000000014000000000000000056000000000000220002013081900000010000000000000BRCMIGACNPR3208
012013080978CMIGI21     070CMIG        PN      N1000R$  000000000005000000000000500000000000050000000000005000000000000500000000000000000000000000000001000000000000000200000000000000010000000000000210002013091600000010000000000000BRCMIGACNPR3208
012013080902COCE3       010COELCE      ON           R$  000000000410100000000041470000000004024000000000411300000000041180000000004033000000000411800009000000000000001500000000000006170300000000000000009999123100000010000000000000BRCOCEACNOR0132
012013080902COCE5       010COELCE      PNA          R$  000000000398000000000040200000000003914000000000396000000000039240000000003924000000000398500172000000000000051100000000000202384700000000000000009999123100000010000000000000BRCOCEACNPA3133
012013080996COCE5F      020COELCE      PNA          R$  000000000396000000000042990000000003914000000000397500000000042990000000003956000000000438700022000000000000000458000000000001820918000000000000009999123100000010000000000000BRCOCEACNPA3133
012013080996CORR4F      020COR RIBEIRO PN           R$  000000001400100000000140010000000014001000000001400100000000140010000000012000000000001950000001000000000000000001000000000000014001000000000000009999123100000010000000000000BRCORRACNPR7015
012013080902CPFE3       010CPFL ENERGIAON      NM   R$  000000000214600000000021630000000002112000000000214500000000021500000000002139000000000215004568000000000000985500000000002114359200000000000000009999123100000010000000000000BRCPFEACNOR0121
012013080996CPFE3F      020CPFL ENERGIAON      NM   R$  000000000215000000000021690000000002064000000000214500000000021690000000002065000000000216900036000000000000001110000000000002381954000000000000009999123100000010000000000000BRCPFEACNOR0121
012013080902CPLE3       010COPEL       ON      N1   R$  000000000237900000000023790000000002330000000000236300000000023660000000002201000000000236600050000000000000006600000000000015601500000000000000009999123100000010000000000000BRCPLEACNOR8128
012013080902CPLE6       010COPEL       PNB     N1   R$  000000000302400000000031000000000003000000000000305800000000030500000000003050000000000305203874000000000000768900000000002351813100000000000000009999123100000010000000000000BRCPLEACNPB9125
012013080996CPLE6F      020COPEL       PNB     N1   R$  000000000300000000000030880000000003000000000000304800000000030300000000003031000000000310000017000000000000000512000000000001560716000000000000009999123100000010000000000000BRCPLEACNPB9125
012013080902CPRE3       010CPFL RENOVAVON      NM   R$  000000000118800000000012150000000001187000000000119000000000012150000000001190000000000121500076000000000000302300000000000359809400000000000000009999123100000010000000000000BRCPREACNOR5100
012013080996CPRE3F      020CPFL RENOVAVON      NM   R$  000000000119000000000012050000000001190000000000119000000000012050000000001171000000000120500012000000000000000401000000000000477423000000000000009999123100000010000000000000BRCPREACNOR5100
012013080902CRDE3       010CR2         ON      NM   R$  000000000040100000000004140000000000401000000000041000000000004140000000000405000000000041400004000000000000003600000000000001477100000000000000009999123100000010000000000000BRCRDEACNOR1108
012013080902CREM3       010CREMER      ON      NM   R$  000000000148000000000014980000000001455000000000147000000000014650000000001454000000000149800026000000000000007800000000000011469900000000000000009999123100000010000000000000BRCREMACNOR2166
012013080996CREM3F      020CREMER      ON      NM   R$  000000000147600000000015120000000001476000000000150900000000015120000000001300000000000150000002000000000000000091000000000000137340000000000000009999123100000010000000000000BRCREMACNOR2166
012013080902CRIV4       010ALFA FINANC PN           R$  000000000048000000000004880000000000480000000000048000000000004880000000000467000000000048800002000000000000005100000000000002448800000000000000009999123100000010000000000000BRCRIVACNPR1189
012013080902CRUZ3       010SOUZA CRUZ  ON           R$  000000000256800000000026280000000002531000000000258500000000025840000000002584000000000258505465000000000001566800000000004050849200000000000000009999123100000010000000000000BRCRUZACNOR0246
012013080996CRUZ3F      020SOUZA CRUZ  ON           R$  000000000257000000000026890000000002532000000000258500000000026780000000002555000000000260000105000000000000003254000000000008414307000000000000009999123100000010000000000000BRCRUZACNOR0246
012013080962CRUZ3T      030SOUZA CRUZ  ON        017R$  000000000261100000000026120000000002611000000000261100000000026120000000000000000000000000000002000000000000020000000000000052236347000000000000009999123100000010000000000000BRCRUZACNOR0246
012013080962CRUZ3T      030SOUZA CRUZ  ON        031R$  000000000255600000000026370000000002556000000000258100000000026370000000000000000000000000000008000000000000013300000000000034335920000000000000009999123100000010000000000000BRCRUZACNOR0246
012013080962CRUZ3T      030SOUZA CRUZ  ON        040R$  000000000261500000000026160000000002615000000000261500000000026160000000000000000000000000000002000000000000000100000000000000261512000000000000009999123100000010000000000000BRCRUZACNOR0246
012013080962CRUZ3T      030SOUZA CRUZ  ON        060R$  000000000259200000000025930000000002592000000000259200000000025930000000000000000000000000000002000000000000002000000000000005185333000000000000009999123100000010000000000000BRCRUZACNOR0246
012013080978CRUZL34     070CRUZ        ON        000R$  000000000001000000000000100000000000010000000000001000000000000100000000000000000000000000000002000000000000005000000000000000050000000000000340002013121600000010000000000000BRCRUZACNOR0246
012013080978CRUZL57     070CRUZ        ON        000R$  000000000016000000000001600000000000160000000000016000000000001600000000000000000000000000000002000000000000005000000000000000800000000000000275002013121600000010000000000000BRCRUZACNOR0246
012013080902CSAN3       010COSAN       ON  ED  NM   R$  000000000419900000000042390000000004106000000000416600000000042180000000004218000000000421906555000000000002032700000000008469215100000000000000009999123100000010000000000000BRCSANACNOR6108
012013080996CSAN3F      020COSAN       ON  ED  NM   R$  000000000418600000000043160000000004121000000000417200000000042320000000004202000000000430900041000000000000001161000000000004849236000000000000009999123100000010000000000000BRCSANACNOR6108
012013080962CSAN3T      030COSAN       ON  ED  NM090R$  000000000422100000000042560000000004221000000000423900000000042420000000000000000000000000000012000000000000273000000000001157381427000000000000009999123100000010000000000000BRCSANACNOR6108
012013080902CSMG3       010COPASA      ON      NM   R$  000000000331300000000033130000000003190000000000322700000000032110000000003210000000000321102196000000000000442100000000001426781300000000000000009999123100000010000000000000BRCSMGACNOR5127
012013080996CSMG3F      020COPASA      ON      NM   R$  000000000326600000000032660000000003196000000000322300000000031960000000003212000000000330000013000000000000000469000000000001511482000000000000009999123100000010000000000000BRCSMGACNOR5127
012013080962CSMG3T      030COPASA      ON      NM031R$  000000000323100000000032330000000003231000000000323100000000032330000000000000000000000000000004000000000000001100000000000003554442000000000000009999123100000010000000000000BRCSMGACNOR5127
012013080962CSMG3T      030COPASA      ON      NM045R$  000000000326100000000032620000000003261000000000326100000000032620000000000000000000000000000002000000000000001000000000000003261331000000000000009999123100000010000000000000BRCSMGACNOR5127
012013080914CSMO11      010ISHARES CSMOCI           R$  000000000461000000000046660000000004610000000000462900000000046610000000003800000000000467000004000000000000001150000000000005323840000000000000009999123100000010000000000000BRCSMOCTF002100
012013080902CSNA3       010SID NACIONALON  EDJ      R$  000000000068000000000007090000000000679000000000069600000000007060000000000706000000000070714102000000000008404800000000005855076000000000000000009999123100000010000000000000BRCSNAACNOR6243
012013080996CSNA3F      020SID NACIONALON  EDJ      R$  000000000068500000000007090000000000683000000000069400000000007050000000000702000000000071000094000000000000002996000000000002080654000000000000009999123100000010000000000000BRCSNAACNOR6243
012013080962CSNA3T      030SID NACIONALON  EDJ   017R$  000000000070000000000007010000000000696000000000069700000000007000000000000000000000000000000006000000000000022400000000000015616584000000000000009999123100000010000000000000BRCSNAACNOR6243
012013080962CSNA3T      030SID NACIONALON  EDJ   031R$  000000000071300000000007140000000000713000000000071300000000007140000000000000000000000000000002000000000000003000000000000002141417000000000000009999123100000010000000000000BRCSNAACNOR6243
012013080962CSNA3T      030SID NACIONALON  EDJ   041R$  000000000069000000000006910000000000690000000000069000000000006910000000000000000000000000000002000000000000002000000000000001380312000000000000009999123100000010000000000000BRCSNAACNOR6243
012013080962CSNA3T      030SID NACIONALON  EDJ   060R$  000000000070700000000007080000000000707000000000070700000000007080000000000000000000000000000002000000000000030000000000000021238416000000000000009999123100000010000000000000BRCSNAACNOR6243
012013080962CSNA3T      030SID NACIONALON  EDJ   120R$  000000000070400000000007050000000000704000000000070400000000007050000000000000000000000000000002000000000000001000000000000000704316000000000000009999123100000010000000000000BRCSNAACNOR6243
012013080962CSNA3T      030SID NACIONALON  EDJ   122R$  000000000071200000000007130000000000712000000000071200000000007130000000000000000000000000000002000000000000002000000000000001425060000000000000009999123100000010000000000000BRCSNAACNOR6243
012013080962CSNA3T      030SID NACIONALON  EDJ   180R$  000000000071400000000007150000000000714000000000071400000000007150000000000000000000000000000002000000000000001000000000000000714985000000000000009999123100000010000000000000BRCSNAACNOR6243
012013080978CSNAH6      070CSNA    /EDJON        000R$  000000000011300000000001230000000000108000000000011200000000001230000000000125000000000000000008000000000000019700000000000002224100000000000058002013081900000010000000000000BRCSNAACNOR6242
012013080978CSNAH62     070CSNA    /EDJON        000R$  000000000010000000000001000000000000100000000000010000000000001000000000000000000000000000000003000000000000005000000000000000500000000000000060002013081900000010000000000000BRCSNAACNOR6242
012013080978CSNAH66     070CSNA  FM/EDJON        000R$  000000000006100000000000610000000000061000000000006100000000000610000000000000000000000000000003000000000000008000000000000000488000000000000064002013081900000010000000000000BRCSNAACNOR6242
012013080978CSNAH68     070CSNA  FM/EDJON        000R$  000000000004900000000000520000000000049000000000005000000000000510000000000000000000000000000006000000000000013000000000000000650500000000000066002013081900000010000000000000BRCSNAACNOR6242
012013080978CSNAH7      070CSNA  FM/EDJON        000R$  000000000002700000000000390000000000026000000000003500000000000380000000000034000000000003800025000000000000068600000000000002419100000000000068002013081900000010000000000000BRCSNAACNOR6242
012013080978CSNAH72     070CSNA  FM/EDJON        000R$  000000000001900000000000250000000000019000000000002200000000000250000000000000000000000000000011000000000000023500000000000000524600000000000070002013081900000010000000000000BRCSNAACNOR6242
012013080978CSNAH74     070CSNA    /EDJON        000R$  000000000000900000000000090000000000009000000000000900000000000090000000000000000000000000000001000000000000000100000000000000000900000000000072002013081900000010000000000000BRCSNAACNOR6242
012013080978CSNAH78     070CSNA    /EDJON        000R$  000000000000300000000000030000000000003000000000000300000000000030000000000000000000000000000001000000000000008000000000000000024000000000000076002013081900000010000000000000BRCSNAACNOR6242
012013080978CSNAH8      070CSNA    /EDJON        000R$  000000000000100000000000010000000000001000000000000100000000000010000000000000000000000004900001000000000000003500000000000000003500000000000078002013081900000010000000000000BRCSNAACNOR6242
012013080978CSNAI64     070CSNA  FM/EDJON        000R$  000000000008800000000000880000000000088000000000008800000000000880000000000000000000000000000001000000000000001300000000000000114400000000000062002013091600000010000000000000BRCSNAACNOR6242
012013080978CSNAI66     070CSNA  FM/EDJON        000R$  000000000007500000000000780000000000075000000000007600000000000780000000000000000000000000000002000000000000004000000000000000306000000000000064002013091600000010000000000000BRCSNAACNOR6242
012013080978CSNAI7      070CSNA  FM/EDJON        000R$  000000000004800000000000610000000000046000000000005200000000000610000000000047000000000006300035000000000000097500000000000005103000000000000068002013091600000010000000000000BRCSNAACNOR6242
012013080978CSNAI8      070CSNA    /EDJON        000R$  000000000001500000000000170000000000015000000000001500000000000170000000000006000000000004800008000000000000005000000000000000079200000000000078002013091600000010000000000000BRCSNAACNOR6242
012013080978CSNAI82     070CSNA    /EDJON        000R$  000000000001200000000000120000000000012000000000001200000000000120000000000000000000000001500005000000000000020400000000000000244800000000000080002013091600000010000000000000BRCSNAACNOR6242
012013080978CSNAJ7      070CSNA    /EDJON        000R$  000000000007000000000000700000000000070000000000007000000000000700000000000000000000000000000002000000000000000600000000000000042000000000000068002013102100000010000000000000BRCSNAACNOR6242
012013080978CSNAL80     070CSNA        ON        000R$  000000000004000000000000410000000000036000000000004000000000000360000000000000000000000000000004000000000000321700000000000012988300000000000080002013121600000010000000000000BRCSNAACNOR6243
012013080982CSNAT66     080CSNAE FM/EDJON        000R$  000000000000500000000000050000000000005000000000000500000000000050000000000000000000000000000001000000000000006500000000000000032500000000000064002013081900000010000000000000BRCSNAACNOR6242
012013080982CSNAT7      080CSNAE FM/EDJON        000R$  000000000002000000000000200000000000013000000000001900000000000140000000000000000000000004500010000000000000031400000000000000604200000000000068002013081900000010000000000000BRCSNAACNOR6242
012013080982CSNAT72     080CSNAE   /EDJON        000R$  000000000003100000000000310000000000031000000000003100000000000310000000000000000000000003000002000000000000004000000000000000124000000000000070002013081900000010000000000000BRCSNAACNOR6242
012013080982CSNAU64     080CSNAE FM/EDJON        000R$  000000000001500000000000150000000000015000000000001500000000000150000000000000000000000000000001000000000000002000000000000000030000000000000062002013091600000010000000000000BRCSNAACNOR6242
012013080982CSNAU7      080CSNAE FM/EDJON        000R$  000000000003900000000000390000000000031000000000003400000000000310000000000031000000000005100041000000000000022000000000000000767900000000000068002013091600000010000000000000BRCSNAACNOR6242
012013080982CSNAV6      080CSNAE   /EDJON        000R$  000000000001700000000000170000000000014000000000001500000000000140000000000014000000000002200007000000000000003500000000000000053000000000000058002013102100000010000000000000BRCSNAACNOR6242
012013080982CSNAV7      080CSNAE   /EDJON        000R$  000000000004400000000000440000000000042000000000004200000000000420000000000041000000000000000003000000000000000500000000000000021400000000000068002013102100000010000000000000BRCSNAACNOR6242
012013080982CSNAX56     080CSNAE   /EDJON        000R$  000000000001500000000000150000000000015000000000001500000000000150000000000000000000000000000003000000000000321700000000000004825500000000000056002013121600000010000000000000BRCSNAACNOR6243
012013080982CSNAX68     080CSNAE   /EDJON        000R$  000000000005000000000000500000000000045000000000004900000000000450000000000000000000000000000003000000000000321800000000000016045000000000000066002013121600000010000000000000BRCSNAACNOR6242
012013080902CTAX11      010CONTAX      UNT     N2   R$  000000000161900000000016190000000001595000000000160400000000016000000000001600000000000160400089000000000000232800000000000373603900000000000000009999123100000010000000000000BRCTAXCDAM19100
012013080996CTAX11F     020CONTAX      UNT     N2   R$  000000000162900000000016290000000001615000000000161700000000016150000000001555000000000188800002000000000000000063000000000000101927000000000000009999123100000010000000000000BRCTAXCDAM19100
012013080902CTAX4       010CONTAX      PN      N2   R$  000000000030800000000003100000000000303000000000030500000000003040000000000304000000000030800055000000000000015300000000000004680500000000000000009999123100000010000000000000BRCTAXACNPR0114
012013080996CTAX4F      020CONTAX      PN      N2   R$  000000000030700000000003070000000000307000000000030700000000003070000000000271000000000032200002000000000000000048000000000000014736000000000000009999123100000010000000000000BRCTAXACNPR0114
012013080902CTGP11B     010CITIGROUP   DRN ED  MB   R$  000000001172500000000117250000000011725000000001172500000000117250000000011595000000001172500001000000000000000200000000000002345000000000000000009999123100000010000000000000BRCTGPBDR000111
012013080902CTIP3       010CETIP       ON      NM   R$  000000000234900000000023950000000002320000000000237000000000023900000000002380000000000239009987000000000004447800000000010542275900000000000000009999123100000010000000000000BRCTIPACNOR2119
012013080996CTIP3F      020CETIP       ON      NM   R$  000000000234500000000023910000000002311000000000235900000000023820000000002381000000000238900103000000000000003827000000000009034259000000000000009999123100000010000000000000BRCTIPACNOR2119
012013080902CTKA4       010KARSTEN     PN           R$  000000000008500000000000850000000000085000000000008500000000000850000000000082000000000008500003000000000000001500000000000000127500000000000000009999123100000010000000000000BRCTKAACNPR7041
012013080902CTNM3       010COTEMINAS   ON           R$  000000000029800000000002980000000000298000000000029800000000002980000000000250000000000029900001000000000000000100000000000000029800000000000000009999123100000010000000000000BRCTNMACNOR9129
012013080902CTNM4       010COTEMINAS   PN           R$  000000000023000000000002340000000000230000000000023000000000002340000000000234000000000023800005000000000000012900000000000002977000000000000000009999123100000010000000000000BRCTNMACNPR6128
012013080902CTSA3       010SANTANENSE  ON           R$  000000000056900000000005690000000000568000000000056800000000005680000000000533000000000057000002000000000000003100000000000001760900000000000000009999123100000010000000000000BRCTSAACNOR3051
012013080962CTSA3T      030SANTANENSE  ON        087R$  000000000057800000000005790000000000578000000000057800000000005790000000000000000000000000000002000000000000003000000000000001736546000000000000009999123100000010000000000000BRCTSAACNOR3051
012013080912CXTL11      010FII CX TRX  CI  ER       R$  000000008000000000000800000000000080000000000008000000000000800000000000078000000000008000000001000000000000000060000000000004800000000000000000009999123100000010000000000000BRCXTLCTF003121
012013080902CYRE3       010CYRELA REALTON      NM   R$  000000000169600000000017330000000001658000000000168900000000016890000000001689000000000169010314000000000003506000000000005924299100000000000000009999123100000010000000000000BRCYREACNOR7125
012013080996CYRE3F      020CYRELA REALTON      NM   R$  000000000168100000000017350000000001661000000000169500000000017350000000001660000000000173500028000000000000000732000000000001241050000000000000009999123100000010000000000000BRCYREACNOR7125
012013080978CYREH16     070CYRE  FM    ON      NM000R$  000000000009700000000001320000000000075000000000010600000000000990000000000000000000000000000051000000000000078200000000000008353900000000000160002013081900000010000000000000BRCYREACNOR7125
012013080978CYREH17     070CYRE  FM    ON      NM000R$  000000000002900000000000490000000000029000000000004000000000000350000000000000000000000000000006000000000000009200000000000000370000000000000170002013081900000010000000000000BRCYREACNOR7125
012013080978CYREH18     070CYRE  FM    ON      NM000R$  000000000000200000000000020000000000002000000000000200000000000020000000000000000000000000000003000000000000010500000000000000021000000000000180002013081900000010000000000000BRCYREACNOR7125
012013080978CYREH46     070CYRE  FM    ON      NM000R$  000000000005900000000000780000000000054000000000006400000000000570000000000000000000000000000022000000000000044800000000000002902500000000000165002013081900000010000000000000BRCYREACNOR7125
012013080978CYREH47     070CYRE  FM    ON      NM000R$  000000000001000000000000100000000000009000000000000900000000000090000000000000000000000000000003000000000000003700000000000000036800000000000175002013081900000010000000000000BRCYREACNOR7125
012013080982CYRET16     080CYREE FM    ON      NM000R$  000000000000600000000000070000000000005000000000000500000000000050000000000000000000000000000010000000000000028800000000000000161500000000000160002013081900000010000000000000BRCYREACNOR7125
