00COTAHIST.2013BOVESPA 20131018                                                                                                                                                                                                                      
012013101802ABCB4       010ABC BRASIL  PN      N2   R$  000000000134000000000013510000000001333000000000134400000000013500000000001349000000000135000365000000000000088500000000000119031400000000000000009999123100000010000000000000BRABCBACNPR4120
012013101896ABCB4F      020ABC BRASIL  PN      N2   R$  000000000135700000000013570000000001335000000000133600000000013350000000001337000000000135100010000000000000000209000000000000279362000000000000009999123100000010000000000000BRABCBACNPR4120
012013101812ABCP11      010FII ABC IMOBCI           R$  000000000099000000000009900000000000990000000000099000000000009900000000000951000000000099000001000000000000000200000000000000198000000000000000009999123100000010000000000000BRABCPCTF000216
012013101802ABRE11      010ABRIL EDUCA UNT     N2   R$  000000000332700000000033950000000003262000000000332200000000032950000000003293000000000329500839000000000000172700000000000573814800000000000000009999123100000010000000000000BRABRECDAM15102
012013101896ABRE11F     020ABRIL EDUCA UNT     N2   R$  000000000331000000000033500000000003310000000000331100000000033100000000003201000000000333000003000000000000000027000000000000089410000000000000009999123100000010000000000000BRABRECDAM15102
012013101802AEDU3       010ANHANGUERA  ON      NM   R$  000000000128500000000013100000000001285000000000130000000000012980000000001296000000000129807170000000000002576600000000003350067500000000000000009999123100000010000000000000BRAEDUACNOR9107
012013101896AEDU3F      020ANHANGUERA  ON      NM   R$  000000000129900000000013490000000001283000000000130400000000012830000000001283000000000131000023000000000000000674000000000000879016000000000000009999123100000010000000000000BRAEDUACNOR9107
012013101862AEDU3T      030ANHANGUERA  ON      NM060R$  000000000131100000000013120000000001311000000000131100000000013120000000000000000000000000000002000000000000008000000000000010495893000000000000009999123100000010000000000000BRAEDUACNOR9107
012013101878AEDUJ43     070AEDU        ON      NM000R$  000000000000300000000000030000000000003000000000000300000000000030000000000000000000000000000001000000000000001500000000000000004500000000000135002013102100000010000000000000BRAEDUACNOR9107
012013101812AEFI11      010FII AESAPAR CI           R$  000000001205000000000120700000000012015000000001205900000000120600000000012030000000001209700009000000000000000103000000000001242115000000000000009999123100000010000000000000BRAEFICTF002122
012013101802AELP3       010AES ELPA    ON           R$  000000000094700000000009470000000000947000000000094700000000009470000000000886000000000094800002000000000000000200000000000000189400000000000000009999123100000010000000000000BRAELPACNOR2119
012013101812AGCX11      010FII AG CAIXACI           R$  000000009381300000000945500000000093799000000009434700000000945500000000094000000000009455000021000000000000000485000000000045758617000000000000009999123100000010000000000000BRAGCXCTF003111
012013101802AGRO3       010BRASILAGRO  ON      NM   R$  000000000098900000000010040000000000989000000000099400000000009970000000000988000000000099900023000000000000025200000000000025065100000000000000009999123100000010000000000000BRAGROACNOR7102
012013101862AGRO3T      030BRASILAGRO  ON      NM031R$  000000000099900000000010000000000000999000000000099900000000010000000000000000000000000000000002000000000000014000000000000013997924000000000000009999123100000010000000000000BRAGROACNOR7102
012013101802ALLL3       010ALL AMER LATON      NM   R$  000000000085100000000008530000000000830000000000083400000000008320000000000831000000000083205425000000000003275100000000002733728400000000000000009999123100000010000000000000BRALLLACNOR6118
012013101896ALLL3F      020ALL AMER LATON      NM   R$  000000000084100000000008410000000000830000000000083500000000008310000000000831000000000084000031000000000000000811000000000000677386000000000000009999123100000010000000000000BRALLLACNOR6118
012013101862ALLL3T      030ALL AMER LATON      NM031R$  000000000084600000000008470000000000837000000000084000000000008380000000000000000000000000000010000000000000061900000000000052002760000000000000009999123100000010000000000000BRALLLACNOR6118
012013101862ALLL3T      030ALL AMER LATON      NM060R$  000000000084700000000008480000000000843000000000084500000000008440000000000000000000000000000004000000000000004000000000000003382371000000000000009999123100000010000000000000BRALLLACNOR6118
012013101862ALLL3T      030ALL AMER LATON      NM360R$  000000000092700000000009280000000000927000000000092700000000009280000000000000000000000000000002000000000000000300000000000000278219000000000000009999123100000010000000000000BRALLLACNOR6118
012013101878ALLLA1      070ALLLE       ON      NM000R$  000000000004700000000000470000000000047000000000004700000000000470000000000000000000000000000002000000000000300000000000000014100000000000000085002014012000000010000000000000BRALLLACNOR6118
012013101812ALMI11B     010FII TORRE ALCI      MB   R$  000000031710100000003171010000000315000000000031586500000003170110000000317011000000032200000007000000000000000044000000000013898085000000000000009999123100000010000000000000BRALMICTF003206
012013101802ALPA3       010ALPARGATAS  ON      N1   R$  000000000126500000000013000000000001265000000000126800000000013000000000001300000000000131300004000000000000001100000000000001395000000000000000009999123100000010000000000000BRALPAACNOR0203
012013101802ALPA4       010ALPARGATAS  PN      N1   R$  000000000148000000000014990000000001469000000000147800000000014690000000001469000000000147000900000000000000295900000000000437620500000000000000009999123100000010000000000000BRALPAACNPR7203
012013101896ALPA4F      020ALPARGATAS  PN      N1   R$  000000000150000000000015000000000001470000000000147900000000015000000000001451000000000150000009000000000000000116000000000000171641000000000000009999123100000010000000000000BRALPAACNPR7203
012013101802ALSC3       010ALIANSCE    ON      NM   R$  000000000219000000000021900000000002142000000000216600000000021650000000002152000000000216501348000000000000781200000000001692837400000000000000009999123100000010000000000000BRALSCACNOR0104
012013101896ALSC3F      020ALIANSCE    ON      NM   R$  000000000219000000000021900000000002174000000000218000000000021740000000002140000000000218000002000000000000000050000000000000109020000000000000009999123100000010000000000000BRALSCACNOR0104
012013101878ALSCJ51     070ALSC        ON      NM000R$  000000000003000000000000300000000000030000000000003000000000000300000000000000000000000000000001000000000000005000000000000000150000000000000215002013102100000010000000000000BRALSCACNOR0104
012013101802ALUP11      010ALUPAR      UNT     N2   R$  000000000173400000000017370000000001707000000000172900000000017240000000001724000000000173000362000000000000222600000000000385031300000000000000009999123100000010000000000000BRALUPCDAM15100
012013101896ALUP11F     020ALUPAR      UNT     N2   R$  000000000173100000000017740000000001725000000000173200000000017740000000001720000000000177400010000000000000000392000000000000679042000000000000009999123100000010000000000000BRALUPCDAM15100
012013101802AMAR3       010LOJAS MARISAON      NM   R$  000000000203100000000020740000000002014000000000204100000000020140000000002014000000000201901236000000000000261400000000000533634200000000000000009999123100000010000000000000BRAMARACNOR4109
012013101896AMAR3F      020LOJAS MARISAON      NM   R$  000000000206200000000020630000000002020000000000205200000000020200000000002010000000000204000026000000000000000337000000000000691709000000000000009999123100000010000000000000BRAMARACNOR4109
012013101862AMAR3T      030LOJAS MARISAON      NM031R$  000000000206300000000020640000000002060000000000206200000000020610000000000000000000000000000006000000000000001200000000000002475319000000000000009999123100000010000000000000BRAMARACNOR4109
012013101802AMBV3       010AMBEV       ON           R$  000000000855900000000086430000000008540000000000859800000000086400000000008606000000000864000821000000000000434400000000003735352900000000000000009999123100000010000000000000BRAMBVACNOR4154
012013101896AMBV3F      020AMBEV       ON           R$  000000000865800000000087110000000008426000000000860000000000086200000000008555000000000862000033000000000000000789000000000006785630000000000000009999123100000010000000000000BRAMBVACNOR4154
012013101802AMBV4       010AMBEV       PN           R$  000000000855100000000086480000000008532000000000859900000000086300000000008611000000000863005440000000000001583200000000013614560000000000000000009999123100000010000000000000BRAMBVACNPR1154
012013101896AMBV4F      020AMBEV       PN           R$  000000000860000000000086440000000008500000000000859200000000086130000000008557000000000861300155000000000000004014000000000034492454000000000000009999123100000010000000000000BRAMBVACNPR1154
012013101878AMBVK7      070AMBV        PN        000R$  000000000014400000000001440000000000144000000000014400000000001440000000000000000000000000000002000000000000002000000000000000288000000000000870002013111800000010000000000000BRAMBVACNPR1154
012013101878AMBVK87     070AMBV        PN        000R$  000000000015200000000001820000000000152000000000016700000000001820000000000000000000000000000004000000000000000600000000000000100200000000000863502013111800000010000000000000BRAMBVACNPR1153
012013101878AMBVK89     070AMBV        PN        000R$  000000000004100000000000860000000000041000000000004700000000000860000000000000000000000000000003000000000000001400000000000000066700000000000883502013111800000010000000000000BRAMBVACNPR1153
012013101812ANCR11B     010FII ANCAR ICCI      MB   R$  000000007000100000000700010000000070001000000007000100000000700010000000062000000000000000000001000000000000000001000000000000070001000000000000009999123100000010000000000000BRANCRCTF001129
012013101802AORE3       010ALL ORE     ON           R$  000000000015000000000001500000000000100000000000013700000000001000000000000095000000000010000045000000000000136800000000000018766600000000000000009999123100000010000000000000BRAOREACNOR2100
012013101896AORE3F      020ALL ORE     ON           R$  000000000012000000000001200000000000120000000000012000000000001200000000000000000000000050000002000000000000000089000000000000010680000000000000009999123100000010000000000000BRAOREACNOR2100
012013101802ARTR3       010ARTERIS     ON      NM   R$  000000000194400000000019870000000001944000000000196500000000019650000000001959000000000196501579000000000000256900000000000505014000000000000000009999123100000010000000000000BRARTRACNOR3101
012013101896ARTR3F      020ARTERIS     ON      NM   R$  000000000190800000000020050000000001908000000000196900000000020050000000001950000000000200500033000000000000000859000000000001692023000000000000009999123100000010000000000000BRARTRACNOR3101
012013101802ARZZ3       010AREZZO CO   ON      NM   R$  000000000348900000000035370000000003290000000000336700000000033000000000003300000000000330501712000000000000365400000000001230349100000000000000009999123100000010000000000000BRARZZACNOR3109
012013101896ARZZ3F      020AREZZO CO   ON      NM   R$  000000000350000000000035840000000003301000000000340400000000033010000000003310000000000342000038000000000000001044000000000003554366000000000000009999123100000010000000000000BRARZZACNOR3109
012013101862ARZZ3S      030AREZZO CO   ON      NM090R$  000000000344300000000034440000000003443000000000344300000000034440000000000000000000000000000002000000000000000300000000000001033195000000000000009999123100000010000000000000BRARZZACNOR3109
012013101862ARZZ3T      030AREZZO CO   ON      NM017R$  000000000331300000000033140000000003313000000000331300000000033140000000000000000000000000000002000000000000001200000000000003976236000000000000009999123100000010000000000000BRARZZACNOR3109
012013101862ARZZ3T      030AREZZO CO   ON      NM031R$  000000000343800000000034390000000003438000000000343800000000034390000000000000000000000000000002000000000000000500000000000001719282000000000000009999123100000010000000000000BRARZZACNOR3109
012013101862ARZZ3T      030AREZZO CO   ON      NM060R$  000000000334500000000033460000000003345000000000334500000000033460000000000000000000000000000002000000000000000100000000000000334587000000000000009999123100000010000000000000BRARZZACNOR3109
012013101802AUTM3       010AUTOMETAL   ON      NM   R$  000000000184100000000018410000000001821000000000183400000000018330000000001833000000000183700295000000000000087600000000000160738500000000000000009999123100000010000000000000BRAUTMACNOR8109
012013101896AUTM3F      020AUTOMETAL   ON      NM   R$  000000000183000000000019000000000001830000000000184500000000019000000000001700000000000190000003000000000000000039000000000000071960000000000000009999123100000010000000000000BRAUTMACNOR8109
012013101802BAHI3       010BAHEMA      ON           R$  000000000049000000000004900000000000471000000000048100000000004900000000000468000000000049000006000000000000001200000000000000577300000000000000009999123100000010000000000000BRBAHIACNOR1066
012013101802BAUH4       010EXCELSIOR   PN           R$  000000000093700000000009400000000000937000000000093900000000009400000000000900000000000096000003000000000000002700000000000002536000000000000000009999123100000010000000000000BRBAUHACNPR3108
012013101802BAZA3       010AMAZONIA    ON           R$  000000000003300000000000330000000000032000000000003200000000000320000000000032000000000003400003000000000000030000000000000000963000000000000000009999123100000010000000000000BRBAZAACNOR0163
012013101896BAZA3F      020AMAZONIA    ON           R$  000000000003300000000000350000000000033000000000003400000000000350000000000032000000000003500004000000000000000282000000000000009706000000000000009999123100000010000000000000BRBAZAACNOR0163
012013101802BBAS3       010BRASIL      ON      NM   R$  000000000277000000000028390000000002770000000000281600000000028350000000002833000000000283512585000000000005179300000000014587932500000000000000009999123100000010000000000000BRBBASACNOR3239
012013101896BBAS3F      020BRASIL      ON      NM   R$  000000000275600000000028400000000002756000000000280900000000028200000000002820000000000283900337000000000000010474000000000029430583000000000000009999123100000010000000000000BRBBASACNOR3239
012013101862BBAS3T      030BRASIL      ON      NM031R$  000000000283800000000028390000000002838000000000283800000000028390000000000000000000000000000002000000000000006100000000000017315021000000000000009999123100000010000000000000BRBBASACNOR3239
012013101878BBASA28     070BBAS        ON      NM000R$  000000000015200000000001540000000000152000000000015300000000001540000000000000000000000000000003000000000000000700000000000000107200000000000280002014012000000010000000000000BRBBASACNOR3239
012013101878BBASA29     070BBAS        ON      NM000R$  000000000010000000000001190000000000099000000000010400000000001170000000000016000000000030000010000000000000007800000000000000811400000000000290002014012000000010000000000000BRBBASACNOR3239
012013101878BBASA32     070BBAS        ON      NM000R$  000000000002600000000000260000000000025000000000002500000000000250000000000000000000000000000002000000000000200000000000000005168000000000000320002014012000000010000000000000BRBBASACNOR3239
012013101878BBASJ22     070BBAS        ON      NM000R$  000000000063000000000007200000000000630000000000070600000000007050000000000700000000000000000011000000000000001700000000000001201400000000000209502013102100000010000000000000BRBBASACNOR3237
012013101878BBASJ23     070BBAS        ON      NM000R$  000000000064000000000006700000000000640000000000066600000000006700000000000000000000000000000004000000000000002300000000000001532700000000000216102013102100000010000000000000BRBBASACNOR3235
012013101838BBASJ23E    012BBAS        ON      NM000R$  000000000216100000000021610000000002161000000000216100000000021610000000000000000000000000000003000000000000003000000000000006483000000000000216102013102100000010000000000000BRBBASACNOR3239
012013101878BBASJ24     070BBAS        ON      NM000R$  000000000055800000000005580000000000553000000000055300000000005530000000000520000000000000000003000000000000010500000000000005809000000000000227102013102100000010000000000000BRBBASACNOR3236
012013101878BBASJ25     070BBAS        ON      NM000R$  000000000040500000000004330000000000405000000000041800000000004330000000000415000000000000000032000000000000036500000000000015286200000000000239502013102100000010000000000000BRBBASACNOR3237
012013101838BBASJ25E    012BBAS        ON      NM000R$  000000000239500000000023950000000002395000000000239500000000023950000000000000000000000000000001000000000000000200000000000000479000000000000239502013102100000010000000000000BRBBASACNOR3239
012013101878BBASJ26     070BBAS        ON      NM000R$  000000000036000000000003700000000000341000000000035500000000003700000000000006000000000000000011000000000000011200000000000003977200000000000246102013102100000010000000000000BRBBASACNOR3235
012013101878BBASJ27     070BBAS        ON      NM000R$  000000000025000000000002620000000000241000000000024700000000002620000000000265000000000000000055000000000000021700000000000005368500000000000256102013102100000010000000000000BRBBASACNOR3235
012013101838BBASJ27E    012BBAS        ON      NM000R$  000000000256100000000025610000000002561000000000256100000000025610000000000000000000000000000003000000000000000700000000000001792700000000000256102013102100000010000000000000BRBBASACNOR3239
012013101878BBASJ28     070BBAS        ON      NM000R$  000000000011800000000001380000000000108000000000011700000000001380000000000110000000000000000203000000000000189100000000000022256100000000000269502013102100000010000000000000BRBBASACNOR3237
012013101838BBASJ28E    012BBAS        ON      NM000R$  000000000269500000000026950000000002695000000000269500000000026950000000000000000000000000000004000000000000008500000000000022907500000000000269502013102100000010000000000000BRBBASACNOR3239
012013101878BBASJ29     070BBAS        ON      NM000R$  000000000003500000000000770000000000035000000000005100000000000770000000000007000000000000000436000000000000470500000000000024423600000000000276102013102100000010000000000000BRBBASACNOR3235
012013101878BBASJ30     070BBAS        ON      NM000R$  000000000000100000000000080000000000001000000000000300000000000080000000000000000000000000700025000000000000123100000000000000459900000000000286102013102100000010000000000000BRBBASACNOR3235
012013101878BBASK24     070BBAS        ON      NM000R$  000000000053400000000005520000000000534000000000053800000000005510000000000000000000000000000004000000000000013000000000000006995500000000000229502013111800000010000000000000BRBBASACNOR3237
012013101878BBASK25     070BBAS        ON      NM000R$  000000000045000000000004650000000000447000000000045900000000004650000000000420000000000000000007000000000000024500000000000011269000000000000237102013111800000010000000000000BRBBASACNOR3236
012013101878BBASK26     070BBAS        ON      NM000R$  000000000035000000000003790000000000330000000000036200000000003790000000000100000000000049700039000000000000047900000000000017342500000000000247102013111800000010000000000000BRBBASACNOR3236
012013101878BBASK27     070BBAS  FM    ON      NM000R$  000000000025500000000002850000000000253000000000026500000000002850000000000110000000000000000067000000000000097900000000000026012500000000000257102013111800000010000000000000BRBBASACNOR3236
012013101878BBASK28     070BBAS  FM    ON      NM000R$  000000000017400000000001950000000000165000000000017300000000001950000000000164000000000019900149000000000000201000000000000034968400000000000267102013111800000010000000000000BRBBASACNOR3236
012013101878BBASK29     070BBAS  FM    ON      NM000R$  000000000008200000000001000000000000077000000000008800000000001000000000000079000000000011000102000000000000150900000000000013378700000000000279502013111800000010000000000000BRBBASACNOR3237
012013101878BBASK30     070BBAS  FM    ON      NM000R$  000000000003600000000000450000000000030000000000003500000000000450000000000042000000000009800371000000000000331700000000000011676300000000000289502013111800000010000000000000BRBBASACNOR3237
012013101878BBASK31     070BBAS  FM    ON      NM000R$  000000000001500000000000190000000000012000000000001500000000000190000000000007000000000000000055000000000000096600000000000001457500000000000299502013111800000010000000000000BRBBASACNOR3237
012013101878BBASK32     070BBAS        ON      NM000R$  000000000000300000000000040000000000003000000000000300000000000040000000000001000000000001000004000000000000016600000000000000063900000000000320002013111800000010000000000000BRBBASACNOR3239
012013101878BBASK57     070BBAS        ON      NM000R$  000000000011000000000001210000000000105000000000010900000000001210000000000000000000000000000016000000000000017000000000000001864900000000000275002013111800000010000000000000BRBBASACNOR3239
012013101878BBASK58     070BBAS        ON      NM000R$  000000000005000000000000640000000000050000000000005600000000000640000000000000000000000009600004000000000000006200000000000000351900000000000285002013111800000010000000000000BRBBASACNOR3239
012013101878BBASL27     070BBAS        ON      NM000R$  000000000026000000000002600000000000260000000000026000000000002600000000000016000000000000000001000000000000001000000000000000260000000000000259502013121600000010000000000000BRBBASACNOR3237
012013101878BBASL28     070BBAS  FM    ON      NM000R$  000000000019200000000002100000000000185000000000019700000000002100000000000034000000000000000051000000000000071300000000000014050500000000000269502013121600000010000000000000BRBBASACNOR3237
012013101878BBASL29     070BBAS  FM    ON      NM000R$  000000000014400000000001610000000000138000000000014900000000001610000000000034000000000000000082000000000000101100000000000015084200000000000276102013121600000010000000000000BRBBASACNOR3235
012013101878BBASL30     070BBAS  FM    ON      NM000R$  000000000003600000000000440000000000036000000000003900000000000440000000000010000000000004400081000000000000183200000000000007187100000000000300002013121600000010000000000000BRBBASACNOR3239
012013101878BBASL31     070BBAS  FM    ON      NM000R$  000000000001800000000000230000000000016000000000001800000000000230000000000007000000000000000101000000000000146300000000000002723100000000000310002013121600000010000000000000BRBBASACNOR3239
012013101878BBASL59     070BBAS        ON      NM000R$  000000000005000000000000500000000000050000000000005000000000000500000000000000000000000000000002000000000000002000000000000000100000000000000295002013121600000010000000000000BRBBASACNOR3239
012013101878BBASL60     070BBAS        ON      NM000R$  000000000007900000000000890000000000079000000000008000000000000890000000000084000000000000000014000000000000022800000000000001824400000000000286202013121600000010000000000000BRBBASACNOR3233
012013101878BBASL79     070BBAS  FM    ON      NM000R$  000000000006900000000000780000000000066000000000007200000000000780000000000000000000000000000058000000000000065100000000000004710900000000000290002013121600000010000000000000BRBBASACNOR3239
012013101882BBASM28     080BBASE       ON      NM000R$  000000000010000000000001000000000000100000000000010000000000001000000000000000000000000000000001000000000000200000000000000020000000000000000280002014012000000010000000000000BRBBASACNOR3239
012013101882BBASM29     080BBASE       ON      NM000R$  000000000014400000000001440000000000144000000000014400000000001440000000000000000000000000000001000000000000003000000000000000432000000000000290002014012000000010000000000000BRBBASACNOR3239
012013101882BBASV27     080BBASE       ON      NM000R$  000000000000100000000000010000000000001000000000000100000000000010000000000000000000000000100001000000000000005000000000000000005000000000000256102013102100000010000000000000BRBBASACNOR3235
012013101882BBASV28     080BBASE       ON      NM000R$  000000000000100000000000010000000000001000000000000100000000000010000000000000000000000000100006000000000000012600000000000000012600000000000269502013102100000010000000000000BRBBASACNOR3237
012013101882BBASV29     080BBASE       ON      NM000R$  000000000000700000000000100000000000006000000000000700000000000060000000000000000000000000000011000000000000042000000000000000331000000000000276102013102100000010000000000000BRBBASACNOR3235
012013101882BBASW27     080BBASE FM    ON      NM000R$  000000000001000000000000110000000000009000000000000900000000000090000000000008000000000002500006000000000000015700000000000000143900000000000257102013111800000010000000000000BRBBASACNOR3236
012013101882BBASW28     080BBASE FM    ON      NM000R$  000000000002600000000000260000000000018000000000002100000000000180000000000017000000000002000078000000000000076700000000000001625900000000000267102013111800000010000000000000BRBBASACNOR3236
012013101882BBASW29     080BBASE FM    ON      NM000R$  000000000005800000000000580000000000047000000000005200000000000470000000000045000000000004600040000000000000085300000000000004481900000000000279502013111800000010000000000000BRBBASACNOR3237
012013101882BBASW30     080BBASE       ON      NM000R$  000000000010700000000001070000000000096000000000010000000000000960000000000000000000000000000002000000000000005000000000000000502000000000000289502013111800000010000000000000BRBBASACNOR3237
012013101882BBASW57     080BBASE       ON      NM000R$  000000000003600000000000360000000000034000000000003500000000000340000000000000000000000000000039000000000000121300000000000004294600000000000275002013111800000010000000000000BRBBASACNOR3239
012013101882BBASX23     080BBASE       ON      NM000R$  000000000000300000000000040000000000003000000000000300000000000040000000000001000000000000000013000000000000066700000000000000260100000000000219502013121600000010000000000000BRBBASACNOR3237
012013101882BBASX27     080BBASE FM    ON      NM000R$  000000000002900000000000290000000000029000000000002900000000000290000000000020000000000004500001000000000000002000000000000000058000000000000259502013121600000010000000000000BRBBASACNOR3237
012013101882BBASX28     080BBASE FM    ON      NM000R$  000000000004800000000000500000000000044000000000004700000000000440000000000037000000000000000055000000000000101000000000000004835100000000000269502013121600000010000000000000BRBBASACNOR3237
012013101882BBASX29     080BBASE FM    ON      NM000R$  000000000006400000000000640000000000059000000000006300000000000590000000000000000000000000000005000000000000008500000000000000543000000000000276102013121600000010000000000000BRBBASACNOR3235
012013101882BBASX30     080BBASE       ON      NM000R$  000000000019200000000001920000000000192000000000019200000000001920000000000000000000000000000001000000000000001000000000000000192000000000000300002013121600000010000000000000BRBBASACNOR3239
012013101882BBASX79     080BBASE FM    ON      NM000R$  000000000012800000000001330000000000116000000000012100000000001170000000000000000000000000000113000000000000185900000000000022506100000000000290002013121600000010000000000000BRBBASACNOR3239
012013101802BBDC3       010BRADESCO    ON      N1   R$  000000000367700000000037360000000003676000000000370300000000036990000000003685000000000369903474000000000001211200000000004485674100000000000000009999123100000010000000000000BRBBDCACNOR1607
012013101896BBDC3F      020BRADESCO    ON      N1   R$  000000000360000000000037480000000003591000000000369600000000037460000000003591000000000374600033000000000000000953000000000003522495000000000000009999123100000010000000000000BRBBDCACNOR1607
012013101862BBDC3T      030BRADESCO    ON      N1090R$  000000000380800000000038090000000003807000000000380800000000038080000000000000000000000000000004000000000000000209000000000000795932000000000000009999123100000010000000000000BRBBDCACNOR1607
012013101802BBDC4       010BRADESCO    PN      N1   R$  000000000327500000000033200000000003275000000000329600000000033070000000003301000000000330714833000000000008124200000000026777924300000000000000009999123100000010000000000000BRBBDCACNPR8607
012013101896BBDC4F      020BRADESCO    PN      N1   R$  000000000327000000000033170000000003269000000000329700000000033040000000003304000000000330900269000000000000007249000000000023905052000000000000009999123100000010000000000000BRBBDCACNPR8607
012013101862BBDC4T      030BRADESCO    PN      N1017R$  000000000330400000000033050000000003289000000000330200000000032900000000000000000000000000000004000000000000011000000000000036332355000000000000009999123100000010000000000000BRBBDCACNPR8607
012013101862BBDC4T      030BRADESCO    PN      N1031R$  000000000333200000000033330000000003322000000000332600000000033230000000000000000000000000000008000000000000002800000000000009314777000000000000009999123100000010000000000000BRBBDCACNPR8607
012013101878BBDCA33     070BBDC        PN      N1000R$  000000000016900000000001760000000000169000000000017200000000001750000000000000000000000000000017000000000000051200000000000008840000000000000329802014012000000010000000000000BRBBDCACNPR8606
012013101878BBDCA34     070BBDC        PN      N1000R$  000000000013400000000001340000000000126000000000013000000000001270000000000000000000000000000026000000000000012000000000000001563000000000000339402014012000000010000000000000BRBBDCACNPR8604
012013101878BBDCA35     070BBDC        PN      N1000R$  000000000008400000000000880000000000084000000000008600000000000880000000000000000000000000000006000000000000010500000000000000906000000000000350002014012000000010000000000000BRBBDCACNPR8607
012013101878BBDCA37     070BBDC        PN      N1000R$  000000000004000000000000420000000000040000000000004000000000000400000000000031000000000000000011000000000000029200000000000001188400000000000367402014012000000010000000000000BRBBDCACNPR8602
012013101878BBDCA40     070BBDC        PN      N1000R$  000000000005400000000000570000000000054000000000005400000000000550000000000000000000000000000011000000000000024200000000000001327900000000000360402014012000000010000000000000BRBBDCACNPR8598
012013101878BBDCJ2      070BBDC        PN      N1000R$  000000000004900000000000580000000000049000000000005000000000000580000000000059000000000000000015000000000000052000000000000002600000000000000324202013102100000010000000000000BRBBDCACNPR8603
012013101878BBDCJ27     070BBDC        PN      N1000R$  000000000064100000000006410000000000641000000000064100000000006410000000000478000000000000000001000000000000001000000000000000641000000000000267402013102100000010000000000000BRBBDCACNPR8602
012013101878BBDCJ29     070BBDC        PN      N1000R$  000000000043600000000004360000000000408000000000042100000000004080000000000416000000000000000013000000000000022900000000000009651100000000000287402013102100000010000000000000BRBBDCACNPR8602
012013101878BBDCJ30     070BBDC        PN      N1000R$  000000000035000000000003500000000000320000000000032900000000003220000000000250000000000000000013000000000000021900000000000007219300000000000297402013102100000010000000000000BRBBDCACNPR8602
012013101838BBDCJ30E    012BBDC        PN      N1000R$  000000000297400000000029740000000002974000000000297400000000029740000000000000000000000000000001000000000000000200000000000000594800000000000297402013102100000010000000000000BRBBDCACNPR8607
012013101878BBDCJ31     070BBDC        PN      N1000R$  000000000023000000000002460000000000207000000000023200000000002250000000000200000000000000000156000000000000066000000000000015344500000000000307402013102100000010000000000000BRBBDCACNPR8602
012013101878BBDCJ32     070BBDC        PN      N1000R$  000000000014100000000001680000000000114000000000013100000000001410000000000116000000000014100037000000000000034300000000000004517000000000000317402013102100000010000000000000BRBBDCACNPR8602
012013101878BBDCJ33     070BBDC        PN      N1000R$  000000000005500000000000570000000000029000000000003600000000000360000000000034000000000000000073000000000000163700000000000005983000000000000327402013102100000010000000000000BRBBDCACNPR8602
012013101878BBDCJ34     070BBDC        PN      N1000R$  000000000000400000000000100000000000003000000000000400000000000030000000000000000000000000000069000000000000287600000000000001181800000000000337002013102100000010000000000000BRBBDCACNPR8600
012013101878BBDCJ35     070BBDC        PN      N1000R$  000000000000100000000000020000000000001000000000000100000000000020000000000000000000000000000002000000000000004000000000000000007000000000000349602013102100000010000000000000BRBBDCACNPR8605
012013101878BBDCK29     070BBDC        ON      N1000R$  000000000040000000000009000000000000400000000000074200000000008470000000000450000000001000000053000000000000043800000000000032542100000000000290002013111800000010000000000000BRBBDCACNOR1607
012013101878BBDCK30     070BBDC        PN      N1000R$  000000000033000000000003400000000000307000000000031800000000003110000000000020000000000036000024000000000000025300000000000008068900000000000299602013111800000010000000000000BRBBDCACNPR8605
012013101878BBDCK31     070BBDC        PN      N1000R$  000000000024000000000002420000000000228000000000023600000000002360000000000170000000000000000186000000000000071900000000000017027500000000000309602013111800000010000000000000BRBBDCACNPR8605
012013101878BBDCK32     070BBDC  FM    PN      N1000R$  000000000016500000000001900000000000161000000000017500000000001730000000000167000000000000000196000000000000119300000000000020981500000000000317202013111800000010000000000000BRBBDCACNPR8601
012013101878BBDCK33     070BBDC  FM    PN      N1000R$  000000000011000000000001170000000000096000000000010500000000001060000000000091000000000012800258000000000000174200000000000018428800000000000327402013111800000010000000000000BRBBDCACNPR8602
012013101878BBDCK34     070BBDC  FM    PN      N1000R$  000000000005500000000000550000000000042000000000004800000000000500000000000035000000000005500073000000000000132200000000000006372200000000000339402013111800000010000000000000BRBBDCACNPR8604
012013101878BBDCK35     070BBDC  FM    PN      N1000R$  000000000003100000000000310000000000023000000000002800000000000260000000000019000000000003500032000000000000016700000000000000471100000000000347402013111800000010000000000000BRBBDCACNPR8602
012013101878BBDCK36     070BBDC  FM    PN      N1000R$  000000000001200000000000140000000000012000000000001200000000000130000000000013000000000001600003000000000000005200000000000000066400000000000357202013111800000010000000000000BRBBDCACNPR8601
012013101878BBDCK37     070BBDC        PN      N1000R$  000000000000500000000000050000000000005000000000000500000000000050000000000005000000000000000002000000000000005000000000000000025000000000000369802013111800000010000000000000BRBBDCACNPR8606
012013101878BBDCL3      070BBDC  FM    PN      N1000R$  000000000015800000000001650000000000147000000000015700000000001510000000000000000000000017002239000000000000275700000000000043326700000000000327002013121600000010000000000000BRBBDCACNPR8601
012013101878BBDCL32     070BBDC  FM    PN      N1000R$  000000000022400000000002330000000000209000000000022400000000002090000000000068000000000000000022000000000000033600000000000007540300000000000317002013121600000010000000000000BRBBDCACNPR8600
012013101878BBDCL34     070BBDC  FM    PN      N1000R$  000000000010800000000001080000000000094000000000010000000000000980000000000000000000000012100020000000000000041600000000000004199300000000000337002013121600000010000000000000BRBBDCACNPR8600
012013101878BBDCL35     070BBDC        PN      N1000R$  000000000006400000000000680000000000058000000000006300000000000580000000000021000000000009000025000000000000012500000000000000788300000000000347002013121600000010000000000000BRBBDCACNPR8600
012013101878BBDCL36     070BBDC        PN      N1000R$  000000000018400000000001870000000000174000000000017900000000001740000000000000000000000000001833000000000000197500000000000035504300000000000323902013121600000010000000000000BRBBDCACNPR8597
012013101878BBDCL5      070BBDC  FM    PN      N1000R$  000000000005000000000000540000000000050000000000005200000000000530000000000000000000000000000012000000000000034200000000000001803000000000000349802013121600000010000000000000BRBBDCACNPR8606
012013101878BBDCL6      070BBDC  FM    PN      N1000R$  000000000004100000000000410000000000032000000000003500000000000360000000000012000000000004500025000000000000048400000000000001736100000000000357202013121600000010000000000000BRBBDCACNPR8601
012013101882BBDCM31     080BBDCE       PN      N1000R$  000000000005600000000000560000000000056000000000005600000000000560000000000000000000000000000001000000000000001900000000000000106400000000000309602014012000000010000000000000BRBBDCACNPR8605
012013101882BBDCM32     080BBDCE       PN      N1000R$  000000000008700000000000870000000000082000000000008300000000000830000000000000000000000000000018000000000000022600000000000001879000000000000319802014012000000010000000000000BRBBDCACNPR8606
012013101882BBDCM33     080BBDCE       PN      N1000R$  000000000012000000000001240000000000109000000000011500000000001180000000000000000000000000000033000000000000067700000000000007804400000000000329802014012000000010000000000000BRBBDCACNPR8606
012013101882BBDCM34     080BBDCE       PN      N1000R$  000000000016800000000001680000000000160000000000016200000000001630000000000000000000000000000010000000000000015500000000000002511100000000000339402014012000000010000000000000BRBBDCACNPR8604
012013101882BBDCM35     080BBDCE       PN      N1000R$  000000000022400000000002240000000000220000000000022200000000002200000000000000000000000000000002000000000000004000000000000000888000000000000350002014012000000010000000000000BRBBDCACNPR8607
012013101882BBDCM59     080BBDCE       PN      N1000R$  000000000003100000000000310000000000031000000000003100000000000310000000000000000000000000000001000000000000002000000000000000062000000000000294602014012000000010000000000000BRBBDCACNPR8605
012013101882BBDCV2      080BBDCE       PN      N1000R$  000000000001100000000000160000000000009000000000001100000000000090000000000000000000000000000041000000000000054600000000000000641000000000000324202013102100000010000000000000BRBBDCACNPR8603
012013101882BBDCV32     080BBDCE       PN      N1000R$  000000000000400000000000040000000000004000000000000400000000000040000000000000000000000000400001000000000000004000000000000000016000000000000317402013102100000010000000000000BRBBDCACNPR8602
012013101882BBDCV33     080BBDCE       PN      N1000R$  000000000002000000000000250000000000017000000000001900000000000180000000000013000000000000000030000000000000037600000000000000719800000000000327402013102100000010000000000000BRBBDCACNPR8602
012013101882BBDCW30     080BBDCE       PN      N1000R$  000000000001100000000000110000000000011000000000001100000000000110000000000009000000000002000001000000000000001000000000000000011000000000000299602013111800000010000000000000BRBBDCACNPR8605
012013101882BBDCW31     080BBDCE FM    PN      N1000R$  000000000002100000000000220000000000021000000000002100000000000210000000000000000000000000000012000000000000052200000000000001098300000000000309602013111800000010000000000000BRBBDCACNPR8605
012013101882BBDCW32     080BBDCE FM    PN      N1000R$  000000000003600000000000390000000000031000000000003400000000000320000000000000000000000006500107000000000000096400000000000003348500000000000317202013111800000010000000000000BRBBDCACNPR8601
012013101882BBDCW33     080BBDCE FM    PN      N1000R$  000000000006800000000000720000000000063000000000006700000000000630000000000000000000000015600007000000000000015000000000000001012500000000000327402013111800000010000000000000BRBBDCACNPR8602
012013101882BBDCW34     080BBDCE FM    PN      N1000R$  000000000012600000000001380000000000117000000000012600000000001240000000000000000000000000000029000000000000044900000000000005696200000000000339402013111800000010000000000000BRBBDCACNPR8604
012013101882BBDCW35     080BBDCE       PN      N1000R$  000000000018200000000001870000000000182000000000018400000000001870000000000000000000000000000002000000000000004000000000000000738000000000000347402013111800000010000000000000BRBBDCACNPR8602
012013101882BBDCW9      080BBDCE       PN      N1000R$  000000000000500000000000050000000000005000000000000500000000000050000000000000000000000000000001000000000000009300000000000000046500000000000289602013111800000010000000000000BRBBDCACNPR8605
012013101882BBDCX1      080BBDCE FM    PN      N1000R$  000000000003400000000000360000000000034000000000003500000000000360000000000000000000000000000009000000000000016200000000000000570400000000000307002013121600000010000000000000BRBBDCACNPR8600
012013101882BBDCX3      080BBDCE FM    PN      N1000R$  000000000008500000000000940000000000083000000000008600000000000870000000000000000000000000000010000000000000016000000000000001385600000000000327002013121600000010000000000000BRBBDCACNPR8601
012013101882BBDCX32     080BBDCE FM    PN      N1000R$  000000000005400000000000600000000000054000000000005600000000000560000000000000000000000000000006000000000000007600000000000000428400000000000317002013121600000010000000000000BRBBDCACNPR8600
012013101882BBDCX33     080BBDCE       PN      N1000R$  000000000001900000000000200000000000018000000000001800000000000200000000000000000000000000000057000000000000065000000000000001225000000000000296802013121600000010000000000000BRBBDCACNPR8598
012013101882BBDCX34     080BBDCE FM    PN      N1000R$  000000000013500000000001460000000000127000000000013300000000001320000000000000000000000000000023000000000000034500000000000004613200000000000337002013121600000010000000000000BRBBDCACNPR8600
012013101812BBFI11B     010FII BB PROGRCI      MB   R$  000000041513300000004204950000000415111000000041572800000004156000000000415115000000042044000021000000000000000052000000000021617864000000000000009999123100000010000000000000BRBBFICTF006199
012013101812BBPO11      010FII BB PRGIICI           R$  000000001115000000000111690000000011090000000001112300000000111380000000011104000000001113800254000000000000024329000000000270622265000000000000009999123100000010000000000000BRBBPOCTF003111
012013101812BBRC11      010FII BB CORP CI           R$  000000000883100000000089000000000008800000000000883200000000088500000000008750000000000885000015000000000000000826000000000007295937000000000000009999123100000010000000000000BRBBRCCTF004125
012013101802BBRK3       010BR BROKERS  ON      NM   R$  000000000061000000000006170000000000593000000000060000000000005950000000000594000000000059502410000000000004429600000000002658353300000000000000009999123100000010000000000000BRBBRKACNOR4108
012013101896BBRK3F      020BR BROKERS  ON      NM   R$  000000000061200000000006120000000000600000000000060800000000006000000000000576000000000061500003000000000000000043000000000000026151000000000000009999123100000010000000000000BRBBRKACNOR4108
012013101862BBRK3T      030BR BROKERS  ON      NM031R$  000000000060100000000006020000000000601000000000060100000000006020000000000000000000000000000004000000000000001000000000000000601120000000000000009999123100000010000000000000BRBBRKACNOR4108
012013101802BBSE3       010BBSEGURIDADEON      NM   R$  000000000239300000000024340000000002393000000000241600000000024230000000002420000000000242311480000000000007660700000000018511123500000000000000009999123100000010000000000000BRBBSEACNOR5101
012013101896BBSE3F      020BBSEGURIDADEON      NM   R$  000000000238000000000024320000000002371000000000240900000000024250000000002425000000000243000521000000000000017904000000000043133859000000000000009999123100000010000000000000BRBBSEACNOR5101
012013101862BBSE3T      030BBSEGURIDADEON      NM060R$  000000000245000000000024510000000002450000000000245000000000024510000000000000000000000000000004000000000000003500000000000008576358000000000000009999123100000010000000000000BRBBSEACNOR5101
012013101862BBSE3T      030BBSEGURIDADEON      NM090R$  000000000244600000000024790000000002446000000000246400000000024790000000000000000000000000000038000000000000667700000000001645733966000000000000009999123100000010000000000000BRBBSEACNOR5101
012013101878BBSEK23     070BBSE        ON      NM000R$  000000000012000000000001200000000000120000000000012000000000001200000000000105000000000015000001000000000000000100000000000000012000000000000230002013111800000010000000000000BRBBSEACNOR5101
012013101882BBSEX21     080BBSEE       ON      NM000R$  000000000000500000000000050000000000005000000000000500000000000050000000000000000000000000000001000000000000900000000000000004500000000000000210002013121600000010000000000000BRBBSEACNOR5101
012013101882BBSEX24     080BBSEE       ON      NM000R$  000000000006300000000000640000000000063000000000006300000000000640000000000000000000000000000002000000000000900000000000000057105000000000000240002013121600000010000000000000BRBBSEACNOR5101
012013101802BBTG11      010BTG PACTUAL UNT          R$  000000000297800000000030640000000002941000000000298300000000030450000000003033000000000304500633000000000002159800000000006443986000000000000000009999123100000010000000000000BRBBTGUNT007105
012013101896BBTG11F     020BTG PACTUAL UNT          R$  000000000298000000000030900000000002975000000000302200000000030900000000002931000000000314500011000000000000000249000000000000752541000000000000009999123100000010000000000000BRBBTGUNT007105
012013101862BBTG11T     030BTG PACTUAL UNT       180R$  000000000312400000000031250000000003124000000000312400000000031250000000000000000000000000000002000000000001700000000000005310880750000000000000009999123100000010000000000000BRBBTGUNT007105
012013101878BBTGL32     070BBTG        UNT       000R$  000000000003600000000000360000000000036000000000003600000000000360000000000000000000000000000002000000000000050000000000000001800000000000000320002013121600000010000000000000BRBBTGUNT007105
012013101812BBVJ11      010FII C JARDIMCI           R$  000000000774900000000077490000000007700000000000770700000000077000000000007700000000000774900018000000000000000506000000000003900042000000000000009999123100000010000000000000BRBBVJCTF001134
012013101812BCFF11B     010FII BC FFII CI      MB   R$  000000000895000000000089550000000008908000000000892500000000089160000000008916000000000893700046000000000000003384000000000030202305000000000000009999123100000010000000000000BRBCFFCTF000143
012013101802BEEF3       010MINERVA     ON      NM   R$  000000000097500000000009830000000000941000000000095300000000009600000000000960000000000096102874000000000001206500000000001150092800000000000000009999123100000010000000000000BRBEEFACNOR6104
012013101896BEEF3F      020MINERVA     ON      NM   R$  000000000097500000000009750000000000927000000000094800000000009270000000000927000000000095900022000000000000000479000000000000454196000000000000009999123100000010000000000000BRBEEFACNOR6104
012013101862BEEF3T      030MINERVA     ON      NM031R$  000000000095000000000009560000000000950000000000095400000000009560000000000000000000000000000006000000000000009700000000000009260957000000000000009999123100000010000000000000BRBEEFACNOR6104
012013101802BEES3       010BANESTES    ON           R$  000000000005000000000000510000000000050000000000005000000000000510000000000050000000000005100011000000000000071300000000000003565700000000000000009999123100000010000000000000BRBEESACNOR9245
012013101896BEES3F      020BANESTES    ON           R$  000000000005000000000000500000000000050000000000005000000000000500000000000050000000000005200001000000000000000011000000000000000550000000000000009999123100000010000000000000BRBEESACNOR9245
012013101802BEES4       010BANESTES    PN           R$  000000000004600000000000460000000000046000000000004600000000000460000000000046000000000004700001000000000000001100000000000000050600000000000000009999123100000010000000000000BRBEESACNPR6170
012013101802BEMA3       010BEMATECH    ON      NM   R$  000000000077700000000007770000000000772000000000077400000000007740000000000774000000000077600109000000000000043800000000000033932600000000000000009999123100000010000000000000BRBEMAACNOR0114
012013101802BHGR3       010BHG         ON      NM   R$  000000000146300000000015590000000001463000000000151600000000015300000000001530000000000153300098000000000000037200000000000056410900000000000000009999123100000010000000000000BRBHGRACNOR9101
012013101896BHGR3F      020BHG         ON      NM   R$  000000000150500000000015500000000001505000000000152400000000015500000000001453000000000159800005000000000000000143000000000000218029000000000000009999123100000010000000000000BRBHGRACNOR9101
012013101802BICB3       010BICBANCO    ON      N1   R$  000000000074600000000007460000000000640000000000068800000000006400000000000611000000000073900009000000000000001400000000000000964400000000000000009999123100000010000000000000BRBICBACNOR0131
012013101802BICB4       010BICBANCO    PN      N1   R$  000000000059700000000006030000000000597000000000059900000000006010000000000600000000000060100060000000000000116200000000000069610300000000000000009999123100000010000000000000BRBICBACNPR7131
012013101896BICB4F      020BICBANCO    PN      N1   R$  000000000060100000000006010000000000552000000000056200000000005970000000000597000000000060100003000000000000000092000000000000051733000000000000009999123100000010000000000000BRBICBACNPR7131
012013101862BICB4T      030BICBANCO    PN      N1031R$  000000000060100000000006020000000000601000000000060100000000006020000000000000000000000000000004000000000000012000000000000007213432000000000000009999123100000010000000000000BRBICBACNPR7131
012013101896BIOM3F      020BIOMM       ON           R$  000000000094000000000009750000000000940000000000094800000000009750000000000940000000000099000004000000000000000200000000000000189760000000000000009999123100000010000000000000BRBIOMACNOR2101
012013101802BISA3       010BROOKFIELD  ON      NM   R$  000000000016700000000001690000000000156000000000016100000000001580000000000157000000000015803112000000000009039100000000001459796300000000000000009999123100000010000000000000BRBISAACNOR8109
012013101896BISA3F      020BROOKFIELD  ON      NM   R$  000000000016600000000001660000000000157000000000015900000000001570000000000157000000000016700013000000000000000384000000000000061301000000000000009999123100000010000000000000BRBISAACNOR8109
012013101862BISA3T      030BROOKFIELD  ON      NM031R$  000000000016800000000001690000000000165000000000016600000000001660000000000000000000000000000006000000000000034500000000000005759640000000000000009999123100000010000000000000BRBISAACNOR8109
012013101862BISA3T      030BROOKFIELD  ON      NM060R$  000000000016300000000001640000000000163000000000016300000000001640000000000000000000000000000004000000000000045000000000000007346672000000000000009999123100000010000000000000BRBISAACNOR8109
012013101862BISA3T      030BROOKFIELD  ON      NM090R$  000000000016800000000001690000000000160000000000016800000000001610000000000000000000000000000006000000000000879400000000000147782603000000000000009999123100000010000000000000BRBISAACNOR8109
012013101802BMEB4       010MERC BRASIL PN           R$  000000000105600000000010770000000001055000000000106600000000010770000000001065000000000108900009000000000000003600000000000003838800000000000000009999123100000010000000000000BRBMEBACNPR5191
012013101802BMKS3       010BIC MONARK  ON           R$  000000003400000000000340000000000034000000000003400000000000340000000000033001000000003400000002000000000000000002000000000000068000000000000000009999123100000010000000000000BRBMKSACNOR9155
012013101812BMLC11B     010FII BMBRC LCCI      MB   R$  000000001160000000000116000000000011480000000001152800000000116000000000011460000000001160000008000000000000000350000000000004034800000000000000009999123100000010000000000000BRBMLCCTF004120
012013101802BMTO4       010BRASMOTOR   PN           R$  000000000008600000000000870000000000086000000000008600000000000870000000000086000000000008700009000000000000033000000000000002844000000000000000009999123100000010000000000000BRBMTOACNPR6065
012013101802BOBR4       010BOMBRIL     PN           R$  000000000062000000000006220000000000620000000000062000000000006220000000000622000000000063800003000000000000001200000000000000744400000000000000009999123100000010000000000000BRBOBRACNPR3127
012013101896BOBR4F      020BOMBRIL     PN           R$  000000000061100000000006110000000000611000000000061100000000006110000000000550000000000061100002000000000000000051000000000000031161000000000000009999123100000010000000000000BRBOBRACNPR3127
012013101814BOVA11      010ISHARES BOVACI           R$  000000000545000000000054680000000005379000000000540900000000053990000000005399000000000540306505000000000000811560000000004390495400000000000000009999123100000010000000000000BRBOVACTF003101
012013101896BOVA11F     020ISHARES BOVACI           R$  000000000540000000000054640000000005380000000000542600000000053800000000005379000000000541000010000000000000000040000000000000217049000000000000009999123100000010000000000000BRBOVACTF003101
012013101812BPFF11      010FII ABSOLUTOCI           R$  000000000820000000000083550000000008200000000000823300000000083550000000008230000000000835500048000000000000001892000000000015576975000000000000009999123100000010000000000000BRBPFFCTF002106
012013101802BPHA3       010BR PHARMA   ON      NM   R$  000000000086800000000008680000000000852000000000085800000000008620000000000857000000000086200391000000000000189100000000000162411900000000000000009999123100000010000000000000BRBPHAACNOR6102
012013101862BPHA3T      030BR PHARMA   ON      NM031R$  000000000086000000000008610000000000860000000000086000000000008610000000000000000000000000000002000000000000001300000000000001118638000000000000009999123100000010000000000000BRBPHAACNOR6102
012013101802BPNM4       010PANAMERICANOPN      N1   R$  000000000054500000000005460000000000522000000000053400000000005270000000000527000000000053300333000000000000270400000000000144585800000000000000009999123100000010000000000000BRBPNMACNPR6111
012013101896BPNM4F      020PANAMERICANOPN      N1   R$  000000000053600000000005360000000000531000000000053300000000005320000000000532000000000054800003000000000000000024000000000000012798000000000000009999123100000010000000000000BRBPNMACNPR6111
012013101802BRAP3       010BRADESPAR   ON      N1   R$  000000000209900000000021060000000002052000000000208300000000020930000000002049000000000209400022000000000000005700000000000011878200000000000000009999123100000010000000000000BRBRAPACNOR5124
012013101896BRAP3F      020BRADESPAR   ON      N1   R$  000000000209800000000020980000000002080000000000208800000000020800000000002070000000000209900004000000000000000033000000000000068913000000000000009999123100000010000000000000BRBRAPACNOR5124
012013101802BRAP4       010BRADESPAR   PN      N1   R$  000000000254700000000025630000000002523000000000254200000000025460000000002540000000000254606374000000000002210800000000005619920700000000000000009999123100000010000000000000BRBRAPACNPR2124
012013101896BRAP4F      020BRADESPAR   PN      N1   R$  000000000257000000000025960000000002491000000000254200000000025890000000002550000000000258900093000000000000002998000000000007626592000000000000009999123100000010000000000000BRBRAPACNPR2124
012013101862BRAP4T      030BRADESPAR   PN      N1017R$  000000000255300000000025540000000002553000000000255300000000025540000000000000000000000000000002000000000000005000000000000012767964000000000000009999123100000010000000000000BRBRAPACNPR2124
012013101862BRAP4T      030BRADESPAR   PN      N1045R$  000000000256200000000025630000000002562000000000256200000000025630000000000000000000000000000002000000000000000500000000000001281441000000000000009999123100000010000000000000BRBRAPACNPR2124
012013101812BRCR11      010FII BC FUND CI           R$  000000001329900000000134400000000013296000000001336200000000133660000000013366000000001342500267000000000000011678000000000156043550000000000000009999123100000010000000000000BRBRCRCTF000134
012013101802BRFS3       010BRF SA      ON      NM   R$  000000000548000000000054990000000005400000000000545100000000054690000000005465000000000546907165000000000001907400000000010397974100000000000000009999123100000010000000000000BRBRFSACNOR8110
012013101896BRFS3F      020BRF SA      ON      NM   R$  000000000550000000000055890000000005409000000000545600000000054440000000005440000000000547900099000000000000003062000000000016709267000000000000009999123100000010000000000000BRBRFSACNOR8110
012013101862BRFS3T      030BRF SA      ON      NM030R$  000000000548200000000054830000000005482000000000548200000000054830000000000000000000000000000002000000000000000800000000000004385783000000000000009999123100000010000000000000BRBRFSACNOR8110
012013101862BRFS3T      030BRF SA      ON      NM031R$  000000000549600000000054970000000005496000000000549600000000054970000000000000000000000000000002000000000000000200000000000001099333000000000000009999123100000010000000000000BRBRFSACNOR8110
012013101878BRFSJ58     070BRFS        ON      NM000R$  000000000000800000000000080000000000008000000000000800000000000080000000000000000000000000000001000000000000000300000000000000002400000000000580002013102100000010000000000000BRBRFSACNOR8110
012013101878BRFSJ61     070BRFS        ON      NM000R$  000000000000100000000000010000000000001000000000000100000000000010000000000000000000000000000001000000000000270000000000000000270000000000000610002013102100000010000000000000BRBRFSACNOR8110
012013101878BRFSL60     070BRFS        ON      NM000R$  000000000003400000000000450000000000034000000000004400000000000450000000000000000000000004000002000000000000270100000000000012153400000000000600002013121600000010000000000000BRBRFSACNOR8110
012013101882BRFSM50     080BRFSE       ON      NM000R$  000000000007600000000000760000000000076000000000007600000000000760000000000000000000000000000001000000000000200000000000000015200000000000000500002014012000000010000000000000BRBRFSACNOR8110
012013101882BRFSM51     080BRFSE       ON      NM000R$  000000000009500000000000960000000000095000000000009500000000000960000000000000000000000000000002000000000000200000000000000019100000000000000510002014012000000010000000000000BRBRFSACNOR8110
012013101882BRFSV51     080BRFSE       ON      NM000R$  000000000000100000000000010000000000001000000000000100000000000010000000000000000000000000000001000000000000270000000000000000270000000000000510002013102100000010000000000000BRBRFSACNOR8110
012013101882BRFSV54     080BRFSE       ON      NM000R$  000000000001200000000000120000000000012000000000001200000000000120000000000000000000000000000001000000000000270000000000000003240000000000000540002013102100000010000000000000BRBRFSACNOR8110
012013101882BRFSX51     080BRFSE       ON      NM000R$  000000000005800000000000580000000000058000000000005800000000000580000000000000000000000000000002000000000000270000000000000015660000000000000510002013121600000010000000000000BRBRFSACNOR8110
012013101882BRFSX54     080BRFSE       ON      NM000R$  000000000012900000000001290000000000129000000000012900000000001290000000000000000000000000000002000000000000270000000000000034830000000000000536502013121600000010000000000000BRBRFSACNOR8109
012013101802BRIN3       010BR INSURANCEON      NM   R$  000000000207800000000020890000000002048000000000206600000000020650000000002065000000000208500636000000000000110800000000000228935400000000000000009999123100000010000000000000BRBRINACNOR3106
012013101896BRIN3F      020BR INSURANCEON      NM   R$  000000000208000000000020800000000002056000000000207100000000020760000000002060000000000208800006000000000000000100000000000000207103000000000000009999123100000010000000000000BRBRINACNOR3106
012013101896BRIV4F      020ALFA INVEST PN           R$  000000000059600000000005960000000000596000000000059600000000005960000000000542000000000059600002000000000000000005000000000000002980000000000000009999123100000010000000000000BRBRIVACNPR3197
012013101802BRKM3       010BRASKEM     ON      N1   R$  000000000134000000000013480000000001336000000000134100000000013480000000001340000000000134800015000000000000021100000000000028300400000000000000009999123100000010000000000000BRBRKMACNOR1110
012013101896BRKM3F      020BRASKEM     ON      N1   R$  000000000130100000000013010000000001301000000000130100000000013010000000001301000000000133500001000000000000000003000000000000003903000000000000009999123100000010000000000000BRBRKMACNOR1110
012013101802BRKM5       010BRASKEM     PNA     N1   R$  000000000193700000000019890000000001937000000000197200000000019890000000001980000000000198910413000000000002379200000000004693278200000000000000009999123100000010000000000000BRBRKMACNPA4110
012013101896BRKM5F      020BRASKEM     PNA     N1   R$  000000000197600000000019890000000001950000000000196700000000019740000000001974000000000198400045000000000000001183000000000002327362000000000000009999123100000010000000000000BRBRKMACNPA4110
012013101862BRKM5T      030BRASKEM     PNA     N1031R$  000000000198400000000019850000000001984000000000198400000000019850000000000000000000000000000002000000000000001000000000000001984161000000000000009999123100000010000000000000BRBRKMACNPA4110
012013101802BRML3       010BR MALLS PARON      NM   R$  000000000220100000000022220000000002175000000000220500000000022130000000002204000000000221309333000000000003607900000000007958485500000000000000009999123100000010000000000000BRBRMLACNOR9105
012013101896BRML3F      020BR MALLS PARON      NM   R$  000000000221000000000022600000000002186000000000220600000000021990000000002171000000000222700045000000000000001462000000000003224875000000000000009999123100000010000000000000BRBRMLACNOR9105
012013101878BRMLJ50     070BRML        ON      NM000R$  000000000017000000000001700000000000170000000000017000000000001700000000000000000000000000000001000000000000003900000000000000663000000000000205002013102100000010000000000000BRBRMLACNOR9105
012013101878BRMLK21     070BRML        ON      NM000R$  000000000014400000000001440000000000144000000000014400000000001440000000000000000000000014400002000000000000003900000000000000561600000000000210002013111800000010000000000000BRBRMLACNOR9105
012013101878BRMLK52     070BRML        ON      NM000R$  000000000006100000000000610000000000060000000000006000000000000600000000000000000000000000000002000000000000642600000000000039005800000000000225002013111800000010000000000000BRBRMLACNOR9105
012013101882BRMLW1      080BRMLE       ON      NM000R$  000000000003900000000000390000000000039000000000003900000000000390000000000000000000000000000002000000000000642600000000000025061400000000000212502013111800000010000000000000BRBRMLACNOR9105
012013101882BRMLW50     080BRMLE       ON      NM000R$  000000000002100000000000210000000000021000000000002100000000000210000000000000000000000000000001000000000000642600000000000013494600000000000205002013111800000010000000000000BRBRMLACNOR9105
012013101802BRPR3       010BR PROPERT  ON      NM   R$  000000000194500000000019450000000001897000000000192000000000019200000000001911000000000192006659000000000004746300000000009112962500000000000000009999123100000010000000000000BRBRPRACNOR9112
012013101896BRPR3F      020BR PROPERT  ON      NM   R$  000000000193700000000019370000000001885000000000191500000000019310000000001821000000000193100026000000000000000573000000000001097601000000000000009999123100000010000000000000BRBRPRACNOR9112
012013101802BRSR3       010BANRISUL    ON      N1   R$  000000000147900000000014790000000001479000000000147900000000014790000000001350000000000147900007000000000000003000000000000004437000000000000000009999123100000010000000000000BRBRSRACNOR3131
012013101802BRSR6       010BANRISUL    PNB     N1   R$  000000000154300000000015850000000001529000000000154900000000015420000000001537000000000154204193000000000001047000000000001621931300000000000000009999123100000010000000000000BRBRSRACNPB4134
012013101896BRSR6F      020BANRISUL    PNB     N1   R$  000000000156500000000015650000000001531000000000154700000000015330000000001534000000000160000025000000000000000591000000000000914513000000000000009999123100000010000000000000BRBRSRACNPB4134
012013101802BSEV3       010BIOSEV      ON      NM   R$  000000000084400000000009240000000000840000000000087800000000008640000000000841000000000092000018000000000000013200000000000011589600000000000000009999123100000010000000000000BRBSEVACNOR3100
012013101896BSEV3F      020BIOSEV      ON      NM   R$  000000000085000000000008500000000000850000000000085000000000008500000000000890000000000094700001000000000000000028000000000000023800000000000000009999123100000010000000000000BRBSEVACNOR3100
012013101882BSEVS99     080BSEVE       ON      NM000R$  000000000065000000000006500000000000650000000000065000000000006500000000000000000000000069000001000000000000000010000000000000006500000000000165702014072100000010000000000000BRBSEVACNOR3100
012013101802BTOW3       010B2W DIGITAL ON      NM   R$  000000000172000000000017310000000001631000000000166300000000016330000000001633000000000164801748000000000000465500000000000773505900000000000000009999123100000010000000000000BRBTOWACNOR8105
012013101896BTOW3F      020B2W DIGITAL ON      NM   R$  000000000174000000000017400000000001603000000000166800000000016030000000001625000000000165900031000000000000000875000000000001458707000000000000009999123100000010000000000000BRBTOWACNOR8105
012013101802BTTL3       010BATTISTELLA ON           R$  000000000009700000000000970000000000096000000000009600000000000960000000000090000000000009600003000000000000005200000000000000504200000000000000009999123100000010000000000000BRBTTLACNOR0105
012013101802BVMF3       010BMFBOVESPA  ON      NM   R$  000000000128600000000013030000000001284000000000129400000000013000000000001296000000000130014501000000000006044600000000007823118500000000000000009999123100000010000000000000BRBVMFACNOR3126
012013101896BVMF3F      020BMFBOVESPA  ON      NM   R$  000000000129500000000013000000000001286000000000129300000000013000000000001285000000000130000091000000000000002729000000000003530755000000000000009999123100000010000000000000BRBVMFACNOR3126
012013101862BVMF3T      030BMFBOVESPA  ON      NM031R$  000000000130300000000013040000000001297000000000130000000000012980000000000000000000000000000004000000000000003200000000000004160079000000000000009999123100000010000000000000BRBVMFACNOR3126
012013101862BVMF3T      030BMFBOVESPA  ON      NM090R$  000000000132000000000013220000000001319000000000132000000000013210000000000000000000000000000026000000000000460000000000000607361072000000000000009999123100000010000000000000BRBVMFACNOR3126
012013101878BVMFJ10     070BVMF        ON      NM000R$  000000000031100000000003120000000000311000000000031100000000003120000000000000000000000040200013000000000000007000000000000002179100000000000098502013102100000010000000000000BRBVMFACNOR3125
012013101878BVMFJ11     070BVMF        ON      NM000R$  000000000022600000000002270000000000205000000000021600000000002110000000000195000000000000000007000000000000008800000000000001904200000000000108502013102100000010000000000000BRBVMFACNOR3125
012013101878BVMFJ12     070BVMF        ON      NM000R$  000000000011200000000001130000000000105000000000010800000000001130000000000060000000000012000109000000000000110800000000000012037100000000000118502013102100000010000000000000BRBVMFACNOR3125
012013101878BVMFJ13     070BVMF        ON      NM000R$  000000000001200000000000190000000000012000000000001500000000000150000000000015000000000002000677000000000000403900000000000006125500000000000128502013102100000010000000000000BRBVMFACNOR3125
012013101878BVMFJ14     070BVMF        ON      NM000R$  000000000000100000000000010000000000001000000000000100000000000010000000000000000000000000100008000000000000087400000000000000087400000000000138502013102100000010000000000000BRBVMFACNOR3125
012013101878BVMFJ42     070BVMF        ON      NM000R$  000000000006200000000000630000000000055000000000005900000000000610000000000026000000000123500060000000000000055800000000000003312000000000000123502013102100000010000000000000BRBVMFACNOR3125
012013101878BVMFJ43     070BVMF        ON      NM000R$  000000000000200000000000020000000000001000000000000100000000000010000000000000000000000000000024000000000000024700000000000000044400000000000133502013102100000010000000000000BRBVMFACNOR3125
012013101878BVMFK10     070BVMF        ON      NM000R$  000000000030700000000003070000000000307000000000030700000000003070000000000000000000000045700001000000000000007000000000000002149000000000000098502013111800000010000000000000BRBVMFACNOR3125
012013101878BVMFK11     070BVMF        ON      NM000R$  000000000021000000000002100000000000210000000000021000000000002100000000000146000000000000000008000000000000004100000000000000861000000000000108502013111800000010000000000000BRBVMFACNOR3125
012013101878BVMFK12     070BVMF        ON      NM000R$  000000000011800000000001290000000000118000000000012200000000001290000000000102000000000012900075000000000000044400000000000005423600000000000118502013111800000010000000000000BRBVMFACNOR3125
012013101878BVMFK13     070BVMF  FM    ON      NM000R$  000000000004700000000000510000000000043000000000004600000000000500000000000046000000000005200161000000000000196800000000000009096400000000000128502013111800000010000000000000BRBVMFACNOR3125
012013101878BVMFK14     070BVMF  FM    ON      NM000R$  000000000000800000000000110000000000008000000000000900000000000100000000000008000000000001100038000000000000096400000000000000958400000000000138502013111800000010000000000000BRBVMFACNOR3125
012013101878BVMFK16     070BVMF        ON      NM000R$  000000000000100000000000010000000000001000000000000100000000000010000000000000000000000000000001000000000000005000000000000000005000000000000160002013111800000010000000000000BRBVMFACNOR3126
012013101878BVMFK42     070BVMF  FM    ON      NM000R$  000000000007200000000000720000000000068000000000006900000000000700000000000000000000000000000010000000000000019900000000000001391200000000000125002013111800000010000000000000BRBVMFACNOR3126
012013101878BVMFK43     070BVMF  FM    ON      NM000R$  000000000001800000000000190000000000016000000000001700000000000170000000000014000000000001700021000000000000021500000000000000370400000000000135002013111800000010000000000000BRBVMFACNOR3126
012013101878BVMFK44     070BVMF  FM    ON      NM000R$  000000000000400000000000040000000000004000000000000400000000000040000000000000000000000000000016000000000000047100000000000000188400000000000145002013111800000010000000000000BRBVMFACNOR3126
012013101878BVMFL13     070BVMF  FM    ON      NM000R$  000000000006600000000000700000000000065000000000006700000000000690000000000055000000000009000010000000000000028600000000000001933100000000000128502013121600000010000000000000BRBVMFACNOR3125
012013101878BVMFL14     070BVMF  FM    ON      NM000R$  000000000002700000000000270000000000026000000000002600000000000260000000000004000000000002900002000000000000000600000000000000015800000000000137402013121600000010000000000000BRBVMFACNOR3124
012013101878BVMFL42     070BVMF  FM    ON      NM000R$  000000000009100000000000910000000000091000000000009100000000000910000000000000000000000000000002000000000000003700000000000000336700000000000125002013121600000010000000000000BRBVMFACNOR3126
012013101878BVMFL43     070BVMF        ON      NM000R$  000000000004500000000000480000000000045000000000004700000000000480000000000000000000000004800004000000000000009000000000000000423000000000000131902013121600000010000000000000BRBVMFACNOR3126
012013101878BVMFL44     070BVMF  FM    ON      NM000R$  000000000001100000000000110000000000011000000000001100000000000110000000000000000000000000000001000000000000003500000000000000038500000000000145002013121600000010000000000000BRBVMFACNOR3126
012013101878BVMFL64     070BVMF  FM    ON      NM000R$  000000000002200000000000220000000000021000000000002100000000000210000000000000000000000000000017000000000000035000000000000000760100000000000140002013121600000010000000000000BRBVMFACNOR3126
012013101882BVMFV12     080BVMFE       ON      NM000R$  000000000000100000000000010000000000001000000000000100000000000010000000000000000000000000100002000000000000001500000000000000001500000000000118502013102100000010000000000000BRBVMFACNOR3125
012013101882BVMFV13     080BVMFE       ON      NM000R$  000000000000600000000000100000000000001000000000000600000000000010000000000000000000000000100101000000000000155400000000000001082600000000000128502013102100000010000000000000BRBVMFACNOR3125
012013101882BVMFV41     080BVMFE       ON      NM000R$  000000000000100000000000010000000000001000000000000100000000000010000000000000000000000000000001000000000000000100000000000000000100000000000113502013102100000010000000000000BRBVMFACNOR3125
012013101882BVMFW12     080BVMFE FM    ON      NM000R$  000000000001000000000000110000000000008000000000001000000000000080000000000007000000000001000076000000000000088400000000000000885500000000000118502013111800000010000000000000BRBVMFACNOR3125
012013101882BVMFW13     080BVMFE FM    ON      NM000R$  000000000003500000000000350000000000027000000000003100000000000290000000000026000000000003800057000000000000049100000000000001556300000000000128502013111800000010000000000000BRBVMFACNOR3125
012013101882BVMFW42     080BVMFE FM    ON      NM000R$  000000000002200000000000220000000000022000000000002200000000000220000000000000000000000000000001000000000000000600000000000000013200000000000125002013111800000010000000000000BRBVMFACNOR3126
012013101882BVMFW43     080BVMFE FM    ON      NM000R$  000000000007000000000000700000000000064000000000006800000000000640000000000000000000000000000012000000000000026900000000000001832700000000000135002013111800000010000000000000BRBVMFACNOR3126
012013101882BVMFX13     080BVMFE FM    ON      NM000R$  000000000004200000000000450000000000042000000000004400000000000450000000000000000000000000000002000000000000003000000000000000132000000000000128502013121600000010000000000000BRBVMFACNOR3125
012013101882BVMFX14     080BVMFE FM    ON      NM000R$  000000000009200000000000920000000000088000000000008900000000000900000000000000000000000000000012000000000000038700000000000003479500000000000137402013121600000010000000000000BRBVMFACNOR3124
012013101882BVMFX42     080BVMFE FM    ON      NM000R$  000000000002900000000000290000000000029000000000002900000000000290000000000000000000000000000001000000000000003000000000000000087000000000000125002013121600000010000000000000BRBVMFACNOR3126
012013101802CAMB4       010CAMBUCI     PN           R$  000000000018000000000001800000000000180000000000018000000000001800000000000179000000000018800006000000000000005700000000000001026000000000000000009999123100000010000000000000BRCAMBACNPR1117
012013101802CARD3       010CSU CARDSYSTON      NM   R$  000000000029900000000003080000000000292000000000030000000000003080000000000300000000000030800139000000000000102300000000000030732000000000000000009999123100000010000000000000BRCARDACNOR9105
012013101802CBMA4       010COBRASMA    PN           R$  000000000000400000000000040000000000004000000000000400000000000040000000000004000000000000500001000000000000050000000000000000200000000000000000009999123100000010000000000000BRCBMAACNPR1124
012013101896CBMA4F      020COBRASMA    PN           R$  000000000000400000000000040000000000004000000000000400000000000040000000000004000000000000500001000000000000000001000000000000000004000000000000009999123100000010000000000000BRCBMAACNPR1124
012013101808CCHI3       010CHIARELLI   ON           R$  000000000001800000000000180000000000017000000000001700000000000170000000000017000000000001800010000000000000120000000000000002130000000000000000009999123100000010000000000000BRCCHIACNOR5123
012013101896CCHI3F      020CHIARELLI   ON           R$  000000000001800000000000180000000000016000000000001700000000000160000000000016000000000001900002000000000000005055000000000000090880000000000000009999123100000010000000000000BRCCHIACNOR5123
012013101802CCPR3       010CYRE COM-CCPON      NM   R$  000000000205000000000020500000000002033000000000204300000000020500000000002060000000000209000059000000000000020500000000000041890500000000000000009999123100000010000000000000BRCCPRACNOR9107
012013101802CCRO3       010CCR SA      ON      NM   R$  000000000177300000000017800000000001756000000000176600000000017780000000001770000000000177808376000000000005928100000000010471269300000000000000009999123100000010000000000000BRCCROACNOR2123
012013101896CCRO3F      020CCR SA      ON      NM   R$  000000000177900000000017810000000001760000000000177000000000017810000000001765000000000178000056000000000000001574000000000002786030000000000000009999123100000010000000000000BRCCROACNOR2123
012013101802CCXC3       010CCX CARVAO  ON      NM   R$  000000000014000000000001450000000000134000000000013900000000001380000000000138000000000013901018000000000003426500000000000477915300000000000000009999123100000010000000000000BRCCXCACNOR5100
012013101896CCXC3F      020CCX CARVAO  ON      NM   R$  000000000013900000000001390000000000138000000000013800000000001380000000000138000000000014100016000000000000000600000000000000083334000000000000009999123100000010000000000000BRCCXCACNOR5100
012013101802CEEB3       010COELBA      ON           R$  000000000321800000000033000000000003200000000000328100000000033000000000003208000000000338000005000000000000001000000000000003281800000000000000009999123100000010000000000000BRCEEBACNOR3163
012013101896CEEB3F      020COELBA      ON           R$  000000000441500000000044150000000004415000000000441500000000044150000000003018000000000441500001000000000000000001000000000000004415000000000000009999123100000010000000000000BRCEEBACNOR3163
012013101808CELP3       010CELPA       ON           R$  000000000008400000000000850000000000084000000000008400000000000840000000000080000000000008400004000000000000004700000000000000394900000000000000009999123100000010000000000000BRCELPACNOR8112
012013101812CEOC11B     010FII CEO CCP CI      MB   R$  000000000873000000000087300000000008622000000000869100000000086220000000008650000000000869900018000000000000001072000000000009317557000000000000009999123100000010000000000000BRCEOCCTF003111
012013101802CEPE5       010CELPE       PNA          R$  000000000215000000000021500000000002150000000000215000000000021500000000002100000000000215000001000000000000002000000000000004300000000000000000009999123100000010000000000000BRCEPEACNPA6151
012013101802CESP3       010CESP        ON      N1   R$  000000000195000000000019800000000001925000000000196900000000019800000000001921000000000198000015000000000000008800000000000017327900000000000000009999123100000010000000000000BRCESPACNOR3160
012013101896CESP3F      020CESP        ON      N1   R$  000000000190100000000019200000000001901000000000190600000000019200000000001803000000000200500003000000000000000055000000000000104840000000000000009999123100000010000000000000BRCESPACNOR3160
012013101802CESP5       010CESP        PNA     N1   R$  000000000210300000000021030000000002103000000000210300000000021030000000002102000000000224900001000000000000000100000000000000210300000000000000009999123100000010000000000000BRCESPACNPA6108
012013101802CESP6       010CESP        PNB     N1   R$  000000000225700000000022900000000002230000000000225700000000022550000000002255000000000226202052000000000000810800000000001830440500000000000000009999123100000010000000000000BRCESPACNPB4119
012013101896CESP6F      020CESP        PNB     N1   R$  000000000225100000000023090000000002241000000000227500000000022510000000002251000000000230000023000000000000000637000000000001449786000000000000009999123100000010000000000000BRCESPACNPB4119
012013101862CESP6T      030CESP        PNB     N1017R$  000000000227800000000022790000000002274000000000227600000000022750000000000000000000000000000010000000000000006000000000000013657567000000000000009999123100000010000000000000BRCESPACNPB4119
012013101862CESP6T      030CESP        PNB     N1031R$  000000000228100000000022820000000002281000000000228100000000022820000000000000000000000000000004000000000000001800000000000004105946000000000000009999123100000010000000000000BRCESPACNPB4119
012013101878CESPA50     070CESP        PNB     N1000R$  000000000027600000000002760000000000276000000000027600000000002760000000000000000000000000000001000000000000003000000000000000828000000000000205002014012000000010000000000000BRCESPACNPB4119
012013101878CESPJ20     070CESP        PNB     N1000R$  000000000027600000000002760000000000276000000000027600000000002760000000000000000000000000000001000000000000003000000000000000828000000000000200002013102100000010000000000000BRCESPACNPB4119
012013101878CESPK22     070CESP        PNB     N1000R$  000000000010000000000001140000000000100000000000010700000000001140000000000000000000000000000002000000000000565000000000000060700000000000000220002013111800000010000000000000BRCESPACNPB4119
012013101882CESPW49     080CESPE       PNB     N1000R$  000000000000200000000000020000000000001000000000000100000000000010000000000000000000000000000002000000000000565000000000000000830000000000000195002013111800000010000000000000BRCESPACNPB4119
012013101882CESPW50     080CESPE       PNB     N1000R$  000000000000500000000000150000000000005000000000001000000000000150000000000000000000000000000002000000000000565000000000000005825000000000000205002013111800000010000000000000BRCESPACNPB4119
012013101802CGAS5       010COMGAS      PNA          R$  000000000581700000000058970000000005767000000000579700000000058100000000005800000000000581000140000000000000016200000000000093925000000000000000009999123100000010000000000000BRCGASACNPA3129
012013101896CGAS5F      020COMGAS      PNA          R$  000000000601500000000060150000000005810000000000586100000000058170000000005817000000000638500006000000000000000208000000000001219240000000000000009999123100000010000000000000BRCGASACNPA3129
012013101802CGRA3       010GRAZZIOTIN  ON           R$  000000000164900000000016490000000001600000000000160600000000016000000000001600000000000162400026000000000000005800000000000009320200000000000000009999123100000010000000000000BRCGRAACNOR2061
012013101862CGRA3T      030GRAZZIOTIN  ON        360R$  000000000180600000000018070000000001806000000000180600000000018070000000000000000000000000000002000000000000000100000000000000180604000000000000009999123100000010000000000000BRCGRAACNOR2061
012013101802CGRA4       010GRAZZIOTIN  PN           R$  000000000177500000000017750000000001774000000000177400000000017740000000001752000000000177400003000000000000000600000000000001064500000000000000009999123100000010000000000000BRCGRAACNPR9061
012013101802CIEL3       010CIELO       ON      NM   R$  000000000665100000000067180000000006580000000000661600000000065850000000006585000000000659006435000000000003612600000000023901133700000000000000009999123100000010000000000000BRCIELACNOR3112
012013101896CIEL3F      020CIELO       ON      NM   R$  000000000668000000000067070000000006580000000000662900000000065800000000006555000000000669000139000000000000003170000000000021015790000000000000009999123100000010000000000000BRCIELACNOR3112
012013101862CIEL3T      030CIELO       ON      NM031R$  000000000664400000000066450000000006644000000000664400000000066450000000000000000000000000000004000000000000000200000000000001328970000000000000009999123100000010000000000000BRCIELACNOR3112
012013101862CIEL3T      030CIELO       ON      NM090R$  000000000676500000000067860000000006751000000000676200000000067550000000000000000000000000000016000000000000220000000000001487698320000000000000009999123100000010000000000000BRCIELACNOR3112
012013101878CIELJ58     070CIEL        ON      NM000R$  000000000093500000000009350000000000935000000000093500000000009350000000000000000000000000000001000000000000000300000000000000280500000000000569402013102100000010000000000000BRCIELACNOR3111
012013101838CIELJ61E    012CIEL        ON      NM000R$  000000000610000000000061000000000006100000000000610000000000061000000000000000000000000000000001000000000000001500000000000009150000000000000610002013102100000010000000000000BRCIELACNOR3112
012013101878CIELK60     070CIEL        ON      NM000R$  000000000078200000000007830000000000782000000000078200000000007820000000000000000000000000000003000000000000630000000000000493164000000000000589402013111800000010000000000000BRCIELACNOR3111
012013101878CIELK63     070CIEL        ON      NM000R$  000000000038500000000003850000000000385000000000038500000000003850000000000000000000000000000001000000000000002600000000000001001000000000000630002013111800000010000000000000BRCIELACNOR3112
012013101882CIELW56     080CIELE       ON      NM000R$  000000000000100000000000010000000000001000000000000100000000000010000000000000000000000000000001000000000000630000000000000000630000000000000549402013111800000010000000000000BRCIELACNOR3111
012013101882CIELX60     080CIELE       ON      NM000R$  000000000004200000000000430000000000042000000000004200000000000430000000000000000000000000000003000000000000260000000000000011050000000000000600002013121600000010000000000000BRCIELACNOR3112
012013101882CIELX66     080CIELE       ON      NM000R$  000000000016100000000001610000000000161000000000016100000000001610000000000000000000000000000001000000000000260000000000000041860000000000000660002013121600000010000000000000BRCIELACNOR3112
012013101802CLSC4       010CELESC      PN      N2   R$  000000000184100000000018410000000001824000000000183600000000018400000000001830000000000186000017000000000000003600000000000006612800000000000000009999123100000010000000000000BRCLSCACNPR3107
012013101802CMIG3       010CEMIG       ON      N1   R$  000000000195300000000020500000000001953000000000198400000000019710000000001971000000000200200233000000000000057200000000000113513900000000000000009999123100000010000000000000BRCMIGACNOR6208
012013101896CMIG3F      020CEMIG       ON      N1   R$  000000000195000000000020390000000001950000000000198200000000019750000000001981000000000204000021000000000000000585000000000001159738000000000000009999123100000010000000000000BRCMIGACNOR6208
012013101802CMIG4       010CEMIG       PN      N1   R$  000000000197500000000020370000000001975000000000201900000000020300000000002029000000000203008225000000000002400400000000004848487300000000000000009999123100000010000000000000BRCMIGACNPR3208
012013101896CMIG4F      020CEMIG       PN      N1   R$  000000000198600000000020360000000001980000000000201400000000020310000000002024000000000203100178000000000000004390000000000008844857000000000000009999123100000010000000000000BRCMIGACNPR3208
012013101862CMIG4T      030CEMIG       PN      N1031R$  000000000200400000000020400000000002004000000000203200000000020380000000000000000000000000000010000000000000004250000000000008639122000000000000009999123100000010000000000000BRCMIGACNPR3208
012013101878CMIGJ20     070CMIG        PN      N1000R$  000000000001100000000000310000000000011000000000002300000000000280000000000028000000000003900043000000000000018100000000000000420100000000000200002013102100000010000000000000BRCMIGACNPR3208
012013101878CMIGK20     070CMIG        PN      N1000R$  000000000006600000000000730000000000066000000000007100000000000720000000000070000000000008200008000000000000005700000000000000408500000000000200002013111800000010000000000000BRCMIGACNPR3208
012013101878CMIGK21     070CMIG        PN      N1000R$  000000000002500000000000250000000000025000000000002500000000000250000000000000000000000004200001000000000000001000000000000000025000000000000210002013111800000010000000000000BRCMIGACNPR3208
012013101878CMIGK50     070CMIG        PN      N1000R$  000000000006500000000000650000000000065000000000006500000000000650000000000000000000000000000002000000000000002000000000000000130000000000000205002013111800000010000000000000BRCMIGACNPR3208
012013101812CNES11B     010FII CENESP  CI      MB   R$  000000001275000000000127550000000012470000000001265600000000124700000000012650000000001300000015000000000000000353000000000004467915000000000000009999123100000010000000000000BRCNESCTF001126
012013101802COCE3       010COELCE      ON           R$  000000000400300000000040360000000004000000000000401100000000040190000000004000000000000401900022000000000000005500000000000022060500000000000000009999123100000010000000000000BRCOCEACNOR0132
012013101896COCE3F      020COELCE      ON           R$  000000000400100000000040010000000004001000000000400100000000040010000000003825000000000430000001000000000000000067000000000000268067000000000000009999123100000010000000000000BRCOCEACNOR0132
012013101802COCE5       010COELCE      PNA          R$  000000000391100000000039410000000003901000000000391800000000039100000000003910000000000392500166000000000000096600000000000378573300000000000000009999123100000010000000000000BRCOCEACNPA3133
012013101896COCE5F      020COELCE      PNA          R$  000000000393300000000039360000000003920000000000393300000000039200000000003926000000000393500011000000000000000341000000000001341305000000000000009999123100000010000000000000BRCOCEACNPA3133
012013101802CPFE3       010CPFL ENERGIAON      NM   R$  000000000196000000000019960000000001958000000000197600000000019800000000001977000000000198003817000000000000862300000000001703997900000000000000009999123100000010000000000000BRCPFEACNOR0122
012013101896CPFE3F      020CPFL ENERGIAON      NM   R$  000000000196100000000019990000000001952000000000197700000000019750000000001952000000000200000020000000000000000530000000000001048116000000000000009999123100000010000000000000BRCPFEACNOR0122
012013101802CPLE3       010COPEL       ON      N1   R$  000000000222500000000022420000000002213000000000222100000000022200000000002220000000000222500038000000000000013900000000000030879500000000000000009999123100000010000000000000BRCPLEACNOR8128
012013101802CPLE6       010COPEL       PNB     N1   R$  000000000307200000000030840000000003049000000000306700000000030650000000003053000000000306502121000000000000436600000000001339136900000000000000009999123100000010000000000000BRCPLEACNPB9125
012013101896CPLE6F      020COPEL       PNB     N1   R$  000000000305900000000031190000000003031000000000307300000000031100000000003030000000000311000022000000000000000478000000000001469240000000000000009999123100000010000000000000BRCPLEACNPB9125
012013101802CPRE3       010CPFL RENOVAVON      NM   R$  000000000134900000000013580000000001347000000000134700000000013580000000001358000000000137100008000000000000008100000000000010918700000000000000009999123100000010000000000000BRCPREACNOR5100
012013101896CPRE3F      020CPFL RENOVAVON      NM   R$  000000000133500000000013490000000001335000000000134000000000013490000000001209000000000134900003000000000000000052000000000000069707000000000000009999123100000010000000000000BRCPREACNOR5100
012013101802CRDE3       010CR2         ON      NM   R$  000000000038300000000003900000000000383000000000038900000000003900000000000390000000000039900005000000000000003500000000000001363300000000000000009999123100000010000000000000BRCRDEACNOR1108
012013101802CREM3       010CREMER      ON      NM   R$  000000000149500000000014960000000001483000000000149300000000014960000000001485000000000149600013000000000000008400000000000012543000000000000000009999123100000010000000000000BRCREMACNOR2167
012013101896CREM3F      020CREMER      ON      NM   R$  000000000150000000000015000000000001499000000000149900000000014990000000001471000000000159700002000000000000000045000000000000067485000000000000009999123100000010000000000000BRCREMACNOR2167
012013101802CRUZ3       010SOUZA CRUZ  ON           R$  000000000256700000000026010000000002561000000000257500000000025750000000002571000000000257503344000000000000620400000000001597950200000000000000009999123100000010000000000000BRCRUZACNOR0248
012013101896CRUZ3F      020SOUZA CRUZ  ON           R$  000000000259300000000026080000000002551000000000257500000000025510000000002551000000000260800052000000000000001395000000000003593371000000000000009999123100000010000000000000BRCRUZACNOR0248
012013101862CRUZ3T      030SOUZA CRUZ  ON        017R$  000000000260800000000026090000000002608000000000260800000000026090000000000000000000000000000002000000000000002000000000000005216518000000000000009999123100000010000000000000BRCRUZACNOR0248
012013101862CRUZ3T      030SOUZA CRUZ  ON        031R$  000000000261500000000026170000000002615000000000261500000000026170000000000000000000000000000004000000000000002600000000000006800581000000000000009999123100000010000000000000BRCRUZACNOR0248
012013101878CRUZK1      070CRUZ        ON        000R$  000000000009100000000000920000000000091000000000009100000000000920000000000000000000000000000003000000000000005000000000000000457500000000000255002013111800000010000000000000BRCRUZACNOR0248
012013101802CSAN3       010COSAN       ON      NM   R$  000000000444500000000044500000000004373000000000440800000000043970000000004391000000000439703443000000000000947400000000004176833500000000000000009999123100000010000000000000BRCSANACNOR6108
012013101896CSAN3F      020COSAN       ON      NM   R$  000000000447000000000044700000000004356000000000441200000000043600000000004360000000000440000034000000000000001125000000000004964422000000000000009999123100000010000000000000BRCSANACNOR6108
012013101802CSCO34      010CISCO       DRN          R$  000000000500900000000050090000000005009000000000500900000000050090000000004955000000000503500001000000000000012500000000000062612500000000000000009999123100000010000000000000BRCSCOBDR004111
012013101802CSMG3       010COPASA      ON      NM   R$  000000000359700000000037470000000003597000000000368500000000037250000000003725000000000373300983000000000000163600000000000603116500000000000000009999123100000010000000000000BRCSMGACNOR5128
012013101896CSMG3F      020COPASA      ON      NM   R$  000000000370000000000038000000000003635000000000369700000000037490000000003401000000000375000017000000000000000303000000000001120369000000000000009999123100000010000000000000BRCSMGACNOR5128
012013101814CSMO11      010ISHARES CSMOCI           R$  000000000486100000000048610000000004861000000000486100000000048610000000004700000000000486500001000000000000001000000000000004861000000000000000009999123100000010000000000000BRCSMOCTF002100
012013101862CSMO11T     030ISHARES CSMOCI        031R$  000000000489500000000048960000000004895000000000489500000000048960000000000000000000000000000002000000000000001000000000000004895027000000000000009999123100000010000000000000BRCSMOCTF002100
012013101802CSNA3       010SID NACIONALON           R$  000000000116700000000011850000000001146000000000116400000000011700000000001170000000000117110714000000000007737500000000009013764900000000000000009999123100000010000000000000BRCSNAACNOR6243
012013101896CSNA3F      020SID NACIONALON           R$  000000000116100000000011870000000001148000000000116500000000011870000000001160000000000118700070000000000000002154000000000002510321000000000000009999123100000010000000000000BRCSNAACNOR6243
012013101862CSNA3T      030SID NACIONALON        031R$  000000000117300000000011740000000001173000000000117300000000011740000000000000000000000000000002000000000000003000000000000003519115000000000000009999123100000010000000000000BRCSNAACNOR6243
012013101862CSNA3T      030SID NACIONALON        090R$  000000000118600000000011870000000001186000000000118600000000011870000000000000000000000000000002000000000000000400000000000000474561000000000000009999123100000010000000000000BRCSNAACNOR6243
012013101878CSNAJ10     070CSNA        ON        000R$  000000000016500000000001650000000000151000000000015900000000001510000000000000000000000000000015000000000000019200000000000003059500000000000100002013102100000010000000000000BRCSNAACNOR6243
012013101878CSNAJ11     070CSNA        ON        000R$  000000000006000000000000600000000000055000000000005900000000000550000000000058000000000000000003000000000000006700000000000000397000000000000110002013102100000010000000000000BRCSNAACNOR6243
012013101838CSNAJ11E    012CSNA        ON        000R$  000000000110000000000011000000000001100000000000110000000000011000000000000000000000000000000001000000000000000200000000000000220000000000000110002013102100000010000000000000BRCSNAACNOR6243
012013101878CSNAJ60     070CSNA        ON        000R$  000000000010000000000001090000000000096000000000010400000000000960000000000089000000000000000009000000000000014300000000000001495800000000000106002013102100000010000000000000BRCSNAACNOR6243
012013101878CSNAJ7      070CSNA        ON        000R$  000000000048500000000004850000000000473000000000047800000000004730000000000000000000000000000004000000000000003900000000000001867500000000000068002013102100000010000000000000BRCSNAACNOR6242
012013101878CSNAJ8      070CSNA        ON        000R$  000000000038500000000003850000000000385000000000038500000000003850000000000000000000000000000004000000000000004000000000000001540000000000000078002013102100000010000000000000BRCSNAACNOR6242
012013101878CSNAJ9      070CSNA        ON        000R$  000000000028800000000002880000000000284000000000028500000000002840000000000000000000000000000002000000000000003400000000000000969600000000000088002013102100000010000000000000BRCSNAACNOR6242
012013101878CSNAJ98     070CSNA        ON        000R$  000000000018300000000001830000000000170000000000017600000000001700000000000000000000000000000002000000000000003100000000000000546500000000000098002013102100000010000000000000BRCSNAACNOR6243
012013101878CSNAK1      070CSNA        ON        000R$  000000000017500000000001750000000000175000000000017500000000001750000000000000000000000000000004000000000000010000000000000001750000000000000100002013111800000010000000000000BRCSNAACNOR6243
012013101878CSNAK10     070CSNA        ON        000R$  000000000018400000000001840000000000184000000000018400000000001840000000000000000000000029600004000000000000010000000000000001840000000000000098002013111800000010000000000000BRCSNAACNOR6242
012013101878CSNAK11     070CSNA  FM    ON        000R$  000000000010900000000001090000000000081000000000009800000000000810000000000000000000000011000019000000000000039900000000000003919100000000000110002013111800000010000000000000BRCSNAACNOR6243
012013101878CSNAK12     070CSNA  FM    ON        000R$  000000000004300000000000430000000000033000000000003500000000000360000000000031000000000004500014000000000000029300000000000001047200000000000120002013111800000010000000000000BRCSNAACNOR6243
012013101878CSNAK13     070CSNA  FM    ON        000R$  000000000001000000000000100000000000007000000000000800000000000070000000000000000000000003000007000000000000022200000000000000192000000000000130002013111800000010000000000000BRCSNAACNOR6243
012013101878CSNAK41     070CSNA  FM    ON        000R$  000000000006700000000000670000000000052000000000005900000000000610000000000000000000000000000015000000000000025900000000000001551500000000000115002013111800000010000000000000BRCSNAACNOR6243
012013101878CSNAK42     070CSNA  FM    ON        000R$  000000000002200000000000240000000000015000000000001800000000000190000000000010000000000000000027000000000000071800000000000001324700000000000125002013111800000010000000000000BRCSNAACNOR6243
012013101878CSNAK60     070CSNA        ON        000R$  000000000012300000000001230000000000115000000000012000000000001150000000000080000000000000000008000000000000013300000000000001604000000000000106002013111800000010000000000000BRCSNAACNOR6243
012013101878CSNAK9      070CSNA        ON        000R$  000000000027000000000002730000000000255000000000025900000000002730000000000000000000000000000012000000000000015500000000000004020700000000000090002013111800000010000000000000BRCSNAACNOR6243
012013101878CSNAK96     070CSNA        ON        000R$  000000000020700000000002070000000000207000000000020700000000002070000000000000000000000000000001000000000000000200000000000000041400000000000096002013111800000010000000000000BRCSNAACNOR6243
