00COTAHIST.2013BOVESPA 20130801                                                                                                                                                                                                                      
012013080102AAPL11B     010APPLE       DRN     MB   R$  000000001044000000000104400000000010440000000001044000000000104400000000010435000000001058000001000000000000000100000000000001044000000000000000009999123100000010000000000000BRAAPLBDR004104
012013080102ABCB4       010ABC BRASIL  PN      N2   R$  000000000121200000000012920000000001205000000000125500000000012790000000001274000000000127902432000000000000550200000000000690796700000000000000009999123100000010000000000000BRABCBACNPR4120
012013080196ABCB4F      020ABC BRASIL  PN      N2   R$  000000000121600000000013000000000001204000000000126000000000012810000000001278000000000129000031000000000000000571000000000000719895000000000000009999123100000010000000000000BRABCBACNPR4120
012013080102ABRE11      010ABRIL EDUCA UNT     N2   R$  000000000354500000000035740000000003453000000000350400000000035400000000003529000000000354001030000000000000204100000000000715187500000000000000009999123100000010000000000000BRABRECDAM15102
012013080196ABRE11F     020ABRIL EDUCA UNT     N2   R$  000000000348100000000035690000000003451000000000352300000000035500000000003405000000000419500009000000000000000258000000000000909044000000000000009999123100000010000000000000BRABRECDAM15102
012013080162ABRE11T     030ABRIL EDUCA UNT     N2032R$  000000000359400000000035950000000003594000000000359400000000035950000000000000000000000000000002000000000000000300000000000001078497000000000000009999123100000010000000000000BRABRECDAM15102
012013080102AEDU3       010ANHANGUERA  ON      NM   R$  000000000138500000000013900000000001355000000000136600000000013600000000001360000000000136512025000000000002811100000000003842151500000000000000009999123100000010000000000000BRAEDUACNOR9107
012013080196AEDU3F      020ANHANGUERA  ON      NM   R$  000000000138200000000013840000000001343000000000137000000000013840000000001351000000000138400024000000000000000698000000000000955330000000000000009999123100000010000000000000BRAEDUACNOR9107
012013080112AEFI11      010FII AESAPAR CI  ER       R$  000000001257000000000125700000000012480000000001250500000000124850000000012475000000001248500018000000000000001904000000000023811230000000000000009999123100000010000000000000BRAEFICTF002120
012013080112AGCX11      010FII AG CAIXACI  ER       R$  000000010000100000001005000000000100000000000010027900000001000000000000099900000000010000000019000000000000000180000000000018050272000000000000009999123100000010000000000000BRAGCXCTF003109
012013080102AGEN11      010AGRENCO     DR3          R$  000000000002000000000000210000000000018000000000001900000000000190000000000018000000000001901011000000000022417200000000000433390600000000000000009999123100000010000000000000BRAGENBDR001100
012013080196AGEN11F     020AGRENCO     DR3          R$  000000000002100000000000210000000000018000000000002000000000000180000000000019000000000002100003000000000000000050000000000000001020000000000000009999123100000010000000000000BRAGENBDR001100
012013080102AGRO3       010BRASILAGRO  ON      NM   R$  000000000103200000000010500000000001021000000000102900000000010280000000001028000000000103900075000000000000032700000000000033665300000000000000009999123100000010000000000000BRAGROACNOR7102
012013080196AHEB3F      020SPTURIS     ON           R$  000000000185000000000018500000000001850000000000185000000000018500000000000000000000000220000001000000000000000028000000000000051800000000000000009999123100000010000000000000BRAHEBACNOR0102
012013080102ALLL3       010ALL AMER LATON      NM   R$  000000000088700000000009240000000000885000000000090700000000009240000000000923000000000092406481000000000002502000000000002270471700000000000000009999123100000010000000000000BRALLLACNOR6118
012013080196ALLL3F      020ALL AMER LATON      NM   R$  000000000089200000000009310000000000881000000000090500000000009250000000000925000000000095000044000000000000001083000000000000981126000000000000009999123100000010000000000000BRALLLACNOR6118
012013080102ALPA3       010ALPARGATAS  ON      N1   R$  000000000109300000000011400000000001065000000000109700000000011360000000001080000000000113600018000000000000035900000000000039395400000000000000009999123100000010000000000000BRALPAACNOR0202
012013080196ALPA3F      020ALPARGATAS  ON      N1   R$  000000000109800000000010980000000001065000000000106500000000010650000000000980000000000115800003000000000000000056000000000000059673000000000000009999123100000010000000000000BRALPAACNOR0202
012013080162ALPA3T      030ALPARGATAS  ON      N1088R$  000000000109100000000010920000000001091000000000109100000000010920000000000000000000000000000002000000000000000300000000000000327420000000000000009999123100000010000000000000BRALPAACNOR0202
012013080102ALPA4       010ALPARGATAS  PN      N1   R$  000000000139700000000014340000000001394000000000141300000000014000000000001400000000000140203199000000000000563200000000000796185900000000000000009999123100000010000000000000BRALPAACNPR7202
012013080196ALPA4F      020ALPARGATAS  PN      N1   R$  000000000140800000000014310000000001400000000000141800000000014000000000001325000000000143200040000000000000000931000000000001320475000000000000009999123100000010000000000000BRALPAACNPR7202
012013080102ALSC3       010ALIANSCE    ON      NM   R$  000000000209000000000021230000000002080000000000209500000000020800000000002080000000000209401676000000000000554000000000001160909000000000000000009999123100000010000000000000BRALSCACNOR0104
012013080196ALSC3F      020ALIANSCE    ON      NM   R$  000000000209500000000021000000000002095000000000209500000000021000000000001901000000000219900003000000000000000038000000000000079640000000000000009999123100000010000000000000BRALSCACNOR0104
012013080102ALUP11      010ALUPAR      UNT     N2   R$  000000000175000000000017630000000001741000000000175100000000017500000000001750000000000175300520000000000000213800000000000374398800000000000000009999123100000010000000000000BRALUPCDAM15100
012013080196ALUP11F     020ALUPAR      UNT     N2   R$  000000000175000000000017800000000001709000000000175600000000017540000000001700000000000175400131000000000000003428000000000006021787000000000000009999123100000010000000000000BRALUPCDAM15100
012013080162ALUP11T     030ALUPAR      UNT     N2060R$  000000000177500000000017760000000001775000000000177500000000017760000000000000000000000000000002000000000000003000000000000005325075000000000000009999123100000010000000000000BRALUPCDAM15100
012013080102AMAR3       010LOJAS MARISAON      NM   R$  000000000212800000000021460000000002047000000000207200000000020720000000002062000000000207502263000000000000427700000000000886358600000000000000009999123100000010000000000000BRAMARACNOR4109
012013080196AMAR3F      020LOJAS MARISAON      NM   R$  000000000212500000000021250000000002010000000000207500000000020750000000002054000000000209000008000000000000000251000000000000520881000000000000009999123100000010000000000000BRAMARACNOR4109
012013080102AMBV3       010AMBEV       ON           R$  000000000857900000000088500000000008579000000000878800000000087900000000008790000000000881002173000000000001117200000000009818579300000000000000009999123100000010000000000000BRAMBVACNOR4153
012013080196AMBV3F      020AMBEV       ON           R$  000000000859000000000088380000000008581000000000875000000000088000000000008800000000000888900157000000000000003403000000000029777056000000000000009999123100000010000000000000BRAMBVACNOR4153
012013080102AMBV4       010AMBEV       PN           R$  000000000861600000000088590000000008616000000000879200000000087970000000008786000000000879712275000000000003022700000000026575645200000000000000009999123100000010000000000000BRAMBVACNPR1153
012013080196AMBV4F      020AMBEV       PN           R$  000000000848500000000088500000000008485000000000877700000000088150000000008800000000000881400427000000000000010506000000000092219675000000000000009999123100000010000000000000BRAMBVACNPR1153
012013080162AMBV4T      030AMBEV       PN        060R$  000000000875200000000087530000000008752000000000875200000000087530000000000000000000000000000002000000000000001700000000000014878944000000000000009999123100000010000000000000BRAMBVACNPR1153
012013080162AMBV4T      030AMBEV       PN        090R$  000000000881700000000088180000000008798000000000880800000000087990000000000000000000000000000004000000000000001000000000000008808169000000000000009999123100000010000000000000BRAMBVACNPR1153
012013080178AMBVH88     070AMBV        PN        000R$  000000000011000000000001290000000000110000000000011800000000001290000000000000000000000000000009000000000000001600000000000000189900000000000880002013081900000010000000000000BRAMBVACNPR1153
012013080178AMBVH89     070AMBV        PN        000R$  000000000005000000000001000000000000050000000000007200000000001000000000000005000000000000000010000000000000003900000000000000282700000000000890002013081900000010000000000000BRAMBVACNPR1153
012013080178AMBVH91     070AMBV        PN        000R$  000000000001700000000000170000000000017000000000001700000000000170000000000000000000000000000001000000000000000100000000000000001700000000000910002013081900000010000000000000BRAMBVACNPR1153
012013080178AMBVH92     070AMBV        PN        000R$  000000000001100000000000200000000000011000000000001300000000000200000000000000000000000005000003000000000000000800000000000000010600000000000920002013081900000010000000000000BRAMBVACNPR1153
012013080178AMBVI90     070AMBV        PN        000R$  000000000017000000000001700000000000170000000000017000000000001700000000000000000000000000000001000000000000003000000000000000510000000000000900002013091600000010000000000000BRAMBVACNPR1153
012013080178AMBVI94     070AMBV        PN        000R$  000000000007400000000000750000000000074000000000007400000000000750000000000000000000000000000003000000000000050000000000000003710000000000000940002013091600000010000000000000BRAMBVACNPR1153
012013080182AMBVU80     080AMBVE       PN        000R$  000000000002000000000000200000000000020000000000002000000000000200000000000000000000000000000002000000000000200000000000000004000000000000000800002013091600000010000000000000BRAMBVACNPR1153
012013080182AMBVU86     080AMBVE       PN        000R$  000000000014000000000001400000000000140000000000014000000000001400000000000000000000000000000002000000000000100000000000000014000000000000000860002013091600000010000000000000BRAMBVACNPR1153
012013080102ARTR3       010ARTERIS     ON      NM   R$  000000000215800000000021820000000002154000000000216100000000021620000000002162000000000216702683000000000002774600000000005997544100000000000000009999123100000010000000000000BRARTRACNOR3101
012013080196ARTR3F      020ARTERIS     ON      NM   R$  000000000216000000000021810000000002141000000000216000000000021450000000002145000000000215600286000000000000008976000000000019393598000000000000009999123100000010000000000000BRARTRACNOR3101
012013080102ARZZ3       010AREZZO CO   ON  ED  NM   R$  000000000357400000000035920000000003400000000000344700000000034210000000003421000000000343301336000000000000247700000000000854022500000000000000009999123100000010000000000000BRARZZACNOR3109
012013080196ARZZ3F      020AREZZO CO   ON  ED  NM   R$  000000000358900000000035890000000003403000000000345400000000034200000000003402000000000353600013000000000000000396000000000001367894000000000000009999123100000010000000000000BRARZZACNOR3109
012013080102AUTM3       010AUTOMETAL   ON      NM   R$  000000000184300000000018690000000001801000000000181500000000018300000000001826000000000183000568000000000000277300000000000503396000000000000000009999123100000010000000000000BRAUTMACNOR8109
012013080196AUTM3F      020AUTOMETAL   ON      NM   R$  000000000181600000000018990000000001701000000000175700000000018990000000001720000000000190000004000000000000000120000000000000210846000000000000009999123100000010000000000000BRAUTMACNOR8109
012013080102AXPB11B     010AMERICAN EXPDRN     MB   R$  000000001734100000000173410000000017341000000001734100000000173410000000017144000000001765900001000000000000000100000000000001734100000000000000009999123100000010000000000000BRAXPBBDR007105
012013080102BAHI3       010BAHEMA      ON           R$  000000000052000000000005200000000000505000000000050800000000005050000000000490000000000050800002000000000000000400000000000000203500000000000000009999123100000010000000000000BRBAHIACNOR1066
012013080102BALM4       010BAUMER      PN           R$  000000000750000000000075000000000007500000000000750000000000075000000000000000000000000000000001000000000000000100000000000000750000000000000000009999123100000010000000000000BRBALMACNPR2043
012013080102BBAS3       010BRASIL      ON      NM   R$  000000000229300000000023150000000002278000000000229900000000023150000000002305000000000231510466000000000004353200000000010009626800000000000000009999123100000010000000000000BRBBASACNOR3237
012013080196BBAS3F      020BRASIL      ON      NM   R$  000000000225000000000023130000000002250000000000229600000000023110000000002301000000000231000238000000000000007402000000000017003343000000000000009999123100000010000000000000BRBBASACNOR3237
012013080162BBAS3T      030BRASIL      ON      NM018R$  000000000229800000000022990000000002298000000000229800000000022990000000000000000000000000000002000000000000060000000000000137884032000000000000009999123100000010000000000000BRBBASACNOR3237
012013080162BBAS3T      030BRASIL      ON      NM030R$  000000000230500000000023060000000002305000000000230500000000023060000000000000000000000000000002000000000000007800000000000017985602000000000000009999123100000010000000000000BRBBASACNOR3237
012013080162BBAS3T      030BRASIL      ON      NM032R$  000000000232400000000023250000000002324000000000232400000000023250000000000000000000000000000002000000000000010000000000000023247012000000000000009999123100000010000000000000BRBBASACNOR3237
012013080162BBAS3T      030BRASIL      ON      NM060R$  000000000232600000000023270000000002323000000000232500000000023240000000000000000000000000000004000000000000002000000000000004650952000000000000009999123100000010000000000000BRBBASACNOR3237
012013080162BBAS3T      030BRASIL      ON      NM090R$  000000000234400000000023450000000002344000000000234400000000023450000000000000000000000000000002000000000000001000000000000002344290000000000000009999123100000010000000000000BRBBASACNOR3237
012013080178BBASH20     070BBAS        ON      NM000R$  000000000031200000000003120000000000302000000000031000000000003020000000000000000000000034000002000000000000001200000000000000372400000000000200002013081900000010000000000000BRBBASACNOR3237
012013080178BBASH21     070BBAS  FM    ON      NM000R$  000000000022300000000002490000000000223000000000023300000000002420000000000240000000000025000086000000000000104500000000000024372900000000000207602013081900000010000000000000BRBBASACNOR3236
012013080178BBASH22     070BBAS  FM    ON      NM000R$  000000000014000000000001610000000000136000000000014500000000001610000000000149000000000018000088000000000000113300000000000016446100000000000217602013081900000010000000000000BRBBASACNOR3236
012013080178BBASH23     070BBAS  FM    ON      NM000R$  000000000007700000000000800000000000065000000000007200000000000770000000000065000000000009000063000000000000092400000000000006704400000000000227602013081900000010000000000000BRBBASACNOR3236
012013080178BBASH24     070BBAS  FM    ON      NM000R$  000000000004400000000000550000000000043000000000005200000000000530000000000045000000000005600045000000000000154600000000000008100300000000000231702013081900000010000000000000BRBBASACNOR3233
012013080178BBASH25     070BBAS  FM    ON      NM000R$  000000000001300000000000170000000000013000000000001400000000000160000000000012000000000001700018000000000000033200000000000000479100000000000241702013081900000010000000000000BRBBASACNOR3233
012013080178BBASI21     070BBAS  FM    ON      NM000R$  000000000023500000000002480000000000230000000000023700000000002480000000000000000000000000000035000000000000068200000000000016181100000000000210002013091600000010000000000000BRBBASACNOR3237
012013080178BBASI22     070BBAS  FM    ON      NM000R$  000000000017500000000001880000000000170000000000017700000000001880000000000155000000000000000027000000000000047900000000000008483200000000000217602013091600000010000000000000BRBBASACNOR3236
012013080178BBASI23     070BBAS  FM    ON      NM000R$  000000000010600000000001170000000000104000000000011000000000001170000000000071000000000000000026000000000000052300000000000005789500000000000227602013091600000010000000000000BRBBASACNOR3236
012013080178BBASI24     070BBAS  FM    ON      NM000R$  000000000005900000000000640000000000058000000000006100000000000640000000000051000000000000000010000000000000017500000000000001074000000000000237602013091600000010000000000000BRBBASACNOR3236
012013080178BBASI25     070BBAS  FM    ON      NM000R$  000000000003100000000000330000000000028000000000003100000000000330000000000016000000000004000021000000000000026000000000000000828800000000000246602013091600000010000000000000BRBBASACNOR3235
012013080178BBASI26     070BBAS        ON      NM000R$  000000000001500000000000150000000000015000000000001500000000000150000000000011000000000002700001000000000000002000000000000000030000000000000256602013091600000010000000000000BRBBASACNOR3235
012013080178BBASI51     070BBAS        ON      NM000R$  000000000028400000000002900000000000284000000000028600000000002900000000000000000000000000000002000000000000007400000000000002122000000000000205002013091600000010000000000000BRBBASACNOR3237
012013080178BBASI52     070BBAS        ON      NM000R$  000000000012800000000001330000000000128000000000013100000000001330000000000000000000000000000002000000000000006000000000000000788000000000000225002013091600000010000000000000BRBBASACNOR3237
012013080178BBASI61     070BBASE       ON      NM000R$  000000000014500000000001490000000000145000000000014700000000001490000000000000000000000000000002000000000000008000000000000001176000000000000222502013091600000010000000000000BRBBASACNOR3237
012013080178BBASJ20     070BBAS        ON      NM000R$  000000000034100000000003570000000000341000000000034900000000003570000000000000000000000000000004000000000000012000000000000004194000000000000200002013102100000010000000000000BRBBASACNOR3237
012013080178BBASJ21     070BBAS        ON      NM000R$  000000000026400000000002640000000000264000000000026400000000002640000000000000000000000000000001000000000000002600000000000000686400000000000210002013102100000010000000000000BRBBASACNOR3237
012013080178BBASJ22     070BBAS        ON      NM000R$  000000000019200000000001920000000000191000000000019100000000001910000000000000000000000000000003000000000000009000000000000001725000000000000220002013102100000010000000000000BRBBASACNOR3237
012013080178BBASJ23     070BBAS        ON      NM000R$  000000000014800000000001520000000000147000000000014900000000001470000000000000000000000000000005000000000000013500000000000002019000000000000226602013102100000010000000000000BRBBASACNOR3235
012013080178BBASJ53     070BBAS        ON      NM000R$  000000000012200000000001280000000000122000000000012500000000001280000000000000000000000000000002000000000000006000000000000000750000000000000231602013102100000010000000000000BRBBASACNOR3235
012013080178BBASK23     070BBAS        ON      NM000R$  000000000015800000000001580000000000158000000000015800000000001580000000000000000000000000000001000000000000000600000000000000094800000000000230002013111800000010000000000000BRBBASACNOR3237
012013080182BBASM24     080BBASE       ON      NM000R$  000000000017200000000001720000000000172000000000017200000000001720000000000000000000000000000001000000000000001200000000000000206400000000000240002014012000000010000000000000BRBBASACNOR3237
012013080182BBAST20     080BBASE       ON      NM000R$  000000000000300000000000050000000000003000000000000300000000000050000000000002000000000000700002000000000000003000000000000000011000000000000200002013081900000010000000000000BRBBASACNOR3237
012013080182BBAST21     080BBASE FM    ON      NM000R$  000000000000800000000000080000000000008000000000000800000000000080000000000000000000000000800008000000000000005500000000000000044000000000000207602013081900000010000000000000BRBBASACNOR3236
012013080182BBAST22     080BBASE FM    ON      NM000R$  000000000001700000000000170000000000017000000000001700000000000170000000000005000000000001800001000000000000003000000000000000051000000000000217602013081900000010000000000000BRBBASACNOR3236
012013080182BBAST23     080BBASE FM    ON      NM000R$  000000000004700000000000470000000000037000000000004100000000000370000000000020000000000010000011000000000000021700000000000000893400000000000227602013081900000010000000000000BRBBASACNOR3236
012013080182BBAST24     080BBASE FM    ON      NM000R$  000000000006300000000000650000000000053000000000006000000000000530000000000026000000000005800033000000000000087100000000000005258700000000000231702013081900000010000000000000BRBBASACNOR3233
012013080182BBASU21     080BBASE FM    ON      NM000R$  000000000002400000000000240000000000021000000000002300000000000210000000000000000000000007000002000000000000002300000000000000054600000000000210002013091600000010000000000000BRBBASACNOR3237
012013080182BBASU22     080BBASE FM    ON      NM000R$  000000000004100000000000410000000000035000000000003500000000000350000000000034000000000004600004000000000000003200000000000000112600000000000217602013091600000010000000000000BRBBASACNOR3236
012013080182BBASU23     080BBASE FM    ON      NM000R$  000000000007400000000000740000000000064000000000006900000000000640000000000000000000000000000009000000000000017400000000000001210000000000000227602013091600000010000000000000BRBBASACNOR3236
012013080182BBASU24     080BBASE FM    ON      NM000R$  000000000012400000000001250000000000110000000000011700000000001100000000000000000000000000000014000000000000024800000000000002921800000000000237602013091600000010000000000000BRBBASACNOR3236
012013080182BBASU25     080BBASE       ON      NM000R$  000000000017700000000001770000000000177000000000017700000000001770000000000000000000000000000001000000000000002000000000000000354000000000000246602013091600000010000000000000BRBBASACNOR3235
012013080182BBASU52     080BBASE       ON      NM000R$  000000000005800000000000580000000000058000000000005800000000000580000000000000000000000000000001000000000000004000000000000000232000000000000225002013091600000010000000000000BRBBASACNOR3237
012013080182BBASU61     080BBASE       ON      NM000R$  000000000005000000000000500000000000050000000000005000000000000500000000000000000000000000000001000000000000004000000000000000200000000000000222502013091600000010000000000000BRBBASACNOR3237
012013080182BBASV21     080BBASE       ON      NM000R$  000000000004400000000000440000000000044000000000004400000000000440000000000000000000000000000001000000000000003000000000000000132000000000000210002013102100000010000000000000BRBBASACNOR3237
012013080182BBASV22     080BBASE       ON      NM000R$  000000000007000000000000710000000000069000000000007000000000000700000000000000000000000000000005000000000000015000000000000001050000000000000220002013102100000010000000000000BRBBASACNOR3237
012013080182BBASV23     080BBASE       ON      NM000R$  000000000009500000000000950000000000091000000000009300000000000910000000000000000000000000000005000000000000014400000000000001341200000000000226602013102100000010000000000000BRBBASACNOR3235
012013080182BBASV24     080BBASE       ON      NM000R$  000000000014600000000001460000000000136000000000014200000000001360000000000000000000000000000006000000000000018000000000000002565000000000000237602013102100000010000000000000BRBBASACNOR3236
012013080182BBASV25     080BBASE       ON      NM000R$  000000000022300000000002230000000000212000000000022000000000002120000000000000000000000000000006000000000000017700000000000003905700000000000250002013102100000010000000000000BRBBASACNOR3237
012013080182BBASV26     080BBASE       ON      NM000R$  000000000027500000000002750000000000259000000000026700000000002590000000000000000000000000000004000000000000011500000000000003081000000000000256602013102100000010000000000000BRBBASACNOR3235
012013080182BBASV53     080BBASE       ON      NM000R$  000000000011400000000001160000000000114000000000011500000000001150000000000000000000000000000003000000000000009000000000000001035000000000000231602013102100000010000000000000BRBBASACNOR3235
012013080182BBASW24     080BBASE       ON      NM000R$  000000000015300000000001530000000000153000000000015300000000001530000000000000000000000000000001000000000000001200000000000000183600000000000240002013111800000010000000000000BRBBASACNOR3237
012013080102BBDC3       010BRADESCO    ON      N1   R$  000000000312000000000031900000000003113000000000315300000000031440000000003144000000000316702885000000000000847200000000002671551100000000000000009999123100000010000000000000BRBBDCACNOR1604
012013080196BBDC3F      020BRADESCO    ON      N1   R$  000000000310000000000031830000000003100000000000314600000000031400000000003140000000000317000086000000000000001444000000000004543316000000000000009999123100000010000000000000BRBBDCACNOR1604
012013080102BBDC4       010BRADESCO    PN      N1   R$  000000000279500000000028670000000002785000000000283900000000028470000000002847000000000284919463000000000007421100000000021069888300000000000000009999123100000010000000000000BRBBDCACNPR8604
012013080196BBDC4F      020BRADESCO    PN      N1   R$  000000000278000000000028680000000002780000000000284100000000028540000000002854000000000285700475000000000000008586000000000024393480000000000000009999123100000010000000000000BRBBDCACNPR8604
012013080162BBDC4T      030BRADESCO    PN      N1018R$  000000000285500000000028560000000002855000000000285500000000028560000000000000000000000000000002000000000000003400000000000009709245000000000000009999123100000010000000000000BRBBDCACNPR8604
012013080162BBDC4T      030BRADESCO    PN      N1032R$  000000000281100000000028120000000002811000000000281100000000028120000000000000000000000000000002000000000000001700000000000004780387000000000000009999123100000010000000000000BRBBDCACNPR8604
012013080162BBDC4T      030BRADESCO    PN      N1060R$  000000000283300000000028970000000002833000000000286700000000028950000000000000000000000000000008000000000000009300000000000026665240000000000000009999123100000010000000000000BRBBDCACNPR8604
012013080162BBDC4T      030BRADESCO    PN      N1090R$  000000000291700000000029180000000002917000000000291700000000029180000000000000000000000000000002000000000000000500000000000001458681000000000000009999123100000010000000000000BRBBDCACNPR8604
012013080162BBDC4T      030BRADESCO    PN      N1151R$  000000000294300000000029440000000002943000000000294300000000029440000000000000000000000000000002000000000000001000000000000002943104000000000000009999123100000010000000000000BRBBDCACNPR8604
012013080162BBDC4T      030BRADESCO    PN      N1180R$  000000000296900000000029700000000002969000000000296900000000029700000000000000000000000000000002000000000000001000000000000002969129000000000000009999123100000010000000000000BRBBDCACNPR8604
012013080178BBDCC6      070BBDC        PN      N1000R$  000000000012500000000001250000000000125000000000012500000000001250000000000000000000000000000001000000000000001000000000000000125000000000000324702014031700000010000000000000BRBBDCACNPR8598
012013080178BBDCH26     070BBDC        PN      N1000R$  000000000027100000000002980000000000256000000000027500000000002920000000000000000000000000000014000000000000030700000000000008468600000000000258002013081900000010000000000000BRBBDCACNPR8602
012013080178BBDCH27     070BBDC        PN      N1000R$  000000000015900000000002050000000000159000000000018000000000001970000000000150000000000021800286000000000000494900000000000089347600000000000268002013081900000010000000000000BRBBDCACNPR8602
012013080178BBDCH28     070BBDC        PN      N1000R$  000000000008500000000001210000000000077000000000010400000000001100000000000085000000000011700233000000000000453800000000000047315100000000000278002013081900000010000000000000BRBBDCACNPR8602
012013080178BBDCH29     070BBDC        PN      N1000R$  000000000002500000000000560000000000025000000000005000000000000520000000000039000000000005200139000000000000350200000000000017851100000000000288002013081900000010000000000000BRBBDCACNPR8602
012013080178BBDCH30     070BBDC        PN      N1000R$  000000000001400000000000200000000000014000000000001600000000000180000000000009000000000001800029000000000000044700000000000000748800000000000298002013081900000010000000000000BRBBDCACNPR8602
012013080178BBDCH31     070BBDC        PN      N1000R$  000000000000700000000000070000000000006000000000000600000000000060000000000000000000000001000002000000000000003200000000000000020400000000000307602013081900000010000000000000BRBBDCACNPR8600
012013080178BBDCI13     070BBDC        PN      N1000R$  000000000000600000000000070000000000006000000000000600000000000070000000000000000000000000000002000000000000008000000000000000052000000000000328002013091600000010000000000000BRBBDCACNPR8602
012013080178BBDCI26     070BBDC        PN      N1000R$  000000000028300000000003040000000000273000000000028700000000003040000000000000000000000000000003000000000000011000000000000003157000000000000260002013091600000010000000000000BRBBDCACNPR8604
012013080178BBDCI27     070BBDC        PN      N1000R$  000000000021500000000002420000000000202000000000022100000000002300000000000000000000000000000127000000000000202400000000000044849500000000000268002013091600000010000000000000BRBBDCACNPR8602
012013080178BBDCI28     070BBDC        PN      N1000R$  000000000013500000000001640000000000135000000000014900000000001580000000000122000000000016900044000000000000075400000000000011285100000000000278002013091600000010000000000000BRBBDCACNPR8602
012013080178BBDCI29     070BBDC        PN      N1000R$  000000000008200000000001040000000000082000000000009300000000000980000000000000000000000010400056000000000000062800000000000005858500000000000288002013091600000010000000000000BRBBDCACNPR8602
012013080178BBDCI30     070BBDC        PN      N1000R$  000000000004500000000000590000000000045000000000005200000000000590000000000011000000000005900025000000000000032300000000000001691900000000000298002013091600000010000000000000BRBBDCACNPR8602
012013080178BBDCI31     070BBDC        PN      N1000R$  000000000017900000000001980000000000174000000000018900000000001980000000000000000000000021000004000000000000010600000000000002012400000000000273102013091600000010000000000000BRBBDCACNPR8590
012013080178BBDCI32     070BBDC        PN      N1000R$  000000000001300000000000150000000000013000000000001300000000000140000000000000000000000001500003000000000000010300000000000000143900000000000318002013091600000010000000000000BRBBDCACNPR8602
012013080178BBDCI33     070BBDC        PN      N1000R$  000000000006000000000000600000000000048000000000005300000000000480000000000000000000000000000003000000000000004500000000000000240000000000000297402013091600000010000000000000BRBBDCACNPR8598
012013080178BBDCI34     070BBDC        PN      N1000R$  000000000000300000000000030000000000003000000000000300000000000030000000000000000000000000000001000000000000001000000000000000003000000000000338002013091600000010000000000000BRBBDCACNPR8602
012013080178BBDCI75     070BBDCE       PN      N1000R$  000000000012100000000001330000000000121000000000012500000000001330000000000000000000000000000002000000000000002700000000000000338700000000000282502013091600000010000000000000BRBBDCACNPR8604
012013080178BBDCI81     070BBDC        PN      N1000R$  000000000002600000000000310000000000023000000000002600000000000310000000000000000000000003100049000000000000130500000000000003423100000000000308002013091600000010000000000000BRBBDCACNPR8602
012013080178BBDCJ27     070BBDC        PN      N1000R$  000000000025800000000002770000000000258000000000026700000000002770000000000000000000000000000002000000000000006000000000000001605000000000000268002013102100000010000000000000BRBBDCACNPR8602
012013080178BBDCJ29     070BBDC        PN      N1000R$  000000000014300000000001500000000000136000000000014200000000001470000000000000000000000000000011000000000000811400000000000115838000000000000288002013102100000010000000000000BRBBDCACNPR8602
012013080178BBDCJ30     070BBDC        PN      N1000R$  000000000009200000000001020000000000092000000000009800000000001000000000000000000000000000000003000000000000009000000000000000882000000000000298002013102100000010000000000000BRBBDCACNPR8602
012013080178BBDCJ31     070BBDC        PN      N1000R$  000000000006100000000000670000000000057000000000006200000000000660000000000010000000000006700019000000000000034100000000000002129200000000000308002013102100000010000000000000BRBBDCACNPR8602
012013080178BBDCL28     070BBDC        PN      N1000R$  000000000024000000000002400000000000240000000000024000000000002400000000000000000000000000000001000000000000000100000000000000024000000000000280002013121600000010000000000000BRBBDCACNPR8604
012013080182BBDCT25     080BBDCE       PN      N1000R$  000000000000400000000000040000000000004000000000000400000000000040000000000001000000000000000001000000000000000100000000000000000400000000000248002013081900000010000000000000BRBBDCACNPR8602
012013080182BBDCT27     080BBDCE       PN      N1000R$  000000000001700000000000170000000000012000000000001200000000000120000000000011000000000019300014000000000000044100000000000000572500000000000268002013081900000010000000000000BRBBDCACNPR8602
012013080182BBDCT28     080BBDCE       PN      N1000R$  000000000004500000000000450000000000027000000000003600000000000290000000000025000000000005700056000000000000064700000000000002331800000000000278002013081900000010000000000000BRBBDCACNPR8602
012013080182BBDCT29     080BBDCE       PN      N1000R$  000000000009400000000000940000000000062000000000007600000000000650000000000000000000000000000047000000000000087700000000000006679900000000000288002013081900000010000000000000BRBBDCACNPR8602
012013080182BBDCT30     080BBDCE       PN      N1000R$  000000000013700000000001370000000000137000000000013700000000001370000000000000000000000027000001000000000000002000000000000000274000000000000298002013081900000010000000000000BRBBDCACNPR8602
012013080182BBDCT31     080BBDCE       PN      N1000R$  000000000025500000000002550000000000249000000000025000000000002520000000000000000000000000000008000000000000002500000000000000626100000000000307602013081900000010000000000000BRBBDCACNPR8600
012013080182BBDCU26     080BBDCE       PN      N1000R$  000000000002500000000000250000000000025000000000002500000000000250000000000006000000000000000001000000000000005000000000000000125000000000000260002013091600000010000000000000BRBBDCACNPR8604
012013080182BBDCU27     080BBDCE       PN      N1000R$  000000000004200000000000440000000000036000000000004100000000000360000000000000000000000000000010000000000000019700000000000000808200000000000268002013091600000010000000000000BRBBDCACNPR8602
012013080182BBDCU28     080BBDCE       PN      N1000R$  000000000007900000000000790000000000061000000000007100000000000610000000000057000000000000000023000000000000032000000000000002294100000000000278002013091600000010000000000000BRBBDCACNPR8602
012013080182BBDCU29     080BBDCE       PN      N1000R$  000000000012300000000001230000000000098000000000011100000000001020000000000000000000000000000028000000000000041600000000000004634300000000000288002013091600000010000000000000BRBBDCACNPR8602
012013080182BBDCU30     080BBDCE       PN      N1000R$  000000000019000000000001900000000000151000000000016000000000001550000000000000000000000000000009000000000000014200000000000002282000000000000298002013091600000010000000000000BRBBDCACNPR8602
012013080182BBDCU31     080BBDCE       PN      N1000R$  000000000005800000000000580000000000048000000000005200000000000480000000000000000000000000000008000000000000012800000000000000670400000000000273102013091600000010000000000000BRBBDCACNPR8590
012013080182BBDCU33     080BBDCE       PN      N1000R$  000000000016200000000001770000000000146000000000015900000000001510000000000000000000000000000009000000000000014300000000000002287300000000000297402013091600000010000000000000BRBBDCACNPR8598
012013080182BBDCU75     080BBDCE       PN      N1000R$  000000000008800000000000910000000000078000000000008500000000000780000000000000000000000000000009000000000000010000000000000000857000000000000282502013091600000010000000000000BRBBDCACNPR8604
012013080182BBDCV1      080BBDCE       PN      N1000R$  000000000032300000000003230000000000289000000000031100000000002890000000000000000000000000000003000000000000005200000000000001620800000000000314802013102100000010000000000000BRBBDCACNPR8603
012013080182BBDCV2      080BBDCE       PN      N1000R$  000000000040500000000004050000000000385000000000039500000000003850000000000000000000000000000003000000000000006000000000000002370000000000000324802013102100000010000000000000BRBBDCACNPR8603
012013080182BBDCV25     080BBDCE       PN      N1000R$  000000000003200000000000320000000000032000000000003200000000000320000000000000000000000000000001000000000000001200000000000000038400000000000249802013102100000010000000000000BRBBDCACNPR8603
012013080182BBDCV26     080BBDCE       PN      N1000R$  000000000004700000000000470000000000047000000000004700000000000470000000000000000000000000000001000000000000001200000000000000056400000000000260002013102100000010000000000000BRBBDCACNPR8604
012013080182BBDCV27     080BBDCE       PN      N1000R$  000000000006600000000000690000000000061000000000006500000000000630000000000000000000000000000005000000000000006800000000000000444800000000000268002013102100000010000000000000BRBBDCACNPR8602
012013080182BBDCV29     080BBDCE       PN      N1000R$  000000000015400000000001540000000000139000000000014700000000001390000000000000000000000000000006000000000000010300000000000001518400000000000288002013102100000010000000000000BRBBDCACNPR8602
012013080182BBDCV30     080BBDCE       PN      N1000R$  000000000021000000000002100000000000180000000000020000000000001800000000000000000000000000000009000000000000014400000000000002889200000000000298002013102100000010000000000000BRBBDCACNPR8602
012013080182BBDCV31     080BBDCE       PN      N1000R$  000000000027500000000002750000000000262000000000026800000000002630000000000000000000000000000004000000000000007200000000000001931600000000000308002013102100000010000000000000BRBBDCACNPR8602
012013080182BBDCV32     080BBDCE       PN      N1000R$  000000000035200000000003520000000000337000000000034500000000003370000000000000000000000000000003000000000000006000000000000002074000000000000318002013102100000010000000000000BRBBDCACNPR8602
012013080112BBFI11B     010FII BB PROGRCI  ER  MB   R$  000000041400100000004240000000000414001000000041832600000004240000000000421100000000042400000010000000000000000017000000000007111545000000000000009999123100000010000000000000BRBBFICTF006197
012013080112BBPO11      010FII BB PRGIICI  ER       R$  000000001118000000000111800000000011025000000001109800000000111450000000011059000000001114500158000000000000016190000000000179681301000000000000009999123100000010000000000000BRBBPOCTF003109
012013080112BBRC11      010FII BB CORP CI  ER       R$  000000000930900000000093090000000009103000000000914700000000091030000000009103000000000925000012000000000000000390000000000003567482000000000000009999123100000010000000000000BRBBRCCTF004123
012013080102BBRK3       010BR BROKERS  ON      NM   R$  000000000057900000000005840000000000575000000000057900000000005790000000000578000000000058102377000000000000809700000000000469219200000000000000009999123100000010000000000000BRBBRKACNOR4108
012013080196BBRK3F      020BR BROKERS  ON      NM   R$  000000000057900000000005820000000000579000000000058000000000005820000000000558000000000064900002000000000000000036000000000000020898000000000000009999123100000010000000000000BRBBRKACNOR4108
012013080102BBSE3       010BBSEGURIDADEON      NM   R$  000000000184400000000018770000000001827000000000185300000000018670000000001862000000000186708017000000000003614400000000006700899700000000000000009999123100000010000000000000BRBBSEACNOR5100
012013080196BBSE3F      020BBSEGURIDADEON      NM   R$  000000000184500000000018780000000001800000000000185400000000018690000000001860000000000186901208000000000000034435000000000063864372000000000000009999123100000010000000000000BRBBSEACNOR5100
012013080162BBSE3T      030BBSEGURIDADEON      NM032R$  000000000186300000000018650000000001863000000000186400000000018650000000000000000000000000000004000000000000027000000000000050336274000000000000009999123100000010000000000000BRBBSEACNOR5100
012013080162BBSE3T      030BBSEGURIDADEON      NM060R$  000000000186300000000018640000000001863000000000186300000000018640000000000000000000000000000002000000000000005000000000000009319600000000000000009999123100000010000000000000BRBBSEACNOR5100
012013080102BBTG11      010BTG PACTUAL UNT          R$  000000000277900000000028480000000002756000000000282500000000028220000000002822000000000284401535000000000000242500000000000685170700000000000000009999123100000010000000000000BRBBTGUNT007104
012013080196BBTG11F     020BTG PACTUAL UNT          R$  000000000269900000000028350000000002699000000000279900000000028350000000002605000000000298500010000000000000000304000000000000850985000000000000009999123100000010000000000000BRBBTGUNT007104
012013080112BBVJ11      010FII C JARDIMCI  ER       R$  000000000798000000000080000000000007900000000000796900000000080000000000007893000000000800000012000000000000000234000000000001864841000000000000009999123100000010000000000000BRBBVJCTF001132
012013080112BCFF11B     010FII BC FFII CI      MB   R$  000000001018900000000101990000000010110000000001017000000000101600000000010160000000001018800064000000000000003853000000000039188509000000000000009999123100000010000000000000BRBCFFCTF000140
012013080102BDLL4       010BARDELLA    PN           R$  000000000499900000000050000000000004999000000000499900000000050000000000004600000000000500000004000000000000000500000000000002499700000000000000009999123100000010000000000000BRBDLLACNPR8149
012013080102BEEF3       010MINERVA     ON      NM   R$  000000000090400000000009400000000000900000000000092300000000009360000000000936000000000093703064000000000000761700000000000703732900000000000000009999123100000010000000000000BRBEEFACNOR6104
012013080196BEEF3F      020MINERVA     ON      NM   R$  000000000090800000000009330000000000882000000000091600000000009260000000000881000000000094900018000000000000000549000000000000503292000000000000009999123100000010000000000000BRBEEFACNOR6104
012013080162BEEF3T      030MINERVA     ON      NM032R$  000000000091400000000009150000000000914000000000091400000000009150000000000000000000000000000002000000000000001000000000000000914084000000000000009999123100000010000000000000BRBEEFACNOR6104
012013080110BEES1       010BANESTES    DIR ORD      R$  000000000000100000000000010000000000001000000000000100000000000010000000000000000000000000100003000000000000050000000000000000050000000000000000009999123100000010000000000000BRBEESD03OR0241
012013080102BEES3       010BANESTES    ON  EJ       R$  000000000004600000000000470000000000046000000000004600000000000460000000000046000000000004700018000000000000211800000000000009744200000000000000009999123100000010000000000000BRBEESACNOR9243
012013080102BEES4       010BANESTES    PN  EJ       R$  000000000004500000000000450000000000045000000000004500000000000450000000000044000000000004500001000000000000002300000000000000103500000000000000009999123100000010000000000000BRBEESACNPR6168
012013080102BEMA3       010BEMATECH    ON      NM   R$  000000000075100000000007580000000000741000000000074800000000007500000000000750000000000075600076000000000000028000000000000020946500000000000000009999123100000010000000000000BRBEMAACNOR0113
012013080196BEMA3F      020BEMATECH    ON      NM   R$  000000000075000000000007500000000000750000000000075000000000007500000000000744000000000075500001000000000000000020000000000000015000000000000000009999123100000010000000000000BRBEMAACNOR0113
012013080102BGIP4       010BANESE      PN           R$  000000000490000000000049000000000004700000000000476600000000047160000000004715000000000489800005000000000000000500000000000002383100000000000000009999123100000010000000000000BRBGIPACNPR8178
012013080196BGIP4F      020BANESE      PN           R$  000000000510000000000051000000000005100000000000510000000000051000000000004750000000000530000001000000000000000010000000000000051000000000000000009999123100000010000000000000BRBGIPACNPR8178
012013080102BHGR3       010BHG         ON      NM   R$  000000000170000000000017000000000001615000000000164200000000016450000000001631000000000164500270000000000000053000000000000087053600000000000000009999123100000010000000000000BRBHGRACNOR9101
012013080196BHGR3F      020BHG         ON      NM   R$  000000000164600000000016460000000001646000000000164600000000016460000000001488000000000168400001000000000000000017000000000000027982000000000000009999123100000010000000000000BRBHGRACNOR9101
012013080102BICB4       010BICBANCO    PN      N1   R$  000000000037100000000003740000000000351000000000036000000000003510000000000350000000000035100188000000000000123100000000000044358700000000000000009999123100000010000000000000BRBICBACNPR7131
012013080196BICB4F      020BICBANCO    PN      N1   R$  000000000036100000000003610000000000360000000000036000000000003600000000000351000000000041500003000000000000000020000000000000007205000000000000009999123100000010000000000000BRBICBACNPR7131
012013080196BIOM4F      020BIOMM       PN           R$  000000000087500000000008750000000000875000000000087500000000008750000000000751000000000087500001000000000000000110000000000000096250000000000000009999123100000010000000000000BRBIOMACNPR9101
012013080102BISA3       010BROOKFIELD  ON      NM   R$  000000000016900000000001710000000000163000000000016600000000001650000000000165000000000016604341000000000005697800000000000948303800000000000000009999123100000010000000000000BRBISAACNOR8109
012013080196BISA3F      020BROOKFIELD  ON      NM   R$  000000000016500000000001700000000000164000000000016500000000001640000000000165000000000017800020000000000000000508000000000000083911000000000000009999123100000010000000000000BRBISAACNOR8109
012013080162BISA3T      030BROOKFIELD  ON      NM019R$  000000000016800000000001690000000000168000000000016800000000001690000000000000000000000000000002000000000000077000000000000012997446000000000000009999123100000010000000000000BRBISAACNOR8109
012013080162BISA3T      030BROOKFIELD  ON      NM032R$  000000000016700000000001680000000000167000000000016700000000001680000000000000000000000000000002000000000000010000000000000001672948000000000000009999123100000010000000000000BRBISAACNOR8109
012013080162BISA3T      030BROOKFIELD  ON      NM090R$  000000000016800000000001690000000000168000000000016800000000001690000000000000000000000000000004000000000000400000000000000067293600000000000000009999123100000010000000000000BRBISAACNOR8109
012013080102BMEB4       010MERC BRASIL PN           R$  000000000113500000000011350000000001130000000000113200000000011300000000001121000000000114400003000000000000000600000000000000679500000000000000009999123100000010000000000000BRBMEBACNPR5190
012013080112BMLC11B     010FII BMBRC LCCI      MB   R$  000000001180000000000118000000000011800000000001180000000000118000000000011775000000001180000020000000000000001050000000000012390000000000000000009999123100000010000000000000BRBMLCCTF004117
012013080102BMTO4       010BRASMOTOR   PN           R$  000000000008500000000000870000000000085000000000008500000000000870000000000085000000000008700008000000000000021000000000000001787000000000000000009999123100000010000000000000BRBMTOACNPR6065
012013080112BNFS11      010FII BANRISULCI  ER       R$  000000001019900000000101990000000010199000000001019900000000101990000000009801000000001029000001000000000000000020000000000000203980000000000000009999123100000010000000000000BRBNFSCTF000111
012013080114BOVA11      010ISHARES BOVACI           R$  000000000479100000000048290000000004766000000000480400000000048230000000004823000000000482704605000000000002669250000000012823443730000000000000009999123100000010000000000000BRBOVACTF003101
012013080196BOVA11F     020ISHARES BOVACI           R$  000000000478900000000048000000000004730000000000476600000000047310000000004731000000000481600012000000000000000032000000000000152527000000000000009999123100000010000000000000BRBOVACTF003101
012013080162BOVA11T     030ISHARES BOVACI        090R$  000000000489400000000048950000000004894000000000489400000000048950000000000000000000000000000002000000000000000200000000000000978826000000000000009999123100000010000000000000BRBOVACTF003101
012013080112BPFF11      010FII ABSOLUTOCI  ER       R$  000000000925000000000092500000000009000000000000900200000000091000000000008900000000000910000009000000000000000284000000000002556700000000000000009999123100000010000000000000BRBPFFCTF002104
012013080102BPHA3       010BR PHARMA   ON      NM   R$  000000000098700000000010200000000000975000000000100100000000010120000000001012000000000101802373000000000000605900000000000606895200000000000000009999123100000010000000000000BRBPHAACNOR6102
012013080196BPHA3F      020BR PHARMA   ON      NM   R$  000000000099900000000010960000000000996000000000101400000000010150000000000984000000000101900012000000000000000444000000000000450617000000000000009999123100000010000000000000BRBPHAACNOR6102
012013080162BPHA3T      030BR PHARMA   ON      NM032R$  000000000099600000000009970000000000996000000000099600000000009970000000000000000000000000000002000000000000003000000000000002989899000000000000009999123100000010000000000000BRBPHAACNOR6102
012013080102BPNM4       010PANAMERICANOPN      N1   R$  000000000061000000000006100000000000586000000000060200000000006010000000000600000000000060100571000000000000291500000000000175494200000000000000009999123100000010000000000000BRBPNMACNPR6111
012013080196BPNM4F      020PANAMERICANOPN      N1   R$  000000000055000000000005980000000000550000000000059400000000005900000000000587000000000060200010000000000000000324000000000000192547000000000000009999123100000010000000000000BRBPNMACNPR6111
012013080162BPNM4T      030PANAMERICANOPN      N1090R$  000000000062000000000006210000000000618000000000062000000000006190000000000000000000000000000004000000000000102500000000000063575555000000000000009999123100000010000000000000BRBPNMACNPR6111
012013080102BRAP3       010BRADESPAR   ON      N1   R$  000000000181300000000018950000000001813000000000186600000000018900000000001890000000000189900206000000000000028100000000000052445700000000000000009999123100000010000000000000BRBRAPACNOR5124
012013080196BRAP3F      020BRADESPAR   ON      N1   R$  000000000185500000000018900000000001840000000000185500000000018400000000001810000000000189200007000000000000000153000000000000283870000000000000009999123100000010000000000000BRBRAPACNOR5124
012013080102BRAP4       010BRADESPAR   PN      N1   R$  000000000224000000000022750000000002237000000000225400000000022600000000002255000000000226004659000000000001021400000000002303089600000000000000009999123100000010000000000000BRBRAPACNPR2124
012013080196BRAP4F      020BRADESPAR   PN      N1   R$  000000000227000000000023190000000002240000000000226400000000022400000000002242000000000225900053000000000000000986000000000002231199000000000000009999123100000010000000000000BRBRAPACNPR2124
012013080162BRAP4T      030BRADESPAR   PN      N1018R$  000000000226400000000022650000000002264000000000226400000000022650000000000000000000000000000002000000000000003000000000000006793781000000000000009999123100000010000000000000BRBRAPACNPR2124
012013080162BRAP4T      030BRADESPAR   PN      N1030R$  000000000226300000000022640000000002263000000000226300000000022640000000000000000000000000000002000000000000001000000000000002263286000000000000009999123100000010000000000000BRBRAPACNPR2124
012013080114BRAX11      010ISHARES BRAXCI           R$  000000000401200000000040120000000004012000000000401200000000040120000000004012000000000000000001000000000000000100000000000000401200000000000000009999123100000010000000000000BRBRAXCTF002100
012013080112BRCR11      010FII BC FUND CI           R$  000000001340200000000135990000000013400000000001347600000000134400000000013402000000001344000236000000000000040453000000000545166846000000000000009999123100000010000000000000BRBRCRCTF000131
012013080102BRFS3       010BRF SA      ON      NM   R$  000000000491400000000049790000000004861000000000493100000000049680000000004960000000000496806535000000000002184400000000010773005700000000000000009999123100000010000000000000BRBRFSACNOR8110
012013080196BRFS3F      020BRF SA      ON      NM   R$  000000000491100000000049770000000004866000000000493000000000049500000000004920000000000495000244000000000000006969000000000034361336000000000000009999123100000010000000000000BRBRFSACNOR8110
012013080162BRFS3T      030BRF SA      ON      NM090R$  000000000499600000000050470000000004996000000000501600000000050470000000000000000000000000000030000000000000300000000000001504972275000000000000009999123100000010000000000000BRBRFSACNOR8110
012013080102BRGE3       010ALFA CONSORCON           R$  000000000034600000000003460000000000346000000000034600000000003460000000000345000000000045000001000000000000000600000000000000207600000000000000009999123100000010000000000000BRBRGEACNOR6196
012013080102BRIN3       010BR INSURANCEON      NM   R$  000000000223000000000022360000000002184000000000222200000000022360000000002236000000000223700893000000000000216200000000000480588300000000000000009999123100000010000000000000BRBRINACNOR3105
012013080196BRIN3F      020BR INSURANCEON      NM   R$  000000000220000000000022290000000002189000000000222400000000022290000000002221000000000229400089000000000000002702000000000006010581000000000000009999123100000010000000000000BRBRINACNOR3105
012013080102BRIV3       010ALFA INVEST ON           R$  000000000063900000000006390000000000639000000000063900000000006390000000000000000000000064000001000000000000003100000000000001980900000000000000009999123100000010000000000000BRBRIVACNOR6196
012013080196BRIV4F      020ALFA INVEST PN           R$  000000000060000000000006000000000000600000000000060000000000006000000000000511000000000060000001000000000000000010000000000000006000000000000000009999123100000010000000000000BRBRIVACNPR3196
012013080102BRKM3       010BRASKEM     ON      N1   R$  000000000111600000000011160000000001114000000000111400000000011140000000001114000000000112000040000000000000007700000000000008580500000000000000009999123100000010000000000000BRBRKMACNOR1110
012013080102BRKM5       010BRASKEM     PNA     N1   R$  000000000170600000000017350000000001691000000000171100000000017220000000001712000000000172211402000000000003150300000000005391155100000000000000009999123100000010000000000000BRBRKMACNPA4110
012013080196BRKM5F      020BRASKEM     PNA     N1   R$  000000000176000000000017850000000001699000000000171500000000017050000000001705000000000174500055000000000000001427000000000002447966000000000000009999123100000010000000000000BRBRKMACNPA4110
012013080162BRKM5T      030BRASKEM     PNA     N1018R$  000000000170800000000017140000000001708000000000170800000000017140000000000000000000000000000004000000000000006000000000000010253886000000000000009999123100000010000000000000BRBRKMACNPA4110
012013080162BRKM5T      030BRASKEM     PNA     N1032R$  000000000170900000000017100000000001709000000000170900000000017100000000000000000000000000000002000000000000000500000000000000854773000000000000009999123100000010000000000000BRBRKMACNPA4110
012013080178BRKMI53     070BRKME       PNA     N1000R$  000000000039400000000003940000000000394000000000039400000000003940000000000000000000000000000001000000000000377000000000000148538000000000000132502013091600000010000000000000BRBRKMACNPA4110
012013080178BRKMI60     070BRKME       PNA     N1000R$  000000000000600000000000060000000000006000000000000600000000000060000000000000000000000000000001000000000000377000000000000002262000000000000202502013091600000010000000000000BRBRKMACNPA4110
012013080182BRKMU53     080BRKME       PNA     N1000R$  000000000000100000000000010000000000001000000000000100000000000010000000000000000000000000000001000000000000377000000000000000377000000000000132502013091600000010000000000000BRBRKMACNPA4110
012013080182BRKMU60     080BRKME       PNA     N1000R$  000000000030400000000003040000000000304000000000030400000000003040000000000000000000000000000001000000000000377000000000000114608000000000000202502013091600000010000000000000BRBRKMACNPA4110
012013080102BRML3       010BR MALLS PARON      NM   R$  000000000206300000000020630000000002004000000000202900000000020490000000002046000000000204913143000000000002985100000000006059588000000000000000009999123100000010000000000000BRBRMLACNOR9105
012013080196BRML3F      020BR MALLS PARON      NM   R$  000000000205000000000020600000000002005000000000202700000000020380000000002004000000000204700275000000000000006967000000000014127893000000000000009999123100000010000000000000BRBRMLACNOR9105
012013080162BRML3T      030BR MALLS PARON      NM018R$  000000000206700000000020680000000002067000000000206700000000020680000000000000000000000000000002000000000000000500000000000001033721000000000000009999123100000010000000000000BRBRMLACNOR9105
012013080162BRML3T      030BR MALLS PARON      NM032R$  000000000203400000000020350000000002034000000000203400000000020350000000000000000000000000000002000000000000000500000000000001017270000000000000009999123100000010000000000000BRBRMLACNOR9105
012013080178BRMLH20     070BRML        ON      NM000R$  000000000005500000000000550000000000055000000000005500000000000550000000000000000000000000000001000000000000024800000000000001364000000000000200002013081900000010000000000000BRBRMLACNOR9105
012013080178BRMLH51     070BRML        ON      NM000R$  000000000000600000000000060000000000006000000000000600000000000060000000000000000000000000000001000000000000011000000000000000066000000000000215002013081900000010000000000000BRBRMLACNOR9105
012013080102BRPR3       010BR PROPERT  ON      NM   R$  000000000190500000000019330000000001893000000000190500000000019150000000001905000000000191505181000000000002996000000000005707617700000000000000009999123100000010000000000000BRBRPRACNOR9112
012013080196BRPR3F      020BR PROPERT  ON      NM   R$  000000000190000000000019970000000001883000000000190600000000019050000000001883000000000191500065000000000000001826000000000003480953000000000000009999123100000010000000000000BRBRPRACNOR9112
012013080196BRSR3F      020BANRISUL    ON      N1   R$  000000000135100000000013510000000001350000000000135000000000013500000000001350000000000000000002000000000000000019000000000000025665000000000000009999123100000010000000000000BRBRSRACNOR3130
012013080102BRSR6       010BANRISUL    PNB     N1   R$  000000000152000000000015450000000001472000000000149000000000014780000000001478000000000147903752000000000001286400000000001917286200000000000000009999123100000010000000000000BRBRSRACNPB4133
012013080196BRSR6F      020BANRISUL    PNB     N1   R$  000000000151700000000015690000000001437000000000148900000000015030000000001503000000000153000187000000000000005991000000000008926548000000000000009999123100000010000000000000BRBRSRACNPB4133
012013080102BSEV3       010BIOSEV      ON      NM   R$  000000000121300000000012240000000001213000000000121800000000012240000000001213000000000122400004000000000000000600000000000000731100000000000000009999123100000010000000000000BRBSEVACNOR3100
012013080102BTOW3       010B2W DIGITAL ON      NM   R$  000000000107300000000011460000000001052000000000109000000000011460000000001146000000000114702342000000000001035800000000001129842400000000000000009999123100000010000000000000BRBTOWACNOR8105
012013080196BTOW3F      020B2W DIGITAL ON      NM   R$  000000000108000000000011300000000001053000000000108000000000011000000000001100000000000113000040000000000000001259000000000001360919000000000000009999123100000010000000000000BRBTOWACNOR8105
012013080162BTOW3T      030B2W DIGITAL ON      NM018R$  000000000114000000000011410000000001140000000000114000000000011410000000000000000000000000000002000000000000001000000000000001140108000000000000009999123100000010000000000000BRBTOWACNOR8105
012013080102BVMF3       010BMFBOVESPA  ON      NM   R$  000000000124700000000012540000000001226000000000123900000000012480000000001248000000000124916721000000000009761000000000012099498400000000000000009999123100000010000000000000BRBVMFACNOR3125
012013080196BVMF3F      020BMFBOVESPA  ON      NM   R$  000000000124000000000012520000000001227000000000123800000000012490000000001245000000000124900168000000000000005361000000000006638140000000000000009999123100000010000000000000BRBVMFACNOR3125
012013080162BVMF3T      030BMFBOVESPA  ON      NM021R$  000000000124000000000012410000000001240000000000124000000000012410000000000000000000000000000004000000000000008400000000000010417428000000000000009999123100000010000000000000BRBVMFACNOR3125
012013080162BVMF3T      030BMFBOVESPA  ON      NM120R$  000000000126700000000012700000000001267000000000126800000000012700000000000000000000000000000004000000000000030000000000000038044165000000000000009999123100000010000000000000BRBVMFACNOR3125
012013080178BVMFH1      070BVMFE       ON      NM000R$  000000000000800000000000110000000000008000000000000800000000000110000000000002000000000001100004000000000000005600000000000000049000000000000132502013081900000010000000000000BRBVMFACNOR3125
012013080178BVMFH11     070BVMF        ON      NM000R$  000000000014600000000001590000000000144000000000014800000000001590000000000148000000000017000019000000000000017400000000000002581100000000000110002013081900000010000000000000BRBVMFACNOR3125
012013080178BVMFH12     070BVMF  FM    ON      NM000R$  000000000006400000000000770000000000060000000000006700000000000740000000000061000000000007800327000000000000465200000000000031415400000000000120002013081900000010000000000000BRBVMFACNOR3125
012013080178BVMFH13     070BVMF  FM    ON      NM000R$  000000000001900000000000210000000000015000000000001700000000000190000000000019000000000002000187000000000000595200000000000010399000000000000128902013081900000010000000000000BRBVMFACNOR3124
012013080178BVMFH14     070BVMF  FM    ON      NM000R$  000000000000200000000000030000000000002000000000000200000000000020000000000002000000000000300015000000000000055200000000000000110500000000000138902013081900000010000000000000BRBVMFACNOR3124
012013080178BVMFH41     070BVMF        ON      NM000R$  000000000010500000000001050000000000105000000000010500000000001050000000000000000000000000000002000000000000004600000000000000483000000000000115002013081900000010000000000000BRBVMFACNOR3125
012013080178BVMFH42     070BVMF  FM    ON      NM000R$  000000000003100000000000400000000000031000000000003400000000000400000000000029000000000004800049000000000000171600000000000006004900000000000125002013081900000010000000000000BRBVMFACNOR3125
012013080178BVMFH43     070BVMF  FM    ON      NM000R$  000000000000400000000000050000000000004000000000000400000000000050000000000004000000000003000026000000000000068800000000000000278800000000000135002013081900000010000000000000BRBVMFACNOR3125
012013080178BVMFI11     070BVMF        ON      NM000R$  000000000015700000000001610000000000157000000000015800000000001610000000000000000000000000000005000000000000000800000000000000126500000000000110002013091600000010000000000000BRBVMFACNOR3125
012013080178BVMFI12     070BVMF  FM    ON      NM000R$  000000000008000000000000910000000000080000000000008500000000000900000000000000000000000009300110000000000000068600000000000005896000000000000120002013091600000010000000000000BRBVMFACNOR3125
012013080178BVMFI13     070BVMF  FM    ON      NM000R$  000000000003100000000000350000000000028000000000003000000000000350000000000025000000000003500143000000000000170800000000000005211100000000000130002013091600000010000000000000BRBVMFACNOR3125
012013080178BVMFI14     070BVMF  FM    ON      NM000R$  000000000000700000000000090000000000007000000000000700000000000090000000000007000000000000900131000000000000127300000000000001004700000000000140002013091600000010000000000000BRBVMFACNOR3125
012013080178BVMFI15     070BVMF        ON      NM000R$  000000000000500000000000050000000000005000000000000500000000000050000000000000000000000000500001000000000000000100000000000000000500000000000150002013091600000010000000000000BRBVMFACNOR3125
012013080178BVMFI40     070BVMF        ON      NM000R$  000000000019900000000001990000000000199000000000019900000000001990000000000000000000000000000001000000000000000700000000000000139300000000000105002013091600000010000000000000BRBVMFACNOR3125
012013080178BVMFI42     070BVMF  FM    ON      NM000R$  000000000005100000000000580000000000051000000000005500000000000580000000000000000000000000000021000000000000069400000000000003820400000000000125002013091600000010000000000000BRBVMFACNOR3125
012013080178BVMFI43     070BVMF  FM    ON      NM000R$  000000000001600000000000180000000000014000000000001500000000000180000000000006000000000002700055000000000000131700000000000002034800000000000135002013091600000010000000000000BRBVMFACNOR3125
012013080178BVMFJ11     070BVMF        ON      NM000R$  000000000017200000000001750000000000171000000000017200000000001750000000000000000000000000000007000000000000034600000000000005966600000000000110002013102100000010000000000000BRBVMFACNOR3125
012013080178BVMFJ12     070BVMF        ON      NM000R$  000000000010000000000001140000000000100000000000010500000000001140000000000000000000000000000005000000000000025000000000000002635000000000000120002013102100000010000000000000BRBVMFACNOR3125
012013080178BVMFJ13     070BVMF        ON      NM000R$  000000000005000000000000500000000000050000000000005000000000000500000000000000000000000000000002000000000000009000000000000000450000000000000130002013102100000010000000000000BRBVMFACNOR3125
012013080178BVMFJ14     070BVMF        ON      NM000R$  000000000002400000000000240000000000024000000000002400000000000240000000000000000000000002500003000000000000004000000000000000096000000000000140002013102100000010000000000000BRBVMFACNOR3125
012013080178BVMFJ41     070BVMF        ON      NM000R$  000000000013400000000001500000000000134000000000013800000000001500000000000000000000000000000013000000000000062900000000000008708800000000000115002013102100000010000000000000BRBVMFACNOR3125
012013080178BVMFJ42     070BVMF        ON      NM000R$  000000000007300000000000730000000000073000000000007300000000000730000000000000000000000000000001000000000000005000000000000000365000000000000125002013102100000010000000000000BRBVMFACNOR3125
012013080178BVMFL13     070BVMF        ON      NM000R$  000000000008300000000000950000000000083000000000008700000000000950000000000000000000000011000037000000000000200000000000000017456000000000000130002013121600000010000000000000BRBVMFACNOR3125
012013080182BVMFQ73     080BVMFE       ON      NM000R$  000000000011400000000001140000000000114000000000011400000000001140000000000000000000000000000001000000000000015400000000000001755600000000000128902014051900000010000000000000BRBVMFACNOR3124
012013080182BVMFR63     080BVMFE       ON      NM000R$  000000000012200000000001220000000000122000000000012200000000001220000000000000000000000000000001000000000000024000000000000002928000000000000130002014061600000010000000000000BRBVMFACNOR3125
012013080182BVMFT1      080BVMFE       ON      NM000R$  000000000008500000000000850000000000085000000000008500000000000850000000000000000000000016700001000000000000006000000000000000510000000000000132502013081900000010000000000000BRBVMFACNOR3125
012013080182BVMFT11     080BVMFE       ON      NM000R$  000000000000800000000000080000000000006000000000000600000000000060000000000003000000000001300008000000000000006300000000000000039700000000000110002013081900000010000000000000BRBVMFACNOR3125
012013080182BVMFT12     080BVMFE FM    ON      NM000R$  000000000002800000000000290000000000019000000000002100000000000200000000000020000000000002700173000000000000196000000000000004205600000000000120002013081900000010000000000000BRBVMFACNOR3125
012013080182BVMFT13     080BVMFE FM    ON      NM000R$  000000000006300000000000690000000000053000000000006100000000000540000000000000000000000006500085000000000000211900000000000013110900000000000128902013081900000010000000000000BRBVMFACNOR3124
012013080182BVMFT14     080BVMFE       ON      NM000R$  000000000013700000000001370000000000137000000000013700000000001370000000000000000000000000000001000000000000003500000000000000479500000000000138902013081900000010000000000000BRBVMFACNOR3124
012013080182BVMFT41     080BVMFE FM    ON      NM000R$  000000000001200000000000130000000000011000000000001100000000000110000000000001000000000000000032000000000000066500000000000000740500000000000115002013081900000010000000000000BRBVMFACNOR3125
012013080182BVMFT42     080BVMFE FM    ON      NM000R$  000000000004500000000000450000000000034000000000003900000000000360000000000000000000000000000033000000000000100800000000000003933900000000000125002013081900000010000000000000BRBVMFACNOR3125
012013080182BVMFT43     080BVMFE       ON      NM000R$  000000000010600000000001060000000000098000000000010300000000000990000000000000000000000019100003000000000000009500000000000000980700000000000135002013081900000010000000000000BRBVMFACNOR3125
012013080182BVMFT61     080BVMFE       ON      NM000R$  000000000001500000000000150000000000015000000000001500000000000150000000000000000000000000000001000000000000000700000000000000010500000000000117502013081900000010000000000000BRBVMFACNOR3125
012013080182BVMFT62     080BVMFE       ON      NM000R$  000000000003200000000000320000000000028000000000003000000000000280000000000000000000000000000018000000000000010000000000000000309200000000000122502013081900000010000000000000BRBVMFACNOR3125
012013080182BVMFU12     080BVMFE FM    ON      NM000R$  000000000003600000000000360000000000030000000000003400000000000310000000000030000000000004800042000000000000065400000000000002256000000000000120002013091600000010000000000000BRBVMFACNOR3125
012013080182BVMFU13     080BVMFE FM    ON      NM000R$  000000000008400000000000840000000000071000000000008000000000000730000000000051000000000000000028000000000000081200000000000006533200000000000130002013091600000010000000000000BRBVMFACNOR3125
012013080182BVMFU41     080BVMFE FM    ON      NM000R$  000000000002300000000000230000000000020000000000002200000000000200000000000000000000000000000003000000000000009000000000000000201600000000000115002013091600000010000000000000BRBVMFACNOR3125
012013080182BVMFU42     080BVMFE FM    ON      NM000R$  000000000005900000000000590000000000047000000000005400000000000470000000000000000000000000000025000000000000073400000000000003980300000000000125002013091600000010000000000000BRBVMFACNOR3125
012013080182BVMFV12     080BVMFE       ON      NM000R$  000000000005100000000000510000000000051000000000005100000000000510000000000000000000000000000001000000000000005000000000000000255000000000000120002013102100000010000000000000BRBVMFACNOR3125
012013080182BVMFV13     080BVMFE       ON      NM000R$  000000000009900000000000990000000000097000000000009800000000000970000000000000000000000000000006000000000000024600000000000002420400000000000130002013102100000010000000000000BRBVMFACNOR3125
012013080182BVMFV42     080BVMFE       ON      NM000R$  000000000007200000000000720000000000072000000000007200000000000720000000000000000000000000000003000000000000015000000000000001080000000000000125002013102100000010000000000000BRBVMFACNOR3125
012013080182BVMFV43     080BVMFE       ON      NM000R$  000000000012700000000001300000000000127000000000012800000000001290000000000000000000000000000006000000000000025000000000000003220000000000000135002013102100000010000000000000BRBVMFACNOR3125
012013080196CALI4F      020CONST A LINDPN           R$  000000001090100000000109010000000010901000000001090100000000109010000000010100000000001500000001000000000000000001000000000000010901000000000000009999123100000010000000000000BRCALIACNPR8131
012013080102CARD3       010CSU CARDSYSTON      NM   R$  000000000033400000000003350000000000334000000000033400000000003350000000000326000000000033500006000000000000011000000000000003684500000000000000009999123100000010000000000000BRCARDACNOR9105
012013080102CBMA3       010COBRASMA    ON           R$  000000000000400000000000040000000000004000000000000400000000000040000000000004000000000000600003000000000000030000000000000000120000000000000000009999123100000010000000000000BRCBMAACNOR4124
012013080102CBMA4       010COBRASMA    PN           R$  000000000000600000000000060000000000005000000000000500000000000050000000000005000000000000600004000000000000070000000000000000400000000000000000009999123100000010000000000000BRCBMAACNPR1124
012013080196CBMA4F      020COBRASMA    PN           R$  000000000000500000000000050000000000005000000000000500000000000050000000000004000000000000500002000000000000004000000000000000020000000000000000009999123100000010000000000000BRCBMAACNPR1124
012013080108CCHI3       010CHIARELLI   ON           R$  000000000002900000000000300000000000027000000000002800000000000290000000000029000000000003000030000000000000450000000000000012790000000000000000009999123100000010000000000000BRCCHIACNOR5123
012013080196CCHI3F      020CHIARELLI   ON           R$  000000000003000000000000300000000000028000000000002800000000000280000000000028000000000002900012000000000000031000000000000000885000000000000000009999123100000010000000000000BRCCHIACNOR5123
012013080108CCHI4       010CHIARELLI   PN           R$  000000000002100000000000230000000000020000000000002100000000000230000000000022000000000002400010000000000000120000000000000002570000000000000000009999123100000010000000000000BRCCHIACNPR2122
012013080196CCHI4F      020CHIARELLI   PN           R$  000000000002100000000000230000000000021000000000002100000000000230000000000010000000000002300004000000000000008000000000000000168446000000000000009999123100000010000000000000BRCCHIACNPR2122
012013080102CCPR3       010CYRE COM-CCPON      NM   R$  000000000207600000000021120000000002076000000000210500000000021110000000002111000000000217000010000000000000001100000000000002315700000000000000009999123100000010000000000000BRCCPRACNOR9107
012013080102CCRO3       010CCR SA      ON      NM   R$  000000000180800000000018210000000001778000000000180100000000017950000000001794000000000179512276000000000004536500000000008170973500000000000000009999123100000010000000000000BRCCROACNOR2122
012013080196CCRO3F      020CCR SA      ON      NM   R$  000000000182900000000018290000000001771000000000180700000000017990000000001771000000000179900080000000000000002344000000000004235306000000000000009999123100000010000000000000BRCCROACNOR2122
012013080162CCRO3T      030CCR SA      ON      NM018R$  000000000180600000000018070000000001806000000000180600000000018070000000000000000000000000000002000000000000001200000000000002167651000000000000009999123100000010000000000000BRCCROACNOR2122
012013080162CCRO3T      030CCR SA      ON      NM032R$  000000000180900000000018100000000001809000000000180900000000018100000000000000000000000000000002000000000000004000000000000007236878000000000000009999123100000010000000000000BRCCROACNOR2122
012013080162CCRO3T      030CCR SA      ON      NM060R$  000000000180300000000018370000000001803000000000182500000000018370000000000000000000000000000004000000000000006000000000000010952420000000000000009999123100000010000000000000BRCCROACNOR2122
012013080178CCROH48     070CCRO        ON      NM000R$  000000000001500000000000150000000000015000000000001500000000000150000000000000000000000000000001000000000000025000000000000000375000000000000185002013081900000010000000000000BRCCROACNOR2122
012013080178CCROI48     070CCRO        ON      NM000R$  000000000004500000000000450000000000045000000000004500000000000450000000000000000000000000000001000000000000011000000000000000495000000000000185002013091600000010000000000000BRCCROACNOR2122
012013080178CCROK50     070CCRO        ON      NM000R$  000000000003900000000000390000000000033000000000003300000000000330000000000000000000000000000002000000000000071500000000000002398500000000000205002013111800000010000000000000BRCCROACNOR2122
012013080102CCXC3       010CCX CARVAO  ON      NM   R$  000000000010000000000001000000000000092000000000009500000000000940000000000094000000000009500293000000000000844100000000000080964100000000000000009999123100000010000000000000BRCCXCACNOR5100
012013080196CCXC3F      020CCX CARVAO  ON      NM   R$  000000000009300000000000930000000000090000000000009100000000000900000000000093000000000009700002000000000000000002000000000000000183000000000000009999123100000010000000000000BRCCXCACNOR5100
012013080196CEDO3F      020CEDRO       ON      N1   R$  000000000100100000000010010000000001001000000000100100000000010010000000000000000000000120000001000000000000000034000000000000034034000000000000009999123100000010000000000000BRCEDOACNOR8094
012013080112CEOC11B     010FII CEO CCP CI      MB   R$  000000000912100000000091550000000008921000000000903800000000091000000000009071000000000914900024000000000000000927000000000008378705000000000000009999123100000010000000000000BRCEOCCTF003108
012013080102CEPE5       010CELPE       PNA          R$  000000000174000000000017400000000001740000000000174000000000017400000000001600000000000180000001000000000000001100000000000001914000000000000000009999123100000010000000000000BRCEPEACNPA6151
012013080102CESP3       010CESP        ON      N1   R$  000000000165000000000016500000000001630000000000164200000000016300000000001616000000000165000003000000000000000500000000000000821000000000000000009999123100000010000000000000BRCESPACNOR3159
012013080102CESP6       010CESP        PNB     N1   R$  000000000201600000000020290000000001910000000000199900000000020050000000002005000000000200904443000000000001089000000000002177142900000000000000009999123100000010000000000000BRCESPACNPB4118
012013080196CESP6F      020CESP        PNB     N1   R$  000000000200000000000020150000000001948000000000200100000000019480000000001947000000000200000032000000000000001132000000000002262192000000000000009999123100000010000000000000BRCESPACNPB4118
012013080182CESPU19     080CESPE       PNB     N1000R$  000000000005200000000000750000000000052000000000006800000000000750000000000000000000000008000004000000000000000400000000000000027200000000000190002013091600000010000000000000BRCESPACNPB4118
012013080182CESPU20     080CESPE       PNB     N1000R$  000000000011100000000001160000000000111000000000011300000000001160000000000076000000000012000002000000000000000200000000000000022700000000000200002013091600000010000000000000BRCESPACNPB4118
012013080102CGAS3       010COMGAS      ON           R$  000000000511900000000051190000000005080000000000508100000000050800000000004146000000000512000003000000000000002100000000000010671900000000000000009999123100000010000000000000BRCGASACNOR0132
012013080102CGAS5       010COMGAS      PNA          R$  000000000556300000000055720000000005463000000000552500000000055000000000005478000000000550000089000000000000108400000000000598941800000000000000009999123100000010000000000000BRCGASACNPA3129
012013080196CGAS5F      020COMGAS      PNA          R$  000000000558500000000055850000000005465000000000550600000000054850000000005303000000000556300007000000000000000143000000000000787484000000000000009999123100000010000000000000BRCGASACNPA3129
012013080102CGRA3       010GRAZZIOTIN  ON           R$  000000000155000000000015500000000001507000000000152400000000015070000000001507000000000159100023000000000000047700000000000072709500000000000000009999123100000010000000000000BRCGRAACNOR2061
012013080196CGRA3F      020GRAZZIOTIN  ON           R$  000000000155000000000015500000000001550000000000155000000000015500000000001445000000000178500002000000000000000064000000000000099200000000000000009999123100000010000000000000BRCGRAACNOR2061
012013080102CGRA4       010GRAZZIOTIN  PN           R$  000000000161500000000016650000000001615000000000163900000000016300000000001630000000000165500112000000000000017300000000000028357000000000000000009999123100000010000000000000BRCGRAACNPR9061
012013080196CGRA4F      020GRAZZIOTIN  PN           R$  000000000160000000000016600000000001600000000000164100000000016600000000001635000000000260000003000000000000000026000000000000042680000000000000009999123100000010000000000000BRCGRAACNPR9061
012013080102CIEL3       010CIELO       ON      NM   R$  000000000562800000000056890000000005606000000000564000000000056250000000005620000000000562505797000000000001221800000000006891106100000000000000009999123100000010000000000000BRCIELACNOR3111
012013080196CIEL3F      020CIELO       ON      NM   R$  000000000563000000000056830000000005605000000000563700000000056350000000005606000000000563400277000000000000005824000000000032833860000000000000009999123100000010000000000000BRCIELACNOR3111
012013080178CIELH59     070CIEL        ON      NM000R$  000000000001800000000000180000000000016000000000001600000000000160000000000000000000000000000002000000000000000900000000000000014600000000000590002013081900000010000000000000BRCIELACNOR3111
012013080178CIELJ60     070CIEL        ON      NM000R$  000000000013800000000001380000000000137000000000013700000000001370000000000000000000000000000002000000000000150000000000000020640000000000000600002013102100000010000000000000BRCIELACNOR3111
012013080102CLSC4       010CELESC      PN      N2   R$  000000000191000000000019290000000001910000000000192300000000019250000000001915000000000193000059000000000000010500000000000020193800000000000000009999123100000010000000000000BRCLSCACNPR3107
012013080102CMIG3       010CEMIG       ON      N1   R$  000000000211100000000021410000000002046000000000206200000000020600000000002057000000000206000625000000000000170200000000000351001800000000000000009999123100000010000000000000BRCMIGACNOR6208
012013080196CMIG3F      020CEMIG       ON      N1   R$  000000000219900000000021990000000002050000000000207100000000020690000000002069000000000207000044000000000000001276000000000002643095000000000000009999123100000010000000000000BRCMIGACNOR6208
012013080102CMIG4       010CEMIG       PN      N1   R$  000000000209700000000021170000000002032000000000206000000000020700000000002070000000000207211413000000000003441900000000007093267100000000000000009999123100000010000000000000BRCMIGACNPR3208
012013080196CMIG4F      020CEMIG       PN      N1   R$  000000000208200000000021090000000002031000000000206000000000020690000000002067000000000206900366000000000000008837000000000018207472000000000000009999123100000010000000000000BRCMIGACNPR3208
012013080162CMIG4T      030CEMIG       PN      N1032R$  000000000207700000000020780000000002077000000000207700000000020780000000000000000000000000000002000000000000000400000000000000830976000000000000009999123100000010000000000000BRCMIGACNPR3208
012013080162CMIG4T      030CEMIG       PN      N1060R$  000000000210700000000021080000000002107000000000210700000000021080000000000000000000000000000002000000000000000500000000000001053818000000000000009999123100000010000000000000BRCMIGACNPR3208
012013080162CMIG4T      030CEMIG       PN      N1090R$  000000000212800000000021290000000002094000000000211000000000021050000000000000000000000000000006000000000000008500000000000017937975000000000000009999123100000010000000000000BRCMIGACNPR3208
012013080178CMIGH20     070CMIG        PN      N1000R$  000000000009500000000000950000000000095000000000009500000000000950000000000000000000000000000001000000000000000100000000000000009500000000000200002013081900000010000000000000BRCMIGACNPR3208
012013080178CMIGH21     070CMIG        PN      N1000R$  000000000003000000000000340000000000030000000000003200000000000340000000000035000000000000000005000000000000002300000000000000073800000000000210002013081900000010000000000000BRCMIGACNPR3208
012013080112CNES11B     010FII CENESP  CI  ER  MB   R$  000000001257000000000125700000000012500000000001254200000000125500000000012510000000001257000024000000000000001217000000000015264705000000000000009999123100000010000000000000BRCNESCTF001124
012013080102COCA11B     010COCA COLA   DRN     MB   R$  000000000928100000000092810000000009281000000000928100000000092810000000000000000000000940000001000000000000000100000000000000928100000000000000009999123100000010000000000000BRCOCABDR002108
012013080102COCE3       010COELCE      ON           R$  000000000427400000000042740000000004269000000000426900000000042690000000004120000000000427000004000000000000000600000000000002561900000000000000009999123100000010000000000000BRCOCEACNOR0132
012013080102COCE5       010COELCE      PNA          R$  000000000409000000000041600000000004090000000000414400000000041400000000004140000000000414500282000000000000052700000000000218415500000000000000009999123100000010000000000000BRCOCEACNPA3133
012013080196COCE5F      020COELCE      PNA          R$  000000000420000000000042000000000004100000000000414400000000041000000000004100000000000414800027000000000000000451000000000001869003000000000000009999123100000010000000000000BRCOCEACNPA3133
012013080102CPFE3       010CPFL ENERGIAON      NM   R$  000000000210600000000021720000000002106000000000214400000000021680000000002165000000000216803605000000000000790300000000001694801500000000000000009999123100000010000000000000BRCPFEACNOR0121
012013080196CPFE3F      020CPFL ENERGIAON      NM   R$  000000000206200000000021940000000002062000000000214700000000021600000000002150000000000216000053000000000000001459000000000003132472000000000000009999123100000010000000000000BRCPFEACNOR0121
012013080102CPLE3       010COPEL       ON      N1   R$  000000000220200000000022200000000002165000000000218000000000021890000000002157000000000218900047000000000000013200000000000028784600000000000000009999123100000010000000000000BRCPLEACNOR8128
012013080196CPLE3F      020COPEL       ON      N1   R$  000000000220000000000022000000000002106000000000217300000000021500000000002180000000000240000003000000000000000016000000000000034768000000000000009999123100000010000000000000BRCPLEACNOR8128
012013080102CPLE6       010COPEL       PNB     N1   R$  000000000278800000000028600000000002780000000000281200000000028200000000002815000000000282003367000000000000479400000000001348300100000000000000009999123100000010000000000000BRCPLEACNPB9125
012013080196CPLE6F      020COPEL       PNB     N1   R$  000000000284000000000029980000000002700000000000280600000000028100000000002702000000000299800025000000000000000604000000000001695131000000000000009999123100000010000000000000BRCPLEACNPB9125
012013080102CPRE3       010CPFL RENOVAVON      NM   R$  000000000118400000000011840000000001160000000000117000000000011800000000001170000000000118000017000000000000016100000000000018840300000000000000009999123100000010000000000000BRCPREACNOR5100
012013080196CPRE3F      020CPFL RENOVAVON      NM   R$  000000000117000000000011800000000001169000000000117400000000011740000000001169000000000117400007000000000000000200000000000000234845000000000000009999123100000010000000000000BRCPREACNOR5100
012013080102CRDE3       010CR2         ON      NM   R$  000000000040300000000004100000000000400000000000040400000000004050000000000405000000000041500008000000000000008700000000000003515800000000000000009999123100000010000000000000BRCRDEACNOR1108
012013080102CREM3       010CREMER      ON      NM   R$  000000000148000000000014890000000001470000000000147700000000014700000000001436000000000147000031000000000000133400000000000197124800000000000000009999123100000010000000000000BRCREMACNOR2166
012013080196CREM3F      020CREMER      ON      NM   R$  000000000148000000000014800000000001480000000000148000000000014800000000001336000000000153200004000000000000000050000000000000074000000000000000009999123100000010000000000000BRCREMACNOR2166
012013080102CRIV3       010ALFA FINANC ON           R$  000000000055700000000005570000000000557000000000055700000000005570000000000516000000000055900001000000000000004500000000000002506500000000000000009999123100000010000000000000BRCRIVACNOR4189
012013080102CRUZ3       010SOUZA CRUZ  ON           R$  000000000274700000000027580000000002681000000000271400000000026860000000002686000000000268805991000000000001469700000000003988943300000000000000009999123100000010000000000000BRCRUZACNOR0246
012013080196CRUZ3F      020SOUZA CRUZ  ON           R$  000000000275500000000027700000000002681000000000271100000000027680000000002700000000000276800124000000000000003529000000000009573706000000000000009999123100000010000000000000BRCRUZACNOR0246
012013080162CRUZ3T      030SOUZA CRUZ  ON        018R$  000000000272800000000027480000000002697000000000272500000000026980000000000000000000000000000008000000000000005200000000000014173961000000000000009999123100000010000000000000BRCRUZACNOR0246
012013080162CRUZ3T      030SOUZA CRUZ  ON        032R$  000000000274200000000027430000000002742000000000274200000000027430000000000000000000000000000002000000000000000600000000000001645237000000000000009999123100000010000000000000BRCRUZACNOR0246
012013080162CRUZ3T      030SOUZA CRUZ  ON        060R$  000000000272400000000027250000000002724000000000272400000000027250000000000000000000000000000002000000000000001000000000000002724432000000000000009999123100000010000000000000BRCRUZACNOR0246
012013080178CRUZE82     070CRUZ        ON        000R$  000000000007100000000000710000000000071000000000007100000000000710000000000000000000000000000002000000000000003100000000000000220100000000000319902014051900000010000000000000BRCRUZACNOR0245
012013080178CRUZH28     070CRUZ        ON        000R$  000000000000500000000000050000000000005000000000000500000000000050000000000000000000000000000002000000000000003900000000000000019500000000000279902013081900000010000000000000BRCRUZACNOR0245
012013080102CSAN3       010COSAN       ON  ED  NM   R$  000000000428400000000043730000000004261000000000432700000000043450000000004344000000000435904403000000000000904300000000003913288300000000000000009999123100000010000000000000BRCSANACNOR6108
012013080196CSAN3F      020COSAN       ON  ED  NM   R$  000000000425600000000044000000000004251000000000432300000000044000000000004400000000000446000138000000000000003937000000000017021260000000000000009999123100000010000000000000BRCSANACNOR6108
012013080178CSANI46     070CSAN    /ED ON      NM000R$  000000000005000000000000500000000000050000000000005000000000000500000000000000000000000000000002000000000000001500000000000000075000000000000452602013091600000010000000000000BRCSANACNOR6107
012013080178CSANK41     070CSAN    /ED ON      NM000R$  000000000041800000000004180000000000418000000000041800000000004180000000000000000000000000000001000000000000045000000000000018810000000000000410002013111800000010000000000000BRCSANACNOR6108
012013080178CSANK45     070CSAN    /ED ON      NM000R$  000000000019200000000001920000000000192000000000019200000000001920000000000000000000000000000001000000000000030000000000000005760000000000000450002013111800000010000000000000BRCSANACNOR6108
012013080102CSCO11B     010CISCO       DRN     MB   R$  000000000593500000000059350000000005917000000000593100000000059170000000005879000000000604200002000000000000001500000000000008897100000000000000009999123100000010000000000000BRCSCOBDR004110
012013080102CSMG3       010COPASA      ON      NM   R$  000000000361100000000036770000000003556000000000358900000000035790000000003579000000000359501522000000000000181500000000000651442100000000000000009999123100000010000000000000BRCSMGACNOR5127
012013080196CSMG3F      020COPASA      ON      NM   R$  000000000364000000000036690000000003541000000000360100000000035950000000003250000000000367600013000000000000000429000000000001545184000000000000009999123100000010000000000000BRCSMGACNOR5127
012013080114CSMO11      010ISHARES CSMOCI           R$  000000000466600000000046660000000004666000000000466600000000046660000000004666000000000489900001000000000000000100000000000000466600000000000000009999123100000010000000000000BRCSMOCTF002100
012013080102CSNA3       010SID NACIONALON           R$  000000000065200000000006700000000000643000000000065600000000006620000000000662000000000066311818000000000008552400000000005612580500000000000000009999123100000010000000000000BRCSNAACNOR6242
012013080196CSNA3F      020SID NACIONALON           R$  000000000066200000000006690000000000645000000000065400000000006630000000000663000000000067300087000000000000002813000000000001841751000000000000009999123100000010000000000000BRCSNAACNOR6242
012013080162CSNA3T      030SID NACIONALON        032R$  000000000066400000000006680000000000664000000000066700000000006680000000000000000000000000000006000000000000045000000000000030028740000000000000009999123100000010000000000000BRCSNAACNOR6242
012013080162CSNA3T      030SID NACIONALON        046R$  000000000065400000000006550000000000654000000000065400000000006550000000000000000000000000000002000000000000002000000000000001308830000000000000009999123100000010000000000000BRCSNAACNOR6242
012013080162CSNA3T      030SID NACIONALON        060R$  000000000065600000000006670000000000656000000000065900000000006670000000000000000000000000000004000000000000007000000000000004613993000000000000009999123100000010000000000000BRCSNAACNOR6242
012013080162CSNA3T      030SID NACIONALON        090R$  000000000065900000000006610000000000659000000000066000000000006610000000000000000000000000000004000000000000032000000000000021142460000000000000009999123100000010000000000000BRCSNAACNOR6242
012013080162CSNA3T      030SID NACIONALON        120R$  000000000066600000000006840000000000666000000000066700000000006840000000000000000000000000000006000000000000004400000000000002938036000000000000009999123100000010000000000000BRCSNAACNOR6242
012013080178CSNAH6      070CSNA        ON        000R$  000000000007800000000000780000000000078000000000007800000000000780000000000059000000000008100001000000000000000100000000000000007800000000000060002013081900000010000000000000BRCSNAACNOR6242
012013080178CSNAH64     070CSNA  FM    ON        000R$  000000000004100000000000470000000000038000000000004100000000000470000000000000000000000000000018000000000000065300000000000002736900000000000064002013081900000010000000000000BRCSNAACNOR6242
012013080178CSNAH65     070CSNAE       ON        000R$  000000000003000000000000430000000000030000000000003600000000000430000000000000000000000000000003000000000000008000000000000000290000000000000065002013081900000010000000000000BRCSNAACNOR6242
012013080178CSNAH66     070CSNA  FM    ON        000R$  000000000003000000000000370000000000030000000000003400000000000370000000000000000000000000000009000000000000028000000000000000956900000000000066002013081900000010000000000000BRCSNAACNOR6242
012013080178CSNAH68     070CSNA  FM    ON        000R$  000000000002200000000000260000000000022000000000002500000000000260000000000000000000000000000019000000000000079100000000000002012100000000000068002013081900000010000000000000BRCSNAACNOR6242
012013080178CSNAH7      070CSNA  FM    ON        000R$  000000000001300000000000210000000000013000000000001900000000000200000000000019000000000002600026000000000000100800000000000001925000000000000070002013081900000010000000000000BRCSNAACNOR6242
012013080178CSNAI6      070CSNA        ON        000R$  000000000008500000000000850000000000077000000000008100000000000770000000000077000000000000000002000000000000000200000000000000016200000000000060002013091600000010000000000000BRCSNAACNOR6242
012013080178CSNAI64     070CSNA  FM    ON        000R$  000000000005600000000000630000000000053000000000005800000000000630000000000000000000000000000004000000000000009500000000000000553900000000000064002013091600000010000000000000BRCSNAACNOR6242
012013080178CSNAI66     070CSNA  FM    ON        000R$  000000000004700000000000470000000000047000000000004700000000000470000000000000000000000000000003000000000000010500000000000000493500000000000066002013091600000010000000000000BRCSNAACNOR6242
012013080178CSNAI68     070CSNA  FM    ON        000R$  000000000004300000000000430000000000043000000000004300000000000430000000000000000000000005100001000000000000002500000000000000107500000000000068002013091600000010000000000000BRCSNAACNOR6242
012013080178CSNAI7      070CSNA  FM    ON        000R$  000000000002600000000000300000000000026000000000002800000000000290000000000027000000000004000004000000000000007500000000000000217200000000000070002013091600000010000000000000BRCSNAACNOR6242
012013080178CSNAI74     070CSNA        ON        000R$  000000000002200000000000220000000000022000000000002200000000000220000000000000000000000000000001000000000000000800000000000000017600000000000074002013091600000010000000000000BRCSNAACNOR6242
012013080178CSNAI8      070CSNA        ON        000R$  000000000001000000000000100000000000010000000000001000000000000100000000000007000000000000000001000000000000002000000000000000020000000000000080002013091600000010000000000000BRCSNAACNOR6242
012013080178CSNAJ6      070CSNA        ON        000R$  000000000009300000000000930000000000093000000000009300000000000930000000000000000000000000000001000000000000000100000000000000009300000000000060002013102100000010000000000000BRCSNAACNOR6242
012013080178CSNAJ8      070CSNA        ON        000R$  000000000002100000000000210000000000021000000000002100000000000210000000000000000000000000000001000000000000003500000000000000073500000000000080002013102100000010000000000000BRCSNAACNOR6242
012013080182CSNAT6      080CSNAE       ON        000R$  000000000001300000000000150000000000013000000000001300000000000150000000000000000000000001200003000000000000006100000000000000079500000000000060002013081900000010000000000000BRCSNAACNOR6242
012013080182CSNAT64     080CSNAE FM    ON        000R$  000000000002700000000000270000000000027000000000002700000000000270000000000000000000000003000001000000000000000100000000000000002700000000000064002013081900000010000000000000BRCSNAACNOR6242
012013080182CSNAT66     080CSNAE FM    ON        000R$  000000000004000000000000400000000000034000000000003600000000000340000000000000000000000000000003000000000000006500000000000000234000000000000066002013081900000010000000000000BRCSNAACNOR6242
012013080182CSNAT68     080CSNAE FM    ON        000R$  000000000004500000000000450000000000043000000000004400000000000430000000000000000000000000000002000000000000004000000000000000176000000000000068002013081900000010000000000000BRCSNAACNOR6242
012013080182CSNAT7      080CSNAE FM    ON        000R$  000000000006000000000000630000000000053000000000005800000000000530000000000025000000000006000011000000000000021300000000000001252900000000000070002013081900000010000000000000BRCSNAACNOR6242
012013080182CSNAU64     080CSNAE FM    ON        000R$  000000000003600000000000390000000000036000000000003700000000000390000000000000000000000000000002000000000000004000000000000000150000000000000064002013091600000010000000000000BRCSNAACNOR6242
012013080182CSNAU66     080CSNAE FM    ON        000R$  000000000005100000000000510000000000051000000000005100000000000510000000000000000000000000000001000000000000002000000000000000102000000000000066002013091600000010000000000000BRCSNAACNOR6242
012013080182CSNAU68     080CSNAE FM    ON        000R$  000000000006300000000000630000000000057000000000005900000000000600000000000000000000000000000003000000000000007500000000000000445500000000000068002013091600000010000000000000BRCSNAACNOR6242
012013080182CSNAU7      080CSNAE FM    ON        000R$  000000000007700000000000770000000000068000000000007200000000000730000000000036000000000000000008000000000000013600000000000000986600000000000070002013091600000010000000000000BRCSNAACNOR6242
