00COTAHIST.2013BOVESPA 20130722                                                                                                                                                                                                                      
012013072202AAPL11B     010APPLE       DRN     MB   R$  000000000956000000000095600000000009560000000000956000000000095600000000009465000000000957000002000000000000002000000000000019120000000000000000009999123100000010000000000000BRAAPLBDR004104
012013072210ABCB2       010ABC BRASIL  DIR PRE N2   R$  000000000011600000000001500000000000116000000000011700000000001500000000000000000000000000000171000000000000051100000000000006006700000000000000009999123100000010000000000000BRABCBD03PR5119
012013072296ABCB2F      020ABC BRASIL  DIR PRE N2   R$  000000000009000000000000900000000000090000000000009000000000000900000000000090000000000011000001000000000000000033000000000000002970000000000000009999123100000010000000000000BRABCBD03PR5119
012013072202ABCB4       010ABC BRASIL  PN      N2   R$  000000000122400000000012570000000001191000000000121900000000012500000000001250000000000125800674000000000000229500000000000279792600000000000000009999123100000010000000000000BRABCBACNPR4120
012013072296ABCB4F      020ABC BRASIL  PN      N2   R$  000000000120800000000012500000000001194000000000123300000000011950000000001195000000000125000014000000000000000160000000000000197305000000000000009999123100000010000000000000BRABCBACNPR4120
012013072212ABCP11      010FII ABC IMOBCI           R$  000000000090000000000009300000000000900000000000090100000000009300000000000900000000000093000003000000000000000698000000000000629040000000000000009999123100000010000000000000BRABCPCTF000213
012013072202ABRE11      010ABRIL EDUCA UNT     N2   R$  000000000385200000000038590000000003790000000000383900000000037900000000003779000000000379000519000000000000175700000000000674584900000000000000009999123100000010000000000000BRABRECDAM15102
012013072296ABRE11F     020ABRIL EDUCA UNT     N2   R$  000000000383400000000038340000000003810000000000382200000000038100000000003810000000000384800005000000000000000126000000000000481652000000000000009999123100000010000000000000BRABRECDAM15102
012013072262ABRE11T     030ABRIL EDUCA UNT     N2030R$  000000000386000000000038640000000003860000000000386300000000038640000000000000000000000000000004000000000000010000000000000038630184000000000000009999123100000010000000000000BRABRECDAM15102
012013072202AEDU3       010ANHANGUERA  ON      NM   R$  000000000129400000000013100000000001284000000000130000000000013100000000001310000000000131204368000000000001748500000000002273912800000000000000009999123100000010000000000000BRAEDUACNOR9107
012013072296AEDU3F      020ANHANGUERA  ON      NM   R$  000000000128700000000013050000000001287000000000129700000000013000000000001286000000000130500009000000000000000313000000000000406539000000000000009999123100000010000000000000BRAEDUACNOR9107
012013072212AEFI11      010FII AESAPAR CI           R$  000000001225100000000123250000000012189000000001225500000000123250000000012325000000001238500015000000000000000575000000000007047069000000000000009999123100000010000000000000BRAEFICTF002119
012013072212AGCX11      010FII AG CAIXACI           R$  000000010050000000001005000000000100000000000010003800000001000000000000100300000000010045000018000000000000000237000000000023709165000000000000009999123100000010000000000000BRAGCXCTF003108
012013072202AGEN11      010AGRENCO     DR3          R$  000000000005600000000000610000000000056000000000005800000000000610000000000060000000000006101366000000000014401900000000000840061700000000000000009999123100000010000000000000BRAGENBDR001100
012013072296AGEN11F     020AGRENCO     DR3          R$  000000000006000000000000600000000000059000000000005900000000000600000000000059000000000006100005000000000000000098000000000000005823000000000000009999123100000010000000000000BRAGENBDR001100
012013072202AGRO3       010BRASILAGRO  ON      NM   R$  000000000105000000000010620000000001020000000000103200000000010200000000001020000000000103000062000000000000009900000000000010219200000000000000009999123100000010000000000000BRAGROACNOR7102
012013072202ALLL3       010ALL AMER LATON      NM   R$  000000000086000000000008880000000000860000000000087700000000008850000000000882000000000088504873000000000002150200000000001887112900000000000000009999123100000010000000000000BRALLLACNOR6118
012013072296ALLL3F      020ALL AMER LATON      NM   R$  000000000086800000000008980000000000860000000000087600000000008850000000000885000000000088600045000000000000001198000000000001050379000000000000009999123100000010000000000000BRALLLACNOR6118
012013072212ALMI11B     010FII TORRE ALCI      MB   R$  000000031310000000003170000000000313100000000031504500000003150000000000315000000000031700000003000000000000000011000000000003465500000000000000009999123100000010000000000000BRALMICTF003203
012013072202ALPA3       010ALPARGATAS  ON      N1   R$  000000000104700000000010480000000001046000000000104700000000010480000000001047000000000107400005000000000000000700000000000000732900000000000000009999123100000010000000000000BRALPAACNOR0202
012013072296ALPA3F      020ALPARGATAS  ON      N1   R$  000000000120000000000012000000000001200000000000120000000000012000000000000992000000000110000001000000000000000008000000000000009600000000000000009999123100000010000000000000BRALPAACNOR0202
012013072202ALPA4       010ALPARGATAS  PN      N1   R$  000000000134900000000013520000000001334000000000134100000000013390000000001337000000000133900426000000000000207200000000000278022800000000000000009999123100000010000000000000BRALPAACNPR7202
012013072296ALPA4F      020ALPARGATAS  PN      N1   R$  000000000131000000000013550000000001310000000000134400000000013550000000001330000000000135500021000000000000000597000000000000802420000000000000009999123100000010000000000000BRALPAACNPR7202
012013072278ALPAH14     070ALPA        PN      N1000R$  000000000001300000000000130000000000013000000000001300000000000130000000000000000000000000000001000000000000002700000000000000035100000000000140002013081900000010000000000000BRALPAACNPR7202
012013072202ALSC3       010ALIANSCE    ON      NM   R$  000000000204400000000020700000000002010000000000203200000000020580000000002039000000000205801605000000000000302000000000000613814300000000000000009999123100000010000000000000BRALSCACNOR0104
012013072296ALSC3F      020ALIANSCE    ON      NM   R$  000000000203400000000020340000000002008000000000203000000000020340000000001855000000000211700004000000000000000096000000000000194928000000000000009999123100000010000000000000BRALSCACNOR0104
012013072202ALUP11      010ALUPAR      UNT     N2   R$  000000000175600000000017900000000001746000000000177400000000017800000000001757000000000178000222000000000000156500000000000277641200000000000000009999123100000010000000000000BRALUPCDAM15100
012013072296ALUP11F     020ALUPAR      UNT     N2   R$  000000000176500000000018500000000001730000000000178300000000017910000000001655000000000190000017000000000000000504000000000000898806000000000000009999123100000010000000000000BRALUPCDAM15100
012013072202AMAR3       010LOJAS MARISAON      NM   R$  000000000218700000000022100000000002141000000000218700000000022100000000002189000000000221000701000000000000181400000000000396825600000000000000009999123100000010000000000000BRAMARACNOR4109
012013072296AMAR3F      020LOJAS MARISAON      NM   R$  000000000217400000000022100000000002125000000000217800000000022100000000002204000000000235000015000000000000000371000000000000808352000000000000009999123100000010000000000000BRAMARACNOR4109
012013072262AMAR3T      030LOJAS MARISAON      NM030R$  000000000219100000000021920000000002191000000000219100000000021920000000000000000000000000000002000000000000003000000000000006574176000000000000009999123100000010000000000000BRAMARACNOR4109
012013072262AMAR3T      030LOJAS MARISAON      NM120R$  000000000222600000000022270000000002226000000000222600000000022270000000000000000000000000000002000000000000000700000000000001558494000000000000009999123100000010000000000000BRAMARACNOR4109
012013072202AMBV3       010AMBEV       ON           R$  000000000802000000000081700000000008008000000000809100000000081200000000008120000000000813801442000000000000198200000000001603755900000000000000009999123100000010000000000000BRAMBVACNOR4153
012013072296AMBV3F      020AMBEV       ON           R$  000000000802900000000081670000000008001000000000806900000000081670000000008050000000000816700023000000000000000561000000000004528094000000000000009999123100000010000000000000BRAMBVACNOR4153
012013072202AMBV4       010AMBEV       PN           R$  000000000803000000000082100000000008028000000000814800000000081710000000008171000000000820005063000000000001515900000000012353100000000000000000009999123100000010000000000000BRAMBVACNPR1153
012013072296AMBV4F      020AMBEV       PN           R$  000000000818900000000082250000000008028000000000812900000000082010000000008200000000000820100161000000000000003659000000000029752699000000000000009999123100000010000000000000BRAMBVACNPR1153
012013072278AMBVH84     070AMBV        PN        000R$  000000000008000000000001010000000000080000000000009500000000001010000000000065000000000015000013000000000000003200000000000000304300000000000840002013081900000010000000000000BRAMBVACNPR1153
012013072278AMBVH85     070AMBV        PN        000R$  000000000005000000000000870000000000050000000000007300000000000870000000000000000000000014000004000000000000000800000000000000058600000000000850002013081900000010000000000000BRAMBVACNPR1153
012013072278AMBVH86     070AMBV        PN        000R$  000000000005000000000000500000000000048000000000004900000000000500000000000000000000000000000004000000000000001000000000000000049600000000000860002013081900000010000000000000BRAMBVACNPR1153
012013072202ARTR3       010ARTERIS     ON      NM   R$  000000000201300000000020660000000002008000000000202800000000020550000000002053000000000205502486000000000003203700000000006498417900000000000000009999123100000010000000000000BRARTRACNOR3101
012013072296ARTR3F      020ARTERIS     ON      NM   R$  000000000201100000000020600000000002000000000000203500000000020500000000002036000000000210600033000000000000000702000000000001428716000000000000009999123100000010000000000000BRARTRACNOR3101
012013072202ARZZ3       010AREZZO CO   ON      NM   R$  000000000355400000000036000000000003540000000000355900000000035520000000003552000000000356900330000000000000087800000000000312534200000000000000009999123100000010000000000000BRARZZACNOR3108
012013072296ARZZ3F      020AREZZO CO   ON      NM   R$  000000000355000000000035540000000003500000000000353400000000035540000000003400000000000355000005000000000000000167000000000000590304000000000000009999123100000010000000000000BRARZZACNOR3108
012013072202AUTM3       010AUTOMETAL   ON      NM   R$  000000000180000000000018010000000001776000000000179600000000018000000000001792000000000180000157000000000000049400000000000088750700000000000000009999123100000010000000000000BRAUTMACNOR8109
012013072296AUTM3F      020AUTOMETAL   ON      NM   R$  000000000179000000000017900000000001790000000000179000000000017900000000001501000000000181000001000000000000000006000000000000010740000000000000009999123100000010000000000000BRAUTMACNOR8109
012013072296AZEV4F      020AZEVEDO     PN           R$  000000000017500000000001750000000000175000000000017500000000001750000000000130000000000017500002000000000000000080000000000000014000000000000000009999123100000010000000000000BRAZEVACNPR7113
012013072202BAHI3       010BAHEMA      ON           R$  000000000052000000000005200000000000520000000000052000000000005200000000000500000000000051800001000000000000000200000000000000104000000000000000009999123100000010000000000000BRBAHIACNOR1066
012013072296BALM4F      020BAUMER      PN           R$  000000000750000000000075000000000007500000000000750000000000075000000000007500000000000000000001000000000000000050000000000000375000000000000000009999123100000010000000000000BRBALMACNPR2043
012013072202BAZA3       010AMAZONIA    ON           R$  000000000003400000000000350000000000034000000000003400000000000340000000000034000000000003500005000000000000014000000000000000479000000000000000009999123100000010000000000000BRBAZAACNOR0163
012013072296BAZA3F      020AMAZONIA    ON           R$  000000000003500000000000350000000000035000000000003500000000000350000000000031000000000003500002000000000000000077000000000000002695000000000000009999123100000010000000000000BRBAZAACNOR0163
012013072202BBAS3       010BRASIL      ON      NM   R$  000000000223600000000023050000000002225000000000226600000000022760000000002276000000000227810243000000000003876600000000008786328800000000000000009999123100000010000000000000BRBBASACNOR3237
012013072296BBAS3F      020BRASIL      ON      NM   R$  000000000221600000000023040000000002216000000000226900000000022500000000002250000000000228000229000000000000006434000000000014599178000000000000009999123100000010000000000000BRBBASACNOR3237
012013072262BBAS3T      030BRASIL      ON      NM030R$  000000000225000000000022510000000002250000000000225000000000022510000000000000000000000000000002000000000000000600000000000001350589000000000000009999123100000010000000000000BRBBASACNOR3237
012013072262BBAS3T      030BRASIL      ON      NM031R$  000000000225800000000022590000000002258000000000225800000000022590000000000000000000000000000004000000000000003000000000000006775772000000000000009999123100000010000000000000BRBBASACNOR3237
012013072262BBAS3T      030BRASIL      ON      NM039R$  000000000229500000000022960000000002295000000000229500000000022960000000000000000000000000000002000000000000005600000000000012855212000000000000009999123100000010000000000000BRBBASACNOR3237
012013072262BBAS3T      030BRASIL      ON      NM091R$  000000000228400000000022850000000002281000000000228400000000022820000000000000000000000000000004000000000000005800000000000013248811000000000000009999123100000010000000000000BRBBASACNOR3237
012013072278BBASB26     070BBAS        ON      NM000R$  000000000010000000000001000000000000100000000000010000000000001000000000000000000000000000000001000000000000000500000000000000050000000000000260002014021700000010000000000000BRBBASACNOR3237
012013072278BBASH20     070BBAS        ON      NM000R$  000000000028000000000003220000000000280000000000030100000000003220000000000184000000000000000008000000000000009300000000000002807800000000000200002013081900000010000000000000BRBBASACNOR3237
012013072278BBASH21     070BBAS  FM    ON      NM000R$  000000000020300000000002510000000000188000000000021100000000002320000000000080000000000039900122000000000000208600000000000044077300000000000207602013081900000010000000000000BRBBASACNOR3236
012013072278BBASH22     070BBAS  FM    ON      NM000R$  000000000011700000000001700000000000111000000000014200000000001510000000000115000000000000000151000000000000228800000000000032561900000000000217602013081900000010000000000000BRBBASACNOR3236
012013072278BBASH23     070BBAS  FM    ON      NM000R$  000000000006200000000000960000000000055000000000007600000000000820000000000075000000000008200100000000000000120600000000000009172600000000000227602013081900000010000000000000BRBBASACNOR3236
012013072278BBASH24     070BBAS  FM    ON      NM000R$  000000000004400000000000730000000000041000000000005200000000000610000000000059000000000007500257000000000000377700000000000019854000000000000231702013081900000010000000000000BRBBASACNOR3233
012013072278BBASH25     070BBAS  FM    ON      NM000R$  000000000001600000000000320000000000015000000000002400000000000300000000000020000000000002700077000000000000065000000000000001589100000000000241702013081900000010000000000000BRBBASACNOR3233
012013072278BBASH26     070BBAS        ON      NM000R$  000000000000600000000000090000000000006000000000000700000000000090000000000004000000000001000005000000000000022400000000000000175000000000000256602013081900000010000000000000BRBBASACNOR3235
012013072278BBASH28     070BBAS        ON      NM000R$  000000000000200000000000020000000000002000000000000200000000000020000000000001000000000000400002000000000000008000000000000000016000000000000276602013081900000010000000000000BRBBASACNOR3235
012013072278BBASI21     070BBAS  FM    ON      NM000R$  000000000021300000000002550000000000199000000000021600000000002380000000000000000000000000000058000000000000095600000000000020708000000000000210002013091600000010000000000000BRBBASACNOR3237
012013072278BBASI22     070BBAS  FM    ON      NM000R$  000000000015700000000001860000000000146000000000016200000000001810000000000121000000000020100044000000000000077400000000000012605700000000000217602013091600000010000000000000BRBBASACNOR3236
012013072278BBASI23     070BBAS  FM    ON      NM000R$  000000000009300000000001300000000000090000000000010600000000001170000000000045000000000011700015000000000000024400000000000002598900000000000227602013091600000010000000000000BRBBASACNOR3236
012013072278BBASI24     070BBAS  FM    ON      NM000R$  000000000005000000000000760000000000050000000000006500000000000690000000000045000000000007900013000000000000018800000000000001229300000000000237602013091600000010000000000000BRBBASACNOR3236
012013072278BBASI25     070BBAS  FM    ON      NM000R$  000000000003000000000000460000000000030000000000004100000000000400000000000029000000000000000021000000000000049700000000000002052400000000000246602013091600000010000000000000BRBBASACNOR3235
012013072278BBASI26     070BBAS        ON      NM000R$  000000000002100000000000260000000000019000000000002200000000000240000000000019000000000012400056000000000000108700000000000002456000000000000256602013091600000010000000000000BRBBASACNOR3235
012013072278BBASI28     070BBAS        ON      NM000R$  000000000000600000000000100000000000006000000000000600000000000100000000000002000000000001000002000000000000007500000000000000051000000000000276602013091600000010000000000000BRBBASACNOR3235
012013072278BBASI51     070BBAS        ON      NM000R$  000000000026500000000002650000000000265000000000026500000000002650000000000000000000000000000001000000000000002000000000000000530000000000000205002013091600000010000000000000BRBBASACNOR3237
012013072278BBASI52     070BBAS        ON      NM000R$  000000000012200000000001220000000000122000000000012200000000001220000000000000000000000000000001000000000000004000000000000000488000000000000225002013091600000010000000000000BRBBASACNOR3237
012013072278BBASI61     070BBASE       ON      NM000R$  000000000013400000000001370000000000134000000000013500000000001370000000000000000000000000000002000000000000008000000000000001084000000000000222502013091600000010000000000000BRBBASACNOR3237
012013072278BBASJ24     070BBAS        ON      NM000R$  000000000011200000000001120000000000112000000000011200000000001120000000000000000000000000000001000000000000001000000000000000112000000000000237602013102100000010000000000000BRBBASACNOR3236
012013072278BBASJ28     070BBAS        ON      NM000R$  000000000001200000000000150000000000012000000000001200000000000150000000000003000000000000000004000000000000014000000000000000180000000000000280002013102100000010000000000000BRBBASACNOR3237
012013072278BBASK21     070BBAS        ON      NM000R$  000000000029200000000002970000000000292000000000029500000000002970000000000000000000000000000002000000000000001400000000000000413800000000000207602013111800000010000000000000BRBBASACNOR3236
012013072282BBAST18     080BBASE       ON      NM000R$  000000000000300000000000030000000000003000000000000300000000000030000000000001000000000000000001000000000000000100000000000000000300000000000180002013081900000010000000000000BRBBASACNOR3237
012013072282BBAST20     080BBASE FM    ON      NM000R$  000000000001000000000000100000000000010000000000001000000000000100000000000002000000000000000001000000000000010000000000000000100000000000000200002013081900000010000000000000BRBBASACNOR3237
012013072282BBAST21     080BBASE FM    ON      NM000R$  000000000002000000000000210000000000014000000000001500000000000150000000000000000000000001900005000000000000037900000000000000587100000000000207602013081900000010000000000000BRBBASACNOR3236
012013072282BBAST22     080BBASE FM    ON      NM000R$  000000000004400000000000460000000000027000000000003500000000000270000000000025000000000003600081000000000000174900000000000006234100000000000217602013081900000010000000000000BRBBASACNOR3236
012013072282BBAST23     080BBASE FM    ON      NM000R$  000000000008100000000000900000000000055000000000007500000000000610000000000000000000000010000043000000000000093900000000000007119200000000000227602013081900000010000000000000BRBBASACNOR3236
012013072282BBAST24     080BBASE       ON      NM000R$  000000000011200000000001120000000000077000000000009800000000000780000000000000000000000000000008000000000000012900000000000001267000000000000231702013081900000010000000000000BRBBASACNOR3233
012013072282BBAST26     080BBASE       ON      NM000R$  000000000026600000000002660000000000266000000000026600000000002660000000000000000000000000000001000000000000000100000000000000026600000000000256602013081900000010000000000000BRBBASACNOR3235
012013072282BBASU20     080BBASE FM    ON      NM000R$  000000000002200000000000220000000000017000000000001900000000000170000000000000000000000000000002000000000000002100000000000000040200000000000200002013091600000010000000000000BRBBASACNOR3237
012013072282BBASU21     080BBASE FM    ON      NM000R$  000000000003700000000000370000000000031000000000003400000000000310000000000000000000000000000005000000000000007800000000000000269400000000000210002013091600000010000000000000BRBBASACNOR3237
012013072282BBASU22     080BBASE FM    ON      NM000R$  000000000006300000000000630000000000053000000000005600000000000530000000000000000000000000000004000000000000008800000000000000498200000000000217602013091600000010000000000000BRBBASACNOR3236
012013072282BBASU23     080BBASE FM    ON      NM000R$  000000000011100000000001110000000000079000000000009800000000000790000000000000000000000000000018000000000000034700000000000003412000000000000227602013091600000010000000000000BRBBASACNOR3236
012013072282BBASU26     080BBASE       ON      NM000R$  000000000026500000000002650000000000265000000000026500000000002650000000000000000000000000000001000000000000000100000000000000026500000000000256602013091600000010000000000000BRBBASACNOR3235
012013072282BBASV20     080BBASE       ON      NM000R$  000000000004000000000000400000000000040000000000004000000000000400000000000000000000000012000001000000000000003000000000000000120000000000000200002013102100000010000000000000BRBBASACNOR3237
012013072282BBASV21     080BBASE       ON      NM000R$  000000000006000000000000600000000000060000000000006000000000000600000000000000000000000000000001000000000000000700000000000000042000000000000210002013102100000010000000000000BRBBASACNOR3237
012013072282BBASV23     080BBASE       ON      NM000R$  000000000010200000000001020000000000097000000000009900000000000970000000000000000000000000000002000000000000002400000000000000238800000000000226602013102100000010000000000000BRBBASACNOR3235
012013072282BBASV53     080BBASE       ON      NM000R$  000000000011800000000001180000000000118000000000011800000000001180000000000000000000000000000001000000000000001200000000000000141600000000000231602013102100000010000000000000BRBBASACNOR3235
012013072202BBDC3       010BRADESCO    ON      N1   R$  000000000308600000000032650000000003036000000000315700000000032120000000003212000000000322606026000000000004886700000000015428961000000000000000009999123100000010000000000000BRBBDCACNOR1604
012013072296BBDC3F      020BRADESCO    ON      N1   R$  000000000306100000000032590000000003050000000000317900000000032260000000003106000000000322000053000000000000001710000000000005438925000000000000009999123100000010000000000000BRBBDCACNOR1604
012013072202BBDC4       010BRADESCO    PN      N1   R$  000000000276300000000029180000000002731000000000283100000000028790000000002879000000000288130313000000000016755500000000047447218400000000000000009999123100000010000000000000BRBBDCACNPR8604
012013072296BBDC4F      020BRADESCO    PN      N1   R$  000000000281700000000029150000000002732000000000283900000000028810000000002863000000000288100304000000000000008854000000000025153852000000000000009999123100000010000000000000BRBBDCACNPR8604
012013072262BBDC4T      030BRADESCO    PN      N1030R$  000000000289700000000029020000000002897000000000289800000000029020000000000000000000000000000004000000000000001200000000000003477890000000000000009999123100000010000000000000BRBBDCACNPR8604
012013072262BBDC4T      030BRADESCO    PN      N1060R$  000000000279300000000027940000000002793000000000279300000000027940000000000000000000000000000002000000000000000100000000000000279348000000000000009999123100000010000000000000BRBBDCACNPR8604
012013072262BBDC4T      030BRADESCO    PN      N1360R$  000000000318100000000031820000000003181000000000318100000000031820000000000000000000000000000002000000000000001500000000000004771950000000000000009999123100000010000000000000BRBBDCACNPR8604
012013072278BBDCC6      070BBDC        PN      N1000R$  000000000010500000000001250000000000105000000000011400000000001250000000000000000000000000000004000000000000002200000000000000251300000000000324702014031700000010000000000000BRBBDCACNPR8598
012013072278BBDCC61     070BBDC        PN      N1000R$  000000000030900000000003090000000000309000000000030900000000003090000000000000000000000000000001000000000000001200000000000000370800000000000279202014031700000010000000000000BRBBDCACNPR8597
012013072278BBDCH25     070BBDC        PN      N1000R$  000000000029800000000004300000000000298000000000036400000000004300000000000000000000000000000002000000000000002000000000000000728000000000000248002013081900000010000000000000BRBBDCACNPR8602
012013072278BBDCH26     070BBDC        PN      N1000R$  000000000022300000000003580000000000200000000000026100000000003200000000000000000000000000000051000000000000060600000000000015836600000000000258002013081900000010000000000000BRBBDCACNPR8602
012013072278BBDCH27     070BBDC        PN      N1000R$  000000000013900000000002640000000000127000000000019100000000002380000000000182000000000000000367000000000000404800000000000077348600000000000268002013081900000010000000000000BRBBDCACNPR8602
012013072278BBDCH28     070BBDC        PN      N1000R$  000000000009000000000001860000000000074000000000013500000000001610000000000100000000000000000298000000000000286700000000000038745700000000000278002013081900000010000000000000BRBBDCACNPR8602
012013072278BBDCH29     070BBDC        PN      N1000R$  000000000005400000000001150000000000037000000000007800000000001140000000000095000000000011400718000000000000958900000000000075124800000000000288002013081900000010000000000000BRBBDCACNPR8602
012013072278BBDCH30     070BBDC        PN      N1000R$  000000000002300000000000620000000000017000000000003700000000000470000000000025000000000006000256000000000000332700000000000012420600000000000298002013081900000010000000000000BRBBDCACNPR8602
012013072278BBDCH31     070BBDC        PN      N1000R$  000000000001000000000000310000000000009000000000001900000000000210000000000012000000000004500090000000000000139100000000000002696400000000000307602013081900000010000000000000BRBBDCACNPR8600
012013072278BBDCH32     070BBDC        PN      N1000R$  000000000000500000000000120000000000005000000000001000000000000120000000000005000000000001300042000000000000051600000000000000532400000000000318002013081900000010000000000000BRBBDCACNPR8602
012013072278BBDCH34     070BBDC        PN      N1000R$  000000000001500000000000350000000000015000000000002700000000000350000000000010000000000003800069000000000000045400000000000001250900000000000305502013081900000010000000000000BRBBDCACNPR8595
012013072278BBDCH36     070BBDC        PN      N1000R$  000000000000100000000000010000000000001000000000000100000000000010000000000000000000000008000001000000000000000200000000000000000200000000000357602013081900000010000000000000BRBBDCACNPR8600
012013072278BBDCI26     070BBDC        PN      N1000R$  000000000022700000000003650000000000225000000000026300000000003330000000000225000000000000000056000000000000092500000000000024400800000000000260002013091600000010000000000000BRBBDCACNPR8604
012013072278BBDCI27     070BBDC        PN      N1000R$  000000000018400000000002970000000000172000000000022700000000002720000000000000000000000000000173000000000000277100000000000062993800000000000268002013091600000010000000000000BRBBDCACNPR8602
012013072278BBDCI28     070BBDC        PN      N1000R$  000000000012500000000002180000000000115000000000016600000000001990000000000140000000000000000084000000000000131800000000000022006300000000000278002013091600000010000000000000BRBBDCACNPR8602
012013072278BBDCI29     070BBDC        PN      N1000R$  000000000007200000000001490000000000072000000000011100000000001360000000000110000000000000000057000000000000094500000000000010514500000000000288002013091600000010000000000000BRBBDCACNPR8602
012013072278BBDCI30     070BBDC        PN      N1000R$  000000000005600000000000970000000000042000000000006500000000000830000000000067000000000000000056000000000000092000000000000006043000000000000298002013091600000010000000000000BRBBDCACNPR8602
012013072278BBDCI32     070BBDC        PN      N1000R$  000000000002300000000000340000000000023000000000002600000000000340000000000010000000000000000010000000000000019500000000000000520100000000000318002013091600000010000000000000BRBBDCACNPR8602
012013072278BBDCI33     070BBDC        PN      N1000R$  000000000007400000000000780000000000074000000000007600000000000780000000000000000000000000000004000000000000011200000000000000857600000000000297402013091600000010000000000000BRBBDCACNPR8598
012013072278BBDCI75     070BBDCE       PN      N1000R$  000000000009400000000001540000000000094000000000014700000000001540000000000000000000000000000009000000000000013200000000000001944300000000000282502013091600000010000000000000BRBBDCACNPR8604
012013072278BBDCI81     070BBDC        PN      N1000R$  000000000002300000000000590000000000023000000000004600000000000470000000000000000000000000000067000000000000114000000000000005304800000000000308002013091600000010000000000000BRBBDCACNPR8602
012013072278BBDCJ1      070BBDC        PN      N1000R$  000000000004000000000000400000000000040000000000004000000000000400000000000000000000000000000001000000000000000600000000000000024000000000000314802013102100000010000000000000BRBBDCACNPR8603
012013072278BBDCJ29     070BBDC        PN      N1000R$  000000000014900000000001490000000000149000000000014900000000001490000000000000000000000000000001000000000000002000000000000000298000000000000288002013102100000010000000000000BRBBDCACNPR8602
012013072278BBDCJ30     070BBDC        PN      N1000R$  000000000008100000000001340000000000081000000000011200000000001340000000000000000000000000000003000000000000001900000000000000213200000000000298002013102100000010000000000000BRBBDCACNPR8602
012013072278BBDCJ31     070BBDC        PN      N1000R$  000000000005400000000000860000000000054000000000007500000000000860000000000010000000000000000002000000000000001800000000000000135600000000000308002013102100000010000000000000BRBBDCACNPR8602
012013072278BBDCJ32     070BBDC        PN      N1000R$  000000000003400000000000340000000000034000000000003400000000000340000000000000000000000000000001000000000000000600000000000000020400000000000318002013102100000010000000000000BRBBDCACNPR8602
012013072278BBDCJ34     070BBDC        PN      N1000R$  000000000002700000000000280000000000027000000000002700000000000280000000000000000000000000000003000000000000005900000000000000162300000000000337602013102100000010000000000000BRBBDCACNPR8600
012013072278BBDCL32     070BBDC        PN      N1000R$  000000000010200000000001020000000000102000000000010200000000001020000000000000000000000000000001000000000000001200000000000000122400000000000317602013121600000010000000000000BRBBDCACNPR8600
012013072282BBDCM29     080BBDCE       PN      N1000R$  000000000016000000000001600000000000160000000000016000000000001600000000000000000000000000000001000000000000001200000000000000192000000000000287802014012000000010000000000000BRBBDCACNPR8601
012013072282BBDCN32     080BBDCE       PN      N1000R$  000000000017200000000001810000000000172000000000017600000000001810000000000000000000000000000002000000000000002400000000000000423600000000000288302014021700000010000000000000BRBBDCACNPR8598
012013072282BBDCO2      080BBDCE       PN      N1000R$  000000000020500000000002050000000000205000000000020500000000002050000000000000000000000000000001000000000000001200000000000000246000000000000294902014031700000010000000000000BRBBDCACNPR8604
012013072282BBDCO61     080BBDCE       PN      N1000R$  000000000014700000000001470000000000147000000000014700000000001470000000000000000000000000000001000000000000001200000000000000176400000000000279202014031700000010000000000000BRBBDCACNPR8598
012013072282BBDCT23     080BBDCE       PN      N1000R$  000000000000300000000000030000000000003000000000000300000000000030000000000000000000000006500001000000000000000100000000000000000300000000000229802013081900000010000000000000BRBBDCACNPR8603
012013072282BBDCT25     080BBDCE       PN      N1000R$  000000000001900000000000190000000000019000000000001900000000000190000000000000000000000000000001000000000000001000000000000000019000000000000248002013081900000010000000000000BRBBDCACNPR8602
012013072282BBDCT26     080BBDCE       PN      N1000R$  000000000003000000000000300000000000009000000000001300000000000090000000000000000000000000000050000000000000048800000000000000643600000000000258002013081900000010000000000000BRBBDCACNPR8602
012013072282BBDCT27     080BBDCE       PN      N1000R$  000000000005800000000000610000000000018000000000003700000000000210000000000017000000000002100078000000000000134300000000000005082300000000000268002013081900000010000000000000BRBBDCACNPR8602
012013072282BBDCT28     080BBDCE       PN      N1000R$  000000000009900000000001040000000000033000000000005300000000000420000000000000000000000000000064000000000000111200000000000005974200000000000278002013081900000010000000000000BRBBDCACNPR8602
012013072282BBDCT29     080BBDCE       PN      N1000R$  000000000016000000000001640000000000063000000000008900000000000730000000000065000000000013000192000000000000420700000000000037814400000000000288002013081900000010000000000000BRBBDCACNPR8602
012013072282BBDCT30     080BBDCE       PN      N1000R$  000000000015500000000001610000000000127000000000013100000000001270000000000000000000000000000004000000000000005300000000000000698200000000000298002013081900000010000000000000BRBBDCACNPR8602
012013072282BBDCU24     080BBDCE       PN      N1000R$  000000000000800000000000090000000000008000000000000800000000000090000000000000000000000000000004000000000000004800000000000000042000000000000240002013091600000010000000000000BRBBDCACNPR8604
012013072282BBDCU26     080BBDCE       PN      N1000R$  000000000006200000000000620000000000025000000000003400000000000250000000000000000000000006000171000000000000263000000000000009013900000000000260002013091600000010000000000000BRBBDCACNPR8604
012013072282BBDCU27     080BBDCE       PN      N1000R$  000000000008700000000000870000000000033000000000005700000000000410000000000000000000000000000052000000000000082200000000000004760600000000000268002013091600000010000000000000BRBBDCACNPR8602
012013072282BBDCU28     080BBDCE       PN      N1000R$  000000000012400000000001280000000000056000000000008600000000000580000000000000000000000000000032000000000000041700000000000003624000000000000278002013091600000010000000000000BRBBDCACNPR8602
012013072282BBDCU29     080BBDCE       PN      N1000R$  000000000018400000000001840000000000093000000000013100000000001020000000000000000000000000000048000000000000069500000000000009107000000000000288002013091600000010000000000000BRBBDCACNPR8602
012013072282BBDCU30     080BBDCE       PN      N1000R$  000000000015900000000001590000000000154000000000015600000000001540000000000000000000000000000003000000000000004100000000000000641900000000000298002013091600000010000000000000BRBBDCACNPR8602
012013072282BBDCU31     080BBDCE       PN      N1000R$  000000000005300000000000530000000000053000000000005300000000000530000000000000000000000000000001000000000000001200000000000000063600000000000273102013091600000010000000000000BRBBDCACNPR8590
012013072282BBDCU33     080BBDCE       PN      N1000R$  000000000023700000000002370000000000237000000000023700000000002370000000000000000000000000000001000000000000001000000000000000237000000000000297402013091600000010000000000000BRBBDCACNPR8598
012013072282BBDCU75     080BBDCE       PN      N1000R$  000000000014200000000001420000000000081000000000010800000000000810000000000000000000000000000002000000000000002200000000000000239200000000000282502013091600000010000000000000BRBBDCACNPR8604
012013072282BBDCV26     080BBDCE       PN      N1000R$  000000000004800000000000480000000000039000000000004300000000000390000000000000000000000000000004000000000000006500000000000000282000000000000260002013102100000010000000000000BRBBDCACNPR8604
012013072282BBDCV27     080BBDCE       PN      N1000R$  000000000006400000000000640000000000057000000000005900000000000570000000000000000000000000000004000000000000005900000000000000351600000000000268002013102100000010000000000000BRBBDCACNPR8602
012013072282BBDCV29     080BBDCE       PN      N1000R$  000000000012900000000001290000000000129000000000012900000000001290000000000000000000000000000001000000000000002300000000000000296700000000000288002013102100000010000000000000BRBBDCACNPR8602
012013072282BBDCV30     080BBDCE       PN      N1000R$  000000000025400000000002540000000000176000000000021600000000001760000000000000000000000000000002000000000000002700000000000000584400000000000298002013102100000010000000000000BRBBDCACNPR8602
012013072282BBDCX1      080BBDCE       PN      N1000R$  000000000024900000000002490000000000249000000000024900000000002490000000000000000000000000000001000000000000001200000000000000298800000000000307602013121600000010000000000000BRBBDCACNPR8600
012013072282BBDCX24     080BBDCE       PN      N1000R$  000000000003500000000000350000000000035000000000003500000000000350000000000000000000000000000002000000000000002400000000000000084000000000000240002013121600000010000000000000BRBBDCACNPR8604
012013072282BBDCX25     080BBDCE       PN      N1000R$  000000000005000000000000500000000000050000000000005000000000000500000000000000000000000000000001000000000000001200000000000000060000000000000250002013121600000010000000000000BRBBDCACNPR8604
012013072282BBDCX27     080BBDCE       PN      N1000R$  000000000009300000000000930000000000093000000000009300000000000930000000000000000000000000000001000000000000001200000000000000111600000000000270002013121600000010000000000000BRBBDCACNPR8604
012013072282BBDCX29     080BBDCE       PN      N1000R$  000000000015200000000001520000000000152000000000015200000000001520000000000000000000000000000001000000000000001200000000000000182400000000000288002013121600000010000000000000BRBBDCACNPR8602
012013072282BBDCX30     080BBDCE       PN      N1000R$  000000000009300000000000930000000000093000000000009300000000000930000000000000000000000000000001000000000000001200000000000000111600000000000269902013121600000010000000000000BRBBDCACNPR8597
012013072282BBDCX31     080BBDCE       PN      N1000R$  000000000012000000000001200000000000120000000000012000000000001200000000000000000000000000000001000000000000001200000000000000144000000000000279002013121600000010000000000000BRBBDCACNPR8597
012013072282BBDCX33     080BBDCE       PN      N1000R$  000000000019500000000001950000000000195000000000019500000000001950000000000000000000000000000001000000000000001200000000000000234000000000000297402013121600000010000000000000BRBBDCACNPR8598
012013072282BBDCX66     080BBDCE       PN      N1000R$  000000000006900000000000690000000000069000000000006900000000000690000000000000000000000000000001000000000000001200000000000000082800000000000260002013121600000010000000000000BRBBDCACNPR8604
012013072212BBFI11B     010FII BB PROGRCI      MB   R$  000000042400000000004242000000000422000000000042331400000004241000000000424100000000042414900009000000000000000021000000000008889599000000000000009999123100000010000000000000BRBBFICTF006196
012013072212BBPO11      010FII BB PRGIICI           R$  000000001095000000000111050000000010911000000001098500000000111050000000011100000000001110500276000000000000026687000000000293161401000000000000009999123100000010000000000000BRBBPOCTF003108
012013072212BBRC11      010FII BB CORP CI           R$  000000000951100000000096690000000009150000000000930700000000094000000000009400000000000961000032000000000000002097000000000019517395000000000000009999123100000010000000000000BRBBRCCTF004122
012013072202BBRK3       010BR BROKERS  ON      NM   R$  000000000057400000000005950000000000569000000000058100000000005890000000000587000000000058902103000000000001031600000000000600159300000000000000009999123100000010000000000000BRBBRKACNOR4108
012013072296BBRK3F      020BR BROKERS  ON      NM   R$  000000000058000000000005930000000000580000000000058800000000005930000000000559000000000060000003000000000000000094000000000000055328000000000000009999123100000010000000000000BRBBRKACNOR4108
012013072202BBSE3       010BBSEGURIDADEON      NM   R$  000000000179400000000018100000000001790000000000179800000000018000000000001797000000000180005427000000000002413200000000004341193300000000000000009999123100000010000000000000BRBBSEACNOR5100
012013072296BBSE3F      020BBSEGURIDADEON      NM   R$  000000000179000000000018090000000001788000000000179900000000018090000000001796000000000180900562000000000000016410000000000029530435000000000000009999123100000010000000000000BRBBSEACNOR5100
012013072278BBSEI19     070BBSE        ON      NM000R$  000000000003200000000000320000000000029000000000002900000000000290000000000000000000000000000004000000000000690000000000000020566100000000000190002013091600000010000000000000BRBBSEACNOR5100
012013072282BBSEU17     080BBSEE       ON      NM000R$  000000000002800000000000280000000000026000000000002600000000000260000000000000000000000000000003000000000000690000000000000018290000000000000170002013091600000010000000000000BRBBSEACNOR5100
012013072282BBSEU18     080BBSEE       ON      NM000R$  000000000006100000000000610000000000056000000000005700000000000560000000000000000000000000000003000000000000690000000000000039515000000000000180002013091600000010000000000000BRBBSEACNOR5100
012013072202BBTG11      010BTG PACTUAL UNT          R$  000000000291400000000029140000000002871000000000288800000000028850000000002875000000000288500276000000000000213100000000000615467700000000000000009999123100000010000000000000BRBBTGUNT007104
012013072296BBTG11F     020BTG PACTUAL UNT          R$  000000000290000000000029000000000002880000000000288200000000028800000000002875000000000288000011000000000000000199000000000000573518000000000000009999123100000010000000000000BRBBTGUNT007104
012013072212BBVJ11      010FII C JARDIMCI           R$  000000000800000000000081240000000007900000000000803500000000080610000000008000000000000806100022000000000000001094000000000008790775000000000000009999123100000010000000000000BRBBVJCTF001131
012013072212BCFF11B     010FII BC FFII CI      MB   R$  000000000965100000000099500000000009651000000000979500000000097950000000009795000000000984900087000000000000005455000000000053435284000000000000009999123100000010000000000000BRBCFFCTF000140
012013072202BEEF3       010MINERVA     ON      NM   R$  000000000094800000000009560000000000923000000000093500000000009350000000000935000000000093604030000000000003002900000000002808277200000000000000009999123100000010000000000000BRBEEFACNOR6104
012013072296BEEF3F      020MINERVA     ON      NM   R$  000000000094700000000009490000000000925000000000093600000000009250000000000915000000000099900017000000000000000451000000000000422414000000000000009999123100000010000000000000BRBEEFACNOR6104
012013072210BEES1       010BANESTES    DIR ORD      R$  000000000000100000000000010000000000001000000000000100000000000010000000000000000000000000100001000000000000000300000000000000000300000000000000009999123100000010000000000000BRBEESD03OR0241
012013072202BEES3       010BANESTES    ON  ES       R$  000000000004800000000000480000000000048000000000004800000000000480000000000047000000000004800007000000000000001900000000000000091200000000000000009999123100000010000000000000BRBEESACNOR9242
012013072202BEES4       010BANESTES    PN  ES       R$  000000000004500000000000450000000000045000000000004500000000000450000000000044000000000004500001000000000000000100000000000000004500000000000000009999123100000010000000000000BRBEESACNPR6167
012013072202BEMA3       010BEMATECH    ON      NM   R$  000000000070800000000007350000000000708000000000072400000000007250000000000725000000000073400260000000000000139000000000000100769700000000000000009999123100000010000000000000BRBEMAACNOR0113
012013072296BEMA3F      020BEMATECH    ON      NM   R$  000000000070900000000007300000000000709000000000071400000000007300000000000730000000000073900004000000000000000114000000000000081421000000000000009999123100000010000000000000BRBEMAACNOR0113
012013072202BGIP4       010BANESE      PN           R$  000000000499900000000050000000000004751000000000483300000000047510000000004750000000000489900012000000000000001400000000000006767000000000000000009999123100000010000000000000BRBGIPACNPR8178
012013072202BHGR3       010BHG         ON      NM   R$  000000000164600000000016950000000001626000000000166000000000016950000000001684000000000169500085000000000000151100000000000250946900000000000000009999123100000010000000000000BRBHGRACNOR9101
012013072296BHGR3F      020BHG         ON      NM   R$  000000000167000000000016700000000001670000000000167000000000016700000000001506000000000169900001000000000000000006000000000000010020000000000000009999123100000010000000000000BRBHGRACNOR9101
012013072202BICB4       010BICBANCO    PN      N1   R$  000000000038600000000004020000000000384000000000039600000000004000000000000398000000000040000321000000000000194600000000000077224200000000000000009999123100000010000000000000BRBICBACNPR7131
012013072296BICB4F      020BICBANCO    PN      N1   R$  000000000039400000000003940000000000390000000000039000000000003900000000000396000000000042800006000000000000000049000000000000019114000000000000009999123100000010000000000000BRBICBACNPR7131
012013072262BICB4T      030BICBANCO    PN      N1360R$  000000000042900000000004300000000000429000000000042900000000004300000000000000000000000000000002000000000000001000000000000000429826000000000000009999123100000010000000000000BRBICBACNPR7131
012013072296BIOM4F      020BIOMM       PN           R$  000000000085000000000008500000000000850000000000085000000000008500000000000850000000000090000001000000000000000450000000000000382500000000000000009999123100000010000000000000BRBIOMACNPR9101
012013072202BISA3       010BROOKFIELD  ON      NM   R$  000000000017200000000001800000000000171000000000017600000000001780000000000178000000000017904334000000000005377800000000000948189100000000000000009999123100000010000000000000BRBISAACNOR8109
012013072296BISA3F      020BROOKFIELD  ON      NM   R$  000000000017200000000001840000000000172000000000017600000000001750000000000174000000000017900017000000000000000548000000000000096557000000000000009999123100000010000000000000BRBISAACNOR8109
012013072262BISA3T      030BROOKFIELD  ON      NM030R$  000000000017600000000001810000000000176000000000017900000000001800000000000000000000000000000006000000000000154000000000000027660718000000000000009999123100000010000000000000BRBISAACNOR8109
012013072262BISA3T      030BROOKFIELD  ON      NM120R$  000000000018000000000001810000000000180000000000018000000000001810000000000000000000000000000004000000000000009000000000000001625712000000000000009999123100000010000000000000BRBISAACNOR8109
012013072212BJRC11      010FII JS RECIMCI           R$  000000008735500000000963980000000085600000000009348200000000963980000000092000000000009639800009000000000000000406000000000037953806000000000000009999123100000010000000000000BRBJRCCTF007108
012013072202BMEB4       010MERC BRASIL PN           R$  000000000113000000000011300000000001130000000000113000000000011300000000001020000000000113000009000000000000011700000000000013221000000000000000009999123100000010000000000000BRBMEBACNPR5190
012013072202BMIN4       010MERC INVEST PN           R$  000000000002300000000000230000000000023000000000002300000000000230000000000022000000000002300006000000000000006000000000000000138000000000000000009999123100000010000000000000BRBMINACNPR1159
012013072212BMLC11B     010FII BMBRC LCCI      MB   R$  000000001172000000000117200000000011700000000001171200000000117000000000011671000000001172000006000000000000000335000000000003923520000000000000009999123100000010000000000000BRBMLCCTF004117
012013072202BMTO4       010BRASMOTOR   PN           R$  000000000008700000000000870000000000087000000000008700000000000870000000000085000000000008700001000000000000001000000000000000087000000000000000009999123100000010000000000000BRBMTOACNPR6065
012013072202BOAC11B     010BANK AMERICADRN     MB   R$  000000000332000000000033200000000003320000000000332000000000033200000000003305000000000335500001000000000000001500000000000004980000000000000000009999123100000010000000000000BRBOACBDR004111
012013072202BOEI11B     010BOEING      DRN     MB   R$  000000002444600000000244460000000024446000000002444600000000244460000000023294000000002444600001000000000000000100000000000002444600000000000000009999123100000010000000000000BRBOEIBDR003105
012013072214BOVA11      010ISHARES BOVACI           R$  000000000465000000000047960000000004650000000000473900000000047730000000004773000000000477401778000000000001274410000000006040404240000000000000009999123100000010000000000000BRBOVACTF003101
012013072296BOVA11F     020ISHARES BOVACI           R$  000000000465400000000047760000000004654000000000470000000000047760000000004622000000000479900015000000000000000035000000000000164526000000000000009999123100000010000000000000BRBOVACTF003101
012013072212BPFF11      010FII ABSOLUTOCI           R$  000000000917900000000091790000000008951000000000909700000000090990000000008952000000000909900013000000000000000702000000000006386614000000000000009999123100000010000000000000BRBPFFCTF002103
012013072202BPHA3       010BR PHARMA   ON      NM   R$  000000000097000000000009800000000000921000000000095900000000009300000000000928000000000093002952000000000002648000000000002540228700000000000000009999123100000010000000000000BRBPHAACNOR6102
012013072296BPHA3F      020BR PHARMA   ON      NM   R$  000000000098000000000009800000000000929000000000093100000000009300000000000930000000000097900012000000000000000199000000000000185332000000000000009999123100000010000000000000BRBPHAACNOR6102
012013072262BPHA3T      030BR PHARMA   ON      NM030R$  000000000094700000000009480000000000947000000000094700000000009480000000000000000000000000000002000000000000020000000000000018942880000000000000009999123100000010000000000000BRBPHAACNOR6102
012013072202BPNM4       010PANAMERICANOPN      N1   R$  000000000054500000000005650000000000545000000000055500000000005650000000000558000000000056500276000000000000128800000000000071571000000000000000009999123100000010000000000000BRBPNMACNPR6111
012013072296BPNM4F      020PANAMERICANOPN      N1   R$  000000000053700000000005450000000000537000000000053900000000005450000000000540000000000055900003000000000000000132000000000000071252000000000000009999123100000010000000000000BRBPNMACNPR6111
012013072202BRAP3       010BRADESPAR   ON      N1   R$  000000000181000000000018500000000001799000000000183300000000018350000000001835000000000189900080000000000000063300000000000116058800000000000000009999123100000010000000000000BRBRAPACNOR5124
012013072202BRAP4       010BRADESPAR   PN      N1   R$  000000000215900000000022400000000002157000000000221400000000022320000000002232000000000223305996000000000001434900000000003177688800000000000000009999123100000010000000000000BRBRAPACNPR2124
012013072296BRAP4F      020BRADESPAR   PN      N1   R$  000000000216000000000022390000000002160000000000220900000000022250000000002225000000000224000049000000000000001398000000000003088273000000000000009999123100000010000000000000BRBRAPACNPR2124
012013072214BRAX11      010ISHARES BRAXCI           R$  000000000390800000000039080000000003875000000000389600000000038970000000003884000000000389900028000000000000093000000000000362403500000000000000009999123100000010000000000000BRBRAXCTF002100
012013072212BRCR11      010FII BC FUND CI           R$  000000001351000000000136300000000013340000000001348900000000133610000000013361000000001344900349000000000000044146000000000595523889000000000000009999123100000010000000000000BRBRCRCTF000131
012013072202BRFS3       010BRF SA      ON      NM   R$  000000000482000000000048700000000004792000000000482300000000048390000000004838000000000483905096000000000001821200000000008784119000000000000000009999123100000010000000000000BRBRFSACNOR8110
012013072296BRFS3F      020BRF SA      ON      NM   R$  000000000483900000000048700000000004799000000000482900000000047990000000004799000000000482800092000000000000002462000000000011890312000000000000009999123100000010000000000000BRBRFSACNOR8110
012013072262BRFS3T      030BRF SA      ON      NM090R$  000000000493000000000049380000000004930000000000493400000000049360000000000000000000000000000022000000000000052000000000000256618146000000000000009999123100000010000000000000BRBRFSACNOR8110
012013072262BRFS3T      030BRF SA      ON      NM091R$  000000000490900000000049440000000004902000000000491500000000049440000000000000000000000000000016000000000000348000000000001710719447000000000000009999123100000010000000000000BRBRFSACNOR8110
012013072278BRFSI51     070BRFS        ON      NM000R$  000000000009100000000000940000000000088000000000008900000000000880000000000000000000000014000004000000000000003200000000000000287900000000000510002013091600000010000000000000BRBRFSACNOR8110
012013072202BRGE11      010ALFA CONSORCPNE          R$  000000000035100000000003510000000000351000000000035100000000003510000000000351000000000000000001000000000000000100000000000000035100000000000000009999123100000010000000000000BRBRGEACNPE1090
012013072202BRGE5       010ALFA CONSORCPNA          R$  000000000033200000000003320000000000331000000000033100000000003310000000000310000000000039900002000000000000000200000000000000066300000000000000009999123100000010000000000000BRBRGEACNPA9196
012013072202BRIN3       010BR INSURANCEON      NM   R$  000000000208300000000021040000000002062000000000208300000000020970000000002096000000000209700895000000000000223600000000000465841400000000000000009999123100000010000000000000BRBRINACNOR3105
012013072296BRIN3F      020BR INSURANCEON      NM   R$  000000000209300000000021050000000001933000000000207700000000019330000000002055000000000208400010000000000000000297000000000000617134000000000000009999123100000010000000000000BRBRINACNOR3105
012013072296BRIV4F      020ALFA INVEST PN           R$  000000000052200000000005220000000000522000000000052200000000005220000000000522000000000060500001000000000000000030000000000000015660000000000000009999123100000010000000000000BRBRIVACNPR3196
012013072202BRKM3       010BRASKEM     ON      N1   R$  000000000117400000000012450000000001174000000000119700000000012390000000001135000000000124000021000000000000030100000000000036057800000000000000009999123100000010000000000000BRBRKMACNOR1110
012013072296BRKM3F      020BRASKEM     ON      N1   R$  000000000118000000000012000000000001180000000000118300000000012000000000001190000000000124500003000000000000000056000000000000066280000000000000009999123100000010000000000000BRBRKMACNOR1110
012013072262BRKM3T      030BRASKEM     ON      N1030R$  000000000120000000000012010000000001200000000000120000000000012010000000000000000000000000000002000000000000005800000000000006961357000000000000009999123100000010000000000000BRBRKMACNOR1110
012013072262BRKM3T      030BRASKEM     ON      N1060R$  000000000121200000000012130000000001212000000000121200000000012130000000000000000000000000000002000000000000020000000000000024241760000000000000009999123100000010000000000000BRBRKMACNOR1110
012013072202BRKM5       010BRASKEM     PNA     N1   R$  000000000170300000000017100000000001675000000000169200000000016980000000001698000000000169906558000000000001325200000000002243333800000000000000009999123100000010000000000000BRBRKMACNPA4110
012013072296BRKM5F      020BRASKEM     PNA     N1   R$  000000000172100000000017210000000001663000000000168800000000016810000000001680000000000169000028000000000000000838000000000001414687000000000000009999123100000010000000000000BRBRKMACNPA4110
012013072202BRML3       010BR MALLS PARON      NM   R$  000000000202100000000020850000000002021000000000206400000000020830000000002070000000000208308548000000000002666200000000005504285900000000000000009999123100000010000000000000BRBRMLACNOR9105
012013072296BRML3F      020BR MALLS PARON      NM   R$  000000000202000000000020740000000002020000000000205200000000020500000000002050000000000208400057000000000000001759000000000003611153000000000000009999123100000010000000000000BRBRMLACNOR9105
012013072262BRML3T      030BR MALLS PARON      NM016R$  000000000207100000000020720000000002071000000000207100000000020720000000000000000000000000000002000000000000003000000000000006215613000000000000009999123100000010000000000000BRBRMLACNOR9105
012013072262BRML3T      030BR MALLS PARON      NM030R$  000000000207400000000020750000000002074000000000207400000000020750000000000000000000000000000010000000000000005300000000000010996487000000000000009999123100000010000000000000BRBRMLACNOR9105
012013072262BRML3T      030BR MALLS PARON      NM091R$  000000000207100000000020720000000002071000000000207100000000020720000000000000000000000000000002000000000000008600000000000017815708000000000000009999123100000010000000000000BRBRMLACNOR9105
012013072202BRPR3       010BR PROPERT  ON      NM   R$  000000000196900000000019980000000001954000000000197400000000019600000000001960000000000197107042000000000001446000000000002855329800000000000000009999123100000010000000000000BRBRPRACNOR9112
012013072296BRPR3F      020BR PROPERT  ON      NM   R$  000000000199900000000019990000000001950000000000197000000000019510000000001950000000000198800042000000000000001434000000000002824483000000000000009999123100000010000000000000BRBRPRACNOR9112
012013072296BRSR3F      020BANRISUL    ON      N1   R$  000000000134900000000013490000000001349000000000134900000000013490000000001261000000000134900001000000000000000020000000000000026980000000000000009999123100000010000000000000BRBRSRACNOR3130
012013072202BRSR6       010BANRISUL    PNB     N1   R$  000000000143600000000014850000000001433000000000146900000000014780000000001478000000000148001853000000000000595200000000000874545700000000000000009999123100000010000000000000BRBRSRACNPB4133
012013072296BRSR6F      020BANRISUL    PNB     N1   R$  000000000147000000000014800000000001419000000000146500000000014750000000001466000000000151000043000000000000001296000000000001899210000000000000009999123100000010000000000000BRBRSRACNPB4133
012013072262BRSR6T      030BANRISUL    PNB     N1016R$  000000000148400000000014850000000001484000000000148400000000014850000000000000000000000000000002000000000000002400000000000003562453000000000000009999123100000010000000000000BRBRSRACNPB4133
012013072202BSEV3       010BIOSEV      ON      NM   R$  000000000123000000000012450000000001230000000000123700000000012300000000001230000000000129000006000000000000001000000000000001237600000000000000009999123100000010000000000000BRBSEVACNOR3100
012013072282BSEVS99     080BSEVE       ON      NM000R$  000000000030100000000003010000000000301000000000030100000000003010000000000000000000000031900001000000000000000500000000000000150500000000000165702014072100000010000000000000BRBSEVACNOR3100
012013072202BTOW3       010B2W DIGITAL ON      NM   R$  000000000106500000000011650000000001040000000000113700000000011650000000001155000000000116503237000000000001500500000000001707881900000000000000009999123100000010000000000000BRBTOWACNOR8105
012013072296BTOW3F      020B2W DIGITAL ON      NM   R$  000000000107900000000011670000000001051000000000113100000000011300000000001130000000000116700047000000000000001826000000000002066085000000000000009999123100000010000000000000BRBTOWACNOR8105
012013072202BTTL4       010BATTISTELLA PN           R$  000000000010100000000001020000000000101000000000010100000000001020000000000098000000000010300004000000000000024000000000000002445500000000000000009999123100000010000000000000BRBTTLACNPR7105
012013072202BVMF3       010BMFBOVESPA  ON      NM   R$  000000000123400000000012530000000001230000000000124200000000012400000000001240000000000124113337000000000005256300000000006530800600000000000000009999123100000010000000000000BRBVMFACNOR3125
012013072296BVMF3F      020BMFBOVESPA  ON      NM   R$  000000000123000000000012530000000001220000000000124200000000012200000000001220000000000124600155000000000000005175000000000006425903000000000000009999123100000010000000000000BRBVMFACNOR3125
012013072262BVMF3T      030BMFBOVESPA  ON      NM030R$  000000000125200000000012530000000001248000000000124900000000012490000000000000000000000000000008000000000000122950000000000153575567000000000000009999123100000010000000000000BRBVMFACNOR3125
012013072262BVMF3T      030BMFBOVESPA  ON      NM060R$  000000000125300000000012540000000001253000000000125300000000012540000000000000000000000000000002000000000000010000000000000012536995000000000000009999123100000010000000000000BRBVMFACNOR3125
012013072278BVMFH11     070BVMF        ON      NM000R$  000000000015500000000001650000000000155000000000016200000000001610000000000151000000000015700009000000000000006600000000000001069800000000000110002013081900000010000000000000BRBVMFACNOR3125
012013072278BVMFH12     070BVMF  FM    ON      NM000R$  000000000007800000000000850000000000076000000000007700000000000760000000000075000000000007600065000000000000167700000000000013070800000000000120002013081900000010000000000000BRBVMFACNOR3125
012013072278BVMFH13     070BVMF  FM    ON      NM000R$  000000000003400000000000340000000000028000000000003000000000000280000000000028000000000002900175000000000000282200000000000008677500000000000128902013081900000010000000000000BRBVMFACNOR3124
012013072278BVMFH14     070BVMF  FM    ON      NM000R$  000000000000600000000000070000000000004000000000000500000000000040000000000004000000000000600029000000000000139300000000000000834000000000000138902013081900000010000000000000BRBVMFACNOR3124
012013072278BVMFH42     070BVMF  FM    ON      NM000R$  000000000004900000000000500000000000047000000000004800000000000490000000000043000000000004600028000000000000069300000000000003368600000000000125002013081900000010000000000000BRBVMFACNOR3125
012013072278BVMFH43     070BVMF  FM    ON      NM000R$  000000000001200000000000120000000000010000000000001100000000000100000000000009000000000001100026000000000000065600000000000000727200000000000135002013081900000010000000000000BRBVMFACNOR3125
012013072278BVMFI11     070BVMF        ON      NM000R$  000000000017300000000001760000000000173000000000017500000000001760000000000152000000000017000002000000000000000700000000000000122900000000000110002013091600000010000000000000BRBVMFACNOR3125
012013072278BVMFI12     070BVMF  FM    ON      NM000R$  000000000010500000000001050000000000094000000000009900000000000990000000000091000000000009400017000000000000022000000000000002180600000000000120002013091600000010000000000000BRBVMFACNOR3125
012013072278BVMFI13     070BVMF  FM    ON      NM000R$  000000000004500000000000480000000000040000000000004400000000000410000000000039000000000004200036000000000000083700000000000003692000000000000130002013091600000010000000000000BRBVMFACNOR3125
012013072278BVMFI14     070BVMF  FM    ON      NM000R$  000000000001300000000000150000000000013000000000001400000000000140000000000011000000000001400009000000000000012500000000000000178300000000000140002013091600000010000000000000BRBVMFACNOR3125
012013072278BVMFI42     070BVMF  FM    ON      NM000R$  000000000007400000000000740000000000069000000000007000000000000700000000000000000000000006500006000000000000009300000000000000654800000000000125002013091600000010000000000000BRBVMFACNOR3125
012013072278BVMFI43     070BVMF  FM    ON      NM000R$  000000000002600000000000270000000000023000000000002500000000000260000000000022000000000002500005000000000000008900000000000000229100000000000135002013091600000010000000000000BRBVMFACNOR3125
012013072278BVMFJ13     070BVMF        ON      NM000R$  000000000006900000000000690000000000062000000000006400000000000640000000000059000000000000000023000000000000016500000000000001063900000000000130002013102100000010000000000000BRBVMFACNOR3125
012013072278BVMFK13     070BVMF        ON      NM000R$  000000000007600000000000760000000000076000000000007600000000000760000000000000000000000000000001000000000000000500000000000000038000000000000130002013111800000010000000000000BRBVMFACNOR3125
012013072278BVMFL1      070BVMFE       ON      NM000R$  000000000001200000000000120000000000012000000000001200000000000120000000000000000000000000000001000000000000500000000000000006000000000000000158902013121600000010000000000000BRBVMFACNOR3123
012013072278BVMFL14     070BVMF        ON      NM000R$  000000000005400000000000540000000000054000000000005400000000000540000000000000000000000000000001000000000000500000000000000027000000000000000138902013121600000010000000000000BRBVMFACNOR3124
012013072282BVMFT11     080BVMFE       ON      NM000R$  000000000001100000000000110000000000010000000000001000000000000100000000000010000000000001200003000000000000006600000000000000072000000000000110002013081900000010000000000000BRBVMFACNOR3125
012013072282BVMFT12     080BVMFE FM    ON      NM000R$  000000000003200000000000330000000000030000000000003000000000000300000000000031000000000003400008000000000000024700000000000000755700000000000120002013081900000010000000000000BRBVMFACNOR3125
012013072282BVMFT13     080BVMFE FM    ON      NM000R$  000000000006600000000000740000000000066000000000006900000000000670000000000072000000000007500020000000000000039500000000000002739300000000000128902013081900000010000000000000BRBVMFACNOR3124
012013072282BVMFT41     080BVMFE FM    ON      NM000R$  000000000001800000000000180000000000018000000000001800000000000180000000000000000000000005500003000000000000005400000000000000097200000000000115002013081900000010000000000000BRBVMFACNOR3125
012013072282BVMFT42     080BVMFE FM    ON      NM000R$  000000000005000000000000540000000000047000000000004900000000000470000000000051000000000005400009000000000000033800000000000001687100000000000125002013081900000010000000000000BRBVMFACNOR3125
012013072282BVMFT43     080BVMFE       ON      NM000R$  000000000011500000000001150000000000113000000000011400000000001130000000000000000000000015000002000000000000000200000000000000022800000000000135002013081900000010000000000000BRBVMFACNOR3125
012013072282BVMFT61     080BVMFE       ON      NM000R$  000000000002600000000000260000000000025000000000002500000000000250000000000024000000000002800002000000000000000700000000000000017800000000000117502013081900000010000000000000BRBVMFACNOR3125
012013072282BVMFT62     080BVMFE       ON      NM000R$  000000000004000000000000400000000000038000000000003800000000000380000000000040000000000027700004000000000000014500000000000000554900000000000122502013081900000010000000000000BRBVMFACNOR3125
012013072282BVMFU12     080BVMFE FM    ON      NM000R$  000000000004200000000000420000000000041000000000004100000000000410000000000042000000000004500002000000000000007500000000000000311500000000000120002013091600000010000000000000BRBVMFACNOR3125
012013072282BVMFU13     080BVMFE FM    ON      NM000R$  000000000008500000000000920000000000083000000000008500000000000850000000000088000000000009100007000000000000013300000000000001139400000000000130002013091600000010000000000000BRBVMFACNOR3125
012013072282BVMFU42     080BVMFE FM    ON      NM000R$  000000000006100000000000610000000000060000000000006000000000000600000000000062000000000006500002000000000000005600000000000000338100000000000125002013091600000010000000000000BRBVMFACNOR3125
012013072202CAMB4       010CAMBUCI     PN           R$  000000000019000000000001900000000000185000000000018700000000001850000000000185000000000019000003000000000000002000000000000000375000000000000000009999123100000010000000000000BRCAMBACNPR1117
012013072202CARD3       010CSU CARDSYSTON      NM   R$  000000000033000000000003300000000000326000000000032800000000003300000000000326000000000033100014000000000000014800000000000004860800000000000000009999123100000010000000000000BRCARDACNOR9105
012013072296CARD3F      020CSU CARDSYSTON      NM   R$  000000000032800000000003280000000000328000000000032800000000003280000000000289000000000033000001000000000000000040000000000000013120000000000000009999123100000010000000000000BRCARDACNOR9105
012013072202CBEE3       010AMPLA ENERG ON *         R$  000000000012200000000001220000000000121000000000012100000000001210000000000112000000000012200004000000000001500000000000000000182000000000000000009999123100010000000000000000BRCBEEACNOR3149
012013072296CBEE3F      020AMPLA ENERG ON *         R$  000000000012500000000001250000000000125000000000012500000000001250000000000090000000000014900001000000000000065000000000000000008125000000000000009999123100010000000000000000BRCBEEACNOR3149
012013072262CBEE3T      030AMPLA ENERG ON *      091R$  000000000012300000000001240000000000123000000000012300000000001240000000000000000000000000000002000000000001000000000000000000123359000000000000009999123100010000000000000000BRCBEEACNOR3149
012013072296CBMA3F      020COBRASMA    ON           R$  000000000000500000000000050000000000005000000000000500000000000050000000000004000000000000500001000000000000000001000000000000000005000000000000009999123100000010000000000000BRCBMAACNOR4124
012013072202CBMA4       010COBRASMA    PN           R$  000000000000400000000000040000000000004000000000000400000000000040000000000003000000000000400002000000000000020000000000000000080000000000000000009999123100000010000000000000BRCBMAACNPR1124
012013072208CCHI3       010CHIARELLI   ON           R$  000000000002800000000000280000000000027000000000002700000000000270000000000026000000000002700021000000000000330000000000000009010000000000000000009999123100000010000000000000BRCCHIACNOR5123
012013072296CCHI3F      020CHIARELLI   ON           R$  000000000002700000000000280000000000027000000000002700000000000280000000000025000000000002800007000000000000017949000000000000493572000000000000009999123100000010000000000000BRCCHIACNOR5123
012013072296CCHI4F      020CHIARELLI   PN           R$  000000000002100000000000210000000000021000000000002100000000000210000000000019000000000002300001000000000000004000000000000000084000000000000000009999123100000010000000000000BRCCHIACNPR2122
012013072202CCPR3       010CYRE COM-CCPON      NM   R$  000000000200200000000020250000000002001000000000200500000000020050000000002005000000000211900013000000000000002800000000000005615700000000000000009999123100000010000000000000BRCCPRACNOR9107
012013072296CCPR3F      020CYRE COM-CCPON      NM   R$  000000000198500000000019850000000001985000000000198500000000019850000000001901000000000202000001000000000000000001000000000000001985000000000000009999123100000010000000000000BRCCPRACNOR9107
012013072202CCRO3       010CCR SA      ON      NM   R$  000000000173300000000017480000000001704000000000172400000000017350000000001720000000000173610102000000000005114300000000008819118700000000000000009999123100000010000000000000BRCCROACNOR2122
012013072296CCRO3F      020CCR SA      ON      NM   R$  000000000172600000000017500000000001706000000000172500000000017110000000001711000000000173000059000000000000001827000000000003151481000000000000009999123100000010000000000000BRCCROACNOR2122
012013072262CCRO3T      030CCR SA      ON      NM060R$  000000000175500000000017560000000001746000000000175300000000017470000000000000000000000000000004000000000000004400000000000007715730000000000000009999123100000010000000000000BRCCROACNOR2122
012013072202CCXC3       010CCX CARVAO  ON      NM   R$  000000000009800000000001120000000000095000000000010400000000001010000000000100000000000010100888000000000004097900000000000426127100000000000000009999123100000010000000000000BRCCXCACNOR5100
012013072296CCXC3F      020CCX CARVAO  ON      NM   R$  000000000009400000000001090000000000094000000000010100000000001000000000000100000000000010900014000000000000000544000000000000055474000000000000009999123100000010000000000000BRCCXCACNOR5100
012013072212CEOC11B     010FII CEO CCP CI      MB   R$  000000000885000000000089000000000008850000000000889700000000089000000000008895000000000890000057000000000000004873000000000043359320000000000000009999123100000010000000000000BRCEOCCTF003108
012013072202CESP3       010CESP        ON      N1   R$  000000000163500000000016600000000001620000000000164900000000016600000000001635000000000167700010000000000000003700000000000006104200000000000000009999123100000010000000000000BRCESPACNOR3159
012013072296CESP3F      020CESP        ON      N1   R$  000000000163500000000016350000000001635000000000163500000000016350000000001635000000000200100001000000000000000025000000000000040875000000000000009999123100000010000000000000BRCESPACNOR3159
012013072202CESP6       010CESP        PNB     N1   R$  000000000203000000000020660000000002030000000000204400000000020560000000002056000000000205703081000000000000681100000000001392815100000000000000009999123100000010000000000000BRCESPACNPB4118
012013072296CESP6F      020CESP        PNB     N1   R$  000000000204200000000021000000000002003000000000204200000000020200000000002020000000000214500015000000000000000356000000000000726786000000000000009999123100000010000000000000BRCESPACNPB4118
012013072262CESP6T      030CESP        PNB     N1030R$  000000000204300000000020570000000002043000000000205000000000020570000000000000000000000000000004000000000000000800000000000001640279000000000000009999123100000010000000000000BRCESPACNPB4118
012013072282CESPU20     080CESPE       PNB     N1000R$  000000000011100000000001110000000000111000000000011100000000001110000000000000000000000000000002000000000000000200000000000000022200000000000200002013091600000010000000000000BRCESPACNPB4118
012013072202CGAS3       010COMGAS      ON           R$  000000000474900000000048000000000004749000000000476400000000048000000000004725000000000480000005000000000000002800000000000013339900000000000000009999123100000010000000000000BRCGASACNOR0132
012013072202CGAS5       010COMGAS      PNA          R$  000000000520000000000054000000000005200000000000529500000000054000000000005300000000000540000166000000000000129300000000000684696600000000000000009999123100000010000000000000BRCGASACNPA3129
012013072296CGAS5F      020COMGAS      PNA          R$  000000000525800000000053450000000005258000000000530400000000053450000000005271000000000534000009000000000000000264000000000001400420000000000000009999123100000010000000000000BRCGASACNPA3129
012013072202CGRA3       010GRAZZIOTIN  ON           R$  000000000159700000000015970000000001597000000000159700000000015970000000001491000000000159900001000000000000000100000000000000159700000000000000009999123100000010000000000000BRCGRAACNOR2061
012013072296CGRA3F      020GRAZZIOTIN  ON           R$  000000000160000000000016000000000001600000000000160000000000016000000000001600000000000169900002000000000000000003000000000000004800000000000000009999123100000010000000000000BRCGRAACNOR2061
012013072202CGRA4       010GRAZZIOTIN  PN           R$  000000000157000000000016420000000001570000000000161300000000016250000000001625000000000163500016000000000000005000000000000008068000000000000000009999123100000010000000000000BRCGRAACNPR9061
012013072202CIEL3       010CIELO       ON      NM   R$  000000000555600000000056460000000005556000000000560500000000056050000000005604000000000560504619000000000001471600000000008249230200000000000000009999123100000010000000000000BRCIELACNOR3111
012013072296CIEL3F      020CIELO       ON      NM   R$  000000000557100000000056490000000005563000000000561000000000056000000000005575000000000560000104000000000000002649000000000014862495000000000000009999123100000010000000000000BRCIELACNOR3111
012013072202CLSC4       010CELESC      PN      N2   R$  000000000183200000000018900000000001819000000000185100000000018900000000001851000000000189000014000000000000001700000000000003148000000000000000009999123100000010000000000000BRCLSCACNPR3107
012013072296CLSC4F      020CELESC      PN      N2   R$  000000000180000000000018100000000001800000000000180000000000018100000000001751000000000198500003000000000000000068000000000000122430000000000000009999123100000010000000000000BRCLSCACNPR3107
012013072202CMIG3       010CEMIG       ON      N1   R$  000000000210100000000021750000000002101000000000214300000000021430000000002140000000000214300488000000000000115900000000000248392600000000000000009999123100000010000000000000BRCMIGACNOR6208
012013072296CMIG3F      020CEMIG       ON      N1   R$  000000000207100000000022530000000002071000000000214900000000021420000000002142000000000217000026000000000000000600000000000001289682000000000000009999123100000010000000000000BRCMIGACNOR6208
012013072202CMIG4       010CEMIG       PN      N1   R$  000000000207800000000021380000000002067000000000212100000000021300000000002130000000000213107661000000000002399200000000005089577500000000000000009999123100000010000000000000BRCMIGACNPR3208
012013072296CMIG4F      020CEMIG       PN      N1   R$  000000000208200000000021400000000002072000000000211600000000021100000000002110000000000212900158000000000000004385000000000009282706000000000000009999123100000010000000000000BRCMIGACNPR3208
012013072262CMIG4T      030CEMIG       PN      N1091R$  000000000216200000000021650000000002162000000000216300000000021650000000000000000000000000000004000000000000001563000000000003381830000000000000009999123100000010000000000000BRCMIGACNPR3208
012013072278CMIGH21     070CMIG        PN      N1000R$  000000000007000000000000950000000000070000000000008200000000000950000000000000000000000000000003000000000000001800000000000000149300000000000210002013081900000010000000000000BRCMIGACNPR3208
012013072278CMIGH22     070CMIG        PN      N1000R$  000000000003500000000000510000000000035000000000004700000000000450000000000005000000000004500029000000000000065800000000000003114000000000000220002013081900000010000000000000BRCMIGACNPR3208
012013072212CNES11B     010FII CENESP  CI      MB   R$  000000001234800000000125400000000012348000000001243700000000124500000000012450000000001253900012000000000000001641000000000020409806000000000000009999123100000010000000000000BRCNESCTF001123
012013072202COCE3       010COELCE      ON           R$  000000000409900000000041690000000004099000000000411700000000041690000000003890000000000417000003000000000000000400000000000001646800000000000000009999123100000010000000000000BRCOCEACNOR0132
012013072202COCE5       010COELCE      PNA          R$  000000000395500000000040050000000003935000000000397300000000040000000000004000000000000400700158000000000000046700000000000185575000000000000000009999123100000010000000000000BRCOCEACNPA3133
012013072296COCE5F      020COELCE      PNA          R$  000000000394000000000039990000000003940000000000397300000000039610000000003960000000000399400013000000000000000231000000000000917886000000000000009999123100000010000000000000BRCOCEACNPA3133
012013072202CPFE3       010CPFL ENERGIAON      NM   R$  000000000211500000000021650000000002110000000000214500000000021430000000002143000000000214704063000000000000697600000000001496607300000000000000009999123100000010000000000000BRCPFEACNOR0121
012013072296CPFE3F      020CPFL ENERGIAON      NM   R$  000000000214000000000021800000000002099000000000213700000000021010000000002101000000000221500022000000000000000527000000000001126497000000000000009999123100000010000000000000BRCPFEACNOR0121
012013072202CPLE3       010COPEL       ON      N1   R$  000000000231900000000023780000000002285000000000232600000000023440000000002300000000000234500035000000000000007000000000000016282200000000000000009999123100000010000000000000BRCPLEACNOR8128
012013072296CPLE3F      020COPEL       ON      N1   R$  000000000230000000000023000000000002300000000000230000000000023000000000002325000000000250000001000000000000000007000000000000016100000000000000009999123100000010000000000000BRCPLEACNOR8128
012013072202CPLE6       010COPEL       PNB     N1   R$  000000000287200000000029200000000002849000000000289400000000028930000000002891000000000289302000000000000000327900000000000948992000000000000000009999123100000010000000000000BRCPLEACNPB9125
012013072296CPLE6F      020COPEL       PNB     N1   R$  000000000290700000000029150000000002851000000000288200000000028510000000002851000000000291500019000000000000000434000000000001250894000000000000009999123100000010000000000000BRCPLEACNPB9125
012013072258CPRE3       010CPFL RENOVAVON      NM   R$  000000000121000000000012100000000001200000000000120400000000012020000000001202000000000120800358000000000000393200000000000473595300000000000000009999123100000010000000000000BRCPREACNOR5100
012013072296CPRE3F      020CPFL RENOVAVON      NM   R$  000000000123000000000012300000000001200000000000120100000000012010000000001196000000000120900203000000000000006709000000000008063644000000000000009999123100000010000000000000BRCPREACNOR5100
012013072262CPRE3T      030CPFL RENOVAVON      NM016R$  000000000121200000000012130000000001208000000000121200000000012130000000000000000000000000000054000000000000030800000000000037332243000000000000009999123100000010000000000000BRCPREACNOR5100
012013072262CPRE3T      030CPFL RENOVAVON      NM030R$  000000000121000000000012130000000001210000000000121200000000012130000000000000000000000000000004000000000000002000000000000002424271000000000000009999123100000010000000000000BRCPREACNOR5100
012013072202CRDE3       010CR2         ON      NM   R$  000000000040300000000004030000000000403000000000040300000000004030000000000400000000000041000001000000000000000300000000000000120900000000000000009999123100000010000000000000BRCRDEACNOR1108
012013072202CREM3       010CREMER      ON      NM   R$  000000000142000000000014290000000001412000000000141600000000014120000000001412000000000142400011000000000000001800000000000002549100000000000000009999123100000010000000000000BRCREMACNOR2166
012013072202CRIV4       010ALFA FINANC PN           R$  000000000048800000000004880000000000480000000000048700000000004850000000000479000000000048800008000000000000006500000000000003167000000000000000009999123100000010000000000000BRCRIVACNPR1189
012013072202CRUZ3       010SOUZA CRUZ  ON           R$  000000000274500000000028680000000002745000000000282700000000028420000000002841000000000284206087000000000001378500000000003898457400000000000000009999123100000010000000000000BRCRUZACNOR0246
012013072296CRUZ3F      020SOUZA CRUZ  ON           R$  000000000276700000000028880000000002767000000000283200000000028310000000002831000000000288800073000000000000001596000000000004520852000000000000009999123100000010000000000000BRCRUZACNOR0246
012013072262CRUZ3T      030SOUZA CRUZ  ON        060R$  000000000281900000000028200000000002819000000000281900000000028200000000000000000000000000000002000000000000001900000000000005356845000000000000009999123100000010000000000000BRCRUZACNOR0246
012013072278CRUZH58     070CRUZ        ON        000R$  000000000004900000000000490000000000049000000000004900000000000490000000000000000000000000000001000000000000001000000000000000049000000000000285002013081900000010000000000000BRCRUZACNOR0246
012013072202CSAN3       010COSAN       ON      NM   R$  000000000437400000000044480000000004337000000000437200000000044000000000004400000000000440102580000000000000970100000000004241484900000000000000009999123100000010000000000000BRCSANACNOR6107
012013072296CSAN3F      020COSAN       ON      NM   R$  000000000438900000000044320000000004336000000000436500000000043870000000004387000000000444500126000000000000003382000000000014763680000000000000009999123100000010000000000000BRCSANACNOR6107
012013072262CSAN3T      030COSAN       ON      NM016R$  000000000437700000000043780000000004377000000000437700000000043780000000000000000000000000000002000000000000001000000000000004377440000000000000009999123100000010000000000000BRCSANACNOR6107
012013072262CSAN3T      030COSAN       ON      NM030R$  000000000437200000000043730000000004370000000000437000000000043710000000000000000000000000000004000000000000000300000000000001311227000000000000009999123100000010000000000000BRCSANACNOR6107
012013072262CSAN3T      030COSAN       ON      NM090R$  000000000445900000000044700000000004459000000000446400000000044620000000000000000000000000000024000000000000080500000000000359391265000000000000009999123100000010000000000000BRCSANACNOR6107
012013072262CSAN3T      030COSAN       ON      NM091R$  000000000446300000000044640000000004436000000000444800000000044370000000000000000000000000000014000000000000279900000000001245196696000000000000009999123100000010000000000000BRCSANACNOR6107
012013072202CSMG3       010COPASA      ON      NM   R$  000000000361800000000036690000000003547000000000359800000000035760000000003576000000000360501306000000000000169100000000000608549800000000000000009999123100000010000000000000BRCSMGACNOR5127
012013072296CSMG3F      020COPASA      ON      NM   R$  000000000362300000000036340000000003552000000000359300000000035520000000003552000000000437000008000000000000000214000000000000768952000000000000009999123100000010000000000000BRCSMGACNOR5127
012013072214CSMO11      010ISHARES CSMOCI           R$  000000000451700000000045210000000004517000000000451800000000045210000000004514000000000460000002000000000000000040000000000000180720000000000000009999123100000010000000000000BRCSMOCTF002100
012013072202CSNA3       010SID NACIONALON           R$  000000000060100000000006340000000000601000000000062300000000006300000000000629000000000063010561000000000006832900000000004262929200000000000000009999123100000010000000000000BRCSNAACNOR6242
012013072296CSNA3F      020SID NACIONALON           R$  000000000060000000000006330000000000600000000000062100000000006010000000000601000000000063300129000000000000003623000000000002253128000000000000009999123100000010000000000000BRCSNAACNOR6242
012013072262CSNA3T      030SID NACIONALON        018R$  000000000062800000000006300000000000628000000000062900000000006300000000000000000000000000000004000000000000012000000000000007554138000000000000009999123100000010000000000000BRCSNAACNOR6242
012013072262CSNA3T      030SID NACIONALON        030R$  000000000063000000000006310000000000630000000000063000000000006310000000000000000000000000000002000000000000001000000000000000630194000000000000009999123100000010000000000000BRCSNAACNOR6242
012013072262CSNA3T      030SID NACIONALON        060R$  000000000063900000000006400000000000639000000000063900000000006400000000000000000000000000000002000000000000005000000000000003197908000000000000009999123100000010000000000000BRCSNAACNOR6242
012013072262CSNA3T      030SID NACIONALON        091R$  000000000062800000000006440000000000628000000000063600000000006390000000000000000000000000000008000000000000024000000000000015282036000000000000009999123100000010000000000000BRCSNAACNOR6242
012013072262CSNA3T      030SID NACIONALON        120R$  000000000064900000000006500000000000649000000000064900000000006500000000000000000000000000000002000000000000020000000000000012984300000000000000009999123100000010000000000000BRCSNAACNOR6242
012013072278CSNAH58     070CSNA  FM    ON        000R$  000000000005900000000000590000000000059000000000005900000000000590000000000000000000000000000001000000000000003500000000000000206500000000000058002013081900000010000000000000BRCSNAACNOR6242
012013072278CSNAH6      070CSNA  FM    ON        000R$  000000000003200000000000520000000000031000000000004200000000000470000000000041000000000005000033000000000000034500000000000001463300000000000060002013081900000010000000000000BRCSNAACNOR6242
012013072278CSNAH62     070CSNA  FM    ON        000R$  000000000003000000000000360000000000030000000000003300000000000360000000000000000000000000000003000000000000005400000000000000180800000000000062002013081900000010000000000000BRCSNAACNOR6242
012013072278CSNAH64     070CSNA  FM    ON        000R$  000000000001600000000000240000000000016000000000002200000000000240000000000000000000000000000007000000000000020200000000000000461700000000000064002013081900000010000000000000BRCSNAACNOR6242
012013072278CSNAH65     070CSNAE       ON        000R$  000000000001500000000000170000000000015000000000001600000000000170000000000000000000000000000004000000000000006400000000000000102800000000000065002013081900000010000000000000BRCSNAACNOR6242
012013072278CSNAH66     070CSNA  FM    ON        000R$  000000000001200000000000150000000000012000000000001400000000000150000000000000000000000002000014000000000000038700000000000000550900000000000066002013081900000010000000000000BRCSNAACNOR6242
012013072278CSNAH68     070CSNA        ON        000R$  000000000000700000000000100000000000007000000000000800000000000100000000000003000000000001200051000000000000221700000000000001874200000000000068002013081900000010000000000000BRCSNAACNOR6242
012013072278CSNAH7      070CSNA        ON        000R$  000000000000500000000000070000000000005000000000000600000000000070000000000006000000000000800016000000000000041300000000000000249100000000000070002013081900000010000000000000BRCSNAACNOR6242
012013072278CSNAH72     070CSNA        ON        000R$  000000000000300000000000030000000000003000000000000300000000000030000000000000000000000000000001000000000000021000000000000000063000000000000072002013081900000010000000000000BRCSNAACNOR6242
012013072278CSNAI58     070CSNA  FM    ON        000R$  000000000006200000000000710000000000060000000000006500000000000710000000000000000000000000000004000000000000008000000000000000520000000000000058002013091600000010000000000000BRCSNAACNOR6242
012013072278CSNAI6      070CSNA  FM    ON        000R$  000000000004900000000000610000000000049000000000005500000000000610000000000057000000000000000009000000000000014500000000000000801500000000000060002013091600000010000000000000BRCSNAACNOR6242
012013072278CSNAI62     070CSNA  FM    ON        000R$  000000000003900000000000500000000000039000000000004600000000000500000000000000000000000005000005000000000000019000000000000000878000000000000062002013091600000010000000000000BRCSNAACNOR6242
012013072278CSNAI64     070CSNA  FM    ON        000R$  000000000003000000000000350000000000030000000000003100000000000350000000000000000000000000000002000000000000005000000000000000155000000000000064002013091600000010000000000000BRCSNAACNOR6242
012013072278CSNAI66     070CSNA  FM    ON        000R$  000000000002600000000000260000000000026000000000002600000000000260000000000000000000000000000001000000000000003500000000000000091000000000000066002013091600000010000000000000BRCSNAACNOR6242
012013072278CSNAI7      070CSNA        ON        000R$  000000000001100000000000150000000000011000000000001100000000000150000000000012000000000002000008000000000000011100000000000000129900000000000070002013091600000010000000000000BRCSNAACNOR6242
012013072278CSNAI72     070CSNA        ON        000R$  000000000000900000000000090000000000009000000000000900000000000090000000000000000000000000000001000000000000002400000000000000021600000000000072002013091600000010000000000000BRCSNAACNOR6242
012013072278CSNAJ6      070CSNA        ON        000R$  000000000006800000000000720000000000068000000000007100000000000720000000000000000000000000000005000000000000006100000000000000434800000000000060002013102100000010000000000000BRCSNAACNOR6242
012013072278CSNAJ7      070CSNA        ON        000R$  000000000002200000000000220000000000022000000000002200000000000220000000000000000000000000000001000000000000000500000000000000011000000000000070002013102100000010000000000000BRCSNAACNOR6242
012013072282CSNAT6      080CSNAE FM    ON        000R$  000000000002300000000000230000000000019000000000002000000000000190000000000013000000000000000003000000000000004000000000000000080000000000000060002013081900000010000000000000BRCSNAACNOR6242
012013072282CSNAT62     080CSNAE FM    ON        000R$  000000000003200000000000320000000000027000000000002800000000000270000000000000000000000010000004000000000000008000000000000000228500000000000062002013081900000010000000000000BRCSNAACNOR6242
012013072282CSNAU6      080CSNAE FM    ON        000R$  000000000003200000000000320000000000032000000000003200000000000320000000000000000000000000000001000000000000001200000000000000038400000000000060002013091600000010000000000000BRCSNAACNOR6242
012013072282CSNAU62     080CSNAE FM    ON        000R$  000000000004000000000000410000000000036000000000003800000000000360000000000000000000000000000004000000000000008500000000000000325000000000000062002013091600000010000000000000BRCSNAACNOR6242
012013072282CSNAU7      080CSNAE       ON        000R$  000000000009500000000000950000000000078000000000008200000000000780000000000078000000000010900011000000000000001100000000000000091100000000000070002013091600000010000000000000BRCSNAACNOR6242
012013072202CTAX11      010CONTAX      UNT     N2   R$  000000000184000000000018410000000001785000000000180000000000017860000000001770000000000178600063000000000000029000000000000052225600000000000000009999123100000010000000000000BRCTAXCDAM19100
012013072296CTAX11F     020CONTAX      UNT     N2   R$  000000000184300000000018430000000001756000000000181000000000017560000000001755000000000210000003000000000000000060000000000000108640000000000000009999123100000010000000000000BRCTAXCDAM19100
012013072202CTAX3       010CONTAX      ON      N2   R$  000000000044500000000004450000000000445000000000044500000000004450000000000401000000000050000001000000000000003600000000000001602000000000000000009999123100000010000000000000BRCTAXACNOR3113
012013072202CTAX4       010CONTAX      PN      N2   R$  000000000033900000000003440000000000332000000000033700000000003380000000000337000000000033800071000000000000082200000000000027717700000000000000009999123100000010000000000000BRCTAXACNPR0114
012013072296CTAX4F      020CONTAX      PN      N2   R$  000000000035700000000003570000000000337000000000034200000000003370000000000313000000000035700002000000000000000071000000000000024347000000000000009999123100000010000000000000BRCTAXACNPR0114
012013072202CTIP3       010CETIP       ON      NM   R$  000000000227300000000023100000000002262000000000229100000000023000000000002284000000000230005228000000000001140700000000002614290100000000000000009999123100000010000000000000BRCTIPACNOR2119
012013072296CTIP3F      020CETIP       ON      NM   R$  000000000227700000000023280000000002270000000000229100000000022980000000002298000000000232000055000000000000001980000000000004538991000000000000009999123100000010000000000000BRCTIPACNOR2119
012013072278CTIPA65     070CTIPE       ON      NM000R$  000000000006300000000000630000000000063000000000006300000000000630000000000000000000000000000002000000000000500000000000000031500000000000000257502014012000000010000000000000BRCTIPACNOR2119
012013072278CTIPH4      070CTIPE       ON      NM000R$  000000000000100000000000010000000000001000000000000100000000000010000000000000000000000000000002000000000000250000000000000000250000000000000320002013081900000010000000000000BRCTIPACNOR2113
012013072278CTIPH5      070CTIPE       ON      NM000R$  000000000000100000000000010000000000001000000000000100000000000010000000000000000000000000000002000000000000250000000000000000250000000000000310002013081900000010000000000000BRCTIPACNOR2113
012013072278CTIPH53     070CTIP        ON      NM000R$  000000000003900000000000390000000000039000000000003900000000000390000000000000000000000000000001000000000000001600000000000000062400000000000235002013081900000010000000000000BRCTIPACNOR2119
012013072278CTIPH59     070CTIPE       ON      NM000R$  000000000000100000000000010000000000001000000000000100000000000010000000000000000000000000000002000000000000296300000000000000296300000000000288202013081900000010000000000000BRCTIPACNOR2115
012013072278CTIPI58     070CTIPE       ON      NM000R$  000000000000200000000000020000000000002000000000000200000000000020000000000000000000000000000002000000000000500000000000000001000000000000000288202013091600000010000000000000BRCTIPACNOR2115
012013072278CTIPI59     070CTIPE       ON      NM000R$  000000000000100000000000010000000000001000000000000100000000000010000000000000000000000000000002000000000000296300000000000000296300000000000294202013091600000010000000000000BRCTIPACNOR2115
012013072278CTIPJ58     070CTIPE       ON      NM000R$  000000000000900000000000090000000000009000000000000900000000000090000000000000000000000000000002000000000000500000000000000004500000000000000283402013102100000010000000000000BRCTIPACNOR2117
012013072278CTIPJ59     070CTIPE       ON      NM000R$  000000000000600000000000060000000000006000000000000600000000000060000000000000000000000000000002000000000000500000000000000003000000000000000292202013102100000010000000000000BRCTIPACNOR2115
012013072278CTIPK58     070CTIPE       ON      NM000R$  000000000001300000000000130000000000013000000000001300000000000130000000000000000000000000000002000000000000500000000000000006500000000000000287402013111800000010000000000000BRCTIPACNOR2117
012013072278CTIPL65     070CTIPE       ON      NM000R$  000000000006300000000000630000000000063000000000006300000000000630000000000000000000000000000002000000000000500000000000000031500000000000000252502013121600000010000000000000BRCTIPACNOR2119
012013072202CTKA4       010KARSTEN     PN           R$  000000000010000000000001000000000000100000000000010000000000001000000000000101000000000010200001000000000000000300000000000000030000000000000000009999123100000010000000000000BRCTKAACNPR7041
012013072202CTNM4       010COTEMINAS   PN           R$  000000000024800000000002570000000000247000000000024700000000002500000000000240000000000025700007000000000000011200000000000002769600000000000000009999123100000010000000000000BRCTNMACNPR6128
012013072262CTNM4T      030COTEMINAS   PN        060R$  000000000025000000000002510000000000250000000000025000000000002510000000000000000000000000000002000000000000010000000000000002509520000000000000009999123100000010000000000000BRCTNMACNPR6128
012013072202CTSA4       010SANTANENSE  PN           R$  000000000059400000000005950000000000594000000000059400000000005950000000000570000000000059500002000000000000000900000000000000535400000000000000009999123100000010000000000000BRCTSAACNPR0051
012013072212CXCE11B     010FII CX CEDAECI      MB   R$  000000019000000000001900000000000190000000000019000000000001900000000000188000000000019800000002000000000000000010000000000001900000000000000000009999123100000010000000000000BRCXCECTF004136
012013072202CYRE3       010CYRELA REALTON      NM   R$  000000000168100000000017130000000001672000000000169200000000016880000000001688000000000168906559000000000002569300000000004347426200000000000000009999123100000010000000000000BRCYREACNOR7125
012013072296CYRE3F      020CYRELA REALTON      NM   R$  000000000168200000000017370000000001630000000000168800000000016300000000001630000000000174000082000000000000002475000000000004180074000000000000009999123100000010000000000000BRCYREACNOR7125
012013072278CYREH16     070CYRE  FM    ON      NM000R$  000000000012500000000001350000000000125000000000013000000000001350000000000000000000000000000002000000000000007000000000000000910000000000000160002013081900000010000000000000BRCYREACNOR7125
