00COTAHIST.2013BOVESPA 20131004                                                                                                                                                                                                                      
012013100496AAPL34F     020APPLE       DRN          R$  000000001040000000000104000000000010400000000001040000000000104000000000010400000000000000000001000000000000000004000000000000041600000000000000009999123100000010000000000000BRAAPLBDR004105
012013100402ABCB4       010ABC BRASIL  PN      N2   R$  000000000127100000000013000000000001246000000000126200000000012700000000001270000000000128201057000000000000325900000000000411296100000000000000009999123100000010000000000000BRABCBACNPR4120
012013100496ABCB4F      020ABC BRASIL  PN      N2   R$  000000000126500000000012700000000001247000000000125900000000012470000000001260000000000127200009000000000000000143000000000000180178000000000000009999123100000010000000000000BRABCBACNPR4120
012013100462ABCB4T      030ABC BRASIL  PN      N2031R$  000000000128000000000012810000000001280000000000128000000000012810000000000000000000000000000002000000000000065900000000000084354175000000000000009999123100000010000000000000BRABCBACNPR4120
012013100412ABCP11      010FII ABC IMOBCI  ER       R$  000000000098500000000009850000000000975000000000097900000000009750000000000950000000000098900003000000000000001800000000000001763000000000000000009999123100000010000000000000BRABCPCTF000216
012013100402ABRE11      010ABRIL EDUCA UNT     N2   R$  000000000336800000000033680000000003314000000000334400000000033500000000003340000000000335100455000000000000091200000000000304997700000000000000009999123100000010000000000000BRABRECDAM15102
012013100496ABRE11F     020ABRIL EDUCA UNT     N2   R$  000000000333000000000033400000000003330000000000333000000000033400000000003101000000000335000002000000000000000036000000000000119890000000000000009999123100000010000000000000BRABRECDAM15102
012013100402AEDU3       010ANHANGUERA  ON      NM   R$  000000000128400000000013270000000001277000000000131000000000013170000000001317000000000131804067000000000002111500000000002767592500000000000000009999123100000010000000000000BRAEDUACNOR9107
012013100496AEDU3F      020ANHANGUERA  ON      NM   R$  000000000129500000000013180000000001275000000000130200000000013000000000001282000000000131400019000000000000000545000000000000709757000000000000009999123100000010000000000000BRAEDUACNOR9107
012013100462AEDU3T      030ANHANGUERA  ON      NM180R$  000000000137700000000013780000000001377000000000137700000000013780000000000000000000000000000002000000000000001500000000000002066199000000000000009999123100000010000000000000BRAEDUACNOR9107
012013100412AEFI11      010FII AESAPAR CI  ER       R$  000000001180100000000121650000000011801000000001192200000000119410000000011941000000001210000018000000000000000312000000000003719895000000000000009999123100000010000000000000BRAEFICTF002122
012013100496AFLT3F      020AFLUENTE T  ON           R$  000000000033900000000003390000000000339000000000033900000000003390000000000339000000000000000002000000000000000073000000000000024747000000000000009999123100000010000000000000BRAFLTACNOR1104
012013100496AFLU3F      020AFLUENTE    ON           R$  000000000055500000000005550000000000555000000000055500000000005550000000000358000000000055500001000000000000000001000000000000000555000000000000009999123100000010000000000000BRAFLUACNOR9117
012013100412AGCX11      010FII AG CAIXACI  ER       R$  000000009420100000000955500000000094201000000009530600000000955480000000094500000000009554900012000000000000000274000000000026114001000000000000009999123100000010000000000000BRAGCXCTF003111
012013100402AGRO3       010BRASILAGRO  ON      NM   R$  000000000096800000000009830000000000961000000000096800000000009830000000000983000000000098400114000000000000026100000000000025267000000000000000009999123100000010000000000000BRAGROACNOR7102
012013100462AGRO3T      030BRASILAGRO  ON      NM360R$  000000000106700000000010680000000001067000000000106700000000010680000000000000000000000000000002000000000000000400000000000000427193000000000000009999123100000010000000000000BRAGROACNOR7102
012013100402ALLL3       010ALL AMER LATON      NM   R$  000000000091000000000009100000000000896000000000090200000000009040000000000902000000000090404583000000000002614300000000002358720900000000000000009999123100000010000000000000BRALLLACNOR6118
012013100496ALLL3F      020ALL AMER LATON      NM   R$  000000000090500000000009100000000000897000000000090300000000009050000000000903000000000091000064000000000000001806000000000001631960000000000000009999123100000010000000000000BRALLLACNOR6118
012013100462ALLL3T      030ALL AMER LATON      NM060R$  000000000091400000000009150000000000914000000000091400000000009150000000000000000000000000000002000000000000865100000000000790913090000000000000009999123100000010000000000000BRALLLACNOR6118
012013100412ALMI11B     010FII TORRE ALCI  ER  MB   R$  000000031300000000003190000000000313000000000031531800000003190000000000315000000000031900000007000000000000000020000000000006306367000000000000009999123100000010000000000000BRALMICTF003206
012013100496ALPA3F      020ALPARGATAS  ON      N1   R$  000000000129800000000012980000000001298000000000129800000000012980000000001156000000000129800001000000000000000001000000000000001298000000000000009999123100000010000000000000BRALPAACNOR0203
012013100402ALPA4       010ALPARGATAS  PN      N1   R$  000000000144000000000014590000000001436000000000144500000000014500000000001446000000000145400215000000000000191600000000000276932500000000000000009999123100000010000000000000BRALPAACNPR7203
012013100496ALPA4F      020ALPARGATAS  PN      N1   R$  000000000143800000000014600000000001436000000000144600000000014360000000001430000000000145600015000000000000000335000000000000484660000000000000009999123100000010000000000000BRALPAACNPR7203
012013100478ALPAJ14     070ALPA        PN      N1000R$  000000000006500000000000650000000000065000000000006500000000000650000000000000000000000000000001000000000000020300000000000001319500000000000140002013102100000010000000000000BRALPAACNPR7203
012013100402ALSC3       010ALIANSCE    ON      NM   R$  000000000204700000000020510000000002008000000000203400000000020500000000002040000000000205000900000000000000153000000000000311237300000000000000009999123100000010000000000000BRALSCACNOR0104
012013100496ALSC3F      020ALIANSCE    ON      NM   R$  000000000204000000000020400000000002040000000000204000000000020400000000001951000000000209900002000000000000000078000000000000159120000000000000009999123100000010000000000000BRALSCACNOR0104
012013100402ALUP11      010ALUPAR      UNT     N2   R$  000000000174600000000017650000000001712000000000172600000000017210000000001716000000000172100326000000000000208300000000000359659000000000000000009999123100000010000000000000BRALUPCDAM15100
012013100496ALUP11F     020ALUPAR      UNT     N2   R$  000000000174000000000017990000000001716000000000173300000000017160000000001715000000000179900009000000000000000220000000000000381414000000000000009999123100000010000000000000BRALUPCDAM15100
012013100402AMAR3       010LOJAS MARISAON      NM   R$  000000000207800000000020820000000002031000000000204700000000020310000000002031000000000204901201000000000000292100000000000597993200000000000000009999123100000010000000000000BRAMARACNOR4109
012013100496AMAR3F      020LOJAS MARISAON      NM   R$  000000000206000000000020600000000002038000000000205000000000020600000000002038000000000209900004000000000000000004000000000000008203000000000000009999123100000010000000000000BRAMARACNOR4109
012013100402AMBV3       010AMBEV       ON           R$  000000000847100000000085690000000008397000000000852200000000085490000000008527000000000854900566000000000000081400000000000693733800000000000000009999123100000010000000000000BRAMBVACNOR4154
012013100496AMBV3F      020AMBEV       ON           R$  000000000846200000000085990000000008450000000000850000000000085990000000008520000000000859900027000000000000000667000000000005669566000000000000009999123100000010000000000000BRAMBVACNOR4154
012013100402AMBV4       010AMBEV       PN           R$  000000000847800000000085580000000008427000000000851300000000085300000000008530000000000853303824000000000000686400000000005843826400000000000000009999123100000010000000000000BRAMBVACNPR1154
012013100496AMBV4F      020AMBEV       PN           R$  000000000845000000000085990000000008403000000000850700000000085250000000008490000000000855000138000000000000003343000000000028443213000000000000009999123100000010000000000000BRAMBVACNPR1154
012013100462AMBV4T      030AMBEV       PN        017R$  000000000853700000000085380000000008537000000000853700000000085380000000000000000000000000000002000000000000002000000000000017075725000000000000009999123100000010000000000000BRAMBVACNPR1154
012013100462AMBV4T      030AMBEV       PN        180R$  000000000891400000000089170000000008914000000000891600000000089170000000000000000000000000000004000000000000000600000000000005349894000000000000009999123100000010000000000000BRAMBVACNPR1154
012013100478AMBVJ90     070AMBV        PN        000R$  000000000001600000000000160000000000016000000000001600000000000160000000000000000000000008500001000000000000020000000000000000320000000000000893502013102100000010000000000000BRAMBVACNPR1153
012013100478AMBVL89     070AMBV        PN        000R$  000000000020000000000002000000000000156000000000016400000000002000000000000156000000000000000005000000000000036600000000000006019100000000000890002013121600000010000000000000BRAMBVACNPR1154
012013100482AMBVX78     080AMBVE       PN        000R$  000000000004500000000000450000000000045000000000004500000000000450000000000000000000000000000001000000000000029500000000000001327500000000000780002013121600000010000000000000BRAMBVACNPR1154
012013100482AMBVX79     080AMBVE       PN        000R$  000000000006000000000000600000000000060000000000006000000000000600000000000000000000000000000002000000000000007000000000000000420000000000000790002013121600000010000000000000BRAMBVACNPR1154
012013100402ARTR3       010ARTERIS     ON      NM   R$  000000000194900000000019790000000001914000000000193800000000019140000000001914000000000194101746000000000000466500000000000904237500000000000000009999123100000010000000000000BRARTRACNOR3101
012013100496ARTR3F      020ARTERIS     ON      NM   R$  000000000194300000000019750000000001885000000000194100000000019750000000001940000000000197500034000000000000000577000000000001120027000000000000009999123100000010000000000000BRARTRACNOR3101
012013100402ARZZ3       010AREZZO CO   ON      NM   R$  000000000369800000000037790000000003698000000000373400000000037400000000003713000000000374001015000000000000167800000000000626674000000000000000009999123100000010000000000000BRARZZACNOR3109
012013100496ARZZ3F      020AREZZO CO   ON      NM   R$  000000000377900000000037790000000003712000000000371600000000037120000000003700000000000377900003000000000000000027000000000000100358000000000000009999123100000010000000000000BRARZZACNOR3109
012013100402AUTM3       010AUTOMETAL   ON      NM   R$  000000000186400000000018640000000001841000000000185000000000018500000000001850000000000185700185000000000000078300000000000144892300000000000000009999123100000010000000000000BRAUTMACNOR8109
012013100496AUTM3F      020AUTOMETAL   ON      NM   R$  000000000186700000000018670000000001850000000000185000000000018500000000001772000000000185800002000000000000000077000000000000142467000000000000009999123100000010000000000000BRAUTMACNOR8109
012013100402AZEV4       010AZEVEDO     PN           R$  000000000012500000000001250000000000125000000000012500000000001250000000000120000000000012500005000000000000010000000000000001250000000000000000009999123100000010000000000000BRAZEVACNPR7113
012013100402BAHI3       010BAHEMA      ON           R$  000000000049500000000004950000000000495000000000049500000000004950000000000474000000000050000001000000000000000200000000000000099000000000000000009999123100000010000000000000BRBAHIACNOR1066
012013100496BAHI3F      020BAHEMA      ON           R$  000000000060000000000006000000000000600000000000060000000000006000000000000457000000000060000001000000000000000001000000000000000600000000000000009999123100000010000000000000BRBAHIACNOR1066
012013100496BALM4F      020BAUMER      PN           R$  000000000950000000000095000000000009500000000000950000000000095000000000009500000000000000000002000000000000000010000000000000095000000000000000009999123100000010000000000000BRBALMACNPR2043
012013100402BAUH4       010EXCELSIOR   PN           R$  000000000090000000000009000000000000900000000000090000000000009000000000000900000000000094000002000000000000001000000000000000900000000000000000009999123100000010000000000000BRBAUHACNPR3108
012013100496BAUH4F      020EXCELSIOR   PN           R$  000000000090000000000009000000000000900000000000090000000000009000000000000800000000000090000001000000000000000001000000000000000900000000000000009999123100000010000000000000BRBAUHACNPR3108
012013100402BAZA3       010AMAZONIA    ON           R$  000000000003300000000000330000000000033000000000003300000000000330000000000032000000000003300002000000000000020000000000000000660000000000000000009999123100000010000000000000BRBAZAACNOR0163
012013100496BAZA3F      020AMAZONIA    ON           R$  000000000003500000000000350000000000035000000000003500000000000350000000000031000000000003500001000000000000000010000000000000000350000000000000009999123100000010000000000000BRBAZAACNOR0163
012013100402BBAS3       010BRASIL      ON      NM   R$  000000000260800000000026650000000002596000000000263200000000026220000000002622000000000262914079000000000005588400000000014714112500000000000000009999123100000010000000000000BRBBASACNOR3239
012013100496BBAS3F      020BRASIL      ON      NM   R$  000000000261500000000026620000000002598000000000263500000000026400000000002630000000000264000302000000000000008574000000000022591672000000000000009999123100000010000000000000BRBBASACNOR3239
012013100462BBAS3S      030BRASIL      ON      NM060R$  000000000268400000000026850000000002684000000000268400000000026850000000000000000000000000000002000000000000008000000000000021477741000000000000009999123100000010000000000000BRBBASACNOR3239
012013100462BBAS3T      030BRASIL      ON      NM090R$  000000000269200000000026930000000002692000000000269200000000026930000000000000000000000000000002000000000000006000000000000016152474000000000000009999123100000010000000000000BRBBASACNOR3239
012013100478BBASJ24     070BBAS        ON      NM000R$  000000000037500000000003800000000000370000000000037700000000003800000000000215000000000000000006000000000000013900000000000005250200000000000227102013102100000010000000000000BRBBASACNOR3236
012013100478BBASJ25     070BBAS  FM    ON      NM000R$  000000000023000000000002850000000000226000000000025000000000002460000000000200000000000024600213000000000000244500000000000061268800000000000239502013102100000010000000000000BRBBASACNOR3237
012013100478BBASJ26     070BBAS  FM    ON      NM000R$  000000000016900000000002150000000000167000000000018900000000001900000000000170000000000020000201000000000000224500000000000042588700000000000246102013102100000010000000000000BRBBASACNOR3235
012013100478BBASJ27     070BBAS  FM    ON      NM000R$  000000000008000000000001260000000000080000000000010700000000001050000000000097000000000011000323000000000000255700000000000027409600000000000256102013102100000010000000000000BRBBASACNOR3235
012013100478BBASJ28     070BBAS  FM    ON      NM000R$  000000000001700000000000370000000000017000000000002700000000000270000000000026000000000003000198000000000000233900000000000006414600000000000269502013102100000010000000000000BRBBASACNOR3237
012013100478BBASJ29     070BBAS  FM    ON      NM000R$  000000000000800000000000150000000000008000000000001000000000000120000000000010000000000001500058000000000000086500000000000000918900000000000276102013102100000010000000000000BRBBASACNOR3235
012013100478BBASJ30     070BBAS        ON      NM000R$  000000000000300000000000040000000000002000000000000300000000000020000000000002000000000000800010000000000000023400000000000000076800000000000286102013102100000010000000000000BRBBASACNOR3235
012013100478BBASJ56     070BBAS        ON      NM000R$  000000000012800000000001660000000000128000000000014900000000001500000000000010000000000000000029000000000000009800000000000001460400000000000251102013102100000010000000000000BRBBASACNOR3235
012013100478BBASJ65     070BBAS        ON      NM000R$  000000000004800000000000520000000000048000000000004800000000000480000000000000000000000000000008000000000000006000000000000000290400000000000265002013102100000010000000000000BRBBASACNOR3239
012013100478BBASK25     070BBAS  FM    ON      NM000R$  000000000027700000000003220000000000277000000000029900000000003060000000000000000000000000000092000000000000094200000000000028196500000000000237102013111800000010000000000000BRBBASACNOR3236
012013100478BBASK26     070BBAS  FM    ON      NM000R$  000000000019500000000002360000000000194000000000021300000000002150000000000190000000000000000096000000000000114400000000000024421900000000000247102013111800000010000000000000BRBBASACNOR3236
012013100478BBASK27     070BBAS  FM    ON      NM000R$  000000000012600000000001550000000000126000000000014000000000001460000000000045000000000000000012000000000000027700000000000003900800000000000257102013111800000010000000000000BRBBASACNOR3236
012013100478BBASK28     070BBAS  FM    ON      NM000R$  000000000007000000000000960000000000070000000000008300000000000800000000000050000000000000000054000000000000089400000000000007426300000000000267102013111800000010000000000000BRBBASACNOR3236
012013100478BBASK29     070BBAS  FM    ON      NM000R$  000000000002500000000000400000000000025000000000003300000000000320000000000023000000000003900032000000000000040300000000000001350900000000000279502013111800000010000000000000BRBBASACNOR3237
012013100478BBASK32     070BBAS        ON      NM000R$  000000000000200000000000020000000000002000000000000200000000000020000000000001000000000001800001000000000000001000000000000000002000000000000320002013111800000010000000000000BRBBASACNOR3239
012013100478BBASK58     070BBAS        ON      NM000R$  000000000002400000000000240000000000024000000000002400000000000240000000000000000000000000000001000000000000000500000000000000012000000000000285002013111800000010000000000000BRBBASACNOR3239
012013100478BBASL26     070BBAS        ON      NM000R$  000000000023000000000002550000000000230000000000023200000000002550000000000016000000000000000002000000000000002200000000000000511000000000000246102013121600000010000000000000BRBBASACNOR3235
012013100478BBASL27     070BBAS        ON      NM000R$  000000000016600000000001660000000000166000000000016600000000001660000000000016000000000000000001000000000000001000000000000000166000000000000259502013121600000010000000000000BRBBASACNOR3237
012013100478BBASL28     070BBAS        ON      NM000R$  000000000010700000000001100000000000107000000000010700000000001100000000000016000000000000000002000000000000100500000000000010755000000000000269502013121600000010000000000000BRBBASACNOR3237
012013100478BBASL29     070BBAS        ON      NM000R$  000000000006100000000000740000000000061000000000006300000000000740000000000056000000000008000002000000000000002500000000000000159000000000000276102013121600000010000000000000BRBBASACNOR3235
012013100478BBASL30     070BBAS        ON      NM000R$  000000000001700000000000230000000000017000000000001900000000000210000000000016000000000000000024000000000000021700000000000000420700000000000300002013121600000010000000000000BRBBASACNOR3239
012013100478BBASL60     070BBAS        ON      NM000R$  000000000003500000000000500000000000035000000000003800000000000500000000000014000000000000000061000000000000203600000000000007831000000000000286202013121600000010000000000000BRBBASACNOR3233
012013100478BBASL79     070BBAS        ON      NM000R$  000000000003100000000000380000000000031000000000003100000000000380000000000000000000000000000004000000000000336000000000000010743000000000000290002013121600000010000000000000BRBBASACNOR3239
012013100482BBASV24     080BBASE FM    ON      NM000R$  000000000000200000000000020000000000002000000000000200000000000020000000000001000000000000500005000000000000012200000000000000024400000000000227102013102100000010000000000000BRBBASACNOR3236
012013100482BBASV25     080BBASE FM    ON      NM000R$  000000000000600000000000070000000000005000000000000600000000000050000000000000000000000000600021000000000000075900000000000000509500000000000239502013102100000010000000000000BRBBASACNOR3237
012013100482BBASV26     080BBASE FM    ON      NM000R$  000000000001000000000000110000000000008000000000000900000000000080000000000005000000000001800006000000000000013200000000000000125200000000000246102013102100000010000000000000BRBBASACNOR3235
012013100482BBASV27     080BBASE FM    ON      NM000R$  000000000003000000000000320000000000017000000000002300000000000210000000000019000000000002300105000000000000153200000000000003551400000000000256102013102100000010000000000000BRBBASACNOR3235
012013100482BBASV28     080BBASE       ON      NM000R$  000000000008700000000000870000000000064000000000007600000000000740000000000000000000000008100072000000000000051100000000000003896700000000000269502013102100000010000000000000BRBBASACNOR3237
012013100482BBASW24     080BBASE FM    ON      NM000R$  000000000000600000000000060000000000006000000000000600000000000060000000000000000000000000000002000000000000000800000000000000004800000000000229502013111800000010000000000000BRBBASACNOR3237
012013100482BBASW26     080BBASE FM    ON      NM000R$  000000000003100000000000310000000000025000000000002700000000000280000000000024000000000004700014000000000000007000000000000000192600000000000247102013111800000010000000000000BRBBASACNOR3236
012013100482BBASW27     080BBASE FM    ON      NM000R$  000000000005400000000000540000000000051000000000005300000000000510000000000000000000000005400003000000000000014400000000000000771600000000000257102013111800000010000000000000BRBBASACNOR3236
012013100482BBASW28     080BBASE       ON      NM000R$  000000000010200000000001020000000000090000000000009700000000000900000000000000000000000010800004000000000000009000000000000000878000000000000267102013111800000010000000000000BRBBASACNOR3236
012013100482BBASX25     080BBASE       ON      NM000R$  000000000002800000000000280000000000028000000000002800000000000280000000000000000000000004000001000000000000000100000000000000002800000000000236102013121600000010000000000000BRBBASACNOR3235
012013100482BBASX28     080BBASE       ON      NM000R$  000000000012200000000001220000000000122000000000012200000000001220000000000000000000000000000001000000000000001200000000000000146400000000000269502013121600000010000000000000BRBBASACNOR3237
012013100482BBASX29     080BBASE       ON      NM000R$  000000000015800000000001580000000000158000000000015800000000001580000000000000000000000000000001000000000000001200000000000000189600000000000276102013121600000010000000000000BRBBASACNOR3235
012013100482BBASX30     080BBASE       ON      NM000R$  000000000035800000000003580000000000358000000000035800000000003580000000000000000000000000000001000000000000001000000000000000358000000000000300002013121600000010000000000000BRBBASACNOR3239
012013100402BBDC3       010BRADESCO    ON  EJ  N1   R$  000000000349800000000035570000000003498000000000352400000000035290000000003528000000000352902253000000000000652500000000002299458100000000000000009999123100000010000000000000BRBBDCACNOR1607
012013100496BBDC3F      020BRADESCO    ON  EJ  N1   R$  000000000348900000000035460000000003450000000000350500000000035370000000003517000000000354800043000000000000000962000000000003372375000000000000009999123100000010000000000000BRBBDCACNOR1607
012013100402BBDC4       010BRADESCO    PN  EJ  N1   R$  000000000307500000000030830000000003045000000000305900000000030630000000003063000000000307309855000000000004060100000000012423026400000000000000009999123100000010000000000000BRBBDCACNPR8607
012013100496BBDC4F      020BRADESCO    PN  EJ  N1   R$  000000000307400000000030800000000003027000000000306000000000030620000000003062000000000307900179000000000000004473000000000013690128000000000000009999123100000010000000000000BRBBDCACNPR8607
012013100462BBDC4T      030BRADESCO    PN  EJ  N1017R$  000000000308500000000030860000000003059000000000307400000000030800000000000000000000000000000008000000000000038600000000000118682645000000000000009999123100000010000000000000BRBBDCACNPR8607
012013100462BBDC4T      030BRADESCO    PN  EJ  N1031R$  000000000307600000000030770000000003076000000000307600000000030770000000000000000000000000000002000000000000005000000000000015380918000000000000009999123100000010000000000000BRBBDCACNPR8607
012013100462BBDC4T      030BRADESCO    PN  EJ  N1066R$  000000000311600000000031170000000003116000000000311600000000031170000000000000000000000000000002000000000000001000000000000003116050000000000000009999123100000010000000000000BRBBDCACNPR8607
012013100478BBDCJ1      070BBDC    /EJ PN      N1000R$  000000000004100000000000410000000000034000000000003700000000000370000000000000000000000000000008000000000000007000000000000000264600000000000314202013102100000010000000000000BRBBDCACNPR8603
012013100478BBDCJ29     070BBDC    /EJ PN      N1000R$  000000000021000000000002100000000000201000000000020900000000002100000000000202000000000024800003000000000000005200000000000001091100000000000287402013102100000010000000000000BRBBDCACNPR8602
012013100478BBDCJ30     070BBDC    /EJ PN      N1000R$  000000000012800000000001430000000000116000000000012700000000001380000000000120000000000013900296000000000000276300000000000035311800000000000297402013102100000010000000000000BRBBDCACNPR8602
012013100478BBDCJ31     070BBDC    /EJ PN      N1000R$  000000000006100000000000720000000000055000000000006200000000000670000000000066000000000006800059000000000000096400000000000005999300000000000307402013102100000010000000000000BRBBDCACNPR8602
012013100478BBDCJ32     070BBDC    /EJ PN      N1000R$  000000000002300000000000280000000000021000000000002300000000000280000000000019000000000003800054000000000000114800000000000002674700000000000317402013102100000010000000000000BRBBDCACNPR8602
012013100478BBDCJ33     070BBDC    /EJ PN      N1000R$  000000000000700000000000100000000000007000000000000700000000000090000000000006000000000001000037000000000000125100000000000000958800000000000327402013102100000010000000000000BRBBDCACNPR8602
012013100478BBDCJ34     070BBDC    /EJ PN      N1000R$  000000000000200000000000040000000000002000000000000200000000000020000000000002000000000000400018000000000000027900000000000000083100000000000337002013102100000010000000000000BRBBDCACNPR8600
012013100478BBDCJ67     070BBDC    /EJ PN      N1000R$  000000000013100000000001310000000000131000000000013100000000001310000000000000000000000000000002000000000000065000000000000008515000000000000375002014102000000010000000000000BRBBDCACNPR8607
012013100478BBDCK30     070BBDC    /EJ PN      N1000R$  000000000015700000000001710000000000151000000000015600000000001550000000000155000000000020900105000000000000087900000000000013762100000000000299602013111800000010000000000000BRBBDCACNPR8605
012013100478BBDCK31     070BBDC    /EJ PN      N1000R$  000000000010300000000001070000000000095000000000010100000000001010000000000091000000000014800016000000000000026500000000000002679800000000000309602013111800000010000000000000BRBBDCACNPR8605
012013100478BBDCK32     070BBDC    /EJ PN      N1000R$  000000000006600000000000750000000000062000000000006700000000000720000000000052000000000008000025000000000000031400000000000002132100000000000317202013111800000010000000000000BRBBDCACNPR8601
012013100478BBDCK33     070BBDC    /EJ PN      N1000R$  000000000003500000000000390000000000031000000000003400000000000390000000000026000000000004900086000000000000086200000000000002996800000000000327402013111800000010000000000000BRBBDCACNPR8602
012013100478BBDCK34     070BBDC    /EJ PN      N1000R$  000000000001600000000000160000000000016000000000001600000000000160000000000012000000000000000001000000000000000700000000000000011200000000000339402013111800000010000000000000BRBBDCACNPR8604
012013100478BBDCK9      070BBDC    /EJ PN      N1000R$  000000000022000000000002200000000000220000000000022000000000002200000000000000000000000000000001000000000000000100000000000000022000000000000289602013111800000010000000000000BRBBDCACNPR8605
012013100478BBDCL1      070BBDC    /EJ PN      N1000R$  000000000016500000000001650000000000157000000000015900000000001570000000000000000000000000000003000000000000001400000000000000223800000000000307002013121600000010000000000000BRBBDCACNPR8600
012013100478BBDCL32     070BBDC    /EJ PN      N1000R$  000000000011300000000001130000000000102000000000010500000000001020000000000068000000000000000011000000000000001500000000000000158500000000000317002013121600000010000000000000BRBBDCACNPR8600
012013100478BBDCL34     070BBDC    /EJ PN      N1000R$  000000000004000000000000420000000000040000000000004000000000000420000000000000000000000000000029000000000000035000000000000001428000000000000337002013121600000010000000000000BRBBDCACNPR8600
012013100478BBDCL35     070BBDC    /EJ PN      N1000R$  000000000002400000000000260000000000024000000000002400000000000260000000000013000000000009000014000000000000003600000000000000089400000000000347002013121600000010000000000000BRBBDCACNPR8600
012013100482BBDCS28     080BBDCE   /EJ PN      N1000R$  000000000008700000000000870000000000087000000000008700000000000870000000000000000000000000000002000000000000600000000000000052200000000000000279402014072100000010000000000000BRBBDCACNPR8604
012013100482BBDCV1      080BBDCE   /EJ PN      N1000R$  000000000009200000000001100000000000092000000000009600000000000930000000000000000000000000000006000000000000002200000000000000213000000000000314202013102100000010000000000000BRBBDCACNPR8603
012013100482BBDCV29     080BBDCE   /EJ PN      N1000R$  000000000001300000000000160000000000012000000000001300000000000160000000000011000000000001700011000000000000016200000000000000210800000000000287402013102100000010000000000000BRBBDCACNPR8602
012013100482BBDCV30     080BBDCE   /EJ PN      N1000R$  000000000002600000000000330000000000025000000000002800000000000260000000000026000000000000000028000000000000033600000000000000960300000000000297402013102100000010000000000000BRBBDCACNPR8602
012013100482BBDCV31     080BBDCE   /EJ PN      N1000R$  000000000006500000000000670000000000055000000000006200000000000580000000000000000000000006600021000000000000017600000000000001105400000000000307402013102100000010000000000000BRBBDCACNPR8602
012013100482BBDCV32     080BBDCE   /EJ PN      N1000R$  000000000012300000000001370000000000110000000000012300000000001160000000000000000000000000000049000000000000075900000000000009353300000000000317402013102100000010000000000000BRBBDCACNPR8602
012013100482BBDCV57     080BBDCE   /EJ PN      N1000R$  000000000008100000000000810000000000081000000000008100000000000810000000000000000000000000000002000000000000065000000000000005265000000000000274802014102000000010000000000000BRBBDCACNPR8606
012013100482BBDCV58     080BBDCE   /EJ PN      N1000R$  000000000000900000000000090000000000009000000000000900000000000090000000000000000000000000000002000000000000004500000000000000040500000000000279602013102100000010000000000000BRBBDCACNPR8605
012013100482BBDCV60     080BBDCE   /EJ PN      N1000R$  000000000021200000000002120000000000212000000000021200000000002120000000000000000000000000000002000000000000065000000000000013780000000000000304802014102000000010000000000000BRBBDCACNPR8606
012013100482BBDCW30     080BBDCE   /EJ PN      N1000R$  000000000006600000000000700000000000060000000000006700000000000700000000000000000000000000000013000000000000020700000000000001405700000000000299602013111800000010000000000000BRBBDCACNPR8605
012013100482BBDCW31     080BBDCE   /EJ PN      N1000R$  000000000010600000000001130000000000099000000000010800000000001130000000000000000000000000000011000000000000022200000000000002412000000000000309602013111800000010000000000000BRBBDCACNPR8605
012013100482BBDCW32     080BBDCE   /EJ PN      N1000R$  000000000014900000000001570000000000136000000000014800000000001570000000000000000000000000000013000000000000023800000000000003527900000000000317202013111800000010000000000000BRBBDCACNPR8601
012013100482BBDCW9      080BBDCE   /EJ PN      N1000R$  000000000003900000000000390000000000035000000000003700000000000350000000000000000000000000000006000000000000009200000000000000346000000000000289602013111800000010000000000000BRBBDCACNPR8605
012013100482BBDCX24     080BBDCE   /EJ PN      N1000R$  000000000000600000000000060000000000006000000000000600000000000060000000000000000000000000000006000000000000007000000000000000042000000000000239402013121600000010000000000000BRBBDCACNPR8604
012013100482BBDCX25     080BBDCE   /EJ PN      N1000R$  000000000001000000000000100000000000010000000000001000000000000100000000000000000000000000000001000000000000002000000000000000020000000000000249402013121600000010000000000000BRBBDCACNPR8604
012013100482BBDCX27     080BBDCE   /EJ PN      N1000R$  000000000002300000000000230000000000021000000000002100000000000210000000000000000000000000000041000000000000100000000000000002197500000000000269402013121600000010000000000000BRBBDCACNPR8604
012013100482BBDCX54     080BBDCE   /EJ PN      N1000R$  000000000000800000000000080000000000008000000000000800000000000080000000000000000000000000000001000000000000002000000000000000016000000000000244402013121600000010000000000000BRBBDCACNPR8604
012013100412BBFI11B     010FII BB PROGRCI  ER  MB   R$  000000042200000000004220000000000422000000000042200000000004220000000000422000000000042350000002000000000000000011000000000004642000000000000000009999123100000010000000000000BRBBFICTF006199
012013100412BBPO11      010FII BB PRGIICI  ER       R$  000000001106100000000111430000000011061000000001109900000000111430000000011111000000001114300189000000000000147118000000001632982024000000000000009999123100000010000000000000BRBBPOCTF003111
012013100412BBRC11      010FII BB CORP CI  ER       R$  000000000899900000000090500000000008999000000000901700000000090500000000008872000000000905000012000000000000000177000000000001596152000000000000009999123100000010000000000000BRBBRCCTF004125
012013100402BBRK3       010BR BROKERS  ON      NM   R$  000000000058300000000005900000000000579000000000058500000000005900000000000587000000000059101266000000000000559800000000000327642700000000000000009999123100000010000000000000BRBBRKACNOR4108
012013100496BBRK3F      020BR BROKERS  ON      NM   R$  000000000057300000000006500000000000573000000000059100000000006500000000000573000000000065000009000000000000000306000000000000181082000000000000009999123100000010000000000000BRBBRKACNOR4108
012013100402BBSE3       010BBSEGURIDADEON      NM   R$  000000000216000000000021800000000002145000000000216400000000021600000000002157000000000216007601000000000003831100000000008293273100000000000000009999123100000010000000000000BRBBSEACNOR5101
012013100496BBSE3F      020BBSEGURIDADEON      NM   R$  000000000216000000000021780000000002135000000000216000000000021500000000002150000000000216300235000000000000007694000000000016624334000000000000009999123100000010000000000000BRBBSEACNOR5101
012013100462BBSE3T      030BBSEGURIDADEON      NM060R$  000000000219600000000021970000000002196000000000219600000000021970000000000000000000000000000002000000000000354100000000000777895910000000000000009999123100000010000000000000BRBBSEACNOR5101
012013100402BBTG11      010BTG PACTUAL UNT          R$  000000000283000000000028410000000002763000000000277900000000027800000000002780000000000280001220000000000001167900000000003245633500000000000000009999123100000010000000000000BRBBTGUNT007105
012013100496BBTG11F     020BTG PACTUAL UNT          R$  000000000283000000000028300000000002770000000000278200000000027710000000002725000000000299900178000000000000005290000000000014719444000000000000009999123100000010000000000000BRBBTGUNT007105
012013100462BBTG11T     030BTG PACTUAL UNT       060R$  000000000281100000000028120000000002811000000000281100000000028120000000000000000000000000000002000000000000474000000000001332761774000000000000009999123100000010000000000000BRBBTGUNT007105
012013100462BBTG11T     030BTG PACTUAL UNT       180R$  000000000291400000000029150000000002914000000000291400000000029150000000000000000000000000000002000000000000363000000000001057881462000000000000009999123100000010000000000000BRBBTGUNT007105
012013100412BBVJ11      010FII C JARDIMCI  ER       R$  000000000777300000000077730000000007773000000000777300000000077730000000007773000000000787800001000000000000000001000000000000007773000000000000009999123100000010000000000000BRBBVJCTF001134
012013100412BCFF11B     010FII BC FFII CI      MB   R$  000000000900000000000090980000000009000000000000903000000000090800000000009050000000000908000057000000000000002803000000000025311381000000000000009999123100000010000000000000BRBCFFCTF000142
012013100402BDLL4       010BARDELLA    PN           R$  000000000520200000000054980000000005202000000000535000000000054980000000005120000000000549900002000000000000000200000000000001070000000000000000009999123100000010000000000000BRBDLLACNPR8149
012013100496BDLL4F      020BARDELLA    PN           R$  000000000570000000000057000000000005700000000000570000000000057000000000005203000000000570000001000000000000000001000000000000005700000000000000009999123100000010000000000000BRBDLLACNPR8149
012013100402BEEF3       010MINERVA     ON      NM   R$  000000000100100000000010020000000000967000000000098600000000009990000000000989000000000099904530000000000001090300000000001076126600000000000000009999123100000010000000000000BRBEEFACNOR6104
012013100496BEEF3F      020MINERVA     ON      NM   R$  000000000099900000000010410000000000978000000000101400000000009780000000000985000000000104100010000000000000000310000000000000314539000000000000009999123100000010000000000000BRBEEFACNOR6104
012013100462BEEF3T      030MINERVA     ON      NM017R$  000000000098200000000009830000000000982000000000098200000000009830000000000000000000000000000002000000000000001000000000000000982010000000000000009999123100000010000000000000BRBEEFACNOR6104
012013100402BEES3       010BANESTES    ON  EJ       R$  000000000005000000000000500000000000049000000000004900000000000500000000000049000000000005000007000000000000015800000000000000788600000000000000009999123100000010000000000000BRBEESACNOR9245
012013100402BEMA3       010BEMATECH    ON      NM   R$  000000000078700000000007870000000000763000000000077000000000007690000000000769000000000077400441000000000000203100000000000156458300000000000000009999123100000010000000000000BRBEMAACNOR0114
012013100496BEMA3F      020BEMATECH    ON      NM   R$  000000000076700000000007850000000000766000000000077000000000007850000000000775000000000084800003000000000000000140000000000000107839000000000000009999123100000010000000000000BRBEMAACNOR0114
012013100402BGIP4       010BANESE      PN           R$  000000000480000000000049800000000004800000000000486000000000049800000000004800000000000498000002000000000000000300000000000001458000000000000000009999123100000010000000000000BRBGIPACNPR8179
012013100402BHGR3       010BHG         ON      NM   R$  000000000144800000000014790000000001432000000000144700000000014790000000001440000000000147900106000000000000078300000000000113337100000000000000009999123100000010000000000000BRBHGRACNOR9101
012013100402BICB4       010BICBANCO    PN      N1   R$  000000000045700000000005080000000000457000000000048700000000005080000000000508000000000050900226000000000000217200000000000105937000000000000000009999123100000010000000000000BRBICBACNPR7131
012013100496BICB4F      020BICBANCO    PN      N1   R$  000000000045100000000004990000000000451000000000049000000000004990000000000463000000000050700011000000000000000233000000000000114277000000000000009999123100000010000000000000BRBICBACNPR7131
012013100462BICB4T      030BICBANCO    PN      N1031R$  000000000047700000000004780000000000477000000000047700000000004780000000000000000000000000000002000000000000010000000000000004773654000000000000009999123100000010000000000000BRBICBACNPR7131
012013100402BIOM3       010BIOMM       ON           R$  000000000095000000000009500000000000950000000000095000000000009500000000000881000000000095000008000000000000062000000000000058900000000000000000009999123100000010000000000000BRBIOMACNOR2101
012013100496BIOM3F      020BIOMM       ON           R$  000000000096000000000009600000000000900000000000092400000000009000000000000842000000000096000002000000000000000286000000000000264540000000000000009999123100000010000000000000BRBIOMACNOR2101
012013100402BISA3       010BROOKFIELD  ON      NM   R$  000000000016000000000001610000000000155000000000015700000000001590000000000158000000000015902690000000000012910000000000002034542600000000000000009999123100000010000000000000BRBISAACNOR8109
012013100496BISA3F      020BROOKFIELD  ON      NM   R$  000000000016100000000001610000000000156000000000015700000000001570000000000156000000000017000019000000000000000674000000000000106261000000000000009999123100000010000000000000BRBISAACNOR8109
012013100462BISA3T      030BROOKFIELD  ON      NM017R$  000000000015700000000001580000000000157000000000015700000000001580000000000000000000000000000002000000000000005700000000000000899911000000000000009999123100000010000000000000BRBISAACNOR8109
012013100462BISA3T      030BROOKFIELD  ON      NM031R$  000000000015900000000001600000000000156000000000015600000000001570000000000000000000000000000004000000000000118500000000000018558657000000000000009999123100000010000000000000BRBISAACNOR8109
012013100462BISA3T      030BROOKFIELD  ON      NM090R$  000000000016100000000001620000000000159000000000016000000000001620000000000000000000000000000008000000000002000000000000000321606611000000000000009999123100000010000000000000BRBISAACNOR8109
012013100462BISA3T      030BROOKFIELD  ON      NM094R$  000000000016100000000001620000000000161000000000016100000000001620000000000000000000000000000002000000000000100000000000000016128610000000000000009999123100000010000000000000BRBISAACNOR8109
012013100462BISA3T      030BROOKFIELD  ON      NM180R$  000000000016500000000001660000000000165000000000016500000000001660000000000000000000000000000002000000000000035000000000000005787698000000000000009999123100000010000000000000BRBISAACNOR8109
012013100412BJRC11      010FII JS RECIMCI  ER       R$  000000009250000000000930000000000092500000000009250300000000930000000000084000000000009200000005000000000000000453000000000041904000000000000000009999123100000010000000000000BRBJRCCTF007111
012013100402BMEB3       010MERC BRASIL ON           R$  000000000161700000000016170000000001581000000000159900000000015810000000001580000000000168000002000000000000000600000000000000959400000000000000009999123100000010000000000000BRBMEBACNOR8190
012013100402BMKS3       010BIC MONARK  ON           R$  000000003135000000000313500000000031350000000003135000000000313500000000033000000000003500000001000000000000000001000000000000031350000000000000009999123100000010000000000000BRBMKSACNOR9155
012013100496BMTO3F      020BRASMOTOR   ON           R$  000000000009000000000000900000000000090000000000009000000000000900000000000090000000000000000001000000000000000097000000000000008730000000000000009999123100000010000000000000BRBMTOACNOR9180
012013100402BMTO4       010BRASMOTOR   PN           R$  000000000008600000000000870000000000086000000000008600000000000870000000000086000000000008700005000000000000012000000000000001033000000000000000009999123100000010000000000000BRBMTOACNPR6065
012013100496BOBR4F      020BOMBRIL     PN           R$  000000000060000000000006000000000000600000000000060000000000006000000000000554000000000062100001000000000000000029000000000000017400000000000000009999123100000010000000000000BRBOBRACNPR3127
012013100414BOVA11      010ISHARES BOVACI           R$  000000000514900000000051800000000005089000000000513400000000051700000000005150000000000517002167000000000000927970000000004764966970000000000000009999123100000010000000000000BRBOVACTF003101
012013100496BOVA11F     020ISHARES BOVACI           R$  000000000513100000000051730000000005100000000000512200000000051730000000005155000000000518500011000000000000000032000000000000163931000000000000009999123100000010000000000000BRBOVACTF003101
012013100412BPFF11      010FII ABSOLUTOCI  ER       R$  000000000820000000000082900000000008151000000000826000000000082900000000008210000000000829000019000000000000000788000000000006508992000000000000009999123100000010000000000000BRBPFFCTF002106
012013100402BPHA3       010BR PHARMA   ON      NM   R$  000000000079900000000007990000000000788000000000079500000000007970000000000795000000000079700958000000000000359500000000000285872400000000000000009999123100000010000000000000BRBPHAACNOR6102
012013100496BPHA3F      020BR PHARMA   ON      NM   R$  000000000076400000000007940000000000764000000000078900000000007900000000000762000000000079000008000000000000000232000000000000183259000000000000009999123100000010000000000000BRBPHAACNOR6102
012013100462BPHA3T      030BR PHARMA   ON      NM031R$  000000000080100000000008020000000000801000000000080100000000008020000000000000000000000000000002000000000000003000000000000002405432000000000000009999123100000010000000000000BRBPHAACNOR6102
012013100402BPNM4       010PANAMERICANOPN      N1   R$  000000000051700000000005260000000000512000000000051700000000005160000000000513000000000051600154000000000000273700000000000141771600000000000000009999123100000010000000000000BRBPNMACNPR6111
012013100496BPNM4F      020PANAMERICANOPN      N1   R$  000000000051200000000005120000000000511000000000051100000000005110000000000512000000000052400003000000000000000079000000000000040397000000000000009999123100000010000000000000BRBPNMACNPR6111
012013100402BRAP3       010BRADESPAR   ON      N1   R$  000000000200000000000020270000000001990000000000200400000000020070000000001998000000000200700029000000000000007000000000000014032800000000000000009999123100000010000000000000BRBRAPACNOR5124
012013100496BRAP3F      020BRADESPAR   ON      N1   R$  000000000201000000000020290000000001983000000000199500000000019960000000002000000000000209900009000000000000000155000000000000309373000000000000009999123100000010000000000000BRBRAPACNOR5124
012013100462BRAP3T      030BRADESPAR   ON      N1180R$  000000000209700000000020980000000002097000000000209700000000020980000000000000000000000000000002000000000000000500000000000001048600000000000000009999123100000010000000000000BRBRAPACNOR5124
012013100402BRAP4       010BRADESPAR   PN      N1   R$  000000000242100000000024650000000002407000000000243800000000024650000000002458000000000246603709000000000001050000000000002561045200000000000000009999123100000010000000000000BRBRAPACNPR2124
012013100496BRAP4F      020BRADESPAR   PN      N1   R$  000000000242000000000024640000000002410000000000242600000000024260000000002426000000000246400032000000000000000910000000000002207850000000000000009999123100000010000000000000BRBRAPACNPR2124
012013100462BRAP4T      030BRADESPAR   PN      N1090R$  000000000251500000000025160000000002515000000000251500000000025160000000000000000000000000000002000000000000030000000000000075458580000000000000009999123100000010000000000000BRBRAPACNPR2124
012013100462BRAP4T      030BRADESPAR   PN      N1360R$  000000000271300000000027140000000002713000000000271300000000027140000000000000000000000000000002000000000000001600000000000004342208000000000000009999123100000010000000000000BRBRAPACNPR2124
012013100412BRCR11      010FII BC FUND CI           R$  000000001362100000000138000000000013620000000001369400000000137650000000013765000000001379600349000000000000034935000000000478402184000000000000009999123100000010000000000000BRBRCRCTF000133
012013100402BRFS3       010BRF SA      ON      NM   R$  000000000534600000000054710000000005300000000000542000000000054710000000005445000000000547106936000000000001860300000000010084519800000000000000009999123100000010000000000000BRBRFSACNOR8110
012013100496BRFS3F      020BRF SA      ON      NM   R$  000000000535000000000054700000000005329000000000542100000000054490000000005450000000000547000130000000000000003844000000000020847190000000000000009999123100000010000000000000BRBRFSACNOR8110
012013100462BRFS3T      030BRF SA      ON      NM031R$  000000000548700000000054910000000005487000000000549000000000054910000000000000000000000000000004000000000000002500000000000013725262000000000000009999123100000010000000000000BRBRFSACNOR8110
012013100462BRFS3T      030BRF SA      ON      NM060R$  000000000543200000000054810000000005432000000000545800000000054810000000000000000000000000000006000000000000001600000000000008734387000000000000009999123100000010000000000000BRBRFSACNOR8110
012013100482BRFSM50     080BRFSE       ON      NM000R$  000000000008500000000000850000000000083000000000008400000000000830000000000000000000000000000002000000000000150000000000000012650000000000000500002014012000000010000000000000BRBRFSACNOR8110
012013100402BRGE12      010ALFA CONSORCPNF          R$  000000000034200000000003420000000000342000000000034200000000003420000000000342000000000039900001000000000000000100000000000000034200000000000000009999123100000010000000000000BRBRGEACNPF8091
012013100496BRGE12F     020ALFA CONSORCPNF          R$  000000000039900000000003990000000000399000000000039900000000003990000000000250000000000039900001000000000000000074000000000000029526000000000000009999123100000010000000000000BRBRGEACNPF8091
012013100402BRIN3       010BR INSURANCEON      NM   R$  000000000196600000000019910000000001948000000000197200000000019850000000001985000000000199800635000000000000105400000000000207892400000000000000009999123100000010000000000000BRBRINACNOR3106
012013100496BRIN3F      020BR INSURANCEON      NM   R$  000000000197500000000019750000000001950000000000196900000000019750000000001971000000000198900011000000000000000159000000000000313199000000000000009999123100000010000000000000BRBRINACNOR3106
012013100402BRKM3       010BRASKEM     ON      N1   R$  000000000126800000000012680000000001268000000000126800000000012680000000001230000000000124900001000000000000000100000000000000126800000000000000009999123100000010000000000000BRBRKMACNOR1110
012013100402BRKM5       010BRASKEM     PNA     N1   R$  000000000179600000000018060000000001756000000000178200000000018000000000001798000000000180005606000000000001243400000000002216863200000000000000009999123100000010000000000000BRBRKMACNPA4110
012013100496BRKM5F      020BRASKEM     PNA     N1   R$  000000000178000000000018050000000001728000000000176800000000017360000000001746000000000179000027000000000000000723000000000001278602000000000000009999123100000010000000000000BRBRKMACNPA4110
012013100402BRML3       010BR MALLS PARON      NM   R$  000000000201400000000020170000000001990000000000199800000000019970000000001997000000000200004353000000000002503200000000005001888100000000000000009999123100000010000000000000BRBRMLACNOR9105
012013100496BRML3F      020BR MALLS PARON      NM   R$  000000000202900000000020290000000001992000000000199800000000019990000000001997000000000200000058000000000000001682000000000003361535000000000000009999123100000010000000000000BRBRMLACNOR9105
012013100462BRML3T      030BR MALLS PARON      NM031R$  000000000201400000000020150000000002014000000000201400000000020150000000000000000000000000000002000000000000050000000000000100722975000000000000009999123100000010000000000000BRBRMLACNOR9105
012013100462BRML3T      030BR MALLS PARON      NM060R$  000000000202700000000020280000000002027000000000202700000000020280000000000000000000000000000002000000000000000700000000000001419439000000000000009999123100000010000000000000BRBRMLACNOR9105
012013100462BRML3T      030BR MALLS PARON      NM076R$  000000000203600000000020370000000002034000000000203500000000020350000000000000000000000000000008000000000000010000000000000020359454000000000000009999123100000010000000000000BRBRMLACNOR9105
012013100402BRPR3       010BR PROPERT  ON      NM   R$  000000000194000000000019730000000001920000000000195000000000019450000000001945000000000196504135000000000001451300000000002831435800000000000000009999123100000010000000000000BRBRPRACNOR9112
012013100496BRPR3F      020BR PROPERT  ON      NM   R$  000000000193000000000019670000000001888000000000193400000000019640000000001940000000000198400020000000000000000557000000000001077659000000000000009999123100000010000000000000BRBRPRACNOR9112
012013100402BRSR6       010BANRISUL    PNB     N1   R$  000000000152300000000015460000000001504000000000151700000000015350000000001531000000000153502719000000000000707600000000001073954100000000000000009999123100000010000000000000BRBRSRACNPB4134
012013100496BRSR6F      020BANRISUL    PNB     N1   R$  000000000150100000000015320000000001501000000000151300000000015310000000001501000000000155000022000000000000000445000000000000673431000000000000009999123100000010000000000000BRBRSRACNPB4134
012013100462BRSR6T      030BANRISUL    PNB     N1031R$  000000000152000000000015210000000001520000000000152000000000015210000000000000000000000000000002000000000000000230000000000000349742000000000000009999123100000010000000000000BRBRSRACNPB4134
012013100402BSEV3       010BIOSEV      ON      NM   R$  000000000092900000000009290000000000900000000000091200000000009000000000000817000000000090000005000000000000005300000000000004837800000000000000009999123100000010000000000000BRBSEVACNOR3100
012013100496BSEV3F      020BIOSEV      ON      NM   R$  000000000090000000000009000000000000900000000000090000000000009000000000000850000000000092600001000000000000000030000000000000027000000000000000009999123100000010000000000000BRBSEVACNOR3100
012013100402BSLI3       010BRB BANCO   ON           R$  000000000290200000000029020000000002902000000000290200000000029020000000002901000000000000000001000000000000000500000000000001451000000000000000009999123100000010000000000000BRBSLIACNOR5147
012013100402BTOW3       010B2W DIGITAL ON      NM   R$  000000000147100000000014830000000001451000000000146600000000014660000000001466000000000147200620000000000000171900000000000252145000000000000000009999123100000010000000000000BRBTOWACNOR8105
012013100496BTOW3F      020B2W DIGITAL ON      NM   R$  000000000147000000000014770000000001401000000000144700000000014650000000001457000000000147800013000000000000000242000000000000350899000000000000009999123100000010000000000000BRBTOWACNOR8105
012013100462BTOW3T      030B2W DIGITAL ON      NM017R$  000000000147800000000014790000000001478000000000147800000000014790000000000000000000000000000002000000000000002000000000000002956464000000000000009999123100000010000000000000BRBTOWACNOR8105
012013100402BTTL4       010BATTISTELLA PN           R$  000000000009600000000000970000000000096000000000009600000000000970000000000093000000000009700002000000000000000200000000000000019300000000000000009999123100000010000000000000BRBTTLACNPR7105
012013100402BVMF3       010BMFBOVESPA  ON      NM   R$  000000000124900000000012790000000001244000000000126200000000012650000000001265000000000126611296000000000005951000000000007513190500000000000000009999123100000010000000000000BRBVMFACNOR3126
012013100496BVMF3F      020BMFBOVESPA  ON      NM   R$  000000000124500000000012800000000001243000000000125900000000012800000000001250000000000128000121000000000000004002000000000005041694000000000000009999123100000010000000000000BRBVMFACNOR3126
012013100462BVMF3T      030BMFBOVESPA  ON      NM017R$  000000000127000000000012710000000001270000000000127000000000012710000000000000000000000000000002000000000000200000000000000254087900000000000000009999123100000010000000000000BRBVMFACNOR3126
012013100462BVMF3T      030BMFBOVESPA  ON      NM031R$  000000000127100000000012720000000001271000000000127100000000012720000000000000000000000000000002000000000000010000000000000012718410000000000000009999123100000010000000000000BRBVMFACNOR3126
012013100462BVMF3T      030BMFBOVESPA  ON      NM060R$  000000000128700000000012880000000001287000000000128700000000012880000000000000000000000000000002000000000000015000000000000019312911000000000000009999123100000010000000000000BRBVMFACNOR3126
012013100462BVMF3T      030BMFBOVESPA  ON      NM090R$  000000000128600000000012870000000001286000000000128600000000012870000000000000000000000000000002000000000000250000000000000321646500000000000000009999123100000010000000000000BRBVMFACNOR3126
012013100478BVMFA13     070BVMF        ON      NM000R$  000000000007400000000000740000000000074000000000007400000000000740000000000000000000000000000003000000000000007000000000000000518000000000000130002014012000000010000000000000BRBVMFACNOR3126
012013100478BVMFJ12     070BVMF  FM    ON      NM000R$  000000000007700000000001020000000000077000000000009000000000001020000000000071000000000010600149000000000000229300000000000020756600000000000118502013102100000010000000000000BRBVMFACNOR3125
012013100478BVMFJ13     070BVMF  FM    ON      NM000R$  000000000002000000000000290000000000017000000000002300000000000250000000000025000000000003000151000000000000435400000000000010266500000000000128502013102100000010000000000000BRBVMFACNOR3125
012013100478BVMFJ14     070BVMF  FM    ON      NM000R$  000000000000200000000000030000000000002000000000000200000000000030000000000002000000000000300027000000000000096300000000000000283400000000000138502013102100000010000000000000BRBVMFACNOR3125
012013100478BVMFJ42     070BVMF  FM    ON      NM000R$  000000000004100000000000620000000000041000000000005300000000000620000000000025000000000123500019000000000000054400000000000002888600000000000123502013102100000010000000000000BRBVMFACNOR3125
012013100478BVMFJ43     070BVMF  FM    ON      NM000R$  000000000000800000000000100000000000008000000000000900000000000100000000000007000000000000000010000000000000024400000000000000219800000000000133502013102100000010000000000000BRBVMFACNOR3125
012013100478BVMFJ44     070BVMF        ON      NM000R$  000000000000100000000000010000000000001000000000000100000000000010000000000001000000000000200001000000000000002000000000000000002000000000000145002013102100000010000000000000BRBVMFACNOR3126
012013100478BVMFK12     070BVMF  FM    ON      NM000R$  000000000010100000000001220000000000101000000000011300000000001140000000000000000000000012500033000000000000057700000000000006547200000000000118502013111800000010000000000000BRBVMFACNOR3125
012013100478BVMFK13     070BVMF  FM    ON      NM000R$  000000000003900000000000510000000000039000000000004600000000000510000000000043000000000005400059000000000000129900000000000005981700000000000128502013111800000010000000000000BRBVMFACNOR3125
012013100478BVMFK14     070BVMF  FM    ON      NM000R$  000000000001000000000000140000000000010000000000001000000000000130000000000013000000000001500108000000000000279300000000000003032100000000000138502013111800000010000000000000BRBVMFACNOR3125
012013100478BVMFK42     070BVMF  FM    ON      NM000R$  000000000006100000000000730000000000059000000000006900000000000730000000000000000000000007400015000000000000040300000000000002799400000000000125002013111800000010000000000000BRBVMFACNOR3126
012013100478BVMFK43     070BVMF  FM    ON      NM000R$  000000000001800000000000240000000000018000000000002100000000000240000000000001000000000002500010000000000000014200000000000000300700000000000135002013111800000010000000000000BRBVMFACNOR3126
012013100478BVMFL13     070BVMF        ON      NM000R$  000000000006200000000000630000000000062000000000006200000000000630000000000000000000000000000002000000000000100000000000000006256000000000000128502013121600000010000000000000BRBVMFACNOR3125
012013100478BVMFL64     070BVMF        ON      NM000R$  000000000000800000000000080000000000008000000000000800000000000080000000000000000000000000000002000000000000030000000000000000240000000000000140002013121600000010000000000000BRBVMFACNOR3126
012013100482BVMFV12     080BVMFE FM    ON      NM000R$  000000000001100000000000110000000000007000000000000800000000000070000000000006000000000000800014000000000000021600000000000000192100000000000118502013102100000010000000000000BRBVMFACNOR3125
012013100482BVMFV13     080BVMFE FM    ON      NM000R$  000000000004900000000000490000000000033000000000004300000000000340000000000001000000000008200043000000000000094100000000000004055300000000000128502013102100000010000000000000BRBVMFACNOR3125
012013100482BVMFV41     080BVMFE FM    ON      NM000R$  000000000000500000000000050000000000004000000000000400000000000040000000000000000000000000000014000000000000035500000000000000153700000000000113502013102100000010000000000000BRBVMFACNOR3125
012013100482BVMFV42     080BVMFE FM    ON      NM000R$  000000000002500000000000280000000000017000000000001900000000000280000000000001000000000002800025000000000000050600000000000000988600000000000123502013102100000010000000000000BRBVMFACNOR3125
012013100482BVMFV43     080BVMFE       ON      NM000R$  000000000008000000000000800000000000080000000000008000000000000800000000000000000000000000000001000000000000003500000000000000280000000000000133502013102100000010000000000000BRBVMFACNOR3125
012013100482BVMFW13     080BVMFE FM    ON      NM000R$  000000000006100000000000610000000000061000000000006100000000000610000000000000000000000025000002000000000000005500000000000000335500000000000128502013111800000010000000000000BRBVMFACNOR3125
012013100482BVMFW41     080BVMFE FM    ON      NM000R$  000000000001900000000000190000000000014000000000001500000000000140000000000000000000000000000023000000000000026100000000000000396900000000000115002013111800000010000000000000BRBVMFACNOR3126
012013100482BVMFW42     080BVMFE FM    ON      NM000R$  000000000004400000000000440000000000036000000000004000000000000360000000000000000000000000000005000000000000008300000000000000334900000000000125002013111800000010000000000000BRBVMFACNOR3126
012013100482BVMFX11     080BVMFE       ON      NM000R$  000000000001400000000000140000000000014000000000001400000000000140000000000000000000000000000004000000000000005400000000000000075600000000000108502013121600000010000000000000BRBVMFACNOR3125
012013100482BVMFX2      080BVMFE       ON      NM000R$  000000000003100000000000310000000000031000000000003100000000000310000000000000000000000000000002000000000000003600000000000000111600000000000117402013121600000010000000000000BRBVMFACNOR3124
012013100482BVMFX41     080BVMFE       ON      NM000R$  000000000002400000000000240000000000024000000000002400000000000240000000000000000000000000000001000000000000001900000000000000045600000000000115002013121600000010000000000000BRBVMFACNOR3126
012013100482BVMFX62     080BVMFE       ON      NM000R$  000000000003200000000000320000000000032000000000003200000000000320000000000000000000000000000002000000000000030000000000000000960000000000000120002013121600000010000000000000BRBVMFACNOR3126
012013100496CALI4F      020CONST A LINDPN           R$  000000001500200000000150020000000015002000000001500200000000150020000000015001000000002500000002000000000000000002000000000000030004000000000000009999123100000010000000000000BRCALIACNPR8131
012013100402CARD3       010CSU CARDSYSTON      NM   R$  000000000030900000000003140000000000306000000000030900000000003140000000000301000000000031400014000000000000006000000000000001855300000000000000009999123100000010000000000000BRCARDACNOR9105
012013100496CARD3F      020CSU CARDSYSTON      NM   R$  000000000031100000000003110000000000311000000000031100000000003110000000000304000000000034300001000000000000000024000000000000007464000000000000009999123100000010000000000000BRCARDACNOR9105
012013100402CBEE3       010AMPLA ENERG ON *         R$  000000000013000000000001300000000000130000000000013000000000001300000000000120000000000013000001000000000003900000000000000000507000000000000000009999123100010000000000000000BRCBEEACNOR3149
012013100402CBMA3       010COBRASMA    ON           R$  000000000000500000000000050000000000005000000000000500000000000050000000000004000000000000600001000000000000010000000000000000050000000000000000009999123100000010000000000000BRCBMAACNOR4124
012013100408CCHI3       010CHIARELLI   ON           R$  000000000002300000000000230000000000021000000000002200000000000220000000000021000000000002200047000000000000730000000000000016170000000000000000009999123100000010000000000000BRCCHIACNOR5123
012013100496CCHI3F      020CHIARELLI   ON           R$  000000000002300000000000240000000000021000000000002200000000000220000000000022000000000002300018000000000000051000000000000001135000000000000000009999123100000010000000000000BRCCHIACNOR5123
012013100408CCHI4       010CHIARELLI   PN           R$  000000000001500000000000150000000000015000000000001500000000000150000000000013000000000001500001000000000000020000000000000000300000000000000000009999123100000010000000000000BRCCHIACNPR2122
012013100496CCHI4F      020CHIARELLI   PN           R$  000000000001400000000000150000000000014000000000001400000000000150000000000010000000000001500002000000000000005000000000000000073029000000000000009999123100000010000000000000BRCCHIACNPR2122
012013100402CCRO3       010CCR SA      ON  ED  NM   R$  000000000176100000000018090000000001759000000000179000000000017870000000001786000000000178707462000000000002248000000000004026142900000000000000009999123100000010000000000000BRCCROACNOR2123
012013100496CCRO3F      020CCR SA      ON  ED  NM   R$  000000000175100000000018080000000001751000000000178200000000017870000000001787000000000180500043000000000000001227000000000002187545000000000000009999123100000010000000000000BRCCROACNOR2123
012013100462CCRO3T      030CCR SA      ON  ED  NM031R$  000000000179800000000017990000000001798000000000179800000000017990000000000000000000000000000002000000000000056000000000000100726114000000000000009999123100000010000000000000BRCCROACNOR2123
012013100478CCROJ48     070CCRO    /ED ON      NM000R$  000000000004500000000000450000000000045000000000004500000000000450000000000000000000000000000001000000000000002000000000000000090000000000000178202013102100000010000000000000BRCCROACNOR2122
012013100478CCROK19     070CCRO    /ED ON      NM000R$  000000000005000000000000500000000000040000000000004000000000000400000000000000000000000000000002000000000000062000000000000002500000000000000183202013111800000010000000000000BRCCROACNOR2122
012013100478CCROK20     070CCRO    /ED ON      NM000R$  000000000003400000000000340000000000034000000000003400000000000340000000000000000000000000000001000000000000020000000000000000680000000000000193202013111800000010000000000000BRCCROACNOR2122
012013100478CCROK50     070CCRO    /ED ON      NM000R$  000000000001200000000000120000000000012000000000001200000000000120000000000000000000000000000001000000000000020000000000000000240000000000000198202013111800000010000000000000BRCCROACNOR2122
012013100402CCXC3       010CCX CARVAO  ON      NM   R$  000000000015400000000001580000000000143000000000015000000000001570000000000157000000000015800935000000000003138100000000000473540500000000000000009999123100000010000000000000BRCCXCACNOR5100
012013100496CCXC3F      020CCX CARVAO  ON      NM   R$  000000000015100000000001510000000000145000000000014700000000001480000000000145000000000014800008000000000000000320000000000000047282000000000000009999123100000010000000000000BRCCXCACNOR5100
012013100462CCXC3T      030CCX CARVAO  ON      NM017R$  000000000015800000000001590000000000158000000000015800000000001590000000000000000000000000000002000000000000007500000000000001189859000000000000009999123100000010000000000000BRCCXCACNOR5100
012013100402CEDO4       010CEDRO       PN      N1   R$  000000000092500000000009350000000000925000000000093000000000009350000000000880000000000093500002000000000000000200000000000000186000000000000000009999123100000010000000000000BRCEDOACNPR5126
012013100412CEOC11B     010FII CEO CCP CI      MB   R$  000000000873500000000088500000000008730000000000879400000000088500000000008770000000000885000045000000000000003960000000000034824745000000000000009999123100000010000000000000BRCEOCCTF003110
012013100402CESP3       010CESP        ON      N1   R$  000000000204500000000020450000000002000000000000204300000000020300000000001960000000000203400005000000000000010100000000000020638700000000000000009999123100000010000000000000BRCESPACNOR3160
012013100462CESP3T      030CESP        ON      N1045R$  000000000206800000000020690000000002068000000000206800000000020690000000000000000000000000000002000000000000009700000000000020068687000000000000009999123100000010000000000000BRCESPACNOR3160
012013100402CESP5       010CESP        PNA     N1   R$  000000000226400000000022670000000002208000000000225100000000022080000000002180000000000233800019000000000000006800000000000015309700000000000000009999123100000010000000000000BRCESPACNPA6108
012013100402CESP6       010CESP        PNB     N1   R$  000000000225800000000022700000000002191000000000221700000000022050000000002203000000000220703893000000000000948700000000002103649900000000000000009999123100000010000000000000BRCESPACNPB4119
012013100496CESP6F      020CESP        PNB     N1   R$  000000000224800000000023040000000002154000000000223100000000021540000000002154000000000228900031000000000000000885000000000001974490000000000000009999123100000010000000000000BRCESPACNPB4119
012013100462CESP6T      030CESP        PNB     N1090R$  000000000231300000000023140000000002313000000000231300000000023140000000000000000000000000000002000000000000004000000000000009253894000000000000009999123100000010000000000000BRCESPACNPB4119
012013100402CGAS5       010COMGAS      PNA          R$  000000000582100000000058790000000005706000000000577800000000058470000000005809000000000586700180000000000000025100000000000145028900000000000000009999123100000010000000000000BRCGASACNPA3129
012013100496CGAS5F      020COMGAS      PNA          R$  000000000582200000000058220000000005780000000000581900000000057800000000005503000000000609800005000000000000000067000000000000389888000000000000009999123100000010000000000000BRCGASACNPA3129
012013100402CGRA4       010GRAZZIOTIN  PN           R$  000000000178000000000017860000000001766000000000177900000000017860000000001772000000000178800008000000000000003100000000000005517600000000000000009999123100000010000000000000BRCGRAACNPR9061
012013100496CGRA4F      020GRAZZIOTIN  PN           R$  000000000176500000000017650000000001765000000000176500000000017650000000001760000000000176500003000000000000000015000000000000026475000000000000009999123100000010000000000000BRCGRAACNPR9061
012013100402CHVX34      010CHEVRON     DRN          R$  000000002610000000000261000000000026100000000002610000000000261000000000025852000000002688500001000000000000000100000000000002610000000000000000009999123100000010000000000000BRCHVXBDR008109
012013100402CIEL3       010CIELO       ON      NM   R$  000000000620000000000062800000000006166000000000624300000000062740000000006264000000000627406245000000000001492400000000009318396700000000000000009999123100000010000000000000BRCIELACNOR3112
012013100496CIEL3F      020CIELO       ON      NM   R$  000000000616100000000062800000000006161000000000623900000000062800000000006248000000000628000138000000000000003365000000000020997944000000000000009999123100000010000000000000BRCIELACNOR3112
012013100462CIEL3T      030CIELO       ON      NM090R$  000000000633300000000063990000000006333000000000638800000000063990000000000000000000000000000014000000000000300000000000001916501580000000000000009999123100000010000000000000BRCIELACNOR3112
012013100402CIQU3       010CACIQUE     ON           R$  000000000065000000000006500000000000650000000000065000000000006500000000000601000000000000000001000000000000005000000000000003250000000000000000009999123100000010000000000000BRCIQUACNOR8157
012013100402CLSC4       010CELESC      PN      N2   R$  000000000179200000000017920000000001775000000000178100000000017750000000001775000000000178500034000000000000010900000000000019417500000000000000009999123100000010000000000000BRCLSCACNPR3107
012013100496CLSC4F      020CELESC      PN      N2   R$  000000000175000000000017500000000001654000000000166600000000016540000000001655000000000177000002000000000000000024000000000000039984000000000000009999123100000010000000000000BRCLSCACNPR3107
012013100402CMIG3       010CEMIG       ON      N1   R$  000000000188900000000019390000000001883000000000192000000000019320000000001932000000000193800178000000000000049300000000000094673000000000000000009999123100000010000000000000BRCMIGACNOR6208
012013100496CMIG3F      020CEMIG       ON      N1   R$  000000000190000000000019400000000001890000000000191700000000019400000000001932000000000194000027000000000000000642000000000001230797000000000000009999123100000010000000000000BRCMIGACNOR6208
012013100402CMIG4       010CEMIG       PN      N1   R$  000000000192500000000019850000000001925000000000196600000000019830000000001982000000000198308641000000000003979000000000007825690800000000000000009999123100000010000000000000BRCMIGACNPR3208
012013100496CMIG4F      020CEMIG       PN      N1   R$  000000000192500000000019880000000001925000000000196300000000019840000000001982000000000198400196000000000000004794000000000009416238000000000000009999123100000010000000000000BRCMIGACNPR3208
012013100462CMIG4T      030CEMIG       PN      N1031R$  000000000195300000000019980000000001953000000000198700000000019980000000000000000000000000000018000000000000034300000000000068155969000000000000009999123100000010000000000000BRCMIGACNPR3208
012013100462CMIG4T      030CEMIG       PN      N1090R$  000000000199900000000020000000000001999000000000199900000000020000000000000000000000000000000002000000000000002800000000000005599955000000000000009999123100000010000000000000BRCMIGACNPR3208
012013100462CMIG4T      030CEMIG       PN      N1180R$  000000000206400000000020650000000002064000000000206400000000020650000000000000000000000000000002000000000000002000000000000004128205000000000000009999123100000010000000000000BRCMIGACNPR3208
012013100478CMIGJ20     070CMIG        PN      N1000R$  000000000002200000000000220000000000022000000000002200000000000220000000000003000000000003000004000000000000004000000000000000088000000000000200002013102100000010000000000000BRCMIGACNPR3208
012013100478CMIGJ54     070CMIG        PN      N1000R$  000000000000600000000000060000000000006000000000000600000000000060000000000000000000000000000001000000000000002900000000000000017400000000000204402013102100000010000000000000BRCMIGACNPR3207
012013100412CNES11B     010FII CENESP  CI      MB   R$  000000001250000000000125000000000012400000000001240800000000124000000000012400000000001250000006000000000000000103000000000001278070000000000000009999123100000010000000000000BRCNESCTF001126
012013100402COCE3       010COELCE      ON           R$  000000000401100000000040750000000004000000000000402400000000040600000000004001000000000413800021000000000000004100000000000016501200000000000000009999123100000010000000000000BRCOCEACNOR0132
012013100402COCE5       010COELCE      PNA          R$  000000000386500000000039070000000003790000000000380800000000038400000000003839000000000384000176000000000000139600000000000531631400000000000000009999123100000010000000000000BRCOCEACNPA3133
012013100496COCE5F      020COELCE      PNA          R$  000000000375800000000038450000000003758000000000378400000000038200000000003820000000000382800018000000000000000282000000000001067141000000000000009999123100000010000000000000BRCOCEACNPA3133
012013100402CPFE3       010CPFL ENERGIAON      NM   R$  000000000193900000000019400000000001916000000000192500000000019250000000001924000000000192602835000000000000524600000000001010081800000000000000009999123100000010000000000000BRCPFEACNOR0122
012013100496CPFE3F      020CPFL ENERGIAON      NM   R$  000000000191400000000019300000000001912000000000192200000000019280000000001916000000000194900034000000000000000998000000000001918594000000000000009999123100000010000000000000BRCPFEACNOR0122
012013100462CPFE3T      030CPFL ENERGIAON      NM045R$  000000000194500000000019460000000001945000000000194500000000019460000000000000000000000000000002000000000000020600000000000040072356000000000000009999123100000010000000000000BRCPFEACNOR0122
012013100462CPFE3T      030CPFL ENERGIAON      NM060R$  000000000194700000000019480000000001947000000000194700000000019480000000000000000000000000000002000000000000002000000000000003894555000000000000009999123100000010000000000000BRCPFEACNOR0122
012013100462CPFE3T      030CPFL ENERGIAON      NM122R$  000000000199000000000019910000000001990000000000199000000000019910000000000000000000000000000004000000000000004000000000000007960590000000000000009999123100000010000000000000BRCPFEACNOR0122
012013100402CPLE3       010COPEL       ON      N1   R$  000000000226600000000022950000000002248000000000226900000000022950000000002250000000000229500193000000000000045300000000000102794900000000000000009999123100000010000000000000BRCPLEACNOR8128
012013100402CPLE6       010COPEL       PNB     N1   R$  000000000307000000000031230000000003070000000000308800000000031070000000003107000000000311501319000000000000762700000000002355721700000000000000009999123100000010000000000000BRCPLEACNPB9125
012013100496CPLE6F      020COPEL       PNB     N1   R$  000000000309100000000030910000000003061000000000308100000000030870000000003087000000000317500016000000000000000541000000000001667020000000000000009999123100000010000000000000BRCPLEACNPB9125
012013100402CPRE3       010CPFL RENOVAVON      NM   R$  000000000137800000000013780000000001360000000000136100000000013600000000001200000000000136000015000000000000003400000000000004628700000000000000009999123100000010000000000000BRCPREACNOR5100
012013100496CPRE3F      020CPFL RENOVAVON      NM   R$  000000000122000000000013690000000001220000000000129400000000013690000000001230000000000136900008000000000000000101000000000000130712000000000000009999123100000010000000000000BRCPREACNOR5100
012013100402CRDE3       010CR2         ON      NM   R$  000000000040000000000004000000000000398000000000039800000000003980000000000390000000000039800003000000000000000300000000000000119600000000000000009999123100000010000000000000BRCRDEACNOR1108
012013100402CREM3       010CREMER      ON      NM   R$  000000000147000000000014840000000001449000000000146700000000014560000000001402000000000148000089000000000000012200000000000017898500000000000000009999123100000010000000000000BRCREMACNOR2167
012013100496CREM3F      020CREMER      ON      NM   R$  000000000139500000000013950000000001350000000000135600000000013500000000001350000000000155100004000000000000000082000000000000111195000000000000009999123100000010000000000000BRCREMACNOR2167
012013100402CRIV4       010ALFA FINANC PN           R$  000000000043500000000004450000000000430000000000043800000000004450000000000425000000000044800015000000000000005900000000000002586900000000000000009999123100000010000000000000BRCRIVACNPR1190
012013100402CRUZ3       010SOUZA CRUZ  ON  EJ       R$  000000000254900000000025830000000002519000000000254000000000025210000000002521000000000252505470000000000001364900000000003467389400000000000000009999123100000010000000000000BRCRUZACNOR0248
012013100496CRUZ3F      020SOUZA CRUZ  ON  EJ       R$  000000000255000000000025810000000002524000000000254700000000025400000000002524000000000257600056000000000000001611000000000004101307000000000000009999123100000010000000000000BRCRUZACNOR0248
012013100462CRUZ3S      030SOUZA CRUZ  ON  EJ    090R$  000000000261200000000026130000000002612000000000261200000000026130000000000000000000000000000002000000000000010200000000000026652573000000000000009999123100000010000000000000BRCRUZACNOR0248
012013100402CSAB3       010SEG AL BAHIAON           R$  000000000300100000000030010000000003000000000000300000000000030000000000000000000000000000000005000000000000004400000000000013201700000000000000009999123100000010000000000000BRCSABACNOR1051
012013100462CSAB3T      030SEG AL BAHIAON        180R$  000000000314600000000031470000000003145000000000314600000000031460000000000000000000000000000010000000000000003800000000000011955823000000000000009999123100000010000000000000BRCSABACNOR1051
012013100402CSAN3       010COSAN       ON      NM   R$  000000000434300000000043660000000004251000000000429900000000043350000000004335000000000435603795000000000000957300000000004115952400000000000000009999123100000010000000000000BRCSANACNOR6108
012013100496CSAN3F      020COSAN       ON      NM   R$  000000000434200000000043980000000004255000000000431900000000043600000000004375000000000444500046000000000000001022000000000004417776000000000000009999123100000010000000000000BRCSANACNOR6108
012013100462CSAN3T      030COSAN       ON      NM017R$  000000000431700000000043180000000004317000000000431700000000043180000000000000000000000000000002000000000000000500000000000002158815000000000000009999123100000010000000000000BRCSANACNOR6108
012013100402CSMG3       010COPASA      ON  EJ  NM   R$  000000000348700000000035210000000003410000000000347400000000034500000000003450000000000348601408000000000000220100000000000764708500000000000000009999123100000010000000000000BRCSMGACNOR5128
012013100496CSMG3F      020COPASA      ON  EJ  NM   R$  000000000330200000000035250000000003302000000000346300000000035250000000003400000000000352500017000000000000000510000000000001766490000000000000009999123100000010000000000000BRCSMGACNOR5128
012013100414CSMO11      010ISHARES CSMOCI           R$  000000000471500000000047150000000004715000000000471500000000047150000000004710000000000485000001000000000000000100000000000000471500000000000000009999123100000010000000000000BRCSMOCTF002100
012013100402CSNA3       010SID NACIONALON           R$  000000000095300000000009850000000000950000000000097000000000009780000000000978000000000097913712000000000007098400000000006886465900000000000000009999123100000010000000000000BRCSNAACNOR6243
012013100496CSNA3F      020SID NACIONALON           R$  000000000095000000000009820000000000950000000000096700000000009700000000000970000000000097600081000000000000002426000000000002347759000000000000009999123100000010000000000000BRCSNAACNOR6243
012013100462CSNA3T      030SID NACIONALON        031R$  000000000097400000000009750000000000974000000000097400000000009750000000000000000000000000000002000000000000002000000000000001948118000000000000009999123100000010000000000000BRCSNAACNOR6243
012013100462CSNA3T      030SID NACIONALON        090R$  000000000099700000000009980000000000997000000000099700000000009980000000000000000000000000000002000000000000010000000000000009977648000000000000009999123100000010000000000000BRCSNAACNOR6243
012013100478CSNAJ10     070CSNA  FM    ON        000R$  000000000001400000000000250000000000013000000000001900000000000230000000000016000000000002500019000000000000049000000000000000967000000000000100002013102100000010000000000000BRCSNAACNOR6243
012013100478CSNAJ40     070CSNA        ON        000R$  000000000000800000000000080000000000008000000000000800000000000080000000000005000000000000000001000000000000008000000000000000064000000000000104002013102100000010000000000000BRCSNAACNOR6243
012013100478CSNAJ60     070CSNA        ON        000R$  000000000000400000000000070000000000004000000000000500000000000070000000000000000000000001000008000000000000018000000000000000097500000000000106002013102100000010000000000000BRCSNAACNOR6243
012013100478CSNAJ8      070CSNA        ON        000R$  000000000017900000000001790000000000179000000000017900000000001790000000000181000000000000000001000000000000007100000000000001270900000000000078002013102100000010000000000000BRCSNAACNOR6242
012013100478CSNAJ92     070CSNA  FM    ON        000R$  000000000007400000000000740000000000074000000000007400000000000740000000000000000000000000000001000000000000001000000000000000074000000000000092002013102100000010000000000000BRCSNAACNOR6243
012013100478CSNAJ94     070CSNA  FM    ON        000R$  000000000005100000000000550000000000051000000000005300000000000550000000000000000000000000000002000000000000001400000000000000075400000000000094002013102100000010000000000000BRCSNAACNOR6243
012013100478CSNAJ96     070CSNA  FM    ON        000R$  000000000003400000000000340000000000034000000000003400000000000340000000000000000000000000000001000000000000003000000000000000102000000000000096002013102100000010000000000000BRCSNAACNOR6243
012013100478CSNAJ98     070CSNA  FM    ON        000R$  000000000002200000000000340000000000022000000000002400000000000340000000000021000000000000000008000000000000022500000000000000548500000000000098002013102100000010000000000000BRCSNAACNOR6243
012013100478CSNAK10     070CSNA  FM    ON        000R$  000000000004700000000000570000000000047000000000005200000000000570000000000000000000000008200103000000000000223300000000000011821300000000000098002013111800000010000000000000BRCSNAACNOR6242
012013100478CSNAK20     070CSNA        ON        000R$  000000000003200000000000340000000000032000000000003300000000000340000000000000000000000000000004000000000000013700000000000000455800000000000102002013111800000010000000000000BRCSNAACNOR6243
012013100478CSNAK40     070CSNA        ON        000R$  000000000002500000000000310000000000025000000000002600000000000310000000000000000000000003100002000000000000006000000000000000156000000000000104002013111800000010000000000000BRCSNAACNOR6243
012013100478CSNAK60     070CSNA        ON        000R$  000000000002000000000000200000000000019000000000001900000000000190000000000000000000000000000002000000000000005000000000000000096000000000000106002013111800000010000000000000BRCSNAACNOR6243
012013100478CSNAK9      070CSNA        ON        000R$  000000000009500000000001110000000000095000000000011000000000001100000000000000000000000000000006000000000000010600000000000001173500000000000090002013111800000010000000000000BRCSNAACNOR6243
012013100478CSNAK92     070CSNA  FM    ON        000R$  000000000008300000000000900000000000083000000000008900000000000900000000000000000000000000000004000000000000011500000000000001024500000000000092002013111800000010000000000000BRCSNAACNOR6243
012013100478CSNAK94     070CSNA  FM    ON        000R$  000000000007600000000000760000000000076000000000007600000000000760000000000000000000000000000002000000000000002800000000000000212800000000000094002013111800000010000000000000BRCSNAACNOR6243
012013100478CSNAK96     070CSNA  FM    ON        000R$  000000000006700000000000670000000000067000000000006700000000000670000000000000000000000000000002000000000000000700000000000000046900000000000096002013111800000010000000000000BRCSNAACNOR6243
012013100482CSNAV10     080CSNAE       ON        000R$  000000000004400000000000440000000000037000000000003900000000000370000000000036000000000007600008000000000000002200000000000000087700000000000100002013102100000010000000000000BRCSNAACNOR6243
012013100482CSNAV9      080CSNAE       ON        000R$  000000000000700000000000070000000000005000000000000500000000000050000000000005000000000000600003000000000000005500000000000000028500000000000088002013102100000010000000000000BRCSNAACNOR6242
012013100482CSNAV98     080CSNAE FM    ON        000R$  000000000003800000000000380000000000032000000000003400000000000320000000000000000000000000000012000000000000024000000000000000816000000000000098002013102100000010000000000000BRCSNAACNOR6243
012013100482CSNAW8      080CSNAE       ON        000R$  000000000000600000000000060000000000006000000000000600000000000060000000000005000000000000000001000000000000001000000000000000006000000000000078002013111800000010000000000000BRCSNAACNOR6242
012013100482CSNAW9      080CSNAE       ON        000R$  000000000003000000000000300000000000022000000000002600000000000220000000000021000000000003000039000000000000017200000000000000450800000000000090002013111800000010000000000000BRCSNAACNOR6243
012013100482CSNAW96     080CSNAE FM    ON        000R$  000000000004700000000000470000000000044000000000004500000000000440000000000000000000000000000003000000000000005000000000000000226000000000000096002013111800000010000000000000BRCSNAACNOR6243
012013100496CSRN5F      020COSERN      PNA          R$  000000000092100000000009210000000000921000000000092100000000009210000000000920000000000118300001000000000000000001000000000000000921000000000000009999123100000010000000000000BRCSRNACNPA3148
012013100402CTAX11      010CONTAX      UNT     N2   R$  000000000186600000000018900000000001851000000000187700000000018900000000001870000000000189000048000000000000018300000000000034363900000000000000009999123100000010000000000000BRCTAXCDAM19100
012013100402CTAX3       010CONTAX      ON      N2   R$  000000000039800000000004400000000000398000000000040800000000004400000000000372000000000044000015000000000000005700000000000002326700000000000000009999123100000010000000000000BRCTAXACNOR3113
012013100402CTAX4       010CONTAX      PN      N2   R$  000000000037000000000003700000000000362000000000036600000000003700000000000363000000000037000050000000000000028900000000000010591100000000000000009999123100000010000000000000BRCTAXACNPR0114
012013100496CTAX4F      020CONTAX      PN      N2   R$  000000000037000000000003720000000000370000000000037000000000003720000000000343000000000036400002000000000000000060000000000000022220000000000000009999123100000010000000000000BRCTAXACNPR0114
012013100402CTIP3       010CETIP       ON      NM   R$  000000000234900000000023560000000002305000000000232300000000023420000000002340000000000234205345000000000001319300000000003065465400000000000000009999123100000010000000000000BRCTIPACNOR2120
012013100496CTIP3F      020CETIP       ON      NM   R$  000000000235000000000023570000000002308000000000232600000000023150000000002315000000000235000176000000000000005704000000000013272756000000000000009999123100000010000000000000BRCTIPACNOR2120
012013100478CTIPA22     070CTIP        ON      NM000R$  000000000025000000000002500000000000250000000000025000000000002500000000000000000000000000000001000000000000077000000000000019250000000000000220002014012000000010000000000000BRCTIPACNOR2120
012013100402CTNM4       010COTEMINAS   PN           R$  000000000022500000000002250000000000225000000000022500000000002250000000000220000000000022800003000000000000001200000000000000270000000000000000009999123100000010000000000000BRCTNMACNPR6128
012013100412CXCE11B     010FII CX CEDAECI  ER  MB   R$  000000019000200000001900020000000190000000000019000000000001900000000000170000000000019400000002000000000000000012000000000002280004000000000000009999123100000010000000000000BRCXCECTF004139
012013100412CXTL11      010FII CX TRX  CI  ER       R$  000000007285000000000729000000000072850000000007288700000000729000000000071500000000007500100003000000000000000040000000000002915500000000000000009999123100000010000000000000BRCXTLCTF003123
012013100402CYRE3       010CYRELA REALTON      NM   R$  000000000166800000000016680000000001631000000000164400000000016400000000001638000000000164005510000000000001720100000000002828351200000000000000009999123100000010000000000000BRCYREACNOR7125
012013100496CYRE3F      020CYRELA REALTON      NM   R$  000000000164200000000016880000000001612000000000163800000000016120000000001619000000000167900024000000000000000760000000000001244129000000000000009999123100000010000000000000BRCYREACNOR7125
012013100462CYRE3T      030CYRELA REALTON      NM031R$  000000000166100000000016620000000001661000000000166100000000016620000000000000000000000000000002000000000000002000000000000003322075000000000000009999123100000010000000000000BRCYREACNOR7125
012013100462CYRE3T      030CYRELA REALTON      NM360R$  000000000180800000000018090000000001808000000000180800000000018090000000000000000000000000000002000000000000000500000000000000904443000000000000009999123100000010000000000000BRCYREACNOR7125
012013100478CYREJ17     070CYRE  FM    ON      NM000R$  000000000001900000000000190000000000019000000000001900000000000190000000000000000000000003500002000000000000004500000000000000085500000000000170002013102100000010000000000000BRCYREACNOR7125
012013100478CYREJ46     070CYRE  FM    ON      NM000R$  000000000004500000000000450000000000037000000000003900000000000370000000000000000000000000000003000000000000005500000000000000215500000000000165002013102100000010000000000000BRCYREACNOR7125
012013100478CYREK16     070CYRE        ON      NM000R$  000000000010600000000001060000000000106000000000010600000000001060000000000000000000000000000001000000000000001800000000000000190800000000000160002013111800000010000000000000BRCYREACNOR7125
012013100478CYREK17     070CYRE  FM    ON      NM000R$  000000000005700000000000600000000000049000000000005600000000000490000000000000000000000000000009000000000000025900000000000001458600000000000170002013111800000010000000000000BRCYREACNOR7125
012013100478CYREK48     070CYRE  FM    ON      NM000R$  000000000001100000000000110000000000011000000000001100000000000110000000000000000000000000000002000000000000004500000000000000049500000000000185002013111800000010000000000000BRCYREACNOR7125
012013100482CYREV16     080CYREE FM    ON      NM000R$  000000000002600000000000260000000000026000000000002600000000000260000000000000000000000000000001000000000000001000000000000000026000000000000160002013102100000010000000000000BRCYREACNOR7125
012013100482CYREV17     080CYREE FM    ON      NM000R$  000000000006000000000000730000000000060000000000006700000000000730000000000000000000000000000004000000000000013500000000000000905000000000000170002013102100000010000000000000BRCYREACNOR7125
012013100482CYREV46     080CYREE FM    ON      NM000R$  000000000003700000000000430000000000034000000000003600000000000430000000000000000000000000000009000000000000027800000000000001021200000000000165002013102100000010000000000000BRCYREACNOR7125
012013100482CYREV47     080CYREE FM    ON      NM000R$  000000000010800000000001120000000000105000000000010800000000001090000000000000000000000000000004000000000000009000000000000000976500000000000175002013102100000010000000000000BRCYREACNOR7125
012013100482CYREW17     080CYREE FM    ON      NM000R$  000000000009300000000000930000000000093000000000009300000000000930000000000000000000000000000001000000000000001000000000000000093000000000000170002013111800000010000000000000BRCYREACNOR7125
012013100482CYREW46     080CYREE FM    ON      NM000R$  000000000006600000000000660000000000066000000000006600000000000660000000000000000000000000000001000000000000003500000000000000231000000000000165002013111800000010000000000000BRCYREACNOR7125
012013100482CYREW47     080CYREE FM    ON      NM000R$  000000000012600000000001260000000000126000000000012600000000001260000000000000000000000000000001000000000000001000000000000000126000000000000175002013111800000010000000000000BRCYREACNOR7125
012013100402CZLT33      010COSAN LTD   DR3          R$  000000000347800000000034780000000003410000000000343300000000034400000000003440000000000346700518000000000000285900000000000981624800000000000000009999123100000010000000000000BRCZLTBDR009105
012013100402DAGB33      010DUFRY AG    DR3          R$  000000003300000000000335100000000031100000000003290300000000328500000000032850000000003351000105000000000000003026000000000099566827000000000000009999123100000010000000000000BRDAGBBDR008100
012013100402DASA3       010DASA        ON      NM   R$  000000000121000000000012230000000001203000000000120800000000012030000000001203000000000121005196000000000001367700000000001652717300000000000000009999123100000010000000000000BRDASAACNOR1108
012013100496DASA3F      020DASA        ON      NM   R$  000000000121000000000012130000000001200000000000120400000000012070000000001111000000000120700016000000000000000504000000000000607106000000000000009999123100000010000000000000BRDASAACNOR1108
012013100402DAYC4       010DAYCOVAL    PN  EJ  N2   R$  000000000087600000000009080000000000876000000000089000000000009080000000000890000000000090800260000000000000052300000000000046557200000000000000009999123100000010000000000000BRDAYCACNPR2129
012013100496DAYC4F      020DAYCOVAL    PN  EJ  N2   R$  000000000088800000000008880000000000870000000000087900000000008700000000000880000000000089900003000000000000000181000000000000159244000000000000009999123100000010000000000000BRDAYCACNPR2129
012013100402DIRR3       010DIRECIONAL  ON      NM   R$  000000000117100000000011770000000001155000000000116400000000011700000000001169000000000117002033000000000000540300000000000629227100000000000000009999123100000010000000000000BRDIRRACNOR0104
012013100496DIRR3F      020DIRECIONAL  ON      NM   R$  000000000117100000000011920000000001115000000000116300000000011920000000001115000000000119200029000000000000000790000000000000919436000000000000009999123100000010000000000000BRDIRRACNOR0104
012013100462DIRR3T      030DIRECIONAL  ON      NM360R$  000000000129200000000012930000000001292000000000129200000000012930000000000000000000000000000002000000000000000500000000000000646425000000000000009999123100000010000000000000BRDIRRACNOR0104
012013100414DIVO11      010IT NOW IDIV CI           R$  000000000337900000000034140000000003379000000000340000000000034130000000003412000000000345000022000000000000001030000000000003502930000000000000009999123100000010000000000000BRDIVOCTF002100
012013100496DIVO11F     020IT NOW IDIV CI           R$  000000000330000000000034000000000003300000000000334700000000033140000000003314000000000345000010000000000000000024000000000000080344000000000000009999123100000010000000000000BRDIVOCTF002100
012013100402DOHL4       010DOHLER      PN           R$  000000000047000000000004800000000000470000000000047900000000004800000000000480000000000048900006000000000000009100000000000004359000000000000000009999123100000010000000000000BRDOHLACNPR9054
012013100402DTEX3       010DURATEX     ON      NM   R$  000000000131100000000013160000000001293000000000130000000000013000000000001300000000000130502457000000000000864200000000001124023100000000000000009999123100000010000000000000BRDTEXACNOR3115
012013100496DTEX3F      020DURATEX     ON      NM   R$  000000000131300000000013130000000001283000000000129800000000013000000000001287000000000132300037000000000000001332000000000001730197000000000000009999123100000010000000000000BRDTEXACNOR3115
012013100462DTEX3T      030DURATEX     ON      NM360R$  000000000143500000000014360000000001435000000000143500000000014360000000000000000000000000000002000000000000000500000000000000717697000000000000009999123100000010000000000000BRDTEXACNOR3115
012013100402EBTP3       010EMBRATEL PARON *         R$  000000000077100000000007710000000000750000000000075000000000007500000000000757000000000078200010000000000026500000000000000019886600000000000000009999123100010000000000000000BREBTPACNOR3115
012013100496EBTP3F      020EMBRATEL PARON *         R$  000000000077300000000007840000000000750000000000076400000000007840000000000703000000000078400004000000000000111471000000000000085255000000000000009999123100010000000000000000BREBTPACNOR3115
012013100402EBTP4       010EMBRATEL PARPN *         R$  000000000078000000000007920000000000780000000000078000000000007920000000000770000000000079800004000000000015400000000000000012013400000000000000009999123100010000000000000000BREBTPACNPR0120
012013100496EBTP4F      020EMBRATEL PARPN *         R$  000000000080000000000008000000000000785000000000079200000000007850000000000787000000000080200003000000000000020020000000000000015865000000000000009999123100010000000000000000BREBTPACNPR0120
012013100414ECOO11      010ISHARES ECOOCI           R$  000000000549500000000055160000000005489000000000550100000000055160000000005200000000000552000010000000000000001510000000000008306720000000000000009999123100000010000000000000BRECOOCTF008100
012013100496ECOO11F     020ISHARES ECOOCI           R$  000000000538000000000054020000000005380000000000538700000000054020000000005411000000000552000002000000000000000003000000000000016162000000000000009999123100000010000000000000BRECOOCTF008100
