00COTAHIST.2013BOVESPA 20131025                                                                                                                                                                                                                      
012013102502AAPL34      010APPLE       DRN          R$  000000001164900000000116490000000011649000000001164900000000116490000000011490000000001163500001000000000000000400000000000004659600000000000000009999123100000010000000000000BRAAPLBDR004105
012013102502ABCB4       010ABC BRASIL  PN      N2   R$  000000000134300000000013740000000001343000000000135500000000013500000000001350000000000136500842000000000000245500000000000332775300000000000000009999123100000010000000000000BRABCBACNPR4120
012013102596ABCB4F      020ABC BRASIL  PN      N2   R$  000000000136100000000013650000000001338000000000135300000000013380000000001338000000000136500010000000000000000175000000000000236907000000000000009999123100000010000000000000BRABCBACNPR4120
012013102512ABCP11      010FII ABC IMOBCI           R$  000000000097000000000009900000000000946000000000096100000000009900000000000946000000000099000005000000000000000360000000000000346202000000000000009999123100000010000000000000BRABCPCTF000216
012013102502ABRE11      010ABRIL EDUCA UNT     N2   R$  000000000315700000000032900000000003121000000000318600000000031910000000003191000000000319900272000000000000089000000000000283610300000000000000009999123100000010000000000000BRABRECDAM15102
012013102596ABRE11F     020ABRIL EDUCA UNT     N2   R$  000000000319000000000031900000000003169000000000318600000000031900000000003120000000000322000005000000000000000056000000000000178421000000000000009999123100000010000000000000BRABRECDAM15102
012013102502AEDU3       010ANHANGUERA  ON      NM   R$  000000000129900000000013500000000001297000000000132800000000013240000000001319000000000132405397000000000002561900000000003403401600000000000000009999123100000010000000000000BRAEDUACNOR9107
012013102596AEDU3F      020ANHANGUERA  ON      NM   R$  000000000130000000000013490000000001276000000000133000000000012760000000001276000000000135000038000000000000000967000000000001286222000000000000009999123100000010000000000000BRAEDUACNOR9107
012013102562AEDU3T      030ANHANGUERA  ON      NM031R$  000000000134400000000013450000000001344000000000134400000000013450000000000000000000000000000002000000000000010000000000000013444638000000000000009999123100000010000000000000BRAEDUACNOR9107
012013102512AEFI11      010FII AESAPAR CI           R$  000000001215700000000121700000000012150000000001216000000000121620000000012162000000001222000005000000000000000239000000000002906321000000000000009999123100000010000000000000BRAEFICTF002122
012013102502AELP3       010AES ELPA    ON           R$  000000000096900000000009690000000000969000000000096900000000009690000000000934000000000096500001000000000000000100000000000000096900000000000000009999123100000010000000000000BRAELPACNOR2119
012013102596AELP3F      020AES ELPA    ON           R$  000000000097500000000009750000000000975000000000097500000000009750000000000932000000000097500001000000000000000010000000000000009750000000000000009999123100000010000000000000BRAELPACNOR2119
012013102512AGCX11      010FII AG CAIXACI           R$  000000009430000000000943000000000094005000000009411400000000940200000000094110000000009480000007000000000000000036000000000003388133000000000000009999123100000010000000000000BRAGCXCTF003111
012013102502AGRO3       010BRASILAGRO  ON      NM   R$  000000000101700000000010180000000001004000000000101300000000010170000000001007000000000101700017000000000000020300000000000020575700000000000000009999123100000010000000000000BRAGROACNOR7102
012013102596AGRO3F      020BRASILAGRO  ON      NM   R$  000000000105000000000010500000000001050000000000105000000000010500000000000978000000000105000001000000000000000001000000000000001050000000000000009999123100000010000000000000BRAGROACNOR7102
012013102562AGRO3T      030BRASILAGRO  ON      NM031R$  000000000102000000000010210000000001020000000000102000000000010210000000000000000000000000000002000000000000002000000000000002041993000000000000009999123100000010000000000000BRAGROACNOR7102
012013102502ALLL3       010ALL AMER LATON      NM   R$  000000000082500000000008320000000000811000000000082600000000008220000000000822000000000082505345000000000002070600000000001711391200000000000000009999123100000010000000000000BRALLLACNOR6118
012013102596ALLL3F      020ALL AMER LATON      NM   R$  000000000082500000000008600000000000813000000000082300000000008290000000000821000000000083200027000000000000000716000000000000589971000000000000009999123100000010000000000000BRALLLACNOR6118
012013102562ALLL3T      030ALL AMER LATON      NM031R$  000000000083000000000008350000000000830000000000083100000000008350000000000000000000000000000004000000000000005000000000000004157074000000000000009999123100000010000000000000BRALLLACNOR6118
012013102512ALMI11B     010FII TORRE ALCI      MB   R$  000000032950000000003300010000000325002000000032975100000003290000000000325007000000032900000018000000000000000249000000000082108015000000000000009999123100000010000000000000BRALMICTF003206
012013102502ALPA3       010ALPARGATAS  ON      N1   R$  000000000129200000000012920000000001292000000000129200000000012920000000001291000000000134700001000000000000000200000000000000258400000000000000009999123100000010000000000000BRALPAACNOR0203
012013102502ALPA4       010ALPARGATAS  PN      N1   R$  000000000150700000000015280000000001502000000000152300000000015200000000001520000000000152900456000000000000484000000000000737279200000000000000009999123100000010000000000000BRALPAACNPR7203
012013102596ALPA4F      020ALPARGATAS  PN      N1   R$  000000000151000000000015480000000001510000000000153000000000015280000000001500000000000154800010000000000000000200000000000000306032000000000000009999123100000010000000000000BRALPAACNPR7203
012013102578ALPAK15     070ALPA        PN      N1000R$  000000000005600000000000560000000000056000000000005600000000000560000000000000000000000000000001000000000000012300000000000000688800000000000150002013111800000010000000000000BRALPAACNPR7203
012013102502ALSC3       010ALIANSCE    ON      NM   R$  000000000214700000000021640000000002118000000000213200000000021220000000002118000000000212300762000000000000105600000000000225214000000000000000009999123100000010000000000000BRALSCACNOR0104
012013102596ALSC3F      020ALIANSCE    ON      NM   R$  000000000215200000000021520000000002056000000000211000000000021010000000002101000000000230000006000000000000000106000000000000223706000000000000009999123100000010000000000000BRALSCACNOR0104
012013102502ALUP11      010ALUPAR      UNT     N2   R$  000000000170900000000017210000000001703000000000171600000000017210000000001715000000000172100242000000000000041600000000000071390900000000000000009999123100000010000000000000BRALUPCDAM15100
012013102596ALUP11F     020ALUPAR      UNT     N2   R$  000000000170600000000017490000000001700000000000171000000000017200000000001699000000000173000010000000000000000340000000000000581519000000000000009999123100000010000000000000BRALUPCDAM15100
012013102502AMAR3       010LOJAS MARISAON      NM   R$  000000000204900000000020520000000001987000000000201100000000019880000000001988000000000200001693000000000000485600000000000976586600000000000000009999123100000010000000000000BRAMARACNOR4109
012013102596AMAR3F      020LOJAS MARISAON      NM   R$  000000000202500000000020250000000002009000000000201800000000020090000000002000000000000211500004000000000000000063000000000000127169000000000000009999123100000010000000000000BRAMARACNOR4109
012013102562AMAR3T      030LOJAS MARISAON      NM017R$  000000000205900000000020600000000002059000000000205900000000020600000000000000000000000000000002000000000000002000000000000004118860000000000000009999123100000010000000000000BRAMARACNOR4109
012013102562AMAR3T      030LOJAS MARISAON      NM031R$  000000000205400000000020550000000002029000000000203100000000020300000000000000000000000000000004000000000000016000000000000032502945000000000000009999123100000010000000000000BRAMARACNOR4109
012013102502AMBV3       010AMBEV       ON           R$  000000000845900000000085850000000008350000000000845400000000085510000000008551000000000855600860000000000000315700000000002669185800000000000000009999123100000010000000000000BRAMBVACNOR4154
012013102596AMBV3F      020AMBEV       ON           R$  000000000853600000000085880000000008400000000000850800000000085580000000008500000000000858900047000000000000001148000000000009769444000000000000009999123100000010000000000000BRAMBVACNOR4154
012013102562AMBV3T      030AMBEV       ON        017R$  000000000853200000000085330000000008532000000000853200000000085330000000000000000000000000000002000000000000001000000000000008532378000000000000009999123100000010000000000000BRAMBVACNOR4154
012013102562AMBV3T      030AMBEV       ON        062R$  000000000854900000000085500000000008549000000000854900000000085500000000000000000000000000000002000000000000000100000000000000854971000000000000009999123100000010000000000000BRAMBVACNOR4154
012013102502AMBV4       010AMBEV       PN           R$  000000000851900000000085900000000008351000000000849800000000085490000000008542000000000855007814000000000001966000000000016708436000000000000000009999123100000010000000000000BRAMBVACNPR1154
012013102596AMBV4F      020AMBEV       PN           R$  000000000855000000000085730000000008351000000000849900000000085590000000008495000000000855900125000000000000003287000000000027940383000000000000009999123100000010000000000000BRAMBVACNPR1154
012013102562AMBV4T      030AMBEV       PN        031R$  000000000853000000000085760000000008530000000000854600000000085590000000000000000000000000000006000000000000003800000000000032476110000000000000009999123100000010000000000000BRAMBVACNPR1154
012013102562AMBV4T      030AMBEV       PN        059R$  000000000860200000000086030000000008602000000000860200000000086030000000000000000000000000000004000000000000001000000000000008602092000000000000009999123100000010000000000000BRAMBVACNPR1154
012013102562AMBV4T      030AMBEV       PN        060R$  000000000855300000000085540000000008553000000000855300000000085540000000000000000000000000000004000000000000001300000000000011120098000000000000009999123100000010000000000000BRAMBVACNPR1154
012013102562AMBV4T      030AMBEV       PN        090R$  000000000874500000000087460000000008745000000000874500000000087460000000000000000000000000000002000000000000000100000000000000874544000000000000009999123100000010000000000000BRAMBVACNPR1154
012013102578AMBVK85     070AMBV        PN        000R$  000000000014700000000001470000000000147000000000014700000000001470000000000000000000000000000001000000000000001100000000000000161700000000000850002013111800000010000000000000BRAMBVACNPR1154
012013102578AMBVK86     070AMBV        PN        000R$  000000000016000000000001600000000000160000000000016000000000001600000000000000000000000000000001000000000000000100000000000000016000000000000860002013111800000010000000000000BRAMBVACNPR1154
012013102578AMBVK87     070AMBV        PN        000R$  000000000010500000000001050000000000105000000000010500000000001050000000000000000000000018500001000000000000000100000000000000010500000000000863502013111800000010000000000000BRAMBVACNPR1153
012013102578AMBVK88     070AMBV        PN        000R$  000000000005500000000000650000000000032000000000005100000000000650000000000025000000000000000010000000000000007500000000000000384500000000000880002013111800000010000000000000BRAMBVACNPR1154
012013102578AMBVL58     070AMBV        PN        000R$  000000000012400000000001240000000000124000000000012400000000001240000000000000000000000000000002000000000000000200000000000000024800000000000880002013121600000010000000000000BRAMBVACNPR1154
012013102578AMBVL85     070AMBV        PN        000R$  000000000029900000000003020000000000299000000000030000000000003010000000000000000000000000000004000000000000200000000000000060020000000000000850002013121600000010000000000000BRAMBVACNPR1154
012013102578AMBVL88     070AMBV        PN        000R$  000000000019100000000001920000000000191000000000019100000000001920000000000000000000000000000003000000000000200000000000000038280000000000000873502013121600000010000000000000BRAMBVACNPR1153
012013102578AMBVL93     070AMBV        PN        000R$  000000000004000000000000400000000000040000000000004000000000000400000000000000000000000000000001000000000000000100000000000000004000000000000930002013121600000010000000000000BRAMBVACNPR1154
012013102502ARTR3       010ARTERIS     ON      NM   R$  000000000200800000000020650000000002006000000000204100000000020500000000002030000000000205001087000000000000161900000000000330470200000000000000009999123100000010000000000000BRARTRACNOR3101
012013102596ARTR3F      020ARTERIS     ON      NM   R$  000000000200500000000021970000000002000000000000203500000000020300000000001968000000000206300014000000000000000466000000000000948492000000000000009999123100000010000000000000BRARTRACNOR3101
012013102502ARZZ3       010AREZZO CO   ON      NM   R$  000000000340100000000035170000000003397000000000346900000000034780000000003478000000000350000594000000000000075700000000000262633900000000000000009999123100000010000000000000BRARZZACNOR3109
012013102596ARZZ3F      020AREZZO CO   ON      NM   R$  000000000345200000000035580000000003420000000000347100000000034410000000003440000000000359500012000000000000000325000000000001128302000000000000009999123100000010000000000000BRARZZACNOR3109
012013102502AUTM3       010AUTOMETAL   ON      NM   R$  000000000178000000000017800000000001722000000000173000000000017240000000001724000000000173000818000000000000185700000000000321284900000000000000009999123100000010000000000000BRAUTMACNOR8109
012013102596AUTM3F      020AUTOMETAL   ON      NM   R$  000000000172500000000017350000000001725000000000173300000000017350000000001702000000000189900002000000000000000068000000000000117880000000000000009999123100000010000000000000BRAUTMACNOR8109
012013102562AUTM3S      030AUTOMETAL   ON      NM062R$  000000000175700000000017580000000001757000000000175700000000017580000000000000000000000000000002000000000000003000000000000005273559000000000000009999123100000010000000000000BRAUTMACNOR8109
012013102502BALM4       010BAUMER      PN           R$  000000001000000000000100000000000010000000000001000000000000100000000000009200000000001050000001000000000000000100000000000001000000000000000000009999123100000010000000000000BRBALMACNPR2043
012013102502BAZA3       010AMAZONIA    ON           R$  000000000003400000000000340000000000032000000000003200000000000320000000000032000000000003400007000000000000030000000000000000984000000000000000009999123100000010000000000000BRBAZAACNOR0163
012013102596BAZA3F      020AMAZONIA    ON           R$  000000000003200000000000320000000000032000000000003200000000000320000000000033000000000003500001000000000000000043000000000000001376000000000000009999123100000010000000000000BRBAZAACNOR0163
012013102502BBAS3       010BRASIL      ON      NM   R$  000000000283500000000029070000000002827000000000287500000000028670000000002865000000000286815177000000000007385300000000021235698100000000000000009999123100000010000000000000BRBBASACNOR3239
012013102596BBAS3F      020BRASIL      ON      NM   R$  000000000282400000000029040000000002824000000000287000000000028630000000002862000000000286300374000000000000011955000000000034317861000000000000009999123100000010000000000000BRBBASACNOR3239
012013102562BBAS3T      030BRASIL      ON      NM031R$  000000000289000000000028910000000002890000000000289000000000028910000000000000000000000000000002000000000000010000000000000028908099000000000000009999123100000010000000000000BRBBASACNOR3239
012013102562BBAS3T      030BRASIL      ON      NM062R$  000000000290700000000029080000000002907000000000290700000000029080000000000000000000000000000002000000000000008000000000000023263800000000000000009999123100000010000000000000BRBBASACNOR3239
012013102578BBASA28     070BBAS        ON      NM000R$  000000000020500000000002060000000000197000000000019900000000001970000000000034000000000019700006000000000000010900000000000002169500000000000280002014012000000010000000000000BRBBASACNOR3239
012013102578BBASA30     070BBAS        ON      NM000R$  000000000015200000000001520000000000152000000000015200000000001520000000000010000000000000000001000000000000000400000000000000060800000000000289502014012000000010000000000000BRBBASACNOR3237
012013102578BBASA32     070BBAS        ON      NM000R$  000000000003200000000000320000000000032000000000003200000000000320000000000003000000000000000001000000000000001000000000000000032000000000000320002014012000000010000000000000BRBBASACNOR3239
012013102578BBASB27     070BBAS        ON      NM000R$  000000000030000000000003000000000000285000000000028700000000002850000000000000000000000000000003000000000000007000000000000002013000000000000270002014021700000010000000000000BRBBASACNOR3239
012013102578BBASB29     070BBAS        ON      NM000R$  000000000019100000000001910000000000191000000000019100000000001910000000000000000000000000000001000000000000001500000000000000286500000000000290002014021700000010000000000000BRBBASACNOR3239
012013102578BBASK1      070BBAS  FM    ON      NM000R$  000000000000900000000000090000000000009000000000000900000000000090000000000006000000000001000006000000000000020000000000000000180000000000000310002013111800000010000000000000BRBBASACNOR3239
012013102578BBASK25     070BBAS        ON      NM000R$  000000000050500000000005150000000000505000000000051000000000005150000000000485000000000000000002000000000000002000000000000001020000000000000237102013111800000010000000000000BRBBASACNOR3236
012013102578BBASK26     070BBAS        ON      NM000R$  000000000041000000000004320000000000410000000000042400000000004260000000000340000000000049500030000000000000018500000000000007861000000000000247102013111800000010000000000000BRBBASACNOR3236
012013102578BBASK27     070BBAS        ON      NM000R$  000000000031900000000003220000000000309000000000031400000000003090000000000165000000000000000003000000000000006100000000000001916200000000000257102013111800000010000000000000BRBBASACNOR3236
012013102578BBASK28     070BBAS  FM    ON      NM000R$  000000000018900000000002520000000000189000000000022900000000002190000000000205000000000024500145000000000000171900000000000039499200000000000267102013111800000010000000000000BRBBASACNOR3236
012013102578BBASK29     070BBAS  FM    ON      NM000R$  000000000010900000000001470000000000100000000000012400000000001200000000000101000000000014500266000000000000385300000000000048153700000000000279502013111800000010000000000000BRBBASACNOR3237
012013102578BBASK30     070BBAS  FM    ON      NM000R$  000000000005000000000000770000000000050000000000006400000000000580000000000055000000000006000509000000000000607700000000000039324600000000000289502013111800000010000000000000BRBBASACNOR3237
012013102578BBASK31     070BBAS  FM    ON      NM000R$  000000000001800000000000340000000000018000000000002700000000000250000000000025000000000002800138000000000000313900000000000008582600000000000299502013111800000010000000000000BRBBASACNOR3237
012013102578BBASK32     070BBAS        ON      NM000R$  000000000000300000000000060000000000003000000000000500000000000050000000000003000000000000500016000000000000022600000000000000115100000000000320002013111800000010000000000000BRBBASACNOR3239
012013102578BBASK33     070BBAS        ON      NM000R$  000000000000200000000000020000000000002000000000000200000000000020000000000001000000000000300002000000000000001000000000000000002000000000000330002013111800000010000000000000BRBBASACNOR3239
012013102578BBASK34     070BBAS        ON      NM000R$  000000000000300000000000030000000000003000000000000300000000000030000000000000000000000000000001000000000000005000000000000000015000000000000340002013111800000010000000000000BRBBASACNOR3239
012013102578BBASK57     070BBAS        ON      NM000R$  000000000017400000000001820000000000151000000000017000000000001510000000000000000000000000000041000000000000033600000000000005743300000000000275002013111800000010000000000000BRBBASACNOR3239
012013102578BBASK58     070BBAS        ON      NM000R$  000000000007800000000001040000000000050000000000009200000000000820000000000000000000000000000112000000000000116700000000000010798300000000000285002013111800000010000000000000BRBBASACNOR3239
012013102578BBASL24     070BBAS        ON      NM000R$  000000000060600000000006060000000000606000000000060600000000006060000000000000000000000000000001000000000000002000000000000001212000000000000229502013121600000010000000000000BRBBASACNOR3237
012013102578BBASL27     070BBAS        ON      NM000R$  000000000033700000000003400000000000321000000000033100000000003210000000000200000000000000000003000000000000001800000000000000597500000000000259502013121600000010000000000000BRBBASACNOR3237
012013102578BBASL28     070BBAS  FM    ON      NM000R$  000000000023000000000002650000000000230000000000024300000000002370000000000034000000000000000202000000000000262500000000000063904400000000000269502013121600000010000000000000BRBBASACNOR3237
012013102578BBASL29     070BBAS  FM    ON      NM000R$  000000000017500000000002110000000000175000000000019200000000001830000000000035000000000020000112000000000000109600000000000021129900000000000276102013121600000010000000000000BRBBASACNOR3235
012013102578BBASL30     070BBAS  FM    ON      NM000R$  000000000005000000000000650000000000050000000000005600000000000510000000000046000000000005400040000000000000072400000000000004088000000000000300002013121600000010000000000000BRBBASACNOR3239
012013102578BBASL31     070BBAS  FM    ON      NM000R$  000000000003000000000000320000000000025000000000002900000000000250000000000022000000000004000027000000000000024100000000000000722700000000000310002013121600000010000000000000BRBBASACNOR3239
012013102578BBASL33     070BBAS        ON      NM000R$  000000000000900000000000090000000000007000000000000700000000000070000000000003000000000000000009000000000000029100000000000000218900000000000330002013121600000010000000000000BRBBASACNOR3239
012013102578BBASL59     070BBAS        ON      NM000R$  000000000008800000000000880000000000072000000000008000000000000720000000000000000000000000000004000000000000003100000000000000248400000000000295002013121600000010000000000000BRBBASACNOR3239
012013102578BBASL60     070BBAS        ON      NM000R$  000000000012300000000001360000000000116000000000011900000000001160000000000014000000000000000050000000000000149000000000000017779200000000000286202013121600000010000000000000BRBBASACNOR3233
012013102578BBASL65     070BBAS        ON      NM000R$  000000000003700000000000370000000000036000000000003600000000000360000000000000000000000000000058000000000000230000000000000008502600000000000305002013121600000010000000000000BRBBASACNOR3239
012013102578BBASL79     070BBAS  FM    ON      NM000R$  000000000008400000000001160000000000084000000000010000000000000950000000000000000000000012000028000000000000035500000000000003565600000000000290002013121600000010000000000000BRBBASACNOR3239
012013102582BBASM26     080BBASE       ON      NM000R$  000000000001900000000000190000000000018000000000001800000000000180000000000000000000000000000002000000000000002400000000000000044400000000000249502014012000000010000000000000BRBBASACNOR3237
012013102582BBASM27     080BBASE       ON      NM000R$  000000000003200000000000320000000000030000000000003100000000000300000000000000000000000000000002000000000000005000000000000000158000000000000259502014012000000010000000000000BRBBASACNOR3237
012013102582BBASM29     080BBASE       ON      NM000R$  000000000010700000000001070000000000107000000000010700000000001070000000000000000000000000000001000000000000001200000000000000128400000000000290002014012000000010000000000000BRBBASACNOR3239
012013102582BBASM30     080BBASE       ON      NM000R$  000000000010500000000001050000000000105000000000010500000000001050000000000000000000000000000001000000000000001100000000000000115500000000000289502014012000000010000000000000BRBBASACNOR3237
012013102582BBASM31     080BBASE       ON      NM000R$  000000000023500000000002350000000000235000000000023500000000002350000000000000000000000000000001000000000000003800000000000000893000000000000310002014012000000010000000000000BRBBASACNOR3239
012013102582BBASN29     080BBASE       ON      NM000R$  000000000012400000000001240000000000124000000000012400000000001240000000000000000000000000000001000000000000003000000000000000372000000000000290002014021700000010000000000000BRBBASACNOR3239
012013102582BBASO28     080BBASE       ON      NM000R$  000000000010100000000001010000000000101000000000010100000000001010000000000000000000000000000001000000000000003000000000000000303000000000000280002014031700000010000000000000BRBBASACNOR3239
012013102582BBASW25     080BBASE       ON      NM000R$  000000000000200000000000020000000000001000000000000100000000000010000000000000000000000003800002000000000000001100000000000000001200000000000237102013111800000010000000000000BRBBASACNOR3236
012013102582BBASW27     080BBASE FM    ON      NM000R$  000000000000400000000000050000000000004000000000000400000000000050000000000002000000000000700004000000000000025500000000000000127000000000000257102013111800000010000000000000BRBBASACNOR3236
012013102582BBASW28     080BBASE FM    ON      NM000R$  000000000001000000000000120000000000009000000000001000000000000100000000000007000000000001100067000000000000112100000000000001146500000000000267102013111800000010000000000000BRBBASACNOR3236
012013102582BBASW29     080BBASE FM    ON      NM000R$  000000000005000000000000500000000000026000000000003000000000000340000000000026000000000003900309000000000000256100000000000007928100000000000279502013111800000010000000000000BRBBASACNOR3237
012013102582BBASW30     080BBASE FM    ON      NM000R$  000000000006700000000000760000000000056000000000006700000000000730000000000000000000000000000066000000000000097100000000000006589000000000000289502013111800000010000000000000BRBBASACNOR3237
012013102582BBASW56     080BBASE       ON      NM000R$  000000000000700000000000070000000000007000000000000700000000000070000000000000000000000002000002000000000000010000000000000000070000000000000262302013111800000010000000000000BRBBASACNOR3238
012013102582BBASW57     080BBASE       ON      NM000R$  000000000002000000000000220000000000018000000000002000000000000220000000000000000000000002500071000000000000208900000000000004209200000000000275002013111800000010000000000000BRBBASACNOR3239
012013102582BBASW58     080BBASE       ON      NM000R$  000000000004300000000000430000000000043000000000004300000000000430000000000000000000000000000001000000000000004000000000000000172000000000000285002013111800000010000000000000BRBBASACNOR3239
012013102582BBASX23     080BBASE       ON      NM000R$  000000000000300000000000030000000000003000000000000300000000000030000000000000000000000001700001000000000000001000000000000000003000000000000219502013121600000010000000000000BRBBASACNOR3237
012013102582BBASX25     080BBASE       ON      NM000R$  000000000000500000000000060000000000005000000000000500000000000050000000000004000000000002400005000000000000045000000000000000240000000000000236102013121600000010000000000000BRBBASACNOR3235
012013102582BBASX26     080BBASE       ON      NM000R$  000000000000900000000000090000000000009000000000000900000000000090000000000008000000000001200002000000000000000500000000000000004500000000000246102013121600000010000000000000BRBBASACNOR3235
012013102582BBASX27     080BBASE FM    ON      NM000R$  000000000002100000000000210000000000016000000000001600000000000180000000000015000000000001800064000000000000105400000000000001709800000000000259502013121600000010000000000000BRBBASACNOR3237
012013102582BBASX28     080BBASE FM    ON      NM000R$  000000000003500000000000350000000000029000000000003100000000000340000000000028000000000003500036000000000000006500000000000000206800000000000269502013121600000010000000000000BRBBASACNOR3237
012013102582BBASX29     080BBASE FM    ON      NM000R$  000000000004100000000000500000000000041000000000004500000000000470000000000041000000000000000080000000000000119000000000000005380000000000000276102013121600000010000000000000BRBBASACNOR3235
012013102582BBASX30     080BBASE       ON      NM000R$  000000000015600000000001560000000000150000000000015300000000001500000000000000000000000000000004000000000000000400000000000000061300000000000300002013121600000010000000000000BRBBASACNOR3239
012013102582BBASX56     080BBASE       ON      NM000R$  000000000001100000000000120000000000011000000000001100000000000120000000000000000000000000000057000000000000311500000000000003476500000000000255002013121600000010000000000000BRBBASACNOR3239
012013102582BBASX60     080BBASE       ON      NM000R$  000000000007200000000000830000000000072000000000007400000000000830000000000000000000000000000026000000000000075000000000000005601000000000000286202013121600000010000000000000BRBBASACNOR3233
012013102582BBASX79     080BBASE FM    ON      NM000R$  000000000008800000000001000000000000088000000000009300000000001000000000000000000000000000000045000000000000043900000000000004102100000000000290002013121600000010000000000000BRBBASACNOR3239
012013102502BBDC3       010BRADESCO    ON      N1   R$  000000000357900000000035950000000003534000000000355700000000035570000000003557000000000356103839000000000001020600000000003630331400000000000000009999123100000010000000000000BRBBDCACNOR1607
012013102596BBDC3F      020BRADESCO    ON      N1   R$  000000000359200000000035920000000003536000000000355300000000035560000000003535000000000357500035000000000000000815000000000002896671000000000000009999123100000010000000000000BRBBDCACNOR1607
012013102502BBDC4       010BRADESCO    PN      N1   R$  000000000323800000000032540000000003196000000000321500000000032160000000003216000000000321810984000000000004988700000000016042267300000000000000009999123100000010000000000000BRBBDCACNPR8607
012013102596BBDC4F      020BRADESCO    PN      N1   R$  000000000326000000000032600000000003199000000000322300000000032290000000003211000000000322900202000000000000004480000000000014438559000000000000009999123100000010000000000000BRBBDCACNPR8607
012013102562BBDC4T      030BRADESCO    PN      N1017R$  000000000322800000000032290000000003209000000000322500000000032120000000000000000000000000000008000000000000013900000000000044830154000000000000009999123100000010000000000000BRBBDCACNPR8607
012013102578BBDCA33     070BBDC        PN      N1000R$  000000000013100000000001310000000000115000000000012600000000001280000000000110000000000000000004000000000000011000000000000001391800000000000329802014012000000010000000000000BRBBDCACNPR8606
012013102578BBDCA34     070BBDC        PN      N1000R$  000000000009000000000000900000000000080000000000008200000000000800000000000000000000000000000004000000000000010800000000000000891000000000000339402014012000000010000000000000BRBBDCACNPR8604
012013102578BBDCA37     070BBDC        PN      N1000R$  000000000002100000000000220000000000021000000000002100000000000220000000000000000000000003600002000000000000005000000000000000108100000000000367402014012000000010000000000000BRBBDCACNPR8602
012013102578BBDCK29     070BBDC        ON      N1000R$  000000000067300000000006730000000000668000000000067100000000006680000000000500000000000000000002000000000000000300000000000000201400000000000290002013111800000010000000000000BRBBDCACNOR1607
012013102578BBDCK30     070BBDC        PN      N1000R$  000000000025000000000002500000000000231000000000023900000000002420000000000215000000000032000052000000000000015300000000000003663900000000000299602013111800000010000000000000BRBBDCACNPR8605
012013102578BBDCK31     070BBDC        PN      N1000R$  000000000018400000000001840000000000145000000000014600000000001450000000000142000000000018900057000000000000025800000000000003778000000000000309602013111800000010000000000000BRBBDCACNPR8605
012013102578BBDCK32     070BBDC  FM    PN      N1000R$  000000000011900000000001270000000000093000000000010400000000000980000000000097000000000011500184000000000000242000000000000025227700000000000317202013111800000010000000000000BRBBDCACNPR8601
012013102578BBDCK33     070BBDC  FM    PN      N1000R$  000000000005400000000000630000000000043000000000005000000000000460000000000042000000000005500114000000000000222100000000000011157100000000000327402013111800000010000000000000BRBBDCACNPR8602
012013102578BBDCK34     070BBDC  FM    PN      N1000R$  000000000001900000000000230000000000013000000000001600000000000130000000000012000000000001400019000000000000014100000000000000237500000000000339402013111800000010000000000000BRBBDCACNPR8604
012013102578BBDCK35     070BBDC  FM    PN      N1000R$  000000000000900000000000090000000000006000000000000700000000000060000000000001000000000000800008000000000000013100000000000000096600000000000347402013111800000010000000000000BRBBDCACNPR8602
012013102578BBDCK36     070BBDC  FM    PN      N1000R$  000000000000200000000000020000000000002000000000000200000000000020000000000000000000000000900001000000000000002000000000000000004000000000000357202013111800000010000000000000BRBBDCACNPR8601
012013102578BBDCL15     070BBDC        PN      N1000R$  000000000000600000000000060000000000006000000000000600000000000060000000000000000000000000000001000000000000001000000000000000006000000000000370002013121600000010000000000000BRBBDCACNPR8607
012013102578BBDCL29     070BBDC        PN      N1000R$  000000000038500000000003850000000000385000000000038500000000003850000000000330000000000000000002000000000000000200000000000000077000000000000287402013121600000010000000000000BRBBDCACNPR8602
012013102578BBDCL3      070BBDC  FM    PN      N1000R$  000000000010400000000001110000000000090000000000009200000000000920000000000000000000000019900098000000000000188500000000000017501900000000000327002013121600000010000000000000BRBBDCACNPR8601
012013102578BBDCL32     070BBDC  FM    PN      N1000R$  000000000015700000000001730000000000140000000000015300000000001480000000000141000000000025000087000000000000074800000000000011513400000000000317002013121600000010000000000000BRBBDCACNPR8600
012013102578BBDCL34     070BBDC  FM    PN      N1000R$  000000000006000000000000600000000000049000000000005400000000000490000000000049000000000005700023000000000000035700000000000001956900000000000337002013121600000010000000000000BRBBDCACNPR8600
012013102578BBDCL35     070BBDC        PN      N1000R$  000000000003400000000000340000000000028000000000002900000000000290000000000026000000000003500038000000000000086200000000000002517500000000000347002013121600000010000000000000BRBBDCACNPR8600
012013102578BBDCL5      070BBDC  FM    PN      N1000R$  000000000002600000000000260000000000024000000000002400000000000240000000000013000000000000000044000000000000035200000000000000858400000000000349802013121600000010000000000000BRBBDCACNPR8606
012013102578BBDCL6      070BBDC  FM    PN      N1000R$  000000000001500000000000170000000000013000000000001500000000000160000000000012000000000000000026000000000000023500000000000000361700000000000357202013121600000010000000000000BRBBDCACNPR8601
012013102582BBDCM30     080BBDCE       PN      N1000R$  000000000004100000000000440000000000041000000000004100000000000440000000000000000000000000000014000000000000050000000000000002078500000000000299802014012000000010000000000000BRBBDCACNPR8606
012013102582BBDCM32     080BBDCE       PN      N1000R$  000000000010400000000001040000000000104000000000010400000000001040000000000000000000000000000001000000000000002000000000000000208000000000000319802014012000000010000000000000BRBBDCACNPR8606
012013102582BBDCM33     080BBDCE       PN      N1000R$  000000000014800000000001480000000000148000000000014800000000001480000000000000000000000000000001000000000000001000000000000000148000000000000329802014012000000010000000000000BRBBDCACNPR8606
012013102582BBDCM59     080BBDCE       PN      N1000R$  000000000003800000000000380000000000038000000000003800000000000380000000000000000000000000000001000000000000001500000000000000057000000000000294602014012000000010000000000000BRBBDCACNPR8605
012013102582BBDCN32     080BBDCE       PN      N1000R$  000000000003600000000000360000000000036000000000003600000000000360000000000000000000000004000006000000000000011100000000000000399600000000000287702014021700000010000000000000BRBBDCACNPR8598
012013102582BBDCO61     080BBDCE       PN      N1000R$  000000000003500000000000350000000000034000000000003400000000000350000000000000000000000000000006000000000001300000000000000044856000000000000278602014031700000010000000000000BRBBDCACNPR8598
012013102582BBDCW31     080BBDCE FM    PN      N1000R$  000000000001800000000000290000000000018000000000002400000000000230000000000000000000000003400019000000000000074200000000000001839500000000000309602013111800000010000000000000BRBBDCACNPR8605
012013102582BBDCW32     080BBDCE FM    PN      N1000R$  000000000004100000000000510000000000035000000000004400000000000420000000000000000000000005300058000000000000084800000000000003747000000000000317202013111800000010000000000000BRBBDCACNPR8601
012013102582BBDCW33     080BBDCE FM    PN      N1000R$  000000000008400000000001030000000000071000000000008700000000000910000000000000000000000010500023000000000000032300000000000002829300000000000327402013111800000010000000000000BRBBDCACNPR8602
012013102582BBDCW34     080BBDCE FM    PN      N1000R$  000000000016200000000001910000000000150000000000017000000000001740000000000000000000000000000076000000000000120200000000000020524300000000000339402013111800000010000000000000BRBBDCACNPR8604
012013102582BBDCW9      080BBDCE       PN      N1000R$  000000000000600000000000060000000000004000000000000500000000000040000000000000000000000000000002000000000000020000000000000000100000000000000289602013111800000010000000000000BRBBDCACNPR8605
012013102582BBDCX1      080BBDCE FM    PN      N1000R$  000000000004600000000000460000000000041000000000004100000000000410000000000000000000000000000010000000000000029400000000000001219400000000000307002013121600000010000000000000BRBBDCACNPR8600
012013102582BBDCX3      080BBDCE FM    PN      N1000R$  000000000010800000000001240000000000108000000000011400000000001120000000000000000000000000000019000000000000031300000000000003587600000000000327002013121600000010000000000000BRBBDCACNPR8601
012013102582BBDCX32     080BBDCE FM    PN      N1000R$  000000000006400000000000720000000000064000000000006900000000000720000000000000000000000000000003000000000000006000000000000000415200000000000317002013121600000010000000000000BRBBDCACNPR8600
012013102582BBDCX33     080BBDCE       PN      N1000R$  000000000002500000000000250000000000023000000000002400000000000250000000000000000000000000000010000000000000027400000000000000679600000000000296802013121600000010000000000000BRBBDCACNPR8598
012013102582BBDCX34     080BBDCE FM    PN      N1000R$  000000000016600000000001770000000000152000000000016800000000001740000000000000000000000000000017000000000000031000000000000005223600000000000337002013121600000010000000000000BRBBDCACNPR8600
012013102582BBDCX36     080BBDCE       PN      N1000R$  000000000009500000000000950000000000095000000000009500000000000950000000000000000000000000000010000000000000010000000000000000950000000000000323902013121600000010000000000000BRBBDCACNPR8597
012013102512BBFI11B     010FII BB PROGRCI      MB   R$  000000041802900000004200000000000418029000000041962000000004200000000000416500000000042100000010000000000000000038000000000015945597000000000000009999123100000010000000000000BRBBFICTF006199
012013102512BBPO11      010FII BB PRGIICI           R$  000000001124900000000112610000000011175000000001120500000000111750000000011175000000001126000323000000000000016455000000000184388362000000000000009999123100000010000000000000BRBBPOCTF003111
012013102512BBRC11      010FII BB CORP CI           R$  000000000869900000000086990000000008602000000000865000000000086500000000008602000000000865000014000000000000000689000000000005959891000000000000009999123100000010000000000000BRBBRCCTF004125
012013102502BBRK3       010BR BROKERS  ON      NM   R$  000000000058300000000005830000000000561000000000056800000000005680000000000568000000000057201486000000000000389900000000000221802800000000000000009999123100000010000000000000BRBBRKACNOR4108
012013102596BBRK3F      020BR BROKERS  ON      NM   R$  000000000056400000000005710000000000561000000000056500000000005620000000000562000000000065000011000000000000000195000000000000110308000000000000009999123100000010000000000000BRBBRKACNOR4108
012013102502BBSE3       010BBSEGURIDADEON      NM   R$  000000000238300000000024000000000002372000000000238800000000023790000000002376000000000237905771000000000002330400000000005565029600000000000000009999123100000010000000000000BRBBSEACNOR5101
012013102596BBSE3F      020BBSEGURIDADEON      NM   R$  000000000238000000000023950000000002375000000000238500000000023750000000002375000000000238400231000000000000007283000000000017372695000000000000009999123100000010000000000000BRBBSEACNOR5101
012013102562BBSE3T      030BBSEGURIDADEON      NM017R$  000000000239300000000023940000000002393000000000239300000000023940000000000000000000000000000002000000000000004100000000000009811335000000000000009999123100000010000000000000BRBBSEACNOR5101
012013102562BBSE3T      030BBSEGURIDADEON      NM020R$  000000000240200000000024030000000002402000000000240200000000024030000000000000000000000000000002000000000000000300000000000000720728000000000000009999123100000010000000000000BRBBSEACNOR5101
012013102562BBSE3T      030BBSEGURIDADEON      NM031R$  000000000240300000000024080000000002403000000000240600000000024080000000000000000000000000000008000000000000012000000000000028877239000000000000009999123100000010000000000000BRBBSEACNOR5101
012013102562BBSE3T      030BBSEGURIDADEON      NM090R$  000000000244000000000024410000000002440000000000244000000000024410000000000000000000000000000012000000000000012300000000000030014337000000000000009999123100000010000000000000BRBBSEACNOR5101
012013102578BBSEA23     070BBSE        ON      NM000R$  000000000018300000000001830000000000183000000000018300000000001830000000000000000000000000000005000000000000024600000000000004501800000000000230002014012000000010000000000000BRBBSEACNOR5101
012013102578BBSEA26     070BBSE        ON      NM000R$  000000000002400000000000240000000000024000000000002400000000000240000000000000000000000000000006000000000000012300000000000000295200000000000260002014012000000010000000000000BRBBSEACNOR5101
012013102578BBSEA51     070BBSE        ON      NM000R$  000000000031000000000003100000000000310000000000031000000000003100000000000000000000000000000005000000000000012300000000000003813000000000000215002014012000000010000000000000BRBBSEACNOR5101
012013102578BBSEA54     070BBSE        ON      NM000R$  000000000009000000000000900000000000090000000000009000000000000900000000000000000000000000000005000000000000012300000000000001107000000000000245002014012000000010000000000000BRBBSEACNOR5101
012013102578BBSEK22     070BBSE        ON      NM000R$  000000000020700000000002070000000000207000000000020700000000002070000000000000000000000000000001000000000000001500000000000000310500000000000220002013111800000010000000000000BRBBSEACNOR5101
012013102582BBSEM23     080BBSEE       ON      NM000R$  000000000004300000000000430000000000043000000000004300000000000430000000000000000000000000000001000000000000300000000000000012900000000000000230002014012000000010000000000000BRBBSEACNOR5101
012013102502BBTG11      010BTG PACTUAL UNT          R$  000000000299000000000029900000000002935000000000295500000000029530000000002953000000000296900143000000000000026900000000000079498700000000000000009999123100000010000000000000BRBBTGUNT007105
012013102596BBTG11F     020BTG PACTUAL UNT          R$  000000000295500000000029550000000002955000000000295500000000029550000000002940000000000296900001000000000000000028000000000000082740000000000000009999123100000010000000000000BRBBTGUNT007105
012013102512BBVJ11      010FII C JARDIMCI           R$  000000000785000000000078900000000007712000000000785400000000078900000000007750000000000789000026000000000000001758000000000013808111000000000000009999123100000010000000000000BRBBVJCTF001134
012013102512BCFF11B     010FII BC FFII CI      MB   R$  000000000900000000000090000000000008851000000000890800000000088990000000008860000000000889900062000000000000002946000000000026245088000000000000009999123100000010000000000000BRBCFFCTF000143
012013102502BEEF3       010MINERVA     ON      NM   R$  000000000094800000000009640000000000929000000000093900000000009530000000000953000000000096401811000000000000844500000000000793743200000000000000009999123100000010000000000000BRBEEFACNOR6104
012013102596BEEF3F      020MINERVA     ON      NM   R$  000000000094700000000009630000000000926000000000094200000000009260000000000926000000000100000010000000000000000204000000000000192286000000000000009999123100000010000000000000BRBEEFACNOR6104
012013102562BEEF3T      030MINERVA     ON      NM031R$  000000000095000000000009510000000000950000000000095000000000009510000000000000000000000000000002000000000000001000000000000000950608000000000000009999123100000010000000000000BRBEEFACNOR6104
012013102502BEES3       010BANESTES    ON           R$  000000000005000000000000510000000000050000000000005000000000000500000000000050000000000005100006000000000000033300000000000001670000000000000000009999123100000010000000000000BRBEESACNOR9245
012013102502BEES4       010BANESTES    PN           R$  000000000004600000000000460000000000046000000000004600000000000460000000000046000000000004700001000000000000004000000000000000184000000000000000009999123100000010000000000000BRBEESACNPR6170
012013102502BEMA3       010BEMATECH    ON      NM   R$  000000000076400000000007710000000000758000000000076500000000007700000000000770000000000077200151000000000000043400000000000033218000000000000000009999123100000010000000000000BRBEMAACNOR0114
012013102596BEMA3F      020BEMATECH    ON      NM   R$  000000000076400000000007710000000000764000000000076700000000007710000000000753000000000079400002000000000000000024000000000000018420000000000000009999123100000010000000000000BRBEMAACNOR0114
012013102596BGIP3F      020BANESE      ON           R$  000000000490000000000049000000000004900000000000490000000000049000000000004500000000000490000001000000000000000003000000000000014700000000000000009999123100000010000000000000BRBGIPACNOR1179
012013102502BGIP4       010BANESE      PN           R$  000000000494000000000049400000000004940000000000494000000000049400000000004801000000000490000001000000000000000300000000000001482000000000000000009999123100000010000000000000BRBGIPACNPR8179
012013102596BGIP4F      020BANESE      PN           R$  000000000495000000000049500000000004950000000000495000000000049500000000004800000000000490000001000000000000000001000000000000004950000000000000009999123100000010000000000000BRBGIPACNPR8179
012013102502BHGR3       010BHG         ON      NM   R$  000000000164500000000016980000000001612000000000166100000000016980000000001670000000000169800138000000000000036500000000000060660300000000000000009999123100000010000000000000BRBHGRACNOR9101
012013102502BICB4       010BICBANCO    PN      N1   R$  000000000064200000000006460000000000635000000000064000000000006410000000000640000000000064400115000000000000048800000000000031237300000000000000009999123100000010000000000000BRBICBACNPR7131
012013102596BICB4F      020BICBANCO    PN      N1   R$  000000000060300000000006030000000000603000000000060300000000006030000000000603000000000064500003000000000000000050000000000000030150000000000000009999123100000010000000000000BRBICBACNPR7131
012013102596BIOM3F      020BIOMM       ON           R$  000000000099800000000009980000000000998000000000099800000000009980000000000910000000000099000001000000000000000001000000000000000998000000000000009999123100000010000000000000BRBIOMACNOR2101
012013102502BISA3       010BROOKFIELD  ON      NM   R$  000000000014800000000001520000000000146000000000014700000000001460000000000146000000000014703846000000000007864200000000001162649000000000000000009999123100000010000000000000BRBISAACNOR8109
012013102596BISA3F      020BROOKFIELD  ON      NM   R$  000000000014900000000001560000000000145000000000014700000000001460000000000146000000000015600028000000000000000732000000000000107921000000000000009999123100000010000000000000BRBISAACNOR8109
012013102562BISA3T      030BROOKFIELD  ON      NM031R$  000000000014800000000001500000000000148000000000014800000000001500000000000000000000000000000004000000000000021000000000000003109307000000000000009999123100000010000000000000BRBISAACNOR8109
012013102562BISA3T      030BROOKFIELD  ON      NM060R$  000000000014900000000001500000000000149000000000014900000000001500000000000000000000000000000002000000000000075000000000000011187068000000000000009999123100000010000000000000BRBISAACNOR8109
012013102562BISA3T      030BROOKFIELD  ON      NM062R$  000000000014900000000001500000000000149000000000014900000000001500000000000000000000000000000002000000000000216000000000000032333752000000000000009999123100000010000000000000BRBISAACNOR8109
012013102562BISA3T      030BROOKFIELD  ON      NM090R$  000000000015000000000001510000000000150000000000015000000000001510000000000000000000000000000004000000000000130000000000000019551441000000000000009999123100000010000000000000BRBISAACNOR8109
012013102512BJRC11      010FII JS RECIMCI           R$  000000008400000000000900000000000084000000000008412900000000900000000000090000000000009080000004000000000000000356000000000029949998000000000000009999123100000010000000000000BRBJRCCTF007111
012013102502BMIN4       010MERC INVEST PN           R$  000000000002800000000000280000000000028000000000002800000000000280000000000027000000000002800003000000000000005000000000000000140000000000000000009999123100000010000000000000BRBMINACNPR1160
012013102596BMIN4F      020MERC INVEST PN           R$  000000000002800000000000280000000000028000000000002800000000000280000000000028000000000003500002000000000000000430000000000000012040000000000000009999123100000010000000000000BRBMINACNPR1160
012013102502BMKS3       010BIC MONARK  ON           R$  000000003400000000000340000000000034000000000003400000000000340000000000033001000000003400000002000000000000000002000000000000068000000000000000009999123100000010000000000000BRBMKSACNOR9155
012013102512BMLC11B     010FII BMBRC LCCI      MB   R$  000000001175000000000117500000000011750000000001175000000000117500000000011722000000001175000004000000000000000021000000000000246750000000000000009999123100000010000000000000BRBMLCCTF004120
012013102502BMTO4       010BRASMOTOR   PN           R$  000000000009000000000000930000000000090000000000009200000000000920000000000091000000000009300017000000000000086000000000000007975000000000000000009999123100000010000000000000BRBMTOACNPR6065
012013102596BNBR4F      020NORD BRASIL PN           R$  000000000261000000000026100000000002610000000000261000000000026100000000002008000000000000000001000000000000000001000000000000002610000000000000009999123100000010000000000000BRBNBRACNPR5187
012013102512BNFS11      010FII BANRISULCI           R$  000000001000000000000103220000000010000000000001000300000000103220000000009851000000001032200002000000000000000101000000000001010322000000000000009999123100000010000000000000BRBNFSCTF000113
012013102596BOBR4F      020BOMBRIL     PN           R$  000000000060000000000006050000000000600000000000060300000000006050000000000000000000000065000007000000000000000008000000000000004830000000000000009999123100000010000000000000BRBOBRACNPR3127
012013102514BOVA11      010ISHARES BOVACI           R$  000000000531500000000053570000000005285000000000531200000000052850000000005285000000000529808499000000000001876680000000009969348080000000000000009999123100000010000000000000BRBOVACTF003101
012013102596BOVA11F     020ISHARES BOVACI           R$  000000000536000000000053680000000005282000000000532600000000052820000000005281000000000536800007000000000000000025000000000000133166000000000000009999123100000010000000000000BRBOVACTF003101
012013102512BPFF11      010FII ABSOLUTOCI           R$  000000000840000000000084400000000008350000000000840100000000084400000000008381000000000844000020000000000000000939000000000007888632000000000000009999123100000010000000000000BRBPFFCTF002106
012013102502BPHA3       010BR PHARMA   ON      NM   R$  000000000084500000000008450000000000828000000000083300000000008290000000000828000000000083300415000000000000105600000000000088036300000000000000009999123100000010000000000000BRBPHAACNOR6102
012013102596BPHA3F      020BR PHARMA   ON      NM   R$  000000000080100000000008010000000000801000000000080100000000008010000000000801000000000086600002000000000000000050000000000000040050000000000000009999123100000010000000000000BRBPHAACNOR6102
012013102502BPNM4       010PANAMERICANOPN      N1   R$  000000000051600000000005190000000000513000000000051500000000005170000000000513000000000051700168000000000002029000000000001045936100000000000000009999123100000010000000000000BRBPNMACNPR6111
012013102596BPNM4F      020PANAMERICANOPN      N1   R$  000000000051300000000005130000000000506000000000051000000000005060000000000506000000000054600007000000000000000128000000000000065314000000000000009999123100000010000000000000BRBPNMACNPR6111
012013102562BPNM4T      030PANAMERICANOPN      N1122R$  000000000053000000000005310000000000530000000000053000000000005310000000000000000000000000000006000000000001000000000000000530707500000000000000009999123100000010000000000000BRBPNMACNPR6111
012013102502BRAP3       010BRADESPAR   ON      N1   R$  000000000211000000000021390000000002110000000000211700000000021290000000002101000000000212900018000000000000004000000000000008470000000000000000009999123100000010000000000000BRBRAPACNOR5124
012013102596BRAP3F      020BRADESPAR   ON      N1   R$  000000000211000000000021320000000002110000000000211100000000021320000000002110000000000219300004000000000000000070000000000000147810000000000000009999123100000010000000000000BRBRAPACNOR5124
012013102502BRAP4       010BRADESPAR   PN      N1   R$  000000000261200000000026130000000002584000000000259300000000025920000000002592000000000259403982000000000001356400000000003517645400000000000000009999123100000010000000000000BRBRAPACNPR2124
012013102596BRAP4F      020BRADESPAR   PN      N1   R$  000000000260800000000026390000000002541000000000259800000000026390000000002599000000000263900060000000000000001936000000000005030447000000000000009999123100000010000000000000BRBRAPACNPR2124
012013102562BRAP4T      030BRADESPAR   PN      N1031R$  000000000260700000000026080000000002607000000000260700000000026080000000000000000000000000000002000000000000002000000000000005215742000000000000009999123100000010000000000000BRBRAPACNPR2124
012013102578BRAPA26     070BRAP        PN      N1000R$  000000000014900000000001500000000000149000000000014900000000001500000000000000000000000000000002000000000000150000000000000022410000000000000260002014012000000010000000000000BRBRAPACNPR2124
012013102578BRAPL26     070BRAP        PN      N1000R$  000000000011100000000001140000000000111000000000011200000000001140000000000000000000000000000002000000000000150000000000000016830000000000000260002013121600000010000000000000BRBRAPACNPR2124
012013102514BRAX11      010ISHARES BRAXCI           R$  000000000433500000000043350000000004335000000000433500000000043350000000003000000000000000000001000000000000000010000000000000043350000000000000009999123100000010000000000000BRBRAXCTF002100
012013102512BRCR11      010FII BC FUND CI           R$  000000001369500000000137200000000013640000000001367400000000137140000000013681000000001370700203000000000000026473000000000362004271000000000000009999123100000010000000000000BRBRCRCTF000134
012013102502BRFS3       010BRF SA      ON      NM   R$  000000000555000000000055630000000005472000000000552100000000055100000000005510000000000551504464000000000000981400000000005419012100000000000000009999123100000010000000000000BRBRFSACNOR8110
012013102596BRFS3F      020BRF SA      ON      NM   R$  000000000554100000000055550000000005480000000000552500000000055260000000005515000000000558300079000000000000002672000000000014762627000000000000009999123100000010000000000000BRBRFSACNOR8110
012013102562BRFS3T      030BRF SA      ON      NM017R$  000000000553500000000055640000000005535000000000555500000000055640000000000000000000000000000004000000000000003500000000000019444445000000000000009999123100000010000000000000BRBRFSACNOR8110
012013102562BRFS3T      030BRF SA      ON      NM031R$  000000000555800000000055590000000005549000000000555000000000055500000000000000000000000000000004000000000000009000000000000049951056000000000000009999123100000010000000000000BRBRFSACNOR8110
012013102502BRIN3       010BR INSURANCEON      NM   R$  000000000199200000000019950000000001959000000000198500000000019900000000001985000000000199000715000000000000149800000000000297366400000000000000009999123100000010000000000000BRBRINACNOR3106
012013102596BRIN3F      020BR INSURANCEON      NM   R$  000000000198200000000019820000000001959000000000197800000000019590000000001959000000000204100005000000000000000365000000000000722065000000000000009999123100000010000000000000BRBRINACNOR3106
012013102596BRIV3F      020ALFA INVEST ON           R$  000000000068000000000006800000000000680000000000068000000000006800000000000525000000000070000001000000000000000001000000000000000680000000000000009999123100000010000000000000BRBRIVACNOR6197
012013102502BRKM3       010BRASKEM     ON      N1   R$  000000000141000000000014200000000001410000000000141300000000014200000000001390000000000142000002000000000000000300000000000000424000000000000000009999123100000010000000000000BRBRKMACNOR1110
012013102502BRKM5       010BRASKEM     PNA     N1   R$  000000000198100000000019830000000001939000000000195400000000019550000000001955000000000196005914000000000000982700000000001921104500000000000000009999123100000010000000000000BRBRKMACNPA4110
012013102596BRKM5F      020BRASKEM     PNA     N1   R$  000000000197000000000019990000000001941000000000196400000000019700000000001952000000000199900055000000000000000541000000000001063299000000000000009999123100000010000000000000BRBRKMACNPA4110
012013102502BRML3       010BR MALLS PARON      NM   R$  000000000220500000000022240000000002171000000000219400000000022000000000002197000000000220004189000000000001150300000000002524495400000000000000009999123100000010000000000000BRBRMLACNOR9105
012013102596BRML3F      020BR MALLS PARON      NM   R$  000000000224800000000022480000000002179000000000219100000000021960000000002176000000000221300050000000000000001657000000000003631404000000000000009999123100000010000000000000BRBRMLACNOR9105
012013102502BRPR3       010BR PROPERT  ON      NM   R$  000000000186100000000018740000000001830000000000184900000000018400000000001838000000000184204197000000000000974100000000001801587100000000000000009999123100000010000000000000BRBRPRACNOR9112
012013102596BRPR3F      020BR PROPERT  ON      NM   R$  000000000186100000000019050000000001833000000000185000000000019050000000001832000000000185000023000000000000000650000000000001203091000000000000009999123100000010000000000000BRBRPRACNOR9112
012013102502BRSR6       010BANRISUL    PNB     N1   R$  000000000156900000000015690000000001544000000000154900000000015500000000001546000000000155202437000000000000551700000000000855236600000000000000009999123100000010000000000000BRBRSRACNPB4134
012013102596BRSR6F      020BANRISUL    PNB     N1   R$  000000000156000000000016440000000001539000000000155700000000015520000000001539000000000163500013000000000000000455000000000000708769000000000000009999123100000010000000000000BRBRSRACNPB4134
012013102502BSEV3       010BIOSEV      ON      NM   R$  000000000093600000000009360000000000913000000000092500000000009130000000000912000000000094400003000000000000000300000000000000277700000000000000009999123100000010000000000000BRBSEVACNOR3100
012013102502BTOW3       010B2W DIGITAL ON      NM   R$  000000000163600000000016800000000001594000000000163900000000016280000000001623000000000162801209000000000000279500000000000458278400000000000000009999123100000010000000000000BRBTOWACNOR8105
012013102596BTOW3F      020B2W DIGITAL ON      NM   R$  000000000163400000000016890000000001598000000000162900000000015980000000001598000000000166500021000000000000000516000000000000840887000000000000009999123100000010000000000000BRBTOWACNOR8105
012013102562BTOW3T      030B2W DIGITAL ON      NM031R$  000000000166000000000016610000000001660000000000166000000000016610000000000000000000000000000002000000000000008100000000000013451734000000000000009999123100000010000000000000BRBTOWACNOR8105
012013102502BTTL3       010BATTISTELLA ON           R$  000000000009700000000000970000000000095000000000009600000000000950000000000080000000000009500002000000000000000200000000000000019200000000000000009999123100000010000000000000BRBTTLACNOR0105
012013102502BVMF3       010BMFBOVESPA  ON      NM   R$  000000000128800000000012880000000001252000000000126200000000012550000000001255000000000125713976000000000007291600000000009204033000000000000000009999123100000010000000000000BRBVMFACNOR3126
012013102596BVMF3F      020BMFBOVESPA  ON      NM   R$  000000000128500000000012850000000001251000000000126500000000012540000000001251000000000125400095000000000000002933000000000003712205000000000000009999123100000010000000000000BRBVMFACNOR3126
012013102562BVMF3T      030BMFBOVESPA  ON      NM017R$  000000000125800000000012590000000001258000000000125800000000012590000000000000000000000000000004000000000000140000000000000176156764000000000000009999123100000010000000000000BRBVMFACNOR3126
012013102562BVMF3T      030BMFBOVESPA  ON      NM028R$  000000000126200000000012630000000001262000000000126200000000012630000000000000000000000000000004000000000000003000000000000003787581000000000000009999123100000010000000000000BRBVMFACNOR3126
012013102578BVMFA13     070BVMF        ON      NM000R$  000000000005700000000000570000000000057000000000005700000000000570000000000000000000000005800001000000000000004000000000000000228000000000000130002014012000000010000000000000BRBVMFACNOR3126
012013102578BVMFA14     070BVMF        ON      NM000R$  000000000002200000000000220000000000022000000000002200000000000220000000000000000000000000000001000000000000007400000000000000162800000000000140002014012000000010000000000000BRBVMFACNOR3126
012013102578BVMFB13     070BVMF        ON      NM000R$  000000000007600000000000810000000000076000000000008000000000000780000000000026000000000000000004000000000001700600000000000137061600000000000128502014021700000010000000000000BRBVMFACNOR3125
012013102578BVMFK12     070BVMF        ON      NM000R$  000000000010900000000001090000000000088000000000009300000000000880000000000088000000000010100031000000000000040400000000000003782000000000000118502013111800000010000000000000BRBVMFACNOR3125
012013102578BVMFK13     070BVMF  FM    ON      NM000R$  000000000003200000000000350000000000024000000000002700000000000240000000000024000000000002500323000000000000692300000000000019035300000000000128502013111800000010000000000000BRBVMFACNOR3125
012013102578BVMFK14     070BVMF  FM    ON      NM000R$  000000000000600000000000060000000000004000000000000400000000000040000000000004000000000000500039000000000000166500000000000000800400000000000138502013111800000010000000000000BRBVMFACNOR3125
012013102578BVMFK15     070BVMF        ON      NM000R$  000000000000100000000000010000000000001000000000000100000000000010000000000001000000000000200004000000000000008000000000000000008000000000000148502013111800000010000000000000BRBVMFACNOR3125
012013102578BVMFK42     070BVMF  FM    ON      NM000R$  000000000005500000000000550000000000041000000000004500000000000410000000000000000000000004800030000000000000053700000000000002446800000000000125002013111800000010000000000000BRBVMFACNOR3126
012013102578BVMFK43     070BVMF  FM    ON      NM000R$  000000000000900000000000100000000000007000000000000800000000000070000000000005000000000000700026000000000000108300000000000000965200000000000135002013111800000010000000000000BRBVMFACNOR3126
012013102578BVMFK44     070BVMF  FM    ON      NM000R$  000000000000200000000000020000000000002000000000000200000000000020000000000001000000000000000025000000000000061600000000000000123200000000000145002013111800000010000000000000BRBVMFACNOR3126
012013102578BVMFL12     070BVMF        ON      NM000R$  000000000013200000000001320000000000132000000000013200000000001320000000000000000000000017900001000000000000000600000000000000079200000000000115402013121600000010000000000000BRBVMFACNOR3123
012013102578BVMFL13     070BVMF  FM    ON      NM000R$  000000000005100000000000510000000000044000000000004600000000000440000000000044000000000006300321000000000001772200000000000082651800000000000128502013121600000010000000000000BRBVMFACNOR3125
012013102578BVMFL15     070BVMF        ON      NM000R$  000000000000300000000000030000000000003000000000000300000000000030000000000001000000000000400001000000000000001500000000000000004500000000000148502013121600000010000000000000BRBVMFACNOR3125
012013102578BVMFL42     070BVMF  FM    ON      NM000R$  000000000007000000000000700000000000062000000000006700000000000620000000000000000000000000000006000000000000012400000000000000834600000000000125002013121600000010000000000000BRBVMFACNOR3126
012013102578BVMFL43     070BVMF        ON      NM000R$  000000000003200000000000330000000000032000000000003200000000000330000000000000000000000131900008000000000002244500000000000073408400000000000131902013121600000010000000000000BRBVMFACNOR3126
012013102578BVMFL44     070BVMF  FM    ON      NM000R$  000000000000600000000000060000000000005000000000000500000000000050000000000000000000000000000006000000000000015400000000000000088700000000000145002013121600000010000000000000BRBVMFACNOR3126
012013102578BVMFL45     070BVMF        ON      NM000R$  000000000000100000000000010000000000001000000000000100000000000010000000000000000000000000200001000000000000000100000000000000000100000000000155002013121600000010000000000000BRBVMFACNOR3126
012013102578BVMFL64     070BVMF  FM    ON      NM000R$  000000000001300000000000130000000000012000000000001200000000000120000000000000000000000000000007000000000000012700000000000000157800000000000140002013121600000010000000000000BRBVMFACNOR3126
012013102582BVMFM12     080BVMFE       ON      NM000R$  000000000003200000000000320000000000032000000000003200000000000320000000000000000000000003400001000000000000000100000000000000003200000000000120002014012000000010000000000000BRBVMFACNOR3126
012013102582BVMFW12     080BVMFE FM    ON      NM000R$  000000000001100000000000160000000000011000000000001200000000000130000000000009000000000001800023000000000000043500000000000000538000000000000118502013111800000010000000000000BRBVMFACNOR3125
012013102582BVMFW13     080BVMFE FM    ON      NM000R$  000000000003900000000000490000000000039000000000004600000000000490000000000000000000000008500315000000000000047800000000000002220500000000000128502013111800000010000000000000BRBVMFACNOR3125
012013102582BVMFW14     080BVMFE       ON      NM000R$  000000000011400000000001150000000000114000000000011400000000001150000000000000000000000000000002000000000000001900000000000000217500000000000138502013111800000010000000000000BRBVMFACNOR3125
012013102582BVMFW41     080BVMFE       ON      NM000R$  000000000000700000000000080000000000007000000000000700000000000080000000000000000000000000000002000000000000001000000000000000007500000000000115002013111800000010000000000000BRBVMFACNOR3126
012013102582BVMFW42     080BVMFE FM    ON      NM000R$  000000000002600000000000340000000000025000000000003000000000000330000000000000000000000003500046000000000000153400000000000004629700000000000125002013111800000010000000000000BRBVMFACNOR3126
012013102582BVMFW43     080BVMFE FM    ON      NM000R$  000000000008400000000000980000000000084000000000009400000000000980000000000000000000000000000009000000000000023600000000000002220500000000000135002013111800000010000000000000BRBVMFACNOR3126
012013102582BVMFW52     080BVMFE       ON      NM000R$  000000000002500000000000260000000000025000000000002500000000000260000000000000000000000000000003000000000000011600000000000000298100000000000122502013111800000010000000000000BRBVMFACNOR3126
012013102582BVMFX13     080BVMFE FM    ON      NM000R$  000000000004900000000000610000000000049000000000005200000000000610000000000000000000000006200010000000000000017400000000000000911000000000000128502013121600000010000000000000BRBVMFACNOR3125
012013102582BVMFX14     080BVMFE FM    ON      NM000R$  000000000010300000000001150000000000103000000000011000000000001150000000000000000000000000000026000000000000072200000000000007963000000000000137402013121600000010000000000000BRBVMFACNOR3124
012013102582BVMFX2      080BVMFE       ON      NM000R$  000000000002000000000000200000000000020000000000002000000000000200000000000000000000000000000001000000000000000300000000000000006000000000000117402013121600000010000000000000BRBVMFACNOR3124
012013102582BVMFX42     080BVMFE FM    ON      NM000R$  000000000003800000000000450000000000038000000000004100000000000450000000000000000000000000000030000000000000052000000000000002179700000000000125002013121600000010000000000000BRBVMFACNOR3126
012013102582BVMFX62     080BVMFE FM    ON      NM000R$  000000000002600000000000260000000000025000000000002500000000000250000000000000000000000000000022000000000000042500000000000001103200000000000120002013121600000010000000000000BRBVMFACNOR3126
012013102502CAMB4       010CAMBUCI     PN           R$  000000000018100000000001810000000000177000000000018000000000001810000000000175000000000018100003000000000000001500000000000000271100000000000000009999123100000010000000000000BRCAMBACNPR1117
012013102502CARD3       010CSU CARDSYSTON      NM   R$  000000000030000000000003000000000000296000000000029800000000002990000000000291000000000029900010000000000000010600000000000003161900000000000000009999123100000010000000000000BRCARDACNOR9105
012013102502CBEE3       010AMPLA ENERG ON *         R$  000000000012300000000001230000000000120000000000012000000000001200000000000119000000000012000009000000000007700000000000000000928700000000000000009999123100010000000000000000BRCBEEACNOR3149
012013102562CBEE3T      030AMPLA ENERG ON *      090R$  000000000012500000000001260000000000122000000000012300000000001230000000000000000000000000000006000000000004000000000000000000492223000000000000009999123100010000000000000000BRCBEEACNOR3149
012013102502CBMA4       010COBRASMA    PN           R$  000000000000500000000000050000000000004000000000000400000000000050000000000004000000000000500026000000000000440000000000000002190000000000000000009999123100000010000000000000BRCBMAACNPR1124
012013102596CBMA4F      020COBRASMA    PN           R$  000000000000400000000000040000000000004000000000000400000000000040000000000004000000000000500001000000000000000001000000000000000004000000000000009999123100000010000000000000BRCBMAACNPR1124
012013102508CCHI3       010CHIARELLI   ON           R$  000000000001500000000000150000000000014000000000001400000000000140000000000013000000000001400016000000000000300000000000000004300000000000000000009999123100000010000000000000BRCCHIACNOR5123
012013102596CCHI3F      020CHIARELLI   ON           R$  000000000001500000000000150000000000014000000000001400000000000140000000000014000000000001500003000000000000004702000000000000068494000000000000009999123100000010000000000000BRCCHIACNOR5123
012013102596CCHI4F      020CHIARELLI   PN           R$  000000000001200000000000120000000000009000000000001100000000000090000000000009000000000001200002000000000000008099000000000000096891000000000000009999123100000010000000000000BRCCHIACNPR2122
012013102502CCPR3       010CYRE COM-CCPON      NM   R$  000000000203600000000020370000000002026000000000203100000000020260000000002026000000000204900008000000000000002400000000000004876600000000000000009999123100000010000000000000BRCCPRACNOR9107
012013102596CCPR3F      020CYRE COM-CCPON      NM   R$  000000000198100000000019810000000001981000000000198100000000019810000000001981000000000212000001000000000000000054000000000000106974000000000000009999123100000010000000000000BRCCPRACNOR9107
012013102502CCRO3       010CCR SA      ON      NM   R$  000000000186000000000018760000000001846000000000186600000000018700000000001870000000000187211624000000000004058100000000007573724400000000000000009999123100000010000000000000BRCCROACNOR2123
012013102596CCRO3F      020CCR SA      ON      NM   R$  000000000185800000000018720000000001846000000000186400000000018660000000001846000000000187300087000000000000003202000000000005969087000000000000009999123100000010000000000000BRCCROACNOR2123
012013102562CCRO3T      030CCR SA      ON      NM017R$  000000000187700000000018780000000001877000000000187700000000018780000000000000000000000000000002000000000000003000000000000005633001000000000000009999123100000010000000000000BRCCROACNOR2123
012013102562CCRO3T      030CCR SA      ON      NM031R$  000000000187200000000018730000000001872000000000187200000000018730000000000000000000000000000002000000000000001100000000000002059708000000000000009999123100000010000000000000BRCCROACNOR2123
012013102562CCRO3T      030CCR SA      ON      NM060R$  000000000189200000000018930000000001892000000000189200000000018930000000000000000000000000000002000000000000001000000000000001892684000000000000009999123100000010000000000000BRCCROACNOR2123
012013102578CCROK20     070CCRO        ON      NM000R$  000000000001300000000000130000000000013000000000001300000000000130000000000000000000000003000001000000000000001600000000000000020800000000000193202013111800000010000000000000BRCCROACNOR2122
012013102502CCXC3       010CCX CARVAO  ON      NM   R$  000000000013500000000001350000000000127000000000013200000000001320000000000132000000000013301037000000000004125700000000000544997200000000000000009999123100000010000000000000BRCCXCACNOR5100
012013102596CCXC3F      020CCX CARVAO  ON      NM   R$  000000000013200000000001320000000000130000000000013000000000001300000000000129000000000013500010000000000000000247000000000000032316000000000000009999123100000010000000000000BRCCXCACNOR5100
012013102562CCXC3T      030CCX CARVAO  ON      NM031R$  000000000013400000000001350000000000133000000000013400000000001340000000000000000000000000000004000000000000110000000000000014831637000000000000009999123100000010000000000000BRCCXCACNOR5100
012013102502CEDO3       010CEDRO       ON      N1   R$  000000000124900000000012490000000001249000000000124900000000012490000000001100000000000125000001000000000000000200000000000000249800000000000000009999123100000010000000000000BRCEDOACNOR8094
012013102502CEDO4       010CEDRO       PN      N1   R$  000000000093500000000009450000000000935000000000093600000000009450000000000901000000000094500006000000000000001000000000000000936000000000000000009999123100000010000000000000BRCEDOACNPR5126
012013102596CEDO4F      020CEDRO       PN      N1   R$  000000000093500000000009350000000000935000000000093500000000009350000000000900000000000093500001000000000000000060000000000000056100000000000000009999123100000010000000000000BRCEDOACNPR5126
012013102502CEEB3       010COELBA      ON           R$  000000000330000000000033000000000003300000000000330000000000033000000000003202000000000340000002000000000000000200000000000000660000000000000000009999123100000010000000000000BRCEEBACNOR3163
012013102502CEEB5       010COELBA      PNA          R$  000000000308000000000030800000000003080000000000308000000000030800000000003030000000000370000001000000000000000100000000000000308000000000000000009999123100000010000000000000BRCEEBACNPA6157
012013102596CEEB5F      020COELBA      PNA          R$  000000000336100000000033610000000003361000000000336100000000033610000000003009000000000370000001000000000000000030000000000000100830000000000000009999123100000010000000000000BRCEEBACNPA6157
012013102508CELP3       010CELPA       ON           R$  000000000008500000000000850000000000084000000000008400000000000840000000000070000000000008400002000000000000000200000000000000016900000000000000009999123100000010000000000000BRCELPACNOR8112
012013102512CEOC11B     010FII CEO CCP CI      MB   R$  000000000865000000000086500000000008600000000000864400000000086010000000008601000000000868400071000000000000001728000000000014937810000000000000009999123100000010000000000000BRCEOCCTF003111
012013102502CESP3       010CESP        ON      N1   R$  000000000197000000000019700000000001913000000000192200000000019200000000001920000000000196400011000000000000002800000000000005382300000000000000009999123100000010000000000000BRCESPACNOR3160
012013102502CESP5       010CESP        PNA     N1   R$  000000000211000000000021270000000002110000000000211200000000021270000000002127000000000223000003000000000000000600000000000001267700000000000000009999123100000010000000000000BRCESPACNPA6108
012013102502CESP6       010CESP        PNB     N1   R$  000000000221500000000022390000000002202000000000222700000000022220000000002222000000000223702308000000000000412300000000000918278000000000000000009999123100000010000000000000BRCESPACNPB4119
012013102596CESP6F      020CESP        PNB     N1   R$  000000000222000000000022390000000002219000000000223100000000022290000000002213000000000222900015000000000000000328000000000000731437000000000000009999123100000010000000000000BRCESPACNPB4119
012013102502CGAS5       010COMGAS      PNA          R$  000000000588900000000059200000000005860000000000589000000000059000000000005900000000000591400034000000000000006700000000000039468900000000000000009999123100000010000000000000BRCGASACNPA3129
012013102596CGAS5F      020COMGAS      PNA          R$  000000000585100000000058510000000005851000000000585100000000058510000000005810000000000638500002000000000000000132000000000000772332000000000000009999123100000010000000000000BRCGASACNPA3129
012013102502CGRA3       010GRAZZIOTIN  ON           R$  000000000164000000000016400000000001640000000000164000000000016400000000001640000000000167000001000000000000001000000000000001640000000000000000009999123100000010000000000000BRCGRAACNOR2061
012013102502CGRA4       010GRAZZIOTIN  PN           R$  000000000176100000000017700000000001750000000000175500000000017700000000001750000000000177000011000000000000002300000000000004038700000000000000009999123100000010000000000000BRCGRAACNPR9061
012013102596CGRA4F      020GRAZZIOTIN  PN           R$  000000000176000000000017600000000001600000000000166400000000016000000000001740000000000190000006000000000000000044000000000000073250000000000000009999123100000010000000000000BRCGRAACNPR9061
012013102502CHVX34      010CHEVRON     DRN          R$  000000002650100000000265010000000026501000000002650100000000265010000000026094000000002713800001000000000000000100000000000002650100000000000000009999123100000010000000000000BRCHVXBDR008109
012013102502CIEL3       010CIELO       ON      NM   R$  000000000656000000000066800000000006529000000000663900000000066580000000006658000000000666805282000000000001076600000000007147847700000000000000009999123100000010000000000000BRCIELACNOR3112
012013102596CIEL3F      020CIELO       ON      NM   R$  000000000652400000000066870000000006520000000000663000000000066710000000006655000000000667200101000000000000002779000000000018429116000000000000009999123100000010000000000000BRCIELACNOR3112
012013102578CIELK63     070CIEL        ON      NM000R$  000000000042200000000004220000000000422000000000042200000000004220000000000000000000000000000001000000000000000500000000000000211000000000000630002013111800000010000000000000BRCIELACNOR3112
012013102578CIELL5      070CIEL        ON      NM000R$  000000000027500000000002750000000000275000000000027500000000002750000000000000000000000000000001000000000000100000000000000027500000000000000650002013121600000010000000000000BRCIELACNOR3112
012013102578CIELL63     070CIEL        ON      NM000R$  000000000041300000000004140000000000413000000000041300000000004140000000000000000000000000000002000000000000100000000000000041335000000000000630002013121600000010000000000000BRCIELACNOR3112
012013102502CLSC4       010CELESC      PN      N2   R$  000000000182000000000018350000000001799000000000180700000000018000000000001790000000000180500054000000000000015400000000000027835700000000000000009999123100000010000000000000BRCLSCACNPR3107
012013102596CLSC4F      020CELESC      PN      N2   R$  000000000183000000000018300000000001800000000000181100000000018000000000001752000000000182000002000000000000000080000000000000144900000000000000009999123100000010000000000000BRCLSCACNPR3107
012013102502CMIG3       010CEMIG       ON      N1   R$  000000000195200000000019610000000001937000000000194300000000019370000000001937000000000194700126000000000000028500000000000055396800000000000000009999123100000010000000000000BRCMIGACNOR6208
012013102596CMIG3F      020CEMIG       ON      N1   R$  000000000196300000000020000000000001936000000000195000000000019460000000001940000000000209800028000000000000000756000000000001474254000000000000009999123100000010000000000000BRCMIGACNOR6208
012013102562CMIG3T      030CEMIG       ON      N1180R$  000000000203900000000020400000000002039000000000203900000000020400000000000000000000000000000002000000000000001500000000000003059373000000000000009999123100000010000000000000BRCMIGACNOR6208
012013102502CMIG4       010CEMIG       PN      N1   R$  000000000196700000000019740000000001950000000000195600000000019500000000001950000000000195308384000000000002206800000000004316717300000000000000009999123100000010000000000000BRCMIGACNPR3208
012013102596CMIG4F      020CEMIG       PN      N1   R$  000000000197200000000019850000000001950000000000195900000000019500000000001955000000000198000147000000000000003728000000000007306021000000000000009999123100000010000000000000BRCMIGACNPR3208
012013102562CMIG4T      030CEMIG       PN      N1031R$  000000000196500000000019720000000001965000000000197100000000019720000000000000000000000000000004000000000000005200000000000010251510000000000000009999123100000010000000000000BRCMIGACNPR3208
012013102562CMIG4T      030CEMIG       PN      N1062R$  000000000198000000000019810000000001980000000000198000000000019810000000000000000000000000000002000000000000003000000000000005941498000000000000009999123100000010000000000000BRCMIGACNPR3208
012013102562CMIG4T      030CEMIG       PN      N1090R$  000000000201000000000020110000000002010000000000201000000000020110000000000000000000000000000002000000000000007500000000000015077618000000000000009999123100000010000000000000BRCMIGACNPR3208
012013102562CMIG4T      030CEMIG       PN      N1122R$  000000000201300000000020140000000002013000000000201300000000020140000000000000000000000000000002000000000000032000000000000064438464000000000000009999123100000010000000000000BRCMIGACNPR3208
012013102578CMIGK20     070CMIG        PN      N1000R$  000000000004000000000000400000000000025000000000003000000000000250000000000025000000000004000006000000000000011000000000000000335000000000000200002013111800000010000000000000BRCMIGACNPR3208
012013102512CNES11B     010FII CENESP  CI  ER  MB   R$  000000001280200000000129000000000012800000000001280300000000128000000000012800000000001293000007000000000000001013000000000012969444000000000000009999123100000010000000000000BRCNESCTF001127
012013102502COCE3       010COELCE      ON           R$  000000000400100000000040300000000003981000000000401000000000040300000000000001000000000403000015000000000000001600000000000006416500000000000000009999123100000010000000000000BRCOCEACNOR0132
012013102502COCE5       010COELCE      PNA          R$  000000000390000000000039320000000003874000000000389800000000039000000000003900000000000390300157000000000000022100000000000086159600000000000000009999123100000010000000000000BRCOCEACNPA3133
012013102596COCE5F      020COELCE      PNA          R$  000000000393300000000039990000000003881000000000395500000000038810000000003880000000000399900008000000000000000109000000000000431129000000000000009999123100000010000000000000BRCOCEACNPA3133
012013102502CPFE3       010CPFL ENERGIAON      NM   R$  000000000197000000000019700000000001946000000000195400000000019560000000001945000000000195602849000000000000657600000000001285417200000000000000009999123100000010000000000000BRCPFEACNOR0122
012013102596CPFE3F      020CPFL ENERGIAON      NM   R$  000000000195000000000020000000000001945000000000195800000000019570000000001944000000000195800011000000000000000233000000000000455912000000000000009999123100000010000000000000BRCPFEACNOR0122
012013102502CPLE3       010COPEL       ON      N1   R$  000000000219200000000022010000000002170000000000218200000000021880000000002180000000000218900109000000000000025900000000000056524400000000000000009999123100000010000000000000BRCPLEACNOR8128
012013102596CPLE3F      020COPEL       ON      N1   R$  000000000219900000000021990000000002199000000000219900000000021990000000002126000000000217500001000000000000000010000000000000021990000000000000009999123100000010000000000000BRCPLEACNOR8128
012013102502CPLE6       010COPEL       PNB     N1   R$  000000000305500000000030730000000003020000000000305000000000030630000000003053000000000306301507000000000000265200000000000809085400000000000000009999123100000010000000000000BRCPLEACNPB9125
012013102596CPLE6F      020COPEL       PNB     N1   R$  000000000304000000000030800000000003040000000000305500000000030520000000003022000000000315000019000000000000000600000000000001833283000000000000009999123100000010000000000000BRCPLEACNPB9125
012013102502CPRE3       010CPFL RENOVAVON      NM   R$  000000000134900000000013650000000001338000000000134700000000013500000000001300000000000135000017000000000000004200000000000005660200000000000000009999123100000010000000000000BRCPREACNOR5100
012013102502CRDE3       010CR2         ON      NM   R$  000000000039100000000003910000000000391000000000039100000000003910000000000387000000000039500001000000000000000100000000000000039100000000000000009999123100000010000000000000BRCRDEACNOR1108
012013102502CREM3       010CREMER      ON      NM   R$  000000000153000000000015310000000001530000000000153000000000015310000000001521000000000154000005000000000000000500000000000000765200000000000000009999123100000010000000000000BRCREMACNOR2167
012013102502CRIV3       010ALFA FINANC ON           R$  000000000049000000000005040000000000490000000000049500000000004990000000000476000000000049900019000000000000008900000000000004412400000000000000009999123100000010000000000000BRCRIVACNOR4190
012013102502CRIV4       010ALFA FINANC PN           R$  000000000043200000000004390000000000428000000000043200000000004330000000000433000000000044000013000000000000004800000000000002074900000000000000009999123100000010000000000000BRCRIVACNPR1190
012013102502CRUZ3       010SOUZA CRUZ  ON           R$  000000000246600000000025100000000002442000000000248100000000025050000000002492000000000250505121000000000001049800000000002605287200000000000000009999123100000010000000000000BRCRUZACNOR0248
012013102596CRUZ3F      020SOUZA CRUZ  ON           R$  000000000247800000000025790000000002446000000000249300000000025690000000002494000000000256900038000000000000000747000000000001862720000000000000009999123100000010000000000000BRCRUZACNOR0248
012013102562CRUZ3T      030SOUZA CRUZ  ON        062R$  000000000253200000000025330000000002532000000000253200000000025330000000000000000000000000000002000000000000002000000000000005065796000000000000009999123100000010000000000000BRCRUZACNOR0248
012013102502CSAN3       010COSAN       ON      NM   R$  000000000435000000000043560000000004281000000000431800000000043370000000004311000000000433704051000000000000717100000000003096763300000000000000009999123100000010000000000000BRCSANACNOR6108
012013102596CSAN3F      020COSAN       ON      NM   R$  000000000434100000000044240000000004286000000000432100000000044240000000004270000000000440000035000000000000000857000000000003703687000000000000009999123100000010000000000000BRCSANACNOR6108
012013102562CSAN3T      030COSAN       ON      NM090R$  000000000442700000000044280000000004377000000000442600000000043780000000000000000000000000000006000000000000005100000000000022574381000000000000009999123100000010000000000000BRCSANACNOR6108
012013102502CSMG3       010COPASA      ON      NM   R$  000000000377200000000037760000000003582000000000363800000000036250000000003625000000000362602185000000000000764600000000002782179500000000000000009999123100000010000000000000BRCSMGACNOR5128
012013102596CSMG3F      020COPASA      ON      NM   R$  000000000361700000000037530000000003591000000000363100000000036090000000003600000000000360900018000000000000000349000000000001265664000000000000009999123100000010000000000000BRCSMGACNOR5128
012013102514CSMO11      010ISHARES CSMOCI           R$  000000000482200000000048220000000004822000000000482200000000048220000000004820000000000491000001000000000000000010000000000000048220000000000000009999123100000010000000000000BRCSMOCTF002100
012013102502CSNA3       010SID NACIONALON           R$  000000000119200000000011920000000001156000000000116900000000011700000000001170000000000117114946000000000006823100000000007978951300000000000000009999123100000010000000000000BRCSNAACNOR6243
012013102596CSNA3F      020SID NACIONALON           R$  000000000120000000000012000000000001157000000000117100000000011650000000001165000000000116700063000000000000001890000000000002213775000000000000009999123100000010000000000000BRCSNAACNOR6243
012013102578CSNAA14     070CSNA        ON        000R$  000000000005100000000000510000000000051000000000005100000000000510000000000000000000000005200001000000000000035400000000000001805400000000000140002014012000000010000000000000BRCSNAACNOR6243
012013102578CSNAK1      070CSNA        ON        000R$  000000000019000000000001900000000000180000000000018200000000001800000000000000000000000000000002000000000000005000000000000000910000000000000100002013111800000010000000000000BRCSNAACNOR6243
012013102578CSNAK10     070CSNA        ON        000R$  000000000021000000000002100000000000200000000000020700000000002000000000000000000000000027000002000000000000000400000000000000083000000000000098002013111800000010000000000000BRCSNAACNOR6242
012013102578CSNAK11     070CSNA        ON        000R$  000000000011000000000001100000000000092000000000010400000000000920000000000000000000000000000037000000000000034700000000000003617400000000000110002013111800000010000000000000BRCSNAACNOR6243
012013102578CSNAK12     070CSNA  FM    ON        000R$  000000000004800000000000480000000000037000000000004000000000000390000000000038000000000004000031000000000000058200000000000002335900000000000120002013111800000010000000000000BRCSNAACNOR6243
012013102578CSNAK13     070CSNA  FM    ON        000R$  000000000001500000000000160000000000011000000000001200000000000120000000000012000000000001700023000000000000056500000000000000705900000000000130002013111800000010000000000000BRCSNAACNOR6243
012013102578CSNAK41     070CSNA  FM    ON        000R$  000000000006500000000000650000000000062000000000006300000000000620000000000000000000000000000003000000000000002200000000000000139400000000000115002013111800000010000000000000BRCSNAACNOR6243
012013102578CSNAK42     070CSNA  FM    ON        000R$  000000000002700000000000270000000000022000000000002500000000000220000000000000000000000002700004000000000000015000000000000000380000000000000125002013111800000010000000000000BRCSNAACNOR6243
012013102578CSNAK43     070CSNA  FM    ON        000R$  000000000000700000000000070000000000007000000000000700000000000070000000000000000000000000000004000000000000003500000000000000024500000000000135002013111800000010000000000000BRCSNAACNOR6243
012013102578CSNAK9      070CSNA        ON        000R$  000000000028900000000002890000000000289000000000028900000000002890000000000000000000000000000001000000000000001500000000000000433500000000000090002013111800000010000000000000BRCSNAACNOR6243
012013102578CSNAL10     070CSNA        ON        000R$  000000000020000000000002000000000000192000000000019300000000001920000000000000000000000000000002000000000000000500000000000000096800000000000100002013121600000010000000000000BRCSNAACNOR6243
012013102578CSNAL11     070CSNA        ON        000R$  000000000015000000000001500000000000150000000000015000000000001500000000000000000000000000000001000000000000000100000000000000015000000000000104702013121600000010000000000000BRCSNAACNOR6241
012013102578CSNAL12     070CSNA  FM    ON        000R$  000000000010300000000001030000000000088000000000010000000000000910000000000065000000000010000074000000000000069300000000000006952100000000000114702013121600000010000000000000BRCSNAACNOR6241
012013102578CSNAL13     070CSNA  FM    ON        000R$  000000000003200000000000320000000000030000000000003000000000000300000000000000000000000004300005000000000000010800000000000000331600000000000130002013121600000010000000000000BRCSNAACNOR6243
012013102578CSNAL2      070CSNA  FM    ON        000R$  000000000004500000000000450000000000045000000000004500000000000450000000000000000000000000000003000000000000007000000000000000315000000000000125002013121600000010000000000000BRCSNAACNOR6243
012013102578CSNAL20     070CSNA        ON        000R$  000000000019000000000001910000000000181000000000018800000000001830000000000000000000000000000009000000000000035400000000000006671000000000000102002013121600000010000000000000BRCSNAACNOR6243
012013102578CSNAL42     070CSNA  FM    ON        000R$  000000000007000000000000700000000000070000000000007000000000000700000000000010000000000000000001000000000000001000000000000000070000000000000119702013121600000010000000000000BRCSNAACNOR6241
012013102578CSNAL43     070CSNA  FM    ON        000R$  000000000002600000000000260000000000021000000000002300000000000210000000000000000000000000000008000000000000017900000000000000429500000000000135002013121600000010000000000000BRCSNAACNOR6243
012013102582CSNAM12     080CSNAE       ON        000R$  000000000009900000000000990000000000099000000000009900000000000990000000000070000000000000000001000000000000000100000000000000009900000000000120002014012000000010000000000000BRCSNAACNOR6243
012013102582CSNAW10     080CSNAE       ON        000R$  000000000000600000000000070000000000006000000000000600000000000060000000000000000000000000800017000000000000007600000000000000046700000000000098002013111800000010000000000000BRCSNAACNOR6242
012013102582CSNAW11     080CSNAE FM    ON        000R$  000000000002200000000000290000000000022000000000002500000000000250000000000015000000000002900082000000000000179400000000000004664200000000000110002013111800000010000000000000BRCSNAACNOR6243
012013102582CSNAW12     080CSNAE FM    ON        000R$  000000000006200000000000710000000000061000000000006600000000000680000000000050000000000007700012000000000000016300000000000001079000000000000120002013111800000010000000000000BRCSNAACNOR6243
012013102582CSNAW41     080CSNAE FM    ON        000R$  000000000003900000000000430000000000039000000000004100000000000430000000000000000000000000000004000000000000015000000000000000620000000000000115002013111800000010000000000000BRCSNAACNOR6243
012013102582CSNAW42     080CSNAE FM    ON        000R$  000000000010200000000001020000000000101000000000010100000000001010000000000000000000000000000002000000000000004900000000000000498400000000000125002013111800000010000000000000BRCSNAACNOR6243
012013102582CSNAW9      080CSNAE       ON        000R$  000000000000200000000000020000000000002000000000000200000000000020000000000000000000000000200021000000000000044000000000000000088000000000000090002013111800000010000000000000BRCSNAACNOR6243
012013102582CSNAX10     080CSNAE       ON        000R$  000000000001900000000000200000000000019000000000001900000000000200000000000000000000000002000004000000000000000400000000000000007700000000000100002013121600000010000000000000BRCSNAACNOR6243
012013102582CSNAX11     080CSNAE       ON        000R$  000000000002800000000000310000000000027000000000002800000000000280000000000016000000000003100030000000000000015800000000000000448700000000000104702013121600000010000000000000BRCSNAACNOR6241
012013102582CSNAX12     080CSNAE FM    ON        000R$  000000000005900000000000650000000000057000000000006100000000000620000000000043000000000006800074000000000000047200000000000002881100000000000114702013121600000010000000000000BRCSNAACNOR6241
012013102582CSNAX2      080CSNAE FM    ON        000R$  000000000012000000000001200000000000116000000000011800000000001160000000000000000000000000000003000000000000010500000000000001239000000000000125002013121600000010000000000000BRCSNAACNOR6243
012013102582CSNAX41     080CSNAE FM    ON        000R$  000000000004100000000000470000000000041000000000004400000000000470000000000000000000000000000002000000000000000200000000000000008800000000000110002013121600000010000000000000BRCSNAACNOR6243
012013102582CSNAX42     080CSNAE FM    ON        000R$  000000000008100000000000890000000000081000000000008500000000000880000000000000000000000000000013000000000000035900000000000003082300000000000119702013121600000010000000000000BRCSNAACNOR6241
012013102502CTAX11      010CONTAX      UNT     N2   R$  000000000185500000000018790000000001850000000000186100000000018600000000001850000000000188000049000000000000009800000000000018238200000000000000009999123100000010000000000000BRCTAXCDAM19100
012013102502CTAX3       010CONTAX      ON      N2   R$  000000000038500000000003860000000000380000000000038400000000003800000000000321000000000038600005000000000000000800000000000000307400000000000000009999123100000010000000000000BRCTAXACNOR3113
012013102502CTAX4       010CONTAX      PN      N2   R$  000000000036600000000003770000000000365000000000036600000000003650000000000365000000000037500011000000000000004300000000000001574500000000000000009999123100000010000000000000BRCTAXACNPR0114
012013102502CTIP3       010CETIP       ON      NM   R$  000000000244600000000024750000000002446000000000246400000000024600000000002456000000000246105139000000000000880100000000002168922900000000000000009999123100000010000000000000BRCTIPACNOR2120
012013102596CTIP3F      020CETIP       ON      NM   R$  000000000245200000000024740000000002421000000000246200000000024740000000002424000000000247500024000000000000000843000000000002075483000000000000009999123100000010000000000000BRCTIPACNOR2120
012013102578CTIPL55     070CTIP        ON      NM000R$  000000000003300000000000360000000000033000000000003300000000000360000000000000000000000000000003000000000000027700000000000000929700000000000255002013121600000010000000000000BRCTIPACNOR2120
012013102502CTKA4       010KARSTEN     PN           R$  000000000009700000000000970000000000097000000000009700000000000970000000000095000000000009700001000000000000000200000000000000019400000000000000009999123100000010000000000000BRCTKAACNPR7041
012013102512CTXT11      010FII C TEXTILCI           R$  000000000030300000000003030000000000303000000000030300000000003030000000000301000000000000000001000000000000000318000000000000096354000000000000009999123100000010000000000000BRCTXTCTF014110
012013102512CXCE11B     010FII CX CEDAECI      MB   R$  000000019350000000001935000000000193500000000019350000000001935000000000192000000000019350000001000000000000000003000000000000580500000000000000009999123100000010000000000000BRCXCECTF004139
012013102512CXTL11      010FII CX TRX  CI           R$  000000007129000000000715000000000071290000000007135300000000712900000000071500000000007250000003000000000000000033000000000002354670000000000000009999123100000010000000000000BRCXTLCTF003123
012013102502CYRE3       010CYRELA REALTON      NM   R$  000000000167700000000016860000000001658000000000167500000000016730000000001673000000000167708247000000000002323000000000003893455300000000000000009999123100000010000000000000BRCYREACNOR7125
