00COTAHIST.2013BOVESPA 20130715                                                                                                                                                                                                                      
012013071502AAPL11B     010APPLE       DRN     MB   R$  000000000955200000000095520000000009552000000000955200000000095520000000009450000000000955500001000000000000000200000000000001910400000000000000009999123100000010000000000000BRAAPLBDR004104
012013071510ABCB2       010ABC BRASIL  DIR PRE N2   R$  000000000020000000000002000000000000180000000000018100000000001800000000000000000000000000000209000000000000033000000000000005984000000000000000009999123100000010000000000000BRABCBD03PR5119
012013071596ABCB2F      020ABC BRASIL  DIR PRE N2   R$  000000000017000000000001800000000000170000000000017100000000001700000000000170000000000029000005000000000000000168000000000000028850000000000000009999123100000010000000000000BRABCBD03PR5119
012013071502ABCB4       010ABC BRASIL  PN      N2   R$  000000000127000000000012800000000001252000000000126100000000012640000000001264000000000126700912000000000000194000000000000244687200000000000000009999123100000010000000000000BRABCBACNPR4120
012013071502ABRE11      010ABRIL EDUCA UNT     N2   R$  000000000398100000000040440000000003927000000000399900000000039950000000003969000000000399500588000000000000087400000000000349568000000000000000009999123100000010000000000000BRABRECDAM15102
012013071596ABRE11F     020ABRIL EDUCA UNT     N2   R$  000000000402400000000040240000000004007000000000401600000000040130000000003941000000000409800003000000000000000029000000000000116482000000000000009999123100000010000000000000BRABRECDAM15102
012013071502AEDU3       010ANHANGUERA  ON      NM   R$  000000000126100000000012890000000001260000000000128200000000012870000000001280000000000128706583000000000001357900000000001741191900000000000000009999123100000010000000000000BRAEDUACNOR9107
012013071596AEDU3F      020ANHANGUERA  ON      NM   R$  000000000139000000000013900000000001271000000000128300000000012900000000001251000000000129000006000000000000000130000000000000166822000000000000009999123100000010000000000000BRAEDUACNOR9107
012013071578AEDUH13     070AEDU        ON      NM000R$  000000000002700000000000270000000000027000000000002700000000000270000000000000000000000000000002000000000000003600000000000000097200000000000130002013081900000010000000000000BRAEDUACNOR9107
012013071578AEDUH43     070AEDU        ON      NM000R$  000000000001700000000000170000000000017000000000001700000000000170000000000000000000000000000001000000000000006000000000000000102000000000000135002013081900000010000000000000BRAEDUACNOR9107
012013071512AEFI11      010FII AESAPAR CI           R$  000000001242900000000124290000000012300000000001235700000000124210000000012255000000001242100025000000000000004014000000000049603509000000000000009999123100000010000000000000BRAEFICTF002119
012013071502AELP3       010AES ELPA    ON           R$  000000000082500000000008250000000000825000000000082500000000008250000000000731000000000081400001000000000000000200000000000000165000000000000000009999123100000010000000000000BRAELPACNOR2119
012013071596AFLT3F      020AFLUENTE T  ON           R$  000000000037000000000003700000000000370000000000037000000000003700000000000208000000000000000001000000000000000013000000000000004810000000000000009999123100000010000000000000BRAFLTACNOR1103
012013071512AGCX11      010FII AG CAIXACI           R$  000000010010000000001010000000000100100000000010060200000001007980000000100800000000010099800013000000000000000070000000000007042183000000000000009999123100000010000000000000BRAGCXCTF003108
012013071502AGEN11      010AGRENCO     DR3          R$  000000000004100000000000420000000000038000000000003900000000000390000000000039000000000004000302000000000003667300000000000144522700000000000000009999123100000010000000000000BRAGENBDR001100
012013071596AGEN11F     020AGRENCO     DR3          R$  000000000004200000000000420000000000040000000000004100000000000400000000000030000000000004300003000000000000000094000000000000003878000000000000009999123100000010000000000000BRAGENBDR001100
012013071502AGRO3       010BRASILAGRO  ON      NM   R$  000000000103500000000010450000000001033000000000103900000000010450000000001040000000000104800018000000000000022200000000000023083100000000000000009999123100000010000000000000BRAGROACNOR7102
012013071596AGRO3F      020BRASILAGRO  ON      NM   R$  000000000104000000000010400000000001040000000000104000000000010400000000000000000000000103000001000000000000000034000000000000035360000000000000009999123100000010000000000000BRAGROACNOR7102
012013071502ALLL3       010ALL AMER LATON      NM   R$  000000000084700000000008620000000000843000000000085400000000008620000000000855000000000086204820000000000001737200000000001484284500000000000000009999123100000010000000000000BRALLLACNOR6118
012013071596ALLL3F      020ALL AMER LATON      NM   R$  000000000084600000000008600000000000845000000000085100000000008600000000000855000000000087100022000000000000000637000000000000542538000000000000009999123100000010000000000000BRALLLACNOR6118
012013071562ALLL3T      030ALL AMER LATON      NM120R$  000000000087900000000008800000000000879000000000087900000000008800000000000000000000000000000002000000000000000005000000000000004397000000000000009999123100000010000000000000BRALLLACNOR6118
012013071542ALLLS1E     013ALLLE       ON      NM000R$  000000000104000000000010400000000001040000000000104000000000010400000000000000000000000000000001000000000002000000000000002080000000000000000104002013071500000010000000000000BRALLLACNOR6118
012013071542ALLLS2E     013ALLLE       ON      NM000R$  000000000108000000000010800000000001080000000000108000000000010800000000000000000000000000000001000000000002000000000000002160000000000000000108002013071500000010000000000000BRALLLACNOR6118
012013071512ALMI11B     010FII TORRE ALCI      MB   R$  000000031800000000003199990000000318000000000031872900000003199990000000313101000000031999900004000000000000000024000000000007649496000000000000009999123100000010000000000000BRALMICTF003203
012013071502ALPA3       010ALPARGATAS  ON      N1   R$  000000000104500000000010670000000001045000000000106300000000010640000000001064000000000107500015000000000000094300000000000100306200000000000000009999123100000010000000000000BRALPAACNOR0202
012013071502ALPA4       010ALPARGATAS  PN      N1   R$  000000000135900000000013600000000001327000000000134000000000013400000000001335000000000134401480000000000000437600000000000586768900000000000000009999123100000010000000000000BRALPAACNPR7202
012013071596ALPA4F      020ALPARGATAS  PN      N1   R$  000000000136900000000013690000000001326000000000134100000000013260000000001326000000000135000018000000000000000435000000000000583498000000000000009999123100000010000000000000BRALPAACNPR7202
012013071502ALSC3       010ALIANSCE    ON      NM   R$  000000000189900000000019800000000001867000000000192600000000019800000000001938000000000198002117000000000000354600000000000683263300000000000000009999123100000010000000000000BRALSCACNOR0104
012013071596ALSC3F      020ALIANSCE    ON      NM   R$  000000000188500000000019510000000001885000000000193800000000019510000000001745000000000195100005000000000000000141000000000000273293000000000000009999123100000010000000000000BRALSCACNOR0104
012013071562ALSC3T      030ALIANSCE    ON      NM091R$  000000000193800000000019390000000001938000000000193800000000019390000000000000000000000000000002000000000000003000000000000005814209000000000000009999123100000010000000000000BRALSCACNOR0104
012013071562ALSC3T      030ALIANSCE    ON      NM120R$  000000000194300000000019440000000001943000000000194300000000019440000000000000000000000000000002000000000000000012000000000000023321000000000000009999123100000010000000000000BRALSCACNOR0104
012013071502ALUP11      010ALUPAR      UNT     N2   R$  000000000180000000000018080000000001778000000000178900000000018000000000001800000000000180300383000000000000169000000000000302375900000000000000009999123100000010000000000000BRALUPCDAM15100
012013071596ALUP11F     020ALUPAR      UNT     N2   R$  000000000180500000000018050000000001655000000000177900000000016550000000001815000000000198900019000000000000000297000000000000528479000000000000009999123100000010000000000000BRALUPCDAM15100
012013071502AMAR3       010LOJAS MARISAON      NM   R$  000000000221000000000023050000000002184000000000223900000000022600000000002230000000000226001200000000000000388600000000000870389700000000000000009999123100000010000000000000BRAMARACNOR4109
012013071596AMAR3F      020LOJAS MARISAON      NM   R$  000000000223300000000022720000000002190000000000222700000000022230000000002223000000000224000015000000000000000320000000000000712824000000000000009999123100000010000000000000BRAMARACNOR4109
012013071562AMAR3T      030LOJAS MARISAON      NM120R$  000000000234000000000023410000000002340000000000234000000000023410000000000000000000000000000002000000000000000010000000000000023404000000000000009999123100000010000000000000BRAMARACNOR4109
012013071578AMARL56     070AMAR        ON      NM000R$  000000000006000000000000600000000000060000000000006000000000000600000000000000000000000000000001000000000000069400000000000004164000000000000265002013121600000010000000000000BRAMARACNOR4109
012013071582AMARX20     080AMARE       ON      NM000R$  000000000005000000000000500000000000050000000000005000000000000500000000000000000000000000000001000000000000069400000000000003470000000000000200002013121600000010000000000000BRAMARACNOR4109
012013071582AMARX22     080AMARE       ON      NM000R$  000000000012400000000001240000000000123000000000012300000000001230000000000000000000000000000002000000000000069400000000000008577800000000000220002013121600000010000000000000BRAMARACNOR4109
012013071502AMBV3       010AMBEV       ON           R$  000000000819200000000083010000000008192000000000825200000000083010000000008271000000000830200880000000000000141400000000001166864800000000000000009999123100000010000000000000BRAMBVACNOR4153
012013071596AMBV3F      020AMBEV       ON           R$  000000000819000000000082990000000008190000000000824100000000082890000000008208000000000828900037000000000000001067000000000008798520000000000000009999123100000010000000000000BRAMBVACNOR4153
012013071562AMBV3T      030AMBEV       ON        120R$  000000000852800000000085290000000008528000000000852800000000085290000000000000000000000000000002000000000000000006000000000000051171000000000000009999123100000010000000000000BRAMBVACNOR4153
012013071502AMBV4       010AMBEV       PN           R$  000000000819000000000083500000000008190000000000831500000000083440000000008320000000000834404629000000000001561000000000012980374100000000000000009999123100000010000000000000BRAMBVACNPR1153
012013071596AMBV4F      020AMBEV       PN           R$  000000000820000000000083490000000008136000000000830200000000082490000000008180000000000824900136000000000000003140000000000026068601000000000000009999123100000010000000000000BRAMBVACNPR1153
012013071562AMBV4T      030AMBEV       PN        030R$  000000000832500000000083760000000008325000000000834700000000083700000000000000000000000000000006000000000000003300000000000027547355000000000000009999123100000010000000000000BRAMBVACNPR1153
012013071562AMBV4T      030AMBEV       PN        060R$  000000000841100000000084120000000008411000000000841100000000084120000000000000000000000000000002000000000000001300000000000010935046000000000000009999123100000010000000000000BRAMBVACNPR1153
012013071562AMBV4T      030AMBEV       PN        120R$  000000000850900000000085990000000008509000000000850900000000085990000000000000000000000000000004000000000000011214000000000095426190000000000000009999123100000010000000000000BRAMBVACNPR1153
012013071538AMBVG75E    012AMBV        PN        000R$  000000000750000000000075000000000007500000000000750000000000075000000000000000000000000000000001000000000000002500000000000018750000000000000750002013071500000010000000000000BRAMBVACNPR1153
012013071538AMBVG79E    012AMBV        PN        000R$  000000000790000000000079000000000007900000000000790000000000079000000000000000000000000000000007000000000000009700000000000076630000000000000790002013071500000010000000000000BRAMBVACNPR1153
012013071538AMBVG80E    012AMBV        PN        000R$  000000000800000000000080000000000008000000000000800000000000080000000000000000000000000000000004000000000000002100000000000016800000000000000800002013071500000010000000000000BRAMBVACNPR1153
012013071538AMBVG81E    012AMBV        PN        000R$  000000000810000000000081000000000008100000000000810000000000081000000000000000000000000000000009000000000000202200000000001637820000000000000810002013071500000010000000000000BRAMBVACNPR1153
012013071538AMBVG82E    012AMBV        PN        000R$  000000000820000000000082000000000008200000000000820000000000082000000000000000000000000000000015000000000000067500000000000553500000000000000820002013071500000010000000000000BRAMBVACNPR1153
012013071578AMBVH84     070AMBV        PN        000R$  000000000017000000000002200000000000170000000000019800000000002200000000000059000000000030000041000000000000120100000000000023813000000000000840002013081900000010000000000000BRAMBVACNPR1153
012013071578AMBVH85     070AMBV        PN        000R$  000000000017500000000001750000000000150000000000015100000000001500000000000000000000000000000005000000000000012400000000000001875400000000000850002013081900000010000000000000BRAMBVACNPR1153
012013071578AMBVH86     070AMBV        PN        000R$  000000000012100000000001400000000000115000000000012900000000001250000000000000000000000000000029000000000000038000000000000004908000000000000860002013081900000010000000000000BRAMBVACNPR1153
012013071578AMBVH87     070AMBV        PN        000R$  000000000007500000000000750000000000075000000000007500000000000750000000000000000000000000000001000000000000001100000000000000082500000000000870002013081900000010000000000000BRAMBVACNPR1153
012013071578AMBVH90     070AMBV        PN        000R$  000000000002500000000000400000000000025000000000003100000000000400000000000000000000000000000009000000000000013700000000000000431000000000000900002013081900000010000000000000BRAMBVACNPR1153
012013071542AMBVS83E    013AMBVE       PN        000R$  000000000830000000000083000000000008300000000000830000000000083000000000000000000000000000000002000000000000000200000000000001660000000000000830002013071500000010000000000000BRAMBVACNPR1153
012013071502ARTR3       010ARTERIS     ON      NM   R$  000000000203500000000020600000000002013000000000204500000000020550000000002035000000000205502725000000000001027000000000002100474700000000000000009999123100000010000000000000BRARTRACNOR3101
012013071596ARTR3F      020ARTERIS     ON      NM   R$  000000000205900000000020590000000001912000000000202800000000020100000000002010000000000205900032000000000000000924000000000001874272000000000000009999123100000010000000000000BRARTRACNOR3101
012013071562ARTR3T      030ARTERIS     ON      NM030R$  000000000204900000000020500000000002049000000000204900000000020500000000000000000000000000000002000000000000000500000000000001024821000000000000009999123100000010000000000000BRARTRACNOR3101
012013071562ARTR3T      030ARTERIS     ON      NM120R$  000000000211300000000021140000000002113000000000211300000000021140000000000000000000000000000002000000000000000045000000000000095110000000000000009999123100000010000000000000BRARTRACNOR3101
012013071502ARZZ3       010AREZZO CO   ON      NM   R$  000000000352700000000035720000000003426000000000350200000000035620000000003562000000000357600736000000000000129500000000000453625300000000000000009999123100000010000000000000BRARZZACNOR3108
012013071596ARZZ3F      020AREZZO CO   ON      NM   R$  000000000345300000000035450000000003399000000000346500000000035450000000003447000000000354500008000000000000000180000000000000623703000000000000009999123100000010000000000000BRARZZACNOR3108
012013071502AUTM3       010AUTOMETAL   ON      NM   R$  000000000176100000000018200000000001744000000000178700000000018000000000001785000000000180001074000000000000286700000000000512477900000000000000009999123100000010000000000000BRAUTMACNOR8109
012013071596AUTM3F      020AUTOMETAL   ON      NM   R$  000000000171500000000017970000000001715000000000173500000000017970000000001700000000000185000002000000000000000020000000000000034710000000000000009999123100000010000000000000BRAUTMACNOR8109
012013071502AXPB11B     010AMERICAN EXPDRN     MB   R$  000000001740100000000174010000000017401000000001740100000000174010000000016888000000001774400001000000000000000100000000000001740100000000000000009999123100000010000000000000BRAXPBBDR007105
012013071502BAUH4       010EXCELSIOR   PN           R$  000000000102400000000010240000000001024000000000102400000000010240000000000960000000000102400003000000000000000300000000000000307200000000000000009999123100000010000000000000BRBAUHACNPR3108
012013071502BAZA3       010AMAZONIA    ON           R$  000000000003300000000000330000000000033000000000003300000000000330000000000032000000000003400003000000000000007000000000000000231000000000000000009999123100000010000000000000BRBAZAACNOR0163
012013071502BBAS3       010BRASIL      ON      NM   R$  000000000209900000000021630000000002086000000000212700000000021590000000002157000000000215912777000000000004552900000000009686279700000000000000009999123100000010000000000000BRBBASACNOR3237
012013071596BBAS3F      020BRASIL      ON      NM   R$  000000000209000000000021640000000002090000000000212000000000021410000000002141000000000215500193000000000000005596000000000011870139000000000000009999123100000010000000000000BRBBASACNOR3237
012013071562BBAS3T      030BRASIL      ON      NM016R$  000000000211100000000021120000000002111000000000211100000000021120000000000000000000000000000002000000000000002000000000000004223759000000000000009999123100000010000000000000BRBBASACNOR3237
012013071562BBAS3T      030BRASIL      ON      NM030R$  000000000211500000000021740000000002115000000000212700000000021740000000000000000000000000000006000000000000048100000000000102310664000000000000009999123100000010000000000000BRBBASACNOR3237
012013071562BBAS3T      030BRASIL      ON      NM091R$  000000000216500000000021690000000002165000000000216600000000021690000000000000000000000000000004000000000000011000000000000023834890000000000000009999123100000010000000000000BRBBASACNOR3237
012013071538BBASG19E    012BBAS        ON      NM000R$  000000000190000000000019000000000001900000000000190000000000019000000000000000000000000000000003000000000000121600000000000231040000000000000190002013071500000010000000000000BRBBASACNOR3237
012013071538BBASG20E    012BBAS        ON      NM000R$  000000000197600000000019760000000001976000000000197600000000019760000000000000000000000000000015000000000000056700000000000112039200000000000197602013071500000010000000000000BRBBASACNOR3237
012013071538BBASG21E    012BBAS        ON      NM000R$  000000000199200000000019920000000001992000000000199200000000019920000000000000000000000000000018000000000000533900000000001063528800000000000199202013071500000010000000000000BRBBASACNOR3237
012013071578BBASH19     070BBAS        ON      NM000R$  000000000024800000000002590000000000246000000000025100000000002590000000000000000000000000000006000000000000008000000000000002012000000000000190002013081900000010000000000000BRBBASACNOR3237
012013071578BBASH20     070BBAS  FM    ON      NM000R$  000000000015600000000002020000000000156000000000017200000000001990000000000000000000000027500133000000000000131300000000000022693700000000000200002013081900000010000000000000BRBBASACNOR3237
012013071578BBASH21     070BBAS  FM    ON      NM000R$  000000000010800000000001420000000000107000000000012000000000001420000000000111000000000016400111000000000000142900000000000017188800000000000207602013081900000010000000000000BRBBASACNOR3236
012013071578BBASH22     070BBAS  FM    ON      NM000R$  000000000005800000000000800000000000057000000000006300000000000780000000000045000000000008500143000000000000287700000000000018392200000000000217602013081900000010000000000000BRBBASACNOR3236
012013071578BBASH23     070BBAS  FM    ON      NM000R$  000000000002700000000000400000000000027000000000003200000000000390000000000026000000000004000079000000000000100800000000000003305300000000000227602013081900000010000000000000BRBBASACNOR3236
012013071578BBASH24     070BBAS  FM    ON      NM000R$  000000000001800000000000280000000000018000000000002100000000000270000000000020000000000002800043000000000000073000000000000001580500000000000231702013081900000010000000000000BRBBASACNOR3233
012013071578BBASH25     070BBAS        ON      NM000R$  000000000000800000000000110000000000008000000000001000000000000110000000000010000000000001100016000000000000050300000000000000504100000000000241702013081900000010000000000000BRBBASACNOR3233
012013071578BBASH26     070BBAS        ON      NM000R$  000000000000300000000000030000000000003000000000000300000000000030000000000003000000000000600002000000000000004300000000000000012900000000000256602013081900000010000000000000BRBBASACNOR3235
012013071578BBASI20     070BBAS  FM    ON      NM000R$  000000000018700000000002260000000000186000000000020200000000002260000000000000000000000000000037000000000000067500000000000013677500000000000200002013091600000010000000000000BRBBASACNOR3237
012013071578BBASI21     070BBAS  FM    ON      NM000R$  000000000012500000000001540000000000124000000000013300000000001540000000000000000000000000000035000000000000061100000000000008141800000000000210002013091600000010000000000000BRBBASACNOR3237
012013071578BBASI22     070BBAS  FM    ON      NM000R$  000000000008800000000001100000000000086000000000009300000000001100000000000007000000000000000027000000000000047800000000000004460900000000000217602013091600000010000000000000BRBBASACNOR3236
012013071578BBASI23     070BBAS  FM    ON      NM000R$  000000000005100000000000630000000000051000000000005300000000000630000000000031000000000000000020000000000000030200000000000001617500000000000227602013091600000010000000000000BRBBASACNOR3236
012013071578BBASI24     070BBAS  FM    ON      NM000R$  000000000003200000000000380000000000027000000000003200000000000360000000000022000000000004000083000000000000067600000000000002211800000000000237602013091600000010000000000000BRBBASACNOR3236
012013071578BBASI25     070BBAS        ON      NM000R$  000000000001900000000000220000000000019000000000002000000000000220000000000011000000000000000004000000000000010700000000000000223000000000000246602013091600000010000000000000BRBBASACNOR3235
012013071578BBASI26     070BBAS        ON      NM000R$  000000000001200000000000120000000000012000000000001200000000000120000000000009000000000004800001000000000000000300000000000000003600000000000256602013091600000010000000000000BRBBASACNOR3235
012013071542BBASS22E    013BBASE       ON      NM000R$  000000000211700000000021170000000002117000000000211700000000021170000000000000000000000000000009000000000000207300000000000438854100000000000211702013071500000010000000000000BRBBASACNOR3237
012013071542BBASS23E    013BBASE       ON      NM000R$  000000000226600000000022660000000002266000000000226600000000022660000000000000000000000000000010000000000000708500000000001605461000000000000226602013071500000010000000000000BRBBASACNOR3237
012013071542BBASS24E    013BBASE       ON      NM000R$  000000000231700000000023170000000002317000000000231700000000023170000000000000000000000000000018000000000000359800000000000833656600000000000231702013071500000010000000000000BRBBASACNOR3237
012013071542BBASS25E    013BBASE       ON      NM000R$  000000000246600000000024660000000002466000000000246600000000024660000000000000000000000000000014000000000000055200000000000136123200000000000246602013071500000010000000000000BRBBASACNOR3237
012013071542BBASS26E    013BBASE       ON      NM000R$  000000000251700000000025170000000002517000000000251700000000025170000000000000000000000000000012000000000000403400000000001015357800000000000251702013071500000010000000000000BRBBASACNOR3237
012013071542BBASS27E    013BBASE       ON      NM000R$  000000000266600000000026660000000002666000000000266600000000026660000000000000000000000000000005000000000000083800000000000223410800000000000266602013071500000010000000000000BRBBASACNOR3237
012013071542BBASS28E    013BBASE       ON      NM000R$  000000000276600000000027660000000002766000000000276600000000027660000000000000000000000000000001000000000000004000000000000011064000000000000276602013071500000010000000000000BRBBASACNOR3237
012013071542BBASS29E    013BBASE       ON      NM000R$  000000000286600000000028660000000002866000000000286600000000028660000000000000000000000000000001000000000000002000000000000005732000000000000286602013071500000010000000000000BRBBASACNOR3237
012013071542BBASS30E    013BBASE       ON      NM000R$  000000000296600000000029660000000002966000000000296600000000029660000000000000000000000000000001000000000000008000000000000023728000000000000296602013071500000010000000000000BRBBASACNOR3237
012013071582BBAST14     080BBASE       ON      NM000R$  000000000000100000000000010000000000001000000000000100000000000010000000000000000000000000000001000000000000001500000000000000001500000000000140002013081900000010000000000000BRBBASACNOR3237
012013071582BBAST15     080BBASE       ON      NM000R$  000000000000200000000000020000000000002000000000000200000000000020000000000000000000000000000001000000000000000200000000000000000400000000000150002013081900000010000000000000BRBBASACNOR3237
012013071582BBAST19     080BBASE FM    ON      NM000R$  000000000002300000000000230000000000014000000000001900000000000140000000000000000000000002300008000000000000010700000000000000213300000000000190002013081900000010000000000000BRBBASACNOR3237
012013071582BBAST20     080BBASE FM    ON      NM000R$  000000000004200000000000420000000000032000000000003500000000000320000000000000000000000003600012000000000000027000000000000000964500000000000200002013081900000010000000000000BRBBASACNOR3237
012013071582BBAST21     080BBASE FM    ON      NM000R$  000000000006700000000000680000000000045000000000006100000000000450000000000000000000000005000019000000000000053800000000000003284100000000000207602013081900000010000000000000BRBBASACNOR3236
012013071582BBAST22     080BBASE FM    ON      NM000R$  000000000011500000000001150000000000079000000000008600000000000810000000000020000000000000000113000000000000304300000000000026385700000000000217602013081900000010000000000000BRBBASACNOR3236
012013071582BBAST23     080BBASE       ON      NM000R$  000000000018200000000001820000000000134000000000016100000000001340000000000000000000000000000013000000000000015600000000000002517600000000000227602013081900000010000000000000BRBBASACNOR3236
012013071582BBAST24     080BBASE       ON      NM000R$  000000000022000000000002200000000000194000000000020300000000001940000000000000000000000000000006000000000000009700000000000001973700000000000231702013081900000010000000000000BRBBASACNOR3233
012013071582BBASU19     080BBASE FM    ON      NM000R$  000000000003700000000000370000000000035000000000003600000000000350000000000000000000000000000002000000000000004000000000000000144000000000000190002013091600000010000000000000BRBBASACNOR3237
012013071582BBASU20     080BBASE FM    ON      NM000R$  000000000006100000000000610000000000056000000000005800000000000560000000000000000000000000000005000000000000010500000000000000609000000000000200002013091600000010000000000000BRBBASACNOR3237
012013071582BBASU21     080BBASE FM    ON      NM000R$  000000000009900000000000990000000000071000000000008500000000000710000000000000000000000000000024000000000000041000000000000003486900000000000210002013091600000010000000000000BRBBASACNOR3237
012013071582BBASU22     080BBASE FM    ON      NM000R$  000000000013500000000001350000000000101000000000012000000000001010000000000000000000000000000029000000000000052100000000000006257200000000000217602013091600000010000000000000BRBBASACNOR3236
012013071582BBASU23     080BBASE       ON      NM000R$  000000000015600000000001560000000000156000000000015600000000001560000000000000000000000000000001000000000000003000000000000000468000000000000227602013091600000010000000000000BRBBASACNOR3236
012013071582BBASU24     080BBASE       ON      NM000R$  000000000022500000000002250000000000225000000000022500000000002250000000000000000000000000000003000000000000008000000000000001800000000000000237602013091600000010000000000000BRBBASACNOR3236
012013071502BBDC3       010BRADESCO    ON      N1   R$  000000000305500000000031980000000003030000000000314900000000031860000000003180000000000318606098000000000002475600000000007797897600000000000000009999123100000010000000000000BRBBDCACNOR1604
012013071596BBDC3F      020BRADESCO    ON      N1   R$  000000000304000000000032970000000003040000000000313300000000031500000000003102000000000329800056000000000000001603000000000005023721000000000000009999123100000010000000000000BRBBDCACNOR1604
012013071502BBDC4       010BRADESCO    PN      N1   R$  000000000273000000000028190000000002700000000000278800000000027980000000002796000000000279821704000000000008088700000000022553204200000000000000009999123100000010000000000000BRBBDCACNPR8604
012013071596BBDC4F      020BRADESCO    PN      N1   R$  000000000273700000000028240000000002719000000000278600000000027830000000002783000000000280500192000000000000004986000000000013893545000000000000009999123100000010000000000000BRBBDCACNPR8604
012013071562BBDC4T      030BRADESCO    PN      N1016R$  000000000279900000000028000000000002799000000000279900000000028000000000000000000000000000000002000000000000002000000000000005598188000000000000009999123100000010000000000000BRBBDCACNPR8604
012013071562BBDC4T      030BRADESCO    PN      N1030R$  000000000280500000000028280000000002805000000000281300000000028280000000000000000000000000000006000000000000002500000000000007033567000000000000009999123100000010000000000000BRBBDCACNPR8604
012013071562BBDC4T      030BRADESCO    PN      N1038R$  000000000282500000000028260000000002825000000000282500000000028260000000000000000000000000000002000000000000002000000000000005650960000000000000009999123100000010000000000000BRBBDCACNPR8604
012013071562BBDC4T      030BRADESCO    PN      N1042R$  000000000281400000000028150000000002814000000000281400000000028150000000000000000000000000000002000000000000000150000000000000422147000000000000009999123100000010000000000000BRBBDCACNPR8604
012013071562BBDC4T      030BRADESCO    PN      N1066R$  000000000282300000000028240000000002823000000000282300000000028240000000000000000000000000000002000000000000030000000000000084709380000000000000009999123100000010000000000000BRBBDCACNPR8604
012013071562BBDC4T      030BRADESCO    PN      N1091R$  000000000285000000000028570000000002850000000000285500000000028570000000000000000000000000000004000000000000005100000000000014562130000000000000009999123100000010000000000000BRBBDCACNPR8604
012013071562BBDC4T      030BRADESCO    PN      N1120R$  000000000282700000000028280000000002827000000000282700000000028280000000000000000000000000000002000000000000011000000000000031100641000000000000009999123100000010000000000000BRBBDCACNPR8604
012013071578BBDCD33     070BBDC        PN      N1000R$  000000000013300000000001330000000000132000000000013200000000001320000000000000000000000000000003000000000001400000000000000185892000000000000330002014042200000010000000000000BRBBDCACNPR8604
012013071538BBDCG24E    012BBDC        PN      N1000R$  000000000237800000000023780000000002378000000000237800000000023780000000000000000000000000000001000000000000001000000000000002378000000000000237802013071500000010000000000000BRBBDCACNPR8604
012013071538BBDCG25E    012BBDC        PN      N1000R$  000000000247800000000024780000000002478000000000247800000000024780000000000000000000000000000002000000000000050800000000000125882400000000000247802013071500000010000000000000BRBBDCACNPR8604
012013071538BBDCG26E    012BBDC        PN      N1000R$  000000000257800000000025780000000002578000000000257800000000025780000000000000000000000000000005000000000000157700000000000406550600000000000257802013071500000010000000000000BRBBDCACNPR8604
012013071538BBDCG27E    012BBDC        PN      N1000R$  000000000267800000000026780000000002678000000000267800000000026780000000000000000000000000000021000000000000326000000000000873028000000000000267802013071500000010000000000000BRBBDCACNPR8604
012013071538BBDCG28E    012BBDC        PN      N1000R$  000000000278000000000027800000000002780000000000278000000000027800000000000000000000000000000014000000000000290800000000000808424000000000000278002013071500000010000000000000BRBBDCACNPR8604
012013071578BBDCH20     070BBDC        PN      N1000R$  000000000079800000000008100000000000797000000000080200000000008050000000000000000000000000000007000000000000003000000000000002408600000000000200002013081900000010000000000000BRBBDCACNPR8604
012013071578BBDCH25     070BBDC        PN      N1000R$  000000000033700000000003390000000000337000000000033800000000003390000000000000000000000000000002000000000000006000000000000002028000000000000248002013081900000010000000000000BRBBDCACNPR8602
012013071578BBDCH26     070BBDC        PN      N1000R$  000000000021200000000002740000000000210000000000025800000000002660000000000232000000000000000290000000000000267900000000000069233900000000000258002013081900000010000000000000BRBBDCACNPR8602
012013071578BBDCH27     070BBDC        PN      N1000R$  000000000017500000000001980000000000166000000000017900000000001880000000000181000000000000000083000000000000129000000000000023148000000000000268002013081900000010000000000000BRBBDCACNPR8602
012013071578BBDCH28     070BBDC        PN      N1000R$  000000000011000000000001340000000000105000000000011800000000001190000000000115000000000017000057000000000000087100000000000010292600000000000278002013081900000010000000000000BRBBDCACNPR8602
012013071578BBDCH29     070BBDC        PN      N1000R$  000000000005400000000000820000000000054000000000007200000000000740000000000062000000000008800386000000000000594900000000000042955900000000000288002013081900000010000000000000BRBBDCACNPR8602
012013071578BBDCH30     070BBDC        PN      N1000R$  000000000002500000000000450000000000025000000000003800000000000420000000000038000000000004600238000000000000403300000000000015690800000000000298002013081900000010000000000000BRBBDCACNPR8602
012013071578BBDCH31     070BBDC        PN      N1000R$  000000000001500000000000220000000000015000000000001900000000000220000000000022000000000003500085000000000000087900000000000001702800000000000307602013081900000010000000000000BRBBDCACNPR8600
012013071578BBDCH32     070BBDC        PN      N1000R$  000000000000800000000000110000000000007000000000000800000000000110000000000010000000000001100016000000000000051600000000000000440900000000000318002013081900000010000000000000BRBBDCACNPR8602
012013071578BBDCH33     070BBDC        PN      N1000R$  000000000000500000000000050000000000005000000000000500000000000050000000000000000000000001900001000000000000000200000000000000001000000000000327802013081900000010000000000000BRBBDCACNPR8601
012013071578BBDCH34     070BBDC        PN      N1000R$  000000000002000000000000250000000000018000000000002100000000000250000000000016000000000002700007000000000000004700000000000000099200000000000305502013081900000010000000000000BRBBDCACNPR8595
012013071578BBDCI13     070BBDC        PN      N1000R$  000000000001600000000000170000000000016000000000001600000000000170000000000000000000000000000002000000000000006000000000000000099000000000000328002013091600000010000000000000BRBBDCACNPR8602
012013071578BBDCI26     070BBDC        PN      N1000R$  000000000023200000000002900000000000232000000000027500000000002830000000000000000000000000000068000000000000118000000000000032565300000000000260002013091600000010000000000000BRBBDCACNPR8604
012013071578BBDCI27     070BBDC        PN      N1000R$  000000000020900000000002320000000000206000000000021800000000002260000000000000000000000000000060000000000000086300000000000018888700000000000268002013091600000010000000000000BRBBDCACNPR8602
012013071578BBDCI28     070BBDC        PN      N1000R$  000000000014500000000001730000000000145000000000015600000000001620000000000000000000000022000039000000000000055700000000000008737200000000000278002013091600000010000000000000BRBBDCACNPR8602
012013071578BBDCI29     070BBDC        PN      N1000R$  000000000010000000000001130000000000097000000000010500000000001120000000000092000000000000000019000000000000030500000000000003207600000000000288002013091600000010000000000000BRBBDCACNPR8602
012013071578BBDCI30     070BBDC        PN      N1000R$  000000000006000000000000750000000000060000000000007000000000000740000000000069000000000007800015000000000000062700000000000004399900000000000298002013091600000010000000000000BRBBDCACNPR8602
012013071578BBDCI32     070BBDC        PN      N1000R$  000000000002200000000000270000000000022000000000002400000000000270000000000021000000000002900017000000000000042900000000000001035000000000000318002013091600000010000000000000BRBBDCACNPR8602
012013071578BBDCI34     070BBDC        PN      N1000R$  000000000001000000000000100000000000010000000000001000000000000100000000000000000000000000000001000000000000003000000000000000030000000000000338002013091600000010000000000000BRBBDCACNPR8602
012013071578BBDCI35     070BBDC        PN      N1000R$  000000000000600000000000060000000000006000000000000600000000000060000000000000000000000000000002000000000000006000000000000000036000000000000347802013091600000010000000000000BRBBDCACNPR8601
012013071578BBDCI37     070BBDC        PN      N1000R$  000000000001200000000000120000000000012000000000001200000000000120000000000000000000000000000002000000000000006000000000000000072000000000000333802013091600000010000000000000BRBBDCACNPR8598
012013071578BBDCI81     070BBDC        PN      N1000R$  000000000003900000000000400000000000035000000000003500000000000350000000000000000000000000000011000000000000036000000000000001287000000000000308002013091600000010000000000000BRBBDCACNPR8602
012013071578BBDCJ30     070BBDC        PN      N1000R$  000000000010400000000001040000000000104000000000010400000000001040000000000000000000000000000002000000000000020600000000000002142400000000000298002013102100000010000000000000BRBBDCACNPR8602
012013071582BBDCP54     080BBDCE       PN      N1000R$  000000000009700000000000970000000000097000000000009700000000000970000000000000000000000000000002000000000001400000000000000135800000000000000245002014042200000010000000000000BRBBDCACNPR8604
012013071542BBDCS14E    013BBDCE       PN      N1000R$  000000000337800000000033780000000003378000000000337800000000033780000000000000000000000000000006000000000000101300000000000342191400000000000337802013071500000010000000000000BRBBDCACNPR8604
012013071542BBDCS28E    013BBDCE       PN      N1000R$  000000000278000000000027800000000002780000000000278000000000027800000000000000000000000000000007000000000000031100000000000086458000000000000278002013071500000010000000000000BRBBDCACNPR8604
012013071542BBDCS29E    013BBDCE       PN      N1000R$  000000000288000000000028800000000002880000000000288000000000028800000000000000000000000000000012000000000000478600000000001378368000000000000288002013071500000010000000000000BRBBDCACNPR8604
012013071542BBDCS30E    013BBDCE       PN      N1000R$  000000000297800000000029780000000002978000000000297800000000029780000000000000000000000000000011000000000000230600000000000686726800000000000297802013071500000010000000000000BRBBDCACNPR8604
012013071542BBDCS31E    013BBDCE       PN      N1000R$  000000000307800000000030780000000003078000000000307800000000030780000000000000000000000000000010000000000000161500000000000497097000000000000307802013071500000010000000000000BRBBDCACNPR8604
012013071542BBDCS32E    013BBDCE       PN      N1000R$  000000000317600000000031760000000003176000000000317600000000031760000000000000000000000000000014000000000000114700000000000364287200000000000317602013071500000010000000000000BRBBDCACNPR8604
012013071542BBDCS33E    013BBDCE       PN      N1000R$  000000000291900000000029190000000002919000000000291900000000029190000000000000000000000000000008000000000000200700000000000585843300000000000291902013071500000010000000000000BRBBDCACNPR8604
012013071542BBDCS34E    013BBDCE       PN      N1000R$  000000000300600000000030060000000003006000000000300600000000030060000000000000000000000000000005000000000000073400000000000220640400000000000300602013071500000010000000000000BRBBDCACNPR8604
012013071542BBDCS35E    013BBDCE       PN      N1000R$  000000000347600000000034760000000003476000000000347600000000034760000000000000000000000000000005000000000000207900000000000722660400000000000347602013071500000010000000000000BRBBDCACNPR8604
012013071542BBDCS36E    013BBDCE       PN      N1000R$  000000000357600000000035760000000003576000000000357600000000035760000000000000000000000000000004000000000000061400000000000219566400000000000357602013071500000010000000000000BRBBDCACNPR8604
012013071542BBDCS3E     013BBDCE       PN      N1000R$  000000000327600000000032760000000003276000000000327600000000032760000000000000000000000000000007000000000000220100000000000721047600000000000327602013071500000010000000000000BRBBDCACNPR8604
012013071542BBDCS4E     013BBDCE       PN      N1000R$  000000000342800000000034280000000003428000000000342800000000034280000000000000000000000000000006000000000000168400000000000577275200000000000342802013071500000010000000000000BRBBDCACNPR8604
012013071542BBDCS5E     013BBDCE       PN      N1000R$  000000000314600000000031460000000003146000000000314600000000031460000000000000000000000000000007000000000000181600000000000571313600000000000314602013071500000010000000000000BRBBDCACNPR8604
012013071542BBDCS8E     013BBDCE       PN      N1000R$  000000000346400000000034640000000003464000000000346400000000034640000000000000000000000000000005000000000000058000000000000200912000000000000346402013071500000010000000000000BRBBDCACNPR8604
012013071582BBDCT20     080BBDCE       PN      N1000R$  000000000000200000000000020000000000002000000000000200000000000020000000000000000000000000000002000000000000000300000000000000000600000000000200002013081900000010000000000000BRBBDCACNPR8604
012013071582BBDCT24     080BBDCE       PN      N1000R$  000000000001100000000000110000000000009000000000001000000000000090000000000000000000000000000004000000000000008000000000000000082000000000000238002013081900000010000000000000BRBBDCACNPR8602
012013071582BBDCT25     080BBDCE       PN      N1000R$  000000000001900000000000190000000000013000000000001500000000000160000000000000000000000000000216000000000000244500000000000003766100000000000248002013081900000010000000000000BRBBDCACNPR8602
012013071582BBDCT26     080BBDCE       PN      N1000R$  000000000003400000000000350000000000025000000000002900000000000250000000000000000000000000000221000000000000325900000000000009754400000000000258002013081900000010000000000000BRBBDCACNPR8602
012013071582BBDCT27     080BBDCE       PN      N1000R$  000000000007800000000000780000000000048000000000005300000000000530000000000000000000000000000038000000000000072200000000000003827100000000000268002013081900000010000000000000BRBBDCACNPR8602
012013071582BBDCT28     080BBDCE       PN      N1000R$  000000000012200000000001230000000000081000000000008900000000000890000000000000000000000000000344000000000000308300000000000027665900000000000278002013081900000010000000000000BRBBDCACNPR8602
012013071582BBDCT29     080BBDCE       PN      N1000R$  000000000015000000000001500000000000127000000000013600000000001270000000000080000000000000000112000000000000089800000000000012250800000000000288002013081900000010000000000000BRBBDCACNPR8602
012013071582BBDCT30     080BBDCE       PN      N1000R$  000000000021400000000002140000000000203000000000020900000000002030000000000120000000000000000017000000000000008100000000000001698100000000000298002013081900000010000000000000BRBBDCACNPR8602
012013071582BBDCU25     080BBDCE       PN      N1000R$  000000000003800000000000380000000000032000000000003400000000000340000000000000000000000000000011000000000000017200000000000000595800000000000250002013091600000010000000000000BRBBDCACNPR8604
012013071582BBDCU26     080BBDCE       PN      N1000R$  000000000005400000000000540000000000049000000000005100000000000530000000000000000000000000000007000000000000013200000000000000678800000000000260002013091600000010000000000000BRBBDCACNPR8604
012013071582BBDCU27     080BBDCE       PN      N1000R$  000000000008000000000000800000000000070000000000007300000000000710000000000000000000000000000018000000000000025600000000000001887200000000000268002013091600000010000000000000BRBBDCACNPR8602
012013071582BBDCU28     080BBDCE       PN      N1000R$  000000000011900000000001190000000000104000000000011200000000001040000000000000000000000000000123000000000000050400000000000005659100000000000278002013091600000010000000000000BRBBDCACNPR8602
012013071582BBDCU30     080BBDCE       PN      N1000R$  000000000024800000000002480000000000248000000000024800000000002480000000000000000000000000000001000000000000001300000000000000322400000000000298002013091600000010000000000000BRBBDCACNPR8602
012013071582BBDCU33     080BBDCE       PN      N1000R$  000000000024400000000002440000000000244000000000024400000000002440000000000000000000000000000001000000000000001700000000000000414800000000000297402013091600000010000000000000BRBBDCACNPR8598
012013071582BBDCV27     080BBDCE       PN      N1000R$  000000000009300000000000930000000000093000000000009300000000000930000000000000000000000000000001000000000000001200000000000000111600000000000268002013102100000010000000000000BRBBDCACNPR8602
012013071512BBFI11B     010FII BB PROGRCI      MB   R$  000000042420000000004249990000000424200000000042473200000004249990000000420201000000042499900003000000000000000015000000000006370990000000000000009999123100000010000000000000BRBBFICTF006196
012013071512BBPO11      010FII BB PRGIICI           R$  000000001090000000000109290000000010850000000001090900000000108980000000010898000000001092000169000000000000014112000000000153949136000000000000009999123100000010000000000000BRBBPOCTF003108
012013071512BBRC11      010FII BB CORP CI           R$  000000000980000000000098000000000009300000000000962300000000095780000000009300000000000960000016000000000000000424000000000004080526000000000000009999123100000010000000000000BRBBRCCTF004122
012013071502BBRK3       010BR BROKERS  ON      NM   R$  000000000055800000000005730000000000544000000000056000000000005620000000000560000000000056202160000000000000530100000000000297286400000000000000009999123100000010000000000000BRBBRKACNOR4108
012013071596BBRK3F      020BR BROKERS  ON      NM   R$  000000000056800000000005700000000000547000000000056200000000005470000000000547000000000069400005000000000000000195000000000000109625000000000000009999123100000010000000000000BRBBRKACNOR4108
012013071502BBSE3       010BBSEGURIDADEON      NM   R$  000000000177200000000017720000000001726000000000175000000000017610000000001761000000000176211935000000000005793100000000010139583200000000000000009999123100000010000000000000BRBBSEACNOR5100
012013071596BBSE3F      020BBSEGURIDADEON      NM   R$  000000000175000000000017750000000001726000000000174900000000017510000000001751000000000175300227000000000000006613000000000011569612000000000000009999123100000010000000000000BRBBSEACNOR5100
012013071562BBSE3T      030BBSEGURIDADEON      NM016R$  000000000174500000000017470000000001735000000000174300000000017360000000000000000000000000000008000000000000025000000000000043587980000000000000009999123100000010000000000000BRBBSEACNOR5100
012013071562BBSE3T      030BBSEGURIDADEON      NM030R$  000000000174600000000017470000000001746000000000174600000000017470000000000000000000000000000002000000000000029000000000000050645036000000000000009999123100000010000000000000BRBBSEACNOR5100
012013071578BBSEH18     070BBSE        ON      NM000R$  000000000004400000000000440000000000043000000000004300000000000430000000000000000000000000000004000000000002092000000000000091002000000000000180002013081900000010000000000000BRBBSEACNOR5100
012013071582BBSET17     080BBSEE       ON      NM000R$  000000000003300000000000340000000000030000000000003100000000000330000000000000000000000000000004000000000002092000000000000066536000000000000170002013081900000010000000000000BRBBSEACNOR5100
012013071502BBTG11      010BTG PACTUAL UNT          R$  000000000285200000000028530000000002782000000000281100000000027900000000002790000000000279901046000000000001533400000000004311290500000000000000009999123100000010000000000000BRBBTGUNT007104
012013071596BBTG11F     020BTG PACTUAL UNT          R$  000000000284100000000028410000000002800000000000281900000000028000000000002515000000000283100011000000000000000314000000000000885296000000000000009999123100000010000000000000BRBBTGUNT007104
012013071542BBTGS29E    013BBTGE       UNT       000R$  000000000290000000000029000000000002900000000000290000000000029000000000000000000000000000000001000000000000050000000000000145000000000000000290002013071500000010000000000000BRBBTGUNT007104
012013071512BBVJ11      010FII C JARDIMCI           R$  000000000803200000000080320000000007600000000000773900000000076490000000007600000000000764900101000000000000005479000000000042402786000000000000009999123100000010000000000000BRBBVJCTF001131
012013071512BCFF11B     010FII BC FFII CI  ER  MB   R$  000000000980000000000098500000000009400000000000959800000000095720000000009571000000000959900114000000000000004765000000000045735801000000000000009999123100000010000000000000BRBCFFCTF000140
012013071502BDLL3       010BARDELLA    ON           R$  000000000450000000000045000000000004500000000000450000000000045000000000004000000000000500000002000000000000000200000000000000900000000000000000009999123100000010000000000000BRBDLLACNOR1149
012013071502BDLL4       010BARDELLA    PN           R$  000000000450000000000048490000000004494000000000451600000000048000000000004401000000000480000010000000000000005500000000000024843200000000000000009999123100000010000000000000BRBDLLACNPR8149
012013071502BEEF3       010MINERVA     ON      NM   R$  000000000087900000000008950000000000859000000000088300000000008870000000000884000000000088702519000000000000891900000000000787814600000000000000009999123100000010000000000000BRBEEFACNOR6104
012013071596BEEF3F      020MINERVA     ON      NM   R$  000000000087700000000008870000000000877000000000088200000000008870000000000845000000000091500007000000000000000183000000000000161434000000000000009999123100000010000000000000BRBEEFACNOR6104
012013071562BEEF3T      030MINERVA     ON      NM030R$  000000000089400000000008950000000000894000000000089400000000008950000000000000000000000000000002000000000000001000000000000000894127000000000000009999123100000010000000000000BRBEEFACNOR6104
012013071502BEES3       010BANESTES    ON  ES       R$  000000000004700000000000480000000000047000000000004700000000000480000000000047000000000004800003000000000000010200000000000000484600000000000000009999123100000010000000000000BRBEESACNOR9242
012013071502BEES4       010BANESTES    PN  ES       R$  000000000004500000000000450000000000045000000000004500000000000450000000000042000000000004500001000000000000000100000000000000004500000000000000009999123100000010000000000000BRBEESACNPR6167
012013071502BEMA3       010BEMATECH    ON      NM   R$  000000000068800000000007070000000000686000000000069000000000006970000000000697000000000069800184000000000000155100000000000107049500000000000000009999123100000010000000000000BRBEMAACNOR0113
012013071596BEMA3F      020BEMATECH    ON      NM   R$  000000000068800000000006880000000000688000000000068800000000006880000000000663000000000070000001000000000000000050000000000000034400000000000000009999123100000010000000000000BRBEMAACNOR0113
012013071562BEMA3T      030BEMATECH    ON      NM150R$  000000000072600000000007270000000000726000000000072600000000007270000000000000000000000000000002000000000000000500000000000000363475000000000000009999123100000010000000000000BRBEMAACNOR0113
012013071502BGIP4       010BANESE      PN  EJ       R$  000000000483000000000051000000000004830000000000496500000000051000000000004920000000000515000002000000000000000200000000000000993000000000000000009999123100000010000000000000BRBGIPACNPR8178
012013071596BGIP4F      020BANESE      PN  EJ       R$  000000000490000000000049000000000004900000000000490000000000049000000000004450000000000500000002000000000000000006000000000000029400000000000000009999123100000010000000000000BRBGIPACNPR8178
012013071502BHGR3       010BHG         ON      NM   R$  000000000143900000000015000000000001400000000000144200000000015000000000001500000000000152000284000000000000586100000000000845708800000000000000009999123100000010000000000000BRBHGRACNOR9101
012013071596BHGR3F      020BHG         ON      NM   R$  000000000140200000000014500000000001300000000000141500000000014500000000001300000000000160000006000000000000000150000000000000212280000000000000009999123100000010000000000000BRBHGRACNOR9101
012013071502BICB4       010BICBANCO    PN      N1   R$  000000000040000000000004000000000000395000000000039800000000004000000000000397000000000040000147000000000000058800000000000023437000000000000000009999123100000010000000000000BRBICBACNPR7131
012013071596BICB4F      020BICBANCO    PN      N1   R$  000000000042800000000004280000000000428000000000042800000000004280000000000395000000000042800001000000000000000015000000000000006420000000000000009999123100000010000000000000BRBICBACNPR7131
012013071596BIOM4F      020BIOMM       PN           R$  000000000082000000000008330000000000820000000000082600000000008330000000000833000000000090000002000000000000000198000000000000163634000000000000009999123100000010000000000000BRBIOMACNPR9101
012013071502BISA3       010BROOKFIELD  ON      NM   R$  000000000015200000000001590000000000152000000000015500000000001560000000000156000000000015705221000000000006214100000000000968164800000000000000009999123100000010000000000000BRBISAACNOR8109
012013071596BISA3F      020BROOKFIELD  ON      NM   R$  000000000015500000000001600000000000155000000000015500000000001580000000000154000000000015900011000000000000000305000000000000047634000000000000009999123100000010000000000000BRBISAACNOR8109
012013071562BISA3T      030BROOKFIELD  ON      NM016R$  000000000015700000000001580000000000157000000000015700000000001580000000000000000000000000000002000000000000001900000000000000299613000000000000009999123100000010000000000000BRBISAACNOR8109
012013071562BISA3T      030BROOKFIELD  ON      NM091R$  000000000015400000000001550000000000154000000000015400000000001550000000000000000000000000000002000000000000052000000000000008057338000000000000009999123100000010000000000000BRBISAACNOR8109
012013071502BMEB4       010MERC BRASIL PN           R$  000000000111200000000011400000000001112000000000113500000000011380000000001100000000000113800011000000000000015800000000000017947300000000000000009999123100000010000000000000BRBMEBACNPR5190
012013071596BMEB4F      020MERC BRASIL PN           R$  000000000107800000000010780000000001078000000000107800000000010780000000001078000000000114800001000000000000000068000000000000073304000000000000009999123100000010000000000000BRBMEBACNPR5190
012013071596BMIN4F      020MERC INVEST PN           R$  000000000002200000000000220000000000022000000000002200000000000220000000000022000000000000000001000000000000000185000000000000004070000000000000009999123100000010000000000000BRBMINACNPR1159
012013071512BMLC11B     010FII BMBRC LCCI  ER  MB   R$  000000001175000000000117500000000011500000000001171500000000117500000000011550000000001175000024000000000000004200000000000049205000000000000000009999123100000010000000000000BRBMLCCTF004117
012013071502BMTO4       010BRASMOTOR   PN           R$  000000000008700000000000870000000000087000000000008700000000000870000000000085000000000008700002000000000000002000000000000000174000000000000000009999123100000010000000000000BRBMTOACNPR6065
012013071512BNFS11      010FII BANRISULCI           R$  000000001003000000000104690000000010030000000001003400000000104690000000009910000000001046900003000000000000000202000000000002026938000000000000009999123100000010000000000000BRBNFSCTF000110
012013071514BOVA11      010ISHARES BOVACI           R$  000000000451000000000046020000000004490000000000455800000000045810000000004581000000000459501462000000000002399710000000010939050200000000000000009999123100000010000000000000BRBOVACTF003101
012013071596BOVA11F     020ISHARES BOVACI           R$  000000000447000000000046230000000004450000000000452800000000044710000000004577000000000462300015000000000000000044000000000000199258000000000000009999123100000010000000000000BRBOVACTF003101
012013071562BOVA11T     030ISHARES BOVACI        030R$  000000000454800000000045490000000004548000000000454800000000045490000000000000000000000000000002000000000000007000000000000031841305000000000000009999123100000010000000000000BRBOVACTF003101
012013071562BOVA11T     030ISHARES BOVACI        038R$  000000000456400000000045650000000004564000000000456400000000045650000000000000000000000000000002000000000000002800000000000012780619000000000000009999123100000010000000000000BRBOVACTF003101
012013071542BOVAS53E    013BOVAE       CI        000R$  000000000530000000000053000000000005300000000000530000000000053000000000000000000000000000000002000000000000015000000000000079500000000000000530002013071500000010000000000000BRBOVACTF003101
012013071512BPFF11      010FII ABSOLUTOCI           R$  000000000869900000000087970000000008600000000000868000000000087000000000008600000000000870000034000000000000002564000000000022257164000000000000009999123100000010000000000000BRBPFFCTF002103
012013071502BPHA3       010BR PHARMA   ON      NM   R$  000000000105000000000010600000000001018000000000104900000000010500000000001050000000000105300828000000000000397600000000000417446900000000000000009999123100000010000000000000BRBPHAACNOR6102
012013071596BPHA3F      020BR PHARMA   ON      NM   R$  000000000104000000000010450000000001030000000000104100000000010360000000001036000000000105900005000000000000000202000000000000210412000000000000009999123100000010000000000000BRBPHAACNOR6102
012013071562BPHA3T      030BR PHARMA   ON      NM091R$  000000000107000000000010710000000001069000000000107000000000010700000000000000000000000000000006000000000000008000000000000008562067000000000000009999123100000010000000000000BRBPHAACNOR6102
012013071502BPNM4       010PANAMERICANOPN      N1   R$  000000000052800000000005280000000000515000000000052100000000005250000000000521000000000052500318000000000000108200000000000056401900000000000000009999123100000010000000000000BRBPNMACNPR6111
012013071502BRAP3       010BRADESPAR   ON      N1   R$  000000000178000000000018140000000001742000000000177300000000017420000000001742000000000178700063000000000000058100000000000103046700000000000000009999123100000010000000000000BRBRAPACNOR5124
012013071596BRAP3F      020BRADESPAR   ON      N1   R$  000000000177000000000017990000000001755000000000177900000000017550000000001750000000000179900009000000000000000253000000000000450161000000000000009999123100000010000000000000BRBRAPACNOR5124
012013071562BRAP3T      030BRADESPAR   ON      N1030R$  000000000180000000000018010000000001800000000000180000000000018010000000000000000000000000000002000000000000010600000000000019081829000000000000009999123100000010000000000000BRBRAPACNOR5124
012013071562BRAP3T      030BRADESPAR   ON      N1060R$  000000000180500000000018060000000001805000000000180500000000018060000000000000000000000000000002000000000000015000000000000027086052000000000000009999123100000010000000000000BRBRAPACNOR5124
012013071502BRAP4       010BRADESPAR   PN      N1   R$  000000000209000000000021280000000002090000000000211100000000021280000000002102000000000212803342000000000000739900000000001562346100000000000000009999123100000010000000000000BRBRAPACNPR2124
012013071596BRAP4F      020BRADESPAR   PN      N1   R$  000000000210200000000021300000000002065000000000210100000000021300000000002071000000000213000020000000000000000482000000000001012937000000000000009999123100000010000000000000BRBRAPACNPR2124
012013071562BRAP4T      030BRADESPAR   PN      N1066R$  000000000214000000000021410000000002140000000000214000000000021410000000000000000000000000000002000000000000001000000000000002140501000000000000009999123100000010000000000000BRBRAPACNPR2124
012013071538BRAPG50E    012BRAP        PN      N1000R$  000000000205000000000020500000000002050000000000205000000000020500000000000000000000000000000001000000000000005000000000000010250000000000000205002013071500000010000000000000BRBRAPACNPR2124
012013071578BRAPH22     070BRAP        PN      N1000R$  000000000002500000000000270000000000025000000000002600000000000270000000000000000000000000000002000000000000010000000000000000269800000000000220002013081900000010000000000000BRBRAPACNPR2124
012013071514BRAX11      010ISHARES BRAXCI           R$  000000000383000000000038300000000003830000000000383000000000038300000000000000000000000000000001000000000000001500000000000005745000000000000000009999123100000010000000000000BRBRAXCTF002100
012013071512BRCR11      010FII BC FUND CI  ER       R$  000000001360000000000136800000000013525000000001363600000000135600000000013560000000001359900750000000000000022392000000000305338526000000000000009999123100000010000000000000BRBRCRCTF000131
012013071502BRFS3       010BRF SA      ON      NM   R$  000000000483500000000048880000000004770000000000480600000000047850000000004785000000000478905896000000000001717400000000008255225300000000000000009999123100000010000000000000BRBRFSACNOR8110
012013071596BRFS3F      020BRF SA      ON      NM   R$  000000000482000000000048800000000004750000000000482800000000047500000000004750000000000481500077000000000000001912000000000009232178000000000000009999123100000010000000000000BRBRFSACNOR8110
012013071562BRFS3T      030BRF SA      ON      NM091R$  000000000491900000000049400000000004903000000000491300000000049100000000000000000000000000000018000000000000200000000000000982720715000000000000009999123100000010000000000000BRBRFSACNOR8110
012013071538BRFSG44E    012BRFS        ON      NM000R$  000000000436500000000043650000000004365000000000436500000000043650000000000000000000000000000010000000000000052400000000000228726000000000000436502013071500000010000000000000BRBRFSACNOR8110
012013071538BRFSG47E    012BRFS        ON      NM000R$  000000000466500000000046650000000004665000000000466500000000046650000000000000000000000000000001000000000000435000000000002029275000000000000466502013071500000010000000000000BRBRFSACNOR8110
012013071538BRFSG48E    012BRFS        ON      NM000R$  000000000476500000000047650000000004765000000000476500000000047650000000000000000000000000000001000000000000000100000000000000476500000000000476502013071500000010000000000000BRBRFSACNOR8110
012013071578BRFSH49     070BRFS        ON      NM000R$  000000000013000000000001300000000000130000000000013000000000001300000000000000000000000000000001000000000000001600000000000000208000000000000490002013081900000010000000000000BRBRFSACNOR8110
012013071502BRGE3       010ALFA CONSORCON           R$  000000000039900000000003990000000000399000000000039900000000003990000000000337000000000040000001000000000000004200000000000001675800000000000000009999123100000010000000000000BRBRGEACNOR6196
012013071502BRIN3       010BR INSURANCEON      NM   R$  000000000209100000000021480000000002091000000000212500000000021450000000002137000000000214501411000000000001071000000000002276759400000000000000009999123100000010000000000000BRBRINACNOR3105
012013071596BRIN3F      020BR INSURANCEON      NM   R$  000000000212000000000021730000000002120000000000212600000000021300000000002125000000000226300004000000000000000069000000000000146745000000000000009999123100000010000000000000BRBRINACNOR3105
012013071502BRIV3       010ALFA INVEST ON           R$  000000000064500000000006450000000000645000000000064500000000006450000000000644000000000070000001000000000000021300000000000013738500000000000000009999123100000010000000000000BRBRIVACNOR6196
012013071502BRKM3       010BRASKEM     ON      N1   R$  000000000116700000000011700000000001123000000000114500000000011230000000001115000000000112300098000000000000035700000000000040883000000000000000009999123100000010000000000000BRBRKMACNOR1110
012013071562BRKM3T      030BRASKEM     ON      N1030R$  000000000116800000000011690000000001168000000000116800000000011690000000000000000000000000000002000000000000004500000000000005259832000000000000009999123100000010000000000000BRBRKMACNOR1110
012013071502BRKM5       010BRASKEM     PNA     N1   R$  000000000164000000000017000000000001616000000000167700000000016950000000001692000000000169509019000000000002583000000000004333745200000000000000009999123100000010000000000000BRBRKMACNPA4110
012013071596BRKM5F      020BRASKEM     PNA     N1   R$  000000000164700000000017040000000001647000000000167400000000016990000000001667000000000169000050000000000000001788000000000002996349000000000000009999123100000010000000000000BRBRKMACNPA4110
012013071538BRKMG63E    012BRKME       PNA     N1000R$  000000000132000000000013200000000001320000000000132000000000013200000000000000000000000000000003000000000000714000000000000942480000000000000132002013071500000010000000000000BRBRKMACNPA4110
012013071578BRKMH16     070BRKM        PNA     N1000R$  000000000004500000000000470000000000045000000000004600000000000470000000000000000000000000000002000000000000010000000000000000469800000000000160002013081900000010000000000000BRBRKMACNPA4110
012013071578BRKMI48     070BRKM        PNA     N1000R$  000000000003400000000000350000000000033000000000003300000000000350000000000000000000000000000005000000000000800000000000000027035000000000000185002013091600000010000000000000BRBRKMACNPA4110
012013071542BRKMS69E    013BRKME       PNA     N1000R$  000000000192000000000019200000000001920000000000192000000000019200000000000000000000000000000003000000000000714000000000001370880000000000000192002013071500000010000000000000BRBRKMACNPA4110
012013071502BRML3       010BR MALLS PARON      NM   R$  000000000190100000000019950000000001901000000000195900000000019920000000001980000000000199206512000000000001972600000000003865509200000000000000009999123100000010000000000000BRBRMLACNOR9105
012013071596BRML3F      020BR MALLS PARON      NM   R$  000000000195200000000019920000000001929000000000196100000000019290000000001929000000000200000018000000000000000516000000000001012260000000000000009999123100000010000000000000BRBRMLACNOR9105
012013071578BRMLH21     070BRML        ON      NM000R$  000000000002000000000000200000000000020000000000002000000000000200000000000000000000000000000001000000000000000200000000000000004000000000000210002013081900000010000000000000BRBRMLACNOR9105
012013071542BRMLS20E    013BRMLE       ON      NM000R$  000000000200000000000020000000000002000000000000200000000000020000000000000000000000000000000012000000000000900000000000001800000000000000000200002013071500000010000000000000BRBRMLACNOR9105
012013071542BRMLS21E    013BRMLE       ON      NM000R$  000000000210000000000021000000000002100000000000210000000000021000000000000000000000000000000006000000000000460000000000000966000000000000000210002013071500000010000000000000BRBRMLACNOR9105
012013071542BRMLS51E    013BRMLE       ON      NM000R$  000000000215000000000021500000000002150000000000215000000000021500000000000000000000000000000002000000000000350000000000000752500000000000000215002013071500000010000000000000BRBRMLACNOR9105
012013071542BRMLS52E    013BRMLE       ON      NM000R$  000000000225000000000022500000000002250000000000225000000000022500000000000000000000000000000003000000000000358000000000000805500000000000000225002013071500000010000000000000BRBRMLACNOR9105
012013071542BRMLS53E    013BRMLE       ON      NM000R$  000000000235000000000023500000000002350000000000235000000000023500000000000000000000000000000001000000000000008000000000000018800000000000000235002013071500000010000000000000BRBRMLACNOR9105
012013071502BRPR3       010BR PROPERT  ON      NM   R$  000000000190500000000020050000000001880000000000196800000000020000000000002000000000000200205733000000000002377100000000004680242000000000000000009999123100000010000000000000BRBRPRACNOR9112
012013071596BRPR3F      020BR PROPERT  ON      NM   R$  000000000190000000000020000000000001894000000000195200000000020000000000001999000000000200000071000000000000002376000000000004646002000000000000009999123100000010000000000000BRBRPRACNOR9112
012013071578BRPRH50     070BRPR        ON      NM000R$  000000000002500000000000250000000000025000000000002500000000000250000000000000000000000000000002000000000000020000000000000000500000000000000205002013081900000010000000000000BRBRPRACNOR9112
012013071502BRSR6       010BANRISUL    PNB     N1   R$  000000000137700000000013940000000001362000000000138000000000013930000000001393000000000139503317000000000001228000000000001694917800000000000000009999123100000010000000000000BRBRSRACNPB4133
012013071596BRSR6F      020BANRISUL    PNB     N1   R$  000000000138000000000013850000000001360000000000137700000000013830000000001390000000000146500010000000000000000301000000000000414663000000000000009999123100000010000000000000BRBRSRACNPB4133
012013071562BRSR6T      030BANRISUL    PNB     N1091R$  000000000140600000000014070000000001406000000000140600000000014070000000000000000000000000000002000000000000000200000000000000281337000000000000009999123100000010000000000000BRBRSRACNPB4133
012013071562BRSR6T      030BANRISUL    PNB     N1101R$  000000000141300000000014140000000001413000000000141300000000014140000000000000000000000000000002000000000000000100000000000000141361000000000000009999123100000010000000000000BRBRSRACNPB4133
012013071502BSEV3       010BIOSEV      ON      NM   R$  000000000124900000000012490000000001240000000000124500000000012490000000001238000000000124900005000000000000000500000000000000622800000000000000009999123100000010000000000000BRBSEVACNOR3100
012013071596BSEV3F      020BIOSEV      ON      NM   R$  000000000125000000000012500000000001250000000000125000000000012500000000001115000000000125000001000000000000000004000000000000005000000000000000009999123100000010000000000000BRBSEVACNOR3100
012013071582BSEVS99     080BSEVE       ON      NM000R$  000000000025000000000002500000000000250000000000025000000000002500000000000000000000000000000001000000000000000196000000000000049000000000000165702014072100000010000000000000BRBSEVACNOR3100
012013071502BTOW3       010B2W DIGITAL ON      NM   R$  000000000088200000000009450000000000875000000000090900000000009440000000000940000000000094401752000000000000525700000000000478550300000000000000009999123100000010000000000000BRBTOWACNOR8105
012013071596BTOW3F      020B2W DIGITAL ON      NM   R$  000000000089000000000009400000000000890000000000091300000000009240000000000852000000000087200017000000000000000418000000000000381943000000000000009999123100000010000000000000BRBTOWACNOR8105
012013071502BTTL3       010BATTISTELLA ON           R$  000000000007700000000000780000000000077000000000007700000000000770000000000075000000000007700003000000000000002400000000000000185100000000000000009999123100000010000000000000BRBTTLACNOR0105
012013071502BTTL4       010BATTISTELLA PN           R$  000000000009600000000000970000000000096000000000009600000000000970000000000094000000000009700004000000000000001600000000000000155100000000000000009999123100000010000000000000BRBTTLACNPR7105
012013071502BVMF3       010BMFBOVESPA  ON      NM   R$  000000000127700000000012800000000001257000000000127100000000012720000000001270000000000127313670000000000008351400000000010616869000000000000000009999123100000010000000000000BRBVMFACNOR3125
012013071596BVMF3F      020BMFBOVESPA  ON      NM   R$  000000000126300000000012800000000001259000000000127000000000012620000000001262000000000127200065000000000000002230000000000002832560000000000000009999123100000010000000000000BRBVMFACNOR3125
012013071562BVMF3T      030BMFBOVESPA  ON      NM030R$  000000000128000000000012850000000001280000000000128200000000012820000000000000000000000000000012000000000001080000000000001385514000000000000000009999123100000010000000000000BRBVMFACNOR3125
012013071562BVMF3T      030BMFBOVESPA  ON      NM038R$  000000000128100000000012820000000001281000000000128100000000012820000000000000000000000000000002000000000000006000000000000007690058000000000000009999123100000010000000000000BRBVMFACNOR3125
012013071562BVMF3T      030BMFBOVESPA  ON      NM091R$  000000000128400000000012990000000001284000000000129700000000012990000000000000000000000000000006000000000000016000000000000020767215000000000000009999123100000010000000000000BRBVMFACNOR3125
012013071538BVMFG10E    012BVMF        ON      NM000R$  000000000098900000000009890000000000989000000000098900000000009890000000000000000000000000000007000000000000032300000000000031944700000000000098902013071500000010000000000000BRBVMFACNOR3125
012013071538BVMFG11E    012BVMF        ON      NM000R$  000000000110000000000011000000000001100000000000110000000000011000000000000000000000000000000019000000000000445700000000000490270000000000000110002013071500000010000000000000BRBVMFACNOR3125
012013071538BVMFG12E    012BVMF        ON      NM000R$  000000000118900000000011890000000001189000000000118900000000011890000000000000000000000000000045000000000002095200000000002491192800000000000118902013071500000010000000000000BRBVMFACNOR3125
012013071538BVMFG13E    012BVMF        ON      NM000R$  000000000126900000000012690000000001269000000000126900000000012690000000000000000000000000000083000000000001421000000000001803249000000000000126902013071500000010000000000000BRBVMFACNOR3125
012013071538BVMFG40E    012BVMF        ON      NM000R$  000000000105000000000010500000000001050000000000105000000000010500000000000000000000000000000005000000000000013600000000000014280000000000000105002013071500000010000000000000BRBVMFACNOR3125
012013071538BVMFG41E    012BVMF        ON      NM000R$  000000000115000000000011500000000001150000000000115000000000011500000000000000000000000000000008000000000000145400000000000167210000000000000115002013071500000010000000000000BRBVMFACNOR3125
012013071538BVMFG42E    012BVMF        ON      NM000R$  000000000121900000000012190000000001219000000000121900000000012190000000000000000000000000000012000000000000759500000000000925830500000000000121902013071500000010000000000000BRBVMFACNOR3125
012013071578BVMFH1      070BVMFE       ON      NM000R$  000000000003100000000000310000000000031000000000003100000000000310000000000003000000000000000001000000000000001000000000000000031000000000000132502013081900000010000000000000BRBVMFACNOR3125
012013071578BVMFH10     070BVMF        ON      NM000R$  000000000028000000000002800000000000280000000000028000000000002800000000000000000000000000000002000000000000194200000000000054376000000000000100002013081900000010000000000000BRBVMFACNOR3125
012013071578BVMFH12     070BVMF  FM    ON      NM000R$  000000000010200000000001190000000000095000000000011000000000001190000000000101000000000011902033000000000001437500000000000159131900000000000120002013081900000010000000000000BRBVMFACNOR3125
012013071578BVMFH13     070BVMF  FM    ON      NM000R$  000000000004000000000000540000000000039000000000004800000000000520000000000041000000000005200190000000000000346900000000000016873900000000000128902013081900000010000000000000BRBVMFACNOR3124
012013071578BVMFH14     070BVMF  FM    ON      NM000R$  000000000000900000000000210000000000009000000000001300000000000160000000000010000000000001400820000000000001371600000000000018416500000000000138902013081900000010000000000000BRBVMFACNOR3124
012013071578BVMFH15     070BVMF        ON      NM000R$  000000000000200000000000040000000000001000000000000300000000000040000000000003000000000000400015000000000000083100000000000000274100000000000150002013081900000010000000000000BRBVMFACNOR3125
012013071578BVMFH42     070BVMF  FM    ON      NM000R$  000000000006700000000000770000000000065000000000007300000000000770000000000000000000000000000007000000000000022000000000000001617000000000000125002013081900000010000000000000BRBVMFACNOR3125
012013071578BVMFH43     070BVMF  FM    ON      NM000R$  000000000002100000000000260000000000017000000000002100000000000260000000000014000000000002600047000000000000079900000000000001705600000000000135002013081900000010000000000000BRBVMFACNOR3125
012013071578BVMFH44     070BVMF        ON      NM000R$  000000000001000000000000100000000000010000000000001000000000000100000000000000000000000143900001000000000000006000000000000000060000000000000143902013081900000010000000000000BRBVMFACNOR3124
012013071578BVMFH45     070BVMF        ON      NM000R$  000000000000200000000000020000000000002000000000000200000000000020000000000000000000000000000001000000000000006000000000000000012000000000000155002013081900000010000000000000BRBVMFACNOR3125
012013071578BVMFH61     070BVMFE       ON      NM000R$  000000000012800000000001340000000000128000000000013000000000001340000000000000000000000000000009000000000000006600000000000000859800000000000117502013081900000010000000000000BRBVMFACNOR3125
012013071578BVMFH62     070BVMFE       ON      NM000R$  000000000009000000000000960000000000090000000000009200000000000960000000000000000000000000000009000000000000006600000000000000609000000000000122502013081900000010000000000000BRBVMFACNOR3125
012013071578BVMFI12     070BVMF  FM    ON      NM000R$  000000000012400000000001320000000000114000000000012400000000001310000000000080000000000000000592000000000000326500000000000040794100000000000120002013091600000010000000000000BRBVMFACNOR3125
012013071578BVMFI13     070BVMF  FM    ON      NM000R$  000000000005800000000000660000000000053000000000005900000000000630000000000001000000000006600108000000000000143700000000000008484600000000000130002013091600000010000000000000BRBVMFACNOR3125
012013071578BVMFI14     070BVMF  FM    ON      NM000R$  000000000002100000000000260000000000019000000000002200000000000220000000000002000000000002001786000000000001399100000000000031973700000000000140002013091600000010000000000000BRBVMFACNOR3125
012013071578BVMFI35     070BVMFE       ON      NM000R$  000000000005300000000000530000000000053000000000005300000000000530000000000000000000000000000004000000000000440000000000000023320000000000000132502013091600000010000000000000BRBVMFACNOR3125
012013071578BVMFI42     070BVMF  FM    ON      NM000R$  000000000008600000000000950000000000081000000000008700000000000950000000000000000000000000000015000000000000038200000000000003351800000000000125002013091600000010000000000000BRBVMFACNOR3125
012013071578BVMFI43     070BVMF  FM    ON      NM000R$  000000000003400000000000410000000000033000000000003600000000000410000000000000000000000000000011000000000000041400000000000001513000000000000135002013091600000010000000000000BRBVMFACNOR3125
012013071578BVMFJ13     070BVMF        ON      NM000R$  000000000008000000000000800000000000080000000000008000000000000800000000000000000000000000000002000000000000007000000000000000560000000000000130002013102100000010000000000000BRBVMFACNOR3125
012013071578BVMFL2      070BVMF        ON      NM000R$  000000000017200000000001720000000000172000000000017200000000001720000000000000000000000000000001000000000000000100000000000000017200000000000118902013121600000010000000000000BRBVMFACNOR3124
012013071582BVMFQ73     080BVMFE       ON      NM000R$  000000000010100000000001010000000000101000000000010100000000001010000000000000000000000000000001000000000000114900000000000011604900000000000128902014051900000010000000000000BRBVMFACNOR3124
012013071582BVMFR63     080BVMFE       ON      NM000R$  000000000010700000000001070000000000107000000000010700000000001070000000000000000000000000000001000000000000179100000000000019163700000000000130002014061600000010000000000000BRBVMFACNOR3125
012013071542BVMFS14E    013BVMFE       ON      NM000R$  000000000136900000000013690000000001369000000000136900000000013690000000000000000000000000000023000000000001507000000000002063083000000000000136902013071500000010000000000000BRBVMFACNOR3125
012013071542BVMFS15E    013BVMFE       ON      NM000R$  000000000148900000000014890000000001489000000000148900000000014890000000000000000000000000000010000000000000069500000000000103485500000000000148902013071500000010000000000000BRBVMFACNOR3125
012013071542BVMFS3E     013BVMFE       ON      NM000R$  000000000134900000000013490000000001349000000000134900000000013490000000000000000000000000000008000000000000452600000000000610557400000000000134902013071500000010000000000000BRBVMFACNOR3125
012013071542BVMFS43E    013BVMFE       ON      NM000R$  000000000133900000000013390000000001339000000000133900000000013390000000000000000000000000000013000000000000151400000000000202724600000000000133902013071500000010000000000000BRBVMFACNOR3125
012013071542BVMFS44E    013BVMFE       ON      NM000R$  000000000143900000000014390000000001439000000000143900000000014390000000000000000000000000000008000000000000127600000000000183616400000000000143902013071500000010000000000000BRBVMFACNOR3125
012013071542BVMFS45E    013BVMFE       ON      NM000R$  000000000153900000000015390000000001539000000000153900000000015390000000000000000000000000000001000000000000001000000000000001539000000000000153902013071500000010000000000000BRBVMFACNOR3125
012013071542BVMFS49E    013BVMFE       ON      NM000R$  000000000140000000000014000000000001400000000000140000000000014000000000000000000000000000000001000000000000005000000000000007000000000000000140002013071500000010000000000000BRBVMFACNOR3125
012013071542BVMFS50E    013BVMFE       ON      NM000R$  000000000130000000000013000000000001300000000000130000000000013000000000000000000000000000000008000000000000075800000000000098540000000000000130002013071500000010000000000000BRBVMFACNOR3125
012013071582BVMFT10     080BVMFE       ON      NM000R$  000000000000500000000000060000000000005000000000000500000000000060000000000000000000000000600017000000000000073500000000000000385900000000000100002013081900000010000000000000BRBVMFACNOR3125
012013071582BVMFT11     080BVMFE       ON      NM000R$  000000000000800000000000110000000000008000000000000800000000000110000000000001000000000001500002000000000000004500000000000000037500000000000110002013081900000010000000000000BRBVMFACNOR3125
012013071582BVMFT12     080BVMFE FM    ON      NM000R$  000000000002500000000000440000000000023000000000003300000000000380000000000023000000000004900340000000000000129400000000000004273000000000000120002013081900000010000000000000BRBVMFACNOR3125
012013071582BVMFT13     080BVMFE FM    ON      NM000R$  000000000005200000000000580000000000051000000000005400000000000580000000000000000000000000000007000000000000025800000000000001400400000000000128902013081900000010000000000000BRBVMFACNOR3124
012013071582BVMFT14     080BVMFE       ON      NM000R$  000000000012300000000001230000000000117000000000011900000000001170000000000000000000000000000005000000000000020700000000000002479900000000000138902013081900000010000000000000BRBVMFACNOR3124
012013071582BVMFT42     080BVMFE FM    ON      NM000R$  000000000003900000000000490000000000035000000000004000000000000490000000000000000000000000000019000000000000063200000000000002583000000000000125002013081900000010000000000000BRBVMFACNOR3125
012013071582BVMFT43     080BVMFE FM    ON      NM000R$  000000000009400000000001010000000000085000000000009000000000001010000000000093000000000000000051000000000000145300000000000013101800000000000135002013081900000010000000000000BRBVMFACNOR3125
012013071582BVMFT61     080BVMFE       ON      NM000R$  000000000002800000000000290000000000028000000000002800000000000290000000000000000000000000000036000000000000015000000000000000434000000000000117502013081900000010000000000000BRBVMFACNOR3125
012013071582BVMFT62     080BVMFE       ON      NM000R$  000000000002900000000000420000000000029000000000003700000000000420000000000000000000000000000046000000000000071100000000000002641100000000000122502013081900000010000000000000BRBVMFACNOR3125
012013071582BVMFU10     080BVMFE       ON      NM000R$  000000000000900000000000090000000000008000000000000800000000000090000000000000000000000000900010000000000000069100000000000000593800000000000100002013091600000010000000000000BRBVMFACNOR3125
012013071582BVMFU11     080BVMFE       ON      NM000R$  000000000001400000000000140000000000014000000000001400000000000140000000000000000000000000000001000000000000005600000000000000078400000000000110002013091600000010000000000000BRBVMFACNOR3125
012013071582BVMFU12     080BVMFE FM    ON      NM000R$  000000000003300000000000430000000000031000000000003600000000000420000000000025000000000004200018000000000000032800000000000001190500000000000120002013091600000010000000000000BRBVMFACNOR3125
012013071582BVMFU13     080BVMFE FM    ON      NM000R$  000000000007600000000000800000000000067000000000006900000000000800000000000057000000000008200010000000000000008800000000000000607400000000000130002013091600000010000000000000BRBVMFACNOR3125
012013071582BVMFU35     080BVMFE       ON      NM000R$  000000000008800000000000880000000000088000000000008800000000000880000000000000000000000000000004000000000000440000000000000038720000000000000132502013091600000010000000000000BRBVMFACNOR3125
012013071582BVMFU40     080BVMFE       ON      NM000R$  000000000001000000000000100000000000010000000000001000000000000100000000000000000000000000000002000000000000010000000000000000100000000000000105002013091600000010000000000000BRBVMFACNOR3125
012013071582BVMFU42     080BVMFE FM    ON      NM000R$  000000000005400000000000540000000000046000000000004900000000000530000000000000000000000000000018000000000000058000000000000002866200000000000125002013091600000010000000000000BRBVMFACNOR3125
012013071582BVMFU43     080BVMFE FM    ON      NM000R$  000000000009700000000000980000000000097000000000009700000000000980000000000000000000000000000002000000000000003600000000000000349300000000000135002013091600000010000000000000BRBVMFACNOR3125
012013071582BVMFW13     080BVMFE       ON      NM000R$  000000000009300000000000930000000000093000000000009300000000000930000000000000000000000000000001000000000000001800000000000000167400000000000130002013111800000010000000000000BRBVMFACNOR3125
012013071502CARD3       010CSU CARDSYSTON      NM   R$  000000000029900000000003000000000000294000000000029900000000003000000000000294000000000030000024000000000000017800000000000005324600000000000000009999123100000010000000000000BRCARDACNOR9105
012013071502CBEE3       010AMPLA ENERG ON *         R$  000000000011300000000001130000000000107000000000010900000000001090000000000109000000000012000055000000000098200000000000000010760500000000000000009999123100010000000000000000BRCBEEACNOR3149
012013071596CBMA3F      020COBRASMA    ON           R$  000000000000500000000000050000000000005000000000000500000000000050000000000004000000000000500001000000000000000001000000000000000005000000000000009999123100000010000000000000BRCBMAACNOR4124
012013071508CCHI3       010CHIARELLI   ON           R$  000000000003300000000000330000000000028000000000002900000000000290000000000029000000000003000075000000000001240000000000000036940000000000000000009999123100000010000000000000BRCCHIACNOR5123
012013071596CCHI3F      020CHIARELLI   ON           R$  000000000003100000000000320000000000030000000000003000000000000300000000000028000000000003000013000000000000023929000000000000728648000000000000009999123100000010000000000000BRCCHIACNOR5123
012013071502CCPR3       010CYRE COM-CCPON      NM   R$  000000000205800000000020580000000002045000000000204900000000020450000000002040000000000209800005000000000000000500000000000001024600000000000000009999123100000010000000000000BRCCPRACNOR9107
012013071502CCRO3       010CCR SA      ON      NM   R$  000000000167400000000017000000000001648000000000168300000000016800000000001678000000000168209696000000000002656000000000004471039400000000000000009999123100000010000000000000BRCCROACNOR2122
012013071596CCRO3F      020CCR SA      ON      NM   R$  000000000168000000000016990000000001663000000000168200000000016980000000001655000000000169800034000000000000000873000000000001469581000000000000009999123100000010000000000000BRCCROACNOR2122
012013071578CCROH47     070CCRO        ON      NM000R$  000000000003400000000000350000000000034000000000003400000000000350000000000000000000000000000002000000000000620000000000000021390000000000000175002013081900000010000000000000BRCCROACNOR2122
012013071542CCROS18E    013CCROE       ON      NM000R$  000000000180000000000018000000000001800000000000180000000000018000000000000000000000000000000002000000000000052000000000000093600000000000000180002013071500000010000000000000BRCCROACNOR2122
012013071542CCROS19E    013CCROE       ON      NM000R$  000000000190000000000019000000000001900000000000190000000000019000000000000000000000000000000001000000000000030000000000000057000000000000000190002013071500000010000000000000BRCCROACNOR2122
012013071542CCROS47E    013CCROE       ON      NM000R$  000000000175000000000017500000000001750000000000175000000000017500000000000000000000000000000002000000000000400000000000000700000000000000000175002013071500000010000000000000BRCCROACNOR2122
012013071542CCROS48E    013CCROE       ON      NM000R$  000000000185000000000018500000000001850000000000185000000000018500000000000000000000000000000002000000000000400000000000000740000000000000000185002013071500000010000000000000BRCCROACNOR2122
012013071502CCXC3       010CCX CARVAO  ON      NM   R$  000000000007800000000000820000000000077000000000007800000000000800000000000077000000000008000226000000000000989500000000000078075500000000000000009999123100000010000000000000BRCCXCACNOR5100
012013071596CCXC3F      020CCX CARVAO  ON      NM   R$  000000000007800000000000800000000000078000000000007800000000000780000000000077000000000008000004000000000000000182000000000000014376000000000000009999123100000010000000000000BRCCXCACNOR5100
012013071502CEBR3       010CEB         ON           R$  000000000175000000000017500000000001750000000000175000000000017500000000000000000000000175000001000000000000000400000000000000700000000000000000009999123100000010000000000000BRCEBRACNOR5114
012013071502CEDO3       010CEDRO       ON      N1   R$  000000000100100000000010010000000001001000000000100100000000010010000000001000000000000178500001000000000000000200000000000000200200000000000000009999123100000010000000000000BRCEDOACNOR8094
012013071596CEDO3F      020CEDRO       ON      N1   R$  000000000100100000000010010000000001001000000000100100000000010010000000000000000000000178500001000000000000000056000000000000056056000000000000009999123100000010000000000000BRCEDOACNOR8094
012013071502CEEB3       010COELBA      ON           R$  000000000340000000000034000000000003400000000000340000000000034000000000003100000000000365000001000000000000000100000000000000340000000000000000009999123100000010000000000000BRCEEBACNOR3163
012013071512CEOC11B     010FII CEO CCP CI  ER  MB   R$  000000000880100000000088750000000008500000000000864600000000087880000000008770000000000878800037000000000000001730000000000014958574000000000000009999123100000010000000000000BRCEOCCTF003108
012013071502CESP3       010CESP        ON      N1   R$  000000000162400000000016240000000001624000000000162400000000016240000000001561000000000162500003000000000000000500000000000000812000000000000000009999123100000010000000000000BRCESPACNOR3159
012013071502CESP5       010CESP        PNA     N1   R$  000000000226900000000022690000000002269000000000226900000000022690000000002070000000000226900002000000000000000300000000000000680700000000000000009999123100000010000000000000BRCESPACNPA6108
012013071502CESP6       010CESP        PNB     N1   R$  000000000193500000000019850000000001929000000000195900000000019780000000001971000000000197802509000000000000631100000000001236779300000000000000009999123100000010000000000000BRCESPACNPB4118
012013071596CESP6F      020CESP        PNB     N1   R$  000000000193600000000020000000000001935000000000196200000000020000000000001957000000000205000010000000000000000146000000000000286597000000000000009999123100000010000000000000BRCESPACNPB4118
012013071562CESP6T      030CESP        PNB     N1030R$  000000000196100000000019620000000001961000000000196100000000019620000000000000000000000000000002000000000000007000000000000013730088000000000000009999123100000010000000000000BRCESPACNPB4118
012013071502CGAS3       010COMGAS      ON           R$  000000000449900000000045900000000004499000000000458100000000045850000000004501000000000458500010000000000000015500000000000071018000000000000000009999123100000010000000000000BRCGASACNOR0132
012013071502CGAS5       010COMGAS      PNA          R$  000000000505000000000051000000000005023000000000509100000000051000000000005069000000000510000036000000000000030800000000000156832100000000000000009999123100000010000000000000BRCGASACNPA3129
012013071596CGAS5F      020COMGAS      PNA          R$  000000000491500000000050960000000004900000000000505100000000050400000000005040000000000509400008000000000000000274000000000001384166000000000000009999123100000010000000000000BRCGASACNPA3129
012013071502CGRA3       010GRAZZIOTIN  ON           R$  000000000150000000000015000000000001500000000000150000000000015000000000001494000000000150000003000000000000000400000000000000600000000000000000009999123100000010000000000000BRCGRAACNOR2061
012013071502CGRA4       010GRAZZIOTIN  PN           R$  000000000155200000000015750000000001545000000000155500000000015450000000001545000000000159800029000000000000011500000000000017891100000000000000009999123100000010000000000000BRCGRAACNPR9061
012013071502CIEL3       010CIELO       ON      NM   R$  000000000557000000000056640000000005566000000000561900000000056640000000005622000000000566403798000000000000684500000000003846911400000000000000009999123100000010000000000000BRCIELACNOR3111
012013071596CIEL3F      020CIELO       ON      NM   R$  000000000557500000000056440000000005574000000000560700000000056190000000005619000000000562900086000000000000002578000000000014464874000000000000009999123100000010000000000000BRCIELACNOR3111
012013071538CIELG51E    012CIEL        ON      NM000R$  000000000510000000000051000000000005100000000000510000000000051000000000000000000000000000000001000000000000003800000000000019380000000000000510002013071500000010000000000000BRCIELACNOR3111
012013071538CIELG56E    012CIEL        ON      NM000R$  000000000560000000000056000000000005600000000000560000000000056000000000000000000000000000000002000000000000032000000000000179200000000000000560002013071500000010000000000000BRCIELACNOR3111
012013071578CIELH58     070CIEL        ON      NM000R$  000000000012100000000001210000000000121000000000012100000000001210000000000000000000000000000002000000000000001600000000000000193600000000000580002013081900000010000000000000BRCIELACNOR3111
012013071502CLSC4       010CELESC      PN      N2   R$  000000000182500000000018260000000001795000000000180300000000018000000000001783000000000181900055000000000000006900000000000012446900000000000000009999123100000010000000000000BRCLSCACNPR3107
012013071502CMIG3       010CEMIG       ON      N1   R$  000000000201700000000020320000000001982000000000200100000000020000000000001988000000000200000394000000000000644500000000001289897600000000000000009999123100000010000000000000BRCMIGACNOR6208
012013071596CMIG3F      020CEMIG       ON      N1   R$  000000000202200000000020390000000001991000000000200900000000020000000000002001000000000203000019000000000000000464000000000000932240000000000000009999123100000010000000000000BRCMIGACNOR6208
012013071502CMIG4       010CEMIG       PN      N1   R$  000000000201600000000020170000000001954000000000199100000000020080000000002006000000000200812337000000000004773900000000009506656500000000000000009999123100000010000000000000BRCMIGACNPR3208
012013071596CMIG4F      020CEMIG       PN      N1   R$  000000000202000000000020200000000001951000000000199500000000019900000000001990000000000201400146000000000000003974000000000007929515000000000000009999123100000010000000000000BRCMIGACNPR3208
012013071562CMIG4T      030CEMIG       PN      N1030R$  000000000202300000000020240000000002023000000000202300000000020240000000000000000000000000000002000000000000010000000000000020230600000000000000009999123100000010000000000000BRCMIGACNPR3208
012013071562CMIG4T      030CEMIG       PN      N1045R$  000000000203100000000020320000000002031000000000203100000000020320000000000000000000000000000002000000000000002000000000000004062184000000000000009999123100000010000000000000BRCMIGACNPR3208
012013071562CMIG4T      030CEMIG       PN      N1091R$  000000000202800000000020290000000002028000000000202800000000020290000000000000000000000000000002000000000000000100000000000000202824000000000000009999123100000010000000000000BRCMIGACNPR3208
012013071538CMIGG19E    012CMIG        PN      N1000R$  000000000190000000000019000000000001900000000000190000000000019000000000000000000000000000000003000000000000002200000000000004180000000000000190002013071500000010000000000000BRCMIGACNPR3208
012013071578CMIGH21     070CMIG        PN      N1000R$  000000000002800000000000300000000000018000000000002200000000000180000000000000000000000000000005000000000000004300000000000000096000000000000210002013081900000010000000000000BRCMIGACNPR3208
012013071542CMIGS23E    013CMIGE       PN      N1000R$  000000000230000000000023000000000002300000000000230000000000023000000000000000000000000000000003000000000000010500000000000024150000000000000230002013071500000010000000000000BRCMIGACNPR3208
012013071512CNES11B     010FII CENESP  CI      MB   R$  000000001216900000000123470000000012169000000001225400000000123470000000012200000000001234700003000000000000000090000000000001102864000000000000009999123100000010000000000000BRCNESCTF001123
012013071502COCE3       010COELCE      ON           R$  000000000398000000000039800000000003980000000000398000000000039800000000003950000000000403900001000000000000000100000000000000398000000000000000009999123100000010000000000000BRCOCEACNOR0132
012013071502COCE5       010COELCE      PNA          R$  000000000379500000000038340000000003700000000000374300000000037580000000003730000000000375800185000000000000110300000000000412902300000000000000009999123100000010000000000000BRCOCEACNPA3133
012013071596COCE5F      020COELCE      PNA          R$  000000000381000000000038100000000003715000000000374100000000037150000000003715000000000378000014000000000000000243000000000000909170000000000000009999123100000010000000000000BRCOCEACNPA3133
012013071502CPFE3       010CPFL ENERGIAON      NM   R$  000000000208500000000020850000000002025000000000206700000000020840000000002065000000000208403461000000000000716000000000001480465700000000000000009999123100000010000000000000BRCPFEACNOR0121
012013071596CPFE3F      020CPFL ENERGIAON      NM   R$  000000000207700000000021000000000002033000000000206400000000020840000000002056000000000208400018000000000000000466000000000000961827000000000000009999123100000010000000000000BRCPFEACNOR0121
012013071502CPLE3       010COPEL       ON      N1   R$  000000000226000000000023000000000002232000000000226000000000023000000000002259000000000230000078000000000000014300000000000032324500000000000000009999123100000010000000000000BRCPLEACNOR8128
012013071502CPLE6       010COPEL       PNB     N1   R$  000000000288500000000029170000000002792000000000283800000000028400000000002827000000000284303509000000000000699200000000001984415800000000000000009999123100000010000000000000BRCPLEACNPB9125
012013071596CPLE6F      020COPEL       PNB     N1   R$  000000000288000000000029090000000002782000000000282700000000028420000000002843000000000289900027000000000000000509000000000001439826000000000000009999123100000010000000000000BRCPLEACNPB9125
