00COTAHIST.2013BOVESPA 20130913                                                                                                                                                                                                                      
012013091302ABCB4       010ABC BRASIL  PN      N2   R$  000000000123100000000012720000000001231000000000125600000000012620000000001261000000000126201556000000000000902500000000001133803700000000000000009999123100000010000000000000BRABCBACNPR4120
012013091362ABCB4T      030ABC BRASIL  PN      N2031R$  000000000126300000000012640000000001263000000000126300000000012640000000000000000000000000000002000000000000140000000000000176906952000000000000009999123100000010000000000000BRABCBACNPR4120
012013091362ABCB4T      030ABC BRASIL  PN      N2060R$  000000000127300000000012780000000001273000000000127300000000012780000000000000000000000000000004000000000000165000000000000210169344000000000000009999123100000010000000000000BRABCBACNPR4120
012013091362ABCB4T      030ABC BRASIL  PN      N2090R$  000000000128300000000012840000000001283000000000128300000000012840000000000000000000000000000002000000000000151300000000000194145874000000000000009999123100000010000000000000BRABCBACNPR4120
012013091302ABRE11      010ABRIL EDUCA UNT     N2   R$  000000000335000000000033500000000003145000000000318200000000031500000000003150000000000316401912000000000000969900000000003086667700000000000000009999123100000010000000000000BRABRECDAM15102
012013091396ABRE11F     020ABRIL EDUCA UNT     N2   R$  000000000317000000000033900000000003170000000000319600000000031800000000003180000000000320000005000000000000000165000000000000527500000000000000009999123100000010000000000000BRABRECDAM15102
012013091362ABRE11T     030ABRIL EDUCA UNT     N2031R$  000000000321600000000032170000000003216000000000321600000000032170000000000000000000000000000002000000000000001000000000000003216945000000000000009999123100000010000000000000BRABRECDAM15102
012013091362ABRE11T     030ABRIL EDUCA UNT     N2060R$  000000000322400000000032250000000003224000000000322400000000032250000000000000000000000000000002000000000000000500000000000001612131000000000000009999123100000010000000000000BRABRECDAM15102
012013091302AEDU3       010ANHANGUERA  ON      NM   R$  000000000134000000000013770000000001319000000000134100000000013740000000001365000000000137406832000000000007301100000000009794001100000000000000009999123100000010000000000000BRAEDUACNOR9107
012013091396AEDU3F      020ANHANGUERA  ON      NM   R$  000000000134000000000013820000000001329000000000135400000000013700000000001331000000000137000034000000000000001168000000000001583857000000000000009999123100000010000000000000BRAEDUACNOR9107
012013091312AEFI11      010FII AESAPAR CI           R$  000000001187400000000118740000000011720000000001180100000000118600000000011780000000001180000019000000000000000272000000000003210073000000000000009999123100000010000000000000BRAEFICTF002121
012013091312AGCX11      010FII AG CAIXACI           R$  000000009750000000000975000000000096500000000009692000000000965000000000096900000000009750000016000000000000000097000000000009401306000000000000009999123100000010000000000000BRAGCXCTF003110
012013091302AGRO3       010BRASILAGRO  ON      NM   R$  000000000096100000000009650000000000959000000000096200000000009610000000000960000000000096500041000000000000064600000000000062194400000000000000009999123100000010000000000000BRAGROACNOR7102
012013091396AGRO3F      020BRASILAGRO  ON      NM   R$  000000000090000000000009000000000000900000000000090000000000009000000000000900000000000109000001000000000000000033000000000000029700000000000000009999123100000010000000000000BRAGROACNOR7102
012013091302ALLL3       010ALL AMER LATON      NM   R$  000000000091100000000009140000000000894000000000090000000000009020000000000902000000000090303569000000000002256800000000002031403300000000000000009999123100000010000000000000BRALLLACNOR6118
012013091396ALLL3F      020ALL AMER LATON      NM   R$  000000000090400000000009090000000000894000000000090000000000008940000000000890000000000089400058000000000000001364000000000001227938000000000000009999123100000010000000000000BRALLLACNOR6118
012013091362ALLL3T      030ALL AMER LATON      NM060R$  000000000091200000000009130000000000912000000000091200000000009130000000000000000000000000000002000000000000015000000000000013686300000000000000009999123100000010000000000000BRALLLACNOR6118
012013091312ALMI11B     010FII TORRE ALCI      MB   R$  000000030610000000003062010000000306100000000030610800000003061000000000306100000000030950000016000000000000000074000000000022652012000000000000009999123100000010000000000000BRALMICTF003205
012013091302ALPA3       010ALPARGATAS  ON      N1   R$  000000000122500000000012300000000001225000000000122600000000012300000000001181000000000122600003000000000000000600000000000000735900000000000000009999123100000010000000000000BRALPAACNOR0203
012013091302ALPA4       010ALPARGATAS  PN      N1   R$  000000000134800000000013510000000001321000000000133300000000013380000000001338000000000133900811000000000000284700000000000379516000000000000000009999123100000010000000000000BRALPAACNPR7203
012013091396ALPA4F      020ALPARGATAS  PN      N1   R$  000000000134100000000013410000000001311000000000132800000000013260000000001326000000000139400007000000000000000165000000000000219165000000000000009999123100000010000000000000BRALPAACNPR7203
012013091378ALPAJ14     070ALPA        PN      N1000R$  000000000001300000000000130000000000013000000000001300000000000130000000000000000000000000000001000000000000012000000000000000156000000000000140002013102100000010000000000000BRALPAACNPR7203
012013091302ALSC3       010ALIANSCE    ON      NM   R$  000000000192100000000019350000000001880000000000191200000000019350000000001925000000000193501145000000000000398600000000000762301700000000000000009999123100000010000000000000BRALSCACNOR0104
012013091396ALSC3F      020ALIANSCE    ON      NM   R$  000000000189000000000019200000000001854000000000187800000000019200000000001846000000000199700007000000000000000094000000000000176551000000000000009999123100000010000000000000BRALSCACNOR0104
012013091302ALUP11      010ALUPAR      UNT     N2   R$  000000000174200000000017420000000001701000000000170900000000017080000000001705000000000171400456000000000000297700000000000508773100000000000000009999123100000010000000000000BRALUPCDAM15100
012013091396ALUP11F     020ALUPAR      UNT     N2   R$  000000000179900000000017990000000001710000000000172400000000017620000000001710000000000176200012000000000000000332000000000000572406000000000000009999123100000010000000000000BRALUPCDAM15100
012013091302AMAR3       010LOJAS MARISAON      NM   R$  000000000215600000000021920000000002147000000000216300000000021690000000002161000000000216901184000000000000235500000000000509408700000000000000009999123100000010000000000000BRAMARACNOR4109
012013091396AMAR3F      020LOJAS MARISAON      NM   R$  000000000215700000000021570000000002152000000000215300000000021540000000002032000000000230000004000000000000000115000000000000247695000000000000009999123100000010000000000000BRAMARACNOR4109
012013091378AMARJ22     070AMAR        ON      NM000R$  000000000004400000000000440000000000044000000000004400000000000440000000000000000000000000000002000000000000014000000000000000616000000000000220002013102100000010000000000000BRAMARACNOR4109
012013091302AMBV3       010AMBEV       ON           R$  000000000845300000000085000000000008412000000000844100000000084490000000008415000000000844901120000000000000330300000000002788302000000000000000009999123100000010000000000000BRAMBVACNOR4153
012013091396AMBV3F      020AMBEV       ON           R$  000000000850000000000085000000000008403000000000846500000000084870000000008402000000000848700027000000000000000697000000000005900536000000000000009999123100000010000000000000BRAMBVACNOR4153
012013091362AMBV3S      030AMBEV       ON        090R$  000000000867100000000086720000000008671000000000867100000000086720000000000000000000000000000008000000000000010000000000000086712684000000000000009999123100000010000000000000BRAMBVACNOR4153
012013091362AMBV3T      030AMBEV       ON        031R$  000000000849800000000084990000000008498000000000849800000000084990000000000000000000000000000002000000000000001000000000000008498590000000000000009999123100000010000000000000BRAMBVACNOR4153
012013091362AMBV3T      030AMBEV       ON        060R$  000000000856900000000085700000000008569000000000856900000000085700000000000000000000000000000002000000000000010000000000000085699900000000000000009999123100000010000000000000BRAMBVACNOR4153
012013091302AMBV4       010AMBEV       PN           R$  000000000840000000000084890000000008400000000000844800000000084520000000008438000000000845205063000000000001085500000000009170895000000000000000009999123100000010000000000000BRAMBVACNPR1153
012013091396AMBV4F      020AMBEV       PN           R$  000000000844500000000084980000000008401000000000844900000000084020000000008402000000000844000166000000000000004197000000000035461919000000000000009999123100000010000000000000BRAMBVACNPR1153
012013091362AMBV4T      030AMBEV       PN        031R$  000000000850200000000085080000000008502000000000850400000000085080000000000000000000000000000006000000000000000500000000000004252235000000000000009999123100000010000000000000BRAMBVACNPR1153
012013091362AMBV4T      030AMBEV       PN        060R$  000000000856200000000085670000000008562000000000856400000000085670000000000000000000000000000006000000000000002500000000000021411283000000000000009999123100000010000000000000BRAMBVACNPR1153
012013091362AMBV4T      030AMBEV       PN        097R$  000000000863800000000086390000000008638000000000863800000000086390000000000000000000000000000002000000000000010000000000000086387892000000000000009999123100000010000000000000BRAMBVACNPR1153
012013091378AMBVI84     070AMBV        PN        000R$  000000000009500000000000950000000000095000000000009500000000000950000000000000000000000000000001000000000000001000000000000000095000000000000840002013091600000010000000000000BRAMBVACNPR1153
012013091378AMBVJ87     070AMBV        PN        000R$  000000000010500000000001150000000000105000000000010700000000001150000000000000000000000000000002000000000000001400000000000000151000000000000870002013102100000010000000000000BRAMBVACNPR1153
012013091378AMBVJ88     070AMBV        PN        000R$  000000000008000000000000900000000000080000000000008300000000000900000000000000000000000010000002000000000000002300000000000000193000000000000880002013102100000010000000000000BRAMBVACNPR1153
012013091378AMBVJ89     070AMBV        PN        000R$  000000000007000000000000700000000000070000000000007000000000000700000000000000000000000000000004000000000000001100000000000000077000000000000890002013102100000010000000000000BRAMBVACNPR1153
012013091378AMBVJ90     070AMBV        PN        000R$  000000000005000000000000550000000000050000000000005200000000000550000000000000000000000005500003000000000000009800000000000000514000000000000900002013102100000010000000000000BRAMBVACNPR1153
012013091378AMBVL88     070AMBV        PN        000R$  000000000022600000000002260000000000226000000000022600000000002260000000000000000000000000000001000000000000100000000000000022600000000000000880002013121600000010000000000000BRAMBVACNPR1153
012013091382AMBVX76     080AMBVE       PN        000R$  000000000007500000000000750000000000075000000000007500000000000750000000000000000000000000000002000000000000100000000000000007500000000000000760002013121600000010000000000000BRAMBVACNPR1153
012013091382AMBVX80     080AMBVE       PN        000R$  000000000013300000000001360000000000101000000000010200000000001010000000000105000000000000000008000000000000105000000000000010768500000000000800002013121600000010000000000000BRAMBVACNPR1153
012013091302ARTR3       010ARTERIS     ON      NM   R$  000000000195000000000019750000000001921000000000195900000000019750000000001960000000000197501325000000000000363400000000000712067000000000000000009999123100000010000000000000BRARTRACNOR3101
012013091396ARTR3F      020ARTERIS     ON      NM   R$  000000000195100000000019810000000001930000000000195700000000019810000000001840000000000198100042000000000000001147000000000002245292000000000000009999123100000010000000000000BRARTRACNOR3101
012013091302ARZZ3       010AREZZO CO   ON      NM   R$  000000000371500000000038150000000003640000000000369500000000038100000000003777000000000381000712000000000000108000000000000399158600000000000000009999123100000010000000000000BRARZZACNOR3109
012013091396ARZZ3F      020AREZZO CO   ON      NM   R$  000000000360000000000037800000000003600000000000367700000000037800000000003630000000000375000013000000000000000375000000000001378952000000000000009999123100000010000000000000BRARZZACNOR3109
012013091302AUTM3       010AUTOMETAL   ON      NM   R$  000000000186500000000018700000000001850000000000186400000000018700000000001870000000000187100125000000000000046900000000000087447100000000000000009999123100000010000000000000BRAUTMACNOR8109
012013091396AUTM3F      020AUTOMETAL   ON      NM   R$  000000000187000000000018700000000001800000000000184400000000018540000000001860000000000208400005000000000000000128000000000000236048000000000000009999123100000010000000000000BRAUTMACNOR8109
012013091302AZEV4       010AZEVEDO     PN           R$  000000000014000000000001400000000000140000000000014000000000001400000000000125000000000014900001000000000000001000000000000000140000000000000000009999123100000010000000000000BRAZEVACNPR7113
012013091302BAHI3       010BAHEMA      ON           R$  000000000049000000000004900000000000490000000000049000000000004900000000000480000000000050000004000000000000003000000000000001470000000000000000009999123100000010000000000000BRBAHIACNOR1066
012013091302BAUH4       010EXCELSIOR   PN           R$  000000000090000000000009000000000000900000000000090000000000009000000000000802000000000091900001000000000000000400000000000000360000000000000000009999123100000010000000000000BRBAUHACNPR3108
012013091302BAZA3       010AMAZONIA    ON           R$  000000000003200000000000330000000000032000000000003200000000000320000000000032000000000003300006000000000000036000000000000001156000000000000000009999123100000010000000000000BRBAZAACNOR0163
012013091396BAZA3F      020AMAZONIA    ON           R$  000000000003300000000000330000000000033000000000003300000000000330000000000033000000000003400002000000000000000532000000000000017556000000000000009999123100000010000000000000BRBAZAACNOR0163
012013091302BBAS3       010BRASIL      ON  EJ  NM   R$  000000000237300000000024120000000002329000000000237900000000024000000000002400000000000240213735000000000011032400000000026246368900000000000000009999123100000010000000000000BRBBASACNOR3239
012013091396BBAS3F      020BRASIL      ON  EJ  NM   R$  000000000238500000000024090000000002335000000000237300000000023940000000002394000000000240900244000000000000007937000000000018848264000000000000009999123100000010000000000000BRBBASACNOR3239
012013091362BBAS3T      030BRASIL      ON  EJ  NM017R$  000000000238600000000024180000000002386000000000241000000000024180000000000000000000000000000006000000000000013100000000000031574209000000000000009999123100000010000000000000BRBBASACNOR3239
012013091362BBAS3T      030BRASIL      ON  EJ  NM041R$  000000000239600000000023970000000002396000000000239600000000023970000000000000000000000000000002000000000000002000000000000004792985000000000000009999123100000010000000000000BRBBASACNOR3239
012013091362BBAS3T      030BRASIL      ON  EJ  NM060R$  000000000237100000000024360000000002371000000000240500000000024360000000000000000000000000000006000000000000004200000000000010103127000000000000009999123100000010000000000000BRBBASACNOR3239
012013091362BBAS3T      030BRASIL      ON  EJ  NM090R$  000000000242100000000024220000000002421000000000242100000000024220000000000000000000000000000002000000000000015000000000000036316506000000000000009999123100000010000000000000BRBBASACNOR3239
012013091378BBASA25     070BBAS    /EJ ON      NM000R$  000000000014400000000001670000000000144000000000016500000000001670000000000000000000000000000019000000000000020200000000000003346700000000000239502014012000000010000000000000BRBBASACNOR3237
012013091378BBASA27     070BBAS    /EJ ON      NM000R$  000000000007900000000000790000000000079000000000007900000000000790000000000000000000000000000001000000000000000500000000000000039500000000000259502014012000000010000000000000BRBBASACNOR3237
012013091378BBASB26     070BBAS    /EJ ON      NM000R$  000000000014000000000001400000000000140000000000014000000000001400000000000000000000000000000001000000000000000500000000000000070000000000000249502014021700000010000000000000BRBBASACNOR3237
012013091378BBASI21     070BBAS    /EJ ON      NM000R$  000000000038000000000003800000000000380000000000038000000000003800000000000000000000000000000001000000000000001000000000000000380000000000000199502013091600000010000000000000BRBBASACNOR3237
012013091338BBASI21E    012BBAS    /EJ ON      NM000R$  000000000199500000000019950000000001995000000000199500000000019950000000000000000000000000000006000000000000005000000000000009975000000000000199502013091600000010000000000000BRBBASACNOR3239
012013091378BBASI22     070BBAS    /EJ ON      NM000R$  000000000028300000000003330000000000282000000000030200000000003200000000000061000000000000000047000000000000030200000000000009144200000000000207102013091600000010000000000000BRBBASACNOR3236
012013091338BBASI22E    012BBAS    /EJ ON      NM000R$  000000000207100000000020710000000002071000000000207100000000020710000000000000000000000000000001000000000000002000000000000004142000000000000207102013091600000010000000000000BRBBASACNOR3239
012013091378BBASI23     070BBAS    /EJ ON      NM000R$  000000000018200000000002370000000000182000000000021100000000002370000000000182000000000000000005000000000000006200000000000001311400000000000217102013091600000010000000000000BRBBASACNOR3236
012013091378BBASI24     070BBAS    /EJ ON      NM000R$  000000000008000000000001410000000000063000000000010900000000001330000000000099000000000000000049000000000000036600000000000004011200000000000227102013091600000010000000000000BRBBASACNOR3236
012013091378BBASI25     070BBAS    /EJ ON      NM000R$  000000000001500000000000500000000000007000000000002500000000000310000000000031000000000005000143000000000000225200000000000005666700000000000236102013091600000010000000000000BRBBASACNOR3235
012013091378BBASI26     070BBAS    /EJ ON      NM000R$  000000000000100000000000010000000000001000000000000100000000000010000000000000000000000000400011000000000000032300000000000000032300000000000246102013091600000010000000000000BRBBASACNOR3235
012013091378BBASJ21     070BBAS    /EJ ON      NM000R$  000000000039500000000003970000000000395000000000039600000000003970000000000000000000000000000013000000000000005000000000000001983900000000000199502013102100000010000000000000BRBBASACNOR3237
012013091378BBASJ22     070BBAS    /EJ ON      NM000R$  000000000028200000000003350000000000270000000000030900000000003090000000000308000000000000000069000000000000017200000000000005321800000000000209502013102100000010000000000000BRBBASACNOR3237
012013091378BBASJ23     070BBAS  FM/EJ ON      NM000R$  000000000022200000000002810000000000213000000000024500000000002560000000000246000000000000000335000000000000234500000000000057625300000000000216102013102100000010000000000000BRBBASACNOR3235
012013091378BBASJ24     070BBAS  FM/EJ ON      NM000R$  000000000012700000000001840000000000127000000000015600000000001830000000000126000000000018600065000000000000086200000000000013517800000000000227102013102100000010000000000000BRBBASACNOR3236
012013091378BBASJ25     070BBAS  FM/EJ ON      NM000R$  000000000007500000000000960000000000059000000000007500000000000950000000000060000000000010400161000000000000323500000000000024553200000000000239502013102100000010000000000000BRBBASACNOR3237
012013091378BBASJ26     070BBAS  FM/EJ ON      NM000R$  000000000004000000000000610000000000038000000000004900000000000560000000000055000000000006400056000000000000103800000000000005103000000000000246102013102100000010000000000000BRBBASACNOR3235
012013091378BBASJ27     070BBAS  FM/EJ ON      NM000R$  000000000001600000000000260000000000016000000000002000000000000250000000000023000000000002700083000000000000125500000000000002626000000000000256102013102100000010000000000000BRBBASACNOR3235
012013091378BBASJ28     070BBAS    /EJ ON      NM000R$  000000000000900000000000100000000000009000000000000900000000000100000000000008000000000002400003000000000000014500000000000000131500000000000269502013102100000010000000000000BRBBASACNOR3237
012013091378BBASJ30     070BBAS    /EJ ON      NM000R$  000000000000300000000000030000000000003000000000000300000000000030000000000002000000000000800001000000000000000500000000000000001500000000000286102013102100000010000000000000BRBBASACNOR3235
012013091378BBASJ31     070BBAS    /EJ ON      NM000R$  000000000000200000000000020000000000001000000000000100000000000010000000000000000000000009800002000000000000001300000000000000001500000000000307302013102100000010000000000000BRBBASACNOR3238
012013091378BBASK23     070BBAS  FM/EJ ON      NM000R$  000000000022900000000002770000000000221000000000024900000000002770000000000000000000000000000038000000000000056200000000000014003400000000000219502013111800000010000000000000BRBBASACNOR3237
012013091378BBASK24     070BBAS  FM/EJ ON      NM000R$  000000000016000000000001940000000000160000000000017700000000001910000000000138000000000021500025000000000000048500000000000008611300000000000229502013111800000010000000000000BRBBASACNOR3237
012013091378BBASK25     070BBAS  FM/EJ ON      NM000R$  000000000011000000000001350000000000110000000000012500000000001350000000000016000000000031900005000000000000008400000000000001054000000000000237102013111800000010000000000000BRBBASACNOR3236
012013091378BBASK26     070BBAS  FM/EJ ON      NM000R$  000000000006700000000000920000000000065000000000007900000000000920000000000016000000000021900012000000000000016400000000000001309000000000000247102013111800000010000000000000BRBBASACNOR3236
012013091378BBASK27     070BBAS  FM/EJ ON      NM000R$  000000000003400000000000540000000000034000000000004700000000000540000000000025000000000014300016000000000000011400000000000000545300000000000257102013111800000010000000000000BRBBASACNOR3236
012013091378BBASK28     070BBAS    /EJ ON      NM000R$  000000000002100000000000290000000000021000000000002200000000000290000000000026000000000002900115000000000000198800000000000004543800000000000267102013111800000010000000000000BRBBASACNOR3236
012013091378BBASK56     070BBAS    /EJ ON      NM000R$  000000000003900000000000390000000000039000000000003900000000000390000000000000000000000000000001000000000000002600000000000000101400000000000262302013111800000010000000000000BRBBASACNOR3238
012013091378BBASL23     070BBAS    /EJ ON      NM000R$  000000000027600000000002760000000000276000000000027600000000002760000000000000000000000000000001000000000000002000000000000000552000000000000219502013121600000010000000000000BRBBASACNOR3237
012013091378BBASL26     070BBAS    /EJ ON      NM000R$  000000000009800000000000980000000000098000000000009800000000000980000000000005000000000000000001000000000000000200000000000000019600000000000246102013121600000010000000000000BRBBASACNOR3235
012013091378BBASL28     070BBAS    /EJ ON      NM000R$  000000000004100000000000410000000000041000000000004100000000000410000000000003000000000000000001000000000000001000000000000000041000000000000269502013121600000010000000000000BRBBASACNOR3237
012013091378BBASL60     070BBAS    /EJ ON      NM000R$  000000000001500000000000150000000000015000000000001500000000000150000000000000000000000000000001000000000000000300000000000000004500000000000286202013121600000010000000000000BRBBASACNOR3233
012013091382BBASU22     080BBASE   /EJ ON      NM000R$  000000000000100000000000010000000000001000000000000100000000000010000000000000000000000000100001000000000000002700000000000000002700000000000207102013091600000010000000000000BRBBASACNOR3236
012013091382BBASU25     080BBASE   /EJ ON      NM000R$  000000000001600000000000250000000000005000000000001900000000000050000000000000000000000003000009000000000000016300000000000000322600000000000236102013091600000010000000000000BRBBASACNOR3235
012013091382BBASV18     080BBASE   /EJ ON      NM000R$  000000000000200000000000020000000000002000000000000200000000000020000000000000000000000000000001000000000000001000000000000000002000000000000169502013102100000010000000000000BRBBASACNOR3237
012013091382BBASV21     080BBASE   /EJ ON      NM000R$  000000000000800000000000080000000000008000000000000800000000000080000000000000000000000000000003000000000000030000000000000000240000000000000199502013102100000010000000000000BRBBASACNOR3237
012013091382BBASV23     080BBASE FM/EJ ON      NM000R$  000000000002300000000000230000000000015000000000001700000000000150000000000000000000000001500007000000000000008100000000000000140500000000000216102013102100000010000000000000BRBBASACNOR3235
012013091382BBASV24     080BBASE FM/EJ ON      NM000R$  000000000004200000000000500000000000027000000000003800000000000270000000000000000000000000000029000000000000074100000000000002827000000000000227102013102100000010000000000000BRBBASACNOR3236
012013091382BBASV25     080BBASE FM/EJ ON      NM000R$  000000000010300000000001030000000000066000000000008400000000000670000000000000000000000016000026000000000000053400000000000004537700000000000239502013102100000010000000000000BRBBASACNOR3237
012013091382BBASW23     080BBASE FM/EJ ON      NM000R$  000000000004600000000000460000000000035000000000003800000000000360000000000000000000000014300008000000000000027800000000000001074800000000000219502013111800000010000000000000BRBBASACNOR3237
012013091382BBASW24     080BBASE FM/EJ ON      NM000R$  000000000005800000000000580000000000058000000000005800000000000580000000000000000000000021900002000000000000004000000000000000232000000000000229502013111800000010000000000000BRBBASACNOR3237
012013091382BBASW25     080BBASE FM/EJ ON      NM000R$  000000000009400000000000940000000000081000000000008600000000000810000000000000000000000031900005000000000000007300000000000000631900000000000237102013111800000010000000000000BRBBASACNOR3236
012013091382BBASW26     080BBASE   /EJ ON      NM000R$  000000000014500000000001450000000000145000000000014500000000001450000000000000000000000000000001000000000000001000000000000000145000000000000247102013111800000010000000000000BRBBASACNOR3236
012013091382BBASX24     080BBASE   /EJ ON      NM000R$  000000000008100000000000810000000000073000000000007600000000000730000000000000000000000000000003000000000000009000000000000000684000000000000229502013121600000010000000000000BRBBASACNOR3237
012013091382BBASX25     080BBASE   /EJ ON      NM000R$  000000000010800000000001080000000000108000000000010800000000001080000000000000000000000000000001000000000000001200000000000000129600000000000236102013121600000010000000000000BRBBASACNOR3235
012013091382BBASX55     080BBASE   /EJ ON      NM000R$  000000000009200000000000920000000000090000000000009000000000000900000000000000000000000000000002000000000000004200000000000000380400000000000235202013121600000010000000000000BRBBASACNOR3233
012013091302BBDC3       010BRADESCO    ON      N1   R$  000000000344000000000034500000000003376000000000342100000000034440000000003444000000000344903588000000000000909800000000003112850900000000000000009999123100000010000000000000BRBBDCACNOR1606
012013091396BBDC3F      020BRADESCO    ON      N1   R$  000000000342000000000034500000000003380000000000341600000000033920000000003390000000000343000045000000000000001042000000000003559773000000000000009999123100000010000000000000BRBBDCACNOR1606
012013091302BBDC4       010BRADESCO    PN      N1   R$  000000000297300000000029870000000002925000000000297000000000029800000000002979000000000298013145000000000007434900000000022084537300000000000000009999123100000010000000000000BRBBDCACNPR8606
012013091396BBDC4F      020BRADESCO    PN      N1   R$  000000000295700000000029890000000002921000000000295900000000029600000000002960000000000298000266000000000000004977000000000014731692000000000000009999123100000010000000000000BRBBDCACNPR8606
012013091362BBDC4T      030BRADESCO    PN      N1017R$  000000000299000000000029910000000002990000000000299000000000029910000000000000000000000000000002000000000000008200000000000024523068000000000000009999123100000010000000000000BRBBDCACNPR8606
012013091362BBDC4T      030BRADESCO    PN      N1031R$  000000000300100000000030020000000003001000000000300100000000030020000000000000000000000000000002000000000000030000000000000090049212000000000000009999123100000010000000000000BRBBDCACNPR8606
012013091362BBDC4T      030BRADESCO    PN      N1041R$  000000000300900000000030100000000003009000000000300900000000030100000000000000000000000000000002000000000000001000000000000003009502000000000000009999123100000010000000000000BRBBDCACNPR8606
012013091338BBDCI26E    012BBDC        PN      N1000R$  000000000259600000000025960000000002596000000000259600000000025960000000000000000000000000000004000000000000040000000000000103840000000000000259602013091600000010000000000000BRBBDCACNPR8606
012013091378BBDCI27     070BBDC        PN      N1000R$  000000000028800000000002930000000000288000000000029000000000002930000000000033000000000000000004000000000000010000000000000002906500000000000267602013091600000010000000000000BRBBDCACNPR8602
012013091378BBDCI28     070BBDC        PN      N1000R$  000000000018600000000002090000000000185000000000020000000000002050000000000165000000000000000079000000000000053300000000000010678700000000000277602013091600000010000000000000BRBBDCACNPR8602
012013091378BBDCI29     070BBDC        PN      N1000R$  000000000009000000000001120000000000067000000000009200000000001080000000000090000000000000000036000000000000082900000000000007708200000000000287602013091600000010000000000000BRBBDCACNPR8602
012013091378BBDCI30     070BBDC        PN      N1000R$  000000000001500000000000250000000000008000000000001700000000000200000000000020000000000000000107000000000000314800000000000005580100000000000297602013091600000010000000000000BRBBDCACNPR8602
012013091378BBDCI31     070BBDC        PN      N1000R$  000000000022400000000002240000000000224000000000022400000000002240000000000000000000000000000001000000000000003000000000000000672000000000000272702013091600000010000000000000BRBBDCACNPR8590
012013091378BBDCI32     070BBDC        PN      N1000R$  000000000000100000000000020000000000001000000000000100000000000010000000000000000000000000800008000000000000034000000000000000054400000000000317602013091600000010000000000000BRBBDCACNPR8602
012013091378BBDCI33     070BBDC        PN      N1000R$  000000000001100000000000230000000000011000000000002200000000000230000000000000000000000000000013000000000000031600000000000000701000000000000297002013091600000010000000000000BRBBDCACNPR8598
012013091378BBDCI75     070BBDCE       PN      N1000R$  000000000014500000000001450000000000145000000000014500000000001450000000000000000000000000000001000000000000000200000000000000029000000000000282102013091600000010000000000000BRBBDCACNPR8604
012013091378BBDCI81     070BBDC        PN      N1000R$  000000000000200000000000020000000000002000000000000200000000000020000000000000000000000000100003000000000000006100000000000000012200000000000307602013091600000010000000000000BRBBDCACNPR8602
012013091378BBDCJ25     070BBDC        PN      N1000R$  000000000048000000000004880000000000480000000000048400000000004840000000000000000000000000000005000000000000001000000000000000484100000000000249402013102100000010000000000000BRBBDCACNPR8603
012013091378BBDCJ26     070BBDC        PN      N1000R$  000000000038300000000004090000000000379000000000040800000000004090000000000371000000000043900011000000000000555000000000000226581200000000000259602013102100000010000000000000BRBBDCACNPR8604
012013091378BBDCJ27     070BBDC        PN      N1000R$  000000000033100000000003340000000000331000000000033200000000003340000000000000000000000000000012000000000000010000000000000003325000000000000267602013102100000010000000000000BRBBDCACNPR8602
012013091378BBDCJ29     070BBDC        PN      N1000R$  000000000015100000000001740000000000149000000000015800000000001680000000000132000000000000000043000000000000070000000000000011099100000000000287602013102100000010000000000000BRBBDCACNPR8602
012013091378BBDCJ30     070BBDC        PN      N1000R$  000000000009400000000001100000000000084000000000009800000000001040000000000094000000000011400099000000000000202900000000000020008800000000000297602013102100000010000000000000BRBBDCACNPR8602
012013091378BBDCJ31     070BBDC        PN      N1000R$  000000000004800000000000600000000000046000000000005500000000000590000000000057000000000006000078000000000000138200000000000007603700000000000307602013102100000010000000000000BRBBDCACNPR8602
012013091378BBDCJ32     070BBDC        PN      N1000R$  000000000002500000000000300000000000022000000000002600000000000300000000000029000000000003000029000000000000045200000000000001191500000000000317602013102100000010000000000000BRBBDCACNPR8602
012013091378BBDCJ33     070BBDC        PN      N1000R$  000000000001100000000000150000000000010000000000001200000000000150000000000000000000000000000061000000000000141600000000000001832500000000000327602013102100000010000000000000BRBBDCACNPR8602
012013091378BBDCJ34     070BBDC        PN      N1000R$  000000000000900000000000090000000000009000000000000900000000000090000000000000000000000000000008000000000000001500000000000000013500000000000337202013102100000010000000000000BRBBDCACNPR8600
012013091378BBDCJ58     070BBDC        PN      N1000R$  000000000019500000000002320000000000195000000000021700000000002320000000000182000000000023900010000000000000009000000000000001959400000000000279802013102100000010000000000000BRBBDCACNPR8605
012013091378BBDCK30     070BBDC        PN      N1000R$  000000000011900000000001350000000000119000000000012800000000001350000000000125000000000000000005000000000000010500000000000001350300000000000299802013111800000010000000000000BRBBDCACNPR8605
012013091378BBDCK31     070BBDC        PN      N1000R$  000000000007700000000000900000000000071000000000008400000000000900000000000000000000000000000009000000000000019300000000000001636300000000000309802013111800000010000000000000BRBBDCACNPR8605
012013091378BBDCK32     070BBDC        PN      N1000R$  000000000005200000000000610000000000049000000000005300000000000610000000000013000000000000000008000000000000014500000000000000782000000000000317402013111800000010000000000000BRBBDCACNPR8601
012013091378BBDCK33     070BBDC        PN      N1000R$  000000000003100000000000390000000000030000000000003300000000000390000000000000000000000000000010000000000000016000000000000000543600000000000327602013111800000010000000000000BRBBDCACNPR8602
012013091378BBDCK34     070BBDC        PN      N1000R$  000000000001700000000000170000000000017000000000001700000000000170000000000000000000000000000001000000000000000100000000000000001700000000000339602013111800000010000000000000BRBBDCACNPR8604
012013091378BBDCK9      070BBDC        PN      N1000R$  000000000016700000000002000000000000167000000000018600000000001960000000000000000000000000000014000000000000029600000000000005523700000000000289802013111800000010000000000000BRBBDCACNPR8605
012013091378BBDCL32     070BBDC        PN      N1000R$  000000000007600000000000760000000000076000000000007600000000000760000000000000000000000000000001000000000000003000000000000000228000000000000317202013121600000010000000000000BRBBDCACNPR8600
012013091382BBDCU27     080BBDCE       PN      N1000R$  000000000000100000000000010000000000001000000000000100000000000010000000000000000000000000100002000000000000000400000000000000000400000000000267602013091600000010000000000000BRBBDCACNPR8602
012013091382BBDCU29     080BBDCE       PN      N1000R$  000000000000600000000000060000000000001000000000000200000000000010000000000000000000000000000002000000000000008000000000000000023000000000000287602013091600000010000000000000BRBBDCACNPR8602
012013091382BBDCU31     080BBDCE       PN      N1000R$  000000000000200000000000020000000000002000000000000200000000000020000000000001000000000000000003000000000000000400000000000000000800000000000272702013091600000010000000000000BRBBDCACNPR8590
012013091382BBDCU33     080BBDCE       PN      N1000R$  000000000000800000000000080000000000007000000000000700000000000070000000000000000000000000000012000000000000031100000000000000239300000000000297002013091600000010000000000000BRBBDCACNPR8598
012013091382BBDCV26     080BBDCE       PN      N1000R$  000000000001000000000000100000000000010000000000001000000000000100000000000000000000000001700005000000000000010000000000000000100000000000000259602013102100000010000000000000BRBBDCACNPR8604
012013091382BBDCV28     080BBDCE       PN      N1000R$  000000000000600000000000060000000000003000000000000400000000000030000000000000000000000000400002000000000000012000000000000000054000000000000245602013102100000010000000000000BRBBDCACNPR8591
012013091382BBDCV29     080BBDCE       PN      N1000R$  000000000006000000000000630000000000045000000000004800000000000470000000000000000000000000000037000000000000055500000000000002718300000000000287602013102100000010000000000000BRBBDCACNPR8602
012013091382BBDCV30     080BBDCE       PN      N1000R$  000000000010000000000001090000000000078000000000009000000000000790000000000068000000000011800027000000000000047400000000000004272200000000000297602013102100000010000000000000BRBBDCACNPR8602
012013091382BBDCV31     080BBDCE       PN      N1000R$  000000000016000000000001600000000000128000000000013800000000001300000000000000000000000000000034000000000000067100000000000009319700000000000307602013102100000010000000000000BRBBDCACNPR8602
012013091382BBDCV58     080BBDCE       PN      N1000R$  000000000004100000000000410000000000034000000000003800000000000340000000000000000000000000000003000000000000006500000000000000251100000000000279802013102100000010000000000000BRBBDCACNPR8605
012013091382BBDCW28     080BBDCE       PN      N1000R$  000000000004300000000000430000000000043000000000004300000000000430000000000000000000000000000002000000000000004400000000000000189200000000000277602013111800000010000000000000BRBBDCACNPR8602
012013091382BBDCW30     080BBDCE       PN      N1000R$  000000000013100000000001310000000000112000000000011700000000001150000000000000000000000000000015000000000000026100000000000003062900000000000299802013111800000010000000000000BRBBDCACNPR8605
012013091382BBDCW31     080BBDCE       PN      N1000R$  000000000018400000000001900000000000163000000000017200000000001630000000000000000000000000000020000000000000037300000000000006452800000000000309802013111800000010000000000000BRBBDCACNPR8605
012013091382BBDCW9      080BBDCE       PN      N1000R$  000000000007600000000000760000000000074000000000007500000000000740000000000000000000000000000008000000000000015600000000000001179200000000000289802013111800000010000000000000BRBBDCACNPR8605
012013091382BBDCX28     080BBDCE       PN      N1000R$  000000000006800000000000680000000000068000000000006800000000000680000000000000000000000000000001000000000000001000000000000000068000000000000279602013121600000010000000000000BRBBDCACNPR8604
012013091312BBFI11B     010FII BB PROGRCI      MB   R$  000000042360000000004236100000000423600000000042360200000004236000000000420000000000042360000004000000000000000013000000000005506830000000000000009999123100000010000000000000BRBBFICTF006198
012013091312BBPO11      010FII BB PRGIICI           R$  000000001109700000000111680000000011001000000001104900000000111680000000011096000000001116800170000000000000015042000000000166206953000000000000009999123100000010000000000000BRBBPOCTF003110
012013091312BBRC11      010FII BB CORP CI           R$  000000000910000000000091400000000009100000000000912600000000091400000000009000000000000914000008000000000000000303000000000002765300000000000000009999123100000010000000000000BRBBRCCTF004124
012013091302BBRK3       010BR BROKERS  ON      NM   R$  000000000058000000000005980000000000580000000000059100000000005900000000000590000000000059102707000000000000642200000000000380159400000000000000009999123100000010000000000000BRBBRKACNOR4108
012013091396BBRK3F      020BR BROKERS  ON      NM   R$  000000000056700000000005980000000000567000000000057800000000005980000000000567000000000059800002000000000000000008000000000000004629000000000000009999123100000010000000000000BRBBRKACNOR4108
012013091302BBSE3       010BBSEGURIDADEON      NM   R$  000000000209100000000021090000000002086000000000209600000000020940000000002086000000000209405708000000000002308400000000004839609000000000000000009999123100000010000000000000BRBBSEACNOR5101
012013091396BBSE3F      020BBSEGURIDADEON      NM   R$  000000000208000000000021080000000002061000000000209600000000020950000000002075000000000209500694000000000000023866000000000050025552000000000000009999123100000010000000000000BRBBSEACNOR5101
012013091362BBSE3T      030BBSEGURIDADEON      NM031R$  000000000210400000000021050000000002104000000000210400000000021050000000000000000000000000000002000000000000002400000000000005050610000000000000009999123100000010000000000000BRBBSEACNOR5101
012013091378BBSEJ51     070BBSE        ON      NM000R$  000000000004900000000000500000000000049000000000004900000000000500000000000000000000000000000003000000000000030000000000000001485000000000000210902013102100000010000000000000BRBBSEACNOR5100
012013091302BBTG11      010BTG PACTUAL UNT          R$  000000000288000000000029690000000002775000000000282100000000029430000000002918000000000294301480000000000001441200000000004066647100000000000000009999123100000010000000000000BRBBTGUNT007105
012013091396BBTG11F     020BTG PACTUAL UNT          R$  000000000283000000000029540000000002810000000000289000000000029540000000002707000000000306800008000000000000000213000000000000615751000000000000009999123100000010000000000000BRBBTGUNT007105
012013091362BBTG11T     030BTG PACTUAL UNT       180R$  000000000294500000000029460000000002945000000000294500000000029460000000000000000000000000000004000000000001020000000000003004064220000000000000009999123100000010000000000000BRBBTGUNT007105
012013091312BBVJ11      010FII C JARDIMCI           R$  000000000789000000000078900000000007800000000000780000000000078000000000007790000000000789000008000000000000000397000000000003096973000000000000009999123100000010000000000000BRBBVJCTF001133
012013091312BCFF11B     010FII BC FFII CI  ER  MB   R$  000000000860000000000087290000000008550000000000866800000000087200000000008720000000000872700109000000000000005090000000000044121612000000000000009999123100000010000000000000BRBCFFCTF000142
012013091302BEEF3       010MINERVA     ON      NM   R$  000000000112500000000011380000000001096000000000111400000000011250000000001117000000000112504834000000000000962400000000001072900200000000000000009999123100000010000000000000BRBEEFACNOR6104
012013091396BEEF3F      020MINERVA     ON      NM   R$  000000000110000000000011500000000001072000000000110800000000011500000000001105000000000115000014000000000000000227000000000000251520000000000000009999123100000010000000000000BRBEEFACNOR6104
012013091302BEES3       010BANESTES    ON           R$  000000000004900000000000490000000000049000000000004900000000000490000000000049000000000005000006000000000000019000000000000000931000000000000000009999123100000010000000000000BRBEESACNOR9244
012013091302BEES4       010BANESTES    PN           R$  000000000004400000000000450000000000044000000000004400000000000450000000000044000000000004500002000000000000006800000000000000305400000000000000009999123100000010000000000000BRBEESACNPR6169
012013091302BEMA3       010BEMATECH    ON      NM   R$  000000000075900000000007600000000000754000000000075800000000007600000000000758000000000076000029000000000000010800000000000008196300000000000000009999123100000010000000000000BRBEMAACNOR0114
012013091362BEMA3T      030BEMATECH    ON      NM017R$  000000000076000000000007610000000000760000000000076000000000007610000000000000000000000000000002000000000000000200000000000000152191000000000000009999123100000010000000000000BRBEMAACNOR0114
012013091302BGIP4       010BANESE      PN           R$  000000000460000000000047000000000004600000000000460400000000047000000000004700000000000474800006000000000000009000000000000041439600000000000000009999123100000010000000000000BRBGIPACNPR8179
012013091302BHGR3       010BHG         ON      NM   R$  000000000145000000000014500000000001399000000000143500000000014420000000001433000000000144200045000000000000048500000000000069605300000000000000009999123100000010000000000000BRBHGRACNOR9101
012013091396BHGR3F      020BHG         ON      NM   R$  000000000148000000000014800000000001437000000000145800000000014370000000001433000000000157900003000000000000000152000000000000221692000000000000009999123100000010000000000000BRBHGRACNOR9101
012013091302BICB4       010BICBANCO    PN      N1   R$  000000000045500000000004550000000000447000000000045100000000004520000000000450000000000045200056000000000000064800000000000029233600000000000000009999123100000010000000000000BRBICBACNPR7131
012013091396BICB4F      020BICBANCO    PN      N1   R$  000000000045200000000004550000000000451000000000045200000000004550000000000452000000000045500003000000000000000071000000000000032150000000000000009999123100000010000000000000BRBICBACNPR7131
012013091362BICB4T      030BICBANCO    PN      N1059R$  000000000045300000000004540000000000453000000000045300000000004540000000000000000000000000000002000000000000005700000000000002585354000000000000009999123100000010000000000000BRBICBACNPR7131
012013091362BICB4T      030BICBANCO    PN      N1360R$  000000000050100000000005020000000000501000000000050100000000005020000000000000000000000000000002000000000000001000000000000000501061000000000000009999123100000010000000000000BRBICBACNPR7131
012013091302BIOM3       010BIOMM       ON           R$  000000000092000000000009300000000000902000000000091700000000009300000000000901000000000094000003000000000000003000000000000002752000000000000000009999123100000010000000000000BRBIOMACNOR2101
012013091396BIOM3F      020BIOMM       ON           R$  000000000085000000000008500000000000850000000000085000000000008500000000000850000000000090000001000000000000000003000000000000002550000000000000009999123100000010000000000000BRBIOMACNOR2101
012013091302BISA3       010BROOKFIELD  ON      NM   R$  000000000018000000000001840000000000175000000000018000000000001810000000000180000000000018105719000000000015363700000000002766545500000000000000009999123100000010000000000000BRBISAACNOR8109
012013091396BISA3F      020BROOKFIELD  ON      NM   R$  000000000018000000000002000000000000170000000000017700000000002000000000000173000000000020200031000000000000000718000000000000127190000000000000009999123100000010000000000000BRBISAACNOR8109
012013091362BISA3T      030BROOKFIELD  ON      NM031R$  000000000018100000000001830000000000181000000000018200000000001830000000000000000000000000000010000000000000088800000000000016179838000000000000009999123100000010000000000000BRBISAACNOR8109
012013091362BISA3T      030BROOKFIELD  ON      NM045R$  000000000018200000000001830000000000182000000000018200000000001830000000000000000000000000000002000000000000005000000000000000914231000000000000009999123100000010000000000000BRBISAACNOR8109
012013091362BISA3T      030BROOKFIELD  ON      NM060R$  000000000018300000000001840000000000183000000000018300000000001840000000000000000000000000000002000000000000005000000000000000917308000000000000009999123100000010000000000000BRBISAACNOR8109
012013091302BMEB4       010MERC BRASIL PN           R$  000000000106100000000011050000000001060000000000108100000000011000000000001011000000000110500009000000000000001800000000000001946100000000000000009999123100000010000000000000BRBMEBACNPR5191
012013091302BMIN4       010MERC INVEST PN           R$  000000000002300000000000230000000000023000000000002300000000000230000000000023000000000002400001000000000000002000000000000000046000000000000000009999123100000010000000000000BRBMINACNPR1160
012013091302BMTO4       010BRASMOTOR   PN           R$  000000000008500000000000870000000000085000000000008500000000000870000000000085000000000008700009000000000000054000000000000004596000000000000000009999123100000010000000000000BRBMTOACNPR6065
012013091312BNFS11      010FII BANRISULCI           R$  000000000999500000000099950000000009995000000000999500000000099950000000009702000000000999500002000000000000000013000000000000129935000000000000009999123100000010000000000000BRBNFSCTF000112
012013091302BOBR4       010BOMBRIL     PN           R$  000000000066000000000006630000000000660000000000066100000000006630000000000607000000000066400002000000000000000200000000000000132300000000000000009999123100000010000000000000BRBOBRACNPR3127
012013091396BOBR4F      020BOMBRIL     PN           R$  000000000060100000000006010000000000601000000000060100000000006010000000000000000000000065800001000000000000000061000000000000036661000000000000009999123100000010000000000000BRBOBRACNPR3127
012013091314BOVA11      010ISHARES BOVACI           R$  000000000527900000000052830000000005176000000000523400000000052830000000005260000000000528302274000000000001595230000000008349866210000000000000009999123100000010000000000000BRBOVACTF003101
012013091396BOVA11F     020ISHARES BOVACI           R$  000000000517600000000052630000000005101000000000519900000000052630000000005091000000000526300008000000000000000023000000000000119593000000000000009999123100000010000000000000BRBOVACTF003101
012013091362BOVA11T     030ISHARES BOVACI        017R$  000000000527400000000052820000000005274000000000527600000000052810000000000000000000000000000018000000000000150000000000000791507256000000000000009999123100000010000000000000BRBOVACTF003101
012013091312BPFF11      010FII ABSOLUTOCI           R$  000000000840000000000084000000000008356000000000838700000000083560000000008356000000000840000007000000000000000418000000000003506070000000000000009999123100000010000000000000BRBPFFCTF002105
012013091302BPHA3       010BR PHARMA   ON      NM   R$  000000000082300000000008370000000000806000000000081900000000008200000000000818000000000082001811000000000000433500000000000355079700000000000000009999123100000010000000000000BRBPHAACNOR6102
012013091396BPHA3F      020BR PHARMA   ON      NM   R$  000000000080900000000008220000000000806000000000081100000000008170000000000806000000000087700005000000000000000154000000000000124959000000000000009999123100000010000000000000BRBPHAACNOR6102
012013091302BPNM4       010PANAMERICANOPN      N1   R$  000000000052800000000005280000000000513000000000052000000000005150000000000513000000000051500504000000000000315600000000000164222800000000000000009999123100000010000000000000BRBPNMACNPR6111
012013091396BPNM4F      020PANAMERICANOPN      N1   R$  000000000050200000000005230000000000500000000000050900000000005230000000000507000000000052300005000000000000000180000000000000091700000000000000009999123100000010000000000000BRBPNMACNPR6111
012013091362BPNM4T      030PANAMERICANOPN      N1360R$  000000000056900000000005700000000000569000000000056900000000005700000000000000000000000000000002000000000000001000000000000000569693000000000000009999123100000010000000000000BRBPNMACNPR6111
012013091302BRAP3       010BRADESPAR   ON      N1   R$  000000000203000000000020840000000002030000000000207300000000020650000000002052000000000206500010000000000000002600000000000005390700000000000000009999123100000010000000000000BRBRAPACNOR5124
012013091396BRAP3F      020BRADESPAR   ON      N1   R$  000000000203000000000020990000000002030000000000204800000000020300000000002031000000000214100009000000000000000144000000000000295026000000000000009999123100000010000000000000BRBRAPACNOR5124
012013091302BRAP4       010BRADESPAR   PN      N1   R$  000000000255900000000025800000000002525000000000256000000000025800000000002573000000000258005219000000000001466000000000003754043600000000000000009999123100000010000000000000BRBRAPACNPR2124
012013091396BRAP4F      020BRADESPAR   PN      N1   R$  000000000256000000000025940000000002526000000000254700000000025560000000002556000000000258900035000000000000001133000000000002886702000000000000009999123100000010000000000000BRBRAPACNPR2124
012013091378BRAPI22     070BRAP        PN      N1000R$  000000000036500000000003650000000000365000000000036500000000003650000000000000000000000000000001000000000000010000000000000003650000000000000220002013091600000010000000000000BRBRAPACNPR2124
012013091378BRAPJ22     070BRAP        PN      N1000R$  000000000036500000000003650000000000365000000000036500000000003650000000000000000000000000000001000000000000010000000000000003650000000000000220002013102100000010000000000000BRBRAPACNPR2124
012013091378BRAPK28     070BRAP        PN      N1000R$  000000000006000000000000600000000000045000000000004600000000000500000000000000000000000000000053000000000000403200000000000018888600000000000280002013111800000010000000000000BRBRAPACNPR2124
012013091382BRAPV25     080BRAPE       PN      N1000R$  000000000006500000000000690000000000065000000000006700000000000690000000000000000000000000000003000000000000001000000000000000067000000000000250002013102100000010000000000000BRBRAPACNPR2124
012013091312BRCR11      010FII BC FUND CI  ER       R$  000000001250000000000126250000000012390000000001247200000000124800000000012410000000001248000658000000000000030624000000000381965768000000000000009999123100000010000000000000BRBRCRCTF000133
012013091302BRFS3       010BRF SA      ON      NM   R$  000000000571900000000057500000000005695000000000573000000000057350000000005735000000000573905800000000000001201400000000006884646400000000000000009999123100000010000000000000BRBRFSACNOR8110
012013091396BRFS3F      020BRF SA      ON      NM   R$  000000000571000000000057500000000005701000000000573000000000057400000000005740000000000585400059000000000000001737000000000009953690000000000000009999123100000010000000000000BRBRFSACNOR8110
012013091362BRFS3T      030BRF SA      ON      NM031R$  000000000577100000000057730000000005771000000000577100000000057730000000000000000000000000000004000000000000000350000000000002020093000000000000009999123100000010000000000000BRBRFSACNOR8110
012013091362BRFS3T      030BRF SA      ON      NM090R$  000000000584400000000058640000000005844000000000585600000000058640000000000000000000000000000008000000000000005000000000000029283168000000000000009999123100000010000000000000BRBRFSACNOR8110
012013091378BRFSI57     070BRFS        ON      NM000R$  000000000006000000000000600000000000060000000000006000000000000600000000000000000000000015000001000000000000000100000000000000006000000000000570002013091600000010000000000000BRBRFSACNOR8110
012013091302BRIN3       010BR INSURANCEON      NM   R$  000000000188300000000019740000000001883000000000192700000000019570000000001955000000000195701357000000000000414300000000000798478100000000000000009999123100000010000000000000BRBRINACNOR3106
012013091396BRIN3F      020BR INSURANCEON      NM   R$  000000000190000000000019790000000001900000000000194700000000019400000000001787000000000197500006000000000000000265000000000000516184000000000000009999123100000010000000000000BRBRINACNOR3106
012013091302BRKM3       010BRASKEM     ON      N1   R$  000000000126000000000012700000000001260000000000126400000000012690000000001245000000000127000008000000000000004600000000000005818100000000000000009999123100000010000000000000BRBRKMACNOR1110
012013091302BRKM5       010BRASKEM     PNA     N1   R$  000000000183800000000018580000000001832000000000184500000000018580000000001846000000000185804877000000000001101800000000002033808500000000000000009999123100000010000000000000BRBRKMACNPA4110
012013091396BRKM5F      020BRASKEM     PNA     N1   R$  000000000185000000000018900000000001831000000000184100000000018310000000001832000000000186500036000000000000000836000000000001539807000000000000009999123100000010000000000000BRBRKMACNPA4110
012013091362BRKM5T      030BRASKEM     PNA     N1090R$  000000000187600000000018770000000001876000000000187600000000018770000000000000000000000000000002000000000000004000000000000007504186000000000000009999123100000010000000000000BRBRKMACNPA4110
012013091302BRML3       010BR MALLS PARON      NM   R$  000000000195500000000020210000000001944000000000199600000000020110000000002010000000000201109568000000000002904300000000005798281600000000000000009999123100000010000000000000BRBRMLACNOR9105
012013091396BRML3F      020BR MALLS PARON      NM   R$  000000000196800000000020200000000001948000000000199600000000020050000000002002000000000201100050000000000000001658000000000003310413000000000000009999123100000010000000000000BRBRMLACNOR9105
012013091362BRML3T      030BR MALLS PARON      NM031R$  000000000197700000000020190000000001977000000000201000000000020190000000000000000000000000000004000000000000002500000000000005026044000000000000009999123100000010000000000000BRBRMLACNOR9105
012013091302BRPR3       010BR PROPERT  ON      NM   R$  000000000190400000000019050000000001875000000000189000000000018850000000001885000000000189206024000000000001291600000000002441413900000000000000009999123100000010000000000000BRBRPRACNOR9112
012013091396BRPR3F      020BR PROPERT  ON      NM   R$  000000000190600000000019640000000001871000000000189600000000018770000000001877000000000196000027000000000000000625000000000001184941000000000000009999123100000010000000000000BRBRPRACNOR9112
012013091362BRPR3T      030BR PROPERT  ON      NM090R$  000000000194800000000019490000000001948000000000194800000000019490000000000000000000000000000002000000000000001000000000000001948624000000000000009999123100000010000000000000BRBRPRACNOR9112
012013091396BRSR3F      020BANRISUL    ON  EJ  N1   R$  000000000130000000000013000000000001300000000000130000000000013000000000001398000000000143000002000000000000000033000000000000042900000000000000009999123100000010000000000000BRBRSRACNOR3131
012013091396BRSR5F      020BANRISUL    PNA EJ  N1   R$  000000000147000000000015500000000001470000000000147100000000015500000000001500000000000155000003000000000000000058000000000000085340000000000000009999123100000010000000000000BRBRSRACNPA6135
012013091302BRSR6       010BANRISUL    PNB EJ  N1   R$  000000000153500000000015880000000001527000000000155900000000015620000000001561000000000156202602000000000000648400000000001011008000000000000000009999123100000010000000000000BRBRSRACNPB4134
012013091396BRSR6F      020BANRISUL    PNB EJ  N1   R$  000000000153100000000016800000000001531000000000155900000000016800000000001550000000000168000025000000000000000579000000000000902934000000000000009999123100000010000000000000BRBRSRACNPB4134
012013091302BSEV3       010BIOSEV      ON      NM   R$  000000000094300000000009600000000000943000000000094500000000009600000000000960000000000100000004000000000000001700000000000001606500000000000000009999123100000010000000000000BRBSEVACNOR3100
012013091302BTOW3       010B2W DIGITAL ON      NM   R$  000000000160400000000016110000000001547000000000158100000000015720000000001572000000000158000802000000000000211400000000000334325400000000000000009999123100000010000000000000BRBTOWACNOR8105
012013091396BTOW3F      020B2W DIGITAL ON      NM   R$  000000000160500000000016050000000001511000000000158200000000015110000000001511000000000156500024000000000000000624000000000000987724000000000000009999123100000010000000000000BRBTOWACNOR8105
012013091302BTTL3       010BATTISTELLA ON           R$  000000000009000000000000940000000000090000000000009000000000000940000000000085000000000009400004000000000000065100000000000005859400000000000000009999123100000010000000000000BRBTTLACNOR0105
012013091302BTTL4       010BATTISTELLA PN           R$  000000000010000000000001000000000000099000000000009900000000001000000000000098000000000010000004000000000000007000000000000000697000000000000000009999123100000010000000000000BRBTTLACNPR7105
012013091396BTTL4F      020BATTISTELLA PN           R$  000000000009800000000000980000000000097000000000009700000000000970000000000093000000000010700002000000000000000068000000000000006622000000000000009999123100000010000000000000BRBTTLACNPR7105
012013091302BVMF3       010BMFBOVESPA  ON      NM   R$  000000000123900000000012720000000001225000000000125100000000012700000000001269000000000127012931000000000005443300000000006814350300000000000000009999123100000010000000000000BRBVMFACNOR3126
012013091396BVMF3F      020BMFBOVESPA  ON      NM   R$  000000000123500000000012700000000001226000000000124200000000012650000000001264000000000126500086000000000000002578000000000003207192000000000000009999123100000010000000000000BRBVMFACNOR3126
012013091362BVMF3S      030BMFBOVESPA  ON      NM090R$  000000000129900000000013000000000001299000000000129900000000013000000000000000000000000000000002000000000000008900000000000011567490000000000000009999123100000010000000000000BRBVMFACNOR3126
012013091362BVMF3T      030BMFBOVESPA  ON      NM031R$  000000000124300000000012480000000001243000000000124400000000012480000000000000000000000000000012000000000000222200000000000276506662000000000000009999123100000010000000000000BRBVMFACNOR3126
012013091362BVMF3T      030BMFBOVESPA  ON      NM041R$  000000000124900000000012500000000001249000000000124900000000012500000000000000000000000000000004000000000000005000000000000006246231000000000000009999123100000010000000000000BRBVMFACNOR3126
012013091378BVMFA44     070BVMF        ON      NM000R$  000000000002200000000000220000000000022000000000002200000000000220000000000000000000000000000001000000000000002000000000000000044000000000000145002014012000000010000000000000BRBVMFACNOR3126
012013091378BVMFI10     070BVMF        ON      NM000R$  000000000025000000000002530000000000250000000000025200000000002520000000000000000000000000000006000000000000011200000000000002823700000000000098502013091600000010000000000000BRBVMFACNOR3125
012013091378BVMFI11     070BVMF        ON      NM000R$  000000000015000000000001860000000000145000000000017400000000001760000000000096000000000000000098000000000000019500000000000003400400000000000108502013091600000010000000000000BRBVMFACNOR3125
012013091378BVMFI12     070BVMF        ON      NM000R$  000000000005100000000000860000000000046000000000006500000000000780000000000078000000000000000138000000000000112400000000000007400700000000000118502013091600000010000000000000BRBVMFACNOR3125
012013091378BVMFI13     070BVMF        ON      NM000R$  000000000000100000000000010000000000001000000000000100000000000010000000000000000000000000100048000000000000544400000000000000544400000000000128502013091600000010000000000000BRBVMFACNOR3125
012013091378BVMFI14     070BVMF        ON      NM000R$  000000000000100000000000010000000000001000000000000100000000000010000000000000000000000000100002000000000000001000000000000000001000000000000138502013091600000010000000000000BRBVMFACNOR3125
012013091378BVMFI40     070BVMF        ON      NM000R$  000000000020000000000002360000000000200000000000020700000000002360000000000000000000000000000005000000000000002000000000000000414400000000000103502013091600000010000000000000BRBVMFACNOR3125
012013091378BVMFI41     070BVMF        ON      NM000R$  000000000010300000000001060000000000094000000000010200000000001020000000000000000000000000000051000000000000011600000000000001183900000000000113502013091600000010000000000000BRBVMFACNOR3125
012013091378BVMFI42     070BVMF        ON      NM000R$  000000000001000000000000340000000000010000000000001400000000000340000000000012000000000005000032000000000000058600000000000000843100000000000123502013091600000010000000000000BRBVMFACNOR3125
012013091378BVMFJ10     070BVMF        ON      NM000R$  000000000025700000000002570000000000257000000000025700000000002570000000000200000000000040200003000000000000007000000000000001799000000000000098502013102100000010000000000000BRBVMFACNOR3125
012013091378BVMFJ11     070BVMF        ON      NM000R$  000000000016500000000001950000000000165000000000018300000000001930000000000168000000000000000011000000000000011600000000000002125200000000000108502013102100000010000000000000BRBVMFACNOR3125
012013091378BVMFJ12     070BVMF  FM    ON      NM000R$  000000000008500000000001100000000000080000000000009400000000001000000000000092000000000010000117000000000000175600000000000016642200000000000118502013102100000010000000000000BRBVMFACNOR3125
012013091378BVMFJ13     070BVMF  FM    ON      NM000R$  000000000003400000000000450000000000027000000000003600000000000440000000000031000000000004400235000000000000281000000000000010297500000000000128502013102100000010000000000000BRBVMFACNOR3125
012013091378BVMFJ14     070BVMF  FM    ON      NM000R$  000000000000700000000000120000000000006000000000000900000000000120000000000005000000000001200031000000000000109500000000000001034400000000000138502013102100000010000000000000BRBVMFACNOR3125
012013091378BVMFJ15     070BVMF        ON      NM000R$  000000000000300000000000030000000000003000000000000300000000000030000000000001000000000000000001000000000000001000000000000000003000000000000148502013102100000010000000000000BRBVMFACNOR3125
012013091378BVMFJ42     070BVMF  FM    ON      NM000R$  000000000005400000000000740000000000049000000000006000000000000710000000000000000000000123500114000000000000089000000000000005354400000000000123502013102100000010000000000000BRBVMFACNOR3125
012013091378BVMFJ43     070BVMF  FM    ON      NM000R$  000000000001600000000000230000000000016000000000002000000000000220000000000018000000000002300045000000000000079100000000000001616000000000000133502013102100000010000000000000BRBVMFACNOR3125
012013091378BVMFJ44     070BVMF        ON      NM000R$  000000000000400000000000050000000000004000000000000400000000000050000000000004000000000000000013000000000000002600000000000000010800000000000145002013102100000010000000000000BRBVMFACNOR3126
012013091378BVMFJ51     070BVMFE       ON      NM000R$  000000000011000000000001100000000000110000000000011000000000001100000000000000000000000000000002000000000000012000000000000001320000000000000116002013102100000010000000000000BRBVMFACNOR3125
012013091378BVMFK12     070BVMF  FM    ON      NM000R$  000000000010100000000001230000000000101000000000011200000000001230000000000000000000000000000010000000000000023000000000000002593300000000000118502013111800000010000000000000BRBVMFACNOR3125
012013091378BVMFK13     070BVMF  FM    ON      NM000R$  000000000004600000000000590000000000044000000000005100000000000570000000000000000000000006000061000000000000077800000000000004040600000000000128502013111800000010000000000000BRBVMFACNOR3125
012013091378BVMFK14     070BVMF  FM    ON      NM000R$  000000000001100000000000180000000000011000000000001400000000000180000000000012000000000001800143000000000000226100000000000003283400000000000138502013111800000010000000000000BRBVMFACNOR3125
012013091378BVMFK42     070BVMF  FM    ON      NM000R$  000000000006100000000000760000000000061000000000006600000000000760000000000000000000000000000004000000000000012200000000000000809200000000000125002013111800000010000000000000BRBVMFACNOR3126
012013091378BVMFL13     070BVMF        ON      NM000R$  000000000005700000000000710000000000057000000000007000000000000700000000000050000000000000000004000000000000120100000000000008442700000000000128502013121600000010000000000000BRBVMFACNOR3125
012013091382BVMFU11     080BVMFE       ON      NM000R$  000000000000100000000000010000000000001000000000000100000000000010000000000000000000000000100001000000000000000500000000000000000500000000000108502013091600000010000000000000BRBVMFACNOR3125
012013091382BVMFU13     080BVMFE       ON      NM000R$  000000000005600000000000560000000000050000000000005300000000000500000000000010000000000000000004000000000000001800000000000000096600000000000128502013091600000010000000000000BRBVMFACNOR3125
012013091382BVMFU42     080BVMFE       ON      NM000R$  000000000000800000000000080000000000001000000000000100000000000010000000000000000000000001000007000000000000030100000000000000034800000000000123502013091600000010000000000000BRBVMFACNOR3125
012013091382BVMFV11     080BVMFE       ON      NM000R$  000000000000500000000000050000000000005000000000000500000000000050000000000000000000000000000001000000000000000500000000000000002500000000000108502013102100000010000000000000BRBVMFACNOR3125
012013091382BVMFV12     080BVMFE FM    ON      NM000R$  000000000002500000000000250000000000017000000000002200000000000170000000000017000000000003300018000000000000168900000000000003811400000000000118502013102100000010000000000000BRBVMFACNOR3125
012013091382BVMFV13     080BVMFE FM    ON      NM000R$  000000000006700000000000750000000000050000000000005400000000000530000000000050000000000006400032000000000000058200000000000003168500000000000128502013102100000010000000000000BRBVMFACNOR3125
012013091382BVMFV42     080BVMFE FM    ON      NM000R$  000000000004700000000000470000000000031000000000003800000000000320000000000032000000000003400043000000000000105300000000000004015300000000000123502013102100000010000000000000BRBVMFACNOR3125
012013091382BVMFV43     080BVMFE       ON      NM000R$  000000000008800000000000880000000000077000000000008000000000000780000000000000000000000000000005000000000000012800000000000001027600000000000133502013102100000010000000000000BRBVMFACNOR3125
012013091382BVMFW12     080BVMFE FM    ON      NM000R$  000000000002800000000000280000000000027000000000002700000000000280000000000000000000000000000007000000000000007800000000000000214900000000000118502013111800000010000000000000BRBVMFACNOR3125
012013091382BVMFW13     080BVMFE FM    ON      NM000R$  000000000007400000000000750000000000074000000000007400000000000750000000000000000000000000000004000000000000004000000000000000298800000000000128502013111800000010000000000000BRBVMFACNOR3125
012013091382BVMFW41     080BVMFE FM    ON      NM000R$  000000000002900000000000290000000000021000000000002500000000000210000000000000000000000000000020000000000000005000000000000000129000000000000115002013111800000010000000000000BRBVMFACNOR3126
012013091382BVMFW42     080BVMFE FM    ON      NM000R$  000000000005900000000000590000000000046000000000005200000000000460000000000000000000000000000004000000000000007000000000000000368400000000000125002013111800000010000000000000BRBVMFACNOR3126
012013091302CAMB4       010CAMBUCI     PN           R$  000000000018000000000001900000000000180000000000018800000000001900000000000185000000000019600006000000000000006400000000000001204400000000000000009999123100000010000000000000BRCAMBACNPR1117
012013091396CAMB4F      020CAMBUCI     PN           R$  000000000017000000000001880000000000168000000000018500000000001700000000000100000000000018800006000000000000000033000000000000006127000000000000009999123100000010000000000000BRCAMBACNPR1117
012013091302CARD3       010CSU CARDSYSTON      NM   R$  000000000032300000000003250000000000319000000000032000000000003200000000000316000000000032400018000000000000013900000000000004452100000000000000009999123100000010000000000000BRCARDACNOR9105
012013091396CARD3F      020CSU CARDSYSTON      NM   R$  000000000031000000000003100000000000310000000000031000000000003100000000000311000000000032400003000000000000000062000000000000019220000000000000009999123100000010000000000000BRCARDACNOR9105
012013091302CBMA3       010COBRASMA    ON           R$  000000000000400000000000040000000000004000000000000400000000000040000000000004000000000000600002000000000000040000000000000000160000000000000000009999123100000010000000000000BRCBMAACNOR4124
012013091308CCHI3       010CHIARELLI   ON           R$  000000000001800000000000200000000000018000000000001800000000000190000000000017000000000001900076000000000001060000000000000019740000000000000000009999123100000010000000000000BRCCHIACNOR5123
012013091396CCHI3F      020CHIARELLI   ON           R$  000000000002100000000000210000000000018000000000001800000000000180000000000018000000000002200004000000000000010500000000000000192000000000000000009999123100000010000000000000BRCCHIACNOR5123
012013091308CCHI4       010CHIARELLI   PN           R$  000000000001600000000000170000000000015000000000001600000000000150000000000015000000000001600017000000000000190000000000000003070000000000000000009999123100000010000000000000BRCCHIACNPR2122
012013091302CCPR3       010CYRE COM-CCPON      NM   R$  000000000206200000000020950000000002062000000000207800000000020950000000002070000000000209900002000000000000000200000000000000415700000000000000009999123100000010000000000000BRCCPRACNOR9107
012013091302CCRO3       010CCR SA      ON      NM   R$  000000000184400000000018540000000001806000000000182900000000018400000000001840000000000184110044000000000003502400000000006406194700000000000000009999123100000010000000000000BRCCROACNOR2122
012013091396CCRO3F      020CCR SA      ON      NM   R$  000000000185000000000018530000000001808000000000183000000000018080000000001810000000000185300070000000000000001827000000000003345649000000000000009999123100000010000000000000BRCCROACNOR2122
012013091362CCRO3S      030CCR SA      ON      NM090R$  000000000188300000000018840000000001883000000000188300000000018840000000000000000000000000000002000000000000006100000000000011486642000000000000009999123100000010000000000000BRCCROACNOR2122
012013091362CCRO3T      030CCR SA      ON      NM017R$  000000000182300000000018240000000001823000000000182300000000018240000000000000000000000000000002000000000000003000000000000005469247000000000000009999123100000010000000000000BRCCROACNOR2122
012013091362CCRO3T      030CCR SA      ON      NM045R$  000000000184200000000018430000000001842000000000184200000000018430000000000000000000000000000002000000000000000600000000000001105588000000000000009999123100000010000000000000BRCCROACNOR2122
012013091378CCROI18     070CCRO        ON      NM000R$  000000000005400000000000540000000000054000000000005400000000000540000000000000000000000000000001000000000000005000000000000000270000000000000180002013091600000010000000000000BRCCROACNOR2122
012013091378CCROI48     070CCRO        ON      NM000R$  000000000000900000000000090000000000009000000000000900000000000090000000000000000000000000000001000000000000002000000000000000018000000000000185002013091600000010000000000000BRCCROACNOR2122
012013091378CCROJ18     070CCRO        ON      NM000R$  000000000007700000000000770000000000077000000000007700000000000770000000000000000000000000000001000000000000005000000000000000385000000000000180002013102100000010000000000000BRCCROACNOR2122
012013091378CCROJ19     070CCRO        ON      NM000R$  000000000002100000000000210000000000021000000000002100000000000210000000000000000000000000000002000000000000006000000000000000126000000000000190002013102100000010000000000000BRCCROACNOR2122
012013091302CCXC3       010CCX CARVAO  ON      NM   R$  000000000015800000000002030000000000155000000000017700000000001790000000000179000000000018005803000000000021670500000000003852652500000000000000009999123100000010000000000000BRCCXCACNOR5100
012013091396CCXC3F      020CCX CARVAO  ON      NM   R$  000000000015700000000001960000000000157000000000017800000000001960000000000180000000000020000015000000000000000441000000000000078749000000000000009999123100000010000000000000BRCCXCACNOR5100
012013091362CCXC3T      030CCX CARVAO  ON      NM017R$  000000000016000000000001940000000000160000000000017900000000001800000000000000000000000000000016000000000002885000000000000517437830000000000000009999123100000010000000000000BRCCXCACNOR5100
012013091362CCXC3T      030CCX CARVAO  ON      NM031R$  000000000017800000000001810000000000178000000000017900000000001810000000000000000000000000000006000000000000100000000000000017973166000000000000009999123100000010000000000000BRCCXCACNOR5100
012013091312CEOC11B     010FII CEO CCP CI  ER  MB   R$  000000000840000000000084500000000008318000000000840300000000084400000000008400000000000843000029000000000000002525000000000021219863000000000000009999123100000010000000000000BRCEOCCTF003110
012013091302CESP3       010CESP        ON      N1   R$  000000000174000000000017500000000001739000000000174100000000017500000000001713000000000175000005000000000000001800000000000003134300000000000000009999123100000010000000000000BRCESPACNOR3160
012013091302CESP5       010CESP        PNA     N1   R$  000000000232500000000023250000000002325000000000232500000000023250000000002288000000000235000001000000000000000100000000000000232500000000000000009999123100000010000000000000BRCESPACNPA6108
012013091302CESP6       010CESP        PNB     N1   R$  000000000229100000000023370000000002280000000000230700000000023280000000002321000000000232902774000000000000598800000000001381621000000000000000009999123100000010000000000000BRCESPACNPB4119
012013091396CESP6F      020CESP        PNB     N1   R$  000000000230300000000023300000000002286000000000230900000000023000000000002300000000000237500024000000000000000507000000000001170946000000000000009999123100000010000000000000BRCESPACNPB4119
012013091362CESP6T      030CESP        PNB     N1031R$  000000000231700000000023180000000002317000000000231700000000023180000000000000000000000000000002000000000000002500000000000005792767000000000000009999123100000010000000000000BRCESPACNPB4119
012013091362CESP6T      030CESP        PNB     N1060R$  000000000236200000000023630000000002362000000000236200000000023630000000000000000000000000000002000000000000010000000000000023623704000000000000009999123100000010000000000000BRCESPACNPB4119
012013091302CGAS5       010COMGAS      PNA          R$  000000000585000000000059000000000005850000000000588400000000059000000000005900000000000590700028000000000000004500000000000026478900000000000000009999123100000010000000000000BRCGASACNPA3129
012013091396CGAS5F      020COMGAS      PNA          R$  000000000585000000000059980000000005850000000000592700000000059980000000005819000000000609900005000000000000000119000000000000705414000000000000009999123100000010000000000000BRCGASACNPA3129
012013091302CGRA4       010GRAZZIOTIN  PN           R$  000000000179000000000017900000000001781000000000178400000000017900000000001780000000000179000009000000000000003300000000000005889000000000000000009999123100000010000000000000BRCGRAACNPR9061
012013091302CIEL3       010CIELO       ON      NM   R$  000000000570200000000057410000000005667000000000569700000000057250000000005715000000000572503970000000000000742100000000004228430700000000000000009999123100000010000000000000BRCIELACNOR3111
012013091396CIEL3F      020CIELO       ON      NM   R$  000000000567000000000057340000000005670000000000569300000000056780000000005678000000000572100124000000000000003605000000000020529414000000000000009999123100000010000000000000BRCIELACNOR3111
012013091362CIEL3T      030CIELO       ON      NM045R$  000000000573500000000057370000000005735000000000573600000000057370000000000000000000000000000004000000000000001500000000000008604619000000000000009999123100000010000000000000BRCIELACNOR3111
012013091378CIELI56     070CIEL        ON      NM000R$  000000000016000000000001600000000000160000000000016000000000001600000000000000000000000000000002000000000000001800000000000000288000000000000560002013091600000010000000000000BRCIELACNOR3111
012013091378CIELJ56     070CIEL        ON      NM000R$  000000000019000000000001900000000000190000000000019000000000001900000000000000000000000000000002000000000000001800000000000000342000000000000560002013102100000010000000000000BRCIELACNOR3111
012013091378CIELJ57     070CIEL        ON      NM000R$  000000000015500000000001550000000000155000000000015500000000001550000000000000000000000000000001000000000000010000000000000001550000000000000570002013102100000010000000000000BRCIELACNOR3111
012013091302CLSC4       010CELESC      PN      N2   R$  000000000177100000000017750000000001728000000000175700000000017690000000001765000000000176900055000000000000015500000000000027247700000000000000009999123100000010000000000000BRCLSCACNPR3107
012013091396CLSC4F      020CELESC      PN      N2   R$  000000000177000000000017700000000001600000000000162100000000016000000000001611000000000171000005000000000000000064000000000000103773000000000000009999123100000010000000000000BRCLSCACNPR3107
012013091358CMGR3       010CEMAT       ON           R$  000000000043000000000004810000000000430000000000045400000000004810000000000422000000000050000008000000000000001000000000000000454100000000000000009999123100000010000000000000BRCMGRACNOR7114
012013091396CMGR3F      020CEMAT       ON           R$  000000000041000000000004100000000000410000000000041000000000004100000000000418000000000000000002000000000000000043000000000000017630000000000000009999123100000010000000000000BRCMGRACNOR7114
012013091302CMIG3       010CEMIG       ON      N1   R$  000000000186300000000018800000000001845000000000185900000000018490000000001849000000000185300413000000000000137100000000000254938200000000000000009999123100000010000000000000BRCMIGACNOR6208
012013091396CMIG3F      020CEMIG       ON      N1   R$  000000000187700000000019990000000001845000000000186600000000018550000000001860000000000195000040000000000000001160000000000002165535000000000000009999123100000010000000000000BRCMIGACNOR6208
012013091362CMIG3T      030CEMIG       ON      N1180R$  000000000194000000000019470000000001940000000000194000000000019470000000000000000000000000000004000000000000004175000000000008100110000000000000009999123100000010000000000000BRCMIGACNOR6208
012013091302CMIG4       010CEMIG       PN      N1   R$  000000000186800000000018750000000001854000000000186700000000018650000000001865000000000186708408000000000002587300000000004831974600000000000000009999123100000010000000000000BRCMIGACNPR3208
012013091396CMIG4F      020CEMIG       PN      N1   R$  000000000186900000000018880000000001857000000000186800000000018750000000001867000000000188000107000000000000003093000000000005779297000000000000009999123100000010000000000000BRCMIGACNPR3208
012013091362CMIG4T      030CEMIG       PN      N1017R$  000000000187500000000018760000000001875000000000187500000000018760000000000000000000000000000002000000000000000100000000000000187566000000000000009999123100000010000000000000BRCMIGACNPR3208
012013091362CMIG4T      030CEMIG       PN      N1031R$  000000000188000000000018810000000001880000000000188000000000018810000000000000000000000000000002000000000000000500000000000000940445000000000000009999123100000010000000000000BRCMIGACNPR3208
012013091362CMIG4T      030CEMIG       PN      N1045R$  000000000188400000000018910000000001884000000000189000000000018910000000000000000000000000000004000000000000021000000000000039696323000000000000009999123100000010000000000000BRCMIGACNPR3208
012013091362CMIG4T      030CEMIG       PN      N1060R$  000000000189300000000018940000000001893000000000189300000000018940000000000000000000000000000002000000000000004000000000000007573619000000000000009999123100000010000000000000BRCMIGACNPR3208
012013091362CMIG4T      030CEMIG       PN      N1090R$  000000000190600000000019070000000001906000000000190600000000019070000000000000000000000000000002000000000000100000000000000190637462000000000000009999123100000010000000000000BRCMIGACNPR3208
012013091362CMIG4T      030CEMIG       PN      N1122R$  000000000191800000000019220000000001918000000000192100000000019220000000000000000000000000000008000000000000044400000000000085313931000000000000009999123100000010000000000000BRCMIGACNPR3208
012013091362CMIG4T      030CEMIG       PN      N1360R$  000000000207700000000020780000000002077000000000207700000000020780000000000000000000000000000002000000000000000700000000000001454299000000000000009999123100000010000000000000BRCMIGACNPR3208
012013091378CMIGJ19     070CMIG        PN      N1000R$  000000000005200000000000520000000000052000000000005200000000000520000000000000000000000000000004000000000000000700000000000000036400000000000190002013102100000010000000000000BRCMIGACNPR3208
012013091382CMIGX20     080CMIGE       PN      N1000R$  000000000015200000000001520000000000152000000000015200000000001520000000000000000000000000000001000000000000250000000000000038000000000000000200002013121600000010000000000000BRCMIGACNPR3208
012013091312CNES11B     010FII CENESP  CI      MB   R$  000000001221000000000123500000000012151000000001220500000000122200000000012200000000001222000010000000000000000277000000000003380921000000000000009999123100000010000000000000BRCNESCTF001125
012013091302COCE3       010COELCE      ON           R$  000000000410000000000041000000000004100000000000410000000000041000000000004020000000000410000002000000000000000500000000000002050000000000000000009999123100000010000000000000BRCOCEACNOR0132
012013091302COCE5       010COELCE      PNA          R$  000000000396000000000039990000000003940000000000397300000000039910000000003991000000000400600197000000000000031000000000000123163200000000000000009999123100000010000000000000BRCOCEACNPA3133
012013091396COCE5F      020COELCE      PNA          R$  000000000397500000000039900000000003949000000000396500000000039490000000003939000000000406900020000000000000000335000000000001328467000000000000009999123100000010000000000000BRCOCEACNPA3133
012013091396CORR4F      020COR RIBEIRO PN           R$  000000001500000000000150000000000015000000000001500000000000150000000000014000000000002000000004000000000000000029000000000000435000000000000000009999123100000010000000000000BRCORRACNPR7015
012013091302CPFE3       010CPFL ENERGIAON      NM   R$  000000000196000000000019600000000001935000000000194500000000019580000000001955000000000195804282000000000001203100000000002340332600000000000000009999123100000010000000000000BRCPFEACNOR0122
012013091396CPFE3F      020CPFL ENERGIAON      NM   R$  000000000196000000000020430000000001924000000000194800000000019250000000001925000000000200700033000000000000000989000000000001927472000000000000009999123100000010000000000000BRCPFEACNOR0122
012013091362CPFE3T      030CPFL ENERGIAON      NM017R$  000000000195500000000019560000000001955000000000195500000000019560000000000000000000000000000002000000000000002000000000000003911572000000000000009999123100000010000000000000BRCPFEACNOR0122
012013091302CPLE3       010COPEL       ON      N1   R$  000000000218500000000021880000000002150000000000217000000000021750000000002165000000000217500030000000000000014400000000000031252900000000000000009999123100000010000000000000BRCPLEACNOR8128
012013091396CPLE3F      020COPEL       ON      N1   R$  000000000222000000000022200000000002126000000000217300000000021260000000002126000000000239000002000000000000000100000000000000217300000000000000009999123100000010000000000000BRCPLEACNOR8128
012013091302CPLE6       010COPEL       PNB     N1   R$  000000000307700000000030770000000003009000000000304100000000030500000000003046000000000305002482000000000000379900000000001155358700000000000000009999123100000010000000000000BRCPLEACNPB9125
012013091396CPLE6F      020COPEL       PNB     N1   R$  000000000307500000000030990000000002901000000000301600000000030010000000003001000000000309900018000000000000000468000000000001411720000000000000009999123100000010000000000000BRCPLEACNPB9125
012013091362CPLE6T      030COPEL       PNB     N1017R$  000000000304800000000030490000000003048000000000304800000000030490000000000000000000000000000002000000000000000100000000000000304845000000000000009999123100000010000000000000BRCPLEACNPB9125
012013091302CPRE3       010CPFL RENOVAVON      NM   R$  000000000120800000000012190000000001199000000000120300000000011990000000001175000000000119900027000000000000011500000000000013838100000000000000009999123100000010000000000000BRCPREACNOR5100
012013091396CPRE3F      020CPFL RENOVAVON      NM   R$  000000000119100000000012050000000001191000000000119800000000012050000000001190000000000120500005000000000000000200000000000000239685000000000000009999123100000010000000000000BRCPREACNOR5100
012013091302CRDE3       010CR2         ON      NM   R$  000000000041600000000004240000000000415000000000041500000000004150000000000415000000000042400011000000000000007200000000000002993600000000000000009999123100000010000000000000BRCRDEACNOR1108
012013091302CREM3       010CREMER      ON      NM   R$  000000000145800000000014700000000001451000000000145700000000014700000000001435000000000147000020000000000000003400000000000004954800000000000000009999123100000010000000000000BRCREMACNOR2167
012013091302CRIV4       010ALFA FINANC PN           R$  000000000045200000000004600000000000445000000000044900000000004490000000000443000000000044900012000000000000002500000000000001122700000000000000009999123100000010000000000000BRCRIVACNPR1190
012013091302CRUZ3       010SOUZA CRUZ  ON           R$  000000000270100000000027120000000002686000000000270100000000027120000000002700000000000271205848000000000002986600000000008068386500000000000000009999123100000010000000000000BRCRUZACNOR0246
012013091396CRUZ3F      020SOUZA CRUZ  ON           R$  000000000269800000000027290000000002680000000000269700000000026800000000002680000000000271900028000000000000000844000000000002277109000000000000009999123100000010000000000000BRCRUZACNOR0246
012013091362CRUZ3T      030SOUZA CRUZ  ON        060R$  000000000274000000000027410000000002740000000000274000000000027410000000000000000000000000000004000000000000010000000000000027403684000000000000009999123100000010000000000000BRCRUZACNOR0246
012013091302CSAN3       010COSAN       ON      NM   R$  000000000429900000000043160000000004256000000000428400000000043110000000004300000000000431103403000000000000926600000000003970403100000000000000009999123100000010000000000000BRCSANACNOR6108
012013091396CSAN3F      020COSAN       ON      NM   R$  000000000430000000000043290000000004221000000000429200000000043280000000004227000000000432800023000000000000000571000000000002451155000000000000009999123100000010000000000000BRCSANACNOR6108
012013091362CSAN3T      030COSAN       ON      NM017R$  000000000428200000000042830000000004282000000000428200000000042830000000000000000000000000000002000000000000001000000000000004282637000000000000009999123100000010000000000000BRCSANACNOR6108
012013091362CSAN3T      030COSAN       ON      NM122R$  000000000439500000000043960000000004395000000000439500000000043960000000000000000000000000000002000000000000000500000000000002197991000000000000009999123100000010000000000000BRCSANACNOR6108
012013091302CSMG3       010COPASA      ON      NM   R$  000000000310000000000031990000000003100000000000315800000000031990000000003155000000000320501411000000000000243200000000000768203000000000000000009999123100000010000000000000BRCSMGACNOR5127
012013091396CSMG3F      020COPASA      ON      NM   R$  000000000327700000000032770000000003032000000000315300000000031610000000002800000000000328000032000000000000000717000000000002260805000000000000009999123100000010000000000000BRCSMGACNOR5127
012013091314CSMO11      010ISHARES CSMOCI           R$  000000000476200000000047620000000004762000000000476200000000047620000000004600000000000610000001000000000000000070000000000000333340000000000000009999123100000010000000000000BRCSMOCTF002100
012013091302CSNA3       010SID NACIONALON           R$  000000000093400000000009450000000000928000000000093800000000009400000000000940000000000094109451000000000006148400000000005772027500000000000000009999123100000010000000000000BRCSNAACNOR6243
012013091396CSNA3F      020SID NACIONALON           R$  000000000094000000000009410000000000930000000000093700000000009410000000000930000000000094400037000000000000001144000000000001073614000000000000009999123100000010000000000000BRCSNAACNOR6243
012013091362CSNA3T      030SID NACIONALON        090R$  000000000095200000000009530000000000952000000000095200000000009530000000000000000000000000000002000000000000001000000000000000952313000000000000009999123100000010000000000000BRCSNAACNOR6243
012013091362CSNA3T      030SID NACIONALON        122R$  000000000096400000000009650000000000964000000000096400000000009650000000000000000000000000000002000000000000002000000000000001928153000000000000009999123100000010000000000000BRCSNAACNOR6243
012013091378CSNAA40     070CSNA        ON        000R$  000000000006400000000000640000000000063000000000006300000000000640000000000000000000000000000010000000000000008100000000000000518300000000000103002014012000000010000000000000BRCSNAACNOR6242
012013091378CSNAI10     070CSNA        ON        000R$  000000000000100000000000010000000000001000000000000100000000000010000000000000000000000000000001000000000000004000000000000000004000000000000100002013091600000010000000000000BRCSNAACNOR6243
012013091378CSNAI64     070CSNA        ON        000R$  000000000031000000000003100000000000310000000000031000000000003100000000000000000000000000000001000000000000001000000000000000310000000000000062002013091600000010000000000000BRCSNAACNOR6242
012013091378CSNAI7      070CSNA        ON        000R$  000000000025800000000002670000000000258000000000026300000000002660000000000000000000000000000008000000000000018900000000000004988000000000000068002013091600000010000000000000BRCSNAACNOR6242
012013091378CSNAI72     070CSNA        ON        000R$  000000000024700000000002470000000000247000000000024700000000002470000000000000000000000000000001000000000000001000000000000000247000000000000070002013091600000010000000000000BRCSNAACNOR6242
012013091378CSNAI74     070CSNA        ON        000R$  000000000021800000000002270000000000217000000000021900000000002240000000000000000000000000000157000000000000153000000000000033567800000000000072002013091600000010000000000000BRCSNAACNOR6242
012013091378CSNAI76     070CSNA        ON        000R$  000000000019600000000001960000000000196000000000019600000000001960000000000000000000000000000001000000000000001200000000000000235200000000000074002013091600000010000000000000BRCSNAACNOR6242
012013091378CSNAI78     070CSNA        ON        000R$  000000000017800000000001780000000000177000000000017700000000001770000000000000000000000000000002000000000000002800000000000000496400000000000076002013091600000010000000000000BRCSNAACNOR6242
012013091378CSNAI8      070CSNA        ON        000R$  000000000015600000000001690000000000156000000000016400000000001660000000000163000000000018400020000000000000057600000000000009465000000000000078002013091600000010000000000000BRCSNAACNOR6242
012013091378CSNAI82     070CSNA        ON        000R$  000000000014200000000001420000000000141000000000014100000000001410000000000000000000000000000003000000000000005000000000000000709000000000000080002013091600000010000000000000BRCSNAACNOR6242
012013091378CSNAI84     070CSNA        ON        000R$  000000000010300000000001060000000000097000000000010200000000001030000000000000000000000012000006000000000000007000000000000000715000000000000084002013091600000010000000000000BRCSNAACNOR6243
012013091378CSNAI88     070CSNA        ON        000R$  000000000005900000000000670000000000059000000000006400000000000640000000000062000000000000000005000000000000008200000000000000525800000000000088002013091600000010000000000000BRCSNAACNOR6243
012013091378CSNAI9      070CSNA        ON        000R$  000000000004000000000000450000000000040000000000004200000000000420000000000039000000000006100063000000000000062600000000000002652500000000000090002013091600000010000000000000BRCSNAACNOR6243
012013091378CSNAI92     070CSNA        ON        000R$  000000000002500000000000290000000000024000000000002500000000000290000000000024000000000000000004000000000000007200000000000000185200000000000092002013091600000010000000000000BRCSNAACNOR6243
012013091378CSNAI94     070CSNA        ON        000R$  000000000000900000000000140000000000009000000000001100000000000140000000000000000000000000000007000000000000013000000000000000152200000000000094002013091600000010000000000000BRCSNAACNOR6243
012013091378CSNAI96     070CSNA        ON        000R$  000000000000400000000000050000000000003000000000000300000000000030000000000000000000000000000008000000000000040500000000000000158500000000000096002013091600000010000000000000BRCSNAACNOR6243
012013091378CSNAI98     070CSNA        ON        000R$  000000000000100000000000010000000000001000000000000100000000000010000000000000000000000000200002000000000000020000000000000000020000000000000098002013091600000010000000000000BRCSNAACNOR6243
012013091378CSNAJ10     070CSNA  FM    ON        000R$  000000000002600000000000290000000000026000000000002600000000000280000000000023000000000004500040000000000000016200000000000000436800000000000100002013102100000010000000000000BRCSNAACNOR6243
012013091378CSNAJ40     070CSNA        ON        000R$  000000000001400000000000140000000000014000000000001400000000000140000000000004000000000000000001000000000000001500000000000000021000000000000104002013102100000010000000000000BRCSNAACNOR6243
012013091378CSNAJ7      070CSNA        ON        000R$  000000000025500000000002650000000000255000000000026100000000002650000000000260000000000037100005000000000000005200000000000001361600000000000068002013102100000010000000000000BRCSNAACNOR6242
012013091378CSNAJ74     070CSNA        ON        000R$  000000000020600000000002060000000000206000000000020600000000002060000000000000000000000000000001000000000000003000000000000000618000000000000074002013102100000010000000000000BRCSNAACNOR6243
012013091378CSNAJ78     070CSNA        ON        000R$  000000000018600000000001860000000000186000000000018600000000001860000000000000000000000000000001000000000000006000000000000001116000000000000076002013102100000010000000000000BRCSNAACNOR6242
012013091378CSNAJ8      070CSNA        ON        000R$  000000000017100000000001720000000000169000000000017100000000001690000000000000000000000019500007000000000000009600000000000001645900000000000078002013102100000010000000000000BRCSNAACNOR6242
012013091378CSNAJ82     070CSNA        ON        000R$  000000000015200000000001520000000000152000000000015200000000001520000000000000000000000000000001000000000000001000000000000000152000000000000080002013102100000010000000000000BRCSNAACNOR6242
012013091378CSNAJ86     070CSNA        ON        000R$  000000000011500000000001210000000000114000000000011600000000001210000000000000000000000000000155000000000000151400000000000017599800000000000084002013102100000010000000000000BRCSNAACNOR6242
012013091378CSNAJ9      070CSNA        ON        000R$  000000000009000000000000920000000000087000000000008800000000000920000000000090000000000010500010000000000000015300000000000001354000000000000088002013102100000010000000000000BRCSNAACNOR6242
012013091378CSNAJ92     070CSNA  FM    ON        000R$  000000000006400000000000670000000000062000000000006500000000000650000000000000000000000000000020000000000000012000000000000000784700000000000092002013102100000010000000000000BRCSNAACNOR6243
012013091378CSNAJ94     070CSNA  FM    ON        000R$  000000000005200000000000560000000000052000000000005300000000000540000000000050000000000006000008000000000000011800000000000000628800000000000094002013102100000010000000000000BRCSNAACNOR6243
012013091378CSNAJ96     070CSNA  FM    ON        000R$  000000000004200000000000420000000000042000000000004200000000000420000000000000000000000000000001000000000000001000000000000000042000000000000096002013102100000010000000000000BRCSNAACNOR6243
012013091378CSNAJ98     070CSNA  FM    ON        000R$  000000000003300000000000330000000000032000000000003200000000000330000000000003000000000000000004000000000000006800000000000000221400000000000098002013102100000010000000000000BRCSNAACNOR6243
012013091378CSNAK10     070CSNA  FM    ON        000R$  000000000005200000000000560000000000052000000000005400000000000560000000000000000000000000000002000000000000002000000000000000108000000000000098002013111800000010000000000000BRCSNAACNOR6242
012013091378CSNAK60     070CSNA        ON        000R$  000000000002600000000000260000000000026000000000002600000000000260000000000000000000000000000039000000000000110000000000000002860000000000000106002013111800000010000000000000BRCSNAACNOR6243
