00COTAHIST.2013BOVESPA 20131010                                                                                                                                                                                                                      
012013101002AAPL34      010APPLE       DRN          R$  000000001065800000000106580000000010633000000001065000000000106330000000010605000000001074500002000000000000005800000000000061771400000000000000009999123100000010000000000000BRAAPLBDR004105
012013101002ABCB4       010ABC BRASIL  PN      N2   R$  000000000135000000000013600000000001331000000000134600000000013570000000001350000000000135700318000000000000122900000000000165466400000000000000009999123100000010000000000000BRABCBACNPR4120
012013101096ABCB4F      020ABC BRASIL  PN      N2   R$  000000000134000000000013530000000001303000000000133600000000013460000000001322000000000139400012000000000000000293000000000000391473000000000000009999123100000010000000000000BRABCBACNPR4120
012013101062ABCB4T      030ABC BRASIL  PN      N2060R$  000000000136300000000013640000000001363000000000136300000000013640000000000000000000000000000002000000000000000400000000000000545532000000000000009999123100000010000000000000BRABCBACNPR4120
012013101012ABCP11      010FII ABC IMOBCI  ER       R$  000000000098900000000009890000000000989000000000098900000000009890000000000946000000000099000001000000000000000001000000000000000989000000000000009999123100000010000000000000BRABCPCTF000216
012013101002ABRE11      010ABRIL EDUCA UNT     N2   R$  000000000331400000000033540000000003300000000000332800000000033340000000003334000000000334200228000000000000063900000000000212719400000000000000009999123100000010000000000000BRABRECDAM15102
012013101096ABRE11F     020ABRIL EDUCA UNT     N2   R$  000000000339900000000033990000000003305000000000336000000000033050000000003100000000000333300002000000000000000091000000000000305831000000000000009999123100000010000000000000BRABRECDAM15102
012013101002AEDU3       010ANHANGUERA  ON      NM   R$  000000000134700000000013510000000001325000000000134000000000013350000000001334000000000133505065000000000002005600000000002687911800000000000000009999123100000010000000000000BRAEDUACNOR9107
012013101096AEDU3F      020ANHANGUERA  ON      NM   R$  000000000132600000000013490000000001305000000000133400000000013200000000001320000000000135000026000000000000000533000000000000711068000000000000009999123100000010000000000000BRAEDUACNOR9107
012013101012AEFI11      010FII AESAPAR CI  ER       R$  000000001201000000000121390000000012000000000001202900000000121290000000012000000000001212900013000000000000000842000000000010128563000000000000009999123100000010000000000000BRAEFICTF002122
012013101002AELP3       010AES ELPA    ON           R$  000000000091000000000009100000000000900000000000090300000000009000000000000900000000000091200009000000000000004700000000000004245100000000000000009999123100000010000000000000BRAELPACNOR2119
012013101096AELP3F      020AES ELPA    ON           R$  000000000092500000000009250000000000925000000000092500000000009250000000000880000000000098000002000000000000000025000000000000023125000000000000009999123100000010000000000000BRAELPACNOR2119
012013101012AGCX11      010FII AG CAIXACI  ER       R$  000000009470000000000947000000000094500000000009450200000000945000000000094230000000009450000014000000000000000151000000000014269940000000000000009999123100000010000000000000BRAGCXCTF003111
012013101002AGRO3       010BRASILAGRO  ON      NM   R$  000000000099500000000010000000000000974000000000098600000000009800000000000974000000000098000102000000000000023700000000000023377500000000000000009999123100000010000000000000BRAGROACNOR7102
012013101096AGRO3F      020BRASILAGRO  ON      NM   R$  000000000099600000000009960000000000901000000000096900000000009010000000000901000000000105000004000000000000000071000000000000068827000000000000009999123100000010000000000000BRAGROACNOR7102
012013101002ALLL3       010ALL AMER LATON      NM   R$  000000000090500000000009050000000000862000000000087500000000008720000000000872000000000087306691000000000004089500000000003579556500000000000000009999123100000010000000000000BRALLLACNOR6118
012013101096ALLL3F      020ALL AMER LATON      NM   R$  000000000089000000000009050000000000863000000000087800000000008720000000000873000000000088400074000000000000001815000000000001594236000000000000009999123100000010000000000000BRALLLACNOR6118
012013101062ALLL3T      030ALL AMER LATON      NM018R$  000000000088100000000008820000000000871000000000087700000000008750000000000000000000000000000008000000000000021200000000000018595361000000000000009999123100000010000000000000BRALLLACNOR6118
012013101062ALLL3T      030ALL AMER LATON      NM047R$  000000000089200000000008930000000000892000000000089200000000008930000000000000000000000000000002000000000000002000000000000001785249000000000000009999123100000010000000000000BRALLLACNOR6118
012013101062ALLL3T      030ALL AMER LATON      NM060R$  000000000088400000000008850000000000884000000000088400000000008850000000000000000000000000000002000000000000002000000000000001769920000000000000009999123100000010000000000000BRALLLACNOR6118
012013101062ALLL3T      030ALL AMER LATON      NM090R$  000000000089300000000008940000000000893000000000089300000000008940000000000000000000000000000002000000000000000600000000000000535861000000000000009999123100000010000000000000BRALLLACNOR6118
012013101012ALMI11B     010FII TORRE ALCI  ER  MB   R$  000000031650000000003165000000000315500000000031590600000003155000000000315500000000031839900006000000000000000032000000000010109006000000000000009999123100000010000000000000BRALMICTF003206
012013101002ALPA4       010ALPARGATAS  PN      N1   R$  000000000146900000000014760000000001458000000000146800000000014740000000001455000000000147500332000000000000099900000000000146668100000000000000009999123100000010000000000000BRALPAACNPR7203
012013101096ALPA4F      020ALPARGATAS  PN      N1   R$  000000000147500000000014760000000001460000000000146900000000014600000000001460000000000147600014000000000000000320000000000000470095000000000000009999123100000010000000000000BRALPAACNPR7203
012013101062ALPA4T      030ALPARGATAS  PN      N1120R$  000000000151000000000015110000000001510000000000151000000000015110000000000000000000000000000002000000000000000082000000000000123830000000000000009999123100000010000000000000BRALPAACNPR7203
012013101002ALSC3       010ALIANSCE    ON      NM   R$  000000000211300000000021210000000002079000000000209900000000020970000000002096000000000209701092000000000000249400000000000523541300000000000000009999123100000010000000000000BRALSCACNOR0104
012013101096ALSC3F      020ALIANSCE    ON      NM   R$  000000000209500000000021160000000002002000000000207600000000020020000000002044000000000215800007000000000000000221000000000000458934000000000000009999123100000010000000000000BRALSCACNOR0104
012013101002ALUP11      010ALUPAR      UNT     N2   R$  000000000172500000000017440000000001713000000000173000000000017380000000001721000000000173800246000000000000063500000000000109863000000000000000009999123100000010000000000000BRALUPCDAM15100
012013101096ALUP11F     020ALUPAR      UNT     N2   R$  000000000172600000000017400000000001711000000000173000000000017400000000001710000000000175000025000000000000000897000000000001552686000000000000009999123100000010000000000000BRALUPCDAM15100
012013101062ALUP11T     030ALUPAR      UNT     N2090R$  000000000177300000000017740000000001773000000000177300000000017740000000000000000000000000000002000000000000006900000000000012239662000000000000009999123100000010000000000000BRALUPCDAM15100
012013101002AMAR3       010LOJAS MARISAON      NM   R$  000000000201900000000020260000000001963000000000200000000000020040000000001981000000000200401990000000000000471200000000000942752800000000000000009999123100000010000000000000BRAMARACNOR4109
012013101096AMAR3F      020LOJAS MARISAON      NM   R$  000000000201700000000020170000000001993000000000200200000000019930000000001984000000000200500008000000000000000240000000000000480588000000000000009999123100000010000000000000BRAMARACNOR4109
012013101062AMAR3T      030LOJAS MARISAON      NM018R$  000000000200600000000020070000000002004000000000200400000000020050000000000000000000000000000004000000000000011000000000000022051487000000000000009999123100000010000000000000BRAMARACNOR4109
012013101002AMBV3       010AMBEV       ON           R$  000000000838900000000084460000000008320000000000838800000000084350000000008422000000000843500957000000000000125400000000001051914800000000000000009999123100000010000000000000BRAMBVACNOR4154
012013101096AMBV3F      020AMBEV       ON           R$  000000000839900000000084380000000008306000000000837700000000084210000000008361000000000842600048000000000000001282000000000010740644000000000000009999123100000010000000000000BRAMBVACNOR4154
012013101002AMBV4       010AMBEV       PN           R$  000000000840000000000084400000000008315000000000838800000000084400000000008440000000000844106952000000000001786100000000014982557100000000000000009999123100000010000000000000BRAMBVACNPR1154
012013101096AMBV4F      020AMBEV       PN           R$  000000000838100000000084990000000008320000000000839000000000084400000000008400000000000844000212000000000000004813000000000040386519000000000000009999123100000010000000000000BRAMBVACNPR1154
012013101062AMBV4T      030AMBEV       PN        018R$  000000000840100000000084020000000008401000000000840100000000084020000000000000000000000000000002000000000000000500000000000004200903000000000000009999123100000010000000000000BRAMBVACNPR1154
012013101062AMBV4T      030AMBEV       PN        060R$  000000000846600000000084670000000008431000000000844700000000084560000000000000000000000000000006000000000000002500000000000021119608000000000000009999123100000010000000000000BRAMBVACNPR1154
012013101062AMBV4T      030AMBEV       PN        090R$  000000000853600000000085370000000008536000000000853600000000085370000000000000000000000000000002000000000000001000000000000008536950000000000000009999123100000010000000000000BRAMBVACNPR1154
012013101078AMBVJ83     070AMBV        PN        000R$  000000000020900000000002090000000000208000000000020800000000002080000000000000000000000000000002000000000000123000000000000025657800000000000823502013102100000010000000000000BRAMBVACNPR1153
012013101078AMBVJ86     070AMBV        PN        000R$  000000000003700000000000370000000000037000000000003700000000000370000000000000000000000000000001000000000000000200000000000000007400000000000853502013102100000010000000000000BRAMBVACNPR1153
012013101078AMBVL9      070AMBV        PN        000R$  000000000013000000000001300000000000130000000000013000000000001300000000000000000000000000000002000000000000430000000000000055900000000000000900002013121600000010000000000000BRAMBVACNPR1154
012013101082AMBVX50     080AMBVE       PN        000R$  000000000012100000000001210000000000121000000000012100000000001210000000000000000000000000000002000000000000430000000000000052030000000000000800002013121600000010000000000000BRAMBVACNPR1154
012013101082AMBVX83     080AMBVE       PN        000R$  000000000023700000000002380000000000237000000000023700000000002380000000000000000000000000000003000000000000430100000000000102363700000000000830002013121600000010000000000000BRAMBVACNPR1154
012013101002AMGN34      010AMGEN       DRN          R$  000000002357400000000235900000000023574000000002358900000000235900000000023770000000002414000002000000000000004300000000000101435400000000000000009999123100000010000000000000BRAMGNBDR004107
012013101002ARTR3       010ARTERIS     ON      NM   R$  000000000198500000000019890000000001955000000000196800000000019750000000001975000000000197901622000000000000294000000000000578787100000000000000009999123100000010000000000000BRARTRACNOR3101
012013101096ARTR3F      020ARTERIS     ON      NM   R$  000000000198000000000019800000000001950000000000196200000000019610000000001904000000000197400020000000000000000493000000000000967600000000000000009999123100000010000000000000BRARTRACNOR3101
012013101002ARZZ3       010AREZZO CO   ON      NM   R$  000000000368700000000037000000000003540000000000359600000000035400000000003540000000000354301213000000000000227000000000000816407000000000000000009999123100000010000000000000BRARZZACNOR3109
012013101096ARZZ3F      020AREZZO CO   ON      NM   R$  000000000366500000000036650000000003589000000000360200000000035890000000003535000000000359800013000000000000000433000000000001559811000000000000009999123100000010000000000000BRARZZACNOR3109
012013101062ARZZ3T      030AREZZO CO   ON      NM018R$  000000000355500000000035560000000003555000000000355500000000035560000000000000000000000000000002000000000000001000000000000003555576000000000000009999123100000010000000000000BRARZZACNOR3109
012013101002AUTM3       010AUTOMETAL   ON      NM   R$  000000000185900000000018590000000001818000000000184200000000018450000000001845000000000184600252000000000000091400000000000168414100000000000000009999123100000010000000000000BRAUTMACNOR8109
012013101002AXPB34      010AMERICAN EXPDRN ED       R$  000000001617900000000161790000000016179000000001617900000000161790000000016044000000001651900001000000000000000700000000000011325300000000000000009999123100000010000000000000BRAXPBBDR007106
012013101002BAUH4       010EXCELSIOR   PN           R$  000000000093800000000009380000000000938000000000093800000000009380000000000920000000000093800001000000000000000100000000000000093800000000000000009999123100000010000000000000BRBAUHACNPR3108
012013101002BAZA3       010AMAZONIA    ON           R$  000000000003200000000000320000000000032000000000003200000000000320000000000032000000000003300007000000000000046000000000000001472000000000000000009999123100000010000000000000BRBAZAACNOR0163
012013101002BBAS3       010BRASIL      ON      NM   R$  000000000265300000000026850000000002638000000000266300000000026800000000002675000000000268010428000000000005112500000000013618835700000000000000009999123100000010000000000000BRBBASACNOR3239
012013101096BBAS3F      020BRASIL      ON      NM   R$  000000000263700000000026840000000002637000000000266100000000026800000000002651000000000268000218000000000000006824000000000018160540000000000000009999123100000010000000000000BRBBASACNOR3239
012013101062BBAS3T      030BRASIL      ON      NM060R$  000000000269900000000027000000000002699000000000269900000000027000000000000000000000000000000002000000000000000500000000000001349802000000000000009999123100000010000000000000BRBBASACNOR3239
012013101078BBASA26     070BBAS        ON      NM000R$  000000000026200000000002620000000000257000000000025900000000002570000000000000000000000000000006000000000000001100000000000000285700000000000249502014012000000010000000000000BRBBASACNOR3237
012013101078BBASJ21     070BBAS        ON      NM000R$  000000000074700000000007470000000000665000000000071900000000006650000000000000000000000000000002000000000000000300000000000000215900000000000199502013102100000010000000000000BRBBASACNOR3237
012013101078BBASJ23     070BBAS        ON      NM000R$  000000000051400000000005150000000000514000000000051400000000005150000000000480000000000000000002000000000000002800000000000001440000000000000216102013102100000010000000000000BRBBASACNOR3235
012013101078BBASJ24     070BBAS        ON      NM000R$  000000000042000000000004200000000000420000000000042000000000004200000000000215000000000000000004000000000000000700000000000000294000000000000227102013102100000010000000000000BRBBASACNOR3236
012013101078BBASJ25     070BBAS        ON      NM000R$  000000000026600000000003100000000000254000000000028100000000003100000000000242000000000031000037000000000000074500000000000020944900000000000239502013102100000010000000000000BRBBASACNOR3237
012013101078BBASJ26     070BBAS  FM    ON      NM000R$  000000000020300000000002290000000000189000000000021000000000002260000000000189000000000000000270000000000000277800000000000058446400000000000246102013102100000010000000000000BRBBASACNOR3235
012013101078BBASJ27     070BBAS  FM    ON      NM000R$  000000000011200000000001340000000000099000000000011500000000001340000000000090000000000013400565000000000000265600000000000030583400000000000256102013102100000010000000000000BRBBASACNOR3235
012013101078BBASJ28     070BBAS  FM    ON      NM000R$  000000000002500000000000350000000000019000000000002800000000000350000000000025000000000003500200000000000000355300000000000010141200000000000269502013102100000010000000000000BRBBASACNOR3237
012013101078BBASJ29     070BBAS  FM    ON      NM000R$  000000000000700000000000120000000000005000000000001100000000000110000000000009000000000001400160000000000000234800000000000002652900000000000276102013102100000010000000000000BRBBASACNOR3235
012013101078BBASJ30     070BBAS  FM    ON      NM000R$  000000000000100000000000020000000000001000000000000100000000000020000000000001000000000000300012000000000000088800000000000000175400000000000286102013102100000010000000000000BRBBASACNOR3235
012013101078BBASJ55     070BBAS        ON      NM000R$  000000000007900000000000790000000000079000000000007900000000000790000000000000000000000000000001000000000000000100000000000000007900000000000260002013102100000010000000000000BRBBASACNOR3239
012013101078BBASJ56     070BBAS        ON      NM000R$  000000000015900000000001750000000000143000000000016800000000001750000000000010000000000000000051000000000000013100000000000002205800000000000251102013102100000010000000000000BRBBASACNOR3235
012013101078BBASK23     070BBAS        ON      NM000R$  000000000044800000000004480000000000448000000000044800000000004480000000000162000000000000000001000000000000002000000000000000896000000000000219502013111800000010000000000000BRBBASACNOR3237
012013101078BBASK24     070BBAS        ON      NM000R$  000000000039000000000003900000000000390000000000039000000000003900000000000000000000000000000001000000000000000600000000000000234000000000000229502013111800000010000000000000BRBBASACNOR3237
012013101078BBASK26     070BBAS  FM    ON      NM000R$  000000000022600000000002490000000000216000000000023300000000002450000000000100000000000050000189000000000000119400000000000027918800000000000247102013111800000010000000000000BRBBASACNOR3236
012013101078BBASK27     070BBAS  FM    ON      NM000R$  000000000014800000000001670000000000138000000000015300000000001630000000000045000000000000000105000000000000059600000000000009169800000000000257102013111800000010000000000000BRBBASACNOR3236
012013101078BBASK28     070BBAS  FM    ON      NM000R$  000000000008700000000001010000000000075000000000009000000000000970000000000096000000000010000341000000000000259400000000000023538400000000000267102013111800000010000000000000BRBBASACNOR3236
012013101078BBASK29     070BBAS  FM    ON      NM000R$  000000000003400000000000420000000000030000000000003500000000000410000000000016000000000004200104000000000000604400000000000021520200000000000279502013111800000010000000000000BRBBASACNOR3237
012013101078BBASK30     070BBAS  FM    ON      NM000R$  000000000001400000000000180000000000014000000000001700000000000180000000000010000000000001900003000000000000012200000000000000210800000000000289502013111800000010000000000000BRBBASACNOR3237
012013101078BBASK31     070BBAS        ON      NM000R$  000000000000800000000000080000000000008000000000000800000000000080000000000005000000000000000001000000000000002000000000000000016000000000000299502013111800000010000000000000BRBBASACNOR3237
012013101078BBASK56     070BBAS        ON      NM000R$  000000000012800000000001280000000000128000000000012800000000001280000000000000000000000000000007000000000000005800000000000000742400000000000262302013111800000010000000000000BRBBASACNOR3238
012013101078BBASK57     070BBAS        ON      NM000R$  000000000005700000000000570000000000057000000000005700000000000570000000000000000000000000000014000000000000010000000000000000570000000000000275002013111800000010000000000000BRBBASACNOR3239
012013101078BBASL21     070BBAS        ON      NM000R$  000000000070200000000007020000000000702000000000070200000000007020000000000000000000000000000001000000000000000200000000000000140400000000000199502013121600000010000000000000BRBBASACNOR3237
012013101078BBASL26     070BBAS        ON      NM000R$  000000000027100000000002710000000000271000000000027100000000002710000000000016000000000000000001000000000000000200000000000000054200000000000246102013121600000010000000000000BRBBASACNOR3235
012013101078BBASL27     070BBAS        ON      NM000R$  000000000016700000000001800000000000162000000000016700000000001800000000000016000000000020400006000000000000002800000000000000468400000000000259502013121600000010000000000000BRBBASACNOR3237
012013101078BBASL28     070BBAS        ON      NM000R$  000000000010900000000001230000000000102000000000011500000000001230000000000090000000000000000150000000000000105500000000000012181600000000000269502013121600000010000000000000BRBBASACNOR3237
012013101078BBASL29     070BBAS        ON      NM000R$  000000000007800000000000850000000000075000000000007700000000000850000000000016000000000000000016000000000000004900000000000000380700000000000276102013121600000010000000000000BRBBASACNOR3235
012013101078BBASL30     070BBAS        ON      NM000R$  000000000001800000000000200000000000018000000000001800000000000180000000000007000000000000000055000000000000027500000000000000518500000000000300002013121600000010000000000000BRBBASACNOR3239
012013101078BBASL31     070BBAS        ON      NM000R$  000000000001000000000000100000000000010000000000001000000000000100000000000003000000000000000014000000000000007000000000000000070000000000000310002013121600000010000000000000BRBBASACNOR3239
012013101078BBASL32     070BBAS        ON      NM000R$  000000000000600000000000060000000000006000000000000600000000000060000000000002000000000000000001000000000000000200000000000000001200000000000320002013121600000010000000000000BRBBASACNOR3239
012013101078BBASL59     070BBAS        ON      NM000R$  000000000002600000000000260000000000026000000000002600000000000260000000000000000000000000000011000000000000010500000000000000273000000000000295002013121600000010000000000000BRBBASACNOR3239
012013101078BBASL60     070BBAS        ON      NM000R$  000000000003900000000000480000000000039000000000004400000000000450000000000014000000000000000059000000000000767100000000000034498500000000000286202013121600000010000000000000BRBBASACNOR3233
012013101078BBASL79     070BBAS        ON      NM000R$  000000000003400000000000370000000000034000000000003400000000000350000000000000000000000000000258000000000000520000000000000018088000000000000290002013121600000010000000000000BRBBASACNOR3239
012013101082BBASM21     080BBASE       ON      NM000R$  000000000001000000000000100000000000010000000000001000000000000100000000000000000000000000000001000000000000003000000000000000030000000000000210002014012000000010000000000000BRBBASACNOR3239
012013101082BBASM26     080BBASE       ON      NM000R$  000000000005700000000000580000000000057000000000005700000000000580000000000000000000000000000002000000000000006000000000000000345000000000000249502014012000000010000000000000BRBBASACNOR3237
012013101082BBASV24     080BBASE       ON      NM000R$  000000000000100000000000010000000000001000000000000100000000000010000000000000000000000000100003000000000000015100000000000000015100000000000227102013102100000010000000000000BRBBASACNOR3236
012013101082BBASV25     080BBASE FM    ON      NM000R$  000000000000300000000000030000000000001000000000000100000000000010000000000001000000000000500019000000000000037800000000000000056600000000000239502013102100000010000000000000BRBBASACNOR3237
012013101082BBASV26     080BBASE FM    ON      NM000R$  000000000000300000000000030000000000003000000000000300000000000030000000000000000000000001200007000000000000017600000000000000052800000000000246102013102100000010000000000000BRBBASACNOR3235
012013101082BBASV27     080BBASE FM    ON      NM000R$  000000000001100000000000130000000000007000000000000900000000000070000000000005000000000000800075000000000000130000000000000001279200000000000256102013102100000010000000000000BRBBASACNOR3235
012013101082BBASV28     080BBASE FM    ON      NM000R$  000000000006100000000000670000000000042000000000005600000000000420000000000035000000000006000098000000000000144100000000000008159900000000000269502013102100000010000000000000BRBBASACNOR3237
012013101082BBASW26     080BBASE FM    ON      NM000R$  000000000001800000000000180000000000018000000000001800000000000180000000000017000000000003200001000000000000000800000000000000014400000000000247102013111800000010000000000000BRBBASACNOR3236
012013101082BBASW27     080BBASE FM    ON      NM000R$  000000000004000000000000460000000000035000000000004000000000000350000000000033000000000004600020000000000000028600000000000001168500000000000257102013111800000010000000000000BRBBASACNOR3236
012013101082BBASW28     080BBASE FM    ON      NM000R$  000000000007500000000000790000000000067000000000007400000000000680000000000000000000000000000038000000000000084800000000000006342800000000000267102013111800000010000000000000BRBBASACNOR3236
012013101082BBASX25     080BBASE       ON      NM000R$  000000000002200000000000220000000000020000000000002000000000000200000000000018000000000003600003000000000000700000000000000014240000000000000236102013121600000010000000000000BRBBASACNOR3235
012013101082BBASX26     080BBASE       ON      NM000R$  000000000003100000000000310000000000031000000000003100000000000310000000000028000000000000000003000000000000003600000000000000111600000000000246102013121600000010000000000000BRBBASACNOR3235
012013101082BBASX28     080BBASE       ON      NM000R$  000000000011400000000001140000000000105000000000011300000000001050000000000000000000000014000002000000000000001600000000000000181500000000000269502013121600000010000000000000BRBBASACNOR3237
012013101082BBASX55     080BBASE       ON      NM000R$  000000000001700000000000170000000000017000000000001700000000000170000000000000000000000000000001000000000000001200000000000000020400000000000235202013121600000010000000000000BRBBASACNOR3233
012013101082BBASX56     080BBASE       ON      NM000R$  000000000005900000000000590000000000048000000000005000000000000480000000000000000000000000000008000000000001009600000000000051192800000000000255002013121600000010000000000000BRBBASACNOR3239
012013101002BBDC3       010BRADESCO    ON  EJ  N1   R$  000000000360000000000036400000000003577000000000361200000000036260000000003626000000000363003736000000000001023400000000003696746400000000000000009999123100000010000000000000BRBBDCACNOR1607
012013101096BBDC3F      020BRADESCO    ON  EJ  N1   R$  000000000361500000000036490000000003537000000000360300000000036400000000003604000000000364000036000000000000000826000000000002977715000000000000009999123100000010000000000000BRBBDCACNOR1607
012013101062BBDC3T      030BRADESCO    ON  EJ  N1032R$  000000000363400000000036350000000003634000000000363400000000036350000000000000000000000000000002000000000000000200000000000000726840000000000000009999123100000010000000000000BRBBDCACNOR1607
012013101002BBDC4       010BRADESCO    PN  EJ  N1   R$  000000000314500000000031820000000003126000000000315300000000031650000000003164000000000316517383000000000008043200000000025366642100000000000000009999123100000010000000000000BRBBDCACNPR8607
012013101096BBDC4F      020BRADESCO    PN  EJ  N1   R$  000000000314500000000031830000000003124000000000315200000000031770000000003152000000000317700210000000000000005361000000000016901796000000000000009999123100000010000000000000BRBBDCACNPR8607
012013101062BBDC4T      030BRADESCO    PN  EJ  N1032R$  000000000320400000000032050000000003204000000000320400000000032050000000000000000000000000000002000000000000003000000000000009613458000000000000009999123100000010000000000000BRBBDCACNPR8607
012013101062BBDC4T      030BRADESCO    PN  EJ  N1060R$  000000000317200000000031730000000003172000000000317200000000031730000000000000000000000000000002000000000000001000000000000003172568000000000000009999123100000010000000000000BRBBDCACNPR8607
012013101062BBDC4T      030BRADESCO    PN  EJ  N1061R$  000000000319100000000031920000000003191000000000319100000000031920000000000000000000000000000002000000000000002500000000000007979043000000000000009999123100000010000000000000BRBBDCACNPR8607
012013101062BBDC4T      030BRADESCO    PN  EJ  N1064R$  000000000319200000000031930000000003192000000000319200000000031930000000000000000000000000000002000000000000001100000000000003512084000000000000009999123100000010000000000000BRBBDCACNPR8607
012013101062BBDC4T      030BRADESCO    PN  EJ  N1120R$  000000000321800000000032520000000003218000000000324600000000032520000000000000000000000000000016000000000000065500000000000212617066000000000000009999123100000010000000000000BRBBDCACNPR8607
012013101078BBDCA37     070BBDC    /EJ PN      N1000R$  000000000002600000000000270000000000026000000000002600000000000270000000000000000000000000000002000000000000006000000000000000159000000000000367402014012000000010000000000000BRBBDCACNPR8602
012013101078BBDCJ1      070BBDC    /EJ PN      N1000R$  000000000005500000000000560000000000048000000000005100000000000540000000000000000000000000000007000000000000019900000000000001021400000000000314202013102100000010000000000000BRBBDCACNPR8603
012013101078BBDCJ27     070BBDC    /EJ PN      N1000R$  000000000049000000000004900000000000490000000000049000000000004900000000000290000000000000000001000000000000001000000000000000490000000000000267402013102100000010000000000000BRBBDCACNPR8602
012013101078BBDCJ29     070BBDC    /EJ PN      N1000R$  000000000026400000000002930000000000264000000000027300000000002930000000000242000000000000000005000000000000006200000000000001695500000000000287402013102100000010000000000000BRBBDCACNPR8602
012013101078BBDCJ30     070BBDC  FM/EJ PN      N1000R$  000000000017400000000002140000000000167000000000018800000000002130000000000208000000000000000304000000000000386400000000000072915600000000000297402013102100000010000000000000BRBBDCACNPR8602
012013101078BBDCJ31     070BBDC  FM/EJ PN      N1000R$  000000000009100000000001240000000000088000000000010300000000001230000000000079000000000012800130000000000000145000000000000014991100000000000307402013102100000010000000000000BRBBDCACNPR8602
012013101078BBDCJ32     070BBDC  FM/EJ PN      N1000R$  000000000003900000000000540000000000033000000000004300000000000530000000000016000000000005500355000000000000577900000000000024982600000000000317402013102100000010000000000000BRBBDCACNPR8602
012013101078BBDCJ33     070BBDC  FM/EJ PN      N1000R$  000000000001000000000000160000000000008000000000001200000000000160000000000013000000000005000034000000000000069300000000000000871600000000000327402013102100000010000000000000BRBBDCACNPR8602
012013101078BBDCJ34     070BBDC  FM/EJ PN      N1000R$  000000000000300000000000060000000000003000000000000400000000000050000000000003000000000000700031000000000000076000000000000000322200000000000337002013102100000010000000000000BRBBDCACNPR8600
012013101078BBDCK30     070BBDC  FM/EJ PN      N1000R$  000000000020300000000002330000000000193000000000021400000000002300000000000141000000000023900237000000000000210300000000000045121300000000000299602013111800000010000000000000BRBBDCACNPR8605
012013101078BBDCK31     070BBDC  FM/EJ PN      N1000R$  000000000013400000000001590000000000129000000000014100000000001560000000000102000000000016800083000000000000065000000000000009205000000000000309602013111800000010000000000000BRBBDCACNPR8605
012013101078BBDCK32     070BBDC  FM/EJ PN      N1000R$  000000000009900000000001110000000000085000000000009900000000001060000000000083000000000011500123000000000000149700000000000014899200000000000317202013111800000010000000000000BRBBDCACNPR8601
012013101078BBDCK33     070BBDC  FM/EJ PN      N1000R$  000000000005000000000000620000000000050000000000005800000000000620000000000036000000000006200200000000000000202900000000000011776600000000000327402013111800000010000000000000BRBBDCACNPR8602
012013101078BBDCK34     070BBDC  FM/EJ PN      N1000R$  000000000002200000000000300000000000022000000000002800000000000300000000000027000000000000000021000000000000573000000000000016050200000000000339402013111800000010000000000000BRBBDCACNPR8604
012013101078BBDCK9      070BBDC    /EJ PN      N1000R$  000000000030000000000003000000000000300000000000030000000000003000000000000226000000000000000002000000000000004000000000000001200000000000000289602013111800000010000000000000BRBBDCACNPR8605
012013101078BBDCL1      070BBDC    /EJ PN      N1000R$  000000000020200000000002020000000000190000000000019300000000001960000000000000000000000000000019000000000000614000000000000118886500000000000307002013121600000010000000000000BRBBDCACNPR8600
012013101078BBDCL3      070BBDC    /EJ PN      N1000R$  000000000008700000000000870000000000087000000000008700000000000870000000000000000000000000000005000000000000007000000000000000609000000000000327002013121600000010000000000000BRBBDCACNPR8601
012013101082BBDCM25     080BBDCE   /EJ PN      N1000R$  000000000000900000000000090000000000009000000000000900000000000090000000000000000000000000000001000000000000001200000000000000010800000000000250002014012000000010000000000000BRBBDCACNPR8607
012013101082BBDCM30     080BBDCE   /EJ PN      N1000R$  000000000008100000000000810000000000075000000000007700000000000750000000000000000000000000000004000000000000008000000000000000622000000000000299802014012000000010000000000000BRBBDCACNPR8606
012013101082BBDCM31     080BBDCE   /EJ PN      N1000R$  000000000011500000000001150000000000106000000000011000000000001060000000000000000000000000000006000000000000011400000000000001265100000000000309602014012000000010000000000000BRBBDCACNPR8605
012013101082BBDCM32     080BBDCE   /EJ PN      N1000R$  000000000015600000000001560000000000147000000000015200000000001470000000000000000000000000000004000000000000006800000000000001033800000000000319802014012000000010000000000000BRBBDCACNPR8606
012013101082BBDCM33     080BBDCE   /EJ PN      N1000R$  000000000020700000000002070000000000207000000000020700000000002070000000000000000000000000000001000000000000002000000000000000414000000000000329802014012000000010000000000000BRBBDCACNPR8606
012013101082BBDCM56     080BBDCE   /EJ PN      N1000R$  000000000001800000000000180000000000018000000000001800000000000180000000000000000000000000000001000000000000001200000000000000021600000000000265002014012000000010000000000000BRBBDCACNPR8607
012013101082BBDCM59     080BBDCE   /EJ PN      N1000R$  000000000006900000000000690000000000062000000000006500000000000630000000000000000000000000000005000000000000009400000000000000613000000000000294602014012000000010000000000000BRBBDCACNPR8605
012013101082BBDCO61     080BBDCE   /EJ PN      N1000R$  000000000004400000000000460000000000040000000000004500000000000400000000000000000000000000000013000000000001512400000000000068705000000000000278602014031700000010000000000000BRBBDCACNPR8598
012013101082BBDCV1      080BBDCE   /EJ PN      N1000R$  000000000005200000000000520000000000034000000000003900000000000340000000000000000000000000000011000000000000020700000000000000827000000000000314202013102100000010000000000000BRBBDCACNPR8603
012013101082BBDCV29     080BBDCE FM/EJ PN      N1000R$  000000000000200000000000020000000000001000000000000100000000000010000000000000000000000000000023000000000000043700000000000000080300000000000287402013102100000010000000000000BRBBDCACNPR8602
012013101082BBDCV30     080BBDCE FM/EJ PN      N1000R$  000000000000800000000000080000000000002000000000000400000000000020000000000002000000000000000067000000000000113200000000000000454000000000000297402013102100000010000000000000BRBBDCACNPR8602
012013101082BBDCV31     080BBDCE FM/EJ PN      N1000R$  000000000002500000000000250000000000012000000000001700000000000120000000000007000000000010000069000000000000118700000000000002120600000000000307402013102100000010000000000000BRBBDCACNPR8602
012013101082BBDCV32     080BBDCE FM/EJ PN      N1000R$  000000000006500000000000700000000000041000000000005500000000000420000000000020000000000000000059000000000000104500000000000005794800000000000317402013102100000010000000000000BRBBDCACNPR8602
012013101082BBDCW27     080BBDCE   /EJ PN      N1000R$  000000000000600000000000060000000000006000000000000600000000000060000000000000000000000000000011000000000000110000000000000000660000000000000269202013111800000010000000000000BRBBDCACNPR8603
012013101082BBDCW28     080BBDCE   /EJ PN      N1000R$  000000000000700000000000070000000000007000000000000700000000000070000000000000000000000000000011000000000000051200000000000000358400000000000277402013111800000010000000000000BRBBDCACNPR8602
012013101082BBDCW30     080BBDCE FM/EJ PN      N1000R$  000000000003800000000000380000000000029000000000003500000000000290000000000000000000000002900045000000000000111000000000000003889400000000000299602013111800000010000000000000BRBBDCACNPR8605
012013101082BBDCW31     080BBDCE FM/EJ PN      N1000R$  000000000006700000000000710000000000051000000000006000000000000510000000000000000000000000000073000000000000161200000000000009730600000000000309602013111800000010000000000000BRBBDCACNPR8605
012013101082BBDCW32     080BBDCE FM/EJ PN      N1000R$  000000000010200000000001020000000000077000000000008800000000000780000000000072000000000007900044000000000000060200000000000005329200000000000317202013111800000010000000000000BRBBDCACNPR8601
012013101082BBDCW9      080BBDCE FM/EJ PN      N1000R$  000000000002100000000000210000000000014000000000001600000000000140000000000000000000000001900016000000000000025300000000000000421500000000000289602013111800000010000000000000BRBBDCACNPR8605
012013101082BBDCX24     080BBDCE   /EJ PN      N1000R$  000000000000700000000000070000000000007000000000000700000000000070000000000000000000000000000001000000000000003500000000000000024500000000000239402013121600000010000000000000BRBBDCACNPR8604
012013101012BBFI11B     010FII BB PROGRCI  ER  MB   R$  000000042000000000004200000000000415101000000041582000000004151010000000415101000000041999800014000000000000000035000000000014553720000000000000009999123100000010000000000000BRBBFICTF006199
012013101012BBPO11      010FII BB PRGIICI  ER       R$  000000001125000000000113000000000011181000000001121200000000112030000000011203000000001122000241000000000000020325000000000227889252000000000000009999123100000010000000000000BRBBPOCTF003111
012013101012BBRC11      010FII BB CORP CI  ER       R$  000000000904500000000090450000000009005000000000904400000000090050000000008951000000000900400006000000000000000252000000000002279220000000000000009999123100000010000000000000BRBBRCCTF004125
012013101002BBRK3       010BR BROKERS  ON      NM   R$  000000000060200000000006110000000000600000000000060700000000006110000000000607000000000061101122000000000000315700000000000191804900000000000000009999123100000010000000000000BRBBRKACNOR4108
012013101096BBRK3F      020BR BROKERS  ON      NM   R$  000000000060100000000006090000000000596000000000060200000000006090000000000573000000000064400004000000000000000151000000000000091049000000000000009999123100000010000000000000BRBBRKACNOR4108
012013101002BBSE3       010BBSEGURIDADEON      NM   R$  000000000227300000000023400000000002272000000000230500000000023400000000002321000000000234010507000000000006824800000000015737624900000000000000009999123100000010000000000000BRBBSEACNOR5101
012013101096BBSE3F      020BBSEGURIDADEON      NM   R$  000000000226500000000023310000000002265000000000229800000000023310000000002331000000000233500657000000000000023036000000000052944045000000000000009999123100000010000000000000BRBBSEACNOR5101
012013101062BBSE3T      030BBSEGURIDADEON      NM020R$  000000000230200000000023030000000002302000000000230200000000023030000000000000000000000000000002000000000000000300000000000000690874000000000000009999123100000010000000000000BRBBSEACNOR5101
012013101062BBSE3T      030BBSEGURIDADEON      NM090R$  000000000234600000000023900000000002344000000000234900000000023900000000000000000000000000000038000000000001305000000000003065992607000000000000009999123100000010000000000000BRBBSEACNOR5101
012013101002BBTG11      010BTG PACTUAL UNT          R$  000000000280300000000028400000000002787000000000280500000000028100000000002810000000000283000470000000000000729500000000002046798800000000000000009999123100000010000000000000BRBBTGUNT007105
012013101096BBTG11F     020BTG PACTUAL UNT          R$  000000000281000000000028680000000002800000000000282100000000028680000000002731000000000286900004000000000000000279000000000000787208000000000000009999123100000010000000000000BRBBTGUNT007105
012013101012BBVJ11      010FII C JARDIMCI  ER       R$  000000000780000000000079000000000007800000000000788500000000079000000000007850000000000790000004000000000000000024000000000000189250000000000000009999123100000010000000000000BRBBVJCTF001134
012013101012BCFF11B     010FII BC FFII CI  ER  MB   R$  000000000890100000000090490000000008900000000000898200000000089550000000008951000000000899900046000000000000002284000000000020515282000000000000009999123100000010000000000000BRBCFFCTF000143
012013101002BDLL4       010BARDELLA    PN           R$  000000000535000000000054470000000005250000000000528800000000054470000000005215000000000544600007000000000000001300000000000006874900000000000000009999123100000010000000000000BRBDLLACNPR8149
012013101002BEEF3       010MINERVA     ON      NM   R$  000000000097300000000009770000000000946000000000095200000000009500000000000950000000000095303703000000000000901100000000000858258200000000000000009999123100000010000000000000BRBEEFACNOR6104
012013101096BEEF3F      020MINERVA     ON      NM   R$  000000000096600000000009740000000000949000000000095900000000009510000000000949000000000097500009000000000000000293000000000000281191000000000000009999123100000010000000000000BRBEEFACNOR6104
012013101002BEES3       010BANESTES    ON  EJ       R$  000000000004900000000000500000000000049000000000004900000000000500000000000049000000000005000009000000000000069000000000000003416000000000000000009999123100000010000000000000BRBEESACNOR9245
012013101002BEES4       010BANESTES    PN  EJ       R$  000000000004600000000000460000000000046000000000004600000000000460000000000045000000000004600004000000000000000400000000000000018400000000000000009999123100000010000000000000BRBEESACNPR6170
012013101002BEMA3       010BEMATECH    ON      NM   R$  000000000077800000000007900000000000777000000000078400000000007800000000000779000000000078500550000000000000205200000000000161068200000000000000009999123100000010000000000000BRBEMAACNOR0114
012013101096BEMA3F      020BEMATECH    ON      NM   R$  000000000077100000000007710000000000771000000000077100000000007710000000000771000000000084800001000000000000000085000000000000065535000000000000009999123100000010000000000000BRBEMAACNOR0114
012013101002BGIP4       010BANESE      PN           R$  000000000499000000000049900000000004990000000000499000000000049900000000004801000000000499900001000000000000000100000000000000499000000000000000009999123100000010000000000000BRBGIPACNPR8179
012013101002BHGR3       010BHG         ON      NM   R$  000000000147800000000015000000000001463000000000147900000000014900000000001490000000000149200117000000000000102000000000000150914200000000000000009999123100000010000000000000BRBHGRACNOR9101
012013101096BHGR3F      020BHG         ON      NM   R$  000000000147300000000014730000000001473000000000147300000000014730000000001402000000000149800001000000000000000015000000000000022095000000000000009999123100000010000000000000BRBHGRACNOR9101
012013101002BICB4       010BICBANCO    PN      N1   R$  000000000053400000000005490000000000534000000000053800000000005480000000000548000000000054900134000000000000182400000000000098227400000000000000009999123100000010000000000000BRBICBACNPR7131
012013101096BICB4F      020BICBANCO    PN      N1   R$  000000000048600000000005410000000000486000000000051300000000005120000000000512000000000054100006000000000000000094000000000000048283000000000000009999123100000010000000000000BRBICBACNPR7131
012013101062BICB4T      030BICBANCO    PN      N1032R$  000000000053800000000005390000000000538000000000053800000000005390000000000000000000000000000002000000000000067700000000000036487524000000000000009999123100000010000000000000BRBICBACNPR7131
012013101062BICB4T      030BICBANCO    PN      N1060R$  000000000054100000000005420000000000541000000000054100000000005420000000000000000000000000000002000000000000015000000000000008120538000000000000009999123100000010000000000000BRBICBACNPR7131
012013101002BIOM3       010BIOMM       ON           R$  000000000095000000000009500000000000950000000000095000000000009500000000000900000000000095000003000000000000014000000000000013300000000000000000009999123100000010000000000000BRBIOMACNOR2101
012013101096BIOM3F      020BIOMM       ON           R$  000000000094900000000009490000000000949000000000094900000000009490000000000842000000000095900001000000000000000100000000000000094900000000000000009999123100000010000000000000BRBIOMACNOR2101
012013101002BISA3       010BROOKFIELD  ON      NM   R$  000000000016000000000001610000000000156000000000015800000000001580000000000158000000000015902305000000000005054800000000000802311700000000000000009999123100000010000000000000BRBISAACNOR8109
012013101096BISA3F      020BROOKFIELD  ON      NM   R$  000000000015900000000001630000000000156000000000015900000000001630000000000156000000000016300016000000000000000491000000000000078254000000000000009999123100000010000000000000BRBISAACNOR8109
012013101062BISA3T      030BROOKFIELD  ON      NM060R$  000000000016200000000001630000000000162000000000016200000000001630000000000000000000000000000002000000000000006200000000000001005491000000000000009999123100000010000000000000BRBISAACNOR8109
012013101012BJRC11      010FII JS RECIMCI  ER       R$  000000009100000000000910000000000091000000000009100000000000910000000000084055000000009100000001000000000000000001000000000000091000000000000000009999123100000010000000000000BRBJRCCTF007111
012013101002BMEB3       010MERC BRASIL ON           R$  000000000160000000000016000000000001600000000000160000000000016000000000000000000000000160000002000000000000000200000000000000320000000000000000009999123100000010000000000000BRBMEBACNOR8190
012013101012BMLC11B     010FII BMBRC LCCI  ER  MB   R$  000000001159000000000116000000000011500000000001154000000000116000000000011310000000001160000007000000000000000239000000000002758080000000000000009999123100000010000000000000BRBMLCCTF004120
012013101002BOAC34      010BANK AMERICADRN          R$  000000000306200000000030620000000003062000000000306200000000030620000000003065000000000313000001000000000000014500000000000044399000000000000000009999123100000010000000000000BRBOACBDR004112
012013101002BOBR4       010BOMBRIL     PN           R$  000000000062000000000006200000000000620000000000062000000000006200000000000620000000000066300002000000000000000500000000000000310000000000000000009999123100000010000000000000BRBOBRACNPR3127
012013101096BOBR4F      020BOMBRIL     PN           R$  000000000065000000000006500000000000650000000000065000000000006500000000000550000000000065000001000000000000000003000000000000001950000000000000009999123100000010000000000000BRBOBRACNPR3127
012013101002BOEI34      010BOEING      DRN          R$  000000002550300000000255030000000025503000000002550300000000255030000000025549000000002630600001000000000000004000000000000102012000000000000000009999123100000010000000000000BRBOEIBDR003106
012013101014BOVA11      010ISHARES BOVACI           R$  000000000519600000000051980000000005141000000000517300000000051900000000005170000000000519002074000000000000961970000000004976287040000000000000009999123100000010000000000000BRBOVACTF003101
012013101096BOVA11F     020ISHARES BOVACI           R$  000000000516300000000051800000000005090000000000513600000000051800000000005093000000000518000013000000000000000043000000000000220867000000000000009999123100000010000000000000BRBOVACTF003101
012013101012BPFF11      010FII ABSOLUTOCI  ER       R$  000000000821000000000084000000000008210000000000827500000000082400000000008240000000000834400033000000000000005342000000000044209057000000000000009999123100000010000000000000BRBPFFCTF002106
012013101002BPHA3       010BR PHARMA   ON      NM   R$  000000000084200000000008580000000000836000000000084900000000008500000000000850000000000085301035000000000000733800000000000623283300000000000000009999123100000010000000000000BRBPHAACNOR6102
012013101096BPHA3F      020BR PHARMA   ON      NM   R$  000000000084500000000008500000000000845000000000084600000000008500000000000836000000000085400009000000000000000197000000000000166754000000000000009999123100000010000000000000BRBPHAACNOR6102
012013101062BPHA3T      030BR PHARMA   ON      NM090R$  000000000086000000000008610000000000860000000000086000000000008610000000000000000000000000000002000000000000001000000000000000860143000000000000009999123100000010000000000000BRBPHAACNOR6102
012013101002BPNM4       010PANAMERICANOPN      N1   R$  000000000052600000000005300000000000520000000000052800000000005270000000000523000000000052700117000000000001192000000000000630288600000000000000009999123100000010000000000000BRBPNMACNPR6111
012013101096BPNM4F      020PANAMERICANOPN      N1   R$  000000000050300000000005030000000000503000000000050300000000005030000000000506000000000054000001000000000000000028000000000000014084000000000000009999123100000010000000000000BRBPNMACNPR6111
012013101062BPNM4T      030PANAMERICANOPN      N1090R$  000000000053300000000005340000000000533000000000053300000000005340000000000000000000000000000002000000000000007000000000000003737149000000000000009999123100000010000000000000BRBPNMACNPR6111
012013101062BPNM4T      030PANAMERICANOPN      N1120R$  000000000054500000000005460000000000545000000000054500000000005460000000000000000000000000000002000000000001000000000000000545470280000000000000009999123100000010000000000000BRBPNMACNPR6111
012013101002BRAP3       010BRADESPAR   ON      N1   R$  000000000194900000000019760000000001913000000000193500000000019280000000001928000000000193500043000000000000007800000000000015095600000000000000009999123100000010000000000000BRBRAPACNOR5124
012013101096BRAP3F      020BRADESPAR   ON      N1   R$  000000000193700000000019980000000001925000000000193900000000019980000000001918000000000199700012000000000000000097000000000000188126000000000000009999123100000010000000000000BRBRAPACNOR5124
012013101002BRAP4       010BRADESPAR   PN      N1   R$  000000000237500000000023750000000002335000000000235000000000023400000000002335000000000234004681000000000001440400000000003384948000000000000000009999123100000010000000000000BRBRAPACNPR2124
012013101096BRAP4F      020BRADESPAR   PN      N1   R$  000000000235600000000023710000000002331000000000235300000000023540000000002330000000000235200033000000000000000736000000000001732236000000000000009999123100000010000000000000BRBRAPACNPR2124
012013101062BRAP4T      030BRADESPAR   PN      N1030R$  000000000235700000000023580000000002357000000000235700000000023580000000000000000000000000000002000000000000000500000000000001178892000000000000009999123100000010000000000000BRBRAPACNPR2124
012013101078BRAPJ25     070BRAP        PN      N1000R$  000000000001100000000000110000000000011000000000001100000000000110000000000003000000000000000001000000000000001000000000000000011000000000000250002013102100000010000000000000BRBRAPACNPR2124
012013101014BRAX11      010ISHARES BRAXCI           R$  000000000423800000000042380000000004238000000000423800000000042380000000003000000000000000000001000000000000000040000000000000169520000000000000009999123100000010000000000000BRBRAXCTF002100
012013101012BRCR11      010FII BC FUND CI  ER       R$  000000001338000000000133900000000013176000000001323000000000132100000000013210000000001321102129000000000000038761000000000512820172000000000000009999123100000010000000000000BRBRCRCTF000134
012013101002BRFS3       010BRF SA      ON      NM   R$  000000000547600000000055390000000005371000000000545400000000055390000000005532000000000553910857000000000002896600000000015799714800000000000000009999123100000010000000000000BRBRFSACNOR8110
012013101096BRFS3F      020BRF SA      ON      NM   R$  000000000544500000000055290000000005380000000000545300000000055290000000005529000000000555000114000000000000003232000000000017640956000000000000009999123100000010000000000000BRBRFSACNOR8110
012013101062BRFS3T      030BRF SA      ON      NM018R$  000000000542900000000054300000000005429000000000542900000000054300000000000000000000000000000002000000000000025000000000000135742149000000000000009999123100000010000000000000BRBRFSACNOR8110
012013101062BRFS3T      030BRF SA      ON      NM032R$  000000000550100000000055020000000005501000000000550100000000055020000000000000000000000000000002000000000000000100000000000000550141000000000000009999123100000010000000000000BRBRFSACNOR8110
012013101062BRFS3T      030BRF SA      ON      NM064R$  000000000555900000000055600000000005559000000000555900000000055600000000000000000000000000000002000000000000001000000000000005559235000000000000009999123100000010000000000000BRBRFSACNOR8110
012013101062BRFS3T      030BRF SA      ON      NM090R$  000000000554000000000055410000000005540000000000554000000000055410000000000000000000000000000002000000000000040000000000000221622720000000000000009999123100000010000000000000BRBRFSACNOR8110
012013101078BRFSL55     070BRFS        ON      NM000R$  000000000027200000000002720000000000272000000000027200000000002720000000000000000000000000000001000000000000011500000000000003128000000000000550002013121600000010000000000000BRBRFSACNOR8110
012013101082BRFSM50     080BRFSE       ON      NM000R$  000000000008800000000000880000000000088000000000008800000000000880000000000000000000000000000002000000000000150000000000000013200000000000000500002014012000000010000000000000BRBRFSACNOR8110
012013101002BRIN3       010BR INSURANCEON      NM   R$  000000000197000000000020500000000001970000000000200200000000020100000000002010000000000201501081000000000000403200000000000807359900000000000000009999123100000010000000000000BRBRINACNOR3106
012013101096BRIN3F      020BR INSURANCEON      NM   R$  000000000198700000000019880000000001802000000000191200000000018020000000001802000000000203800007000000000000000365000000000000698000000000000000009999123100000010000000000000BRBRINACNOR3106
012013101002BRIV4       010ALFA INVEST PN           R$  000000000056900000000005750000000000569000000000056900000000005750000000000575000000000058000006000000000000020200000000000011512000000000000000009999123100000010000000000000BRBRIVACNPR3197
012013101002BRKM3       010BRASKEM     ON      N1   R$  000000000129000000000012900000000001290000000000129000000000012900000000001260000000000129000003000000000000001200000000000001548000000000000000009999123100000010000000000000BRBRKMACNOR1110
012013101096BRKM3F      020BRASKEM     ON      N1   R$  000000000126300000000012630000000001263000000000126300000000012630000000001260000000000126300001000000000000000005000000000000006315000000000000009999123100000010000000000000BRBRKMACNOR1110
012013101002BRKM5       010BRASKEM     PNA     N1   R$  000000000183900000000018390000000001806000000000182300000000018350000000001824000000000183504489000000000000917400000000001672677200000000000000009999123100000010000000000000BRBRKMACNPA4110
012013101096BRKM5F      020BRASKEM     PNA     N1   R$  000000000182100000000018350000000001796000000000181300000000018240000000001796000000000182400020000000000000000432000000000000783655000000000000009999123100000010000000000000BRBRKMACNPA4110
012013101062BRKM5T      030BRASKEM     PNA     N1060R$  000000000186000000000018610000000001860000000000186000000000018610000000000000000000000000000002000000000000002800000000000005208391000000000000009999123100000010000000000000BRBRKMACNPA4110
012013101002BRML3       010BR MALLS PARON      NM   R$  000000000202500000000020640000000002025000000000204700000000020500000000002039000000000205005780000000000002557300000000005234921500000000000000009999123100000010000000000000BRBRMLACNOR9105
012013101096BRML3F      020BR MALLS PARON      NM   R$  000000000202600000000020590000000002026000000000204600000000020380000000002020000000000204500041000000000000001259000000000002576241000000000000009999123100000010000000000000BRBRMLACNOR9105
012013101062BRML3T      030BR MALLS PARON      NM032R$  000000000205800000000020590000000002057000000000205800000000020580000000000000000000000000000004000000000000001400000000000002881450000000000000009999123100000010000000000000BRBRMLACNOR9105
012013101002BRPR3       010BR PROPERT  ON      NM   R$  000000000192100000000019460000000001890000000000191700000000018900000000001889000000000189009190000000000001831100000000003511244900000000000000009999123100000010000000000000BRBRPRACNOR9112
012013101096BRPR3F      020BR PROPERT  ON      NM   R$  000000000192100000000019840000000001901000000000192700000000019600000000001901000000000196000021000000000000000375000000000000723371000000000000009999123100000010000000000000BRBRPRACNOR9112
012013101062BRPR3T      030BR PROPERT  ON      NM032R$  000000000192000000000019210000000001920000000000192000000000019210000000000000000000000000000002000000000000000800000000000001536236000000000000009999123100000010000000000000BRBRPRACNOR9112
012013101096BRSR3F      020BANRISUL    ON      N1   R$  000000000130500000000013050000000001305000000000130500000000013050000000001305000000000146500001000000000000000003000000000000003915000000000000009999123100000010000000000000BRBRSRACNOR3131
012013101096BRSR5F      020BANRISUL    PNA     N1   R$  000000000140800000000014080000000001408000000000140800000000014080000000001400000000000170000001000000000000000010000000000000014080000000000000009999123100000010000000000000BRBRSRACNPA6135
012013101002BRSR6       010BANRISUL    PNB     N1   R$  000000000154500000000015530000000001501000000000152800000000015380000000001525000000000153805618000000000001396300000000002134866100000000000000009999123100000010000000000000BRBRSRACNPB4134
012013101096BRSR6F      020BANRISUL    PNB     N1   R$  000000000153000000000015650000000001505000000000152400000000015650000000001515000000000156500022000000000000000615000000000000937684000000000000009999123100000010000000000000BRBRSRACNPB4134
012013101002BSEV3       010BIOSEV      ON      NM   R$  000000000085000000000009300000000000850000000000090600000000009000000000000880000000000092500015000000000000008500000000000007706600000000000000009999123100000010000000000000BRBSEVACNOR3100
012013101096BSEV3F      020BIOSEV      ON      NM   R$  000000000087700000000008780000000000851000000000087600000000008510000000000851000000000092100003000000000000000106000000000000092958000000000000009999123100000010000000000000BRBSEVACNOR3100
012013101002BTOW3       010B2W DIGITAL ON      NM   R$  000000000150100000000015880000000001501000000000154500000000015800000000001573000000000158001257000000000000449800000000000695408200000000000000009999123100000010000000000000BRBTOWACNOR8105
012013101096BTOW3F      020B2W DIGITAL ON      NM   R$  000000000149000000000015800000000001490000000000153700000000015750000000001553000000000158000043000000000000001244000000000001913140000000000000009999123100000010000000000000BRBTOWACNOR8105
012013101062BTOW3T      030B2W DIGITAL ON      NM018R$  000000000155800000000015600000000001556000000000155800000000015570000000000000000000000000000016000000000000015000000000000023372991000000000000009999123100000010000000000000BRBTOWACNOR8105
012013101002BTTL3       010BATTISTELLA ON           R$  000000000009500000000000980000000000095000000000009500000000000980000000000085000000000009800005000000000000013700000000000001314900000000000000009999123100000010000000000000BRBTTLACNOR0105
012013101002BTTL4       010BATTISTELLA PN           R$  000000000009400000000000970000000000094000000000009600000000000970000000000095000000000009700010000000000000028300000000000002729200000000000000009999123100000010000000000000BRBTTLACNPR7105
012013101002BVMF3       010BMFBOVESPA  ON      NM   R$  000000000126300000000012750000000001244000000000125300000000012490000000001248000000000124915205000000000006542200000000008203296100000000000000009999123100000010000000000000BRBVMFACNOR3126
012013101096BVMF3F      020BMFBOVESPA  ON      NM   R$  000000000126100000000012740000000001242000000000125300000000012620000000001240000000000126200086000000000000002810000000000003521394000000000000009999123100000010000000000000BRBVMFACNOR3126
012013101078BVMFA12     070BVMF        ON      NM000R$  000000000012200000000001220000000000122000000000012200000000001220000000000000000000000000000002000000000000000900000000000000109800000000000120002014012000000010000000000000BRBVMFACNOR3126
012013101078BVMFA13     070BVMF        ON      NM000R$  000000000006500000000000650000000000065000000000006500000000000650000000000000000000000006500001000000000000003900000000000000253500000000000130002014012000000010000000000000BRBVMFACNOR3126
012013101078BVMFA14     070BVMF        ON      NM000R$  000000000002800000000000280000000000028000000000002800000000000280000000000000000000000000000002000000000000007000000000000000196000000000000140002014012000000010000000000000BRBVMFACNOR3126
012013101078BVMFA4      070BVMF        ON      NM000R$  000000000004600000000000460000000000046000000000004600000000000460000000000000000000000000000001000000000000004100000000000000188600000000000135402014012000000010000000000000BRBVMFACNOR3123
012013101078BVMFJ11     070BVMF        ON      NM000R$  000000000018400000000001840000000000160000000000017100000000001600000000000155000000000000000003000000000000002100000000000000360500000000000108502013102100000010000000000000BRBVMFACNOR3125
012013101078BVMFJ12     070BVMF  FM    ON      NM000R$  000000000009000000000000900000000000071000000000007700000000000740000000000072000000000009200074000000000000170800000000000013310700000000000118502013102100000010000000000000BRBVMFACNOR3125
012013101078BVMFJ13     070BVMF  FM    ON      NM000R$  000000000002000000000000220000000000010000000000001300000000000110000000000011000000000001300230000000000000673900000000000009270200000000000128502013102100000010000000000000BRBVMFACNOR3125
012013101078BVMFJ14     070BVMF  FM    ON      NM000R$  000000000000100000000000010000000000001000000000000100000000000010000000000000000000000000100062000000000000209800000000000000209800000000000138502013102100000010000000000000BRBVMFACNOR3125
012013101078BVMFJ42     070BVMF  FM    ON      NM000R$  000000000004300000000000460000000000033000000000003900000000000370000000000035000000000123500023000000000000069800000000000002747500000000000123502013102100000010000000000000BRBVMFACNOR3125
012013101078BVMFJ43     070BVMF  FM    ON      NM000R$  000000000000500000000000050000000000003000000000000400000000000040000000000003000000000000500039000000000000147200000000000000611300000000000133502013102100000010000000000000BRBVMFACNOR3125
012013101078BVMFK11     070BVMF        ON      NM000R$  000000000014600000000001750000000000146000000000016500000000001750000000000146000000000000000008000000000000001800000000000000297400000000000108502013111800000010000000000000BRBVMFACNOR3125
012013101078BVMFK12     070BVMF  FM    ON      NM000R$  000000000011000000000001100000000000093000000000009700000000000950000000000091000000000010000010000000000000008800000000000000861100000000000118502013111800000010000000000000BRBVMFACNOR3125
012013101078BVMFK13     070BVMF  FM    ON      NM000R$  000000000004600000000000460000000000032000000000003400000000000320000000000032000000000004000054000000000000092900000000000003233700000000000128502013111800000010000000000000BRBVMFACNOR3125
012013101078BVMFK14     070BVMF  FM    ON      NM000R$  000000000000900000000000100000000000007000000000000800000000000070000000000007000000000000800013000000000000021000000000000000179600000000000138502013111800000010000000000000BRBVMFACNOR3125
012013101078BVMFK42     070BVMF  FM    ON      NM000R$  000000000005900000000000590000000000051000000000005500000000000510000000000000000000000000000002000000000000007200000000000000396800000000000125002013111800000010000000000000BRBVMFACNOR3126
012013101078BVMFK43     070BVMF  FM    ON      NM000R$  000000000001600000000000160000000000013000000000001300000000000130000000000007000000000001700002000000000000005100000000000000071100000000000135002013111800000010000000000000BRBVMFACNOR3126
012013101078BVMFL12     070BVMF        ON      NM000R$  000000000013000000000001340000000000130000000000013100000000001340000000000000000000000015800005000000000000012000000000000001580000000000000115402013121600000010000000000000BRBVMFACNOR3123
012013101078BVMFL13     070BVMF        ON      NM000R$  000000000005100000000000510000000000051000000000005100000000000510000000000000000000000000000005000000000000015600000000000000795600000000000128502013121600000010000000000000BRBVMFACNOR3125
012013101078BVMFL14     070BVMF        ON      NM000R$  000000000001700000000000200000000000017000000000001800000000000200000000000000000000000000000003000000000000010000000000000000185000000000000137402013121600000010000000000000BRBVMFACNOR3124
012013101082BVMFV11     080BVMFE       ON      NM000R$  000000000000100000000000010000000000001000000000000100000000000010000000000000000000000001100006000000000000011000000000000000011000000000000108502013102100000010000000000000BRBVMFACNOR3125
012013101082BVMFV12     080BVMFE FM    ON      NM000R$  000000000000600000000000080000000000006000000000000600000000000070000000000005000000000000800032000000000000070300000000000000438100000000000118502013102100000010000000000000BRBVMFACNOR3125
012013101082BVMFV13     080BVMFE FM    ON      NM000R$  000000000004200000000000470000000000036000000000004000000000000400000000000001000000000008200025000000000000054800000000000002222400000000000128502013102100000010000000000000BRBVMFACNOR3125
012013101082BVMFV41     080BVMFE FM    ON      NM000R$  000000000000200000000000020000000000002000000000000200000000000020000000000000000000000000000015000000000000034600000000000000069200000000000113502013102100000010000000000000BRBVMFACNOR3125
012013101082BVMFV42     080BVMFE FM    ON      NM000R$  000000000001900000000000190000000000019000000000001900000000000190000000000001000000000002900001000000000000003700000000000000070300000000000123502013102100000010000000000000BRBVMFACNOR3125
012013101082BVMFV43     080BVMFE       ON      NM000R$  000000000008100000000000810000000000081000000000008100000000000810000000000000000000000010500001000000000000004000000000000000324000000000000133502013102100000010000000000000BRBVMFACNOR3125
012013101082BVMFW12     080BVMFE FM    ON      NM000R$  000000000002200000000000230000000000021000000000002200000000000230000000000000000000000000000015000000000000031700000000000000705100000000000118502013111800000010000000000000BRBVMFACNOR3125
012013101082BVMFW13     080BVMFE FM    ON      NM000R$  000000000006000000000000610000000000059000000000006000000000000610000000000000000000000025000006000000000000021200000000000001275300000000000128502013111800000010000000000000BRBVMFACNOR3125
012013101082BVMFW42     080BVMFE FM    ON      NM000R$  000000000004300000000000450000000000041000000000004400000000000450000000000000000000000000000033000000000000074600000000000003289800000000000125002013111800000010000000000000BRBVMFACNOR3126
012013101002CALI4       010CONST A LINDPN           R$  000000002500000000000250000000000025000000000002500000000000250000000000005000000000004900000001000000000000000100000000000002500000000000000000009999123100000010000000000000BRCALIACNPR8131
012013101002CAMB4       010CAMBUCI     PN           R$  000000000018500000000001850000000000185000000000018500000000001850000000000184000000000019000004000000000000003300000000000000610500000000000000009999123100000010000000000000BRCAMBACNPR1117
012013101002CARD3       010CSU CARDSYSTON      NM   R$  000000000030800000000003120000000000305000000000030700000000003090000000000302000000000030900013000000000000004500000000000001384600000000000000009999123100000010000000000000BRCARDACNOR9105
012013101096CARD3F      020CSU CARDSYSTON      NM   R$  000000000030100000000003070000000000301000000000030200000000003070000000000301000000000034000002000000000000000121000000000000036607000000000000009999123100000010000000000000BRCARDACNOR9105
012013101002CBEE3       010AMPLA ENERG ON *         R$  000000000012800000000001290000000000128000000000012800000000001290000000000122000000000013000002000000000005500000000000000000705500000000000000009999123100010000000000000000BRCBEEACNOR3149
012013101062CBEE3T      030AMPLA ENERG ON *      060R$  000000000012900000000001300000000000129000000000012900000000001300000000000000000000000000000002000000000004000000000000000000519014000000000000009999123100010000000000000000BRCBEEACNOR3149
012013101002CBMA4       010COBRASMA    PN           R$  000000000000500000000000050000000000005000000000000500000000000050000000000004000000000000500016000000000000340000000000000001700000000000000000009999123100000010000000000000BRCBMAACNPR1124
012013101096CBMA4F      020COBRASMA    PN           R$  000000000000500000000000050000000000005000000000000500000000000050000000000004000000000000500002000000000000001000000000000000005000000000000000009999123100000010000000000000BRCBMAACNPR1124
012013101008CCHI3       010CHIARELLI   ON           R$  000000000002500000000000250000000000020000000000002100000000000220000000000021000000000002200085000000000001360000000000000029820000000000000000009999123100000010000000000000BRCCHIACNOR5123
012013101096CCHI3F      020CHIARELLI   ON           R$  000000000002000000000000210000000000020000000000002000000000000210000000000020000000000002500006000000000000011879000000000000244580000000000000009999123100000010000000000000BRCCHIACNOR5123
012013101008CCHI4       010CHIARELLI   PN           R$  000000000001600000000000160000000000014000000000001500000000000150000000000014000000000001500017000000000000230000000000000003470000000000000000009999123100000010000000000000BRCCHIACNPR2122
012013101096CCHI4F      020CHIARELLI   PN           R$  000000000001600000000000160000000000016000000000001600000000000160000000000013000000000001600001000000000000000300000000000000004800000000000000009999123100000010000000000000BRCCHIACNPR2122
012013101002CCPR3       010CYRE COM-CCPON      NM   R$  000000000208700000000021390000000002087000000000210200000000021100000000002100000000000214800016000000000000006000000000000012612400000000000000009999123100000010000000000000BRCCPRACNOR9107
012013101002CCRO3       010CCR SA      ON      NM   R$  000000000181000000000018200000000001784000000000180200000000018090000000001808000000000180910331000000000003455600000000006229861300000000000000009999123100000010000000000000BRCCROACNOR2123
012013101096CCRO3F      020CCR SA      ON      NM   R$  000000000179000000000018200000000001790000000000180500000000018200000000001803000000000182000065000000000000001690000000000003052133000000000000009999123100000010000000000000BRCCROACNOR2123
012013101062CCRO3T      030CCR SA      ON      NM032R$  000000000181800000000018190000000001818000000000181800000000018190000000000000000000000000000002000000000000001600000000000002909660000000000000009999123100000010000000000000BRCCROACNOR2123
012013101002CCXC3       010CCX CARVAO  ON      NM   R$  000000000012800000000001310000000000117000000000012300000000001190000000000119000000000012000807000000000003338900000000000411054400000000000000009999123100000010000000000000BRCCXCACNOR5100
012013101096CCXC3F      020CCX CARVAO  ON      NM   R$  000000000012400000000001240000000000118000000000012100000000001180000000000118000000000013200008000000000000000302000000000000036772000000000000009999123100000010000000000000BRCCXCACNOR5100
012013101062CCXC3T      030CCX CARVAO  ON      NM018R$  000000000012500000000001260000000000124000000000012500000000001250000000000000000000000000000004000000000000100000000000000012516070000000000000009999123100000010000000000000BRCCXCACNOR5100
012013101002CEBR5       010CEB         PNA          R$  000000000269500000000026950000000002695000000000269500000000026950000000001700000000000260000001000000000000000100000000000000269500000000000000009999123100000010000000000000BRCEBRACNPA8113
012013101008CELP7       010CELPA       PNC          R$  000000000006000000000000600000000000060000000000006000000000000600000000000050000000000006000001000000000000005000000000000000300000000000000000009999123100000010000000000000BRCELPACNPC7114
012013101012CEOC11B     010FII CEO CCP CI  ER  MB   R$  000000000861500000000088500000000008615000000000873500000000088370000000008701000000000880000021000000000000002090000000000018257578000000000000009999123100000010000000000000BRCEOCCTF003111
012013101002CESP3       010CESP        ON      N1   R$  000000000200000000000020000000000002000000000000200000000000020000000000001950000000000199900001000000000000000100000000000000200000000000000000009999123100000010000000000000BRCESPACNOR3160
012013101002CESP5       010CESP        PNA     N1   R$  000000000221000000000022300000000002210000000000222000000000022300000000002150000000000223400002000000000000000200000000000000444000000000000000009999123100000010000000000000BRCESPACNPA6108
012013101002CESP6       010CESP        PNB     N1   R$  000000000221600000000022730000000002207000000000223100000000022300000000002223000000000223003019000000000000512500000000001143440900000000000000009999123100000010000000000000BRCESPACNPB4119
012013101096CESP6F      020CESP        PNB     N1   R$  000000000221500000000022750000000002175000000000223500000000021800000000002180000000000227500024000000000000000667000000000001491240000000000000009999123100000010000000000000BRCESPACNPB4119
012013101002CGAS3       010COMGAS      ON           R$  000000000535000000000054000000000005350000000000539000000000054000000000005350000000000545000003000000000000002600000000000014015000000000000000009999123100000010000000000000BRCGASACNOR0132
012013101002CGAS5       010COMGAS      PNA          R$  000000000582000000000059800000000005820000000000592600000000059290000000005925000000000592900334000000000000144300000000000855173700000000000000009999123100000010000000000000BRCGASACNPA3129
012013101096CGAS5F      020COMGAS      PNA          R$  000000000577200000000064880000000005772000000000598300000000059850000000005930000000000600000016000000000000000520000000000003111387000000000000009999123100000010000000000000BRCGASACNPA3129
012013101062CGAS5T      030COMGAS      PNA       090R$  000000000600600000000060070000000006006000000000600600000000060070000000000000000000000000000002000000000000010000000000000060060330000000000000009999123100000010000000000000BRCGASACNPA3129
012013101002CGRA3       010GRAZZIOTIN  ON           R$  000000000166900000000016700000000001660000000000166100000000016700000000001666000000000167000008000000000000006500000000000010802300000000000000009999123100000010000000000000BRCGRAACNOR2061
012013101002CGRA4       010GRAZZIOTIN  PN           R$  000000000174500000000017700000000001745000000000176600000000017670000000001753000000000176700015000000000000006700000000000011837800000000000000009999123100000010000000000000BRCGRAACNPR9061
012013101096CGRA4F      020GRAZZIOTIN  PN           R$  000000000177000000000017700000000001770000000000177000000000017700000000001750000000000180000001000000000000000030000000000000053100000000000000009999123100000010000000000000BRCGRAACNPR9061
012013101002CHVX34      010CHEVRON     DRN          R$  000000002507200000000250720000000025072000000002507200000000250720000000025098000000002610100001000000000000001900000000000047636800000000000000009999123100000010000000000000BRCHVXBDR008109
012013101002CIEL3       010CIELO       ON      NM   R$  000000000634900000000063490000000006201000000000624200000000062800000000006275000000000628007347000000000001722400000000010752291600000000000000009999123100000010000000000000BRCIELACNOR3112
012013101096CIEL3F      020CIELO       ON      NM   R$  000000000632200000000063470000000006200000000000624300000000062480000000006238000000000624800151000000000000003738000000000023338486000000000000009999123100000010000000000000BRCIELACNOR3112
012013101062CIEL3T      030CIELO       ON      NM032R$  000000000632200000000063230000000006322000000000632200000000063230000000000000000000000000000004000000000000000200000000000001264512000000000000009999123100000010000000000000BRCIELACNOR3112
012013101002CLSC4       010CELESC      PN      N2   R$  000000000189000000000018900000000001862000000000187600000000018620000000001862000000000189900027000000000000013500000000000025339100000000000000009999123100000010000000000000BRCLSCACNPR3107
012013101096CLSC4F      020CELESC      PN      N2   R$  000000000178600000000018100000000001786000000000179600000000018000000000001762000000000185000004000000000000000028000000000000050304000000000000009999123100000010000000000000BRCLSCACNPR3107
012013101002CMCS34      010COMCAST     DRN          R$  000000000980300000000098030000000009803000000000980300000000098030000000009795000000000997000001000000000000003200000000000031369600000000000000009999123100000010000000000000BRCMCSBDR008107
012013101002CMIG3       010CEMIG       ON      N1   R$  000000000193500000000019350000000001923000000000193000000000019320000000001932000000000193400086000000000000015200000000000029342300000000000000009999123100000010000000000000BRCMIGACNOR6208
012013101096CMIG3F      020CEMIG       ON      N1   R$  000000000193500000000019440000000001925000000000193200000000019440000000001931000000000194500013000000000000000309000000000000597040000000000000009999123100000010000000000000BRCMIGACNOR6208
012013101002CMIG4       010CEMIG       PN      N1   R$  000000000196100000000019790000000001953000000000196900000000019790000000001971000000000197907649000000000002406000000000004738606900000000000000009999123100000010000000000000BRCMIGACNPR3208
012013101096CMIG4F      020CEMIG       PN      N1   R$  000000000195400000000019790000000001954000000000196700000000019610000000001961000000000197900137000000000000004090000000000008048575000000000000009999123100000010000000000000BRCMIGACNPR3208
012013101062CMIG4T      030CEMIG       PN      N1018R$  000000000198600000000019870000000001986000000000198600000000019870000000000000000000000000000002000000000000001000000000000001986703000000000000009999123100000010000000000000BRCMIGACNPR3208
012013101062CMIG4T      030CEMIG       PN      N1032R$  000000000198400000000019850000000001976000000000198200000000019770000000000000000000000000000004000000000000001400000000000002775264000000000000009999123100000010000000000000BRCMIGACNPR3208
012013101062CMIG4T      030CEMIG       PN      N1060R$  000000000199300000000019940000000001993000000000199300000000019940000000000000000000000000000002000000000000001000000000000001993751000000000000009999123100000010000000000000BRCMIGACNPR3208
012013101062CMIG4T      030CEMIG       PN      N1090R$  000000000201100000000020120000000002011000000000201100000000020120000000000000000000000000000002000000000000002000000000000004022740000000000000009999123100000010000000000000BRCMIGACNPR3208
012013101078CMIGK20     070CMIG        PN      N1000R$  000000000006000000000000600000000000060000000000006000000000000600000000000000000000000007000001000000000000000100000000000000006000000000000200002013111800000010000000000000BRCMIGACNPR3208
012013101012CNES11B     010FII CENESP  CI      MB   R$  000000001255000000000125500000000012500000000001251200000000125100000000012510000000001260000010000000000000000696000000000008708965000000000000009999123100000010000000000000BRCNESCTF001126
012013101002COCA34      010COCA COLA   DRN          R$  000000000816700000000081990000000008167000000000818500000000081990000000008144000000000847000002000000000000002800000000000022918800000000000000009999123100000010000000000000BRCOCABDR002109
012013101002COCE3       010COELCE      ON           R$  000000000402400000000040240000000004024000000000402400000000040240000000003982000000000402400002000000000000000300000000000001207200000000000000009999123100000010000000000000BRCOCEACNOR0132
012013101002COCE5       010COELCE      PNA          R$  000000000385000000000039000000000003850000000000388600000000038890000000003887000000000389000049000000000000012200000000000047411200000000000000009999123100000010000000000000BRCOCEACNPA3133
012013101096COCE5F      020COELCE      PNA          R$  000000000386000000000039360000000003860000000000388200000000039360000000003890000000000393600008000000000000000189000000000000733880000000000000009999123100000010000000000000BRCOCEACNPA3133
012013101002CPFE3       010CPFL ENERGIAON      NM   R$  000000000193500000000019830000000001934000000000196700000000019800000000001980000000000198105781000000000002216700000000004360488500000000000000009999123100000010000000000000BRCPFEACNOR0122
012013101096CPFE3F      020CPFL ENERGIAON      NM   R$  000000000193000000000019890000000001930000000000195800000000019890000000001976000000000199000045000000000000001201000000000002353695000000000000009999123100000010000000000000BRCPFEACNOR0122
012013101062CPFE3T      030CPFL ENERGIAON      NM060R$  000000000200900000000020100000000002009000000000200900000000020100000000000000000000000000000002000000000000002000000000000004018055000000000000009999123100000010000000000000BRCPFEACNOR0122
012013101082CPFEV23     080CPFEE       ON      NM000R$  000000000031300000000003210000000000313000000000031700000000003210000000000000000000000000000002000000000000160000000000000050720000000000000230002013102100000010000000000000BRCPFEACNOR0122
012013101002CPLE3       010COPEL       ON      N1   R$  000000000224000000000022600000000002207000000000223200000000022400000000002220000000000224000195000000000000046500000000000103832500000000000000009999123100000010000000000000BRCPLEACNOR8128
012013101096CPLE3F      020COPEL       ON      N1   R$  000000000225700000000022570000000002040000000000218900000000022200000000002200000000000222000006000000000000000107000000000000234278000000000000009999123100000010000000000000BRCPLEACNOR8128
012013101002CPLE6       010COPEL       PNB     N1   R$  000000000302000000000030470000000003016000000000302800000000030280000000003026000000000302802640000000000001098600000000003326676400000000000000009999123100000010000000000000BRCPLEACNPB9125
012013101096CPLE6F      020COPEL       PNB     N1   R$  000000000303500000000031440000000002970000000000302700000000029700000000002970000000000314500027000000000000000665000000000002013363000000000000009999123100000010000000000000BRCPLEACNPB9125
012013101062CPLE6T      030COPEL       PNB     N1032R$  000000000304400000000030450000000003044000000000304400000000030450000000000000000000000000000002000000000000000400000000000001217866000000000000009999123100000010000000000000BRCPLEACNPB9125
012013101002CPRE3       010CPFL RENOVAVON      NM   R$  000000000136900000000013750000000001361000000000136900000000013750000000001363000000000137500007000000000000002400000000000003286400000000000000009999123100000010000000000000BRCPREACNOR5100
012013101096CPRE3F      020CPFL RENOVAVON      NM   R$  000000000137900000000013790000000001379000000000137900000000013790000000001210000000000137900001000000000000000077000000000000106183000000000000009999123100000010000000000000BRCPREACNOR5100
012013101002CRDE3       010CR2         ON      NM   R$  000000000039000000000003920000000000390000000000039000000000003900000000000380000000000039000004000000000000005200000000000002028200000000000000009999123100000010000000000000BRCRDEACNOR1108
012013101002CREM3       010CREMER      ON      NM   R$  000000000144600000000014670000000001445000000000145300000000014510000000001451000000000149000065000000000000011400000000000016566200000000000000009999123100000010000000000000BRCREMACNOR2167
012013101096CREM3F      020CREMER      ON      NM   R$  000000000140000000000014000000000001400000000000140000000000014000000000001401000000000151900001000000000000000080000000000000112000000000000000009999123100000010000000000000BRCREMACNOR2167
012013101002CRIV4       010ALFA FINANC PN           R$  000000000043600000000004500000000000431000000000043800000000004470000000000430000000000044700017000000000000006600000000000002893000000000000000009999123100000010000000000000BRCRIVACNPR1190
012013101002CRUZ3       010SOUZA CRUZ  ON           R$  000000000258200000000025940000000002533000000000256100000000025420000000002537000000000254203551000000000000712700000000001825728000000000000000009999123100000010000000000000BRCRUZACNOR0248
012013101096CRUZ3F      020SOUZA CRUZ  ON           R$  000000000255100000000025950000000002535000000000256200000000025450000000002539000000000257800048000000000000001365000000000003497203000000000000009999123100000010000000000000BRCRUZACNOR0248
012013101062CRUZ3T      030SOUZA CRUZ  ON        030R$  000000000259400000000025950000000002594000000000259400000000025950000000000000000000000000000002000000000000001000000000000002594570000000000000009999123100000010000000000000BRCRUZACNOR0248
012013101002CSAN3       010COSAN       ON      NM   R$  000000000447900000000044800000000004287000000000433800000000043530000000004337000000000435307100000000000002101000000000009114371200000000000000009999123100000010000000000000BRCSANACNOR6108
012013101096CSAN3F      020COSAN       ON      NM   R$  000000000445100000000044740000000004300000000000435500000000043320000000004332000000000447100103000000000000003097000000000013486841000000000000009999123100000010000000000000BRCSANACNOR6108
012013101062CSAN3T      030COSAN       ON      NM018R$  000000000437400000000044000000000004346000000000437300000000043470000000000000000000000000000008000000000000012000000000000052476923000000000000009999123100000010000000000000BRCSANACNOR6108
012013101078CSANJ44     070CSAN        ON      NM000R$  000000000004900000000000490000000000049000000000004900000000000490000000000000000000000000000003000000000000001800000000000000088200000000000440002013102100000010000000000000BRCSANACNOR6108
012013101078CSANL45     070CSAN        ON      NM000R$  000000000016000000000001600000000000160000000000016000000000001600000000000000000000000000000002000000000000004800000000000000768000000000000450002013121600000010000000000000BRCSANACNOR6108
012013101002CSCO34      010CISCO       DRN ED       R$  000000000495600000000050040000000004956000000000497200000000050040000000004975000000000505500002000000000000012800000000000063652800000000000000009999123100000010000000000000BRCSCOBDR004111
012013101002CSMG3       010COPASA      ON      NM   R$  000000000353600000000036440000000003500000000000357300000000035000000000003500000000000350901318000000000000305000000000001089900900000000000000009999123100000010000000000000BRCSMGACNOR5128
012013101096CSMG3F      020COPASA      ON      NM   R$  000000000351500000000036000000000003515000000000356600000000035730000000003551000000000363900013000000000000000370000000000001319687000000000000009999123100000010000000000000BRCSMGACNOR5128
012013101078CSMGJ31     070CSMG        ON      NM000R$  000000000059900000000005990000000000599000000000059900000000005990000000000000000000000000000001000000000000020000000000000011980000000000000307802013102100000010000000000000BRCSMGACNOR5127
012013101002CSNA3       010SID NACIONALON           R$  000000000100800000000010390000000000995000000000102300000000010390000000001035000000000103918435000000000009776100000000010007622000000000000000009999123100000010000000000000BRCSNAACNOR6243
012013101096CSNA3F      020SID NACIONALON           R$  000000000099800000000010390000000000998000000000102400000000010310000000001030000000000103300103000000000000003042000000000003119123000000000000009999123100000010000000000000BRCSNAACNOR6243
012013101062CSNA3T      030SID NACIONALON        032R$  000000000101000000000010110000000001010000000000101000000000010110000000000000000000000000000002000000000000002500000000000002526306000000000000009999123100000010000000000000BRCSNAACNOR6243
012013101062CSNA3T      030SID NACIONALON        060R$  000000000101700000000010340000000001017000000000102800000000010320000000000000000000000000000006000000000000009000000000000009252050000000000000009999123100000010000000000000BRCSNAACNOR6243
012013101062CSNA3T      030SID NACIONALON        120R$  000000000106300000000010640000000001063000000000106300000000010640000000000000000000000000000002000000000000001400000000000001488712000000000000009999123100000010000000000000BRCSNAACNOR6243
012013101078CSNAA9      070CSNA        ON        000R$  000000000019200000000001920000000000192000000000019200000000001920000000000000000000000000000001000000000000000300000000000000057600000000000088002014012000000010000000000000BRCSNAACNOR6242
012013101078CSNAC2      070CSNA        ON        000R$  000000000025000000000002500000000000250000000000025000000000002500000000000150000000000029000002000000000000000300000000000000075000000000000098002015031600000010000000000000BRCSNAACNOR6241
012013101078CSNAJ10     070CSNA  FM    ON        000R$  000000000002900000000000500000000000029000000000004100000000000480000000000000000000000005000037000000000000102700000000000004253600000000000100002013102100000010000000000000BRCSNAACNOR6243
012013101078CSNAJ11     070CSNA        ON        000R$  000000000000400000000000100000000000004000000000000400000000000100000000000002000000000000900003000000000000011100000000000000045000000000000110002013102100000010000000000000BRCSNAACNOR6243
012013101078CSNAJ20     070CSNA  FM    ON        000R$  000000000002200000000000370000000000022000000000003200000000000330000000000000000000000000000013000000000000036900000000000001183800000000000102002013102100000010000000000000BRCSNAACNOR6243
012013101078CSNAJ40     070CSNA  FM    ON        000R$  000000000002500000000000250000000000019000000000002300000000000190000000000000000000000000000007000000000000035000000000000000827000000000000104002013102100000010000000000000BRCSNAACNOR6243
012013101078CSNAJ60     070CSNA        ON        000R$  000000000001000000000000170000000000009000000000001100000000000140000000000000000000000001400006000000000000018000000000000000213400000000000106002013102100000010000000000000BRCSNAACNOR6243
012013101078CSNAJ72     070CSNA        ON        000R$  000000000033700000000003370000000000337000000000033700000000003370000000000000000000000000000001000000000000001000000000000000337000000000000070002013102100000010000000000000BRCSNAACNOR6242
012013101078CSNAJ9      070CSNA        ON        000R$  000000000013700000000001580000000000137000000000015000000000001550000000000000000000000017300056000000000000049500000000000007444500000000000088002013102100000010000000000000BRCSNAACNOR6242
012013101078CSNAJ92     070CSNA        ON        000R$  000000000011800000000001180000000000117000000000011700000000001170000000000000000000000011900002000000000000000200000000000000023500000000000092002013102100000010000000000000BRCSNAACNOR6243
012013101078CSNAJ93     070CSNAE       ON        000R$  000000000010900000000001090000000000109000000000010900000000001090000000000000000000000000000001000000000000000900000000000000098100000000000093002013102100000010000000000000BRCSNAACNOR6243
012013101078CSNAJ94     070CSNA        ON        000R$  000000000008300000000001010000000000083000000000008700000000000860000000000000000000000000000007000000000000007400000000000000650400000000000094002013102100000010000000000000BRCSNAACNOR6243
012013101078CSNAJ96     070CSNA  FM    ON        000R$  000000000005500000000000850000000000055000000000007500000000000790000000000000000000000000000013000000000000023800000000000001795500000000000096002013102100000010000000000000BRCSNAACNOR6243
012013101078CSNAJ98     070CSNA  FM    ON        000R$  000000000003900000000000650000000000038000000000005200000000000600000000000003000000000000000014000000000000042400000000000002205500000000000098002013102100000010000000000000BRCSNAACNOR6243
012013101078CSNAK1      070CSNA  FM    ON        000R$  000000000007500000000000750000000000069000000000006900000000000690000000000000000000000008000005000000000000012300000000000000858000000000000100002013111800000010000000000000BRCSNAACNOR6243
012013101078CSNAK10     070CSNA  FM    ON        000R$  000000000007500000000000860000000000075000000000007800000000000860000000000000000000000000000010000000000001013500000000000079126300000000000098002013111800000010000000000000BRCSNAACNOR6242
012013101078CSNAK20     070CSNA  FM    ON        000R$  000000000004400000000000450000000000044000000000004400000000000450000000000000000000000000000003000000000000007500000000000000333500000000000102002013111800000010000000000000BRCSNAACNOR6243
012013101078CSNAK40     070CSNA  FM    ON        000R$  000000000003600000000000540000000000036000000000004500000000000520000000000000000000000000000010000000000000020500000000000000938000000000000104002013111800000010000000000000BRCSNAACNOR6243
012013101078CSNAK60     070CSNA        ON        000R$  000000000003900000000000400000000000039000000000003900000000000400000000000000000000000000000003000000000000001800000000000000071700000000000106002013111800000010000000000000BRCSNAACNOR6243
012013101078CSNAK88     070CSNA        ON        000R$  000000000016300000000001630000000000163000000000016300000000001630000000000000000000000000000001000000000000000300000000000000048900000000000088002013111800000010000000000000BRCSNAACNOR6243
012013101078CSNAK92     070CSNA        ON        000R$  000000000012800000000001340000000000122000000000012800000000001340000000000000000000000000000003000000000000002100000000000000268800000000000092002013111800000010000000000000BRCSNAACNOR6243
012013101078CSNAK94     070CSNA        ON        000R$  000000000010400000000001040000000000104000000000010400000000001040000000000000000000000000000001000000000000003000000000000000312000000000000094002013111800000010000000000000BRCSNAACNOR6243
012013101078CSNAK96     070CSNA  FM    ON        000R$  000000000010000000000001010000000000100000000000010000000000001010000000000000000000000000000003000000000000003800000000000000380300000000000096002013111800000010000000000000BRCSNAACNOR6243
012013101078CSNAL39     070CSNA        ON        000R$  000000000015300000000001530000000000153000000000015300000000001530000000000000000000000000000002000000000000002000000000000000306000000000000089702013121600000010000000000000BRCSNAACNOR6241
012013101082CSNAV10     080CSNAE FM    ON        000R$  000000000002700000000000270000000000013000000000001500000000000140000000000013000000000001700052000000000000057200000000000000910500000000000100002013102100000010000000000000BRCSNAACNOR6243
012013101082CSNAV20     080CSNAE       ON        000R$  000000000003500000000000350000000000025000000000002900000000000250000000000016000000000003200010000000000000030800000000000000896400000000000102002013102100000010000000000000BRCSNAACNOR6243
012013101082CSNAV40     080CSNAE       ON        000R$  000000000003300000000000360000000000031000000000003200000000000340000000000000000000000000000008000000000000015300000000000000501700000000000104002013102100000010000000000000BRCSNAACNOR6243
012013101082CSNAV92     080CSNAE       ON        000R$  000000000000400000000000040000000000004000000000000400000000000040000000000000000000000000000019000000000000050000000000000000200000000000000092002013102100000010000000000000BRCSNAACNOR6243
012013101082CSNAV94     080CSNAE FM    ON        000R$  000000000000400000000000060000000000004000000000000500000000000050000000000000000000000000000005000000000000020000000000000000104700000000000094002013102100000010000000000000BRCSNAACNOR6243
012013101082CSNAV98     080CSNAE FM    ON        000R$  000000000001500000000000150000000000015000000000001500000000000150000000000000000000000000000001000000000000001000000000000000015000000000000098002013102100000010000000000000BRCSNAACNOR6243
012013101082CSNAW1      080CSNAE FM    ON        000R$  000000000004900000000000490000000000036000000000003800000000000360000000000000000000000000000016000000000001025900000000000039602000000000000100002013111800000010000000000000BRCSNAACNOR6243
012013101082CSNAW10     080CSNAE FM    ON        000R$  000000000004000000000000400000000000028000000000003300000000000320000000000029000000000003700064000000000000065800000000000002201800000000000098002013111800000010000000000000BRCSNAACNOR6242
012013101082CSNAW8      080CSNAE       ON        000R$  000000000000400000000000040000000000004000000000000400000000000040000000000003000000000000900001000000000000001000000000000000004000000000000078002013111800000010000000000000BRCSNAACNOR6242
012013101082CSNAW9      080CSNAE       ON        000R$  000000000001700000000000170000000000012000000000001200000000000130000000000012000000000002200016000000000001008800000000000012782500000000000090002013111800000010000000000000BRCSNAACNOR6243
012013101082CSNAW94     080CSNAE FM    ON        000R$  000000000001900000000000200000000000019000000000001900000000000200000000000000000000000000000003000000000000005500000000000000108000000000000094002013111800000010000000000000BRCSNAACNOR6243
012013101082CSNAW96     080CSNAE FM    ON        000R$  000000000003300000000000330000000000023000000000003100000000000230000000000000000000000000000009000000000000014000000000000000446000000000000096002013111800000010000000000000BRCSNAACNOR6243
012013101082CSNAX9      080CSNAE       ON        000R$  000000000001500000000000150000000000015000000000001500000000000150000000000011000000000001900001000000000000000500000000000000007500000000000084702013121600000010000000000000BRCSNAACNOR6241
012013101002CTAX11      010CONTAX      UNT     N2   R$  000000000188000000000018810000000001846000000000186600000000018750000000001870000000000190000124000000000000044800000000000083630400000000000000009999123100000010000000000000BRCTAXCDAM19100
012013101002CTAX3       010CONTAX      ON      N2   R$  000000000038100000000004200000000000380000000000039100000000003900000000000365000000000040100027000000000000005400000000000002112600000000000000009999123100000010000000000000BRCTAXACNOR3113
012013101002CTAX4       010CONTAX      PN      N2   R$  000000000036000000000003700000000000349000000000035500000000003490000000000349000000000036400134000000000000042400000000000015085200000000000000009999123100000010000000000000BRCTAXACNPR0114
012013101096CTAX4F      020CONTAX      PN      N2   R$  000000000036000000000003700000000000360000000000036600000000003670000000000343000000000043300003000000000000000072000000000000026411000000000000009999123100000010000000000000BRCTAXACNPR0114
012013101002CTGP34      010CITIGROUP   DRN          R$  000000001063400000000106340000000010634000000001063400000000106340000000010670000000001080000001000000000000005900000000000062740600000000000000009999123100000010000000000000BRCTGPBDR000111
012013101002CTIP3       010CETIP       ON      NM   R$  000000000235500000000023550000000002312000000000233000000000023510000000002345000000000235205074000000000001104900000000002574677200000000000000009999123100000010000000000000BRCTIPACNOR2120
012013101096CTIP3F      020CETIP       ON      NM   R$  000000000235000000000023980000000002315000000000232800000000023980000000002316000000000238600033000000000000001041000000000002428921000000000000009999123100000010000000000000BRCTIPACNOR2120
012013101078CTIPL54     070CTIP        ON      NM000R$  000000000004000000000000400000000000040000000000004000000000000400000000000000000000000000000002000000000000021000000000000000840000000000000245002013121600000010000000000000BRCTIPACNOR2120
012013101002CTKA3       010KARSTEN     ON           R$  000000000021000000000002200000000000210000000000021100000000002200000000000168000000000022000002000000000000001000000000000000211000000000000000009999123100000010000000000000BRCTKAACNOR0041
