00COTAHIST.2013BOVESPA 20130724                                                                                                                                                                                                                      
012013072402AAPL11B     010APPLE       DRN     MB   R$  000000000979100000000097910000000009791000000000979100000000097910000000009855000000000996000001000000000000000300000000000002937300000000000000009999123100000010000000000000BRAAPLBDR004104
012013072402ABCB4       010ABC BRASIL  PN      N2   R$  000000000128600000000013040000000001254000000000127700000000012800000000001278000000000128000638000000000000323600000000000413358500000000000000009999123100000010000000000000BRABCBACNPR4120
012013072496ABCB4F      020ABC BRASIL  PN      N2   R$  000000000130000000000013040000000001260000000000129400000000012800000000001255000000000130000012000000000000000171000000000000221394000000000000009999123100000010000000000000BRABCBACNPR4120
012013072412ABCP11      010FII ABC IMOBCI           R$  000000000095000000000009500000000000950000000000095000000000009500000000000892000000000096100001000000000000000020000000000000019000000000000000009999123100000010000000000000BRABCPCTF000213
012013072402ABRE11      010ABRIL EDUCA UNT     N2   R$  000000000372900000000037300000000003676000000000369800000000036800000000003680000000000369000364000000000000075300000000000278500200000000000000009999123100000010000000000000BRABRECDAM15102
012013072496ABRE11F     020ABRIL EDUCA UNT     N2   R$  000000000371300000000037130000000003689000000000370400000000036890000000003700000000000380000006000000000000000210000000000000777925000000000000009999123100000010000000000000BRABRECDAM15102
012013072402ABTT11B     010ABBOTT      DRN     MB   R$  000000000204000000000020400000000002040000000000204000000000020400000000002020000000000206000001000000000000000200000000000000408000000000000000009999123100000010000000000000BRABTTBDR007107
012013072402AEDU3       010ANHANGUERA  ON      NM   R$  000000000130700000000013110000000001287000000000129700000000013000000000001300000000000130105792000000000002612500000000003390485800000000000000009999123100000010000000000000BRAEDUACNOR9107
012013072496AEDU3F      020ANHANGUERA  ON      NM   R$  000000000130400000000013040000000001290000000000129500000000012900000000001275000000000131800004000000000000000079000000000000102358000000000000009999123100000010000000000000BRAEDUACNOR9107
012013072462AEDU3T      030ANHANGUERA  ON      NM030R$  000000000129800000000012990000000001298000000000129800000000012990000000000000000000000000000002000000000000001500000000000001948158000000000000009999123100000010000000000000BRAEDUACNOR9107
012013072412AEFI11      010FII AESAPAR CI           R$  000000001234000000000125960000000012263000000001237300000000124800000000012362000000001248000030000000000000000986000000000012200033000000000000009999123100000010000000000000BRAEFICTF002119
012013072496AELP3F      020AES ELPA    ON           R$  000000000078000000000007800000000000780000000000078000000000007800000000000700000000000082500001000000000000000014000000000000010920000000000000009999123100000010000000000000BRAELPACNOR2119
012013072412AGCX11      010FII AG CAIXACI           R$  000000010050000000001007000000000100500000000010054700000001007000000000100750000000010200000013000000000000000165000000000016590300000000000000009999123100000010000000000000BRAGCXCTF003108
012013072402AGEN11      010AGRENCO     DR3          R$  000000000006400000000000690000000000063000000000006600000000000690000000000068000000000006901272000000000016368100000000001086650100000000000000009999123100000010000000000000BRAGENBDR001100
012013072496AGEN11F     020AGRENCO     DR3          R$  000000000006600000000000680000000000065000000000006600000000000680000000000065000000000006800007000000000000000199000000000000013270000000000000009999123100000010000000000000BRAGENBDR001100
012013072462AGEN11T     030AGRENCO     DR3       030R$  000000000006700000000000680000000000067000000000006700000000000680000000000000000000000000000002000000000000020000000000000001349380000000000000009999123100000010000000000000BRAGENBDR001100
012013072402AGRO3       010BRASILAGRO  ON      NM   R$  000000000108700000000010900000000001060000000000107700000000010780000000001035000000000107800024000000000000010500000000000011315800000000000000009999123100000010000000000000BRAGROACNOR7102
012013072496AGRO3F      020BRASILAGRO  ON      NM   R$  000000000104000000000010400000000001040000000000104000000000010400000000000950000000000114900001000000000000000003000000000000003120000000000000009999123100000010000000000000BRAGROACNOR7102
012013072402ALLL3       010ALL AMER LATON      NM   R$  000000000088000000000008810000000000860000000000087200000000008750000000000875000000000087704537000000000001386500000000001209205100000000000000009999123100000010000000000000BRALLLACNOR6118
012013072496ALLL3F      020ALL AMER LATON      NM   R$  000000000088300000000008830000000000863000000000087000000000008630000000000865000000000088100024000000000000000593000000000000516274000000000000009999123100000010000000000000BRALLLACNOR6118
012013072412ALMI11B     010FII TORRE ALCI      MB   R$  000000031800000000003200000000000317800000000031832000000003178000000000313301000000032000000003000000000000000005000000000001591600000000000000009999123100000010000000000000BRALMICTF003203
012013072402ALPA3       010ALPARGATAS  ON      N1   R$  000000000106000000000010700000000001060000000000106800000000010690000000001043000000000107000006000000000000021600000000000023084500000000000000009999123100000010000000000000BRALPAACNOR0202
012013072496ALPA3F      020ALPARGATAS  ON      N1   R$  000000000100200000000010020000000001002000000000100200000000010020000000001002000000000105800001000000000000000004000000000000004008000000000000009999123100000010000000000000BRALPAACNOR0202
012013072402ALPA4       010ALPARGATAS  PN      N1   R$  000000000132700000000013360000000001312000000000131800000000013250000000001320000000000132500594000000000000691700000000000912154300000000000000009999123100000010000000000000BRALPAACNPR7202
012013072496ALPA4F      020ALPARGATAS  PN      N1   R$  000000000133800000000013380000000001305000000000132400000000013050000000001304000000000134500012000000000000000392000000000000519016000000000000009999123100000010000000000000BRALPAACNPR7202
012013072462ALPA4T      030ALPARGATAS  PN      N1030R$  000000000134000000000013410000000001340000000000134000000000013410000000000000000000000000000002000000000000002000000000000002681849000000000000009999123100000010000000000000BRALPAACNPR7202
012013072462ALPA4T      030ALPARGATAS  PN      N1120R$  000000000136900000000013690000000001369000000000136900000000013690000000000000000000000000000001000000000000000002000000000000002738000000000000009999123100000010000000000000BRALPAACNPR7202
012013072402ALSC3       010ALIANSCE    ON      NM   R$  000000000206600000000020740000000002024000000000205200000000020600000000002060000000000206301393000000000000340800000000000699508800000000000000009999123100000010000000000000BRALSCACNOR0104
012013072402ALUP11      010ALUPAR      UNT     N2   R$  000000000179900000000017990000000001750000000000176100000000017510000000001751000000000181000154000000000000071600000000000126136000000000000000009999123100000010000000000000BRALUPCDAM15100
012013072496ALUP11F     020ALUPAR      UNT     N2   R$  000000000178000000000017890000000001750000000000177100000000017660000000001735000000000176600010000000000000000278000000000000492397000000000000009999123100000010000000000000BRALUPCDAM15100
012013072402AMAR3       010LOJAS MARISAON      NM   R$  000000000218400000000021840000000002120000000000214400000000021550000000002153000000000215500945000000000000460700000000000987989400000000000000009999123100000010000000000000BRAMARACNOR4109
012013072496AMAR3F      020LOJAS MARISAON      NM   R$  000000000217500000000021750000000002101000000000213700000000021400000000002140000000000218800015000000000000000445000000000000951050000000000000009999123100000010000000000000BRAMARACNOR4109
012013072462AMAR3T      030LOJAS MARISAON      NM030R$  000000000216300000000021650000000002163000000000216400000000021650000000000000000000000000000004000000000000002300000000000004978031000000000000009999123100000010000000000000BRAMARACNOR4109
012013072402AMBV3       010AMBEV       ON           R$  000000000817000000000082310000000008051000000000812100000000081000000000008081000000000810000976000000000000162300000000001318059400000000000000009999123100000010000000000000BRAMBVACNOR4153
012013072496AMBV3F      020AMBEV       ON           R$  000000000819300000000082410000000008060000000000814500000000080600000000008080000000000822000028000000000000000592000000000004821374000000000000009999123100000010000000000000BRAMBVACNOR4153
012013072402AMBV4       010AMBEV       PN           R$  000000000822000000000082760000000008074000000000815900000000081370000000008120000000000813705165000000000001151600000000009396727700000000000000009999123100000010000000000000BRAMBVACNPR1153
012013072496AMBV4F      020AMBEV       PN           R$  000000000825000000000082690000000008071000000000817600000000080730000000008072000000000819900116000000000000002619000000000021409496000000000000009999123100000010000000000000BRAMBVACNPR1153
012013072462AMBV4T      030AMBEV       PN        016R$  000000000823200000000082330000000008227000000000823000000000082280000000000000000000000000000014000000000000001000000000000008230610000000000000009999123100000010000000000000BRAMBVACNPR1153
012013072462AMBV4T      030AMBEV       PN        030R$  000000000818000000000081810000000008180000000000818000000000081810000000000000000000000000000002000000000000007000000000000057263349000000000000009999123100000010000000000000BRAMBVACNPR1153
012013072462AMBV4T      030AMBEV       PN        061R$  000000000833500000000083360000000008194000000000828100000000082290000000000000000000000000000010000000000000003300000000000027327683000000000000009999123100000010000000000000BRAMBVACNPR1153
012013072462AMBV4T      030AMBEV       PN        180R$  000000000859200000000085930000000008592000000000859200000000085930000000000000000000000000000002000000000000001000000000000008592500000000000000009999123100000010000000000000BRAMBVACNPR1153
012013072478AMBVH84     070AMBV        PN        000R$  000000000008400000000000840000000000066000000000007400000000000710000000000065000000000000000006000000000000010600000000000000789600000000000840002013081900000010000000000000BRAMBVACNPR1153
012013072478AMBVH86     070AMBV        PN        000R$  000000000004500000000000590000000000045000000000005200000000000590000000000026000000000000000003000000000000004000000000000000208000000000000860002013081900000010000000000000BRAMBVACNPR1153
012013072478AMBVH87     070AMBV        PN        000R$  000000000002300000000000350000000000023000000000002900000000000350000000000000000000000000000002000000000000000200000000000000005800000000000870002013081900000010000000000000BRAMBVACNPR1153
012013072402ARMT11B     010ARCELOR     DRN     MB   R$  000000000144500000000014450000000001445000000000144500000000014450000000001435000000000146000001000000000000000100000000000000144500000000000000009999123100000010000000000000BRARMTBDR008111
012013072402ARTR3       010ARTERIS     ON      NM   R$  000000000203500000000021080000000002035000000000206300000000020800000000002080000000000208504230000000000001412200000000002914245100000000000000009999123100000010000000000000BRARTRACNOR3101
012013072496ARTR3F      020ARTERIS     ON      NM   R$  000000000204000000000020850000000002030000000000205700000000020810000000002076000000000208100051000000000000001475000000000003035240000000000000009999123100000010000000000000BRARTRACNOR3101
012013072402ARZZ3       010AREZZO CO   ON      NM   R$  000000000348300000000035730000000003460000000000353600000000035450000000003541000000000354500967000000000000250400000000000885435900000000000000009999123100000010000000000000BRARZZACNOR3108
012013072496ARZZ3F      020AREZZO CO   ON      NM   R$  000000000333400000000036790000000003251000000000352000000000036760000000003530000000000360000013000000000000000488000000000001717879000000000000009999123100000010000000000000BRARZZACNOR3108
012013072402ATTB11B     010ATT INC     DRN     MB   R$  000000000786000000000078600000000007860000000000786000000000078600000000007844000000000808000001000000000000000200000000000001572000000000000000009999123100000010000000000000BRATTBBDR007104
012013072402AUTM3       010AUTOMETAL   ON      NM   R$  000000000178500000000018150000000001783000000000179400000000018000000000001788000000000180000297000000000000126600000000000227159600000000000000009999123100000010000000000000BRAUTMACNOR8109
012013072496AUTM3F      020AUTOMETAL   ON      NM   R$  000000000179700000000018000000000001797000000000179900000000018000000000001501000000000192500003000000000000000068000000000000122364000000000000009999123100000010000000000000BRAUTMACNOR8109
012013072402AXPB11B     010AMERICAN EXPDRN     MB   R$  000000001714400000000171440000000017144000000001714400000000171440000000016701000000001720300001000000000000000400000000000006857600000000000000009999123100000010000000000000BRAXPBBDR007105
012013072402AZEV4       010AZEVEDO     PN           R$  000000000014500000000001450000000000145000000000014500000000001450000000000145000000000016000001000000000000000200000000000000029000000000000000009999123100000010000000000000BRAZEVACNPR7113
012013072402BAHI3       010BAHEMA      ON           R$  000000000050000000000005000000000000500000000000050000000000005000000000000491000000000050500001000000000000000600000000000000300000000000000000009999123100000010000000000000BRBAHIACNOR1066
012013072402BALM4       010BAUMER      PN           R$  000000000760100000000076010000000007601000000000760100000000076010000000007500000000000000000001000000000000000100000000000000760100000000000000009999123100000010000000000000BRBALMACNPR2043
012013072402BAUH4       010EXCELSIOR   PN           R$  000000000099500000000009950000000000995000000000099500000000009950000000000900000000000098900001000000000000000100000000000000099500000000000000009999123100000010000000000000BRBAUHACNPR3108
012013072402BAZA3       010AMAZONIA    ON           R$  000000000003400000000000340000000000034000000000003400000000000340000000000033000000000003500001000000000000001000000000000000034000000000000000009999123100000010000000000000BRBAZAACNOR0163
012013072402BBAS3       010BRASIL      ON      NM   R$  000000000229000000000023100000000002252000000000228200000000022860000000002285000000000228609477000000000005419700000000012371296800000000000000009999123100000010000000000000BRBBASACNOR3237
012013072496BBAS3F      020BRASIL      ON      NM   R$  000000000230000000000023150000000002260000000000228200000000022720000000002272000000000227500177000000000000004839000000000011046245000000000000009999123100000010000000000000BRBBASACNOR3237
012013072462BBAS3T      030BRASIL      ON      NM030R$  000000000231000000000023110000000002310000000000231000000000023110000000000000000000000000000002000000000000010000000000000023107067000000000000009999123100000010000000000000BRBBASACNOR3237
012013072462BBAS3T      030BRASIL      ON      NM061R$  000000000232300000000023260000000002294000000000232100000000023020000000000000000000000000000022000000000000954000000000002214375602000000000000009999123100000010000000000000BRBBASACNOR3237
012013072462BBAS3T      030BRASIL      ON      NM090R$  000000000231700000000023270000000002304000000000232200000000023270000000000000000000000000000010000000000000096100000000000223232791000000000000009999123100000010000000000000BRBBASACNOR3237
012013072478BBASH20     070BBAS        ON      NM000R$  000000000030500000000003050000000000299000000000030100000000002990000000000000000000000037700002000000000000003000000000000000903000000000000200002013081900000010000000000000BRBBASACNOR3237
012013072478BBASH21     070BBAS  FM    ON      NM000R$  000000000025200000000002520000000000203000000000022900000000002200000000000080000000000024000084000000000000149400000000000034216000000000000207602013081900000010000000000000BRBBASACNOR3236
012013072478BBASH22     070BBAS  FM    ON      NM000R$  000000000016000000000001610000000000125000000000014300000000001370000000000118000000000000000052000000000000098300000000000014139600000000000217602013081900000010000000000000BRBBASACNOR3236
012013072478BBASH23     070BBAS  FM    ON      NM000R$  000000000008800000000000930000000000060000000000007700000000000700000000000065000000000007800074000000000000138200000000000010658400000000000227602013081900000010000000000000BRBBASACNOR3236
012013072478BBASH24     070BBAS  FM    ON      NM000R$  000000000006500000000000670000000000041000000000004800000000000480000000000045000000000004900290000000000000635900000000000030896500000000000231702013081900000010000000000000BRBBASACNOR3233
012013072478BBASH25     070BBAS  FM    ON      NM000R$  000000000002600000000000280000000000016000000000001900000000000190000000000015000000000002000058000000000000077900000000000001537400000000000241702013081900000010000000000000BRBBASACNOR3233
012013072478BBASH26     070BBAS        ON      NM000R$  000000000000700000000000070000000000005000000000000600000000000050000000000004000000000000600003000000000000020000000000000000121000000000000256602013081900000010000000000000BRBBASACNOR3235
012013072478BBASI21     070BBAS  FM    ON      NM000R$  000000000025500000000002550000000000216000000000023800000000002270000000000000000000000000000055000000000000101000000000000024066900000000000210002013091600000010000000000000BRBBASACNOR3237
012013072478BBASI22     070BBAS  FM    ON      NM000R$  000000000019500000000001950000000000156000000000017800000000001700000000000139000000000000000044000000000000069600000000000012444400000000000217602013091600000010000000000000BRBBASACNOR3236
012013072478BBASI23     070BBAS  FM    ON      NM000R$  000000000012300000000001230000000000104000000000011300000000001070000000000045000000000000000015000000000000028900000000000003271900000000000227602013091600000010000000000000BRBBASACNOR3236
012013072478BBASI24     070BBAS  FM    ON      NM000R$  000000000006300000000000650000000000055000000000006000000000000620000000000055000000000009900240000000000000311300000000000018784600000000000237602013091600000010000000000000BRBBASACNOR3236
012013072478BBASI25     070BBAS  FM    ON      NM000R$  000000000003600000000000370000000000031000000000003500000000000330000000000029000000000006900018000000000000035300000000000001246500000000000246602013091600000010000000000000BRBBASACNOR3235
012013072478BBASI26     070BBAS        ON      NM000R$  000000000001600000000000160000000000016000000000001600000000000160000000000012000000000002800001000000000000000200000000000000003200000000000256602013091600000010000000000000BRBBASACNOR3235
012013072482BBAST19     080BBASE       ON      NM000R$  000000000000300000000000030000000000003000000000000300000000000030000000000001000000000000000001000000000000000500000000000000001500000000000190002013081900000010000000000000BRBBASACNOR3237
012013072482BBAST21     080BBASE FM    ON      NM000R$  000000000001200000000000130000000000012000000000001200000000000130000000000000000000000002400002000000000000024000000000000000311000000000000207602013081900000010000000000000BRBBASACNOR3236
012013072482BBAST22     080BBASE FM    ON      NM000R$  000000000002500000000000330000000000025000000000002700000000000290000000000026000000000003600024000000000000048200000000000001334500000000000217602013081900000010000000000000BRBBASACNOR3236
012013072482BBAST23     080BBASE FM    ON      NM000R$  000000000005300000000000680000000000047000000000005400000000000630000000000000000000000010000064000000000000172600000000000009460100000000000227602013081900000010000000000000BRBBASACNOR3236
012013072482BBAST24     080BBASE FM    ON      NM000R$  000000000006900000000000930000000000068000000000008000000000000820000000000026000000000000000031000000000000063100000000000005096500000000000231702013081900000010000000000000BRBBASACNOR3233
012013072482BBAST26     080BBASE       ON      NM000R$  000000000026600000000003000000000000266000000000028500000000003000000000000000000000000000000003000000000000000300000000000000085600000000000256602013081900000010000000000000BRBBASACNOR3235
012013072482BBASU21     080BBASE FM    ON      NM000R$  000000000003200000000000330000000000032000000000003200000000000330000000000000000000000000000006000000000000011300000000000000365600000000000210002013091600000010000000000000BRBBASACNOR3237
012013072482BBASU22     080BBASE FM    ON      NM000R$  000000000004600000000000510000000000046000000000004900000000000510000000000000000000000005200006000000000000010900000000000000536700000000000217602013091600000010000000000000BRBBASACNOR3236
012013072482BBASU23     080BBASE FM    ON      NM000R$  000000000007500000000000880000000000075000000000008000000000000880000000000000000000000000000074000000000000052900000000000004262700000000000227602013091600000010000000000000BRBBASACNOR3236
012013072482BBASU24     080BBASE FM    ON      NM000R$  000000000012600000000001500000000000119000000000013600000000001380000000000000000000000000000030000000000000048900000000000006690200000000000237602013091600000010000000000000BRBBASACNOR3236
012013072482BBASU26     080BBASE       ON      NM000R$  000000000025800000000002900000000000258000000000026800000000002900000000000000000000000029900005000000000000000600000000000000161000000000000256602013091600000010000000000000BRBBASACNOR3235
012013072482BBASU51     080BBASE       ON      NM000R$  000000000002400000000000240000000000024000000000002400000000000240000000000000000000000000000001000000000000004000000000000000096000000000000205002013091600000010000000000000BRBBASACNOR3237
012013072482BBASV24     080BBASE       ON      NM000R$  000000000015800000000001580000000000158000000000015800000000001580000000000000000000000000000001000000000000003000000000000000474000000000000237602013102100000010000000000000BRBBASACNOR3236
012013072482BBASV25     080BBASE       ON      NM000R$  000000000022200000000002220000000000222000000000022200000000002220000000000000000000000000000001000000000000002300000000000000510600000000000250002013102100000010000000000000BRBBASACNOR3237
012013072482BBASV26     080BBASE       ON      NM000R$  000000000027400000000002740000000000274000000000027400000000002740000000000000000000000000000001000000000000000300000000000000082200000000000256602013102100000010000000000000BRBBASACNOR3235
012013072482BBASV53     080BBASE       ON      NM000R$  000000000011700000000001170000000000117000000000011700000000001170000000000000000000000000000001000000000000003000000000000000351000000000000231602013102100000010000000000000BRBBASACNOR3235
012013072402BBDC3       010BRADESCO    ON      N1   R$  000000000323200000000032520000000003140000000000318700000000032000000000003180000000000320004738000000000001273800000000004060719900000000000000009999123100000010000000000000BRBBDCACNOR1604
012013072496BBDC3F      020BRADESCO    ON      N1   R$  000000000329900000000032990000000003141000000000318500000000031410000000003140000000000318500039000000000000001003000000000003195235000000000000009999123100000010000000000000BRBBDCACNOR1604
012013072462BBDC3T      030BRADESCO    ON      N1061R$  000000000329900000000033000000000003299000000000329900000000033000000000000000000000000000000002000000000000010000000000000032994792000000000000009999123100000010000000000000BRBBDCACNOR1604
012013072402BBDC4       010BRADESCO    PN      N1   R$  000000000289800000000029160000000002827000000000286500000000028770000000002865000000000287721988000000000007492000000000021471608700000000000000009999123100000010000000000000BRBBDCACNPR8604
012013072496BBDC4F      020BRADESCO    PN      N1   R$  000000000295900000000029590000000002831000000000287300000000028740000000002865000000000287400190000000000000005634000000000016186724000000000000009999123100000010000000000000BRBBDCACNPR8604
012013072462BBDC4S      030BRADESCO    PN      N1061R$  000000000290500000000029060000000002905000000000290500000000029060000000000000000000000000000002000000000000002500000000000007262715000000000000009999123100000010000000000000BRBBDCACNPR8604
012013072462BBDC4T      030BRADESCO    PN      N1090R$  000000000295300000000029540000000002939000000000294500000000029400000000000000000000000000000004000000000000001600000000000004712020000000000000009999123100000010000000000000BRBBDCACNPR8604
012013072462BBDC4T      030BRADESCO    PN      N1180R$  000000000299200000000029930000000002992000000000299200000000029930000000000000000000000000000002000000000000012000000000000035906472000000000000009999123100000010000000000000BRBBDCACNPR8604
012013072462BBDC4T      030BRADESCO    PN      N1030R$  000000000289100000000028920000000002853000000000285500000000028540000000000000000000000000000006000000000000002200000000000006282734000000000000009999123100000010000000000000BRBBDCACNPR8604
012013072478BBDCH26     070BBDC        PN      N1000R$  000000000033000000000003500000000000330000000000033200000000003300000000000000000000000000000007000000000000021000000000000006988000000000000258002013081900000010000000000000BRBBDCACNPR8602
012013072478BBDCH27     070BBDC        PN      N1000R$  000000000025200000000002630000000000195000000000025000000000002030000000000182000000000028900029000000000000043200000000000010819500000000000268002013081900000010000000000000BRBBDCACNPR8602
012013072478BBDCH28     070BBDC        PN      N1000R$  000000000017200000000001800000000000119000000000014300000000001460000000000120000000000015700243000000000000361800000000000051764400000000000278002013081900000010000000000000BRBBDCACNPR8602
012013072478BBDCH29     070BBDC        PN      N1000R$  000000000010200000000001130000000000060000000000008200000000000850000000000075000000000008500529000000000000955700000000000078868800000000000288002013081900000010000000000000BRBBDCACNPR8602
012013072478BBDCH30     070BBDC        PN      N1000R$  000000000005000000000000580000000000028000000000003900000000000400000000000038000000000004000130000000000000199300000000000007960300000000000298002013081900000010000000000000BRBBDCACNPR8602
012013072478BBDCH31     070BBDC        PN      N1000R$  000000000002000000000000200000000000012000000000001700000000000150000000000013000000000001800110000000000000051500000000000000880800000000000307602013081900000010000000000000BRBBDCACNPR8600
012013072478BBDCH32     070BBDC        PN      N1000R$  000000000000600000000000080000000000006000000000000600000000000060000000000004000000000002000003000000000000003100000000000000020600000000000318002013081900000010000000000000BRBBDCACNPR8602
012013072478BBDCH34     070BBDC        PN      N1000R$  000000000002900000000000290000000000016000000000001900000000000160000000000015000000000002900004000000000000001100000000000000021900000000000305502013081900000010000000000000BRBBDCACNPR8595
012013072478BBDCI28     070BBDC        PN      N1000R$  000000000020200000000002180000000000162000000000019000000000001850000000000140000000000000000045000000000000093100000000000017748300000000000278002013091600000010000000000000BRBBDCACNPR8602
012013072478BBDCI29     070BBDC        PN      N1000R$  000000000014100000000001460000000000105000000000013000000000001220000000000000000000000015800026000000000000047000000000000006133600000000000288002013091600000010000000000000BRBBDCACNPR8602
012013072478BBDCI30     070BBDC        PN      N1000R$  000000000009500000000000990000000000066000000000008000000000000750000000000060000000000009900029000000000000056000000000000004496300000000000298002013091600000010000000000000BRBBDCACNPR8602
012013072478BBDCI32     070BBDC        PN      N1000R$  000000000003100000000000330000000000021000000000003000000000000230000000000010000000000003900017000000000000036900000000000001116100000000000318002013091600000010000000000000BRBBDCACNPR8602
012013072478BBDCI33     070BBDC        PN      N1000R$  000000000008400000000000840000000000083000000000008300000000000840000000000000000000000000000003000000000000400000000000000033480000000000000297402013091600000010000000000000BRBBDCACNPR8598
012013072478BBDCI34     070BBDC        PN      N1000R$  000000000000600000000000060000000000006000000000000600000000000060000000000004000000000000000002000000000000001400000000000000008400000000000338002013091600000010000000000000BRBBDCACNPR8602
012013072478BBDCI75     070BBDCE       PN      N1000R$  000000000013800000000001380000000000138000000000013800000000001380000000000000000000000000000001000000000000002000000000000000276000000000000282502013091600000010000000000000BRBBDCACNPR8604
012013072478BBDCI81     070BBDC        PN      N1000R$  000000000006000000000000600000000000037000000000004900000000000450000000000000000000000000000016000000000000028800000000000001420800000000000308002013091600000010000000000000BRBBDCACNPR8602
012013072478BBDCJ2      070BBDC        PN      N1000R$  000000000003400000000000370000000000034000000000003500000000000370000000000000000000000000000002000000000000004700000000000000164900000000000324802013102100000010000000000000BRBBDCACNPR8603
012013072478BBDCJ29     070BBDC        PN      N1000R$  000000000015700000000001580000000000157000000000015700000000001580000000000000000000000000000002000000000000200000000000000031456000000000000288002013102100000010000000000000BRBBDCACNPR8602
012013072478BBDCJ31     070BBDC        PN      N1000R$  000000000009000000000000900000000000075000000000008100000000000750000000000010000000000000000015000000000000021400000000000001734900000000000308002013102100000010000000000000BRBBDCACNPR8602
012013072478BBDCJ33     070BBDC        PN      N1000R$  000000000002900000000000320000000000029000000000003100000000000320000000000000000000000000000002000000000000004200000000000000130800000000000328002013102100000010000000000000BRBBDCACNPR8602
012013072482BBDCT25     080BBDCE       PN      N1000R$  000000000000700000000000100000000000007000000000000900000000000100000000000000000000000000000003000000000000030200000000000000301500000000000248002013081900000010000000000000BRBBDCACNPR8602
012013072482BBDCT26     080BBDCE       PN      N1000R$  000000000001200000000000180000000000011000000000001400000000000180000000000000000000000000000005000000000000030200000000000000447600000000000258002013081900000010000000000000BRBBDCACNPR8602
012013072482BBDCT27     080BBDCE       PN      N1000R$  000000000001800000000000270000000000018000000000002300000000000260000000000013000000000003000034000000000000068000000000000001596500000000000268002013081900000010000000000000BRBBDCACNPR8602
012013072482BBDCT28     080BBDCE       PN      N1000R$  000000000003600000000000500000000000036000000000004400000000000500000000000000000000000000000123000000000000125600000000000005632900000000000278002013081900000010000000000000BRBBDCACNPR8602
012013072482BBDCT29     080BBDCE       PN      N1000R$  000000000007200000000000970000000000069000000000008300000000000790000000000000000000000000000076000000000000125800000000000010566400000000000288002013081900000010000000000000BRBBDCACNPR8602
012013072482BBDCT30     080BBDCE       PN      N1000R$  000000000011900000000001630000000000119000000000014000000000001450000000000000000000000000000095000000000000072200000000000010171600000000000298002013081900000010000000000000BRBBDCACNPR8602
012013072482BBDCT31     080BBDCE       PN      N1000R$  000000000022000000000002200000000000220000000000022000000000002200000000000000000000000000000001000000000000001900000000000000418000000000000307602013081900000010000000000000BRBBDCACNPR8600
012013072482BBDCT34     080BBDCE       PN      N1000R$  000000000017700000000002140000000000177000000000019700000000002030000000000000000000000000000004000000000000006900000000000001364400000000000305502013081900000010000000000000BRBBDCACNPR8595
012013072482BBDCU27     080BBDCE       PN      N1000R$  000000000003900000000000400000000000039000000000003900000000000400000000000000000000000000000004000000000000007000000000000000278000000000000268002013091600000010000000000000BRBBDCACNPR8602
012013072482BBDCU28     080BBDCE       PN      N1000R$  000000000006100000000000800000000000061000000000007000000000000700000000000000000000000000000016000000000000376600000000000026388100000000000278002013091600000010000000000000BRBBDCACNPR8602
012013072482BBDCU29     080BBDCE       PN      N1000R$  000000000009200000000001230000000000092000000000010700000000001140000000000000000000000000000019000000000000035700000000000003846500000000000288002013091600000010000000000000BRBBDCACNPR8602
012013072482BBDCU30     080BBDCE       PN      N1000R$  000000000013500000000001800000000000135000000000016000000000001650000000000000000000000000000033000000000000056500000000000009094600000000000298002013091600000010000000000000BRBBDCACNPR8602
012013072482BBDCU32     080BBDCE       PN      N1000R$  000000000028500000000003290000000000285000000000031300000000003130000000000000000000000000000003000000000000005000000000000001569000000000000318002013091600000010000000000000BRBBDCACNPR8602
012013072482BBDCU33     080BBDCE       PN      N1000R$  000000000014400000000001440000000000144000000000014400000000001440000000000000000000000000000001000000000000001700000000000000244800000000000297402013091600000010000000000000BRBBDCACNPR8598
012013072482BBDCU81     080BBDCE       PN      N1000R$  000000000021000000000002490000000000210000000000023900000000002490000000000000000000000000000003000000000000005300000000000001267000000000000308002013091600000010000000000000BRBBDCACNPR8602
012013072482BBDCV1      080BBDCE       PN      N1000R$  000000000028200000000002820000000000282000000000028200000000002820000000000000000000000000000001000000000000002000000000000000564000000000000314802013102100000010000000000000BRBBDCACNPR8603
012013072482BBDCV25     080BBDCE       PN      N1000R$  000000000003100000000000310000000000031000000000003100000000000310000000000000000000000000000001000000000000001200000000000000037200000000000249802013102100000010000000000000BRBBDCACNPR8603
012013072482BBDCV27     080BBDCE       PN      N1000R$  000000000006600000000000700000000000066000000000006800000000000700000000000000000000000000000003000000000000005200000000000000354400000000000268002013102100000010000000000000BRBBDCACNPR8602
012013072482BBDCV28     080BBDCE       PN      N1000R$  000000000003100000000000310000000000030000000000003000000000000300000000000000000000000000000003000000000000003600000000000000109200000000000246002013102100000010000000000000BRBBDCACNPR8591
012013072482BBDCV29     080BBDCE       PN      N1000R$  000000000013100000000001440000000000131000000000013600000000001430000000000000000000000000000012000000000000018400000000000002507900000000000288002013102100000010000000000000BRBBDCACNPR8602
012013072482BBDCV30     080BBDCE       PN      N1000R$  000000000017500000000001890000000000175000000000018000000000001890000000000000000000000000000008000000000000012800000000000002309200000000000298002013102100000010000000000000BRBBDCACNPR8602
012013072482BBDCV32     080BBDCE       PN      N1000R$  000000000033600000000003360000000000336000000000033600000000003360000000000000000000000000000001000000000000001900000000000000638400000000000318002013102100000010000000000000BRBBDCACNPR8602
012013072482BBDCW8      080BBDCE       PN      N1000R$  000000000003500000000000390000000000033000000000003500000000000370000000000000000000000000000026000000000000068000000000000002405600000000000246202013111800000010000000000000BRBBDCACNPR8592
012013072412BBFI11B     010FII BB PROGRCI      MB   R$  000000043000000000004300000000000425050000000042839700000004300000000000425500000000043000000008000000000000000032000000000013708705000000000000009999123100000010000000000000BRBBFICTF006196
012013072412BBPO11      010FII BB PRGIICI           R$  000000001129600000000114600000000011200000000001131900000000114250000000011425000000001145800620000000000000016876000000000191031550000000000000009999123100000010000000000000BRBBPOCTF003108
012013072412BBRC11      010FII BB CORP CI           R$  000000000925300000000093000000000009200000000000920900000000093000000000009210000000000930000041000000000000009113000000000083928125000000000000009999123100000010000000000000BRBBRCCTF004122
012013072402BBRK3       010BR BROKERS  ON      NM   R$  000000000059100000000005940000000000582000000000058800000000005940000000000589000000000059401420000000000000271800000000000160089900000000000000009999123100000010000000000000BRBBRKACNOR4108
012013072496BBRK3F      020BR BROKERS  ON      NM   R$  000000000056300000000005900000000000563000000000056900000000005900000000000563000000000065900005000000000000000061000000000000034741000000000000009999123100000010000000000000BRBBRKACNOR4108
012013072402BBSE3       010BBSEGURIDADEON      NM   R$  000000000179500000000018050000000001777000000000179200000000018050000000001805000000000180606037000000000001977700000000003545021900000000000000009999123100000010000000000000BRBBSEACNOR5100
012013072496BBSE3F      020BBSEGURIDADEON      NM   R$  000000000180000000000018000000000001770000000000178800000000017870000000001787000000000179700171000000000000005700000000000010193203000000000000009999123100000010000000000000BRBBSEACNOR5100
012013072402BBTG11      010BTG PACTUAL UNT          R$  000000000283800000000028850000000002736000000000276100000000027900000000002781000000000279100776000000000000300900000000000830916600000000000000009999123100000010000000000000BRBBTGUNT007104
012013072496BBTG11F     020BTG PACTUAL UNT          R$  000000000284200000000028620000000002746000000000280700000000028620000000002800000000000286200021000000000000000672000000000001886383000000000000009999123100000010000000000000BRBBTGUNT007104
012013072412BBVJ11      010FII C JARDIMCI           R$  000000000801100000000080610000000008000000000000802000000000080610000000007994000000000806100024000000000000001068000000000008566075000000000000009999123100000010000000000000BRBBVJCTF001131
012013072412BCFF11B     010FII BC FFII CI      MB   R$  000000000988300000000099000000000009704000000000985300000000098900000000009803000000000989000085000000000000003924000000000038664394000000000000009999123100000010000000000000BRBCFFCTF000140
012013072402BEEF3       010MINERVA     ON      NM   R$  000000000093900000000009400000000000919000000000092700000000009310000000000931000000000093303273000000000000770000000000000714419200000000000000009999123100000010000000000000BRBEEFACNOR6104
012013072496BEEF3F      020MINERVA     ON      NM   R$  000000000094000000000009400000000000911000000000093300000000009110000000000910000000000102200005000000000000000086000000000000080281000000000000009999123100000010000000000000BRBEEFACNOR6104
012013072402BEES3       010BANESTES    ON           R$  000000000004700000000000480000000000047000000000004700000000000480000000000047000000000004800007000000000000013900000000000000653600000000000000009999123100000010000000000000BRBEESACNOR9242
012013072402BEMA3       010BEMATECH    ON      NM   R$  000000000073000000000007470000000000730000000000074200000000007470000000000745000000000074700148000000000000054700000000000040593200000000000000009999123100000010000000000000BRBEMAACNOR0113
012013072496BEMA3F      020BEMATECH    ON      NM   R$  000000000074600000000007460000000000746000000000074600000000007460000000000728000000000074500002000000000000000040000000000000029840000000000000009999123100000010000000000000BRBEMAACNOR0113
012013072402BGIP4       010BANESE      PN           R$  000000000480000000000050000000000004800000000000490000000000050000000000004750000000000500000002000000000000000200000000000000980000000000000000009999123100000010000000000000BRBGIPACNPR8178
012013072402BHGR3       010BHG         ON      NM   R$  000000000167700000000017000000000001675000000000168000000000016990000000001675000000000170000047000000000000019400000000000032596500000000000000009999123100000010000000000000BRBHGRACNOR9101
012013072496BHGR3F      020BHG         ON      NM   R$  000000000166900000000016690000000001669000000000166900000000016690000000001523000000000178500001000000000000000085000000000000141865000000000000009999123100000010000000000000BRBHGRACNOR9101
012013072402BICB4       010BICBANCO    PN      N1   R$  000000000040600000000004150000000000393000000000040000000000004020000000000402000000000040500185000000000000103100000000000041261500000000000000009999123100000010000000000000BRBICBACNPR7131
012013072496BICB4F      020BICBANCO    PN      N1   R$  000000000040600000000004060000000000406000000000040600000000004060000000000395000000000042800001000000000000000050000000000000020300000000000000009999123100000010000000000000BRBICBACNPR7131
012013072402BISA3       010BROOKFIELD  ON      NM   R$  000000000017000000000001770000000000167000000000017300000000001760000000000175000000000017605608000000000011290400000000001954702000000000000000009999123100000010000000000000BRBISAACNOR8109
012013072496BISA3F      020BROOKFIELD  ON      NM   R$  000000000016900000000001800000000000169000000000017100000000001710000000000170000000000018100018000000000000000515000000000000088429000000000000009999123100000010000000000000BRBISAACNOR8109
012013072462BISA3T      030BROOKFIELD  ON      NM016R$  000000000017600000000001770000000000176000000000017600000000001770000000000000000000000000000002000000000000050000000000000008838720000000000000009999123100000010000000000000BRBISAACNOR8109
012013072462BISA3T      030BROOKFIELD  ON      NM090R$  000000000017500000000001790000000000172000000000017600000000001780000000000000000000000000000052000000000003022500000000000532985992000000000000009999123100000010000000000000BRBISAACNOR8109
012013072412BJRC11      010FII JS RECIMCI           R$  000000009300000000000930000000000088000000000009205600000000880000000000080455000000009590000006000000000000000546000000000050262994000000000000009999123100000010000000000000BRBJRCCTF007108
012013072402BMEB4       010MERC BRASIL PN           R$  000000000111100000000011300000000001111000000000112900000000011300000000001115000000000113000008000000000000018000000000000020336200000000000000009999123100000010000000000000BRBMEBACNPR5190
012013072402BMIN4       010MERC INVEST PN           R$  000000000002300000000000230000000000023000000000002300000000000230000000000023000000000002400004000000000000004000000000000000092000000000000000009999123100000010000000000000BRBMINACNPR1159
012013072412BMLC11B     010FII BMBRC LCCI      MB   R$  000000001167100000000117200000000011650000000001165500000000117200000000011650000000001172000014000000000000001670000000000019464131000000000000009999123100000010000000000000BRBMLCCTF004117
012013072402BMTO4       010BRASMOTOR   PN           R$  000000000008700000000000880000000000087000000000008700000000000880000000000087000000000008800008000000000000147000000000000012791000000000000000009999123100000010000000000000BRBMTOACNPR6065
012013072412BNFS11      010FII BANRISULCI           R$  000000001000000000000104200000000010000000000001003300000000104030000000010000000000001040300004000000000000000332000000000003331188000000000000009999123100000010000000000000BRBNFSCTF000110
012013072402BOAC11B     010BANK AMERICADRN     MB   R$  000000000333500000000033350000000003325000000000333200000000033250000000003280000000000333000002000000000000002100000000000006997500000000000000009999123100000010000000000000BRBOACBDR004111
012013072496BOBR4F      020BOMBRIL     PN           R$  000000000058000000000006350000000000580000000000060700000000006350000000000500000000000000000002000000000000000064000000000000038880000000000000009999123100000010000000000000BRBOBRACNPR3127
012013072402BOEI11B     010BOEING      DRN     MB   R$  000000002456900000000245690000000024569000000002456900000000245690000000023705000000002441800001000000000000000300000000000007370700000000000000009999123100000010000000000000BRBOEIBDR003105
012013072414BOVA11      010ISHARES BOVACI           R$  000000000476000000000047910000000004710000000000474300000000047460000000004746000000000475202260000000000002376340000000011272244360000000000000009999123100000010000000000000BRBOVACTF003101
012013072496BOVA11F     020ISHARES BOVACI           R$  000000000469100000000047850000000004672000000000472500000000047360000000004676000000000480200015000000000000000049000000000000231571000000000000009999123100000010000000000000BRBOVACTF003101
012013072412BPFF11      010FII ABSOLUTOCI           R$  000000000900000000000090490000000008890000000000896800000000088900000000008811000000000889000029000000000000002185000000000019596802000000000000009999123100000010000000000000BRBPFFCTF002103
012013072402BPHA3       010BR PHARMA   ON      NM   R$  000000000098900000000010250000000000961000000000098800000000009800000000000977000000000098502774000000000002277800000000002251451600000000000000009999123100000010000000000000BRBPHAACNOR6102
012013072496BPHA3F      020BR PHARMA   ON      NM   R$  000000000101000000000010100000000000960000000000098300000000009880000000000971000000000099400016000000000000000481000000000000472923000000000000009999123100000010000000000000BRBPHAACNOR6102
012013072402BPNM4       010PANAMERICANOPN      N1   R$  000000000056900000000005740000000000557000000000056200000000005660000000000563000000000056600373000000000000157800000000000088746900000000000000009999123100000010000000000000BRBPNMACNPR6111
012013072402BRAP3       010BRADESPAR   ON      N1   R$  000000000188800000000019000000000001844000000000186000000000018840000000001842000000000188400074000000000000017700000000000032933200000000000000009999123100000010000000000000BRBRAPACNOR5124
012013072462BRAP3T      030BRADESPAR   ON      N1030R$  000000000185700000000018580000000001857000000000185700000000018580000000000000000000000000000002000000000000000500000000000000928681000000000000009999123100000010000000000000BRBRAPACNOR5124
012013072402BRAP4       010BRADESPAR   PN      N1   R$  000000000229100000000022960000000002250000000000226700000000022760000000002270000000000227604901000000000001026000000000002326409000000000000000009999123100000010000000000000BRBRAPACNPR2124
012013072496BRAP4F      020BRADESPAR   PN      N1   R$  000000000230500000000023050000000002228000000000225800000000022320000000002232000000000228400026000000000000000782000000000001767892000000000000009999123100000010000000000000BRBRAPACNPR2124
012013072478BRAPH24     070BRAP        PN      N1000R$  000000000001300000000000130000000000010000000000001000000000000100000000000000000000000000000002000000000000002000000000000000020300000000000240002013081900000010000000000000BRBRAPACNPR2124
012013072414BRAX11      010ISHARES BRAXCI           R$  000000000394500000000039470000000003934000000000394400000000039460000000003946000000000400000014000000000000049840000000000196591300000000000000009999123100000010000000000000BRBRAXCTF002100
012013072412BRCR11      010FII BC FUND CI           R$  000000001345400000000135300000000013386000000001342500000000133860000000013386000000001340000322000000000000025032000000000336059917000000000000009999123100000010000000000000BRBRCRCTF000131
012013072402BRFS3       010BRF SA      ON      NM   R$  000000000485800000000048580000000004740000000000478600000000047940000000004790000000000479406042000000000001761000000000008429216600000000000000009999123100000010000000000000BRBRFSACNOR8110
012013072496BRFS3F      020BRF SA      ON      NM   R$  000000000482000000000048420000000004735000000000479300000000047690000000004769000000000480000057000000000000001576000000000007554842000000000000009999123100000010000000000000BRBRFSACNOR8110
012013072462BRFS3T      030BRF SA      ON      NM030R$  000000000479300000000047940000000004793000000000479300000000047940000000000000000000000000000002000000000000001200000000000005751984000000000000009999123100000010000000000000BRBRFSACNOR8110
012013072462BRFS3T      030BRF SA      ON      NM061R$  000000000481200000000048130000000004812000000000481200000000048130000000000000000000000000000002000000000000002000000000000009625526000000000000009999123100000010000000000000BRBRFSACNOR8110
012013072462BRFS3T      030BRF SA      ON      NM090R$  000000000491800000000049220000000004875000000000489500000000048760000000000000000000000000000026000000000000300000000000001468715363000000000000009999123100000010000000000000BRBRFSACNOR8110
012013072462BRFS3T      030BRF SA      ON      NM120R$  000000000488400000000048850000000004879000000000488100000000048800000000000000000000000000000004000000000000002000000000000009763342000000000000009999123100000010000000000000BRBRFSACNOR8110
012013072478BRFSJ75     070BRFS        ON      NM000R$  000000000012000000000001200000000000120000000000012000000000001200000000000000000000000000000001000000000000300000000000000036000000000000000515002013102100000010000000000000BRBRFSACNOR8110
012013072482BRFSV45     080BRFSE       ON      NM000R$  000000000006600000000000660000000000066000000000006600000000000660000000000000000000000000000002000000000000300000000000000019800000000000000450002013102100000010000000000000BRBRFSACNOR8110
012013072482BRFSV48     080BRFSE       ON      NM000R$  000000000014900000000001500000000000149000000000014900000000001500000000000000000000000000000003000000000000300000000000000044820000000000000480002013102100000010000000000000BRBRFSACNOR8110
012013072402BRGE3       010ALFA CONSORCON           R$  000000000040000000000004000000000000400000000000040000000000004000000000000339000000000045500005000000000000002000000000000000800000000000000000009999123100000010000000000000BRBRGEACNOR6196
012013072402BRIN3       010BR INSURANCEON      NM   R$  000000000207200000000021040000000002062000000000208100000000020800000000002078000000000208001318000000000000527100000000001097210600000000000000009999123100000010000000000000BRBRINACNOR3105
012013072496BRIN3F      020BR INSURANCEON      NM   R$  000000000209700000000021000000000002071000000000208600000000020760000000002071000000000207800013000000000000000580000000000001209952000000000000009999123100000010000000000000BRBRINACNOR3105
012013072402BRIV3       010ALFA INVEST ON           R$  000000000064800000000006480000000000648000000000064800000000006480000000000647000000000069900001000000000000003400000000000002203200000000000000009999123100000010000000000000BRBRIVACNOR6196
012013072402BRKM3       010BRASKEM     ON      N1   R$  000000000118300000000011830000000001141000000000115900000000011600000000001160000000000119900063000000000000013700000000000015885000000000000000009999123100000010000000000000BRBRKMACNOR1110
012013072496BRKM3F      020BRASKEM     ON      N1   R$  000000000120000000000012000000000001170000000000117600000000011700000000001129000000000123700003000000000000000100000000000000117600000000000000009999123100000010000000000000BRBRKMACNOR1110
012013072402BRKM5       010BRASKEM     PNA     N1   R$  000000000172700000000017310000000001681000000000171300000000017200000000001707000000000172004952000000000001023700000000001754027700000000000000009999123100000010000000000000BRBRKMACNPA4110
012013072496BRKM5F      020BRASKEM     PNA     N1   R$  000000000173300000000017330000000001671000000000170700000000017290000000001701000000000172900016000000000000000530000000000000905188000000000000009999123100000010000000000000BRBRKMACNPA4110
012013072462BRKM5T      030BRASKEM     PNA     N1016R$  000000000171500000000017160000000001715000000000171500000000017160000000000000000000000000000002000000000000002500000000000004287507000000000000009999123100000010000000000000BRBRKMACNPA4110
012013072402BRML3       010BR MALLS PARON      NM   R$  000000000207600000000020760000000002044000000000205300000000020550000000002055000000000205606296000000000003342900000000006865731700000000000000009999123100000010000000000000BRBRMLACNOR9105
012013072496BRML3F      020BR MALLS PARON      NM   R$  000000000209300000000021000000000002046000000000205500000000020490000000002046000000000208800040000000000000001315000000000002703444000000000000009999123100000010000000000000BRBRMLACNOR9105
012013072462BRML3T      030BR MALLS PARON      NM061R$  000000000208200000000020830000000002074000000000208100000000020750000000000000000000000000000004000000000000001700000000000003538976000000000000009999123100000010000000000000BRBRMLACNOR9105
012013072462BRML3T      030BR MALLS PARON      NM090R$  000000000211600000000021170000000002116000000000211600000000021170000000000000000000000000000002000000000000000200000000000000423255000000000000009999123100000010000000000000BRBRMLACNOR9105
012013072482BRMLU22     080BRMLE       ON      NM000R$  000000000014000000000001400000000000140000000000014000000000001400000000000000000000000000000001000000000000020000000000000002800000000000000220002013091600000010000000000000BRBRMLACNOR9105
012013072482BRMLV22     080BRMLE       ON      NM000R$  000000000018500000000001850000000000185000000000018500000000001850000000000000000000000000000001000000000000020000000000000003700000000000000220002013102100000010000000000000BRBRMLACNOR9105
012013072402BRPR3       010BR PROPERT  ON      NM   R$  000000000196800000000019880000000001955000000000196700000000019600000000001960000000000196506492000000000001258000000000002475266600000000000000009999123100000010000000000000BRBRPRACNOR9112
012013072496BRPR3F      020BR PROPERT  ON      NM   R$  000000000200000000000020100000000001953000000000197100000000019530000000001953000000000200900035000000000000000883000000000001740580000000000000009999123100000010000000000000BRBRPRACNOR9112
012013072402BRSR6       010BANRISUL    PNB     N1   R$  000000000147600000000014850000000001446000000000146900000000014780000000001469000000000147802190000000000000685000000000001006290900000000000000009999123100000010000000000000BRBRSRACNPB4133
012013072496BRSR6F      020BANRISUL    PNB     N1   R$  000000000144900000000014820000000001449000000000147100000000014630000000001425000000000148200014000000000000000435000000000000639730000000000000009999123100000010000000000000BRBRSRACNPB4133
012013072402BSEV3       010BIOSEV      ON      NM   R$  000000000122800000000012280000000001206000000000121500000000012070000000001207000000000123000012000000000000004800000000000005836200000000000000009999123100000010000000000000BRBSEVACNOR3100
012013072496BSEV3F      020BIOSEV      ON      NM   R$  000000000121500000000012150000000001215000000000121500000000012150000000001101000000000121500001000000000000000057000000000000069255000000000000009999123100000010000000000000BRBSEVACNOR3100
012013072482BSEVS99     080BSEVE       ON      NM000R$  000000000030000000000003000000000000300000000000030000000000003000000000000000000000000000000002000000000000000595000000000000178500000000000165702014072100000010000000000000BRBSEVACNOR3100
012013072402BTOW3       010B2W DIGITAL ON      NM   R$  000000000114500000000011690000000001113000000000112900000000011250000000001125000000000112801352000000000000475400000000000537030000000000000000009999123100000010000000000000BRBTOWACNOR8105
012013072496BTOW3F      020B2W DIGITAL ON      NM   R$  000000000117900000000011790000000001116000000000112700000000011160000000001128000000000113200035000000000000000943000000000001062824000000000000009999123100000010000000000000BRBTOWACNOR8105
012013072462BTOW3T      030B2W DIGITAL ON      NM090R$  000000000114100000000011420000000001141000000000114100000000011420000000000000000000000000000002000000000000001000000000000001141616000000000000009999123100000010000000000000BRBTOWACNOR8105
012013072402BTTL3       010BATTISTELLA ON           R$  000000000007800000000000780000000000078000000000007800000000000780000000000071000000000008400001000000000000004900000000000000382200000000000000009999123100000010000000000000BRBTTLACNOR0105
012013072402BVMF3       010BMFBOVESPA  ON      NM   R$  000000000124500000000012490000000001230000000000124100000000012310000000001230000000000123117595000000000009647800000000011978573400000000000000009999123100000010000000000000BRBVMFACNOR3125
012013072496BVMF3F      020BMFBOVESPA  ON      NM   R$  000000000124900000000012490000000001229000000000124000000000012290000000001229000000000123900078000000000000002577000000000003197760000000000000009999123100000010000000000000BRBVMFACNOR3125
012013072462BVMF3T      030BMFBOVESPA  ON      NM016R$  000000000125200000000012530000000001236000000000124700000000012370000000000000000000000000000006000000000000086000000000000107285106000000000000009999123100000010000000000000BRBVMFACNOR3125
012013072462BVMF3T      030BMFBOVESPA  ON      NM029R$  000000000125400000000012550000000001249000000000125300000000012550000000000000000000000000000010000000000000089000000000000111542856000000000000009999123100000010000000000000BRBVMFACNOR3125
012013072462BVMF3T      030BMFBOVESPA  ON      NM030R$  000000000124900000000012500000000001249000000000124900000000012500000000000000000000000000000002000000000000001610000000000002011596000000000000009999123100000010000000000000BRBVMFACNOR3125
012013072462BVMF3T      030BMFBOVESPA  ON      NM090R$  000000000126800000000012690000000001266000000000126700000000012670000000000000000000000000000010000000000002576000000000003265359330000000000000009999123100000010000000000000BRBVMFACNOR3125
012013072462BVMF3T      030BMFBOVESPA  ON      NM120R$  000000000127800000000012790000000001278000000000127800000000012790000000000000000000000000000002000000000000005000000000000006392603000000000000009999123100000010000000000000BRBVMFACNOR3125
012013072478BVMFH1      070BVMFE       ON      NM000R$  000000000001300000000000130000000000013000000000001300000000000130000000000003000000000000000001000000000000000300000000000000003900000000000132502013081900000010000000000000BRBVMFACNOR3125
012013072478BVMFH10     070BVMF        ON      NM000R$  000000000024700000000002470000000000247000000000024700000000002470000000000000000000000000000001000000000000000800000000000000197600000000000100002013081900000010000000000000BRBVMFACNOR3125
012013072478BVMFH11     070BVMF        ON      NM000R$  000000000015500000000001580000000000155000000000015500000000001550000000000141000000000017000020000000000000011100000000000001726900000000000110002013081900000010000000000000BRBVMFACNOR3125
012013072478BVMFH12     070BVMF  FM    ON      NM000R$  000000000007800000000000790000000000065000000000007100000000000680000000000063000000000008400063000000000000174000000000000012376900000000000120002013081900000010000000000000BRBVMFACNOR3125
012013072478BVMFH13     070BVMF  FM    ON      NM000R$  000000000002800000000000280000000000021000000000002400000000000210000000000020000000000002100137000000000000390900000000000009450800000000000128902013081900000010000000000000BRBVMFACNOR3124
012013072478BVMFH14     070BVMF  FM    ON      NM000R$  000000000000500000000000050000000000003000000000000300000000000030000000000002000000000000300029000000000000144500000000000000544100000000000138902013081900000010000000000000BRBVMFACNOR3124
012013072478BVMFH15     070BVMF        ON      NM000R$  000000000000100000000000020000000000001000000000000100000000000020000000000000000000000000200003000000000000009300000000000000009600000000000150002013081900000010000000000000BRBVMFACNOR3125
012013072478BVMFH41     070BVMF        ON      NM000R$  000000000011300000000001140000000000112000000000011200000000001120000000000000000000000000000003000000000000006300000000000000709200000000000115002013081900000010000000000000BRBVMFACNOR3125
012013072478BVMFH42     070BVMF  FM    ON      NM000R$  000000000004400000000000450000000000038000000000004300000000000380000000000032000000000006100012000000000000035900000000000001572200000000000125002013081900000010000000000000BRBVMFACNOR3125
012013072478BVMFH43     070BVMF  FM    ON      NM000R$  000000000000900000000000100000000000008000000000000800000000000080000000000007000000000001100009000000000000027200000000000000233300000000000135002013081900000010000000000000BRBVMFACNOR3125
012013072478BVMFH44     070BVMF        ON      NM000R$  000000000000300000000000030000000000003000000000000300000000000030000000000000000000000143900001000000000000000500000000000000001500000000000143902013081900000010000000000000BRBVMFACNOR3124
012013072478BVMFH62     070BVMFE       ON      NM000R$  000000000005900000000000600000000000059000000000005900000000000600000000000000000000000000000002000000000000007700000000000000456400000000000122502013081900000010000000000000BRBVMFACNOR3125
012013072478BVMFI11     070BVMF        ON      NM000R$  000000000017100000000001740000000000165000000000016800000000001650000000000151000000000000000004000000000000001200000000000000202600000000000110002013091600000010000000000000BRBVMFACNOR3125
012013072478BVMFI12     070BVMF  FM    ON      NM000R$  000000000009400000000000950000000000090000000000009300000000000900000000000080000000000000000016000000000000033500000000000003118800000000000120002013091600000010000000000000BRBVMFACNOR3125
012013072478BVMFI13     070BVMF  FM    ON      NM000R$  000000000004000000000000400000000000035000000000003800000000000350000000000035000000000004200072000000000000151300000000000005900600000000000130002013091600000010000000000000BRBVMFACNOR3125
012013072478BVMFI14     070BVMF  FM    ON      NM000R$  000000000001200000000000120000000000011000000000001100000000000110000000000010000000000001500007000000000000013300000000000000154400000000000140002013091600000010000000000000BRBVMFACNOR3125
012013072478BVMFI15     070BVMF        ON      NM000R$  000000000000400000000000050000000000004000000000000400000000000050000000000003000000000000600006000000000000010400000000000000048000000000000150002013091600000010000000000000BRBVMFACNOR3125
012013072478BVMFI43     070BVMF  FM    ON      NM000R$  000000000002300000000000240000000000021000000000002200000000000220000000000005000000000000000036000000000000075700000000000001729600000000000135002013091600000010000000000000BRBVMFACNOR3125
012013072482BVMFQ73     080BVMFE       ON      NM000R$  000000000011600000000001160000000000116000000000011600000000001160000000000000000000000000000001000000000000016300000000000001890800000000000128902014051900000010000000000000BRBVMFACNOR3124
012013072482BVMFR63     080BVMFE       ON      NM000R$  000000000012200000000001220000000000122000000000012200000000001220000000000000000000000000000001000000000000025600000000000003123200000000000130002014061600000010000000000000BRBVMFACNOR3125
012013072482BVMFT10     080BVMFE       ON      NM000R$  000000000000300000000000030000000000003000000000000300000000000030000000000000000000000000200001000000000000000300000000000000000900000000000100002013081900000010000000000000BRBVMFACNOR3125
012013072482BVMFT11     080BVMFE       ON      NM000R$  000000000000700000000000090000000000007000000000000700000000000090000000000007000000000000900017000000000000006100000000000000047300000000000110002013081900000010000000000000BRBVMFACNOR3125
012013072482BVMFT12     080BVMFE FM    ON      NM000R$  000000000002800000000000290000000000027000000000002800000000000290000000000023000000000003300013000000000000015700000000000000443800000000000120002013081900000010000000000000BRBVMFACNOR3125
012013072482BVMFT13     080BVMFE FM    ON      NM000R$  000000000006400000000000680000000000064000000000006400000000000680000000000000000000000008900006000000000000008800000000000000568500000000000128902013081900000010000000000000BRBVMFACNOR3124
012013072482BVMFT14     080BVMFE       ON      NM000R$  000000000014300000000001430000000000143000000000014300000000001430000000000000000000000000000002000000000000000200000000000000028600000000000138902013081900000010000000000000BRBVMFACNOR3124
012013072482BVMFT41     080BVMFE FM    ON      NM000R$  000000000001400000000000140000000000014000000000001400000000000140000000000000000000000005500001000000000000003500000000000000049000000000000115002013081900000010000000000000BRBVMFACNOR3125
012013072482BVMFT42     080BVMFE FM    ON      NM000R$  000000000004300000000000450000000000043000000000004400000000000450000000000000000000000000000003000000000000011100000000000000488900000000000125002013081900000010000000000000BRBVMFACNOR3125
012013072482BVMFT61     080BVMFE       ON      NM000R$  000000000002100000000000210000000000021000000000002100000000000210000000000000000000000000000002000000000000001300000000000000027300000000000117502013081900000010000000000000BRBVMFACNOR3125
012013072482BVMFT62     080BVMFE       ON      NM000R$  000000000003300000000000340000000000033000000000003300000000000340000000000000000000000000000002000000000000004600000000000000152800000000000122502013081900000010000000000000BRBVMFACNOR3125
012013072482BVMFU11     080BVMFE       ON      NM000R$  000000000001700000000000180000000000017000000000001700000000000180000000000000000000000000000004000000000000001700000000000000029900000000000110002013091600000010000000000000BRBVMFACNOR3125
012013072482BVMFU12     080BVMFE FM    ON      NM000R$  000000000003900000000000420000000000038000000000003800000000000420000000000037000000000004300017000000000000027600000000000001068200000000000120002013091600000010000000000000BRBVMFACNOR3125
012013072482BVMFU13     080BVMFE FM    ON      NM000R$  000000000008600000000000860000000000083000000000008400000000000840000000000053000000000000000007000000000000021200000000000001791900000000000130002013091600000010000000000000BRBVMFACNOR3125
012013072482BVMFU41     080BVMFE FM    ON      NM000R$  000000000002400000000000250000000000024000000000002400000000000250000000000000000000000000000005000000000000007900000000000000195700000000000115002013091600000010000000000000BRBVMFACNOR3125
012013072482BVMFU42     080BVMFE FM    ON      NM000R$  000000000005700000000000580000000000057000000000005700000000000580000000000000000000000000000003000000000000007400000000000000423900000000000125002013091600000010000000000000BRBVMFACNOR3125
012013072482BVMFV13     080BVMFE       ON      NM000R$  000000000009500000000000950000000000095000000000009500000000000950000000000000000000000000000001000000000000005000000000000000475000000000000130002013102100000010000000000000BRBVMFACNOR3125
012013072402CAMB4       010CAMBUCI     PN           R$  000000000018500000000001850000000000185000000000018500000000001850000000000185000000000019900002000000000000009500000000000001757500000000000000009999123100000010000000000000BRCAMBACNPR1117
012013072402CARD3       010CSU CARDSYSTON      NM   R$  000000000032900000000003350000000000328000000000033300000000003350000000000307000000000033500010000000000000020900000000000006976500000000000000009999123100000010000000000000BRCARDACNOR9105
012013072462CARD3T      030CSU CARDSYSTON      NM061R$  000000000033300000000003340000000000333000000000033300000000003340000000000000000000000000000002000000000000003000000000000001000028000000000000009999123100000010000000000000BRCARDACNOR9105
012013072402CBEE3       010AMPLA ENERG ON *         R$  000000000012300000000001240000000000123000000000012300000000001240000000000114000000000012500003000000000000300000000000000000037000000000000000009999123100010000000000000000BRCBEEACNOR3149
012013072496CBMA3F      020COBRASMA    ON           R$  000000000000500000000000050000000000005000000000000500000000000050000000000004000000000000500001000000000000000001000000000000000005000000000000009999123100000010000000000000BRCBMAACNOR4124
012013072402CBMA4       010COBRASMA    PN           R$  000000000000500000000000060000000000005000000000000500000000000050000000000005000000000000600040000000000001380000000000000007000000000000000000009999123100000010000000000000BRCBMAACNPR1124
012013072496CBMA4F      020COBRASMA    PN           R$  000000000000700000000000070000000000006000000000000600000000000060000000000004000000000000700009000000000000018000000000000000119000000000000000009999123100000010000000000000BRCBMAACNPR1124
012013072408CCHI3       010CHIARELLI   ON           R$  000000000003100000000000310000000000029000000000002900000000000300000000000030000000000003100020000000000000470000000000000014040000000000000000009999123100000010000000000000BRCCHIACNOR5123
012013072496CCHI3F      020CHIARELLI   ON           R$  000000000003100000000000310000000000030000000000003000000000000300000000000028000000000003000006000000000000007681000000000000235111000000000000009999123100000010000000000000BRCCHIACNOR5123
012013072462CCHI3T      030CHIARELLI   ON        047R$  000000000003000000000000310000000000030000000000003000000000000310000000000000000000000000000002000000000000050000000000000001515300000000000000009999123100000010000000000000BRCCHIACNOR5123
012013072408CCHI4       010CHIARELLI   PN           R$  000000000002300000000000240000000000023000000000002300000000000240000000000023000000000002400003000000000000030000000000000000710000000000000000009999123100000010000000000000BRCCHIACNPR2122
012013072496CCHI4F      020CHIARELLI   PN           R$  000000000002400000000000270000000000024000000000002400000000000240000000000022000000000002400008000000000000008910000000000000215651000000000000009999123100000010000000000000BRCCHIACNPR2122
012013072402CCPR3       010CYRE COM-CCPON      NM   R$  000000000201000000000020250000000002003000000000202100000000020030000000002003000000000205000006000000000000001500000000000003031700000000000000009999123100000010000000000000BRCCPRACNOR9107
012013072402CCRO3       010CCR SA      ON      NM   R$  000000000172000000000017800000000001707000000000174000000000017500000000001747000000000175209807000000000003676200000000006397787600000000000000009999123100000010000000000000BRCCROACNOR2122
012013072496CCRO3F      020CCR SA      ON      NM   R$  000000000172500000000017800000000001709000000000173900000000017360000000001736000000000176800079000000000000002242000000000003899661000000000000009999123100000010000000000000BRCCROACNOR2122
012013072478CCROH17     070CCRO        ON      NM000R$  000000000006300000000000630000000000063000000000006300000000000630000000000000000000000000000001000000000000500000000000000031500000000000000170002013081900000010000000000000BRCCROACNOR2122
012013072402CCXC3       010CCX CARVAO  ON      NM   R$  000000000009700000000001000000000000094000000000009600000000000960000000000094000000000009600400000000000002140300000000000206671500000000000000009999123100000010000000000000BRCCXCACNOR5100
012013072496CCXC3F      020CCX CARVAO  ON      NM   R$  000000000009800000000001020000000000089000000000009800000000000940000000000094000000000009700010000000000000000192000000000000018904000000000000009999123100000010000000000000BRCCXCACNOR5100
012013072462CCXC3T      030CCX CARVAO  ON      NM030R$  000000000009500000000000960000000000095000000000009500000000000960000000000000000000000000000002000000000000085000000000000008129910000000000000009999123100000010000000000000BRCCXCACNOR5100
012013072402CEBR5       010CEB         PNA          R$  000000000230000000000025170000000002300000000000233600000000025170000000002300000000000251700002000000000000000600000000000001401700000000000000009999123100000010000000000000BRCEBRACNPA8113
012013072496CEDO3F      020CEDRO       ON      N1   R$  000000000120000000000012000000000001001000000000110000000000010010000000000900000000000101000002000000000000000072000000000000079236000000000000009999123100000010000000000000BRCEDOACNOR8094
012013072402CEDO4       010CEDRO       PN      N1   R$  000000000089900000000009400000000000899000000000091900000000009400000000000800000000000094000002000000000000000200000000000000183900000000000000009999123100000010000000000000BRCEDOACNPR5126
012013072402CEEB3       010COELBA      ON           R$  000000000330000000000033000000000003300000000000330000000000033000000000000000000000000350000001000000000000000100000000000000330000000000000000009999123100000010000000000000BRCEEBACNOR3163
012013072402CEED4       010CEEE-D      PN      N1   R$  000000000015900000000001590000000000159000000000015900000000001590000000000100000000000015900001000000000000000100000000000000015900000000000000009999123100000010000000000000BRCEEDACNPR6101
012013072408CELP5       010CELPA       PNA          R$  000000000008000000000000800000000000080000000000008000000000000800000000000075000000000008500005000000000000020100000000000001608000000000000000009999123100000010000000000000BRCELPACNPA1114
012013072408CELP7       010CELPA       PNC          R$  000000000006600000000000660000000000066000000000006600000000000660000000000049000000000006600002000000000000005000000000000000330000000000000000009999123100000010000000000000BRCELPACNPC7114
012013072412CEOC11B     010FII CEO CCP CI      MB   R$  000000000886600000000090610000000008860000000000895700000000090550000000008911000000000905500047000000000000003757000000000033653542000000000000009999123100000010000000000000BRCEOCCTF003108
012013072402CESP6       010CESP        PNB     N1   R$  000000000209400000000020940000000002056000000000206700000000020650000000002065000000000206702971000000000000568600000000001175761900000000000000009999123100000010000000000000BRCESPACNPB4118
012013072496CESP6F      020CESP        PNB     N1   R$  000000000209900000000020990000000002045000000000206100000000020450000000002046000000000208400007000000000000000243000000000000500950000000000000009999123100000010000000000000BRCESPACNPB4118
012013072462CESP6T      030CESP        PNB     N1030R$  000000000207500000000020760000000002075000000000207500000000020760000000000000000000000000000002000000000000010000000000000020758154000000000000009999123100000010000000000000BRCESPACNPB4118
012013072478CESPH21     070CESP        PNB     N1000R$  000000000006000000000000850000000000060000000000007200000000000800000000000000000000000009000005000000000000002000000000000000145500000000000210002013081900000010000000000000BRCESPACNPB4118
012013072402CGAS3       010COMGAS      ON           R$  000000000494900000000049490000000004949000000000494900000000049490000000004461000000000505000001000000000000002200000000000010887800000000000000009999123100000010000000000000BRCGASACNOR0132
012013072402CGAS5       010COMGAS      PNA          R$  000000000542100000000054970000000005421000000000545500000000054700000000005452000000000547000175000000000000042200000000000230201800000000000000009999123100000010000000000000BRCGASACNPA3129
012013072496CGAS5F      020COMGAS      PNA          R$  000000000544000000000054700000000005440000000000546800000000054700000000005440000000000547000002000000000000000017000000000000092960000000000000009999123100000010000000000000BRCGASACNPA3129
012013072462CGAS5T      030COMGAS      PNA       120R$  000000000560800000000056080000000005608000000000560800000000056080000000000000000000000000000001000000000000000001000000000000005608000000000000009999123100000010000000000000BRCGASACNPA3129
012013072402CGRA3       010GRAZZIOTIN  ON           R$  000000000151500000000015150000000001485000000000149400000000014850000000001484000000000148500024000000000000011300000000000016891800000000000000009999123100000010000000000000BRCGRAACNOR2061
012013072402CGRA4       010GRAZZIOTIN  PN           R$  000000000162600000000016400000000001603000000000161800000000016030000000001603000000000162000028000000000000008400000000000013596400000000000000009999123100000010000000000000BRCGRAACNPR9061
012013072496CGRA4F      020GRAZZIOTIN  PN           R$  000000000165000000000016500000000001650000000000165000000000016500000000001650000000000171500003000000000000000100000000000000165000000000000000009999123100000010000000000000BRCGRAACNPR9061
012013072402CIEL3       010CIELO       ON      NM   R$  000000000554200000000055680000000005490000000000552300000000055250000000005506000000000552504434000000000001050300000000005801627700000000000000009999123100000010000000000000BRCIELACNOR3111
012013072496CIEL3F      020CIELO       ON      NM   R$  000000000559000000000055900000000005496000000000552700000000054960000000005496000000000553500071000000000000001808000000000009991187000000000000009999123100000010000000000000BRCIELACNOR3111
012013072402CLSC4       010CELESC      PN      N2   R$  000000000191000000000019100000000001860000000000188000000000018800000000001866000000000189000020000000000000002000000000000003761100000000000000009999123100000010000000000000BRCLSCACNPR3107
012013072496CLSC4F      020CELESC      PN      N2   R$  000000000191000000000019100000000001910000000000191000000000019100000000001753000000000198500001000000000000000010000000000000019100000000000000009999123100000010000000000000BRCLSCACNPR3107
012013072402CMIG3       010CEMIG       ON      N1   R$  000000000219000000000022110000000002139000000000216200000000021450000000002145000000000215000587000000000000146000000000000315681200000000000000009999123100000010000000000000BRCMIGACNOR6208
012013072496CMIG3F      020CEMIG       ON      N1   R$  000000000223600000000022540000000002142000000000217400000000021640000000002176000000000220200044000000000000001216000000000002644565000000000000009999123100000010000000000000BRCMIGACNOR6208
012013072462CMIG3T      030CEMIG       ON      N1180R$  000000000226000000000022610000000002260000000000226000000000022610000000000000000000000000000004000000000000000225000000000000508518000000000000009999123100000010000000000000BRCMIGACNOR6208
012013072402CMIG4       010CEMIG       PN      N1   R$  000000000213400000000021430000000002095000000000211900000000021200000000002115000000000212008291000000000001985000000000004206577900000000000000009999123100000010000000000000BRCMIGACNPR3208
012013072496CMIG4F      020CEMIG       PN      N1   R$  000000000213000000000021580000000002100000000000211900000000021220000000002116000000000212200133000000000000003676000000000007790007000000000000009999123100000010000000000000BRCMIGACNPR3208
012013072462CMIG4S      030CEMIG       PN      N1090R$  000000000216300000000021680000000002163000000000216400000000021680000000000000000000000000000004000000000000007899000000000017093719000000000000009999123100000010000000000000BRCMIGACNPR3208
012013072462CMIG4T      030CEMIG       PN      N1030R$  000000000214200000000021430000000002142000000000214200000000021430000000000000000000000000000002000000000000002000000000000004284203000000000000009999123100000010000000000000BRCMIGACNPR3208
012013072478CMIGH22     070CMIG        PN      N1000R$  000000000003500000000000390000000000028000000000003600000000000350000000000005000000000006000007000000000000008200000000000000302300000000000220002013081900000010000000000000BRCMIGACNPR3208
012013072478CMIGH23     070CMIG        PN      N1000R$  000000000001500000000000170000000000013000000000001500000000000140000000000000000000000000000006000000000000011800000000000000180700000000000230002013081900000010000000000000BRCMIGACNPR3208
012013072482CMIGX20     080CMIGE       PN      N1000R$  000000000008700000000000870000000000087000000000008700000000000870000000000000000000000000000001000000000000250000000000000021750000000000000200002013121600000010000000000000BRCMIGACNPR3208
012013072412CNES11B     010FII CENESP  CI  ER  MB   R$  000000001290000000000129000000000012890000000001289900000000129000000000012501000000001270000004000000000000000060000000000000773940000000000000009999123100000010000000000000BRCNESCTF001124
012013072402COCA11B     010COCA COLA   DRN     MB   R$  000000000914000000000091400000000009140000000000914000000000091400000000009085000000000940000001000000000000000200000000000001828000000000000000009999123100000010000000000000BRCOCABDR002108
012013072402COCE5       010COELCE      PNA          R$  000000000418000000000042330000000004128000000000416800000000041600000000004160000000000416700145000000000000039500000000000164659400000000000000009999123100000010000000000000BRCOCEACNPA3133
012013072496COCE5F      020COELCE      PNA          R$  000000000419900000000042340000000004130000000000420200000000042000000000004013000000000420000019000000000000000510000000000002143147000000000000009999123100000010000000000000BRCOCEACNPA3133
012013072402CPFE3       010CPFL ENERGIAON      NM   R$  000000000213800000000021610000000002075000000000209100000000020900000000002088000000000209004570000000000002066300000000004322034900000000000000009999123100000010000000000000BRCPFEACNOR0121
012013072496CPFE3F      020CPFL ENERGIAON      NM   R$  000000000215200000000021580000000002081000000000211200000000021000000000002080000000000211500022000000000000000566000000000001195534000000000000009999123100000010000000000000BRCPFEACNOR0121
012013072402CPLE3       010COPEL       ON      N1   R$  000000000228500000000023790000000002192000000000222300000000022250000000002225000000000225000232000000000000070300000000000156319800000000000000009999123100000010000000000000BRCPLEACNOR8128
012013072402CPLE6       010COPEL       PNB     N1   R$  000000000295000000000029590000000002862000000000289300000000028660000000002866000000000287501817000000000000300200000000000868615100000000000000009999123100000010000000000000BRCPLEACNPB9125
012013072496CPLE6F      020COPEL       PNB     N1   R$  000000000292000000000029400000000002851000000000290400000000028650000000002850000000000294500023000000000000000562000000000001632071000000000000009999123100000010000000000000BRCPLEACNPB9125
012013072402CPRE3       010CPFL RENOVAVON      NM   R$  000000000117500000000011800000000001163000000000117200000000011700000000001170000000000118300103000000000000102700000000000120432000000000000000009999123100000010000000000000BRCPREACNOR5100
012013072496CPRE3F      020CPFL RENOVAVON      NM   R$  000000000118100000000011810000000001161000000000117100000000011660000000001166000000000117400051000000000000002191000000000002567176000000000000009999123100000010000000000000BRCPREACNOR5100
012013072462CPRE3T      030CPFL RENOVAVON      NM016R$  000000000117200000000011730000000001172000000000117200000000011730000000000000000000000000000002000000000000000399000000000000467635000000000000009999123100000010000000000000BRCPREACNOR5100
012013072462CPRE3T      030CPFL RENOVAVON      NM019R$  000000000118000000000011810000000001180000000000118000000000011810000000000000000000000000000002000000000000007993000000000009435916000000000000009999123100000010000000000000BRCPREACNOR5100
012013072402CRDE3       010CR2         ON      NM   R$  000000000040000000000004000000000000395000000000039900000000003950000000000395000000000040500004000000000000003800000000000001518000000000000000009999123100000010000000000000BRCRDEACNOR1108
012013072402CREM3       010CREMER      ON      NM   R$  000000000141400000000014140000000001414000000000141400000000014140000000001414000000000142900001000000000000000100000000000000141400000000000000009999123100000010000000000000BRCREMACNOR2166
012013072402CRIV3       010ALFA FINANC ON           R$  000000000055800000000005580000000000558000000000055800000000005580000000000515000000000056800001000000000000004900000000000002734200000000000000009999123100000010000000000000BRCRIVACNOR4189
012013072402CRIV4       010ALFA FINANC PN           R$  000000000048000000000004890000000000480000000000048500000000004890000000000479000000000048900004000000000000000700000000000000339500000000000000009999123100000010000000000000BRCRIVACNPR1189
012013072496CRIV4F      020ALFA FINANC PN           R$  000000000048000000000004800000000000480000000000048000000000004800000000000455000000000048000001000000000000000010000000000000004800000000000000009999123100000010000000000000BRCRIVACNPR1189
012013072402CRUZ3       010SOUZA CRUZ  ON           R$  000000000283000000000028400000000002765000000000279500000000027850000000002784000000000278504274000000000000847100000000002368376200000000000000009999123100000010000000000000BRCRUZACNOR0246
012013072496CRUZ3F      020SOUZA CRUZ  ON           R$  000000000288700000000028960000000002779000000000281200000000028190000000002780000000000281900046000000000000001160000000000003261988000000000000009999123100000010000000000000BRCRUZACNOR0246
012013072462CRUZ3T      030SOUZA CRUZ  ON        183R$  000000000291700000000029180000000002917000000000291700000000029180000000000000000000000000000002000000000000005000000000000014587515000000000000009999123100000010000000000000BRCRUZACNOR0246
012013072478CRUZE82     070CRUZ        ON        000R$  000000000011200000000001120000000000112000000000011200000000001120000000000000000000000000000001000000000000003200000000000000358400000000000319902014051900000010000000000000BRCRUZACNOR0245
012013072496CSAB4F      020SEG AL BAHIAPN           R$  000000000301500000000030150000000003015000000000301500000000030150000000002907000000000500000003000000000000000065000000000000195975000000000000009999123100000010000000000000BRCSABACNPR8051
012013072402CSAN3       010COSAN       ON      NM   R$  000000000438900000000044180000000004308000000000433800000000043390000000004325000000000433902452000000000000560900000000002433487200000000000000009999123100000010000000000000BRCSANACNOR6107
012013072496CSAN3F      020COSAN       ON      NM   R$  000000000443000000000044770000000004301000000000434400000000043480000000004300000000000434800056000000000000001502000000000006525880000000000000009999123100000010000000000000BRCSANACNOR6107
012013072462CSAN3T      030COSAN       ON      NM016R$  000000000436700000000043680000000004367000000000436700000000043680000000000000000000000000000002000000000000001000000000000004367835000000000000009999123100000010000000000000BRCSANACNOR6107
012013072462CSAN3T      030COSAN       ON      NM090R$  000000000444500000000044540000000004444000000000444700000000044450000000000000000000000000000020000000000000100000000000000444792696000000000000009999123100000010000000000000BRCSANACNOR6107
012013072402CSCO11B     010CISCO       DRN     MB   R$  000000000580500000000058050000000005805000000000580500000000058050000000005100000000000630000001000000000000000200000000000001161000000000000000009999123100000010000000000000BRCSCOBDR004110
012013072402CSMG3       010COPASA      ON      NM   R$  000000000360000000000036500000000003489000000000355600000000035200000000003507000000000352301923000000000000290100000000001031732400000000000000009999123100000010000000000000BRCSMGACNOR5127
012013072496CSMG3F      020COPASA      ON      NM   R$  000000000367200000000036720000000003510000000000360200000000035100000000003300000000000351500019000000000000000567000000000002040497000000000000009999123100000010000000000000BRCSMGACNOR5127
012013072414CSMO11      010ISHARES CSMOCI           R$  000000000455100000000045510000000004534000000000453500000000045340000000003800000000000460000002000000000000000090000000000000408230000000000000009999123100000010000000000000BRCSMOCTF002100
012013072402CSNA3       010SID NACIONALON           R$  000000000064800000000006480000000000626000000000063400000000006310000000000631000000000063208060000000000005760300000000003652234000000000000000009999123100000010000000000000BRCSNAACNOR6242
012013072496CSNA3F      020SID NACIONALON           R$  000000000066400000000006640000000000625000000000063500000000006320000000000632000000000064100055000000000000001269000000000000806632000000000000009999123100000010000000000000BRCSNAACNOR6242
012013072462CSNA3T      030SID NACIONALON        030R$  000000000063800000000006390000000000632000000000063300000000006380000000000000000000000000000006000000000000036000000000000022796296000000000000009999123100000010000000000000BRCSNAACNOR6242
012013072462CSNA3T      030SID NACIONALON        061R$  000000000065600000000006570000000000656000000000065600000000006570000000000000000000000000000002000000000000001500000000000000984636000000000000009999123100000010000000000000BRCSNAACNOR6242
012013072462CSNA3T      030SID NACIONALON        090R$  000000000065800000000006610000000000658000000000065900000000006610000000000000000000000000000004000000000000010000000000000006595518000000000000009999123100000010000000000000BRCSNAACNOR6242
012013072478CSNAH6      070CSNA        ON        000R$  000000000005500000000000550000000000047000000000005000000000000490000000000000000000000005600011000000000000022300000000000001116200000000000060002013081900000010000000000000BRCSNAACNOR6242
012013072478CSNAH62     070CSNA  FM    ON        000R$  000000000003700000000000370000000000036000000000003600000000000360000000000000000000000000000005000000000000010500000000000000385000000000000062002013081900000010000000000000BRCSNAACNOR6242
012013072478CSNAH64     070CSNA  FM    ON        000R$  000000000002800000000000280000000000028000000000002800000000000280000000000000000000000005000001000000000000003500000000000000098000000000000064002013081900000010000000000000BRCSNAACNOR6242
012013072478CSNAH65     070CSNAE       ON        000R$  000000000002100000000000210000000000021000000000002100000000000210000000000000000000000000000001000000000000002500000000000000052500000000000065002013081900000010000000000000BRCSNAACNOR6242
012013072478CSNAH66     070CSNA  FM    ON        000R$  000000000001800000000000180000000000018000000000001800000000000180000000000000000000000000000003000000000000007700000000000000138600000000000066002013081900000010000000000000BRCSNAACNOR6242
012013072478CSNAH68     070CSNA  FM    ON        000R$  000000000001200000000000120000000000012000000000001200000000000120000000000003000000000006000001000000000000001000000000000000012000000000000068002013081900000010000000000000BRCSNAACNOR6242
012013072478CSNAH7      070CSNA  FM    ON        000R$  000000000001000000000000100000000000007000000000000800000000000080000000000000000000000000900005000000000000022300000000000000181600000000000070002013081900000010000000000000BRCSNAACNOR6242
012013072478CSNAH9      070CSNA        ON        000R$  000000000000200000000000020000000000002000000000000200000000000020000000000000000000000000300001000000000000005000000000000000010000000000000086702013081900000010000000000000BRCSNAACNOR6241
012013072478CSNAI64     070CSNA  FM    ON        000R$  000000000004400000000000440000000000040000000000004200000000000400000000000000000000000000000003000000000000006500000000000000274000000000000064002013091600000010000000000000BRCSNAACNOR6242
012013072478CSNAI66     070CSNA  FM    ON        000R$  000000000003400000000000340000000000032000000000003300000000000330000000000000000000000000000003000000000000008300000000000000276100000000000066002013091600000010000000000000BRCSNAACNOR6242
012013072478CSNAJ62     070CSNA        ON        000R$  000000000006700000000000670000000000067000000000006700000000000670000000000000000000000000000001000000000000000300000000000000020100000000000062002013102100000010000000000000BRCSNAACNOR6242
012013072482CSNAT58     080CSNAE       ON        000R$  000000000001000000000000100000000000010000000000001000000000000100000000000000000000000000000003000000000000003000000000000000030000000000000058002013081900000010000000000000BRCSNAACNOR6242
012013072482CSNAT6      080CSNAE FM    ON        000R$  000000000001400000000000140000000000014000000000001400000000000140000000000000000000000000000004000000000000006000000000000000084000000000000060002013081900000010000000000000BRCSNAACNOR6242
012013072482CSNAT62     080CSNAE FM    ON        000R$  000000000002100000000000210000000000021000000000002100000000000210000000000000000000000000000001000000000000002000000000000000042000000000000062002013081900000010000000000000BRCSNAACNOR6242
012013072482CSNAT66     080CSNAE FM    ON        000R$  000000000003600000000000430000000000035000000000003800000000000430000000000000000000000000000005000000000000009500000000000000368500000000000066002013081900000010000000000000BRCSNAACNOR6242
012013072482CSNAT7      080CSNAE       ON        000R$  000000000007000000000000700000000000070000000000007000000000000700000000000000000000000000000002000000000000015000000000000001050000000000000070002013081900000010000000000000BRCSNAACNOR6242
012013072482CSNAU66     080CSNAE FM    ON        000R$  000000000005000000000000500000000000050000000000005000000000000500000000000000000000000000000001000000000000001000000000000000050000000000000066002013091600000010000000000000BRCSNAACNOR6242
012013072482CSNAU7      080CSNAE       ON        000R$  000000000007900000000000800000000000079000000000007900000000000800000000000061000000000008100002000000000000000200000000000000015900000000000070002013091600000010000000000000BRCSNAACNOR6242
012013072402CTAX11      010CONTAX      UNT     N2   R$  000000000172100000000018240000000001713000000000172900000000017300000000001715000000000173000068000000000000047000000000000081305200000000000000009999123100000010000000000000BRCTAXCDAM19100
012013072496CTAX11F     020CONTAX      UNT     N2   R$  000000000172400000000017240000000001712000000000171800000000017120000000001712000000000188800002000000000000000045000000000000077340000000000000009999123100000010000000000000BRCTAXCDAM19100
012013072402CTAX3       010CONTAX      ON      N2   R$  000000000039000000000004010000000000390000000000039700000000003960000000000396000000000044000021000000000000004100000000000001627700000000000000009999123100000010000000000000BRCTAXACNOR3113
012013072402CTAX4       010CONTAX      PN      N2   R$  000000000035600000000003600000000000332000000000033800000000003320000000000332000000000033900109000000000000047500000000000016100900000000000000009999123100000010000000000000BRCTAXACNPR0114
012013072402CTGP11B     010CITIGROUP   DRN     MB   R$  000000001187900000000118790000000011879000000001187900000000118790000000011670000000001179000001000000000000000500000000000005939500000000000000009999123100000010000000000000BRCTGPBDR000110
012013072402CTIP3       010CETIP       ON      NM   R$  000000000230000000000023070000000002243000000000227800000000023070000000002292000000000230706141000000000001111500000000002532243500000000000000009999123100000010000000000000BRCTIPACNOR2119
012013072496CTIP3F      020CETIP       ON      NM   R$  000000000228100000000022990000000002247000000000227000000000022750000000002275000000000249900035000000000000001075000000000002440628000000000000009999123100000010000000000000BRCTIPACNOR2119
012013072402CTNM4       010COTEMINAS   PN           R$  000000000024000000000002400000000000233000000000023300000000002330000000000233000000000023900142000000000000057700000000000013491300000000000000009999123100000010000000000000BRCTNMACNPR6128
012013072402CTSA3       010SANTANENSE  ON           R$  000000000054600000000005490000000000530000000000053600000000005460000000000530000000000054600009000000000000007100000000000003810400000000000000009999123100000010000000000000BRCTSAACNOR3051
012013072462CTSA3T      030SANTANENSE  ON        090R$  000000000055400000000005550000000000554000000000055400000000005550000000000000000000000000000002000000000000002800000000000001551837000000000000009999123100000010000000000000BRCTSAACNOR3051
012013072402CYRE3       010CYRELA REALTON      NM   R$  000000000167700000000016930000000001651000000000166600000000016540000000001654000000000165509037000000000002429600000000004048543700000000000000009999123100000010000000000000BRCYREACNOR7125
012013072496CYRE3F      020CYRELA REALTON      NM   R$  000000000174300000000017430000000001637000000000166800000000016370000000001637000000000173800026000000000000000573000000000000956319000000000000009999123100000010000000000000BRCYREACNOR7125
012013072478CYREH16     070CYRE  FM    ON      NM000R$  000000000010300000000001130000000000102000000000010400000000001020000000000000000000000000000013000000000000044100000000000004623800000000000160002013081900000010000000000000BRCYREACNOR7125
012013072478CYREH17     070CYRE  FM    ON      NM000R$  000000000004400000000000450000000000042000000000004300000000000420000000000000000000000000000004000000000000021000000000000000920500000000000170002013081900000010000000000000BRCYREACNOR7125
012013072478CYREH18     070CYRE  FM    ON      NM000R$  000000000001300000000000130000000000013000000000001300000000000130000000000000000000000000000001000000000000001000000000000000013000000000000180002013081900000010000000000000BRCYREACNOR7125
012013072478CYREH46     070CYRE  FM    ON      NM000R$  000000000007200000000000720000000000069000000000007000000000000710000000000000000000000000000004000000000000021000000000000001480500000000000165002013081900000010000000000000BRCYREACNOR7125
012013072478CYREI16     070CYRE  FM    ON      NM000R$  000000000013100000000001310000000000131000000000013100000000001310000000000000000000000000000001000000000000003500000000000000458500000000000160002013091600000010000000000000BRCYREACNOR7125
012013072478CYREI46     070CYRE  FM    ON      NM000R$  000000000009800000000000990000000000098000000000009800000000000990000000000000000000000000000002000000000000003900000000000000383600000000000165002013091600000010000000000000BRCYREACNOR7125
012013072478CYREJ19     070CYRE        ON      NM000R$  000000000002900000000000290000000000029000000000002900000000000290000000000000000000000000000001000000000000001000000000000000029000000000000190002013102100000010000000000000BRCYREACNOR7125
012013072478CYREJ49     070CYRE        ON      NM000R$  000000000002000000000000200000000000020000000000002000000000000200000000000000000000000000000001000000000000001000000000000000020000000000000195002013102100000010000000000000BRCYREACNOR7125
012013072482CYRET15     080CYREE       ON      NM000R$  000000000000900000000000090000000000009000000000000900000000000090000000000000000000000000000001000000000000000100000000000000000900000000000150002013081900000010000000000000BRCYREACNOR7125
012013072482CYRET16     080CYREE FM    ON      NM000R$  000000000002200000000000260000000000022000000000002500000000000260000000000000000000000000000003000000000000024300000000000000630400000000000160002013081900000010000000000000BRCYREACNOR7125
012013072482CYRET17     080CYREE FM    ON      NM000R$  000000000005800000000000670000000000058000000000006500000000000640000000000000000000000000000015000000000000043000000000000002837500000000000170002013081900000010000000000000BRCYREACNOR7125
012013072482CYRET46     080CYREE FM    ON      NM000R$  000000000003900000000000470000000000039000000000004100000000000470000000000000000000000000000005000000000000017400000000000000727600000000000165002013081900000010000000000000BRCYREACNOR7125
012013072482CYRET47     080CYREE FM    ON      NM000R$  000000000008700000000001080000000000087000000000009700000000001080000000000000000000000000000009000000000000016100000000000001575700000000000175002013081900000010000000000000BRCYREACNOR7125
012013072482CYREU17     080CYREE FM    ON      NM000R$  000000000007700000000000770000000000077000000000007700000000000770000000000000000000000000000001000000000000003500000000000000269500000000000170002013091600000010000000000000BRCYREACNOR7125
012013072482CYREU47     080CYREE FM    ON      NM000R$  000000000010100000000001080000000000101000000000010400000000001080000000000000000000000000000005000000000000009900000000000001030000000000000175002013091600000010000000000000BRCYREACNOR7125
012013072402CZLT11      010COSAN LTD   DR3          R$  000000000371300000000037850000000003700000000000372100000000037050000000003705000000000376000599000000000000198600000000000739168600000000000000009999123100000010000000000000BRCZLTBDR009104
012013072496CZLT11F     020COSAN LTD   DR3          R$  000000000383200000000038320000000003832000000000383200000000038320000000003210000000000430000001000000000000000048000000000000183936000000000000009999123100000010000000000000BRCZLTBDR009104
012013072402DAGB11      010DUFRY AG    DR3          R$  000000002930000000000295900000000028919000000002933900000000295500000000029550000000002959800524000000000000019051000000000558943331000000000000009999123100000010000000000000BRDAGBBDR008100
012013072402DASA3       010DASA        ON      NM   R$  000000000124900000000012530000000001207000000000122200000000012150000000001214000000000121505250000000000000932200000000001139945100000000000000009999123100000010000000000000BRDASAACNOR1108
