00COTAHIST.2013BOVESPA 20131023                                                                                                                                                                                                                      
012013102302AAPL34      010APPLE       DRN          R$  000000001150000000000115000000000011406000000001140600000000114060000000011390000000001153500002000000000000011100000000000126616000000000000000009999123100000010000000000000BRAAPLBDR004105
012013102302ABCB4       010ABC BRASIL  PN      N2   R$  000000000135600000000013610000000001301000000000132600000000013200000000001320000000000132200623000000000000175500000000000232734200000000000000009999123100000010000000000000BRABCBACNPR4120
012013102396ABCB4F      020ABC BRASIL  PN      N2   R$  000000000135600000000013560000000001301000000000133400000000013010000000001301000000000132900014000000000000000263000000000000351096000000000000009999123100000010000000000000BRABCBACNPR4120
012013102312ABCP11      010FII ABC IMOBCI           R$  000000000094700000000009600000000000946000000000094800000000009460000000000946000000000099000009000000000000001148000000000001088708000000000000009999123100000010000000000000BRABCPCTF000216
012013102302ABRE11      010ABRIL EDUCA UNT     N2   R$  000000000320900000000032090000000003109000000000314500000000031340000000003122000000000313400346000000000000055800000000000175492400000000000000009999123100000010000000000000BRABRECDAM15102
012013102396ABRE11F     020ABRIL EDUCA UNT     N2   R$  000000000320000000000032000000000003130000000000317800000000031350000000003001000000000326800007000000000000000110000000000000349601000000000000009999123100000010000000000000BRABRECDAM15102
012013102302AEDU3       010ANHANGUERA  ON      NM   R$  000000000131500000000013180000000001295000000000130400000000013170000000001307000000000131706354000000000004126500000000005381463600000000000000009999123100000010000000000000BRAEDUACNOR9107
012013102396AEDU3F      020ANHANGUERA  ON      NM   R$  000000000130500000000013110000000001291000000000129600000000013110000000001310000000000133200021000000000000000732000000000000949279000000000000009999123100000010000000000000BRAEDUACNOR9107
012013102362AEDU3T      030ANHANGUERA  ON      NM016R$  000000000130100000000013020000000001301000000000130100000000013020000000000000000000000000000002000000000000005000000000000006508512000000000000009999123100000010000000000000BRAEDUACNOR9107
012013102312AEFI11      010FII AESAPAR CI           R$  000000001210000000000121390000000012100000000001212200000000121000000000012100000000001213900012000000000000000488000000000005915559000000000000009999123100000010000000000000BRAEFICTF002122
012013102302AELP3       010AES ELPA    ON           R$  000000000098000000000009890000000000975000000000098000000000009890000000000910000000000098900009000000000000001200000000000001176200000000000000009999123100000010000000000000BRAELPACNOR2119
012013102302AFLT3       010AFLUENTE T  ON           R$  000000000035900000000003590000000000359000000000035900000000003590000000000300000000000035900001000000000000000100000000000000035900000000000000009999123100000010000000000000BRAFLTACNOR1104
012013102396AFLT3F      020AFLUENTE T  ON           R$  000000000035000000000003500000000000350000000000035000000000003500000000000300000000000000000001000000000000000031000000000000010850000000000000009999123100000010000000000000BRAFLTACNOR1104
012013102312AGCX11      010FII AG CAIXACI           R$  000000009450100000000948000000000094000000000009426600000000940000000000094100000000009479900016000000000000000123000000000011594734000000000000009999123100000010000000000000BRAGCXCTF003111
012013102302AGRO3       010BRASILAGRO  ON      NM   R$  000000000099500000000010080000000000992000000000099800000000010080000000000993000000000100800040000000000000081000000000000080875300000000000000009999123100000010000000000000BRAGROACNOR7102
012013102362AGRO3T      030BRASILAGRO  ON      NM030R$  000000000100400000000010050000000001004000000000100400000000010050000000000000000000000000000002000000000000010000000000000010041784000000000000009999123100000010000000000000BRAGROACNOR7102
012013102302ALLL3       010ALL AMER LATON      NM   R$  000000000084500000000008530000000000841000000000084700000000008440000000000844000000000084505689000000000002371100000000002008497600000000000000009999123100000010000000000000BRALLLACNOR6118
012013102396ALLL3F      020ALL AMER LATON      NM   R$  000000000084100000000008510000000000839000000000084500000000008450000000000839000000000084900034000000000000000955000000000000807533000000000000009999123100000010000000000000BRALLLACNOR6118
012013102362ALLL3T      030ALL AMER LATON      NM016R$  000000000085000000000008510000000000850000000000085000000000008510000000000000000000000000000002000000000000003000000000000002552180000000000000009999123100000010000000000000BRALLLACNOR6118
012013102362ALLL3T      030ALL AMER LATON      NM030R$  000000000085200000000008550000000000852000000000085400000000008550000000000000000000000000000006000000000000023400000000000019984289000000000000009999123100000010000000000000BRALLLACNOR6118
012013102362ALLL3T      030ALL AMER LATON      NM047R$  000000000085600000000008570000000000856000000000085600000000008570000000000000000000000000000002000000000000015000000000000012844755000000000000009999123100000010000000000000BRALLLACNOR6118
012013102362ALLL3T      030ALL AMER LATON      NM061R$  000000000086000000000008610000000000860000000000086000000000008610000000000000000000000000000002000000000000001000000000000000860042000000000000009999123100000010000000000000BRALLLACNOR6118
012013102362ALLL3T      030ALL AMER LATON      NM090R$  000000000086600000000008680000000000862000000000086600000000008630000000000000000000000000000008000000000000057000000000000049409253000000000000009999123100000010000000000000BRALLLACNOR6118
012013102378ALLLL11     070ALLL        ON      NM000R$  000000000001200000000000120000000000012000000000001200000000000120000000000000000000000000000001000000000000000500000000000000006000000000000110002013121600000010000000000000BRALLLACNOR6118
012013102312ALMI11B     010FII TORRE ALCI      MB   R$  000000032490000000003250010000000324900000000032499200000003250010000000325000000000032950000004000000000000000012000000000003899905000000000000009999123100000010000000000000BRALMICTF003206
012013102302ALPA3       010ALPARGATAS  ON      N1   R$  000000000136500000000013650000000001312000000000133100000000013130000000001280000000000131300012000000000000011500000000000015307600000000000000009999123100000010000000000000BRALPAACNOR0203
012013102362ALPA3T      030ALPARGATAS  ON      N1030R$  000000000137400000000013750000000001374000000000137400000000013750000000000000000000000000000002000000000000004000000000000005499858000000000000009999123100000010000000000000BRALPAACNOR0203
012013102302ALPA4       010ALPARGATAS  PN      N1   R$  000000000151800000000015180000000001480000000000149900000000015040000000001500000000000150401030000000000000282600000000000423802300000000000000009999123100000010000000000000BRALPAACNPR7203
012013102396ALPA4F      020ALPARGATAS  PN      N1   R$  000000000151500000000015440000000001500000000000152200000000015000000000001500000000000154500008000000000000000120000000000000182755000000000000009999123100000010000000000000BRALPAACNPR7203
012013102302ALSC3       010ALIANSCE    ON      NM   R$  000000000219800000000022090000000002159000000000217600000000021670000000002164000000000216701080000000000000186500000000000405928000000000000000009999123100000010000000000000BRALSCACNOR0104
012013102396ALSC3F      020ALIANSCE    ON      NM   R$  000000000219500000000022000000000002175000000000218100000000022000000000002140000000000218000012000000000000000271000000000000591117000000000000009999123100000010000000000000BRALSCACNOR0104
012013102362ALSC3T      030ALIANSCE    ON      NM181R$  000000000230400000000023050000000002304000000000230400000000023050000000000000000000000000000002000000000000002000000000000004608965000000000000009999123100000010000000000000BRALSCACNOR0104
012013102302ALUP11      010ALUPAR      UNT     N2   R$  000000000172000000000017290000000001694000000000171400000000017200000000001702000000000172000682000000000000471300000000000807858700000000000000009999123100000010000000000000BRALUPCDAM15100
012013102396ALUP11F     020ALUPAR      UNT     N2   R$  000000000171500000000017260000000001700000000000170900000000017000000000001698000000000175000016000000000000000299000000000000511191000000000000009999123100000010000000000000BRALUPCDAM15100
012013102302AMAR3       010LOJAS MARISAON      NM   R$  000000000206500000000020830000000002041000000000205800000000020410000000002041000000000204501389000000000000242800000000000499716100000000000000009999123100000010000000000000BRAMARACNOR4109
012013102396AMAR3F      020LOJAS MARISAON      NM   R$  000000000205100000000020790000000002050000000000206100000000020650000000002040000000000206500008000000000000000215000000000000443314000000000000009999123100000010000000000000BRAMARACNOR4109
012013102362AMAR3T      030LOJAS MARISAON      NM016R$  000000000205100000000020520000000002051000000000205100000000020520000000000000000000000000000002000000000000005000000000000010256025000000000000009999123100000010000000000000BRAMARACNOR4109
012013102362AMAR3T      030LOJAS MARISAON      NM040R$  000000000208100000000020820000000002081000000000208100000000020820000000000000000000000000000002000000000000020000000000000041632200000000000000009999123100000010000000000000BRAMARACNOR4109
012013102362AMAR3T      030LOJAS MARISAON      NM090R$  000000000211200000000021130000000002112000000000211200000000021130000000000000000000000000000002000000000000003500000000000007393697000000000000009999123100000010000000000000BRAMARACNOR4109
012013102302AMBV3       010AMBEV       ON           R$  000000000866000000000086600000000008450000000000851000000000084500000000008450000000000848001211000000000000206500000000001757361800000000000000009999123100000010000000000000BRAMBVACNOR4154
012013102396AMBV3F      020AMBEV       ON           R$  000000000863500000000087180000000008490000000000855700000000084900000000008451000000000876000043000000000000000926000000000007924114000000000000009999123100000010000000000000BRAMBVACNOR4154
012013102362AMBV3T      030AMBEV       ON        030R$  000000000859100000000085920000000008591000000000859100000000085920000000000000000000000000000002000000000000001000000000000008591416000000000000009999123100000010000000000000BRAMBVACNOR4154
012013102362AMBV3T      030AMBEV       ON        061R$  000000000867300000000086740000000008673000000000867300000000086740000000000000000000000000000002000000000000000500000000000004336640000000000000009999123100000010000000000000BRAMBVACNOR4154
012013102302AMBV4       010AMBEV       PN           R$  000000000868100000000086820000000008466000000000853200000000084950000000008495000000000849608075000000000001867200000000015931539000000000000000009999123100000010000000000000BRAMBVACNPR1154
012013102396AMBV4F      020AMBEV       PN           R$  000000000871900000000087190000000008473000000000853700000000084730000000008473000000000859500201000000000000004818000000000041132825000000000000009999123100000010000000000000BRAMBVACNPR1154
012013102362AMBV4T      030AMBEV       PN        016R$  000000000854400000000085450000000008538000000000854000000000085390000000000000000000000000000004000000000000001500000000000012810465000000000000009999123100000010000000000000BRAMBVACNPR1154
012013102362AMBV4T      030AMBEV       PN        030R$  000000000859300000000085940000000008537000000000857200000000085380000000000000000000000000000006000000000000001200000000000010286613000000000000009999123100000010000000000000BRAMBVACNPR1154
012013102362AMBV4T      030AMBEV       PN        061R$  000000000865200000000086530000000008647000000000865100000000086480000000000000000000000000000004000000000000001500000000000012976511000000000000009999123100000010000000000000BRAMBVACNPR1154
012013102362AMBV4T      030AMBEV       PN        181R$  000000000895000000000089550000000008932000000000894700000000089550000000000000000000000000000010000000000000002500000000000022369535000000000000009999123100000010000000000000BRAMBVACNPR1154
012013102378AMBVK87     070AMBV        PN        000R$  000000000014500000000001450000000000110000000000012500000000001400000000000000000000000000000018000000000000011000000000000001382000000000000863502013111800000010000000000000BRAMBVACNPR1153
012013102378AMBVK88     070AMBV        PN        000R$  000000000004800000000000610000000000048000000000005400000000000610000000000035000000000000000006000000000000001000000000000000054400000000000880002013111800000010000000000000BRAMBVACNPR1154
012013102378AMBVL88     070AMBV        PN        000R$  000000000017300000000001730000000000173000000000017300000000001730000000000000000000000000000001000000000000000500000000000000086500000000000873502013121600000010000000000000BRAMBVACNPR1153
012013102378AMBVL89     070AMBV        PN        000R$  000000000010300000000001200000000000103000000000010400000000001040000000000100000000000000000003000000000000002600000000000000271900000000000890002013121600000010000000000000BRAMBVACNPR1154
012013102378AMBVL93     070AMBV        PN        000R$  000000000004000000000000450000000000040000000000004100000000000430000000000000000000000000000007000000000000001400000000000000057600000000000930002013121600000010000000000000BRAMBVACNPR1154
012013102382AMBVW10     080AMBVE       PN        000R$  000000000146800000000014680000000001468000000000146800000000014680000000000000000000000000000002000000000000025000000000000036700000000000001000002013111800000010000000000000BRAMBVACNPR1154
012013102382AMBVW12     080AMBVE       PN        000R$  000000000342900000000034290000000003429000000000342900000000034290000000000000000000000000000002000000000000025000000000000085725000000000001200002013111800000010000000000000BRAMBVACNPR1154
012013102382AMBVX82     080AMBVE       PN        000R$  000000000007500000000000750000000000071000000000007300000000000710000000000000000000000000000002000000000000004900000000000000357900000000000820002013121600000010000000000000BRAMBVACNPR1154
012013102302AORE3       010ALL ORE     ON           R$  000000000009900000000000990000000000083000000000009600000000000990000000000091000000000009900033000000000000011800000000000001135900000000000000009999123100000010000000000000BRAOREACNOR2100
012013102396AORE3F      020ALL ORE     ON           R$  000000000009900000000000990000000000099000000000009900000000000990000000000071000000000009900002000000000000000010000000000000000990000000000000009999123100000010000000000000BRAOREACNOR2100
012013102302ARTR3       010ARTERIS     ON      NM   R$  000000000206600000000020840000000002040000000000206500000000020690000000002069000000000208501396000000000000387500000000000800576300000000000000009999123100000010000000000000BRARTRACNOR3101
012013102396ARTR3F      020ARTERIS     ON      NM   R$  000000000204800000000021740000000001970000000000205800000000021740000000002066000000000219900039000000000000000971000000000001999257000000000000009999123100000010000000000000BRARTRACNOR3101
012013102302ARZZ3       010AREZZO CO   ON      NM   R$  000000000357700000000035990000000003450000000000349800000000034500000000003450000000000349901897000000000000301200000000001053834200000000000000009999123100000010000000000000BRARZZACNOR3109
012013102396ARZZ3F      020AREZZO CO   ON      NM   R$  000000000359600000000035960000000003465000000000351100000000034720000000003461000000000359400024000000000000000698000000000002451090000000000000009999123100000010000000000000BRARZZACNOR3109
012013102362ARZZ3T      030AREZZO CO   ON      NM016R$  000000000346500000000034660000000003465000000000346500000000034660000000000000000000000000000002000000000000001000000000000003465180000000000000009999123100000010000000000000BRARZZACNOR3109
012013102362ARZZ3T      030AREZZO CO   ON      NM061R$  000000000355200000000035530000000003552000000000355200000000035530000000000000000000000000000002000000000000001500000000000005329335000000000000009999123100000010000000000000BRARZZACNOR3109
012013102362ARZZ3T      030AREZZO CO   ON      NM120R$  000000000361800000000036190000000003618000000000361800000000036190000000000000000000000000000002000000000000000300000000000001085495000000000000009999123100000010000000000000BRARZZACNOR3109
012013102302AUTM3       010AUTOMETAL   ON      NM   R$  000000000182900000000018310000000001786000000000180400000000018090000000001809000000000181700254000000000000063700000000000114948200000000000000009999123100000010000000000000BRAUTMACNOR8109
012013102396AUTM3F      020AUTOMETAL   ON      NM   R$  000000000180400000000018050000000001705000000000177300000000018010000000001700000000000180000005000000000000000163000000000000289020000000000000009999123100000010000000000000BRAUTMACNOR8109
012013102302AXPB34      010AMERICAN EXPDRN          R$  000000001771600000000177160000000017716000000001771600000000177160000000017403000000001791800001000000000000000100000000000001771600000000000000009999123100000010000000000000BRAXPBBDR007106
012013102302BAHI3       010BAHEMA      ON           R$  000000000050000000000005000000000000500000000000050000000000005000000000000471000000000050400001000000000000000100000000000000050000000000000000009999123100000010000000000000BRBAHIACNOR1066
012013102302BAUH4       010EXCELSIOR   PN           R$  000000000103500000000010350000000001035000000000103500000000010350000000000985000000000103500001000000000000000200000000000000207000000000000000009999123100000010000000000000BRBAUHACNPR3108
012013102396BAUH4F      020EXCELSIOR   PN           R$  000000000106100000000010610000000001061000000000106100000000010610000000001061000000000110000002000000000000000086000000000000091246000000000000009999123100000010000000000000BRBAUHACNPR3108
012013102302BAZA3       010AMAZONIA    ON           R$  000000000003400000000000340000000000034000000000003400000000000340000000000033000000000003400001000000000000003000000000000000102000000000000000009999123100000010000000000000BRBAZAACNOR0163
012013102396BAZA3F      020AMAZONIA    ON           R$  000000000003300000000000340000000000033000000000003300000000000330000000000033000000000003500004000000000000000191000000000000006349000000000000009999123100000010000000000000BRBAZAACNOR0163
012013102302BBAS3       010BRASIL      ON      NM   R$  000000000280300000000028290000000002798000000000281000000000028000000000002800000000000280612189000000000004997000000000014044511900000000000000009999123100000010000000000000BRBBASACNOR3239
012013102396BBAS3F      020BRASIL      ON      NM   R$  000000000278800000000028290000000002788000000000281000000000028000000000002790000000000280000244000000000000007625000000000021428900000000000000009999123100000010000000000000BRBBASACNOR3239
012013102362BBAS3T      030BRASIL      ON      NM016R$  000000000281800000000028190000000002818000000000281800000000028190000000000000000000000000000002000000000000010000000000000028183464000000000000009999123100000010000000000000BRBBASACNOR3239
012013102362BBAS3T      030BRASIL      ON      NM030R$  000000000283800000000028390000000002838000000000283800000000028390000000000000000000000000000002000000000000001200000000000003406624000000000000009999123100000010000000000000BRBBASACNOR3239
012013102362BBAS3T      030BRASIL      ON      NM061R$  000000000285800000000028670000000002855000000000286200000000028670000000000000000000000000000012000000000000290000000000000830113769000000000000009999123100000010000000000000BRBBASACNOR3239
012013102378BBASA27     070BBAS        ON      NM000R$  000000000029400000000002940000000000294000000000029400000000002940000000000000000000000000000001000000000000001000000000000000294000000000000259502014012000000010000000000000BRBBASACNOR3237
012013102378BBASA31     070BBAS        ON      NM000R$  000000000003700000000000370000000000036000000000003600000000000370000000000010000000000000000003000000000000002700000000000000098700000000000310002014012000000010000000000000BRBBASACNOR3239
012013102378BBASB29     070BBAS        ON      NM000R$  000000000013100000000001380000000000131000000000013100000000001380000000000000000000000000000009000000000000307600000000000040317400000000000290002014021700000010000000000000BRBBASACNOR3239
012013102378BBASC26     070BBAS        ON      NM000R$  000000000033500000000003350000000000335000000000033500000000003350000000000000000000000000000001000000000000001000000000000000335000000000000260002014031700000010000000000000BRBBASACNOR3239
012013102378BBASK25     070BBAS        ON      NM000R$  000000000047000000000004700000000000470000000000047000000000004700000000000095000000000048100002000000000000002000000000000000940000000000000237102013111800000010000000000000BRBBASACNOR3236
012013102378BBASK26     070BBAS        ON      NM000R$  000000000037500000000003750000000000345000000000035400000000003500000000000241000000000048300006000000000000006700000000000002373800000000000247102013111800000010000000000000BRBBASACNOR3236
012013102378BBASK27     070BBAS        ON      NM000R$  000000000027200000000002720000000000257000000000026500000000002600000000000165000000000026900031000000000000029000000000000007703700000000000257102013111800000010000000000000BRBBASACNOR3236
012013102378BBASK28     070BBAS  FM    ON      NM000R$  000000000018000000000001860000000000166000000000017400000000001700000000000158000000000018800035000000000000062900000000000010945200000000000267102013111800000010000000000000BRBBASACNOR3236
012013102378BBASK29     070BBAS  FM    ON      NM000R$  000000000008500000000000940000000000076000000000008100000000000800000000000078000000000008400100000000000000113500000000000009267900000000000279502013111800000010000000000000BRBBASACNOR3237
012013102378BBASK30     070BBAS  FM    ON      NM000R$  000000000004100000000000430000000000031000000000003600000000000320000000000032000000000003400078000000000000137000000000000005006200000000000289502013111800000010000000000000BRBBASACNOR3237
012013102378BBASK31     070BBAS  FM    ON      NM000R$  000000000001600000000000160000000000011000000000001300000000000110000000000010000000000001500011000000000000058900000000000000769000000000000299502013111800000010000000000000BRBBASACNOR3237
012013102378BBASK32     070BBAS        ON      NM000R$  000000000000300000000000030000000000002000000000000200000000000020000000000001000000000000400007000000000000018000000000000000046000000000000320002013111800000010000000000000BRBBASACNOR3239
012013102378BBASK56     070BBAS        ON      NM000R$  000000000022100000000002210000000000221000000000022100000000002210000000000000000000000000000001000000000000003000000000000000663000000000000262302013111800000010000000000000BRBBASACNOR3238
012013102378BBASK57     070BBAS        ON      NM000R$  000000000011600000000001160000000000109000000000011400000000001090000000000000000000000000000002000000000000004800000000000000551200000000000275002013111800000010000000000000BRBBASACNOR3239
012013102378BBASK58     070BBAS        ON      NM000R$  000000000005600000000000560000000000052000000000005400000000000520000000000000000000000009600011000000000000014300000000000000772300000000000285002013111800000010000000000000BRBBASACNOR3239
012013102378BBASL28     070BBAS  FM    ON      NM000R$  000000000019400000000001940000000000185000000000018900000000001930000000000051000000000000000016000000000000017500000000000003322700000000000269502013121600000010000000000000BRBBASACNOR3237
012013102378BBASL29     070BBAS  FM    ON      NM000R$  000000000014700000000001500000000000140000000000014400000000001440000000000120000000000016000020000000000000034900000000000005051000000000000276102013121600000010000000000000BRBBASACNOR3235
012013102378BBASL30     070BBAS  FM    ON      NM000R$  000000000003300000000000350000000000031000000000003300000000000330000000000030000000000003400101000000000000119700000000000003982100000000000300002013121600000010000000000000BRBBASACNOR3239
012013102378BBASL32     070BBAS        ON      NM000R$  000000000000800000000000080000000000008000000000000800000000000080000000000003000000000002500001000000000000004000000000000000032000000000000320002013121600000010000000000000BRBBASACNOR3239
012013102378BBASL33     070BBAS        ON      NM000R$  000000000000400000000000040000000000004000000000000400000000000040000000000001000000000000000001000000000000002500000000000000010000000000000330002013121600000010000000000000BRBBASACNOR3239
012013102378BBASL59     070BBAS        ON      NM000R$  000000000005100000000000520000000000049000000000005100000000000490000000000000000000000000000023000000000000211800000000000010963300000000000295002013121600000010000000000000BRBBASACNOR3239
012013102378BBASL60     070BBAS        ON      NM000R$  000000000008600000000000870000000000082000000000008600000000000850000000000014000000000009000028000000000000029900000000000002581600000000000286202013121600000010000000000000BRBBASACNOR3233
012013102378BBASL79     070BBAS  FM    ON      NM000R$  000000000006800000000000700000000000066000000000006800000000000680000000000000000000000000000033000000000000042700000000000002916700000000000290002013121600000010000000000000BRBBASACNOR3239
012013102382BBASW28     080BBASE FM    ON      NM000R$  000000000001800000000000200000000000018000000000001900000000000200000000000017000000000002200021000000000000052300000000000001027400000000000267102013111800000010000000000000BRBBASACNOR3236
012013102382BBASW29     080BBASE FM    ON      NM000R$  000000000005100000000000550000000000050000000000005100000000000530000000000050000000000006000034000000000000028600000000000001483300000000000279502013111800000010000000000000BRBBASACNOR3237
012013102382BBASW30     080BBASE FM    ON      NM000R$  000000000009700000000001130000000000097000000000010300000000001020000000000000000000000000000038000000000000033900000000000003519000000000000289502013111800000010000000000000BRBBASACNOR3237
012013102382BBASW57     080BBASE       ON      NM000R$  000000000003900000000000390000000000036000000000003800000000000360000000000000000000000000000031000000000000104300000000000004042400000000000275002013111800000010000000000000BRBBASACNOR3239
012013102382BBASX27     080BBASE FM    ON      NM000R$  000000000002800000000000280000000000027000000000002700000000000270000000000000000000000003000024000000000000040200000000000001087800000000000259502013121600000010000000000000BRBBASACNOR3237
012013102382BBASX28     080BBASE FM    ON      NM000R$  000000000004400000000000490000000000044000000000004600000000000450000000000035000000000000000049000000000000095900000000000004421300000000000269502013121600000010000000000000BRBBASACNOR3237
012013102382BBASX29     080BBASE FM    ON      NM000R$  000000000006700000000000680000000000065000000000006700000000000650000000000000000000000000000039000000000000060200000000000004033900000000000276102013121600000010000000000000BRBBASACNOR3235
012013102382BBASX56     080BBASE       ON      NM000R$  000000000002100000000000210000000000019000000000002000000000000190000000000000000000000000000049000000000000125000000000000002559700000000000255002013121600000010000000000000BRBBASACNOR3239
012013102382BBASX79     080BBASE FM    ON      NM000R$  000000000011800000000001320000000000118000000000012600000000001260000000000000000000000000000021000000000000030400000000000003850900000000000290002013121600000010000000000000BRBBASACNOR3239
012013102302BBDC3       010BRADESCO    ON      N1   R$  000000000366700000000036870000000003598000000000362100000000035980000000003597000000000361203660000000000000982900000000003559438300000000000000009999123100000010000000000000BRBBDCACNOR1607
012013102396BBDC3F      020BRADESCO    ON      N1   R$  000000000368600000000036860000000003554000000000364100000000036010000000003600000000000366700030000000000000000655000000000002384953000000000000009999123100000010000000000000BRBBDCACNOR1607
012013102302BBDC4       010BRADESCO    PN      N1   R$  000000000328800000000032970000000003240000000000326000000000032400000000003240000000000324418485000000000009346500000000030474328800000000000000009999123100000010000000000000BRBBDCACNPR8607
012013102396BBDC4F      020BRADESCO    PN      N1   R$  000000000330000000000033000000000003243000000000326400000000032430000000003243000000000325900199000000000000004638000000000015139820000000000000009999123100000010000000000000BRBBDCACNPR8607
012013102362BBDC4T      030BRADESCO    PN      N1030R$  000000000329200000000032930000000003280000000000328100000000032810000000000000000000000000000004000000000000010800000000000035438533000000000000009999123100000010000000000000BRBBDCACNPR8607
012013102362BBDC4T      030BRADESCO    PN      N1181R$  000000000343100000000034320000000003422000000000342600000000034250000000000000000000000000000012000000000000006000000000000020556696000000000000009999123100000010000000000000BRBBDCACNPR8607
012013102378BBDCA34     070BBDC        PN      N1000R$  000000000010500000000001060000000000097000000000010400000000000990000000000000000000000000000018000000000000509100000000000053453900000000000339402014012000000010000000000000BRBBDCACNPR8604
012013102378BBDCA37     070BBDC        PN      N1000R$  000000000002700000000000270000000000027000000000002700000000000270000000000023000000000003900001000000000000001000000000000000027000000000000367402014012000000010000000000000BRBBDCACNPR8602
012013102378BBDCK25     070BBDC        PN      N1000R$  000000000078400000000007900000000000771000000000078300000000007710000000000000000000000000000009000000000000004500000000000003527500000000000249402013111800000010000000000000BRBBDCACNPR8604
012013102378BBDCK26     070BBDC        PN      N1000R$  000000000067500000000006750000000000675000000000067500000000006750000000000000000000000000000001000000000000001000000000000000675000000000000259402013111800000010000000000000BRBBDCACNPR8604
012013102378BBDCK30     070BBDC        PN      N1000R$  000000000032400000000003240000000000275000000000031700000000002750000000000020000000000000000007000000000000011200000000000003557500000000000299602013111800000010000000000000BRBBDCACNPR8605
012013102378BBDCK31     070BBDC        PN      N1000R$  000000000019100000000001960000000000186000000000019100000000001860000000000161000000000000000008000000000000003700000000000000706700000000000309602013111800000010000000000000BRBBDCACNPR8605
012013102378BBDCK32     070BBDC  FM    PN      N1000R$  000000000015000000000001650000000000125000000000013700000000001250000000000125000000000013900088000000000000080000000000000010992300000000000317202013111800000010000000000000BRBBDCACNPR8601
012013102378BBDCK33     070BBDC  FM    PN      N1000R$  000000000008300000000000910000000000067000000000007400000000000680000000000067000000000007300120000000000000121300000000000009005300000000000327402013111800000010000000000000BRBBDCACNPR8602
012013102378BBDCK34     070BBDC  FM    PN      N1000R$  000000000003200000000000370000000000024000000000002900000000000260000000000022000000000003500037000000000000039500000000000001178200000000000339402013111800000010000000000000BRBBDCACNPR8604
012013102378BBDCK35     070BBDC  FM    PN      N1000R$  000000000001500000000000160000000000012000000000001300000000000120000000000010000000000002000021000000000000014400000000000000190500000000000347402013111800000010000000000000BRBBDCACNPR8602
012013102378BBDCK36     070BBDC  FM    PN      N1000R$  000000000000500000000000050000000000004000000000000400000000000040000000000000000000000000900009000000000000007000000000000000029000000000000357202013111800000010000000000000BRBBDCACNPR8601
012013102378BBDCL3      070BBDC  FM    PN      N1000R$  000000000013600000000001360000000000115000000000012400000000001150000000000000000000000019900008000000000000513500000000000063695100000000000327002013121600000010000000000000BRBBDCACNPR8601
012013102378BBDCL32     070BBDC  FM    PN      N1000R$  000000000020200000000002080000000000172000000000018600000000001720000000000160000000000018500115000000000000099000000000000018469500000000000317002013121600000010000000000000BRBBDCACNPR8600
012013102378BBDCL34     070BBDC  FM    PN      N1000R$  000000000008600000000000860000000000070000000000007400000000000700000000000067000000000000000025000000000000050300000000000003772000000000000337002013121600000010000000000000BRBBDCACNPR8600
012013102378BBDCL35     070BBDC        PN      N1000R$  000000000004300000000000430000000000043000000000004300000000000430000000000036000000000004200001000000000000000100000000000000004300000000000347002013121600000010000000000000BRBBDCACNPR8600
012013102378BBDCL36     070BBDC        PN      N1000R$  000000000016700000000001670000000000132000000000014000000000001390000000000112000000000000000004000000000000005600000000000000784700000000000323902013121600000010000000000000BRBBDCACNPR8597
012013102378BBDCL5      070BBDC  FM    PN      N1000R$  000000000003600000000000360000000000033000000000003300000000000330000000000000000000000005200015000000000000030800000000000001046900000000000349802013121600000010000000000000BRBBDCACNPR8606
012013102378BBDCL6      070BBDC  FM    PN      N1000R$  000000000002100000000000210000000000021000000000002100000000000210000000000012000000000000000004000000000000009600000000000000201600000000000357202013121600000010000000000000BRBBDCACNPR8601
012013102382BBDCW31     080BBDCE FM    PN      N1000R$  000000000001600000000000190000000000015000000000001800000000000190000000000019000000000000000015000000000000019800000000000000366300000000000309602013111800000010000000000000BRBBDCACNPR8605
012013102382BBDCW32     080BBDCE FM    PN      N1000R$  000000000003300000000000400000000000033000000000003700000000000390000000000000000000000006900092000000000000200600000000000007589700000000000317202013111800000010000000000000BRBBDCACNPR8601
012013102382BBDCW33     080BBDCE FM    PN      N1000R$  000000000006200000000000790000000000058000000000007100000000000780000000000000000000000015600019000000000000030200000000000002154500000000000327402013111800000010000000000000BRBBDCACNPR8602
012013102382BBDCW34     080BBDCE FM    PN      N1000R$  000000000013200000000001540000000000120000000000014000000000001520000000000000000000000000000051000000000000064200000000000009020600000000000339402013111800000010000000000000BRBBDCACNPR8604
012013102382BBDCW9      080BBDCE       PN      N1000R$  000000000000300000000000030000000000003000000000000300000000000030000000000000000000000000000001000000000000005000000000000000015000000000000289602013111800000010000000000000BRBBDCACNPR8605
012013102382BBDCX3      080BBDCE FM    PN      N1000R$  000000000008600000000001040000000000086000000000009500000000001040000000000000000000000000000016000000000000029900000000000002853100000000000327002013121600000010000000000000BRBBDCACNPR8601
012013102382BBDCX32     080BBDCE FM    PN      N1000R$  000000000005200000000000650000000000052000000000005900000000000650000000000000000000000000000010000000000000013200000000000000790300000000000317002013121600000010000000000000BRBBDCACNPR8600
012013102382BBDCX34     080BBDCE FM    PN      N1000R$  000000000013800000000001590000000000130000000000014500000000001570000000000000000000000000000025000000000000044500000000000006470500000000000337002013121600000010000000000000BRBBDCACNPR8600
012013102312BBFI11B     010FII BB PROGRCI      MB   R$  000000041900000000004206000000000419000000000041974600000004206000000000420500000000042140000007000000000000000015000000000006296199000000000000009999123100000010000000000000BRBBFICTF006199
012013102312BBPO11      010FII BB PRGIICI           R$  000000001125900000000112590000000011154000000001118800000000111850000000011185000000001119900154000000000000014874000000000166410971000000000000009999123100000010000000000000BRBBPOCTF003111
012013102312BBRC11      010FII BB CORP CI           R$  000000000875000000000087500000000008600000000000869500000000086580000000008658000000000875000027000000000000002640000000000022956258000000000000009999123100000010000000000000BRBBRCCTF004125
012013102302BBRK3       010BR BROKERS  ON      NM   R$  000000000059400000000006000000000000580000000000059100000000005870000000000581000000000058702191000000000002156400000000001275195500000000000000009999123100000010000000000000BRBBRKACNOR4108
012013102396BBRK3F      020BR BROKERS  ON      NM   R$  000000000059700000000005990000000000570000000000058800000000005750000000000570000000000065000013000000000000000408000000000000240202000000000000009999123100000010000000000000BRBBRKACNOR4108
012013102302BBSE3       010BBSEGURIDADEON      NM   R$  000000000240900000000024180000000002355000000000237300000000023600000000002360000000000236411364000000000004296000000000010196915700000000000000009999123100000010000000000000BRBBSEACNOR5101
012013102396BBSE3F      020BBSEGURIDADEON      NM   R$  000000000240500000000024150000000002350000000000237500000000023550000000002355000000000235700290000000000000010059000000000023898006000000000000009999123100000010000000000000BRBBSEACNOR5101
012013102362BBSE3T      030BBSEGURIDADEON      NM016R$  000000000241300000000024140000000002413000000000241300000000024140000000000000000000000000000002000000000000050000000000000120678660000000000000009999123100000010000000000000BRBBSEACNOR5101
012013102362BBSE3T      030BBSEGURIDADEON      NM058R$  000000000242700000000024280000000002427000000000242700000000024280000000000000000000000000000002000000000000003000000000000007281135000000000000009999123100000010000000000000BRBBSEACNOR5101
012013102378BBSEK54     070BBSE        ON      NM000R$  000000000001700000000000170000000000017000000000001700000000000170000000000000000000000004800001000000000000000200000000000000003400000000000245002013111800000010000000000000BRBBSEACNOR5101
012013102382BBSEW24     080BBSEE       ON      NM000R$  000000000004600000000000460000000000046000000000004600000000000460000000000000000000000000000004000000000000027100000000000001246600000000000240002013111800000010000000000000BRBBSEACNOR5101
012013102382BBSEW62     080BBSEE       ON      NM000R$  000000000001000000000000100000000000010000000000001000000000000100000000000000000000000000000004000000000000027100000000000000271000000000000225002013111800000010000000000000BRBBSEACNOR5101
012013102302BBTG11      010BTG PACTUAL UNT          R$  000000000306300000000030780000000003007000000000304000000000030300000000003015000000000304001337000000000003449900000000010489951100000000000000009999123100000010000000000000BRBBTGUNT007105
012013102396BBTG11F     020BTG PACTUAL UNT          R$  000000000301700000000030350000000003016000000000301900000000030170000000003017000000000303600009000000000000000239000000000000721755000000000000009999123100000010000000000000BRBBTGUNT007105
012013102362BBTG11T     030BTG PACTUAL UNT       181R$  000000000319300000000031940000000003193000000000319300000000031940000000000000000000000000000006000000000003000000000000009579150000000000000000009999123100000010000000000000BRBBTGUNT007105
012013102312BBVJ11      010FII C JARDIMCI           R$  000000000779800000000078370000000007701000000000778900000000078330000000007833000000000783700025000000000000000773000000000006021652000000000000009999123100000010000000000000BRBBVJCTF001134
012013102312BCFF11B     010FII BC FFII CI      MB   R$  000000000899700000000089980000000008901000000000895500000000089890000000008924000000000898900063000000000000003793000000000033968350000000000000009999123100000010000000000000BRBCFFCTF000143
012013102302BEEF3       010MINERVA     ON      NM   R$  000000000095500000000009570000000000942000000000094500000000009470000000000947000000000094801784000000000000474100000000000448290400000000000000009999123100000010000000000000BRBEEFACNOR6104
012013102396BEEF3F      020MINERVA     ON      NM   R$  000000000094600000000009460000000000943000000000094400000000009430000000000928000000000094500002000000000000000062000000000000058586000000000000009999123100000010000000000000BRBEEFACNOR6104
012013102302BEES3       010BANESTES    ON           R$  000000000005200000000000520000000000050000000000005000000000000510000000000051000000000005200023000000000000129300000000000006593400000000000000009999123100000010000000000000BRBEESACNOR9245
012013102302BEES4       010BANESTES    PN           R$  000000000004600000000000470000000000046000000000004600000000000460000000000046000000000004700006000000000000005500000000000000253200000000000000009999123100000010000000000000BRBEESACNPR6170
012013102310BEES9       010BANESTES    ON  REC      R$  000000000005100000000000510000000000051000000000005100000000000510000000000048000000000005100002000000000000003500000000000000178500000000000000009999123100000010000000000000BRBEESR03OR0241
012013102302BEMA3       010BEMATECH    ON      NM   R$  000000000077500000000007750000000000771000000000077300000000007750000000000772000000000077500044000000000000024100000000000018635500000000000000009999123100000010000000000000BRBEMAACNOR0114
012013102396BEMA3F      020BEMATECH    ON      NM   R$  000000000078500000000007850000000000785000000000078500000000007850000000000760000000000078300001000000000000000040000000000000031400000000000000009999123100000010000000000000BRBEMAACNOR0114
012013102396BGIP4F      020BANESE      PN           R$  000000000500000000000050000000000005000000000000500000000000050000000000004950000000000500000002000000000000000003000000000000015000000000000000009999123100000010000000000000BRBGIPACNPR8179
012013102302BHGR3       010BHG         ON      NM   R$  000000000160000000000016000000000001551000000000158200000000015900000000001572000000000159000125000000000000030200000000000047796800000000000000009999123100000010000000000000BRBHGRACNOR9101
012013102302BICB3       010BICBANCO    ON      N1   R$  000000000065000000000006500000000000650000000000065000000000006500000000000640000000000075500001000000000000000200000000000000130000000000000000009999123100000010000000000000BRBICBACNOR0131
012013102302BICB4       010BICBANCO    PN      N1   R$  000000000063000000000006350000000000609000000000062300000000006350000000000628000000000063500419000000000000240300000000000149892500000000000000009999123100000010000000000000BRBICBACNPR7131
012013102396BICB4F      020BICBANCO    PN      N1   R$  000000000061200000000006210000000000612000000000061600000000006210000000000620000000000064000002000000000000000080000000000000049320000000000000009999123100000010000000000000BRBICBACNPR7131
012013102362BICB4T      030BICBANCO    PN      N1016R$  000000000063700000000006380000000000637000000000063700000000006380000000000000000000000000000002000000000000007800000000000004975140000000000000009999123100000010000000000000BRBICBACNPR7131
012013102302BIOM3       010BIOMM       ON           R$  000000000095000000000009500000000000950000000000095000000000009500000000000910000000000095000002000000000000011000000000000010450000000000000000009999123100000010000000000000BRBIOMACNOR2101
012013102396BIOM3F      020BIOMM       ON           R$  000000000094000000000009400000000000850000000000093200000000008500000000000910000000000099800002000000000000000326000000000000304100000000000000009999123100000010000000000000BRBIOMACNOR2101
012013102302BISA3       010BROOKFIELD  ON      NM   R$  000000000015700000000001590000000000156000000000015700000000001560000000000156000000000015705272000000000004233200000000000665147200000000000000009999123100000010000000000000BRBISAACNOR8109
012013102396BISA3F      020BROOKFIELD  ON      NM   R$  000000000015500000000001590000000000154000000000015500000000001540000000000154000000000015700008000000000000000234000000000000036388000000000000009999123100000010000000000000BRBISAACNOR8109
012013102362BISA3T      030BROOKFIELD  ON      NM030R$  000000000015700000000001580000000000157000000000015700000000001580000000000000000000000000000002000000000000005000000000000000787020000000000000009999123100000010000000000000BRBISAACNOR8109
012013102362BISA3T      030BROOKFIELD  ON      NM061R$  000000000016000000000001610000000000160000000000016000000000001610000000000000000000000000000002000000000000030000000000000004807782000000000000009999123100000010000000000000BRBISAACNOR8109
012013102362BISA3T      030BROOKFIELD  ON      NM090R$  000000000015900000000001610000000000159000000000015900000000001610000000000000000000000000000004000000000001032000000000000164421581000000000000009999123100000010000000000000BRBISAACNOR8109
012013102312BJRC11      010FII JS RECIMCI           R$  000000008400000000000840000000000084000000000008400000000000840000000000081100000000008799800002000000000000000074000000000006216000000000000000009999123100000010000000000000BRBJRCCTF007111
012013102302BMEB3       010MERC BRASIL ON           R$  000000000164900000000016490000000001649000000000164900000000016490000000000000000000000165000002000000000000000200000000000000329800000000000000009999123100000010000000000000BRBMEBACNOR8190
012013102396BMIN4F      020MERC INVEST PN           R$  000000000002800000000000280000000000028000000000002800000000000280000000000028000000000003000001000000000000000002000000000000000056000000000000009999123100000010000000000000BRBMINACNPR1160
012013102302BMKS3       010BIC MONARK  ON           R$  000000003330000000000333000000000033300000000003330000000000333000000000033001000000003400000001000000000000000004000000000000133200000000000000009999123100000010000000000000BRBMKSACNOR9155
012013102312BMLC11B     010FII BMBRC LCCI      MB   R$  000000001170000000000117000000000011695000000001169900000000117000000000011700000000001174000004000000000000001681000000000019667305000000000000009999123100000010000000000000BRBMLCCTF004120
012013102396BMTO3F      020BRASMOTOR   ON           R$  000000000008200000000000820000000000082000000000008200000000000820000000000082000000000000000001000000000000000662000000000000054284000000000000009999123100000010000000000000BRBMTOACNOR9180
012013102302BMTO4       010BRASMOTOR   PN           R$  000000000008800000000000880000000000087000000000008700000000000880000000000087000000000008800016000000000000439000000000000038572000000000000000009999123100000010000000000000BRBMTOACNPR6065
012013102302BOBR4       010BOMBRIL     PN           R$  000000000062500000000006250000000000625000000000062500000000006250000000000625000000000064900001000000000000000900000000000000562500000000000000009999123100000010000000000000BRBOBRACNPR3127
012013102314BOVA11      010ISHARES BOVACI           R$  000000000549100000000055020000000005415000000000544500000000054150000000005415000000000542901891000000000001149960000000006262048180000000000000009999123100000010000000000000BRBOVACTF003101
012013102396BOVA11F     020ISHARES BOVACI           R$  000000000552500000000055250000000005429000000000545800000000054290000000005429000000000549000014000000000000000045000000000000245619000000000000009999123100000010000000000000BRBOVACTF003101
012013102312BPFF11      010FII ABSOLUTOCI           R$  000000000830000000000083650000000008252000000000831600000000083600000000008360000000000840000013000000000000002469000000000020532213000000000000009999123100000010000000000000BRBPFFCTF002106
012013102302BPHA3       010BR PHARMA   ON      NM   R$  000000000087800000000008780000000000832000000000085200000000008500000000000847000000000085000922000000000000389700000000000332390300000000000000009999123100000010000000000000BRBPHAACNOR6102
012013102396BPHA3F      020BR PHARMA   ON      NM   R$  000000000087300000000008730000000000850000000000086400000000008500000000000845000000000086000006000000000000000104000000000000089921000000000000009999123100000010000000000000BRBPHAACNOR6102
012013102362BPHA3T      030BR PHARMA   ON      NM030R$  000000000087700000000008780000000000877000000000087700000000008780000000000000000000000000000002000000000000002330000000000002045057000000000000009999123100000010000000000000BRBPHAACNOR6102
012013102302BPNM4       010PANAMERICANOPN      N1   R$  000000000052000000000005250000000000516000000000052100000000005210000000000521000000000052200121000000000000128100000000000066843800000000000000009999123100000010000000000000BRBPNMACNPR6111
012013102396BPNM4F      020PANAMERICANOPN      N1   R$  000000000052000000000005240000000000520000000000052200000000005240000000000520000000000052400002000000000000000010000000000000005228000000000000009999123100000010000000000000BRBPNMACNPR6111
012013102362BPNM4S      030PANAMERICANOPN      N1061R$  000000000053100000000005320000000000531000000000053100000000005320000000000000000000000000000002000000000000020000000000000010628406000000000000009999123100000010000000000000BRBPNMACNPR6111
012013102302BRAP3       010BRADESPAR   ON      N1   R$  000000000213800000000021840000000002120000000000213800000000021750000000002132000000000217600022000000000000003400000000000007272000000000000000009999123100000010000000000000BRBRAPACNOR5124
012013102396BRAP3F      020BRADESPAR   ON      N1   R$  000000000217000000000021700000000002080000000000209300000000020810000000002081000000000219900015000000000000000228000000000000477263000000000000009999123100000010000000000000BRBRAPACNOR5124
012013102302BRAP4       010BRADESPAR   PN      N1   R$  000000000263000000000026380000000002600000000000261400000000026210000000002621000000000262305161000000000001389100000000003632422200000000000000009999123100000010000000000000BRBRAPACNPR2124
012013102396BRAP4F      020BRADESPAR   PN      N1   R$  000000000262500000000026370000000002601000000000261800000000026040000000002603000000000268800057000000000000001806000000000004729700000000000000009999123100000010000000000000BRBRAPACNPR2124
012013102362BRAP4T      030BRADESPAR   PN      N1030R$  000000000264900000000026500000000002649000000000264900000000026500000000000000000000000000000002000000000000005000000000000013248400000000000000009999123100000010000000000000BRBRAPACNPR2124
012013102362BRAP4T      030BRADESPAR   PN      N1047R$  000000000264000000000026410000000002640000000000264000000000026410000000000000000000000000000002000000000000002000000000000005281531000000000000009999123100000010000000000000BRBRAPACNPR2124
012013102362BRAP4T      030BRADESPAR   PN      N1061R$  000000000267200000000026730000000002672000000000267200000000026730000000000000000000000000000002000000000000004000000000000010689668000000000000009999123100000010000000000000BRBRAPACNPR2124
012013102362BRAP4T      030BRADESPAR   PN      N1090R$  000000000267800000000026790000000002678000000000267800000000026790000000000000000000000000000002000000000000011500000000000030804912000000000000009999123100000010000000000000BRBRAPACNPR2124
012013102312BRCR11      010FII BC FUND CI           R$  000000001367600000000137200000000013578000000001366400000000136390000000013639000000001364000494000000000000032142000000000439203093000000000000009999123100000010000000000000BRBRCRCTF000134
012013102302BRFS3       010BRF SA      ON      NM   R$  000000000562900000000056360000000005530000000000556500000000055400000000005540000000000554206181000000000001669100000000009288091200000000000000009999123100000010000000000000BRBRFSACNOR8110
012013102396BRFS3F      020BRF SA      ON      NM   R$  000000000560000000000056290000000005528000000000558100000000055280000000005528000000000557100157000000000000004413000000000024629376000000000000009999123100000010000000000000BRBRFSACNOR8110
012013102362BRFS3T      030BRF SA      ON      NM016R$  000000000556400000000055650000000005564000000000556400000000055650000000000000000000000000000002000000000000001000000000000005564376000000000000009999123100000010000000000000BRBRFSACNOR8110
012013102362BRFS3T      030BRF SA      ON      NM030R$  000000000566700000000056680000000005667000000000566700000000056680000000000000000000000000000002000000000000001800000000000010201526000000000000009999123100000010000000000000BRBRFSACNOR8110
012013102378BRFSL58     070BRFS        ON      NM000R$  000000000010000000000001100000000000100000000000010300000000001000000000000000000000000000000003000000000000006000000000000000620000000000000580002013121600000010000000000000BRBRFSACNOR8110
012013102382BRFSW55     080BRFSE       ON      NM000R$  000000000005600000000000570000000000051000000000005300000000000510000000000000000000000000000004000000000000010000000000000000535500000000000550002013111800000010000000000000BRBRFSACNOR8110
012013102302BRGE12      010ALFA CONSORCPNF          R$  000000000042500000000004250000000000425000000000042500000000004250000000000400000000000050000001000000000000000100000000000000042500000000000000009999123100000010000000000000BRBRGEACNPF8091
012013102396BRGE12F     020ALFA CONSORCPNF          R$  000000000030100000000003010000000000301000000000030100000000003010000000000300000000000000000001000000000000000007000000000000002107000000000000009999123100000010000000000000BRBRGEACNPF8091
012013102302BRGE3       010ALFA CONSORCON           R$  000000000050000000000005000000000000500000000000050000000000005000000000000378000000000050000001000000000000000300000000000000150000000000000000009999123100000010000000000000BRBRGEACNOR6197
012013102302BRIN3       010BR INSURANCEON      NM   R$  000000000206000000000020600000000002009000000000202600000000020290000000002020000000000202900730000000000000147200000000000298269200000000000000009999123100000010000000000000BRBRINACNOR3106
012013102396BRIN3F      020BR INSURANCEON      NM   R$  000000000204200000000020420000000002010000000000201700000000020100000000002002000000000202400012000000000000000295000000000000595207000000000000009999123100000010000000000000BRBRINACNOR3106
012013102396BRIV4F      020ALFA INVEST PN           R$  000000000058800000000005880000000000588000000000058800000000005880000000000551000000000059600001000000000000000050000000000000029400000000000000009999123100000010000000000000BRBRIVACNPR3197
012013102302BRKM3       010BRASKEM     ON      N1   R$  000000000145000000000014500000000001415000000000141800000000014150000000001351000000000142000005000000000000011100000000000015742300000000000000009999123100000010000000000000BRBRKMACNOR1110
012013102396BRKM3F      020BRASKEM     ON      N1   R$  000000000135000000000014170000000001350000000000140500000000014170000000001430000000000149800002000000000000000006000000000000008435000000000000009999123100000010000000000000BRBRKMACNOR1110
012013102302BRKM5       010BRASKEM     PNA     N1   R$  000000000200000000000020300000000001999000000000201300000000020140000000002012000000000201407762000000000001223600000000002463691700000000000000009999123100000010000000000000BRBRKMACNPA4110
012013102396BRKM5F      020BRASKEM     PNA     N1   R$  000000000201300000000020270000000002006000000000201400000000020200000000002019000000000202200035000000000000000639000000000001287188000000000000009999123100000010000000000000BRBRKMACNPA4110
012013102362BRKM5T      030BRASKEM     PNA     N1061R$  000000000204900000000020500000000002049000000000204900000000020500000000000000000000000000000002000000000000005000000000000010248470000000000000009999123100000010000000000000BRBRKMACNPA4110
012013102362BRKM5T      030BRASKEM     PNA     N1181R$  000000000210100000000021020000000002101000000000210100000000021020000000000000000000000000000002000000000000013000000000000027322095000000000000009999123100000010000000000000BRBRKMACNPA4110
012013102378BRKML54     070BRKME       PNA     N1000R$  000000000060300000000006030000000000603000000000060300000000006030000000000000000000000000000002000000000004306000000000002596518000000000000142502013121600000010000000000000BRBRKMACNPA4110
012013102378BRKML61     070BRKME       PNA     N1000R$  000000000004000000000000400000000000040000000000004000000000000400000000000000000000000000000002000000000004306000000000000172240000000000000212502013121600000010000000000000BRBRKMACNPA4110
012013102382BRKMX54     080BRKME       PNA     N1000R$  000000000000100000000000010000000000001000000000000100000000000010000000000000000000000000000002000000000004306000000000000004306000000000000142502013121600000010000000000000BRBRKMACNPA4110
012013102382BRKMX61     080BRKME       PNA     N1000R$  000000000012700000000001270000000000127000000000012700000000001270000000000000000000000000000002000000000004306000000000000546862000000000000212502013121600000010000000000000BRBRKMACNPA4110
012013102302BRML3       010BR MALLS PARON      NM   R$  000000000226600000000022970000000002238000000000226700000000022380000000002238000000000224607503000000000002538700000000005754950800000000000000009999123100000010000000000000BRBRMLACNOR9105
012013102396BRML3F      020BR MALLS PARON      NM   R$  000000000227400000000022930000000002251000000000227200000000022580000000002250000000000226900065000000000000001608000000000003652792000000000000009999123100000010000000000000BRBRMLACNOR9105
012013102362BRML3T      030BR MALLS PARON      NM061R$  000000000230100000000023020000000002301000000000230100000000023020000000000000000000000000000002000000000000002500000000000005752782000000000000009999123100000010000000000000BRBRMLACNOR9105
012013102378BRMLL54     070BRML        ON      NM000R$  000000000003700000000000370000000000037000000000003700000000000370000000000000000000000000000002000000000000000800000000000000029600000000000245002013121600000010000000000000BRBRMLACNOR9105
012013102302BRPR3       010BR PROPERT  ON      NM   R$  000000000191800000000019300000000001880000000000190100000000018920000000001889000000000189205037000000000001420300000000002700339600000000000000009999123100000010000000000000BRBRPRACNOR9112
012013102396BRPR3F      020BR PROPERT  ON      NM   R$  000000000194800000000019480000000001801000000000189700000000018810000000001881000000000189900029000000000000000739000000000001402359000000000000009999123100000010000000000000BRBRPRACNOR9112
012013102362BRPR3T      030BR PROPERT  ON      NM030R$  000000000191400000000019150000000001914000000000191400000000019150000000000000000000000000000002000000000000001000000000000001914900000000000000009999123100000010000000000000BRBRPRACNOR9112
012013102302BRSR6       010BANRISUL    PNB     N1   R$  000000000159800000000016090000000001565000000000158700000000015800000000001577000000000158202580000000000001236700000000001963718100000000000000009999123100000010000000000000BRBRSRACNPB4134
012013102396BRSR6F      020BANRISUL    PNB     N1   R$  000000000164800000000016480000000001560000000000159000000000015790000000001525000000000158500020000000000000000359000000000000571078000000000000009999123100000010000000000000BRBRSRACNPB4134
012013102362BRSR6T      030BANRISUL    PNB     N1030R$  000000000159500000000015960000000001595000000000159500000000015960000000000000000000000000000002000000000000001500000000000002393107000000000000009999123100000010000000000000BRBRSRACNPB4134
012013102362BRSR6T      030BANRISUL    PNB     N1090R$  000000000161600000000016170000000001616000000000161600000000016170000000000000000000000000000002000000000000003000000000000004848729000000000000009999123100000010000000000000BRBRSRACNPB4134
012013102302BSEV3       010BIOSEV      ON      NM   R$  000000000098000000000009800000000000900000000000092200000000009100000000000910000000000092300038000000000000013400000000000012362200000000000000009999123100000010000000000000BRBSEVACNOR3100
012013102396BSEV3F      020BIOSEV      ON      NM   R$  000000000094700000000009500000000000894000000000092100000000008970000000000850000000000095200007000000000000000128000000000000117895000000000000009999123100000010000000000000BRBSEVACNOR3100
012013102302BTOW3       010B2W DIGITAL ON      NM   R$  000000000177500000000017770000000001668000000000171400000000016680000000001668000000000167301660000000000000378800000000000648947800000000000000009999123100000010000000000000BRBTOWACNOR8105
012013102396BTOW3F      020B2W DIGITAL ON      NM   R$  000000000174100000000017410000000001665000000000170700000000016650000000001670000000000171000018000000000000000576000000000000982314000000000000009999123100000010000000000000BRBTOWACNOR8105
012013102362BTOW3T      030B2W DIGITAL ON      NM016R$  000000000167500000000016760000000001675000000000167500000000016760000000000000000000000000000002000000000000003000000000000005026018000000000000009999123100000010000000000000BRBTOWACNOR8105
012013102362BTOW3T      030B2W DIGITAL ON      NM030R$  000000000168100000000016820000000001681000000000168100000000016820000000000000000000000000000002000000000000001500000000000002522016000000000000009999123100000010000000000000BRBTOWACNOR8105
012013102302BTTL3       010BATTISTELLA ON           R$  000000000009300000000000930000000000093000000000009300000000000930000000000090000000000009500001000000000000005000000000000000465000000000000000009999123100000010000000000000BRBTTLACNOR0105
012013102302BTTL4       010BATTISTELLA PN           R$  000000000010000000000001000000000000100000000000010000000000001000000000000098000000000010000001000000000000000100000000000000010000000000000000009999123100000010000000000000BRBTTLACNPR7105
012013102302BVMF3       010BMFBOVESPA  ON      NM   R$  000000000129900000000013050000000001290000000000129500000000012900000000001290000000000129211822000000000004697300000000006083171200000000000000009999123100000010000000000000BRBVMFACNOR3126
012013102396BVMF3F      020BMFBOVESPA  ON      NM   R$  000000000129900000000013040000000001290000000000129500000000012910000000001290000000000129600074000000000000002706000000000003505816000000000000009999123100000010000000000000BRBVMFACNOR3126
012013102378BVMFA13     070BVMF        ON      NM000R$  000000000007400000000000740000000000073000000000007300000000000730000000000000000000000000000002000000000000001800000000000000131900000000000130002014012000000010000000000000BRBVMFACNOR3126
012013102378BVMFK12     070BVMF        ON      NM000R$  000000000012700000000001290000000000122000000000012400000000001220000000000122000000000014000015000000000000009700000000000001210500000000000118502013111800000010000000000000BRBVMFACNOR3125
012013102378BVMFK13     070BVMF  FM    ON      NM000R$  000000000004700000000000490000000000042000000000004500000000000420000000000039000000000004300498000000000000133200000000000006110000000000000128502013111800000010000000000000BRBVMFACNOR3125
012013102378BVMFK14     070BVMF  FM    ON      NM000R$  000000000000800000000000090000000000006000000000000700000000000060000000000006000000000000700057000000000000144700000000000001089900000000000138502013111800000010000000000000BRBVMFACNOR3125
012013102378BVMFK15     070BVMF        ON      NM000R$  000000000000100000000000010000000000001000000000000100000000000010000000000001000000000000200001000000000000000100000000000000000100000000000148502013111800000010000000000000BRBVMFACNOR3125
012013102378BVMFK42     070BVMF  FM    ON      NM000R$  000000000006800000000000710000000000068000000000007000000000000700000000000067000000000008500004000000000000007000000000000000491500000000000125002013111800000010000000000000BRBVMFACNOR3126
012013102378BVMFK43     070BVMF  FM    ON      NM000R$  000000000001500000000000160000000000014000000000001400000000000140000000000012000000000002000019000000000000050400000000000000753300000000000135002013111800000010000000000000BRBVMFACNOR3126
012013102378BVMFK44     070BVMF  FM    ON      NM000R$  000000000000300000000000030000000000002000000000000200000000000020000000000000000000000000400003000000000000007100000000000000021200000000000145002013111800000010000000000000BRBVMFACNOR3126
012013102378BVMFL13     070BVMF  FM    ON      NM000R$  000000000006500000000000680000000000063000000000006500000000000630000000000000000000000006800046000000000000060700000000000003967000000000000128502013121600000010000000000000BRBVMFACNOR3125
012013102378BVMFL14     070BVMF  FM    ON      NM000R$  000000000002400000000000250000000000023000000000002300000000000240000000000022000000000002600013000000000000027000000000000000635000000000000137402013121600000010000000000000BRBVMFACNOR3124
012013102378BVMFL15     070BVMF        ON      NM000R$  000000000000600000000000060000000000006000000000000600000000000060000000000001000000000000700004000000000000012900000000000000077400000000000148502013121600000010000000000000BRBVMFACNOR3125
012013102378BVMFL42     070BVMF  FM    ON      NM000R$  000000000009000000000000900000000000090000000000009000000000000900000000000000000000000000000002000000000000007200000000000000648000000000000125002013121600000010000000000000BRBVMFACNOR3126
012013102382BVMFM12     080BVMFE       ON      NM000R$  000000000002100000000000210000000000021000000000002100000000000210000000000000000000000002200001000000000000000200000000000000004200000000000120002014012000000010000000000000BRBVMFACNOR3126
012013102382BVMFM13     080BVMFE       ON      NM000R$  000000000005200000000000520000000000052000000000005200000000000520000000000000000000000005500001000000000000000100000000000000005200000000000130002014012000000010000000000000BRBVMFACNOR3126
012013102382BVMFW12     080BVMFE FM    ON      NM000R$  000000000000900000000000100000000000009000000000000900000000000100000000000008000000000001000005000000000000005700000000000000051400000000000118502013111800000010000000000000BRBVMFACNOR3125
012013102382BVMFW13     080BVMFE FM    ON      NM000R$  000000000002600000000000290000000000026000000000002700000000000290000000000026000000000003000025000000000000026400000000000000734200000000000128502013111800000010000000000000BRBVMFACNOR3125
012013102382BVMFW42     080BVMFE FM    ON      NM000R$  000000000001700000000000180000000000017000000000001700000000000180000000000000000000000002000020000000000000035000000000000000612500000000000125002013111800000010000000000000BRBVMFACNOR3126
012013102382BVMFW43     080BVMFE FM    ON      NM000R$  000000000006100000000000610000000000061000000000006100000000000610000000000000000000000006600001000000000000001800000000000000109800000000000135002013111800000010000000000000BRBVMFACNOR3126
012013102382BVMFX13     080BVMFE FM    ON      NM000R$  000000000003900000000000410000000000039000000000004000000000000400000000000033000000000004100004000000000000004200000000000000169300000000000128502013121600000010000000000000BRBVMFACNOR3125
012013102382BVMFX42     080BVMFE FM    ON      NM000R$  000000000002900000000000290000000000029000000000002900000000000290000000000000000000000000000001000000000000000100000000000000002900000000000125002013121600000010000000000000BRBVMFACNOR3126
012013102382BVMFX43     080BVMFE       ON      NM000R$  000000000005400000000000550000000000054000000000005400000000000550000000000000000000000005600002000000000000000300000000000000016400000000000131902013121600000010000000000000BRBVMFACNOR3126
012013102396CALI4F      020CONST A LINDPN           R$  000000002499900000000249990000000024999000000002499900000000249990000000017000000000002500000001000000000000000022000000000000549978000000000000009999123100000010000000000000BRCALIACNPR8131
012013102362CALI4T      030CONST A LINDPN        090R$  000000002553400000000255340000000025534000000002553400000000255340000000000000000000000000000001000000000000000022000000000000561748000000000000009999123100000010000000000000BRCALIACNPR8131
012013102302CAMB4       010CAMBUCI     PN           R$  000000000018800000000001880000000000188000000000018800000000001880000000000184000000000018800002000000000000001700000000000000319600000000000000009999123100000010000000000000BRCAMBACNPR1117
012013102302CARD3       010CSU CARDSYSTON      NM   R$  000000000030900000000003090000000000301000000000030300000000003040000000000298000000000030400015000000000000010200000000000003092100000000000000009999123100000010000000000000BRCARDACNOR9105
012013102396CARD3F      020CSU CARDSYSTON      NM   R$  000000000029600000000002960000000000296000000000029600000000002960000000000298000000000030900001000000000000000050000000000000014800000000000000009999123100000010000000000000BRCARDACNOR9105
012013102302CBMA4       010COBRASMA    PN           R$  000000000000400000000000040000000000004000000000000400000000000040000000000004000000000000500006000000000000140000000000000000560000000000000000009999123100000010000000000000BRCBMAACNPR1124
012013102308CCHI3       010CHIARELLI   ON           R$  000000000001700000000000170000000000016000000000001600000000000160000000000016000000000001700025000000000000410000000000000006630000000000000000009999123100000010000000000000BRCCHIACNOR5123
012013102396CCHI3F      020CHIARELLI   ON           R$  000000000001600000000000160000000000014000000000001500000000000140000000000013000000000001900007000000000000010842000000000000165190000000000000009999123100000010000000000000BRCCHIACNOR5123
012013102308CCHI4       010CHIARELLI   PN           R$  000000000001200000000000120000000000011000000000001100000000000110000000000010000000000001300006000000000000060000000000000000680000000000000000009999123100000010000000000000BRCCHIACNPR2122
012013102302CCRO3       010CCR SA      ON      NM   R$  000000000184200000000018580000000001830000000000184400000000018390000000001838000000000183910831000000000003002800000000005538199700000000000000009999123100000010000000000000BRCCROACNOR2123
012013102396CCRO3F      020CCR SA      ON      NM   R$  000000000183900000000018540000000001790000000000184100000000018290000000001829000000000185100089000000000000002346000000000004319146000000000000009999123100000010000000000000BRCCROACNOR2123
012013102362CCRO3T      030CCR SA      ON      NM016R$  000000000185700000000018580000000001857000000000185700000000018580000000000000000000000000000002000000000000013400000000000024885617000000000000009999123100000010000000000000BRCCROACNOR2123
012013102362CCRO3T      030CCR SA      ON      NM030R$  000000000185600000000018570000000001850000000000185200000000018510000000000000000000000000000004000000000000001500000000000002778782000000000000009999123100000010000000000000BRCCROACNOR2123
012013102362CCRO3T      030CCR SA      ON      NM120R$  000000000189100000000018920000000001891000000000189100000000018920000000000000000000000000000002000000000000000004000000000000007567000000000000009999123100000010000000000000BRCCROACNOR2123
012013102362CCRO3T      030CCR SA      ON      NM181R$  000000000193400000000019350000000001934000000000193400000000019350000000000000000000000000000002000000000000003000000000000005802133000000000000009999123100000010000000000000BRCCROACNOR2123
012013102378CCROK19     070CCRO        ON      NM000R$  000000000004000000000000400000000000040000000000004000000000000400000000000000000000000000000001000000000000000100000000000000004000000000000183202013111800000010000000000000BRCCROACNOR2122
012013102378CCROK48     070CCRO        ON      NM000R$  000000000002400000000000240000000000024000000000002400000000000240000000000000000000000000000002000000000000059000000000000001416000000000000185002013111800000010000000000000BRCCROACNOR2123
012013102302CCXC3       010CCX CARVAO  ON      NM   R$  000000000014100000000001470000000000138000000000014200000000001420000000000142000000000014301693000000000006402000000000000909924900000000000000009999123100000010000000000000BRCCXCACNOR5100
012013102396CCXC3F      020CCX CARVAO  ON      NM   R$  000000000013900000000001460000000000139000000000014200000000001390000000000139000000000014100007000000000000000184000000000000026190000000000000009999123100000010000000000000BRCCXCACNOR5100
012013102362CCXC3T      030CCX CARVAO  ON      NM016R$  000000000014000000000001430000000000140000000000014100000000001430000000000000000000000000000004000000000000200000000000000028283904000000000000009999123100000010000000000000BRCCXCACNOR5100
012013102362CCXC3T      030CCX CARVAO  ON      NM030R$  000000000014100000000001420000000000141000000000014100000000001420000000000000000000000000000002000000000000005000000000000000705040000000000000009999123100000010000000000000BRCCXCACNOR5100
012013102302CEBR3       010CEB         ON           R$  000000000130300000000013030000000001300000000000130000000000013000000000001300000000000159900016000000000000030200000000000039260900000000000000009999123100000010000000000000BRCEBRACNOR5114
012013102302CEED3       010CEEE-D      ON      N1   R$  000000000015000000000001500000000000150000000000015000000000001500000000000150000000000016000003000000000000001300000000000000195000000000000000009999123100000010000000000000BRCEEDACNOR9101
012013102302CEED4       010CEEE-D      PN      N1   R$  000000000016000000000001600000000000160000000000016000000000001600000000000130000000000016000003000000000000004500000000000000720000000000000000009999123100000010000000000000BRCEEDACNPR6101
012013102308CELP3       010CELPA       ON           R$  000000000008000000000000850000000000080000000000008200000000000850000000000075000000000008500004000000000000005300000000000000435000000000000000009999123100000010000000000000BRCELPACNOR8112
012013102308CELP7       010CELPA       PNC          R$  000000000006000000000000600000000000060000000000006000000000000600000000000050000000000006000001000000000000005000000000000000300000000000000000009999123100000010000000000000BRCELPACNPC7114
012013102312CEOC11B     010FII CEO CCP CI      MB   R$  000000000870000000000087000000000008501000000000857600000000085600000000008560000000000868900030000000000000003450000000000029587320000000000000009999123100000010000000000000BRCEOCCTF003111
012013102302CESP3       010CESP        ON      N1   R$  000000000194600000000019790000000001946000000000196000000000019600000000001959000000000196000006000000000000001100000000000002156300000000000000009999123100000010000000000000BRCESPACNOR3160
012013102302CESP5       010CESP        PNA     N1   R$  000000000201000000000020100000000002010000000000201000000000020100000000002050000000000227000001000000000000000100000000000000201000000000000000009999123100000010000000000000BRCESPACNPA6108
012013102302CESP6       010CESP        PNB     N1   R$  000000000223900000000022410000000002200000000000222300000000022280000000002228000000000223002647000000000000432200000000000961033000000000000000009999123100000010000000000000BRCESPACNPB4119
012013102396CESP6F      020CESP        PNB     N1   R$  000000000221600000000022690000000002201000000000222000000000022020000000002202000000000224100020000000000000000494000000000001096929000000000000009999123100000010000000000000BRCESPACNPB4119
012013102302CGAS3       010COMGAS      ON           R$  000000000555100000000058700000000005301000000000548500000000054010000000005400000000000549900006000000000000000700000000000003839700000000000000009999123100000010000000000000BRCGASACNOR0132
012013102302CGAS5       010COMGAS      PNA          R$  000000000581800000000059330000000005790000000000589100000000059100000000005891000000000591000399000000000000100000000000000589156800000000000000009999123100000010000000000000BRCGASACNPA3129
012013102396CGAS5F      020COMGAS      PNA          R$  000000000591000000000059160000000005910000000000591500000000059100000000005810000000000591000004000000000000000017000000000000100560000000000000009999123100000010000000000000BRCGASACNPA3129
012013102302CGRA3       010GRAZZIOTIN  ON           R$  000000000164900000000016500000000001649000000000164900000000016500000000001633000000000167000005000000000000002200000000000003629500000000000000009999123100000010000000000000BRCGRAACNOR2061
012013102396CGRA3F      020GRAZZIOTIN  ON           R$  000000000160100000000016010000000001601000000000160100000000016010000000001601000000000170000001000000000000000086000000000000137686000000000000009999123100000010000000000000BRCGRAACNOR2061
012013102302CGRA4       010GRAZZIOTIN  PN           R$  000000000175100000000017730000000001751000000000175900000000017600000000001750000000000177300006000000000000000800000000000001407700000000000000009999123100000010000000000000BRCGRAACNPR9061
012013102302CIEL3       010CIELO       ON      NM   R$  000000000652500000000066000000000006520000000000656700000000065850000000006585000000000658705956000000000001545700000000010150777700000000000000009999123100000010000000000000BRCIELACNOR3112
012013102396CIEL3F      020CIELO       ON      NM   R$  000000000650100000000066010000000006501000000000656200000000065500000000006550000000000660000101000000000000002493000000000016362009000000000000009999123100000010000000000000BRCIELACNOR3112
012013102362CIEL3T      030CIELO       ON      NM016R$  000000000660200000000066030000000006602000000000660200000000066030000000000000000000000000000002000000000000002100000000000013866144000000000000009999123100000010000000000000BRCIELACNOR3112
012013102362CIEL3T      030CIELO       ON      NM061R$  000000000666100000000066620000000006661000000000666100000000066620000000000000000000000000000002000000000000247000000000001645476086000000000000009999123100000010000000000000BRCIELACNOR3112
012013102362CIEL3T      030CIELO       ON      NM181R$  000000000688600000000068870000000006886000000000688600000000068870000000000000000000000000000002000000000000000500000000000003443081000000000000009999123100000010000000000000BRCIELACNOR3112
012013102378CIELK66     070CIEL        ON      NM000R$  000000000009900000000000990000000000099000000000009900000000000990000000000000000000000000000001000000000000001000000000000000099000000000000660002013111800000010000000000000BRCIELACNOR3112
012013102302CLSC4       010CELESC      PN      N2   R$  000000000187400000000018740000000001815000000000184500000000018330000000001820000000000183400030000000000000006900000000000012733100000000000000009999123100000010000000000000BRCLSCACNPR3107
012013102396CLSC4F      020CELESC      PN      N2   R$  000000000183000000000018300000000001801000000000181000000000018010000000001802000000000181600004000000000000000006000000000000010863000000000000009999123100000010000000000000BRCLSCACNPR3107
012013102362CLSC4T      030CELESC      PN      N2061R$  000000000189700000000018980000000001897000000000189700000000018980000000000000000000000000000002000000000000001000000000000001897222000000000000009999123100000010000000000000BRCLSCACNPR3107
012013102358CMGR3       010CEMAT       ON           R$  000000000040500000000004050000000000401000000000040400000000004010000000000400000000000043500005000000000000001200000000000000484800000000000000009999123100000010000000000000BRCMGRACNOR7114
012013102302CMIG3       010CEMIG       ON      N1   R$  000000000199900000000019990000000001967000000000197200000000019810000000001974000000000198100106000000000000062300000000000122912000000000000000009999123100000010000000000000BRCMIGACNOR6208
012013102396CMIG3F      020CEMIG       ON      N1   R$  000000000199000000000020090000000001968000000000198200000000019700000000001968000000000197000037000000000000000877000000000001739015000000000000009999123100000010000000000000BRCMIGACNOR6208
012013102302CMIG4       010CEMIG       PN      N1   R$  000000000202100000000020320000000001992000000000200400000000020000000000001999000000000200006401000000000001907000000000003821634300000000000000009999123100000010000000000000BRCMIGACNPR3208
012013102396CMIG4F      020CEMIG       PN      N1   R$  000000000202400000000020380000000001992000000000200800000000019960000000001996000000000201100169000000000000004207000000000008447555000000000000009999123100000010000000000000BRCMIGACNPR3208
012013102362CMIG4T      030CEMIG       PN      N1030R$  000000000203300000000020340000000002029000000000203100000000020300000000000000000000000000000006000000000000002000000000000004063449000000000000009999123100000010000000000000BRCMIGACNPR3208
012013102362CMIG4T      030CEMIG       PN      N1061R$  000000000205200000000020530000000002052000000000205200000000020530000000000000000000000000000002000000000000000200000000000000410589000000000000009999123100000010000000000000BRCMIGACNPR3208
012013102362CMIG4T      030CEMIG       PN      N1090R$  000000000204600000000020470000000002046000000000204600000000020470000000000000000000000000000002000000000000005000000000000010232000000000000000009999123100000010000000000000BRCMIGACNPR3208
012013102362CMIG4T      030CEMIG       PN      N1120R$  000000000206800000000020690000000002060000000000206300000000020610000000000000000000000000000004000000000000000900000000000001857525000000000000009999123100000010000000000000BRCMIGACNPR3208
012013102378CMIGK20     070CMIG        PN      N1000R$  000000000005000000000000500000000000050000000000005000000000000500000000000020000000000007000001000000000000001800000000000000090000000000000200002013111800000010000000000000BRCMIGACNPR3208
012013102378CMIGK50     070CMIG        PN      N1000R$  000000000003000000000000300000000000030000000000003000000000000300000000000000000000000000000001000000000000003000000000000000090000000000000205002013111800000010000000000000BRCMIGACNPR3208
012013102312CNES11B     010FII CENESP  CI  ER  MB   R$  000000001280000000000129300000000012710000000001286800000000127100000000012710000000001293000011000000000000000122000000000001569950000000000000009999123100000010000000000000BRCNESCTF001127
012013102302COCA34      010COCA COLA   DRN          R$  000000000859000000000085900000000008590000000000859000000000085900000000008480000000000882000001000000000000000100000000000000859000000000000000009999123100000010000000000000BRCOCABDR002109
012013102302COCE3       010COELCE      ON           R$  000000000400000000000040290000000004000000000000401400000000040290000000003970000000000403000002000000000000000200000000000000802900000000000000009999123100000010000000000000BRCOCEACNOR0132
012013102302COCE5       010COELCE      PNA          R$  000000000387800000000039100000000003878000000000389400000000039000000000003884000000000390000128000000000000064500000000000251196100000000000000009999123100000010000000000000BRCOCEACNPA3133
012013102396COCE5F      020COELCE      PNA          R$  000000000388100000000039320000000003875000000000389100000000038790000000003879000000000393200013000000000000000263000000000001023362000000000000009999123100000010000000000000BRCOCEACNPA3133
012013102302CPFE3       010CPFL ENERGIAON      NM   R$  000000000200800000000020320000000001995000000000200900000000020090000000002009000000000201003937000000000000926700000000001861913100000000000000009999123100000010000000000000BRCPFEACNOR0122
012013102396CPFE3F      020CPFL ENERGIAON      NM   R$  000000000201000000000020280000000001981000000000200900000000019810000000001980000000000201500051000000000000001441000000000002895703000000000000009999123100000010000000000000BRCPFEACNOR0122
012013102362CPFE3S      030CPFL ENERGIAON      NM090R$  000000000206200000000020630000000002061000000000206100000000020620000000000000000000000000000004000000000000005000000000000010309375000000000000009999123100000010000000000000BRCPFEACNOR0122
012013102362CPFE3T      030CPFL ENERGIAON      NM030R$  000000000201700000000020180000000002017000000000201700000000020180000000000000000000000000000002000000000000000500000000000001008711000000000000009999123100000010000000000000BRCPFEACNOR0122
012013102378CPFEK20     070CPFE        ON      NM000R$  000000000006000000000000600000000000060000000000006000000000000600000000000000000000000006000002000000000000010000000000000000600000000000000200002013111800000010000000000000BRCPFEACNOR0122
012013102302CPLE3       010COPEL       ON      N1   R$  000000000222200000000022500000000002213000000000224300000000022250000000002215000000000222500132000000000000119200000000000267391500000000000000009999123100000010000000000000BRCPLEACNOR8128
012013102396CPLE3F      020COPEL       ON      N1   R$  000000000240000000000025000000000002390000000000240700000000023900000000002225000000000238000004000000000000000100000000000000240760000000000000009999123100000010000000000000BRCPLEACNOR8128
012013102302CPLE6       010COPEL       PNB     N1   R$  000000000312500000000031390000000003076000000000309800000000031000000000003100000000000310502349000000000000382400000000001184780800000000000000009999123100000010000000000000BRCPLEACNPB9125
012013102396CPLE6F      020COPEL       PNB     N1   R$  000000000310700000000031250000000003071000000000310500000000030900000000003072000000000314300028000000000000000949000000000002946638000000000000009999123100000010000000000000BRCPLEACNPB9125
012013102362CPLE6T      030COPEL       PNB     N1030R$  000000000315700000000031580000000003157000000000315700000000031580000000000000000000000000000002000000000000001000000000000003157437000000000000009999123100000010000000000000BRCPLEACNPB9125
012013102302CPRE3       010CPFL RENOVAVON      NM   R$  000000000136500000000013650000000001356000000000136000000000013590000000001348000000000135900003000000000000000300000000000000408000000000000000009999123100000010000000000000BRCPREACNOR5100
012013102396CPRE3F      020CPFL RENOVAVON      NM   R$  000000000134500000000013450000000001299000000000133200000000012990000000001210000000000132800003000000000000000096000000000000127878000000000000009999123100000010000000000000BRCPREACNOR5100
012013102302CRDE3       010CR2         ON      NM   R$  000000000039000000000003950000000000390000000000039300000000003950000000000385000000000039500003000000000000000400000000000000157200000000000000009999123100000010000000000000BRCRDEACNOR1108
012013102302CREM3       010CREMER      ON      NM   R$  000000000150700000000015580000000001507000000000151500000000015580000000001515000000000155900015000000000000006700000000000010153100000000000000009999123100000010000000000000BRCREMACNOR2167
012013102396CREM3F      020CREMER      ON      NM   R$  000000000152000000000015200000000001520000000000152000000000015200000000001452000000000159400002000000000000000002000000000000003040000000000000009999123100000010000000000000BRCREMACNOR2167
012013102302CRIV4       010ALFA FINANC PN           R$  000000000044000000000004400000000000440000000000044000000000004400000000000433000000000044800001000000000000005000000000000002200000000000000000009999123100000010000000000000BRCRIVACNPR1190
012013102302CRUZ3       010SOUZA CRUZ  ON           R$  000000000254400000000025440000000002451000000000249000000000024510000000002451000000000245808268000000000001989700000000004954184100000000000000009999123100000010000000000000BRCRUZACNOR0248
012013102396CRUZ3F      020SOUZA CRUZ  ON           R$  000000000258700000000025870000000002458000000000249500000000024700000000002463000000000250000180000000000000004261000000000010623920000000000000009999123100000010000000000000BRCRUZACNOR0248
012013102362CRUZ3S      030SOUZA CRUZ  ON        090R$  000000000256500000000025660000000002565000000000256500000000025660000000000000000000000000000002000000000000000800000000000002052314000000000000009999123100000010000000000000BRCRUZACNOR0248
012013102362CRUZ3T      030SOUZA CRUZ  ON        090R$  000000000255500000000025560000000002555000000000255500000000025560000000000000000000000000000002000000000000010500000000000026833411000000000000009999123100000010000000000000BRCRUZACNOR0248
012013102362CRUZ3T      030SOUZA CRUZ  ON        016R$  000000000246900000000025140000000002469000000000248200000000025140000000000000000000000000000008000000000000001400000000000003475024000000000000009999123100000010000000000000BRCRUZACNOR0248
012013102362CRUZ3T      030SOUZA CRUZ  ON        030R$  000000000251700000000025240000000002517000000000252200000000025240000000000000000000000000000008000000000000007500000000000018921987000000000000009999123100000010000000000000BRCRUZACNOR0248
012013102362CRUZ3T      030SOUZA CRUZ  ON        037R$  000000000247200000000024730000000002472000000000247200000000024730000000000000000000000000000002000000000000000500000000000001236284000000000000009999123100000010000000000000BRCRUZACNOR0248
012013102362CRUZ3T      030SOUZA CRUZ  ON        061R$  000000000253600000000025370000000002486000000000250400000000024870000000000000000000000000000014000000000000018000000000000045074435000000000000009999123100000010000000000000BRCRUZACNOR0248
012013102302CSAN3       010COSAN       ON      NM   R$  000000000443800000000044770000000004375000000000441700000000043990000000004397000000000439904489000000000000972500000000004295864700000000000000009999123100000010000000000000BRCSANACNOR6108
012013102396CSAN3F      020COSAN       ON      NM   R$  000000000448000000000044800000000004350000000000441700000000043500000000004350000000000447800034000000000000000704000000000003109847000000000000009999123100000010000000000000BRCSANACNOR6108
012013102362CSAN3T      030COSAN       ON      NM181R$  000000000466300000000046640000000004629000000000464800000000046300000000000000000000000000000016000000000000004100000000000019059622000000000000009999123100000010000000000000BRCSANACNOR6108
012013102302CSCO34      010CISCO       DRN          R$  000000000489500000000048950000000004895000000000489500000000048950000000004820000000000490000001000000000000000400000000000001958000000000000000009999123100000010000000000000BRCSCOBDR004111
012013102302CSMG3       010COPASA      ON      NM   R$  000000000379600000000038130000000003744000000000377500000000037850000000003779000000000378501280000000000000204100000000000770563300000000000000009999123100000010000000000000BRCSMGACNOR5128
012013102396CSMG3F      020COPASA      ON      NM   R$  000000000385000000000038500000000003747000000000377000000000037470000000003725000000000380000014000000000000000163000000000000614569000000000000009999123100000010000000000000BRCSMGACNOR5128
012013102314CSMO11      010ISHARES CSMOCI           R$  000000000486100000000048610000000004827000000000484900000000048270000000004800000000000491000002000000000000000030000000000000145490000000000000009999123100000010000000000000BRCSMOCTF002100
012013102302CSNA3       010SID NACIONALON           R$  000000000122400000000012400000000001215000000000122700000000012210000000001221000000000122210422000000000008196400000000010062682900000000000000009999123100000010000000000000BRCSNAACNOR6243
012013102396CSNA3F      020SID NACIONALON           R$  000000000122500000000012390000000001215000000000122600000000012170000000001217000000000122500052000000000000001755000000000002152407000000000000009999123100000010000000000000BRCSNAACNOR6243
012013102362CSNA3T      030SID NACIONALON        061R$  000000000124500000000012460000000001245000000000124500000000012460000000000000000000000000000004000000000000009500000000000011832824000000000000009999123100000010000000000000BRCSNAACNOR6243
012013102362CSNA3T      030SID NACIONALON        181R$  000000000128900000000012900000000001289000000000128900000000012900000000000000000000000000000002000000000000001500000000000001933547000000000000009999123100000010000000000000BRCSNAACNOR6243
012013102378CSNAK10     070CSNA        ON        000R$  000000000026700000000002670000000000255000000000026200000000002550000000000000000000000000000004000000000000013000000000000003411000000000000098002013111800000010000000000000BRCSNAACNOR6242
012013102378CSNAK11     070CSNA        ON        000R$  000000000014200000000001550000000000142000000000014600000000001450000000000000000000000000000007000000000000004400000000000000642400000000000110002013111800000010000000000000BRCSNAACNOR6243
012013102378CSNAK12     070CSNA  FM    ON        000R$  000000000006800000000000780000000000067000000000007100000000000670000000000000000000000000000025000000000000047500000000000003376400000000000120002013111800000010000000000000BRCSNAACNOR6243
012013102378CSNAK13     070CSNA  FM    ON        000R$  000000000002200000000000300000000000022000000000002600000000000260000000000027000000000003000027000000000000039000000000000001043500000000000130002013111800000010000000000000BRCSNAACNOR6243
012013102378CSNAK14     070CSNA        ON        000R$  000000000001400000000000140000000000014000000000001400000000000140000000000007000000000001400001000000000000000500000000000000007000000000000140002013111800000010000000000000BRCSNAACNOR6243
012013102378CSNAK41     070CSNA  FM    ON        000R$  000000000010200000000001120000000000102000000000010600000000001060000000000000000000000000000007000000000000018800000000000002002800000000000115002013111800000010000000000000BRCSNAACNOR6243
012013102378CSNAK42     070CSNA  FM    ON        000R$  000000000004100000000000470000000000041000000000004100000000000430000000000015000000000000000017000000000000034500000000000001447000000000000125002013111800000010000000000000BRCSNAACNOR6243
012013102378CSNAK43     070CSNA  FM    ON        000R$  000000000001500000000000150000000000014000000000001400000000000140000000000014000000000000000007000000000000021000000000000000311500000000000135002013111800000010000000000000BRCSNAACNOR6243
012013102378CSNAL10     070CSNA        ON        000R$  000000000027000000000002700000000000240000000000025500000000002400000000000000000000000000000002000000000000000200000000000000051000000000000100002013121600000010000000000000BRCSNAACNOR6243
012013102378CSNAL11     070CSNA        ON        000R$  000000000021300000000002130000000000213000000000021300000000002130000000000000000000000000000002000000000000001300000000000000276900000000000104702013121600000010000000000000BRCSNAACNOR6241
012013102378CSNAL12     070CSNA  FM    ON        000R$  000000000012600000000001400000000000126000000000013200000000001350000000000065000000000000000008000000000000018700000000000002475900000000000114702013121600000010000000000000BRCSNAACNOR6241
012013102378CSNAL13     070CSNA  FM    ON        000R$  000000000005000000000000550000000000044000000000005000000000000550000000000000000000000000000006000000000000020500000000000001031500000000000130002013121600000010000000000000BRCSNAACNOR6243
012013102378CSNAL42     070CSNA  FM    ON        000R$  000000000010000000000001000000000000100000000000010000000000001000000000000010000000000000000001000000000000002400000000000000240000000000000119702013121600000010000000000000BRCSNAACNOR6241
012013102378CSNAL43     070CSNA  FM    ON        000R$  000000000003100000000000380000000000030000000000003500000000000370000000000000000000000000000026000000000000069500000000000002445000000000000135002013121600000010000000000000BRCSNAACNOR6243
012013102382CSNAM11     080CSNAE       ON        000R$  000000000005000000000000500000000000050000000000005000000000000500000000000000000000000000000002000000000000140000000000000007000000000000000110002014012000000010000000000000BRCSNAACNOR6243
012013102382CSNAN10     080CSNAE       ON        000R$  000000000001600000000000170000000000016000000000001600000000000170000000000000000000000000000004000000000004000000000000000065000000000000000100002014021700000010000000000000BRCSNAACNOR6243
012013102382CSNAN41     080CSNAE       ON        000R$  000000000005700000000000570000000000057000000000005700000000000570000000000000000000000000000003000000000004000000000000000228000000000000000115002014021700000010000000000000BRCSNAACNOR6243
012013102382CSNAW11     080CSNAE FM    ON        000R$  000000000001600000000000160000000000014000000000001500000000000140000000000000000000000001700016000000000000037500000000000000588000000000000110002013111800000010000000000000BRCSNAACNOR6243
012013102382CSNAW12     080CSNAE FM    ON        000R$  000000000003800000000000420000000000035000000000003800000000000370000000000027000000000004000042000000000000077400000000000002980500000000000120002013111800000010000000000000BRCSNAACNOR6243
012013102382CSNAW40     080CSNAE       ON        000R$  000000000001000000000000100000000000010000000000001000000000000100000000000000000000000000000002000000000000010000000000000000100000000000000104002013111800000010000000000000BRCSNAACNOR6243
012013102382CSNAW41     080CSNAE FM    ON        000R$  000000000002400000000000260000000000022000000000002200000000000220000000000024000000000000000004000000000000007000000000000000160000000000000115002013111800000010000000000000BRCSNAACNOR6243
012013102382CSNAW42     080CSNAE FM    ON        000R$  000000000006600000000000660000000000059000000000006200000000000590000000000000000000000000000002000000000000004400000000000000276400000000000125002013111800000010000000000000BRCSNAACNOR6243
012013102382CSNAX11     080CSNAE       ON        000R$  000000000001600000000000160000000000016000000000001600000000000160000000000015000000000002000001000000000000000500000000000000008000000000000104702013121600000010000000000000BRCSNAACNOR6241
012013102382CSNAX12     080CSNAE FM    ON        000R$  000000000003600000000000400000000000034000000000003700000000000400000000000033000000000005500031000000000000075100000000000002792500000000000114702013121600000010000000000000BRCSNAACNOR6241
012013102382CSNAX2      080CSNAE FM    ON        000R$  000000000008300000000000830000000000078000000000008100000000000830000000000000000000000000000006000000000000011500000000000000937400000000000125002013121600000010000000000000BRCSNAACNOR6243
012013102382CSNAX42     080CSNAE FM    ON        000R$  000000000005500000000000600000000000052000000000005300000000000590000000000000000000000000000040000000000000122400000000000006595700000000000119702013121600000010000000000000BRCSNAACNOR6241
012013102302CTAX11      010CONTAX      UNT     N2   R$  000000000186200000000018800000000001837000000000184800000000018450000000001842000000000184500082000000000000044400000000000082062300000000000000009999123100000010000000000000BRCTAXCDAM19100
012013102302CTAX4       010CONTAX      PN      N2   R$  000000000036700000000003700000000000367000000000036800000000003670000000000367000000000037100004000000000000000400000000000000147200000000000000009999123100000010000000000000BRCTAXACNPR0114
012013102302CTIP3       010CETIP       ON      NM   R$  000000000247900000000024790000000002425000000000243800000000024460000000002445000000000244604461000000000001217700000000002969400800000000000000009999123100000010000000000000BRCTIPACNOR2120
012013102396CTIP3F      020CETIP       ON      NM   R$  000000000250000000000025000000000002417000000000243700000000024350000000002420000000000252100029000000000000000652000000000001589306000000000000009999123100000010000000000000BRCTIPACNOR2120
012013102362CTIP3T      030CETIP       ON      NM061R$  000000000246900000000024750000000002469000000000247200000000024750000000000000000000000000000004000000000000065000000000000160680780000000000000009999123100000010000000000000BRCTIPACNOR2120
012013102378CTIPL54     070CTIP        ON      NM000R$  000000000009900000000000990000000000099000000000009900000000000990000000000000000000000000000001000000000000065000000000000006435000000000000245002013121600000010000000000000BRCTIPACNOR2120
012013102302CTKA4       010KARSTEN     PN           R$  000000000009600000000000960000000000096000000000009600000000000960000000000096000000000009700003000000000000000800000000000000076800000000000000009999123100000010000000000000BRCTKAACNPR7041
012013102302CTNM4       010COTEMINAS   PN           R$  000000000022900000000002340000000000227000000000023000000000002300000000000230000000000023300033000000000000028600000000000006580000000000000000009999123100000010000000000000BRCTNMACNPR6128
012013102302CTSA3       010SANTANENSE  ON           R$  000000000054700000000005470000000000547000000000054700000000005470000000000527000000000054700003000000000000005500000000000003008500000000000000009999123100000010000000000000BRCTSAACNOR3051
012013102362CTSA3T      030SANTANENSE  ON        089R$  000000000055800000000005590000000000558000000000055800000000005590000000000000000000000000000004000000000000005300000000000002959111000000000000009999123100000010000000000000BRCTSAACNOR3051
012013102302CTSA4       010SANTANENSE  PN           R$  000000000056500000000005650000000000565000000000056500000000005650000000000559000000000059300001000000000000001500000000000000847500000000000000009999123100000010000000000000BRCTSAACNPR0051
012013102312CXCE11B     010FII CX CEDAECI      MB   R$  000000019350000000001938000000000193500000000019359700000001938000000000193000000000019380000004000000000000000071000000000013745399000000000000009999123100000010000000000000BRCXCECTF004139
