00COTAHIST.2013BOVESPA 20131003                                                                                                                                                                                                                      
012013100302AAPL34      010APPLE       DRN          R$  000000001072500000000107250000000010640000000001064200000000107150000000010570000000001071500003000000000000017000000000000180921500000000000000009999123100000010000000000000BRAAPLBDR004105
012013100396AAPL34F     020APPLE       DRN          R$  000000001063800000000106380000000010638000000001063800000000106380000000010400000000000000000001000000000000000034000000000000361692000000000000009999123100000010000000000000BRAAPLBDR004105
012013100302ABCB4       010ABC BRASIL  PN      N2   R$  000000000126000000000012700000000001236000000000125400000000012700000000001260000000000127100622000000000000116300000000000145870500000000000000009999123100000010000000000000BRABCBACNPR4120
012013100396ABCB4F      020ABC BRASIL  PN      N2   R$  000000000125500000000012770000000001244000000000125200000000012660000000001256000000000127900015000000000000000285000000000000356956000000000000009999123100000010000000000000BRABCBACNPR4120
012013100312ABCP11      010FII ABC IMOBCI  ER       R$  000000000099000000000009900000000000990000000000099000000000009900000000000950000000000099000001000000000000001000000000000000990000000000000000009999123100000010000000000000BRABCPCTF000216
012013100302ABRE11      010ABRIL EDUCA UNT     N2   R$  000000000337000000000033700000000003300000000000333000000000033380000000003311000000000334200199000000000000043200000000000143871400000000000000009999123100000010000000000000BRABRECDAM15102
012013100396ABRE11F     020ABRIL EDUCA UNT     N2   R$  000000000332500000000033250000000003325000000000332500000000033250000000003060000000000349600001000000000000000017000000000000056525000000000000009999123100000010000000000000BRABRECDAM15102
012013100362ABRE11T     030ABRIL EDUCA UNT     N2032R$  000000000334700000000033480000000003347000000000334700000000033480000000000000000000000000000002000000000000001000000000000003347590000000000000009999123100000010000000000000BRABRECDAM15102
012013100302AEDU3       010ANHANGUERA  ON      NM   R$  000000000129800000000013050000000001265000000000127700000000012800000000001280000000000128105140000000000002920300000000003731182000000000000000009999123100000010000000000000BRAEDUACNOR9107
012013100396AEDU3F      020ANHANGUERA  ON      NM   R$  000000000130000000000013000000000001256000000000127500000000012750000000001275000000000129500017000000000000000479000000000000610757000000000000009999123100000010000000000000BRAEDUACNOR9107
012013100362AEDU3T      030ANHANGUERA  ON      NM032R$  000000000129400000000012950000000001294000000000129400000000012950000000000000000000000000000002000000000000002500000000000003236273000000000000009999123100000010000000000000BRAEDUACNOR9107
012013100362AEDU3T      030ANHANGUERA  ON      NM060R$  000000000128400000000012850000000001284000000000128400000000012850000000000000000000000000000002000000000000005500000000000007065362000000000000009999123100000010000000000000BRAEDUACNOR9107
012013100378AEDUK13     070AEDU        ON      NM000R$  000000000002800000000000280000000000028000000000002800000000000280000000000028000000000004000002000000000000010900000000000000305200000000000130002013111800000010000000000000BRAEDUACNOR9107
012013100312AEFI11      010FII AESAPAR CI  ER       R$  000000001205000000000121690000000011920000000001204700000000119200000000011920000000001216900027000000000000005794000000000069802915000000000000009999123100000010000000000000BRAEFICTF002122
012013100302AELP3       010AES ELPA    ON           R$  000000000095800000000009690000000000932000000000094400000000009690000000000910000000000096600007000000000000000800000000000000755800000000000000009999123100000010000000000000BRAELPACNOR2119
012013100302AFLU3       010AFLUENTE    ON           R$  000000000055500000000005550000000000555000000000055500000000005550000000000000000000000000000002000000000000000200000000000000111000000000000000009999123100000010000000000000BRAFLUACNOR9117
012013100312AGCX11      010FII AG CAIXACI  ER       R$  000000009560000000000956000000000094600000000009486000000000946000000000094200000000009555000009000000000000000281000000000026655750000000000000009999123100000010000000000000BRAGCXCTF003111
012013100302AGRO3       010BRASILAGRO  ON      NM   R$  000000000100100000000010010000000000963000000000097100000000009700000000000970000000000097100094000000000000063300000000000061510800000000000000009999123100000010000000000000BRAGROACNOR7102
012013100302ALLL3       010ALL AMER LATON      NM   R$  000000000091000000000009150000000000900000000000090500000000009050000000000905000000000090604645000000000001330400000000001204837000000000000000009999123100000010000000000000BRALLLACNOR6118
012013100396ALLL3F      020ALL AMER LATON      NM   R$  000000000091300000000009140000000000901000000000090400000000009060000000000900000000000091500028000000000000000784000000000000709345000000000000009999123100000010000000000000BRALLLACNOR6118
012013100312ALMI11B     010FII TORRE ALCI  ER  MB   R$  000000031400000000003179900000000311010000000031196600000003120010000000312000000000031689000018000000000000000150000000000046794951000000000000009999123100000010000000000000BRALMICTF003206
012013100302ALPA3       010ALPARGATAS  ON      N1   R$  000000000127000000000012700000000001270000000000127000000000012700000000001270000000000129900001000000000000000200000000000000254000000000000000009999123100000010000000000000BRALPAACNOR0203
012013100302ALPA4       010ALPARGATAS  PN      N1   R$  000000000143800000000014500000000001418000000000143200000000014450000000001440000000000144501393000000000000370200000000000530207900000000000000009999123100000010000000000000BRALPAACNPR7203
012013100396ALPA4F      020ALPARGATAS  PN      N1   R$  000000000143700000000014500000000001428000000000143700000000014500000000001425000000000145000011000000000000000311000000000000447194000000000000009999123100000010000000000000BRALPAACNPR7203
012013100302ALSC3       010ALIANSCE    ON      NM   R$  000000000206100000000020610000000002018000000000204100000000020450000000002038000000000204501570000000000000326200000000000665875500000000000000009999123100000010000000000000BRALSCACNOR0104
012013100396ALSC3F      020ALIANSCE    ON      NM   R$  000000000203300000000020430000000002033000000000203500000000020430000000002000000000000211500007000000000000000210000000000000427496000000000000009999123100000010000000000000BRALSCACNOR0104
012013100362ALSC3T      030ALIANSCE    ON      NM032R$  000000000205400000000020550000000002054000000000205400000000020550000000000000000000000000000002000000000000000500000000000001027246000000000000009999123100000010000000000000BRALSCACNOR0104
012013100302ALUP11      010ALUPAR      UNT     N2   R$  000000000172000000000017450000000001717000000000173300000000017450000000001729000000000174500378000000000000053400000000000092566500000000000000009999123100000010000000000000BRALUPCDAM15100
012013100396ALUP11F     020ALUPAR      UNT     N2   R$  000000000174500000000017970000000001725000000000174500000000017330000000001730000000000179900010000000000000000206000000000000359482000000000000009999123100000010000000000000BRALUPCDAM15100
012013100302AMAR3       010LOJAS MARISAON      NM   R$  000000000212500000000021260000000002053000000000208600000000020780000000002073000000000207801410000000000000420100000000000876455500000000000000009999123100000010000000000000BRAMARACNOR4109
012013100396AMAR3F      020LOJAS MARISAON      NM   R$  000000000209400000000021000000000002044000000000208200000000020680000000002061000000000211100011000000000000000217000000000000451990000000000000009999123100000010000000000000BRAMARACNOR4109
012013100362AMAR3T      030LOJAS MARISAON      NM060R$  000000000212800000000021290000000002128000000000212800000000021290000000000000000000000000000002000000000000001000000000000002128980000000000000009999123100000010000000000000BRAMARACNOR4109
012013100362AMAR3T      030LOJAS MARISAON      NM091R$  000000000214700000000021480000000002147000000000214700000000021480000000000000000000000000000002000000000000000055000000000000118135000000000000009999123100000010000000000000BRAMARACNOR4109
012013100302AMBV3       010AMBEV       ON           R$  000000000850700000000085100000000008352000000000841400000000084620000000008455000000000846200826000000000000153200000000001289114000000000000000009999123100000010000000000000BRAMBVACNOR4154
012013100396AMBV3F      020AMBEV       ON           R$  000000000850000000000087220000000008367000000000842400000000084600000000008450000000000872400037000000000000000872000000000007345839000000000000009999123100000010000000000000BRAMBVACNOR4154
012013100362AMBV3T      030AMBEV       ON        018R$  000000000841100000000084120000000008411000000000841100000000084120000000000000000000000000000002000000000000010000000000000084118500000000000000009999123100000010000000000000BRAMBVACNOR4154
012013100362AMBV3T      030AMBEV       ON        032R$  000000000843100000000084320000000008431000000000843100000000084320000000000000000000000000000002000000000000001000000000000008431101000000000000009999123100000010000000000000BRAMBVACNOR4154
012013100302AMBV4       010AMBEV       PN           R$  000000000851500000000085320000000008355000000000842200000000084900000000008488000000000849004562000000000001256400000000010582717900000000000000009999123100000010000000000000BRAMBVACNPR1154
012013100396AMBV4F      020AMBEV       PN           R$  000000000854000000000085570000000008350000000000842500000000084690000000008470000000000848600166000000000000003254000000000027420518000000000000009999123100000010000000000000BRAMBVACNPR1154
012013100362AMBV4T      030AMBEV       PN        032R$  000000000848200000000084830000000008435000000000844800000000084360000000000000000000000000000008000000000000001600000000000013517087000000000000009999123100000010000000000000BRAMBVACNPR1154
012013100362AMBV4T      030AMBEV       PN        060R$  000000000849200000000084930000000008489000000000849000000000084900000000000000000000000000000004000000000000000800000000000006792456000000000000009999123100000010000000000000BRAMBVACNPR1154
012013100378AMBVJ84     070AMBV        PN        000R$  000000000016300000000001630000000000163000000000016300000000001630000000000000000000000000000001000000000000000100000000000000016300000000000833502013102100000010000000000000BRAMBVACNPR1153
012013100378AMBVJ85     070AMBV        PN        000R$  000000000018000000000001800000000000180000000000018000000000001800000000000000000000000000000001000000000000000100000000000000018000000000000843502013102100000010000000000000BRAMBVACNPR1153
012013100378AMBVJ86     070AMBV        PN        000R$  000000000007800000000000780000000000078000000000007800000000000780000000000000000000000000000002000000000000003000000000000000234000000000000853502013102100000010000000000000BRAMBVACNPR1153
012013100378AMBVL9      070AMBV        PN        000R$  000000000012500000000001250000000000101000000000010100000000001010000000000000000000000000000002000000000000006000000000000000608400000000000900002013121600000010000000000000BRAMBVACNPR1154
012013100382AMBVX50     080AMBVE       PN        000R$  000000000012100000000001210000000000100000000000010000000000001000000000000000000000000000000002000000000000006000000000000000602100000000000800002013121600000010000000000000BRAMBVACNPR1154
012013100302AMZO34      010AMAZON      DRN          R$  000000007101500000000710150000000071015000000007101500000000710150000000068614000000007135800001000000000000000100000000000007101500000000000000009999123100000010000000000000BRAMZOBDR002100
012013100302ARTR3       010ARTERIS     ON      NM   R$  000000000195400000000019610000000001926000000000194600000000019500000000001950000000000195501319000000000000408600000000000795378700000000000000009999123100000010000000000000BRARTRACNOR3101
012013100396ARTR3F      020ARTERIS     ON      NM   R$  000000000195000000000019710000000001900000000000194100000000019710000000001941000000000197100015000000000000000558000000000001083434000000000000009999123100000010000000000000BRARTRACNOR3101
012013100302ARZZ3       010AREZZO CO   ON      NM   R$  000000000384300000000038460000000003690000000000375100000000037070000000003707000000000372300545000000000000083400000000000312886000000000000000009999123100000010000000000000BRARZZACNOR3109
012013100396ARZZ3F      020AREZZO CO   ON      NM   R$  000000000382000000000038200000000003658000000000370200000000037250000000003659000000000380000012000000000000000205000000000000758937000000000000009999123100000010000000000000BRARZZACNOR3109
012013100302AUTM3       010AUTOMETAL   ON      NM   R$  000000000185800000000018990000000001839000000000185600000000018530000000001853000000000185500595000000000000143100000000000265619800000000000000009999123100000010000000000000BRAUTMACNOR8109
012013100396AUTM3F      020AUTOMETAL   ON      NM   R$  000000000185000000000018540000000001839000000000184600000000018530000000001769000000000186800008000000000000000227000000000000419237000000000000009999123100000010000000000000BRAUTMACNOR8109
012013100302AXPB34      010AMERICAN EXPDRN ED       R$  000000001626400000000162640000000016264000000001626400000000162640000000016061000000001653700001000000000000004600000000000074814400000000000000009999123100000010000000000000BRAXPBBDR007106
012013100396AXPB34F     020AMERICAN EXPDRN ED       R$  000000001626400000000162640000000016264000000001626400000000162640000000000000000000000000000001000000000000000066000000000001073424000000000000009999123100000010000000000000BRAXPBBDR007106
012013100302BAHI3       010BAHEMA      ON           R$  000000000049000000000004900000000000490000000000049000000000004900000000000480000000000050000001000000000000000100000000000000049000000000000000009999123100000010000000000000BRBAHIACNOR1066
012013100302BAZA3       010AMAZONIA    ON           R$  000000000003200000000000320000000000032000000000003200000000000320000000000032000000000003300006000000000000018000000000000000576000000000000000009999123100000010000000000000BRBAZAACNOR0163
012013100302BBAS3       010BRASIL      ON      NM   R$  000000000260400000000026150000000002577000000000259700000000026150000000002610000000000261508337000000000004384600000000011391004300000000000000009999123100000010000000000000BRBBASACNOR3239
012013100396BBAS3F      020BRASIL      ON      NM   R$  000000000261000000000026100000000002578000000000259400000000026050000000002605000000000261000168000000000000005334000000000013837283000000000000009999123100000010000000000000BRBBASACNOR3239
012013100362BBAS3T      030BRASIL      ON      NM032R$  000000000261300000000026140000000002613000000000261300000000026140000000000000000000000000000002000000000000002000000000000005227429000000000000009999123100000010000000000000BRBBASACNOR3239
012013100362BBAS3T      030BRASIL      ON      NM091R$  000000000264800000000026490000000002648000000000264800000000026490000000000000000000000000000002000000000000000200000000000000529660000000000000009999123100000010000000000000BRBBASACNOR3239
012013100378BBASB27     070BBAS        ON      NM000R$  000000000013300000000001340000000000133000000000013300000000001340000000000000000000000000000002000000000000100000000000000013336000000000000270002014021700000010000000000000BRBBASACNOR3239
012013100378BBASJ22     070BBAS        ON      NM000R$  000000000051000000000005100000000000510000000000051000000000005100000000000200000000000000000001000000000000002800000000000001428000000000000209502013102100000010000000000000BRBBASACNOR3237
012013100378BBASJ24     070BBAS        ON      NM000R$  000000000033500000000003450000000000334000000000033900000000003450000000000330000000000000000005000000000000004700000000000001595000000000000227102013102100000010000000000000BRBBASACNOR3236
012013100378BBASJ25     070BBAS  FM    ON      NM000R$  000000000022000000000002260000000000204000000000021500000000002150000000000215000000000032100123000000000000234000000000000050332000000000000239502013102100000010000000000000BRBBASACNOR3237
012013100378BBASJ26     070BBAS  FM    ON      NM000R$  000000000016000000000001670000000000146000000000015600000000001620000000000150000000000024300133000000000000130500000000000020442000000000000246102013102100000010000000000000BRBBASACNOR3235
012013100378BBASJ27     070BBAS  FM    ON      NM000R$  000000000007700000000000870000000000073000000000007800000000000830000000000070000000000014800064000000000000085100000000000006703100000000000256102013102100000010000000000000BRBBASACNOR3235
012013100378BBASJ28     070BBAS  FM    ON      NM000R$  000000000002300000000000240000000000017000000000001900000000000200000000000017000000000002400093000000000000145700000000000002866400000000000269502013102100000010000000000000BRBBASACNOR3237
012013100378BBASJ29     070BBAS  FM    ON      NM000R$  000000000000800000000000080000000000006000000000000600000000000080000000000005000000000001000031000000000000134400000000000000838000000000000276102013102100000010000000000000BRBBASACNOR3235
012013100378BBASJ30     070BBAS        ON      NM000R$  000000000000200000000000030000000000001000000000000200000000000030000000000001000000000000300010000000000000074200000000000000157500000000000286102013102100000010000000000000BRBBASACNOR3235
012013100378BBASJ56     070BBAS        ON      NM000R$  000000000011500000000001150000000000114000000000011400000000001140000000000010000000000000000002000000000000001000000000000000114500000000000251102013102100000010000000000000BRBBASACNOR3235
012013100378BBASK25     070BBAS  FM    ON      NM000R$  000000000027600000000002770000000000255000000000026500000000002710000000000100000000000000000065000000000000102100000000000027116100000000000237102013111800000010000000000000BRBBASACNOR3236
012013100378BBASK26     070BBAS  FM    ON      NM000R$  000000000019400000000001940000000000178000000000018400000000001910000000000185000000000021500039000000000000054700000000000010106400000000000247102013111800000010000000000000BRBBASACNOR3236
012013100378BBASK27     070BBAS  FM    ON      NM000R$  000000000012300000000001230000000000111000000000011700000000001200000000000045000000000000000015000000000000046000000000000005410900000000000257102013111800000010000000000000BRBBASACNOR3236
012013100378BBASK28     070BBAS  FM    ON      NM000R$  000000000006500000000000700000000000060000000000006400000000000670000000000051000000000007100020000000000000025600000000000001663600000000000267102013111800000010000000000000BRBBASACNOR3236
012013100378BBASK29     070BBAS  FM    ON      NM000R$  000000000002500000000000270000000000023000000000002400000000000270000000000018000000000002700009000000000000011000000000000000272100000000000279502013111800000010000000000000BRBBASACNOR3237
012013100378BBASL59     070BBAS        ON      NM000R$  000000000002200000000000220000000000022000000000002200000000000220000000000000000000000000000001000000000000003000000000000000066000000000000295002013121600000010000000000000BRBBASACNOR3239
012013100378BBASL60     070BBAS        ON      NM000R$  000000000003200000000000330000000000031000000000003100000000000330000000000014000000000003300019000000000000384500000000000012158400000000000286202013121600000010000000000000BRBBASACNOR3233
012013100382BBASM28     080BBASE       ON      NM000R$  000000000021700000000002170000000000217000000000021700000000002170000000000000000000000000000001000000000000001200000000000000260400000000000280002014012000000010000000000000BRBBASACNOR3239
012013100382BBASV24     080BBASE FM    ON      NM000R$  000000000000200000000000020000000000002000000000000200000000000020000000000000000000000000400001000000000000000100000000000000000200000000000227102013102100000010000000000000BRBBASACNOR3236
012013100382BBASV25     080BBASE FM    ON      NM000R$  000000000000700000000000080000000000007000000000000700000000000080000000000000000000000000800033000000000000082300000000000000630400000000000239502013102100000010000000000000BRBBASACNOR3237
012013100382BBASV26     080BBASE FM    ON      NM000R$  000000000001200000000000140000000000012000000000001300000000000140000000000000000000000001400008000000000000025300000000000000334200000000000246102013102100000010000000000000BRBBASACNOR3235
012013100382BBASV27     080BBASE FM    ON      NM000R$  000000000004100000000000420000000000033000000000003600000000000330000000000025000000000004800028000000000000047700000000000001758800000000000256102013102100000010000000000000BRBBASACNOR3235
012013100382BBASV28     080BBASE       ON      NM000R$  000000000011400000000001140000000000114000000000011400000000001140000000000000000000000000000001000000000000000200000000000000022800000000000269502013102100000010000000000000BRBBASACNOR3237
012013100382BBASV29     080BBASE       ON      NM000R$  000000000016700000000001670000000000167000000000016700000000001670000000000000000000000020000001000000000000000800000000000000133600000000000276102013102100000010000000000000BRBBASACNOR3235
012013100382BBASW25     080BBASE FM    ON      NM000R$  000000000002000000000000200000000000020000000000002000000000000200000000000000000000000000000001000000000000001000000000000000020000000000000237102013111800000010000000000000BRBBASACNOR3236
012013100382BBASW27     080BBASE FM    ON      NM000R$  000000000006700000000000740000000000066000000000006700000000000670000000000000000000000000000014000000000000039800000000000002697400000000000257102013111800000010000000000000BRBBASACNOR3236
012013100382BBASW28     080BBASE       ON      NM000R$  000000000012100000000001210000000000121000000000012100000000001210000000000000000000000012200002000000000000006000000000000000726000000000000267102013111800000010000000000000BRBBASACNOR3236
012013100382BBASX25     080BBASE       ON      NM000R$  000000000003200000000000320000000000032000000000003200000000000320000000000028000000000003800001000000000000003000000000000000096000000000000236102013121600000010000000000000BRBBASACNOR3235
012013100382BBASX26     080BBASE       ON      NM000R$  000000000005000000000000510000000000050000000000005000000000000510000000000000000000000000000002000000000000006000000000000000303000000000000246102013121600000010000000000000BRBBASACNOR3235
012013100302BBDC3       010BRADESCO    ON  EJ  N1   R$  000000000350000000000035450000000003476000000000351200000000035250000000003525000000000352604490000000000001114800000000003915964700000000000000009999123100000010000000000000BRBBDCACNOR1607
012013100396BBDC3F      020BRADESCO    ON  EJ  N1   R$  000000000353500000000035490000000003468000000000351200000000034900000000003490000000000359600047000000000000001280000000000004493902000000000000009999123100000010000000000000BRBBDCACNOR1607
012013100302BBDC4       010BRADESCO    PN  EJ  N1   R$  000000000309100000000031160000000003047000000000307200000000030750000000003075000000000307909687000000000004249000000000013056423300000000000000009999123100000010000000000000BRBBDCACNPR8607
012013100396BBDC4F      020BRADESCO    PN  EJ  N1   R$  000000000306000000000031100000000003050000000000307500000000030610000000003061000000000308100172000000000000005324000000000016375522000000000000009999123100000010000000000000BRBBDCACNPR8607
012013100362BBDC4T      030BRADESCO    PN  EJ  N1060R$  000000000311100000000031120000000003111000000000311100000000031120000000000000000000000000000002000000000000005000000000000015557225000000000000009999123100000010000000000000BRBBDCACNPR8607
012013100378BBDCB63     070BBDC    /EJ PN      N1000R$  000000000010400000000001040000000000102000000000010300000000001020000000000000000000000000000002000000000000150000000000000015500000000000000334802014021700000010000000000000BRBBDCACNPR8606
012013100378BBDCJ1      070BBDC    /EJ PN      N1000R$  000000000004100000000000410000000000037000000000004000000000000370000000000000000000000000000010000000000000006300000000000000252900000000000314202013102100000010000000000000BRBBDCACNPR8603
012013100378BBDCJ2      070BBDC    /EJ PN      N1000R$  000000000001200000000000120000000000012000000000001200000000000120000000000000000000000002400001000000000000005000000000000000060000000000000324202013102100000010000000000000BRBBDCACNPR8603
012013100378BBDCJ29     070BBDC    /EJ PN      N1000R$  000000000023000000000002300000000000230000000000023000000000002300000000000185000000000026000001000000000000005000000000000001150000000000000287402013102100000010000000000000BRBBDCACNPR8602
012013100378BBDCJ30     070BBDC    /EJ PN      N1000R$  000000000014100000000001710000000000121000000000014000000000001380000000000091000000000000000231000000000000295900000000000041601100000000000297402013102100000010000000000000BRBBDCACNPR8602
012013100378BBDCJ31     070BBDC    /EJ PN      N1000R$  000000000007400000000000900000000000058000000000006900000000000700000000000058000000000007000070000000000000111600000000000007808400000000000307402013102100000010000000000000BRBBDCACNPR8602
012013100378BBDCJ32     070BBDC    /EJ PN      N1000R$  000000000004400000000000460000000000024000000000003000000000000300000000000023000000000003000073000000000000119900000000000003674200000000000317402013102100000010000000000000BRBBDCACNPR8602
012013100378BBDCJ33     070BBDC    /EJ PN      N1000R$  000000000001200000000000120000000000007000000000000900000000000100000000000006000000000001100031000000000000068400000000000000672000000000000327402013102100000010000000000000BRBBDCACNPR8602
012013100378BBDCJ34     070BBDC    /EJ PN      N1000R$  000000000000300000000000030000000000002000000000000200000000000030000000000002000000000000500015000000000000028800000000000000071000000000000337002013102100000010000000000000BRBBDCACNPR8600
012013100378BBDCK30     070BBDC    /EJ PN      N1000R$  000000000017400000000001840000000000154000000000016800000000001700000000000141000000000020900153000000000000215100000000000036262400000000000299602013111800000010000000000000BRBBDCACNPR8605
012013100378BBDCK31     070BBDC    /EJ PN      N1000R$  000000000011100000000001210000000000100000000000010700000000001060000000000103000000000014800030000000000000053200000000000005735800000000000309602013111800000010000000000000BRBBDCACNPR8605
012013100378BBDCK32     070BBDC    /EJ PN      N1000R$  000000000007600000000000830000000000068000000000007700000000000800000000000062000000000008000074000000000000097700000000000007539700000000000317202013111800000010000000000000BRBBDCACNPR8601
012013100378BBDCK33     070BBDC    /EJ PN      N1000R$  000000000004600000000000460000000000035000000000003500000000000350000000000031000000000004600007000000000000006300000000000000223600000000000327402013111800000010000000000000BRBBDCACNPR8602
012013100378BBDCK34     070BBDC    /EJ PN      N1000R$  000000000002000000000000200000000000016000000000001800000000000160000000000011000000000000000021000000000000040300000000000000757000000000000339402013111800000010000000000000BRBBDCACNPR8604
012013100378BBDCK35     070BBDC    /EJ PN      N1000R$  000000000000900000000000090000000000009000000000000900000000000090000000000000000000000000000001000000000000001000000000000000009000000000000347402013111800000010000000000000BRBBDCACNPR8602
012013100378BBDCL1      070BBDC    /EJ PN      N1000R$  000000000016400000000001640000000000161000000000016200000000001610000000000000000000000000000002000000000000001000000000000000162500000000000307002013121600000010000000000000BRBBDCACNPR8600
012013100378BBDCL32     070BBDC    /EJ PN      N1000R$  000000000011800000000001180000000000118000000000011800000000001180000000000088000000000000000001000000000000000700000000000000082600000000000317002013121600000010000000000000BRBBDCACNPR8600
012013100378BBDCL34     070BBDC    /EJ PN      N1000R$  000000000004800000000000520000000000048000000000005000000000000520000000000040000000000005500006000000000000009300000000000000469600000000000337002013121600000010000000000000BRBBDCACNPR8600
012013100378BBDCL36     070BBDC    /EJ PN      N1000R$  000000000008800000000000880000000000088000000000008800000000000880000000000000000000000000000003000000000000002500000000000000220000000000000323902013121600000010000000000000BRBBDCACNPR8597
012013100382BBDCV1      080BBDCE   /EJ PN      N1000R$  000000000008900000000001020000000000089000000000009600000000001020000000000000000000000000000016000000000000009100000000000000878500000000000314202013102100000010000000000000BRBBDCACNPR8603
012013100382BBDCV26     080BBDCE   /EJ PN      N1000R$  000000000000300000000000030000000000003000000000000300000000000030000000000004000000000000000003000000000000030000000000000000090000000000000259402013102100000010000000000000BRBBDCACNPR8604
012013100382BBDCV27     080BBDCE   /EJ PN      N1000R$  000000000000300000000000060000000000003000000000000400000000000060000000000003000000000000800013000000000000121100000000000000571500000000000267402013102100000010000000000000BRBBDCACNPR8602
012013100382BBDCV29     080BBDCE   /EJ PN      N1000R$  000000000000900000000000160000000000009000000000001400000000000150000000000000000000000002000029000000000000074400000000000001070800000000000287402013102100000010000000000000BRBBDCACNPR8602
012013100382BBDCV30     080BBDCE   /EJ PN      N1000R$  000000000002100000000000320000000000021000000000002400000000000320000000000000000000000000000009000000000000016700000000000000405400000000000297402013102100000010000000000000BRBBDCACNPR8602
012013100382BBDCV31     080BBDCE   /EJ PN      N1000R$  000000000006000000000000710000000000048000000000006000000000000570000000000040000000000000000033000000000000056400000000000003433700000000000307402013102100000010000000000000BRBBDCACNPR8602
012013100382BBDCV32     080BBDCE   /EJ PN      N1000R$  000000000011800000000001340000000000096000000000011800000000001150000000000000000000000000000062000000000000101000000000000011924900000000000317402013102100000010000000000000BRBBDCACNPR8602
012013100382BBDCV58     080BBDCE   /EJ PN      N1000R$  000000000000800000000000100000000000008000000000000900000000000090000000000000000000000000000018000000000000123400000000000001145400000000000279602013102100000010000000000000BRBBDCACNPR8605
012013100382BBDCW30     080BBDCE   /EJ PN      N1000R$  000000000005800000000000660000000000058000000000006200000000000650000000000000000000000000000058000000000000040400000000000002528800000000000299602013111800000010000000000000BRBBDCACNPR8605
012013100382BBDCW31     080BBDCE   /EJ PN      N1000R$  000000000009500000000001060000000000095000000000009800000000001030000000000000000000000000000006000000000000011100000000000001092500000000000309602013111800000010000000000000BRBBDCACNPR8605
012013100382BBDCW32     080BBDCE   /EJ PN      N1000R$  000000000014000000000001560000000000128000000000013900000000001410000000000000000000000000000016000000000000032100000000000004467200000000000317202013111800000010000000000000BRBBDCACNPR8601
012013100382BBDCW9      080BBDCE   /EJ PN      N1000R$  000000000003600000000000360000000000036000000000003600000000000360000000000000000000000000000001000000000000001600000000000000057600000000000289602013111800000010000000000000BRBBDCACNPR8605
012013100312BBFI11B     010FII BB PROGRCI  ER  MB   R$  000000042300000000004230000000000423000000000042300000000004230000000000421000000000042300000001000000000000000014000000000005922000000000000000009999123100000010000000000000BRBBFICTF006199
012013100312BBPO11      010FII BB PRGIICI  ER       R$  000000001109500000000111000000000011061000000001107400000000110610000000011061000000001108400112000000000000013148000000000145600983000000000000009999123100000010000000000000BRBBPOCTF003111
012013100312BBRC11      010FII BB CORP CI  ER       R$  000000000890000000000089000000000008821000000000884800000000088600000000008826000000000890000023000000000000001341000000000011866106000000000000009999123100000010000000000000BRBBRCCTF004125
012013100302BBRK3       010BR BROKERS  ON      NM   R$  000000000058600000000005890000000000580000000000058000000000005880000000000585000000000058801562000000000002240700000000001301900000000000000000009999123100000010000000000000BRBBRKACNOR4108
012013100396BBRK3F      020BR BROKERS  ON      NM   R$  000000000058000000000006000000000000580000000000058500000000005900000000000573000000000060000007000000000000000237000000000000138870000000000000009999123100000010000000000000BRBBRKACNOR4108
012013100302BBSE3       010BBSEGURIDADEON      NM   R$  000000000220500000000022200000000002135000000000217000000000021600000000002159000000000216007976000000000003460000000000007508431100000000000000009999123100000010000000000000BRBBSEACNOR5101
012013100396BBSE3F      020BBSEGURIDADEON      NM   R$  000000000220500000000022150000000002130000000000218300000000021530000000002153000000000216000305000000000000009567000000000020891475000000000000009999123100000010000000000000BRBBSEACNOR5101
012013100362BBSE3T      030BBSEGURIDADEON      NM060R$  000000000220800000000022090000000002208000000000220800000000022090000000000000000000000000000002000000000000000100000000000000220842000000000000009999123100000010000000000000BRBBSEACNOR5101
012013100378BBSEL24     070BBSE        ON      NM000R$  000000000001900000000000190000000000019000000000001900000000000190000000000000000000000000000002000000000000360000000000000006840000000000000240002013121600000010000000000000BRBBSEACNOR5101
012013100378BBSEL53     070BBSEE       ON      NM000R$  000000000002500000000000250000000000025000000000002500000000000250000000000000000000000000000002000000000000360000000000000009000000000000000237502013121600000010000000000000BRBBSEACNOR5101
012013100382BBSEX21     080BBSEE       ON      NM000R$  000000000003000000000000300000000000030000000000003000000000000300000000000000000000000000000002000000000000720000000000000021600000000000000210002013121600000010000000000000BRBBSEACNOR5101
012013100382BBSEX22     080BBSEE       ON      NM000R$  000000000005800000000000580000000000058000000000005800000000000580000000000000000000000000000002000000000000720000000000000041760000000000000220002013121600000010000000000000BRBBSEACNOR5101
012013100302BBTG11      010BTG PACTUAL UNT          R$  000000000283500000000028590000000002813000000000283800000000028400000000002840000000000284900611000000000000190000000000000539337000000000000000009999123100000010000000000000BRBBTGUNT007105
012013100396BBTG11F     020BTG PACTUAL UNT          R$  000000000284700000000028470000000002840000000000284200000000028450000000002800000000000299600003000000000000000116000000000000329736000000000000009999123100000010000000000000BRBBTGUNT007105
012013100312BBVJ11      010FII C JARDIMCI  ER       R$  000000000785000000000078850000000007800000000000783800000000078850000000007820000000000788500015000000000000000884000000000006929199000000000000009999123100000010000000000000BRBBVJCTF001134
012013100312BCFF11B     010FII BC FFII CI      MB   R$  000000000909000000000090980000000009000000000000904600000000090500000000009012000000000905000070000000000000003524000000000031880756000000000000009999123100000010000000000000BRBCFFCTF000142
012013100302BEEF3       010MINERVA     ON      NM   R$  000000000101700000000010250000000000987000000000100000000000010000000000000998000000000100002787000000000001351000000000001351869900000000000000009999123100000010000000000000BRBEEFACNOR6104
012013100396BEEF3F      020MINERVA     ON      NM   R$  000000000100000000000010000000000000990000000000099500000000009900000000000991000000000100000007000000000000000154000000000000153334000000000000009999123100000010000000000000BRBEEFACNOR6104
012013100302BEES3       010BANESTES    ON  EJ       R$  000000000004900000000000500000000000049000000000004900000000000500000000000049000000000005000016000000000000060100000000000002980500000000000000009999123100000010000000000000BRBEESACNOR9245
012013100302BEMA3       010BEMATECH    ON      NM   R$  000000000078200000000007880000000000775000000000078300000000007840000000000782000000000078400230000000000000055300000000000043308500000000000000009999123100000010000000000000BRBEMAACNOR0114
012013100396BEMA3F      020BEMATECH    ON      NM   R$  000000000078500000000007850000000000766000000000078300000000007660000000000766000000000078100002000000000000000100000000000000078310000000000000009999123100000010000000000000BRBEMAACNOR0114
012013100302BGIP4       010BANESE      PN           R$  000000000480000000000049770000000004800000000000481900000000049770000000004800000000000498000010000000000000001700000000000008192700000000000000009999123100000010000000000000BRBGIPACNPR8179
012013100302BHGR3       010BHG         ON      NM   R$  000000000147800000000014780000000001411000000000143300000000014450000000001402000000000144500265000000000000119500000000000171285800000000000000009999123100000010000000000000BRBHGRACNOR9101
012013100302BICB4       010BICBANCO    PN      N1   R$  000000000046400000000004700000000000455000000000046100000000004550000000000455000000000045800085000000000000061800000000000028547600000000000000009999123100000010000000000000BRBICBACNPR7131
012013100396BICB4F      020BICBANCO    PN      N1   R$  000000000046800000000004680000000000468000000000046800000000004680000000000453000000000046800001000000000000000005000000000000002340000000000000009999123100000010000000000000BRBICBACNPR7131
012013100396BIOM3F      020BIOMM       ON           R$  000000000093000000000009500000000000930000000000094300000000009500000000000860000000000096000003000000000000000015000000000000014150000000000000009999123100000010000000000000BRBIOMACNOR2101
012013100302BISA3       010BROOKFIELD  ON      NM   R$  000000000016700000000001690000000000158000000000016100000000001590000000000158000000000015905155000000000014310000000000002311980500000000000000009999123100000010000000000000BRBISAACNOR8109
012013100396BISA3F      020BROOKFIELD  ON      NM   R$  000000000016600000000001690000000000157000000000016200000000001570000000000157000000000016100032000000000000000896000000000000145777000000000000009999123100000010000000000000BRBISAACNOR8109
012013100362BISA3T      030BROOKFIELD  ON      NM032R$  000000000016700000000001680000000000160000000000016200000000001610000000000000000000000000000004000000000000015000000000000002438226000000000000009999123100000010000000000000BRBISAACNOR8109
012013100362BISA3T      030BROOKFIELD  ON      NM046R$  000000000016000000000001610000000000160000000000016000000000001610000000000000000000000000000002000000000000080000000000000012851016000000000000009999123100000010000000000000BRBISAACNOR8109
012013100362BISA3T      030BROOKFIELD  ON      NM060R$  000000000016900000000001700000000000162000000000016200000000001630000000000000000000000000000006000000000000053300000000000008675729000000000000009999123100000010000000000000BRBISAACNOR8109
012013100312BJRC11      010FII JS RECIMCI  ER       R$  000000009300000000000930000000000093000000000009300000000000930000000000084000000000009290000003000000000000000032000000000002976000000000000000009999123100000010000000000000BRBJRCCTF007111
012013100302BMEB3       010MERC BRASIL ON           R$  000000000158700000000016430000000001587000000000161500000000016430000000001580000000000164300003000000000000000600000000000000969000000000000000009999123100000010000000000000BRBMEBACNOR8190
012013100302BOBR4       010BOMBRIL     PN           R$  000000000062100000000006210000000000621000000000062100000000006210000000000621000000000066600001000000000000000200000000000000124200000000000000009999123100000010000000000000BRBOBRACNPR3127
012013100396BOBR4F      020BOMBRIL     PN           R$  000000000060000000000006000000000000600000000000060000000000006000000000000500000000000060000001000000000000000021000000000000012600000000000000009999123100000010000000000000BRBOBRACNPR3127
012013100314BOVA11      010ISHARES BOVACI           R$  000000000522000000000052200000000005110000000000514000000000051310000000005110000000000513103676000000000001321290000000006792487120000000000000009999123100000010000000000000BRBOVACTF003101
012013100396BOVA11F     020ISHARES BOVACI           R$  000000000520300000000052040000000005105000000000514000000000051050000000005105000000000513800014000000000000000048000000000000246767000000000000009999123100000010000000000000BRBOVACTF003101
012013100312BPFF11      010FII ABSOLUTOCI  ER       R$  000000000829000000000082900000000008110000000000821500000000082000000000008150000000000820000012000000000000000550000000000004518592000000000000009999123100000010000000000000BRBPFFCTF002106
012013100302BPHA3       010BR PHARMA   ON      NM   R$  000000000079200000000008020000000000776000000000078900000000007950000000000795000000000079800909000000000000370400000000000292368100000000000000009999123100000010000000000000BRBPHAACNOR6102
012013100396BPHA3F      020BR PHARMA   ON      NM   R$  000000000078900000000007970000000000778000000000078500000000007970000000000773000000000080500025000000000000000830000000000000652366000000000000009999123100000010000000000000BRBPHAACNOR6102
012013100302BPNM4       010PANAMERICANOPN      N1   R$  000000000052000000000005200000000000510000000000051300000000005160000000000514000000000051600061000000000000031600000000000016228800000000000000009999123100000010000000000000BRBPNMACNPR6111
012013100396BPNM4F      020PANAMERICANOPN      N1   R$  000000000051700000000005170000000000517000000000051700000000005170000000000506000000000052000001000000000000000050000000000000025850000000000000009999123100000010000000000000BRBPNMACNPR6111
012013100302BRAP3       010BRADESPAR   ON      N1   R$  000000000200600000000020400000000002000000000000201200000000020400000000001985000000000204000024000000000000007600000000000015298500000000000000009999123100000010000000000000BRBRAPACNOR5124
012013100362BRAP3T      030BRADESPAR   ON      N1180R$  000000000212000000000021210000000002120000000000212000000000021210000000000000000000000000000002000000000000001000000000000002120269000000000000009999123100000010000000000000BRBRAPACNOR5124
012013100302BRAP4       010BRADESPAR   PN      N1   R$  000000000246300000000024830000000002420000000000243800000000024200000000002420000000000242503170000000000000745000000000001816306000000000000000009999123100000010000000000000BRBRAPACNPR2124
012013100396BRAP4F      020BRADESPAR   PN      N1   R$  000000000247000000000024800000000002422000000000244800000000024350000000002421000000000248000022000000000000000644000000000001575876000000000000009999123100000010000000000000BRBRAPACNPR2124
012013100312BRCR11      010FII BC FUND CI           R$  000000001374000000000138000000000013600000000001368700000000136200000000013620000000001368301115000000000000053329000000000729960740000000000000009999123100000010000000000000BRBRCRCTF000133
012013100302BRFS3       010BRF SA      ON      NM   R$  000000000550600000000055220000000005303000000000536500000000053500000000005350000000000535509568000000000002762600000000014823608700000000000000009999123100000010000000000000BRBRFSACNOR8110
012013100396BRFS3F      020BRF SA      ON      NM   R$  000000000547100000000055200000000005307000000000537300000000054000000000005400000000000549000181000000000000005608000000000030132556000000000000009999123100000010000000000000BRBRFSACNOR8110
012013100362BRFS3T      030BRF SA      ON      NM018R$  000000000541200000000054130000000005412000000000541200000000054130000000000000000000000000000002000000000000000500000000000002706356000000000000009999123100000010000000000000BRBRFSACNOR8110
012013100362BRFS3T      030BRF SA      ON      NM032R$  000000000547300000000054740000000005377000000000545100000000053780000000000000000000000000000006000000000000000900000000000004906755000000000000009999123100000010000000000000BRBRFSACNOR8110
012013100362BRFS3T      030BRF SA      ON      NM060R$  000000000541900000000054200000000005402000000000541100000000054030000000000000000000000000000004000000000000001000000000000005411159000000000000009999123100000010000000000000BRBRFSACNOR8110
012013100362BRFS3T      030BRF SA      ON      NM091R$  000000000556200000000055630000000005478000000000550600000000054860000000000000000000000000000012000000000000003300000000000018171450000000000000009999123100000010000000000000BRBRFSACNOR8110
012013100362BRFS3T      030BRF SA      ON      NM120R$  000000000560200000000056030000000005500000000000554700000000055010000000000000000000000000000006000000000000003000000000000016643474000000000000009999123100000010000000000000BRBRFSACNOR8110
012013100302BRIN3       010BR INSURANCEON      NM   R$  000000000200000000000020080000000001960000000000198500000000019780000000001973000000000197800914000000000000263800000000000523808700000000000000009999123100000010000000000000BRBRINACNOR3106
012013100396BRIN3F      020BR INSURANCEON      NM   R$  000000000199600000000019960000000001970000000000198900000000019750000000001971000000000198900017000000000000000301000000000000598977000000000000009999123100000010000000000000BRBRINACNOR3106
012013100302BRIV4       010ALFA INVEST PN           R$  000000000057000000000005700000000000569000000000056900000000005690000000000535000000000057000005000000000000001300000000000000740500000000000000009999123100000010000000000000BRBRIVACNPR3197
012013100302BRKM3       010BRASKEM     ON      N1   R$  000000000125000000000012500000000001250000000000125000000000012500000000001230000000000125000001000000000000000100000000000000125000000000000000009999123100000010000000000000BRBRKMACNOR1110
012013100302BRKM5       010BRASKEM     PNA     N1   R$  000000000183000000000018300000000001779000000000179200000000017960000000001794000000000179605234000000000001189800000000002132981000000000000000009999123100000010000000000000BRBRKMACNPA4110
012013100396BRKM5F      020BRASKEM     PNA     N1   R$  000000000181000000000018280000000001774000000000178800000000017740000000001774000000000179900021000000000000000639000000000001142677000000000000009999123100000010000000000000BRBRKMACNPA4110
012013100362BRKM5T      030BRASKEM     PNA     N1018R$  000000000179600000000017970000000001796000000000179600000000017970000000000000000000000000000002000000000000002000000000000003593743000000000000009999123100000010000000000000BRBRKMACNPA4110
012013100302BRML3       010BR MALLS PARON      NM   R$  000000000208300000000020880000000001997000000000201300000000020010000000002000000000000200105535000000000002509600000000005052089100000000000000009999123100000010000000000000BRBRMLACNOR9105
012013100396BRML3F      020BR MALLS PARON      NM   R$  000000000207200000000020760000000001998000000000202900000000020010000000001998000000000200300086000000000000002875000000000005834526000000000000009999123100000010000000000000BRBRMLACNOR9105
012013100362BRML3T      030BR MALLS PARON      NM032R$  000000000202100000000020220000000002020000000000202100000000020210000000000000000000000000000006000000000000001500000000000003031771000000000000009999123100000010000000000000BRBRMLACNOR9105
012013100362BRML3T      030BR MALLS PARON      NM046R$  000000000208000000000020810000000002025000000000206600000000020260000000000000000000000000000004000000000000004000000000000008266900000000000000009999123100000010000000000000BRBRMLACNOR9105
012013100302BRPR3       010BR PROPERT  ON      NM   R$  000000000195700000000019610000000001926000000000194100000000019400000000001938000000000194007505000000000001980900000000003844945900000000000000009999123100000010000000000000BRBRPRACNOR9112
012013100396BRPR3F      020BR PROPERT  ON      NM   R$  000000000195000000000019500000000001911000000000194100000000019400000000001910000000000198500022000000000000000794000000000001541736000000000000009999123100000010000000000000BRBRPRACNOR9112
012013100302BRSR3       010BANRISUL    ON      N1   R$  000000000137500000000013750000000001375000000000137500000000013750000000001308000000000139000004000000000000000700000000000000962500000000000000009999123100000010000000000000BRBRSRACNOR3131
012013100302BRSR6       010BANRISUL    PNB     N1   R$  000000000155500000000015640000000001519000000000152700000000015250000000001520000000000152501758000000000000497600000000000759975800000000000000009999123100000010000000000000BRBRSRACNPB4134
012013100396BRSR6F      020BANRISUL    PNB     N1   R$  000000000155800000000015590000000001520000000000153400000000015200000000001520000000000156000015000000000000000324000000000000497329000000000000009999123100000010000000000000BRBRSRACNPB4134
012013100302BSEV3       010BIOSEV      ON      NM   R$  000000000092900000000009300000000000921000000000092500000000009250000000000910000000000093000004000000000000000600000000000000555500000000000000009999123100000010000000000000BRBSEVACNOR3100
012013100302BTOW3       010B2W DIGITAL ON      NM   R$  000000000151500000000015290000000001460000000000148600000000014690000000001469000000000148100798000000000000250600000000000372595500000000000000009999123100000010000000000000BRBTOWACNOR8105
012013100396BTOW3F      020B2W DIGITAL ON      NM   R$  000000000148900000000015000000000001451000000000147900000000014770000000001450000000000153000013000000000000000393000000000000581318000000000000009999123100000010000000000000BRBTOWACNOR8105
012013100362BTOW3T      030B2W DIGITAL ON      NM077R$  000000000150200000000015030000000001502000000000150200000000015030000000000000000000000000000002000000000000003000000000000004506862000000000000009999123100000010000000000000BRBTOWACNOR8105
012013100302BTTL4       010BATTISTELLA PN           R$  000000000009800000000000980000000000093000000000009400000000000960000000000094000000000009600013000000000000012800000000000001211500000000000000009999123100000010000000000000BRBTTLACNPR7105
012013100302BVMF3       010BMFBOVESPA  ON      NM   R$  000000000125800000000012600000000001226000000000123900000000012450000000001245000000000124616677000000000007115400000000008823044900000000000000009999123100000010000000000000BRBVMFACNOR3126
012013100396BVMF3F      020BMFBOVESPA  ON      NM   R$  000000000125500000000012580000000001226000000000124000000000012410000000001241000000000124800105000000000000003382000000000004195460000000000000009999123100000010000000000000BRBVMFACNOR3126
012013100362BVMF3T      030BMFBOVESPA  ON      NM032R$  000000000125400000000012550000000001254000000000125400000000012550000000000000000000000000000002000000000000050000000000000062710650000000000000009999123100000010000000000000BRBVMFACNOR3126
012013100362BVMF3T      030BMFBOVESPA  ON      NM060R$  000000000125700000000012580000000001257000000000125700000000012580000000000000000000000000000002000000000000002500000000000003144640000000000000009999123100000010000000000000BRBVMFACNOR3126
012013100362BVMF3T      030BMFBOVESPA  ON      NM120R$  000000000127700000000012780000000001277000000000127700000000012780000000000000000000000000000002000000000000010000000000000012770244000000000000009999123100000010000000000000BRBVMFACNOR3126
012013100378BVMFA13     070BVMF        ON      NM000R$  000000000006100000000000610000000000061000000000006100000000000610000000000058000000000000000008000000000000012000000000000000732000000000000130002014012000000010000000000000BRBVMFACNOR3126
012013100378BVMFB13     070BVMF        ON      NM000R$  000000000008300000000000840000000000083000000000008300000000000840000000000000000000000000000004000000000000200000000000000016658000000000000128502014021700000010000000000000BRBVMFACNOR3125
012013100378BVMFJ11     070BVMF        ON      NM000R$  000000000017000000000001700000000000151000000000015600000000001590000000000142000000000000000014000000000000101400000000000015854700000000000108502013102100000010000000000000BRBVMFACNOR3125
012013100378BVMFJ12     070BVMF  FM    ON      NM000R$  000000000008500000000000850000000000066000000000007100000000000750000000000071000000000008700099000000000000097600000000000007020000000000000118502013102100000010000000000000BRBVMFACNOR3125
012013100378BVMFJ13     070BVMF  FM    ON      NM000R$  000000000002400000000000240000000000015000000000001800000000000190000000000018000000000001900214000000000000502500000000000009157700000000000128502013102100000010000000000000BRBVMFACNOR3125
012013100378BVMFJ14     070BVMF  FM    ON      NM000R$  000000000000300000000000030000000000002000000000000200000000000020000000000001000000000000200008000000000000062800000000000000173000000000000138502013102100000010000000000000BRBVMFACNOR3125
012013100378BVMFJ42     070BVMF  FM    ON      NM000R$  000000000004100000000000410000000000034000000000003600000000000350000000000035000000000123500029000000000000042400000000000001565800000000000123502013102100000010000000000000BRBVMFACNOR3125
012013100378BVMFJ43     070BVMF  FM    ON      NM000R$  000000000000700000000000070000000000006000000000000600000000000070000000000005000000000000900004000000000000004300000000000000027600000000000133502013102100000010000000000000BRBVMFACNOR3125
012013100378BVMFJ44     070BVMF        ON      NM000R$  000000000000100000000000010000000000001000000000000100000000000010000000000000000000000000200002000000000000015500000000000000015500000000000145002013102100000010000000000000BRBVMFACNOR3126
012013100378BVMFK12     070BVMF  FM    ON      NM000R$  000000000009600000000001020000000000090000000000009200000000000980000000000000000000000010400026000000000000016300000000000001507100000000000118502013111800000010000000000000BRBVMFACNOR3125
012013100378BVMFK13     070BVMF  FM    ON      NM000R$  000000000004200000000000420000000000034000000000003700000000000380000000000000000000000004100032000000000000048800000000000001832200000000000128502013111800000010000000000000BRBVMFACNOR3125
012013100378BVMFK14     070BVMF  FM    ON      NM000R$  000000000001100000000000110000000000008000000000000800000000000080000000000006000000000010000007000000000000013600000000000000114800000000000138502013111800000010000000000000BRBVMFACNOR3125
012013100378BVMFK42     070BVMF  FM    ON      NM000R$  000000000005000000000000510000000000050000000000005000000000000510000000000000000000000000000003000000000000010500000000000000532000000000000125002013111800000010000000000000BRBVMFACNOR3126
012013100378BVMFK43     070BVMF  FM    ON      NM000R$  000000000001600000000000170000000000015000000000001500000000000170000000000001000000000002100008000000000000018900000000000000287300000000000135002013111800000010000000000000BRBVMFACNOR3126
012013100378BVMFL12     070BVMF        ON      NM000R$  000000000014200000000001420000000000133000000000013400000000001330000000000112000000000020900006000000000000007300000000000000982600000000000115402013121600000010000000000000BRBVMFACNOR3123
012013100378BVMFL13     070BVMF        ON      NM000R$  000000000005000000000000510000000000050000000000005000000000000500000000000000000000000000000003000000000000208200000000000010411800000000000128502013121600000010000000000000BRBVMFACNOR3125
012013100378BVMFL14     070BVMF        ON      NM000R$  000000000002200000000000230000000000021000000000002100000000000230000000000022000000000000000005000000000000008400000000000000184200000000000137402013121600000010000000000000BRBVMFACNOR3124
012013100378BVMFL42     070BVMF        ON      NM000R$  000000000006500000000000660000000000065000000000006500000000000660000000000000000000000000000002000000000000200000000000000013104000000000000125002013121600000010000000000000BRBVMFACNOR3126
012013100378BVMFL43     070BVMF        ON      NM000R$  000000000003900000000000390000000000039000000000003900000000000390000000000000000000000000000001000000000000001000000000000000039000000000000131902013121600000010000000000000BRBVMFACNOR3126
012013100382BVMFV11     080BVMFE       ON      NM000R$  000000000000400000000000060000000000004000000000000400000000000060000000000001000000000001100033000000000000116200000000000000559300000000000108502013102100000010000000000000BRBVMFACNOR3125
012013100382BVMFV12     080BVMFE FM    ON      NM000R$  000000000001300000000000190000000000013000000000001600000000000140000000000013000000000001900040000000000000087300000000000001412300000000000118502013102100000010000000000000BRBVMFACNOR3125
012013100382BVMFV13     080BVMFE FM    ON      NM000R$  000000000005000000000000660000000000050000000000005700000000000540000000000050000000000008200170000000000000069600000000000004034500000000000128502013102100000010000000000000BRBVMFACNOR3125
012013100382BVMFV41     080BVMFE FM    ON      NM000R$  000000000000500000000000090000000000005000000000000700000000000090000000000000000000000000000069000000000000247200000000000001955200000000000113502013102100000010000000000000BRBVMFACNOR3125
012013100382BVMFV42     080BVMFE FM    ON      NM000R$  000000000002600000000000380000000000026000000000003200000000000320000000000001000000000004900040000000000000120700000000000003952400000000000123502013102100000010000000000000BRBVMFACNOR3125
012013100382BVMFV51     080BVMFE       ON      NM000R$  000000000001300000000000130000000000013000000000001300000000000130000000000000000000000000000001000000000000001500000000000000019500000000000116002013102100000010000000000000BRBVMFACNOR3125
012013100382BVMFW12     080BVMFE FM    ON      NM000R$  000000000002700000000000330000000000026000000000003000000000000270000000000000000000000003500166000000000000088100000000000002644500000000000118502013111800000010000000000000BRBVMFACNOR3125
012013100382BVMFW13     080BVMFE FM    ON      NM000R$  000000000006600000000000780000000000066000000000007500000000000740000000000000000000000025000014000000000000040700000000000003068200000000000128502013111800000010000000000000BRBVMFACNOR3125
012013100382BVMFW41     080BVMFE FM    ON      NM000R$  000000000001800000000000260000000000018000000000002400000000000220000000000000000000000000000041000000000000041800000000000001007000000000000115002013111800000010000000000000BRBVMFACNOR3126
012013100382BVMFW42     080BVMFE FM    ON      NM000R$  000000000004800000000000590000000000048000000000005700000000000590000000000000000000000000000009000000000000011400000000000000655600000000000125002013111800000010000000000000BRBVMFACNOR3126
012013100382BVMFX12     080BVMFE       ON      NM000R$  000000000003400000000000340000000000034000000000003400000000000340000000000000000000000000000001000000000000001800000000000000061200000000000115402013121600000010000000000000BRBVMFACNOR3123
012013100382BVMFX62     080BVMFE       ON      NM000R$  000000000003500000000000350000000000035000000000003500000000000350000000000000000000000000000002000000000000250000000000000008750000000000000120002013121600000010000000000000BRBVMFACNOR3126
012013100302CAMB4       010CAMBUCI     PN           R$  000000000018900000000001900000000000180000000000018400000000001900000000000180000000000019000011000000000000001800000000000000331900000000000000009999123100000010000000000000BRCAMBACNPR1117
012013100302CARD3       010CSU CARDSYSTON      NM   R$  000000000031900000000003190000000000303000000000030800000000003030000000000303000000000031300009000000000000002300000000000000709500000000000000009999123100000010000000000000BRCARDACNOR9105
012013100396CARD3F      020CSU CARDSYSTON      NM   R$  000000000030800000000003080000000000305000000000030600000000003050000000000306000000000031300002000000000000000096000000000000029394000000000000009999123100000010000000000000BRCARDACNOR9105
012013100302CBEE3       010AMPLA ENERG ON *         R$  000000000013000000000001300000000000130000000000013000000000001300000000000120000000000013000002000000000000600000000000000000078000000000000000009999123100010000000000000000BRCBEEACNOR3149
012013100396CBMA4F      020COBRASMA    PN           R$  000000000000400000000000040000000000004000000000000400000000000040000000000004000000000000500001000000000000008000000000000000032000000000000000009999123100000010000000000000BRCBMAACNPR1124
012013100308CCHI3       010CHIARELLI   ON           R$  000000000002000000000000220000000000020000000000002100000000000220000000000021000000000002200048000000000000950000000000000020000000000000000000009999123100000010000000000000BRCCHIACNOR5123
012013100396CCHI3F      020CHIARELLI   ON           R$  000000000002100000000000220000000000021000000000002100000000000220000000000020000000000002200009000000000000021998000000000000476804000000000000009999123100000010000000000000BRCCHIACNOR5123
012013100308CCHI4       010CHIARELLI   PN           R$  000000000001400000000000150000000000014000000000001400000000000150000000000013000000000001600009000000000000140000000000000002060000000000000000009999123100000010000000000000BRCCHIACNPR2122
012013100396CCHI4F      020CHIARELLI   PN           R$  000000000001400000000000140000000000014000000000001400000000000140000000000010000000000001400001000000000000000029000000000000000406000000000000009999123100000010000000000000BRCCHIACNPR2122
012013100302CCPR3       010CYRE COM-CCPON      NM   R$  000000000206500000000020650000000002065000000000206500000000020650000000002065000000000209000001000000000000000400000000000000826000000000000000009999123100000010000000000000BRCCPRACNOR9107
012013100396CCPR3F      020CYRE COM-CCPON      NM   R$  000000000206500000000020650000000002052000000000206200000000020520000000002043000000000206500002000000000000000031000000000000063950000000000000009999123100000010000000000000BRCCPRACNOR9107
012013100302CCRO3       010CCR SA      ON  ED  NM   R$  000000000180300000000018170000000001759000000000178100000000017610000000001761000000000176911006000000000003829200000000006821020500000000000000009999123100000010000000000000BRCCROACNOR2123
012013100396CCRO3F      020CCR SA      ON  ED  NM   R$  000000000179800000000018160000000001760000000000178200000000017600000000001760000000000179800079000000000000002023000000000003606085000000000000009999123100000010000000000000BRCCROACNOR2123
012013100362CCRO3T      030CCR SA      ON  ED  NM018R$  000000000177900000000017800000000001779000000000177900000000017800000000000000000000000000000002000000000000008500000000000015128273000000000000009999123100000010000000000000BRCCROACNOR2123
012013100362CCRO3T      030CCR SA      ON  ED  NM032R$  000000000182300000000018240000000001779000000000180100000000017800000000000000000000000000000004000000000000005800000000000010451574000000000000009999123100000010000000000000BRCCROACNOR2123
012013100302CCXC3       010CCX CARVAO  ON      NM   R$  000000000015800000000001650000000000152000000000015800000000001530000000000153000000000015401049000000000005339800000000000846510900000000000000009999123100000010000000000000BRCCXCACNOR5100
012013100396CCXC3F      020CCX CARVAO  ON      NM   R$  000000000015100000000001590000000000151000000000015600000000001530000000000153000000000015800008000000000000000280000000000000043704000000000000009999123100000010000000000000BRCCXCACNOR5100
012013100362CCXC3T      030CCX CARVAO  ON      NM018R$  000000000015400000000001550000000000154000000000015400000000001550000000000000000000000000000002000000000000250000000000000038669400000000000000009999123100000010000000000000BRCCXCACNOR5100
012013100302CEDO3       010CEDRO       ON      N1   R$  000000000097000000000009700000000000970000000000097000000000009700000000000971000000000125000001000000000000000100000000000000097000000000000000009999123100000010000000000000BRCEDOACNOR8094
012013100396CEDO4F      020CEDRO       PN      N1   R$  000000000086800000000008680000000000850000000000086600000000008500000000000850000000000093500003000000000000000053000000000000045950000000000000009999123100000010000000000000BRCEDOACNPR5126
012013100312CEOC11B     010FII CEO CCP CI      MB   R$  000000000879300000000088000000000008570000000000872900000000087500000000008760000000000879900072000000000000006006000000000052426848000000000000009999123100000010000000000000BRCEOCCTF003110
012013100302CESP3       010CESP        ON      N1   R$  000000000204400000000020440000000002000000000000202800000000020420000000001980000000000204400006000000000000000600000000000001217000000000000000009999123100000010000000000000BRCESPACNOR3160
012013100302CESP5       010CESP        PNA     N1   R$  000000000220800000000022160000000002208000000000221200000000022160000000002215000000000222500002000000000000000200000000000000442400000000000000009999123100000010000000000000BRCESPACNPA6108
012013100302CESP6       010CESP        PNB     N1   R$  000000000232400000000023240000000002252000000000226800000000022600000000002258000000000226002722000000000000913400000000002071898200000000000000009999123100000010000000000000BRCESPACNPB4119
012013100396CESP6F      020CESP        PNB     N1   R$  000000000231000000000023100000000002255000000000228500000000022580000000002230000000000230000028000000000000000853000000000001949131000000000000009999123100000010000000000000BRCESPACNPB4119
012013100382CESPX23     080CESPE       PNB     N1000R$  000000000007500000000000750000000000075000000000007500000000000750000000000000000000000000000002000000000000100000000000000007500000000000000230002013121600000010000000000000BRCESPACNPB4119
012013100302CGAS3       010COMGAS      ON           R$  000000000522900000000054000000000005229000000000538400000000054000000000005300000000000560000004000000000000001100000000000005922900000000000000009999123100000010000000000000BRCGASACNOR0132
012013100302CGAS5       010COMGAS      PNA          R$  000000000587900000000059000000000005800000000000586000000000058650000000005865000000000586600114000000000000022500000000000131866300000000000000009999123100000010000000000000BRCGASACNPA3129
012013100396CGAS5F      020COMGAS      PNA          R$  000000000589000000000059090000000005795000000000584300000000057950000000005700000000000589900006000000000000000086000000000000502573000000000000009999123100000010000000000000BRCGASACNPA3129
012013100302CGRA3       010GRAZZIOTIN  ON           R$  000000000165000000000016500000000001645000000000164800000000016450000000001645000000000167000004000000000000001000000000000001648500000000000000009999123100000010000000000000BRCGRAACNOR2061
012013100302CGRA4       010GRAZZIOTIN  PN           R$  000000000177100000000017800000000001761000000000177100000000017720000000001771000000000177200022000000000000014300000000000025338500000000000000009999123100000010000000000000BRCGRAACNPR9061
012013100396CGRA4F      020GRAZZIOTIN  PN           R$  000000000177000000000017700000000001770000000000177000000000017700000000001700000000000175000001000000000000000005000000000000008850000000000000009999123100000010000000000000BRCGRAACNPR9061
012013100302CHVX34      010CHEVRON     DRN          R$  000000002693600000000269360000000026250000000002668100000000268570000000025786000000000000000003000000000000000300000000000008004300000000000000009999123100000010000000000000BRCHVXBDR008109
012013100302CIEL3       010CIELO       ON      NM   R$  000000000611900000000062000000000006100000000000616000000000062000000000006162000000000620006003000000000001376300000000008478934000000000000000009999123100000010000000000000BRCIELACNOR3112
012013100396CIEL3F      020CIELO       ON      NM   R$  000000000612000000000062000000000006108000000000615700000000062000000000006165000000000620000154000000000000004208000000000025915020000000000000009999123100000010000000000000BRCIELACNOR3112
012013100362CIEL3T      030CIELO       ON      NM018R$  000000000617700000000061780000000006177000000000617700000000061780000000000000000000000000000002000000000000000600000000000003706708000000000000009999123100000010000000000000BRCIELACNOR3112
012013100302CLSC4       010CELESC      PN      N2   R$  000000000178200000000017990000000001775000000000177900000000017850000000001777000000000178500071000000000000010200000000000018149900000000000000009999123100000010000000000000BRCLSCACNPR3107
012013100396CLSC4F      020CELESC      PN      N2   R$  000000000170000000000017200000000001700000000000170400000000017000000000001602000000000178900006000000000000000032000000000000054530000000000000009999123100000010000000000000BRCLSCACNPR3107
012013100358CMGR3       010CEMAT       ON           R$  000000000047000000000004700000000000470000000000047000000000004700000000000401000000000049000002000000000000000200000000000000094000000000000000009999123100000010000000000000BRCMGRACNOR7114
012013100302CMIG3       010CEMIG       ON      N1   R$  000000000190400000000019050000000001880000000000189100000000018900000000001890000000000190000229000000000000050300000000000095162800000000000000009999123100000010000000000000BRCMIGACNOR6208
012013100396CMIG3F      020CEMIG       ON      N1   R$  000000000190500000000019050000000001882000000000189500000000018920000000001890000000000190500025000000000000000484000000000000917472000000000000009999123100000010000000000000BRCMIGACNOR6208
012013100362CMIG3T      030CEMIG       ON      N1091R$  000000000192700000000019400000000001927000000000193100000000019400000000000000000000000000000004000000000000000140000000000000270356000000000000009999123100000010000000000000BRCMIGACNOR6208
012013100302CMIG4       010CEMIG       PN      N1   R$  000000000192000000000019410000000001905000000000192400000000019250000000001925000000000193407428000000000003006500000000005787455700000000000000009999123100000010000000000000BRCMIGACNPR3208
012013100396CMIG4F      020CEMIG       PN      N1   R$  000000000191800000000019450000000001905000000000192400000000019430000000001930000000000193500189000000000000004219000000000008118281000000000000009999123100000010000000000000BRCMIGACNPR3208
012013100362CMIG4T      030CEMIG       PN      N1018R$  000000000193300000000019340000000001933000000000193300000000019340000000000000000000000000000002000000000000001500000000000002900783000000000000009999123100000010000000000000BRCMIGACNPR3208
012013100362CMIG4T      030CEMIG       PN      N1032R$  000000000193800000000019460000000001938000000000194400000000019460000000000000000000000000000004000000000000012000000000000023330872000000000000009999123100000010000000000000BRCMIGACNPR3208
012013100362CMIG4T      030CEMIG       PN      N1091R$  000000000195200000000019530000000001951000000000195200000000019520000000000000000000000000000004000000000000000121000000000000236226000000000000009999123100000010000000000000BRCMIGACNPR3208
012013100312CNES11B     010FII CENESP  CI      MB   R$  000000001250000000000125000000000012500000000001250000000000125000000000012410000000001250000002000000000000000019000000000000237500000000000000009999123100000010000000000000BRCNESCTF001126
012013100302COCA34      010COCA COLA   DRN          R$  000000000819200000000081920000000008192000000000819200000000081920000000008109000000000843300001000000000000004600000000000037683200000000000000009999123100000010000000000000BRCOCABDR002109
012013100396COCA34F     020COCA COLA   DRN          R$  000000000897000000000089700000000008167000000000827700000000081670000000000000000000000000000003000000000000000088000000000000728426000000000000009999123100000010000000000000BRCOCABDR002109
012013100302COCE3       010COELCE      ON           R$  000000000401200000000040490000000004000000000000402900000000040490000000004000000000000404900021000000000000004000000000000016116400000000000000009999123100000010000000000000BRCOCEACNOR0132
012013100302COCE5       010COELCE      PNA          R$  000000000385900000000038990000000003816000000000385500000000038600000000003860000000000386200156000000000000030700000000000118360400000000000000009999123100000010000000000000BRCOCEACNPA3133
012013100396COCE5F      020COELCE      PNA          R$  000000000384500000000038770000000003802000000000383900000000038020000000003821000000000384700008000000000000000227000000000000871467000000000000009999123100000010000000000000BRCOCEACNPA3133
012013100302CPFE3       010CPFL ENERGIAON      NM   R$  000000000194900000000019500000000001923000000000193500000000019350000000001932000000000193503894000000000001118400000000002164197500000000000000009999123100000010000000000000BRCPFEACNOR0122
012013100396CPFE3F      020CPFL ENERGIAON      NM   R$  000000000193200000000019360000000001921000000000193200000000019210000000001921000000000194200015000000000000000399000000000000771493000000000000009999123100000010000000000000BRCPFEACNOR0122
012013100302CPLE3       010COPEL       ON      N1   R$  000000000228300000000023000000000002232000000000225700000000022790000000002219000000000227900145000000000000044000000000000099313700000000000000009999123100000010000000000000BRCPLEACNOR8128
012013100396CPLE3F      020COPEL       ON      N1   R$  000000000238900000000024000000000002389000000000239100000000024000000000002201000000000238700003000000000000000082000000000000196075000000000000009999123100000010000000000000BRCPLEACNOR8128
012013100302CPLE6       010COPEL       PNB     N1   R$  000000000309400000000031050000000003054000000000307800000000030910000000003087000000000309101225000000000000292600000000000900900800000000000000009999123100000010000000000000BRCPLEACNPB9125
012013100396CPLE6F      020COPEL       PNB     N1   R$  000000000308000000000031750000000003056000000000308200000000030900000000003050000000000309000013000000000000000382000000000001177639000000000000009999123100000010000000000000BRCPLEACNPB9125
012013100362CPLE6T      030COPEL       PNB     N1091R$  000000000313500000000031360000000003135000000000313500000000031360000000000000000000000000000002000000000000002000000000000006271181000000000000009999123100000010000000000000BRCPLEACNPB9125
012013100302CPRE3       010CPFL RENOVAVON      NM   R$  000000000137700000000013800000000001359000000000136600000000013690000000001200000000000139000039000000000000007900000000000010794100000000000000009999123100000010000000000000BRCPREACNOR5100
012013100396CPRE3F      020CPFL RENOVAVON      NM   R$  000000000136000000000013790000000001340000000000136200000000013400000000001340000000000137100010000000000000000256000000000000348739000000000000009999123100000010000000000000BRCPREACNOR5100
012013100302CRDE3       010CR2         ON      NM   R$  000000000040000000000004000000000000396000000000039600000000003960000000000395000000000040000003000000000000003200000000000001267800000000000000009999123100000010000000000000BRCRDEACNOR1108
012013100302CREM3       010CREMER      ON      NM   R$  000000000148700000000015150000000001459000000000147500000000014620000000001460000000000147400053000000000000010300000000000015199300000000000000009999123100000010000000000000BRCREMACNOR2167
012013100396CREM3F      020CREMER      ON      NM   R$  000000000152400000000016000000000001400000000000146500000000014750000000001451000000000148600006000000000000000170000000000000249195000000000000009999123100000010000000000000BRCREMACNOR2167
012013100302CRIV4       010ALFA FINANC PN           R$  000000000044000000000004400000000000435000000000043700000000004390000000000430000000000043900007000000000000001200000000000000524400000000000000009999123100000010000000000000BRCRIVACNPR1190
012013100302CRUZ3       010SOUZA CRUZ  ON  EDJ      R$  000000000256700000000025770000000002522000000000254200000000025500000000002550000000000255104813000000000001170700000000002976920000000000000000009999123100000010000000000000BRCRUZACNOR0248
012013100396CRUZ3F      020SOUZA CRUZ  ON  EDJ      R$  000000000257300000000025750000000002521000000000254500000000025590000000002540000000000255900051000000000000001554000000000003956848000000000000009999123100000010000000000000BRCRUZACNOR0248
012013100362CRUZ3T      030SOUZA CRUZ  ON  EDJ   018R$  000000000255200000000025530000000002552000000000255200000000025530000000000000000000000000000002000000000000004000000000000010211369000000000000009999123100000010000000000000BRCRUZACNOR0248
012013100362CRUZ3T      030SOUZA CRUZ  ON  EDJ   060R$  000000000256700000000025680000000002567000000000256700000000025680000000000000000000000000000002000000000000000500000000000001283724000000000000009999123100000010000000000000BRCRUZACNOR0248
012013100362CRUZ3T      030SOUZA CRUZ  ON  EDJ   180R$  000000000267100000000026720000000002671000000000267100000000026720000000000000000000000000000002000000000000001200000000000003205282000000000000009999123100000010000000000000BRCRUZACNOR0248
012013100302CSAN3       010COSAN       ON      NM   R$  000000000439900000000044070000000004326000000000434900000000043430000000004332000000000434303773000000000000783900000000003409540900000000000000009999123100000010000000000000BRCSANACNOR6108
012013100396CSAN3F      020COSAN       ON      NM   R$  000000000438900000000044300000000004337000000000435500000000043370000000004324000000000441500053000000000000001268000000000005523374000000000000009999123100000010000000000000BRCSANACNOR6108
012013100362CSAN3T      030COSAN       ON      NM018R$  000000000435900000000043600000000004359000000000435900000000043600000000000000000000000000000002000000000000000500000000000002179765000000000000009999123100000010000000000000BRCSANACNOR6108
012013100302CSCO34      010CISCO       DRN ED       R$  000000000506000000000050600000000005060000000000506000000000050600000000005025000000000510500001000000000000026900000000000136114000000000000000009999123100000010000000000000BRCSCOBDR004111
012013100396CSCO34F     020CISCO       DRN ED       R$  000000000506000000000050600000000005060000000000506000000000050600000000000000000000000000000001000000000000000097000000000000490820000000000000009999123100000010000000000000BRCSCOBDR004111
012013100302CSMG3       010COPASA      ON  EJ  NM   R$  000000000345800000000034580000000003420000000000343800000000034490000000003440000000000344901142000000000000157700000000000542310300000000000000009999123100000010000000000000BRCSMGACNOR5128
012013100396CSMG3F      020COPASA      ON  EJ  NM   R$  000000000355900000000035590000000003442000000000349200000000034500000000003300000000000356000006000000000000000162000000000000565712000000000000009999123100000010000000000000BRCSMGACNOR5128
012013100302CSNA3       010SID NACIONALON           R$  000000000094500000000009640000000000943000000000094900000000009470000000000946000000000094711081000000000008720100000000008279830800000000000000009999123100000010000000000000BRCSNAACNOR6243
012013100396CSNA3F      020SID NACIONALON           R$  000000000094400000000009660000000000942000000000095000000000009450000000000941000000000095400040000000000000001354000000000001287169000000000000009999123100000010000000000000BRCSNAACNOR6243
012013100362CSNA3T      030SID NACIONALON        032R$  000000000097100000000009720000000000971000000000097100000000009720000000000000000000000000000002000000000000015000000000000014569896000000000000009999123100000010000000000000BRCSNAACNOR6243
012013100362CSNA3T      030SID NACIONALON        060R$  000000000096600000000009670000000000962000000000096300000000009630000000000000000000000000000008000000000000050000000000000048189364000000000000009999123100000010000000000000BRCSNAACNOR6243
012013100362CSNA3T      030SID NACIONALON        091R$  000000000096800000000009820000000000966000000000096800000000009820000000000000000000000000000016000000000003100000000000003001469469000000000000009999123100000010000000000000BRCSNAACNOR6243
012013100362CSNA3T      030SID NACIONALON        180R$  000000000099600000000009970000000000996000000000099600000000009970000000000000000000000000000002000000000000002000000000000001993867000000000000009999123100000010000000000000BRCSNAACNOR6243
012013100378CSNAJ10     070CSNA  FM    ON        000R$  000000000001800000000000180000000000014000000000001600000000000140000000000011000000000001400002000000000000009000000000000000146000000000000100002013102100000010000000000000BRCSNAACNOR6243
012013100378CSNAJ8      070CSNA        ON        000R$  000000000016800000000001780000000000168000000000017400000000001780000000000000000000000019700005000000000000014200000000000002477600000000000078002013102100000010000000000000BRCSNAACNOR6242
012013100378CSNAJ9      070CSNA        ON        000R$  000000000008000000000000800000000000080000000000008000000000000800000000000077000000000014200001000000000000002000000000000000160000000000000088002013102100000010000000000000BRCSNAACNOR6242
012013100378CSNAJ92     070CSNA  FM    ON        000R$  000000000005400000000000560000000000049000000000005300000000000520000000000000000000000005300098000000000000088600000000000004703800000000000092002013102100000010000000000000BRCSNAACNOR6243
012013100378CSNAJ94     070CSNA  FM    ON        000R$  000000000004500000000000450000000000036000000000003800000000000390000000000030000000000000000004000000000000009100000000000000349900000000000094002013102100000010000000000000BRCSNAACNOR6243
012013100378CSNAJ96     070CSNA  FM    ON        000R$  000000000002600000000000260000000000026000000000002600000000000260000000000000000000000000000010000000000000001000000000000000026000000000000096002013102100000010000000000000BRCSNAACNOR6243
012013100378CSNAJ98     070CSNA  FM    ON        000R$  000000000002300000000000230000000000018000000000002000000000000180000000000003000000000000000004000000000000011400000000000000237200000000000098002013102100000010000000000000BRCSNAACNOR6243
012013100378CSNAK10     070CSNA  FM    ON        000R$  000000000004500000000000490000000000045000000000004800000000000450000000000040000000000008200004000000000000009100000000000000437900000000000098002013111800000010000000000000BRCSNAACNOR6242
012013100378CSNAK40     070CSNA        ON        000R$  000000000002300000000000230000000000023000000000002300000000000230000000000000000000000000000001000000000000001700000000000000039100000000000104002013111800000010000000000000BRCSNAACNOR6243
012013100378CSNAK60     070CSNA        ON        000R$  000000000001500000000000150000000000015000000000001500000000000150000000000000000000000002900001000000000000001000000000000000015000000000000106002013111800000010000000000000BRCSNAACNOR6243
012013100378CSNAK92     070CSNA  FM    ON        000R$  000000000007700000000000840000000000074000000000008100000000000740000000000000000000000000000008000000000000011800000000000000963400000000000092002013111800000010000000000000BRCSNAACNOR6243
012013100382CSNAV10     080CSNAE       ON        000R$  000000000005700000000000660000000000053000000000005800000000000640000000000059000000000007600008000000000000000800000000000000047000000000000100002013102100000010000000000000BRCSNAACNOR6243
012013100382CSNAV9      080CSNAE       ON        000R$  000000000000700000000000090000000000007000000000000800000000000090000000000001000000000001100010000000000000004300000000000000036100000000000088002013102100000010000000000000BRCSNAACNOR6242
012013100382CSNAV92     080CSNAE FM    ON        000R$  000000000002100000000000210000000000021000000000002100000000000210000000000000000000000000000010000000000000002000000000000000042000000000000092002013102100000010000000000000BRCSNAACNOR6243
012013100382CSNAV94     080CSNAE FM    ON        000R$  000000000002600000000000260000000000026000000000002600000000000260000000000000000000000000000001000000000000001000000000000000026000000000000094002013102100000010000000000000BRCSNAACNOR6243
012013100382CSNAV96     080CSNAE FM    ON        000R$  000000000003700000000000380000000000034000000000003500000000000370000000000000000000000000000027000000000000036400000000000001297400000000000096002013102100000010000000000000BRCSNAACNOR6243
012013100382CSNAV98     080CSNAE FM    ON        000R$  000000000004100000000000450000000000041000000000004300000000000450000000000000000000000000000002000000000000004000000000000000172000000000000098002013102100000010000000000000BRCSNAACNOR6243
012013100382CSNAW10     080CSNAE       ON        000R$  000000000006300000000000660000000000059000000000006300000000000660000000000059000000000000000022000000000000002200000000000000139300000000000098002013111800000010000000000000BRCSNAACNOR6242
012013100382CSNAW9      080CSNAE       ON        000R$  000000000003400000000000340000000000029000000000003100000000000320000000000032000000000003600052000000000000012800000000000000402300000000000090002013111800000010000000000000BRCSNAACNOR6243
012013100382CSNAW94     080CSNAE FM    ON        000R$  000000000004200000000000480000000000042000000000004600000000000470000000000000000000000000000005000000000000008000000000000000372000000000000094002013111800000010000000000000BRCSNAACNOR6243
012013100382CSNAW96     080CSNAE FM    ON        000R$  000000000005100000000000590000000000051000000000005600000000000570000000000000000000000000000007000000000000016300000000000000913300000000000096002013111800000010000000000000BRCSNAACNOR6243
012013100302CTAX11      010CONTAX      UNT     N2   R$  000000000186100000000019000000000001836000000000186200000000019000000000001880000000000190000068000000000000078900000000000146982300000000000000009999123100000010000000000000BRCTAXCDAM19100
012013100396CTAX11F     020CONTAX      UNT     N2   R$  000000000187800000000018780000000001822000000000186800000000018220000000001822000000000197500002000000000000000012000000000000022424000000000000009999123100000010000000000000BRCTAXCDAM19100
012013100302CTAX4       010CONTAX      PN      N2   R$  000000000037100000000003790000000000362000000000036800000000003790000000000364000000000037900102000000000000019600000000000007229400000000000000009999123100000010000000000000BRCTAXACNPR0114
012013100396CTAX4F      020CONTAX      PN      N2   R$  000000000034100000000003720000000000341000000000037100000000003720000000000343000000000043300002000000000000000095000000000000035309000000000000009999123100000010000000000000BRCTAXACNPR0114
012013100302CTIP3       010CETIP       ON  EJ  NM   R$  000000000237000000000023710000000002313000000000233800000000023500000000002348000000000235005335000000000001592700000000003724566800000000000000009999123100000010000000000000BRCTIPACNOR2120
012013100396CTIP3F      020CETIP       ON  EJ  NM   R$  000000000235100000000023700000000002316000000000234000000000023410000000002321000000000234100039000000000000001180000000000002761573000000000000009999123100000010000000000000BRCTIPACNOR2120
012013100362CTIP3T      030CETIP       ON  EJ  NM060R$  000000000236200000000023630000000002362000000000236200000000023630000000000000000000000000000002000000000000004200000000000009923286000000000000009999123100000010000000000000BRCTIPACNOR2120
012013100302CTKA4       010KARSTEN     PN           R$  000000000010500000000001070000000000105000000000010500000000001050000000000095000000000010100007000000000000004300000000000000452000000000000000009999123100000010000000000000BRCTKAACNPR7041
012013100302CTNM4       010COTEMINAS   PN           R$  000000000022500000000002250000000000225000000000022500000000002250000000000223000000000022900001000000000000000500000000000000112500000000000000009999123100000010000000000000BRCTNMACNPR6128
012013100302CTSA3       010SANTANENSE  ON           R$  000000000054100000000005410000000000510000000000051700000000005160000000000515000000000055000007000000000000003400000000000001757900000000000000009999123100000010000000000000BRCTSAACNOR3051
012013100396CTSA3F      020SANTANENSE  ON           R$  000000000050000000000005000000000000401000000000041300000000004010000000000401000000000060000003000000000000000047000000000000019441000000000000009999123100000010000000000000BRCTSAACNOR3051
012013100302CTSA4       010SANTANENSE  PN           R$  000000000057700000000005980000000000577000000000058700000000005980000000000510000000000059800006000000000000003100000000000001822700000000000000009999123100000010000000000000BRCTSAACNPR0051
012013100312CXTL11      010FII CX TRX  CI  ER       R$  000000007300000000000730000000000073000000000007300000000000730000000000071500000000007290000005000000000000000084000000000006132000000000000000009999123100000010000000000000BRCXTLCTF003123
012013100302CYRE3       010CYRELA REALTON      NM   R$  000000000168300000000016950000000001650000000000166100000000016550000000001653000000000165505461000000000001775700000000002949532300000000000000009999123100000010000000000000BRCYREACNOR7125
012013100396CYRE3F      020CYRELA REALTON      NM   R$  000000000168000000000016800000000001651000000000165800000000016510000000001650000000000169500031000000000000000927000000000001536926000000000000009999123100000010000000000000BRCYREACNOR7125
012013100378CYREJ16     070CYRE        ON      NM000R$  000000000008500000000000850000000000085000000000008500000000000850000000000000000000000000000001000000000000001500000000000000127500000000000160002013102100000010000000000000BRCYREACNOR7125
012013100378CYREJ17     070CYRE  FM    ON      NM000R$  000000000003100000000000310000000000024000000000002500000000000240000000000017000000000003500006000000000000014500000000000000373300000000000170002013102100000010000000000000BRCYREACNOR7125
012013100378CYREJ46     070CYRE  FM    ON      NM000R$  000000000005600000000000560000000000047000000000005200000000000470000000000000000000000000000008000000000000020400000000000001064400000000000165002013102100000010000000000000BRCYREACNOR7125
012013100378CYREJ47     070CYRE  FM    ON      NM000R$  000000000001300000000000130000000000013000000000001300000000000130000000000000000000000000000003000000000000008000000000000000104000000000000175002013102100000010000000000000BRCYREACNOR7125
012013100378CYREK17     070CYRE  FM    ON      NM000R$  000000000005800000000000580000000000058000000000005800000000000580000000000000000000000000000002000000000000003500000000000000203000000000000170002013111800000010000000000000BRCYREACNOR7125
012013100378CYREK46     070CYRE  FM    ON      NM000R$  000000000008400000000000840000000000084000000000008400000000000840000000000000000000000000000001000000000000000700000000000000058800000000000165002013111800000010000000000000BRCYREACNOR7125
012013100382CYREV16     080CYREE FM    ON      NM000R$  000000000002200000000000220000000000022000000000002200000000000220000000000000000000000000000001000000000000001000000000000000022000000000000160002013102100000010000000000000BRCYREACNOR7125
012013100382CYREV17     080CYREE FM    ON      NM000R$  000000000004700000000000640000000000047000000000005800000000000600000000000000000000000000000005000000000000015000000000000000879000000000000170002013102100000010000000000000BRCYREACNOR7125
012013100382CYREV46     080CYREE FM    ON      NM000R$  000000000003200000000000360000000000032000000000003200000000000360000000000000000000000000000009000000000000028100000000000000924100000000000165002013102100000010000000000000BRCYREACNOR7125
012013100382CYREV47     080CYREE FM    ON      NM000R$  000000000008900000000000980000000000089000000000009500000000000980000000000000000000000000000007000000000000017100000000000001629100000000000175002013102100000010000000000000BRCYREACNOR7125
012013100382CYREW17     080CYREE FM    ON      NM000R$  000000000008400000000000840000000000084000000000008400000000000840000000000000000000000000000001000000000000002900000000000000243600000000000170002013111800000010000000000000BRCYREACNOR7125
012013100382CYREW47     080CYREE FM    ON      NM000R$  000000000011300000000001130000000000113000000000011300000000001130000000000000000000000000000003000000000000003500000000000000395500000000000175002013111800000010000000000000BRCYREACNOR7125
012013100302CZLT33      010COSAN LTD   DR3          R$  000000000349100000000035010000000003421000000000345000000000034640000000003429000000000348600736000000000000241700000000000834016200000000000000009999123100000010000000000000BRCZLTBDR009105
012013100302DAGB33      010DUFRY AG    DR3          R$  000000003430000000000343000000000032903000000003310600000000330000000000033000000000003310000258000000000000007649000000000253232799000000000000009999123100000010000000000000BRDAGBBDR008100
012013100302DASA3       010DASA        ON      NM   R$  000000000118700000000012280000000001187000000000121200000000012100000000001210000000000121404675000000000001563700000000001895732800000000000000009999123100000010000000000000BRDASAACNOR1108
012013100396DASA3F      020DASA        ON      NM   R$  000000000108600000000012200000000001086000000000120700000000012030000000001203000000000129800011000000000000000367000000000000443026000000000000009999123100000010000000000000BRDASAACNOR1108
012013100362DASA3T      030DASA        ON      NM032R$  000000000122500000000012260000000001225000000000122500000000012260000000000000000000000000000002000000000000010000000000000012257280000000000000009999123100000010000000000000BRDASAACNOR1108
012013100302DAYC4       010DAYCOVAL    PN  EJ  N2   R$  000000000087600000000008890000000000876000000000088000000000008800000000000880000000000088700090000000000000043200000000000038052400000000000000009999123100000010000000000000BRDAYCACNPR2129
012013100396DAYC4F      020DAYCOVAL    PN  EJ  N2   R$  000000000089400000000008940000000000894000000000089400000000008940000000000870000000000093600002000000000000000043000000000000038442000000000000009999123100000010000000000000BRDAYCACNPR2129
012013100302DIRR3       010DIRECIONAL  ON      NM   R$  000000000120100000000012110000000001153000000000117100000000011690000000001159000000000116902379000000000000414300000000000485357200000000000000009999123100000010000000000000BRDIRRACNOR0104
012013100396DIRR3F      020DIRECIONAL  ON      NM   R$  000000000118000000000011800000000001151000000000116300000000011650000000001151000000000119000013000000000000000421000000000000489953000000000000009999123100000010000000000000BRDIRRACNOR0104
012013100362DIRR3T      030DIRECIONAL  ON      NM046R$  000000000117000000000011710000000001170000000000117000000000011710000000000000000000000000000002000000000000001000000000000001170159000000000000009999123100000010000000000000BRDIRRACNOR0104
012013100302DISB34      010WALT DISNEY DRN          R$  000000001422500000000142250000000014225000000001422500000000142250000000013897000000001430900001000000000000000100000000000001422500000000000000009999123100000010000000000000BRDISBBDR006102
012013100314DIVO11      010IT NOW IDIV CI           R$  000000000341900000000034270000000003386000000000339600000000033920000000003380000000000339300029000000000000002210000000000007505300000000000000009999123100000010000000000000BRDIVOCTF002100
012013100396DIVO11F     020IT NOW IDIV CI           R$  000000000330400000000033040000000003000000000000318200000000033040000000003304000000000335800004000000000000000010000000000000031824000000000000009999123100000010000000000000BRDIVOCTF002100
012013100302DOHL4       010DOHLER      PN           R$  000000000047000000000004800000000000470000000000047500000000004800000000000470000000000048000005000000000000002400000000000001142000000000000000009999123100000010000000000000BRDOHLACNPR9054
012013100302DTCY3       010DTCOM-DIRECTON           R$  000000000004000000000000400000000000040000000000004000000000000400000000000040000000000004300001000000000000000900000000000000036000000000000000009999123100000010000000000000BRDTCYACNOR5107
012013100396DTCY3F      020DTCOM-DIRECTON           R$  000000000003500000000000350000000000035000000000003500000000000350000000000035000000000005000001000000000000000050000000000000001750000000000000009999123100000010000000000000BRDTCYACNOR5107
012013100302DTEX3       010DURATEX     ON      NM   R$  000000000131000000000013140000000001273000000000129200000000013130000000001312000000000131303293000000000001166900000000001508256200000000000000009999123100000010000000000000BRDTEXACNOR3115
012013100396DTEX3F      020DURATEX     ON      NM   R$  000000000130500000000013050000000001275000000000128600000000012820000000001285000000000131300032000000000000001132000000000001456353000000000000009999123100000010000000000000BRDTEXACNOR3115
012013100302EALT4       010ACO ALTONA  PN           R$  000000000270000000000027180000000002700000000000270900000000027180000000002600000000000271900002000000000000000200000000000000541800000000000000009999123100000010000000000000BREALTACNPR1123
012013100302EBTP3       010EMBRATEL PARON *         R$  000000000081000000000008100000000000780000000000079000000000007800000000000761000000000082000003000000000000300000000000000000237000000000000000009999123100010000000000000000BREBTPACNOR3115
012013100396EBTP3F      020EMBRATEL PARON *         R$  000000000075000000000007820000000000750000000000075300000000007820000000000782000000000085000003000000000000042264000000000000031827000000000000009999123100010000000000000000BREBTPACNOR3115
012013100302EBTP4       010EMBRATEL PARPN *         R$  000000000080100000000008300000000000800000000000080200000000008000000000000750000000000083000008000000000002600000000000000002086100000000000000009999123100010000000000000000BREBTPACNPR0120
012013100396EBTP4F      020EMBRATEL PARPN *         R$  000000000083200000000008320000000000802000000000082900000000008020000000000804000000000083200006000000000000072039000000000000059754000000000000009999123100010000000000000000BREBTPACNPR0120
012013100314ECOO11      010ISHARES ECOOCI           R$  000000000550000000000055450000000005473000000000550800000000054750000000005200000000000555000013000000000000002500000000000013771580000000000000009999123100000010000000000000BRECOOCTF008100
012013100396ECOO11F     020ISHARES ECOOCI           R$  000000000541000000000054100000000005410000000000541000000000054100000000005360000000000575500001000000000000000001000000000000005410000000000000009999123100000010000000000000BRECOOCTF008100
012013100302ECOR3       010ECORODOVIAS ON      NM   R$  000000000155000000000015650000000001537000000000155300000000015550000000001550000000000155604248000000000001165700000000001810587300000000000000009999123100000010000000000000BRECORACNOR8106
012013100396ECOR3F      020ECORODOVIAS ON      NM   R$  000000000154000000000015550000000001530000000000154500000000015550000000001520000000000157400006000000000000000205000000000000316775000000000000009999123100000010000000000000BRECORACNOR8106
012013100312EDFO11B     010FII OURINVESCI  ER  MB   R$  000000002250000000000225000000000022500000000002250000000000225000000000022005000000002370000001000000000000000200000000000004500000000000000000009999123100000010000000000000BREDFOCTF004194
012013100312EDGA11B     010FII GALERIA CI  ER  MB   R$  000000000775900000000078000000000007750000000000775600000000078000000000007751000000000780000037000000000000004637000000000035966216000000000000009999123100000010000000000000BREDGACTF001112
012013100302ELET3       010ELETROBRAS  ON      N1   R$  000000000065400000000006670000000000650000000000065800000000006670000000000666000000000066705091000000000002316200000000001526200700000000000000009999123100000010000000000000BRELETACNOR6151
012013100396ELET3F      020ELETROBRAS  ON      N1   R$  000000000065400000000006670000000000650000000000065600000000006600000000000660000000000066700055000000000000000677000000000000445516000000000000009999123100000010000000000000BRELETACNOR6151
012013100302ELET6       010ELETROBRAS  PNB     N1   R$  000000000107600000000010960000000001070000000000108400000000010960000000001090000000000109604706000000000001345600000000001458886500000000000000009999123100000010000000000000BRELETACNPB7066
012013100396ELET6F      020ELETROBRAS  PNB     N1   R$  000000000107400000000010930000000001074000000000108200000000010930000000001085000000000109300049000000000000000980000000000001060758000000000000009999123100000010000000000000BRELETACNPB7066
012013100362ELET6T      030ELETROBRAS  PNB     N1032R$  000000000108400000000010850000000001084000000000108400000000010850000000000000000000000000000002000000000000002000000000000002168355000000000000009999123100000010000000000000BRELETACNPB7066
012013100378ELETJ10     070ELET        PNB     N1000R$  000000000007500000000000800000000000075000000000007900000000000800000000000076000000000010000002000000000000012000000000000000950000000000000100002013102100000010000000000000BRELETACNPB7066
012013100338ELETJ10E    012ELET        PNB     N1000R$  000000000100000000000010000000000001000000000000100000000000010000000000000000000000000000000001000000000000017200000000000017200000000000000100002013102100000010000000000000BRELETACNPB7066
