00COTAHIST.2013BOVESPA 20130813                                                                                                                                                                                                                      
012013081302AAPL11B     010APPLE       DRN ED  MB   R$  000000001091900000000110000000000010919000000001093100000000110000000000011240000000001138000003000000000000003400000000000037165600000000000000009999123100000010000000000000BRAAPLBDR004105
012013081302ABCB4       010ABC BRASIL  PN      N2   R$  000000000126300000000012630000000001227000000000124300000000012410000000001241000000000124300453000000000000168600000000000209702500000000000000009999123100000010000000000000BRABCBACNPR4120
012013081396ABCB4F      020ABC BRASIL  PN      N2   R$  000000000127000000000012700000000001230000000000123500000000012400000000001230000000000124100008000000000000000024000000000000029650000000000000009999123100000010000000000000BRABCBACNPR4120
012013081312ABCP11      010FII ABC IMOBCI           R$  000000000095000000000009500000000000940000000000094400000000009400000000000903000000000094000004000000000000000062000000000000058550000000000000009999123100000010000000000000BRABCPCTF000214
012013081302ABRE11      010ABRIL EDUCA UNT     N2   R$  000000000343000000000035000000000003205000000000328400000000032250000000003221000000000324601551000000000001793200000000005890270900000000000000009999123100000010000000000000BRABRECDAM15102
012013081396ABRE11F     020ABRIL EDUCA UNT     N2   R$  000000000350000000000035950000000003178000000000335300000000031780000000003178000000000337800048000000000000001321000000000004429349000000000000009999123100000010000000000000BRABRECDAM15102
012013081362ABRE11T     030ABRIL EDUCA UNT     N2030R$  000000000334700000000033480000000003322000000000333500000000033230000000000000000000000000000004000000000000002000000000000006670640000000000000009999123100000010000000000000BRABRECDAM15102
012013081302ABTT11B     010ABBOTT      DRN     MB   R$  000000000208000000000020800000000002080000000000208000000000020800000000002050000000000209000003000000000000057100000000000118768000000000000000009999123100000010000000000000BRABTTBDR007107
012013081302AEDU3       010ANHANGUERA  ON      NM   R$  000000000139700000000014050000000001375000000000139100000000013970000000001386000000000139704692000000000001105000000000001537104800000000000000009999123100000010000000000000BRAEDUACNOR9107
012013081396AEDU3F      020ANHANGUERA  ON      NM   R$  000000000140000000000014440000000001380000000000139000000000013800000000001352000000000144000007000000000000000219000000000000304623000000000000009999123100000010000000000000BRAEDUACNOR9107
012013081312AEFI11      010FII AESAPAR CI           R$  000000001250000000000125300000000012400000000001250300000000125300000000012500000000001253000029000000000000002211000000000027644982000000000000009999123100000010000000000000BRAEFICTF002120
012013081302AELP3       010AES ELPA    ON           R$  000000000078000000000008000000000000763000000000079900000000007630000000000762000000000077200012000000000000012400000000000009909100000000000000009999123100000010000000000000BRAELPACNOR2119
012013081396AELP3F      020AES ELPA    ON           R$  000000000075000000000007500000000000750000000000075000000000007500000000000700000000000090000001000000000000000005000000000000003750000000000000009999123100000010000000000000BRAELPACNOR2119
012013081362AELP3T      030AES ELPA    ON        030R$  000000000080600000000008070000000000806000000000080600000000008070000000000000000000000000000002000000000000011000000000000008868640000000000000009999123100000010000000000000BRAELPACNOR2119
012013081396AFLT3F      020AFLUENTE T  ON           R$  000000000026500000000002650000000000265000000000026500000000002650000000000208000000000000000001000000000000000003000000000000000795000000000000009999123100000010000000000000BRAFLTACNOR1103
012013081396AFLU3F      020AFLUENTE    ON           R$  000000000037000000000003700000000000370000000000037000000000003700000000000308000000000000000001000000000000000001000000000000000370000000000000009999123100000010000000000000BRAFLUACNOR9116
012013081312AGCX11      010FII AG CAIXACI           R$  000000009901000000000996980000000099010000000009912600000000990110000000099100000000009969800010000000000000000086000000000008524872000000000000009999123100000010000000000000BRAGCXCTF003109
012013081302AGRO3       010BRASILAGRO  ON      NM   R$  000000000102600000000010470000000001021000000000103400000000010350000000001030000000000103500039000000000000019200000000000019853300000000000000009999123100000010000000000000BRAGROACNOR7102
012013081396AHEB3F      020SPTURIS     ON           R$  000000000200100000000020010000000002001000000000200100000000020010000000002000000000000220000002000000000000000030000000000000060030000000000000009999123100000010000000000000BRAHEBACNOR0102
012013081302AHEB5       010SPTURIS     PNA          R$  000000000200000000000020000000000002000000000000200000000000020000000000000000000000000200000002000000000000000200000000000000400000000000000000009999123100000010000000000000BRAHEBACNPA3102
012013081302ALLL3       010ALL AMER LATON      NM   R$  000000000089000000000008900000000000864000000000087400000000008780000000000876000000000087810191000000000003487600000000003051635400000000000000009999123100000010000000000000BRALLLACNOR6118
012013081396ALLL3F      020ALL AMER LATON      NM   R$  000000000088800000000008880000000000861000000000087400000000008750000000000872000000000087500020000000000000000557000000000000487070000000000000009999123100000010000000000000BRALLLACNOR6118
012013081362ALLL3T      030ALL AMER LATON      NM181R$  000000000091800000000009190000000000918000000000091800000000009190000000000000000000000000000002000000000000025000000000000022959700000000000000009999123100000010000000000000BRALLLACNOR6118
012013081312ALMI11B     010FII TORRE ALCI      MB   R$  000000031010100000003164990000000307000000000030788400000003164990000000315100000000031735900016000000000000000365000000000112377845000000000000009999123100000010000000000000BRALMICTF003204
012013081302ALPA3       010ALPARGATAS  ON      N1   R$  000000000125900000000012600000000001200000000000125200000000012430000000001216000000000124300034000000000000025900000000000032448500000000000000009999123100000010000000000000BRALPAACNOR0202
012013081396ALPA3F      020ALPARGATAS  ON      N1   R$  000000000128000000000012800000000001280000000000128000000000012800000000001128000000000128000001000000000000000002000000000000002560000000000000009999123100000010000000000000BRALPAACNOR0202
012013081302ALPA4       010ALPARGATAS  PN      N1   R$  000000000140500000000014250000000001375000000000139300000000013800000000001379000000000139001587000000000000341300000000000475761100000000000000009999123100000010000000000000BRALPAACNPR7202
012013081396ALPA4F      020ALPARGATAS  PN      N1   R$  000000000142000000000014310000000001376000000000140500000000014000000000001375000000000140000059000000000000001227000000000001724136000000000000009999123100000010000000000000BRALPAACNPR7202
012013081362ALPA4T      030ALPARGATAS  PN      N1090R$  000000000140800000000014090000000001408000000000140800000000014090000000000000000000000000000002000000000000015000000000000021125873000000000000009999123100000010000000000000BRALPAACNPR7202
012013081302ALSC3       010ALIANSCE    ON      NM   R$  000000000206500000000020650000000002019000000000202800000000020360000000002023000000000203603667000000000000522700000000001060457600000000000000009999123100000010000000000000BRALSCACNOR0104
012013081396ALSC3F      020ALIANSCE    ON      NM   R$  000000000202700000000020270000000002000000000000202100000000020000000000001921000000000207000009000000000000000365000000000000738025000000000000009999123100000010000000000000BRALSCACNOR0104
012013081302ALUP11      010ALUPAR      UNT     N2   R$  000000000168300000000016830000000001635000000000165800000000016470000000001647000000000165700307000000000000220200000000000365281700000000000000009999123100000010000000000000BRALUPCDAM15100
012013081396ALUP11F     020ALUPAR      UNT     N2   R$  000000000168300000000017960000000001621000000000165700000000016460000000001645000000000179800021000000000000000541000000000000896949000000000000009999123100000010000000000000BRALUPCDAM15100
012013081302AMAR3       010LOJAS MARISAON      NM   R$  000000000212500000000021530000000002066000000000209700000000020810000000002081000000000209502205000000000000420400000000000881586000000000000000009999123100000010000000000000BRAMARACNOR4109
012013081396AMAR3F      020LOJAS MARISAON      NM   R$  000000000212000000000021300000000002080000000000209700000000020800000000002095000000000232400012000000000000000300000000000000629380000000000000009999123100000010000000000000BRAMARACNOR4109
012013081362AMAR3T      030LOJAS MARISAON      NM016R$  000000000210900000000021100000000002108000000000210800000000021090000000000000000000000000000004000000000000008000000000000016871224000000000000009999123100000010000000000000BRAMARACNOR4109
012013081302AMBV3       010AMBEV       ON           R$  000000000846400000000086530000000008421000000000859900000000086190000000008617000000000861900710000000000000133300000000001146377800000000000000009999123100000010000000000000BRAMBVACNOR4153
012013081396AMBV3F      020AMBEV       ON           R$  000000000847700000000086450000000008477000000000859200000000086200000000008501000000000863000028000000000000000708000000000006083306000000000000009999123100000010000000000000BRAMBVACNOR4153
012013081362AMBV3T      030AMBEV       ON        120R$  000000000884900000000088500000000008849000000000884900000000088500000000000000000000000000000002000000000000001200000000000010619987000000000000009999123100000010000000000000BRAMBVACNOR4153
012013081302AMBV4       010AMBEV       PN           R$  000000000848000000000086500000000008420000000000861200000000086200000000008615000000000862009665000000000002119200000000018251168900000000000000009999123100000010000000000000BRAMBVACNPR1153
012013081396AMBV4F      020AMBEV       PN           R$  000000000847900000000086590000000008406000000000859000000000086110000000008611000000000862500179000000000000004159000000000035734625000000000000009999123100000010000000000000BRAMBVACNPR1153
012013081362AMBV4T      030AMBEV       PN        016R$  000000000865900000000086600000000008659000000000865900000000086600000000000000000000000000000002000000000000000400000000000003463975000000000000009999123100000010000000000000BRAMBVACNPR1153
012013081362AMBV4T      030AMBEV       PN        030R$  000000000854900000000086140000000008549000000000855500000000086140000000000000000000000000000004000000000000002200000000000018821495000000000000009999123100000010000000000000BRAMBVACNPR1153
012013081378AMBVH85     070AMBV        PN        000R$  000000000020200000000002020000000000202000000000020200000000002020000000000000000000000000000002000000000000002000000000000000404000000000000850002013081900000010000000000000BRAMBVACNPR1153
012013081378AMBVH86     070AMBV        PN        000R$  000000000010000000000001300000000000100000000000010200000000001300000000000000000000000016000004000000000000002700000000000000276000000000000860002013081900000010000000000000BRAMBVACNPR1153
012013081378AMBVH87     070AMBV        PN        000R$  000000000008500000000000850000000000085000000000008500000000000850000000000000000000000008500001000000000000000200000000000000017000000000000870002013081900000010000000000000BRAMBVACNPR1153
012013081378AMBVI85     070AMBV        PN        000R$  000000000027100000000002710000000000271000000000027100000000002710000000000000000000000000000002000000000000002000000000000000542000000000000850002013091600000010000000000000BRAMBVACNPR1153
012013081378AMBVI87     070AMBV        PN        000R$  000000000017000000000001700000000000170000000000017000000000001700000000000000000000000019900001000000000000000200000000000000034000000000000870002013091600000010000000000000BRAMBVACNPR1153
012013081378AMBVI88     070AMBV        PN        000R$  000000000009500000000001200000000000095000000000011700000000001200000000000000000000000000000004000000000000005400000000000000633000000000000880002013091600000010000000000000BRAMBVACNPR1153
012013081302AMGN11B     010AMGEN       DRN     MB   R$  000000002511700000000251170000000025117000000002511700000000251170000000000000000000000000000001000000000000000900000000000022605300000000000000009999123100000010000000000000BRAMGNBDR004106
012013081302ARTR3       010ARTERIS     ON      NM   R$  000000000224500000000022650000000002212000000000224000000000022250000000002225000000000224004981000000000002732100000000006121116300000000000000009999123100000010000000000000BRARTRACNOR3101
012013081396ARTR3F      020ARTERIS     ON      NM   R$  000000000224500000000022680000000002187000000000223800000000022300000000002221000000000223800032000000000000000856000000000001915686000000000000009999123100000010000000000000BRARTRACNOR3101
012013081302ARZZ3       010AREZZO CO   ON      NM   R$  000000000379600000000038330000000003641000000000371900000000036410000000003641000000000367400640000000000000161800000000000601736000000000000000009999123100000010000000000000BRARZZACNOR3109
012013081396ARZZ3F      020AREZZO CO   ON      NM   R$  000000000373600000000037360000000003611000000000367600000000036110000000003610000000000371000005000000000000000141000000000000518372000000000000009999123100000010000000000000BRARZZACNOR3109
012013081302AUTM3       010AUTOMETAL   ON      NM   R$  000000000182200000000018500000000001812000000000184600000000018500000000001850000000000185300048000000000000014900000000000027514700000000000000009999123100000010000000000000BRAUTMACNOR8109
012013081396AUTM3F      020AUTOMETAL   ON      NM   R$  000000000184900000000018490000000001849000000000184900000000018490000000001720000000000181000001000000000000000012000000000000022188000000000000009999123100000010000000000000BRAUTMACNOR8109
012013081362AUTM3T      030AUTOMETAL   ON      NM062R$  000000000186600000000018670000000001866000000000186600000000018670000000000000000000000000000002000000000000000400000000000000746415000000000000009999123100000010000000000000BRAUTMACNOR8109
012013081302BAHI3       010BAHEMA      ON           R$  000000000049400000000004940000000000489000000000049300000000004890000000000485000000000052900002000000000000000500000000000000246500000000000000009999123100000010000000000000BRBAHIACNOR1066
012013081302BAUH4       010EXCELSIOR   PN           R$  000000000080400000000008780000000000800000000000081500000000008400000000000840000000000087000018000000000000009600000000000007827000000000000000009999123100000010000000000000BRBAUHACNPR3108
012013081302BAZA3       010AMAZONIA    ON           R$  000000000003400000000000340000000000034000000000003400000000000340000000000033000000000003400004000000000000040000000000000001360000000000000000009999123100000010000000000000BRBAZAACNOR0163
012013081302BBAS3       010BRASIL      ON      NM   R$  000000000234500000000023490000000002283000000000232400000000023340000000002334000000000233521405000000000009032300000000020996816600000000000000009999123100000010000000000000BRBBASACNOR3237
012013081396BBAS3F      020BRASIL      ON      NM   R$  000000000234000000000023500000000002286000000000232300000000023370000000002330000000000233700477000000000000013568000000000031522977000000000000009999123100000010000000000000BRBBASACNOR3237
012013081362BBAS3S      030BRASIL      ON      NM062R$  000000000232100000000023220000000002321000000000232100000000023220000000000000000000000000000002000000000000007000000000000016250031000000000000009999123100000010000000000000BRBBASACNOR3237
012013081362BBAS3T      030BRASIL      ON      NM062R$  000000000237600000000023780000000002329000000000235800000000023740000000000000000000000000000020000000000000031200000000000073573575000000000000009999123100000010000000000000BRBBASACNOR3237
012013081362BBAS3T      030BRASIL      ON      NM090R$  000000000239900000000024000000000002399000000000239900000000024000000000000000000000000000000002000000000000001000000000000002399169000000000000009999123100000010000000000000BRBBASACNOR3237
012013081362BBAS3T      030BRASIL      ON      NM016R$  000000000233400000000023350000000002312000000000232100000000023130000000000000000000000000000004000000000000005000000000000011606392000000000000009999123100000010000000000000BRBBASACNOR3237
012013081362BBAS3T      030BRASIL      ON      NM017R$  000000000231000000000023110000000002310000000000231000000000023110000000000000000000000000000002000000000000010000000000000023101200000000000000009999123100000010000000000000BRBBASACNOR3237
012013081362BBAS3T      030BRASIL      ON      NM030R$  000000000233600000000023570000000002305000000000233400000000023500000000000000000000000000000014000000000000083900000000000195860565000000000000009999123100000010000000000000BRBBASACNOR3237
012013081362BBAS3T      030BRASIL      ON      NM045R$  000000000234400000000023450000000002344000000000234400000000023450000000000000000000000000000002000000000000002000000000000004689648000000000000009999123100000010000000000000BRBBASACNOR3237
012013081378BBASA25     070BBAS        ON      NM000R$  000000000010000000000001000000000000087000000000009000000000000870000000000000000000000000000008000000000000016600000000000001509900000000000250002014012000000010000000000000BRBBASACNOR3237
012013081378BBASH18     070BBAS        ON      NM000R$  000000000053700000000005370000000000510000000000051700000000005220000000000000000000000000000008000000000000005200000000000002690500000000000180002013081900000010000000000000BRBBASACNOR3237
012013081378BBASH19     070BBAS        ON      NM000R$  000000000042400000000004240000000000424000000000042400000000004240000000000000000000000000000001000000000000001000000000000000424000000000000190002013081900000010000000000000BRBBASACNOR3237
012013081378BBASH20     070BBAS        ON      NM000R$  000000000033900000000003500000000000300000000000031700000000003500000000000000000000000000000016000000000000013000000000000004128000000000000200002013081900000010000000000000BRBBASACNOR3237
012013081378BBASH21     070BBAS        ON      NM000R$  000000000025600000000002570000000000238000000000025300000000002380000000000210000000000000000007000000000000002400000000000000609300000000000207602013081900000010000000000000BRBBASACNOR3236
012013081378BBASH22     070BBAS        ON      NM000R$  000000000017900000000001790000000000119000000000014200000000001570000000000016000000000017900075000000000000037900000000000005409000000000000217602013081900000010000000000000BRBBASACNOR3236
012013081378BBASH23     070BBAS        ON      NM000R$  000000000008500000000000850000000000038000000000006000000000000660000000000060000000000007000079000000000000157600000000000009535300000000000227602013081900000010000000000000BRBBASACNOR3236
012013081378BBASH24     070BBAS        ON      NM000R$  000000000004000000000000500000000000019000000000003200000000000390000000000035000000000004000117000000000000163400000000000005303300000000000231702013081900000010000000000000BRBBASACNOR3233
012013081378BBASH25     070BBAS        ON      NM000R$  000000000001500000000000150000000000002000000000000900000000000070000000000006000000000000700049000000000000145100000000000001378400000000000241702013081900000010000000000000BRBBASACNOR3233
012013081378BBASH26     070BBAS        ON      NM000R$  000000000000200000000000020000000000001000000000000100000000000010000000000000000000000000100013000000000000044700000000000000064300000000000256602013081900000010000000000000BRBBASACNOR3235
012013081378BBASH28     070BBAS        ON      NM000R$  000000000000200000000000020000000000002000000000000200000000000020000000000000000000000000200001000000000000000400000000000000000800000000000276602013081900000010000000000000BRBBASACNOR3235
012013081378BBASI21     070BBAS  FM    ON      NM000R$  000000000027300000000002730000000000222000000000025200000000002670000000000252000000000000000066000000000000116100000000000029368700000000000210002013091600000010000000000000BRBBASACNOR3237
012013081378BBASI22     070BBAS  FM    ON      NM000R$  000000000020500000000002060000000000162000000000018500000000001970000000000132000000000020200055000000000000083800000000000015522900000000000217602013091600000010000000000000BRBBASACNOR3236
012013081378BBASI23     070BBAS  FM    ON      NM000R$  000000000012500000000001320000000000093000000000011100000000001230000000000120000000000013800195000000000000243600000000000027085300000000000227602013091600000010000000000000BRBBASACNOR3236
012013081378BBASI24     070BBAS  FM    ON      NM000R$  000000000007100000000000800000000000046000000000006000000000000700000000000055000000000007400169000000000000222600000000000013419500000000000237602013091600000010000000000000BRBBASACNOR3236
012013081378BBASI25     070BBAS  FM    ON      NM000R$  000000000003600000000000370000000000024000000000003100000000000320000000000020000000000003700086000000000000188400000000000006020800000000000246602013091600000010000000000000BRBBASACNOR3235
012013081378BBASI26     070BBAS        ON      NM000R$  000000000001400000000000200000000000011000000000001500000000000200000000000014000000000002000016000000000000075800000000000001138000000000000256602013091600000010000000000000BRBBASACNOR3235
012013081378BBASI27     070BBAS        ON      NM000R$  000000000000600000000000070000000000006000000000000600000000000070000000000002000000000001400003000000000000006100000000000000042600000000000267602013091600000010000000000000BRBBASACNOR3236
012013081378BBASI28     070BBAS        ON      NM000R$  000000000000400000000000040000000000004000000000000400000000000040000000000002000000000000800001000000000000000400000000000000001600000000000276602013091600000010000000000000BRBBASACNOR3235
012013081378BBASJ22     070BBAS  FM    ON      NM000R$  000000000021800000000002250000000000183000000000021000000000002170000000000000000000000000000037000000000000065200000000000013701100000000000220002013102100000010000000000000BRBBASACNOR3237
012013081378BBASJ23     070BBAS  FM    ON      NM000R$  000000000017400000000001760000000000142000000000015900000000001690000000000000000000000000000025000000000000032700000000000005210600000000000226602013102100000010000000000000BRBBASACNOR3235
012013081378BBASJ24     070BBAS  FM    ON      NM000R$  000000000010900000000001110000000000086000000000010000000000001110000000000017000000000000000043000000000000022800000000000002287100000000000237602013102100000010000000000000BRBBASACNOR3236
012013081378BBASJ25     070BBAS  FM    ON      NM000R$  000000000005900000000000630000000000045000000000005800000000000630000000000017000000000000000026000000000000051400000000000003001000000000000250002013102100000010000000000000BRBBASACNOR3237
012013081378BBASJ26     070BBAS        ON      NM000R$  000000000004000000000000430000000000040000000000004200000000000420000000000017000000000009800008000000000000013600000000000000575900000000000256602013102100000010000000000000BRBBASACNOR3235
012013081378BBASJ27     070BBAS        ON      NM000R$  000000000002300000000000270000000000018000000000002200000000000270000000000007000000000006800008000000000000009800000000000000221600000000000266602013102100000010000000000000BRBBASACNOR3235
012013081378BBASK24     070BBAS        ON      NM000R$  000000000009400000000001060000000000094000000000009900000000001060000000000000000000000000000010000000000000021000000000000002081100000000000240002013111800000010000000000000BRBBASACNOR3237
012013081378BBASK25     070BBAS        ON      NM000R$  000000000007300000000000730000000000073000000000007300000000000730000000000000000000000000000001000000000000001600000000000000116800000000000247602013111800000010000000000000BRBBASACNOR3236
012013081378BBASL24     070BBAS        ON      NM000R$  000000000014500000000001450000000000102000000000011000000000001020000000000000000000000035000024000000000000046900000000000005170300000000000240002013121600000010000000000000BRBBASACNOR3237
012013081378BBASL25     070BBAS        ON      NM000R$  000000000009000000000000930000000000080000000000008500000000000800000000000000000000000000000017000000000000027900000000000002398400000000000246602013121600000010000000000000BRBBASACNOR3235
012013081382BBASM23     080BBASE       ON      NM000R$  000000000012300000000001230000000000123000000000012300000000001230000000000000000000000000000001000000000000001200000000000000147600000000000230002014012000000010000000000000BRBBASACNOR3237
012013081382BBAST20     080BBASE       ON      NM000R$  000000000000100000000000020000000000001000000000000100000000000020000000000000000000000000000005000000000000011400000000000000012900000000000200002013081900000010000000000000BRBBASACNOR3237
012013081382BBAST21     080BBASE       ON      NM000R$  000000000000100000000000020000000000001000000000000100000000000010000000000000000000000004000009000000000000016000000000000000017900000000000207602013081900000010000000000000BRBBASACNOR3236
012013081382BBAST22     080BBASE       ON      NM000R$  000000000000400000000000040000000000004000000000000400000000000040000000000000000000000001000001000000000000005000000000000000020000000000000217602013081900000010000000000000BRBBASACNOR3236
012013081382BBAST23     080BBASE       ON      NM000R$  000000000001600000000000230000000000010000000000001600000000000100000000000000000000000000000028000000000000051000000000000000846600000000000227602013081900000010000000000000BRBBASACNOR3236
012013081382BBAST24     080BBASE       ON      NM000R$  000000000002900000000000390000000000023000000000002700000000000230000000000008000000000006600018000000000000036900000000000001023400000000000231702013081900000010000000000000BRBBASACNOR3233
012013081382BBASU20     080BBASE       ON      NM000R$  000000000000800000000000100000000000007000000000000800000000000070000000000005000000000003300011000000000000029100000000000000243300000000000200002013091600000010000000000000BRBBASACNOR3237
012013081382BBASU21     080BBASE FM    ON      NM000R$  000000000001400000000000200000000000014000000000001500000000000160000000000014000000000007000006000000000000004400000000000000070000000000000210002013091600000010000000000000BRBBASACNOR3237
012013081382BBASU22     080BBASE FM    ON      NM000R$  000000000002600000000000370000000000024000000000002800000000000240000000000023000000000003800011000000000000005300000000000000153400000000000217602013091600000010000000000000BRBBASACNOR3236
012013081382BBASU23     080BBASE FM    ON      NM000R$  000000000004900000000000620000000000049000000000005100000000000490000000000000000000000000000033000000000000011100000000000000575100000000000227602013091600000010000000000000BRBBASACNOR3236
012013081382BBASU24     080BBASE FM    ON      NM000R$  000000000009100000000001130000000000088000000000009900000000000900000000000066000000000000000019000000000000032700000000000003267300000000000237602013091600000010000000000000BRBBASACNOR3236
012013081382BBASV22     080BBASE FM    ON      NM000R$  000000000005100000000000680000000000051000000000005500000000000620000000000050000000000007000019000000000000051200000000000002817100000000000220002013102100000010000000000000BRBBASACNOR3237
012013081382BBASV23     080BBASE FM    ON      NM000R$  000000000007200000000000920000000000072000000000008000000000000760000000000000000000000000000013000000000000023900000000000001933200000000000226602013102100000010000000000000BRBBASACNOR3235
012013081382BBASV24     080BBASE FM    ON      NM000R$  000000000011600000000001440000000000114000000000012500000000001300000000000000000000000000000022000000000000037700000000000004742300000000000237602013102100000010000000000000BRBBASACNOR3236
012013081382BBASW23     080BBASE       ON      NM000R$  000000000010500000000001120000000000094000000000010200000000000940000000000000000000000000000020000000000000040000000000000004080800000000000230002013111800000010000000000000BRBBASACNOR3237
012013081382BBASX22     080BBASE       ON      NM000R$  000000000006800000000000680000000000068000000000006800000000000680000000000000000000000000000001000000000000001200000000000000081600000000000216602013121600000010000000000000BRBBASACNOR3235
012013081382BBASX23     080BBASE       ON      NM000R$  000000000012000000000001200000000000120000000000012000000000001200000000000000000000000000000001000000000000001200000000000000144000000000000230002013121600000010000000000000BRBBASACNOR3237
012013081382BBASX24     080BBASE       ON      NM000R$  000000000016200000000001620000000000159000000000016000000000001590000000000000000000000000000002000000000000002400000000000000385200000000000240002013121600000010000000000000BRBBASACNOR3237
012013081382BBASX55     080BBASE       ON      NM000R$  000000000020000000000002000000000000200000000000020000000000002000000000000000000000000000000001000000000000001200000000000000240000000000000245702013121600000010000000000000BRBBASACNOR3233
012013081302BBDC3       010BRADESCO    ON  EJ  N1   R$  000000000315900000000032200000000003152000000000319700000000032200000000003210000000000322004339000000000000967200000000003093466100000000000000009999123100000010000000000000BRBBDCACNOR1605
012013081396BBDC3F      020BRADESCO    ON  EJ  N1   R$  000000000318000000000032190000000003153000000000319100000000032190000000003152000000000321900048000000000000001442000000000004601865000000000000009999123100000010000000000000BRBBDCACNOR1605
012013081302BBDC4       010BRADESCO    PN  EJ  N1   R$  000000000289500000000029450000000002871000000000291000000000029450000000002940000000000294516675000000000007418900000000021598596400000000000000009999123100000010000000000000BRBBDCACNPR8605
012013081396BBDC4F      020BRADESCO    PN  EJ  N1   R$  000000000292500000000029290000000002861000000000289800000000029280000000002899000000000292800262000000000000007015000000000020349194000000000000009999123100000010000000000000BRBBDCACNPR8605
012013081362BBDC4T      030BRADESCO    PN  EJ  N1023R$  000000000291500000000029160000000002915000000000291500000000029160000000000000000000000000000002000000000000000700000000000002040867000000000000009999123100000010000000000000BRBBDCACNPR8605
012013081362BBDC4T      030BRADESCO    PN  EJ  N1030R$  000000000291000000000029290000000002903000000000291400000000029040000000000000000000000000000006000000000000009400000000000027396050000000000000009999123100000010000000000000BRBBDCACNPR8605
012013081362BBDC4T      030BRADESCO    PN  EJ  N1120R$  000000000297700000000029780000000002977000000000297700000000029780000000000000000000000000000002000000000000030000000000000089330850000000000000009999123100000010000000000000BRBBDCACNPR8605
012013081378BBDCH26     070BBDC    /EJ PN      N1000R$  000000000032200000000003220000000000322000000000032200000000003220000000000000000000000000000003000000000000010000000000000003220000000000000257802013081900000010000000000000BRBBDCACNPR8602
012013081378BBDCH28     070BBDC    /EJ PN      N1000R$  000000000013000000000001610000000000105000000000013900000000001610000000000161000000000000000052000000000000023700000000000003316400000000000277802013081900000010000000000000BRBBDCACNPR8602
012013081378BBDCH29     070BBDC    /EJ PN      N1000R$  000000000005100000000000650000000000029000000000004900000000000650000000000048000000000008000171000000000000547800000000000027164400000000000287802013081900000010000000000000BRBBDCACNPR8602
012013081378BBDCH30     070BBDC    /EJ PN      N1000R$  000000000001100000000000110000000000006000000000000700000000000110000000000011000000000001300022000000000000067400000000000000526400000000000297802013081900000010000000000000BRBBDCACNPR8602
012013081378BBDCH31     070BBDC    /EJ PN      N1000R$  000000000000200000000000030000000000002000000000000200000000000030000000000001000000000000900005000000000000019700000000000000041100000000000307402013081900000010000000000000BRBBDCACNPR8600
012013081378BBDCH32     070BBDC    /EJ PN      N1000R$  000000000000100000000000020000000000001000000000000100000000000020000000000000000000000000000002000000000000001000000000000000001900000000000317802013081900000010000000000000BRBBDCACNPR8602
012013081378BBDCI27     070BBDC    /EJ PN      N1000R$  000000000026400000000002850000000000240000000000026400000000002850000000000232000000000029800142000000000000259300000000000068628100000000000267802013091600000010000000000000BRBBDCACNPR8602
012013081378BBDCI28     070BBDC    /EJ PN      N1000R$  000000000017500000000002020000000000163000000000018600000000002020000000000152000000000000000174000000000000328900000000000061450300000000000277802013091600000010000000000000BRBBDCACNPR8602
012013081378BBDCI29     070BBDC    /EJ PN      N1000R$  000000000010800000000001280000000000104000000000011600000000001280000000000091000000000000000062000000000000111200000000000012991600000000000287802013091600000010000000000000BRBBDCACNPR8602
012013081378BBDCI30     070BBDC    /EJ PN      N1000R$  000000000006900000000000750000000000054000000000006400000000000700000000000042000000000007800142000000000000135800000000000008696000000000000297802013091600000010000000000000BRBBDCACNPR8602
012013081378BBDCI32     070BBDC    /EJ PN      N1000R$  000000000001500000000000160000000000015000000000001500000000000150000000000000000000000000000006000000000000015300000000000000231700000000000317802013091600000010000000000000BRBBDCACNPR8602
012013081378BBDCI33     070BBDC    /EJ PN      N1000R$  000000000006200000000000760000000000061000000000006300000000000760000000000000000000000000000023000000000000047000000000000003000600000000000297202013091600000010000000000000BRBBDCACNPR8598
012013081378BBDCI75     070BBDCE   /EJ PN      N1000R$  000000000013000000000001300000000000130000000000013000000000001300000000000000000000000000000001000000000000000600000000000000078000000000000282302013091600000010000000000000BRBBDCACNPR8604
012013081378BBDCI81     070BBDC    /EJ PN      N1000R$  000000000002700000000000360000000000027000000000003000000000000350000000000000000000000004200064000000000000147400000000000004479600000000000307802013091600000010000000000000BRBBDCACNPR8602
012013081378BBDCJ27     070BBDC    /EJ PN      N1000R$  000000000030600000000003270000000000285000000000030800000000003270000000000000000000000000000083000000000000146800000000000045250900000000000267802013102100000010000000000000BRBBDCACNPR8602
012013081378BBDCJ29     070BBDC    /EJ PN      N1000R$  000000000017000000000001820000000000152000000000016400000000001820000000000000000000000000000137000000000000195700000000000032127800000000000287802013102100000010000000000000BRBBDCACNPR8602
012013081378BBDCJ30     070BBDC    /EJ PN      N1000R$  000000000012700000000001290000000000106000000000012400000000001280000000000000000000000000000161000000000000236800000000000029568300000000000297802013102100000010000000000000BRBBDCACNPR8602
012013081378BBDCJ31     070BBDC    /EJ PN      N1000R$  000000000007800000000000830000000000068000000000007600000000000830000000000010000000000000000016000000000000032500000000000002475000000000000307802013102100000010000000000000BRBBDCACNPR8602
012013081378BBDCJ32     070BBDC    /EJ PN      N1000R$  000000000004500000000000510000000000045000000000004900000000000510000000000046000000000006000003000000000000013000000000000000645000000000000317802013102100000010000000000000BRBBDCACNPR8602
012013081378BBDCJ58     070BBDC    /EJ PN      N1000R$  000000000022500000000002320000000000199000000000022000000000002320000000000000000000000000000014000000000000028100000000000006207000000000000280002013102100000010000000000000BRBBDCACNPR8605
012013081382BBDCT27     080BBDCE   /EJ PN      N1000R$  000000000000200000000000020000000000002000000000000200000000000020000000000001000000000000500001000000000000000300000000000000000600000000000267802013081900000010000000000000BRBBDCACNPR8602
012013081382BBDCT29     080BBDCE   /EJ PN      N1000R$  000000000002500000000000250000000000025000000000002500000000000250000000000011000000000000000001000000000000000800000000000000020000000000000287802013081900000010000000000000BRBBDCACNPR8602
012013081382BBDCT31     080BBDCE   /EJ PN      N1000R$  000000000017000000000001700000000000170000000000017000000000001700000000000000000000000000000004000000000000010000000000000001700000000000000307402013081900000010000000000000BRBBDCACNPR8600
012013081382BBDCU26     080BBDCE   /EJ PN      N1000R$  000000000001700000000000170000000000017000000000001700000000000170000000000007000000000000000002000000000000007000000000000000119000000000000259802013091600000010000000000000BRBBDCACNPR8604
012013081382BBDCU27     080BBDCE   /EJ PN      N1000R$  000000000002300000000000230000000000018000000000001900000000000180000000000000000000000002500008000000000000012300000000000000234900000000000267802013091600000010000000000000BRBBDCACNPR8602
012013081382BBDCU28     080BBDCE   /EJ PN      N1000R$  000000000004000000000000400000000000034000000000003800000000000340000000000000000000000006000056000000000000130400000000000005012000000000000277802013091600000010000000000000BRBBDCACNPR8602
012013081382BBDCU29     080BBDCE   /EJ PN      N1000R$  000000000006400000000000760000000000060000000000006200000000000600000000000000000000000000000015000000000000043200000000000002719000000000000287802013091600000010000000000000BRBBDCACNPR8602
012013081382BBDCU30     080BBDCE   /EJ PN      N1000R$  000000000012200000000001220000000000113000000000011800000000001130000000000000000000000012300008000000000000011200000000000001322900000000000297802013091600000010000000000000BRBBDCACNPR8602
012013081382BBDCV26     080BBDCE   /EJ PN      N1000R$  000000000002900000000000290000000000029000000000002900000000000290000000000000000000000000000001000000000000002000000000000000058000000000000259802013102100000010000000000000BRBBDCACNPR8604
012013081382BBDCV27     080BBDCE   /EJ PN      N1000R$  000000000005000000000000510000000000050000000000005000000000000510000000000000000000000000000005000000000000007100000000000000360000000000000267802013102100000010000000000000BRBBDCACNPR8602
012013081382BBDCV29     080BBDCE   /EJ PN      N1000R$  000000000010700000000001130000000000095000000000010800000000000950000000000000000000000000000018000000000000028100000000000003046800000000000287802013102100000010000000000000BRBBDCACNPR8602
012013081382BBDCV58     080BBDCE   /EJ PN      N1000R$  000000000008000000000000840000000000070000000000008000000000000700000000000000000000000000000007000000000000012300000000000000986600000000000280002013102100000010000000000000BRBBDCACNPR8605
012013081312BBFI11B     010FII BB PROGRCI      MB   R$  000000042100000000004210000000000420100000000042032500000004201000000000420100000000042499900004000000000000000004000000000001681302000000000000009999123100000010000000000000BRBBFICTF006197
012013081312BBPO11      010FII BB PRGIICI           R$  000000001110000000000112950000000011000000000001105600000000110000000000010990000000001100000216000000000000026693000000000295139485000000000000009999123100000010000000000000BRBBPOCTF003109
012013081312BBRC11      010FII BB CORP CI           R$  000000000930000000000094000000000009300000000000935000000000094000000000009400000000000950000003000000000000000097000000000000907000000000000000009999123100000010000000000000BRBBRCCTF004123
012013081302BBRK3       010BR BROKERS  ON      NM   R$  000000000055600000000005730000000000548000000000055700000000005670000000000563000000000056703089000000000000676500000000000377416600000000000000009999123100000010000000000000BRBBRKACNOR4108
012013081396BBRK3F      020BR BROKERS  ON      NM   R$  000000000055200000000005750000000000552000000000056400000000005750000000000509000000000058700005000000000000000096000000000000054178000000000000009999123100000010000000000000BRBBRKACNOR4108
012013081302BBSE3       010BBSEGURIDADEON      NM   R$  000000000196100000000019790000000001946000000000196300000000019660000000001965000000000197511617000000000003361100000000006599823000000000000000009999123100000010000000000000BRBBSEACNOR5100
012013081396BBSE3F      020BBSEGURIDADEON      NM   R$  000000000195000000000019780000000001945000000000196200000000019580000000001958000000000196000506000000000000015547000000000030514681000000000000009999123100000010000000000000BRBBSEACNOR5100
012013081362BBSE3T      030BBSEGURIDADEON      NM090R$  000000000200600000000020080000000001993000000000200100000000020020000000000000000000000000000044000000000000601000000000001203176358000000000000009999123100000010000000000000BRBBSEACNOR5100
012013081362BBSE3T      030BBSEGURIDADEON      NM180R$  000000000205200000000020530000000002052000000000205200000000020530000000000000000000000000000002000000000000001500000000000003078180000000000000009999123100000010000000000000BRBBSEACNOR5100
012013081302BBTG11      010BTG PACTUAL UNT EDJ      R$  000000000292000000000029230000000002813000000000288400000000029230000000002899000000000292301342000000000000342700000000000988458700000000000000009999123100000010000000000000BRBBTGUNT007105
012013081396BBTG11F     020BTG PACTUAL UNT EDJ      R$  000000000284000000000029170000000002840000000000287800000000029100000000002910000000000292000013000000000000000311000000000000895174000000000000009999123100000010000000000000BRBBTGUNT007105
012013081362BBTG11T     030BTG PACTUAL UNT EDJ   090R$  000000000291100000000029120000000002911000000000291100000000029120000000000000000000000000000002000000000000014800000000000043091694000000000000009999123100000010000000000000BRBBTGUNT007105
012013081312BBVJ11      010FII C JARDIMCI           R$  000000000804700000000080480000000008007000000000803100000000080480000000008010000000000804800016000000000000000559000000000004489407000000000000009999123100000010000000000000BRBBVJCTF001132
012013081312BCFF11B     010FII BC FFII CI  ER  MB   R$  000000000986200000000100000000000009831000000000987800000000099000000000009850000000000994000051000000000000001614000000000015943229000000000000009999123100000010000000000000BRBCFFCTF000141
012013081302BEEF3       010MINERVA     ON      NM   R$  000000000100800000000010400000000001000000000000101800000000010100000000001010000000000101602869000000000000587400000000000598097200000000000000009999123100000010000000000000BRBEEFACNOR6104
012013081396BEEF3F      020MINERVA     ON      NM   R$  000000000103000000000010350000000001005000000000102100000000010150000000001001000000000104000013000000000000000354000000000000361564000000000000009999123100000010000000000000BRBEEFACNOR6104
012013081302BEES3       010BANESTES    ON           R$  000000000004700000000000480000000000047000000000004700000000000480000000000047000000000004800011000000000000041200000000000001941400000000000000009999123100000010000000000000BRBEESACNOR9243
012013081302BEES4       010BANESTES    PN           R$  000000000004500000000000450000000000045000000000004500000000000450000000000044000000000004500001000000000000000100000000000000004500000000000000009999123100000010000000000000BRBEESACNPR6168
012013081302BEMA3       010BEMATECH    ON  ED  NM   R$  000000000071100000000007150000000000698000000000070500000000007070000000000707000000000070800419000000000000074800000000000052785200000000000000009999123100000010000000000000BRBEMAACNOR0114
012013081396BEMA3F      020BEMATECH    ON  ED  NM   R$  000000000070000000000007500000000000700000000000073700000000007000000000000700000000000079900003000000000000000066000000000000048700000000000000009999123100000010000000000000BRBEMAACNOR0114
012013081302BHGR3       010BHG         ON      NM   R$  000000000153000000000015500000000001525000000000153900000000015500000000001530000000000155000020000000000000004100000000000006310900000000000000009999123100000010000000000000BRBHGRACNOR9101
012013081396BHGR3F      020BHG         ON      NM   R$  000000000153300000000015330000000001533000000000153300000000015330000000001402000000000175000001000000000000000037000000000000056721000000000000009999123100000010000000000000BRBHGRACNOR9101
012013081302BICB4       010BICBANCO    PN      N1   R$  000000000034100000000003450000000000338000000000034300000000003440000000000340000000000034400195000000000000317000000000000108914700000000000000009999123100000010000000000000BRBICBACNPR7131
012013081396BICB4F      020BICBANCO    PN      N1   R$  000000000034900000000003490000000000347000000000034800000000003470000000000344000000000034700003000000000000000003000000000000001044000000000000009999123100000010000000000000BRBICBACNPR7131
012013081302BIOM4       010BIOMM       PN           R$  000000000084000000000008500000000000840000000000084800000000008500000000000811000000000087000004000000000000007000000000000005940000000000000000009999123100000010000000000000BRBIOMACNPR9101
012013081302BISA3       010BROOKFIELD  ON      NM   R$  000000000018800000000001880000000000179000000000018400000000001860000000000185000000000018705819000000000010412900000000001916772500000000000000009999123100000010000000000000BRBISAACNOR8109
012013081396BISA3F      020BROOKFIELD  ON      NM   R$  000000000018500000000001870000000000180000000000018200000000001820000000000181000000000018700012000000000000000415000000000000075900000000000000009999123100000010000000000000BRBISAACNOR8109
012013081362BISA3T      030BROOKFIELD  ON      NM030R$  000000000018500000000001890000000000185000000000018700000000001880000000000000000000000000000006000000000000140000000000000026244701000000000000009999123100000010000000000000BRBISAACNOR8109
012013081362BISA3T      030BROOKFIELD  ON      NM090R$  000000000018300000000001870000000000183000000000018500000000001870000000000000000000000000000004000000000000200000000000000037018740000000000000009999123100000010000000000000BRBISAACNOR8109
012013081312BJRC11      010FII JS RECIMCI           R$  000000008500100000000899990000000085001000000008980600000000899990000000085000000000008999900004000000000000000052000000000004669952000000000000009999123100000010000000000000BRBJRCCTF007109
012013081302BMEB4       010MERC BRASIL PN  EJ       R$  000000000110000000000011000000000001100000000000110000000000011000000000001100000000000112500001000000000000000300000000000000330000000000000000009999123100000010000000000000BRBMEBACNPR5191
012013081302BMIN4       010MERC INVEST PN           R$  000000000002400000000000250000000000023000000000002400000000000230000000000023000000000002400003000000000000012000000000000000288000000000000000009999123100000010000000000000BRBMINACNPR1159
012013081396BMIN4F      020MERC INVEST PN           R$  000000000002400000000000240000000000024000000000002400000000000240000000000023000000000000000001000000000000000100000000000000002400000000000000009999123100000010000000000000BRBMINACNPR1159
012013081312BMLC11B     010FII BMBRC LCCI  ER  MB   R$  000000001178000000000119600000000011700000000001174400000000119600000000011710000000001196000008000000000000000455000000000005343880000000000000009999123100000010000000000000BRBMLCCTF004118
012013081302BMTO4       010BRASMOTOR   PN           R$  000000000008500000000000860000000000085000000000008500000000000860000000000084000000000008600006000000000000011000000000000000943000000000000000009999123100000010000000000000BRBMTOACNPR6065
012013081396BMTO4F      020BRASMOTOR   PN           R$  000000000008600000000000860000000000084000000000008500000000000860000000000084000000000008600003000000000000000405000000000000034756000000000000009999123100000010000000000000BRBMTOACNPR6065
012013081312BNFS11      010FII BANRISULCI           R$  000000001019900000000101990000000010199000000001019900000000101990000000009520000000001019900001000000000000000025000000000000254975000000000000009999123100000010000000000000BRBNFSCTF000111
012013081302BOAC11B     010BANK AMERICADRN     MB   R$  000000000338300000000033830000000003383000000000338300000000033830000000003320000000000338000001000000000000008300000000000028078900000000000000009999123100000010000000000000BRBOACBDR004111
012013081302BOEI11B     010BOEING      DRN ED  MB   R$  000000002456400000000245640000000024564000000002456400000000245640000000024173000000002490000001000000000000001600000000000039302400000000000000009999123100000010000000000000BRBOEIBDR003106
012013081314BOVA11      010ISHARES BOVACI           R$  000000000497600000000049800000000004906000000000493900000000049650000000004965000000000497909830000000000002437690000000012041316360000000000000009999123100000010000000000000BRBOVACTF003101
012013081396BOVA11F     020ISHARES BOVACI           R$  000000000493300000000049600000000004900000000000494400000000049600000000004859000000000498100009000000000000000029000000000000143379000000000000009999123100000010000000000000BRBOVACTF003101
012013081312BPFF11      010FII ABSOLUTOCI           R$  000000000900000000000090000000000008790000000000881200000000087950000000008780000000000879500021000000000000002740000000000024145196000000000000009999123100000010000000000000BRBPFFCTF002104
012013081302BPHA3       010BR PHARMA   ON      NM   R$  000000000096700000000010080000000000967000000000099300000000009890000000000987000000000098904150000000000000905700000000000899568200000000000000009999123100000010000000000000BRBPHAACNOR6102
012013081396BPHA3F      020BR PHARMA   ON      NM   R$  000000000094500000000010000000000000945000000000099400000000010000000000000976000000000100900005000000000000000056000000000000055693000000000000009999123100000010000000000000BRBPHAACNOR6102
012013081302BPNM4       010PANAMERICANOPN      N1   R$  000000000058100000000005810000000000560000000000057100000000005680000000000563000000000056800311000000000000211400000000000120805400000000000000009999123100000010000000000000BRBPNMACNPR6111
012013081396BPNM4F      020PANAMERICANOPN      N1   R$  000000000057300000000005730000000000541000000000057000000000005710000000000565000000000058600009000000000000000254000000000000144834000000000000009999123100000010000000000000BRBPNMACNPR6111
012013081302BRAP3       010BRADESPAR   ON      N1   R$  000000000207000000000020980000000002062000000000209000000000020900000000002065000000000209000120000000000000035900000000000075057400000000000000009999123100000010000000000000BRBRAPACNOR5124
012013081396BRAP3F      020BRADESPAR   ON      N1   R$  000000000208600000000020860000000002086000000000208600000000020860000000002067000000000208600002000000000000000007000000000000014602000000000000009999123100000010000000000000BRBRAPACNOR5124
012013081302BRAP4       010BRADESPAR   PN      N1   R$  000000000253000000000025730000000002508000000000254100000000025450000000002545000000000254807130000000000001752000000000004452724400000000000000009999123100000010000000000000BRBRAPACNPR2124
012013081396BRAP4F      020BRADESPAR   PN      N1   R$  000000000253500000000025650000000002494000000000254000000000025590000000002518000000000255900206000000000000005598000000000014219291000000000000009999123100000010000000000000BRBRAPACNPR2124
012013081378BRAPH22     070BRAP        PN      N1000R$  000000000033000000000003300000000000330000000000033000000000003300000000000000000000000000000002000000000000010000000000000003300000000000000220002013081900000010000000000000BRBRAPACNPR2124
012013081378BRAPI22     070BRAP        PN      N1000R$  000000000033300000000003330000000000333000000000033300000000003330000000000000000000000000000001000000000000010000000000000003330000000000000220002013091600000010000000000000BRBRAPACNPR2124
012013081378BRAPL28     070BRAP        PN      N1000R$  000000000009900000000001090000000000099000000000010500000000001090000000000109000000000000000004000000000000500000000000000052500000000000000280002013121600000010000000000000BRBRAPACNPR2124
012013081314BRAX11      010ISHARES BRAXCI           R$  000000000406900000000040690000000004061000000000406500000000040610000000000000000000000000000002000000000000000020000000000000081300000000000000009999123100000010000000000000BRBRAXCTF002100
012013081312BRCR11      010FII BC FUND CI  ER       R$  000000001310000000000131540000000012860000000001294700000000128850000000012885000000001293200677000000000000038627000000000500108318000000000000009999123100000010000000000000BRBRCRCTF000132
012013081302BRFS3       010BRF SA      ON      NM   R$  000000000511500000000052100000000005096000000000516900000000052100000000005207000000000521007783000000000001870600000000009671326100000000000000009999123100000010000000000000BRBRFSACNOR8110
012013081396BRFS3F      020BRF SA      ON      NM   R$  000000000514800000000052000000000005099000000000515700000000051900000000005190000000000520700158000000000000004381000000000022604138000000000000009999123100000010000000000000BRBRFSACNOR8110
012013081362BRFS3T      030BRF SA      ON      NM120R$  000000000524100000000052420000000005241000000000524100000000052420000000000000000000000000000002000000000000001000000000000005241814000000000000009999123100000010000000000000BRBRFSACNOR8110
012013081378BRFSH50     070BRFS        ON      NM000R$  000000000020100000000002010000000000201000000000020100000000002010000000000000000000000000000002000000000000005000000000000001005000000000000500002013081900000010000000000000BRBRFSACNOR8110
012013081378BRFSI50     070BRFS        ON      NM000R$  000000000023100000000002310000000000231000000000023100000000002310000000000000000000000000000001000000000000005000000000000001155000000000000500002013091600000010000000000000BRBRFSACNOR8110
012013081302BRIN3       010BR INSURANCEON      NM   R$  000000000235700000000023640000000002318000000000234300000000023400000000002336000000000234001770000000000000363200000000000851197900000000000000009999123100000010000000000000BRBRINACNOR3105
012013081396BRIN3F      020BR INSURANCEON      NM   R$  000000000234100000000023680000000002340000000000234500000000023680000000002330000000000236800011000000000000000217000000000000508892000000000000009999123100000010000000000000BRBRINACNOR3105
012013081302BRIV4       010ALFA INVEST PN           R$  000000000060300000000006030000000000596000000000059800000000005960000000000585000000000059700003000000000000000300000000000000179500000000000000009999123100000010000000000000BRBRIVACNPR3196
012013081302BRKM3       010BRASKEM     ON      N1   R$  000000000122700000000012430000000001220000000000123600000000012350000000001220000000000123600007000000000000001000000000000001236700000000000000009999123100000010000000000000BRBRKMACNOR1110
012013081302BRKM5       010BRASKEM     PNA     N1   R$  000000000177500000000017940000000001750000000000177400000000017940000000001785000000000179409290000000000002352300000000004173560500000000000000009999123100000010000000000000BRBRKMACNPA4110
012013081396BRKM5F      020BRASKEM     PNA     N1   R$  000000000180900000000018090000000001750000000000178100000000017850000000001776000000000178500042000000000000000995000000000001772485000000000000009999123100000010000000000000BRBRKMACNPA4110
012013081378BRKMJ19     070BRKM        PNA     N1000R$  000000000005200000000000520000000000052000000000005200000000000520000000000000000000000000000003000000000000713300000000000037091600000000000190002013102100000010000000000000BRBRKMACNPA4110
012013081378BRKMJ53     070BRKME       PNA     N1000R$  000000000048000000000004800000000000480000000000048000000000004800000000000000000000000000000001000000000000336000000000000161280000000000000132502013102100000010000000000000BRBRKMACNPA4110
012013081378BRKMJ60     070BRKME       PNA     N1000R$  000000000003100000000000310000000000031000000000003100000000000310000000000000000000000000000001000000000000336000000000000010416000000000000202502013102100000010000000000000BRBRKMACNPA4110
012013081382BRKMV53     080BRKME       PNA     N1000R$  000000000000100000000000010000000000001000000000000100000000000010000000000000000000000000000001000000000000336000000000000000336000000000000132502013102100000010000000000000BRBRKMACNPA4110
012013081382BRKMV60     080BRKME       PNA     N1000R$  000000000023900000000002390000000000239000000000023900000000002390000000000000000000000000000001000000000000336000000000000080304000000000000202502013102100000010000000000000BRBRKMACNPA4110
012013081302BRML3       010BR MALLS PARON      NM   R$  000000000197500000000020150000000001941000000000197600000000020100000000002009000000000201016445000000000003823900000000007559089700000000000000009999123100000010000000000000BRBRMLACNOR9105
012013081396BRML3F      020BR MALLS PARON      NM   R$  000000000195000000000020160000000001950000000000197500000000019700000000001898000000000197000067000000000000001689000000000003336918000000000000009999123100000010000000000000BRBRMLACNOR9105
012013081362BRML3T      030BR MALLS PARON      NM030R$  000000000197100000000019920000000001971000000000197400000000019920000000000000000000000000000004000000000000002600000000000005133902000000000000009999123100000010000000000000BRBRMLACNOR9105
012013081302BRPR3       010BR PROPERT  ON      NM   R$  000000000191400000000019300000000001899000000000191400000000019100000000001909000000000191208365000000000001951800000000003737382400000000000000009999123100000010000000000000BRBRPRACNOR9112
012013081396BRPR3F      020BR PROPERT  ON      NM   R$  000000000191200000000019290000000001886000000000190300000000018860000000001885000000000193000026000000000000000812000000000001545992000000000000009999123100000010000000000000BRBRPRACNOR9112
012013081396BRSR3F      020BANRISUL    ON      N1   R$  000000000135000000000013500000000001350000000000135000000000013500000000001350000000000140800001000000000000000009000000000000012150000000000000009999123100000010000000000000BRBRSRACNOR3130
012013081396BRSR5F      020BANRISUL    PNA     N1   R$  000000000148300000000014830000000001483000000000148300000000014830000000001294000000000148400001000000000000000001000000000000001483000000000000009999123100000010000000000000BRBRSRACNPA6134
012013081302BRSR6       010BANRISUL    PNB     N1   R$  000000000144900000000014710000000001432000000000145000000000014710000000001467000000000147102622000000000000707800000000001026853100000000000000009999123100000010000000000000BRBRSRACNPB4133
012013081396BRSR6F      020BANRISUL    PNB     N1   R$  000000000144900000000014650000000001430000000000144900000000014310000000001430000000000148300028000000000000000911000000000001320326000000000000009999123100000010000000000000BRBRSRACNPB4133
012013081302BSEV3       010BIOSEV      ON      NM   R$  000000000108400000000011150000000001084000000000110500000000010950000000001095000000000111100019000000000000021200000000000023433700000000000000009999123100000010000000000000BRBSEVACNOR3100
012013081382BSEVS99     080BSEVE       ON      NM000R$  000000000042000000000004200000000000420000000000042000000000004200000000000300000000000043700001000000000000004193000000000001761060000000000165702014072100000010000000000000BRBSEVACNOR3100
012013081396BSLI4F      020BRB BANCO   PN           R$  000000000260000000000026000000000002600000000000260000000000026000000000000000000000000260000002000000000000000020000000000000052000000000000000009999123100000010000000000000BRBSLIACNPR2146
012013081302BTOW3       010B2W DIGITAL ON      NM   R$  000000000142000000000014950000000001372000000000143800000000014850000000001480000000000148502916000000000000977600000000001406796800000000000000009999123100000010000000000000BRBTOWACNOR8105
012013081396BTOW3F      020B2W DIGITAL ON      NM   R$  000000000143900000000014980000000001370000000000143400000000014060000000001477000000000148300047000000000000001492000000000002140202000000000000009999123100000010000000000000BRBTOWACNOR8105
012013081302BTTL3       010BATTISTELLA ON           R$  000000000008500000000000870000000000085000000000008500000000000870000000000080000000000008700003000000000000009700000000000000826500000000000000009999123100000010000000000000BRBTTLACNOR0105
012013081302BTTL4       010BATTISTELLA PN           R$  000000000010000000000001020000000000100000000000010000000000001020000000000099000000000010200009000000000000036300000000000003648800000000000000009999123100000010000000000000BRBTTLACNPR7105
012013081302BVMF3       010BMFBOVESPA  ON      NM   R$  000000000119300000000012000000000001175000000000118300000000011850000000001181000000000118516313000000000010148000000000012010967000000000000000009999123100000010000000000000BRBVMFACNOR3125
012013081396BVMF3F      020BMFBOVESPA  ON      NM   R$  000000000120000000000012000000000001173000000000118600000000011730000000001173000000000119000093000000000000003061000000000003628032000000000000009999123100000010000000000000BRBVMFACNOR3125
012013081362BVMF3T      030BMFBOVESPA  ON      NM030R$  000000000119200000000011940000000001192000000000119300000000011940000000000000000000000000000006000000000000002000000000000002386175000000000000009999123100000010000000000000BRBVMFACNOR3125
012013081362BVMF3T      030BMFBOVESPA  ON      NM062R$  000000000120600000000012070000000001193000000000120100000000011940000000000000000000000000000004000000000000009000000000000010817193000000000000009999123100000010000000000000BRBVMFACNOR3125
012013081362BVMF3T      030BMFBOVESPA  ON      NM120R$  000000000121300000000012140000000001213000000000121300000000012140000000000000000000000000000002000000000000005000000000000006068388000000000000009999123100000010000000000000BRBVMFACNOR3125
012013081378BVMFG12     070BVMF        ON      NM000R$  000000000016800000000001690000000000168000000000016800000000001690000000000000000000000000000002000000000001130000000000000189986900000000000120002014072100000010000000000000BRBVMFACNOR3125
012013081378BVMFH10     070BVMF        ON      NM000R$  000000000019000000000001900000000000184000000000018900000000001840000000000000000000000030000002000000000000004800000000000000907200000000000100002013081900000010000000000000BRBVMFACNOR3125
012013081378BVMFH11     070BVMF        ON      NM000R$  000000000009900000000001020000000000083000000000008900000000000930000000000000000000000010200328000000000000267300000000000023847400000000000110002013081900000010000000000000BRBVMFACNOR3125
012013081378BVMFH12     070BVMF        ON      NM000R$  000000000002100000000000210000000000012000000000001700000000000130000000000013000000000001500075000000000000146800000000000002584400000000000120002013081900000010000000000000BRBVMFACNOR3125
012013081378BVMFH13     070BVMF        ON      NM000R$  000000000000200000000000020000000000001000000000000100000000000010000000000001000000000000200038000000000000113100000000000000179300000000000128902013081900000010000000000000BRBVMFACNOR3124
012013081378BVMFH14     070BVMF        ON      NM000R$  000000000000100000000000010000000000001000000000000100000000000010000000000000000000000000100001000000000000001500000000000000001500000000000138902013081900000010000000000000BRBVMFACNOR3124
012013081378BVMFH15     070BVMF        ON      NM000R$  000000000000100000000000010000000000001000000000000100000000000010000000000000000000000000100001000000000000001500000000000000001500000000000150002013081900000010000000000000BRBVMFACNOR3125
012013081378BVMFH41     070BVMF        ON      NM000R$  000000000004900000000000490000000000045000000000004700000000000450000000000030000000000000000003000000000000003000000000000000143400000000000115002013081900000010000000000000BRBVMFACNOR3125
012013081378BVMFH42     070BVMF        ON      NM000R$  000000000000200000000000020000000000002000000000000200000000000020000000000001000000000001000002000000000000006600000000000000013200000000000125002013081900000010000000000000BRBVMFACNOR3125
012013081378BVMFH43     070BVMF        ON      NM000R$  000000000000100000000000010000000000001000000000000100000000000010000000000000000000000003000002000000000000001700000000000000001700000000000135002013081900000010000000000000BRBVMFACNOR3125
012013081378BVMFI10     070BVMF        ON      NM000R$  000000000019500000000001950000000000195000000000019500000000001950000000000000000000000000000001000000000000000100000000000000019500000000000100002013091600000010000000000000BRBVMFACNOR3125
012013081378BVMFI11     070BVMF        ON      NM000R$  000000000011400000000001140000000000105000000000011100000000001050000000000000000000000011500002000000000000001700000000000000189300000000000110002013091600000010000000000000BRBVMFACNOR3125
012013081378BVMFI12     070BVMF  FM    ON      NM000R$  000000000005000000000000570000000000040000000000004500000000000430000000000043000000000004400085000000000000187000000000000008435800000000000120002013091600000010000000000000BRBVMFACNOR3125
012013081378BVMFI13     070BVMF  FM    ON      NM000R$  000000000001500000000000170000000000010000000000001200000000000110000000000011000000000001200373000000000000421400000000000005106800000000000130002013091600000010000000000000BRBVMFACNOR3125
012013081378BVMFI14     070BVMF        ON      NM000R$  000000000000400000000000040000000000003000000000000300000000000030000000000003000000000000500007000000000000057200000000000000221600000000000140002013091600000010000000000000BRBVMFACNOR3125
012013081378BVMFI41     070BVMF  FM    ON      NM000R$  000000000008400000000000840000000000071000000000007400000000000710000000000000000000000000000003000000000000003400000000000000252400000000000115002013091600000010000000000000BRBVMFACNOR3125
012013081378BVMFI42     070BVMF  FM    ON      NM000R$  000000000002900000000000300000000000023000000000002600000000000230000000000000000000000000000006000000000000015000000000000000400000000000000125002013091600000010000000000000BRBVMFACNOR3125
012013081378BVMFI43     070BVMF  FM    ON      NM000R$  000000000000600000000000060000000000006000000000000600000000000060000000000005000000000002300001000000000000000300000000000000001800000000000135002013091600000010000000000000BRBVMFACNOR3125
012013081378BVMFJ12     070BVMF  FM    ON      NM000R$  000000000006300000000000650000000000063000000000006400000000000640000000000000000000000000000010000000000000025600000000000001644200000000000120002013102100000010000000000000BRBVMFACNOR3125
012013081378BVMFJ13     070BVMF  FM    ON      NM000R$  000000000003100000000000310000000000025000000000002800000000000260000000000001000000000002600030000000000000048600000000000001408300000000000130002013102100000010000000000000BRBVMFACNOR3125
012013081378BVMFJ41     070BVMF  FM    ON      NM000R$  000000000009100000000000940000000000090000000000009200000000000930000000000000000000000000000005000000000000014100000000000001309300000000000115002013102100000010000000000000BRBVMFACNOR3125
012013081378BVMFJ42     070BVMF  FM    ON      NM000R$  000000000004300000000000430000000000043000000000004300000000000430000000000000000000000000000003000000000000013000000000000000559000000000000125002013102100000010000000000000BRBVMFACNOR3125
012013081382BVMFT11     080BVMFE       ON      NM000R$  000000000000100000000000050000000000001000000000000300000000000040000000000001000000000000400058000000000000048300000000000000185900000000000110002013081900000010000000000000BRBVMFACNOR3125
012013081382BVMFT12     080BVMFE       ON      NM000R$  000000000002100000000000330000000000021000000000002700000000000330000000000009000000000000000013000000000000007200000000000000195100000000000120002013081900000010000000000000BRBVMFACNOR3125
012013081382BVMFT13     080BVMFE       ON      NM000R$  000000000009500000000001060000000000092000000000009800000000001010000000000088000000000000000016000000000000008100000000000000793900000000000128902013081900000010000000000000BRBVMFACNOR3124
012013081382BVMFT40     080BVMFE       ON      NM000R$  000000000000100000000000010000000000001000000000000100000000000010000000000000000000000000000001000000000000001000000000000000001000000000000105002013081900000010000000000000BRBVMFACNOR3125
012013081382BVMFT61     080BVMFE       ON      NM000R$  000000000001600000000000170000000000016000000000001600000000000170000000000000000000000000000002000000000000800000000000000013000000000000000117502013081900000010000000000000BRBVMFACNOR3125
012013081382BVMFT62     080BVMFE       ON      NM000R$  000000000004600000000000460000000000046000000000004600000000000460000000000000000000000000000001000000000001600000000000000073600000000000000122502013081900000010000000000000BRBVMFACNOR3125
012013081382BVMFU12     080BVMFE FM    ON      NM000R$  000000000004800000000000550000000000047000000000005100000000000520000000000046000000000006700012000000000000017600000000000000913700000000000120002013091600000010000000000000BRBVMFACNOR3125
012013081382BVMFU42     080BVMFE FM    ON      NM000R$  000000000008000000000000800000000000080000000000008000000000000800000000000000000000000009000002000000000000004000000000000000320000000000000125002013091600000010000000000000BRBVMFACNOR3125
012013081382BVMFV11     080BVMFE FM    ON      NM000R$  000000000003000000000000300000000000029000000000002900000000000290000000000000000000000000000002000000000000007000000000000000206500000000000110002013102100000010000000000000BRBVMFACNOR3125
012013081382BVMFV12     080BVMFE FM    ON      NM000R$  000000000006400000000000640000000000064000000000006400000000000640000000000050000000000010000003000000000000010600000000000000678400000000000120002013102100000010000000000000BRBVMFACNOR3125
012013081382BVMFV41     080BVMFE FM    ON      NM000R$  000000000004300000000000430000000000043000000000004300000000000430000000000000000000000000000002000000000000005300000000000000227900000000000115002013102100000010000000000000BRBVMFACNOR3125
012013081396CALI3F      020CONST A LINDON           R$  000000001500000000000150000000000015000000000001500000000000150000000000012000000000001500000001000000000000000001000000000000015000000000000000009999123100000010000000000000BRCALIACNOR1127
012013081396CALI4F      020CONST A LINDPN           R$  000000001500000000000150000000000015000000000001500000000000150000000000010100000000001500000001000000000000000001000000000000015000000000000000009999123100000010000000000000BRCALIACNPR8131
012013081302CAMB4       010CAMBUCI     PN           R$  000000000017800000000001900000000000178000000000018200000000001830000000000183000000000019000009000000000000003400000000000000622100000000000000009999123100000010000000000000BRCAMBACNPR1117
012013081396CAMB4F      020CAMBUCI     PN           R$  000000000017700000000001770000000000169000000000017100000000001690000000000100000000000019000004000000000000000004000000000000000687000000000000009999123100000010000000000000BRCAMBACNPR1117
012013081302CARD3       010CSU CARDSYSTON      NM   R$  000000000032500000000003250000000000317000000000031900000000003210000000000315000000000032100012000000000000008400000000000002681800000000000000009999123100000010000000000000BRCARDACNOR9105
012013081396CBMA3F      020COBRASMA    ON           R$  000000000000500000000000050000000000005000000000000500000000000050000000000005000000000000700001000000000000000001000000000000000005000000000000009999123100000010000000000000BRCBMAACNOR4124
012013081302CBMA4       010COBRASMA    PN           R$  000000000000400000000000040000000000003000000000000300000000000040000000000003000000000000400054000000000003660000000000000014490000000000000000009999123100000010000000000000BRCBMAACNPR1124
012013081396CBMA4F      020COBRASMA    PN           R$  000000000000400000000000050000000000004000000000000400000000000040000000000003000000000000400009000000000000040282000000000000161228000000000000009999123100000010000000000000BRCBMAACNPR1124
012013081308CCHI3       010CHIARELLI   ON           R$  000000000003000000000000300000000000029000000000002900000000000300000000000029000000000003000013000000000000280000000000000008380000000000000000009999123100000010000000000000BRCCHIACNOR5123
012013081396CCHI3F      020CHIARELLI   ON           R$  000000000002500000000000250000000000017000000000001900000000000170000000000017000000000002900002000000000000000890000000000000017530000000000000009999123100000010000000000000BRCCHIACNOR5123
012013081302CCPR3       010CYRE COM-CCPON      NM   R$  000000000220000000000022000000000002151000000000217100000000021900000000002167000000000224800015000000000000003400000000000007382500000000000000009999123100000010000000000000BRCCPRACNOR9107
012013081302CCRO3       010CCR SA      ON      NM   R$  000000000174600000000017800000000001728000000000176500000000017690000000001769000000000178023203000000000008472700000000014954789100000000000000009999123100000010000000000000BRCCROACNOR2122
012013081396CCRO3F      020CCR SA      ON      NM   R$  000000000180300000000018030000000001735000000000176100000000017460000000001746000000000179000074000000000000002162000000000003808448000000000000009999123100000010000000000000BRCCROACNOR2122
012013081362CCRO3T      030CCR SA      ON      NM062R$  000000000178000000000017810000000001780000000000178000000000017810000000000000000000000000000002000000000000000500000000000000890116000000000000009999123100000010000000000000BRCCROACNOR2122
012013081378CCROI18     070CCRO        ON      NM000R$  000000000003500000000000350000000000035000000000003500000000000350000000000000000000000000000001000000000000013400000000000000469000000000000180002013091600000010000000000000BRCCROACNOR2122
012013081302CCXC3       010CCX CARVAO  ON      NM   R$  000000000008600000000000870000000000083000000000008400000000000850000000000084000000000008500411000000000000916500000000000077712300000000000000009999123100000010000000000000BRCCXCACNOR5100
012013081396CCXC3F      020CCX CARVAO  ON      NM   R$  000000000008400000000000840000000000083000000000008300000000000830000000000084000000000008500002000000000000000100000000000000008399000000000000009999123100000010000000000000BRCCXCACNOR5100
012013081362CCXC3T      030CCX CARVAO  ON      NM090R$  000000000008500000000000860000000000085000000000008500000000000860000000000000000000000000000002000000000000030000000000000002570148000000000000009999123100000010000000000000BRCCXCACNOR5100
012013081302CEBR5       010CEB         PNA          R$  000000000190000000000019000000000001900000000000190000000000019000000000001900000000000248800001000000000000000300000000000000570000000000000000009999123100000010000000000000BRCEBRACNPA8113
012013081302CEBR6       010CEB         PNB          R$  000000000160000000000016000000000001600000000000160000000000016000000000001280000000000170000001000000000000000300000000000000480000000000000000009999123100000010000000000000BRCEBRACNPB6113
012013081302CEDO4       010CEDRO       PN      N1   R$  000000000089700000000008970000000000897000000000089700000000008970000000000800000000000089900001000000000000000100000000000000089700000000000000009999123100000010000000000000BRCEDOACNPR5126
012013081302CEEB3       010COELBA      ON           R$  000000000325000000000032500000000003250000000000325000000000032500000000003150000000000350000002000000000000000200000000000000650000000000000000009999123100000010000000000000BRCEEBACNOR3163
012013081312CEOC11B     010FII CEO CCP CI  ER  MB   R$  000000000904100000000091800000000009041000000000913900000000091500000000009061000000000915000005000000000000000161000000000001471447000000000000009999123100000010000000000000BRCEOCCTF003109
012013081302CEPE5       010CELPE       PNA          R$  000000000180000000000018000000000001800000000000180000000000018000000000001600000000000190000002000000000000002100000000000003780000000000000000009999123100000010000000000000BRCEPEACNPA6151
012013081302CESP3       010CESP        ON      N1   R$  000000000173000000000017300000000001670000000000172200000000017180000000001656000000000171800012000000000000025500000000000043918300000000000000009999123100000010000000000000BRCESPACNOR3159
012013081396CESP3F      020CESP        ON      N1   R$  000000000167000000000017300000000001670000000000168800000000017300000000001518000000000200100004000000000000000100000000000000168800000000000000009999123100000010000000000000BRCESPACNOR3159
012013081362CESP3T      030CESP        ON      N1030R$  000000000174400000000017450000000001744000000000174400000000017450000000000000000000000000000004000000000000018400000000000032090378000000000000009999123100000010000000000000BRCESPACNOR3159
012013081302CESP5       010CESP        PNA     N1   R$  000000000218100000000021810000000002181000000000218100000000021810000000002170000000000225000001000000000000000100000000000000218100000000000000009999123100000010000000000000BRCESPACNPA6108
012013081302CESP6       010CESP        PNB     N1   R$  000000000216700000000021950000000002111000000000214600000000021490000000002147000000000214904960000000000001085200000000002329476400000000000000009999123100000010000000000000BRCESPACNPB4118
012013081396CESP6F      020CESP        PNB     N1   R$  000000000218000000000021900000000002105000000000215700000000021440000000002105000000000218500035000000000000001043000000000002248718000000000000009999123100000010000000000000BRCESPACNPB4118
012013081362CESP6T      030CESP        PNB     N1030R$  000000000215600000000021570000000002156000000000215600000000021570000000000000000000000000000002000000000000000500000000000001078346000000000000009999123100000010000000000000BRCESPACNPB4118
012013081302CGAS3       010COMGAS      ON           R$  000000000509400000000051990000000005094000000000514300000000051990000000005140000000000519900014000000000000011100000000000057092200000000000000009999123100000010000000000000BRCGASACNOR0132
012013081302CGAS5       010COMGAS      PNA          R$  000000000558700000000056900000000005587000000000561200000000056900000000005685000000000569900127000000000000116500000000000653892400000000000000009999123100000010000000000000BRCGASACNPA3129
012013081396CGAS5F      020COMGAS      PNA          R$  000000000559000000000056700000000005590000000000559500000000056700000000005581000000000569400005000000000000000050000000000000279750000000000000009999123100000010000000000000BRCGASACNPA3129
012013081362CGAS5T      030COMGAS      PNA       062R$  000000000568300000000056840000000005683000000000568300000000056840000000000000000000000000000002000000000000090000000000000511509600000000000000009999123100000010000000000000BRCGASACNPA3129
012013081396CGRA3F      020GRAZZIOTIN  ON           R$  000000000165000000000016500000000001650000000000165000000000016500000000001655000000000170000001000000000000000020000000000000033000000000000000009999123100000010000000000000BRCGRAACNOR2061
012013081302CGRA4       010GRAZZIOTIN  PN           R$  000000000167200000000016990000000001672000000000168800000000016990000000001699000000000171000011000000000000003200000000000005402600000000000000009999123100000010000000000000BRCGRAACNPR9061
012013081396CGRA4F      020GRAZZIOTIN  PN           R$  000000000167400000000016740000000001674000000000167400000000016740000000001700000000000180000002000000000000000020000000000000033480000000000000009999123100000010000000000000BRCGRAACNPR9061
012013081302CHVX11B     010CHEVRON     DRN     MB   R$  000000002832100000000283210000000028321000000002832100000000283210000000028028000000002914900001000000000000000600000000000016992600000000000000009999123100000010000000000000BRCHVXBDR008108
012013081302CIEL3       010CIELO       ON      NM   R$  000000000563500000000056510000000005583000000000561700000000056360000000005636000000000564507374000000000002065800000000011604161000000000000000009999123100000010000000000000BRCIELACNOR3111
012013081396CIEL3F      020CIELO       ON      NM   R$  000000000565000000000056500000000005591000000000561500000000056500000000005633000000000564000056000000000000001693000000000009507578000000000000009999123100000010000000000000BRCIELACNOR3111
012013081378CIELI57     070CIEL        ON      NM000R$  000000000013500000000001350000000000135000000000013500000000001350000000000000000000000000000001000000000000000400000000000000054000000000000570002013091600000010000000000000BRCIELACNOR3111
012013081302CLSC4       010CELESC      PN      N2   R$  000000000187400000000018740000000001830000000000184300000000018400000000001837000000000184000058000000000000010300000000000018988100000000000000009999123100000010000000000000BRCLSCACNPR3107
012013081396CLSC4F      020CELESC      PN      N2   R$  000000000183000000000018300000000001830000000000183000000000018300000000001800000000000198300001000000000000000004000000000000007320000000000000009999123100000010000000000000BRCLSCACNPR3107
012013081302CMCS11B     010COMCAST     DRN     MB   R$  000000001033900000000103390000000010339000000001033900000000103390000000000000000000000000000001000000000000002500000000000025847500000000000000009999123100000010000000000000BRCMCSBDR008106
012013081302CMIG3       010CEMIG       ON      N1   R$  000000000202000000000020510000000002016000000000203100000000020310000000002015000000000203200658000000000000170900000000000347201100000000000000009999123100000010000000000000BRCMIGACNOR6208
012013081396CMIG3F      020CEMIG       ON      N1   R$  000000000202500000000020500000000002011000000000203100000000020500000000002010000000000205000020000000000000000554000000000001125696000000000000009999123100000010000000000000BRCMIGACNOR6208
012013081302CMIG4       010CEMIG       PN      N1   R$  000000000206400000000020840000000002047000000000206500000000020650000000002065000000000206708864000000000002829300000000005842611100000000000000009999123100000010000000000000BRCMIGACNPR3208
012013081396CMIG4F      020CEMIG       PN      N1   R$  000000000210000000000021000000000002046000000000206600000000020580000000002058000000000207000089000000000000002552000000000005272763000000000000009999123100000010000000000000BRCMIGACNPR3208
012013081362CMIG4T      030CEMIG       PN      N1016R$  000000000208000000000020810000000002068000000000207500000000020690000000000000000000000000000004000000000000011000000000000022826357000000000000009999123100000010000000000000BRCMIGACNPR3208
012013081362CMIG4T      030CEMIG       PN      N1030R$  000000000208800000000020890000000002075000000000208300000000020760000000000000000000000000000006000000000000001000000000000002083489000000000000009999123100000010000000000000BRCMIGACNPR3208
012013081362CMIG4T      030CEMIG       PN      N1090R$  000000000211600000000021170000000002116000000000211600000000021170000000000000000000000000000002000000000000001000000000000002116293000000000000009999123100000010000000000000BRCMIGACNPR3208
012013081378CMIGI21     070CMIG        PN      N1000R$  000000000004200000000000500000000000042000000000004600000000000500000000000000000000000000000003000000000000001800000000000000082800000000000210002013091600000010000000000000BRCMIGACNPR3208
012013081312CNES11B     010FII CENESP  CI      MB   R$  000000001277500000000127750000000012333000000001255900000000126950000000012695000000001277500011000000000000000550000000000006907497000000000000009999123100000010000000000000BRCNESCTF001124
012013081302COCA11B     010COCA COLA   DRN     MB   R$  000000000918900000000091890000000009189000000000918900000000091890000000009077000000000940000001000000000000001100000000000010107900000000000000009999123100000010000000000000BRCOCABDR002108
012013081302COCE3       010COELCE      ON           R$  000000000410800000000041460000000004108000000000412000000000041460000000004000000000000414900005000000000000000600000000000002472500000000000000009999123100000010000000000000BRCOCEACNOR0132
012013081302COCE5       010COELCE      PNA          R$  000000000389500000000040000000000003895000000000396600000000039500000000003930000000000395000107000000000000159600000000000633111400000000000000009999123100000010000000000000BRCOCEACNPA3133
012013081396COCE5F      020COELCE      PNA          R$  000000000390000000000039980000000003900000000000395400000000039100000000003910000000000396100009000000000000000124000000000000490401000000000000009999123100000010000000000000BRCOCEACNPA3133
012013081362COCE5T      030COELCE      PNA       062R$  000000000402900000000040300000000004029000000000402900000000040300000000000000000000000000000002000000000000126000000000000507673278000000000000009999123100000010000000000000BRCOCEACNPA3133
012013081302CPFE3       010CPFL ENERGIAON      NM   R$  000000000213600000000021800000000002131000000000215900000000021750000000002173000000000217505377000000000000956500000000002065598000000000000000009999123100000010000000000000BRCPFEACNOR0121
012013081396CPFE3F      020CPFL ENERGIAON      NM   R$  000000000229900000000022990000000002141000000000216500000000021410000000002145000000000221000024000000000000000596000000000001290694000000000000009999123100000010000000000000BRCPFEACNOR0121
012013081302CPLE3       010COPEL       ON      N1   R$  000000000236500000000023950000000002360000000000238000000000023890000000002250000000000239000016000000000000002600000000000006189900000000000000009999123100000010000000000000BRCPLEACNOR8128
012013081302CPLE6       010COPEL       PNB     N1   R$  000000000312000000000031460000000003020000000000310300000000031400000000003140000000000314608953000000000001728100000000005362583900000000000000009999123100000010000000000000BRCPLEACNPB9125
012013081396CPLE6F      020COPEL       PNB     N1   R$  000000000319400000000031940000000003035000000000309800000000031840000000003070000000000314000032000000000000000581000000000001800569000000000000009999123100000010000000000000BRCPLEACNPB9125
012013081302CPRE3       010CPFL RENOVAVON      NM   R$  000000000118900000000012150000000001180000000000119400000000012140000000001160000000000121400023000000000000024400000000000029144500000000000000009999123100000010000000000000BRCPREACNOR5100
012013081396CPRE3F      020CPFL RENOVAVON      NM   R$  000000000118600000000011860000000001130000000000117400000000011810000000001190000000000120000004000000000000000138000000000000162109000000000000009999123100000010000000000000BRCPREACNOR5100
012013081302CRDE3       010CR2         ON      NM   R$  000000000040400000000004200000000000404000000000041700000000004200000000000410000000000042000005000000000000007900000000000003301400000000000000009999123100000010000000000000BRCRDEACNOR1108
012013081396CRDE3F      020CR2         ON      NM   R$  000000000041500000000004150000000000415000000000041500000000004150000000000384000000000044000001000000000000000058000000000000024070000000000000009999123100000010000000000000BRCRDEACNOR1108
012013081302CREM3       010CREMER      ON      NM   R$  000000000146700000000014680000000001460000000000146300000000014600000000001400000000000146000003000000000000000400000000000000585500000000000000009999123100000010000000000000BRCREMACNOR2166
012013081302CRUZ3       010SOUZA CRUZ  ON           R$  000000000261000000000026780000000002607000000000265000000000026520000000002650000000000265205638000000000001061400000000002812869400000000000000009999123100000010000000000000BRCRUZACNOR0246
012013081396CRUZ3F      020SOUZA CRUZ  ON           R$  000000000264000000000026990000000002610000000000265300000000026500000000002650000000000270000080000000000000001816000000000004819460000000000000009999123100000010000000000000BRCRUZACNOR0246
012013081378CRUZH30     070CRUZ        ON        000R$  000000000000100000000000010000000000001000000000000100000000000010000000000000000000000000000001000000000000700000000000000000700000000000000300002013081900000010000000000000BRCRUZACNOR0246
012013081378CRUZH58     070CRUZ        ON        000R$  000000000000200000000000020000000000002000000000000200000000000020000000000000000000000000000001000000000000700000000000000001400000000000000285002013081900000010000000000000BRCRUZACNOR0246
012013081378CRUZI27     070CRUZ        ON        000R$  000000000003200000000000510000000000032000000000003200000000000510000000000000000000000000000002000000000000010100000000000000325100000000000270002013091600000010000000000000BRCRUZACNOR0246
012013081378CRUZI28     070CRUZ        ON        000R$  000000000002900000000000290000000000029000000000002900000000000290000000000000000000000000000001000000000000000100000000000000002900000000000280002013091600000010000000000000BRCRUZACNOR0246
012013081378CRUZL34     070CRUZ        ON        000R$  000000000001000000000000100000000000010000000000001000000000000100000000000000000000000000000003000000000000006000000000000000060000000000000340002013121600000010000000000000BRCRUZACNOR0246
012013081378CRUZL57     070CRUZ        ON        000R$  000000000018100000000001810000000000181000000000018100000000001810000000000000000000000000000003000000000000006000000000000001086000000000000275002013121600000010000000000000BRCRUZACNOR0246
012013081302CSAN3       010COSAN       ON      NM   R$  000000000412200000000041940000000004094000000000414400000000041590000000004138000000000415905007000000000000985500000000004084747200000000000000009999123100000010000000000000BRCSANACNOR6108
012013081396CSAN3F      020COSAN       ON      NM   R$  000000000414500000000042040000000004097000000000414200000000041510000000004132000000000415100052000000000000001478000000000006123210000000000000009999123100000010000000000000BRCSANACNOR6108
012013081362CSAN3T      030COSAN       ON      NM030R$  000000000415800000000041720000000004158000000000416200000000041720000000000000000000000000000004000000000000001100000000000004578274000000000000009999123100000010000000000000BRCSANACNOR6108
012013081302CSCO11B     010CISCO       DRN     MB   R$  000000000611900000000061190000000006119000000000611900000000061190000000000000000000000000000001000000000000020000000000000122380000000000000000009999123100000010000000000000BRCSCOBDR004110
012013081302CSMG3       010COPASA      ON      NM   R$  000000000318500000000032020000000003133000000000316300000000031580000000003146000000000315802733000000000000337100000000001066477300000000000000009999123100000010000000000000BRCSMGACNOR5127
012013081396CSMG3F      020COPASA      ON      NM   R$  000000000319300000000032100000000003130000000000315800000000031400000000003129000000000330000024000000000000000661000000000002087489000000000000009999123100000010000000000000BRCSMGACNOR5127
012013081362CSMG3T      030COPASA      ON      NM016R$  000000000316000000000031610000000003160000000000316000000000031610000000000000000000000000000002000000000000000500000000000001580266000000000000009999123100000010000000000000BRCSMGACNOR5127
012013081314CSMO11      010ISHARES CSMOCI           R$  000000000466800000000046810000000004668000000000467700000000046810000000003800000000000490000002000000000000000040000000000000187110000000000000009999123100000010000000000000BRCSMOCTF002100
012013081302CSNA3       010SID NACIONALON  EDJ      R$  000000000074500000000007580000000000730000000000074300000000007490000000000748000000000074917140000000000010777400000000008011884100000000000000009999123100000010000000000000BRCSNAACNOR6243
012013081396CSNA3F      020SID NACIONALON  EDJ      R$  000000000074000000000007550000000000734000000000074500000000007500000000000735000000000075000077000000000000002120000000000001580154000000000000009999123100000010000000000000BRCSNAACNOR6243
012013081362CSNA3T      030SID NACIONALON  EDJ   030R$  000000000074900000000007550000000000741000000000074900000000007420000000000000000000000000000006000000000000007000000000000005243152000000000000009999123100000010000000000000BRCSNAACNOR6243
012013081362CSNA3T      030SID NACIONALON  EDJ   045R$  000000000074700000000007490000000000747000000000074800000000007490000000000000000000000000000004000000000000065000000000000048625019000000000000009999123100000010000000000000BRCSNAACNOR6243
012013081362CSNA3T      030SID NACIONALON  EDJ   066R$  000000000075900000000007600000000000759000000000075900000000007600000000000000000000000000000002000000000000010000000000000007592948000000000000009999123100000010000000000000BRCSNAACNOR6243
012013081362CSNA3T      030SID NACIONALON  EDJ   090R$  000000000076400000000007650000000000764000000000076400000000007650000000000000000000000000000002000000000000000500000000000000382250000000000000009999123100000010000000000000BRCSNAACNOR6243
012013081362CSNA3T      030SID NACIONALON  EDJ   120R$  000000000076500000000007660000000000765000000000076500000000007660000000000000000000000000000002000000000000010000000000000007654875000000000000009999123100000010000000000000BRCSNAACNOR6243
012013081378CSNAH58     070CSNA    /EDJON        000R$  000000000018700000000001870000000000187000000000018700000000001870000000000000000000000000000001000000000000004000000000000000748000000000000056002013081900000010000000000000BRCSNAACNOR6242
012013081378CSNAH6      070CSNA    /EDJON        000R$  000000000016500000000001650000000000160000000000016300000000001600000000000000000000000020000003000000000000008100000000000001321000000000000058002013081900000010000000000000BRCSNAACNOR6242
012013081378CSNAH66     070CSNA    /EDJON        000R$  000000000010400000000001040000000000104000000000010400000000001040000000000000000000000000000001000000000000004000000000000000416000000000000064002013081900000010000000000000BRCSNAACNOR6242
012013081378CSNAH68     070CSNA    /EDJON        000R$  000000000008000000000000800000000000080000000000008000000000000800000000000000000000000000000003000000000000021000000000000001680000000000000066002013081900000010000000000000BRCSNAACNOR6242
012013081378CSNAH7      070CSNA    /EDJON        000R$  000000000007600000000000760000000000065000000000006600000000000700000000000063000000000000000005000000000000005400000000000000361200000000000068002013081900000010000000000000BRCSNAACNOR6242
012013081378CSNAH72     070CSNA    /EDJON        000R$  000000000003700000000000530000000000037000000000003800000000000530000000000000000000000006500006000000000000023500000000000000909500000000000070002013081900000010000000000000BRCSNAACNOR6242
012013081378CSNAH76     070CSNA    /EDJON        000R$  000000000002000000000000200000000000015000000000001600000000000150000000000000000000000000000002000000000000004300000000000000069500000000000074002013081900000010000000000000BRCSNAACNOR6242
012013081378CSNAH78     070CSNA    /EDJON        000R$  000000000000800000000000080000000000008000000000000800000000000080000000000011000000000001800001000000000000011000000000000000088000000000000076002013081900000010000000000000BRCSNAACNOR6242
012013081378CSNAH8      070CSNA    /EDJON        000R$  000000000000500000000000050000000000005000000000000500000000000050000000000000000000000000700001000000000000001700000000000000008500000000000078002013081900000010000000000000BRCSNAACNOR6242
012013081378CSNAI6      070CSNA    /EDJON        000R$  000000000016300000000001680000000000163000000000016400000000001680000000000000000000000000000002000000000000006700000000000001100600000000000058002013091600000010000000000000BRCSNAACNOR6242
012013081378CSNAI7      070CSNA  FM/EDJON        000R$  000000000009000000000000920000000000078000000000008300000000000900000000000085000000000000000023000000000000046400000000000003868200000000000068002013091600000010000000000000BRCSNAACNOR6242
012013081378CSNAI72     070CSNA  FM/EDJON        000R$  000000000007400000000000740000000000062000000000006400000000000640000000000000000000000000000008000000000000034500000000000002221000000000000070002013091600000010000000000000BRCSNAACNOR6242
012013081378CSNAI74     070CSNA  FM/EDJON        000R$  000000000005200000000000520000000000052000000000005200000000000520000000000000000000000000000001000000000000000500000000000000026000000000000072002013091600000010000000000000BRCSNAACNOR6242
012013081378CSNAI76     070CSNA  FM/EDJON        000R$  000000000004600000000000500000000000044000000000004700000000000500000000000000000000000000000009000000000000023700000000000001120200000000000074002013091600000010000000000000BRCSNAACNOR6242
012013081378CSNAI78     070CSNA  FM/EDJON        000R$  000000000003300000000000340000000000033000000000003300000000000340000000000000000000000000000003000000000000008600000000000000286400000000000076002013091600000010000000000000BRCSNAACNOR6242
012013081378CSNAI8      070CSNA    /EDJON        000R$  000000000002800000000000310000000000025000000000002600000000000310000000000028000000000003200011000000000000040000000000000001041500000000000078002013091600000010000000000000BRCSNAACNOR6242
012013081378CSNAI82     070CSNA    /EDJON        000R$  000000000002100000000000220000000000020000000000002000000000000220000000000000000000000000000006000000000000019300000000000000396000000000000080002013091600000010000000000000BRCSNAACNOR6242
012013081378CSNAI84     070CSNA    /EDJON        000R$  000000000001000000000000100000000000010000000000001000000000000100000000000000000000000000000002000000000000010000000000000000100000000000000084002013091600000010000000000000BRCSNAACNOR6243
012013081378CSNAJ7      070CSNA  FM/EDJON        000R$  000000000010700000000001120000000000099000000000010500000000001060000000000000000000000000000015000000000000029100000000000003060000000000000068002013102100000010000000000000BRCSNAACNOR6242
012013081378CSNAJ72     070CSNA  FM/EDJON        000R$  000000000009200000000000940000000000088000000000009100000000000890000000000000000000000000000012000000000000017800000000000001623200000000000070002013102100000010000000000000BRCSNAACNOR6242
012013081378CSNAJ74     070CSNA  FM/EDJON        000R$  000000000006700000000000670000000000061000000000006400000000000610000000000000000000000000000002000000000000007000000000000000448000000000000074002013102100000010000000000000BRCSNAACNOR6243
012013081378CSNAJ78     070CSNA  FM/EDJON        000R$  000000000005200000000000520000000000052000000000005200000000000520000000000000000000000000000002000000000000005000000000000000260000000000000076002013102100000010000000000000BRCSNAACNOR6242
012013081378CSNAJ8      070CSNA    /EDJON        000R$  000000000005000000000000500000000000045000000000004600000000000450000000000005000000000000000003000000000000007000000000000000325000000000000078002013102100000010000000000000BRCSNAACNOR6242
012013081378CSNAJ82     070CSNA    /EDJON        000R$  000000000003600000000000410000000000036000000000003900000000000410000000000000000000000000000003000000000000001000000000000000039000000000000080002013102100000010000000000000BRCSNAACNOR6242
012013081378CSNAK7      070CSNA    /EDJON        000R$  000000000008900000000000950000000000081000000000009100000000000810000000000000000000000000000011000000000000003200000000000000292000000000000070002013111800000010000000000000BRCSNAACNOR6243
012013081382CSNAT7      080CSNAE   /EDJON        000R$  000000000000300000000000030000000000003000000000000300000000000030000000000000000000000004500001000000000000001000000000000000003000000000000068002013081900000010000000000000BRCSNAACNOR6242
012013081382CSNAU6      080CSNAE   /EDJON        000R$  000000000000500000000000050000000000005000000000000500000000000050000000000000000000000000000001000000000000019300000000000000096500000000000058002013091600000010000000000000BRCSNAACNOR6242
012013081382CSNAU68     080CSNAE FM/EDJON        000R$  000000000001600000000000160000000000016000000000001600000000000160000000000000000000000000000001000000000000002500000000000000040000000000000066002013091600000010000000000000BRCSNAACNOR6242
012013081382CSNAU7      080CSNAE FM/EDJON        000R$  000000000002200000000000220000000000018000000000001900000000000180000000000017000000000002900029000000000000039600000000000000763400000000000068002013091600000010000000000000BRCSNAACNOR6242
012013081382CSNAU72     080CSNAE FM/EDJON        000R$  000000000002900000000000290000000000026000000000002600000000000260000000000000000000000005000002000000000000002900000000000000076600000000000070002013091600000010000000000000BRCSNAACNOR6242
012013081382CSNAU74     080CSNAE FM/EDJON        000R$  000000000003200000000000360000000000032000000000003300000000000330000000000000000000000000000005000000000000008000000000000000271000000000000072002013091600000010000000000000BRCSNAACNOR6242
012013081382CSNAU78     080CSNAE   /EDJON        000R$  000000000004700000000000470000000000047000000000004700000000000470000000000000000000000000000002000000000000005300000000000000249100000000000076002013091600000010000000000000BRCSNAACNOR6242
