00COTAHIST.2013BOVESPA 20131030                                                                                                                                                                                                                      
012013103002AAPL34      010APPLE       DRN          R$  000000001133100000000113420000000011331000000001133600000000113420000000011400000000001154500002000000000000002800000000000031742200000000000000009999123100000010000000000000BRAAPLBDR004105
012013103002ABCB4       010ABC BRASIL  PN      N2   R$  000000000136100000000013620000000001335000000000134700000000013440000000001344000000000135400708000000000000114400000000000154175900000000000000009999123100000010000000000000BRABCBACNPR4120
012013103096ABCB4F      020ABC BRASIL  PN      N2   R$  000000000139400000000013940000000001335000000000134100000000013350000000001335000000000136400023000000000000000278000000000000372860000000000000009999123100000010000000000000BRABCBACNPR4120
012013103012ABCP11      010FII ABC IMOBCI           R$  000000000099000000000009900000000000990000000000099000000000009900000000000970000000000099000002000000000000000006000000000000005940000000000000009999123100000010000000000000BRABCPCTF000216
012013103002ABRE11      010ABRIL EDUCA UNT     N2   R$  000000000323800000000032400000000003173000000000320100000000032000000000003200000000000320100428000000000000073600000000000235656300000000000000009999123100000010000000000000BRABRECDAM15102
012013103096ABRE11F     020ABRIL EDUCA UNT     N2   R$  000000000318000000000031800000000003180000000000318000000000031800000000003106000000000318300001000000000000000001000000000000003180000000000000009999123100000010000000000000BRABRECDAM15102
012013103002AEDU3       010ANHANGUERA  ON      NM   R$  000000000129700000000013020000000001276000000000128800000000012900000000001290000000000129104147000000000016243800000000020932647100000000000000009999123100000010000000000000BRAEDUACNOR9107
012013103096AEDU3F      020ANHANGUERA  ON      NM   R$  000000000129000000000013250000000001251000000000128600000000012560000000001256000000000132400037000000000000000966000000000001243112000000000000009999123100000010000000000000BRAEDUACNOR9107
012013103062AEDU3T      030ANHANGUERA  ON      NM047R$  000000000130300000000013040000000001303000000000130300000000013040000000000000000000000000000002000000000000002000000000000002607864000000000000009999123100000010000000000000BRAEDUACNOR9107
012013103062AEDU3T      030ANHANGUERA  ON      NM120R$  000000000132100000000013230000000001321000000000132200000000013230000000000000000000000000000006000000000000158700000000000209867010000000000000009999123100000010000000000000BRAEDUACNOR9107
012013103012AEFI11      010FII AESAPAR CI           R$  000000001226000000000122600000000012200000000001222800000000122500000000012255000000001227000007000000000000000243000000000002971430000000000000009999123100000010000000000000BRAEFICTF002122
012013103002AELP3       010AES ELPA    ON           R$  000000000095600000000009740000000000928000000000096600000000009740000000000937000000000097700024000000000000014200000000000013727600000000000000009999123100000010000000000000BRAELPACNOR2119
012013103062AELP3T      030AES ELPA    ON        030R$  000000000098000000000009810000000000980000000000098000000000009810000000000000000000000000000002000000000000011000000000000010785413000000000000009999123100000010000000000000BRAELPACNOR2119
012013103012AGCX11      010FII AG CAIXACI           R$  000000009460000000000948000000000094021000000009452200000000948000000000094600000000009480000021000000000000000259000000000024481213000000000000009999123100000010000000000000BRAGCXCTF003111
012013103002AGRO3       010BRASILAGRO  ON      NM   R$  000000000100700000000010230000000001007000000000101800000000010230000000001017000000000102800010000000000000011300000000000011512800000000000000009999123100000010000000000000BRAGROACNOR7102
012013103002ALLL3       010ALL AMER LATON      NM   R$  000000000082400000000008280000000000818000000000082300000000008240000000000820000000000082404190000000000001934300000000001593043900000000000000009999123100000010000000000000BRALLLACNOR6118
012013103096ALLL3F      020ALL AMER LATON      NM   R$  000000000082300000000008300000000000819000000000082200000000008300000000000819000000000083700027000000000000000646000000000000531603000000000000009999123100000010000000000000BRALLLACNOR6118
012013103062ALLL3T      030ALL AMER LATON      NM023R$  000000000082800000000008290000000000828000000000082800000000008290000000000000000000000000000002000000000000013000000000000010774130000000000000009999123100000010000000000000BRALLLACNOR6118
012013103062ALLL3T      030ALL AMER LATON      NM362R$  000000000091400000000009150000000000914000000000091400000000009150000000000000000000000000000002000000000000000500000000000000457279000000000000009999123100000010000000000000BRALLLACNOR6118
012013103078ALLLA1      070ALLLE       ON      NM000R$  000000000004700000000000470000000000047000000000004700000000000470000000000000000000000000000002000000000000000400000000000000018800000000000085002014012000000010000000000000BRALLLACNOR6118
012013103012ALMI11B     010FII TORRE ALCI      MB   R$  000000032999900000003299990000000325102000000032559100000003251020000000325102000000033199700003000000000000000010000000000003255917000000000000009999123100000010000000000000BRALMICTF003206
012013103002ALPA3       010ALPARGATAS  ON      N1   R$  000000000128100000000012810000000001280000000000128000000000012800000000001265000000000128000003000000000000006400000000000008193000000000000000009999123100000010000000000000BRALPAACNOR0203
012013103096ALPA3F      020ALPARGATAS  ON      N1   R$  000000000128000000000012800000000001280000000000128000000000012800000000001209000000000137000002000000000000000064000000000000081920000000000000009999123100000010000000000000BRALPAACNOR0203
012013103002ALPA4       010ALPARGATAS  PN      N1   R$  000000000154000000000015500000000001520000000000154100000000015500000000001540000000000155001067000000000000214600000000000330876400000000000000009999123100000010000000000000BRALPAACNPR7203
012013103096ALPA4F      020ALPARGATAS  PN      N1   R$  000000000154500000000015480000000001530000000000153900000000015400000000001530000000000154000014000000000000000350000000000000538883000000000000009999123100000010000000000000BRALPAACNPR7203
012013103002ALSC3       010ALIANSCE    ON      NM   R$  000000000213000000000021730000000002116000000000213600000000021610000000002149000000000216101590000000000000333600000000000712856500000000000000009999123100000010000000000000BRALSCACNOR0104
012013103096ALSC3F      020ALIANSCE    ON      NM   R$  000000000213000000000021500000000002100000000000212500000000021000000000002100000000000225000007000000000000000198000000000000420813000000000000009999123100000010000000000000BRALSCACNOR0104
012013103002ALUP11      010ALUPAR      UNT     N2   R$  000000000169600000000016970000000001663000000000168000000000016790000000001670000000000167900432000000000000185700000000000311976300000000000000009999123100000010000000000000BRALUPCDAM15100
012013103096ALUP11F     020ALUPAR      UNT     N2   R$  000000000169600000000016960000000001661000000000167900000000016690000000001656000000000166900014000000000000000250000000000000419784000000000000009999123100000010000000000000BRALUPCDAM15100
012013103002AMAR3       010LOJAS MARISAON      NM   R$  000000000199300000000019930000000001893000000000192300000000019190000000001915000000000191905705000000000001639400000000003153116300000000000000009999123100000010000000000000BRAMARACNOR4109
012013103096AMAR3F      020LOJAS MARISAON      NM   R$  000000000199200000000019920000000001900000000000195000000000019300000000001919000000000194900029000000000000000855000000000001667543000000000000009999123100000010000000000000BRAMARACNOR4109
012013103062AMAR3T      030LOJAS MARISAON      NM020R$  000000000194700000000019480000000001947000000000194700000000019480000000000000000000000000000002000000000000000500000000000000973748000000000000009999123100000010000000000000BRAMARACNOR4109
012013103062AMAR3T      030LOJAS MARISAON      NM030R$  000000000195900000000019600000000001933000000000194600000000019340000000000000000000000000000004000000000000020000000000000038932490000000000000009999123100000010000000000000BRAMARACNOR4109
012013103002AMBV3       010AMBEV       ON           R$  000000000844900000000085100000000008371000000000841500000000084130000000008400000000000841301366000000000000240200000000002021312100000000000000009999123100000010000000000000BRAMBVACNOR4154
012013103096AMBV3F      020AMBEV       ON           R$  000000000840500000000085000000000008380000000000842400000000083850000000008385000000000850400031000000000000000881000000000007421018000000000000009999123100000010000000000000BRAMBVACNOR4154
012013103062AMBV3T      030AMBEV       ON        030R$  000000000844900000000084500000000008449000000000844900000000084500000000000000000000000000000002000000000000003000000000000025348707000000000000009999123100000010000000000000BRAMBVACNOR4154
012013103002AMBV4       010AMBEV       PN           R$  000000000845200000000085130000000008371000000000841400000000084190000000008395000000000842008028000000000001887900000000015885889500000000000000009999123100000010000000000000BRAMBVACNPR1154
012013103096AMBV4F      020AMBEV       PN           R$  000000000845900000000085800000000008374000000000842200000000084990000000008400000000000849900246000000000000006782000000000057121373000000000000009999123100000010000000000000BRAMBVACNPR1154
012013103062AMBV4T      030AMBEV       PN        030R$  000000000846000000000084670000000008460000000000846100000000084670000000000000000000000000000004000000000000000600000000000005077076000000000000009999123100000010000000000000BRAMBVACNPR1154
012013103062AMBV4T      030AMBEV       PN        061R$  000000000851200000000085130000000008512000000000851200000000085130000000000000000000000000000002000000000000000400000000000003404809000000000000009999123100000010000000000000BRAMBVACNPR1154
012013103062AMBV4T      030AMBEV       PN        090R$  000000000856700000000085970000000008567000000000858200000000085970000000000000000000000000000004000000000000003100000000000026606193000000000000009999123100000010000000000000BRAMBVACNPR1154
012013103078AMBVK7      070AMBV        PN        000R$  000000000006200000000000620000000000062000000000006200000000000620000000000000000000000000000001000000000000300000000000000018600000000000000870002013111800000010000000000000BRAMBVACNPR1154
012013103078AMBVK8      070AMBVE       PN        000R$  000000000007200000000000720000000000071000000000007100000000000710000000000000000000000000000005000000000000250000000000000017950000000000000875002013111800000010000000000000BRAMBVACNPR1154
012013103078AMBVK87     070AMBV        PN        000R$  000000000005100000000000580000000000051000000000005400000000000580000000000040000000000016500002000000000000000400000000000000021800000000000863502013111800000010000000000000BRAMBVACNPR1153
012013103078AMBVK88     070AMBV        PN        000R$  000000000003000000000000310000000000030000000000003000000000000310000000000021000000000000000002000000000000003200000000000000099000000000000880002013111800000010000000000000BRAMBVACNPR1154
012013103002ANIM3       010ANIMA       ON      NM   R$  000000000188000000000018800000000001851000000000186000000000018510000000001850000000000185101017000000000000510700000000000949943300000000000000009999123100000010000000000000BRANIMACNOR6100
012013103096ANIM3F      020ANIMA       ON      NM   R$  000000000186100000000018680000000001852000000000186100000000018640000000001850000000000186400009000000000000000244000000000000454140000000000000009999123100000010000000000000BRANIMACNOR6100
012013103002ARTR3       010ARTERIS     ON      NM   R$  000000000204100000000020430000000002002000000000201100000000020200000000002020000000000202901694000000000000741700000000001492050800000000000000009999123100000010000000000000BRARTRACNOR3101
012013103096ARTR3F      020ARTERIS     ON      NM   R$  000000000204000000000020400000000002001000000000201800000000020010000000002001000000000219800015000000000000000410000000000000827675000000000000009999123100000010000000000000BRARTRACNOR3101
012013103002ARZZ3       010AREZZO CO   ON      NM   R$  000000000335200000000034050000000003332000000000337000000000033330000000003332000000000337100821000000000000181700000000000612438700000000000000009999123100000010000000000000BRARZZACNOR3109
012013103096ARZZ3F      020AREZZO CO   ON      NM   R$  000000000334000000000033460000000003311000000000332800000000033110000000003310000000000350000008000000000000000122000000000000406102000000000000009999123100000010000000000000BRARZZACNOR3109
012013103002AUTM3       010AUTOMETAL   ON      NM   R$  000000000170100000000017250000000001697000000000170100000000017100000000001705000000000171200283000000000000407100000000000692594200000000000000009999123100000010000000000000BRAUTMACNOR8109
012013103096AUTM3F      020AUTOMETAL   ON      NM   R$  000000000170500000000017060000000001700000000000170500000000017000000000001600000000000189900005000000000000000081000000000000138115000000000000009999123100000010000000000000BRAUTMACNOR8109
012013103062AUTM3T      030AUTOMETAL   ON      NM362R$  000000000188400000000018850000000001884000000000188400000000018850000000000000000000000000000002000000000000000100000000000000188461000000000000009999123100000010000000000000BRAUTMACNOR8109
012013103002BAUH4       010EXCELSIOR   PN           R$  000000000107000000000010800000000001070000000000107600000000010800000000000976000000000108000004000000000000000800000000000000861000000000000000009999123100000010000000000000BRBAUHACNPR3108
012013103002BAZA3       010AMAZONIA    ON           R$  000000000003300000000000330000000000033000000000003300000000000330000000000032000000000003300008000000000000021000000000000000693000000000000000009999123100000010000000000000BRBAZAACNOR0163
012013103002BBAS3       010BRASIL      ON      NM   R$  000000000287000000000029290000000002868000000000290300000000029260000000002925000000000292612073000000000005480900000000015916908900000000000000009999123100000010000000000000BRBBASACNOR3239
012013103096BBAS3F      020BRASIL      ON      NM   R$  000000000288000000000029260000000002797000000000289500000000029120000000002912000000000292500320000000000000011035000000000031955639000000000000009999123100000010000000000000BRBBASACNOR3239
012013103062BBAS3S      030BRASIL      ON      NM090R$  000000000294400000000029450000000002944000000000294400000000029450000000000000000000000000000002000000000000001000000000000002944449000000000000009999123100000010000000000000BRBBASACNOR3239
012013103062BBAS3T      030BRASIL      ON      NM090R$  000000000293500000000029980000000002935000000000294200000000029980000000000000000000000000000004000000000000002800000000000008238285000000000000009999123100000010000000000000BRBBASACNOR3239
012013103062BBAS3T      030BRASIL      ON      NM120R$  000000000301100000000030120000000003011000000000301100000000030120000000000000000000000000000002000000000000002000000000000006023464000000000000009999123100000010000000000000BRBBASACNOR3239
012013103062BBAS3T      030BRASIL      ON      NM070R$  000000000295500000000029560000000002955000000000295500000000029560000000000000000000000000000002000000000000004000000000000011823350000000000000009999123100000010000000000000BRBBASACNOR3239
012013103078BBASA28     070BBAS        ON      NM000R$  000000000020000000000002000000000000200000000000020000000000002000000000000034000000000000000001000000000000000700000000000000140000000000000280002014012000000010000000000000BRBBASACNOR3239
012013103078BBASA29     070BBAS        ON      NM000R$  000000000015600000000001600000000000156000000000015600000000001600000000000016000000000000000004000000000000011800000000000001846900000000000290002014012000000010000000000000BRBBASACNOR3239
012013103078BBASA31     070BBAS        ON      NM000R$  000000000006400000000000680000000000061000000000006300000000000680000000000016000000000000000013000000000000009000000000000000574500000000000310002014012000000010000000000000BRBBASACNOR3239
012013103078BBASA32     070BBAS        ON      NM000R$  000000000004200000000000420000000000042000000000004200000000000420000000000007000000000004100001000000000000000100000000000000004200000000000320002014012000000010000000000000BRBBASACNOR3239
012013103078BBASA33     070BBAS        ON      NM000R$  000000000002600000000000260000000000026000000000002600000000000260000000000005000000000000000001000000000000000100000000000000002600000000000330002014012000000010000000000000BRBBASACNOR3239
012013103078BBASB28     070BBAS        ON      NM000R$  000000000025000000000002500000000000250000000000025000000000002500000000000000000000000000000001000000000000002000000000000000500000000000000280002014021700000010000000000000BRBBASACNOR3239
012013103078BBASK1      070BBAS  FM    ON      NM000R$  000000000000900000000000090000000000007000000000000800000000000070000000000007000000000000000011000000000000011500000000000000100500000000000310002013111800000010000000000000BRBBASACNOR3239
012013103078BBASK21     070BBAS        ON      NM000R$  000000000095900000000009590000000000900000000000092900000000009000000000000000000000000000000003000000000000004800000000000004459300000000000197102013111800000010000000000000BRBBASACNOR3236
012013103078BBASK24     070BBAS        ON      NM000R$  000000000061500000000006150000000000615000000000061500000000006150000000000010000000000000000001000000000000002500000000000001537500000000000229502013111800000010000000000000BRBBASACNOR3237
012013103078BBASK25     070BBAS        ON      NM000R$  000000000054000000000005420000000000535000000000053800000000005420000000000090000000000000000003000000000000020000000000000010776600000000000237102013111800000010000000000000BRBBASACNOR3236
012013103078BBASK27     070BBAS        ON      NM000R$  000000000035200000000003620000000000342000000000035600000000003550000000000220000000000037800018000000000000011600000000000004139000000000000257102013111800000010000000000000BRBBASACNOR3236
012013103078BBASK28     070BBAS  FM    ON      NM000R$  000000000022300000000002700000000000220000000000024900000000002700000000000260000000000000000158000000000000128700000000000032063600000000000267102013111800000010000000000000BRBBASACNOR3236
012013103078BBASK29     070BBAS  FM    ON      NM000R$  000000000011700000000001560000000000116000000000014000000000001490000000000151000000000016000081000000000000084500000000000011911700000000000279502013111800000010000000000000BRBBASACNOR3237
012013103078BBASK30     070BBAS  FM    ON      NM000R$  000000000005200000000000800000000000052000000000006400000000000800000000000051000000000008900063000000000000098100000000000006319600000000000289502013111800000010000000000000BRBBASACNOR3237
012013103078BBASK31     070BBAS  FM    ON      NM000R$  000000000002000000000000320000000000020000000000002600000000000310000000000024000000000003900070000000000000201000000000000005296300000000000299502013111800000010000000000000BRBBASACNOR3237
012013103078BBASK32     070BBAS        ON      NM000R$  000000000000400000000000050000000000004000000000000400000000000050000000000004000000000001000009000000000000022200000000000000096100000000000320002013111800000010000000000000BRBBASACNOR3239
012013103078BBASK57     070BBAS        ON      NM000R$  000000000018300000000001830000000000183000000000018300000000001830000000000000000000000000000001000000000000004000000000000000732000000000000275002013111800000010000000000000BRBBASACNOR3239
012013103078BBASK58     070BBAS        ON      NM000R$  000000000010200000000001020000000000102000000000010200000000001020000000000000000000000000000001000000000000001000000000000000102000000000000285002013111800000010000000000000BRBBASACNOR3239
012013103078BBASL26     070BBAS        ON      NM000R$  000000000045000000000004600000000000450000000000045400000000004600000000000438000000000000000004000000000000025000000000000011350000000000000246102013121600000010000000000000BRBBASACNOR3235
012013103078BBASL28     070BBAS  FM    ON      NM000R$  000000000023500000000002760000000000234000000000025500000000002740000000000145000000000000000065000000000000066700000000000017034900000000000269502013121600000010000000000000BRBBASACNOR3237
012013103078BBASL29     070BBAS  FM    ON      NM000R$  000000000018100000000002190000000000181000000000020400000000002190000000000034000000000025600056000000000000047100000000000009644200000000000276102013121600000010000000000000BRBBASACNOR3235
012013103078BBASL30     070BBAS  FM    ON      NM000R$  000000000005500000000000690000000000050000000000006200000000000690000000000068000000000007000046000000000000057500000000000003590900000000000300002013121600000010000000000000BRBBASACNOR3239
012013103078BBASL31     070BBAS  FM    ON      NM000R$  000000000002700000000000350000000000027000000000003300000000000340000000000024000000000004000018000000000000033900000000000001126700000000000310002013121600000010000000000000BRBBASACNOR3239
012013103078BBASL32     070BBAS        ON      NM000R$  000000000001400000000000140000000000014000000000001400000000000140000000000011000000000002000001000000000000001000000000000000014000000000000320002013121600000010000000000000BRBBASACNOR3239
012013103078BBASL33     070BBAS        ON      NM000R$  000000000000500000000000090000000000005000000000000800000000000090000000000003000000000000000018000000000000015400000000000000128800000000000330002013121600000010000000000000BRBBASACNOR3239
012013103078BBASL65     070BBAS        ON      NM000R$  000000000004200000000000420000000000042000000000004200000000000420000000000000000000000000000002000000000000005000000000000000210000000000000305002013121600000010000000000000BRBBASACNOR3239
012013103078BBASL79     070BBAS  FM    ON      NM000R$  000000000009600000000001160000000000096000000000010700000000001150000000000110000000000000000008000000000000016500000000000001779100000000000290002013121600000010000000000000BRBBASACNOR3239
012013103082BBASW27     080BBASE FM    ON      NM000R$  000000000000200000000000020000000000002000000000000200000000000020000000000001000000000000300007000000000000018700000000000000037400000000000257102013111800000010000000000000BRBBASACNOR3236
012013103082BBASW28     080BBASE FM    ON      NM000R$  000000000000800000000000080000000000004000000000000600000000000040000000000004000000000000500010000000000000029000000000000000190300000000000267102013111800000010000000000000BRBBASACNOR3236
012013103082BBASW29     080BBASE FM    ON      NM000R$  000000000002900000000000290000000000016000000000001800000000000170000000000014000000000002700100000000000000187900000000000003534300000000000279502013111800000010000000000000BRBBASACNOR3237
012013103082BBASW30     080BBASE FM    ON      NM000R$  000000000006800000000000680000000000043000000000004900000000000430000000000038000000000005500063000000000000116700000000000005755900000000000289502013111800000010000000000000BRBBASACNOR3237
012013103082BBASW31     080BBASE       ON      NM000R$  000000000009700000000001000000000000095000000000009700000000000950000000000000000000000000000008000000000000014300000000000001400700000000000299502013111800000010000000000000BRBBASACNOR3237
012013103082BBASW57     080BBASE       ON      NM000R$  000000000001700000000000170000000000010000000000001400000000000100000000000000000000000000000016000000000000056000000000000000830000000000000275002013111800000010000000000000BRBBASACNOR3239
012013103082BBASW58     080BBASE       ON      NM000R$  000000000003000000000000300000000000030000000000003000000000000300000000000000000000000000000002000000000000006500000000000000195000000000000285002013111800000010000000000000BRBBASACNOR3239
012013103082BBASX25     080BBASE       ON      NM000R$  000000000000400000000000040000000000001000000000000100000000000010000000000000000000000002400006000000000000049300000000000000090200000000000236102013121600000010000000000000BRBBASACNOR3235
012013103082BBASX26     080BBASE       ON      NM000R$  000000000000600000000000060000000000005000000000000500000000000050000000000005000000000001000004000000000000001300000000000000007000000000000246102013121600000010000000000000BRBBASACNOR3235
012013103082BBASX27     080BBASE FM    ON      NM000R$  000000000001000000000000150000000000010000000000001100000000000110000000000010000000000001400006000000000000010500000000000000117200000000000259502013121600000010000000000000BRBBASACNOR3237
012013103082BBASX28     080BBASE FM    ON      NM000R$  000000000002700000000000270000000000021000000000002600000000000210000000000018000000000003300031000000000000054700000000000001456600000000000269502013121600000010000000000000BRBBASACNOR3237
012013103082BBASX29     080BBASE FM    ON      NM000R$  000000000004100000000000410000000000034000000000003800000000000340000000000030000000000004600014000000000000002000000000000000076000000000000276102013121600000010000000000000BRBBASACNOR3235
012013103082BBASX30     080BBASE       ON      NM000R$  000000000012200000000001220000000000119000000000012100000000001200000000000000000000000000000004000000000000005900000000000000715500000000000300002013121600000010000000000000BRBBASACNOR3239
012013103082BBASX59     080BBASE       ON      NM000R$  000000000009600000000000960000000000091000000000009200000000000910000000000000000000000000000002000000000000005800000000000000537800000000000295002013121600000010000000000000BRBBASACNOR3239
012013103082BBASX60     080BBASE       ON      NM000R$  000000000007500000000000750000000000057000000000006800000000000570000000000000000000000000000046000000000000154000000000000010545700000000000286202013121600000010000000000000BRBBASACNOR3233
012013103082BBASX65     080BBASE       ON      NM000R$  000000000016500000000001650000000000165000000000016500000000001650000000000000000000000000000001000000000000000200000000000000033000000000000305002013121600000010000000000000BRBBASACNOR3239
012013103082BBASX79     080BBASE FM    ON      NM000R$  000000000009400000000000940000000000071000000000007600000000000710000000000000000000000008600032000000000000072400000000000005559100000000000290002013121600000010000000000000BRBBASACNOR3239
012013103002BBDC3       010BRADESCO    ON      N1   R$  000000000359600000000036370000000003556000000000358100000000035890000000003557000000000358902929000000000000975800000000003494528900000000000000009999123100000010000000000000BRBBDCACNOR1607
012013103096BBDC3F      020BRADESCO    ON      N1   R$  000000000360000000000036670000000003551000000000358100000000035520000000003552000000000357200060000000000000001040000000000003723939000000000000009999123100000010000000000000BRBBDCACNOR1607
012013103002BBDC4       010BRADESCO    PN      N1   R$  000000000325700000000032670000000003219000000000323800000000032360000000003235000000000323610658000000000004524800000000014653525600000000000000009999123100000010000000000000BRBBDCACNPR8607
012013103096BBDC4F      020BRADESCO    PN      N1   R$  000000000326500000000032650000000003220000000000324200000000032500000000003230000000000325000389000000000000006125000000000019857691000000000000009999123100000010000000000000BRBBDCACNPR8607
012013103062BBDC4T      030BRADESCO    PN      N1061R$  000000000330400000000033050000000003304000000000330400000000033050000000000000000000000000000002000000000000000200000000000000660845000000000000009999123100000010000000000000BRBBDCACNPR8607
012013103078BBDCA32     070BBDC        PN      N1000R$  000000000017200000000001720000000000171000000000017100000000001720000000000000000000000000000006000000000000002900000000000000497700000000000319802014012000000010000000000000BRBBDCACNPR8606
012013103078BBDCA33     070BBDC        PN      N1000R$  000000000012700000000001270000000000122000000000012400000000001220000000000000000000000000000002000000000000006300000000000000786100000000000329802014012000000010000000000000BRBBDCACNPR8606
012013103078BBDCK30     070BBDC        PN      N1000R$  000000000024600000000002620000000000240000000000024600000000002400000000000240000000000032000020000000000000052300000000000012881000000000000299602013111800000010000000000000BRBBDCACNPR8605
012013103078BBDCK31     070BBDC        PN      N1000R$  000000000017000000000001700000000000163000000000016600000000001630000000000142000000000018900002000000000000006000000000000000999000000000000309602013111800000010000000000000BRBBDCACNPR8605
012013103078BBDCK32     070BBDC  FM    PN      N1000R$  000000000011800000000001190000000000095000000000010700000000000970000000000095000000000011300104000000000000125100000000000013460200000000000317202013111800000010000000000000BRBBDCACNPR8601
012013103078BBDCK33     070BBDC  FM    PN      N1000R$  000000000005200000000000540000000000040000000000004700000000000470000000000040000000000004800051000000000000086600000000000004121000000000000327402013111800000010000000000000BRBBDCACNPR8602
012013103078BBDCK34     070BBDC  FM    PN      N1000R$  000000000001700000000000170000000000011000000000001300000000000110000000000001000000000001500018000000000000016300000000000000217800000000000339402013111800000010000000000000BRBBDCACNPR8604
012013103078BBDCL1      070BBDC        PN      N1000R$  000000000023000000000002300000000000230000000000023000000000002300000000000000000000000000000001000000000000000100000000000000023000000000000307002013121600000010000000000000BRBBDCACNPR8600
012013103078BBDCL3      070BBDC  FM    PN      N1000R$  000000000008900000000001040000000000089000000000009900000000000900000000000000000000000011500017000000000000046500000000000004611300000000000327002013121600000010000000000000BRBBDCACNPR8601
012013103078BBDCL32     070BBDC  FM    PN      N1000R$  000000000015500000000001660000000000142000000000014900000000001510000000000140000000000000000060000000000000058800000000000008780400000000000317002013121600000010000000000000BRBBDCACNPR8600
012013103078BBDCL34     070BBDC  FM    PN      N1000R$  000000000005400000000000590000000000051000000000005400000000000510000000000011000000000008200007000000000000010300000000000000556500000000000337002013121600000010000000000000BRBBDCACNPR8600
012013103078BBDCL36     070BBDC        PN      N1000R$  000000000012300000000001230000000000108000000000011300000000001080000000000000000000000014900002000000000000006000000000000000678000000000000323902013121600000010000000000000BRBBDCACNPR8597
012013103078BBDCL5      070BBDC  FM    PN      N1000R$  000000000002000000000000200000000000020000000000002000000000000200000000000013000000000000000001000000000000002400000000000000048000000000000349802013121600000010000000000000BRBBDCACNPR8606
012013103078BBDCL6      070BBDC  FM    PN      N1000R$  000000000001200000000000120000000000012000000000001200000000000120000000000000000000000000000001000000000000001400000000000000016800000000000357202013121600000010000000000000BRBBDCACNPR8601
012013103082BBDCM30     080BBDCE       PN      N1000R$  000000000003500000000000350000000000035000000000003500000000000350000000000013000000000000000001000000000000001200000000000000042000000000000299802014012000000010000000000000BRBBDCACNPR8606
012013103082BBDCM31     080BBDCE       PN      N1000R$  000000000006000000000000600000000000060000000000006000000000000600000000000000000000000000000033000000000000015000000000000000900000000000000309602014012000000010000000000000BRBBDCACNPR8605
012013103082BBDCN30     080BBDCE       PN      N1000R$  000000000005000000000000500000000000050000000000005000000000000500000000000000000000000005500013000000000000050000000000000002500000000000000300002014021700000010000000000000BRBBDCACNPR8607
012013103082BBDCN32     080BBDCE       PN      N1000R$  000000000003000000000000300000000000030000000000003000000000000300000000000030000000000000000001000000000000001200000000000000036000000000000287702014021700000010000000000000BRBBDCACNPR8598
012013103082BBDCW31     080BBDCE FM    PN      N1000R$  000000000001500000000000150000000000013000000000001300000000000130000000000000000000000000000003000000000000003100000000000000040700000000000309602013111800000010000000000000BRBBDCACNPR8605
012013103082BBDCW32     080BBDCE FM    PN      N1000R$  000000000003100000000000350000000000029000000000003000000000000350000000000000000000000004300016000000000000028300000000000000849900000000000317202013111800000010000000000000BRBBDCACNPR8601
012013103082BBDCW33     080BBDCE FM    PN      N1000R$  000000000007300000000000800000000000064000000000007200000000000750000000000000000000000012300030000000000000045900000000000003339000000000000327402013111800000010000000000000BRBBDCACNPR8602
012013103082BBDCW34     080BBDCE FM    PN      N1000R$  000000000015800000000001710000000000145000000000015800000000001610000000000000000000000000000089000000000000128100000000000020267300000000000339402013111800000010000000000000BRBBDCACNPR8604
012013103082BBDCX1      080BBDCE FM    PN      N1000R$  000000000003100000000000350000000000031000000000003100000000000350000000000000000000000000000007000000000000012000000000000000380000000000000307002013121600000010000000000000BRBBDCACNPR8600
012013103082BBDCX3      080BBDCE FM    PN      N1000R$  000000000010000000000001030000000000092000000000009900000000001020000000000000000000000000000006000000000000012000000000000001194000000000000327002013121600000010000000000000BRBBDCACNPR8601
012013103082BBDCX32     080BBDCE FM    PN      N1000R$  000000000006000000000000630000000000058000000000006000000000000600000000000000000000000000000012000000000000021800000000000001326400000000000317002013121600000010000000000000BRBBDCACNPR8600
012013103082BBDCX34     080BBDCE FM    PN      N1000R$  000000000015700000000001640000000000147000000000015600000000001550000000000000000000000000000017000000000000034600000000000005421000000000000337002013121600000010000000000000BRBBDCACNPR8600
012013103082BBDCX36     080BBDCE       PN      N1000R$  000000000008800000000000880000000000088000000000008800000000000880000000000000000000000000000001000000000000001000000000000000088000000000000323902013121600000010000000000000BRBBDCACNPR8597
012013103012BBFI11B     010FII BB PROGRCI      MB   R$  000000041900000000004215000000000418116000000041983400000004205000000000420500000000042150000008000000000000000016000000000006717348000000000000009999123100000010000000000000BRBBFICTF006199
012013103012BBPO11      010FII BB PRGIICI           R$  000000001122500000000112560000000011200000000001122800000000112200000000011220000000001127500104000000000000009364000000000105145257000000000000009999123100000010000000000000BRBBPOCTF003111
012013103012BBRC11      010FII BB CORP CI           R$  000000000855000000000086000000000008550000000000855600000000085500000000008512000000000855000013000000000000001556000000000013313650000000000000009999123100000010000000000000BRBBRCCTF004125
012013103002BBRK3       010BR BROKERS  ON      NM   R$  000000000058800000000005900000000000575000000000058000000000005830000000000580000000000058302246000000000000457700000000000265849800000000000000009999123100000010000000000000BRBBRKACNOR4108
012013103096BBRK3F      020BR BROKERS  ON      NM   R$  000000000058700000000005870000000000541000000000056700000000005410000000000541000000000060000012000000000000000321000000000000182318000000000000009999123100000010000000000000BRBBRKACNOR4108
012013103062BBRK3T      030BR BROKERS  ON      NM061R$  000000000059000000000005910000000000590000000000059000000000005910000000000000000000000000000002000000000000005600000000000003309392000000000000009999123100000010000000000000BRBBRKACNOR4108
012013103002BBSE3       010BBSEGURIDADEON      NM   R$  000000000237500000000024140000000002357000000000238700000000024140000000002397000000000241409877000000000003444800000000008225912800000000000000009999123100000010000000000000BRBBSEACNOR5101
012013103096BBSE3F      020BBSEGURIDADEON      NM   R$  000000000237300000000024010000000002355000000000238300000000024010000000002401000000000240500362000000000000012536000000000029875623000000000000009999123100000010000000000000BRBBSEACNOR5101
012013103062BBSE3T      030BBSEGURIDADEON      NM019R$  000000000240500000000024060000000002397000000000240000000000024010000000000000000000000000000022000000000000040000000000000096028676000000000000009999123100000010000000000000BRBBSEACNOR5101
012013103062BBSE3T      030BBSEGURIDADEON      NM030R$  000000000239000000000024320000000002390000000000240800000000024320000000000000000000000000000006000000000000009300000000000022401236000000000000009999123100000010000000000000BRBBSEACNOR5101
012013103062BBSE3T      030BBSEGURIDADEON      NM090R$  000000000242400000000024250000000002424000000000242400000000024250000000000000000000000000000002000000000000000500000000000001212018000000000000009999123100000010000000000000BRBBSEACNOR5101
012013103078BBSEL25     070BBSE        ON      NM000R$  000000000003200000000000320000000000032000000000003200000000000320000000000000000000000000000001000000000000024200000000000000774400000000000250002013121600000010000000000000BRBBSEACNOR5101
012013103082BBSEM55     080BBSEE       ON      NM000R$  000000000018500000000001850000000000185000000000018500000000001850000000000000000000000000000001000000000000005700000000000001054500000000000255002014012000000010000000000000BRBBSEACNOR5101
012013103082BBSEX21     080BBSEE       ON      NM000R$  000000000000400000000000040000000000004000000000000400000000000040000000000000000000000000000001000000000000024200000000000000096800000000000210002013121600000010000000000000BRBBSEACNOR5101
012013103082BBSEX23     080BBSEE       ON      NM000R$  000000000002700000000000270000000000027000000000002700000000000270000000000000000000000000000001000000000000024200000000000000653400000000000230002013121600000010000000000000BRBBSEACNOR5101
012013103002BBTG11      010BTG PACTUAL UNT          R$  000000000302300000000030250000000002942000000000298500000000029830000000002969000000000298300293000000000000058800000000000175530900000000000000009999123100000010000000000000BRBBTGUNT007105
012013103096BBTG11F     020BTG PACTUAL UNT          R$  000000000299500000000030290000000002995000000000302400000000030100000000003010000000000309900003000000000000000032000000000000096773000000000000009999123100000010000000000000BRBBTGUNT007105
012013103012BBVJ11      010FII C JARDIMCI           R$  000000000775900000000078850000000007701000000000774500000000077050000000007705000000000780000019000000000000001257000000000009736166000000000000009999123100000010000000000000BRBBVJCTF001134
012013103012BCFF11B     010FII BC FFII CI      MB   R$  000000000877500000000088000000000008663000000000872700000000086800000000008680000000000873500085000000000000004779000000000041709878000000000000009999123100000010000000000000BRBCFFCTF000143
012013103002BEEF3       010MINERVA     ON      NM   R$  000000000094600000000009550000000000930000000000093900000000009500000000000950000000000095101773000000000000555000000000000521617300000000000000009999123100000010000000000000BRBEEFACNOR6104
012013103096BEEF3F      020MINERVA     ON      NM   R$  000000000094200000000009450000000000930000000000093400000000009300000000000930000000000095000004000000000000000081000000000000075705000000000000009999123100000010000000000000BRBEEFACNOR6104
012013103002BEES3       010BANESTES    ON           R$  000000000005000000000000510000000000050000000000005000000000000510000000000050000000000005100017000000000000148900000000000007456900000000000000009999123100000010000000000000BRBEESACNOR9245
012013103062BEES3T      030BANESTES    ON        120R$  000000000005200000000000530000000000052000000000005200000000000530000000000000000000000000000002000000000000010000000000000000524943000000000000009999123100000010000000000000BRBEESACNOR9245
012013103096BEES4F      020BANESTES    PN           R$  000000000005100000000000510000000000051000000000005100000000000510000000000046000000000005100001000000000000000007000000000000000357000000000000009999123100000010000000000000BRBEESACNPR6170
012013103050BEES9L      017BANESTES    ON  REC      R$  000000000004900000000000490000000000049000000000004900000000000490000000000000000000000004900025000000000001189100000000000058265900000000000000009999123100000010000000000000BRBEESR03OR0241
012013103002BEMA3       010BEMATECH    ON      NM   R$  000000000077500000000007910000000000760000000000077700000000007790000000000773000000000077900535000000000000187700000000000145959700000000000000009999123100000010000000000000BRBEMAACNOR0114
012013103096BEMA3F      020BEMATECH    ON      NM   R$  000000000077400000000007850000000000770000000000077600000000007700000000000762000000000078400013000000000000000364000000000000282482000000000000009999123100000010000000000000BRBEMAACNOR0114
012013103062BEMA3S      030BEMATECH    ON      NM090R$  000000000080400000000008070000000000802000000000080400000000008030000000000000000000000000000006000000000000004400000000000003540057000000000000009999123100000010000000000000BRBEMAACNOR0114
012013103062BEMA3T      030BEMATECH    ON      NM362R$  000000000084900000000008500000000000849000000000084900000000008500000000000000000000000000000002000000000000000500000000000000424537000000000000009999123100000010000000000000BRBEMAACNOR0114
012013103002BERK34      010BERKSHIRE   DRN          R$  000000002567600000000256760000000025676000000002567600000000256760000000025550000000002584000001000000000000000400000000000010270400000000000000009999123100000010000000000000BRBERKBDR002100
012013103096BGIP4F      020BANESE      PN           R$  000000000490000000000049000000000004900000000000490000000000049000000000004810000000000490000003000000000000000008000000000000039200000000000000009999123100000010000000000000BRBGIPACNPR8179
012013103002BHGR3       010BHG         ON      NM   R$  000000000166800000000016990000000001607000000000165000000000016500000000001629000000000165000052000000000000039600000000000065364900000000000000009999123100000010000000000000BRBHGRACNOR9101
012013103002BICB3       010BICBANCO    ON      N1   R$  000000000073100000000007590000000000731000000000075000000000007380000000000758000000000075900004000000000000001300000000000000976200000000000000009999123100000010000000000000BRBICBACNOR0131
012013103002BICB4       010BICBANCO    PN      N1   R$  000000000072400000000007550000000000723000000000073600000000007400000000000740000000000074800698000000000001143600000000000842367900000000000000009999123100000010000000000000BRBICBACNPR7131
012013103096BICB4F      020BICBANCO    PN      N1   R$  000000000072000000000007830000000000705000000000073700000000007190000000000719000000000100000023000000000000000475000000000000350447000000000000009999123100000010000000000000BRBICBACNPR7131
012013103062BICB4S      030BICBANCO    PN      N1090R$  000000000074900000000007500000000000749000000000074900000000007500000000000000000000000000000002000000000000005000000000000003746698000000000000009999123100000010000000000000BRBICBACNPR7131
012013103062BICB4T      030BICBANCO    PN      N1019R$  000000000074700000000007480000000000747000000000074700000000007480000000000000000000000000000002000000000000004000000000000002991103000000000000009999123100000010000000000000BRBICBACNPR7131
012013103062BICB4T      030BICBANCO    PN      N1030R$  000000000073600000000007370000000000736000000000073600000000007370000000000000000000000000000002000000000000010000000000000007362632000000000000009999123100000010000000000000BRBICBACNPR7131
012013103002BIOM3       010BIOMM       ON           R$  000000000095000000000009500000000000950000000000095000000000009500000000000920000000000099900012000000000000028000000000000026600000000000000000009999123100000010000000000000BRBIOMACNOR2101
012013103002BISA3       010BROOKFIELD  ON      NM   R$  000000000014600000000001460000000000141000000000014300000000001420000000000142000000000014304754000000000007916000000000001132188000000000000000009999123100000010000000000000BRBISAACNOR8109
012013103096BISA3F      020BROOKFIELD  ON      NM   R$  000000000014900000000001490000000000141000000000014300000000001420000000000142000000000014700023000000000000000447000000000000063993000000000000009999123100000010000000000000BRBISAACNOR8109
012013103062BISA3T      030BROOKFIELD  ON      NM030R$  000000000014500000000001460000000000144000000000014400000000001450000000000000000000000000000004000000000000505000000000000072739984000000000000009999123100000010000000000000BRBISAACNOR8109
012013103062BISA3T      030BROOKFIELD  ON      NM047R$  000000000014400000000001450000000000144000000000014400000000001450000000000000000000000000000002000000000000010000000000000001446445000000000000009999123100000010000000000000BRBISAACNOR8109
012013103062BISA3T      030BROOKFIELD  ON      NM090R$  000000000014800000000001490000000000144000000000014700000000001450000000000000000000000000000008000000000001550000000000000228129360000000000000009999123100000010000000000000BRBISAACNOR8109
012013103012BJRC11      010FII JS RECIMCI           R$  000000008979900000000897990000000089798000000008979800000000897980000000088000000000008979800004000000000000000004000000000000359194000000000000009999123100000010000000000000BRBJRCCTF007111
012013103002BMEB3       010MERC BRASIL ON           R$  000000000160000000000016000000000001600000000000160000000000016000000000000000000000000165000002000000000000000200000000000000320000000000000000009999123100000010000000000000BRBMEBACNOR8190
012013103002BMEB4       010MERC BRASIL PN           R$  000000000107500000000010800000000001075000000000107500000000010800000000001080000000000109500007000000000000002100000000000002259500000000000000009999123100000010000000000000BRBMEBACNPR5191
012013103002BMKS3       010BIC MONARK  ON           R$  000000003400000000000340000000000034000000000003400000000000340000000000033100000000003420000003000000000000000013000000000000442000000000000000009999123100000010000000000000BRBMKSACNOR9155
012013103012BMLC11B     010FII BMBRC LCCI      MB   R$  000000001170000000000117190000000011700000000001170000000000117190000000011506000000001171900012000000000000001304000000000015257441000000000000009999123100000010000000000000BRBMLCCTF004120
012013103002BMTO4       010BRASMOTOR   PN  ED       R$  000000000008200000000000850000000000082000000000008300000000000850000000000084000000000008500011000000000000042000000000000003524000000000000000009999123100000010000000000000BRBMTOACNPR6066
012013103096BMTO4F      020BRASMOTOR   PN  ED       R$  000000000008400000000000840000000000081000000000008300000000000840000000000084000000000008800004000000000000001227000000000000102798000000000000009999123100000010000000000000BRBMTOACNPR6066
012013103096BNBR3F      020NORD BRASIL ON           R$  000000000287900000000028790000000002879000000000287900000000028790000000002100000000000000000004000000000000000004000000000000011516000000000000009999123100000010000000000000BRBNBRACNOR8187
012013103002BOBR4       010BOMBRIL     PN           R$  000000000064900000000006900000000000649000000000066300000000006900000000000610000000000068900005000000000000000500000000000000331700000000000000009999123100000010000000000000BRBOBRACNPR3127
012013103096BOBR4F      020BOMBRIL     PN           R$  000000000060000000000006000000000000600000000000060000000000006000000000000521000000000000000002000000000000000018000000000000010800000000000000009999123100000010000000000000BRBOBRACNPR3127
012013103014BOVA11      010ISHARES BOVACI           R$  000000000530900000000053470000000005260000000000529000000000052940000000005281000000000529402810000000000000909000000000004808763330000000000000009999123100000010000000000000BRBOVACTF003101
012013103096BOVA11F     020ISHARES BOVACI           R$  000000000530500000000053720000000005305000000000534500000000053720000000005280000000000537200005000000000000000015000000000000080188000000000000009999123100000010000000000000BRBOVACTF003101
012013103078BOVAL58     070BOVA        CI        000R$  000000000001000000000000100000000000010000000000001000000000000100000000000000000000000000000002000000000000001700000000000000017000000000000580002013121600000010000000000000BRBOVACTF003101
012013103012BPFF11      010FII ABSOLUTOCI           R$  000000000840000000000084290000000008400000000000841300000000084290000000008400000000000842900005000000000000000227000000000001909900000000000000009999123100000010000000000000BRBPFFCTF002106
012013103002BPHA3       010BR PHARMA   ON      NM   R$  000000000085900000000008600000000000825000000000083200000000008380000000000838000000000083901363000000000000374600000000000311749700000000000000009999123100000010000000000000BRBPHAACNOR6102
012013103096BPHA3F      020BR PHARMA   ON      NM   R$  000000000083500000000008350000000000802000000000081600000000008020000000000802000000000089900006000000000000000100000000000000081625000000000000009999123100000010000000000000BRBPHAACNOR6102
012013103062BPHA3T      030BR PHARMA   ON      NM090R$  000000000085300000000008560000000000853000000000085400000000008560000000000000000000000000000004000000000000010000000000000008544267000000000000009999123100000010000000000000BRBPHAACNOR6102
012013103002BPNM4       010PANAMERICANOPN      N1   R$  000000000051400000000005190000000000514000000000051500000000005160000000000516000000000051900135000000000001598100000000000823090400000000000000009999123100000010000000000000BRBPNMACNPR6111
012013103096BPNM4F      020PANAMERICANOPN      N1   R$  000000000051500000000005150000000000513000000000051400000000005130000000000513000000000051500007000000000000000113000000000000058095000000000000009999123100000010000000000000BRBPNMACNPR6111
012013103062BPNM4T      030PANAMERICANOPN      N1120R$  000000000053000000000005310000000000530000000000053000000000005310000000000000000000000000000036000000000001500000000000000795366000000000000000009999123100000010000000000000BRBPNMACNPR6111
012013103002BRAP3       010BRADESPAR   ON      N1   R$  000000000215000000000021500000000002129000000000213400000000021300000000002130000000000214600009000000000000001700000000000003628500000000000000009999123100000010000000000000BRBRAPACNOR5124
012013103096BRAP3F      020BRADESPAR   ON      N1   R$  000000000219500000000021950000000002120000000000217100000000021350000000002129000000000218200012000000000000000118000000000000256214000000000000009999123100000010000000000000BRBRAPACNOR5124
012013103002BRAP4       010BRADESPAR   PN      N1   R$  000000000261800000000026440000000002605000000000262200000000026350000000002615000000000263504659000000000001709800000000004484895400000000000000009999123100000010000000000000BRBRAPACNPR2124
012013103096BRAP4F      020BRADESPAR   PN      N1   R$  000000000261700000000026400000000002606000000000262400000000026060000000002600000000000263900069000000000000001890000000000004961192000000000000009999123100000010000000000000BRBRAPACNPR2124
012013103062BRAP4T      030BRADESPAR   PN      N1030R$  000000000264500000000026460000000002641000000000264400000000026420000000000000000000000000000006000000000000115900000000000306538499000000000000009999123100000010000000000000BRBRAPACNPR2124
012013103062BRAP4T      030BRADESPAR   PN      N1054R$  000000000266300000000026640000000002663000000000266300000000026640000000000000000000000000000002000000000000004000000000000010652996000000000000009999123100000010000000000000BRBRAPACNPR2124
012013103062BRAP4T      030BRADESPAR   PN      N1061R$  000000000266000000000026610000000002660000000000266000000000026610000000000000000000000000000002000000000000000200000000000000532147000000000000009999123100000010000000000000BRBRAPACNPR2124
012013103078BRAPK27     070BRAP        PN      N1000R$  000000000001700000000000250000000000017000000000001800000000000250000000000000000000000000000002000000000000008200000000000000148200000000000270002013111800000010000000000000BRBRAPACNPR2124
012013103078BRAPL28     070BRAP        PN      N1000R$  000000000004000000000000400000000000040000000000004000000000000400000000000000000000000000000001000000000000000100000000000000004000000000000280002013121600000010000000000000BRBRAPACNPR2124
012013103078BRAPL57     070BRAP        PN      N1000R$  000000000004300000000000430000000000042000000000004200000000000420000000000042000000000000000002000000000000300000000000000012600100000000000275002013121600000010000000000000BRBRAPACNPR2124
012013103014BRAX11      010ISHARES BRAXCI           R$  000000000429300000000043850000000004293000000000433900000000043850000000003000000000000000000002000000000000000220000000000000954580000000000000009999123100000010000000000000BRBRAXCTF002100
012013103012BRCR11      010FII BC FUND CI           R$  000000001370500000000137050000000013600000000001366600000000136900000000013686000000001369000329000000000000031481000000000430234648000000000000009999123100000010000000000000BRBRCRCTF000134
012013103002BRFS3       010BRF SA      ON      NM   R$  000000000514900000000052570000000005074000000000518100000000052400000000005210000000000524009928000000000002690200000000013939239400000000000000009999123100000010000000000000BRBRFSACNOR8110
012013103096BRFS3F      020BRF SA      ON      NM   R$  000000000514500000000052500000000005080000000000517700000000052500000000005150000000000525000187000000000000006503000000000033666802000000000000009999123100000010000000000000BRBRFSACNOR8110
012013103062BRFS3S      030BRF SA      ON      NM090R$  000000000535500000000053560000000005355000000000535500000000053560000000000000000000000000000004000000000000000550000000000002945524000000000000009999123100000010000000000000BRBRFSACNOR8110
012013103062BRFS3T      030BRF SA      ON      NM090R$  000000000534000000000053410000000005340000000000534000000000053410000000000000000000000000000002000000000000001000000000000005340402000000000000009999123100000010000000000000BRBRFSACNOR8110
012013103062BRFS3T      030BRF SA      ON      NM019R$  000000000517100000000051720000000005171000000000517100000000051720000000000000000000000000000002000000000000001000000000000005171656000000000000009999123100000010000000000000BRBRFSACNOR8110
012013103062BRFS3T      030BRF SA      ON      NM022R$  000000000526800000000052690000000005268000000000526800000000052690000000000000000000000000000002000000000000029000000000000152795780000000000000009999123100000010000000000000BRBRFSACNOR8110
012013103062BRFS3T      030BRF SA      ON      NM030R$  000000000516500000000052780000000005165000000000518300000000052780000000000000000000000000000020000000000000005900000000000030583709000000000000009999123100000010000000000000BRBRFSACNOR8110
012013103062BRFS3T      030BRF SA      ON      NM047R$  000000000525900000000052600000000005259000000000525900000000052600000000000000000000000000000002000000000000000200000000000001051844000000000000009999123100000010000000000000BRBRFSACNOR8110
012013103062BRFS3T      030BRF SA      ON      NM061R$  000000000515400000000053110000000005150000000000528200000000052980000000000000000000000000000024000000000000010600000000000055996459000000000000009999123100000010000000000000BRBRFSACNOR8110
012013103082BRFSM51     080BRFSE       ON      NM000R$  000000000016300000000001640000000000163000000000016300000000001640000000000000000000000000000002000000000000033100000000000005411900000000000510002014012000000010000000000000BRBRFSACNOR8110
012013103082BRFSW55     080BRFSE       ON      NM000R$  000000000027600000000002760000000000276000000000027600000000002760000000000000000000000000000001000000000000029000000000000008004000000000000550002013111800000010000000000000BRBRFSACNOR8110
012013103096BRGE12F     020ALFA CONSORCPNF          R$  000000000049900000000004990000000000499000000000049900000000004990000000000000000000000050000001000000000000000001000000000000000499000000000000009999123100000010000000000000BRBRGEACNPF8091
012013103002BRGE3       010ALFA CONSORCON           R$  000000000050000000000005000000000000500000000000050000000000005000000000000367000000000050000001000000000000000800000000000000400000000000000000009999123100000010000000000000BRBRGEACNOR6197
012013103002BRIN3       010BR INSURANCEON      NM   R$  000000000197600000000020100000000001976000000000199800000000019890000000001989000000000199700571000000000000151100000000000301982400000000000000009999123100000010000000000000BRBRINACNOR3106
012013103096BRIN3F      020BR INSURANCEON      NM   R$  000000000198600000000020100000000001950000000000199000000000019500000000001950000000000201000014000000000000000265000000000000527368000000000000009999123100000010000000000000BRBRINACNOR3106
012013103096BRIV4F      020ALFA INVEST PN           R$  000000000058500000000005850000000000585000000000058500000000005850000000000551000000000059800001000000000000000010000000000000005850000000000000009999123100000010000000000000BRBRIVACNPR3197
012013103002BRKM3       010BRASKEM     ON      N1   R$  000000000146300000000014630000000001463000000000146300000000014630000000001430000000000146300002000000000000000400000000000000585200000000000000009999123100000010000000000000BRBRKMACNOR1110
012013103002BRKM5       010BRASKEM     PNA     N1   R$  000000000195300000000019740000000001937000000000195700000000019650000000001963000000000196704472000000000000824600000000001614565600000000000000009999123100000010000000000000BRBRKMACNPA4110
012013103096BRKM5F      020BRASKEM     PNA     N1   R$  000000000195000000000019740000000001922000000000195500000000019220000000001926000000000196500063000000000000001210000000000002363809000000000000009999123100000010000000000000BRBRKMACNPA4110
012013103062BRKM5T      030BRASKEM     PNA     N1030R$  000000000196800000000019690000000001968000000000196800000000019690000000000000000000000000000002000000000000048000000000000094467302000000000000009999123100000010000000000000BRBRKMACNPA4110
012013103062BRKM5T      030BRASKEM     PNA     N1061R$  000000000197200000000020030000000001972000000000198100000000020030000000000000000000000000000004000000000000002000000000000003962372000000000000009999123100000010000000000000BRBRKMACNPA4110
012013103078BRKML53     070BRKME       PNA     N1000R$  000000000064700000000006470000000000647000000000064700000000006470000000000000000000000000000001000000000000470000000000000304090000000000000132502013121600000010000000000000BRBRKMACNPA4110
012013103078BRKML61     070BRKME       PNA     N1000R$  000000000002000000000000200000000000020000000000002000000000000200000000000000000000000000000001000000000000470000000000000009400000000000000212502013121600000010000000000000BRBRKMACNPA4110
012013103082BRKMX53     080BRKME       PNA     N1000R$  000000000000100000000000010000000000001000000000000100000000000010000000000000000000000000000001000000000000470000000000000000470000000000000132502013121600000010000000000000BRBRKMACNPA4110
012013103082BRKMX61     080BRKME       PNA     N1000R$  000000000016300000000001630000000000163000000000016300000000001630000000000000000000000000000001000000000000470000000000000076610000000000000212502013121600000010000000000000BRBRKMACNPA4110
012013103002BRML3       010BR MALLS PARON      NM   R$  000000000217200000000022190000000002172000000000219300000000022000000000002193000000000220105248000000000002727700000000005982018200000000000000009999123100000010000000000000BRBRMLACNOR9105
012013103096BRML3F      020BR MALLS PARON      NM   R$  000000000219000000000022200000000002180000000000219700000000022200000000002188000000000222000047000000000000001606000000000003529566000000000000009999123100000010000000000000BRBRMLACNOR9105
012013103078BRMLK52     070BRML        ON      NM000R$  000000000002600000000000260000000000026000000000002600000000000260000000000000000000000000000001000000000000000400000000000000010400000000000225002013111800000010000000000000BRBRMLACNOR9105
012013103002BRPR3       010BR PROPERT  ON      NM   R$  000000000188000000000018950000000001869000000000187800000000018800000000001880000000000188105630000000000001195800000000002246403600000000000000009999123100000010000000000000BRBRPRACNOR9112
012013103096BRPR3F      020BR PROPERT  ON      NM   R$  000000000187000000000018860000000001830000000000187500000000018300000000001830000000000189900024000000000000000641000000000001200249000000000000009999123100000010000000000000BRBRPRACNOR9112
012013103002BRSR3       010BANRISUL    ON      N1   R$  000000000147900000000014790000000001479000000000147900000000014790000000001310000000000147900001000000000000000500000000000000739500000000000000009999123100000010000000000000BRBRSRACNOR3131
012013103002BRSR6       010BANRISUL    PNB     N1   R$  000000000158900000000016000000000001548000000000158200000000015700000000001560000000000157204951000000000001500300000000002374863200000000000000009999123100000010000000000000BRBRSRACNPB4134
012013103096BRSR6F      020BANRISUL    PNB     N1   R$  000000000160000000000016090000000001537000000000158100000000015370000000001540000000000161000022000000000000000693000000000001096017000000000000009999123100000010000000000000BRBRSRACNPB4134
012013103062BRSR6T      030BANRISUL    PNB     N1020R$  000000000160700000000016080000000001604000000000160700000000016050000000000000000000000000000004000000000000000230000000000000369713000000000000009999123100000010000000000000BRBRSRACNPB4134
012013103002BSEV3       010BIOSEV      ON      NM   R$  000000000094000000000009400000000000923000000000093300000000009350000000000935000000000095700006000000000000001400000000000001306400000000000000009999123100000010000000000000BRBSEVACNOR3100
012013103002BTOW3       010B2W DIGITAL ON      NM   R$  000000000169000000000017250000000001634000000000166400000000016600000000001660000000000166101093000000000000313300000000000521417600000000000000009999123100000010000000000000BRBTOWACNOR8105
012013103096BTOW3F      020B2W DIGITAL ON      NM   R$  000000000168000000000016900000000001615000000000165800000000016150000000001615000000000166000027000000000000000784000000000001299233000000000000009999123100000010000000000000BRBTOWACNOR8105
012013103002BTTL4       010BATTISTELLA PN           R$  000000000009600000000000960000000000095000000000009500000000000950000000000095000000000009800006000000000000008200000000000000785200000000000000009999123100000010000000000000BRBTTLACNPR7105
012013103002BVMF3       010BMFBOVESPA  ON      NM   R$  000000000129500000000012980000000001275000000000128200000000012820000000001281000000000128209996000000000004924200000000006317356500000000000000009999123100000010000000000000BRBVMFACNOR3126
012013103096BVMF3F      020BMFBOVESPA  ON      NM   R$  000000000129000000000012970000000001274000000000128300000000012740000000001270000000000128000082000000000000002499000000000003206260000000000000009999123100000010000000000000BRBVMFACNOR3126
012013103078BVMFA13     070BVMF        ON      NM000R$  000000000006400000000000640000000000064000000000006400000000000640000000000000000000000000000001000000000000001800000000000000115200000000000130002014012000000010000000000000BRBVMFACNOR3126
012013103078BVMFB15     070BVMF        ON      NM000R$  000000000002000000000000200000000000020000000000002000000000000200000000000000000000000004500001000000000000150000000000000003000000000000000148502014021700000010000000000000BRBVMFACNOR3125
012013103078BVMFK11     070BVMF        ON      NM000R$  000000000019900000000002030000000000199000000000020100000000002000000000000146000000000000000004000000000000000400000000000000080400000000000108502013111800000010000000000000BRBVMFACNOR3125
012013103078BVMFK12     070BVMF        ON      NM000R$  000000000010700000000001120000000000103000000000010500000000001030000000000102000000000010800046000000000000021600000000000002279100000000000118502013111800000010000000000000BRBVMFACNOR3125
012013103078BVMFK13     070BVMF  FM    ON      NM000R$  000000000003400000000000350000000000028000000000003000000000000310000000000031000000000003300140000000000000260900000000000008070000000000000128502013111800000010000000000000BRBVMFACNOR3125
012013103078BVMFK14     070BVMF  FM    ON      NM000R$  000000000000700000000000070000000000005000000000000500000000000050000000000005000000000000600037000000000000130600000000000000653400000000000138502013111800000010000000000000BRBVMFACNOR3125
012013103078BVMFK42     070BVMF  FM    ON      NM000R$  000000000005500000000000560000000000049000000000005300000000000490000000000000000000000008500005000000000000011100000000000000597500000000000125002013111800000010000000000000BRBVMFACNOR3126
012013103078BVMFK43     070BVMF  FM    ON      NM000R$  000000000000900000000000100000000000008000000000000800000000000080000000000006000000000001300012000000000000029900000000000000249600000000000135002013111800000010000000000000BRBVMFACNOR3126
012013103078BVMFK52     070BVMFE       ON      NM000R$  000000000007400000000000740000000000074000000000007400000000000740000000000000000000000000000002000000000000014500000000000001073000000000000122502013111800000010000000000000BRBVMFACNOR3126
012013103078BVMFL10     070BVMF        ON      NM000R$  000000000030600000000003060000000000306000000000030600000000003060000000000000000000000061900005000000000000025000000000000007650000000000000098502013121600000010000000000000BRBVMFACNOR3125
012013103078BVMFL13     070BVMF  FM    ON      NM000R$  000000000005500000000000550000000000051000000000005200000000000530000000000050000000000005500022000000000000034600000000000001819900000000000128502013121600000010000000000000BRBVMFACNOR3125
012013103078BVMFL14     070BVMF  FM    ON      NM000R$  000000000001800000000000190000000000018000000000001800000000000180000000000016000000000002000007000000000000016500000000000000306000000000000137402013121600000010000000000000BRBVMFACNOR3124
012013103078BVMFL42     070BVMF  FM    ON      NM000R$  000000000007600000000000760000000000071000000000007400000000000710000000000000000000000000000003000000000000005700000000000000424200000000000125002013121600000010000000000000BRBVMFACNOR3126
012013103078BVMFL43     070BVMF        ON      NM000R$  000000000003800000000000380000000000036000000000003700000000000360000000000000000000000131900003000000000000007000000000000000260000000000000131902013121600000010000000000000BRBVMFACNOR3126
012013103078BVMFL64     070BVMF  FM    ON      NM000R$  000000000001200000000000120000000000012000000000001200000000000120000000000000000000000000000001000000000000003000000000000000036000000000000140002013121600000010000000000000BRBVMFACNOR3126
012013103082BVMFM12     080BVMFE       ON      NM000R$  000000000002400000000000260000000000024000000000002500000000000260000000000000000000000000000002000000000000003600000000000000090000000000000120002014012000000010000000000000BRBVMFACNOR3126
012013103082BVMFN13     080BVMFE       ON      NM000R$  000000000005500000000000550000000000055000000000005500000000000550000000000000000000000000000002000000000000150000000000000008250000000000000128502014021700000010000000000000BRBVMFACNOR3125
012013103082BVMFN41     080BVMFE       ON      NM000R$  000000000002000000000000200000000000020000000000002000000000000200000000000000000000000000000002000000000000150000000000000003000000000000000113502014021700000010000000000000BRBVMFACNOR3125
012013103082BVMFW12     080BVMFE FM    ON      NM000R$  000000000000700000000000070000000000005000000000000600000000000060000000000005000000000000600009000000000000031200000000000000190200000000000118502013111800000010000000000000BRBVMFACNOR3125
012013103082BVMFW13     080BVMFE FM    ON      NM000R$  000000000003200000000000340000000000027000000000003000000000000340000000000030000000000003600053000000000000093100000000000002818400000000000128502013111800000010000000000000BRBVMFACNOR3125
012013103082BVMFW42     080BVMFE FM    ON      NM000R$  000000000001700000000000170000000000017000000000001700000000000170000000000000000000000000000009000000000000016000000000000000272000000000000125002013111800000010000000000000BRBVMFACNOR3126
012013103082BVMFW43     080BVMFE FM    ON      NM000R$  000000000007300000000000750000000000070000000000007200000000000750000000000000000000000000000004000000000000008000000000000000581500000000000135002013111800000010000000000000BRBVMFACNOR3126
012013103082BVMFX42     080BVMFE FM    ON      NM000R$  000000000003200000000000320000000000032000000000003200000000000320000000000000000000000000000002000000000000005300000000000000169600000000000125002013121600000010000000000000BRBVMFACNOR3126
012013103082BVMFX43     080BVMFE       ON      NM000R$  000000000006000000000000600000000000060000000000006000000000000600000000000000000000000000000001000000000000001800000000000000108000000000000131902013121600000010000000000000BRBVMFACNOR3126
012013103096CALI4F      020CONST A LINDPN           R$  000000002500000000000250000000000025000000000002500000000000250000000000020000000000002500000001000000000000000001000000000000025000000000000000009999123100000010000000000000BRCALIACNPR8131
012013103002CAMB4       010CAMBUCI     PN           R$  000000000017800000000001890000000000177000000000017800000000001890000000000177000000000018900005000000000000011400000000000002030900000000000000009999123100000010000000000000BRCAMBACNPR1117
012013103002CARD3       010CSU CARDSYSTON      NM   R$  000000000030800000000003080000000000300000000000030200000000003040000000000300000000000030700014000000000000003500000000000001059300000000000000009999123100000010000000000000BRCARDACNOR9105
012013103096CARD3F      020CSU CARDSYSTON      NM   R$  000000000029200000000002990000000000292000000000029800000000002990000000000294000000000030900005000000000000000078000000000000023280000000000000009999123100000010000000000000BRCARDACNOR9105
012013103008CCHI3       010CHIARELLI   ON           R$  000000000001300000000000130000000000013000000000001300000000000130000000000013000000000001400011000000000000120000000000000001560000000000000000009999123100000010000000000000BRCCHIACNOR5123
012013103002CCPR3       010CYRE COM-CCPON      NM   R$  000000000201900000000020200000000002010000000000201900000000020100000000002010000000000203700005000000000000003700000000000007470600000000000000009999123100000010000000000000BRCCPRACNOR9107
012013103096CCPR3F      020CYRE COM-CCPON      NM   R$  000000000199900000000020500000000001999000000000201700000000020500000000001940000000000205000002000000000000000097000000000000195739000000000000009999123100000010000000000000BRCCPRACNOR9107
012013103002CCRO3       010CCR SA      ON      NM   R$  000000000187000000000018800000000001840000000000186300000000018660000000001865000000000186612559000000000003333100000000006211378700000000000000009999123100000010000000000000BRCCROACNOR2123
012013103096CCRO3F      020CCR SA      ON      NM   R$  000000000186000000000018890000000001822000000000186000000000018500000000001836000000000188800073000000000000002047000000000003806292000000000000009999123100000010000000000000BRCCROACNOR2123
012013103002CCXC3       010CCX CARVAO  ON      NM   R$  000000000015300000000001610000000000121000000000013900000000001210000000000121000000000012205227000000000025955900000000003622116400000000000000009999123100000010000000000000BRCCXCACNOR5100
012013103096CCXC3F      020CCX CARVAO  ON      NM   R$  000000000014000000000001610000000000125000000000014400000000001250000000000125000000000014500028000000000000000759000000000000109567000000000000009999123100000010000000000000BRCCXCACNOR5100
012013103062CCXC3T      030CCX CARVAO  ON      NM019R$  000000000012900000000001300000000000129000000000012900000000001300000000000000000000000000000002000000000000100000000000000012956760000000000000009999123100000010000000000000BRCCXCACNOR5100
012013103062CCXC3T      030CCX CARVAO  ON      NM030R$  000000000012100000000001220000000000121000000000012100000000001220000000000000000000000000000002000000000000100000000000000012187120000000000000009999123100000010000000000000BRCCXCACNOR5100
012013103062CCXC3T      030CCX CARVAO  ON      NM061R$  000000000016100000000001620000000000161000000000016100000000001620000000000000000000000000000004000000000000162000000000000026120584000000000000009999123100000010000000000000BRCCXCACNOR5100
012013103002CEBR5       010CEB         PNA          R$  000000000268900000000026890000000002689000000000268900000000026890000000001700000000000269000001000000000000000500000000000001344500000000000000009999123100000010000000000000BRCEBRACNPA8113
012013103062CEBR5T      030CEB         PNA       180R$  000000000283100000000028320000000002831000000000283100000000028320000000000000000000000000000002000000000000000500000000000001415759000000000000009999123100000010000000000000BRCEBRACNPA8113
012013103002CEBR6       010CEB         PNB          R$  000000000150600000000015980000000001506000000000152000000000015980000000001509000000000159900007000000000000001600000000000002433300000000000000009999123100000010000000000000BRCEBRACNPB6113
012013103096CEBR6F      020CEB         PNB          R$  000000000169000000000016900000000001600000000000160300000000016000000000001532000000000160000002000000000000000024000000000000038490000000000000009999123100000010000000000000BRCEBRACNPB6113
012013103002CEDO4       010CEDRO       PN  ED  N1   R$  000000000093000000000009300000000000930000000000093000000000009300000000000871000000000097000001000000000000000100000000000000093000000000000000009999123100000010000000000000BRCEDOACNPR5127
012013103096CEDO4F      020CEDRO       PN  ED  N1   R$  000000000093000000000009300000000000930000000000093000000000009300000000000930000000000000000001000000000000000014000000000000013020000000000000009999123100000010000000000000BRCEDOACNPR5127
012013103008CELP3       010CELPA       ON           R$  000000000009000000000000900000000000090000000000009000000000000900000000000070000000000009000003000000000000002500000000000000225000000000000000009999123100000010000000000000BRCELPACNOR8112
012013103008CELP7       010CELPA       PNC          R$  000000000005000000000000500000000000050000000000005000000000000500000000000050000000000006000005000000000000004700000000000000235000000000000000009999123100000010000000000000BRCELPACNPC7114
012013103096CELP7F      020CELPA       PNC          R$  000000000004000000000000400000000000040000000000004000000000000400000000000000000000000004000001000000000000000014000000000000000560000000000000009999123100000010000000000000BRCELPACNPC7114
012013103012CEOC11B     010FII CEO CCP CI      MB   R$  000000000870000000000087000000000008511000000000863900000000086000000000008600000000000868700056000000000000003972000000000034314249000000000000009999123100000010000000000000BRCEOCCTF003111
012013103002CESP3       010CESP        ON      N1   R$  000000000189500000000019400000000001890000000000192000000000019400000000001890000000000194000009000000000000005800000000000011138600000000000000009999123100000010000000000000BRCESPACNOR3160
012013103062CESP3T      030CESP        ON      N1030R$  000000000191600000000019170000000001916000000000191600000000019170000000000000000000000000000002000000000000002300000000000004408893000000000000009999123100000010000000000000BRCESPACNOR3160
012013103002CESP6       010CESP        PNB     N1   R$  000000000225400000000022960000000002235000000000227800000000022930000000002283000000000229302688000000000000601100000000001369842000000000000000009999123100000010000000000000BRCESPACNPB4119
012013103096CESP6F      020CESP        PNB     N1   R$  000000000224100000000022930000000002208000000000225800000000022850000000002210000000000233000033000000000000000914000000000002064025000000000000009999123100000010000000000000BRCESPACNPB4119
012013103062CESP6T      030CESP        PNB     N1019R$  000000000229800000000022990000000002298000000000229800000000022990000000000000000000000000000002000000000000000500000000000001149148000000000000009999123100000010000000000000BRCESPACNPB4119
012013103002CGAS5       010COMGAS      PNA          R$  000000000595400000000059750000000005922000000000595100000000059400000000005917000000000594000088000000000000019700000000000117245600000000000000009999123100000010000000000000BRCGASACNPA3129
012013103096CGAS5F      020COMGAS      PNA          R$  000000000595000000000059500000000005901000000000592000000000059010000000005901000000000598000007000000000000000071000000000000420326000000000000009999123100000010000000000000BRCGASACNPA3129
012013103002CGRA3       010GRAZZIOTIN  ON           R$  000000000167000000000016700000000001670000000000167000000000016700000000001640000000000167000001000000000000002000000000000003340000000000000000009999123100000010000000000000BRCGRAACNOR2061
012013103002CGRA4       010GRAZZIOTIN  PN           R$  000000000175000000000017710000000001750000000000175800000000017520000000001752000000000176700008000000000000000800000000000001406700000000000000009999123100000010000000000000BRCGRAACNPR9061
012013103096CGRA4F      020GRAZZIOTIN  PN           R$  000000000180000000000018000000000001750000000000175000000000017500000000001750000000000180000005000000000000000085000000000000148800000000000000009999123100000010000000000000BRCGRAACNPR9061
012013103002CIEL3       010CIELO       ON      NM   R$  000000000667500000000067000000000006626000000000665300000000066560000000006655000000000665603978000000000001239800000000008248649000000000000000009999123100000010000000000000BRCIELACNOR3112
012013103096CIEL3F      020CIELO       ON      NM   R$  000000000669000000000066900000000006631000000000665300000000066430000000006649000000000669000098000000000000002721000000000018104252000000000000009999123100000010000000000000BRCIELACNOR3112
012013103002CLSC4       010CELESC      PN      N2   R$  000000000177100000000018150000000001769000000000178400000000018150000000001790000000000181500031000000000000008500000000000015166300000000000000009999123100000010000000000000BRCLSCACNPR3107
012013103002CMIG3       010CEMIG       ON      N1   R$  000000000200000000000020210000000001970000000000199100000000020210000000001990000000000202100365000000000000092800000000000184792400000000000000009999123100000010000000000000BRCMIGACNOR6208
012013103096CMIG3F      020CEMIG       ON      N1   R$  000000000200000000000020000000000001966000000000199000000000019970000000001993000000000200000021000000000000000565000000000001124457000000000000009999123100000010000000000000BRCMIGACNOR6208
012013103062CMIG3T      030CEMIG       ON      N1030R$  000000000200300000000020040000000002003000000000200300000000020040000000000000000000000000000002000000000000001000000000000002003122000000000000009999123100000010000000000000BRCMIGACNOR6208
012013103062CMIG3T      030CEMIG       ON      N1061R$  000000000202700000000020280000000002027000000000202700000000020280000000000000000000000000000002000000000000001000000000000002027754000000000000009999123100000010000000000000BRCMIGACNOR6208
012013103002CMIG4       010CEMIG       PN      N1   R$  000000000199500000000020160000000001980000000000199500000000019810000000001981000000000198506794000000000001856900000000003705836200000000000000009999123100000010000000000000BRCMIGACNPR3208
012013103096CMIG4F      020CEMIG       PN      N1   R$  000000000200000000000020150000000001982000000000199700000000019820000000001981000000000199000117000000000000003331000000000006645992000000000000009999123100000010000000000000BRCMIGACNPR3208
012013103062CMIG4S      030CEMIG       PN      N1061R$  000000000203100000000020320000000002031000000000203100000000020320000000000000000000000000000002000000000000003000000000000006095400000000000000009999123100000010000000000000BRCMIGACNPR3208
012013103062CMIG4T      030CEMIG       PN      N1061R$  000000000203500000000020360000000002035000000000203500000000020360000000000000000000000000000004000000000000002400000000000004886142000000000000009999123100000010000000000000BRCMIGACNPR3208
012013103062CMIG4T      030CEMIG       PN      N1180R$  000000000209400000000020960000000002093000000000209400000000020940000000000000000000000000000020000000000000012818000000000026845771000000000000009999123100000010000000000000BRCMIGACNPR3208
012013103062CMIG4T      030CEMIG       PN      N1023R$  000000000200900000000020100000000002009000000000200900000000020100000000000000000000000000000002000000000000000300000000000000602996000000000000009999123100000010000000000000BRCMIGACNPR3208
012013103062CMIG4T      030CEMIG       PN      N1030R$  000000000201600000000020180000000002005000000000200800000000020180000000000000000000000000000008000000000000015000000000000030131384000000000000009999123100000010000000000000BRCMIGACNPR3208
012013103078CMIGK20     070CMIG        PN      N1000R$  000000000004400000000000490000000000030000000000004300000000000300000000000030000000000004900007000000000000010500000000000000456000000000000200002013111800000010000000000000BRCMIGACNPR3208
012013103012CNES11B     010FII CENESP  CI  ER  MB   R$  000000001290000000000129000000000012801000000001280800000000128010000000012810000000001299800009000000000000000540000000000006916599000000000000009999123100000010000000000000BRCNESCTF001127
012013103002COCE3       010COELCE      ON           R$  000000000396100000000040470000000003850000000000398500000000040470000000003950000000000404800029000000000000005300000000000021122600000000000000009999123100000010000000000000BRCOCEACNOR0132
012013103002COCE5       010COELCE      PNA          R$  000000000391400000000039140000000003877000000000389400000000038940000000003894000000000390100248000000000000045100000000000175641300000000000000009999123100000010000000000000BRCOCEACNPA3133
012013103096COCE5F      020COELCE      PNA          R$  000000000390000000000039100000000003848000000000388900000000038480000000003847000000000389000026000000000000000274000000000001065598000000000000009999123100000010000000000000BRCOCEACNPA3133
012013103002CPFE3       010CPFL ENERGIAON      NM   R$  000000000194000000000019470000000001923000000000193000000000019280000000001925000000000192803107000000000000621300000000001199645500000000000000009999123100000010000000000000BRCPFEACNOR0122
012013103096CPFE3F      020CPFL ENERGIAON      NM   R$  000000000194500000000019670000000001922000000000193600000000019230000000001922000000000194900028000000000000001045000000000002023309000000000000009999123100000010000000000000BRCPFEACNOR0122
012013103002CPLE3       010COPEL       ON      N1   R$  000000000222800000000022800000000002228000000000224300000000022470000000002230000000000224700105000000000000031900000000000071552400000000000000009999123100000010000000000000BRCPLEACNOR8128
012013103096CPLE3F      020COPEL       ON      N1   R$  000000000224200000000022420000000002242000000000224200000000022420000000002200000000000224200001000000000000000016000000000000035872000000000000009999123100000010000000000000BRCPLEACNOR8128
012013103002CPLE6       010COPEL       PNB     N1   R$  000000000310200000000031150000000003076000000000310400000000031100000000003100000000000311003746000000000000638700000000001982605100000000000000009999123100000010000000000000BRCPLEACNPB9125
012013103096CPLE6F      020COPEL       PNB     N1   R$  000000000308700000000031110000000003061000000000309100000000030830000000003061000000000308500020000000000000000596000000000001842151000000000000009999123100000010000000000000BRCPLEACNPB9125
012013103002CPRE3       010CPFL RENOVAVON      NM   R$  000000000134000000000013490000000001325000000000132600000000013260000000001325000000000132900013000000000013116400000000017392376900000000000000009999123100000010000000000000BRCPREACNOR5100
012013103096CPRE3F      020CPFL RENOVAVON      NM   R$  000000000133000000000013300000000001330000000000133000000000013300000000001327000000000133000001000000000000000017000000000000022610000000000000009999123100000010000000000000BRCPREACNOR5100
012013103002CRDE3       010CR2         ON      NM   R$  000000000041500000000004150000000000415000000000041500000000004150000000000400000000000041500002000000000000017600000000000007304000000000000000009999123100000010000000000000BRCRDEACNOR1108
012013103002CREM3       010CREMER      ON      NM   R$  000000000152500000000015500000000001506000000000153000000000015500000000001505000000000155000020000000000000004200000000000006428800000000000000009999123100000010000000000000BRCREMACNOR2167
012013103002CRIV3       010ALFA FINANC ON           R$  000000000049000000000004990000000000490000000000049500000000004990000000000476000000000050000008000000000000001000000000000000495400000000000000009999123100000010000000000000BRCRIVACNOR4190
012013103002CRIV4       010ALFA FINANC PN           R$  000000000043700000000004400000000000435000000000043600000000004400000000000435000000000044000010000000000000003300000000000001440700000000000000009999123100000010000000000000BRCRIVACNPR1190
012013103002CRUZ3       010SOUZA CRUZ  ON           R$  000000000246200000000024770000000002410000000000243000000000024270000000002421000000000242704446000000000001175600000000002857203500000000000000009999123100000010000000000000BRCRUZACNOR0248
012013103096CRUZ3F      020SOUZA CRUZ  ON           R$  000000000248300000000024840000000002412000000000243300000000024200000000002412000000000247900072000000000000001763000000000004291024000000000000009999123100000010000000000000BRCRUZACNOR0248
012013103062CRUZ3T      030SOUZA CRUZ  ON        019R$  000000000244900000000024500000000002444000000000244700000000024450000000000000000000000000000004000000000000002400000000000005875085000000000000009999123100000010000000000000BRCRUZACNOR0248
012013103062CRUZ3T      030SOUZA CRUZ  ON        061R$  000000000247100000000024720000000002449000000000245800000000024500000000000000000000000000000008000000000000006000000000000014752064000000000000009999123100000010000000000000BRCRUZACNOR0248
012013103002CSAN3       010COSAN       ON      NM   R$  000000000447100000000044750000000004386000000000441200000000044150000000004410000000000441503947000000000000780600000000003444292000000000000000009999123100000010000000000000BRCSANACNOR6108
012013103096CSAN3F      020COSAN       ON      NM   R$  000000000446000000000044600000000004371000000000441300000000043900000000004425000000000444900034000000000000001139000000000005027536000000000000009999123100000010000000000000BRCSANACNOR6108
012013103062CSAN3T      030COSAN       ON      NM030R$  000000000444600000000044470000000004446000000000444600000000044470000000000000000000000000000002000000000000003000000000000013339039000000000000009999123100000010000000000000BRCSANACNOR6108
012013103062CSAN3T      030COSAN       ON      NM090R$  000000000449700000000045130000000004497000000000450500000000045030000000000000000000000000000016000000000000100000000000000450540556000000000000009999123100000010000000000000BRCSANACNOR6108
012013103078CSANK43     070CSAN        ON      NM000R$  000000000014200000000001430000000000142000000000014200000000001430000000000000000000000000000003000000000000001900000000000000270300000000000430002013111800000010000000000000BRCSANACNOR6108
012013103002CSMG3       010COPASA      ON      NM   R$  000000000363600000000036750000000003600000000000361800000000036150000000003612000000000363001398000000000000224400000000000812096200000000000000009999123100000010000000000000BRCSMGACNOR5128
012013103096CSMG3F      020COPASA      ON      NM   R$  000000000365000000000036980000000003600000000000363500000000036980000000003581000000000369900008000000000000000077000000000000279907000000000000009999123100000010000000000000BRCSMGACNOR5128
012013103014CSMO11      010ISHARES CSMOCI           R$  000000000470700000000047600000000004707000000000473800000000047600000000004735000000000491000006000000000000002510000000000011892720000000000000009999123100000010000000000000BRCSMOCTF002100
012013103002CSNA3       010SID NACIONALON           R$  000000000119300000000012140000000001186000000000119800000000011950000000001193000000000119512325000000000005971500000000007156991900000000000000009999123100000010000000000000BRCSNAACNOR6243
012013103096CSNA3F      020SID NACIONALON           R$  000000000118200000000012110000000001182000000000119800000000012010000000001195000000000120100068000000000000002432000000000002913829000000000000009999123100000010000000000000BRCSNAACNOR6243
012013103062CSNA3T      030SID NACIONALON        023R$  000000000120600000000012070000000001206000000000120600000000012070000000000000000000000000000002000000000000026500000000000031964141000000000000009999123100000010000000000000BRCSNAACNOR6243
012013103062CSNA3T      030SID NACIONALON        030R$  000000000121000000000012110000000001203000000000120600000000012040000000000000000000000000000006000000000000010300000000000012427740000000000000009999123100000010000000000000BRCSNAACNOR6243
012013103062CSNA3T      030SID NACIONALON        050R$  000000000120900000000012100000000001209000000000120900000000012100000000000000000000000000000002000000000000004000000000000004837838000000000000009999123100000010000000000000BRCSNAACNOR6243
012013103078CSNAK11     070CSNA        ON        000R$  000000000012400000000001250000000000112000000000011400000000001120000000000000000000000000000004000000000000006600000000000000758500000000000110002013111800000010000000000000BRCSNAACNOR6243
012013103078CSNAK12     070CSNA  FM    ON        000R$  000000000004800000000000550000000000045000000000004700000000000470000000000000000000000005100029000000000000045300000000000002131200000000000120002013111800000010000000000000BRCSNAACNOR6243
012013103078CSNAK13     070CSNA  FM    ON        000R$  000000000001400000000000150000000000013000000000001400000000000130000000000012000000000002200013000000000000027700000000000000408200000000000130002013111800000010000000000000BRCSNAACNOR6243
012013103078CSNAK41     070CSNA  FM    ON        000R$  000000000007900000000000790000000000079000000000007900000000000790000000000000000000000000000003000000000000007800000000000000616200000000000115002013111800000010000000000000BRCSNAACNOR6243
012013103078CSNAK42     070CSNA  FM    ON        000R$  000000000002400000000000280000000000024000000000002700000000000260000000000000000000000003300014000000000000036300000000000000993400000000000125002013111800000010000000000000BRCSNAACNOR6243
012013103078CSNAL12     070CSNA  FM    ON        000R$  000000000010800000000001090000000000104000000000010600000000001090000000000000000000000000000003000000000000009900000000000001057600000000000114702013121600000010000000000000BRCSNAACNOR6241
012013103078CSNAL13     070CSNA  FM    ON        000R$  000000000004000000000000400000000000037000000000003800000000000380000000000000000000000003900005000000000000007400000000000000283200000000000130002013121600000010000000000000BRCSNAACNOR6243
012013103078CSNAL2      070CSNA  FM    ON        000R$  000000000005900000000000590000000000059000000000005900000000000590000000000000000000000000000001000000000000001000000000000000059000000000000125002013121600000010000000000000BRCSNAACNOR6243
012013103078CSNAL43     070CSNA  FM    ON        000R$  000000000002200000000000250000000000022000000000002400000000000250000000000008000000000000000008000000000000021100000000000000527200000000000135002013121600000010000000000000BRCSNAACNOR6243
012013103082CSNAW11     080CSNAE FM    ON        000R$  000000000001500000000000150000000000014000000000001400000000000150000000000000000000000002400003000000000000006000000000000000089400000000000110002013111800000010000000000000BRCSNAACNOR6243
012013103082CSNAW12     080CSNAE FM    ON        000R$  000000000004500000000000450000000000045000000000004500000000000450000000000000000000000007700001000000000000002000000000000000090000000000000120002013111800000010000000000000BRCSNAACNOR6243
012013103082CSNAW41     080CSNAE FM    ON        000R$  000000000003000000000000300000000000030000000000003000000000000300000000000025000000000000000001000000000000000300000000000000009000000000000115002013111800000010000000000000BRCSNAACNOR6243
012013103082CSNAW42     080CSNAE FM    ON        000R$  000000000007600000000000760000000000074000000000007500000000000740000000000000000000000000000002000000000000002000000000000000150000000000000125002013111800000010000000000000BRCSNAACNOR6243
012013103082CSNAW9      080CSNAE       ON        000R$  000000000000100000000000010000000000001000000000000100000000000010000000000000000000000000100001000000000000003300000000000000003300000000000090002013111800000010000000000000BRCSNAACNOR6243
012013103082CSNAX11     080CSNAE       ON        000R$  000000000002200000000000220000000000022000000000002200000000000220000000000008000000000002200007000000000000000700000000000000015400000000000104702013121600000010000000000000BRCSNAACNOR6241
012013103082CSNAX12     080CSNAE FM    ON        000R$  000000000004900000000000510000000000048000000000004800000000000480000000000043000000000005500005000000000000005100000000000000245300000000000114702013121600000010000000000000BRCSNAACNOR6241
012013103002CTAX11      010CONTAX      UNT     N2   R$  000000000187500000000018790000000001849000000000186200000000018490000000001835000000000185000051000000000000017800000000000033148400000000000000009999123100000010000000000000BRCTAXCDAM19100
012013103096CTAX11F     020CONTAX      UNT     N2   R$  000000000187800000000018780000000001878000000000187800000000018780000000001878000000000188000001000000000000000009000000000000016902000000000000009999123100000010000000000000BRCTAXCDAM19100
012013103002CTAX3       010CONTAX      ON      N2   R$  000000000039600000000003990000000000370000000000037400000000003700000000000363000000000039400016000000000000008100000000000003034800000000000000009999123100000010000000000000BRCTAXACNOR3113
012013103002CTAX4       010CONTAX      PN      N2   R$  000000000036300000000003700000000000350000000000035900000000003650000000000363000000000037400057000000000000022100000000000007946000000000000000009999123100000010000000000000BRCTAXACNPR0114
012013103002CTIP3       010CETIP       ON      NM   R$  000000000249200000000024950000000002460000000000247600000000024800000000002474000000000248003793000000000000830200000000002056065300000000000000009999123100000010000000000000BRCTIPACNOR2120
012013103096CTIP3F      020CETIP       ON      NM   R$  000000000248700000000025590000000002461000000000248000000000024780000000002460000000000247700158000000000000004773000000000011783462000000000000009999123100000010000000000000BRCTIPACNOR2120
012013103078CTIPK25     070CTIP        ON      NM000R$  000000000003600000000000360000000000036000000000003600000000000360000000000000000000000000000002000000000000003300000000000000118800000000000249402013111800000010000000000000BRCTIPACNOR2119
012013103002CTNM4       010COTEMINAS   PN           R$  000000000023700000000002370000000000225000000000023000000000002250000000000225000000000023100012000000000000018600000000000004292300000000000000009999123100000010000000000000BRCTNMACNPR6128
012013103002CTSA3       010SANTANENSE  ON           R$  000000000054200000000005470000000000531000000000054500000000005310000000000535000000000054600004000000000000003400000000000001856200000000000000009999123100000010000000000000BRCTSAACNOR3051
012013103062CTSA3T      030SANTANENSE  ON        090R$  000000000055800000000005590000000000553000000000055700000000005540000000000000000000000000000004000000000000003300000000000001841145000000000000009999123100000010000000000000BRCTSAACNOR3051
012013103002CTSA4       010SANTANENSE  PN           R$  000000000055100000000005510000000000551000000000055100000000005510000000000546000000000055100003000000000000000700000000000000385700000000000000009999123100000010000000000000BRCTSAACNPR0051
012013103096CTSA4F      020SANTANENSE  PN           R$  000000000055000000000005500000000000550000000000055000000000005500000000000550000000000065000003000000000000000050000000000000027500000000000000009999123100000010000000000000BRCTSAACNPR0051
012013103012CXCE11B     010FII CX CEDAECI      MB   R$  000000019350000000001935000000000192501000000019325000000001925010000000192300000000019250100002000000000000000004000000000000773001000000000000009999123100000010000000000000BRCXCECTF004139
012013103012CXTL11      010FII CX TRX  CI           R$  000000007340000000000748000000000072800000000007398300000000728000000000072000000000007690000004000000000000000049000000000003625200000000000000009999123100000010000000000000BRCXTLCTF003123
012013103002CYRE3       010CYRELA REALTON      NM   R$  000000000167700000000016890000000001656000000000166700000000016740000000001672000000000167407094000000000002318000000000003864195700000000000000009999123100000010000000000000BRCYREACNOR7125
012013103096CYRE3F      020CYRELA REALTON      NM   R$  000000000170200000000017020000000001652000000000166800000000016560000000001655000000000167500021000000000000000638000000000001064702000000000000009999123100000010000000000000BRCYREACNOR7125
012013103062CYRE3T      030CYRELA REALTON      NM030R$  000000000168200000000016830000000001682000000000168200000000016830000000000000000000000000000002000000000000002000000000000003364048000000000000009999123100000010000000000000BRCYREACNOR7125
012013103062CYRE3T      030CYRELA REALTON      NM362R$  000000000185300000000018540000000001853000000000185300000000018540000000000000000000000000000002000000000000000100000000000000185353000000000000009999123100000010000000000000BRCYREACNOR7125
012013103078CYREA3      070CYRE        ON      NM000R$  000000000005800000000000600000000000058000000000005900000000000590000000000000000000000000000008000000000000016200000000000000956000000000000175002014012000000010000000000000BRCYREACNOR7124
012013103078CYREA4      070CYRE        ON      NM000R$  000000000004100000000000420000000000040000000000004100000000000400000000000000000000000000000003000000000000009000000000000000369000000000000180002014012000000010000000000000BRCYREACNOR7124
012013103078CYREK17     070CYRE  FM    ON      NM000R$  000000000003000000000000300000000000025000000000002800000000000300000000000000000000000000000007000000000000010200000000000000290000000000000170002013111800000010000000000000BRCYREACNOR7125
012013103078CYREK18     070CYRE  FM    ON      NM000R$  000000000000600000000000060000000000006000000000000600000000000060000000000000000000000000000001000000000000001000000000000000006000000000000180002013111800000010000000000000BRCYREACNOR7125
012013103078CYREK46     070CYRE  FM    ON      NM000R$  000000000005400000000000570000000000053000000000005600000000000540000000000000000000000000000010000000000000026400000000000001484600000000000165002013111800000010000000000000BRCYREACNOR7125
012013103078CYREK47     070CYRE  FM    ON      NM000R$  000000000001400000000000140000000000013000000000001300000000000130000000000000000000000000000002000000000000005400000000000000072100000000000175002013111800000010000000000000BRCYREACNOR7125
012013103078CYREL17     070CYRE  FM    ON      NM000R$  000000000008400000000000860000000000079000000000008200000000000860000000000000000000000000000005000000000000016000000000000001316000000000000165002013121600000010000000000000BRCYREACNOR7124
012013103078CYREL47     070CYRE  FM    ON      NM000R$  000000000003500000000000370000000000034000000000003500000000000360000000000000000000000000000114000000000000106900000000000003760200000000000175002013121600000010000000000000BRCYREACNOR7125
012013103078CYREL7      070CYRE  FM    ON      NM000R$  000000000005500000000000570000000000055000000000005500000000000570000000000000000000000000000004000000000000009000000000000000497000000000000170002013121600000010000000000000BRCYREACNOR7125
012013103082CYREW17     080CYREE FM    ON      NM000R$  000000000005600000000000560000000000055000000000005500000000000550000000000000000000000000000002000000000000007000000000000000388500000000000170002013111800000010000000000000BRCYREACNOR7125
012013103082CYREW18     080CYREE       ON      NM000R$  000000000012900000000001290000000000129000000000012900000000001290000000000000000000000000000001000000000000000200000000000000025800000000000180002013111800000010000000000000BRCYREACNOR7125
