00COTAHIST.2013BOVESPA 20131002                                                                                                                                                                                                                      
012013100202AAPL34      010APPLE       DRN          R$  000000001076000000000108000000000010760000000001078300000000108000000000010660000000001080500002000000000000001700000000000018332000000000000000009999123100000010000000000000BRAAPLBDR004105
012013100202ABCB4       010ABC BRASIL  PN      N2   R$  000000000130000000000013040000000001246000000000126100000000012460000000001246000000000126001558000000000000272900000000000344377700000000000000009999123100000010000000000000BRABCBACNPR4120
012013100296ABCB4F      020ABC BRASIL  PN      N2   R$  000000000125100000000013000000000001251000000000126000000000012580000000001251000000000126600010000000000000000280000000000000352823000000000000009999123100000010000000000000BRABCBACNPR4120
012013100212ABCP11      010FII ABC IMOBCI  ER       R$  000000000099600000000009960000000000996000000000099600000000009960000000000970000000000099900003000000000000000100000000000000099600000000000000009999123100000010000000000000BRABCPCTF000216
012013100202ABRE11      010ABRIL EDUCA UNT     N2   R$  000000000327800000000033620000000003233000000000332100000000033500000000003314000000000335000325000000000000080500000000000267362100000000000000009999123100000010000000000000BRABRECDAM15102
012013100296ABRE11F     020ABRIL EDUCA UNT     N2   R$  000000000320000000000033100000000003200000000000328400000000033100000000003350000000000349000003000000000000000018000000000000059118000000000000009999123100000010000000000000BRABRECDAM15102
012013100202ABTT34      010ABBOTT      DRN          R$  000000000184400000000018480000000001844000000000184700000000018480000000001830000000000187000002000000000000002400000000000004434800000000000000009999123100000010000000000000BRABTTBDR007107
012013100202AEDU3       010ANHANGUERA  ON      NM   R$  000000000130500000000013230000000001295000000000130300000000013060000000001300000000000130602708000000000001764600000000002299735900000000000000009999123100000010000000000000BRAEDUACNOR9107
012013100296AEDU3F      020ANHANGUERA  ON      NM   R$  000000000120100000000013680000000001201000000000130700000000013490000000001290000000000135000033000000000000000894000000000001168548000000000000009999123100000010000000000000BRAEDUACNOR9107
012013100262AEDU3T      030ANHANGUERA  ON      NM061R$  000000000132800000000013290000000001328000000000132800000000013290000000000000000000000000000002000000000000001000000000000001328012000000000000009999123100000010000000000000BRAEDUACNOR9107
012013100262AEDU3T      030ANHANGUERA  ON      NM120R$  000000000134100000000013410000000001341000000000134100000000013410000000000000000000000000000001000000000000000003000000000000004023000000000000009999123100000010000000000000BRAEDUACNOR9107
012013100212AEFI11      010FII AESAPAR CI  ER       R$  000000001207800000000120780000000012050000000001206500000000120500000000012011000000001217000009000000000000000295000000000003559378000000000000009999123100000010000000000000BRAEFICTF002122
012013100202AELP3       010AES ELPA    ON           R$  000000000095400000000009580000000000954000000000095700000000009580000000000935000000000095900005000000000000010400000000000009962800000000000000009999123100000010000000000000BRAELPACNOR2119
012013100262AELP3T      030AES ELPA    ON        030R$  000000000096500000000009660000000000965000000000096500000000009660000000000000000000000000000002000000000000010000000000000009656640000000000000009999123100000010000000000000BRAELPACNOR2119
012013100212AGCX11      010FII AG CAIXACI  ER       R$  000000009578900000000957890000000094600000000009516100000000950000000000095000000000009538900008000000000000000017000000000001617741000000000000009999123100000010000000000000BRAGCXCTF003111
012013100202AGRO3       010BRASILAGRO  ON      NM   R$  000000000101200000000010150000000000981000000000100300000000009950000000000995000000000100900277000000000000039300000000000039430000000000000000009999123100000010000000000000BRAGROACNOR7102
012013100296AGRO3F      020BRASILAGRO  ON      NM   R$  000000000095000000000009500000000000950000000000095000000000009500000000000876000000000095000001000000000000000018000000000000017100000000000000009999123100000010000000000000BRAGROACNOR7102
012013100202ALLL3       010ALL AMER LATON      NM   R$  000000000089000000000009130000000000889000000000090500000000009130000000000911000000000091303432000000000001027900000000000930996400000000000000009999123100000010000000000000BRALLLACNOR6118
012013100296ALLL3F      020ALL AMER LATON      NM   R$  000000000089000000000009200000000000890000000000090300000000009200000000000906000000000094400060000000000000001550000000000001400339000000000000009999123100000010000000000000BRALLLACNOR6118
012013100262ALLL3T      030ALL AMER LATON      NM016R$  000000000090900000000009100000000000909000000000090900000000009100000000000000000000000000000002000000000000010000000000000009099864000000000000009999123100000010000000000000BRALLLACNOR6118
012013100262ALLL3T      030ALL AMER LATON      NM030R$  000000000091600000000009170000000000916000000000091600000000009170000000000000000000000000000002000000000000013000000000000011912718000000000000009999123100000010000000000000BRALLLACNOR6118
012013100262ALLL3T      030ALL AMER LATON      NM061R$  000000000091700000000009200000000000917000000000091900000000009200000000000000000000000000000004000000000000021900000000000020141467000000000000009999123100000010000000000000BRALLLACNOR6118
012013100212ALMI11B     010FII TORRE ALCI  ER  MB   R$  000000031000300000003129500000000310003000000031133900000003129500000000312502000000031498900005000000000000000070000000000021793787000000000000009999123100000010000000000000BRALMICTF003206
012013100296ALPA3F      020ALPARGATAS  ON      N1   R$  000000000129900000000012990000000001299000000000129900000000012990000000001145000000000129900001000000000000000001000000000000001299000000000000009999123100000010000000000000BRALPAACNOR0203
012013100202ALPA4       010ALPARGATAS  PN      N1   R$  000000000144900000000014490000000001433000000000143900000000014400000000001440000000000144300903000000000000227100000000000326883400000000000000009999123100000010000000000000BRALPAACNPR7203
012013100296ALPA4F      020ALPARGATAS  PN      N1   R$  000000000144000000000014430000000001430000000000143800000000014300000000001420000000000144100011000000000000000299000000000000430232000000000000009999123100000010000000000000BRALPAACNPR7203
012013100262ALPA4T      030ALPARGATAS  PN      N1016R$  000000000144600000000014470000000001446000000000144600000000014470000000000000000000000000000002000000000000000100000000000000144648000000000000009999123100000010000000000000BRALPAACNPR7203
012013100262ALPA4T      030ALPARGATAS  PN      N1030R$  000000000145100000000014520000000001451000000000145100000000014520000000000000000000000000000002000000000000000300000000000000435456000000000000009999123100000010000000000000BRALPAACNPR7203
012013100262ALPA4T      030ALPARGATAS  PN      N1120R$  000000000148600000000014870000000001486000000000148600000000014870000000000000000000000000000002000000000000000005000000000000007431000000000000009999123100000010000000000000BRALPAACNPR7203
012013100202ALSC3       010ALIANSCE    ON      NM   R$  000000000202000000000020810000000002011000000000205800000000020540000000002054000000000206101297000000000000398600000000000820645600000000000000009999123100000010000000000000BRALSCACNOR0104
012013100296ALSC3F      020ALIANSCE    ON      NM   R$  000000000206200000000020650000000002062000000000206400000000020650000000001951000000000211500002000000000000000095000000000000196100000000000000009999123100000010000000000000BRALSCACNOR0104
012013100202ALUP11      010ALUPAR      UNT     N2   R$  000000000172900000000017300000000001710000000000171800000000017200000000001717000000000173000228000000000000103700000000000178259600000000000000009999123100000010000000000000BRALUPCDAM15100
012013100296ALUP11F     020ALUPAR      UNT     N2   R$  000000000173000000000017300000000001701000000000171400000000017300000000001701000000000175000026000000000000000752000000000001289469000000000000009999123100000010000000000000BRALUPCDAM15100
012013100262ALUP11T     030ALUPAR      UNT     N2030R$  000000000174000000000017410000000001740000000000174000000000017410000000000000000000000000000002000000000000002000000000000003480360000000000000009999123100000010000000000000BRALUPCDAM15100
012013100202AMAR3       010LOJAS MARISAON      NM   R$  000000000209900000000021290000000002079000000000210500000000021110000000002106000000000211302082000000000000468700000000000986673400000000000000009999123100000010000000000000BRAMARACNOR4109
012013100296AMAR3F      020LOJAS MARISAON      NM   R$  000000000210000000000021110000000002081000000000210200000000020970000000002085000000000210400019000000000000000368000000000000773713000000000000009999123100000010000000000000BRAMARACNOR4109
012013100202AMBV3       010AMBEV       ON           R$  000000000853300000000085450000000008426000000000848000000000084820000000008482000000000848700649000000000000162600000000001379007600000000000000009999123100000010000000000000BRAMBVACNOR4154
012013100296AMBV3F      020AMBEV       ON           R$  000000000850000000000085890000000008430000000000849400000000084900000000008507000000000858000048000000000000000930000000000007899709000000000000009999123100000010000000000000BRAMBVACNOR4154
012013100202AMBV4       010AMBEV       PN           R$  000000000851500000000085500000000008425000000000848500000000085150000000008510000000000851504178000000000000791200000000006714019300000000000000009999123100000010000000000000BRAMBVACNPR1154
012013100296AMBV4F      020AMBEV       PN           R$  000000000856000000000085600000000008432000000000848400000000085000000000008500000000000853000158000000000000004207000000000035702204000000000000009999123100000010000000000000BRAMBVACNPR1154
012013100262AMBV4T      030AMBEV       PN        060R$  000000000857800000000085790000000008578000000000857800000000085790000000000000000000000000000002000000000000001600000000000013724966000000000000009999123100000010000000000000BRAMBVACNPR1154
012013100262AMBV4T      030AMBEV       PN        061R$  000000000859300000000085940000000008593000000000859300000000085940000000000000000000000000000002000000000000001300000000000011171549000000000000009999123100000010000000000000BRAMBVACNPR1154
012013100262AMBV4T      030AMBEV       PN        120R$  000000000876000000000087600000000008760000000000876000000000087600000000000000000000000000000001000000000000000001000000000000008760000000000000009999123100000010000000000000BRAMBVACNPR1154
012013100278AMBVJ84     070AMBV        PN        000R$  000000000024000000000002400000000000240000000000024000000000002400000000000000000000000000000001000000000000000100000000000000024000000000000833502013102100000010000000000000BRAMBVACNPR1153
012013100278AMBVJ85     070AMBV        PN        000R$  000000000020000000000002000000000000194000000000019700000000001940000000000000000000000020000002000000000000000200000000000000039400000000000843502013102100000010000000000000BRAMBVACNPR1153
012013100202AMGN34      010AMGEN       DRN          R$  000000002474000000000248420000000024740000000002480800000000248420000000024590000000002499000002000000000000000300000000000007442400000000000000009999123100000010000000000000BRAMGNBDR004107
012013100202AORE3       010ALL ORE     ON           R$  000000000013100000000001310000000000131000000000013100000000001310000000000131000000000075000001000000000000000100000000000000013100000000000000009999123100000010000000000000BRAOREACNOR2100
012013100202ARTR3       010ARTERIS     ON      NM   R$  000000000197500000000019750000000001939000000000195800000000019550000000001955000000000197200966000000000000201400000000000394486200000000000000009999123100000010000000000000BRARTRACNOR3101
012013100296ARTR3F      020ARTERIS     ON      NM   R$  000000000197500000000019750000000001880000000000195300000000019680000000001950000000000197500032000000000000000830000000000001619977000000000000009999123100000010000000000000BRARTRACNOR3101
012013100262ARTR3T      030ARTERIS     ON      NM120R$  000000000202700000000020280000000002027000000000202700000000020280000000000000000000000000000002000000000000000002000000000000004055000000000000009999123100000010000000000000BRARTRACNOR3101
012013100202ARZZ3       010AREZZO CO   ON      NM   R$  000000000386600000000038660000000003817000000000383800000000038380000000003824000000000384000713000000000000148900000000000571480600000000000000009999123100000010000000000000BRARZZACNOR3109
012013100296ARZZ3F      020AREZZO CO   ON      NM   R$  000000000384500000000038450000000003845000000000384500000000038450000000003656000000000390000001000000000000000050000000000000192250000000000000009999123100000010000000000000BRARZZACNOR3109
012013100202AUTM3       010AUTOMETAL   ON      NM   R$  000000000183500000000018550000000001831000000000184800000000018550000000001855000000000185600210000000000000045700000000000084492200000000000000009999123100000010000000000000BRAUTMACNOR8109
012013100296AUTM3F      020AUTOMETAL   ON      NM   R$  000000000184700000000018540000000001847000000000184800000000018500000000001768000000000186000003000000000000000055000000000000101673000000000000009999123100000010000000000000BRAUTMACNOR8109
012013100202AXPB34      010AMERICAN EXPDRN ED       R$  000000001640300000000164030000000016403000000001640300000000164030000000016099000000001657600001000000000000000400000000000006561200000000000000009999123100000010000000000000BRAXPBBDR007106
012013100202AZEV4       010AZEVEDO     PN           R$  000000000014000000000001400000000000125000000000012700000000001250000000000121000000000012500008000000000000007500000000000000952500000000000000009999123100000010000000000000BRAZEVACNPR7113
012013100202BAHI3       010BAHEMA      ON           R$  000000000049100000000004910000000000479000000000048300000000004790000000000477000000000051500011000000000000014400000000000006958100000000000000009999123100000010000000000000BRBAHIACNOR1066
012013100202BAZA3       010AMAZONIA    ON           R$  000000000003200000000000320000000000032000000000003200000000000320000000000032000000000003300001000000000000027000000000000000864000000000000000009999123100000010000000000000BRBAZAACNOR0163
012013100296BAZA3F      020AMAZONIA    ON           R$  000000000003100000000000310000000000031000000000003100000000000310000000000032000000000003500001000000000000000120000000000000003720000000000000009999123100000010000000000000BRBAZAACNOR0163
012013100202BBAS3       010BRASIL      ON      NM   R$  000000000259300000000026210000000002585000000000260100000000026140000000002612000000000261408922000000000003372500000000008774535700000000000000009999123100000010000000000000BRBBASACNOR3239
012013100296BBAS3F      020BRASIL      ON      NM   R$  000000000260000000000026200000000002585000000000260000000000026020000000002602000000000260400229000000000000007682000000000019975964000000000000009999123100000010000000000000BRBBASACNOR3239
012013100262BBAS3T      030BRASIL      ON      NM061R$  000000000262800000000026380000000002628000000000263500000000026380000000000000000000000000000004000000000000001250000000000003294057000000000000009999123100000010000000000000BRBBASACNOR3239
012013100262BBAS3T      030BRASIL      ON      NM120R$  000000000267900000000026790000000002679000000000267900000000026790000000000000000000000000000001000000000000000001000000000000002679000000000000009999123100000010000000000000BRBBASACNOR3239
012013100278BBASJ24     070BBAS        ON      NM000R$  000000000035000000000003500000000000340000000000034100000000003400000000000250000000000036000005000000000000005500000000000001879000000000000227102013102100000010000000000000BRBBASACNOR3236
012013100278BBASJ25     070BBAS  FM    ON      NM000R$  000000000021900000000002390000000000209000000000022300000000002090000000000200000000000031600075000000000000127500000000000028466300000000000239502013102100000010000000000000BRBBASACNOR3237
012013100278BBASJ26     070BBAS  FM    ON      NM000R$  000000000016000000000001790000000000153000000000016400000000001620000000000150000000000000000060000000000000115000000000000018870300000000000246102013102100000010000000000000BRBBASACNOR3235
012013100278BBASJ27     070BBAS  FM    ON      NM000R$  000000000008000000000000980000000000079000000000008500000000000830000000000071000000000009100048000000000000073200000000000006241800000000000256102013102100000010000000000000BRBBASACNOR3235
012013100278BBASJ28     070BBAS  FM    ON      NM000R$  000000000002000000000000280000000000020000000000002200000000000200000000000020000000000002300035000000000000096800000000000002199700000000000269502013102100000010000000000000BRBBASACNOR3237
012013100278BBASJ29     070BBAS  FM    ON      NM000R$  000000000001000000000000100000000000009000000000000900000000000100000000000010000000000001100012000000000000046000000000000000419900000000000276102013102100000010000000000000BRBBASACNOR3235
012013100278BBASJ30     070BBAS        ON      NM000R$  000000000000300000000000030000000000003000000000000300000000000030000000000002000000000000300001000000000000020000000000000000060000000000000286102013102100000010000000000000BRBBASACNOR3235
012013100278BBASJ56     070BBAS        ON      NM000R$  000000000012200000000001220000000000122000000000012200000000001220000000000000000000000000000001000000000000002000000000000000244000000000000251102013102100000010000000000000BRBBASACNOR3235
012013100278BBASK25     070BBAS  FM    ON      NM000R$  000000000026800000000002880000000000267000000000027400000000002690000000000000000000000000000029000000000000054300000000000014919700000000000237102013111800000010000000000000BRBBASACNOR3236
012013100278BBASK26     070BBAS  FM    ON      NM000R$  000000000018200000000002040000000000182000000000019000000000001880000000000170000000000021500017000000000000029600000000000005649800000000000247102013111800000010000000000000BRBBASACNOR3236
012013100278BBASK27     070BBAS  FM    ON      NM000R$  000000000011500000000001290000000000115000000000012300000000001180000000000045000000000000000030000000000000058000000000000007180100000000000257102013111800000010000000000000BRBBASACNOR3236
012013100278BBASK28     070BBAS  FM    ON      NM000R$  000000000006600000000000730000000000066000000000007000000000000690000000000060000000000007400052000000000000108200000000000007625000000000000267102013111800000010000000000000BRBBASACNOR3236
012013100278BBASK29     070BBAS  FM    ON      NM000R$  000000000002700000000000300000000000027000000000002900000000000290000000000020000000000002800008000000000000005700000000000000166800000000000279502013111800000010000000000000BRBBASACNOR3237
012013100278BBASK30     070BBAS        ON      NM000R$  000000000001400000000000140000000000014000000000001400000000000140000000000013000000000002000001000000000000000100000000000000001400000000000289502013111800000010000000000000BRBBASACNOR3237
012013100278BBASK57     070BBAS        ON      NM000R$  000000000003600000000000360000000000036000000000003600000000000360000000000000000000000000000001000000000000001000000000000000036000000000000275002013111800000010000000000000BRBBASACNOR3239
012013100278BBASL28     070BBAS        ON      NM000R$  000000000009100000000000910000000000087000000000009000000000000870000000000079000000000000000005000000000000302400000000000027321600000000000269502013121600000010000000000000BRBBASACNOR3237
012013100278BBASL59     070BBAS        ON      NM000R$  000000000002200000000000240000000000022000000000002200000000000240000000000000000000000000000005000000000000015000000000000000339000000000000295002013121600000010000000000000BRBBASACNOR3239
012013100282BBASV25     080BBASE FM    ON      NM000R$  000000000000800000000000080000000000007000000000000700000000000070000000000000000000000001200004000000000000015500000000000000123000000000000239502013102100000010000000000000BRBBASACNOR3237
012013100282BBASV26     080BBASE FM    ON      NM000R$  000000000001500000000000160000000000013000000000001500000000000130000000000010000000000001800007000000000000011900000000000000180000000000000246102013102100000010000000000000BRBBASACNOR3235
012013100282BBASV27     080BBASE FM    ON      NM000R$  000000000003900000000000410000000000031000000000003700000000000370000000000025000000000004500033000000000000052800000000000001966400000000000256102013102100000010000000000000BRBBASACNOR3235
012013100282BBASV28     080BBASE       ON      NM000R$  000000000010300000000001080000000000103000000000010600000000001080000000000094000000000013300005000000000000001400000000000000148700000000000269502013102100000010000000000000BRBBASACNOR3237
012013100282BBASW26     080BBASE FM    ON      NM000R$  000000000003900000000000390000000000035000000000003600000000000360000000000035000000000004500007000000000000001800000000000000065300000000000247102013111800000010000000000000BRBBASACNOR3236
012013100282BBASW27     080BBASE FM    ON      NM000R$  000000000006500000000000650000000000065000000000006500000000000650000000000000000000000000000001000000000000001200000000000000078000000000000257102013111800000010000000000000BRBBASACNOR3236
012013100282BBASW28     080BBASE       ON      NM000R$  000000000012300000000001230000000000107000000000011200000000001070000000000000000000000012200004000000000000004400000000000000496000000000000267102013111800000010000000000000BRBBASACNOR3236
012013100282BBASX25     080BBASE       ON      NM000R$  000000000003200000000000320000000000032000000000003200000000000320000000000030000000000004200001000000000000003000000000000000096000000000000236102013121600000010000000000000BRBBASACNOR3235
012013100202BBDC3       010BRADESCO    ON  EJ  N1   R$  000000000348200000000035530000000003482000000000353100000000035260000000003526000000000354202593000000000000747900000000002641379900000000000000009999123100000010000000000000BRBBDCACNOR1607
012013100296BBDC3F      020BRADESCO    ON  EJ  N1   R$  000000000347700000000035550000000003464000000000352200000000035400000000003464000000000359900060000000000000001819000000000006407824000000000000009999123100000010000000000000BRBBDCACNOR1607
012013100202BBDC4       010BRADESCO    PN  EJ  N1   R$  000000000307000000000031190000000003062000000000309800000000030850000000003085000000000308812570000000000004791600000000014848655200000000000000009999123100000010000000000000BRBBDCACNPR8607
012013100296BBDC4F      020BRADESCO    PN  EJ  N1   R$  000000000308000000000031190000000003066000000000309800000000030840000000003067000000000309000196000000000000004896000000000015169460000000000000009999123100000010000000000000BRBBDCACNPR8607
012013100262BBDC4T      030BRADESCO    PN  EJ  N1061R$  000000000311200000000031130000000003112000000000311200000000031130000000000000000000000000000002000000000000005000000000000015561830000000000000009999123100000010000000000000BRBBDCACNPR8607
012013100262BBDC4T      030BRADESCO    PN  EJ  N1120R$  000000000321500000000032150000000003215000000000321500000000032150000000000000000000000000000001000000000000000002000000000000006430000000000000009999123100000010000000000000BRBBDCACNPR8607
012013100278BBDCA34     070BBDC    /EJ PN      N1000R$  000000000008000000000000800000000000080000000000008000000000000800000000000000000000000000000002000000000000006200000000000000496000000000000339402014012000000010000000000000BRBBDCACNPR8604
012013100278BBDCC31     070BBDC    /EJ PN      N1000R$  000000000026600000000002660000000000266000000000026600000000002660000000000000000000000000000001000000000000001200000000000000319200000000000310002014031700000010000000000000BRBBDCACNPR8607
012013100278BBDCJ1      070BBDC    /EJ PN      N1000R$  000000000005300000000000530000000000053000000000005300000000000530000000000000000000000000000001000000000000002700000000000000143100000000000314202013102100000010000000000000BRBBDCACNPR8603
012013100278BBDCJ29     070BBDC    /EJ PN      N1000R$  000000000025000000000002520000000000240000000000024600000000002400000000000230000000000026000007000000000000012100000000000002984000000000000287402013102100000010000000000000BRBBDCACNPR8602
012013100278BBDCJ30     070BBDC    /EJ PN      N1000R$  000000000014900000000001780000000000136000000000016000000000001550000000000091000000000017800169000000000000184400000000000029592500000000000297402013102100000010000000000000BRBBDCACNPR8602
012013100278BBDCJ31     070BBDC    /EJ PN      N1000R$  000000000008200000000001010000000000074000000000009000000000000850000000000070000000000010000069000000000000140900000000000012686600000000000307402013102100000010000000000000BRBBDCACNPR8602
012013100278BBDCJ32     070BBDC    /EJ PN      N1000R$  000000000003600000000000470000000000032000000000004200000000000360000000000032000000000005200130000000000000121000000000000005127900000000000317402013102100000010000000000000BRBBDCACNPR8602
012013100278BBDCJ33     070BBDC    /EJ PN      N1000R$  000000000001600000000000190000000000014000000000001700000000000140000000000011000000000002300020000000000000032700000000000000560400000000000327402013102100000010000000000000BRBBDCACNPR8602
012013100278BBDCJ34     070BBDC    /EJ PN      N1000R$  000000000000700000000000080000000000005000000000000600000000000080000000000000000000000000800020000000000000045400000000000000273000000000000337002013102100000010000000000000BRBBDCACNPR8600
012013100278BBDCK30     070BBDC    /EJ PN      N1000R$  000000000018000000000002020000000000168000000000019300000000001800000000000180000000000020900303000000000000156700000000000030307400000000000299602013111800000010000000000000BRBBDCACNPR8605
012013100278BBDCK31     070BBDC    /EJ PN      N1000R$  000000000012300000000001330000000000120000000000012500000000001200000000000111000000000013000008000000000000007100000000000000891600000000000309602013111800000010000000000000BRBBDCACNPR8605
012013100278BBDCK32     070BBDC    /EJ PN      N1000R$  000000000008000000000000950000000000080000000000009000000000000920000000000071000000000009800013000000000000014300000000000001298100000000000317202013111800000010000000000000BRBBDCACNPR8601
012013100278BBDCK33     070BBDC    /EJ PN      N1000R$  000000000005600000000000560000000000048000000000005300000000000530000000000036000000000005700313000000000000242700000000000013036900000000000327402013111800000010000000000000BRBBDCACNPR8602
012013100278BBDCK34     070BBDC    /EJ PN      N1000R$  000000000002500000000000280000000000022000000000002500000000000220000000000011000000000000000012000000000000015400000000000000389000000000000339402013111800000010000000000000BRBBDCACNPR8604
012013100278BBDCK35     070BBDC    /EJ PN      N1000R$  000000000001400000000000140000000000014000000000001400000000000140000000000000000000000000000001000000000000001500000000000000021000000000000347402013111800000010000000000000BRBBDCACNPR8602
012013100278BBDCL3      070BBDC    /EJ PN      N1000R$  000000000008300000000000830000000000081000000000008200000000000820000000000000000000000000000004000000000000012000000000000000984000000000000327002013121600000010000000000000BRBBDCACNPR8601
012013100278BBDCL36     070BBDC    /EJ PN      N1000R$  000000000010100000000001010000000000094000000000009600000000000940000000000000000000000000000004000000000000008400000000000000808200000000000323902013121600000010000000000000BRBBDCACNPR8597
012013100282BBDCM59     080BBDCE   /EJ PN      N1000R$  000000000008500000000000850000000000085000000000008500000000000850000000000000000000000000000002000000000000002400000000000000204000000000000294602014012000000010000000000000BRBBDCACNPR8605
012013100282BBDCN28     080BBDCE   /EJ PN      N1000R$  000000000006400000000000640000000000064000000000006400000000000640000000000000000000000000000002000000000000002400000000000000153600000000000280002014021700000010000000000000BRBBDCACNPR8607
012013100282BBDCV1      080BBDCE   /EJ PN      N1000R$  000000000008300000000000830000000000080000000000008100000000000800000000000000000000000000000002000000000000003400000000000000275600000000000314202013102100000010000000000000BRBBDCACNPR8603
012013100282BBDCV24     080BBDCE   /EJ PN      N1000R$  000000000000200000000000020000000000002000000000000200000000000020000000000000000000000000000001000000000000000100000000000000000200000000000239402013102100000010000000000000BRBBDCACNPR8604
012013100282BBDCV25     080BBDCE   /EJ PN      N1000R$  000000000000200000000000020000000000002000000000000200000000000020000000000000000000000000000002000000000000018900000000000000037800000000000249202013102100000010000000000000BRBBDCACNPR8603
012013100282BBDCV29     080BBDCE   /EJ PN      N1000R$  000000000001100000000000110000000000009000000000000900000000000090000000000000000000000002000004000000000000002600000000000000023900000000000287402013102100000010000000000000BRBBDCACNPR8602
012013100282BBDCV30     080BBDCE   /EJ PN      N1000R$  000000000002900000000000290000000000022000000000002400000000000230000000000000000000000000000009000000000000015800000000000000394600000000000297402013102100000010000000000000BRBBDCACNPR8602
012013100282BBDCV31     080BBDCE   /EJ PN      N1000R$  000000000006500000000000650000000000048000000000005100000000000550000000000000000000000005500019000000000000044100000000000002277200000000000307402013102100000010000000000000BRBBDCACNPR8602
012013100282BBDCV32     080BBDCE   /EJ PN      N1000R$  000000000012700000000001270000000000093000000000010400000000001080000000000000000000000011100034000000000000057500000000000005986500000000000317402013102100000010000000000000BRBBDCACNPR8602
012013100282BBDCW30     080BBDCE   /EJ PN      N1000R$  000000000006400000000000640000000000050000000000005200000000000540000000000000000000000000000253000000000000109200000000000005707400000000000299602013111800000010000000000000BRBBDCACNPR8605
012013100282BBDCW31     080BBDCE   /EJ PN      N1000R$  000000000010100000000001010000000000088000000000009100000000000920000000000000000000000000000005000000000000010000000000000000919700000000000309602013111800000010000000000000BRBBDCACNPR8605
012013100282BBDCW32     080BBDCE   /EJ PN      N1000R$  000000000014100000000001410000000000123000000000013100000000001300000000000000000000000000000009000000000000016600000000000002176100000000000317202013111800000010000000000000BRBBDCACNPR8601
012013100282BBDCW9      080BBDCE   /EJ PN      N1000R$  000000000003300000000000340000000000030000000000003100000000000310000000000000000000000000000010000000000000017600000000000000559400000000000289602013111800000010000000000000BRBBDCACNPR8605
012013100282BBDCX1      080BBDCE   /EJ PN      N1000R$  000000000009600000000001000000000000096000000000009700000000001000000000000000000000000000000007000000000000011400000000000001113200000000000307002013121600000010000000000000BRBBDCACNPR8600
012013100282BBDCX3      080BBDCE   /EJ PN      N1000R$  000000000019400000000001990000000000194000000000019600000000001990000000000000000000000000000002000000000000004000000000000000786000000000000327002013121600000010000000000000BRBBDCACNPR8601
012013100282BBDCX31     080BBDCE   /EJ PN      N1000R$  000000000003000000000000300000000000030000000000003000000000000300000000000000000000000000000001000000000000002000000000000000060000000000000278402013121600000010000000000000BRBBDCACNPR8597
012013100282BBDCX32     080BBDCE   /EJ PN      N1000R$  000000000013900000000001440000000000139000000000014000000000001440000000000000000000000000000011000000000000013300000000000001867700000000000317002013121600000010000000000000BRBBDCACNPR8600
012013100282BBDCX33     080BBDCE   /EJ PN      N1000R$  000000000006600000000000660000000000065000000000006500000000000660000000000000000000000000000003000000000000005600000000000000367600000000000296802013121600000010000000000000BRBBDCACNPR8598
012013100282BBDCX36     080BBDCE   /EJ PN      N1000R$  000000000017500000000001800000000000175000000000017600000000001800000000000000000000000000000002000000000000003000000000000000530000000000000323902013121600000010000000000000BRBBDCACNPR8597
012013100212BBFI11B     010FII BB PROGRCI  ER  MB   R$  000000042390000000004239990000000421500000000042231600000004215000000000420501000000042150000003000000000000000006000000000002533899000000000000009999123100000010000000000000BRBBFICTF006199
012013100212BBPO11      010FII BB PRGIICI  ER       R$  000000001107000000000111450000000011035000000001110700000000110700000000011066000000001107000178000000000000019351000000000214935166000000000000009999123100000010000000000000BRBBPOCTF003111
012013100212BBRC11      010FII BB CORP CI  ER       R$  000000000910000000000091000000000008955000000000903400000000090000000000008961000000000900000014000000000000000721000000000006513515000000000000009999123100000010000000000000BRBBRCCTF004125
012013100202BBRK3       010BR BROKERS  ON      NM   R$  000000000059200000000005930000000000581000000000058600000000005860000000000585000000000058702039000000000002429700000000001424355600000000000000009999123100000010000000000000BRBBRKACNOR4108
012013100296BBRK3F      020BR BROKERS  ON      NM   R$  000000000058500000000005870000000000566000000000057800000000005830000000000600000000000065000005000000000000000158000000000000091442000000000000009999123100000010000000000000BRBBRKACNOR4108
012013100202BBSE3       010BBSEGURIDADEON      NM   R$  000000000223000000000022440000000002202000000000221700000000022100000000002209000000000221007372000000000004816600000000010678455300000000000000009999123100000010000000000000BRBBSEACNOR5101
012013100296BBSE3F      020BBSEGURIDADEON      NM   R$  000000000222000000000022400000000002200000000000221800000000022100000000002200000000000221000392000000000000013094000000000029046788000000000000009999123100000010000000000000BRBBSEACNOR5101
012013100262BBSE3T      030BBSEGURIDADEON      NM030R$  000000000223000000000022310000000002230000000000223000000000022310000000000000000000000000000002000000000000000500000000000001115192000000000000009999123100000010000000000000BRBBSEACNOR5101
012013100262BBSE3T      030BBSEGURIDADEON      NM090R$  000000000226700000000022680000000002267000000000226700000000022680000000000000000000000000000002000000000000005000000000000011338205000000000000009999123100000010000000000000BRBBSEACNOR5101
012013100262BBSE3T      030BBSEGURIDADEON      NM092R$  000000000227200000000022750000000002256000000000226800000000022570000000000000000000000000000030000000000000500000000000001134488717000000000000009999123100000010000000000000BRBBSEACNOR5101
012013100202BBTG11      010BTG PACTUAL UNT          R$  000000000274100000000028460000000002740000000000281700000000028390000000002820000000000283900709000000000000174400000000000491376700000000000000009999123100000010000000000000BRBBTGUNT007105
012013100296BBTG11F     020BTG PACTUAL UNT          R$  000000000277400000000028490000000002766000000000280800000000028490000000002800000000000284900007000000000000000277000000000000777911000000000000009999123100000010000000000000BRBBTGUNT007105
012013100212BBVJ11      010FII C JARDIMCI  ER       R$  000000000769000000000079000000000007690000000000777700000000078000000000007700000000000788900009000000000000000134000000000001042230000000000000009999123100000010000000000000BRBBVJCTF001134
012013100212BCFF11B     010FII BC FFII CI      MB   R$  000000000925000000000092500000000009085000000000910400000000090860000000009075000000000908600220000000000000011008000000000100224481000000000000009999123100000010000000000000BRBCFFCTF000142
012013100202BDLL4       010BARDELLA    PN           R$  000000000540000000000054500000000005300000000000539900000000054500000000005300000000000545000004000000000000000400000000000002159900000000000000009999123100000010000000000000BRBDLLACNPR8149
012013100202BEEF3       010MINERVA     ON      NM   R$  000000000100000000000010150000000000987000000000100600000000010140000000001009000000000101402471000000000000690200000000000694701900000000000000009999123100000010000000000000BRBEEFACNOR6104
012013100296BEEF3F      020MINERVA     ON      NM   R$  000000000100000000000010120000000001000000000000100700000000010120000000000971000000000101200009000000000000000290000000000000292068000000000000009999123100000010000000000000BRBEEFACNOR6104
012013100202BEES3       010BANESTES    ON  EJ       R$  000000000005100000000000510000000000049000000000004900000000000490000000000049000000000005000014000000000000134700000000000006610500000000000000009999123100000010000000000000BRBEESACNOR9245
012013100202BEES4       010BANESTES    PN  EJ       R$  000000000004400000000000460000000000044000000000004400000000000460000000000044000000000004600004000000000000012100000000000000534400000000000000009999123100000010000000000000BRBEESACNPR6170
012013100202BEMA3       010BEMATECH    ON      NM   R$  000000000077900000000007900000000000775000000000078300000000007820000000000782000000000078400434000000000000080900000000000063407800000000000000009999123100000010000000000000BRBEMAACNOR0114
012013100296BEMA3F      020BEMATECH    ON      NM   R$  000000000077500000000007850000000000775000000000077900000000007850000000000766000000000078500004000000000000000134000000000000104470000000000000009999123100000010000000000000BRBEMAACNOR0114
012013100262BEMA3T      030BEMATECH    ON      NM061R$  000000000079600000000007970000000000794000000000079500000000007950000000000000000000000000000006000000000000010000000000000007955247000000000000009999123100000010000000000000BRBEMAACNOR0114
012013100202BHGR3       010BHG         ON      NM   R$  000000000145900000000014730000000001450000000000145800000000014540000000001454000000000147000114000000000000025600000000000037340100000000000000009999123100000010000000000000BRBHGRACNOR9101
012013100202BICB4       010BICBANCO    PN      N1   R$  000000000045100000000004620000000000450000000000045700000000004620000000000462000000000046400033000000000000030500000000000013942900000000000000009999123100000010000000000000BRBICBACNPR7131
012013100202BISA3       010BROOKFIELD  ON      NM   R$  000000000016400000000001670000000000162000000000016500000000001650000000000165000000000016602566000000000005025300000000000830004400000000000000009999123100000010000000000000BRBISAACNOR8109
012013100296BISA3F      020BROOKFIELD  ON      NM   R$  000000000016500000000001690000000000162000000000016300000000001640000000000164000000000016500015000000000000000477000000000000078052000000000000009999123100000010000000000000BRBISAACNOR8109
012013100262BISA3T      030BROOKFIELD  ON      NM016R$  000000000016500000000001660000000000165000000000016500000000001660000000000000000000000000000002000000000000024000000000000003977424000000000000009999123100000010000000000000BRBISAACNOR8109
012013100262BISA3T      030BROOKFIELD  ON      NM030R$  000000000016600000000001670000000000166000000000016600000000001670000000000000000000000000000002000000000000005000000000000000832260000000000000009999123100000010000000000000BRBISAACNOR8109
012013100202BMEB3       010MERC BRASIL ON           R$  000000000163500000000016350000000001561000000000159200000000015610000000001561000000000168000004000000000000000700000000000001114900000000000000009999123100000010000000000000BRBMEBACNOR8190
012013100202BMEB4       010MERC BRASIL PN           R$  000000000110000000000011000000000001100000000000110000000000011000000000001000000000000110000003000000000000003400000000000003740000000000000000009999123100000010000000000000BRBMEBACNPR5191
012013100202BMIN4       010MERC INVEST PN           R$  000000000002500000000000250000000000025000000000002500000000000250000000000025000000000002600004000000000000010000000000000000250000000000000000009999123100000010000000000000BRBMINACNPR1160
012013100202BMKS3       010BIC MONARK  ON           R$  000000003400000000000340000000000034000000000003400000000000340000000000032000000000003450000002000000000000000007000000000000238000000000000000009999123100000010000000000000BRBMKSACNOR9155
012013100212BMLC11B     010FII BMBRC LCCI      MB   R$  000000001135000000000114100000000011310000000001139300000000114000000000011400000000001160000024000000000000001874000000000021350690000000000000009999123100000010000000000000BRBMLCCTF004119
012013100202BMTO4       010BRASMOTOR   PN           R$  000000000008800000000000880000000000088000000000008800000000000880000000000086000000000008700001000000000000001000000000000000088000000000000000009999123100000010000000000000BRBMTOACNPR6065
012013100202BOAC34      010BANK AMERICADRN          R$  000000000308100000000030860000000003081000000000308500000000030860000000003050000000000311000002000000000000002600000000000008023100000000000000009999123100000010000000000000BRBOACBDR004112
012013100202BOEI34      010BOEING      DRN          R$  000000002559400000000256630000000025594000000002565100000000256630000000025453000000002620800002000000000000000600000000000015390900000000000000009999123100000010000000000000BRBOEIBDR003106
012013100214BOVA11      010ISHARES BOVACI           R$  000000000519500000000052170000000005157000000000518800000000051910000000005191000000000519301802000000000000603250000000003130058180000000000000009999123100000010000000000000BRBOVACTF003101
012013100296BOVA11F     020ISHARES BOVACI           R$  000000000519500000000052570000000005170000000000519900000000051700000000005170000000000520300009000000000000000035000000000000181988000000000000009999123100000010000000000000BRBOVACTF003101
012013100262BOVA11T     030ISHARES BOVACI        120R$  000000000533100000000053310000000005331000000000533100000000053310000000000000000000000000000001000000000000000001000000000000005331000000000000009999123100000010000000000000BRBOVACTF003101
012013100212BPFF11      010FII ABSOLUTOCI  ER       R$  000000000839000000000083900000000008071000000000812200000000082900000000008220000000000829000026000000000000003977000000000032302368000000000000009999123100000010000000000000BRBPFFCTF002106
012013100202BPHA3       010BR PHARMA   ON      NM   R$  000000000077900000000008000000000000777000000000078800000000007900000000000790000000000079501000000000000000332600000000000262223700000000000000009999123100000010000000000000BRBPHAACNOR6102
012013100296BPHA3F      020BR PHARMA   ON      NM   R$  000000000077500000000008440000000000775000000000084100000000008440000000000786000000000079200002000000000000000098000000000000082436000000000000009999123100000010000000000000BRBPHAACNOR6102
012013100262BPHA3T      030BR PHARMA   ON      NM061R$  000000000081000000000008110000000000810000000000081000000000008110000000000000000000000000000002000000000000000500000000000000405105000000000000009999123100000010000000000000BRBPHAACNOR6102
012013100202BPNM4       010PANAMERICANOPN      N1   R$  000000000052100000000005210000000000510000000000051600000000005180000000000514000000000051800155000000000000063300000000000032674600000000000000009999123100000010000000000000BRBPNMACNPR6111
012013100296BPNM4F      020PANAMERICANOPN      N1   R$  000000000051600000000005260000000000512000000000051600000000005260000000000513000000000052500006000000000000000234000000000000120960000000000000009999123100000010000000000000BRBPNMACNPR6111
012013100262BPNM4T      030PANAMERICANOPN      N1061R$  000000000052300000000005260000000000523000000000052300000000005250000000000000000000000000000006000000000000030000000000000015719187000000000000009999123100000010000000000000BRBPNMACNPR6111
012013100202BRAP3       010BRADESPAR   ON      N1   R$  000000000199900000000020400000000001992000000000203100000000020400000000002000000000000204300013000000000000005700000000000011579700000000000000009999123100000010000000000000BRBRAPACNOR5124
012013100296BRAP3F      020BRADESPAR   ON      N1   R$  000000000200000000000020000000000001996000000000199700000000020000000000002000000000000210000006000000000000000073000000000000145800000000000000009999123100000010000000000000BRBRAPACNOR5124
012013100202BRAP4       010BRADESPAR   PN      N1   R$  000000000245500000000024700000000002440000000000245500000000024650000000002464000000000246505068000000000001235000000000003033049100000000000000009999123100000010000000000000BRBRAPACNPR2124
012013100296BRAP4F      020BRADESPAR   PN      N1   R$  000000000244900000000024690000000002432000000000245500000000024690000000002442000000000247000050000000000000001505000000000003697186000000000000009999123100000010000000000000BRBRAPACNPR2124
012013100212BRCR11      010FII BC FUND CI           R$  000000001339500000000137400000000013395000000001358300000000137390000000013650000000001373900277000000000000028013000000000380527319000000000000009999123100000010000000000000BRBRCRCTF000133
012013100202BRFS3       010BRF SA      ON      NM   R$  000000000548800000000055450000000005454000000000548800000000055080000000005505000000000550807382000000000001407200000000007724014700000000000000009999123100000010000000000000BRBRFSACNOR8110
012013100296BRFS3F      020BRF SA      ON      NM   R$  000000000551000000000055400000000005463000000000548800000000054770000000005480000000000552000133000000000000004391000000000024099981000000000000009999123100000010000000000000BRBRFSACNOR8110
012013100262BRFS3T      030BRF SA      ON      NM030R$  000000000551300000000055210000000005499000000000550700000000055000000000000000000000000000000010000000000000001000000000000005507577000000000000009999123100000010000000000000BRBRFSACNOR8110
012013100262BRFS3T      030BRF SA      ON      NM060R$  000000000554700000000055480000000005547000000000554700000000055480000000000000000000000000000002000000000000005000000000000027738370000000000000009999123100000010000000000000BRBRFSACNOR8110
012013100262BRFS3T      030BRF SA      ON      NM061R$  000000000557800000000055790000000005568000000000557200000000055690000000000000000000000000000006000000000000006100000000000033991270000000000000009999123100000010000000000000BRBRFSACNOR8110
012013100202BRIN3       010BR INSURANCEON      NM   R$  000000000199800000000020250000000001992000000000200100000000020000000000001989000000000200000883000000000000156000000000000312265300000000000000009999123100000010000000000000BRBRINACNOR3106
012013100296BRIN3F      020BR INSURANCEON      NM   R$  000000000197000000000020200000000001970000000000199900000000020000000000001997000000000200400028000000000000000632000000000001263372000000000000009999123100000010000000000000BRBRINACNOR3106
012013100202BRIV4       010ALFA INVEST PN           R$  000000000057000000000005790000000000569000000000057100000000005790000000000569000000000058000011000000000000005500000000000003141700000000000000009999123100000010000000000000BRBRIVACNPR3197
012013100202BRKM3       010BRASKEM     ON      N1   R$  000000000126800000000012680000000001250000000000125300000000012500000000001235000000000125000002000000000000000500000000000000626800000000000000009999123100000010000000000000BRBRKMACNOR1110
012013100296BRKM3F      020BRASKEM     ON      N1   R$  000000000126200000000012620000000001262000000000126200000000012620000000001201000000000126200001000000000000000017000000000000021454000000000000009999123100000010000000000000BRBRKMACNOR1110
012013100202BRKM5       010BRASKEM     PNA     N1   R$  000000000178200000000018310000000001782000000000181100000000018310000000001831000000000183204870000000000001391000000000002519463500000000000000009999123100000010000000000000BRBRKMACNPA4110
012013100296BRKM5F      020BRASKEM     PNA     N1   R$  000000000177600000000018250000000001776000000000180800000000017790000000001779000000000182500037000000000000001041000000000001883104000000000000009999123100000010000000000000BRBRKMACNPA4110
012013100262BRKM5T      030BRASKEM     PNA     N1061R$  000000000182400000000018250000000001824000000000182400000000018250000000000000000000000000000002000000000000003000000000000005474520000000000000009999123100000010000000000000BRBRKMACNPA4110
012013100262BRKM5T      030BRASKEM     PNA     N1120R$  000000000184500000000018460000000001845000000000184500000000018460000000000000000000000000000002000000000000032000000000000059059808000000000000009999123100000010000000000000BRBRKMACNPA4110
012013100278BRKMK56     070BRKME       PNA     N1000R$  000000000020600000000002060000000000206000000000020600000000002060000000000000000000000000000002000000000000671000000000000138226000000000000162502013111800000010000000000000BRBRKMACNPA4110
012013100278BRKMK61     070BRKME       PNA     N1000R$  000000000000800000000000080000000000008000000000000800000000000080000000000000000000000000000002000000000000671000000000000005368000000000000212502013111800000010000000000000BRBRKMACNPA4110
012013100282BRKMW56     080BRKME       PNA     N1000R$  000000000001500000000000150000000000015000000000001500000000000150000000000000000000000000000002000000000000671000000000000010065000000000000162502013111800000010000000000000BRBRKMACNPA4110
012013100282BRKMW61     080BRKME       PNA     N1000R$  000000000031000000000003100000000000310000000000031000000000003100000000000000000000000000000002000000000000671000000000000208010000000000000212502013111800000010000000000000BRBRKMACNPA4110
012013100202BRML3       010BR MALLS PARON      NM   R$  000000000205000000000020840000000002034000000000206200000000020750000000002075000000000207607127000000000001743000000000003594641800000000000000009999123100000010000000000000BRBRMLACNOR9105
012013100296BRML3F      020BR MALLS PARON      NM   R$  000000000203100000000020820000000002031000000000206000000000020670000000002031000000000210000081000000000000002725000000000005614368000000000000009999123100000010000000000000BRBRMLACNOR9105
012013100262BRML3T      030BR MALLS PARON      NM016R$  000000000207000000000020710000000002070000000000207000000000020710000000000000000000000000000002000000000000000300000000000000621082000000000000009999123100000010000000000000BRBRMLACNOR9105
012013100262BRML3T      030BR MALLS PARON      NM030R$  000000000207200000000020740000000002072000000000207200000000020740000000000000000000000000000004000000000000001800000000000003730805000000000000009999123100000010000000000000BRBRMLACNOR9105
012013100202BRPR3       010BR PROPERT  ON      NM   R$  000000000196800000000019800000000001952000000000196300000000019570000000001955000000000195706710000000000001731700000000003400078500000000000000009999123100000010000000000000BRBRPRACNOR9112
012013100296BRPR3F      020BR PROPERT  ON      NM   R$  000000000190000000000019790000000001900000000000195500000000019790000000001979000000000198000029000000000000000776000000000001517868000000000000009999123100000010000000000000BRBRPRACNOR9112
012013100262BRPR3T      030BR PROPERT  ON      NM061R$  000000000200100000000020020000000002001000000000200100000000020020000000000000000000000000000002000000000000001400000000000002801619000000000000009999123100000010000000000000BRBRPRACNOR9112
012013100262BRPR3T      030BR PROPERT  ON      NM120R$  000000000203900000000020390000000002039000000000203900000000020390000000000000000000000000000001000000000000000001000000000000002039000000000000009999123100000010000000000000BRBRPRACNOR9112
012013100202BRSR6       010BANRISUL    PNB     N1   R$  000000000155000000000015630000000001541000000000155000000000015510000000001543000000000155101651000000000000324400000000000502869500000000000000009999123100000010000000000000BRBRSRACNPB4134
012013100296BRSR6F      020BANRISUL    PNB     N1   R$  000000000153000000000015560000000001530000000000153800000000015430000000001540000000000156300014000000000000000363000000000000558337000000000000009999123100000010000000000000BRBRSRACNPB4134
012013100202BSEV3       010BIOSEV      ON      NM   R$  000000000090900000000009100000000000892000000000090100000000009100000000000850000000000091000006000000000000003000000000000002704600000000000000009999123100000010000000000000BRBSEVACNOR3100
012013100296BSEV3F      020BIOSEV      ON      NM   R$  000000000085000000000009070000000000850000000000087000000000009060000000000750000000000090000005000000000000000104000000000000090573000000000000009999123100000010000000000000BRBSEVACNOR3100
012013100202BTOW3       010B2W DIGITAL ON      NM   R$  000000000145000000000015140000000001450000000000149700000000015120000000001509000000000151201411000000000000446400000000000668639200000000000000009999123100000010000000000000BRBTOWACNOR8105
012013100296BTOW3F      020B2W DIGITAL ON      NM   R$  000000000145800000000015300000000001451000000000150100000000015080000000001490000000000150900021000000000000000733000000000001100362000000000000009999123100000010000000000000BRBTOWACNOR8105
012013100202BTTL3       010BATTISTELLA ON           R$  000000000009400000000000980000000000094000000000009500000000000980000000000080000000000009800007000000000000031200000000000002973200000000000000009999123100000010000000000000BRBTTLACNOR0105
012013100202BTTL4       010BATTISTELLA PN           R$  000000000009500000000000980000000000093000000000009400000000000980000000000094000000000009800012000000000000008400000000000000797300000000000000009999123100000010000000000000BRBTTLACNPR7105
012013100202BVMF3       010BMFBOVESPA  ON      NM   R$  000000000126600000000012790000000001252000000000125800000000012520000000001252000000000125417419000000000006602700000000008311098800000000000000009999123100000010000000000000BRBVMFACNOR3126
012013100296BVMF3F      020BMFBOVESPA  ON      NM   R$  000000000127000000000012780000000001252000000000125900000000012550000000001255000000000126400089000000000000002764000000000003480920000000000000009999123100000010000000000000BRBVMFACNOR3126
012013100262BVMF3T      030BMFBOVESPA  ON      NM016R$  000000000126200000000012630000000001262000000000126200000000012630000000000000000000000000000002000000000000009500000000000011994043000000000000009999123100000010000000000000BRBVMFACNOR3126
012013100262BVMF3T      030BMFBOVESPA  ON      NM120R$  000000000129300000000012940000000001293000000000129300000000012940000000000000000000000000000002000000000000005000000000000006467378000000000000009999123100000010000000000000BRBVMFACNOR3126
012013100278BVMFA12     070BVMF        ON      NM000R$  000000000012500000000001360000000000125000000000013200000000001360000000000000000000000000000002000000000000000300000000000000039700000000000120002014012000000010000000000000BRBVMFACNOR3126
012013100278BVMFA13     070BVMF        ON      NM000R$  000000000007600000000000760000000000076000000000007600000000000760000000000068000000000000000001000000000000000100000000000000007600000000000130002014012000000010000000000000BRBVMFACNOR3126
012013100278BVMFJ12     070BVMF  FM    ON      NM000R$  000000000009300000000000930000000000084000000000008600000000000860000000000085000000000011000135000000000000129000000000000011099700000000000118502013102100000010000000000000BRBVMFACNOR3125
012013100278BVMFJ13     070BVMF  FM    ON      NM000R$  000000000002600000000000270000000000022000000000002400000000000240000000000024000000000002500160000000000000269900000000000006521600000000000128502013102100000010000000000000BRBVMFACNOR3125
012013100278BVMFJ14     070BVMF  FM    ON      NM000R$  000000000000500000000000050000000000003000000000000300000000000030000000000003000000000000400025000000000000133000000000000000492000000000000138502013102100000010000000000000BRBVMFACNOR3125
012013100278BVMFJ42     070BVMF  FM    ON      NM000R$  000000000005000000000000530000000000050000000000005000000000000500000000000037000000000123500006000000000000014300000000000000721700000000000123502013102100000010000000000000BRBVMFACNOR3125
012013100278BVMFJ44     070BVMF        ON      NM000R$  000000000000200000000000020000000000002000000000000200000000000020000000000001000000000000000007000000000000016000000000000000032000000000000145002013102100000010000000000000BRBVMFACNOR3126
012013100278BVMFK12     070BVMF  FM    ON      NM000R$  000000000010500000000001120000000000104000000000010500000000001050000000000101000000000011900055000000000000044600000000000004727300000000000118502013111800000010000000000000BRBVMFACNOR3125
012013100278BVMFK13     070BVMF  FM    ON      NM000R$  000000000005000000000000500000000000043000000000004400000000000450000000000044000000000004900017000000000000042900000000000001911400000000000128502013111800000010000000000000BRBVMFACNOR3125
012013100278BVMFK14     070BVMF  FM    ON      NM000R$  000000000001100000000000120000000000011000000000001100000000000110000000000008000000000001300012000000000000015700000000000000174200000000000138502013111800000010000000000000BRBVMFACNOR3125
012013100278BVMFK42     070BVMF  FM    ON      NM000R$  000000000006300000000000630000000000063000000000006300000000000630000000000000000000000000000001000000000000002000000000000000126000000000000125002013111800000010000000000000BRBVMFACNOR3126
012013100278BVMFK43     070BVMF  FM    ON      NM000R$  000000000001900000000000200000000000019000000000001900000000000190000000000000000000000000000015000000000000033300000000000000633800000000000135002013111800000010000000000000BRBVMFACNOR3126
012013100278BVMFK54     070BVMFE       ON      NM000R$  000000000000700000000000080000000000007000000000000700000000000080000000000000000000000000000002000000000001350000000000000010705500000000000142502013111800000010000000000000BRBVMFACNOR3126
012013100278BVMFL12     070BVMF        ON      NM000R$  000000000014300000000001430000000000143000000000014300000000001430000000000143000000000000000001000000000000000200000000000000028600000000000115402013121600000010000000000000BRBVMFACNOR3123
012013100282BVMFV12     080BVMFE FM    ON      NM000R$  000000000001000000000000110000000000010000000000001000000000000110000000000008000000000001300009000000000000010700000000000000108200000000000118502013102100000010000000000000BRBVMFACNOR3125
012013100282BVMFV13     080BVMFE FM    ON      NM000R$  000000000004200000000000500000000000042000000000004600000000000480000000000040000000000008200051000000000000057500000000000002696700000000000128502013102100000010000000000000BRBVMFACNOR3125
012013100282BVMFV14     080BVMFE       ON      NM000R$  000000000012500000000001250000000000125000000000012500000000001250000000000000000000000000000002000000000000004500000000000000562500000000000138502013102100000010000000000000BRBVMFACNOR3125
012013100282BVMFV42     080BVMFE FM    ON      NM000R$  000000000002400000000000250000000000023000000000002300000000000230000000000001000000000002900009000000000000021600000000000000516400000000000123502013102100000010000000000000BRBVMFACNOR3125
012013100282BVMFW13     080BVMFE FM    ON      NM000R$  000000000006000000000000610000000000058000000000005800000000000600000000000000000000000025000004000000000001355400000000000078627500000000000128502013111800000010000000000000BRBVMFACNOR3125
012013100282BVMFW14     080BVMFE       ON      NM000R$  000000000012500000000001250000000000125000000000012500000000001250000000000000000000000000000001000000000000000500000000000000062500000000000138502013111800000010000000000000BRBVMFACNOR3125
012013100282BVMFW41     080BVMFE FM    ON      NM000R$  000000000001600000000000180000000000016000000000001700000000000180000000000000000000000000000008000000000000018700000000000000328400000000000115002013111800000010000000000000BRBVMFACNOR3126
012013100282BVMFW42     080BVMFE FM    ON      NM000R$  000000000004200000000000420000000000042000000000004200000000000420000000000000000000000004600001000000000000001800000000000000075600000000000125002013111800000010000000000000BRBVMFACNOR3126
012013100282BVMFW52     080BVMFE       ON      NM000R$  000000000003500000000000350000000000032000000000003400000000000320000000000000000000000000000002000000000001575000000000000054450000000000000122502013111800000010000000000000BRBVMFACNOR3126
012013100202CARD3       010CSU CARDSYSTON      NM   R$  000000000031400000000003150000000000308000000000031400000000003150000000000315000000000031900008000000000000003200000000000001006600000000000000009999123100000010000000000000BRCARDACNOR9105
012013100202CBEE3       010AMPLA ENERG ON *         R$  000000000013000000000001300000000000120000000000012600000000001200000000000120000000000013000003000000000001600000000000000000201600000000000000009999123100010000000000000000BRCBEEACNOR3149
012013100296CBEE3F      020AMPLA ENERG ON *         R$  000000000013000000000001300000000000130000000000013000000000001300000000000051000000000013000001000000000000000800000000000000000104000000000000009999123100010000000000000000BRCBEEACNOR3149
012013100296CBMA3F      020COBRASMA    ON           R$  000000000000400000000000040000000000004000000000000400000000000040000000000004000000000000500001000000000000000133000000000000000532000000000000009999123100000010000000000000BRCBMAACNOR4124
012013100202CBMA4       010COBRASMA    PN           R$  000000000000400000000000040000000000004000000000000400000000000040000000000004000000000000500004000000000000130000000000000000520000000000000000009999123100000010000000000000BRCBMAACNPR1124
012013100208CCHI3       010CHIARELLI   ON           R$  000000000002100000000000210000000000019000000000002000000000000190000000000019000000000002000018000000000000420000000000000008450000000000000000009999123100000010000000000000BRCCHIACNOR5123
012013100208CCHI4       010CHIARELLI   PN           R$  000000000001300000000000140000000000013000000000001300000000000140000000000013000000000001400003000000000000040000000000000000550000000000000000009999123100000010000000000000BRCCHIACNPR2122
012013100296CCHI4F      020CHIARELLI   PN           R$  000000000001400000000000140000000000014000000000001400000000000140000000000014000000000001700002000000000000002892000000000000040488000000000000009999123100000010000000000000BRCCHIACNPR2122
012013100202CCPR3       010CYRE COM-CCPON      NM   R$  000000000205300000000020650000000002053000000000206300000000020650000000002065000000000211000012000000000000003400000000000007016000000000000000009999123100000010000000000000BRCCPRACNOR9107
012013100296CCPR3F      020CYRE COM-CCPON      NM   R$  000000000205000000000020510000000002050000000000205000000000020510000000001912000000000226800003000000000000000088000000000000180462000000000000009999123100000010000000000000BRCCPRACNOR9107
012013100202CCRO3       010CCR SA      ON  ED  NM   R$  000000000177900000000018130000000001771000000000179800000000017950000000001795000000000180009659000000000003242100000000005831388000000000000000009999123100000010000000000000BRCCROACNOR2123
012013100296CCRO3F      020CCR SA      ON  ED  NM   R$  000000000178000000000018190000000001778000000000179900000000017780000000001778000000000182000087000000000000002618000000000004711098000000000000009999123100000010000000000000BRCCROACNOR2123
012013100262CCRO3T      030CCR SA      ON  ED  NM016R$  000000000181700000000018180000000001815000000000181700000000018180000000000000000000000000000006000000000000013000000000000023623488000000000000009999123100000010000000000000BRCCROACNOR2123
012013100262CCRO3T      030CCR SA      ON  ED  NM030R$  000000000179900000000018000000000001799000000000179900000000018000000000000000000000000000000002000000000000004200000000000007556709000000000000009999123100000010000000000000BRCCROACNOR2123
012013100262CCRO3T      030CCR SA      ON  ED  NM180R$  000000000187200000000018730000000001872000000000187200000000018730000000000000000000000000000004000000000000032000000000000059912442000000000000009999123100000010000000000000BRCCROACNOR2123
012013100278CCROJ48     070CCRO    /ED ON      NM000R$  000000000005000000000000500000000000050000000000005000000000000500000000000000000000000000000002000000000000000200000000000000010000000000000178202013102100000010000000000000BRCCROACNOR2122
012013100202CCXC3       010CCX CARVAO  ON      NM   R$  000000000015000000000001600000000000145000000000015500000000001550000000000155000000000015702398000000000009707700000000001510284700000000000000009999123100000010000000000000BRCCXCACNOR5100
012013100296CCXC3F      020CCX CARVAO  ON      NM   R$  000000000014600000000001590000000000140000000000015100000000001400000000000141000000000016000016000000000000000386000000000000058356000000000000009999123100000010000000000000BRCCXCACNOR5100
012013100262CCXC3T      030CCX CARVAO  ON      NM016R$  000000000015300000000001560000000000153000000000015400000000001560000000000000000000000000000004000000000000500000000000000077037480000000000000009999123100000010000000000000BRCCXCACNOR5100
012013100202CEDO4       010CEDRO       PN      N1   R$  000000000092500000000009250000000000925000000000092500000000009250000000000880000000000092500002000000000000000200000000000000185000000000000000009999123100000010000000000000BRCEDOACNPR5126
012013100212CEOC11B     010FII CEO CCP CI      MB   R$  000000000860000000000088000000000008512000000000870400000000088000000000008750000000000880000055000000000000005297000000000046108798000000000000009999123100000010000000000000BRCEOCCTF003110
012013100202CEPE5       010CELPE       PNA          R$  000000000210000000000021000000000002100000000000210000000000021000000000002000000000000210000001000000000000000100000000000000210000000000000000009999123100000010000000000000BRCEPEACNPA6151
012013100202CESP3       010CESP        ON      N1   R$  000000000203000000000020450000000002030000000000204300000000020450000000002010000000000202800003000000000000001700000000000003473500000000000000009999123100000010000000000000BRCESPACNOR3160
012013100202CESP6       010CESP        PNB     N1   R$  000000000234200000000023550000000002318000000000233600000000023300000000002327000000000233001924000000000000282900000000000661017400000000000000009999123100000010000000000000BRCESPACNPB4119
012013100296CESP6F      020CESP        PNB     N1   R$  000000000231000000000023800000000002310000000000235100000000023800000000002325000000000238000017000000000000000408000000000000959287000000000000009999123100000010000000000000BRCESPACNPB4119
012013100262CESP6T      030CESP        PNB     N1030R$  000000000235200000000023530000000002352000000000235200000000023530000000000000000000000000000002000000000000000500000000000001176336000000000000009999123100000010000000000000BRCESPACNPB4119
012013100262CESP6T      030CESP        PNB     N1061R$  000000000237700000000023780000000002377000000000237700000000023780000000000000000000000000000002000000000000010000000000000023772848000000000000009999123100000010000000000000BRCESPACNPB4119
012013100249CFGN4L      017BROTAS GENETPN *         R$  000000002079000000000207900000000020790000000002079000000000207900000000000000000000000000000001000000000002592613000000000053900424000000000000009999123100010000000000000000BRCFGNACNPR7102
012013100296CGAS3F      020COMGAS      ON           R$  000000000540000000000054000000000005400000000000540000000000054000000000004500000000000550000001000000000000000002000000000000010800000000000000009999123100000010000000000000BRCGASACNOR0132
012013100202CGAS5       010COMGAS      PNA          R$  000000000586800000000059150000000005852000000000588500000000058620000000005862000000000590000050000000000000007300000000000042963600000000000000009999123100000010000000000000BRCGASACNPA3129
012013100296CGAS5F      020COMGAS      PNA          R$  000000000587000000000061000000000005870000000000587500000000061000000000005830000000000610000004000000000000000083000000000000487697000000000000009999123100000010000000000000BRCGASACNPA3129
012013100262CGAS5T      030COMGAS      PNA       120R$  000000000628400000000062840000000006284000000000628400000000062840000000000000000000000000000001000000000000000001000000000000006284000000000000009999123100000010000000000000BRCGASACNPA3129
012013100202CGRA4       010GRAZZIOTIN  PN           R$  000000000177200000000017850000000001750000000000177200000000017840000000001756000000000178500030000000000000010300000000000018261500000000000000009999123100000010000000000000BRCGRAACNPR9061
012013100296CGRA4F      020GRAZZIOTIN  PN           R$  000000000175000000000017500000000001750000000000175000000000017500000000001700000000000180000001000000000000000034000000000000059500000000000000009999123100000010000000000000BRCGRAACNPR9061
012013100262CGRA4T      030GRAZZIOTIN  PN        061R$  000000000181100000000018120000000001811000000000181100000000018120000000000000000000000000000002000000000000000400000000000000724518000000000000009999123100000010000000000000BRCGRAACNPR9061
012013100202CHVX34      010CHEVRON     DRN          R$  000000002652200000000265790000000026522000000002655000000000265790000000026249000000002729800002000000000000000200000000000005310100000000000000009999123100000010000000000000BRCHVXBDR008109
012013100202CIEL3       010CIELO       ON      NM   R$  000000000608500000000061490000000006051000000000612000000000061490000000006120000000000614903860000000000000916600000000005609924600000000000000009999123100000010000000000000BRCIELACNOR3112
012013100296CIEL3F      020CIELO       ON      NM   R$  000000000609600000000061440000000006092000000000611000000000061390000000006139000000000614500238000000000000005921000000000036180064000000000000009999123100000010000000000000BRCIELACNOR3112
012013100278CIELK63     070CIEL        ON      NM000R$  000000000008900000000000890000000000089000000000008900000000000890000000000000000000000000000002000000000000000500000000000000044500000000000630002013111800000010000000000000BRCIELACNOR3112
012013100278CIELL62     070CIEL        ON      NM000R$  000000000025500000000002550000000000255000000000025500000000002550000000000000000000000000000001000000000000072000000000000018360000000000000620002013121600000010000000000000BRCIELACNOR3112
012013100202CLSC4       010CELESC      PN      N2   R$  000000000178900000000017890000000001774000000000177700000000017780000000001774000000000177900044000000000000011900000000000021151400000000000000009999123100000010000000000000BRCLSCACNPR3107
012013100296CLSC4F      020CELESC      PN      N2   R$  000000000175100000000017800000000001751000000000177500000000017800000000001752000000000178000002000000000000000054000000000000095888000000000000009999123100000010000000000000BRCLSCACNPR3107
012013100202CMCS34      010COMCAST     DRN ED       R$  000000000993100000000099430000000009931000000000994100000000099430000000009875000000001005000002000000000000000800000000000007953200000000000000009999123100000010000000000000BRCMCSBDR008107
012013100258CMGR3       010CEMAT       ON           R$  000000000047000000000004700000000000470000000000047000000000004700000000000401000000000047000001000000000000000100000000000000047000000000000000009999123100000010000000000000BRCMGRACNOR7114
012013100258CMGR4       010CEMAT       PN           R$  000000000042500000000004250000000000401000000000042300000000004010000000000401000000000051500007000000000000001300000000000000550100000000000000009999123100000010000000000000BRCMGRACNPR4114
012013100202CMIG3       010CEMIG       ON      N1   R$  000000000190700000000019070000000001887000000000189600000000018870000000001887000000000190500146000000000000026600000000000050456700000000000000009999123100000010000000000000BRCMIGACNOR6208
012013100296CMIG3F      020CEMIG       ON      N1   R$  000000000188800000000019450000000001888000000000190200000000018950000000001896000000000194600033000000000000000631000000000001200203000000000000009999123100000010000000000000BRCMIGACNOR6208
012013100262CMIG3T      030CEMIG       ON      N1180R$  000000000199400000000019950000000001994000000000199400000000019950000000000000000000000000000002000000000000001000000000000001994496000000000000009999123100000010000000000000BRCMIGACNOR6208
012013100202CMIG4       010CEMIG       PN      N1   R$  000000000193600000000019450000000001917000000000192600000000019170000000001917000000000192505052000000000001869800000000003601378200000000000000009999123100000010000000000000BRCMIGACNPR3208
012013100296CMIG4F      020CEMIG       PN      N1   R$  000000000194800000000019480000000001921000000000192900000000019260000000001920000000000193500162000000000000003987000000000007693955000000000000009999123100000010000000000000BRCMIGACNPR3208
012013100262CMIG4T      030CEMIG       PN      N1016R$  000000000193700000000019380000000001937000000000193700000000019380000000000000000000000000000002000000000000002000000000000003875662000000000000009999123100000010000000000000BRCMIGACNPR3208
012013100262CMIG4T      030CEMIG       PN      N1030R$  000000000194500000000019560000000001930000000000194600000000019310000000000000000000000000000056000000000000020300000000000039518893000000000000009999123100000010000000000000BRCMIGACNPR3208
012013100262CMIG4T      030CEMIG       PN      N1061R$  000000000196200000000019630000000001949000000000195700000000019500000000000000000000000000000014000000000000076600000000000149915128000000000000009999123100000010000000000000BRCMIGACNPR3208
012013100262CMIG4T      030CEMIG       PN      N1090R$  000000000197300000000019740000000001973000000000197300000000019740000000000000000000000000000002000000000000001000000000000001973868000000000000009999123100000010000000000000BRCMIGACNPR3208
012013100262CMIG4T      030CEMIG       PN      N1180R$  000000000202400000000020250000000002024000000000202400000000020250000000000000000000000000000004000000000000013500000000000027335429000000000000009999123100000010000000000000BRCMIGACNPR3208
012013100278CMIGJ19     070CMIG        PN      N1000R$  000000000008100000000000830000000000081000000000008200000000000830000000000061000000000010000002000000000000000200000000000000016400000000000190002013102100000010000000000000BRCMIGACNPR3208
012013100278CMIGJ20     070CMIG        PN      N1000R$  000000000001200000000000120000000000012000000000001200000000000120000000000003000000000001700001000000000000002500000000000000030000000000000200002013102100000010000000000000BRCMIGACNPR3208
012013100278CMIGL50     070CMIG        PN      N1000R$  000000000003100000000000450000000000031000000000003500000000000350000000000000000000000000000003000000000000026000000000000000910600000000000205002013121600000010000000000000BRCMIGACNPR3208
012013100212CNES11B     010FII CENESP  CI  ER  MB   R$  000000001274900000000127500000000012401000000001247800000000124010000000012500000000001275000010000000000000001300000000000016222353000000000000009999123100000010000000000000BRCNESCTF001126
012013100202COCA34      010COCA COLA   DRN          R$  000000000817500000000082310000000008175000000000821200000000082310000000008127000000000845200002000000000000001200000000000009854800000000000000009999123100000010000000000000BRCOCABDR002109
012013100202COCE3       010COELCE      ON           R$  000000000401200000000040500000000004010000000000402900000000040490000000003982000000000404900013000000000000003000000000000012089300000000000000009999123100000010000000000000BRCOCEACNOR0132
012013100202COCE5       010COELCE      PNA          R$  000000000384500000000038980000000003833000000000386300000000038470000000003844000000000384700140000000000000028500000000000110116600000000000000009999123100000010000000000000BRCOCEACNPA3133
012013100296COCE5F      020COELCE      PNA          R$  000000000384000000000039360000000003839000000000387800000000038650000000003864000000000393400015000000000000000219000000000000849415000000000000009999123100000010000000000000BRCOCEACNPA3133
012013100262COCE5T      030COELCE      PNA       061R$  000000000394800000000039490000000003948000000000394800000000039490000000000000000000000000000002000000000000000200000000000000789700000000000000009999123100000010000000000000BRCOCEACNPA3133
012013100262COCE5T      030COELCE      PNA       120R$  000000000405500000000040560000000004055000000000405500000000040560000000000000000000000000000002000000000000000009000000000000036502000000000000009999123100000010000000000000BRCOCEACNPA3133
012013100202CPFE3       010CPFL ENERGIAON      NM   R$  000000000192400000000019600000000001916000000000194400000000019500000000001945000000000195003911000000000003874600000000007535175700000000000000009999123100000010000000000000BRCPFEACNOR0122
012013100296CPFE3F      020CPFL ENERGIAON      NM   R$  000000000191100000000019640000000001911000000000194600000000019390000000001939000000000195700030000000000000000874000000000001701663000000000000009999123100000010000000000000BRCPFEACNOR0122
012013100262CPFE3T      030CPFL ENERGIAON      NM061R$  000000000198000000000019810000000001980000000000198000000000019810000000000000000000000000000002000000000000002000000000000003960293000000000000009999123100000010000000000000BRCPFEACNOR0122
012013100202CPLE3       010COPEL       ON      N1   R$  000000000227400000000023000000000002238000000000226700000000022890000000002265000000000228900170000000000000065300000000000148040900000000000000009999123100000010000000000000BRCPLEACNOR8128
012013100202CPLE6       010COPEL       PNB     N1   R$  000000000313000000000031650000000003086000000000311000000000031000000000003100000000000311601668000000000000331800000000001032167800000000000000009999123100000010000000000000BRCPLEACNPB9125
012013100296CPLE6F      020COPEL       PNB     N1   R$  000000000310000000000031950000000003095000000000312100000000031950000000003055000000000319500017000000000000000396000000000001240863000000000000009999123100000010000000000000BRCPLEACNPB9125
012013100202CPRE3       010CPFL RENOVAVON      NM   R$  000000000137000000000013700000000001350000000000135200000000013590000000001200000000000135900039000000000000007500000000000010146800000000000000009999123100000010000000000000BRCPREACNOR5100
012013100296CPRE3F      020CPFL RENOVAVON      NM   R$  000000000137900000000013790000000001350000000000136700000000013500000000001311000000000135000007000000000000000022000000000000030085000000000000009999123100000010000000000000BRCPREACNOR5100
012013100249CPRI6L      017CAPRI LOG   PNB*         R$  000000009889000000000988900000000098890000000009889000000000988900000000000000000000000000000004000000000001076382000000000106443415000000000000009999123100010000000000000000BRCPRIACNPB7109
012013100202CRDE3       010CR2         ON      NM   R$  000000000039700000000004010000000000395000000000040000000000003950000000000395000000000040000005000000000000003500000000000001401500000000000000009999123100000010000000000000BRCRDEACNOR1108
012013100202CREM3       010CREMER      ON      NM   R$  000000000152500000000015250000000001478000000000150000000000014780000000001478000000000150500072000000000000012200000000000018307300000000000000009999123100000010000000000000BRCREMACNOR2167
012013100296CREM3F      020CREMER      ON      NM   R$  000000000152400000000015240000000001502000000000151100000000015150000000001500000000000151500006000000000000000108000000000000163201000000000000009999123100000010000000000000BRCREMACNOR2167
012013100262CREM3T      030CREMER      ON      NM016R$  000000000150100000000015020000000001500000000000150100000000015010000000000000000000000000000004000000000000001000000000000001501627000000000000009999123100000010000000000000BRCREMACNOR2167
012013100262CREM3T      030CREMER      ON      NM061R$  000000000153100000000015320000000001531000000000153100000000015320000000000000000000000000000002000000000000001000000000000001531072000000000000009999123100000010000000000000BRCREMACNOR2167
012013100202CRIV4       010ALFA FINANC PN           R$  000000000044000000000004460000000000440000000000044100000000004420000000000436000000000044200007000000000000002000000000000000882600000000000000009999123100000010000000000000BRCRIVACNPR1190
012013100202CRUZ3       010SOUZA CRUZ  ON  EDJ      R$  000000000260000000000026220000000002554000000000257100000000025540000000002554000000000256004818000000000001256700000000003231498800000000000000009999123100000010000000000000BRCRUZACNOR0248
012013100296CRUZ3F      020SOUZA CRUZ  ON  EDJ      R$  000000000260100000000026180000000002560000000000257800000000025650000000002565000000000258000074000000000000002163000000000005576910000000000000009999123100000010000000000000BRCRUZACNOR0248
012013100262CRUZ3T      030SOUZA CRUZ  ON  EDJ   030R$  000000000258400000000025850000000002584000000000258400000000025850000000000000000000000000000002000000000000001000000000000002584512000000000000009999123100000010000000000000BRCRUZACNOR0248
012013100262CRUZ3T      030SOUZA CRUZ  ON  EDJ   060R$  000000000260400000000026050000000002604000000000260400000000026050000000000000000000000000000002000000000000004800000000000012501435000000000000009999123100000010000000000000BRCRUZACNOR0248
012013100202CSAN3       010COSAN       ON      NM   R$  000000000440000000000044400000000004358000000000440600000000043810000000004381000000000438604063000000000000960300000000004231975600000000000000009999123100000010000000000000BRCSANACNOR6108
012013100296CSAN3F      020COSAN       ON      NM   R$  000000000441600000000044480000000004292000000000440100000000044000000000004370000000000440000105000000000000003375000000000014853646000000000000009999123100000010000000000000BRCSANACNOR6108
012013100262CSAN3T      030COSAN       ON      NM016R$  000000000445400000000044600000000004454000000000445800000000044600000000000000000000000000000010000000000000004000000000000017833223000000000000009999123100000010000000000000BRCSANACNOR6108
012013100262CSAN3T      030COSAN       ON      NM030R$  000000000441900000000044200000000004419000000000441900000000044200000000000000000000000000000002000000000000000400000000000001767786000000000000009999123100000010000000000000BRCSANACNOR6108
012013100262CSAN3T      030COSAN       ON      NM061R$  000000000448400000000044850000000004484000000000448400000000044850000000000000000000000000000002000000000000005000000000000022423962000000000000009999123100000010000000000000BRCSANACNOR6108
012013100262CSAN3T      030COSAN       ON      NM120R$  000000000458500000000045850000000004585000000000458500000000045850000000000000000000000000000001000000000000000001000000000000004585000000000000009999123100000010000000000000BRCSANACNOR6108
012013100202CSCO34      010CISCO       DRN ED       R$  000000000507800000000051390000000005078000000000512100000000051390000000005070000000000515000002000000000000003200000000000016389900000000000000009999123100000010000000000000BRCSCOBDR004111
012013100202CSMG3       010COPASA      ON  EJ  NM   R$  000000000348600000000034880000000003420000000000343800000000034430000000003430000000000344300766000000000000143400000000000493039000000000000000009999123100000010000000000000BRCSMGACNOR5128
012013100296CSMG3F      020COPASA      ON  EJ  NM   R$  000000000341500000000034750000000003415000000000343200000000034250000000003410000000000349000010000000000000000165000000000000566325000000000000009999123100000010000000000000BRCSMGACNOR5128
012013100262CSMG3T      030COPASA      ON  EJ  NM061R$  000000000348600000000034870000000003486000000000348600000000034870000000000000000000000000000002000000000000003000000000000010458207000000000000009999123100000010000000000000BRCSMGACNOR5128
012013100214CSMO11      010ISHARES CSMOCI           R$  000000000485000000000048500000000004760000000000477300000000047600000000003800000000000485000009000000000000000440000000000002100300000000000000009999123100000010000000000000BRCSMOCTF002100
012013100202CSNA3       010SID NACIONALON           R$  000000000093800000000009450000000000926000000000093800000000009390000000000939000000000094011181000000000004372300000000004104739400000000000000009999123100000010000000000000BRCSNAACNOR6243
012013100296CSNA3F      020SID NACIONALON           R$  000000000094000000000009450000000000928000000000093900000000009420000000000940000000000094200044000000000000000983000000000000923673000000000000009999123100000010000000000000BRCSNAACNOR6243
012013100262CSNA3T      030SID NACIONALON        016R$  000000000094400000000009450000000000944000000000094400000000009450000000000000000000000000000006000000000000018700000000000017655428000000000000009999123100000010000000000000BRCSNAACNOR6243
012013100262CSNA3T      030SID NACIONALON        180R$  000000000098700000000009880000000000987000000000098700000000009880000000000000000000000000000002000000000000001000000000000000987499000000000000009999123100000010000000000000BRCSNAACNOR6243
012013100278CSNAJ10     070CSNA  FM    ON        000R$  000000000000800000000000140000000000008000000000001200000000000110000000000000000000000004500003000000000000007000000000000000090500000000000100002013102100000010000000000000BRCSNAACNOR6243
012013100278CSNAJ11     070CSNA        ON        000R$  000000000001000000000000100000000000010000000000001000000000000100000000000000000000000001000001000000000000000400000000000000004000000000000110002013102100000010000000000000BRCSNAACNOR6243
012013100278CSNAJ40     070CSNA        ON        000R$  000000000000600000000000060000000000006000000000000600000000000060000000000000000000000000000001000000000000001500000000000000009000000000000104002013102100000010000000000000BRCSNAACNOR6243
012013100278CSNAJ8      070CSNA        ON        000R$  000000000017000000000001700000000000170000000000017000000000001700000000000161000000000019700001000000000000000100000000000000017000000000000078002013102100000010000000000000BRCSNAACNOR6242
012013100278CSNAJ9      070CSNA        ON        000R$  000000000007500000000000750000000000075000000000007500000000000750000000000070000000000013400001000000000000000100000000000000007500000000000088002013102100000010000000000000BRCSNAACNOR6242
012013100278CSNAJ92     070CSNA  FM    ON        000R$  000000000004500000000000450000000000045000000000004500000000000450000000000000000000000000000002000000000000003200000000000000144000000000000092002013102100000010000000000000BRCSNAACNOR6243
012013100278CSNAJ94     070CSNA  FM    ON        000R$  000000000003200000000000320000000000032000000000003200000000000320000000000000000000000000000001000000000000003500000000000000112000000000000094002013102100000010000000000000BRCSNAACNOR6243
012013100278CSNAK10     070CSNA  FM    ON        000R$  000000000003700000000000400000000000037000000000003900000000000400000000000038000000000004000006000000000000016300000000000000642400000000000098002013111800000010000000000000BRCSNAACNOR6242
012013100278CSNAK92     070CSNA  FM    ON        000R$  000000000006800000000000690000000000068000000000006800000000000690000000000000000000000000000003000000000000007000000000000000479500000000000092002013111800000010000000000000BRCSNAACNOR6243
012013100278CSNAL16     070CSNA        ON        000R$  000000000001500000000000150000000000015000000000001500000000000150000000000000000000000003900001000000000000001000000000000000015000000000000154702013121600000010000000000000BRCSNAACNOR6241
012013100282CSNAV10     080CSNAE       ON        000R$  000000000007600000000000790000000000067000000000007100000000000700000000000067000000000007900029000000000000011000000000000000784500000000000100002013102100000010000000000000BRCSNAACNOR6243
012013100282CSNAW9      080CSNAE       ON        000R$  000000000003500000000000350000000000034000000000003400000000000350000000000034000000000004100022000000000000004400000000000000151800000000000090002013111800000010000000000000BRCSNAACNOR6243
012013100282CSNAW92     080CSNAE FM    ON        000R$  000000000004300000000000430000000000043000000000004300000000000430000000000000000000000000000001000000000000003500000000000000150500000000000092002013111800000010000000000000BRCSNAACNOR6243
012013100282CSNAW94     080CSNAE FM    ON        000R$  000000000005100000000000510000000000051000000000005100000000000510000000000000000000000000000001000000000000002500000000000000127500000000000094002013111800000010000000000000BRCSNAACNOR6243
012013100282CSNAW96     080CSNAE FM    ON        000R$  000000000006500000000000650000000000059000000000006300000000000590000000000000000000000000000003000000000000007400000000000000466600000000000096002013111800000010000000000000BRCSNAACNOR6243
012013100202CTAX11      010CONTAX      UNT     N2   R$  000000000192000000000019240000000001852000000000187000000000018550000000001855000000000187500178000000000000195600000000000365838300000000000000009999123100000010000000000000BRCTAXCDAM19100
012013100262CTAX11T     030CONTAX      UNT     N2061R$  000000000192600000000019270000000001926000000000192600000000019270000000000000000000000000000002000000000000001200000000000002311920000000000000009999123100000010000000000000BRCTAXCDAM19100
012013100202CTAX4       010CONTAX      PN      N2   R$  000000000036700000000003790000000000364000000000037100000000003640000000000364000000000037600306000000000000209900000000000077880000000000000000009999123100000010000000000000BRCTAXACNPR0114
012013100296CTAX4F      020CONTAX      PN      N2   R$  000000000038000000000003800000000000380000000000038000000000003800000000000341000000000038000002000000000000000070000000000000026600000000000000009999123100000010000000000000BRCTAXACNPR0114
012013100202CTGP34      010CITIGROUP   DRN          R$  000000001073500000000107490000000010725000000001074300000000107250000000010605000000001074000004000000000000001000000000000010743400000000000000009999123100000010000000000000BRCTGPBDR000111
012013100202CTIP3       010CETIP       ON  EJ  NM   R$  000000000235900000000023790000000002342000000000236200000000023620000000002362000000000237404932000000000001010400000000002387532100000000000000009999123100000010000000000000BRCTIPACNOR2120
012013100296CTIP3F      020CETIP       ON  EJ  NM   R$  000000000220800000000023790000000002208000000000235500000000023520000000002352000000000238000041000000000000000906000000000002134669000000000000009999123100000010000000000000BRCTIPACNOR2120
012013100278CTIPA65     070CTIPE   /EJ ON      NM000R$  000000000007400000000000740000000000074000000000007400000000000740000000000000000000000000000002000000000000500000000000000037000000000000000256902014012000000010000000000000BRCTIPACNOR2119
012013100278CTIPA66     070CTIPE   /EJ ON      NM000R$  000000000004600000000000460000000000046000000000004600000000000460000000000000000000000000000002000000000000500000000000000023000000000000000266902014012000000010000000000000BRCTIPACNOR2119
012013100278CTIPK55     070CTIPE   /EJ ON      NM000R$  000000000002000000000000200000000000020000000000002000000000000200000000000000000000000000000002000000000000500000000000000010000000000000000256902013111800000010000000000000BRCTIPACNOR2119
012013100278CTIPK58     070CTIPE   /EJ ON      NM000R$  000000000000100000000000010000000000001000000000000100000000000010000000000000000000000000000002000000000000500000000000000000500000000000000286802013111800000010000000000000BRCTIPACNOR2117
012013100278CTIPL65     070CTIPE   /EJ ON      NM000R$  000000000006200000000000620000000000062000000000006200000000000620000000000000000000000000000002000000000000500000000000000031000000000000000251902013121600000010000000000000BRCTIPACNOR2119
012013100278CTIPL66     070CTIPE   /EJ ON      NM000R$  000000000003400000000000340000000000034000000000003400000000000340000000000000000000000000000002000000000000500000000000000017000000000000000261902013121600000010000000000000BRCTIPACNOR2119
012013100282CTIPW51     080CTIPE   /EJ ON      NM000R$  000000000002100000000000210000000000021000000000002100000000000210000000000000000000000000000002000000000000500000000000000010500000000000000216902013111800000010000000000000BRCTIPACNOR2119
012013100282CTIPX61     080CTIPE   /EJ ON      NM000R$  000000000002900000000000290000000000029000000000002900000000000290000000000000000000000000000002000000000000500000000000000014500000000000000211902013121600000010000000000000BRCTIPACNOR2119
012013100202CTKA4       010KARSTEN     PN           R$  000000000010200000000001050000000000102000000000010300000000001050000000000095000000000010500004000000000000001100000000000000113400000000000000009999123100000010000000000000BRCTKAACNPR7041
012013100202CTNM4       010COTEMINAS   PN           R$  000000000022600000000002270000000000225000000000022500000000002250000000000225000000000022700006000000000000002300000000000000518400000000000000009999123100000010000000000000BRCTNMACNPR6128
012013100202CTSA4       010SANTANENSE  PN           R$  000000000057800000000005960000000000578000000000059300000000005960000000000525000000000057800002000000000000002000000000000001186600000000000000009999123100000010000000000000BRCTSAACNPR0051
012013100262CTSA4T      030SANTANENSE  PN        078R$  000000000058800000000006070000000000588000000000060400000000006070000000000000000000000000000004000000000000002000000000000001208434000000000000009999123100000010000000000000BRCTSAACNPR0051
012013100212CXCE11B     010FII CX CEDAECI  ER  MB   R$  000000019220000000001922000000000192200000000019220000000001922000000000175000000000019250000004000000000000000026000000000004997200000000000000009999123100000010000000000000BRCXCECTF004139
012013100212CXTL11      010FII CX TRX  CI  ER       R$  000000007110000000000711000000000070150000000007062500000000701500000000070150000000007280000002000000000000000002000000000000141250000000000000009999123100000010000000000000BRCXTLCTF003123
012013100202CYRE3       010CYRELA REALTON      NM   R$  000000000168300000000017010000000001671000000000168600000000016830000000001681000000000168305238000000000002131500000000003595558400000000000000009999123100000010000000000000BRCYREACNOR7125
012013100296CYRE3F      020CYRELA REALTON      NM   R$  000000000163100000000016990000000001631000000000168400000000016970000000001668000000000169700038000000000000001151000000000001938371000000000000009999123100000010000000000000BRCYREACNOR7125
012013100262CYRE3T      030CYRELA REALTON      NM016R$  000000000169700000000016980000000001697000000000169700000000016980000000000000000000000000000002000000000000003200000000000005432336000000000000009999123100000010000000000000BRCYREACNOR7125
012013100278CYREJ17     070CYRE  FM    ON      NM000R$  000000000003900000000000440000000000034000000000004000000000000340000000000000000000000004700004000000000000007500000000000000301000000000000170002013102100000010000000000000BRCYREACNOR7125
012013100278CYREJ18     070CYRE  FM    ON      NM000R$  000000000000800000000000080000000000008000000000000800000000000080000000000000000000000000000002000000000000004500000000000000036000000000000180002013102100000010000000000000BRCYREACNOR7125
012013100278CYREJ46     070CYRE  FM    ON      NM000R$  000000000006800000000000760000000000068000000000007300000000000760000000000000000000000000000007000000000000023600000000000001730600000000000165002013102100000010000000000000BRCYREACNOR7125
012013100278CYREJ47     070CYRE  FM    ON      NM000R$  000000000001900000000000210000000000019000000000002000000000000210000000000000000000000000000002000000000000005000000000000000102000000000000175002013102100000010000000000000BRCYREACNOR7125
012013100278CYREK17     070CYRE  FM    ON      NM000R$  000000000007000000000000780000000000065000000000007000000000000650000000000000000000000000000028000000000000076100000000000005368300000000000170002013111800000010000000000000BRCYREACNOR7125
012013100278CYREK18     070CYRE  FM    ON      NM000R$  000000000003300000000000330000000000033000000000003300000000000330000000000000000000000004600003000000000000010000000000000000330000000000000180002013111800000010000000000000BRCYREACNOR7125
012013100278CYREK46     070CYRE  FM    ON      NM000R$  000000000010800000000001080000000000108000000000010800000000001080000000000000000000000000000002000000000000003500000000000000378000000000000165002013111800000010000000000000BRCYREACNOR7125
012013100278CYREK47     070CYRE  FM    ON      NM000R$  000000000005300000000000530000000000053000000000005300000000000530000000000000000000000000000001000000000000003500000000000000185500000000000175002013111800000010000000000000BRCYREACNOR7125
012013100282CYREV17     080CYREE FM    ON      NM000R$  000000000004000000000000400000000000040000000000004000000000000400000000000000000000000000000002000000000000003500000000000000140000000000000170002013102100000010000000000000BRCYREACNOR7125
012013100282CYREV46     080CYREE FM    ON      NM000R$  000000000002700000000000270000000000027000000000002700000000000270000000000000000000000000000001000000000000001000000000000000027000000000000165002013102100000010000000000000BRCYREACNOR7125
012013100282CYREV47     080CYREE FM    ON      NM000R$  000000000008100000000000810000000000067000000000007400000000000670000000000000000000000000000003000000000000010500000000000000777000000000000175002013102100000010000000000000BRCYREACNOR7125
012013100282CYREW16     080CYREE FM    ON      NM000R$  000000000003100000000000310000000000031000000000003100000000000310000000000000000000000000000001000000000000003500000000000000108500000000000160002013111800000010000000000000BRCYREACNOR7125
012013100282CYREW17     080CYREE FM    ON      NM000R$  000000000006600000000000730000000000060000000000006900000000000600000000000000000000000000000028000000000000072400000000000005032500000000000170002013111800000010000000000000BRCYREACNOR7125
012013100282CYREW46     080CYREE FM    ON      NM000R$  000000000004400000000000440000000000044000000000004400000000000440000000000000000000000000000001000000000000003500000000000000154000000000000165002013111800000010000000000000BRCYREACNOR7125
012013100282CYREW47     080CYREE FM    ON      NM000R$  000000000008900000000000890000000000087000000000008700000000000870000000000000000000000000000002000000000000006000000000000000527000000000000175002013111800000010000000000000BRCYREACNOR7125
012013100202CZLT33      010COSAN LTD   DR3          R$  000000000355400000000035540000000003465000000000349800000000035300000000003490000000000353000763000000000000252600000000000883683200000000000000009999123100000010000000000000BRCZLTBDR009105
012013100296CZLT33F     020COSAN LTD   DR3          R$  000000000353000000000035300000000003470000000000351900000000034700000000003406000000000352000002000000000000000065000000000000228790000000000000009999123100000010000000000000BRCZLTBDR009105
012013100202DAGB33      010DUFRY AG    DR3          R$  000000003343900000000344990000000033100000000003338200000000333000000000033005000000003330000220000000000000010128000000000338097867000000000000009999123100000010000000000000BRDAGBBDR008100
012013100202DASA3       010DASA        ON      NM   R$  000000000118000000000012140000000001180000000000120100000000011930000000001193000000000119703960000000000001351700000000001623457000000000000000009999123100000010000000000000BRDASAACNOR1108
012013100296DASA3F      020DASA        ON      NM   R$  000000000119400000000012150000000001190000000000119900000000012150000000001190000000000121500017000000000000000617000000000000740064000000000000009999123100000010000000000000BRDASAACNOR1108
012013100262DASA3T      030DASA        ON      NM061R$  000000000122700000000012280000000001227000000000122700000000012280000000000000000000000000000002000000000000010000000000000012274977000000000000009999123100000010000000000000BRDASAACNOR1108
012013100202DAYC4       010DAYCOVAL    PN  EJ  N2   R$  000000000087500000000008980000000000872000000000088300000000008850000000000881000000000088600350000000000000069300000000000061213600000000000000009999123100000010000000000000BRDAYCACNPR2129
012013100296DAYC4F      020DAYCOVAL    PN  EJ  N2   R$  000000000083800000000008900000000000838000000000085700000000008900000000000876000000000091500002000000000000000149000000000000127826000000000000009999123100000010000000000000BRDAYCACNPR2129
012013100202DIRR3       010DIRECIONAL  ON      NM   R$  000000000119600000000012210000000001181000000000119700000000012000000000001200000000000120102415000000000000403900000000000483576300000000000000009999123100000010000000000000BRDIRRACNOR0104
012013100296DIRR3F      020DIRECIONAL  ON      NM   R$  000000000119100000000012300000000001163000000000119600000000011940000000001162000000000121200016000000000000000521000000000000623243000000000000009999123100000010000000000000BRDIRRACNOR0104
