00COTAHIST.2013BOVESPA 20130731                                                                                                                                                                                                                      
012013073102AAPL11B     010APPLE       DRN     MB   R$  000000001042500000000104250000000010425000000001042500000000104250000000010255000000001039500001000000000000001000000000000010425000000000000000009999123100000010000000000000BRAAPLBDR004104
012013073102ABCB4       010ABC BRASIL  PN      N2   R$  000000000121500000000012200000000001197000000000120900000000012000000000001198000000000120000293000000000000358500000000000433673100000000000000009999123100000010000000000000BRABCBACNPR4120
012013073196ABCB4F      020ABC BRASIL  PN      N2   R$  000000000122000000000012200000000001200000000000120900000000012000000000001196000000000121300013000000000000000388000000000000469439000000000000009999123100000010000000000000BRABCBACNPR4120
012013073112ABCP11      010FII ABC IMOBCI           R$  000000000090000000000009000000000000900000000000090000000000009000000000000901000000000092000001000000000000000519000000000000467100000000000000009999123100000010000000000000BRABCPCTF000213
012013073102ABRE11      010ABRIL EDUCA UNT     N2   R$  000000000358200000000036410000000003510000000000355700000000035100000000003510000000000358000645000000000000329300000000001171464600000000000000009999123100000010000000000000BRABRECDAM15102
012013073196ABRE11F     020ABRIL EDUCA UNT     N2   R$  000000000360000000000036000000000003414000000000353000000000034140000000003405000000000354000010000000000000000135000000000000476600000000000000009999123100000010000000000000BRABRECDAM15102
012013073162ABRE11T     030ABRIL EDUCA UNT     N2030R$  000000000360000000000036660000000003533000000000358400000000035340000000000000000000000000000104000000000000017000000000000060933548000000000000009999123100000010000000000000BRABRECDAM15102
012013073102AEDU3       010ANHANGUERA  ON      NM   R$  000000000135100000000013830000000001345000000000136500000000013830000000001370000000000138306252000000000003266400000000004459955300000000000000009999123100000010000000000000BRAEDUACNOR9107
012013073196AEDU3F      020ANHANGUERA  ON      NM   R$  000000000135800000000013800000000001344000000000135900000000013600000000001360000000000140000020000000000000000815000000000001108306000000000000009999123100000010000000000000BRAEDUACNOR9107
012013073162AEDU3T      030ANHANGUERA  ON      NM030R$  000000000136500000000013860000000001365000000000137400000000013860000000000000000000000000000004000000000000005700000000000007833886000000000000009999123100000010000000000000BRAEDUACNOR9107
012013073112AEFI11      010FII AESAPAR CI           R$  000000001250100000000125980000000012501000000001253500000000125450000000012545000000001259500016000000000000000469000000000005879006000000000000009999123100000010000000000000BRAEFICTF002119
012013073102AELP3       010AES ELPA    ON           R$  000000000076700000000007670000000000712000000000074900000000007500000000000713000000000075900008000000000000001000000000000000749400000000000000009999123100000010000000000000BRAELPACNOR2119
012013073112AGCX11      010FII AG CAIXACI           R$  000000010100000000001010000000000100500000000010085200000001005000000000100305000000010100000007000000000000000142000000000014321003000000000000009999123100000010000000000000BRAGCXCTF003108
012013073102AGEN11      010AGRENCO     DR3          R$  000000000001800000000000190000000000017000000000001800000000000190000000000019000000000002000821000000000015962200000000000290074300000000000000009999123100000010000000000000BRAGENBDR001100
012013073162AGEN11T     030AGRENCO     DR3       090R$  000000000001800000000000190000000000018000000000001800000000000190000000000000000000000000000002000000000000050000000000000000917730000000000000009999123100000010000000000000BRAGENBDR001100
012013073102AGRO3       010BRASILAGRO  ON      NM   R$  000000000102200000000010330000000001008000000000102100000000010320000000001032000000000106500069000000000000009700000000000009905200000000000000009999123100000010000000000000BRAGROACNOR7102
012013073102ALLL3       010ALL AMER LATON      NM   R$  000000000087000000000008900000000000864000000000087800000000008820000000000882000000000088406794000000000002025600000000001780077900000000000000009999123100000010000000000000BRALLLACNOR6118
012013073196ALLL3F      020ALL AMER LATON      NM   R$  000000000086700000000008940000000000864000000000087600000000008850000000000870000000000089300033000000000000000960000000000000841793000000000000009999123100000010000000000000BRALLLACNOR6118
012013073162ALLL3T      030ALL AMER LATON      NM030R$  000000000087600000000008770000000000876000000000087600000000008770000000000000000000000000000002000000000000050000000000000043800150000000000000009999123100000010000000000000BRALLLACNOR6118
012013073112ALMI11B     010FII TORRE ALCI      MB   R$  000000031500200000003152000000000315000000000031504200000003150500000000315500000000031990000005000000000000000012000000000003780504000000000000009999123100000010000000000000BRALMICTF003203
012013073102ALPA3       010ALPARGATAS  ON      N1   R$  000000000107000000000010800000000001070000000000107000000000010700000000001070000000000108000004000000000000018100000000000019370000000000000000009999123100000010000000000000BRALPAACNOR0202
012013073162ALPA3T      030ALPARGATAS  ON      N1061R$  000000000109400000000010950000000001094000000000109400000000010950000000000000000000000000000002000000000000000300000000000000328244000000000000009999123100000010000000000000BRALPAACNOR0202
012013073102ALPA4       010ALPARGATAS  PN      N1   R$  000000000138100000000014080000000001374000000000138700000000014010000000001385000000000140101539000000000000341100000000000473369400000000000000009999123100000010000000000000BRALPAACNPR7202
012013073196ALPA4F      020ALPARGATAS  PN      N1   R$  000000000138500000000013860000000001371000000000138100000000013810000000001381000000000139000013000000000000000297000000000000410355000000000000009999123100000010000000000000BRALPAACNPR7202
012013073162ALPA4T      030ALPARGATAS  PN      N1030R$  000000000138700000000013880000000001384000000000138500000000013850000000000000000000000000000004000000000000002500000000000003464239000000000000009999123100000010000000000000BRALPAACNPR7202
012013073102ALSC3       010ALIANSCE    ON      NM   R$  000000000207000000000021070000000002061000000000208500000000021040000000002082000000000210402896000000000000933700000000001946952600000000000000009999123100000010000000000000BRALSCACNOR0104
012013073196ALSC3F      020ALIANSCE    ON      NM   R$  000000000207000000000021960000000002000000000000206800000000020850000000002050000000000210000017000000000000000651000000000001346644000000000000009999123100000010000000000000BRALSCACNOR0104
012013073162ALSC3T      030ALIANSCE    ON      NM016R$  000000000210800000000021090000000002103000000000210700000000021040000000000000000000000000000004000000000000020000000000000042141676000000000000009999123100000010000000000000BRALSCACNOR0104
012013073102ALUP11      010ALUPAR      UNT     N2   R$  000000000176000000000017780000000001745000000000176000000000017500000000001743000000000175400433000000000000228900000000000402884700000000000000009999123100000010000000000000BRALUPCDAM15100
012013073196ALUP11F     020ALUPAR      UNT     N2   R$  000000000176000000000018470000000001743000000000176800000000017700000000001770000000000185000161000000000000003513000000000006212894000000000000009999123100000010000000000000BRALUPCDAM15100
012013073102AMAR3       010LOJAS MARISAON      NM   R$  000000000218600000000021860000000002126000000000213800000000021280000000002126000000000213000868000000000000159400000000000340801800000000000000009999123100000010000000000000BRAMARACNOR4109
012013073162AMAR3T      030LOJAS MARISAON      NM090R$  000000000217000000000021710000000002170000000000217000000000021710000000000000000000000000000002000000000000000500000000000001085174000000000000009999123100000010000000000000BRAMARACNOR4109
012013073102AMBV3       010AMBEV       ON           R$  000000000820900000000086130000000008209000000000846800000000085990000000008535000000000859902186000000000000515200000000004362934600000000000000009999123100000010000000000000BRAMBVACNOR4153
012013073196AMBV3F      020AMBEV       ON           R$  000000000824000000000086100000000008240000000000845900000000085800000000008570000000000859000068000000000000001795000000000015184825000000000000009999123100000010000000000000BRAMBVACNOR4153
012013073162AMBV3T      030AMBEV       ON        030R$  000000000851700000000085270000000008490000000000851800000000084910000000000000000000000000000008000000000000032000000000000272596486000000000000009999123100000010000000000000BRAMBVACNOR4153
012013073102AMBV4       010AMBEV       PN           R$  000000000837700000000086250000000008351000000000850900000000086010000000008590000000000860115816000000000003926400000000033413326000000000000000009999123100000010000000000000BRAMBVACNPR1153
012013073196AMBV4F      020AMBEV       PN           R$  000000000820200000000086200000000008202000000000848400000000086200000000008480000000000862000361000000000000008287000000000070314855000000000000009999123100000010000000000000BRAMBVACNPR1153
012013073162AMBV4T      030AMBEV       PN        030R$  000000000854600000000085470000000008535000000000853700000000085360000000000000000000000000000004000000000000000900000000000007684137000000000000009999123100000010000000000000BRAMBVACNPR1153
012013073162AMBV4T      030AMBEV       PN        050R$  000000000860200000000086030000000008602000000000860200000000086030000000000000000000000000000004000000000000002000000000000017205700000000000000009999123100000010000000000000BRAMBVACNPR1153
012013073162AMBV4T      030AMBEV       PN        090R$  000000000864300000000086440000000008643000000000864300000000086440000000000000000000000000000002000000000000002000000000000017287994000000000000009999123100000010000000000000BRAMBVACNPR1153
012013073178AMBVA5      070AMBV        PN        000R$  000000000002000000000000200000000000020000000000002000000000000200000000000000000000000000000003000000000000065000000000000001300000000000001050002014012000000010000000000000BRAMBVACNPR1153
012013073178AMBVB10     070AMBV        PN        000R$  000000000001200000000000120000000000012000000000001200000000000120000000000000000000000000000003000000000000084500000000000001014000000000001100002014021700000010000000000000BRAMBVACNPR1153
012013073178AMBVB90     070AMBV        PN        000R$  000000000041700000000004170000000000408000000000040800000000004090000000000000000000000000000003000000000000052000000000000021229500000000000900002014021700000010000000000000BRAMBVACNPR1153
012013073178AMBVH85     070AMBV        PN        000R$  000000000009000000000000900000000000090000000000009000000000000900000000000000000000000000000001000000000000000100000000000000009000000000000850002013081900000010000000000000BRAMBVACNPR1153
012013073178AMBVH86     070AMBV        PN        000R$  000000000008000000000001050000000000060000000000009700000000000900000000000000000000000000000050000000000000074500000000000007242200000000000860002013081900000010000000000000BRAMBVACNPR1153
012013073178AMBVH87     070AMBV        PN        000R$  000000000005000000000000950000000000050000000000008900000000000950000000000090000000000000000005000000000000100100000000000008922200000000000870002013081900000010000000000000BRAMBVACNPR1153
012013073178AMBVH88     070AMBV        PN        000R$  000000000005000000000000580000000000050000000000005700000000000580000000000000000000000000000002000000000000065100000000000003775000000000000880002013081900000010000000000000BRAMBVACNPR1153
012013073178AMBVH89     070AMBV        PN        000R$  000000000003200000000000400000000000032000000000003400000000000400000000000010000000000000000004000000000000003000000000000000104800000000000890002013081900000010000000000000BRAMBVACNPR1153
012013073178AMBVJ92     070AMBV        PN        000R$  000000000011000000000001150000000000110000000000011400000000001150000000000000000000000000000002000000000000065000000000000007474500000000000920002013102100000010000000000000BRAMBVACNPR1153
012013073178AMBVJ93     070AMBV        PN        000R$  000000000010000000000001000000000000100000000000010000000000001000000000000000000000000000000001000000000000000200000000000000020000000000000930002013102100000010000000000000BRAMBVACNPR1153
012013073178AMBVK87     070AMBV        PN        000R$  000000000036500000000003650000000000365000000000036500000000003650000000000000000000000000000002000000000000065000000000000023725000000000000870002013111800000010000000000000BRAMBVACNPR1153
012013073178AMBVL10     070AMBV        PN        000R$  000000000006100000000000610000000000061000000000006100000000000610000000000000000000000000000003000000000000065000000000000003965000000000001000002013121600000010000000000000BRAMBVACNPR1153
012013073178AMBVL90     070AMBV        PN        000R$  000000000032800000000003280000000000328000000000032800000000003280000000000000000000000000000002000000000000065000000000000021320000000000000900002013121600000010000000000000BRAMBVACNPR1153
012013073178AMBVL95     070AMBV        PN        000R$  000000000015700000000001570000000000157000000000015700000000001570000000000000000000000000000003000000000000065000000000000010205000000000000950002013121600000010000000000000BRAMBVACNPR1153
012013073196APTI4F      020ALIPERTI    PN           R$  000000004500000000000450000000000045000000000004500000000000450000000000045000000000007500000004000000000000000005000000000000225000000000000000009999123100000010000000000000BRAPTIACNPR3125
012013073102ARTR3       010ARTERIS     ON      NM   R$  000000000216400000000021850000000002126000000000215500000000021680000000002152000000000216803851000000000001927700000000004154801100000000000000009999123100000010000000000000BRARTRACNOR3101
012013073196ARTR3F      020ARTERIS     ON      NM   R$  000000000216700000000021800000000002029000000000215000000000021500000000002130000000000215000561000000000000016775000000000036070022000000000000009999123100000010000000000000BRARTRACNOR3101
012013073102ARZZ3       010AREZZO CO   ON  ED  NM   R$  000000000365000000000036500000000003558000000000359300000000035580000000003558000000000360000665000000000000195400000000000702174000000000000000009999123100000010000000000000BRARZZACNOR3109
012013073196ARZZ3F      020AREZZO CO   ON  ED  NM   R$  000000000366000000000036600000000003271000000000352000000000035510000000003551000000000374300016000000000000000495000000000001742888000000000000009999123100000010000000000000BRARZZACNOR3109
012013073102AUTM3       010AUTOMETAL   ON      NM   R$  000000000179200000000018200000000001722000000000176900000000018200000000001744000000000182000581000000000000467300000000000826956900000000000000009999123100000010000000000000BRAUTMACNOR8109
012013073196AUTM3F      020AUTOMETAL   ON      NM   R$  000000000174000000000017430000000001730000000000173400000000017300000000001710000000000190000008000000000000000317000000000000549778000000000000009999123100000010000000000000BRAUTMACNOR8109
012013073102AVON11B     010AVON        DRN     MB   R$  000000000263500000000026350000000002635000000000263500000000026350000000002580000000000263500001000000000000000100000000000000263500000000000000009999123100000010000000000000BRAVONBDR009111
012013073102BAHI3       010BAHEMA      ON           R$  000000000050900000000005090000000000509000000000050900000000005090000000000490000000000051000002000000000000000200000000000000101800000000000000009999123100000010000000000000BRBAHIACNOR1066
012013073102BAUH4       010EXCELSIOR   PN           R$  000000000090000000000009930000000000900000000000094600000000009930000000000800000000000099300005000000000000000800000000000000757000000000000000009999123100000010000000000000BRBAUHACNPR3108
012013073102BAZA3       010AMAZONIA    ON           R$  000000000003400000000000340000000000033000000000003300000000000330000000000033000000000003400003000000000000004000000000000000133000000000000000009999123100000010000000000000BRBAZAACNOR0163
012013073196BAZA3F      020AMAZONIA    ON           R$  000000000003500000000000350000000000032000000000003400000000000320000000000032000000000003600002000000000000000644000000000000022108000000000000009999123100000010000000000000BRBAZAACNOR0163
012013073102BBAS3       010BRASIL      ON      NM   R$  000000000228700000000023040000000002260000000000227900000000022670000000002267000000000226810627000000000006746000000000015378433000000000000000009999123100000010000000000000BRBBASACNOR3237
012013073196BBAS3F      020BRASIL      ON      NM   R$  000000000229000000000023000000000002261000000000228500000000022950000000002295000000000229700141000000000000004073000000000009306768000000000000009999123100000010000000000000BRBBASACNOR3237
012013073162BBAS3T      030BRASIL      ON      NM016R$  000000000227900000000022800000000002279000000000227900000000022800000000000000000000000000000002000000000000003000000000000006837240000000000000009999123100000010000000000000BRBBASACNOR3237
012013073162BBAS3T      030BRASIL      ON      NM030R$  000000000229100000000022920000000002291000000000229100000000022920000000000000000000000000000004000000000000200000000000000458253250000000000000009999123100000010000000000000BRBBASACNOR3237
012013073162BBAS3T      030BRASIL      ON      NM061R$  000000000231700000000023280000000002307000000000231700000000023220000000000000000000000000000022000000000001930400000000004472743831000000000000009999123100000010000000000000BRBBASACNOR3237
012013073162BBAS3T      030BRASIL      ON      NM120R$  000000000232100000000023220000000002321000000000232100000000023220000000000000000000000000000002000000000000001000000000000002321717000000000000009999123100000010000000000000BRBBASACNOR3237
012013073162BBAS3T      030BRASIL      ON      NM180R$  000000000239500000000023960000000002395000000000239500000000023960000000000000000000000000000004000000000000000600000000000001437107000000000000009999123100000010000000000000BRBBASACNOR3237
012013073178BBASH21     070BBAS  FM    ON      NM000R$  000000000024000000000002400000000000206000000000022500000000002340000000000080000000000026000101000000000000151900000000000034274800000000000207602013081900000010000000000000BRBBASACNOR3236
012013073178BBASH22     070BBAS  FM    ON      NM000R$  000000000014500000000001510000000000121000000000013700000000001460000000000086000000000021600084000000000000143100000000000019685200000000000217602013081900000010000000000000BRBBASACNOR3236
012013073178BBASH23     070BBAS  FM    ON      NM000R$  000000000007300000000000770000000000055000000000006800000000000720000000000016000000000007500041000000000000099600000000000006817600000000000227602013081900000010000000000000BRBBASACNOR3236
012013073178BBASH24     070BBAS  FM    ON      NM000R$  000000000005200000000000530000000000035000000000004600000000000410000000000035000000000005000058000000000000092800000000000004359400000000000231702013081900000010000000000000BRBBASACNOR3233
012013073178BBASH25     070BBAS  FM    ON      NM000R$  000000000001700000000000170000000000011000000000001300000000000120000000000012000000000001500036000000000000057700000000000000779200000000000241702013081900000010000000000000BRBBASACNOR3233
012013073178BBASH26     070BBAS        ON      NM000R$  000000000000300000000000030000000000002000000000000200000000000030000000000001000000000000300007000000000000042000000000000000084300000000000256602013081900000010000000000000BRBBASACNOR3235
012013073178BBASH55     070BBAS        ON      NM000R$  000000000000400000000000040000000000004000000000000400000000000040000000000000000000000000000005000000000000044400000000000000177600000000000251602013081900000010000000000000BRBBASACNOR3235
012013073178BBASI21     070BBAS  FM    ON      NM000R$  000000000024300000000002440000000000212000000000023000000000002380000000000000000000000000000073000000000000148400000000000034241200000000000210002013091600000010000000000000BRBBASACNOR3237
012013073178BBASI22     070BBAS  FM    ON      NM000R$  000000000018000000000001830000000000157000000000017100000000001780000000000150000000000000000052000000000000097200000000000016689300000000000217602013091600000010000000000000BRBBASACNOR3236
012013073178BBASI23     070BBAS  FM    ON      NM000R$  000000000011200000000001120000000000094000000000010300000000001110000000000045000000000023500132000000000000088300000000000009181800000000000227602013091600000010000000000000BRBBASACNOR3236
012013073178BBASI24     070BBAS  FM    ON      NM000R$  000000000006500000000000650000000000050000000000006000000000000600000000000045000000000006300013000000000000027700000000000001685500000000000237602013091600000010000000000000BRBBASACNOR3236
012013073178BBASI25     070BBAS  FM    ON      NM000R$  000000000003500000000000350000000000027000000000003100000000000330000000000016000000000003300013000000000000018200000000000000576600000000000246602013091600000010000000000000BRBBASACNOR3235
012013073178BBASJ20     070BBAS        ON      NM000R$  000000000034300000000003430000000000343000000000034300000000003430000000000000000000000000000001000000000000003000000000000001029000000000000200002013102100000010000000000000BRBBASACNOR3237
012013073178BBASJ21     070BBAS        ON      NM000R$  000000000026500000000002650000000000258000000000026000000000002580000000000000000000000000000002000000000000005000000000000001304000000000000210002013102100000010000000000000BRBBASACNOR3237
012013073178BBASJ22     070BBAS        ON      NM000R$  000000000019600000000001960000000000186000000000019100000000001860000000000000000000000000000004000000000000010800000000000002072800000000000220002013102100000010000000000000BRBBASACNOR3237
012013073178BBASJ23     070BBAS        ON      NM000R$  000000000015000000000001500000000000150000000000015000000000001500000000000000000000000000000002000000000000006000000000000000900000000000000226602013102100000010000000000000BRBBASACNOR3235
012013073178BBASJ25     070BBAS        ON      NM000R$  000000000004900000000000490000000000049000000000004900000000000490000000000000000000000000000001000000000000000300000000000000014700000000000250002013102100000010000000000000BRBBASACNOR3237
012013073182BBAST18     080BBASE       ON      NM000R$  000000000000100000000000010000000000001000000000000100000000000010000000000000000000000000100001000000000000005000000000000000005000000000000180002013081900000010000000000000BRBBASACNOR3237
012013073182BBAST19     080BBASE       ON      NM000R$  000000000000400000000000040000000000004000000000000400000000000040000000000001000000000000000001000000000000003000000000000000012000000000000190002013081900000010000000000000BRBBASACNOR3237
012013073182BBAST20     080BBASE       ON      NM000R$  000000000000700000000000070000000000007000000000000700000000000070000000000002000000000000700001000000000000002000000000000000014000000000000200002013081900000010000000000000BRBBASACNOR3237
012013073182BBAST21     080BBASE FM    ON      NM000R$  000000000001000000000000100000000000008000000000000900000000000100000000000007000000000001400007000000000000026000000000000000248000000000000207602013081900000010000000000000BRBBASACNOR3236
012013073182BBAST22     080BBASE FM    ON      NM000R$  000000000001900000000000230000000000019000000000002000000000000200000000000007000000000004700030000000000000041400000000000000834300000000000217602013081900000010000000000000BRBBASACNOR3236
012013073182BBAST23     080BBASE FM    ON      NM000R$  000000000004300000000000590000000000042000000000005000000000000450000000000000000000000010000051000000000000112000000000000005691100000000000227602013081900000010000000000000BRBBASACNOR3236
012013073182BBAST24     080BBASE FM    ON      NM000R$  000000000006400000000000800000000000060000000000006700000000000720000000000046000000000009100091000000000000222300000000000015084900000000000231702013081900000010000000000000BRBBASACNOR3233
012013073182BBASU21     080BBASE FM    ON      NM000R$  000000000002900000000000290000000000026000000000002700000000000260000000000000000000000007000002000000000000003200000000000000089200000000000210002013091600000010000000000000BRBBASACNOR3237
012013073182BBASU22     080BBASE FM    ON      NM000R$  000000000004200000000000480000000000041000000000004200000000000480000000000035000000000004800006000000000000008700000000000000368100000000000217602013091600000010000000000000BRBBASACNOR3236
012013073182BBASU23     080BBASE FM    ON      NM000R$  000000000007200000000000860000000000070000000000007800000000000740000000000000000000000000000145000000000000085700000000000006728200000000000227602013091600000010000000000000BRBBASACNOR3236
012013073182BBASU24     080BBASE FM    ON      NM000R$  000000000011800000000001310000000000118000000000012500000000001220000000000000000000000000000023000000000000047200000000000005904000000000000237602013091600000010000000000000BRBBASACNOR3236
012013073182BBASU51     080BBASE       ON      NM000R$  000000000002000000000000200000000000020000000000002000000000000200000000000000000000000000000001000000000000000200000000000000004000000000000205002013091600000010000000000000BRBBASACNOR3237
012013073182BBASV20     080BBASE       ON      NM000R$  000000000002900000000000290000000000029000000000002900000000000290000000000000000000000012000001000000000000001200000000000000034800000000000200002013102100000010000000000000BRBBASACNOR3237
012013073182BBASV22     080BBASE       ON      NM000R$  000000000007300000000000730000000000073000000000007300000000000730000000000000000000000000000001000000000000003000000000000000219000000000000220002013102100000010000000000000BRBBASACNOR3237
012013073182BBASV24     080BBASE       ON      NM000R$  000000000014900000000001540000000000144000000000014800000000001440000000000000000000000000000009000000000000025900000000000003849600000000000237602013102100000010000000000000BRBBASACNOR3236
012013073182BBASV25     080BBASE       ON      NM000R$  000000000022000000000002330000000000220000000000022500000000002220000000000000000000000000000014000000000000041200000000000009291800000000000250002013102100000010000000000000BRBBASACNOR3237
012013073182BBASV26     080BBASE       ON      NM000R$  000000000026800000000002890000000000268000000000027500000000002700000000000000000000000000000010000000000000026100000000000007200800000000000256602013102100000010000000000000BRBBASACNOR3235
012013073182BBASV53     080BBASE       ON      NM000R$  000000000012600000000001260000000000119000000000012200000000001190000000000000000000000000000002000000000000005300000000000000651700000000000231602013102100000010000000000000BRBBASACNOR3235
012013073182BBASW19     080BBASE       ON      NM000R$  000000000002300000000000230000000000023000000000002300000000000230000000000000000000000000000001000000000000001200000000000000027600000000000190002013111800000010000000000000BRBBASACNOR3237
012013073102BBDC3       010BRADESCO    ON      N1   R$  000000000309000000000031440000000003076000000000309700000000030900000000003089000000000309003364000000000001386300000000004293343400000000000000009999123100000010000000000000BRBBDCACNOR1604
012013073196BBDC3F      020BRADESCO    ON      N1   R$  000000000312100000000031580000000003031000000000310300000000031580000000003073000000000315700076000000000000001662000000000005157959000000000000009999123100000010000000000000BRBBDCACNOR1604
012013073162BBDC3T      030BRADESCO    ON      N1030R$  000000000311600000000031170000000003104000000000311200000000031050000000000000000000000000000008000000000000330000000000001027052234000000000000009999123100000010000000000000BRBBDCACNOR1604
012013073162BBDC3T      030BRADESCO    ON      N1061R$  000000000313500000000031360000000003135000000000313500000000031360000000000000000000000000000002000000000000200000000000000627139172000000000000009999123100000010000000000000BRBBDCACNOR1604
012013073102BBDC4       010BRADESCO    PN      N1   R$  000000000281400000000028300000000002760000000000278300000000027700000000002769000000000277024797000000000008012900000000022305033400000000000000009999123100000010000000000000BRBBDCACNPR8604
012013073196BBDC4F      020BRADESCO    PN      N1   R$  000000000281800000000028300000000002761000000000278900000000027780000000002778000000000279300231000000000000005858000000000016337851000000000000009999123100000010000000000000BRBBDCACNPR8604
012013073162BBDC4T      030BRADESCO    PN      N1016R$  000000000279200000000027930000000002792000000000279200000000027930000000000000000000000000000002000000000000002500000000000006980310000000000000009999123100000010000000000000BRBBDCACNPR8604
012013073162BBDC4T      030BRADESCO    PN      N1030R$  000000000279000000000028090000000002785000000000280600000000027900000000000000000000000000000010000000000000033900000000000095142842000000000000009999123100000010000000000000BRBBDCACNPR8604
012013073162BBDC4T      030BRADESCO    PN      N1061R$  000000000283700000000028380000000002814000000000283000000000028150000000000000000000000000000008000000000000060300000000000170653048000000000000009999123100000010000000000000BRBBDCACNPR8604
012013073162BBDC4T      030BRADESCO    PN      N1090R$  000000000284900000000028500000000002849000000000284900000000028500000000000000000000000000000002000000000000000200000000000000569956000000000000009999123100000010000000000000BRBBDCACNPR8604
012013073178BBDCC6      070BBDC        PN      N1000R$  000000000011000000000001100000000000110000000000011000000000001100000000000000000000000000000001000000000000001000000000000000110000000000000324702014031700000010000000000000BRBBDCACNPR8598
012013073178BBDCH24     070BBDC        PN      N1000R$  000000000041000000000004160000000000397000000000041100000000004140000000000000000000000000000013000000000000001300000000000000534900000000000238002013081900000010000000000000BRBBDCACNPR8602
012013073178BBDCH26     070BBDC        PN      N1000R$  000000000026000000000002610000000000221000000000024300000000002210000000000000000000000000000006000000000000016100000000000003921000000000000258002013081900000010000000000000BRBBDCACNPR8602
012013073178BBDCH27     070BBDC        PN      N1000R$  000000000017100000000001710000000000137000000000014800000000001370000000000000000000000017900029000000000000044000000000000006531500000000000268002013081900000010000000000000BRBBDCACNPR8602
012013073178BBDCH28     070BBDC        PN      N1000R$  000000000009000000000001100000000000068000000000007700000000000720000000000070000000000007200216000000000000410600000000000031981600000000000278002013081900000010000000000000BRBBDCACNPR8602
012013073178BBDCH29     070BBDC        PN      N1000R$  000000000004100000000000410000000000028000000000003300000000000280000000000028000000000003600140000000000000182900000000000006213000000000000288002013081900000010000000000000BRBBDCACNPR8602
012013073178BBDCH30     070BBDC        PN      N1000R$  000000000001500000000000150000000000011000000000001200000000000120000000000010000000000002000027000000000000094300000000000001154900000000000298002013081900000010000000000000BRBBDCACNPR8602
012013073178BBDCH31     070BBDC        PN      N1000R$  000000000000600000000000060000000000005000000000000500000000000050000000000003000000000001100005000000000000008400000000000000045200000000000307602013081900000010000000000000BRBBDCACNPR8600
012013073178BBDCH32     070BBDC        PN      N1000R$  000000000000200000000000020000000000002000000000000200000000000020000000000002000000000000000005000000000000010500000000000000021000000000000318002013081900000010000000000000BRBBDCACNPR8602
012013073178BBDCH34     070BBDC        PN      N1000R$  000000000000800000000000080000000000006000000000000600000000000060000000000005000000000001800005000000000000001400000000000000009200000000000305502013081900000010000000000000BRBBDCACNPR8595
012013073178BBDCI26     070BBDC        PN      N1000R$  000000000025000000000002500000000000239000000000024400000000002390000000000000000000000000000007000000000000022900000000000005609400000000000260002013091600000010000000000000BRBBDCACNPR8604
012013073178BBDCI27     070BBDC        PN      N1000R$  000000000020600000000002060000000000179000000000018400000000001800000000000171000000000000000016000000000000020100000000000003703200000000000268002013091600000010000000000000BRBBDCACNPR8602
012013073178BBDCI28     070BBDC        PN      N1000R$  000000000014200000000001470000000000119000000000012800000000001300000000000000000000000013600064000000000000117900000000000015154800000000000278002013091600000010000000000000BRBBDCACNPR8602
012013073178BBDCI29     070BBDC        PN      N1000R$  000000000008800000000000920000000000068000000000007800000000000680000000000000000000000012000047000000000000098600000000000007704600000000000288002013091600000010000000000000BRBBDCACNPR8602
012013073178BBDCI30     070BBDC        PN      N1000R$  000000000005000000000000510000000000037000000000004300000000000410000000000011000000000006000026000000000000050000000000000002189700000000000298002013091600000010000000000000BRBBDCACNPR8602
012013073178BBDCI31     070BBDC        PN      N1000R$  000000000016600000000001660000000000151000000000015900000000001510000000000000000000000000000006000000000000012600000000000002009700000000000273102013091600000010000000000000BRBBDCACNPR8590
012013073178BBDCI32     070BBDC        PN      N1000R$  000000000001000000000000100000000000010000000000001000000000000100000000000006000000000001200002000000000000002200000000000000022000000000000318002013091600000010000000000000BRBBDCACNPR8602
012013073178BBDCI33     070BBDC        PN      N1000R$  000000000004400000000000440000000000041000000000004100000000000410000000000000000000000000000005000000000000010500000000000000438900000000000297402013091600000010000000000000BRBBDCACNPR8598
012013073178BBDCI75     070BBDCE       PN      N1000R$  000000000011700000000001170000000000099000000000010400000000001060000000000000000000000000000008000000000000015700000000000001636300000000000282502013091600000010000000000000BRBBDCACNPR8604
012013073178BBDCI81     070BBDC        PN      N1000R$  000000000002200000000000220000000000019000000000001900000000000200000000000000000000000000000008000000000000012600000000000000249400000000000308002013091600000010000000000000BRBBDCACNPR8602
012013073178BBDCJ27     070BBDC        PN      N1000R$  000000000025600000000002560000000000256000000000025600000000002560000000000000000000000000000001000000000000003000000000000000768000000000000268002013102100000010000000000000BRBBDCACNPR8602
012013073178BBDCJ29     070BBDC        PN      N1000R$  000000000013600000000001360000000000110000000000012600000000001100000000000000000000000000000005000000000000006200000000000000784800000000000288002013102100000010000000000000BRBBDCACNPR8602
012013073178BBDCJ31     070BBDC        PN      N1000R$  000000000004800000000000480000000000046000000000004700000000000460000000000010000000000000000002000000000000001400000000000000066400000000000308002013102100000010000000000000BRBBDCACNPR8602
012013073178BBDCJ33     070BBDC        PN      N1000R$  000000000001900000000000190000000000019000000000001900000000000190000000000000000000000000000001000000000000000400000000000000007600000000000328002013102100000010000000000000BRBBDCACNPR8602
012013073178BBDCK28     070BBDC        PN      N1000R$  000000000020400000000002040000000000204000000000020400000000002040000000000000000000000000000001000000000000001200000000000000244800000000000278002013111800000010000000000000BRBBDCACNPR8602
012013073178BBDCK32     070BBDC        PN      N1000R$  000000000004900000000000490000000000044000000000004600000000000470000000000000000000000000000003000000000000000300000000000000014000000000000317802013111800000010000000000000BRBBDCACNPR8601
012013073178BBDCK34     070BBDC        PN      N1000R$  000000000002300000000000230000000000021000000000002200000000000230000000000000000000000000000003000000000000000300000000000000006700000000000340002013111800000010000000000000BRBBDCACNPR8604
012013073178BBDCL32     070BBDC        PN      N1000R$  000000000006600000000000660000000000066000000000006600000000000660000000000000000000000000000001000000000000000100000000000000006600000000000317602013121600000010000000000000BRBBDCACNPR8600
012013073178BBDCL34     070BBDC        PN      N1000R$  000000000003500000000000350000000000035000000000003500000000000350000000000000000000000000000001000000000000000100000000000000003500000000000337602013121600000010000000000000BRBBDCACNPR8600
012013073182BBDCT25     080BBDCE       PN      N1000R$  000000000000700000000000090000000000007000000000000800000000000080000000000001000000000000000005000000000000003400000000000000030200000000000248002013081900000010000000000000BRBBDCACNPR8602
012013073182BBDCT26     080BBDCE       PN      N1000R$  000000000001800000000000180000000000018000000000001800000000000180000000000000000000000003600001000000000000000100000000000000001800000000000258002013081900000010000000000000BRBBDCACNPR8602
012013073182BBDCT27     080BBDCE       PN      N1000R$  000000000002200000000000340000000000022000000000002800000000000280000000000000000000000019300028000000000000063100000000000001823200000000000268002013081900000010000000000000BRBBDCACNPR8602
012013073182BBDCT28     080BBDCE       PN      N1000R$  000000000005100000000000700000000000051000000000006200000000000610000000000000000000000000000049000000000000086900000000000005472800000000000278002013081900000010000000000000BRBBDCACNPR8602
012013073182BBDCT29     080BBDCE       PN      N1000R$  000000000009300000000001310000000000090000000000011600000000001220000000000000000000000000000121000000000000223200000000000026037600000000000288002013081900000010000000000000BRBBDCACNPR8602
012013073182BBDCT30     080BBDCE       PN      N1000R$  000000000016900000000002150000000000164000000000019300000000002030000000000000000000000027000147000000000000237400000000000045941800000000000298002013081900000010000000000000BRBBDCACNPR8602
012013073182BBDCT31     080BBDCE       PN      N1000R$  000000000027100000000003000000000000270000000000028000000000002940000000000000000000000000000019000000000000024500000000000006880400000000000307602013081900000010000000000000BRBBDCACNPR8600
012013073182BBDCT34     080BBDCE       PN      N1000R$  000000000025100000000002560000000000250000000000025200000000002560000000000000000000000000000006000000000000012000000000000003026000000000000305502013081900000010000000000000BRBBDCACNPR8595
012013073182BBDCU26     080BBDCE       PN      N1000R$  000000000004300000000000440000000000043000000000004300000000000440000000000000000000000000000002000000000000000200000000000000008700000000000260002013091600000010000000000000BRBBDCACNPR8604
012013073182BBDCU27     080BBDCE       PN      N1000R$  000000000004900000000000650000000000049000000000005400000000000540000000000000000000000000000018000000000000025100000000000001367900000000000268002013091600000010000000000000BRBBDCACNPR8602
012013073182BBDCU28     080BBDCE       PN      N1000R$  000000000008000000000001020000000000077000000000009200000000000930000000000000000000000000000057000000000000101800000000000009465200000000000278002013091600000010000000000000BRBBDCACNPR8602
012013073182BBDCU29     080BBDCE       PN      N1000R$  000000000012500000000001560000000000121000000000013800000000001460000000000000000000000000000051000000000000082300000000000011429900000000000288002013091600000010000000000000BRBBDCACNPR8602
012013073182BBDCU30     080BBDCE       PN      N1000R$  000000000018600000000002250000000000181000000000020700000000002150000000000000000000000000000110000000000000186600000000000038644900000000000298002013091600000010000000000000BRBBDCACNPR8602
012013073182BBDCU31     080BBDCE       PN      N1000R$  000000000007000000000000800000000000070000000000007700000000000800000000000000000000000000000006000000000000010200000000000000787000000000000273102013091600000010000000000000BRBBDCACNPR8590
012013073182BBDCU33     080BBDCE       PN      N1000R$  000000000019000000000002120000000000190000000000020100000000002120000000000000000000000000000007000000000000011800000000000002381800000000000297402013091600000010000000000000BRBBDCACNPR8598
012013073182BBDCU75     080BBDCE       PN      N1000R$  000000000010500000000001180000000000105000000000011400000000001180000000000000000000000000000008000000000000015600000000000001780000000000000282502013091600000010000000000000BRBBDCACNPR8604
012013073182BBDCV1      080BBDCE       PN      N1000R$  000000000032100000000003560000000000321000000000034400000000003560000000000000000000000000000006000000000000011500000000000003956000000000000314802013102100000010000000000000BRBBDCACNPR8603
012013073182BBDCV2      080BBDCE       PN      N1000R$  000000000039900000000004420000000000399000000000042200000000004410000000000000000000000000000008000000000000013000000000000005493000000000000324802013102100000010000000000000BRBBDCACNPR8603
012013073182BBDCV25     080BBDCE       PN      N1000R$  000000000004500000000000450000000000043000000000004400000000000430000000000000000000000000000006000000000000004900000000000000218500000000000249802013102100000010000000000000BRBBDCACNPR8603
012013073182BBDCV26     080BBDCE       PN      N1000R$  000000000006700000000000670000000000067000000000006700000000000670000000000000000000000000000001000000000000002000000000000000134000000000000260002013102100000010000000000000BRBBDCACNPR8604
012013073182BBDCV27     080BBDCE       PN      N1000R$  000000000008100000000000870000000000081000000000008200000000000840000000000000000000000000000084000000000000167600000000000013881100000000000268002013102100000010000000000000BRBBDCACNPR8602
012013073182BBDCV29     080BBDCE       PN      N1000R$  000000000016400000000001780000000000164000000000017000000000001720000000000000000000000000000022000000000000032100000000000005460800000000000288002013102100000010000000000000BRBBDCACNPR8602
012013073182BBDCV30     080BBDCE       PN      N1000R$  000000000023500000000002350000000000222000000000022800000000002320000000000000000000000000000014000000000000020100000000000004597600000000000298002013102100000010000000000000BRBBDCACNPR8602
012013073182BBDCV31     080BBDCE       PN      N1000R$  000000000027000000000003030000000000270000000000029300000000003020000000000000000000000000000009000000000000016000000000000004691000000000000308002013102100000010000000000000BRBBDCACNPR8602
012013073182BBDCV32     080BBDCE       PN      N1000R$  000000000034600000000003840000000000346000000000036900000000003760000000000000000000000000000005000000000000005400000000000001996900000000000318002013102100000010000000000000BRBBDCACNPR8602
012013073182BBDCW27     080BBDCE       PN      N1000R$  000000000010800000000001080000000000108000000000010800000000001080000000000000000000000011300018000000000000010000000000000001080000000000000269802013111800000010000000000000BRBBDCACNPR8603
012013073112BBFI11B     010FII BB PROGRCI      MB   R$  000000042029200000004202920000000420291000000042029100000004202910000000425002000000043122100002000000000000000005000000000002101458000000000000009999123100000010000000000000BRBBFICTF006196
012013073112BBPO11      010FII BB PRGIICI           R$  000000001118400000000111950000000011151000000001118200000000111900000000011180000000001119000133000000000000017622000000000197053313000000000000009999123100000010000000000000BRBBPOCTF003108
012013073112BBRC11      010FII BB CORP CI           R$  000000000920100000000092990000000009061000000000911900000000091010000000009101000000000927000029000000000000001397000000000012739916000000000000009999123100000010000000000000BRBBRCCTF004122
012013073102BBRK3       010BR BROKERS  ON      NM   R$  000000000057900000000005890000000000573000000000058100000000005790000000000578000000000057901843000000000000821700000000000477449300000000000000009999123100000010000000000000BRBBRKACNOR4108
012013073196BBRK3F      020BR BROKERS  ON      NM   R$  000000000057500000000006150000000000558000000000059300000000005580000000000558000000000063800008000000000000000163000000000000096552000000000000009999123100000010000000000000BRBBRKACNOR4108
012013073102BBSE3       010BBSEGURIDADEON      NM   R$  000000000182100000000018450000000001816000000000183600000000018440000000001840000000000184407280000000000003346600000000006144875700000000000000009999123100000010000000000000BRBBSEACNOR5100
012013073196BBSE3F      020BBSEGURIDADEON      NM   R$  000000000182200000000018490000000001816000000000183400000000018450000000001845000000000184900920000000000000024950000000000045772418000000000000009999123100000010000000000000BRBBSEACNOR5100
012013073162BBSE3T      030BBSEGURIDADEON      NM030R$  000000000184000000000018410000000001840000000000184000000000018410000000000000000000000000000002000000000000010000000000000018404304000000000000009999123100000010000000000000BRBBSEACNOR5100
012013073102BBTG11      010BTG PACTUAL UNT          R$  000000000272900000000028180000000002716000000000275000000000027560000000002756000000000276901416000000000004107600000000011298467500000000000000009999123100000010000000000000BRBBTGUNT007104
012013073196BBTG11F     020BTG PACTUAL UNT          R$  000000000273000000000028040000000002605000000000275200000000027000000000002607000000000289300030000000000000000753000000000002072725000000000000009999123100000010000000000000BRBBTGUNT007104
012013073162BBTG11T     030BTG PACTUAL UNT       061R$  000000000279300000000027940000000002788000000000278800000000027890000000000000000000000000000008000000000003660000000000010205308278000000000000009999123100000010000000000000BRBBTGUNT007104
012013073112BBVJ11      010FII C JARDIMCI           R$  000000000805600000000080560000000007981000000000804800000000080550000000007985000000000805500016000000000000001496000000000012040098000000000000009999123100000010000000000000BRBBVJCTF001131
012013073112BCFF11B     010FII BC FFII CI      MB   R$  000000001005000000000101500000000010032000000001010500000000101390000000010101000000001013900038000000000000003441000000000034771928000000000000009999123100000010000000000000BRBCFFCTF000140
012013073102BDLL4       010BARDELLA    PN           R$  000000000499900000000049990000000004999000000000499900000000049990000000004602000000000500000001000000000000005000000000000024995000000000000000009999123100000010000000000000BRBDLLACNPR8149
012013073162BDLL4T      030BARDELLA    PN        090R$  000000000509800000000050990000000005098000000000509800000000050990000000000000000000000000000002000000000000005000000000000025494900000000000000009999123100000010000000000000BRBDLLACNPR8149
012013073102BEEF3       010MINERVA     ON      NM   R$  000000000090200000000009120000000000882000000000089500000000009100000000000910000000000091301949000000000000485600000000000435090700000000000000009999123100000010000000000000BRBEEFACNOR6104
012013073196BEEF3F      020MINERVA     ON      NM   R$  000000000088500000000009000000000000882000000000088900000000009000000000000883000000000090000007000000000000000176000000000000156675000000000000009999123100000010000000000000BRBEEFACNOR6104
012013073102BEES3       010BANESTES    ON           R$  000000000004700000000000470000000000046000000000004600000000000470000000000046000000000004700015000000000000205900000000000009481700000000000000009999123100000010000000000000BRBEESACNOR9242
012013073102BEES4       010BANESTES    PN           R$  000000000004500000000000450000000000045000000000004500000000000450000000000044000000000004700001000000000000004500000000000000202500000000000000009999123100000010000000000000BRBEESACNPR6167
012013073162BEES4T      030BANESTES    PN        047R$  000000000004500000000000460000000000045000000000004500000000000460000000000000000000000000000002000000000000004500000000000000204687000000000000009999123100000010000000000000BRBEESACNPR6167
012013073102BEMA3       010BEMATECH    ON      NM   R$  000000000076000000000007620000000000738000000000075000000000007540000000000752000000000075400090000000000000039900000000000029944400000000000000009999123100000010000000000000BRBEMAACNOR0113
012013073196BEMA3F      020BEMATECH    ON      NM   R$  000000000076000000000007600000000000706000000000073400000000007060000000000706000000000079900005000000000000000216000000000000158555000000000000009999123100000010000000000000BRBEMAACNOR0113
012013073102BGIP4       010BANESE      PN           R$  000000000489000000000051000000000004801000000000489200000000051000000000004800000000000510000004000000000000001200000000000005871200000000000000009999123100000010000000000000BRBGIPACNPR8178
012013073162BGIP4T      030BANESE      PN        090R$  000000000500000000000050010000000005000000000000500000000000050010000000000000000000000000000002000000000000000900000000000004500463000000000000009999123100000010000000000000BRBGIPACNPR8178
012013073102BHGR3       010BHG         ON      NM   R$  000000000169900000000016990000000001666000000000167000000000016800000000001670000000000168000066000000000000553700000000000925158500000000000000009999123100000010000000000000BRBHGRACNOR9101
012013073196BHGR3F      020BHG         ON      NM   R$  000000000166000000000016600000000001660000000000166000000000016600000000001402000000000168900001000000000000000022000000000000036520000000000000009999123100000010000000000000BRBHGRACNOR9101
012013073102BICB4       010BICBANCO    PN      N1   R$  000000000038400000000003840000000000367000000000037100000000003680000000000368000000000037100169000000000000075600000000000028049600000000000000009999123100000010000000000000BRBICBACNPR7131
012013073196BICB4F      020BICBANCO    PN      N1   R$  000000000036600000000003700000000000366000000000036600000000003700000000000363000000000037000002000000000000000025000000000000009170000000000000009999123100000010000000000000BRBICBACNPR7131
012013073162BICB4T      030BICBANCO    PN      N1047R$  000000000037600000000003770000000000376000000000037600000000003770000000000000000000000000000002000000000000000300000000000000112805000000000000009999123100000010000000000000BRBICBACNPR7131
012013073162BICB4T      030BICBANCO    PN      N1120R$  000000000037700000000003780000000000377000000000037700000000003780000000000000000000000000000002000000000000001000000000000000377862000000000000009999123100000010000000000000BRBICBACNPR7131
012013073102BIOM4       010BIOMM       PN           R$  000000000089500000000008950000000000895000000000089500000000008950000000000810000000000090000001000000000000001000000000000000895000000000000000009999123100000010000000000000BRBIOMACNPR9101
012013073102BISA3       010BROOKFIELD  ON      NM   R$  000000000017000000000001740000000000165000000000016800000000001660000000000166000000000016708344000000000009248000000000001555480200000000000000009999123100000010000000000000BRBISAACNOR8109
012013073196BISA3F      020BROOKFIELD  ON      NM   R$  000000000016800000000001780000000000166000000000016800000000001780000000000167000000000017800012000000000000000441000000000000074415000000000000009999123100000010000000000000BRBISAACNOR8109
012013073162BISA3T      030BROOKFIELD  ON      NM090R$  000000000017100000000001720000000000169000000000016900000000001700000000000000000000000000000006000000000000635600000000000107985428000000000000009999123100000010000000000000BRBISAACNOR8109
012013073112BJRC11      010FII JS RECIMCI           R$  000000008950000000000900000000000087000000000008830600000000900000000000082200000000009000000003000000000000000031000000000002737500000000000000009999123100000010000000000000BRBJRCCTF007108
012013073102BMEB3       010MERC BRASIL ON           R$  000000000175000000000017500000000001750000000000175000000000017500000000001601000000000180000001000000000000000100000000000000175000000000000000009999123100000010000000000000BRBMEBACNOR8189
012013073102BMEB4       010MERC BRASIL PN           R$  000000000111700000000011300000000001116000000000112300000000011300000000001130000000000114400006000000000000004200000000000004718600000000000000009999123100000010000000000000BRBMEBACNPR5190
012013073102BMIN4       010MERC INVEST PN           R$  000000000002300000000000230000000000023000000000002300000000000230000000000023000000000002400001000000000000001000000000000000023000000000000000009999123100000010000000000000BRBMINACNPR1159
012013073112BMLC11B     010FII BMBRC LCCI      MB   R$  000000001179000000000117900000000011780000000001178300000000117900000000011750000000001179000015000000000000003764000000000044353970000000000000009999123100000010000000000000BRBMLCCTF004117
012013073112BNFS11      010FII BANRISULCI           R$  000000000980200000000102450000000009800000000000980100000000102450000000009800000000001024500005000000000000000633000000000006204350000000000000009999123100000010000000000000BRBNFSCTF000110
012013073102BOBR4       010BOMBRIL     PN           R$  000000000065200000000006520000000000652000000000065200000000006520000000000651000000000069000001000000000000000100000000000000065200000000000000009999123100000010000000000000BRBOBRACNPR3127
012013073114BOVA11      010ISHARES BOVACI           R$  000000000473600000000047900000000004717000000000474800000000047320000000004726000000000473206768000000000002504460000000011892802110000000000000009999123100000010000000000000BRBOVACTF003101
012013073196BOVA11F     020ISHARES BOVACI           R$  000000000475900000000047750000000004726000000000475500000000047260000000004720000000000477500010000000000000000028000000000000133165000000000000009999123100000010000000000000BRBOVACTF003101
012013073112BPFF11      010FII ABSOLUTOCI           R$  000000000885000000000090290000000008750000000000885500000000089020000000008902000000000900000020000000000000001926000000000017056573000000000000009999123100000010000000000000BRBPFFCTF002103
012013073102BPHA3       010BR PHARMA   ON      NM   R$  000000000099900000000009990000000000975000000000098800000000009900000000000990000000000099301296000000000000814200000000000804660700000000000000009999123100000010000000000000BRBPHAACNOR6102
012013073196BPHA3F      020BR PHARMA   ON      NM   R$  000000000098300000000009950000000000983000000000098800000000009950000000000976000000000101900007000000000000000190000000000000187738000000000000009999123100000010000000000000BRBPHAACNOR6102
012013073162BPHA3T      030BR PHARMA   ON      NM030R$  000000000099400000000009950000000000994000000000099400000000009950000000000000000000000000000002000000000000001300000000000001292852000000000000009999123100000010000000000000BRBPHAACNOR6102
012013073102BPNM4       010PANAMERICANOPN      N1   R$  000000000060300000000006100000000000590000000000059400000000006060000000000605000000000060600396000000000002226600000000001324189900000000000000009999123100000010000000000000BRBPNMACNPR6111
012013073196BPNM4F      020PANAMERICANOPN      N1   R$  000000000060000000000006000000000000583000000000059200000000005920000000000590000000000060900032000000000000000837000000000000495814000000000000009999123100000010000000000000BRBPNMACNPR6111
012013073102BRAP3       010BRADESPAR   ON      N1   R$  000000000182000000000018300000000001745000000000179500000000017940000000001794000000000182500214000000000000032300000000000057981700000000000000009999123100000010000000000000BRBRAPACNOR5124
012013073196BRAP3F      020BRADESPAR   ON      N1   R$  000000000185000000000018500000000001752000000000179900000000017530000000001752000000000184800016000000000000000303000000000000545306000000000000009999123100000010000000000000BRBRAPACNOR5124
012013073102BRAP4       010BRADESPAR   PN      N1   R$  000000000223000000000022510000000002214000000000223500000000022400000000002231000000000224004002000000000001149600000000002570338100000000000000009999123100000010000000000000BRBRAPACNPR2124
012013073196BRAP4F      020BRADESPAR   PN      N1   R$  000000000228500000000022850000000002225000000000223900000000022500000000002250000000000228200056000000000000001473000000000003298271000000000000009999123100000010000000000000BRBRAPACNPR2124
012013073114BRAX11      010ISHARES BRAXCI           R$  000000000393500000000039350000000003935000000000393500000000039350000000000000000000000000000001000000000000000100000000000000393500000000000000009999123100000010000000000000BRBRAXCTF002100
012013073112BRCR11      010FII BC FUND CI           R$  000000001338900000000134280000000013308000000001336500000000133500000000013310000000001335000359000000000000019301000000000257969995000000000000009999123100000010000000000000BRBRCRCTF000131
012013073102BRFS3       010BRF SA      ON      NM   R$  000000000487700000000049130000000004835000000000486500000000048600000000004859000000000486007504000000000002069700000000010069141900000000000000009999123100000010000000000000BRBRFSACNOR8110
012013073196BRFS3F      020BRF SA      ON      NM   R$  000000000490000000000049010000000004830000000000487100000000048760000000004848000000000487600079000000000000002333000000000011366105000000000000009999123100000010000000000000BRBRFSACNOR8110
012013073162BRFS3T      030BRF SA      ON      NM030R$  000000000489300000000048940000000004893000000000489300000000048940000000000000000000000000000002000000000000000200000000000000978707000000000000009999123100000010000000000000BRBRFSACNOR8110
012013073182BRFSU48     080BRFSE       ON      NM000R$  000000000005400000000000540000000000054000000000005400000000000540000000000067000000000030000001000000000000000500000000000000027000000000000480002013091600000010000000000000BRBRFSACNOR8110
012013073102BRGE3       010ALFA CONSORCON           R$  000000000034300000000003430000000000343000000000034300000000003430000000000342000000000040000001000000000000000700000000000000240100000000000000009999123100000010000000000000BRBRGEACNOR6196
012013073102BRIN3       010BR INSURANCEON      NM   R$  000000000222800000000022510000000002183000000000221700000000022000000000002200000000000221401297000000000000571100000000001266488800000000000000009999123100000010000000000000BRBRINACNOR3105
012013073196BRIN3F      020BR INSURANCEON      NM   R$  000000000223800000000022500000000002190000000000221300000000021960000000002190000000000219600057000000000000001044000000000002311332000000000000009999123100000010000000000000BRBRINACNOR3105
012013073102BRIV3       010ALFA INVEST ON           R$  000000000064800000000006480000000000646000000000064600000000006460000000000606000000000064700002000000000000004500000000000002909200000000000000009999123100000010000000000000BRBRIVACNOR6196
012013073102BRIV4       010ALFA INVEST PN           R$  000000000060300000000006030000000000603000000000060300000000006030000000000581000000000060200001000000000000015000000000000009045000000000000000009999123100000010000000000000BRBRIVACNPR3196
012013073102BRKM3       010BRASKEM     ON      N1   R$  000000000112300000000011590000000001116000000000113000000000011190000000001119000000000115300037000000000000018300000000000020694000000000000000009999123100000010000000000000BRBRKMACNOR1110
012013073162BRKM3T      030BRASKEM     ON      N1180R$  000000000121200000000012130000000001212000000000121200000000012130000000000000000000000000000002000000000000003000000000000003637985000000000000009999123100000010000000000000BRBRKMACNOR1110
012013073102BRKM5       010BRASKEM     PNA     N1   R$  000000000169300000000017600000000001693000000000173200000000017580000000001741000000000175809038000000000002178200000000003774080400000000000000009999123100000010000000000000BRBRKMACNPA4110
012013073196BRKM5F      020BRASKEM     PNA     N1   R$  000000000171300000000017600000000001675000000000173300000000017590000000001675000000000175900032000000000000000723000000000001253455000000000000009999123100000010000000000000BRBRKMACNPA4110
012013073162BRKM5T      030BRASKEM     PNA     N1030R$  000000000171400000000017150000000001714000000000171400000000017150000000000000000000000000000002000000000000002000000000000003428168000000000000009999123100000010000000000000BRBRKMACNPA4110
012013073102BRML3       010BR MALLS PARON      NM   R$  000000000200000000000020250000000001981000000000200300000000020220000000002020000000000202206539000000000001926600000000003860629900000000000000009999123100000010000000000000BRBRMLACNOR9105
012013073196BRML3F      020BR MALLS PARON      NM   R$  000000000200400000000020250000000001981000000000199700000000020000000000001993000000000201800399000000000000010218000000000020411660000000000000009999123100000010000000000000BRBRMLACNOR9105
012013073162BRML3T      030BR MALLS PARON      NM061R$  000000000201300000000020390000000002013000000000203200000000020390000000000000000000000000000004000000000000001300000000000002642049000000000000009999123100000010000000000000BRBRMLACNOR9105
012013073102BRPR3       010BR PROPERT  ON      NM   R$  000000000186600000000019080000000001853000000000187900000000018900000000001890000000000189704735000000000001072300000000002015437200000000000000009999123100000010000000000000BRBRPRACNOR9112
012013073196BRPR3F      020BR PROPERT  ON      NM   R$  000000000189000000000019800000000001861000000000188200000000019030000000001878000000000199800051000000000000001368000000000002574171000000000000009999123100000010000000000000BRBRPRACNOR9112
012013073196BRSR3F      020BANRISUL    ON      N1   R$  000000000142000000000014200000000001420000000000142000000000014200000000001300000000000142000001000000000000000001000000000000001420000000000000009999123100000010000000000000BRBRSRACNOR3130
012013073102BRSR6       010BANRISUL    PNB     N1   R$  000000000148000000000015240000000001466000000000150800000000015240000000001516000000000152403132000000000000911200000000001374804700000000000000009999123100000010000000000000BRBRSRACNPB4133
012013073196BRSR6F      020BANRISUL    PNB     N1   R$  000000000147500000000015700000000001460000000000149200000000015100000000001500000000000151400333000000000000010137000000000015134752000000000000009999123100000010000000000000BRBRSRACNPB4133
012013073162BRSR6T      030BANRISUL    PNB     N1090R$  000000000151600000000015170000000001516000000000151600000000015170000000000000000000000000000002000000000000000700000000000001061561000000000000009999123100000010000000000000BRBRSRACNPB4133
012013073102BSEV3       010BIOSEV      ON      NM   R$  000000000123000000000012300000000001219000000000122100000000012200000000001220000000000129000008000000000000001000000000000001221600000000000000009999123100000010000000000000BRBSEVACNOR3100
012013073196BSEV3F      020BIOSEV      ON      NM   R$  000000000121500000000012900000000001215000000000122000000000012900000000001125000000000129000003000000000000000082000000000000100080000000000000009999123100000010000000000000BRBSEVACNOR3100
012013073102BTOW3       010B2W DIGITAL ON      NM   R$  000000000114500000000011450000000001060000000000110300000000010600000000001060000000000106502398000000000000829600000000000914614100000000000000009999123100000010000000000000BRBTOWACNOR8105
012013073196BTOW3F      020B2W DIGITAL ON      NM   R$  000000000112500000000011440000000001072000000000110600000000010720000000001011000000000107000020000000000000000431000000000000476999000000000000009999123100000010000000000000BRBTOWACNOR8105
012013073162BTOW3T      030B2W DIGITAL ON      NM016R$  000000000106400000000010650000000001064000000000106400000000010650000000000000000000000000000002000000000000002000000000000002128692000000000000009999123100000010000000000000BRBTOWACNOR8105
012013073102BTTL3       010BATTISTELLA ON           R$  000000000008600000000000860000000000086000000000008600000000000860000000000079000000000008600001000000000000000100000000000000008600000000000000009999123100000010000000000000BRBTTLACNOR0105
012013073102BTTL4       010BATTISTELLA PN           R$  000000000009900000000001020000000000096000000000009800000000001020000000000097000000000010200010000000000000026100000000000002565200000000000000009999123100000010000000000000BRBTTLACNPR7105
012013073102BVMF3       010BMFBOVESPA  ON      NM   R$  000000000119000000000012420000000001190000000000122600000000012300000000001230000000000123115227000000000016179400000000019840704200000000000000009999123100000010000000000000BRBVMFACNOR3125
012013073196BVMF3F      020BMFBOVESPA  ON      NM   R$  000000000120500000000012430000000001191000000000122600000000012400000000001240000000000124800310000000000000008260000000000010129961000000000000009999123100000010000000000000BRBVMFACNOR3125
012013073178BVMFH11     070BVMF        ON      NM000R$  000000000012000000000001500000000000116000000000013600000000001440000000000131000000000015000052000000000000064900000000000008863700000000000110002013081900000010000000000000BRBVMFACNOR3125
012013073178BVMFH12     070BVMF  FM    ON      NM000R$  000000000004300000000000700000000000043000000000005700000000000650000000000055000000000006500668000000000000402400000000000023207200000000000120002013081900000010000000000000BRBVMFACNOR3125
012013073178BVMFH13     070BVMF  FM    ON      NM000R$  000000000001000000000000180000000000010000000000001500000000000160000000000014000000000001500250000000000000538000000000000008138100000000000128902013081900000010000000000000BRBVMFACNOR3124
012013073178BVMFH14     070BVMF  FM    ON      NM000R$  000000000000300000000000030000000000001000000000000100000000000010000000000001000000000000200026000000000000072100000000000000143500000000000138902013081900000010000000000000BRBVMFACNOR3124
012013073178BVMFH41     070BVMF        ON      NM000R$  000000000009100000000000980000000000086000000000009300000000000980000000000000000000000000000019000000000000021400000000000002002500000000000115002013081900000010000000000000BRBVMFACNOR3125
012013073178BVMFH42     070BVMF  FM    ON      NM000R$  000000000002200000000000370000000000020000000000003000000000000280000000000015000000000006100039000000000000116400000000000003607500000000000125002013081900000010000000000000BRBVMFACNOR3125
012013073178BVMFH43     070BVMF  FM    ON      NM000R$  000000000000300000000000040000000000003000000000000300000000000040000000000002000000000003000015000000000000024100000000000000095700000000000135002013081900000010000000000000BRBVMFACNOR3125
012013073178BVMFH62     070BVMFE       ON      NM000R$  000000000004300000000000500000000000043000000000004600000000000460000000000000000000000000000005000000000000024400000000000001140500000000000122502013081900000010000000000000BRBVMFACNOR3125
012013073178BVMFI11     070BVMF        ON      NM000R$  000000000014600000000001520000000000146000000000014900000000001520000000000000000000000015600003000000000000000300000000000000044800000000000110002013091600000010000000000000BRBVMFACNOR3125
012013073178BVMFI12     070BVMF  FM    ON      NM000R$  000000000007500000000000920000000000072000000000008000000000000860000000000060000000000008600531000000000000135500000000000010886300000000000120002013091600000010000000000000BRBVMFACNOR3125
012013073178BVMFI13     070BVMF  FM    ON      NM000R$  000000000002600000000000350000000000026000000000003000000000000300000000000026000000000003400063000000000000126200000000000003830300000000000130002013091600000010000000000000BRBVMFACNOR3125
012013073178BVMFI14     070BVMF  FM    ON      NM000R$  000000000000900000000000100000000000003000000000000700000000000030000000000001000000000001000563000000000000100700000000000000797700000000000140002013091600000010000000000000BRBVMFACNOR3125
012013073178BVMFI40     070BVMF        ON      NM000R$  000000000019300000000001930000000000193000000000019300000000001930000000000000000000000000000001000000000000005000000000000000965000000000000105002013091600000010000000000000BRBVMFACNOR3125
012013073178BVMFI41     070BVMF        ON      NM000R$  000000000011200000000001120000000000105000000000010900000000001050000000000000000000000000000003000000000000014500000000000001592500000000000115002013091600000010000000000000BRBVMFACNOR3125
012013073178BVMFI42     070BVMF  FM    ON      NM000R$  000000000004200000000000600000000000040000000000005100000000000400000000000040000000000000000040000000000000122600000000000006352500000000000125002013091600000010000000000000BRBVMFACNOR3125
012013073178BVMFI43     070BVMF  FM    ON      NM000R$  000000000001600000000000210000000000015000000000001600000000000160000000000006000000000002100030000000000000058600000000000000957800000000000135002013091600000010000000000000BRBVMFACNOR3125
012013073178BVMFJ11     070BVMF        ON      NM000R$  000000000016800000000001720000000000164000000000016800000000001720000000000000000000000000000004000000000000019300000000000003242400000000000110002013102100000010000000000000BRBVMFACNOR3125
012013073178BVMFJ12     070BVMF        ON      NM000R$  000000000009600000000000960000000000095000000000009500000000000950000000000000000000000000000015000000000000010500000000000001006000000000000120002013102100000010000000000000BRBVMFACNOR3125
012013073178BVMFJ13     070BVMF        ON      NM000R$  000000000005000000000000500000000000050000000000005000000000000500000000000000000000000000000004000000000000006000000000000000300000000000000130002013102100000010000000000000BRBVMFACNOR3125
012013073178BVMFJ41     070BVMF        ON      NM000R$  000000000013200000000001370000000000132000000000013500000000001360000000000000000000000000000003000000000000015000000000000002025000000000000115002013102100000010000000000000BRBVMFACNOR3125
012013073178BVMFL14     070BVMF        ON      NM000R$  000000000004000000000000440000000000040000000000004200000000000440000000000041000000000000000003000000000000004100000000000000175200000000000138902013121600000010000000000000BRBVMFACNOR3124
012013073182BVMFQ73     080BVMFE       ON      NM000R$  000000000011800000000001180000000000118000000000011800000000001180000000000000000000000000000001000000000000016900000000000001994200000000000128902014051900000010000000000000BRBVMFACNOR3124
012013073182BVMFR63     080BVMFE       ON      NM000R$  000000000012500000000001250000000000125000000000012500000000001250000000000000000000000000000001000000000000026500000000000003312500000000000130002014061600000010000000000000BRBVMFACNOR3125
012013073182BVMFT11     080BVMFE       ON      NM000R$  000000000001500000000000160000000000007000000000001000000000000080000000000005000000000000900038000000000000054000000000000000554300000000000110002013081900000010000000000000BRBVMFACNOR3125
012013073182BVMFT12     080BVMFE FM    ON      NM000R$  000000000003000000000000320000000000023000000000002700000000000260000000000023000000000002800148000000000000189900000000000005131500000000000120002013081900000010000000000000BRBVMFACNOR3125
012013073182BVMFT13     080BVMFE FM    ON      NM000R$  000000000007600000000000840000000000062000000000007200000000000650000000000062000000000008500031000000000000051100000000000003695800000000000128902013081900000010000000000000BRBVMFACNOR3124
012013073182BVMFT14     080BVMFE       ON      NM000R$  000000000016600000000001660000000000149000000000016000000000001490000000000000000000000000000010000000000000007500000000000001201500000000000138902013081900000010000000000000BRBVMFACNOR3124
012013073182BVMFT41     080BVMFE FM    ON      NM000R$  000000000001300000000000130000000000013000000000001300000000000130000000000001000000000005500001000000000000000500000000000000006500000000000115002013081900000010000000000000BRBVMFACNOR3125
012013073182BVMFT42     080BVMFE FM    ON      NM000R$  000000000005400000000000540000000000040000000000004600000000000400000000000000000000000000000013000000000000043000000000000002014000000000000125002013081900000010000000000000BRBVMFACNOR3125
012013073182BVMFT43     080BVMFE       ON      NM000R$  000000000013200000000001320000000000111000000000012300000000001110000000000000000000000019100014000000000000038300000000000004732200000000000135002013081900000010000000000000BRBVMFACNOR3125
012013073182BVMFT62     080BVMFE       ON      NM000R$  000000000004000000000000420000000000039000000000004000000000000420000000000000000000000000000005000000000000024000000000000000960000000000000122502013081900000010000000000000BRBVMFACNOR3125
012013073182BVMFU12     080BVMFE FM    ON      NM000R$  000000000005200000000000520000000000036000000000004200000000000370000000000033000000000005000016000000000000020300000000000000861600000000000120002013091600000010000000000000BRBVMFACNOR3125
012013073182BVMFU13     080BVMFE FM    ON      NM000R$  000000000009200000000000960000000000081000000000009100000000000810000000000000000000000000000043000000000000070700000000000006471900000000000130002013091600000010000000000000BRBVMFACNOR3125
012013073182BVMFU41     080BVMFE FM    ON      NM000R$  000000000002900000000000290000000000025000000000002600000000000250000000000000000000000000000008000000000000020700000000000000555600000000000115002013091600000010000000000000BRBVMFACNOR3125
012013073182BVMFU42     080BVMFE FM    ON      NM000R$  000000000006500000000000690000000000056000000000006100000000000560000000000000000000000000000035000000000000101200000000000006202900000000000125002013091600000010000000000000BRBVMFACNOR3125
012013073182BVMFV13     080BVMFE       ON      NM000R$  000000000010600000000001090000000000105000000000010600000000001080000000000000000000000000000009000000000000034500000000000003682300000000000130002013102100000010000000000000BRBVMFACNOR3125
012013073102CAMB4       010CAMBUCI     PN           R$  000000000019500000000001950000000000195000000000019500000000001950000000000188000000000019500001000000000000000200000000000000039000000000000000009999123100000010000000000000BRCAMBACNPR1117
012013073102CARD3       010CSU CARDSYSTON      NM   R$  000000000033300000000003330000000000325000000000033000000000003310000000000326000000000033400022000000000000024800000000000008190200000000000000009999123100000010000000000000BRCARDACNOR9105
012013073196CARD3F      020CSU CARDSYSTON      NM   R$  000000000032000000000003300000000000320000000000032100000000003300000000000303000000000033000002000000000000000100000000000000032100000000000000009999123100000010000000000000BRCARDACNOR9105
012013073102CBEE3       010AMPLA ENERG ON *         R$  000000000012200000000001230000000000122000000000012200000000001230000000000114000000000012400003000000000019700000000000000002405100000000000000009999123100010000000000000000BRCBEEACNOR3149
012013073162CBEE3T      030AMPLA ENERG ON *      061R$  000000000012400000000001250000000000124000000000012400000000001250000000000000000000000000000002000000000001000000000000000000124610000000000000009999123100010000000000000000BRCBEEACNOR3149
012013073162CBEE3T      030AMPLA ENERG ON *      090R$  000000000012400000000001250000000000124000000000012400000000001250000000000000000000000000000002000000000018000000000000000002239261000000000000009999123100010000000000000000BRCBEEACNOR3149
012013073196CBMA3F      020COBRASMA    ON           R$  000000000000500000000000050000000000005000000000000500000000000050000000000004000000000000500001000000000000000001000000000000000005000000000000009999123100000010000000000000BRCBMAACNOR4124
012013073102CBMA4       010COBRASMA    PN           R$  000000000000500000000000050000000000005000000000000500000000000050000000000004000000000000600001000000000000010000000000000000050000000000000000009999123100000010000000000000BRCBMAACNPR1124
012013073196CBMA4F      020COBRASMA    PN           R$  000000000000600000000000060000000000006000000000000600000000000060000000000004000000000000600001000000000000000001000000000000000006000000000000009999123100000010000000000000BRCBMAACNPR1124
012013073108CCHI3       010CHIARELLI   ON           R$  000000000002900000000000290000000000028000000000002800000000000290000000000028000000000002900009000000000000130000000000000003730000000000000000009999123100000010000000000000BRCCHIACNOR5123
012013073196CCHI3F      020CHIARELLI   ON           R$  000000000003000000000000300000000000028000000000002800000000000280000000000025000000000002800004000000000000004000000000000000114000000000000000009999123100000010000000000000BRCCHIACNOR5123
012013073108CCHI4       010CHIARELLI   PN           R$  000000000002300000000000230000000000023000000000002300000000000230000000000021000000000002300001000000000000030000000000000000690000000000000000009999123100000010000000000000BRCCHIACNPR2122
012013073102CCPR3       010CYRE COM-CCPON      NM   R$  000000000212100000000021220000000002070000000000208600000000020760000000002075000000000214500013000000000000002600000000000005424300000000000000009999123100000010000000000000BRCCPRACNOR9107
012013073196CCPR3F      020CYRE COM-CCPON      NM   R$  000000000210000000000021000000000002100000000000210000000000021000000000002091000000000218500001000000000000000015000000000000031500000000000000009999123100000010000000000000BRCCPRACNOR9107
012013073102CCRO3       010CCR SA      ON      NM   R$  000000000179900000000018140000000001773000000000179000000000017900000000001790000000000180012741000000000003635300000000006507247700000000000000009999123100000010000000000000BRCCROACNOR2122
012013073196CCRO3F      020CCR SA      ON      NM   R$  000000000176400000000018500000000001764000000000179300000000018500000000001795000000000185000047000000000000001404000000000002517897000000000000009999123100000010000000000000BRCCROACNOR2122
012013073162CCRO3T      030CCR SA      ON      NM061R$  000000000183000000000018310000000001830000000000183000000000018310000000000000000000000000000002000000000000002000000000000003661484000000000000009999123100000010000000000000BRCCROACNOR2122
012013073162CCRO3T      030CCR SA      ON      NM090R$  000000000183000000000018310000000001830000000000183000000000018310000000000000000000000000000002000000000000000200000000000000366191000000000000009999123100000010000000000000BRCCROACNOR2122
012013073178CCROI19     070CCRO        ON      NM000R$  000000000003200000000000320000000000025000000000003000000000000250000000000000000000000000000002000000000000002500000000000000076500000000000190002013091600000010000000000000BRCCROACNOR2122
012013073178CCROJ49     070CCRO        ON      NM000R$  000000000004400000000000440000000000044000000000004400000000000440000000000000000000000000000001000000000000065000000000000002860000000000000195002013102100000010000000000000BRCCROACNOR2122
012013073178CCROK49     070CCRO        ON      NM000R$  000000000004400000000000440000000000044000000000004400000000000440000000000000000000000000000001000000000000000100000000000000004400000000000195002013111800000010000000000000BRCCROACNOR2122
012013073102CCXC3       010CCX CARVAO  ON      NM   R$  000000000010000000000001040000000000098000000000009900000000000980000000000097000000000009800250000000000000695400000000000069256200000000000000009999123100000010000000000000BRCCXCACNOR5100
012013073196CCXC3F      020CCX CARVAO  ON      NM   R$  000000000010200000000001100000000000099000000000010300000000001070000000000099000000000010700007000000000000000234000000000000024277000000000000009999123100000010000000000000BRCCXCACNOR5100
012013073102CEBR3       010CEB         ON           R$  000000000170000000000017000000000001700000000000170000000000017000000000000000000000000170000001000000000000000100000000000000170000000000000000009999123100000010000000000000BRCEBRACNOR5114
012013073102CEBR5       010CEB         PNA          R$  000000000220000000000022000000000002200000000000220000000000022000000000002100000000000230000002000000000000000800000000000001760000000000000000009999123100000010000000000000BRCEBRACNPA8113
012013073196CEDO3F      020CEDRO       ON      N1   R$  000000000100100000000010010000000001001000000000100100000000010010000000000000000000000120000001000000000000000038000000000000038038000000000000009999123100000010000000000000BRCEDOACNOR8094
012013073112CEOC11B     010FII CEO CCP CI      MB   R$  000000000910000000000091970000000009100000000000913100000000091210000000009121000000000917500022000000000000002139000000000019531457000000000000009999123100000010000000000000BRCEOCCTF003108
012013073102CESP3       010CESP        ON      N1   R$  000000000169500000000016960000000001695000000000169500000000016960000000001605000000000169700002000000000000000600000000000001017100000000000000009999123100000010000000000000BRCESPACNOR3159
012013073102CESP6       010CESP        PNB     N1   R$  000000000203900000000020390000000001991000000000201100000000020090000000002009000000000202703419000000000000703000000000001413794200000000000000009999123100000010000000000000BRCESPACNPB4118
012013073196CESP6F      020CESP        PNB     N1   R$  000000000210000000000021000000000001987000000000201000000000019870000000001987000000000209000034000000000000000926000000000001861809000000000000009999123100000010000000000000BRCESPACNPB4118
012013073102CGAS3       010COMGAS      ON           R$  000000000505000000000051400000000005050000000000513000000000051400000000005088000000000514000010000000000000005700000000000029244100000000000000009999123100000010000000000000BRCGASACNOR0132
012013073102CGAS5       010COMGAS      PNA          R$  000000000556800000000056000000000005526000000000557600000000055750000000005560000000000557500020000000000000009600000000000053529800000000000000009999123100000010000000000000BRCGASACNPA3129
012013073196CGAS5F      020COMGAS      PNA          R$  000000000553500000000056140000000005535000000000554300000000056140000000005520000000000561400003000000000000000086000000000000476721000000000000009999123100000010000000000000BRCGASACNPA3129
012013073102CGRA3       010GRAZZIOTIN  ON           R$  000000000142600000000015390000000001426000000000150600000000015070000000001507000000000153800021000000000000005600000000000008436400000000000000009999123100000010000000000000BRCGRAACNOR2061
012013073102CGRA4       010GRAZZIOTIN  PN           R$  000000000159000000000016510000000001590000000000161800000000016040000000001604000000000163000074000000000000049500000000000080137100000000000000009999123100000010000000000000BRCGRAACNPR9061
012013073196CGRA4F      020GRAZZIOTIN  PN           R$  000000000161900000000018080000000001618000000000162800000000016200000000001586000000000163000012000000000000000168000000000000273623000000000000009999123100000010000000000000BRCGRAACNPR9061
012013073102CIEL3       010CIELO       ON      NM   R$  000000000554000000000056450000000005529000000000560000000000056240000000005618000000000562405601000000000001173500000000006572265100000000000000009999123100000010000000000000BRCIELACNOR3111
012013073196CIEL3F      020CIELO       ON      NM   R$  000000000555000000000056440000000005537000000000558300000000056360000000005633000000000563600249000000000000004596000000000025663442000000000000009999123100000010000000000000BRCIELACNOR3111
012013073162CIEL3T      030CIELO       ON      NM030R$  000000000563800000000056390000000005638000000000563800000000056390000000000000000000000000000002000000000000000400000000000002255232000000000000009999123100000010000000000000BRCIELACNOR3111
012013073102CIQU4       010CACIQUE     PN           R$  000000000065500000000006550000000000650000000000065400000000006500000000000650000000000100000003000000000000000600000000000000392500000000000000009999123100000010000000000000BRCIQUACNPR5157
012013073196CIQU4F      020CACIQUE     PN           R$  000000000065000000000006500000000000606000000000061400000000006060000000000608000000000065300003000000000000000067000000000000041174000000000000009999123100000010000000000000BRCIQUACNPR5157
012013073102CLSC4       010CELESC      PN      N2   R$  000000000189600000000019210000000001896000000000191200000000019100000000001901000000000191000078000000000000020900000000000039976900000000000000009999123100000010000000000000BRCLSCACNPR3107
012013073196CLSC4F      020CELESC      PN      N2   R$  000000000198200000000019820000000001982000000000198200000000019820000000001882000000000198300001000000000000000001000000000000001982000000000000009999123100000010000000000000BRCLSCACNPR3107
012013073162CLSC4T      030CELESC      PN      N2090R$  000000000195600000000019580000000001956000000000195600000000019580000000000000000000000000000004000000000000000600000000000001174184000000000000009999123100000010000000000000BRCLSCACNPR3107
012013073162CLSC4T      030CELESC      PN      N2120R$  000000000195000000000019510000000001950000000000195000000000019510000000000000000000000000000004000000000000000500000000000000975175000000000000009999123100000010000000000000BRCLSCACNPR3107
012013073158CMGR4       010CEMAT       PN           R$  000000000045100000000004510000000000451000000000045100000000004510000000000318000000000060000001000000000000000100000000000000045100000000000000009999123100000010000000000000BRCMGRACNPR4114
012013073102CMIG3       010CEMIG       ON      N1   R$  000000000214600000000021460000000002082000000000210200000000020820000000002082000000000209500231000000000000065600000000000137927300000000000000009999123100000010000000000000BRCMIGACNOR6208
012013073196CMIG3F      020CEMIG       ON      N1   R$  000000000212500000000021250000000002100000000000210900000000021000000000002100000000000213000014000000000000000256000000000000540031000000000000009999123100000010000000000000BRCMIGACNOR6208
012013073102CMIG4       010CEMIG       PN      N1   R$  000000000213500000000021520000000002086000000000210400000000020860000000002086000000000208808702000000000002868600000000006035929300000000000000009999123100000010000000000000BRCMIGACNPR3208
012013073196CMIG4F      020CEMIG       PN      N1   R$  000000000215000000000021500000000002090000000000210300000000020950000000002095000000000210000501000000000000012269000000000025810258000000000000009999123100000010000000000000BRCMIGACNPR3208
012013073162CMIG4T      030CEMIG       PN      N1016R$  000000000209400000000020950000000002094000000000209400000000020950000000000000000000000000000002000000000000006000000000000012567316000000000000009999123100000010000000000000BRCMIGACNPR3208
012013073162CMIG4T      030CEMIG       PN      N1030R$  000000000210900000000021100000000002100000000000210100000000021010000000000000000000000000000004000000000000000450000000000000945536000000000000009999123100000010000000000000BRCMIGACNPR3208
012013073162CMIG4T      030CEMIG       PN      N1126R$  000000000215800000000021590000000002158000000000215800000000021590000000000000000000000000000002000000000000009800000000000021152540000000000000009999123100000010000000000000BRCMIGACNPR3208
012013073178CMIGH21     070CMIG        PN      N1000R$  000000000007000000000000700000000000055000000000006300000000000610000000000001000000000000000005000000000000002200000000000000139100000000000210002013081900000010000000000000BRCMIGACNPR3208
012013073178CMIGH22     070CMIG        PN      N1000R$  000000000002700000000000270000000000027000000000002700000000000270000000000005000000000007000002000000000000001000000000000000027000000000000220002013081900000010000000000000BRCMIGACNPR3208
012013073112CNES11B     010FII CENESP  CI  ER  MB   R$  000000001259000000000125900000000012550000000001256800000000125500000000012555000000001257000004000000000000000021000000000000263930000000000000009999123100000010000000000000BRCNESCTF001124
012013073102COCA11B     010COCA COLA   DRN     MB   R$  000000000925000000000092500000000009250000000000925000000000092500000000000000000000000940000001000000000000000100000000000000925000000000000000009999123100000010000000000000BRCOCABDR002108
012013073102COCE3       010COELCE      ON           R$  000000000421500000000042150000000004215000000000421500000000042150000000004200000000000421500003000000000000001100000000000004636500000000000000009999123100000010000000000000BRCOCEACNOR0132
012013073102COCE5       010COELCE      PNA          R$  000000000410500000000041640000000004080000000000409900000000040900000000004090000000000412000091000000000000070500000000000289049700000000000000009999123100000010000000000000BRCOCEACNPA3133
012013073196COCE5F      020COELCE      PNA          R$  000000000409200000000043810000000004092000000000412700000000041090000000004100000000000435800014000000000000000424000000000001750203000000000000009999123100000010000000000000BRCOCEACNPA3133
012013073162COCE5T      030COELCE      PNA       090R$  000000000419100000000041920000000004191000000000419100000000041920000000000000000000000000000002000000000000000100000000000000419158000000000000009999123100000010000000000000BRCOCEACNPA3133
012013073102CPFE3       010CPFL ENERGIAON      NM   R$  000000000212000000000021340000000002098000000000211900000000021110000000002111000000000212603327000000000000616100000000001306011100000000000000009999123100000010000000000000BRCPFEACNOR0121
012013073196CPFE3F      020CPFL ENERGIAON      NM   R$  000000000211000000000021900000000002110000000000212400000000021220000000002130000000000219100021000000000000000590000000000001252379000000000000009999123100000010000000000000BRCPFEACNOR0121
012013073102CPLE3       010COPEL       ON      N1   R$  000000000217200000000022090000000002116000000000218400000000021990000000002172000000000219900098000000000000042800000000000093481500000000000000009999123100000010000000000000BRCPLEACNOR8128
012013073102CPLE6       010COPEL       PNB     N1   R$  000000000277300000000028690000000002751000000000281600000000027960000000002796000000000283402969000000000000707500000000001992507900000000000000009999123100000010000000000000BRCPLEACNPB9125
012013073196CPLE6F      020COPEL       PNB     N1   R$  000000000279000000000029290000000002752000000000281700000000029290000000002756000000000292900030000000000000001077000000000003037614000000000000009999123100000010000000000000BRCPLEACNPB9125
012013073102CPRE3       010CPFL RENOVAVON      NM   R$  000000000117500000000011870000000001175000000000117900000000011840000000001175000000000118500009000000000000031400000000000037024400000000000000009999123100000010000000000000BRCPREACNOR5100
012013073196CPRE3F      020CPFL RENOVAVON      NM   R$  000000000117500000000011750000000001175000000000117500000000011750000000001175000000000118500004000000000000000120000000000000141000000000000000009999123100000010000000000000BRCPREACNOR5100
012013073102CRDE3       010CR2         ON      NM   R$  000000000040500000000004050000000000405000000000040500000000004050000000000404000000000040500004000000000000000400000000000000162000000000000000009999123100000010000000000000BRCRDEACNOR1108
012013073102CREM3       010CREMER      ON      NM   R$  000000000143300000000014740000000001420000000000144700000000014730000000001434000000000147300029000000000000010400000000000015052300000000000000009999123100000010000000000000BRCREMACNOR2166
012013073196CREM3F      020CREMER      ON      NM   R$  000000000143300000000014330000000001433000000000143300000000014330000000001433000000000152900001000000000000000010000000000000014330000000000000009999123100000010000000000000BRCREMACNOR2166
012013073102CRIV3       010ALFA FINANC ON           R$  000000000055800000000005580000000000557000000000055700000000005570000000000523000000000055800003000000000000006500000000000003621900000000000000009999123100000010000000000000BRCRIVACNOR4189
012013073102CRIV4       010ALFA FINANC PN           R$  000000000048800000000004890000000000488000000000048800000000004880000000000475000000000048800004000000000000007000000000000003421900000000000000009999123100000010000000000000BRCRIVACNPR1189
012013073102CRUZ3       010SOUZA CRUZ  ON           R$  000000000267900000000027580000000002670000000000272600000000027480000000002748000000000274907282000000000001717100000000004681102100000000000000009999123100000010000000000000BRCRUZACNOR0246
012013073196CRUZ3F      020SOUZA CRUZ  ON           R$  000000000269000000000028090000000002671000000000271500000000027210000000002721000000000282000058000000000000001647000000000004471735000000000000009999123100000010000000000000BRCRUZACNOR0246
012013073162CRUZ3T      030SOUZA CRUZ  ON        030R$  000000000270300000000027540000000002703000000000270700000000027540000000000000000000000000000006000000000000003300000000000008935685000000000000009999123100000010000000000000BRCRUZACNOR0246
012013073162CRUZ3T      030SOUZA CRUZ  ON        061R$  000000000274400000000027450000000002744000000000274400000000027450000000000000000000000000000002000000000000000150000000000000411643000000000000009999123100000010000000000000BRCRUZACNOR0246
012013073178CRUZE82     070CRUZ        ON        000R$  000000000008600000000000860000000000086000000000008600000000000860000000000000000000000000000001000000000000003400000000000000292400000000000319902014051900000010000000000000BRCRUZACNOR0245
012013073102CSAN3       010COSAN       ON      NM   R$  000000000427900000000043600000000004250000000000432100000000043260000000004317000000000432603669000000000002729900000000011796607900000000000000009999123100000010000000000000BRCSANACNOR6107
012013073196CSAN3F      020COSAN       ON      NM   R$  000000000423700000000044000000000004237000000000431900000000044000000000004272000000000440000173000000000000005134000000000022176987000000000000009999123100000010000000000000BRCSANACNOR6107
012013073162CSAN3T      030COSAN       ON      NM016R$  000000000432300000000043580000000004323000000000434600000000043580000000000000000000000000000010000000000000012700000000000055202104000000000000009999123100000010000000000000BRCSANACNOR6107
012013073162CSAN3T      030COSAN       ON      NM090R$  000000000439100000000044030000000004391000000000439900000000044030000000000000000000000000000010000000000000163200000000000718054403000000000000009999123100000010000000000000BRCSANACNOR6107
012013073182CSANT40     080CSANE       ON      NM000R$  000000000002000000000000200000000000020000000000002000000000000200000000000000000000000000000001000000000000020000000000000000400000000000000400002013081900000010000000000000BRCSANACNOR6107
012013073182CSANT42     080CSANE       ON      NM000R$  000000000005000000000000500000000000050000000000005000000000000500000000000000000000000000000001000000000000020000000000000001000000000000000420002013081900000010000000000000BRCSANACNOR6107
012013073102CSMG3       010COPASA      ON      NM   R$  000000000364300000000036660000000003577000000000363000000000036190000000003619000000000365902100000000000000336900000000001223028100000000000000009999123100000010000000000000BRCSMGACNOR5127
012013073196CSMG3F      020COPASA      ON      NM   R$  000000000358000000000036680000000003580000000000362900000000035800000000003300000000000437000022000000000000000516000000000001872607000000000000009999123100000010000000000000BRCSMGACNOR5127
012013073114CSMO11      010ISHARES CSMOCI           R$  000000000456100000000046100000000004561000000000457800000000046010000000003800000000000489900004000000000000001610000000000007372160000000000000009999123100000010000000000000BRCSMOCTF002100
012013073162CSMO11T     030ISHARES CSMOCI        030R$  000000000459200000000045930000000004592000000000459200000000045930000000000000000000000000000002000000000000001000000000000004592927000000000000009999123100000010000000000000BRCSMOCTF002100
012013073102CSNA3       010SID NACIONALON           R$  000000000066000000000006790000000000657000000000066400000000006570000000000657000000000066009978000000000005682000000000003777304600000000000000009999123100000010000000000000BRCSNAACNOR6242
012013073196CSNA3F      020SID NACIONALON           R$  000000000066900000000006720000000000659000000000066500000000006660000000000660000000000067500070000000000000001985000000000001320154000000000000009999123100000010000000000000BRCSNAACNOR6242
012013073162CSNA3T      030SID NACIONALON        030R$  000000000066600000000006670000000000661000000000066200000000006620000000000000000000000000000006000000000000017000000000000011265751000000000000009999123100000010000000000000BRCSNAACNOR6242
012013073162CSNA3T      030SID NACIONALON        061R$  000000000067400000000006770000000000670000000000067500000000006710000000000000000000000000000006000000000000010100000000000006826029000000000000009999123100000010000000000000BRCSNAACNOR6242
012013073162CSNA3T      030SID NACIONALON        180R$  000000000069400000000006950000000000694000000000069400000000006950000000000000000000000000000002000000000000001600000000000001111880000000000000009999123100000010000000000000BRCSNAACNOR6242
012013073178CSNAH6      070CSNA        ON        000R$  000000000008400000000000840000000000079000000000008100000000000790000000000000000000000008200002000000000000000200000000000000016300000000000060002013081900000010000000000000BRCSNAACNOR6242
012013073178CSNAH64     070CSNA        ON        000R$  000000000004700000000000480000000000047000000000004700000000000480000000000000000000000000000004000000000000014500000000000000686000000000000064002013081900000010000000000000BRCSNAACNOR6242
012013073178CSNAH66     070CSNA  FM    ON        000R$  000000000004400000000000440000000000035000000000003800000000000360000000000000000000000000000018000000000000060200000000000002320100000000000066002013081900000010000000000000BRCSNAACNOR6242
012013073178CSNAH68     070CSNA  FM    ON        000R$  000000000003300000000000330000000000032000000000003200000000000320000000000000000000000000000003000000000000010500000000000000339500000000000068002013081900000010000000000000BRCSNAACNOR6242
012013073178CSNAH7      070CSNA  FM    ON        000R$  000000000002600000000000260000000000020000000000002200000000000250000000000019000000000002500008000000000000005700000000000000128100000000000070002013081900000010000000000000BRCSNAACNOR6242
012013073178CSNAI6      070CSNA        ON        000R$  000000000009000000000000900000000000090000000000009000000000000900000000000000000000000000000001000000000000000100000000000000009000000000000060002013091600000010000000000000BRCSNAACNOR6242
012013073178CSNAI66     070CSNA  FM    ON        000R$  000000000006000000000000600000000000059000000000005900000000000590000000000000000000000000000002000000000000005500000000000000326500000000000066002013091600000010000000000000BRCSNAACNOR6242
012013073178CSNAI7      070CSNA  FM    ON        000R$  000000000003500000000000400000000000035000000000003600000000000350000000000033000000000004500007000000000000015400000000000000557500000000000070002013091600000010000000000000BRCSNAACNOR6242
012013073178CSNAI72     070CSNA  FM    ON        000R$  000000000003200000000000320000000000028000000000003000000000000280000000000000000000000000000003000000000000010500000000000000322000000000000072002013091600000010000000000000BRCSNAACNOR6242
012013073178CSNAI74     070CSNA  FM    ON        000R$  000000000002200000000000220000000000022000000000002200000000000220000000000004000000000000000003000000000000010500000000000000231000000000000074002013091600000010000000000000BRCSNAACNOR6242
012013073178CSNAI8      070CSNA        ON        000R$  000000000001100000000000110000000000009000000000001000000000000100000000000009000000000000000005000000000000005500000000000000056300000000000080002013091600000010000000000000BRCSNAACNOR6242
012013073182CSNAT62     080CSNAE       ON        000R$  000000000001300000000000130000000000013000000000001300000000000130000000000000000000000000000001000000000000002500000000000000032500000000000062002013081900000010000000000000BRCSNAACNOR6242
012013073182CSNAT66     080CSNAE FM    ON        000R$  000000000002900000000000330000000000029000000000002900000000000330000000000000000000000004000032000000000000102000000000000003039000000000000066002013081900000010000000000000BRCSNAACNOR6242
012013073182CSNAT68     080CSNAE FM    ON        000R$  000000000004000000000000400000000000039000000000003900000000000390000000000000000000000000000005000000000000011000000000000000436000000000000068002013081900000010000000000000BRCSNAACNOR6242
012013073182CSNAT7      080CSNAE FM    ON        000R$  000000000005200000000000520000000000051000000000005100000000000510000000000000000000000006000004000000000000006000000000000000309000000000000070002013081900000010000000000000BRCSNAACNOR6242
