00COTAHIST.2013BOVESPA 20131015                                                                                                                                                                                                                      
012013101502ABCB4       010ABC BRASIL  PN      N2   R$  000000000131400000000013610000000001311000000000134300000000013600000000001345000000000136000332000000000000151600000000000203716100000000000000009999123100000010000000000000BRABCBACNPR4120
012013101596ABCB4F      020ABC BRASIL  PN      N2   R$  000000000133600000000013560000000001320000000000133400000000013390000000001339000000000135600027000000000000000591000000000000788854000000000000009999123100000010000000000000BRABCBACNPR4120
012013101562ABCB4T      030ABC BRASIL  PN      N2030R$  000000000135700000000013580000000001357000000000135700000000013580000000000000000000000000000002000000000000020000000000000027143436000000000000009999123100000010000000000000BRABCBACNPR4120
012013101512ABCP11      010FII ABC IMOBCI           R$  000000000098600000000009900000000000986000000000098900000000009860000000000986000000000099000004000000000000003718000000000003677956000000000000009999123100000010000000000000BRABCPCTF000216
012013101502ABRE11      010ABRIL EDUCA UNT     N2   R$  000000000333900000000034610000000003302000000000338400000000033780000000003377000000000337800931000000000000527000000000001783721400000000000000009999123100000010000000000000BRABRECDAM15102
012013101596ABRE11F     020ABRIL EDUCA UNT     N2   R$  000000000338000000000034260000000003380000000000342500000000034260000000003400000000000349600003000000000000000064000000000000219204000000000000009999123100000010000000000000BRABRECDAM15102
012013101502AEDU3       010ANHANGUERA  ON      NM   R$  000000000137600000000013850000000001357000000000136700000000013660000000001365000000000136605204000000000002776300000000003796431000000000000000009999123100000010000000000000BRAEDUACNOR9107
012013101596AEDU3F      020ANHANGUERA  ON      NM   R$  000000000137500000000013850000000001345000000000137100000000013840000000001344000000000138500015000000000000000509000000000000698330000000000000009999123100000010000000000000BRAEDUACNOR9107
012013101562AEDU3T      030ANHANGUERA  ON      NM030R$  000000000139300000000013940000000001393000000000139300000000013940000000000000000000000000000002000000000000001500000000000002090266000000000000009999123100000010000000000000BRAEDUACNOR9107
012013101562AEDU3T      030ANHANGUERA  ON      NM038R$  000000000138600000000013870000000001386000000000138600000000013870000000000000000000000000000006000000000000006000000000000008320668000000000000009999123100000010000000000000BRAEDUACNOR9107
012013101512AEFI11      010FII AESAPAR CI           R$  000000001209900000000121300000000012000000000001204400000000120000000000012001000000001212900011000000000000000654000000000007877066000000000000009999123100000010000000000000BRAEFICTF002122
012013101502AELP3       010AES ELPA    ON           R$  000000000091300000000009180000000000913000000000091700000000009180000000000884000000000091900005000000000000010500000000000009636700000000000000009999123100000010000000000000BRAELPACNOR2119
012013101562AELP3T      030AES ELPA    ON        062R$  000000000093200000000009330000000000932000000000093200000000009330000000000000000000000000000002000000000000010000000000000009324126000000000000009999123100000010000000000000BRAELPACNOR2119
012013101512AGCX11      010FII AG CAIXACI           R$  000000009450000000000945000000000094000000000009435400000000945000000000094200000000009450000023000000000000000185000000000017455599000000000000009999123100000010000000000000BRAGCXCTF003111
012013101502AGRO3       010BRASILAGRO  ON      NM   R$  000000000098700000000010000000000000987000000000099300000000010000000000000995000000000100000070000000000000025300000000000025131400000000000000009999123100000010000000000000BRAGROACNOR7102
012013101596AGRO3F      020BRASILAGRO  ON      NM   R$  000000000105000000000010500000000001050000000000105000000000010500000000000978000000000105000001000000000000000001000000000000001050000000000000009999123100000010000000000000BRAGROACNOR7102
012013101562AGRO3T      030BRASILAGRO  ON      NM360R$  000000000110200000000011030000000001102000000000110200000000011030000000000000000000000000000002000000000000000300000000000000330738000000000000009999123100000010000000000000BRAGROACNOR7102
012013101502ALLL3       010ALL AMER LATON      NM   R$  000000000082600000000008310000000000815000000000082100000000008300000000000829000000000083007630000000000004287300000000003524111600000000000000009999123100000010000000000000BRALLLACNOR6118
012013101596ALLL3F      020ALL AMER LATON      NM   R$  000000000082800000000008320000000000805000000000081700000000008320000000000829000000000083200488000000000000016479000000000013469270000000000000009999123100000010000000000000BRALLLACNOR6118
012013101562ALLL3T      030ALL AMER LATON      NM016R$  000000000082300000000008240000000000823000000000082300000000008240000000000000000000000000000004000000000000020000000000000016472160000000000000009999123100000010000000000000BRALLLACNOR6118
012013101562ALLL3T      030ALL AMER LATON      NM030R$  000000000082700000000008370000000000827000000000083600000000008370000000000000000000000000000004000000000000122400000000000102372552000000000000009999123100000010000000000000BRALLLACNOR6118
012013101562ALLL3T      030ALL AMER LATON      NM062R$  000000000082900000000008430000000000829000000000083400000000008430000000000000000000000000000006000000000000007500000000000006260895000000000000009999123100000010000000000000BRALLLACNOR6118
012013101562ALLL3T      030ALL AMER LATON      NM090R$  000000000083600000000008370000000000836000000000083600000000008370000000000000000000000000000002000000000000002000000000000001672234000000000000009999123100000010000000000000BRALLLACNOR6118
012013101562ALLL3T      030ALL AMER LATON      NM091R$  000000000083900000000008400000000000839000000000083900000000008400000000000000000000000000000002000000000000000600000000000000503439000000000000009999123100000010000000000000BRALLLACNOR6118
012013101562ALLL3T      030ALL AMER LATON      NM181R$  000000000087000000000008710000000000870000000000087000000000008710000000000000000000000000000002000000000000001000000000000000870284000000000000009999123100000010000000000000BRALLLACNOR6118
012013101562ALLL3T      030ALL AMER LATON      NM360R$  000000000090500000000009060000000000905000000000090500000000009060000000000000000000000000000002000000000000000300000000000000271571000000000000009999123100000010000000000000BRALLLACNOR6118
012013101502ALPA3       010ALPARGATAS  ON      N1   R$  000000000126000000000012600000000001260000000000126000000000012600000000001266000000000131000001000000000000000100000000000000126000000000000000009999123100000010000000000000BRALPAACNOR0203
012013101502ALPA4       010ALPARGATAS  PN      N1   R$  000000000148000000000014880000000001452000000000147300000000014580000000001458000000000146400950000000000000865400000000001275185100000000000000009999123100000010000000000000BRALPAACNPR7203
012013101596ALPA4F      020ALPARGATAS  PN      N1   R$  000000000148900000000014890000000001458000000000147200000000014580000000001451000000000146700007000000000000000117000000000000172283000000000000009999123100000010000000000000BRALPAACNPR7203
012013101562ALPA4T      030ALPARGATAS  PN      N1030R$  000000000148600000000014870000000001486000000000148600000000014870000000000000000000000000000002000000000000000100000000000000148695000000000000009999123100000010000000000000BRALPAACNPR7203
012013101502ALSC3       010ALIANSCE    ON      NM   R$  000000000210000000000021290000000002091000000000210600000000021190000000002106000000000211900998000000000000397800000000000837884000000000000000009999123100000010000000000000BRALSCACNOR0104
012013101596ALSC3F      020ALIANSCE    ON      NM   R$  000000000210100000000021150000000002101000000000210600000000021020000000002045000000000215000005000000000000000198000000000000417112000000000000009999123100000010000000000000BRALSCACNOR0104
012013101502ALUP11      010ALUPAR      UNT     N2   R$  000000000174100000000017540000000001726000000000174300000000017400000000001739000000000174400238000000000000124400000000000216855300000000000000009999123100000010000000000000BRALUPCDAM15100
012013101596ALUP11F     020ALUPAR      UNT     N2   R$  000000000174000000000017590000000001726000000000173500000000017390000000001725000000000174000025000000000000000418000000000000725384000000000000009999123100000010000000000000BRALUPCDAM15100
012013101562ALUP11T     030ALUPAR      UNT     N2090R$  000000000177600000000017780000000001776000000000177700000000017780000000000000000000000000000004000000000000002000000000000003554820000000000000009999123100000010000000000000BRALUPCDAM15100
012013101502AMAR3       010LOJAS MARISAON      NM   R$  000000000200000000000020400000000001996000000000202100000000020100000000002007000000000201201139000000000000314700000000000636318100000000000000009999123100000010000000000000BRAMARACNOR4109
012013101596AMAR3F      020LOJAS MARISAON      NM   R$  000000000199200000000020290000000001992000000000201900000000020150000000002017000000000202200016000000000000000458000000000000925134000000000000009999123100000010000000000000BRAMARACNOR4109
012013101562AMAR3T      030LOJAS MARISAON      NM020R$  000000000202300000000020240000000002023000000000202300000000020240000000000000000000000000000002000000000000000500000000000001011734000000000000009999123100000010000000000000BRAMARACNOR4109
012013101562AMAR3T      030LOJAS MARISAON      NM120R$  000000000209000000000020910000000002090000000000209000000000020910000000000000000000000000000002000000000000018000000000000037635624000000000000009999123100000010000000000000BRAMARACNOR4109
012013101502AMBV3       010AMBEV       ON           R$  000000000854000000000086400000000008498000000000856500000000085440000000008508000000000854402104000000000000320300000000002743546000000000000000009999123100000010000000000000BRAMBVACNOR4154
012013101596AMBV3F      020AMBEV       ON           R$  000000000861700000000087100000000008451000000000857200000000085200000000008480000000000852900045000000000000000949000000000008134746000000000000009999123100000010000000000000BRAMBVACNOR4154
012013101502AMBV4       010AMBEV       PN           R$  000000000850300000000086350000000008503000000000856800000000085400000000008521000000000854008536000000000002050100000000017566957300000000000000009999123100000010000000000000BRAMBVACNPR1154
012013101596AMBV4F      020AMBEV       PN           R$  000000000855000000000086330000000008510000000000858500000000086000000000008600000000000863000298000000000000007803000000000066988864000000000000009999123100000010000000000000BRAMBVACNPR1154
012013101562AMBV4T      030AMBEV       PN        030R$  000000000865600000000086570000000008656000000000865600000000086570000000000000000000000000000002000000000000000300000000000002596932000000000000009999123100000010000000000000BRAMBVACNPR1154
012013101562AMBV4T      030AMBEV       PN        062R$  000000000875100000000087520000000008751000000000875100000000087520000000000000000000000000000002000000000000002300000000000020127924000000000000009999123100000010000000000000BRAMBVACNPR1154
012013101562AMBV4T      030AMBEV       PN        090R$  000000000879500000000087960000000008795000000000879500000000087960000000000000000000000000000002000000000000000500000000000004397527000000000000009999123100000010000000000000BRAMBVACNPR1154
012013101578AMBVJ65     070AMBV        PN        000R$  000000000218400000000021840000000002184000000000218400000000021840000000000000000000000000000001000000000000004400000000000009609600000000000643502013102100000010000000000000BRAMBVACNPR1153
012013101578AMBVK85     070AMBV        PN        000R$  000000000024000000000002400000000000206000000000021800000000002060000000000000000000000000000002000000000000013500000000000002951000000000000850002013111800000010000000000000BRAMBVACNPR1154
012013101578AMBVK89     070AMBV        PN        000R$  000000000008000000000000850000000000080000000000008300000000000850000000000000000000000000000003000000000000000900000000000000075000000000000883502013111800000010000000000000BRAMBVACNPR1153
012013101578AMBVL65     070AMBV        PN        000R$  000000000220900000000022090000000002209000000000220900000000022090000000000000000000000000000002000000000000004400000000000009719600000000000650002013121600000010000000000000BRAMBVACNPR1154
012013101502ARTR3       010ARTERIS     ON      NM   R$  000000000194100000000019510000000001921000000000193700000000019400000000001940000000000194101069000000000000266800000000000516996300000000000000009999123100000010000000000000BRARTRACNOR3101
012013101596ARTR3F      020ARTERIS     ON      NM   R$  000000000198900000000019890000000001911000000000193500000000019400000000001920000000000198900015000000000000000284000000000000549645000000000000009999123100000010000000000000BRARTRACNOR3101
012013101502ARZZ3       010AREZZO CO   ON      NM   R$  000000000348000000000035350000000003480000000000351100000000035100000000003495000000000351001031000000000000149700000000000525663600000000000000009999123100000010000000000000BRARZZACNOR3109
012013101596ARZZ3F      020AREZZO CO   ON      NM   R$  000000000359900000000035990000000003508000000000351900000000035080000000003470000000000360000011000000000000000384000000000001351339000000000000009999123100000010000000000000BRARZZACNOR3109
012013101502AUTM3       010AUTOMETAL   ON      NM   R$  000000000184000000000018520000000001829000000000184000000000018450000000001839000000000184500220000000000000073600000000000135467800000000000000009999123100000010000000000000BRAUTMACNOR8109
012013101596AUTM3F      020AUTOMETAL   ON      NM   R$  000000000183300000000018990000000001752000000000182600000000018990000000001752000000000189900003000000000000000138000000000000252000000000000000009999123100000010000000000000BRAUTMACNOR8109
012013101502AZEV4       010AZEVEDO     PN           R$  000000000014000000000001400000000000140000000000014000000000001400000000000140000000000014900002000000000000021300000000000002982000000000000000009999123100000010000000000000BRAZEVACNPR7113
012013101502BAUH4       010EXCELSIOR   PN           R$  000000000093800000000009380000000000938000000000093800000000009380000000000900000000000094000001000000000000000400000000000000375200000000000000009999123100000010000000000000BRBAUHACNPR3108
012013101596BAUH4F      020EXCELSIOR   PN           R$  000000000080100000000008010000000000801000000000080100000000008010000000000848000000000090000001000000000000000062000000000000049662000000000000009999123100000010000000000000BRBAUHACNPR3108
012013101502BAZA3       010AMAZONIA    ON           R$  000000000003300000000000330000000000032000000000003200000000000320000000000032000000000003300004000000000000039000000000000001255000000000000000009999123100000010000000000000BRBAZAACNOR0163
012013101596BAZA3F      020AMAZONIA    ON           R$  000000000003400000000000350000000000034000000000003400000000000350000000000032000000000003500002000000000000000168000000000000005796000000000000009999123100000010000000000000BRBAZAACNOR0163
012013101502BBAS3       010BRASIL      ON      NM   R$  000000000270000000000027250000000002676000000000269700000000027050000000002704000000000270514059000000000006161000000000016617685900000000000000009999123100000010000000000000BRBBASACNOR3239
012013101596BBAS3F      020BRASIL      ON      NM   R$  000000000270000000000027210000000002680000000000270000000000027060000000002675000000000270600247000000000000007035000000000019000773000000000000009999123100000010000000000000BRBBASACNOR3239
012013101562BBAS3T      030BRASIL      ON      NM030R$  000000000272900000000027300000000002729000000000272900000000027300000000000000000000000000000002000000000000000800000000000002183476000000000000009999123100000010000000000000BRBBASACNOR3239
012013101562BBAS3T      030BRASIL      ON      NM062R$  000000000272500000000027260000000002725000000000272500000000027260000000000000000000000000000002000000000000000500000000000001362846000000000000009999123100000010000000000000BRBBASACNOR3239
012013101562BBAS3T      030BRASIL      ON      NM090R$  000000000274700000000027480000000002747000000000274700000000027480000000000000000000000000000002000000000000000100000000000000274735000000000000009999123100000010000000000000BRBBASACNOR3239
012013101538BBASJ23E    012BBAS        ON      NM000R$  000000000216100000000021610000000002161000000000216100000000021610000000000000000000000000000028000000000000078900000000000170502900000000000216102013102100000010000000000000BRBBASACNOR3239
012013101538BBASJ24E    012BBAS        ON      NM000R$  000000000227100000000022710000000002271000000000227100000000022710000000000000000000000000000003000000000000015500000000000035200500000000000227102013102100000010000000000000BRBBASACNOR3239
012013101578BBASJ25     070BBAS        ON      NM000R$  000000000030600000000003170000000000300000000000030800000000003160000000000301000000000048000017000000000000034200000000000010547200000000000239502013102100000010000000000000BRBBASACNOR3237
012013101578BBASJ26     070BBAS        ON      NM000R$  000000000024000000000002620000000000230000000000024700000000002550000000000222000000000000000023000000000000035500000000000008771200000000000246102013102100000010000000000000BRBBASACNOR3235
012013101578BBASJ27     070BBAS        ON      NM000R$  000000000014000000000001510000000000130000000000013700000000001500000000000102000000000018300022000000000000020100000000000002768000000000000256102013102100000010000000000000BRBBASACNOR3235
012013101578BBASJ28     070BBAS        ON      NM000R$  000000000003100000000000480000000000024000000000003400000000000340000000000033000000000004100050000000000000103100000000000003536100000000000269502013102100000010000000000000BRBBASACNOR3237
012013101578BBASJ29     070BBAS        ON      NM000R$  000000000000800000000000150000000000006000000000000800000000000060000000000005000000000000900072000000000000078800000000000000695000000000000276102013102100000010000000000000BRBBASACNOR3235
012013101578BBASJ30     070BBAS        ON      NM000R$  000000000000200000000000030000000000002000000000000200000000000030000000000001000000000000200002000000000000037400000000000000111200000000000286102013102100000010000000000000BRBBASACNOR3235
012013101578BBASK24     070BBAS        ON      NM000R$  000000000041000000000004100000000000410000000000041000000000004100000000000000000000000000000003000000000000006000000000000002460000000000000229502013111800000010000000000000BRBBASACNOR3237
012013101578BBASK26     070BBAS        ON      NM000R$  000000000025400000000002610000000000254000000000026000000000002610000000000269000000000030200008000000000000012700000000000003307700000000000247102013111800000010000000000000BRBBASACNOR3236
012013101578BBASK27     070BBAS  FM    ON      NM000R$  000000000016900000000001930000000000160000000000017600000000001780000000000045000000000019300081000000000000105900000000000018686100000000000257102013111800000010000000000000BRBBASACNOR3236
012013101578BBASK28     070BBAS  FM    ON      NM000R$  000000000010900000000001170000000000094000000000010600000000001050000000000050000000000011300083000000000000082100000000000008773700000000000267102013111800000010000000000000BRBBASACNOR3236
012013101578BBASK29     070BBAS  FM    ON      NM000R$  000000000004000000000000490000000000037000000000004100000000000420000000000040000000000005100042000000000000063600000000000002652500000000000279502013111800000010000000000000BRBBASACNOR3237
012013101578BBASK30     070BBAS  FM    ON      NM000R$  000000000001700000000000210000000000017000000000001900000000000180000000000010000000000009800018000000000000042000000000000000835600000000000289502013111800000010000000000000BRBBASACNOR3237
012013101578BBASK31     070BBAS  FM    ON      NM000R$  000000000000700000000000090000000000006000000000000600000000000090000000000005000000000000000006000000000000005700000000000000037000000000000299502013111800000010000000000000BRBBASACNOR3237
012013101578BBASK32     070BBAS        ON      NM000R$  000000000000200000000000020000000000002000000000000200000000000020000000000000000000000004800001000000000000000800000000000000001600000000000320002013111800000010000000000000BRBBASACNOR3239
012013101578BBASK57     070BBAS        ON      NM000R$  000000000006500000000000650000000000065000000000006500000000000650000000000000000000000000000001000000000000001000000000000000065000000000000275002013111800000010000000000000BRBBASACNOR3239
012013101578BBASL26     070BBAS        ON      NM000R$  000000000028100000000002970000000000281000000000029400000000002950000000000016000000000000000010000000000000011000000000000003235000000000000246102013121600000010000000000000BRBBASACNOR3235
012013101578BBASL27     070BBAS  FM    ON      NM000R$  000000000018400000000002080000000000176000000000019300000000001940000000000016000000000024000065000000000000090800000000000017531400000000000259502013121600000010000000000000BRBBASACNOR3237
012013101578BBASL28     070BBAS  FM    ON      NM000R$  000000000012100000000001390000000000117000000000012500000000001290000000000090000000000000000035000000000000032000000000000004021400000000000269502013121600000010000000000000BRBBASACNOR3237
012013101578BBASL29     070BBAS  FM    ON      NM000R$  000000000008600000000001030000000000083000000000009000000000000920000000000020000000000000000164000000000000153000000000000013783400000000000276102013121600000010000000000000BRBBASACNOR3235
012013101578BBASL30     070BBAS  FM    ON      NM000R$  000000000001800000000000220000000000009000000000001400000000000190000000000007000000000000000280000000000000373400000000000005498300000000000300002013121600000010000000000000BRBBASACNOR3239
012013101578BBASL60     070BBAS        ON      NM000R$  000000000005100000000000580000000000051000000000005400000000000580000000000014000000000000000005000000000000004000000000000000218000000000000286202013121600000010000000000000BRBBASACNOR3233
012013101578BBASL79     070BBAS  FM    ON      NM000R$  000000000003500000000000370000000000035000000000003500000000000350000000000000000000000000000123000000000000218500000000000007770100000000000290002013121600000010000000000000BRBBASACNOR3239
012013101582BBASV23     080BBASE       ON      NM000R$  000000000000100000000000010000000000001000000000000100000000000010000000000000000000000000100001000000000000000300000000000000000300000000000216102013102100000010000000000000BRBBASACNOR3235
012013101582BBASV25     080BBASE       ON      NM000R$  000000000000100000000000010000000000001000000000000100000000000010000000000000000000000000100001000000000000001000000000000000001000000000000239502013102100000010000000000000BRBBASACNOR3237
012013101582BBASV27     080BBASE       ON      NM000R$  000000000000600000000000060000000000002000000000000200000000000020000000000002000000000000300011000000000000040200000000000000114400000000000256102013102100000010000000000000BRBBASACNOR3235
012013101582BBASV28     080BBASE       ON      NM000R$  000000000003000000000000330000000000018000000000002500000000000210000000000016000000000004500018000000000000027500000000000000713000000000000269502013102100000010000000000000BRBBASACNOR3237
012013101582BBASW24     080BBASE       ON      NM000R$  000000000000600000000000060000000000006000000000000600000000000060000000000000000000000001500001000000000000005000000000000000030000000000000229502013111800000010000000000000BRBBASACNOR3237
012013101582BBASW26     080BBASE FM    ON      NM000R$  000000000001500000000000160000000000014000000000001400000000000140000000000012000000000002500011000000000000013400000000000000199900000000000247102013111800000010000000000000BRBBASACNOR3236
012013101582BBASW27     080BBASE FM    ON      NM000R$  000000000003000000000000340000000000024000000000002600000000000270000000000022000000000002700065000000000000115500000000000003069300000000000257102013111800000010000000000000BRBBASACNOR3236
012013101582BBASW28     080BBASE FM    ON      NM000R$  000000000005800000000000610000000000050000000000005300000000000540000000000050000000000000000060000000000000171600000000000009212800000000000267102013111800000010000000000000BRBBASACNOR3236
012013101582BBASW29     080BBASE FM    ON      NM000R$  000000000012400000000001340000000000107000000000012000000000001170000000000000000000000017200033000000000000055800000000000006705000000000000279502013111800000010000000000000BRBBASACNOR3237
012013101582BBASX26     080BBASE FM    ON      NM000R$  000000000002700000000000280000000000024000000000002600000000000260000000000023000000000003100049000000000000067800000000000001803700000000000246102013121600000010000000000000BRBBASACNOR3235
012013101582BBASX27     080BBASE FM    ON      NM000R$  000000000005600000000000560000000000048000000000005300000000000520000000000041000000000000000011000000000000020000000000000001067000000000000259502013121600000010000000000000BRBBASACNOR3237
012013101582BBASX28     080BBASE FM    ON      NM000R$  000000000009000000000000920000000000080000000000008900000000000800000000000000000000000011500015000000000000029300000000000002611000000000000269502013121600000010000000000000BRBBASACNOR3237
012013101582BBASX29     080BBASE FM    ON      NM000R$  000000000012100000000001230000000000108000000000011700000000001130000000000000000000000000000025000000000000030700000000000003621100000000000276102013121600000010000000000000BRBBASACNOR3235
012013101502BBDC3       010BRADESCO    ON      N1   R$  000000000367200000000036900000000003637000000000366200000000036650000000003662000000000366505759000000000001468900000000005379990100000000000000009999123100000010000000000000BRBBDCACNOR1607
012013101596BBDC3F      020BRADESCO    ON      N1   R$  000000000366800000000036990000000003600000000000366000000000036700000000003660000000000367000034000000000000000966000000000003536365000000000000009999123100000010000000000000BRBBDCACNOR1607
012013101502BBDC4       010BRADESCO    PN      N1   R$  000000000321800000000032440000000003207000000000322600000000032320000000003231000000000323219803000000000007892600000000025465096400000000000000009999123100000010000000000000BRBBDCACNPR8607
012013101596BBDC4F      020BRADESCO    PN      N1   R$  000000000321900000000032410000000003210000000000322500000000032250000000003225000000000323400301000000000000007602000000000024519205000000000000009999123100000010000000000000BRBBDCACNPR8607
012013101562BBDC4T      030BRADESCO    PN      N1016R$  000000000324600000000032470000000003246000000000324600000000032470000000000000000000000000000004000000000000003000000000000009739632000000000000009999123100000010000000000000BRBBDCACNPR8607
012013101562BBDC4T      030BRADESCO    PN      N1030R$  000000000325800000000032590000000003258000000000325800000000032590000000000000000000000000000002000000000000000300000000000000977454000000000000009999123100000010000000000000BRBBDCACNPR8607
012013101562BBDC4T      030BRADESCO    PN      N1062R$  000000000326500000000032660000000003265000000000326500000000032660000000000000000000000000000002000000000000000300000000000000979606000000000000009999123100000010000000000000BRBBDCACNPR8607
012013101578BBDCA34     070BBDC        PN      N1000R$  000000000010500000000001050000000000105000000000010500000000001050000000000000000000000000000002000000000000007800000000000000819000000000000339402014012000000010000000000000BRBBDCACNPR8604
012013101578BBDCA37     070BBDC        PN      N1000R$  000000000003500000000000350000000000035000000000003500000000000350000000000000000000000000000001000000000000002800000000000000098000000000000367402014012000000010000000000000BRBBDCACNPR8602
012013101578BBDCJ2      070BBDC        PN      N1000R$  000000000003500000000000350000000000030000000000003200000000000300000000000000000000000000000002000000000000001200000000000000039000000000000324202013102100000010000000000000BRBBDCACNPR8603
012013101578BBDCJ29     070BBDC        PN      N1000R$  000000000034500000000003600000000000345000000000035100000000003490000000000356000000000051500132000000000000021400000000000007516000000000000287402013102100000010000000000000BRBBDCACNPR8602
012013101578BBDCJ30     070BBDC        PN      N1000R$  000000000025100000000002710000000000247000000000025800000000002510000000000261000000000028000014000000000000007300000000000001885900000000000297402013102100000010000000000000BRBBDCACNPR8602
012013101538BBDCJ30E    012BBDC        PN      N1000R$  000000000297400000000029740000000002974000000000297400000000029740000000000000000000000000000002000000000000000300000000000000892200000000000297402013102100000010000000000000BRBBDCACNPR8607
012013101578BBDCJ31     070BBDC        PN      N1000R$  000000000016200000000001730000000000154000000000016400000000001600000000000111000000000017100045000000000000113300000000000018621500000000000307402013102100000010000000000000BRBBDCACNPR8602
012013101578BBDCJ32     070BBDC        PN      N1000R$  000000000006800000000000850000000000066000000000008000000000000800000000000068000000000009000092000000000000135000000000000010838700000000000317402013102100000010000000000000BRBBDCACNPR8602
012013101578BBDCJ33     070BBDC        PN      N1000R$  000000000001900000000000230000000000019000000000002100000000000230000000000018000000000002900003000000000000003600000000000000078100000000000327402013102100000010000000000000BRBBDCACNPR8602
012013101578BBDCJ34     070BBDC        PN      N1000R$  000000000000400000000000060000000000004000000000000500000000000060000000000001000000000005500009000000000000076200000000000000390800000000000337002013102100000010000000000000BRBBDCACNPR8600
012013101578BBDCK30     070BBDC        PN      N1000R$  000000000025800000000002790000000000255000000000026700000000002750000000000182000000000000000052000000000000052600000000000014070800000000000299602013111800000010000000000000BRBBDCACNPR8605
012013101578BBDCK31     070BBDC  FM    PN      N1000R$  000000000017800000000001970000000000173000000000018400000000001890000000000152000000000000000228000000000000195600000000000036154700000000000309602013111800000010000000000000BRBBDCACNPR8605
012013101578BBDCK32     070BBDC  FM    PN      N1000R$  000000000012600000000001410000000000119000000000013200000000001370000000000124000000000000002377000000000000406200000000000053658600000000000317202013111800000010000000000000BRBBDCACNPR8601
012013101578BBDCK33     070BBDC  FM    PN      N1000R$  000000000008000000000000840000000000067000000000007700000000000780000000000051000000000008400177000000000000084200000000000006541600000000000327402013111800000010000000000000BRBBDCACNPR8602
012013101578BBDCK34     070BBDC  FM    PN      N1000R$  000000000003500000000000380000000000029000000000003400000000000370000000000028000000000004000015000000000000022200000000000000766000000000000339402013111800000010000000000000BRBBDCACNPR8604
012013101578BBDCK35     070BBDC  FM    PN      N1000R$  000000000001600000000000160000000000016000000000001600000000000160000000000000000000000003800007000000000000021400000000000000342400000000000347402013111800000010000000000000BRBBDCACNPR8602
012013101578BBDCL1      070BBDC  FM    PN      N1000R$  000000000023700000000002570000000000232000000000024400000000002510000000000000000000000000000120000000000000159300000000000038920400000000000307002013121600000010000000000000BRBBDCACNPR8600
012013101578BBDCL3      070BBDC  FM    PN      N1000R$  000000000011200000000001240000000000109000000000011800000000001220000000000000000000000012800231000000000000139400000000000016455300000000000327002013121600000010000000000000BRBBDCACNPR8601
012013101578BBDCL32     070BBDC  FM    PN      N1000R$  000000000016800000000001810000000000168000000000017500000000001800000000000068000000000000000079000000000000083800000000000014675500000000000317002013121600000010000000000000BRBBDCACNPR8600
012013101578BBDCL33     070BBDC        PN      N1000R$  000000000033400000000003360000000000334000000000033500000000003360000000000000000000000000000003000000000000008500000000000002850000000000000296802013121600000010000000000000BRBBDCACNPR8598
012013101578BBDCL34     070BBDC  FM    PN      N1000R$  000000000007000000000000800000000000069000000000007400000000000760000000000000000000000010000121000000000000036200000000000002710900000000000337002013121600000010000000000000BRBBDCACNPR8600
012013101578BBDCL35     070BBDC        PN      N1000R$  000000000003900000000000480000000000039000000000004600000000000480000000000021000000000005800011000000000000012400000000000000581100000000000347002013121600000010000000000000BRBBDCACNPR8600
012013101578BBDCL36     070BBDC        PN      N1000R$  000000000013500000000001400000000000119000000000013300000000001360000000000000000000000000002407000000000000316200000000000042149000000000000323902013121600000010000000000000BRBBDCACNPR8597
012013101578BBDCL5      070BBDC  FM    PN      N1000R$  000000000003600000000000380000000000036000000000003600000000000370000000000000000000000004400016000000000000024300000000000000897000000000000349802013121600000010000000000000BRBBDCACNPR8606
012013101582BBDCM28     080BBDCE       PN      N1000R$  000000000002100000000000210000000000021000000000002100000000000210000000000000000000000000000001000000000000001200000000000000025200000000000279802014012000000010000000000000BRBBDCACNPR8606
012013101582BBDCM58     080BBDCE       PN      N1000R$  000000000002600000000000260000000000026000000000002600000000000260000000000000000000000000000001000000000000001200000000000000031200000000000284802014012000000010000000000000BRBBDCACNPR8606
012013101582BBDCV27     080BBDCE       PN      N1000R$  000000000000100000000000010000000000001000000000000100000000000010000000000000000000000000800001000000000000000100000000000000000100000000000267402013102100000010000000000000BRBBDCACNPR8602
012013101582BBDCV31     080BBDCE       PN      N1000R$  000000000000400000000000040000000000004000000000000400000000000040000000000000000000000000000001000000000000002500000000000000010000000000000307402013102100000010000000000000BRBBDCACNPR8602
012013101582BBDCV32     080BBDCE       PN      N1000R$  000000000002300000000000230000000000023000000000002300000000000230000000000000000000000002300001000000000000002000000000000000046000000000000317402013102100000010000000000000BRBBDCACNPR8602
012013101582BBDCW30     080BBDCE FM    PN      N1000R$  000000000001700000000000170000000000014000000000001500000000000160000000000000000000000002300010000000000000010600000000000000164400000000000299602013111800000010000000000000BRBBDCACNPR8605
012013101582BBDCW31     080BBDCE FM    PN      N1000R$  000000000003600000000000360000000000030000000000003400000000000340000000000000000000000000000024000000000000044000000000000001501600000000000309602013111800000010000000000000BRBBDCACNPR8605
012013101582BBDCW32     080BBDCE FM    PN      N1000R$  000000000005400000000000590000000000052000000000005500000000000560000000000000000000000000000020000000000000039300000000000002193700000000000317202013111800000010000000000000BRBBDCACNPR8601
012013101582BBDCW33     080BBDCE FM    PN      N1000R$  000000000009900000000001070000000000092000000000010000000000000970000000000000000000000015600028000000000000050000000000000005049600000000000327402013111800000010000000000000BRBBDCACNPR8602
012013101582BBDCW9      080BBDCE       PN      N1000R$  000000000000700000000000070000000000007000000000000700000000000070000000000007000000000001900005000000000000010000000000000000070000000000000289602013111800000010000000000000BRBBDCACNPR8605
012013101582BBDCX1      080BBDCE FM    PN      N1000R$  000000000004900000000000530000000000047000000000005000000000000500000000000000000000000000000025000000000000037200000000000001860600000000000307002013121600000010000000000000BRBBDCACNPR8600
012013101582BBDCX3      080BBDCE FM    PN      N1000R$  000000000012100000000001250000000000112000000000011900000000001180000000000000000000000000000040000000000000065600000000000007814200000000000327002013121600000010000000000000BRBBDCACNPR8601
012013101582BBDCX32     080BBDCE FM    PN      N1000R$  000000000007900000000000820000000000075000000000007800000000000790000000000000000000000000000032000000000000045200000000000003534600000000000317002013121600000010000000000000BRBBDCACNPR8600
012013101582BBDCX33     080BBDCE FM    PN      N1000R$  000000000002900000000000320000000000025000000000003000000000000320000000000000000000000000000087000000000000111600000000000003450400000000000296802013121600000010000000000000BRBBDCACNPR8598
012013101512BBFI11B     010FII BB PROGRCI      MB   R$  000000042090000000004215000000000420900000000042105100000004210000000000421000000000042150000010000000000000000029000000000012210497000000000000009999123100000010000000000000BRBBFICTF006199
012013101512BBPO11      010FII BB PRGIICI           R$  000000001116000000000112700000000011151000000001118300000000112050000000011160000000001120500237000000000000017299000000000193466736000000000000009999123100000010000000000000BRBBPOCTF003111
012013101512BBRC11      010FII BB CORP CI           R$  000000000884500000000090450000000008845000000000887000000000090000000000008846000000000900000022000000000000003550000000000031490302000000000000009999123100000010000000000000BRBBRCCTF004125
012013101502BBRK3       010BR BROKERS  ON      NM   R$  000000000062400000000006390000000000622000000000063200000000006360000000000632000000000063601316000000000000374800000000000236916200000000000000009999123100000010000000000000BRBBRKACNOR4108
012013101596BBRK3F      020BR BROKERS  ON      NM   R$  000000000062600000000006260000000000626000000000062600000000006260000000000610000000000065000001000000000000000004000000000000002504000000000000009999123100000010000000000000BRBBRKACNOR4108
012013101502BBSE3       010BBSEGURIDADEON      NM   R$  000000000235000000000023790000000002313000000000235200000000023750000000002375000000000237708298000000000003549600000000008350012600000000000000009999123100000010000000000000BRBBSEACNOR5101
012013101596BBSE3F      020BBSEGURIDADEON      NM   R$  000000000236000000000023740000000002320000000000235000000000023650000000002364000000000236900449000000000000014012000000000032933407000000000000009999123100000010000000000000BRBBSEACNOR5101
012013101578BBSEK23     070BBSE        ON      NM000R$  000000000010300000000001030000000000036000000000010200000000000430000000000042000000000012000004000000000000302000000000000030913300000000000230002013111800000010000000000000BRBBSEACNOR5101
012013101502BBTG11      010BTG PACTUAL UNT          R$  000000000287900000000028790000000002806000000000284200000000028370000000002836000000000284800463000000000002237300000000006358751800000000000000009999123100000010000000000000BRBBTGUNT007105
012013101596BBTG11F     020BTG PACTUAL UNT          R$  000000000286000000000029890000000002808000000000283400000000029890000000002807000000000298900009000000000000000408000000000001156384000000000000009999123100000010000000000000BRBBTGUNT007105
012013101562BBTG11T     030BTG PACTUAL UNT       181R$  000000000299500000000029960000000002995000000000299500000000029960000000000000000000000000000006000000000001050000000000003145732065000000000000009999123100000010000000000000BRBBTGUNT007105
012013101512BBVJ11      010FII C JARDIMCI           R$  000000000780000000000078490000000007681000000000772100000000076810000000007681000000000778100017000000000000000817000000000006308300000000000000009999123100000010000000000000BRBBVJCTF001134
012013101512BCFF11B     010FII BC FFII CI  ER  MB   R$  000000000899000000000089900000000008900000000000894100000000089500000000008906000000000895000140000000000000006833000000000061096160000000000000009999123100000010000000000000BRBCFFCTF000143
012013101502BDLL4       010BARDELLA    PN           R$  000000000541900000000054190000000005413000000000541300000000054130000000005050000000000541400002000000000000010100000000000054671900000000000000009999123100000010000000000000BRBDLLACNPR8149
012013101562BDLL4T      030BARDELLA    PN        090R$  000000000553300000000055340000000005533000000000553300000000055340000000000000000000000000000004000000000000010000000000000055331686000000000000009999123100000010000000000000BRBDLLACNPR8149
012013101502BEEF3       010MINERVA     ON      NM   R$  000000000098800000000009890000000000969000000000098100000000009850000000000985000000000098902054000000000000409300000000000401738900000000000000009999123100000010000000000000BRBEEFACNOR6104
012013101596BEEF3F      020MINERVA     ON      NM   R$  000000000099500000000010000000000000972000000000099000000000009840000000000975000000000100000010000000000000000286000000000000283268000000000000009999123100000010000000000000BRBEEFACNOR6104
012013101502BEES3       010BANESTES    ON           R$  000000000004900000000000500000000000049000000000004900000000000500000000000049000000000005000010000000000000049000000000000002421000000000000000009999123100000010000000000000BRBEESACNOR9245
012013101502BEMA3       010BEMATECH    ON      NM   R$  000000000077100000000007790000000000760000000000077200000000007700000000000766000000000077000200000000000000115200000000000088957700000000000000009999123100000010000000000000BRBEMAACNOR0114
012013101596BEMA3F      020BEMATECH    ON      NM   R$  000000000077700000000007850000000000777000000000077900000000007850000000000785000000000084900004000000000000000127000000000000099055000000000000009999123100000010000000000000BRBEMAACNOR0114
012013101502BGIP4       010BANESE      PN           R$  000000000480000000000049990000000004800000000000489900000000049990000000004800000000000499900003000000000000000300000000000001469900000000000000009999123100000010000000000000BRBGIPACNPR8179
012013101502BHGR3       010BHG         ON      NM   R$  000000000152000000000015200000000001465000000000146900000000014810000000001475000000000148100065000000000000060300000000000088622900000000000000009999123100000010000000000000BRBHGRACNOR9101
012013101596BHGR3F      020BHG         ON      NM   R$  000000000147000000000015470000000001452000000000149300000000015470000000001453000000000154700006000000000000000242000000000000361312000000000000009999123100000010000000000000BRBHGRACNOR9101
012013101502BICB3       010BICBANCO    ON      N1   R$  000000000060000000000006140000000000600000000000060400000000006140000000000500000000000069700003000000000000000300000000000000181400000000000000009999123100000010000000000000BRBICBACNOR0131
012013101502BICB4       010BICBANCO    PN      N1   R$  000000000059800000000006100000000000586000000000059800000000005930000000000593000000000059700094000000000000118700000000000071037700000000000000009999123100000010000000000000BRBICBACNPR7131
012013101596BICB4F      020BICBANCO    PN      N1   R$  000000000058000000000006000000000000580000000000059600000000006000000000000591000000000060000011000000000000000221000000000000131842000000000000009999123100000010000000000000BRBICBACNPR7131
012013101502BIOM3       010BIOMM       ON           R$  000000000095000000000009500000000000950000000000095000000000009500000000000900000000000098500003000000000000006000000000000005700000000000000000009999123100000010000000000000BRBIOMACNOR2101
012013101502BISA3       010BROOKFIELD  ON      NM   R$  000000000016000000000001610000000000158000000000015900000000001610000000000160000000000016103231000000000007153400000000001142908000000000000000009999123100000010000000000000BRBISAACNOR8109
012013101596BISA3F      020BROOKFIELD  ON      NM   R$  000000000016000000000001620000000000158000000000015900000000001620000000000158000000000016300009000000000000000187000000000000029898000000000000009999123100000010000000000000BRBISAACNOR8109
012013101562BISA3T      030BROOKFIELD  ON      NM020R$  000000000016100000000001620000000000161000000000016100000000001620000000000000000000000000000002000000000000003000000000000000485512000000000000009999123100000010000000000000BRBISAACNOR8109
012013101562BISA3T      030BROOKFIELD  ON      NM030R$  000000000016100000000001620000000000161000000000016100000000001620000000000000000000000000000002000000000000005000000000000000807200000000000000009999123100000010000000000000BRBISAACNOR8109
012013101562BISA3T      030BROOKFIELD  ON      NM062R$  000000000016200000000001640000000000160000000000016100000000001640000000000000000000000000000006000000000000061000000000000009825295000000000000009999123100000010000000000000BRBISAACNOR8109
012013101562BISA3T      030BROOKFIELD  ON      NM090R$  000000000016200000000001630000000000162000000000016200000000001630000000000000000000000000000002000000000000020000000000000003254730000000000000009999123100000010000000000000BRBISAACNOR8109
012013101512BJRC11      010FII JS RECIMCI           R$  000000008500000000000875000000000084999000000008612400000000849990000000080182000000008500000008000000000000000008000000000000688999000000000000009999123100000010000000000000BRBJRCCTF007111
012013101502BMEB4       010MERC BRASIL PN           R$  000000000107800000000010790000000001078000000000107800000000010790000000001079000000000110000004000000000000003200000000000003449800000000000000009999123100000010000000000000BRBMEBACNPR5191
012013101502BMIN4       010MERC INVEST PN           R$  000000000002700000000000270000000000027000000000002700000000000270000000000027000000000002900001000000000000002000000000000000054000000000000000009999123100000010000000000000BRBMINACNPR1160
012013101596BMIN4F      020MERC INVEST PN           R$  000000000002800000000000280000000000028000000000002800000000000280000000000027000000000002800001000000000000000100000000000000002800000000000000009999123100000010000000000000BRBMINACNPR1160
012013101502BMKS3       010BIC MONARK  ON           R$  000000003400000000000340000000000034000000000003400000000000340000000000033000000000003400000001000000000000000001000000000000034000000000000000009999123100000010000000000000BRBMKSACNOR9155
012013101512BMLC11B     010FII BMBRC LCCI  ER  MB   R$  000000001160000000000116000000000011400000000001140800000000114010000000011501000000001160000032000000000000002676000000000030529586000000000000009999123100000010000000000000BRBMLCCTF004120
012013101502BMTO4       010BRASMOTOR   PN           R$  000000000008700000000000880000000000087000000000008700000000000880000000000085000000000008800003000000000000011000000000000000958000000000000000009999123100000010000000000000BRBMTOACNPR6065
012013101502BOBR4       010BOMBRIL     PN           R$  000000000060300000000006200000000000603000000000060900000000006200000000000620000000000066400003000000000000000500000000000000304900000000000000009999123100000010000000000000BRBOBRACNPR3127
012013101596BOBR4F      020BOMBRIL     PN           R$  000000000060000000000006000000000000600000000000060000000000006000000000000552000000000065000001000000000000000045000000000000027000000000000000009999123100000010000000000000BRBOBRACNPR3127
012013101514BOVA11      010ISHARES BOVACI           R$  000000000529200000000053820000000005291000000000534200000000053750000000005375000000000538003837000000000001705150000000009110319070000000000000009999123100000010000000000000BRBOVACTF003101
012013101596BOVA11F     020ISHARES BOVACI           R$  000000000530000000000053600000000005300000000000532000000000053500000000005350000000000537000013000000000000000034000000000000180884000000000000009999123100000010000000000000BRBOVACTF003101
012013101512BPFF11      010FII ABSOLUTOCI           R$  000000000829900000000083600000000008225000000000829200000000082900000000008275000000000835000044000000000000001198000000000009934700000000000000009999123100000010000000000000BRBPFFCTF002106
012013101502BPHA3       010BR PHARMA   ON      NM   R$  000000000086600000000008660000000000850000000000085500000000008600000000000860000000000086300233000000000000380600000000000325694100000000000000009999123100000010000000000000BRBPHAACNOR6102
012013101502BPNM4       010PANAMERICANOPN      N1   R$  000000000053800000000005420000000000536000000000053900000000005420000000000538000000000054200080000000000000034800000000000018764300000000000000009999123100000010000000000000BRBPNMACNPR6111
012013101596BPNM4F      020PANAMERICANOPN      N1   R$  000000000054000000000005410000000000537000000000053800000000005410000000000538000000000054100005000000000000000062000000000000033395000000000000009999123100000010000000000000BRBPNMACNPR6111
012013101502BRAP3       010BRADESPAR   ON      N1   R$  000000000202500000000020900000000002025000000000206000000000020900000000002052000000000209100056000000000000015000000000000030905900000000000000009999123100000010000000000000BRBRAPACNOR5124
012013101596BRAP3F      020BRADESPAR   ON      N1   R$  000000000205200000000020800000000002050000000000205300000000020800000000002050000000000209900007000000000000000168000000000000345011000000000000009999123100000010000000000000BRBRAPACNOR5124
012013101502BRAP4       010BRADESPAR   PN      N1   R$  000000000248000000000025540000000002478000000000252600000000025330000000002525000000000253307868000000000002056100000000005195284600000000000000009999123100000010000000000000BRBRAPACNPR2124
012013101596BRAP4F      020BRADESPAR   PN      N1   R$  000000000249200000000025590000000002385000000000250900000000025250000000002529000000000256000039000000000000001264000000000003172300000000000000009999123100000010000000000000BRBRAPACNPR2124
012013101562BRAP4T      030BRADESPAR   PN      N1041R$  000000000254900000000025500000000002549000000000254900000000025500000000000000000000000000000002000000000000002500000000000006374362000000000000009999123100000010000000000000BRBRAPACNPR2124
012013101578BRAPJ25     070BRAP        PN      N1000R$  000000000005600000000000560000000000056000000000005600000000000560000000000003000000000000000001000000000000001000000000000000056000000000000250002013102100000010000000000000BRBRAPACNPR2124
012013101578BRAPK25     070BRAP        PN      N1000R$  000000000007000000000000700000000000070000000000007000000000000700000000000000000000000000000004000000000000040000000000000002800000000000000250002013111800000010000000000000BRBRAPACNPR2124
012013101514BRAX11      010ISHARES BRAXCI           R$  000000000433500000000043350000000004330000000000433100000000043300000000003000000000000440000003000000000000000030000000000000129950000000000000009999123100000010000000000000BRBRAXCTF002100
012013101512BRCR11      010FII BC FUND CI  ER       R$  000000001335000000000134000000000013270000000001330600000000133000000000013299000000001330000465000000000000038836000000000516781051000000000000009999123100000010000000000000BRBRCRCTF000134
012013101502BRFS3       010BRF SA      ON      NM   R$  000000000556400000000055830000000005454000000000549200000000054950000000005490000000000549510236000000000002645700000000014532729500000000000000009999123100000010000000000000BRBRFSACNOR8110
012013101596BRFS3F      020BRF SA      ON      NM   R$  000000000559000000000055900000000005450000000000549900000000055500000000005452000000000555000160000000000000004179000000000022980558000000000000009999123100000010000000000000BRBRFSACNOR8110
012013101562BRFS3T      030BRF SA      ON      NM030R$  000000000551700000000055190000000005517000000000551700000000055190000000000000000000000000000004000000000000001200000000000006620686000000000000009999123100000010000000000000BRBRFSACNOR8110
012013101562BRFS3T      030BRF SA      ON      NM062R$  000000000565500000000056560000000005655000000000565500000000056560000000000000000000000000000002000000000000000400000000000002262011000000000000009999123100000010000000000000BRBRFSACNOR8110
012013101578BRFSJ57     070BRFS        ON      NM000R$  000000000002100000000000210000000000021000000000002100000000000210000000000000000000000000000001000000000000020000000000000000420000000000000570002013102100000010000000000000BRBRFSACNOR8110
012013101578BRFSL57     070BRFS        ON      NM000R$  000000000018900000000001890000000000189000000000018900000000001890000000000000000000000000000002000000000000009000000000000001701000000000000570002013121600000010000000000000BRBRFSACNOR8110
012013101578BRFSL60     070BRFS        ON      NM000R$  000000000005400000000000540000000000053000000000005300000000000530000000000000000000000005500002000000000000009000000000000000477100000000000600002013121600000010000000000000BRBRFSACNOR8110
012013101582BRFSV4      080BRFSE       ON      NM000R$  000000000002500000000000250000000000025000000000002500000000000250000000000000000000000000000001000000000000020000000000000000500000000000000535002013102100000010000000000000BRBRFSACNOR8110
012013101582BRFSV75     080BRFSE       ON      NM000R$  000000000000400000000000210000000000004000000000001200000000000210000000000000000000000000000002000000000000040000000000000000500000000000000515002013102100000010000000000000BRBRFSACNOR8110
012013101582BRFSX55     080BRFSE       ON      NM000R$  000000000013600000000001360000000000136000000000013600000000001360000000000000000000000000000002000000000000009000000000000001224000000000000550002013121600000010000000000000BRBRFSACNOR8110
012013101502BRIN3       010BR INSURANCEON      NM   R$  000000000203700000000020420000000001986000000000200400000000020160000000002005000000000201601046000000000000230700000000000462517700000000000000009999123100000010000000000000BRBRINACNOR3106
012013101596BRIN3F      020BR INSURANCEON      NM   R$  000000000202600000000020260000000001833000000000199900000000020070000000001833000000000201400021000000000000000467000000000000933613000000000000009999123100000010000000000000BRBRINACNOR3106
012013101562BRIN3T      030BR INSURANCEON      NM030R$  000000000202400000000020250000000002024000000000202400000000020250000000000000000000000000000002000000000000001000000000000002024067000000000000009999123100000010000000000000BRBRINACNOR3106
012013101562BRIN3T      030BR INSURANCEON      NM062R$  000000000203900000000020400000000002039000000000203900000000020400000000000000000000000000000002000000000000000800000000000001631477000000000000009999123100000010000000000000BRBRINACNOR3106
012013101502BRIV4       010ALFA INVEST PN           R$  000000000056000000000005790000000000560000000000056900000000005790000000000579000000000058900002000000000000000200000000000000113900000000000000009999123100000010000000000000BRBRIVACNPR3197
012013101502BRKM3       010BRASKEM     ON      N1   R$  000000000132500000000013330000000001324000000000132800000000013330000000001285000000000133300008000000000000002800000000000003719100000000000000009999123100000010000000000000BRBRKMACNOR1110
012013101596BRKM3F      020BRASKEM     ON      N1   R$  000000000130000000000013050000000001300000000000130300000000013050000000001280000000000130900002000000000000000021000000000000027375000000000000009999123100000010000000000000BRBRKMACNOR1110
012013101502BRKM5       010BRASKEM     PNA     N1   R$  000000000188100000000019180000000001875000000000189700000000018910000000001890000000000189808510000000000002421800000000004596360100000000000000009999123100000010000000000000BRBRKMACNPA4110
012013101596BRKM5F      020BRASKEM     PNA     N1   R$  000000000188400000000019140000000001836000000000189200000000018800000000001842000000000188000036000000000000001340000000000002536298000000000000009999123100000010000000000000BRBRKMACNPA4110
012013101562BRKM5T      030BRASKEM     PNA     N1030R$  000000000190100000000019020000000001901000000000190100000000019020000000000000000000000000000002000000000000000500000000000000950983000000000000009999123100000010000000000000BRBRKMACNPA4110
012013101502BRML3       010BR MALLS PARON      NM   R$  000000000208700000000021050000000002069000000000208600000000021050000000002096000000000210510310000000000003120300000000006510452100000000000000009999123100000010000000000000BRBRMLACNOR9105
012013101596BRML3F      020BR MALLS PARON      NM   R$  000000000209000000000021000000000002070000000000208500000000020970000000002074000000000210900045000000000000001274000000000002656710000000000000009999123100000010000000000000BRBRMLACNOR9105
012013101502BRPR3       010BR PROPERT  ON      NM   R$  000000000187400000000018790000000001840000000000185500000000018400000000001840000000000184210713000000000003198900000000005936737600000000000000009999123100000010000000000000BRBRPRACNOR9112
012013101596BRPR3F      020BR PROPERT  ON      NM   R$  000000000195900000000019590000000001841000000000185900000000018600000000001841000000000189400050000000000000001453000000000002701452000000000000009999123100000010000000000000BRBRPRACNOR9112
012013101562BRPR3T      030BR PROPERT  ON      NM030R$  000000000185300000000018540000000001853000000000185300000000018540000000000000000000000000000002000000000000002200000000000004078360000000000000009999123100000010000000000000BRBRPRACNOR9112
012013101562BRPR3T      030BR PROPERT  ON      NM045R$  000000000187000000000018710000000001870000000000187000000000018710000000000000000000000000000002000000000000002000000000000003740722000000000000009999123100000010000000000000BRBRPRACNOR9112
012013101502BRSR6       010BANRISUL    PNB     N1   R$  000000000153500000000015410000000001503000000000152000000000015150000000001510000000000151504782000000000000919900000000001398299100000000000000009999123100000010000000000000BRBRSRACNPB4134
012013101596BRSR6F      020BANRISUL    PNB     N1   R$  000000000156300000000015630000000001503000000000152400000000015080000000001501000000000154900012000000000000000320000000000000487827000000000000009999123100000010000000000000BRBRSRACNPB4134
012013101562BRSR6T      030BANRISUL    PNB     N1062R$  000000000153300000000015350000000001533000000000153400000000015350000000000000000000000000000004000000000000001000000000000001534381000000000000009999123100000010000000000000BRBRSRACNPB4134
012013101502BSEV3       010BIOSEV      ON      NM   R$  000000000089000000000008990000000000860000000000089100000000008600000000000817000000000088500011000000000000009400000000000008378700000000000000009999123100000010000000000000BRBSEVACNOR3100
012013101596BSEV3F      020BIOSEV      ON      NM   R$  000000000085000000000008500000000000850000000000085000000000008500000000000851000000000092000001000000000000000002000000000000001700000000000000009999123100000010000000000000BRBSEVACNOR3100
012013101502BTOW3       010B2W DIGITAL ON      NM   R$  000000000168900000000017000000000001659000000000168100000000016900000000001687000000000169001841000000000000411900000000000692730900000000000000009999123100000010000000000000BRBTOWACNOR8105
012013101596BTOW3F      020B2W DIGITAL ON      NM   R$  000000000169500000000016990000000001584000000000168300000000016990000000001584000000000169900042000000000000001287000000000002167576000000000000009999123100000010000000000000BRBTOWACNOR8105
012013101502BTTL3       010BATTISTELLA ON           R$  000000000009800000000000990000000000092000000000009400000000000990000000000091000000000009900004000000000000154700000000000014684300000000000000009999123100000010000000000000BRBTTLACNOR0105
012013101502BTTL4       010BATTISTELLA PN           R$  000000000009900000000001010000000000097000000000009900000000001010000000000097000000000010100019000000000000029400000000000002916800000000000000009999123100000010000000000000BRBTTLACNPR7105
012013101502BVMF3       010BMFBOVESPA  ON      NM   R$  000000000126900000000012760000000001255000000000126200000000012600000000001260000000000126118102000000000009898800000000012498235500000000000000009999123100000010000000000000BRBVMFACNOR3126
012013101596BVMF3F      020BMFBOVESPA  ON      NM   R$  000000000126800000000012750000000001251000000000126200000000012510000000001251000000000126400135000000000000004056000000000005121204000000000000009999123100000010000000000000BRBVMFACNOR3126
012013101562BVMF3T      030BMFBOVESPA  ON      NM020R$  000000000126700000000012680000000001267000000000126700000000012680000000000000000000000000000002000000000000000800000000000001014046000000000000009999123100000010000000000000BRBVMFACNOR3126
012013101562BVMF3T      030BMFBOVESPA  ON      NM022R$  000000000126400000000012650000000001264000000000126400000000012650000000000000000000000000000002000000000000009500000000000012011955000000000000009999123100000010000000000000BRBVMFACNOR3126
012013101562BVMF3T      030BMFBOVESPA  ON      NM090R$  000000000129000000000012910000000001288000000000128900000000012890000000000000000000000000000006000000000000220000000000000283778584000000000000009999123100000010000000000000BRBVMFACNOR3126
012013101578BVMFJ11     070BVMF        ON      NM000R$  000000000017600000000001780000000000174000000000017600000000001780000000000161000000000000000053000000000000050000000000000008808900000000000108502013102100000010000000000000BRBVMFACNOR3125
012013101578BVMFJ12     070BVMF        ON      NM000R$  000000000009100000000000930000000000076000000000008200000000000840000000000077000000000008400565000000000000239700000000000019791900000000000118502013102100000010000000000000BRBVMFACNOR3125
012013101578BVMFJ13     070BVMF        ON      NM000R$  000000000001300000000000160000000000009000000000001000000000000110000000000009000000000001100187000000000000814000000000000008848600000000000128502013102100000010000000000000BRBVMFACNOR3125
012013101578BVMFJ14     070BVMF        ON      NM000R$  000000000000100000000000010000000000001000000000000100000000000010000000000000000000000000100001000000000000000600000000000000000600000000000138502013102100000010000000000000BRBVMFACNOR3125
012013101578BVMFJ42     070BVMF        ON      NM000R$  000000000004300000000000470000000000035000000000003900000000000350000000000000000000000123500017000000000000023300000000000000931000000000000123502013102100000010000000000000BRBVMFACNOR3125
012013101578BVMFJ43     070BVMF        ON      NM000R$  000000000000200000000000020000000000001000000000000100000000000010000000000001000000000000200021000000000000176700000000000000178900000000000133502013102100000010000000000000BRBVMFACNOR3125
012013101578BVMFK12     070BVMF  FM    ON      NM000R$  000000000010800000000001100000000000099000000000010200000000000990000000000096000000000014600018000000000000031500000000000003239600000000000118502013111800000010000000000000BRBVMFACNOR3125
012013101578BVMFK13     070BVMF  FM    ON      NM000R$  000000000003800000000000420000000000032000000000003400000000000340000000000031000000000003600229000000000000596600000000000020440300000000000128502013111800000010000000000000BRBVMFACNOR3125
012013101578BVMFK14     070BVMF  FM    ON      NM000R$  000000000001000000000000100000000000005000000000000600000000000060000000000006000000000000700245000000000000295300000000000001778300000000000138502013111800000010000000000000BRBVMFACNOR3125
012013101578BVMFK42     070BVMF  FM    ON      NM000R$  000000000005600000000000560000000000049000000000005100000000000530000000000000000000000000000013000000000000026000000000000001351500000000000125002013111800000010000000000000BRBVMFACNOR3126
012013101578BVMFK43     070BVMF  FM    ON      NM000R$  000000000001400000000000150000000000011000000000001100000000000120000000000001000000000001200075000000000000156500000000000001830000000000000135002013111800000010000000000000BRBVMFACNOR3126
012013101578BVMFL13     070BVMF  FM    ON      NM000R$  000000000005700000000000580000000000048000000000005200000000000500000000000026000000000005800362000000000000059300000000000003087200000000000128502013121600000010000000000000BRBVMFACNOR3125
012013101578BVMFL42     070BVMF  FM    ON      NM000R$  000000000007900000000000790000000000071000000000007200000000000730000000000000000000000000000005000000000000009400000000000000685400000000000125002013121600000010000000000000BRBVMFACNOR3126
012013101578BVMFL64     070BVMF  FM    ON      NM000R$  000000000001400000000000140000000000014000000000001400000000000140000000000000000000000000000003000000000000007000000000000000098000000000000140002013121600000010000000000000BRBVMFACNOR3126
012013101582BVMFM12     080BVMFE       ON      NM000R$  000000000003200000000000320000000000032000000000003200000000000320000000000000000000000003500014000000000000054800000000000001753600000000000120002014012000000010000000000000BRBVMFACNOR3126
012013101582BVMFV11     080BVMFE       ON      NM000R$  000000000000100000000000010000000000001000000000000100000000000010000000000000000000000000200001000000000000000100000000000000000100000000000108502013102100000010000000000000BRBVMFACNOR3125
012013101582BVMFV12     080BVMFE       ON      NM000R$  000000000000400000000000040000000000004000000000000400000000000040000000000001000000000000500009000000000000005000000000000000020000000000000118502013102100000010000000000000BRBVMFACNOR3125
012013101582BVMFV13     080BVMFE       ON      NM000R$  000000000002600000000000340000000000024000000000002800000000000290000000000026000000000006200043000000000000090200000000000002569700000000000128502013102100000010000000000000BRBVMFACNOR3125
012013101582BVMFV41     080BVMFE       ON      NM000R$  000000000000100000000000010000000000001000000000000100000000000010000000000000000000000000000001000000000000010000000000000000010000000000000113502013102100000010000000000000BRBVMFACNOR3125
012013101582BVMFV42     080BVMFE       ON      NM000R$  000000000000800000000000190000000000008000000000000800000000000190000000000001000000000002000007000000000000034200000000000000279400000000000123502013102100000010000000000000BRBVMFACNOR3125
012013101582BVMFV43     080BVMFE       ON      NM000R$  000000000006500000000000770000000000065000000000007200000000000700000000000000000000000010000004000000000000013100000000000000945000000000000133502013102100000010000000000000BRBVMFACNOR3125
012013101582BVMFW12     080BVMFE FM    ON      NM000R$  000000000001400000000000160000000000014000000000001400000000000160000000000010000000000000000006000000000000012300000000000000181600000000000118502013111800000010000000000000BRBVMFACNOR3125
012013101582BVMFW13     080BVMFE FM    ON      NM000R$  000000000004400000000000520000000000044000000000004900000000000490000000000000000000000025000014000000000000042200000000000002104500000000000128502013111800000010000000000000BRBVMFACNOR3125
012013101582BVMFW42     080BVMFE FM    ON      NM000R$  000000000003500000000000360000000000033000000000003400000000000350000000000000000000000003700006000000000000021000000000000000724500000000000125002013111800000010000000000000BRBVMFACNOR3126
012013101582BVMFX13     080BVMFE FM    ON      NM000R$  000000000005300000000000610000000000053000000000005800000000000580000000000000000000000000000017000000000000046000000000000002690000000000000128502013121600000010000000000000BRBVMFACNOR3125
012013101582BVMFX62     080BVMFE FM    ON      NM000R$  000000000002800000000000280000000000027000000000002700000000000270000000000000000000000000000002000000000000003700000000000000101800000000000120002013121600000010000000000000BRBVMFACNOR3126
012013101502CAMB4       010CAMBUCI     PN           R$  000000000019000000000001900000000000190000000000019000000000001900000000000183000000000019000002000000000000003200000000000000608000000000000000009999123100000010000000000000BRCAMBACNPR1117
012013101596CAMB4F      020CAMBUCI     PN           R$  000000000017500000000001750000000000175000000000017500000000001750000000000175000000000025000001000000000000000001000000000000000175000000000000009999123100000010000000000000BRCAMBACNPR1117
012013101502CARD3       010CSU CARDSYSTON      NM   R$  000000000030400000000003090000000000301000000000030400000000003080000000000301000000000030800039000000000000039300000000000011981800000000000000009999123100000010000000000000BRCARDACNOR9105
012013101502CBEE3       010AMPLA ENERG ON *         R$  000000000012800000000001280000000000128000000000012800000000001280000000000122000000000013000002000000000001700000000000000000217600000000000000009999123100010000000000000000BRCBEEACNOR3149
012013101502CBMA4       010COBRASMA    PN           R$  000000000000400000000000040000000000004000000000000400000000000040000000000004000000000000500002000000000000040000000000000000160000000000000000009999123100000010000000000000BRCBMAACNPR1124
012013101508CCHI3       010CHIARELLI   ON           R$  000000000001800000000000190000000000018000000000001800000000000180000000000017000000000001900034000000000000840000000000000015450000000000000000009999123100000010000000000000BRCCHIACNOR5123
012013101508CCHI4       010CHIARELLI   PN           R$  000000000001200000000000130000000000012000000000001200000000000130000000000012000000000001300016000000000000250000000000000003150000000000000000009999123100000010000000000000BRCCHIACNPR2122
012013101596CCHI4F      020CHIARELLI   PN           R$  000000000001300000000000130000000000013000000000001300000000000130000000000011000000000001300001000000000000002103000000000000027339000000000000009999123100000010000000000000BRCCHIACNPR2122
012013101502CCPR3       010CYRE COM-CCPON      NM   R$  000000000209900000000021000000000002000000000000205500000000020000000000002000000000000214900023000000000000013000000000000026719300000000000000009999123100000010000000000000BRCCPRACNOR9107
012013101502CCRO3       010CCR SA      ON      NM   R$  000000000180500000000018070000000001760000000000177300000000017740000000001769000000000177416710000000000006768800000000012006362600000000000000009999123100000010000000000000BRCCROACNOR2123
012013101596CCRO3F      020CCR SA      ON      NM   R$  000000000182700000000018470000000001755000000000177500000000017550000000001770000000000178900098000000000000002508000000000004454360000000000000009999123100000010000000000000BRCCROACNOR2123
012013101562CCRO3T      030CCR SA      ON      NM016R$  000000000177200000000017730000000001772000000000177200000000017730000000000000000000000000000002000000000000001000000000000001772942000000000000009999123100000010000000000000BRCCROACNOR2123
012013101502CCXC3       010CCX CARVAO  ON      NM   R$  000000000013000000000001360000000000128000000000013000000000001290000000000129000000000013100585000000000003219100000000000421504900000000000000009999123100000010000000000000BRCCXCACNOR5100
012013101596CCXC3F      020CCX CARVAO  ON      NM   R$  000000000012900000000001290000000000129000000000012900000000001290000000000126000000000013200001000000000000000060000000000000007740000000000000009999123100000010000000000000BRCCXCACNOR5100
012013101562CCXC3T      030CCX CARVAO  ON      NM022R$  000000000013200000000001330000000000132000000000013200000000001330000000000000000000000000000004000000000000530000000000000070372764000000000000009999123100000010000000000000BRCCXCACNOR5100
012013101512CEOC11B     010FII CEO CCP CI  ER  MB   R$  000000000878900000000088350000000008600000000000870500000000086000000000008600000000000869000078000000000000003190000000000027770657000000000000009999123100000010000000000000BRCEOCCTF003111
012013101502CESP3       010CESP        ON      N1   R$  000000000198100000000019950000000001980000000000198000000000019950000000001996000000000199900004000000000000002200000000000004357800000000000000009999123100000010000000000000BRCESPACNOR3160
012013101502CESP6       010CESP        PNB     N1   R$  000000000225500000000022980000000002242000000000227300000000022870000000002281000000000228703436000000000000703100000000001598417700000000000000009999123100000010000000000000BRCESPACNPB4119
012013101596CESP6F      020CESP        PNB     N1   R$  000000000225200000000023100000000002231000000000225900000000023100000000002241000000000231000016000000000000000453000000000001026815000000000000009999123100000010000000000000BRCESPACNPB4119
012013101502CGAS5       010COMGAS      PNA          R$  000000000579100000000058540000000005791000000000581200000000058050000000005791000000000580500068000000000000021000000000000122056300000000000000009999123100000010000000000000BRCGASACNPA3129
012013101596CGAS5F      020COMGAS      PNA          R$  000000000582100000000058210000000005821000000000582100000000058210000000005751000000000580000001000000000000000007000000000000040747000000000000009999123100000010000000000000BRCGASACNPA3129
012013101502CGRA3       010GRAZZIOTIN  ON           R$  000000000166900000000016700000000001630000000000166400000000016300000000001612000000000167000006000000000000002000000000000003329200000000000000009999123100000010000000000000BRCGRAACNOR2061
012013101596CGRA3F      020GRAZZIOTIN  ON           R$  000000000170000000000017000000000001687000000000169100000000016870000000001650000000000169700002000000000000000003000000000000005074000000000000009999123100000010000000000000BRCGRAACNOR2061
012013101502CGRA4       010GRAZZIOTIN  PN           R$  000000000172200000000017740000000001722000000000176200000000017680000000001733000000000176900013000000000000003300000000000005815800000000000000009999123100000010000000000000BRCGRAACNPR9061
012013101596CGRA4F      020GRAZZIOTIN  PN           R$  000000000175000000000017980000000001750000000000175300000000017980000000001730000000000179800002000000000000000013000000000000022798000000000000009999123100000010000000000000BRCGRAACNPR9061
012013101502CIEL3       010CIELO       ON      NM   R$  000000000656000000000065970000000006551000000000657300000000065890000000006580000000000658905891000000000003950200000000025964770000000000000000009999123100000010000000000000BRCIELACNOR3112
012013101596CIEL3F      020CIELO       ON      NM   R$  000000000656000000000065990000000006544000000000657200000000065990000000006578000000000659900186000000000000003461000000000022747463000000000000009999123100000010000000000000BRCIELACNOR3112
012013101562CIEL3T      030CIELO       ON      NM090R$  000000000671200000000067140000000006711000000000671200000000067140000000000000000000000000000008000000000001090000000000007316618096000000000000009999123100000010000000000000BRCIELACNOR3112
012013101578CIELK62     070CIEL        ON      NM000R$  000000000046100000000004970000000000461000000000047900000000004970000000000000000000000000000002000000000000286000000000000136994000000000000620002013111800000010000000000000BRCIELACNOR3112
012013101578CIELL62     070CIEL        ON      NM000R$  000000000049900000000004990000000000499000000000049900000000004990000000000000000000000000000001000000000000279000000000000139221000000000000620002013121600000010000000000000BRCIELACNOR3112
012013101582CIELW53     080CIELE       ON      NM000R$  000000000000100000000000010000000000001000000000000100000000000010000000000000000000000000000001000000000000286000000000000000286000000000000530002013111800000010000000000000BRCIELACNOR3112
012013101582CIELW6      080CIELE       ON      NM000R$  000000000000100000000000010000000000001000000000000100000000000010000000000000000000000000000001000000000000286000000000000000286000000000000560002013111800000010000000000000BRCIELACNOR3112
012013101582CIELX53     080CIELE       ON      NM000R$  000000000000200000000000020000000000002000000000000200000000000020000000000000000000000000000001000000000000279000000000000000558000000000000530002013121600000010000000000000BRCIELACNOR3112
012013101582CIELX56     080CIELE       ON      NM000R$  000000000000300000000000030000000000003000000000000300000000000030000000000000000000000000000001000000000000279000000000000000837000000000000560002013121600000010000000000000BRCIELACNOR3112
012013101502CLSC4       010CELESC      PN      N2   R$  000000000186000000000018700000000001855000000000186400000000018700000000001854000000000187000020000000000000003700000000000006900000000000000000009999123100000010000000000000BRCLSCACNPR3107
012013101502CMIG3       010CEMIG       ON      N1   R$  000000000194000000000019550000000001940000000000194500000000019470000000001947000000000195500162000000000000146400000000000284831500000000000000009999123100000010000000000000BRCMIGACNOR6208
012013101596CMIG3F      020CEMIG       ON      N1   R$  000000000194300000000019500000000001941000000000194500000000019440000000001944000000000197700018000000000000000427000000000000830747000000000000009999123100000010000000000000BRCMIGACNOR6208
012013101502CMIG4       010CEMIG       PN      N1   R$  000000000199500000000019950000000001963000000000197900000000019770000000001975000000000197707809000000000002700800000000005346207700000000000000009999123100000010000000000000BRCMIGACNPR3208
012013101596CMIG4F      020CEMIG       PN      N1   R$  000000000199200000000019980000000001965000000000198000000000019900000000001972000000000199000193000000000000003555000000000007040049000000000000009999123100000010000000000000BRCMIGACNPR3208
012013101562CMIG4T      030CEMIG       PN      N1030R$  000000000200300000000020040000000002003000000000200300000000020040000000000000000000000000000002000000000000002000000000000004006189000000000000009999123100000010000000000000BRCMIGACNPR3208
012013101578CMIGK20     070CMIG        PN      N1000R$  000000000005100000000000510000000000051000000000005100000000000510000000000000000000000000000001000000000000001200000000000000061200000000000200002013111800000010000000000000BRCMIGACNPR3208
012013101578CMIGK21     070CMIG        PN      N1000R$  000000000002000000000000210000000000017000000000001900000000000170000000000000000000000002500011000000000000025000000000000000490000000000000210002013111800000010000000000000BRCMIGACNPR3208
012013101582CMIGM19     080CMIGE       PN      N1000R$  000000000003500000000000350000000000035000000000003500000000000350000000000000000000000000000002000000000000200000000000000007000000000000000190002014012000000010000000000000BRCMIGACNPR3208
012013101512CNES11B     010FII CENESP  CI      MB   R$  000000001299800000000130000000000012780000000001299800000000127800000000012780000000001300000004000000000000000131000000000001702743000000000000009999123100000010000000000000BRCNESCTF001126
012013101502COCA34      010COCA COLA   DRN          R$  000000000826900000000082690000000008269000000000826900000000082690000000008126000000000845100001000000000000009400000000000077728600000000000000009999123100000010000000000000BRCOCABDR002109
012013101502COCE3       010COELCE      ON           R$  000000000400100000000040230000000004000000000000401000000000040170000000003982000000000402000015000000000000002300000000000009223000000000000000009999123100000010000000000000BRCOCEACNOR0132
012013101502COCE5       010COELCE      PNA          R$  000000000390100000000039010000000003811000000000387400000000038610000000003861000000000387400138000000000000021600000000000083694700000000000000009999123100000010000000000000BRCOCEACNPA3133
012013101596COCE5F      020COELCE      PNA          R$  000000000390000000000039100000000003854000000000387700000000038540000000003855000000000389900024000000000000000386000000000001496685000000000000009999123100000010000000000000BRCOCEACNPA3133
012013101502CPFE3       010CPFL ENERGIAON      NM   R$  000000000199400000000020050000000001951000000000197200000000019620000000001960000000000196506101000000000001280700000000002526099400000000000000009999123100000010000000000000BRCPFEACNOR0122
012013101596CPFE3F      020CPFL ENERGIAON      NM   R$  000000000199300000000020050000000001941000000000197300000000019690000000001955000000000197000032000000000000000782000000000001543498000000000000009999123100000010000000000000BRCPFEACNOR0122
012013101562CPFE3T      030CPFL ENERGIAON      NM016R$  000000000198400000000019850000000001973000000000197900000000019740000000000000000000000000000004000000000000007600000000000015041694000000000000009999123100000010000000000000BRCPFEACNOR0122
012013101502CPLE3       010COPEL       ON      N1   R$  000000000220600000000022500000000002182000000000220700000000022090000000002208000000000220900209000000000000067900000000000149885400000000000000009999123100000010000000000000BRCPLEACNOR8128
012013101502CPLE6       010COPEL       PNB     N1   R$  000000000301500000000030370000000002995000000000301900000000030200000000003011000000000302003645000000000001474900000000004453977700000000000000009999123100000010000000000000BRCPLEACNPB9125
012013101596CPLE6F      020COPEL       PNB     N1   R$  000000000300000000000030440000000002950000000000301700000000030440000000003000000000000304400027000000000000000576000000000001737879000000000000009999123100000010000000000000BRCPLEACNPB9125
012013101582CPLEM30     080CPLEE       PNB     N1000R$  000000000007500000000000750000000000075000000000007500000000000750000000000000000000000000000002000000000000150000000000000011250000000000000300002014012000000010000000000000BRCPLEACNPB9125
012013101502CPRE3       010CPFL RENOVAVON      NM   R$  000000000136200000000013700000000001320000000000134900000000013700000000001201000000000137100027000000000000003100000000000004184700000000000000009999123100000010000000000000BRCPREACNOR5100
012013101596CPRE3F      020CPFL RENOVAVON      NM   R$  000000000133000000000013600000000001330000000000134700000000013600000000001210000000000136000004000000000000000165000000000000222371000000000000009999123100000010000000000000BRCPREACNOR5100
012013101502CRDE3       010CR2         ON      NM   R$  000000000039000000000003900000000000386000000000038600000000003860000000000380000000000039000005000000000000003300000000000001275200000000000000009999123100000010000000000000BRCRDEACNOR1108
012013101502CREM3       010CREMER      ON      NM   R$  000000000146200000000014880000000001462000000000147200000000014700000000001470000000000148900017000000000000004400000000000006478800000000000000009999123100000010000000000000BRCREMACNOR2167
012013101596CREM3F      020CREMER      ON      NM   R$  000000000146000000000015200000000001422000000000146800000000015200000000001452000000000159800004000000000000000218000000000000320128000000000000009999123100000010000000000000BRCREMACNOR2167
012013101502CRIV4       010ALFA FINANC PN           R$  000000000043900000000004400000000000439000000000043900000000004400000000000432000000000044000005000000000000021000000000000009239000000000000000009999123100000010000000000000BRCRIVACNPR1190
012013101502CRUZ3       010SOUZA CRUZ  ON           R$  000000000260300000000026080000000002540000000000256100000000025540000000002550000000000255405549000000000001273000000000003261148200000000000000009999123100000010000000000000BRCRUZACNOR0248
012013101596CRUZ3F      020SOUZA CRUZ  ON           R$  000000000260500000000026050000000002545000000000256400000000025500000000002550000000000260000064000000000000002022000000000005185539000000000000009999123100000010000000000000BRCRUZACNOR0248
012013101562CRUZ3T      030SOUZA CRUZ  ON        030R$  000000000259300000000025940000000002573000000000258300000000025740000000000000000000000000000008000000000000000600000000000001550115000000000000009999123100000010000000000000BRCRUZACNOR0248
012013101502CSAN3       010COSAN       ON      NM   R$  000000000438500000000044500000000004352000000000440300000000044250000000004402000000000442505800000000000001418300000000006245016000000000000000009999123100000010000000000000BRCSANACNOR6108
012013101596CSAN3F      020COSAN       ON      NM   R$  000000000438500000000044470000000004311000000000440200000000044060000000004406000000000443000061000000000000002063000000000009081770000000000000009999123100000010000000000000BRCSANACNOR6108
012013101562CSAN3T      030COSAN       ON      NM030R$  000000000440300000000044040000000004403000000000440300000000044040000000000000000000000000000002000000000000000400000000000001761513000000000000009999123100000010000000000000BRCSANACNOR6108
012013101562CSAN3T      030COSAN       ON      NM062R$  000000000444800000000044800000000004448000000000446300000000044800000000000000000000000000000004000000000000001000000000000004463801000000000000009999123100000010000000000000BRCSANACNOR6108
012013101582CSANM42     080CSANE       ON      NM000R$  000000000008600000000000860000000000086000000000008600000000000860000000000000000000000000000002000000000000100000000000000008600000000000000420002014012000000010000000000000BRCSANACNOR6108
012013101502CSCO34      010CISCO       DRN          R$  000000000510100000000051010000000005101000000000510100000000051010000000005010000000000509000002000000000000010400000000000053050400000000000000009999123100000010000000000000BRCSCOBDR004111
012013101502CSMG3       010COPASA      ON      NM   R$  000000000350100000000035790000000003475000000000354700000000035790000000003562000000000357902467000000000000333500000000001183218100000000000000009999123100000010000000000000BRCSMGACNOR5128
012013101596CSMG3F      020COPASA      ON      NM   R$  000000000350300000000036410000000003503000000000357300000000035460000000003500000000000365000011000000000000000480000000000001715158000000000000009999123100000010000000000000BRCSMGACNOR5128
012013101514CSMO11      010ISHARES CSMOCI           R$  000000000484900000000048810000000004849000000000485700000000048610000000004700000000000000000005000000000000000610000000000002962970000000000000009999123100000010000000000000BRCSMOCTF002100
012013101502CSNA3       010SID NACIONALON           R$  000000000111000000000011440000000001100000000000112900000000011440000000001143000000000114415709000000000007841100000000008854644700000000000000009999123100000010000000000000BRCSNAACNOR6243
012013101596CSNA3F      020SID NACIONALON           R$  000000000110300000000011390000000001100000000000112300000000011370000000001137000000000113900113000000000000003458000000000003888390000000000000009999123100000010000000000000BRCSNAACNOR6243
012013101562CSNA3T      030SID NACIONALON        022R$  000000000113200000000011330000000001132000000000113200000000011330000000000000000000000000000002000000000000012800000000000014497836000000000000009999123100000010000000000000BRCSNAACNOR6243
012013101562CSNA3T      030SID NACIONALON        062R$  000000000112500000000011530000000001125000000000113200000000011530000000000000000000000000000006000000000000051200000000000057984559000000000000009999123100000010000000000000BRCSNAACNOR6243
012013101562CSNA3T      030SID NACIONALON        090R$  000000000115800000000011630000000001158000000000116000000000011630000000000000000000000000000004000000000000000500000000000000580484000000000000009999123100000010000000000000BRCSNAACNOR6243
012013101562CSNA3T      030SID NACIONALON        094R$  000000000115900000000011600000000001159000000000115900000000011600000000000000000000000000000002000000000000010000000000000011597418000000000000009999123100000010000000000000BRCSNAACNOR6243
012013101562CSNA3T      030SID NACIONALON        120R$  000000000116700000000011680000000001167000000000116700000000011680000000000000000000000000000002000000000000000200000000000000233560000000000000009999123100000010000000000000BRCSNAACNOR6243
012013101562CSNA3T      030SID NACIONALON        150R$  000000000118100000000011820000000001181000000000118100000000011820000000000000000000000000000002000000000000000200000000000000236307000000000000009999123100000010000000000000BRCSNAACNOR6243
012013101562CSNA3T      030SID NACIONALON        181R$  000000000119200000000011930000000001192000000000119200000000011930000000000000000000000000000002000000000000002000000000000002385827000000000000009999123100000010000000000000BRCSNAACNOR6243
012013101578CSNAJ10     070CSNA        ON        000R$  000000000011400000000001440000000000110000000000013100000000001440000000000110000000000014400011000000000000008200000000000001075100000000000100002013102100000010000000000000BRCSNAACNOR6243
012013101538CSNAJ10E    012CSNA        ON        000R$  000000000100000000000010000000000001000000000000100000000000010000000000000000000000000000000010000000000000034000000000000034000000000000000100002013102100000010000000000000BRCSNAACNOR6243
012013101578CSNAJ11     070CSNA        ON        000R$  000000000002600000000000470000000000026000000000004200000000000440000000000017000000000006000020000000000000016700000000000000710500000000000110002013102100000010000000000000BRCSNAACNOR6243
012013101578CSNAJ40     070CSNA        ON        000R$  000000000008400000000000840000000000084000000000008400000000000840000000000000000000000000000001000000000000003000000000000000252000000000000104002013102100000010000000000000BRCSNAACNOR6243
012013101578CSNAJ60     070CSNA        ON        000R$  000000000005500000000000550000000000055000000000005500000000000550000000000000000000000000000006000000000000026500000000000001457500000000000106002013102100000010000000000000BRCSNAACNOR6243
012013101578CSNAJ7      070CSNA        ON        000R$  000000000043700000000004370000000000437000000000043700000000004370000000000000000000000000000001000000000000003000000000000001311000000000000068002013102100000010000000000000BRCSNAACNOR6242
012013101578CSNAJ82     070CSNA        ON        000R$  000000000033300000000003330000000000333000000000033300000000003330000000000000000000000000000001000000000000002000000000000000666000000000000080002013102100000010000000000000BRCSNAACNOR6242
012013101578CSNAJ9      070CSNA        ON        000R$  000000000023600000000002550000000000236000000000024900000000002550000000000210000000000000000008000000000000022200000000000005549400000000000088002013102100000010000000000000BRCSNAACNOR6242
012013101578CSNAJ94     070CSNA        ON        000R$  000000000019700000000002060000000000182000000000019600000000001980000000000000000000000000000030000000000000057100000000000011207300000000000094002013102100000010000000000000BRCSNAACNOR6243
012013101578CSNAJ96     070CSNA        ON        000R$  000000000017600000000001760000000000175000000000017500000000001760000000000000000000000000000005000000000000001000000000000000175800000000000096002013102100000010000000000000BRCSNAACNOR6243
012013101578CSNAK1      070CSNA        ON        000R$  000000000014600000000001460000000000146000000000014600000000001460000000000000000000000000000002000000000000006000000000000000876000000000000100002013111800000010000000000000BRCSNAACNOR6243
012013101578CSNAK10     070CSNA        ON        000R$  000000000015400000000001700000000000154000000000016900000000001700000000000000000000000020000017000000000000019400000000000003294800000000000098002013111800000010000000000000BRCSNAACNOR6242
012013101578CSNAK11     070CSNA  FM    ON        000R$  000000000006200000000000750000000000060000000000006800000000000750000000000000000000000000000066000000000000102600000000000006980700000000000110002013111800000010000000000000BRCSNAACNOR6243
012013101578CSNAK12     070CSNA  FM    ON        000R$  000000000002100000000000310000000000019000000000002300000000000230000000000000000000000002600061000000000000618100000000000014378700000000000120002013111800000010000000000000BRCSNAACNOR6243
012013101578CSNAK40     070CSNA  FM    ON        000R$  000000000009800000000001190000000000098000000000011300000000001140000000000000000000000000000035000000000000051000000000000005797300000000000104002013111800000010000000000000BRCSNAACNOR6243
012013101578CSNAK41     070CSNA  FM    ON        000R$  000000000003500000000000500000000000035000000000004400000000000400000000000000000000000000000018000000000000023100000000000001027700000000000115002013111800000010000000000000BRCSNAACNOR6243
012013101578CSNAK42     070CSNA  FM    ON        000R$  000000000000800000000000210000000000008000000000001300000000000090000000000000000000000000000038000000000000098600000000000001284800000000000125002013111800000010000000000000BRCSNAACNOR6243
012013101578CSNAK60     070CSNA        ON        000R$  000000000008000000000000900000000000080000000000008300000000000900000000000000000000000000000002000000000000001500000000000000125000000000000106002013111800000010000000000000BRCSNAACNOR6243
012013101578CSNAK8      070CSNA        ON        000R$  000000000034500000000003450000000000345000000000034500000000003450000000000000000000000000000001000000000000000700000000000000241500000000000078002013111800000010000000000000BRCSNAACNOR6242
012013101578CSNAK96     070CSNA        ON        000R$  000000000018400000000001840000000000184000000000018400000000001840000000000000000000000000000002000000000000002000000000000000368000000000000096002013111800000010000000000000BRCSNAACNOR6243
012013101578CSNAL11     070CSNA  FM    ON        000R$  000000000011100000000001320000000000111000000000012300000000001320000000000000000000000014000019000000000000037600000000000004661300000000000104702013121600000010000000000000BRCSNAACNOR6241
012013101578CSNAL12     070CSNA  FM    ON        000R$  000000000006200000000000680000000000057000000000006500000000000660000000000000000000000008000018000000000000035700000000000002323700000000000114702013121600000010000000000000BRCSNAACNOR6241
012013101578CSNAL2      070CSNA  FM    ON        000R$  000000000002100000000000360000000000019000000000002400000000000220000000000000000000000000000080000000000000168400000000000004042800000000000125002013121600000010000000000000BRCSNAACNOR6243
012013101578CSNAL41     070CSNA  FM    ON        000R$  000000000008100000000000950000000000081000000000008900000000000950000000000000000000000000000012000000000000016200000000000001442400000000000110002013121600000010000000000000BRCSNAACNOR6243
012013101578CSNAL42     070CSNA  FM    ON        000R$  000000000003700000000000500000000000035000000000004200000000000440000000000010000000000000000128000000000000216400000000000009118700000000000119702013121600000010000000000000BRCSNAACNOR6241
012013101582CSNAV10     080CSNAE       ON        000R$  000000000000200000000000020000000000002000000000000200000000000020000000000000000000000000200001000000000000001000000000000000002000000000000100002013102100000010000000000000BRCSNAACNOR6243
012013101582CSNAW10     080CSNAE FM    ON        000R$  000000000001000000000000130000000000006000000000000800000000000070000000000007000000000001400058000000000000077300000000000000678500000000000098002013111800000010000000000000BRCSNAACNOR6242
012013101582CSNAW11     080CSNAE FM    ON        000R$  000000000004100000000000420000000000030000000000003200000000000310000000000030000000000004900077000000000000078500000000000002574200000000000110002013111800000010000000000000BRCSNAACNOR6243
012013101582CSNAW12     080CSNAE       ON        000R$  000000000008000000000000800000000000075000000000007700000000000750000000000068000000000010000005000000000000000500000000000000038900000000000120002013111800000010000000000000BRCSNAACNOR6243
012013101582CSNAW40     080CSNAE FM    ON        000R$  000000000001700000000000180000000000016000000000001700000000000180000000000000000000000000000016000000000000025000000000000000436000000000000104002013111800000010000000000000BRCSNAACNOR6243
012013101582CSNAW41     080CSNAE FM    ON        000R$  000000000006900000000000690000000000049000000000005700000000000520000000000000000000000000000034000000000000065700000000000003779400000000000115002013111800000010000000000000BRCSNAACNOR6243
012013101582CSNAW9      080CSNAE       ON        000R$  000000000000400000000000060000000000004000000000000500000000000060000000000000000000000002200003000000000000002700000000000000014800000000000090002013111800000010000000000000BRCSNAACNOR6243
012013101582CSNAX10     080CSNAE FM    ON        000R$  000000000002400000000000240000000000019000000000002100000000000210000000000016000000000000000023000000000000036000000000000000767400000000000100002013121600000010000000000000BRCSNAACNOR6243
012013101582CSNAX11     080CSNAE FM    ON        000R$  000000000003700000000000370000000000027000000000003200000000000300000000000025000000000000000033000000000000066500000000000002149100000000000104702013121600000010000000000000BRCSNAACNOR6241
012013101582CSNAX12     080CSNAE FM    ON        000R$  000000000007400000000000740000000000062000000000006500000000000630000000000000000000000000000015000000000000028500000000000001859800000000000114702013121600000010000000000000BRCSNAACNOR6241
012013101582CSNAX41     080CSNAE FM    ON        000R$  000000000004400000000000460000000000044000000000004500000000000460000000000000000000000000000003000000000000006000000000000000270500000000000110002013121600000010000000000000BRCSNAACNOR6243
012013101502CTAX11      010CONTAX      UNT     N2   R$  000000000186000000000018850000000001840000000000185200000000018850000000001842000000000188500060000000000000107800000000000199728100000000000000009999123100000010000000000000BRCTAXCDAM19100
012013101596CTAX11F     020CONTAX      UNT     N2   R$  000000000197400000000019740000000001974000000000197400000000019740000000001652000000000197500001000000000000000020000000000000039480000000000000009999123100000010000000000000BRCTAXCDAM19100
012013101502CTAX3       010CONTAX      ON      N2   R$  000000000039800000000003990000000000352000000000038000000000003520000000000352000000000038400023000000000000004100000000000001561700000000000000009999123100000010000000000000BRCTAXACNOR3113
012013101502CTAX4       010CONTAX      PN      N2   R$  000000000036500000000003800000000000365000000000037300000000003790000000000365000000000038500084000000000000031100000000000011602900000000000000009999123100000010000000000000BRCTAXACNPR0114
012013101502CTIP3       010CETIP       ON      NM   R$  000000000234800000000023700000000002339000000000235200000000023580000000002358000000000235907048000000000001821100000000004283888900000000000000009999123100000010000000000000BRCTIPACNOR2120
012013101596CTIP3F      020CETIP       ON      NM   R$  000000000236000000000023920000000002330000000000234500000000023560000000002333000000000239400020000000000000000632000000000001482465000000000000009999123100000010000000000000BRCTIPACNOR2120
012013101562CTIP3T      030CETIP       ON      NM062R$  000000000238300000000023950000000002383000000000238600000000023950000000000000000000000000000006000000000000095200000000000227151205000000000000009999123100000010000000000000BRCTIPACNOR2120
012013101578CTIPK54     070CTIP        ON      NM000R$  000000000002400000000000240000000000024000000000002400000000000240000000000000000000000000000001000000000000006700000000000000160800000000000245002013111800000010000000000000BRCTIPACNOR2120
012013101502CTKA4       010KARSTEN     PN           R$  000000000009900000000000990000000000093000000000009400000000000930000000000093000000000009500023000000000000012500000000000001186100000000000000009999123100000010000000000000BRCTKAACNPR7041
012013101502CTNM4       010COTEMINAS   PN           R$  000000000022600000000002300000000000223000000000022600000000002260000000000224000000000022700019000000000000010000000000000002263500000000000000009999123100000010000000000000BRCTNMACNPR6128
012013101596CTNM4F      020COTEMINAS   PN           R$  000000000024300000000002430000000000243000000000024300000000002430000000000221000000000024300001000000000000000001000000000000000243000000000000009999123100000010000000000000BRCTNMACNPR6128
012013101512CXCE11B     010FII CX CEDAECI      MB   R$  000000019210200000001921210000000192102000000019210700000001921210000000192100000000019388000004000000000000000011000000000002113179000000000000009999123100000010000000000000BRCXCECTF004139
012013101502CYRE3       010CYRELA REALTON      NM   R$  000000000169800000000017050000000001656000000000167200000000016820000000001676000000000168311614000000000003709600000000006203254500000000000000009999123100000010000000000000BRCYREACNOR7125
012013101596CYRE3F      020CYRELA REALTON      NM   R$  000000000172000000000017200000000001652000000000167100000000016740000000001652000000000167000050000000000000001330000000000002223685000000000000009999123100000010000000000000BRCYREACNOR7125
012013101562CYRE3T      030CYRELA REALTON      NM062R$  000000000168800000000016910000000001688000000000168900000000016910000000000000000000000000000004000000000000168000000000000283912429000000000000009999123100000010000000000000BRCYREACNOR7125
012013101578CYREJ16     070CYRE        ON      NM000R$  000000000008300000000000830000000000083000000000008300000000000830000000000000000000000000000011000000000000003200000000000000265600000000000160002013102100000010000000000000BRCYREACNOR7125
