00COTAHIST.2013BOVESPA 20130708                                                                                                                                                                                                                      
012013070802AAPL11B     010APPLE       DRN     MB   R$  000000000941500000000094150000000009415000000000941500000000094150000000009315000000000941500001000000000000000200000000000001883000000000000000009999123100000010000000000000BRAAPLBDR004104
012013070810ABCB2       010ABC BRASIL  DIR PRE N2   R$  000000000018500000000001850000000000161000000000017000000000001610000000000161000000000017000105000000000000030600000000000005224400000000000000009999123100000010000000000000BRABCBD03PR5119
012013070896ABCB2F      020ABC BRASIL  DIR PRE N2   R$  000000000025000000000002500000000000250000000000025000000000002500000000000000000000000025000002000000000000000068000000000000017000000000000000009999123100000010000000000000BRABCBD03PR5119
012013070802ABCB4       010ABC BRASIL  PN  EJS N2   R$  000000000127900000000012790000000001230000000000124000000000012420000000001242000000000124700583000000000000210300000000000260867700000000000000009999123100000010000000000000BRABCBACNPR4120
012013070896ABCB4F      020ABC BRASIL  PN  EJS N2   R$  000000000122200000000012220000000001202000000000121200000000012020000000001202000000000137700002000000000000000060000000000000072720000000000000009999123100000010000000000000BRABCBACNPR4120
012013070812ABCP11      010FII ABC IMOBCI  ER       R$  000000000096000000000009600000000000960000000000096000000000009600000000000901000000000095500001000000000000000007000000000000006720000000000000009999123100000010000000000000BRABCPCTF000213
012013070802ABRE11      010ABRIL EDUCA UNT     N2   R$  000000000380400000000038230000000003775000000000380000000000038200000000003805000000000382000650000000000000285000000000001083108400000000000000009999123100000010000000000000BRABRECDAM15102
012013070896ABRE11F     020ABRIL EDUCA UNT     N2   R$  000000000381600000000038390000000003779000000000380000000000038200000000003790000000000380000009000000000000000442000000000001679804000000000000009999123100000010000000000000BRABRECDAM15102
012013070802ABTT11B     010ABBOTT      DRN     MB   R$  000000000201000000000020100000000002010000000000201000000000020100000000001960000000000201000001000000000000000100000000000000201000000000000000009999123100000010000000000000BRABTTBDR007106
012013070802AEDU3       010ANHANGUERA  ON      NM   R$  000000000122200000000012510000000001202000000000123000000000012400000000001235000000000124106150000000000002635400000000003243950500000000000000009999123100000010000000000000BRAEDUACNOR9107
012013070896AEDU3F      020ANHANGUERA  ON      NM   R$  000000000123300000000012570000000001191000000000122100000000012010000000001201000000000123200020000000000000000785000000000000959067000000000000009999123100000010000000000000BRAEDUACNOR9107
012013070862AEDU3T      030ANHANGUERA  ON      NM030R$  000000000124100000000012420000000001241000000000124100000000012420000000000000000000000000000002000000000000003000000000000003723413000000000000009999123100000010000000000000BRAEDUACNOR9107
012013070878AEDUH12     070AEDU        ON      NM000R$  000000000005300000000000530000000000053000000000005300000000000530000000000000000000000000000003000000000000050000000000000002650000000000000120002013081900000010000000000000BRAEDUACNOR9107
012013070812AEFI11      010FII AESAPAR CI  ER       R$  000000001225000000000122900000000012240000000001225200000000122900000000012240000000001229000039000000000000001961000000000024027285000000000000009999123100000010000000000000BRAEFICTF002119
012013070802AELP3       010AES ELPA    ON           R$  000000000077900000000007790000000000779000000000077900000000007790000000000733000000000078700001000000000000000100000000000000077900000000000000009999123100000010000000000000BRAELPACNOR2119
012013070812AGCX11      010FII AG CAIXACI  ER       R$  000000010010000000001001000000000100100000000010010000000001001000000000099800000000010050000001000000000000000020000000000002002000000000000000009999123100000010000000000000BRAGCXCTF003108
012013070802AGEN11      010AGRENCO     DR3          R$  000000000004400000000000460000000000041000000000004300000000000420000000000041000000000004200257000000000003842100000000000165588700000000000000009999123100000010000000000000BRAGENBDR001100
012013070896AGEN11F     020AGRENCO     DR3          R$  000000000004400000000000440000000000044000000000004400000000000440000000000040000000000005200001000000000000000071000000000000003124000000000000009999123100000010000000000000BRAGENBDR001100
012013070802AGRO3       010BRASILAGRO  ON      NM   R$  000000000105100000000010550000000001000000000000103400000000010000000000000974000000000103300039000000000000024100000000000024939600000000000000009999123100000010000000000000BRAGROACNOR7102
012013070896AGRO3F      020BRASILAGRO  ON      NM   R$  000000000114900000000011490000000001149000000000114900000000011490000000000000000000000114900001000000000000000020000000000000022980000000000000009999123100000010000000000000BRAGROACNOR7102
012013070862AGRO3T      030BRASILAGRO  ON      NM030R$  000000000104900000000010500000000001049000000000104900000000010500000000000000000000000000000002000000000000005000000000000005245078000000000000009999123100000010000000000000BRAGROACNOR7102
012013070862AGRO3T      030BRASILAGRO  ON      NM091R$  000000000102000000000010210000000001020000000000102000000000010210000000000000000000000000000002000000000000002000000000000002040400000000000000009999123100000010000000000000BRAGROACNOR7102
012013070802ALLL3       010ALL AMER LATON      NM   R$  000000000086400000000008870000000000864000000000087400000000008830000000000876000000000088304973000000000006534900000000005711645800000000000000009999123100000010000000000000BRALLLACNOR6118
012013070896ALLL3F      020ALL AMER LATON      NM   R$  000000000089800000000009200000000000852000000000088300000000008710000000000871000000000092000024000000000000000759000000000000670477000000000000009999123100000010000000000000BRALLLACNOR6118
012013070862ALLL3T      030ALL AMER LATON      NM030R$  000000000088800000000008890000000000888000000000088800000000008890000000000000000000000000000002000000000000020000000000000017776556000000000000009999123100000010000000000000BRALLLACNOR6118
012013070802ALPA3       010ALPARGATAS  ON      N1   R$  000000000114400000000011750000000001144000000000115000000000011680000000001108000000000116900005000000000000007600000000000008746100000000000000009999123100000010000000000000BRALPAACNOR0202
012013070896ALPA3F      020ALPARGATAS  ON      N1   R$  000000000114400000000011440000000001144000000000114400000000011440000000001100000000000115000001000000000000000010000000000000011440000000000000009999123100000010000000000000BRALPAACNOR0202
012013070802ALPA4       010ALPARGATAS  PN      N1   R$  000000000138600000000014110000000001383000000000139700000000013950000000001384000000000139700658000000000000395800000000000553066000000000000000009999123100000010000000000000BRALPAACNPR7202
012013070896ALPA4F      020ALPARGATAS  PN      N1   R$  000000000141700000000014170000000001380000000000140000000000013890000000001370000000000140900015000000000000000323000000000000452371000000000000009999123100000010000000000000BRALPAACNPR7202
012013070802ALSC3       010ALIANSCE    ON      NM   R$  000000000180900000000018620000000001800000000000182100000000018100000000001810000000000182501257000000000000445600000000000811782600000000000000009999123100000010000000000000BRALSCACNOR0104
012013070896ALSC3F      020ALIANSCE    ON      NM   R$  000000000183500000000018350000000001762000000000181600000000017620000000001762000000000178000003000000000000000138000000000000250630000000000000009999123100000010000000000000BRALSCACNOR0104
012013070878ALSCH19     070ALSC        ON      NM000R$  000000000004200000000000420000000000042000000000004200000000000420000000000000000000000000000001000000000000015600000000000000655200000000000190002013081900000010000000000000BRALSCACNOR0104
012013070882ALSCT18     080ALSCE       ON      NM000R$  000000000005800000000000580000000000058000000000005800000000000580000000000000000000000000000001000000000000015600000000000000904800000000000180002013081900000010000000000000BRALSCACNOR0104
012013070802ALUP11      010ALUPAR      UNT     N2   R$  000000000184400000000018710000000001828000000000185300000000018500000000001845000000000185300563000000000000162400000000000301012200000000000000009999123100000010000000000000BRALUPCDAM15100
012013070896ALUP11F     020ALUPAR      UNT     N2   R$  000000000184500000000018600000000001840000000000185600000000018510000000001839000000000185100071000000000000002178000000000004043992000000000000009999123100000010000000000000BRALUPCDAM15100
012013070802AMAR3       010LOJAS MARISAON      NM   R$  000000000219200000000022400000000002188000000000220700000000022000000000002199000000000220300479000000000000101800000000000224766500000000000000009999123100000010000000000000BRAMARACNOR4109
012013070896AMAR3F      020LOJAS MARISAON      NM   R$  000000000221200000000022260000000002124000000000220800000000022260000000002180000000000249200004000000000000000136000000000000300296000000000000009999123100000010000000000000BRAMARACNOR4109
012013070878AMARL56     070AMAR        ON      NM000R$  000000000007200000000000720000000000072000000000007200000000000720000000000000000000000000000001000000000000003300000000000000237600000000000265002013121600000010000000000000BRAMARACNOR4109
012013070882AMARX20     080AMARE       ON      NM000R$  000000000008600000000000860000000000086000000000008600000000000860000000000000000000000000000001000000000000003300000000000000283800000000000200002013121600000010000000000000BRAMARACNOR4109
012013070882AMARX22     080AMARE       ON      NM000R$  000000000015000000000001500000000000150000000000015000000000001500000000000000000000000000000001000000000000003300000000000000495000000000000220002013121600000010000000000000BRAMARACNOR4109
012013070802AMBV3       010AMBEV       ON           R$  000000000816500000000082800000000008104000000000817800000000081110000000008111000000000814301475000000000000219800000000001797624300000000000000009999123100000010000000000000BRAMBVACNOR4153
012013070896AMBV3F      020AMBEV       ON           R$  000000000859900000000085990000000008111000000000820900000000081350000000008135000000000817900037000000000000001037000000000008513508000000000000009999123100000010000000000000BRAMBVACNOR4153
012013070862AMBV3T      030AMBEV       ON        016R$  000000000823200000000082330000000008232000000000823200000000082330000000000000000000000000000002000000000000000500000000000004116400000000000000009999123100000010000000000000BRAMBVACNOR4153
012013070802AMBV4       010AMBEV       PN           R$  000000000820000000000083280000000008158000000000823800000000082170000000008192000000000821707038000000000001703300000000014032716400000000000000009999123100000010000000000000BRAMBVACNPR1153
012013070896AMBV4F      020AMBEV       PN           R$  000000000820000000000083110000000008150000000000823200000000081610000000008161000000000819500109000000000000002649000000000021797911000000000000009999123100000010000000000000BRAMBVACNPR1153
012013070878AMBVG88     070AMBV        PN        000R$  000000000000500000000000050000000000005000000000000500000000000050000000000000000000000011400001000000000000000100000000000000000500000000000880002013071500000010000000000000BRAMBVACNPR1153
012013070878AMBVH83     070AMBV        PN        000R$  000000000024800000000003150000000000248000000000027800000000002800000000000000000000000000000007000000000000001500000000000000418300000000000830002013081900000010000000000000BRAMBVACNPR1153
012013070878AMBVH84     070AMBV        PN        000R$  000000000023300000000002330000000000226000000000023100000000002260000000000056000000000030000007000000000000000900000000000000208200000000000840002013081900000010000000000000BRAMBVACNPR1153
012013070878AMBVH85     070AMBV        PN        000R$  000000000016500000000002050000000000165000000000018500000000002050000000000000000000000000000002000000000000000200000000000000037000000000000850002013081900000010000000000000BRAMBVACNPR1153
012013070878AMBVH86     070AMBV        PN        000R$  000000000015600000000001900000000000155000000000015900000000001600000000000000000000000000000029000000000000069800000000000011155300000000000860002013081900000010000000000000BRAMBVACNPR1153
012013070802AMZO11B     010AMAZON      DRN     MB   R$  000000006597000000000659700000000065970000000006597000000000659700000000065004000000006760400002000000000000000200000000000013194000000000000000009999123100000010000000000000BRAMZOBDR002100
012013070802ARTR3       010ARTERIS     ON      NM   R$  000000000200000000000020600000000001983000000000203300000000020330000000002024000000000203302065000000000000771700000000001569257600000000000000009999123100000010000000000000BRARTRACNOR3101
012013070896ARTR3F      020ARTERIS     ON      NM   R$  000000000201400000000020780000000001950000000000204000000000019500000000001950000000000202900063000000000000001706000000000003481864000000000000009999123100000010000000000000BRARTRACNOR3101
012013070802ARZZ3       010AREZZO CO   ON  EJ  NM   R$  000000000325800000000033780000000003237000000000331500000000033780000000003361000000000337801053000000000000190300000000000630958400000000000000009999123100000010000000000000BRARZZACNOR3108
012013070896ARZZ3F      020AREZZO CO   ON  EJ  NM   R$  000000000330000000000033400000000003300000000000332100000000033000000000003100000000000333000005000000000000000309000000000001026232000000000000009999123100000010000000000000BRARZZACNOR3108
012013070802AUTM3       010AUTOMETAL   ON      NM   R$  000000000165000000000016890000000001580000000000161900000000015990000000001599000000000160000528000000000000175500000000000284241300000000000000009999123100000010000000000000BRAUTMACNOR8109
012013070896AUTM3F      020AUTOMETAL   ON      NM   R$  000000000170000000000017000000000001577000000000165400000000015770000000001577000000000181000005000000000000000115000000000000190275000000000000009999123100000010000000000000BRAUTMACNOR8109
012013070802BALM4       010BAUMER      PN           R$  000000000755000000000075500000000007550000000000755000000000075500000000005500000000000900000001000000000000000200000000000001510000000000000000009999123100000010000000000000BRBALMACNPR2043
012013070802BAZA3       010AMAZONIA    ON           R$  000000000003200000000000320000000000032000000000003200000000000320000000000031000000000003300003000000000000006000000000000000192000000000000000009999123100000010000000000000BRBAZAACNOR0163
012013070802BBAS3       010BRASIL      ON      NM   R$  000000000203700000000020750000000002008000000000204400000000020410000000002036000000000204112055000000000005114100000000010457717200000000000000009999123100000010000000000000BRBBASACNOR3237
012013070896BBAS3F      020BRASIL      ON      NM   R$  000000000205000000000020760000000002010000000000204300000000020350000000002035000000000207500182000000000000004932000000000010079147000000000000009999123100000010000000000000BRBBASACNOR3237
012013070862BBAS3T      030BRASIL      ON      NM016R$  000000000206200000000020630000000002054000000000206000000000020550000000000000000000000000000006000000000000009000000000000018542401000000000000009999123100000010000000000000BRBBASACNOR3237
012013070862BBAS3T      030BRASIL      ON      NM030R$  000000000202900000000020300000000002029000000000202900000000020300000000000000000000000000000002000000000000003000000000000006089726000000000000009999123100000010000000000000BRBBASACNOR3237
012013070862BBAS3T      030BRASIL      ON      NM060R$  000000000206900000000020700000000002069000000000206900000000020700000000000000000000000000000002000000000000003000000000000006208650000000000000009999123100000010000000000000BRBBASACNOR3237
012013070862BBAS3T      030BRASIL      ON      NM091R$  000000000207400000000020750000000002074000000000207400000000020750000000000000000000000000000002000000000000004000000000000008298736000000000000009999123100000010000000000000BRBBASACNOR3237
012013070862BBAS3T      030BRASIL      ON      NM120R$  000000000207700000000021230000000002077000000000207800000000021230000000000000000000000000000004000000000000010300000000000021411196000000000000009999123100000010000000000000BRBBASACNOR3237
012013070878BBASG19     070BBAS        ON      NM000R$  000000000015400000000001570000000000154000000000015400000000001570000000000000000000000000000002000000000000004100000000000000635000000000000190002013071500000010000000000000BRBBASACNOR3237
012013070878BBASG20     070BBAS        ON      NM000R$  000000000008000000000000990000000000080000000000009200000000000870000000000035000000000012700008000000000000018400000000000001703600000000000197602013071500000010000000000000BRBBASACNOR3236
012013070878BBASG21     070BBAS        ON      NM000R$  000000000008200000000000950000000000057000000000007900000000000820000000000049000000000011800027000000000000029800000000000002357200000000000199202013071500000010000000000000BRBBASACNOR3232
012013070878BBASG22     070BBAS        ON      NM000R$  000000000001900000000000250000000000013000000000001800000000000140000000000013000000000002500147000000000000156100000000000002884600000000000211702013071500000010000000000000BRBBASACNOR3233
012013070878BBASG23     070BBAS        ON      NM000R$  000000000000200000000000020000000000002000000000000200000000000020000000000000000000000000200007000000000000020300000000000000040600000000000226602013071500000010000000000000BRBBASACNOR3235
012013070878BBASG24     070BBAS        ON      NM000R$  000000000000200000000000020000000000001000000000000100000000000020000000000000000000000000600007000000000000019000000000000000034000000000000231702013071500000010000000000000BRBBASACNOR3233
012013070878BBASG26     070BBAS        ON      NM000R$  000000000000100000000000010000000000001000000000000100000000000010000000000000000000000000100001000000000000002000000000000000002000000000000251702013071500000010000000000000BRBBASACNOR3233
012013070878BBASH18     070BBAS        ON      NM000R$  000000000030000000000003000000000000300000000000030000000000003000000000000000000000000000000001000000000000001000000000000000300000000000000180002013081900000010000000000000BRBBASACNOR3237
012013070878BBASH19     070BBAS        ON      NM000R$  000000000019700000000002070000000000197000000000020300000000001980000000000000000000000000000004000000000000009600000000000001948800000000000190002013081900000010000000000000BRBBASACNOR3237
012013070878BBASH20     070BBAS  FM    ON      NM000R$  000000000013200000000001400000000000113000000000013000000000001260000000000108000000000026500096000000000000098800000000000012910400000000000200002013081900000010000000000000BRBBASACNOR3237
012013070878BBASH21     070BBAS  FM    ON      NM000R$  000000000009100000000000980000000000075000000000008600000000000840000000000070000000000011400317000000000000241700000000000020977700000000000207602013081900000010000000000000BRBBASACNOR3236
012013070878BBASH22     070BBAS  FM    ON      NM000R$  000000000005200000000000550000000000041000000000004900000000000450000000000041000000000005500067000000000000090500000000000004509400000000000217602013081900000010000000000000BRBBASACNOR3236
012013070878BBASH23     070BBAS  FM    ON      NM000R$  000000000002000000000000290000000000020000000000002400000000000260000000000019000000000002700029000000000000013000000000000000320900000000000227602013081900000010000000000000BRBBASACNOR3236
012013070878BBASH24     070BBAS  FM    ON      NM000R$  000000000001500000000000210000000000015000000000001700000000000210000000000014000000000001800081000000000000019600000000000000343600000000000231702013081900000010000000000000BRBBASACNOR3233
012013070878BBASH25     070BBAS        ON      NM000R$  000000000000900000000000110000000000009000000000000900000000000110000000000006000000000001600003000000000000003900000000000000037300000000000241702013081900000010000000000000BRBBASACNOR3233
012013070878BBASH26     070BBAS        ON      NM000R$  000000000000500000000000050000000000005000000000000500000000000050000000000004000000000000500001000000000000000400000000000000002000000000000256602013081900000010000000000000BRBBASACNOR3235
012013070878BBASH27     070BBAS        ON      NM000R$  000000000000300000000000030000000000003000000000000300000000000030000000000002000000000001400001000000000000001000000000000000003000000000000266602013081900000010000000000000BRBBASACNOR3235
012013070878BBASI18     070BBAS        ON      NM000R$  000000000030800000000003090000000000303000000000030700000000003090000000000000000000000000000003000000000000006500000000000001997700000000000180002013091600000010000000000000BRBBASACNOR3237
012013070878BBASI20     070BBAS  FM    ON      NM000R$  000000000014300000000001730000000000143000000000016100000000001560000000000000000000000000000079000000000000074900000000000012065500000000000200002013091600000010000000000000BRBBASACNOR3237
012013070878BBASI21     070BBAS  FM    ON      NM000R$  000000000009600000000001170000000000096000000000010800000000001090000000000000000000000000000060000000000000054300000000000005913100000000000210002013091600000010000000000000BRBBASACNOR3237
012013070878BBASI22     070BBAS  FM    ON      NM000R$  000000000006700000000000820000000000067000000000007500000000000780000000000007000000000009900040000000000000051100000000000003863200000000000217602013091600000010000000000000BRBBASACNOR3236
012013070878BBASI23     070BBAS  FM    ON      NM000R$  000000000003900000000000490000000000038000000000004500000000000480000000000031000000000000000079000000000000034800000000000001585800000000000227602013091600000010000000000000BRBBASACNOR3236
012013070878BBASI24     070BBAS        ON      NM000R$  000000000002400000000000300000000000023000000000002600000000000300000000000018000000000000000010000000000000010200000000000000273700000000000237602013091600000010000000000000BRBBASACNOR3236
012013070878BBASI25     070BBAS        ON      NM000R$  000000000001500000000000180000000000015000000000001600000000000150000000000011000000000000000003000000000000002900000000000000047700000000000246602013091600000010000000000000BRBBASACNOR3235
012013070878BBASL23     070BBAS        ON      NM000R$  000000000009400000000000940000000000091000000000009200000000000910000000000000000000000000000012000000000000030000000000000002785200000000000230002013121600000010000000000000BRBBASACNOR3237
012013070882BBASS19     080BBASE       ON      NM000R$  000000000001500000000000150000000000015000000000001500000000000150000000000000000000000001200001000000000000001200000000000000018000000000000190002013071500000010000000000000BRBBASACNOR3237
012013070882BBASS20     080BBASE       ON      NM000R$  000000000003000000000000300000000000022000000000002300000000000230000000000000000000000013400007000000000000048000000000000001136000000000000197602013071500000010000000000000BRBBASACNOR3236
012013070882BBASS21     080BBASE       ON      NM000R$  000000000002000000000000200000000000020000000000002000000000000200000000000011000000000002600001000000000000001000000000000000020000000000000199202013071500000010000000000000BRBBASACNOR3232
012013070882BBASS22     080BBASE       ON      NM000R$  000000000008200000000000850000000000067000000000007500000000000770000000000042000000000000000007000000000000017500000000000001320000000000000211702013071500000010000000000000BRBBASACNOR3233
012013070882BBASS24     080BBASE       ON      NM000R$  000000000025600000000002560000000000256000000000025600000000002560000000000200000000000000000001000000000000000400000000000000102400000000000231702013071500000010000000000000BRBBASACNOR3233
012013070882BBAST18     080BBASE       ON      NM000R$  000000000002400000000000240000000000024000000000002400000000000240000000000003000000000000000002000000000000002500000000000000060000000000000180002013081900000010000000000000BRBBASACNOR3237
012013070882BBAST19     080BBASE FM    ON      NM000R$  000000000004700000000000470000000000035000000000004000000000000390000000000000000000000000000072000000000000154900000000000006259600000000000190002013081900000010000000000000BRBBASACNOR3237
012013070882BBAST20     080BBASE FM    ON      NM000R$  000000000007900000000000840000000000060000000000006900000000000720000000000055000000000000000096000000000000149600000000000010435300000000000200002013081900000010000000000000BRBBASACNOR3237
012013070882BBAST21     080BBASE FM    ON      NM000R$  000000000011500000000001210000000000092000000000010100000000001060000000000067000000000000000038000000000000082500000000000008389000000000000207602013081900000010000000000000BRBBASACNOR3236
012013070882BBAST22     080BBASE FM    ON      NM000R$  000000000015800000000001840000000000149000000000016200000000001630000000000020000000000030400088000000000000087800000000000014237800000000000217602013081900000010000000000000BRBBASACNOR3236
012013070882BBAST23     080BBASE       ON      NM000R$  000000000025300000000002530000000000253000000000025300000000002530000000000000000000000000000002000000000000006000000000000001518000000000000227602013081900000010000000000000BRBBASACNOR3236
012013070882BBAST24     080BBASE       ON      NM000R$  000000000025000000000002500000000000250000000000025000000000002500000000000000000000000000000001000000000000000400000000000000100000000000000231702013081900000010000000000000BRBBASACNOR3233
012013070882BBASU19     080BBASE FM    ON      NM000R$  000000000006200000000000660000000000052000000000006000000000000520000000000000000000000000000045000000000000013100000000000000789400000000000190002013091600000010000000000000BRBBASACNOR3237
012013070882BBASU20     080BBASE FM    ON      NM000R$  000000000009600000000001020000000000081000000000008900000000000900000000000000000000000000000049000000000000036300000000000003255300000000000200002013091600000010000000000000BRBBASACNOR3237
012013070882BBASU21     080BBASE FM    ON      NM000R$  000000000015000000000001500000000000123000000000013000000000001320000000000000000000000000000067000000000000055900000000000007294200000000000210002013091600000010000000000000BRBBASACNOR3237
012013070882BBASU24     080BBASE       ON      NM000R$  000000000032700000000003270000000000327000000000032700000000003270000000000000000000000000000001000000000000003000000000000000981000000000000237602013091600000010000000000000BRBBASACNOR3236
012013070882BBASU25     080BBASE       ON      NM000R$  000000000039300000000003930000000000393000000000039300000000003930000000000000000000000000000001000000000000003000000000000001179000000000000246602013091600000010000000000000BRBBASACNOR3235
012013070882BBASW21     080BBASE       ON      NM000R$  000000000015300000000001530000000000153000000000015300000000001530000000000000000000000000000001000000000000000700000000000000107100000000000207602013111800000010000000000000BRBBASACNOR3236
012013070802BBDC3       010BRADESCO    ON  EJ  N1   R$  000000000287600000000029280000000002832000000000288000000000028540000000002853000000000285904253000000000001036500000000002985899500000000000000009999123100000010000000000000BRBBDCACNOR1604
012013070896BBDC3F      020BRADESCO    ON  EJ  N1   R$  000000000289300000000029290000000002832000000000288800000000028600000000002860000000000293000036000000000000001167000000000003367459000000000000009999123100000010000000000000BRBBDCACNOR1604
012013070802BBDC4       010BRADESCO    PN  EJ  N1   R$  000000000260700000000026430000000002554000000000261100000000026000000000002600000000000260521665000000000010076900000000026314033800000000000000009999123100000010000000000000BRBBDCACNPR8604
012013070896BBDC4F      020BRADESCO    PN  EJ  N1   R$  000000000262000000000026440000000002560000000000261100000000026000000000002600000000000262000210000000000000005162000000000013481308000000000000009999123100000010000000000000BRBBDCACNPR8604
012013070862BBDC4T      030BRADESCO    PN  EJ  N1016R$  000000000263100000000026320000000002631000000000263100000000026320000000000000000000000000000002000000000000002100000000000005526573000000000000009999123100000010000000000000BRBBDCACNPR8604
012013070862BBDC4T      030BRADESCO    PN  EJ  N1030R$  000000000263700000000026380000000002637000000000263700000000026380000000000000000000000000000002000000000000004000000000000010550216000000000000009999123100000010000000000000BRBBDCACNPR8604
012013070862BBDC4T      030BRADESCO    PN  EJ  N1091R$  000000000263200000000026720000000002632000000000264900000000026720000000000000000000000000000022000000000000050200000000000133017550000000000000009999123100000010000000000000BRBBDCACNPR8604
012013070862BBDC4T      030BRADESCO    PN  EJ  N1120R$  000000000266800000000026690000000002668000000000266800000000026690000000000000000000000000000002000000000000000400000000000001067483000000000000009999123100000010000000000000BRBBDCACNPR8604
012013070878BBDCG25     070BBDC    /EJ PN      N1000R$  000000000014300000000001570000000000141000000000014800000000001570000000000000000000000024800004000000000000009100000000000001355100000000000247802013071500000010000000000000BRBBDCACNPR8601
012013070878BBDCG26     070BBDC    /EJ PN      N1000R$  000000000006600000000000820000000000062000000000007400000000000650000000000065000000000010000015000000000000041200000000000003067000000000000257802013071500000010000000000000BRBBDCACNPR8601
012013070878BBDCG27     070BBDC    /EJ PN      N1000R$  000000000002500000000000350000000000020000000000002700000000000310000000000021000000000003100035000000000000034700000000000000954700000000000267802013071500000010000000000000BRBBDCACNPR8601
012013070878BBDCG28     070BBDC    /EJ PN      N1000R$  000000000000700000000000080000000000007000000000000700000000000080000000000000000000000000800014000000000000086000000000000000608400000000000278002013071500000010000000000000BRBBDCACNPR8602
012013070878BBDCG32     070BBDC    /EJ PN      N1000R$  000000000000100000000000010000000000001000000000000100000000000010000000000000000000000000200002000000000000023000000000000000023000000000000317602013071500000010000000000000BRBBDCACNPR8600
012013070878BBDCH24     070BBDC    /EJ PN      N1000R$  000000000028600000000003100000000000281000000000029100000000003100000000000000000000000000000082000000000000066800000000000019466700000000000238002013081900000010000000000000BRBBDCACNPR8602
012013070878BBDCH25     070BBDC    /EJ PN      N1000R$  000000000021100000000002270000000000207000000000021600000000002270000000000000000000000000000086000000000000066000000000000014319800000000000248002013081900000010000000000000BRBBDCACNPR8602
012013070878BBDCH26     070BBDC    /EJ PN      N1000R$  000000000014800000000001630000000000119000000000014500000000001530000000000000000000000019800150000000000000198700000000000028812600000000000258002013081900000010000000000000BRBBDCACNPR8602
012013070878BBDCH27     070BBDC    /EJ PN      N1000R$  000000000009500000000001070000000000078000000000009600000000000900000000000085000000000013000348000000000000273800000000000026380500000000000268002013081900000010000000000000BRBBDCACNPR8602
012013070878BBDCH28     070BBDC    /EJ PN      N1000R$  000000000005700000000000640000000000041000000000005500000000000410000000000041000000000008800055000000000000078300000000000004323900000000000278002013081900000010000000000000BRBBDCACNPR8602
012013070878BBDCH29     070BBDC    /EJ PN      N1000R$  000000000002700000000000360000000000026000000000003000000000000360000000000000000000000004000017000000000000029000000000000000876200000000000288002013081900000010000000000000BRBBDCACNPR8602
012013070878BBDCH30     070BBDC    /EJ PN      N1000R$  000000000001400000000000200000000000013000000000001600000000000130000000000011000000000002000065000000000000093000000000000001509400000000000298002013081900000010000000000000BRBBDCACNPR8602
012013070878BBDCH31     070BBDC    /EJ PN      N1000R$  000000000000900000000000090000000000004000000000000800000000000080000000000004000000000000900075000000000000101500000000000000844200000000000307602013081900000010000000000000BRBBDCACNPR8600
012013070878BBDCH32     070BBDC    /EJ PN      N1000R$  000000000000400000000000040000000000004000000000000400000000000040000000000002000000000000600001000000000000000300000000000000001200000000000318002013081900000010000000000000BRBBDCACNPR8602
012013070878BBDCH34     070BBDC    /EJ PN      N1000R$  000000000001100000000000110000000000011000000000001100000000000110000000000000000000000002800001000000000000000200000000000000002200000000000305502013081900000010000000000000BRBBDCACNPR8595
012013070878BBDCH35     070BBDC    /EJ PN      N1000R$  000000000000100000000000010000000000001000000000000100000000000010000000000001000000000000000001000000000000000300000000000000000300000000000347802013081900000010000000000000BRBBDCACNPR8601
012013070878BBDCI26     070BBDC    /EJ PN      N1000R$  000000000016500000000001800000000000146000000000017000000000001770000000000100000000000000000093000000000000184600000000000031455600000000000260002013091600000010000000000000BRBBDCACNPR8604
012013070878BBDCI27     070BBDC    /EJ PN      N1000R$  000000000012400000000001420000000000122000000000012900000000001350000000000000000000000000000034000000000000051900000000000006723500000000000268002013091600000010000000000000BRBBDCACNPR8602
012013070878BBDCI28     070BBDC    /EJ PN      N1000R$  000000000008100000000000970000000000081000000000008900000000000900000000000000000000000000000040000000000000047900000000000004298200000000000278002013091600000010000000000000BRBBDCACNPR8602
012013070878BBDCI29     070BBDC    /EJ PN      N1000R$  000000000005300000000000630000000000052000000000005700000000000520000000000000000000000000000025000000000000030400000000000001756400000000000288002013091600000010000000000000BRBBDCACNPR8602
012013070878BBDCI31     070BBDC    /EJ PN      N1000R$  000000000009900000000001150000000000098000000000010600000000001100000000000093000000000000000006000000000000013000000000000001384000000000000273102013091600000010000000000000BRBBDCACNPR8590
012013070882BBDCS22     080BBDCE   /EJ PN      N1000R$  000000000000300000000000030000000000003000000000000300000000000030000000000000000000000000400001000000000000005000000000000000015000000000000220002013071500000010000000000000BRBBDCACNPR8604
012013070882BBDCS23     080BBDCE   /EJ PN      N1000R$  000000000000800000000000080000000000008000000000000800000000000080000000000000000000000000500001000000000000005000000000000000040000000000000230002013071500000010000000000000BRBBDCACNPR8604
012013070882BBDCS25     080BBDCE   /EJ PN      N1000R$  000000000001700000000000170000000000015000000000001600000000000150000000000000000000000000000003000000000000030000000000000000490000000000000247802013071500000010000000000000BRBBDCACNPR8601
012013070882BBDCS26     080BBDCE   /EJ PN      N1000R$  000000000004600000000000460000000000036000000000004100000000000400000000000000000000000000000006000000000000007000000000000000290000000000000257802013071500000010000000000000BRBBDCACNPR8601
012013070882BBDCS27     080BBDCE   /EJ PN      N1000R$  000000000012000000000001200000000000071000000000009600000000000710000000000000000000000016700265000000000000067500000000000006545400000000000267802013071500000010000000000000BRBBDCACNPR8601
012013070882BBDCS29     080BBDCE   /EJ PN      N1000R$  000000000027000000000002700000000000270000000000027000000000002700000000000000000000000037400001000000000000002000000000000000540000000000000288002013071500000010000000000000BRBBDCACNPR8602
012013070882BBDCS30     080BBDCE   /EJ PN      N1000R$  000000000037000000000003700000000000370000000000037000000000003700000000000333000000000000000001000000000000001000000000000000370000000000000297802013071500000010000000000000BRBBDCACNPR8601
012013070882BBDCS31     080BBDCE   /EJ PN      N1000R$  000000000047000000000004700000000000470000000000047000000000004700000000000432000000000000000001000000000000001000000000000000470000000000000307802013071500000010000000000000BRBBDCACNPR8601
012013070882BBDCT23     080BBDCE   /EJ PN      N1000R$  000000000003000000000000300000000000030000000000003000000000000300000000000000000000000006500002000000000000001000000000000000030000000000000229802013081900000010000000000000BRBBDCACNPR8603
012013070882BBDCT24     080BBDCE   /EJ PN      N1000R$  000000000004800000000000520000000000035000000000003700000000000350000000000038000000000000000178000000000000287900000000000010811100000000000238002013081900000010000000000000BRBBDCACNPR8602
012013070882BBDCT25     080BBDCE   /EJ PN      N1000R$  000000000006300000000000790000000000055000000000006000000000000590000000000060000000000007000207000000000000313700000000000019099500000000000248002013081900000010000000000000BRBBDCACNPR8602
012013070882BBDCT26     080BBDCE   /EJ PN      N1000R$  000000000009800000000001200000000000087000000000010000000000000900000000000000000000000000000065000000000000076900000000000007738800000000000258002013081900000010000000000000BRBBDCACNPR8602
012013070882BBDCT27     080BBDCE   /EJ PN      N1000R$  000000000014600000000001760000000000125000000000015300000000001320000000000000000000000016100366000000000000158400000000000024319500000000000268002013081900000010000000000000BRBBDCACNPR8602
012013070882BBDCT28     080BBDCE   /EJ PN      N1000R$  000000000020800000000002390000000000184000000000020900000000001940000000000000000000000000000532000000000000311700000000000065199300000000000278002013081900000010000000000000BRBBDCACNPR8602
012013070882BBDCT29     080BBDCE   /EJ PN      N1000R$  000000000031200000000003120000000000272000000000028800000000002790000000000080000000000000000259000000000000042900000000000012370300000000000288002013081900000010000000000000BRBBDCACNPR8602
012013070882BBDCU23     080BBDCE   /EJ PN      N1000R$  000000000004500000000000450000000000039000000000004100000000000390000000000000000000000000000019000000000000025300000000000001046200000000000230002013091600000010000000000000BRBBDCACNPR8604
012013070882BBDCU24     080BBDCE   /EJ PN      N1000R$  000000000005800000000000580000000000058000000000005800000000000580000000000000000000000000000001000000000000002000000000000000116000000000000240002013091600000010000000000000BRBBDCACNPR8604
012013070882BBDCU25     080BBDCE   /EJ PN      N1000R$  000000000009800000000000980000000000077000000000008300000000000800000000000000000000000000000025000000000000029600000000000002473000000000000250002013091600000010000000000000BRBBDCACNPR8604
012013070882BBDCU26     080BBDCE   /EJ PN      N1000R$  000000000013900000000001440000000000113000000000012400000000001130000000000000000000000000000024000000000000037500000000000004677000000000000260002013091600000010000000000000BRBBDCACNPR8604
012013070882BBDCU27     080BBDCE   /EJ PN      N1000R$  000000000017500000000001880000000000143000000000016300000000001520000000000000000000000000000035000000000000055900000000000009157700000000000268002013091600000010000000000000BRBBDCACNPR8602
012013070812BBFI11B     010FII BB PROGRCI  ER  MB   R$  000000042100000000004300000000000419900000000042046400000004300000000000420100000000043289000014000000000000000058000000000024386918000000000000009999123100000010000000000000BRBBFICTF006196
012013070812BBPO11      010FII BB PRGIICI  ER       R$  000000001095000000000110000000000010950000000001096600000000109500000000010950000000001095100356000000000000015064000000000165192335000000000000009999123100000010000000000000BRBBPOCTF003108
012013070812BBRC11      010FII BB CORP CI  ER       R$  000000001000000000000104370000000009715000000000997400000000100000000000009900000000001000000018000000000000000404000000000004029747000000000000009999123100000010000000000000BRBBRCCTF004122
012013070802BBRK3       010BR BROKERS  ON      NM   R$  000000000057900000000005910000000000564000000000057600000000005660000000000565000000000056603124000000000000957100000000000551481600000000000000009999123100000010000000000000BRBBRKACNOR4108
012013070896BBRK3F      020BR BROKERS  ON      NM   R$  000000000057600000000005820000000000576000000000058100000000005820000000000531000000000064500003000000000000000099000000000000057528000000000000009999123100000010000000000000BRBBRKACNOR4108
012013070862BBRK3T      030BR BROKERS  ON      NM060R$  000000000059400000000005950000000000594000000000059400000000005950000000000000000000000000000002000000000000005600000000000003326886000000000000009999123100000010000000000000BRBBRKACNOR4108
012013070802BBSE3       010BBSEGURIDADEON      NM   R$  000000000175900000000018080000000001749000000000178300000000017900000000001787000000000179009815000000000004159400000000007420325700000000000000009999123100000010000000000000BRBBSEACNOR5100
012013070896BBSE3F      020BBSEGURIDADEON      NM   R$  000000000175000000000018100000000001745000000000178900000000017950000000001786000000000179500919000000000000026663000000000047713279000000000000009999123100000010000000000000BRBBSEACNOR5100
012013070862BBSE3T      030BBSEGURIDADEON      NM030R$  000000000179400000000017950000000001794000000000179400000000017950000000000000000000000000000002000000000000000500000000000000897116000000000000009999123100000010000000000000BRBBSEACNOR5100
012013070862BBSE3T      030BBSEGURIDADEON      NM060R$  000000000179000000000017910000000001790000000000179000000000017910000000000000000000000000000002000000000000020000000000000035802000000000000000009999123100000010000000000000BRBBSEACNOR5100
012013070878BBSEH48     070BBSE        ON      NM000R$  000000000004400000000000440000000000044000000000004400000000000440000000000000000000000000000001000000000000500000000000000022000000000000000185002013081900000010000000000000BRBBSEACNOR5100
012013070878BBSEH49     070BBSE        ON      NM000R$  000000000001300000000000130000000000012000000000001200000000000120000000000000000000000000000002000000000000500000000000000006370000000000000195002013081900000010000000000000BRBBSEACNOR5100
012013070802BBTG11      010BTG PACTUAL UNT          R$  000000000273000000000028090000000002652000000000274000000000027460000000002720000000000274602807000000000000683700000000001873721100000000000000009999123100000010000000000000BRBBTGUNT007104
012013070896BBTG11F     020BTG PACTUAL UNT          R$  000000000270000000000028960000000002679000000000273000000000027970000000002700000000000273300012000000000000000358000000000000977542000000000000009999123100000010000000000000BRBBTGUNT007104
012013070812BBVJ11      010FII C JARDIMCI  ER       R$  000000000810100000000081430000000008100000000000810000000000081000000000008080000000000814000010000000000000001795000000000014540390000000000000009999123100000010000000000000BRBBVJCTF001131
012013070812BCFF11B     010FII BC FFII CI  ER  MB   R$  000000001029900000000102990000000009942000000001010400000000099510000000009951000000000995200065000000000000003112000000000031444791000000000000009999123100000010000000000000BRBCFFCTF000140
012013070896BDLL4F      020BARDELLA    PN           R$  000000000430000000000043000000000004300000000000430000000000043000000000004205000000000430000005000000000000000040000000000000172000000000000000009999123100000010000000000000BRBDLLACNPR8149
012013070802BEEF3       010MINERVA     ON      NM   R$  000000000093400000000009340000000000876000000000089800000000008920000000000891000000000089302533000000000001069100000000000960156300000000000000009999123100000010000000000000BRBEEFACNOR6104
012013070896BEEF3F      020MINERVA     ON      NM   R$  000000000089100000000009440000000000827000000000089700000000008790000000000826000000000094500023000000000000000611000000000000548643000000000000009999123100000010000000000000BRBEEFACNOR6104
012013070802BEES3       010BANESTES    ON  EJ       R$  000000000004800000000000490000000000048000000000004800000000000490000000000048000000000004900005000000000000068900000000000003308200000000000000009999123100000010000000000000BRBEESACNOR9241
012013070802BEES4       010BANESTES    PN  EJ       R$  000000000004400000000000440000000000044000000000004400000000000440000000000042000000000004400002000000000000001800000000000000079200000000000000009999123100000010000000000000BRBEESACNPR6166
012013070802BEMA3       010BEMATECH    ON      NM   R$  000000000065900000000006730000000000659000000000066400000000006600000000000660000000000067100169000000000000062200000000000041323300000000000000009999123100000010000000000000BRBEMAACNOR0113
012013070802BHGR3       010BHG         ON      NM   R$  000000000157000000000015700000000001500000000000151900000000015000000000001500000000000151000129000000000001574600000000002392734900000000000000009999123100000010000000000000BRBHGRACNOR9101
012013070896BHGR3F      020BHG         ON      NM   R$  000000000156700000000015670000000001516000000000155200000000015160000000001402000000000151500002000000000000000100000000000000155221000000000000009999123100000010000000000000BRBHGRACNOR9101
012013070802BICB4       010BICBANCO    PN      N1   R$  000000000040600000000004080000000000397000000000040200000000004020000000000398000000000040200103000000000000042100000000000016939800000000000000009999123100000010000000000000BRBICBACNPR7131
012013070896BICB4F      020BICBANCO    PN      N1   R$  000000000040800000000004080000000000408000000000040800000000004080000000000400000000000042700002000000000000000035000000000000014280000000000000009999123100000010000000000000BRBICBACNPR7131
012013070802BIOM4       010BIOMM       PN           R$  000000000082000000000008200000000000810000000000081700000000008100000000000810000000000084800008000000000000012000000000000009805000000000000000009999123100000010000000000000BRBIOMACNPR9101
012013070802BISA3       010BROOKFIELD  ON      NM   R$  000000000014800000000001550000000000147000000000015100000000001520000000000152000000000015304202000000000010398900000000001572614100000000000000009999123100000010000000000000BRBISAACNOR8109
012013070896BISA3F      020BROOKFIELD  ON      NM   R$  000000000015100000000001540000000000147000000000015100000000001540000000000150000000000015400017000000000000000515000000000000077849000000000000009999123100000010000000000000BRBISAACNOR8109
012013070862BISA3T      030BROOKFIELD  ON      NM030R$  000000000015500000000001560000000000155000000000015500000000001560000000000000000000000000000002000000000000005000000000000000775390000000000000009999123100000010000000000000BRBISAACNOR8109
012013070862BISA3T      030BROOKFIELD  ON      NM060R$  000000000015300000000001540000000000153000000000015300000000001540000000000000000000000000000002000000000000050000000000000007653435000000000000009999123100000010000000000000BRBISAACNOR8109
012013070862BISA3T      030BROOKFIELD  ON      NM091R$  000000000015200000000001570000000000150000000000015200000000001570000000000000000000000000000008000000000001500000000000000228773040000000000000009999123100000010000000000000BRBISAACNOR8109
012013070812BJRC11      010FII JS RECIMCI  ER       R$  000000009400000000000969000000000094000000000009400900000000969000000000093000000000009690000002000000000000000301000000000028296900000000000000009999123100000010000000000000BRBJRCCTF007108
012013070810BMEB2       010MERC BRASIL DIR PRE      R$  000000000000100000000000010000000000001000000000000100000000000010000000000000000000000000100003000000000000022200000000000000022200000000000000009999123100000010000000000000BRBMEBD02PR8189
012013070802BMEB4       010MERC BRASIL PN           R$  000000000112000000000011290000000001108000000000112000000000011240000000001100000000000112500017000000000000011000000000000012323200000000000000009999123100000010000000000000BRBMEBACNPR5190
012013070812BMLC11B     010FII BMBRC LCCI  ER  MB   R$  000000001185000000000118500000000011850000000001185000000000118500000000011700000000001200000001000000000000000100000000000001185000000000000000009999123100000010000000000000BRBMLCCTF004117
012013070812BNFS11      010FII BANRISULCI  ER       R$  000000001029900000000102990000000010299000000001029900000000102990000000009910000000001049800002000000000000000050000000000000514950000000000000009999123100000010000000000000BRBNFSCTF000110
012013070802BOAC11B     010BANK AMERICADRN     MB   R$  000000000301500000000030150000000003015000000000301500000000030150000000002965000000000301500001000000000000000200000000000000603000000000000000009999123100000010000000000000BRBOACBDR004111
012013070802BOBR4       010BOMBRIL     PN           R$  000000000071000000000007100000000000710000000000071000000000007100000000000651000000000070000001000000000000000100000000000000071000000000000000009999123100000010000000000000BRBOBRACNPR3127
012013070814BOVA11      010ISHARES BOVACI           R$  000000000443400000000044890000000004399000000000445100000000044180000000004418000000000441904834000000000002271520000000010111914440000000000000009999123100000010000000000000BRBOVACTF003101
012013070896BOVA11F     020ISHARES BOVACI           R$  000000000443900000000044600000000004439000000000444500000000044400000000004400000000000448600006000000000000000020000000000000088915000000000000009999123100000010000000000000BRBOVACTF003101
012013070812BPFF11      010FII ABSOLUTOCI  ER       R$  000000000859900000000087960000000008500000000000856100000000087960000000008598000000000879600016000000000000001146000000000009811647000000000000009999123100000010000000000000BRBPFFCTF002103
012013070802BPHA3       010BR PHARMA   ON      NM   R$  000000000101800000000010250000000000994000000000101000000000010050000000001005000000000100701396000000000000868000000000000876976100000000000000009999123100000010000000000000BRBPHAACNOR6102
012013070896BPHA3F      020BR PHARMA   ON      NM   R$  000000000102400000000010240000000001000000000000101800000000010190000000000990000000000120000009000000000000000252000000000000256634000000000000009999123100000010000000000000BRBPHAACNOR6102
012013070802BPNM4       010PANAMERICANOPN      N1   R$  000000000051300000000005160000000000506000000000050900000000005080000000000508000000000051100141000000000002052100000000001046564700000000000000009999123100000010000000000000BRBPNMACNPR6111
012013070896BPNM4F      020PANAMERICANOPN      N1   R$  000000000051000000000005100000000000510000000000051000000000005100000000000510000000000069700001000000000000000001000000000000000510000000000000009999123100000010000000000000BRBPNMACNPR6111
012013070862BPNM4T      030PANAMERICANOPN      N1091R$  000000000052500000000005260000000000525000000000052500000000005260000000000000000000000000000002000000000000007000000000000003681066000000000000009999123100000010000000000000BRBPNMACNPR6111
012013070802BRAP3       010BRADESPAR   ON      N1   R$  000000000163100000000016980000000001631000000000167100000000016550000000001621000000000167400012000000000000006200000000000010360200000000000000009999123100000010000000000000BRBRAPACNOR5124
012013070896BRAP3F      020BRADESPAR   ON      N1   R$  000000000163000000000016300000000001630000000000163000000000016300000000001625000000000179800001000000000000000076000000000000123880000000000000009999123100000010000000000000BRBRAPACNOR5124
012013070802BRAP4       010BRADESPAR   PN      N1   R$  000000000199200000000020400000000001986000000000201800000000020150000000002012000000000201504769000000000001177900000000002377607700000000000000009999123100000010000000000000BRBRAPACNPR2124
012013070896BRAP4F      020BRADESPAR   PN      N1   R$  000000000200000000000020400000000002000000000000201700000000020010000000002001000000000204900027000000000000000808000000000001630279000000000000009999123100000010000000000000BRBRAPACNPR2124
012013070812BRCR11      010FII BC FUND CI  ER       R$  000000001378400000000137840000000013649000000001369000000000137100000000013710000000001375001651000000000000011796000000000161497955000000000000009999123100000010000000000000BRBRCRCTF000131
012013070802BRFS3       010BRF SA      ON  EJ  NM   R$  000000000479900000000048050000000004720000000000476300000000047500000000004734000000000475005432000000000001397600000000006657168500000000000000009999123100000010000000000000BRBRFSACNOR8110
012013070896BRFS3F      020BRF SA      ON  EJ  NM   R$  000000000476000000000048000000000004726000000000476700000000047350000000004735000000000480000064000000000000001714000000000008171385000000000000009999123100000010000000000000BRBRFSACNOR8110
012013070862BRFS3T      030BRF SA      ON  EJ  NM030R$  000000000476700000000047680000000004767000000000476700000000047680000000000000000000000000000002000000000000000600000000000002860710000000000000009999123100000010000000000000BRBRFSACNOR8110
012013070878BRFSH49     070BRFS    /EJ ON      NM000R$  000000000008900000000001370000000000089000000000012200000000001370000000000000000000000000000009000000000000004300000000000000528000000000000490002013081900000010000000000000BRBRFSACNOR8110
012013070882BRFSU33     080BRFSE   /EJ ON      NM000R$  000000000000600000000000060000000000006000000000000600000000000060000000000000000000000000000002000000000000300000000000000001800000000000000330002013091600000010000000000000BRBRFSACNOR8110
012013070882BRFSU72     080BRFSE   /EJ ON      NM000R$  000000000006700000000000680000000000067000000000006700000000000680000000000000000000000000000003000000000000300000000000000020310000000000000420002013091600000010000000000000BRBRFSACNOR8110
012013070802BRGE11      010ALFA CONSORCPNE          R$  000000000036000000000003600000000000360000000000036000000000003600000000000350000000000039900001000000000000000200000000000000072000000000000000009999123100000010000000000000BRBRGEACNPE1090
012013070802BRGE12      010ALFA CONSORCPNF          R$  000000000028200000000002820000000000281000000000028100000000002810000000000281000000000034800003000000000000002700000000000000760500000000000000009999123100000010000000000000BRBRGEACNPF8090
012013070896BRGE12F     020ALFA CONSORCPNF          R$  000000000022100000000002210000000000221000000000022100000000002210000000000221000000000000000001000000000000000078000000000000017238000000000000009999123100000010000000000000BRBRGEACNPF8090
012013070802BRGE3       010ALFA CONSORCON           R$  000000000033900000000004000000000000339000000000038900000000004000000000000340000000000040000006000000000000005300000000000002065100000000000000009999123100000010000000000000BRBRGEACNOR6196
012013070896BRGE3F      020ALFA CONSORCON           R$  000000000033700000000003370000000000337000000000033700000000003370000000000338000000000040000002000000000000000036000000000000012132000000000000009999123100000010000000000000BRBRGEACNOR6196
012013070802BRGE5       010ALFA CONSORCPNA          R$  000000000033000000000003300000000000330000000000033000000000003300000000000330000000000039900002000000000000000200000000000000066000000000000000009999123100000010000000000000BRBRGEACNPA9196
012013070802BRIN3       010BR INSURANCEON      NM   R$  000000000211900000000021660000000002073000000000210600000000021280000000002126000000000213902147000000000000450200000000000948520500000000000000009999123100000010000000000000BRBRINACNOR3105
012013070896BRIN3F      020BR INSURANCEON      NM   R$  000000000219500000000021950000000002121000000000216200000000021930000000002100000000000219400007000000000000000178000000000000384946000000000000009999123100000010000000000000BRBRINACNOR3105
012013070802BRIV4       010ALFA INVEST PN           R$  000000000061400000000006140000000000614000000000061400000000006140000000000561000000000061400001000000000000000100000000000000061400000000000000009999123100000010000000000000BRBRIVACNPR3196
012013070802BRKM3       010BRASKEM     ON      N1   R$  000000000124000000000012430000000001240000000000124100000000012420000000001190000000000124200003000000000000000300000000000000372500000000000000009999123100000010000000000000BRBRKMACNOR1110
012013070802BRKM5       010BRASKEM     PNA     N1   R$  000000000161100000000016440000000001581000000000160700000000015810000000001581000000000158405240000000000001248800000000002007191700000000000000009999123100000010000000000000BRBRKMACNPA4110
012013070896BRKM5F      020BRASKEM     PNA     N1   R$  000000000164500000000016780000000001567000000000162000000000015670000000001567000000000167500034000000000000000837000000000001356725000000000000009999123100000010000000000000BRBRKMACNPA4110
012013070862BRKM5T      030BRASKEM     PNA     N1030R$  000000000163400000000016350000000001634000000000163400000000016350000000000000000000000000000008000000000000002000000000000003268722000000000000009999123100000010000000000000BRBRKMACNPA4110
012013070802BRML3       010BR MALLS PARON      NM   R$  000000000188800000000018960000000001852000000000186900000000018600000000001858000000000186010318000000000003729700000000006971675300000000000000009999123100000010000000000000BRBRMLACNOR9105
012013070896BRML3F      020BR MALLS PARON      NM   R$  000000000187000000000019790000000001848000000000186900000000018480000000001831000000000187200122000000000000003587000000000006703868000000000000009999123100000010000000000000BRBRMLACNOR9105
012013070862BRML3T      030BR MALLS PARON      NM030R$  000000000188900000000018900000000001889000000000188900000000018900000000000000000000000000000002000000000000001500000000000002834747000000000000009999123100000010000000000000BRBRMLACNOR9105
012013070802BRPR3       010BR PROPERT  ON      NM   R$  000000000177600000000018330000000001759000000000180700000000018330000000001829000000000183305593000000000004327300000000007822922200000000000000009999123100000010000000000000BRBRPRACNOR9112
012013070896BRPR3F      020BR PROPERT  ON      NM   R$  000000000183000000000019280000000001749000000000182700000000017750000000001775000000000192900034000000000000001050000000000001919376000000000000009999123100000010000000000000BRBRPRACNOR9112
012013070802BRSR3       010BANRISUL    ON      N1   R$  000000000134000000000013400000000001340000000000134000000000013400000000001200000000000140000002000000000000000200000000000000268000000000000000009999123100000010000000000000BRBRSRACNOR3130
012013070802BRSR6       010BANRISUL    PNB     N1   R$  000000000136300000000013870000000001349000000000136800000000013700000000001370000000000137102423000000000000593200000000000811536900000000000000009999123100000010000000000000BRBRSRACNPB4133
012013070896BRSR6F      020BANRISUL    PNB     N1   R$  000000000137000000000013750000000001345000000000136000000000013550000000001355000000000138500022000000000000000592000000000000805703000000000000009999123100000010000000000000BRBRSRACNPB4133
012013070862BRSR6T      030BANRISUL    PNB     N1030R$  000000000136900000000013700000000001369000000000136900000000013700000000000000000000000000000004000000000000001000000000000001369520000000000000009999123100000010000000000000BRBRSRACNPB4133
012013070802BSEV3       010BIOSEV      ON      NM   R$  000000000125200000000012730000000001241000000000125100000000012730000000001273000000000129000011000000000000004900000000000006131100000000000000009999123100000010000000000000BRBSEVACNOR3100
012013070802BTOW3       010B2W DIGITAL ON      NM   R$  000000000079500000000008810000000000795000000000085000000000008450000000000845000000000084602236000000000001007800000000000857486400000000000000009999123100000010000000000000BRBTOWACNOR8105
012013070896BTOW3F      020B2W DIGITAL ON      NM   R$  000000000083500000000008890000000000830000000000085000000000008420000000000800000000000084200032000000000000000956000000000000813276000000000000009999123100000010000000000000BRBTOWACNOR8105
012013070802BTTL4       010BATTISTELLA PN           R$  000000000009500000000000950000000000095000000000009500000000000950000000000092000000000009500008000000000000014200000000000001349000000000000000009999123100000010000000000000BRBTTLACNPR7105
012013070802BVMF3       010BMFBOVESPA  ON      NM   R$  000000000120300000000012410000000001202000000000122200000000012270000000001223000000000122711430000000000005522300000000006751306400000000000000009999123100000010000000000000BRBVMFACNOR3125
012013070896BVMF3F      020BMFBOVESPA  ON      NM   R$  000000000120000000000012400000000001200000000000121800000000012140000000001214000000000122400102000000000000003482000000000004242308000000000000009999123100000010000000000000BRBVMFACNOR3125
012013070862BVMF3T      030BMFBOVESPA  ON      NM030R$  000000000123200000000012330000000001232000000000123200000000012330000000000000000000000000000002000000000000010000000000000012328400000000000000009999123100000010000000000000BRBVMFACNOR3125
012013070878BVMFG10     070BVMF        ON      NM000R$  000000000022500000000002340000000000225000000000023300000000002330000000000000000000000000000005000000000000008300000000000001938500000000000098902013071500000010000000000000BRBVMFACNOR3124
012013070878BVMFG11     070BVMF        ON      NM000R$  000000000012600000000001260000000000126000000000012600000000001260000000000094000000000000000003000000000000007000000000000000882000000000000110002013071500000010000000000000BRBVMFACNOR3125
012013070838BVMFG11E    012BVMF        ON      NM000R$  000000000110000000000011000000000001100000000000110000000000011000000000000000000000000000000001000000000000001000000000000001100000000000000110002013071500000010000000000000BRBVMFACNOR3125
012013070878BVMFG12     070BVMF        ON      NM000R$  000000000004200000000000620000000000042000000000005200000000000540000000000046000000000010000045000000000000034400000000000001815100000000000118902013071500000010000000000000BRBVMFACNOR3124
012013070878BVMFG13     070BVMF        ON      NM000R$  000000000001400000000000140000000000010000000000001100000000000110000000000008000000000001100045000000000000060500000000000000674000000000000126902013071500000010000000000000BRBVMFACNOR3123
012013070878BVMFG14     070BVMF        ON      NM000R$  000000000000100000000000010000000000001000000000000100000000000010000000000000000000000000200011000000000000021800000000000000021800000000000136902013071500000010000000000000BRBVMFACNOR3123
012013070878BVMFG15     070BVMF        ON      NM000R$  000000000000100000000000010000000000001000000000000100000000000010000000000000000000000000100001000000000000000200000000000000000200000000000148902013071500000010000000000000BRBVMFACNOR3124
012013070878BVMFG42     070BVMF        ON      NM000R$  000000000002800000000000360000000000028000000000003400000000000290000000000029000000000000000018000000000000040000000000000001368200000000000121902013071500000010000000000000BRBVMFACNOR3123
012013070878BVMFG50     070BVMF        ON      NM000R$  000000000000400000000000040000000000004000000000000400000000000040000000000000000000000000000002000000000000000300000000000000001200000000000130002013071500000010000000000000BRBVMFACNOR3125
012013070878BVMFH12     070BVMF  FM    ON      NM000R$  000000000007900000000000840000000000070000000000007700000000000740000000000072000000000019700046000000000000096600000000000007523400000000000120002013081900000010000000000000BRBVMFACNOR3125
012013070878BVMFH13     070BVMF  FM    ON      NM000R$  000000000003000000000000330000000000026000000000003100000000000260000000000025000000000003200431000000000000510900000000000016092900000000000128902013081900000010000000000000BRBVMFACNOR3124
012013070878BVMFH14     070BVMF  FM    ON      NM000R$  000000000000900000000000090000000000007000000000000800000000000070000000000006000000000001300005000000000000004500000000000000039900000000000138902013081900000010000000000000BRBVMFACNOR3124
012013070878BVMFH15     070BVMF        ON      NM000R$  000000000000200000000000060000000000002000000000000400000000000050000000000001000000000000500405000000000000454200000000000002079800000000000150002013081900000010000000000000BRBVMFACNOR3125
012013070878BVMFH42     070BVMF  FM    ON      NM000R$  000000000004800000000000530000000000046000000000005000000000000490000000000000000000000000000015000000000000043900000000000002229900000000000125002013081900000010000000000000BRBVMFACNOR3125
012013070878BVMFH43     070BVMF  FM    ON      NM000R$  000000000001200000000000150000000000011000000000001200000000000110000000000005000000000135000018000000000000039900000000000000502100000000000135002013081900000010000000000000BRBVMFACNOR3125
012013070878BVMFH44     070BVMF        ON      NM000R$  000000000000500000000000060000000000005000000000000500000000000060000000000005000000000143900007000000000000017000000000000000092000000000000143902013081900000010000000000000BRBVMFACNOR3124
012013070878BVMFI12     070BVMF  FM    ON      NM000R$  000000000008900000000001020000000000085000000000009000000000001020000000000000000000000000000010000000000000032500000000000002947400000000000120002013091600000010000000000000BRBVMFACNOR3125
012013070878BVMFI13     070BVMF  FM    ON      NM000R$  000000000003900000000000490000000000038000000000004100000000000380000000000025000000000000000033000000000000085700000000000003543300000000000130002013091600000010000000000000BRBVMFACNOR3125
012013070878BVMFI15     070BVMF        ON      NM000R$  000000000000600000000000080000000000006000000000000600000000000060000000000006000000000010000004000000000000024800000000000000168800000000000150002013091600000010000000000000BRBVMFACNOR3125
012013070878BVMFI42     070BVMF  FM    ON      NM000R$  000000000006200000000000710000000000057000000000006200000000000610000000000000000000000000000028000000000000052900000000000003319200000000000125002013091600000010000000000000BRBVMFACNOR3125
012013070878BVMFI43     070BVMF  FM    ON      NM000R$  000000000002400000000000290000000000023000000000002500000000000230000000000000000000000000000061000000000000097400000000000002451900000000000135002013091600000010000000000000BRBVMFACNOR3125
012013070878BVMFI44     070BVMF        ON      NM000R$  000000000000800000000000080000000000008000000000000800000000000080000000000000000000000000000005000000000000018000000000000000144000000000000145002013091600000010000000000000BRBVMFACNOR3125
012013070878BVMFJ15     070BVMF        ON      NM000R$  000000000001200000000000160000000000012000000000001200000000000160000000000012000000000000000002000000000000010000000000000000127200000000000150002013102100000010000000000000BRBVMFACNOR3125
012013070882BVMFS11     080BVMFE       ON      NM000R$  000000000000400000000000050000000000004000000000000400000000000050000000000000000000000000400003000000000000003800000000000000017200000000000110002013071500000010000000000000BRBVMFACNOR3125
012013070882BVMFS12     080BVMFE       ON      NM000R$  000000000001700000000000200000000000017000000000001700000000000200000000000008000000000002500003000000000000002400000000000000041800000000000118902013071500000010000000000000BRBVMFACNOR3124
012013070882BVMFS13     080BVMFE       ON      NM000R$  000000000005500000000000680000000000043000000000005500000000000490000000000040000000000000000030000000000000039900000000000002216600000000000126902013071500000010000000000000BRBVMFACNOR3123
012013070882BVMFS14     080BVMFE       ON      NM000R$  000000000015600000000001560000000000151000000000015300000000001540000000000100000000000000000039000000000000007800000000000001198000000000000136902013071500000010000000000000BRBVMFACNOR3123
012013070882BVMFS15     080BVMFE       ON      NM000R$  000000000024700000000002750000000000247000000000026500000000002750000000000000000000000000000002000000000000000300000000000000079700000000000148902013071500000010000000000000BRBVMFACNOR3124
012013070882BVMFS42     080BVMFE       ON      NM000R$  000000000003300000000000340000000000027000000000003200000000000270000000000000000000000000000014000000000000030300000000000000979800000000000121902013071500000010000000000000BRBVMFACNOR3123
012013070882BVMFT11     080BVMFE       ON      NM000R$  000000000002200000000000220000000000022000000000002200000000000220000000000001000000000007500001000000000000003800000000000000083600000000000110002013081900000010000000000000BRBVMFACNOR3125
012013070882BVMFT12     080BVMFE FM    ON      NM000R$  000000000004700000000000500000000000036000000000004100000000000420000000000035000000000004900089000000000000062300000000000002587300000000000120002013081900000010000000000000BRBVMFACNOR3125
012013070882BVMFT13     080BVMFE FM    ON      NM000R$  000000000009700000000000970000000000086000000000009100000000000860000000000054000000000000000023000000000000062800000000000005718500000000000128902013081900000010000000000000BRBVMFACNOR3124
012013070882BVMFT14     080BVMFE       ON      NM000R$  000000000015600000000001560000000000149000000000015300000000001490000000000000000000000000000003000000000000018000000000000002754000000000000138902013081900000010000000000000BRBVMFACNOR3124
012013070882BVMFT41     080BVMFE FM    ON      NM000R$  000000000002900000000000290000000000023000000000002600000000000260000000000000000000000000000004000000000000009600000000000000249600000000000115002013081900000010000000000000BRBVMFACNOR3125
012013070882BVMFT42     080BVMFE FM    ON      NM000R$  000000000007300000000000730000000000056000000000006200000000000630000000000000000000000000000021000000000000052800000000000003295100000000000125002013081900000010000000000000BRBVMFACNOR3125
012013070882BVMFT43     080BVMFE       ON      NM000R$  000000000012600000000001260000000000122000000000012400000000001220000000000000000000000000000002000000000000012000000000000001488000000000000135002013081900000010000000000000BRBVMFACNOR3125
012013070882BVMFT61     080BVMFE       ON      NM000R$  000000000004000000000000400000000000040000000000004000000000000400000000000000000000000000000001000000000000003000000000000000120000000000000117502013081900000010000000000000BRBVMFACNOR3125
012013070882BVMFU12     080BVMFE FM    ON      NM000R$  000000000005900000000000590000000000047000000000005200000000000480000000000036000000000007400006000000000000013200000000000000688800000000000120002013091600000010000000000000BRBVMFACNOR3125
012013070882BVMFU13     080BVMFE       ON      NM000R$  000000000010800000000001080000000000092000000000010100000000000920000000000000000000000000000041000000000000023700000000000002400300000000000130002013091600000010000000000000BRBVMFACNOR3125
012013070882BVMFU41     080BVMFE FM    ON      NM000R$  000000000003900000000000390000000000036000000000003700000000000360000000000000000000000000000002000000000000004800000000000000180000000000000115002013091600000010000000000000BRBVMFACNOR3125
012013070882BVMFU42     080BVMFE FM    ON      NM000R$  000000000008300000000000830000000000066000000000007200000000000720000000000072000000000000000014000000000000045200000000000003299000000000000125002013091600000010000000000000BRBVMFACNOR3125
012013070802CARD3       010CSU CARDSYSTON      NM   R$  000000000029000000000002900000000000277000000000028200000000002770000000000266000000000027700014000000000000004000000000000001128500000000000000009999123100000010000000000000BRCARDACNOR9105
012013070896CBMA3F      020COBRASMA    ON           R$  000000000000500000000000050000000000005000000000000500000000000050000000000004000000000000500001000000000000000001000000000000000005000000000000009999123100000010000000000000BRCBMAACNOR4124
012013070802CBMA4       010COBRASMA    PN           R$  000000000000300000000000030000000000003000000000000300000000000030000000000003000000000000400002000000000000020000000000000000060000000000000000009999123100000010000000000000BRCBMAACNPR1124
012013070808CCHI3       010CHIARELLI   ON           R$  000000000002000000000000300000000000020000000000002400000000000270000000000027000000000002800042000000000000600000000000000014940000000000000000009999123100000010000000000000BRCCHIACNOR5123
012013070896CCHI3F      020CHIARELLI   ON           R$  000000000002000000000000290000000000020000000000002400000000000290000000000026000000000002900010000000000000014776000000000000363504000000000000009999123100000010000000000000BRCCHIACNOR5123
012013070808CCHI4       010CHIARELLI   PN           R$  000000000002100000000000210000000000021000000000002100000000000210000000000022000000000002400003000000000000030000000000000000630000000000000000009999123100000010000000000000BRCCHIACNPR2122
012013070896CCHI4F      020CHIARELLI   PN           R$  000000000002100000000000210000000000021000000000002100000000000210000000000021000000000002400003000000000000002300000000000000048300000000000000009999123100000010000000000000BRCCHIACNPR2122
012013070802CCPR3       010CYRE COM-CCPON      NM   R$  000000000203700000000021000000000002037000000000209900000000020810000000002080000000000211900013000000000000045600000000000095729200000000000000009999123100000010000000000000BRCCPRACNOR9107
012013070802CCRO3       010CCR SA      ON      NM   R$  000000000169000000000017570000000001685000000000171100000000016940000000001693000000000169408001000000000002518400000000004309161400000000000000009999123100000010000000000000BRCCROACNOR2122
012013070896CCRO3F      020CCR SA      ON      NM   R$  000000000171200000000017540000000001688000000000171000000000016880000000001688000000000174400040000000000000001358000000000002322557000000000000009999123100000010000000000000BRCCROACNOR2122
012013070862CCRO3T      030CCR SA      ON      NM030R$  000000000171400000000017150000000001714000000000171400000000017150000000000000000000000000000002000000000000000900000000000001543442000000000000009999123100000010000000000000BRCCROACNOR2122
012013070878CCROI48     070CCRO        ON      NM000R$  000000000002000000000000200000000000020000000000002000000000000200000000000000000000000000000001000000000000002000000000000000040000000000000185002013091600000010000000000000BRCCROACNOR2122
012013070802CCXC3       010CCX CARVAO  ON      NM   R$  000000000007000000000000760000000000068000000000007300000000000750000000000073000000000007500286000000000001679500000000000122642200000000000000009999123100000010000000000000BRCCXCACNOR5100
012013070896CCXC3F      020CCX CARVAO  ON      NM   R$  000000000007200000000000750000000000066000000000007000000000000710000000000071000000000007200023000000000000000675000000000000048162000000000000009999123100000010000000000000BRCCXCACNOR5100
012013070812CEOC11B     010FII CEO CCP CI  ER  MB   R$  000000000875000000000090000000000008750000000000881300000000089000000000008850000000000890000012000000000000000887000000000007817675000000000000009999123100000010000000000000BRCEOCCTF003108
012013070802CESP3       010CESP        ON      N1   R$  000000000158600000000016050000000001560000000000159600000000015850000000001525000000000161300007000000000000001700000000000002713500000000000000009999123100000010000000000000BRCESPACNOR3159
012013070802CESP6       010CESP        PNB     N1   R$  000000000181300000000019230000000001811000000000188400000000018730000000001873000000000188903241000000000000660300000000001244414200000000000000009999123100000010000000000000BRCESPACNPB4118
012013070896CESP6F      020CESP        PNB     N1   R$  000000000183000000000019290000000001806000000000187700000000018680000000001868000000000192900026000000000000000752000000000001411787000000000000009999123100000010000000000000BRCESPACNPB4118
012013070878CESPH21     070CESP        PNB     N1000R$  000000000005900000000000600000000000059000000000005900000000000600000000000000000000000006500002000000000000000200000000000000011900000000000210002013081900000010000000000000BRCESPACNPB4118
012013070802CGAS3       010COMGAS      ON           R$  000000000447900000000044790000000004479000000000447900000000044790000000004400000000000448000003000000000000000500000000000002239500000000000000009999123100000010000000000000BRCGASACNOR0132
012013070802CGAS5       010COMGAS      PNA          R$  000000000482700000000048660000000004827000000000484600000000048500000000004850000000000486300047000000000000022600000000000109539800000000000000009999123100000010000000000000BRCGASACNPA3129
012013070896CGAS5F      020COMGAS      PNA          R$  000000000485000000000048600000000004850000000000485100000000048550000000004801000000000482500003000000000000000052000000000000252275000000000000009999123100000010000000000000BRCGASACNPA3129
012013070802CGRA4       010GRAZZIOTIN  PN           R$  000000000162500000000016250000000001615000000000161800000000016170000000001600000000000161700009000000000000002100000000000003399800000000000000009999123100000010000000000000BRCGRAACNPR9061
012013070896CGRA4F      020GRAZZIOTIN  PN           R$  000000000160000000000016000000000001600000000000160000000000016000000000001603000000000163500001000000000000000001000000000000001600000000000000009999123100000010000000000000BRCGRAACNPR9061
012013070802CIEL3       010CIELO       ON      NM   R$  000000000560700000000056260000000005520000000000554000000000055500000000005538000000000555004790000000000001699100000000009413770400000000000000009999123100000010000000000000BRCIELACNOR3111
012013070896CIEL3F      020CIELO       ON      NM   R$  000000000559900000000056230000000005519000000000554700000000055350000000005535000000000559900116000000000000003041000000000016868600000000000000009999123100000010000000000000BRCIELACNOR3111
012013070802CLSC4       010CELESC      PN      N2   R$  000000000197200000000019760000000001910000000000195500000000019350000000001935000000000197000102000000000000010500000000000020533600000000000000009999123100000010000000000000BRCLSCACNPR3107
012013070802CMCS11B     010COMCAST     DRN ED  MB   R$  000000000982500000000098250000000009825000000000982500000000098250000000009313000000000982500001000000000000000100000000000000982500000000000000009999123100000010000000000000BRCMCSBDR008106
012013070802CMIG3       010CEMIG       ON      N1   R$  000000000197900000000020710000000001975000000000203500000000020300000000002030000000000204800428000000000000078900000000000160577400000000000000009999123100000010000000000000BRCMIGACNOR6208
012013070896CMIG3F      020CEMIG       ON      N1   R$  000000000209900000000020990000000001961000000000204200000000020490000000002030000000000203900017000000000000000363000000000000741376000000000000009999123100000010000000000000BRCMIGACNOR6208
012013070802CMIG4       010CEMIG       PN      N1   R$  000000000197000000000020350000000001952000000000200700000000019980000000001998000000000199910155000000000002546300000000005112524900000000000000009999123100000010000000000000BRCMIGACNPR3208
012013070896CMIG4F      020CEMIG       PN      N1   R$  000000000199000000000020800000000001962000000000200900000000019800000000001980000000000204300232000000000000006252000000000012562840000000000000009999123100000010000000000000BRCMIGACNPR3208
012013070862CMIG4T      030CEMIG       PN      N1016R$  000000000202300000000020240000000002023000000000202300000000020240000000000000000000000000000002000000000000000500000000000001011732000000000000009999123100000010000000000000BRCMIGACNPR3208
012013070878CMIGG24     070CMIG        PN      N1000R$  000000000003100000000000600000000000025000000000004200000000000550000000000010000000000009000010000000000000004900000000000000206500000000000200002013071500000010000000000000BRCMIGACNPR3207
012013070878CMIGH20     070CMIG        PN      N1000R$  000000000009000000000000900000000000090000000000009000000000000900000000000000000000000000000001000000000000000100000000000000009000000000000200002013081900000010000000000000BRCMIGACNPR3208
012013070812CNES11B     010FII CENESP  CI      MB   R$  000000001230000000000123000000000012280000000001229000000000122850000000012301000000001279000005000000000000000114000000000001401162000000000000009999123100000010000000000000BRCNESCTF001123
012013070802COCA11B     010COCA COLA   DRN     MB   R$  000000000925000000000094250000000009250000000000933700000000094250000000009063000000000942500002000000000000000200000000000001867500000000000000009999123100000010000000000000BRCOCABDR002108
012013070896COCE3F      020COELCE      ON           R$  000000000420000000000042000000000004200000000000420000000000042000000000003508000000000000000001000000000000000025000000000000105000000000000000009999123100000010000000000000BRCOCEACNOR0132
012013070802COCE5       010COELCE      PNA          R$  000000000385200000000038630000000003775000000000382300000000037750000000003775000000000379000110000000000000031400000000000120049800000000000000009999123100000010000000000000BRCOCEACNPA3133
012013070896COCE5F      020COELCE      PNA          R$  000000000393000000000039300000000003800000000000382500000000038200000000003780000000000383800013000000000000000192000000000000734547000000000000009999123100000010000000000000BRCOCEACNPA3133
012013070802COLG11B     010COLGATE     DRN     MB   R$  000000001335500000000133550000000013355000000001335500000000133550000000013103000000001362700001000000000000000100000000000001335500000000000000009999123100000010000000000000BRCOLGBDR000108
012013070802CPFE3       010CPFL ENERGIAON      NM   R$  000000000201500000000020610000000001995000000000203800000000020350000000002034000000000203505942000000000001185600000000002417156800000000000000009999123100000010000000000000BRCPFEACNOR0121
012013070896CPFE3F      020CPFL ENERGIAON      NM   R$  000000000202200000000021780000000001940000000000203200000000019800000000001980000000000218500039000000000000000953000000000001936671000000000000009999123100000010000000000000BRCPFEACNOR0121
012013070802CPLE3       010COPEL       ON      N1   R$  000000000223400000000022430000000002202000000000223200000000022340000000002110000000000223500024000000000000027800000000000062053100000000000000009999123100000010000000000000BRCPLEACNOR8128
012013070896CPLE3F      020COPEL       ON      N1   R$  000000000211000000000021100000000002110000000000211000000000021100000000002110000000000000000001000000000000000003000000000000006330000000000000009999123100000010000000000000BRCPLEACNOR8128
012013070862CPLE3T      030COPEL       ON      N1030R$  000000000224800000000022490000000002248000000000224800000000022490000000000000000000000000000002000000000000022000000000000049457632000000000000009999123100000010000000000000BRCPLEACNOR8128
012013070802CPLE6       010COPEL       PNB     N1   R$  000000000280000000000028550000000002726000000000279300000000027630000000002760000000000276902316000000000000457700000000001278625900000000000000009999123100000010000000000000BRCPLEACNPB9125
012013070896CPLE6F      020COPEL       PNB     N1   R$  000000000280000000000029560000000002719000000000278800000000027200000000002720000000000275000026000000000000000683000000000001900267000000000000009999123100000010000000000000BRCPLEACNPB9125
012013070862CPLE6T      030COPEL       PNB     N1030R$  000000000287100000000028720000000002871000000000287100000000028720000000000000000000000000000002000000000000001500000000000004307745000000000000009999123100000010000000000000BRCPLEACNPB9125
012013070802CRDE3       010CR2         ON      NM   R$  000000000038900000000004000000000000389000000000039200000000004000000000000321000000000041000008000000000000003900000000000001529100000000000000009999123100000010000000000000BRCRDEACNOR1108
012013070802CREM3       010CREMER      ON      NM   R$  000000000140000000000014090000000001400000000000140400000000014090000000001387000000000141000003000000000000092400000000000129810000000000000000009999123100000010000000000000BRCREMACNOR2166
012013070862CREM3T      030CREMER      ON      NM030R$  000000000141800000000014190000000001418000000000141800000000014190000000000000000000000000000002000000000000050000000000000070943150000000000000009999123100000010000000000000BRCREMACNOR2166
012013070802CRIV3       010ALFA FINANC ON           R$  000000000050000000000005940000000000500000000000050300000000005800000000000467000000000058000004000000000000004800000000000002417400000000000000009999123100000010000000000000BRCRIVACNOR4189
012013070802CRIV4       010ALFA FINANC PN           R$  000000000049100000000004910000000000491000000000049100000000004910000000000476000000000049100001000000000000000100000000000000049100000000000000009999123100000010000000000000BRCRIVACNPR1189
012013070802CRUZ3       010SOUZA CRUZ  ON           R$  000000000274000000000028000000000002726000000000275700000000027350000000002734000000000273503662000000000000741800000000002045245800000000000000009999123100000010000000000000BRCRUZACNOR0246
012013070896CRUZ3F      020SOUZA CRUZ  ON           R$  000000000283800000000028380000000002727000000000277100000000027270000000002727000000000281800029000000000000001015000000000002813022000000000000009999123100000010000000000000BRCRUZACNOR0246
012013070862CRUZ3T      030SOUZA CRUZ  ON        030R$  000000000276500000000027660000000002765000000000276500000000027660000000000000000000000000000002000000000000000100000000000000276586000000000000009999123100000010000000000000BRCRUZACNOR0246
012013070802CSAN3       010COSAN       ON      NM   R$  000000000417300000000042600000000004153000000000420300000000042200000000004220000000000423402705000000000000538000000000002261676200000000000000009999123100000010000000000000BRCSANACNOR6107
012013070896CSAN3F      020COSAN       ON      NM   R$  000000000414200000000043530000000004066000000000419900000000040660000000004066000000000435300044000000000000001030000000000004321552000000000000009999123100000010000000000000BRCSANACNOR6107
012013070802CSCO11B     010CISCO       DRN ED  MB   R$  000000000570700000000057070000000005707000000000570700000000057070000000005400000000000570700001000000000000000100000000000000570700000000000000009999123100000010000000000000BRCSCOBDR004110
012013070802CSMG3       010COPASA      ON      NM   R$  000000000321900000000033480000000003219000000000330300000000033050000000003285000000000330501190000000000000175000000000000578086500000000000000009999123100000010000000000000BRCSMGACNOR5127
012013070896CSMG3F      020COPASA      ON      NM   R$  000000000326000000000035000000000003055000000000329200000000030550000000003055000000000350000028000000000000000509000000000001675938000000000000009999123100000010000000000000BRCSMGACNOR5127
012013070814CSMO11      010ISHARES CSMOCI           R$  000000000434100000000044580000000004341000000000439000000000044560000000004350000000000475000005000000000000000470000000000002063470000000000000009999123100000010000000000000BRCSMOCTF002100
012013070802CSNA3       010SID NACIONALON           R$  000000000054000000000005610000000000540000000000055000000000005460000000000546000000000054809870000000000004054800000000002233070000000000000000009999123100000010000000000000BRCSNAACNOR6242
012013070896CSNA3F      020SID NACIONALON           R$  000000000054500000000005700000000000542000000000055000000000005480000000000548000000000057000092000000000000002424000000000001333509000000000000009999123100000010000000000000BRCSNAACNOR6242
012013070862CSNA3T      030SID NACIONALON        060R$  000000000054900000000005670000000000549000000000056100000000005670000000000000000000000000000004000000000000006700000000000003763554000000000000009999123100000010000000000000BRCSNAACNOR6242
012013070862CSNA3T      030SID NACIONALON        120R$  000000000055700000000005620000000000557000000000056000000000005620000000000000000000000000000004000000000000004500000000000002521915000000000000009999123100000010000000000000BRCSNAACNOR6242
012013070862CSNA3T      030SID NACIONALON        150R$  000000000057600000000005790000000000576000000000057800000000005790000000000000000000000000000010000000000000100000000000000057866218000000000000009999123100000010000000000000BRCSNAACNOR6242
012013070878CSNAG56     070CSNA        ON        000R$  000000000001500000000000150000000000015000000000001500000000000150000000000000000000000000000001000000000000012000000000000000180000000000000056002013071500000010000000000000BRCSNAACNOR6242
012013070878CSNAG6      070CSNA        ON        000R$  000000000000300000000000030000000000003000000000000300000000000030000000000001000000000000300001000000000000000500000000000000001500000000000060002013071500000010000000000000BRCSNAACNOR6242
012013070878CSNAG7      070CSNA        ON        000R$  000000000000100000000000010000000000001000000000000100000000000010000000000000000000000000100002000000000000002400000000000000002400000000000070002013071500000010000000000000BRCSNAACNOR6242
012013070878CSNAH54     070CSNA  FM    ON        000R$  000000000004500000000000450000000000045000000000004500000000000450000000000000000000000000000002000000000000007000000000000000315000000000000054002013081900000010000000000000BRCSNAACNOR6242
012013070878CSNAH56     070CSNA  FM    ON        000R$  000000000003500000000000350000000000034000000000003400000000000340000000000000000000000004500007000000000000032000000000000001102000000000000056002013081900000010000000000000BRCSNAACNOR6242
012013070878CSNAH6      070CSNA  FM    ON        000R$  000000000001700000000000170000000000016000000000001600000000000160000000000000000000000001800002000000000000001500000000000000024500000000000060002013081900000010000000000000BRCSNAACNOR6242
012013070878CSNAH62     070CSNA  FM    ON        000R$  000000000001200000000000130000000000012000000000001200000000000130000000000000000000000000000002000000000000002500000000000000030500000000000062002013081900000010000000000000BRCSNAACNOR6242
012013070878CSNAH7      070CSNA        ON        000R$  000000000000300000000000030000000000003000000000000300000000000030000000000000000000000000700001000000000000000500000000000000001500000000000070002013081900000010000000000000BRCSNAACNOR6242
012013070878CSNAH74     070CSNA        ON        000R$  000000000000200000000000020000000000002000000000000200000000000020000000000000000000000000000001000000000000000600000000000000001200000000000074002013081900000010000000000000BRCSNAACNOR6242
012013070878CSNAI54     070CSNA  FM    ON        000R$  000000000005000000000000520000000000050000000000005100000000000520000000000000000000000000000002000000000000007000000000000000357000000000000054002013091600000010000000000000BRCSNAACNOR6242
012013070878CSNAI56     070CSNA  FM    ON        000R$  000000000004000000000000400000000000040000000000004000000000000400000000000000000000000000000001000000000000003500000000000000140000000000000056002013091600000010000000000000BRCSNAACNOR6242
012013070878CSNAI58     070CSNA  FM    ON        000R$  000000000003300000000000330000000000033000000000003300000000000330000000000000000000000000000001000000000000002000000000000000066000000000000058002013091600000010000000000000BRCSNAACNOR6242
012013070882CSNAS54     080CSNAE       ON        000R$  000000000001300000000000130000000000013000000000001300000000000130000000000000000000000000000002000000000000003000000000000000039000000000000054002013071500000010000000000000BRCSNAACNOR6242
012013070882CSNAS7      080CSNAE       ON        000R$  000000000014800000000001490000000000140000000000014600000000001400000000000000000000000000000005000000000000010000000000000001462000000000000070002013071500000010000000000000BRCSNAACNOR6242
012013070882CSNAT58     080CSNAE FM    ON        000R$  000000000005200000000000520000000000043000000000005000000000000430000000000000000000000000000004000000000000010000000000000000502000000000000058002013081900000010000000000000BRCSNAACNOR6242
012013070802CTAX11      010CONTAX      UNT     N2   R$  000000000195000000000019500000000001886000000000189600000000019000000000001900000000000194000029000000000000036600000000000069430100000000000000009999123100000010000000000000BRCTAXCDAM19100
012013070802CTAX4       010CONTAX      PN      N2   R$  000000000035400000000003550000000000339000000000034300000000003410000000000341000000000034400253000000000000046300000000000015882500000000000000009999123100000010000000000000BRCTAXACNPR0114
012013070896CTAX4F      020CONTAX      PN      N2   R$  000000000037900000000003790000000000379000000000037900000000003790000000000332000000000046000001000000000000000025000000000000009475000000000000009999123100000010000000000000BRCTAXACNPR0114
012013070802CTGP11B     010CITIGROUP   DRN     MB   R$  000000001123000000000112300000000011230000000001123000000000112300000000011100000000001123000001000000000000000200000000000002246000000000000000009999123100000010000000000000BRCTGPBDR000110
012013070802CTIP3       010CETIP       ON      NM   R$  000000000214500000000021730000000002121000000000214000000000021450000000002135000000000214506485000000000001370900000000002935007400000000000000009999123100000010000000000000BRCTIPACNOR2119
012013070896CTIP3F      020CETIP       ON      NM   R$  000000000215800000000021980000000002120000000000214400000000021200000000002120000000000219900032000000000000000733000000000001571880000000000000009999123100000010000000000000BRCTIPACNOR2119
012013070802CTNM4       010COTEMINAS   PN           R$  000000000025000000000002500000000000250000000000025000000000002500000000000243000000000025000003000000000000001300000000000000325000000000000000009999123100000010000000000000BRCTNMACNPR6128
012013070802CTSA3       010SANTANENSE  ON           R$  000000000056500000000005650000000000565000000000056500000000005650000000000521000000000056000001000000000000000100000000000000056500000000000000009999123100000010000000000000BRCTSAACNOR3051
012013070802CYRE3       010CYRELA REALTON      NM   R$  000000000153000000000015700000000001509000000000153600000000015310000000001528000000000153108044000000000002325600000000003574382100000000000000009999123100000010000000000000BRCYREACNOR7125
012013070896CYRE3F      020CYRELA REALTON      NM   R$  000000000152800000000015690000000001501000000000154100000000015010000000001501000000000156900017000000000000000586000000000000901760000000000000009999123100000010000000000000BRCYREACNOR7125
012013070878CYREG16     070CYRE        ON      NM000R$  000000000001600000000000160000000000016000000000001600000000000160000000000000000000000000000001000000000000001000000000000000016000000000000160002013071500000010000000000000BRCYREACNOR7125
012013070878CYREH15     070CYRE  FM    ON      NM000R$  000000000008300000000001020000000000083000000000009400000000000980000000000000000000000000000012000000000000031800000000000002996000000000000150002013081900000010000000000000BRCYREACNOR7125
012013070878CYREH16     070CYRE  FM    ON      NM000R$  000000000004800000000000490000000000048000000000004800000000000490000000000000000000000000000002000000000000006000000000000000291000000000000160002013081900000010000000000000BRCYREACNOR7125
012013070878CYREH17     070CYRE  FM    ON      NM000R$  000000000002200000000000220000000000022000000000002200000000000220000000000000000000000000000001000000000000003000000000000000066000000000000170002013081900000010000000000000BRCYREACNOR7125
012013070878CYREH45     070CYRE  FM    ON      NM000R$  000000000006300000000000730000000000057000000000006500000000000680000000000000000000000000000011000000000000035900000000000002355800000000000155002013081900000010000000000000BRCYREACNOR7125
012013070878CYREH46     070CYRE  FM    ON      NM000R$  000000000003100000000000310000000000031000000000003100000000000310000000000000000000000000000001000000000000003000000000000000093000000000000165002013081900000010000000000000BRCYREACNOR7125
012013070878CYREI15     070CYRE  FM    ON      NM000R$  000000000010600000000001230000000000106000000000011300000000001230000000000000000000000000000002000000000000006000000000000000678500000000000150002013091600000010000000000000BRCYREACNOR7125
012013070878CYREI16     070CYRE  FM    ON      NM000R$  000000000005800000000000700000000000058000000000006400000000000700000000000000000000000000000002000000000000006000000000000000384000000000000160002013091600000010000000000000BRCYREACNOR7125
012013070878CYREI17     070CYRE  FM    ON      NM000R$  000000000003400000000000410000000000034000000000003600000000000410000000000000000000000000000003000000000000009500000000000000347000000000000170002013091600000010000000000000BRCYREACNOR7125
012013070878CYREI45     070CYRE  FM    ON      NM000R$  000000000008000000000000940000000000080000000000008400000000000940000000000000000000000000000004000000000000009200000000000000780700000000000155002013091600000010000000000000BRCYREACNOR7125
012013070878CYREI46     070CYRE  FM    ON      NM000R$  000000000004800000000000480000000000045000000000004600000000000450000000000000000000000000000005000000000000013000000000000000609000000000000165002013091600000010000000000000BRCYREACNOR7125
012013070882CYRES16     080CYREE       ON      NM000R$  000000000005100000000000720000000000051000000000005600000000000720000000000000000000000000000002000000000000004000000000000000225000000000000160002013071500000010000000000000BRCYREACNOR7125
012013070882CYRET15     080CYREE FM    ON      NM000R$  000000000005900000000000590000000000046000000000005000000000000460000000000000000000000000000008000000000000021000000000000001053000000000000150002013081900000010000000000000BRCYREACNOR7125
012013070882CYRET16     080CYREE FM    ON      NM000R$  000000000009900000000001080000000000088000000000009500000000000950000000000000000000000000000011000000000000034400000000000003296100000000000160002013081900000010000000000000BRCYREACNOR7125
012013070882CYRET44     080CYREE FM    ON      NM000R$  000000000003000000000000300000000000030000000000003000000000000300000000000000000000000000000001000000000000003000000000000000090000000000000145002013081900000010000000000000BRCYREACNOR7125
012013070882CYRET45     080CYREE FM    ON      NM000R$  000000000007300000000000790000000000062000000000007000000000000670000000000000000000000000000008000000000000026000000000000001834500000000000155002013081900000010000000000000BRCYREACNOR7125
012013070882CYREU15     080CYREE FM    ON      NM000R$  000000000006600000000000660000000000059000000000006100000000000620000000000000000000000000000004000000000000010000000000000000617000000000000150002013091600000010000000000000BRCYREACNOR7125
012013070882CYREU16     080CYREE FM    ON      NM000R$  000000000011900000000001190000000000105000000000011100000000001080000000000000000000000000000003000000000000008500000000000000943500000000000160002013091600000010000000000000BRCYREACNOR7125
012013070882CYREU45     080CYREE FM    ON      NM000R$  000000000008100000000000820000000000081000000000008100000000000820000000000000000000000000000002000000000000005700000000000000464700000000000155002013091600000010000000000000BRCYREACNOR7125
012013070802CZLT11      010COSAN LTD   DR3          R$  000000000356100000000035800000000003550000000000356100000000035600000000003560000000000356800149000000000000084600000000000301300400000000000000009999123100000010000000000000BRCZLTBDR009104
012013070896CZLT11F     020COSAN LTD   DR3          R$  000000000378700000000037870000000003600000000000365000000000036010000000003450000000000430000004000000000000000071000000000000259163000000000000009999123100000010000000000000BRCZLTBDR009104
012013070802DAGB11      010DUFRY AG    DR3          R$  000000002809000000000289990000000027851000000002805100000000281500000000027250000000002815000421000000000000015486000000000434410833000000000000009999123100000010000000000000BRDAGBBDR008100
012013070802DASA3       010DASA        ON      NM   R$  000000000118300000000011990000000001155000000000117900000000011800000000001175000000000118004227000000000001822800000000002149907900000000000000009999123100000010000000000000BRDASAACNOR1108
012013070896DASA3F      020DASA        ON      NM   R$  000000000118500000000012340000000001127000000000118000000000012340000000001170000000000123400018000000000000000541000000000000638899000000000000009999123100000010000000000000BRDASAACNOR1108
012013070878DASAH12     070DASA        ON      NM000R$  000000000003700000000000370000000000037000000000003700000000000370000000000000000000000000000001000000000000004200000000000000155400000000000120002013081900000010000000000000BRDASAACNOR1108
012013070802DAYC4       010DAYCOVAL    PN  EJ  N2   R$  000000000085500000000008690000000000843000000000085100000000008590000000000859000000000086000155000000000000110800000000000094374200000000000000009999123100000010000000000000BRDAYCACNPR2128
