00COTAHIST.2013BOVESPA 20130905                                                                                                                                                                                                                      
012013090502AAPL34      010APPLE       DRN          R$  000000001152700000000115270000000011527000000001152700000000115270000000011425000000001157000001000000000000000100000000000001152700000000000000009999123100000010000000000000BRAAPLBDR004105
012013090502ABCB4       010ABC BRASIL  PN      N2   R$  000000000121500000000012240000000001198000000000121300000000012150000000001215000000000121800276000000000000069700000000000084578600000000000000009999123100000010000000000000BRABCBACNPR4120
012013090596ABCB4F      020ABC BRASIL  PN      N2   R$  000000000120400000000012150000000001196000000000120600000000012050000000001196000000000121800011000000000000000143000000000000172507000000000000009999123100000010000000000000BRABCBACNPR4120
012013090512ABCP11      010FII ABC IMOBCI  ER       R$  000000000096600000000009660000000000965000000000096500000000009650000000000910000000000096500002000000000000000026000000000000025096000000000000009999123100000010000000000000BRABCPCTF000215
012013090502ABRE11      010ABRIL EDUCA UNT     N2   R$  000000000340900000000034420000000003372000000000340500000000034150000000003397000000000341500202000000000000107700000000000366792300000000000000009999123100000010000000000000BRABRECDAM15102
012013090596ABRE11F     020ABRIL EDUCA UNT     N2   R$  000000000340000000000034240000000003399000000000340800000000034240000000003331000000000350000008000000000000000235000000000000800985000000000000009999123100000010000000000000BRABRECDAM15102
012013090502AEDU3       010ANHANGUERA  ON      NM   R$  000000000135300000000013890000000001350000000000137300000000013850000000001380000000000138504546000000000001515300000000002081895300000000000000009999123100000010000000000000BRAEDUACNOR9107
012013090596AEDU3F      020ANHANGUERA  ON      NM   R$  000000000135000000000013980000000001340000000000137100000000013800000000001380000000000140000057000000000000001222000000000001676592000000000000009999123100000010000000000000BRAEDUACNOR9107
012013090512AEFI11      010FII AESAPAR CI  ER       R$  000000001205100000000121010000000012050000000001205900000000121000000000012100000000001219000016000000000000000505000000000006089909000000000000009999123100000010000000000000BRAEFICTF002121
012013090502AELP3       010AES ELPA    ON           R$  000000000085300000000008530000000000801000000000084000000000008530000000000822000000000085400005000000000000000900000000000000756600000000000000009999123100000010000000000000BRAELPACNOR2119
012013090512AGCX11      010FII AG CAIXACI  ER       R$  000000009900000000000990000000000097500000000009850800000000989990000000097500000000009900000008000000000000000059000000000005812000000000000000009999123100000010000000000000BRAGCXCTF003110
012013090502AGRO3       010BRASILAGRO  ON      NM   R$  000000000097000000000009800000000000960000000000096900000000009600000000000960000000000096300094000000000000034400000000000033345800000000000000009999123100000010000000000000BRAGROACNOR7102
012013090562AGRO3T      030BRASILAGRO  ON      NM361R$  000000000107700000000010780000000001077000000000107700000000010780000000000000000000000000000002000000000000001000000000000001077147000000000000009999123100000010000000000000BRAGROACNOR7102
012013090502ALLL3       010ALL AMER LATON      NM   R$  000000000092500000000009310000000000908000000000092000000000009250000000000920000000000092507898000000000004117500000000003788262400000000000000009999123100000010000000000000BRALLLACNOR6118
012013090596ALLL3F      020ALL AMER LATON      NM   R$  000000000091400000000009450000000000904000000000092200000000009120000000000911000000000093900045000000000000001151000000000001061677000000000000009999123100000010000000000000BRALLLACNOR6118
012013090562ALLL3T      030ALL AMER LATON      NM090R$  000000000093200000000009330000000000932000000000093200000000009330000000000000000000000000000002000000000000001000000000000000932064000000000000009999123100000010000000000000BRALLLACNOR6118
012013090512ALMI11B     010FII TORRE ALCI  ER  MB   R$  000000031450000000003145000000000314500000000031450000000003145000000000308041000000031450000001000000000000000002000000000000629000000000000000009999123100000010000000000000BRALMICTF003205
012013090502ALPA3       010ALPARGATAS  ON      N1   R$  000000000110500000000011050000000001104000000000110400000000011040000000001092000000000114600002000000000000000600000000000000662900000000000000009999123100000010000000000000BRALPAACNOR0203
012013090502ALPA4       010ALPARGATAS  PN      N1   R$  000000000127800000000013000000000001268000000000128200000000012800000000001278000000000128202047000000000000556600000000000713646900000000000000009999123100000010000000000000BRALPAACNPR7203
012013090596ALPA4F      020ALPARGATAS  PN      N1   R$  000000000128700000000013550000000001278000000000128500000000013550000000001266000000000130000009000000000000000181000000000000232740000000000000009999123100000010000000000000BRALPAACNPR7203
012013090578ALPAC43     070ALPA        PN      N1000R$  000000000008600000000000860000000000086000000000008600000000000860000000000000000000000000000001000000000000023000000000000001978000000000000135002014031700000010000000000000BRALPAACNPR7203
012013090502ALSC3       010ALIANSCE    ON      NM   R$  000000000183300000000018640000000001820000000000185400000000018620000000001862000000000186502351000000000000559200000000001037206400000000000000009999123100000010000000000000BRALSCACNOR0104
012013090596ALSC3F      020ALIANSCE    ON      NM   R$  000000000185200000000019000000000001852000000000187300000000018530000000001820000000000194500005000000000000000211000000000000395234000000000000009999123100000010000000000000BRALSCACNOR0104
012013090502ALUP11      010ALUPAR      UNT     N2   R$  000000000173700000000017730000000001718000000000174000000000017350000000001735000000000176200274000000000000083100000000000144656600000000000000009999123100000010000000000000BRALUPCDAM15100
012013090596ALUP11F     020ALUPAR      UNT     N2   R$  000000000173200000000017590000000001701000000000172900000000017350000000001735000000000175900022000000000000000533000000000000921826000000000000009999123100000010000000000000BRALUPCDAM15100
012013090562ALUP11T     030ALUPAR      UNT     N2032R$  000000000175400000000017550000000001754000000000175400000000017550000000000000000000000000000002000000000000002000000000000003509580000000000000009999123100000010000000000000BRALUPCDAM15100
012013090502AMAR3       010LOJAS MARISAON      NM   R$  000000000198900000000019890000000001906000000000194200000000019400000000001939000000000194002490000000000000458600000000000891028200000000000000009999123100000010000000000000BRAMARACNOR4109
012013090596AMAR3F      020LOJAS MARISAON      NM   R$  000000000195000000000019500000000001912000000000192600000000019380000000001930000000000199500006000000000000000132000000000000254272000000000000009999123100000010000000000000BRAMARACNOR4109
012013090502AMBV3       010AMBEV       ON           R$  000000000809100000000082000000000008018000000000811800000000082000000000008190000000000820001132000000000000206300000000001675016900000000000000009999123100000010000000000000BRAMBVACNOR4153
012013090596AMBV3F      020AMBEV       ON           R$  000000000820000000000086990000000008021000000000811900000000086990000000008200000000000835000050000000000000001340000000000010880133000000000000009999123100000010000000000000BRAMBVACNOR4153
012013090562AMBV3T      030AMBEV       ON        032R$  000000000810200000000081460000000008102000000000812300000000081460000000000000000000000000000004000000000000002000000000000016247558000000000000009999123100000010000000000000BRAMBVACNOR4153
012013090502AMBV4       010AMBEV       PN           R$  000000000811400000000081850000000008025000000000811300000000081850000000008181000000000818508958000000000001981000000000016073180000000000000000009999123100000010000000000000BRAMBVACNPR1153
012013090596AMBV4F      020AMBEV       PN           R$  000000000811500000000081980000000008021000000000809800000000081870000000008182000000000818700244000000000000006291000000000050958140000000000000009999123100000010000000000000BRAMBVACNPR1153
012013090562AMBV4T      030AMBEV       PN        032R$  000000000809300000000082330000000008091000000000817200000000082330000000000000000000000000000010000000000000003300000000000026967917000000000000009999123100000010000000000000BRAMBVACNPR1153
012013090562AMBV4T      030AMBEV       PN        103R$  000000000830500000000083060000000008305000000000830500000000083060000000000000000000000000000002000000000000000500000000000004152745000000000000009999123100000010000000000000BRAMBVACNPR1153
012013090562AMBV4T      030AMBEV       PN        120R$  000000000827500000000082760000000008275000000000827500000000082760000000000000000000000000000002000000000000001000000000000008275468000000000000009999123100000010000000000000BRAMBVACNPR1153
012013090578AMBVL88     070AMBV        PN        000R$  000000000014800000000001480000000000148000000000014800000000001480000000000000000000000000000002000000000000003100000000000000458800000000000880002013121600000010000000000000BRAMBVACNPR1153
012013090582AMBVX76     080AMBVE       PN        000R$  000000000014200000000001420000000000142000000000014200000000001420000000000000000000000000000002000000000000003100000000000000440200000000000760002013121600000010000000000000BRAMBVACNPR1153
012013090550ARTR11L     017ARTERIS     ON      NM   R$  000000000232700000000023270000000002327000000000232700000000023270000000002327000000000000000024000000000083218831000000193650219737000000000000009999123100000010000000000000BRARTRA01OR4100
012013090502ARTR3       010ARTERIS     ON      NM   R$  000000000180000000000018640000000001770000000000181900000000018000000000001791000000000180002500000000000001399700000000002546926300000000000000009999123100000010000000000000BRARTRACNOR3101
012013090596ARTR3F      020ARTERIS     ON      NM   R$  000000000182800000000018570000000001779000000000182300000000018290000000001801000000000188700055000000000000001376000000000002508830000000000000009999123100000010000000000000BRARTRACNOR3101
012013090562ARTR3T      030ARTERIS     ON      NM018R$  000000000184300000000018460000000001842000000000184300000000018460000000000000000000000000000008000000000000006700000000000012352553000000000000009999123100000010000000000000BRARTRACNOR3101
012013090562ARTR3T      030ARTERIS     ON      NM060R$  000000000186000000000018610000000001860000000000186000000000018610000000000000000000000000000002000000000000001000000000000001860786000000000000009999123100000010000000000000BRARTRACNOR3101
012013090502ARZZ3       010AREZZO CO   ON      NM   R$  000000000348400000000035050000000003457000000000348400000000034800000000003471000000000348000550000000000000118600000000000413240400000000000000009999123100000010000000000000BRARZZACNOR3109
012013090596ARZZ3F      020AREZZO CO   ON      NM   R$  000000000349000000000035200000000003465000000000348500000000035200000000003530000000000359900006000000000000000134000000000000466990000000000000009999123100000010000000000000BRARZZACNOR3109
012013090502AUTM3       010AUTOMETAL   ON      NM   R$  000000000189700000000018980000000001853000000000187600000000018800000000001870000000000188000522000000000000083600000000000156886100000000000000009999123100000010000000000000BRAUTMACNOR8109
012013090502BAHI3       010BAHEMA      ON           R$  000000000049400000000004940000000000492000000000049300000000004930000000000492000000000051000005000000000000000900000000000000443800000000000000009999123100000010000000000000BRBAHIACNOR1066
012013090502BALM4       010BAUMER      PN           R$  000000000950000000000095000000000009500000000000950000000000095000000000008900000000000990000001000000000000000100000000000000950000000000000000009999123100000010000000000000BRBALMACNPR2043
012013090596BAUH4F      020EXCELSIOR   PN           R$  000000000085000000000008500000000000850000000000085000000000008500000000000800000000000093900003000000000000000033000000000000028050000000000000009999123100000010000000000000BRBAUHACNPR3108
012013090502BAZA3       010AMAZONIA    ON           R$  000000000003200000000000320000000000032000000000003200000000000320000000000032000000000003300019000000000000091000000000000002912000000000000000009999123100000010000000000000BRBAZAACNOR0163
012013090562BAZA3T      030AMAZONIA    ON        032R$  000000000003200000000000330000000000032000000000003200000000000330000000000000000000000000000002000000000000010000000000000000322272000000000000009999123100000010000000000000BRBAZAACNOR0163
012013090502BBAS3       010BRASIL      ON      NM   R$  000000000232800000000023580000000002307000000000233200000000023570000000002356000000000235708254000000000008871700000000020689239300000000000000009999123100000010000000000000BRBBASACNOR3238
012013090596BBAS3F      020BRASIL      ON      NM   R$  000000000232100000000023560000000002309000000000233200000000023500000000002345000000000235000300000000000000008520000000000019875738000000000000009999123100000010000000000000BRBBASACNOR3238
012013090562BBAS3T      030BRASIL      ON      NM030R$  000000000232800000000023290000000002328000000000232800000000023290000000000000000000000000000002000000000000010000000000000023288776000000000000009999123100000010000000000000BRBBASACNOR3238
012013090562BBAS3T      030BRASIL      ON      NM032R$  000000000237200000000023730000000002372000000000237200000000023730000000000000000000000000000002000000000000000500000000000001186364000000000000009999123100000010000000000000BRBBASACNOR3238
012013090562BBAS3T      030BRASIL      ON      NM090R$  000000000236000000000023610000000002360000000000236000000000023610000000000000000000000000000002000000000000005500000000000012981019000000000000009999123100000010000000000000BRBBASACNOR3238
012013090578BBASB26     070BBAS        ON      NM000R$  000000000011100000000001110000000000111000000000011100000000001110000000000000000000000000000001000000000000000700000000000000077700000000000252202014021700000010000000000000BRBBASACNOR3237
012013090578BBASI21     070BBAS        ON      NM000R$  000000000030500000000003050000000000305000000000030500000000003050000000000150000000000000000001000000000000002500000000000000762500000000000202202013091600000010000000000000BRBBASACNOR3237
012013090578BBASI22     070BBAS  FM    ON      NM000R$  000000000022300000000002630000000000219000000000023400000000002540000000000200000000000027900111000000000000109800000000000025762800000000000209802013091600000010000000000000BRBBASACNOR3236
012013090578BBASI23     070BBAS  FM    ON      NM000R$  000000000013100000000001680000000000126000000000013800000000001610000000000130000000000000000153000000000000128500000000000017764100000000000219802013091600000010000000000000BRBBASACNOR3236
012013090578BBASI24     070BBAS  FM    ON      NM000R$  000000000005700000000000770000000000049000000000006100000000000720000000000070000000000007800174000000000000258800000000000015948900000000000229802013091600000010000000000000BRBBASACNOR3236
012013090578BBASI25     070BBAS  FM    ON      NM000R$  000000000001300000000000250000000000012000000000001800000000000230000000000016000000000002300095000000000000161600000000000003012700000000000238802013091600000010000000000000BRBBASACNOR3235
012013090578BBASI26     070BBAS  FM    ON      NM000R$  000000000000200000000000040000000000002000000000000200000000000040000000000002000000000000400005000000000000006600000000000000018200000000000248802013091600000010000000000000BRBBASACNOR3235
012013090578BBASJ22     070BBAS  FM    ON      NM000R$  000000000024000000000002710000000000237000000000025000000000002700000000000200000000000000000028000000000000045200000000000011300500000000000212202013102100000010000000000000BRBBASACNOR3237
012013090578BBASJ23     070BBAS  FM    ON      NM000R$  000000000019200000000002140000000000187000000000019800000000002120000000000000000000000000000013000000000000022400000000000004438000000000000218802013102100000010000000000000BRBBASACNOR3235
012013090578BBASJ24     070BBAS  FM    ON      NM000R$  000000000010800000000001330000000000108000000000012200000000001280000000000100000000000015000049000000000000086500000000000010577700000000000229802013102100000010000000000000BRBBASACNOR3236
012013090578BBASJ25     070BBAS  FM    ON      NM000R$  000000000005000000000000650000000000049000000000005600000000000620000000000062000000000010000020000000000000026800000000000001500800000000000242202013102100000010000000000000BRBBASACNOR3237
012013090578BBASJ26     070BBAS  FM    ON      NM000R$  000000000003100000000000380000000000029000000000003100000000000370000000000024000000000004000061000000000000095700000000000002982500000000000248802013102100000010000000000000BRBBASACNOR3235
012013090578BBASJ27     070BBAS        ON      NM000R$  000000000001300000000000130000000000013000000000001300000000000130000000000013000000000002000001000000000000000100000000000000001300000000000258802013102100000010000000000000BRBBASACNOR3235
012013090578BBASJ28     070BBAS        ON      NM000R$  000000000000600000000000060000000000006000000000000600000000000060000000000005000000000000800001000000000000010000000000000000060000000000000272202013102100000010000000000000BRBBASACNOR3237
012013090578BBASJ29     070BBAS        ON      NM000R$  000000000000400000000000040000000000004000000000000400000000000040000000000002000000000000000001000000000000010000000000000000040000000000000278802013102100000010000000000000BRBBASACNOR3235
012013090578BBASK24     070BBAS        ON      NM000R$  000000000012500000000001300000000000125000000000012800000000001290000000000092000000000000000011000000000000015000000000000001920000000000000232202013111800000010000000000000BRBBASACNOR3237
012013090578BBASK25     070BBAS        ON      NM000R$  000000000008800000000000930000000000088000000000009000000000000930000000000016000000000000000002000000000000002700000000000000243600000000000239802013111800000010000000000000BRBBASACNOR3236
012013090578BBASK27     070BBAS        ON      NM000R$  000000000003500000000000350000000000035000000000003500000000000350000000000016000000000000000001000000000000001200000000000000042000000000000259802013111800000010000000000000BRBBASACNOR3236
012013090582BBASU21     080BBASE FM    ON      NM000R$  000000000000100000000000010000000000001000000000000100000000000010000000000001000000000000500005000000000000010500000000000000010500000000000202202013091600000010000000000000BRBBASACNOR3237
012013090582BBASU22     080BBASE FM    ON      NM000R$  000000000000200000000000020000000000002000000000000200000000000020000000000001000000000000300001000000000000000100000000000000000200000000000209802013091600000010000000000000BRBBASACNOR3236
012013090582BBASU23     080BBASE FM    ON      NM000R$  000000000000800000000000090000000000005000000000000700000000000050000000000005000000000002100578000000000000224500000000000001750100000000000219802013091600000010000000000000BRBBASACNOR3236
012013090582BBASU24     080BBASE FM    ON      NM000R$  000000000003200000000000340000000000017000000000002200000000000210000000000017000000000002100081000000000000197200000000000004425800000000000229802013091600000010000000000000BRBBASACNOR3236
012013090582BBASU25     080BBASE       ON      NM000R$  000000000008200000000000820000000000055000000000006200000000000590000000000000000000000006200014000000000000009900000000000000617700000000000238802013091600000010000000000000BRBBASACNOR3235
012013090582BBASV21     080BBASE FM    ON      NM000R$  000000000001500000000000150000000000015000000000001500000000000150000000000000000000000000000001000000000000001200000000000000018000000000000202202013102100000010000000000000BRBBASACNOR3237
012013090582BBASV23     080BBASE FM    ON      NM000R$  000000000004000000000000400000000000030000000000003700000000000300000000000025000000000007000012000000000000016800000000000000629400000000000218802013102100000010000000000000BRBBASACNOR3235
012013090582BBASV24     080BBASE FM    ON      NM000R$  000000000007400000000000740000000000061000000000007000000000000610000000000054000000000000000006000000000000017900000000000001264900000000000229802013102100000010000000000000BRBBASACNOR3236
012013090582BBASV25     080BBASE       ON      NM000R$  000000000012700000000001270000000000120000000000012400000000001200000000000000000000000000000002000000000000003500000000000000434000000000000242202013102100000010000000000000BRBBASACNOR3237
012013090582BBASV26     080BBASE       ON      NM000R$  000000000017500000000001760000000000159000000000017000000000001590000000000000000000000000000003000000000000012000000000000002040000000000000248802013102100000010000000000000BRBBASACNOR3235
012013090582BBASV53     080BBASE       ON      NM000R$  000000000004100000000000410000000000041000000000004100000000000410000000000000000000000000000001000000000000000700000000000000028700000000000223802013102100000010000000000000BRBBASACNOR3235
012013090502BBDC3       010BRADESCO    ON  EJ  N1   R$  000000000314000000000031980000000003136000000000315900000000031880000000003188000000000318906186000000000002792100000000008822100900000000000000009999123100000010000000000000BRBBDCACNOR1606
012013090596BBDC3F      020BRADESCO    ON  EJ  N1   R$  000000000325900000000032980000000003138000000000317900000000031950000000003139000000000329500075000000000000001678000000000005331329000000000000009999123100000010000000000000BRBBDCACNOR1606
012013090562BBDC3T      030BRADESCO    ON  EJ  N1032R$  000000000316800000000031690000000003168000000000316800000000031690000000000000000000000000000002000000000000000220000000000000696992000000000000009999123100000010000000000000BRBBDCACNOR1606
012013090502BBDC4       010BRADESCO    PN  EJ  N1   R$  000000000278000000000028230000000002769000000000279700000000028110000000002809000000000281214911000000000006483600000000018141267700000000000000009999123100000010000000000000BRBBDCACNPR8606
012013090596BBDC4F      020BRADESCO    PN  EJ  N1   R$  000000000278000000000028290000000002766000000000279600000000028130000000002807000000000281800217000000000000005954000000000016654077000000000000009999123100000010000000000000BRBBDCACNPR8606
012013090562BBDC4S      030BRADESCO    PN  EJ  N1090R$  000000000284400000000028450000000002844000000000284400000000028450000000000000000000000000000002000000000000010000000000000028444960000000000000009999123100000010000000000000BRBBDCACNPR8606
012013090562BBDC4T      030BRADESCO    PN  EJ  N1090R$  000000000284400000000028450000000002844000000000284400000000028450000000000000000000000000000002000000000000001000000000000002844875000000000000009999123100000010000000000000BRBBDCACNPR8606
012013090562BBDC4T      030BRADESCO    PN  EJ  N1016R$  000000000279100000000027920000000002791000000000279100000000027920000000000000000000000000000002000000000000002000000000000005583352000000000000009999123100000010000000000000BRBBDCACNPR8606
012013090562BBDC4T      030BRADESCO    PN  EJ  N1018R$  000000000278400000000028220000000002784000000000281300000000028220000000000000000000000000000008000000000000023000000000000064712656000000000000009999123100000010000000000000BRBBDCACNPR8606
012013090562BBDC4T      030BRADESCO    PN  EJ  N1032R$  000000000279600000000028200000000002790000000000279400000000028200000000000000000000000000000018000000000000141000000000000394050511000000000000009999123100000010000000000000BRBBDCACNPR8606
012013090562BBDC4T      030BRADESCO    PN  EJ  N1077R$  000000000283600000000028370000000002836000000000283600000000028370000000000000000000000000000002000000000000001000000000000002836244000000000000009999123100000010000000000000BRBBDCACNPR8606
012013090578BBDCI27     070BBDC    /EJ PN      N1000R$  000000000012700000000001600000000000118000000000013700000000001510000000000111000000000016900091000000000000158900000000000021818200000000000267602013091600000010000000000000BRBBDCACNPR8602
012013090578BBDCI28     070BBDC    /EJ PN      N1000R$  000000000005500000000000780000000000051000000000006700000000000710000000000060000000000007800079000000000000125700000000000008522100000000000277602013091600000010000000000000BRBBDCACNPR8602
012013090578BBDCI29     070BBDC    /EJ PN      N1000R$  000000000001600000000000250000000000015000000000002000000000000210000000000021000000000002500050000000000000100200000000000002078900000000000287602013091600000010000000000000BRBBDCACNPR8602
012013090578BBDCI30     070BBDC    /EJ PN      N1000R$  000000000000500000000000050000000000004000000000000400000000000040000000000004000000000000600008000000000000019600000000000000097800000000000297602013091600000010000000000000BRBBDCACNPR8602
012013090578BBDCI32     070BBDC    /EJ PN      N1000R$  000000000000100000000000010000000000001000000000000100000000000010000000000000000000000000100001000000000000005000000000000000005000000000000317602013091600000010000000000000BRBBDCACNPR8602
012013090578BBDCI81     070BBDC    /EJ PN      N1000R$  000000000000300000000000030000000000003000000000000300000000000030000000000000000000000000300003000000000000013000000000000000039000000000000307602013091600000010000000000000BRBBDCACNPR8602
012013090578BBDCJ26     070BBDC    /EJ PN      N1000R$  000000000024800000000002770000000000238000000000026300000000002690000000000000000000000000000140000000000000155500000000000040919100000000000259602013102100000010000000000000BRBBDCACNPR8604
012013090578BBDCJ27     070BBDC    /EJ PN      N1000R$  000000000018200000000002140000000000177000000000020100000000002060000000000000000000000021500069000000000000082100000000000016526100000000000267602013102100000010000000000000BRBBDCACNPR8602
012013090578BBDCJ29     070BBDC    /EJ PN      N1000R$  000000000007000000000000880000000000067000000000007600000000000850000000000080000000000010000054000000000000097500000000000007479400000000000287602013102100000010000000000000BRBBDCACNPR8602
012013090578BBDCJ30     070BBDC    /EJ PN      N1000R$  000000000003800000000000470000000000037000000000004300000000000470000000000043000000000005500030000000000000043100000000000001875100000000000297602013102100000010000000000000BRBBDCACNPR8602
012013090578BBDCJ31     070BBDC    /EJ PN      N1000R$  000000000002100000000000210000000000018000000000001900000000000190000000000012000000000003800026000000000000085000000000000001620000000000000307602013102100000010000000000000BRBBDCACNPR8602
012013090578BBDCJ32     070BBDC    /EJ PN      N1000R$  000000000001200000000000120000000000012000000000001200000000000120000000000007000000000002200002000000000000006100000000000000073200000000000317602013102100000010000000000000BRBBDCACNPR8602
012013090578BBDCJ58     070BBDC    /EJ PN      N1000R$  000000000011500000000001300000000000108000000000011600000000001280000000000092000000000014900026000000000000046700000000000005427900000000000279802013102100000010000000000000BRBBDCACNPR8605
012013090578BBDCK26     070BBDC    /EJ PN      N1000R$  000000000027500000000002810000000000274000000000027500000000002740000000000000000000000000000011000000000000007400000000000002040600000000000259602013111800000010000000000000BRBBDCACNPR8604
012013090578BBDCK28     070BBDC    /EJ PN      N1000R$  000000000017200000000001770000000000172000000000017400000000001750000000000000000000000000000019000000000000034800000000000006075000000000000277602013111800000010000000000000BRBBDCACNPR8602
012013090578BBDCK30     070BBDC    /EJ PN      N1000R$  000000000007100000000000710000000000071000000000007100000000000710000000000051000000000000000001000000000000000300000000000000021300000000000299802013111800000010000000000000BRBBDCACNPR8605
012013090578BBDCL30     070BBDC    /EJ PN      N1000R$  000000000025400000000002540000000000254000000000025400000000002540000000000000000000000000000001000000000000002000000000000000508000000000000269502013121600000010000000000000BRBBDCACNPR8597
012013090578BBDCL32     070BBDC    /EJ PN      N1000R$  000000000004600000000000460000000000046000000000004600000000000460000000000000000000000000000002000000000000003200000000000000147200000000000317202013121600000010000000000000BRBBDCACNPR8600
012013090582BBDCU26     080BBDCE   /EJ PN      N1000R$  000000000000600000000000060000000000004000000000000400000000000040000000000003000000000001000029000000000000055500000000000000232000000000000259602013091600000010000000000000BRBBDCACNPR8604
012013090582BBDCU27     080BBDCE   /EJ PN      N1000R$  000000000001700000000000170000000000008000000000000900000000000080000000000000000000000007100009000000000000014200000000000000131300000000000267602013091600000010000000000000BRBBDCACNPR8602
012013090582BBDCU28     080BBDCE   /EJ PN      N1000R$  000000000004300000000000480000000000027000000000003700000000000290000000000000000000000000000042000000000000095800000000000003586500000000000277602013091600000010000000000000BRBBDCACNPR8602
012013090582BBDCU29     080BBDCE   /EJ PN      N1000R$  000000000010800000000001120000000000074000000000009100000000000800000000000000000000000000000044000000000000079900000000000007338600000000000287602013091600000010000000000000BRBBDCACNPR8602
012013090582BBDCU58     080BBDCE   /EJ PN      N1000R$  000000000008500000000000850000000000068000000000007200000000000680000000000000000000000000000003000000000000005300000000000000382900000000000284802013091600000010000000000000BRBBDCACNPR8605
012013090582BBDCU75     080BBDCE   /EJ PN      N1000R$  000000000005300000000000530000000000053000000000005300000000000530000000000000000000000000000001000000000000002000000000000000106000000000000282102013091600000010000000000000BRBBDCACNPR8604
012013090582BBDCV25     080BBDCE   /EJ PN      N1000R$  000000000002000000000000200000000000014000000000001900000000000140000000000000000000000000000029000000000000093700000000000001792900000000000249402013102100000010000000000000BRBBDCACNPR8603
012013090582BBDCV26     080BBDCE   /EJ PN      N1000R$  000000000003500000000000370000000000027000000000003100000000000270000000000000000000000000000005000000000000009600000000000000298200000000000259602013102100000010000000000000BRBBDCACNPR8604
012013090582BBDCV27     080BBDCE   /EJ PN      N1000R$  000000000004300000000000430000000000043000000000004300000000000430000000000000000000000000000001000000000000001200000000000000051600000000000267602013102100000010000000000000BRBBDCACNPR8602
012013090582BBDCV28     080BBDCE   /EJ PN      N1000R$  000000000001200000000000120000000000012000000000001200000000000120000000000000000000000000000001000000000000002100000000000000025200000000000245602013102100000010000000000000BRBBDCACNPR8591
012013090582BBDCV58     080BBDCE   /EJ PN      N1000R$  000000000009800000000000980000000000080000000000008400000000000820000000000070000000000000000009000000000000029800000000000002504000000000000279802013102100000010000000000000BRBBDCACNPR8605
012013090512BBFI11B     010FII BB PROGRCI  ER  MB   R$  000000042500000000004250000000000423500000000042421000000004250000000000425000000000043000000005000000000000000019000000000008060006000000000000009999123100000010000000000000BRBBFICTF006198
012013090512BBPO11      010FII BB PRGIICI  ER       R$  000000001099000000000110100000000010950000000001097100000000109500000000010949000000001095000166000000000000019689000000000216013087000000000000009999123100000010000000000000BRBBPOCTF003110
012013090512BBRC11      010FII BB CORP CI  ER       R$  000000000894500000000090980000000008945000000000894800000000089510000000008951000000000909800006000000000000000218000000000001950817000000000000009999123100000010000000000000BRBBRCCTF004124
012013090502BBRK3       010BR BROKERS  ON      NM   R$  000000000055800000000005800000000000556000000000056600000000005760000000000575000000000057602137000000000001006000000000000570387600000000000000009999123100000010000000000000BRBBRKACNOR4108
012013090596BBRK3F      020BR BROKERS  ON      NM   R$  000000000055800000000006030000000000555000000000055800000000006030000000000516000000000055000027000000000000000703000000000000392380000000000000009999123100000010000000000000BRBBRKACNOR4108
012013090502BBSE3       010BBSEGURIDADEON      NM   R$  000000000191100000000019640000000001911000000000194200000000019550000000001955000000000195809167000000000004234200000000008223870000000000000000009999123100000010000000000000BRBBSEACNOR5101
012013090596BBSE3F      020BBSEGURIDADEON      NM   R$  000000000190800000000019630000000001907000000000193900000000019610000000001959000000000196103128000000000000100997000000000195906519000000000000009999123100000010000000000000BRBBSEACNOR5101
012013090578BBSEI20     070BBSE        ON      NM000R$  000000000002000000000000220000000000019000000000002100000000000220000000000000000000000000000003000000000000175000000000000003782500000000000195902013091600000010000000000000BRBBSEACNOR5100
012013090502BBTG11      010BTG PACTUAL UNT          R$  000000000276200000000028250000000002762000000000279600000000028200000000002820000000000282500521000000000000174700000000000488503300000000000000009999123100000010000000000000BRBBTGUNT007105
012013090596BBTG11F     020BTG PACTUAL UNT          R$  000000000279800000000029980000000002696000000000277900000000029980000000002696000000000299800010000000000000000275000000000000764252000000000000009999123100000010000000000000BRBBTGUNT007105
012013090512BBVJ11      010FII C JARDIMCI  ER       R$  000000000749900000000074990000000007435000000000746000000000074350000000007435000000000746900024000000000000002192000000000016353270000000000000009999123100000010000000000000BRBBVJCTF001133
012013090512BCFF11B     010FII BC FFII CI      MB   R$  000000000893000000000089450000000008865000000000890200000000088650000000008870000000000889800058000000000000002295000000000020430979000000000000009999123100000010000000000000BRBCFFCTF000141
012013090502BDLL4       010BARDELLA    PN           R$  000000000520100000000055990000000005201000000000536300000000052550000000005252000000000567000004000000000000000400000000000002145500000000000000009999123100000010000000000000BRBDLLACNPR8149
012013090502BEEF3       010MINERVA     ON      NM   R$  000000000111400000000011230000000001096000000000110500000000011200000000001120000000000112101812000000000000744000000000000822881200000000000000009999123100000010000000000000BRBEEFACNOR6104
012013090596BEEF3F      020MINERVA     ON      NM   R$  000000000109900000000010990000000001099000000000109900000000010990000000001061000000000115000001000000000000000069000000000000075831000000000000009999123100000010000000000000BRBEEFACNOR6104
012013090502BEES3       010BANESTES    ON  EJ       R$  000000000004800000000000500000000000047000000000004800000000000490000000000048000000000004900015000000000000074700000000000003651900000000000000009999123100000010000000000000BRBEESACNOR9244
012013090502BEES4       010BANESTES    PN  EJ       R$  000000000004500000000000450000000000044000000000004400000000000440000000000044000000000004500005000000000000002200000000000000098700000000000000009999123100000010000000000000BRBEESACNPR6169
012013090502BEMA3       010BEMATECH    ON      NM   R$  000000000073800000000007490000000000730000000000074000000000007470000000000742000000000074800443000000000000095700000000000070899300000000000000009999123100000010000000000000BRBEMAACNOR0114
012013090502BGIP4       010BANESE      PN           R$  000000000465000000000046500000000004400000000000463800000000044050000000004404000000000464000007000000000000004200000000000019480500000000000000009999123100000010000000000000BRBGIPACNPR8179
012013090502BHGR3       010BHG         ON      NM   R$  000000000148400000000014840000000001431000000000145000000000014540000000001452000000000145400114000000000000118500000000000171919800000000000000009999123100000010000000000000BRBHGRACNOR9101
012013090596BHGR3F      020BHG         ON      NM   R$  000000000145200000000014520000000001452000000000145200000000014520000000001214000000000145800001000000000000000004000000000000005808000000000000009999123100000010000000000000BRBHGRACNOR9101
012013090502BICB4       010BICBANCO    PN      N1   R$  000000000042000000000004240000000000418000000000041900000000004180000000000418000000000042200048000000000000054700000000000022964900000000000000009999123100000010000000000000BRBICBACNPR7131
012013090596BICB4F      020BICBANCO    PN      N1   R$  000000000042100000000004210000000000421000000000042100000000004210000000000413000000000042100001000000000000000005000000000000002105000000000000009999123100000010000000000000BRBICBACNPR7131
012013090562BICB4T      030BICBANCO    PN      N1151R$  000000000043600000000004370000000000436000000000043600000000004370000000000000000000000000000002000000000000035000000000000015267420000000000000009999123100000010000000000000BRBICBACNPR7131
012013090502BIOM3       010BIOMM       ON           R$  000000000090300000000009030000000000903000000000090300000000009030000000000905000000000091000001000000000000001000000000000000903000000000000000009999123100000010000000000000BRBIOMACNOR2101
012013090596BIOM3F      020BIOMM       ON           R$  000000000085000000000008500000000000850000000000085000000000008500000000000810000000000089800001000000000000000200000000000000170000000000000000009999123100000010000000000000BRBIOMACNOR2101
012013090502BISA3       010BROOKFIELD  ON      NM   R$  000000000018500000000001940000000000185000000000019100000000001930000000000192000000000019305315000000000009769800000000001867372800000000000000009999123100000010000000000000BRBISAACNOR8109
012013090596BISA3F      020BROOKFIELD  ON      NM   R$  000000000018700000000001950000000000186000000000019000000000001920000000000191000000000019500026000000000000000583000000000000110881000000000000009999123100000010000000000000BRBISAACNOR8109
012013090562BISA3T      030BROOKFIELD  ON      NM018R$  000000000019400000000001950000000000194000000000019400000000001950000000000000000000000000000002000000000000008000000000000001558518000000000000009999123100000010000000000000BRBISAACNOR8109
012013090562BISA3T      030BROOKFIELD  ON      NM032R$  000000000019300000000001940000000000193000000000019300000000001940000000000000000000000000000002000000000000015000000000000002901024000000000000009999123100000010000000000000BRBISAACNOR8109
012013090562BISA3T      030BROOKFIELD  ON      NM181R$  000000000020300000000002040000000000203000000000020300000000002040000000000000000000000000000002000000000000005000000000000001017239000000000000009999123100000010000000000000BRBISAACNOR8109
012013090512BJRC11      010FII JS RECIMCI  ER       R$  000000008700000000000870000000000087000000000008700000000000870000000000085200000000009500000001000000000000000071000000000006177000000000000000009999123100000010000000000000BRBJRCCTF007110
012013090502BMIN4       010MERC INVEST PN           R$  000000000002300000000000240000000000023000000000002300000000000240000000000023000000000002400003000000000000012000000000000000283000000000000000009999123100000010000000000000BRBMINACNPR1160
012013090512BMLC11B     010FII BMBRC LCCI      MB   R$  000000001129900000000113000000000011200000000001129000000000112000000000011201000000001129000005000000000000000476000000000005374369000000000000009999123100000010000000000000BRBMLCCTF004118
012013090502BMTO4       010BRASMOTOR   PN           R$  000000000008600000000000870000000000086000000000008600000000000870000000000085000000000008600003000000000000035000000000000003011000000000000000009999123100000010000000000000BRBMTOACNPR6065
012013090502BNBR4       010NORD BRASIL PN           R$  000000000250000000000025000000000002500000000000250000000000025000000000002327000000000260000001000000000000000100000000000000250000000000000000009999123100000010000000000000BRBNBRACNPR5187
012013090512BNFS11      010FII BANRISULCI  ER       R$  000000000999900000000099990000000009995000000000999500000000099950000000009900000000000999500005000000000000000104000000000001039496000000000000009999123100000010000000000000BRBNFSCTF000112
012013090514BOVA11      010ISHARES BOVACI           R$  000000000504200000000051120000000005010000000000506200000000051100000000005070000000000511005633000000000003291440000000016661979700000000000000009999123100000010000000000000BRBOVACTF003101
012013090596BOVA11F     020ISHARES BOVACI           R$  000000000506700000000050930000000004933000000000501400000000050930000000004933000000000510800014000000000000000041000000000000205593000000000000009999123100000010000000000000BRBOVACTF003101
012013090512BPFF11      010FII ABSOLUTOCI  ER       R$  000000000850000000000085250000000008500000000000850300000000085000000000008490000000000850000008000000000000001287000000000010944000000000000000009999123100000010000000000000BRBPFFCTF002105
012013090502BPHA3       010BR PHARMA   ON      NM   R$  000000000086400000000008810000000000863000000000087100000000008750000000000875000000000087601011000000000000593900000000000517294700000000000000009999123100000010000000000000BRBPHAACNOR6102
012013090596BPHA3F      020BR PHARMA   ON      NM   R$  000000000086700000000008670000000000867000000000086700000000008670000000000850000000000087500003000000000000000076000000000000065892000000000000009999123100000010000000000000BRBPHAACNOR6102
012013090502BPNM4       010PANAMERICANOPN      N1   R$  000000000051000000000005180000000000501000000000050900000000005130000000000513000000000051400128000000000000098000000000000049946200000000000000009999123100000010000000000000BRBPNMACNPR6111
012013090596BPNM4F      020PANAMERICANOPN      N1   R$  000000000050600000000005900000000000506000000000050700000000005900000000000498000000000059000007000000000000000102000000000000051798000000000000009999123100000010000000000000BRBPNMACNPR6111
012013090502BRAP3       010BRADESPAR   ON      N1   R$  000000000206000000000020800000000002060000000000207300000000020800000000002055000000000207900003000000000000000300000000000000622000000000000000009999123100000010000000000000BRBRAPACNOR5124
012013090596BRAP3F      020BRADESPAR   ON      N1   R$  000000000206400000000020640000000002050000000000205000000000020500000000002042000000000206500004000000000000000092000000000000188656000000000000009999123100000010000000000000BRBRAPACNOR5124
012013090502BRAP4       010BRADESPAR   PN      N1   R$  000000000255000000000025650000000002515000000000254100000000025430000000002540000000000254306829000000000001602700000000004072929400000000000000009999123100000010000000000000BRBRAPACNPR2124
012013090596BRAP4F      020BRADESPAR   PN      N1   R$  000000000255000000000025880000000002512000000000253900000000025150000000002515000000000259000032000000000000000668000000000001696272000000000000009999123100000010000000000000BRBRAPACNPR2124
012013090562BRAP4T      030BRADESPAR   PN      N1032R$  000000000257000000000025710000000002570000000000257000000000025710000000000000000000000000000002000000000000000500000000000001285060000000000000009999123100000010000000000000BRBRAPACNPR2124
012013090514BRAX11      010ISHARES BRAXCI           R$  000000000405000000000041000000000004050000000000407500000000041000000000000000000000000415000002000000000000002000000000000008150000000000000000009999123100000010000000000000BRBRAXCTF002100
012013090512BRCR11      010FII BC FUND CI           R$  000000001260000000000128000000000012600000000001270500000000126000000000012600000000001262000284000000000000019637000000000249502777000000000000009999123100000010000000000000BRBRCRCTF000132
012013090502BRFS3       010BRF SA      ON      NM   R$  000000000557600000000056190000000005524000000000557500000000056000000000005572000000000560007837000000000001660700000000009259841300000000000000009999123100000010000000000000BRBRFSACNOR8110
012013090596BRFS3F      020BRF SA      ON      NM   R$  000000000556800000000056360000000005440000000000557300000000055900000000005590000000000563600110000000000000003158000000000017598342000000000000009999123100000010000000000000BRBRFSACNOR8110
012013090562BRFS3T      030BRF SA      ON      NM018R$  000000000558600000000055870000000005586000000000558600000000055870000000000000000000000000000002000000000000000200000000000001117384000000000000009999123100000010000000000000BRBRFSACNOR8110
012013090502BRGE5       010ALFA CONSORCPNA          R$  000000000032700000000003270000000000327000000000032700000000003270000000000327000000000000000001000000000000000900000000000000294300000000000000009999123100000010000000000000BRBRGEACNPA9197
012013090502BRGE8       010ALFA CONSORCPND          R$  000000000033300000000003330000000000333000000000033300000000003330000000000333000000000000000001000000000000000500000000000000166500000000000000009999123100000010000000000000BRBRGEACNPD3200
012013090502BRIN3       010BR INSURANCEON      NM   R$  000000000190800000000019200000000001850000000000189500000000019180000000001911000000000192001561000000000000354400000000000671714100000000000000009999123100000010000000000000BRBRINACNOR3106
012013090596BRIN3F      020BR INSURANCEON      NM   R$  000000000189600000000019250000000001860000000000189200000000019250000000001900000000000192500023000000000000000783000000000001482003000000000000009999123100000010000000000000BRBRINACNOR3106
012013090596BRIV3F      020ALFA INVEST ON           R$  000000000057700000000005770000000000577000000000057700000000005770000000000508000000000070000004000000000000000089000000000000051353000000000000009999123100000010000000000000BRBRIVACNOR6197
012013090502BRIV4       010ALFA INVEST PN           R$  000000000057100000000006050000000000571000000000059000000000006050000000000577000000000060200005000000000000005100000000000003013500000000000000009999123100000010000000000000BRBRIVACNPR3197
012013090596BRIV4F      020ALFA INVEST PN           R$  000000000055500000000005550000000000555000000000055500000000005550000000000555000000000059000002000000000000000074000000000000041070000000000000009999123100000010000000000000BRBRIVACNPR3197
012013090502BRKM3       010BRASKEM     ON      N1   R$  000000000126800000000012680000000001264000000000126700000000012670000000001230000000000126700088000000000000012300000000000015587800000000000000009999123100000010000000000000BRBRKMACNOR1110
012013090596BRKM3F      020BRASKEM     ON      N1   R$  000000000125000000000012500000000001250000000000125000000000012500000000001170000000000127700001000000000000000011000000000000013750000000000000009999123100000010000000000000BRBRKMACNOR1110
012013090502BRKM5       010BRASKEM     PNA     N1   R$  000000000182400000000018460000000001805000000000181900000000018250000000001822000000000182509274000000000002865100000000005214150000000000000000009999123100000010000000000000BRBRKMACNPA4110
012013090596BRKM5F      020BRASKEM     PNA     N1   R$  000000000182300000000018480000000001803000000000182500000000018470000000001811000000000184700098000000000000002178000000000003974879000000000000009999123100000010000000000000BRBRKMACNPA4110
012013090562BRKM5T      030BRASKEM     PNA     N1120R$  000000000186600000000018670000000001866000000000186600000000018670000000000000000000000000000002000000000000004000000000000007464486000000000000009999123100000010000000000000BRBRKMACNPA4110
012013090578BRKMA19     070BRKM        PNA     N1000R$  000000000012400000000001240000000000124000000000012400000000001240000000000000000000000000000004000000000000468400000000000058081600000000000190002014012000000010000000000000BRBRKMACNPA4110
012013090578BRKMA21     070BRKM        PNA     N1000R$  000000000004800000000000480000000000048000000000004800000000000480000000000000000000000000000004000000000000468400000000000022483200000000000210002014012000000010000000000000BRBRKMACNPA4110
012013090578BRKMK50     070BRKM        PNA     N1000R$  000000000002800000000000280000000000026000000000002700000000000260000000000000000000000000000002000000000001430000000000000039240000000000000205002013111800000010000000000000BRBRKMACNPA4110
012013090582BRKMM17     080BRKME       PNA     N1000R$  000000000006600000000000730000000000066000000000006900000000000690000000000000000000000000000007000000000000468400000000000032371800000000000170002014012000000010000000000000BRBRKMACNPA4110
012013090582BRKMW16     080BRKME       PNA     N1000R$  000000000002400000000000240000000000024000000000002400000000000240000000000000000000000000000002000000000001430000000000000034320000000000000160002013111800000010000000000000BRBRKMACNPA4110
012013090582BRKMW47     080BRKME       PNA     N1000R$  000000000006100000000000610000000000061000000000006100000000000610000000000000000000000000000002000000000001430000000000000087230000000000000175002013111800000010000000000000BRBRKMACNPA4110
012013090502BRML3       010BR MALLS PARON      NM   R$  000000000184300000000018760000000001812000000000184800000000018740000000001863000000000187406213000000000002383300000000004405594300000000000000009999123100000010000000000000BRBRMLACNOR9105
012013090596BRML3F      020BR MALLS PARON      NM   R$  000000000185000000000018800000000001816000000000184400000000018600000000001830000000000188500053000000000000001688000000000003114154000000000000009999123100000010000000000000BRBRMLACNOR9105
012013090562BRML3T      030BR MALLS PARON      NM032R$  000000000183200000000018860000000001832000000000187300000000018860000000000000000000000000000024000000000000013600000000000025476507000000000000009999123100000010000000000000BRBRMLACNOR9105
012013090502BRPR3       010BR PROPERT  ON      NM   R$  000000000180500000000018140000000001795000000000180000000000018000000000001797000000000180006838000000000005040100000000009075212300000000000000009999123100000010000000000000BRBRPRACNOR9112
012013090596BRPR3F      020BR PROPERT  ON      NM   R$  000000000183500000000018900000000001781000000000180600000000018900000000001806000000000188500036000000000000000990000000000001788550000000000000009999123100000010000000000000BRBRPRACNOR9112
012013090502BRSR6       010BANRISUL    PNB EJ  N1   R$  000000000144900000000014820000000001425000000000145700000000014820000000001469000000000148202471000000000000533700000000000778247000000000000000009999123100000010000000000000BRBRSRACNPB4134
012013090596BRSR6F      020BANRISUL    PNB EJ  N1   R$  000000000150000000000015990000000001428000000000145300000000014520000000001452000000000183500055000000000000001656000000000002407158000000000000009999123100000010000000000000BRBRSRACNPB4134
012013090502BSEV3       010BIOSEV      ON      NM   R$  000000000092000000000009450000000000913000000000093000000000009450000000000925000000000094500013000000000000006700000000000006232100000000000000009999123100000010000000000000BRBSEVACNOR3100
012013090502BTOW3       010B2W DIGITAL ON      NM   R$  000000000148200000000015450000000001461000000000150300000000015200000000001518000000000152001869000000000000558600000000000840031500000000000000009999123100000010000000000000BRBTOWACNOR8105
012013090596BTOW3F      020B2W DIGITAL ON      NM   R$  000000000147500000000015400000000001421000000000151100000000015390000000001425000000000153900042000000000000001294000000000001958021000000000000009999123100000010000000000000BRBTOWACNOR8105
012013090502BTTL4       010BATTISTELLA PN           R$  000000000010100000000001100000000000100000000000010400000000001070000000000104000000000010600043000000000000225100000000000023445200000000000000009999123100000010000000000000BRBTTLACNPR7105
012013090502BVMF3       010BMFBOVESPA  ON      NM   R$  000000000120800000000012230000000001182000000000120600000000012230000000001216000000000122320281000000000008341900000000010063761900000000000000009999123100000010000000000000BRBVMFACNOR3126
012013090596BVMF3F      020BMFBOVESPA  ON      NM   R$  000000000120000000000012210000000001182000000000120600000000012180000000001206000000000121900147000000000000004374000000000005278069000000000000009999123100000010000000000000BRBVMFACNOR3126
012013090578BVMFI10     070BVMF        ON      NM000R$  000000000023500000000002350000000000227000000000023000000000002340000000000160000000000000000004000000000000002700000000000000622400000000000098502013091600000010000000000000BRBVMFACNOR3125
012013090578BVMFI11     070BVMF  FM    ON      NM000R$  000000000011900000000001380000000000105000000000011800000000001300000000000128000000000014500062000000000000074500000000000008791700000000000108502013091600000010000000000000BRBVMFACNOR3125
012013090578BVMFI12     070BVMF  FM    ON      NM000R$  000000000004000000000000490000000000026000000000003500000000000450000000000043000000000004500230000000000000421000000000000014943200000000000118502013091600000010000000000000BRBVMFACNOR3125
012013090578BVMFI13     070BVMF  FM    ON      NM000R$  000000000000400000000000050000000000003000000000000300000000000040000000000004000000000000500082000000000000488100000000000001908600000000000128502013091600000010000000000000BRBVMFACNOR3125
012013090578BVMFI14     070BVMF        ON      NM000R$  000000000000100000000000010000000000001000000000000100000000000010000000000000000000000000100008000000000000092000000000000000092000000000000138502013091600000010000000000000BRBVMFACNOR3125
012013090578BVMFI40     070BVMF        ON      NM000R$  000000000018100000000001870000000000176000000000018200000000001760000000000000000000000000000004000000000000002500000000000000456500000000000103502013091600000010000000000000BRBVMFACNOR3125
012013090578BVMFI41     070BVMF  FM    ON      NM000R$  000000000007400000000000910000000000067000000000008100000000000910000000000000000000000000000011000000000000025700000000000002084300000000000113502013091600000010000000000000BRBVMFACNOR3125
012013090578BVMFI42     070BVMF  FM    ON      NM000R$  000000000001100000000000170000000000008000000000001300000000000170000000000012000000000000000031000000000000074600000000000001000800000000000123502013091600000010000000000000BRBVMFACNOR3125
012013090578BVMFJ11     070BVMF  FM    ON      NM000R$  000000000014600000000001530000000000146000000000015200000000001530000000000000000000000015400003000000000000004000000000000000609900000000000108502013102100000010000000000000BRBVMFACNOR3125
012013090578BVMFJ12     070BVMF  FM    ON      NM000R$  000000000005900000000000800000000000059000000000007700000000000800000000000080000000000000000476000000000000093700000000000007265600000000000118502013102100000010000000000000BRBVMFACNOR3125
012013090578BVMFJ13     070BVMF  FM    ON      NM000R$  000000000001800000000000300000000000015000000000002400000000000290000000000020000000000002902138000000000000372200000000000009246800000000000128502013102100000010000000000000BRBVMFACNOR3125
012013090578BVMFJ41     070BVMF  FM    ON      NM000R$  000000000009200000000001160000000000092000000000011000000000001090000000000000000000000000000008000000000000024000000000000002641500000000000113502013102100000010000000000000BRBVMFACNOR3125
012013090578BVMFJ42     070BVMF  FM    ON      NM000R$  000000000003200000000000500000000000032000000000004600000000000500000000000000000000000123500013000000000000028300000000000001316500000000000123502013102100000010000000000000BRBVMFACNOR3125
012013090578BVMFJ51     070BVMFE       ON      NM000R$  000000000007500000000000750000000000075000000000007500000000000750000000000000000000000000000001000000000000000600000000000000045000000000000116002013102100000010000000000000BRBVMFACNOR3125
012013090578BVMFK14     070BVMF        ON      NM000R$  000000000001400000000000140000000000013000000000001300000000000130000000000005000000000001300030000000000000122900000000000001643300000000000138502013111800000010000000000000BRBVMFACNOR3125
012013090582BVMFU11     080BVMFE FM    ON      NM000R$  000000000000400000000000040000000000001000000000000300000000000020000000000002000000000000400024000000000000098700000000000000337400000000000108502013091600000010000000000000BRBVMFACNOR3125
012013090582BVMFU12     080BVMFE FM    ON      NM000R$  000000000001800000000000240000000000011000000000001700000000000130000000000011000000000001500066000000000000205000000000000003626300000000000118502013091600000010000000000000BRBVMFACNOR3125
012013090582BVMFU13     080BVMFE       ON      NM000R$  000000000009000000000000900000000000070000000000008300000000000780000000000000000000000000000006000000000000007000000000000000586000000000000128502013091600000010000000000000BRBVMFACNOR3125
012013090582BVMFU40     080BVMFE       ON      NM000R$  000000000000100000000000010000000000001000000000000100000000000010000000000000000000000000000002000000000000004000000000000000004000000000000103502013091600000010000000000000BRBVMFACNOR3125
012013090582BVMFU41     080BVMFE FM    ON      NM000R$  000000000000900000000000100000000000005000000000000600000000000050000000000001000000000000000017000000000000034600000000000000233400000000000113502013091600000010000000000000BRBVMFACNOR3125
012013090582BVMFU42     080BVMFE FM    ON      NM000R$  000000000003400000000000380000000000031000000000003300000000000380000000000000000000000000000008000000000000009900000000000000336000000000000123502013091600000010000000000000BRBVMFACNOR3125
012013090582BVMFV12     080BVMFE FM    ON      NM000R$  000000000004400000000000460000000000035000000000003600000000000350000000000030000000000004000017000000000000032000000000000001168700000000000118502013102100000010000000000000BRBVMFACNOR3125
012013090582BVMFV13     080BVMFE       ON      NM000R$  000000000010200000000001020000000000102000000000010200000000001020000000000081000000000000000002000000000000001000000000000000102000000000000128502013102100000010000000000000BRBVMFACNOR3125
012013090582BVMFV40     080BVMFE       ON      NM000R$  000000000000800000000000080000000000008000000000000800000000000080000000000000000000000000000007000000000000013700000000000000109600000000000103502013102100000010000000000000BRBVMFACNOR3125
012013090582BVMFV41     080BVMFE FM    ON      NM000R$  000000000002100000000000210000000000021000000000002100000000000210000000000000000000000000000007000000000000017400000000000000365400000000000113502013102100000010000000000000BRBVMFACNOR3125
012013090582BVMFV42     080BVMFE FM    ON      NM000R$  000000000006400000000000670000000000054000000000005900000000000580000000000000000000000000000022000000000000069600000000000004132900000000000123502013102100000010000000000000BRBVMFACNOR3125
012013090502CAMB4       010CAMBUCI     PN           R$  000000000018300000000001900000000000183000000000018300000000001870000000000186000000000019000004000000000000001400000000000000257300000000000000009999123100000010000000000000BRCAMBACNPR1117
012013090596CAMB4F      020CAMBUCI     PN           R$  000000000016000000000001600000000000160000000000016000000000001600000000000100000000000025000001000000000000000001000000000000000160000000000000009999123100000010000000000000BRCAMBACNPR1117
012013090502CARD3       010CSU CARDSYSTON      NM   R$  000000000032700000000003270000000000324000000000032500000000003240000000000322000000000032400003000000000000001200000000000000390800000000000000009999123100000010000000000000BRCARDACNOR9105
012013090596CARD3F      020CSU CARDSYSTON      NM   R$  000000000032400000000003270000000000318000000000032300000000003270000000000318000000000032900004000000000000000035000000000000011337000000000000009999123100000010000000000000BRCARDACNOR9105
012013090502CBMA3       010COBRASMA    ON           R$  000000000000400000000000040000000000004000000000000400000000000040000000000004000000000000500003000000000000050000000000000000200000000000000000009999123100000010000000000000BRCBMAACNOR4124
012013090596CBMA3F      020COBRASMA    ON           R$  000000000000600000000000060000000000006000000000000600000000000060000000000004000000000000600001000000000000000001000000000000000006000000000000009999123100000010000000000000BRCBMAACNOR4124
012013090502CBMA4       010COBRASMA    PN           R$  000000000000400000000000040000000000004000000000000400000000000040000000000004000000000000500002000000000000020000000000000000080000000000000000009999123100000010000000000000BRCBMAACNPR1124
012013090596CBMA4F      020COBRASMA    PN           R$  000000000000400000000000040000000000004000000000000400000000000040000000000004000000000000500002000000000000002000000000000000008000000000000000009999123100000010000000000000BRCBMAACNPR1124
012013090508CCHI3       010CHIARELLI   ON           R$  000000000002300000000000230000000000018000000000001900000000000200000000000019000000000002000104000000000001720000000000000033680000000000000000009999123100000010000000000000BRCCHIACNOR5123
012013090596CCHI3F      020CHIARELLI   ON           R$  000000000002000000000000200000000000018000000000001900000000000200000000000018000000000002100010000000000000019300000000000000374600000000000000009999123100000010000000000000BRCCHIACNOR5123
012013090508CCHI4       010CHIARELLI   PN           R$  000000000001800000000000180000000000018000000000001800000000000180000000000016000000000001800001000000000000010000000000000000180000000000000000009999123100000010000000000000BRCCHIACNPR2122
012013090502CCPR3       010CYRE COM-CCPON      NM   R$  000000000221000000000022100000000002210000000000221000000000022100000000002210000000000229900003000000000000000500000000000001105000000000000000009999123100000010000000000000BRCCPRACNOR9107
012013090502CCRO3       010CCR SA      ON      NM   R$  000000000173800000000017700000000001725000000000174200000000017600000000001750000000000176009363000000000004525300000000007884078700000000000000009999123100000010000000000000BRCCROACNOR2122
012013090596CCRO3F      020CCR SA      ON      NM   R$  000000000173000000000017770000000001727000000000174700000000017770000000001741000000000177700068000000000000002221000000000003881795000000000000009999123100000010000000000000BRCCROACNOR2122
012013090502CCXC3       010CCX CARVAO  ON      NM   R$  000000000014600000000001470000000000137000000000014100000000001370000000000136000000000013701036000000000004657700000000000656953500000000000000009999123100000010000000000000BRCCXCACNOR5100
012013090596CCXC3F      020CCX CARVAO  ON      NM   R$  000000000014000000000001500000000000137000000000014200000000001460000000000137000000000014600006000000000000000159000000000000022677000000000000009999123100000010000000000000BRCCXCACNOR5100
012013090562CCXC3T      030CCX CARVAO  ON      NM090R$  000000000014200000000001430000000000142000000000014200000000001430000000000000000000000000000002000000000000010000000000000001428560000000000000009999123100000010000000000000BRCCXCACNOR5100
012013090502CEBR6       010CEB         PNB          R$  000000000158000000000015800000000001580000000000158000000000015800000000001500000000000169900005000000000000014000000000000022120000000000000000009999123100000010000000000000BRCEBRACNPB6113
012013090502CEEB3       010COELBA      ON           R$  000000000335000000000033500000000003350000000000335000000000033500000000003001000000000334600001000000000000000100000000000000335000000000000000009999123100000010000000000000BRCEEBACNOR3163
012013090508CELP3       010CELPA       ON           R$  000000000007000000000000700000000000070000000000007000000000000700000000000059000000000007000001000000000000000100000000000000007000000000000000009999123100000010000000000000BRCELPACNOR8112
012013090512CEOC11B     010FII CEO CCP CI      MB   R$  000000000865000000000086850000000008531000000000865300000000086500000000008635000000000865000045000000000000006665000000000057674952000000000000009999123100000010000000000000BRCEOCCTF003109
012013090502CESP3       010CESP        ON      N1   R$  000000000172300000000017470000000001723000000000173700000000017470000000001703000000000174700009000000000000006300000000000010948800000000000000009999123100000010000000000000BRCESPACNOR3160
012013090596CESP3F      020CESP        ON      N1   R$  000000000169000000000016900000000001690000000000169000000000016900000000001696000000000174000001000000000000000012000000000000020280000000000000009999123100000010000000000000BRCESPACNOR3160
012013090502CESP5       010CESP        PNA     N1   R$  000000000224100000000022700000000002241000000000225500000000022700000000002008000000000228500002000000000000000200000000000000451100000000000000009999123100000010000000000000BRCESPACNPA6108
012013090502CESP6       010CESP        PNB     N1   R$  000000000220200000000022940000000002197000000000226700000000022680000000002268000000000227105931000000000001365800000000003097581100000000000000009999123100000010000000000000BRCESPACNPB4119
012013090596CESP6F      020CESP        PNB     N1   R$  000000000222000000000023000000000002220000000000227000000000023000000000002241000000000230000041000000000000001311000000000002977782000000000000009999123100000010000000000000BRCESPACNPB4119
012013090502CGAS3       010COMGAS      ON           R$  000000000510000000000051000000000005100000000000510000000000051000000000000000000000000520000008000000000000001000000000000005100000000000000000009999123100000010000000000000BRCGASACNOR0132
012013090502CGAS5       010COMGAS      PNA          R$  000000000562100000000056870000000005609000000000562900000000056330000000005606000000000565000286000000000000043300000000000243759800000000000000009999123100000010000000000000BRCGASACNPA3129
012013090596CGAS5F      020COMGAS      PNA          R$  000000000569900000000056990000000005600000000000561700000000056200000000005602000000000569400006000000000000000175000000000000983055000000000000009999123100000010000000000000BRCGASACNPA3129
012013090502CGRA4       010GRAZZIOTIN  PN           R$  000000000170500000000017050000000001700000000000170100000000017040000000001685000000000170400009000000000000000900000000000001531700000000000000009999123100000010000000000000BRCGRAACNPR9061
012013090502CIEL3       010CIELO       ON      NM   R$  000000000575000000000057880000000005480000000000566900000000056700000000005670000000000567508975000000000002704400000000015333227800000000000000009999123100000010000000000000BRCIELACNOR3111
012013090596CIEL3F      020CIELO       ON      NM   R$  000000000574000000000057860000000005494000000000566900000000056900000000005690000000000572000229000000000000006154000000000034888824000000000000009999123100000010000000000000BRCIELACNOR3111
012013090582CIELV55     080CIELE       ON      NM000R$  000000000008100000000000810000000000081000000000008100000000000810000000000000000000000000000001000000000000001000000000000000081000000000000550002013102100000010000000000000BRCIELACNOR3111
012013090502CLSC4       010CELESC      PN      N2   R$  000000000175800000000017700000000001755000000000176300000000017600000000001760000000000177000027000000000000004800000000000008462900000000000000009999123100000010000000000000BRCLSCACNPR3107
012013090502CMIG3       010CEMIG       ON      N1   R$  000000000182700000000018620000000001820000000000183900000000018380000000001838000000000184000679000000000000443300000000000815513700000000000000009999123100000010000000000000BRCMIGACNOR6208
012013090596CMIG3F      020CEMIG       ON      N1   R$  000000000182600000000018750000000001824000000000184000000000018260000000001826000000000187600049000000000000001412000000000002598491000000000000009999123100000010000000000000BRCMIGACNOR6208
012013090502CMIG4       010CEMIG       PN      N1   R$  000000000184300000000018900000000001842000000000186800000000018750000000001871000000000187915780000000000004947400000000009244664700000000000000009999123100000010000000000000BRCMIGACNPR3208
012013090596CMIG4F      020CEMIG       PN      N1   R$  000000000184000000000018980000000001840000000000186800000000018760000000001875000000000187600191000000000000005346000000000009992401000000000000009999123100000010000000000000BRCMIGACNPR3208
012013090562CMIG4S      030CEMIG       PN      N1060R$  000000000190600000000019070000000001906000000000190600000000019070000000000000000000000000000002000000000000003000000000000005718844000000000000009999123100000010000000000000BRCMIGACNPR3208
012013090562CMIG4T      030CEMIG       PN      N1060R$  000000000188800000000018890000000001888000000000188800000000018890000000000000000000000000000002000000000000001000000000000001888978000000000000009999123100000010000000000000BRCMIGACNPR3208
012013090562CMIG4T      030CEMIG       PN      N1090R$  000000000190700000000019210000000001897000000000191300000000019210000000000000000000000000000008000000000000010900000000000020855878000000000000009999123100000010000000000000BRCMIGACNPR3208
012013090562CMIG4T      030CEMIG       PN      N1018R$  000000000188300000000018880000000001883000000000188700000000018870000000000000000000000000000022000000000000026000000000000049062078000000000000009999123100000010000000000000BRCMIGACNPR3208
012013090562CMIG4T      030CEMIG       PN      N1032R$  000000000185800000000018970000000001858000000000186400000000018970000000000000000000000000000004000000000000003000000000000005593434000000000000009999123100000010000000000000BRCMIGACNPR3208
012013090578CMIGI19     070CMIG        PN      N1000R$  000000000001800000000000200000000000018000000000001900000000000200000000000015000000000000000002000000000000001700000000000000033000000000000190002013091600000010000000000000BRCMIGACNPR3208
012013090502COCA34      010COCA COLA   DRN          R$  000000000890300000000089030000000008903000000000890300000000089030000000008783000000000913800001000000000000000100000000000000890300000000000000009999123100000010000000000000BRCOCABDR002108
012013090502COCE3       010COELCE      ON           R$  000000000419600000000041990000000004130000000000416000000000041990000000003860000000000419900009000000000000001600000000000006656000000000000000009999123100000010000000000000BRCOCEACNOR0132
012013090502COCE5       010COELCE      PNA          R$  000000000402100000000040840000000004021000000000405400000000040500000000004042000000000405000210000000000000033000000000000133813900000000000000009999123100000010000000000000BRCOCEACNPA3133
012013090596COCE5F      020COELCE      PNA          R$  000000000406000000000040770000000004060000000000406300000000040770000000004050000000000408400006000000000000000200000000000000812700000000000000009999123100000010000000000000BRCOCEACNPA3133
012013090502CPFE3       010CPFL ENERGIAON      NM   R$  000000000193400000000019750000000001927000000000195100000000019600000000001959000000000196003602000000000000981600000000001915321800000000000000009999123100000010000000000000BRCPFEACNOR0122
012013090596CPFE3F      020CPFL ENERGIAON      NM   R$  000000000195000000000019990000000001930000000000195700000000019970000000001959000000000202300098000000000000002686000000000005260269000000000000009999123100000010000000000000BRCPFEACNOR0122
012013090502CPLE3       010COPEL       ON      N1   R$  000000000213000000000021790000000002130000000000215300000000021740000000002155000000000217500025000000000000007900000000000017014500000000000000009999123100000010000000000000BRCPLEACNOR8128
012013090596CPLE3F      020COPEL       ON      N1   R$  000000000230000000000023480000000002300000000000231800000000023480000000002130000000000235000005000000000000000023000000000000053332000000000000009999123100000010000000000000BRCPLEACNOR8128
012013090502CPLE6       010COPEL       PNB     N1   R$  000000000296900000000030650000000002954000000000302000000000030650000000003035000000000307002692000000000000647700000000001956190100000000000000009999123100000010000000000000BRCPLEACNPB9125
012013090596CPLE6F      020COPEL       PNB     N1   R$  000000000297300000000030990000000002960000000000302000000000030510000000003051000000000309900042000000000000001287000000000003887969000000000000009999123100000010000000000000BRCPLEACNPB9125
012013090502CPRE3       010CPFL RENOVAVON      NM   R$  000000000120500000000012050000000001175000000000118000000000011930000000001171000000000119300009000000000000003300000000000003895200000000000000009999123100000010000000000000BRCPREACNOR5100
012013090596CPRE3F      020CPFL RENOVAVON      NM   R$  000000000119900000000011990000000001199000000000119900000000011990000000001080000000000118000001000000000000000061000000000000073139000000000000009999123100000010000000000000BRCPREACNOR5100
012013090502CRDE3       010CR2         ON      NM   R$  000000000041600000000004160000000000416000000000041600000000004160000000000416000000000042200001000000000000000100000000000000041600000000000000009999123100000010000000000000BRCRDEACNOR1108
012013090502CREM3       010CREMER      ON  EJ  NM   R$  000000000138900000000014400000000001381000000000140100000000014230000000001400000000000142300038000000000001172300000000001643550400000000000000009999123100000010000000000000BRCREMACNOR2167
012013090596CREM3F      020CREMER      ON  EJ  NM   R$  000000000141100000000014500000000001411000000000142900000000014500000000001367000000000149900003000000000000000048000000000000068625000000000000009999123100000010000000000000BRCREMACNOR2167
012013090502CRIV3       010ALFA FINANC ON           R$  000000000046900000000005050000000000469000000000048800000000005050000000000464000000000050500023000000000000014500000000000007079100000000000000009999123100000010000000000000BRCRIVACNOR4190
012013090596CRIV3F      020ALFA FINANC ON           R$  000000000042800000000004280000000000428000000000042800000000004280000000000438000000000046700001000000000000000075000000000000032100000000000000009999123100000010000000000000BRCRIVACNOR4190
012013090502CRIV4       010ALFA FINANC PN           R$  000000000046800000000004680000000000433000000000043900000000004490000000000441000000000044900052000000000000039100000000000017188400000000000000009999123100000010000000000000BRCRIVACNPR1190
012013090502CRUZ3       010SOUZA CRUZ  ON           R$  000000000244200000000024630000000002430000000000244200000000024430000000002440000000000244305522000000000001772400000000004328529900000000000000009999123100000010000000000000BRCRUZACNOR0246
012013090596CRUZ3F      020SOUZA CRUZ  ON           R$  000000000245900000000025190000000002428000000000245500000000025110000000002439000000000251100098000000000000002981000000000007321145000000000000009999123100000010000000000000BRCRUZACNOR0246
012013090562CRUZ3T      030SOUZA CRUZ  ON        018R$  000000000245300000000024540000000002453000000000245300000000024540000000000000000000000000000004000000000000009300000000000022816806000000000000009999123100000010000000000000BRCRUZACNOR0246
012013090562CRUZ3T      030SOUZA CRUZ  ON        032R$  000000000244900000000024670000000002449000000000245900000000024670000000000000000000000000000010000000000000004600000000000011314382000000000000009999123100000010000000000000BRCRUZACNOR0246
012013090562CRUZ3T      030SOUZA CRUZ  ON        060R$  000000000246700000000024680000000002467000000000246700000000024680000000000000000000000000000002000000000000002000000000000004935258000000000000009999123100000010000000000000BRCRUZACNOR0246
012013090502CSAN3       010COSAN       ON      NM   R$  000000000415000000000042000000000004108000000000416800000000042000000000004190000000000420003005000000000000819900000000003418169300000000000000009999123100000010000000000000BRCSANACNOR6108
012013090596CSAN3F      020COSAN       ON      NM   R$  000000000410000000000042000000000004100000000000416200000000041800000000004100000000000418000048000000000000001064000000000004428586000000000000009999123100000010000000000000BRCSANACNOR6108
012013090582CSANV40     080CSANE       ON      NM000R$  000000000004400000000000440000000000044000000000004400000000000440000000000000000000000000000002000000000000005300000000000000233200000000000400002013102100000010000000000000BRCSANACNOR6108
012013090502CSCO34      010CISCO       DRN          R$  000000000552000000000055200000000005520000000000552000000000055200000000005385000000000562500001000000000000000200000000000001104000000000000000009999123100000010000000000000BRCSCOBDR004110
012013090502CSMG3       010COPASA      ON      NM   R$  000000000297700000000031190000000002977000000000308000000000031050000000003081000000000310501567000000000000317600000000000978233400000000000000009999123100000010000000000000BRCSMGACNOR5127
012013090596CSMG3F      020COPASA      ON      NM   R$  000000000298000000000032940000000002980000000000307700000000031100000000003002000000000307700034000000000000001019000000000003135817000000000000009999123100000010000000000000BRCSMGACNOR5127
012013090578CSMGJ31     070CSMG        ON      NM000R$  000000000006000000000000600000000000060000000000006000000000000600000000000000000000000000000002000000000000020000000000000001200000000000000310002013102100000010000000000000BRCSMGACNOR5127
012013090514CSMO11      010ISHARES CSMOCI           R$  000000000460000000000046210000000004600000000000461400000000046210000000004595000000000470000002000000000000000250000000000001153570000000000000009999123100000010000000000000BRCSMOCTF002100
012013090502CSNA3       010SID NACIONALON           R$  000000000089700000000009260000000000892000000000091100000000009160000000000916000000000091718486000000000009966900000000009083210900000000000000009999123100000010000000000000BRCSNAACNOR6243
012013090596CSNA3F      020SID NACIONALON           R$  000000000091500000000009250000000000895000000000090900000000009170000000000912000000000092000101000000000000002676000000000002433813000000000000009999123100000010000000000000BRCSNAACNOR6243
012013090562CSNA3T      030SID NACIONALON        060R$  000000000091700000000009180000000000917000000000091700000000009180000000000000000000000000000002000000000000005000000000000004585088000000000000009999123100000010000000000000BRCSNAACNOR6243
012013090562CSNA3T      030SID NACIONALON        120R$  000000000093300000000009340000000000933000000000093300000000009340000000000000000000000000000002000000000000004500000000000004198774000000000000009999123100000010000000000000BRCSNAACNOR6243
012013090562CSNA3T      030SID NACIONALON        181R$  000000000094700000000009480000000000947000000000094700000000009480000000000000000000000000000002000000000000000300000000000000284353000000000000009999123100000010000000000000BRCSNAACNOR6243
012013090578CSNAI10     070CSNA        ON        000R$  000000000000400000000000060000000000004000000000000500000000000060000000000000000000000000600003000000000000002200000000000000011800000000000100002013091600000010000000000000BRCSNAACNOR6243
012013090578CSNAI7      070CSNA        ON        000R$  000000000023000000000002420000000000230000000000023900000000002410000000000220000000000000000025000000000000034300000000000008230000000000000068002013091600000010000000000000BRCSNAACNOR6242
012013090578CSNAI72     070CSNA        ON        000R$  000000000022500000000002250000000000225000000000022500000000002250000000000000000000000000000003000000000000027000000000000006075000000000000070002013091600000010000000000000BRCSNAACNOR6242
012013090578CSNAI76     070CSNA        ON        000R$  000000000017500000000001750000000000173000000000017400000000001730000000000000000000000000000002000000000000002000000000000000348000000000000074002013091600000010000000000000BRCSNAACNOR6242
012013090578CSNAI8      070CSNA        ON        000R$  000000000013500000000001380000000000131000000000013700000000001380000000000100000000000000000005000000000000027200000000000003752600000000000078002013091600000010000000000000BRCSNAACNOR6242
012013090578CSNAI84     070CSNA        ON        000R$  000000000007900000000000900000000000079000000000008200000000000900000000000011000000000000000003000000000000001500000000000000124000000000000084002013091600000010000000000000BRCSNAACNOR6243
012013090578CSNAI88     070CSNA  FM    ON        000R$  000000000004500000000000530000000000045000000000004600000000000530000000000000000000000000000010000000000000024000000000000001112000000000000088002013091600000010000000000000BRCSNAACNOR6243
012013090578CSNAI9      070CSNA  FM    ON        000R$  000000000003300000000000420000000000031000000000003400000000000390000000000033000000000004500017000000000000016900000000000000583300000000000090002013091600000010000000000000BRCSNAACNOR6243
012013090578CSNAI92     070CSNA  FM    ON        000R$  000000000002200000000000280000000000022000000000002400000000000280000000000000000000000000000006000000000000010000000000000000248000000000000092002013091600000010000000000000BRCSNAACNOR6243
012013090578CSNAI94     070CSNA  FM    ON        000R$  000000000001900000000000190000000000018000000000001800000000000180000000000016000000000004000003000000000000012000000000000000226000000000000094002013091600000010000000000000BRCSNAACNOR6243
012013090578CSNAI96     070CSNA  FM    ON        000R$  000000000001000000000000110000000000009000000000001000000000000100000000000001000000000000000007000000000000038800000000000000398000000000000096002013091600000010000000000000BRCSNAACNOR6243
012013090578CSNAI98     070CSNA        ON        000R$  000000000000800000000000080000000000008000000000000800000000000080000000000006000000000002300003000000000000018300000000000000146400000000000098002013091600000010000000000000BRCSNAACNOR6243
012013090578CSNAJ10     070CSNA        ON        000R$  000000000002400000000000250000000000024000000000002400000000000250000000000000000000000000000002000000000000000600000000000000014500000000000100002013102100000010000000000000BRCSNAACNOR6243
012013090578CSNAJ20     070CSNA        ON        000R$  000000000001900000000000200000000000019000000000001900000000000200000000000000000000000000000002000000000000008000000000000000156000000000000102002013102100000010000000000000BRCSNAACNOR6243
012013090578CSNAJ40     070CSNA        ON        000R$  000000000001200000000000120000000000012000000000001200000000000120000000000000000000000002300001000000000000000800000000000000009600000000000104002013102100000010000000000000BRCSNAACNOR6243
012013090578CSNAJ7      070CSNA        ON        000R$  000000000024500000000002460000000000245000000000024500000000002460000000000000000000000000000013000000000000030000000000000007370000000000000068002013102100000010000000000000BRCSNAACNOR6242
012013090578CSNAJ8      070CSNA        ON        000R$  000000000014500000000001500000000000145000000000014900000000001500000000000145000000000000000004000000000000002200000000000000329100000000000078002013102100000010000000000000BRCSNAACNOR6242
012013090578CSNAJ86     070CSNA        ON        000R$  000000000011400000000001140000000000107000000000011000000000001070000000000000000000000000000002000000000000012000000000000001326000000000000084002013102100000010000000000000BRCSNAACNOR6242
012013090578CSNAJ9      070CSNA  FM    ON        000R$  000000000007400000000000830000000000074000000000008100000000000820000000000000000000000000000005000000000000011100000000000000901400000000000088002013102100000010000000000000BRCSNAACNOR6242
012013090578CSNAJ92     070CSNA  FM    ON        000R$  000000000005200000000000600000000000051000000000005400000000000600000000000000000000000000000004000000000000009900000000000000536300000000000092002013102100000010000000000000BRCSNAACNOR6243
012013090578CSNAJ94     070CSNA  FM    ON        000R$  000000000004300000000000520000000000043000000000004800000000000470000000000000000000000000000004000000000000006100000000000000296300000000000094002013102100000010000000000000BRCSNAACNOR6243
012013090578CSNAJ98     070CSNA        ON        000R$  000000000003000000000000300000000000030000000000003000000000000300000000000003000000000000000001000000000000000100000000000000003000000000000098002013102100000010000000000000BRCSNAACNOR6243
012013090578CSNAK10     070CSNA        ON        000R$  000000000005000000000000500000000000050000000000005000000000000500000000000000000000000000000001000000000000200000000000000010000000000000000098002013111800000010000000000000BRCSNAACNOR6242
012013090578CSNAK60     070CSNA        ON        000R$  000000000002700000000000270000000000027000000000002700000000000270000000000000000000000000000001000000000000004000000000000000108000000000000106002013111800000010000000000000BRCSNAACNOR6243
012013090578CSNAK75     070CSNAE       ON        000R$  000000000020100000000002010000000000201000000000020100000000002010000000000000000000000000000005000000000000005000000000000001005000000000000075002013111800000010000000000000BRCSNAACNOR6243
012013090578CSNAK9      070CSNA        ON        000R$  000000000007700000000000770000000000077000000000007700000000000770000000000000000000000000000001000000000000001000000000000000077000000000000090002013111800000010000000000000BRCSNAACNOR6243
012013090582CSNAU72     080CSNAE       ON        000R$  000000000000200000000000020000000000002000000000000200000000000020000000000000000000000005000001000000000000002500000000000000005000000000000070002013091600000010000000000000BRCSNAACNOR6242
012013090582CSNAU8      080CSNAE       ON        000R$  000000000000100000000000060000000000001000000000000500000000000060000000000002000000000000500004000000000000014100000000000000084100000000000078002013091600000010000000000000BRCSNAACNOR6242
012013090582CSNAU80     080CSNAE FM    ON        000R$  000000000001400000000000140000000000014000000000001400000000000140000000000000000000000000000001000000000000002400000000000000033600000000000086002013091600000010000000000000BRCSNAACNOR6243
012013090582CSNAU88     080CSNAE FM    ON        000R$  000000000001400000000000140000000000014000000000001400000000000140000000000000000000000000000001000000000000001000000000000000014000000000000088002013091600000010000000000000BRCSNAACNOR6243
012013090582CSNAU9      080CSNAE FM    ON        000R$  000000000002600000000000290000000000018000000000002300000000000180000000000016000000000002100025000000000000060200000000000001419600000000000090002013091600000010000000000000BRCSNAACNOR6243
012013090582CSNAV10     080CSNAE       ON        000R$  000000000010700000000001070000000000107000000000010700000000001070000000000000000000000000000001000000000000002000000000000000214000000000000100002013102100000010000000000000BRCSNAACNOR6243
012013090582CSNAV64     080CSNAE       ON        000R$  000000000000200000000000020000000000002000000000000200000000000020000000000000000000000000000002000000000000010000000000000000020000000000000062002013102100000010000000000000BRCSNAACNOR6242
012013090582CSNAV66     080CSNAE       ON        000R$  000000000000300000000000030000000000003000000000000300000000000030000000000000000000000000000002000000000000010000000000000000030000000000000064002013102100000010000000000000BRCSNAACNOR6242
012013090582CSNAV68     080CSNAE       ON        000R$  000000000000400000000000040000000000004000000000000400000000000040000000000000000000000000000002000000000000010000000000000000040000000000000066002013102100000010000000000000BRCSNAACNOR6242
012013090582CSNAV7      080CSNAE       ON        000R$  000000000000700000000000070000000000007000000000000700000000000070000000000000000000000002100001000000000000000600000000000000004200000000000068002013102100000010000000000000BRCSNAACNOR6242
012013090582CSNAV74     080CSNAE       ON        000R$  000000000001300000000000130000000000013000000000001300000000000130000000000000000000000000000001000000000000000600000000000000007800000000000074002013102100000010000000000000BRCSNAACNOR6243
012013090582CSNAV8      080CSNAE       ON        000R$  000000000001900000000000240000000000016000000000002200000000000160000000000015000000000003400019000000000000114300000000000002593500000000000078002013102100000010000000000000BRCSNAACNOR6242
012013090582CSNAV82     080CSNAE       ON        000R$  000000000002200000000000220000000000022000000000002200000000000220000000000000000000000000000001000000000000001200000000000000026400000000000080002013102100000010000000000000BRCSNAACNOR6242
012013090582CSNAV9      080CSNAE FM    ON        000R$  000000000004400000000000460000000000039000000000004400000000000390000000000036000000000008400005000000000000073000000000000003240500000000000088002013102100000010000000000000BRCSNAACNOR6242
012013090582CSNAV92     080CSNAE FM    ON        000R$  000000000006100000000000610000000000061000000000006100000000000610000000000000000000000000000001000000000000003500000000000000213500000000000092002013102100000010000000000000BRCSNAACNOR6243
012013090502CTAX11      010CONTAX      UNT     N2   R$  000000000185000000000018500000000001785000000000179900000000018100000000001802000000000181500074000000000000030200000000000054334100000000000000009999123100000010000000000000BRCTAXCDAM19100
012013090596CTAX11F     020CONTAX      UNT     N2   R$  000000000167000000000017800000000001670000000000175500000000017800000000001615000000000177500004000000000000000092000000000000161460000000000000009999123100000010000000000000BRCTAXCDAM19100
012013090502CTAX4       010CONTAX      PN      N2   R$  000000000035400000000003550000000000350000000000035000000000003500000000000350000000000035600015000000000000008700000000000003049100000000000000009999123100000010000000000000BRCTAXACNPR0114
012013090596CTAX4F      020CONTAX      PN      N2   R$  000000000035700000000003570000000000346000000000035500000000003460000000000346000000000040500004000000000000000100000000000000035525000000000000009999123100000010000000000000BRCTAXACNPR0114
012013090502CTIP3       010CETIP       ON      NM   R$  000000000234800000000023560000000002314000000000233800000000023400000000002330000000000234005887000000000002077200000000004857235900000000000000009999123100000010000000000000BRCTIPACNOR2119
012013090596CTIP3F      020CETIP       ON      NM   R$  000000000234000000000024220000000002287000000000234500000000023250000000002330000000000240000051000000000000001414000000000003315942000000000000009999123100000010000000000000BRCTIPACNOR2119
012013090502CTNM4       010COTEMINAS   PN           R$  000000000022200000000002220000000000222000000000022200000000002220000000000222000000000022700004000000000000002900000000000000643800000000000000009999123100000010000000000000BRCTNMACNPR6128
012013090562CTNM4T      030COTEMINAS   PN        361R$  000000000024500000000002460000000000245000000000024500000000002460000000000000000000000000000002000000000000001900000000000000466469000000000000009999123100000010000000000000BRCTNMACNPR6128
012013090502CTSA3       010SANTANENSE  ON           R$  000000000056200000000005750000000000562000000000056200000000005750000000000563000000000057500003000000000000002100000000000001181500000000000000009999123100000010000000000000BRCTSAACNOR3051
012013090562CTSA3T      030SANTANENSE  ON        090R$  000000000057300000000005740000000000573000000000057300000000005740000000000000000000000000000002000000000000001800000000000001032237000000000000009999123100000010000000000000BRCTSAACNOR3051
012013090502CTSA4       010SANTANENSE  PN           R$  000000000057000000000005700000000000570000000000057000000000005700000000000560000000000057000001000000000000000100000000000000057000000000000000009999123100000010000000000000BRCTSAACNPR0051
012013090512CTXT11      010FII C TEXTILCI  ER       R$  000000000027900000000002790000000000279000000000027900000000002790000000000290000000000000000001000000000000000010000000000000002790000000000000009999123100000010000000000000BRCTXTCTF014109
012013090512CXTL11      010FII CX TRX  CI  ER       R$  000000007500000000000750000000000075000000000007500000000000750000000000075000000000007830000001000000000000000003000000000000225000000000000000009999123100000010000000000000BRCXTLCTF003122
012013090502CYRE3       010CYRELA REALTON      NM   R$  000000000158800000000016310000000001572000000000160500000000016040000000001604000000000160509855000000000003054600000000004904477100000000000000009999123100000010000000000000BRCYREACNOR7125
012013090596CYRE3F      020CYRELA REALTON      NM   R$  000000000156400000000016490000000001564000000000161500000000016490000000001587000000000164800033000000000000001004000000000001622347000000000000009999123100000010000000000000BRCYREACNOR7125
012013090562CYRE3T      030CYRELA REALTON      NM018R$  000000000161000000000016110000000001610000000000161000000000016110000000000000000000000000000002000000000000000100000000000000161074000000000000009999123100000010000000000000BRCYREACNOR7125
012013090578CYREI16     070CYRE  FM    ON      NM000R$  000000000003200000000000530000000000032000000000004400000000000530000000000000000000000000000006000000000000012900000000000000575000000000000160002013091600000010000000000000BRCYREACNOR7125
012013090578CYREI17     070CYRE  FM    ON      NM000R$  000000000000300000000000070000000000003000000000000600000000000070000000000000000000000001700005000000000000014800000000000000100400000000000170002013091600000010000000000000BRCYREACNOR7125
012013090578CYREI45     070CYRE  FM    ON      NM000R$  000000000006400000000000930000000000064000000000008700000000000930000000000000000000000000000013000000000000038700000000000003387600000000000155002013091600000010000000000000BRCYREACNOR7125
012013090578CYREI46     070CYRE  FM    ON      NM000R$  000000000001800000000000240000000000017000000000001700000000000170000000000000000000000000000004000000000000008600000000000000153200000000000165002013091600000010000000000000BRCYREACNOR7125
012013090578CYREI47     070CYRE  FM    ON      NM000R$  000000000000200000000000020000000000002000000000000200000000000020000000000000000000000000000004000000000000012900000000000000025800000000000175002013091600000010000000000000BRCYREACNOR7125
012013090578CYREJ16     070CYRE  FM    ON      NM000R$  000000000009200000000000920000000000090000000000009100000000000900000000000000000000000000000002000000000000002200000000000000202200000000000160002013102100000010000000000000BRCYREACNOR7125
012013090578CYREJ45     070CYRE  FM    ON      NM000R$  000000000012300000000001230000000000123000000000012300000000001230000000000000000000000000000001000000000000002300000000000000282900000000000155002013102100000010000000000000BRCYREACNOR7125
012013090578CYREJ46     070CYRE  FM    ON      NM000R$  000000000006300000000000630000000000063000000000006300000000000630000000000000000000000000000001000000000000003500000000000000220500000000000165002013102100000010000000000000BRCYREACNOR7125
012013090578CYREJ47     070CYRE  FM    ON      NM000R$  000000000001700000000000170000000000017000000000001700000000000170000000000000000000000000000001000000000000001000000000000000017000000000000175002013102100000010000000000000BRCYREACNOR7125
012013090582CYREU15     080CYREE FM    ON      NM000R$  000000000000600000000000060000000000006000000000000600000000000060000000000000000000000000000001000000000000001000000000000000006000000000000150002013091600000010000000000000BRCYREACNOR7125
012013090582CYREU16     080CYREE FM    ON      NM000R$  000000000002800000000000280000000000028000000000002800000000000280000000000000000000000000000002000000000000004000000000000000112000000000000160002013091600000010000000000000BRCYREACNOR7125
012013090582CYREU46     080CYREE FM    ON      NM000R$  000000000004400000000000460000000000042000000000004500000000000420000000000000000000000000000003000000000000005700000000000000257400000000000165002013091600000010000000000000BRCYREACNOR7125
012013090582CYREV16     080CYREE FM    ON      NM000R$  000000000005100000000000520000000000051000000000005100000000000520000000000000000000000000000002000000000000005600000000000000289100000000000160002013102100000010000000000000BRCYREACNOR7125
012013090582CYREV46     080CYREE FM    ON      NM000R$  000000000007500000000000750000000000075000000000007500000000000750000000000000000000000000000002000000000000002400000000000000180000000000000165002013102100000010000000000000BRCYREACNOR7125
012013090502CZLT33      010COSAN LTD   DR3          R$  000000000320800000000032320000000003181000000000320800000000031900000000003190000000000324500766000000000000259900000000000833796200000000000000009999123100000010000000000000BRCZLTBDR009105
012013090502DAGB33      010DUFRY AG    DR3          R$  000000003342600000000350000000000032600000000003299100000000328000000000032800000000003289001036000000000000015111000000000498539042000000000000009999123100000010000000000000BRDAGBBDR008100
012013090502DASA3       010DASA        ON      NM   R$  000000000111000000000011260000000001106000000000111300000000011150000000001115000000000111603840000000000001322500000000001473137400000000000000009999123100000010000000000000BRDASAACNOR1108
012013090596DASA3F      020DASA        ON      NM   R$  000000000110000000000011480000000001100000000000111300000000011480000000001130000000000114800013000000000000000422000000000000470081000000000000009999123100000010000000000000BRDASAACNOR1108
012013090502DAYC4       010DAYCOVAL    PN      N2   R$  000000000074700000000007900000000000735000000000075900000000007710000000000771000000000077500407000000000000178100000000000135329000000000000000009999123100000010000000000000BRDAYCACNPR2128
012013090596DAYC4F      020DAYCOVAL    PN      N2   R$  000000000074000000000007720000000000740000000000076400000000007720000000000752000000000077700008000000000000000296000000000000226431000000000000009999123100000010000000000000BRDAYCACNPR2128
012013090502DHBI4       010D H B       PN           R$  000000000081400000000008150000000000814000000000081400000000008150000000000100000000000081700002000000000000000300000000000000244300000000000000009999123100000010000000000000BRDHBIACNPR2114
012013090502DIRR3       010DIRECIONAL  ON      NM   R$  000000000119100000000012320000000001186000000000120600000000012250000000001225000000000122701667000000000000463000000000000558756700000000000000009999123100000010000000000000BRDIRRACNOR0104
012013090596DIRR3F      020DIRECIONAL  ON      NM   R$  000000000121700000000012460000000001190000000000120300000000012460000000001180000000000122000018000000000000000457000000000000549953000000000000009999123100000010000000000000BRDIRRACNOR0104
012013090562DIRR3T      030DIRECIONAL  ON      NM039R$  000000000120400000000012050000000001204000000000120400000000012050000000000000000000000000000002000000000000008000000000000009634806000000000000009999123100000010000000000000BRDIRRACNOR0104
012013090578DIRRI11     070DIRR        ON      NM000R$  000000000011000000000001130000000000110000000000011100000000001130000000000000000000000000000004000000000000150000000000000016700000000000000110002013091600000010000000000000BRDIRRACNOR0104
012013090578DIRRI41     070DIRR        ON      NM000R$  000000000006600000000000660000000000066000000000006600000000000660000000000000000000000000000002000000000000010000000000000000660000000000000115002013091600000010000000000000BRDIRRACNOR0104
012013090514DIVO11      010IT NOW IDIV CI           R$  000000000325000000000032850000000003242000000000327300000000032840000000003242000000000328500019000000000000001450000000000004746640000000000000009999123100000010000000000000BRDIVOCTF002100
012013090596DIVO11F     020IT NOW IDIV CI           R$  000000000312400000000032100000000003000000000000308300000000032100000000003124000000000330000004000000000000000010000000000000030830000000000000009999123100000010000000000000BRDIVOCTF002100
012013090502DOHL4       010DOHLER      PN           R$  000000000041000000000004190000000000410000000000041400000000004190000000000400000000000041900002000000000000000200000000000000082900000000000000009999123100000010000000000000BRDOHLACNPR9054
012013090502DTEX3       010DURATEX     ON      NM   R$  000000000121500000000012790000000001211000000000125800000000012750000000001265000000000127503605000000000000966400000000001216086600000000000000009999123100000010000000000000BRDTEXACNOR3115
012013090596DTEX3F      020DURATEX     ON      NM   R$  000000000122000000000012750000000001193000000000124500000000012740000000001241000000000127400035000000000000001285000000000001601491000000000000009999123100000010000000000000BRDTEXACNOR3115
012013090578DTEXJ41     070DTEX        ON      NM000R$  000000000003600000000000510000000000036000000000003700000000000510000000000039000000000000000003000000000000001200000000000000044700000000000115002013102100000010000000000000BRDTEXACNOR3115
