00COTAHIST.2013BOVESPA 20131029                                                                                                                                                                                                                      
012013102902ABCB4       010ABC BRASIL  PN      N2   R$  000000000133100000000013480000000001328000000000133500000000013470000000001340000000000134700720000000000000189500000000000253047100000000000000009999123100000010000000000000BRABCBACNPR4120
012013102996ABCB4F      020ABC BRASIL  PN      N2   R$  000000000133500000000013530000000001335000000000133800000000013530000000001342000000000135300014000000000000000306000000000000409721000000000000009999123100000010000000000000BRABCBACNPR4120
012013102912ABCP11      010FII ABC IMOBCI           R$  000000000099000000000009900000000000990000000000099000000000009900000000000947000000000099000001000000000000000006000000000000005940000000000000009999123100000010000000000000BRABCPCTF000216
012013102902ABRE11      010ABRIL EDUCA UNT     N2   R$  000000000319900000000032380000000003062000000000320300000000032380000000003214000000000323800883000000000000222900000000000714050100000000000000009999123100000010000000000000BRABRECDAM15102
012013102996ABRE11F     020ABRIL EDUCA UNT     N2   R$  000000000310300000000032200000000003103000000000315800000000032200000000003151000000000340000007000000000000000203000000000000641260000000000000009999123100000010000000000000BRABRECDAM15102
012013102902AEDU3       010ANHANGUERA  ON      NM   R$  000000000130200000000013080000000001281000000000129100000000012900000000001289000000000129004034000000000002312100000000002986595100000000000000009999123100000010000000000000BRAEDUACNOR9107
012013102996AEDU3F      020ANHANGUERA  ON      NM   R$  000000000130000000000013000000000001277000000000129000000000012770000000001276000000000130000017000000000000000499000000000000644027000000000000009999123100000010000000000000BRAEDUACNOR9107
012013102962AEDU3T      030ANHANGUERA  ON      NM016R$  000000000129500000000012960000000001295000000000129500000000012960000000000000000000000000000002000000000000005000000000000006478380000000000000009999123100000010000000000000BRAEDUACNOR9107
012013102912AEFI11      010FII AESAPAR CI           R$  000000001229500000000122950000000012200000000001222200000000122500000000012200000000001225000007000000000000000260000000000003177815000000000000009999123100000010000000000000BRAEFICTF002122
012013102902AELP3       010AES ELPA    ON           R$  000000000099200000000009920000000000978000000000098800000000009780000000000913000000000098000011000000000000002400000000000002371600000000000000009999123100000010000000000000BRAELPACNOR2119
012013102962AELP3T      030AES ELPA    ON        062R$  000000000100300000000010040000000001003000000000100300000000010040000000000000000000000000000002000000000000000300000000000000301032000000000000009999123100000010000000000000BRAELPACNOR2119
012013102912AGCX11      010FII AG CAIXACI           R$  000000009480000000000948000000000094600000000009478000000000946000000000094600000000009480000008000000000000000032000000000003032984000000000000009999123100000010000000000000BRAGCXCTF003111
012013102902AGRO3       010BRASILAGRO  ON      NM   R$  000000000101500000000010190000000001015000000000101700000000010180000000001013000000000101800017000000000000074000000000000075259100000000000000009999123100000010000000000000BRAGROACNOR7102
012013102902ALLL3       010ALL AMER LATON      NM   R$  000000000082600000000008310000000000816000000000082300000000008230000000000823000000000082405217000000000001784900000000001469443300000000000000009999123100000010000000000000BRALLLACNOR6118
012013102996ALLL3F      020ALL AMER LATON      NM   R$  000000000083000000000008300000000000817000000000082300000000008290000000000816000000000082900028000000000000000732000000000000602474000000000000009999123100000010000000000000BRALLLACNOR6118
012013102962ALLL3T      030ALL AMER LATON      NM016R$  000000000082600000000008270000000000826000000000082600000000008270000000000000000000000000000008000000000000040000000000000033064848000000000000009999123100000010000000000000BRALLLACNOR6118
012013102962ALLL3T      030ALL AMER LATON      NM090R$  000000000084000000000008410000000000840000000000084000000000008410000000000000000000000000000002000000000000002000000000000001681883000000000000009999123100000010000000000000BRALLLACNOR6118
012013102912ALMI11B     010FII TORRE ALCI      MB   R$  000000032800000000003290000000000327999000000032828200000003290000000000328000000000032900000005000000000000000007000000000002297976000000000000009999123100000010000000000000BRALMICTF003206
012013102902ALPA3       010ALPARGATAS  ON      N1   R$  000000000128500000000012850000000001283000000000128400000000012830000000001283000000000133900002000000000000000700000000000000899300000000000000009999123100000010000000000000BRALPAACNOR0203
012013102996ALPA3F      020ALPARGATAS  ON      N1   R$  000000000128500000000012850000000001285000000000128500000000012850000000001285000000000140000001000000000000000011000000000000014135000000000000009999123100000010000000000000BRALPAACNOR0203
012013102902ALPA4       010ALPARGATAS  PN      N1   R$  000000000153100000000015580000000001531000000000154400000000015460000000001540000000000154700650000000000000341900000000000528006700000000000000009999123100000010000000000000BRALPAACNPR7203
012013102996ALPA4F      020ALPARGATAS  PN      N1   R$  000000000154000000000015510000000001537000000000154300000000015480000000001530000000000155000013000000000000000342000000000000527822000000000000009999123100000010000000000000BRALPAACNPR7203
012013102902ALSC3       010ALIANSCE    ON      NM   R$  000000000213300000000021530000000002075000000000210300000000021200000000002120000000000212401097000000000000213900000000000449898600000000000000009999123100000010000000000000BRALSCACNOR0104
012013102996ALSC3F      020ALIANSCE    ON      NM   R$  000000000214500000000021500000000002000000000000211300000000020000000000001951000000000210000010000000000000000359000000000000758657000000000000009999123100000010000000000000BRALSCACNOR0104
012013102902ALUP11      010ALUPAR      UNT     N2   R$  000000000172000000000017200000000001694000000000169900000000016960000000001696000000000170500474000000000000192200000000000326614700000000000000009999123100000010000000000000BRALUPCDAM15100
012013102996ALUP11F     020ALUPAR      UNT     N2   R$  000000000170000000000017200000000001690000000000170000000000016900000000001690000000000175000015000000000000000274000000000000465837000000000000009999123100000010000000000000BRALUPCDAM15100
012013102962ALUP11T     030ALUPAR      UNT     N2030R$  000000000171700000000017180000000001717000000000171700000000017180000000000000000000000000000002000000000000002000000000000003434636000000000000009999123100000010000000000000BRALUPCDAM15100
012013102902AMAR3       010LOJAS MARISAON      NM   R$  000000000200000000000020010000000001975000000000198500000000019930000000001985000000000199300796000000000000254300000000000505008700000000000000009999123100000010000000000000BRAMARACNOR4109
012013102996AMAR3F      020LOJAS MARISAON      NM   R$  000000000199700000000019970000000001980000000000199200000000019850000000001976000000000199000005000000000000000125000000000000249098000000000000009999123100000010000000000000BRAMARACNOR4109
012013102962AMAR3T      030LOJAS MARISAON      NM035R$  000000000199900000000020000000000001999000000000199900000000020000000000000000000000000000000002000000000000010000000000000019994416000000000000009999123100000010000000000000BRAMARACNOR4109
012013102962AMAR3T      030LOJAS MARISAON      NM120R$  000000000205200000000020530000000002052000000000205200000000020530000000000000000000000000000002000000000000014000000000000028728718000000000000009999123100000010000000000000BRAMARACNOR4109
012013102902AMBV3       010AMBEV       ON           R$  000000000855900000000085590000000008413000000000846100000000084900000000008449000000000849001274000000000000240600000000002035695200000000000000009999123100000010000000000000BRAMBVACNOR4154
012013102996AMBV3F      020AMBEV       ON           R$  000000000865000000000086500000000008429000000000848700000000084350000000008435000000000849600034000000000000000573000000000004860040000000000000009999123100000010000000000000BRAMBVACNOR4154
012013102962AMBV3T      030AMBEV       ON        030R$  000000000851000000000085110000000008510000000000851000000000085110000000000000000000000000000002000000000000001000000000000008510840000000000000009999123100000010000000000000BRAMBVACNOR4154
012013102902AMBV4       010AMBEV       PN           R$  000000000854400000000085480000000008416000000000845800000000084500000000008450000000000845305861000000000001343900000000011367737600000000000000009999123100000010000000000000BRAMBVACNPR1154
012013102996AMBV4F      020AMBEV       PN           R$  000000000857000000000085990000000008420000000000847400000000085850000000008435000000000858500262000000000000008042000000000068159038000000000000009999123100000010000000000000BRAMBVACNPR1154
012013102962AMBV4T      030AMBEV       PN        016R$  000000000845700000000084580000000008457000000000845700000000084580000000000000000000000000000002000000000000000500000000000004228945000000000000009999123100000010000000000000BRAMBVACNPR1154
012013102962AMBV4T      030AMBEV       PN        030R$  000000000859400000000085950000000008594000000000859400000000085950000000000000000000000000000002000000000000000300000000000002578331000000000000009999123100000010000000000000BRAMBVACNPR1154
012013102962AMBV4T      030AMBEV       PN        090R$  000000000863000000000086310000000008630000000000863000000000086310000000000000000000000000000002000000000000000600000000000005178119000000000000009999123100000010000000000000BRAMBVACNPR1154
012013102962AMBV4T      030AMBEV       PN        120R$  000000000873300000000087340000000008733000000000873300000000087340000000000000000000000000000002000000000000010000000000000087336105000000000000009999123100000010000000000000BRAMBVACNPR1154
012013102978AMBVK89     070AMBV        PN        000R$  000000000002000000000000200000000000020000000000002000000000000200000000000000000000000000000001000000000000002000000000000000040000000000000883502013111800000010000000000000BRAMBVACNPR1153
012013102978AMBVL88     070AMBV        PN        000R$  000000000015000000000001550000000000150000000000015200000000001550000000000000000000000015000002000000000000002000000000000000305000000000000873502013121600000010000000000000BRAMBVACNPR1153
012013102902ANIM3       010ANIMA       ON      NM   R$  000000000192000000000019250000000001885000000000190100000000018930000000001862000000000189301146000000000000598100000000001137099400000000000000009999123100000010000000000000BRANIMACNOR6100
012013102996ANIM3F      020ANIMA       ON      NM   R$  000000000185000000000019200000000001850000000000190600000000018980000000001850000000000192400050000000000000001554000000000002962729000000000000009999123100000010000000000000BRANIMACNOR6100
012013102902AORE3       010ALL ORE     ON           R$  000000000010000000000001000000000000100000000000010000000000001000000000000093000000000010000003000000000000000500000000000000050000000000000000009999123100000010000000000000BRAOREACNOR2100
012013102902ARTR3       010ARTERIS     ON      NM   R$  000000000205800000000020650000000002030000000000204600000000020440000000002040000000000204400715000000000000154600000000000316348600000000000000009999123100000010000000000000BRARTRACNOR3101
012013102996ARTR3F      020ARTERIS     ON      NM   R$  000000000205300000000020600000000002040000000000204400000000020400000000002020000000000204400010000000000000000303000000000000619334000000000000009999123100000010000000000000BRARTRACNOR3101
012013102902ARZZ3       010AREZZO CO   ON      NM   R$  000000000346100000000034880000000003347000000000341700000000033520000000003352000000000337700701000000000000161700000000000552568900000000000000009999123100000010000000000000BRARZZACNOR3109
012013102996ARZZ3F      020AREZZO CO   ON      NM   R$  000000000344000000000034400000000003350000000000340200000000033500000000003311000000000342900012000000000000000142000000000000483154000000000000009999123100000010000000000000BRARZZACNOR3109
012013102902AUTM3       010AUTOMETAL   ON      NM   R$  000000000171300000000017140000000001701000000000170500000000017100000000001706000000000171000274000000000000402100000000000685814500000000000000009999123100000010000000000000BRAUTMACNOR8109
012013102996AUTM3F      020AUTOMETAL   ON      NM   R$  000000000172500000000017250000000001704000000000172100000000017040000000001700000000000175000002000000000000000100000000000000172101000000000000009999123100000010000000000000BRAUTMACNOR8109
012013102996BAHI3F      020BAHEMA      ON           R$  000000000050000000000005000000000000500000000000050000000000005000000000000500000000000051000001000000000000000010000000000000005000000000000000009999123100000010000000000000BRBAHIACNOR1066
012013102902BAUH4       010EXCELSIOR   PN           R$  000000000106000000000011000000000001060000000000109000000000011000000000000970000000000108000009000000000000002100000000000002290900000000000000009999123100000010000000000000BRBAUHACNPR3108
012013102902BAZA3       010AMAZONIA    ON           R$  000000000003300000000000330000000000033000000000003300000000000330000000000032000000000003300007000000000000010000000000000000330000000000000000009999123100000010000000000000BRBAZAACNOR0163
012013102902BBAS3       010BRASIL      ON      NM   R$  000000000286000000000028870000000002852000000000286600000000028650000000002864000000000286709899000000000005157900000000014786992600000000000000009999123100000010000000000000BRBBASACNOR3239
012013102996BBAS3F      020BRASIL      ON      NM   R$  000000000283100000000028850000000002831000000000285900000000028550000000002855000000000287000218000000000000006957000000000019894084000000000000009999123100000010000000000000BRBBASACNOR3239
012013102962BBAS3T      030BRASIL      ON      NM120R$  000000000295600000000029570000000002956000000000295600000000029570000000000000000000000000000002000000000000002000000000000005912299000000000000009999123100000010000000000000BRBBASACNOR3239
012013102978BBASA28     070BBAS        ON      NM000R$  000000000018400000000001850000000000184000000000018400000000001840000000000034000000000020000008000000000000004000000000000000738000000000000280002014012000000010000000000000BRBBASACNOR3239
012013102978BBASA30     070BBAS        ON      NM000R$  000000000012900000000001290000000000126000000000012800000000001260000000000118000000000000000007000000000000005500000000000000705000000000000289502014012000000010000000000000BRBBASACNOR3237
012013102978BBASC29     070BBAS        ON      NM000R$  000000000019700000000001970000000000197000000000019700000000001970000000000000000000000000000001000000000000002000000000000000394000000000000290002014031700000010000000000000BRBBASACNOR3239
012013102978BBASK24     070BBAS        ON      NM000R$  000000000057700000000005770000000000577000000000057700000000005770000000000500000000000000000001000000000000002000000000000001154000000000000229502013111800000010000000000000BRBBASACNOR3237
012013102978BBASK25     070BBAS        ON      NM000R$  000000000050500000000005050000000000505000000000050500000000005050000000000090000000000000000001000000000000005500000000000002777500000000000237102013111800000010000000000000BRBBASACNOR3236
012013102978BBASK26     070BBAS        ON      NM000R$  000000000040000000000004000000000000400000000000040000000000004000000000000340000000000049500001000000000000008000000000000003200000000000000247102013111800000010000000000000BRBBASACNOR3236
012013102978BBASK27     070BBAS        ON      NM000R$  000000000031000000000003100000000000304000000000030500000000003090000000000300000000000000000005000000000000004100000000000001253900000000000257102013111800000010000000000000BRBBASACNOR3236
012013102978BBASK28     070BBAS  FM    ON      NM000R$  000000000022500000000002290000000000204000000000021400000000002160000000000080000000000022900093000000000000183300000000000039365500000000000267102013111800000010000000000000BRBBASACNOR3236
012013102978BBASK29     070BBAS  FM    ON      NM000R$  000000000012400000000001240000000000105000000000011200000000001160000000000098000000000011600033000000000000039000000000000004387500000000000279502013111800000010000000000000BRBBASACNOR3237
012013102978BBASK30     070BBAS  FM    ON      NM000R$  000000000005700000000000600000000000047000000000005300000000000520000000000047000000000005200041000000000000093300000000000004986000000000000289502013111800000010000000000000BRBBASACNOR3237
012013102978BBASK31     070BBAS  FM    ON      NM000R$  000000000002500000000000260000000000016000000000002000000000000200000000000014000000000002000018000000000000033300000000000000698900000000000299502013111800000010000000000000BRBBASACNOR3237
012013102978BBASK57     070BBAS        ON      NM000R$  000000000014200000000001420000000000142000000000014200000000001420000000000000000000000000000001000000000000000100000000000000014200000000000275002013111800000010000000000000BRBBASACNOR3239
012013102978BBASL28     070BBAS  FM    ON      NM000R$  000000000024000000000002400000000000219000000000022800000000002320000000000150000000000000000040000000000000053600000000000012250000000000000269502013121600000010000000000000BRBBASACNOR3237
012013102978BBASL29     070BBAS  FM    ON      NM000R$  000000000018600000000001860000000000174000000000017700000000001820000000000034000000000000000033000000000000035500000000000006288600000000000276102013121600000010000000000000BRBBASACNOR3235
012013102978BBASL30     070BBAS  FM    ON      NM000R$  000000000006100000000000610000000000045000000000004800000000000510000000000043000000000005200012000000000000013100000000000000634500000000000300002013121600000010000000000000BRBBASACNOR3239
012013102978BBASL31     070BBAS  FM    ON      NM000R$  000000000002600000000000260000000000023000000000002400000000000250000000000017000000000003000005000000000000008700000000000000216600000000000310002013121600000010000000000000BRBBASACNOR3239
012013102978BBASL79     070BBAS  FM    ON      NM000R$  000000000010600000000001060000000000087000000000009200000000000910000000000000000000000000000011000000000000015200000000000001410200000000000290002013121600000010000000000000BRBBASACNOR3239
012013102982BBASW28     080BBASE FM    ON      NM000R$  000000000000800000000000090000000000007000000000000700000000000090000000000002000000000001000010000000000000011900000000000000093000000000000267102013111800000010000000000000BRBBASACNOR3236
012013102982BBASW29     080BBASE FM    ON      NM000R$  000000000002600000000000310000000000026000000000002900000000000310000000000028000000000004100006000000000000003800000000000000111300000000000279502013111800000010000000000000BRBBASACNOR3237
012013102982BBASW30     080BBASE FM    ON      NM000R$  000000000006200000000000760000000000062000000000007000000000000680000000000000000000000000000018000000000000026200000000000001846300000000000289502013111800000010000000000000BRBBASACNOR3237
012013102982BBASW58     080BBASE       ON      NM000R$  000000000005400000000000540000000000050000000000005200000000000510000000000000000000000000000006000000000000016400000000000000855200000000000285002013111800000010000000000000BRBBASACNOR3239
012013102982BBASX28     080BBASE FM    ON      NM000R$  000000000002800000000000330000000000028000000000002900000000000310000000000030000000000003400006000000000000004400000000000000130600000000000269502013121600000010000000000000BRBBASACNOR3237
012013102982BBASX29     080BBASE FM    ON      NM000R$  000000000004500000000000510000000000045000000000004700000000000510000000000041000000000000000003000000000000004400000000000000210000000000000276102013121600000010000000000000BRBBASACNOR3235
012013102982BBASX60     080BBASE       ON      NM000R$  000000000007500000000000810000000000075000000000008000000000000810000000000080000000000000000007000000000000025000000000000002017800000000000286202013121600000010000000000000BRBBASACNOR3233
012013102982BBASX79     080BBASE FM    ON      NM000R$  000000000009500000000000990000000000095000000000009700000000000970000000000000000000000000000007000000000000013100000000000001274500000000000290002013121600000010000000000000BRBBASACNOR3239
012013102902BBDC3       010BRADESCO    ON      N1   R$  000000000359400000000036190000000003563000000000360100000000035940000000003594000000000359505536000000000001440600000000005187831500000000000000009999123100000010000000000000BRBBDCACNOR1607
012013102996BBDC3F      020BRADESCO    ON      N1   R$  000000000364700000000036470000000003551000000000361400000000035510000000003550000000000360900042000000000000000609000000000002200771000000000000009999123100000010000000000000BRBBDCACNOR1607
012013102902BBDC4       010BRADESCO    PN      N1   R$  000000000323500000000032650000000003220000000000324100000000032490000000003248000000000324918846000000000008578800000000027804125700000000000000009999123100000010000000000000BRBBDCACNPR8607
012013102996BBDC4F      020BRADESCO    PN      N1   R$  000000000322000000000032670000000003216000000000324300000000032500000000003240000000000325000207000000000000005564000000000018046578000000000000009999123100000010000000000000BRBBDCACNPR8607
012013102962BBDC4T      030BRADESCO    PN      N1016R$  000000000326200000000032680000000003250000000000326100000000032510000000000000000000000000000012000000000000006800000000000022177534000000000000009999123100000010000000000000BRBBDCACNPR8607
012013102962BBDC4T      030BRADESCO    PN      N1030R$  000000000325700000000032580000000003257000000000325700000000032580000000000000000000000000000002000000000000000200000000000000651594000000000000009999123100000010000000000000BRBBDCACNPR8607
012013102962BBDC4T      030BRADESCO    PN      N1120R$  000000000332900000000033300000000003329000000000332900000000033300000000000000000000000000000004000000000000002000000000000006659452000000000000009999123100000010000000000000BRBBDCACNPR8607
012013102978BBDCA31     070BBDC        PN      N1000R$  000000000024600000000002480000000000234000000000024400000000002470000000000000000000000000000035000000000000025000000000000006117400000000000309602014012000000010000000000000BRBBDCACNPR8605
012013102978BBDCA32     070BBDC        PN      N1000R$  000000000017800000000001780000000000171000000000017400000000001730000000000000000000000000000041000000000000025000000000000004361900000000000319802014012000000010000000000000BRBBDCACNPR8606
012013102978BBDCA34     070BBDC        PN      N1000R$  000000000008400000000000840000000000084000000000008400000000000840000000000000000000000000000002000000000000001400000000000000117600000000000339402014012000000010000000000000BRBBDCACNPR8604
012013102978BBDCB63     070BBDC        PN      N1000R$  000000000014500000000001450000000000142000000000014300000000001430000000000000000000000000000005000000000000700000000000000100200000000000000334802014021700000010000000000000BRBBDCACNPR8606
012013102978BBDCK30     070BBDC        PN      N1000R$  000000000025700000000002570000000000257000000000025700000000002570000000000231000000000032000001000000000000000700000000000000179900000000000299602013111800000010000000000000BRBBDCACNPR8605
012013102978BBDCK31     070BBDC        PN      N1000R$  000000000018800000000001880000000000153000000000016500000000001720000000000151000000000018900065000000000000024000000000000003980500000000000309602013111800000010000000000000BRBBDCACNPR8605
012013102978BBDCK32     070BBDC  FM    PN      N1000R$  000000000011000000000001270000000000098000000000011100000000001140000000000081000000000011400184000000000000192300000000000021464300000000000317202013111800000010000000000000BRBBDCACNPR8601
012013102978BBDCK33     070BBDC  FM    PN      N1000R$  000000000005000000000000610000000000042000000000005100000000000540000000000049000000000005400276000000000000281300000000000014549700000000000327402013111800000010000000000000BRBBDCACNPR8602
012013102978BBDCK34     070BBDC  FM    PN      N1000R$  000000000001500000000000180000000000012000000000001400000000000160000000000011000000000001600038000000000000044600000000000000667300000000000339402013111800000010000000000000BRBBDCACNPR8604
012013102978BBDCK35     070BBDC  FM    PN      N1000R$  000000000000700000000000070000000000006000000000000600000000000060000000000003000000000000700004000000000000008800000000000000056500000000000347402013111800000010000000000000BRBBDCACNPR8602
012013102978BBDCK9      070BBDC        PN      N1000R$  000000000037000000000003700000000000367000000000036800000000003680000000000000000000000000000006000000000000010000000000000003687000000000000289602013111800000010000000000000BRBBDCACNPR8605
012013102978BBDCL3      070BBDC  FM    PN      N1000R$  000000000010400000000001100000000000088000000000009800000000000970000000000000000000000019900064000000000001257100000000000123957100000000000327002013121600000010000000000000BRBBDCACNPR8601
012013102978BBDCL32     070BBDC  FM    PN      N1000R$  000000000017100000000001740000000000147000000000015900000000001520000000000140000000000000000134000000000000146200000000000023280500000000000317002013121600000010000000000000BRBBDCACNPR8600
012013102978BBDCL34     070BBDC  FM    PN      N1000R$  000000000006200000000000640000000000049000000000005500000000000550000000000047000000000005900052000000000000091200000000000005017900000000000337002013121600000010000000000000BRBBDCACNPR8600
012013102978BBDCL35     070BBDC        PN      N1000R$  000000000003000000000000300000000000030000000000003000000000000300000000000022000000000003300001000000000000000100000000000000003000000000000347002013121600000010000000000000BRBBDCACNPR8600
012013102978BBDCL36     070BBDC        PN      N1000R$  000000000010900000000001110000000000109000000000011000000000001110000000000000000000000014900003000000000000001500000000000000165500000000000323902013121600000010000000000000BRBBDCACNPR8597
012013102978BBDCL37     070BBDC        PN      N1000R$  000000000000900000000000090000000000008000000000000800000000000080000000000000000000000000000004000000000000023800000000000000192100000000000367402013121600000010000000000000BRBBDCACNPR8602
012013102978BBDCL5      070BBDC  FM    PN      N1000R$  000000000002300000000000230000000000022000000000002200000000000220000000000013000000000000000003000000000000010700000000000000242400000000000349802013121600000010000000000000BRBBDCACNPR8606
012013102982BBDCM30     080BBDCE       PN      N1000R$  000000000003800000000000380000000000038000000000003800000000000380000000000013000000000000000001000000000000001200000000000000045600000000000299802014012000000010000000000000BRBBDCACNPR8606
012013102982BBDCN30     080BBDCE       PN      N1000R$  000000000005000000000000500000000000050000000000005000000000000500000000000000000000000000000001000000000000050000000000000002500000000000000300002014021700000010000000000000BRBBDCACNPR8607
012013102982BBDCW31     080BBDCE FM    PN      N1000R$  000000000001300000000000180000000000012000000000001300000000000160000000000013000000000001800040000000000000038700000000000000540200000000000309602013111800000010000000000000BRBBDCACNPR8605
012013102982BBDCW32     080BBDCE FM    PN      N1000R$  000000000002500000000000350000000000024000000000002900000000000280000000000025000000000006900032000000000000028900000000000000860800000000000317202013111800000010000000000000BRBBDCACNPR8601
012013102982BBDCW33     080BBDCE FM    PN      N1000R$  000000000006000000000000820000000000060000000000007200000000000720000000000000000000000012300032000000000000056600000000000004088400000000000327402013111800000010000000000000BRBBDCACNPR8602
012013102982BBDCW34     080BBDCE FM    PN      N1000R$  000000000013800000000001700000000000137000000000015200000000001500000000000000000000000000000100000000000000152900000000000023338200000000000339402013111800000010000000000000BRBBDCACNPR8604
012013102982BBDCX1      080BBDCE FM    PN      N1000R$  000000000002800000000000360000000000028000000000003100000000000330000000000000000000000000000439000000000000110700000000000003485300000000000307002013121600000010000000000000BRBBDCACNPR8600
012013102982BBDCX29     080BBDCE       PN      N1000R$  000000000001100000000000120000000000011000000000001100000000000110000000000000000000000000000004000000000000019700000000000000224700000000000287402013121600000010000000000000BRBBDCACNPR8602
012013102982BBDCX3      080BBDCE FM    PN      N1000R$  000000000008900000000001060000000000089000000000009500000000001000000000000000000000000000000021000000000000040100000000000003810200000000000327002013121600000010000000000000BRBBDCACNPR8601
012013102982BBDCX32     080BBDCE FM    PN      N1000R$  000000000005300000000000630000000000053000000000006000000000000620000000000000000000000006200020000000000000044200000000000002676500000000000317002013121600000010000000000000BRBBDCACNPR8600
012013102982BBDCX33     080BBDCE       PN      N1000R$  000000000001700000000000200000000000017000000000001800000000000190000000000000000000000000000413000000000000082500000000000001550800000000000296802013121600000010000000000000BRBBDCACNPR8598
012013102982BBDCX34     080BBDCE FM    PN      N1000R$  000000000014300000000001640000000000141000000000014900000000001570000000000000000000000000000017000000000000032100000000000004808300000000000337002013121600000010000000000000BRBBDCACNPR8600
012013102982BBDCX36     080BBDCE       PN      N1000R$  000000000009000000000000910000000000090000000000009000000000000910000000000000000000000000000003000000000000092100000000000008376100000000000323902013121600000010000000000000BRBBDCACNPR8597
012013102912BBFI11B     010FII BB PROGRCI      MB   R$  000000041750000000004200000000000417500000000041916900000004200000000000419000000000042000000003000000000000000012000000000005030033000000000000009999123100000010000000000000BRBBFICTF006199
012013102912BBPO11      010FII BB PRGIICI           R$  000000001125000000000112990000000011180000000001121000000000112250000000011225000000001129800110000000000000013933000000000156193276000000000000009999123100000010000000000000BRBBPOCTF003111
012013102912BBRC11      010FII BB CORP CI           R$  000000000851000000000086000000000008510000000000855600000000086000000000008525000000000860000013000000000000001161000000000009933724000000000000009999123100000010000000000000BRBBRCCTF004125
012013102902BBRK3       010BR BROKERS  ON      NM   R$  000000000058500000000005870000000000577000000000058100000000005830000000000583000000000058401960000000000001013000000000000588689700000000000000009999123100000010000000000000BRBBRKACNOR4108
012013102996BBRK3F      020BR BROKERS  ON      NM   R$  000000000054200000000005800000000000542000000000056900000000005800000000000580000000000060900004000000000000000039000000000000022202000000000000009999123100000010000000000000BRBBRKACNOR4108
012013102902BBSE3       010BBSEGURIDADEON      NM   R$  000000000238000000000023930000000002356000000000236900000000023730000000002373000000000237507693000000000002831200000000006707411600000000000000009999123100000010000000000000BRBBSEACNOR5101
012013102996BBSE3F      020BBSEGURIDADEON      NM   R$  000000000237500000000023940000000002355000000000237300000000023610000000002361000000000237500258000000000000007876000000000018692658000000000000009999123100000010000000000000BRBBSEACNOR5101
012013102962BBSE3T      030BBSEGURIDADEON      NM090R$  000000000242000000000024240000000002417000000000242000000000024240000000000000000000000000000018000000000000100000000000000242096371000000000000009999123100000010000000000000BRBBSEACNOR5101
012013102978BBSEA25     070BBSE        ON      NM000R$  000000000004500000000000450000000000045000000000004500000000000450000000000000000000000000000002000000000000202000000000000009090000000000000250002014012000000010000000000000BRBBSEACNOR5101
012013102978BBSEK24     070BBSE        ON      NM000R$  000000000003700000000000370000000000037000000000003700000000000370000000000000000000000000000002000000000000040000000000000001480000000000000240002013111800000010000000000000BRBBSEACNOR5101
012013102982BBSEM55     080BBSEE       ON      NM000R$  000000000016300000000001630000000000163000000000016300000000001630000000000000000000000000000001000000000000005700000000000000929100000000000255002014012000000010000000000000BRBBSEACNOR5101
012013102902BBTG11      010BTG PACTUAL UNT          R$  000000000296500000000030140000000002950000000000298000000000029890000000002978000000000299000454000000000000078500000000000233999100000000000000009999123100000010000000000000BRBBTGUNT007105
012013102996BBTG11F     020BTG PACTUAL UNT          R$  000000000290200000000030090000000002902000000000297000000000030090000000002930000000000301000006000000000000000150000000000000445625000000000000009999123100000010000000000000BRBBTGUNT007105
012013102962BBTG11T     030BTG PACTUAL UNT       016R$  000000000300200000000030030000000003002000000000300200000000030030000000000000000000000000000002000000000000004000000000000012008606000000000000009999123100000010000000000000BRBBTGUNT007105
012013102912BBVJ11      010FII C JARDIMCI           R$  000000000790000000000079000000000007806000000000787400000000078780000000007815000000000787800015000000000000001489000000000011725122000000000000009999123100000010000000000000BRBBVJCTF001134
012013102912BCFF11B     010FII BC FFII CI      MB   R$  000000000889000000000088990000000008700000000000881100000000088000000000008800000000000885000093000000000000009199000000000081053396000000000000009999123100000010000000000000BRBCFFCTF000143
012013102902BDLL4       010BARDELLA    PN           R$  000000000509900000000050990000000005097000000000509800000000050970000000005000000000000509700003000000000000000700000000000003569100000000000000009999123100000010000000000000BRBDLLACNPR8149
012013102902BEEF3       010MINERVA     ON      NM   R$  000000000095000000000009570000000000938000000000094300000000009450000000000943000000000094501591000000000000313500000000000295883100000000000000009999123100000010000000000000BRBEEFACNOR6104
012013102996BEEF3F      020MINERVA     ON      NM   R$  000000000094800000000009480000000000924000000000093800000000009420000000000935000000000100000008000000000000000262000000000000245996000000000000009999123100000010000000000000BRBEEFACNOR6104
012013102902BEES3       010BANESTES    ON           R$  000000000005000000000000510000000000050000000000005000000000000500000000000050000000000005100018000000000000207400000000000010387200000000000000009999123100000010000000000000BRBEESACNOR9245
012013102902BEES4       010BANESTES    PN           R$  000000000004800000000000480000000000048000000000004800000000000480000000000047000000000004800007000000000000018900000000000000907200000000000000009999123100000010000000000000BRBEESACNPR6170
012013102902BEMA3       010BEMATECH    ON      NM   R$  000000000077300000000007790000000000770000000000077300000000007770000000000775000000000077700237000000000000054400000000000042073300000000000000009999123100000010000000000000BRBEMAACNOR0114
012013102996BEMA3F      020BEMATECH    ON      NM   R$  000000000077000000000007800000000000770000000000077700000000007800000000000767000000000078000002000000000000000022000000000000017110000000000000009999123100000010000000000000BRBEMAACNOR0114
012013102902BERK34      010BERKSHIRE   DRN          R$  000000002555000000000255500000000025550000000002555000000000255500000000025500000000002578000001000000000000000100000000000002555000000000000000009999123100000010000000000000BRBERKBDR002100
012013102902BHGR3       010BHG         ON      NM   R$  000000000169000000000016900000000001640000000000166100000000016600000000001658000000000166000251000000000000058100000000000096561400000000000000009999123100000010000000000000BRBHGRACNOR9101
012013102996BHGR3F      020BHG         ON      NM   R$  000000000165000000000016500000000001650000000000165000000000016500000000001625000000000169900001000000000000000007000000000000011550000000000000009999123100000010000000000000BRBHGRACNOR9101
012013102902BICB4       010BICBANCO    PN      N1   R$  000000000066300000000007050000000000663000000000069300000000007050000000000696000000000070500689000000000000691100000000000479500800000000000000009999123100000010000000000000BRBICBACNPR7131
012013102996BICB4F      020BICBANCO    PN      N1   R$  000000000065400000000007010000000000654000000000067500000000007010000000000650000000000071800010000000000000000283000000000000191105000000000000009999123100000010000000000000BRBICBACNPR7131
012013102962BICB4T      030BICBANCO    PN      N1030R$  000000000069200000000007090000000000692000000000070200000000007060000000000000000000000000000012000000000000030700000000000021567414000000000000009999123100000010000000000000BRBICBACNPR7131
012013102962BICB4T      030BICBANCO    PN      N1062R$  000000000070000000000007010000000000700000000000070000000000007010000000000000000000000000000002000000000000010000000000000007009587000000000000009999123100000010000000000000BRBICBACNPR7131
012013102996BIOM3F      020BIOMM       ON           R$  000000000091000000000010200000000000910000000000101800000000010200000000000980000000000101800002000000000000000101000000000000102910000000000000009999123100000010000000000000BRBIOMACNOR2101
012013102902BISA3       010BROOKFIELD  ON      NM   R$  000000000014700000000001480000000000143000000000014500000000001440000000000144000000000014502367000000000006478800000000000941639100000000000000009999123100000010000000000000BRBISAACNOR8109
012013102996BISA3F      020BROOKFIELD  ON      NM   R$  000000000014500000000001460000000000142000000000014400000000001420000000000142000000000014600016000000000000000558000000000000080496000000000000009999123100000010000000000000BRBISAACNOR8109
012013102962BISA3T      030BROOKFIELD  ON      NM030R$  000000000014600000000001470000000000146000000000014600000000001470000000000000000000000000000002000000000000030000000000000004381320000000000000009999123100000010000000000000BRBISAACNOR8109
012013102962BISA3T      030BROOKFIELD  ON      NM090R$  000000000014900000000001500000000000149000000000014900000000001500000000000000000000000000000002000000000000100000000000000014912440000000000000009999123100000010000000000000BRBISAACNOR8109
012013102902BMEB4       010MERC BRASIL PN           R$  000000000108000000000010800000000001080000000000108000000000010800000000001075000000000114500001000000000000001000000000000001080000000000000000009999123100000010000000000000BRBMEBACNPR5191
012013102902BMIN4       010MERC INVEST PN           R$  000000000002700000000000270000000000027000000000002700000000000270000000000027000000000002800001000000000000002000000000000000054000000000000000009999123100000010000000000000BRBMINACNPR1160
012013102902BMKS3       010BIC MONARK  ON           R$  000000003400000000000340000000000033001000000003393700000000330010000000032500000000003400000004000000000000000016000000000000543001000000000000009999123100000010000000000000BRBMKSACNOR9155
012013102912BMLC11B     010FII BMBRC LCCI      MB   R$  000000001175000000000117500000000011690000000001169500000000116900000000011601000000001168000008000000000000000448000000000005239687000000000000009999123100000010000000000000BRBMLCCTF004120
012013102902BMTO4       010BRASMOTOR   PN  ED       R$  000000000008500000000000900000000000082000000000008700000000000840000000000083000000000008400050000000000000280000000000000024369000000000000000009999123100000010000000000000BRBMTOACNPR6066
012013102996BMTO4F      020BRASMOTOR   PN  ED       R$  000000000009000000000000900000000000090000000000009000000000000900000000000084000000000009100002000000000000000100000000000000009000000000000000009999123100000010000000000000BRBMTOACNPR6066
012013102902BNBR4       010NORD BRASIL PN           R$  000000000240000000000024000000000002400000000000240000000000024000000000002400000000000289800002000000000000000200000000000000480000000000000000009999123100000010000000000000BRBNBRACNPR5187
012013102914BOVA11      010ISHARES BOVACI           R$  000000000536000000000053730000000005296000000000531800000000053050000000005305000000000532002772000000000001703620000000009060061450000000000000009999123100000010000000000000BRBOVACTF003101
012013102996BOVA11F     020ISHARES BOVACI           R$  000000000536500000000053650000000005202000000000531400000000053300000000005330000000000539900011000000000000000024000000000000127550000000000000009999123100000010000000000000BRBOVACTF003101
012013102912BPFF11      010FII ABSOLUTOCI           R$  000000000844000000000084700000000008360000000000837700000000084250000000008400000000000842500025000000000000005148000000000043125207000000000000009999123100000010000000000000BRBPFFCTF002106
012013102902BPHA3       010BR PHARMA   ON      NM   R$  000000000084500000000008700000000000845000000000085000000000008550000000000845000000000085500552000000000000231400000000000196855700000000000000009999123100000010000000000000BRBPHAACNOR6102
012013102996BPHA3F      020BR PHARMA   ON      NM   R$  000000000085500000000008550000000000855000000000085500000000008550000000000844000000000089900001000000000000000001000000000000000855000000000000009999123100000010000000000000BRBPHAACNOR6102
012013102962BPHA3T      030BR PHARMA   ON      NM030R$  000000000085900000000008600000000000859000000000085900000000008600000000000000000000000000000002000000000000001000000000000000859041000000000000009999123100000010000000000000BRBPHAACNOR6102
012013102962BPHA3T      030BR PHARMA   ON      NM090R$  000000000086700000000008680000000000867000000000086700000000008680000000000000000000000000000002000000000000002000000000000001735016000000000000009999123100000010000000000000BRBPHAACNOR6102
012013102902BPNM4       010PANAMERICANOPN      N1   R$  000000000051600000000005190000000000502000000000051100000000005180000000000516000000000051800293000000000000236600000000000121093600000000000000009999123100000010000000000000BRBPNMACNPR6111
012013102996BPNM4F      020PANAMERICANOPN      N1   R$  000000000051000000000005100000000000501000000000050200000000005010000000000503000000000053500002000000000000000075000000000000037665000000000000009999123100000010000000000000BRBPNMACNPR6111
012013102902BRAP3       010BRADESPAR   ON      N1   R$  000000000213100000000021470000000002126000000000213900000000021400000000002126000000000214000014000000000000002900000000000006203700000000000000009999123100000010000000000000BRBRAPACNOR5124
012013102996BRAP3F      020BRADESPAR   ON      N1   R$  000000000213500000000021990000000002135000000000214100000000021990000000002136000000000219900007000000000000000106000000000000227022000000000000009999123100000010000000000000BRBRAPACNOR5124
012013102902BRAP4       010BRADESPAR   PN      N1   R$  000000000260800000000026170000000002580000000000259500000000026170000000002615000000000261703686000000000001294500000000003359680300000000000000009999123100000010000000000000BRBRAPACNPR2124
012013102996BRAP4F      020BRADESPAR   PN      N1   R$  000000000260000000000026150000000002571000000000259700000000026100000000002606000000000260900041000000000000001279000000000003322242000000000000009999123100000010000000000000BRBRAPACNPR2124
012013102962BRAP4T      030BRADESPAR   PN      N1062R$  000000000262500000000026260000000002625000000000262500000000026260000000000000000000000000000002000000000000000300000000000000787503000000000000009999123100000010000000000000BRBRAPACNPR2124
012013102912BRCR11      010FII BC FUND CI           R$  000000001372000000000137210000000013640000000001369100000000136800000000013640000000001368000193000000000000017720000000000242615199000000000000009999123100000010000000000000BRBRCRCTF000134
012013102902BRFS3       010BRF SA      ON      NM   R$  000000000533500000000053400000000005118000000000517500000000051270000000005127000000000513018896000000000005096700000000026374840600000000000000009999123100000010000000000000BRBRFSACNOR8110
012013102996BRFS3F      020BRF SA      ON      NM   R$  000000000534700000000053470000000005122000000000519200000000051270000000005125000000000512700277000000000000007547000000000039182170000000000000009999123100000010000000000000BRBRFSACNOR8110
012013102962BRFS3T      030BRF SA      ON      NM016R$  000000000514900000000051500000000005149000000000514900000000051500000000000000000000000000000002000000000000000500000000000002574779000000000000009999123100000010000000000000BRBRFSACNOR8110
012013102962BRFS3T      030BRF SA      ON      NM030R$  000000000516500000000051660000000005164000000000516500000000051650000000000000000000000000000006000000000000000500000000000002582518000000000000009999123100000010000000000000BRBRFSACNOR8110
012013102962BRFS3T      030BRF SA      ON      NM045R$  000000000520900000000052100000000005209000000000520900000000052100000000000000000000000000000002000000000000000100000000000000520972000000000000009999123100000010000000000000BRBRFSACNOR8110
012013102962BRFS3T      030BRF SA      ON      NM055R$  000000000524700000000052480000000005247000000000524700000000052480000000000000000000000000000002000000000000000500000000000002623929000000000000009999123100000010000000000000BRBRFSACNOR8110
012013102962BRFS3T      030BRF SA      ON      NM062R$  000000000527900000000052800000000005200000000000524600000000052010000000000000000000000000000008000000000000003300000000000017312134000000000000009999123100000010000000000000BRBRFSACNOR8110
012013102962BRFS3T      030BRF SA      ON      NM090R$  000000000539000000000053910000000005234000000000524700000000052350000000000000000000000000000006000000000000024000000000000125950595000000000000009999123100000010000000000000BRBRFSACNOR8110
012013102962BRFS3T      030BRF SA      ON      NM120R$  000000000535100000000053520000000005284000000000534100000000052850000000000000000000000000000008000000000000004900000000000026173741000000000000009999123100000010000000000000BRBRFSACNOR8110
012013102978BRFSK51     070BRFS        ON      NM000R$  000000000027000000000002700000000000270000000000027000000000002700000000000000000000000000000001000000000000005000000000000001350000000000000510002013111800000010000000000000BRBRFSACNOR8110
012013102978BRFSK52     070BRFS        ON      NM000R$  000000000007200000000000720000000000072000000000007200000000000720000000000000000000000000000002000000000000000800000000000000057600000000000520002013111800000010000000000000BRBRFSACNOR8110
012013102978BRFSL24     070BRFS        ON      NM000R$  000000000008000000000000800000000000076000000000007800000000000760000000000000000000000008000005000000000000150100000000000011831000000000000541502013121600000010000000000000BRBRFSACNOR8109
012013102978BRFSL52     070BRFS        ON      NM000R$  000000000027000000000002700000000000270000000000027000000000002700000000000000000000000000000001000000000000005000000000000001350000000000000520002013121600000010000000000000BRBRFSACNOR8110
012013102982BRFSM51     080BRFSE       ON      NM000R$  000000000014800000000001490000000000148000000000014800000000001490000000000000000000000000000003000000000000200000000000000029660000000000000510002014012000000010000000000000BRBRFSACNOR8110
012013102982BRFSX50     080BRFSE       ON      NM000R$  000000000008700000000000890000000000085000000000008600000000000890000000000000000000000000000004000000000000150000000000000013030000000000000500002013121600000010000000000000BRBRFSACNOR8110
012013102982BRFSX52     080BRFSE       ON      NM000R$  000000000009000000000000900000000000090000000000009000000000000900000000000000000000000000000001000000000000000100000000000000009000000000000520002013121600000010000000000000BRBRFSACNOR8110
012013102996BRGE3F      020ALFA CONSORCON           R$  000000000050000000000005000000000000500000000000050000000000005000000000000400000000000050000001000000000000000001000000000000000500000000000000009999123100000010000000000000BRBRGEACNOR6197
012013102902BRIN3       010BR INSURANCEON      NM   R$  000000000199500000000020010000000001983000000000199000000000019900000000001986000000000199000429000000000000550700000000001096028300000000000000009999123100000010000000000000BRBRINACNOR3106
012013102996BRIN3F      020BR INSURANCEON      NM   R$  000000000199000000000020000000000001985000000000198600000000019870000000001986000000000200000005000000000000000140000000000000278103000000000000009999123100000010000000000000BRBRINACNOR3106
012013102902BRIV3       010ALFA INVEST ON           R$  000000000065400000000006540000000000654000000000065400000000006540000000000654000000000068000001000000000000000100000000000000065400000000000000009999123100000010000000000000BRBRIVACNOR6197
012013102996BRIV3F      020ALFA INVEST ON           R$  000000000065000000000006500000000000650000000000065000000000006500000000000654000000000070000001000000000000000062000000000000040300000000000000009999123100000010000000000000BRBRIVACNOR6197
012013102902BRIV4       010ALFA INVEST PN           R$  000000000056000000000005870000000000560000000000057500000000005870000000000550000000000058700004000000000000000500000000000000287900000000000000009999123100000010000000000000BRBRIVACNPR3197
012013102996BRIV4F      020ALFA INVEST PN           R$  000000000056000000000005600000000000560000000000056000000000005600000000000552000000000059800001000000000000000088000000000000049280000000000000009999123100000010000000000000BRBRIVACNPR3197
012013102902BRKM3       010BRASKEM     ON      N1   R$  000000000145200000000014650000000001440000000000144700000000014650000000001420000000000146500005000000000000002300000000000003329100000000000000009999123100000010000000000000BRBRKMACNOR1110
012013102902BRKM5       010BRASKEM     PNA     N1   R$  000000000194800000000019750000000001936000000000194800000000019530000000001950000000000195305278000000000000960000000000001870252900000000000000009999123100000010000000000000BRBRKMACNPA4110
012013102996BRKM5F      020BRASKEM     PNA     N1   R$  000000000198000000000020000000000001937000000000195400000000019500000000001919000000000195000045000000000000001494000000000002920524000000000000009999123100000010000000000000BRBRKMACNPA4110
012013102962BRKM5T      030BRASKEM     PNA     N1062R$  000000000197100000000019720000000001971000000000197100000000019720000000000000000000000000000002000000000000011600000000000022870616000000000000009999123100000010000000000000BRBRKMACNPA4110
012013102902BRML3       010BR MALLS PARON      NM   R$  000000000220100000000022100000000002162000000000217600000000021700000000002168000000000217006226000000000001506900000000003279120500000000000000009999123100000010000000000000BRBRMLACNOR9105
012013102996BRML3F      020BR MALLS PARON      NM   R$  000000000221200000000022130000000002165000000000217500000000021650000000002160000000000217900065000000000000002227000000000004844685000000000000009999123100000010000000000000BRBRMLACNOR9105
012013102902BRPR3       010BR PROPERT  ON      NM   R$  000000000187600000000018810000000001860000000000186600000000018720000000001866000000000187206779000000000001367700000000002553075800000000000000009999123100000010000000000000BRBRPRACNOR9112
012013102996BRPR3F      020BR PROPERT  ON      NM   R$  000000000187000000000018750000000001845000000000186400000000018720000000001844000000000190000031000000000000000970000000000001809156000000000000009999123100000010000000000000BRBRPRACNOR9112
012013102962BRPR3T      030BR PROPERT  ON      NM030R$  000000000187800000000018820000000001878000000000188000000000018820000000000000000000000000000008000000000000025000000000000047004311000000000000009999123100000010000000000000BRBRPRACNOR9112
012013102996BRSR3F      020BANRISUL    ON      N1   R$  000000000135000000000013500000000001350000000000135000000000013500000000001350000000000150000001000000000000000001000000000000001350000000000000009999123100000010000000000000BRBRSRACNOR3131
012013102996BRSR5F      020BANRISUL    PNA     N1   R$  000000000130000000000013000000000001300000000000130000000000013000000000001300000000000170000002000000000000000002000000000000002600000000000000009999123100000010000000000000BRBRSRACNPA6135
012013102902BRSR6       010BANRISUL    PNB     N1   R$  000000000153100000000016020000000001522000000000154100000000016000000000001596000000000160003309000000000002389500000000003683453800000000000000009999123100000010000000000000BRBRSRACNPB4134
012013102996BRSR6F      020BANRISUL    PNB     N1   R$  000000000153000000000015990000000001528000000000156500000000015980000000001545000000000164900017000000000000000513000000000000803187000000000000009999123100000010000000000000BRBRSRACNPB4134
012013102902BSEV3       010BIOSEV      ON      NM   R$  000000000094000000000009400000000000931000000000093600000000009350000000000817000000000095000006000000000000005000000000000004683900000000000000009999123100000010000000000000BRBSEVACNOR3100
012013102902BTOW3       010B2W DIGITAL ON      NM   R$  000000000171400000000017430000000001669000000000169000000000016770000000001677000000000168801166000000000000248300000000000419678700000000000000009999123100000010000000000000BRBTOWACNOR8105
012013102996BTOW3F      020B2W DIGITAL ON      NM   R$  000000000170000000000017020000000001632000000000168000000000016950000000001700000000000171500014000000000000000192000000000000322765000000000000009999123100000010000000000000BRBTOWACNOR8105
012013102902BTTL3       010BATTISTELLA ON           R$  000000000009400000000000950000000000094000000000009400000000000950000000000080000000000009500004000000000000060300000000000005668300000000000000009999123100000010000000000000BRBTTLACNOR0105
012013102996BTTL3F      020BATTISTELLA ON           R$  000000000008500000000000850000000000085000000000008500000000000850000000000085000000000010000001000000000000000001000000000000000085000000000000009999123100000010000000000000BRBTTLACNOR0105
012013102902BTTL4       010BATTISTELLA PN           R$  000000000009700000000000980000000000097000000000009700000000000980000000000094000000000009800004000000000000001100000000000000107300000000000000009999123100000010000000000000BRBTTLACNPR7105
012013102902BVMF3       010BMFBOVESPA  ON      NM   R$  000000000128700000000012960000000001275000000000128700000000012930000000001289000000000129313025000000000006381200000000008216894500000000000000009999123100000010000000000000BRBVMFACNOR3126
012013102996BVMF3F      020BMFBOVESPA  ON      NM   R$  000000000127100000000012970000000001271000000000128400000000012890000000001290000000000129500126000000000000003817000000000004902446000000000000009999123100000010000000000000BRBVMFACNOR3126
012013102962BVMF3T      030BMFBOVESPA  ON      NM030R$  000000000129500000000012960000000001295000000000129500000000012960000000000000000000000000000002000000000000013072000000000016940034000000000000009999123100000010000000000000BRBVMFACNOR3126
012013102962BVMF3T      030BMFBOVESPA  ON      NM120R$  000000000133300000000013340000000001333000000000133300000000013340000000000000000000000000000002000000000000001000000000000001333843000000000000009999123100000010000000000000BRBVMFACNOR3126
012013102978BVMFA13     070BVMF        ON      NM000R$  000000000006900000000000690000000000069000000000006900000000000690000000000000000000000000000002000000000000006000000000000000414000000000000130002014012000000010000000000000BRBVMFACNOR3126
012013102978BVMFK11     070BVMF        ON      NM000R$  000000000020700000000002070000000000207000000000020700000000002070000000000146000000000000000001000000000000000100000000000000020700000000000108502013111800000010000000000000BRBVMFACNOR3125
012013102978BVMFK12     070BVMF        ON      NM000R$  000000000010800000000001190000000000107000000000011500000000001150000000000108000000000011500039000000000000028100000000000003237000000000000118502013111800000010000000000000BRBVMFACNOR3125
012013102978BVMFK13     070BVMF  FM    ON      NM000R$  000000000003200000000000400000000000031000000000003500000000000370000000000033000000000003700412000000000000422000000000000015022700000000000128502013111800000010000000000000BRBVMFACNOR3125
012013102978BVMFK14     070BVMF  FM    ON      NM000R$  000000000000700000000000070000000000004000000000000500000000000060000000000005000000000000600250000000000000293400000000000001749500000000000138502013111800000010000000000000BRBVMFACNOR3125
012013102978BVMFK42     070BVMF  FM    ON      NM000R$  000000000005300000000000630000000000051000000000005700000000000590000000000000000000000008500009000000000000020600000000000001182100000000000125002013111800000010000000000000BRBVMFACNOR3126
012013102978BVMFK43     070BVMF  FM    ON      NM000R$  000000000001100000000000120000000000010000000000001100000000000100000000000005000000000001300005000000000000005600000000000000061900000000000135002013111800000010000000000000BRBVMFACNOR3126
012013102978BVMFK44     070BVMF  FM    ON      NM000R$  000000000000200000000000020000000000002000000000000200000000000020000000000001000000000000400005000000000000008000000000000000016000000000000145002013111800000010000000000000BRBVMFACNOR3126
012013102978BVMFL13     070BVMF  FM    ON      NM000R$  000000000005500000000000600000000000055000000000005700000000000560000000000044000000000005800028000000000000058200000000000003330200000000000128502013121600000010000000000000BRBVMFACNOR3125
012013102978BVMFL14     070BVMF  FM    ON      NM000R$  000000000002000000000000220000000000019000000000001900000000000200000000000005000000000002400042000000000000109900000000000002187400000000000137402013121600000010000000000000BRBVMFACNOR3124
012013102978BVMFL42     070BVMF  FM    ON      NM000R$  000000000008200000000000830000000000078000000000007900000000000780000000000000000000000000000005000000000000011200000000000000893400000000000125002013121600000010000000000000BRBVMFACNOR3126
012013102978BVMFL44     070BVMF  FM    ON      NM000R$  000000000000800000000000090000000000008000000000000800000000000080000000000000000000000000000005000000000000012500000000000000102200000000000145002013121600000010000000000000BRBVMFACNOR3126
012013102978BVMFL64     070BVMF  FM    ON      NM000R$  000000000001400000000000140000000000014000000000001400000000000140000000000000000000000000000001000000000000001800000000000000025200000000000140002013121600000010000000000000BRBVMFACNOR3126
012013102982BVMFM12     080BVMFE       ON      NM000R$  000000000002400000000000250000000000023000000000002400000000000230000000000000000000000000000003000000000000005400000000000000129600000000000120002014012000000010000000000000BRBVMFACNOR3126
012013102982BVMFW12     080BVMFE FM    ON      NM000R$  000000000000600000000000080000000000006000000000000700000000000060000000000005000000000000700057000000000000053800000000000000381800000000000118502013111800000010000000000000BRBVMFACNOR3125
012013102982BVMFW13     080BVMFE FM    ON      NM000R$  000000000003300000000000330000000000025000000000002800000000000270000000000022000000000003700142000000000000078600000000000002202200000000000128502013111800000010000000000000BRBVMFACNOR3125
012013102982BVMFW42     080BVMFE FM    ON      NM000R$  000000000002200000000000220000000000015000000000001800000000000150000000000000000000000002100014000000000000034800000000000000637500000000000125002013111800000010000000000000BRBVMFACNOR3126
012013102982BVMFW43     080BVMFE FM    ON      NM000R$  000000000006800000000000690000000000068000000000006800000000000690000000000000000000000000000002000000000000002000000000000000137000000000000135002013111800000010000000000000BRBVMFACNOR3126
012013102982BVMFX13     080BVMFE FM    ON      NM000R$  000000000004300000000000430000000000043000000000004300000000000430000000000037000000000000000011000000000000212600000000000009141800000000000128502013121600000010000000000000BRBVMFACNOR3125
012013102982BVMFX14     080BVMFE FM    ON      NM000R$  000000000010200000000001020000000000101000000000010100000000001010000000000000000000000000000002000000000000003500000000000000355700000000000137402013121600000010000000000000BRBVMFACNOR3124
012013102982BVMFX43     080BVMFE       ON      NM000R$  000000000005900000000000590000000000058000000000005800000000000590000000000000000000000000000004000000000000008600000000000000503700000000000131902013121600000010000000000000BRBVMFACNOR3126
012013102982BVMFX62     080BVMFE FM    ON      NM000R$  000000000001900000000000200000000000019000000000001900000000000200000000000000000000000000000003000000000000006600000000000000127600000000000120002013121600000010000000000000BRBVMFACNOR3126
012013102996CALI4F      020CONST A LINDPN           R$  000000002200000000000220000000000022000000000002200000000000220000000000017000000000002500000001000000000000000001000000000000022000000000000000009999123100000010000000000000BRCALIACNPR8131
012013102902CAMB4       010CAMBUCI     PN           R$  000000000017800000000001840000000000178000000000017800000000001800000000000179000000000019500009000000000000011900000000000002121400000000000000009999123100000010000000000000BRCAMBACNPR1117
012013102902CARD3       010CSU CARDSYSTON      NM   R$  000000000030000000000003010000000000297000000000030000000000003000000000000300000000000030700010000000000000045300000000000013590700000000000000009999123100000010000000000000BRCARDACNOR9105
012013102996CARD3F      020CSU CARDSYSTON      NM   R$  000000000028900000000002890000000000289000000000028900000000002890000000000289000000000030900001000000000000000002000000000000000578000000000000009999123100000010000000000000BRCARDACNOR9105
012013102902CBEE3       010AMPLA ENERG ON *         R$  000000000011900000000001190000000000119000000000011900000000001190000000000119000000000012900001000000000000800000000000000000095200000000000000009999123100010000000000000000BRCBEEACNOR3149
012013102996CBEE3F      020AMPLA ENERG ON *         R$  000000000011800000000001180000000000118000000000011800000000001180000000000051000000000011800002000000000000000996000000000000000117000000000000009999123100010000000000000000BRCBEEACNOR3149
012013102996CBMA3F      020COBRASMA    ON           R$  000000000000400000000000040000000000004000000000000400000000000040000000000004000000000000500002000000000000005000000000000000020000000000000000009999123100000010000000000000BRCBMAACNOR4124
012013102902CBMA4       010COBRASMA    PN           R$  000000000000400000000000050000000000004000000000000400000000000050000000000004000000000000500006000000000000070000000000000000290000000000000000009999123100000010000000000000BRCBMAACNPR1124
012013102996CBMA4F      020COBRASMA    PN           R$  000000000000400000000000040000000000004000000000000400000000000040000000000004000000000000500003000000000000009000000000000000036000000000000000009999123100000010000000000000BRCBMAACNPR1124
012013102908CCHI3       010CHIARELLI   ON           R$  000000000001300000000000130000000000013000000000001300000000000130000000000013000000000001400007000000000000090000000000000001170000000000000000009999123100000010000000000000BRCCHIACNOR5123
012013102996CCHI3F      020CHIARELLI   ON           R$  000000000001300000000000130000000000013000000000001300000000000130000000000012000000000001700003000000000000012000000000000000156000000000000000009999123100000010000000000000BRCCHIACNOR5123
012013102908CCHI4       010CHIARELLI   PN           R$  000000000000900000000000090000000000008000000000000800000000000090000000000008000000000001000009000000000000100000000000000000890000000000000000009999123100000010000000000000BRCCHIACNPR2122
012013102996CCHI4F      020CHIARELLI   PN           R$  000000000000800000000000080000000000008000000000000800000000000080000000000008000000000000900003000000000000007500000000000000060000000000000000009999123100000010000000000000BRCCHIACNPR2122
012013102902CCPR3       010CYRE COM-CCPON      NM   R$  000000000200300000000020160000000002000000000000200100000000020000000000002000000000000202600012000000000000008400000000000016809400000000000000009999123100000010000000000000BRCCPRACNOR9107
012013102996CCPR3F      020CYRE COM-CCPON      NM   R$  000000000199400000000019940000000001978000000000198500000000019780000000001978000000000203500002000000000000000059000000000000117118000000000000009999123100000010000000000000BRCCPRACNOR9107
012013102902CCRO3       010CCR SA      ON      NM   R$  000000000188400000000018960000000001837000000000186200000000018630000000001860000000000186313643000000000004357800000000008116477100000000000000009999123100000010000000000000BRCCROACNOR2123
012013102996CCRO3F      020CCR SA      ON      NM   R$  000000000188500000000018950000000001839000000000186600000000018520000000001844000000000186800101000000000000002940000000000005486641000000000000009999123100000010000000000000BRCCROACNOR2123
012013102962CCRO3T      030CCR SA      ON      NM030R$  000000000187600000000018770000000001876000000000187600000000018770000000000000000000000000000002000000000000002000000000000003752827000000000000009999123100000010000000000000BRCCROACNOR2123
012013102978CCROK69     070CCRO        ON      NM000R$  000000000002000000000000240000000000020000000000002000000000000240000000000000000000000000000004000000000000028400000000000000569600000000000190002013111800000010000000000000BRCCROACNOR2123
012013102902CCXC3       010CCX CARVAO  ON      NM   R$  000000000011400000000001370000000000104000000000012300000000001370000000000137000000000013902856000000000010608800000000001313968900000000000000009999123100000010000000000000BRCCXCACNOR5100
012013102996CCXC3F      020CCX CARVAO  ON      NM   R$  000000000012000000000001340000000000108000000000011900000000001340000000000132000000000013300024000000000000000869000000000000104072000000000000009999123100000010000000000000BRCCXCACNOR5100
012013102962CCXC3T      030CCX CARVAO  ON      NM016R$  000000000012000000000001340000000000120000000000013000000000001340000000000000000000000000000012000000000000685000000000000089386779000000000000009999123100000010000000000000BRCCXCACNOR5100
012013102902CEBR3       010CEB         ON           R$  000000000159700000000015970000000001597000000000159700000000015970000000001300000000000159800003000000000000002000000000000003194000000000000000009999123100000010000000000000BRCEBRACNOR5114
012013102902CEBR6       010CEB         PNB          R$  000000000173000000000017300000000001590000000000159100000000015900000000001500000000000159000006000000000000014200000000000022597900000000000000009999123100000010000000000000BRCEBRACNPB6113
012013102908CELP3       010CELPA       ON           R$  000000000008800000000000890000000000088000000000008800000000000890000000000070000000000008900002000000000000005100000000000000453800000000000000009999123100000010000000000000BRCELPACNOR8112
012013102908CELP7       010CELPA       PNC          R$  000000000005300000000000530000000000050000000000005200000000000500000000000050000000000005500011000000000000045000000000000002373000000000000000009999123100000010000000000000BRCELPACNPC7114
012013102912CEOC11B     010FII CEO CCP CI      MB   R$  000000000850000000000087000000000008500000000000863700000000087000000000008547000000000870000116000000000000002872000000000024806673000000000000009999123100000010000000000000BRCEOCCTF003111
012013102902CEPE5       010CELPE       PNA          R$  000000000215000000000021500000000002150000000000215000000000021500000000001800000000000215000001000000000000000200000000000000430000000000000000009999123100000010000000000000BRCEPEACNPA6151
012013102902CESP3       010CESP        ON      N1   R$  000000000188500000000019350000000001885000000000189900000000019000000000001891000000000192900006000000000000001900000000000003609000000000000000009999123100000010000000000000BRCESPACNOR3160
012013102902CESP6       010CESP        PNB     N1   R$  000000000224600000000022610000000002234000000000224600000000022490000000002240000000000224901745000000000000278300000000000625302400000000000000009999123100000010000000000000BRCESPACNPB4119
012013102996CESP6F      020CESP        PNB     N1   R$  000000000228000000000022960000000002225000000000225100000000022790000000002236000000000227900020000000000000000616000000000001387102000000000000009999123100000010000000000000BRCESPACNPB4119
012013102902CGAS3       010COMGAS      ON           R$  000000000540000000000054200000000005400000000000540500000000054200000000005400000000000550000002000000000000000400000000000002162000000000000000009999123100000010000000000000BRCGASACNOR0132
012013102902CGAS5       010COMGAS      PNA          R$  000000000595900000000060990000000005920000000000596700000000059500000000005922000000000595000049000000000000011500000000000068630000000000000000009999123100000010000000000000BRCGASACNPA3129
012013102996CGAS5F      020COMGAS      PNA          R$  000000000622000000000062200000000005904000000000607400000000059040000000005904000000000600000002000000000000000111000000000000674304000000000000009999123100000010000000000000BRCGASACNPA3129
012013102902CGRA3       010GRAZZIOTIN  ON           R$  000000000167000000000016700000000001632000000000166300000000016700000000001632000000000167000005000000000000001200000000000001996200000000000000009999123100000010000000000000BRCGRAACNOR2061
012013102902CGRA4       010GRAZZIOTIN  PN           R$  000000000175200000000017550000000001750000000000175200000000017500000000001750000000000176200009000000000000002500000000000004381000000000000000009999123100000010000000000000BRCGRAACNPR9061
012013102996CGRA4F      020GRAZZIOTIN  PN           R$  000000000175000000000017500000000001730000000000174900000000017500000000001750000000000180000007000000000000000060000000000000104980000000000000009999123100000010000000000000BRCGRAACNPR9061
012013102902CIEL3       010CIELO       ON      NM   R$  000000000661700000000066990000000006551000000000663300000000066720000000006672000000000669006335000000000001391000000000009227106200000000000000009999123100000010000000000000BRCIELACNOR3112
012013102996CIEL3F      020CIELO       ON      NM   R$  000000000657900000000066980000000006552000000000661400000000066970000000006690000000000669700127000000000000003191000000000021112242000000000000009999123100000010000000000000BRCIELACNOR3112
012013102978CIELA68     070CIEL        ON      NM000R$  000000000023500000000002350000000000235000000000023500000000002350000000000000000000000000000004000000000000007800000000000001833000000000000680002014012000000010000000000000BRCIELACNOR3112
012013102982CIELM62     080CIELE       ON      NM000R$  000000000008800000000000880000000000088000000000008800000000000880000000000000000000000000000004000000000000007800000000000000686400000000000620002014012000000010000000000000BRCIELACNOR3112
012013102982CIELM66     080CIELE       ON      NM000R$  000000000024700000000002470000000000247000000000024700000000002470000000000000000000000000000004000000000000007800000000000001926600000000000660002014012000000010000000000000BRCIELACNOR3112
012013102982CIELM71     080CIELE       ON      NM000R$  000000000046700000000004670000000000467000000000046700000000004670000000000000000000000000000001000000000000001400000000000000653800000000000710002014012000000010000000000000BRCIELACNOR3112
012013102902CLSC4       010CELESC      PN      N2   R$  000000000177100000000017850000000001771000000000177400000000017770000000001771000000000177900048000000000000011400000000000020227700000000000000009999123100000010000000000000BRCLSCACNPR3107
012013102996CLSC4F      020CELESC      PN      N2   R$  000000000177000000000018000000000001770000000000177900000000017700000000001770000000000180500004000000000000000023000000000000040920000000000000009999123100000010000000000000BRCLSCACNPR3107
012013102902CMIG3       010CEMIG       ON      N1   R$  000000000196500000000019900000000001965000000000197600000000019900000000001970000000000199000112000000000000044600000000000088140500000000000000009999123100000010000000000000BRCMIGACNOR6208
012013102996CMIG3F      020CEMIG       ON      N1   R$  000000000202200000000020220000000001961000000000197800000000019850000000001960000000000198500024000000000000000599000000000001185107000000000000009999123100000010000000000000BRCMIGACNOR6208
012013102902CMIG4       010CEMIG       PN      N1   R$  000000000198400000000019970000000001970000000000198600000000019920000000001989000000000199204905000000000001641300000000003260908600000000000000009999123100000010000000000000BRCMIGACNPR3208
012013102996CMIG4F      020CEMIG       PN      N1   R$  000000000200000000000020000000000001966000000000198400000000019840000000001986000000000199000109000000000000002552000000000005068177000000000000009999123100000010000000000000BRCMIGACNPR3208
012013102962CMIG4T      030CEMIG       PN      N1062R$  000000000202100000000020220000000002021000000000202100000000020220000000000000000000000000000002000000000000000100000000000000202148000000000000009999123100000010000000000000BRCMIGACNPR3208
012013102962CMIG4T      030CEMIG       PN      N1181R$  000000000208400000000020850000000002084000000000208400000000020850000000000000000000000000000002000000000000000200000000000000416873000000000000009999123100000010000000000000BRCMIGACNPR3208
012013102912CNES11B     010FII CENESP  CI  ER  MB   R$  000000001309900000000132000000000012801000000001302800000000128010000000012805000000001295000011000000000000000312000000000004065005000000000000009999123100000010000000000000BRCNESCTF001127
012013102902COCE3       010COELCE      ON           R$  000000000400100000000040290000000004000000000000401100000000040290000000003970000000000402900026000000000000004700000000000018856000000000000000009999123100000010000000000000BRCOCEACNOR0132
012013102902COCE5       010COELCE      PNA          R$  000000000386700000000039440000000003856000000000390300000000039300000000003901000000000393000436000000000000140100000000000546900000000000000000009999123100000010000000000000BRCOCEACNPA3133
012013102996COCE5F      020COELCE      PNA          R$  000000000388000000000039250000000003870000000000389400000000039000000000003860000000000391700019000000000000000591000000000002301764000000000000009999123100000010000000000000BRCOCEACNPA3133
012013102996CORR3F      020COR RIBEIRO ON           R$  000000002000000000000200000000000020000000000002000000000000200000000000000000000000000000000002000000000000000002000000000000040000000000000000009999123100000010000000000000BRCORRACNOR0013
012013102996CORR4F      020COR RIBEIRO PN           R$  000000001750000000000175000000000017500000000001750000000000175000000000016500000000001950000004000000000000000030000000000000525000000000000000009999123100000010000000000000BRCORRACNPR7015
012013102902CPFE3       010CPFL ENERGIAON      NM   R$  000000000195700000000019660000000001926000000000193700000000019400000000001940000000000194102612000000000000506100000000000980451400000000000000009999123100000010000000000000BRCPFEACNOR0122
012013102996CPFE3F      020CPFL ENERGIAON      NM   R$  000000000195100000000020190000000001926000000000193700000000020190000000001929000000000202000027000000000000000531000000000001028927000000000000009999123100000010000000000000BRCPFEACNOR0122
012013102902CPLE3       010COPEL       ON      N1   R$  000000000221300000000022390000000002213000000000223200000000022390000000002220000000000223900056000000000000016200000000000036170500000000000000009999123100000010000000000000BRCPLEACNOR8128
012013102902CPLE6       010COPEL       PNB     N1   R$  000000000313800000000031380000000003085000000000310100000000031000000000003099000000000310001075000000000000292500000000000907220600000000000000009999123100000010000000000000BRCPLEACNPB9125
012013102996CPLE6F      020COPEL       PNB     N1   R$  000000000314900000000031490000000003081000000000310000000000030810000000003002000000000311000015000000000000000462000000000001432286000000000000009999123100000010000000000000BRCPLEACNPB9125
012013102902CPRE3       010CPFL RENOVAVON      NM   R$  000000000137500000000013750000000001341000000000134400000000013430000000001317000000000134300014000000000000007100000000000009548800000000000000009999123100000010000000000000BRCPREACNOR5100
012013102996CPRE3F      020CPFL RENOVAVON      NM   R$  000000000135500000000013650000000001355000000000136100000000013650000000001344000000000136500002000000000000000005000000000000006805000000000000009999123100000010000000000000BRCPREACNOR5100
012013102902CRDE3       010CR2         ON      NM   R$  000000000041500000000004150000000000415000000000041500000000004150000000000405000000000041500004000000000000015100000000000006266500000000000000009999123100000010000000000000BRCRDEACNOR1108
012013102902CREM3       010CREMER      ON      NM   R$  000000000150500000000015150000000001505000000000150900000000015120000000001512000000000154000017000000000000010400000000000015697900000000000000009999123100000010000000000000BRCREMACNOR2167
012013102902CRIV3       010ALFA FINANC ON           R$  000000000049200000000005000000000000492000000000049400000000005000000000000500000000000050300008000000000000002000000000000000988000000000000000009999123100000010000000000000BRCRIVACNOR4190
012013102902CRIV4       010ALFA FINANC PN           R$  000000000043600000000004470000000000435000000000043500000000004410000000000432000000000044100021000000000000063200000000000027507700000000000000009999123100000010000000000000BRCRIVACNPR1190
012013102902CRUZ3       010SOUZA CRUZ  ON           R$  000000000251500000000025170000000002440000000000245600000000024570000000002450000000000245706402000000000001430500000000003513835900000000000000009999123100000010000000000000BRCRUZACNOR0248
012013102996CRUZ3F      020SOUZA CRUZ  ON           R$  000000000251800000000025490000000002440000000000246300000000024520000000002447000000000245200089000000000000002320000000000005714218000000000000009999123100000010000000000000BRCRUZACNOR0248
012013102962CRUZ3T      030SOUZA CRUZ  ON        030R$  000000000247900000000024800000000002479000000000247900000000024800000000000000000000000000000002000000000000001000000000000002479950000000000000009999123100000010000000000000BRCRUZACNOR0248
012013102902CSAN3       010COSAN       ON      NM   R$  000000000442200000000044680000000004405000000000443600000000044650000000004435000000000446502746000000000000478800000000002123995400000000000000009999123100000010000000000000BRCSANACNOR6108
012013102996CSAN3F      020COSAN       ON      NM   R$  000000000445000000000044700000000004411000000000443900000000044480000000004410000000000444800036000000000000001199000000000005322654000000000000009999123100000010000000000000BRCSANACNOR6108
012013102978CSANK46     070CSAN        ON      NM000R$  000000000001700000000000170000000000017000000000001700000000000170000000000000000000000000000002000000000000001000000000000000017000000000000460002013111800000010000000000000BRCSANACNOR6108
012013102978CSANL44     070CSAN        ON      NM000R$  000000000015000000000001500000000000150000000000015000000000001500000000000000000000000000000002000000000000006600000000000000990000000000000440002013121600000010000000000000BRCSANACNOR6108
012013102902CSMG3       010COPASA      ON      NM   R$  000000000364300000000036570000000003614000000000363400000000036460000000003630000000000364600703000000000000098100000000000356510600000000000000009999123100000010000000000000BRCSMGACNOR5128
012013102996CSMG3F      020COPASA      ON      NM   R$  000000000355600000000036360000000003556000000000361900000000036360000000003602000000000363900016000000000000000288000000000001042442000000000000009999123100000010000000000000BRCSMGACNOR5128
012013102902CSNA3       010SID NACIONALON           R$  000000000120100000000012070000000001173000000000118100000000011820000000001181000000000118207198000000000003825800000000004521240500000000000000009999123100000010000000000000BRCSNAACNOR6243
012013102996CSNA3F      020SID NACIONALON           R$  000000000120600000000012060000000001174000000000118200000000011760000000001177000000000117900044000000000000001495000000000001767459000000000000009999123100000010000000000000BRCSNAACNOR6243
012013102978CSNAA40     070CSNA        ON        000R$  000000000020300000000002030000000000197000000000020000000000001990000000000000000000000000000006000000000000012000000000000002400000000000000103002014012000000010000000000000BRCSNAACNOR6242
012013102978CSNAK1      070CSNA        ON        000R$  000000000019000000000001900000000000190000000000019000000000001900000000000000000000000000000003000000000000003700000000000000703000000000000100002013111800000010000000000000BRCSNAACNOR6243
012013102978CSNAK11     070CSNA        ON        000R$  000000000010200000000001020000000000102000000000010200000000001020000000000000000000000000000002000000000000002000000000000000204000000000000110002013111800000010000000000000BRCSNAACNOR6243
012013102978CSNAK12     070CSNA  FM    ON        000R$  000000000005000000000000500000000000040000000000004300000000000420000000000030000000000004500033000000000000049800000000000002166100000000000120002013111800000010000000000000BRCSNAACNOR6243
012013102978CSNAK13     070CSNA  FM    ON        000R$  000000000001900000000000190000000000011000000000001600000000000110000000000008000000000001600008000000000000016600000000000000279800000000000130002013111800000010000000000000BRCSNAACNOR6243
012013102978CSNAK40     070CSNA        ON        000R$  000000000015200000000001520000000000152000000000015200000000001520000000000000000000000000000002000000000000003900000000000000592800000000000104002013111800000010000000000000BRCSNAACNOR6243
012013102978CSNAK41     070CSNA  FM    ON        000R$  000000000008700000000000870000000000067000000000007100000000000680000000000000000000000000000009000000000000024600000000000001751700000000000115002013111800000010000000000000BRCSNAACNOR6243
012013102978CSNAK43     070CSNA  FM    ON        000R$  000000000001100000000000110000000000007000000000000900000000000070000000000000000000000000000014000000000000027800000000000000251300000000000135002013111800000010000000000000BRCSNAACNOR6243
012013102978CSNAK92     070CSNA        ON        000R$  000000000027000000000002700000000000267000000000026900000000002670000000000262000000000000000002000000000000003000000000000000807000000000000092002013111800000010000000000000BRCSNAACNOR6243
012013102978CSNAK96     070CSNA        ON        000R$  000000000023800000000002380000000000225000000000023100000000002290000000000000000000000000000005000000000000009000000000000002079000000000000096002013111800000010000000000000BRCSNAACNOR6243
012013102978CSNAL11     070CSNA        ON        000R$  000000000017100000000001710000000000169000000000017000000000001690000000000000000000000000000002000000000000000400000000000000068000000000000104702013121600000010000000000000BRCSNAACNOR6241
012013102978CSNAL12     070CSNA  FM    ON        000R$  000000000011800000000001180000000000101000000000010600000000001020000000000065000000000000000007000000000000014500000000000001547400000000000114702013121600000010000000000000BRCSNAACNOR6241
012013102978CSNAL13     070CSNA  FM    ON        000R$  000000000003600000000000370000000000033000000000003500000000000330000000000000000000000004500004000000000000007800000000000000279600000000000130002013121600000010000000000000BRCSNAACNOR6243
012013102978CSNAL2      070CSNA  FM    ON        000R$  000000000005200000000000540000000000048000000000005200000000000480000000000000000000000000000004000000000000007300000000000000384000000000000125002013121600000010000000000000BRCSNAACNOR6243
012013102978CSNAL41     070CSNA        ON        000R$  000000000014400000000001440000000000144000000000014400000000001440000000000000000000000000000001000000000000000300000000000000043200000000000110002013121600000010000000000000BRCSNAACNOR6243
012013102978CSNAL42     070CSNA  FM    ON        000R$  000000000007600000000000760000000000074000000000007500000000000740000000000010000000000000000002000000000000001100000000000000083400000000000119702013121600000010000000000000BRCSNAACNOR6241
012013102978CSNAL43     070CSNA  FM    ON        000R$  000000000002600000000000260000000000022000000000002400000000000220000000000008000000000000000010000000000000027100000000000000661300000000000135002013121600000010000000000000BRCSNAACNOR6243
012013102982CSNAM40     080CSNAE       ON        000R$  000000000003100000000000320000000000031000000000003100000000000320000000000000000000000000000008000000000000013000000000000000407000000000000103002014012000000010000000000000BRCSNAACNOR6242
012013102982CSNAN41     080CSNAE       ON        000R$  000000000009000000000000900000000000090000000000009000000000000900000000000000000000000000000001000000000000100000000000000009000000000000000115002014021700000010000000000000BRCSNAACNOR6243
012013102982CSNAW10     080CSNAE       ON        000R$  000000000000400000000000040000000000004000000000000400000000000040000000000000000000000000500001000000000000000100000000000000000400000000000098002013111800000010000000000000BRCSNAACNOR6242
012013102982CSNAW11     080CSNAE FM    ON        000R$  000000000002000000000000200000000000018000000000001900000000000180000000000015000000000000000050000000000000187300000000000003721000000000000110002013111800000010000000000000BRCSNAACNOR6243
012013102982CSNAW12     080CSNAE FM    ON        000R$  000000000005700000000000600000000000057000000000005800000000000580000000000000000000000006800007000000000000023400000000000001370300000000000120002013111800000010000000000000BRCSNAACNOR6243
012013102982CSNAW41     080CSNAE FM    ON        000R$  000000000003500000000000370000000000035000000000003500000000000370000000000000000000000000000007000000000000021600000000000000775400000000000115002013111800000010000000000000BRCSNAACNOR6243
012013102982CSNAW42     080CSNAE FM    ON        000R$  000000000008800000000000920000000000088000000000009100000000000920000000000000000000000000000005000000000000014400000000000001310800000000000125002013111800000010000000000000BRCSNAACNOR6243
012013102982CSNAX11     080CSNAE       ON        000R$  000000000002400000000000260000000000024000000000002500000000000250000000000015000000000002700049000000000000015600000000000000394800000000000104702013121600000010000000000000BRCSNAACNOR6241
012013102982CSNAX12     080CSNAE FM    ON        000R$  000000000005200000000000580000000000052000000000005500000000000580000000000045000000000006900005000000000000004500000000000000251900000000000114702013121600000010000000000000BRCSNAACNOR6241
012013102982CSNAX2      080CSNAE FM    ON        000R$  000000000010300000000001080000000000103000000000010500000000001080000000000000000000000000000002000000000000005900000000000000625200000000000125002013121600000010000000000000BRCSNAACNOR6243
012013102982CSNAX41     080CSNAE FM    ON        000R$  000000000003900000000000400000000000038000000000003900000000000400000000000000000000000000000006000000000000009200000000000000360000000000000110002013121600000010000000000000BRCSNAACNOR6243
012013102982CSNAX42     080CSNAE FM    ON        000R$  000000000006800000000000790000000000068000000000007600000000000790000000000000000000000000000003000000000000004400000000000000335600000000000119702013121600000010000000000000BRCSNAACNOR6241
012013102902CTAX11      010CONTAX      UNT     N2   R$  000000000188000000000018850000000001860000000000187200000000018750000000001874000000000187500043000000000000014400000000000026968200000000000000009999123100000010000000000000BRCTAXCDAM19100
012013102996CTAX11F     020CONTAX      UNT     N2   R$  000000000190000000000019000000000001845000000000188000000000018450000000001672000000000185600005000000000000000031000000000000058310000000000000009999123100000010000000000000BRCTAXCDAM19100
012013102902CTAX3       010CONTAX      ON      N2   R$  000000000039400000000003970000000000394000000000039500000000003970000000000321000000000039900002000000000000000200000000000000079100000000000000009999123100000010000000000000BRCTAXACNOR3113
012013102902CTAX4       010CONTAX      PN      N2   R$  000000000036600000000003660000000000360000000000036200000000003610000000000361000000000037600036000000000000011700000000000004241300000000000000009999123100000010000000000000BRCTAXACNPR0114
012013102996CTAX4F      020CONTAX      PN      N2   R$  000000000037200000000003720000000000372000000000037200000000003720000000000336000000000042400001000000000000000056000000000000020832000000000000009999123100000010000000000000BRCTAXACNPR0114
012013102902CTIP3       010CETIP       ON      NM   R$  000000000247600000000024950000000002458000000000247300000000024850000000002482000000000248504674000000000001203100000000002975864300000000000000009999123100000010000000000000BRCTIPACNOR2120
012013102996CTIP3F      020CETIP       ON      NM   R$  000000000246700000000024910000000002467000000000247800000000024750000000002465000000000256000020000000000000000612000000000001516925000000000000009999123100000010000000000000BRCTIPACNOR2120
012013102962CTIP3T      030CETIP       ON      NM030R$  000000000249100000000024920000000002491000000000249100000000024920000000000000000000000000000002000000000000001000000000000002491813000000000000009999123100000010000000000000BRCTIPACNOR2120
012013102962CTIP3T      030CETIP       ON      NM062R$  000000000250500000000025100000000002505000000000250800000000025100000000000000000000000000000004000000000000202400000000000507677551000000000000009999123100000010000000000000BRCTIPACNOR2120
012013102902CTKA4       010KARSTEN     PN           R$  000000000009600000000000960000000000092000000000009300000000000960000000000092000000000009700011000000000000003200000000000000300600000000000000009999123100000010000000000000BRCTKAACNPR7041
012013102996CTKA4F      020KARSTEN     PN           R$  000000000010000000000001000000000000100000000000010000000000001000000000000091000000000010000002000000000000000036000000000000003600000000000000009999123100000010000000000000BRCTKAACNPR7041
012013102902CTNM4       010COTEMINAS   PN           R$  000000000022700000000002320000000000225000000000022600000000002250000000000225000000000023600062000000000000066500000000000015032000000000000000009999123100000010000000000000BRCTNMACNPR6128
012013102996CTSA3F      020SANTANENSE  ON           R$  000000000055000000000005500000000000550000000000055000000000005500000000000505000000000060000001000000000000000007000000000000003850000000000000009999123100000010000000000000BRCTSAACNOR3051
012013102912CXCE11B     010FII CX CEDAECI      MB   R$  000000019345000000001935000000000193450000000019348700000001935000000000192500000000019350000002000000000000000020000000000003869750000000000000009999123100000010000000000000BRCXCECTF004139
012013102912CXTL11      010FII CX TRX  CI           R$  000000007300000000000730000000000073000000000007300000000000730000000000072802000000007300000001000000000000000020000000000001460000000000000000009999123100000010000000000000BRCXTLCTF003123
012013102902CYRE3       010CYRELA REALTON      NM   R$  000000000167400000000016920000000001661000000000167500000000016800000000001679000000000168006032000000000001497000000000002508623100000000000000009999123100000010000000000000BRCYREACNOR7125
012013102996CYRE3F      020CYRELA REALTON      NM   R$  000000000167800000000016900000000001651000000000166700000000016520000000001651000000000170200020000000000000000523000000000000871961000000000000009999123100000010000000000000BRCYREACNOR7125
012013102978CYREA1      070CYRE        ON      NM000R$  000000000008900000000000910000000000086000000000008900000000000860000000000000000000000000000004000000000000012000000000000001068000000000000170002014012000000010000000000000BRCYREACNOR7125
012013102978CYREA3      070CYRE        ON      NM000R$  000000000006500000000000660000000000060000000000006400000000000600000000000000000000000000000006000000000000018000000000000001158000000000000175002014012000000010000000000000BRCYREACNOR7124
012013102978CYREA4      070CYRE        ON      NM000R$  000000000004600000000000470000000000042000000000004500000000000470000000000000000000000000000013000000000000039000000000000001770000000000000180002014012000000010000000000000BRCYREACNOR7124
012013102978CYREA46     070CYRE        ON      NM000R$  000000000011900000000001190000000000119000000000011900000000001190000000000000000000000000000001000000000000003000000000000000357000000000000165002014012000000010000000000000BRCYREACNOR7125
012013102978CYREK17     070CYRE  FM    ON      NM000R$  000000000003300000000000350000000000028000000000003200000000000350000000000000000000000000000008000000000000021000000000000000677000000000000170002013111800000010000000000000BRCYREACNOR7125
012013102978CYREK18     070CYRE  FM    ON      NM000R$  000000000000700000000000070000000000005000000000000500000000000060000000000000000000000000000010000000000000019500000000000000103500000000000180002013111800000010000000000000BRCYREACNOR7125
012013102978CYREK47     070CYRE  FM    ON      NM000R$  000000000001500000000000170000000000014000000000001400000000000170000000000000000000000000000012000000000000024000000000000000343000000000000175002013111800000010000000000000BRCYREACNOR7125
012013102978CYREK48     070CYRE  FM    ON      NM000R$  000000000000200000000000020000000000002000000000000200000000000020000000000000000000000000000001000000000000003000000000000000006000000000000185002013111800000010000000000000BRCYREACNOR7125
012013102978CYREL17     070CYRE  FM    ON      NM000R$  000000000009000000000000910000000000090000000000009000000000000910000000000000000000000000000005000000000000013900000000000001261500000000000165002013121600000010000000000000BRCYREACNOR7124
012013102978CYREL47     070CYRE  FM    ON      NM000R$  000000000004300000000000430000000000041000000000004200000000000410000000000000000000000000000005000000000000016200000000000000680900000000000175002013121600000010000000000000BRCYREACNOR7125
012013102978CYREL48     070CYRE  FM    ON      NM000R$  000000000001600000000000160000000000016000000000001600000000000160000000000000000000000000000001000000000000001000000000000000016000000000000185002013121600000010000000000000BRCYREACNOR7125
012013102978CYREL58     070CYREE       ON      NM000R$  000000000002000000000000210000000000020000000000002000000000000210000000000000000000000000000002000000000000103800000000000002089400000000000182502013121600000010000000000000BRCYREACNOR7125
012013102978CYREL7      070CYRE  FM    ON      NM000R$  000000000006200000000000630000000000061000000000006100000000000630000000000000000000000000000004000000000000011400000000000000702800000000000170002013121600000010000000000000BRCYREACNOR7125
012013102982CYREW16     080CYREE FM    ON      NM000R$  000000000001500000000000160000000000014000000000001400000000000150000000000000000000000000000006000000000000017600000000000000260600000000000160002013111800000010000000000000BRCYREACNOR7125
012013102982CYREW17     080CYREE FM    ON      NM000R$  000000000005000000000000570000000000048000000000005300000000000570000000000000000000000000000006000000000000012300000000000000659200000000000170002013111800000010000000000000BRCYREACNOR7125
012013102982CYREW46     080CYREE FM    ON      NM000R$  000000000002800000000000280000000000028000000000002800000000000280000000000000000000000000000001000000000000002500000000000000070000000000000165002013111800000010000000000000BRCYREACNOR7125
012013102982CYREW47     080CYREE FM    ON      NM000R$  000000000008100000000000830000000000080000000000008100000000000800000000000000000000000000000016000000000000024500000000000001997500000000000175002013111800000010000000000000BRCYREACNOR7125
012013102982CYREX16     080CYREE FM    ON      NM000R$  000000000003000000000000300000000000030000000000003000000000000300000000000000000000000000000001000000000000103800000000000003114000000000000160002013121600000010000000000000BRCYREACNOR7125
012013102982CYREX17     080CYREE FM    ON      NM000R$  000000000004800000000000480000000000048000000000004800000000000480000000000000000000000000000001000000000000003500000000000000168000000000000165002013121600000010000000000000BRCYREACNOR7124
012013102982CYREX47     080CYREE FM    ON      NM000R$  000000000009700000000000970000000000097000000000009700000000000970000000000000000000000000000002000000000000006000000000000000582000000000000175002013121600000010000000000000BRCYREACNOR7125
012013102982CYREX56     080CYREE       ON      NM000R$  000000000005600000000000560000000000056000000000005600000000000560000000000000000000000000000001000000000000103800000000000005812800000000000167502013121600000010000000000000BRCYREACNOR7125
012013102902CZLT33      010COSAN LTD   DR3          R$  000000000352900000000035540000000003501000000000352000000000035200000000003520000000000352900401000000000000131400000000000462566400000000000000009999123100000010000000000000BRCZLTBDR009105
012013102902DAGB33      010DUFRY AG    DR3          R$  000000003620000000000362000000000035222000000003548300000000353800000000035380000000003543500861000000000000007372000000000261584094000000000000009999123100000010000000000000BRDAGBBDR008100
012013102962DAGB33T     030DUFRY AG    DR3       016R$  000000003554600000000355470000000035546000000003554600000000355470000000000000000000000000000002000000000000000100000000000003554629000000000000009999123100000010000000000000BRDAGBBDR008100
012013102902DASA3       010DASA        ON      NM   R$  000000000120500000000012140000000001193000000000119700000000011980000000001198000000000119902768000000000001338700000000001602858500000000000000009999123100000010000000000000BRDASAACNOR1108
012013102996DASA3F      020DASA        ON      NM   R$  000000000121000000000012100000000001197000000000120100000000011970000000001195000000000124400011000000000000000198000000000000237928000000000000009999123100000010000000000000BRDASAACNOR1108
012013102902DAYC4       010DAYCOVAL    PN      N2   R$  000000000091000000000009100000000000879000000000089100000000008850000000000885000000000088800231000000000000078600000000000070079300000000000000009999123100000010000000000000BRDAYCACNPR2129
012013102902DIRR3       010DIRECIONAL  ON      NM   R$  000000000131500000000013200000000001288000000000129700000000012950000000001291000000000129501367000000000000443500000000000575271800000000000000009999123100000010000000000000BRDIRRACNOR0104
012013102996DIRR3F      020DIRECIONAL  ON      NM   R$  000000000130000000000013000000000001276000000000129100000000012760000000001275000000000130000011000000000000000379000000000000489322000000000000009999123100000010000000000000BRDIRRACNOR0104
012013102962DIRR3T      030DIRECIONAL  ON      NM062R$  000000000132600000000013270000000001326000000000132600000000013270000000000000000000000000000002000000000000001000000000000001326533000000000000009999123100000010000000000000BRDIRRACNOR0104
012013102914DIVO11      010IT NOW IDIV CI           R$  000000000340100000000035670000000003401000000000354000000000035560000000003556000000000360000019000000000000001400000000000004957250000000000000009999123100000010000000000000BRDIVOCTF002100
012013102996DIVO11F     020IT NOW IDIV CI           R$  000000000280200000000036000000000002802000000000346900000000034740000000003474000000000360000005000000000000000015000000000000052040000000000000009999123100000010000000000000BRDIVOCTF002100
012013102912DRIT11B     010FII MTGESTAOCI      MB   R$  000000001159900000000116000000000011599000000001159900000000116000000000011500000000001160000003000000000000000038000000000000440790000000000000009999123100000010000000000000BRDRITCTF009124
012013102902DTEX3       010DURATEX     ON      NM   R$  000000000143900000000014480000000001405000000000141700000000014120000000001411000000000141205197000000000001450800000000002056609000000000000000009999123100000010000000000000BRDTEXACNOR3115
012013102996DTEX3F      020DURATEX     ON      NM   R$  000000000142500000000014500000000001400000000000142000000000014050000000001405000000000142000040000000000000000998000000000001417451000000000000009999123100000010000000000000BRDTEXACNOR3115
