00COTAHIST.2013BOVESPA 20130806                                                                                                                                                                                                                      
012013080602ABCB4       010ABC BRASIL  PN      N2   R$  000000000126900000000012690000000001223000000000125100000000012230000000001223000000000124600570000000000000096000000000000120116700000000000000009999123100000010000000000000BRABCBACNPR4120
012013080696ABCB4F      020ABC BRASIL  PN      N2   R$  000000000127000000000012700000000001229000000000125100000000012290000000001229000000000125900023000000000000000339000000000000424414000000000000009999123100000010000000000000BRABCBACNPR4120
012013080612ABCP11      010FII ABC IMOBCI  ER       R$  000000000094800000000009480000000000948000000000094800000000009480000000000900000000000094800001000000000000000010000000000000009480000000000000009999123100000010000000000000BRABCPCTF000214
012013080602ABRE11      010ABRIL EDUCA UNT     N2   R$  000000000347800000000034780000000003380000000000339500000000033800000000003376000000000339400461000000000000103400000000000351137700000000000000009999123100000010000000000000BRABRECDAM15102
012013080696ABRE11F     020ABRIL EDUCA UNT     N2   R$  000000000341500000000034200000000003305000000000340200000000034200000000003385000000000344900012000000000000000392000000000001333597000000000000009999123100000010000000000000BRABRECDAM15102
012013080602AEDU3       010ANHANGUERA  ON      NM   R$  000000000136300000000013630000000001322000000000133200000000013350000000001328000000000133502637000000000000933400000000001243321800000000000000009999123100000010000000000000BRAEDUACNOR9107
012013080696AEDU3F      020ANHANGUERA  ON      NM   R$  000000000134000000000013750000000001321000000000132900000000013750000000001321000000000133200012000000000000000387000000000000514656000000000000009999123100000010000000000000BRAEDUACNOR9107
012013080612AEFI11      010FII AESAPAR CI  ER       R$  000000001250000000000125000000000012420000000001246200000000124950000000012420000000001252000022000000000000000494000000000006156290000000000000009999123100000010000000000000BRAEFICTF002120
012013080602AELP3       010AES ELPA    ON           R$  000000000072000000000007590000000000662000000000069300000000006870000000000663000000000068800024000000000000008600000000000005966600000000000000009999123100000010000000000000BRAELPACNOR2119
012013080696AELP3F      020AES ELPA    ON           R$  000000000081800000000008180000000000708000000000073600000000007080000000000708000000000081800003000000000000000061000000000000044948000000000000009999123100000010000000000000BRAELPACNOR2119
012013080612AGCX11      010FII AG CAIXACI  ER       R$  000000009970000000001001000000000099700000000010006300000001001000000000099500000000010010000022000000000000000564000000000056435705000000000000009999123100000010000000000000BRAGCXCTF003109
012013080602AGRO3       010BRASILAGRO  ON      NM   R$  000000000105700000000010740000000001039000000000105200000000010710000000001021000000000107500013000000000000002600000000000002735800000000000000009999123100000010000000000000BRAGROACNOR7102
012013080602ALLL3       010ALL AMER LATON      NM   R$  000000000091100000000009160000000000866000000000088200000000008740000000000870000000000087409508000000000004849800000000004280619100000000000000009999123100000010000000000000BRALLLACNOR6118
012013080696ALLL3F      020ALL AMER LATON      NM   R$  000000000093200000000009320000000000855000000000088400000000008550000000000855000000000088600070000000000000002175000000000001922848000000000000009999123100000010000000000000BRALLLACNOR6118
012013080662ALLL3T      030ALL AMER LATON      NM016R$  000000000088700000000008880000000000877000000000087700000000008780000000000000000000000000000008000000000000071000000000000062318728000000000000009999123100000010000000000000BRALLLACNOR6118
012013080662ALLL3T      030ALL AMER LATON      NM030R$  000000000088900000000008900000000000889000000000088900000000008900000000000000000000000000000002000000000000004000000000000003556724000000000000009999123100000010000000000000BRALLLACNOR6118
012013080662ALLL3T      030ALL AMER LATON      NM062R$  000000000092100000000009220000000000921000000000092100000000009220000000000000000000000000000002000000000000002000000000000001843861000000000000009999123100000010000000000000BRALLLACNOR6118
012013080602ALPA3       010ALPARGATAS  ON      N1   R$  000000000115800000000011890000000001158000000000117100000000011840000000001130000000000118400013000000000000008400000000000009839300000000000000009999123100000010000000000000BRALPAACNOR0202
012013080602ALPA4       010ALPARGATAS  PN      N1   R$  000000000139600000000014060000000001367000000000137600000000013670000000001367000000000137900502000000000000120900000000000166463800000000000000009999123100000010000000000000BRALPAACNPR7202
012013080696ALPA4F      020ALPARGATAS  PN      N1   R$  000000000139900000000013990000000001385000000000139400000000013850000000001385000000000143200002000000000000000100000000000000139480000000000000009999123100000010000000000000BRALPAACNPR7202
012013080602ALSC3       010ALIANSCE    ON      NM   R$  000000000208000000000020800000000002004000000000201800000000020200000000002020000000000202503397000000000000629400000000001270297900000000000000009999123100000010000000000000BRALSCACNOR0104
012013080696ALSC3F      020ALIANSCE    ON      NM   R$  000000000205000000000020540000000002041000000000205000000000020540000000001950000000000205000003000000000000000114000000000000233784000000000000009999123100000010000000000000BRALSCACNOR0104
012013080602ALUP11      010ALUPAR      UNT     N2   R$  000000000174100000000017490000000001684000000000170600000000016870000000001686000000000169000650000000000000227700000000000388593600000000000000009999123100000010000000000000BRALUPCDAM15100
012013080696ALUP11F     020ALUPAR      UNT     N2   R$  000000000179500000000017950000000001695000000000172700000000017770000000001694000000000177700055000000000000001137000000000001964147000000000000009999123100000010000000000000BRALUPCDAM15100
012013080662ALUP11T     030ALUPAR      UNT     N2030R$  000000000171500000000017160000000001715000000000171500000000017160000000000000000000000000000002000000000000001400000000000002401386000000000000009999123100000010000000000000BRALUPCDAM15100
012013080602AMAR3       010LOJAS MARISAON      NM   R$  000000000205200000000021180000000002008000000000204500000000020340000000002032000000000203401490000000000000359900000000000736004400000000000000009999123100000010000000000000BRAMARACNOR4109
012013080696AMAR3F      020LOJAS MARISAON      NM   R$  000000000205000000000020600000000002005000000000203400000000020600000000002005000000000231100016000000000000000551000000000001121111000000000000009999123100000010000000000000BRAMARACNOR4109
012013080662AMAR3T      030LOJAS MARISAON      NM030R$  000000000205800000000020590000000002058000000000205800000000020590000000000000000000000000000002000000000000000100000000000000205891000000000000009999123100000010000000000000BRAMARACNOR4109
012013080602AMBV3       010AMBEV       ON           R$  000000000860100000000086650000000008500000000000854300000000085600000000008545000000000856000917000000000000532800000000004551854700000000000000009999123100000010000000000000BRAMBVACNOR4153
012013080696AMBV3F      020AMBEV       ON           R$  000000000860000000000086400000000008509000000000856700000000085400000000008529000000000854500074000000000000001682000000000014409343000000000000009999123100000010000000000000BRAMBVACNOR4153
012013080662AMBV3T      030AMBEV       ON        030R$  000000000859200000000085930000000008592000000000859200000000085930000000000000000000000000000002000000000000001000000000000008592269000000000000009999123100000010000000000000BRAMBVACNOR4153
012013080602AMBV4       010AMBEV       PN           R$  000000000861700000000086740000000008500000000000855200000000085650000000008544000000000856808915000000000002573100000000022007523200000000000000009999123100000010000000000000BRAMBVACNPR1153
012013080696AMBV4F      020AMBEV       PN           R$  000000000861500000000087000000000008460000000000855200000000084650000000008465000000000854000153000000000000003760000000000032157572000000000000009999123100000010000000000000BRAMBVACNPR1153
012013080662AMBV4T      030AMBEV       PN        030R$  000000000857100000000086060000000008559000000000856500000000086060000000000000000000000000000008000000000000001800000000000015418279000000000000009999123100000010000000000000BRAMBVACNPR1153
012013080662AMBV4T      030AMBEV       PN        062R$  000000000871500000000087160000000008715000000000871500000000087160000000000000000000000000000002000000000000001000000000000008715218000000000000009999123100000010000000000000BRAMBVACNPR1153
012013080678AMBVH84     070AMBV        PN        000R$  000000000020400000000002040000000000195000000000019900000000001950000000000080000000000000000002000000000000000200000000000000039900000000000840002013081900000010000000000000BRAMBVACNPR1153
012013080678AMBVH85     070AMBV        PN        000R$  000000000019000000000001900000000000190000000000019000000000001900000000000010000000000000000001000000000000060000000000000011400000000000000850002013081900000010000000000000BRAMBVACNPR1153
012013080678AMBVH86     070AMBV        PN        000R$  000000000011500000000001150000000000115000000000011500000000001150000000000038000000000000000002000000000000120000000000000013800000000000000860002013081900000010000000000000BRAMBVACNPR1153
012013080678AMBVH87     070AMBV        PN        000R$  000000000006200000000000620000000000062000000000006200000000000620000000000000000000000000000002000000000000060000000000000003720000000000000870002013081900000010000000000000BRAMBVACNPR1153
012013080602ARTR3       010ARTERIS     ON      NM   R$  000000000222100000000023030000000002221000000000226300000000022500000000002250000000000225104263000000000001917200000000004339700400000000000000009999123100000010000000000000BRARTRACNOR3101
012013080696ARTR3F      020ARTERIS     ON      NM   R$  000000000220000000000022980000000002197000000000225900000000022440000000002241000000000225100074000000000000002271000000000005131653000000000000009999123100000010000000000000BRARTRACNOR3101
012013080602ARZZ3       010AREZZO CO   ON  ED  NM   R$  000000000352700000000035860000000003479000000000354900000000035560000000003555000000000355700775000000000000306500000000001087916900000000000000009999123100000010000000000000BRARZZACNOR3109
012013080696ARZZ3F      020AREZZO CO   ON  ED  NM   R$  000000000349000000000035990000000003490000000000355400000000035980000000003541000000000359800007000000000000000323000000000001148090000000000000009999123100000010000000000000BRARZZACNOR3109
012013080602AUTM3       010AUTOMETAL   ON      NM   R$  000000000185900000000018670000000001823000000000184600000000018500000000001846000000000185000616000000000000094100000000000173792600000000000000009999123100000010000000000000BRAUTMACNOR8109
012013080696AUTM3F      020AUTOMETAL   ON      NM   R$  000000000179000000000018350000000001790000000000180300000000018350000000001836000000000190000005000000000000000148000000000000266890000000000000009999123100000010000000000000BRAUTMACNOR8109
012013080602BAHI3       010BAHEMA      ON           R$  000000000049800000000004980000000000498000000000049800000000004980000000000490000000000049900001000000000000000200000000000000099600000000000000009999123100000010000000000000BRBAHIACNOR1066
012013080696BAUH4F      020EXCELSIOR   PN           R$  000000000096500000000009650000000000965000000000096500000000009650000000000000000000000096500001000000000000000010000000000000009650000000000000009999123100000010000000000000BRBAUHACNPR3108
012013080602BBAS3       010BRASIL      ON      NM   R$  000000000223400000000022340000000002135000000000216900000000021420000000002142000000000214318331000000000008846300000000019192193500000000000000009999123100000010000000000000BRBBASACNOR3237
012013080696BBAS3F      020BRASIL      ON      NM   R$  000000000223200000000022320000000002135000000000217900000000021400000000002140000000000218000367000000000000009071000000000019754177000000000000009999123100000010000000000000BRBBASACNOR3237
012013080662BBAS3T      030BRASIL      ON      NM016R$  000000000217200000000021730000000002145000000000214900000000021460000000000000000000000000000006000000000000004800000000000010316914000000000000009999123100000010000000000000BRBBASACNOR3237
012013080662BBAS3T      030BRASIL      ON      NM030R$  000000000220100000000022020000000002156000000000216400000000021570000000000000000000000000000032000000000000211200000000000457221186000000000000009999123100000010000000000000BRBBASACNOR3237
012013080662BBAS3T      030BRASIL      ON      NM041R$  000000000220200000000022030000000002190000000000219600000000021910000000000000000000000000000004000000000000002000000000000004392909000000000000009999123100000010000000000000BRBBASACNOR3237
012013080662BBAS3T      030BRASIL      ON      NM060R$  000000000221300000000022140000000002201000000000221200000000022020000000000000000000000000000006000000000000114500000000000253368572000000000000009999123100000010000000000000BRBBASACNOR3237
012013080662BBAS3T      030BRASIL      ON      NM062R$  000000000219500000000021960000000002195000000000219500000000021960000000000000000000000000000002000000000000002900000000000006366199000000000000009999123100000010000000000000BRBBASACNOR3237
012013080662BBAS3T      030BRASIL      ON      NM070R$  000000000221100000000022120000000002211000000000221100000000022120000000000000000000000000000002000000000000006000000000000013266202000000000000009999123100000010000000000000BRBBASACNOR3237
012013080678BBASH18     070BBAS        ON      NM000R$  000000000037000000000003700000000000370000000000037000000000003700000000000000000000000035700001000000000000000100000000000000037000000000000180002013081900000010000000000000BRBBASACNOR3237
012013080678BBASH19     070BBAS        ON      NM000R$  000000000026700000000002750000000000259000000000026700000000002590000000000000000000000000000004000000000000000400000000000000107100000000000190002013081900000010000000000000BRBBASACNOR3237
012013080678BBASH20     070BBAS        ON      NM000R$  000000000017200000000001800000000000161000000000016600000000001620000000000000000000000017000065000000000000064300000000000010709000000000000200002013081900000010000000000000BRBBASACNOR3237
012013080678BBASH21     070BBAS        ON      NM000R$  000000000014500000000001630000000000090000000000012900000000000980000000000090000000000012400057000000000000076700000000000009907400000000000207602013081900000010000000000000BRBBASACNOR3236
012013080678BBASH22     070BBAS  FM    ON      NM000R$  000000000008600000000000890000000000035000000000005700000000000420000000000032000000000004400258000000000000253300000000000014549500000000000217602013081900000010000000000000BRBBASACNOR3236
012013080678BBASH23     070BBAS  FM    ON      NM000R$  000000000002800000000000300000000000014000000000001700000000000140000000000012000000000001600169000000000000431300000000000007656200000000000227602013081900000010000000000000BRBBASACNOR3236
012013080678BBASH24     070BBAS  FM    ON      NM000R$  000000000001700000000000170000000000009000000000000900000000000090000000000009000000000002600134000000000000498000000000000004940600000000000231702013081900000010000000000000BRBBASACNOR3233
012013080678BBASH25     070BBAS  FM    ON      NM000R$  000000000000600000000000060000000000003000000000000300000000000040000000000002000000000000400029000000000000045400000000000000151000000000000241702013081900000010000000000000BRBBASACNOR3233
012013080678BBASH26     070BBAS  FM    ON      NM000R$  000000000000100000000000010000000000001000000000000100000000000010000000000000000000000000200012000000000000046100000000000000046100000000000256602013081900000010000000000000BRBBASACNOR3235
012013080678BBASI21     070BBAS        ON      NM000R$  000000000014300000000001430000000000134000000000013500000000001340000000000000000000000021000002000000000000005000000000000000679000000000000210002013091600000010000000000000BRBBASACNOR3237
012013080678BBASI22     070BBAS  FM    ON      NM000R$  000000000013000000000001300000000000077000000000009900000000000780000000000041000000000009700090000000000000192500000000000019077000000000000217602013091600000010000000000000BRBBASACNOR3236
012013080678BBASI23     070BBAS  FM    ON      NM000R$  000000000007100000000000730000000000040000000000005000000000000450000000000031000000000004500045000000000000095000000000000004801300000000000227602013091600000010000000000000BRBBASACNOR3236
012013080678BBASI24     070BBAS  FM    ON      NM000R$  000000000003700000000000370000000000018000000000002200000000000180000000000016000000000001900038000000000000045900000000000001041700000000000237602013091600000010000000000000BRBBASACNOR3236
012013080678BBASI25     070BBAS  FM    ON      NM000R$  000000000001600000000000200000000000010000000000001200000000000100000000000009000000000002000038000000000000042900000000000000517300000000000246602013091600000010000000000000BRBBASACNOR3235
012013080678BBASI26     070BBAS  FM    ON      NM000R$  000000000000700000000000080000000000005000000000000700000000000050000000000003000000000002000009000000000000017000000000000000123800000000000256602013091600000010000000000000BRBBASACNOR3235
012013080678BBASI28     070BBAS        ON      NM000R$  000000000000200000000000020000000000002000000000000200000000000020000000000001000000000001400001000000000000000800000000000000001600000000000276602013091600000010000000000000BRBBASACNOR3235
012013080678BBASI52     070BBAS        ON      NM000R$  000000000006600000000000660000000000066000000000006600000000000660000000000000000000000000000001000000000000003600000000000000237600000000000225002013091600000010000000000000BRBBASACNOR3237
012013080678BBASI61     070BBASE       ON      NM000R$  000000000006500000000000650000000000065000000000006500000000000650000000000000000000000000000001000000000000004000000000000000260000000000000222502013091600000010000000000000BRBBASACNOR3237
012013080678BBASJ20     070BBAS        ON      NM000R$  000000000024400000000002440000000000224000000000023300000000002240000000000000000000000000000006000000000000017900000000000004188500000000000200002013102100000010000000000000BRBBASACNOR3237
012013080678BBASJ21     070BBAS        ON      NM000R$  000000000018000000000001800000000000165000000000016700000000001650000000000000000000000000000002000000000000003600000000000000603000000000000210002013102100000010000000000000BRBBASACNOR3237
012013080678BBASJ22     070BBAS        ON      NM000R$  000000000011800000000001180000000000109000000000011200000000001090000000000000000000000000000003000000000000001600000000000000180600000000000220002013102100000010000000000000BRBBASACNOR3237
012013080678BBASJ23     070BBAS        ON      NM000R$  000000000011000000000001100000000000077000000000008100000000000770000000000000000000000007800068000000000000036000000000000002932200000000000226602013102100000010000000000000BRBBASACNOR3235
012013080678BBASJ24     070BBAS        ON      NM000R$  000000000004600000000000500000000000043000000000004500000000000430000000000031000000000004900009000000000000018300000000000000831300000000000237602013102100000010000000000000BRBBASACNOR3236
012013080678BBASJ25     070BBAS        ON      NM000R$  000000000002500000000000250000000000021000000000002400000000000210000000000017000000000002100045000000000000599200000000000014735400000000000250002013102100000010000000000000BRBBASACNOR3237
012013080678BBASJ26     070BBAS        ON      NM000R$  000000000001600000000000160000000000016000000000001600000000000160000000000013000000000000000001000000000000000200000000000000003200000000000256602013102100000010000000000000BRBBASACNOR3235
012013080678BBASJ27     070BBAS        ON      NM000R$  000000000001100000000000110000000000008000000000000800000000000080000000000007000000000009800003000000000000004300000000000000035300000000000266602013102100000010000000000000BRBBASACNOR3235
012013080678BBASJ53     070BBAS        ON      NM000R$  000000000006000000000000600000000000060000000000006000000000000600000000000000000000000000000002000000000000006000000000000000360000000000000231602013102100000010000000000000BRBBASACNOR3235
012013080678BBASK21     070BBAS        ON      NM000R$  000000000022000000000002200000000000220000000000022000000000002200000000000011000000000000000001000000000000001400000000000000308000000000000207602013111800000010000000000000BRBBASACNOR3236
012013080678BBASK22     070BBAS        ON      NM000R$  000000000013800000000001380000000000138000000000013800000000001380000000000125000000000000000001000000000000000600000000000000082800000000000220002013111800000010000000000000BRBBASACNOR3237
012013080678BBASK23     070BBAS        ON      NM000R$  000000000009700000000000970000000000097000000000009700000000000970000000000000000000000009800001000000000000000600000000000000058200000000000230002013111800000010000000000000BRBBASACNOR3237
012013080678BBASK24     070BBAS        ON      NM000R$  000000000006500000000000650000000000065000000000006500000000000650000000000000000000000000000001000000000000000100000000000000006500000000000240002013111800000010000000000000BRBBASACNOR3237
012013080678BBASK26     070BBAS        ON      NM000R$  000000000002500000000000250000000000025000000000002500000000000250000000000016000000000000000001000000000000000100000000000000002500000000000257602013111800000010000000000000BRBBASACNOR3236
012013080678BBASK27     070BBAS        ON      NM000R$  000000000001500000000000150000000000015000000000001500000000000150000000000011000000000000000001000000000000001200000000000000018000000000000267602013111800000010000000000000BRBBASACNOR3236
012013080678BBASK29     070BBAS        ON      NM000R$  000000000000600000000000060000000000006000000000000600000000000060000000000000000000000000000001000000000000000100000000000000000600000000000290002013111800000010000000000000BRBBASACNOR3237
012013080678BBASL21     070BBAS        ON      NM000R$  000000000021400000000002140000000000214000000000021400000000002140000000000000000000000000000001000000000000002000000000000000428000000000000210002013121600000010000000000000BRBBASACNOR3237
012013080678BBASL25     070BBAS        ON      NM000R$  000000000006000000000000600000000000060000000000006000000000000600000000000000000000000000000005000000000000010000000000000000600000000000000246602013121600000010000000000000BRBBASACNOR3235
012013080682BBAST17     080BBASE       ON      NM000R$  000000000000100000000000010000000000001000000000000100000000000010000000000000000000000000000001000000000000000100000000000000000100000000000170002013081900000010000000000000BRBBASACNOR3237
012013080682BBAST19     080BBASE       ON      NM000R$  000000000000500000000000050000000000005000000000000500000000000050000000000001000000000000000001000000000000000100000000000000000500000000000190002013081900000010000000000000BRBBASACNOR3237
012013080682BBAST21     080BBASE FM    ON      NM000R$  000000000000900000000000240000000000009000000000001700000000000240000000000000000000000004000024000000000000038500000000000000663900000000000207602013081900000010000000000000BRBBASACNOR3236
012013080682BBAST22     080BBASE FM    ON      NM000R$  000000000003000000000000700000000000030000000000004900000000000660000000000005000000000007000050000000000000096300000000000004811200000000000217602013081900000010000000000000BRBBASACNOR3236
012013080682BBAST23     080BBASE FM    ON      NM000R$  000000000007600000000001410000000000073000000000011100000000001390000000000000000000000000000103000000000000185100000000000020695800000000000227602013081900000010000000000000BRBBASACNOR3236
012013080682BBAST24     080BBASE FM    ON      NM000R$  000000000009800000000001790000000000098000000000014600000000001780000000000026000000000000000131000000000000276800000000000040460600000000000231702013081900000010000000000000BRBBASACNOR3233
012013080682BBAST25     080BBASE       ON      NM000R$  000000000019600000000001960000000000195000000000019500000000001950000000000000000000000000000002000000000000006000000000000001173000000000000241702013081900000010000000000000BRBBASACNOR3233
012013080682BBASU20     080BBASE       ON      NM000R$  000000000002800000000000320000000000025000000000003000000000000320000000000000000000000000000005000000000000007100000000000000215800000000000200002013091600000010000000000000BRBBASACNOR3237
012013080682BBASU21     080BBASE FM    ON      NM000R$  000000000003700000000000560000000000035000000000004200000000000560000000000000000000000007000015000000000000022000000000000000934500000000000210002013091600000010000000000000BRBBASACNOR3237
012013080682BBASU22     080BBASE FM    ON      NM000R$  000000000006000000000000970000000000058000000000007200000000000960000000000000000000000000000022000000000000041100000000000002976000000000000217602013091600000010000000000000BRBBASACNOR3236
012013080682BBASU23     080BBASE FM    ON      NM000R$  000000000010500000000001560000000000100000000000012400000000001560000000000000000000000000000047000000000000075100000000000009363100000000000227602013091600000010000000000000BRBBASACNOR3236
012013080682BBASU24     080BBASE FM    ON      NM000R$  000000000016800000000002350000000000162000000000020000000000002330000000000000000000000000000092000000000000173700000000000034804600000000000237602013091600000010000000000000BRBBASACNOR3236
012013080682BBASU25     080BBASE       ON      NM000R$  000000000024400000000002440000000000244000000000024400000000002440000000000000000000000000000001000000000000002000000000000000488000000000000246602013091600000010000000000000BRBBASACNOR3235
012013080682BBASU26     080BBASE       ON      NM000R$  000000000033500000000003350000000000335000000000033500000000003350000000000000000000000000000001000000000000002600000000000000871000000000000256602013091600000010000000000000BRBBASACNOR3235
012013080682BBASU51     080BBASE       ON      NM000R$  000000000003400000000000340000000000034000000000003400000000000340000000000000000000000000000001000000000000003200000000000000108800000000000205002013091600000010000000000000BRBBASACNOR3237
012013080682BBASU52     080BBASE       ON      NM000R$  000000000009100000000001120000000000091000000000010000000000001120000000000000000000000000000002000000000000007300000000000000733600000000000225002013091600000010000000000000BRBBASACNOR3237
012013080682BBASU61     080BBASE       ON      NM000R$  000000000007900000000000990000000000079000000000009100000000000990000000000000000000000000000002000000000000006600000000000000601400000000000222502013091600000010000000000000BRBBASACNOR3237
012013080682BBASV20     080BBASE       ON      NM000R$  000000000004600000000000460000000000045000000000004500000000000450000000000000000000000006000002000000000000500000000000000022850000000000000200002013102100000010000000000000BRBBASACNOR3237
012013080682BBASV21     080BBASE       ON      NM000R$  000000000007200000000000870000000000072000000000007800000000000870000000000000000000000000000005000000000000015000000000000001173000000000000210002013102100000010000000000000BRBBASACNOR3237
012013080682BBASV22     080BBASE       ON      NM000R$  000000000011100000000001320000000000104000000000012100000000001320000000000000000000000000000123000000000000139000000000000016931300000000000220002013102100000010000000000000BRBBASACNOR3237
012013080682BBASV23     080BBASE       ON      NM000R$  000000000014500000000001690000000000145000000000015600000000001690000000000000000000000000000012000000000000034200000000000005359500000000000226602013102100000010000000000000BRBBASACNOR3235
012013080682BBASV24     080BBASE       ON      NM000R$  000000000021400000000002330000000000214000000000022500000000002330000000000000000000000000000006000000000000017200000000000003876700000000000237602013102100000010000000000000BRBBASACNOR3236
012013080682BBASV53     080BBASE       ON      NM000R$  000000000017400000000001930000000000174000000000018400000000001930000000000000000000000000000007000000000000021000000000000003879000000000000231602013102100000010000000000000BRBBASACNOR3235
012013080602BBDC3       010BRADESCO    ON  EJ  N1   R$  000000000306800000000030680000000002940000000000297400000000029470000000002947000000000296204101000000000001230800000000003661548600000000000000009999123100000010000000000000BRBBDCACNOR1605
012013080696BBDC3F      020BRADESCO    ON  EJ  N1   R$  000000000309900000000030990000000002903000000000298300000000029530000000002953000000000298300080000000000000002109000000000006291092000000000000009999123100000010000000000000BRBBDCACNOR1605
012013080662BBDC3T      030BRADESCO    ON  EJ  N1030R$  000000000300300000000030040000000003003000000000300300000000030040000000000000000000000000000002000000000000000200000000000000600649000000000000009999123100000010000000000000BRBBDCACNOR1605
012013080602BBDC4       010BRADESCO    PN  EJ  N1   R$  000000000277500000000027750000000002694000000000271500000000027060000000002704000000000270619500000000000008367500000000022721835900000000000000009999123100000010000000000000BRBBDCACNPR8605
012013080696BBDC4F      020BRADESCO    PN  EJ  N1   R$  000000000277300000000027730000000002696000000000271900000000027060000000002705000000000270600254000000000000006564000000000017847183000000000000009999123100000010000000000000BRBBDCACNPR8605
012013080662BBDC4T      030BRADESCO    PN  EJ  N1016R$  000000000272500000000027320000000002719000000000272900000000027200000000000000000000000000000008000000000000120900000000000329986508000000000000009999123100000010000000000000BRBBDCACNPR8605
012013080662BBDC4T      030BRADESCO    PN  EJ  N1030R$  000000000277900000000027800000000002723000000000272700000000027240000000000000000000000000000010000000000000007200000000000019640604000000000000009999123100000010000000000000BRBBDCACNPR8605
012013080662BBDC4T      030BRADESCO    PN  EJ  N1044R$  000000000275500000000027560000000002751000000000275400000000027520000000000000000000000000000006000000000000028000000000000077133700000000000000009999123100000010000000000000BRBBDCACNPR8605
012013080662BBDC4T      030BRADESCO    PN  EJ  N1090R$  000000000276800000000027690000000002768000000000276800000000027690000000000000000000000000000002000000000000005000000000000013844439000000000000009999123100000010000000000000BRBBDCACNPR8605
012013080662BBDC4T      030BRADESCO    PN  EJ  N1314R$  000000000296500000000029660000000002965000000000296500000000029660000000000000000000000000000002000000000000011000000000000032621782000000000000009999123100000010000000000000BRBBDCACNPR8605
012013080678BBDCB87     070BBDC    /EJ ON      N1000R$  000000000005900000000000610000000000059000000000005900000000000610000000000000000000000000000004000000000000300000000000000017960000000000000369802014021700000010000000000000BRBBDCACNOR1604
012013080678BBDCH27     070BBDC    /EJ PN      N1000R$  000000000011500000000001150000000000072000000000008800000000000720000000000000000000000010000199000000000000172900000000000015323900000000000267802013081900000010000000000000BRBBDCACNPR8602
012013080678BBDCH28     070BBDC    /EJ PN      N1000R$  000000000005000000000000500000000000024000000000003200000000000270000000000027000000000003000133000000000000277000000000000009101600000000000277802013081900000010000000000000BRBBDCACNPR8602
012013080678BBDCH29     070BBDC    /EJ PN      N1000R$  000000000001500000000000180000000000008000000000001000000000000080000000000005000000000001900060000000000000186500000000000002046200000000000287802013081900000010000000000000BRBBDCACNPR8602
012013080678BBDCH30     070BBDC    /EJ PN      N1000R$  000000000000400000000000040000000000002000000000000200000000000020000000000002000000000000500053000000000000186800000000000000555900000000000297802013081900000010000000000000BRBBDCACNPR8602
012013080678BBDCH31     070BBDC    /EJ PN      N1000R$  000000000000200000000000020000000000002000000000000200000000000020000000000000000000000000900002000000000000001400000000000000002800000000000307402013081900000010000000000000BRBBDCACNPR8600
012013080678BBDCH32     070BBDC    /EJ PN      N1000R$  000000000000100000000000010000000000001000000000000100000000000010000000000000000000000000100010000000000000065600000000000000065600000000000317802013081900000010000000000000BRBBDCACNPR8602
012013080678BBDCI26     070BBDC    /EJ PN      N1000R$  000000000018900000000001890000000000174000000000018100000000001760000000000000000000000030000055000000000000032000000000000005795800000000000259802013091600000010000000000000BRBBDCACNPR8604
012013080678BBDCI27     070BBDC    /EJ PN      N1000R$  000000000016100000000001610000000000118000000000013200000000001180000000000116000000000012600226000000000000150800000000000020055500000000000267802013091600000010000000000000BRBBDCACNPR8602
012013080678BBDCI28     070BBDC    /EJ PN      N1000R$  000000000009900000000000990000000000070000000000007800000000000700000000000000000000000009900052000000000000092900000000000007289700000000000277802013091600000010000000000000BRBBDCACNPR8602
012013080678BBDCI29     070BBDC    /EJ PN      N1000R$  000000000005500000000000550000000000038000000000004200000000000380000000000032000000000005000102000000000000196200000000000008424900000000000287802013091600000010000000000000BRBBDCACNPR8602
012013080678BBDCI30     070BBDC    /EJ PN      N1000R$  000000000002900000000000290000000000022000000000002300000000000220000000000011000000000002500039000000000000097900000000000002342000000000000297802013091600000010000000000000BRBBDCACNPR8602
012013080678BBDCI31     070BBDC    /EJ PN      N1000R$  000000000010500000000001050000000000097000000000010400000000000970000000000000000000000000000004000000000000006100000000000000639700000000000272902013091600000010000000000000BRBBDCACNPR8590
012013080678BBDCI32     070BBDC    /EJ PN      N1000R$  000000000000600000000000060000000000006000000000000600000000000060000000000000000000000000000002000000000000000600000000000000003600000000000317802013091600000010000000000000BRBBDCACNPR8602
012013080678BBDCI33     070BBDC    /EJ PN      N1000R$  000000000002300000000000230000000000021000000000002100000000000210000000000000000000000000000003000000000000000500000000000000010900000000000297202013091600000010000000000000BRBBDCACNPR8598
012013080678BBDCI35     070BBDC    /EJ PN      N1000R$  000000000000200000000000020000000000002000000000000200000000000020000000000000000000000000000001000000000000000300000000000000000600000000000347602013091600000010000000000000BRBBDCACNPR8601
012013080678BBDCI75     070BBDCE   /EJ PN      N1000R$  000000000006400000000000640000000000059000000000006200000000000590000000000000000000000000000008000000000000011600000000000000723400000000000282302013091600000010000000000000BRBBDCACNPR8604
012013080678BBDCI81     070BBDC    /EJ PN      N1000R$  000000000001000000000000110000000000009000000000001000000000000090000000000008000000000000000008000000000000010400000000000000104300000000000307802013091600000010000000000000BRBBDCACNPR8602
012013080678BBDCJ29     070BBDC    /EJ PN      N1000R$  000000000008700000000000880000000000078000000000008400000000000780000000000000000000000007800006000000000000013600000000000001153400000000000287802013102100000010000000000000BRBBDCACNPR8602
012013080678BBDCJ30     070BBDC    /EJ PN      N1000R$  000000000005400000000000540000000000047000000000005200000000000500000000000044000000000005300005000000000000010000000000000000529200000000000297802013102100000010000000000000BRBBDCACNPR8602
012013080678BBDCJ31     070BBDC    /EJ PN      N1000R$  000000000003300000000000330000000000029000000000003200000000000290000000000010000000000000000004000000000000007400000000000000242200000000000307802013102100000010000000000000BRBBDCACNPR8602
012013080682BBDCN79     080BBDCE   /EJ ON      N1000R$  000000000015600000000001600000000000156000000000015700000000001600000000000000000000000000000002000000000000300000000000000047320000000000000289802014021700000010000000000000BRBBDCACNOR1604
012013080682BBDCN82     080BBDCE   /EJ ON      N1000R$  000000000026500000000002660000000000265000000000026500000000002660000000000000000000000000000002000000000000300000000000000079630000000000000319802014021700000010000000000000BRBBDCACNOR1604
012013080682BBDCT25     080BBDCE   /EJ PN      N1000R$  000000000000700000000000070000000000007000000000000700000000000070000000000001000000000000000001000000000000000100000000000000000700000000000247802013081900000010000000000000BRBBDCACNPR8602
012013080682BBDCT26     080BBDCE   /EJ PN      N1000R$  000000000001500000000000150000000000014000000000001400000000000140000000000000000000000003600004000000000000016300000000000000243200000000000257802013081900000010000000000000BRBBDCACNPR8602
012013080682BBDCT27     080BBDCE   /EJ PN      N1000R$  000000000002500000000000430000000000025000000000003600000000000380000000000000000000000004400066000000000000181000000000000006664700000000000267802013081900000010000000000000BRBBDCACNPR8602
012013080682BBDCT28     080BBDCE   /EJ PN      N1000R$  000000000005800000000000980000000000058000000000008400000000000900000000000000000000000000000047000000000000094400000000000008014400000000000277802013081900000010000000000000BRBBDCACNPR8602
012013080682BBDCT29     080BBDCE   /EJ PN      N1000R$  000000000012600000000001780000000000119000000000015900000000001700000000000000000000000000000160000000000000259800000000000041317200000000000287802013081900000010000000000000BRBBDCACNPR8602
012013080682BBDCT30     080BBDCE   /EJ PN      N1000R$  000000000021900000000002640000000000215000000000023900000000002640000000000000000000000000000008000000000000015800000000000003778800000000000297802013081900000010000000000000BRBBDCACNPR8602
012013080682BBDCU26     080BBDCE   /EJ PN      N1000R$  000000000004300000000000510000000000043000000000004600000000000510000000000036000000000000000010000000000000017600000000000000819700000000000259802013091600000010000000000000BRBBDCACNPR8604
012013080682BBDCU27     080BBDCE   /EJ PN      N1000R$  000000000005900000000000800000000000059000000000007100000000000800000000000000000000000010000018000000000000026900000000000001919700000000000267802013091600000010000000000000BRBBDCACNPR8602
012013080682BBDCU28     080BBDCE   /EJ PN      N1000R$  000000000009500000000001240000000000095000000000011100000000001220000000000000000000000000000020000000000000032000000000000003582200000000000277802013091600000010000000000000BRBBDCACNPR8602
012013080682BBDCU29     080BBDCE   /EJ PN      N1000R$  000000000015000000000001920000000000150000000000017000000000001920000000000000000000000000000051000000000000084300000000000014375700000000000287802013091600000010000000000000BRBBDCACNPR8602
012013080682BBDCU30     080BBDCE   /EJ PN      N1000R$  000000000025600000000002600000000000256000000000025700000000002600000000000000000000000000000002000000000000001500000000000000386000000000000297802013091600000010000000000000BRBBDCACNPR8602
012013080682BBDCU31     080BBDCE   /EJ PN      N1000R$  000000000009900000000000990000000000099000000000009900000000000990000000000000000000000000000001000000000000001700000000000000168300000000000272902013091600000010000000000000BRBBDCACNPR8590
012013080682BBDCU33     080BBDCE   /EJ PN      N1000R$  000000000024900000000002510000000000249000000000025000000000002510000000000000000000000000000002000000000000003000000000000000751000000000000297202013091600000010000000000000BRBBDCACNPR8598
012013080682BBDCU75     080BBDCE   /EJ PN      N1000R$  000000000014300000000001430000000000143000000000014300000000001430000000000000000000000000000001000000000000001000000000000000143000000000000282302013091600000010000000000000BRBBDCACNPR8604
012013080682BBDCU81     080BBDCE   /EJ PN      N1000R$  000000000031000000000003530000000000310000000000033100000000003530000000000000000000000000000002000000000000002000000000000000663000000000000307802013091600000010000000000000BRBBDCACNPR8602
012013080682BBDCV1      080BBDCE   /EJ PN      N1000R$  000000000041700000000004170000000000407000000000041200000000004140000000000000000000000000000003000000000000003000000000000001238000000000000314602013102100000010000000000000BRBBDCACNPR8603
012013080682BBDCV2      080BBDCE   /EJ PN      N1000R$  000000000050800000000005080000000000497000000000050100000000004970000000000000000000000000000002000000000000003300000000000001654400000000000324602013102100000010000000000000BRBBDCACNPR8603
012013080682BBDCV24     080BBDCE   /EJ PN      N1000R$  000000000002500000000000250000000000025000000000002500000000000250000000000000000000000000000001000000000000001200000000000000030000000000000239802013102100000010000000000000BRBBDCACNPR8604
012013080682BBDCV29     080BBDCE   /EJ PN      N1000R$  000000000020200000000002110000000000200000000000020600000000002090000000000000000000000000000021000000000000031900000000000006593400000000000287802013102100000010000000000000BRBBDCACNPR8602
012013080682BBDCV30     080BBDCE   /EJ PN      N1000R$  000000000028000000000002800000000000271000000000027500000000002780000000000000000000000000000009000000000000015600000000000004302000000000000297802013102100000010000000000000BRBBDCACNPR8602
012013080682BBDCV31     080BBDCE   /EJ PN      N1000R$  000000000034400000000003590000000000344000000000035300000000003560000000000000000000000000000005000000000000009400000000000003318600000000000307802013102100000010000000000000BRBBDCACNPR8602
012013080682BBDCV32     080BBDCE   /EJ PN      N1000R$  000000000044600000000004460000000000435000000000044000000000004420000000000000000000000000000003000000000000005600000000000002467600000000000317802013102100000010000000000000BRBBDCACNPR8602
012013080612BBFI11B     010FII BB PROGRCI  ER  MB   R$  000000043254900000004340000000000416111000000042555900000004161110000000416111000000043189900009000000000000000036000000000015320136000000000000009999123100000010000000000000BRBBFICTF006197
012013080612BBPO11      010FII BB PRGIICI  ER       R$  000000001118800000000112280000000011114000000001117400000000111900000000011170000000001119000121000000000000011073000000000123738047000000000000009999123100000010000000000000BRBBPOCTF003109
012013080612BBRC11      010FII BB CORP CI  ER       R$  000000000915000000000091810000000009150000000000916200000000091750000000009104000000000917500008000000000000000323000000000002959555000000000000009999123100000010000000000000BRBBRCCTF004123
012013080602BBRK3       010BR BROKERS  ON      NM   R$  000000000057200000000005770000000000551000000000055800000000005510000000000551000000000055501863000000000000709300000000000396144200000000000000009999123100000010000000000000BRBBRKACNOR4108
012013080696BBRK3F      020BR BROKERS  ON      NM   R$  000000000056800000000005930000000000555000000000056900000000005930000000000544000000000059300004000000000000000129000000000000073407000000000000009999123100000010000000000000BRBBRKACNOR4108
012013080602BBSE3       010BBSEGURIDADEON      NM   R$  000000000193600000000019480000000001903000000000192900000000019400000000001927000000000194011306000000000003746700000000007230288300000000000000009999123100000010000000000000BRBBSEACNOR5100
012013080696BBSE3F      020BBSEGURIDADEON      NM   R$  000000000193100000000019480000000001896000000000192900000000019330000000001921000000000193300868000000000000026192000000000050536814000000000000009999123100000010000000000000BRBBSEACNOR5100
012013080678BBSEJ50     070BBSE        ON      NM000R$  000000000003600000000000360000000000036000000000003600000000000360000000000000000000000000000001000000000000023000000000000000828000000000000205002013102100000010000000000000BRBBSEACNOR5100
012013080602BBTG11      010BTG PACTUAL UNT          R$  000000000274900000000028100000000002623000000000266500000000026700000000002670000000000267102078000000000000699900000000001865451600000000000000009999123100000010000000000000BRBBTGUNT007104
012013080696BBTG11F     020BTG PACTUAL UNT          R$  000000000274300000000028000000000002649000000000267300000000026510000000002650000000000270000011000000000000000260000000000000695176000000000000009999123100000010000000000000BRBBTGUNT007104
012013080662BBTG11T     030BTG PACTUAL UNT       090R$  000000000270700000000027080000000002707000000000270700000000027080000000000000000000000000000002000000000000001500000000000004061354000000000000009999123100000010000000000000BRBBTGUNT007104
012013080612BBVJ11      010FII C JARDIMCI  ER       R$  000000000800000000000081990000000007904000000000805000000000080000000000007937000000000808000075000000000000009996000000000080474380000000000000009999123100000010000000000000BRBBVJCTF001132
012013080612BCFF11B     010FII BC FFII CI      MB   R$  000000001015200000000101560000000010083000000001014100000000101560000000010156000000001015800054000000000000003191000000000032362912000000000000009999123100000010000000000000BRBCFFCTF000140
012013080602BEEF3       010MINERVA     ON      NM   R$  000000000095700000000009590000000000937000000000094900000000009450000000000945000000000095001340000000000000289800000000000275064400000000000000009999123100000010000000000000BRBEEFACNOR6104
012013080696BEEF3F      020MINERVA     ON      NM   R$  000000000095500000000009800000000000947000000000096100000000009500000000000935000000000098100006000000000000000214000000000000205816000000000000009999123100000010000000000000BRBEEFACNOR6104
012013080602BEES3       010BANESTES    ON  EJ       R$  000000000004700000000000470000000000046000000000004600000000000470000000000046000000000004700011000000000000017000000000000000790000000000000000009999123100000010000000000000BRBEESACNOR9243
012013080602BEES4       010BANESTES    PN  EJ       R$  000000000004300000000000430000000000043000000000004300000000000430000000000043000000000004500002000000000000000800000000000000034400000000000000009999123100000010000000000000BRBEESACNPR6168
012013080602BEMA3       010BEMATECH    ON      NM   R$  000000000074700000000007550000000000730000000000073900000000007330000000000733000000000074200127000000000000075900000000000056107700000000000000009999123100000010000000000000BRBEMAACNOR0113
012013080696BEMA3F      020BEMATECH    ON      NM   R$  000000000074000000000007400000000000740000000000074000000000007400000000000723000000000074000003000000000000000043000000000000031820000000000000009999123100000010000000000000BRBEMAACNOR0113
012013080602BHGR3       010BHG         ON      NM   R$  000000000159200000000015920000000001521000000000155500000000015800000000001570000000000158000203000000000000039100000000000060802300000000000000009999123100000010000000000000BRBHGRACNOR9101
012013080696BHGR3F      020BHG         ON      NM   R$  000000000157400000000015740000000001574000000000157400000000015740000000001450000000000160000002000000000000000055000000000000086570000000000000009999123100000010000000000000BRBHGRACNOR9101
012013080602BICB4       010BICBANCO    PN      N1   R$  000000000034000000000003710000000000336000000000034400000000003400000000000337000000000034000115000000000000097400000000000033550100000000000000009999123100000010000000000000BRBICBACNPR7131
012013080696BICB4F      020BICBANCO    PN      N1   R$  000000000034000000000003600000000000336000000000035100000000003360000000000336000000000036700010000000000000000208000000000000073123000000000000009999123100000010000000000000BRBICBACNPR7131
012013080662BICB4T      030BICBANCO    PN      N1030R$  000000000034200000000003430000000000342000000000034200000000003430000000000000000000000000000002000000000000000200000000000000068462000000000000009999123100000010000000000000BRBICBACNPR7131
012013080602BISA3       010BROOKFIELD  ON      NM   R$  000000000016600000000001680000000000157000000000016100000000001580000000000158000000000015905325000000000011523200000000001858020600000000000000009999123100000010000000000000BRBISAACNOR8109
012013080696BISA3F      020BROOKFIELD  ON      NM   R$  000000000016600000000001670000000000152000000000015900000000001520000000000153000000000017600027000000000000000601000000000000095807000000000000009999123100000010000000000000BRBISAACNOR8109
012013080662BISA3T      030BROOKFIELD  ON      NM030R$  000000000016600000000001670000000000166000000000016600000000001670000000000000000000000000000002000000000000001000000000000000166122000000000000009999123100000010000000000000BRBISAACNOR8109
012013080662BISA3T      030BROOKFIELD  ON      NM090R$  000000000016600000000001670000000000161000000000016200000000001630000000000000000000000000000026000000000001600000000000000260317479000000000000009999123100000010000000000000BRBISAACNOR8109
012013080612BMLC11B     010FII BMBRC LCCI      MB   R$  000000001173800000000117700000000011738000000001175200000000117500000000011750000000001199900022000000000000005260000000000061816880000000000000009999123100000010000000000000BRBMLCCTF004117
012013080602BMTO4       010BRASMOTOR   PN           R$  000000000008700000000000880000000000087000000000008700000000000880000000000085000000000008800002000000000000003000000000000000262000000000000000009999123100000010000000000000BRBMTOACNPR6065
012013080612BNFS11      010FII BANRISULCI  ER       R$  000000000990000000000099000000000009900000000000990000000000099000000000009810000000001020000002000000000000000024000000000000237600000000000000009999123100000010000000000000BRBNFSCTF000111
012013080614BOVA11      010ISHARES BOVACI           R$  000000000471600000000047650000000004637000000000466400000000046420000000004642000000000466204268000000000002684800000000012524197610000000000000009999123100000010000000000000BRBOVACTF003101
012013080696BOVA11F     020ISHARES BOVACI           R$  000000000473200000000047320000000004624000000000467900000000046240000000004624000000000465100022000000000000000058000000000000271437000000000000009999123100000010000000000000BRBOVACTF003101
012013080662BOVA11T     030ISHARES BOVACI        030R$  000000000479100000000047920000000004791000000000479100000000047920000000000000000000000000000002000000000000000300000000000001437408000000000000009999123100000010000000000000BRBOVACTF003101
012013080612BPFF11      010FII ABSOLUTOCI  ER       R$  000000000910000000000091000000000008950000000000896200000000089590000000008959000000000906500008000000000000000241000000000002159990000000000000009999123100000010000000000000BRBPFFCTF002104
012013080602BPHA3       010BR PHARMA   ON      NM   R$  000000000101100000000010200000000000993000000000099900000000009950000000000995000000000100902916000000000000979300000000000979175800000000000000009999123100000010000000000000BRBPHAACNOR6102
012013080696BPHA3F      020BR PHARMA   ON      NM   R$  000000000100000000000010050000000001000000000000100400000000010050000000000991000000000109600002000000000000000029000000000000029120000000000000009999123100000010000000000000BRBPHAACNOR6102
012013080662BPHA3T      030BR PHARMA   ON      NM030R$  000000000101500000000010160000000001015000000000101500000000010160000000000000000000000000000002000000000000013000000000000013204884000000000000009999123100000010000000000000BRBPHAACNOR6102
012013080602BPNM4       010PANAMERICANOPN      N1   R$  000000000060900000000006090000000000581000000000058600000000005850000000000581000000000058600189000000000000108500000000000063659200000000000000009999123100000010000000000000BRBPNMACNPR6111
012013080696BPNM4F      020PANAMERICANOPN      N1   R$  000000000058300000000006100000000000582000000000059600000000006080000000000581000000000067000012000000000000000160000000000000095435000000000000009999123100000010000000000000BRBPNMACNPR6111
012013080662BPNM4T      030PANAMERICANOPN      N1030R$  000000000060400000000006050000000000604000000000060400000000006050000000000000000000000000000002000000000000001100000000000000664554000000000000009999123100000010000000000000BRBPNMACNPR6111
012013080602BRAP3       010BRADESPAR   ON      N1   R$  000000000189100000000019100000000001850000000000185800000000018500000000001850000000000189900044000000000000022700000000000042184000000000000000009999123100000010000000000000BRBRAPACNOR5124
012013080602BRAP4       010BRADESPAR   PN      N1   R$  000000000225300000000022700000000002215000000000223600000000022410000000002241000000000224203958000000000001361100000000003043968300000000000000009999123100000010000000000000BRBRAPACNPR2124
012013080696BRAP4F      020BRADESPAR   PN      N1   R$  000000000229700000000022970000000002102000000000222900000000021020000000002102000000000224500038000000000000000912000000000002033133000000000000009999123100000010000000000000BRBRAPACNPR2124
012013080678BRAPI24     070BRAP        PN      N1000R$  000000000005000000000000530000000000050000000000005200000000000520000000000000000000000000000004000000000000002000000000000000104400000000000240002013091600000010000000000000BRBRAPACNPR2124
012013080612BRCR11      010FII BC FUND CI           R$  000000001340400000000134640000000013350000000001340900000000134200000000013353000000001342000272000000000000018664000000000250277807000000000000009999123100000010000000000000BRBRCRCTF000131
012013080602BRFS3       010BRF SA      ON      NM   R$  000000000499700000000049980000000004844000000000489100000000048700000000004869000000000487007992000000000002857300000000013976392000000000000000009999123100000010000000000000BRBRFSACNOR8110
012013080696BRFS3F      020BRF SA      ON      NM   R$  000000000490500000000049710000000004848000000000489600000000048700000000004869000000000487000089000000000000002268000000000011105045000000000000009999123100000010000000000000BRBRFSACNOR8110
012013080662BRFS3T      030BRF SA      ON      NM030R$  000000000491100000000049120000000004911000000000491100000000049120000000000000000000000000000004000000000000000200000000000000982326000000000000009999123100000010000000000000BRBRFSACNOR8110
012013080662BRFS3T      030BRF SA      ON      NM120R$  000000000503000000000050310000000005030000000000503000000000050310000000000000000000000000000002000000000000002000000000000010060680000000000000009999123100000010000000000000BRBRFSACNOR8110
012013080678BRFSG60     070BRFS        ON      NM000R$  000000000013400000000001340000000000134000000000013400000000001340000000000000000000000000000002000000000000440000000000000058960000000000000600002014072100000010000000000000BRBRFSACNOR8110
012013080682BRFSS44     080BRFSE       ON      NM000R$  000000000010700000000001070000000000107000000000010700000000001070000000000000000000000000000002000000000000440000000000000047080000000000000440002014072100000010000000000000BRBRFSACNOR8110
012013080682BRFSS49     080BRFSE       ON      NM000R$  000000000024100000000002410000000000241000000000024100000000002410000000000000000000000000000002000000000000440000000000000106040000000000000490002014072100000010000000000000BRBRFSACNOR8110
012013080602BRIN3       010BR INSURANCEON      NM   R$  000000000222700000000022370000000002200000000000221600000000022370000000002235000000000223702309000000000000402000000000000891145600000000000000009999123100000010000000000000BRBRINACNOR3105
012013080696BRIN3F      020BR INSURANCEON      NM   R$  000000000229000000000022900000000002200000000000221700000000022370000000002201000000000228600040000000000000000760000000000001685586000000000000009999123100000010000000000000BRBRINACNOR3105
012013080602BRIV4       010ALFA INVEST PN           R$  000000000058500000000005970000000000567000000000057800000000005970000000000507000000000060400008000000000000001700000000000000983700000000000000009999123100000010000000000000BRBRIVACNPR3196
012013080696BRIV4F      020ALFA INVEST PN           R$  000000000052000000000005200000000000520000000000052000000000005200000000000522000000000060400001000000000000000003000000000000001560000000000000009999123100000010000000000000BRBRIVACNPR3196
012013080602BRKM3       010BRASKEM     ON      N1   R$  000000000115900000000011590000000001120000000000114500000000011340000000001110000000000113500010000000000000011400000000000013060300000000000000009999123100000010000000000000BRBRKMACNOR1110
012013080662BRKM3T      030BRASKEM     ON      N1181R$  000000000120000000000012010000000001200000000000120000000000012010000000000000000000000000000002000000000000010000000000000012009090000000000000009999123100000010000000000000BRBRKMACNOR1110
012013080602BRKM5       010BRASKEM     PNA     N1   R$  000000000172000000000017210000000001637000000000166300000000016640000000001664000000000166507699000000000002023400000000003365018400000000000000009999123100000010000000000000BRBRKMACNPA4110
012013080696BRKM5F      020BRASKEM     PNA     N1   R$  000000000171500000000017150000000001638000000000166200000000016400000000001640000000000166000037000000000000001278000000000002124227000000000000009999123100000010000000000000BRBRKMACNPA4110
012013080662BRKM5T      030BRASKEM     PNA     N1016R$  000000000170100000000017020000000001658000000000167700000000016590000000000000000000000000000026000000000000006500000000000010904528000000000000009999123100000010000000000000BRBRKMACNPA4110
012013080662BRKM5T      030BRASKEM     PNA     N1062R$  000000000168100000000016820000000001681000000000168100000000016820000000000000000000000000000002000000000000003000000000000005044615000000000000009999123100000010000000000000BRBRKMACNPA4110
012013080602BRML3       010BR MALLS PARON      NM   R$  000000000196100000000019840000000001930000000000194800000000019500000000001946000000000195108915000000000002693100000000005248085800000000000000009999123100000010000000000000BRBRMLACNOR9105
012013080696BRML3F      020BR MALLS PARON      NM   R$  000000000197000000000019770000000001930000000000195100000000019370000000001940000000000194600095000000000000002666000000000005202000000000000000009999123100000010000000000000BRBRMLACNOR9105
012013080662BRML3T      030BR MALLS PARON      NM016R$  000000000195400000000019550000000001954000000000195400000000019550000000000000000000000000000002000000000000000600000000000001172737000000000000009999123100000010000000000000BRBRMLACNOR9105
012013080602BRPR3       010BR PROPERT  ON      NM   R$  000000000188000000000018890000000001821000000000184300000000018510000000001851000000000185309344000000000002979300000000005493064900000000000000009999123100000010000000000000BRBRPRACNOR9112
012013080696BRPR3F      020BR PROPERT  ON      NM   R$  000000000190000000000019320000000001820000000000184400000000018340000000001833000000000184200064000000000000001946000000000003588959000000000000009999123100000010000000000000BRBRPRACNOR9112
012013080662BRPR3T      030BR PROPERT  ON      NM045R$  000000000184100000000018420000000001841000000000184100000000018420000000000000000000000000000002000000000000000200000000000000368355000000000000009999123100000010000000000000BRBRPRACNOR9112
012013080602BRSR6       010BANRISUL    PNB     N1   R$  000000000148800000000014940000000001437000000000145100000000014500000000001449000000000145002155000000000000542700000000000787572300000000000000009999123100000010000000000000BRBRSRACNPB4133
012013080696BRSR6F      020BANRISUL    PNB     N1   R$  000000000150000000000015060000000001414000000000145100000000014510000000001451000000000146700044000000000000001465000000000002125741000000000000009999123100000010000000000000BRBRSRACNPB4133
012013080602BSEV3       010BIOSEV      ON      NM   R$  000000000119000000000011900000000001190000000000119000000000011900000000001186000000000120100001000000000000000100000000000000119000000000000000009999123100000010000000000000BRBSEVACNOR3100
012013080602BSLI3       010BRB BANCO   ON  EJ       R$  000000000290000000000029000000000002900000000000290000000000029000000000002900000000000000000001000000000000002800000000000008120000000000000000009999123100000010000000000000BRBSLIACNOR5146
012013080602BTOW3       010B2W DIGITAL ON      NM   R$  000000000111900000000011630000000001092000000000113000000000011350000000001135000000000114002134000000000000613700000000000694005100000000000000009999123100000010000000000000BRBTOWACNOR8105
012013080696BTOW3F      020B2W DIGITAL ON      NM   R$  000000000112500000000011570000000001092000000000112800000000011370000000001105000000000118700024000000000000000613000000000000691524000000000000009999123100000010000000000000BRBTOWACNOR8105
012013080602BTTL4       010BATTISTELLA PN           R$  000000000010000000000001000000000000097000000000009800000000001000000000000097000000000010100009000000000000035800000000000003536900000000000000009999123100000010000000000000BRBTTLACNPR7105
012013080602BVMF3       010BMFBOVESPA  ON      NM   R$  000000000119800000000011990000000001156000000000117800000000011560000000001156000000000115918888000000000015316700000000018044999700000000000000009999123100000010000000000000BRBVMFACNOR3125
012013080696BVMF3F      020BMFBOVESPA  ON      NM   R$  000000000119000000000011990000000001140000000000117700000000011400000000001140000000000118100145000000000000004267000000000005023436000000000000009999123100000010000000000000BRBVMFACNOR3125
012013080662BVMF3T      030BMFBOVESPA  ON      NM016R$  000000000118900000000011900000000001177000000000118300000000011780000000000000000000000000000004000000000000002000000000000002367299000000000000009999123100000010000000000000BRBVMFACNOR3125
012013080662BVMF3T      030BMFBOVESPA  ON      NM045R$  000000000119800000000011990000000001198000000000119800000000011990000000000000000000000000000002000000000000002000000000000002397977000000000000009999123100000010000000000000BRBVMFACNOR3125
012013080678BVMFH1      070BVMFE       ON      NM000R$  000000000000300000000000030000000000003000000000000300000000000030000000000002000000000000300009000000000000026800000000000000080400000000000132502013081900000010000000000000BRBVMFACNOR3125
012013080678BVMFH11     070BVMF        ON      NM000R$  000000000009800000000001030000000000076000000000008300000000000800000000000075000000000008200229000000000000222800000000000018595400000000000110002013081900000010000000000000BRBVMFACNOR3125
012013080678BVMFH12     070BVMF  FM    ON      NM000R$  000000000002800000000000350000000000019000000000002500000000000200000000000019000000000002000188000000000000300100000000000007740600000000000120002013081900000010000000000000BRBVMFACNOR3125
012013080678BVMFH13     070BVMF  FM    ON      NM000R$  000000000000500000000000070000000000004000000000000400000000000040000000000003000000000000500262000000000000505900000000000002495800000000000128902013081900000010000000000000BRBVMFACNOR3124
012013080678BVMFH14     070BVMF        ON      NM000R$  000000000000100000000000010000000000001000000000000100000000000010000000000000000000000000100001000000000000003000000000000000003000000000000138902013081900000010000000000000BRBVMFACNOR3124
012013080678BVMFH15     070BVMF        ON      NM000R$  000000000000100000000000010000000000001000000000000100000000000010000000000000000000000000100001000000000000000900000000000000000900000000000150002013081900000010000000000000BRBVMFACNOR3125
012013080678BVMFH40     070BVMF        ON      NM000R$  000000000013400000000001380000000000132000000000013400000000001330000000000088000000000000000020000000000000002000000000000000269000000000000105002013081900000010000000000000BRBVMFACNOR3125
012013080678BVMFH41     070BVMF  FM    ON      NM000R$  000000000005600000000000650000000000043000000000005000000000000440000000000000000000000007000023000000000000060000000000000003058400000000000115002013081900000010000000000000BRBVMFACNOR3125
012013080678BVMFH42     070BVMF  FM    ON      NM000R$  000000000001100000000000140000000000007000000000000900000000000070000000000000000000000000700054000000000000168400000000000001629300000000000125002013081900000010000000000000BRBVMFACNOR3125
012013080678BVMFH43     070BVMF  FM    ON      NM000R$  000000000000200000000000030000000000002000000000000200000000000020000000000001000000000003000064000000000000205400000000000000416800000000000135002013081900000010000000000000BRBVMFACNOR3125
012013080678BVMFI11     070BVMF        ON      NM000R$  000000000011800000000001180000000000110000000000011200000000001130000000000081000000000010300005000000000000010100000000000001141100000000000110002013091600000010000000000000BRBVMFACNOR3125
012013080678BVMFI12     070BVMF  FM    ON      NM000R$  000000000005000000000000570000000000038000000000004700000000000380000000000036000000000006200048000000000000129400000000000006112600000000000120002013091600000010000000000000BRBVMFACNOR3125
012013080678BVMFI13     070BVMF  FM    ON      NM000R$  000000000001400000000000170000000000011000000000001300000000000120000000000010000000000001300060000000000000103500000000000001394200000000000130002013091600000010000000000000BRBVMFACNOR3125
012013080678BVMFI14     070BVMF        ON      NM000R$  000000000000400000000000090000000000003000000000000400000000000090000000000003000000000000900048000000000000102400000000000000442300000000000140002013091600000010000000000000BRBVMFACNOR3125
012013080678BVMFI41     070BVMF  FM    ON      NM000R$  000000000007700000000000880000000000063000000000007500000000000630000000000000000000000007000039000000000000076600000000000005802800000000000115002013091600000010000000000000BRBVMFACNOR3125
012013080678BVMFI42     070BVMF  FM    ON      NM000R$  000000000002800000000000330000000000025000000000003000000000000250000000000015000000000004100010000000000000028500000000000000859800000000000125002013091600000010000000000000BRBVMFACNOR3125
012013080678BVMFI43     070BVMF  FM    ON      NM000R$  000000000000800000000000080000000000006000000000000600000000000060000000000005000000000002500003000000000000006500000000000000044800000000000135002013091600000010000000000000BRBVMFACNOR3125
012013080678BVMFJ12     070BVMF        ON      NM000R$  000000000007200000000000720000000000072000000000007200000000000720000000000000000000000010000001000000000000001800000000000000129600000000000120002013102100000010000000000000BRBVMFACNOR3125
012013080678BVMFJ13     070BVMF        ON      NM000R$  000000000003200000000000350000000000030000000000003200000000000300000000000000000000000003000006000000000000007300000000000000236100000000000130002013102100000010000000000000BRBVMFACNOR3125
012013080678BVMFJ42     070BVMF        ON      NM000R$  000000000004900000000000490000000000049000000000004900000000000490000000000000000000000000000001000000000000001800000000000000088200000000000125002013102100000010000000000000BRBVMFACNOR3125
012013080678BVMFL14     070BVMF        ON      NM000R$  000000000003300000000000330000000000033000000000003300000000000330000000000000000000000000000001000000000000001300000000000000042900000000000138902013121600000010000000000000BRBVMFACNOR3124
012013080682BVMFT11     080BVMFE FM    ON      NM000R$  000000000001200000000000150000000000009000000000001100000000000150000000000004000000000002000094000000000000233100000000000002706200000000000110002013081900000010000000000000BRBVMFACNOR3125
012013080682BVMFT12     080BVMFE FM    ON      NM000R$  000000000003500000000000590000000000035000000000004600000000000580000000000001000000000000000083000000000000129700000000000006046500000000000120002013081900000010000000000000BRBVMFACNOR3125
012013080682BVMFT13     080BVMFE       ON      NM000R$  000000000011200000000001120000000000105000000000011000000000001050000000000000000000000000000004000000000000001300000000000000144000000000000128902013081900000010000000000000BRBVMFACNOR3124
012013080682BVMFT14     080BVMFE       ON      NM000R$  000000000019300000000001930000000000193000000000019300000000001930000000000000000000000000000001000000000000003500000000000000675500000000000138902013081900000010000000000000BRBVMFACNOR3124
012013080682BVMFT40     080BVMFE       ON      NM000R$  000000000000500000000000050000000000005000000000000500000000000050000000000000000000000000000003000000000000006100000000000000030500000000000105002013081900000010000000000000BRBVMFACNOR3125
012013080682BVMFT41     080BVMFE FM    ON      NM000R$  000000000002200000000000310000000000019000000000002400000000000310000000000001000000000000000016000000000000043600000000000001081100000000000115002013081900000010000000000000BRBVMFACNOR3125
012013080682BVMFT42     080BVMFE FM    ON      NM000R$  000000000007400000000000910000000000067000000000008500000000000910000000000000000000000000000022000000000000064400000000000005537900000000000125002013081900000010000000000000BRBVMFACNOR3125
012013080682BVMFT43     080BVMFE       ON      NM000R$  000000000016700000000001700000000000167000000000016800000000001700000000000000000000000000000003000000000000007000000000000001179500000000000135002013081900000010000000000000BRBVMFACNOR3125
012013080682BVMFT61     080BVMFE       ON      NM000R$  000000000003000000000000300000000000030000000000003000000000000300000000000000000000000000000002000000000000000300000000000000009000000000000117502013081900000010000000000000BRBVMFACNOR3125
012013080682BVMFT62     080BVMFE       ON      NM000R$  000000000005400000000000580000000000054000000000005400000000000580000000000000000000000000000003000000000000003400000000000000184400000000000122502013081900000010000000000000BRBVMFACNOR3125
012013080682BVMFU11     080BVMFE FM    ON      NM000R$  000000000002100000000000220000000000021000000000002100000000000220000000000000000000000000000006000000000000010200000000000000220700000000000110002013091600000010000000000000BRBVMFACNOR3125
012013080682BVMFU12     080BVMFE FM    ON      NM000R$  000000000005800000000000660000000000051000000000005800000000000650000000000033000000000008500024000000000000063500000000000003699600000000000120002013091600000010000000000000BRBVMFACNOR3125
012013080682BVMFU13     080BVMFE       ON      NM000R$  000000000011900000000001190000000000119000000000011900000000001190000000000050000000000000000001000000000000010000000000000001190000000000000130002013091600000010000000000000BRBVMFACNOR3125
012013080682BVMFU41     080BVMFE FM    ON      NM000R$  000000000003400000000000440000000000032000000000003400000000000440000000000000000000000000000018000000000000067100000000000002331500000000000115002013091600000010000000000000BRBVMFACNOR3125
012013080682BVMFU42     080BVMFE FM    ON      NM000R$  000000000007800000000000990000000000077000000000008600000000000990000000000000000000000000000013000000000000033400000000000002877800000000000125002013091600000010000000000000BRBVMFACNOR3125
012013080682BVMFV10     080BVMFE       ON      NM000R$  000000000001400000000000160000000000014000000000001500000000000160000000000000000000000000000002000000000000000400000000000000006000000000000100002013102100000010000000000000BRBVMFACNOR3125
012013080682BVMFV11     080BVMFE       ON      NM000R$  000000000003400000000000360000000000034000000000003500000000000360000000000000000000000000000002000000000000000400000000000000014000000000000110002013102100000010000000000000BRBVMFACNOR3125
012013080682BVMFV12     080BVMFE       ON      NM000R$  000000000007400000000000840000000000073000000000007600000000000840000000000000000000000000000008000000000000034000000000000002607000000000000120002013102100000010000000000000BRBVMFACNOR3125
012013080682BVMFV13     080BVMFE       ON      NM000R$  000000000013200000000001320000000000132000000000013200000000001320000000000000000000000000000001000000000000005000000000000000660000000000000130002013102100000010000000000000BRBVMFACNOR3125
012013080682BVMFV41     080BVMFE       ON      NM000R$  000000000005200000000000520000000000052000000000005200000000000520000000000000000000000000000001000000000000005000000000000000260000000000000115002013102100000010000000000000BRBVMFACNOR3125
012013080682BVMFV42     080BVMFE       ON      NM000R$  000000000009900000000001130000000000099000000000010300000000001130000000000000000000000000000005000000000000018900000000000001962700000000000125002013102100000010000000000000BRBVMFACNOR3125
012013080682BVMFW10     080BVMFE       ON      NM000R$  000000000002000000000000200000000000020000000000002000000000000200000000000000000000000002500001000000000000000200000000000000004000000000000100002013111800000010000000000000BRBVMFACNOR3125
012013080682BVMFW11     080BVMFE       ON      NM000R$  000000000004500000000000450000000000045000000000004500000000000450000000000000000000000000000001000000000000000200000000000000009000000000000110002013111800000010000000000000BRBVMFACNOR3125
012013080682BVMFX11     080BVMFE       ON      NM000R$  000000000004700000000000500000000000047000000000004800000000000500000000000000000000000005500002000000000000000300000000000000014400000000000110002013121600000010000000000000BRBVMFACNOR3125
012013080682BVMFX2      080BVMFE       ON      NM000R$  000000000008500000000000850000000000085000000000008500000000000850000000000000000000000000000001000000000000000100000000000000008500000000000118902013121600000010000000000000BRBVMFACNOR3124
012013080602CAMB4       010CAMBUCI     PN           R$  000000000019800000000001980000000000198000000000019800000000001980000000000178000000000019900002000000000000010000000000000001980000000000000000009999123100000010000000000000BRCAMBACNPR1117
012013080602CARD3       010CSU CARDSYSTON      NM   R$  000000000033700000000003390000000000320000000000032400000000003270000000000320000000000032700032000000000000015700000000000005097300000000000000009999123100000010000000000000BRCARDACNOR9105
012013080602CBEE3       010AMPLA ENERG ON *         R$  000000000012300000000001230000000000123000000000012300000000001230000000000116000000000012500001000000000000500000000000000000061500000000000000009999123100010000000000000000BRCBEEACNOR3149
012013080602CBMA3       010COBRASMA    ON           R$  000000000000700000000000070000000000007000000000000700000000000070000000000006000000000000800004000000000000040000000000000000280000000000000000009999123100000010000000000000BRCBMAACNOR4124
012013080696CBMA3F      020COBRASMA    ON           R$  000000000000700000000000070000000000007000000000000700000000000070000000000005000000000000700003000000000000004700000000000000032900000000000000009999123100000010000000000000BRCBMAACNOR4124
012013080602CBMA4       010COBRASMA    PN           R$  000000000000700000000000080000000000006000000000000600000000000060000000000006000000000000700028000000000001180000000000000008130000000000000000009999123100000010000000000000BRCBMAACNPR1124
012013080696CBMA4F      020COBRASMA    PN           R$  000000000000800000000000080000000000007000000000000700000000000070000000000006000000000000700011000000000000019700000000000000142600000000000000009999123100000010000000000000BRCBMAACNPR1124
012013080608CCHI3       010CHIARELLI   ON           R$  000000000003000000000000310000000000028000000000002900000000000280000000000028000000000002900055000000000000860000000000000025340000000000000000009999123100000010000000000000BRCCHIACNOR5123
012013080696CCHI3F      020CHIARELLI   ON           R$  000000000003100000000000310000000000028000000000002800000000000280000000000028000000000003000007000000000000011577000000000000335587000000000000009999123100000010000000000000BRCCHIACNOR5123
012013080608CCHI4       010CHIARELLI   PN           R$  000000000002100000000000240000000000021000000000002200000000000240000000000021000000000002400004000000000000040000000000000000910000000000000000009999123100000010000000000000BRCCHIACNPR2122
012013080602CCPR3       010CYRE COM-CCPON      NM   R$  000000000214700000000021470000000002044000000000213100000000020440000000002000000000000214600008000000000000002100000000000004477100000000000000009999123100000010000000000000BRCCPRACNOR9107
012013080602CCRO3       010CCR SA      ON      NM   R$  000000000178100000000017920000000001754000000000176600000000017600000000001760000000000176107613000000000003960500000000006996453700000000000000009999123100000010000000000000BRCCROACNOR2122
012013080696CCRO3F      020CCR SA      ON      NM   R$  000000000178800000000018340000000001750000000000177000000000017500000000001748000000000176100041000000000000001245000000000002204459000000000000009999123100000010000000000000BRCCROACNOR2122
012013080662CCRO3T      030CCR SA      ON      NM062R$  000000000178300000000017840000000001783000000000178300000000017840000000000000000000000000000002000000000000030000000000000053512800000000000000009999123100000010000000000000BRCCROACNOR2122
012013080602CCXC3       010CCX CARVAO  ON      NM   R$  000000000008600000000000890000000000082000000000008400000000000840000000000083000000000008400401000000000000922400000000000078186000000000000000009999123100000010000000000000BRCCXCACNOR5100
012013080696CCXC3F      020CCX CARVAO  ON      NM   R$  000000000008500000000000900000000000083000000000008500000000000880000000000083000000000008700010000000000000000355000000000000030382000000000000009999123100000010000000000000BRCCXCACNOR5100
012013080602CEDO3       010CEDRO       ON      N1   R$  000000000100000000000010000000000001000000000000100000000000010000000000000960000000000100000001000000000000000100000000000000100000000000000000009999123100000010000000000000BRCEDOACNOR8094
012013080602CEDO4       010CEDRO       PN      N1   R$  000000000088100000000008900000000000800000000000082400000000008000000000000600000000000080000014000000000000002700000000000002225900000000000000009999123100000010000000000000BRCEDOACNPR5126
012013080608CELP3       010CELPA       ON           R$  000000000006000000000000640000000000060000000000006000000000000600000000000060000000000006400006000000000000018000000000000001082800000000000000009999123100000010000000000000BRCELPACNOR8112
012013080612CEOC11B     010FII CEO CCP CI      MB   R$  000000000919600000000091970000000009100000000000913800000000091970000000009121000000000919700022000000000000001000000000000009138988000000000000009999123100000010000000000000BRCEOCCTF003108
012013080696CEPE5F      020CELPE       PNA          R$  000000000184500000000018450000000001845000000000184500000000018450000000001800000000000439300001000000000000000002000000000000003690000000000000009999123100000010000000000000BRCEPEACNPA6151
012013080602CESP3       010CESP        ON      N1   R$  000000000163000000000016730000000001630000000000164600000000016730000000001550000000000168000005000000000000002500000000000004116200000000000000009999123100000010000000000000BRCESPACNOR3159
012013080602CESP6       010CESP        PNB     N1   R$  000000000197600000000020510000000001951000000000199400000000020050000000002005000000000200804371000000000001334800000000002661584900000000000000009999123100000010000000000000BRCESPACNPB4118
012013080696CESP6F      020CESP        PNB     N1   R$  000000000198000000000020800000000001951000000000199100000000020800000000001961000000000199800026000000000000000651000000000001297516000000000000009999123100000010000000000000BRCESPACNPB4118
012013080662CESP6T      030CESP        PNB     N1016R$  000000000200700000000020080000000002007000000000200700000000020080000000000000000000000000000002000000000000003100000000000006224263000000000000009999123100000010000000000000BRCESPACNPB4118
012013080682CESPT20     080CESPE       PNB     N1000R$  000000000006000000000000700000000000060000000000006500000000000700000000000030000000000008000003000000000000000400000000000000026000000000000200002013081900000010000000000000BRCESPACNPB4118
012013080682CESPU20     080CESPE       PNB     N1000R$  000000000011000000000001100000000000110000000000011000000000001100000000000000000000000000000001000000000000000100000000000000011000000000000200002013091600000010000000000000BRCESPACNPB4118
012013080602CGAS3       010COMGAS      ON           R$  000000000514800000000051480000000005148000000000514800000000051480000000004549000000000514900001000000000000000100000000000000514800000000000000009999123100000010000000000000BRCGASACNOR0132
012013080602CGAS5       010COMGAS      PNA          R$  000000000560400000000056100000000005566000000000559100000000056100000000005557000000000561000014000000000000001700000000000009505700000000000000009999123100000010000000000000BRCGASACNPA3129
012013080696CGAS5F      020COMGAS      PNA          R$  000000000560000000000056000000000005540000000000559900000000056000000000005600000000000561400008000000000000000113000000000000632690000000000000009999123100000010000000000000BRCGASACNPA3129
012013080602CGRA3       010GRAZZIOTIN  ON           R$  000000000153500000000015980000000001510000000000154600000000015980000000001560000000000159800013000000000000002000000000000003093400000000000000009999123100000010000000000000BRCGRAACNOR2061
012013080662CGRA3T      030GRAZZIOTIN  ON        086R$  000000000153900000000015510000000001539000000000154300000000015510000000000000000000000000000004000000000000000300000000000000463000000000000000009999123100000010000000000000BRCGRAACNOR2061
012013080602CGRA4       010GRAZZIOTIN  PN           R$  000000000159100000000016250000000001591000000000160700000000016060000000001606000000000162400014000000000000004400000000000007073200000000000000009999123100000010000000000000BRCGRAACNPR9061
012013080696CGRA4F      020GRAZZIOTIN  PN           R$  000000000160900000000016090000000001590000000000159800000000016000000000001508000000000158000006000000000000000150000000000000239770000000000000009999123100000010000000000000BRCGRAACNPR9061
012013080602CIEL3       010CIELO       ON      NM   R$  000000000562000000000056200000000005465000000000552400000000055500000000005540000000000555006049000000000001639600000000009058400000000000000000009999123100000010000000000000BRCIELACNOR3111
012013080696CIEL3F      020CIELO       ON      NM   R$  000000000563000000000056300000000005471000000000552400000000055590000000005536000000000556000141000000000000003516000000000019424100000000000000009999123100000010000000000000BRCIELACNOR3111
012013080662CIEL3T      030CIELO       ON      NM016R$  000000000551200000000055130000000005512000000000551200000000055130000000000000000000000000000002000000000000001000000000000005512509000000000000009999123100000010000000000000BRCIELACNOR3111
012013080678CIELI57     070CIEL        ON      NM000R$  000000000015800000000001580000000000158000000000015800000000001580000000000000000000000000000001000000000000000100000000000000015800000000000570002013091600000010000000000000BRCIELACNOR3111
012013080602CLSC4       010CELESC      PN      N2   R$  000000000190000000000019000000000001826000000000185600000000018510000000001850000000000186000044000000000000007800000000000014482100000000000000009999123100000010000000000000BRCLSCACNPR3107
012013080602CMIG3       010CEMIG       ON      N1   R$  000000000203100000000020550000000001983000000000201600000000019950000000001993000000000199500198000000000000059300000000000119584900000000000000009999123100000010000000000000BRCMIGACNOR6208
012013080696CMIG3F      020CEMIG       ON      N1   R$  000000000204200000000020780000000001990000000000201600000000019910000000001996000000000206300051000000000000001413000000000002848806000000000000009999123100000010000000000000BRCMIGACNOR6208
012013080662CMIG3T      030CEMIG       ON      N1150R$  000000000207100000000020790000000002071000000000207100000000020790000000000000000000000000000004000000000000002300000000000004765569000000000000009999123100000010000000000000BRCMIGACNOR6208
012013080602CMIG4       010CEMIG       PN      N1   R$  000000000204700000000020890000000002003000000000203200000000020050000000002005000000000200707049000000000003097600000000006293945300000000000000009999123100000010000000000000BRCMIGACNPR3208
012013080696CMIG4F      020CEMIG       PN      N1   R$  000000000206000000000020850000000002005000000000203700000000020060000000002006000000000201000208000000000000005736000000000011680224000000000000009999123100000010000000000000BRCMIGACNPR3208
012013080662CMIG4T      030CEMIG       PN      N1030R$  000000000206200000000020630000000002062000000000206200000000020630000000000000000000000000000002000000000000001000000000000002062728000000000000009999123100000010000000000000BRCMIGACNPR3208
012013080662CMIG4T      030CEMIG       PN      N1062R$  000000000206400000000020650000000002064000000000206400000000020650000000000000000000000000000008000000000000100000000000000206490692000000000000009999123100000010000000000000BRCMIGACNPR3208
012013080662CMIG4T      030CEMIG       PN      N1090R$  000000000206600000000020670000000002066000000000206600000000020670000000000000000000000000000002000000000000002000000000000004132620000000000000009999123100000010000000000000BRCMIGACNPR3208
012013080678CMIGH22     070CMIG        PN      N1000R$  000000000000600000000000060000000000006000000000000600000000000060000000000005000000000019000001000000000000000700000000000000004200000000000220002013081900000010000000000000BRCMIGACNPR3208
012013080678CMIGI21     070CMIG        PN      N1000R$  000000000004600000000000650000000000040000000000004400000000000400000000000000000000000000000003000000000000000700000000000000031100000000000210002013091600000010000000000000BRCMIGACNPR3208
012013080612CNES11B     010FII CENESP  CI      MB   R$  000000001210500000000122000000000012053000000001211200000000122000000000012200000000001250000013000000000000000557000000000006746438000000000000009999123100000010000000000000BRCNESCTF001124
012013080602COCE3       010COELCE      ON           R$  000000000409300000000041880000000004092000000000413100000000041800000000003600000000000418000005000000000000000700000000000002891900000000000000009999123100000010000000000000BRCOCEACNOR0132
012013080602COCE5       010COELCE      PNA          R$  000000000407600000000040760000000004000000000000402800000000040000000000004000000000000404000104000000000000036600000000000147438500000000000000009999123100000010000000000000BRCOCEACNPA3133
012013080696COCE5F      020COELCE      PNA          R$  000000000408000000000040800000000004001000000000401900000000040450000000004012000000000427800013000000000000000253000000000001016899000000000000009999123100000010000000000000BRCOCEACNPA3133
012013080602CPFE3       010CPFL ENERGIAON      NM   R$  000000000213500000000021350000000002065000000000208200000000020820000000002074000000000208203908000000000001006700000000002096413000000000000000009999123100000010000000000000BRCPFEACNOR0121
012013080696CPFE3F      020CPFL ENERGIAON      NM   R$  000000000204100000000021290000000002041000000000207900000000020660000000002066000000000207300048000000000000001236000000000002568999000000000000009999123100000010000000000000BRCPFEACNOR0121
012013080602CPLE3       010COPEL       ON      N1   R$  000000000217200000000022270000000002172000000000219700000000022230000000002190000000000222300032000000000000007600000000000016701300000000000000009999123100000010000000000000BRCPLEACNOR8128
012013080602CPLE6       010COPEL       PNB     N1   R$  000000000277100000000028810000000002751000000000281900000000028490000000002813000000000284903018000000000000685500000000001932543300000000000000009999123100000010000000000000BRCPLEACNPB9125
012013080696CPLE6F      020COPEL       PNB     N1   R$  000000000279000000000028680000000002730000000000281500000000028500000000002731000000000282400033000000000000000731000000000002058445000000000000009999123100000010000000000000BRCPLEACNPB9125
012013080602CPRE3       010CPFL RENOVAVON      NM   R$  000000000117000000000011740000000001168000000000117000000000011740000000001170000000000117500010000000000000008000000000000009360200000000000000009999123100000010000000000000BRCPREACNOR5100
012013080696CPRE3F      020CPFL RENOVAVON      NM   R$  000000000120800000000012080000000001168000000000116900000000011700000000001130000000000117000014000000000000000452000000000000528722000000000000009999123100000010000000000000BRCPREACNOR5100
012013080602CRDE3       010CR2         ON      NM   R$  000000000041200000000004200000000000410000000000041100000000004200000000000415000000000042000009000000000000013200000000000005432600000000000000009999123100000010000000000000BRCRDEACNOR1108
012013080602CREM3       010CREMER      ON      NM   R$  000000000148800000000015000000000001436000000000146400000000014680000000001436000000000146900032000000000000010300000000000015083200000000000000009999123100000010000000000000BRCREMACNOR2166
012013080602CRIV4       010ALFA FINANC PN           R$  000000000047500000000004850000000000473000000000047700000000004850000000000460000000000048500007000000000000002500000000000001193200000000000000009999123100000010000000000000BRCRIVACNPR1189
012013080602CRUZ3       010SOUZA CRUZ  ON           R$  000000000262000000000026200000000002525000000000254100000000025290000000002529000000000253005736000000000002445700000000006214995000000000000000009999123100000010000000000000BRCRUZACNOR0246
012013080696CRUZ3F      020SOUZA CRUZ  ON           R$  000000000273100000000027310000000002515000000000255200000000025250000000002525000000000253300159000000000000004606000000000011758740000000000000009999123100000010000000000000BRCRUZACNOR0246
012013080662CRUZ3T      030SOUZA CRUZ  ON        030R$  000000000254800000000025610000000002548000000000255700000000025550000000000000000000000000000006000000000000001600000000000004092522000000000000009999123100000010000000000000BRCRUZACNOR0246
012013080662CRUZ3T      030SOUZA CRUZ  ON        062R$  000000000257400000000025750000000002574000000000257400000000025750000000000000000000000000000002000000000000004000000000000010297160000000000000009999123100000010000000000000BRCRUZACNOR0246
012013080678CRUZI24     070CRUZ        ON        000R$  000000000019300000000001930000000000193000000000019300000000001930000000000000000000000000000001000000000000000200000000000000038600000000000240002013091600000010000000000000BRCRUZACNOR0246
012013080602CSAB3       010SEG AL BAHIAON           R$  000000000301100000000030110000000003011000000000301100000000030110000000003010000000000304000001000000000000000100000000000000301100000000000000009999123100000010000000000000BRCSABACNOR1051
012013080696CSAB3F      020SEG AL BAHIAON           R$  000000000300000000000030000000000003000000000000300000000000030000000000002907000000000300000001000000000000000015000000000000045000000000000000009999123100000010000000000000BRCSABACNOR1051
012013080602CSAB4       010SEG AL BAHIAPN           R$  000000000300000000000030000000000003000000000000300000000000030000000000003000000000000000000001000000000000000400000000000001200000000000000000009999123100000010000000000000BRCSABACNPR8051
012013080696CSAB4F      020SEG AL BAHIAPN           R$  000000000300100000000030010000000003001000000000300100000000030010000000002907000000000300000001000000000000000015000000000000045015000000000000009999123100000010000000000000BRCSABACNPR8051
012013080602CSAN3       010COSAN       ON  ED  NM   R$  000000000430000000000043150000000004185000000000424000000000042190000000004219000000000423006660000000000001539700000000006528955500000000000000009999123100000010000000000000BRCSANACNOR6108
012013080696CSAN3F      020COSAN       ON  ED  NM   R$  000000000421000000000043150000000004191000000000422900000000041910000000004191000000000422200044000000000000001270000000000005370012000000000000009999123100000010000000000000BRCSANACNOR6108
012013080662CSAN3T      030COSAN       ON  ED  NM016R$  000000000432400000000043250000000004324000000000432400000000043250000000000000000000000000000002000000000000001000000000000004324659000000000000009999123100000010000000000000BRCSANACNOR6108
012013080602CSMG3       010COPASA      ON      NM   R$  000000000347400000000034820000000003379000000000342700000000034380000000003380000000000343801625000000000000274800000000000941968500000000000000009999123100000010000000000000BRCSMGACNOR5127
012013080696CSMG3F      020COPASA      ON      NM   R$  000000000343100000000036000000000003391000000000342100000000033910000000003391000000000368600012000000000000000266000000000000910102000000000000009999123100000010000000000000BRCSMGACNOR5127
012013080614CSMO11      010ISHARES CSMOCI           R$  000000000456800000000045680000000004554000000000455600000000045540000000004500000000000467000002000000000000000190000000000000865820000000000000009999123100000010000000000000BRCSMOCTF002100
012013080602CSNA3       010SID NACIONALON           R$  000000000065800000000006640000000000641000000000065000000000006480000000000648000000000064911062000000000009413800000000006118928900000000000000009999123100000010000000000000BRCSNAACNOR6242
012013080696CSNA3F      020SID NACIONALON           R$  000000000066400000000006640000000000641000000000064900000000006410000000000641000000000065700072000000000000002425000000000001575060000000000000009999123100000010000000000000BRCSNAACNOR6242
012013080662CSNA3T      030SID NACIONALON        030R$  000000000065500000000006560000000000655000000000065500000000006560000000000000000000000000000002000000000000004600000000000003015862000000000000009999123100000010000000000000BRCSNAACNOR6242
012013080662CSNA3T      030SID NACIONALON        150R$  000000000067600000000006770000000000676000000000067600000000006770000000000000000000000000000002000000000000002000000000000001352900000000000000009999123100000010000000000000BRCSNAACNOR6242
012013080662CSNA3T      030SID NACIONALON        181R$  000000000068600000000006870000000000686000000000068600000000006870000000000000000000000000000002000000000000001200000000000000824120000000000000009999123100000010000000000000BRCSNAACNOR6242
012013080678CSNAH58     070CSNA        ON        000R$  000000000007500000000000750000000000073000000000007400000000000730000000000000000000000000000002000000000000002000000000000000148000000000000058002013081900000010000000000000BRCSNAACNOR6242
012013080678CSNAH6      070CSNA        ON        000R$  000000000006500000000000650000000000062000000000006200000000000620000000000059000000000000000003000000000000008200000000000000512900000000000060002013081900000010000000000000BRCSNAACNOR6242
012013080678CSNAH64     070CSNA  FM    ON        000R$  000000000003400000000000370000000000033000000000003400000000000350000000000000000000000000000010000000000000038500000000000001346500000000000064002013081900000010000000000000BRCSNAACNOR6242
012013080678CSNAH7      070CSNA  FM    ON        000R$  000000000001000000000000130000000000010000000000001100000000000100000000000010000000000001600022000000000000047400000000000000521900000000000070002013081900000010000000000000BRCSNAACNOR6242
012013080678CSNAH78     070CSNA        ON        000R$  000000000000200000000000020000000000002000000000000200000000000020000000000002000000000000000001000000000000006700000000000000013400000000000078002013081900000010000000000000BRCSNAACNOR6242
012013080678CSNAI6      070CSNA        ON        000R$  000000000007800000000000780000000000078000000000007800000000000780000000000070000000000000000001000000000000000100000000000000007800000000000060002013091600000010000000000000BRCSNAACNOR6242
012013080678CSNAI64     070CSNA  FM    ON        000R$  000000000004900000000000530000000000048000000000005100000000000510000000000000000000000000000024000000000000080400000000000004148500000000000064002013091600000010000000000000BRCSNAACNOR6242
012013080678CSNAI66     070CSNA  FM    ON        000R$  000000000004000000000000450000000000040000000000004200000000000420000000000000000000000000000006000000000000019500000000000000826000000000000066002013091600000010000000000000BRCSNAACNOR6242
012013080678CSNAI68     070CSNA  FM    ON        000R$  000000000003300000000000340000000000033000000000003300000000000340000000000000000000000000000005000000000000016500000000000000557500000000000068002013091600000010000000000000BRCSNAACNOR6242
012013080678CSNAI7      070CSNA  FM    ON        000R$  000000000002500000000000270000000000025000000000002600000000000270000000000026000000000003800002000000000000004400000000000000117000000000000070002013091600000010000000000000BRCSNAACNOR6242
012013080678CSNAI72     070CSNA  FM    ON        000R$  000000000001900000000000190000000000019000000000001900000000000190000000000000000000000000000001000000000000000700000000000000013300000000000072002013091600000010000000000000BRCSNAACNOR6242
012013080682CSNAT66     080CSNAE FM    ON        000R$  000000000003600000000000360000000000030000000000003200000000000330000000000000000000000000000003000000000000005000000000000000162000000000000066002013081900000010000000000000BRCSNAACNOR6242
012013080682CSNAT68     080CSNAE FM    ON        000R$  000000000004900000000000490000000000044000000000004600000000000460000000000000000000000000000003000000000000006000000000000000278000000000000068002013081900000010000000000000BRCSNAACNOR6242
012013080682CSNAT7      080CSNAE       ON        000R$  000000000006100000000000610000000000061000000000006100000000000610000000000025000000000006500002000000000000002000000000000000122000000000000070002013081900000010000000000000BRCSNAACNOR6242
012013080682CSNAU66     080CSNAE FM    ON        000R$  000000000004800000000000480000000000045000000000004600000000000450000000000000000000000000000002000000000000004000000000000000186000000000000066002013091600000010000000000000BRCSNAACNOR6242
012013080682CSNAU68     080CSNAE FM    ON        000R$  000000000005600000000000580000000000056000000000005600000000000580000000000000000000000000000005000000000000010000000000000000564000000000000068002013091600000010000000000000BRCSNAACNOR6242
012013080682CSNAU7      080CSNAE       ON        000R$  000000000006600000000000720000000000066000000000007100000000000720000000000065000000000008800003000000000000002600000000000000186600000000000070002013091600000010000000000000BRCSNAACNOR6242
012013080602CTAX11      010CONTAX      UNT     N2   R$  000000000164900000000016500000000001630000000000164700000000016500000000001640000000000165000025000000000000014100000000000023230000000000000000009999123100000010000000000000BRCTAXCDAM19100
012013080696CTAX11F     020CONTAX      UNT     N2   R$  000000000165000000000016500000000001650000000000165000000000016500000000001555000000000188800002000000000000000013000000000000021450000000000000009999123100000010000000000000BRCTAXCDAM19100
012013080602CTAX3       010CONTAX      ON      N2   R$  000000000041500000000004150000000000383000000000039900000000003830000000000383000000000041400004000000000000000600000000000000239400000000000000009999123100000010000000000000BRCTAXACNOR3113
012013080602CTAX4       010CONTAX      PN      N2   R$  000000000032000000000003200000000000308000000000031000000000003160000000000311000000000031500036000000000000020100000000000006247600000000000000009999123100000010000000000000BRCTAXACNPR0114
012013080602CTIP3       010CETIP       ON      NM   R$  000000000235600000000023710000000002264000000000228500000000022800000000002280000000000228305626000000000001792800000000004097599600000000000000009999123100000010000000000000BRCTIPACNOR2119
012013080696CTIP3F      020CETIP       ON      NM   R$  000000000238000000000023800000000002265000000000227800000000022800000000002280000000000228400041000000000000001498000000000003413795000000000000009999123100000010000000000000BRCTIPACNOR2119
012013080602CTNM4       010COTEMINAS   PN           R$  000000000023400000000002340000000000230000000000023200000000002300000000000230000000000023300014000000000000012500000000000002904900000000000000009999123100000010000000000000BRCTNMACNPR6128
012013080612CTXT11      010FII C TEXTILCI  ER       R$  000000000030000000000003000000000000300000000000030000000000003000000000000250000000000030000002000000000000000370000000000000111000000000000000009999123100000010000000000000BRCTXTCTF014108
012013080612CXCE11B     010FII CX CEDAECI  ER  MB   R$  000000019500000000001950000000000195000000000019500000000001950000000000193100000000019500000001000000000000000001000000000000195000000000000000009999123100000010000000000000BRCXCECTF004137
012013080612CXTL11      010FII CX TRX  CI  ER       R$  000000007900000000000790000000000079000000000007900000000000790000000000078000000000007900000001000000000000000001000000000000079000000000000000009999123100000010000000000000BRCXTLCTF003121
