00COTAHIST.2013BOVESPA 20130924                                                                                                                                                                                                                      
012013092402ABCB4       010ABC BRASIL  PN      N2   R$  000000000125300000000012720000000001239000000000125100000000012500000000001248000000000125001307000000000000279400000000000349561200000000000000009999123100000010000000000000BRABCBACNPR4120
012013092496ABCB4F      020ABC BRASIL  PN      N2   R$  000000000124800000000012500000000001221000000000124600000000012500000000001248000000000125300009000000000000000127000000000000158295000000000000009999123100000010000000000000BRABCBACNPR4120
012013092402ABRE11      010ABRIL EDUCA UNT     N2   R$  000000000337000000000033700000000003258000000000330100000000033000000000003267000000000330000528000000000000154700000000000510718000000000000000009999123100000010000000000000BRABRECDAM15102
012013092496ABRE11F     020ABRIL EDUCA UNT     N2   R$  000000000330300000000033980000000003301000000000331900000000033980000000003200000000000339800007000000000000000179000000000000594275000000000000009999123100000010000000000000BRABRECDAM15102
012013092402AEDU3       010ANHANGUERA  ON      NM   R$  000000000132200000000013770000000001311000000000134200000000013700000000001367000000000137010024000000000008119300000000010903447100000000000000009999123100000010000000000000BRAEDUACNOR9107
012013092496AEDU3F      020ANHANGUERA  ON      NM   R$  000000000127000000000013800000000001270000000000134600000000013700000000001362000000000137700044000000000000001615000000000002175753000000000000009999123100000010000000000000BRAEDUACNOR9107
012013092478AEDUJ14     070AEDU        ON      NM000R$  000000000002200000000000220000000000022000000000002200000000000220000000000000000000000000000002000000000000006000000000000000132000000000000140002013102100000010000000000000BRAEDUACNOR9107
012013092412AEFI11      010FII AESAPAR CI           R$  000000001192000000000119200000000011880000000001188200000000118800000000011882000000001193800019000000000000000467000000000005549180000000000000009999123100000010000000000000BRAEFICTF002121
012013092402AELP3       010AES ELPA    ON           R$  000000000098000000000009800000000000980000000000098000000000009800000000000912000000000098000001000000000000000100000000000000098000000000000000009999123100000010000000000000BRAELPACNOR2119
012013092412AGCX11      010FII AG CAIXACI           R$  000000009600000000000960000000000095100000000009525400000000951000000000094000000000009599900006000000000000000124000000000011811577000000000000009999123100000010000000000000BRAGCXCTF003110
012013092402AGRO3       010BRASILAGRO  ON      NM   R$  000000000098700000000010310000000000987000000000100200000000010190000000001000000000000101900050000000000000024300000000000024363200000000000000009999123100000010000000000000BRAGROACNOR7102
012013092402ALLL3       010ALL AMER LATON      NM   R$  000000000092500000000009250000000000905000000000091600000000009180000000000917000000000091805161000000000001478700000000001355096100000000000000009999123100000010000000000000BRALLLACNOR6118
012013092496ALLL3F      020ALL AMER LATON      NM   R$  000000000090500000000009220000000000905000000000091200000000009200000000000920000000000093000019000000000000000347000000000000316807000000000000009999123100000010000000000000BRALLLACNOR6118
012013092462ALLL3T      030ALL AMER LATON      NM030R$  000000000091800000000009200000000000918000000000091900000000009200000000000000000000000000000004000000000000012500000000000011495304000000000000009999123100000010000000000000BRALLLACNOR6118
012013092462ALLL3T      030ALL AMER LATON      NM062R$  000000000093400000000009350000000000934000000000093400000000009350000000000000000000000000000002000000000000011000000000000010282974000000000000009999123100000010000000000000BRALLLACNOR6118
012013092412ALMI11B     010FII TORRE ALCI      MB   R$  000000030820000000003088500000000305999000000030663400000003088500000000305503000000030885000007000000000000000025000000000007665851000000000000009999123100000010000000000000BRALMICTF003205
012013092402ALPA3       010ALPARGATAS  ON      N1   R$  000000000125500000000012550000000001251000000000125300000000012510000000001253000000000129700003000000000000000300000000000000375900000000000000009999123100000010000000000000BRALPAACNOR0203
012013092496ALPA3F      020ALPARGATAS  ON      N1   R$  000000000129500000000012950000000001295000000000129500000000012950000000001161000000000129800001000000000000000030000000000000038850000000000000009999123100000010000000000000BRALPAACNOR0203
012013092402ALPA4       010ALPARGATAS  PN      N1   R$  000000000138400000000014670000000001384000000000142400000000014150000000001415000000000141701699000000000000718700000000001023691100000000000000009999123100000010000000000000BRALPAACNPR7203
012013092496ALPA4F      020ALPARGATAS  PN      N1   R$  000000000139500000000014990000000001395000000000142400000000014250000000001411000000000147600032000000000000000729000000000001038494000000000000009999123100000010000000000000BRALPAACNPR7203
012013092402ALSC3       010ALIANSCE    ON      NM   R$  000000000206000000000020680000000002021000000000204300000000020400000000002040000000000205101078000000000000236700000000000483760600000000000000009999123100000010000000000000BRALSCACNOR0104
012013092496ALSC3F      020ALIANSCE    ON      NM   R$  000000000209100000000020910000000001901000000000202300000000020900000000001951000000000209100005000000000000000224000000000000453353000000000000009999123100000010000000000000BRALSCACNOR0104
012013092402ALUP11      010ALUPAR      UNT     N2   R$  000000000175800000000017670000000001734000000000174600000000017670000000001756000000000176700197000000000000073300000000000128012400000000000000009999123100000010000000000000BRALUPCDAM15100
012013092496ALUP11F     020ALUPAR      UNT     N2   R$  000000000175000000000017980000000001735000000000175400000000017800000000001736000000000178000008000000000000000364000000000000638665000000000000009999123100000010000000000000BRALUPCDAM15100
012013092402AMAR3       010LOJAS MARISAON      NM   R$  000000000229100000000022910000000002237000000000225700000000022690000000002248000000000226900693000000000000155500000000000351117400000000000000009999123100000010000000000000BRAMARACNOR4109
012013092496AMAR3F      020LOJAS MARISAON      NM   R$  000000000226300000000022630000000002203000000000224600000000022030000000002203000000000244700007000000000000000169000000000000379635000000000000009999123100000010000000000000BRAMARACNOR4109
012013092462AMAR3T      030LOJAS MARISAON      NM041R$  000000000227900000000022800000000002279000000000227900000000022800000000000000000000000000000002000000000000007300000000000016637638000000000000009999123100000010000000000000BRAMARACNOR4109
012013092478AMARJ22     070AMAR        ON      NM000R$  000000000013300000000001330000000000133000000000013300000000001330000000000000000000000000000001000000000000014000000000000001862000000000000220002013102100000010000000000000BRAMARACNOR4109
012013092478AMARJ23     070AMAR        ON      NM000R$  000000000001400000000000190000000000014000000000001800000000000190000000000018000000000002500003000000000000004700000000000000088800000000000230002013102100000010000000000000BRAMARACNOR4109
012013092478AMARK23     070AMAR        ON      NM000R$  000000000013300000000001330000000000133000000000013300000000001330000000000000000000000000000001000000000000014000000000000001862000000000000230002013111800000010000000000000BRAMARACNOR4109
012013092402AMBV3       010AMBEV       ON  ED       R$  000000000866900000000087000000000008542000000000860800000000086220000000008586000000000862201051000000000000177600000000001528936700000000000000009999123100000010000000000000BRAMBVACNOR4154
012013092496AMBV3F      020AMBEV       ON  ED       R$  000000000860000000000087100000000008413000000000861400000000085790000000008600000000000875000047000000000000001284000000000011061917000000000000009999123100000010000000000000BRAMBVACNOR4154
012013092402AMBV4       010AMBEV       PN  ED       R$  000000000866900000000086950000000008542000000000860600000000086210000000008571000000000862105916000000000001327700000000011427201800000000000000009999123100000010000000000000BRAMBVACNPR1154
012013092496AMBV4F      020AMBEV       PN  ED       R$  000000000858600000000086940000000008542000000000860100000000085830000000008582000000000863900124000000000000003311000000000028479109000000000000009999123100000010000000000000BRAMBVACNPR1154
012013092478AMBVJ90     070AMBV    /ED PN        000R$  000000000007000000000000700000000000070000000000007000000000000700000000000031000000000007300003000000000000010100000000000000707000000000000893502013102100000010000000000000BRAMBVACNPR1153
012013092402ARTR3       010ARTERIS     ON      NM   R$  000000000193100000000019310000000001880000000000190800000000019100000000001904000000000192701341000000000000354600000000000676749900000000000000009999123100000010000000000000BRARTRACNOR3101
012013092496ARTR3F      020ARTERIS     ON      NM   R$  000000000187500000000019770000000001875000000000190900000000019770000000001911000000000197700026000000000000000867000000000001655635000000000000009999123100000010000000000000BRARTRACNOR3101
012013092462ARTR3T      030ARTERIS     ON      NM030R$  000000000189400000000019360000000001894000000000190000000000019360000000000000000000000000000004000000000000005000000000000009500358000000000000009999123100000010000000000000BRARTRACNOR3101
012013092402ARZZ3       010AREZZO CO   ON      NM   R$  000000000391000000000039520000000003829000000000386500000000038320000000003832000000000383500666000000000000112600000000000435207800000000000000009999123100000010000000000000BRARZZACNOR3109
012013092496ARZZ3F      020AREZZO CO   ON      NM   R$  000000000387600000000039990000000003768000000000387900000000038390000000003800000000000386000037000000000000000623000000000002416695000000000000009999123100000010000000000000BRARZZACNOR3109
012013092402AUTM3       010AUTOMETAL   ON      NM   R$  000000000185600000000018570000000001813000000000182600000000018180000000001817000000000182400319000000000000114100000000000208375100000000000000009999123100000010000000000000BRAUTMACNOR8109
012013092496AUTM3F      020AUTOMETAL   ON      NM   R$  000000000180200000000018400000000001801000000000181300000000018010000000001801000000000199700003000000000000000098000000000000177732000000000000009999123100000010000000000000BRAUTMACNOR8109
012013092402BAHI3       010BAHEMA      ON           R$  000000000049400000000004940000000000494000000000049400000000004940000000000480000000000049500003000000000000007600000000000003754400000000000000009999123100000010000000000000BRBAHIACNOR1066
012013092462BAHI3T      030BAHEMA      ON        062R$  000000000050200000000005030000000000502000000000050200000000005030000000000000000000000000000002000000000000007600000000000003816348000000000000009999123100000010000000000000BRBAHIACNOR1066
012013092402BAZA3       010AMAZONIA    ON           R$  000000000003300000000000330000000000032000000000003200000000000320000000000032000000000003300011000000000000064000000000000002086000000000000000009999123100000010000000000000BRBAZAACNOR0163
012013092496BAZA3F      020AMAZONIA    ON           R$  000000000003500000000000350000000000035000000000003500000000000350000000000032000000000003500001000000000000000054000000000000001890000000000000009999123100000010000000000000BRBAZAACNOR0163
012013092402BBAS3       010BRASIL      ON      NM   R$  000000000262300000000026350000000002584000000000260500000000025940000000002594000000000259515938000000000008956900000000023331907700000000000000009999123100000010000000000000BRBBASACNOR3239
012013092496BBAS3F      020BRASIL      ON      NM   R$  000000000261100000000026350000000002586000000000260700000000025950000000002590000000000259900262000000000000007851000000000020467837000000000000009999123100000010000000000000BRBBASACNOR3239
012013092462BBAS3T      030BRASIL      ON      NM030R$  000000000262800000000026290000000002628000000000262800000000026290000000000000000000000000000002000000000000007800000000000020505411000000000000009999123100000010000000000000BRBBASACNOR3239
012013092478BBASB23     070BBAS        ON      NM000R$  000000000048900000000004890000000000489000000000048900000000004890000000000000000000000000000001000000000000000300000000000000146700000000000219502014021700000010000000000000BRBBASACNOR3237
012013092478BBASJ23     070BBAS        ON      NM000R$  000000000044500000000004600000000000441000000000044400000000004410000000000440000000000047300008000000000000010700000000000004758600000000000216102013102100000010000000000000BRBBASACNOR3235
012013092478BBASJ24     070BBAS        ON      NM000R$  000000000035800000000003580000000000358000000000035800000000003580000000000300000000000000000001000000000000005000000000000001790000000000000227102013102100000010000000000000BRBBASACNOR3236
012013092478BBASJ25     070BBAS  FM    ON      NM000R$  000000000024900000000002550000000000218000000000023600000000002240000000000181000000000037100083000000000000142500000000000033691800000000000239502013102100000010000000000000BRBBASACNOR3237
012013092478BBASJ26     070BBAS  FM    ON      NM000R$  000000000018700000000001960000000000162000000000017700000000001680000000000165000000000019400138000000000000163800000000000029089900000000000246102013102100000010000000000000BRBBASACNOR3235
012013092478BBASJ27     070BBAS  FM    ON      NM000R$  000000000011800000000001190000000000093000000000010200000000000950000000000090000000000010600141000000000000139900000000000014272500000000000256102013102100000010000000000000BRBBASACNOR3235
012013092478BBASJ28     070BBAS  FM    ON      NM000R$  000000000004000000000000460000000000030000000000003500000000000340000000000025000000000004500155000000000000165100000000000005843600000000000269502013102100000010000000000000BRBBASACNOR3237
012013092478BBASJ29     070BBAS  FM    ON      NM000R$  000000000002400000000000250000000000014000000000001700000000000140000000000014000000000002500039000000000000058600000000000001027100000000000276102013102100000010000000000000BRBBASACNOR3235
012013092478BBASJ30     070BBAS        ON      NM000R$  000000000001000000000000100000000000006000000000000800000000000060000000000005000000000000700003000000000000010900000000000000088600000000000286102013102100000010000000000000BRBBASACNOR3235
012013092478BBASJ32     070BBAS        ON      NM000R$  000000000000200000000000020000000000002000000000000200000000000020000000000000000000000000000001000000000000000500000000000000001000000000000320002013102100000010000000000000BRBBASACNOR3239
012013092478BBASJ56     070BBAS        ON      NM000R$  000000000013400000000001430000000000134000000000013700000000001430000000000000000000000000000002000000000000001500000000000000205500000000000251102013102100000010000000000000BRBBASACNOR3235
012013092478BBASJ65     070BBAS        ON      NM000R$  000000000004900000000000520000000000045000000000004800000000000520000000000000000000000000000005000000000000018300000000000000879500000000000265002013102100000010000000000000BRBBASACNOR3239
012013092478BBASK24     070BBAS        ON      NM000R$  000000000036700000000003680000000000340000000000036400000000003400000000000286000000000000000006000000000000013500000000000004919000000000000229502013111800000010000000000000BRBBASACNOR3237
012013092478BBASK25     070BBAS  FM    ON      NM000R$  000000000029800000000003050000000000273000000000028600000000002740000000000000000000000000000048000000000000091600000000000026205400000000000237102013111800000010000000000000BRBBASACNOR3236
012013092478BBASK26     070BBAS  FM    ON      NM000R$  000000000020900000000002100000000000192000000000020300000000001940000000000100000000000000000026000000000000050500000000000010256500000000000247102013111800000010000000000000BRBBASACNOR3236
012013092478BBASK27     070BBAS  FM    ON      NM000R$  000000000014700000000001470000000000126000000000013200000000001260000000000033000000000000000029000000000000027500000000000003651000000000000257102013111800000010000000000000BRBBASACNOR3236
012013092478BBASK28     070BBAS  FM    ON      NM000R$  000000000007800000000000790000000000074000000000007700000000000790000000000035000000000009000022000000000000483500000000000037517500000000000267102013111800000010000000000000BRBBASACNOR3236
012013092478BBASK29     070BBAS  FM    ON      NM000R$  000000000004000000000000430000000000033000000000003600000000000340000000000016000000000003600143000000000000352900000000000012864600000000000279502013111800000010000000000000BRBBASACNOR3237
012013092478BBASK57     070BBAS        ON      NM000R$  000000000006000000000000600000000000050000000000005300000000000500000000000000000000000000000009000000000000029700000000000001589100000000000275002013111800000010000000000000BRBBASACNOR3239
012013092478BBASL26     070BBAS        ON      NM000R$  000000000023900000000002390000000000239000000000023900000000002390000000000225000000000000000001000000000000000100000000000000023900000000000246102013121600000010000000000000BRBBASACNOR3235
012013092478BBASL27     070BBAS        ON      NM000R$  000000000015700000000001570000000000146000000000014600000000001550000000000007000000000000000011000000000000754500000000000110197500000000000259502013121600000010000000000000BRBBASACNOR3237
012013092478BBASL28     070BBAS        ON      NM000R$  000000000010000000000001000000000000100000000000010000000000001000000000000005000000000000000003000000000000001300000000000000130000000000000269502013121600000010000000000000BRBBASACNOR3237
012013092478BBASL29     070BBAS        ON      NM000R$  000000000008100000000000810000000000071000000000007800000000000710000000000010000000000000000002000000000000001700000000000000132700000000000276102013121600000010000000000000BRBBASACNOR3235
012013092478BBASL30     070BBAS        ON      NM000R$  000000000001700000000000170000000000016000000000001600000000000160000000000005000000000000000013000000000000030000000000000000490000000000000300002013121600000010000000000000BRBBASACNOR3239
012013092478BBASL60     070BBAS        ON      NM000R$  000000000005000000000000500000000000043000000000004500000000000430000000000000000000000000000002000000000000000800000000000000036500000000000286202013121600000010000000000000BRBBASACNOR3233
012013092482BBASM26     080BBASE       ON      NM000R$  000000000007900000000000790000000000079000000000007900000000000790000000000000000000000000000002000000000000001000000000000000079000000000000249502014012000000010000000000000BRBBASACNOR3237
012013092482BBASV23     080BBASE       ON      NM000R$  000000000000300000000000030000000000003000000000000300000000000030000000000000000000000000300001000000000000001100000000000000003300000000000216102013102100000010000000000000BRBBASACNOR3235
012013092482BBASV24     080BBASE FM    ON      NM000R$  000000000000600000000000070000000000005000000000000500000000000060000000000003000000000000600018000000000000068800000000000000370000000000000227102013102100000010000000000000BRBBASACNOR3236
012013092482BBASV25     080BBASE FM    ON      NM000R$  000000000001500000000000150000000000011000000000001200000000000120000000000005000000000001900013000000000000020600000000000000264000000000000239502013102100000010000000000000BRBBASACNOR3237
012013092482BBASV26     080BBASE FM    ON      NM000R$  000000000002000000000000240000000000019000000000002000000000000200000000000017000000000002400045000000000000060100000000000001241600000000000246102013102100000010000000000000BRBBASACNOR3235
012013092482BBASV27     080BBASE FM    ON      NM000R$  000000000004300000000000520000000000039000000000004500000000000490000000000012000000000005600107000000000000084700000000000003886600000000000256102013102100000010000000000000BRBBASACNOR3235
012013092482BBASV28     080BBASE       ON      NM000R$  000000000011300000000001130000000000105000000000010900000000001050000000000000000000000000000002000000000000000600000000000000065400000000000269502013102100000010000000000000BRBBASACNOR3237
012013092482BBASV60     080BBASE       ON      NM000R$  000000000029400000000002940000000000294000000000029400000000002940000000000000000000000000000001000000000000175000000000000051450000000000000291102013102100000010000000000000BRBBASACNOR3235
012013092482BBASV65     080BBASE       ON      NM000R$  000000000008300000000000830000000000083000000000008300000000000830000000000082000000000000000001000000000000175000000000000014525000000000000265002013102100000010000000000000BRBBASACNOR3239
012013092482BBASW24     080BBASE FM    ON      NM000R$  000000000001700000000000170000000000017000000000001700000000000170000000000006000000000000000002000000000000004000000000000000068000000000000229502013111800000010000000000000BRBBASACNOR3237
012013092482BBASW25     080BBASE FM    ON      NM000R$  000000000002500000000000260000000000022000000000002200000000000220000000000000000000000000000219000000000000385800000000000008793300000000000237102013111800000010000000000000BRBBASACNOR3236
012013092482BBASW26     080BBASE FM    ON      NM000R$  000000000004100000000000490000000000041000000000004700000000000440000000000000000000000000000021000000000000218400000000000010394100000000000247102013111800000010000000000000BRBBASACNOR3236
012013092482BBASW27     080BBASE FM    ON      NM000R$  000000000007700000000000770000000000066000000000007300000000000660000000000000000000000000000019000000000000041400000000000003022400000000000257102013111800000010000000000000BRBBASACNOR3236
012013092482BBASW28     080BBASE       ON      NM000R$  000000000011000000000001100000000000110000000000011000000000001100000000000000000000000000000001000000000000004000000000000000440000000000000267102013111800000010000000000000BRBBASACNOR3236
012013092482BBASX25     080BBASE       ON      NM000R$  000000000003500000000000350000000000035000000000003500000000000350000000000035000000000004100001000000000000000100000000000000003500000000000236102013121600000010000000000000BRBBASACNOR3235
012013092402BBDC3       010BRADESCO    ON      N1   R$  000000000356000000000035710000000003512000000000354100000000035460000000003540000000000354603607000000000001198800000000004246023700000000000000009999123100000010000000000000BRBBDCACNOR1606
012013092496BBDC3F      020BRADESCO    ON      N1   R$  000000000326100000000035700000000003261000000000350900000000035450000000003442000000000354500023000000000000000599000000000002101982000000000000009999123100000010000000000000BRBBDCACNOR1606
012013092462BBDC3T      030BRADESCO    ON      N1020R$  000000000353100000000035320000000003531000000000353100000000035320000000000000000000000000000002000000000000005800000000000020484858000000000000009999123100000010000000000000BRBBDCACNOR1606
012013092402BBDC4       010BRADESCO    PN      N1   R$  000000000308900000000030960000000003040000000000307700000000030750000000003068000000000307511074000000000005338300000000016430500500000000000000009999123100000010000000000000BRBBDCACNPR8606
012013092496BBDC4F      020BRADESCO    PN      N1   R$  000000000307000000000030990000000003045000000000307700000000030740000000003072000000000307400167000000000000005154000000000015863643000000000000009999123100000010000000000000BRBBDCACNPR8606
012013092478BBDCA34     070BBDC        PN      N1000R$  000000000007400000000000740000000000067000000000007100000000000670000000000000000000000000000025000000000000018000000000000001279800000000000339602014012000000010000000000000BRBBDCACNPR8604
012013092478BBDCJ1      070BBDC        PN      N1000R$  000000000006200000000000620000000000062000000000006200000000000620000000000000000000000000000002000000000000001000000000000000062000000000000314402013102100000010000000000000BRBBDCACNPR8603
012013092478BBDCJ2      070BBDC        PN      N1000R$  000000000002300000000000230000000000023000000000002300000000000230000000000000000000000004800002000000000000005000000000000000115000000000000324402013102100000010000000000000BRBBDCACNPR8603
012013092478BBDCJ29     070BBDC        PN      N1000R$  000000000022100000000002460000000000211000000000024100000000002310000000000192000000000024300062000000000000021000000000000005075600000000000287602013102100000010000000000000BRBBDCACNPR8602
012013092478BBDCJ30     070BBDC        PN      N1000R$  000000000016900000000001690000000000132000000000015500000000001520000000000134000000000018600207000000000000176200000000000027474400000000000297602013102100000010000000000000BRBBDCACNPR8602
012013092478BBDCJ31     070BBDC        PN      N1000R$  000000000010000000000001020000000000076000000000009200000000000880000000000071000000000010000091000000000000100100000000000009226400000000000307602013102100000010000000000000BRBBDCACNPR8602
012013092478BBDCJ32     070BBDC        PN      N1000R$  000000000004200000000000500000000000038000000000004800000000000490000000000040000000000005300059000000000000084700000000000004089600000000000317602013102100000010000000000000BRBBDCACNPR8602
012013092478BBDCJ33     070BBDC        PN      N1000R$  000000000002600000000000260000000000021000000000002300000000000240000000000019000000000002400010000000000000055800000000000001306100000000000327602013102100000010000000000000BRBBDCACNPR8602
012013092478BBDCJ34     070BBDC        PN      N1000R$  000000000001000000000000120000000000010000000000001000000000000120000000000000000000000001200027000000000000053900000000000000579000000000000337202013102100000010000000000000BRBBDCACNPR8600
012013092478BBDCJ58     070BBDC        PN      N1000R$  000000000030200000000003050000000000302000000000030400000000003050000000000000000000000000000003000000000000000700000000000000212900000000000279802013102100000010000000000000BRBBDCACNPR8605
012013092478BBDCK30     070BBDC        PN      N1000R$  000000000019500000000001950000000000176000000000018700000000001790000000000000000000000000000108000000000000078800000000000014752300000000000299802013111800000010000000000000BRBBDCACNPR8605
012013092478BBDCK31     070BBDC        PN      N1000R$  000000000010800000000001310000000000106000000000012100000000001300000000000000000000000013200061000000000000062000000000000007531400000000000309802013111800000010000000000000BRBBDCACNPR8605
012013092478BBDCK32     070BBDC        PN      N1000R$  000000000008100000000000900000000000081000000000008500000000000900000000000052000000000009300019000000000000010800000000000000923500000000000317402013111800000010000000000000BRBBDCACNPR8601
012013092478BBDCK33     070BBDC        PN      N1000R$  000000000004200000000000540000000000042000000000004800000000000480000000000021000000000006800036000000000000039600000000000001913800000000000327602013111800000010000000000000BRBBDCACNPR8602
012013092478BBDCK34     070BBDC        PN      N1000R$  000000000002400000000000260000000000024000000000002400000000000260000000000011000000000003800003000000000000002400000000000000058400000000000339602013111800000010000000000000BRBBDCACNPR8604
012013092478BBDCK9      070BBDC        PN      N1000R$  000000000022400000000002610000000000224000000000025500000000002580000000000000000000000000000049000000000000017200000000000004402400000000000289802013111800000010000000000000BRBBDCACNPR8605
012013092478BBDCL1      070BBDC        PN      N1000R$  000000000018100000000001810000000000181000000000018100000000001810000000000000000000000000000001000000000000000500000000000000090500000000000307202013121600000010000000000000BRBBDCACNPR8600
012013092478BBDCL33     070BBDC        PN      N1000R$  000000000024000000000002440000000000240000000000024200000000002440000000000000000000000000000002000000000000000300000000000000072800000000000297002013121600000010000000000000BRBBDCACNPR8598
012013092478BBDCL34     070BBDC        PN      N1000R$  000000000005200000000000580000000000052000000000005500000000000530000000000000000000000000000034000000000000016700000000000000921200000000000337202013121600000010000000000000BRBBDCACNPR8600
012013092478BBDCL35     070BBDC        PN      N1000R$  000000000003100000000000370000000000031000000000003400000000000330000000000000000000000000000117000000000000058100000000000002021200000000000347202013121600000010000000000000BRBBDCACNPR8600
012013092478BBDCL5      070BBDC        PN      N1000R$  000000000003100000000000310000000000031000000000003100000000000310000000000000000000000000000001000000000000003000000000000000093000000000000350002013121600000010000000000000BRBBDCACNPR8606
012013092478BBDCL6      070BBDC        PN      N1000R$  000000000002500000000000250000000000023000000000002400000000000240000000000000000000000000000006000000000000014400000000000000346200000000000357402013121600000010000000000000BRBBDCACNPR8601
012013092482BBDCO60     080BBDCE       PN      N1000R$  000000000006100000000000610000000000061000000000006100000000000610000000000000000000000000000001000000000000001200000000000000073200000000000274302014031700000010000000000000BRBBDCACNPR8598
012013092482BBDCO61     080BBDCE       PN      N1000R$  000000000006400000000000680000000000062000000000006200000000000620000000000000000000000000000003000000000000901200000000000056481600000000000278802014031700000010000000000000BRBBDCACNPR8598
012013092482BBDCV1      080BBDCE       PN      N1000R$  000000000011500000000001150000000000115000000000011500000000001150000000000000000000000000000003000000000000000600000000000000069000000000000314402013102100000010000000000000BRBBDCACNPR8603
012013092482BBDCV25     080BBDCE       PN      N1000R$  000000000000200000000000020000000000002000000000000200000000000020000000000000000000000000000004000000000000040000000000000000080000000000000249402013102100000010000000000000BRBBDCACNPR8603
012013092482BBDCV27     080BBDCE       PN      N1000R$  000000000000500000000000050000000000005000000000000500000000000050000000000000000000000000500003000000000000424500000000000002122500000000000267602013102100000010000000000000BRBBDCACNPR8602
012013092482BBDCV28     080BBDCE       PN      N1000R$  000000000000300000000000030000000000002000000000000200000000000020000000000001000000000000000002000000000000001000000000000000002500000000000245602013102100000010000000000000BRBBDCACNPR8591
012013092482BBDCV29     080BBDCE       PN      N1000R$  000000000001700000000000200000000000017000000000001800000000000180000000000000000000000000000186000000000000227900000000000004143800000000000287602013102100000010000000000000BRBBDCACNPR8602
012013092482BBDCV30     080BBDCE       PN      N1000R$  000000000004200000000000480000000000035000000000003900000000000400000000000000000000000011800081000000000000069800000000000002738200000000000297602013102100000010000000000000BRBBDCACNPR8602
012013092482BBDCV31     080BBDCE       PN      N1000R$  000000000009200000000000920000000000070000000000007500000000000740000000000065000000000010500026000000000000040600000000000003047500000000000307602013102100000010000000000000BRBBDCACNPR8602
012013092482BBDCV32     080BBDCE       PN      N1000R$  000000000011900000000001530000000000119000000000013300000000001320000000000000000000000000000031000000000000055700000000000007427400000000000317602013102100000010000000000000BRBBDCACNPR8602
012013092482BBDCW27     080BBDCE       PN      N1000R$  000000000001300000000000130000000000013000000000001300000000000130000000000000000000000000000002000000000000002400000000000000031200000000000269402013111800000010000000000000BRBBDCACNPR8603
012013092482BBDCW30     080BBDCE       PN      N1000R$  000000000007300000000000740000000000073000000000007300000000000740000000000000000000000000000006000000000000001200000000000000088400000000000299802013111800000010000000000000BRBBDCACNPR8605
012013092482BBDCW31     080BBDCE       PN      N1000R$  000000000010900000000001180000000000101000000000010500000000001030000000000000000000000000000030000000000000069900000000000007345200000000000309802013111800000010000000000000BRBBDCACNPR8605
012013092482BBDCW32     080BBDCE       PN      N1000R$  000000000017100000000001710000000000141000000000015100000000001410000000000000000000000000000011000000000000015000000000000002275400000000000317402013111800000010000000000000BRBBDCACNPR8601
012013092482BBDCW9      080BBDCE       PN      N1000R$  000000000004500000000000450000000000045000000000004500000000000450000000000000000000000000000002000000000000000400000000000000018000000000000289802013111800000010000000000000BRBBDCACNPR8605
012013092482BBDCX24     080BBDCE       PN      N1000R$  000000000000800000000000080000000000008000000000000800000000000080000000000000000000000000000001000000000000001000000000000000008000000000000239602013121600000010000000000000BRBBDCACNPR8604
012013092482BBDCX25     080BBDCE       PN      N1000R$  000000000001200000000000140000000000012000000000001200000000000120000000000000000000000000000006000000000000010000000000000000128000000000000249602013121600000010000000000000BRBBDCACNPR8604
012013092482BBDCX26     080BBDCE       PN      N1000R$  000000000000600000000000070000000000006000000000000600000000000070000000000000000000000000000002000000000000004000000000000000026000000000000233202013121600000010000000000000BRBBDCACNPR8597
012013092482BBDCX27     080BBDCE       PN      N1000R$  000000000002800000000000280000000000028000000000002800000000000280000000000000000000000000000001000000000000001100000000000000030800000000000269602013121600000010000000000000BRBBDCACNPR8604
012013092482BBDCX3      080BBDCE       PN      N1000R$  000000000021800000000002180000000000218000000000021800000000002180000000000000000000000000000001000000000000002000000000000000436000000000000327202013121600000010000000000000BRBBDCACNPR8601
012013092482BBDCX30     080BBDCE       PN      N1000R$  000000000002800000000000280000000000028000000000002800000000000280000000000000000000000000000001000000000000001700000000000000047600000000000269502013121600000010000000000000BRBBDCACNPR8597
012013092482BBDCX54     080BBDCE       PN      N1000R$  000000000001000000000000110000000000010000000000001000000000000110000000000000000000000000000004000000000000006000000000000000064000000000000244602013121600000010000000000000BRBBDCACNPR8604
012013092412BBFI11B     010FII BB PROGRCI      MB   R$  000000042010200000004250000000000417110000000042067100000004200070000000420007000000042449900018000000000000000084000000000035336370000000000000009999123100000010000000000000BRBBFICTF006198
012013092412BBPO11      010FII BB PRGIICI           R$  000000001107500000000110800000000011000000000001104200000000110700000000011032000000001107000132000000000000012616000000000139315697000000000000009999123100000010000000000000BRBBPOCTF003110
012013092412BBRC11      010FII BB CORP CI           R$  000000000925000000000093000000000009250000000000925000000000093000000000009200000000000929800004000000000000000303000000000002802900000000000000009999123100000010000000000000BRBBRCCTF004124
012013092402BBRK3       010BR BROKERS  ON      NM   R$  000000000057700000000005980000000000576000000000058500000000005970000000000592000000000059702105000000000001267800000000000742668300000000000000009999123100000010000000000000BRBBRKACNOR4108
012013092496BBRK3F      020BR BROKERS  ON      NM   R$  000000000056800000000006260000000000568000000000059300000000005990000000000567000000000060000009000000000000000375000000000000222387000000000000009999123100000010000000000000BRBBRKACNOR4108
012013092402BBSE3       010BBSEGURIDADEON      NM   R$  000000000213000000000021590000000002104000000000212700000000021470000000002138000000000214707684000000000005959400000000012681024700000000000000009999123100000010000000000000BRBBSEACNOR5101
012013092496BBSE3F      020BBSEGURIDADEON      NM   R$  000000000210700000000021550000000002106000000000212900000000021430000000002134000000000214300439000000000000015135000000000032224380000000000000009999123100000010000000000000BRBBSEACNOR5101
012013092462BBSE3T      030BBSEGURIDADEON      NM030R$  000000000215300000000021550000000002133000000000214200000000021340000000000000000000000000000014000000000000004700000000000010071907000000000000009999123100000010000000000000BRBBSEACNOR5101
012013092462BBSE3T      030BBSEGURIDADEON      NM090R$  000000000218700000000021910000000002187000000000218900000000021910000000000000000000000000000004000000000000500000000000001094988116000000000000009999123100000010000000000000BRBBSEACNOR5101
012013092438BBSEK20E    012BBSE        ON      NM000R$  000000000195900000000019590000000001959000000000195900000000019590000000000000000000000000000001000000000000002100000000000004113900000000000195902013111800000010000000000000BRBBSEACNOR5101
012013092402BBTG11      010BTG PACTUAL UNT          R$  000000000292400000000030190000000002847000000000286900000000028600000000002848000000000287001425000000000000749700000000002151532400000000000000009999123100000010000000000000BRBBTGUNT007105
012013092496BBTG11F     020BTG PACTUAL UNT          R$  000000000285100000000028800000000002851000000000285600000000028800000000002850000000000288000005000000000000000158000000000000451279000000000000009999123100000010000000000000BRBBTGUNT007105
012013092462BBTG11T     030BTG PACTUAL UNT       016R$  000000000287300000000028740000000002873000000000287300000000028740000000000000000000000000000002000000000000005000000000000014365780000000000000009999123100000010000000000000BRBBTGUNT007105
012013092462BBTG11T     030BTG PACTUAL UNT       181R$  000000000300200000000030030000000003002000000000300200000000030030000000000000000000000000000002000000000000200000000000000600485136000000000000009999123100000010000000000000BRBBTGUNT007105
012013092412BBVJ11      010FII C JARDIMCI           R$  000000000779900000000077990000000007707000000000771100000000077100000000007712000000000779800009000000000000000095000000000000732564000000000000009999123100000010000000000000BRBBVJCTF001133
012013092412BCFF11B     010FII BC FFII CI      MB   R$  000000000886000000000088690000000008800000000000882100000000088500000000008820000000000885000054000000000000003375000000000029773147000000000000009999123100000010000000000000BRBCFFCTF000142
012013092402BEEF3       010MINERVA     ON      NM   R$  000000000100300000000010260000000000981000000000099000000000009870000000000987000000000099203131000000000000970700000000000961961500000000000000009999123100000010000000000000BRBEEFACNOR6104
012013092496BEEF3F      020MINERVA     ON      NM   R$  000000000100500000000010490000000000983000000000099500000000009920000000000969000000000098800028000000000000000804000000000000800021000000000000009999123100000010000000000000BRBEEFACNOR6104
012013092462BEEF3T      030MINERVA     ON      NM030R$  000000000099400000000009950000000000994000000000099400000000009950000000000000000000000000000002000000000000002000000000000001988410000000000000009999123100000010000000000000BRBEEFACNOR6104
012013092462BEEF3T      030MINERVA     ON      NM062R$  000000000100500000000010060000000001005000000000100500000000010060000000000000000000000000000002000000000000001000000000000001005789000000000000009999123100000010000000000000BRBEEFACNOR6104
012013092402BEES3       010BANESTES    ON           R$  000000000004800000000000500000000000048000000000004800000000000500000000000048000000000005000010000000000000034400000000000001677400000000000000009999123100000010000000000000BRBEESACNOR9244
012013092402BEES4       010BANESTES    PN           R$  000000000004500000000000450000000000045000000000004500000000000450000000000044000000000004600006000000000000012900000000000000580500000000000000009999123100000010000000000000BRBEESACNPR6169
012013092402BEMA3       010BEMATECH    ON      NM   R$  000000000077900000000007800000000000773000000000077600000000007790000000000779000000000078000076000000000000046800000000000036356900000000000000009999123100000010000000000000BRBEMAACNOR0114
012013092496BEMA3F      020BEMATECH    ON      NM   R$  000000000077900000000007790000000000779000000000077900000000007790000000000779000000000078000001000000000000000020000000000000015580000000000000009999123100000010000000000000BRBEMAACNOR0114
012013092402BHGR3       010BHG         ON      NM   R$  000000000145500000000015000000000001434000000000146400000000015000000000001500000000000159000069000000000000043100000000000063109900000000000000009999123100000010000000000000BRBHGRACNOR9101
012013092402BICB4       010BICBANCO    PN      N1   R$  000000000050100000000005100000000000465000000000047900000000004650000000000465000000000047000171000000000000161500000000000077427600000000000000009999123100000010000000000000BRBICBACNPR7131
012013092496BICB4F      020BICBANCO    PN      N1   R$  000000000051000000000005100000000000451000000000048100000000004510000000000462000000000047300007000000000000000142000000000000068348000000000000009999123100000010000000000000BRBICBACNPR7131
012013092462BICB4T      030BICBANCO    PN      N1090R$  000000000050700000000005080000000000507000000000050700000000005080000000000000000000000000000002000000000000004000000000000002030426000000000000009999123100000010000000000000BRBICBACNPR7131
012013092462BICB4T      030BICBANCO    PN      N1120R$  000000000048900000000004900000000000489000000000048900000000004900000000000000000000000000000002000000000000007000000000000003424296000000000000009999123100000010000000000000BRBICBACNPR7131
012013092402BISA3       010BROOKFIELD  ON      NM   R$  000000000016700000000001670000000000163000000000016500000000001650000000000164000000000016501746000000000006350300000000001050412600000000000000009999123100000010000000000000BRBISAACNOR8109
012013092496BISA3F      020BROOKFIELD  ON      NM   R$  000000000016600000000001720000000000163000000000016400000000001720000000000164000000000016600021000000000000000508000000000000083766000000000000009999123100000010000000000000BRBISAACNOR8109
012013092462BISA3T      030BROOKFIELD  ON      NM030R$  000000000016800000000001690000000000168000000000016800000000001690000000000000000000000000000002000000000000005000000000000000841179000000000000009999123100000010000000000000BRBISAACNOR8109
012013092462BISA3T      030BROOKFIELD  ON      NM045R$  000000000016800000000001690000000000168000000000016800000000001690000000000000000000000000000002000000000000015000000000000002532304000000000000009999123100000010000000000000BRBISAACNOR8109
012013092462BISA3T      030BROOKFIELD  ON      NM090R$  000000000017000000000001710000000000170000000000017000000000001710000000000000000000000000000004000000000000100000000000000017049030000000000000009999123100000010000000000000BRBISAACNOR8109
012013092402BMKS3       010BIC MONARK  ON           R$  000000003400000000000340000000000034000000000003400000000000340000000000031500000000003400000001000000000000000007000000000000238000000000000000009999123100000010000000000000BRBMKSACNOR9155
012013092412BMLC11B     010FII BMBRC LCCI      MB   R$  000000001143000000000114300000000011430000000001143000000000114300000000011350000000001140000001000000000000000002000000000000022860000000000000009999123100000010000000000000BRBMLCCTF004119
012013092402BMTO4       010BRASMOTOR   PN           R$  000000000008600000000000880000000000084000000000008500000000000870000000000084000000000008700037000000000000228000000000000019406000000000000000009999123100000010000000000000BRBMTOACNPR6065
012013092496BMTO4F      020BRASMOTOR   PN           R$  000000000008900000000000890000000000089000000000008900000000000890000000000083000000000008900002000000000000000400000000000000035600000000000000009999123100000010000000000000BRBMTOACNPR6065
012013092402BNBR4       010NORD BRASIL PN           R$  000000000245000000000024500000000002450000000000245000000000024500000000002200000000000250000001000000000000000200000000000000490000000000000000009999123100000010000000000000BRBNBRACNPR5187
012013092412BNFS11      010FII BANRISULCI           R$  000000000999500000000099950000000009995000000000999500000000099950000000009703000000000999500001000000000000000001000000000000009995000000000000009999123100000010000000000000BRBNFSCTF000112
012013092402BOBR4       010BOMBRIL     PN           R$  000000000066700000000006670000000000667000000000066700000000006670000000000623000000000066500001000000000000000200000000000000133400000000000000009999123100000010000000000000BRBOBRACNPR3127
012013092414BOVA11      010ISHARES BOVACI           R$  000000000530900000000053410000000005298000000000532100000000053350000000005301000000000533500809000000000000760300000000004046042780000000000000009999123100000010000000000000BRBOVACTF003101
012013092496BOVA11F     020ISHARES BOVACI           R$  000000000531400000000053150000000005314000000000531400000000053150000000005314000000000540700003000000000000000007000000000000037203000000000000009999123100000010000000000000BRBOVACTF003101
012013092412BPFF11      010FII ABSOLUTOCI           R$  000000000830000000000083150000000008240000000000827000000000082400000000008201000000000824000036000000000000002233000000000018469091000000000000009999123100000010000000000000BRBPFFCTF002105
012013092402BPHA3       010BR PHARMA   ON      NM   R$  000000000080500000000008120000000000765000000000078200000000007700000000000770000000000077201646000000000000571500000000000446954900000000000000009999123100000010000000000000BRBPHAACNOR6102
012013092496BPHA3F      020BR PHARMA   ON      NM   R$  000000000080000000000008000000000000768000000000078500000000007680000000000751000000000081900016000000000000000518000000000000406908000000000000009999123100000010000000000000BRBPHAACNOR6102
012013092462BPHA3T      030BR PHARMA   ON      NM030R$  000000000079000000000007910000000000783000000000078700000000007840000000000000000000000000000004000000000000005000000000000003939395000000000000009999123100000010000000000000BRBPHAACNOR6102
012013092462BPHA3T      030BR PHARMA   ON      NM062R$  000000000080000000000008010000000000800000000000080000000000008010000000000000000000000000000002000000000000001000000000000000800046000000000000009999123100000010000000000000BRBPHAACNOR6102
012013092462BPHA3T      030BR PHARMA   ON      NM090R$  000000000078800000000007890000000000788000000000078800000000007890000000000000000000000000000002000000000000001500000000000001182086000000000000009999123100000010000000000000BRBPHAACNOR6102
012013092462BPHA3T      030BR PHARMA   ON      NM180R$  000000000081100000000008120000000000811000000000081100000000008120000000000000000000000000000002000000000000001000000000000000811389000000000000009999123100000010000000000000BRBPHAACNOR6102
012013092402BPNM4       010PANAMERICANOPN      N1   R$  000000000051800000000005210000000000513000000000051800000000005190000000000513000000000051900066000000000000034600000000000017927200000000000000009999123100000010000000000000BRBPNMACNPR6111
012013092402BRAP3       010BRADESPAR   ON      N1   R$  000000000208000000000020810000000002065000000000207000000000020700000000002059000000000207000012000000000000002200000000000004555900000000000000009999123100000010000000000000BRBRAPACNOR5124
012013092496BRAP3F      020BRADESPAR   ON      N1   R$  000000000207000000000020700000000002065000000000206500000000020650000000002065000000000209900005000000000000000061000000000000126020000000000000009999123100000010000000000000BRBRAPACNOR5124
012013092402BRAP4       010BRADESPAR   PN      N1   R$  000000000256500000000025710000000002508000000000252300000000025250000000002522000000000252505224000000000001306400000000003296145100000000000000009999123100000010000000000000BRBRAPACNPR2124
012013092496BRAP4F      020BRADESPAR   PN      N1   R$  000000000254100000000025580000000002510000000000252100000000025580000000002510000000000255800030000000000000000625000000000001576058000000000000009999123100000010000000000000BRBRAPACNPR2124
012013092462BRAP4T      030BRADESPAR   PN      N1021R$  000000000254000000000025410000000002540000000000254000000000025410000000000000000000000000000002000000000000004600000000000011684646000000000000009999123100000010000000000000BRBRAPACNPR2124
012013092462BRAP4T      030BRADESPAR   PN      N1030R$  000000000254300000000025440000000002543000000000254300000000025440000000000000000000000000000002000000000000000600000000000001526060000000000000009999123100000010000000000000BRBRAPACNPR2124
012013092462BRAP4T      030BRADESPAR   PN      N1062R$  000000000256500000000025660000000002565000000000256500000000025660000000000000000000000000000004000000000000050000000000000128263699000000000000009999123100000010000000000000BRBRAPACNPR2124
012013092412BRCR11      010FII BC FUND CI           R$  000000001280000000000128030000000012680000000001271200000000127050000000012705000000001279000396000000000000052733000000000670352496000000000000009999123100000010000000000000BRBRCRCTF000133
012013092402BRFS3       010BRF SA      ON      NM   R$  000000000566700000000056930000000005548000000000562700000000056320000000005632000000000563305250000000000001532400000000008623187000000000000000009999123100000010000000000000BRBRFSACNOR8110
012013092496BRFS3F      020BRF SA      ON      NM   R$  000000000561500000000057000000000005550000000000561500000000056300000000005576000000000569300077000000000000002671000000000014999068000000000000009999123100000010000000000000BRBRFSACNOR8110
012013092462BRFS3T      030BRF SA      ON      NM062R$  000000000566800000000056690000000005668000000000566800000000056690000000000000000000000000000002000000000000001000000000000005668260000000000000009999123100000010000000000000BRBRFSACNOR8110
012013092478BRFSA60     070BRFS        ON      NM000R$  000000000018600000000001860000000000186000000000018600000000001860000000000000000000000000000001000000000000300000000000000055800000000000000600002014012000000010000000000000BRBRFSACNOR8110
012013092402BRIN3       010BR INSURANCEON      NM   R$  000000000205400000000020540000000001987000000000200700000000020050000000002002000000000200501522000000000000315700000000000633614500000000000000009999123100000010000000000000BRBRINACNOR3106
012013092496BRIN3F      020BR INSURANCEON      NM   R$  000000000202100000000020380000000001997000000000201200000000019970000000001992000000000201900014000000000000000345000000000000694233000000000000009999123100000010000000000000BRBRINACNOR3106
012013092402BRIV4       010ALFA INVEST PN           R$  000000000060200000000006020000000000602000000000060200000000006020000000000567000000000060200005000000000000004000000000000002408000000000000000009999123100000010000000000000BRBRIVACNPR3197
012013092402BRKM3       010BRASKEM     ON      N1   R$  000000000120500000000012380000000001205000000000121200000000012050000000001190000000000122000006000000000000000900000000000001090800000000000000009999123100000010000000000000BRBRKMACNOR1110
012013092402BRKM5       010BRASKEM     PNA     N1   R$  000000000181200000000018190000000001760000000000179500000000018030000000001788000000000180307035000000000001544100000000002772209600000000000000009999123100000010000000000000BRBRKMACNPA4110
012013092496BRKM5F      020BRASKEM     PNA     N1   R$  000000000175900000000018340000000001759000000000178300000000018050000000001780000000000180500040000000000000001130000000000002016474000000000000009999123100000010000000000000BRBRKMACNPA4110
012013092402BRML3       010BR MALLS PARON      NM   R$  000000000212000000000021250000000002073000000000210300000000021250000000002125000000000212607526000000000002113600000000004445474100000000000000009999123100000010000000000000BRBRMLACNOR9105
012013092496BRML3F      020BR MALLS PARON      NM   R$  000000000211000000000021300000000002085000000000210300000000021300000000002040000000000213000036000000000000001082000000000002276130000000000000009999123100000010000000000000BRBRMLACNOR9105
012013092462BRML3T      030BR MALLS PARON      NM016R$  000000000212400000000021250000000002124000000000212400000000021250000000000000000000000000000002000000000000000500000000000001062047000000000000009999123100000010000000000000BRBRMLACNOR9105
012013092462BRML3T      030BR MALLS PARON      NM030R$  000000000214000000000021410000000002140000000000214000000000021410000000000000000000000000000018000000000000010000000000000021405122000000000000009999123100000010000000000000BRBRMLACNOR9105
012013092462BRML3T      030BR MALLS PARON      NM090R$  000000000216700000000021680000000002166000000000216700000000021670000000000000000000000000000004000000000000002000000000000004334537000000000000009999123100000010000000000000BRBRMLACNOR9105
012013092402BRPR3       010BR PROPERT  ON      NM   R$  000000000200900000000020150000000001961000000000198500000000019940000000001994000000000199706403000000000001186400000000002356159600000000000000009999123100000010000000000000BRBRPRACNOR9112
012013092496BRPR3F      020BR PROPERT  ON      NM   R$  000000000200000000000020690000000001951000000000200300000000020640000000001986000000000206500021000000000000000510000000000001021854000000000000009999123100000010000000000000BRBRPRACNOR9112
012013092402BRSR6       010BANRISUL    PNB     N1   R$  000000000160000000000016010000000001562000000000157500000000015790000000001575000000000157905162000000000001718600000000002707183500000000000000009999123100000010000000000000BRBRSRACNPB4134
012013092496BRSR6F      020BANRISUL    PNB     N1   R$  000000000159000000000015900000000001561000000000157800000000015890000000001575000000000158000061000000000000001500000000000002366966000000000000009999123100000010000000000000BRBRSRACNPB4134
012013092402BSEV3       010BIOSEV      ON      NM   R$  000000000078500000000007890000000000785000000000078700000000007890000000000789000000000083100008000000000000001200000000000000944800000000000000009999123100000010000000000000BRBSEVACNOR3100
012013092402BTOW3       010B2W DIGITAL ON      NM   R$  000000000151800000000015280000000001470000000000148400000000014700000000001470000000000147801699000000000000549800000000000816116500000000000000009999123100000010000000000000BRBTOWACNOR8105
012013092496BTOW3F      020B2W DIGITAL ON      NM   R$  000000000152100000000015290000000001471000000000148700000000014780000000001479000000000150000030000000000000001176000000000001747093000000000000009999123100000010000000000000BRBTOWACNOR8105
012013092402BVMF3       010BMFBOVESPA  ON      NM   R$  000000000128800000000012980000000001271000000000128200000000012810000000001280000000000128119995000000000008698800000000011159413200000000000000009999123100000010000000000000BRBVMFACNOR3126
012013092496BVMF3F      020BMFBOVESPA  ON      NM   R$  000000000126500000000012960000000001265000000000128200000000012960000000001281000000000129600096000000000000003304000000000004237283000000000000009999123100000010000000000000BRBVMFACNOR3126
012013092478BVMFA13     070BVMF        ON      NM000R$  000000000008700000000000870000000000087000000000008700000000000870000000000079000000000000000003000000000000007000000000000000609000000000000130002014012000000010000000000000BRBVMFACNOR3126
012013092478BVMFA15     070BVMF        ON      NM000R$  000000000001600000000000160000000000016000000000001600000000000160000000000000000000000000000001000000000000000900000000000000014400000000000150002014012000000010000000000000BRBVMFACNOR3126
012013092478BVMFJ12     070BVMF        ON      NM000R$  000000000011200000000001200000000000103000000000011200000000001080000000000102000000000011500042000000000000056100000000000006287100000000000118502013102100000010000000000000BRBVMFACNOR3125
012013092478BVMFJ13     070BVMF  FM    ON      NM000R$  000000000003700000000000440000000000033000000000004000000000000360000000000033000000000003600219000000000000264900000000000010685100000000000128502013102100000010000000000000BRBVMFACNOR3125
012013092478BVMFJ14     070BVMF  FM    ON      NM000R$  000000000000900000000000110000000000007000000000000900000000000070000000000006000000000000700069000000000000214300000000000001951400000000000138502013102100000010000000000000BRBVMFACNOR3125
012013092478BVMFJ15     070BVMF        ON      NM000R$  000000000000100000000000010000000000001000000000000100000000000010000000000001000000000000200002000000000000020000000000000000020000000000000148502013102100000010000000000000BRBVMFACNOR3125
012013092478BVMFJ42     070BVMF  FM    ON      NM000R$  000000000007600000000000800000000000063000000000007300000000000630000000000000000000000123500152000000000000256100000000000018824400000000000123502013102100000010000000000000BRBVMFACNOR3125
012013092478BVMFJ43     070BVMF  FM    ON      NM000R$  000000000002100000000000220000000000015000000000002000000000000150000000000000000000000002000019000000000000027400000000000000571000000000000133502013102100000010000000000000BRBVMFACNOR3125
012013092478BVMFJ44     070BVMF  FM    ON      NM000R$  000000000000300000000000030000000000003000000000000300000000000030000000000001000000000000000024000000000000018100000000000000054300000000000145002013102100000010000000000000BRBVMFACNOR3126
012013092478BVMFK13     070BVMF  FM    ON      NM000R$  000000000006100000000000640000000000054000000000006000000000000540000000000000000000000006500055000000000000066600000000000004029100000000000128502013111800000010000000000000BRBVMFACNOR3125
012013092478BVMFK14     070BVMF  FM    ON      NM000R$  000000000001700000000000200000000000017000000000001800000000000170000000000012000000000001800095000000000000212000000000000003929400000000000138502013111800000010000000000000BRBVMFACNOR3125
012013092478BVMFK42     070BVMF  FM    ON      NM000R$  000000000008500000000000850000000000081000000000008300000000000810000000000000000000000000000005000000000000012900000000000001080500000000000125002013111800000010000000000000BRBVMFACNOR3126
012013092478BVMFK43     070BVMF  FM    ON      NM000R$  000000000003200000000000320000000000031000000000003100000000000310000000000000000000000003200005000000000000008200000000000000257900000000000135002013111800000010000000000000BRBVMFACNOR3126
012013092478BVMFL12     070BVMF        ON      NM000R$  000000000016600000000001660000000000166000000000016600000000001660000000000000000000000000000002000000000000006000000000000000996000000000000115402013121600000010000000000000BRBVMFACNOR3123
012013092478BVMFL13     070BVMF        ON      NM000R$  000000000007700000000000770000000000071000000000007500000000000710000000000071000000000000000007000000000000008000000000000000604000000000000128502013121600000010000000000000BRBVMFACNOR3125
012013092478BVMFL15     070BVMF        ON      NM000R$  000000000001300000000000130000000000013000000000001300000000000130000000000000000000000001300001000000000000000200000000000000002600000000000148502013121600000010000000000000BRBVMFACNOR3125
012013092482BVMFQ73     080BVMFE       ON      NM000R$  000000000007500000000000750000000000075000000000007500000000000750000000000000000000000000000001000000000000400000000000000030000000000000000127402014051900000010000000000000BRBVMFACNOR3124
012013092482BVMFR63     080BVMFE       ON      NM000R$  000000000008200000000000820000000000082000000000008200000000000820000000000000000000000000000001000000000000200000000000000016400000000000000128502014061600000010000000000000BRBVMFACNOR3125
012013092482BVMFT3      080BVMFE       ON      NM000R$  000000000008600000000000870000000000086000000000008600000000000870000000000000000000000000000002000000000000550000000000000047575000000000000128502014081800000010000000000000BRBVMFACNOR3125
012013092482BVMFV12     080BVMFE FM    ON      NM000R$  000000000000900000000000090000000000007000000000000800000000000090000000000007000000000000900014000000000000023900000000000000198100000000000118502013102100000010000000000000BRBVMFACNOR3125
012013092482BVMFV13     080BVMFE FM    ON      NM000R$  000000000003900000000000390000000000031000000000003500000000000370000000000035000000000003700094000000000000165700000000000005867300000000000128502013102100000010000000000000BRBVMFACNOR3125
012013092482BVMFV42     080BVMFE FM    ON      NM000R$  000000000002000000000000240000000000016000000000001700000000000240000000000015000000000002400025000000000000065900000000000001171400000000000123502013102100000010000000000000BRBVMFACNOR3125
012013092482BVMFV43     080BVMFE FM    ON      NM000R$  000000000006500000000000710000000000058000000000006400000000000710000000000000000000000000000007000000000000019500000000000001262000000000000133502013102100000010000000000000BRBVMFACNOR3125
012013092482BVMFW12     080BVMFE FM    ON      NM000R$  000000000001900000000000190000000000017000000000001800000000000190000000000000000000000002600004000000000000003200000000000000057700000000000118502013111800000010000000000000BRBVMFACNOR3125
012013092482BVMFW13     080BVMFE FM    ON      NM000R$  000000000004800000000000480000000000048000000000004800000000000480000000000000000000000025000001000000000000001800000000000000086400000000000128502013111800000010000000000000BRBVMFACNOR3125
012013092482BVMFW42     080BVMFE FM    ON      NM000R$  000000000003600000000000360000000000036000000000003600000000000360000000000000000000000000000001000000000000001800000000000000064800000000000125002013111800000010000000000000BRBVMFACNOR3126
012013092482BVMFW43     080BVMFE FM    ON      NM000R$  000000000008100000000000810000000000081000000000008100000000000810000000000000000000000000000001000000000000001200000000000000097200000000000135002013111800000010000000000000BRBVMFACNOR3126
012013092402CAMB4       010CAMBUCI     PN           R$  000000000018700000000001870000000000179000000000018600000000001820000000000182000000000018800010000000000000013100000000000002438000000000000000009999123100000010000000000000BRCAMBACNPR1117
012013092402CARD3       010CSU CARDSYSTON      NM   R$  000000000031900000000003190000000000312000000000031700000000003180000000000291000000000031800009000000000000006300000000000001997700000000000000009999123100000010000000000000BRCARDACNOR9105
012013092496CARD3F      020CSU CARDSYSTON      NM   R$  000000000031400000000003140000000000314000000000031400000000003140000000000314000000000031900001000000000000000010000000000000003140000000000000009999123100000010000000000000BRCARDACNOR9105
012013092402CBEE3       010AMPLA ENERG ON *         R$  000000000013000000000001300000000000130000000000013000000000001300000000000127000000000013000001000000000000500000000000000000065000000000000000009999123100010000000000000000BRCBEEACNOR3149
012013092496CBMA4F      020COBRASMA    PN           R$  000000000000400000000000040000000000004000000000000400000000000040000000000003000000000000400001000000000000000001000000000000000004000000000000009999123100000010000000000000BRCBMAACNPR1124
012013092408CCHI3       010CHIARELLI   ON           R$  000000000001600000000000170000000000016000000000001600000000000170000000000016000000000001800013000000000000150000000000000002500000000000000000009999123100000010000000000000BRCCHIACNOR5123
012013092496CCHI3F      020CHIARELLI   ON           R$  000000000001700000000000170000000000017000000000001700000000000170000000000016000000000001800001000000000000003000000000000000051000000000000000009999123100000010000000000000BRCCHIACNOR5123
012013092402CCPR3       010CYRE COM-CCPON      NM   R$  000000000207000000000020700000000002061000000000206400000000020620000000002061000000000211400003000000000000000300000000000000619300000000000000009999123100000010000000000000BRCCPRACNOR9107
012013092402CCRO3       010CCR SA      ON      NM   R$  000000000183000000000018540000000001808000000000182500000000018440000000001843000000000184609703000000000003580300000000006535800100000000000000009999123100000010000000000000BRCCROACNOR2122
012013092496CCRO3F      020CCR SA      ON      NM   R$  000000000185200000000018980000000001805000000000182400000000018200000000001820000000000189800052000000000000001490000000000002717593000000000000009999123100000010000000000000BRCCROACNOR2122
012013092462CCRO3T      030CCR SA      ON      NM030R$  000000000183100000000018320000000001831000000000183100000000018320000000000000000000000000000002000000000000005500000000000010072993000000000000009999123100000010000000000000BRCCROACNOR2122
012013092478CCROJ19     070CCRO        ON      NM000R$  000000000002000000000000200000000000020000000000002000000000000200000000000000000000000000000001000000000000000500000000000000010000000000000190002013102100000010000000000000BRCCROACNOR2122
012013092478CCROJ48     070CCRO        ON      NM000R$  000000000001100000000000110000000000011000000000001100000000000110000000000000000000000010000001000000000000000100000000000000001100000000000185002013102100000010000000000000BRCCROACNOR2122
012013092402CCXC3       010CCX CARVAO  ON      NM   R$  000000000012500000000001400000000000117000000000012800000000001350000000000135000000000013607249000000000030052200000000003859627000000000000000009999123100000010000000000000BRCCXCACNOR5100
012013092496CCXC3F      020CCX CARVAO  ON      NM   R$  000000000013300000000001400000000000120000000000013100000000001390000000000134000000000013900028000000000000000895000000000000117429000000000000009999123100000010000000000000BRCCXCACNOR5100
012013092462CCXC3T      030CCX CARVAO  ON      NM030R$  000000000012000000000001210000000000120000000000012000000000001210000000000000000000000000000002000000000000010000000000000001208640000000000000009999123100000010000000000000BRCCXCACNOR5100
012013092462CCXC3T      030CCX CARVAO  ON      NM062R$  000000000012100000000001220000000000120000000000012000000000001210000000000000000000000000000004000000000000043400000000000005247607000000000000009999123100000010000000000000BRCCXCACNOR5100
012013092402CEDO4       010CEDRO       PN      N1   R$  000000000092500000000009250000000000925000000000092500000000009250000000000880000000000092500001000000000000000100000000000000092500000000000000009999123100000010000000000000BRCEDOACNPR5126
012013092496CEDO4F      020CEDRO       PN      N1   R$  000000000093200000000009320000000000932000000000093200000000009320000000000800000000000093200001000000000000000005000000000000004660000000000000009999123100000010000000000000BRCEDOACNPR5126
012013092408CELP3       010CELPA       ON           R$  000000000008300000000000830000000000083000000000008300000000000830000000000070000000000008200001000000000000000100000000000000008300000000000000009999123100000010000000000000BRCELPACNOR8112
012013092408CELP7       010CELPA       PNC          R$  000000000006000000000000600000000000060000000000006000000000000600000000000060000000000006800005000000000000002600000000000000156000000000000000009999123100000010000000000000BRCELPACNPC7114
012013092412CEOC11B     010FII CEO CCP CI      MB   R$  000000000862000000000088000000000008500000000000866400000000087990000000008500000000000879900053000000000000003707000000000032121131000000000000009999123100000010000000000000BRCEOCCTF003110
012013092402CEPE5       010CELPE       PNA          R$  000000000210000000000021000000000002100000000000210000000000021000000000002000000000000210000001000000000000000100000000000000210000000000000000009999123100000010000000000000BRCEPEACNPA6151
012013092402CESP3       010CESP        ON      N1   R$  000000000176000000000018000000000001760000000000176100000000018000000000001738000000000179500006000000000000012100000000000021317600000000000000009999123100000010000000000000BRCESPACNOR3160
012013092402CESP5       010CESP        PNA     N1   R$  000000000235000000000024300000000002350000000000235100000000024150000000002305000000000242500007000000000000019100000000000044904500000000000000009999123100000010000000000000BRCESPACNPA6108
012013092402CESP6       010CESP        PNB     N1   R$  000000000236500000000024450000000002365000000000241100000000024280000000002410000000000242803926000000000000948200000000002286325700000000000000009999123100000010000000000000BRCESPACNPB4119
012013092496CESP6F      020CESP        PNB     N1   R$  000000000238900000000024420000000002356000000000240100000000024190000000002410000000000244300041000000000000001326000000000003184550000000000000009999123100000010000000000000BRCESPACNPB4119
012013092462CESP6T      030CESP        PNB     N1020R$  000000000243600000000024370000000002436000000000243600000000024370000000000000000000000000000002000000000000000200000000000000487321000000000000009999123100000010000000000000BRCESPACNPB4119
012013092402CGAS5       010COMGAS      PNA          R$  000000000583000000000058600000000005810000000000582400000000058100000000005800000000000586000017000000000000002600000000000015143100000000000000009999123100000010000000000000BRCGASACNPA3129
012013092496CGAS5F      020COMGAS      PNA          R$  000000000580000000000058300000000005800000000000580600000000058300000000005781000000000591900003000000000000000100000000000000580660000000000000009999123100000010000000000000BRCGASACNPA3129
012013092402CGRA3       010GRAZZIOTIN  ON           R$  000000000162500000000016500000000001625000000000163800000000016490000000001614000000000165000007000000000000001400000000000002293500000000000000009999123100000010000000000000BRCGRAACNOR2061
012013092402CGRA4       010GRAZZIOTIN  PN           R$  000000000176500000000017770000000001702000000000174700000000017610000000001750000000000176100013000000000000003500000000000006115500000000000000009999123100000010000000000000BRCGRAACNPR9061
012013092496CGRA4F      020GRAZZIOTIN  PN           R$  000000000174500000000017450000000001745000000000174500000000017450000000001761000000000195500001000000000000000012000000000000020940000000000000009999123100000010000000000000BRCGRAACNPR9061
012013092402CIEL3       010CIELO       ON  EDJ NM   R$  000000000584500000000058560000000005700000000000573500000000057200000000005720000000000572506311000000000001991500000000011421795900000000000000009999123100000010000000000000BRCIELACNOR3112
012013092496CIEL3F      020CIELO       ON  EDJ NM   R$  000000000580000000000058510000000005702000000000575300000000057800000000005740000000000578000108000000000000003411000000000019622601000000000000009999123100000010000000000000BRCIELACNOR3112
012013092478CIELK56     070CIEL    /EDJON      NM000R$  000000000038800000000003880000000000388000000000038800000000003880000000000000000000000000000001000000000000028000000000000010864000000000000549402013111800000010000000000000BRCIELACNOR3111
012013092478CIELK6      070CIEL    /EDJON      NM000R$  000000000038800000000003890000000000388000000000038800000000003890000000000000000000000000000002000000000000056000000000000021756000000000000560002013111800000010000000000000BRCIELACNOR3112
012013092402CLSC4       010CELESC      PN      N2   R$  000000000178500000000018100000000001780000000000179100000000017800000000001775000000000178700052000000000000015400000000000027593300000000000000009999123100000010000000000000BRCLSCACNPR3107
012013092496CLSC4F      020CELESC      PN      N2   R$  000000000175000000000018490000000001750000000000177000000000018490000000001790000000000185000004000000000000000110000000000000194778000000000000009999123100000010000000000000BRCLSCACNPR3107
012013092402CMIG3       010CEMIG       ON      N1   R$  000000000187700000000019070000000001870000000000187900000000018790000000001879000000000190700267000000000000092300000000000173501300000000000000009999123100000010000000000000BRCMIGACNOR6208
012013092496CMIG3F      020CEMIG       ON      N1   R$  000000000187000000000019050000000001859000000000187600000000019050000000001888000000000191200018000000000000000498000000000000934456000000000000009999123100000010000000000000BRCMIGACNOR6208
012013092402CMIG4       010CEMIG       PN      N1   R$  000000000188800000000019280000000001878000000000190300000000019200000000001916000000000192011598000000000004969600000000009462196400000000000000009999123100000010000000000000BRCMIGACNPR3208
012013092496CMIG4F      020CEMIG       PN      N1   R$  000000000188800000000019480000000001880000000000190100000000019480000000001915000000000194800200000000000000005819000000000011068276000000000000009999123100000010000000000000BRCMIGACNPR3208
012013092462CMIG4T      030CEMIG       PN      N1016R$  000000000190200000000019040000000001902000000000190200000000019040000000000000000000000000000010000000000000001000000000000001902949000000000000009999123100000010000000000000BRCMIGACNPR3208
012013092462CMIG4T      030CEMIG       PN      N1030R$  000000000190400000000019050000000001904000000000190400000000019050000000000000000000000000000002000000000000001000000000000001904804000000000000009999123100000010000000000000BRCMIGACNPR3208
012013092478CMIGJ19     070CMIG        PN      N1000R$  000000000004800000000000630000000000046000000000005200000000000630000000000000000000000008000007000000000000001700000000000000089800000000000190002013102100000010000000000000BRCMIGACNPR3208
012013092478CMIGJ20     070CMIG        PN      N1000R$  000000000001500000000000280000000000013000000000002000000000000280000000000000000000000003000006000000000000004300000000000000089000000000000200002013102100000010000000000000BRCMIGACNPR3208
012013092412CNES11B     010FII CENESP  CI  ER  MB   R$  000000001228500000000123000000000012285000000001229300000000122850000000012110000000001230000003000000000000000046000000000000565485000000000000009999123100000010000000000000BRCNESCTF001126
012013092402COCE3       010COELCE      ON           R$  000000000417000000000041700000000004170000000000417000000000041700000000004042000000000417500002000000000000000400000000000001668000000000000000009999123100000010000000000000BRCOCEACNOR0132
012013092402COCE5       010COELCE      PNA          R$  000000000396800000000039680000000003902000000000394100000000039280000000003928000000000393200181000000000000039600000000000156091900000000000000009999123100000010000000000000BRCOCEACNPA3133
012013092496COCE5F      020COELCE      PNA          R$  000000000418500000000041850000000003900000000000394600000000039000000000003900000000000399600020000000000000000286000000000001128839000000000000009999123100000010000000000000BRCOCEACNPA3133
012013092402CPFE3       010CPFL ENERGIAON      NM   R$  000000000193200000000019450000000001927000000000193500000000019360000000001936000000000193703857000000000000865200000000001674421300000000000000009999123100000010000000000000BRCPFEACNOR0122
012013092496CPFE3F      020CPFL ENERGIAON      NM   R$  000000000191000000000019490000000001910000000000193300000000019330000000001922000000000195000033000000000000000772000000000001492599000000000000009999123100000010000000000000BRCPFEACNOR0122
012013092402CPLE3       010COPEL       ON      N1   R$  000000000219500000000021950000000002160000000000218300000000021910000000002182000000000219100127000000000000026800000000000058508800000000000000009999123100000010000000000000BRCPLEACNOR8128
012013092496CPLE3F      020COPEL       ON      N1   R$  000000000223000000000022950000000002230000000000226200000000022950000000002130000000000229500002000000000000000050000000000000113125000000000000009999123100000010000000000000BRCPLEACNOR8128
012013092402CPLE6       010COPEL       PNB     N1   R$  000000000306600000000030850000000003021000000000306700000000030730000000003066000000000307302658000000000000769700000000002360988400000000000000009999123100000010000000000000BRCPLEACNPB9125
012013092496CPLE6F      020COPEL       PNB     N1   R$  000000000298000000000031430000000002980000000000305100000000030780000000003041000000000314500028000000000000000792000000000002417424000000000000009999123100000010000000000000BRCPLEACNPB9125
012013092402CPRE3       010CPFL RENOVAVON      NM   R$  000000000127400000000012740000000001243000000000126100000000012630000000001250000000000126300014000000000000004500000000000005678400000000000000009999123100000010000000000000BRCPREACNOR5100
012013092496CPRE3F      020CPFL RENOVAVON      NM   R$  000000000123000000000012740000000001230000000000125100000000012740000000001123000000000127400007000000000000000208000000000000260250000000000000009999123100000010000000000000BRCPREACNOR5100
012013092402CRDE3       010CR2         ON      NM   R$  000000000040500000000004170000000000405000000000041100000000004110000000000411000000000042000003000000000000000300000000000000123300000000000000009999123100000010000000000000BRCRDEACNOR1108
012013092402CREM3       010CREMER      ON      NM   R$  000000000153200000000015320000000001505000000000152200000000015050000000001455000000000153100017000000000000004300000000000006548800000000000000009999123100000010000000000000BRCREMACNOR2167
012013092496CREM3F      020CREMER      ON      NM   R$  000000000151700000000015170000000001517000000000151700000000015170000000001503000000000153100001000000000000000006000000000000009102000000000000009999123100000010000000000000BRCREMACNOR2167
012013092402CRIV3       010ALFA FINANC ON           R$  000000000051100000000005110000000000511000000000051100000000005110000000000486000000000051200002000000000000000200000000000000102200000000000000009999123100000010000000000000BRCRIVACNOR4190
012013092496CRIV3F      020ALFA FINANC ON           R$  000000000050600000000005060000000000506000000000050600000000005060000000000458000000000051500001000000000000000007000000000000003542000000000000009999123100000010000000000000BRCRIVACNOR4190
012013092402CRIV4       010ALFA FINANC PN           R$  000000000043900000000004500000000000435000000000043900000000004490000000000440000000000044900015000000000000010400000000000004572700000000000000009999123100000010000000000000BRCRIVACNPR1190
012013092402CRUZ3       010SOUZA CRUZ  ON  ED       R$  000000000263000000000026500000000002602000000000261900000000026200000000002618000000000262004093000000000001122400000000002940649200000000000000009999123100000010000000000000BRCRUZACNOR0248
012013092496CRUZ3F      020SOUZA CRUZ  ON  ED       R$  000000000263000000000026800000000002610000000000262600000000026660000000002605000000000266600056000000000000001381000000000003626942000000000000009999123100000010000000000000BRCRUZACNOR0248
012013092462CRUZ3T      030SOUZA CRUZ  ON  ED    030R$  000000000263900000000026400000000002638000000000263900000000026390000000000000000000000000000004000000000000005000000000000013196335000000000000009999123100000010000000000000BRCRUZACNOR0248
012013092402CSAN3       010COSAN       ON      NM   R$  000000000420700000000043550000000004207000000000431500000000043430000000004340000000000434305636000000000001892700000000008167552200000000000000009999123100000010000000000000BRCSANACNOR6108
012013092496CSAN3F      020COSAN       ON      NM   R$  000000000412200000000043550000000004122000000000429800000000043490000000004206000000000434900062000000000000001499000000000006443991000000000000009999123100000010000000000000BRCSANACNOR6108
012013092462CSAN3T      030COSAN       ON      NM016R$  000000000431200000000043130000000004312000000000431200000000043130000000000000000000000000000004000000000000002000000000000008624928000000000000009999123100000010000000000000BRCSANACNOR6108
012013092462CSAN3T      030COSAN       ON      NM020R$  000000000430900000000043100000000004309000000000430900000000043100000000000000000000000000000002000000000000003000000000000012928762000000000000009999123100000010000000000000BRCSANACNOR6108
012013092402CSMG3       010COPASA      ON      NM   R$  000000000349000000000035190000000003446000000000348900000000034500000000003450000000000346501541000000000000572400000000001997342400000000000000009999123100000010000000000000BRCSMGACNOR5127
012013092496CSMG3F      020COPASA      ON      NM   R$  000000000343100000000035990000000003430000000000347300000000035990000000003436000000000350000028000000000000000668000000000002319994000000000000009999123100000010000000000000BRCSMGACNOR5127
012013092402CSNA3       010SID NACIONALON           R$  000000000093500000000009420000000000916000000000093000000000009360000000000935000000000093613146000000000007812700000000007269292600000000000000009999123100000010000000000000BRCSNAACNOR6243
012013092496CSNA3F      020SID NACIONALON           R$  000000000093700000000009410000000000919000000000093100000000009300000000000930000000000093500053000000000000001823000000000001697944000000000000009999123100000010000000000000BRCSNAACNOR6243
012013092462CSNA3T      030SID NACIONALON        045R$  000000000095000000000009510000000000950000000000095000000000009510000000000000000000000000000004000000000000045000000000000042782220000000000000009999123100000010000000000000BRCSNAACNOR6243
012013092462CSNA3T      030SID NACIONALON        062R$  000000000093800000000009490000000000938000000000094100000000009490000000000000000000000000000004000000000000003000000000000002825833000000000000009999123100000010000000000000BRCSNAACNOR6243
012013092478CSNAJ10     070CSNA  FM    ON        000R$  000000000001900000000000190000000000019000000000001900000000000190000000000000000000000002100002000000000000002000000000000000038000000000000100002013102100000010000000000000BRCSNAACNOR6243
012013092478CSNAJ8      070CSNA        ON        000R$  000000000015200000000001520000000000152000000000015200000000001520000000000000000000000019500001000000000000000400000000000000060800000000000078002013102100000010000000000000BRCSNAACNOR6242
012013092478CSNAJ9      070CSNA        ON        000R$  000000000007000000000000700000000000070000000000007000000000000700000000000072000000000010500002000000000000002000000000000000140000000000000088002013102100000010000000000000BRCSNAACNOR6242
012013092478CSNAJ92     070CSNA  FM    ON        000R$  000000000004800000000000550000000000048000000000005100000000000550000000000000000000000000000008000000000000007500000000000000384500000000000092002013102100000010000000000000BRCSNAACNOR6243
012013092478CSNAJ94     070CSNA  FM    ON        000R$  000000000003800000000000390000000000038000000000003800000000000390000000000030000000000005000004000000000000010400000000000000397100000000000094002013102100000010000000000000BRCSNAACNOR6243
012013092478CSNAJ98     070CSNA  FM    ON        000R$  000000000002600000000000260000000000025000000000002500000000000250000000000003000000000000000008000000000000027000000000000000686500000000000098002013102100000010000000000000BRCSNAACNOR6243
012013092478CSNAK8      070CSNA        ON        000R$  000000000016000000000001650000000000160000000000016200000000001650000000000000000000000000000002000000000000002000000000000000325000000000000078002013111800000010000000000000BRCSNAACNOR6242
012013092478CSNAK86     070CSNA        ON        000R$  000000000010500000000001100000000000105000000000010700000000001100000000000000000000000000000002000000000000002000000000000000215000000000000086002013111800000010000000000000BRCSNAACNOR6243
012013092478CSNAL16     070CSNA        ON        000R$  000000000003200000000000320000000000032000000000003200000000000320000000000000000000000005000001000000000000001000000000000000032000000000000154702013121600000010000000000000BRCSNAACNOR6241
012013092482CSNAV10     080CSNAE       ON        000R$  000000000009200000000000940000000000078000000000008400000000000800000000000079000000000009900039000000000000007300000000000000620000000000000100002013102100000010000000000000BRCSNAACNOR6243
012013092482CSNAV8      080CSNAE       ON        000R$  000000000000900000000000090000000000006000000000000600000000000060000000000006000000000000800006000000000000004300000000000000026100000000000078002013102100000010000000000000BRCSNAACNOR6242
012013092482CSNAV9      080CSNAE FM    ON        000R$  000000000003000000000000300000000000021000000000002200000000000220000000000022000000000002400042000000000000199400000000000004495600000000000088002013102100000010000000000000BRCSNAACNOR6242
012013092482CSNAV92     080CSNAE FM    ON        000R$  000000000004200000000000440000000000034000000000003900000000000350000000000000000000000000000011000000000000022000000000000000876000000000000092002013102100000010000000000000BRCSNAACNOR6243
012013092482CSNAV94     080CSNAE FM    ON        000R$  000000000005200000000000520000000000052000000000005200000000000520000000000000000000000000000001000000000000001800000000000000093600000000000094002013102100000010000000000000BRCSNAACNOR6243
012013092482CSNAV96     080CSNAE FM    ON        000R$  000000000006000000000000600000000000054000000000005600000000000540000000000000000000000000000002000000000000001500000000000000084000000000000096002013102100000010000000000000BRCSNAACNOR6243
012013092402CTAX11      010CONTAX      UNT     N2   R$  000000000189500000000019470000000001895000000000190000000000019000000000001900000000000196000087000000000000079600000000000151309200000000000000009999123100000010000000000000BRCTAXCDAM19100
012013092462CTAX11T     030CONTAX      UNT     N2084R$  000000000193900000000019400000000001939000000000193900000000019400000000000000000000000000000002000000000000047800000000000092718138000000000000009999123100000010000000000000BRCTAXCDAM19100
012013092402CTAX3       010CONTAX      ON      N2   R$  000000000038000000000003800000000000380000000000038000000000003800000000000354000000000038500003000000000000000300000000000000114000000000000000009999123100000010000000000000BRCTAXACNOR3113
012013092402CTAX4       010CONTAX      PN      N2   R$  000000000038100000000003850000000000368000000000037400000000003680000000000368000000000039100043000000000000012600000000000004720700000000000000009999123100000010000000000000BRCTAXACNPR0114
012013092402CTIP3       010CETIP       ON  EJ  NM   R$  000000000235800000000023640000000002341000000000235200000000023530000000002351000000000235304832000000000001518500000000003571748700000000000000009999123100000010000000000000BRCTIPACNOR2120
012013092496CTIP3F      020CETIP       ON  EJ  NM   R$  000000000235100000000024840000000002346000000000235700000000024840000000002341000000000248400026000000000000000740000000000001745037000000000000009999123100000010000000000000BRCTIPACNOR2120
012013092478CTIPJ53     070CTIP    /EJ ON      NM000R$  000000000006900000000000700000000000069000000000006900000000000700000000000000000000000000000004000000000000003200000000000000223800000000000234402013102100000010000000000000BRCTIPACNOR2120
012013092478CTIPJ54     070CTIP    /EJ ON      NM000R$  000000000003200000000000320000000000032000000000003200000000000320000000000000000000000000000002000000000000003300000000000000105600000000000244402013102100000010000000000000BRCTIPACNOR2119
012013092402CTKA4       010KARSTEN     PN           R$  000000000009500000000000950000000000090000000000009100000000000900000000000090000000000009500025000000000000007500000000000000684700000000000000009999123100000010000000000000BRCTKAACNPR7041
012013092402CTNM3       010COTEMINAS   ON           R$  000000000023300000000002330000000000220000000000022600000000002200000000000220000000000036000002000000000000000200000000000000045300000000000000009999123100000010000000000000BRCTNMACNOR9129
012013092402CTNM4       010COTEMINAS   PN           R$  000000000022500000000002280000000000221000000000022300000000002210000000000218000000000022700029000000000000012500000000000002797900000000000000009999123100000010000000000000BRCTNMACNPR6128
012013092496CTSA3F      020SANTANENSE  ON           R$  000000000055000000000005500000000000550000000000055000000000005500000000000533000000000060000001000000000000000005000000000000002750000000000000009999123100000010000000000000BRCTSAACNOR3051
012013092412CTXT11      010FII C TEXTILCI           R$  000000000030000000000003000000000000300000000000030000000000003000000000000290000000000000000003000000000000000003000000000000000900000000000000009999123100000010000000000000BRCTXTCTF014109
012013092402CYRE3       010CYRELA REALTON      NM   R$  000000000170400000000017280000000001682000000000171000000000017060000000001706000000000170705622000000000001474200000000002521049900000000000000009999123100000010000000000000BRCYREACNOR7125
012013092496CYRE3F      020CYRELA REALTON      NM   R$  000000000165200000000017500000000001652000000000171200000000017500000000001711000000000175000020000000000000000446000000000000763672000000000000009999123100000010000000000000BRCYREACNOR7125
012013092478CYREJ17     070CYRE  FM    ON      NM000R$  000000000005800000000000690000000000058000000000006400000000000690000000000000000000000000000003000000000000010500000000000000675500000000000170002013102100000010000000000000BRCYREACNOR7125
012013092478CYREJ18     070CYRE  FM    ON      NM000R$  000000000001700000000000230000000000016000000000001900000000000160000000000000000000000000000041000000000000096100000000000001828000000000000180002013102100000010000000000000BRCYREACNOR7125
012013092478CYREJ46     070CYRE  FM    ON      NM000R$  000000000009000000000001080000000000089000000000009700000000001080000000000000000000000000000025000000000000055400000000000005408000000000000165002013102100000010000000000000BRCYREACNOR7125
012013092478CYREJ47     070CYRE  FM    ON      NM000R$  000000000003300000000000440000000000033000000000003600000000000370000000000000000000000000000014000000000000034000000000000001255200000000000175002013102100000010000000000000BRCYREACNOR7125
012013092478CYREJ48     070CYRE  FM    ON      NM000R$  000000000000600000000000170000000000006000000000000900000000000060000000000000000000000000000107000000000000234700000000000002254600000000000185002013102100000010000000000000BRCYREACNOR7125
012013092478CYREK17     070CYRE  FM    ON      NM000R$  000000000009800000000001010000000000098000000000009900000000001010000000000000000000000000000002000000000000007000000000000000696500000000000170002013111800000010000000000000BRCYREACNOR7125
012013092478CYREK18     070CYRE  FM    ON      NM000R$  000000000004600000000000460000000000046000000000004600000000000460000000000000000000000000000001000000000000001000000000000000046000000000000180002013111800000010000000000000BRCYREACNOR7125
012013092478CYREK46     070CYRE  FM    ON      NM000R$  000000000012500000000001340000000000125000000000013000000000001340000000000000000000000000000012000000000000033000000000000004317500000000000165002013111800000010000000000000BRCYREACNOR7125
012013092478CYREK47     070CYRE  FM    ON      NM000R$  000000000007200000000000720000000000071000000000007100000000000710000000000000000000000000000002000000000000004500000000000000323000000000000175002013111800000010000000000000BRCYREACNOR7125
012013092478CYREK48     070CYRE  FM    ON      NM000R$  000000000003100000000000350000000000031000000000003300000000000330000000000000000000000000000003000000000000003000000000000000099000000000000185002013111800000010000000000000BRCYREACNOR7125
012013092482CYREV16     080CYREE FM    ON      NM000R$  000000000001500000000000200000000000012000000000001600000000000150000000000000000000000000000043000000000000081300000000000001320500000000000160002013102100000010000000000000BRCYREACNOR7125
012013092482CYREV17     080CYREE FM    ON      NM000R$  000000000004500000000000450000000000037000000000004100000000000370000000000000000000000000000007000000000000014500000000000000594800000000000170002013102100000010000000000000BRCYREACNOR7125
012013092482CYREV46     080CYREE FM    ON      NM000R$  000000000002900000000000300000000000022000000000002400000000000220000000000000000000000000000004000000000000010800000000000000265200000000000165002013102100000010000000000000BRCYREACNOR7125
012013092482CYREV47     080CYREE FM    ON      NM000R$  000000000007400000000000740000000000055000000000006400000000000570000000000000000000000000000029000000000000059400000000000003808600000000000175002013102100000010000000000000BRCYREACNOR7125
012013092482CYREW16     080CYREE FM    ON      NM000R$  000000000003100000000000310000000000031000000000003100000000000310000000000000000000000000000001000000000000001000000000000000031000000000000160002013111800000010000000000000BRCYREACNOR7125
012013092482CYREW17     080CYREE FM    ON      NM000R$  000000000006100000000000610000000000060000000000006000000000000600000000000000000000000000000004000000000000010500000000000000637000000000000170002013111800000010000000000000BRCYREACNOR7125
012013092482CYREW47     080CYREE FM    ON      NM000R$  000000000009000000000000900000000000081000000000008300000000000810000000000000000000000000000005000000000000015000000000000001248500000000000175002013111800000010000000000000BRCYREACNOR7125
012013092402CZLT33      010COSAN LTD   DR3          R$  000000000337500000000034440000000003331000000000339400000000034000000000003387000000000342000404000000000000158300000000000537294600000000000000009999123100000010000000000000BRCZLTBDR009105
012013092496CZLT33F     020COSAN LTD   DR3          R$  000000000330000000000033000000000002810000000000296800000000028100000000003200000000000360000004000000000000000066000000000000195910000000000000009999123100000010000000000000BRCZLTBDR009105
012013092402DAGB33      010DUFRY AG    DR3          R$  000000003334200000000337550000000032601000000003306200000000330500000000032900000000003305000215000000000000011551000000000381901411000000000000009999123100000010000000000000BRDAGBBDR008100
012013092402DASA3       010DASA        ON      NM   R$  000000000112300000000011700000000001119000000000115200000000011550000000001155000000000116505460000000000002308200000000002660922500000000000000009999123100000010000000000000BRDASAACNOR1108
012013092496DASA3F      020DASA        ON      NM   R$  000000000111600000000011690000000001106000000000113900000000011690000000001152000000000117400023000000000000000494000000000000562730000000000000009999123100000010000000000000BRDASAACNOR1108
012013092462DASA3T      030DASA        ON      NM016R$  000000000116700000000011680000000001167000000000116700000000011680000000000000000000000000000002000000000000002000000000000002334458000000000000009999123100000010000000000000BRDASAACNOR1108
012013092478DASAK12     070DASA        ON      NM000R$  000000000002800000000000280000000000028000000000002800000000000280000000000000000000000000000001000000000000020000000000000000560000000000000120002013111800000010000000000000BRDASAACNOR1108
012013092402DAYC4       010DAYCOVAL    PN      N2   R$  000000000085500000000008770000000000855000000000086900000000008660000000000866000000000087400115000000000000037200000000000032350900000000000000009999123100000010000000000000BRDAYCACNPR2128
012013092496DAYC4F      020DAYCOVAL    PN      N2   R$  000000000090000000000009000000000000865000000000086700000000008750000000000862000000000089900005000000000000000103000000000000089351000000000000009999123100000010000000000000BRDAYCACNPR2128
012013092402DIRR3       010DIRECIONAL  ON      NM   R$  000000000121500000000012350000000001212000000000122400000000012250000000001217000000000122503884000000000001130300000000001383795000000000000000009999123100000010000000000000BRDIRRACNOR0104
012013092496DIRR3F      020DIRECIONAL  ON      NM   R$  000000000121100000000012250000000001211000000000122100000000012210000000001213000000000136500015000000000000000509000000000000621721000000000000009999123100000010000000000000BRDIRRACNOR0104
012013092402DISB34      010WALT DISNEY DRN          R$  000000001422000000000142200000000014220000000001422000000000142200000000000000000000000000000001000000000000002000000000000028440000000000000000009999123100000010000000000000BRDISBBDR006102
012013092414DIVO11      010IT NOW IDIV CI           R$  000000000342100000000034310000000003408000000000341400000000034200000000003419000000000343100017000000000000005290000000000018062840000000000000009999123100000010000000000000BRDIVOCTF002100
012013092496DIVO11F     020IT NOW IDIV CI           R$  000000000334400000000034000000000003344000000000336600000000033480000000003348000000000340000005000000000000000015000000000000050504000000000000009999123100000010000000000000BRDIVOCTF002100
012013092402DOHL4       010DOHLER      PN           R$  000000000050400000000005040000000000504000000000050400000000005040000000000490000000000050400001000000000000000100000000000000050400000000000000009999123100000010000000000000BRDOHLACNPR9054
012013092402DTEX3       010DURATEX     ON      NM   R$  000000000129900000000013050000000001285000000000129400000000012930000000001293000000000129704500000000000001064200000000001377783700000000000000009999123100000010000000000000BRDTEXACNOR3115
012013092496DTEX3F      020DURATEX     ON      NM   R$  000000000130200000000013160000000001286000000000129900000000013160000000001287000000000131600040000000000000001251000000000001626029000000000000009999123100000010000000000000BRDTEXACNOR3115
012013092462DTEX3T      030DURATEX     ON      NM030R$  000000000130300000000013040000000001303000000000130300000000013040000000000000000000000000000002000000000000000700000000000000912412000000000000009999123100000010000000000000BRDTEXACNOR3115
012013092402EBTP3       010EMBRATEL PARON *         R$  000000000083000000000008900000000000830000000000086900000000008900000000000837000000000099500003000000000000300000000000000000260900000000000000009999123100010000000000000000BREBTPACNOR3115
012013092496EBTP3F      020EMBRATEL PARON *         R$  000000000085100000000008510000000000850000000000085000000000008500000000000832000000000090000004000000000000011574000000000000009836000000000000009999123100010000000000000000BREBTPACNOR3115
012013092402EBTP4       010EMBRATEL PARPN *         R$  000000000088000000000009000000000000850000000000086000000000009000000000000858000000000089900008000000000002700000000000000002322000000000000000009999123100010000000000000000BREBTPACNPR0120
012013092496EBTP4F      020EMBRATEL PARPN *         R$  000000000087300000000008730000000000873000000000087300000000008730000000000874000000000093200002000000000000019346000000000000016888000000000000009999123100010000000000000000BREBTPACNPR0120
012013092414ECOO11      010ISHARES ECOOCI           R$  000000000557000000000055700000000005500000000000555000000000055000000000005500000000000555000017000000000000004980000000000027643280000000000000009999123100000010000000000000BRECOOCTF008100
012013092402ECOR3       010ECORODOVIAS ON      NM   R$  000000000156400000000015740000000001552000000000156200000000015640000000001564000000000156703268000000000000946000000000001478310800000000000000009999123100000010000000000000BRECORACNOR8106
012013092496ECOR3F      020ECORODOVIAS ON      NM   R$  000000000156900000000016090000000001551000000000156600000000016090000000001551000000000160900014000000000000000438000000000000686037000000000000009999123100000010000000000000BRECORACNOR8106
012013092412EDFO11B     010FII OURINVESCI      MB   R$  000000002250000000000225000000000022500000000002250000000000225000000000021603000000002250000002000000000000000004000000000000090000000000000000009999123100000010000000000000BREDFOCTF004193
012013092412EDGA11B     010FII GALERIA CI  ER  MB   R$  000000000768000000000076800000000007600000000000762900000000076500000000007600000000000765000038000000000000003375000000000025747950000000000000009999123100000010000000000000BREDGACTF001112
012013092402EEEL4       010CEEE-GT     PN      N1   R$  000000000016800000000001680000000000168000000000016800000000001680000000000153000000000016800001000000000000000100000000000000016800000000000000009999123100000010000000000000BREEELACNPR5102
012013092402ELET3       010ELETROBRAS  ON      N1   R$  000000000062800000000006310000000000620000000000062300000000006200000000000620000000000062505058000000000002211600000000001378004300000000000000009999123100000010000000000000BRELETACNOR6151
012013092496ELET3F      020ELETROBRAS  ON      N1   R$  000000000062800000000006400000000000621000000000062600000000006220000000000620000000000063000045000000000000001184000000000000741224000000000000009999123100000010000000000000BRELETACNOR6151
012013092462ELET3T      030ELETROBRAS  ON      N1090R$  000000000063900000000006440000000000639000000000064200000000006410000000000000000000000000000014000000000000052000000000000033422255000000000000009999123100000010000000000000BRELETACNOR6151
012013092462ELET3T      030ELETROBRAS  ON      N1120R$  000000000064500000000006460000000000641000000000064500000000006420000000000000000000000000000004000000000000020800000000000013418493000000000000009999123100000010000000000000BRELETACNOR6151
