00COTAHIST.2013BOVESPA 20130815                                                                                                                                                                                                                      
012013081502AAPL11B     010APPLE       DRN ED  MB   R$  000000001161000000000116100000000011610000000001161000000000116100000000011570000000001171000001000000000000012000000000000139320000000000000000009999123100000010000000000000BRAAPLBDR004105
012013081502ABCB4       010ABC BRASIL  PN      N2   R$  000000000120700000000012070000000001193000000000119900000000012010000000001201000000000120900206000000000000163400000000000196064300000000000000009999123100000010000000000000BRABCBACNPR4120
012013081596ABCB4F      020ABC BRASIL  PN      N2   R$  000000000121000000000012200000000001151000000000119600000000012200000000001198000000000129600018000000000000000091000000000000108874000000000000009999123100000010000000000000BRABCBACNPR4120
012013081512ABCP11      010FII ABC IMOBCI           R$  000000000092000000000009260000000000920000000000092100000000009200000000000920000000000094000004000000000000001022000000000000941850000000000000009999123100000010000000000000BRABCPCTF000214
012013081502ABRE11      010ABRIL EDUCA UNT     N2   R$  000000000310700000000031340000000002980000000000302600000000030000000000002980000000000300001207000000000001293400000000003914333500000000000000009999123100000010000000000000BRABRECDAM15102
012013081596ABRE11F     020ABRIL EDUCA UNT     N2   R$  000000000307100000000030710000000002971000000000299900000000029930000000002993000000000301000032000000000000000333000000000000998690000000000000009999123100000010000000000000BRABRECDAM15102
012013081562ABRE11T     030ABRIL EDUCA UNT     N2060R$  000000000311900000000031200000000003119000000000311900000000031200000000000000000000000000000002000000000000001000000000000003119335000000000000009999123100000010000000000000BRABRECDAM15102
012013081502AEDU3       010ANHANGUERA  ON      NM   R$  000000000135800000000013650000000001333000000000134600000000013600000000001358000000000136007145000000000002926800000000003941696900000000000000009999123100000010000000000000BRAEDUACNOR9107
012013081596AEDU3F      020ANHANGUERA  ON      NM   R$  000000000134500000000013910000000001322000000000133900000000013330000000001355000000000136800046000000000000000775000000000001038948000000000000009999123100000010000000000000BRAEDUACNOR9107
012013081512AEFI11      010FII AESAPAR CI           R$  000000001253900000000125400000000012435000000001245400000000124400000000012435000000001250000045000000000000003232000000000040254479000000000000009999123100000010000000000000BRAEFICTF002120
012013081502AELP3       010AES ELPA    ON           R$  000000000080000000000008000000000000780000000000079800000000007990000000000770000000000079800003000000000000017200000000000013741000000000000000009999123100000010000000000000BRAELPACNOR2119
012013081512AGCX11      010FII AG CAIXACI           R$  000000009900100000000995000000000099001000000009909400000000992000000000099200000000009940000006000000000000000052000000000005152925000000000000009999123100000010000000000000BRAGCXCTF003109
012013081502AGRO3       010BRASILAGRO  ON      NM   R$  000000000102400000000010310000000000995000000000101000000000010000000000001000000000000104800193000000000000083700000000000084605700000000000000009999123100000010000000000000BRAGROACNOR7102
012013081562AGRO3T      030BRASILAGRO  ON      NM060R$  000000000103300000000010340000000001013000000000102300000000010140000000000000000000000000000005000000000000029900000000000030605718000000000000009999123100000010000000000000BRAGROACNOR7102
012013081502ALLL3       010ALL AMER LATON      NM   R$  000000000094700000000009540000000000919000000000093200000000009330000000000932000000000093310490000000000004623200000000004311684600000000000000009999123100000010000000000000BRALLLACNOR6118
012013081596ALLL3F      020ALL AMER LATON      NM   R$  000000000094900000000009490000000000911000000000093800000000009340000000000934000000000094100030000000000000000790000000000000741374000000000000009999123100000010000000000000BRALLLACNOR6118
012013081512ALMI11B     010FII TORRE ALCI      MB   R$  000000031690000000003174900000000306600000000031252600000003071000000000307100000000030999500023000000000000000104000000000032502806000000000000009999123100000010000000000000BRALMICTF003204
012013081502ALPA3       010ALPARGATAS  ON      N1   R$  000000000122100000000012210000000001193000000000121000000000011930000000001192000000000125500010000000000000003000000000000003632600000000000000009999123100000010000000000000BRALPAACNOR0202
012013081596ALPA3F      020ALPARGATAS  ON      N1   R$  000000000123500000000012350000000001235000000000123500000000012350000000001152000000000125000003000000000000000056000000000000069160000000000000009999123100000010000000000000BRALPAACNOR0202
012013081502ALPA4       010ALPARGATAS  PN      N1   R$  000000000135100000000013620000000001318000000000134400000000013550000000001346000000000135601299000000000000288400000000000387828500000000000000009999123100000010000000000000BRALPAACNPR7202
012013081596ALPA4F      020ALPARGATAS  PN      N1   R$  000000000135500000000013790000000001325000000000134800000000013400000000001339000000000140000032000000000000000541000000000000729358000000000000009999123100000010000000000000BRALPAACNPR7202
012013081502ALSC3       010ALIANSCE    ON      NM   R$  000000000199000000000020080000000001962000000000198000000000019620000000001962000000000197001225000000000000187300000000000370879200000000000000009999123100000010000000000000BRALSCACNOR0104
012013081596ALSC3F      020ALIANSCE    ON      NM   R$  000000000205000000000020500000000001979000000000198300000000019790000000001910000000000200000005000000000000000110000000000000218181000000000000009999123100000010000000000000BRALSCACNOR0104
012013081502ALUP11      010ALUPAR      UNT     N2   R$  000000000169900000000017150000000001646000000000168800000000016910000000001678000000000175500256000000000000645400000000001089923400000000000000009999123100000010000000000000BRALUPCDAM15100
012013081596ALUP11F     020ALUPAR      UNT     N2   R$  000000000154400000000016910000000001544000000000165500000000016870000000001662000000000179800021000000000000000414000000000000685440000000000000009999123100000010000000000000BRALUPCDAM15100
012013081562ALUP11T     030ALUPAR      UNT     N2060R$  000000000170600000000017070000000001706000000000170600000000017070000000000000000000000000000002000000000000006600000000000011262082000000000000009999123100000010000000000000BRALUPCDAM15100
012013081502AMAR3       010LOJAS MARISAON      NM   R$  000000000206100000000020780000000002024000000000204200000000020500000000002050000000000205401276000000000000391400000000000799605200000000000000009999123100000010000000000000BRAMARACNOR4109
012013081502AMBV3       010AMBEV       ON           R$  000000000850200000000087170000000008441000000000866600000000086650000000008665000000000868400979000000000000247800000000002147503000000000000000009999123100000010000000000000BRAMBVACNOR4153
012013081596AMBV3F      020AMBEV       ON           R$  000000000855000000000087470000000008445000000000866500000000086710000000008680000000000871400025000000000000000697000000000006040845000000000000009999123100000010000000000000BRAMBVACNOR4153
012013081562AMBV3T      030AMBEV       ON        032R$  000000000854600000000085470000000008546000000000854600000000085470000000000000000000000000000002000000000000001500000000000012820411000000000000009999123100000010000000000000BRAMBVACNOR4153
012013081502AMBV4       010AMBEV       PN           R$  000000000851200000000087300000000008440000000000864500000000086210000000008621000000000865510139000000000002505400000000021659584500000000000000009999123100000010000000000000BRAMBVACNPR1153
012013081596AMBV4F      020AMBEV       PN           R$  000000000856000000000087250000000008468000000000865300000000087090000000008700000000000870900193000000000000004381000000000037911087000000000000009999123100000010000000000000BRAMBVACNPR1153
012013081578AMBVH85     070AMBV        PN        000R$  000000000016500000000001650000000000150000000000016100000000001500000000000150000000000000000003000000000000000400000000000000064500000000000850002013081900000010000000000000BRAMBVACNPR1153
012013081578AMBVH86     070AMBV        PN        000R$  000000000006700000000000670000000000067000000000006700000000000670000000000070000000000000000001000000000000000300000000000000020100000000000860002013081900000010000000000000BRAMBVACNPR1153
012013081578AMBVI86     070AMBV        PN        000R$  000000000020000000000002000000000000180000000000019000000000001900000000000000000000000000000003000000000000000500000000000000095000000000000860002013091600000010000000000000BRAMBVACNPR1153
012013081578AMBVI87     070AMBV        PN        000R$  000000000019900000000001990000000000199000000000019900000000001990000000000099000000000019900003000000000000001000000000000000199000000000000870002013091600000010000000000000BRAMBVACNPR1153
012013081578AMBVI88     070AMBV        PN        000R$  000000000011000000000001100000000000110000000000011000000000001100000000000110000000000015100001000000000000000200000000000000022000000000000880002013091600000010000000000000BRAMBVACNPR1153
012013081502ARMT11B     010ARCELOR     DRN     MB   R$  000000000162800000000016280000000001628000000000162800000000016280000000001605000000000164000001000000000000001000000000000001628000000000000000009999123100000010000000000000BRARMTBDR008111
012013081502ARTR3       010ARTERIS     ON      NM   R$  000000000223600000000022890000000002212000000000224500000000022520000000002252000000000226901722000000000001450600000000003257300100000000000000009999123100000010000000000000BRARTRACNOR3101
012013081596ARTR3F      020ARTERIS     ON      NM   R$  000000000223500000000022720000000002231000000000224700000000022720000000002230000000000227200029000000000000000847000000000001903528000000000000009999123100000010000000000000BRARTRACNOR3101
012013081502ARZZ3       010AREZZO CO   ON      NM   R$  000000000374600000000037470000000003616000000000366200000000036170000000003617000000000367400342000000000000063300000000000231806200000000000000009999123100000010000000000000BRARZZACNOR3109
012013081596ARZZ3F      020AREZZO CO   ON      NM   R$  000000000372000000000037420000000003632000000000367500000000036320000000003632000000000397300009000000000000000132000000000000485124000000000000009999123100000010000000000000BRARZZACNOR3109
012013081502AUTM3       010AUTOMETAL   ON      NM   R$  000000000184300000000018450000000001781000000000182000000000018450000000001845000000000184600527000000000000128100000000000233244200000000000000009999123100000010000000000000BRAUTMACNOR8109
012013081596AUTM3F      020AUTOMETAL   ON      NM   R$  000000000183300000000018470000000001830000000000183700000000018470000000001690000000000184700005000000000000000029000000000000053280000000000000009999123100000010000000000000BRAUTMACNOR8109
012013081502AZEV4       010AZEVEDO     PN           R$  000000000016400000000001640000000000164000000000016400000000001640000000000155000000000016500001000000000000000200000000000000032800000000000000009999123100000010000000000000BRAZEVACNPR7113
012013081502BAHI3       010BAHEMA      ON           R$  000000000049500000000004950000000000480000000000048200000000004800000000000477000000000049000006000000000000001600000000000000772500000000000000009999123100000010000000000000BRBAHIACNOR1066
012013081502BAUH4       010EXCELSIOR   PN           R$  000000000087500000000008990000000000850000000000087600000000008990000000000850000000000094800006000000000000001400000000000001226800000000000000009999123100000010000000000000BRBAUHACNPR3108
012013081502BAZA3       010AMAZONIA    ON           R$  000000000003400000000000340000000000034000000000003400000000000340000000000033000000000003400001000000000000001000000000000000034000000000000000009999123100000010000000000000BRBAZAACNOR0163
012013081502BBAS3       010BRASIL      ON      NM   R$  000000000232800000000023560000000002293000000000231400000000023200000000002319000000000232017148000000000011229000000000025989003400000000000000009999123100000010000000000000BRBBASACNOR3237
012013081596BBAS3F      020BRASIL      ON      NM   R$  000000000234200000000023520000000002294000000000231600000000023290000000002325000000000232900357000000000000010401000000000024096750000000000000009999123100000010000000000000BRBBASACNOR3237
012013081562BBAS3T      030BRASIL      ON      NM028R$  000000000233600000000023370000000002336000000000233600000000023370000000000000000000000000000002000000000000060000000000000140216160000000000000009999123100000010000000000000BRBBASACNOR3237
012013081562BBAS3T      030BRASIL      ON      NM032R$  000000000234300000000023440000000002326000000000234200000000023270000000000000000000000000000004000000000000005300000000000012413476000000000000009999123100000010000000000000BRBBASACNOR3237
012013081578BBASH18     070BBAS        ON      NM000R$  000000000050700000000005090000000000507000000000050700000000005090000000000000000000000000000003000000000000002400000000000001218400000000000180002013081900000010000000000000BRBBASACNOR3237
012013081578BBASH20     070BBAS        ON      NM000R$  000000000030900000000003480000000000309000000000032700000000003480000000000000000000000036000013000000000000009500000000000003109000000000000200002013081900000010000000000000BRBBASACNOR3237
012013081578BBASH21     070BBAS        ON      NM000R$  000000000024900000000002670000000000230000000000024700000000002670000000000200000000000029500011000000000000012500000000000003088600000000000207602013081900000010000000000000BRBBASACNOR3236
012013081578BBASH22     070BBAS        ON      NM000R$  000000000012600000000001330000000000126000000000012900000000001290000000000000000000000000000036000000000000021000000000000002724900000000000217602013081900000010000000000000BRBBASACNOR3236
012013081578BBASH23     070BBAS        ON      NM000R$  000000000005500000000000780000000000038000000000005100000000000620000000000048000000000007400073000000000000157000000000000008111400000000000227602013081900000010000000000000BRBBASACNOR3236
012013081578BBASH24     070BBAS        ON      NM000R$  000000000002900000000000430000000000017000000000002300000000000360000000000022000000000004900088000000000000157800000000000003711100000000000231702013081900000010000000000000BRBBASACNOR3233
012013081578BBASH25     070BBAS        ON      NM000R$  000000000000300000000000040000000000001000000000000200000000000040000000000003000000000000400019000000000000034000000000000000087000000000000241702013081900000010000000000000BRBBASACNOR3233
012013081578BBASH26     070BBAS        ON      NM000R$  000000000000100000000000010000000000001000000000000100000000000010000000000000000000000000100002000000000000011700000000000000011700000000000256602013081900000010000000000000BRBBASACNOR3235
012013081578BBASH27     070BBAS        ON      NM000R$  000000000000100000000000010000000000001000000000000100000000000010000000000000000000000000100001000000000000001000000000000000001000000000000266602013081900000010000000000000BRBBASACNOR3235
012013081578BBASI21     070BBAS        ON      NM000R$  000000000022800000000002700000000000228000000000025700000000002630000000000000000000000000000007000000000000001800000000000000463400000000000210002013091600000010000000000000BRBBASACNOR3237
012013081578BBASI22     070BBAS  FM    ON      NM000R$  000000000018400000000002120000000000167000000000019000000000001960000000000000000000000031500134000000000000168500000000000032081500000000000217602013091600000010000000000000BRBBASACNOR3236
012013081578BBASI23     070BBAS  FM    ON      NM000R$  000000000011000000000001350000000000100000000000011500000000001170000000000095000000000013200048000000000000090600000000000010488900000000000227602013091600000010000000000000BRBBASACNOR3236
012013081578BBASI24     070BBAS  FM    ON      NM000R$  000000000005900000000000750000000000050000000000005800000000000750000000000055000000000007000064000000000000124000000000000007218400000000000237602013091600000010000000000000BRBBASACNOR3236
012013081578BBASI25     070BBAS  FM    ON      NM000R$  000000000002800000000000380000000000024000000000003000000000000380000000000024000000000005100036000000000000058900000000000001774000000000000246602013091600000010000000000000BRBBASACNOR3235
012013081578BBASI26     070BBAS  FM    ON      NM000R$  000000000001300000000000130000000000012000000000001200000000000120000000000011000000000002000028000000000000017600000000000000218800000000000256602013091600000010000000000000BRBBASACNOR3235
012013081578BBASI27     070BBAS        ON      NM000R$  000000000000600000000000070000000000006000000000000600000000000070000000000005000000000009800003000000000000001800000000000000011700000000000267602013091600000010000000000000BRBBASACNOR3236
012013081578BBASJ22     070BBAS  FM    ON      NM000R$  000000000020600000000002230000000000190000000000020400000000002170000000000000000000000000000070000000000000084400000000000017289800000000000220002013102100000010000000000000BRBBASACNOR3237
012013081578BBASJ23     070BBAS  FM    ON      NM000R$  000000000016200000000001840000000000150000000000016800000000001740000000000000000000000000000039000000000000068200000000000011478200000000000226602013102100000010000000000000BRBBASACNOR3235
012013081578BBASJ24     070BBAS  FM    ON      NM000R$  000000000009400000000001130000000000090000000000009100000000001120000000000017000000000000000031000000000000436800000000000039823400000000000237602013102100000010000000000000BRBBASACNOR3236
012013081578BBASJ25     070BBAS  FM    ON      NM000R$  000000000005500000000000600000000000049000000000005500000000000600000000000041000000000006700007000000000000007900000000000000441700000000000250002013102100000010000000000000BRBBASACNOR3237
012013081578BBASJ26     070BBAS  FM    ON      NM000R$  000000000003700000000000430000000000037000000000004100000000000420000000000017000000000004900006000000000000008000000000000000334000000000000256602013102100000010000000000000BRBBASACNOR3235
012013081578BBASJ27     070BBAS        ON      NM000R$  000000000002200000000000220000000000022000000000002200000000000220000000000007000000000006800001000000000000001000000000000000022000000000000266602013102100000010000000000000BRBBASACNOR3235
012013081578BBASJ53     070BBAS        ON      NM000R$  000000000012600000000001360000000000126000000000013100000000001360000000000000000000000000000002000000000000010000000000000001310000000000000231602013102100000010000000000000BRBBASACNOR3235
012013081578BBASK24     070BBAS        ON      NM000R$  000000000010600000000001060000000000106000000000010600000000001060000000000000000000000000000001000000000000000200000000000000021200000000000240002013111800000010000000000000BRBBASACNOR3237
012013081578BBASK27     070BBAS        ON      NM000R$  000000000002500000000000250000000000025000000000002500000000000250000000000007000000000000000002000000000000001100000000000000027500000000000267602013111800000010000000000000BRBBASACNOR3236
012013081578BBASL24     070BBAS        ON      NM000R$  000000000011800000000001380000000000118000000000012300000000001350000000000000000000000035000007000000000000008500000000000001050600000000000240002013121600000010000000000000BRBBASACNOR3237
012013081578BBASL25     070BBAS        ON      NM000R$  000000000009400000000000940000000000094000000000009400000000000940000000000000000000000000000002000000000000005000000000000000470000000000000246602013121600000010000000000000BRBBASACNOR3235
012013081582BBAST20     080BBASE       ON      NM000R$  000000000000100000000000010000000000001000000000000100000000000010000000000000000000000000000001000000000000000100000000000000000100000000000200002013081900000010000000000000BRBBASACNOR3237
012013081582BBAST21     080BBASE       ON      NM000R$  000000000000100000000000010000000000001000000000000100000000000010000000000000000000000000400001000000000000001000000000000000001000000000000207602013081900000010000000000000BRBBASACNOR3236
012013081582BBAST22     080BBASE       ON      NM000R$  000000000000100000000000030000000000001000000000000200000000000030000000000000000000000000200003000000000000002000000000000000004000000000000217602013081900000010000000000000BRBBASACNOR3236
012013081582BBAST23     080BBASE       ON      NM000R$  000000000000900000000000190000000000009000000000001100000000000190000000000001000000000000000012000000000000016400000000000000183500000000000227602013081900000010000000000000BRBBASACNOR3236
012013081582BBAST24     080BBASE       ON      NM000R$  000000000002100000000000310000000000008000000000002000000000000100000000000000000000000000000022000000000000047000000000000000967400000000000231702013081900000010000000000000BRBBASACNOR3233
012013081582BBAST25     080BBASE       ON      NM000R$  000000000011500000000001150000000000115000000000011500000000001150000000000000000000000000000001000000000000003000000000000000345000000000000241702013081900000010000000000000BRBBASACNOR3233
012013081582BBASU20     080BBASE       ON      NM000R$  000000000000700000000000070000000000007000000000000700000000000070000000000004000000000000900001000000000000000100000000000000000700000000000200002013091600000010000000000000BRBBASACNOR3237
012013081582BBASU22     080BBASE FM    ON      NM000R$  000000000003300000000000330000000000024000000000002700000000000240000000000019000000000003400007000000000000008900000000000000242200000000000217602013091600000010000000000000BRBBASACNOR3236
012013081582BBASU23     080BBASE FM    ON      NM000R$  000000000006000000000000610000000000047000000000005400000000000490000000000040000000000007200022000000000000039900000000000002183600000000000227602013091600000010000000000000BRBBASACNOR3236
012013081582BBASU24     080BBASE FM    ON      NM000R$  000000000010000000000001110000000000083000000000009700000000000830000000000066000000000000000025000000000000044200000000000004300200000000000237602013091600000010000000000000BRBBASACNOR3236
012013081582BBASV21     080BBASE FM    ON      NM000R$  000000000003100000000000310000000000031000000000003100000000000310000000000000000000000005200001000000000000000700000000000000021700000000000210002013102100000010000000000000BRBBASACNOR3237
012013081582BBASV22     080BBASE FM    ON      NM000R$  000000000005800000000000630000000000051000000000005400000000000520000000000047000000000000000013000000000000011600000000000000632500000000000220002013102100000010000000000000BRBBASACNOR3237
012013081582BBASV23     080BBASE FM    ON      NM000R$  000000000007700000000000830000000000070000000000007400000000000720000000000000000000000000000015000000000000026100000000000001949300000000000226602013102100000010000000000000BRBBASACNOR3235
012013081582BBASV24     080BBASE FM    ON      NM000R$  000000000012500000000001340000000000109000000000012300000000001090000000000000000000000000000021000000000000034600000000000004277000000000000237602013102100000010000000000000BRBBASACNOR3236
012013081502BBDC3       010BRADESCO    ON      N1   R$  000000000314500000000032050000000003102000000000314300000000031360000000003136000000000315004279000000000001220000000000003835013800000000000000009999123100000010000000000000BRBBDCACNOR1605
012013081596BBDC3F      020BRADESCO    ON      N1   R$  000000000315200000000032220000000003101000000000314500000000031450000000003122000000000322400029000000000000000702000000000002208277000000000000009999123100000010000000000000BRBBDCACNOR1605
012013081502BBDC4       010BRADESCO    PN      N1   R$  000000000288500000000029250000000002848000000000288000000000028770000000002877000000000288025426000000000011380500000000032786877100000000000000009999123100000010000000000000BRBBDCACNPR8605
012013081596BBDC4F      020BRADESCO    PN      N1   R$  000000000289900000000029240000000002841000000000288000000000028950000000002881000000000290900308000000000000007711000000000022215391000000000000009999123100000010000000000000BRBBDCACNPR8605
012013081562BBDC4T      030BRADESCO    PN      N1032R$  000000000289200000000028930000000002892000000000289200000000028930000000000000000000000000000004000000000000000400000000000001156956000000000000009999123100000010000000000000BRBBDCACNPR8605
012013081562BBDC4T      030BRADESCO    PN      N1060R$  000000000291300000000029140000000002913000000000291300000000029140000000000000000000000000000002000000000000007500000000000021851437000000000000009999123100000010000000000000BRBBDCACNPR8605
012013081562BBDC4T      030BRADESCO    PN      N1090R$  000000000291000000000029110000000002910000000000291000000000029110000000000000000000000000000002000000000000002000000000000005820691000000000000009999123100000010000000000000BRBBDCACNPR8605
012013081562BBDC4T      030BRADESCO    PN      N1152R$  000000000298700000000029880000000002987000000000298700000000029880000000000000000000000000000002000000000000009200000000000027482140000000000000009999123100000010000000000000BRBBDCACNPR8605
012013081578BBDCC97     070BBDC        ON      N1000R$  000000000011200000000001120000000000112000000000011200000000001120000000000000000000000000000002000000000000245000000000000027440000000000000370002014031700000010000000000000BRBBDCACNOR1605
012013081578BBDCH26     070BBDC        PN      N1000R$  000000000029000000000003260000000000290000000000030800000000003090000000000000000000000000000005000000000000015000000000000004625000000000000257802013081900000010000000000000BRBBDCACNPR8602
012013081578BBDCH27     070BBDC        PN      N1000R$  000000000020500000000002050000000000190000000000020100000000001900000000000000000000000000000005000000000000010300000000000002072000000000000267802013081900000010000000000000BRBBDCACNPR8602
012013081578BBDCH28     070BBDC        PN      N1000R$  000000000011500000000001490000000000081000000000010600000000001300000000000035000000000013500066000000000000044800000000000004779500000000000277802013081900000010000000000000BRBBDCACNPR8602
012013081578BBDCH29     070BBDC        PN      N1000R$  000000000002900000000000590000000000020000000000003800000000000410000000000036000000000004100142000000000000219800000000000008377700000000000287802013081900000010000000000000BRBBDCACNPR8602
012013081578BBDCH30     070BBDC        PN      N1000R$  000000000000700000000000100000000000004000000000000500000000000060000000000002000000000001200066000000000000022200000000000000132200000000000297802013081900000010000000000000BRBBDCACNPR8602
012013081578BBDCH32     070BBDC        PN      N1000R$  000000000000100000000000010000000000001000000000000100000000000010000000000000000000000000100001000000000000001000000000000000001000000000000317802013081900000010000000000000BRBBDCACNPR8602
012013081578BBDCI27     070BBDC        PN      N1000R$  000000000022800000000002690000000000224000000000024000000000002690000000000202000000000029800011000000000000016700000000000004016100000000000267802013091600000010000000000000BRBBDCACNPR8602
012013081578BBDCI28     070BBDC        PN      N1000R$  000000000015700000000001940000000000140000000000015700000000001640000000000142000000000019700144000000000000172200000000000027123200000000000277802013091600000010000000000000BRBBDCACNPR8602
012013081578BBDCI29     070BBDC        PN      N1000R$  000000000010500000000001240000000000082000000000009500000000000990000000000095000000000012300132000000000000116500000000000011140800000000000287802013091600000010000000000000BRBBDCACNPR8602
012013081578BBDCI30     070BBDC        PN      N1000R$  000000000005200000000000680000000000041000000000005000000000000550000000000052000000000006000074000000000000075700000000000003855300000000000297802013091600000010000000000000BRBBDCACNPR8602
012013081578BBDCI31     070BBDC        PN      N1000R$  000000000019600000000002070000000000196000000000020000000000001980000000000000000000000000000036000000000000020500000000000004117100000000000272902013091600000010000000000000BRBBDCACNPR8590
012013081578BBDCI32     070BBDC        PN      N1000R$  000000000001100000000000120000000000011000000000001100000000000120000000000010000000000001200003000000000000008800000000000000100100000000000317802013091600000010000000000000BRBBDCACNPR8602
012013081578BBDCI33     070BBDC        PN      N1000R$  000000000004700000000000470000000000045000000000004600000000000450000000000000000000000000000004000000000000007000000000000000328200000000000297202013091600000010000000000000BRBBDCACNPR8598
012013081578BBDCI34     070BBDC        PN      N1000R$  000000000000300000000000030000000000003000000000000300000000000030000000000002000000000000000001000000000000003000000000000000009000000000000337802013091600000010000000000000BRBBDCACNPR8602
012013081578BBDCI75     070BBDCE       PN      N1000R$  000000000013700000000001370000000000137000000000013700000000001370000000000000000000000000000001000000000000004300000000000000589100000000000282302013091600000010000000000000BRBBDCACNPR8604
012013081578BBDCI81     070BBDC        PN      N1000R$  000000000002100000000000320000000000018000000000002500000000000230000000000016000000000002700141000000000000119300000000000003096200000000000307802013091600000010000000000000BRBBDCACNPR8602
012013081578BBDCJ29     070BBDC        PN      N1000R$  000000000015400000000001780000000000144000000000015500000000001580000000000000000000000018000066000000000000069900000000000010862400000000000287802013102100000010000000000000BRBBDCACNPR8602
012013081578BBDCJ30     070BBDC        PN      N1000R$  000000000009900000000001200000000000097000000000010600000000001110000000000000000000000000000008000000000000014600000000000001559000000000000297802013102100000010000000000000BRBBDCACNPR8602
012013081578BBDCJ31     070BBDC        PN      N1000R$  000000000006600000000000830000000000065000000000006900000000000680000000000065000000000000000010000000000000016200000000000001128600000000000307802013102100000010000000000000BRBBDCACNPR8602
012013081578BBDCJ32     070BBDC        PN      N1000R$  000000000003800000000000440000000000036000000000003900000000000430000000000000000000000000000006000000000000017500000000000000686200000000000317802013102100000010000000000000BRBBDCACNPR8602
012013081578BBDCJ58     070BBDC        PN      N1000R$  000000000020600000000002340000000000184000000000020500000000002040000000000000000000000000000045000000000000079000000000000016200800000000000280002013102100000010000000000000BRBBDCACNPR8605
012013081578BBDCK30     070BBDC        PN      N1000R$  000000000011500000000001220000000000115000000000011500000000001220000000000120000000000000000003000000000000003100000000000000357200000000000300002013111800000010000000000000BRBBDCACNPR8605
012013081578BBDCK33     070BBDC        PN      N1000R$  000000000003600000000000380000000000035000000000003700000000000380000000000000000000000000000007000000000000156800000000000005939200000000000327802013111800000010000000000000BRBBDCACNPR8602
012013081582BBDCO89     080BBDCE       ON      N1000R$  000000000008800000000000880000000000088000000000008800000000000880000000000000000000000000000002000000000000250000000000000022000000000000000290002014031700000010000000000000BRBBDCACNOR1605
012013081582BBDCO92     080BBDCE       ON      N1000R$  000000000020000000000002000000000000200000000000020000000000002000000000000000000000000000000002000000000000245000000000000049000000000000000320002014031700000010000000000000BRBBDCACNOR1605
012013081582BBDCT27     080BBDCE       PN      N1000R$  000000000000300000000000030000000000003000000000000300000000000030000000000001000000000000200001000000000000000500000000000000001500000000000267802013081900000010000000000000BRBBDCACNPR8602
012013081582BBDCT28     080BBDCE       PN      N1000R$  000000000000900000000000090000000000005000000000000500000000000050000000000000000000000000000009000000000000017600000000000000093200000000000277802013081900000010000000000000BRBBDCACNPR8602
012013081582BBDCT29     080BBDCE       PN      N1000R$  000000000003800000000000380000000000012000000000002300000000000190000000000000000000000000000009000000000000008700000000000000206000000000000287802013081900000010000000000000BRBBDCACNPR8602
012013081582BBDCT30     080BBDCE       PN      N1000R$  000000000012000000000001200000000000120000000000012000000000001200000000000000000000000000000001000000000000000200000000000000024000000000000297802013081900000010000000000000BRBBDCACNPR8602
012013081582BBDCT32     080BBDCE       PN      N1000R$  000000000030000000000003000000000000300000000000030000000000003000000000000000000000000000000002000000000000030000000000000009000000000000000317802013081900000010000000000000BRBBDCACNPR8602
012013081582BBDCU26     080BBDCE       PN      N1000R$  000000000001700000000000170000000000017000000000001700000000000170000000000008000000000000000001000000000000000100000000000000001700000000000259802013091600000010000000000000BRBBDCACNPR8604
012013081582BBDCU27     080BBDCE       PN      N1000R$  000000000002400000000000270000000000019000000000002400000000000210000000000016000000000002400044000000000000061000000000000001505000000000000267802013091600000010000000000000BRBBDCACNPR8602
012013081582BBDCU28     080BBDCE       PN      N1000R$  000000000004500000000000510000000000037000000000004400000000000370000000000000000000000005000016000000000000038900000000000001725800000000000277802013091600000010000000000000BRBBDCACNPR8602
012013081582BBDCU29     080BBDCE       PN      N1000R$  000000000008100000000000900000000000063000000000007800000000000730000000000000000000000000000015000000000000025300000000000001976900000000000287802013091600000010000000000000BRBBDCACNPR8602
012013081582BBDCU30     080BBDCE       PN      N1000R$  000000000013500000000001460000000000105000000000012900000000001250000000000000000000000013900067000000000000116300000000000015099300000000000297802013091600000010000000000000BRBBDCACNPR8602
012013081582BBDCU32     080BBDCE       PN      N1000R$  000000000028400000000002840000000000261000000000028300000000002610000000000000000000000000000005000000000000030300000000000008602900000000000317802013091600000010000000000000BRBBDCACNPR8602
012013081582BBDCU33     080BBDCE       PN      N1000R$  000000000012200000000001220000000000122000000000012200000000001220000000000000000000000000000001000000000000001200000000000000146400000000000297202013091600000010000000000000BRBBDCACNPR8598
012013081582BBDCU75     080BBDCE       PN      N1000R$  000000000005700000000000570000000000057000000000005700000000000570000000000000000000000000000001000000000000001200000000000000068400000000000282302013091600000010000000000000BRBBDCACNPR8604
012013081582BBDCV21     080BBDCE       PN      N1000R$  000000000000600000000000060000000000005000000000000500000000000050000000000000000000000000000002000000000000150000000000000000757400000000000210002013102100000010000000000000BRBBDCACNPR8605
012013081582BBDCV26     080BBDCE       PN      N1000R$  000000000003000000000000300000000000030000000000003000000000000300000000000000000000000000000001000000000000150000000000000004500000000000000259802013102100000010000000000000BRBBDCACNPR8604
012013081582BBDCV27     080BBDCE       PN      N1000R$  000000000005800000000000580000000000057000000000005700000000000570000000000000000000000000000002000000000000400000000000000022880000000000000267802013102100000010000000000000BRBBDCACNPR8602
012013081582BBDCV28     080BBDCE       PN      N1000R$  000000000002200000000000220000000000022000000000002200000000000220000000000000000000000000000001000000000000000200000000000000004400000000000245802013102100000010000000000000BRBBDCACNPR8591
012013081582BBDCV29     080BBDCE       PN      N1000R$  000000000012300000000001230000000000099000000000010500000000000990000000000000000000000000000002000000000000001600000000000000168000000000000287802013102100000010000000000000BRBBDCACNPR8602
012013081582BBDCV30     080BBDCE       PN      N1000R$  000000000016200000000001700000000000159000000000016100000000001640000000000000000000000000000011000000000000016600000000000002687700000000000297802013102100000010000000000000BRBBDCACNPR8602
012013081582BBDCW8      080BBDCE       PN      N1000R$  000000000002400000000000250000000000024000000000002400000000000250000000000000000000000000000006000000000000011700000000000000282000000000000246002013111800000010000000000000BRBBDCACNPR8592
012013081582BBDCX29     080BBDCE       PN      N1000R$  000000000014800000000001480000000000148000000000014800000000001480000000000000000000000000000001000000000000001200000000000000177600000000000287802013121600000010000000000000BRBBDCACNPR8602
012013081582BBDCX33     080BBDCE       PN      N1000R$  000000000018700000000001870000000000187000000000018700000000001870000000000000000000000000000001000000000000001200000000000000224400000000000297202013121600000010000000000000BRBBDCACNPR8598
012013081512BBFI11B     010FII BB PROGRCI      MB   R$  000000043000000000004300000000000425000000000042812500000004250000000000420601000000042500000004000000000000000008000000000003425000000000000000009999123100000010000000000000BRBBFICTF006197
012013081512BBPO11      010FII BB PRGIICI           R$  000000001095300000000110110000000010915000000001096700000000109360000000010936000000001097000233000000000000012306000000000134965199000000000000009999123100000010000000000000BRBBPOCTF003109
012013081512BBRC11      010FII BB CORP CI           R$  000000000940100000000094010000000009200000000000923400000000094000000000009211000000000940000020000000000000002154000000000019891238000000000000009999123100000010000000000000BRBBRCCTF004123
012013081502BBRK3       010BR BROKERS  ON      NM   R$  000000000055600000000005640000000000543000000000054800000000005470000000000547000000000054802356000000000000658200000000000361279000000000000000009999123100000010000000000000BRBBRKACNOR4108
012013081596BBRK3F      020BR BROKERS  ON      NM   R$  000000000059000000000005900000000000547000000000056500000000005470000000000510000000000055000005000000000000000066000000000000037320000000000000009999123100000010000000000000BRBBRKACNOR4108
012013081502BBSE3       010BBSEGURIDADEON      NM   R$  000000000193500000000019640000000001902000000000192400000000019400000000001938000000000194712254000000000008960800000000017245356900000000000000009999123100000010000000000000BRBBSEACNOR5100
012013081596BBSE3F      020BBSEGURIDADEON      NM   R$  000000000194000000000019630000000001900000000000192300000000019400000000001940000000000194900374000000000000012055000000000023193100000000000000009999123100000010000000000000BRBBSEACNOR5100
012013081562BBSE3T      030BBSEGURIDADEON      NM018R$  000000000193900000000019420000000001939000000000194000000000019420000000000000000000000000000004000000000000002600000000000005045302000000000000009999123100000010000000000000BRBBSEACNOR5100
012013081562BBSE3T      030BBSEGURIDADEON      NM090R$  000000000195600000000019780000000001955000000000196700000000019780000000000000000000000000000020000000000000150500000000000296127150000000000000009999123100000010000000000000BRBBSEACNOR5100
012013081578BBSEJ21     070BBSE        ON      NM000R$  000000000002500000000000250000000000020000000000002200000000000200000000000000000000000000000004000000000001295000000000000028528400000000000210002013102100000010000000000000BRBBSEACNOR5100
012013081582BBSEV19     080BBSEE       ON      NM000R$  000000000003800000000000550000000000038000000000005000000000000550000000000000000000000000000003000000000001295000000000000064935000000000000190002013102100000010000000000000BRBBSEACNOR5100
012013081582BBSEV47     080BBSEE       ON      NM000R$  000000000001500000000000150000000000015000000000001500000000000150000000000000000000000000000001000000000000370000000000000005550000000000000175002013102100000010000000000000BRBBSEACNOR5100
012013081582BBSEV48     080BBSEE       ON      NM000R$  000000000003400000000000340000000000034000000000003400000000000340000000000000000000000000000002000000000000462500000000000015725000000000000185002013102100000010000000000000BRBBSEACNOR5100
012013081502BBTG11      010BTG PACTUAL UNT EDJ      R$  000000000287800000000028780000000002820000000000284200000000028450000000002832000000000284502736000000000000485600000000001380559100000000000000009999123100000010000000000000BRBBTGUNT007105
012013081596BBTG11F     020BTG PACTUAL UNT EDJ      R$  000000000285100000000028600000000002848000000000285000000000028500000000002752000000000290000006000000000000000234000000000000667084000000000000009999123100000010000000000000BRBBTGUNT007105
012013081562BBTG11T     030BTG PACTUAL UNT EDJ   180R$  000000000297600000000029770000000002976000000000297600000000029770000000000000000000000000000002000000000000099100000000000294981893000000000000009999123100000010000000000000BRBBTGUNT007105
012013081512BBVJ11      010FII C JARDIMCI           R$  000000000790000000000080000000000007900000000000792800000000079490000000007909000000000794900019000000000000000745000000000005906387000000000000009999123100000010000000000000BRBBVJCTF001132
012013081512BCFF11B     010FII BC FFII CI  ER  MB   R$  000000000998400000000099840000000009900000000000993000000000099200000000009920000000000996000076000000000000001786000000000017735962000000000000009999123100000010000000000000BRBCFFCTF000141
012013081502BEEF3       010MINERVA     ON      NM   R$  000000000104900000000010490000000001021000000000103700000000010400000000001036000000000104003759000000000001156500000000001200401500000000000000009999123100000010000000000000BRBEEFACNOR6104
012013081596BEEF3F      020MINERVA     ON      NM   R$  000000000101500000000010600000000001001000000000103400000000010010000000001000000000000106300006000000000000000270000000000000279286000000000000009999123100000010000000000000BRBEEFACNOR6104
012013081502BEES3       010BANESTES    ON           R$  000000000004700000000000470000000000046000000000004600000000000470000000000046000000000004700019000000000000053400000000000002480900000000000000009999123100000010000000000000BRBEESACNOR9243
012013081502BEES4       010BANESTES    PN           R$  000000000004300000000000450000000000043000000000004300000000000450000000000044000000000004500007000000000000021100000000000000908500000000000000009999123100000010000000000000BRBEESACNPR6168
012013081510BEES9       010BANESTES    ON  REC      R$  000000000004500000000000450000000000044000000000004400000000000440000000000044000000000000000016000000000000053000000000000002351000000000000000009999123100000010000000000000BRBEESR03OR0241
012013081502BEMA3       010BEMATECH    ON  ED  NM   R$  000000000070000000000007290000000000700000000000071800000000007180000000000718000000000072400192000000000000059000000000000042400700000000000000009999123100000010000000000000BRBEMAACNOR0114
012013081596BEMA3F      020BEMATECH    ON  ED  NM   R$  000000000071200000000007490000000000712000000000073400000000007490000000000723000000000074900003000000000000000100000000000000073410000000000000009999123100000010000000000000BRBEMAACNOR0114
012013081502BGIP4       010BANESE      PN           R$  000000000466200000000046620000000004500000000000460500000000046500000000004531000000000464900009000000000000002100000000000009671400000000000000009999123100000010000000000000BRBGIPACNPR8178
012013081596BGIP4F      020BANESE      PN           R$  000000000475500000000047550000000004750000000000475400000000047500000000004645000000000475000003000000000000000025000000000000118850000000000000009999123100000010000000000000BRBGIPACNPR8178
012013081502BHGR3       010BHG         ON      NM   R$  000000000148400000000014900000000001484000000000148600000000014900000000001467000000000149000004000000000000000400000000000000594500000000000000009999123100000010000000000000BRBHGRACNOR9101
012013081596BHGR3F      020BHG         ON      NM   R$  000000000148400000000015000000000001476000000000148800000000015000000000001450000000000160000004000000000000000038000000000000056568000000000000009999123100000010000000000000BRBHGRACNOR9101
012013081502BICB4       010BICBANCO    PN      N1   R$  000000000034600000000003780000000000341000000000035800000000003750000000000373000000000037500369000000000000821900000000000294382900000000000000009999123100000010000000000000BRBICBACNPR7131
012013081596BICB4F      020BICBANCO    PN      N1   R$  000000000036000000000003780000000000360000000000036900000000003780000000000356000000000037800006000000000000000105000000000000038842000000000000009999123100000010000000000000BRBICBACNPR7131
012013081562BICB4T      030BICBANCO    PN      N1180R$  000000000038000000000003810000000000380000000000038000000000003810000000000000000000000000000002000000000000020000000000000007619976000000000000009999123100000010000000000000BRBICBACNPR7131
012013081562BICB4T      030BICBANCO    PN      N1452R$  000000000041000000000004110000000000410000000000041000000000004110000000000000000000000000000002000000000000001500000000000000615060000000000000009999123100000010000000000000BRBICBACNPR7131
012013081596BIOM4F      020BIOMM       PN           R$  000000000080000000000008000000000000800000000000080000000000008000000000000800000000000087000001000000000000000007000000000000005600000000000000009999123100000010000000000000BRBIOMACNPR9101
012013081502BISA3       010BROOKFIELD  ON      NM   R$  000000000018200000000001920000000000179000000000018400000000001820000000000182000000000018307699000000000013315900000000002450551700000000000000009999123100000010000000000000BRBISAACNOR8109
012013081596BISA3F      020BROOKFIELD  ON      NM   R$  000000000019000000000001900000000000180000000000018500000000001840000000000179000000000019000018000000000000000570000000000000105540000000000000009999123100000010000000000000BRBISAACNOR8109
012013081562BISA3T      030BROOKFIELD  ON      NM029R$  000000000018500000000001860000000000185000000000018500000000001860000000000000000000000000000002000000000000077000000000000014276385000000000000009999123100000010000000000000BRBISAACNOR8109
012013081562BISA3T      030BROOKFIELD  ON      NM090R$  000000000018600000000001880000000000183000000000018500000000001860000000000000000000000000000012000000000000799800000000000148508616000000000000009999123100000010000000000000BRBISAACNOR8109
012013081512BJRC11      010FII JS RECIMCI           R$  000000008500000000000889900000000082001000000008658900000000889900000000083600000000008899000019000000000000000056000000000004849021000000000000009999123100000010000000000000BRBJRCCTF007109
012013081502BMEB4       010MERC BRASIL PN  EJ       R$  000000000110000000000011000000000001100000000000110000000000011000000000001100000000000112500003000000000000031500000000000034650000000000000000009999123100000010000000000000BRBMEBACNPR5191
012013081502BMIN3       010MERC INVEST ON           R$  000000000010000000000001000000000000100000000000010000000000001000000000000100000000000000000001000000000000001000000000000000100000000000000000009999123100000010000000000000BRBMINACNOR4158
012013081512BMLC11B     010FII BMBRC LCCI  ER  MB   R$  000000001170000000000118450000000011650000000001165800000000118450000000011671000000001184500006000000000000000405000000000004721845000000000000009999123100000010000000000000BRBMLCCTF004118
012013081502BMTO4       010BRASMOTOR   PN           R$  000000000008600000000000860000000000084000000000008400000000000860000000000084000000000008600006000000000000038000000000000003202000000000000000009999123100000010000000000000BRBMTOACNPR6065
012013081512BNFS11      010FII BANRISULCI           R$  000000000965000000000101900000000009650000000000967700000000101900000000009650000000001018800010000000000000000490000000000004741984000000000000009999123100000010000000000000BRBNFSCTF000111
012013081502BOAC11B     010BANK AMERICADRN     MB   R$  000000000337500000000033750000000003375000000000337500000000033750000000003315000000000338000001000000000000000400000000000001350000000000000000009999123100000010000000000000BRBOACBDR004111
012013081502BOBR4       010BOMBRIL     PN           R$  000000000070500000000007050000000000705000000000070500000000007050000000000680000000000070700001000000000000000100000000000000070500000000000000009999123100000010000000000000BRBOBRACNPR3127
012013081596BOBR4F      020BOMBRIL     PN           R$  000000000070000000000007000000000000700000000000070000000000007000000000000000000000000070000001000000000000000004000000000000002800000000000000009999123100000010000000000000BRBOBRACNPR3127
012013081514BOVA11      010ISHARES BOVACI           R$  000000000489900000000050450000000004870000000000497700000000049960000000004996000000000500007563000000000004139110000000020601162590000000000000009999123100000010000000000000BRBOVACTF003101
012013081596BOVA11F     020ISHARES BOVACI           R$  000000000495500000000050100000000004855000000000493500000000049600000000004960000000000504800017000000000000000035000000000000172734000000000000009999123100000010000000000000BRBOVACTF003101
012013081582BOVAT53     080BOVAE       CI        000R$  000000000035000000000003500000000000350000000000035000000000003500000000000000000000000000000001000000000000005000000000000001750000000000000530002013081900000010000000000000BRBOVACTF003101
012013081582BOVAV53     080BOVAE       CI        000R$  000000000035000000000003500000000000350000000000035000000000003500000000000000000000000000000001000000000000005000000000000001750000000000000530002013102100000010000000000000BRBOVACTF003101
012013081512BPFF11      010FII ABSOLUTOCI           R$  000000000873000000000089300000000008600000000000865800000000088500000000008610000000000885000021000000000000002492000000000021576251000000000000009999123100000010000000000000BRBPFFCTF002104
012013081502BPHA3       010BR PHARMA   ON      NM   R$  000000000100700000000010230000000000985000000000100400000000009850000000000985000000000098901829000000000001361200000000001367341300000000000000009999123100000010000000000000BRBPHAACNOR6102
012013081596BPHA3F      020BR PHARMA   ON      NM   R$  000000000102000000000010200000000000991000000000100500000000010040000000000991000000000104900004000000000000000027000000000000027156000000000000009999123100000010000000000000BRBPHAACNOR6102
012013081562BPHA3T      030BR PHARMA   ON      NM016R$  000000000101000000000010110000000001010000000000101000000000010110000000000000000000000000000002000000000000002000000000000002020450000000000000009999123100000010000000000000BRBPHAACNOR6102
012013081562BPHA3T      030BR PHARMA   ON      NM032R$  000000000101300000000010140000000001013000000000101300000000010140000000000000000000000000000002000000000000005000000000000005065210000000000000009999123100000010000000000000BRBPHAACNOR6102
012013081502BPNM4       010PANAMERICANOPN      N1   R$  000000000055300000000005530000000000535000000000054500000000005460000000000538000000000054900207000000000000127700000000000069668400000000000000009999123100000010000000000000BRBPNMACNPR6111
012013081596BPNM4F      020PANAMERICANOPN      N1   R$  000000000059500000000005950000000000540000000000054700000000005930000000000535000000000059300010000000000000000263000000000000144011000000000000009999123100000010000000000000BRBPNMACNPR6111
012013081502BRAP3       010BRADESPAR   ON      N1   R$  000000000205900000000021090000000002041000000000206500000000020760000000002076000000000211000024000000000000007000000000000014461200000000000000009999123100000010000000000000BRBRAPACNOR5124
012013081596BRAP3F      020BRADESPAR   ON      N1   R$  000000000209500000000021100000000002080000000000208400000000020800000000002009000000000210900003000000000000000059000000000000122990000000000000009999123100000010000000000000BRBRAPACNOR5124
012013081502BRAP4       010BRADESPAR   PN      N1   R$  000000000251500000000025870000000002510000000000256200000000025830000000002583000000000258405824000000000001603100000000004108533900000000000000009999123100000010000000000000BRBRAPACNPR2124
012013081596BRAP4F      020BRADESPAR   PN      N1   R$  000000000252100000000025880000000002510000000000254000000000025880000000002550000000000258800020000000000000000555000000000001409962000000000000009999123100000010000000000000BRBRAPACNPR2124
012013081578BRAPL30     070BRAP        PN      N1000R$  000000000003500000000000350000000000035000000000003500000000000350000000000000000000000000000002000000000000191500000000000006702500000000000300002013121600000010000000000000BRBRAPACNPR2124
012013081582BRAPX22     080BRAPE       PN      N1000R$  000000000001500000000000150000000000015000000000001500000000000150000000000000000000000000000002000000000000191500000000000002872500000000000220002013121600000010000000000000BRBRAPACNPR2124
012013081582BRAPX24     080BRAPE       PN      N1000R$  000000000005500000000000560000000000055000000000005500000000000560000000000000000000000000000003000000000000191500000000000010628200000000000240002013121600000010000000000000BRBRAPACNPR2124
012013081514BRAX11      010ISHARES BRAXCI           R$  000000000404600000000040810000000004046000000000407900000000040810000000000000000000000408100003000000000000151250000000000617079750000000000000009999123100000010000000000000BRBRAXCTF002100
012013081512BRCR11      010FII BC FUND CI  ER       R$  000000001275600000000127970000000012692000000001272100000000126920000000012692000000001270002127000000000000041067000000000522443555000000000000009999123100000010000000000000BRBRCRCTF000132
012013081502BRFS3       010BRF SA      ON      NM   R$  000000000533000000000056220000000005330000000000550900000000055600000000005560000000000557519555000000000006420900000000035377828000000000000000009999123100000010000000000000BRBRFSACNOR8110
012013081596BRFS3F      020BRF SA      ON      NM   R$  000000000537000000000056150000000005335000000000548700000000055430000000005475000000000554300192000000000000005584000000000030645869000000000000009999123100000010000000000000BRBRFSACNOR8110
012013081562BRFS3T      030BRF SA      ON      NM018R$  000000000537200000000053740000000005372000000000537200000000053740000000000000000000000000000004000000000000001000000000000005372937000000000000009999123100000010000000000000BRBRFSACNOR8110
012013081562BRFS3T      030BRF SA      ON      NM032R$  000000000559900000000056000000000005599000000000559900000000056000000000000000000000000000000006000000000000012000000000000067192042000000000000009999123100000010000000000000BRBRFSACNOR8110
012013081578BRFSI53     070BRFS        ON      NM000R$  000000000031100000000003110000000000311000000000031100000000003110000000000000000000000000000001000000000000003000000000000000933000000000000530002013091600000010000000000000BRBRFSACNOR8110
012013081578BRFSI54     070BRFS        ON      NM000R$  000000000023700000000002370000000000237000000000023700000000002370000000000000000000000000000001000000000000003000000000000000711000000000000540002013091600000010000000000000BRBRFSACNOR8110
012013081502BRIN3       010BR INSURANCEON  ED  NM   R$  000000000230000000000023130000000002075000000000214900000000020800000000002079000000000208001939000000000000762000000000001637841300000000000000009999123100000010000000000000BRBRINACNOR3106
012013081596BRIN3F      020BR INSURANCEON  ED  NM   R$  000000000228200000000022820000000002117000000000220000000000021170000000002092000000000211900038000000000000001013000000000002229000000000000000009999123100000010000000000000BRBRINACNOR3106
012013081562BRIN3T      030BR INSURANCEON  ED  NM018R$  000000000208900000000020900000000002089000000000208900000000020900000000000000000000000000000002000000000000010000000000000020891520000000000000009999123100000010000000000000BRBRINACNOR3106
012013081502BRIV3       010ALFA INVEST ON  EJ       R$  000000000062200000000006220000000000622000000000062200000000006220000000000622000000000067000001000000000000000200000000000000124400000000000000009999123100000010000000000000BRBRIVACNOR6197
012013081502BRKM3       010BRASKEM     ON      N1   R$  000000000123000000000012300000000001201000000000121100000000012010000000001110000000000122800012000000000000004900000000000005937400000000000000009999123100000010000000000000BRBRKMACNOR1110
012013081502BRKM5       010BRASKEM     PNA     N1   R$  000000000176900000000018050000000001758000000000178300000000017850000000001781000000000178506479000000000001290800000000002302074200000000000000009999123100000010000000000000BRBRKMACNPA4110
012013081596BRKM5F      020BRASKEM     PNA     N1   R$  000000000179700000000018100000000001754000000000178300000000017540000000001754000000000181400032000000000000000961000000000001714228000000000000009999123100000010000000000000BRBRKMACNPA4110
012013081578BRKMJ53     070BRKME       PNA     N1000R$  000000000049200000000004920000000000492000000000049200000000004920000000000000000000000000000002000000000000646000000000000317832000000000000132502013102100000010000000000000BRBRKMACNPA4110
012013081578BRKMJ59     070BRKME       PNA     N1000R$  000000000005800000000000580000000000058000000000005800000000000580000000000000000000000000000002000000000000646000000000000037468000000000000192502013102100000010000000000000BRBRKMACNPA4110
012013081582BRKMV53     080BRKME       PNA     N1000R$  000000000000100000000000010000000000001000000000000100000000000010000000000000000000000000000002000000000000646000000000000000646000000000000132502013102100000010000000000000BRBRKMACNPA4110
012013081582BRKMV59     080BRKME       PNA     N1000R$  000000000015600000000001560000000000156000000000015600000000001560000000000000000000000000000002000000000000646000000000000100776000000000000192502013102100000010000000000000BRBRKMACNPA4110
012013081502BRML3       010BR MALLS PARON      NM   R$  000000000197100000000020030000000001959000000000198100000000019930000000001989000000000199313671000000000003642100000000007215984900000000000000009999123100000010000000000000BRBRMLACNOR9105
012013081596BRML3F      020BR MALLS PARON      NM   R$  000000000197000000000020020000000001961000000000198200000000019900000000001960000000000202000044000000000000001235000000000002448386000000000000009999123100000010000000000000BRBRMLACNOR9105
012013081562BRML3T      030BR MALLS PARON      NM032R$  000000000200500000000020060000000002005000000000200500000000020060000000000000000000000000000002000000000000000400000000000000802298000000000000009999123100000010000000000000BRBRMLACNOR9105
012013081578BRMLK26     070BRML        ON      NM000R$  000000000000900000000000090000000000009000000000000900000000000090000000000000000000000000000002000000000000043000000000000000387000000000000260002013111800000010000000000000BRBRMLACNOR9105
012013081582BRMLV22     080BRMLE       ON      NM000R$  000000000022200000000002220000000000222000000000022200000000002220000000000000000000000000000001000000000000010000000000000002220000000000000220002013102100000010000000000000BRBRMLACNOR9105
012013081582BRMLW22     080BRMLE       ON      NM000R$  000000000022700000000002270000000000226000000000022600000000002260000000000000000000000000000002000000000000014900000000000003379300000000000220002013111800000010000000000000BRBRMLACNOR9105
012013081582BRMLW52     080BRMLE       ON      NM000R$  000000000026300000000002640000000000263000000000026300000000002640000000000000000000000000000002000000000000013200000000000003478200000000000225002013111800000010000000000000BRBRMLACNOR9105
012013081502BRPR3       010BR PROPERT  ON      NM   R$  000000000190800000000019190000000001872000000000188700000000018870000000001887000000000189108067000000000001984300000000003745529300000000000000009999123100000010000000000000BRBRPRACNOR9112
012013081596BRPR3F      020BR PROPERT  ON      NM   R$  000000000188100000000019910000000001865000000000188500000000019910000000001872000000000200000023000000000000000739000000000001393537000000000000009999123100000010000000000000BRBRPRACNOR9112
012013081562BRPR3T      030BR PROPERT  ON      NM032R$  000000000189900000000019000000000001899000000000189900000000019000000000000000000000000000000002000000000000000500000000000000949601000000000000009999123100000010000000000000BRBRPRACNOR9112
012013081502BRSR6       010BANRISUL    PNB     N1   R$  000000000145700000000014630000000001410000000000144800000000014600000000001451000000000146103392000000000000773500000000001120470000000000000000009999123100000010000000000000BRBRSRACNPB4133
012013081596BRSR6F      020BANRISUL    PNB     N1   R$  000000000143100000000014780000000001411000000000144200000000014540000000001470000000000154500025000000000000000658000000000000949064000000000000009999123100000010000000000000BRBRSRACNPB4133
012013081502BSEV3       010BIOSEV      ON      NM   R$  000000000098200000000009820000000000908000000000093500000000009180000000000918000000000097000049000000000000073000000000000068315000000000000000009999123100000010000000000000BRBSEVACNOR3100
012013081596BSEV3F      020BIOSEV      ON      NM   R$  000000000102400000000010240000000000940000000000099000000000009400000000000915000000000106900004000000000000000140000000000000138627000000000000009999123100000010000000000000BRBSEVACNOR3100
012013081502BTOW3       010B2W DIGITAL ON      NM   R$  000000000144000000000014570000000001372000000000140900000000013720000000001372000000000137503455000000000001065400000000001501622500000000000000009999123100000010000000000000BRBTOWACNOR8105
012013081596BTOW3F      020B2W DIGITAL ON      NM   R$  000000000146500000000014650000000001391000000000141500000000014390000000001387000000000143900036000000000000001032000000000001461067000000000000009999123100000010000000000000BRBTOWACNOR8105
012013081562BTOW3T      030B2W DIGITAL ON      NM018R$  000000000140100000000014020000000001401000000000140100000000014020000000000000000000000000000002000000000000001000000000000001401138000000000000009999123100000010000000000000BRBTOWACNOR8105
012013081502BTTL4       010BATTISTELLA PN           R$  000000000009900000000001010000000000099000000000009900000000001010000000000099000000000010100005000000000000026200000000000002595000000000000000009999123100000010000000000000BRBTTLACNPR7105
012013081502BVMF3       010BMFBOVESPA  ON      NM   R$  000000000114000000000011570000000001117000000000114300000000011500000000001150000000000115128734000000000018288100000000020912803500000000000000009999123100000010000000000000BRBVMFACNOR3125
012013081596BVMF3F      020BMFBOVESPA  ON      NM   R$  000000000115400000000011550000000001119000000000113800000000011450000000001141000000000115500189000000000000004711000000000005365470000000000000009999123100000010000000000000BRBVMFACNOR3125
012013081562BVMF3T      030BMFBOVESPA  ON      NM032R$  000000000114900000000011500000000001149000000000114900000000011500000000000000000000000000000002000000000000010000000000000011494905000000000000009999123100000010000000000000BRBVMFACNOR3125
012013081562BVMF3T      030BMFBOVESPA  ON      NM060R$  000000000113900000000011400000000001139000000000113900000000011400000000000000000000000000000004000000000000005000000000000005697671000000000000009999123100000010000000000000BRBVMFACNOR3125
012013081578BVMFH10     070BVMF        ON      NM000R$  000000000014000000000001400000000000140000000000014000000000001400000000000000000000000030000001000000000000002000000000000000280000000000000100002013081900000010000000000000BRBVMFACNOR3125
012013081578BVMFH11     070BVMF        ON      NM000R$  000000000004200000000000590000000000031000000000004000000000000470000000000035000000000005700093000000000000215800000000000008815700000000000110002013081900000010000000000000BRBVMFACNOR3125
012013081578BVMFH12     070BVMF        ON      NM000R$  000000000000400000000000040000000000001000000000000100000000000010000000000000000000000000100035000000000000120300000000000000236100000000000120002013081900000010000000000000BRBVMFACNOR3125
012013081578BVMFH13     070BVMF        ON      NM000R$  000000000000100000000000010000000000001000000000000100000000000010000000000000000000000000100005000000000000023600000000000000023600000000000128902013081900000010000000000000BRBVMFACNOR3124
012013081578BVMFH14     070BVMF        ON      NM000R$  000000000000100000000000010000000000001000000000000100000000000010000000000000000000000000100002000000000000002000000000000000002000000000000138902013081900000010000000000000BRBVMFACNOR3124
012013081578BVMFH15     070BVMF        ON      NM000R$  000000000000100000000000010000000000001000000000000100000000000010000000000000000000000000100001000000000000003300000000000000003300000000000150002013081900000010000000000000BRBVMFACNOR3125
012013081578BVMFH41     070BVMF        ON      NM000R$  000000000000900000000000170000000000008000000000001400000000000120000000000008000000000001600024000000000000062500000000000000929500000000000115002013081900000010000000000000BRBVMFACNOR3125
012013081578BVMFI10     070BVMF        ON      NM000R$  000000000016500000000001650000000000162000000000016400000000001650000000000000000000000016500005000000000000015100000000000002476500000000000100002013091600000010000000000000BRBVMFACNOR3125
012013081578BVMFI11     070BVMF        ON      NM000R$  000000000008000000000000840000000000067000000000007700000000000750000000000075000000000008400052000000000000079300000000000006147100000000000110002013091600000010000000000000BRBVMFACNOR3125
012013081578BVMFI12     070BVMF  FM    ON      NM000R$  000000000003200000000000320000000000023000000000002500000000000250000000000025000000000002700323000000000000621500000000000015737700000000000120002013091600000010000000000000BRBVMFACNOR3125
012013081578BVMFI13     070BVMF  FM    ON      NM000R$  000000000000800000000000090000000000007000000000000700000000000070000000000007000000000000800094000000000000257900000000000002019800000000000130002013091600000010000000000000BRBVMFACNOR3125
012013081578BVMFI14     070BVMF        ON      NM000R$  000000000000200000000000030000000000001000000000000100000000000030000000000002000000000000300008000000000000068700000000000000135300000000000140002013091600000010000000000000BRBVMFACNOR3125
012013081578BVMFI41     070BVMF  FM    ON      NM000R$  000000000004400000000000480000000000039000000000004400000000000470000000000044000000000000000022000000000000054300000000000002401800000000000115002013091600000010000000000000BRBVMFACNOR3125
012013081578BVMFI42     070BVMF  FM    ON      NM000R$  000000000001300000000000140000000000012000000000001300000000000120000000000012000000000001500020000000000000054100000000000000719900000000000125002013091600000010000000000000BRBVMFACNOR3125
012013081578BVMFI43     070BVMF  FM    ON      NM000R$  000000000000400000000000040000000000004000000000000400000000000040000000000003000000000000600001000000000000003500000000000000014000000000000135002013091600000010000000000000BRBVMFACNOR3125
012013081578BVMFI44     070BVMF        ON      NM000R$  000000000000200000000000020000000000002000000000000200000000000020000000000001000000000000000001000000000000000900000000000000001800000000000145002013091600000010000000000000BRBVMFACNOR3125
012013081578BVMFJ11     070BVMF        ON      NM000R$  000000000009200000000000950000000000092000000000009200000000000950000000000079000000000009800003000000000000010500000000000000967500000000000110002013102100000010000000000000BRBVMFACNOR3125
012013081578BVMFJ12     070BVMF  FM    ON      NM000R$  000000000004200000000000460000000000039000000000004200000000000410000000000038000000000011000024000000000000037000000000000001555600000000000120002013102100000010000000000000BRBVMFACNOR3125
012013081578BVMFJ13     070BVMF  FM    ON      NM000R$  000000000001500000000000170000000000015000000000001600000000000150000000000012000000000001500013000000000000026700000000000000428600000000000130002013102100000010000000000000BRBVMFACNOR3125
012013081578BVMFJ41     070BVMF  FM    ON      NM000R$  000000000006200000000000680000000000062000000000006300000000000640000000000061000000000000000016000000000000036300000000000002309800000000000115002013102100000010000000000000BRBVMFACNOR3125
012013081578BVMFJ42     070BVMF  FM    ON      NM000R$  000000000002700000000000270000000000023000000000002500000000000230000000000022000000000002500005000000000000003900000000000000098100000000000125002013102100000010000000000000BRBVMFACNOR3125
012013081578BVMFK12     070BVMF        ON      NM000R$  000000000006200000000000620000000000062000000000006200000000000620000000000020000000000000000001000000000000000500000000000000031000000000000120002013111800000010000000000000BRBVMFACNOR3125
012013081578BVMFK13     070BVMF        ON      NM000R$  000000000002500000000000250000000000025000000000002500000000000250000000000000000000000000000001000000000000001500000000000000037500000000000130002013111800000010000000000000BRBVMFACNOR3125
012013081578BVMFK14     070BVMF        ON      NM000R$  000000000001100000000000110000000000011000000000001100000000000110000000000005000000000000000001000000000000001500000000000000016500000000000140002013111800000010000000000000BRBVMFACNOR3125
012013081578BVMFL1      070BVMFE       ON      NM000R$  000000000000700000000000070000000000007000000000000700000000000070000000000000000000000000000001000000000000330000000000000002310000000000000158902013121600000010000000000000BRBVMFACNOR3123
012013081578BVMFL2      070BVMF        ON      NM000R$  000000000007900000000000800000000000079000000000007900000000000800000000000000000000000000000002000000000001400000000000000111944000000000000118902013121600000010000000000000BRBVMFACNOR3124
012013081582BVMFT11     080BVMFE       ON      NM000R$  000000000000300000000000150000000000003000000000000800000000000050000000000001000000000001300058000000000000093900000000000000791500000000000110002013081900000010000000000000BRBVMFACNOR3125
012013081582BVMFT12     080BVMFE       ON      NM000R$  000000000008000000000000800000000000071000000000007400000000000710000000000045000000000006500003000000000000003000000000000000222000000000000120002013081900000010000000000000BRBVMFACNOR3125
012013081582BVMFT14     080BVMFE       ON      NM000R$  000000000025200000000002540000000000252000000000025200000000002540000000000230000000000025100003000000000000013000000000000003283000000000000138902013081900000010000000000000BRBVMFACNOR3124
012013081582BVMFT40     080BVMFE       ON      NM000R$  000000000000100000000000010000000000001000000000000100000000000010000000000000000000000000400002000000000000000200000000000000000200000000000105002013081900000010000000000000BRBVMFACNOR3125
012013081582BVMFT41     080BVMFE       ON      NM000R$  000000000003200000000000320000000000013000000000001300000000000130000000000011000000000002900006000000000000030300000000000000398000000000000115002013081900000010000000000000BRBVMFACNOR3125
012013081582BVMFT43     080BVMFE       ON      NM000R$  000000000019700000000001970000000000197000000000019700000000001970000000000192000000000021200001000000000000003500000000000000689500000000000135002013081900000010000000000000BRBVMFACNOR3125
012013081582BVMFT61     080BVMFE       ON      NM000R$  000000000005100000000000510000000000033000000000004800000000000330000000000024000000000004200004000000000000001300000000000000063200000000000117502013081900000010000000000000BRBVMFACNOR3125
012013081582BVMFT62     080BVMFE       ON      NM000R$  000000000008100000000000810000000000081000000000008100000000000810000000000067000000000008800001000000000000000100000000000000008100000000000122502013081900000010000000000000BRBVMFACNOR3125
012013081582BVMFU11     080BVMFE FM    ON      NM000R$  000000000003200000000000360000000000020000000000002600000000000250000000000025000000000002700028000000000000072600000000000001925300000000000110002013091600000010000000000000BRBVMFACNOR3125
012013081582BVMFU12     080BVMFE FM    ON      NM000R$  000000000008500000000000940000000000063000000000007400000000000740000000000000000000000007700052000000000000099100000000000007383100000000000120002013091600000010000000000000BRBVMFACNOR3125
012013081582BVMFU40     080BVMFE       ON      NM000R$  000000000001500000000000190000000000015000000000001700000000000150000000000010000000000001600005000000000000015100000000000000261500000000000105002013091600000010000000000000BRBVMFACNOR3125
012013081582BVMFU41     080BVMFE FM    ON      NM000R$  000000000005300000000000610000000000037000000000004900000000000450000000000000000000000004800021000000000000041300000000000002055200000000000115002013091600000010000000000000BRBVMFACNOR3125
012013081582BVMFU42     080BVMFE FM    ON      NM000R$  000000000012500000000001250000000000112000000000011600000000001120000000000000000000000011500003000000000000010600000000000001239700000000000125002013091600000010000000000000BRBVMFACNOR3125
012013081582BVMFV11     080BVMFE FM    ON      NM000R$  000000000004000000000000500000000000036000000000003800000000000370000000000034000000000003700009000000000000009500000000000000362100000000000110002013102100000010000000000000BRBVMFACNOR3125
012013081582BVMFV12     080BVMFE FM    ON      NM000R$  000000000009900000000000990000000000075000000000008200000000000790000000000000000000000008200009000000000000027200000000000002245800000000000120002013102100000010000000000000BRBVMFACNOR3125
012013081582BVMFV41     080BVMFE FM    ON      NM000R$  000000000006200000000000620000000000054000000000005700000000000540000000000053000000000005600009000000000000021800000000000001245000000000000115002013102100000010000000000000BRBVMFACNOR3125
012013081582BVMFX11     080BVMFE       ON      NM000R$  000000000006000000000000600000000000060000000000006000000000000600000000000000000000000000000001000000000000330000000000000019800000000000000110002013121600000010000000000000BRBVMFACNOR3125
012013081582BVMFX12     080BVMFE       ON      NM000R$  000000000009000000000000900000000000090000000000009000000000000900000000000000000000000000000001000000000000330000000000000029700000000000000116902013121600000010000000000000BRBVMFACNOR3123
012013081582BVMFX40     080BVMFE       ON      NM000R$  000000000002900000000000290000000000029000000000002900000000000290000000000000000000000000000001000000000000330000000000000009570000000000000105002013121600000010000000000000BRBVMFACNOR3125
012013081582BVMFX43     080BVMFE       ON      NM000R$  000000000017300000000001740000000000173000000000017300000000001740000000000000000000000000000002000000000000330000000000000057255000000000000131902013121600000010000000000000BRBVMFACNOR3123
012013081502CAMB4       010CAMBUCI     PN           R$  000000000017700000000001800000000000175000000000017800000000001800000000000180000000000019200011000000000000005500000000000000982600000000000000009999123100000010000000000000BRCAMBACNPR1117
012013081596CAMB4F      020CAMBUCI     PN           R$  000000000016600000000001800000000000162000000000017800000000001620000000000100000000000025000006000000000000000064000000000000011448000000000000009999123100000010000000000000BRCAMBACNPR1117
012013081502CARD3       010CSU CARDSYSTON      NM   R$  000000000031500000000003270000000000310000000000032100000000003270000000000327000000000033000042000000000000056100000000000018063600000000000000009999123100000010000000000000BRCARDACNOR9105
012013081596CARD3F      020CSU CARDSYSTON      NM   R$  000000000032100000000003210000000000298000000000030300000000002980000000000294000000000032500002000000000000000004000000000000001215000000000000009999123100000010000000000000BRCARDACNOR9105
012013081502CBEE3       010AMPLA ENERG ON *         R$  000000000013500000000001380000000000135000000000013600000000001380000000000118000000000013700004000000000001300000000000000000177000000000000000009999123100010000000000000000BRCBEEACNOR3149
012013081596CBEE3F      020AMPLA ENERG ON *         R$  000000000012800000000001280000000000128000000000012800000000001280000000000128000000000014900001000000000000036000000000000000004608000000000000009999123100010000000000000000BRCBEEACNOR3149
012013081596CBMA3F      020COBRASMA    ON           R$  000000000000500000000000050000000000005000000000000500000000000050000000000005000000000000700001000000000000000001000000000000000005000000000000009999123100000010000000000000BRCBMAACNOR4124
012013081502CBMA4       010COBRASMA    PN           R$  000000000000400000000000040000000000004000000000000400000000000040000000000003000000000000400003000000000000100000000000000000400000000000000000009999123100000010000000000000BRCBMAACNPR1124
012013081596CBMA4F      020COBRASMA    PN           R$  000000000000400000000000040000000000004000000000000400000000000040000000000003000000000000400006000000000000012200000000000000048800000000000000009999123100000010000000000000BRCBMAACNPR1124
012013081508CCHI3       010CHIARELLI   ON           R$  000000000003000000000000300000000000029000000000002900000000000290000000000029000000000003000005000000000000060000000000000001760000000000000000009999123100000010000000000000BRCCHIACNOR5123
012013081596CCHI3F      020CHIARELLI   ON           R$  000000000002900000000000290000000000029000000000002900000000000290000000000029000000000003000001000000000000004000000000000000116000000000000000009999123100000010000000000000BRCCHIACNOR5123
012013081502CCPR3       010CYRE COM-CCPON      NM   R$  000000000218000000000022000000000002176000000000219000000000022000000000002200000000000225000006000000000000000700000000000001533600000000000000009999123100000010000000000000BRCCPRACNOR9107
012013081502CCRO3       010CCR SA      ON      NM   R$  000000000172400000000017370000000001692000000000170700000000017020000000001702000000000170815977000000000007251800000000012380967100000000000000009999123100000010000000000000BRCCROACNOR2122
012013081596CCRO3F      020CCR SA      ON      NM   R$  000000000172800000000017670000000001600000000000170900000000017470000000001713000000000174700065000000000000002324000000000003973343000000000000009999123100000010000000000000BRCCROACNOR2122
012013081562CCRO3T      030CCR SA      ON      NM060R$  000000000173200000000017330000000001722000000000172800000000017230000000000000000000000000000004000000000000001500000000000002593280000000000000009999123100000010000000000000BRCCROACNOR2122
012013081562CCRO3T      030CCR SA      ON      NM180R$  000000000177800000000017790000000001778000000000177800000000017790000000000000000000000000000002000000000000001100000000000001956581000000000000009999123100000010000000000000BRCCROACNOR2122
012013081502CCXC3       010CCX CARVAO  ON      NM   R$  000000000010500000000001140000000000100000000000010600000000001020000000000102000000000010303734000000000009499000000000001015302200000000000000009999123100000010000000000000BRCCXCACNOR5100
012013081596CCXC3F      020CCX CARVAO  ON      NM   R$  000000000010000000000001140000000000100000000000010900000000001040000000000104000000000010900046000000000000001685000000000000184593000000000000009999123100000010000000000000BRCCXCACNOR5100
012013081562CCXC3T      030CCX CARVAO  ON      NM032R$  000000000010500000000001110000000000102000000000010500000000001030000000000000000000000000000008000000000000044000000000000004648114000000000000009999123100000010000000000000BRCCXCACNOR5100
012013081562CCXC3T      030CCX CARVAO  ON      NM090R$  000000000010900000000001100000000000109000000000010900000000001100000000000000000000000000000002000000000000100000000000000010915070000000000000009999123100000010000000000000BRCCXCACNOR5100
012013081502CEDO4       010CEDRO       PN      N1   R$  000000000089900000000009350000000000899000000000090800000000009350000000000830000000000093500004000000000000000600000000000000545200000000000000009999123100000010000000000000BRCEDOACNPR5126
012013081508CELP3       010CELPA       ON           R$  000000000006500000000000650000000000065000000000006500000000000650000000000060000000000006900001000000000000001000000000000000065000000000000000009999123100000010000000000000BRCELPACNOR8112
012013081512CEOC11B     010FII CEO CCP CI  ER  MB   R$  000000000900000000000091000000000008975000000000902000000000090700000000008981000000000907000020000000000000000997000000000008993242000000000000009999123100000010000000000000BRCEOCCTF003109
012013081502CESP3       010CESP        ON      N1   R$  000000000172000000000017200000000001720000000000172000000000017200000000001465000000000172000002000000000000002000000000000003440000000000000000009999123100000010000000000000BRCESPACNOR3159
012013081502CESP5       010CESP        PNA     N1   R$  000000000227000000000022790000000002270000000000227600000000022790000000002100000000000229500004000000000000000400000000000000910700000000000000009999123100000010000000000000BRCESPACNPA6108
012013081596CESP5F      020CESP        PNA     N1   R$  000000000210000000000021000000000002100000000000210000000000021000000000002022000000000235000001000000000000000013000000000000027300000000000000009999123100000010000000000000BRCESPACNPA6108
012013081502CESP6       010CESP        PNB     N1   R$  000000000216000000000021640000000002086000000000212700000000021260000000002126000000000212903845000000000000998200000000002123968600000000000000009999123100000010000000000000BRCESPACNPB4118
012013081596CESP6F      020CESP        PNB     N1   R$  000000000214000000000021700000000002087000000000211900000000020870000000002087000000000214800042000000000000001375000000000002914022000000000000009999123100000010000000000000BRCESPACNPB4118
012013081562CESP6T      030CESP        PNB     N1032R$  000000000214100000000021420000000002141000000000214100000000021420000000000000000000000000000002000000000000008000000000000017132600000000000000009999123100000010000000000000BRCESPACNPB4118
012013081502CGAS3       010COMGAS      ON           R$  000000000519900000000052000000000005150000000000518900000000052000000000005150000000000580000006000000000000001900000000000009859700000000000000009999123100000010000000000000BRCGASACNOR0132
012013081502CGAS5       010COMGAS      PNA          R$  000000000564600000000057470000000005646000000000569500000000057000000000005700000000000572200111000000000000023900000000000136117200000000000000009999123100000010000000000000BRCGASACNPA3129
012013081596CGAS5F      020COMGAS      PNA          R$  000000000568900000000056890000000005689000000000568900000000056890000000005402000000000570000001000000000000000070000000000000398230000000000000009999123100000010000000000000BRCGASACNPA3129
012013081502CGRA3       010GRAZZIOTIN  ON           R$  000000000165500000000016600000000001655000000000165800000000016600000000001602000000000166000003000000000000000300000000000000497500000000000000009999123100000010000000000000BRCGRAACNOR2061
012013081502CGRA4       010GRAZZIOTIN  PN           R$  000000000167700000000017000000000001612000000000166000000000016900000000001666000000000176400046000000000000013800000000000022908000000000000000009999123100000010000000000000BRCGRAACNPR9061
012013081596CGRA4F      020GRAZZIOTIN  PN           R$  000000000167000000000016750000000001665000000000166900000000016650000000001650000000000180000003000000000000000082000000000000136900000000000000009999123100000010000000000000BRCGRAACNPR9061
012013081502CIEL3       010CIELO       ON      NM   R$  000000000557400000000056600000000005529000000000559900000000056120000000005576000000000561210141000000000002598600000000014551688300000000000000009999123100000010000000000000BRCIELACNOR3111
012013081596CIEL3F      020CIELO       ON      NM   R$  000000000560000000000056980000000005534000000000559800000000055830000000005560000000000558300092000000000000002452000000000013726900000000000000009999123100000010000000000000BRCIELACNOR3111
012013081502CIQU4       010CACIQUE     PN           R$  000000000075000000000007500000000000750000000000075000000000007500000000000830000000000090000001000000000000000300000000000000225000000000000000009999123100000010000000000000BRCIQUACNPR5157
012013081502CLSC4       010CELESC      PN      N2   R$  000000000183000000000018820000000001820000000000184500000000018590000000001840000000000185900107000000000000013800000000000025471300000000000000009999123100000010000000000000BRCLSCACNPR3107
012013081502CMIG3       010CEMIG       ON      N1   R$  000000000199900000000020000000000001947000000000196400000000019530000000001953000000000197600348000000000000104200000000000204749500000000000000009999123100000010000000000000BRCMIGACNOR6208
012013081596CMIG3F      020CEMIG       ON      N1   R$  000000000200100000000020010000000001955000000000197200000000019700000000001980000000000200000035000000000000000993000000000001958517000000000000009999123100000010000000000000BRCMIGACNOR6208
012013081562CMIG3T      030CEMIG       ON      N1032R$  000000000199400000000019950000000001967000000000197900000000019680000000000000000000000000000004000000000000001800000000000003562729000000000000009999123100000010000000000000BRCMIGACNOR6208
012013081562CMIG3T      030CEMIG       ON      N1090R$  000000000200700000000020080000000002007000000000200700000000020080000000000000000000000000000002000000000000000300000000000000602256000000000000009999123100000010000000000000BRCMIGACNOR6208
012013081562CMIG3T      030CEMIG       ON      N1151R$  000000000204200000000020430000000002042000000000204200000000020430000000000000000000000000000002000000000000002000000000000004084699000000000000009999123100000010000000000000BRCMIGACNOR6208
012013081502CMIG4       010CEMIG       PN      N1   R$  000000000200400000000020040000000001969000000000198200000000019690000000001969000000000198011038000000000003186000000000006315353300000000000000009999123100000010000000000000BRCMIGACNPR3208
012013081596CMIG4F      020CEMIG       PN      N1   R$  000000000202300000000020630000000001974000000000198900000000020000000000001980000000000201800209000000000000005052000000000010046648000000000000009999123100000010000000000000BRCMIGACNPR3208
012013081562CMIG4T      030CEMIG       PN      N1018R$  000000000199900000000020000000000001999000000000199900000000020000000000000000000000000000000002000000000000001100000000000002199933000000000000009999123100000010000000000000BRCMIGACNPR3208
012013081562CMIG4T      030CEMIG       PN      N1060R$  000000000201900000000020200000000002019000000000201900000000020200000000000000000000000000000002000000000000001000000000000002019490000000000000009999123100000010000000000000BRCMIGACNPR3208
012013081562CMIG4T      030CEMIG       PN      N1180R$  000000000206100000000020620000000002061000000000206100000000020620000000000000000000000000000002000000000000000100000000000000206154000000000000009999123100000010000000000000BRCMIGACNPR3208
012013081512CNES11B     010FII CENESP  CI      MB   R$  000000001260000000000127000000000012600000000001262600000000127000000000012401000000001270000003000000000000000079000000000000997500000000000000009999123100000010000000000000BRCNESCTF001124
012013081502COCA11B     010COCA COLA   DRN     MB   R$  000000000920000000000092000000000009200000000000920000000000092000000000009060000000000940000001000000000000000100000000000000920000000000000000009999123100000010000000000000BRCOCABDR002108
012013081502COCE3       010COELCE      ON           R$  000000000400100000000041000000000003984000000000404700000000040890000000003950000000000410000015000000000000003300000000000013356100000000000000009999123100000010000000000000BRCOCEACNOR0132
012013081502COCE5       010COELCE      PNA          R$  000000000396000000000039700000000003871000000000392000000000039330000000003933000000000395300305000000000000064800000000000254080000000000000000009999123100000010000000000000BRCOCEACNPA3133
012013081596COCE5F      020COELCE      PNA          R$  000000000396800000000040000000000003878000000000392200000000040000000000003900000000000400000012000000000000000171000000000000670772000000000000009999123100000010000000000000BRCOCEACNPA3133
012013081502CPFE3       010CPFL ENERGIAON      NM   R$  000000000215700000000021580000000002062000000000208700000000020850000000002085000000000208706109000000000001382600000000002886282500000000000000009999123100000010000000000000BRCPFEACNOR0121
012013081596CPFE3F      020CPFL ENERGIAON      NM   R$  000000000214500000000021450000000002064000000000208700000000020840000000002080000000000211800053000000000000001377000000000002874922000000000000009999123100000010000000000000BRCPFEACNOR0121
012013081502CPLE3       010COPEL       ON      N1   R$  000000000238900000000024270000000002320000000000235700000000023500000000002350000000000240200100000000000000027800000000000065545800000000000000009999123100000010000000000000BRCPLEACNOR8128
012013081596CPLE3F      020COPEL       ON      N1   R$  000000000240000000000024000000000002400000000000240000000000024000000000002400000000000259900002000000000000000007000000000000016800000000000000009999123100000010000000000000BRCPLEACNOR8128
012013081502CPLE6       010COPEL       PNB     N1   R$  000000000306300000000031380000000003026000000000305900000000031000000000003090000000000310905073000000000001960200000000005997800500000000000000009999123100000010000000000000BRCPLEACNPB9125
012013081596CPLE6F      020COPEL       PNB     N1   R$  000000000309200000000031490000000003005000000000307100000000030900000000003008000000000325000024000000000000000795000000000002442362000000000000009999123100000010000000000000BRCPLEACNPB9125
012013081502CPRE3       010CPFL RENOVAVON      NM   R$  000000000120000000000012100000000001192000000000120600000000012090000000001200000000000120900014000000000000013000000000000015690800000000000000009999123100000010000000000000BRCPREACNOR5100
012013081596CPRE3F      020CPFL RENOVAVON      NM   R$  000000000119000000000012300000000001190000000000119900000000012300000000001200000000000123000012000000000000000315000000000000377968000000000000009999123100000010000000000000BRCPREACNOR5100
012013081502CRDE3       010CR2         ON      NM   R$  000000000040300000000004150000000000403000000000041400000000004100000000000410000000000042000005000000000000008200000000000003395300000000000000009999123100000010000000000000BRCRDEACNOR1108
012013081502CREM3       010CREMER      ON      NM   R$  000000000142100000000014770000000001421000000000145400000000014540000000001440000000000146500029000000000000013300000000000019344700000000000000009999123100000010000000000000BRCREMACNOR2166
012013081596CREM3F      020CREMER      ON      NM   R$  000000000149500000000014950000000001430000000000144000000000014300000000001266000000000149400002000000000000000013000000000000018720000000000000009999123100000010000000000000BRCREMACNOR2166
012013081502CRIV3       010ALFA FINANC ON  EJ       R$  000000000053700000000005540000000000510000000000053200000000005530000000000501000000000055400011000000000000009300000000000004949700000000000000009999123100000010000000000000BRCRIVACNOR4190
012013081502CRIV4       010ALFA FINANC PN  EJ       R$  000000000048700000000004870000000000460000000000047000000000004790000000000475000000000047900022000000000000021400000000000010073300000000000000009999123100000010000000000000BRCRIVACNPR1190
012013081502CRUZ3       010SOUZA CRUZ  ON           R$  000000000260500000000026620000000002570000000000260100000000025820000000002582000000000258305581000000000001350700000000003513909600000000000000009999123100000010000000000000BRCRUZACNOR0246
012013081596CRUZ3F      020SOUZA CRUZ  ON           R$  000000000260000000000026700000000002575000000000262400000000026380000000002595000000000267000078000000000000001888000000000004953461000000000000009999123100000010000000000000BRCRUZACNOR0246
012013081562CRUZ3T      030SOUZA CRUZ  ON        032R$  000000000259800000000026740000000002594000000000265800000000025950000000000000000000000000000010000000000000003700000000000009834621000000000000009999123100000010000000000000BRCRUZACNOR0246
012013081502CSAN3       010COSAN       ON      NM   R$  000000000402200000000041200000000003932000000000403700000000040550000000004054000000000405506416000000000002088600000000008433677100000000000000009999123100000010000000000000BRCSANACNOR6108
012013081596CSAN3F      020COSAN       ON      NM   R$  000000000407500000000041180000000003941000000000404400000000040540000000004000000000000429800062000000000000001630000000000006593202000000000000009999123100000010000000000000BRCSANACNOR6108
012013081562CSAN3T      030COSAN       ON      NM032R$  000000000413800000000041390000000004138000000000413800000000041390000000000000000000000000000002000000000000002500000000000010346925000000000000009999123100000010000000000000BRCSANACNOR6108
012013081562CSAN3T      030COSAN       ON      NM090R$  000000000412200000000041230000000004091000000000411900000000040920000000000000000000000000000028000000000000630000000000002595576172000000000000009999123100000010000000000000BRCSANACNOR6108
012013081562CSAN3T      030COSAN       ON      NM180R$  000000000422600000000042600000000004226000000000425300000000042600000000000000000000000000000004000000000000001200000000000005104479000000000000009999123100000010000000000000BRCSANACNOR6108
012013081502CSMG3       010COPASA      ON      NM   R$  000000000299000000000030080000000002930000000000296600000000029610000000002942000000000296104762000000000000718900000000002132283100000000000000009999123100000010000000000000BRCSMGACNOR5127
012013081596CSMG3F      020COPASA      ON      NM   R$  000000000296000000000030000000000002946000000000296600000000029700000000002940000000000309800036000000000000001132000000000003358601000000000000009999123100000010000000000000BRCSMGACNOR5127
012013081562CSMG3T      030COPASA      ON      NM018R$  000000000300600000000030070000000003006000000000300600000000030070000000000000000000000000000002000000000000004000000000000012027632000000000000009999123100000010000000000000BRCSMGACNOR5127
012013081562CSMG3T      030COPASA      ON      NM032R$  000000000297800000000029790000000002978000000000297800000000029790000000000000000000000000000002000000000000000300000000000000893612000000000000009999123100000010000000000000BRCSMGACNOR5127
012013081562CSMG3T      030COPASA      ON      NM046R$  000000000302000000000030210000000003020000000000302000000000030210000000000000000000000000000002000000000000002000000000000006040996000000000000009999123100000010000000000000BRCSMGACNOR5127
012013081562CSMG3T      030COPASA      ON      NM060R$  000000000300600000000030070000000003006000000000300600000000030070000000000000000000000000000002000000000000000500000000000001503292000000000000009999123100000010000000000000BRCSMGACNOR5127
012013081514CSMO11      010ISHARES CSMOCI           R$  000000000469900000000046990000000004699000000000469900000000046990000000003800000000000490000002000000000000000060000000000000281940000000000000009999123100000010000000000000BRCSMOCTF002100
012013081596CSMO11F     020ISHARES CSMOCI           R$  000000000460000000000046000000000004600000000000460000000000046000000000004600000000000000000001000000000000000002000000000000009200000000000000009999123100000010000000000000BRCSMOCTF002100
012013081502CSNA3       010SID NACIONALON  EDJ      R$  000000000074800000000007890000000000742000000000077300000000007800000000000778000000000078024039000000000015989000000000012369154100000000000000009999123100000010000000000000BRCSNAACNOR6243
012013081596CSNA3F      020SID NACIONALON  EDJ      R$  000000000075100000000007870000000000748000000000076600000000007830000000000779000000000078500130000000000000004005000000000003068889000000000000009999123100000010000000000000BRCSNAACNOR6243
012013081562CSNA3T      030SID NACIONALON  EDJ   032R$  000000000075300000000007540000000000753000000000075300000000007540000000000000000000000000000002000000000000002000000000000001507519000000000000009999123100000010000000000000BRCSNAACNOR6243
012013081562CSNA3T      030SID NACIONALON  EDJ   060R$  000000000078900000000007900000000000789000000000078900000000007900000000000000000000000000000002000000000000060000000000000047352294000000000000009999123100000010000000000000BRCSNAACNOR6243
012013081562CSNA3T      030SID NACIONALON  EDJ   090R$  000000000079400000000007950000000000794000000000079400000000007950000000000000000000000000000002000000000000000400000000000000317863000000000000009999123100000010000000000000BRCSNAACNOR6243
012013081578CSNAH56     070CSNA    /EDJON        000R$  000000000024400000000002440000000000244000000000024400000000002440000000000000000000000000000001000000000000010000000000000002440000000000000054002013081900000010000000000000BRCSNAACNOR6242
012013081578CSNAH6      070CSNA    /EDJON        000R$  000000000018000000000002080000000000180000000000020600000000002080000000000185000000000000000003000000000000004000000000000000826400000000000058002013081900000010000000000000BRCSNAACNOR6242
012013081578CSNAH64     070CSNA    /EDJON        000R$  000000000016100000000001610000000000161000000000016100000000001610000000000000000000000000000001000000000000004500000000000000724500000000000062002013081900000010000000000000BRCSNAACNOR6242
012013081578CSNAH68     070CSNA    /EDJON        000R$  000000000011500000000001150000000000115000000000011500000000001150000000000000000000000000000001000000000000000900000000000000103500000000000066002013081900000010000000000000BRCSNAACNOR6242
012013081578CSNAH7      070CSNA    /EDJON        000R$  000000000008700000000001050000000000087000000000009400000000001050000000000065000000000000000003000000000000004600000000000000434400000000000068002013081900000010000000000000BRCSNAACNOR6242
012013081578CSNAH72     070CSNA    /EDJON        000R$  000000000008000000000000800000000000080000000000008000000000000800000000000065000000000000000001000000000000000600000000000000048000000000000070002013081900000010000000000000BRCSNAACNOR6242
012013081578CSNAH74     070CSNA    /EDJON        000R$  000000000004800000000000690000000000048000000000006700000000000670000000000000000000000000000011000000000000018800000000000001264400000000000072002013081900000010000000000000BRCSNAACNOR6242
012013081578CSNAH78     070CSNA    /EDJON        000R$  000000000001200000000000120000000000012000000000001200000000000120000000000001000000000000000003000000000000020000000000000000240000000000000076002013081900000010000000000000BRCSNAACNOR6242
012013081578CSNAH8      070CSNA    /EDJON        000R$  000000000000500000000000200000000000005000000000001000000000000140000000000008000000000001300014000000000000017800000000000000186000000000000078002013081900000010000000000000BRCSNAACNOR6242
012013081578CSNAI62     070CSNA    /EDJON        000R$  000000000018000000000001800000000000180000000000018000000000001800000000000000000000000000000001000000000000003800000000000000684000000000000060002013091600000010000000000000BRCSNAACNOR6242
012013081578CSNAI7      070CSNA    /EDJON        000R$  000000000009600000000001200000000000096000000000011200000000001130000000000098000000000012300008000000000000004200000000000000471700000000000068002013091600000010000000000000BRCSNAACNOR6242
012013081578CSNAI72     070CSNA    /EDJON        000R$  000000000009800000000001000000000000098000000000009800000000001000000000000000000000000000000006000000000000002300000000000000226400000000000070002013091600000010000000000000BRCSNAACNOR6242
012013081578CSNAI74     070CSNA  FM/EDJON        000R$  000000000006500000000000870000000000061000000000007500000000000870000000000000000000000000000006000000000000019500000000000001463700000000000072002013091600000010000000000000BRCSNAACNOR6242
012013081578CSNAI76     070CSNA  FM/EDJON        000R$  000000000005100000000000740000000000048000000000005700000000000680000000000000000000000000000008000000000000014700000000000000844000000000000074002013091600000010000000000000BRCSNAACNOR6242
012013081578CSNAI78     070CSNA  FM/EDJON        000R$  000000000003800000000000580000000000038000000000005500000000000580000000000000000000000000000008000000000000016200000000000000905500000000000076002013091600000010000000000000BRCSNAACNOR6242
012013081578CSNAI8      070CSNA  FM/EDJON        000R$  000000000003100000000000500000000000030000000000004100000000000450000000000041000000000004500094000000000000127700000000000005338500000000000078002013091600000010000000000000BRCSNAACNOR6242
