00COTAHIST.2013BOVESPA 20130927                                                                                                                                                                                                                      
012013092702ABCB4       010ABC BRASIL  PN      N2   R$  000000000125500000000013210000000001255000000000129100000000013000000000001300000000000131300703000000000000474500000000000613003000000000000000009999123100000010000000000000BRABCBACNPR4120
012013092796ABCB4F      020ABC BRASIL  PN      N2   R$  000000000127400000000013230000000001274000000000129900000000013110000000001304000000000133900024000000000000000459000000000000596376000000000000009999123100000010000000000000BRABCBACNPR4120
012013092712ABCP11      010FII ABC IMOBCI           R$  000000000100000000000010000000000000931000000000095400000000009310000000000930000000000100000007000000000000000232000000000000221415000000000000009999123100000010000000000000BRABCPCTF000215
012013092702ABRE11      010ABRIL EDUCA UNT     N2   R$  000000000334000000000033660000000003290000000000332300000000033200000000003320000000000332700433000000000000096200000000000319760000000000000000009999123100000010000000000000BRABRECDAM15102
012013092796ABRE11F     020ABRIL EDUCA UNT     N2   R$  000000000330000000000033000000000003300000000000330000000000033000000000003300000000000335000002000000000000000002000000000000006600000000000000009999123100000010000000000000BRABRECDAM15102
012013092702AEDU3       010ANHANGUERA  ON      NM   R$  000000000134000000000013450000000001314000000000132900000000013350000000001335000000000133605194000000000003396300000000004515876100000000000000009999123100000010000000000000BRAEDUACNOR9107
012013092796AEDU3F      020ANHANGUERA  ON      NM   R$  000000000132500000000013390000000001310000000000132200000000013280000000001320000000000134000015000000000000000319000000000000422023000000000000009999123100000010000000000000BRAEDUACNOR9107
012013092712AEFI11      010FII AESAPAR CI           R$  000000001188000000000119500000000011850000000001189800000000118500000000011850000000001190000010000000000000000699000000000008316837000000000000009999123100000010000000000000BRAEFICTF002121
012013092702AELP3       010AES ELPA    ON           R$  000000000093900000000009400000000000939000000000093900000000009400000000000900000000000094700004000000000000000400000000000000375700000000000000009999123100000010000000000000BRAELPACNOR2119
012013092796AELP3F      020AES ELPA    ON           R$  000000000097500000000009750000000000930000000000093800000000009300000000000849000000000107500002000000000000000011000000000000010320000000000000009999123100000010000000000000BRAELPACNOR2119
012013092712AGCX11      010FII AG CAIXACI           R$  000000009550000000000960000000000095000000000009512600000000960000000000095500000000009600000007000000000000000142000000000013508000000000000000009999123100000010000000000000BRAGCXCTF003110
012013092702AGRO3       010BRASILAGRO  ON      NM   R$  000000000101400000000010140000000000986000000000099800000000009900000000000990000000000099700114000000000000031700000000000031642900000000000000009999123100000010000000000000BRAGROACNOR7102
012013092762AGRO3T      030BRASILAGRO  ON      NM031R$  000000000101700000000010180000000001017000000000101700000000010180000000000000000000000000000002000000000000010000000000000010170700000000000000009999123100000010000000000000BRAGROACNOR7102
012013092702ALLL3       010ALL AMER LATON      NM   R$  000000000089500000000009030000000000880000000000088900000000008840000000000884000000000088505576000000000001935700000000001721366800000000000000009999123100000010000000000000BRALLLACNOR6118
012013092796ALLL3F      020ALL AMER LATON      NM   R$  000000000089600000000009030000000000880000000000089000000000008810000000000881000000000090000047000000000000001254000000000001116394000000000000009999123100000010000000000000BRALLLACNOR6118
012013092762ALLL3T      030ALL AMER LATON      NM031R$  000000000090800000000009090000000000890000000000089200000000008910000000000000000000000000000004000000000000017200000000000015353231000000000000009999123100000010000000000000BRALLLACNOR6118
012013092762ALLL3T      030ALL AMER LATON      NM090R$  000000000090100000000009020000000000901000000000090100000000009020000000000000000000000000000002000000000000005000000000000004507274000000000000009999123100000010000000000000BRALLLACNOR6118
012013092712ALMI11B     010FII TORRE ALCI      MB   R$  000000030900000000003100000000000309000000000030923000000003100000000000310000000000031099900003000000000000000039000000000012060000000000000000009999123100000010000000000000BRALMICTF003205
012013092796ALPA3F      020ALPARGATAS  ON      N1   R$  000000000125900000000012590000000001259000000000125900000000012590000000001188000000000129900001000000000000000002000000000000002518000000000000009999123100000010000000000000BRALPAACNOR0203
012013092702ALPA4       010ALPARGATAS  PN      N1   R$  000000000145000000000014750000000001437000000000145100000000014450000000001445000000000144801723000000000000424900000000000616683200000000000000009999123100000010000000000000BRALPAACNPR7203
012013092796ALPA4F      020ALPARGATAS  PN      N1   R$  000000000147000000000014710000000001421000000000145700000000014600000000001421000000000147600014000000000000000349000000000000508802000000000000009999123100000010000000000000BRALPAACNPR7203
012013092778ALPAC43     070ALPA        PN      N1000R$  000000000017000000000001700000000000170000000000017000000000001700000000000000000000000000000001000000000000023000000000000003910000000000000135002014031700000010000000000000BRALPAACNPR7203
012013092778ALPAK15     070ALPA        PN      N1000R$  000000000002500000000000250000000000025000000000002500000000000250000000000000000000000000000002000000000000026200000000000000655000000000000150002013111800000010000000000000BRALPAACNPR7203
012013092702ALSC3       010ALIANSCE    ON      NM   R$  000000000200200000000020130000000001972000000000199500000000019980000000001993000000000199801081000000000000184100000000000367424000000000000000009999123100000010000000000000BRALSCACNOR0104
012013092796ALSC3F      020ALIANSCE    ON      NM   R$  000000000198000000000019930000000001980000000000199100000000019930000000001990000000000210000002000000000000000012000000000000023903000000000000009999123100000010000000000000BRALSCACNOR0104
012013092702ALUP11      010ALUPAR      UNT     N2   R$  000000000177000000000017800000000001735000000000176400000000017800000000001750000000000178000251000000000000108700000000000191772300000000000000009999123100000010000000000000BRALUPCDAM15100
012013092702AMAR3       010LOJAS MARISAON      NM   R$  000000000217900000000021990000000002110000000000217700000000021500000000002150000000000217901580000000000000364900000000000794472700000000000000009999123100000010000000000000BRAMARACNOR4109
012013092796AMAR3F      020LOJAS MARISAON      NM   R$  000000000217200000000021820000000002172000000000217900000000021780000000002166000000000220400009000000000000000230000000000000501211000000000000009999123100000010000000000000BRAMARACNOR4109
012013092762AMAR3T      030LOJAS MARISAON      NM031R$  000000000218600000000021870000000002186000000000218600000000021870000000000000000000000000000002000000000000010000000000000021867090000000000000009999123100000010000000000000BRAMARACNOR4109
012013092702AMBV3       010AMBEV       ON           R$  000000000874900000000087920000000008700000000000874000000000087550000000008704000000000875501133000000000000163800000000001431690200000000000000009999123100000010000000000000BRAMBVACNOR4154
012013092796AMBV3F      020AMBEV       ON           R$  000000000873200000000087900000000008713000000000874400000000087300000000008602000000000874800053000000000000001111000000000009715372000000000000009999123100000010000000000000BRAMBVACNOR4154
012013092702AMBV4       010AMBEV       PN           R$  000000000872600000000087930000000008703000000000872900000000087200000000008710000000000872005990000000000001179100000000010293336100000000000000009999123100000010000000000000BRAMBVACNPR1154
012013092796AMBV4F      020AMBEV       PN           R$  000000000874400000000087800000000008700000000000873000000000087200000000008710000000000872000134000000000000003141000000000027417461000000000000009999123100000010000000000000BRAMBVACNPR1154
012013092762AMBV4T      030AMBEV       PN        017R$  000000000877200000000087730000000008772000000000877200000000087730000000000000000000000000000002000000000000000300000000000002631847000000000000009999123100000010000000000000BRAMBVACNPR1154
012013092762AMBV4T      030AMBEV       PN        063R$  000000000885600000000088570000000008856000000000885600000000088570000000000000000000000000000002000000000000001000000000000008856585000000000000009999123100000010000000000000BRAMBVACNPR1154
012013092782AMBVX50     080AMBVE       PN        000R$  000000000006700000000000670000000000067000000000006700000000000670000000000000000000000000000001000000000000025000000000000001675000000000000800002013121600000010000000000000BRAMBVACNPR1154
012013092702ARTR3       010ARTERIS     ON      NM   R$  000000000194100000000019550000000001928000000000194000000000019300000000001930000000000194502953000000000000458200000000000889268600000000000000009999123100000010000000000000BRARTRACNOR3101
012013092796ARTR3F      020ARTERIS     ON      NM   R$  000000000195900000000019600000000001940000000000194400000000019400000000001878000000000197300012000000000000000302000000000000587233000000000000009999123100000010000000000000BRARTRACNOR3101
012013092702ARZZ3       010AREZZO CO   ON      NM   R$  000000000387500000000039090000000003861000000000388500000000039000000000003900000000000391101063000000000000163700000000000636039700000000000000009999123100000010000000000000BRARZZACNOR3109
012013092796ARZZ3F      020AREZZO CO   ON      NM   R$  000000000389900000000039000000000003850000000000388200000000038930000000003830000000000387000010000000000000000152000000000000590158000000000000009999123100000010000000000000BRARZZACNOR3109
012013092702AUTM3       010AUTOMETAL   ON      NM   R$  000000000179700000000018190000000001797000000000180800000000018100000000001810000000000181700393000000000000194700000000000352204900000000000000009999123100000010000000000000BRAUTMACNOR8109
012013092796AUTM3F      020AUTOMETAL   ON      NM   R$  000000000176800000000017680000000001768000000000176800000000017680000000001768000000000189100001000000000000000002000000000000003536000000000000009999123100000010000000000000BRAUTMACNOR8109
012013092702BAHI3       010BAHEMA      ON           R$  000000000049500000000005190000000000495000000000049600000000005000000000000481000000000050000006000000000000002800000000000001391400000000000000009999123100000010000000000000BRBAHIACNOR1066
012013092702BAZA3       010AMAZONIA    ON           R$  000000000003200000000000320000000000032000000000003200000000000320000000000032000000000003300005000000000000019000000000000000608000000000000000009999123100000010000000000000BRBAZAACNOR0163
012013092796BAZA3F      020AMAZONIA    ON           R$  000000000003200000000000330000000000031000000000003100000000000330000000000031000000000003300005000000000000001000000000000000031560000000000000009999123100000010000000000000BRBAZAACNOR0163
012013092702BBAS3       010BRASIL      ON      NM   R$  000000000257800000000026700000000002570000000000264600000000026430000000002642000000000264316607000000000009096400000000024073317600000000000000009999123100000010000000000000BRBBASACNOR3239
012013092796BBAS3F      020BRASIL      ON      NM   R$  000000000255000000000026670000000002550000000000264100000000026400000000002631000000000264000399000000000000011479000000000030320336000000000000009999123100000010000000000000BRBBASACNOR3239
012013092762BBAS3T      030BRASIL      ON      NM017R$  000000000266400000000026650000000002664000000000266400000000026650000000000000000000000000000002000000000000010000000000000026646160000000000000009999123100000010000000000000BRBBASACNOR3239
012013092762BBAS3T      030BRASIL      ON      NM102R$  000000000270800000000027090000000002708000000000270800000000027090000000000000000000000000000002000000000000000500000000000001354452000000000000009999123100000010000000000000BRBBASACNOR3239
012013092762BBAS3T      030BRASIL      ON      NM122R$  000000000271700000000027320000000002717000000000272400000000027310000000000000000000000000000006000000000000003500000000000009537270000000000000009999123100000010000000000000BRBBASACNOR3239
012013092778BBASA31     070BBAS        ON      NM000R$  000000000002900000000000300000000000029000000000002900000000000300000000000000000000000000000009000000000000020000000000000000580100000000000310002014012000000010000000000000BRBBASACNOR3239
012013092778BBASB23     070BBAS        ON      NM000R$  000000000052000000000005200000000000520000000000052000000000005200000000000000000000000000000001000000000000000200000000000000104000000000000219502014021700000010000000000000BRBBASACNOR3237
012013092778BBASC26     070BBAS        ON      NM000R$  000000000026500000000002650000000000265000000000026500000000002650000000000000000000000000000001000000000000001000000000000000265000000000000260002014031700000010000000000000BRBBASACNOR3239
012013092778BBASJ23     070BBAS        ON      NM000R$  000000000046000000000005040000000000460000000000046400000000005040000000000480000000000000000002000000000000001100000000000000510400000000000216102013102100000010000000000000BRBBASACNOR3235
012013092778BBASJ24     070BBAS        ON      NM000R$  000000000035000000000003950000000000350000000000038700000000003860000000000290000000000000000010000000000000017400000000000006739500000000000227102013102100000010000000000000BRBBASACNOR3236
012013092778BBASJ25     070BBAS  FM    ON      NM000R$  000000000022500000000002840000000000225000000000026900000000002430000000000243000000000029800157000000000000216900000000000058418300000000000239502013102100000010000000000000BRBBASACNOR3237
012013092778BBASJ26     070BBAS  FM    ON      NM000R$  000000000017800000000002230000000000178000000000020900000000002070000000000205000000000000000149000000000000154800000000000032496600000000000246102013102100000010000000000000BRBBASACNOR3235
012013092778BBASJ27     070BBAS  FM    ON      NM000R$  000000000007200000000001400000000000072000000000012400000000001230000000000114000000000014800673000000000000312000000000000038853500000000000256102013102100000010000000000000BRBBASACNOR3235
012013092778BBASJ28     070BBAS  FM    ON      NM000R$  000000000002300000000000530000000000023000000000004300000000000440000000000041000000000004600557000000000000574200000000000025100400000000000269502013102100000010000000000000BRBBASACNOR3237
012013092778BBASJ29     070BBAS  FM    ON      NM000R$  000000000001000000000000270000000000010000000000002200000000000220000000000020000000000002500172000000000000346500000000000007946200000000000276102013102100000010000000000000BRBBASACNOR3235
012013092778BBASJ30     070BBAS        ON      NM000R$  000000000000500000000000130000000000005000000000000900000000000130000000000007000000000001300039000000000000095800000000000000873700000000000286102013102100000010000000000000BRBBASACNOR3235
012013092778BBASJ31     070BBAS        ON      NM000R$  000000000000100000000000020000000000001000000000000100000000000020000000000001000000000000900002000000000000010500000000000000020500000000000307302013102100000010000000000000BRBBASACNOR3238
012013092778BBASJ32     070BBAS        ON      NM000R$  000000000000200000000000020000000000002000000000000200000000000020000000000000000000000000000001000000000000002500000000000000005000000000000320002013102100000010000000000000BRBBASACNOR3239
012013092778BBASJ56     070BBAS        ON      NM000R$  000000000015500000000001760000000000155000000000016500000000001760000000000000000000000000000074000000000000008300000000000001374000000000000251102013102100000010000000000000BRBBASACNOR3235
012013092778BBASK25     070BBAS  FM    ON      NM000R$  000000000031100000000003330000000000311000000000032100000000003130000000000000000000000000000079000000000000120200000000000038687600000000000237102013111800000010000000000000BRBBASACNOR3236
012013092778BBASK26     070BBAS  FM    ON      NM000R$  000000000022900000000002470000000000225000000000023400000000002300000000000100000000000000000189000000000000096900000000000022755600000000000247102013111800000010000000000000BRBBASACNOR3236
012013092778BBASK27     070BBAS  FM    ON      NM000R$  000000000014800000000001720000000000131000000000016100000000001560000000000045000000000015500132000000000000072600000000000011746200000000000257102013111800000010000000000000BRBBASACNOR3236
012013092778BBASK28     070BBAS  FM    ON      NM000R$  000000000006000000000001040000000000060000000000009100000000000980000000000090000000000000000041000000000000052400000000000004801600000000000267102013111800000010000000000000BRBBASACNOR3236
012013092778BBASK29     070BBAS  FM    ON      NM000R$  000000000003100000000000480000000000031000000000004400000000000400000000000024000000000005400294000000000000427900000000000018989600000000000279502013111800000010000000000000BRBBASACNOR3237
012013092778BBASK30     070BBAS        ON      NM000R$  000000000002100000000000250000000000021000000000002300000000000230000000000010000000000000000067000000000000045100000000000001049600000000000289502013111800000010000000000000BRBBASACNOR3237
012013092778BBASK31     070BBAS        ON      NM000R$  000000000001000000000000110000000000010000000000001000000000000110000000000007000000000000000002000000000000015000000000000000164500000000000299502013111800000010000000000000BRBBASACNOR3237
012013092778BBASK32     070BBAS        ON      NM000R$  000000000000300000000000030000000000003000000000000300000000000030000000000002000000000009800001000000000000000700000000000000002100000000000320002013111800000010000000000000BRBBASACNOR3239
012013092778BBASK56     070BBAS        ON      NM000R$  000000000012500000000001250000000000125000000000012500000000001250000000000000000000000000000036000000000000010000000000000001250000000000000262302013111800000010000000000000BRBBASACNOR3238
012013092778BBASL26     070BBAS        ON      NM000R$  000000000026800000000002760000000000266000000000027300000000002760000000000016000000000000000005000000000000502300000000000137412800000000000246102013121600000010000000000000BRBBASACNOR3235
012013092778BBASL28     070BBAS        ON      NM000R$  000000000010100000000001210000000000101000000000011600000000001200000000000016000000000000000016000000000000007200000000000000839100000000000269502013121600000010000000000000BRBBASACNOR3237
012013092778BBASL29     070BBAS        ON      NM000R$  000000000009100000000000980000000000085000000000008900000000000910000000000010000000000000000023000000000000506900000000000045330400000000000276102013121600000010000000000000BRBBASACNOR3235
012013092778BBASL30     070BBAS        ON      NM000R$  000000000002100000000000210000000000021000000000002100000000000210000000000007000000000000000004000000000000010000000000000000210000000000000300002013121600000010000000000000BRBBASACNOR3239
012013092778BBASL60     070BBAS        ON      NM000R$  000000000005600000000000610000000000054000000000005700000000000560000000000014000000000000000050000000000000032600000000000001858400000000000286202013121600000010000000000000BRBBASACNOR3233
012013092782BBASV24     080BBASE FM    ON      NM000R$  000000000000300000000000030000000000002000000000000200000000000020000000000000000000000000500021000000000000018000000000000000043500000000000227102013102100000010000000000000BRBBASACNOR3236
012013092782BBASV25     080BBASE FM    ON      NM000R$  000000000000900000000000090000000000005000000000000600000000000060000000000005000000000001300060000000000000180400000000000001210700000000000239502013102100000010000000000000BRBBASACNOR3237
012013092782BBASV26     080BBASE FM    ON      NM000R$  000000000001400000000000140000000000008000000000001000000000000080000000000007000000000001100119000000000000197100000000000002021700000000000246102013102100000010000000000000BRBBASACNOR3235
012013092782BBASV27     080BBASE FM    ON      NM000R$  000000000004000000000000400000000000022000000000002700000000000280000000000025000000000003000335000000000000250500000000000007004400000000000256102013102100000010000000000000BRBBASACNOR3235
012013092782BBASV28     080BBASE       ON      NM000R$  000000000008800000000000880000000000071000000000007900000000000790000000000063000000000008200080000000000000068800000000000005437800000000000269502013102100000010000000000000BRBBASACNOR3237
012013092782BBASW24     080BBASE FM    ON      NM000R$  000000000000900000000000110000000000009000000000000900000000000110000000000006000000000000000013000000000000025200000000000000237300000000000229502013111800000010000000000000BRBBASACNOR3237
012013092782BBASW25     080BBASE FM    ON      NM000R$  000000000001500000000000170000000000015000000000001500000000000170000000000010000000000000000012000000000000025200000000000000390600000000000237102013111800000010000000000000BRBBASACNOR3236
012013092782BBASW26     080BBASE FM    ON      NM000R$  000000000003000000000000310000000000028000000000002900000000000300000000000000000000000000000013000000000000024700000000000000729700000000000247102013111800000010000000000000BRBBASACNOR3236
012013092782BBASW27     080BBASE FM    ON      NM000R$  000000000005100000000000570000000000050000000000005300000000000530000000000000000000000000000115000000000000329800000000000017610200000000000257102013111800000010000000000000BRBBASACNOR3236
012013092782BBASX25     080BBASE       ON      NM000R$  000000000003000000000000300000000000027000000000002800000000000270000000000025000000000004600004000000000000000400000000000000011400000000000236102013121600000010000000000000BRBBASACNOR3235
012013092702BBDC3       010BRADESCO    ON      N1   R$  000000000352100000000036300000000003510000000000359700000000035910000000003591000000000361106533000000000001806800000000006499342300000000000000009999123100000010000000000000BRBBDCACNOR1606
012013092796BBDC3F      020BRADESCO    ON      N1   R$  000000000353000000000036970000000003530000000000359700000000035910000000003571000000000362000058000000000000001706000000000006136926000000000000009999123100000010000000000000BRBBDCACNOR1606
012013092702BBDC4       010BRADESCO    PN      N1   R$  000000000308100000000031840000000003079000000000315500000000031700000000003163000000000317026012000000000008388100000000026470148800000000000000009999123100000010000000000000BRBBDCACNPR8606
012013092796BBDC4F      020BRADESCO    PN      N1   R$  000000000308000000000031820000000003080000000000315500000000031600000000003147000000000317800390000000000000009939000000000031360192000000000000009999123100000010000000000000BRBBDCACNPR8606
012013092762BBDC4T      030BRADESCO    PN      N1090R$  000000000322400000000032250000000003224000000000322400000000032250000000000000000000000000000002000000000000000900000000000002901668000000000000009999123100000010000000000000BRBBDCACNPR8606
012013092762BBDC4T      030BRADESCO    PN      N1122R$  000000000323700000000032580000000003237000000000324000000000032580000000000000000000000000000006000000000000045400000000000147097588000000000000009999123100000010000000000000BRBBDCACNPR8606
012013092778BBDCJ1      070BBDC        PN      N1000R$  000000000008000000000000940000000000077000000000008600000000000940000000000000000000000000000052000000000000012100000000000001043200000000000314402013102100000010000000000000BRBBDCACNPR8603
012013092778BBDCJ2      070BBDC        PN      N1000R$  000000000004300000000000510000000000043000000000004800000000000490000000000037000000000005000074000000000000065000000000000003158800000000000324402013102100000010000000000000BRBBDCACNPR8603
012013092778BBDCJ29     070BBDC        PN      N1000R$  000000000031000000000003170000000000301000000000031000000000003010000000000192000000000033000019000000000000003000000000000000932300000000000287602013102100000010000000000000BRBBDCACNPR8602
012013092778BBDCJ30     070BBDC        PN      N1000R$  000000000018100000000002310000000000181000000000021300000000002130000000000121000000000000000214000000000000219700000000000046916900000000000297602013102100000010000000000000BRBBDCACNPR8602
012013092778BBDCJ31     070BBDC        PN      N1000R$  000000000009500000000001500000000000095000000000013000000000001320000000000054000000000016800285000000000000141800000000000018541600000000000307602013102100000010000000000000BRBBDCACNPR8602
012013092778BBDCJ32     070BBDC        PN      N1000R$  000000000005100000000000810000000000051000000000006900000000000690000000000058000000000007500275000000000000340000000000000023530400000000000317602013102100000010000000000000BRBBDCACNPR8602
012013092778BBDCJ33     070BBDC        PN      N1000R$  000000000002500000000000390000000000025000000000003200000000000380000000000014000000000003800071000000000000123100000000000004048000000000000327602013102100000010000000000000BRBBDCACNPR8602
012013092778BBDCJ34     070BBDC        PN      N1000R$  000000000001200000000000160000000000012000000000001400000000000150000000000012000000000001600173000000000000279900000000000004088300000000000337202013102100000010000000000000BRBBDCACNPR8600
012013092778BBDCJ35     070BBDC        PN      N1000R$  000000000000600000000000060000000000006000000000000600000000000060000000000005000000000000000001000000000000010000000000000000060000000000000349802013102100000010000000000000BRBBDCACNPR8605
012013092778BBDCJ93     070BBDC        ON      N1000R$  000000000015500000000001550000000000155000000000015500000000001550000000000000000000000000000002000000000000080900000000000012539500000000000435002014102000000010000000000000BRBBDCACNOR1606
012013092778BBDCK30     070BBDC        PN      N1000R$  000000000019800000000002530000000000198000000000023800000000002460000000000000000000000000000219000000000000238100000000000056740900000000000299802013111800000010000000000000BRBBDCACNPR8605
012013092778BBDCK31     070BBDC        PN      N1000R$  000000000013200000000001800000000000132000000000014900000000001790000000000102000000000000000068000000000000124300000000000018610300000000000309802013111800000010000000000000BRBBDCACNPR8605
012013092778BBDCK32     070BBDC        PN      N1000R$  000000000009900000000001320000000000094000000000011700000000001320000000000052000000000000000046000000000000044800000000000005272500000000000317402013111800000010000000000000BRBBDCACNPR8601
012013092778BBDCK33     070BBDC        PN      N1000R$  000000000005900000000000850000000000055000000000007500000000000830000000000021000000000000000290000000000000211900000000000015900000000000000327602013111800000010000000000000BRBBDCACNPR8602
012013092778BBDCK34     070BBDC        PN      N1000R$  000000000002800000000000420000000000027000000000003700000000000420000000000011000000000000000132000000000000152300000000000005712500000000000339602013111800000010000000000000BRBBDCACNPR8604
012013092778BBDCK35     070BBDC        PN      N1000R$  000000000002000000000000240000000000020000000000002200000000000240000000000000000000000000000005000000000000014500000000000000328900000000000347602013111800000010000000000000BRBBDCACNPR8602
012013092778BBDCK36     070BBDC        PN      N1000R$  000000000001200000000000120000000000011000000000001100000000000110000000000000000000000000000002000000000000003600000000000000042700000000000357402013111800000010000000000000BRBBDCACNPR8601
012013092778BBDCK37     070BBDC        PN      N1000R$  000000000000700000000000070000000000007000000000000700000000000070000000000000000000000000000001000000000000004000000000000000028000000000000370002013111800000010000000000000BRBBDCACNPR8606
012013092778BBDCL1      070BBDC        PN      N1000R$  000000000022200000000002220000000000222000000000022200000000002220000000000000000000000000000001000000000000000500000000000000111000000000000307202013121600000010000000000000BRBBDCACNPR8600
012013092778BBDCL29     070BBDC        PN      N1000R$  000000000035000000000003500000000000350000000000035000000000003500000000000000000000000000000001000000000000001000000000000000350000000000000287602013121600000010000000000000BRBBDCACNPR8602
012013092778BBDCL3      070BBDC        PN      N1000R$  000000000009300000000000930000000000093000000000009300000000000930000000000000000000000000000001000000000000003000000000000000279000000000000327202013121600000010000000000000BRBBDCACNPR8601
012013092778BBDCL32     070BBDC        PN      N1000R$  000000000015400000000001730000000000150000000000016300000000001670000000000000000000000018500017000000000000009100000000000001485600000000000317202013121600000010000000000000BRBBDCACNPR8600
012013092778BBDCL34     070BBDC        PN      N1000R$  000000000007000000000000760000000000068000000000007400000000000730000000000000000000000008500025000000000000016400000000000001226800000000000337202013121600000010000000000000BRBBDCACNPR8600
012013092778BBDCL35     070BBDC        PN      N1000R$  000000000004500000000000520000000000044000000000004600000000000520000000000009000000000009000014000000000000006400000000000000294700000000000347202013121600000010000000000000BRBBDCACNPR8600
012013092778BBDCL36     070BBDC        PN      N1000R$  000000000010600000000001300000000000106000000000011700000000001220000000000000000000000000000020000000000000010000000000000001177600000000000324102013121600000010000000000000BRBBDCACNPR8597
012013092778BBDCL5      070BBDC        PN      N1000R$  000000000003400000000000340000000000034000000000003400000000000340000000000000000000000000000001000000000000003000000000000000102000000000000350002013121600000010000000000000BRBBDCACNPR8606
012013092782BBDCV1      080BBDCE       PN      N1000R$  000000000006900000000000690000000000056000000000005900000000000570000000000000000000000000000009000000000000010400000000000000617700000000000314402013102100000010000000000000BRBBDCACNPR8603
012013092782BBDCV24     080BBDCE       PN      N1000R$  000000000000100000000000010000000000001000000000000100000000000010000000000000000000000000000001000000000000015000000000000000015000000000000239602013102100000010000000000000BRBBDCACNPR8604
012013092782BBDCV26     080BBDCE       PN      N1000R$  000000000000200000000000020000000000002000000000000200000000000020000000000000000000000000000001000000000000010000000000000000020000000000000259602013102100000010000000000000BRBBDCACNPR8604
012013092782BBDCV29     080BBDCE       PN      N1000R$  000000000000900000000000090000000000006000000000000600000000000060000000000000000000000000000044000000000000067500000000000000455300000000000287602013102100000010000000000000BRBBDCACNPR8602
012013092782BBDCV30     080BBDCE       PN      N1000R$  000000000001800000000000200000000000014000000000001700000000000160000000000000000000000001700045000000000000063600000000000001093000000000000297602013102100000010000000000000BRBBDCACNPR8602
012013092782BBDCV31     080BBDCE       PN      N1000R$  000000000005200000000000520000000000031000000000004000000000000380000000000029000000000000000071000000000000060500000000000002444600000000000307602013102100000010000000000000BRBBDCACNPR8602
012013092782BBDCV32     080BBDCE       PN      N1000R$  000000000009500000000000960000000000065000000000007700000000000710000000000000000000000000000059000000000000081500000000000006346500000000000317602013102100000010000000000000BRBBDCACNPR8602
012013092782BBDCV33     080BBDCE       PN      N1000R$  000000000013500000000001350000000000135000000000013500000000001350000000000000000000000000000001000000000000002000000000000000270000000000000327602013102100000010000000000000BRBBDCACNPR8602
012013092782BBDCV75     080BBDCE       ON      N1000R$  000000000025500000000002550000000000255000000000025500000000002550000000000000000000000000000002000000000000080900000000000020629500000000000350002014102000000010000000000000BRBBDCACNOR1606
012013092782BBDCV81     080BBDCE       ON      N1000R$  000000000010000000000001000000000000100000000000010000000000001000000000000000000000000000000002000000000000080900000000000008090000000000000315002014102000000010000000000000BRBBDCACNOR1606
012013092782BBDCW30     080BBDCE       PN      N1000R$  000000000005100000000000530000000000040000000000004600000000000400000000000000000000000000000013000000000000021600000000000001002600000000000299802013111800000010000000000000BRBBDCACNPR8605
012013092782BBDCW31     080BBDCE       PN      N1000R$  000000000008500000000000860000000000068000000000007300000000000680000000000000000000000008900038000000000000071600000000000005234900000000000309802013111800000010000000000000BRBBDCACNPR8605
012013092782BBDCW32     080BBDCE       PN      N1000R$  000000000011900000000001210000000000101000000000010700000000001020000000000000000000000000000013000000000000021800000000000002347000000000000317402013111800000010000000000000BRBBDCACNPR8601
012013092782BBDCW9      080BBDCE       PN      N1000R$  000000000003000000000000320000000000023000000000002600000000000230000000000000000000000000000020000000000000029400000000000000773800000000000289802013111800000010000000000000BRBBDCACNPR8605
012013092782BBDCX29     080BBDCE       PN      N1000R$  000000000003900000000000390000000000039000000000003900000000000390000000000000000000000000000004000000000000005000000000000000195000000000000287602013121600000010000000000000BRBBDCACNPR8602
012013092782BBDCX33     080BBDCE       PN      N1000R$  000000000006700000000000670000000000067000000000006700000000000670000000000000000000000000000001000000000000002000000000000000134000000000000297002013121600000010000000000000BRBBDCACNPR8598
012013092712BBFI11B     010FII BB PROGRCI      MB   R$  000000042000000000004250000000000420000000000042353000000004240000000000423500000000042400100007000000000000000049000000000020753000000000000000009999123100000010000000000000BRBBFICTF006198
012013092712BBPO11      010FII BB PRGIICI           R$  000000001106300000000111500000000011063000000001108600000000111250000000011100000000001112500121000000000000012437000000000137878017000000000000009999123100000010000000000000BRBBPOCTF003110
012013092712BBRC11      010FII BB CORP CI           R$  000000000928900000000092890000000009289000000000928900000000092890000000009150000000000928000003000000000000000100000000000000928900000000000000009999123100000010000000000000BRBBRCCTF004124
012013092702BBRK3       010BR BROKERS  ON      NM   R$  000000000058000000000005880000000000577000000000058000000000005780000000000578000000000058001558000000000002768000000000001606727600000000000000009999123100000010000000000000BRBBRKACNOR4108
012013092796BBRK3F      020BR BROKERS  ON      NM   R$  000000000058500000000005930000000000575000000000058700000000005750000000000575000000000065000003000000000000000100000000000000058720000000000000009999123100000010000000000000BRBBRKACNOR4108
012013092702BBSE3       010BBSEGURIDADEON      NM   R$  000000000218000000000022160000000002166000000000219100000000022160000000002210000000000221608064000000000002592200000000005680058400000000000000009999123100000010000000000000BRBBSEACNOR5101
012013092796BBSE3F      020BBSEGURIDADEON      NM   R$  000000000218000000000022130000000002161000000000219000000000022110000000002211000000000221500433000000000000014510000000000031788894000000000000009999123100000010000000000000BRBBSEACNOR5101
012013092762BBSE3T      030BBSEGURIDADEON      NM090R$  000000000222500000000022560000000002217000000000223600000000022560000000000000000000000000000038000000000000500000000000001118436468000000000000009999123100000010000000000000BRBBSEACNOR5101
012013092762BBSE3T      030BBSEGURIDADEON      NM118R$  000000000226700000000022680000000002267000000000226700000000022680000000000000000000000000000004000000000000012300000000000027892618000000000000009999123100000010000000000000BRBBSEACNOR5101
012013092778BBSEA24     070BBSE        ON      NM000R$  000000000003500000000000570000000000035000000000003900000000000570000000000000000000000000000003000000000000060700000000000002395100000000000240002014012000000010000000000000BRBBSEACNOR5101
012013092778BBSEK51     070BBSEE       ON      NM000R$  000000000007500000000000750000000000075000000000007500000000000750000000000000000000000000000003000000000001200000000000000090000000000000000217502013111800000010000000000000BRBBSEACNOR5101
012013092778BBSEK52     070BBSEE       ON      NM000R$  000000000005400000000000550000000000054000000000005400000000000550000000000000000000000000000002000000000001200000000000000065400000000000000222502013111800000010000000000000BRBBSEACNOR5101
012013092782BBSEM21     080BBSEE       ON      NM000R$  000000000006000000000000600000000000055000000000005800000000000550000000000000000000000000000003000000000000060700000000000003580500000000000210002014012000000010000000000000BRBBSEACNOR5101
012013092782BBSEM49     080BBSEE       ON      NM000R$  000000000002500000000000250000000000020000000000002300000000000200000000000000000000000000000003000000000000060700000000000001456000000000000195002014012000000010000000000000BRBBSEACNOR5101
012013092782BBSEW20     080BBSEE       ON      NM000R$  000000000000700000000000070000000000007000000000000700000000000070000000000000000000000000000002000000000001200000000000000008400000000000000195902013111800000010000000000000BRBBSEACNOR5100
012013092782BBSEW21     080BBSEE       ON      NM000R$  000000000003000000000000300000000000030000000000003000000000000300000000000000000000000000000002000000000001200000000000000036000000000000000210002013111800000010000000000000BRBBSEACNOR5101
012013092702BBTG11      010BTG PACTUAL UNT          R$  000000000278500000000029330000000002785000000000283900000000028180000000002818000000000284001011000000000000205300000000000582940900000000000000009999123100000010000000000000BRBBTGUNT007105
012013092796BBTG11F     020BTG PACTUAL UNT          R$  000000000287100000000028800000000002801000000000284100000000028010000000002801000000000290000007000000000000000037000000000000105133000000000000009999123100000010000000000000BRBBTGUNT007105
012013092712BBVJ11      010FII C JARDIMCI           R$  000000000775100000000078000000000007750000000000777000000000077700000000007760000000000780000007000000000000000303000000000002354351000000000000009999123100000010000000000000BRBBVJCTF001133
012013092712BCFF11B     010FII BC FFII CI      MB   R$  000000000905000000000090500000000008859000000000896300000000089510000000008950000000000900000125000000000000007259000000000065063519000000000000009999123100000010000000000000BRBCFFCTF000142
012013092702BDLL4       010BARDELLA    PN           R$  000000000510000000000056390000000005100000000000525500000000054490000000005015000000000555000008000000000000000800000000000004204000000000000000009999123100000010000000000000BRBDLLACNPR8149
012013092796BDLL4F      020BARDELLA    PN           R$  000000000540200000000054050000000005400000000000540200000000054000000000005500000000000750000006000000000000000033000000000000178268000000000000009999123100000010000000000000BRBDLLACNPR8149
012013092702BEEF3       010MINERVA     ON      NM   R$  000000000101700000000010170000000000985000000000099800000000009980000000000995000000000099902055000000000000538100000000000537126000000000000000009999123100000010000000000000BRBEEFACNOR6104
012013092796BEEF3F      020MINERVA     ON      NM   R$  000000000099800000000009980000000000998000000000099800000000009980000000000963000000000099000001000000000000000050000000000000049900000000000000009999123100000010000000000000BRBEEFACNOR6104
012013092702BEES3       010BANESTES    ON           R$  000000000004800000000000500000000000048000000000004900000000000490000000000049000000000005000017000000000000109300000000000005454500000000000000009999123100000010000000000000BRBEESACNOR9244
012013092702BEES4       010BANESTES    PN           R$  000000000004600000000000460000000000046000000000004600000000000460000000000044000000000004600001000000000000000300000000000000013800000000000000009999123100000010000000000000BRBEESACNPR6169
012013092702BEMA3       010BEMATECH    ON      NM   R$  000000000078000000000007910000000000768000000000077900000000007850000000000780000000000078500571000000000000147200000000000114697400000000000000009999123100000010000000000000BRBEMAACNOR0114
012013092702BGIP4       010BANESE      PN           R$  000000000478800000000048000000000004788000000000478800000000048000000000004800000000000499900003000000000000003100000000000014845200000000000000009999123100000010000000000000BRBGIPACNPR8179
012013092702BHGR3       010BHG         ON      NM   R$  000000000148500000000014850000000001450000000000145600000000014520000000001451000000000146300223000000000000036900000000000053747100000000000000009999123100000010000000000000BRBHGRACNOR9101
012013092702BICB4       010BICBANCO    PN      N1   R$  000000000041800000000004370000000000414000000000042800000000004350000000000427000000000043500305000000000000095300000000000040869100000000000000009999123100000010000000000000BRBICBACNPR7131
012013092796BICB4F      020BICBANCO    PN      N1   R$  000000000042600000000004370000000000422000000000042900000000004300000000000424000000000043600006000000000000000078000000000000033527000000000000009999123100000010000000000000BRBICBACNPR7131
012013092762BICB4T      030BICBANCO    PN      N1060R$  000000000043800000000004390000000000438000000000043800000000004390000000000000000000000000000002000000000000009000000000000003945840000000000000009999123100000010000000000000BRBICBACNPR7131
012013092702BIOM3       010BIOMM       ON           R$  000000000093000000000009600000000000930000000000093700000000009600000000000960000000000096500002000000000000004000000000000003750000000000000000009999123100000010000000000000BRBIOMACNOR2101
012013092796BIOM3F      020BIOMM       ON           R$  000000000092800000000009280000000000928000000000092800000000009280000000000850000000000091000001000000000000000043000000000000039904000000000000009999123100000010000000000000BRBIOMACNOR2101
012013092702BISA3       010BROOKFIELD  ON      NM   R$  000000000016600000000001700000000000166000000000016700000000001660000000000166000000000016703530000000000006163200000000001033492700000000000000009999123100000010000000000000BRBISAACNOR8109
012013092796BISA3F      020BROOKFIELD  ON      NM   R$  000000000016800000000001700000000000163000000000016600000000001630000000000163000000000016700015000000000000000337000000000000055989000000000000009999123100000010000000000000BRBISAACNOR8109
012013092762BISA3T      030BROOKFIELD  ON      NM017R$  000000000016800000000001690000000000168000000000016800000000001690000000000000000000000000000002000000000000010000000000000001689240000000000000009999123100000010000000000000BRBISAACNOR8109
012013092762BISA3T      030BROOKFIELD  ON      NM031R$  000000000017000000000001710000000000170000000000017000000000001710000000000000000000000000000008000000000000035000000000000005955813000000000000009999123100000010000000000000BRBISAACNOR8109
012013092762BISA3T      030BROOKFIELD  ON      NM122R$  000000000017000000000001710000000000170000000000017000000000001710000000000000000000000000000002000000000000006000000000000001023888000000000000009999123100000010000000000000BRBISAACNOR8109
012013092712BJRC11      010FII JS RECIMCI           R$  000000009000000000000900000000000090000000000009000000000000900000000000085217000000009490000001000000000000000029000000000002610000000000000000009999123100000010000000000000BRBJRCCTF007110
012013092702BMEB3       010MERC BRASIL ON           R$  000000000166000000000016600000000001571000000000160600000000015710000000001502000000000167900003000000000000000500000000000000803300000000000000009999123100000010000000000000BRBMEBACNOR8190
012013092702BMEB4       010MERC BRASIL PN           R$  000000000109600000000010960000000001096000000000109600000000010960000000001080000000000111000003000000000000002000000000000002192000000000000000009999123100000010000000000000BRBMEBACNPR5191
012013092702BMIN4       010MERC INVEST PN           R$  000000000002500000000000250000000000024000000000002400000000000240000000000024000000000002500002000000000000010000000000000000245000000000000000009999123100000010000000000000BRBMINACNPR1160
012013092796BMIN4F      020MERC INVEST PN           R$  000000000002700000000000270000000000027000000000002700000000000270000000000023000000000003000001000000000000000059000000000000001593000000000000009999123100000010000000000000BRBMINACNPR1160
012013092702BMKS3       010BIC MONARK  ON           R$  000000003400000000000340000000000034000000000003400000000000340000000000032000000000003400000001000000000000000002000000000000068000000000000000009999123100000010000000000000BRBMKSACNOR9155
012013092712BMLC11B     010FII BMBRC LCCI      MB   R$  000000001150000000000115000000000011500000000001150000000000115000000000011500000000001159900001000000000000000062000000000000713000000000000000009999123100000010000000000000BRBMLCCTF004119
012013092702BMTO4       010BRASMOTOR   PN           R$  000000000008700000000000870000000000087000000000008700000000000870000000000087000000000008800003000000000000086000000000000007482000000000000000009999123100000010000000000000BRBMTOACNPR6065
012013092796BMTO4F      020BRASMOTOR   PN           R$  000000000008300000000000890000000000083000000000008600000000000890000000000085000000000008900005000000000000000700000000000000060800000000000000009999123100000010000000000000BRBMTOACNPR6065
012013092712BNFS11      010FII BANRISULCI           R$  000000000970000000000103300000000009700000000001001600000000103300000000010000000000001033000008000000000000000325000000000003255330000000000000009999123100000010000000000000BRBNFSCTF000112
012013092702BOBR4       010BOMBRIL     PN           R$  000000000063000000000006400000000000630000000000063600000000006400000000000640000000000066000002000000000000000300000000000000191000000000000000009999123100000010000000000000BRBOBRACNPR3127
012013092714BOVA11      010ISHARES BOVACI           R$  000000000522600000000052850000000005226000000000526100000000052520000000005240000000000525205963000000000001070580000000005632788280000000000000009999123100000010000000000000BRBOVACTF003101
012013092796BOVA11F     020ISHARES BOVACI           R$  000000000525500000000052740000000005245000000000525800000000052450000000005265000000000530500005000000000000000012000000000000063098000000000000009999123100000010000000000000BRBOVACTF003101
012013092762BOVA11T     030ISHARES BOVACI        027R$  000000000531100000000053120000000005311000000000531100000000053120000000000000000000000000000004000000000000005000000000000026559624000000000000009999123100000010000000000000BRBOVACTF003101
012013092712BPFF11      010FII ABSOLUTOCI           R$  000000000829900000000083000000000008200000000000826500000000082000000000008200000000000830000052000000000000004947000000000040888960000000000000009999123100000010000000000000BRBPFFCTF002105
012013092702BPHA3       010BR PHARMA   ON      NM   R$  000000000078400000000008050000000000775000000000078900000000008050000000000804000000000080502113000000000001127400000000000890479500000000000000009999123100000010000000000000BRBPHAACNOR6102
012013092796BPHA3F      020BR PHARMA   ON      NM   R$  000000000077500000000008000000000000775000000000078200000000007980000000000776000000000079700005000000000000000147000000000000115070000000000000009999123100000010000000000000BRBPHAACNOR6102
012013092762BPHA3T      030BR PHARMA   ON      NM017R$  000000000080800000000008090000000000808000000000080800000000008090000000000000000000000000000002000000000000018400000000000014878654000000000000009999123100000010000000000000BRBPHAACNOR6102
012013092762BPHA3T      030BR PHARMA   ON      NM031R$  000000000079300000000008070000000000793000000000079700000000008060000000000000000000000000000006000000000000007200000000000005738650000000000000009999123100000010000000000000BRBPHAACNOR6102
012013092762BPHA3T      030BR PHARMA   ON      NM060R$  000000000080900000000008100000000000809000000000080900000000008100000000000000000000000000000002000000000000002800000000000002267693000000000000009999123100000010000000000000BRBPHAACNOR6102
012013092702BPNM4       010PANAMERICANOPN      N1   R$  000000000051400000000005210000000000514000000000051900000000005210000000000516000000000052100052000000000000042800000000000022243200000000000000009999123100000010000000000000BRBPNMACNPR6111
012013092702BRAP3       010BRADESPAR   ON      N1   R$  000000000210400000000021040000000002041000000000206000000000020410000000002041000000000205000024000000000000005700000000000011746300000000000000009999123100000010000000000000BRBRAPACNOR5124
012013092796BRAP3F      020BRADESPAR   ON      N1   R$  000000000209000000000020930000000002084000000000208600000000020840000000002084000000000219000009000000000000000040000000000000083470000000000000009999123100000010000000000000BRBRAPACNOR5124
012013092702BRAP4       010BRADESPAR   PN      N1   R$  000000000254800000000025490000000002505000000000252300000000025200000000002511000000000252004973000000000001306400000000003296175700000000000000009999123100000010000000000000BRBRAPACNPR2124
012013092796BRAP4F      020BRADESPAR   PN      N1   R$  000000000255000000000025500000000002510000000000252000000000025100000000002510000000000255000039000000000000000584000000000001471807000000000000009999123100000010000000000000BRBRAPACNPR2124
012013092714BRAX11      010ISHARES BRAXCI           R$  000000000429600000000042960000000004284000000000428800000000042840000000000000000000000000000003000000000000000030000000000000128660000000000000009999123100000010000000000000BRBRAXCTF002100
012013092712BRCR11      010FII BC FUND CI           R$  000000001290000000000131500000000012855000000001304700000000130500000000013050000000001308900156000000000000013555000000000176860940000000000000009999123100000010000000000000BRBRCRCTF000133
012013092702BRFS3       010BRF SA      ON      NM   R$  000000000561800000000056190000000005516000000000556000000000055450000000005531000000000554507019000000000002182200000000012134675800000000000000009999123100000010000000000000BRBRFSACNOR8110
012013092796BRFS3F      020BRF SA      ON      NM   R$  000000000560000000000056160000000005521000000000556700000000055210000000005521000000000554500104000000000000003104000000000017279590000000000000009999123100000010000000000000BRBRFSACNOR8110
012013092762BRFS3T      030BRF SA      ON      NM017R$  000000000556200000000055630000000005562000000000556200000000055630000000000000000000000000000002000000000000000500000000000002781357000000000000009999123100000010000000000000BRBRFSACNOR8110
012013092762BRFS3T      030BRF SA      ON      NM031R$  000000000561200000000056130000000005577000000000559400000000055780000000000000000000000000000008000000000000000900000000000005034847000000000000009999123100000010000000000000BRBRFSACNOR8110
012013092762BRFS3T      030BRF SA      ON      NM060R$  000000000570400000000057050000000005704000000000570400000000057050000000000000000000000000000002000000000000001000000000000005704064000000000000009999123100000010000000000000BRBRFSACNOR8110
012013092762BRFS3T      030BRF SA      ON      NM090R$  000000000568300000000056840000000005683000000000568300000000056840000000000000000000000000000002000000000000006000000000000034102328000000000000009999123100000010000000000000BRBRFSACNOR8110
012013092778BRFSJ2      070BRFSE       ON      NM000R$  000000000023300000000002330000000000233000000000023300000000002330000000000000000000000000000001000000000000500000000000000116500000000000000545002013102100000010000000000000BRBRFSACNOR8110
012013092702BRGE12      010ALFA CONSORCPNF          R$  000000000039900000000003990000000000399000000000039900000000003990000000000340000000000039900001000000000000000100000000000000039900000000000000009999123100000010000000000000BRBRGEACNPF8091
012013092702BRGE6       010ALFA CONSORCPNB          R$  000000000060000000000006000000000000600000000000060000000000006000000000000592000000000070000001000000000000002000000000000001200000000000000000009999123100000010000000000000BRBRGEACNPB7198
012013092702BRIN3       010BR INSURANCEON      NM   R$  000000000197800000000020200000000001947000000000198600000000020200000000002000000000000202000643000000000000104700000000000208012600000000000000009999123100000010000000000000BRBRINACNOR3106
012013092796BRIN3F      020BR INSURANCEON      NM   R$  000000000197900000000020000000000001960000000000197000000000020000000000001975000000000207800019000000000000000449000000000000884973000000000000009999123100000010000000000000BRBRINACNOR3106
012013092702BRKM3       010BRASKEM     ON      N1   R$  000000000123800000000012380000000001238000000000123800000000012380000000001210000000000123900001000000000000000100000000000000123800000000000000009999123100000010000000000000BRBRKMACNOR1110
012013092796BRKM3F      020BRASKEM     ON      N1   R$  000000000121000000000012100000000001210000000000121000000000012100000000001200000000000123800001000000000000000020000000000000024200000000000000009999123100000010000000000000BRBRKMACNOR1110
012013092702BRKM5       010BRASKEM     PNA     N1   R$  000000000177800000000017950000000001761000000000177300000000017840000000001778000000000178404535000000000000817100000000001449238300000000000000009999123100000010000000000000BRBRKMACNPA4110
012013092796BRKM5F      020BRASKEM     PNA     N1   R$  000000000178800000000018190000000001761000000000177300000000018100000000001760000000000181000012000000000000000239000000000000423929000000000000009999123100000010000000000000BRBRKMACNPA4110
012013092702BRML3       010BR MALLS PARON      NM   R$  000000000206200000000021070000000002041000000000206000000000020500000000002044000000000205005104000000000001435300000000002957315800000000000000009999123100000010000000000000BRBRMLACNOR9105
012013092796BRML3F      020BR MALLS PARON      NM   R$  000000000205900000000021100000000002047000000000206200000000020470000000002045000000000219200044000000000000001218000000000002511522000000000000009999123100000010000000000000BRBRMLACNOR9105
012013092762BRML3T      030BR MALLS PARON      NM031R$  000000000206400000000020650000000002064000000000206400000000020650000000000000000000000000000002000000000000005000000000000010321750000000000000009999123100000010000000000000BRBRMLACNOR9105
012013092762BRML3T      030BR MALLS PARON      NM056R$  000000000208800000000021170000000002088000000000210300000000021170000000000000000000000000000014000000000000009700000000000020399364000000000000009999123100000010000000000000BRBRMLACNOR9105
012013092702BRPR3       010BR PROPERT  ON      NM   R$  000000000197800000000020150000000001970000000000199100000000019950000000001988000000000199504521000000000000857900000000001708189500000000000000009999123100000010000000000000BRBRPRACNOR9112
012013092796BRPR3F      020BR PROPERT  ON      NM   R$  000000000197700000000020690000000001970000000000198300000000019700000000001961000000000197000016000000000000000514000000000001019600000000000000009999123100000010000000000000BRBRPRACNOR9112
012013092796BRSR3F      020BANRISUL    ON      N1   R$  000000000139900000000013990000000001399000000000139900000000013990000000001310000000000150000001000000000000000034000000000000047566000000000000009999123100000010000000000000BRBRSRACNOR3131
012013092702BRSR6       010BANRISUL    PNB     N1   R$  000000000155800000000015990000000001558000000000158300000000015850000000001583000000000158505630000000000001228900000000001946032400000000000000009999123100000010000000000000BRBRSRACNPB4134
012013092796BRSR6F      020BANRISUL    PNB     N1   R$  000000000156000000000016090000000001544000000000158200000000015800000000001580000000000161000019000000000000000590000000000000934007000000000000009999123100000010000000000000BRBRSRACNPB4134
012013092702BSEV3       010BIOSEV      ON      NM   R$  000000000083400000000008410000000000834000000000083900000000008410000000000870000000000091000002000000000000000500000000000000419800000000000000009999123100000010000000000000BRBSEVACNOR3100
012013092702BTOW3       010B2W DIGITAL ON      NM   R$  000000000148700000000015130000000001485000000000149400000000014850000000001485000000000149000796000000000000248100000000000370687500000000000000009999123100000010000000000000BRBTOWACNOR8105
012013092796BTOW3F      020B2W DIGITAL ON      NM   R$  000000000150000000000015370000000001477000000000150000000000014770000000001476000000000153700009000000000000000402000000000000603315000000000000009999123100000010000000000000BRBTOWACNOR8105
012013092762BTOW3T      030B2W DIGITAL ON      NM031R$  000000000150100000000015020000000001501000000000150100000000015020000000000000000000000000000002000000000000001500000000000002252210000000000000009999123100000010000000000000BRBTOWACNOR8105
012013092702BTTL3       010BATTISTELLA ON           R$  000000000009400000000000940000000000094000000000009400000000000940000000000080000000000009200002000000000000000200000000000000018800000000000000009999123100000010000000000000BRBTTLACNOR0105
012013092702BTTL4       010BATTISTELLA PN           R$  000000000010000000000001030000000000097000000000009800000000001030000000000098000000000010300091000000000000038700000000000003811200000000000000009999123100000010000000000000BRBTTLACNPR7105
012013092702BVMF3       010BMFBOVESPA  ON      NM   R$  000000000127000000000012810000000001253000000000126200000000012550000000001254000000000125516863000000000009724800000000012275172300000000000000009999123100000010000000000000BRBVMFACNOR3126
012013092796BVMF3F      020BMFBOVESPA  ON      NM   R$  000000000128000000000012800000000001258000000000126500000000012620000000001255000000000126200066000000000000002029000000000002568232000000000000009999123100000010000000000000BRBVMFACNOR3126
012013092778BVMFJ11     070BVMF        ON      NM000R$  000000000018200000000001840000000000182000000000018300000000001840000000000179000000000000000005000000000000008000000000000001464600000000000108502013102100000010000000000000BRBVMFACNOR3125
012013092778BVMFJ12     070BVMF        ON      NM000R$  000000000010000000000001070000000000090000000000009500000000000960000000000088000000000011500045000000000000064700000000000006178000000000000118502013102100000010000000000000BRBVMFACNOR3125
012013092778BVMFJ13     070BVMF  FM    ON      NM000R$  000000000003100000000000360000000000027000000000002900000000000290000000000027000000000002900399000000000001000800000000000029992500000000000128502013102100000010000000000000BRBVMFACNOR3125
012013092778BVMFJ14     070BVMF  FM    ON      NM000R$  000000000000600000000000070000000000004000000000000500000000000050000000000004000000000000500063000000000000253100000000000001417200000000000138502013102100000010000000000000BRBVMFACNOR3125
012013092778BVMFJ15     070BVMF        ON      NM000R$  000000000000100000000000010000000000001000000000000100000000000010000000000000000000000000100003000000000000016000000000000000016000000000000148502013102100000010000000000000BRBVMFACNOR3125
012013092778BVMFJ42     070BVMF  FM    ON      NM000R$  000000000006000000000000670000000000053000000000005700000000000530000000000000000000000123500145000000000000157100000000000008981600000000000123502013102100000010000000000000BRBVMFACNOR3125
012013092778BVMFJ43     070BVMF  FM    ON      NM000R$  000000000001600000000000160000000000012000000000001200000000000130000000000011000000000001600027000000000000062100000000000000785600000000000133502013102100000010000000000000BRBVMFACNOR3125
012013092778BVMFJ44     070BVMF  FM    ON      NM000R$  000000000000200000000000020000000000002000000000000200000000000020000000000001000000000000000005000000000000010900000000000000021800000000000145002013102100000010000000000000BRBVMFACNOR3126
012013092778BVMFK12     070BVMF        ON      NM000R$  000000000011000000000001100000000000110000000000011000000000001100000000000000000000000015900001000000000000002000000000000000220000000000000118502013111800000010000000000000BRBVMFACNOR3125
012013092778BVMFK13     070BVMF  FM    ON      NM000R$  000000000005200000000000550000000000049000000000005000000000000490000000000000000000000006500086000000000000117500000000000005987000000000000128502013111800000010000000000000BRBVMFACNOR3125
012013092778BVMFK14     070BVMF  FM    ON      NM000R$  000000000001400000000000150000000000013000000000001300000000000130000000000011000000000001800035000000000000166000000000000002261100000000000138502013111800000010000000000000BRBVMFACNOR3125
012013092778BVMFK15     070BVMF        ON      NM000R$  000000000000400000000000040000000000003000000000000300000000000030000000000003000000000000000002000000000000006000000000000000023000000000000148502013111800000010000000000000BRBVMFACNOR3125
012013092778BVMFK42     070BVMF  FM    ON      NM000R$  000000000007700000000000770000000000068000000000007000000000000700000000000000000000000000000016000000000000035800000000000002526400000000000125002013111800000010000000000000BRBVMFACNOR3126
012013092778BVMFK43     070BVMF  FM    ON      NM000R$  000000000002600000000000260000000000023000000000002300000000000230000000000000000000000000000014000000000000032700000000000000773700000000000135002013111800000010000000000000BRBVMFACNOR3126
012013092782BVMFV12     080BVMFE FM    ON      NM000R$  000000000000800000000000120000000000007000000000000900000000000120000000000008000000000001400027000000000000040200000000000000400900000000000118502013102100000010000000000000BRBVMFACNOR3125
012013092782BVMFV13     080BVMFE FM    ON      NM000R$  000000000003800000000000470000000000038000000000004400000000000470000000000034000000000005100030000000000000069200000000000003096600000000000128502013102100000010000000000000BRBVMFACNOR3125
012013092782BVMFV42     080BVMFE FM    ON      NM000R$  000000000002300000000000250000000000023000000000002300000000000250000000000019000000000003900008000000000000006400000000000000153300000000000123502013102100000010000000000000BRBVMFACNOR3125
012013092782BVMFV43     080BVMFE FM    ON      NM000R$  000000000007200000000000840000000000071000000000007800000000000840000000000000000000000000000022000000000000065100000000000005099100000000000133502013102100000010000000000000BRBVMFACNOR3125
012013092782BVMFW12     080BVMFE FM    ON      NM000R$  000000000001900000000000260000000000019000000000002200000000000260000000000000000000000000000009000000000000020100000000000000443600000000000118502013111800000010000000000000BRBVMFACNOR3125
012013092782BVMFW13     080BVMFE FM    ON      NM000R$  000000000005900000000000610000000000059000000000005900000000000610000000000000000000000025000002000000000000003600000000000000212600000000000128502013111800000010000000000000BRBVMFACNOR3125
012013092782BVMFW41     080BVMFE       ON      NM000R$  000000000001800000000000180000000000018000000000001800000000000180000000000000000000000000000002000000000000001800000000000000032400000000000115002013111800000010000000000000BRBVMFACNOR3126
012013092782BVMFW42     080BVMFE FM    ON      NM000R$  000000000004100000000000450000000000041000000000004300000000000450000000000000000000000000000010000000000000018000000000000000784400000000000125002013111800000010000000000000BRBVMFACNOR3126
012013092782BVMFW43     080BVMFE FM    ON      NM000R$  000000000009600000000000960000000000096000000000009600000000000960000000000000000000000000000001000000000000003500000000000000336000000000000135002013111800000010000000000000BRBVMFACNOR3126
012013092796CALI4F      020CONST A LINDPN           R$  000000001500100000000150010000000015001000000001500100000000150010000000015000000000003500000005000000000000000015000000000000225015000000000000009999123100000010000000000000BRCALIACNPR8131
012013092702CAMB4       010CAMBUCI     PN           R$  000000000018700000000001870000000000187000000000018700000000001870000000000180000000000019200001000000000000005300000000000000991100000000000000009999123100000010000000000000BRCAMBACNPR1117
012013092702CARD3       010CSU CARDSYSTON      NM   R$  000000000031700000000003190000000000309000000000031400000000003190000000000294000000000031900021000000000000022800000000000007160400000000000000009999123100000010000000000000BRCARDACNOR9105
012013092796CARD3F      020CSU CARDSYSTON      NM   R$  000000000031000000000003100000000000310000000000031000000000003100000000000306000000000031500001000000000000000001000000000000000310000000000000009999123100000010000000000000BRCARDACNOR9105
012013092702CBEE3       010AMPLA ENERG ON *         R$  000000000012900000000001290000000000129000000000012900000000001290000000000126000000000012900002000000000001100000000000000000141900000000000000009999123100010000000000000000BRCBEEACNOR3149
012013092796CBMA4F      020COBRASMA    PN           R$  000000000000400000000000040000000000004000000000000400000000000040000000000003000000000000400004000000000000005000000000000000020000000000000000009999123100000010000000000000BRCBMAACNPR1124
012013092708CCHI3       010CHIARELLI   ON           R$  000000000001800000000000190000000000018000000000001800000000000180000000000017000000000001800023000000000000380000000000000006950000000000000000009999123100000010000000000000BRCCHIACNOR5123
012013092796CCHI3F      020CHIARELLI   ON           R$  000000000001700000000000170000000000017000000000001700000000000170000000000017000000000002000001000000000000003000000000000000051000000000000000009999123100000010000000000000BRCCHIACNOR5123
012013092702CCPR3       010CYRE COM-CCPON      NM   R$  000000000207200000000020850000000002051000000000206900000000020850000000002050000000000208600003000000000000000300000000000000620800000000000000009999123100000010000000000000BRCCPRACNOR9107
012013092796CCPR3F      020CYRE COM-CCPON      NM   R$  000000000198200000000019820000000001982000000000198200000000019820000000001985000000000226000001000000000000000020000000000000039640000000000000009999123100000010000000000000BRCCPRACNOR9107
012013092702CCRO3       010CCR SA      ON  ED  NM   R$  000000000176700000000017740000000001743000000000175400000000017700000000001760000000000177010610000000000003624300000000006358924800000000000000009999123100000010000000000000BRCCROACNOR2123
012013092796CCRO3F      020CCR SA      ON  ED  NM   R$  000000000181900000000018190000000001741000000000175600000000017790000000001745000000000177900081000000000000002619000000000004602263000000000000009999123100000010000000000000BRCCROACNOR2123
012013092762CCRO3T      030CCR SA      ON  ED  NM017R$  000000000175000000000017540000000001750000000000175100000000017540000000000000000000000000000006000000000000010000000000000017516487000000000000009999123100000010000000000000BRCCROACNOR2123
012013092762CCRO3T      030CCR SA      ON  ED  NM031R$  000000000176700000000017680000000001757000000000175900000000017580000000000000000000000000000004000000000000002300000000000004047814000000000000009999123100000010000000000000BRCCROACNOR2123
012013092778CCROJ48     070CCRO    /ED ON      NM000R$  000000000002100000000000210000000000021000000000002100000000000210000000000000000000000010000001000000000000002800000000000000058800000000000178202013102100000010000000000000BRCCROACNOR2122
012013092702CCXC3       010CCX CARVAO  ON      NM   R$  000000000013700000000001430000000000134000000000013900000000001430000000000142000000000014300691000000000003596400000000000502283600000000000000009999123100000010000000000000BRCCXCACNOR5100
012013092762CCXC3T      030CCX CARVAO  ON      NM017R$  000000000014100000000001420000000000141000000000014100000000001420000000000000000000000000000004000000000000270000000000000038221998000000000000009999123100000010000000000000BRCCXCACNOR5100
012013092762CCXC3T      030CCX CARVAO  ON      NM052R$  000000000014200000000001430000000000142000000000014200000000001430000000000000000000000000000002000000000000005000000000000000713248000000000000009999123100000010000000000000BRCCXCACNOR5100
012013092708CELP3       010CELPA       ON           R$  000000000008200000000000820000000000082000000000008200000000000820000000000061000000000008200003000000000000005000000000000000410000000000000000009999123100000010000000000000BRCELPACNOR8112
012013092712CEOC11B     010FII CEO CCP CI      MB   R$  000000000860000000000086500000000008500000000000854700000000086500000000008600000000000865000051000000000000003584000000000030632542000000000000009999123100000010000000000000BRCEOCCTF003110
012013092702CESP3       010CESP        ON      N1   R$  000000000196000000000019980000000001960000000000198100000000019980000000001960000000000205000003000000000000000700000000000001387200000000000000009999123100000010000000000000BRCESPACNOR3160
012013092796CESP3F      020CESP        ON      N1   R$  000000000200100000000020010000000002001000000000200100000000020010000000001702000000000210000002000000000000000065000000000000130065000000000000009999123100000010000000000000BRCESPACNOR3160
012013092702CESP6       010CESP        PNB     N1   R$  000000000233800000000023720000000002330000000000234900000000023320000000002332000000000234604024000000000000841800000000001978078400000000000000009999123100000010000000000000BRCESPACNPB4119
012013092796CESP6F      020CESP        PNB     N1   R$  000000000233500000000023700000000002331000000000234500000000023310000000002331000000000236900019000000000000000585000000000001370712000000000000009999123100000010000000000000BRCESPACNPB4119
012013092702CGAS3       010COMGAS      ON           R$  000000000534900000000054000000000005349000000000539800000000054000000000004901000000000540000002000000000000003100000000000016734900000000000000009999123100000010000000000000BRCGASACNOR0132
012013092702CGAS5       010COMGAS      PNA          R$  000000000578100000000058240000000005752000000000578400000000058000000000005800000000000580200277000000000000063300000000000366151400000000000000009999123100000010000000000000BRCGASACNPA3129
012013092796CGAS5F      020COMGAS      PNA          R$  000000000580000000000058000000000005800000000000580000000000058000000000005700000000000587900001000000000000000012000000000000069600000000000000009999123100000010000000000000BRCGASACNPA3129
012013092702CGRA4       010GRAZZIOTIN  PN           R$  000000000178000000000017850000000001770000000000177500000000017790000000001764000000000177900019000000000000013500000000000023970400000000000000009999123100000010000000000000BRCGRAACNPR9061
012013092796CGRA4F      020GRAZZIOTIN  PN           R$  000000000178600000000017860000000001761000000000178200000000017610000000001761000000000180000004000000000000000096000000000000171126000000000000009999123100000010000000000000BRCGRAACNPR9061
012013092702CIEL3       010CIELO       ON      NM   R$  000000000586400000000061030000000005834000000000600900000000060800000000006067000000000608313157000000000003315800000000019925275400000000000000009999123100000010000000000000BRCIELACNOR3112
012013092796CIEL3F      020CIELO       ON      NM   R$  000000000587000000000060870000000005846000000000599200000000060600000000006050000000000609000251000000000000007409000000000044397946000000000000009999123100000010000000000000BRCIELACNOR3112
012013092762CIEL3T      030CIELO       ON      NM031R$  000000000600100000000060020000000006001000000000600100000000060020000000000000000000000000000002000000000000001000000000000006001458000000000000009999123100000010000000000000BRCIELACNOR3112
012013092778CIELA62     070CIEL        ON      NM000R$  000000000031400000000003150000000000314000000000031400000000003150000000000000000000000000000002000000000000073000000000000022960000000000000620002014012000000010000000000000BRCIELACNOR3112
012013092778CIELJ61     070CIEL        ON      NM000R$  000000000006100000000000610000000000061000000000006100000000000610000000000000000000000000000001000000000000000200000000000000012200000000000610002013102100000010000000000000BRCIELACNOR3112
012013092778CIELK30     070CIEL        ON      NM000R$  000000000010700000000001070000000000107000000000010700000000001070000000000000000000000000000002000000000000002200000000000000235400000000000600002013111800000010000000000000BRCIELACNOR3112
012013092778CIELL29     070CIELE       ON      NM000R$  000000000030600000000003060000000000306000000000030600000000003060000000000000000000000000000001000000000000470000000000000143820000000000000595002013121600000010000000000000BRCIELACNOR3112
012013092778CIELL58     070CIEL        ON      NM000R$  000000000040400000000004040000000000403000000000040300000000004030000000000000000000000000000002000000000000470000000000000189645000000000000580002013121600000010000000000000BRCIELACNOR3112
012013092782CIELX54     080CIELE       ON      NM000R$  000000000004000000000000400000000000040000000000004000000000000400000000000000000000000000000001000000000000470000000000000018800000000000000540002013121600000010000000000000BRCIELACNOR3112
012013092782CIELX57     080CIELE       ON      NM000R$  000000000011800000000001180000000000118000000000011800000000001180000000000000000000000000000001000000000000470000000000000055460000000000000570002013121600000010000000000000BRCIELACNOR3112
012013092702CLSC4       010CELESC      PN      N2   R$  000000000179000000000017900000000001775000000000178000000000017800000000001770000000000178000083000000000000029600000000000052708400000000000000009999123100000010000000000000BRCLSCACNPR3107
012013092702CMIG3       010CEMIG       ON      N1   R$  000000000186600000000019140000000001856000000000188900000000018900000000001885000000000189000319000000000000061200000000000115637900000000000000009999123100000010000000000000BRCMIGACNOR6208
012013092796CMIG3F      020CEMIG       ON      N1   R$  000000000189500000000019150000000001881000000000189600000000018810000000001881000000000191500024000000000000000709000000000001344507000000000000009999123100000010000000000000BRCMIGACNOR6208
012013092702CMIG4       010CEMIG       PN      N1   R$  000000000192000000000019410000000001915000000000192800000000019300000000001924000000000193007915000000000002346100000000004525400500000000000000009999123100000010000000000000BRCMIGACNPR3208
012013092796CMIG4F      020CEMIG       PN      N1   R$  000000000191900000000019410000000001916000000000192700000000019160000000001916000000000193400140000000000000003660000000000007054831000000000000009999123100000010000000000000BRCMIGACNPR3208
012013092762CMIG4T      030CEMIG       PN      N1031R$  000000000193400000000019480000000001934000000000194600000000019480000000000000000000000000000004000000000000012700000000000024720642000000000000009999123100000010000000000000BRCMIGACNPR3208
012013092778CMIGJ19     070CMIG        PN      N1000R$  000000000005900000000000590000000000058000000000005800000000000580000000000000000000000000000002000000000000000500000000000000029100000000000190002013102100000010000000000000BRCMIGACNPR3208
012013092778CMIGJ20     070CMIG        PN      N1000R$  000000000001900000000000190000000000018000000000001800000000000180000000000000000000000002000012000000000000004100000000000000077800000000000200002013102100000010000000000000BRCMIGACNPR3208
012013092712CNES11B     010FII CENESP  CI  ER  MB   R$  000000001245000000000124500000000012330000000001243200000000124500000000012330000000001267900004000000000000000070000000000000870300000000000000009999123100000010000000000000BRCNESCTF001126
012013092702COCE3       010COELCE      ON           R$  000000000401100000000041650000000004000000000000406300000000041390000000004000000000000413900024000000000000006200000000000025196600000000000000009999123100000010000000000000BRCOCEACNOR0132
012013092796COCE3F      020COELCE      ON           R$  000000000405000000000040500000000004001000000000400900000000040010000000004000000000000416000002000000000000000050000000000000200491000000000000009999123100000010000000000000BRCOCEACNOR0132
012013092702COCE5       010COELCE      PNA          R$  000000000389200000000038950000000003862000000000388500000000038810000000003881000000000388400166000000000000058000000000000225356200000000000000009999123100000010000000000000BRCOCEACNPA3133
012013092796COCE5F      020COELCE      PNA          R$  000000000395000000000039500000000003890000000000392000000000038900000000003865000000000389400005000000000000000169000000000000662518000000000000009999123100000010000000000000BRCOCEACNPA3133
012013092702CPFE3       010CPFL ENERGIAON      NM   R$  000000000193300000000019460000000001928000000000193700000000019450000000001933000000000194504021000000000000810400000000001570446800000000000000009999123100000010000000000000BRCPFEACNOR0122
012013092796CPFE3F      020CPFL ENERGIAON      NM   R$  000000000193800000000019480000000001906000000000193300000000019150000000001907000000000196500053000000000000001045000000000002020308000000000000009999123100000010000000000000BRCPFEACNOR0122
012013092702CPLE3       010COPEL       ON      N1   R$  000000000224100000000022840000000002200000000000225200000000022840000000002235000000000228400225000000000000136900000000000308323200000000000000009999123100000010000000000000BRCPLEACNOR8128
012013092796CPLE3F      020COPEL       ON      N1   R$  000000000229000000000022950000000002219000000000228500000000022950000000002200000000000229500005000000000000000200000000000000457074000000000000009999123100000010000000000000BRCPLEACNOR8128
012013092762CPLE3T      030COPEL       ON      N1360R$  000000000248100000000024820000000002481000000000248100000000024820000000000000000000000000000002000000000000000500000000000001240875000000000000009999123100000010000000000000BRCPLEACNOR8128
012013092702CPLE6       010COPEL       PNB     N1   R$  000000000307700000000031500000000003073000000000312800000000031500000000003140000000000315004803000000000001224600000000003831554300000000000000009999123100000010000000000000BRCPLEACNPB9125
012013092796CPLE6F      020COPEL       PNB     N1   R$  000000000315200000000031520000000003059000000000311800000000030590000000003059000000000315500017000000000000000625000000000001949210000000000000009999123100000010000000000000BRCPLEACNPB9125
012013092702CPRE3       010CPFL RENOVAVON      NM   R$  000000000130000000000013150000000001283000000000130100000000013150000000001312000000000131500082000000000000088100000000000114674800000000000000009999123100000010000000000000BRCPREACNOR5100
012013092796CPRE3F      020CPFL RENOVAVON      NM   R$  000000000127500000000013200000000001275000000000129600000000013200000000001219000000000132000039000000000000001292000000000001674893000000000000009999123100000010000000000000BRCPREACNOR5100
012013092702CRDE3       010CR2         ON      NM   R$  000000000041000000000004190000000000410000000000041100000000004190000000000411000000000041900011000000000000001100000000000000452800000000000000009999123100000010000000000000BRCRDEACNOR1108
012013092702CREM3       010CREMER      ON      NM   R$  000000000148700000000015800000000001487000000000154700000000015540000000001510000000000155400163000000000000026500000000000041014000000000000000009999123100000010000000000000BRCREMACNOR2167
012013092796CREM3F      020CREMER      ON      NM   R$  000000000155000000000015650000000001550000000000155800000000015650000000001501000000000156500006000000000000000060000000000000093535000000000000009999123100000010000000000000BRCREMACNOR2167
012013092702CRUZ3       010SOUZA CRUZ  ON  EDJ      R$  000000000265000000000026860000000002620000000000265600000000026560000000002655000000000265603445000000000000895300000000002378163300000000000000009999123100000010000000000000BRCRUZACNOR0248
012013092796CRUZ3F      020SOUZA CRUZ  ON  EDJ      R$  000000000264000000000027060000000002624000000000264900000000026950000000002645000000000265000039000000000000000774000000000002051228000000000000009999123100000010000000000000BRCRUZACNOR0248
012013092762CRUZ3T      030SOUZA CRUZ  ON  EDJ   031R$  000000000266100000000026620000000002661000000000266100000000026620000000000000000000000000000002000000000000000700000000000001862784000000000000009999123100000010000000000000BRCRUZACNOR0248
012013092762CRUZ3T      030SOUZA CRUZ  ON  EDJ   063R$  000000000267300000000026740000000002673000000000267300000000026740000000000000000000000000000002000000000000001000000000000002673208000000000000009999123100000010000000000000BRCRUZACNOR0248
012013092702CSAN3       010COSAN       ON      NM   R$  000000000431900000000043310000000004257000000000429000000000042980000000004287000000000429803448000000000001095800000000004701222100000000000000009999123100000010000000000000BRCSANACNOR6108
012013092796CSAN3F      020COSAN       ON      NM   R$  000000000431000000000043200000000004274000000000429300000000042950000000004280000000000437000028000000000000001250000000000005367148000000000000009999123100000010000000000000BRCSANACNOR6108
012013092762CSAN3T      030COSAN       ON      NM017R$  000000000431300000000043140000000004313000000000431300000000043140000000000000000000000000000002000000000000005600000000000024153830000000000000009999123100000010000000000000BRCSANACNOR6108
012013092762CSAN3T      030COSAN       ON      NM090R$  000000000439500000000043970000000004395000000000439600000000043970000000000000000000000000000004000000000000124600000000000547799455000000000000009999123100000010000000000000BRCSANACNOR6108
012013092702CSMG3       010COPASA      ON  EJ  NM   R$  000000000348200000000035470000000003462000000000351000000000035300000000003519000000000353001039000000000000153700000000000539574900000000000000009999123100000010000000000000BRCSMGACNOR5128
012013092796CSMG3F      020COPASA      ON  EJ  NM   R$  000000000349800000000036000000000003492000000000351100000000035000000000003450000000000358500011000000000000000423000000000001485259000000000000009999123100000010000000000000BRCSMGACNOR5128
012013092714CSMO11      010ISHARES CSMOCI           R$  000000000483800000000048400000000004838000000000483800000000048400000000004740000000000610000002000000000000000030000000000000145160000000000000009999123100000010000000000000BRCSMOCTF002100
012013092702CSNA3       010SID NACIONALON           R$  000000000097300000000009790000000000957000000000096600000000009660000000000966000000000096914357000000000008505600000000008224768700000000000000009999123100000010000000000000BRCSNAACNOR6243
012013092796CSNA3F      020SID NACIONALON           R$  000000000097600000000009770000000000960000000000096800000000009720000000000965000000000097400069000000000000001707000000000001652044000000000000009999123100000010000000000000BRCSNAACNOR6243
012013092762CSNA3T      030SID NACIONALON        017R$  000000000097400000000009760000000000974000000000097400000000009760000000000000000000000000000006000000000000030900000000000030124907000000000000009999123100000010000000000000BRCSNAACNOR6243
012013092762CSNA3T      030SID NACIONALON        031R$  000000000097300000000009740000000000973000000000097300000000009740000000000000000000000000000002000000000000005000000000000004869811000000000000009999123100000010000000000000BRCSNAACNOR6243
012013092778CSNAJ10     070CSNA  FM    ON        000R$  000000000002900000000000300000000000024000000000002700000000000270000000000000000000000002900023000000000000059400000000000001651900000000000100002013102100000010000000000000BRCSNAACNOR6243
012013092778CSNAJ20     070CSNA  FM    ON        000R$  000000000001900000000000190000000000019000000000001900000000000190000000000000000000000000000003000000000000002000000000000000038000000000000102002013102100000010000000000000BRCSNAACNOR6243
012013092778CSNAJ40     070CSNA        ON        000R$  000000000001300000000000160000000000013000000000001300000000000160000000000004000000000000000020000000000000033100000000000000446100000000000104002013102100000010000000000000BRCSNAACNOR6243
012013092778CSNAJ60     070CSNA        ON        000R$  000000000000900000000000090000000000008000000000000800000000000080000000000000000000000001500002000000000000005800000000000000050900000000000106002013102100000010000000000000BRCSNAACNOR6243
012013092778CSNAJ8      070CSNA        ON        000R$  000000000020100000000002010000000000201000000000020100000000002010000000000000000000000000000001000000000000000300000000000000060300000000000078002013102100000010000000000000BRCSNAACNOR6242
012013092778CSNAJ82     070CSNA        ON        000R$  000000000019000000000001900000000000190000000000019000000000001900000000000000000000000000000001000000000000002000000000000000380000000000000080002013102100000010000000000000BRCSNAACNOR6242
012013092778CSNAJ9      070CSNA        ON        000R$  000000000009800000000000980000000000098000000000009800000000000980000000000097000000000018400010000000000000001000000000000000098000000000000088002013102100000010000000000000BRCSNAACNOR6242
012013092778CSNAJ92     070CSNA        ON        000R$  000000000006600000000000660000000000066000000000006600000000000660000000000000000000000000000001000000000000003300000000000000217800000000000092002013102100000010000000000000BRCSNAACNOR6243
012013092778CSNAJ94     070CSNA  FM    ON        000R$  000000000006100000000000610000000000055000000000005700000000000560000000000000000000000000000007000000000000021200000000000001210400000000000094002013102100000010000000000000BRCSNAACNOR6243
012013092778CSNAJ96     070CSNA  FM    ON        000R$  000000000004400000000000440000000000043000000000004300000000000440000000000000000000000000000008000000000000024800000000000001075900000000000096002013102100000010000000000000BRCSNAACNOR6243
012013092778CSNAJ98     070CSNA  FM    ON        000R$  000000000003700000000000370000000000033000000000003500000000000370000000000003000000000000000003000000000000005400000000000000190200000000000098002013102100000010000000000000BRCSNAACNOR6243
012013092778CSNAK10     070CSNA  FM    ON        000R$  000000000005500000000000570000000000055000000000005500000000000560000000000000000000000008200011000000000000028300000000000001577500000000000098002013111800000010000000000000BRCSNAACNOR6242
012013092778CSNAK94     070CSNA  FM    ON        000R$  000000000008200000000000830000000000079000000000008200000000000790000000000000000000000000000004000000000000009300000000000000763100000000000094002013111800000010000000000000BRCSNAACNOR6243
012013092778CSNAK96     070CSNA  FM    ON        000R$  000000000006400000000000640000000000064000000000006400000000000640000000000000000000000000000003000000000000010500000000000000672000000000000096002013111800000010000000000000BRCSNAACNOR6243
012013092782CSNAV10     080CSNAE       ON        000R$  000000000004900000000000550000000000048000000000005100000000000520000000000052000000000007300013000000000000003200000000000000166000000000000100002013102100000010000000000000BRCSNAACNOR6243
012013092782CSNAV9      080CSNAE       ON        000R$  000000000001000000000000100000000000010000000000001000000000000100000000000009000000000002300003000000000000000600000000000000006000000000000088002013102100000010000000000000BRCSNAACNOR6242
012013092782CSNAV92     080CSNAE FM    ON        000R$  000000000002000000000000200000000000020000000000002000000000000200000000000000000000000003000002000000000000005900000000000000118000000000000092002013102100000010000000000000BRCSNAACNOR6243
012013092782CSNAV94     080CSNAE FM    ON        000R$  000000000002600000000000260000000000026000000000002600000000000260000000000000000000000000000004000000000000010500000000000000273000000000000094002013102100000010000000000000BRCSNAACNOR6243
012013092782CSNAV96     080CSNAE FM    ON        000R$  000000000003400000000000340000000000034000000000003400000000000340000000000000000000000000000005000000000000012900000000000000438600000000000096002013102100000010000000000000BRCSNAACNOR6243
012013092782CSNAV98     080CSNAE FM    ON        000R$  000000000004700000000000470000000000041000000000004300000000000410000000000000000000000000000006000000000000010500000000000000460500000000000098002013102100000010000000000000BRCSNAACNOR6243
012013092782CSNAW84     080CSNAE       ON        000R$  000000000001600000000000160000000000015000000000001500000000000150000000000000000000000000000002000000000001000000000000000015900000000000000084002013111800000010000000000000BRCSNAACNOR6243
012013092782CSNAW92     080CSNAE FM    ON        000R$  000000000003600000000000360000000000035000000000003500000000000350000000000000000000000000000030000000000000026200000000000000942600000000000092002013111800000010000000000000BRCSNAACNOR6243
012013092782CSNAW94     080CSNAE FM    ON        000R$  000000000004500000000000450000000000045000000000004500000000000450000000000000000000000000000001000000000001000000000000000045000000000000000094002013111800000010000000000000BRCSNAACNOR6243
012013092782CSNAW96     080CSNAE FM    ON        000R$  000000000005300000000000530000000000049000000000005100000000000510000000000000000000000000000027000000000000025300000000000001297700000000000096002013111800000010000000000000BRCSNAACNOR6243
012013092702CTAX11      010CONTAX      UNT     N2   R$  000000000188000000000019000000000001880000000000189000000000018850000000001761000000000188500024000000000000010100000000000019095900000000000000009999123100000010000000000000BRCTAXCDAM19100
012013092702CTAX3       010CONTAX      ON      N2   R$  000000000038000000000003800000000000372000000000037800000000003720000000000372000000000038400005000000000000001300000000000000491600000000000000009999123100000010000000000000BRCTAXACNOR3113
012013092702CTAX4       010CONTAX      PN      N2   R$  000000000039000000000003900000000000370000000000037300000000003700000000000370000000000038000075000000000000019600000000000007320400000000000000009999123100000010000000000000BRCTAXACNPR0114
012013092796CTAX4F      020CONTAX      PN      N2   R$  000000000039700000000003970000000000380000000000038800000000003800000000000342000000000039000002000000000000000152000000000000059018000000000000009999123100000010000000000000BRCTAXACNPR0114
012013092702CTIP3       010CETIP       ON  EJ  NM   R$  000000000233900000000023530000000002330000000000234200000000023450000000002343000000000234503598000000000000935500000000002191578300000000000000009999123100000010000000000000BRCTIPACNOR2120
012013092796CTIP3F      020CETIP       ON  EJ  NM   R$  000000000233100000000023570000000002321000000000234000000000023210000000002321000000000235700022000000000000000755000000000001766916000000000000009999123100000010000000000000BRCTIPACNOR2120
012013092702CTKA4       010KARSTEN     PN           R$  000000000010200000000001040000000000101000000000010200000000001040000000000090000000000010400004000000000000000700000000000000071400000000000000009999123100000010000000000000BRCTKAACNPR7041
012013092702CTNM3       010COTEMINAS   ON           R$  000000000023000000000002300000000000230000000000023000000000002300000000000215000000000036000002000000000000000200000000000000046000000000000000009999123100000010000000000000BRCTNMACNOR9129
012013092796CTNM3F      020COTEMINAS   ON           R$  000000000025500000000002550000000000255000000000025500000000002550000000000201000000000025500001000000000000000044000000000000011220000000000000009999123100000010000000000000BRCTNMACNOR9129
012013092702CTNM4       010COTEMINAS   PN           R$  000000000022300000000002350000000000223000000000022600000000002240000000000224000000000022900032000000000000025900000000000005868100000000000000009999123100000010000000000000BRCTNMACNPR6128
012013092702CTSA3       010SANTANENSE  ON           R$  000000000054500000000005450000000000545000000000054500000000005450000000000545000000000056000001000000000000000100000000000000054500000000000000009999123100000010000000000000BRCTSAACNOR3051
012013092712CXCE11B     010FII CX CEDAECI      MB   R$  000000019400000000001940000000000194000000000019400000000001940000000000192000000000019400000001000000000000000004000000000000776000000000000000009999123100000010000000000000BRCXCECTF004138
012013092702CYRE3       010CYRELA REALTON      NM   R$  000000000167800000000017000000000001664000000000168500000000016820000000001682000000000168504139000000000000939400000000001583602600000000000000009999123100000010000000000000BRCYREACNOR7125
012013092796CYRE3F      020CYRELA REALTON      NM   R$  000000000168500000000017220000000001683000000000169200000000016830000000001683000000000176000019000000000000000521000000000000881700000000000000009999123100000010000000000000BRCYREACNOR7125
012013092762CYRE3T      030CYRELA REALTON      NM017R$  000000000169300000000016940000000001693000000000169300000000016940000000000000000000000000000002000000000000010000000000000016937480000000000000009999123100000010000000000000BRCYREACNOR7125
012013092778CYREJ16     070CYRE        ON      NM000R$  000000000012000000000001200000000000120000000000012000000000001200000000000000000000000000000001000000000000000500000000000000060000000000000160002013102100000010000000000000BRCYREACNOR7125
012013092778CYREJ17     070CYRE  FM    ON      NM000R$  000000000004900000000000490000000000049000000000004900000000000490000000000029000000000000000001000000000000003000000000000000147000000000000170002013102100000010000000000000BRCYREACNOR7125
012013092778CYREJ46     070CYRE  FM    ON      NM000R$  000000000007000000000000810000000000070000000000007000000000000810000000000000000000000000000003000000000000007500000000000000530500000000000165002013102100000010000000000000BRCYREACNOR7125
012013092778CYREK17     070CYRE  FM    ON      NM000R$  000000000007600000000000760000000000076000000000007600000000000760000000000000000000000000000001000000000000003500000000000000266000000000000170002013111800000010000000000000BRCYREACNOR7125
012013092778CYREK18     070CYRE  FM    ON      NM000R$  000000000003600000000000360000000000036000000000003600000000000360000000000028000000000000000001000000000000001000000000000000036000000000000180002013111800000010000000000000BRCYREACNOR7125
012013092778CYREK46     070CYRE  FM    ON      NM000R$  000000000010400000000001040000000000104000000000010400000000001040000000000000000000000000000001000000000000003500000000000000364000000000000165002013111800000010000000000000BRCYREACNOR7125
012013092782CYREV17     080CYREE FM    ON      NM000R$  000000000005300000000000530000000000050000000000005200000000000500000000000000000000000000000002000000000000003700000000000000195500000000000170002013102100000010000000000000BRCYREACNOR7125
012013092782CYREV47     080CYREE FM    ON      NM000R$  000000000008200000000000820000000000082000000000008200000000000820000000000000000000000000000002000000000000007000000000000000574000000000000175002013102100000010000000000000BRCYREACNOR7125
012013092782CYREW16     080CYREE FM    ON      NM000R$  000000000003600000000000360000000000036000000000003600000000000360000000000000000000000000000001000000000000003500000000000000126000000000000160002013111800000010000000000000BRCYREACNOR7125
012013092782CYREW46     080CYREE FM    ON      NM000R$  000000000005600000000000560000000000056000000000005600000000000560000000000000000000000000000001000000000000003500000000000000196000000000000165002013111800000010000000000000BRCYREACNOR7125
012013092782CYREW47     080CYREE FM    ON      NM000R$  000000000010400000000001040000000000104000000000010400000000001040000000000000000000000000000001000000000000003500000000000000364000000000000175002013111800000010000000000000BRCYREACNOR7125
012013092702CZLT33      010COSAN LTD   DR3          R$  000000000344000000000034760000000003425000000000345500000000034760000000003465000000000349400419000000000000160300000000000553951100000000000000009999123100000010000000000000BRCZLTBDR009105
012013092796CZLT33F     020COSAN LTD   DR3          R$  000000000346000000000034600000000003460000000000346000000000034600000000003200000000000346000001000000000000000011000000000000038060000000000000009999123100000010000000000000BRCZLTBDR009105
012013092702DAGB33      010DUFRY AG    DR3          R$  000000003390000000000342000000000033300000000003402500000000340000000000033900000000003400000138000000000000009309000000000316746922000000000000009999123100000010000000000000BRDAGBBDR008100
012013092702DASA3       010DASA        ON      NM   R$  000000000116300000000011720000000001157000000000116200000000011690000000001162000000000116902778000000000002532600000000002944200500000000000000009999123100000010000000000000BRDASAACNOR1108
012013092796DASA3F      020DASA        ON      NM   R$  000000000115600000000011680000000001151000000000116000000000011630000000001150000000000117000020000000000000000452000000000000524309000000000000009999123100000010000000000000BRDASAACNOR1108
012013092762DASA3T      030DASA        ON      NM031R$  000000000117600000000011790000000001176000000000117600000000011790000000000000000000000000000004000000000000005000000000000005884999000000000000009999123100000010000000000000BRDASAACNOR1108
012013092778DASAK12     070DASA        ON      NM000R$  000000000003400000000000340000000000025000000000002500000000000250000000000000000000000000000002000000000000008600000000000000215900000000000120002013111800000010000000000000BRDASAACNOR1108
012013092702DAYC4       010DAYCOVAL    PN      N2   R$  000000000087400000000008840000000000870000000000087600000000008780000000000875000000000088600071000000000000024500000000000021465400000000000000009999123100000010000000000000BRDAYCACNPR2128
012013092702DIRR3       010DIRECIONAL  ON      NM   R$  000000000122100000000012440000000001215000000000123100000000012210000000001221000000000122502324000000000000539400000000000664157200000000000000009999123100000010000000000000BRDIRRACNOR0104
012013092796DIRR3F      020DIRECIONAL  ON      NM   R$  000000000121200000000013000000000001212000000000123900000000012200000000001220000000000136500005000000000000000250000000000000309865000000000000009999123100000010000000000000BRDIRRACNOR0104
012013092714DIVO11      010IT NOW IDIV CI           R$  000000000341800000000034470000000003418000000000343900000000034400000000003440000000000345000014000000000000001860000000000006397210000000000000009999123100000010000000000000BRDIVOCTF002100
012013092796DIVO11F     020IT NOW IDIV CI           R$  000000000340000000000034000000000003200000000000335900000000034000000000003344000000000344200011000000000000000030000000000000100777000000000000009999123100000010000000000000BRDIVOCTF002100
012013092712DRIT11B     010FII MTGESTAOCI      MB   R$  000000001150600000000115060000000011506000000001150600000000115060000000011406000000001170000001000000000000000003000000000000034518000000000000009999123100000010000000000000BRDRITCTF009123
012013092702DTEX3       010DURATEX     ON      NM   R$  000000000130800000000013340000000001301000000000131900000000013250000000001325000000000132804229000000000001181700000000001558741500000000000000009999123100000010000000000000BRDTEXACNOR3115
012013092796DTEX3F      020DURATEX     ON      NM   R$  000000000130900000000013410000000001302000000000132000000000013290000000001323000000000133000045000000000000001820000000000002403087000000000000009999123100000010000000000000BRDTEXACNOR3115
012013092762DTEX3T      030DURATEX     ON      NM017R$  000000000131000000000013110000000001310000000000131000000000013110000000000000000000000000000002000000000000007000000000000009174281000000000000009999123100000010000000000000BRDTEXACNOR3115
012013092702DUQE4       010MET DUQUE   PN           R$  000000000077700000000007770000000000777000000000077700000000007770000000000750000000000085000001000000000000000100000000000000077700000000000000009999123100000010000000000000BRDUQEACNPR2040
012013092702EBTP3       010EMBRATEL PARON *         R$  000000000081500000000008450000000000813000000000081900000000008130000000000814000000000089900005000000000000600000000000000000491700000000000000009999123100010000000000000000BREBTPACNOR3115
012013092796EBTP3F      020EMBRATEL PARON *         R$  000000000080000000000008500000000000800000000000080500000000008500000000000815000000000085000007000000000000083039000000000000066881000000000000009999123100010000000000000000BREBTPACNOR3115
