00COTAHIST.2013BOVESPA 20130730                                                                                                                                                                                                                      
012013073002AAPL11B     010APPLE       DRN     MB   R$  000000001041000000000104100000000010410000000001041000000000104100000000010285000000001038500001000000000000003600000000000037476000000000000000009999123100000010000000000000BRAAPLBDR004104
012013073002ABCB4       010ABC BRASIL  PN      N2   R$  000000000123000000000012350000000001208000000000121900000000012150000000001209000000000121801252000000000000366900000000000447322700000000000000009999123100000010000000000000BRABCBACNPR4120
012013073096ABCB4F      020ABC BRASIL  PN      N2   R$  000000000123900000000012390000000001206000000000121100000000012060000000001210000000000121800009000000000000000122000000000000147763000000000000009999123100000010000000000000BRABCBACNPR4120
012013073012ABCP11      010FII ABC IMOBCI           R$  000000000091100000000009300000000000900000000000090200000000009000000000000900000000000092700005000000000000001207000000000001089542000000000000009999123100000010000000000000BRABCPCTF000213
012013073002ABRE11      010ABRIL EDUCA UNT     N2   R$  000000000354100000000035780000000003512000000000356500000000035600000000003545000000000356000443000000000000266400000000000949955100000000000000009999123100000010000000000000BRABRECDAM15102
012013073096ABRE11F     020ABRIL EDUCA UNT     N2   R$  000000000354700000000035470000000003547000000000354700000000035470000000003405000000000385000001000000000000000053000000000000187991000000000000009999123100000010000000000000BRABRECDAM15102
012013073002ABTT11B     010ABBOTT      DRN     MB   R$  000000000210100000000021010000000002101000000000210100000000021010000000002080000000000212000002000000000000007300000000000015337300000000000000009999123100000010000000000000BRABTTBDR007107
012013073002AEDU3       010ANHANGUERA  ON      NM   R$  000000000133700000000013620000000001336000000000134900000000013620000000001362000000000136303942000000000002351500000000003172423000000000000000009999123100000010000000000000BRAEDUACNOR9107
012013073096AEDU3F      020ANHANGUERA  ON      NM   R$  000000000133000000000013600000000001330000000000134500000000013600000000001341000000000136000016000000000000000718000000000000966692000000000000009999123100000010000000000000BRAEDUACNOR9107
012013073012AEFI11      010FII AESAPAR CI           R$  000000001249900000000125150000000012498000000001250100000000125000000000012500000000001254500015000000000000002118000000000026478686000000000000009999123100000010000000000000BRAEFICTF002119
012013073012AGCX11      010FII AG CAIXACI           R$  000000010070000000001010000000000100700000000010097400000001010000000000100501000000010090000006000000000000000059000000000005957497000000000000009999123100000010000000000000BRAGCXCTF003108
012013073002AGEN11      010AGRENCO     DR3          R$  000000000002300000000000240000000000016000000000001900000000000170000000000017000000000001801882000000000032200700000000000623064400000000000000009999123100000010000000000000BRAGENBDR001100
012013073096AGEN11F     020AGRENCO     DR3          R$  000000000002300000000000230000000000018000000000002000000000000180000000000018000000000002300016000000000000000521000000000000010744000000000000009999123100000010000000000000BRAGENBDR001100
012013073062AGEN11T     030AGRENCO     DR3       062R$  000000000001700000000000180000000000017000000000001700000000000180000000000000000000000000000002000000000000004000000000000000069047000000000000009999123100000010000000000000BRAGENBDR001100
012013073002AGRO3       010BRASILAGRO  ON      NM   R$  000000000102800000000010400000000001001000000000101700000000010300000000001030000000000104000059000000000000028000000000000028487400000000000000009999123100000010000000000000BRAGROACNOR7102
012013073096AGRO3F      020BRASILAGRO  ON      NM   R$  000000000105200000000010520000000001052000000000105200000000010520000000000950000000000115000001000000000000000028000000000000029456000000000000009999123100000010000000000000BRAGROACNOR7102
012013073002ALLL3       010ALL AMER LATON      NM   R$  000000000087500000000008840000000000862000000000087100000000008790000000000879000000000088003739000000000002212300000000001927082400000000000000009999123100000010000000000000BRALLLACNOR6118
012013073096ALLL3F      020ALL AMER LATON      NM   R$  000000000088200000000008890000000000862000000000087100000000008890000000000872000000000088700051000000000000001601000000000001395777000000000000009999123100000010000000000000BRALLLACNOR6118
012013073062ALLL3T      030ALL AMER LATON      NM030R$  000000000087300000000008740000000000873000000000087300000000008740000000000000000000000000000002000000000000001000000000000000873816000000000000009999123100000010000000000000BRALLLACNOR6118
012013073062ALLL3T      030ALL AMER LATON      NM045R$  000000000089100000000008920000000000891000000000089100000000008920000000000000000000000000000002000000000000015000000000000013376653000000000000009999123100000010000000000000BRALLLACNOR6118
012013073062ALLL3T      030ALL AMER LATON      NM090R$  000000000088100000000008880000000000881000000000088200000000008880000000000000000000000000000004000000000000010100000000000008908276000000000000009999123100000010000000000000BRALLLACNOR6118
012013073012ALMI11B     010FII TORRE ALCI      MB   R$  000000031500000000003150000000000315000000000031500000000003150000000000315000000000031950000003000000000000000026000000000008190000000000000000009999123100000010000000000000BRALMICTF003203
012013073002ALPA3       010ALPARGATAS  ON      N1   R$  000000000107900000000010790000000001061000000000106300000000010610000000001053000000000109500025000000000000026700000000000028406400000000000000009999123100000010000000000000BRALPAACNOR0202
012013073096ALPA3F      020ALPARGATAS  ON      N1   R$  000000000100700000000010070000000001007000000000100700000000010070000000001011000000000109000001000000000000000024000000000000024168000000000000009999123100000010000000000000BRALPAACNOR0202
012013073002ALPA4       010ALPARGATAS  PN      N1   R$  000000000137300000000014100000000001359000000000138400000000013950000000001390000000000139501317000000000000255900000000000354209100000000000000009999123100000010000000000000BRALPAACNPR7202
012013073096ALPA4F      020ALPARGATAS  PN      N1   R$  000000000135900000000014280000000001359000000000138300000000013820000000001355000000000140000018000000000000000477000000000000659793000000000000009999123100000010000000000000BRALPAACNPR7202
012013073002ALSC3       010ALIANSCE    ON      NM   R$  000000000202700000000021110000000002027000000000208400000000020910000000002091000000000210003680000000000001978600000000004125016700000000000000009999123100000010000000000000BRALSCACNOR0104
012013073096ALSC3F      020ALIANSCE    ON      NM   R$  000000000208000000000020910000000002080000000000208900000000020910000000001912000000000210000004000000000000000106000000000000221536000000000000009999123100000010000000000000BRALSCACNOR0104
012013073002ALUP11      010ALUPAR      UNT     N2   R$  000000000176600000000017660000000001740000000000175400000000017600000000001740000000000176000245000000000000089800000000000157512800000000000000009999123100000010000000000000BRALUPCDAM15100
012013073096ALUP11F     020ALUPAR      UNT     N2   R$  000000000180000000000018000000000001744000000000175600000000017490000000001741000000000185000011000000000000000428000000000000751704000000000000009999123100000010000000000000BRALUPCDAM15100
012013073062ALUP11T     030ALUPAR      UNT     N2360R$  000000000191800000000019190000000001918000000000191800000000019190000000000000000000000000000002000000000000001000000000000001918679000000000000009999123100000010000000000000BRALUPCDAM15100
012013073002AMAR3       010LOJAS MARISAON      NM   R$  000000000221000000000022130000000002140000000000215900000000021650000000002163000000000216500418000000000000081400000000000175765800000000000000009999123100000010000000000000BRAMARACNOR4109
012013073096AMAR3F      020LOJAS MARISAON      NM   R$  000000000219400000000021940000000002145000000000215600000000021450000000002159000000000218000014000000000000000486000000000001047968000000000000009999123100000010000000000000BRAMARACNOR4109
012013073062AMAR3T      030LOJAS MARISAON      NM360R$  000000000236300000000023640000000002363000000000236300000000023640000000000000000000000000000002000000000000001000000000000002363734000000000000009999123100000010000000000000BRAMARACNOR4109
012013073002AMBV3       010AMBEV       ON           R$  000000000820000000000082070000000008048000000000818200000000082070000000008201000000000820700948000000000000212000000000001734697200000000000000009999123100000010000000000000BRAMBVACNOR4153
012013073096AMBV3F      020AMBEV       ON           R$  000000000811600000000082390000000008060000000000814800000000081970000000008197000000000820500056000000000000001258000000000010253783000000000000009999123100000010000000000000BRAMBVACNOR4153
012013073002AMBV4       010AMBEV       PN           R$  000000000813400000000082210000000008083000000000818100000000082100000000008200000000000821005092000000000001331700000000010895098100000000000000009999123100000010000000000000BRAMBVACNPR1153
012013073096AMBV4F      020AMBEV       PN           R$  000000000820000000000082280000000008095000000000818200000000081900000000008200000000000821500108000000000000002858000000000023386365000000000000009999123100000010000000000000BRAMBVACNPR1153
012013073062AMBV4T      030AMBEV       PN        016R$  000000000822600000000082420000000008226000000000823700000000082420000000000000000000000000000006000000000000006700000000000055191260000000000000009999123100000010000000000000BRAMBVACNPR1153
012013073062AMBV4T      030AMBEV       PN        030R$  000000000814800000000081490000000008148000000000814800000000081490000000000000000000000000000002000000000000001000000000000008148230000000000000009999123100000010000000000000BRAMBVACNPR1153
012013073062AMBV4T      030AMBEV       PN        062R$  000000000828700000000083180000000008287000000000830200000000083180000000000000000000000000000004000000000000001000000000000008302231000000000000009999123100000010000000000000BRAMBVACNPR1153
012013073078AMBVH81     070AMBV        PN        000R$  000000000015500000000001550000000000155000000000015500000000001550000000000000000000000000000001000000000000000600000000000000093000000000000810002013081900000010000000000000BRAMBVACNPR1153
012013073078AMBVH83     070AMBV        PN        000R$  000000000013100000000001320000000000127000000000013000000000001300000000000000000000000000000006000000000000000600000000000000078200000000000830002013081900000010000000000000BRAMBVACNPR1153
012013073078AMBVH88     070AMBV        PN        000R$  000000000002500000000000250000000000025000000000002500000000000250000000000000000000000000000001000000000000001000000000000000025000000000000880002013081900000010000000000000BRAMBVACNPR1153
012013073002AMGN11B     010AMGEN       DRN     MB   R$  000000002513200000000251320000000025132000000002513200000000251320000000000000000000000000000001000000000000001100000000000027645200000000000000009999123100000010000000000000BRAMGNBDR004106
012013073002ARTR3       010ARTERIS     ON      NM   R$  000000000216900000000021850000000002149000000000216500000000021750000000002175000000000218702335000000000001427800000000003091250700000000000000009999123100000010000000000000BRARTRACNOR3101
012013073096ARTR3F      020ARTERIS     ON      NM   R$  000000000213000000000021840000000002130000000000216600000000021820000000002171000000000218300018000000000000000610000000000001321348000000000000009999123100000010000000000000BRARTRACNOR3101
012013073002ARZZ3       010AREZZO CO   ON  ED  NM   R$  000000000373000000000037470000000003650000000000369900000000036500000000003650000000000365400497000000000000099700000000000368813500000000000000009999123100000010000000000000BRARZZACNOR3109
012013073096ARZZ3F      020AREZZO CO   ON  ED  NM   R$  000000000371600000000037160000000003661000000000369800000000036610000000003660000000000374700003000000000000000137000000000000506682000000000000009999123100000010000000000000BRARZZACNOR3109
012013073002AUTM3       010AUTOMETAL   ON      NM   R$  000000000182400000000018270000000001765000000000178800000000017800000000001776000000000178000396000000000000302700000000000541292100000000000000009999123100000010000000000000BRAUTMACNOR8109
012013073096AUTM3F      020AUTOMETAL   ON      NM   R$  000000000182500000000018250000000001770000000000181400000000017700000000001705000000000180800045000000000000001216000000000002206187000000000000009999123100000010000000000000BRAUTMACNOR8109
012013073002AZEV4       010AZEVEDO     PN           R$  000000000016400000000001640000000000164000000000016400000000001640000000000145000000000016500001000000000000000100000000000000016400000000000000009999123100000010000000000000BRAZEVACNPR7113
012013073002BALM4       010BAUMER      PN           R$  000000000751000000000075100000000007510000000000751000000000075100000000000000000000000000000001000000000000000300000000000002253000000000000000009999123100000010000000000000BRBALMACNPR2043
012013073002BAUH4       010EXCELSIOR   PN           R$  000000000092000000000009920000000000920000000000092400000000009920000000000900000000000099200006000000000000001700000000000001571200000000000000009999123100000010000000000000BRBAUHACNPR3108
012013073002BAZA3       010AMAZONIA    ON           R$  000000000003400000000000340000000000034000000000003400000000000340000000000033000000000003400005000000000000167000000000000005678000000000000000009999123100000010000000000000BRBAZAACNOR0163
012013073002BBAS3       010BRASIL      ON      NM   R$  000000000227000000000023150000000002270000000000229800000000022940000000002294000000000230111499000000000007233200000000016626939900000000000000009999123100000010000000000000BRBBASACNOR3237
012013073096BBAS3F      020BRASIL      ON      NM   R$  000000000226000000000023140000000002260000000000229300000000023110000000002295000000000231100237000000000000007316000000000016778480000000000000009999123100000010000000000000BRBBASACNOR3237
012013073062BBAS3T      030BRASIL      ON      NM030R$  000000000231300000000023140000000002313000000000231300000000023140000000000000000000000000000002000000000000005000000000000011569542000000000000009999123100000010000000000000BRBBASACNOR3237
012013073062BBAS3T      030BRASIL      ON      NM035R$  000000000231800000000023190000000002318000000000231800000000023190000000000000000000000000000002000000000000000500000000000001159430000000000000009999123100000010000000000000BRBBASACNOR3237
012013073078BBASB24     070BBAS        ON      NM000R$  000000000017700000000001770000000000177000000000017700000000001770000000000000000000000000000001000000000000000300000000000000053100000000000240002014021700000010000000000000BRBBASACNOR3237
012013073078BBASB99     070BBAS        ON      NM000R$  000000000004100000000000410000000000041000000000004100000000000410000000000000000000000000000001000000000000000200000000000000008200000000000287602014021700000010000000000000BRBBASACNOR3236
012013073078BBASH20     070BBAS        ON      NM000R$  000000000031700000000003170000000000310000000000031300000000003100000000000300000000000034000004000000000000004300000000000001349000000000000200002013081900000010000000000000BRBBASACNOR3237
012013073078BBASH21     070BBAS  FM    ON      NM000R$  000000000023000000000002500000000000230000000000024100000000002430000000000200000000000025000076000000000000106500000000000025684800000000000207602013081900000010000000000000BRBBASACNOR3236
012013073078BBASH22     070BBAS  FM    ON      NM000R$  000000000015500000000001610000000000145000000000015200000000001610000000000086000000000020000033000000000000049200000000000007521400000000000217602013081900000010000000000000BRBBASACNOR3236
012013073078BBASH23     070BBAS  FM    ON      NM000R$  000000000008000000000000870000000000073000000000008000000000000850000000000016000000000009800034000000000000080300000000000006439300000000000227602013081900000010000000000000BRBBASACNOR3236
012013073078BBASH24     070BBAS  FM    ON      NM000R$  000000000005700000000000600000000000051000000000005600000000000540000000000045000000000006600043000000000000089400000000000005083500000000000231702013081900000010000000000000BRBBASACNOR3233
012013073078BBASH25     070BBAS  FM    ON      NM000R$  000000000001900000000000200000000000017000000000001800000000000180000000000015000000000002000040000000000000081300000000000001542000000000000241702013081900000010000000000000BRBBASACNOR3233
012013073078BBASH26     070BBAS        ON      NM000R$  000000000000400000000000050000000000002000000000000400000000000050000000000003000000000000600013000000000000111200000000000000536500000000000256602013081900000010000000000000BRBBASACNOR3235
012013073078BBASI21     070BBAS  FM    ON      NM000R$  000000000025100000000002540000000000238000000000024200000000002520000000000000000000000000000178000000000000155600000000000037743000000000000210002013091600000010000000000000BRBBASACNOR3237
012013073078BBASI22     070BBAS  FM    ON      NM000R$  000000000018500000000001910000000000178000000000018300000000001910000000000139000000000000000031000000000000050700000000000009317100000000000217602013091600000010000000000000BRBBASACNOR3236
012013073078BBASI23     070BBAS  FM    ON      NM000R$  000000000011500000000001210000000000110000000000011400000000001210000000000045000000000036400066000000000000055300000000000006332400000000000227602013091600000010000000000000BRBBASACNOR3236
012013073078BBASI24     070BBAS  FM    ON      NM000R$  000000000006800000000000700000000000062000000000006400000000000680000000000063000000000009900023000000000000031700000000000002059400000000000237602013091600000010000000000000BRBBASACNOR3236
012013073078BBASI25     070BBAS  FM    ON      NM000R$  000000000003100000000000380000000000031000000000003500000000000380000000000030000000000003900013000000000000015800000000000000564400000000000246602013091600000010000000000000BRBBASACNOR3235
012013073078BBASI51     070BBAS        ON      NM000R$  000000000029000000000002900000000000290000000000029000000000002900000000000000000000000000000001000000000000130000000000000037700000000000000205002013091600000010000000000000BRBBASACNOR3237
012013073078BBASI61     070BBASE       ON      NM000R$  000000000014800000000001480000000000148000000000014800000000001480000000000000000000000000000001000000000000130000000000000019240000000000000222502013091600000010000000000000BRBBASACNOR3237
012013073078BBASJ25     070BBAS        ON      NM000R$  000000000005800000000000580000000000058000000000005800000000000580000000000000000000000006000001000000000000003000000000000000174000000000000250002013102100000010000000000000BRBBASACNOR3237
012013073078BBASJ26     070BBAS        ON      NM000R$  000000000004200000000000420000000000039000000000004000000000000390000000000000000000000000000004000000000000005100000000000000208700000000000256602013102100000010000000000000BRBBASACNOR3235
012013073078BBASJ27     070BBAS        ON      NM000R$  000000000002400000000000250000000000024000000000002400000000000250000000000011000000000000000002000000000000006000000000000000147000000000000266602013102100000010000000000000BRBBASACNOR3235
012013073078BBASJ56     070BBAS        ON      NM000R$  000000000003200000000000320000000000032000000000003200000000000320000000000000000000000000000001000000000000003000000000000000096000000000000261602013102100000010000000000000BRBBASACNOR3235
012013073078BBASK24     070BBAS        ON      NM000R$  000000000011600000000001160000000000116000000000011600000000001160000000000000000000000000000001000000000000000300000000000000034800000000000240002013111800000010000000000000BRBBASACNOR3237
012013073078BBASK26     070BBAS        ON      NM000R$  000000000005800000000000590000000000058000000000005800000000000590000000000000000000000000000007000000000000014000000000000000816300000000000257602013111800000010000000000000BRBBASACNOR3236
012013073082BBAST20     080BBASE       ON      NM000R$  000000000000500000000000060000000000005000000000000500000000000060000000000002000000000000500010000000000000021000000000000000106000000000000200002013081900000010000000000000BRBBASACNOR3237
012013073082BBAST21     080BBASE FM    ON      NM000R$  000000000000800000000000080000000000008000000000000800000000000080000000000001000000000001300002000000000000005000000000000000040000000000000207602013081900000010000000000000BRBBASACNOR3236
012013073082BBAST22     080BBASE FM    ON      NM000R$  000000000002000000000000200000000000017000000000001800000000000170000000000018000000000003000007000000000000013800000000000000258600000000000217602013081900000010000000000000BRBBASACNOR3236
012013073082BBAST23     080BBASE FM    ON      NM000R$  000000000005000000000000500000000000039000000000004300000000000440000000000000000000000004200024000000000000054400000000000002340600000000000227602013081900000010000000000000BRBBASACNOR3236
012013073082BBAST24     080BBASE FM    ON      NM000R$  000000000005900000000000670000000000053000000000006400000000000600000000000046000000000006100037000000000000363600000000000023493800000000000231702013081900000010000000000000BRBBASACNOR3233
012013073082BBASU20     080BBASE       ON      NM000R$  000000000001400000000000140000000000014000000000001400000000000140000000000000000000000002400001000000000000001500000000000000021000000000000200002013091600000010000000000000BRBBASACNOR3237
012013073082BBASU21     080BBASE FM    ON      NM000R$  000000000002400000000000240000000000023000000000002300000000000230000000000000000000000007000006000000000000010600000000000000254300000000000210002013091600000010000000000000BRBBASACNOR3237
012013073082BBASU22     080BBASE FM    ON      NM000R$  000000000004000000000000400000000000037000000000003900000000000370000000000036000000000004700014000000000000016300000000000000637500000000000217602013091600000010000000000000BRBBASACNOR3236
012013073082BBASU23     080BBASE FM    ON      NM000R$  000000000006800000000000750000000000064000000000007300000000000640000000000000000000000000000065000000000000057100000000000004181600000000000227602013091600000010000000000000BRBBASACNOR3236
012013073082BBASU24     080BBASE FM    ON      NM000R$  000000000011600000000001220000000000113000000000011800000000001180000000000000000000000000000018000000000000035400000000000004179600000000000237602013091600000010000000000000BRBBASACNOR3236
012013073082BBASV23     080BBASE       ON      NM000R$  000000000009100000000000910000000000091000000000009100000000000910000000000000000000000000000001000000000000003000000000000000273000000000000226602013102100000010000000000000BRBBASACNOR3235
012013073082BBASV24     080BBASE       ON      NM000R$  000000000014000000000001420000000000140000000000014000000000001420000000000000000000000000000004000000000000012000000000000001689000000000000237602013102100000010000000000000BRBBASACNOR3236
012013073082BBASV25     080BBASE       ON      NM000R$  000000000021200000000002210000000000208000000000021400000000002080000000000000000000000000000008000000000000024000000000000005136000000000000250002013102100000010000000000000BRBBASACNOR3237
012013073082BBASV26     080BBASE       ON      NM000R$  000000000026000000000002660000000000256000000000025900000000002560000000000000000000000000000007000000000000021000000000000005451000000000000256602013102100000010000000000000BRBBASACNOR3235
012013073082BBASV53     080BBASE       ON      NM000R$  000000000011200000000001120000000000112000000000011200000000001120000000000000000000000000000001000000000000003000000000000000336000000000000231602013102100000010000000000000BRBBASACNOR3235
012013073002BBDC3       010BRADESCO    ON      N1   R$  000000000316500000000032220000000003120000000000315500000000031290000000003129000000000313504050000000000001336300000000004216070300000000000000009999123100000010000000000000BRBBDCACNOR1604
012013073096BBDC3F      020BRADESCO    ON      N1   R$  000000000315100000000032000000000003123000000000315200000000031790000000003142000000000317900088000000000000001565000000000004931977000000000000009999123100000010000000000000BRBBDCACNOR1604
012013073062BBDC3T      030BRADESCO    ON      N1030R$  000000000318900000000031900000000003189000000000318900000000031900000000000000000000000000000002000000000000001500000000000004784056000000000000009999123100000010000000000000BRBBDCACNOR1604
012013073002BBDC4       010BRADESCO    PN      N1   R$  000000000283300000000029100000000002807000000000284200000000028150000000002815000000000281919491000000000008729200000000024807997300000000000000009999123100000010000000000000BRBBDCACNPR8604
012013073096BBDC4F      020BRADESCO    PN      N1   R$  000000000283500000000029000000000002802000000000284200000000028240000000002822000000000284000372000000000000006053000000000017203458000000000000009999123100000010000000000000BRBBDCACNPR8604
012013073062BBDC4T      030BRADESCO    PN      N1016R$  000000000284500000000028460000000002845000000000284500000000028460000000000000000000000000000002000000000000002000000000000005690621000000000000009999123100000010000000000000BRBBDCACNPR8604
012013073062BBDC4T      030BRADESCO    PN      N1030R$  000000000286000000000028610000000002850000000000285800000000028530000000000000000000000000000008000000000000020500000000000058599069000000000000009999123100000010000000000000BRBBDCACNPR8604
012013073062BBDC4T      030BRADESCO    PN      N1090R$  000000000292700000000029280000000002927000000000292700000000029280000000000000000000000000000002000000000000001000000000000002927113000000000000009999123100000010000000000000BRBBDCACNPR8604
012013073062BBDC4T      030BRADESCO    PN      N1120R$  000000000293200000000029330000000002932000000000293200000000029330000000000000000000000000000002000000000000015000000000000043981275000000000000009999123100000010000000000000BRBBDCACNPR8604
012013073078BBDCH26     070BBDC        PN      N1000R$  000000000030500000000003050000000000260000000000027700000000002690000000000000000000000027100005000000000000011700000000000003251700000000000258002013081900000010000000000000BRBBDCACNPR8602
012013073078BBDCH27     070BBDC        PN      N1000R$  000000000022800000000002280000000000178000000000018600000000001830000000000000000000000024800005000000000000012300000000000002298400000000000268002013081900000010000000000000BRBBDCACNPR8602
012013073078BBDCH28     070BBDC        PN      N1000R$  000000000010000000000001550000000000096000000000011200000000001050000000000092000000000014100111000000000000210500000000000023661900000000000278002013081900000010000000000000BRBBDCACNPR8602
012013073078BBDCH29     070BBDC        PN      N1000R$  000000000005200000000000820000000000039000000000005500000000000490000000000044000000000005000166000000000000311600000000000017166000000000000288002013081900000010000000000000BRBBDCACNPR8602
012013073078BBDCH30     070BBDC        PN      N1000R$  000000000002500000000000330000000000016000000000002400000000000170000000000015000000000002000216000000000000319000000000000007845100000000000298002013081900000010000000000000BRBBDCACNPR8602
012013073078BBDCH31     070BBDC        PN      N1000R$  000000000001300000000000130000000000007000000000001000000000000070000000000006000000000000900012000000000000030200000000000000313700000000000307602013081900000010000000000000BRBBDCACNPR8600
012013073078BBDCH32     070BBDC        PN      N1000R$  000000000000300000000000030000000000002000000000000200000000000020000000000002000000000000000008000000000000011900000000000000033600000000000318002013081900000010000000000000BRBBDCACNPR8602
012013073078BBDCH34     070BBDC        PN      N1000R$  000000000001400000000000160000000000014000000000001500000000000150000000000006000000000001000004000000000000010900000000000000171200000000000305502013081900000010000000000000BRBBDCACNPR8595
012013073078BBDCI13     070BBDC        PN      N1000R$  000000000001200000000000120000000000012000000000001200000000000120000000000000000000000000000001000000000000004000000000000000048000000000000328002013091600000010000000000000BRBBDCACNPR8602
012013073078BBDCI26     070BBDC        PN      N1000R$  000000000028300000000002860000000000283000000000028300000000002860000000000000000000000000000058000000000000027300000000000007753100000000000260002013091600000010000000000000BRBBDCACNPR8604
012013073078BBDCI27     070BBDC        PN      N1000R$  000000000024400000000002610000000000214000000000022900000000002190000000000205000000000000000007000000000000001200000000000000275600000000000268002013091600000010000000000000BRBBDCACNPR8602
012013073078BBDCI28     070BBDC        PN      N1000R$  000000000018900000000001890000000000138000000000016100000000001490000000000000000000000016500048000000000000088300000000000014264600000000000278002013091600000010000000000000BRBBDCACNPR8602
012013073078BBDCI29     070BBDC        PN      N1000R$  000000000012900000000001290000000000085000000000010700000000000930000000000000000000000009700049000000000000081800000000000008831800000000000288002013091600000010000000000000BRBBDCACNPR8602
012013073078BBDCI30     070BBDC        PN      N1000R$  000000000007800000000000780000000000049000000000006300000000000530000000000042000000000006700026000000000000040400000000000002575700000000000298002013091600000010000000000000BRBBDCACNPR8602
012013073078BBDCI31     070BBDC        PN      N1000R$  000000000018400000000001840000000000184000000000018400000000001840000000000000000000000000000001000000000000002100000000000000386400000000000273102013091600000010000000000000BRBBDCACNPR8590
012013073078BBDCI32     070BBDC        PN      N1000R$  000000000002300000000000230000000000013000000000001600000000000140000000000011000000000001600008000000000000013500000000000000218400000000000318002013091600000010000000000000BRBBDCACNPR8602
012013073078BBDCI33     070BBDC        PN      N1000R$  000000000008100000000000810000000000081000000000008100000000000810000000000000000000000000000001000000000000004000000000000000324000000000000297402013091600000010000000000000BRBBDCACNPR8598
012013073078BBDCI75     070BBDCE       PN      N1000R$  000000000014900000000001490000000000113000000000012200000000001220000000000000000000000000000054000000000000050400000000000006197500000000000282502013091600000010000000000000BRBBDCACNPR8604
012013073078BBDCI81     070BBDC        PN      N1000R$  000000000004400000000000440000000000028000000000003700000000000280000000000000000000000000000006000000000000012100000000000000451400000000000308002013091600000010000000000000BRBBDCACNPR8602
012013073078BBDCJ1      070BBDC        PN      N1000R$  000000000006400000000000640000000000064000000000006400000000000640000000000000000000000000000001000000000000003000000000000000192000000000000314802013102100000010000000000000BRBBDCACNPR8603
012013073078BBDCJ30     070BBDC        PN      N1000R$  000000000009700000000000970000000000097000000000009700000000000970000000000000000000000000000001000000000000003000000000000000291000000000000298002013102100000010000000000000BRBBDCACNPR8602
012013073078BBDCJ31     070BBDC        PN      N1000R$  000000000008500000000000850000000000085000000000008500000000000850000000000010000000000008300001000000000000003000000000000000255000000000000308002013102100000010000000000000BRBBDCACNPR8602
012013073078BBDCJ33     070BBDC        PN      N1000R$  000000000003500000000000350000000000035000000000003500000000000350000000000000000000000000000001000000000000003000000000000000105000000000000328002013102100000010000000000000BRBBDCACNPR8602
012013073078BBDCJ34     070BBDC        PN      N1000R$  000000000002300000000000230000000000020000000000002100000000000200000000000000000000000000000002000000000000006000000000000000129000000000000337602013102100000010000000000000BRBBDCACNPR8600
012013073082BBDCO60     080BBDCE       PN      N1000R$  000000000013500000000001350000000000135000000000013500000000001350000000000000000000000000000001000000000000001200000000000000162000000000000274702014031700000010000000000000BRBBDCACNPR8598
012013073082BBDCT22     080BBDCE       PN      N1000R$  000000000000200000000000020000000000002000000000000200000000000020000000000000000000000000000001000000000000001000000000000000002000000000000220002013081900000010000000000000BRBBDCACNPR8604
012013073082BBDCT26     080BBDCE       PN      N1000R$  000000000000800000000000100000000000008000000000000800000000000100000000000000000000000001000002000000000000000500000000000000004400000000000258002013081900000010000000000000BRBBDCACNPR8602
012013073082BBDCT27     080BBDCE       PN      N1000R$  000000000001200000000000240000000000012000000000001600000000000240000000000011000000000019300019000000000000036100000000000000595400000000000268002013081900000010000000000000BRBBDCACNPR8602
012013073082BBDCT28     080BBDCE       PN      N1000R$  000000000002900000000000530000000000029000000000004000000000000450000000000021000000000005500043000000000000074700000000000003060800000000000278002013081900000010000000000000BRBBDCACNPR8602
012013073082BBDCT29     080BBDCE       PN      N1000R$  000000000005800000000001000000000000058000000000007900000000000910000000000000000000000011000086000000000000161700000000000012844900000000000288002013081900000010000000000000BRBBDCACNPR8602
012013073082BBDCT30     080BBDCE       PN      N1000R$  000000000012900000000001740000000000120000000000014800000000001550000000000000000000000029000057000000000000103100000000000015354000000000000298002013081900000010000000000000BRBBDCACNPR8602
012013073082BBDCT31     080BBDCE       PN      N1000R$  000000000018700000000002460000000000187000000000022000000000002370000000000000000000000000000046000000000000027800000000000006130600000000000307602013081900000010000000000000BRBBDCACNPR8600
012013073082BBDCT34     080BBDCE       PN      N1000R$  000000000017600000000002220000000000176000000000018900000000002200000000000000000000000000000014000000000000024000000000000004552000000000000305502013081900000010000000000000BRBBDCACNPR8595
012013073082BBDCU27     080BBDCE       PN      N1000R$  000000000003600000000000500000000000036000000000004500000000000480000000000000000000000005900010000000000000018100000000000000821900000000000268002013091600000010000000000000BRBBDCACNPR8602
012013073082BBDCU28     080BBDCE       PN      N1000R$  000000000005600000000000770000000000056000000000006900000000000750000000000000000000000000000057000000000000068800000000000004775700000000000278002013091600000010000000000000BRBBDCACNPR8602
012013073082BBDCU29     080BBDCE       PN      N1000R$  000000000009000000000001240000000000090000000000011000000000001200000000000000000000000000000026000000000000044300000000000004894800000000000288002013091600000010000000000000BRBBDCACNPR8602
012013073082BBDCU30     080BBDCE       PN      N1000R$  000000000013900000000001890000000000139000000000016800000000001800000000000000000000000000000057000000000000100800000000000016977200000000000298002013091600000010000000000000BRBBDCACNPR8602
012013073082BBDCU31     080BBDCE       PN      N1000R$  000000000004400000000000440000000000044000000000004400000000000440000000000000000000000000000001000000000000002000000000000000088000000000000273102013091600000010000000000000BRBBDCACNPR8590
012013073082BBDCU32     080BBDCE       PN      N1000R$  000000000029800000000003010000000000298000000000029900000000003010000000000000000000000000000002000000000000003000000000000000897000000000000318002013091600000010000000000000BRBBDCACNPR8602
012013073082BBDCU33     080BBDCE       PN      N1000R$  000000000013500000000001740000000000135000000000015400000000001740000000000000000000000000000007000000000000012500000000000001935300000000000297402013091600000010000000000000BRBBDCACNPR8598
012013073082BBDCU75     080BBDCE       PN      N1000R$  000000000007000000000000700000000000070000000000007000000000000700000000000000000000000000000001000000000000002000000000000000140000000000000282502013091600000010000000000000BRBBDCACNPR8604
012013073082BBDCU81     080BBDCE       PN      N1000R$  000000000020600000000002210000000000206000000000021300000000002210000000000000000000000000000002000000000000004000000000000000854000000000000308002013091600000010000000000000BRBBDCACNPR8602
012013073082BBDCV1      080BBDCE       PN      N1000R$  000000000028300000000003150000000000283000000000029600000000003150000000000000000000000000000004000000000000007000000000000002077000000000000314802013102100000010000000000000BRBBDCACNPR8603
012013073082BBDCV2      080BBDCE       PN      N1000R$  000000000036100000000003950000000000361000000000038200000000003930000000000000000000000000000006000000000000011000000000000004210000000000000324802013102100000010000000000000BRBBDCACNPR8603
012013073082BBDCV25     080BBDCE       PN      N1000R$  000000000003800000000000380000000000038000000000003800000000000380000000000000000000000000000001000000000000001800000000000000068400000000000249802013102100000010000000000000BRBBDCACNPR8603
012013073082BBDCV29     080BBDCE       PN      N1000R$  000000000011900000000001190000000000119000000000011900000000001190000000000000000000000000000001000000000000002000000000000000238000000000000288002013102100000010000000000000BRBBDCACNPR8602
012013073082BBDCV30     080BBDCE       PN      N1000R$  000000000016500000000001650000000000165000000000016500000000001650000000000000000000000000000001000000000000001000000000000000165000000000000298002013102100000010000000000000BRBBDCACNPR8602
012013073082BBDCV31     080BBDCE       PN      N1000R$  000000000022200000000002500000000000222000000000023400000000002500000000000000000000000000000002000000000000003700000000000000869000000000000308002013102100000010000000000000BRBBDCACNPR8602
012013073082BBDCV32     080BBDCE       PN      N1000R$  000000000029200000000003390000000000292000000000031400000000003390000000000000000000000000000006000000000000009400000000000002958800000000000318002013102100000010000000000000BRBBDCACNPR8602
012013073082BBDCW25     080BBDCE       PN      N1000R$  000000000004400000000000440000000000044000000000004400000000000440000000000000000000000000000001000000000000001200000000000000052800000000000250002013111800000010000000000000BRBBDCACNPR8604
012013073082BBDCW26     080BBDCE       PN      N1000R$  000000000005900000000000610000000000059000000000006000000000000610000000000000000000000000000002000000000000002400000000000000144000000000000260002013111800000010000000000000BRBBDCACNPR8604
012013073012BBFI11B     010FII BB PROGRCI      MB   R$  000000042013400000004250000000000420134000000042476800000004250000000000420291000000042949900003000000000000000021000000000008920134000000000000009999123100000010000000000000BRBBFICTF006196
012013073012BBPO11      010FII BB PRGIICI           R$  000000001117100000000112970000000011121000000001117100000000111840000000011170000000001118500222000000000000013921000000000155514468000000000000009999123100000010000000000000BRBBPOCTF003108
012013073012BBRC11      010FII BB CORP CI           R$  000000000920000000000093590000000009200000000000921600000000092040000000009203000000000932200018000000000000000837000000000007714306000000000000009999123100000010000000000000BRBBRCCTF004122
012013073002BBRK3       010BR BROKERS  ON      NM   R$  000000000058700000000005880000000000570000000000057600000000005790000000000576000000000057902118000000000000740100000000000427264100000000000000009999123100000010000000000000BRBBRKACNOR4108
012013073096BBRK3F      020BR BROKERS  ON      NM   R$  000000000057500000000005880000000000574000000000057500000000005880000000000563000000000058800006000000000000000180000000000000103590000000000000009999123100000010000000000000BRBBRKACNOR4108
012013073062BBRK3T      030BR BROKERS  ON      NM090R$  000000000058700000000005880000000000587000000000058700000000005880000000000000000000000000000002000000000000000300000000000000176347000000000000009999123100000010000000000000BRBBRKACNOR4108
012013073002BBSE3       010BBSEGURIDADEON      NM   R$  000000000181000000000018390000000001803000000000182200000000018390000000001835000000000184008629000000000002984800000000005441103000000000000000009999123100000010000000000000BRBBSEACNOR5100
012013073096BBSE3F      020BBSEGURIDADEON      NM   R$  000000000180200000000018350000000001802000000000182000000000018350000000001830000000000183500445000000000000013449000000000024481002000000000000009999123100000010000000000000BRBBSEACNOR5100
012013073002BBTG11      010BTG PACTUAL UNT          R$  000000000277000000000028020000000002716000000000276800000000027300000000002730000000000273601267000000000000349400000000000967477400000000000000009999123100000010000000000000BRBBTGUNT007104
012013073096BBTG11F     020BTG PACTUAL UNT          R$  000000000290000000000029000000000002730000000000279900000000027690000000002724000000000276900016000000000000000381000000000001066593000000000000009999123100000010000000000000BRBBTGUNT007104
012013073012BBVJ11      010FII C JARDIMCI           R$  000000000805900000000080600000000007957000000000802300000000080570000000007962000000000805700020000000000000000782000000000006274069000000000000009999123100000010000000000000BRBBVJCTF001131
012013073012BCFF11B     010FII BC FFII CI      MB   R$  000000001019900000000102000000000010000000000001005300000000100500000000010036000000001005000064000000000000003576000000000035949599000000000000009999123100000010000000000000BRBCFFCTF000140
012013073002BDLL4       010BARDELLA    PN           R$  000000000500000000000050000000000004999000000000499900000000050000000000004700000000000500000006000000000000001900000000000009499800000000000000009999123100000010000000000000BRBDLLACNPR8149
012013073002BEEF3       010MINERVA     ON      NM   R$  000000000091500000000009250000000000897000000000090100000000009000000000000900000000000090401569000000000000559600000000000504617400000000000000009999123100000010000000000000BRBEEFACNOR6104
012013073096BEEF3F      020MINERVA     ON      NM   R$  000000000092000000000009200000000000900000000000090200000000009000000000000896000000000093000006000000000000000186000000000000167840000000000000009999123100000010000000000000BRBEEFACNOR6104
012013073002BEES3       010BANESTES    ON           R$  000000000004800000000000480000000000046000000000004600000000000470000000000047000000000004800009000000000000017500000000000000820100000000000000009999123100000010000000000000BRBEESACNOR9242
012013073002BEMA3       010BEMATECH    ON      NM   R$  000000000077700000000007770000000000752000000000076100000000007600000000000759000000000076000186000000000000077000000000000058627000000000000000009999123100000010000000000000BRBEMAACNOR0113
012013073096BEMA3F      020BEMATECH    ON      NM   R$  000000000076100000000007610000000000760000000000076000000000007600000000000760000000000080000002000000000000000035000000000000026611000000000000009999123100000010000000000000BRBEMAACNOR0113
012013073002BHGR3       010BHG         ON      NM   R$  000000000170900000000017090000000001655000000000168000000000016790000000001626000000000167900047000000000001513500000000002544019900000000000000009999123100000010000000000000BRBHGRACNOR9101
012013073002BICB4       010BICBANCO    PN      N1   R$  000000000038400000000003850000000000363000000000037500000000003830000000000380000000000038400648000000000000404300000000000151758500000000000000009999123100000010000000000000BRBICBACNPR7131
012013073096BICB4F      020BICBANCO    PN      N1   R$  000000000039000000000004160000000000363000000000037500000000004160000000000364000000000041600023000000000000000717000000000000269402000000000000009999123100000010000000000000BRBICBACNPR7131
012013073062BICB4T      030BICBANCO    PN      N1062R$  000000000037300000000003740000000000373000000000037300000000003740000000000000000000000000000002000000000000001000000000000000373908000000000000009999123100000010000000000000BRBICBACNPR7131
012013073002BISA3       010BROOKFIELD  ON      NM   R$  000000000017900000000001790000000000170000000000017300000000001720000000000171000000000017204864000000000010928000000000001896779900000000000000009999123100000010000000000000BRBISAACNOR8109
012013073096BISA3F      020BROOKFIELD  ON      NM   R$  000000000018000000000001800000000000170000000000017300000000001760000000000171000000000017600017000000000000000508000000000000088095000000000000009999123100000010000000000000BRBISAACNOR8109
012013073062BISA3T      030BROOKFIELD  ON      NM030R$  000000000017500000000001760000000000175000000000017500000000001760000000000000000000000000000002000000000000040000000000000007013592000000000000009999123100000010000000000000BRBISAACNOR8109
012013073062BISA3T      030BROOKFIELD  ON      NM090R$  000000000017800000000001800000000000174000000000017600000000001760000000000000000000000000000032000000000002700000000000000475862207000000000000009999123100000010000000000000BRBISAACNOR8109
012013073012BJRC11      010FII JS RECIMCI           R$  000000008900000000000905000000000089000000000008955900000000905000000000081511000000009200000010000000000000000863000000000077289500000000000000009999123100000010000000000000BRBJRCCTF007108
012013073002BMEB4       010MERC BRASIL PN           R$  000000000110300000000011300000000001103000000000111600000000011300000000001101000000000113000006000000000000006100000000000006812000000000000000009999123100000010000000000000BRBMEBACNPR5190
012013073002BMIN4       010MERC INVEST PN           R$  000000000002300000000000230000000000023000000000002300000000000230000000000023000000000002400001000000000000001000000000000000023000000000000000009999123100000010000000000000BRBMINACNPR1159
012013073012BMLC11B     010FII BMBRC LCCI      MB   R$  000000001175000000000117900000000011750000000001177100000000117900000000011706000000001179000007000000000000000175000000000002060050000000000000009999123100000010000000000000BRBMLCCTF004117
012013073002BMTO4       010BRASMOTOR   PN           R$  000000000008500000000000880000000000085000000000008500000000000880000000000085000000000008800005000000000000010000000000000000857000000000000000009999123100000010000000000000BRBMTOACNPR6065
012013073096BMTO4F      020BRASMOTOR   PN           R$  000000000008800000000000880000000000088000000000008800000000000880000000000086000000000009000001000000000000000885000000000000077880000000000000009999123100000010000000000000BRBMTOACNPR6065
012013073012BNFS11      010FII BANRISULCI           R$  000000001000000000000100000000000009800000000000987800000000099990000000009705000000000999900010000000000000000164000000000001620151000000000000009999123100000010000000000000BRBNFSCTF000110
012013073002BOAC11B     010BANK AMERICADRN     MB   R$  000000000331600000000033160000000003316000000000331600000000033160000000003280000000000334500001000000000000012900000000000042776400000000000000009999123100000010000000000000BRBOACBDR004111
012013073014BOVA11      010ISHARES BOVACI           R$  000000000483400000000048690000000004758000000000479600000000047580000000004758000000000476603929000000000001651850000000007923296110000000000000009999123100000010000000000000BRBOVACTF003101
012013073096BOVA11F     020ISHARES BOVACI           R$  000000000483000000000048650000000004750000000000480100000000047500000000004775000000000478700024000000000000000053000000000000254501000000000000009999123100000010000000000000BRBOVACTF003101
012013073012BPFF11      010FII ABSOLUTOCI           R$  000000000880000000000088500000000008735000000000873700000000088500000000008750000000000885000007000000000000002605000000000022762484000000000000009999123100000010000000000000BRBPFFCTF002103
012013073002BPHA3       010BR PHARMA   ON      NM   R$  000000000100400000000010040000000000965000000000097500000000009800000000000975000000000098001323000000000000769100000000000750272200000000000000009999123100000010000000000000BRBPHAACNOR6102
012013073096BPHA3F      020BR PHARMA   ON      NM   R$  000000000097500000000009790000000000970000000000097600000000009740000000000967000000000097900005000000000000000044000000000000042974000000000000009999123100000010000000000000BRBPHAACNOR6102
012013073002BPNM4       010PANAMERICANOPN      N1   R$  000000000058900000000006070000000000587000000000059700000000006020000000000597000000000060300430000000000000405300000000000242308800000000000000009999123100000010000000000000BRBPNMACNPR6111
012013073096BPNM4F      020PANAMERICANOPN      N1   R$  000000000054000000000005950000000000540000000000059400000000005950000000000580000000000060500004000000000000000126000000000000074900000000000000009999123100000010000000000000BRBPNMACNPR6111
012013073002BRAP3       010BRADESPAR   ON      N1   R$  000000000187000000000018720000000001805000000000183300000000018150000000001815000000000190100064000000000000015900000000000029150700000000000000009999123100000010000000000000BRBRAPACNOR5124
012013073096BRAP3F      020BRADESPAR   ON      N1   R$  000000000185800000000018590000000001855000000000185600000000018590000000001855000000000198000012000000000000000042000000000000077963000000000000009999123100000010000000000000BRBRAPACNOR5124
012013073002BRAP4       010BRADESPAR   PN      N1   R$  000000000230800000000023120000000002228000000000225000000000022400000000002233000000000224006474000000000002152600000000004843458700000000000000009999123100000010000000000000BRBRAPACNPR2124
012013073096BRAP4F      020BRADESPAR   PN      N1   R$  000000000231000000000023190000000002226000000000226100000000022830000000002245000000000228300067000000000000001564000000000003539567000000000000009999123100000010000000000000BRBRAPACNPR2124
012013073062BRAP4T      030BRADESPAR   PN      N1030R$  000000000224800000000022490000000002248000000000224800000000022490000000000000000000000000000002000000000000001100000000000002473003000000000000009999123100000010000000000000BRBRAPACNPR2124
012013073062BRAP4T      030BRADESPAR   PN      N1045R$  000000000225700000000022580000000002257000000000225700000000022580000000000000000000000000000002000000000000001100000000000002482957000000000000009999123100000010000000000000BRBRAPACNPR2124
012013073014BRAX11      010ISHARES BRAXCI           R$  000000000396000000000039650000000003944000000000395600000000039540000000000000000000000000000852000000000000014690000000000058121580000000000000009999123100000010000000000000BRBRAXCTF002100
012013073012BRCR11      010FII BC FUND CI           R$  000000001341500000000134200000000013360000000001339400000000133890000000013380000000001338900317000000000000027486000000000368150862000000000000009999123100000010000000000000BRBRCRCTF000131
012013073002BRFS3       010BRF SA      ON      NM   R$  000000000487900000000049150000000004824000000000488000000000049150000000004906000000000491606044000000000001890700000000009228082500000000000000009999123100000010000000000000BRBRFSACNOR8110
012013073096BRFS3F      020BRF SA      ON      NM   R$  000000000486000000000049170000000004823000000000487200000000049100000000004900000000000491000090000000000000002659000000000012958239000000000000009999123100000010000000000000BRBRFSACNOR8110
012013073078BRFSH49     070BRFS        ON      NM000R$  000000000010100000000001010000000000091000000000009600000000000910000000000000000000000000000005000000000000002000000000000000192200000000000490002013081900000010000000000000BRBRFSACNOR8110
012013073078BRFSH50     070BRFS        ON      NM000R$  000000000005500000000000550000000000037000000000004600000000000370000000000000000000000000000002000000000000004000000000000000184000000000000500002013081900000010000000000000BRBRFSACNOR8110
012013073078BRFSH78     070BRFS        ON      NM000R$  000000000011000000000001380000000000105000000000012400000000001240000000000000000000000000000010000000000000002200000000000000273300000000000480002013081900000010000000000000BRBRFSACNOR8110
012013073082BRFSU48     080BRFSE       ON      NM000R$  000000000012800000000001280000000000116000000000012500000000001190000000000000000000000030000005000000000000022200000000000002792000000000000480002013091600000010000000000000BRBRFSACNOR8110
012013073002BRGE3       010ALFA CONSORCON           R$  000000000034000000000003400000000000340000000000034000000000003400000000000339000000000040000004000000000000001100000000000000374000000000000000009999123100000010000000000000BRBRGEACNOR6196
012013073096BRGE3F      020ALFA CONSORCON           R$  000000000034100000000003410000000000341000000000034100000000003410000000000340000000000040000001000000000000000060000000000000020460000000000000009999123100000010000000000000BRBRGEACNOR6196
012013073002BRIN3       010BR INSURANCEON      NM   R$  000000000219700000000022500000000002160000000000221000000000022500000000002235000000000225101126000000000000319600000000000706522300000000000000009999123100000010000000000000BRBRINACNOR3105
012013073096BRIN3F      020BR INSURANCEON      NM   R$  000000000218200000000022200000000002165000000000220200000000022200000000002191000000000223300013000000000000000214000000000000471249000000000000009999123100000010000000000000BRBRINACNOR3105
012013073002BRIV3       010ALFA INVEST ON           R$  000000000060000000000006480000000000600000000000064100000000006480000000000551000000000069800003000000000000004300000000000002757600000000000000009999123100000010000000000000BRBRIVACNOR6196
012013073096BRIV3F      020ALFA INVEST ON           R$  000000000060000000000006000000000000600000000000060000000000006000000000000531000000000070000001000000000000000066000000000000039600000000000000009999123100000010000000000000BRBRIVACNOR6196
012013073002BRKM3       010BRASKEM     ON      N1   R$  000000000114600000000011480000000001113000000000112300000000011170000000001112000000000115900050000000000000018100000000000020337100000000000000009999123100000010000000000000BRBRKMACNOR1110
012013073002BRKM5       010BRASKEM     PNA     N1   R$  000000000174500000000017600000000001703000000000172700000000017150000000001715000000000171608106000000000002149600000000003713748200000000000000009999123100000010000000000000BRBRKMACNPA4110
012013073096BRKM5F      020BRASKEM     PNA     N1   R$  000000000174500000000017530000000001689000000000173500000000017050000000001705000000000174200047000000000000001512000000000002623383000000000000009999123100000010000000000000BRBRKMACNPA4110
012013073062BRKM5T      030BRASKEM     PNA     N1016R$  000000000173200000000017330000000001716000000000172400000000017170000000000000000000000000000004000000000000004000000000000006899488000000000000009999123100000010000000000000BRBRKMACNPA4110
012013073096BRKM6F      020BRASKEM     PNB     N1   R$  000000000100800000000010080000000001008000000000100800000000010080000000001008000000000000000001000000000000000001000000000000001008000000000000009999123100000010000000000000BRBRKMACNPB2108
012013073002BRML3       010BR MALLS PARON      NM   R$  000000000206700000000020670000000002014000000000203400000000020140000000002013000000000201408263000000000002718700000000005530601000000000000000009999123100000010000000000000BRBRMLACNOR9105
012013073096BRML3F      020BR MALLS PARON      NM   R$  000000000210900000000021090000000002010000000000204000000000020100000000002002000000000202200054000000000000001767000000000003602711000000000000009999123100000010000000000000BRBRMLACNOR9105
012013073002BRPR3       010BR PROPERT  ON      NM   R$  000000000194100000000019410000000001900000000000191000000000019130000000001907000000000191306938000000000001838700000000003511751000000000000000009999123100000010000000000000BRBRPRACNOR9112
012013073096BRPR3F      020BR PROPERT  ON      NM   R$  000000000197900000000020040000000001900000000000192200000000019350000000001902000000000193500041000000000000001211000000000002327977000000000000009999123100000010000000000000BRBRPRACNOR9112
012013073062BRPR3T      030BR PROPERT  ON      NM030R$  000000000192700000000019280000000001927000000000192700000000019280000000000000000000000000000002000000000000001400000000000002697821000000000000009999123100000010000000000000BRBRPRACNOR9112
012013073002BRSR3       010BANRISUL    ON      N1   R$  000000000134000000000013400000000001340000000000134000000000013400000000001240000000000134000006000000000000003200000000000004288000000000000000009999123100000010000000000000BRBRSRACNOR3130
012013073002BRSR6       010BANRISUL    PNB     N1   R$  000000000151200000000015120000000001475000000000148100000000014750000000001474000000000147701996000000000000669100000000000991172600000000000000009999123100000010000000000000BRBRSRACNPB4133
012013073096BRSR6F      020BANRISUL    PNB     N1   R$  000000000149000000000014900000000001476000000000148200000000014830000000001470000000000157500024000000000000000907000000000001344027000000000000009999123100000010000000000000BRBRSRACNPB4133
012013073002BSEV3       010BIOSEV      ON      NM   R$  000000000123000000000012300000000001219000000000122800000000012300000000001180000000000123500009000000000000003100000000000003807100000000000000009999123100000010000000000000BRBSEVACNOR3100
012013073096BSEV3F      020BIOSEV      ON      NM   R$  000000000122800000000012500000000001126000000000118400000000011260000000001125000000000121400003000000000000000073000000000000086432000000000000009999123100000010000000000000BRBSEVACNOR3100
012013073082BSEVS99     080BSEVE       ON      NM000R$  000000000030000000000003200000000000290000000000030200000000003200000000000250000000000032000005000000000000000507000000000000153240000000000165702014072100000010000000000000BRBSEVACNOR3100
012013073002BTOW3       010B2W DIGITAL ON      NM   R$  000000000119800000000012120000000001139000000000116200000000011450000000001145000000000114801341000000000000477400000000000555051600000000000000009999123100000010000000000000BRBTOWACNOR8105
012013073096BTOW3F      020B2W DIGITAL ON      NM   R$  000000000120000000000012050000000001126000000000116900000000011700000000001155000000000118000012000000000000000360000000000000420608000000000000009999123100000010000000000000BRBTOWACNOR8105
012013073002BTTL3       010BATTISTELLA ON           R$  000000000008400000000000850000000000084000000000008400000000000850000000000078000000000008500004000000000000015100000000000001268500000000000000009999123100000010000000000000BRBTTLACNOR0105
012013073002BTTL4       010BATTISTELLA PN           R$  000000000009800000000001000000000000098000000000009800000000001000000000000099000000000010000007000000000000005500000000000000543800000000000000009999123100000010000000000000BRBTTLACNPR7105
012013073002BVMF3       010BMFBOVESPA  ON      NM   R$  000000000125200000000012580000000001204000000000121700000000012080000000001207000000000120818561000000000011493800000000013992007500000000000000009999123100000010000000000000BRBVMFACNOR3125
012013073096BVMF3F      020BMFBOVESPA  ON      NM   R$  000000000124600000000012530000000001205000000000122100000000012090000000001212000000000123000104000000000000003587000000000004381703000000000000009999123100000010000000000000BRBVMFACNOR3125
012013073062BVMF3T      030BMFBOVESPA  ON      NM016R$  000000000121100000000012120000000001211000000000121100000000012120000000000000000000000000000002000000000000030000000000000036335574000000000000009999123100000010000000000000BRBVMFACNOR3125
012013073062BVMF3T      030BMFBOVESPA  ON      NM023R$  000000000122900000000012300000000001229000000000122900000000012300000000000000000000000000000002000000000000001000000000000001229791000000000000009999123100000010000000000000BRBVMFACNOR3125
012013073062BVMF3T      030BMFBOVESPA  ON      NM030R$  000000000123800000000012390000000001216000000000121700000000012170000000000000000000000000000010000000000000107100000000000130361861000000000000009999123100000010000000000000BRBVMFACNOR3125
012013073078BVMFH1      070BVMFE       ON      NM000R$  000000000001300000000000130000000000006000000000000800000000000060000000000003000000000001400037000000000000100400000000000000803700000000000132502013081900000010000000000000BRBVMFACNOR3125
012013073078BVMFH11     070BVMF        ON      NM000R$  000000000018000000000001800000000000122000000000013500000000001220000000000121000000000012500050000000000000086300000000000011732300000000000110002013081900000010000000000000BRBVMFACNOR3125
012013073078BVMFH12     070BVMF  FM    ON      NM000R$  000000000008100000000000810000000000048000000000006200000000000480000000000035000000000005400124000000000000238500000000000014929800000000000120002013081900000010000000000000BRBVMFACNOR3125
012013073078BVMFH13     070BVMF  FM    ON      NM000R$  000000000002400000000000260000000000013000000000001700000000000130000000000012000000000001400312000000000000701800000000000012144800000000000128902013081900000010000000000000BRBVMFACNOR3124
012013073078BVMFH14     070BVMF  FM    ON      NM000R$  000000000000300000000000030000000000001000000000000200000000000020000000000001000000000000300071000000000000286800000000000000676100000000000138902013081900000010000000000000BRBVMFACNOR3124
012013073078BVMFH15     070BVMF        ON      NM000R$  000000000000100000000000010000000000001000000000000100000000000010000000000000000000000000100001000000000000000100000000000000000100000000000150002013081900000010000000000000BRBVMFACNOR3125
012013073078BVMFH41     070BVMF        ON      NM000R$  000000000011300000000001130000000000083000000000009100000000000830000000000000000000000000000018000000000000048800000000000004452800000000000115002013081900000010000000000000BRBVMFACNOR3125
012013073078BVMFH42     070BVMF  FM    ON      NM000R$  000000000004200000000000440000000000024000000000003100000000000240000000000000000000000004500076000000000000225100000000000007048800000000000125002013081900000010000000000000BRBVMFACNOR3125
012013073078BVMFH43     070BVMF  FM    ON      NM000R$  000000000000800000000000080000000000003000000000000400000000000030000000000003000000000000600068000000000000164500000000000000748500000000000135002013081900000010000000000000BRBVMFACNOR3125
012013073078BVMFH62     070BVMFE       ON      NM000R$  000000000005000000000000500000000000050000000000005000000000000500000000000000000000000000000001000000000000002100000000000000105000000000000122502013081900000010000000000000BRBVMFACNOR3125
012013073078BVMFI11     070BVMF        ON      NM000R$  000000000014800000000001480000000000136000000000014000000000001360000000000000000000000000000004000000000000001400000000000000197000000000000110002013091600000010000000000000BRBVMFACNOR3125
012013073078BVMFI12     070BVMF  FM    ON      NM000R$  000000000008600000000000860000000000068000000000007600000000000690000000000067000000000010000050000000000000144700000000000011064900000000000120002013091600000010000000000000BRBVMFACNOR3125
012013073078BVMFI13     070BVMF  FM    ON      NM000R$  000000000003500000000000370000000000024000000000002700000000000240000000000000000000000004800082000000000000189600000000000005212800000000000130002013091600000010000000000000BRBVMFACNOR3125
012013073078BVMFI14     070BVMF  FM    ON      NM000R$  000000000001000000000000160000000000008000000000000800000000000160000000000015000000000002000047000000000000084400000000000000707800000000000140002013091600000010000000000000BRBVMFACNOR3125
012013073078BVMFI15     070BVMF        ON      NM000R$  000000000000300000000000030000000000003000000000000300000000000030000000000000000000000000500002000000000000003000000000000000009000000000000150002013091600000010000000000000BRBVMFACNOR3125
012013073078BVMFI42     070BVMF  FM    ON      NM000R$  000000000005000000000000510000000000042000000000004500000000000430000000000000000000000000000211000000000000532600000000000024196300000000000125002013091600000010000000000000BRBVMFACNOR3125
012013073078BVMFI43     070BVMF  FM    ON      NM000R$  000000000001900000000000190000000000012000000000001400000000000130000000000006000000000000000028000000000000073500000000000001065300000000000135002013091600000010000000000000BRBVMFACNOR3125
012013073078BVMFJ11     070BVMF        ON      NM000R$  000000000016400000000001640000000000164000000000016400000000001640000000000000000000000000000001000000000000005000000000000000820000000000000110002013102100000010000000000000BRBVMFACNOR3125
012013073078BVMFJ13     070BVMF        ON      NM000R$  000000000005300000000000530000000000051000000000005200000000000510000000000000000000000000000006000000000000018000000000000000938000000000000130002013102100000010000000000000BRBVMFACNOR3125
012013073078BVMFJ15     070BVMF        ON      NM000R$  000000000001000000000000110000000000010000000000001000000000000100000000000000000000000001000012000000000000013400000000000000134100000000000150002013102100000010000000000000BRBVMFACNOR3125
012013073078BVMFJ41     070BVMF        ON      NM000R$  000000000012700000000001270000000000127000000000012700000000001270000000000000000000000000000001000000000000005000000000000000635000000000000115002013102100000010000000000000BRBVMFACNOR3125
012013073078BVMFJ43     070BVMF        ON      NM000R$  000000000003100000000000310000000000030000000000003000000000000300000000000000000000000000000002000000000000000500000000000000015100000000000135002013102100000010000000000000BRBVMFACNOR3125
012013073078BVMFK13     070BVMF        ON      NM000R$  000000000006300000000000630000000000063000000000006300000000000630000000000000000000000000000001000000000000001800000000000000113400000000000130002013111800000010000000000000BRBVMFACNOR3125
012013073078BVMFL13     070BVMF        ON      NM000R$  000000000007400000000000750000000000074000000000007400000000000750000000000000000000000011000003000000000000600000000000000044900000000000000130002013121600000010000000000000BRBVMFACNOR3125
012013073078BVMFL14     070BVMF        ON      NM000R$  000000000004200000000000420000000000042000000000004200000000000420000000000000000000000000000001000000000000001500000000000000063000000000000138902013121600000010000000000000BRBVMFACNOR3124
012013073082BVMFQ73     080BVMFE       ON      NM000R$  000000000012400000000001240000000000124000000000012400000000001240000000000000000000000000000001000000000000018300000000000002269200000000000128902014051900000010000000000000BRBVMFACNOR3124
012013073082BVMFR63     080BVMFE       ON      NM000R$  000000000013000000000001300000000000130000000000013000000000001300000000000000000000000000000001000000000000028400000000000003692000000000000130002014061600000010000000000000BRBVMFACNOR3125
012013073082BVMFT10     080BVMFE       ON      NM000R$  000000000000300000000000030000000000003000000000000300000000000030000000000000000000000000400002000000000000003800000000000000011400000000000100002013081900000010000000000000BRBVMFACNOR3125
012013073082BVMFT11     080BVMFE       ON      NM000R$  000000000001100000000000130000000000010000000000001100000000000130000000000002000000000001800033000000000000062500000000000000706000000000000110002013081900000010000000000000BRBVMFACNOR3125
012013073082BVMFT12     080BVMFE FM    ON      NM000R$  000000000002600000000000380000000000026000000000003300000000000380000000000026000000000003900087000000000000146400000000000004832400000000000120002013081900000010000000000000BRBVMFACNOR3125
012013073082BVMFT13     080BVMFE FM    ON      NM000R$  000000000006500000000000900000000000065000000000007600000000000900000000000056000000000010600072000000000000130600000000000009959800000000000128902013081900000010000000000000BRBVMFACNOR3124
012013073082BVMFT14     080BVMFE       ON      NM000R$  000000000015300000000001740000000000153000000000016300000000001720000000000000000000000000000008000000000000001300000000000000212100000000000138902013081900000010000000000000BRBVMFACNOR3124
012013073082BVMFT41     080BVMFE FM    ON      NM000R$  000000000001600000000000210000000000016000000000001800000000000210000000000001000000000005500032000000000000069100000000000001291000000000000115002013081900000010000000000000BRBVMFACNOR3125
012013073082BVMFT42     080BVMFE FM    ON      NM000R$  000000000004500000000000630000000000044000000000005200000000000620000000000000000000000000000022000000000000072500000000000003815200000000000125002013081900000010000000000000BRBVMFACNOR3125
012013073082BVMFT61     080BVMFE       ON      NM000R$  000000000002400000000000240000000000024000000000002400000000000240000000000000000000000000000001000000000000000100000000000000002400000000000117502013081900000010000000000000BRBVMFACNOR3125
012013073082BVMFU11     080BVMFE       ON      NM000R$  000000000001700000000000170000000000017000000000001700000000000170000000000000000000000002000002000000000000001500000000000000025500000000000110002013091600000010000000000000BRBVMFACNOR3125
012013073082BVMFU12     080BVMFE FM    ON      NM000R$  000000000004000000000000490000000000040000000000004500000000000490000000000033000000000005000072000000000000029600000000000001355700000000000120002013091600000010000000000000BRBVMFACNOR3125
012013073082BVMFU13     080BVMFE FM    ON      NM000R$  000000000008200000000001040000000000082000000000009700000000001040000000000050000000000000000019000000000000054900000000000005339600000000000130002013091600000010000000000000BRBVMFACNOR3125
012013073082BVMFU41     080BVMFE FM    ON      NM000R$  000000000003000000000000300000000000030000000000003000000000000300000000000000000000000000000003000000000000010000000000000000300000000000000115002013091600000010000000000000BRBVMFACNOR3125
012013073082BVMFU42     080BVMFE FM    ON      NM000R$  000000000005500000000000730000000000055000000000006500000000000730000000000000000000000000000057000000000000184700000000000012151700000000000125002013091600000010000000000000BRBVMFACNOR3125
012013073082BVMFV10     080BVMFE       ON      NM000R$  000000000001100000000000120000000000011000000000001100000000000120000000000000000000000001500002000000000000000400000000000000004600000000000100002013102100000010000000000000BRBVMFACNOR3125
012013073082BVMFV12     080BVMFE       ON      NM000R$  000000000005900000000000590000000000059000000000005900000000000590000000000000000000000000000001000000000000002000000000000000118000000000000120002013102100000010000000000000BRBVMFACNOR3125
012013073082BVMFV14     080BVMFE       ON      NM000R$  000000000017000000000001700000000000170000000000017000000000001700000000000000000000000000000001000000000000000500000000000000085000000000000140002013102100000010000000000000BRBVMFACNOR3125
012013073082BVMFW10     080BVMFE       ON      NM000R$  000000000001600000000000170000000000016000000000001600000000000170000000000000000000000000000002000000000000000400000000000000006600000000000100002013111800000010000000000000BRBVMFACNOR3125
012013073082BVMFX2      080BVMFE       ON      NM000R$  000000000006300000000000630000000000063000000000006300000000000630000000000000000000000000000001000000000000001800000000000000113400000000000118902013121600000010000000000000BRBVMFACNOR3124
012013073002CAMB4       010CAMBUCI     PN           R$  000000000019500000000001950000000000194000000000019400000000001940000000000191000000000019500005000000000000014700000000000002856300000000000000009999123100000010000000000000BRCAMBACNPR1117
012013073002CARD3       010CSU CARDSYSTON      NM   R$  000000000032500000000003310000000000325000000000033000000000003310000000000319000000000033100010000000000000014600000000000004829000000000000000009999123100000010000000000000BRCARDACNOR9105
012013073096CBMA3F      020COBRASMA    ON           R$  000000000000400000000000040000000000004000000000000400000000000040000000000004000000000000500001000000000000001997000000000000007988000000000000009999123100000010000000000000BRCBMAACNOR4124
012013073002CBMA4       010COBRASMA    PN           R$  000000000000500000000000050000000000005000000000000500000000000050000000000004000000000000600005000000000000070000000000000000350000000000000000009999123100000010000000000000BRCBMAACNPR1124
012013073096CBMA4F      020COBRASMA    PN           R$  000000000000600000000000060000000000006000000000000600000000000060000000000004000000000000600001000000000000001000000000000000006000000000000000009999123100000010000000000000BRCBMAACNPR1124
012013073008CCHI3       010CHIARELLI   ON           R$  000000000002900000000000290000000000029000000000002900000000000290000000000028000000000003000019000000000000420000000000000012180000000000000000009999123100000010000000000000BRCCHIACNOR5123
012013073096CCHI3F      020CHIARELLI   ON           R$  000000000002800000000000290000000000027000000000002800000000000290000000000027000000000002900005000000000000007052000000000000197708000000000000009999123100000010000000000000BRCCHIACNOR5123
012013073002CCPR3       010CYRE COM-CCPON      NM   R$  000000000211000000000022000000000002110000000000216600000000021100000000002110000000000220000026000000000000003300000000000007147800000000000000009999123100000010000000000000BRCCPRACNOR9107
012013073096CCPR3F      020CYRE COM-CCPON      NM   R$  000000000215000000000021500000000002150000000000215000000000021500000000002000000000000210000002000000000000000045000000000000096750000000000000009999123100000010000000000000BRCCPRACNOR9107
012013073002CCRO3       010CCR SA      ON      NM   R$  000000000180900000000018250000000001770000000000179600000000018000000000001799000000000180211322000000000005271500000000009472588800000000000000009999123100000010000000000000BRCCROACNOR2122
012013073096CCRO3F      020CCR SA      ON      NM   R$  000000000180300000000018380000000001770000000000180000000000018010000000001775000000000180000059000000000000001696000000000003054170000000000000009999123100000010000000000000BRCCROACNOR2122
012013073062CCRO3T      030CCR SA      ON      NM030R$  000000000178900000000017900000000001789000000000178900000000017900000000000000000000000000000008000000000000100000000000000178971788000000000000009999123100000010000000000000BRCCROACNOR2122
012013073078CCROI19     070CCRO        ON      NM000R$  000000000002700000000000270000000000018000000000002300000000000250000000000000000000000000000004000000000000023800000000000000570600000000000190002013091600000010000000000000BRCCROACNOR2122
012013073078CCROJ20     070CCRO        ON      NM000R$  000000000003200000000000320000000000032000000000003200000000000320000000000000000000000000000002000000000000060000000000000001920000000000000200002013102100000010000000000000BRCCROACNOR2122
012013073002CCXC3       010CCX CARVAO  ON      NM   R$  000000000010400000000001050000000000098000000000010000000000000990000000000098000000000009900263000000000000611300000000000061458800000000000000009999123100000010000000000000BRCCXCACNOR5100
012013073062CCXC3T      030CCX CARVAO  ON      NM090R$  000000000010000000000001010000000000100000000000010000000000001010000000000000000000000000000002000000000000070000000000000007067214000000000000009999123100000010000000000000BRCCXCACNOR5100
012013073002CEBR6       010CEB         PNB          R$  000000000174900000000017490000000001749000000000174900000000017490000000001280000000000175000002000000000000006200000000000010843800000000000000009999123100000010000000000000BRCEBRACNPB6113
012013073062CEBR6T      030CEB         PNB       120R$  000000000179500000000017960000000001795000000000179500000000017960000000000000000000000000000004000000000000006200000000000011130076000000000000009999123100000010000000000000BRCEBRACNPB6113
012013073096CEDO3F      020CEDRO       ON      N1   R$  000000000100100000000010010000000001001000000000100100000000010010000000000000000000000120000001000000000000000040000000000000040040000000000000009999123100000010000000000000BRCEDOACNOR8094
012013073008CELP3       010CELPA       ON           R$  000000000006800000000000680000000000068000000000006800000000000680000000000056000000000006800001000000000000000300000000000000020400000000000000009999123100000010000000000000BRCELPACNOR8112
012013073012CEOC11B     010FII CEO CCP CI      MB   R$  000000000913000000000091640000000009100000000000911700000000091640000000009110000000000916400030000000000000002092000000000019073410000000000000009999123100000010000000000000BRCEOCCTF003108
012013073002CEPE5       010CELPE       PNA          R$  000000000174200000000017420000000001742000000000174200000000017420000000001741000000000190000001000000000000000200000000000000348400000000000000009999123100000010000000000000BRCEPEACNPA6151
012013073002CESP5       010CESP        PNA     N1   R$  000000000217000000000021700000000002170000000000217000000000021700000000002170000000000226000001000000000000000100000000000000217000000000000000009999123100000010000000000000BRCESPACNPA6108
012013073096CESP5F      020CESP        PNA     N1   R$  000000000215100000000021510000000002151000000000215100000000021510000000002068000000000220000002000000000000000070000000000000150570000000000000009999123100000010000000000000BRCESPACNPA6108
012013073002CESP6       010CESP        PNB     N1   R$  000000000204200000000020510000000002002000000000201500000000020230000000002020000000000202302331000000000000745200000000001502254800000000000000009999123100000010000000000000BRCESPACNPB4118
012013073096CESP6F      020CESP        PNB     N1   R$  000000000203500000000021070000000002015000000000203100000000020510000000002017000000000205200018000000000000000526000000000001068612000000000000009999123100000010000000000000BRCESPACNPB4118
012013073002CGAS3       010COMGAS      ON           R$  000000000504900000000050880000000005049000000000507500000000050790000000004611000000000508000005000000000000004900000000000024867600000000000000009999123100000010000000000000BRCGASACNOR0132
012013073096CGAS3F      020COMGAS      ON           R$  000000000410000000000050500000000004100000000000423300000000050500000000004055000000000505000002000000000000000100000000000000423300000000000000009999123100000010000000000000BRCGASACNOR0132
012013073002CGAS5       010COMGAS      PNA          R$  000000000560000000000056000000000005532000000000556000000000055600000000005560000000000557200157000000000000101400000000000563864000000000000000009999123100000010000000000000BRCGASACNPA3129
012013073096CGAS5F      020COMGAS      PNA          R$  000000000561400000000056140000000005590000000000559500000000055900000000005401000000000561400002000000000000000110000000000000615476000000000000009999123100000010000000000000BRCGASACNPA3129
012013073002CGRA3       010GRAZZIOTIN  ON           R$  000000000143000000000014310000000001416000000000142300000000014160000000001416000000000142600020000000000000004900000000000006973000000000000000009999123100000010000000000000BRCGRAACNOR2061
012013073002CGRA4       010GRAZZIOTIN  PN           R$  000000000159600000000015960000000001571000000000158300000000015800000000001580000000000160400028000000000000013100000000000020748900000000000000009999123100000010000000000000BRCGRAACNPR9061
012013073096CGRA4F      020GRAZZIOTIN  PN           R$  000000000159000000000015900000000001586000000000158800000000015860000000001586000000000171500004000000000000000125000000000000198590000000000000009999123100000010000000000000BRCGRAACNPR9061
012013073002CHVX11B     010CHEVRON     DRN     MB   R$  000000002869100000000286910000000028691000000002869100000000286910000000000000000000000000000001000000000000001300000000000037298300000000000000009999123100000010000000000000BRCHVXBDR008108
012013073002CIEL3       010CIELO       ON      NM   R$  000000000547900000000055690000000005468000000000554100000000055640000000005540000000000556405623000000000001435600000000007955541900000000000000009999123100000010000000000000BRCIELACNOR3111
012013073096CIEL3F      020CIELO       ON      NM   R$  000000000546800000000055690000000005468000000000552100000000055590000000005534000000000554700107000000000000003012000000000016630709000000000000009999123100000010000000000000BRCIELACNOR3111
012013073002CLSC4       010CELESC      PN      N2   R$  000000000190100000000019500000000001900000000000193000000000019010000000001901000000000193000097000000000000021000000000000040549900000000000000009999123100000010000000000000BRCLSCACNPR3107
012013073002CMCS11B     010COMCAST     DRN     MB   R$  000000000986000000000098600000000009860000000000986000000000098600000000000000000000000000000001000000000000003700000000000036482000000000000000009999123100000010000000000000BRCMCSBDR008106
012013073002CMIG3       010CEMIG       ON      N1   R$  000000000222400000000022240000000002136000000000215200000000021750000000002137000000000218500291000000000000155000000000000333617000000000000000009999123100000010000000000000BRCMIGACNOR6208
012013073096CMIG3F      020CEMIG       ON      N1   R$  000000000218400000000021850000000002143000000000216600000000021430000000002125000000000214300023000000000000000692000000000001499232000000000000009999123100000010000000000000BRCMIGACNOR6208
012013073002CMIG4       010CEMIG       PN      N1   R$  000000000219100000000021910000000002141000000000215400000000021490000000002145000000000214907920000000000003139200000000006762816400000000000000009999123100000010000000000000BRCMIGACNPR3208
012013073096CMIG4F      020CEMIG       PN      N1   R$  000000000216200000000022000000000002142000000000215600000000021690000000002148000000000216900143000000000000003870000000000008345629000000000000009999123100000010000000000000BRCMIGACNPR3208
012013073078CMIGH22     070CMIG        PN      N1000R$  000000000004500000000000450000000000045000000000004500000000000450000000000005000000000006000001000000000000000600000000000000027000000000000220002013081900000010000000000000BRCMIGACNPR3208
012013073078CMIGH23     070CMIG        PN      N1000R$  000000000001500000000000150000000000015000000000001500000000000150000000000000000000000002500001000000000000000100000000000000001500000000000230002013081900000010000000000000BRCMIGACNPR3208
012013073012CNES11B     010FII CENESP  CI  ER  MB   R$  000000001261000000000126100000000012600000000001260000000000126000000000012500000000001251000009000000000000000447000000000005632300000000000000009999123100000010000000000000BRCNESCTF001124
012013073002COCA11B     010COCA COLA   DRN     MB   R$  000000000924600000000092460000000009246000000000924600000000092460000000000000000000000940000001000000000000001700000000000015718200000000000000009999123100000010000000000000BRCOCABDR002108
012013073002COCE3       010COELCE      ON           R$  000000000421700000000042490000000004202000000000422000000000042350000000004150000000000423600009000000000000001200000000000005064000000000000000009999123100000010000000000000BRCOCEACNOR0132
012013073002COCE5       010COELCE      PNA          R$  000000000409700000000041530000000004035000000000409200000000041200000000004100000000000413400161000000000000038400000000000157148600000000000000009999123100000010000000000000BRCOCEACNPA3133
012013073096COCE5F      020COELCE      PNA          R$  000000000413000000000041500000000004051000000000410600000000040920000000004081000000000409200010000000000000000156000000000000640582000000000000009999123100000010000000000000BRCOCEACNPA3133
012013073002CPFE3       010CPFL ENERGIAON      NM   R$  000000000218000000000021800000000002123000000000213500000000021230000000002123000000000212404594000000000000992600000000002119596900000000000000009999123100000010000000000000BRCPFEACNOR0121
012013073096CPFE3F      020CPFL ENERGIAON      NM   R$  000000000215600000000022200000000002120000000000214300000000021200000000002068000000000223400042000000000000001089000000000002334676000000000000009999123100000010000000000000BRCPFEACNOR0121
012013073002CPLE3       010COPEL       ON      N1   R$  000000000220500000000022440000000002169000000000220000000000022090000000002159000000000220900036000000000000010000000000000022007300000000000000009999123100000010000000000000BRCPLEACNOR8128
012013073096CPLE3F      020COPEL       ON      N1   R$  000000000240000000000024000000000002400000000000240000000000024000000000002200000000000240000001000000000000000001000000000000002400000000000000009999123100000010000000000000BRCPLEACNOR8128
012013073002CPLE6       010COPEL       PNB     N1   R$  000000000286700000000028670000000002784000000000280100000000027950000000002795000000000279901565000000000000435500000000001220055500000000000000009999123100000010000000000000BRCPLEACNPB9125
012013073096CPLE6F      020COPEL       PNB     N1   R$  000000000291000000000029100000000002784000000000283300000000028530000000002776000000000285300016000000000000000335000000000000949251000000000000009999123100000010000000000000BRCPLEACNPB9125
012013073062CPLE6T      030COPEL       PNB     N1062R$  000000000282300000000028240000000002823000000000282300000000028240000000000000000000000000000002000000000000001000000000000002823054000000000000009999123100000010000000000000BRCPLEACNPB9125
012013073002CPRE3       010CPFL RENOVAVON      NM   R$  000000000117800000000011900000000001168000000000118400000000011720000000001172000000000118500022000000000000031600000000000037416000000000000000009999123100000010000000000000BRCPREACNOR5100
012013073096CPRE3F      020CPFL RENOVAVON      NM   R$  000000000118000000000011890000000001160000000000116800000000011700000000001134000000000115000014000000000000000313000000000000365875000000000000009999123100000010000000000000BRCPREACNOR5100
012013073062CPRE3T      030CPFL RENOVAVON      NM016R$  000000000118900000000011900000000001189000000000118900000000011900000000000000000000000000000018000000000000027700000000000032959080000000000000009999123100000010000000000000BRCPREACNOR5100
012013073002CRDE3       010CR2         ON      NM   R$  000000000040500000000004050000000000405000000000040500000000004050000000000400000000000041000001000000000000000100000000000000040500000000000000009999123100000010000000000000BRCRDEACNOR1108
012013073002CREM3       010CREMER      ON      NM   R$  000000000144400000000014440000000001425000000000143200000000014300000000001430000000000144400013000000000000004700000000000006734500000000000000009999123100000010000000000000BRCREMACNOR2166
012013073096CREM3F      020CREMER      ON      NM   R$  000000000141500000000014200000000001415000000000141800000000014200000000001321000000000152800002000000000000000080000000000000113450000000000000009999123100000010000000000000BRCREMACNOR2166
012013073002CRIV3       010ALFA FINANC ON           R$  000000000055800000000005580000000000558000000000055800000000005580000000000517000000000055900002000000000000005900000000000003292200000000000000009999123100000010000000000000BRCRIVACNOR4189
012013073002CRIV4       010ALFA FINANC PN           R$  000000000048600000000004890000000000486000000000048800000000004890000000000470000000000048900003000000000000000500000000000000244200000000000000009999123100000010000000000000BRCRIVACNPR1189
012013073096CRIV4F      020ALFA FINANC PN           R$  000000000049000000000004900000000000490000000000049000000000004900000000000486000000000049000001000000000000000044000000000000021560000000000000009999123100000010000000000000BRCRIVACNPR1189
012013073002CRUZ3       010SOUZA CRUZ  ON           R$  000000000282400000000028240000000002680000000000272500000000026800000000002680000000000268108023000000000002815900000000007675070600000000000000009999123100000010000000000000BRCRUZACNOR0246
012013073096CRUZ3F      020SOUZA CRUZ  ON           R$  000000000282500000000028250000000002684000000000272600000000026900000000002685000000000270500120000000000000003596000000000009804876000000000000009999123100000010000000000000BRCRUZACNOR0246
012013073062CRUZ3T      030SOUZA CRUZ  ON        016R$  000000000274600000000027470000000002708000000000272700000000027100000000000000000000000000000006000000000000002000000000000005454371000000000000009999123100000010000000000000BRCRUZACNOR0246
012013073062CRUZ3T      030SOUZA CRUZ  ON        030R$  000000000273000000000027310000000002698000000000270100000000026990000000000000000000000000000004000000000000006700000000000018100653000000000000009999123100000010000000000000BRCRUZACNOR0246
012013073078CRUZE82     070CRUZ        ON        000R$  000000000007900000000000790000000000079000000000007900000000000790000000000000000000000000000002000000000000003600000000000000284400000000000319902014051900000010000000000000BRCRUZACNOR0245
012013073002CSAN3       010COSAN       ON      NM   R$  000000000431500000000043590000000004285000000000431100000000042850000000004285000000000429903785000000000001044500000000004503650500000000000000009999123100000010000000000000BRCSANACNOR6107
012013073096CSAN3F      020COSAN       ON      NM   R$  000000000430000000000044010000000004254000000000431300000000043020000000004303000000000432000068000000000000001777000000000007665619000000000000009999123100000010000000000000BRCSANACNOR6107
012013073062CSAN3T      030COSAN       ON      NM016R$  000000000437200000000043730000000004372000000000437200000000043730000000000000000000000000000002000000000000000100000000000000437242000000000000009999123100000010000000000000BRCSANACNOR6107
012013073002CSCO11B     010CISCO       DRN     MB   R$  000000000590500000000059050000000005905000000000590500000000059050000000000000000000000000000001000000000000003700000000000021848500000000000000009999123100000010000000000000BRCSCOBDR004110
012013073002CSMG3       010COPASA      ON      NM   R$  000000000363000000000036500000000003535000000000359800000000036500000000003650000000000365801960000000000000345700000000001243987500000000000000009999123100000010000000000000BRCSMGACNOR5127
012013073096CSMG3F      020COPASA      ON      NM   R$  000000000365000000000036500000000003531000000000358000000000036340000000003530000000000362500053000000000000002031000000000007272729000000000000009999123100000010000000000000BRCSMGACNOR5127
012013073096CSMO11F     020ISHARES CSMOCI           R$  000000000498000000000049800000000004980000000000498000000000049800000000000000000000000498000001000000000000000001000000000000004980000000000000009999123100000010000000000000BRCSMOCTF002100
012013073002CSNA3       010SID NACIONALON           R$  000000000071600000000007210000000000666000000000068500000000006670000000000667000000000066913416000000000010587900000000007257244700000000000000009999123100000010000000000000BRCSNAACNOR6242
012013073096CSNA3F      020SID NACIONALON           R$  000000000070800000000007200000000000670000000000068800000000006710000000000671000000000070000115000000000000003297000000000002268764000000000000009999123100000010000000000000BRCSNAACNOR6242
012013073062CSNA3T      030SID NACIONALON        030R$  000000000070400000000007060000000000694000000000069900000000006950000000000000000000000000000010000000000000008000000000000005597791000000000000009999123100000010000000000000BRCSNAACNOR6242
012013073062CSNA3T      030SID NACIONALON        062R$  000000000068700000000006880000000000687000000000068700000000006880000000000000000000000000000002000000000000001000000000000000687017000000000000009999123100000010000000000000BRCSNAACNOR6242
012013073062CSNA3T      030SID NACIONALON        090R$  000000000069100000000007000000000000691000000000069900000000007000000000000000000000000000000004000000000000030800000000000021536616000000000000009999123100000010000000000000BRCSNAACNOR6242
012013073078CSNAH6      070CSNA        ON        000R$  000000000011100000000001110000000000089000000000009400000000000890000000000000000000000012000005000000000000004400000000000000413600000000000060002013081900000010000000000000BRCSNAACNOR6242
012013073078CSNAH64     070CSNA        ON        000R$  000000000005800000000000580000000000058000000000005800000000000580000000000000000000000000000001000000000000000200000000000000011600000000000064002013081900000010000000000000BRCSNAACNOR6242
012013073078CSNAH68     070CSNA  FM    ON        000R$  000000000003800000000000390000000000033000000000003500000000000340000000000000000000000000000024000000000000071500000000000002562500000000000068002013081900000010000000000000BRCSNAACNOR6242
012013073078CSNAH7      070CSNA  FM    ON        000R$  000000000004400000000000440000000000024000000000002900000000000260000000000000000000000003500055000000000000241200000000000007053400000000000070002013081900000010000000000000BRCSNAACNOR6242
012013073078CSNAH72     070CSNA  FM    ON        000R$  000000000002400000000000240000000000024000000000002400000000000240000000000005000000000002600001000000000000001000000000000000024000000000000072002013081900000010000000000000BRCSNAACNOR6242
012013073078CSNAH74     070CSNA  FM    ON        000R$  000000000001300000000000130000000000013000000000001300000000000130000000000000000000000000000003000000000000010000000000000000130000000000000074002013081900000010000000000000BRCSNAACNOR6242
012013073078CSNAH76     070CSNA  FM    ON        000R$  000000000001200000000000120000000000012000000000001200000000000120000000000000000000000001300002000000000000005000000000000000060000000000000076002013081900000010000000000000BRCSNAACNOR6242
012013073078CSNAH8      070CSNA        ON        000R$  000000000000600000000000060000000000005000000000000500000000000050000000000001000000000000500003000000000000020000000000000000110000000000000080002013081900000010000000000000BRCSNAACNOR6242
012013073078CSNAI6      070CSNA        ON        000R$  000000000009800000000001000000000000098000000000009900000000001000000000000000000000000000000003000000000000002000000000000000199000000000000060002013091600000010000000000000BRCSNAACNOR6242
012013073078CSNAI68     070CSNA  FM    ON        000R$  000000000004900000000000490000000000049000000000004900000000000490000000000000000000000000000002000000000000005500000000000000269500000000000068002013091600000010000000000000BRCSNAACNOR6242
012013073078CSNAI7      070CSNA  FM    ON        000R$  000000000004400000000000440000000000038000000000004100000000000410000000000035000000000000000009000000000000021000000000000000867800000000000070002013091600000010000000000000BRCSNAACNOR6242
012013073078CSNAI72     070CSNA  FM    ON        000R$  000000000003600000000000360000000000032000000000003300000000000320000000000000000000000000000006000000000000019500000000000000659500000000000072002013091600000010000000000000BRCSNAACNOR6242
012013073078CSNAJ6      070CSNA        ON        000R$  000000000010700000000001070000000000107000000000010700000000001070000000000000000000000000000001000000000000000500000000000000053500000000000060002013102100000010000000000000BRCSNAACNOR6242
012013073078CSNAJ7      070CSNA        ON        000R$  000000000006100000000000610000000000061000000000006100000000000610000000000000000000000000000002000000000000001000000000000000061000000000000070002013102100000010000000000000BRCSNAACNOR6242
012013073078CSNAJ72     070CSNA        ON        000R$  000000000004700000000000480000000000047000000000004700000000000480000000000000000000000000000004000000000000001300000000000000061400000000000072002013102100000010000000000000BRCSNAACNOR6242
012013073082CSNAT6      080CSNAE       ON        000R$  000000000000500000000000090000000000005000000000000800000000000090000000000000000000000001000004000000000000010500000000000000092800000000000060002013081900000010000000000000BRCSNAACNOR6242
012013073082CSNAT65     080CSNAE       ON        000R$  000000000001400000000000140000000000014000000000001400000000000140000000000014000000000000000008000000000000012200000000000000170800000000000065002013081900000010000000000000BRCSNAACNOR6242
012013073082CSNAT68     080CSNAE FM    ON        000R$  000000000002300000000000370000000000022000000000002500000000000370000000000000000000000000000037000000000000068300000000000001745800000000000068002013081900000010000000000000BRCSNAACNOR6242
012013073082CSNAT7      080CSNAE FM    ON        000R$  000000000003500000000000480000000000034000000000004400000000000480000000000000000000000005000024000000000000041400000000000001844400000000000070002013081900000010000000000000BRCSNAACNOR6242
012013073082CSNAT72     080CSNAE FM    ON        000R$  000000000005300000000000610000000000052000000000005600000000000580000000000000000000000000000010000000000000016900000000000000955100000000000072002013081900000010000000000000BRCSNAACNOR6242
012013073082CSNAU62     080CSNAE       ON        000R$  000000000002200000000000220000000000022000000000002200000000000220000000000022000000000000000005000000000000001200000000000000026400000000000062002013091600000010000000000000BRCSNAACNOR6242
012013073082CSNAU66     080CSNAE FM    ON        000R$  000000000002900000000000380000000000029000000000003400000000000380000000000000000000000004400006000000000000014000000000000000478000000000000066002013091600000010000000000000BRCSNAACNOR6242
012013073082CSNAU68     080CSNAE FM    ON        000R$  000000000003600000000000480000000000036000000000004200000000000480000000000000000000000000000007000000000000016500000000000000701000000000000068002013091600000010000000000000BRCSNAACNOR6242
012013073082CSNAU7      080CSNAE FM    ON        000R$  000000000004400000000000590000000000044000000000005200000000000590000000000033000000000006100057000000000000026700000000000001413800000000000070002013091600000010000000000000BRCSNAACNOR6242
012013073082CSNAU72     080CSNAE FM    ON        000R$  000000000007000000000000710000000000070000000000007000000000000710000000000000000000000000000003000000000000008500000000000000598500000000000072002013091600000010000000000000BRCSNAACNOR6242
012013073082CSNAV55     080CSNAE       ON        000R$  000000000001300000000000130000000000013000000000001300000000000130000000000000000000000000000002000000000000004000000000000000052000000000000055002013102100000010000000000000BRCSNAACNOR6242
012013073082CSNAV56     080CSNAE       ON        000R$  000000000001500000000000150000000000015000000000001500000000000150000000000000000000000000000004000000000000006000000000000000090000000000000056002013102100000010000000000000BRCSNAACNOR6242
012013073082CSNAV57     080CSNAE       ON        000R$  000000000001600000000000170000000000016000000000001600000000000170000000000000000000000000000002000000000000004000000000000000066000000000000057002013102100000010000000000000BRCSNAACNOR6242
012013073082CSNAV58     080CSNAE       ON        000R$  000000000001800000000000190000000000018000000000001800000000000190000000000000000000000000000002000000000000003000000000000000056000000000000058002013102100000010000000000000BRCSNAACNOR6242
012013073082CSNAV6      080CSNAE       ON        000R$  000000000002200000000000230000000000022000000000002200000000000230000000000000000000000000000002000000000000004000000000000000090000000000000060002013102100000010000000000000BRCSNAACNOR6242
012013073082CSNAV62     080CSNAE       ON        000R$  000000000002800000000000280000000000028000000000002800000000000280000000000000000000000000000001000000000000002000000000000000056000000000000062002013102100000010000000000000BRCSNAACNOR6242
012013073002CTAX11      010CONTAX      UNT     N2   R$  000000000166100000000016900000000001641000000000166800000000016900000000001688000000000169000080000000000000055500000000000092614100000000000000009999123100000010000000000000BRCTAXCDAM19100
012013073096CTAX11F     020CONTAX      UNT     N2   R$  000000000164100000000016410000000001641000000000164100000000016410000000001555000000000188800001000000000000000060000000000000098460000000000000009999123100000010000000000000BRCTAXCDAM19100
012013073002CTAX4       010CONTAX      PN      N2   R$  000000000033100000000003310000000000320000000000032800000000003310000000000325000000000034100106000000000000104900000000000034436500000000000000009999123100000010000000000000BRCTAXACNPR0114
012013073002CTGP11B     010CITIGROUP   DRN     MB   R$  000000001181000000000118100000000011810000000001181000000000118100000000011740000000001186000001000000000000003900000000000046059000000000000000009999123100000010000000000000BRCTGPBDR000110
012013073002CTIP3       010CETIP       ON      NM   R$  000000000235000000000023500000000002266000000000228800000000022920000000002285000000000229205989000000000001620900000000003708993300000000000000009999123100000010000000000000BRCTIPACNOR2119
