00COTAHIST.2013BOVESPA 20130712                                                                                                                                                                                                                      
012013071210ABCB2       010ABC BRASIL  DIR PRE N2   R$  000000000020000000000002000000000000190000000000019800000000002000000000000160000000000020000012000000000000003200000000000000636000000000000000009999123100000010000000000000BRABCBD03PR5119
012013071296ABCB2F      020ABC BRASIL  DIR PRE N2   R$  000000000015000000000001900000000000150000000000015600000000001900000000000150000000000020000002000000000000000100000000000000015680000000000000009999123100000010000000000000BRABCBD03PR5119
012013071202ABCB4       010ABC BRASIL  PN      N2   R$  000000000126600000000013040000000001239000000000126800000000012720000000001262000000000127200608000000000000259400000000000328986700000000000000009999123100000010000000000000BRABCBACNPR4120
012013071296ABCB4F      020ABC BRASIL  PN      N2   R$  000000000113600000000012700000000001136000000000117300000000012700000000001266000000000127300005000000000000000111000000000000130214000000000000009999123100000010000000000000BRABCBACNPR4120
012013071262ABCB4T      030ABC BRASIL  PN      N2031R$  000000000128300000000012840000000001283000000000128300000000012840000000000000000000000000000002000000000000005000000000000006417713000000000000009999123100000010000000000000BRABCBACNPR4120
012013071212ABCP11      010FII ABC IMOBCI           R$  000000000096300000000009630000000000963000000000096300000000009630000000000880000000000096200001000000000000000020000000000000019260000000000000009999123100000010000000000000BRABCPCTF000213
012013071202ABRE11      010ABRIL EDUCA UNT     N2   R$  000000000391900000000040000000000003806000000000386300000000040000000000004000000000000405000530000000000000098900000000000382117100000000000000009999123100000010000000000000BRABRECDAM15102
012013071296ABRE11F     020ABRIL EDUCA UNT     N2   R$  000000000390000000000039750000000003814000000000390600000000038490000000003800000000000397200007000000000000000049000000000000191406000000000000009999123100000010000000000000BRABRECDAM15102
012013071202AEDU3       010ANHANGUERA  ON      NM   R$  000000000129300000000012930000000001246000000000126000000000012600000000001250000000000126106200000000000001724700000000002174450600000000000000009999123100000010000000000000BRAEDUACNOR9107
012013071296AEDU3F      020ANHANGUERA  ON      NM   R$  000000000127600000000012990000000001250000000000126600000000012500000000001215000000000129000009000000000000000354000000000000448189000000000000009999123100000010000000000000BRAEDUACNOR9107
012013071212AEFI11      010FII AESAPAR CI           R$  000000001229700000000124300000000012255000000001234000000000124300000000012400000000001243000027000000000000002233000000000027555390000000000000009999123100000010000000000000BRAEFICTF002119
012013071212AGCX11      010FII AG CAIXACI           R$  000000010090000000001009000000000100010000000010045500000001000100000000100002000000010090000002000000000000000020000000000002009100000000000000009999123100000010000000000000BRAGCXCTF003108
012013071202AGEN11      010AGRENCO     DR3          R$  000000000004200000000000430000000000040000000000004100000000000410000000000041000000000004200241000000000002425600000000000099743600000000000000009999123100000010000000000000BRAGENBDR001100
012013071296AGEN11F     020AGRENCO     DR3          R$  000000000003900000000000390000000000039000000000003900000000000390000000000039000000000004200001000000000000000026000000000000001014000000000000009999123100000010000000000000BRAGENBDR001100
012013071262AGEN11T     030AGRENCO     DR3       031R$  000000000004100000000000420000000000041000000000004100000000000420000000000000000000000000000002000000000000125000000000000005157800000000000000009999123100000010000000000000BRAGENBDR001100
012013071202AGRO3       010BRASILAGRO  ON      NM   R$  000000000102800000000010330000000001025000000000102600000000010330000000001000000000000103300008000000000000001900000000000001950400000000000000009999123100000010000000000000BRAGROACNOR7102
012013071202ALLL3       010ALL AMER LATON      NM   R$  000000000086700000000008710000000000838000000000084800000000008420000000000841000000000084204320000000000002689100000000002280254200000000000000009999123100000010000000000000BRALLLACNOR6118
012013071296ALLL3F      020ALL AMER LATON      NM   R$  000000000086000000000008660000000000835000000000084700000000008430000000000838000000000085300053000000000000001213000000000001027231000000000000009999123100000010000000000000BRALLLACNOR6118
012013071262ALLL3T      030ALL AMER LATON      NM017R$  000000000084500000000008460000000000845000000000084500000000008460000000000000000000000000000002000000000000000600000000000000507120000000000000009999123100000010000000000000BRALLLACNOR6118
012013071262ALLL3T      030ALL AMER LATON      NM031R$  000000000086400000000008650000000000864000000000086400000000008650000000000000000000000000000002000000000000000500000000000000432249000000000000009999123100000010000000000000BRALLLACNOR6118
012013071212ALMI11B     010FII TORRE ALCI      MB   R$  000000031989900000003200000000000311101000000031961000000003199000000000313000000000031990000006000000000000000027000000000008629496000000000000009999123100000010000000000000BRALMICTF003203
012013071202ALPA3       010ALPARGATAS  ON      N1   R$  000000000100500000000010370000000000997000000000100900000000010250000000001006000000000104400018000000000000002800000000000002827900000000000000009999123100000010000000000000BRALPAACNOR0202
012013071296ALPA3F      020ALPARGATAS  ON      N1   R$  000000000107000000000011300000000001070000000000107300000000011300000000001001000000000113000003000000000000000016000000000000017180000000000000009999123100000010000000000000BRALPAACNOR0202
012013071202ALPA4       010ALPARGATAS  PN      N1   R$  000000000137200000000013760000000001341000000000135900000000013410000000001341000000000135501528000000000000446900000000000607759300000000000000009999123100000010000000000000BRALPAACNPR7202
012013071296ALPA4F      020ALPARGATAS  PN      N1   R$  000000000132200000000013700000000001322000000000134900000000013400000000001340000000000136900018000000000000000541000000000000729890000000000000009999123100000010000000000000BRALPAACNPR7202
012013071202ALSC3       010ALIANSCE    ON      NM   R$  000000000187700000000019020000000001867000000000188100000000018850000000001885000000000189601205000000000000374600000000000704690500000000000000009999123100000010000000000000BRALSCACNOR0104
012013071296ALSC3F      020ALIANSCE    ON      NM   R$  000000000188500000000018850000000001870000000000187300000000018700000000001717000000000211700002000000000000000067000000000000125545000000000000009999123100000010000000000000BRALSCACNOR0104
012013071202ALUP11      010ALUPAR      UNT     N2   R$  000000000183100000000018350000000001785000000000179600000000017850000000001785000000000181000747000000000000402900000000000723871600000000000000009999123100000010000000000000BRALUPCDAM15100
012013071296ALUP11F     020ALUPAR      UNT     N2   R$  000000000182600000000018500000000001789000000000181700000000018050000000001805000000000185000032000000000000001107000000000002011444000000000000009999123100000010000000000000BRALUPCDAM15100
012013071262ALUP11T     030ALUPAR      UNT     N2031R$  000000000181900000000018200000000001819000000000181900000000018200000000000000000000000000000002000000000000003000000000000005458320000000000000009999123100000010000000000000BRALUPCDAM15100
012013071202AMAR3       010LOJAS MARISAON      NM   R$  000000000221000000000022360000000002155000000000219800000000021780000000002175000000000217900671000000000000180400000000000396615800000000000000009999123100000010000000000000BRAMARACNOR4109
012013071202AMBV3       010AMBEV       ON           R$  000000000819400000000082470000000008143000000000818600000000081970000000008181000000000819800605000000000000116000000000000949613300000000000000009999123100000010000000000000BRAMBVACNOR4153
012013071296AMBV3F      020AMBEV       ON           R$  000000000825000000000082500000000008150000000000818300000000082000000000008200000000000825000048000000000000000972000000000007954378000000000000009999123100000010000000000000BRAMBVACNOR4153
012013071202AMBV4       010AMBEV       PN           R$  000000000824500000000083210000000008186000000000822900000000082130000000008213000000000821905120000000000001058100000000008707945100000000000000009999123100000010000000000000BRAMBVACNPR1153
012013071296AMBV4F      020AMBEV       PN           R$  000000000822000000000083180000000008127000000000821800000000081310000000008131000000000823400145000000000000003476000000000028567682000000000000009999123100000010000000000000BRAMBVACNPR1153
012013071262AMBV4T      030AMBEV       PN        031R$  000000000829700000000082980000000008293000000000829400000000082940000000000000000000000000000004000000000000001300000000000010782974000000000000009999123100000010000000000000BRAMBVACNPR1153
012013071262AMBV4T      030AMBEV       PN        060R$  000000000834400000000083450000000008344000000000834400000000083450000000000000000000000000000002000000000000001000000000000008344081000000000000009999123100000010000000000000BRAMBVACNPR1153
012013071278AMBVG82     070AMBV        PN        000R$  000000000010000000000001000000000000100000000000010000000000001000000000000000000000000000000001000000000000003000000000000000300000000000000820002013071500000010000000000000BRAMBVACNPR1153
012013071278AMBVH84     070AMBV        PN        000R$  000000000017000000000001990000000000170000000000017800000000001990000000000190000000000000000006000000000000006300000000000001123800000000000840002013081900000010000000000000BRAMBVACNPR1153
012013071278AMBVH85     070AMBV        PN        000R$  000000000013500000000001350000000000135000000000013500000000001350000000000000000000000000000001000000000000000100000000000000013500000000000850002013081900000010000000000000BRAMBVACNPR1153
012013071278AMBVH86     070AMBV        PN        000R$  000000000009500000000001270000000000095000000000011100000000001270000000000000000000000000000002000000000000000200000000000000022200000000000860002013081900000010000000000000BRAMBVACNPR1153
012013071202ARTR3       010ARTERIS     ON      NM   R$  000000000206000000000020810000000002033000000000205100000000020500000000002050000000000205103550000000000001535900000000003151424600000000000000009999123100000010000000000000BRARTRACNOR3101
012013071296ARTR3F      020ARTERIS     ON      NM   R$  000000000204100000000020980000000002040000000000206100000000020600000000002035000000000209800027000000000000000782000000000001611910000000000000009999123100000010000000000000BRARTRACNOR3101
012013071202ARZZ3       010AREZZO CO   ON      NM   R$  000000000350000000000035080000000003431000000000345700000000034550000000003455000000000346401175000000000000250700000000000866716300000000000000009999123100000010000000000000BRARZZACNOR3108
012013071296ARZZ3F      020AREZZO CO   ON      NM   R$  000000000341100000000034820000000003212000000000338200000000032120000000003212000000000370000004000000000000000148000000000000500640000000000000009999123100000010000000000000BRARZZACNOR3108
012013071202AUTM3       010AUTOMETAL   ON      NM   R$  000000000168400000000018150000000001654000000000174200000000017550000000001739000000000175501018000000000000311100000000000542113700000000000000009999123100000010000000000000BRAUTMACNOR8109
012013071296AUTM3F      020AUTOMETAL   ON      NM   R$  000000000172000000000017450000000001720000000000173200000000017450000000001679000000000178000002000000000000000002000000000000003465000000000000009999123100000010000000000000BRAUTMACNOR8109
012013071202BAHI3       010BAHEMA      ON           R$  000000000051900000000005190000000000519000000000051900000000005190000000000491000000000051900001000000000000000200000000000000103800000000000000009999123100000010000000000000BRBAHIACNOR1066
012013071202BAUH4       010EXCELSIOR   PN           R$  000000000099000000000010100000000000990000000000099500000000010100000000000965000000000101000009000000000000016700000000000016619000000000000000009999123100000010000000000000BRBAUHACNPR3108
012013071202BAZA3       010AMAZONIA    ON           R$  000000000003300000000000330000000000033000000000003300000000000330000000000032000000000003300001000000000000003000000000000000099000000000000000009999123100000010000000000000BRBAZAACNOR0163
012013071202BBAS3       010BRASIL      ON      NM   R$  000000000210500000000021220000000002064000000000208800000000021000000000002099000000000210008773000000000006034500000000012601903800000000000000009999123100000010000000000000BRBBASACNOR3237
012013071296BBAS3F      020BRASIL      ON      NM   R$  000000000211300000000021190000000002065000000000208800000000020930000000002092000000000210000186000000000000005443000000000011368471000000000000009999123100000010000000000000BRBBASACNOR3237
012013071262BBAS3T      030BRASIL      ON      NM031R$  000000000209800000000021060000000002098000000000209900000000021060000000000000000000000000000004000000000000012500000000000026244402000000000000009999123100000010000000000000BRBBASACNOR3237
012013071262BBAS3T      030BRASIL      ON      NM060R$  000000000213000000000021310000000002130000000000213000000000021310000000000000000000000000000002000000000000020000000000000042613200000000000000009999123100000010000000000000BRBBASACNOR3237
012013071262BBAS3T      030BRASIL      ON      NM090R$  000000000212900000000021300000000002128000000000212900000000021290000000000000000000000000000004000000000000006000000000000012775132000000000000009999123100000010000000000000BRBBASACNOR3237
012013071262BBAS3T      030BRASIL      ON      NM122R$  000000000215600000000021570000000002132000000000215500000000021320000000000000000000000000000005000000000000010002000000000021559540000000000000009999123100000010000000000000BRBBASACNOR3237
012013071262BBAS3T      030BRASIL      ON      NM180R$  000000000219800000000021990000000002192000000000219600000000021930000000000000000000000000000004000000000000002700000000000005929581000000000000009999123100000010000000000000BRBBASACNOR3237
012013071278BBASC24     070BBAS        ON      NM000R$  000000000010800000000001080000000000107000000000010700000000001080000000000000000000000000000004000000000001315000000000000141485000000000000240002014031700000010000000000000BRBBASACNOR3237
012013071278BBASG20     070BBAS        ON      NM000R$  000000000010600000000001200000000000106000000000011500000000001150000000000011000000000000000010000000000000003100000000000000357300000000000197602013071500000010000000000000BRBBASACNOR3236
012013071278BBASG21     070BBAS        ON      NM000R$  000000000009500000000001000000000000085000000000009600000000000990000000000011000000000010900021000000000000014300000000000001377500000000000199202013071500000010000000000000BRBBASACNOR3232
012013071278BBASG22     070BBAS        ON      NM000R$  000000000001600000000000200000000000003000000000000900000000000070000000000003000000000000700111000000000000309500000000000002922300000000000211702013071500000010000000000000BRBBASACNOR3233
012013071278BBASG23     070BBAS        ON      NM000R$  000000000000100000000000010000000000001000000000000100000000000010000000000000000000000000100002000000000000020000000000000000020000000000000226602013071500000010000000000000BRBBASACNOR3235
012013071278BBASG24     070BBAS        ON      NM000R$  000000000000100000000000010000000000001000000000000100000000000010000000000000000000000000100001000000000000010000000000000000010000000000000231702013071500000010000000000000BRBBASACNOR3233
012013071278BBASG26     070BBAS        ON      NM000R$  000000000000100000000000010000000000001000000000000100000000000010000000000000000000000000100001000000000000000400000000000000000400000000000251702013071500000010000000000000BRBBASACNOR3233
012013071278BBASH19     070BBAS        ON      NM000R$  000000000022700000000002320000000000224000000000022600000000002320000000000000000000000023200005000000000000002000000000000000452400000000000190002013081900000010000000000000BRBBASACNOR3237
012013071278BBASH20     070BBAS  FM    ON      NM000R$  000000000017000000000001700000000000135000000000014900000000001670000000000150000000000017000080000000000000133200000000000019945900000000000200002013081900000010000000000000BRBBASACNOR3237
012013071278BBASH21     070BBAS  FM    ON      NM000R$  000000000011600000000001190000000000090000000000009900000000001190000000000090000000000011900085000000000000091800000000000009174400000000000207602013081900000010000000000000BRBBASACNOR3236
012013071278BBASH22     070BBAS  FM    ON      NM000R$  000000000006400000000000640000000000046000000000005300000000000580000000000057000000000006000036000000000000051900000000000002770300000000000217602013081900000010000000000000BRBBASACNOR3236
012013071278BBASH23     070BBAS  FM    ON      NM000R$  000000000002800000000000280000000000022000000000002400000000000260000000000023000000000002800036000000000000076200000000000001856700000000000227602013081900000010000000000000BRBBASACNOR3236
012013071278BBASH24     070BBAS  FM    ON      NM000R$  000000000002200000000000220000000000016000000000001800000000000180000000000011000000000002200011000000000000019300000000000000362200000000000231702013081900000010000000000000BRBBASACNOR3233
012013071278BBASH25     070BBAS        ON      NM000R$  000000000000800000000000080000000000008000000000000800000000000080000000000006000000000001000013000000000000004400000000000000035200000000000241702013081900000010000000000000BRBBASACNOR3233
012013071278BBASH27     070BBAS        ON      NM000R$  000000000000300000000000030000000000003000000000000300000000000030000000000000000000000002800001000000000000005000000000000000015000000000000266602013081900000010000000000000BRBBASACNOR3235
012013071278BBASI20     070BBAS  FM    ON      NM000R$  000000000019400000000001940000000000172000000000018100000000001840000000000000000000000000000031000000000000044400000000000008057800000000000200002013091600000010000000000000BRBBASACNOR3237
012013071278BBASI21     070BBAS  FM    ON      NM000R$  000000000012900000000001290000000000110000000000011900000000001190000000000100000000000000000014000000000000023400000000000002791300000000000210002013091600000010000000000000BRBBASACNOR3237
012013071278BBASI22     070BBAS  FM    ON      NM000R$  000000000008500000000000860000000000074000000000008200000000000860000000000060000000000000000020000000000000027400000000000002248300000000000217602013091600000010000000000000BRBBASACNOR3236
012013071278BBASI23     070BBAS  FM    ON      NM000R$  000000000004600000000000500000000000046000000000004600000000000500000000000021000000000000000004000000000000009100000000000000426600000000000227602013091600000010000000000000BRBBASACNOR3236
012013071278BBASI24     070BBAS  FM    ON      NM000R$  000000000002700000000000280000000000023000000000002500000000000280000000000015000000000000000027000000000000031800000000000000818300000000000237602013091600000010000000000000BRBBASACNOR3236
012013071278BBASI25     070BBAS        ON      NM000R$  000000000001400000000000160000000000014000000000001500000000000160000000000011000000000000000002000000000000001700000000000000026600000000000246602013091600000010000000000000BRBBASACNOR3235
012013071278BBASJ21     070BBAS        ON      NM000R$  000000000013900000000001390000000000139000000000013900000000001390000000000000000000000000000001000000000000100000000000000013900000000000000210002013102100000010000000000000BRBBASACNOR3237
012013071278BBASJ22     070BBAS        ON      NM000R$  000000000010200000000001020000000000102000000000010200000000001020000000000000000000000000000001000000000000000400000000000000040800000000000220002013102100000010000000000000BRBBASACNOR3237
012013071278BBASJ23     070BBAS        ON      NM000R$  000000000007500000000000750000000000075000000000007500000000000750000000000000000000000000000001000000000000003000000000000000225000000000000226602013102100000010000000000000BRBBASACNOR3235
012013071278BBASJ24     070BBAS        ON      NM000R$  000000000004700000000000470000000000047000000000004700000000000470000000000000000000000000000001000000000000003000000000000000141000000000000237602013102100000010000000000000BRBBASACNOR3236
012013071278BBASJ25     070BBAS        ON      NM000R$  000000000002700000000000280000000000027000000000002700000000000280000000000000000000000000000002000000000000003200000000000000086600000000000250002013102100000010000000000000BRBBASACNOR3237
012013071282BBASO18     080BBASE       ON      NM000R$  000000000005900000000000590000000000059000000000005900000000000590000000000000000000000000000002000000000001315000000000000077585000000000000180002014031700000010000000000000BRBBASACNOR3237
012013071282BBASS22     080BBASE       ON      NM000R$  000000000003800000000000500000000000017000000000003000000000000170000000000042000000000000000029000000000000078500000000000002432300000000000211702013071500000010000000000000BRBBASACNOR3233
012013071282BBASS23     080BBASE       ON      NM000R$  000000000016500000000001970000000000165000000000017900000000001750000000000130000000000000000011000000000000016100000000000002886500000000000226602013071500000010000000000000BRBBASACNOR3235
012013071282BBASS24     080BBASE       ON      NM000R$  000000000024000000000002400000000000240000000000024000000000002400000000000000000000000000000003000000000000007000000000000001680000000000000231702013071500000010000000000000BRBBASACNOR3233
012013071282BBASS26     080BBASE       ON      NM000R$  000000000045200000000004520000000000425000000000043200000000004270000000000000000000000000000009000000000000009000000000000003888500000000000251702013071500000010000000000000BRBBASACNOR3233
012013071282BBAST18     080BBASE       ON      NM000R$  000000000001300000000000130000000000013000000000001300000000000130000000000003000000000000000002000000000000002500000000000000032500000000000180002013081900000010000000000000BRBBASACNOR3237
012013071282BBAST19     080BBASE FM    ON      NM000R$  000000000002300000000000290000000000023000000000002300000000000270000000000014000000000004000004000000000000012000000000000000284400000000000190002013081900000010000000000000BRBBASACNOR3237
012013071282BBAST20     080BBASE FM    ON      NM000R$  000000000004500000000000570000000000043000000000005200000000000510000000000000000000000004900056000000000000145900000000000007691600000000000200002013081900000010000000000000BRBBASACNOR3237
012013071282BBAST21     080BBASE FM    ON      NM000R$  000000000006500000000000860000000000065000000000008200000000000760000000000067000000000013000058000000000000175700000000000014426500000000000207602013081900000010000000000000BRBBASACNOR3236
012013071282BBAST22     080BBASE FM    ON      NM000R$  000000000011800000000001410000000000118000000000013100000000001260000000000020000000000000000036000000000000074000000000000009736500000000000217602013081900000010000000000000BRBBASACNOR3236
012013071282BBAST23     080BBASE       ON      NM000R$  000000000019500000000002040000000000195000000000019700000000001950000000000000000000000000000005000000000000010600000000000002095600000000000227602013081900000010000000000000BRBBASACNOR3236
012013071282BBAST26     080BBASE       ON      NM000R$  000000000045000000000004500000000000450000000000045000000000004500000000000000000000000000000003000000000000001500000000000000675000000000000256602013081900000010000000000000BRBBASACNOR3235
012013071282BBASU19     080BBASE FM    ON      NM000R$  000000000004500000000000450000000000043000000000004300000000000430000000000000000000000000000003000000000000002200000000000000095000000000000190002013091600000010000000000000BRBBASACNOR3237
012013071282BBASU20     080BBASE FM    ON      NM000R$  000000000006200000000000730000000000062000000000006400000000000700000000000000000000000000000006000000000000008300000000000000539000000000000200002013091600000010000000000000BRBBASACNOR3237
012013071282BBASU21     080BBASE FM    ON      NM000R$  000000000009200000000001150000000000092000000000009900000000001110000000000000000000000000000012000000000000019200000000000001912500000000000210002013091600000010000000000000BRBBASACNOR3237
012013071282BBASU22     080BBASE FM    ON      NM000R$  000000000013000000000001560000000000130000000000014400000000001500000000000000000000000000000021000000000000032100000000000004629400000000000217602013091600000010000000000000BRBBASACNOR3236
012013071202BBDC3       010BRADESCO    ON  EJ  N1   R$  000000000300500000000030660000000003003000000000303700000000030330000000003033000000000305003541000000000001306100000000003966656900000000000000009999123100000010000000000000BRBBDCACNOR1604
012013071296BBDC3F      020BRADESCO    ON  EJ  N1   R$  000000000300000000000031000000000002990000000000303400000000031000000000003000000000000325000087000000000000002046000000000006208901000000000000009999123100000010000000000000BRBBDCACNOR1604
012013071202BBDC4       010BRADESCO    PN  EJ  N1   R$  000000000271900000000027540000000002704000000000272400000000027300000000002730000000000273118147000000000009069900000000024712946600000000000000009999123100000010000000000000BRBBDCACNPR8604
012013071296BBDC4F      020BRADESCO    PN  EJ  N1   R$  000000000273300000000027600000000002708000000000272500000000027150000000002715000000000277100294000000000000005943000000000016201256000000000000009999123100000010000000000000BRBBDCACNPR8604
012013071262BBDC4T      030BRADESCO    PN  EJ  N1031R$  000000000274200000000027510000000002732000000000274800000000027490000000000000000000000000000008000000000000031400000000000086301428000000000000009999123100000010000000000000BRBBDCACNPR8604
012013071262BBDC4T      030BRADESCO    PN  EJ  N1045R$  000000000275400000000027550000000002754000000000275400000000027550000000000000000000000000000002000000000000005000000000000013774215000000000000009999123100000010000000000000BRBBDCACNPR8604
012013071262BBDC4T      030BRADESCO    PN  EJ  N1122R$  000000000279200000000027930000000002786000000000278600000000027870000000000000000000000000000006000000000000044900000000000125106756000000000000009999123100000010000000000000BRBBDCACNPR8604
012013071278BBDCC6      070BBDC    /EJ PN      N1000R$  000000000009300000000000930000000000093000000000009300000000000930000000000000000000000000000003000000000000001400000000000000130200000000000324702014031700000010000000000000BRBBDCACNPR8598
012013071278BBDCG26     070BBDC    /EJ PN      N1000R$  000000000015400000000001600000000000144000000000015300000000001580000000000000000000000000000009000000000000025600000000000003917800000000000257802013071500000010000000000000BRBBDCACNPR8601
012013071278BBDCG27     070BBDC    /EJ PN      N1000R$  000000000006800000000000760000000000042000000000005400000000000740000000000000000000000000000036000000000000055600000000000003032700000000000267802013071500000010000000000000BRBBDCACNPR8601
012013071278BBDCG28     070BBDC    /EJ PN      N1000R$  000000000000700000000000100000000000004000000000000600000000000060000000000002000000000001000108000000000000331800000000000002167100000000000278002013071500000010000000000000BRBBDCACNPR8602
012013071278BBDCG32     070BBDC    /EJ PN      N1000R$  000000000000100000000000010000000000001000000000000100000000000010000000000000000000000000100001000000000000012000000000000000012000000000000317602013071500000010000000000000BRBBDCACNPR8600
012013071278BBDCG35     070BBDC    /EJ PN      N1000R$  000000000000100000000000010000000000001000000000000100000000000010000000000000000000000000100007000000000000006300000000000000006300000000000347602013071500000010000000000000BRBBDCACNPR8600
012013071278BBDCH25     070BBDC    /EJ PN      N1000R$  000000000029400000000002940000000000294000000000029400000000002940000000000000000000000000000001000000000000003000000000000000882000000000000248002013081900000010000000000000BRBBDCACNPR8602
012013071278BBDCH26     070BBDC    /EJ PN      N1000R$  000000000021500000000002280000000000197000000000020900000000002270000000000000000000000024800166000000000000207400000000000043380700000000000258002013081900000010000000000000BRBBDCACNPR8602
012013071278BBDCH27     070BBDC    /EJ PN      N1000R$  000000000014300000000001460000000000130000000000013800000000001450000000000120000000000013000061000000000000095000000000000013202200000000000268002013081900000010000000000000BRBBDCACNPR8602
012013071278BBDCH28     070BBDC    /EJ PN      N1000R$  000000000008100000000001020000000000078000000000008600000000001010000000000072000000000000000328000000000001202400000000000104010700000000000278002013081900000010000000000000BRBBDCACNPR8602
012013071278BBDCH29     070BBDC    /EJ PN      N1000R$  000000000005100000000000530000000000043000000000004800000000000530000000000037000000000006500303000000000000265800000000000012982800000000000288002013081900000010000000000000BRBBDCACNPR8602
012013071278BBDCH30     070BBDC    /EJ PN      N1000R$  000000000002000000000000250000000000020000000000002100000000000250000000000017000000000003000013000000000000041900000000000000919400000000000298002013081900000010000000000000BRBBDCACNPR8602
012013071278BBDCH31     070BBDC    /EJ PN      N1000R$  000000000001200000000000120000000000012000000000001200000000000120000000000007000000000005100001000000000000010000000000000000120000000000000307602013081900000010000000000000BRBBDCACNPR8600
012013071278BBDCH32     070BBDC    /EJ PN      N1000R$  000000000000500000000000070000000000005000000000000600000000000070000000000002000000000001800002000000000000004800000000000000032800000000000318002013081900000010000000000000BRBBDCACNPR8602
012013071278BBDCH34     070BBDC    /EJ PN      N1000R$  000000000001200000000000140000000000012000000000001200000000000140000000000012000000000002400002000000000000000900000000000000011200000000000305502013081900000010000000000000BRBBDCACNPR8595
012013071278BBDCI26     070BBDC    /EJ PN      N1000R$  000000000022900000000002400000000000220000000000022900000000002370000000000100000000000000000058000000000000107600000000000024699700000000000260002013091600000010000000000000BRBBDCACNPR8604
012013071278BBDCI27     070BBDC    /EJ PN      N1000R$  000000000017600000000001950000000000168000000000017700000000001950000000000000000000000000000037000000000000067900000000000012070200000000000268002013091600000010000000000000BRBBDCACNPR8602
012013071278BBDCI28     070BBDC    /EJ PN      N1000R$  000000000012700000000001280000000000114000000000012100000000001280000000000000000000000000000028000000000000053800000000000006538800000000000278002013091600000010000000000000BRBBDCACNPR8602
012013071278BBDCI29     070BBDC    /EJ PN      N1000R$  000000000008200000000000820000000000073000000000007800000000000820000000000000000000000000000008000000000000016200000000000001271700000000000288002013091600000010000000000000BRBBDCACNPR8602
012013071278BBDCI30     070BBDC    /EJ PN      N1000R$  000000000004700000000000510000000000047000000000004700000000000510000000000011000000000013800003000000000000005200000000000000247800000000000298002013091600000010000000000000BRBBDCACNPR8602
012013071278BBDCI32     070BBDC    /EJ PN      N1000R$  000000000001800000000000180000000000016000000000001700000000000160000000000004000000000000000005000000000000012500000000000000215000000000000318002013091600000010000000000000BRBBDCACNPR8602
012013071278BBDCI33     070BBDC    /EJ PN      N1000R$  000000000005000000000000500000000000050000000000005000000000000500000000000000000000000000000001000000000000002800000000000000140000000000000297402013091600000010000000000000BRBBDCACNPR8598
012013071278BBDCI81     070BBDC    /EJ PN      N1000R$  000000000002900000000000290000000000029000000000002900000000000290000000000000000000000000000001000000000000003000000000000000087000000000000308002013091600000010000000000000BRBBDCACNPR8602
012013071278BBDCJ30     070BBDC    /EJ PN      N1000R$  000000000008000000000000800000000000075000000000007900000000000800000000000075000000000000000006000000000000046100000000000003682000000000000298002013102100000010000000000000BRBBDCACNPR8602
012013071282BBDCS27     080BBDCE   /EJ PN      N1000R$  000000000001300000000000150000000000005000000000000800000000000050000000000000000000000016700012000000000000029300000000000000261900000000000267802013071500000010000000000000BRBBDCACNPR8601
012013071282BBDCS28     080BBDCE   /EJ PN      N1000R$  000000000006000000000000690000000000048000000000005400000000000480000000000040000000000009900013000000000000035400000000000001927500000000000278002013071500000010000000000000BRBBDCACNPR8602
012013071282BBDCS29     080BBDCE   /EJ PN      N1000R$  000000000014700000000001470000000000147000000000014700000000001470000000000000000000000034700001000000000000005000000000000000735000000000000288002013071500000010000000000000BRBBDCACNPR8602
012013071282BBDCS30     080BBDCE   /EJ PN      N1000R$  000000000025100000000002510000000000244000000000024800000000002470000000000000000000000000000004000000000000010100000000000002506200000000000297802013071500000010000000000000BRBBDCACNPR8601
012013071282BBDCS31     080BBDCE   /EJ PN      N1000R$  000000000034500000000003520000000000342000000000034800000000003420000000000000000000000000000005000000000000008900000000000003099400000000000307802013071500000010000000000000BRBBDCACNPR8601
012013071282BBDCT25     080BBDCE   /EJ PN      N1000R$  000000000002600000000000260000000000022000000000002400000000000220000000000060000000000000000112000000000000195000000000000004849200000000000248002013081900000010000000000000BRBBDCACNPR8602
012013071282BBDCT26     080BBDCE   /EJ PN      N1000R$  000000000004700000000000490000000000040000000000004500000000000400000000000000000000000006600160000000000000342000000000000015672200000000000258002013081900000010000000000000BRBBDCACNPR8602
012013071282BBDCT27     080BBDCE   /EJ PN      N1000R$  000000000007800000000000820000000000067000000000007200000000000670000000000000000000000016100043000000000000052400000000000003821400000000000268002013081900000010000000000000BRBBDCACNPR8602
012013071282BBDCT28     080BBDCE   /EJ PN      N1000R$  000000000012600000000001330000000000112000000000012200000000001120000000000000000000000013300526000000000000138900000000000016974600000000000278002013081900000010000000000000BRBBDCACNPR8602
012013071282BBDCT29     080BBDCE   /EJ PN      N1000R$  000000000017900000000001800000000000170000000000017400000000001700000000000000000000000000000045000000000000041000000000000007151000000000000288002013081900000010000000000000BRBBDCACNPR8602
012013071282BBDCT30     080BBDCE   /EJ PN      N1000R$  000000000025300000000002530000000000239000000000024200000000002390000000000000000000000000000031000000000000029600000000000007185200000000000298002013081900000010000000000000BRBBDCACNPR8602
012013071282BBDCU23     080BBDCE   /EJ PN      N1000R$  000000000001800000000000180000000000018000000000001800000000000180000000000000000000000000000002000000000000002400000000000000043200000000000230002013091600000010000000000000BRBBDCACNPR8604
012013071282BBDCU25     080BBDCE   /EJ PN      N1000R$  000000000004600000000000460000000000046000000000004600000000000460000000000000000000000000000003000000000000000400000000000000018400000000000250002013091600000010000000000000BRBBDCACNPR8604
012013071282BBDCU26     080BBDCE   /EJ PN      N1000R$  000000000007700000000000770000000000072000000000007400000000000720000000000000000000000000000002000000000000004100000000000000305700000000000260002013091600000010000000000000BRBBDCACNPR8604
012013071282BBDCU27     080BBDCE   /EJ PN      N1000R$  000000000010300000000001050000000000097000000000010100000000000970000000000000000000000000000005000000000000010100000000000001020500000000000268002013091600000010000000000000BRBBDCACNPR8602
012013071282BBDCU28     080BBDCE   /EJ PN      N1000R$  000000000014300000000001500000000000135000000000014200000000001350000000000000000000000000000497000000000000122600000000000017452800000000000278002013091600000010000000000000BRBBDCACNPR8602
012013071282BBDCU29     080BBDCE   /EJ PN      N1000R$  000000000020400000000002040000000000195000000000020000000000001950000000000000000000000000000011000000000000018200000000000003641400000000000288002013091600000010000000000000BRBBDCACNPR8602
012013071282BBDCU30     080BBDCE   /EJ PN      N1000R$  000000000027300000000002730000000000262000000000026800000000002620000000000000000000000000000007000000000000011000000000000002958000000000000298002013091600000010000000000000BRBBDCACNPR8602
012013071282BBDCU31     080BBDCE   /EJ PN      N1000R$  000000000012400000000001240000000000118000000000012100000000001180000000000000000000000000000003000000000000006000000000000000726000000000000273102013091600000010000000000000BRBBDCACNPR8590
012013071282BBDCU33     080BBDCE   /EJ PN      N1000R$  000000000026900000000002690000000000257000000000026100000000002590000000000000000000000000000010000000000000017400000000000004556800000000000297402013091600000010000000000000BRBBDCACNPR8598
012013071282BBDCV26     080BBDCE   /EJ PN      N1000R$  000000000010600000000001070000000000099000000000010300000000001000000000000000000000000000000007000000000000045000000000000004640500000000000260002013102100000010000000000000BRBBDCACNPR8604
012013071212BBFI11B     010FII BB PROGRCI      MB   R$  000000042499800000004287650000000420000000000042141100000004248950000000421500000000042850300017000000000000000071000000000029920196000000000000009999123100000010000000000000BRBBFICTF006196
012013071212BBPO11      010FII BB PRGIICI           R$  000000001088000000000109200000000010850000000001090100000000108500000000010850000000001089900346000000000000020067000000000218761894000000000000009999123100000010000000000000BRBBPOCTF003108
012013071212BBRC11      010FII BB CORP CI           R$  000000000970100000000099900000000009550000000000964700000000096000000000009600000000000965000034000000000000003878000000000037413559000000000000009999123100000010000000000000BRBBRCCTF004122
012013071202BBRK3       010BR BROKERS  ON      NM   R$  000000000056600000000005750000000000556000000000056500000000005670000000000567000000000056802513000000000000830000000000000468968600000000000000009999123100000010000000000000BRBBRKACNOR4108
012013071296BBRK3F      020BR BROKERS  ON      NM   R$  000000000057700000000005770000000000530000000000057200000000005300000000000522000000000069500002000000000000000100000000000000057230000000000000009999123100000010000000000000BRBBRKACNOR4108
012013071202BBSE3       010BBSEGURIDADEON      NM   R$  000000000177200000000017850000000001762000000000177200000000017720000000001770000000000177309520000000000003439200000000006096231000000000000000009999123100000010000000000000BRBBSEACNOR5100
012013071296BBSE3F      020BBSEGURIDADEON      NM   R$  000000000176500000000017830000000001756000000000176900000000017700000000001762000000000177000204000000000000006208000000000010987141000000000000009999123100000010000000000000BRBBSEACNOR5100
012013071202BBTG11      010BTG PACTUAL UNT          R$  000000000282800000000028280000000002805000000000280900000000028100000000002800000000000281100361000000000000210500000000000591458500000000000000009999123100000010000000000000BRBBTGUNT007104
012013071296BBTG11F     020BTG PACTUAL UNT          R$  000000000283100000000028310000000002815000000000282700000000028150000000002814000000000299800004000000000000000178000000000000503263000000000000009999123100000010000000000000BRBBTGUNT007104
012013071262BBTG11T     030BTG PACTUAL UNT       090R$  000000000287000000000028710000000002870000000000287000000000028710000000000000000000000000000002000000000000000300000000000000861200000000000000009999123100000010000000000000BRBBTGUNT007104
012013071212BBVJ11      010FII C JARDIMCI           R$  000000000803200000000080490000000008000000000000801200000000080070000000008008000000000804500031000000000000000563000000000004511227000000000000009999123100000010000000000000BRBBVJCTF001131
012013071212BCFF11B     010FII BC FFII CI  ER  MB   R$  000000000991500000000099150000000009600000000000975500000000097000000000009668000000000974500146000000000000010728000000000104659692000000000000009999123100000010000000000000BRBCFFCTF000140
012013071202BEEF3       010MINERVA     ON      NM   R$  000000000089200000000009020000000000860000000000087900000000008700000000000868000000000087301548000000000000457900000000000402914500000000000000009999123100000010000000000000BRBEEFACNOR6104
012013071296BEEF3F      020MINERVA     ON      NM   R$  000000000088500000000008850000000000880000000000088200000000008800000000000877000000000089700002000000000000000050000000000000044130000000000000009999123100000010000000000000BRBEEFACNOR6104
012013071202BEES3       010BANESTES    ON  EJS      R$  000000000004700000000000470000000000047000000000004700000000000470000000000047000000000004800002000000000000005000000000000000235000000000000000009999123100000010000000000000BRBEESACNOR9242
012013071202BEMA3       010BEMATECH    ON      NM   R$  000000000067800000000006860000000000668000000000068000000000006860000000000680000000000068800212000000000000057800000000000039335400000000000000009999123100000010000000000000BRBEMAACNOR0113
012013071296BEMA3F      020BEMATECH    ON      NM   R$  000000000067700000000006770000000000660000000000067500000000006600000000000660000000000068000003000000000000000100000000000000067521000000000000009999123100000010000000000000BRBEMAACNOR0113
012013071202BHGR3       010BHG         ON      NM   R$  000000000142200000000014400000000001408000000000143800000000014320000000001405000000000143900146000000000000542000000000000779666500000000000000009999123100000010000000000000BRBHGRACNOR9101
012013071296BHGR3F      020BHG         ON      NM   R$  000000000144900000000014490000000001413000000000143500000000014130000000001403000000000149900002000000000000000016000000000000022968000000000000009999123100000010000000000000BRBHGRACNOR9101
012013071202BICB4       010BICBANCO    PN      N1   R$  000000000039800000000004000000000000395000000000039800000000004000000000000396000000000040000167000000000000060300000000000024057300000000000000009999123100000010000000000000BRBICBACNPR7131
012013071296BICB4F      020BICBANCO    PN      N1   R$  000000000039800000000003980000000000398000000000039800000000003980000000000395000000000042600002000000000000000019000000000000007562000000000000009999123100000010000000000000BRBICBACNPR7131
012013071296BIOM4F      020BIOMM       PN           R$  000000000078000000000007800000000000780000000000078000000000007800000000000765000000000090000003000000000000000361000000000000281580000000000000009999123100000010000000000000BRBIOMACNPR9101
012013071202BISA3       010BROOKFIELD  ON      NM   R$  000000000015000000000001550000000000149000000000015200000000001520000000000152000000000015303803000000000005262900000000000802119400000000000000009999123100000010000000000000BRBISAACNOR8109
012013071296BISA3F      020BROOKFIELD  ON      NM   R$  000000000015100000000001590000000000150000000000015300000000001500000000000150000000000015800015000000000000000279000000000000042826000000000000009999123100000010000000000000BRBISAACNOR8109
012013071262BISA3T      030BROOKFIELD  ON      NM017R$  000000000015200000000001530000000000152000000000015200000000001530000000000000000000000000000002000000000000200000000000000030541739000000000000009999123100000010000000000000BRBISAACNOR8109
012013071262BISA3T      030BROOKFIELD  ON      NM060R$  000000000015400000000001560000000000154000000000015500000000001560000000000000000000000000000004000000000000033000000000000005120267000000000000009999123100000010000000000000BRBISAACNOR8109
012013071262BISA3T      030BROOKFIELD  ON      NM090R$  000000000015200000000001550000000000152000000000015400000000001550000000000000000000000000000006000000000000934500000000000144277153000000000000009999123100000010000000000000BRBISAACNOR8109
012013071202BMEB4       010MERC BRASIL PN           R$  000000000112500000000011370000000001125000000000113600000000011360000000001120000000000113600009000000000000011200000000000012726200000000000000009999123100000010000000000000BRBMEBACNPR5190
012013071202BMIN4       010MERC INVEST PN           R$  000000000002300000000000230000000000023000000000002300000000000230000000000021000000000002300001000000000000001000000000000000023000000000000000009999123100000010000000000000BRBMINACNPR1159
012013071296BMIN4F      020MERC INVEST PN           R$  000000000002300000000000230000000000023000000000002300000000000230000000000022000000000002300001000000000000000365000000000000008395000000000000009999123100000010000000000000BRBMINACNPR1159
012013071212BMLC11B     010FII BMBRC LCCI  ER  MB   R$  000000001180000000000118000000000011700000000001179800000000117000000000011600000000001178000017000000000000005987000000000070638560000000000000009999123100000010000000000000BRBMLCCTF004117
012013071202BMTO4       010BRASMOTOR   PN           R$  000000000008500000000000880000000000085000000000008600000000000880000000000084000000000008800006000000000000007000000000000000605000000000000000009999123100000010000000000000BRBMTOACNPR6065
012013071214BOVA11      010ISHARES BOVACI           R$  000000000455000000000045670000000004470000000000450400000000044700000000004461000000000447003114000000000002223180000000010013837260000000000000009999123100000010000000000000BRBOVACTF003101
012013071296BOVA11F     020ISHARES BOVACI           R$  000000000450900000000046230000000004305000000000450800000000044820000000004482000000000462200016000000000000000041000000000000184859000000000000009999123100000010000000000000BRBOVACTF003101
012013071262BOVA11T     030ISHARES BOVACI        031R$  000000000451600000000045170000000004516000000000451600000000045170000000000000000000000000000004000000000000012000000000000054200679000000000000009999123100000010000000000000BRBOVACTF003101
012013071262BOVA11T     030ISHARES BOVACI        038R$  000000000458700000000045880000000004507000000000457100000000045080000000000000000000000000000006000000000000050600000000000231326108000000000000009999123100000010000000000000BRBOVACTF003101
012013071282BOVAS53     080BOVAE       CI        000R$  000000000081000000000008100000000000810000000000081000000000008100000000000000000000000000000001000000000000005000000000000004050000000000000530002013071500000010000000000000BRBOVACTF003101
012013071282BOVAT53     080BOVAE       CI        000R$  000000000075500000000007550000000000755000000000075500000000007550000000000000000000000000000001000000000000005000000000000003775000000000000530002013081900000010000000000000BRBOVACTF003101
012013071212BPFF11      010FII ABSOLUTOCI           R$  000000000869900000000086990000000008550000000000863000000000086600000000008585000000000866000026000000000000001263000000000010900172000000000000009999123100000010000000000000BRBPFFCTF002103
012013071202BPHA3       010BR PHARMA   ON      NM   R$  000000000103800000000010600000000001016000000000103500000000010340000000001026000000000103401447000000000000553600000000000573450100000000000000009999123100000010000000000000BRBPHAACNOR6102
012013071296BPHA3F      020BR PHARMA   ON      NM   R$  000000000103500000000010780000000001001000000000102400000000010330000000001001000000000103900009000000000000000288000000000000295163000000000000009999123100000010000000000000BRBPHAACNOR6102
012013071202BPNM4       010PANAMERICANOPN      N1   R$  000000000051400000000005180000000000511000000000051400000000005180000000000516000000000051800054000000000000078100000000000040194200000000000000009999123100000010000000000000BRBPNMACNPR6111
012013071296BPNM4F      020PANAMERICANOPN      N1   R$  000000000052000000000005200000000000511000000000051100000000005110000000000507000000000051900002000000000000000053000000000000027092000000000000009999123100000010000000000000BRBPNMACNPR6111
012013071202BRAP3       010BRADESPAR   ON      N1   R$  000000000174500000000017800000000001724000000000175200000000017800000000001741000000000178000039000000000000036700000000000064332400000000000000009999123100000010000000000000BRBRAPACNOR5124
012013071296BRAP3F      020BRADESPAR   ON      N1   R$  000000000179800000000017980000000001750000000000178000000000017500000000001713000000000178500002000000000000000032000000000000056960000000000000009999123100000010000000000000BRBRAPACNOR5124
012013071262BRAP3T      030BRADESPAR   ON      N1031R$  000000000176900000000017700000000001769000000000176900000000017700000000000000000000000000000002000000000000013200000000000023355961000000000000009999123100000010000000000000BRBRAPACNOR5124
012013071262BRAP3T      030BRADESPAR   ON      N1090R$  000000000177200000000017730000000001772000000000177200000000017730000000000000000000000000000002000000000000000800000000000001417633000000000000009999123100000010000000000000BRBRAPACNOR5124
012013071202BRAP4       010BRADESPAR   PN      N1   R$  000000000209400000000021220000000002076000000000209500000000020930000000002082000000000209303921000000000001149400000000002408665200000000000000009999123100000010000000000000BRBRAPACNPR2124
012013071296BRAP4F      020BRADESPAR   PN      N1   R$  000000000214700000000021470000000002071000000000209900000000020710000000002071000000000212900040000000000000001096000000000002300277000000000000009999123100000010000000000000BRBRAPACNPR2124
012013071214BRAX11      010ISHARES BRAXCI           R$  000000000380800000000038230000000003808000000000381500000000038100000000000000000000000000001317000000000000013190000000000050331980000000000000009999123100000010000000000000BRBRAXCTF002100
012013071212BRCR11      010FII BC FUND CI  ER       R$  000000001369700000000137000000000013553000000001361900000000136050000000013605000000001367000720000000000000021792000000000296795156000000000000009999123100000010000000000000BRBRCRCTF000131
012013071202BRFS3       010BRF SA      ON      NM   R$  000000000482200000000048980000000004757000000000481200000000048040000000004797000000000480404617000000000001699100000000008176920700000000000000009999123100000010000000000000BRBRFSACNOR8110
012013071296BRFS3F      020BRF SA      ON      NM   R$  000000000482000000000049000000000004747000000000480400000000047860000000004791000000000481000082000000000000002580000000000012394481000000000000009999123100000010000000000000BRBRFSACNOR8110
012013071262BRFS3T      030BRF SA      ON      NM090R$  000000000494000000000049410000000004920000000000493300000000049240000000000000000000000000000014000000000000400000000000001973204367000000000000009999123100000010000000000000BRBRFSACNOR8110
012013071262BRFS3T      030BRF SA      ON      NM122R$  000000000492200000000049220000000004922000000000492200000000049220000000000000000000000000000001000000000000000002000000000000009844000000000000009999123100000010000000000000BRBRFSACNOR8110
012013071278BRFSH49     070BRFS        ON      NM000R$  000000000017000000000001750000000000170000000000017200000000001750000000000100000000000000000003000000000000001900000000000000327500000000000490002013081900000010000000000000BRBRFSACNOR8110
012013071278BRFSH50     070BRFS        ON      NM000R$  000000000013000000000001300000000000130000000000013000000000001300000000000070000000000000000001000000000000001000000000000000130000000000000500002013081900000010000000000000BRBRFSACNOR8110
012013071282BRFST78     080BRFSE       ON      NM000R$  000000000008100000000000810000000000080000000000008000000000000800000000000000000000000000000003000000000000002400000000000000192100000000000480002013081900000010000000000000BRBRFSACNOR8110
012013071202BRIN3       010BR INSURANCEON      NM   R$  000000000213700000000021370000000002107000000000211500000000021150000000002113000000000212201130000000000000453900000000000960444500000000000000009999123100000010000000000000BRBRINACNOR3105
012013071296BRIN3F      020BR INSURANCEON      NM   R$  000000000214000000000022900000000002110000000000214400000000021160000000002116000000000229000007000000000000000139000000000000298100000000000000009999123100000010000000000000BRBRINACNOR3105
012013071202BRIV4       010ALFA INVEST PN           R$  000000000057000000000006040000000000570000000000058900000000006040000000000566000000000060400004000000000000000500000000000000294800000000000000009999123100000010000000000000BRBRIVACNPR3196
012013071202BRKM3       010BRASKEM     ON      N1   R$  000000000119600000000011960000000001132000000000114800000000011400000000001140000000000114200061000000000000018400000000000021130900000000000000009999123100000010000000000000BRBRKMACNOR1110
012013071296BRKM3F      020BRASKEM     ON      N1   R$  000000000118100000000011810000000001181000000000118100000000011810000000001131000000000115000001000000000000000016000000000000018896000000000000009999123100000010000000000000BRBRKMACNOR1110
012013071202BRKM5       010BRASKEM     PNA     N1   R$  000000000162300000000016370000000001591000000000160600000000015940000000001593000000000159405556000000000000954000000000001532150200000000000000009999123100000010000000000000BRBRKMACNPA4110
012013071296BRKM5F      020BRASKEM     PNA     N1   R$  000000000162200000000016450000000001588000000000160500000000015890000000001589000000000159900032000000000000001170000000000001878332000000000000009999123100000010000000000000BRBRKMACNPA4110
012013071262BRKM5T      030BRASKEM     PNA     N1017R$  000000000160200000000016030000000001602000000000160200000000016030000000000000000000000000000002000000000000002500000000000004005162000000000000009999123100000010000000000000BRBRKMACNPA4110
012013071202BRML3       010BR MALLS PARON      NM   R$  000000000192100000000019360000000001900000000000192300000000019190000000001919000000000192009960000000000002912500000000005600832800000000000000009999123100000010000000000000BRBRMLACNOR9105
012013071296BRML3F      020BR MALLS PARON      NM   R$  000000000192500000000019360000000001897000000000192100000000019110000000001901000000000196900189000000000000005176000000000009945070000000000000009999123100000010000000000000BRBRMLACNOR9105
012013071202BRPR3       010BR PROPERT  ON      NM   R$  000000000190500000000019460000000001894000000000192200000000019100000000001910000000000191205356000000000001625300000000003124632800000000000000009999123100000010000000000000BRBRPRACNOR9112
012013071296BRPR3F      020BR PROPERT  ON      NM   R$  000000000191000000000019990000000001872000000000191900000000018870000000001887000000000199500190000000000000004806000000000009225388000000000000009999123100000010000000000000BRBRPRACNOR9112
012013071262BRPR3T      030BR PROPERT  ON      NM122R$  000000000197000000000019700000000001970000000000197000000000019700000000000000000000000000000001000000000000000002000000000000003940000000000000009999123100000010000000000000BRBRPRACNOR9112
012013071202BRSR6       010BANRISUL    PNB     N1   R$  000000000138900000000014110000000001363000000000137900000000013730000000001369000000000137302094000000000000891200000000001229635800000000000000009999123100000010000000000000BRBRSRACNPB4133
012013071296BRSR6F      020BANRISUL    PNB     N1   R$  000000000138200000000014100000000001366000000000138800000000013670000000001320000000000140000021000000000000000565000000000000784446000000000000009999123100000010000000000000BRBRSRACNPB4133
012013071262BRSR6T      030BANRISUL    PNB     N1041R$  000000000138500000000013860000000001385000000000138500000000013860000000000000000000000000000002000000000000000800000000000001108686000000000000009999123100000010000000000000BRBRSRACNPB4133
012013071202BSEV3       010BIOSEV      ON      NM   R$  000000000124000000000012490000000001240000000000124700000000012490000000001249000000000126000009000000000000006100000000000007611900000000000000009999123100000010000000000000BRBSEVACNOR3100
012013071202BTOW3       010B2W DIGITAL ON      NM   R$  000000000091500000000009150000000000872000000000088800000000008900000000000890000000000089401446000000000000452500000000000401975200000000000000009999123100000010000000000000BRBTOWACNOR8105
012013071296BTOW3F      020B2W DIGITAL ON      NM   R$  000000000091500000000009200000000000850000000000088700000000009200000000000890000000000092000031000000000000000965000000000000856320000000000000009999123100000010000000000000BRBTOWACNOR8105
012013071262BTOW3T      030B2W DIGITAL ON      NM122R$  000000000094800000000009490000000000948000000000094800000000009490000000000000000000000000000002000000000000000060000000000000056911000000000000009999123100000010000000000000BRBTOWACNOR8105
012013071202BTTL3       010BATTISTELLA ON           R$  000000000007700000000000770000000000077000000000007700000000000770000000000075000000000007700001000000000000000200000000000000015400000000000000009999123100000010000000000000BRBTTLACNOR0105
012013071202BTTL4       010BATTISTELLA PN           R$  000000000009400000000000970000000000093000000000009400000000000970000000000096000000000009700011000000000000031500000000000002968300000000000000009999123100000010000000000000BRBTTLACNPR7105
012013071202BVMF3       010BMFBOVESPA  ON      NM   R$  000000000128500000000012950000000001260000000000127200000000012650000000001265000000000126611101000000000004944000000000006293152300000000000000009999123100000010000000000000BRBVMFACNOR3125
012013071296BVMF3F      020BMFBOVESPA  ON      NM   R$  000000000129000000000012930000000001258000000000127500000000012610000000001262000000000126500050000000000000001563000000000001993894000000000000009999123100000010000000000000BRBVMFACNOR3125
012013071262BVMF3T      030BMFBOVESPA  ON      NM017R$  000000000126800000000012690000000001268000000000126800000000012690000000000000000000000000000002000000000000060000000000000076135776000000000000009999123100000010000000000000BRBVMFACNOR3125
012013071262BVMF3T      030BMFBOVESPA  ON      NM122R$  000000000130600000000013130000000001306000000000131100000000013130000000000000000000000000000004000000000000000017000000000000022300000000000000009999123100000010000000000000BRBVMFACNOR3125
012013071278BVMFG10     070BVMF        ON      NM000R$  000000000029900000000002990000000000299000000000029900000000002990000000000000000000000000000002000000000000007000000000000002093000000000000098902013071500000010000000000000BRBVMFACNOR3124
012013071278BVMFG11     070BVMF        ON      NM000R$  000000000018600000000001860000000000170000000000017600000000001700000000000115000000000000000003000000000000005100000000000000899000000000000110002013071500000010000000000000BRBVMFACNOR3125
012013071278BVMFG12     070BVMF        ON      NM000R$  000000000010300000000001030000000000076000000000008700000000000760000000000071000000000007500058000000000000034300000000000003009200000000000118902013071500000010000000000000BRBVMFACNOR3124
012013071278BVMFG13     070BVMF        ON      NM000R$  000000000002900000000000330000000000010000000000001900000000000150000000000012000000000003700127000000000000378500000000000007309100000000000126902013071500000010000000000000BRBVMFACNOR3123
012013071278BVMFG41     070BVMF        ON      NM000R$  000000000013100000000001310000000000131000000000013100000000001310000000000000000000000000000003000000000000003000000000000000393000000000000115002013071500000010000000000000BRBVMFACNOR3125
012013071278BVMFG42     070BVMF        ON      NM000R$  000000000005300000000000530000000000044000000000004700000000000440000000000000000000000000000002000000000000003000000000000000141000000000000121902013071500000010000000000000BRBVMFACNOR3123
012013071278BVMFG43     070BVMF        ON      NM000R$  000000000000100000000000020000000000001000000000000100000000000020000000000000000000000000200002000000000000004100000000000000004200000000000133902013071500000010000000000000BRBVMFACNOR3124
012013071278BVMFG45     070BVMF        ON      NM000R$  000000000000100000000000010000000000001000000000000100000000000010000000000000000000000000000006000000000000004500000000000000004500000000000153902013071500000010000000000000BRBVMFACNOR3124
012013071278BVMFH1      070BVMFE       ON      NM000R$  000000000003400000000000360000000000029000000000003400000000000290000000000003000000000000000026000000000000053000000000000001828000000000000132502013081900000010000000000000BRBVMFACNOR3125
012013071278BVMFH11     070BVMF        ON      NM000R$  000000000019900000000001990000000000178000000000018600000000001780000000000171000000000000000048000000000000014900000000000002778500000000000110002013081900000010000000000000BRBVMFACNOR3125
012013071278BVMFH12     070BVMF  FM    ON      NM000R$  000000000011700000000001200000000000098000000000011300000000001010000000000100000000000010400072000000000000165400000000000018746800000000000120002013081900000010000000000000BRBVMFACNOR3125
012013071278BVMFH13     070BVMF  FM    ON      NM000R$  000000000005700000000000570000000000040000000000004600000000000410000000000041000000000004300093000000000000144200000000000006688400000000000128902013081900000010000000000000BRBVMFACNOR3124
012013071278BVMFH14     070BVMF  FM    ON      NM000R$  000000000001300000000000130000000000009000000000001100000000000090000000000009000000000001300151000000000000220200000000000002467800000000000138902013081900000010000000000000BRBVMFACNOR3124
012013071278BVMFH15     070BVMF        ON      NM000R$  000000000000300000000000030000000000002000000000000200000000000020000000000002000000000000400050000000000000030400000000000000090800000000000150002013081900000010000000000000BRBVMFACNOR3125
012013071278BVMFH40     070BVMF        ON      NM000R$  000000000022400000000002240000000000224000000000022400000000002240000000000000000000000000000001000000000000003000000000000000672000000000000105002013081900000010000000000000BRBVMFACNOR3125
012013071278BVMFH41     070BVMF        ON      NM000R$  000000000015100000000001510000000000151000000000015100000000001510000000000000000000000000000003000000000000003000000000000000453000000000000115002013081900000010000000000000BRBVMFACNOR3125
012013071278BVMFH42     070BVMF  FM    ON      NM000R$  000000000006800000000000680000000000068000000000006800000000000680000000000000000000000000000001000000000000000600000000000000040800000000000125002013081900000010000000000000BRBVMFACNOR3125
012013071278BVMFH43     070BVMF  FM    ON      NM000R$  000000000002000000000000230000000000017000000000001900000000000180000000000014000000000002000086000000000000113400000000000002224500000000000135002013081900000010000000000000BRBVMFACNOR3125
012013071278BVMFH44     070BVMF        ON      NM000R$  000000000000700000000000070000000000007000000000000700000000000070000000000000000000000143900001000000000000010000000000000000070000000000000143902013081900000010000000000000BRBVMFACNOR3124
012013071278BVMFI10     070BVMF        ON      NM000R$  000000000030100000000003010000000000301000000000030100000000003010000000000000000000000000000002000000000000007000000000000002107000000000000100002013091600000010000000000000BRBVMFACNOR3125
012013071278BVMFI11     070BVMF        ON      NM000R$  000000000020400000000002040000000000204000000000020400000000002040000000000000000000000000000001000000000000001000000000000000204000000000000110002013091600000010000000000000BRBVMFACNOR3125
012013071278BVMFI12     070BVMF  FM    ON      NM000R$  000000000012500000000001300000000000114000000000012300000000001140000000000000000000000000000018000000000000039700000000000004895300000000000120002013091600000010000000000000BRBVMFACNOR3125
012013071278BVMFI13     070BVMF  FM    ON      NM000R$  000000000006100000000000610000000000056000000000005800000000000600000000000053000000000000000026000000000000055500000000000003255500000000000130002013091600000010000000000000BRBVMFACNOR3125
012013071278BVMFI14     070BVMF  FM    ON      NM000R$  000000000002500000000000250000000000021000000000002300000000000210000000000019000000000002500017000000000000028900000000000000690900000000000140002013091600000010000000000000BRBVMFACNOR3125
012013071278BVMFI41     070BVMF        ON      NM000R$  000000000016300000000001630000000000163000000000016300000000001630000000000000000000000000000001000000000000002000000000000000326000000000000115002013091600000010000000000000BRBVMFACNOR3125
012013071278BVMFI42     070BVMF  FM    ON      NM000R$  000000000009300000000000930000000000084000000000008900000000000840000000000000000000000000000003000000000000010500000000000000934500000000000125002013091600000010000000000000BRBVMFACNOR3125
012013071278BVMFI43     070BVMF  FM    ON      NM000R$  000000000004100000000000430000000000035000000000004000000000000350000000000000000000000000000022000000000000037700000000000001541900000000000135002013091600000010000000000000BRBVMFACNOR3125
012013071278BVMFJ15     070BVMF        ON      NM000R$  000000000002100000000000210000000000021000000000002100000000000210000000000013000000000002000001000000000000002400000000000000050400000000000150002013102100000010000000000000BRBVMFACNOR3125
012013071278BVMFK15     070BVMF        ON      NM000R$  000000000002200000000000220000000000022000000000002200000000000220000000000007000000000002500001000000000000000600000000000000013200000000000150002013111800000010000000000000BRBVMFACNOR3125
012013071282BVMFS12     080BVMFE       ON      NM000R$  000000000000100000000000010000000000001000000000000100000000000010000000000000000000000000100010000000000000019900000000000000019900000000000118902013071500000010000000000000BRBVMFACNOR3124
012013071282BVMFS13     080BVMFE       ON      NM000R$  000000000001100000000000180000000000007000000000001300000000000160000000000012000000000002000029000000000000109800000000000001460200000000000126902013071500000010000000000000BRBVMFACNOR3123
012013071282BVMFS42     080BVMFE       ON      NM000R$  000000000000300000000000040000000000001000000000000100000000000010000000000000000000000000000008000000000000037000000000000000057500000000000121902013071500000010000000000000BRBVMFACNOR3123
012013071282BVMFS43     080BVMFE       ON      NM000R$  000000000006200000000000710000000000058000000000006400000000000710000000000000000000000000000012000000000000035100000000000002263500000000000133902013071500000010000000000000BRBVMFACNOR3124
012013071282BVMFS50     080BVMFE       ON      NM000R$  000000000003400000000000340000000000034000000000003400000000000340000000000000000000000000000001000000000000000300000000000000010200000000000130002013071500000010000000000000BRBVMFACNOR3125
012013071282BVMFT10     080BVMFE       ON      NM000R$  000000000000400000000000040000000000004000000000000400000000000040000000000000000000000000500001000000000000005000000000000000020000000000000100002013081900000010000000000000BRBVMFACNOR3125
012013071282BVMFT11     080BVMFE       ON      NM000R$  000000000001000000000000100000000000010000000000001000000000000100000000000000000000000003600001000000000000000300000000000000003000000000000110002013081900000010000000000000BRBVMFACNOR3125
012013071282BVMFT12     080BVMFE FM    ON      NM000R$  000000000002000000000000270000000000020000000000002400000000000270000000000016000000000004900029000000000000041300000000000001010300000000000120002013081900000010000000000000BRBVMFACNOR3125
012013071282BVMFT13     080BVMFE FM    ON      NM000R$  000000000004500000000000580000000000045000000000005200000000000580000000000030000000000006000004000000000000007000000000000000365000000000000128902013081900000010000000000000BRBVMFACNOR3124
012013071282BVMFT14     080BVMFE       ON      NM000R$  000000000010400000000001040000000000104000000000010400000000001040000000000000000000000000000001000000000000000500000000000000052000000000000138902013081900000010000000000000BRBVMFACNOR3124
012013071282BVMFT42     080BVMFE FM    ON      NM000R$  000000000003300000000000410000000000032000000000003200000000000410000000000039000000000000000004000000000000007800000000000000255900000000000125002013081900000010000000000000BRBVMFACNOR3125
012013071282BVMFT43     080BVMFE FM    ON      NM000R$  000000000007400000000000960000000000074000000000008800000000000960000000000000000000000000000003000000000000005400000000000000478800000000000135002013081900000010000000000000BRBVMFACNOR3125
012013071282BVMFT61     080BVMFE       ON      NM000R$  000000000001600000000000160000000000016000000000001600000000000160000000000000000000000000000001000000000000000200000000000000003200000000000117502013081900000010000000000000BRBVMFACNOR3125
012013071282BVMFT62     080BVMFE       ON      NM000R$  000000000003000000000000300000000000030000000000003000000000000300000000000000000000000000000001000000000000000200000000000000006000000000000122502013081900000010000000000000BRBVMFACNOR3125
012013071282BVMFT9      080BVMFE       ON      NM000R$  000000000000300000000000030000000000003000000000000300000000000030000000000000000000000000000001000000000000000200000000000000000600000000000090002013081900000010000000000000BRBVMFACNOR3125
012013071282BVMFU12     080BVMFE FM    ON      NM000R$  000000000002900000000000350000000000029000000000003200000000000350000000000035000000000004700005000000000000000700000000000000023000000000000120002013091600000010000000000000BRBVMFACNOR3125
012013071282BVMFU13     080BVMFE FM    ON      NM000R$  000000000006600000000000750000000000066000000000006900000000000750000000000058000000000007600028000000000000013400000000000000931900000000000130002013091600000010000000000000BRBVMFACNOR3125
012013071282BVMFU40     080BVMFE       ON      NM000R$  000000000000900000000000090000000000009000000000000900000000000090000000000000000000000000000001000000000000001800000000000000016200000000000105002013091600000010000000000000BRBVMFACNOR3125
012013071282BVMFU41     080BVMFE       ON      NM000R$  000000000002300000000000230000000000023000000000002300000000000230000000000000000000000000000001000000000000001800000000000000041400000000000115002013091600000010000000000000BRBVMFACNOR3125
012013071282BVMFU42     080BVMFE FM    ON      NM000R$  000000000005000000000000500000000000050000000000005000000000000500000000000000000000000000000001000000000000000100000000000000005000000000000125002013091600000010000000000000BRBVMFACNOR3125
012013071282BVMFU43     080BVMFE FM    ON      NM000R$  000000000009000000000000900000000000089000000000008900000000000890000000000000000000000000000002000000000000007000000000000000626500000000000135002013091600000010000000000000BRBVMFACNOR3125
012013071202CARD3       010CSU CARDSYSTON      NM   R$  000000000030000000000003000000000000284000000000028600000000002850000000000284000000000028500041000000000000095300000000000027285200000000000000009999123100000010000000000000BRCARDACNOR9105
012013071296CARD3F      020CSU CARDSYSTON      NM   R$  000000000027700000000002770000000000277000000000027700000000002770000000000276000000000029700002000000000000000052000000000000014404000000000000009999123100000010000000000000BRCARDACNOR9105
012013071262CARD3T      030CSU CARDSYSTON      NM122R$  000000000029200000000002930000000000292000000000029200000000002930000000000000000000000000000002000000000000025000000000000007312387000000000000009999123100000010000000000000BRCARDACNOR9105
012013071202CBMA3       010COBRASMA    ON           R$  000000000000500000000000050000000000005000000000000500000000000050000000000004000000000000600001000000000000010000000000000000050000000000000000009999123100000010000000000000BRCBMAACNOR4124
012013071296CBMA3F      020COBRASMA    ON           R$  000000000000500000000000050000000000005000000000000500000000000050000000000004000000000000500001000000000000000001000000000000000005000000000000009999123100000010000000000000BRCBMAACNOR4124
012013071208CCHI3       010CHIARELLI   ON           R$  000000000002700000000000320000000000026000000000002800000000000300000000000030000000000003100079000000000001260000000000000036360000000000000000009999123100000010000000000000BRCCHIACNOR5123
012013071296CCHI3F      020CHIARELLI   ON           R$  000000000002600000000000310000000000026000000000002800000000000310000000000028000000000003100018000000000000025688000000000000744572000000000000009999123100000010000000000000BRCCHIACNOR5123
012013071208CCHI4       010CHIARELLI   PN           R$  000000000002100000000000240000000000021000000000002300000000000240000000000019000000000002400004000000000000050000000000000001170000000000000000009999123100000010000000000000BRCCHIACNPR2122
012013071296CCHI4F      020CHIARELLI   PN           R$  000000000002000000000000210000000000020000000000002000000000000210000000000017000000000002300006000000000000006690000000000000134790000000000000009999123100000010000000000000BRCCHIACNPR2122
012013071202CCPR3       010CYRE COM-CCPON      NM   R$  000000000203500000000021010000000002026000000000208200000000020260000000002025000000000210000021000000000000004100000000000008536700000000000000009999123100000010000000000000BRCCPRACNOR9107
012013071202CCRO3       010CCR SA      ON      NM   R$  000000000171500000000017400000000001650000000000168200000000016600000000001655000000000166012061000000000005401900000000009088751200000000000000009999123100000010000000000000BRCCROACNOR2122
012013071296CCRO3F      020CCR SA      ON      NM   R$  000000000172100000000017320000000001631000000000167800000000016310000000001631000000000168000074000000000000001743000000000002924957000000000000009999123100000010000000000000BRCCROACNOR2122
012013071262CCRO3T      030CCR SA      ON      NM060R$  000000000171000000000017110000000001710000000000171000000000017110000000000000000000000000000002000000000000000500000000000000855478000000000000009999123100000010000000000000BRCCROACNOR2122
012013071202CCXC3       010CCX CARVAO  ON      NM   R$  000000000007800000000000800000000000071000000000007600000000000740000000000074000000000007500376000000000001699500000000000129459500000000000000009999123100000010000000000000BRCCXCACNOR5100
012013071296CCXC3F      020CCX CARVAO  ON      NM   R$  000000000007700000000000780000000000075000000000007600000000000780000000000073000000000007700013000000000000000493000000000000037760000000000000009999123100000010000000000000BRCCXCACNOR5100
012013071208CELP3       010CELPA       ON           R$  000000000006000000000000600000000000060000000000006000000000000600000000000054000000000006200001000000000000002700000000000000162000000000000000009999123100000010000000000000BRCELPACNOR8112
012013071212CEOC11B     010FII CEO CCP CI  ER  MB   R$  000000000888000000000088800000000008800000000000886600000000088750000000008815000000000887500024000000000000001057000000000009372318000000000000009999123100000010000000000000BRCEOCCTF003108
012013071202CESP3       010CESP        ON      N1   R$  000000000163200000000016320000000001629000000000163000000000016290000000001552000000000163000003000000000000000500000000000000815100000000000000009999123100000010000000000000BRCESPACNOR3159
012013071202CESP6       010CESP        PNB     N1   R$  000000000194000000000019720000000001915000000000194600000000019540000000001952000000000195401702000000000000428400000000000833831400000000000000009999123100000010000000000000BRCESPACNPB4118
012013071296CESP6F      020CESP        PNB     N1   R$  000000000195000000000019760000000001896000000000193500000000019700000000001900000000000197000026000000000000000690000000000001335475000000000000009999123100000010000000000000BRCESPACNPB4118
012013071202CGAS5       010COMGAS      PNA          R$  000000000500000000000050600000000004883000000000497900000000050500000000004990000000000505000091000000000000125300000000000623933000000000000000009999123100000010000000000000BRCGASACNPA3129
012013071296CGAS5F      020COMGAS      PNA          R$  000000000500000000000050000000000004915000000000492100000000049150000000004880000000000500000002000000000000000042000000000000206685000000000000009999123100000010000000000000BRCGASACNPA3129
012013071262CGAS5T      030COMGAS      PNA       122R$  000000000515500000000051550000000005155000000000515500000000051550000000000000000000000000000001000000000000000003000000000000015465000000000000009999123100000010000000000000BRCGASACNPA3129
012013071202CGRA3       010GRAZZIOTIN  ON           R$  000000000150100000000015010000000001494000000000150000000000014940000000001494000000000150000011000000000000002500000000000003750100000000000000009999123100000010000000000000BRCGRAACNOR2061
012013071202CGRA4       010GRAZZIOTIN  PN           R$  000000000156600000000015900000000001550000000000156500000000015650000000001565000000000160000052000000000000016100000000000025206200000000000000009999123100000010000000000000BRCGRAACNPR9061
012013071202CIEL3       010CIELO       ON      NM   R$  000000000561500000000056700000000005551000000000559300000000055760000000005569000000000557604279000000000001106100000000006187040700000000000000009999123100000010000000000000BRCIELACNOR3111
012013071296CIEL3F      020CIELO       ON      NM   R$  000000000560000000000056610000000005549000000000560300000000055540000000005530000000000556900075000000000000001744000000000009771288000000000000009999123100000010000000000000BRCIELACNOR3111
012013071278CIELH57     070CIEL        ON      NM000R$  000000000010000000000001000000000000100000000000010000000000001000000000000000000000000000000003000000000000000300000000000000030000000000000570002013081900000010000000000000BRCIELACNOR3111
012013071202CLSC4       010CELESC      PN      N2   R$  000000000185000000000018580000000001801000000000183500000000018300000000001805000000000184400037000000000000008000000000000014682200000000000000009999123100000010000000000000BRCLSCACNPR3107
012013071202CMIG3       010CEMIG       ON      N1   R$  000000000203600000000020900000000002010000000000203800000000020340000000002033000000000203400501000000000000094600000000000192833600000000000000009999123100000010000000000000BRCMIGACNOR6208
012013071296CMIG3F      020CEMIG       ON      N1   R$  000000000209300000000021150000000002000000000000203400000000020220000000002022000000000205000032000000000000000688000000000001399683000000000000009999123100000010000000000000BRCMIGACNOR6208
012013071202CMIG4       010CEMIG       PN      N1   R$  000000000206400000000020930000000002000000000000202500000000020040000000002004000000000200607038000000000002465500000000004993403900000000000000009999123100000010000000000000BRCMIGACNPR3208
012013071296CMIG4F      020CEMIG       PN      N1   R$  000000000206900000000020850000000002000000000000203600000000020130000000002016000000000203100124000000000000003294000000000006701517000000000000009999123100000010000000000000BRCMIGACNPR3208
012013071262CMIG4T      030CEMIG       PN      N1031R$  000000000204300000000020440000000002020000000000202100000000020210000000000000000000000000000004000000000000021600000000000043673533000000000000009999123100000010000000000000BRCMIGACNPR3208
012013071262CMIG4T      030CEMIG       PN      N1090R$  000000000204300000000020440000000002043000000000204300000000020440000000000000000000000000000002000000000000003000000000000006131976000000000000009999123100000010000000000000BRCMIGACNPR3208
012013071212CNES11B     010FII CENESP  CI      MB   R$  000000001225200000000122520000000012000000000001207200000000120900000000012090000000001216900018000000000000000553000000000006676192000000000000009999123100000010000000000000BRCNESCTF001123
012013071202COCE3       010COELCE      ON           R$  000000000393400000000039800000000003934000000000397800000000039800000000003701000000000409900004000000000000002800000000000011139400000000000000009999123100000010000000000000BRCOCEACNOR0132
012013071202COCE5       010COELCE      PNA          R$  000000000377600000000038790000000003730000000000378500000000037300000000003730000000000373500115000000000000028600000000000108258500000000000000009999123100000010000000000000BRCOCEACNPA3133
012013071296COCE5F      020COELCE      PNA          R$  000000000378000000000038460000000003760000000000378400000000037610000000003727000000000384700011000000000000000195000000000000737922000000000000009999123100000010000000000000BRCOCEACNPA3133
012013071262COCE5T      030COELCE      PNA       122R$  000000000396500000000039660000000003965000000000396500000000039660000000000000000000000000000002000000000000000011000000000000043617000000000000009999123100000010000000000000BRCOCEACNPA3133
012013071202CPFE3       010CPFL ENERGIAON      NM   R$  000000000208200000000021060000000002044000000000205900000000020500000000002049000000000206004467000000000001000800000000002061492100000000000000009999123100000010000000000000BRCPFEACNOR0121
012013071296CPFE3F      020CPFL ENERGIAON      NM   R$  000000000209500000000021790000000001945000000000206300000000020500000000001934000000000205000050000000000000001465000000000003022732000000000000009999123100000010000000000000BRCPFEACNOR0121
012013071262CPFE3T      030CPFL ENERGIAON      NM122R$  000000000209900000000021000000000002099000000000209900000000021000000000000000000000000000000002000000000000000012000000000000025189000000000000009999123100000010000000000000BRCPFEACNOR0121
012013071202CPLE3       010COPEL       ON      N1   R$  000000000228700000000022880000000002235000000000227700000000022880000000002200000000000228800032000000000000008700000000000019813200000000000000009999123100000010000000000000BRCPLEACNOR8128
012013071202CPLE6       010COPEL       PNB     N1   R$  000000000297900000000029790000000002857000000000289200000000028750000000002875000000000287603143000000000000495700000000001433566500000000000000009999123100000010000000000000BRCPLEACNPB9125
012013071296CPLE6F      020COPEL       PNB     N1   R$  000000000292100000000030690000000002856000000000289900000000028560000000002856000000000305900032000000000000001307000000000003787495000000000000009999123100000010000000000000BRCPLEACNPB9125
012013071202CRDE3       010CR2         ON      NM   R$  000000000041400000000004140000000000410000000000041200000000004100000000000401000000000041000002000000000000000200000000000000082400000000000000009999123100000010000000000000BRCRDEACNOR1108
012013071202CREM3       010CREMER      ON      NM   R$  000000000140000000000014010000000001371000000000139900000000013710000000001371000000000138100034000000000001404500000000001966221200000000000000009999123100000010000000000000BRCREMACNOR2166
012013071296CREM3F      020CREMER      ON      NM   R$  000000000140000000000014000000000001400000000000140000000000014000000000001325000000000137900001000000000000000054000000000000075600000000000000009999123100000010000000000000BRCREMACNOR2166
012013071202CRIV4       010ALFA FINANC PN           R$  000000000048000000000004800000000000470000000000047500000000004800000000000470000000000048000010000000000000007800000000000003710800000000000000009999123100000010000000000000BRCRIVACNPR1189
012013071202CRUZ3       010SOUZA CRUZ  ON           R$  000000000279500000000028200000000002771000000000278400000000027710000000002771000000000277804062000000000000730800000000002034553200000000000000009999123100000010000000000000BRCRUZACNOR0246
012013071296CRUZ3F      020SOUZA CRUZ  ON           R$  000000000279500000000028470000000002749000000000278600000000027540000000002754000000000283800052000000000000001764000000000004913673000000000000009999123100000010000000000000BRCRUZACNOR0246
012013071202CSAN3       010COSAN       ON      NM   R$  000000000435700000000043590000000004290000000000432200000000043360000000004311000000000433603273000000000000642200000000002775690100000000000000009999123100000010000000000000BRCSANACNOR6107
012013071296CSAN3F      020COSAN       ON      NM   R$  000000000438000000000043800000000004202000000000431800000000042150000000004215000000000437900034000000000000000974000000000004206461000000000000009999123100000010000000000000BRCSANACNOR6107
012013071262CSAN3T      030COSAN       ON      NM017R$  000000000435300000000043540000000004353000000000435300000000043540000000000000000000000000000002000000000000001000000000000004353481000000000000009999123100000010000000000000BRCSANACNOR6107
012013071262CSAN3T      030COSAN       ON      NM122R$  000000000450400000000045050000000004504000000000450400000000045050000000000000000000000000000002000000000000000021000000000000094593000000000000009999123100000010000000000000BRCSANACNOR6107
012013071202CSMG3       010COPASA      ON      NM   R$  000000000343500000000034530000000003332000000000339700000000034200000000003398000000000342002813000000000000378300000000001285192900000000000000009999123100000010000000000000BRCSMGACNOR5127
012013071296CSMG3F      020COPASA      ON      NM   R$  000000000343600000000035090000000003351000000000343900000000033690000000003239000000000349900012000000000000000271000000000000932097000000000000009999123100000010000000000000BRCSMGACNOR5127
012013071202CSNA3       010SID NACIONALON           R$  000000000058900000000005900000000000561000000000057100000000005610000000000561000000000056210248000000000006085300000000003475603800000000000000009999123100000010000000000000BRCSNAACNOR6242
012013071296CSNA3F      020SID NACIONALON           R$  000000000058500000000005870000000000565000000000057300000000005660000000000565000000000057400102000000000000002417000000000001384643000000000000009999123100000010000000000000BRCSNAACNOR6242
012013071262CSNA3T      030SID NACIONALON        017R$  000000000057600000000005770000000000576000000000057600000000005770000000000000000000000000000002000000000000005000000000000002882341000000000000009999123100000010000000000000BRCSNAACNOR6242
012013071262CSNA3T      030SID NACIONALON        031R$  000000000057600000000005900000000000564000000000056700000000005650000000000000000000000000000018000000000000120000000000000068145616000000000000009999123100000010000000000000BRCSNAACNOR6242
012013071262CSNA3T      030SID NACIONALON        060R$  000000000058500000000005860000000000579000000000058200000000005800000000000000000000000000000006000000000000002700000000000001573436000000000000009999123100000010000000000000BRCSNAACNOR6242
012013071262CSNA3T      030SID NACIONALON        090R$  000000000059400000000005950000000000576000000000058200000000005770000000000000000000000000000004000000000000001500000000000000873255000000000000009999123100000010000000000000BRCSNAACNOR6242
012013071278CSNAG52     070CSNA        ON        000R$  000000000004900000000000490000000000049000000000004900000000000490000000000035000000000000000002000000000000001600000000000000078400000000000052002013071500000010000000000000BRCSNAACNOR6242
012013071278CSNAG54     070CSNA        ON        000R$  000000000004200000000000420000000000042000000000004200000000000420000000000000000000000000000001000000000000000200000000000000008400000000000054002013071500000010000000000000BRCSNAACNOR6242
012013071278CSNAG56     070CSNA        ON        000R$  000000000002300000000000230000000000014000000000001600000000000150000000000000000000000000000018000000000000057200000000000000968600000000000056002013071500000010000000000000BRCSNAACNOR6242
012013071278CSNAG58     070CSNA        ON        000R$  000000000000500000000000050000000000005000000000000500000000000050000000000004000000000000700001000000000000012000000000000000060000000000000058002013071500000010000000000000BRCSNAACNOR6242
012013071278CSNAG6      070CSNA        ON        000R$  000000000000300000000000050000000000003000000000000400000000000030000000000000000000000000200004000000000000026700000000000000112100000000000060002013071500000010000000000000BRCSNAACNOR6242
012013071278CSNAH58     070CSNA  FM    ON        000R$  000000000002700000000000270000000000027000000000002700000000000270000000000000000000000000000001000000000000003000000000000000081000000000000058002013081900000010000000000000BRCSNAACNOR6242
012013071278CSNAH6      070CSNA  FM    ON        000R$  000000000002100000000000260000000000017000000000002100000000000180000000000017000000000001800018000000000000023500000000000000507700000000000060002013081900000010000000000000BRCSNAACNOR6242
012013071278CSNAI56     070CSNA  FM    ON        000R$  000000000006000000000000600000000000060000000000006000000000000600000000000000000000000000000001000000000000003500000000000000210000000000000056002013091600000010000000000000BRCSNAACNOR6242
012013071278CSNAI6      070CSNA  FM    ON        000R$  000000000003300000000000330000000000033000000000003300000000000330000000000000000000000003300002000000000000002500000000000000082500000000000060002013091600000010000000000000BRCSNAACNOR6242
012013071278CSNAI7      070CSNA        ON        000R$  000000000000900000000000090000000000009000000000000900000000000090000000000000000000000001200001000000000000004000000000000000036000000000000070002013091600000010000000000000BRCSNAACNOR6242
012013071282CSNAS58     080CSNAE       ON        000R$  000000000001400000000000140000000000014000000000001400000000000140000000000000000000000000000001000000000000000100000000000000001400000000000058002013071500000010000000000000BRCSNAACNOR6242
012013071282CSNAS6      080CSNAE       ON        000R$  000000000003600000000000360000000000036000000000003600000000000360000000000000000000000020000001000000000000001000000000000000036000000000000060002013071500000010000000000000BRCSNAACNOR6242
012013071282CSNAT5      080CSNAE       ON        000R$  000000000000800000000000080000000000008000000000000800000000000080000000000000000000000003000002000000000002000000000000000016000000000000000050002013081900000010000000000000BRCSNAACNOR6242
012013071282CSNAT55     080CSNAE       ON        000R$  000000000002000000000000200000000000020000000000002000000000000200000000000000000000000000000003000000000000005000000000000000100000000000000055002013081900000010000000000000BRCSNAACNOR6242
012013071282CSNAT56     080CSNAE FM    ON        000R$  000000000002400000000000240000000000023000000000002300000000000230000000000000000000000000000002000000000002002000000000000048046000000000000056002013081900000010000000000000BRCSNAACNOR6242
012013071282CSNAT58     080CSNAE FM    ON        000R$  000000000003400000000000340000000000034000000000003400000000000340000000000000000000000000000004000000000000006400000000000000217600000000000058002013081900000010000000000000BRCSNAACNOR6242
012013071282CSNAT6      080CSNAE FM    ON        000R$  000000000004200000000000450000000000042000000000004400000000000450000000000000000000000000000006000000000000007300000000000000326600000000000060002013081900000010000000000000BRCSNAACNOR6242
012013071282CSNAT7      080CSNAE       ON        000R$  000000000012100000000001230000000000121000000000012100000000001230000000000060000000000000000002000000000000003000000000000000365000000000000070002013081900000010000000000000BRCSNAACNOR6242
012013071282CSNAU6      080CSNAE FM    ON        000R$  000000000004200000000000510000000000042000000000004200000000000510000000000000000000000000000002000000000000003600000000000000152100000000000060002013091600000010000000000000BRCSNAACNOR6242
012013071202CTAX11      010CONTAX      UNT     N2   R$  000000000189000000000018900000000001800000000000182400000000018280000000001800000000000182900033000000000000024400000000000044516700000000000000009999123100000010000000000000BRCTAXCDAM19100
012013071296CTAX11F     020CONTAX      UNT     N2   R$  000000000202500000000020250000000002025000000000202500000000020250000000001900000000000202500001000000000000000020000000000000040500000000000000009999123100000010000000000000BRCTAXCDAM19100
012013071202CTAX4       010CONTAX      PN      N2   R$  000000000034100000000003580000000000337000000000034300000000003580000000000337000000000035800127000000000000045300000000000015571600000000000000009999123100000010000000000000BRCTAXACNPR0114
012013071296CTAX4F      020CONTAX      PN      N2   R$  000000000034000000000003400000000000340000000000034000000000003400000000000336000000000035600001000000000000000001000000000000000340000000000000009999123100000010000000000000BRCTAXACNPR0114
012013071202CTIP3       010CETIP       ON      NM   R$  000000000219500000000022090000000002135000000000216200000000021350000000002135000000000213704510000000000001338800000000002894681100000000000000009999123100000010000000000000BRCTIPACNOR2119
012013071296CTIP3F      020CETIP       ON      NM   R$  000000000220900000000022730000000002112000000000215600000000021990000000002112000000000213500041000000000000001545000000000003331848000000000000009999123100000010000000000000BRCTIPACNOR2119
012013071262CTIP3T      030CETIP       ON      NM060R$  000000000223100000000022370000000002231000000000223400000000022370000000000000000000000000000004000000000000130000000000000290500611000000000000009999123100000010000000000000BRCTIPACNOR2119
012013071262CTIP3T      030CETIP       ON      NM122R$  000000000223200000000022320000000002232000000000223200000000022320000000000000000000000000000001000000000000000003000000000000006696000000000000009999123100000010000000000000BRCTIPACNOR2119
012013071282CTIPS22     080CTIPE       ON      NM000R$  000000000003500000000000350000000000035000000000003500000000000350000000000000000000000000000001000000000000150000000000000005250000000000000219402013071500000010000000000000BRCTIPACNOR2118
012013071202CTNM4       010COTEMINAS   PN           R$  000000000023200000000002350000000000225000000000023000000000002260000000000226000000000023000212000000000000066200000000000015269800000000000000009999123100000010000000000000BRCTNMACNPR6128
012013071296CTNM4F      020COTEMINAS   PN           R$  000000000023100000000002530000000000231000000000024200000000002530000000000230000000000025300002000000000000000018000000000000004356000000000000009999123100000010000000000000BRCTNMACNPR6128
012013071202CTSA3       010SANTANENSE  ON           R$  000000000058000000000005800000000000530000000000054000000000005300000000000530000000000057000008000000000000002100000000000001134800000000000000009999123100000010000000000000BRCTSAACNOR3051
012013071202CTSA4       010SANTANENSE  PN           R$  000000000056500000000005650000000000565000000000056500000000005650000000000525000000000058500003000000000000001900000000000001073500000000000000009999123100000010000000000000BRCTSAACNPR0051
012013071262CTSA4T      030SANTANENSE  PN        087R$  000000000057500000000005760000000000575000000000057500000000005760000000000000000000000000000002000000000000001700000000000000978269000000000000009999123100000010000000000000BRCTSAACNPR0051
012013071212CXCE11B     010FII CX CEDAECI      MB   R$  000000019000000000001900000000000190000000000019000000000001900000000000189000000000019000000007000000000000000032000000000006080000000000000000009999123100000010000000000000BRCXCECTF004136
012013071202CYRE3       010CYRELA REALTON      NM   R$  000000000158500000000016120000000001535000000000156400000000015440000000001544000000000154607170000000000002913500000000004558792200000000000000009999123100000010000000000000BRCYREACNOR7125
012013071296CYRE3F      020CYRELA REALTON      NM   R$  000000000159600000000015980000000001526000000000156800000000015260000000001526000000000158900031000000000000001106000000000001733418000000000000009999123100000010000000000000BRCYREACNOR7125
012013071278CYREG45     070CYRE        ON      NM000R$  000000000002400000000000240000000000024000000000002400000000000240000000000000000000000000000001000000000000009900000000000000237600000000000155002013071500000010000000000000BRCYREACNOR7125
012013071278CYREH15     070CYRE  FM    ON      NM000R$  000000000010400000000001100000000000104000000000010500000000001100000000000000000000000000000005000000000000017100000000000001799400000000000150002013081900000010000000000000BRCYREACNOR7125
012013071278CYREH16     070CYRE  FM    ON      NM000R$  000000000005900000000000620000000000042000000000005300000000000420000000000000000000000000000013000000000000333800000000000017857500000000000160002013081900000010000000000000BRCYREACNOR7125
012013071278CYREH45     070CYRE  FM    ON      NM000R$  000000000009100000000000910000000000068000000000007900000000000680000000000000000000000000000006000000000000014200000000000001133200000000000155002013081900000010000000000000BRCYREACNOR7125
012013071278CYREH46     070CYRE  FM    ON      NM000R$  000000000003900000000000390000000000039000000000003900000000000390000000000000000000000000000001000000000000002700000000000000105300000000000165002013081900000010000000000000BRCYREACNOR7125
012013071278CYREI15     070CYRE  FM    ON      NM000R$  000000000014200000000001420000000000128000000000013900000000001280000000000000000000000000000005000000000000013800000000000001925400000000000150002013091600000010000000000000BRCYREACNOR7125
012013071278CYREI16     070CYRE  FM    ON      NM000R$  000000000007700000000000810000000000077000000000007900000000000780000000000000000000000000000007000000000000023700000000000001880900000000000160002013091600000010000000000000BRCYREACNOR7125
012013071278CYREI17     070CYRE  FM    ON      NM000R$  000000000004100000000000410000000000040000000000004000000000000400000000000000000000000000000002000000000000007000000000000000283500000000000170002013091600000010000000000000BRCYREACNOR7125
012013071278CYREI45     070CYRE  FM    ON      NM000R$  000000000010900000000001090000000000101000000000010600000000001010000000000000000000000000000010000000000000033200000000000003542500000000000155002013091600000010000000000000BRCYREACNOR7125
012013071278CYREI46     070CYRE  FM    ON      NM000R$  000000000006000000000000600000000000050000000000005600000000000500000000000000000000000000000015000000000001518000000000000085770000000000000165002013091600000010000000000000BRCYREACNOR7125
012013071282CYRES15     080CYREE       ON      NM000R$  000000000000500000000000050000000000005000000000000500000000000050000000000000000000000003800001000000000000000200000000000000001000000000000150002013071500000010000000000000BRCYREACNOR7125
012013071282CYRES16     080CYREE       ON      NM000R$  000000000003000000000000300000000000030000000000003000000000000300000000000000000000000000000001000000000000002000000000000000060000000000000160002013071500000010000000000000BRCYREACNOR7125
012013071282CYRES45     080CYREE       ON      NM000R$  000000000001400000000000140000000000014000000000001400000000000140000000000000000000000000000001000000000000009900000000000000138600000000000155002013071500000010000000000000BRCYREACNOR7125
012013071282CYRET15     080CYREE FM    ON      NM000R$  000000000002900000000000390000000000029000000000003800000000000390000000000000000000000000000004000000000000010300000000000000400700000000000150002013081900000010000000000000BRCYREACNOR7125
012013071282CYRET16     080CYREE FM    ON      NM000R$  000000000006100000000000810000000000061000000000008000000000000810000000000000000000000000000003000000000000003600000000000000289600000000000160002013081900000010000000000000BRCYREACNOR7125
012013071282CYRET46     080CYREE FM    ON      NM000R$  000000000008800000000001200000000000088000000000010800000000001200000000000000000000000000000004000000000000010600000000000001149900000000000165002013081900000010000000000000BRCYREACNOR7125
012013071282CYREU14     080CYREE       ON      NM000R$  000000000002400000000000240000000000024000000000002400000000000240000000000000000000000000000001000000000000007000000000000000168000000000000140002013091600000010000000000000BRCYREACNOR7125
012013071282CYREU15     080CYREE FM    ON      NM000R$  000000000004500000000000510000000000045000000000004700000000000490000000000000000000000000000005000000000000017500000000000000833000000000000150002013091600000010000000000000BRCYREACNOR7125
012013071282CYREU16     080CYREE FM    ON      NM000R$  000000000008200000000000960000000000082000000000008700000000000960000000000000000000000000000009000000000000035000000000000003045000000000000160002013091600000010000000000000BRCYREACNOR7125
012013071282CYREU43     080CYREE       ON      NM000R$  000000000001700000000000170000000000017000000000001700000000000170000000000000000000000000000001000000000000007000000000000000119000000000000135002013091600000010000000000000BRCYREACNOR7125
