00COTAHIST.2013BOVESPA 20130903                                                                                                                                                                                                                      
012013090302AAPL34      010APPLE       DRN          R$  000000001181100000000118110000000011482000000001152500000000114820000000011460000000001160000003000000000000016100000000000185554600000000000000009999123100000010000000000000BRAAPLBDR004105
012013090396ABCB10F     020ABC BRASIL  PN  REC N2   R$  000000000124300000000012430000000001145000000000119400000000011450000000000000000000000124200002000000000000000162000000000000193428000000000000009999123100000010000000000000BRABCBR04PR3119
012013090302ABCB4       010ABC BRASIL  PN      N2   R$  000000000122000000000012370000000001202000000000122100000000012250000000001217000000000122500882000000000000210900000000000257637200000000000000009999123100000010000000000000BRABCBACNPR4120
012013090396ABCB4F      020ABC BRASIL  PN      N2   R$  000000000125000000000012500000000001200000000000121600000000012200000000001215000000000122600006000000000000000093000000000000113104000000000000009999123100000010000000000000BRABCBACNPR4120
012013090312ABCP11      010FII ABC IMOBCI  ER       R$  000000000096700000000009670000000000967000000000096700000000009670000000000910000000000096700001000000000000000010000000000000009670000000000000009999123100000010000000000000BRABCPCTF000215
012013090302ABRE11      010ABRIL EDUCA UNT     N2   R$  000000000331700000000035600000000003249000000000344300000000034420000000003442000000000346901470000000000000370100000000001274576200000000000000009999123100000010000000000000BRABRECDAM15102
012013090396ABRE11F     020ABRIL EDUCA UNT     N2   R$  000000000340000000000035500000000003400000000000349600000000035500000000003350000000000351800011000000000000000397000000000001388184000000000000009999123100000010000000000000BRABRECDAM15102
012013090362ABRE11T     030ABRIL EDUCA UNT     N2090R$  000000000340400000000034050000000003404000000000340400000000034050000000000000000000000000000002000000000000001000000000000003404211000000000000009999123100000010000000000000BRABRECDAM15102
012013090302ABTT34      010ABBOTT      DRN          R$  000000000198000000000019800000000001980000000000198000000000019800000000001920000000000196000001000000000000000500000000000000990000000000000000009999123100000010000000000000BRABTTBDR007107
012013090302AEDU3       010ANHANGUERA  ON      NM   R$  000000000142800000000014280000000001337000000000136000000000013400000000001339000000000134004700000000000003926100000000005339807200000000000000009999123100000010000000000000BRAEDUACNOR9107
012013090396AEDU3F      020ANHANGUERA  ON      NM   R$  000000000143500000000014350000000001340000000000138200000000013400000000001335000000000143500038000000000000001185000000000001638703000000000000009999123100000010000000000000BRAEDUACNOR9107
012013090362AEDU3T      030ANHANGUERA  ON      NM030R$  000000000135200000000013530000000001352000000000135200000000013530000000000000000000000000000002000000000000010000000000000013528008000000000000009999123100000010000000000000BRAEDUACNOR9107
012013090312AEFI11      010FII AESAPAR CI  ER       R$  000000001219500000000121950000000012005000000001203100000000120100000000012010000000001219300014000000000000000274000000000003296525000000000000009999123100000010000000000000BRAEFICTF002121
012013090302AELP3       010AES ELPA    ON           R$  000000000085300000000008530000000000828000000000084400000000008280000000000828000000000085300002000000000000000300000000000000253400000000000000009999123100000010000000000000BRAELPACNOR2119
012013090312AGCX11      010FII AG CAIXACI  ER       R$  000000009900100000000990010000000098900000000009897500000000989000000000098800000000009900000007000000000000000059000000000005839553000000000000009999123100000010000000000000BRAGCXCTF003110
012013090302AGRO3       010BRASILAGRO  ON      NM   R$  000000000095000000000009550000000000935000000000094600000000009530000000000935000000000095300100000000000000018400000000000017423800000000000000009999123100000010000000000000BRAGROACNOR7102
012013090396AGRO3F      020BRASILAGRO  ON      NM   R$  000000000109000000000010900000000001090000000000109000000000010900000000000955000000000109000001000000000000000005000000000000005450000000000000009999123100000010000000000000BRAGROACNOR7102
012013090302ALLL3       010ALL AMER LATON      NM   R$  000000000094700000000009570000000000922000000000094200000000009480000000000942000000000094807566000000000001871100000000001762937500000000000000009999123100000010000000000000BRALLLACNOR6118
012013090396ALLL3F      020ALL AMER LATON      NM   R$  000000000095300000000009600000000000926000000000094200000000009450000000000945000000000096500180000000000000005776000000000005445390000000000000009999123100000010000000000000BRALLLACNOR6118
012013090362ALLL3T      030ALL AMER LATON      NM030R$  000000000093900000000009400000000000939000000000093900000000009400000000000000000000000000000002000000000000003800000000000003569933000000000000009999123100000010000000000000BRALLLACNOR6118
012013090312ALMI11B     010FII TORRE ALCI  ER  MB   R$  000000030800000000003119000000000308000000000030898500000003119000000000307120000000031190000007000000000000000014000000000004325800000000000000009999123100000010000000000000BRALMICTF003205
012013090302ALPA3       010ALPARGATAS  ON      N1   R$  000000000108200000000010820000000001082000000000108200000000010820000000001086000000000113900003000000000000000300000000000000324600000000000000009999123100000010000000000000BRALPAACNOR0203
012013090302ALPA4       010ALPARGATAS  PN      N1   R$  000000000127100000000012850000000001264000000000127600000000012780000000001275000000000128201963000000000000354300000000000452148000000000000000009999123100000010000000000000BRALPAACNPR7203
012013090396ALPA4F      020ALPARGATAS  PN      N1   R$  000000000127300000000012800000000001262000000000127400000000012760000000001261000000000128000045000000000000001227000000000001563203000000000000009999123100000010000000000000BRALPAACNPR7203
012013090302ALSC3       010ALIANSCE    ON      NM   R$  000000000190200000000019370000000001846000000000186500000000018570000000001857000000000187003445000000000000986900000000001840831800000000000000009999123100000010000000000000BRALSCACNOR0104
012013090302ALUP11      010ALUPAR      UNT     N2   R$  000000000170100000000017400000000001701000000000172000000000017350000000001720000000000173800314000000000000243800000000000419441700000000000000009999123100000010000000000000BRALUPCDAM15100
012013090396ALUP11F     020ALUPAR      UNT     N2   R$  000000000172500000000017450000000001707000000000172400000000017340000000001707000000000179900039000000000000000776000000000001338405000000000000009999123100000010000000000000BRALUPCDAM15100
012013090302AMAR3       010LOJAS MARISAON      NM   R$  000000000195200000000019900000000001941000000000197400000000019750000000001975000000000197800930000000000000274100000000000541316200000000000000009999123100000010000000000000BRAMARACNOR4109
012013090396AMAR3F      020LOJAS MARISAON      NM   R$  000000000197000000000019750000000001970000000000197200000000019750000000001970000000000199500003000000000000000040000000000000078900000000000000009999123100000010000000000000BRAMARACNOR4109
012013090302AMBV3       010AMBEV       ON           R$  000000000839900000000084260000000008110000000000818100000000081200000000008120000000000815001465000000000000249600000000002042056200000000000000009999123100000010000000000000BRAMBVACNOR4153
012013090396AMBV3F      020AMBEV       ON           R$  000000000835000000000084490000000008077000000000818800000000081460000000008055000000000820000056000000000000001347000000000011029855000000000000009999123100000010000000000000BRAMBVACNOR4153
012013090362AMBV3T      030AMBEV       ON        030R$  000000000830300000000083040000000008303000000000830300000000083040000000000000000000000000000002000000000000001000000000000008303632000000000000009999123100000010000000000000BRAMBVACNOR4153
012013090302AMBV4       010AMBEV       PN           R$  000000000841000000000084240000000008123000000000818500000000081400000000008139000000000814010721000000000002638100000000021592007000000000000000009999123100000010000000000000BRAMBVACNPR1153
012013090396AMBV4F      020AMBEV       PN           R$  000000000841000000000084290000000008128000000000820400000000081290000000008129000000000817900247000000000000004921000000000040369986000000000000009999123100000010000000000000BRAMBVACNPR1153
012013090362AMBV4T      030AMBEV       PN        016R$  000000000838500000000084360000000008184000000000824500000000081850000000000000000000000000000016000000000000004100000000000033807568000000000000009999123100000010000000000000BRAMBVACNPR1153
012013090362AMBV4T      030AMBEV       PN        030R$  000000000824300000000084790000000008233000000000829300000000084790000000000000000000000000000010000000000000002200000000000018246057000000000000009999123100000010000000000000BRAMBVACNPR1153
012013090362AMBV4T      030AMBEV       PN        062R$  000000000841900000000084200000000008419000000000841900000000084200000000000000000000000000000002000000000000000500000000000004209515000000000000009999123100000010000000000000BRAMBVACNPR1153
012013090362AMBV4T      030AMBEV       PN        090R$  000000000841800000000084190000000008418000000000841800000000084190000000000000000000000000000002000000000000001000000000000008418300000000000000009999123100000010000000000000BRAMBVACNPR1153
012013090302ARMT34      010ARCELOR     DRN          R$  000000000160000000000016000000000001600000000000160000000000016000000000001550000000000158000001000000000000000700000000000001120000000000000000009999123100000010000000000000BRARMTBDR008111
012013090302ARTR3       010ARTERIS     ON      NM   R$  000000000210000000000021070000000001960000000000200100000000019600000000001959000000000196002268000000000001025000000000002051331100000000000000009999123100000010000000000000BRARTRACNOR3101
012013090396ARTR3F      020ARTERIS     ON      NM   R$  000000000207000000000020910000000001905000000000200100000000019980000000001972000000000199800071000000000000002337000000000004675245000000000000009999123100000010000000000000BRARTRACNOR3101
012013090362ARTR3T      030ARTERIS     ON      NM090R$  000000000199900000000020000000000001999000000000199900000000020000000000000000000000000000000002000000000000003000000000000005999952000000000000009999123100000010000000000000BRARTRACNOR3101
012013090302ARZZ3       010AREZZO CO   ON      NM   R$  000000000347100000000034940000000003401000000000344300000000034740000000003457000000000347400860000000000000127700000000000439686500000000000000009999123100000010000000000000BRARZZACNOR3109
012013090396ARZZ3F      020AREZZO CO   ON      NM   R$  000000000340100000000035000000000003401000000000345400000000034500000000003450000000000356000007000000000000000230000000000000794510000000000000009999123100000010000000000000BRARZZACNOR3109
012013090302ATTB34      010ATT INC     DRN          R$  000000000811500000000081150000000008110000000000811200000000081100000000007742000000000797500002000000000000000200000000000001622500000000000000009999123100000010000000000000BRATTBBDR007104
012013090302AUTM3       010AUTOMETAL   ON      NM   R$  000000000192300000000019510000000001861000000000187600000000018610000000001861000000000187300575000000000000171100000000000321068900000000000000009999123100000010000000000000BRAUTMACNOR8109
012013090396AUTM3F      020AUTOMETAL   ON      NM   R$  000000000200000000000020000000000001869000000000188600000000018750000000001760000000000195000004000000000000000045000000000000084910000000000000009999123100000010000000000000BRAUTMACNOR8109
012013090302AXPB34      010AMERICAN EXPDRN          R$  000000001748000000000174800000000017480000000001748000000000174800000000016838000000001734400001000000000000000100000000000001748000000000000000009999123100000010000000000000BRAXPBBDR007105
012013090302BAUH4       010EXCELSIOR   PN           R$  000000000094800000000009480000000000948000000000094800000000009480000000000850000000000094800002000000000000001100000000000001042800000000000000009999123100000010000000000000BRBAUHACNPR3108
012013090302BAZA3       010AMAZONIA    ON           R$  000000000003300000000000330000000000032000000000003200000000000330000000000032000000000003300008000000000000091000000000000002973000000000000000009999123100000010000000000000BRBAZAACNOR0163
012013090396BAZA3F      020AMAZONIA    ON           R$  000000000003100000000000310000000000031000000000003100000000000310000000000032000000000003500002000000000000000180000000000000005580000000000000009999123100000010000000000000BRBAZAACNOR0163
012013090302BBAS3       010BRASIL      ON  ED  NM   R$  000000000233900000000023550000000002290000000000231000000000023030000000002303000000000230515306000000000005202100000000012019978600000000000000009999123100000010000000000000BRBBASACNOR3238
012013090396BBAS3F      020BRASIL      ON  ED  NM   R$  000000000232000000000023500000000002291000000000231600000000022980000000002298000000000230800361000000000000009448000000000021885840000000000000009999123100000010000000000000BRBBASACNOR3238
012013090362BBAS3T      030BRASIL      ON  ED  NM030R$  000000000234900000000023500000000002349000000000234900000000023500000000000000000000000000000002000000000000002000000000000004699595000000000000009999123100000010000000000000BRBBASACNOR3238
012013090362BBAS3T      030BRASIL      ON  ED  NM045R$  000000000233000000000023310000000002330000000000233000000000023310000000000000000000000000000004000000000000010000000000000023306742000000000000009999123100000010000000000000BRBBASACNOR3238
012013090362BBAS3T      030BRASIL      ON  ED  NM062R$  000000000238100000000023820000000002381000000000238100000000023820000000000000000000000000000002000000000000075000000000000178602471000000000000009999123100000010000000000000BRBBASACNOR3238
012013090362BBAS3T      030BRASIL      ON  ED  NM120R$  000000000236400000000023650000000002364000000000236400000000023650000000000000000000000000000002000000000000000300000000000000709251000000000000009999123100000010000000000000BRBBASACNOR3238
012013090378BBASB25     070BBAS    /EDRON      NM000R$  000000000016200000000001620000000000151000000000015200000000001510000000000000000000000050000002000000000000001100000000000000167200000000000242202014021700000010000000000000BRBBASACNOR3237
012013090378BBASI21     070BBAS    /EDRON      NM000R$  000000000028700000000002870000000000280000000000028000000000002800000000000280000000000030000004000000000000011800000000000003313000000000000202202013091600000010000000000000BRBBASACNOR3237
012013090378BBASI22     070BBAS  FM/EDRON      NM000R$  000000000025300000000002630000000000204000000000022400000000002100000000000061000000000000000385000000000000315900000000000070875200000000000209802013091600000010000000000000BRBBASACNOR3236
012013090378BBASI23     070BBAS  FM/EDRON      NM000R$  000000000015200000000001690000000000117000000000013800000000001210000000000074000000000016800052000000000000071500000000000009904000000000000219802013091600000010000000000000BRBBASACNOR3236
012013090378BBASI24     070BBAS  FM/EDRON      NM000R$  000000000007500000000000860000000000050000000000006000000000000590000000000040000000000005900158000000000000194600000000000011685500000000000229802013091600000010000000000000BRBBASACNOR3236
012013090378BBASI25     070BBAS  FM/EDRON      NM000R$  000000000002800000000000320000000000014000000000001900000000000160000000000014000000000002000149000000000000201700000000000003951900000000000238802013091600000010000000000000BRBBASACNOR3235
012013090378BBASI26     070BBAS  FM/EDRON      NM000R$  000000000000600000000000080000000000004000000000000400000000000040000000000005000000000000600073000000000000149300000000000000725100000000000248802013091600000010000000000000BRBBASACNOR3235
012013090378BBASI27     070BBAS    /EDRON      NM000R$  000000000000200000000000020000000000002000000000000200000000000020000000000001000000000000300001000000000000010000000000000000020000000000000259802013091600000010000000000000BRBBASACNOR3236
012013090378BBASJ22     070BBAS  FM/EDRON      NM000R$  000000000026900000000002730000000000227000000000025100000000002350000000000200000000000000000091000000000000108700000000000027388800000000000212202013102100000010000000000000BRBBASACNOR3237
012013090378BBASJ23     070BBAS  FM/EDRON      NM000R$  000000000021500000000002150000000000175000000000019700000000001840000000000165000000000000000012000000000000018800000000000003710700000000000218802013102100000010000000000000BRBBASACNOR3235
012013090378BBASJ24     070BBAS  FM/EDRON      NM000R$  000000000013500000000001360000000000101000000000011500000000001090000000000017000000000013500038000000000000060200000000000006936100000000000229802013102100000010000000000000BRBBASACNOR3236
012013090378BBASJ25     070BBAS  FM/EDRON      NM000R$  000000000006900000000000690000000000048000000000005400000000000520000000000050000000000007500018000000000000019100000000000001034200000000000242202013102100000010000000000000BRBBASACNOR3237
012013090378BBASJ26     070BBAS  FM/EDRON      NM000R$  000000000004400000000000440000000000030000000000003400000000000300000000000027000000000003600011000000000000022600000000000000773700000000000248802013102100000010000000000000BRBBASACNOR3235
012013090378BBASJ56     070BBAS    /EDRON      NM000R$  000000000003300000000000330000000000033000000000003300000000000330000000000000000000000000000001000000000000001000000000000000033000000000000253802013102100000010000000000000BRBBASACNOR3235
012013090378BBASK26     070BBAS    /EDRON      NM000R$  000000000005300000000000530000000000053000000000005300000000000530000000000016000000000000000001000000000000000500000000000000026500000000000249802013111800000010000000000000BRBBASACNOR3236
012013090378BBASK27     070BBAS    /EDRON      NM000R$  000000000003000000000000300000000000030000000000003000000000000300000000000010000000000000000002000000000000001000000000000000030000000000000259802013111800000010000000000000BRBBASACNOR3236
012013090382BBASU20     080BBASE   /EDRON      NM000R$  000000000000100000000000020000000000001000000000000100000000000020000000000000000000000000000007000000000000015300000000000000030300000000000192202013091600000010000000000000BRBBASACNOR3237
012013090382BBASU21     080BBASE FM/EDRON      NM000R$  000000000000400000000000050000000000003000000000000300000000000050000000000001000000000000900061000000000000125600000000000000487400000000000202202013091600000010000000000000BRBBASACNOR3237
012013090382BBASU22     080BBASE FM/EDRON      NM000R$  000000000000500000000000080000000000005000000000000500000000000050000000000003000000000001100006000000000000035400000000000000187700000000000209802013091600000010000000000000BRBBASACNOR3236
012013090382BBASU23     080BBASE FM/EDRON      NM000R$  000000000001100000000000150000000000011000000000001200000000000150000000000000000000000002000006000000000000009900000000000000121700000000000219802013091600000010000000000000BRBBASACNOR3236
012013090382BBASU24     080BBASE FM/EDRON      NM000R$  000000000002900000000000510000000000028000000000004100000000000450000000000030000000000005100057000000000000120800000000000005016600000000000229802013091600000010000000000000BRBBASACNOR3236
012013090382BBASU25     080BBASE   /EDRON      NM000R$  000000000007100000000001100000000000071000000000009400000000000970000000000000000000000000000015000000000000020400000000000001918300000000000238802013091600000010000000000000BRBBASACNOR3235
012013090382BBASU61     080BBASE   /EDRON      NM000R$  000000000001000000000000100000000000010000000000001000000000000100000000000000000000000000000004000000000000012500000000000000125000000000000214702013091600000010000000000000BRBBASACNOR3237
012013090382BBASV22     080BBASE FM/EDRON      NM000R$  000000000003200000000000340000000000032000000000003300000000000330000000000028000000000024700003000000000000009000000000000000300000000000000212202013102100000010000000000000BRBBASACNOR3237
012013090382BBASV23     080BBASE FM/EDRON      NM000R$  000000000004500000000000470000000000045000000000004500000000000470000000000000000000000007000005000000000000010000000000000000456000000000000218802013102100000010000000000000BRBBASACNOR3235
012013090382BBASV24     080BBASE FM/EDRON      NM000R$  000000000006900000000000820000000000069000000000007700000000000780000000000000000000000000000007000000000000014200000000000001093900000000000229802013102100000010000000000000BRBBASACNOR3236
012013090382BBASW22     080BBASE   /EDRON      NM000R$  000000000004000000000000410000000000040000000000004000000000000410000000000000000000000000000003000000000000009000000000000000363000000000000212202013111800000010000000000000BRBBASACNOR3237
012013090382BBASW23     080BBASE   /EDRON      NM000R$  000000000006200000000000660000000000062000000000006400000000000660000000000000000000000000000006000000000000018000000000000001152000000000000222202013111800000010000000000000BRBBASACNOR3237
012013090382BBASW24     080BBASE   /EDRON      NM000R$  000000000009500000000001010000000000095000000000009700000000001010000000000000000000000000000006000000000000018000000000000001761000000000000232202013111800000010000000000000BRBBASACNOR3237
012013090382BBASW25     080BBASE   /EDRON      NM000R$  000000000013000000000001330000000000130000000000013100000000001330000000000000000000000000000003000000000000009000000000000001179000000000000239802013111800000010000000000000BRBBASACNOR3236
012013090382BBASW53     080BBASE   /EDRON      NM000R$  000000000004800000000000490000000000048000000000004800000000000490000000000000000000000000000003000000000000008000000000000000387000000000000216402013111800000010000000000000BRBBASACNOR3232
012013090302BBDC3       010BRADESCO    ON  EJ  N1   R$  000000000318900000000031950000000003100000000000313600000000031000000000003100000000000312408242000000000002084500000000006539024100000000000000009999123100000010000000000000BRBBDCACNOR1606
012013090396BBDC3F      020BRADESCO    ON  EJ  N1   R$  000000000315600000000031740000000003063000000000313800000000031360000000003100000000000313600092000000000000002301000000000007221215000000000000009999123100000010000000000000BRBBDCACNOR1606
012013090302BBDC4       010BRADESCO    PN  EJ  N1   R$  000000000281200000000028160000000002751000000000277200000000027650000000002765000000000276618927000000000006877200000000019068148800000000000000009999123100000010000000000000BRBBDCACNPR8606
012013090396BBDC4F      020BRADESCO    PN  EJ  N1   R$  000000000281500000000028190000000002721000000000277700000000027750000000002770000000000277500340000000000000007159000000000019885529000000000000009999123100000010000000000000BRBBDCACNPR8606
012013090362BBDC4T      030BRADESCO    PN  EJ  N1030R$  000000000278000000000027810000000002780000000000278000000000027810000000000000000000000000000002000000000000002000000000000005561206000000000000009999123100000010000000000000BRBBDCACNPR8606
012013090362BBDC4T      030BRADESCO    PN  EJ  N1062R$  000000000280900000000028100000000002809000000000280900000000028100000000000000000000000000000002000000000000003000000000000008427171000000000000009999123100000010000000000000BRBBDCACNPR8606
012013090362BBDC4T      030BRADESCO    PN  EJ  N1065R$  000000000279500000000027960000000002795000000000279500000000027960000000000000000000000000000002000000000000002000000000000005591171000000000000009999123100000010000000000000BRBBDCACNPR8606
012013090378BBDCI27     070BBDC    /EJ PN      N1000R$  000000000016000000000001600000000000111000000000012600000000001230000000000112000000000012300134000000000000219000000000000027638800000000000267602013091600000010000000000000BRBBDCACNPR8602
012013090378BBDCI28     070BBDC    /EJ PN      N1000R$  000000000007600000000000800000000000048000000000005900000000000600000000000042000000000006500402000000000000284000000000000016966000000000000277602013091600000010000000000000BRBBDCACNPR8602
012013090378BBDCI29     070BBDC    /EJ PN      N1000R$  000000000002600000000000280000000000016000000000001900000000000160000000000016000000000002000077000000000000182100000000000003605700000000000287602013091600000010000000000000BRBBDCACNPR8602
012013090378BBDCI30     070BBDC    /EJ PN      N1000R$  000000000000700000000000070000000000005000000000000600000000000070000000000005000000000001000053000000000000036600000000000000219900000000000297602013091600000010000000000000BRBBDCACNPR8602
012013090378BBDCI33     070BBDC    /EJ PN      N1000R$  000000000000700000000000070000000000007000000000000700000000000070000000000005000000000000000001000000000000000300000000000000002100000000000297002013091600000010000000000000BRBBDCACNPR8598
012013090378BBDCI58     070BBDC    /EJ PN      N1000R$  000000000002900000000000290000000000029000000000002900000000000290000000000000000000000000000001000000000000002100000000000000060900000000000284802013091600000010000000000000BRBBDCACNPR8605
012013090378BBDCI75     070BBDCE   /EJ PN      N1000R$  000000000003800000000000380000000000036000000000003700000000000360000000000000000000000000000002000000000000002400000000000000090600000000000282102013091600000010000000000000BRBBDCACNPR8604
012013090378BBDCI81     070BBDC    /EJ PN      N1000R$  000000000000400000000000040000000000003000000000000300000000000030000000000000000000000001600009000000000000013000000000000000041500000000000307602013091600000010000000000000BRBBDCACNPR8602
012013090378BBDCJ26     070BBDC    /EJ PN      N1000R$  000000000026600000000002750000000000230000000000024800000000002370000000000000000000000000000187000000000000196100000000000048783900000000000259602013102100000010000000000000BRBBDCACNPR8604
012013090378BBDCJ27     070BBDC    /EJ PN      N1000R$  000000000020500000000002120000000000172000000000019100000000001750000000000000000000000023000078000000000000088300000000000016878000000000000267602013102100000010000000000000BRBBDCACNPR8602
012013090378BBDCJ29     070BBDC    /EJ PN      N1000R$  000000000009000000000000900000000000070000000000007600000000000750000000000000000000000009100037000000000000078500000000000005990300000000000287602013102100000010000000000000BRBBDCACNPR8602
012013090378BBDCJ30     070BBDC    /EJ PN      N1000R$  000000000004400000000000450000000000039000000000004200000000000430000000000039000000000006000070000000000000079000000000000003376300000000000297602013102100000010000000000000BRBBDCACNPR8602
012013090378BBDCJ31     070BBDC    /EJ PN      N1000R$  000000000002400000000000270000000000024000000000002600000000000260000000000021000000000002700005000000000000014100000000000000370400000000000307602013102100000010000000000000BRBBDCACNPR8602
012013090378BBDCJ32     070BBDC    /EJ PN      N1000R$  000000000001400000000000140000000000014000000000001400000000000140000000000012000000000002200001000000000000002000000000000000028000000000000317602013102100000010000000000000BRBBDCACNPR8602
012013090378BBDCJ58     070BBDC    /EJ PN      N1000R$  000000000011300000000001230000000000102000000000011300000000001090000000000092000000000014800055000000000000078600000000000008901900000000000279802013102100000010000000000000BRBBDCACNPR8605
012013090378BBDCK28     070BBDC    /EJ PN      N1000R$  000000000016600000000001660000000000153000000000015600000000001530000000000000000000000000000007000000000000013000000000000002028000000000000277602013111800000010000000000000BRBBDCACNPR8602
012013090378BBDCK30     070BBDC    /EJ PN      N1000R$  000000000006400000000000640000000000064000000000006400000000000640000000000000000000000000000002000000000000004000000000000000256000000000000299802013111800000010000000000000BRBBDCACNPR8605
012013090378BBDCK31     070BBDC    /EJ PN      N1000R$  000000000004300000000000430000000000043000000000004300000000000430000000000000000000000000000001000000000000001200000000000000051600000000000309802013111800000010000000000000BRBBDCACNPR8605
012013090382BBDCM28     080BBDCE   /EJ PN      N1000R$  000000000014800000000001480000000000148000000000014800000000001480000000000000000000000000000001000000000000001200000000000000177600000000000280002014012000000010000000000000BRBBDCACNPR8606
012013090382BBDCM58     080BBDCE   /EJ PN      N1000R$  000000000017100000000001710000000000171000000000017100000000001710000000000000000000000000000001000000000000001200000000000000205200000000000285002014012000000010000000000000BRBBDCACNPR8606
012013090382BBDCU26     080BBDCE   /EJ PN      N1000R$  000000000001000000000000120000000000007000000000001000000000000110000000000006000000000000000044000000000000124100000000000001288300000000000259602013091600000010000000000000BRBBDCACNPR8604
012013090382BBDCU27     080BBDCE   /EJ PN      N1000R$  000000000001900000000000260000000000019000000000001900000000000260000000000000000000000000000010000000000000014300000000000000280700000000000267602013091600000010000000000000BRBBDCACNPR8602
012013090382BBDCU28     080BBDCE   /EJ PN      N1000R$  000000000003900000000000610000000000039000000000005400000000000520000000000000000000000000000201000000000000221100000000000012092900000000000277602013091600000010000000000000BRBBDCACNPR8602
012013090382BBDCU29     080BBDCE   /EJ PN      N1000R$  000000000009400000000001280000000000087000000000010600000000001280000000000000000000000000000060000000000000106800000000000011356600000000000287602013091600000010000000000000BRBBDCACNPR8602
012013090382BBDCU31     080BBDCE   /EJ PN      N1000R$  000000000003100000000000350000000000031000000000003200000000000350000000000000000000000000000006000000000000008100000000000000265500000000000272702013091600000010000000000000BRBBDCACNPR8590
012013090382BBDCU58     080BBDCE   /EJ PN      N1000R$  000000000007200000000000920000000000072000000000008600000000000900000000000000000000000000000006000000000000011200000000000000970200000000000284802013091600000010000000000000BRBBDCACNPR8605
012013090382BBDCU75     080BBDCE   /EJ PN      N1000R$  000000000007100000000000760000000000069000000000007200000000000730000000000000000000000000000009000000000000016300000000000001183500000000000282102013091600000010000000000000BRBBDCACNPR8604
012013090382BBDCV24     080BBDCE   /EJ PN      N1000R$  000000000001400000000000140000000000014000000000001400000000000140000000000000000000000000000001000000000000010000000000000000140000000000000239602013102100000010000000000000BRBBDCACNPR8604
012013090382BBDCV25     080BBDCE   /EJ PN      N1000R$  000000000002400000000000260000000000023000000000002400000000000260000000000000000000000002700008000000000000031000000000000000772000000000000249402013102100000010000000000000BRBBDCACNPR8603
012013090382BBDCV26     080BBDCE   /EJ PN      N1000R$  000000000003900000000000430000000000039000000000003900000000000430000000000000000000000000000011000000000000020100000000000000797300000000000259602013102100000010000000000000BRBBDCACNPR8604
012013090382BBDCV27     080BBDCE   /EJ PN      N1000R$  000000000005800000000000680000000000057000000000005900000000000680000000000000000000000000000017000000000000028700000000000001711800000000000267602013102100000010000000000000BRBBDCACNPR8602
012013090382BBDCV29     080BBDCE   /EJ PN      N1000R$  000000000014300000000001460000000000143000000000014400000000001460000000000000000000000000000011000000000000022000000000000003170000000000000287602013102100000010000000000000BRBBDCACNPR8602
012013090382BBDCV30     080BBDCE   /EJ PN      N1000R$  000000000021200000000002200000000000209000000000021100000000002200000000000000000000000000000005000000000000008600000000000001818000000000000297602013102100000010000000000000BRBBDCACNPR8602
012013090382BBDCV58     080BBDCE   /EJ PN      N1000R$  000000000010000000000001120000000000100000000000010500000000001110000000000000000000000000000033000000000000059200000000000006237200000000000279802013102100000010000000000000BRBBDCACNPR8605
012013090382BBDCW23     080BBDCE   /EJ PN      N1000R$  000000000001700000000000170000000000017000000000001700000000000170000000000000000000000000000001000000000000002000000000000000034000000000000229802013111800000010000000000000BRBBDCACNPR8605
012013090382BBDCW24     080BBDCE   /EJ PN      N1000R$  000000000002500000000000260000000000025000000000002500000000000260000000000000000000000000000002000000000000003200000000000000081200000000000239802013111800000010000000000000BRBBDCACNPR8605
012013090382BBDCW25     080BBDCE   /EJ PN      N1000R$  000000000003700000000000400000000000037000000000003900000000000400000000000000000000000000000003000000000000005000000000000000195000000000000249602013111800000010000000000000BRBBDCACNPR8604
012013090382BBDCW26     080BBDCE   /EJ PN      N1000R$  000000000005600000000000590000000000056000000000005700000000000590000000000000000000000000000003000000000000005000000000000000289000000000000259602013111800000010000000000000BRBBDCACNPR8604
012013090382BBDCW27     080BBDCE   /EJ PN      N1000R$  000000000008300000000000880000000000083000000000008500000000000880000000000063000000000000000007000000000000009900000000000000851300000000000269402013111800000010000000000000BRBBDCACNPR8603
012013090382BBDCW28     080BBDCE   /EJ PN      N1000R$  000000000011300000000001190000000000113000000000011600000000001190000000000000000000000000000008000000000000012200000000000001420400000000000277602013111800000010000000000000BRBBDCACNPR8602
012013090382BBDCW30     080BBDCE   /EJ PN      N1000R$  000000000023800000000002390000000000238000000000023800000000002390000000000000000000000000000002000000000000003000000000000000716000000000000299802013111800000010000000000000BRBBDCACNPR8605
012013090382BBDCW31     080BBDCE   /EJ PN      N1000R$  000000000031200000000003120000000000310000000000031100000000003100000000000000000000000000000002000000000000003900000000000001213000000000000309802013111800000010000000000000BRBBDCACNPR8605
012013090382BBDCW8      080BBDCE   /EJ PN      N1000R$  000000000003200000000000340000000000032000000000003300000000000340000000000000000000000000000004000000000000005000000000000000168000000000000245802013111800000010000000000000BRBBDCACNPR8592
012013090382BBDCW9      080BBDCE   /EJ PN      N1000R$  000000000017600000000001780000000000175000000000017600000000001780000000000000000000000000000006000000000000012000000000000002118000000000000289802013111800000010000000000000BRBBDCACNPR8605
012013090312BBFI11B     010FII BB PROGRCI  ER  MB   R$  000000043000000000004300000000000426500000000042883300000004265000000000426500000000047500000003000000000000000003000000000001286500000000000000009999123100000010000000000000BRBBFICTF006198
012013090312BBPO11      010FII BB PRGIICI  ER       R$  000000001109900000000111100000000011001000000001101700000000110500000000011003000000001105000131000000000000015855000000000174680877000000000000009999123100000010000000000000BRBBPOCTF003110
012013090312BBRC11      010FII BB CORP CI  ER       R$  000000000900000000000092300000000008940000000000898200000000089400000000008940000000000920000012000000000000001032000000000009270270000000000000009999123100000010000000000000BRBBRCCTF004124
012013090302BBRK3       010BR BROKERS  ON      NM   R$  000000000053700000000005430000000000532000000000053800000000005430000000000541000000000054301615000000000000442000000000000238271700000000000000009999123100000010000000000000BRBBRKACNOR4108
012013090396BBRK3F      020BR BROKERS  ON      NM   R$  000000000053000000000005400000000000506000000000052200000000005310000000000531000000000060600009000000000000000243000000000000126890000000000000009999123100000010000000000000BRBBRKACNOR4108
012013090362BBRK3T      030BR BROKERS  ON      NM062R$  000000000054200000000005430000000000542000000000054200000000005430000000000000000000000000000002000000000000005600000000000003040640000000000000009999123100000010000000000000BRBBRKACNOR4108
012013090378BBRKI55     070BBRKE       ON      NM000R$  000000000000600000000000060000000000006000000000000600000000000060000000000000000000000000000001000000000000070000000000000000420000000000000055002013091600000010000000000000BRBBRKACNOR4108
012013090302BBSE3       010BBSEGURIDADEON      NM   R$  000000000190500000000019300000000001900000000000191900000000019190000000001919000000000192009359000000000005987400000000011491560100000000000000009999123100000010000000000000BRBBSEACNOR5101
012013090396BBSE3F      020BBSEGURIDADEON      NM   R$  000000000190000000000019290000000001886000000000191900000000019190000000001916000000000191902205000000000000073806000000000141672464000000000000009999123100000010000000000000BRBBSEACNOR5101
012013090302BBTG11      010BTG PACTUAL UNT          R$  000000000278100000000027960000000002687000000000274000000000027620000000002750000000000276201248000000000000293200000000000803433800000000000000009999123100000010000000000000BRBBTGUNT007105
012013090396BBTG11F     020BTG PACTUAL UNT          R$  000000000299800000000029980000000002662000000000272000000000027430000000002688000000000280000009000000000000000299000000000000813550000000000000009999123100000010000000000000BRBBTGUNT007105
012013090312BBVJ11      010FII C JARDIMCI  ER       R$  000000000749900000000075000000000007327000000000741600000000073860000000007385000000000738600025000000000000001095000000000008121423000000000000009999123100000010000000000000BRBBVJCTF001133
012013090312BCFF11B     010FII BC FFII CI      MB   R$  000000000895000000000090750000000008850000000000894900000000088890000000008855000000000890000072000000000000003921000000000035089513000000000000009999123100000010000000000000BRBCFFCTF000141
012013090302BEEF3       010MINERVA     ON      NM   R$  000000000108200000000011140000000001082000000000110100000000011110000000001096000000000111103772000000000001470600000000001619901900000000000000009999123100000010000000000000BRBEEFACNOR6104
012013090396BEEF3F      020MINERVA     ON      NM   R$  000000000109000000000011100000000001016000000000108100000000010940000000001090000000000111500021000000000000000482000000000000521617000000000000009999123100000010000000000000BRBEEFACNOR6104
012013090362BEEF3T      030MINERVA     ON      NM030R$  000000000111700000000011180000000001117000000000111700000000011180000000000000000000000000000002000000000000003000000000000003353643000000000000009999123100000010000000000000BRBEEFACNOR6104
012013090302BEES3       010BANESTES    ON  EJ       R$  000000000004800000000000500000000000047000000000004800000000000490000000000048000000000004900029000000000000117000000000000005702700000000000000009999123100000010000000000000BRBEESACNOR9244
012013090302BEES4       010BANESTES    PN  EJ       R$  000000000004400000000000450000000000044000000000004400000000000450000000000044000000000004700005000000000000031000000000000001365000000000000000009999123100000010000000000000BRBEESACNPR6169
012013090302BEMA3       010BEMATECH    ON      NM   R$  000000000070100000000007290000000000697000000000070900000000007270000000000721000000000072700335000000000000097700000000000069333800000000000000009999123100000010000000000000BRBEMAACNOR0114
012013090396BEMA3F      020BEMATECH    ON      NM   R$  000000000070300000000007350000000000703000000000072400000000007350000000000700000000000079400002000000000000000060000000000000043460000000000000009999123100000010000000000000BRBEMAACNOR0114
012013090302BGIP4       010BANESE      PN           R$  000000000469800000000046980000000004698000000000469800000000046980000000004201000000000469800002000000000000000200000000000000939600000000000000009999123100000010000000000000BRBGIPACNPR8179
012013090396BGIP4F      020BANESE      PN           R$  000000000480000000000048000000000004800000000000480000000000048000000000004355000000000485000002000000000000000066000000000000316800000000000000009999123100000010000000000000BRBGIPACNPR8179
012013090302BHGR3       010BHG         ON      NM   R$  000000000138300000000014610000000001375000000000140200000000014400000000001440000000000144500201000000000000179200000000000251376800000000000000009999123100000010000000000000BRBHGRACNOR9101
012013090396BHGR3F      020BHG         ON      NM   R$  000000000150000000000015010000000001378000000000144400000000013780000000001378000000000157800006000000000000000151000000000000218150000000000000009999123100000010000000000000BRBHGRACNOR9101
012013090396BICB3F      020BICBANCO    ON      N1   R$  000000000033600000000003360000000000336000000000033600000000003360000000000336000000000057600001000000000000000046000000000000015456000000000000009999123100000010000000000000BRBICBACNOR0131
012013090302BICB4       010BICBANCO    PN      N1   R$  000000000041700000000004210000000000415000000000042000000000004200000000000417000000000041800050000000000000056800000000000023873300000000000000009999123100000010000000000000BRBICBACNPR7131
012013090396BICB4F      020BICBANCO    PN      N1   R$  000000000041800000000004200000000000418000000000041900000000004200000000000411000000000042000003000000000000000024000000000000010060000000000000009999123100000010000000000000BRBICBACNPR7131
012013090302BIOM3       010BIOMM       ON           R$  000000000083600000000008360000000000836000000000083600000000008360000000000835000000000090000001000000000000001000000000000000836000000000000000009999123100000010000000000000BRBIOMACNOR2101
012013090302BISA3       010BROOKFIELD  ON      NM   R$  000000000018200000000001890000000000181000000000018600000000001890000000000188000000000018904927000000000006424200000000001195474100000000000000009999123100000010000000000000BRBISAACNOR8109
012013090396BISA3F      020BROOKFIELD  ON      NM   R$  000000000018300000000001870000000000167000000000018300000000001870000000000171000000000018700054000000000000001862000000000000342302000000000000009999123100000010000000000000BRBISAACNOR8109
012013090312BJRC11      010FII JS RECIMCI  ER       R$  000000008600000000000860000000000085200000000008582600000000856000000000085500000000009500000003000000000000000219000000000018796000000000000000009999123100000010000000000000BRBJRCCTF007110
012013090302BMEB4       010MERC BRASIL PN           R$  000000000110000000000011000000000001100000000000110000000000011000000000000000000000000113500001000000000000000100000000000000110000000000000000009999123100000010000000000000BRBMEBACNPR5191
012013090302BMKS3       010BIC MONARK  ON           R$  000000003200000000000320060000000032000000000003200400000000320060000000031700000000003400000004000000000000000018000000000000576072000000000000009999123100000010000000000000BRBMKSACNOR9155
012013090312BMLC11B     010FII BMBRC LCCI      MB   R$  000000001131000000000113990000000011125000000001129100000000113490000000011180000000001135000008000000000000001353000000000015277595000000000000009999123100000010000000000000BRBMLCCTF004118
012013090302BMTO4       010BRASMOTOR   PN           R$  000000000008500000000000870000000000083000000000008400000000000870000000000084000000000008700005000000000000018000000000000001513000000000000000009999123100000010000000000000BRBMTOACNPR6065
012013090302BOBR4       010BOMBRIL     PN           R$  000000000065500000000006690000000000655000000000066700000000006690000000000660000000000066900005000000000000003100000000000002068300000000000000009999123100000010000000000000BRBOBRACNPR3127
012013090396BOBR4F      020BOMBRIL     PN           R$  000000000060000000000006000000000000600000000000060000000000006000000000000000000000000067900001000000000000000005000000000000003000000000000000009999123100000010000000000000BRBOBRACNPR3127
012013090314BOVA11      010ISHARES BOVACI           R$  000000000504000000000050860000000005027000000000505800000000050470000000005040000000000504712927000000000002152960000000010890483280000000000000009999123100000010000000000000BRBOVACTF003101
012013090396BOVA11F     020ISHARES BOVACI           R$  000000000503000000000050940000000005001000000000503900000000050010000000005001000000000510800011000000000000000029000000000000146156000000000000009999123100000010000000000000BRBOVACTF003101
012013090312BPFF11      010FII ABSOLUTOCI  ER       R$  000000000845100000000084510000000008350000000000840800000000083770000000008377000000000844600017000000000000001915000000000016102747000000000000009999123100000010000000000000BRBPFFCTF002105
012013090302BPHA3       010BR PHARMA   ON      NM   R$  000000000082300000000008380000000000806000000000082300000000008370000000000837000000000083802331000000000001065200000000000876892500000000000000009999123100000010000000000000BRBPHAACNOR6102
012013090396BPHA3F      020BR PHARMA   ON      NM   R$  000000000081500000000008390000000000806000000000082000000000008300000000000806000000000083900016000000000000000642000000000000526705000000000000009999123100000010000000000000BRBPHAACNOR6102
012013090362BPHA3T      030BR PHARMA   ON      NM016R$  000000000083300000000008340000000000833000000000083300000000008340000000000000000000000000000006000000000000014600000000000012171013000000000000009999123100000010000000000000BRBPHAACNOR6102
012013090302BPNM4       010PANAMERICANOPN      N1   R$  000000000052500000000005340000000000513000000000051900000000005150000000000515000000000051800218000000000000123200000000000063945500000000000000009999123100000010000000000000BRBPNMACNPR6111
012013090396BPNM4F      020PANAMERICANOPN      N1   R$  000000000056800000000005680000000000513000000000053700000000005130000000000513000000000051900005000000000000000135000000000000072569000000000000009999123100000010000000000000BRBPNMACNPR6111
012013090302BRAP3       010BRADESPAR   ON      N1   R$  000000000207700000000020770000000002042000000000207300000000020740000000002051000000000207000009000000000000001700000000000003524400000000000000009999123100000010000000000000BRBRAPACNOR5124
012013090396BRAP3F      020BRADESPAR   ON      N1   R$  000000000203000000000020740000000002030000000000203100000000020740000000002049000000000207400003000000000000000100000000000000203168000000000000009999123100000010000000000000BRBRAPACNOR5124
012013090302BRAP4       010BRADESPAR   PN      N1   R$  000000000255200000000025690000000002526000000000254700000000025600000000002560000000000256105842000000000001096000000000002793057600000000000000009999123100000010000000000000BRBRAPACNPR2124
012013090396BRAP4F      020BRADESPAR   PN      N1   R$  000000000252500000000025740000000002516000000000254000000000025480000000002520000000000257500063000000000000002193000000000005571150000000000000009999123100000010000000000000BRBRAPACNPR2124
012013090314BRAX11      010ISHARES BRAXCI           R$  000000000407000000000040700000000004015000000000402800000000040150000000000000000000000000000155000000000000006360000000000025622260000000000000009999123100000010000000000000BRBRAXCTF002100
012013090312BRCR11      010FII BC FUND CI           R$  000000001252500000000126500000000012450000000001250800000000126500000000012550000000001265000414000000000000023046000000000288266429000000000000009999123100000010000000000000BRBRCRCTF000132
012013090302BRFS3       010BRF SA      ON      NM   R$  000000000552100000000055940000000005429000000000546800000000054360000000005431000000000543607401000000000001959600000000010715328900000000000000009999123100000010000000000000BRBRFSACNOR8110
012013090396BRFS3F      020BRF SA      ON      NM   R$  000000000554600000000055920000000005421000000000548300000000054790000000005400000000000547900137000000000000003601000000000019745408000000000000009999123100000010000000000000BRBRFSACNOR8110
012013090362BRFS3T      030BRF SA      ON      NM016R$  000000000550800000000055090000000005458000000000546500000000054590000000000000000000000000000004000000000000003600000000000019676396000000000000009999123100000010000000000000BRBRFSACNOR8110
012013090362BRFS3T      030BRF SA      ON      NM062R$  000000000553900000000055400000000005539000000000553900000000055400000000000000000000000000000002000000000000001000000000000005539014000000000000009999123100000010000000000000BRBRFSACNOR8110
012013090362BRFS3T      030BRF SA      ON      NM090R$  000000000555600000000055570000000005556000000000555600000000055570000000000000000000000000000002000000000000001000000000000005556078000000000000009999123100000010000000000000BRBRFSACNOR8110
012013090378BRFSJ58     070BRFS        ON      NM000R$  000000000008700000000001250000000000087000000000010700000000001250000000000000000000000012500007000000000000000900000000000000096600000000000580002013102100000010000000000000BRBRFSACNOR8110
012013090302BRIN3       010BR INSURANCEON      NM   R$  000000000193800000000019770000000001876000000000190300000000018990000000001895000000000189902390000000000001011400000000001925449000000000000000009999123100000010000000000000BRBRINACNOR3106
012013090396BRIN3F      020BR INSURANCEON      NM   R$  000000000194500000000019970000000001860000000000191500000000018600000000001815000000000186000018000000000000000481000000000000921170000000000000009999123100000010000000000000BRBRINACNOR3106
012013090302BRKM3       010BRASKEM     ON      N1   R$  000000000120300000000012050000000001202000000000120400000000012030000000001201000000000124900010000000000000003500000000000004214100000000000000009999123100000010000000000000BRBRKMACNOR1110
012013090396BRKM3F      020BRASKEM     ON      N1   R$  000000000120500000000012050000000001205000000000120500000000012050000000001176000000000120300001000000000000000003000000000000003615000000000000009999123100000010000000000000BRBRKMACNOR1110
012013090302BRKM5       010BRASKEM     PNA     N1   R$  000000000180000000000018110000000001776000000000179000000000017940000000001782000000000179404375000000000000982000000000001758542200000000000000009999123100000010000000000000BRBRKMACNPA4110
012013090396BRKM5F      020BRASKEM     PNA     N1   R$  000000000171100000000018160000000001711000000000179000000000017710000000001772000000000179600064000000000000001740000000000003114719000000000000009999123100000010000000000000BRBRKMACNPA4110
012013090362BRKM5T      030BRASKEM     PNA     N1062R$  000000000181200000000018130000000001812000000000181200000000018130000000000000000000000000000002000000000000000600000000000001087526000000000000009999123100000010000000000000BRBRKMACNPA4110
012013090302BRML3       010BR MALLS PARON      NM   R$  000000000186700000000018750000000001848000000000186300000000018590000000001853000000000185908640000000000003016800000000005620795600000000000000009999123100000010000000000000BRBRMLACNOR9105
012013090396BRML3F      020BR MALLS PARON      NM   R$  000000000185100000000018720000000001849000000000186100000000018590000000001862000000000186600143000000000000004882000000000009085635000000000000009999123100000010000000000000BRBRMLACNOR9105
012013090362BRML3T      030BR MALLS PARON      NM030R$  000000000188000000000018810000000001880000000000188000000000018810000000000000000000000000000002000000000000001000000000000001880442000000000000009999123100000010000000000000BRBRMLACNOR9105
012013090378BRMLJ20     070BRML        ON      NM000R$  000000000002600000000000260000000000026000000000002600000000000260000000000000000000000000000002000000000000087300000000000002269800000000000200002013102100000010000000000000BRBRMLACNOR9105
012013090302BRPR3       010BR PROPERT  ON      NM   R$  000000000186100000000018680000000001824000000000183500000000018300000000001830000000000183105556000000000001482700000000002721031800000000000000009999123100000010000000000000BRBRPRACNOR9112
012013090396BRPR3F      020BR PROPERT  ON      NM   R$  000000000186100000000018640000000001803000000000183200000000018320000000001811000000000185400052000000000000001255000000000002300241000000000000009999123100000010000000000000BRBRPRACNOR9112
012013090302BRSR6       010BANRISUL    PNB     N1   R$  000000000145800000000014650000000001421000000000144500000000014400000000001426000000000144002131000000000000598300000000000864720100000000000000009999123100000010000000000000BRBRSRACNPB4133
012013090396BRSR6F      020BANRISUL    PNB     N1   R$  000000000145000000000014790000000001420000000000143900000000014790000000001397000000000147900068000000000000002298000000000003307459000000000000009999123100000010000000000000BRBRSRACNPB4133
012013090362BRSR6T      030BANRISUL    PNB     N1030R$  000000000145600000000014570000000001456000000000145600000000014570000000000000000000000000000002000000000000000900000000000001310752000000000000009999123100000010000000000000BRBRSRACNPB4133
012013090302BSEV3       010BIOSEV      ON      NM   R$  000000000092500000000009450000000000910000000000093500000000009450000000000911000000000094500037000000000000013600000000000012726800000000000000009999123100000010000000000000BRBSEVACNOR3100
012013090302BTOW3       010B2W DIGITAL ON      NM   R$  000000000145500000000014900000000001413000000000146500000000014760000000001465000000000147602126000000000000584600000000000856817800000000000000009999123100000010000000000000BRBTOWACNOR8105
012013090396BTOW3F      020B2W DIGITAL ON      NM   R$  000000000142500000000014990000000001365000000000146200000000014410000000001441000000000146600052000000000000001563000000000002279877000000000000009999123100000010000000000000BRBTOWACNOR8105
012013090302BTTL4       010BATTISTELLA PN           R$  000000000010000000000001010000000000100000000000010000000000001010000000000100000000000010100007000000000000020900000000000002090100000000000000009999123100000010000000000000BRBTTLACNPR7105
012013090302BVMF3       010BMFBOVESPA  ON      NM   R$  000000000118000000000011960000000001168000000000118600000000011900000000001185000000000119025476000000000015776600000000018715681800000000000000009999123100000010000000000000BRBVMFACNOR3126
012013090396BVMF3F      020BMFBOVESPA  ON      NM   R$  000000000118000000000011960000000001170000000000118400000000011960000000001180000000000119600174000000000000004839000000000005732687000000000000009999123100000010000000000000BRBVMFACNOR3126
012013090362BVMF3T      030BMFBOVESPA  ON      NM030R$  000000000119900000000012000000000001189000000000118900000000011900000000000000000000000000000004000000000000303000000000000360482585000000000000009999123100000010000000000000BRBVMFACNOR3126
012013090378BVMFI10     070BVMF        ON      NM000R$  000000000020500000000002050000000000205000000000020500000000002050000000000160000000000000000001000000000000001000000000000000205000000000000098502013091600000010000000000000BRBVMFACNOR3125
012013090378BVMFI11     070BVMF  FM    ON      NM000R$  000000000010600000000001170000000000104000000000011100000000001160000000000000000000000011700171000000000000152000000000000017004200000000000108502013091600000010000000000000BRBVMFACNOR3125
012013090378BVMFI12     070BVMF  FM    ON      NM000R$  000000000002600000000000340000000000026000000000003000000000000320000000000027000000000003300100000000000000219300000000000006661500000000000118502013091600000010000000000000BRBVMFACNOR3125
012013090378BVMFI13     070BVMF  FM    ON      NM000R$  000000000000500000000000050000000000003000000000000400000000000040000000000004000000000000500082000000000000175200000000000000759700000000000128502013091600000010000000000000BRBVMFACNOR3125
012013090378BVMFI40     070BVMF        ON      NM000R$  000000000015400000000001560000000000154000000000015400000000001550000000000100000000000000000038000000000000035300000000000005458500000000000103502013091600000010000000000000BRBVMFACNOR3125
012013090378BVMFI41     070BVMF  FM    ON      NM000R$  000000000006000000000000730000000000060000000000006400000000000680000000000000000000000007200011000000000000029500000000000001899600000000000113502013091600000010000000000000BRBVMFACNOR3125
012013090378BVMFI42     070BVMF  FM    ON      NM000R$  000000000001100000000000120000000000010000000000001100000000000110000000000000000000000001200016000000000000049000000000000000556200000000000123502013091600000010000000000000BRBVMFACNOR3125
012013090378BVMFJ11     070BVMF  FM    ON      NM000R$  000000000012500000000001360000000000124000000000012800000000001300000000000124000000000000000047000000000000054100000000000006945300000000000108502013102100000010000000000000BRBVMFACNOR3125
012013090378BVMFJ12     070BVMF  FM    ON      NM000R$  000000000005600000000000610000000000054000000000005600000000000610000000000050000000000006500014000000000000036100000000000002033300000000000118502013102100000010000000000000BRBVMFACNOR3125
012013090378BVMFJ13     070BVMF  FM    ON      NM000R$  000000000001800000000000200000000000016000000000001800000000000180000000000016000000000001800037000000000000115400000000000002092500000000000128502013102100000010000000000000BRBVMFACNOR3125
012013090378BVMFJ14     070BVMF        ON      NM000R$  000000000000500000000000050000000000005000000000000500000000000050000000000002000000000000600004000000000000009000000000000000045000000000000138502013102100000010000000000000BRBVMFACNOR3125
012013090378BVMFJ15     070BVMF        ON      NM000R$  000000000000100000000000010000000000001000000000000100000000000010000000000001000000000000200001000000000000003000000000000000003000000000000148502013102100000010000000000000BRBVMFACNOR3125
012013090378BVMFJ41     070BVMF  FM    ON      NM000R$  000000000009200000000000920000000000089000000000009000000000000890000000000000000000000000000002000000000000007200000000000000651900000000000113502013102100000010000000000000BRBVMFACNOR3125
012013090378BVMFJ42     070BVMF  FM    ON      NM000R$  000000000003600000000000370000000000035000000000003500000000000350000000000000000000000123500007000000000000018200000000000000651400000000000123502013102100000010000000000000BRBVMFACNOR3125
012013090378BVMFJ51     070BVMFE       ON      NM000R$  000000000007400000000000740000000000074000000000007400000000000740000000000000000000000000000001000000000000006000000000000000444000000000000116002013102100000010000000000000BRBVMFACNOR3125
012013090378BVMFK14     070BVMF        ON      NM000R$  000000000001400000000000140000000000014000000000001400000000000140000000000005000000000000000001000000000000003000000000000000042000000000000138502013111800000010000000000000BRBVMFACNOR3125
012013090378BVMFK43     070BVMF        ON      NM000R$  000000000002000000000000200000000000019000000000001900000000000190000000000000000000000000000002000000000000006000000000000000117000000000000135002013111800000010000000000000BRBVMFACNOR3126
012013090378BVMFK44     070BVMF        ON      NM000R$  000000000000700000000000070000000000007000000000000700000000000070000000000000000000000000000001000000000000003000000000000000021000000000000145002013111800000010000000000000BRBVMFACNOR3126
012013090382BVMFM42     080BVMFE       ON      NM000R$  000000000009400000000000940000000000094000000000009400000000000940000000000000000000000000000001000000000000001800000000000000169200000000000125002014012000000010000000000000BRBVMFACNOR3126
012013090382BVMFU11     080BVMFE FM    ON      NM000R$  000000000000900000000000090000000000006000000000000600000000000070000000000006000000000000700043000000000000125000000000000000806500000000000108502013091600000010000000000000BRBVMFACNOR3125
012013090382BVMFU12     080BVMFE FM    ON      NM000R$  000000000002900000000000290000000000022000000000002700000000000220000000000021000000000003300027000000000000051200000000000001385600000000000118502013091600000010000000000000BRBVMFACNOR3125
012013090382BVMFU13     080BVMFE       ON      NM000R$  000000000010000000000001000000000000100000000000010000000000001000000000000000000000000000000001000000000000002000000000000000200000000000000128502013091600000010000000000000BRBVMFACNOR3125
012013090382BVMFU40     080BVMFE FM    ON      NM000R$  000000000000200000000000030000000000001000000000000200000000000020000000000000000000000000000023000000000000046800000000000000110800000000000103502013091600000010000000000000BRBVMFACNOR3125
012013090382BVMFU41     080BVMFE FM    ON      NM000R$  000000000001200000000000130000000000012000000000001200000000000120000000000000000000000000000009000000000000030300000000000000373600000000000113502013091600000010000000000000BRBVMFACNOR3125
012013090382BVMFV10     080BVMFE       ON      NM000R$  000000000000700000000000070000000000007000000000000700000000000070000000000000000000000000000001000000000000001800000000000000012600000000000098502013102100000010000000000000BRBVMFACNOR3125
012013090382BVMFV11     080BVMFE FM    ON      NM000R$  000000000001900000000000190000000000015000000000001700000000000150000000000000000000000000000016000000000000054400000000000000964600000000000108502013102100000010000000000000BRBVMFACNOR3125
012013090382BVMFV12     080BVMFE FM    ON      NM000R$  000000000004800000000000490000000000045000000000004700000000000460000000000000000000000004900006000000000000017700000000000000842500000000000118502013102100000010000000000000BRBVMFACNOR3125
012013090382BVMFV40     080BVMFE FM    ON      NM000R$  000000000001100000000000110000000000010000000000001000000000000100000000000000000000000000000004000000000000012000000000000000130200000000000103502013102100000010000000000000BRBVMFACNOR3125
012013090382BVMFV41     080BVMFE FM    ON      NM000R$  000000000002900000000000310000000000027000000000002900000000000270000000000000000000000008000010000000000000032500000000000000961700000000000113502013102100000010000000000000BRBVMFACNOR3125
012013090302CAMB4       010CAMBUCI     PN           R$  000000000018700000000001870000000000183000000000018600000000001860000000000184000000000018900013000000000000015300000000000002860600000000000000009999123100000010000000000000BRCAMBACNPR1117
012013090302CARD3       010CSU CARDSYSTON      NM   R$  000000000032500000000003290000000000319000000000032200000000003250000000000322000000000032500016000000000000009200000000000002971400000000000000009999123100000010000000000000BRCARDACNOR9105
012013090396CARD3F      020CSU CARDSYSTON      NM   R$  000000000032400000000003240000000000324000000000032400000000003240000000000314000000000032400001000000000000000005000000000000001620000000000000009999123100000010000000000000BRCARDACNOR9105
012013090396CBMA3F      020COBRASMA    ON           R$  000000000000600000000000060000000000006000000000000600000000000060000000000004000000000000600001000000000000000001000000000000000006000000000000009999123100000010000000000000BRCBMAACNOR4124
012013090302CBMA4       010COBRASMA    PN           R$  000000000000400000000000040000000000004000000000000400000000000040000000000004000000000000500001000000000000010000000000000000040000000000000000009999123100000010000000000000BRCBMAACNPR1124
012013090396CBMA4F      020COBRASMA    PN           R$  000000000000400000000000040000000000004000000000000400000000000040000000000003000000000000400002000000000000006800000000000000027200000000000000009999123100000010000000000000BRCBMAACNPR1124
012013090308CCHI3       010CHIARELLI   ON           R$  000000000002400000000000240000000000022000000000002200000000000230000000000023000000000002400027000000000000380000000000000008650000000000000000009999123100000010000000000000BRCCHIACNOR5123
012013090396CCHI3F      020CHIARELLI   ON           R$  000000000002300000000000230000000000022000000000002200000000000230000000000023000000000002600004000000000000013000000000000000290500000000000000009999123100000010000000000000BRCCHIACNOR5123
012013090308CCHI4       010CHIARELLI   PN           R$  000000000002000000000000200000000000020000000000002000000000000200000000000020000000000002100002000000000000020000000000000000400000000000000000009999123100000010000000000000BRCCHIACNPR2122
012013090302CCPR3       010CYRE COM-CCPON      NM   R$  000000000210000000000021010000000002100000000000210000000000021000000000002105000000000216000008000000000000203300000000000426930300000000000000009999123100000010000000000000BRCCPRACNOR9107
012013090396CCPR3F      020CYRE COM-CCPON      NM   R$  000000000208500000000020850000000002085000000000208500000000020850000000002011000000000224400001000000000000000094000000000000195990000000000000009999123100000010000000000000BRCCPRACNOR9107
012013090302CCRO3       010CCR SA      ON      NM   R$  000000000175000000000017510000000001711000000000172600000000017290000000001725000000000173008840000000000003987400000000006882911700000000000000009999123100000010000000000000BRCCROACNOR2122
012013090396CCRO3F      020CCR SA      ON      NM   R$  000000000173000000000017580000000001711000000000172700000000017130000000001720000000000175000176000000000000003428000000000005921874000000000000009999123100000010000000000000BRCCROACNOR2122
012013090362CCRO3T      030CCR SA      ON      NM020R$  000000000173900000000017400000000001739000000000173900000000017400000000000000000000000000000002000000000000001000000000000001739828000000000000009999123100000010000000000000BRCCROACNOR2122
012013090378CCROK15     070CCRO        ON      NM000R$  000000000026700000000002670000000000266000000000026600000000002660000000000000000000000000000002000000000000050000000000000013333500000000000150002013111800000010000000000000BRCCROACNOR2122
012013090302CCXC3       010CCX CARVAO  ON      NM   R$  000000000013900000000001500000000000138000000000014400000000001480000000000147000000000014801474000000000005189500000000000751452000000000000000009999123100000010000000000000BRCCXCACNOR5100
012013090396CCXC3F      020CCX CARVAO  ON      NM   R$  000000000013600000000001480000000000136000000000014400000000001460000000000145000000000014800013000000000000000536000000000000077205000000000000009999123100000010000000000000BRCCXCACNOR5100
012013090362CCXC3T      030CCX CARVAO  ON      NM016R$  000000000014500000000001490000000000145000000000014700000000001490000000000000000000000000000006000000000000850000000000000125474790000000000000009999123100000010000000000000BRCCXCACNOR5100
012013090302CEBR5       010CEB         PNA          R$  000000000169100000000018500000000001691000000000184000000000018500000000001691000000000185000007000000000000016100000000000029626000000000000000009999123100000010000000000000BRCEBRACNPA8113
012013090302CEBR6       010CEB         PNB          R$  000000000150200000000015020000000001502000000000150200000000015020000000001504000000000157900003000000000000000400000000000000600800000000000000009999123100000010000000000000BRCEBRACNPB6113
012013090302CEDO3       010CEDRO       ON      N1   R$  000000000097000000000009700000000000970000000000097000000000009700000000000970000000000101000003000000000000000800000000000000776000000000000000009999123100000010000000000000BRCEDOACNOR8094
012013090308CELP3       010CELPA       ON           R$  000000000006700000000000700000000000067000000000006900000000000700000000000062000000000007500003000000000000009600000000000000671100000000000000009999123100000010000000000000BRCELPACNOR8112
012013090312CEOC11B     010FII CEO CCP CI      MB   R$  000000000875000000000087500000000008600000000000873400000000087500000000008720000000000875000057000000000000004312000000000037661830000000000000009999123100000010000000000000BRCEOCCTF003109
012013090302CEPE5       010CELPE       PNA          R$  000000000170000000000018500000000001700000000000172100000000018500000000001850000000000200000004000000000000000700000000000001205000000000000000009999123100000010000000000000BRCEPEACNPA6151
012013090302CESP3       010CESP        ON      N1   R$  000000000172000000000017340000000001670000000000173200000000017340000000000001000000000173400005000000000000003900000000000006754800000000000000009999123100000010000000000000BRCESPACNOR3160
012013090302CESP6       010CESP        PNB     N1   R$  000000000216000000000021980000000002140000000000218100000000021900000000002186000000000219003700000000000001141300000000002489639100000000000000009999123100000010000000000000BRCESPACNPB4119
012013090396CESP6F      020CESP        PNB     N1   R$  000000000212000000000021950000000002120000000000217700000000021950000000002136000000000219500064000000000000001967000000000004283525000000000000009999123100000010000000000000BRCESPACNPB4119
012013090302CGAS3       010COMGAS      ON           R$  000000000500000000000050500000000004925000000000501500000000050500000000000000000000000520000014000000000000001800000000000009028400000000000000009999123100000010000000000000BRCGASACNOR0132
012013090302CGAS5       010COMGAS      PNA          R$  000000000534900000000056110000000005349000000000537100000000055170000000005475000000000551700144000000000000242200000000001300963600000000000000009999123100000010000000000000BRCGASACNPA3129
012013090396CGAS5F      020COMGAS      PNA          R$  000000000536100000000055990000000005361000000000544500000000055990000000005401000000000559900010000000000000000333000000000001813367000000000000009999123100000010000000000000BRCGASACNPA3129
012013090302CGRA4       010GRAZZIOTIN  PN           R$  000000000170500000000017100000000001687000000000169600000000017000000000001686000000000170000029000000000000004200000000000007123600000000000000009999123100000010000000000000BRCGRAACNPR9061
012013090396CGRA4F      020GRAZZIOTIN  PN           R$  000000000160100000000018000000000001601000000000165700000000017990000000001607000000000179900005000000000000000133000000000000220440000000000000009999123100000010000000000000BRCGRAACNPR9061
012013090302CIEL3       010CIELO       ON      NM   R$  000000000580500000000059190000000005751000000000580800000000057700000000005769000000000577007988000000000001894300000000011003339800000000000000009999123100000010000000000000BRCIELACNOR3111
012013090396CIEL3F      020CIELO       ON      NM   R$  000000000589900000000059130000000005743000000000583500000000058490000000005775000000000584900195000000000000005225000000000030488007000000000000009999123100000010000000000000BRCIELACNOR3111
012013090362CIEL3T      030CIELO       ON      NM090R$  000000000596800000000059690000000005968000000000596800000000059690000000000000000000000000000002000000000000000207000000000001235505000000000000009999123100000010000000000000BRCIELACNOR3111
012013090382CIELU56     080CIELE       ON      NM000R$  000000000002100000000000210000000000021000000000002100000000000210000000000000000000000000000003000000000000015000000000000000315000000000000560002013091600000010000000000000BRCIELACNOR3111
012013090302CLSC4       010CELESC      PN      N2   R$  000000000177500000000017760000000001756000000000176300000000017560000000001756000000000176100015000000000000011500000000000020284300000000000000009999123100000010000000000000BRCLSCACNPR3107
012013090396CLSC4F      020CELESC      PN      N2   R$  000000000177000000000017700000000001770000000000177000000000017700000000001652000000000190000001000000000000000035000000000000061950000000000000009999123100000010000000000000BRCLSCACNPR3107
012013090302CMCS34      010COMCAST     DRN          R$  000000001029700000000102970000000010297000000001029700000000102970000000008800000000001080000001000000000000000100000000000001029700000000000000009999123100000010000000000000BRCMCSBDR008106
012013090358CMGR3       010CEMAT       ON           R$  000000000045000000000004500000000000440000000000044300000000004400000000000401000000000048500005000000000000000600000000000000266100000000000000009999123100000010000000000000BRCMGRACNOR7114
012013090302CMIG3       010CEMIG       ON      N1   R$  000000000186000000000018950000000001820000000000184800000000018280000000001828000000000184000557000000000000122700000000000226778900000000000000009999123100000010000000000000BRCMIGACNOR6208
012013090396CMIG3F      020CEMIG       ON      N1   R$  000000000190000000000019490000000001820000000000186100000000018230000000001823000000000187600055000000000000001204000000000002241119000000000000009999123100000010000000000000BRCMIGACNOR6208
012013090362CMIG3T      030CEMIG       ON      N1183R$  000000000192700000000019280000000001927000000000192700000000019280000000000000000000000000000004000000000000001353000000000002607497000000000000009999123100000010000000000000BRCMIGACNOR6208
012013090302CMIG4       010CEMIG       PN      N1   R$  000000000189500000000019200000000001857000000000188000000000018620000000001862000000000187208536000000000003094100000000005817964600000000000000009999123100000010000000000000BRCMIGACNPR3208
012013090396CMIG4F      020CEMIG       PN      N1   R$  000000000190000000000019290000000001858000000000188800000000018630000000001863000000000188300381000000000000010713000000000020228783000000000000009999123100000010000000000000BRCMIGACNPR3208
012013090362CMIG4T      030CEMIG       PN      N1016R$  000000000189600000000018980000000001896000000000189700000000018980000000000000000000000000000004000000000000003000000000000005692207000000000000009999123100000010000000000000BRCMIGACNPR3208
012013090362CMIG4T      030CEMIG       PN      N1030R$  000000000192300000000019240000000001874000000000191500000000018750000000000000000000000000000006000000000000010600000000000020307878000000000000009999123100000010000000000000BRCMIGACNPR3208
012013090362CMIG4T      030CEMIG       PN      N1062R$  000000000193600000000019370000000001936000000000193600000000019370000000000000000000000000000002000000000000010000000000000019367400000000000000009999123100000010000000000000BRCMIGACNPR3208
012013090378CMIGJ49     070CMIG        PN      N1000R$  000000000006500000000000650000000000065000000000006500000000000650000000000012000000000000000001000000000000000300000000000000019500000000000195002013102100000010000000000000BRCMIGACNPR3208
012013090312CNES11B     010FII CENESP  CI      MB   R$  000000001258000000000125850000000012405000000001247500000000124050000000012401000000001258500004000000000000000117000000000001459645000000000000009999123100000010000000000000BRCNESCTF001125
012013090302COCA34      010COCA COLA   DRN          R$  000000000908500000000091200000000009085000000000910200000000091200000000008838000000000919500002000000000000000200000000000001820500000000000000009999123100000010000000000000BRCOCABDR002108
012013090302COCE3       010COELCE      ON           R$  000000000414000000000042500000000004140000000000421300000000042500000000004120000000000425000003000000000000000300000000000001264000000000000000009999123100000010000000000000BRCOCEACNOR0132
012013090302COCE5       010COELCE      PNA          R$  000000000407300000000041260000000004062000000000409500000000041000000000004074000000000410000263000000000000048000000000000196585500000000000000009999123100000010000000000000BRCOCEACNPA3133
012013090396COCE5F      020COELCE      PNA          R$  000000000411900000000041330000000004071000000000410400000000040850000000004003000000000408500017000000000000000349000000000001432301000000000000009999123100000010000000000000BRCOCEACNPA3133
012013090302CPFE3       010CPFL ENERGIAON  ED  NM   R$  000000000197900000000020100000000001941000000000196800000000019500000000001949000000000195004777000000000000949500000000001869133500000000000000009999123100000010000000000000BRCPFEACNOR0122
012013090396CPFE3F      020CPFL ENERGIAON  ED  NM   R$  000000000196500000000020070000000001920000000000198200000000019200000000001913000000000201000125000000000000003069000000000006083139000000000000009999123100000010000000000000BRCPFEACNOR0122
012013090302CPLE3       010COPEL       ON      N1   R$  000000000209900000000021140000000002090000000000209900000000021140000000002090000000000211400032000000000000007500000000000015742600000000000000009999123100000010000000000000BRCPLEACNOR8128
012013090396CPLE3F      020COPEL       ON      N1   R$  000000000210000000000021000000000002099000000000209900000000020990000000002085000000000249900003000000000000000037000000000000077693000000000000009999123100000010000000000000BRCPLEACNOR8128
012013090302CPLE6       010COPEL       PNB     N1   R$  000000000293200000000029760000000002909000000000294000000000029430000000002930000000000294303919000000000000670600000000001972167200000000000000009999123100000010000000000000BRCPLEACNPB9125
012013090396CPLE6F      020COPEL       PNB     N1   R$  000000000290000000000029950000000002816000000000293900000000029000000000002865000000000301000056000000000000001599000000000004700634000000000000009999123100000010000000000000BRCPLEACNPB9125
012013090302CPRE3       010CPFL RENOVAVON      NM   R$  000000000116300000000011980000000001163000000000119000000000011930000000001163000000000119300016000000000000012000000000000014282300000000000000009999123100000010000000000000BRCPREACNOR5100
012013090396CPRE3F      020CPFL RENOVAVON      NM   R$  000000000119000000000011900000000001190000000000119000000000011900000000001081000000000120000001000000000000000093000000000000110670000000000000009999123100000010000000000000BRCPREACNOR5100
012013090362CPRE3T      030CPFL RENOVAVON      NM030R$  000000000119900000000012000000000001199000000000119900000000012000000000000000000000000000000002000000000000007993000000000009587763000000000000009999123100000010000000000000BRCPREACNOR5100
012013090302CRDE3       010CR2         ON      NM   R$  000000000041600000000004260000000000416000000000042500000000004260000000000417000000000042700008000000000000011100000000000004717700000000000000009999123100000010000000000000BRCRDEACNOR1108
012013090302CREM3       010CREMER      ON  EJ  NM   R$  000000000141700000000014190000000001403000000000141100000000014140000000001402000000000144200024000000000000006000000000000008470400000000000000009999123100000010000000000000BRCREMACNOR2167
012013090302CRIV3       010ALFA FINANC ON           R$  000000000050600000000005060000000000506000000000050600000000005060000000000461000000000050900001000000000000000200000000000000101200000000000000009999123100000010000000000000BRCRIVACNOR4190
012013090302CRIV4       010ALFA FINANC PN           R$  000000000045000000000004580000000000450000000000045500000000004580000000000443000000000045800007000000000000003900000000000001777400000000000000009999123100000010000000000000BRCRIVACNPR1190
012013090396CRIV4F      020ALFA FINANC PN           R$  000000000049000000000004900000000000490000000000049000000000004900000000000490000000000000000001000000000000000018000000000000008820000000000000009999123100000010000000000000BRCRIVACNPR1190
012013090302CRUZ3       010SOUZA CRUZ  ON           R$  000000000257900000000025800000000002486000000000250900000000024900000000002489000000000249505200000000000001627000000000004082252900000000000000009999123100000010000000000000BRCRUZACNOR0246
012013090396CRUZ3F      020SOUZA CRUZ  ON           R$  000000000259700000000025970000000002489000000000252600000000024950000000002490000000000252000112000000000000002645000000000006681981000000000000009999123100000010000000000000BRCRUZACNOR0246
012013090362CRUZ3T      030SOUZA CRUZ  ON        016R$  000000000250300000000025040000000002503000000000250300000000025040000000000000000000000000000002000000000000000400000000000001001478000000000000009999123100000010000000000000BRCRUZACNOR0246
012013090362CRUZ3T      030SOUZA CRUZ  ON        030R$  000000000257900000000025800000000002511000000000253100000000025120000000000000000000000000000006000000000000007000000000000017721255000000000000009999123100000010000000000000BRCRUZACNOR0246
012013090362CRUZ3T      030SOUZA CRUZ  ON        062R$  000000000253500000000025350000000002533000000000253300000000025340000000000000000000000000000003000000000000002500000000000006334943000000000000009999123100000010000000000000BRCRUZACNOR0246
012013090302CSAN3       010COSAN       ON      NM   R$  000000000420400000000042210000000004073000000000413200000000041020000000004097000000000410404538000000000001137300000000004698439400000000000000009999123100000010000000000000BRCSANACNOR6108
012013090396CSAN3F      020COSAN       ON      NM   R$  000000000428000000000042810000000004001000000000416400000000040010000000004001000000000417000067000000000000001763000000000007342731000000000000009999123100000010000000000000BRCSANACNOR6108
012013090362CSAN3T      030COSAN       ON      NM016R$  000000000409400000000040950000000004094000000000409400000000040950000000000000000000000000000002000000000000001000000000000004094625000000000000009999123100000010000000000000BRCSANACNOR6108
012013090362CSAN3T      030COSAN       ON      NM030R$  000000000411900000000041200000000004119000000000411900000000041200000000000000000000000000000002000000000000000200000000000000823808000000000000009999123100000010000000000000BRCSANACNOR6108
012013090382CSANV40     080CSANE       ON      NM000R$  000000000006500000000000650000000000065000000000006500000000000650000000000000000000000000000001000000000000002500000000000000162500000000000400002013102100000010000000000000BRCSANACNOR6108
012013090302CSCO34      010CISCO       DRN          R$  000000000564600000000056870000000005646000000000565600000000056870000000004900000000000610000002000000000000000400000000000002262500000000000000009999123100000010000000000000BRCSCOBDR004110
012013090302CSMG3       010COPASA      ON      NM   R$  000000000292100000000029590000000002894000000000294400000000029450000000002945000000000295002649000000000000776800000000002287505900000000000000009999123100000010000000000000BRCSMGACNOR5127
012013090396CSMG3F      020COPASA      ON      NM   R$  000000000290600000000029500000000002906000000000294400000000029400000000002888000000000317800019000000000000000474000000000001395613000000000000009999123100000010000000000000BRCSMGACNOR5127
012013090314CSMO11      010ISHARES CSMOCI           R$  000000000467200000000046720000000004597000000000466800000000045970000000003800000000000470000003000000000000001270000000000005929190000000000000009999123100000010000000000000BRCSMOCTF002100
012013090302CSNA3       010SID NACIONALON           R$  000000000088900000000008940000000000878000000000088600000000008850000000000885000000000088908902000000000004941200000000004379365100000000000000009999123100000010000000000000BRCSNAACNOR6243
012013090396CSNA3F      020SID NACIONALON           R$  000000000089000000000009030000000000879000000000088700000000008910000000000881000000000089000110000000000000003363000000000002983234000000000000009999123100000010000000000000BRCSNAACNOR6243
012013090362CSNA3T      030SID NACIONALON        051R$  000000000089300000000008940000000000893000000000089300000000008940000000000000000000000000000002000000000000002000000000000001787192000000000000009999123100000010000000000000BRCSNAACNOR6243
012013090362CSNA3T      030SID NACIONALON        062R$  000000000090100000000009020000000000901000000000090100000000009020000000000000000000000000000004000000000000004000000000000003607206000000000000009999123100000010000000000000BRCSNAACNOR6243
012013090362CSNA3T      030SID NACIONALON        090R$  000000000090300000000009040000000000903000000000090300000000009040000000000000000000000000000002000000000000003000000000000002709693000000000000009999123100000010000000000000BRCSNAACNOR6243
012013090362CSNA3T      030SID NACIONALON        121R$  000000000091000000000009110000000000910000000000091000000000009110000000000000000000000000000002000000000000001700000000000001548223000000000000009999123100000010000000000000BRCSNAACNOR6243
012013090378CSNAI10     070CSNA        ON        000R$  000000000000400000000000060000000000004000000000000400000000000060000000000000000000000003000007000000000000070000000000000000320000000000000100002013091600000010000000000000BRCSNAACNOR6243
012013090378CSNAI8      070CSNA        ON        000R$  000000000011200000000001210000000000109000000000011300000000001210000000000085000000000000000060000000000000079800000000000009092400000000000078002013091600000010000000000000BRCSNAACNOR6242
012013090378CSNAI80     070CSNA  FM    ON        000R$  000000000005200000000000520000000000052000000000005200000000000520000000000000000000000000000001000000000000001000000000000000052000000000000086002013091600000010000000000000BRCSNAACNOR6243
012013090378CSNAI84     070CSNA        ON        000R$  000000000005800000000000610000000000058000000000006000000000000610000000000011000000000000000005000000000000004400000000000000267200000000000084002013091600000010000000000000BRCSNAACNOR6243
012013090378CSNAI88     070CSNA  FM    ON        000R$  000000000003900000000000390000000000037000000000003800000000000390000000000000000000000000000003000000000000004000000000000000152000000000000088002013091600000010000000000000BRCSNAACNOR6243
012013090378CSNAI9      070CSNA  FM    ON        000R$  000000000003100000000000320000000000027000000000002900000000000280000000000027000000000003900092000000000000120200000000000003549700000000000090002013091600000010000000000000BRCSNAACNOR6243
012013090378CSNAI92     070CSNA  FM    ON        000R$  000000000002300000000000230000000000019000000000002100000000000220000000000000000000000000000013000000000000025700000000000000557700000000000092002013091600000010000000000000BRCSNAACNOR6243
012013090378CSNAI94     070CSNA  FM    ON        000R$  000000000001600000000000160000000000013000000000001500000000000150000000000000000000000002000008000000000000022500000000000000349500000000000094002013091600000010000000000000BRCSNAACNOR6243
012013090378CSNAI96     070CSNA        ON        000R$  000000000000800000000000080000000000008000000000000800000000000080000000000000000000000000000001000000000000000800000000000000006400000000000096002013091600000010000000000000BRCSNAACNOR6243
012013090378CSNAJ10     070CSNA        ON        000R$  000000000002300000000000230000000000023000000000002300000000000230000000000000000000000000000001000000000000000500000000000000011500000000000100002013102100000010000000000000BRCSNAACNOR6243
012013090378CSNAJ8      070CSNA        ON        000R$  000000000013600000000001430000000000130000000000013200000000001300000000000000000000000000000006000000000000007900000000000001042800000000000078002013102100000010000000000000BRCSNAACNOR6242
012013090378CSNAJ86     070CSNA  FM    ON        000R$  000000000009800000000000980000000000094000000000009600000000000940000000000000000000000000000004000000000000010500000000000001018000000000000084002013102100000010000000000000BRCSNAACNOR6242
012013090378CSNAJ9      070CSNA  FM    ON        000R$  000000000007000000000000700000000000065000000000006600000000000680000000000000000000000000000015000000000000044400000000000002931300000000000088002013102100000010000000000000BRCSNAACNOR6242
012013090378CSNAJ92     070CSNA  FM    ON        000R$  000000000004800000000000560000000000046000000000005000000000000490000000000000000000000000000024000000000000060200000000000003049300000000000092002013102100000010000000000000BRCSNAACNOR6243
012013090378CSNAJ94     070CSNA  FM    ON        000R$  000000000004300000000000490000000000040000000000004200000000000420000000000000000000000000000193000000000000229100000000000009766800000000000094002013102100000010000000000000BRCSNAACNOR6243
012013090378CSNAK40     070CSNA        ON        000R$  000000000002700000000000270000000000027000000000002700000000000270000000000000000000000000000002000000000000004000000000000000108000000000000104002013111800000010000000000000BRCSNAACNOR6243
012013090378CSNAK60     070CSNA        ON        000R$  000000000002300000000000230000000000023000000000002300000000000230000000000000000000000000000003000000000000008000000000000000184000000000000106002013111800000010000000000000BRCSNAACNOR6243
012013090382CSNAU7      080CSNAE       ON        000R$  000000000000100000000000010000000000001000000000000100000000000010000000000001000000000000900007000000000000006800000000000000006800000000000068002013091600000010000000000000BRCSNAACNOR6242
012013090382CSNAU80     080CSNAE FM    ON        000R$  000000000002300000000000230000000000023000000000002300000000000230000000000000000000000000000002000000000000002000000000000000046000000000000086002013091600000010000000000000BRCSNAACNOR6243
012013090382CSNAU84     080CSNAE FM    ON        000R$  000000000001500000000000150000000000014000000000001400000000000140000000000012000000000000000003000000000000006000000000000000086500000000000084002013091600000010000000000000BRCSNAACNOR6243
012013090382CSNAU88     080CSNAE FM    ON        000R$  000000000003300000000000330000000000033000000000003300000000000330000000000000000000000000000003000000000000008500000000000000280500000000000088002013091600000010000000000000BRCSNAACNOR6243
012013090382CSNAU9      080CSNAE FM    ON        000R$  000000000004000000000000430000000000036000000000004000000000000380000000000036000000000005000027000000000000035700000000000001459300000000000090002013091600000010000000000000BRCSNAACNOR6243
012013090382CSNAU94     080CSNAE       ON        000R$  000000000006800000000000680000000000068000000000006800000000000680000000000000000000000000000002000000000000002000000000000000136000000000000094002013091600000010000000000000BRCSNAACNOR6243
012013090382CSNAV6      080CSNAE       ON        000R$  000000000000600000000000110000000000006000000000000600000000000060000000000000000000000001000080000000000000008000000000000000049300000000000058002013102100000010000000000000BRCSNAACNOR6242
012013090382CSNAV7      080CSNAE       ON        000R$  000000000000800000000000080000000000006000000000000700000000000070000000000000000000000002100080000000000000016000000000000000119800000000000068002013102100000010000000000000BRCSNAACNOR6242
012013090382CSNAV8      080CSNAE       ON        000R$  000000000002700000000000280000000000025000000000002600000000000260000000000022000000000003500081000000000000008500000000000000221700000000000078002013102100000010000000000000BRCSNAACNOR6242
012013090382CSNAV86     080CSNAE FM    ON        000R$  000000000004500000000000450000000000045000000000004500000000000450000000000000000000000000000003000000000000008000000000000000360000000000000084002013102100000010000000000000BRCSNAACNOR6242
012013090302CTAX11      010CONTAX      UNT     N2   R$  000000000181400000000018500000000001800000000000183700000000018500000000001810000000000190000061000000000000060600000000000111329600000000000000009999123100000010000000000000BRCTAXCDAM19100
012013090396CTAX11F     020CONTAX      UNT     N2   R$  000000000178000000000018190000000001616000000000179500000000016160000000001615000000000180000013000000000000000311000000000000558319000000000000009999123100000010000000000000BRCTAXCDAM19100
012013090302CTAX3       010CONTAX      ON      N2   R$  000000000036100000000003750000000000345000000000035300000000003450000000000345000000000037900016000000000000004000000000000001415200000000000000009999123100000010000000000000BRCTAXACNOR3113
012013090302CTAX4       010CONTAX      PN      N2   R$  000000000036800000000003730000000000344000000000036000000000003700000000000370000000000037300053000000000000042900000000000015478100000000000000009999123100000010000000000000BRCTAXACNPR0114
012013090302CTIP3       010CETIP       ON      NM   R$  000000000233000000000023640000000002308000000000233500000000023640000000002356000000000236506933000000000001690000000000003947539400000000000000009999123100000010000000000000BRCTIPACNOR2119
012013090396CTIP3F      020CETIP       ON      NM   R$  000000000233500000000024000000000002297000000000233100000000023420000000002322000000000239800073000000000000002092000000000004878470000000000000009999123100000010000000000000BRCTIPACNOR2119
012013090378CTIPK55     070CTIPE       ON      NM000R$  000000000004800000000000480000000000048000000000004800000000000480000000000000000000000000000004000000000000500000000000000024000000000000000257502013111800000010000000000000BRCTIPACNOR2119
012013090382CTIPW51     080CTIPE       ON      NM000R$  000000000004800000000000480000000000048000000000004800000000000480000000000000000000000004900003000000000000500000000000000024000000000000000217502013111800000010000000000000BRCTIPACNOR2119
012013090302CTKA4       010KARSTEN     PN           R$  000000000008900000000000890000000000082000000000008300000000000840000000000084000000000008900004000000000000006500000000000000543000000000000000009999123100000010000000000000BRCTKAACNPR7041
012013090302CTNM4       010COTEMINAS   PN           R$  000000000022500000000002250000000000214000000000021900000000002240000000000216000000000022500025000000000000076900000000000016879700000000000000009999123100000010000000000000BRCTNMACNPR6128
012013090312CXTL11      010FII CX TRX  CI  ER       R$  000000007550000000000755000000000075003000000007541700000000755000000000075003000000007650000003000000000000000012000000000000905006000000000000009999123100000010000000000000BRCXTLCTF003122
012013090302CYRE3       010CYRELA REALTON      NM   R$  000000000159300000000016050000000001559000000000158400000000015850000000001578000000000158507537000000000002681200000000004249024400000000000000009999123100000010000000000000BRCYREACNOR7125
012013090396CYRE3F      020CYRELA REALTON      NM   R$  000000000159500000000016100000000001560000000000159000000000015600000000001560000000000161600055000000000000001881000000000002992640000000000000009999123100000010000000000000BRCYREACNOR7125
012013090378CYREI15     070CYRE        ON      NM000R$  000000000011500000000001150000000000092000000000009700000000000940000000000000000000000000000003000000000000008700000000000000851100000000000150002013091600000010000000000000BRCYREACNOR7125
012013090378CYREI16     070CYRE  FM    ON      NM000R$  000000000004100000000000430000000000026000000000003600000000000260000000000000000000000000000010000000000000035300000000000001298800000000000160002013091600000010000000000000BRCYREACNOR7125
012013090378CYREI17     070CYRE  FM    ON      NM000R$  000000000000900000000000090000000000006000000000000700000000000060000000000000000000000000000002000000000000007500000000000000057000000000000170002013091600000010000000000000BRCYREACNOR7125
012013090378CYREI45     070CYRE  FM    ON      NM000R$  000000000007300000000000750000000000054000000000006800000000000610000000000000000000000000000010000000000000030600000000000002103300000000000155002013091600000010000000000000BRCYREACNOR7125
012013090378CYREI46     070CYRE  FM    ON      NM000R$  000000000002000000000000220000000000020000000000002000000000000200000000000000000000000000000005000000000000015800000000000000324700000000000165002013091600000010000000000000BRCYREACNOR7125
012013090378CYREJ15     070CYRE        ON      NM000R$  000000000013500000000001350000000000133000000000013400000000001330000000000000000000000000000002000000000000007000000000000000938000000000000150002013102100000010000000000000BRCYREACNOR7125
012013090378CYREJ16     070CYRE  FM    ON      NM000R$  000000000008400000000000840000000000069000000000007600000000000730000000000000000000000000000005000000000000016500000000000001260000000000000160002013102100000010000000000000BRCYREACNOR7125
012013090378CYREJ17     070CYRE  FM    ON      NM000R$  000000000004000000000000460000000000034000000000003900000000000340000000000000000000000004600007000000000000180900000000000007090600000000000170002013102100000010000000000000BRCYREACNOR7125
012013090378CYREJ18     070CYRE        ON      NM000R$  000000000001800000000000180000000000018000000000001800000000000180000000000000000000000000000001000000000000002500000000000000045000000000000180002013102100000010000000000000BRCYREACNOR7125
012013090378CYREJ19     070CYRE        ON      NM000R$  000000000000700000000000070000000000007000000000000700000000000070000000000000000000000000000001000000000000004000000000000000028000000000000190002013102100000010000000000000BRCYREACNOR7125
012013090378CYREJ44     070CYRE        ON      NM000R$  000000000016900000000001690000000000169000000000016900000000001690000000000000000000000000000001000000000000003500000000000000591500000000000145002013102100000010000000000000BRCYREACNOR7125
012013090378CYREJ45     070CYRE  FM    ON      NM000R$  000000000011400000000001200000000000098000000000010600000000001010000000000000000000000000000007000000000000023000000000000002438500000000000155002013102100000010000000000000BRCYREACNOR7125
012013090378CYREJ46     070CYRE  FM    ON      NM000R$  000000000005900000000000600000000000048000000000005300000000000520000000000000000000000000000006000000000000018600000000000000991200000000000165002013102100000010000000000000BRCYREACNOR7125
012013090378CYREJ47     070CYRE  FM    ON      NM000R$  000000000002700000000000270000000000024000000000002500000000000240000000000000000000000000000004000000000000011500000000000000297000000000000175002013102100000010000000000000BRCYREACNOR7125
012013090378CYREJ55     070CYREE       ON      NM000R$  000000000013600000000001360000000000113000000000012300000000001130000000000000000000000000000005000000000000013200000000000001631600000000000152502013102100000010000000000000BRCYREACNOR7125
012013090378CYREJ56     070CYREE       ON      NM000R$  000000000007300000000000730000000000073000000000007300000000000730000000000000000000000000000001000000000000004000000000000000292000000000000162502013102100000010000000000000BRCYREACNOR7125
012013090378CYREJ57     070CYREE       ON      NM000R$  000000000003400000000000340000000000034000000000003400000000000340000000000000000000000000000001000000000000004000000000000000136000000000000172502013102100000010000000000000BRCYREACNOR7125
012013090378CYREK17     070CYRE        ON      NM000R$  000000000006700000000000670000000000067000000000006700000000000670000000000000000000000000000001000000000000003000000000000000201000000000000170002013111800000010000000000000BRCYREACNOR7125
012013090378CYREK18     070CYRE        ON      NM000R$  000000000003800000000000380000000000038000000000003800000000000380000000000000000000000004200001000000000000002500000000000000095000000000000180002013111800000010000000000000BRCYREACNOR7125
012013090378CYREK46     070CYRE        ON      NM000R$  000000000008900000000000890000000000089000000000008900000000000890000000000000000000000000000001000000000000003000000000000000267000000000000165002013111800000010000000000000BRCYREACNOR7125
012013090378CYREK47     070CYRE        ON      NM000R$  000000000005000000000000500000000000050000000000005000000000000500000000000000000000000000000001000000000000003000000000000000150000000000000175002013111800000010000000000000BRCYREACNOR7125
012013090378CYREK48     070CYRE        ON      NM000R$  000000000002700000000000270000000000027000000000002700000000000270000000000000000000000000000001000000000000003000000000000000081000000000000185002013111800000010000000000000BRCYREACNOR7125
012013090382CYREU16     080CYREE FM    ON      NM000R$  000000000004000000000000430000000000040000000000004100000000000410000000000000000000000000000007000000000000019000000000000000783500000000000160002013091600000010000000000000BRCYREACNOR7125
012013090382CYREU45     080CYREE FM    ON      NM000R$  000000000002200000000000230000000000022000000000002200000000000230000000000000000000000000000004000000000000012000000000000000272500000000000155002013091600000010000000000000BRCYREACNOR7125
012013090382CYREU46     080CYREE FM    ON      NM000R$  000000000007000000000000860000000000068000000000007300000000000860000000000000000000000000000004000000000000014000000000000001022000000000000165002013091600000010000000000000BRCYREACNOR7125
012013090382CYREV15     080CYREE FM    ON      NM000R$  000000000003600000000000520000000000036000000000005000000000000470000000000000000000000000000007000000000000173900000000000008766200000000000150002013102100000010000000000000BRCYREACNOR7125
012013090382CYREV16     080CYREE FM    ON      NM000R$  000000000007000000000000890000000000070000000000008700000000000860000000000000000000000000000011000000000000184200000000000016084500000000000160002013102100000010000000000000BRCYREACNOR7125
012013090382CYREV44     080CYREE       ON      NM000R$  000000000003500000000000350000000000034000000000003400000000000340000000000000000000000000000002000000000000007000000000000000241500000000000145002013102100000010000000000000BRCYREACNOR7125
012013090382CYREV45     080CYREE FM    ON      NM000R$  000000000005100000000000650000000000051000000000005600000000000650000000000000000000000000000003000000000000010500000000000000588000000000000155002013102100000010000000000000BRCYREACNOR7125
