00COTAHIST.2013BOVESPA 20131021                                                                                                                                                                                                                      
012013102102AAPL34      010APPLE       DRN          R$  000000001112500000000111250000000011125000000001112500000000111250000000011305000000001144500001000000000000000200000000000002225000000000000000009999123100000010000000000000BRAAPLBDR004105
012013102102ABCB4       010ABC BRASIL  PN      N2   R$  000000000136000000000013610000000001346000000000135400000000013610000000001360000000000136100351000000000000091300000000000123676600000000000000009999123100000010000000000000BRABCBACNPR4120
012013102196ABCB4F      020ABC BRASIL  PN      N2   R$  000000000134100000000013560000000001341000000000134200000000013420000000001345000000000135600004000000000000000159000000000000213444000000000000009999123100000010000000000000BRABCBACNPR4120
012013102112ABCP11      010FII ABC IMOBCI           R$  000000000099000000000009900000000000990000000000099000000000009900000000000985000000000099000002000000000000000180000000000000178200000000000000009999123100000010000000000000BRABCPCTF000216
012013102102ABRE11      010ABRIL EDUCA UNT     N2   R$  000000000325600000000032880000000003207000000000322900000000032170000000003217000000000322000466000000000000094900000000000306521800000000000000009999123100000010000000000000BRABRECDAM15102
012013102196ABRE11F     020ABRIL EDUCA UNT     N2   R$  000000000325500000000032550000000003219000000000322900000000032190000000003200000000000342600006000000000000000027000000000000087205000000000000009999123100000010000000000000BRABRECDAM15102
012013102162ABRE11T     030ABRIL EDUCA UNT     N2031R$  000000000325000000000032510000000003250000000000325000000000032510000000000000000000000000000002000000000000001000000000000003250397000000000000009999123100000010000000000000BRABRECDAM15102
012013102162ABRE11T     030ABRIL EDUCA UNT     N2060R$  000000000326400000000032650000000003264000000000326400000000032650000000000000000000000000000002000000000000000500000000000001632491000000000000009999123100000010000000000000BRABRECDAM15102
012013102102AEDU3       010ANHANGUERA  ON      NM   R$  000000000130100000000013330000000001291000000000130100000000013290000000001318000000000132904191000000000002864100000000003728626500000000000000009999123100000010000000000000BRAEDUACNOR9107
012013102196AEDU3F      020ANHANGUERA  ON      NM   R$  000000000129900000000013280000000001296000000000130600000000013280000000001280000000000134300019000000000000000433000000000000565767000000000000009999123100000010000000000000BRAEDUACNOR9107
012013102112AEFI11      010FII AESAPAR CI           R$  000000001209800000000120980000000012001000000001203700000000120200000000012020000000001209700010000000000000000487000000000005862108000000000000009999123100000010000000000000BRAEFICTF002122
012013102112AGCX11      010FII AG CAIXACI           R$  000000009400000000000945000000000094000000000009442700000000944950000000093801000000009449500012000000000000000063000000000005948922000000000000009999123100000010000000000000BRAGCXCTF003111
012013102102AGRO3       010BRASILAGRO  ON      NM   R$  000000000099900000000010030000000000990000000000099600000000010030000000001003000000000100400061000000000000008200000000000008174300000000000000009999123100000010000000000000BRAGROACNOR7102
012013102102ALLL3       010ALL AMER LATON      NM   R$  000000000083400000000008530000000000831000000000084300000000008500000000000846000000000085003615000000000001919900000000001620208500000000000000009999123100000010000000000000BRALLLACNOR6118
012013102196ALLL3F      020ALL AMER LATON      NM   R$  000000000084500000000008530000000000838000000000084600000000008410000000000841000000000085300034000000000000000774000000000000655224000000000000009999123100000010000000000000BRALLLACNOR6118
012013102162ALLL3T      030ALL AMER LATON      NM016R$  000000000084900000000008540000000000845000000000084900000000008540000000000000000000000000000018000000000000090000000000000076446089000000000000009999123100000010000000000000BRALLLACNOR6118
012013102162ALLL3T      030ALL AMER LATON      NM031R$  000000000084700000000008550000000000847000000000084800000000008550000000000000000000000000000004000000000000011500000000000009753774000000000000009999123100000010000000000000BRALLLACNOR6118
012013102112ALMI11B     010FII TORRE ALCI      MB   R$  000000031800000000003224790000000318000000000032005300000003200000000000320000000000032190000009000000000000000027000000000008641443000000000000009999123100000010000000000000BRALMICTF003206
012013102102ALPA3       010ALPARGATAS  ON      N1   R$  000000000130000000000013000000000001300000000000130000000000013000000000001300000000000134900001000000000000000100000000000000130000000000000000009999123100000010000000000000BRALPAACNOR0203
012013102196ALPA3F      020ALPARGATAS  ON      N1   R$  000000000129200000000012920000000001292000000000129200000000012920000000001129000000000130000002000000000000000011000000000000014212000000000000009999123100000010000000000000BRALPAACNOR0203
012013102102ALPA4       010ALPARGATAS  PN      N1   R$  000000000147700000000015000000000001468000000000149000000000015000000000001493000000000150000879000000000000312500000000000465798300000000000000009999123100000010000000000000BRALPAACNPR7203
012013102196ALPA4F      020ALPARGATAS  PN      N1   R$  000000000148000000000015000000000001480000000000149300000000015000000000001490000000000150000008000000000000000230000000000000343560000000000000009999123100000010000000000000BRALPAACNPR7203
012013102138ALPAJ14E    012ALPA        PN      N1000R$  000000000140000000000014000000000001400000000000140000000000014000000000000000000000000000000008000000000000052300000000000073220000000000000140002013102100000010000000000000BRALPAACNPR7203
012013102138ALPAJ53E    012ALPAE       PN      N1000R$  000000000137500000000013750000000001375000000000137500000000013750000000000000000000000000000002000000000000041500000000000057062500000000000137502013102100000010000000000000BRALPAACNPR7203
012013102102ALSC3       010ALIANSCE    ON      NM   R$  000000000217800000000021940000000002153000000000217500000000021800000000002180000000000218500851000000000000288900000000000628438600000000000000009999123100000010000000000000BRALSCACNOR0104
012013102196ALSC3F      020ALIANSCE    ON      NM   R$  000000000217600000000022040000000002160000000000217500000000022040000000002151000000000220500004000000000000000224000000000000487342000000000000009999123100000010000000000000BRALSCACNOR0104
012013102162ALSC3T      030ALIANSCE    ON      NM032R$  000000000219600000000021970000000002196000000000219600000000021970000000000000000000000000000002000000000000000100000000000000219630000000000000009999123100000010000000000000BRALSCACNOR0104
012013102138ALSCJ50E    012ALSC        ON      NM000R$  000000000205000000000020500000000002050000000000205000000000020500000000000000000000000000000002000000000000054000000000000110700000000000000205002013102100000010000000000000BRALSCACNOR0104
012013102178ALSCL52     070ALSC        ON      NM000R$  000000000004500000000000450000000000045000000000004500000000000450000000000000000000000000000002000000000000005000000000000000225000000000000225002013121600000010000000000000BRALSCACNOR0104
012013102102ALUP11      010ALUPAR      UNT     N2   R$  000000000171600000000017430000000001707000000000172600000000017300000000001720000000000173000288000000000000094300000000000162796500000000000000009999123100000010000000000000BRALUPCDAM15100
012013102196ALUP11F     020ALUPAR      UNT     N2   R$  000000000176900000000017690000000001711000000000172900000000017110000000001710000000000172000006000000000000000200000000000000345968000000000000009999123100000010000000000000BRALUPCDAM15100
012013102102AMAR3       010LOJAS MARISAON      NM   R$  000000000202600000000020260000000001985000000000200800000000020200000000002012000000000202001853000000000000236100000000000474134800000000000000009999123100000010000000000000BRAMARACNOR4109
012013102196AMAR3F      020LOJAS MARISAON      NM   R$  000000000201900000000020240000000002000000000000201600000000020180000000002005000000000201000006000000000000000185000000000000372966000000000000009999123100000010000000000000BRAMARACNOR4109
012013102162AMAR3T      030LOJAS MARISAON      NM016R$  000000000202000000000020210000000002020000000000202000000000020210000000000000000000000000000002000000000000005000000000000010100250000000000000009999123100000010000000000000BRAMARACNOR4109
012013102102AMBV3       010AMBEV       ON           R$  000000000861900000000086620000000008523000000000858400000000086270000000008573000000000862701163000000000000199100000000001709094300000000000000009999123100000010000000000000BRAMBVACNOR4154
012013102196AMBV3F      020AMBEV       ON           R$  000000000864000000000086970000000008500000000000861200000000086970000000008581000000000869700040000000000000000743000000000006400106000000000000009999123100000010000000000000BRAMBVACNOR4154
012013102162AMBV3T      030AMBEV       ON        091R$  000000000872500000000087260000000008725000000000872500000000087260000000000000000000000000000006000000000000006100000000000053225462000000000000009999123100000010000000000000BRAMBVACNOR4154
012013102102AMBV4       010AMBEV       PN           R$  000000000863400000000086740000000008527000000000859000000000086150000000008602000000000861505925000000000001244000000000010686240300000000000000009999123100000010000000000000BRAMBVACNPR1154
012013102196AMBV4F      020AMBEV       PN           R$  000000000860100000000086550000000008530000000000859500000000086190000000008590000000000861900146000000000000004014000000000034502688000000000000009999123100000010000000000000BRAMBVACNPR1154
012013102162AMBV4T      030AMBEV       PN        031R$  000000000866900000000086700000000008669000000000866900000000086700000000000000000000000000000002000000000000000200000000000001733866000000000000009999123100000010000000000000BRAMBVACNPR1154
012013102162AMBV4T      030AMBEV       PN        091R$  000000000881300000000088140000000008813000000000881300000000088140000000000000000000000000000002000000000000000700000000000006169229000000000000009999123100000010000000000000BRAMBVACNPR1154
012013102162AMBV4T      030AMBEV       PN        183R$  000000000904900000000090500000000009049000000000904900000000090500000000000000000000000000000002000000000000001000000000000009049196000000000000009999123100000010000000000000BRAMBVACNPR1154
012013102138AMBVJ65E    012AMBV        PN        000R$  000000000643500000000064350000000006435000000000643500000000064350000000000000000000000000000007000000000000450000000000002895750000000000000643502013102100000010000000000000BRAMBVACNPR1154
012013102138AMBVJ80E    012AMBV        PN        000R$  000000000793500000000079350000000007935000000000793500000000079350000000000000000000000000000005000000000000048000000000000380880000000000000793502013102100000010000000000000BRAMBVACNPR1154
012013102138AMBVJ82E    012AMBV        PN        000R$  000000000813500000000081350000000008135000000000813500000000081350000000000000000000000000000004000000000000188000000000001529380000000000000813502013102100000010000000000000BRAMBVACNPR1154
012013102138AMBVJ83E    012AMBV        PN        000R$  000000000823500000000082350000000008235000000000823500000000082350000000000000000000000000000002000000000000001700000000000013999500000000000823502013102100000010000000000000BRAMBVACNPR1154
012013102138AMBVJ84E    012AMBV        PN        000R$  000000000833500000000083350000000008335000000000833500000000083350000000000000000000000000000004000000000000014500000000000120857500000000000833502013102100000010000000000000BRAMBVACNPR1154
012013102138AMBVJ85E    012AMBV        PN        000R$  000000000843500000000084350000000008435000000000843500000000084350000000000000000000000000000006000000000000004400000000000037114000000000000843502013102100000010000000000000BRAMBVACNPR1154
012013102138AMBVJ86E    012AMBV        PN        000R$  000000000853500000000085350000000008535000000000853500000000085350000000000000000000000000000019000000000000203200000000001734312000000000000853502013102100000010000000000000BRAMBVACNPR1154
012013102178AMBVK85     070AMBV        PN        000R$  000000000020100000000002200000000000200000000000020200000000002000000000000000000000000000000004000000000000060200000000000012161900000000000850002013111800000010000000000000BRAMBVACNPR1154
012013102178AMBVK88     070AMBV        PN        000R$  000000000010100000000001020000000000052000000000008400000000000910000000000050000000000000000021000000000000018600000000000001572400000000000880002013111800000010000000000000BRAMBVACNPR1154
012013102178AMBVK90     070AMBV        PN        000R$  000000000009500000000000960000000000095000000000009500000000000960000000000000000000000000000002000000000000000300000000000000028600000000000883102013111800000010000000000000BRAMBVACNPR1154
012013102142AMBVV10E    013AMBVE       PN        000R$  000000001000000000000100000000000010000000000001000000000000100000000000000000000000000000000001000000000000035000000000000350000000000000001000002013102100000010000000000000BRAMBVACNPR1154
012013102142AMBVV12E    013AMBVE       PN        000R$  000000001200000000000120000000000012000000000001200000000000120000000000000000000000000000000001000000000000035000000000000420000000000000001200002013102100000010000000000000BRAMBVACNPR1154
012013102102AORE3       010ALL ORE     ON           R$  000000000009200000000001000000000000070000000000008600000000000900000000000083000000000009500086000000000000045700000000000003942400000000000000009999123100000010000000000000BRAOREACNOR2100
012013102196AORE3F      020ALL ORE     ON           R$  000000000009000000000000900000000000090000000000009000000000000900000000000071000000000008500001000000000000000010000000000000000900000000000000009999123100000010000000000000BRAOREACNOR2100
012013102102ARTR3       010ARTERIS     ON      NM   R$  000000000196900000000020100000000001965000000000198500000000019900000000001990000000000199200931000000000000248800000000000493972800000000000000009999123100000010000000000000BRARTRACNOR3101
012013102196ARTR3F      020ARTERIS     ON      NM   R$  000000000196700000000020100000000001966000000000197900000000019820000000001977000000000200000015000000000000000503000000000000995758000000000000009999123100000010000000000000BRARTRACNOR3101
012013102102ARZZ3       010AREZZO CO   ON      NM   R$  000000000332000000000034500000000003300000000000339200000000034300000000003422000000000343001442000000000000758300000000002572657000000000000000009999123100000010000000000000BRARZZACNOR3109
012013102196ARZZ3F      020AREZZO CO   ON      NM   R$  000000000331100000000034200000000003310000000000337100000000034180000000003300000000000344800010000000000000000465000000000001567864000000000000009999123100000010000000000000BRARZZACNOR3109
012013102102AUTM3       010AUTOMETAL   ON      NM   R$  000000000182900000000018410000000001816000000000183200000000018350000000001835000000000183900124000000000000051200000000000093815200000000000000009999123100000010000000000000BRAUTMACNOR8109
012013102196AUTM3F      020AUTOMETAL   ON      NM   R$  000000000183000000000018300000000001830000000000183000000000018300000000001790000000000190000001000000000000000033000000000000060390000000000000009999123100000010000000000000BRAUTMACNOR8109
012013102102AZEV4       010AZEVEDO     PN           R$  000000000013500000000001360000000000135000000000013500000000001350000000000135000000000015700006000000000000017800000000000002403100000000000000009999123100000010000000000000BRAZEVACNPR7113
012013102102BAHI3       010BAHEMA      ON           R$  000000000048100000000004810000000000481000000000048100000000004810000000000475000000000050500001000000000000001000000000000000481000000000000000009999123100000010000000000000BRBAHIACNOR1066
012013102102BAUH4       010EXCELSIOR   PN           R$  000000000094000000000010000000000000940000000000097900000000010000000000000902000000000106900004000000000000000500000000000000489800000000000000009999123100000010000000000000BRBAUHACNPR3108
012013102102BAZA3       010AMAZONIA    ON           R$  000000000003300000000000340000000000033000000000003300000000000330000000000033000000000003400003000000000000008000000000000000267000000000000000009999123100000010000000000000BRBAZAACNOR0163
012013102102BBAS3       010BRASIL      ON      NM   R$  000000000282500000000028400000000002798000000000281800000000028100000000002807000000000281012893000000000004809200000000013556886900000000000000009999123100000010000000000000BRBBASACNOR3239
012013102196BBAS3F      020BRASIL      ON      NM   R$  000000000282500000000028400000000002800000000000282300000000028100000000002806000000000281000277000000000000008848000000000024977321000000000000009999123100000010000000000000BRBBASACNOR3239
012013102162BBAS3T      030BRASIL      ON      NM031R$  000000000285100000000028520000000002851000000000285100000000028520000000000000000000000000000002000000000000007800000000000022244645000000000000009999123100000010000000000000BRBBASACNOR3239
012013102162BBAS3T      030BRASIL      ON      NM032R$  000000000284000000000028410000000002840000000000284000000000028410000000000000000000000000000002000000000000001000000000000002840262000000000000009999123100000010000000000000BRBBASACNOR3239
012013102162BBAS3T      030BRASIL      ON      NM035R$  000000000284100000000028420000000002841000000000284100000000028420000000000000000000000000000002000000000000000900000000000002557357000000000000009999123100000010000000000000BRBBASACNOR3239
012013102162BBAS3T      030BRASIL      ON      NM059R$  000000000285900000000028600000000002859000000000285900000000028600000000000000000000000000000002000000000000010000000000000028591676000000000000009999123100000010000000000000BRBBASACNOR3239
012013102162BBAS3T      030BRASIL      ON      NM060R$  000000000287100000000028720000000002871000000000287100000000028720000000000000000000000000000004000000000000050000000000000143552374000000000000009999123100000010000000000000BRBBASACNOR3239
012013102178BBASA26     070BBAS        ON      NM000R$  000000000040000000000004060000000000385000000000040000000000003850000000000000000000000000000017000000000000030000000000000012021500000000000249502014012000000010000000000000BRBBASACNOR3237
012013102178BBASA27     070BBAS        ON      NM000R$  000000000031400000000003140000000000314000000000031400000000003140000000000000000000000000000001000000000000000800000000000000251200000000000259502014012000000010000000000000BRBBASACNOR3237
012013102178BBASA28     070BBAS        ON      NM000R$  000000000017000000000001700000000000170000000000017000000000001700000000000000000000000000000001000000000000001000000000000000170000000000000280002014012000000010000000000000BRBBASACNOR3239
012013102178BBASA29     070BBAS        ON      NM000R$  000000000011800000000001180000000000118000000000011800000000001180000000000016000000000000000001000000000000001000000000000000118000000000000290002014012000000010000000000000BRBBASACNOR3239
012013102138BBASJ20E    012BBAS        ON      NM000R$  000000000189500000000018950000000001895000000000189500000000018950000000000000000000000000000001000000000000035900000000000068030500000000000189502013102100000010000000000000BRBBASACNOR3239
012013102138BBASJ21E    012BBAS        ON      NM000R$  000000000199500000000019950000000001995000000000199500000000019950000000000000000000000000000011000000000000209400000000000417753000000000000199502013102100000010000000000000BRBBASACNOR3239
012013102138BBASJ22E    012BBAS        ON      NM000R$  000000000209500000000020950000000002095000000000209500000000020950000000000000000000000000000023000000000000312100000000000653849500000000000209502013102100000010000000000000BRBBASACNOR3239
012013102138BBASJ23E    012BBAS        ON      NM000R$  000000000216100000000021610000000002161000000000216100000000021610000000000000000000000000000023000000000000255800000000000552783800000000000216102013102100000010000000000000BRBBASACNOR3239
012013102138BBASJ24E    012BBAS        ON      NM000R$  000000000227100000000022710000000002271000000000227100000000022710000000000000000000000000000062000000000000301100000000000683798100000000000227102013102100000010000000000000BRBBASACNOR3239
012013102138BBASJ25E    012BBAS        ON      NM000R$  000000000239500000000023950000000002395000000000239500000000023950000000000000000000000000000068000000000001062900000000002545645500000000000239502013102100000010000000000000BRBBASACNOR3239
012013102138BBASJ26E    012BBAS        ON      NM000R$  000000000246100000000024610000000002461000000000246100000000024610000000000000000000000000000081000000000000709100000000001745095100000000000246102013102100000010000000000000BRBBASACNOR3239
012013102138BBASJ27E    012BBAS        ON      NM000R$  000000000256100000000025610000000002561000000000256100000000025610000000000000000000000000000110000000000000601800000000001541209800000000000256102013102100000010000000000000BRBBASACNOR3239
012013102138BBASJ28E    012BBAS        ON      NM000R$  000000000269500000000026950000000002695000000000269500000000026950000000000000000000000000000077000000000000405400000000001092553000000000000269502013102100000010000000000000BRBBASACNOR3239
012013102138BBASJ29E    012BBAS        ON      NM000R$  000000000276100000000027610000000002761000000000276100000000027610000000000000000000000000000033000000000000151400000000000418015400000000000276102013102100000010000000000000BRBBASACNOR3239
012013102138BBASJ53E    012BBAS        ON      NM000R$  000000000221100000000022110000000002211000000000221100000000022110000000000000000000000000000001000000000000003800000000000008401800000000000221102013102100000010000000000000BRBBASACNOR3239
012013102138BBASJ55E    012BBAS        ON      NM000R$  000000000260000000000026000000000002600000000000260000000000026000000000000000000000000000000002000000000000063000000000000163800000000000000260002013102100000010000000000000BRBBASACNOR3239
012013102138BBASJ56E    012BBAS        ON      NM000R$  000000000251100000000025110000000002511000000000251100000000025110000000000000000000000000000022000000000000648900000000001629387900000000000251102013102100000010000000000000BRBBASACNOR3239
012013102138BBASJ65E    012BBAS        ON      NM000R$  000000000265000000000026500000000002650000000000265000000000026500000000000000000000000000000010000000000000247300000000000655345000000000000265002013102100000010000000000000BRBBASACNOR3239
012013102178BBASK24     070BBAS        ON      NM000R$  000000000052300000000005230000000000523000000000052300000000005230000000000000000000000000000001000000000000000500000000000000261500000000000229502013111800000010000000000000BRBBASACNOR3237
012013102178BBASK27     070BBAS        ON      NM000R$  000000000027600000000002840000000000255000000000027500000000002550000000000110000000000000000013000000000000021200000000000005851100000000000257102013111800000010000000000000BRBBASACNOR3236
012013102178BBASK28     070BBAS  FM    ON      NM000R$  000000000018700000000001980000000000166000000000018100000000001700000000000156000000000018200101000000000000133700000000000024201800000000000267102013111800000010000000000000BRBBASACNOR3236
012013102178BBASK29     070BBAS  FM    ON      NM000R$  000000000009100000000001020000000000079000000000009000000000000810000000000080000000000009600057000000000000093000000000000008427600000000000279502013111800000010000000000000BRBBASACNOR3237
012013102178BBASK30     070BBAS  FM    ON      NM000R$  000000000004300000000000470000000000034000000000004000000000000350000000000034000000000004100043000000000000079000000000000003182300000000000289502013111800000010000000000000BRBBASACNOR3237
012013102178BBASK31     070BBAS  FM    ON      NM000R$  000000000001500000000000190000000000012000000000001500000000000120000000000012000000000001500021000000000000044100000000000000688700000000000299502013111800000010000000000000BRBBASACNOR3237
012013102178BBASK32     070BBAS        ON      NM000R$  000000000000500000000000050000000000005000000000000500000000000050000000000003000000000001000001000000000000002000000000000000010000000000000320002013111800000010000000000000BRBBASACNOR3239
012013102178BBASK57     070BBAS        ON      NM000R$  000000000011300000000001130000000000113000000000011300000000001130000000000000000000000012000001000000000000006400000000000000723200000000000275002013111800000010000000000000BRBBASACNOR3239
012013102178BBASK58     070BBAS        ON      NM000R$  000000000006900000000000690000000000051000000000005700000000000510000000000000000000000009600011000000000000030400000000000001749500000000000285002013111800000010000000000000BRBBASACNOR3239
012013102178BBASL28     070BBAS  FM    ON      NM000R$  000000000020400000000002140000000000182000000000020100000000001870000000000034000000000000000066000000000000064700000000000013006900000000000269502013121600000010000000000000BRBBASACNOR3237
012013102178BBASL29     070BBAS  FM    ON      NM000R$  000000000015700000000001650000000000140000000000015300000000001420000000000034000000000000000035000000000000045800000000000007011800000000000276102013121600000010000000000000BRBBASACNOR3235
012013102178BBASL30     070BBAS  FM    ON      NM000R$  000000000004000000000000450000000000033000000000003700000000000330000000000032000000000003600164000000000000199400000000000007520600000000000300002013121600000010000000000000BRBBASACNOR3239
012013102178BBASL31     070BBAS  FM    ON      NM000R$  000000000002300000000000230000000000016000000000001900000000000160000000000010000000000000000006000000000000010900000000000000217800000000000310002013121600000010000000000000BRBBASACNOR3239
012013102178BBASL32     070BBAS        ON      NM000R$  000000000000900000000000090000000000009000000000000900000000000090000000000003000000000002500004000000000000012000000000000000108000000000000320002013121600000010000000000000BRBBASACNOR3239
012013102178BBASL65     070BBAS        ON      NM000R$  000000000002700000000000270000000000027000000000002700000000000270000000000000000000000000000001000000000000003000000000000000081000000000000305002013121600000010000000000000BRBBASACNOR3239
012013102178BBASL79     070BBAS  FM    ON      NM000R$  000000000007900000000000830000000000072000000000007700000000000720000000000000000000000010000015000000000000028300000000000002201700000000000290002013121600000010000000000000BRBBASACNOR3239
012013102182BBASO28     080BBASE       ON      NM000R$  000000000012300000000001230000000000123000000000012300000000001230000000000000000000000000000002000000000000006000000000000000738000000000000280002014031700000010000000000000BRBBASACNOR3239
012013102142BBASV60E    013BBASE       ON      NM000R$  000000000291100000000029110000000002911000000000291100000000029110000000000000000000000000000001000000000000175000000000000509425000000000000291102013102100000010000000000000BRBBASACNOR3239
012013102182BBASW25     080BBASE       ON      NM000R$  000000000000100000000000010000000000001000000000000100000000000010000000000000000000000000000001000000000000001000000000000000001000000000000237102013111800000010000000000000BRBBASACNOR3236
012013102182BBASW27     080BBASE FM    ON      NM000R$  000000000000800000000000080000000000008000000000000800000000000080000000000005000000000001500003000000000000010000000000000000080000000000000257102013111800000010000000000000BRBBASACNOR3236
012013102182BBASW28     080BBASE FM    ON      NM000R$  000000000001900000000000220000000000017000000000002000000000000220000000000018000000000002300009000000000000019300000000000000404900000000000267102013111800000010000000000000BRBBASACNOR3236
012013102182BBASW29     080BBASE FM    ON      NM000R$  000000000004800000000000580000000000048000000000005200000000000580000000000038000000000006100028000000000000046700000000000002441900000000000279502013111800000010000000000000BRBBASACNOR3237
012013102182BBASW30     080BBASE FM    ON      NM000R$  000000000009600000000001140000000000093000000000010200000000001100000000000000000000000000000086000000000000074300000000000007624400000000000289502013111800000010000000000000BRBBASACNOR3237
012013102182BBASW57     080BBASE       ON      NM000R$  000000000003400000000000340000000000032000000000003300000000000320000000000034000000000000000013000000000000049400000000000001660800000000000275002013111800000010000000000000BRBBASACNOR3239
012013102182BBASX26     080BBASE       ON      NM000R$  000000000001100000000000110000000000011000000000001100000000000110000000000000000000000000000002000000000000003700000000000000040700000000000246102013121600000010000000000000BRBBASACNOR3235
012013102182BBASX27     080BBASE FM    ON      NM000R$  000000000002300000000000270000000000023000000000002500000000000270000000000000000000000002700138000000000000218800000000000005480400000000000259502013121600000010000000000000BRBBASACNOR3237
012013102182BBASX28     080BBASE FM    ON      NM000R$  000000000004100000000000490000000000041000000000004400000000000460000000000035000000000000000015000000000000028800000000000001294400000000000269502013121600000010000000000000BRBBASACNOR3237
012013102182BBASX29     080BBASE FM    ON      NM000R$  000000000006400000000000690000000000063000000000006400000000000670000000000000000000000008000085000000000000157100000000000010176600000000000276102013121600000010000000000000BRBBASACNOR3235
012013102182BBASX60     080BBASE       ON      NM000R$  000000000010800000000001110000000000108000000000010800000000001100000000000000000000000000000011000000000000042600000000000004642400000000000286202013121600000010000000000000BRBBASACNOR3233
012013102182BBASX79     080BBASE FM    ON      NM000R$  000000000011600000000001280000000000113000000000012200000000001270000000000000000000000000000022000000000000039700000000000004847200000000000290002013121600000010000000000000BRBBASACNOR3239
012013102102BBDC3       010BRADESCO    ON      N1   R$  000000000370000000000037120000000003604000000000363900000000036220000000003621000000000363003963000000000000906900000000003301007500000000000000009999123100000010000000000000BRBBDCACNOR1607
012013102196BBDC3F      020BRADESCO    ON      N1   R$  000000000368700000000036930000000003599000000000364100000000036210000000003621000000000362300037000000000000001120000000000004077240000000000000009999123100000010000000000000BRBBDCACNOR1607
012013102102BBDC4       010BRADESCO    PN      N1   R$  000000000330700000000033270000000003218000000000325800000000032600000000003255000000000326018432000000000008097900000000026388718100000000000000009999123100000010000000000000BRBBDCACNPR8607
012013102196BBDC4F      020BRADESCO    PN      N1   R$  000000000330000000000033260000000003220000000000326400000000032450000000003245000000000325000289000000000000007136000000000023293384000000000000009999123100000010000000000000BRBBDCACNPR8607
012013102162BBDC4T      030BRADESCO    PN      N1016R$  000000000328200000000032830000000003238000000000327400000000032390000000000000000000000000000006000000000000018000000000000058934175000000000000009999123100000010000000000000BRBBDCACNPR8607
012013102162BBDC4T      030BRADESCO    PN      N1031R$  000000000325500000000032560000000003255000000000325500000000032560000000000000000000000000000002000000000000000500000000000001627616000000000000009999123100000010000000000000BRBBDCACNPR8607
012013102162BBDC4T      030BRADESCO    PN      N1032R$  000000000327000000000032710000000003270000000000327000000000032710000000000000000000000000000002000000000000001000000000000003270635000000000000009999123100000010000000000000BRBBDCACNPR8607
012013102162BBDC4T      030BRADESCO    PN      N1091R$  000000000333900000000033400000000003305000000000332600000000033060000000000000000000000000000004000000000000005000000000000016630435000000000000009999123100000010000000000000BRBBDCACNPR8607
012013102178BBDCA33     070BBDC        PN      N1000R$  000000000015300000000001530000000000153000000000015300000000001530000000000102000000000000000001000000000000000500000000000000076500000000000329802014012000000010000000000000BRBBDCACNPR8606
012013102178BBDCA34     070BBDC        PN      N1000R$  000000000010600000000001060000000000096000000000010100000000001020000000000000000000000000000003000000000000009000000000000000912000000000000339402014012000000010000000000000BRBBDCACNPR8604
012013102178BBDCA35     070BBDC        PN      N1000R$  000000000008400000000000840000000000065000000000007200000000000650000000000000000000000000000008000000000000018100000000000001316900000000000350002014012000000010000000000000BRBBDCACNPR8607
012013102178BBDCA37     070BBDC        PN      N1000R$  000000000002800000000000280000000000028000000000002800000000000280000000000000000000000000000007000000000000005000000000000000140000000000000367402014012000000010000000000000BRBBDCACNPR8602
012013102178BBDCA40     070BBDC        PN      N1000R$  000000000005400000000000540000000000043000000000004700000000000430000000000000000000000000000006000000000000009700000000000000462000000000000360402014012000000010000000000000BRBBDCACNPR8598
012013102138BBDCJ1E     012BBDC        PN      N1000R$  000000000314200000000031420000000003142000000000314200000000031420000000000000000000000000000015000000000000240600000000000755965200000000000314202013102100000010000000000000BRBBDCACNPR8607
012013102138BBDCJ25E    012BBDC        PN      N1000R$  000000000249200000000024920000000002492000000000249200000000024920000000000000000000000000000002000000000000020600000000000051335200000000000249202013102100000010000000000000BRBBDCACNPR8607
012013102138BBDCJ26E    012BBDC        PN      N1000R$  000000000259400000000025940000000002594000000000259400000000025940000000000000000000000000000011000000000000645100000000001673389400000000000259402013102100000010000000000000BRBBDCACNPR8607
012013102138BBDCJ27E    012BBDC        PN      N1000R$  000000000267400000000026740000000002674000000000267400000000026740000000000000000000000000000029000000000000928700000000002483343800000000000267402013102100000010000000000000BRBBDCACNPR8607
012013102138BBDCJ29E    012BBDC        PN      N1000R$  000000000287400000000028740000000002874000000000287400000000028740000000000000000000000000000059000000000001892000000000005437608000000000000287402013102100000010000000000000BRBBDCACNPR8607
012013102138BBDCJ2E     012BBDC        PN      N1000R$  000000000324200000000032420000000003242000000000324200000000032420000000000000000000000000000006000000000000231200000000000749550400000000000324202013102100000010000000000000BRBBDCACNPR8607
012013102138BBDCJ30E    012BBDC        PN      N1000R$  000000000297400000000029740000000002974000000000297400000000029740000000000000000000000000000112000000000001264900000000003761812600000000000297402013102100000010000000000000BRBBDCACNPR8607
012013102138BBDCJ31E    012BBDC        PN      N1000R$  000000000307400000000030740000000003074000000000307400000000030740000000000000000000000000000079000000000000912100000000002803795400000000000307402013102100000010000000000000BRBBDCACNPR8607
012013102138BBDCJ32E    012BBDC        PN      N1000R$  000000000317400000000031740000000003174000000000317400000000031740000000000000000000000000000072000000000000566200000000001797118800000000000317402013102100000010000000000000BRBBDCACNPR8607
012013102138BBDCJ58E    012BBDC        PN      N1000R$  000000000279600000000027960000000002796000000000279600000000027960000000000000000000000000000023000000000000384600000000001075341600000000000279602013102100000010000000000000BRBBDCACNPR8607
012013102178BBDCK30     070BBDC        PN      N1000R$  000000000028000000000002800000000000265000000000027900000000002650000000000240000000000028500002000000000000004100000000000001146500000000000299602013111800000010000000000000BRBBDCACNPR8605
012013102178BBDCK31     070BBDC        PN      N1000R$  000000000019900000000001990000000000176000000000019100000000001910000000000152000000000020500056000000000000040800000000000007819100000000000309602013111800000010000000000000BRBBDCACNPR8605
012013102178BBDCK32     070BBDC  FM    PN      N1000R$  000000000016800000000001700000000000120000000000014000000000001420000000000116000000000014300200000000000000230600000000000032427300000000000317202013111800000010000000000000BRBBDCACNPR8601
012013102178BBDCK33     070BBDC  FM    PN      N1000R$  000000000009600000000000960000000000064000000000007900000000000730000000000060000000000007700589000000000000464000000000000036969800000000000327402013111800000010000000000000BRBBDCACNPR8602
012013102178BBDCK34     070BBDC  FM    PN      N1000R$  000000000004000000000000420000000000025000000000003400000000000320000000000028000000000003200044000000000000078200000000000002673700000000000339402013111800000010000000000000BRBBDCACNPR8604
012013102178BBDCK35     070BBDC  FM    PN      N1000R$  000000000002000000000000200000000000014000000000001900000000000140000000000000000000000001500037000000000000070600000000000001402800000000000347402013111800000010000000000000BRBBDCACNPR8602
012013102178BBDCK36     070BBDC  FM    PN      N1000R$  000000000000800000000000080000000000004000000000000500000000000040000000000000000000000000700004000000000000016200000000000000089400000000000357202013111800000010000000000000BRBBDCACNPR8601
012013102178BBDCK37     070BBDC        PN      N1000R$  000000000000500000000000050000000000005000000000000500000000000050000000000000000000000001500001000000000000002000000000000000010000000000000369802013111800000010000000000000BRBBDCACNPR8606
012013102178BBDCL3      070BBDC  FM    PN      N1000R$  000000000014300000000001430000000000112000000000013000000000001170000000000000000000000012800019000000000000029600000000000003877500000000000327002013121600000010000000000000BRBBDCACNPR8601
012013102178BBDCL32     070BBDC  FM    PN      N1000R$  000000000021100000000002110000000000169000000000019000000000001810000000000068000000000022100036000000000000072900000000000013853500000000000317002013121600000010000000000000BRBBDCACNPR8600
012013102178BBDCL34     070BBDC  FM    PN      N1000R$  000000000008900000000000920000000000073000000000008500000000000730000000000050000000000012100013000000000000019500000000000001673700000000000337002013121600000010000000000000BRBBDCACNPR8600
012013102178BBDCL35     070BBDC        PN      N1000R$  000000000005400000000000540000000000040000000000004900000000000420000000000036000000000004900006000000000000005600000000000000278400000000000347002013121600000010000000000000BRBBDCACNPR8600
012013102178BBDCL36     070BBDC        PN      N1000R$  000000000012800000000001280000000000128000000000012800000000001280000000000112000000000000000001000000000000003000000000000000384000000000000323902013121600000010000000000000BRBBDCACNPR8597
012013102178BBDCL5      070BBDC  FM    PN      N1000R$  000000000004700000000000480000000000033000000000003800000000000380000000000000000000000005000027000000000000062400000000000002371700000000000349802013121600000010000000000000BRBBDCACNPR8606
012013102178BBDCL6      070BBDC  FM    PN      N1000R$  000000000003100000000000320000000000023000000000003000000000000230000000000012000000000000000008000000000000009900000000000000302500000000000357202013121600000010000000000000BRBBDCACNPR8601
012013102182BBDCM32     080BBDCE       PN      N1000R$  000000000009400000000000990000000000094000000000009600000000000990000000000000000000000000000002000000000000003700000000000000357800000000000319802014012000000010000000000000BRBBDCACNPR8606
012013102182BBDCM33     080BBDCE       PN      N1000R$  000000000011800000000001290000000000118000000000012400000000001290000000000000000000000000000002000000000000002700000000000000335100000000000329802014012000000010000000000000BRBBDCACNPR8606
012013102142BBDCV33E    013BBDCE       PN      N1000R$  000000000327400000000032740000000003274000000000327400000000032740000000000000000000000000000002000000000000055700000000000182361800000000000327402013102100000010000000000000BRBBDCACNPR8607
012013102142BBDCV34E    013BBDCE       PN      N1000R$  000000000337000000000033700000000003370000000000337000000000033700000000000000000000000000000005000000000000203000000000000684110000000000000337002013102100000010000000000000BRBBDCACNPR8607
012013102182BBDCW31     080BBDCE FM    PN      N1000R$  000000000002200000000000310000000000022000000000002600000000000270000000000000000000000002900042000000000000069300000000000001855800000000000309602013111800000010000000000000BRBBDCACNPR8605
012013102182BBDCW32     080BBDCE FM    PN      N1000R$  000000000003800000000000520000000000036000000000004300000000000460000000000032000000000006900096000000000000132300000000000005725800000000000317202013111800000010000000000000BRBBDCACNPR8601
012013102182BBDCW33     080BBDCE FM    PN      N1000R$  000000000006300000000000980000000000063000000000008100000000000880000000000063000000000015600385000000000000190500000000000015581000000000000327402013111800000010000000000000BRBBDCACNPR8602
012013102182BBDCW34     080BBDCE FM    PN      N1000R$  000000000013600000000001790000000000136000000000015300000000001600000000000000000000000000000056000000000000087600000000000013452600000000000339402013111800000010000000000000BRBBDCACNPR8604
012013102182BBDCW35     080BBDCE       PN      N1000R$  000000000021900000000002430000000000219000000000023100000000002430000000000000000000000000000002000000000000002000000000000000462000000000000347402013111800000010000000000000BRBBDCACNPR8602
012013102182BBDCW9      080BBDCE       PN      N1000R$  000000000000700000000000070000000000007000000000000700000000000070000000000000000000000000000002000000000000005000000000000000035000000000000289602013111800000010000000000000BRBBDCACNPR8605
012013102182BBDCX1      080BBDCE FM    PN      N1000R$  000000000003500000000000450000000000035000000000004000000000000450000000000000000000000000000003000000000000005600000000000000227200000000000307002013121600000010000000000000BRBBDCACNPR8600
012013102182BBDCX3      080BBDCE FM    PN      N1000R$  000000000009400000000001190000000000094000000000010300000000001130000000000000000000000000000025000000000000041400000000000004272500000000000327002013121600000010000000000000BRBBDCACNPR8601
012013102182BBDCX32     080BBDCE FM    PN      N1000R$  000000000006300000000000790000000000060000000000006800000000000720000000000000000000000007200025000000000000029500000000000002019300000000000317002013121600000010000000000000BRBBDCACNPR8600
012013102182BBDCX34     080BBDCE FM    PN      N1000R$  000000000014800000000001740000000000142000000000015500000000001630000000000000000000000000000031000000000000054100000000000008401500000000000337002013121600000010000000000000BRBBDCACNPR8600
012013102182BBDCX36     080BBDCE       PN      N1000R$  000000000008000000000000800000000000080000000000008000000000000800000000000000000000000000000001000000000000002000000000000000160000000000000323902013121600000010000000000000BRBBDCACNPR8597
012013102112BBFI11B     010FII BB PROGRCI      MB   R$  000000041600000000004203370000000415150000000041726200000004185000000000418500000000041987500008000000000000000010000000000004172628000000000000009999123100000010000000000000BRBBFICTF006199
012013102112BBPO11      010FII BB PRGIICI           R$  000000001114000000000112000000000011084000000001111400000000112000000000011150000000001120000159000000000000020674000000000229775793000000000000009999123100000010000000000000BRBBPOCTF003111
012013102112BBRC11      010FII BB CORP CI           R$  000000000885000000000089000000000008720000000000881500000000088000000000008750000000000880000014000000000000001040000000000009168330000000000000009999123100000010000000000000BRBBRCCTF004125
012013102102BBRK3       010BR BROKERS  ON      NM   R$  000000000059800000000006110000000000593000000000059900000000005940000000000594000000000059702663000000000000623600000000000374079400000000000000009999123100000010000000000000BRBBRKACNOR4108
012013102196BBRK3F      020BR BROKERS  ON      NM   R$  000000000060700000000006480000000000570000000000059900000000005710000000000570000000000065000006000000000000000224000000000000134269000000000000009999123100000010000000000000BRBBRKACNOR4108
012013102162BBRK3T      030BR BROKERS  ON      NM031R$  000000000061000000000006110000000000610000000000061000000000006110000000000000000000000000000002000000000000001700000000000001037757000000000000009999123100000010000000000000BRBBRKACNOR4108
012013102102BBSE3       010BBSEGURIDADEON      NM   R$  000000000242000000000024600000000002413000000000243400000000024200000000002419000000000242007858000000000003558200000000008662028800000000000000009999123100000010000000000000BRBBSEACNOR5101
012013102196BBSE3F      020BBSEGURIDADEON      NM   R$  000000000241500000000024530000000002411000000000243200000000024110000000002411000000000242600386000000000000012587000000000030612717000000000000009999123100000010000000000000BRBBSEACNOR5101
012013102162BBSE3T      030BBSEGURIDADEON      NM031R$  000000000245600000000024580000000002450000000000245600000000024510000000000000000000000000000006000000000000003200000000000007859514000000000000009999123100000010000000000000BRBBSEACNOR5101
012013102162BBSE3T      030BBSEGURIDADEON      NM091R$  000000000248800000000024920000000002483000000000248800000000024840000000000000000000000000000028000000000000290800000000000723750183000000000000009999123100000010000000000000BRBBSEACNOR5101
012013102138BBSEJ21E    012BBSE        ON      NM000R$  000000000205900000000020590000000002059000000000205900000000020590000000000000000000000000000008000000000001740000000000003582660000000000000205902013102100000010000000000000BRBBSEACNOR5101
012013102138BBSEJ22E    012BBSE        ON      NM000R$  000000000220000000000022000000000002200000000000220000000000022000000000000000000000000000000003000000000000102000000000000224400000000000000220002013102100000010000000000000BRBBSEACNOR5101
012013102138BBSEJ50E    012BBSE        ON      NM000R$  000000000200900000000020090000000002009000000000200900000000020090000000000000000000000000000001000000000000023000000000000046207000000000000200902013102100000010000000000000BRBBSEACNOR5101
012013102138BBSEJ51E    012BBSE        ON      NM000R$  000000000210900000000021090000000002109000000000210900000000021090000000000000000000000000000005000000000001940000000000004091460000000000000210902013102100000010000000000000BRBBSEACNOR5101
012013102102BBTG11      010BTG PACTUAL UNT          R$  000000000304000000000030450000000002974000000000300000000000029810000000002980000000000300100465000000000000175000000000000525004100000000000000009999123100000010000000000000BRBBTGUNT007105
012013102196BBTG11F     020BTG PACTUAL UNT          R$  000000000301000000000030100000000002981000000000299500000000029810000000002980000000000301400004000000000000000025000000000000074888000000000000009999123100000010000000000000BRBBTGUNT007105
012013102112BBVJ11      010FII C JARDIMCI           R$  000000000770000000000077490000000007650000000000773700000000077490000000007671000000000774900019000000000000000435000000000003365633000000000000009999123100000010000000000000BRBBVJCTF001134
012013102112BCFF11B     010FII BC FFII CI      MB   R$  000000000897900000000091000000000008900000000000900400000000090000000000008900000000000900000072000000000000002958000000000026635458000000000000009999123100000010000000000000BRBCFFCTF000143
012013102102BEEF3       010MINERVA     ON      NM   R$  000000000096600000000009660000000000944000000000095100000000009500000000000950000000000095101780000000000000559700000000000532690900000000000000009999123100000010000000000000BRBEEFACNOR6104
012013102196BEEF3F      020MINERVA     ON      NM   R$  000000000095500000000009550000000000947000000000095300000000009470000000000947000000000097500005000000000000000100000000000000095343000000000000009999123100000010000000000000BRBEEFACNOR6104
012013102102BEES3       010BANESTES    ON           R$  000000000005000000000000510000000000049000000000004900000000000510000000000050000000000005100008000000000000019500000000000000974600000000000000009999123100000010000000000000BRBEESACNOR9245
012013102102BEMA3       010BEMATECH    ON      NM   R$  000000000077400000000007800000000000771000000000077500000000007750000000000773000000000077500315000000000000172600000000000133770700000000000000009999123100000010000000000000BRBEMAACNOR0114
012013102196BEMA3F      020BEMATECH    ON      NM   R$  000000000077800000000007840000000000774000000000077700000000007760000000000775000000000079500005000000000000000154000000000000119759000000000000009999123100000010000000000000BRBEMAACNOR0114
012013102102BHGR3       010BHG         ON      NM   R$  000000000153800000000015590000000001500000000000152300000000015590000000001559000000000156000041000000000000013300000000000020263000000000000000009999123100000010000000000000BRBHGRACNOR9101
012013102196BHGR3F      020BHG         ON      NM   R$  000000000152500000000015250000000001525000000000152500000000015250000000001511000000000159700001000000000000000029000000000000044225000000000000009999123100000010000000000000BRBHGRACNOR9101
012013102102BICB3       010BICBANCO    ON      N1   R$  000000000066000000000006600000000000660000000000066000000000006600000000000660000000000075000001000000000000000200000000000000132000000000000000009999123100000010000000000000BRBICBACNOR0131
012013102102BICB4       010BICBANCO    PN      N1   R$  000000000060300000000006300000000000601000000000062200000000006250000000000620000000000062600178000000000000388000000000000241427000000000000000009999123100000010000000000000BRBICBACNPR7131
012013102196BICB4F      020BICBANCO    PN      N1   R$  000000000060200000000006200000000000572000000000060800000000006050000000000571000000000063500011000000000000000271000000000000164907000000000000009999123100000010000000000000BRBICBACNPR7131
012013102162BICB4T      030BICBANCO    PN      N1031R$  000000000062600000000006270000000000626000000000062600000000006270000000000000000000000000000002000000000000010000000000000006261915000000000000009999123100000010000000000000BRBICBACNPR7131
012013102102BISA3       010BROOKFIELD  ON      NM   R$  000000000015800000000001600000000000156000000000015800000000001580000000000157000000000015802563000000000003490100000000000551696100000000000000009999123100000010000000000000BRBISAACNOR8109
012013102196BISA3F      020BROOKFIELD  ON      NM   R$  000000000015700000000001670000000000156000000000015900000000001600000000000158000000000016200017000000000000000421000000000000067136000000000000009999123100000010000000000000BRBISAACNOR8109
012013102162BISA3T      030BROOKFIELD  ON      NM031R$  000000000015900000000001610000000000159000000000015900000000001600000000000000000000000000000006000000000000016000000000000002552757000000000000009999123100000010000000000000BRBISAACNOR8109
012013102162BISA3T      030BROOKFIELD  ON      NM091R$  000000000016300000000001640000000000163000000000016300000000001640000000000000000000000000000002000000000000175000000000000028599200000000000000009999123100000010000000000000BRBISAACNOR8109
012013102162BISA3T      030BROOKFIELD  ON      NM120R$  000000000016100000000001620000000000161000000000016100000000001620000000000000000000000000000002000000000000007000000000000001130981000000000000009999123100000010000000000000BRBISAACNOR8109
012013102112BJRC11      010FII JS RECIMCI           R$  000000008399900000000840000000000080900000000008392500000000840000000000080900000000008400000005000000000000000042000000000003524885000000000000009999123100000010000000000000BRBJRCCTF007111
012013102102BMIN4       010MERC INVEST PN           R$  000000000002900000000000300000000000027000000000002700000000000270000000000027000000000003000009000000000000033000000000000000917000000000000000009999123100000010000000000000BRBMINACNPR1160
012013102102BMKS3       010BIC MONARK  ON           R$  000000003300200000000330020000000033001000000003300100000000330010000000033001000000003400000002000000000000000006000000000000198007000000000000009999123100000010000000000000BRBMKSACNOR9155
012013102112BMLC11B     010FII BMBRC LCCI      MB   R$  000000001160000000000117200000000011550000000001155200000000117200000000011650000000001172000005000000000000001022000000000011806520000000000000009999123100000010000000000000BRBMLCCTF004120
012013102102BMTO3       010BRASMOTOR   ON           R$  000000000008200000000000820000000000082000000000008200000000000820000000000082000000000010000001000000000000001000000000000000082000000000000000009999123100000010000000000000BRBMTOACNOR9180
012013102196BMTO3F      020BRASMOTOR   ON           R$  000000000010000000000001000000000000100000000000010000000000001000000000000060000000000000000001000000000000000001000000000000000100000000000000009999123100000010000000000000BRBMTOACNOR9180
012013102102BMTO4       010BRASMOTOR   PN           R$  000000000008600000000000860000000000085000000000008500000000000860000000000085000000000008600007000000000000036000000000000003074000000000000000009999123100000010000000000000BRBMTOACNPR6065
012013102196BMTO4F      020BRASMOTOR   PN           R$  000000000009300000000000930000000000093000000000009300000000000930000000000083000000000009300001000000000000000001000000000000000093000000000000009999123100000010000000000000BRBMTOACNPR6065
012013102112BNFS11      010FII BANRISULCI           R$  000000000980300000000100000000000009803000000000994300000000100000000000009801000000001015000005000000000000000350000000000003480300000000000000009999123100000010000000000000BRBNFSCTF000113
012013102102BOBR4       010BOMBRIL     PN           R$  000000000063800000000006380000000000638000000000063800000000006380000000000638000000000064400001000000000000000100000000000000063800000000000000009999123100000010000000000000BRBOBRACNPR3127
012013102114BOVA11      010ISHARES BOVACI           R$  000000000540100000000054810000000005390000000000543500000000054810000000005453000000000548101954000000000000867170000000004713754190000000000000009999123100000010000000000000BRBOVACTF003101
012013102196BOVA11F     020ISHARES BOVACI           R$  000000000539900000000054900000000005344000000000540800000000053440000000005344000000000549000009000000000000000035000000000000189286000000000000009999123100000010000000000000BRBOVACTF003101
012013102138BOVAJ53E    012BOVA        CI        000R$  000000000530000000000053000000000005300000000000530000000000053000000000000000000000000000000002000000000000010000000000000053000000000000000530002013102100000010000000000000BRBOVACTF003101
012013102142BOVAV64E    013BOVAE       CI        000R$  000000000640000000000064000000000006400000000000640000000000064000000000000000000000000000000001000000000000012000000000000076800000000000000640002013102100000010000000000000BRBOVACTF003101
012013102112BPFF11      010FII ABSOLUTOCI           R$  000000000835500000000083550000000008177000000000825800000000083000000000008250000000000830000027000000000000002205000000000018210077000000000000009999123100000010000000000000BRBPFFCTF002106
012013102102BPHA3       010BR PHARMA   ON      NM   R$  000000000086600000000008660000000000855000000000086200000000008650000000000860000000000086500237000000000000052500000000000045285000000000000000009999123100000010000000000000BRBPHAACNOR6102
012013102196BPHA3F      020BR PHARMA   ON      NM   R$  000000000086500000000008750000000000851000000000086800000000008740000000000850000000000087400055000000000000002066000000000001794294000000000000009999123100000010000000000000BRBPHAACNOR6102
012013102102BPNM4       010PANAMERICANOPN      N1   R$  000000000052200000000005290000000000520000000000052400000000005250000000000524000000000052800133000000000000055000000000000028841700000000000000009999123100000010000000000000BRBPNMACNPR6111
012013102102BRAP3       010BRADESPAR   ON      N1   R$  000000000209300000000021390000000002093000000000211400000000021390000000002104000000000213900021000000000000005400000000000011418800000000000000009999123100000010000000000000BRBRAPACNOR5124
012013102196BRAP3F      020BRADESPAR   ON      N1   R$  000000000209300000000021100000000002088000000000209600000000021100000000002001000000000220000008000000000000000192000000000000402502000000000000009999123100000010000000000000BRBRAPACNOR5124
012013102102BRAP4       010BRADESPAR   PN      N1   R$  000000000254800000000026180000000002539000000000259300000000026180000000002609000000000261804410000000000002030500000000005265266200000000000000009999123100000010000000000000BRBRAPACNPR2124
012013102196BRAP4F      020BRADESPAR   PN      N1   R$  000000000254400000000026300000000002544000000000259400000000026300000000002630000000000264000089000000000000002939000000000007628262000000000000009999123100000010000000000000BRBRAPACNPR2124
012013102162BRAP4T      030BRADESPAR   PN      N1031R$  000000000258800000000026280000000002588000000000260700000000026280000000000000000000000000000004000000000000001200000000000003129184000000000000009999123100000010000000000000BRBRAPACNPR2124
012013102162BRAP4T      030BRADESPAR   PN      N1060R$  000000000262500000000026260000000002625000000000262500000000026260000000000000000000000000000002000000000000001500000000000003938373000000000000009999123100000010000000000000BRBRAPACNPR2124
012013102162BRAP4T      030BRADESPAR   PN      N1091R$  000000000265900000000026650000000002656000000000265900000000026650000000000000000000000000000022000000000000352600000000000937877170000000000000009999123100000010000000000000BRBRAPACNPR2124
012013102138BRAPJ22E    012BRAP        PN      N1000R$  000000000220000000000022000000000002200000000000220000000000022000000000000000000000000000000001000000000000010000000000000022000000000000000220002013102100000010000000000000BRBRAPACNPR2124
012013102138BRAPJ25E    012BRAP        PN      N1000R$  000000000250000000000025000000000002500000000000250000000000025000000000000000000000000000000002000000000000002800000000000007000000000000000250002013102100000010000000000000BRBRAPACNPR2124
012013102114BRAX11      010ISHARES BRAXCI           R$  000000000436900000000043690000000004369000000000436900000000043690000000003000000000000440000001000000000000000900000000000003932100000000000000009999123100000010000000000000BRBRAXCTF002100
012013102112BRCR11      010FII BC FUND CI           R$  000000001344900000000135200000000013367000000001348000000000135000000000013500000000001351000252000000000000021541000000000290374901000000000000009999123100000010000000000000BRBRCRCTF000134
012013102102BRFS3       010BRF SA      ON      NM   R$  000000000546900000000055460000000005428000000000551600000000055400000000005530000000000554004495000000000000988700000000005454912000000000000000009999123100000010000000000000BRBRFSACNOR8110
012013102196BRFS3F      020BRF SA      ON      NM   R$  000000000546000000000055480000000005445000000000550600000000055450000000005540000000000554900095000000000000002802000000000015434859000000000000009999123100000010000000000000BRBRFSACNOR8110
012013102162BRFS3S      030BRF SA      ON      NM031R$  000000000553600000000055370000000005536000000000553600000000055370000000000000000000000000000002000000000000008100000000000044842540000000000000009999123100000010000000000000BRBRFSACNOR8110
012013102162BRFS3T      030BRF SA      ON      NM031R$  000000000557700000000055860000000005577000000000557800000000055780000000000000000000000000000006000000000000003200000000000017849994000000000000009999123100000010000000000000BRBRFSACNOR8110
012013102138BRFSJ15E    012BRFS        ON      NM000R$  000000000449300000000044930000000004493000000000449300000000044930000000000000000000000000000003000000000000033300000000000149616900000000000449302013102100000010000000000000BRBRFSACNOR8110
012013102138BRFSJ50E    012BRFS        ON      NM000R$  000000000496000000000049600000000004960000000000496000000000049600000000000000000000000000000002000000000000026000000000000128960000000000000496002013102100000010000000000000BRBRFSACNOR8110
012013102138BRFSJ75E    012BRFS        ON      NM000R$  000000000515000000000051500000000005150000000000515000000000051500000000000000000000000000000004000000000000300000000000001545000000000000000515002013102100000010000000000000BRBRFSACNOR8110
012013102178BRFSK57     070BRFS        ON      NM000R$  000000000003700000000000370000000000037000000000003700000000000370000000000000000000000000000003000000000000001000000000000000037000000000000570002013111800000010000000000000BRBRFSACNOR8110
012013102178BRFSL53     070BRFS        ON      NM000R$  000000000035100000000003510000000000351000000000035100000000003510000000000000000000000000000001000000000000014500000000000005089500000000000530002013121600000010000000000000BRBRFSACNOR8110
012013102178BRFSL60     070BRFS        ON      NM000R$  000000000003400000000000340000000000034000000000003400000000000340000000000000000000000000000001000000000000000100000000000000003400000000000600002013121600000010000000000000BRBRFSACNOR8110
012013102142BRFSV55E    013BRFSE       ON      NM000R$  000000000550000000000055000000000005500000000000550000000000055000000000000000000000000000000001000000000000010000000000000055000000000000000550002013102100000010000000000000BRBRFSACNOR8110
012013102102BRGE12      010ALFA CONSORCPNF          R$  000000000039800000000003980000000000398000000000039800000000003980000000000375000000000039800001000000000000000500000000000000199000000000000000009999123100000010000000000000BRBRGEACNPF8091
012013102102BRGE3       010ALFA CONSORCON           R$  000000000049900000000004990000000000499000000000049900000000004990000000000499000000000050000002000000000000000300000000000000149700000000000000009999123100000010000000000000BRBRGEACNOR6197
012013102102BRIN3       010BR INSURANCEON      NM   R$  000000000208200000000020820000000002040000000000206100000000020670000000002056000000000206700436000000000000103500000000000213344000000000000000009999123100000010000000000000BRBRINACNOR3106
012013102196BRIN3F      020BR INSURANCEON      NM   R$  000000000205200000000020520000000002050000000000205100000000020500000000002040000000000208800003000000000000000050000000000000102598000000000000009999123100000010000000000000BRBRINACNOR3106
012013102102BRKM3       010BRASKEM     ON      N1   R$  000000000134500000000013700000000001345000000000135200000000013700000000001324000000000137000009000000000000011600000000000015687700000000000000009999123100000010000000000000BRBRKMACNOR1110
012013102102BRKM5       010BRASKEM     PNA     N1   R$  000000000197800000000020060000000001970000000000199200000000020000000000001990000000000200104624000000000000887200000000001768065600000000000000009999123100000010000000000000BRBRKMACNPA4110
012013102196BRKM5F      020BRASKEM     PNA     N1   R$  000000000198900000000020060000000001969000000000199000000000020060000000002006000000000202500039000000000000001149000000000002287505000000000000009999123100000010000000000000BRBRKMACNPA4110
012013102162BRKM5T      030BRASKEM     PNA     N1091R$  000000000203600000000020370000000002036000000000203600000000020370000000000000000000000000000002000000000000001000000000000002036672000000000000009999123100000010000000000000BRBRKMACNPA4110
012013102138BRKMJ53E    012BRKME       PNA     N1000R$  000000000132500000000013250000000001325000000000132500000000013250000000000000000000000000000005000000000002889000000000003827925000000000000132502013102100000010000000000000BRBRKMACNPA4110
012013102138BRKMJ56E    012BRKME       PNA     N1000R$  000000000162500000000016250000000001625000000000162500000000016250000000000000000000000000000001000000000000460000000000000747500000000000000162502013102100000010000000000000BRBRKMACNPA4110
012013102138BRKMJ59E    012BRKME       PNA     N1000R$  000000000192500000000019250000000001925000000000192500000000019250000000000000000000000000000004000000000002553000000000004914525000000000000192502013102100000010000000000000BRBRKMACNPA4110
012013102142BRKMV60E    013BRKME       PNA     N1000R$  000000000202500000000020250000000002025000000000202500000000020250000000000000000000000000000002000000000000796000000000001611900000000000000202502013102100000010000000000000BRBRKMACNPA4110
012013102102BRML3       010BR MALLS PARON      NM   R$  000000000221500000000022260000000002196000000000220900000000022190000000002219000000000222006033000000000001873500000000004139269800000000000000009999123100000010000000000000BRBRMLACNOR9105
012013102196BRML3F      020BR MALLS PARON      NM   R$  000000000221700000000022170000000002197000000000220800000000022130000000002207000000000225000046000000000000001333000000000002942929000000000000009999123100000010000000000000BRBRMLACNOR9105
012013102162BRML3T      030BR MALLS PARON      NM031R$  000000000222700000000022280000000002227000000000222700000000022280000000000000000000000000000002000000000000000200000000000000445472000000000000009999123100000010000000000000BRBRMLACNOR9105
012013102138BRMLJ19E    012BRML        ON      NM000R$  000000000190000000000019000000000001900000000000190000000000019000000000000000000000000000000001000000000000020100000000000038190000000000000190002013102100000010000000000000BRBRMLACNOR9105
012013102138BRMLJ20E    012BRML        ON      NM000R$  000000000200000000000020000000000002000000000000200000000000020000000000000000000000000000000005000000000000098700000000000197400000000000000200002013102100000010000000000000BRBRMLACNOR9105
012013102138BRMLJ21E    012BRML        ON      NM000R$  000000000210000000000021000000000002100000000000210000000000021000000000000000000000000000000013000000000000018600000000000039060000000000000210002013102100000010000000000000BRBRMLACNOR9105
012013102138BRMLJ22E    012BRML        ON      NM000R$  000000000220000000000022000000000002200000000000220000000000022000000000000000000000000000000003000000000000004400000000000009680000000000000220002013102100000010000000000000BRBRMLACNOR9105
012013102138BRMLJ50E    012BRML        ON      NM000R$  000000000205000000000020500000000002050000000000205000000000020500000000000000000000000000000002000000000000005300000000000010865000000000000205002013102100000010000000000000BRBRMLACNOR9105
012013102138BRMLJ51E    012BRML        ON      NM000R$  000000000215000000000021500000000002150000000000215000000000021500000000000000000000000000000002000000000000000600000000000001290000000000000215002013102100000010000000000000BRBRMLACNOR9105
012013102178BRMLK22     070BRML        ON      NM000R$  000000000007500000000000750000000000075000000000007500000000000750000000000000000000000000000001000000000000087300000000000006547500000000000220002013111800000010000000000000BRBRMLACNOR9105
012013102178BRMLK23     070BRML        ON      NM000R$  000000000003200000000000320000000000032000000000003200000000000320000000000000000000000000000001000000000000000400000000000000012800000000000230002013111800000010000000000000BRBRMLACNOR9105
012013102142BRMLV52E    013BRMLE       ON      NM000R$  000000000225000000000022500000000002250000000000225000000000022500000000000000000000000000000001000000000000005000000000000011250000000000000225002013102100000010000000000000BRBRMLACNOR9105
012013102102BRPR3       010BR PROPERT  ON      NM   R$  000000000193500000000019360000000001885000000000190000000000018920000000001892000000000189305315000000000001075900000000002044382300000000000000009999123100000010000000000000BRBRPRACNOR9112
012013102196BRPR3F      020BR PROPERT  ON      NM   R$  000000000192000000000019440000000001880000000000191200000000018800000000001878000000000188400016000000000000000288000000000000550197000000000000009999123100000010000000000000BRBRPRACNOR9112
012013102138BRPRJ19E    012BRPR        ON      NM000R$  000000000190000000000019000000000001900000000000190000000000019000000000000000000000000000000001000000000000000500000000000000950000000000000190002013102100000010000000000000BRBRPRACNOR9112
012013102196BRSR3F      020BANRISUL    ON      N1   R$  000000000145500000000014550000000001455000000000145500000000014550000000001307000000000150000001000000000000000027000000000000039285000000000000009999123100000010000000000000BRBRSRACNOR3131
012013102102BRSR6       010BANRISUL    PNB     N1   R$  000000000154900000000016090000000001545000000000157200000000015880000000001588000000000159503878000000000001953500000000003071417800000000000000009999123100000010000000000000BRBRSRACNPB4134
012013102196BRSR6F      020BANRISUL    PNB     N1   R$  000000000153400000000016600000000001530000000000158300000000016030000000001550000000000160700031000000000000000961000000000001521373000000000000009999123100000010000000000000BRBRSRACNPB4134
012013102102BSEV3       010BIOSEV      ON      NM   R$  000000000086500000000009050000000000865000000000086500000000008890000000000888000000000090400007000000000000141500000000000122493200000000000000009999123100000010000000000000BRBSEVACNOR3100
012013102196BSEV3F      020BIOSEV      ON      NM   R$  000000000089900000000008990000000000899000000000089900000000008990000000000851000000000089900001000000000000000010000000000000008990000000000000009999123100000010000000000000BRBSEVACNOR3100
012013102182BSEVS99     080BSEVE       ON      NM000R$  000000000069000000000006900000000000690000000000069000000000006900000000000000000000000069500001000000000000136800000000000094392000000000000165702014072100000010000000000000BRBSEVACNOR3100
012013102102BTOW3       010B2W DIGITAL ON      NM   R$  000000000163400000000017190000000001620000000000169200000000017050000000001700000000000170502187000000000000573600000000000971029900000000000000009999123100000010000000000000BRBTOWACNOR8105
012013102196BTOW3F      020B2W DIGITAL ON      NM   R$  000000000163800000000017040000000001620000000000167300000000017030000000001670000000000170300017000000000000000678000000000001137266000000000000009999123100000010000000000000BRBTOWACNOR8105
012013102138BTOWJ15E    012BTOW        ON      NM000R$  000000000150000000000015000000000001500000000000150000000000015000000000000000000000000000000009000000000000015500000000000023250000000000000150002013102100000010000000000000BRBTOWACNOR8105
012013102138BTOWJ16E    012BTOW        ON      NM000R$  000000000160000000000016000000000001600000000000160000000000016000000000000000000000000000000002000000000000010100000000000016160000000000000160002013102100000010000000000000BRBTOWACNOR8105
012013102102BTTL3       010BATTISTELLA ON           R$  000000000009700000000000970000000000097000000000009700000000000970000000000090000000000009700001000000000000000100000000000000009700000000000000009999123100000010000000000000BRBTTLACNOR0105
012013102102BVMF3       010BMFBOVESPA  ON      NM   R$  000000000130100000000013200000000001295000000000130700000000012950000000001295000000000129816984000000000008330100000000010892670900000000000000009999123100000010000000000000BRBVMFACNOR3126
012013102196BVMF3F      020BMFBOVESPA  ON      NM   R$  000000000130400000000013170000000001295000000000130700000000013000000000001297000000000130100064000000000000002157000000000002820677000000000000009999123100000010000000000000BRBVMFACNOR3126
012013102162BVMF3T      030BMFBOVESPA  ON      NM031R$  000000000132400000000013280000000001305000000000132200000000013060000000000000000000000000000010000000000001000000000000001322193600000000000000009999123100000010000000000000BRBVMFACNOR3126
012013102162BVMF3T      030BMFBOVESPA  ON      NM060R$  000000000132500000000013310000000001320000000000132600000000013210000000000000000000000000000006000000000000016900000000000022421609000000000000009999123100000010000000000000BRBVMFACNOR3126
012013102162BVMF3T      030BMFBOVESPA  ON      NM091R$  000000000134300000000013450000000001337000000000134200000000013380000000000000000000000000000022000000000000210500000000000282642984000000000000009999123100000010000000000000BRBVMFACNOR3126
012013102178BVMFA13     070BVMF        ON      NM000R$  000000000008500000000000850000000000085000000000008500000000000850000000000000000000000000000002000000000000005000000000000000425000000000000130002014012000000010000000000000BRBVMFACNOR3126
012013102178BVMFA14     070BVMF        ON      NM000R$  000000000003700000000000370000000000037000000000003700000000000370000000000000000000000000000001000000000000005000000000000000185000000000000140002014012000000010000000000000BRBVMFACNOR3126
012013102138BVMFJ10E    012BVMF        ON      NM000R$  000000000098500000000009850000000000985000000000098500000000009850000000000000000000000000000001000000000000008100000000000007978500000000000098502013102100000010000000000000BRBVMFACNOR3126
012013102138BVMFJ11E    012BVMF        ON      NM000R$  000000000108500000000010850000000001085000000000108500000000010850000000000000000000000000000015000000000000370700000000000402209500000000000108502013102100000010000000000000BRBVMFACNOR3126
012013102138BVMFJ12E    012BVMF        ON      NM000R$  000000000118500000000011850000000001185000000000118500000000011850000000000000000000000000000059000000000001658100000000001964848500000000000118502013102100000010000000000000BRBVMFACNOR3126
012013102138BVMFJ13E    012BVMF        ON      NM000R$  000000000128500000000012850000000001285000000000128500000000012850000000000000000000000000000159000000000001537700000000001975944500000000000128502013102100000010000000000000BRBVMFACNOR3126
012013102138BVMFJ39E    012BVMF        ON      NM000R$  000000000095000000000009500000000000950000000000095000000000009500000000000000000000000000000001000000000000014000000000000013300000000000000095002013102100000010000000000000BRBVMFACNOR3126
012013102138BVMFJ40E    012BVMF        ON      NM000R$  000000000103500000000010350000000001035000000000103500000000010350000000000000000000000000000002000000000000014000000000000014490000000000000103502013102100000010000000000000BRBVMFACNOR3126
012013102138BVMFJ41E    012BVMF        ON      NM000R$  000000000113500000000011350000000001135000000000113500000000011350000000000000000000000000000012000000000000364000000000000413140000000000000113502013102100000010000000000000BRBVMFACNOR3126
012013102138BVMFJ42E    012BVMF        ON      NM000R$  000000000123500000000012350000000001235000000000123500000000012350000000000000000000000000000030000000000000523600000000000646646000000000000123502013102100000010000000000000BRBVMFACNOR3126
012013102138BVMFJ51E    012BVMFE       ON      NM000R$  000000000116000000000011600000000001160000000000116000000000011600000000000000000000000000000004000000000000013600000000000015776000000000000116002013102100000010000000000000BRBVMFACNOR3126
012013102178BVMFK11     070BVMF        ON      NM000R$  000000000023000000000002300000000000223000000000022700000000002230000000000146000000000000000002000000000000004900000000000001113700000000000108502013111800000010000000000000BRBVMFACNOR3125
012013102178BVMFK12     070BVMF        ON      NM000R$  000000000013200000000001500000000000120000000000013400000000001310000000000130000000000015000515000000000000358100000000000048311800000000000118502013111800000010000000000000BRBVMFACNOR3125
012013102178BVMFK13     070BVMF  FM    ON      NM000R$  000000000005000000000000640000000000050000000000005500000000000540000000000050000000000005501048000000000000765300000000000042349500000000000128502013111800000010000000000000BRBVMFACNOR3125
012013102178BVMFK14     070BVMF  FM    ON      NM000R$  000000000001100000000000150000000000011000000000001300000000000110000000000011000000000001200775000000000001151400000000000015461200000000000138502013111800000010000000000000BRBVMFACNOR3125
012013102178BVMFK15     070BVMF        ON      NM000R$  000000000000400000000000040000000000002000000000000200000000000020000000000002000000000000300005000000000000008800000000000000017800000000000148502013111800000010000000000000BRBVMFACNOR3125
012013102178BVMFK42     070BVMF  FM    ON      NM000R$  000000000008500000000000860000000000075000000000007600000000000760000000000000000000000000000117000000000000105400000000000008076000000000000125002013111800000010000000000000BRBVMFACNOR3126
012013102178BVMFK43     070BVMF  FM    ON      NM000R$  000000000001700000000000260000000000017000000000002100000000000200000000000017000000000002000083000000000000212800000000000004480700000000000135002013111800000010000000000000BRBVMFACNOR3126
012013102178BVMFK44     070BVMF  FM    ON      NM000R$  000000000000500000000000050000000000004000000000000400000000000040000000000000000000000000400048000000000000038600000000000000190000000000000145002013111800000010000000000000BRBVMFACNOR3126
012013102178BVMFL13     070BVMF  FM    ON      NM000R$  000000000006900000000000800000000000068000000000007500000000000700000000000071000000000007700038000000000000059600000000000004491500000000000128502013121600000010000000000000BRBVMFACNOR3125
012013102178BVMFL14     070BVMF  FM    ON      NM000R$  000000000002900000000000340000000000029000000000003100000000000310000000000004000000000003300021000000000000016700000000000000520400000000000137402013121600000010000000000000BRBVMFACNOR3124
012013102178BVMFL15     070BVMF        ON      NM000R$  000000000000700000000000070000000000007000000000000700000000000070000000000001000000000000700002000000000000004500000000000000031500000000000148502013121600000010000000000000BRBVMFACNOR3125
012013102178BVMFL42     070BVMF  FM    ON      NM000R$  000000000009500000000000950000000000095000000000009500000000000950000000000000000000000000000001000000000000003500000000000000332500000000000125002013121600000010000000000000BRBVMFACNOR3126
012013102178BVMFL43     070BVMF        ON      NM000R$  000000000005500000000000600000000000055000000000005500000000000600000000000000000000000000000004000000000000001600000000000000089100000000000131902013121600000010000000000000BRBVMFACNOR3126
012013102178BVMFL44     070BVMF  FM    ON      NM000R$  000000000001200000000000150000000000012000000000001400000000000150000000000000000000000001200054000000000000025000000000000000356700000000000145002013121600000010000000000000BRBVMFACNOR3126
012013102182BVMFM12     080BVMFE       ON      NM000R$  000000000002000000000000200000000000020000000000002000000000000200000000000000000000000000000046000000000000150000000000000003000000000000000120002014012000000010000000000000BRBVMFACNOR3126
012013102142BVMFV14E    013BVMFE       ON      NM000R$  000000000138500000000013850000000001385000000000138500000000013850000000000000000000000000000002000000000000001500000000000002077500000000000138502013102100000010000000000000BRBVMFACNOR3126
012013102142BVMFV43E    013BVMFE       ON      NM000R$  000000000133500000000013350000000001335000000000133500000000013350000000000000000000000000000008000000000000155800000000000207993000000000000133502013102100000010000000000000BRBVMFACNOR3126
012013102182BVMFW12     080BVMFE FM    ON      NM000R$  000000000000900000000000110000000000008000000000000800000000000100000000000008000000000001100068000000000000087500000000000000770800000000000118502013111800000010000000000000BRBVMFACNOR3125
012013102182BVMFW13     080BVMFE FM    ON      NM000R$  000000000003100000000000310000000000022000000000002400000000000300000000000019000000000003200321000000000000200700000000000004986500000000000128502013111800000010000000000000BRBVMFACNOR3125
012013102182BVMFW14     080BVMFE       ON      NM000R$  000000000007700000000000890000000000077000000000008300000000000890000000000075000000000000000005000000000000006000000000000000498000000000000138502013111800000010000000000000BRBVMFACNOR3125
012013102182BVMFW41     080BVMFE       ON      NM000R$  000000000000400000000000050000000000004000000000000400000000000050000000000000000000000000000002000000000000002000000000000000009000000000000115002013111800000010000000000000BRBVMFACNOR3126
012013102182BVMFW42     080BVMFE FM    ON      NM000R$  000000000002000000000000200000000000020000000000002000000000000200000000000000000000000000000006000000000000012800000000000000256000000000000125002013111800000010000000000000BRBVMFACNOR3126
012013102182BVMFW43     080BVMFE FM    ON      NM000R$  000000000006600000000000660000000000051000000000005500000000000640000000000000000000000006500026000000000000066900000000000003724400000000000135002013111800000010000000000000BRBVMFACNOR3126
012013102182BVMFW52     080BVMFE       ON      NM000R$  000000000001400000000000150000000000014000000000001400000000000150000000000000000000000000000003000000000000004400000000000000063400000000000122502013111800000010000000000000BRBVMFACNOR3126
012013102182BVMFX13     080BVMFE FM    ON      NM000R$  000000000004200000000000420000000000034000000000003800000000000400000000000033000000000004200006000000000000007600000000000000295900000000000128502013121600000010000000000000BRBVMFACNOR3125
012013102182BVMFX14     080BVMFE FM    ON      NM000R$  000000000008900000000000890000000000074000000000008200000000000880000000000000000000000000000035000000000000034900000000000002895900000000000137402013121600000010000000000000BRBVMFACNOR3124
012013102182BVMFX42     080BVMFE FM    ON      NM000R$  000000000003000000000000300000000000030000000000003000000000000300000000000000000000000000000001000000000000000100000000000000003000000000000125002013121600000010000000000000BRBVMFACNOR3126
012013102182BVMFX43     080BVMFE       ON      NM000R$  000000000005500000000000550000000000055000000000005500000000000550000000000000000000000005700001000000000000000100000000000000005500000000000131902013121600000010000000000000BRBVMFACNOR3126
012013102102CAMB4       010CAMBUCI     PN           R$  000000000018500000000001880000000000185000000000018700000000001880000000000185000000000018900003000000000000002000000000000000374500000000000000009999123100000010000000000000BRCAMBACNPR1117
012013102102CARD3       010CSU CARDSYSTON      NM   R$  000000000030500000000003070000000000300000000000030400000000003070000000000299000000000030700043000000000000023100000000000007033800000000000000009999123100000010000000000000BRCARDACNOR9105
012013102196CARD3F      020CSU CARDSYSTON      NM   R$  000000000029600000000002960000000000296000000000029600000000002960000000000296000000000032400001000000000000000008000000000000002368000000000000009999123100000010000000000000BRCARDACNOR9105
012013102162CARD3T      030CSU CARDSYSTON      NM060R$  000000000030900000000003100000000000309000000000030900000000003100000000000000000000000000000002000000000000005000000000000001547265000000000000009999123100000010000000000000BRCARDACNOR9105
012013102102CBEE3       010AMPLA ENERG ON *         R$  000000000012900000000001290000000000129000000000012900000000001290000000000122000000000013000001000000000005000000000000000000645000000000000000009999123100010000000000000000BRCBEEACNOR3149
012013102196CBEE3F      020AMPLA ENERG ON *         R$  000000000013000000000001300000000000130000000000013000000000001300000000000129000000000014900001000000000000049200000000000000006396000000000000009999123100010000000000000000BRCBEEACNOR3149
012013102162CBEE3T      030AMPLA ENERG ON *      091R$  000000000013100000000001320000000000131000000000013100000000001320000000000000000000000000000002000000000005000000000000000000658803000000000000009999123100010000000000000000BRCBEEACNOR3149
012013102102CBMA4       010COBRASMA    PN           R$  000000000000500000000000050000000000005000000000000500000000000050000000000004000000000000500008000000000000420000000000000002100000000000000000009999123100000010000000000000BRCBMAACNPR1124
012013102108CCHI3       010CHIARELLI   ON           R$  000000000001800000000000180000000000017000000000001700000000000170000000000016000000000001800013000000000000280000000000000004770000000000000000009999123100000010000000000000BRCCHIACNOR5123
012013102196CCHI3F      020CHIARELLI   ON           R$  000000000001900000000000190000000000016000000000001800000000000160000000000016000000000001700003000000000000005656000000000000101906000000000000009999123100000010000000000000BRCCHIACNOR5123
012013102196CCHI4F      020CHIARELLI   PN           R$  000000000001300000000000130000000000013000000000001300000000000130000000000011000000000001300001000000000000000100000000000000001300000000000000009999123100000010000000000000BRCCHIACNPR2122
012013102102CCPR3       010CYRE COM-CCPON      NM   R$  000000000212800000000021280000000002128000000000212800000000021280000000002025000000000212800004000000000000001400000000000002979200000000000000009999123100000010000000000000BRCCPRACNOR9107
012013102196CCPR3F      020CYRE COM-CCPON      NM   R$  000000000200000000000020000000000001920000000000192700000000019200000000001920000000000205000002000000000000000022000000000000042400000000000000009999123100000010000000000000BRCCPRACNOR9107
012013102102CCRO3       010CCR SA      ON      NM   R$  000000000177700000000017990000000001774000000000179100000000017950000000001794000000000179506057000000000002144600000000003841475500000000000000009999123100000010000000000000BRCCROACNOR2123
012013102196CCRO3F      020CCR SA      ON      NM   R$  000000000178100000000017990000000001781000000000179100000000017990000000001794000000000179900036000000000000001136000000000002035337000000000000009999123100000010000000000000BRCCROACNOR2123
012013102138CCROJ18E    012CCRO        ON      NM000R$  000000000173200000000017320000000001732000000000173200000000017320000000000000000000000000000001000000000000005000000000000008660000000000000173202013102100000010000000000000BRCCROACNOR2123
012013102138CCROJ47E    012CCRO        ON      NM000R$  000000000168200000000016820000000001682000000000168200000000016820000000000000000000000000000001000000000000011000000000000018502000000000000168202013102100000010000000000000BRCCROACNOR2123
012013102138CCROJ48E    012CCRO        ON      NM000R$  000000000178200000000017820000000001782000000000178200000000017820000000000000000000000000000020000000000000058100000000000103534200000000000178202013102100000010000000000000BRCCROACNOR2123
012013102178CCROK19     070CCRO        ON      NM000R$  000000000003000000000000300000000000030000000000003000000000000300000000000000000000000000000001000000000000010000000000000000300000000000000183202013111800000010000000000000BRCCROACNOR2122
012013102178CCROK48     070CCRO        ON      NM000R$  000000000001700000000000220000000000017000000000002100000000000220000000000000000000000000000003000000000000018800000000000000407600000000000185002013111800000010000000000000BRCCROACNOR2123
012013102102CCXC3       010CCX CARVAO  ON      NM   R$  000000000013900000000001410000000000131000000000013600000000001350000000000135000000000013600466000000000001277100000000000173982300000000000000009999123100000010000000000000BRCCXCACNOR5100
012013102196CCXC3F      020CCX CARVAO  ON      NM   R$  000000000013800000000001380000000000130000000000013600000000001300000000000130000000000013700008000000000000000305000000000000041550000000000000009999123100000010000000000000BRCCXCACNOR5100
012013102108CELP7       010CELPA       PNC          R$  000000000006000000000000600000000000060000000000006000000000000600000000000050000000000006000002000000000000006000000000000000360000000000000000009999123100000010000000000000BRCELPACNPC7114
012013102112CEOC11B     010FII CEO CCP CI      MB   R$  000000000879800000000087980000000008580000000000867200000000087810000000008590000000000878100021000000000000000689000000000005975547000000000000009999123100000010000000000000BRCEOCCTF003111
012013102102CESP3       010CESP        ON      N1   R$  000000000192500000000019250000000001925000000000192500000000019250000000001920000000000194900001000000000000000500000000000000962500000000000000009999123100000010000000000000BRCESPACNOR3160
012013102102CESP6       010CESP        PNB     N1   R$  000000000225200000000022660000000002201000000000223800000000022400000000002234000000000224102191000000000000447900000000001002486800000000000000009999123100000010000000000000BRCESPACNPB4119
012013102196CESP6F      020CESP        PNB     N1   R$  000000000225400000000022540000000002237000000000224200000000022370000000002240000000000224900017000000000000000519000000000001163909000000000000009999123100000010000000000000BRCESPACNPB4119
012013102162CESP6T      030CESP        PNB     N1031R$  000000000226200000000022630000000002262000000000226200000000022630000000000000000000000000000002000000000000002000000000000004524573000000000000009999123100000010000000000000BRCESPACNPB4119
012013102182CESPW22     080CESPE       PNB     N1000R$  000000000002300000000000230000000000023000000000002300000000000230000000000000000000000000000002000000000000150000000000000003450000000000000220002013111800000010000000000000BRCESPACNPB4119
012013102102CGAS5       010COMGAS      PNA          R$  000000000578300000000058090000000005759000000000578700000000057960000000005796000000000580000030000000000000006500000000000037619900000000000000009999123100000010000000000000BRCGASACNPA3129
012013102196CGAS5F      020COMGAS      PNA          R$  000000000575000000000058100000000005505000000000571800000000057000000000005518000000000580000007000000000000000126000000000000720536000000000000009999123100000010000000000000BRCGASACNPA3129
012013102102CGRA3       010GRAZZIOTIN  ON           R$  000000000164500000000016490000000001645000000000164700000000016480000000001615000000000164900003000000000000000800000000000001318100000000000000009999123100000010000000000000BRCGRAACNOR2061
012013102102CGRA4       010GRAZZIOTIN  PN           R$  000000000177500000000017900000000001775000000000178400000000017800000000001765000000000178000011000000000000003000000000000005352000000000000000009999123100000010000000000000BRCGRAACNPR9061
012013102196CGRA4F      020GRAZZIOTIN  PN           R$  000000000177400000000017740000000001774000000000177400000000017740000000001774000000000181800003000000000000000015000000000000026610000000000000009999123100000010000000000000BRCGRAACNPR9061
012013102102CIEL3       010CIELO       ON      NM   R$  000000000658000000000066300000000006539000000000659500000000065800000000006580000000000658106389000000000001417300000000009347850600000000000000009999123100000010000000000000BRCIELACNOR3112
012013102196CIEL3F      020CIELO       ON      NM   R$  000000000659000000000066340000000006548000000000659800000000065910000000006570000000000663500177000000000000003969000000000026191470000000000000009999123100000010000000000000BRCIELACNOR3112
012013102138CIELJ56E    012CIEL        ON      NM000R$  000000000549400000000054940000000005494000000000549400000000054940000000000000000000000000000001000000000000001800000000000009889200000000000549402013102100000010000000000000BRCIELACNOR3112
012013102138CIELJ57E    012CIEL        ON      NM000R$  000000000559400000000055940000000005594000000000559400000000055940000000000000000000000000000001000000000000010000000000000055940000000000000559402013102100000010000000000000BRCIELACNOR3112
012013102138CIELJ58E    012CIEL        ON      NM000R$  000000000569400000000056940000000005694000000000569400000000056940000000000000000000000000000002000000000000006000000000000034164000000000000569402013102100000010000000000000BRCIELACNOR3112
012013102138CIELJ59E    012CIEL        ON      NM000R$  000000000579400000000057940000000005794000000000579400000000057940000000000000000000000000000004000000000000018100000000000104871400000000000579402013102100000010000000000000BRCIELACNOR3112
012013102138CIELJ60E    012CIEL        ON      NM000R$  000000000589400000000058940000000005894000000000589400000000058940000000000000000000000000000009000000000000283300000000001669770200000000000589402013102100000010000000000000BRCIELACNOR3112
012013102138CIELJ63E    012CIEL        ON      NM000R$  000000000630000000000063000000000006300000000000630000000000063000000000000000000000000000000003000000000000001000000000000006300000000000000630002013102100000010000000000000BRCIELACNOR3112
012013102178CIELK65     070CIEL        ON      NM000R$  000000000022100000000002210000000000221000000000022100000000002210000000000000000000000000000001000000000000010000000000000002210000000000000650002013111800000010000000000000BRCIELACNOR3112
012013102178CIELL69     070CIEL        ON      NM000R$  000000000009800000000000980000000000098000000000009800000000000980000000000000000000000000000001000000000000150000000000000014700000000000000690002013121600000010000000000000BRCIELACNOR3112
012013102182CIELX17     080CIELE       ON      NM000R$  000000000014200000000001420000000000142000000000014200000000001420000000000000000000000000000001000000000000150000000000000021300000000000000655002013121600000010000000000000BRCIELACNOR3112
012013102182CIELX63     080CIELE       ON      NM000R$  000000000007200000000000720000000000072000000000007200000000000720000000000000000000000000000001000000000000150000000000000010800000000000000630002013121600000010000000000000BRCIELACNOR3112
012013102102CLSC4       010CELESC      PN      N2   R$  000000000184600000000018500000000001835000000000184500000000018500000000001835000000000185000019000000000000003700000000000006826800000000000000009999123100000010000000000000BRCLSCACNPR3107
012013102196CLSC4F      020CELESC      PN      N2   R$  000000000182100000000019740000000001821000000000185300000000018500000000001829000000000189800008000000000000000261000000000000483820000000000000009999123100000010000000000000BRCLSCACNPR3107
012013102102CMIG3       010CEMIG       ON      N1   R$  000000000198600000000019930000000001960000000000197600000000019700000000001963000000000197000161000000000000037900000000000074910200000000000000009999123100000010000000000000BRCMIGACNOR6208
012013102196CMIG3F      020CEMIG       ON      N1   R$  000000000203100000000020310000000001960000000000198300000000019600000000001960000000000197100029000000000000000511000000000001013355000000000000009999123100000010000000000000BRCMIGACNOR6208
012013102102CMIG4       010CEMIG       PN      N1   R$  000000000203100000000020360000000002009000000000201500000000020110000000002011000000000201705276000000000001666200000000003358986600000000000000009999123100000010000000000000BRCMIGACNPR3208
012013102196CMIG4F      020CEMIG       PN      N1   R$  000000000203700000000020370000000002010000000000201700000000020120000000002011000000000201200146000000000000002858000000000005766300000000000000009999123100000010000000000000BRCMIGACNPR3208
012013102162CMIG4T      030CEMIG       PN      N1016R$  000000000202400000000020260000000002024000000000202400000000020260000000000000000000000000000004000000000000007500000000000015181026000000000000009999123100000010000000000000BRCMIGACNPR3208
012013102162CMIG4T      030CEMIG       PN      N1031R$  000000000204600000000020470000000002046000000000204600000000020470000000000000000000000000000002000000000000001000000000000002046029000000000000009999123100000010000000000000BRCMIGACNPR3208
012013102162CMIG4T      030CEMIG       PN      N1060R$  000000000204100000000020420000000002041000000000204100000000020420000000000000000000000000000002000000000000000400000000000000816466000000000000009999123100000010000000000000BRCMIGACNPR3208
012013102138CMIGJ18E    012CMIG        PN      N1000R$  000000000180000000000018000000000001800000000000180000000000018000000000000000000000000000000003000000000000001300000000000002340000000000000180002013102100000010000000000000BRCMIGACNPR3208
012013102138CMIGJ19E    012CMIG        PN      N1000R$  000000000190000000000019000000000001900000000000190000000000019000000000000000000000000000000032000000000000071700000000000136230000000000000190002013102100000010000000000000BRCMIGACNPR3208
012013102138CMIGJ20E    012CMIG        PN      N1000R$  000000000200000000000020000000000002000000000000200000000000020000000000000000000000000000000022000000000000141300000000000282600000000000000200002013102100000010000000000000BRCMIGACNPR3208
012013102138CMIGJ48E    012CMIG        PN      N1000R$  000000000185000000000018500000000001850000000000185000000000018500000000000000000000000000000001000000000000003000000000000005550000000000000185002013102100000010000000000000BRCMIGACNPR3208
012013102138CMIGJ49E    012CMIG        PN      N1000R$  000000000195000000000019500000000001950000000000195000000000019500000000000000000000000000000004000000000000004500000000000008775000000000000195002013102100000010000000000000BRCMIGACNPR3208
012013102178CMIGK20     070CMIG        PN      N1000R$  000000000007200000000000800000000000058000000000006200000000000600000000000060000000000007500038000000000000055900000000000003481800000000000200002013111800000010000000000000BRCMIGACNPR3208
012013102178CMIGK21     070CMIG        PN      N1000R$  000000000001800000000000180000000000015000000000001500000000000150000000000000000000000003000003000000000000120300000000000001805400000000000210002013111800000010000000000000BRCMIGACNPR3208
012013102142CMIGV21E    013CMIGE       PN      N1000R$  000000000210000000000021000000000002100000000000210000000000021000000000000000000000000000000001000000000000008000000000000016800000000000000210002013102100000010000000000000BRCMIGACNPR3208
012013102142CMIGV54E    013CMIGE       PN      N1000R$  000000000204400000000020440000000002044000000000204400000000020440000000000000000000000000000002000000000000006770000000000013837880000000000204402013102100000010000000000000BRCMIGACNPR3208
012013102112CNES11B     010FII CENESP  CI      MB   R$  000000001300000000000130000000000012664000000001282800000000129900000000012701000000001299000011000000000000000632000000000008107334000000000000009999123100000010000000000000BRCNESCTF001126
012013102102COCE3       010COELCE      ON           R$  000000000403000000000040300000000004030000000000403000000000040300000000000001000000000403000001000000000000000100000000000000403000000000000000009999123100000010000000000000BRCOCEACNOR0132
012013102102COCE5       010COELCE      PNA          R$  000000000391500000000039270000000003903000000000391900000000039250000000003915000000000392500133000000000000023300000000000091331800000000000000009999123100000010000000000000BRCOCEACNPA3133
012013102196COCE5F      020COELCE      PNA          R$  000000000392300000000039990000000003901000000000392300000000039010000000003915000000000393300022000000000000000349000000000001369450000000000000009999123100000010000000000000BRCOCEACNPA3133
012013102102CPFE3       010CPFL ENERGIAON      NM   R$  000000000198900000000019910000000001974000000000198200000000019780000000001976000000000197802680000000000000535500000000001061512400000000000000009999123100000010000000000000BRCPFEACNOR0122
012013102196CPFE3F      020CPFL ENERGIAON      NM   R$  000000000198500000000019990000000001971000000000198100000000019990000000001970000000000199900014000000000000000439000000000000869710000000000000009999123100000010000000000000BRCPFEACNOR0122
012013102142CPFEV21E    013CPFEE       ON      NM000R$  000000000206200000000020620000000002062000000000206200000000020620000000000000000000000000000002000000000000007000000000000014434000000000000206202013102100000010000000000000BRCPFEACNOR0122
012013102102CPLE3       010COPEL       ON      N1   R$  000000000220600000000022440000000002206000000000222700000000022390000000002210000000000223900092000000000000018200000000000040545900000000000000009999123100000010000000000000BRCPLEACNOR8128
012013102102CPLE6       010COPEL       PNB     N1   R$  000000000307900000000030810000000003041000000000306700000000030700000000003065000000000307001048000000000000316000000000000969260100000000000000009999123100000010000000000000BRCPLEACNPB9125
012013102196CPLE6F      020COPEL       PNB     N1   R$  000000000306700000000031190000000003050000000000307800000000031140000000003051000000000311400010000000000000000367000000000001129899000000000000009999123100000010000000000000BRCPLEACNPB9125
012013102182CPLEX30     080CPLEE       PNB     N1000R$  000000000003600000000000360000000000036000000000003600000000000360000000000000000000000000000002000000000000100000000000000003600000000000000300002013121600000010000000000000BRCPLEACNPB9125
