00COTAHIST.2013BOVESPA 20130704                                                                                                                                                                                                                      
012013070402ABCB4       010ABC BRASIL  PN  EJS N2   R$  000000000127800000000013000000000001272000000000127300000000012720000000001272000000000129700235000000000000111300000000000141794100000000000000009999123100000010000000000000BRABCBACNPR4120
012013070496ABCB4F      020ABC BRASIL  PN  EJS N2   R$  000000000129000000000012900000000001267000000000127000000000012670000000001268000000000132000002000000000000000050000000000000063534000000000000009999123100000010000000000000BRABCBACNPR4120
012013070412ABCP11      010FII ABC IMOBCI  ER       R$  000000000096200000000009620000000000962000000000096200000000009620000000000880000000000096200002000000000000000018000000000000017316000000000000009999123100000010000000000000BRABCPCTF000213
012013070402ABRE11      010ABRIL EDUCA UNT     N2   R$  000000000375800000000037580000000003649000000000373300000000037330000000003733000000000374000745000000000000114200000000000426312700000000000000009999123100000010000000000000BRABRECDAM15102
012013070496ABRE11F     020ABRIL EDUCA UNT     N2   R$  000000000371300000000037500000000003701000000000372100000000037010000000003702000000000388500008000000000000000224000000000000833590000000000000009999123100000010000000000000BRABRECDAM15102
012013070402AEDU3       010ANHANGUERA  ON      NM   R$  000000000123600000000012550000000001212000000000122700000000012290000000001228000000000122901996000000000001303000000000001599164400000000000000009999123100000010000000000000BRAEDUACNOR9107
012013070496AEDU3F      020ANHANGUERA  ON      NM   R$  000000000125000000000012500000000001223000000000123700000000012250000000001200000000000123000012000000000000000420000000000000519022000000000000009999123100000010000000000000BRAEDUACNOR9107
012013070462AEDU3T      030ANHANGUERA  ON      NM030R$  000000000123800000000012390000000001238000000000123800000000012390000000000000000000000000000002000000000000003200000000000003961653000000000000009999123100000010000000000000BRAEDUACNOR9107
012013070412AEFI11      010FII AESAPAR CI  ER       R$  000000001225000000000123490000000012250000000001226100000000123490000000012350000000001238500019000000000000001117000000000013696037000000000000009999123100000010000000000000BRAEFICTF002119
012013070402AELP3       010AES ELPA    ON           R$  000000000076600000000008140000000000766000000000081200000000008140000000000683000000000079900011000000000000031300000000000025434100000000000000009999123100000010000000000000BRAELPACNOR2119
012013070462AELP3T      030AES ELPA    ON        032R$  000000000082000000000008210000000000820000000000082000000000008210000000000000000000000000000002000000000000030000000000000024605592000000000000009999123100000010000000000000BRAELPACNOR2119
012013070412AGCX11      010FII AG CAIXACI  ER       R$  000000010100000000001010000000000100200000000010095000000001010000000000100202000000010100000005000000000000000163000000000016455000000000000000009999123100000010000000000000BRAGCXCTF003108
012013070402AGEN11      010AGRENCO     DR3          R$  000000000004100000000000430000000000041000000000004200000000000430000000000042000000000004300459000000000001436500000000000060674900000000000000009999123100000010000000000000BRAGENBDR001100
012013070496AGEN11F     020AGRENCO     DR3          R$  000000000004700000000000470000000000047000000000004700000000000470000000000042000000000004900001000000000000000010000000000000000470000000000000009999123100000010000000000000BRAGENBDR001100
012013070402AGRO3       010BRASILAGRO  ON      NM   R$  000000000107800000000010890000000001051000000000106100000000010630000000001063000000000106700026000000000000021800000000000023151200000000000000009999123100000010000000000000BRAGROACNOR7102
012013070496AGRO3F      020BRASILAGRO  ON      NM   R$  000000000108500000000010850000000001085000000000108500000000010850000000000000000000000114900001000000000000000017000000000000018445000000000000009999123100000010000000000000BRAGROACNOR7102
012013070462AGRO3T      030BRASILAGRO  ON      NM090R$  000000000108400000000010850000000001084000000000108400000000010850000000000000000000000000000002000000000000010000000000000010844726000000000000009999123100000010000000000000BRAGROACNOR7102
012013070402ALLL3       010ALL AMER LATON      NM   R$  000000000090800000000009080000000000875000000000088700000000008800000000000880000000000088304081000000000001955800000000001734821700000000000000009999123100000010000000000000BRALLLACNOR6118
012013070496ALLL3F      020ALL AMER LATON      NM   R$  000000000090000000000009000000000000877000000000088500000000008790000000000877000000000087900045000000000000001214000000000001075488000000000000009999123100000010000000000000BRALLLACNOR6118
012013070482ALLLT38     080ALLLE       ON      NM000R$  000000000001400000000000140000000000014000000000001400000000000140000000000000000000000000000001000000000000110600000000000001548400000000000085002013081900000010000000000000BRALLLACNOR6118
012013070482ALLLT9      080ALLLE       ON      NM000R$  000000000003200000000000320000000000032000000000003200000000000320000000000000000000000000000001000000000000110600000000000003539200000000000090002013081900000010000000000000BRALLLACNOR6118
012013070412ALMI11B     010FII TORRE ALCI  ER  MB   R$  000000032100000000003290000000000320000000000032198500000003200000000000317601000000032000000016000000000000000069000000000022216983000000000000009999123100000010000000000000BRALMICTF003203
012013070402ALPA3       010ALPARGATAS  ON      N1   R$  000000000112100000000011520000000001095000000000111900000000011200000000001120000000000116000010000000000000080100000000000089707900000000000000009999123100000010000000000000BRALPAACNOR0202
012013070402ALPA4       010ALPARGATAS  PN      N1   R$  000000000138900000000014120000000001358000000000137800000000014120000000001412000000000141500648000000000000470600000000000648775600000000000000009999123100000010000000000000BRALPAACNPR7202
012013070496ALPA4F      020ALPARGATAS  PN      N1   R$  000000000139000000000013980000000001358000000000137100000000013980000000001379000000000145000028000000000000000577000000000000791189000000000000009999123100000010000000000000BRALPAACNPR7202
012013070402ALSC3       010ALIANSCE    ON      NM   R$  000000000181900000000018590000000001818000000000183300000000018300000000001825000000000183001293000000000000342500000000000627937700000000000000009999123100000010000000000000BRALSCACNOR0104
012013070496ALSC3F      020ALIANSCE    ON      NM   R$  000000000184300000000018430000000001706000000000179400000000017060000000001811000000000190000003000000000000000121000000000000217105000000000000009999123100000010000000000000BRALSCACNOR0104
012013070402ALUP11      010ALUPAR      UNT     N2   R$  000000000187000000000018700000000001852000000000185900000000018600000000001855000000000186000249000000000000103900000000000193248800000000000000009999123100000010000000000000BRALUPCDAM15100
012013070496ALUP11F     020ALUPAR      UNT     N2   R$  000000000190000000000019160000000001820000000000186200000000018200000000001820000000000190000047000000000000001614000000000003006008000000000000009999123100000010000000000000BRALUPCDAM15100
012013070402AMAR3       010LOJAS MARISAON      NM   R$  000000000223600000000022720000000002196000000000224600000000022690000000002269000000000227600566000000000000288800000000000648898900000000000000009999123100000010000000000000BRAMARACNOR4109
012013070496AMAR3F      020LOJAS MARISAON      NM   R$  000000000224200000000022430000000002225000000000223900000000022250000000002210000000000226500003000000000000000114000000000000255329000000000000009999123100000010000000000000BRAMARACNOR4109
012013070462AMAR3T      030LOJAS MARISAON      NM120R$  000000000230500000000023060000000002305000000000230500000000023060000000000000000000000000000002000000000000014000000000000032282558000000000000009999123100000010000000000000BRAMARACNOR4109
012013070478AMARL56     070AMAR        ON      NM000R$  000000000007200000000000720000000000072000000000007200000000000720000000000000000000000000000001000000000000159300000000000011469600000000000265002013121600000010000000000000BRAMARACNOR4109
012013070482AMARX20     080AMARE       ON      NM000R$  000000000008600000000000860000000000086000000000008600000000000860000000000000000000000000000001000000000000159300000000000013699800000000000200002013121600000010000000000000BRAMARACNOR4109
012013070482AMARX22     080AMARE       ON      NM000R$  000000000015000000000001500000000000150000000000015000000000001500000000000000000000000000000002000000000000159300000000000023895000000000000220002013121600000010000000000000BRAMARACNOR4109
012013070402AMBV3       010AMBEV       ON           R$  000000000808600000000081700000000008015000000000806600000000080200000000008020000000000807200364000000000000059500000000000479948500000000000000009999123100000010000000000000BRAMBVACNOR4153
012013070496AMBV3F      020AMBEV       ON           R$  000000000812000000000081200000000008010000000000808300000000080100000000007870000000000819900035000000000000000814000000000006579924000000000000009999123100000010000000000000BRAMBVACNOR4153
012013070462AMBV3T      030AMBEV       ON        018R$  000000000816500000000081660000000008165000000000816500000000081660000000000000000000000000000002000000000000001000000000000008165099000000000000009999123100000010000000000000BRAMBVACNOR4153
012013070402AMBV4       010AMBEV       PN           R$  000000000816500000000082270000000008052000000000811700000000080760000000008076000000000811002830000000000000723000000000005869166400000000000000009999123100000010000000000000BRAMBVACNPR1153
012013070496AMBV4F      020AMBEV       PN           R$  000000000810100000000082380000000008032000000000813200000000081780000000008053000000000817800111000000000000002568000000000020882181000000000000009999123100000010000000000000BRAMBVACNPR1153
012013070462AMBV4T      030AMBEV       PN        018R$  000000000810500000000081060000000008105000000000810500000000081060000000000000000000000000000002000000000000005000000000000040525368000000000000009999123100000010000000000000BRAMBVACNPR1153
012013070462AMBV4T      030AMBEV       PN        032R$  000000000816100000000081620000000008161000000000816100000000081620000000000000000000000000000002000000000000000200000000000001632312000000000000009999123100000010000000000000BRAMBVACNPR1153
012013070462AMBV4T      030AMBEV       PN        060R$  000000000827200000000082730000000008272000000000827200000000082730000000000000000000000000000002000000000000000200000000000001654418000000000000009999123100000010000000000000BRAMBVACNPR1153
012013070462AMBV4T      030AMBEV       PN        120R$  000000000834700000000083480000000008347000000000834700000000083480000000000000000000000000000002000000000000010000000000000083475360000000000000009999123100000010000000000000BRAMBVACNPR1153
012013070478AMBVJ91     070AMBV        PN        000R$  000000000012700000000001280000000000127000000000012700000000001280000000000000000000000000000003000000000000050000000000000006380000000000000910002013102100000010000000000000BRAMBVACNPR1153
012013070478AMBVK92     070AMBV        PN        000R$  000000000017100000000001720000000000171000000000017100000000001720000000000000000000000000000003000000000000050000000000000008586500000000000920002013111800000010000000000000BRAMBVACNPR1153
012013070482AMBVT10     080AMBVE       PN        000R$  000000000177500000000017750000000001775000000000177500000000017750000000000000000000000000000002000000000000004400000000000007810000000000001000002013081900000010000000000000BRAMBVACNPR1153
012013070402ARTR3       010ARTERIS     ON      NM   R$  000000000197800000000020800000000001978000000000202300000000020160000000002014000000000201603208000000000000896000000000001812689000000000000000009999123100000010000000000000BRARTRACNOR3101
012013070496ARTR3F      020ARTERIS     ON      NM   R$  000000000186400000000020800000000001864000000000201500000000020800000000002016000000000207900058000000000000001513000000000003049028000000000000009999123100000010000000000000BRARTRACNOR3101
012013070402ARZZ3       010AREZZO CO   ON  EJ  NM   R$  000000000320400000000032840000000003204000000000325700000000032790000000003260000000000327900870000000000000162300000000000528627700000000000000009999123100000010000000000000BRARZZACNOR3108
012013070496ARZZ3F      020AREZZO CO   ON  EJ  NM   R$  000000000327500000000032750000000003275000000000327500000000032750000000003004000000000329900001000000000000000088000000000000288200000000000000009999123100000010000000000000BRARZZACNOR3108
012013070402ATTB11B     010ATT INC     DRN     MB   R$  000000000800000000000080000000000008000000000000800000000000080000000000007612000000000783900001000000000000001000000000000008000000000000000000009999123100000010000000000000BRATTBBDR007103
012013070402AUTM3       010AUTOMETAL   ON      NM   R$  000000000169400000000017800000000001680000000000172300000000017210000000001721000000000174201064000000000000296200000000000510509000000000000000009999123100000010000000000000BRAUTMACNOR8109
012013070496AUTM3F      020AUTOMETAL   ON      NM   R$  000000000171100000000017510000000001705000000000172600000000017510000000001682000000000184900004000000000000000111000000000000191670000000000000009999123100000010000000000000BRAUTMACNOR8109
012013070402BAZA3       010AMAZONIA    ON           R$  000000000003300000000000330000000000033000000000003300000000000330000000000032000000000003300003000000000000007000000000000000231000000000000000009999123100000010000000000000BRBAZAACNOR0163
012013070402BBAS3       010BRASIL      ON      NM   R$  000000000205900000000020800000000002041000000000206200000000020610000000002061000000000206211953000000000004689000000000009670105500000000000000009999123100000010000000000000BRBBASACNOR3237
012013070496BBAS3F      020BRASIL      ON      NM   R$  000000000205000000000020790000000002044000000000206100000000020670000000002058000000000206700188000000000000005276000000000010877669000000000000009999123100000010000000000000BRBBASACNOR3237
012013070462BBAS3T      030BRASIL      ON      NM032R$  000000000206500000000020750000000002065000000000206800000000020750000000000000000000000000000004000000000000001500000000000003103429000000000000009999123100000010000000000000BRBBASACNOR3237
012013070462BBAS3T      030BRASIL      ON      NM090R$  000000000211000000000021110000000002107000000000210800000000021080000000000000000000000000000004000000000000004600000000000009697273000000000000009999123100000010000000000000BRBBASACNOR3237
012013070462BBAS3T      030BRASIL      ON      NM180R$  000000000216600000000021670000000002166000000000216600000000021670000000000000000000000000000002000000000000002000000000000004333987000000000000009999123100000010000000000000BRBBASACNOR3237
012013070462BBAS3T      030BRASIL      ON      NM182R$  000000000213800000000021390000000002138000000000213800000000021390000000000000000000000000000002000000000000000100000000000000213807000000000000009999123100000010000000000000BRBBASACNOR3237
012013070478BBASG19     070BBAS        ON      NM000R$  000000000018700000000001870000000000187000000000018700000000001870000000000000000000000000000002000000000000004000000000000000748000000000000190002013071500000010000000000000BRBBASACNOR3237
012013070478BBASG20     070BBAS  FM    ON      NM000R$  000000000011100000000001250000000000093000000000011100000000001050000000000090000000000012000087000000000000151700000000000016976600000000000197602013071500000010000000000000BRBBASACNOR3236
012013070478BBASG21     070BBAS  FM    ON      NM000R$  000000000009900000000001120000000000082000000000009700000000000940000000000066000000000015000151000000000000204600000000000019958400000000000199202013071500000010000000000000BRBBASACNOR3232
012013070478BBASG22     070BBAS  FM    ON      NM000R$  000000000003100000000000360000000000018000000000002800000000000240000000000024000000000002600174000000000000315900000000000008991900000000000211702013071500000010000000000000BRBBASACNOR3233
012013070478BBASG23     070BBAS  FM    ON      NM000R$  000000000000700000000000070000000000002000000000000300000000000020000000000002000000000000400075000000000000144500000000000000485200000000000226602013071500000010000000000000BRBBASACNOR3235
012013070478BBASG24     070BBAS  FM    ON      NM000R$  000000000000300000000000040000000000002000000000000200000000000020000000000001000000000000300019000000000000047900000000000000140600000000000231702013071500000010000000000000BRBBASACNOR3233
012013070478BBASG25     070BBAS        ON      NM000R$  000000000000100000000000020000000000001000000000000100000000000010000000000000000000000000100006000000000000027500000000000000049500000000000246602013071500000010000000000000BRBBASACNOR3235
012013070478BBASG26     070BBAS        ON      NM000R$  000000000000100000000000010000000000001000000000000100000000000010000000000000000000000000100001000000000000002000000000000000002000000000000251702013071500000010000000000000BRBBASACNOR3233
012013070478BBASH20     070BBAS  FM    ON      NM000R$  000000000014400000000001520000000000124000000000013900000000001400000000000122000000000024900141000000000000169100000000000023659800000000000200002013081900000010000000000000BRBBASACNOR3237
012013070478BBASH21     070BBAS  FM    ON      NM000R$  000000000009700000000001050000000000084000000000008900000000000930000000000007000000000000000098000000000000454000000000000040634900000000000207602013081900000010000000000000BRBBASACNOR3236
012013070478BBASH22     070BBAS  FM    ON      NM000R$  000000000006100000000000610000000000044000000000005200000000000500000000000048000000000005500086000000000000425300000000000022152700000000000217602013081900000010000000000000BRBBASACNOR3236
012013070478BBASH23     070BBAS  FM    ON      NM000R$  000000000002900000000000290000000000022000000000002500000000000250000000000020000000000002800042000000000000062200000000000001596900000000000227602013081900000010000000000000BRBBASACNOR3236
012013070478BBASH24     070BBAS  FM    ON      NM000R$  000000000002700000000000270000000000016000000000001900000000000190000000000016000000000002100068000000000000103200000000000001975300000000000231702013081900000010000000000000BRBBASACNOR3233
012013070478BBASH25     070BBAS        ON      NM000R$  000000000001100000000000110000000000010000000000001000000000000100000000000009000000000001500006000000000000003300000000000000035000000000000241702013081900000010000000000000BRBBASACNOR3233
012013070478BBASH26     070BBAS        ON      NM000R$  000000000000500000000000050000000000005000000000000500000000000050000000000004000000000001700004000000000000025000000000000000125000000000000256602013081900000010000000000000BRBBASACNOR3235
012013070478BBASI19     070BBAS        ON      NM000R$  000000000024200000000002420000000000242000000000024200000000002420000000000000000000000000000001000000000000001200000000000000290400000000000190002013091600000010000000000000BRBBASACNOR3237
012013070478BBASI22     070BBAS        ON      NM000R$  000000000006900000000000690000000000069000000000006900000000000690000000000007000000000019000001000000000000000200000000000000013800000000000217602013091600000010000000000000BRBBASACNOR3236
012013070478BBASI26     070BBAS        ON      NM000R$  000000000000800000000000080000000000008000000000000800000000000080000000000004000000000009800002000000000000000700000000000000005600000000000256602013091600000010000000000000BRBBASACNOR3235
012013070478BBASJ56     070BBAS        ON      NM000R$  000000000001500000000000150000000000015000000000001500000000000150000000000000000000000000000012000000000000035200000000000000528000000000000261602013102100000010000000000000BRBBASACNOR3235
012013070482BBASS19     080BBASE FM    ON      NM000R$  000000000001100000000000110000000000011000000000001100000000000110000000000000000000000001200003000000000000007200000000000000079200000000000190002013071500000010000000000000BRBBASACNOR3237
012013070482BBASS20     080BBASE FM    ON      NM000R$  000000000002300000000000230000000000018000000000002000000000000180000000000000000000000002500039000000000000078200000000000001607300000000000197602013071500000010000000000000BRBBASACNOR3236
012013070482BBASS21     080BBASE FM    ON      NM000R$  000000000003100000000000310000000000022000000000002400000000000220000000000011000000000002500056000000000000111000000000000002746400000000000199202013071500000010000000000000BRBBASACNOR3232
012013070482BBASS22     080BBASE FM    ON      NM000R$  000000000008400000000000870000000000065000000000007600000000000780000000000042000000000007800139000000000000280000000000000021459100000000000211702013071500000010000000000000BRBBASACNOR3233
012013070482BBASS24     080BBASE       ON      NM000R$  000000000025800000000002580000000000250000000000025000000000002500000000000200000000000000000010000000000000010000000000000002508000000000000231702013071500000010000000000000BRBBASACNOR3233
012013070482BBAST17     080BBASE       ON      NM000R$  000000000001300000000000130000000000013000000000001300000000000130000000000000000000000000000001000000000000000500000000000000006500000000000170002013081900000010000000000000BRBBASACNOR3237
012013070482BBAST19     080BBASE FM    ON      NM000R$  000000000003800000000000380000000000029000000000003000000000000350000000000000000000000000000049000000000000397600000000000012026900000000000190002013081900000010000000000000BRBBASACNOR3237
012013070482BBAST20     080BBASE FM    ON      NM000R$  000000000006700000000000690000000000054000000000005800000000000610000000000000000000000008500064000000000000105000000000000006177500000000000200002013081900000010000000000000BRBBASACNOR3237
012013070482BBAST21     080BBASE FM    ON      NM000R$  000000000009900000000001000000000000081000000000009000000000000940000000000070000000000000000082000000000000132300000000000011911100000000000207602013081900000010000000000000BRBBASACNOR3236
012013070482BBAST22     080BBASE FM    ON      NM000R$  000000000015600000000001570000000000134000000000014600000000001440000000000020000000000000000168000000000000184600000000000027062100000000000217602013081900000010000000000000BRBBASACNOR3236
012013070482BBAST24     080BBASE       ON      NM000R$  000000000025500000000002570000000000242000000000025200000000002570000000000000000000000000000014000000000000017400000000000004400800000000000231702013081900000010000000000000BRBBASACNOR3233
012013070402BBDC3       010BRADESCO    ON  EJ  N1   R$  000000000301700000000030440000000002980000000000300700000000029800000000002980000000000299002700000000000001473700000000004432065200000000000000009999123100000010000000000000BRBBDCACNOR1604
012013070496BBDC3F      020BRADESCO    ON  EJ  N1   R$  000000000303600000000030390000000002952000000000300300000000030390000000002934000000000303900050000000000000001313000000000003944243000000000000009999123100000010000000000000BRBBDCACNOR1604
012013070402BBDC4       010BRADESCO    PN  EJ  N1   R$  000000000275200000000027580000000002700000000000272800000000027060000000002706000000000270711755000000000006396300000000017454024600000000000000009999123100000010000000000000BRBBDCACNPR8604
012013070496BBDC4F      020BRADESCO    PN  EJ  N1   R$  000000000276500000000027650000000002700000000000272700000000027100000000002702000000000274000200000000000000004651000000000012684339000000000000009999123100000010000000000000BRBBDCACNPR8604
012013070462BBDC4T      030BRADESCO    PN  EJ  N1032R$  000000000275700000000027580000000002724000000000272700000000027250000000000000000000000000000004000000000000002200000000000006001292000000000000009999123100000010000000000000BRBBDCACNPR8604
012013070462BBDC4T      030BRADESCO    PN  EJ  N1060R$  000000000274600000000027470000000002746000000000274600000000027470000000000000000000000000000002000000000000001500000000000004119852000000000000009999123100000010000000000000BRBBDCACNPR8604
012013070462BBDC4T      030BRADESCO    PN  EJ  N1090R$  000000000279300000000027940000000002755000000000276400000000027560000000000000000000000000000008000000000000027200000000000075187324000000000000009999123100000010000000000000BRBBDCACNPR8604
012013070462BBDC4T      030BRADESCO    PN  EJ  N1120R$  000000000282000000000028210000000002781000000000279000000000027820000000000000000000000000000008000000000000009150000000000025529331000000000000009999123100000010000000000000BRBBDCACNPR8604
012013070462BBDC4T      030BRADESCO    PN  EJ  N1182R$  000000000286200000000028630000000002832000000000285700000000028330000000000000000000000000000004000000000000000600000000000001714426000000000000009999123100000010000000000000BRBBDCACNPR8604
012013070478BBDCB32     070BBDC    /EJ PN      N1000R$  000000000024000000000002400000000000240000000000024000000000002400000000000000000000000000000001000000000000001200000000000000288000000000000288302014021700000010000000000000BRBBDCACNPR8598
012013070478BBDCG14     070BBDC    /EJ PN      N1000R$  000000000000100000000000010000000000001000000000000100000000000010000000000000000000000000200001000000000000004000000000000000004000000000000337802013071500000010000000000000BRBBDCACNPR8601
012013070478BBDCG26     070BBDC    /EJ PN      N1000R$  000000000018200000000001820000000000150000000000016000000000001500000000000000000000000025000007000000000000009000000000000001446000000000000257802013071500000010000000000000BRBBDCACNPR8601
012013070478BBDCG27     070BBDC    /EJ PN      N1000R$  000000000011300000000001130000000000073000000000009600000000000760000000000000000000000009500264000000000000326800000000000031625600000000000267802013071500000010000000000000BRBBDCACNPR8601
012013070478BBDCG28     070BBDC    /EJ PN      N1000R$  000000000005000000000000500000000000025000000000003900000000000270000000000027000000000004000090000000000000107300000000000004214300000000000278002013071500000010000000000000BRBBDCACNPR8602
012013070478BBDCG29     070BBDC    /EJ PN      N1000R$  000000000002000000000000200000000000007000000000001300000000000080000000000005000000000002500084000000000000100100000000000001307500000000000288002013071500000010000000000000BRBBDCACNPR8602
012013070478BBDCG3      070BBDC    /EJ PN      N1000R$  000000000000100000000000010000000000001000000000000100000000000010000000000000000000000000500009000000000000025500000000000000025500000000000327602013071500000010000000000000BRBBDCACNPR8600
012013070478BBDCG30     070BBDC    /EJ PN      N1000R$  000000000000400000000000040000000000002000000000000200000000000030000000000002000000000000600026000000000000047200000000000000136000000000000297802013071500000010000000000000BRBBDCACNPR8601
012013070478BBDCG31     070BBDC    /EJ PN      N1000R$  000000000000200000000000020000000000002000000000000200000000000020000000000001000000000000300021000000000000042600000000000000085200000000000307802013071500000010000000000000BRBBDCACNPR8601
012013070478BBDCG35     070BBDC    /EJ PN      N1000R$  000000000000100000000000010000000000001000000000000100000000000010000000000000000000000000100001000000000000010000000000000000010000000000000347602013071500000010000000000000BRBBDCACNPR8600
012013070478BBDCG36     070BBDC    /EJ PN      N1000R$  000000000000100000000000010000000000001000000000000100000000000010000000000000000000000000000002000000000000008000000000000000008000000000000357602013071500000010000000000000BRBBDCACNPR8600
012013070478BBDCH26     070BBDC    /EJ PN      N1000R$  000000000023400000000002340000000000208000000000022100000000002080000000000180000000000000000002000000000000000200000000000000044200000000000258002013081900000010000000000000BRBBDCACNPR8602
012013070478BBDCH27     070BBDC    /EJ PN      N1000R$  000000000017100000000001800000000000142000000000015700000000001460000000000000000000000000000213000000000000203100000000000032056300000000000268002013081900000010000000000000BRBBDCACNPR8602
012013070478BBDCH28     070BBDC    /EJ PN      N1000R$  000000000012200000000001220000000000090000000000010000000000000930000000000000000000000010000188000000000000206200000000000020670700000000000278002013081900000010000000000000BRBBDCACNPR8602
012013070478BBDCH29     070BBDC    /EJ PN      N1000R$  000000000007200000000000770000000000052000000000006100000000000550000000000048000000000000000276000000000000435300000000000026801900000000000288002013081900000010000000000000BRBBDCACNPR8602
012013070478BBDCH30     070BBDC    /EJ PN      N1000R$  000000000004700000000000470000000000027000000000003300000000000290000000000026000000000003800049000000000000071700000000000002431900000000000298002013081900000010000000000000BRBBDCACNPR8602
012013070478BBDCH31     070BBDC    /EJ PN      N1000R$  000000000002100000000000210000000000013000000000001600000000000140000000000011000000000000000026000000000000046900000000000000758500000000000307602013081900000010000000000000BRBBDCACNPR8600
012013070478BBDCH32     070BBDC    /EJ PN      N1000R$  000000000001600000000000160000000000007000000000001000000000000090000000000000000000000001000008000000000000005500000000000000055400000000000318002013081900000010000000000000BRBBDCACNPR8602
012013070478BBDCH34     070BBDC    /EJ PN      N1000R$  000000000002800000000000280000000000022000000000002300000000000220000000000000000000000005800002000000000000004300000000000000100600000000000305502013081900000010000000000000BRBBDCACNPR8595
012013070478BBDCH36     070BBDC    /EJ PN      N1000R$  000000000000200000000000020000000000002000000000000200000000000020000000000000000000000008000001000000000000000100000000000000000200000000000357602013081900000010000000000000BRBBDCACNPR8600
012013070478BBDCI30     070BBDC    /EJ PN      N1000R$  000000000006600000000000660000000000062000000000006400000000000650000000000000000000000005900003000000000000007000000000000000448000000000000298002013091600000010000000000000BRBBDCACNPR8602
012013070478BBDCL29     070BBDC    /EJ PN      N1000R$  000000000018500000000001850000000000173000000000018100000000001730000000000000000000000000000002000000000000300000000000000054300000000000000288002013121600000010000000000000BRBBDCACNPR8602
012013070478BBDCL3      070BBDC    /EJ PN      N1000R$  000000000005500000000000550000000000054000000000005400000000000540000000000000000000000000000002000000000000300000000000000016458000000000000327602013121600000010000000000000BRBBDCACNPR8601
012013070478BBDCL42     070BBDC    /EJ PN      N1000R$  000000000001500000000000150000000000015000000000001500000000000150000000000000000000000000000001000000000000300000000000000004500000000000000379202013121600000010000000000000BRBBDCACNPR8598
012013070478BBDCL6      070BBDC    /EJ PN      N1000R$  000000000002200000000000220000000000022000000000002200000000000220000000000000000000000000000002000000000000600000000000000013200000000000000357802013121600000010000000000000BRBBDCACNPR8601
012013070482BBDCS26     080BBDCE   /EJ PN      N1000R$  000000000001300000000000170000000000013000000000001300000000000170000000000000000000000000000006000000000000012900000000000000179700000000000257802013071500000010000000000000BRBBDCACNPR8601
012013070482BBDCS27     080BBDCE   /EJ PN      N1000R$  000000000003900000000000430000000000030000000000003400000000000430000000000000000000000000000038000000000000053700000000000001848800000000000267802013071500000010000000000000BRBBDCACNPR8601
012013070482BBDCS28     080BBDCE   /EJ PN      N1000R$  000000000008300000000000990000000000071000000000008400000000000980000000000040000000000009900083000000000000141100000000000011870700000000000278002013071500000010000000000000BRBBDCACNPR8602
012013070482BBDCS29     080BBDCE   /EJ PN      N1000R$  000000000015400000000001800000000000142000000000015900000000001780000000000000000000000019500220000000000000377100000000000060291200000000000288002013071500000010000000000000BRBBDCACNPR8602
012013070482BBDCS30     080BBDCE   /EJ PN      N1000R$  000000000024000000000002690000000000240000000000026700000000002670000000000000000000000000000023000000000000010300000000000002757400000000000297802013071500000010000000000000BRBBDCACNPR8601
012013070482BBDCT25     080BBDCE   /EJ PN      N1000R$  000000000003800000000000380000000000038000000000003800000000000380000000000000000000000000000001000000000000001000000000000000038000000000000248002013081900000010000000000000BRBBDCACNPR8602
012013070482BBDCT26     080BBDCE   /EJ PN      N1000R$  000000000005700000000000590000000000050000000000005200000000000590000000000000000000000000000069000000000000115900000000000006073100000000000258002013081900000010000000000000BRBBDCACNPR8602
012013070482BBDCT27     080BBDCE   /EJ PN      N1000R$  000000000008900000000000950000000000081000000000008700000000000940000000000000000000000011000021000000000000042000000000000003692300000000000268002013081900000010000000000000BRBBDCACNPR8602
012013070482BBDCT28     080BBDCE   /EJ PN      N1000R$  000000000013000000000001420000000000120000000000013300000000001400000000000000000000000000000063000000000000083600000000000011150000000000000278002013081900000010000000000000BRBBDCACNPR8602
012013070482BBDCT29     080BBDCE   /EJ PN      N1000R$  000000000018500000000002030000000000175000000000019000000000002020000000000080000000000000000084000000000000165000000000000031362400000000000288002013081900000010000000000000BRBBDCACNPR8602
012013070482BBDCT30     080BBDCE   /EJ PN      N1000R$  000000000025000000000002690000000000250000000000026700000000002670000000000000000000000000000023000000000000010300000000000002758400000000000298002013081900000010000000000000BRBBDCACNPR8602
012013070482BBDCT4      080BBDCE   /EJ PN      N1000R$  000000000067000000000006700000000000670000000000067000000000006700000000000000000000000000000001000000000000000100000000000000067000000000000342802013081900000010000000000000BRBBDCACNPR8601
012013070482BBDCU27     080BBDCE   /EJ PN      N1000R$  000000000011100000000001210000000000111000000000011700000000001210000000000000000000000013500003000000000000000300000000000000035200000000000268002013091600000010000000000000BRBBDCACNPR8602
012013070482BBDCU28     080BBDCE   /EJ PN      N1000R$  000000000014500000000001590000000000145000000000015200000000001590000000000000000000000000000002000000000000002400000000000000364800000000000278002013091600000010000000000000BRBBDCACNPR8602
012013070482BBDCU30     080BBDCE   /EJ PN      N1000R$  000000000026300000000002860000000000263000000000027000000000002860000000000000000000000000000003000000000000003600000000000000974400000000000298002013091600000010000000000000BRBBDCACNPR8602
012013070482BBDCV27     080BBDCE   /EJ PN      N1000R$  000000000013300000000001330000000000133000000000013300000000001330000000000000000000000000000002000000000000003000000000000000399000000000000268002013102100000010000000000000BRBBDCACNPR8602
012013070482BBDCX27     080BBDCE   /EJ PN      N1000R$  000000000014600000000001460000000000146000000000014600000000001460000000000000000000000000000001000000000000001200000000000000175200000000000270002013121600000010000000000000BRBBDCACNPR8604
012013070482BBDCX57     080BBDCE   /EJ PN      N1000R$  000000000016500000000001650000000000165000000000016500000000001650000000000000000000000000000001000000000000001200000000000000198000000000000275602013121600000010000000000000BRBBDCACNPR8600
012013070412BBFI11B     010FII BB PROGRCI  ER  MB   R$  000000042101000000004210100000000421010000000042101000000004210100000000421600000000042855000002000000000000000007000000000002947070000000000000009999123100000010000000000000BRBBFICTF006196
012013070412BBPO11      010FII BB PRGIICI  ER       R$  000000001095000000000110940000000010950000000001098300000000110000000000010950000000001100000212000000000000020942000000000230025800000000000000009999123100000010000000000000BRBBPOCTF003108
012013070412BBRC11      010FII BB CORP CI  ER       R$  000000000990000000000101000000000009607000000000989700000000099020000000009902000000001009900010000000000000000337000000000003335402000000000000009999123100000010000000000000BRBBRCCTF004122
012013070402BBRK3       010BR BROKERS  ON      NM   R$  000000000058500000000006020000000000573000000000058100000000005870000000000582000000000058705254000000000000942800000000000547840700000000000000009999123100000010000000000000BRBBRKACNOR4108
012013070496BBRK3F      020BR BROKERS  ON      NM   R$  000000000058000000000005960000000000570000000000058300000000005830000000000535000000000058500011000000000000000334000000000000194740000000000000009999123100000010000000000000BRBBRKACNOR4108
012013070402BBSE3       010BBSEGURIDADEON      NM   R$  000000000172500000000017740000000001715000000000175500000000017730000000001746000000000177306196000000000005186400000000009105214700000000000000009999123100000010000000000000BRBBSEACNOR5100
012013070496BBSE3F      020BBSEGURIDADEON      NM   R$  000000000171200000000017710000000001712000000000175400000000017650000000001720000000000175500381000000000000011488000000000020157962000000000000009999123100000010000000000000BRBBSEACNOR5100
012013070402BBTG11      010BTG PACTUAL UNT          R$  000000000262400000000027300000000002605000000000268900000000027130000000002700000000000271304515000000000001173600000000003156851800000000000000009999123100000010000000000000BRBBTGUNT007104
012013070496BBTG11F     020BTG PACTUAL UNT          R$  000000000261500000000026950000000002615000000000269200000000026870000000002641000000000271000008000000000000000181000000000000487353000000000000009999123100000010000000000000BRBBTGUNT007104
012013070462BBTG11T     030BTG PACTUAL UNT       018R$  000000000269900000000027000000000002699000000000269900000000027000000000000000000000000000000002000000000000000400000000000001079981000000000000009999123100000010000000000000BRBBTGUNT007104
012013070412BBVJ11      010FII C JARDIMCI  ER       R$  000000000811000000000082100000000008050000000000811600000000081450000000008040000000000820000019000000000000001106000000000008977320000000000000009999123100000010000000000000BRBBVJCTF001131
012013070412BCFF11B     010FII BC FFII CI      MB   R$  000000001025000000000102500000000010191000000001020100000000102000000000010200000000001030000026000000000000001021000000000010415965000000000000009999123100000010000000000000BRBCFFCTF000139
012013070402BDLL4       010BARDELLA    PN           R$  000000000429900000000042990000000004299000000000429900000000042990000000004202000000000448400002000000000000000200000000000000859800000000000000009999123100000010000000000000BRBDLLACNPR8149
012013070496BDLL4F      020BARDELLA    PN           R$  000000000429900000000043150000000004299000000000430700000000043150000000004200000000000849900002000000000000000040000000000000172280000000000000009999123100000010000000000000BRBDLLACNPR8149
012013070402BEEF3       010MINERVA     ON      NM   R$  000000000097300000000010050000000000948000000000096600000000009650000000000961000000000096501466000000000000503200000000000486377400000000000000009999123100000010000000000000BRBEEFACNOR6104
012013070496BEEF3F      020MINERVA     ON      NM   R$  000000000095000000000010440000000000950000000000097600000000010440000000000949000000000104400008000000000000000224000000000000218717000000000000009999123100000010000000000000BRBEEFACNOR6104
012013070462BEEF3T      030MINERVA     ON      NM018R$  000000000096200000000009630000000000962000000000096200000000009630000000000000000000000000000002000000000000003000000000000002887645000000000000009999123100000010000000000000BRBEEFACNOR6104
012013070402BEES3       010BANESTES    ON  EJ       R$  000000000004900000000000490000000000046000000000004700000000000460000000000046000000000004800010000000000000023400000000000001105300000000000000009999123100000010000000000000BRBEESACNOR9241
012013070402BEMA3       010BEMATECH    ON      NM   R$  000000000069600000000006960000000000675000000000067900000000006750000000000675000000000068000047000000000000023500000000000015979300000000000000009999123100000010000000000000BRBEMAACNOR0113
012013070402BHGR3       010BHG         ON      NM   R$  000000000158500000000015860000000001567000000000157100000000015670000000001501000000000156700013000000000000003000000000000004714900000000000000009999123100000010000000000000BRBHGRACNOR9101
012013070496BHGR3F      020BHG         ON      NM   R$  000000000160400000000016040000000001595000000000159900000000015950000000001402000000000159900002000000000000000030000000000000047985000000000000009999123100000010000000000000BRBHGRACNOR9101
012013070402BICB4       010BICBANCO    PN      N1   R$  000000000040900000000004150000000000405000000000040800000000004100000000000403000000000041000036000000000000044400000000000018144100000000000000009999123100000010000000000000BRBICBACNPR7131
012013070496BICB4F      020BICBANCO    PN      N1   R$  000000000040900000000004090000000000409000000000040900000000004090000000000404000000000041400001000000000000000001000000000000000409000000000000009999123100000010000000000000BRBICBACNPR7131
012013070402BISA3       010BROOKFIELD  ON      NM   R$  000000000013800000000001440000000000137000000000014000000000001410000000000141000000000014306645000000000005581100000000000783422500000000000000009999123100000010000000000000BRBISAACNOR8109
012013070496BISA3F      020BROOKFIELD  ON      NM   R$  000000000013700000000001470000000000137000000000014100000000001460000000000131000000000014700012000000000000000368000000000000052089000000000000009999123100000010000000000000BRBISAACNOR8109
012013070462BISA3T      030BROOKFIELD  ON      NM060R$  000000000014300000000001440000000000143000000000014300000000001440000000000000000000000000000002000000000000010000000000000001439170000000000000009999123100000010000000000000BRBISAACNOR8109
012013070462BISA3T      030BROOKFIELD  ON      NM090R$  000000000014100000000001420000000000141000000000014100000000001420000000000000000000000000000002000000000000010000000000000001417800000000000000009999123100000010000000000000BRBISAACNOR8109
012013070402BMEB3       010MERC BRASIL ON           R$  000000000163500000000016350000000001592000000000161600000000015920000000001520000000000200000005000000000000000700000000000001131600000000000000009999123100000010000000000000BRBMEBACNOR8189
012013070402BMEB4       010MERC BRASIL PN           R$  000000000111500000000011280000000001105000000000111700000000011250000000001101000000000113000024000000000000016300000000000018214800000000000000009999123100000010000000000000BRBMEBACNPR5190
012013070402BMIN4       010MERC INVEST PN           R$  000000000002200000000000220000000000022000000000002200000000000220000000000022000000000002300003000000000000003000000000000000066000000000000000009999123100000010000000000000BRBMINACNPR1159
012013070412BMLC11B     010FII BMBRC LCCI      MB   R$  000000001195000000000119500000000011850000000001188600000000118700000000011851000000001220000006000000000000003004000000000035707800000000000000009999123100000010000000000000BRBMLCCTF004116
012013070402BMYB11B     010BRISTOLMYERSDRN     MB   R$  000000000985000000000098500000000009850000000000985000000000098500000000010012000000001031000001000000000000001000000000000009850000000000000000009999123100000010000000000000BRBMYBBDR000100
012013070402BOBR4       010BOMBRIL     PN           R$  000000000072300000000007230000000000723000000000072300000000007230000000000676000000000072200001000000000000000100000000000000072300000000000000009999123100000010000000000000BRBOBRACNPR3127
012013070414BOVA11      010ISHARES BOVACI           R$  000000000446800000000045200000000004463000000000448900000000044960000000004485000000000449604874000000000002091280000000009387964130000000000000009999123100000010000000000000BRBOVACTF003101
012013070496BOVA11F     020ISHARES BOVACI           R$  000000000439600000000045020000000004200000000000439200000000044980000000004403000000000450200014000000000000000049000000000000215210000000000000009999123100000010000000000000BRBOVACTF003101
012013070462BOVA11T     030ISHARES BOVACI        032R$  000000000451300000000045160000000004513000000000451300000000045160000000000000000000000000000008000000000000070000000000000315974677000000000000009999123100000010000000000000BRBOVACTF003101
012013070462BOVA11T     030ISHARES BOVACI        090R$  000000000458800000000045890000000004588000000000458800000000045890000000000000000000000000000002000000000000000100000000000000458898000000000000009999123100000010000000000000BRBOVACTF003101
012013070412BPFF11      010FII ABSOLUTOCI  ER       R$  000000000879700000000087970000000008300000000000835100000000087970000000008550000000000879700022000000000000001771000000000014790915000000000000009999123100000010000000000000BRBPFFCTF002103
012013070402BPHA3       010BR PHARMA   ON      NM   R$  000000000100700000000010070000000000951000000000098100000000009780000000000978000000000099001260000000000000457900000000000449433200000000000000009999123100000010000000000000BRBPHAACNOR6102
012013070496BPHA3F      020BR PHARMA   ON      NM   R$  000000000098800000000010090000000000961000000000098600000000010090000000000985000000000100900013000000000000000500000000000000493373000000000000009999123100000010000000000000BRBPHAACNOR6102
012013070402BPNM4       010PANAMERICANOPN      N1   R$  000000000051600000000005300000000000512000000000051600000000005150000000000515000000000051800116000000000000066900000000000034523800000000000000009999123100000010000000000000BRBPNMACNPR6111
012013070496BPNM4F      020PANAMERICANOPN      N1   R$  000000000051800000000005190000000000518000000000051800000000005190000000000514000000000052000003000000000000000038000000000000019721000000000000009999123100000010000000000000BRBPNMACNPR6111
012013070402BRAP3       010BRADESPAR   ON      N1   R$  000000000161700000000017270000000001617000000000166100000000016850000000001685000000000172500301000000000000402200000000000668331400000000000000009999123100000010000000000000BRBRAPACNOR5124
012013070496BRAP3F      020BRADESPAR   ON      N1   R$  000000000159900000000016220000000001599000000000160600000000016220000000001629000000000172000003000000000000000012000000000000019280000000000000009999123100000010000000000000BRBRAPACNOR5124
012013070462BRAP3T      030BRADESPAR   ON      N1032R$  000000000164000000000016410000000001640000000000164000000000016410000000000000000000000000000002000000000000000500000000000000820461000000000000009999123100000010000000000000BRBRAPACNOR5124
012013070402BRAP4       010BRADESPAR   PN      N1   R$  000000000200000000000020550000000001994000000000203000000000020390000000002038000000000203904652000000000001669400000000003390490500000000000000009999123100000010000000000000BRBRAPACNPR2124
012013070496BRAP4F      020BRADESPAR   PN      N1   R$  000000000195000000000021860000000001950000000000204100000000021680000000002028000000000208000042000000000000001077000000000002198655000000000000009999123100000010000000000000BRBRAPACNPR2124
012013070414BRAX11      010ISHARES BRAXCI           R$  000000000379000000000037900000000003790000000000379000000000037900000000000000000000000000000001000000000000000300000000000001137000000000000000009999123100000010000000000000BRBRAXCTF002100
012013070412BRCR11      010FII BC FUND CI           R$  000000001380000000000138100000000013700000000001374300000000137850000000013785000000001380000438000000000000011961000000000164383120000000000000009999123100000010000000000000BRBRCRCTF000130
012013070402BRFS3       010BRF SA      ON  EJ  NM   R$  000000000470900000000047840000000004678000000000474300000000047300000000004726000000000473002950000000000000996800000000004728518600000000000000009999123100000010000000000000BRBRFSACNOR8110
012013070496BRFS3F      020BRF SA      ON  EJ  NM   R$  000000000468000000000048100000000004675000000000473700000000048100000000004680000000000481000072000000000000001676000000000007940726000000000000009999123100000010000000000000BRBRFSACNOR8110
012013070462BRFS3T      030BRF SA      ON  EJ  NM090R$  000000000480900000000048780000000004809000000000484100000000048150000000000000000000000000000012000000000000206000000000000997288434000000000000009999123100000010000000000000BRBRFSACNOR8110
012013070402BRGE11      010ALFA CONSORCPNE          R$  000000000036200000000003620000000000362000000000036200000000003620000000000361000000000039900001000000000000000100000000000000036200000000000000009999123100000010000000000000BRBRGEACNPE1090
012013070402BRGE3       010ALFA CONSORCON           R$  000000000033800000000003380000000000338000000000033800000000003380000000000337000000000050000001000000000000002600000000000000878800000000000000009999123100000010000000000000BRBRGEACNOR6196
012013070402BRIN3       010BR INSURANCEON      NM   R$  000000000219300000000021970000000002112000000000214900000000021580000000002158000000000217501448000000000000350900000000000754424600000000000000009999123100000010000000000000BRBRINACNOR3105
012013070496BRIN3F      020BR INSURANCEON      NM   R$  000000000216000000000021940000000002121000000000214200000000021410000000002130000000000215400022000000000000000334000000000000715546000000000000009999123100000010000000000000BRBRINACNOR3105
012013070402BRIV3       010ALFA INVEST ON           R$  000000000064400000000006450000000000644000000000064400000000006450000000000644000000000067500002000000000000014300000000000009223400000000000000009999123100000010000000000000BRBRIVACNOR6196
012013070496BRIV3F      020ALFA INVEST ON           R$  000000000050900000000005090000000000509000000000050900000000005090000000000509000000000080000001000000000000000062000000000000031558000000000000009999123100000010000000000000BRBRIVACNOR6196
012013070402BRIV4       010ALFA INVEST PN           R$  000000000058300000000005830000000000561000000000056800000000005610000000000563000000000060900002000000000000000300000000000000170500000000000000009999123100000010000000000000BRBRIVACNPR3196
012013070496BRIV4F      020ALFA INVEST PN           R$  000000000052600000000005260000000000525000000000052500000000005250000000000526000000000064100002000000000000000088000000000000046258000000000000009999123100000010000000000000BRBRIVACNPR3196
012013070402BRKM3       010BRASKEM     ON      N1   R$  000000000123800000000012480000000001238000000000124700000000012480000000001216000000000124900008000000000000028900000000000036060300000000000000009999123100000010000000000000BRBRKMACNOR1110
012013070402BRKM5       010BRASKEM     PNA     N1   R$  000000000172900000000017420000000001679000000000170800000000017000000000001700000000000170305080000000000001392300000000002378010000000000000000009999123100000010000000000000BRBRKMACNPA4110
012013070496BRKM5F      020BRASKEM     PNA     N1   R$  000000000173000000000017360000000001671000000000170900000000017190000000001697000000000172000030000000000000000753000000000001287435000000000000009999123100000010000000000000BRBRKMACNPA4110
012013070462BRKM5T      030BRASKEM     PNA     N1032R$  000000000173700000000017380000000001737000000000173700000000017380000000000000000000000000000002000000000000002000000000000003474840000000000000009999123100000010000000000000BRBRKMACNPA4110
012013070402BRML3       010BR MALLS PARON      NM   R$  000000000187900000000019180000000001872000000000189700000000018850000000001884000000000188507836000000000002378700000000004512580000000000000000009999123100000010000000000000BRBRMLACNOR9105
012013070496BRML3F      020BR MALLS PARON      NM   R$  000000000180600000000019130000000001806000000000189900000000019100000000001910000000000195000038000000000000001198000000000002275663000000000000009999123100000010000000000000BRBRMLACNOR9105
012013070462BRML3T      030BR MALLS PARON      NM090R$  000000000193400000000019350000000001934000000000193400000000019350000000000000000000000000000002000000000000000200000000000000386902000000000000009999123100000010000000000000BRBRMLACNOR9105
012013070478BRMLH20     070BRML        ON      NM000R$  000000000004000000000000400000000000040000000000004000000000000400000000000000000000000000000002000000000000006600000000000000264000000000000200002013081900000010000000000000BRBRMLACNOR9105
012013070478BRMLL56     070BRMLE       ON      NM000R$  000000000000900000000000090000000000009000000000000900000000000090000000000000000000000000000001000000000000002000000000000000018000000000000264002013121600000010000000000000BRBRMLACNOR9105
012013070482BRMLX50     080BRMLE       ON      NM000R$  000000000019500000000001950000000000195000000000019500000000001950000000000000000000000000000001000000000000002000000000000000390000000000000208002013121600000010000000000000BRBRMLACNOR9105
012013070482BRMLX53     080BRMLE       ON      NM000R$  000000000035800000000003580000000000358000000000035800000000003580000000000000000000000000000001000000000000002000000000000000716000000000000232002013121600000010000000000000BRBRMLACNOR9105
012013070402BRPR3       010BR PROPERT  ON      NM   R$  000000000181000000000018500000000001800000000000182200000000018050000000001800000000000180503239000000000000910100000000001658582100000000000000009999123100000010000000000000BRBRPRACNOR9112
012013070496BRPR3F      020BR PROPERT  ON      NM   R$  000000000182700000000018990000000001791000000000183100000000018900000000001792000000000189000048000000000000001417000000000002595194000000000000009999123100000010000000000000BRBRPRACNOR9112
012013070462BRPR3T      030BR PROPERT  ON      NM018R$  000000000184500000000018460000000001809000000000182300000000018100000000000000000000000000000004000000000000006500000000000011852785000000000000009999123100000010000000000000BRBRPRACNOR9112
012013070462BRPR3T      030BR PROPERT  ON      NM032R$  000000000183300000000018340000000001833000000000183300000000018340000000000000000000000000000002000000000000010000000000000018330186000000000000009999123100000010000000000000BRBRPRACNOR9112
012013070496BRSR5F      020BANRISUL    PNA     N1   R$  000000000140000000000014000000000001400000000000140000000000014000000000001400000000000168000004000000000000000028000000000000039200000000000000009999123100000010000000000000BRBRSRACNPA6134
012013070402BRSR6       010BANRISUL    PNB     N1   R$  000000000142100000000014640000000001408000000000142400000000014150000000001412000000000141801718000000000000785000000000001117828400000000000000009999123100000010000000000000BRBRSRACNPB4133
012013070496BRSR6F      020BANRISUL    PNB     N1   R$  000000000144000000000014990000000001412000000000143500000000014170000000001407000000000142800030000000000000000907000000000001300879000000000000009999123100000010000000000000BRBRSRACNPB4133
012013070402BSEV3       010BIOSEV      ON      NM   R$  000000000127500000000012750000000001268000000000127100000000012680000000001150000000000126900002000000000000000200000000000000254300000000000000009999123100000010000000000000BRBSEVACNOR3100
012013070402BTOW3       010B2W DIGITAL ON      NM   R$  000000000086900000000009550000000000806000000000088000000000008300000000000830000000000084405912000000000002892200000000002543485800000000000000009999123100000010000000000000BRBTOWACNOR8105
012013070496BTOW3F      020B2W DIGITAL ON      NM   R$  000000000086400000000009700000000000812000000000086700000000008690000000000811000000000086900078000000000000002035000000000001764664000000000000009999123100000010000000000000BRBTOWACNOR8105
012013070462BTOW3T      030B2W DIGITAL ON      NM018R$  000000000083800000000008390000000000838000000000083800000000008390000000000000000000000000000002000000000000001200000000000001005707000000000000009999123100000010000000000000BRBTOWACNOR8105
012013070462BTOW3T      030B2W DIGITAL ON      NM032R$  000000000084400000000008450000000000844000000000084400000000008450000000000000000000000000000002000000000000005000000000000004223625000000000000009999123100000010000000000000BRBTOWACNOR8105
012013070402BTTL4       010BATTISTELLA PN           R$  000000000009500000000000960000000000094000000000009400000000000960000000000093000000000009800003000000000000002600000000000000245300000000000000009999123100000010000000000000BRBTTLACNPR7105
012013070402BVMF3       010BMFBOVESPA  ON      NM   R$  000000000122200000000012500000000001213000000000123100000000012150000000001215000000000121808848000000000004883500000000006015098800000000000000009999123100000010000000000000BRBVMFACNOR3125
012013070496BVMF3F      020BMFBOVESPA  ON      NM   R$  000000000121500000000012490000000001215000000000123200000000012300000000001212000000000123000098000000000000003060000000000003768330000000000000009999123100000010000000000000BRBVMFACNOR3125
012013070462BVMF3T      030BMFBOVESPA  ON      NM032R$  000000000122500000000012260000000001225000000000122500000000012260000000000000000000000000000002000000000000000200000000000000245055000000000000009999123100000010000000000000BRBVMFACNOR3125
012013070462BVMF3T      030BMFBOVESPA  ON      NM120R$  000000000128200000000012830000000001282000000000128200000000012830000000000000000000000000000002000000000000001000000000000001282500000000000000009999123100000010000000000000BRBVMFACNOR3125
012013070478BVMFG11     070BVMF        ON      NM000R$  000000000014200000000001420000000000142000000000014200000000001420000000000126000000000000000001000000000000002300000000000000326600000000000110002013071500000010000000000000BRBVMFACNOR3125
012013070478BVMFG12     070BVMF  FM    ON      NM000R$  000000000005500000000000760000000000055000000000006400000000000590000000000054000000000006500224000000000000245200000000000015839100000000000118902013071500000010000000000000BRBVMFACNOR3124
012013070478BVMFG13     070BVMF  FM    ON      NM000R$  000000000002000000000000250000000000015000000000002000000000000150000000000014000000000001500142000000000000332500000000000006686100000000000126902013071500000010000000000000BRBVMFACNOR3123
012013070478BVMFG14     070BVMF  FM    ON      NM000R$  000000000000200000000000020000000000001000000000000100000000000010000000000000000000000000100012000000000000135800000000000000175800000000000136902013071500000010000000000000BRBVMFACNOR3123
012013070478BVMFG41     070BVMF        ON      NM000R$  000000000009800000000000980000000000090000000000009400000000000900000000000000000000000000000003000000000000010000000000000000940000000000000115002013071500000010000000000000BRBVMFACNOR3125
012013070478BVMFG42     070BVMF  FM    ON      NM000R$  000000000004400000000000540000000000038000000000004400000000000380000000000033000000000000000025000000000000078800000000000003525200000000000121902013071500000010000000000000BRBVMFACNOR3123
012013070478BVMFG50     070BVMF        ON      NM000R$  000000000001100000000000110000000000011000000000001100000000000110000000000000000000000000000001000000000000000100000000000000001100000000000130002013071500000010000000000000BRBVMFACNOR3125
012013070478BVMFH10     070BVMF        ON      NM000R$  000000000024100000000002410000000000241000000000024100000000002410000000000000000000000000000001000000000000006000000000000001446000000000000100002013081900000010000000000000BRBVMFACNOR3125
012013070478BVMFH12     070BVMF  FM    ON      NM000R$  000000000009600000000001000000000000077000000000009000000000000770000000000020000000000000000031000000000000052800000000000004772800000000000120002013081900000010000000000000BRBVMFACNOR3125
012013070478BVMFH13     070BVMF  FM    ON      NM000R$  000000000004000000000000460000000000031000000000004000000000000350000000000032000000000004000075000000000000184600000000000007429100000000000128902013081900000010000000000000BRBVMFACNOR3124
012013070478BVMFH14     070BVMF  FM    ON      NM000R$  000000000001100000000000140000000000008000000000001000000000000080000000000007000000000001000041000000000000054800000000000000592900000000000138902013081900000010000000000000BRBVMFACNOR3124
012013070478BVMFH42     070BVMF  FM    ON      NM000R$  000000000006200000000000620000000000052000000000005900000000000520000000000000000000000000000006000000000000017000000000000001012500000000000125002013081900000010000000000000BRBVMFACNOR3125
012013070478BVMFH43     070BVMF  FM    ON      NM000R$  000000000002200000000000220000000000015000000000001800000000000150000000000005000000000002100022000000000000017500000000000000315600000000000135002013081900000010000000000000BRBVMFACNOR3125
012013070478BVMFI44     070BVMF        ON      NM000R$  000000000001300000000000130000000000013000000000001300000000000130000000000000000000000000000001000000000000001800000000000000023400000000000145002013091600000010000000000000BRBVMFACNOR3125
012013070478BVMFJ15     070BVMF        ON      NM000R$  000000000001600000000000160000000000015000000000001500000000000150000000000011000000000000000002000000000000001300000000000000020500000000000150002013102100000010000000000000BRBVMFACNOR3125
012013070482BVMFQ73     080BVMFE       ON      NM000R$  000000000012300000000001230000000000123000000000012300000000001230000000000000000000000000000001000000000000071000000000000008733000000000000128902014051900000010000000000000BRBVMFACNOR3124
012013070482BVMFR63     080BVMFE       ON      NM000R$  000000000012900000000001290000000000129000000000012900000000001290000000000000000000000000000001000000000000110600000000000014267400000000000130002014061600000010000000000000BRBVMFACNOR3125
012013070482BVMFS10     080BVMFE       ON      NM000R$  000000000000100000000000010000000000001000000000000100000000000010000000000000000000000000100007000000000000024500000000000000024500000000000098902013071500000010000000000000BRBVMFACNOR3124
012013070482BVMFS11     080BVMFE       ON      NM000R$  000000000000600000000000060000000000006000000000000600000000000060000000000000000000000000000009000000000000058000000000000000348000000000000110002013071500000010000000000000BRBVMFACNOR3125
012013070482BVMFS12     080BVMFE FM    ON      NM000R$  000000000002000000000000260000000000017000000000001900000000000260000000000015000000000004500026000000000000069000000000000001372300000000000118902013071500000010000000000000BRBVMFACNOR3124
012013070482BVMFS13     080BVMFE FM    ON      NM000R$  000000000006400000000000640000000000044000000000005400000000000620000000000005000000000000000061000000000000078000000000000004223400000000000126902013071500000010000000000000BRBVMFACNOR3123
012013070482BVMFS14     080BVMFE       ON      NM000R$  000000000013200000000001320000000000132000000000013200000000001320000000000000000000000000000001000000000000005000000000000000660000000000000136902013071500000010000000000000BRBVMFACNOR3123
012013070482BVMFS40     080BVMFE       ON      NM000R$  000000000000300000000000040000000000002000000000000300000000000020000000000000000000000000000006000000000000060000000000000000210000000000000105002013071500000010000000000000BRBVMFACNOR3125
012013070482BVMFS41     080BVMFE FM    ON      NM000R$  000000000001100000000000150000000000011000000000001100000000000150000000000000000000000000000006000000000000017100000000000000202100000000000115002013071500000010000000000000BRBVMFACNOR3125
012013070482BVMFS42     080BVMFE FM    ON      NM000R$  000000000002600000000000370000000000026000000000003100000000000370000000000000000000000000000010000000000000023400000000000000728800000000000121902013071500000010000000000000BRBVMFACNOR3123
012013070482BVMFS43     080BVMFE       ON      NM000R$  000000000011000000000001100000000000092000000000009900000000000920000000000090000000000000000004000000000000000400000000000000039700000000000133902013071500000010000000000000BRBVMFACNOR3124
012013070482BVMFT10     080BVMFE       ON      NM000R$  000000000001000000000000100000000000010000000000001000000000000100000000000000000000000001000002000000000000008000000000000000080000000000000100002013081900000010000000000000BRBVMFACNOR3125
012013070482BVMFT11     080BVMFE       ON      NM000R$  000000000002000000000000230000000000020000000000002200000000000230000000000015000000000007500002000000000000000600000000000000013200000000000110002013081900000010000000000000BRBVMFACNOR3125
012013070482BVMFT12     080BVMFE FM    ON      NM000R$  000000000004800000000000510000000000041000000000004400000000000510000000000044000000000005700013000000000000007500000000000000335500000000000120002013081900000010000000000000BRBVMFACNOR3125
012013070482BVMFT13     080BVMFE FM    ON      NM000R$  000000000008900000000000950000000000077000000000008300000000000950000000000054000000000011000026000000000000073800000000000006150500000000000128902013081900000010000000000000BRBVMFACNOR3124
012013070482BVMFT42     080BVMFE FM    ON      NM000R$  000000000006100000000000660000000000061000000000006500000000000660000000000000000000000000000002000000000000003700000000000000243200000000000125002013081900000010000000000000BRBVMFACNOR3125
012013070482BVMFU12     080BVMFE       ON      NM000R$  000000000004800000000000480000000000044000000000004600000000000440000000000000000000000000000028000000000000002800000000000000129200000000000120002013091600000010000000000000BRBVMFACNOR3125
012013070482BVMFW13     080BVMFE       ON      NM000R$  000000000010000000000001000000000000100000000000010000000000001000000000000000000000000000000001000000000000001800000000000000180000000000000130002013111800000010000000000000BRBVMFACNOR3125
012013070402CAMB4       010CAMBUCI     PN           R$  000000000019700000000001970000000000197000000000019700000000001970000000000197000000000020400001000000000000000100000000000000019700000000000000009999123100000010000000000000BRCAMBACNPR1117
012013070402CARD3       010CSU CARDSYSTON      NM   R$  000000000028300000000002890000000000281000000000028800000000002890000000000276000000000029000009000000000000014800000000000004268200000000000000009999123100000010000000000000BRCARDACNOR9105
012013070402CBEE3       010AMPLA ENERG ON *         R$  000000000012600000000001260000000000116000000000012000000000001160000000000116000000000014400004000000000001300000000000000000156000000000000000009999123100010000000000000000BRCBEEACNOR3149
012013070496CBEE3F      020AMPLA ENERG ON *         R$  000000000016000000000001600000000000160000000000016000000000001600000000000091000000000016000001000000000000036000000000000000005760000000000000009999123100010000000000000000BRCBEEACNOR3149
012013070496CBMA3F      020COBRASMA    ON           R$  000000000000500000000000050000000000005000000000000500000000000050000000000004000000000000500001000000000000000001000000000000000005000000000000009999123100000010000000000000BRCBMAACNOR4124
012013070402CBMA4       010COBRASMA    PN           R$  000000000000400000000000040000000000004000000000000400000000000040000000000003000000000000400001000000000000020000000000000000080000000000000000009999123100000010000000000000BRCBMAACNPR1124
012013070496CBMA4F      020COBRASMA    PN           R$  000000000000400000000000040000000000004000000000000400000000000040000000000003000000000000400001000000000000001000000000000000004000000000000000009999123100000010000000000000BRCBMAACNPR1124
012013070408CCHI3       010CHIARELLI   ON           R$  000000000002000000000000210000000000018000000000001900000000000210000000000021000000000002200045000000000000760000000000000014630000000000000000009999123100000010000000000000BRCCHIACNOR5123
012013070408CCHI4       010CHIARELLI   PN           R$  000000000001600000000000160000000000016000000000001600000000000160000000000015000000000001800001000000000000010000000000000000160000000000000000009999123100000010000000000000BRCCHIACNPR2122
012013070402CCPR3       010CYRE COM-CCPON      NM   R$  000000000209600000000021240000000002083000000000208300000000020830000000002083000000000211900008000000000000170300000000000354791900000000000000009999123100000010000000000000BRCCPRACNOR9107
012013070496CCPR3F      020CYRE COM-CCPON      NM   R$  000000000212400000000021240000000002124000000000212400000000021240000000002006000000000213000001000000000000000027000000000000057348000000000000009999123100000010000000000000BRCCPRACNOR9107
012013070402CCRO3       010CCR SA      ON      NM   R$  000000000167200000000017120000000001663000000000168700000000016630000000001663000000000167109320000000000005284900000000008918878900000000000000009999123100000010000000000000BRCCROACNOR2122
012013070496CCRO3F      020CCR SA      ON      NM   R$  000000000169100000000017240000000001677000000000169000000000016890000000001675000000000168900038000000000000001172000000000001978110000000000000009999123100000010000000000000BRCCROACNOR2122
012013070462CCRO3S      030CCR SA      ON      NM060R$  000000000170300000000017040000000001703000000000170300000000017040000000000000000000000000000002000000000000003000000000000005110056000000000000009999123100000010000000000000BRCCROACNOR2122
012013070462CCRO3T      030CCR SA      ON      NM018R$  000000000168800000000016890000000001688000000000168800000000016890000000000000000000000000000002000000000000000800000000000001350982000000000000009999123100000010000000000000BRCCROACNOR2122
012013070478CCROH18     070CCRO        ON      NM000R$  000000000002400000000000240000000000024000000000002400000000000240000000000000000000000000000002000000000000005000000000000000120000000000000180002013081900000010000000000000BRCCROACNOR2122
012013070402CCXC3       010CCX CARVAO  ON      NM   R$  000000000006900000000000750000000000065000000000006900000000000670000000000066000000000006700586000000000002794900000000000193056800000000000000009999123100000010000000000000BRCCXCACNOR5100
012013070496CCXC3F      020CCX CARVAO  ON      NM   R$  000000000007400000000000740000000000074000000000007400000000000740000000000065000000000007300003000000000000000129000000000000009546000000000000009999123100000010000000000000BRCCXCACNOR5100
012013070462CCXC3T      030CCX CARVAO  ON      NM182R$  000000000007200000000000730000000000072000000000007200000000000730000000000000000000000000000002000000000000005000000000000000360490000000000000009999123100000010000000000000BRCCXCACNOR5100
012013070402CEDO3       010CEDRO       ON      N1   R$  000000000100100000000010010000000001001000000000100100000000010010000000001000000000000125000001000000000000000100000000000000100100000000000000009999123100000010000000000000BRCEDOACNOR8094
012013070496CEDO3F      020CEDRO       ON      N1   R$  000000000100000000000010000000000001000000000000100000000000010000000000000900000000000178500001000000000000000058000000000000058000000000000000009999123100000010000000000000BRCEDOACNOR8094
012013070412CEOC11B     010FII CEO CCP CI      MB   R$  000000000900000000000090000000000008704000000000882200000000090000000000008850000000000900000030000000000000001811000000000015977713000000000000009999123100000010000000000000BRCEOCCTF003107
012013070402CEPE5       010CELPE       PNA          R$  000000000175000000000017500000000001750000000000175000000000017500000000001750000000000200000002000000000000000200000000000000350000000000000000009999123100000010000000000000BRCEPEACNPA6151
012013070402CESP3       010CESP        ON      N1   R$  000000000155900000000015790000000001531000000000154000000000015310000000001531000000000157800008000000000000001800000000000002772000000000000000009999123100000010000000000000BRCESPACNOR3159
012013070402CESP6       010CESP        PNB     N1   R$  000000000188300000000018920000000001825000000000186000000000018800000000001873000000000188001024000000000000478700000000000890550800000000000000009999123100000010000000000000BRCESPACNPB4118
012013070496CESP6F      020CESP        PNB     N1   R$  000000000186000000000018940000000001827000000000186200000000018940000000001861000000000189400032000000000000000968000000000001804579000000000000009999123100000010000000000000BRCESPACNPB4118
012013070462CESP6T      030CESP        PNB     N1090R$  000000000189900000000019000000000001899000000000189900000000019000000000000000000000000000000002000000000000000100000000000000189969000000000000009999123100000010000000000000BRCESPACNPB4118
012013070402CGAS3       010COMGAS      ON           R$  000000000444000000000044400000000004440000000000444000000000044400000000000000000000000444600002000000000000008700000000000038628000000000000000009999123100000010000000000000BRCGASACNOR0132
012013070402CGAS5       010COMGAS      PNA          R$  000000000479500000000048300000000004781000000000480300000000048000000000004800000000000484000057000000000000036500000000000175336600000000000000009999123100000010000000000000BRCGASACNPA3129
012013070496CGAS5F      020COMGAS      PNA          R$  000000000478000000000048300000000004780000000000480000000000048300000000004801000000000483000005000000000000000137000000000000657690000000000000009999123100000010000000000000BRCGASACNPA3129
012013070402CGRA3       010GRAZZIOTIN  ON           R$  000000000154000000000015600000000001540000000000155800000000015590000000001483000000000156000003000000000000009900000000000015432300000000000000009999123100000010000000000000BRCGRAACNOR2061
012013070496CGRA3F      020GRAZZIOTIN  ON           R$  000000000161600000000016160000000001480000000000156300000000014800000000001450000000000148000002000000000000000026000000000000040656000000000000009999123100000010000000000000BRCGRAACNOR2061
012013070402CGRA4       010GRAZZIOTIN  PN           R$  000000000158500000000016010000000001585000000000160000000000016010000000001601000000000164200130000000000000038800000000000062103900000000000000009999123100000010000000000000BRCGRAACNPR9061
012013070496CGRA4F      020GRAZZIOTIN  PN           R$  000000000163500000000016350000000001602000000000160800000000016020000000001602000000000163500006000000000000000025000000000000040215000000000000009999123100000010000000000000BRCGRAACNPR9061
012013070402CIEL3       010CIELO       ON      NM   R$  000000000564800000000056480000000005560000000000558800000000055800000000005580000000000558703077000000000001126500000000006295408400000000000000009999123100000010000000000000BRCIELACNOR3111
012013070496CIEL3F      020CIELO       ON      NM   R$  000000000557000000000056680000000005569000000000559300000000055700000000005570000000000561000086000000000000002333000000000013048530000000000000009999123100000010000000000000BRCIELACNOR3111
012013070462CIEL3T      030CIELO       ON      NM077R$  000000000574500000000057460000000005745000000000574500000000057460000000000000000000000000000002000000000000000100000000000000574537000000000000009999123100000010000000000000BRCIELACNOR3111
012013070478CIELH56     070CIEL        ON      NM000R$  000000000022400000000002240000000000224000000000022400000000002240000000000000000000000000000001000000000000100000000000000022400000000000000560002013081900000010000000000000BRCIELACNOR3111
012013070402CLSC4       010CELESC      PN      N2   R$  000000000199600000000020200000000001972000000000200200000000020200000000002000000000000202000012000000000000002100000000000004204500000000000000009999123100000010000000000000BRCLSCACNPR3107
012013070496CLSC4F      020CELESC      PN      N2   R$  000000000200000000000021000000000002000000000000200900000000021000000000001904000000000211800002000000000000000055000000000000110500000000000000009999123100000010000000000000BRCLSCACNPR3107
012013070458CMGR4       010CEMAT       PN           R$  000000000040200000000004020000000000402000000000040200000000004020000000000315000000000044900001000000000000000100000000000000040200000000000000009999123100000010000000000000BRCMGRACNPR4114
012013070402CMIG3       010CEMIG       ON      N1   R$  000000000194100000000019980000000001941000000000196300000000019460000000001946000000000196200195000000000000051000000000000100157100000000000000009999123100000010000000000000BRCMIGACNOR6208
012013070496CMIG3F      020CEMIG       ON      N1   R$  000000000199000000000019900000000001943000000000196800000000019560000000001956000000000199000033000000000000000931000000000001832240000000000000009999123100000010000000000000BRCMIGACNOR6208
012013070402CMIG4       010CEMIG       PN      N1   R$  000000000198700000000020000000000001951000000000197200000000019560000000001956000000000197905289000000000001689900000000003333779000000000000000009999123100000010000000000000BRCMIGACNPR3208
012013070496CMIG4F      020CEMIG       PN      N1   R$  000000000198000000000019990000000001960000000000197900000000019890000000001975000000000199000127000000000000003938000000000007791518000000000000009999123100000010000000000000BRCMIGACNPR3208
012013070462CMIG4S      030CEMIG       PN      N1060R$  000000000201500000000020160000000002015000000000201500000000020160000000000000000000000000000004000000000000014000000000000028218865000000000000009999123100000010000000000000BRCMIGACNPR3208
012013070462CMIG4T      030CEMIG       PN      N1090R$  000000000202500000000020260000000002012000000000201600000000020130000000000000000000000000000006000000000000012800000000000025806526000000000000009999123100000010000000000000BRCMIGACNPR3208
012013070462CMIG4T      030CEMIG       PN      N1182R$  000000000207100000000020720000000002071000000000207100000000020720000000000000000000000000000004000000000000000563000000000001166080000000000000009999123100000010000000000000BRCMIGACNPR3208
012013070462CMIG4T      030CEMIG       PN      N1032R$  000000000199600000000019970000000001968000000000197100000000019690000000000000000000000000000004000000000000000450000000000000887154000000000000009999123100000010000000000000BRCMIGACNPR3208
012013070478CMIGG24     070CMIG        PN      N1000R$  000000000003500000000000350000000000035000000000003500000000000350000000000000000000000006000001000000000000000100000000000000003500000000000200002013071500000010000000000000BRCMIGACNPR3207
012013070412CNES11B     010FII CENESP  CI      MB   R$  000000001235000000000125000000000012350000000001245000000000125000000000012450000000001250000004000000000000000054000000000000672350000000000000009999123100000010000000000000BRCNESCTF001123
012013070402COCA11B     010COCA COLA   DRN     MB   R$  000000000930000000000093000000000009300000000000930000000000093000000000009031000000000939600001000000000000000100000000000000930000000000000000009999123100000010000000000000BRCOCABDR002108
012013070402COCE3       010COELCE      ON           R$  000000000406300000000040630000000004000000000000403100000000040410000000004040000000000404900005000000000000000500000000000002015500000000000000009999123100000010000000000000BRCOCEACNOR0132
012013070402COCE5       010COELCE      PNA          R$  000000000393000000000039770000000003800000000000388000000000038500000000003850000000000386300161000000000000044600000000000173082300000000000000009999123100000010000000000000BRCOCEACNPA3133
012013070496COCE5F      020COELCE      PNA          R$  000000000389500000000039890000000003801000000000389900000000038750000000003850000000000398300022000000000000000324000000000001263421000000000000009999123100000010000000000000BRCOCEACNPA3133
012013070402CPFE3       010CPFL ENERGIAON      NM   R$  000000000202400000000020620000000002010000000000203200000000020550000000002031000000000205501555000000000000433800000000000881608100000000000000009999123100000010000000000000BRCPFEACNOR0121
012013070496CPFE3F      020CPFL ENERGIAON      NM   R$  000000000201300000000021830000000002013000000000204900000000020690000000002010000000000207000020000000000000000430000000000000881353000000000000009999123100000010000000000000BRCPFEACNOR0121
012013070402CPLE3       010COPEL       ON      N1   R$  000000000222900000000022600000000002159000000000218800000000022000000000002101000000000221700064000000000000012700000000000027791700000000000000009999123100000010000000000000BRCPLEACNOR8128
012013070402CPLE6       010COPEL       PNB     N1   R$  000000000279200000000027990000000002740000000000278200000000027800000000002762000000000278000776000000000000279900000000000778795100000000000000009999123100000010000000000000BRCPLEACNPB9125
012013070496CPLE6F      020COPEL       PNB     N1   R$  000000000275800000000028970000000002756000000000279800000000028790000000002760000000000288000010000000000000000264000000000000738917000000000000009999123100000010000000000000BRCPLEACNPB9125
012013070402CRDE3       010CR2         ON      NM   R$  000000000040400000000004050000000000396000000000040000000000004010000000000400000000000041000013000000000000019800000000000007937800000000000000009999123100000010000000000000BRCRDEACNOR1108
012013070402CREM3       010CREMER      ON      NM   R$  000000000139500000000014200000000001395000000000140200000000014000000000001400000000000141000015000000000000010300000000000014447800000000000000009999123100000010000000000000BRCREMACNOR2166
012013070496CREM3F      020CREMER      ON      NM   R$  000000000139600000000014100000000001396000000000140400000000014100000000001393000000000141000003000000000000000051000000000000071651000000000000009999123100000010000000000000BRCREMACNOR2166
012013070402CRIV3       010ALFA FINANC ON           R$  000000000050000000000005000000000000500000000000050000000000005000000000000462000000000052500001000000000000021100000000000010550000000000000000009999123100000010000000000000BRCRIVACNOR4189
012013070402CRIV4       010ALFA FINANC PN           R$  000000000049500000000004950000000000495000000000049500000000004950000000000472000000000049500001000000000000000100000000000000049500000000000000009999123100000010000000000000BRCRIVACNPR1189
012013070402CRUZ3       010SOUZA CRUZ  ON           R$  000000000275000000000027970000000002730000000000274400000000027480000000002747000000000274802144000000000000729600000000002002676600000000000000009999123100000010000000000000BRCRUZACNOR0246
012013070496CRUZ3F      020SOUZA CRUZ  ON           R$  000000000275000000000028070000000002730000000000274400000000028070000000002750000000000280700041000000000000001094000000000003002811000000000000009999123100000010000000000000BRCRUZACNOR0246
012013070478CRUZE82     070CRUZ        ON        000R$  000000000014600000000001460000000000146000000000014600000000001460000000000000000000000000000002000000000000014300000000000002087800000000000319902014051900000010000000000000BRCRUZACNOR0245
012013070402CSAN3       010COSAN       ON      NM   R$  000000000423100000000042600000000004200000000000422800000000042000000000004200000000000422002153000000000000711900000000003010299400000000000000009999123100000010000000000000BRCSANACNOR6107
012013070496CSAN3F      020COSAN       ON      NM   R$  000000000422100000000043790000000004152000000000423700000000042000000000004159000000000420000029000000000000000823000000000003486445000000000000009999123100000010000000000000BRCSANACNOR6107
012013070462CSAN3T      030COSAN       ON      NM090R$  000000000432100000000043460000000004312000000000432100000000043240000000000000000000000000000022000000000000124600000000000538427256000000000000009999123100000010000000000000BRCSANACNOR6107
012013070478CSANG46     070CSAN        ON      NM000R$  000000000000600000000000060000000000006000000000000600000000000060000000000000000000000000000001000000000000001000000000000000006000000000000460002013071500000010000000000000BRCSANACNOR6107
012013070402CSMG3       010COPASA      ON  EJ  NM   R$  000000000322300000000032870000000003192000000000322900000000032270000000003211000000000322702841000000000000458300000000001479888900000000000000009999123100000010000000000000BRCSMGACNOR5127
012013070496CSMG3F      020COPASA      ON  EJ  NM   R$  000000000324000000000033340000000003200000000000324400000000033340000000003200000000000323000017000000000000000438000000000001421174000000000000009999123100000010000000000000BRCSMGACNOR5127
012013070414CSMO11      010ISHARES CSMOCI           R$  000000000444400000000044600000000004444000000000444700000000044440000000000000000000000445800003000000000000001430000000000006360200000000000000009999123100000010000000000000BRCSMOCTF002100
012013070462CSMO11T     030ISHARES CSMOCI        032R$  000000000447300000000044740000000004473000000000447300000000044740000000000000000000000000000002000000000000001000000000000004473330000000000000009999123100000010000000000000BRCSMOCTF002100
012013070402CSNA3       010SID NACIONALON           R$  000000000057500000000005780000000000563000000000056800000000005670000000000566000000000056707901000000000004758600000000002701623700000000000000009999123100000010000000000000BRCSNAACNOR6242
012013070496CSNA3F      020SID NACIONALON           R$  000000000057000000000005740000000000564000000000056800000000005690000000000564000000000057000043000000000000001247000000000000708146000000000000009999123100000010000000000000BRCSNAACNOR6242
012013070462CSNA3T      030SID NACIONALON        032R$  000000000057100000000005790000000000571000000000057600000000005790000000000000000000000000000012000000000000007000000000000004037168000000000000009999123100000010000000000000BRCSNAACNOR6242
012013070462CSNA3T      030SID NACIONALON        060R$  000000000057800000000005790000000000578000000000057800000000005790000000000000000000000000000006000000000000051500000000000029771141000000000000009999123100000010000000000000BRCSNAACNOR6242
012013070462CSNA3T      030SID NACIONALON        090R$  000000000057800000000005790000000000578000000000057800000000005790000000000000000000000000000002000000000000030000000000000017365446000000000000009999123100000010000000000000BRCSNAACNOR6242
012013070462CSNA3T      030SID NACIONALON        180R$  000000000059600000000005970000000000596000000000059600000000005970000000000000000000000000000002000000000000004000000000000002385373000000000000009999123100000010000000000000BRCSNAACNOR6242
012013070478CSNAG54     070CSNA  FM    ON        000R$  000000000004100000000000410000000000041000000000004100000000000410000000000000000000000000000001000000000000003500000000000000143500000000000054002013071500000010000000000000BRCSNAACNOR6242
012013070478CSNAG56     070CSNA  FM    ON        000R$  000000000002700000000000270000000000026000000000002600000000000260000000000000000000000000000016000000000000060500000000000001576500000000000056002013071500000010000000000000BRCSNAACNOR6242
012013070478CSNAG58     070CSNA  FM    ON        000R$  000000000001600000000000160000000000014000000000001400000000000140000000000013000000000001900007000000000000037300000000000000529200000000000058002013071500000010000000000000BRCSNAACNOR6242
012013070478CSNAG6      070CSNA  FM    ON        000R$  000000000001000000000000100000000000008000000000000900000000000080000000000001000000000001200009000000000000042900000000000000387600000000000060002013071500000010000000000000BRCSNAACNOR6242
012013070478CSNAG62     070CSNA  FM    ON        000R$  000000000000500000000000050000000000005000000000000500000000000050000000000000000000000000500001000000000000012000000000000000060000000000000062002013071500000010000000000000BRCSNAACNOR6242
012013070478CSNAG66     070CSNA        ON        000R$  000000000000200000000000020000000000002000000000000200000000000020000000000000000000000000200001000000000000010000000000000000020000000000000066002013071500000010000000000000BRCSNAACNOR6242
012013070478CSNAG7      070CSNA        ON        000R$  000000000000100000000000010000000000001000000000000100000000000010000000000000000000000000100005000000000000025000000000000000025000000000000070002013071500000010000000000000BRCSNAACNOR6242
012013070478CSNAG8      070CSNA        ON        000R$  000000000000100000000000010000000000001000000000000100000000000010000000000000000000000000100002000000000000004700000000000000004700000000000080002013071500000010000000000000BRCSNAACNOR6242
012013070478CSNAH54     070CSNA  FM    ON        000R$  000000000005900000000000590000000000054000000000005600000000000540000000000000000000000000000005000000000000011000000000000000624000000000000054002013081900000010000000000000BRCSNAACNOR6242
012013070478CSNAH56     070CSNA  FM    ON        000R$  000000000004300000000000430000000000043000000000004300000000000430000000000000000000000000000003000000000000009000000000000000387000000000000056002013081900000010000000000000BRCSNAACNOR6242
012013070478CSNAH58     070CSNA  FM    ON        000R$  000000000003400000000000340000000000034000000000003400000000000340000000000000000000000000000001000000000000000100000000000000003400000000000058002013081900000010000000000000BRCSNAACNOR6242
012013070478CSNAH6      070CSNA  FM    ON        000R$  000000000002800000000000290000000000028000000000002800000000000280000000000000000000000013800004000000000000010100000000000000283800000000000060002013081900000010000000000000BRCSNAACNOR6242
012013070478CSNAH68     070CSNA        ON        000R$  000000000000700000000000070000000000007000000000000700000000000070000000000003000000000000000001000000000000002000000000000000014000000000000068002013081900000010000000000000BRCSNAACNOR6242
012013070478CSNAH7      070CSNA        ON        000R$  000000000000500000000000050000000000005000000000000500000000000050000000000000000000000001000001000000000000001000000000000000005000000000000070002013081900000010000000000000BRCSNAACNOR6242
012013070478CSNAI6      070CSNA        ON        000R$  000000000003400000000000340000000000034000000000003400000000000340000000000000000000000000000001000000000000005000000000000000170000000000000060002013091600000010000000000000BRCSNAACNOR6242
012013070482CSNAS54     080CSNAE FM    ON        000R$  000000000000900000000000090000000000009000000000000900000000000090000000000000000000000000000001000000000000001000000000000000009000000000000054002013071500000010000000000000BRCSNAACNOR6242
012013070482CSNAS56     080CSNAE FM    ON        000R$  000000000001600000000000160000000000016000000000001600000000000160000000000016000000000000000001000000000000012500000000000000200000000000000056002013071500000010000000000000BRCSNAACNOR6242
012013070482CSNAS64     080CSNAE       ON        000R$  000000000006700000000000670000000000067000000000006700000000000670000000000036000000000000000001000000000000001000000000000000067000000000000064002013071500000010000000000000BRCSNAACNOR6242
012013070482CSNAT52     080CSNAE       ON        000R$  000000000001900000000000190000000000019000000000001900000000000190000000000000000000000000000002000000000000007400000000000000140600000000000052002013081900000010000000000000BRCSNAACNOR6242
012013070482CSNAT56     080CSNAE FM    ON        000R$  000000000003200000000000330000000000032000000000003200000000000330000000000000000000000000000003000000000000005900000000000000192300000000000056002013081900000010000000000000BRCSNAACNOR6242
012013070482CSNAT58     080CSNAE FM    ON        000R$  000000000004300000000000430000000000043000000000004300000000000430000000000000000000000000000002000000000000006000000000000000258000000000000058002013081900000010000000000000BRCSNAACNOR6242
012013070402CTAX11      010CONTAX      UNT     N2   R$  000000000202900000000020500000000001961000000000197800000000019790000000001950000000000197900061000000000000236100000000000467207000000000000000009999123100000010000000000000BRCTAXCDAM19100
012013070496CTAX11F     020CONTAX      UNT     N2   R$  000000000199200000000021390000000001990000000000199200000000021390000000001845000000000214000003000000000000000054000000000000107611000000000000009999123100000010000000000000BRCTAXCDAM19100
012013070402CTAX3       010CONTAX      ON      N2   R$  000000000050500000000005050000000000461000000000049300000000004610000000000461000000000050500016000000000000004900000000000002416200000000000000009999123100000010000000000000BRCTAXACNOR3113
012013070402CTAX4       010CONTAX      PN      N2   R$  000000000036300000000003680000000000360000000000036200000000003620000000000362000000000036700117000000000000062700000000000022738700000000000000009999123100000010000000000000BRCTAXACNPR0114
012013070496CTAX4F      020CONTAX      PN      N2   R$  000000000037800000000003780000000000378000000000037800000000003780000000000333000000000037800001000000000000000005000000000000001890000000000000009999123100000010000000000000BRCTAXACNPR0114
012013070402CTIP3       010CETIP       ON      NM   R$  000000000222900000000022490000000002176000000000220700000000022090000000002209000000000221403584000000000001284900000000002835863200000000000000009999123100000010000000000000BRCTIPACNOR2119
012013070496CTIP3F      020CETIP       ON      NM   R$  000000000222800000000022900000000002190000000000222800000000022900000000002200000000000229000015000000000000000616000000000001373025000000000000009999123100000010000000000000BRCTIPACNOR2119
012013070482CTIPS52     080CTIPE       ON      NM000R$  000000000006400000000000640000000000064000000000006400000000000640000000000000000000000000000001000000000000425000000000000027200000000000000224402013071500000010000000000000BRCTIPACNOR2118
012013070482CTIPS54     080CTIPE       ON      NM000R$  000000000020700000000002070000000000207000000000020700000000002070000000000000000000000000000001000000000000425000000000000087975000000000000241202013071500000010000000000000BRCTIPACNOR2115
012013070402CTKA4       010KARSTEN     PN           R$  000000000011600000000001160000000000116000000000011600000000001160000000000096000000000011700001000000000000000100000000000000011600000000000000009999123100000010000000000000BRCTKAACNPR7041
012013070402CTNM4       010COTEMINAS   PN           R$  000000000024200000000002500000000000242000000000024900000000002500000000000244000000000025000005000000000000185500000000000046344000000000000000009999123100000010000000000000BRCTNMACNPR6128
012013070496CTNM4F      020COTEMINAS   PN           R$  000000000031800000000003180000000000318000000000031800000000003180000000000223000000000031800001000000000000000005000000000000001590000000000000009999123100000010000000000000BRCTNMACNPR6128
012013070412CXCE11B     010FII CX CEDAECI  ER  MB   R$  000000019000000000001900000000000190000000000019000000000001900000000000188200000000019000000001000000000000000006000000000001140000000000000000009999123100000010000000000000BRCXCECTF004136
012013070412CXTL11      010FII CX TRX  CI  ER       R$  000000008000000000000800000000000080000000000008000000000000800000000000078510000000008000000001000000000000000003000000000000240000000000000000009999123100000010000000000000BRCXTLCTF003120
012013070402CYRE3       010CYRELA REALTON      NM   R$  000000000154200000000015690000000001531000000000154400000000015590000000001551000000000155906691000000000002977300000000004598094000000000000000009999123100000010000000000000BRCYREACNOR7125
012013070496CYRE3F      020CYRELA REALTON      NM   R$  000000000155600000000015690000000001533000000000154700000000015690000000001539000000000156900017000000000000000503000000000000778622000000000000009999123100000010000000000000BRCYREACNOR7125
012013070478CYREG15     070CYRE  FM    ON      NM000R$  000000000007700000000000770000000000077000000000007700000000000770000000000000000000000000000001000000000000001000000000000000077000000000000150002013071500000010000000000000BRCYREACNOR7125
012013070478CYREG16     070CYRE  FM    ON      NM000R$  000000000001500000000000150000000000015000000000001500000000000150000000000008000000000006900001000000000000007000000000000000105000000000000160002013071500000010000000000000BRCYREACNOR7125
012013070478CYREG17     070CYRE  FM    ON      NM000R$  000000000000300000000000030000000000003000000000000300000000000030000000000000000000000000000003000000000000010500000000000000031500000000000170002013071500000010000000000000BRCYREACNOR7125
012013070478CYREG8      070CYRE        ON      NM000R$  000000000000100000000000010000000000001000000000000100000000000010000000000000000000000000000001000000000000007000000000000000007000000000000180002013071500000010000000000000BRCYREACNOR7125
012013070478CYREH16     070CYRE  FM    ON      NM000R$  000000000005600000000000560000000000050000000000005400000000000500000000000000000000000000000002000000000000004000000000000000218000000000000160002013081900000010000000000000BRCYREACNOR7125
012013070482CYRES15     080CYREE FM    ON      NM000R$  000000000002000000000000200000000000020000000000002000000000000200000000000000000000000000000001000000000000007500000000000000150000000000000150002013071500000010000000000000BRCYREACNOR7125
012013070482CYRET15     080CYREE FM    ON      NM000R$  000000000005100000000000510000000000048000000000004900000000000480000000000000000000000000000007000000000000024000000000000001189000000000000150002013081900000010000000000000BRCYREACNOR7125
012013070482CYRET16     080CYREE FM    ON      NM000R$  000000000008900000000000890000000000089000000000008900000000000890000000000000000000000000000001000000000000003000000000000000267000000000000160002013081900000010000000000000BRCYREACNOR7125
012013070482CYREU13     080CYREE       ON      NM000R$  000000000002100000000000210000000000021000000000002100000000000210000000000000000000000000000001000000000000000900000000000000018900000000000130002013091600000010000000000000BRCYREACNOR7125
012013070482CYREU14     080CYREE       ON      NM000R$  000000000003200000000000320000000000032000000000003200000000000320000000000000000000000000000001000000000000000900000000000000028800000000000140002013091600000010000000000000BRCYREACNOR7125
012013070402CZLT11      010COSAN LTD   DR3          R$  000000000365000000000037270000000003602000000000364500000000036250000000003625000000000372900324000000000000115000000000000419273000000000000000009999123100000010000000000000BRCZLTBDR009104
012013070496CZLT11F     020COSAN LTD   DR3          R$  000000000360000000000036000000000003600000000000360000000000036000000000003600000000000399900001000000000000000008000000000000028800000000000000009999123100000010000000000000BRCZLTBDR009104
012013070402DAGB11      010DUFRY AG    DR3          R$  000000002750000000000282000000000027200000000002794800000000282000000000027650000000002820000205000000000000030620000000000855791288000000000000009999123100000010000000000000BRDAGBBDR008100
012013070402DASA3       010DASA        ON      NM   R$  000000000118100000000012120000000001135000000000118700000000011980000000001193000000000119805426000000000001929800000000002291902700000000000000009999123100000010000000000000BRDASAACNOR1108
012013070496DASA3F      020DASA        ON      NM   R$  000000000117900000000012310000000001167000000000119600000000012310000000001150000000000123300016000000000000000346000000000000414760000000000000009999123100000010000000000000BRDASAACNOR1108
012013070402DAYC4       010DAYCOVAL    PN  EJ  N2   R$  000000000086000000000008970000000000857000000000088200000000008600000000000860000000000088500033000000000000028400000000000025052700000000000000009999123100000010000000000000BRDAYCACNPR2128
012013070496DAYC4F      020DAYCOVAL    PN  EJ  N2   R$  000000000089900000000008990000000000899000000000089900000000008990000000000870000000000088300001000000000000000021000000000000018879000000000000009999123100000010000000000000BRDAYCACNPR2128
012013070402DIRR3       010DIRECIONAL  ON      NM   R$  000000000129800000000013070000000001270000000000128700000000012970000000001295000000000129701038000000000000341400000000000439478400000000000000009999123100000010000000000000BRDIRRACNOR0104
012013070496DIRR3F      020DIRECIONAL  ON      NM   R$  000000000128900000000013890000000001259000000000128000000000012590000000001257000000000138900006000000000000000210000000000000268880000000000000009999123100000010000000000000BRDIRRACNOR0104
012013070462DIRR3T      030DIRECIONAL  ON      NM032R$  000000000129300000000012940000000001293000000000129300000000012940000000000000000000000000000002000000000000001000000000000001293758000000000000009999123100000010000000000000BRDIRRACNOR0104
012013070414DIVO11      010IT NOW IDIV CI           R$  000000000302000000000030290000000003000000000000300900000000030140000000003013000000000302600013000000000000000850000000000002557980000000000000009999123100000010000000000000BRDIVOCTF002100
012013070496DIVO11F     020IT NOW IDIV CI           R$  000000000280000000000030280000000002800000000000292100000000029000000000002900000000000302600010000000000000000033000000000000096407000000000000009999123100000010000000000000BRDIVOCTF002100
