00COTAHIST.2013BOVESPA 20131014                                                                                                                                                                                                                      
012013101402ABCB4       010ABC BRASIL  PN      N2   R$  000000000131200000000013330000000001310000000000131900000000013130000000001312000000000131900528000000000000160700000000000212065000000000000000009999123100000010000000000000BRABCBACNPR4120
012013101496ABCB4F      020ABC BRASIL  PN      N2   R$  000000000131000000000013350000000001310000000000131500000000013240000000001323000000000133700006000000000000000157000000000000206598000000000000009999123100000010000000000000BRABCBACNPR4120
012013101462ABCB4T      030ABC BRASIL  PN      N2030R$  000000000133700000000013380000000001337000000000133700000000013380000000000000000000000000000002000000000000042700000000000057090148000000000000009999123100000010000000000000BRABCBACNPR4120
012013101412ABCP11      010FII ABC IMOBCI           R$  000000000098600000000009860000000000986000000000098600000000009860000000000980000000000098600003000000000000000048000000000000047328000000000000009999123100000010000000000000BRABCPCTF000216
012013101402ABRE11      010ABRIL EDUCA UNT     N2   R$  000000000326100000000033240000000003260000000000329000000000032950000000003290000000000329500294000000000000060000000000000197454000000000000000009999123100000010000000000000BRABRECDAM15102
012013101496ABRE11F     020ABRIL EDUCA UNT     N2   R$  000000000325300000000033000000000003253000000000327900000000032820000000003200000000000330000004000000000000000084000000000000275506000000000000009999123100000010000000000000BRABRECDAM15102
012013101402AEDU3       010ANHANGUERA  ON      NM   R$  000000000135700000000013840000000001350000000000137400000000013800000000001368000000000138004602000000000001996200000000002744613800000000000000009999123100000010000000000000BRAEDUACNOR9107
012013101496AEDU3F      020ANHANGUERA  ON      NM   R$  000000000135700000000013840000000001341000000000137200000000013720000000001360000000000138500029000000000000000819000000000001123724000000000000009999123100000010000000000000BRAEDUACNOR9107
012013101462AEDU3T      030ANHANGUERA  ON      NM030R$  000000000139000000000013910000000001390000000000139000000000013910000000000000000000000000000002000000000000500000000000000695153900000000000000009999123100000010000000000000BRAEDUACNOR9107
012013101478AEDUK13     070AEDU        ON      NM000R$  000000000009500000000000950000000000095000000000009500000000000950000000000000000000000012900001000000000000020000000000000001900000000000000130002013111800000010000000000000BRAEDUACNOR9107
012013101412AEFI11      010FII AESAPAR CI           R$  000000001212900000000121290000000011906000000001203200000000119060000000011910000000001209900031000000000000001459000000000017555758000000000000009999123100000010000000000000BRAEFICTF002122
012013101402AELP3       010AES ELPA    ON           R$  000000000089600000000009200000000000896000000000091100000000009120000000000885000000000091300014000000000000005600000000000005102200000000000000009999123100000010000000000000BRAELPACNOR2119
012013101462AELP3T      030AES ELPA    ON        016R$  000000000091400000000009150000000000914000000000091400000000009150000000000000000000000000000002000000000000001000000000000000914607000000000000009999123100000010000000000000BRAELPACNOR2119
012013101412AGCX11      010FII AG CAIXACI           R$  000000009400000000000945000000000094000000000009440400000000945000000000094210000000009450000017000000000000000105000000000009912500000000000000009999123100000010000000000000BRAGCXCTF003111
012013101402AGRO3       010BRASILAGRO  ON      NM   R$  000000000097500000000010000000000000975000000000099700000000009990000000000994000000000099900025000000000000031300000000000031219500000000000000009999123100000010000000000000BRAGROACNOR7102
012013101462AGRO3T      030BRASILAGRO  ON      NM120R$  000000000101600000000010170000000001016000000000101600000000010170000000000000000000000000000002000000000000001200000000000001219998000000000000009999123100000010000000000000BRAGROACNOR7102
012013101496AHEB3F      020SPTURIS     ON           R$  000000000200000000000020000000000002000000000000200000000000020000000000002000000000000000000001000000000000000010000000000000020000000000000000009999123100000010000000000000BRAHEBACNOR0102
012013101496AHEB5F      020SPTURIS     PNA          R$  000000000150200000000018000000000001502000000000165100000000018000000000001800000000000000000002000000000000000042000000000000069342000000000000009999123100000010000000000000BRAHEBACNPA3102
012013101496AHEB6F      020SPTURIS     PNB          R$  000000000180000000000018000000000001800000000000180000000000018000000000001800000000000000000001000000000000000010000000000000018000000000000000009999123100000010000000000000BRAHEBACNPB1102
012013101402ALLL3       010ALL AMER LATON      NM   R$  000000000084900000000008490000000000821000000000082700000000008260000000000826000000000082708215000000000007055600000000005837293900000000000000009999123100000010000000000000BRALLLACNOR6118
012013101496ALLL3F      020ALL AMER LATON      NM   R$  000000000085000000000008500000000000822000000000083000000000008400000000000840000000000085000082000000000000002040000000000001695148000000000000009999123100000010000000000000BRALLLACNOR6118
012013101462ALLL3T      030ALL AMER LATON      NM030R$  000000000082900000000008300000000000829000000000082900000000008300000000000000000000000000000002000000000000000500000000000000414627000000000000009999123100000010000000000000BRALLLACNOR6118
012013101462ALLL3T      030ALL AMER LATON      NM060R$  000000000086100000000008620000000000861000000000086100000000008620000000000000000000000000000002000000000000002000000000000001722961000000000000009999123100000010000000000000BRALLLACNOR6118
012013101462ALLL3T      030ALL AMER LATON      NM091R$  000000000085300000000008540000000000847000000000085100000000008490000000000000000000000000000006000000000000004600000000000003918043000000000000009999123100000010000000000000BRALLLACNOR6118
012013101462ALLL3T      030ALL AMER LATON      NM360R$  000000000091500000000009160000000000915000000000091500000000009160000000000000000000000000000002000000000000000300000000000000274562000000000000009999123100000010000000000000BRALLLACNOR6118
012013101412ALMI11B     010FII TORRE ALCI      MB   R$  000000031700100000003170010000000317000000000031700000000003170000000000315102000000031890000002000000000000000005000000000001585002000000000000009999123100000010000000000000BRALMICTF003206
012013101402ALPA3       010ALPARGATAS  ON      N1   R$  000000000125500000000012790000000001255000000000127400000000012790000000001256000000000128000004000000000000000500000000000000637100000000000000009999123100000010000000000000BRALPAACNOR0203
012013101496ALPA3F      020ALPARGATAS  ON      N1   R$  000000000124700000000012470000000001247000000000124700000000012470000000001247000000000129200001000000000000000010000000000000012470000000000000009999123100000010000000000000BRALPAACNOR0203
012013101402ALPA4       010ALPARGATAS  PN      N1   R$  000000000146300000000014850000000001463000000000147600000000014790000000001479000000000148000902000000000000464200000000000685594100000000000000009999123100000010000000000000BRALPAACNPR7203
012013101496ALPA4F      020ALPARGATAS  PN      N1   R$  000000000146300000000014800000000001463000000000147100000000014700000000001470000000000149500017000000000000000369000000000000543037000000000000009999123100000010000000000000BRALPAACNPR7203
012013101402ALSC3       010ALIANSCE    ON      NM   R$  000000000211500000000021150000000002080000000000209500000000021000000000002100000000000210400909000000000000218200000000000457277400000000000000009999123100000010000000000000BRALSCACNOR0104
012013101496ALSC3F      020ALIANSCE    ON      NM   R$  000000000208500000000021010000000002045000000000207400000000021010000000002044000000000215800005000000000000000109000000000000226077000000000000009999123100000010000000000000BRALSCACNOR0104
012013101402ALUP11      010ALUPAR      UNT     N2   R$  000000000174800000000017640000000001731000000000174200000000017400000000001740000000000175000467000000000000293400000000000511263200000000000000009999123100000010000000000000BRALUPCDAM15100
012013101496ALUP11F     020ALUPAR      UNT     N2   R$  000000000175000000000017540000000001740000000000174800000000017400000000001730000000000175400015000000000000000492000000000000860109000000000000009999123100000010000000000000BRALUPCDAM15100
012013101402AMAR3       010LOJAS MARISAON      NM   R$  000000000199100000000019980000000001956000000000197800000000019950000000001985000000000199503485000000000000647400000000001280810700000000000000009999123100000010000000000000BRAMARACNOR4109
012013101496AMAR3F      020LOJAS MARISAON      NM   R$  000000000197500000000020000000000001959000000000197600000000020000000000001977000000000215200011000000000000000363000000000000717624000000000000009999123100000010000000000000BRAMARACNOR4109
012013101462AMAR3T      030LOJAS MARISAON      NM120R$  000000000203600000000020370000000002036000000000203600000000020370000000000000000000000000000004000000000000026500000000000053959947000000000000009999123100000010000000000000BRAMARACNOR4109
012013101402AMBV3       010AMBEV       ON           R$  000000000842500000000085890000000008398000000000853100000000085290000000008529000000000856001106000000000000188900000000001611670200000000000000009999123100000010000000000000BRAMBVACNOR4154
012013101496AMBV3F      020AMBEV       ON           R$  000000000847900000000085890000000008400000000000851800000000085600000000008533000000000857000052000000000000001197000000000010196972000000000000009999123100000010000000000000BRAMBVACNOR4154
012013101462AMBV3T      030AMBEV       ON        016R$  000000000844900000000084500000000008449000000000844900000000084500000000000000000000000000000002000000000000001000000000000008449691000000000000009999123100000010000000000000BRAMBVACNOR4154
012013101402AMBV4       010AMBEV       PN           R$  000000000840100000000085850000000008361000000000852000000000085120000000008512000000000851305815000000000001060100000000009032073900000000000000009999123100000010000000000000BRAMBVACNPR1154
012013101496AMBV4F      020AMBEV       PN           R$  000000000843000000000085800000000008390000000000851300000000085300000000008512000000000853000211000000000000004792000000000040795063000000000000009999123100000010000000000000BRAMBVACNPR1154
012013101462AMBV4T      030AMBEV       PN        023R$  000000000860700000000086080000000008607000000000860700000000086080000000000000000000000000000002000000000000002800000000000024102093000000000000009999123100000010000000000000BRAMBVACNPR1154
012013101462AMBV4T      030AMBEV       PN        030R$  000000000856200000000085630000000008562000000000856200000000085630000000000000000000000000000002000000000000000100000000000000856274000000000000009999123100000010000000000000BRAMBVACNPR1154
012013101462AMBV4T      030AMBEV       PN        120R$  000000000872700000000087280000000008727000000000872700000000087280000000000000000000000000000002000000000000006800000000000059348163000000000000009999123100000010000000000000BRAMBVACNPR1154
012013101478AMBVK91     070AMBV        PN        000R$  000000000004400000000000440000000000042000000000004300000000000420000000000000000000000000000002000000000000001400000000000000060400000000000910002013111800000010000000000000BRAMBVACNPR1154
012013101402ARTR3       010ARTERIS     ON      NM   R$  000000000194500000000019610000000001933000000000194200000000019450000000001945000000000195801167000000000000340800000000000662078500000000000000009999123100000010000000000000BRARTRACNOR3101
012013101496ARTR3F      020ARTERIS     ON      NM   R$  000000000192600000000019560000000001926000000000195100000000019560000000001941000000000198900006000000000000000098000000000000191283000000000000009999123100000010000000000000BRARTRACNOR3101
012013101402ARZZ3       010AREZZO CO   ON      NM   R$  000000000361300000000036130000000003475000000000351200000000034800000000003480000000000350500968000000000000139900000000000491437400000000000000009999123100000010000000000000BRARZZACNOR3109
012013101496ARZZ3F      020AREZZO CO   ON      NM   R$  000000000358000000000035800000000003460000000000350600000000035230000000003475000000000355000019000000000000000380000000000001332645000000000000009999123100000010000000000000BRARZZACNOR3109
012013101462ARZZ3T      030AREZZO CO   ON      NM016R$  000000000349500000000034960000000003495000000000349500000000034960000000000000000000000000000002000000000000001000000000000003495312000000000000009999123100000010000000000000BRARZZACNOR3109
012013101462ARZZ3T      030AREZZO CO   ON      NM030R$  000000000353800000000035390000000003506000000000352200000000035070000000000000000000000000000004000000000000001000000000000003522220000000000000009999123100000010000000000000BRARZZACNOR3109
012013101402AUTM3       010AUTOMETAL   ON      NM   R$  000000000184100000000018480000000001835000000000184000000000018410000000001841000000000184900217000000000000260100000000000478801800000000000000009999123100000010000000000000BRAUTMACNOR8109
012013101496AUTM3F      020AUTOMETAL   ON      NM   R$  000000000184400000000018450000000001840000000000184100000000018400000000001750000000000190000003000000000000000077000000000000141804000000000000009999123100000010000000000000BRAUTMACNOR8109
012013101402BAHI3       010BAHEMA      ON           R$  000000000048000000000004800000000000480000000000048000000000004800000000000475000000000050500002000000000000003000000000000001440000000000000000009999123100000010000000000000BRBAHIACNOR1066
012013101402BALM4       010BAUMER      PN           R$  000000000955000000000095500000000009550000000000955000000000095500000000009200000000001000000001000000000000000100000000000000955000000000000000009999123100000010000000000000BRBALMACNPR2043
012013101402BAUH4       010EXCELSIOR   PN           R$  000000000092000000000009380000000000900000000000090600000000009380000000000826000000000093800003000000000000000900000000000000815800000000000000009999123100000010000000000000BRBAUHACNPR3108
012013101402BAZA3       010AMAZONIA    ON           R$  000000000003300000000000330000000000033000000000003300000000000330000000000032000000000003300004000000000000014000000000000000462000000000000000009999123100000010000000000000BRBAZAACNOR0163
012013101496BAZA3F      020AMAZONIA    ON           R$  000000000003200000000000320000000000032000000000003200000000000320000000000032000000000003400001000000000000000236000000000000007552000000000000009999123100000010000000000000BRBAZAACNOR0163
012013101402BBAS3       010BRASIL      ON      NM   R$  000000000265000000000027100000000002648000000000268300000000027060000000002706000000000271009927000000000004066400000000010913184500000000000000009999123100000010000000000000BRBBASACNOR3239
012013101496BBAS3F      020BRASIL      ON      NM   R$  000000000265500000000027090000000002647000000000268000000000027080000000002700000000000270800272000000000000007583000000000020331672000000000000009999123100000010000000000000BRBBASACNOR3239
012013101462BBAS3T      030BRASIL      ON      NM030R$  000000000272800000000027290000000002726000000000272700000000027270000000000000000000000000000006000000000000013700000000000037371763000000000000009999123100000010000000000000BRBBASACNOR3239
012013101478BBASJ24     070BBAS        ON      NM000R$  000000000041000000000004380000000000404000000000042600000000004380000000000401000000000000000014000000000000008500000000000003623000000000000227102013102100000010000000000000BRBBASACNOR3236
012013101478BBASJ25     070BBAS        ON      NM000R$  000000000026600000000003220000000000266000000000030000000000003220000000000272000000000000000014000000000000023700000000000007110000000000000239502013102100000010000000000000BRBBASACNOR3237
012013101478BBASJ26     070BBAS        ON      NM000R$  000000000019600000000002400000000000196000000000022000000000002400000000000240000000000000000048000000000000037800000000000008347300000000000246102013102100000010000000000000BRBBASACNOR3235
012013101478BBASJ27     070BBAS        ON      NM000R$  000000000010000000000001560000000000100000000000012700000000001500000000000139000000000000000119000000000000074900000000000009544100000000000256102013102100000010000000000000BRBBASACNOR3235
012013101478BBASJ28     070BBAS        ON      NM000R$  000000000001700000000000400000000000014000000000003100000000000390000000000037000000000004100111000000000000255400000000000007955700000000000269502013102100000010000000000000BRBBASACNOR3237
012013101478BBASJ29     070BBAS        ON      NM000R$  000000000000700000000000130000000000007000000000001100000000000130000000000010000000000001300008000000000000021200000000000000236100000000000276102013102100000010000000000000BRBBASACNOR3235
012013101478BBASJ30     070BBAS        ON      NM000R$  000000000000100000000000030000000000001000000000000100000000000030000000000002000000000000300004000000000000002100000000000000002300000000000286102013102100000010000000000000BRBBASACNOR3235
012013101478BBASJ65     070BBAS        ON      NM000R$  000000000004600000000000730000000000046000000000005600000000000710000000000000000000000000000052000000000000011900000000000000666900000000000265002013102100000010000000000000BRBBASACNOR3239
012013101478BBASK24     070BBAS        ON      NM000R$  000000000039000000000004250000000000390000000000041700000000004250000000000425000000000000000006000000000000006500000000000002712600000000000229502013111800000010000000000000BRBBASACNOR3237
012013101478BBASK26     070BBAS        ON      NM000R$  000000000022300000000002660000000000223000000000025700000000002660000000000225000000000039900010000000000000005700000000000001467800000000000247102013111800000010000000000000BRBBASACNOR3236
012013101478BBASK27     070BBAS  FM    ON      NM000R$  000000000013900000000001810000000000139000000000016600000000001760000000000176000000000000000044000000000000067300000000000011188100000000000257102013111800000010000000000000BRBBASACNOR3236
012013101478BBASK28     070BBAS  FM    ON      NM000R$  000000000008000000000001090000000000080000000000009700000000001070000000000105000000000011500040000000000000057300000000000005593400000000000267102013111800000010000000000000BRBBASACNOR3236
012013101478BBASK29     070BBAS  FM    ON      NM000R$  000000000003200000000000450000000000032000000000003700000000000450000000000016000000000000000022000000000000049300000000000001849000000000000279502013111800000010000000000000BRBBASACNOR3237
012013101478BBASK30     070BBAS  FM    ON      NM000R$  000000000001400000000000190000000000014000000000001800000000000190000000000010000000000002000007000000000000012100000000000000219800000000000289502013111800000010000000000000BRBBASACNOR3237
012013101478BBASK31     070BBAS  FM    ON      NM000R$  000000000000800000000000080000000000008000000000000800000000000080000000000007000000000000000001000000000000004200000000000000033600000000000299502013111800000010000000000000BRBBASACNOR3237
012013101478BBASK32     070BBAS        ON      NM000R$  000000000000100000000000010000000000001000000000000100000000000010000000000002000000000004800001000000000000001000000000000000001000000000000320002013111800000010000000000000BRBBASACNOR3239
012013101478BBASK56     070BBAS        ON      NM000R$  000000000010400000000001040000000000104000000000010400000000001040000000000108000000000000000001000000000000004000000000000000416000000000000262302013111800000010000000000000BRBBASACNOR3238
012013101478BBASK57     070BBAS        ON      NM000R$  000000000004000000000000510000000000040000000000004700000000000480000000000000000000000000000005000000000000014400000000000000677400000000000275002013111800000010000000000000BRBBASACNOR3239
012013101478BBASL26     070BBAS        ON      NM000R$  000000000026800000000002680000000000268000000000026800000000002680000000000016000000000000000001000000000000000500000000000000134000000000000246102013121600000010000000000000BRBBASACNOR3235
012013101478BBASL27     070BBAS  FM    ON      NM000R$  000000000016200000000001950000000000160000000000017500000000001920000000000016000000000021500024000000000000035600000000000006259900000000000259502013121600000010000000000000BRBBASACNOR3237
012013101478BBASL28     070BBAS  FM    ON      NM000R$  000000000011000000000001290000000000110000000000012100000000001260000000000076000000000000000024000000000000037000000000000004488300000000000269502013121600000010000000000000BRBBASACNOR3237
012013101478BBASL29     070BBAS  FM    ON      NM000R$  000000000007000000000000930000000000070000000000008300000000000900000000000059000000000000000015000000000000018600000000000001547700000000000276102013121600000010000000000000BRBBASACNOR3235
012013101478BBASL79     070BBAS  FM    ON      NM000R$  000000000003000000000000360000000000030000000000003300000000000360000000000000000000000000000176000000000000310200000000000010429100000000000290002013121600000010000000000000BRBBASACNOR3239
012013101482BBASM26     080BBASE       ON      NM000R$  000000000005300000000000530000000000048000000000005100000000000480000000000000000000000000000003000000000000008800000000000000451400000000000249502014012000000010000000000000BRBBASACNOR3237
012013101482BBASM27     080BBASE       ON      NM000R$  000000000007800000000000780000000000069000000000007200000000000690000000000000000000000000000015000000000000041300000000000002979400000000000259502014012000000010000000000000BRBBASACNOR3237
012013101482BBASV24     080BBASE       ON      NM000R$  000000000000100000000000010000000000001000000000000100000000000010000000000000000000000000100001000000000000000400000000000000000400000000000227102013102100000010000000000000BRBBASACNOR3236
012013101482BBASV27     080BBASE       ON      NM000R$  000000000000600000000000070000000000003000000000000400000000000030000000000002000000000000400014000000000000033300000000000000152700000000000256102013102100000010000000000000BRBBASACNOR3235
012013101482BBASV28     080BBASE       ON      NM000R$  000000000004800000000000490000000000030000000000004100000000000300000000000000000000000004500011000000000000020500000000000000858000000000000269502013102100000010000000000000BRBBASACNOR3237
012013101482BBASV65     080BBASE       ON      NM000R$  000000000002400000000000240000000000024000000000002400000000000240000000000000000000000000000002000000000000004000000000000000096000000000000265002013102100000010000000000000BRBBASACNOR3239
012013101482BBASW25     080BBASE       ON      NM000R$  000000000000900000000000090000000000009000000000000900000000000090000000000000000000000000000001000000000000001000000000000000009000000000000237102013111800000010000000000000BRBBASACNOR3236
012013101482BBASW26     080BBASE FM    ON      NM000R$  000000000001900000000000190000000000015000000000001800000000000150000000000000000000000002800002000000000000000400000000000000007200000000000247102013111800000010000000000000BRBBASACNOR3236
012013101482BBASW27     080BBASE FM    ON      NM000R$  000000000004200000000000420000000000027000000000003600000000000270000000000026000000000003000026000000000000057600000000000002091300000000000257102013111800000010000000000000BRBBASACNOR3236
012013101482BBASW28     080BBASE FM    ON      NM000R$  000000000006900000000000690000000000057000000000005900000000000570000000000000000000000000000007000000000000011200000000000000667200000000000267102013111800000010000000000000BRBBASACNOR3236
012013101482BBASW29     080BBASE FM    ON      NM000R$  000000000015400000000001540000000000114000000000012700000000001140000000000000000000000019400031000000000000046500000000000005938200000000000279502013111800000010000000000000BRBBASACNOR3237
012013101482BBASW56     080BBASE       ON      NM000R$  000000000005400000000000540000000000039000000000004700000000000390000000000038000000000000000112000000000000220000000000000010555000000000000262302013111800000010000000000000BRBBASACNOR3238
012013101482BBASX25     080BBASE       ON      NM000R$  000000000002000000000000200000000000020000000000002000000000000200000000000000000000000000000001000000000000001200000000000000024000000000000236102013121600000010000000000000BRBBASACNOR3235
012013101482BBASX26     080BBASE FM    ON      NM000R$  000000000003300000000000330000000000027000000000002900000000000270000000000000000000000010000004000000000000006400000000000000187800000000000246102013121600000010000000000000BRBBASACNOR3235
012013101482BBASX27     080BBASE FM    ON      NM000R$  000000000006000000000000600000000000051000000000005600000000000510000000000000000000000000000011000000000000017600000000000000993500000000000259502013121600000010000000000000BRBBASACNOR3237
012013101482BBASX28     080BBASE FM    ON      NM000R$  000000000011200000000001120000000000082000000000009300000000000830000000000000000000000011500073000000000000118400000000000011122300000000000269502013121600000010000000000000BRBBASACNOR3237
012013101402BBDC3       010BRADESCO    ON      N1   R$  000000000360600000000036930000000003571000000000365000000000036710000000003671000000000367503032000000000000849200000000003099953000000000000000009999123100000010000000000000BRBBDCACNOR1607
012013101496BBDC3F      020BRADESCO    ON      N1   R$  000000000360500000000036990000000003581000000000365600000000036850000000003660000000000368500046000000000000001244000000000004548803000000000000009999123100000010000000000000BRBBDCACNOR1607
012013101402BBDC4       010BRADESCO    PN      N1   R$  000000000315100000000032330000000003128000000000320100000000032240000000003224000000000322514937000000000006274900000000020087264900000000000000009999123100000010000000000000BRBBDCACNPR8607
012013101496BBDC4F      020BRADESCO    PN      N1   R$  000000000315000000000032340000000003130000000000319500000000032340000000003210000000000323400259000000000000007602000000000024298083000000000000009999123100000010000000000000BRBBDCACNPR8607
012013101462BBDC4T      030BRADESCO    PN      N1016R$  000000000321000000000032460000000003210000000000322700000000032460000000000000000000000000000004000000000000002000000000000006455922000000000000009999123100000010000000000000BRBBDCACNPR8607
012013101462BBDC4T      030BRADESCO    PN      N1023R$  000000000325100000000032520000000003251000000000325100000000032520000000000000000000000000000002000000000000007800000000000025360571000000000000009999123100000010000000000000BRBBDCACNPR8607
012013101462BBDC4T      030BRADESCO    PN      N1030R$  000000000322400000000032250000000003224000000000322400000000032250000000000000000000000000000002000000000000004000000000000012898560000000000000009999123100000010000000000000BRBBDCACNPR8607
012013101478BBDCC62     070BBDCE       PN      N1000R$  000000000003500000000000350000000000035000000000003500000000000350000000000000000000000000000002000000000000814000000000000028490000000000000393202014031700000010000000000000BRBBDCACNPR8597
012013101478BBDCJ1      070BBDC        PN      N1000R$  000000000010400000000001040000000000104000000000010400000000001040000000000000000000000000000001000000000000001000000000000000104000000000000314202013102100000010000000000000BRBBDCACNPR8603
012013101478BBDCJ2      070BBDC        PN      N1000R$  000000000003000000000000300000000000030000000000003000000000000300000000000000000000000000000016000000000000084300000000000002529000000000000324202013102100000010000000000000BRBBDCACNPR8603
012013101478BBDCJ30     070BBDC        PN      N1000R$  000000000017800000000002670000000000178000000000023300000000002670000000000241000000000027500042000000000000033000000000000007704200000000000297402013102100000010000000000000BRBBDCACNPR8602
012013101478BBDCJ31     070BBDC        PN      N1000R$  000000000009000000000001680000000000086000000000012400000000001680000000000150000000000000000049000000000000065200000000000008103000000000000307402013102100000010000000000000BRBBDCACNPR8602
012013101478BBDCJ32     070BBDC        PN      N1000R$  000000000004500000000000780000000000045000000000006600000000000780000000000032000000000000000034000000000000097200000000000006458100000000000317402013102100000010000000000000BRBBDCACNPR8602
012013101478BBDCJ33     070BBDC        PN      N1000R$  000000000001700000000000220000000000017000000000001900000000000220000000000013000000000002400007000000000000039000000000000000749400000000000327402013102100000010000000000000BRBBDCACNPR8602
012013101478BBDCJ34     070BBDC        PN      N1000R$  000000000000300000000000070000000000003000000000000600000000000070000000000004000000000000000002000000000000006000000000000000038000000000000337002013102100000010000000000000BRBBDCACNPR8600
012013101478BBDCK30     070BBDC  FM    PN      N1000R$  000000000020700000000002720000000000207000000000024500000000002700000000000182000000000000000318000000000000259700000000000063733100000000000299602013111800000010000000000000BRBBDCACNPR8605
012013101478BBDCK31     070BBDC  FM    PN      N1000R$  000000000012600000000001910000000000120000000000015800000000001900000000000102000000000000000111000000000000119600000000000018967000000000000309602013111800000010000000000000BRBBDCACNPR8605
012013101478BBDCK32     070BBDC  FM    PN      N1000R$  000000000009000000000001360000000000082000000000012100000000001330000000000102000000000000000120000000000000154500000000000018700900000000000317202013111800000010000000000000BRBBDCACNPR8601
012013101478BBDCK33     070BBDC  FM    PN      N1000R$  000000000004600000000000800000000000046000000000006700000000000760000000000042000000000008800364000000000000291100000000000019731300000000000327402013111800000010000000000000BRBBDCACNPR8602
012013101478BBDCK34     070BBDC  FM    PN      N1000R$  000000000002000000000000360000000000020000000000002700000000000340000000000034000000000003700092000000000000151700000000000004144500000000000339402013111800000010000000000000BRBBDCACNPR8604
012013101478BBDCK35     070BBDC        PN      N1000R$  000000000001300000000000180000000000013000000000001400000000000170000000000018000000000003800009000000000000006700000000000000099500000000000347402013111800000010000000000000BRBBDCACNPR8602
012013101478BBDCK36     070BBDC        PN      N1000R$  000000000000600000000000060000000000006000000000000600000000000060000000000008000000000000000003000000000000010000000000000000060000000000000357202013111800000010000000000000BRBBDCACNPR8601
012013101478BBDCK39     070BBDC        PN      N1000R$  000000000000200000000000020000000000002000000000000200000000000020000000000000000000000000000001000000000000000100000000000000000200000000000390002013111800000010000000000000BRBBDCACNPR8607
012013101478BBDCL1      070BBDC  FM    PN      N1000R$  000000000019400000000002490000000000194000000000022800000000002470000000000182000000000000000041000000000000049300000000000011288400000000000307002013121600000010000000000000BRBBDCACNPR8600
012013101478BBDCL29     070BBDC        PN      N1000R$  000000000039600000000003960000000000396000000000039600000000003960000000000169000000000000000001000000000000000300000000000000118800000000000287402013121600000010000000000000BRBBDCACNPR8602
012013101478BBDCL3      070BBDC  FM    PN      N1000R$  000000000009900000000001180000000000092000000000010100000000001180000000000000000000000000000052000000000000058600000000000005975200000000000327002013121600000010000000000000BRBBDCACNPR8601
012013101478BBDCL32     070BBDC  FM    PN      N1000R$  000000000013100000000001770000000000131000000000015300000000001770000000000068000000000000000024000000000000036400000000000005601500000000000317002013121600000010000000000000BRBBDCACNPR8600
012013101478BBDCL34     070BBDC  FM    PN      N1000R$  000000000005100000000000590000000000051000000000005100000000000590000000000000000000000000000003000000000000003200000000000000164800000000000337002013121600000010000000000000BRBBDCACNPR8600
012013101478BBDCL35     070BBDC        PN      N1000R$  000000000003400000000000420000000000034000000000003400000000000420000000000036000000000009000044000000000000060500000000000002061000000000000347002013121600000010000000000000BRBBDCACNPR8600
012013101478BBDCL36     070BBDC        PN      N1000R$  000000000012900000000001290000000000129000000000012900000000001290000000000000000000000000000001000000000000001000000000000000129000000000000323902013121600000010000000000000BRBBDCACNPR8597
012013101482BBDCM26     080BBDCE       PN      N1000R$  000000000001100000000000110000000000010000000000001000000000000100000000000000000000000000000002000000000000002400000000000000025200000000000260002014012000000010000000000000BRBBDCACNPR8607
012013101482BBDCM56     080BBDCE       PN      N1000R$  000000000001300000000000130000000000013000000000001300000000000130000000000000000000000000000002000000000000001400000000000000018200000000000265002014012000000010000000000000BRBBDCACNPR8607
012013101482BBDCO61     080BBDCE       PN      N1000R$  000000000003200000000000320000000000032000000000003200000000000320000000000000000000000000000002000000000000814000000000000026048000000000000278602014031700000010000000000000BRBBDCACNPR8598
012013101482BBDCV1      080BBDCE       PN      N1000R$  000000000002400000000000240000000000024000000000002400000000000240000000000000000000000000000001000000000000001700000000000000040800000000000314202013102100000010000000000000BRBBDCACNPR8603
012013101482BBDCV27     080BBDCE       PN      N1000R$  000000000000100000000000010000000000001000000000000100000000000010000000000000000000000001300002000000000000017000000000000000017000000000000267402013102100000010000000000000BRBBDCACNPR8602
012013101482BBDCV29     080BBDCE       PN      N1000R$  000000000000200000000000020000000000002000000000000200000000000020000000000001000000000000000001000000000000000100000000000000000200000000000287402013102100000010000000000000BRBBDCACNPR8602
012013101482BBDCV30     080BBDCE       PN      N1000R$  000000000000300000000000030000000000003000000000000300000000000030000000000001000000000000000001000000000000001200000000000000003600000000000297402013102100000010000000000000BRBBDCACNPR8602
012013101482BBDCV31     080BBDCE       PN      N1000R$  000000000001200000000000120000000000005000000000000800000000000050000000000000000000000000800002000000000000002200000000000000019400000000000307402013102100000010000000000000BRBBDCACNPR8602
012013101482BBDCV32     080BBDCE       PN      N1000R$  000000000003900000000000390000000000019000000000002500000000000210000000000000000000000002400008000000000000008900000000000000230700000000000317402013102100000010000000000000BRBBDCACNPR8602
012013101482BBDCV33     080BBDCE       PN      N1000R$  000000000009100000000000910000000000062000000000007000000000000620000000000000000000000000000008000000000000026000000000000001829000000000000327402013102100000010000000000000BRBBDCACNPR8602
012013101482BBDCW25     080BBDCE       PN      N1000R$  000000000000200000000000020000000000002000000000000200000000000020000000000000000000000000000001000000000000000100000000000000000200000000000249402013111800000010000000000000BRBBDCACNPR8604
012013101482BBDCW30     080BBDCE FM    PN      N1000R$  000000000002400000000000240000000000016000000000001700000000000160000000000000000000000003000034000000000000067800000000000001212200000000000299602013111800000010000000000000BRBBDCACNPR8605
012013101482BBDCW31     080BBDCE FM    PN      N1000R$  000000000005500000000000550000000000035000000000004000000000000350000000000000000000000003900090000000000000225200000000000009030400000000000309602013111800000010000000000000BRBBDCACNPR8605
012013101482BBDCW32     080BBDCE FM    PN      N1000R$  000000000008800000000000880000000000055000000000006300000000000570000000000000000000000000000023000000000000043200000000000002723500000000000317202013111800000010000000000000BRBBDCACNPR8601
012013101482BBDCW33     080BBDCE       PN      N1000R$  000000000011900000000001190000000000107000000000011500000000001070000000000000000000000015600002000000000000003000000000000000345000000000000327402013111800000010000000000000BRBBDCACNPR8602
012013101482BBDCW9      080BBDCE FM    PN      N1000R$  000000000001100000000000110000000000008000000000000800000000000080000000000008000000000000000022000000000000037400000000000000312200000000000289602013111800000010000000000000BRBBDCACNPR8605
012013101482BBDCX1      080BBDCE FM    PN      N1000R$  000000000006900000000000690000000000048000000000005300000000000480000000000000000000000000000020000000000000030000000000000001618900000000000307002013121600000010000000000000BRBBDCACNPR8600
012013101482BBDCX29     080BBDCE       PN      N1000R$  000000000002000000000000200000000000020000000000002000000000000200000000000000000000000000000003000000000000011500000000000000230000000000000287402013121600000010000000000000BRBBDCACNPR8602
012013101482BBDCX32     080BBDCE FM    PN      N1000R$  000000000009900000000001000000000000076000000000008800000000000790000000000000000000000000000066000000000000095000000000000008398400000000000317002013121600000010000000000000BRBBDCACNPR8600
012013101482BBDCX33     080BBDCE FM    PN      N1000R$  000000000004100000000000410000000000029000000000003100000000000290000000000000000000000000000010000000000000014400000000000000448600000000000296802013121600000010000000000000BRBBDCACNPR8598
012013101412BBFI11B     010FII BB PROGRCI      MB   R$  000000042000000000004205000000000419001000000041913900000004205000000000419100000000042088800005000000000000000018000000000007544516000000000000009999123100000010000000000000BRBBFICTF006199
012013101412BBPO11      010FII BB PRGIICI           R$  000000001120200000000112470000000011155000000001119000000000111550000000011155000000001118100243000000000000032954000000000368773989000000000000009999123100000010000000000000BRBBPOCTF003111
012013101412BBRC11      010FII BB CORP CI           R$  000000000898900000000089890000000008989000000000898900000000089890000000008912000000000895000001000000000000000003000000000000026967000000000000009999123100000010000000000000BRBBRCCTF004125
012013101402BBRK3       010BR BROKERS  ON      NM   R$  000000000062000000000006270000000000615000000000062000000000006250000000000624000000000062501661000000000000312500000000000194081600000000000000009999123100000010000000000000BRBBRKACNOR4108
012013101496BBRK3F      020BR BROKERS  ON      NM   R$  000000000056500000000006500000000000565000000000063000000000006500000000000616000000000064900007000000000000000184000000000000115965000000000000009999123100000010000000000000BRBBRKACNOR4108
012013101402BBSE3       010BBSEGURIDADEON      NM   R$  000000000232600000000023800000000002301000000000235400000000023590000000002359000000000236011139000000000004245700000000009994598400000000000000009999123100000010000000000000BRBBSEACNOR5101
012013101496BBSE3F      020BBSEGURIDADEON      NM   R$  000000000232000000000023770000000002293000000000234500000000023480000000002348000000000235000423000000000000013189000000000030930715000000000000009999123100000010000000000000BRBBSEACNOR5101
012013101462BBSE3T      030BBSEGURIDADEON      NM091R$  000000000236500000000024210000000002365000000000241400000000024140000000000000000000000000000022000000000000801300000000001934985074000000000000009999123100000010000000000000BRBBSEACNOR5101
012013101478BBSEK23     070BBSE        ON      NM000R$  000000000012500000000001250000000000125000000000012500000000001250000000000000000000000000000001000000000000005100000000000000637500000000000230002013111800000010000000000000BRBBSEACNOR5101
012013101482BBSEV19     080BBSEE       ON      NM000R$  000000000000100000000000010000000000001000000000000100000000000010000000000000000000000000000001000000000000010700000000000000010700000000000185902013102100000010000000000000BRBBSEACNOR5100
012013101482BBSEV47     080BBSEE       ON      NM000R$  000000000000100000000000010000000000001000000000000100000000000010000000000000000000000000000001000000000000010700000000000000010700000000000170902013102100000010000000000000BRBBSEACNOR5100
012013101482BBSEW49     080BBSEE       ON      NM000R$  000000000000200000000000020000000000002000000000000200000000000020000000000000000000000000000001000000000000005100000000000000010200000000000192502013111800000010000000000000BRBBSEACNOR5101
012013101482BBSEW60     080BBSEE       ON      NM000R$  000000000000400000000000040000000000004000000000000400000000000040000000000000000000000000000001000000000000005100000000000000020400000000000207502013111800000010000000000000BRBBSEACNOR5101
012013101402BBTG11      010BTG PACTUAL UNT          R$  000000000285100000000028870000000002818000000000286300000000028870000000002870000000000288700295000000000000069800000000000199877700000000000000009999123100000010000000000000BRBBTGUNT007105
012013101496BBTG11F     020BTG PACTUAL UNT          R$  000000000281500000000029000000000002815000000000286000000000029000000000002820000000000290000005000000000000000102000000000000291803000000000000009999123100000010000000000000BRBBTGUNT007105
012013101412BBVJ11      010FII C JARDIMCI           R$  000000000785000000000078500000000007781000000000778100000000077810000000007781000000000779000013000000000000000898000000000006987970000000000000009999123100000010000000000000BRBBVJCTF001134
012013101412BCFF11B     010FII BC FFII CI  ER  MB   R$  000000000899500000000090400000000008901000000000897500000000089650000000008903000000000896500091000000000000002222000000000019942962000000000000009999123100000010000000000000BRBCFFCTF000143
012013101402BEEF3       010MINERVA     ON      NM   R$  000000000094300000000009970000000000943000000000098100000000009820000000000982000000000098704131000000000001068800000000001048597700000000000000009999123100000010000000000000BRBEEFACNOR6104
012013101496BEEF3F      020MINERVA     ON      NM   R$  000000000094200000000009950000000000942000000000096500000000009950000000000975000000000099500003000000000000000009000000000000008690000000000000009999123100000010000000000000BRBEEFACNOR6104
012013101402BEES3       010BANESTES    ON           R$  000000000005000000000000500000000000050000000000005000000000000500000000000049000000000005000006000000000000052200000000000002610000000000000000009999123100000010000000000000BRBEESACNOR9245
012013101402BEES4       010BANESTES    PN           R$  000000000004600000000000460000000000046000000000004600000000000460000000000045000000000004600004000000000000000800000000000000036800000000000000009999123100000010000000000000BRBEESACNPR6170
012013101402BEMA3       010BEMATECH    ON      NM   R$  000000000079400000000007940000000000756000000000078000000000007710000000000771000000000077300327000000000000408200000000000318430700000000000000009999123100000010000000000000BRBEMAACNOR0114
012013101496BEMA3F      020BEMATECH    ON      NM   R$  000000000077700000000007770000000000703000000000076600000000007030000000000765000000000084900005000000000000000220000000000000168646000000000000009999123100000010000000000000BRBEMAACNOR0114
012013101402BHGR3       010BHG         ON      NM   R$  000000000152600000000015260000000001475000000000148100000000014770000000001473000000000148000058000000000000040000000000000059248600000000000000009999123100000010000000000000BRBHGRACNOR9101
012013101496BHGR3F      020BHG         ON      NM   R$  000000000150000000000015000000000001500000000000150000000000015000000000001451000000000148900002000000000000000018000000000000027000000000000000009999123100000010000000000000BRBHGRACNOR9101
012013101402BICB4       010BICBANCO    PN      N1   R$  000000000058200000000006000000000000580000000000059600000000005970000000000590000000000059700125000000000000182400000000000108764500000000000000009999123100000010000000000000BRBICBACNPR7131
012013101496BICB4F      020BICBANCO    PN      N1   R$  000000000060000000000006000000000000593000000000059300000000005930000000000551000000000059300007000000000000000134000000000000079539000000000000009999123100000010000000000000BRBICBACNPR7131
012013101496BIOM3F      020BIOMM       ON           R$  000000000097400000000009740000000000974000000000097400000000009740000000000851000000000096000001000000000000000001000000000000000974000000000000009999123100000010000000000000BRBIOMACNOR2101
012013101402BISA3       010BROOKFIELD  ON      NM   R$  000000000015400000000001600000000000154000000000015700000000001600000000000159000000000016001971000000000004408600000000000693112800000000000000009999123100000010000000000000BRBISAACNOR8109
012013101496BISA3F      020BROOKFIELD  ON      NM   R$  000000000015400000000001590000000000153000000000015500000000001590000000000155000000000015900013000000000000000273000000000000042498000000000000009999123100000010000000000000BRBISAACNOR8109
012013101462BISA3T      030BROOKFIELD  ON      NM030R$  000000000015600000000001570000000000156000000000015600000000001570000000000000000000000000000004000000000000050000000000000007808900000000000000009999123100000010000000000000BRBISAACNOR8109
012013101412BJRC11      010FII JS RECIMCI           R$  000000008620000000000890000000000084055000000008692300000000880000000000083001000000008800000021000000000000000136000000000011821655000000000000009999123100000010000000000000BRBJRCCTF007111
012013101402BMIN4       010MERC INVEST PN           R$  000000000002800000000000290000000000028000000000002800000000000280000000000027000000000002900005000000000000017000000000000000481000000000000000009999123100000010000000000000BRBMINACNPR1160
012013101412BMLC11B     010FII BMBRC LCCI  ER  MB   R$  000000001160000000000116000000000011400000000001142400000000115050000000011316000000001160000018000000000000000931000000000010636555000000000000009999123100000010000000000000BRBMLCCTF004120
012013101402BMTO4       010BRASMOTOR   PN           R$  000000000008500000000000880000000000085000000000008500000000000880000000000086000000000008800006000000000000112000000000000009538000000000000000009999123100000010000000000000BRBMTOACNPR6065
012013101496BMTO4F      020BRASMOTOR   PN           R$  000000000008500000000000850000000000085000000000008500000000000850000000000083000000000008500001000000000000000015000000000000001275000000000000009999123100000010000000000000BRBMTOACNPR6065
012013101414BOVA11      010ISHARES BOVACI           R$  000000000518900000000053190000000005165000000000525200000000053190000000005319000000000532005385000000000001850500000000009720177890000000000000009999123100000010000000000000BRBOVACTF003101
012013101496BOVA11F     020ISHARES BOVACI           R$  000000000517700000000052910000000005167000000000523600000000052910000000005168000000000530600018000000000000000055000000000000287998000000000000009999123100000010000000000000BRBOVACTF003101
012013101412BPFF11      010FII ABSOLUTOCI           R$  000000000822600000000084000000000008225000000000830000000000083000000000008275000000000834000019000000000000002791000000000023165743000000000000009999123100000010000000000000BRBPFFCTF002106
012013101402BPHA3       010BR PHARMA   ON      NM   R$  000000000086200000000008700000000000850000000000085800000000008600000000000858000000000086000965000000000000867400000000000744845600000000000000009999123100000010000000000000BRBPHAACNOR6102
012013101496BPHA3F      020BR PHARMA   ON      NM   R$  000000000085800000000008580000000000852000000000085400000000008520000000000850000000000086800002000000000000000075000000000000064050000000000000009999123100000010000000000000BRBPHAACNOR6102
012013101402BPNM4       010PANAMERICANOPN      N1   R$  000000000054000000000005430000000000537000000000053900000000005380000000000537000000000053800132000000000001178600000000000636412600000000000000009999123100000010000000000000BRBPNMACNPR6111
012013101496BPNM4F      020PANAMERICANOPN      N1   R$  000000000052000000000005520000000000520000000000053400000000005410000000000538000000000053900006000000000000000093000000000000049728000000000000009999123100000010000000000000BRBPNMACNPR6111
012013101462BPNM4T      030PANAMERICANOPN      N1060R$  000000000054700000000005480000000000547000000000054700000000005480000000000000000000000000000002000000000000004000000000000002191104000000000000009999123100000010000000000000BRBPNMACNPR6111
012013101462BPNM4T      030PANAMERICANOPN      N1091R$  000000000055200000000005530000000000552000000000055200000000005530000000000000000000000000000004000000000001100000000000000607602600000000000000009999123100000010000000000000BRBPNMACNPR6111
012013101402BRAP3       010BRADESPAR   ON      N1   R$  000000000196200000000020590000000001949000000000197400000000020510000000002040000000000205100026000000000000016000000000000031588800000000000000009999123100000010000000000000BRBRAPACNOR5124
012013101496BRAP3F      020BRADESPAR   ON      N1   R$  000000000196000000000020000000000001949000000000197000000000019510000000001951000000000221300010000000000000000107000000000000210812000000000000009999123100000010000000000000BRBRAPACNOR5124
012013101462BRAP3T      030BRADESPAR   ON      N1060R$  000000000198800000000019890000000001988000000000198800000000019890000000000000000000000000000002000000000000005400000000000010736469000000000000009999123100000010000000000000BRBRAPACNOR5124
012013101402BRAP4       010BRADESPAR   PN      N1   R$  000000000237100000000025050000000002349000000000244900000000025050000000002492000000000250504992000000000001185900000000002904703700000000000000009999123100000010000000000000BRBRAPACNPR2124
012013101496BRAP4F      020BRADESPAR   PN      N1   R$  000000000233500000000025000000000002335000000000242600000000025000000000002460000000000259700048000000000000001170000000000002838815000000000000009999123100000010000000000000BRBRAPACNPR2124
012013101462BRAP4T      030BRADESPAR   PN      N1016R$  000000000240600000000024070000000002406000000000240600000000024070000000000000000000000000000002000000000000005000000000000012034875000000000000009999123100000010000000000000BRBRAPACNPR2124
012013101412BRCR11      010FII BC FUND CI  ER       R$  000000001343000000000137250000000013228000000001343500000000133200000000013320000000001339000506000000000000029242000000000392878465000000000000009999123100000010000000000000BRBRCRCTF000134
012013101402BRFS3       010BRF SA      ON      NM   R$  000000000557800000000055820000000005520000000000554000000000055520000000005552000000000555506861000000000001978200000000010960510900000000000000009999123100000010000000000000BRBRFSACNOR8110
012013101496BRFS3F      020BRF SA      ON      NM   R$  000000000555100000000055860000000005523000000000554500000000055310000000005531000000000558700187000000000000005804000000000032191552000000000000009999123100000010000000000000BRBRFSACNOR8110
012013101462BRFS3T      030BRF SA      ON      NM016R$  000000000557000000000055760000000005559000000000556900000000055600000000000000000000000000000010000000000000057500000000000320224114000000000000009999123100000010000000000000BRBRFSACNOR8110
012013101462BRFS3T      030BRF SA      ON      NM023R$  000000000558000000000055810000000005580000000000558000000000055810000000000000000000000000000002000000000000004200000000000023439947000000000000009999123100000010000000000000BRBRFSACNOR8110
012013101462BRFS3T      030BRF SA      ON      NM030R$  000000000557800000000055830000000005576000000000557800000000055830000000000000000000000000000006000000000000003200000000000017850140000000000000009999123100000010000000000000BRBRFSACNOR8110
012013101402BRGE3       010ALFA CONSORCON           R$  000000000037600000000003760000000000376000000000037600000000003760000000000376000000000049900001000000000000000100000000000000037600000000000000009999123100000010000000000000BRBRGEACNOR6197
012013101496BRGE3F      020ALFA CONSORCON           R$  000000000033800000000003380000000000338000000000033800000000003380000000000338000000000000000001000000000000000020000000000000006760000000000000009999123100000010000000000000BRBRGEACNOR6197
012013101402BRIN3       010BR INSURANCEON      NM   R$  000000000203300000000020400000000002011000000000202400000000020220000000002022000000000203800501000000000000100000000000000202463500000000000000009999123100000010000000000000BRBRINACNOR3106
012013101496BRIN3F      020BR INSURANCEON      NM   R$  000000000202100000000020380000000002012000000000202200000000020210000000002021000000000203800021000000000000000699000000000001413862000000000000009999123100000010000000000000BRBRINACNOR3106
012013101402BRIV3       010ALFA INVEST ON           R$  000000000065300000000006530000000000653000000000065300000000006530000000000652000000000068000001000000000000001000000000000000653000000000000000009999123100000010000000000000BRBRIVACNOR6197
012013101496BRIV4F      020ALFA INVEST PN           R$  000000000059000000000005900000000000590000000000059000000000005900000000000545000000000059000001000000000000000003000000000000001770000000000000009999123100000010000000000000BRBRIVACNPR3197
012013101402BRKM3       010BRASKEM     ON      N1   R$  000000000130000000000013200000000001300000000000130000000000013200000000001275000000000131900004000000000000017200000000000022364000000000000000009999123100000010000000000000BRBRKMACNOR1110
012013101496BRKM3F      020BRASKEM     ON      N1   R$  000000000129900000000012990000000001290000000000129000000000012900000000001275000000000130000003000000000000000021000000000000027099000000000000009999123100000010000000000000BRBRKMACNOR1110
012013101462BRKM3T      030BRASKEM     ON      N1060R$  000000000132200000000013230000000001322000000000132200000000013230000000000000000000000000000002000000000000016300000000000021550230000000000000009999123100000010000000000000BRBRKMACNOR1110
012013101402BRKM5       010BRASKEM     PNA     N1   R$  000000000185000000000018840000000001832000000000185800000000018820000000001879000000000188207149000000000001653100000000003072120100000000000000009999123100000010000000000000BRBRKMACNPA4110
012013101496BRKM5F      020BRASKEM     PNA     N1   R$  000000000189800000000018980000000001821000000000186000000000018700000000001851000000000187900028000000000000000689000000000001283935000000000000009999123100000010000000000000BRBRKMACNPA4110
012013101462BRKM5T      030BRASKEM     PNA     N1030R$  000000000186700000000018680000000001867000000000186700000000018680000000000000000000000000000002000000000000002000000000000003734907000000000000009999123100000010000000000000BRBRKMACNPA4110
012013101478BRKMK50     070BRKM        PNA     N1000R$  000000000000800000000000080000000000008000000000000800000000000080000000000000000000000000000001000000000000004900000000000000039200000000000205002013111800000010000000000000BRBRKMACNPA4110
012013101482BRKMW16     080BRKME       PNA     N1000R$  000000000000200000000000020000000000002000000000000200000000000020000000000000000000000000000001000000000000004900000000000000009800000000000160002013111800000010000000000000BRBRKMACNPA4110
012013101482BRKMW47     080BRKME       PNA     N1000R$  000000000001300000000000130000000000013000000000001300000000000130000000000000000000000000000001000000000000004900000000000000063700000000000175002013111800000010000000000000BRBRKMACNPA4110
012013101402BRML3       010BR MALLS PARON      NM   R$  000000000206700000000021140000000002043000000000208100000000020840000000002083000000000208408036000000000002148700000000004471953600000000000000009999123100000010000000000000BRBRMLACNOR9105
012013101496BRML3F      020BR MALLS PARON      NM   R$  000000000207000000000021050000000002042000000000208200000000020670000000002067000000000210000064000000000000002120000000000004415710000000000000009999123100000010000000000000BRBRMLACNOR9105
012013101462BRML3T      030BR MALLS PARON      NM016R$  000000000210100000000021020000000002101000000000210100000000021020000000000000000000000000000002000000000000002000000000000004203531000000000000009999123100000010000000000000BRBRMLACNOR9105
012013101462BRML3T      030BR MALLS PARON      NM030R$  000000000210600000000021140000000002106000000000211100000000021140000000000000000000000000000004000000000000002400000000000005066509000000000000009999123100000010000000000000BRBRMLACNOR9105
012013101402BRPR3       010BR PROPERT  ON      NM   R$  000000000188000000000018820000000001846000000000186500000000018750000000001875000000000187807470000000000002172300000000004051806800000000000000009999123100000010000000000000BRBRPRACNOR9112
012013101496BRPR3F      020BR PROPERT  ON      NM   R$  000000000188000000000018800000000001849000000000185900000000018790000000001852000000000188000034000000000000000737000000000001371010000000000000009999123100000010000000000000BRBRPRACNOR9112
012013101496BRSR3F      020BANRISUL    ON      N1   R$  000000000142500000000014250000000001425000000000142500000000014250000000001250000000000142500001000000000000000001000000000000001425000000000000009999123100000010000000000000BRBRSRACNOR3131
012013101402BRSR6       010BANRISUL    PNB     N1   R$  000000000152600000000015460000000001512000000000153000000000015350000000001534000000000153503732000000000000767800000000001175114000000000000000009999123100000010000000000000BRBRSRACNPB4134
012013101496BRSR6F      020BANRISUL    PNB     N1   R$  000000000152300000000015410000000001520000000000153100000000015400000000001520000000000156500015000000000000000320000000000000490152000000000000009999123100000010000000000000BRBRSRACNPB4134
012013101462BRSR6T      030BANRISUL    PNB     N1030R$  000000000153500000000015360000000001535000000000153500000000015360000000000000000000000000000002000000000000001000000000000001535430000000000000009999123100000010000000000000BRBRSRACNPB4134
012013101402BSEV3       010BIOSEV      ON      NM   R$  000000000089400000000008940000000000890000000000089200000000008900000000000817000000000089000002000000000000000200000000000000178400000000000000009999123100000010000000000000BRBSEVACNOR3100
012013101402BTOW3       010B2W DIGITAL ON      NM   R$  000000000156100000000016990000000001535000000000163900000000016840000000001679000000000168401724000000000000493100000000000808912100000000000000009999123100000010000000000000BRBTOWACNOR8105
012013101496BTOW3F      020B2W DIGITAL ON      NM   R$  000000000155000000000016970000000001541000000000162900000000016930000000001636000000000168800057000000000000001871000000000003060329000000000000009999123100000010000000000000BRBTOWACNOR8105
012013101402BTTL4       010BATTISTELLA PN           R$  000000000009900000000001010000000000099000000000009900000000001010000000000099000000000010100005000000000000007400000000000000734800000000000000009999123100000010000000000000BRBTTLACNPR7105
012013101402BVMF3       010BMFBOVESPA  ON      NM   R$  000000000125700000000012770000000001247000000000126300000000012680000000001267000000000126812005000000000005502600000000006952212200000000000000009999123100000010000000000000BRBVMFACNOR3126
012013101496BVMF3F      020BMFBOVESPA  ON      NM   R$  000000000125700000000012750000000001250000000000125800000000012750000000001241000000000127000095000000000000003157000000000003975163000000000000009999123100000010000000000000BRBVMFACNOR3126
012013101462BVMF3T      030BMFBOVESPA  ON      NM030R$  000000000127000000000012790000000001270000000000127800000000012790000000000000000000000000000004000000000000100333000000000128275419000000000000009999123100000010000000000000BRBVMFACNOR3126
012013101478BVMFA13     070BVMF        ON      NM000R$  000000000006300000000000640000000000063000000000006300000000000640000000000000000000000000000003000000000000006800000000000000430200000000000130002014012000000010000000000000BRBVMFACNOR3126
012013101478BVMFJ11     070BVMF        ON      NM000R$  000000000018500000000001850000000000185000000000018500000000001850000000000176000000000000000001000000000000002000000000000000370000000000000108502013102100000010000000000000BRBVMFACNOR3125
012013101478BVMFJ12     070BVMF        ON      NM000R$  000000000007700000000000940000000000073000000000008100000000000890000000000085000000000009100251000000000000083200000000000006806000000000000118502013102100000010000000000000BRBVMFACNOR3125
012013101478BVMFJ13     070BVMF        ON      NM000R$  000000000001100000000000170000000000011000000000001300000000000130000000000012000000000001600092000000000000315300000000000004264700000000000128502013102100000010000000000000BRBVMFACNOR3125
012013101478BVMFJ14     070BVMF        ON      NM000R$  000000000000100000000000010000000000001000000000000100000000000010000000000000000000000000100003000000000000044000000000000000044000000000000138502013102100000010000000000000BRBVMFACNOR3125
012013101478BVMFJ41     070BVMF        ON      NM000R$  000000000013700000000001370000000000137000000000013700000000001370000000000000000000000000000001000000000000000400000000000000054800000000000113502013102100000010000000000000BRBVMFACNOR3125
012013101478BVMFJ42     070BVMF        ON      NM000R$  000000000003600000000000440000000000036000000000004000000000000440000000000000000000000123500016000000000000024200000000000000984300000000000123502013102100000010000000000000BRBVMFACNOR3125
012013101478BVMFJ43     070BVMF        ON      NM000R$  000000000000200000000000040000000000002000000000000200000000000040000000000002000000000000400002000000000000004600000000000000009400000000000133502013102100000010000000000000BRBVMFACNOR3125
012013101478BVMFK12     070BVMF  FM    ON      NM000R$  000000000009500000000001100000000000094000000000010300000000001040000000000100000000000011900161000000000000060000000000000006183100000000000118502013111800000010000000000000BRBVMFACNOR3125
012013101478BVMFK13     070BVMF  FM    ON      NM000R$  000000000003400000000000410000000000031000000000003400000000000390000000000035000000000004200071000000000000122600000000000004284700000000000128502013111800000010000000000000BRBVMFACNOR3125
012013101478BVMFK14     070BVMF  FM    ON      NM000R$  000000000000600000000000090000000000006000000000000700000000000090000000000008000000000000900142000000000000079400000000000000587800000000000138502013111800000010000000000000BRBVMFACNOR3125
012013101478BVMFK16     070BVMF        ON      NM000R$  000000000000100000000000010000000000001000000000000100000000000010000000000000000000000000000001000000000000005000000000000000005000000000000160002013111800000010000000000000BRBVMFACNOR3126
012013101478BVMFK42     070BVMF  FM    ON      NM000R$  000000000005300000000000570000000000053000000000005400000000000570000000000000000000000000000004000000000000015000000000000000812500000000000125002013111800000010000000000000BRBVMFACNOR3126
012013101478BVMFK43     070BVMF  FM    ON      NM000R$  000000000001500000000000150000000000015000000000001500000000000150000000000012000000000002000004000000000000002500000000000000037500000000000135002013111800000010000000000000BRBVMFACNOR3126
012013101478BVMFL12     070BVMF        ON      NM000R$  000000000013700000000001370000000000137000000000013700000000001370000000000000000000000020900001000000000000005000000000000000685000000000000115402013121600000010000000000000BRBVMFACNOR3123
012013101478BVMFL13     070BVMF  FM    ON      NM000R$  000000000005200000000000580000000000052000000000005500000000000540000000000055000000000000000143000000000000033500000000000001861600000000000128502013121600000010000000000000BRBVMFACNOR3125
012013101478BVMFL14     070BVMF  FM    ON      NM000R$  000000000002100000000000210000000000021000000000002100000000000210000000000000000000000000000002000000000000000900000000000000018900000000000137402013121600000010000000000000BRBVMFACNOR3124
012013101478BVMFL42     070BVMF  FM    ON      NM000R$  000000000006800000000000710000000000068000000000006900000000000710000000000000000000000000000002000000000000003600000000000000250200000000000125002013121600000010000000000000BRBVMFACNOR3126
012013101482BVMFV12     080BVMFE       ON      NM000R$  000000000000400000000000040000000000003000000000000300000000000030000000000001000000000000300004000000000000009400000000000000033200000000000118502013102100000010000000000000BRBVMFACNOR3125
012013101482BVMFV13     080BVMFE       ON      NM000R$  000000000004100000000000410000000000026000000000003400000000000260000000000025000000000004400004000000000000005400000000000000186900000000000128502013102100000010000000000000BRBVMFACNOR3125
012013101482BVMFV41     080BVMFE       ON      NM000R$  000000000000200000000000020000000000002000000000000200000000000020000000000001000000000000200002000000000000001500000000000000003000000000000113502013102100000010000000000000BRBVMFACNOR3125
012013101482BVMFV42     080BVMFE       ON      NM000R$  000000000001700000000000170000000000016000000000001600000000000160000000000001000000000001700006000000000000021400000000000000343700000000000123502013102100000010000000000000BRBVMFACNOR3125
012013101482BVMFV51     080BVMFE       ON      NM000R$  000000000000200000000000020000000000002000000000000200000000000020000000000000000000000000000003000000000000001500000000000000003000000000000116002013102100000010000000000000BRBVMFACNOR3125
012013101482BVMFW12     080BVMFE FM    ON      NM000R$  000000000001700000000000170000000000014000000000001500000000000140000000000000000000000000000024000000000000109200000000000001647300000000000118502013111800000010000000000000BRBVMFACNOR3125
012013101482BVMFW13     080BVMFE FM    ON      NM000R$  000000000005500000000000580000000000045000000000005300000000000470000000000000000000000025000011000000000000028600000000000001526600000000000128502013111800000010000000000000BRBVMFACNOR3125
012013101482BVMFW41     080BVMFE FM    ON      NM000R$  000000000001000000000000100000000000010000000000001000000000000100000000000000000000000000000007000000000000019700000000000000197000000000000115002013111800000010000000000000BRBVMFACNOR3126
012013101482BVMFW42     080BVMFE FM    ON      NM000R$  000000000004000000000000400000000000032000000000003600000000000320000000000000000000000000000013000000000000033900000000000001222900000000000125002013111800000010000000000000BRBVMFACNOR3126
012013101482BVMFX42     080BVMFE FM    ON      NM000R$  000000000004700000000000470000000000047000000000004700000000000470000000000000000000000000000001000000000000001800000000000000084600000000000125002013121600000010000000000000BRBVMFACNOR3126
012013101482BVMFX62     080BVMFE FM    ON      NM000R$  000000000003300000000000330000000000033000000000003300000000000330000000000000000000000000000002000000000000005500000000000000181500000000000120002013121600000010000000000000BRBVMFACNOR3126
012013101402CAMB4       010CAMBUCI     PN           R$  000000000019000000000001900000000000190000000000019000000000001900000000000179000000000019000001000000000000000100000000000000019000000000000000009999123100000010000000000000BRCAMBACNPR1117
012013101402CARD3       010CSU CARDSYSTON      NM   R$  000000000031400000000003140000000000300000000000030500000000003080000000000304000000000030800029000000000000020200000000000006163100000000000000009999123100000010000000000000BRCARDACNOR9105
012013101496CARD3F      020CSU CARDSYSTON      NM   R$  000000000030500000000003050000000000302000000000030300000000003020000000000302000000000034600003000000000000000050000000000000015190000000000000009999123100000010000000000000BRCARDACNOR9105
012013101402CBEE3       010AMPLA ENERG ON *         R$  000000000012200000000001220000000000122000000000012200000000001220000000000122000000000013000001000000000000200000000000000000024400000000000000009999123100010000000000000000BRCBEEACNOR3149
012013101402CBMA3       010COBRASMA    ON           R$  000000000000500000000000050000000000005000000000000500000000000050000000000004000000000000500003000000000000150000000000000000750000000000000000009999123100000010000000000000BRCBMAACNOR4124
012013101408CCHI3       010CHIARELLI   ON           R$  000000000001900000000000190000000000018000000000001800000000000180000000000018000000000001900030000000000000420000000000000007720000000000000000009999123100000010000000000000BRCCHIACNOR5123
012013101496CCHI3F      020CHIARELLI   ON           R$  000000000001900000000000190000000000018000000000001800000000000190000000000017000000000001900006000000000000011300000000000000211307000000000000009999123100000010000000000000BRCCHIACNOR5123
012013101408CCHI4       010CHIARELLI   PN           R$  000000000001300000000000130000000000013000000000001300000000000130000000000012000000000001300003000000000000040000000000000000520000000000000000009999123100000010000000000000BRCCHIACNPR2122
012013101496CCHI4F      020CHIARELLI   PN           R$  000000000001300000000000130000000000013000000000001300000000000130000000000013000000000001600002000000000000002897000000000000037661000000000000009999123100000010000000000000BRCCHIACNPR2122
012013101402CCPR3       010CYRE COM-CCPON      NM   R$  000000000212500000000021250000000002100000000000211600000000021000000000002100000000000214900023000000000000023400000000000049515600000000000000009999123100000010000000000000BRCCPRACNOR9107
012013101496CCPR3F      020CYRE COM-CCPON      NM   R$  000000000205000000000021500000000002050000000000212700000000021500000000001913000000000209500008000000000000000122000000000000259559000000000000009999123100000010000000000000BRCCPRACNOR9107
012013101402CCRO3       010CCR SA      ON      NM   R$  000000000181100000000018170000000001786000000000180000000000017990000000001795000000000179908001000000000003765600000000006779891000000000000000009999123100000010000000000000BRCCROACNOR2123
012013101496CCRO3F      020CCR SA      ON      NM   R$  000000000184900000000018490000000001772000000000180300000000017920000000001776000000000184800056000000000000001317000000000002375522000000000000009999123100000010000000000000BRCCROACNOR2123
012013101462CCRO3T      030CCR SA      ON      NM016R$  000000000180700000000018080000000001807000000000180700000000018080000000000000000000000000000002000000000000003000000000000005423760000000000000009999123100000010000000000000BRCCROACNOR2123
012013101402CCXC3       010CCX CARVAO  ON      NM   R$  000000000013000000000001360000000000127000000000013000000000001280000000000127000000000012800523000000000001786600000000000233958300000000000000009999123100000010000000000000BRCCXCACNOR5100
012013101496CCXC3F      020CCX CARVAO  ON      NM   R$  000000000013400000000001340000000000134000000000013400000000001340000000000128000000000012900003000000000000000088000000000000011792000000000000009999123100000010000000000000BRCCXCACNOR5100
012013101462CCXC3T      030CCX CARVAO  ON      NM016R$  000000000012800000000001290000000000128000000000012800000000001290000000000000000000000000000002000000000000003000000000000000385920000000000000009999123100000010000000000000BRCCXCACNOR5100
012013101462CCXC3T      030CCX CARVAO  ON      NM023R$  000000000013000000000001320000000000130000000000013100000000001320000000000000000000000000000004000000000000600000000000000078893920000000000000009999123100000010000000000000BRCCXCACNOR5100
012013101496CEDO3F      020CEDRO       ON      N1   R$  000000000100000000000010000000000001000000000000100000000000010000000000000920000000000100000001000000000000000001000000000000001000000000000000009999123100000010000000000000BRCEDOACNOR8094
012013101496CEDO4F      020CEDRO       PN      N1   R$  000000000093500000000009350000000000935000000000093500000000009350000000000848000000000093500001000000000000000001000000000000000935000000000000009999123100000010000000000000BRCEDOACNPR5126
012013101412CEOC11B     010FII CEO CCP CI  ER  MB   R$  000000000865000000000089110000000008600000000000882600000000087890000000008660000000000878900111000000000000014980000000000132224896000000000000009999123100000010000000000000BRCEOCCTF003111
012013101402CEPE5       010CELPE       PNA          R$  000000000215000000000021500000000002150000000000215000000000021500000000001700000000000215000001000000000000000100000000000000215000000000000000009999123100000010000000000000BRCEPEACNPA6151
012013101402CESP3       010CESP        ON      N1   R$  000000000199500000000019950000000001995000000000199500000000019950000000001980000000000199500002000000000000003400000000000006783000000000000000009999123100000010000000000000BRCESPACNOR3160
012013101496CESP3F      020CESP        ON      N1   R$  000000000200000000000020000000000002000000000000200000000000020000000000001800000000000210000003000000000000000031000000000000062000000000000000009999123100000010000000000000BRCESPACNOR3160
012013101462CESP3T      030CESP        ON      N1060R$  000000000202800000000020290000000002028000000000202800000000020290000000000000000000000000000002000000000000003100000000000006289636000000000000009999123100000010000000000000BRCESPACNOR3160
012013101496CESP5F      020CESP        PNA     N1   R$  000000000230000000000023000000000002300000000000230000000000023000000000002140000000000230000001000000000000000001000000000000002300000000000000009999123100000010000000000000BRCESPACNPA6108
012013101402CESP6       010CESP        PNB     N1   R$  000000000221000000000022620000000002187000000000224600000000022560000000002256000000000225703261000000000000775900000000001742948100000000000000009999123100000010000000000000BRCESPACNPB4119
012013101496CESP6F      020CESP        PNB     N1   R$  000000000220100000000022850000000002186000000000222500000000022840000000002241000000000228400023000000000000000729000000000001623645000000000000009999123100000010000000000000BRCESPACNPB4119
012013101462CESP6T      030CESP        PNB     N1030R$  000000000226800000000022690000000002268000000000226800000000022690000000000000000000000000000002000000000000119500000000000271106662000000000000009999123100000010000000000000BRCESPACNPB4119
012013101402CGAS5       010COMGAS      PNA          R$  000000000584000000000058400000000005792000000000580000000000058000000000005800000000000583100068000000000000020500000000000118914700000000000000009999123100000010000000000000BRCGASACNPA3129
012013101496CGAS5F      020COMGAS      PNA          R$  000000000579000000000057900000000005790000000000579000000000057900000000005502000000000590000001000000000000000037000000000000214230000000000000009999123100000010000000000000BRCGASACNPA3129
012013101402CGRA3       010GRAZZIOTIN  ON           R$  000000000167000000000016700000000001670000000000167000000000016700000000001606000000000167000002000000000000000600000000000001002000000000000000009999123100000010000000000000BRCGRAACNOR2061
012013101496CGRA3F      020GRAZZIOTIN  ON           R$  000000000170000000000017000000000001700000000000170000000000017000000000001660000000000175700001000000000000000017000000000000028900000000000000009999123100000010000000000000BRCGRAACNOR2061
012013101402CGRA4       010GRAZZIOTIN  PN           R$  000000000173700000000017550000000001735000000000175200000000017350000000001725000000000175500016000000000000009400000000000016474700000000000000009999123100000010000000000000BRCGRAACNPR9061
012013101496CGRA4F      020GRAZZIOTIN  PN           R$  000000000175400000000018000000000001750000000000177400000000017500000000001755000000000180000007000000000000000135000000000000239555000000000000009999123100000010000000000000BRCGRAACNPR9061
012013101402CIEL3       010CIELO       ON      NM   R$  000000000648000000000066050000000006433000000000654600000000065600000000006560000000000658006093000000000001227700000000008036696900000000000000009999123100000010000000000000BRCIELACNOR3112
012013101496CIEL3F      020CIELO       ON      NM   R$  000000000647500000000066000000000006450000000000654000000000065210000000006521000000000660000152000000000000003581000000000023423133000000000000009999123100000010000000000000BRCIELACNOR3112
012013101482CIELX5      080CIELE       ON      NM000R$  000000000020300000000002030000000000203000000000020300000000002030000000000000000000000000000002000000000000250000000000000050750000000000000650002013121600000010000000000000BRCIELACNOR3112
012013101482CIELX61     080CIELE       ON      NM000R$  000000000008100000000000810000000000081000000000008100000000000810000000000000000000000000000002000000000000250000000000000020250000000000000610002013121600000010000000000000BRCIELACNOR3112
012013101402CLSC4       010CELESC      PN      N2   R$  000000000187900000000018790000000001845000000000186000000000018600000000001860000000000186500014000000000000003500000000000006511900000000000000009999123100000010000000000000BRCLSCACNPR3107
012013101496CLSC4F      020CELESC      PN      N2   R$  000000000185000000000018550000000001850000000000185200000000018550000000001800000000000185500002000000000000000009000000000000016675000000000000009999123100000010000000000000BRCLSCACNPR3107
012013101402CMIG3       010CEMIG       ON      N1   R$  000000000192500000000019470000000001925000000000193900000000019400000000001940000000000194400214000000000000315800000000000612595600000000000000009999123100000010000000000000BRCMIGACNOR6208
012013101496CMIG3F      020CEMIG       ON      N1   R$  000000000192500000000019500000000001925000000000193200000000019490000000001941000000000195000023000000000000000570000000000001101270000000000000009999123100000010000000000000BRCMIGACNOR6208
012013101402CMIG4       010CEMIG       PN      N1   R$  000000000196200000000019980000000001962000000000198700000000019950000000001986000000000199505820000000000001560100000000003100130700000000000000009999123100000010000000000000BRCMIGACNPR3208
012013101496CMIG4F      020CEMIG       PN      N1   R$  000000000196600000000019980000000001965000000000198500000000019930000000001990000000000199300115000000000000002983000000000005921302000000000000009999123100000010000000000000BRCMIGACNPR3208
012013101462CMIG4T      030CEMIG       PN      N1016R$  000000000198000000000019810000000001980000000000198000000000019810000000000000000000000000000002000000000000004400000000000008715846000000000000009999123100000010000000000000BRCMIGACNPR3208
012013101462CMIG4T      030CEMIG       PN      N1091R$  000000000201300000000020140000000002013000000000201300000000020140000000000000000000000000000002000000000000001000000000000002013609000000000000009999123100000010000000000000BRCMIGACNPR3208
012013101478CMIGJ19     070CMIG        PN      N1000R$  000000000006400000000000990000000000064000000000009400000000000990000000000060000000000000000003000000000000001400000000000000131600000000000190002013102100000010000000000000BRCMIGACNPR3208
012013101478CMIGK21     070CMIG        PN      N1000R$  000000000002000000000000200000000000020000000000002000000000000200000000000000000000000002500001000000000000000100000000000000002000000000000210002013111800000010000000000000BRCMIGACNPR3208
012013101412CNES11B     010FII CENESP  CI      MB   R$  000000001276000000000127600000000012760000000001276000000000127600000000012760000000001299800001000000000000000123000000000001569480000000000000009999123100000010000000000000BRCNESCTF001126
012013101402COCE3       010COELCE      ON           R$  000000000403000000000040300000000004000000000000401800000000040300000000003985000000000403000030000000000000006200000000000024915400000000000000009999123100000010000000000000BRCOCEACNOR0132
012013101402COCE5       010COELCE      PNA          R$  000000000386500000000039080000000003863000000000388800000000039000000000003900000000000390300063000000000000010200000000000039665200000000000000009999123100000010000000000000BRCOCEACNPA3133
012013101496COCE5F      020COELCE      PNA          R$  000000000386000000000039100000000003860000000000388000000000038990000000003862000000000389900012000000000000000099000000000000384161000000000000009999123100000010000000000000BRCOCEACNPA3133
012013101496CORR4F      020COR RIBEIRO PN           R$  000000001977100000000199000000000019771000000001985600000000198990000000016000000000001990000003000000000000000003000000000000059570000000000000009999123100000010000000000000BRCORRACNPR7015
012013101402CPFE3       010CPFL ENERGIAON      NM   R$  000000000198500000000020130000000001976000000000199300000000019930000000001992000000000199304799000000000000908600000000001811161900000000000000009999123100000010000000000000BRCPFEACNOR0122
012013101496CPFE3F      020CPFL ENERGIAON      NM   R$  000000000198000000000020100000000001971000000000199600000000019920000000001992000000000199700038000000000000000987000000000001970218000000000000009999123100000010000000000000BRCPFEACNOR0122
012013101402CPLE3       010COPEL       ON      N1   R$  000000000223900000000022390000000002193000000000220700000000022150000000002215000000000222000101000000000000033800000000000074602900000000000000009999123100000010000000000000BRCPLEACNOR8128
012013101462CPLE3T      030COPEL       ON      N1060R$  000000000224200000000022430000000002242000000000224200000000022430000000000000000000000000000002000000000000003000000000000006726135000000000000009999123100000010000000000000BRCPLEACNOR8128
012013101462CPLE3T      030COPEL       ON      N1360R$  000000000245400000000024550000000002454000000000245400000000024550000000000000000000000000000002000000000000000100000000000000245422000000000000009999123100000010000000000000BRCPLEACNOR8128
012013101402CPLE6       010COPEL       PNB     N1   R$  000000000303700000000030430000000003005000000000301900000000030150000000003013000000000301503317000000000001189700000000003592266300000000000000009999123100000010000000000000BRCPLEACNPB9125
012013101496CPLE6F      020COPEL       PNB     N1   R$  000000000300100000000031790000000003001000000000304500000000030500000000003050000000000318000019000000000000000566000000000001723530000000000000009999123100000010000000000000BRCPLEACNPB9125
012013101402CPRE3       010CPFL RENOVAVON      NM   R$  000000000137500000000013750000000001356000000000136000000000013620000000001360000000000137200006000000000000001500000000000002040800000000000000009999123100000010000000000000BRCPREACNOR5100
012013101402CRDE3       010CR2         ON      NM   R$  000000000039000000000003900000000000390000000000039000000000003900000000000384000000000039000001000000000000000100000000000000039000000000000000009999123100000010000000000000BRCRDEACNOR1108
012013101402CREM3       010CREMER      ON      NM   R$  000000000146100000000014610000000001461000000000146100000000014610000000001460000000000148000001000000000000003000000000000004383000000000000000009999123100000010000000000000BRCREMACNOR2167
012013101402CRIV3       010ALFA FINANC ON           R$  000000000050400000000005090000000000504000000000050400000000005090000000000475000000000051000006000000000000003100000000000001564700000000000000009999123100000010000000000000BRCRIVACNOR4190
012013101402CRIV4       010ALFA FINANC PN           R$  000000000043100000000004390000000000431000000000043700000000004390000000000432000000000044000004000000000000000700000000000000306500000000000000009999123100000010000000000000BRCRIVACNPR1190
012013101402CRUZ3       010SOUZA CRUZ  ON           R$  000000000254700000000026080000000002533000000000258700000000026080000000002600000000000260803657000000000000694700000000001797927800000000000000009999123100000010000000000000BRCRUZACNOR0248
012013101496CRUZ3F      020SOUZA CRUZ  ON           R$  000000000253000000000026070000000002516000000000258700000000025850000000002568000000000266500072000000000000002012000000000005204580000000000000009999123100000010000000000000BRCRUZACNOR0248
012013101462CRUZ3T      030SOUZA CRUZ  ON        030R$  000000000259100000000025950000000002591000000000259300000000025950000000000000000000000000000004000000000000001000000000000002593914000000000000009999123100000010000000000000BRCRUZACNOR0248
012013101402CSAN3       010COSAN       ON      NM   R$  000000000431800000000044000000000004305000000000437400000000043870000000004381000000000438705528000000000001277300000000005587440400000000000000009999123100000010000000000000BRCSANACNOR6108
012013101496CSAN3F      020COSAN       ON      NM   R$  000000000431200000000044480000000004312000000000438200000000043960000000004345000000000439600048000000000000001623000000000007113438000000000000009999123100000010000000000000BRCSANACNOR6108
012013101462CSAN3T      030COSAN       ON      NM016R$  000000000436600000000044070000000004366000000000438900000000044070000000000000000000000000000008000000000000012700000000000055742895000000000000009999123100000010000000000000BRCSANACNOR6108
012013101462CSAN3T      030COSAN       ON      NM030R$  000000000442700000000044280000000004427000000000442700000000044280000000000000000000000000000002000000000000004600000000000020368035000000000000009999123100000010000000000000BRCSANACNOR6108
012013101462CSAN3T      030COSAN       ON      NM091R$  000000000446000000000044950000000004454000000000446800000000044950000000000000000000000000000010000000000000180000000000000804273814000000000000009999123100000010000000000000BRCSANACNOR6108
012013101402CSMG3       010COPASA      ON      NM   R$  000000000354900000000035690000000003491000000000351700000000035000000000003497000000000350001679000000000000245600000000000863849100000000000000009999123100000010000000000000BRCSMGACNOR5128
012013101496CSMG3F      020COPASA      ON      NM   R$  000000000347400000000036300000000003473000000000353300000000034730000000003407000000000364000024000000000000000555000000000001961339000000000000009999123100000010000000000000BRCSMGACNOR5128
012013101414CSMO11      010ISHARES CSMOCI           R$  000000000487700000000048770000000004877000000000487700000000048770000000004700000000000000000001000000000000001100000000000005364700000000000000009999123100000010000000000000BRCSMOCTF002100
012013101402CSNA3       010SID NACIONALON           R$  000000000106000000000011170000000001051000000000109300000000011090000000001108000000000110916287000000000007654600000000008372558900000000000000009999123100000010000000000000BRCSNAACNOR6243
012013101496CSNA3F      020SID NACIONALON           R$  000000000106000000000011190000000001055000000000108900000000010560000000001056000000000110400155000000000000004797000000000005225034000000000000009999123100000010000000000000BRCSNAACNOR6243
012013101462CSNA3T      030SID NACIONALON        091R$  000000000110800000000011090000000001108000000000110800000000011090000000000000000000000000000002000000000000005000000000000005540852000000000000009999123100000010000000000000BRCSNAACNOR6243
012013101478CSNAA39     070CSNAE       ON        000R$  000000000021000000000002130000000000210000000000021100000000002130000000000000000000000000000004000000000000004000000000000000846000000000000093002014012000000010000000000000BRCSNAACNOR6242
012013101478CSNAJ10     070CSNA        ON        000R$  000000000007500000000000910000000000075000000000008400000000000870000000000105000000000000000010000000000000017800000000000001501500000000000100002013102100000010000000000000BRCSNAACNOR6243
012013101478CSNAJ11     070CSNA        ON        000R$  000000000001100000000000320000000000011000000000002200000000000320000000000002000000000003800014000000000000025500000000000000571900000000000110002013102100000010000000000000BRCSNAACNOR6243
012013101478CSNAJ20     070CSNA        ON        000R$  000000000009700000000000970000000000097000000000009700000000000970000000000000000000000000000001000000000000000500000000000000048500000000000102002013102100000010000000000000BRCSNAACNOR6243
012013101478CSNAJ40     070CSNA        ON        000R$  000000000007400000000000760000000000066000000000007200000000000660000000000000000000000000000004000000000000010000000000000000728000000000000104002013102100000010000000000000BRCSNAACNOR6243
012013101478CSNAJ60     070CSNA        ON        000R$  000000000002800000000000280000000000028000000000002800000000000280000000000040000000000000000002000000000000002000000000000000056000000000000106002013102100000010000000000000BRCSNAACNOR6243
012013101478CSNAJ8      070CSNA        ON        000R$  000000000029000000000002900000000000289000000000028900000000002890000000000000000000000000000005000000000000025300000000000007327400000000000078002013102100000010000000000000BRCSNAACNOR6242
012013101478CSNAJ9      070CSNA        ON        000R$  000000000020400000000002340000000000204000000000022600000000002320000000000225000000000000000015000000000000012000000000000002721900000000000088002013102100000010000000000000BRCSNAACNOR6242
012013101478CSNAJ90     070CSNA        ON        000R$  000000000019900000000001990000000000199000000000019900000000001990000000000000000000000000000001000000000000001000000000000000199000000000000090002013102100000010000000000000BRCSNAACNOR6243
012013101478CSNAJ92     070CSNA        ON        000R$  000000000019300000000001930000000000192000000000019200000000001920000000000000000000000000000002000000000000002000000000000000385000000000000092002013102100000010000000000000BRCSNAACNOR6243
012013101478CSNAJ94     070CSNA        ON        000R$  000000000013100000000001780000000000131000000000017100000000001740000000000000000000000000000035000000000000020900000000000003575000000000000094002013102100000010000000000000BRCSNAACNOR6243
012013101478CSNAJ96     070CSNA        ON        000R$  000000000015000000000001500000000000150000000000015000000000001500000000000000000000000000000002000000000000001500000000000000225000000000000096002013102100000010000000000000BRCSNAACNOR6243
012013101478CSNAJ98     070CSNA        ON        000R$  000000000009400000000000980000000000094000000000009400000000000980000000000089000000000000000006000000000000005200000000000000493000000000000098002013102100000010000000000000BRCSNAACNOR6243
012013101478CSNAK1      070CSNA        ON        000R$  000000000010300000000001030000000000103000000000010300000000001030000000000000000000000000000001000000000000003700000000000000381100000000000100002013111800000010000000000000BRCSNAACNOR6243
012013101478CSNAK10     070CSNA  FM    ON        000R$  000000000011200000000001510000000000108000000000012000000000001450000000000000000000000020000034000000000000072800000000000008806100000000000098002013111800000010000000000000BRCSNAACNOR6242
012013101478CSNAK11     070CSNA  FM    ON        000R$  000000000003700000000000600000000000037000000000005100000000000600000000000030000000000000000038000000000000075600000000000003869000000000000110002013111800000010000000000000BRCSNAACNOR6243
012013101478CSNAK12     070CSNA  FM    ON        000R$  000000000001000000000000170000000000010000000000001000000000000170000000000000000000000002000005000000000000012900000000000000138800000000000120002013111800000010000000000000BRCSNAACNOR6243
012013101478CSNAK40     070CSNA  FM    ON        000R$  000000000006300000000001020000000000063000000000009100000000000960000000000000000000000000000021000000000000047800000000000004375600000000000104002013111800000010000000000000BRCSNAACNOR6243
012013101478CSNAK60     070CSNA        ON        000R$  000000000007600000000000760000000000076000000000007600000000000760000000000000000000000000000002000000000000006000000000000000456000000000000106002013111800000010000000000000BRCSNAACNOR6243
012013101478CSNAK82     070CSNA        ON        000R$  000000000026700000000002730000000000267000000000027000000000002730000000000000000000000000000002000000000000004000000000000001080000000000000082002013111800000010000000000000BRCSNAACNOR6243
012013101478CSNAK9      070CSNA        ON        000R$  000000000017900000000002180000000000179000000000021700000000002150000000000000000000000000000030000000000000027300000000000005946900000000000090002013111800000010000000000000BRCSNAACNOR6243
012013101478CSNAK96     070CSNA        ON        000R$  000000000016400000000001640000000000164000000000016400000000001640000000000000000000000000000001000000000000000300000000000000049200000000000096002013111800000010000000000000BRCSNAACNOR6243
012013101478CSNAL11     070CSNA  FM    ON        000R$  000000000008500000000001110000000000085000000000010400000000001110000000000000000000000000000007000000000000011400000000000001185600000000000104702013121600000010000000000000BRCSNAACNOR6241
012013101478CSNAL12     070CSNA  FM    ON        000R$  000000000003500000000000550000000000035000000000004400000000000520000000000000000000000000000048000000000000122600000000000005420400000000000114702013121600000010000000000000BRCSNAACNOR6241
012013101478CSNAL39     070CSNA        ON        000R$  000000000021800000000002180000000000218000000000021800000000002180000000000000000000000000000001000000000000001000000000000000218000000000000089702013121600000010000000000000BRCSNAACNOR6241
012013101478CSNAL42     070CSNA  FM    ON        000R$  000000000002300000000000370000000000023000000000002800000000000370000000000000000000000000000060000000000000940500000000000026741700000000000119702013121600000010000000000000BRCSNAACNOR6241
012013101482CSNAV10     080CSNAE       ON        000R$  000000000000500000000000060000000000002000000000000400000000000020000000000001000000000000200024000000000000060000000000000000268000000000000100002013102100000010000000000000BRCSNAACNOR6243
012013101482CSNAV20     080CSNAE       ON        000R$  000000000000500000000000050000000000005000000000000500000000000050000000000000000000000000000002000000000000015000000000000000075000000000000102002013102100000010000000000000BRCSNAACNOR6243
012013101482CSNAV40     080CSNAE       ON        000R$  000000000000700000000000070000000000007000000000000700000000000070000000000000000000000000000002000000000000019000000000000000133000000000000104002013102100000010000000000000BRCSNAACNOR6243
012013101482CSNAW10     080CSNAE FM    ON        000R$  000000000002200000000000220000000000012000000000001400000000000120000000000009000000000002000010000000000000011700000000000000167300000000000098002013111800000010000000000000BRCSNAACNOR6242
012013101482CSNAW11     080CSNAE FM    ON        000R$  000000000006900000000000690000000000039000000000005500000000000390000000000039000000000007300073000000000000040700000000000002253200000000000110002013111800000010000000000000BRCSNAACNOR6243
012013101482CSNAW40     080CSNAE FM    ON        000R$  000000000003700000000000370000000000022000000000003200000000000220000000000000000000000000000013000000000000027500000000000000885500000000000104002013111800000010000000000000BRCSNAACNOR6243
012013101482CSNAW60     080CSNAE       ON        000R$  000000000002900000000000300000000000029000000000002900000000000300000000000000000000000000000003000000000000470500000000000013812000000000000106002013111800000010000000000000BRCSNAACNOR6243
012013101482CSNAW9      080CSNAE       ON        000R$  000000000000700000000000070000000000007000000000000700000000000070000000000005000000000002200001000000000000001000000000000000007000000000000090002013111800000010000000000000BRCSNAACNOR6243
012013101482CSNAW96     080CSNAE       ON        000R$  000000000000800000000000080000000000008000000000000800000000000080000000000000000000000000000001000000000000470000000000000003760000000000000096002013111800000010000000000000BRCSNAACNOR6243
012013101482CSNAX10     080CSNAE FM    ON        000R$  000000000003800000000000380000000000024000000000003500000000000240000000000023000000000004500036000000000000036500000000000001294300000000000100002013121600000010000000000000BRCSNAACNOR6243
012013101482CSNAX11     080CSNAE FM    ON        000R$  000000000005300000000000530000000000034000000000004800000000000360000000000026000000000006200048000000000000030800000000000001494600000000000104702013121600000010000000000000BRCSNAACNOR6241
012013101482CSNAX9      080CSNAE       ON        000R$  000000000000900000000000090000000000007000000000000800000000000070000000000001000000000001900003000000000000003000000000000000024000000000000084702013121600000010000000000000BRCSNAACNOR6241
012013101402CTAX11      010CONTAX      UNT     N2   R$  000000000187000000000018800000000001850000000000186400000000018800000000001856000000000189800061000000000000029500000000000054995000000000000000009999123100000010000000000000BRCTAXCDAM19100
012013101496CTAX11F     020CONTAX      UNT     N2   R$  000000000185500000000018550000000001855000000000185500000000018550000000001652000000000185500001000000000000000010000000000000018550000000000000009999123100000010000000000000BRCTAXCDAM19100
012013101402CTAX3       010CONTAX      ON      N2   R$  000000000040000000000004050000000000371000000000039700000000003820000000000352000000000039200027000000000000012000000000000004769800000000000000009999123100000010000000000000BRCTAXACNOR3113
012013101402CTAX4       010CONTAX      PN      N2   R$  000000000037000000000004000000000000357000000000037800000000003710000000000371000000000037800113000000000000058400000000000022081300000000000000009999123100000010000000000000BRCTAXACNPR0114
012013101496CTAX4F      020CONTAX      PN      N2   R$  000000000038500000000003850000000000378000000000038100000000003780000000000343000000000043300002000000000000000110000000000000041979000000000000009999123100000010000000000000BRCTAXACNPR0114
012013101402CTIP3       010CETIP       ON      NM   R$  000000000234100000000023500000000002326000000000233900000000023480000000002348000000000235004897000000000001031500000000002412979800000000000000009999123100000010000000000000BRCTIPACNOR2120
012013101496CTIP3F      020CETIP       ON      NM   R$  000000000233500000000023900000000002326000000000234000000000023900000000002330000000000239100035000000000000000778000000000001820600000000000000009999123100000010000000000000BRCTIPACNOR2120
012013101478CTIPK23     070CTIP        ON      NM000R$  000000000010000000000001000000000000100000000000010000000000001000000000000000000000000000000001000000000000009000000000000000900000000000000228802013111800000010000000000000BRCTIPACNOR2118
012013101478CTIPK54     070CTIP        ON      NM000R$  000000000004200000000000420000000000040000000000004100000000000400000000000000000000000000000003000000000000023800000000000000987600000000000245002013111800000010000000000000BRCTIPACNOR2120
012013101402CTKA4       010KARSTEN     PN           R$  000000000009600000000001060000000000096000000000009900000000000990000000000097000000000009900033000000000000017100000000000001703400000000000000009999123100000010000000000000BRCTKAACNPR7041
012013101402CTNM4       010COTEMINAS   PN           R$  000000000022700000000002320000000000225000000000023100000000002320000000000223000000000023200008000000000000013200000000000003050400000000000000009999123100000010000000000000BRCTNMACNPR6128
012013101462CTNM4T      030COTEMINAS   PN        060R$  000000000023500000000002360000000000235000000000023500000000002360000000000000000000000000000002000000000000010000000000000002359440000000000000009999123100000010000000000000BRCTNMACNPR6128
012013101402CTSA4       010SANTANENSE  PN           R$  000000000058300000000005830000000000583000000000058300000000005830000000000583000000000058400002000000000000000900000000000000524700000000000000009999123100000010000000000000BRCTSAACNPR0051
012013101462CTSA4T      030SANTANENSE  PN        074R$  000000000059300000000005940000000000593000000000059300000000005940000000000000000000000000000002000000000000000900000000000000534092000000000000009999123100000010000000000000BRCTSAACNPR0051
012013101412CTXT11      010FII C TEXTILCI           R$  000000000030200000000003100000000000302000000000030400000000003100000000000302000000000000000004000000000000001499000000000000456690000000000000009999123100000010000000000000BRCTXTCTF014110
012013101412CXCE11B     010FII CX CEDAECI      MB   R$  000000019300000000001930000000000193000000000019300000000001930000000000192102000000019300000001000000000000000007000000000001351000000000000000009999123100000010000000000000BRCXCECTF004139
012013101402CYRE3       010CYRELA REALTON      NM   R$  000000000171300000000017200000000001683000000000169600000000016990000000001697000000000169909745000000000002392900000000004059770800000000000000009999123100000010000000000000BRCYREACNOR7125
012013101496CYRE3F      020CYRELA REALTON      NM   R$  000000000171600000000017190000000001687000000000169800000000016870000000001688000000000171800032000000000000000462000000000000784590000000000000009999123100000010000000000000BRCYREACNOR7125
