00COTAHIST.2013BOVESPA 20130919                                                                                                                                                                                                                      
012013091902AAPL34      010APPLE       DRN          R$  000000001045000000000104500000000010450000000001045000000000104500000000010325000000001046500001000000000000000500000000000005225000000000000000009999123100000010000000000000BRAAPLBDR004105
012013091902ABCB4       010ABC BRASIL  PN      N2   R$  000000000123800000000012500000000001199000000000121800000000012140000000001206000000000121400973000000000000436600000000000532013800000000000000009999123100000010000000000000BRABCBACNPR4120
012013091996ABCB4F      020ABC BRASIL  PN      N2   R$  000000000124200000000012420000000001205000000000121400000000012170000000001203000000000121700026000000000000000487000000000000591654000000000000009999123100000010000000000000BRABCBACNPR4120
012013091962ABCB4T      030ABC BRASIL  PN      N2032R$  000000000124000000000012410000000001240000000000124000000000012410000000000000000000000000000002000000000000002000000000000002480219000000000000009999123100000010000000000000BRABCBACNPR4120
012013091912ABCP11      010FII ABC IMOBCI           R$  000000000097000000000009720000000000970000000000097100000000009720000000000970000000000097200003000000000000000530000000000000514920000000000000009999123100000010000000000000BRABCPCTF000215
012013091902ABRE11      010ABRIL EDUCA UNT     N2   R$  000000000336900000000033970000000003233000000000335900000000033600000000003346000000000336000734000000000000176300000000000592305700000000000000009999123100000010000000000000BRABRECDAM15102
012013091996ABRE11F     020ABRIL EDUCA UNT     N2   R$  000000000325100000000033800000000003251000000000334100000000033500000000003355000000000339900009000000000000000226000000000000755139000000000000009999123100000010000000000000BRABRECDAM15102
012013091902AEDU3       010ANHANGUERA  ON      NM   R$  000000000135800000000013590000000001315000000000133000000000013280000000001320000000000132806983000000000002710100000000003605181300000000000000009999123100000010000000000000BRAEDUACNOR9107
012013091996AEDU3F      020ANHANGUERA  ON      NM   R$  000000000135000000000013700000000001302000000000133400000000013660000000001330000000000137000051000000000000001540000000000002054834000000000000009999123100000010000000000000BRAEDUACNOR9107
012013091962AEDU3S      030ANHANGUERA  ON      NM090R$  000000000135300000000013540000000001353000000000135300000000013540000000000000000000000000000002000000000000005000000000000006769129000000000000009999123100000010000000000000BRAEDUACNOR9107
012013091912AEFI11      010FII AESAPAR CI           R$  000000001179900000000119880000000011790000000001187300000000119600000000011850000000001195900042000000000000004551000000000054037640000000000000009999123100000010000000000000BRAEFICTF002121
012013091902AELP3       010AES ELPA    ON           R$  000000000100000000000010000000000001000000000000100000000000010000000000000825000000000100000001000000000000000100000000000000100000000000000000009999123100000010000000000000BRAELPACNOR2119
012013091912AGCX11      010FII AG CAIXACI           R$  000000009700000000000970000000000094000000000009539600000000940000000000093900000000009400000035000000000000000692000000000066014521000000000000009999123100000010000000000000BRAGCXCTF003110
012013091902AGRO3       010BRASILAGRO  ON      NM   R$  000000000098600000000009940000000000960000000000098100000000009890000000000970000000000098900083000000000000073200000000000071837400000000000000009999123100000010000000000000BRAGROACNOR7102
012013091962AGRO3T      030BRASILAGRO  ON      NM032R$  000000000099200000000009930000000000971000000000099000000000009720000000000000000000000000000004000000000000035000000000000034682932000000000000009999123100000010000000000000BRAGROACNOR7102
012013091902ALLL3       010ALL AMER LATON      NM   R$  000000000092600000000009290000000000913000000000092100000000009290000000000924000000000092904173000000000001433800000000001320854700000000000000009999123100000010000000000000BRALLLACNOR6118
012013091996ALLL3F      020ALL AMER LATON      NM   R$  000000000092900000000009390000000000918000000000092300000000009390000000000919000000000093900028000000000000000936000000000000866134000000000000009999123100000010000000000000BRALLLACNOR6118
012013091912ALMI11B     010FII TORRE ALCI      MB   R$  000000030989900000003098990000000305500000000030612500000003065000000000306501000000030990000013000000000000000061000000000018673631000000000000009999123100000010000000000000BRALMICTF003205
012013091902ALPA3       010ALPARGATAS  ON      N1   R$  000000000118200000000011820000000001175000000000117800000000011770000000001177000000000121300008000000000000001600000000000001886100000000000000009999123100000010000000000000BRALPAACNOR0203
012013091902ALPA4       010ALPARGATAS  PN      N1   R$  000000000141600000000014160000000001385000000000140600000000013950000000001395000000000140100964000000000000788200000000001108609800000000000000009999123100000010000000000000BRALPAACNPR7203
012013091996ALPA4F      020ALPARGATAS  PN      N1   R$  000000000141600000000014160000000001381000000000139900000000014010000000001381000000000142700013000000000000000244000000000000341424000000000000009999123100000010000000000000BRALPAACNPR7203
012013091978ALPAJ53     070ALPAE       PN      N1000R$  000000000005000000000000500000000000050000000000005000000000000500000000000000000000000000000001000000000000015000000000000000750000000000000137502013102100000010000000000000BRALPAACNPR7203
012013091902ALSC3       010ALIANSCE    ON      NM   R$  000000000205000000000020990000000002050000000000208400000000020850000000002079000000000209602685000000000000754500000000001572535700000000000000009999123100000010000000000000BRALSCACNOR0104
012013091996ALSC3F      020ALIANSCE    ON      NM   R$  000000000208100000000020930000000002081000000000208900000000020930000000002020000000000209100011000000000000000400000000000000835629000000000000009999123100000010000000000000BRALSCACNOR0104
012013091902ALUP11      010ALUPAR      UNT     N2   R$  000000000177400000000017750000000001732000000000174400000000017700000000001734000000000177001349000000000000281400000000000491042400000000000000009999123100000010000000000000BRALUPCDAM15100
012013091996ALUP11F     020ALUPAR      UNT     N2   R$  000000000176200000000017700000000001653000000000174200000000017000000000001700000000000176700019000000000000000467000000000000813724000000000000009999123100000010000000000000BRALUPCDAM15100
012013091902AMAR3       010LOJAS MARISAON      NM   R$  000000000232600000000023530000000002271000000000230600000000023060000000002305000000000230800789000000000000301300000000000694896200000000000000009999123100000010000000000000BRAMARACNOR4109
012013091996AMAR3F      020LOJAS MARISAON      NM   R$  000000000233900000000023390000000002287000000000231100000000022870000000002267000000000228800005000000000000000083000000000000191865000000000000009999123100000010000000000000BRAMARACNOR4109
012013091962AMAR3T      030LOJAS MARISAON      NM046R$  000000000233800000000023390000000002313000000000233600000000023140000000000000000000000000000004000000000000005300000000000012385545000000000000009999123100000010000000000000BRAMARACNOR4109
012013091902AMBV3       010AMBEV       ON  ED       R$  000000000852500000000087120000000008520000000000864200000000087120000000008650000000000871200857000000000000189800000000001640293500000000000000009999123100000010000000000000BRAMBVACNOR4154
012013091996AMBV3F      020AMBEV       ON  ED       R$  000000000854000000000086420000000008401000000000858700000000086420000000008566000000000873000059000000000000001525000000000013096769000000000000009999123100000010000000000000BRAMBVACNOR4154
012013091902AMBV4       010AMBEV       PN  ED       R$  000000000859500000000086950000000008516000000000863300000000086950000000008668000000000869506918000000000001793700000000015486159900000000000000009999123100000010000000000000BRAMBVACNPR1154
012013091996AMBV4F      020AMBEV       PN  ED       R$  000000000857000000000086570000000008520000000000861500000000086000000000008575000000000860000209000000000000005790000000000049888912000000000000009999123100000010000000000000BRAMBVACNPR1154
012013091962AMBV4T      030AMBEV       PN  ED    120R$  000000000883700000000089160000000008837000000000889000000000089160000000000000000000000000000006000000000000004600000000000040895504000000000000009999123100000010000000000000BRAMBVACNPR1154
012013091962AMBV4T      030AMBEV       PN  ED    180R$  000000000903200000000090330000000009032000000000903200000000090330000000000000000000000000000002000000000000001000000000000009032962000000000000009999123100000010000000000000BRAMBVACNPR1154
012013091978AMBVJ16     070AMBV        ON        000R$  000000000014600000000001460000000000146000000000014600000000001460000000000000000000000018000002000000000000022100000000000003226600000000000860002013102100000010000000000000BRAMBVACNOR4154
012013091978AMBVJ86     070AMBV    /ED PN        000R$  000000000020000000000002000000000000200000000000020000000000002000000000000000000000000000000001000000000000000100000000000000020000000000000853502013102100000010000000000000BRAMBVACNPR1153
012013091978AMBVJ87     070AMBV    /ED PN        000R$  000000000011600000000001500000000000116000000000013200000000001410000000000001000000000030000005000000000000000500000000000000066400000000000863502013102100000010000000000000BRAMBVACNPR1153
012013091978AMBVJ88     070AMBV    /ED PN        000R$  000000000015500000000001620000000000130000000000015400000000001300000000000000000000000022100004000000000000000900000000000000138700000000000873502013102100000010000000000000BRAMBVACNPR1153
012013091978AMBVJ90     070AMBV    /ED PN        000R$  000000000005100000000000700000000000045000000000006200000000000700000000000000000000000000000007000000000000002600000000000000162200000000000893502013102100000010000000000000BRAMBVACNPR1153
012013091902ARTR3       010ARTERIS     ON      NM   R$  000000000190700000000019220000000001893000000000190400000000018990000000001899000000000190001644000000000000477100000000000908791500000000000000009999123100000010000000000000BRARTRACNOR3101
012013091996ARTR3F      020ARTERIS     ON      NM   R$  000000000189300000000019190000000001893000000000190700000000018980000000001907000000000198200025000000000000000896000000000001709094000000000000009999123100000010000000000000BRARTRACNOR3101
012013091902ARZZ3       010AREZZO CO   ON      NM   R$  000000000379000000000038110000000003702000000000376100000000037560000000003756000000000376300367000000000000058300000000000219323900000000000000009999123100000010000000000000BRARZZACNOR3109
012013091996ARZZ3F      020AREZZO CO   ON      NM   R$  000000000380000000000038070000000003731000000000375400000000037540000000003623000000000377000011000000000000000355000000000001332902000000000000009999123100000010000000000000BRARZZACNOR3109
012013091902AUTM3       010AUTOMETAL   ON      NM   R$  000000000186600000000018660000000001836000000000184600000000018500000000001838000000000185000125000000000000036500000000000067403800000000000000009999123100000010000000000000BRAUTMACNOR8109
012013091996AUTM3F      020AUTOMETAL   ON      NM   R$  000000000180100000000018010000000001801000000000180100000000018010000000001800000000000200000001000000000000000050000000000000090050000000000000009999123100000010000000000000BRAUTMACNOR8109
012013091902BAHI3       010BAHEMA      ON           R$  000000000049500000000004950000000000495000000000049500000000004950000000000487000000000049900001000000000000000600000000000000297000000000000000009999123100000010000000000000BRBAHIACNOR1066
012013091902BAZA3       010AMAZONIA    ON           R$  000000000003200000000000320000000000032000000000003200000000000320000000000032000000000003300008000000000000029000000000000000928000000000000000009999123100000010000000000000BRBAZAACNOR0163
012013091996BAZA3F      020AMAZONIA    ON           R$  000000000003300000000000330000000000033000000000003300000000000330000000000033000000000003400001000000000000000010000000000000000330000000000000009999123100000010000000000000BRBAZAACNOR0163
012013091902BBAS3       010BRASIL      ON  EJ  NM   R$  000000000252400000000025660000000002510000000000254200000000025600000000002560000000000256113855000000000006083500000000015464617800000000000000009999123100000010000000000000BRBBASACNOR3239
012013091996BBAS3F      020BRASIL      ON  EJ  NM   R$  000000000252100000000025660000000002515000000000253900000000025550000000002531000000000255500328000000000000010251000000000026042425000000000000009999123100000010000000000000BRBBASACNOR3239
012013091962BBAS3T      030BRASIL      ON  EJ  NM032R$  000000000255600000000025570000000002556000000000255600000000025570000000000000000000000000000004000000000000004200000000000010736349000000000000009999123100000010000000000000BRBBASACNOR3239
012013091962BBAS3T      030BRASIL      ON  EJ  NM060R$  000000000260300000000026040000000002603000000000260300000000026040000000000000000000000000000002000000000000000700000000000001822245000000000000009999123100000010000000000000BRBBASACNOR3239
012013091962BBAS3T      030BRASIL      ON  EJ  NM090R$  000000000258900000000025900000000002589000000000258900000000025900000000000000000000000000000002000000000000000500000000000001294758000000000000009999123100000010000000000000BRBBASACNOR3239
012013091978BBASA26     070BBAS    /EJ ON      NM000R$  000000000021000000000002100000000000210000000000021000000000002100000000000000000000000000000001000000000000000500000000000000105000000000000249502014012000000010000000000000BRBBASACNOR3237
012013091978BBASB26     070BBAS    /EJ ON      NM000R$  000000000021700000000002270000000000213000000000021500000000002270000000000000000000000000000006000000000000016200000000000003493400000000000249502014021700000010000000000000BRBBASACNOR3237
012013091978BBASJ22     070BBAS    /EJ ON      NM000R$  000000000045000000000004810000000000440000000000045600000000004530000000000442000000000047600049000000000000008100000000000003701100000000000209502013102100000010000000000000BRBBASACNOR3237
012013091978BBASJ23     070BBAS    /EJ ON      NM000R$  000000000036400000000004080000000000364000000000040100000000004060000000000385000000000000000031000000000000014100000000000005654800000000000216102013102100000010000000000000BRBBASACNOR3235
012013091978BBASJ24     070BBAS  FM/EJ ON      NM000R$  000000000027900000000003110000000000275000000000029100000000002960000000000220000000000000000070000000000000115200000000000033585000000000000227102013102100000010000000000000BRBBASACNOR3236
012013091978BBASJ25     070BBAS  FM/EJ ON      NM000R$  000000000017200000000001970000000000169000000000018200000000001900000000000170000000000031200091000000000000112500000000000020545800000000000239502013102100000010000000000000BRBBASACNOR3237
012013091978BBASJ26     070BBAS  FM/EJ ON      NM000R$  000000000011900000000001450000000000119000000000012900000000001370000000000119000000000000000100000000000000068000000000000008825100000000000246102013102100000010000000000000BRBBASACNOR3235
012013091978BBASJ27     070BBAS  FM/EJ ON      NM000R$  000000000007400000000000810000000000060000000000007000000000000740000000000055000000000008400166000000000000136100000000000009656100000000000256102013102100000010000000000000BRBBASACNOR3235
012013091978BBASJ28     070BBAS  FM/EJ ON      NM000R$  000000000002100000000000270000000000019000000000002100000000000210000000000022000000000003000035000000000000153600000000000003377900000000000269502013102100000010000000000000BRBBASACNOR3237
012013091978BBASJ29     070BBAS    /EJ ON      NM000R$  000000000000900000000000120000000000009000000000001100000000000100000000000008000000000001200008000000000000018000000000000000201600000000000276102013102100000010000000000000BRBBASACNOR3235
012013091978BBASJ30     070BBAS    /EJ ON      NM000R$  000000000000400000000000040000000000004000000000000400000000000040000000000002000000000000500002000000000000010000000000000000040000000000000286102013102100000010000000000000BRBBASACNOR3235
012013091978BBASJ31     070BBAS    /EJ ON      NM000R$  000000000000200000000000020000000000001000000000000100000000000010000000000000000000000000400002000000000000001900000000000000002700000000000307302013102100000010000000000000BRBBASACNOR3238
012013091978BBASJ56     070BBAS    /EJ ON      NM000R$  000000000010700000000001120000000000093000000000009800000000000930000000000000000000000000000004000000000000003100000000000000304200000000000251102013102100000010000000000000BRBBASACNOR3235
012013091978BBASJ65     070BBAS    /EJ ON      NM000R$  000000000003800000000000380000000000038000000000003800000000000380000000000000000000000000000001000000000000001000000000000000038000000000000265002013102100000010000000000000BRBBASACNOR3239
012013091978BBASK23     070BBAS    /EJ ON      NM000R$  000000000039400000000003940000000000394000000000039400000000003940000000000000000000000000000001000000000000000100000000000000039400000000000219502013111800000010000000000000BRBBASACNOR3237
012013091978BBASK24     070BBAS  FM/EJ ON      NM000R$  000000000028700000000003080000000000283000000000029000000000003060000000000230000000000000000023000000000000037600000000000010928900000000000229502013111800000010000000000000BRBBASACNOR3237
012013091978BBASK25     070BBAS  FM/EJ ON      NM000R$  000000000022600000000002480000000000222000000000023000000000002340000000000000000000000000000022000000000000042000000000000009668600000000000237102013111800000010000000000000BRBBASACNOR3236
012013091978BBASK26     070BBAS  FM/EJ ON      NM000R$  000000000014800000000001750000000000148000000000015800000000001560000000000100000000000020000019000000000000035200000000000005590400000000000247102013111800000010000000000000BRBBASACNOR3236
012013091978BBASK27     070BBAS  FM/EJ ON      NM000R$  000000000009600000000001100000000000093000000000009800000000001040000000000075000000000000000079000000000000052800000000000005216700000000000257102013111800000010000000000000BRBBASACNOR3236
012013091978BBASK28     070BBAS  FM/EJ ON      NM000R$  000000000005000000000000600000000000050000000000005400000000000600000000000020000000000000000021000000000000025400000000000001374700000000000267102013111800000010000000000000BRBBASACNOR3236
012013091978BBASK29     070BBAS    /EJ ON      NM000R$  000000000001900000000000200000000000019000000000001900000000000190000000000007000000000000000003000000000000007000000000000000133500000000000279502013111800000010000000000000BRBBASACNOR3237
012013091978BBASK56     070BBAS    /EJ ON      NM000R$  000000000007400000000000830000000000074000000000007700000000000820000000000000000000000000000006000000000000011700000000000000901400000000000262302013111800000010000000000000BRBBASACNOR3238
012013091978BBASK57     070BBAS    /EJ ON      NM000R$  000000000003000000000000400000000000030000000000003100000000000400000000000000000000000000000019000000000000741200000000000023710000000000000275002013111800000010000000000000BRBBASACNOR3239
012013091978BBASL24     070BBAS    /EJ ON      NM000R$  000000000031000000000003130000000000310000000000031100000000003130000000000145000000000000000016000000000000018000000000000005608000000000000229502013121600000010000000000000BRBBASACNOR3237
012013091978BBASL26     070BBAS    /EJ ON      NM000R$  000000000018900000000001920000000000189000000000019100000000001920000000000016000000000000000003000000000000003000000000000000573000000000000246102013121600000010000000000000BRBBASACNOR3235
012013091978BBASL29     070BBAS    /EJ ON      NM000R$  000000000005200000000000520000000000050000000000005100000000000520000000000005000000000000000011000000000000005500000000000000282000000000000276102013121600000010000000000000BRBBASACNOR3235
012013091978BBASL60     070BBAS    /EJ ON      NM000R$  000000000002700000000000270000000000027000000000002700000000000270000000000000000000000000000001000000000000500000000000000013500000000000000286202013121600000010000000000000BRBBASACNOR3233
012013091982BBASM20     080BBASE   /EJ ON      NM000R$  000000000000900000000000090000000000009000000000000900000000000090000000000000000000000000000001000000000000003000000000000000027000000000000189502014012000000010000000000000BRBBASACNOR3237
012013091982BBASV23     080BBASE FM/EJ ON      NM000R$  000000000000300000000000040000000000003000000000000300000000000040000000000003000000000001200029000000000000239600000000000000928400000000000216102013102100000010000000000000BRBBASACNOR3235
012013091982BBASV24     080BBASE FM/EJ ON      NM000R$  000000000000900000000000090000000000006000000000000700000000000060000000000006000000000003000013000000000000034800000000000000267400000000000227102013102100000010000000000000BRBBASACNOR3236
012013091982BBASV25     080BBASE FM/EJ ON      NM000R$  000000000002800000000000280000000000019000000000002400000000000220000000000015000000000002800144000000000000918500000000000022463300000000000239502013102100000010000000000000BRBBASACNOR3237
012013091982BBASV26     080BBASE FM/EJ ON      NM000R$  000000000003800000000000420000000000032000000000003700000000000390000000000033000000000005500101000000000000241900000000000008984500000000000246102013102100000010000000000000BRBBASACNOR3235
012013091982BBASV27     080BBASE   /EJ ON      NM000R$  000000000008000000000000800000000000065000000000007300000000000720000000000000000000000014500015000000000000038000000000000002793000000000000256102013102100000010000000000000BRBBASACNOR3235
012013091982BBASV60     080BBASE   /EJ ON      NM000R$  000000000035000000000003500000000000350000000000035000000000003500000000000000000000000000000001000000000000000100000000000000035000000000000291102013102100000010000000000000BRBBASACNOR3235
012013091982BBASW24     080BBASE FM/EJ ON      NM000R$  000000000002600000000000260000000000026000000000002600000000000260000000000000000000000000000001000000000000004000000000000000104000000000000229502013111800000010000000000000BRBBASACNOR3237
012013091982BBASW25     080BBASE FM/EJ ON      NM000R$  000000000003200000000000320000000000032000000000003200000000000320000000000000000000000000000001000000000000001200000000000000038400000000000237102013111800000010000000000000BRBBASACNOR3236
012013091982BBASW26     080BBASE FM/EJ ON      NM000R$  000000000006400000000000650000000000055000000000006000000000000590000000000000000000000000000094000000000000073300000000000004429400000000000247102013111800000010000000000000BRBBASACNOR3236
012013091982BBASW28     080BBASE   /EJ ON      NM000R$  000000000014900000000001490000000000149000000000014900000000001490000000000000000000000000000001000000000000001000000000000000149000000000000267102013111800000010000000000000BRBBASACNOR3236
012013091982BBASX23     080BBASE   /EJ ON      NM000R$  000000000002100000000000210000000000021000000000002100000000000210000000000020000000000002700001000000000000000100000000000000002100000000000219502013121600000010000000000000BRBBASACNOR3237
012013091902BBDC3       010BRADESCO    ON      N1   R$  000000000359000000000036200000000003541000000000357100000000035870000000003587000000000359806370000000000001914800000000006839120600000000000000009999123100000010000000000000BRBBDCACNOR1606
012013091996BBDC3F      020BRADESCO    ON      N1   R$  000000000365000000000036500000000003512000000000357700000000035120000000003512000000000362900032000000000000000933000000000003335427000000000000009999123100000010000000000000BRBBDCACNOR1606
012013091902BBDC4       010BRADESCO    PN      N1   R$  000000000310900000000031400000000003080000000000310800000000031370000000003125000000000313716549000000000007128300000000022157115500000000000000009999123100000010000000000000BRBBDCACNPR8606
012013091996BBDC4F      020BRADESCO    PN      N1   R$  000000000311100000000031390000000003078000000000310200000000030950000000003095000000000312100235000000000000007125000000000022111611000000000000009999123100000010000000000000BRBBDCACNPR8606
012013091962BBDC4T      030BRADESCO    PN      N1035R$  000000000313300000000031360000000003133000000000313400000000031360000000000000000000000000000004000000000000003800000000000011912860000000000000009999123100000010000000000000BRBBDCACNPR8606
012013091962BBDC4T      030BRADESCO    PN      N1060R$  000000000315000000000031570000000003126000000000314000000000031570000000000000000000000000000014000000000000144600000000000454158324000000000000009999123100000010000000000000BRBBDCACNPR8606
012013091962BBDC4T      030BRADESCO    PN      N1090R$  000000000318600000000031870000000003186000000000318600000000031870000000000000000000000000000004000000000000080100000000000255275216000000000000009999123100000010000000000000BRBBDCACNPR8606
012013091962BBDC4T      030BRADESCO    PN      N1120R$  000000000318400000000031850000000003183000000000318300000000031840000000000000000000000000000004000000000000055000000000000175087726000000000000009999123100000010000000000000BRBBDCACNPR8606
012013091978BBDCA30     070BBDC        PN      N1000R$  000000000027000000000002700000000000270000000000027000000000002700000000000270000000000000000001000000000000001200000000000000324000000000000300002014012000000010000000000000BRBBDCACNPR8606
012013091978BBDCB63     070BBDC        PN      N1000R$  000000000012800000000001280000000000128000000000012800000000001280000000000000000000000000000002000000000000100000000000000012800000000000000335002014021700000010000000000000BRBBDCACNPR8606
012013091978BBDCJ1      070BBDC        PN      N1000R$  000000000008900000000001110000000000071000000000008900000000001110000000000000000000000000000179000000000000145500000000000013006800000000000314402013102100000010000000000000BRBBDCACNPR8603
012013091978BBDCJ2      070BBDC        PN      N1000R$  000000000004700000000000470000000000047000000000004700000000000470000000000000000000000005000001000000000000037300000000000001753100000000000324402013102100000010000000000000BRBBDCACNPR8603
012013091978BBDCJ29     070BBDC        PN      N1000R$  000000000026100000000002810000000000249000000000026300000000002500000000000221000000000000000243000000000000116600000000000030762700000000000287602013102100000010000000000000BRBBDCACNPR8602
012013091978BBDCJ30     070BBDC        PN      N1000R$  000000000018400000000002090000000000161000000000018400000000001610000000000161000000000021000277000000000000263500000000000048538800000000000297602013102100000010000000000000BRBBDCACNPR8602
012013091978BBDCJ31     070BBDC        PN      N1000R$  000000000012000000000001280000000000101000000000011500000000001180000000000116000000000016800164000000000000258500000000000029879700000000000307602013102100000010000000000000BRBBDCACNPR8602
012013091978BBDCJ32     070BBDC        PN      N1000R$  000000000006400000000000800000000000055000000000006800000000000720000000000060000000000007600267000000000000217800000000000015001200000000000317602013102100000010000000000000BRBBDCACNPR8602
012013091978BBDCJ33     070BBDC        PN      N1000R$  000000000003600000000000410000000000028000000000003400000000000390000000000039000000000004500293000000000000356500000000000012134700000000000327602013102100000010000000000000BRBBDCACNPR8602
012013091978BBDCJ34     070BBDC        PN      N1000R$  000000000001700000000000230000000000014000000000001600000000000210000000000000000000000002200090000000000000089400000000000001459400000000000337202013102100000010000000000000BRBBDCACNPR8600
012013091978BBDCJ35     070BBDC        PN      N1000R$  000000000000800000000000080000000000008000000000000800000000000080000000000000000000000000000001000000000000001000000000000000008000000000000349802013102100000010000000000000BRBBDCACNPR8605
012013091978BBDCJ36     070BBDC        PN      N1000R$  000000000000400000000000040000000000004000000000000400000000000040000000000000000000000000000001000000000000000100000000000000000400000000000359802013102100000010000000000000BRBBDCACNPR8605
012013091978BBDCJ58     070BBDC        PN      N1000R$  000000000032300000000003230000000000323000000000032300000000003230000000000000000000000036000001000000000000000500000000000000161500000000000279802013102100000010000000000000BRBBDCACNPR8605
012013091978BBDCK28     070BBDC        PN      N1000R$  000000000037600000000003760000000000367000000000037000000000003670000000000000000000000000000005000000000000014800000000000005483200000000000277602013111800000010000000000000BRBBDCACNPR8602
012013091978BBDCK30     070BBDC        PN      N1000R$  000000000020900000000002300000000000191000000000020600000000002300000000000000000000000000000214000000000000211800000000000043699000000000000299802013111800000010000000000000BRBBDCACNPR8605
012013091978BBDCK31     070BBDC        PN      N1000R$  000000000015000000000001580000000000133000000000014300000000001580000000000133000000000000000036000000000000029600000000000004262100000000000309802013111800000010000000000000BRBBDCACNPR8605
012013091978BBDCK32     070BBDC        PN      N1000R$  000000000010700000000001170000000000097000000000010600000000001170000000000013000000000000000008000000000000012300000000000001315900000000000317402013111800000010000000000000BRBBDCACNPR8601
012013091978BBDCK33     070BBDC        PN      N1000R$  000000000007000000000000700000000000061000000000006700000000000680000000000012000000000000000069000000000000051100000000000003473800000000000327602013111800000010000000000000BRBBDCACNPR8602
012013091978BBDCK34     070BBDC        PN      N1000R$  000000000003600000000000460000000000035000000000003900000000000460000000000008000000000005000075000000000000022300000000000000885700000000000339602013111800000010000000000000BRBBDCACNPR8604
012013091978BBDCK36     070BBDC        PN      N1000R$  000000000001800000000000180000000000018000000000001800000000000180000000000000000000000000000001000000000000000500000000000000009000000000000357402013111800000010000000000000BRBBDCACNPR8601
012013091978BBDCK9      070BBDC        PN      N1000R$  000000000027900000000002800000000000261000000000027600000000002640000000000000000000000000000066000000000000037100000000000010252400000000000289802013111800000010000000000000BRBBDCACNPR8605
012013091978BBDCL29     070BBDC        PN      N1000R$  000000000032300000000003250000000000320000000000032200000000003230000000000185000000000000000120000000000000012000000000000003873600000000000287602013121600000010000000000000BRBBDCACNPR8602
012013091978BBDCL32     070BBDC        PN      N1000R$  000000000014000000000001400000000000140000000000014000000000001400000000000000000000000000000002000000000000003000000000000000420000000000000317202013121600000010000000000000BRBBDCACNPR8600
012013091978BBDCL6      070BBDC        PN      N1000R$  000000000003400000000000350000000000034000000000003400000000000350000000000000000000000000000002000000000000006000000000000000207000000000000357402013121600000010000000000000BRBBDCACNPR8601
012013091982BBDCV1      080BBDCE       PN      N1000R$  000000000010200000000001090000000000097000000000010100000000001070000000000000000000000000000039000000000000043000000000000004377000000000000314402013102100000010000000000000BRBBDCACNPR8603
012013091982BBDCV25     080BBDCE       PN      N1000R$  000000000000100000000000020000000000001000000000000100000000000020000000000002000000000000000007000000000000097300000000000000157300000000000249402013102100000010000000000000BRBBDCACNPR8603
012013091982BBDCV27     080BBDCE       PN      N1000R$  000000000000300000000000030000000000003000000000000300000000000030000000000004000000000001500001000000000000074600000000000000223800000000000267602013102100000010000000000000BRBBDCACNPR8602
012013091982BBDCV29     080BBDCE       PN      N1000R$  000000000002000000000000230000000000011000000000001400000000000110000000000000000000000000000014000000000000058600000000000000860400000000000287602013102100000010000000000000BRBBDCACNPR8602
012013091982BBDCV30     080BBDCE       PN      N1000R$  000000000004000000000000410000000000034000000000003700000000000340000000000034000000000005500010000000000000014300000000000000537600000000000297602013102100000010000000000000BRBBDCACNPR8602
012013091982BBDCV31     080BBDCE       PN      N1000R$  000000000007100000000000760000000000058000000000006900000000000660000000000060000000000000000038000000000000072500000000000005049200000000000307602013102100000010000000000000BRBBDCACNPR8602
012013091982BBDCV32     080BBDCE       PN      N1000R$  000000000011100000000001280000000000111000000000011900000000001280000000000000000000000000000002000000000000004000000000000000478000000000000317602013102100000010000000000000BRBBDCACNPR8602
012013091982BBDCV58     080BBDCE       PN      N1000R$  000000000001400000000000140000000000014000000000001400000000000140000000000000000000000000000002000000000000001900000000000000026600000000000279802013102100000010000000000000BRBBDCACNPR8605
012013091982BBDCW26     080BBDCE       PN      N1000R$  000000000001100000000000110000000000011000000000001100000000000110000000000000000000000000000003000000000000011500000000000000126500000000000259602013111800000010000000000000BRBBDCACNPR8604
012013091982BBDCW30     080BBDCE       PN      N1000R$  000000000006900000000000720000000000060000000000006800000000000670000000000000000000000000000013000000000000020900000000000001431800000000000299802013111800000010000000000000BRBBDCACNPR8605
012013091982BBDCW31     080BBDCE       PN      N1000R$  000000000010500000000001130000000000090000000000010400000000000950000000000000000000000012000079000000000000095300000000000009969400000000000309802013111800000010000000000000BRBBDCACNPR8605
012013091982BBDCW32     080BBDCE       PN      N1000R$  000000000014400000000001510000000000122000000000013700000000001330000000000000000000000000000051000000000000022600000000000003117700000000000317402013111800000010000000000000BRBBDCACNPR8601
012013091982BBDCW9      080BBDCE       PN      N1000R$  000000000004500000000000460000000000038000000000004300000000000380000000000000000000000000000012000000000000017300000000000000755600000000000289802013111800000010000000000000BRBBDCACNPR8605
012013091982BBDCX25     080BBDCE       PN      N1000R$  000000000001300000000000130000000000013000000000001300000000000130000000000000000000000000000001000000000000002000000000000000026000000000000249602013121600000010000000000000BRBBDCACNPR8604
012013091982BBDCX29     080BBDCE       PN      N1000R$  000000000005900000000000590000000000059000000000005900000000000590000000000000000000000000000010000000000000016500000000000000973500000000000287602013121600000010000000000000BRBBDCACNPR8602
012013091912BBFI11B     010FII BB PROGRCI      MB   R$  000000042400000000004240000000000422000000000042250000000004220000000000420600000000042800000003000000000000000040000000000016900000000000000000009999123100000010000000000000BRBBFICTF006198
012013091912BBPO11      010FII BB PRGIICI           R$  000000001099900000000111150000000010999000000001107500000000110400000000011040000000001106900401000000000000039622000000000438829079000000000000009999123100000010000000000000BRBBPOCTF003110
012013091912BBRC11      010FII BB CORP CI           R$  000000000915000000000091990000000009150000000000915500000000091990000000009006000000000919900020000000000000003353000000000030698817000000000000009999123100000010000000000000BRBBRCCTF004124
012013091902BBRK3       010BR BROKERS  ON      NM   R$  000000000060800000000006160000000000602000000000060800000000006030000000000601000000000060302794000000000001153400000000000701738200000000000000009999123100000010000000000000BRBBRKACNOR4108
012013091996BBRK3F      020BR BROKERS  ON      NM   R$  000000000061200000000006120000000000600000000000060800000000006000000000000600000000000061300004000000000000000195000000000000118608000000000000009999123100000010000000000000BRBBRKACNOR4108
012013091902BBSE3       010BBSEGURIDADEON      NM   R$  000000000218400000000021990000000002115000000000216700000000021750000000002170000000000217509519000000000005765500000000012496607800000000000000009999123100000010000000000000BRBBSEACNOR5101
012013091996BBSE3F      020BBSEGURIDADEON      NM   R$  000000000218100000000021980000000002117000000000216400000000021660000000002166000000000216700479000000000000015534000000000033623612000000000000009999123100000010000000000000BRBBSEACNOR5101
012013091962BBSE3T      030BBSEGURIDADEON      NM120R$  000000000223000000000022310000000002230000000000223000000000022310000000000000000000000000000002000000000000001000000000000002230702000000000000009999123100000010000000000000BRBBSEACNOR5101
012013091978BBSEJ21     070BBSE        ON      NM000R$  000000000013000000000001310000000000130000000000013000000000001310000000000000000000000000000002000000000000370000000000000048380000000000000205902013102100000010000000000000BRBBSEACNOR5100
012013091902BBTG11      010BTG PACTUAL UNT          R$  000000000294400000000030070000000002915000000000298000000000029900000000002990000000000299101244000000000000520300000000001550518800000000000000009999123100000010000000000000BRBBTGUNT007105
012013091996BBTG11F     020BTG PACTUAL UNT          R$  000000000300000000000030000000000002940000000000296500000000029750000000002900000000000297000013000000000000000246000000000000729406000000000000009999123100000010000000000000BRBBTGUNT007105
012013091912BBVJ11      010FII C JARDIMCI           R$  000000000778000000000077800000000007700000000000770100000000077780000000007701000000000777800031000000000000002110000000000016249552000000000000009999123100000010000000000000BRBBVJCTF001133
012013091912BCFF11B     010FII BC FFII CI      MB   R$  000000000864300000000087800000000008643000000000872200000000087120000000008712000000000873500075000000000000006695000000000058396866000000000000009999123100000010000000000000BRBCFFCTF000142
012013091996BDLL4F      020BARDELLA    PN           R$  000000000560000000000056000000000005600000000000560000000000056000000000005401000000000560000001000000000000000005000000000000028000000000000000009999123100000010000000000000BRBDLLACNPR8149
012013091902BEEF3       010MINERVA     ON      NM   R$  000000000107200000000010720000000001035000000000104600000000010500000000001048000000000105002390000000000000739500000000000773607500000000000000009999123100000010000000000000BRBEEFACNOR6104
012013091996BEEF3F      020MINERVA     ON      NM   R$  000000000107200000000010720000000001038000000000105300000000010400000000001039000000000104500022000000000000000420000000000000442585000000000000009999123100000010000000000000BRBEEFACNOR6104
012013091962BEEF3T      030MINERVA     ON      NM032R$  000000000105500000000010570000000001055000000000105500000000010570000000000000000000000000000018000000000000002000000000000002111339000000000000009999123100000010000000000000BRBEEFACNOR6104
012013091902BEES3       010BANESTES    ON           R$  000000000005000000000000500000000000048000000000004800000000000480000000000048000000000004900010000000000000028000000000000001345800000000000000009999123100000010000000000000BRBEESACNOR9244
012013091902BEES4       010BANESTES    PN           R$  000000000004500000000000450000000000044000000000004400000000000440000000000044000000000004500005000000000000004800000000000000213000000000000000009999123100000010000000000000BRBEESACNPR6169
012013091902BEMA3       010BEMATECH    ON      NM   R$  000000000078800000000007920000000000776000000000078400000000007830000000000779000000000078300088000000000000027900000000000021874900000000000000009999123100000010000000000000BRBEMAACNOR0114
012013091996BEMA3F      020BEMATECH    ON      NM   R$  000000000079500000000007950000000000760000000000078800000000007600000000000711000000000084800003000000000000000136000000000000107175000000000000009999123100000010000000000000BRBEMAACNOR0114
012013091962BEMA3T      030BEMATECH    ON      NM090R$  000000000080400000000008050000000000804000000000080400000000008050000000000000000000000000000002000000000000000500000000000000402156000000000000009999123100000010000000000000BRBEMAACNOR0114
012013091902BHGR3       010BHG         ON      NM   R$  000000000145100000000014580000000001434000000000144400000000014560000000001440000000000145600214000000000000096300000000000139073000000000000000009999123100000010000000000000BRBHGRACNOR9101
012013091996BHGR3F      020BHG         ON      NM   R$  000000000157900000000015790000000001430000000000143400000000014300000000001430000000000157900002000000000000000030000000000000043049000000000000009999123100000010000000000000BRBHGRACNOR9101
012013091902BICB4       010BICBANCO    PN      N1   R$  000000000043900000000004420000000000432000000000043700000000004340000000000433000000000043400518000000000000089500000000000039167100000000000000009999123100000010000000000000BRBICBACNPR7131
012013091996BICB4F      020BICBANCO    PN      N1   R$  000000000044100000000004410000000000437000000000043800000000004390000000000436000000000049400003000000000000000011000000000000004823000000000000009999123100000010000000000000BRBICBACNPR7131
012013091996BIOM3F      020BIOMM       ON           R$  000000000088000000000008800000000000880000000000088000000000008800000000000900000000000094000002000000000000000200000000000000176000000000000000009999123100000010000000000000BRBIOMACNOR2101
012013091902BISA3       010BROOKFIELD  ON      NM   R$  000000000017900000000001810000000000173000000000017600000000001740000000000174000000000017504504000000000010791700000000001909402900000000000000009999123100000010000000000000BRBISAACNOR8109
012013091996BISA3F      020BROOKFIELD  ON      NM   R$  000000000018800000000001890000000000173000000000017700000000001740000000000170000000000018400030000000000000000874000000000000155522000000000000009999123100000010000000000000BRBISAACNOR8109
012013091962BISA3T      030BROOKFIELD  ON      NM018R$  000000000017900000000001800000000000179000000000017900000000001800000000000000000000000000000002000000000000005000000000000000899923000000000000009999123100000010000000000000BRBISAACNOR8109
012013091962BISA3T      030BROOKFIELD  ON      NM032R$  000000000018200000000001830000000000175000000000017900000000001770000000000000000000000000000016000000000000223000000000000040070449000000000000009999123100000010000000000000BRBISAACNOR8109
012013091962BISA3T      030BROOKFIELD  ON      NM060R$  000000000018100000000001830000000000176000000000017800000000001770000000000000000000000000000010000000000000077000000000000013758499000000000000009999123100000010000000000000BRBISAACNOR8109
012013091912BJRC11      010FII JS RECIMCI           R$  000000009000000000000900000000000090000000000009000000000000900000000000090000000000009190000002000000000000000072000000000006480000000000000000009999123100000010000000000000BRBJRCCTF007110
012013091902BMEB4       010MERC BRASIL PN           R$  000000000110000000000011000000000001100000000000110000000000011000000000001010000000000111500003000000000000002000000000000002200000000000000000009999123100000010000000000000BRBMEBACNPR5191
012013091902BMIN4       010MERC INVEST PN           R$  000000000002400000000000240000000000024000000000002400000000000240000000000023000000000002400002000000000000003000000000000000072000000000000000009999123100000010000000000000BRBMINACNPR1160
012013091912BMLC11B     010FII BMBRC LCCI      MB   R$  000000001139000000000114300000000011390000000001139000000000114300000000011350000000001143000002000000000000000420000000000004783960000000000000009999123100000010000000000000BRBMLCCTF004119
012013091902BMTO4       010BRASMOTOR   PN           R$  000000000008600000000000860000000000086000000000008600000000000860000000000085000000000008600002000000000000038000000000000003268000000000000000009999123100000010000000000000BRBMTOACNPR6065
012013091996BMTO4F      020BRASMOTOR   PN           R$  000000000008400000000000840000000000084000000000008400000000000840000000000083000000000008600003000000000000000279000000000000023436000000000000009999123100000010000000000000BRBMTOACNPR6065
012013091912BNFS11      010FII BANRISULCI           R$  000000000999500000000099950000000009995000000000999500000000099950000000009702000000000999500001000000000000000001000000000000009995000000000000009999123100000010000000000000BRBNFSCTF000112
012013091902BOAC34      010BANK AMERICADRN          R$  000000000323000000000032300000000003230000000000323000000000032300000000003185000000000324500001000000000000006000000000000019380000000000000000009999123100000010000000000000BRBOACBDR004112
012013091902BOBR4       010BOMBRIL     PN           R$  000000000066300000000006630000000000663000000000066300000000006630000000000621000000000066200001000000000000000100000000000000066300000000000000009999123100000010000000000000BRBOBRACNPR3127
012013091914BOVA11      010ISHARES BOVACI           R$  000000000546300000000054740000000005382000000000540600000000053850000000005385000000000539903384000000000001620610000000008762364460000000000000009999123100000010000000000000BRBOVACTF003101
012013091996BOVA11F     020ISHARES BOVACI           R$  000000000542300000000054490000000005423000000000542600000000054490000000005400000000000544900005000000000000000009000000000000048838000000000000009999123100000010000000000000BRBOVACTF003101
012013091912BPFF11      010FII ABSOLUTOCI           R$  000000000842500000000084250000000008202000000000824700000000082990000000008251000000000829900022000000000000003563000000000029386060000000000000009999123100000010000000000000BRBPFFCTF002105
012013091902BPHA3       010BR PHARMA   ON      NM   R$  000000000082000000000008290000000000795000000000081200000000008000000000000800000000000080503144000000000001403900000000001140934000000000000000009999123100000010000000000000BRBPHAACNOR6102
012013091996BPHA3F      020BR PHARMA   ON      NM   R$  000000000082500000000008250000000000800000000000080600000000008030000000000804000000000081900013000000000000000374000000000000301509000000000000009999123100000010000000000000BRBPHAACNOR6102
012013091962BPHA3T      030BR PHARMA   ON      NM090R$  000000000084100000000008420000000000841000000000084100000000008420000000000000000000000000000002000000000000006100000000000005135767000000000000009999123100000010000000000000BRBPHAACNOR6102
012013091902BPNM4       010PANAMERICANOPN      N1   R$  000000000052900000000005310000000000522000000000052700000000005270000000000527000000000053100200000000000000174200000000000091892800000000000000009999123100000010000000000000BRBPNMACNPR6111
012013091902BRAP3       010BRADESPAR   ON      N1   R$  000000000214200000000021420000000002050000000000208200000000020750000000002064000000000214900040000000000000006400000000000013326100000000000000009999123100000010000000000000BRBRAPACNOR5124
012013091962BRAP3T      030BRADESPAR   ON      N1032R$  000000000208500000000020860000000002085000000000208500000000020860000000000000000000000000000002000000000000000400000000000000834241000000000000009999123100000010000000000000BRBRAPACNOR5124
012013091902BRAP4       010BRADESPAR   PN      N1   R$  000000000260100000000026110000000002514000000000254700000000025500000000002550000000000255107081000000000001545300000000003935922900000000000000009999123100000010000000000000BRBRAPACNPR2124
012013091996BRAP4F      020BRADESPAR   PN      N1   R$  000000000259500000000026060000000002525000000000255900000000025300000000002500000000000253000047000000000000001252000000000003203104000000000000009999123100000010000000000000BRBRAPACNPR2124
012013091962BRAP4T      030BRADESPAR   PN      N1035R$  000000000255600000000025570000000002556000000000255600000000025570000000000000000000000000000004000000000000001500000000000003834060000000000000009999123100000010000000000000BRBRAPACNPR2124
012013091914BRAX11      010ISHARES BRAXCI           R$  000000000431700000000043350000000004307000000000432400000000043070000000004300000000000000000009000000000000012010000000000051943070000000000000009999123100000010000000000000BRBRAXCTF002100
012013091912BRCR11      010FII BC FUND CI           R$  000000001267000000000129500000000012600000000001275200000000128470000000012810000000001284701365000000000000093909000000001197563549000000000000009999123100000010000000000000BRBRCRCTF000133
012013091902BRFS3       010BRF SA      ON      NM   R$  000000000578000000000058120000000005644000000000573600000000057750000000005774000000000577507337000000000002261200000000012970762600000000000000009999123100000010000000000000BRBRFSACNOR8110
012013091996BRFS3F      020BRF SA      ON      NM   R$  000000000579500000000058040000000005652000000000573200000000057800000000005662000000000578000083000000000000002561000000000014687913000000000000009999123100000010000000000000BRBRFSACNOR8110
012013091962BRFS3T      030BRF SA      ON      NM032R$  000000000582800000000058290000000005695000000000571700000000056960000000000000000000000000000004000000000000001200000000000006861449000000000000009999123100000010000000000000BRBRFSACNOR8110
012013091962BRFS3T      030BRF SA      ON      NM060R$  000000000576000000000057610000000005760000000000576000000000057610000000000000000000000000000002000000000000001000000000000005760610000000000000009999123100000010000000000000BRBRFSACNOR8110
012013091962BRFS3T      030BRF SA      ON      NM090R$  000000000589900000000059000000000005899000000000589900000000059000000000000000000000000000000002000000000000003000000000000017698938000000000000009999123100000010000000000000BRBRFSACNOR8110
012013091902BRGE12      010ALFA CONSORCPNF          R$  000000000033900000000003390000000000339000000000033900000000003390000000000339000000000049900002000000000000000600000000000000203400000000000000009999123100000010000000000000BRBRGEACNPF8091
012013091902BRGE3       010ALFA CONSORCON           R$  000000000037500000000003750000000000375000000000037500000000003750000000000375000000000050000002000000000000000700000000000000262500000000000000009999123100000010000000000000BRBRGEACNOR6197
012013091902BRIN3       010BR INSURANCEON      NM   R$  000000000204000000000021190000000002021000000000207000000000020940000000002093000000000209400527000000000000378400000000000783514900000000000000009999123100000010000000000000BRBRINACNOR3106
012013091996BRIN3F      020BR INSURANCEON      NM   R$  000000000200000000000020780000000002000000000000205700000000020600000000001960000000000209500008000000000000000060000000000000123445000000000000009999123100000010000000000000BRBRINACNOR3106
012013091962BRIN3T      030BR INSURANCEON      NM032R$  000000000208500000000020860000000002054000000000207000000000020550000000000000000000000000000004000000000000000400000000000000828064000000000000009999123100000010000000000000BRBRINACNOR3106
012013091902BRKM3       010BRASKEM     ON      N1   R$  000000000124400000000012440000000001239000000000124300000000012390000000001225000000000124400004000000000000007400000000000009203600000000000000009999123100000010000000000000BRBRKMACNOR1110
012013091996BRKM3F      020BRASKEM     ON      N1   R$  000000000122000000000012200000000001220000000000122000000000012200000000001200000000000122000001000000000000000030000000000000036600000000000000009999123100000010000000000000BRBRKMACNOR1110
012013091962BRKM3T      030BRASKEM     ON      N1180R$  000000000130400000000013050000000001304000000000130400000000013050000000000000000000000000000002000000000000007000000000000009128596000000000000009999123100000010000000000000BRBRKMACNOR1110
012013091902BRKM5       010BRASKEM     PNA     N1   R$  000000000185100000000018600000000001778000000000180900000000018020000000001790000000000180207429000000000002357700000000004266332000000000000000009999123100000010000000000000BRBRKMACNPA4110
012013091996BRKM5F      020BRASKEM     PNA     N1   R$  000000000188700000000018870000000001760000000000180700000000017600000000001760000000000179600046000000000000001321000000000002386461000000000000009999123100000010000000000000BRBRKMACNPA4110
012013091962BRKM5T      030BRASKEM     PNA     N1032R$  000000000179800000000017990000000001798000000000179800000000017990000000000000000000000000000002000000000000000300000000000000539658000000000000009999123100000010000000000000BRBRKMACNPA4110
012013091902BRML3       010BR MALLS PARON      NM   R$  000000000219000000000022270000000002180000000000220300000000021800000000002180000000000218112856000000000005553600000000012239659000000000000000009999123100000010000000000000BRBRMLACNOR9105
012013091996BRML3F      020BR MALLS PARON      NM   R$  000000000218000000000022220000000002180000000000220100000000021860000000002100000000000217500139000000000000004565000000000009991922000000000000009999123100000010000000000000BRBRMLACNOR9105
012013091978BRMLJ54     070BRML        ON      NM000R$  000000000001100000000000110000000000011000000000001100000000000110000000000000000000000000000002000000000000000800000000000000008800000000000245002013102100000010000000000000BRBRMLACNOR9105
012013091902BRPR3       010BR PROPERT  ON      NM   R$  000000000200500000000020970000000002005000000000204600000000020620000000002048000000000206209153000000000003271800000000006696737500000000000000009999123100000010000000000000BRBRPRACNOR9112
012013091996BRPR3F      020BR PROPERT  ON      NM   R$  000000000199900000000021000000000001999000000000204400000000020430000000002043000000000209900056000000000000001518000000000003103402000000000000009999123100000010000000000000BRBRPRACNOR9112
012013091962BRPR3T      030BR PROPERT  ON      NM032R$  000000000204100000000020420000000002041000000000204100000000020420000000000000000000000000000002000000000000000700000000000001428974000000000000009999123100000010000000000000BRBRPRACNOR9112
012013091902BRSR6       010BANRISUL    PNB     N1   R$  000000000159400000000015940000000001551000000000156800000000015800000000001575000000000158202631000000000001156200000000001813343600000000000000009999123100000010000000000000BRBRSRACNPB4134
012013091996BRSR6F      020BANRISUL    PNB     N1   R$  000000000159000000000015910000000001542000000000156800000000015650000000001546000000000159200058000000000000001587000000000002490125000000000000009999123100000010000000000000BRBRSRACNPB4134
012013091902BSEV3       010BIOSEV      ON      NM   R$  000000000088000000000008890000000000878000000000088800000000008780000000000878000000000091000003000000000000002200000000000001953800000000000000009999123100000010000000000000BRBSEVACNOR3100
012013091902BTOW3       010B2W DIGITAL ON      NM   R$  000000000160000000000016180000000001577000000000159000000000015770000000001577000000000158701449000000000000320000000000000509063600000000000000009999123100000010000000000000BRBTOWACNOR8105
012013091996BTOW3F      020B2W DIGITAL ON      NM   R$  000000000157200000000016140000000001571000000000159100000000015750000000001588000000000159000023000000000000000343000000000000545314000000000000009999123100000010000000000000BRBTOWACNOR8105
012013091902BTTL3       010BATTISTELLA ON           R$  000000000009000000000000900000000000090000000000009000000000000900000000000085000000000009400001000000000000100000000000000009000000000000000000009999123100000010000000000000BRBTTLACNOR0105
012013091902BTTL4       010BATTISTELLA PN           R$  000000000010100000000001010000000000101000000000010100000000001010000000000099000000000010100001000000000000000100000000000000010100000000000000009999123100000010000000000000BRBTTLACNPR7105
012013091902BVMF3       010BMFBOVESPA  ON      NM   R$  000000000132600000000013320000000001286000000000130700000000012990000000001298000000000129918060000000000015333300000000020054158800000000000000009999123100000010000000000000BRBVMFACNOR3126
012013091996BVMF3F      020BMFBOVESPA  ON      NM   R$  000000000133000000000013300000000001280000000000131000000000012800000000001280000000000132200119000000000000004409000000000005778260000000000000009999123100000010000000000000BRBVMFACNOR3126
012013091962BVMF3T      030BMFBOVESPA  ON      NM032R$  000000000133300000000013340000000001297000000000131100000000013090000000000000000000000000000006000000000000066000000000000086541576000000000000009999123100000010000000000000BRBVMFACNOR3126
012013091978BVMFJ12     070BVMF        ON      NM000R$  000000000015900000000001590000000000120000000000013800000000001200000000000116000000000012000042000000000000048100000000000006648400000000000118502013102100000010000000000000BRBVMFACNOR3125
012013091978BVMFJ13     070BVMF  FM    ON      NM000R$  000000000007500000000000750000000000048000000000006100000000000510000000000051000000000005300160000000000000329900000000000020145900000000000128502013102100000010000000000000BRBVMFACNOR3125
012013091978BVMFJ14     070BVMF  FM    ON      NM000R$  000000000002000000000000400000000000011000000000001500000000000110000000000011000000000001300231000000000000425800000000000006467400000000000138502013102100000010000000000000BRBVMFACNOR3125
012013091978BVMFJ15     070BVMF        ON      NM000R$  000000000000400000000000040000000000003000000000000300000000000030000000000002000000000000300015000000000000022000000000000000067000000000000148502013102100000010000000000000BRBVMFACNOR3125
012013091978BVMFJ42     070BVMF  FM    ON      NM000R$  000000000010500000000001110000000000082000000000009500000000000890000000000000000000000123500012000000000000032500000000000003090200000000000123502013102100000010000000000000BRBVMFACNOR3125
012013091978BVMFJ43     070BVMF  FM    ON      NM000R$  000000000004400000000000440000000000026000000000003300000000000270000000000023000000000003800131000000000000130000000000000004406500000000000133502013102100000010000000000000BRBVMFACNOR3125
012013091978BVMFJ44     070BVMF  FM    ON      NM000R$  000000000000400000000000040000000000004000000000000400000000000040000000000001000000000000000021000000000000050000000000000000200000000000000145002013102100000010000000000000BRBVMFACNOR3126
012013091978BVMFK12     070BVMF        ON      NM000R$  000000000015700000000001600000000000157000000000015900000000001600000000000000000000000000000002000000000000001500000000000000238500000000000118502013111800000010000000000000BRBVMFACNOR3125
012013091978BVMFK13     070BVMF  FM    ON      NM000R$  000000000008500000000000880000000000065000000000008000000000000650000000000000000000000011000118000000000000195600000000000015780400000000000128502013111800000010000000000000BRBVMFACNOR3125
012013091978BVMFK14     070BVMF  FM    ON      NM000R$  000000000003800000000000380000000000020000000000002600000000000200000000000010000000000003500159000000000000221800000000000005946000000000000138502013111800000010000000000000BRBVMFACNOR3125
012013091978BVMFK15     070BVMF        ON      NM000R$  000000000000900000000000090000000000009000000000000900000000000090000000000000000000000000000001000000000000001000000000000000009000000000000148502013111800000010000000000000BRBVMFACNOR3125
012013091978BVMFK42     070BVMF  FM    ON      NM000R$  000000000011000000000001150000000000088000000000010200000000000880000000000000000000000000000039000000000000079300000000000008110100000000000125002013111800000010000000000000BRBVMFACNOR3126
012013091978BVMFK43     070BVMF  FM    ON      NM000R$  000000000004600000000000500000000000033000000000004100000000000330000000000000000000000000000021000000000000049800000000000002047000000000000135002013111800000010000000000000BRBVMFACNOR3126
012013091978BVMFK44     070BVMF  FM    ON      NM000R$  000000000001400000000000140000000000008000000000001100000000000080000000000000000000000000000037000000000000093900000000000001036500000000000145002013111800000010000000000000BRBVMFACNOR3126
012013091978BVMFK54     070BVMFE       ON      NM000R$  000000000001500000000000150000000000015000000000001500000000000150000000000000000000000000000001000000000000005000000000000000075000000000000142502013111800000010000000000000BRBVMFACNOR3126
012013091982BVMFQ73     080BVMFE       ON      NM000R$  000000000006700000000000670000000000065000000000006600000000000660000000000000000000000000000003000000000004600000000000000305800000000000000127402014051900000010000000000000BRBVMFACNOR3124
012013091982BVMFR63     080BVMFE       ON      NM000R$  000000000007400000000000750000000000073000000000007300000000000740000000000000000000000000000004000000000007600000000000000560200000000000000128502014061600000010000000000000BRBVMFACNOR3125
012013091982BVMFT3      080BVMFE       ON      NM000R$  000000000007900000000000790000000000079000000000007900000000000790000000000000000000000000000001000000000002600000000000000205400000000000000128502014081800000010000000000000BRBVMFACNOR3125
012013091982BVMFV12     080BVMFE FM    ON      NM000R$  000000000001000000000000110000000000008000000000000900000000000110000000000008000000000001200059000000000000142400000000000001357500000000000118502013102100000010000000000000BRBVMFACNOR3125
012013091982BVMFV13     080BVMFE FM    ON      NM000R$  000000000002800000000000390000000000025000000000002700000000000390000000000030000000000004000041000000000000097800000000000002713100000000000128502013102100000010000000000000BRBVMFACNOR3125
012013091982BVMFV14     080BVMFE       ON      NM000R$  000000000008000000000000800000000000080000000000008000000000000800000000000000000000000019700001000000000000000500000000000000040000000000000138502013102100000010000000000000BRBVMFACNOR3125
012013091982BVMFV41     080BVMFE       ON      NM000R$  000000000000600000000000060000000000006000000000000600000000000060000000000000000000000001000003000000000000005000000000000000030000000000000113502013102100000010000000000000BRBVMFACNOR3125
012013091982BVMFV42     080BVMFE FM    ON      NM000R$  000000000001400000000000210000000000014000000000001600000000000210000000000015000000000002200025000000000000062600000000000001049400000000000123502013102100000010000000000000BRBVMFACNOR3125
012013091982BVMFV43     080BVMFE FM    ON      NM000R$  000000000004600000000000650000000000042000000000005500000000000650000000000000000000000007000055000000000000127700000000000007038200000000000133502013102100000010000000000000BRBVMFACNOR3125
012013091982BVMFW12     080BVMFE FM    ON      NM000R$  000000000001600000000000220000000000016000000000001600000000000220000000000000000000000000000003000000000000003200000000000000052300000000000118502013111800000010000000000000BRBVMFACNOR3125
012013091982BVMFW13     080BVMFE FM    ON      NM000R$  000000000003700000000000500000000000037000000000004900000000000500000000000000000000000012200020000000000000525000000000000026025000000000000128502013111800000010000000000000BRBVMFACNOR3125
012013091982BVMFW14     080BVMFE       ON      NM000R$  000000000009200000000000920000000000079000000000008500000000000790000000000000000000000000000002000000000000001800000000000000153900000000000138502013111800000010000000000000BRBVMFACNOR3125
012013091982BVMFW42     080BVMFE FM    ON      NM000R$  000000000002800000000000370000000000028000000000003500000000000370000000000000000000000003800020000000000000031800000000000001139200000000000125002013111800000010000000000000BRBVMFACNOR3126
012013091982BVMFW43     080BVMFE FM    ON      NM000R$  000000000006400000000000800000000000061000000000007000000000000780000000000000000000000000000023000000000000033000000000000002312500000000000135002013111800000010000000000000BRBVMFACNOR3126
012013091902CAMB4       010CAMBUCI     PN           R$  000000000018700000000001870000000000187000000000018700000000001870000000000187000000000019600003000000000000003100000000000000579700000000000000009999123100000010000000000000BRCAMBACNPR1117
012013091996CAMB4F      020CAMBUCI     PN           R$  000000000018000000000001800000000000170000000000017400000000001700000000000110000000000025000004000000000000000004000000000000000696000000000000009999123100000010000000000000BRCAMBACNPR1117
012013091902CARD3       010CSU CARDSYSTON      NM   R$  000000000032300000000003230000000000313000000000031500000000003130000000000312000000000032000008000000000000002900000000000000914700000000000000009999123100000010000000000000BRCARDACNOR9105
012013091996CARD3F      020CSU CARDSYSTON      NM   R$  000000000032300000000003230000000000323000000000032300000000003230000000000305000000000032300001000000000000000010000000000000003230000000000000009999123100000010000000000000BRCARDACNOR9105
012013091902CBEE3       010AMPLA ENERG ON *         R$  000000000013000000000001300000000000130000000000013000000000001300000000000126000000000013000001000000000001000000000000000000130000000000000000009999123100010000000000000000BRCBEEACNOR3149
012013091902CBMA3       010COBRASMA    ON           R$  000000000000400000000000040000000000004000000000000400000000000040000000000004000000000000600001000000000000010000000000000000040000000000000000009999123100000010000000000000BRCBMAACNOR4124
012013091902CBMA4       010COBRASMA    PN           R$  000000000000400000000000040000000000004000000000000400000000000040000000000004000000000000500001000000000000010000000000000000040000000000000000009999123100000010000000000000BRCBMAACNPR1124
012013091996CBMA4F      020COBRASMA    PN           R$  000000000000400000000000040000000000004000000000000400000000000040000000000003000000000000400001000000000000000001000000000000000004000000000000009999123100000010000000000000BRCBMAACNPR1124
012013091908CCHI3       010CHIARELLI   ON           R$  000000000001700000000000170000000000016000000000001600000000000160000000000015000000000001700038000000000000540000000000000008750000000000000000009999123100000010000000000000BRCCHIACNOR5123
012013091996CCHI3F      020CHIARELLI   ON           R$  000000000001600000000000160000000000016000000000001600000000000160000000000016000000000001700002000000000000001000000000000000016000000000000000009999123100000010000000000000BRCCHIACNOR5123
012013091908CCHI4       010CHIARELLI   PN           R$  000000000001200000000000120000000000012000000000001200000000000120000000000011000000000001500002000000000000020000000000000000240000000000000000009999123100000010000000000000BRCCHIACNPR2122
012013091902CCPR3       010CYRE COM-CCPON      NM   R$  000000000210200000000021020000000002102000000000210200000000021020000000002102000000000213400001000000000000000100000000000000210200000000000000009999123100000010000000000000BRCCPRACNOR9107
012013091902CCRO3       010CCR SA      ON      NM   R$  000000000185300000000018900000000001853000000000187300000000018890000000001880000000000188914377000000000005772800000000010815252600000000000000009999123100000010000000000000BRCCROACNOR2122
012013091996CCRO3F      020CCR SA      ON      NM   R$  000000000185000000000018880000000001850000000000187200000000018790000000001837000000000187900065000000000000002080000000000003895683000000000000009999123100000010000000000000BRCCROACNOR2122
012013091962CCRO3T      030CCR SA      ON      NM018R$  000000000188000000000018850000000001877000000000188000000000018820000000000000000000000000000010000000000000019000000000000035720140000000000000009999123100000010000000000000BRCCROACNOR2122
012013091962CCRO3T      030CCR SA      ON      NM032R$  000000000188500000000018860000000001882000000000188300000000018830000000000000000000000000000004000000000000002900000000000005460947000000000000009999123100000010000000000000BRCCROACNOR2122
012013091978CCROJ19     070CCRO        ON      NM000R$  000000000004200000000000420000000000031000000000004000000000000310000000000000000000000000000003000000000000088800000000000003632800000000000190002013102100000010000000000000BRCCROACNOR2122
012013091978CCROK47     070CCRO        ON      NM000R$  000000000015800000000001580000000000158000000000015800000000001580000000000000000000000000000001000000000000115800000000000018296400000000000175002013111800000010000000000000BRCCROACNOR2122
012013091902CCXC3       010CCX CARVAO  ON      NM   R$  000000000015200000000001580000000000148000000000015300000000001550000000000153000000000015501202000000000005019900000000000769671200000000000000009999123100000010000000000000BRCCXCACNOR5100
012013091996CCXC3F      020CCX CARVAO  ON      NM   R$  000000000015100000000001560000000000150000000000015300000000001510000000000151000000000015600010000000000000000364000000000000055756000000000000009999123100000010000000000000BRCCXCACNOR5100
012013091902CEBR6       010CEB         PNB          R$  000000000160000000000016000000000001600000000000160000000000016000000000001410000000000155000003000000000000014500000000000023200000000000000000009999123100000010000000000000BRCEBRACNPB6113
012013091902CEEB3       010COELBA      ON           R$  000000000340000000000034000000000003400000000000340000000000034000000000003001000000000350000001000000000000000600000000000002040000000000000000009999123100000010000000000000BRCEEBACNOR3163
012013091912CEOC11B     010FII CEO CCP CI      MB   R$  000000000845000000000084800000000008305000000000841400000000084800000000008470000000000849000047000000000000003356000000000028240351000000000000009999123100000010000000000000BRCEOCCTF003110
012013091902CESP3       010CESP        ON      N1   R$  000000000176400000000017640000000001764000000000176400000000017640000000001714000000000176000001000000000000000100000000000000176400000000000000009999123100000010000000000000BRCESPACNOR3160
012013091902CESP6       010CESP        PNB     N1   R$  000000000238500000000023850000000002335000000000235600000000023630000000002345000000000236301808000000000000359200000000000846258300000000000000009999123100000010000000000000BRCESPACNPB4119
012013091996CESP6F      020CESP        PNB     N1   R$  000000000237500000000024180000000002333000000000236800000000023330000000002322000000000241500013000000000000000472000000000001117726000000000000009999123100000010000000000000BRCESPACNPB4119
012013091902CGAS5       010COMGAS      PNA          R$  000000000589200000000059370000000005771000000000585700000000059000000000005900000000000590900178000000000000028400000000000166343300000000000000009999123100000010000000000000BRCGASACNPA3129
012013091996CGAS5F      020COMGAS      PNA          R$  000000000595000000000059500000000005850000000000585800000000058500000000005840000000000610000005000000000000000102000000000000597610000000000000009999123100000010000000000000BRCGASACNPA3129
012013091902CGRA3       010GRAZZIOTIN  ON           R$  000000000162000000000016300000000001620000000000162300000000016300000000001615000000000164000004000000000000000700000000000001136500000000000000009999123100000010000000000000BRCGRAACNOR2061
012013091902CGRA4       010GRAZZIOTIN  PN           R$  000000000177500000000017750000000001775000000000177500000000017750000000001770000000000179800005000000000000001400000000000002485000000000000000009999123100000010000000000000BRCGRAACNPR9061
012013091996CGRA4F      020GRAZZIOTIN  PN           R$  000000000177500000000017750000000001775000000000177500000000017750000000001607000000000177500002000000000000000043000000000000076325000000000000009999123100000010000000000000BRCGRAACNPR9061
012013091902CIEL3       010CIELO       ON  EDJ NM   R$  000000000587500000000059340000000005794000000000585700000000058700000000005855000000000587004368000000000001099500000000006440422100000000000000009999123100000010000000000000BRCIELACNOR3112
012013091996CIEL3F      020CIELO       ON  EDJ NM   R$  000000000585100000000059330000000005804000000000585500000000058300000000005830000000000590000102000000000000002890000000000016922225000000000000009999123100000010000000000000BRCIELACNOR3112
012013091962CIEL3T      030CIELO       ON  EDJ NM032R$  000000000587500000000058760000000005875000000000587500000000058760000000000000000000000000000002000000000000100000000000000587576550000000000000009999123100000010000000000000BRCIELACNOR3112
012013091962CIEL3T      030CIELO       ON  EDJ NM064R$  000000000591700000000059180000000005917000000000591700000000059180000000000000000000000000000002000000000000000400000000000002366814000000000000009999123100000010000000000000BRCIELACNOR3112
012013091978CIELJ63     070CIEL    /EDJON      NM000R$  000000000000900000000000090000000000009000000000000900000000000090000000000000000000000000000001000000000000000100000000000000000900000000000630002013102100000010000000000000BRCIELACNOR3112
012013091902CLSC4       010CELESC      PN      N2   R$  000000000180500000000018100000000001770000000000178900000000017700000000001750000000000179500041000000000000013100000000000023440700000000000000009999123100000010000000000000BRCLSCACNPR3107
012013091958CMGR3       010CEMAT       ON           R$  000000000049000000000004900000000000490000000000049000000000004900000000000440000000000049000001000000000000000100000000000000049000000000000000009999123100000010000000000000BRCMGRACNOR7114
012013091902CMIG3       010CEMIG       ON      N1   R$  000000000184500000000018600000000001838000000000184900000000018450000000001845000000000185000406000000000000238500000000000441198500000000000000009999123100000010000000000000BRCMIGACNOR6208
012013091996CMIG3F      020CEMIG       ON      N1   R$  000000000186000000000018940000000001840000000000185100000000018460000000001847000000000190000033000000000000000730000000000001351348000000000000009999123100000010000000000000BRCMIGACNOR6208
012013091902CMIG4       010CEMIG       PN      N1   R$  000000000184600000000018780000000001842000000000185900000000018600000000001859000000000186009691000000000003695700000000006871347000000000000000009999123100000010000000000000BRCMIGACNPR3208
012013091996CMIG4F      020CEMIG       PN      N1   R$  000000000185700000000018780000000001844000000000186000000000018460000000001846000000000187700151000000000000004690000000000008725228000000000000009999123100000010000000000000BRCMIGACNPR3208
012013091962CMIG4T      030CEMIG       PN      N1018R$  000000000186900000000018760000000001869000000000187300000000018760000000000000000000000000000004000000000000003100000000000005809096000000000000009999123100000010000000000000BRCMIGACNPR3208
012013091962CMIG4T      030CEMIG       PN      N1030R$  000000000188300000000018840000000001883000000000188300000000018840000000000000000000000000000002000000000000001000000000000001883464000000000000009999123100000010000000000000BRCMIGACNPR3208
012013091962CMIG4T      030CEMIG       PN      N1032R$  000000000187500000000018760000000001875000000000187500000000018760000000000000000000000000000002000000000000000100000000000000187541000000000000009999123100000010000000000000BRCMIGACNPR3208
012013091962CMIG4T      030CEMIG       PN      N1046R$  000000000189000000000018950000000001890000000000189100000000018950000000000000000000000000000004000000000000030000000000000056741744000000000000009999123100000010000000000000BRCMIGACNPR3208
012013091962CMIG4T      030CEMIG       PN      N1060R$  000000000188700000000018920000000001883000000000188600000000018840000000000000000000000000000028000000000000015000000000000028297749000000000000009999123100000010000000000000BRCMIGACNPR3208
012013091962CMIG4T      030CEMIG       PN      N1090R$  000000000189600000000018970000000001896000000000189600000000018970000000000000000000000000000004000000000000010000000000000018966420000000000000009999123100000010000000000000BRCMIGACNPR3208
012013091962CMIG4T      030CEMIG       PN      N1120R$  000000000192600000000019270000000001926000000000192600000000019270000000000000000000000000000002000000000000000700000000000001348594000000000000009999123100000010000000000000BRCMIGACNPR3208
012013091978CMIGJ18     070CMIG        PN      N1000R$  000000000010000000000001000000000000096000000000009700000000000960000000000000000000000000000002000000000000000800000000000000078000000000000180002013102100000010000000000000BRCMIGACNPR3208
012013091978CMIGJ19     070CMIG        PN      N1000R$  000000000004600000000000460000000000046000000000004600000000000460000000000012000000000005000001000000000000000300000000000000013800000000000190002013102100000010000000000000BRCMIGACNPR3208
012013091912CNES11B     010FII CENESP  CI      MB   R$  000000001249400000000124940000000012400000000001247200000000124000000000012460000000001249400002000000000000000155000000000001933280000000000000009999123100000010000000000000BRCNESCTF001125
012013091902COCE3       010COELCE      ON           R$  000000000408000000000041980000000004080000000000410700000000041260000000004100000000000417800016000000000000002800000000000011500700000000000000009999123100000010000000000000BRCOCEACNOR0132
012013091902COCE5       010COELCE      PNA          R$  000000000403000000000040300000000003913000000000393300000000039130000000003911000000000394000148000000000000098900000000000389060100000000000000009999123100000010000000000000BRCOCEACNPA3133
012013091996COCE5F      020COELCE      PNA          R$  000000000398000000000040400000000003926000000000397300000000039300000000003920000000000408900034000000000000000469000000000001863477000000000000009999123100000010000000000000BRCOCEACNPA3133
012013091902CPFE3       010CPFL ENERGIAON      NM   R$  000000000199300000000019930000000001950000000000196200000000019610000000001961000000000196703260000000000000672400000000001319667000000000000000009999123100000010000000000000BRCPFEACNOR0122
012013091996CPFE3F      020CPFL ENERGIAON      NM   R$  000000000198000000000019800000000001950000000000196700000000019790000000001946000000000197900027000000000000000470000000000000925994000000000000009999123100000010000000000000BRCPFEACNOR0122
012013091902CPLE3       010COPEL       ON      N1   R$  000000000216300000000022140000000002119000000000214800000000021500000000002141000000000215000187000000000000088600000000000190393300000000000000009999123100000010000000000000BRCPLEACNOR8128
012013091996CPLE3F      020COPEL       ON      N1   R$  000000000223000000000022300000000002230000000000223000000000022300000000002165000000000223000001000000000000000025000000000000055750000000000000009999123100000010000000000000BRCPLEACNOR8128
012013091962CPLE3T      030COPEL       ON      N1090R$  000000000220300000000022040000000002203000000000220300000000022040000000000000000000000000000002000000000000004200000000000009253660000000000000009999123100000010000000000000BRCPLEACNOR8128
012013091902CPLE6       010COPEL       PNB     N1   R$  000000000310400000000031270000000003010000000000304200000000030350000000003026000000000303602182000000000000445100000000001354262400000000000000009999123100000010000000000000BRCPLEACNPB9125
012013091996CPLE6F      020COPEL       PNB     N1   R$  000000000305100000000030800000000003015000000000305400000000030780000000003000000000000307900015000000000000000540000000000001649560000000000000009999123100000010000000000000BRCPLEACNPB9125
012013091902CPRE3       010CPFL RENOVAVON      NM   R$  000000000123600000000012410000000001220000000000123200000000012350000000001220000000000124000017000000000000005500000000000006777800000000000000009999123100000010000000000000BRCPREACNOR5100
012013091996CPRE3F      020CPFL RENOVAVON      NM   R$  000000000110800000000012350000000001108000000000111100000000012350000000001110000000000123500004000000000000000101000000000000112289000000000000009999123100000010000000000000BRCPREACNOR5100
012013091902CRDE3       010CR2         ON      NM   R$  000000000041300000000004160000000000410000000000041500000000004100000000000410000000000042000007000000000000011700000000000004857300000000000000009999123100000010000000000000BRCRDEACNOR1108
012013091902CREM3       010CREMER      ON      NM   R$  000000000143100000000014740000000001431000000000147000000000014730000000001472000000000147300047000000000000061000000000000089675800000000000000009999123100000010000000000000BRCREMACNOR2167
012013091996CREM3F      020CREMER      ON      NM   R$  000000000140100000000014760000000001401000000000142300000000014760000000001412000000000147600004000000000000000102000000000000145152000000000000009999123100000010000000000000BRCREMACNOR2167
012013091902CRIV4       010ALFA FINANC PN           R$  000000000044100000000004520000000000440000000000044000000000004400000000000440000000000044500013000000000000005500000000000002425000000000000000009999123100000010000000000000BRCRIVACNPR1190
012013091996CRIV4F      020ALFA FINANC PN           R$  000000000043500000000004350000000000435000000000043500000000004350000000000400000000000050000003000000000000000050000000000000021750000000000000009999123100000010000000000000BRCRIVACNPR1190
012013091902CRUZ3       010SOUZA CRUZ  ON           R$  000000000278500000000028280000000002772000000000279500000000028190000000002803000000000281904571000000000001964300000000005491001000000000000000009999123100000010000000000000BRCRUZACNOR0246
012013091996CRUZ3F      020SOUZA CRUZ  ON           R$  000000000278500000000028270000000002776000000000280100000000028070000000002775000000000282700043000000000000001452000000000004068317000000000000009999123100000010000000000000BRCRUZACNOR0246
012013091982CRUZV30     080CRUZE       ON        000R$  000000000021500000000002150000000000215000000000021500000000002150000000000000000000000000000001000000000000001400000000000000301000000000000300002013102100000010000000000000BRCRUZACNOR0246
012013091902CSAN3       010COSAN       ON      NM   R$  000000000433100000000043350000000004185000000000424000000000041900000000004188000000000419005587000000000001764100000000007480456200000000000000009999123100000010000000000000BRCSANACNOR6108
012013091996CSAN3F      020COSAN       ON      NM   R$  000000000427900000000043390000000004150000000000426600000000041500000000004151000000000431500044000000000000001335000000000005691782000000000000009999123100000010000000000000BRCSANACNOR6108
012013091962CSAN3T      030COSAN       ON      NM046R$  000000000425500000000042560000000004255000000000425500000000042560000000000000000000000000000002000000000000002000000000000008510431000000000000009999123100000010000000000000BRCSANACNOR6108
012013091962CSAN3T      030COSAN       ON      NM090R$  000000000441400000000044150000000004401000000000441000000000044060000000000000000000000000000026000000000000143700000000000633719302000000000000009999123100000010000000000000BRCSANACNOR6108
012013091978CSANJ45     070CSAN        ON      NM000R$  000000000003800000000000380000000000038000000000003800000000000380000000000000000000000000000001000000000000003000000000000000114000000000000450002013102100000010000000000000BRCSANACNOR6108
012013091902CSMG3       010COPASA      ON      NM   R$  000000000343000000000034540000000003371000000000341800000000034120000000003412000000000342501258000000000000195600000000000668607200000000000000009999123100000010000000000000BRCSMGACNOR5127
012013091996CSMG3F      020COPASA      ON      NM   R$  000000000340000000000034920000000003376000000000341700000000034000000000003423000000000343500017000000000000000284000000000000970647000000000000009999123100000010000000000000BRCSMGACNOR5127
012013091914CSMO11      010ISHARES CSMOCI           R$  000000000489000000000049120000000004854000000000489700000000048540000000004673000000000610000010000000000000002200000000000010774010000000000000009999123100000010000000000000BRCSMOCTF002100
012013091902CSNA3       010SID NACIONALON           R$  000000000095500000000009550000000000935000000000094300000000009440000000000941000000000094411233000000000005848900000000005515754900000000000000009999123100000010000000000000BRCSNAACNOR6243
012013091996CSNA3F      020SID NACIONALON           R$  000000000095000000000009530000000000936000000000094200000000009460000000000940000000000095000049000000000000001200000000000001130615000000000000009999123100000010000000000000BRCSNAACNOR6243
012013091962CSNA3T      030SID NACIONALON        032R$  000000000094700000000009480000000000946000000000094600000000009470000000000000000000000000000004000000000000002200000000000002082903000000000000009999123100000010000000000000BRCSNAACNOR6243
012013091962CSNA3T      030SID NACIONALON        090R$  000000000096200000000009630000000000962000000000096200000000009630000000000000000000000000000002000000000000000300000000000000288784000000000000009999123100000010000000000000BRCSNAACNOR6243
012013091978CSNAA40     070CSNA        ON        000R$  000000000006600000000000660000000000066000000000006600000000000660000000000000000000000000000001000000000000001000000000000000066000000000000103002014012000000010000000000000BRCSNAACNOR6242
012013091978CSNAJ10     070CSNA  FM    ON        000R$  000000000002800000000000310000000000024000000000002800000000000240000000000020000000000003500014000000000000032000000000000000920400000000000100002013102100000010000000000000BRCSNAACNOR6243
012013091978CSNAJ60     070CSNA        ON        000R$  000000000001000000000000110000000000010000000000001000000000000110000000000000000000000001900004000000000000005700000000000000057500000000000106002013102100000010000000000000BRCSNAACNOR6243
012013091978CSNAJ8      070CSNA        ON        000R$  000000000017700000000001770000000000177000000000017700000000001770000000000165000000000019500001000000000000001000000000000000177000000000000078002013102100000010000000000000BRCSNAACNOR6242
012013091978CSNAJ92     070CSNA  FM    ON        000R$  000000000006800000000000680000000000064000000000006500000000000640000000000000000000000000000027000000000000023000000000000001511400000000000092002013102100000010000000000000BRCSNAACNOR6243
012013091978CSNAJ94     070CSNA  FM    ON        000R$  000000000005600000000000570000000000053000000000005300000000000530000000000000000000000005400024000000000000048600000000000002607300000000000094002013102100000010000000000000BRCSNAACNOR6243
012013091978CSNAJ96     070CSNA  FM    ON        000R$  000000000004600000000000460000000000046000000000004600000000000460000000000000000000000000000001000000000000003500000000000000161000000000000096002013102100000010000000000000BRCSNAACNOR6243
012013091978CSNAJ98     070CSNA  FM    ON        000R$  000000000003700000000000370000000000031000000000003300000000000340000000000003000000000000000009000000000000019800000000000000653400000000000098002013102100000010000000000000BRCSNAACNOR6243
012013091978CSNAK10     070CSNA  FM    ON        000R$  000000000005700000000000600000000000052000000000005600000000000550000000000000000000000005800022000000000000062800000000000003565500000000000098002013111800000010000000000000BRCSNAACNOR6242
012013091978CSNAK40     070CSNA        ON        000R$  000000000003400000000000340000000000034000000000003400000000000340000000000000000000000000000001000000000000001000000000000000034000000000000104002013111800000010000000000000BRCSNAACNOR6243
012013091978CSNAK60     070CSNA        ON        000R$  000000000002700000000000270000000000026000000000002600000000000260000000000000000000000000000011000000000000017000000000000000443000000000000106002013111800000010000000000000BRCSNAACNOR6243
012013091978CSNAK9      070CSNA        ON        000R$  000000000009800000000001020000000000098000000000010000000000001020000000000000000000000000000002000000000000000400000000000000040000000000000090002013111800000010000000000000BRCSNAACNOR6243
012013091978CSNAK92     070CSNA  FM    ON        000R$  000000000009000000000000900000000000090000000000009000000000000900000000000000000000000000000004000000000000010000000000000000900000000000000092002013111800000010000000000000BRCSNAACNOR6243
012013091978CSNAK96     070CSNA  FM    ON        000R$  000000000006600000000000680000000000066000000000006700000000000680000000000000000000000000000006000000000000007400000000000000496400000000000096002013111800000010000000000000BRCSNAACNOR6243
012013091982CSNAV10     080CSNAE       ON        000R$  000000000007700000000000770000000000076000000000007600000000000770000000000078000000000010800006000000000000003300000000000000254000000000000100002013102100000010000000000000BRCSNAACNOR6243
012013091982CSNAV8      080CSNAE       ON        000R$  000000000000700000000000070000000000007000000000000700000000000070000000000005000000000001700002000000000000002000000000000000014000000000000078002013102100000010000000000000BRCSNAACNOR6242
012013091982CSNAV9      080CSNAE FM    ON        000R$  000000000002600000000000280000000000024000000000002600000000000240000000000023000000000003400058000000000000088900000000000002359400000000000088002013102100000010000000000000BRCSNAACNOR6242
012013091982CSNAV92     080CSNAE FM    ON        000R$  000000000003700000000000390000000000036000000000003700000000000370000000000000000000000000000017000000000000033000000000000001229000000000000092002013102100000010000000000000BRCSNAACNOR6243
012013091982CSNAV94     080CSNAE FM    ON        000R$  000000000004500000000000450000000000044000000000004400000000000450000000000000000000000000000008000000000000014000000000000000628000000000000094002013102100000010000000000000BRCSNAACNOR6243
012013091982CSNAV96     080CSNAE FM    ON        000R$  000000000005500000000000550000000000054000000000005400000000000550000000000000000000000020000006000000000000012000000000000000658000000000000096002013102100000010000000000000BRCSNAACNOR6243
012013091982CSNAW9      080CSNAE FM    ON        000R$  000000000004400000000000460000000000042000000000004400000000000460000000000000000000000000000012000000000000029400000000000001301900000000000090002013111800000010000000000000BRCSNAACNOR6243
012013091982CSNAW92     080CSNAE FM    ON        000R$  000000000005100000000000540000000000051000000000005100000000000530000000000000000000000000000007000000000000018000000000000000930000000000000092002013111800000010000000000000BRCSNAACNOR6243
012013091982CSNAW96     080CSNAE FM    ON        000R$  000000000007100000000000710000000000071000000000007100000000000710000000000000000000000000000001000000000000002400000000000000170400000000000096002013111800000010000000000000BRCSNAACNOR6243
012013091902CTAX11      010CONTAX      UNT     N2   R$  000000000194300000000019940000000001911000000000194300000000019490000000001911000000000194900084000000000000022000000000000042764200000000000000009999123100000010000000000000BRCTAXCDAM19100
012013091996CTAX11F     020CONTAX      UNT     N2   R$  000000000193000000000019380000000001930000000000193500000000019380000000001615000000000198800002000000000000000104000000000000201320000000000000009999123100000010000000000000BRCTAXCDAM19100
012013091902CTAX3       010CONTAX      ON      N2   R$  000000000039100000000003910000000000380000000000038500000000003870000000000354000000000038800011000000000000001900000000000000731900000000000000009999123100000010000000000000BRCTAXACNOR3113
012013091902CTAX4       010CONTAX      PN      N2   R$  000000000039300000000003930000000000380000000000038500000000003830000000000382000000000038300110000000000000033500000000000012903900000000000000009999123100000010000000000000BRCTAXACNPR0114
012013091996CTAX4F      020CONTAX      PN      N2   R$  000000000038900000000003890000000000389000000000038900000000003890000000000340000000000041900001000000000000000077000000000000029953000000000000009999123100000010000000000000BRCTAXACNPR0114
012013091902CTIP3       010CETIP       ON      NM   R$  000000000236700000000024080000000002354000000000237100000000023900000000002377000000000239005714000000000002693200000000006387853400000000000000009999123100000010000000000000BRCTIPACNOR2119
012013091996CTIP3F      020CETIP       ON      NM   R$  000000000239500000000024280000000002341000000000237800000000023410000000002342000000000242700027000000000000000872000000000002073568000000000000009999123100000010000000000000BRCTIPACNOR2119
012013091978CTIPJ23     070CTIP        ON      NM000R$  000000000012700000000001270000000000127000000000012700000000001270000000000000000000000000000001000000000000010000000000000001270000000000000230002013102100000010000000000000BRCTIPACNOR2119
012013091978CTIPJ54     070CTIP        ON      NM000R$  000000000005400000000000540000000000046000000000004900000000000510000000000000000000000000000006000000000000300000000000000014837500000000000245002013102100000010000000000000BRCTIPACNOR2119
012013091978CTIPK25     070CTIP        ON      NM000R$  000000000009200000000000920000000000092000000000009200000000000920000000000000000000000000000001000000000000000500000000000000046000000000000250002013111800000010000000000000BRCTIPACNOR2119
012013091902CTKA3       010KARSTEN     ON           R$  000000000019900000000002190000000000199000000000020500000000002190000000000150000000000022000002000000000000000300000000000000061700000000000000009999123100000010000000000000BRCTKAACNOR0041
012013091902CTKA4       010KARSTEN     PN           R$  000000000011600000000001160000000000100000000000010700000000001000000000000093000000000010000026000000000000012400000000000001334300000000000000009999123100000010000000000000BRCTKAACNPR7041
012013091902CTNM4       010COTEMINAS   PN           R$  000000000023200000000002370000000000221000000000022400000000002210000000000221000000000023700013000000000000016000000000000003593100000000000000009999123100000010000000000000BRCTNMACNPR6128
012013091902CTSA3       010SANTANENSE  ON           R$  000000000053500000000005640000000000535000000000054900000000005640000000000542000000000056500003000000000000000300000000000000164900000000000000009999123100000010000000000000BRCTSAACNOR3051
012013091996CTSA3F      020SANTANENSE  ON           R$  000000000053500000000005350000000000535000000000053500000000005350000000000535000000000055000001000000000000000045000000000000024075000000000000009999123100000010000000000000BRCTSAACNOR3051
012013091902CTSA4       010SANTANENSE  PN           R$  000000000056100000000005610000000000560000000000056000000000005600000000000530000000000057700003000000000000002000000000000001120400000000000000009999123100000010000000000000BRCTSAACNPR0051
012013091962CTSA4T      030SANTANENSE  PN        081R$  000000000057000000000005710000000000570000000000057000000000005710000000000000000000000000000002000000000000001500000000000000855456000000000000009999123100000010000000000000BRCTSAACNPR0051
012013091902CYRE3       010CYRELA REALTON      NM   R$  000000000175300000000017670000000001715000000000173700000000017300000000001730000000000173111126000000000003768100000000006545756200000000000000009999123100000010000000000000BRCYREACNOR7125
012013091996CYRE3F      020CYRELA REALTON      NM   R$  000000000175200000000017660000000001678000000000173400000000017370000000001715000000000175000029000000000000000920000000000001595947000000000000009999123100000010000000000000BRCYREACNOR7125
012013091978CYREJ17     070CYRE  FM    ON      NM000R$  000000000009800000000000980000000000079000000000008800000000000790000000000000000000000000000007000000000000018400000000000001628400000000000170002013102100000010000000000000BRCYREACNOR7125
012013091978CYREJ18     070CYRE  FM    ON      NM000R$  000000000003500000000000350000000000035000000000003500000000000350000000000000000000000004200001000000000000003500000000000000122500000000000180002013102100000010000000000000BRCYREACNOR7125
012013091978CYREJ46     070CYRE        ON      NM000R$  000000000011800000000001260000000000111000000000012100000000001250000000000000000000000000000007000000000000750000000000000091010000000000000165002013102100000010000000000000BRCYREACNOR7125
012013091978CYREJ47     070CYRE  FM    ON      NM000R$  000000000005600000000000580000000000056000000000005600000000000580000000000000000000000000000013000000000000011400000000000000648300000000000175002013102100000010000000000000BRCYREACNOR7125
012013091978CYREJ48     070CYRE  FM    ON      NM000R$  000000000002100000000000210000000000021000000000002100000000000210000000000000000000000000000002000000000000007000000000000000147000000000000185002013102100000010000000000000BRCYREACNOR7125
012013091978CYREK18     070CYRE  FM    ON      NM000R$  000000000006200000000000620000000000062000000000006200000000000620000000000000000000000000000004000000000000010000000000000000620000000000000180002013111800000010000000000000BRCYREACNOR7125
012013091982CYREV17     080CYREE FM    ON      NM000R$  000000000004300000000000430000000000039000000000004000000000000410000000000000000000000000000004000000000000005100000000000000206100000000000170002013102100000010000000000000BRCYREACNOR7125
012013091982CYREV18     080CYREE FM    ON      NM000R$  000000000008300000000000890000000000079000000000008300000000000890000000000000000000000000000008000000000000021100000000000001761200000000000180002013102100000010000000000000BRCYREACNOR7125
012013091982CYREV46     080CYREE FM    ON      NM000R$  000000000002200000000000220000000000022000000000002200000000000220000000000000000000000000000002000000000000002000000000000000044000000000000165002013102100000010000000000000BRCYREACNOR7125
012013091982CYREV47     080CYREE FM    ON      NM000R$  000000000005500000000000620000000000055000000000005700000000000620000000000000000000000000000003000000000000005500000000000000316500000000000175002013102100000010000000000000BRCYREACNOR7125
012013091982CYREW18     080CYREE FM    ON      NM000R$  000000000009700000000001140000000000097000000000010100000000001040000000000000000000000000000007000000000000017000000000000001723500000000000180002013111800000010000000000000BRCYREACNOR7125
012013091902CZLT33      010COSAN LTD   DR3          R$  000000000338000000000033830000000003289000000000332500000000033100000000003310000000000333001365000000000000432500000000001438157500000000000000009999123100000010000000000000BRCZLTBDR009105
012013091902DAGB33      010DUFRY AG    DR3          R$  000000003250000000000336230000000032500000000003321700000000333000000000033100000000003330000598000000000000009780000000000324870730000000000000009999123100000010000000000000BRDAGBBDR008100
012013091902DASA3       010DASA        ON      NM   R$  000000000114900000000011550000000001113000000000112800000000011130000000001113000000000112502819000000000000784200000000000884598700000000000000009999123100000010000000000000BRDASAACNOR1108
012013091996DASA3F      020DASA        ON      NM   R$  000000000115000000000011730000000001105000000000113400000000011730000000001111000000000115000016000000000000000498000000000000564941000000000000009999123100000010000000000000BRDASAACNOR1108
012013091902DAYC4       010DAYCOVAL    PN      N2   R$  000000000085000000000008750000000000850000000000086200000000008690000000000864000000000087000177000000000000049900000000000043048800000000000000009999123100000010000000000000BRDAYCACNPR2128
012013091902DIRR3       010DIRECIONAL  ON      NM   R$  000000000132500000000013360000000001305000000000132000000000013200000000001320000000000132201913000000000000548500000000000724405400000000000000009999123100000010000000000000BRDIRRACNOR0104
012013091996DIRR3F      020DIRECIONAL  ON      NM   R$  000000000132900000000013650000000001300000000000131400000000013020000000001301000000000136500009000000000000000228000000000000299739000000000000009999123100000010000000000000BRDIRRACNOR0104
012013091914DIVO11      010IT NOW IDIV CI           R$  000000000344100000000034470000000003424000000000343000000000034310000000003431000000000344200029000000000000001470000000000005042390000000000000009999123100000010000000000000BRDIVOCTF002100
012013091902DOHL4       010DOHLER      PN           R$  000000000050400000000005100000000000504000000000050500000000005100000000000430000000000051000004000000000000001500000000000000758800000000000000009999123100000010000000000000BRDOHLACNPR9054
012013091902DTCY3       010DTCOM-DIRECTON           R$  000000000003800000000000380000000000038000000000003800000000000380000000000038000000000004000001000000000000000300000000000000011400000000000000009999123100000010000000000000BRDTCYACNOR5107
012013091902DTEX3       010DURATEX     ON      NM   R$  000000000135000000000013590000000001318000000000133300000000013300000000001324000000000133003671000000000001303200000000001737536400000000000000009999123100000010000000000000BRDTEXACNOR3115
012013091996DTEX3F      020DURATEX     ON      NM   R$  000000000135000000000013600000000001301000000000133800000000013200000000001330000000000134900155000000000000004703000000000006280239000000000000009999123100000010000000000000BRDTEXACNOR3115
