00COTAHIST.2013BOVESPA 20130917                                                                                                                                                                                                                      
012013091702AAPL34      010APPLE       DRN          R$  000000001040000000000104000000000010260000000001035900000000102600000000010215000000001035500003000000000000028100000000000291093000000000000000009999123100000010000000000000BRAAPLBDR004105
012013091702ABCB4       010ABC BRASIL  PN      N2   R$  000000000127500000000012750000000001228000000000123900000000012310000000001231000000000124000509000000000000177200000000000219649700000000000000009999123100000010000000000000BRABCBACNPR4120
012013091796ABCB4F      020ABC BRASIL  PN      N2   R$  000000000127000000000012700000000001226000000000124200000000012370000000001237000000000125400015000000000000000196000000000000243587000000000000009999123100000010000000000000BRABCBACNPR4120
012013091762ABCB4T      030ABC BRASIL  PN      N2030R$  000000000124000000000012410000000001240000000000124000000000012410000000000000000000000000000002000000000000042700000000000052984210000000000000009999123100000010000000000000BRABCBACNPR4120
012013091712ABCP11      010FII ABC IMOBCI           R$  000000000097200000000009720000000000972000000000097200000000009720000000000962000000000097100002000000000000000031000000000000030132000000000000009999123100000010000000000000BRABCPCTF000215
012013091702ABRE11      010ABRIL EDUCA UNT     N2   R$  000000000314400000000032690000000003144000000000322200000000032690000000003210000000000326900258000000000000063600000000000204960300000000000000009999123100000010000000000000BRABRECDAM15102
012013091796ABRE11F     020ABRIL EDUCA UNT     N2   R$  000000000317000000000031850000000003156000000000317400000000031560000000003156000000000329900003000000000000000082000000000000260330000000000000009999123100000010000000000000BRABRECDAM15102
012013091702AEDU3       010ANHANGUERA  ON      NM   R$  000000000136900000000013700000000001313000000000133600000000013200000000001319000000000132005898000000000004033200000000005389669900000000000000009999123100000010000000000000BRAEDUACNOR9107
012013091796AEDU3F      020ANHANGUERA  ON      NM   R$  000000000136500000000013690000000001316000000000133400000000013170000000001315000000000136900054000000000000001667000000000002224104000000000000009999123100000010000000000000BRAEDUACNOR9107
012013091762AEDU3T      030ANHANGUERA  ON      NM030R$  000000000133100000000013320000000001331000000000133100000000013320000000000000000000000000000002000000000000003000000000000003994627000000000000009999123100000010000000000000BRAEDUACNOR9107
012013091778AEDUJ14     070AEDU        ON      NM000R$  000000000001500000000000150000000000015000000000001500000000000150000000000000000000000000000002000000000000004000000000000000060000000000000140002013102100000010000000000000BRAEDUACNOR9107
012013091712AEFI11      010FII AESAPAR CI           R$  000000001172900000000119550000000011729000000001179100000000119550000000011850000000001195500022000000000000000904000000000010659893000000000000009999123100000010000000000000BRAEFICTF002121
012013091712AGCX11      010FII AG CAIXACI           R$  000000009699900000000970000000000096000000000009694900000000970000000000096000000000009700000014000000000000000195000000000018905081000000000000009999123100000010000000000000BRAGCXCTF003110
012013091702AGRO3       010BRASILAGRO  ON      NM   R$  000000000097600000000009860000000000976000000000098100000000009800000000000980000000000098500024000000000000023700000000000023266800000000000000009999123100000010000000000000BRAGROACNOR7102
012013091702ALLL3       010ALL AMER LATON      NM   R$  000000000089500000000009070000000000888000000000090000000000009070000000000899000000000090704862000000000002155700000000001941851100000000000000009999123100000010000000000000BRALLLACNOR6118
012013091796ALLL3F      020ALL AMER LATON      NM   R$  000000000089600000000009100000000000894000000000090100000000009100000000000895000000000091000029000000000000000911000000000000821563000000000000009999123100000010000000000000BRALLLACNOR6118
012013091762ALLL3T      030ALL AMER LATON      NM030R$  000000000090200000000009050000000000902000000000090300000000009050000000000000000000000000000004000000000000001000000000000000903459000000000000009999123100000010000000000000BRALLLACNOR6118
012013091712ALMI11B     010FII TORRE ALCI      MB   R$  000000030600000000003062000000000306000000000030600900000003060000000000306100000000030989900007000000000000000041000000000012546400000000000000009999123100000010000000000000BRALMICTF003205
012013091702ALPA3       010ALPARGATAS  ON      N1   R$  000000000119700000000011970000000001174000000000118900000000011740000000001175000000000124300003000000000000000300000000000000356800000000000000009999123100000010000000000000BRALPAACNOR0203
012013091796ALPA3F      020ALPARGATAS  ON      N1   R$  000000000119800000000012000000000001198000000000119800000000012000000000001200000000000123000002000000000000000018000000000000021580000000000000009999123100000010000000000000BRALPAACNOR0203
012013091702ALPA4       010ALPARGATAS  PN      N1   R$  000000000136500000000013840000000001353000000000137000000000013800000000001369000000000138000613000000000000349600000000000479174900000000000000009999123100000010000000000000BRALPAACNPR7203
012013091796ALPA4F      020ALPARGATAS  PN      N1   R$  000000000136100000000013800000000001361000000000136600000000013690000000001352000000000138700004000000000000000121000000000000165400000000000000009999123100000010000000000000BRALPAACNPR7203
012013091778ALPAJ14     070ALPA        PN      N1000R$  000000000002200000000000220000000000022000000000002200000000000220000000000014000000000000000001000000000000003700000000000000081400000000000140002013102100000010000000000000BRALPAACNPR7203
012013091702ALSC3       010ALIANSCE    ON      NM   R$  000000000194000000000019640000000001913000000000193700000000019640000000001943000000000196400851000000000000219000000000000424416400000000000000009999123100000010000000000000BRALSCACNOR0104
012013091796ALSC3F      020ALIANSCE    ON      NM   R$  000000000192400000000019420000000001911000000000192400000000019420000000001910000000000199800004000000000000000124000000000000238600000000000000009999123100000010000000000000BRALSCACNOR0104
012013091702ALUP11      010ALUPAR      UNT     N2   R$  000000000171000000000017350000000001706000000000171400000000017200000000001711000000000172000586000000000000225400000000000386464200000000000000009999123100000010000000000000BRALUPCDAM15100
012013091796ALUP11F     020ALUPAR      UNT     N2   R$  000000000167500000000017480000000001675000000000171700000000017000000000001675000000000175000014000000000000000307000000000000527128000000000000009999123100000010000000000000BRALUPCDAM15100
012013091702AMAR3       010LOJAS MARISAON      NM   R$  000000000219500000000022600000000002195000000000222800000000022300000000002230000000000223301683000000000000252600000000000562898400000000000000009999123100000010000000000000BRAMARACNOR4109
012013091796AMAR3F      020LOJAS MARISAON      NM   R$  000000000229800000000022980000000002157000000000222300000000021590000000002159000000000230000030000000000000000629000000000001398320000000000000009999123100000010000000000000BRAMARACNOR4109
012013091702AMBV3       010AMBEV       ON  ED       R$  000000000843500000000085230000000008435000000000848400000000084980000000008452000000000849801015000000000000209500000000001777456800000000000000009999123100000010000000000000BRAMBVACNOR4154
012013091796AMBV3F      020AMBEV       ON  ED       R$  000000000848300000000087290000000008455000000000849000000000085190000000008456000000000851900049000000000000001093000000000009280588000000000000009999123100000010000000000000BRAMBVACNOR4154
012013091702AMBV4       010AMBEV       PN  ED       R$  000000000845000000000085200000000008430000000000847000000000084630000000008463000000000846806316000000000001511600000000012803673300000000000000009999123100000010000000000000BRAMBVACNPR1154
012013091796AMBV4F      020AMBEV       PN  ED       R$  000000000849400000000085190000000008430000000000848400000000084730000000008430000000000847300183000000000000004774000000000040500547000000000000009999123100000010000000000000BRAMBVACNPR1154
012013091762AMBV4T      030AMBEV       PN  ED    093R$  000000000863800000000086390000000008638000000000863800000000086390000000000000000000000000000002000000000000010000000000000086384350000000000000009999123100000010000000000000BRAMBVACNPR1154
012013091778AMBVJ84     070AMBV    /ED PN        000R$  000000000030100000000003010000000000292000000000029300000000002920000000000000000000000000000004000000000000011500000000000003371700000000000833502013102100000010000000000000BRAMBVACNPR1153
012013091778AMBVJ85     070AMBV    /ED PN        000R$  000000000021900000000002370000000000219000000000023100000000002370000000000000000000000000000005000000000000003500000000000000808500000000000843502013102100000010000000000000BRAMBVACNPR1153
012013091778AMBVJ86     070AMBV    /ED PN        000R$  000000000018600000000001860000000000186000000000018600000000001860000000000000000000000000000002000000000000001000000000000000186000000000000853502013102100000010000000000000BRAMBVACNPR1153
012013091778AMBVJ87     070AMBV    /ED PN        000R$  000000000012900000000001290000000000115000000000011500000000001150000000000001000000000000000002000000000000035200000000000004049400000000000863502013102100000010000000000000BRAMBVACNPR1153
012013091778AMBVJ88     070AMBV    /ED PN        000R$  000000000014900000000001490000000000149000000000014900000000001490000000000000000000000015000001000000000000000100000000000000014900000000000873502013102100000010000000000000BRAMBVACNPR1153
012013091778AMBVJ89     070AMBV    /ED PN        000R$  000000000006500000000000800000000000061000000000007000000000000610000000000000000000000000000005000000000000002300000000000000162600000000000883502013102100000010000000000000BRAMBVACNPR1153
012013091778AMBVJ90     070AMBV    /ED PN        000R$  000000000004100000000000500000000000040000000000004000000000000500000000000000000000000007000003000000000000001200000000000000049100000000000893502013102100000010000000000000BRAMBVACNPR1153
012013091778AMBVJ92     070AMBV    /ED PN        000R$  000000000002500000000000250000000000025000000000002500000000000250000000000000000000000003500001000000000000001000000000000000025000000000000913502013102100000010000000000000BRAMBVACNPR1153
012013091702AORE3       010ALL ORE     ON           R$  000000000012000000000001200000000000120000000000012000000000001200000000000120000000000079000002000000000000000500000000000000060000000000000000009999123100000010000000000000BRAOREACNOR2100
012013091702ARTR3       010ARTERIS     ON      NM   R$  000000000194300000000019530000000001885000000000190900000000018950000000001895000000000190301234000000000000397900000000000759867800000000000000009999123100000010000000000000BRARTRACNOR3101
012013091796ARTR3F      020ARTERIS     ON      NM   R$  000000000191400000000019830000000001894000000000191700000000019290000000001885000000000192900049000000000000001707000000000003273021000000000000009999123100000010000000000000BRARTRACNOR3101
012013091762ARTR3T      030ARTERIS     ON      NM090R$  000000000197200000000019730000000001972000000000197200000000019730000000000000000000000000000002000000000000006000000000000011835874000000000000009999123100000010000000000000BRARTRACNOR3101
012013091702ARZZ3       010AREZZO CO   ON      NM   R$  000000000370600000000037910000000003690000000000375200000000037700000000003770000000000377300647000000000000211600000000000794094600000000000000009999123100000010000000000000BRARZZACNOR3109
012013091796ARZZ3F      020AREZZO CO   ON      NM   R$  000000000370000000000038000000000003700000000000372000000000038000000000003732000000000382900002000000000000000005000000000000018600000000000000009999123100000010000000000000BRARZZACNOR3109
012013091702ATTB34      010ATT INC     DRN          R$  000000000784000000000078400000000007840000000000784000000000078400000000007737000000000796700001000000000000000300000000000002352000000000000000009999123100000010000000000000BRATTBBDR007104
012013091702AUTM3       010AUTOMETAL   ON      NM   R$  000000000185100000000018590000000001829000000000184800000000018590000000001851000000000185900478000000000000070900000000000131083500000000000000009999123100000010000000000000BRAUTMACNOR8109
012013091796AUTM3F      020AUTOMETAL   ON      NM   R$  000000000185000000000018500000000001850000000000185000000000018500000000001800000000000208400001000000000000000006000000000000011100000000000000009999123100000010000000000000BRAUTMACNOR8109
012013091702AXPB34      010AMERICAN EXPDRN          R$  000000001726800000000172680000000017268000000001726800000000172680000000017136000000001764400001000000000000000300000000000005180400000000000000009999123100000010000000000000BRAXPBBDR007105
012013091702BAHI3       010BAHEMA      ON           R$  000000000048700000000004870000000000487000000000048700000000004870000000000488000000000049500001000000000000005000000000000002435000000000000000009999123100000010000000000000BRBAHIACNOR1066
012013091796BAHI3F      020BAHEMA      ON           R$  000000000050000000000005000000000000500000000000050000000000005000000000000425000000000125000002000000000000000030000000000000015000000000000000009999123100000010000000000000BRBAHIACNOR1066
012013091702BAUH4       010EXCELSIOR   PN           R$  000000000090000000000009000000000000900000000000090000000000009000000000000840000000000092800001000000000000001000000000000000900000000000000000009999123100000010000000000000BRBAUHACNPR3108
012013091702BAZA3       010AMAZONIA    ON           R$  000000000003200000000000320000000000032000000000003200000000000320000000000032000000000003300011000000000000063000000000000002016000000000000000009999123100000010000000000000BRBAZAACNOR0163
012013091702BBAS3       010BRASIL      ON  EJ  NM   R$  000000000241600000000024530000000002384000000000242000000000024530000000002443000000000245313968000000000006327400000000015313892000000000000000009999123100000010000000000000BRBBASACNOR3239
012013091796BBAS3F      020BRASIL      ON  EJ  NM   R$  000000000242000000000024510000000002385000000000241900000000024480000000002438000000000244800253000000000000007367000000000017829466000000000000009999123100000010000000000000BRBBASACNOR3239
012013091762BBAS3T      030BRASIL      ON  EJ  NM016R$  000000000242400000000024250000000002424000000000242400000000024250000000000000000000000000000002000000000000001000000000000002424139000000000000009999123100000010000000000000BRBBASACNOR3239
012013091778BBASJ22     070BBAS    /EJ ON      NM000R$  000000000030400000000003610000000000304000000000033200000000003180000000000317000000000000000017000000000000002600000000000000864900000000000209502013102100000010000000000000BRBBASACNOR3237
012013091778BBASJ23     070BBAS  FM/EJ ON      NM000R$  000000000027900000000003140000000000255000000000027800000000002900000000000276000000000000000169000000000000183200000000000050986900000000000216102013102100000010000000000000BRBBASACNOR3235
012013091778BBASJ24     070BBAS  FM/EJ ON      NM000R$  000000000018400000000002090000000000164000000000018400000000002090000000000165000000000000000104000000000000122400000000000022545200000000000227102013102100000010000000000000BRBBASACNOR3236
012013091778BBASJ25     070BBAS  FM/EJ ON      NM000R$  000000000009000000000001150000000000083000000000009700000000001140000000000103000000000016000063000000000000095900000000000009372100000000000239502013102100000010000000000000BRBBASACNOR3237
012013091778BBASJ26     070BBAS  FM/EJ ON      NM000R$  000000000006500000000000750000000000053000000000006300000000000720000000000072000000000007900078000000000000119700000000000007557800000000000246102013102100000010000000000000BRBBASACNOR3235
012013091778BBASJ27     070BBAS  FM/EJ ON      NM000R$  000000000002800000000000350000000000023000000000003000000000000350000000000032000000000003500088000000000000225400000000000006878200000000000256102013102100000010000000000000BRBBASACNOR3235
012013091778BBASJ28     070BBAS    /EJ ON      NM000R$  000000000001000000000000100000000000007000000000000800000000000090000000000005000000000001000008000000000000027900000000000000248100000000000269502013102100000010000000000000BRBBASACNOR3237
012013091778BBASJ29     070BBAS    /EJ ON      NM000R$  000000000000600000000000060000000000006000000000000600000000000060000000000003000000000000600001000000000000001200000000000000007200000000000276102013102100000010000000000000BRBBASACNOR3235
012013091778BBASJ30     070BBAS    /EJ ON      NM000R$  000000000000300000000000030000000000003000000000000300000000000030000000000002000000000000300007000000000000003400000000000000010200000000000286102013102100000010000000000000BRBBASACNOR3235
012013091778BBASJ56     070BBAS    /EJ ON      NM000R$  000000000004200000000000450000000000039000000000004300000000000450000000000000000000000005200030000000000000092400000000000004017000000000000251102013102100000010000000000000BRBBASACNOR3235
012013091778BBASK23     070BBAS  FM/EJ ON      NM000R$  000000000027900000000003060000000000256000000000027700000000003020000000000000000000000000000037000000000000057100000000000015820500000000000219502013111800000010000000000000BRBBASACNOR3237
012013091778BBASK24     070BBAS  FM/EJ ON      NM000R$  000000000020100000000002190000000000185000000000020200000000002190000000000000000000000000000022000000000000032300000000000006530500000000000229502013111800000010000000000000BRBBASACNOR3237
012013091778BBASK25     070BBAS  FM/EJ ON      NM000R$  000000000015200000000001700000000000152000000000016000000000001700000000000000000000000031900007000000000000011300000000000001809400000000000237102013111800000010000000000000BRBBASACNOR3236
012013091778BBASK26     070BBAS  FM/EJ ON      NM000R$  000000000009000000000001030000000000090000000000009400000000001030000000000016000000000021900003000000000000004200000000000000395300000000000247102013111800000010000000000000BRBBASACNOR3236
012013091778BBASK27     070BBAS  FM/EJ ON      NM000R$  000000000005500000000000590000000000055000000000005800000000000580000000000031000000000014300012000000000000014900000000000000872700000000000257102013111800000010000000000000BRBBASACNOR3236
012013091778BBASK28     070BBAS    /EJ ON      NM000R$  000000000002600000000000320000000000026000000000003100000000000320000000000010000000000003300035000000000000110900000000000003526100000000000267102013111800000010000000000000BRBBASACNOR3236
012013091778BBASK56     070BBAS    /EJ ON      NM000R$  000000000004000000000000480000000000036000000000004300000000000480000000000000000000000000000032000000000000084700000000000003642600000000000262302013111800000010000000000000BRBBASACNOR3238
012013091778BBASL24     070BBAS    /EJ ON      NM000R$  000000000023700000000002370000000000237000000000023700000000002370000000000000000000000000000001000000000000000400000000000000094800000000000229502013121600000010000000000000BRBBASACNOR3237
012013091778BBASL25     070BBAS    /EJ ON      NM000R$  000000000018000000000001800000000000180000000000018000000000001800000000000000000000000000000001000000000000002500000000000000450000000000000236102013121600000010000000000000BRBBASACNOR3235
012013091782BBASV22     080BBASE FM/EJ ON      NM000R$  000000000000900000000000090000000000009000000000000900000000000090000000000000000000000000000001000000000000012000000000000000108000000000000209502013102100000010000000000000BRBBASACNOR3237
012013091782BBASV23     080BBASE FM/EJ ON      NM000R$  000000000001500000000000160000000000011000000000001300000000000120000000000010000000000001900062000000000000073600000000000000964600000000000216102013102100000010000000000000BRBBASACNOR3235
012013091782BBASV24     080BBASE FM/EJ ON      NM000R$  000000000003000000000000340000000000021000000000002800000000000230000000000000000000000002600074000000000000093800000000000002656500000000000227102013102100000010000000000000BRBBASACNOR3236
012013091782BBASV25     080BBASE FM/EJ ON      NM000R$  000000000006800000000000760000000000051000000000006500000000000510000000000048000000000016000051000000000000089500000000000005889600000000000239502013102100000010000000000000BRBBASACNOR3237
012013091782BBASV26     080BBASE   /EJ ON      NM000R$  000000000009000000000000900000000000090000000000009000000000000900000000000000000000000015000001000000000000000100000000000000009000000000000246102013102100000010000000000000BRBBASACNOR3235
012013091782BBASW22     080BBASE FM/EJ ON      NM000R$  000000000002300000000000230000000000019000000000001900000000000190000000000000000000000000000007000000000000012400000000000000245600000000000209502013111800000010000000000000BRBBASACNOR3237
012013091782BBASW23     080BBASE FM/EJ ON      NM000R$  000000000003400000000000340000000000034000000000003400000000000340000000000000000000000014300007000000000000020000000000000000680000000000000219502013111800000010000000000000BRBBASACNOR3237
012013091782BBASW24     080BBASE FM/EJ ON      NM000R$  000000000005500000000000560000000000055000000000005500000000000550000000000000000000000021900007000000000000012100000000000000670400000000000229502013111800000010000000000000BRBBASACNOR3237
012013091782BBASW25     080BBASE FM/EJ ON      NM000R$  000000000008100000000000870000000000066000000000007900000000000660000000000000000000000031900011000000000000021700000000000001721600000000000237102013111800000010000000000000BRBBASACNOR3236
012013091702BBDC3       010BRADESCO    ON      N1   R$  000000000344600000000034950000000003439000000000347200000000034920000000003472000000000349204175000000000001407700000000004888431700000000000000009999123100000010000000000000BRBBDCACNOR1606
012013091796BBDC3F      020BRADESCO    ON      N1   R$  000000000344600000000035000000000003376000000000345200000000034670000000003378000000000350000029000000000000000789000000000002724324000000000000009999123100000010000000000000BRBBDCACNOR1606
012013091702BBDC4       010BRADESCO    PN      N1   R$  000000000299400000000030240000000002985000000000301000000000030240000000003019000000000302412185000000000006888900000000020736709800000000000000009999123100000010000000000000BRBBDCACNPR8606
012013091796BBDC4F      020BRADESCO    PN      N1   R$  000000000298900000000030290000000002984000000000300400000000030000000000003001000000000301800198000000000000005415000000000016274348000000000000009999123100000010000000000000BRBBDCACNPR8606
012013091762BBDC4T      030BRADESCO    PN      N1016R$  000000000300200000000030180000000003002000000000301700000000030180000000000000000000000000000004000000000000029000000000000087498195000000000000009999123100000010000000000000BRBBDCACNPR8606
012013091762BBDC4T      030BRADESCO    PN      N1030R$  000000000304600000000030490000000003029000000000303700000000030300000000000000000000000000000006000000000000175000000000000531509328000000000000009999123100000010000000000000BRBBDCACNPR8606
012013091762BBDC4T      030BRADESCO    PN      N1037R$  000000000302600000000030270000000003026000000000302600000000030270000000000000000000000000000002000000000000003000000000000009080342000000000000009999123100000010000000000000BRBBDCACNPR8606
012013091778BBDCJ1      070BBDC        PN      N1000R$  000000000004400000000000490000000000041000000000004700000000000490000000000000000000000000000039000000000000032700000000000001548400000000000314402013102100000010000000000000BRBBDCACNPR8603
012013091778BBDCJ2      070BBDC        PN      N1000R$  000000000002200000000000220000000000021000000000002100000000000210000000000000000000000000000002000000000000012500000000000000266800000000000324402013102100000010000000000000BRBBDCACNPR8603
012013091778BBDCJ26     070BBDC        PN      N1000R$  000000000043400000000004340000000000434000000000043400000000004340000000000000000000000044900002000000000000001000000000000000434000000000000259602013102100000010000000000000BRBBDCACNPR8604
012013091778BBDCJ29     070BBDC        PN      N1000R$  000000000018000000000001960000000000175000000000018500000000001750000000000175000000000019800269000000000000326800000000000060732700000000000287602013102100000010000000000000BRBBDCACNPR8602
012013091778BBDCJ30     070BBDC        PN      N1000R$  000000000011200000000001250000000000110000000000011700000000001140000000000111000000000012800082000000000000134800000000000015866900000000000297602013102100000010000000000000BRBBDCACNPR8602
012013091778BBDCJ31     070BBDC        PN      N1000R$  000000000006600000000000720000000000061000000000006600000000000650000000000053000000000007500307000000000000633000000000000042360600000000000307602013102100000010000000000000BRBBDCACNPR8602
012013091778BBDCJ32     070BBDC        PN      N1000R$  000000000003500000000000370000000000032000000000003400000000000340000000000029000000000003800062000000000000101800000000000003532800000000000317602013102100000010000000000000BRBBDCACNPR8602
012013091778BBDCJ33     070BBDC        PN      N1000R$  000000000001800000000000190000000000015000000000001800000000000150000000000014000000000000000020000000000000026600000000000000478800000000000327602013102100000010000000000000BRBBDCACNPR8602
012013091778BBDCJ34     070BBDC        PN      N1000R$  000000000000800000000000080000000000008000000000000800000000000080000000000000000000000000000001000000000000000400000000000000003200000000000337202013102100000010000000000000BRBBDCACNPR8600
012013091778BBDCJ35     070BBDC        PN      N1000R$  000000000000500000000000050000000000005000000000000500000000000050000000000000000000000000500001000000000000003000000000000000015000000000000349802013102100000010000000000000BRBBDCACNPR8605
012013091778BBDCJ58     070BBDC        PN      N1000R$  000000000024800000000002590000000000248000000000025300000000002590000000000202000000000026900002000000000000001000000000000000253500000000000279802013102100000010000000000000BRBBDCACNPR8605
012013091778BBDCK30     070BBDC        PN      N1000R$  000000000014300000000001530000000000143000000000014700000000001470000000000000000000000000000026000000000000043700000000000006443200000000000299802013111800000010000000000000BRBBDCACNPR8605
012013091778BBDCK31     070BBDC        PN      N1000R$  000000000009500000000001040000000000095000000000009700000000001010000000000000000000000010200009000000000000015200000000000001485900000000000309802013111800000010000000000000BRBBDCACNPR8605
012013091778BBDCK32     070BBDC        PN      N1000R$  000000000006800000000000710000000000068000000000006900000000000710000000000013000000000000000009000000000000016300000000000001124800000000000317402013111800000010000000000000BRBBDCACNPR8601
012013091778BBDCK33     070BBDC        PN      N1000R$  000000000004200000000000420000000000037000000000003800000000000420000000000000000000000000000010000000000000016000000000000000616500000000000327602013111800000010000000000000BRBBDCACNPR8602
012013091778BBDCK9      070BBDC        PN      N1000R$  000000000020400000000002200000000000204000000000021000000000002130000000000000000000000000000027000000000000049700000000000010459000000000000289802013111800000010000000000000BRBBDCACNPR8605
012013091778BBDCL27     070BBDC        PN      N1000R$  000000000040700000000004070000000000407000000000040700000000004070000000000000000000000000000007000000000000020000000000000008140000000000000269602013121600000010000000000000BRBBDCACNPR8604
012013091782BBDCN32     080BBDCE       PN      N1000R$  000000000009800000000001020000000000098000000000009900000000001000000000000000000000000000000010000000000000700000000000000069882200000000000287902014021700000010000000000000BRBBDCACNPR8598
012013091782BBDCO61     080BBDCE       PN      N1000R$  000000000008900000000000890000000000083000000000008600000000000830000000000000000000000000000008000000000001050000000000000091223000000000000278802014031700000010000000000000BRBBDCACNPR8598
012013091782BBDCV26     080BBDCE       PN      N1000R$  000000000000800000000000080000000000008000000000000800000000000080000000000002000000000000000001000000000000013000000000000000104000000000000259602013102100000010000000000000BRBBDCACNPR8604
012013091782BBDCV27     080BBDCE       PN      N1000R$  000000000001400000000000140000000000011000000000001100000000000110000000000011000000000001400011000000000000027600000000000000320700000000000267602013102100000010000000000000BRBBDCACNPR8602
012013091782BBDCV28     080BBDCE       PN      N1000R$  000000000000500000000000050000000000005000000000000500000000000050000000000003000000000000000001000000000000003000000000000000015000000000000245602013102100000010000000000000BRBBDCACNPR8591
012013091782BBDCV29     080BBDCE       PN      N1000R$  000000000004400000000000440000000000032000000000003700000000000380000000000028000000000004500049000000000000079000000000000002961400000000000287602013102100000010000000000000BRBBDCACNPR8602
012013091782BBDCV30     080BBDCE       PN      N1000R$  000000000007700000000000770000000000061000000000006800000000000670000000000060000000000011800036000000000000057800000000000003961500000000000297602013102100000010000000000000BRBBDCACNPR8602
012013091782BBDCV31     080BBDCE       PN      N1000R$  000000000012700000000001270000000000106000000000011700000000001150000000000000000000000000000035000000000000065100000000000007650100000000000307602013102100000010000000000000BRBBDCACNPR8602
012013091782BBDCV58     080BBDCE       PN      N1000R$  000000000002800000000000280000000000020000000000002200000000000210000000000000000000000000000015000000000000027700000000000000618400000000000279802013102100000010000000000000BRBBDCACNPR8605
012013091782BBDCW28     080BBDCE       PN      N1000R$  000000000003800000000000380000000000034000000000003600000000000370000000000000000000000000000012000000000000018300000000000000671900000000000277602013111800000010000000000000BRBBDCACNPR8602
012013091782BBDCW30     080BBDCE       PN      N1000R$  000000000011100000000001110000000000097000000000010300000000000990000000000000000000000000000012000000000000023400000000000002432000000000000299802013111800000010000000000000BRBBDCACNPR8605
012013091782BBDCW31     080BBDCE       PN      N1000R$  000000000016100000000001610000000000140000000000014600000000001460000000000000000000000000000051000000000000104500000000000015288600000000000309802013111800000010000000000000BRBBDCACNPR8605
012013091782BBDCW9      080BBDCE       PN      N1000R$  000000000007300000000000730000000000067000000000007000000000000680000000000000000000000000000005000000000000008100000000000000568700000000000289802013111800000010000000000000BRBBDCACNPR8605
012013091782BBDCX31     080BBDCE       PN      N1000R$  000000000005100000000000520000000000051000000000005100000000000520000000000000000000000000000002000000000000100000000000000005152000000000000278602013121600000010000000000000BRBBDCACNPR8597
012013091712BBFI11B     010FII BB PROGRCI      MB   R$  000000042799900000004279990000000427999000000042799900000004279990000000425002000000042799900001000000000000000001000000000000427999000000000000009999123100000010000000000000BRBBFICTF006198
012013091712BBPO11      010FII BB PRGIICI           R$  000000001106100000000111600000000010901000000001099100000000109010000000010901000000001098000246000000000000037775000000000415193087000000000000009999123100000010000000000000BRBBPOCTF003110
012013091712BBRC11      010FII BB CORP CI           R$  000000000895900000000093970000000008959000000000905200000000091500000000009150000000000920000029000000000000001018000000000009215241000000000000009999123100000010000000000000BRBBRCCTF004124
012013091702BBRK3       010BR BROKERS  ON      NM   R$  000000000061100000000006170000000000596000000000060200000000006000000000000599000000000060002044000000000001198100000000000721394600000000000000009999123100000010000000000000BRBBRKACNOR4108
012013091796BBRK3F      020BR BROKERS  ON      NM   R$  000000000061000000000006580000000000585000000000061200000000006050000000000568000000000000000013000000000000000361000000000000220951000000000000009999123100000010000000000000BRBBRKACNOR4108
012013091762BBRK3T      030BR BROKERS  ON      NM030R$  000000000060300000000006040000000000603000000000060300000000006040000000000000000000000000000002000000000000000500000000000000301656000000000000009999123100000010000000000000BRBBRKACNOR4108
012013091702BBSE3       010BBSEGURIDADEON      NM   R$  000000000207600000000021270000000002072000000000210900000000021180000000002115000000000211808358000000000006467500000000013646397000000000000000009999123100000010000000000000BRBBSEACNOR5101
012013091796BBSE3F      020BBSEGURIDADEON      NM   R$  000000000207300000000021250000000002069000000000210100000000021200000000002113000000000212001000000000000000031123000000000065389920000000000000009999123100000010000000000000BRBBSEACNOR5101
012013091762BBSE3T      030BBSEGURIDADEON      NM090R$  000000000213100000000021320000000002131000000000213100000000021320000000000000000000000000000002000000000000002500000000000005328666000000000000009999123100000010000000000000BRBBSEACNOR5101
012013091702BBTG11      010BTG PACTUAL UNT          R$  000000000292900000000029380000000002867000000000289500000000029060000000002895000000000290601158000000000003436400000000009948754600000000000000009999123100000010000000000000BRBBTGUNT007105
012013091796BBTG11F     020BTG PACTUAL UNT          R$  000000000290800000000030000000000002878000000000290200000000030000000000002873000000000307000009000000000000000152000000000000441192000000000000009999123100000010000000000000BRBBTGUNT007105
012013091762BBTG11T     030BTG PACTUAL UNT       181R$  000000000303600000000030370000000003036000000000303600000000030370000000000000000000000000000004000000000003141900000000009539675564000000000000009999123100000010000000000000BRBBTGUNT007105
012013091712BBVJ11      010FII C JARDIMCI           R$  000000000766000000000077860000000007660000000000767800000000076900000000007695000000000778600013000000000000000958000000000007355738000000000000009999123100000010000000000000BRBBVJCTF001133
012013091712BCFF11B     010FII BC FFII CI  ER  MB   R$  000000000860100000000087000000000008601000000000863900000000086140000000008630000000000863100083000000000000003949000000000034115845000000000000009999123100000010000000000000BRBCFFCTF000142
012013091702BDLL4       010BARDELLA    PN           R$  000000000530000000000053000000000005300000000000530000000000053000000000005100000000000539000002000000000000000300000000000001590000000000000000009999123100000010000000000000BRBDLLACNPR8149
012013091702BEEF3       010MINERVA     ON      NM   R$  000000000110900000000011090000000001087000000000109500000000011000000000001100000000000110101174000000000000331700000000000363218300000000000000009999123100000010000000000000BRBEEFACNOR6104
012013091796BEEF3F      020MINERVA     ON      NM   R$  000000000109200000000010940000000001070000000000108600000000010940000000001070000000000114800006000000000000000115000000000000124916000000000000009999123100000010000000000000BRBEEFACNOR6104
012013091702BEES3       010BANESTES    ON           R$  000000000004900000000000500000000000048000000000004800000000000500000000000049000000000005000018000000000000099400000000000004815300000000000000009999123100000010000000000000BRBEESACNOR9244
012013091796BEES3F      020BANESTES    ON           R$  000000000004900000000000490000000000047000000000004800000000000470000000000047000000000005500002000000000000000030000000000000001450000000000000009999123100000010000000000000BRBEESACNOR9244
012013091702BEES4       010BANESTES    PN           R$  000000000004500000000000450000000000045000000000004500000000000450000000000044000000000004500005000000000000006300000000000000283500000000000000009999123100000010000000000000BRBEESACNPR6169
012013091702BEMA3       010BEMATECH    ON      NM   R$  000000000074500000000007850000000000745000000000076800000000007810000000000778000000000078100444000000000000177700000000000136643200000000000000009999123100000010000000000000BRBEMAACNOR0114
012013091796BEMA3F      020BEMATECH    ON      NM   R$  000000000071100000000007620000000000711000000000075400000000007620000000000714000000000079400005000000000000000147000000000000110969000000000000009999123100000010000000000000BRBEMAACNOR0114
012013091702BGIP3       010BANESE      ON           R$  000000000499900000000049990000000004999000000000499900000000049990000000004001000000000499900001000000000000000100000000000000499900000000000000009999123100000010000000000000BRBGIPACNOR1179
012013091702BGIP4       010BANESE      PN           R$  000000000474800000000047500000000004748000000000474900000000047500000000004750000000000478800002000000000000000300000000000001424800000000000000009999123100000010000000000000BRBGIPACNPR8179
012013091702BHGR3       010BHG         ON      NM   R$  000000000143100000000014400000000001420000000000142400000000014400000000001430000000000144000304000000000000074400000000000105950400000000000000009999123100000010000000000000BRBHGRACNOR9101
012013091762BHGR3T      030BHG         ON      NM120R$  000000000146600000000014670000000001466000000000146600000000014670000000000000000000000000000002000000000000000700000000000001026669000000000000009999123100000010000000000000BRBHGRACNOR9101
012013091796BICB3F      020BICBANCO    ON      N1   R$  000000000033600000000003360000000000336000000000033600000000003360000000000336000000000059600002000000000000000033000000000000011088000000000000009999123100000010000000000000BRBICBACNOR0131
012013091702BICB4       010BICBANCO    PN      N1   R$  000000000044500000000004450000000000435000000000044000000000004400000000000436000000000044100084000000000000112800000000000049634000000000000000009999123100000010000000000000BRBICBACNPR7131
012013091796BICB4F      020BICBANCO    PN      N1   R$  000000000045000000000004500000000000437000000000044400000000004370000000000430000000000049000003000000000000000011000000000000004885000000000000009999123100000010000000000000BRBICBACNPR7131
012013091702BIOM3       010BIOMM       ON           R$  000000000095000000000009500000000000950000000000095000000000009500000000000910000000000094900001000000000000001000000000000000950000000000000000009999123100000010000000000000BRBIOMACNOR2101
012013091796BIOM3F      020BIOMM       ON           R$  000000000087000000000009800000000000870000000000096900000000009800000000000800000000000097900009000000000000000954000000000000924895000000000000009999123100000010000000000000BRBIOMACNOR2101
012013091702BISA3       010BROOKFIELD  ON      NM   R$  000000000017800000000001820000000000176000000000017800000000001770000000000176000000000017704778000000000015294500000000002730441200000000000000009999123100000010000000000000BRBISAACNOR8109
012013091796BISA3F      020BROOKFIELD  ON      NM   R$  000000000017800000000001800000000000172000000000017800000000001760000000000176000000000017900018000000000000000500000000000000089187000000000000009999123100000010000000000000BRBISAACNOR8109
012013091762BISA3T      030BROOKFIELD  ON      NM030R$  000000000018300000000001840000000000183000000000018300000000001840000000000000000000000000000002000000000000025000000000000004584125000000000000009999123100000010000000000000BRBISAACNOR8109
012013091762BISA3T      030BROOKFIELD  ON      NM060R$  000000000018200000000001830000000000182000000000018200000000001830000000000000000000000000000002000000000000004000000000000000730008000000000000009999123100000010000000000000BRBISAACNOR8109
012013091762BISA3T      030BROOKFIELD  ON      NM090R$  000000000018000000000001810000000000179000000000018000000000001800000000000000000000000000000006000000000000350700000000000063249848000000000000009999123100000010000000000000BRBISAACNOR8109
012013091712BJRC11      010FII JS RECIMCI           R$  000000009000000000000900000000000090000000000009000000000000900000000000090000000000009200000002000000000000000059000000000005310000000000000000009999123100000010000000000000BRBJRCCTF007110
012013091702BMEB3       010MERC BRASIL ON           R$  000000000160100000000016010000000001601000000000160100000000016010000000001550000000000170000008000000000000100000000000000160100000000000000000009999123100000010000000000000BRBMEBACNOR8190
012013091702BMIN4       010MERC INVEST PN           R$  000000000002400000000000240000000000024000000000002400000000000240000000000023000000000002400002000000000000002000000000000000048000000000000000009999123100000010000000000000BRBMINACNPR1160
012013091712BMLC11B     010FII BMBRC LCCI  ER  MB   R$  000000001130000000000114900000000011300000000001131400000000114900000000011300000000001149000002000000000000000065000000000000735450000000000000009999123100000010000000000000BRBMLCCTF004119
012013091702BMTO4       010BRASMOTOR   PN           R$  000000000008700000000000870000000000085000000000008600000000000870000000000086000000000008700005000000000000057000000000000004903000000000000000009999123100000010000000000000BRBMTOACNPR6065
012013091712BNFS11      010FII BANRISULCI           R$  000000000999500000000099950000000009995000000000999500000000099950000000009800000000000999500002000000000000000011000000000000109945000000000000009999123100000010000000000000BRBNFSCTF000112
012013091702BOAC34      010BANK AMERICADRN          R$  000000000329500000000032950000000003295000000000329500000000032950000000003255000000000331500001000000000000000700000000000002306500000000000000009999123100000010000000000000BRBOACBDR004112
012013091714BOVA11      010ISHARES BOVACI           R$  000000000523900000000053240000000005234000000000528300000000053240000000005300000000000532402926000000000001271060000000006715721590000000000000009999123100000010000000000000BRBOVACTF003101
012013091796BOVA11F     020ISHARES BOVACI           R$  000000000520700000000052990000000005207000000000525200000000052080000000005208000000000531700007000000000000000013000000000000068283000000000000009999123100000010000000000000BRBOVACTF003101
012013091712BPFF11      010FII ABSOLUTOCI           R$  000000000835000000000083500000000008300000000000831100000000083500000000008300000000000835000022000000000000001093000000000009084181000000000000009999123100000010000000000000BRBPFFCTF002105
012013091702BPHA3       010BR PHARMA   ON      NM   R$  000000000083300000000008420000000000822000000000083000000000008300000000000825000000000083001018000000000000458600000000000380702000000000000000009999123100000010000000000000BRBPHAACNOR6102
012013091796BPHA3F      020BR PHARMA   ON      NM   R$  000000000082000000000008400000000000810000000000081900000000008400000000000811000000000082700005000000000000000101000000000000082767000000000000009999123100000010000000000000BRBPHAACNOR6102
012013091762BPHA3T      030BR PHARMA   ON      NM090R$  000000000084500000000008460000000000845000000000084500000000008460000000000000000000000000000002000000000000000200000000000000169165000000000000009999123100000010000000000000BRBPHAACNOR6102
012013091702BPNM4       010PANAMERICANOPN      N1   R$  000000000051400000000005140000000000490000000000050500000000005080000000000502000000000050800540000000000000217600000000000109906300000000000000009999123100000010000000000000BRBPNMACNPR6111
012013091796BPNM4F      020PANAMERICANOPN      N1   R$  000000000049900000000004990000000000498000000000049800000000004980000000000499000000000054800003000000000000000100000000000000049899000000000000009999123100000010000000000000BRBPNMACNPR6111
012013091702BRAP3       010BRADESPAR   ON      N1   R$  000000000205300000000021100000000002053000000000210200000000020860000000002086000000000209900282000000000000038300000000000080523600000000000000009999123100000010000000000000BRBRAPACNOR5124
012013091796BRAP3F      020BRADESPAR   ON      N1   R$  000000000208200000000021100000000002079000000000209600000000021020000000002080000000000210900011000000000000000164000000000000343763000000000000009999123100000010000000000000BRBRAPACNOR5124
012013091762BRAP3T      030BRADESPAR   ON      N1030R$  000000000209800000000020990000000002098000000000209800000000020990000000000000000000000000000002000000000000000600000000000001259232000000000000009999123100000010000000000000BRBRAPACNOR5124
012013091702BRAP4       010BRADESPAR   PN      N1   R$  000000000257000000000025850000000002538000000000255700000000025700000000002566000000000257004714000000000001175900000000003007155900000000000000009999123100000010000000000000BRBRAPACNPR2124
012013091796BRAP4F      020BRADESPAR   PN      N1   R$  000000000258000000000025900000000002527000000000255400000000025900000000002555000000000258900042000000000000001171000000000002991364000000000000009999123100000010000000000000BRBRAPACNPR2124
012013091762BRAP4T      030BRADESPAR   PN      N1062R$  000000000258800000000025890000000002588000000000258800000000025890000000000000000000000000000002000000000000001000000000000002588231000000000000009999123100000010000000000000BRBRAPACNPR2124
012013091778BRAPJ27     070BRAP        PN      N1000R$  000000000002900000000000290000000000029000000000002900000000000290000000000000000000000010000002000000000000000200000000000000005800000000000270002013102100000010000000000000BRBRAPACNPR2124
012013091778BRAPK28     070BRAP        PN      N1000R$  000000000005200000000000520000000000052000000000005200000000000520000000000000000000000010000002000000000000000200000000000000010400000000000280002013111800000010000000000000BRBRAPACNPR2124
012013091778BRAPL30     070BRAP        PN      N1000R$  000000000003000000000000300000000000030000000000003000000000000300000000000000000000000000000002000000000000139200000000000004176000000000000300002013121600000010000000000000BRBRAPACNPR2124
012013091782BRAPX22     080BRAPE       PN      N1000R$  000000000004000000000000400000000000040000000000004000000000000400000000000000000000000000000002000000000000139200000000000005568000000000000220002013121600000010000000000000BRBRAPACNPR2124
012013091782BRAPX24     080BRAPE       PN      N1000R$  000000000008100000000000810000000000081000000000008100000000000810000000000000000000000000000002000000000000139200000000000011275200000000000240002013121600000010000000000000BRBRAPACNPR2124
012013091714BRAX11      010ISHARES BRAXCI           R$  000000000423100000000042390000000004231000000000423800000000042390000000000000000000000000000002000000000000001410000000000005976910000000000000009999123100000010000000000000BRBRAXCTF002100
012013091712BRCR11      010FII BC FUND CI  ER       R$  000000001252900000000126940000000012450000000001258900000000126900000000012679000000001269000476000000000000037620000000000473609402000000000000009999123100000010000000000000BRBRCRCTF000133
012013091702BRFS3       010BRF SA      ON      NM   R$  000000000575100000000057510000000005627000000000569000000000056900000000005678000000000569006039000000000002567900000000014611683100000000000000009999123100000010000000000000BRBRFSACNOR8110
012013091796BRFS3F      020BRF SA      ON      NM   R$  000000000572000000000057200000000005629000000000566600000000056740000000005658000000000567400149000000000000004731000000000026811833000000000000009999123100000010000000000000BRBRFSACNOR8110
012013091762BRFS3T      030BRF SA      ON      NM016R$  000000000566000000000056610000000005660000000000566000000000056610000000000000000000000000000002000000000000001000000000000005660235000000000000009999123100000010000000000000BRBRFSACNOR8110
012013091762BRFS3T      030BRF SA      ON      NM030R$  000000000570500000000057060000000005677000000000570400000000056780000000000000000000000000000004000000000000002100000000000011979278000000000000009999123100000010000000000000BRBRFSACNOR8110
012013091762BRFS3T      030BRF SA      ON      NM090R$  000000000576700000000057680000000005762000000000576600000000057630000000000000000000000000000004000000000000001500000000000008649412000000000000009999123100000010000000000000BRBRFSACNOR8110
012013091778BRFSJ55     070BRFS        ON      NM000R$  000000000024800000000002480000000000248000000000024800000000002480000000000000000000000000000003000000000000001000000000000000248000000000000550002013102100000010000000000000BRBRFSACNOR8110
012013091778BRFSJ56     070BRFS        ON      NM000R$  000000000023100000000002350000000000231000000000023300000000002350000000000000000000000000000002000000000000000200000000000000046600000000000560002013102100000010000000000000BRBRFSACNOR8110
012013091778BRFSJ59     070BRFS        ON      NM000R$  000000000003500000000000600000000000035000000000003800000000000600000000000000000000000009000005000000000000001200000000000000046200000000000590002013102100000010000000000000BRBRFSACNOR8110
012013091778BRFSJ60     070BRFS        ON      NM000R$  000000000004400000000000440000000000044000000000004400000000000440000000000000000000000000000001000000000000002000000000000000088000000000000600002013102100000010000000000000BRBRFSACNOR8110
012013091782BRFSV55     080BRFSE       ON      NM000R$  000000000008800000000000880000000000078000000000008200000000000780000000000000000000000014000004000000000000005000000000000000410000000000000550002013102100000010000000000000BRBRFSACNOR8110
012013091702BRIN3       010BR INSURANCEON      NM   R$  000000000204000000000020400000000001978000000000198800000000019800000000001980000000000199401762000000000000563000000000001119773200000000000000009999123100000010000000000000BRBRINACNOR3106
012013091796BRIN3F      020BR INSURANCEON      NM   R$  000000000203900000000020390000000001980000000000199900000000020000000000001987000000000199300005000000000000000058000000000000115967000000000000009999123100000010000000000000BRBRINACNOR3106
012013091778BRINE50     070BRINE       ON      NM000R$  000000000016800000000001680000000000168000000000016800000000001680000000000000000000000000000002000000000000020000000000000003360000000000000202502014051900000010000000000000BRBRINACNOR3106
012013091796BRIV4F      020ALFA INVEST PN           R$  000000000053600000000005360000000000536000000000053600000000005360000000000541000000000060400001000000000000000004000000000000002144000000000000009999123100000010000000000000BRBRIVACNPR3197
012013091702BRKM3       010BRASKEM     ON      N1   R$  000000000126400000000012640000000001255000000000125500000000012550000000001235000000000125500002000000000000011900000000000014935400000000000000009999123100000010000000000000BRBRKMACNOR1110
012013091762BRKM3T      030BRASKEM     ON      N1030R$  000000000126600000000012670000000001266000000000126600000000012670000000000000000000000000000002000000000000011800000000000014942281000000000000009999123100000010000000000000BRBRKMACNOR1110
012013091702BRKM5       010BRASKEM     PNA     N1   R$  000000000186300000000018740000000001843000000000185600000000018580000000001857000000000185804775000000000001067400000000001982005000000000000000009999123100000010000000000000BRBRKMACNPA4110
012013091796BRKM5F      020BRASKEM     PNA     N1   R$  000000000186000000000018730000000001846000000000185700000000018630000000001852000000000186300039000000000000001017000000000001889538000000000000009999123100000010000000000000BRBRKMACNPA4110
012013091702BRML3       010BR MALLS PARON      NM   R$  000000000204700000000021050000000002034000000000208000000000021050000000002084000000000210508266000000000002805700000000005837482200000000000000009999123100000010000000000000BRBRMLACNOR9105
012013091796BRML3F      020BR MALLS PARON      NM   R$  000000000204900000000021070000000002038000000000207400000000021070000000002093000000000210700046000000000000001515000000000003142588000000000000009999123100000010000000000000BRBRMLACNOR9105
012013091702BRPR3       010BR PROPERT  ON      NM   R$  000000000191500000000019480000000001909000000000193500000000019380000000001937000000000193807193000000000002379300000000004605549800000000000000009999123100000010000000000000BRBRPRACNOR9112
012013091796BRPR3F      020BR PROPERT  ON      NM   R$  000000000191500000000019700000000001915000000000194300000000019180000000001918000000000197000033000000000000001013000000000001968648000000000000009999123100000010000000000000BRBRPRACNOR9112
012013091702BRSR6       010BANRISUL    PNB     N1   R$  000000000154900000000015750000000001520000000000154900000000015750000000001565000000000157502630000000000001138300000000001763324600000000000000009999123100000010000000000000BRBRSRACNPB4134
012013091796BRSR6F      020BANRISUL    PNB     N1   R$  000000000155500000000016390000000001532000000000157600000000016280000000001550000000000162700021000000000000000503000000000000793081000000000000009999123100000010000000000000BRBRSRACNPB4134
012013091702BSEV3       010BIOSEV      ON      NM   R$  000000000095900000000009750000000000900000000000096900000000009000000000000900000000000093800010000000000000019100000000000018526500000000000000009999123100000010000000000000BRBSEVACNOR3100
012013091796BSEV3F      020BIOSEV      ON      NM   R$  000000000095000000000009500000000000940000000000094500000000009400000000000888000000000094000003000000000000000058000000000000054823000000000000009999123100000010000000000000BRBSEVACNOR3100
012013091782BSEVS99     080BSEVE       ON      NM000R$  000000000055700000000005570000000000557000000000055700000000005570000000000000000000000000000001000000000000016700000000000009301900000000000165702014072100000010000000000000BRBSEVACNOR3100
012013091702BTOW3       010B2W DIGITAL ON      NM   R$  000000000154000000000015610000000001495000000000152000000000015030000000001503000000000151401012000000000000270300000000000411022900000000000000009999123100000010000000000000BRBTOWACNOR8105
012013091796BTOW3F      020B2W DIGITAL ON      NM   R$  000000000153100000000015500000000001502000000000152200000000015100000000001501000000000159000015000000000000000293000000000000446129000000000000009999123100000010000000000000BRBTOWACNOR8105
012013091702BTTL4       010BATTISTELLA PN           R$  000000000009900000000000990000000000099000000000009900000000000990000000000099000000000010000002000000000000002000000000000000198000000000000000009999123100000010000000000000BRBTTLACNPR7105
012013091702BVMF3       010BMFBOVESPA  ON      NM   R$  000000000128300000000012860000000001264000000000127700000000012860000000001280000000000128610566000000000006790700000000008672229200000000000000009999123100000010000000000000BRBVMFACNOR3126
012013091796BVMF3F      020BMFBOVESPA  ON      NM   R$  000000000127700000000012900000000001266000000000127300000000012720000000001265000000000127000086000000000000003105000000000003956205000000000000009999123100000010000000000000BRBVMFACNOR3126
012013091762BVMF3T      030BMFBOVESPA  ON      NM030R$  000000000128800000000012890000000001283000000000128700000000012840000000000000000000000000000004000000000000106000000000000136511714000000000000009999123100000010000000000000BRBVMFACNOR3126
012013091762BVMF3T      030BMFBOVESPA  ON      NM185R$  000000000134700000000013480000000001347000000000134700000000013480000000000000000000000000000002000000000000132700000000000178749780000000000000009999123100000010000000000000BRBVMFACNOR3126
012013091778BVMFA13     070BVMF        ON      NM000R$  000000000008200000000000820000000000082000000000008200000000000820000000000000000000000000000001000000000000000600000000000000049200000000000130002014012000000010000000000000BRBVMFACNOR3126
012013091778BVMFJ11     070BVMF        ON      NM000R$  000000000020100000000002010000000000197000000000019800000000001970000000000194000000000000000023000000000000035300000000000007022900000000000108502013102100000010000000000000BRBVMFACNOR3125
012013091778BVMFJ12     070BVMF  FM    ON      NM000R$  000000000011300000000001180000000000110000000000011300000000001160000000000104000000000011900048000000000000085300000000000009665000000000000118502013102100000010000000000000BRBVMFACNOR3125
012013091778BVMFJ13     070BVMF  FM    ON      NM000R$  000000000004300000000000500000000000041000000000004500000000000430000000000043000000000005000182000000000000353800000000000016081800000000000128502013102100000010000000000000BRBVMFACNOR3125
012013091778BVMFJ14     070BVMF  FM    ON      NM000R$  000000000001100000000000130000000000010000000000001100000000000100000000000010000000000001200035000000000000085200000000000000973800000000000138502013102100000010000000000000BRBVMFACNOR3125
012013091778BVMFJ15     070BVMF        ON      NM000R$  000000000000300000000000030000000000003000000000000300000000000030000000000002000000000000300002000000000000015000000000000000045000000000000148502013102100000010000000000000BRBVMFACNOR3125
012013091778BVMFJ16     070BVMF        ON      NM000R$  000000000000100000000000010000000000001000000000000100000000000010000000000000000000000000100001000000000000001000000000000000001000000000000160002013102100000010000000000000BRBVMFACNOR3126
012013091778BVMFJ42     070BVMF  FM    ON      NM000R$  000000000007000000000000780000000000070000000000007300000000000730000000000068000000000009500095000000000000115100000000000008411600000000000123502013102100000010000000000000BRBVMFACNOR3125
012013091778BVMFJ43     070BVMF  FM    ON      NM000R$  000000000002600000000000260000000000021000000000002300000000000220000000000000000000000003000012000000000000052600000000000001228700000000000133502013102100000010000000000000BRBVMFACNOR3125
012013091778BVMFK12     070BVMF  FM    ON      NM000R$  000000000012500000000001300000000000125000000000012600000000001300000000000124000000000000000002000000000000002800000000000000355000000000000118502013111800000010000000000000BRBVMFACNOR3125
012013091778BVMFK13     070BVMF  FM    ON      NM000R$  000000000006100000000000630000000000057000000000005900000000000590000000000059000000000012200007000000000000007900000000000000471900000000000128502013111800000010000000000000BRBVMFACNOR3125
012013091778BVMFK14     070BVMF  FM    ON      NM000R$  000000000001800000000000200000000000016000000000001800000000000200000000000005000000000000000313000000000000318500000000000005793900000000000138502013111800000010000000000000BRBVMFACNOR3125
012013091778BVMFK43     070BVMF  FM    ON      NM000R$  000000000003000000000000300000000000029000000000002900000000000300000000000000000000000000000011000000000000026200000000000000776000000000000135002013111800000010000000000000BRBVMFACNOR3126
012013091778BVMFL13     070BVMF        ON      NM000R$  000000000007500000000000750000000000071000000000007100000000000710000000000000000000000000000003000000000000001800000000000000128600000000000128502013121600000010000000000000BRBVMFACNOR3125
012013091782BVMFV11     080BVMFE       ON      NM000R$  000000000000400000000000050000000000004000000000000400000000000050000000000004000000000000500003000000000000001900000000000000009000000000000108502013102100000010000000000000BRBVMFACNOR3125
012013091782BVMFV12     080BVMFE FM    ON      NM000R$  000000000001800000000000180000000000016000000000001600000000000170000000000017000000000001900031000000000000070900000000000001176100000000000118502013102100000010000000000000BRBVMFACNOR3125
012013091782BVMFV13     080BVMFE FM    ON      NM000R$  000000000004700000000000500000000000045000000000004700000000000490000000000038000000000005500009000000000000020400000000000000961300000000000128502013102100000010000000000000BRBVMFACNOR3125
012013091782BVMFV40     080BVMFE       ON      NM000R$  000000000000100000000000010000000000001000000000000100000000000010000000000000000000000000000001000000000000000800000000000000000800000000000103502013102100000010000000000000BRBVMFACNOR3125
012013091782BVMFV42     080BVMFE FM    ON      NM000R$  000000000002800000000000290000000000026000000000002700000000000280000000000025000000000003100010000000000000019400000000000000524800000000000123502013102100000010000000000000BRBVMFACNOR3125
012013091782BVMFV43     080BVMFE       ON      NM000R$  000000000007600000000000760000000000076000000000007600000000000760000000000000000000000000000001000000000000001800000000000000136800000000000133502013102100000010000000000000BRBVMFACNOR3125
012013091782BVMFW10     080BVMFE       ON      NM000R$  000000000000400000000000040000000000004000000000000400000000000040000000000000000000000000000001000000000000001100000000000000004400000000000098502013111800000010000000000000BRBVMFACNOR3125
012013091782BVMFW11     080BVMFE       ON      NM000R$  000000000001000000000000120000000000010000000000001100000000000120000000000000000000000000000002000000000000001200000000000000014200000000000108502013111800000010000000000000BRBVMFACNOR3125
012013091782BVMFW12     080BVMFE FM    ON      NM000R$  000000000002700000000000270000000000027000000000002700000000000270000000000000000000000003000001000000000000001800000000000000048600000000000118502013111800000010000000000000BRBVMFACNOR3125
012013091782BVMFW13     080BVMFE FM    ON      NM000R$  000000000005800000000000580000000000057000000000005700000000000570000000000000000000000012200002000000000000003900000000000000222700000000000128502013111800000010000000000000BRBVMFACNOR3125
012013091782BVMFW41     080BVMFE FM    ON      NM000R$  000000000002000000000000200000000000020000000000002000000000000200000000000000000000000000000001000000000000003500000000000000070000000000000115002013111800000010000000000000BRBVMFACNOR3126
012013091702CAMB4       010CAMBUCI     PN           R$  000000000018600000000001860000000000186000000000018600000000001860000000000186000000000019600003000000000000002300000000000000427800000000000000009999123100000010000000000000BRCAMBACNPR1117
012013091796CAMB4F      020CAMBUCI     PN           R$  000000000017500000000001750000000000175000000000017500000000001750000000000110000000000025000001000000000000000001000000000000000175000000000000009999123100000010000000000000BRCAMBACNPR1117
012013091702CARD3       010CSU CARDSYSTON      NM   R$  000000000032000000000003230000000000313000000000031900000000003230000000000323000000000032400018000000000000022000000000000007031300000000000000009999123100000010000000000000BRCARDACNOR9105
012013091702CBEE3       010AMPLA ENERG ON *         R$  000000000013400000000001340000000000134000000000013400000000001340000000000126000000000013000001000000000001000000000000000000134000000000000000009999123100010000000000000000BRCBEEACNOR3149
012013091708CCHI3       010CHIARELLI   ON           R$  000000000001900000000000190000000000018000000000001800000000000180000000000018000000000001900033000000000000490000000000000008900000000000000000009999123100000010000000000000BRCCHIACNOR5123
012013091796CCHI3F      020CHIARELLI   ON           R$  000000000001800000000000180000000000018000000000001800000000000180000000000018000000000001900002000000000000003000000000000000054000000000000000009999123100000010000000000000BRCCHIACNOR5123
012013091708CCHI4       010CHIARELLI   PN           R$  000000000001500000000000150000000000014000000000001400000000000140000000000013000000000001500011000000000000130000000000000001880000000000000000009999123100000010000000000000BRCCHIACNPR2122
012013091702CCPR3       010CYRE COM-CCPON      NM   R$  000000000211700000000021330000000002104000000000212400000000021040000000002104000000000214500007000000000000000700000000000001487100000000000000009999123100000010000000000000BRCCPRACNOR9107
012013091796CCPR3F      020CYRE COM-CCPON      NM   R$  000000000206000000000020600000000002060000000000206000000000020600000000002100000000000228300001000000000000000001000000000000002060000000000000009999123100000010000000000000BRCCPRACNOR9107
012013091702CCRO3       010CCR SA      ON      NM   R$  000000000181000000000018170000000001779000000000179300000000017930000000001791000000000179310103000000000003850300000000006905510600000000000000009999123100000010000000000000BRCCROACNOR2122
012013091796CCRO3F      020CCR SA      ON      NM   R$  000000000181000000000018340000000001781000000000180000000000018090000000001787000000000181000068000000000000002334000000000004202363000000000000009999123100000010000000000000BRCCROACNOR2122
012013091762CCRO3T      030CCR SA      ON      NM030R$  000000000180400000000018050000000001804000000000180400000000018050000000000000000000000000000002000000000000004000000000000007217014000000000000009999123100000010000000000000BRCCROACNOR2122
012013091778CCROJ47     070CCRO        ON      NM000R$  000000000008300000000000830000000000083000000000008300000000000830000000000000000000000000000001000000000000011000000000000000913000000000000175002013102100000010000000000000BRCCROACNOR2122
012013091778CCROJ48     070CCRO        ON      NM000R$  000000000002900000000000290000000000013000000000002200000000000230000000000000000000000000000003000000000000022500000000000000505500000000000185002013102100000010000000000000BRCCROACNOR2122
012013091702CCXC3       010CCX CARVAO  ON      NM   R$  000000000016600000000001700000000000161000000000016400000000001610000000000161000000000016202344000000000004488700000000000739721900000000000000009999123100000010000000000000BRCCXCACNOR5100
012013091796CCXC3F      020CCX CARVAO  ON      NM   R$  000000000016600000000001670000000000166000000000016600000000001670000000000150000000000016300005000000000000000200000000000000033250000000000000009999123100000010000000000000BRCCXCACNOR5100
012013091762CCXC3T      030CCX CARVAO  ON      NM016R$  000000000016300000000001640000000000163000000000016300000000001640000000000000000000000000000002000000000000003000000000000000491054000000000000009999123100000010000000000000BRCCXCACNOR5100
012013091702CEBR6       010CEB         PNB          R$  000000000150000000000015000000000001500000000000150000000000015000000000001400000000000150000004000000000000001400000000000002100000000000000000009999123100000010000000000000BRCEBRACNPB6113
012013091702CEDO3       010CEDRO       ON      N1   R$  000000000096000000000009600000000000960000000000096000000000009600000000000960000000000101000001000000000000000500000000000000480000000000000000009999123100000010000000000000BRCEDOACNOR8094
012013091796CEDO3F      020CEDRO       ON      N1   R$  000000000090000000000009000000000000900000000000090000000000009000000000000900000000000100000003000000000000000060000000000000054000000000000000009999123100000010000000000000BRCEDOACNOR8094
012013091796CEEB3F      020COELBA      ON           R$  000000000309000000000030900000000003090000000000309000000000030900000000003011000000000350000001000000000000000030000000000000092700000000000000009999123100000010000000000000BRCEEBACNOR3163
012013091712CEOC11B     010FII CEO CCP CI  ER  MB   R$  000000000845000000000084600000000008311000000000840700000000083500000000008350000000000840000049000000000000003271000000000027500505000000000000009999123100000010000000000000BRCEOCCTF003110
012013091702CEPE5       010CELPE       PNA          R$  000000000210000000000021000000000002100000000000210000000000021000000000002000000000000210000002000000000000000400000000000000840000000000000000009999123100000010000000000000BRCEPEACNPA6151
012013091702CESP3       010CESP        ON      N1   R$  000000000175000000000017500000000001750000000000175000000000017500000000001727000000000174000002000000000000003200000000000005600000000000000000009999123100000010000000000000BRCESPACNOR3160
012013091796CESP3F      020CESP        ON      N1   R$  000000000174000000000017400000000001740000000000174000000000017400000000001700000000000174000001000000000000000004000000000000006960000000000000009999123100000010000000000000BRCESPACNOR3160
012013091762CESP3T      030CESP        ON      N1030R$  000000000176500000000017660000000001765000000000176500000000017660000000000000000000000000000002000000000000003100000000000005473825000000000000009999123100000010000000000000BRCESPACNOR3160
012013091702CESP5       010CESP        PNA     N1   R$  000000000232500000000023280000000002319000000000232400000000023190000000002346000000000235500005000000000000001000000000000002324100000000000000009999123100000010000000000000BRCESPACNPA6108
012013091796CESP5F      020CESP        PNA     N1   R$  000000000230000000000023000000000002300000000000230000000000023000000000002112000000000240000001000000000000000002000000000000004600000000000000009999123100000010000000000000BRCESPACNPA6108
012013091702CESP6       010CESP        PNB     N1   R$  000000000237900000000023930000000002350000000000236800000000023610000000002354000000000236302850000000000000978700000000002318111700000000000000009999123100000010000000000000BRCESPACNPB4119
012013091796CESP6F      020CESP        PNB     N1   R$  000000000239000000000023940000000002337000000000236800000000023890000000002310000000000239000027000000000000000745000000000001764377000000000000009999123100000010000000000000BRCESPACNPB4119
012013091762CESP6T      030CESP        PNB     N1030R$  000000000237900000000023800000000002379000000000237900000000023800000000000000000000000000000002000000000000119500000000000284396616000000000000009999123100000010000000000000BRCESPACNPB4119
012013091702CGAS3       010COMGAS      ON           R$  000000000528000000000052800000000005280000000000528000000000052800000000005201000000000549400001000000000000000100000000000000528000000000000000009999123100000010000000000000BRCGASACNOR0132
012013091702CGAS5       010COMGAS      PNA          R$  000000000584400000000059250000000005820000000000586600000000059250000000005878000000000592500156000000000000025000000000000146666300000000000000009999123100000010000000000000BRCGASACNPA3129
012013091796CGAS5F      020COMGAS      PNA          R$  000000000599800000000059980000000005839000000000589700000000058590000000005800000000000588800005000000000000000120000000000000707668000000000000009999123100000010000000000000BRCGASACNPA3129
012013091702CGRA3       010GRAZZIOTIN  ON           R$  000000000160100000000016050000000001601000000000160300000000016030000000001603000000000163000009000000000000003100000000000004971700000000000000009999123100000010000000000000BRCGRAACNOR2061
012013091702CGRA4       010GRAZZIOTIN  PN           R$  000000000179000000000017900000000001741000000000175600000000017410000000001741000000000177900011000000000000001700000000000002986400000000000000009999123100000010000000000000BRCGRAACNPR9061
012013091702CIEL3       010CIELO       ON  EDJ NM   R$  000000000576000000000058240000000005752000000000580800000000058240000000005800000000000582405323000000000001251100000000007266530400000000000000009999123100000010000000000000BRCIELACNOR3112
012013091796CIEL3F      020CIELO       ON  EDJ NM   R$  000000000576000000000058160000000005760000000000579900000000058000000000005776000000000580000192000000000000006092000000000035330647000000000000009999123100000010000000000000BRCIELACNOR3112
012013091778CIELJ60     070CIEL    /EDJON      NM000R$  000000000008000000000000800000000000080000000000008000000000000800000000000000000000000000000002000000000000001500000000000000120000000000000589402013102100000010000000000000BRCIELACNOR3111
012013091702CLSC4       010CELESC      PN      N2   R$  000000000178300000000017890000000001772000000000177700000000017720000000001760000000000178000053000000000000014900000000000026481800000000000000009999123100000010000000000000BRCLSCACNPR3107
012013091796CLSC4F      020CELESC      PN      N2   R$  000000000175000000000017510000000001750000000000175000000000017510000000001750000000000176500002000000000000000025000000000000043760000000000000009999123100000010000000000000BRCLSCACNPR3107
012013091702CMCS34      010COMCAST     DRN          R$  000000001010500000000101050000000010105000000001010500000000101050000000008800000000001080000001000000000000000300000000000003031500000000000000009999123100000010000000000000BRCMCSBDR008106
012013091758CMGR3       010CEMAT       ON           R$  000000000044000000000004400000000000440000000000044000000000004400000000000422000000000050000001000000000000000400000000000000176000000000000000009999123100000010000000000000BRCMGRACNOR7114
012013091702CMIG3       010CEMIG       ON      N1   R$  000000000186900000000019120000000001869000000000189100000000018900000000001877000000000189000398000000000000070900000000000134134200000000000000009999123100000010000000000000BRCMIGACNOR6208
012013091796CMIG3F      020CEMIG       ON      N1   R$  000000000194800000000019490000000001880000000000189400000000019130000000001880000000000191300024000000000000000291000000000000551239000000000000009999123100000010000000000000BRCMIGACNOR6208
012013091702CMIG4       010CEMIG       PN      N1   R$  000000000189000000000018940000000001855000000000187700000000018640000000001860000000000186406290000000000002835700000000005322011300000000000000009999123100000010000000000000BRCMIGACNPR3208
012013091796CMIG4F      020CEMIG       PN      N1   R$  000000000188500000000018990000000001862000000000188400000000018900000000001859000000000189000154000000000000004486000000000008451931000000000000009999123100000010000000000000BRCMIGACNPR3208
012013091762CMIG4T      030CEMIG       PN      N1017R$  000000000189800000000018990000000001898000000000189800000000018990000000000000000000000000000002000000000000002000000000000003796134000000000000009999123100000010000000000000BRCMIGACNPR3208
012013091762CMIG4T      030CEMIG       PN      N1030R$  000000000190300000000019040000000001874000000000187600000000018750000000000000000000000000000004000000000000021000000000000039401019000000000000009999123100000010000000000000BRCMIGACNPR3208
012013091762CMIG4T      030CEMIG       PN      N1062R$  000000000191900000000019200000000001919000000000191900000000019200000000000000000000000000000002000000000000001400000000000002686626000000000000009999123100000010000000000000BRCMIGACNPR3208
012013091762CMIG4T      030CEMIG       PN      N1090R$  000000000190100000000019020000000001901000000000190100000000019020000000000000000000000000000002000000000000010000000000000019016640000000000000009999123100000010000000000000BRCMIGACNPR3208
012013091778CMIGJ19     070CMIG        PN      N1000R$  000000000006000000000000610000000000060000000000006000000000000600000000000000000000000006100007000000000000001200000000000000072100000000000190002013102100000010000000000000BRCMIGACNPR3208
012013091778CMIGJ49     070CMIG        PN      N1000R$  000000000001000000000000160000000000010000000000001400000000000160000000000016000000000007000003000000000000002000000000000000028000000000000195002013102100000010000000000000BRCMIGACNPR3208
012013091712CNES11B     010FII CENESP  CI      MB   R$  000000001225000000000122500000000012250000000001225000000000122500000000012250000000001239700001000000000000000042000000000000514500000000000000009999123100000010000000000000BRCNESCTF001125
012013091702COCE3       010COELCE      ON           R$  000000000410100000000041930000000004099000000000410400000000040990000000004090000000000410000015000000000000002400000000000009851000000000000000009999123100000010000000000000BRCOCEACNOR0132
012013091702COCE5       010COELCE      PNA          R$  000000000400400000000040390000000003942000000000399000000000039420000000003942000000000400000087000000000000017900000000000071432200000000000000009999123100000010000000000000BRCOCEACNPA3133
012013091796COCE5F      020COELCE      PNA          R$  000000000402000000000041970000000004000000000000402300000000040300000000004000000000000419900028000000000000000370000000000001488852000000000000009999123100000010000000000000BRCOCEACNPA3133
012013091702CPFE3       010CPFL ENERGIAON      NM   R$  000000000194600000000019780000000001946000000000196300000000019780000000001975000000000197803814000000000000940500000000001846755200000000000000009999123100000010000000000000BRCPFEACNOR0122
012013091796CPFE3F      020CPFL ENERGIAON      NM   R$  000000000194000000000020000000000001940000000000196100000000020000000000001955000000000199900035000000000000001047000000000002054070000000000000009999123100000010000000000000BRCPFEACNOR0122
012013091702CPLE3       010COPEL       ON      N1   R$  000000000219200000000022010000000002167000000000218400000000021970000000002197000000000220000171000000000000098300000000000214746200000000000000009999123100000010000000000000BRCPLEACNOR8128
012013091796CPLE3F      020COPEL       ON      N1   R$  000000000219400000000022190000000002071000000000220900000000022000000000002125000000000218500015000000000000000287000000000000634255000000000000009999123100000010000000000000BRCPLEACNOR8128
012013091702CPLE6       010COPEL       PNB     N1   R$  000000000310000000000031390000000003083000000000311800000000031250000000003122000000000312503299000000000000578500000000001804288800000000000000009999123100000010000000000000BRCPLEACNPB9125
012013091796CPLE6F      020COPEL       PNB     N1   R$  000000000311000000000031930000000003100000000000313600000000031900000000003110000000000319000014000000000000000579000000000001816032000000000000009999123100000010000000000000BRCPLEACNPB9125
012013091702CPRE3       010CPFL RENOVAVON      NM   R$  000000000121800000000012180000000001195000000000120500000000012130000000001195000000000121400008000000000000001200000000000001446900000000000000009999123100000010000000000000BRCPREACNOR5100
012013091796CPRE3F      020CPFL RENOVAVON      NM   R$  000000000119000000000012480000000001190000000000119700000000012120000000001110000000000120000009000000000000000129000000000000154494000000000000009999123100000010000000000000BRCPREACNOR5100
012013091702CRDE3       010CR2         ON      NM   R$  000000000040500000000004230000000000405000000000041900000000004230000000000416000000000042400004000000000000001700000000000000713500000000000000009999123100000010000000000000BRCRDEACNOR1108
012013091702CREM3       010CREMER      ON      NM   R$  000000000144700000000014680000000001447000000000145600000000014680000000001427000000000146800059000000000000008300000000000012086000000000000000009999123100000010000000000000BRCREMACNOR2167
012013091796CREM3F      020CREMER      ON      NM   R$  000000000146300000000014630000000001463000000000146300000000014630000000001440000000000146300001000000000000000003000000000000004389000000000000009999123100000010000000000000BRCREMACNOR2167
012013091702CRIV3       010ALFA FINANC ON           R$  000000000051700000000005170000000000517000000000051700000000005170000000000472000000000051500001000000000000000100000000000000051700000000000000009999123100000010000000000000BRCRIVACNOR4190
012013091702CRIV4       010ALFA FINANC PN           R$  000000000044500000000004550000000000440000000000044400000000004490000000000439000000000045000013000000000000004300000000000001913300000000000000009999123100000010000000000000BRCRIVACNPR1190
012013091796CRIV4F      020ALFA FINANC PN           R$  000000000045000000000004500000000000450000000000045000000000004500000000000450000000000000000001000000000000000006000000000000002700000000000000009999123100000010000000000000BRCRIVACNPR1190
012013091702CRUZ3       010SOUZA CRUZ  ON           R$  000000000271600000000027380000000002706000000000272700000000027380000000002731000000000273804092000000000001248800000000003405542500000000000000009999123100000010000000000000BRCRUZACNOR0246
012013091796CRUZ3F      020SOUZA CRUZ  ON           R$  000000000271500000000027480000000002700000000000272100000000027000000000002700000000000274800053000000000000001727000000000004700012000000000000009999123100000010000000000000BRCRUZACNOR0246
012013091762CRUZ3T      030SOUZA CRUZ  ON        030R$  000000000274600000000027470000000002746000000000274600000000027470000000000000000000000000000002000000000000000800000000000002197308000000000000009999123100000010000000000000BRCRUZACNOR0246
012013091778CRUZJ27     070CRUZ        ON        000R$  000000000007800000000000780000000000078000000000007800000000000780000000000000000000000000000002000000000000001000000000000000078000000000000270002013102100000010000000000000BRCRUZACNOR0246
012013091778CRUZJ29     070CRUZ        ON        000R$  000000000001500000000000150000000000015000000000001500000000000150000000000000000000000000000001000000000000001800000000000000027000000000000290002013102100000010000000000000BRCRUZACNOR0246
012013091702CSAN3       010COSAN       ON      NM   R$  000000000431900000000043350000000004221000000000429000000000042930000000004275000000000429304536000000000001098800000000004713934700000000000000009999123100000010000000000000BRCSANACNOR6108
012013091796CSAN3F      020COSAN       ON      NM   R$  000000000430500000000044000000000004225000000000430000000000043240000000004243000000000432400046000000000000001423000000000006119658000000000000009999123100000010000000000000BRCSANACNOR6108
012013091762CSAN3T      030COSAN       ON      NM016R$  000000000433300000000043340000000004333000000000433300000000043340000000000000000000000000000002000000000000000300000000000001299937000000000000009999123100000010000000000000BRCSANACNOR6108
012013091778CSANJ46     070CSAN        ON      NM000R$  000000000002200000000000220000000000022000000000002200000000000220000000000000000000000000000002000000000000001200000000000000026400000000000460002013102100000010000000000000BRCSANACNOR6108
012013091702CSMG3       010COPASA      ON      NM   R$  000000000330300000000034050000000003295000000000334400000000033970000000003380000000000339702042000000000001059400000000003543646500000000000000009999123100000010000000000000BRCSMGACNOR5127
012013091796CSMG3F      020COPASA      ON      NM   R$  000000000339900000000034680000000003301000000000335300000000033510000000003351000000000349300023000000000000000495000000000001659749000000000000009999123100000010000000000000BRCSMGACNOR5127
012013091778CSMGJ35     070CSMG        ON      NM000R$  000000000005500000000000560000000000055000000000005500000000000560000000000000000000000000000003000000000000010500000000000000582700000000000350002013102100000010000000000000BRCSMGACNOR5127
012013091714CSMO11      010ISHARES CSMOCI           R$  000000000481500000000048150000000004787000000000478700000000047890000000004673000000000481500003000000000000000440000000000002106680000000000000009999123100000010000000000000BRCSMOCTF002100
012013091702CSNA3       010SID NACIONALON           R$  000000000093300000000009380000000000914000000000093100000000009330000000000932000000000093311665000000000007817500000000007280811900000000000000009999123100000010000000000000BRCSNAACNOR6243
012013091796CSNA3F      020SID NACIONALON           R$  000000000093300000000009380000000000919000000000093100000000009360000000000929000000000094100057000000000000001761000000000001639501000000000000009999123100000010000000000000BRCSNAACNOR6243
012013091762CSNA3T      030SID NACIONALON        030R$  000000000093300000000009370000000000933000000000093600000000009370000000000000000000000000000004000000000000007500000000000007023407000000000000009999123100000010000000000000BRCSNAACNOR6243
012013091762CSNA3T      030SID NACIONALON        062R$  000000000094400000000009450000000000944000000000094400000000009450000000000000000000000000000002000000000000003200000000000003021207000000000000009999123100000010000000000000BRCSNAACNOR6243
012013091762CSNA3T      030SID NACIONALON        090R$  000000000095200000000009530000000000952000000000095200000000009530000000000000000000000000000002000000000000000500000000000000476157000000000000009999123100000010000000000000BRCSNAACNOR6243
012013091778CSNAA40     070CSNA        ON        000R$  000000000005800000000000580000000000058000000000005800000000000580000000000000000000000000000005000000000000005000000000000000290000000000000103002014012000000010000000000000BRCSNAACNOR6242
012013091778CSNAJ10     070CSNA  FM    ON        000R$  000000000002300000000000270000000000023000000000002500000000000250000000000000000000000002500007000000000000004800000000000000123600000000000100002013102100000010000000000000BRCSNAACNOR6243
012013091778CSNAJ40     070CSNA        ON        000R$  000000000001500000000000150000000000015000000000001500000000000150000000000004000000000000000001000000000000007700000000000000115500000000000104002013102100000010000000000000BRCSNAACNOR6243
012013091778CSNAJ60     070CSNA        ON        000R$  000000000001100000000000140000000000011000000000001200000000000130000000000000000000000001500008000000000000018200000000000000224700000000000106002013102100000010000000000000BRCSNAACNOR6243
012013091778CSNAJ7      070CSNA        ON        000R$  000000000025500000000002550000000000255000000000025500000000002550000000000000000000000000000001000000000000000200000000000000051000000000000068002013102100000010000000000000BRCSNAACNOR6242
012013091778CSNAJ82     070CSNA        ON        000R$  000000000014800000000001480000000000148000000000014800000000001480000000000000000000000000000002000000000000002000000000000000296000000000000080002013102100000010000000000000BRCSNAACNOR6242
012013091778CSNAJ86     070CSNA        ON        000R$  000000000011200000000001120000000000112000000000011200000000001120000000000000000000000000000001000000000000000500000000000000056000000000000084002013102100000010000000000000BRCSNAACNOR6242
012013091778CSNAJ9      070CSNA        ON        000R$  000000000007700000000000820000000000077000000000008000000000000820000000000063000000000010500004000000000000003900000000000000314200000000000088002013102100000010000000000000BRCSNAACNOR6242
012013091778CSNAJ92     070CSNA  FM    ON        000R$  000000000006200000000000620000000000062000000000006200000000000620000000000041000000000000000003000000000000010000000000000000620000000000000092002013102100000010000000000000BRCSNAACNOR6243
012013091778CSNAJ94     070CSNA  FM    ON        000R$  000000000005100000000000520000000000048000000000004900000000000490000000000032000000000006500015000000000000023700000000000001163000000000000094002013102100000010000000000000BRCSNAACNOR6243
012013091778CSNAJ96     070CSNA  FM    ON        000R$  000000000004000000000000410000000000039000000000003900000000000400000000000000000000000000000007000000000000025200000000000001006500000000000096002013102100000010000000000000BRCSNAACNOR6243
012013091778CSNAJ98     070CSNA  FM    ON        000R$  000000000003000000000000340000000000030000000000003200000000000330000000000003000000000004000007000000000000010500000000000000336600000000000098002013102100000010000000000000BRCSNAACNOR6243
012013091778CSNAK10     070CSNA  FM    ON        000R$  000000000004700000000000550000000000047000000000005300000000000520000000000000000000000000000013000000000000024200000000000001288200000000000098002013111800000010000000000000BRCSNAACNOR6242
012013091778CSNAK60     070CSNA        ON        000R$  000000000002500000000000250000000000024000000000002400000000000240000000000000000000000000000003000000000000003000000000000000074000000000000106002013111800000010000000000000BRCSNAACNOR6243
012013091778CSNAK8      070CSNA        ON        000R$  000000000017500000000001860000000000175000000000018500000000001860000000000000000000000000000002000000000000001100000000000000203500000000000078002013111800000010000000000000BRCSNAACNOR6242
012013091778CSNAK86     070CSNA        ON        000R$  000000000011000000000001160000000000110000000000011300000000001160000000000000000000000000000002000000000000002000000000000000226000000000000086002013111800000010000000000000BRCSNAACNOR6243
012013091778CSNAK92     070CSNA  FM    ON        000R$  000000000007500000000000810000000000075000000000007800000000000810000000000000000000000000000002000000000000002000000000000000156000000000000092002013111800000010000000000000BRCSNAACNOR6243
012013091778CSNAK96     070CSNA  FM    ON        000R$  000000000006100000000000610000000000059000000000006000000000000590000000000000000000000000000002000000000000007000000000000000420000000000000096002013111800000010000000000000BRCSNAACNOR6243
012013091778CSNAL20     070CSNA        ON        000R$  000000000004600000000000460000000000046000000000004600000000000460000000000000000000000000000001000000000000001000000000000000046000000000000102002013121600000010000000000000BRCSNAACNOR6243
012013091782CSNAU15     080CSNAE       ON        000R$  000000000044700000000004470000000000447000000000044700000000004470000000000000000000000000000001000000000000022000000000000009834000000000000150002014091500000010000000000000BRCSNAACNOR6243
012013091782CSNAV10     080CSNAE       ON        000R$  000000000009200000000001000000000000092000000000009600000000001000000000000081000000000009800029000000000000002900000000000000279700000000000100002013102100000010000000000000BRCSNAACNOR6243
012013091782CSNAV12     080CSNAE       ON        000R$  000000000001200000000000120000000000012000000000001200000000000120000000000000000000000000000002000000000001500000000000000018000000000000000082002013102100000010000000000000BRCSNAACNOR6243
012013091782CSNAV74     080CSNAE       ON        000R$  000000000000800000000000080000000000008000000000000800000000000080000000000000000000000000000001000000000000001000000000000000008000000000000074002013102100000010000000000000BRCSNAACNOR6243
012013091782CSNAV8      080CSNAE       ON        000R$  000000000001000000000000100000000000008000000000000900000000000080000000000007000000000000800015000000000000027000000000000000247000000000000078002013102100000010000000000000BRCSNAACNOR6242
012013091782CSNAV9      080CSNAE FM    ON        000R$  000000000002800000000000280000000000028000000000002800000000000280000000000028000000000003200004000000000000005900000000000000165200000000000088002013102100000010000000000000BRCSNAACNOR6242
012013091782CSNAV90     080CSNAE       ON        000R$  000000000003500000000000350000000000035000000000003500000000000350000000000000000000000000000002000000000001500000000000000052500000000000000090002013102100000010000000000000BRCSNAACNOR6243
012013091782CSNAV92     080CSNAE FM    ON        000R$  000000000004500000000000450000000000041000000000004200000000000430000000000000000000000005000011000000000000021500000000000000921000000000000092002013102100000010000000000000BRCSNAACNOR6243
012013091782CSNAV94     080CSNAE FM    ON        000R$  000000000005100000000000520000000000051000000000005100000000000520000000000000000000000000000002000000000000003500000000000000180000000000000094002013102100000010000000000000BRCSNAACNOR6243
012013091782CSNAV96     080CSNAE FM    ON        000R$  000000000006200000000000620000000000062000000000006200000000000620000000000000000000000020000001000000000000001500000000000000093000000000000096002013102100000010000000000000BRCSNAACNOR6243
012013091782CSNAW9      080CSNAE FM    ON        000R$  000000000005500000000000550000000000050000000000005100000000000500000000000000000000000000000011000000000000019900000000000001031900000000000090002013111800000010000000000000BRCSNAACNOR6243
012013091782CSNAW92     080CSNAE FM    ON        000R$  000000000006000000000000600000000000059000000000005900000000000590000000000000000000000000000002000000000000002700000000000000160300000000000092002013111800000010000000000000BRCSNAACNOR6243
012013091782CSNAW94     080CSNAE FM    ON        000R$  000000000006800000000000680000000000068000000000006800000000000680000000000000000000000000000001000000000000001000000000000000068000000000000094002013111800000010000000000000BRCSNAACNOR6243
012013091782CSNAW96     080CSNAE FM    ON        000R$  000000000008000000000000800000000000080000000000008000000000000800000000000000000000000000000003000000000000005000000000000000400000000000000096002013111800000010000000000000BRCSNAACNOR6243
012013091702CTAX11      010CONTAX      UNT     N2   R$  000000000189000000000019000000000001885000000000189200000000018900000000001890000000000190000470000000000000096400000000000182463800000000000000009999123100000010000000000000BRCTAXCDAM19100
012013091762CTAX11T     030CONTAX      UNT     N2062R$  000000000192600000000019270000000001920000000000192500000000019210000000000000000000000000000008000000000000005100000000000009821705000000000000009999123100000010000000000000BRCTAXCDAM19100
012013091762CTAX11T     030CONTAX      UNT     N2090R$  000000000192900000000019380000000001924000000000192900000000019300000000000000000000000000000030000000000000041400000000000079865386000000000000009999123100000010000000000000BRCTAXCDAM19100
012013091702CTAX3       010CONTAX      ON      N2   R$  000000000039000000000003900000000000390000000000039000000000003900000000000354000000000039600002000000000000001000000000000000390000000000000000009999123100000010000000000000BRCTAXACNOR3113
012013091796CTAX3F      020CONTAX      ON      N2   R$  000000000039900000000003990000000000399000000000039900000000003990000000000355000000000039900001000000000000000001000000000000000399000000000000009999123100000010000000000000BRCTAXACNOR3113
012013091702CTAX4       010CONTAX      PN      N2   R$  000000000037100000000003790000000000370000000000037400000000003710000000000371000000000037900196000000000000044300000000000016586200000000000000009999123100000010000000000000BRCTAXACNPR0114
012013091796CTAX4F      020CONTAX      PN      N2   R$  000000000038500000000004210000000000377000000000038900000000004210000000000377000000000042000011000000000000000262000000000000102177000000000000009999123100000010000000000000BRCTAXACNPR0114
012013091702CTGP34      010CITIGROUP   DRN          R$  000000001154400000000115440000000011544000000001154400000000115440000000011500000000001163500001000000000000000100000000000001154400000000000000009999123100000010000000000000BRCTGPBDR000111
012013091702CTIP3       010CETIP       ON      NM   R$  000000000241000000000024110000000002356000000000237700000000023830000000002380000000000238307183000000000001693300000000004026411600000000000000009999123100000010000000000000BRCTIPACNOR2119
012013091796CTIP3F      020CETIP       ON      NM   R$  000000000240500000000024350000000002351000000000238000000000023510000000002351000000000243400039000000000000001274000000000003032228000000000000009999123100000010000000000000BRCTIPACNOR2119
012013091762CTIP3T      030CETIP       ON      NM090R$  000000000244400000000024450000000002444000000000244400000000024450000000000000000000000000000002000000000000006300000000000015403493000000000000009999123100000010000000000000BRCTIPACNOR2119
012013091702CTKA4       010KARSTEN     PN           R$  000000000010400000000001150000000000101000000000010500000000001140000000000110000000000011400027000000000000012800000000000001352500000000000000009999123100000010000000000000BRCTKAACNPR7041
012013091796CTNM3F      020COTEMINAS   ON           R$  000000000020600000000002060000000000206000000000020600000000002060000000000206000000000000000002000000000000000018000000000000003708000000000000009999123100000010000000000000BRCTNMACNOR9129
012013091702CTNM4       010COTEMINAS   PN           R$  000000000023700000000002370000000000230000000000023600000000002370000000000228000000000023700006000000000000090600000000000021471400000000000000009999123100000010000000000000BRCTNMACNPR6128
012013091762CTNM4T      030COTEMINAS   PN        030R$  000000000023900000000002400000000000239000000000023900000000002400000000000000000000000000000002000000000000010000000000000002391330000000000000009999123100000010000000000000BRCTNMACNPR6128
012013091762CTNM4T      030COTEMINAS   PN        273R$  000000000025500000000002560000000000255000000000025500000000002560000000000000000000000000000002000000000000080000000000000020400960000000000000009999123100000010000000000000BRCTNMACNPR6128
012013091702CTSA3       010SANTANENSE  ON           R$  000000000056500000000005650000000000565000000000056500000000005650000000000533000000000056500001000000000000001400000000000000791000000000000000009999123100000010000000000000BRCTSAACNOR3051
012013091762CTSA3T      030SANTANENSE  ON        078R$  000000000057500000000005760000000000575000000000057500000000005760000000000000000000000000000002000000000000001400000000000000805475000000000000009999123100000010000000000000BRCTSAACNOR3051
012013091796CTSA4F      020SANTANENSE  PN           R$  000000000055000000000005500000000000550000000000055000000000005500000000000530000000000058000002000000000000000042000000000000023100000000000000009999123100000010000000000000BRCTSAACNPR0051
012013091712CXCE11B     010FII CX CEDAECI      MB   R$  000000019000000000001900000000000190000000000019000000000001900000000000190000000000019800000004000000000000000066000000000012540000000000000000009999123100000010000000000000BRCXCECTF004138
012013091712CXTL11      010FII CX TRX  CI           R$  000000007200000000000720000000000072000000000007200000000000720000000000071166000000007299000001000000000000000001000000000000072000000000000000009999123100000010000000000000BRCXTLCTF003122
012013091702CYRE3       010CYRELA REALTON      NM   R$  000000000168500000000017060000000001670000000000169800000000017050000000001701000000000170505923000000000002329000000000003955769700000000000000009999123100000010000000000000BRCYREACNOR7125
012013091796CYRE3F      020CYRELA REALTON      NM   R$  000000000168700000000017290000000001664000000000169600000000016760000000001676000000000172900023000000000000000673000000000001141601000000000000009999123100000010000000000000BRCYREACNOR7125
012013091778CYREJ16     070CYRE  FM    ON      NM000R$  000000000012900000000001390000000000129000000000013500000000001370000000000000000000000000000005000000000000017500000000000002369500000000000160002013102100000010000000000000BRCYREACNOR7125
012013091778CYREJ17     070CYRE  FM    ON      NM000R$  000000000005700000000000700000000000057000000000006600000000000690000000000000000000000000000010000000000000019900000000000001329500000000000170002013102100000010000000000000BRCYREACNOR7125
012013091778CYREJ18     070CYRE  FM    ON      NM000R$  000000000002500000000000250000000000025000000000002500000000000250000000000000000000000002800002000000000000002100000000000000052500000000000180002013102100000010000000000000BRCYREACNOR7125
012013091778CYREJ46     070CYRE  FM    ON      NM000R$  000000000009600000000001010000000000093000000000009800000000001000000000000000000000000000000010000000000000030600000000000003018000000000000165002013102100000010000000000000BRCYREACNOR7125
012013091778CYREJ47     070CYRE  FM    ON      NM000R$  000000000004500000000000450000000000044000000000004400000000000440000000000000000000000000000002000000000000004900000000000000217000000000000175002013102100000010000000000000BRCYREACNOR7125
012013091778CYREK16     070CYRE  FM    ON      NM000R$  000000000015400000000001640000000000154000000000016000000000001620000000000000000000000000000006000000000000020200000000000003244400000000000160002013111800000010000000000000BRCYREACNOR7125
012013091778CYREK17     070CYRE  FM    ON      NM000R$  000000000009100000000000980000000000091000000000009500000000000960000000000000000000000000000003000000000000010500000000000000997500000000000170002013111800000010000000000000BRCYREACNOR7125
012013091778CYREK18     070CYRE  FM    ON      NM000R$  000000000005200000000000520000000000052000000000005200000000000520000000000000000000000000000001000000000000003500000000000000182000000000000180002013111800000010000000000000BRCYREACNOR7125
012013091778CYREK20     070CYRE        ON      NM000R$  000000000001200000000000120000000000012000000000001200000000000120000000000000000000000000000001000000000000003000000000000000036000000000000200002013111800000010000000000000BRCYREACNOR7125
012013091778CYREK21     070CYRE        ON      NM000R$  000000000000500000000000050000000000005000000000000500000000000050000000000000000000000000000002000000000000006000000000000000030000000000000210002013111800000010000000000000BRCYREACNOR7125
012013091778CYREK46     070CYRE  FM    ON      NM000R$  000000000012900000000001290000000000126000000000012700000000001260000000000000000000000000000003000000000000007000000000000000892500000000000165002013111800000010000000000000BRCYREACNOR7125
012013091778CYREK47     070CYRE  FM    ON      NM000R$  000000000007200000000000720000000000072000000000007200000000000720000000000000000000000000000001000000000000003500000000000000252000000000000175002013111800000010000000000000BRCYREACNOR7125
