00COTAHIST.2013BOVESPA 20130723                                                                                                                                                                                                                      
012013072302AAPL11B     010APPLE       DRN     MB   R$  000000000940900000000094090000000009409000000000940900000000094090000000009250000000000935000001000000000000003800000000000035754200000000000000009999123100000010000000000000BRAAPLBDR004104
012013072310ABCB2       010ABC BRASIL  DIR PRE N2   R$  000000000019300000000002280000000000193000000000020500000000002280000000000195000000000000000003000000000000000300000000000000061600000000000000009999123100000010000000000000BRABCBD03PR5119
012013072396ABCB2F      020ABC BRASIL  DIR PRE N2   R$  000000000012000000000001900000000000120000000000017500000000001800000000000180000000000021000014000000000000000280000000000000049151000000000000009999123100000010000000000000BRABCBD03PR5119
012013072302ABCB4       010ABC BRASIL  PN      N2   R$  000000000126900000000013090000000001267000000000128300000000012880000000001287000000000128800757000000000000298400000000000383002800000000000000009999123100000010000000000000BRABCBACNPR4120
012013072396ABCB4F      020ABC BRASIL  PN      N2   R$  000000000126500000000013000000000001265000000000128900000000013000000000001285000000000130000014000000000000000181000000000000233417000000000000009999123100000010000000000000BRABCBACNPR4120
012013072312ABCP11      010FII ABC IMOBCI           R$  000000000091000000000009100000000000910000000000091000000000009100000000000901000000000093000001000000000000000500000000000000455000000000000000009999123100000010000000000000BRABCPCTF000213
012013072302ABRE11      010ABRIL EDUCA UNT     N2   R$  000000000378200000000037900000000003688000000000372700000000037200000000003712000000000372000629000000000000151800000000000565779200000000000000009999123100000010000000000000BRABRECDAM15102
012013072396ABRE11F     020ABRIL EDUCA UNT     N2   R$  000000000380000000000038020000000003702000000000372100000000037110000000003405000000000370000019000000000000000408000000000001518322000000000000009999123100000010000000000000BRABRECDAM15102
012013072302ABTT11B     010ABBOTT      DRN     MB   R$  000000000204300000000020430000000002043000000000204300000000020430000000002010000000000205000003000000000000007300000000000014913900000000000000009999123100000010000000000000BRABTTBDR007107
012013072302AEDU3       010ANHANGUERA  ON      NM   R$  000000000131400000000013190000000001292000000000130800000000013140000000001310000000000131404636000000000001371400000000001794840100000000000000009999123100000010000000000000BRAEDUACNOR9107
012013072396AEDU3F      020ANHANGUERA  ON      NM   R$  000000000131700000000013470000000001295000000000130900000000013160000000001300000000000131500018000000000000000506000000000000662536000000000000009999123100000010000000000000BRAEDUACNOR9107
012013072312AEFI11      010FII AESAPAR CI           R$  000000001232600000000123500000000012260000000001228500000000122600000000012260000000001238500024000000000000000566000000000006953860000000000000009999123100000010000000000000BRAEFICTF002119
012013072302AELP3       010AES ELPA    ON           R$  000000000076900000000007690000000000719000000000073200000000007690000000000721000000000076900003000000000000001100000000000000805900000000000000009999123100000010000000000000BRAELPACNOR2119
012013072312AGCX11      010FII AG CAIXACI           R$  000000010045000000001005000000000100300000000010047100000001005000000000100250000000010050000009000000000000000085000000000008540050000000000000009999123100000010000000000000BRAGCXCTF003108
012013072302AGEN11      010AGRENCO     DR3          R$  000000000006500000000000670000000000061000000000006400000000000640000000000064000000000006501304000000000017540200000000001124653000000000000000009999123100000010000000000000BRAGENBDR001100
012013072396AGEN11F     020AGRENCO     DR3          R$  000000000006500000000000650000000000062000000000006400000000000650000000000065000000000006600005000000000000000085000000000000005522000000000000009999123100000010000000000000BRAGENBDR001100
012013072362AGEN11T     030AGRENCO     DR3       090R$  000000000006600000000000670000000000066000000000006600000000000670000000000000000000000000000002000000000000020000000000000001327300000000000000009999123100000010000000000000BRAGENBDR001100
012013072302AGRO3       010BRASILAGRO  ON      NM   R$  000000000103200000000011000000000001030000000000104600000000011000000000001038000000000110000029000000000000008100000000000008479600000000000000009999123100000010000000000000BRAGROACNOR7102
012013072396AGRO3F      020BRASILAGRO  ON      NM   R$  000000000104000000000010400000000001040000000000104000000000010400000000000900000000000104000001000000000000000025000000000000026000000000000000009999123100000010000000000000BRAGROACNOR7102
012013072302ALLL3       010ALL AMER LATON      NM   R$  000000000088700000000009030000000000874000000000088700000000008800000000000880000000000088107630000000000002643800000000002345378900000000000000009999123100000010000000000000BRALLLACNOR6118
012013072396ALLL3F      020ALL AMER LATON      NM   R$  000000000088600000000009000000000000876000000000088600000000008760000000000875000000000089000040000000000000001185000000000001050228000000000000009999123100000010000000000000BRALLLACNOR6118
012013072362ALLL3T      030ALL AMER LATON      NM030R$  000000000090400000000009050000000000904000000000090400000000009050000000000000000000000000000002000000000000005000000000000004520532000000000000009999123100000010000000000000BRALLLACNOR6118
012013072362ALLL3T      030ALL AMER LATON      NM062R$  000000000089700000000008980000000000897000000000089700000000008980000000000000000000000000000002000000000000002300000000000002065310000000000000009999123100000010000000000000BRALLLACNOR6118
012013072312ALMI11B     010FII TORRE ALCI      MB   R$  000000031990000000003200000000000315000000000031745600000003200000000000313301000000032000000005000000000000000023000000000007301495000000000000009999123100000010000000000000BRALMICTF003203
012013072302ALPA3       010ALPARGATAS  ON      N1   R$  000000000105600000000010580000000001056000000000105700000000010580000000001057000000000107000002000000000000016300000000000017245200000000000000009999123100000010000000000000BRALPAACNOR0202
012013072302ALPA4       010ALPARGATAS  PN      N1   R$  000000000135200000000013560000000001310000000000133300000000013380000000001337000000000133800634000000000000229800000000000306389300000000000000009999123100000010000000000000BRALPAACNPR7202
012013072396ALPA4F      020ALPARGATAS  PN      N1   R$  000000000135000000000013500000000001318000000000133400000000013300000000001311000000000134000012000000000000000207000000000000276266000000000000009999123100000010000000000000BRALPAACNPR7202
012013072302ALSC3       010ALIANSCE    ON      NM   R$  000000000207000000000020750000000002027000000000204800000000020550000000002048000000000206101778000000000000315400000000000646173000000000000000009999123100000010000000000000BRALSCACNOR0104
012013072396ALSC3F      020ALIANSCE    ON      NM   R$  000000000205800000000020640000000002058000000000205800000000020610000000001904000000000211700005000000000000000128000000000000263525000000000000009999123100000010000000000000BRALSCACNOR0104
012013072302ALUP11      010ALUPAR      UNT     N2   R$  000000000178000000000018100000000001761000000000178200000000017890000000001773000000000178900448000000000000260200000000000463822800000000000000009999123100000010000000000000BRALUPCDAM15100
012013072396ALUP11F     020ALUPAR      UNT     N2   R$  000000000178900000000017960000000001701000000000177900000000017020000000001774000000000179400007000000000000000193000000000000343473000000000000009999123100000010000000000000BRALUPCDAM15100
012013072302AMAR3       010LOJAS MARISAON      NM   R$  000000000224300000000022430000000002140000000000218600000000021750000000002175000000000217800649000000000000171100000000000374063100000000000000009999123100000010000000000000BRAMARACNOR4109
012013072396AMAR3F      020LOJAS MARISAON      NM   R$  000000000224500000000022450000000002160000000000221000000000021850000000002163000000000234500012000000000000000270000000000000596904000000000000009999123100000010000000000000BRAMARACNOR4109
012013072362AMAR3T      030LOJAS MARISAON      NM121R$  000000000223200000000022330000000002232000000000223200000000022330000000000000000000000000000002000000000000001300000000000002901863000000000000009999123100000010000000000000BRAMARACNOR4109
012013072302AMBV3       010AMBEV       ON           R$  000000000817100000000082390000000008112000000000818700000000081790000000008179000000000819800836000000000000116500000000000953824100000000000000009999123100000010000000000000BRAMBVACNOR4153
012013072396AMBV3F      020AMBEV       ON           R$  000000000810100000000082410000000008101000000000818300000000082200000000008125000000000822000035000000000000000896000000000007332105000000000000009999123100000010000000000000BRAMBVACNOR4153
012013072302AMBV4       010AMBEV       PN           R$  000000000819500000000082740000000008156000000000821500000000082110000000008211000000000821605934000000000001100700000000009042268700000000000000009999123100000010000000000000BRAMBVACNPR1153
012013072396AMBV4F      020AMBEV       PN           R$  000000000824900000000082790000000008127000000000822000000000082410000000008218000000000824100116000000000000003004000000000024694078000000000000009999123100000010000000000000BRAMBVACNPR1153
012013072362AMBV4T      030AMBEV       PN        062R$  000000000834700000000083490000000008347000000000834700000000083490000000000000000000000000000004000000000000000600000000000005008742000000000000009999123100000010000000000000BRAMBVACNPR1153
012013072362AMBV4T      030AMBEV       PN        121R$  000000000844500000000084460000000008445000000000844500000000084460000000000000000000000000000002000000000000000100000000000000844522000000000000009999123100000010000000000000BRAMBVACNPR1153
012013072378AMBVH84     070AMBV        PN        000R$  000000000011000000000001340000000000105000000000012300000000001340000000000065000000000000000025000000000000016000000000000001978400000000000840002013081900000010000000000000BRAMBVACNPR1153
012013072378AMBVH85     070AMBV        PN        000R$  000000000009800000000001000000000000079000000000008700000000000800000000000079000000000015000014000000000000025800000000000002264500000000000850002013081900000010000000000000BRAMBVACNPR1153
012013072302AMGN11B     010AMGEN       DRN     MB   R$  000000002382700000000238270000000023827000000002382700000000238270000000021000000000002650000006000000000000001200000000000028592400000000000000009999123100000010000000000000BRAMGNBDR004106
012013072312ANCR11B     010FII ANCAR ICCI      MB   R$  000000007110100000000711010000000071101000000007110100000000711010000000071100000000000000000001000000000000000001000000000000071101000000000000009999123100000010000000000000BRANCRCTF001128
012013072302AORE3       010ALL ORE     ON           R$  000000000015000000000001500000000000150000000000015000000000001500000000000130000000000015000001000000000000000200000000000000030000000000000000009999123100000010000000000000BRAOREACNOR2100
012013072302ARTR3       010ARTERIS     ON      NM   R$  000000000204200000000020780000000002025000000000204700000000020350000000002035000000000204102998000000000002742900000000005615562700000000000000009999123100000010000000000000BRARTRACNOR3101
012013072396ARTR3F      020ARTERIS     ON      NM   R$  000000000205100000000020640000000002024000000000204600000000020330000000002032000000000204400096000000000000001451000000000002969003000000000000009999123100000010000000000000BRARTRACNOR3101
012013072302ARZZ3       010AREZZO CO   ON      NM   R$  000000000358200000000035990000000003485000000000354300000000034850000000003485000000000352000834000000000000132400000000000469186400000000000000009999123100000010000000000000BRARZZACNOR3108
012013072396ARZZ3F      020AREZZO CO   ON      NM   R$  000000000354500000000035510000000003481000000000353600000000035350000000003336000000000385000014000000000000000446000000000001577222000000000000009999123100000010000000000000BRARZZACNOR3108
012013072302AUTM3       010AUTOMETAL   ON      NM   R$  000000000179900000000018020000000001774000000000178700000000017870000000001787000000000178800388000000000000105100000000000187829900000000000000009999123100000010000000000000BRAUTMACNOR8109
012013072302BAHI3       010BAHEMA      ON           R$  000000000053000000000005300000000000495000000000050100000000005000000000000493000000000050100007000000000000002000000000000001003600000000000000009999123100000010000000000000BRBAHIACNOR1066
012013072302BAUH4       010EXCELSIOR   PN           R$  000000000092600000000009260000000000926000000000092600000000009260000000000900000000000099400002000000000000000200000000000000185200000000000000009999123100000010000000000000BRBAUHACNPR3108
012013072302BAZA3       010AMAZONIA    ON           R$  000000000003400000000000340000000000034000000000003400000000000340000000000034000000000003500002000000000000002000000000000000068000000000000000009999123100000010000000000000BRBAZAACNOR0163
012013072302BBAS3       010BRASIL      ON      NM   R$  000000000229600000000023190000000002288000000000230600000000023040000000002298000000000230408598000000000004098100000000009450671400000000000000009999123100000010000000000000BRBBASACNOR3237
012013072396BBAS3F      020BRASIL      ON      NM   R$  000000000227600000000023210000000002276000000000230300000000023060000000002305000000000231500166000000000000005004000000000011526588000000000000009999123100000010000000000000BRBBASACNOR3237
012013072362BBAS3T      030BRASIL      ON      NM030R$  000000000233200000000023330000000002318000000000233200000000023190000000000000000000000000000004000000000000057000000000000132941457000000000000009999123100000010000000000000BRBBASACNOR3237
012013072362BBAS3T      030BRASIL      ON      NM031R$  000000000233300000000023340000000002333000000000233300000000023340000000000000000000000000000006000000000000041500000000000096826670000000000000009999123100000010000000000000BRBBASACNOR3237
012013072362BBAS3T      030BRASIL      ON      NM090R$  000000000234800000000023490000000002348000000000234800000000023490000000000000000000000000000002000000000000005000000000000011740032000000000000009999123100000010000000000000BRBBASACNOR3237
012013072378BBASH21     070BBAS  FM    ON      NM000R$  000000000026300000000002640000000000240000000000025300000000002460000000000100000000000025000107000000000000164500000000000041660700000000000207602013081900000010000000000000BRBBASACNOR3236
012013072378BBASH22     070BBAS  FM    ON      NM000R$  000000000017700000000001770000000000158000000000016700000000001600000000000120000000000022000088000000000000177600000000000029823200000000000217602013081900000010000000000000BRBBASACNOR3236
012013072378BBASH23     070BBAS  FM    ON      NM000R$  000000000009700000000001020000000000080000000000009500000000000800000000000080000000000011000067000000000000098200000000000009366900000000000227602013081900000010000000000000BRBBASACNOR3236
012013072378BBASH24     070BBAS  FM    ON      NM000R$  000000000007800000000000780000000000064000000000007000000000000650000000000060000000000009800044000000000000065400000000000004597900000000000231702013081900000010000000000000BRBBASACNOR3233
012013072378BBASH25     070BBAS  FM    ON      NM000R$  000000000003500000000000350000000000026000000000003000000000000260000000000022000000000003100117000000000000228500000000000006963700000000000241702013081900000010000000000000BRBBASACNOR3233
012013072378BBASH26     070BBAS        ON      NM000R$  000000000000900000000000090000000000005000000000000600000000000080000000000006000000000000900008000000000000028500000000000000194000000000000256602013081900000010000000000000BRBBASACNOR3235
012013072378BBASH28     070BBAS        ON      NM000R$  000000000000100000000000010000000000001000000000000100000000000010000000000001000000000000400001000000000000000900000000000000000900000000000276602013081900000010000000000000BRBBASACNOR3235
012013072378BBASH55     070BBAS        ON      NM000R$  000000000001000000000000100000000000010000000000001000000000000100000000000006000000000000000001000000000000001000000000000000010000000000000251602013081900000010000000000000BRBBASACNOR3235
012013072378BBASI21     070BBAS  FM    ON      NM000R$  000000000026300000000002660000000000248000000000025600000000002490000000000150000000000000000067000000000000140700000000000036087800000000000210002013091600000010000000000000BRBBASACNOR3237
012013072378BBASI22     070BBAS  FM    ON      NM000R$  000000000019900000000002030000000000193000000000019800000000002010000000000050000000000000000033000000000000061700000000000012259400000000000217602013091600000010000000000000BRBBASACNOR3236
012013072378BBASI23     070BBAS  FM    ON      NM000R$  000000000013700000000001370000000000127000000000013100000000001340000000000045000000000000000012000000000000022600000000000002978400000000000227602013091600000010000000000000BRBBASACNOR3236
012013072378BBASI24     070BBAS  FM    ON      NM000R$  000000000009900000000000990000000000075000000000007700000000000770000000000045000000000007800108000000000000063400000000000004903400000000000237602013091600000010000000000000BRBBASACNOR3236
012013072378BBASI25     070BBAS  FM    ON      NM000R$  000000000004800000000000500000000000042000000000004500000000000440000000000016000000000006900026000000000000052800000000000002383400000000000246602013091600000010000000000000BRBBASACNOR3235
012013072378BBASI26     070BBAS        ON      NM000R$  000000000002700000000000270000000000025000000000002600000000000250000000000019000000000002800002000000000000002000000000000000052000000000000256602013091600000010000000000000BRBBASACNOR3235
012013072378BBASI28     070BBAS        ON      NM000R$  000000000000900000000000090000000000009000000000000900000000000090000000000002000000000001000001000000000000001500000000000000013500000000000276602013091600000010000000000000BRBBASACNOR3235
012013072378BBASJ25     070BBAS        ON      NM000R$  000000000006600000000000660000000000062000000000006300000000000620000000000000000000000000000003000000000000001600000000000000101600000000000250002013102100000010000000000000BRBBASACNOR3237
012013072382BBAST19     080BBASE       ON      NM000R$  000000000000400000000000040000000000004000000000000400000000000040000000000001000000000000300001000000000000000200000000000000000800000000000190002013081900000010000000000000BRBBASACNOR3237
012013072382BBAST21     080BBASE FM    ON      NM000R$  000000000001100000000000130000000000011000000000001200000000000130000000000010000000000004000003000000000000000700000000000000008700000000000207602013081900000010000000000000BRBBASACNOR3236
012013072382BBAST22     080BBASE FM    ON      NM000R$  000000000002800000000000280000000000023000000000002600000000000240000000000020000000000002800009000000000000016300000000000000426700000000000217602013081900000010000000000000BRBBASACNOR3236
012013072382BBAST23     080BBASE FM    ON      NM000R$  000000000004900000000000570000000000047000000000005100000000000520000000000000000000000010000046000000000000110000000000000005706700000000000227602013081900000010000000000000BRBBASACNOR3236
012013072382BBAST24     080BBASE       ON      NM000R$  000000000006700000000000730000000000067000000000007100000000000720000000000026000000000000000090000000000000053700000000000003830700000000000231702013081900000010000000000000BRBBASACNOR3233
012013072382BBAST26     080BBASE       ON      NM000R$  000000000026600000000002660000000000266000000000026600000000002660000000000000000000000000000005000000000000000800000000000000212800000000000256602013081900000010000000000000BRBBASACNOR3235
012013072382BBASU21     080BBASE FM    ON      NM000R$  000000000002800000000000300000000000028000000000002900000000000280000000000000000000000000000006000000000000009500000000000000278400000000000210002013091600000010000000000000BRBBASACNOR3237
012013072382BBASU22     080BBASE FM    ON      NM000R$  000000000004300000000000490000000000043000000000004500000000000450000000000000000000000000000010000000000000016500000000000000747200000000000217602013091600000010000000000000BRBBASACNOR3236
012013072382BBASU23     080BBASE FM    ON      NM000R$  000000000007400000000000800000000000073000000000007700000000000760000000000000000000000000000028000000000000065900000000000005097500000000000227602013091600000010000000000000BRBBASACNOR3236
012013072382BBASU24     080BBASE       ON      NM000R$  000000000012700000000001270000000000127000000000012700000000001270000000000000000000000000000001000000000000004000000000000000508000000000000237602013091600000010000000000000BRBBASACNOR3236
012013072382BBASU25     080BBASE       ON      NM000R$  000000000018400000000001840000000000182000000000018300000000001820000000000000000000000000000002000000000000006000000000000001098000000000000246602013091600000010000000000000BRBBASACNOR3235
012013072382BBASU26     080BBASE       ON      NM000R$  000000000026500000000002650000000000265000000000026500000000002650000000000000000000000026500004000000000000000600000000000000159000000000000256602013091600000010000000000000BRBBASACNOR3235
012013072382BBASU52     080BBASE       ON      NM000R$  000000000006600000000000660000000000066000000000006600000000000660000000000000000000000000000001000000000000004000000000000000264000000000000225002013091600000010000000000000BRBBASACNOR3237
012013072382BBASV26     080BBASE       ON      NM000R$  000000000025400000000002540000000000254000000000025400000000002540000000000000000000000000000001000000000000000300000000000000076200000000000256602013102100000010000000000000BRBBASACNOR3235
012013072302BBDC3       010BRADESCO    ON      N1   R$  000000000325500000000032840000000003220000000000325600000000032520000000003252000000000325605498000000000001135100000000003696790200000000000000009999123100000010000000000000BRBBDCACNOR1604
012013072396BBDC3F      020BRADESCO    ON      N1   R$  000000000326500000000032790000000003109000000000324800000000032490000000003248000000000325000038000000000000001134000000000003684009000000000000009999123100000010000000000000BRBBDCACNOR1604
012013072302BBDC4       010BRADESCO    PN      N1   R$  000000000289500000000029590000000002879000000000292800000000029200000000002919000000000292028201000000000009261100000000027117972600000000000000009999123100000010000000000000BRBBDCACNPR8604
012013072396BBDC4F      020BRADESCO    PN      N1   R$  000000000289500000000029580000000002881000000000292500000000029350000000002927000000000293500201000000000000006327000000000018508715000000000000009999123100000010000000000000BRBBDCACNPR8604
012013072362BBDC4T      030BRADESCO    PN      N1016R$  000000000293600000000029370000000002936000000000293600000000029370000000000000000000000000000002000000000000001000000000000002936992000000000000009999123100000010000000000000BRBBDCACNPR8604
012013072362BBDC4T      030BRADESCO    PN      N1030R$  000000000295200000000029610000000002952000000000295900000000029610000000000000000000000000000006000000000000003000000000000008877660000000000000009999123100000010000000000000BRBBDCACNPR8604
012013072362BBDC4T      030BRADESCO    PN      N1120R$  000000000297500000000029760000000002975000000000297500000000029760000000000000000000000000000002000000000000016500000000000049091114000000000000009999123100000010000000000000BRBBDCACNPR8604
012013072378BBDCG34     070BBDC        PN      N1000R$  000000000013500000000001350000000000135000000000013500000000001350000000000000000000000000000002000000000000011000000000000001485000000000000340002014072100000010000000000000BRBBDCACNPR8604
012013072378BBDCH27     070BBDC        PN      N1000R$  000000000024800000000002990000000000248000000000027800000000002790000000000272000000000000000155000000000000265600000000000073864000000000000268002013081900000010000000000000BRBBDCACNPR8602
012013072378BBDCH28     070BBDC        PN      N1000R$  000000000016800000000002130000000000168000000000019600000000001970000000000172000000000020700521000000000000396500000000000077921600000000000278002013081900000010000000000000BRBBDCACNPR8602
012013072378BBDCH29     070BBDC        PN      N1000R$  000000000011900000000001400000000000096000000000012400000000001220000000000109000000000000000156000000000000193300000000000023972000000000000288002013081900000010000000000000BRBBDCACNPR8602
012013072378BBDCH30     070BBDC        PN      N1000R$  000000000006300000000000790000000000048000000000006700000000000650000000000051000000000008000139000000000000159300000000000010754300000000000298002013081900000010000000000000BRBBDCACNPR8602
012013072378BBDCH31     070BBDC        PN      N1000R$  000000000002500000000000360000000000025000000000003000000000000310000000000028000000000004400036000000000000059000000000000001804200000000000307602013081900000010000000000000BRBBDCACNPR8600
012013072378BBDCH32     070BBDC        PN      N1000R$  000000000001200000000000160000000000010000000000001300000000000100000000000001000000000001200011000000000000037200000000000000487600000000000318002013081900000010000000000000BRBBDCACNPR8602
012013072378BBDCH33     070BBDC        PN      N1000R$  000000000000400000000000070000000000004000000000000500000000000070000000000003000000000001600009000000000000036000000000000000192000000000000327802013081900000010000000000000BRBBDCACNPR8601
012013072378BBDCH34     070BBDC        PN      N1000R$  000000000003200000000000450000000000032000000000004100000000000450000000000000000000000004800005000000000000002400000000000000099100000000000305502013081900000010000000000000BRBBDCACNPR8595
012013072378BBDCH35     070BBDC        PN      N1000R$  000000000000200000000000020000000000002000000000000200000000000020000000000000000000000000000002000000000000005000000000000000010000000000000347802013081900000010000000000000BRBBDCACNPR8601
012013072378BBDCI26     070BBDC        PN      N1000R$  000000000037800000000003780000000000376000000000037700000000003760000000000000000000000000000002000000000000008000000000000003016000000000000260002013091600000010000000000000BRBBDCACNPR8604
012013072378BBDCI27     070BBDC        PN      N1000R$  000000000028200000000003280000000000282000000000030900000000003140000000000000000000000000000109000000000000201000000000000062275800000000000268002013091600000010000000000000BRBBDCACNPR8602
012013072378BBDCI28     070BBDC        PN      N1000R$  000000000021400000000002440000000000214000000000023100000000002370000000000202000000000000000072000000000000146600000000000033872200000000000278002013091600000010000000000000BRBBDCACNPR8602
012013072378BBDCI29     070BBDC        PN      N1000R$  000000000014800000000001730000000000148000000000016800000000001640000000000150000000000000000120000000000000199600000000000033696500000000000288002013091600000010000000000000BRBBDCACNPR8602
012013072378BBDCI30     070BBDC        PN      N1000R$  000000000009900000000001140000000000099000000000010900000000001070000000000082000000000000000105000000000000118800000000000012956200000000000298002013091600000010000000000000BRBBDCACNPR8602
012013072378BBDCI31     070BBDC        PN      N1000R$  000000000028200000000002820000000000282000000000028200000000002820000000000000000000000000000001000000000000000100000000000000028200000000000273102013091600000010000000000000BRBBDCACNPR8590
012013072378BBDCI32     070BBDC        PN      N1000R$  000000000003300000000000390000000000033000000000003600000000000370000000000031000000000000000020000000000000054700000000000002017300000000000318002013091600000010000000000000BRBBDCACNPR8602
012013072378BBDCI33     070BBDC        PN      N1000R$  000000000010400000000001040000000000104000000000010400000000001040000000000000000000000000000001000000000000002500000000000000260000000000000297402013091600000010000000000000BRBBDCACNPR8598
012013072378BBDCI37     070BBDC        PN      N1000R$  000000000001300000000000130000000000012000000000001200000000000120000000000000000000000000000002000000000000008400000000000000102900000000000333802013091600000010000000000000BRBBDCACNPR8598
012013072378BBDCI75     070BBDCE       PN      N1000R$  000000000019900000000001990000000000199000000000019900000000001990000000000000000000000000000001000000000000002000000000000000398000000000000282502013091600000010000000000000BRBBDCACNPR8604
012013072378BBDCI81     070BBDC        PN      N1000R$  000000000006300000000000680000000000063000000000006400000000000630000000000000000000000000000016000000000000036900000000000002383300000000000308002013091600000010000000000000BRBBDCACNPR8602
012013072378BBDCJ1      070BBDC        PN      N1000R$  000000000008200000000000820000000000082000000000008200000000000820000000000000000000000000000001000000000000003000000000000000246000000000000314802013102100000010000000000000BRBBDCACNPR8603
012013072378BBDCJ2      070BBDC        PN      N1000R$  000000000005400000000000540000000000054000000000005400000000000540000000000000000000000000000001000000000000003000000000000000162000000000000324802013102100000010000000000000BRBBDCACNPR8603
012013072378BBDCJ29     070BBDC        PN      N1000R$  000000000020900000000002090000000000209000000000020900000000002090000000000000000000000000000001000000000000003000000000000000627000000000000288002013102100000010000000000000BRBBDCACNPR8602
012013072378BBDCJ30     070BBDC        PN      N1000R$  000000000014300000000001600000000000143000000000015300000000001600000000000000000000000000000005000000000000014100000000000002168100000000000298002013102100000010000000000000BRBBDCACNPR8602
012013072378BBDCJ31     070BBDC        PN      N1000R$  000000000010700000000001120000000000107000000000010700000000001070000000000010000000000000000007000000000000031000000000000003332000000000000308002013102100000010000000000000BRBBDCACNPR8602
012013072378BBDCJ32     070BBDC        PN      N1000R$  000000000007200000000000720000000000072000000000007200000000000720000000000000000000000007500001000000000000003000000000000000216000000000000318002013102100000010000000000000BRBBDCACNPR8602
012013072378BBDCJ33     070BBDC        PN      N1000R$  000000000004700000000000530000000000047000000000005000000000000530000000000000000000000000000002000000000000006000000000000000300000000000000328002013102100000010000000000000BRBBDCACNPR8602
012013072378BBDCJ34     070BBDC        PN      N1000R$  000000000002800000000000350000000000028000000000003100000000000350000000000000000000000000000008000000000000024000000000000000753000000000000337602013102100000010000000000000BRBBDCACNPR8600
012013072378BBDCL1      070BBDC        PN      N1000R$  000000000016800000000001680000000000168000000000016800000000001680000000000000000000000000000001000000000000200000000000000033600000000000000307602013121600000010000000000000BRBBDCACNPR8600
012013072382BBDCS28     080BBDCE       PN      N1000R$  000000000024500000000002450000000000245000000000024500000000002450000000000000000000000000000002000000000000011000000000000002695000000000000280002014072100000010000000000000BRBBDCACNPR8604
012013072382BBDCS55     080BBDCE       PN      N1000R$  000000000011000000000001100000000000110000000000011000000000001100000000000000000000000000000002000000000000011000000000000001210000000000000255002014072100000010000000000000BRBBDCACNPR8604
012013072382BBDCT25     080BBDCE       PN      N1000R$  000000000000600000000000060000000000006000000000000600000000000060000000000000000000000000000002000000000000000300000000000000001800000000000248002013081900000010000000000000BRBBDCACNPR8602
012013072382BBDCT26     080BBDCE       PN      N1000R$  000000000000900000000000100000000000007000000000000800000000000070000000000000000000000001000008000000000000030000000000000000268100000000000258002013081900000010000000000000BRBBDCACNPR8602
012013072382BBDCT27     080BBDCE       PN      N1000R$  000000000001500000000000160000000000014000000000001500000000000160000000000014000000000001700021000000000000043100000000000000658600000000000268002013081900000010000000000000BRBBDCACNPR8602
012013072382BBDCT28     080BBDCE       PN      N1000R$  000000000002900000000000310000000000025000000000002700000000000280000000000000000000000000000036000000000000065000000000000001782600000000000278002013081900000010000000000000BRBBDCACNPR8602
012013072382BBDCT29     080BBDCE       PN      N1000R$  000000000006200000000000640000000000049000000000005600000000000580000000000000000000000006800057000000000000113800000000000006409500000000000288002013081900000010000000000000BRBBDCACNPR8602
012013072382BBDCT30     080BBDCE       PN      N1000R$  000000000009800000000001000000000000090000000000009400000000000900000000000090000000000000000037000000000000052000000000000004920800000000000298002013081900000010000000000000BRBBDCACNPR8602
012013072382BBDCT31     080BBDCE       PN      N1000R$  000000000017000000000001700000000000142000000000016000000000001540000000000000000000000000000011000000000000020000000000000003208000000000000307602013081900000010000000000000BRBBDCACNPR8600
012013072382BBDCT34     080BBDCE       PN      N1000R$  000000000015400000000001550000000000138000000000014400000000001470000000000000000000000000000053000000000000137100000000000019832300000000000305502013081900000010000000000000BRBBDCACNPR8595
012013072382BBDCU27     080BBDCE       PN      N1000R$  000000000003000000000000330000000000030000000000003100000000000330000000000000000000000000000006000000000000012200000000000000390100000000000268002013091600000010000000000000BRBBDCACNPR8602
012013072382BBDCU28     080BBDCE       PN      N1000R$  000000000005100000000000540000000000048000000000005000000000000500000000000000000000000000000026000000000000047100000000000002391200000000000278002013091600000010000000000000BRBBDCACNPR8602
012013072382BBDCU29     080BBDCE       PN      N1000R$  000000000008500000000000850000000000078000000000008100000000000840000000000000000000000000000040000000000000077100000000000006295500000000000288002013091600000010000000000000BRBBDCACNPR8602
012013072382BBDCU30     080BBDCE       PN      N1000R$  000000000012400000000001250000000000118000000000012100000000001200000000000000000000000000000007000000000000011200000000000001355500000000000298002013091600000010000000000000BRBBDCACNPR8602
012013072382BBDCU31     080BBDCE       PN      N1000R$  000000000003900000000000390000000000039000000000003900000000000390000000000000000000000000000001000000000000002000000000000000078000000000000273102013091600000010000000000000BRBBDCACNPR8590
012013072382BBDCU32     080BBDCE       PN      N1000R$  000000000024600000000002530000000000243000000000024700000000002460000000000000000000000000000013000000000000024600000000000006098800000000000318002013091600000010000000000000BRBBDCACNPR8602
012013072382BBDCU33     080BBDCE       PN      N1000R$  000000000013700000000001370000000000115000000000012000000000001230000000000000000000000000000009000000000000015600000000000001884600000000000297402013091600000010000000000000BRBBDCACNPR8598
012013072382BBDCU75     080BBDCE       PN      N1000R$  000000000006700000000000670000000000065000000000006600000000000650000000000000000000000000000003000000000000005400000000000000356600000000000282502013091600000010000000000000BRBBDCACNPR8604
012013072382BBDCU81     080BBDCE       PN      N1000R$  000000000018000000000001840000000000171000000000017800000000001770000000000000000000000000000015000000000000028700000000000005120100000000000308002013091600000010000000000000BRBBDCACNPR8602
012013072382BBDCV1      080BBDCE       PN      N1000R$  000000000024200000000002460000000000242000000000024400000000002460000000000000000000000000000002000000000000004000000000000000976000000000000314802013102100000010000000000000BRBBDCACNPR8603
012013072382BBDCV29     080BBDCE       PN      N1000R$  000000000011000000000001130000000000110000000000011100000000001130000000000000000000000000000002000000000000003000000000000000333000000000000288002013102100000010000000000000BRBBDCACNPR8602
012013072382BBDCV30     080BBDCE       PN      N1000R$  000000000015200000000001550000000000149000000000015200000000001550000000000000000000000000000006000000000000010000000000000001524000000000000298002013102100000010000000000000BRBBDCACNPR8602
012013072382BBDCV31     080BBDCE       PN      N1000R$  000000000020500000000002050000000000201000000000020300000000002050000000000000000000000000000004000000000000005300000000000001078500000000000308002013102100000010000000000000BRBBDCACNPR8602
012013072382BBDCV32     080BBDCE       PN      N1000R$  000000000026300000000002660000000000263000000000026400000000002660000000000000000000000000000002000000000000004000000000000001058000000000000318002013102100000010000000000000BRBBDCACNPR8602
012013072382BBDCX29     080BBDCE       PN      N1000R$  000000000014100000000001410000000000141000000000014100000000001410000000000000000000000000000001000000000000000500000000000000070500000000000288002013121600000010000000000000BRBBDCACNPR8602
012013072312BBFI11B     010FII BB PROGRCI      MB   R$  000000042410000000004299990000000424100000000042897200000004299990000000426500000000043289900007000000000000000056000000000024022456000000000000009999123100000010000000000000BRBBFICTF006196
012013072312BBPO11      010FII BB PRGIICI           R$  000000001104000000000112990000000011040000000001120800000000112990000000011263000000001129900264000000000000022988000000000257666535000000000000009999123100000010000000000000BRBBPOCTF003108
012013072312BBRC11      010FII BB CORP CI           R$  000000000940000000000094500000000009223000000000935000000000092230000000009300000000000945000005000000000000000367000000000003431800000000000000009999123100000010000000000000BRBBRCCTF004122
012013072302BBRK3       010BR BROKERS  ON      NM   R$  000000000059300000000005930000000000576000000000058200000000005870000000000584000000000058702565000000000000818100000000000476855300000000000000009999123100000010000000000000BRBBRKACNOR4108
012013072396BBRK3F      020BR BROKERS  ON      NM   R$  000000000058600000000005860000000000586000000000058600000000005860000000000563000000000066900001000000000000000055000000000000032230000000000000009999123100000010000000000000BRBBRKACNOR4108
012013072302BBSE3       010BBSEGURIDADEON      NM   R$  000000000179700000000018050000000001791000000000179700000000018000000000001795000000000180005995000000000002540100000000004566754600000000000000009999123100000010000000000000BRBBSEACNOR5100
012013072396BBSE3F      020BBSEGURIDADEON      NM   R$  000000000179500000000018030000000001790000000000179700000000018000000000001792000000000180000353000000000000011328000000000020361048000000000000009999123100000010000000000000BRBBSEACNOR5100
012013072302BBTG11      010BTG PACTUAL UNT          R$  000000000288200000000028920000000002825000000000284900000000028250000000002825000000000282700319000000000000267400000000000762011500000000000000009999123100000010000000000000BRBBTGUNT007104
012013072396BBTG11F     020BTG PACTUAL UNT          R$  000000000288000000000028800000000002840000000000285900000000028400000000002800000000000288000026000000000000000787000000000002250346000000000000009999123100000010000000000000BRBBTGUNT007104
012013072312BBVJ11      010FII C JARDIMCI           R$  000000000807000000000081000000000008000000000000801800000000080610000000008010000000000806100023000000000000002562000000000020543228000000000000009999123100000010000000000000BRBBVJCTF001131
012013072312BCFF11B     010FII BC FFII CI      MB   R$  000000000979000000000099000000000009755000000000979400000000097950000000009795000000000983900073000000000000003138000000000030735608000000000000009999123100000010000000000000BRBCFFCTF000140
012013072302BDLL3       010BARDELLA    ON           R$  000000000450000000000045000000000004500000000000450000000000045000000000004150000000000500000002000000000000000200000000000000900000000000000000009999123100000010000000000000BRBDLLACNOR1149
012013072302BDLL4       010BARDELLA    PN           R$  000000000480000000000050000000000004799000000000480300000000050000000000004700000000000500000022000000000000005500000000000026419800000000000000009999123100000010000000000000BRBDLLACNPR8149
012013072302BEEF3       010MINERVA     ON      NM   R$  000000000093400000000009400000000000912000000000092700000000009390000000000932000000000093902552000000000000803500000000000745003600000000000000009999123100000010000000000000BRBEEFACNOR6104
012013072396BEEF3F      020MINERVA     ON      NM   R$  000000000092500000000009250000000000921000000000092300000000009210000000000921000000000102200003000000000000000111000000000000102479000000000000009999123100000010000000000000BRBEEFACNOR6104
012013072302BEES3       010BANESTES    ON  ES       R$  000000000004800000000000480000000000047000000000004700000000000470000000000047000000000004800008000000000000043400000000000002070200000000000000009999123100000010000000000000BRBEESACNOR9242
012013072302BEMA3       010BEMATECH    ON      NM   R$  000000000072700000000007350000000000726000000000073000000000007300000000000730000000000073200046000000000000026600000000000019420000000000000000009999123100000010000000000000BRBEMAACNOR0113
012013072396BEMA3F      020BEMATECH    ON      NM   R$  000000000073900000000007400000000000739000000000073900000000007390000000000726000000000073900004000000000000000057000000000000042131000000000000009999123100000010000000000000BRBEMAACNOR0113
012013072302BGIP4       010BANESE      PN           R$  000000000472300000000048000000000004710000000000475300000000048000000000004700000000000480000012000000000000001900000000000009031100000000000000009999123100000010000000000000BRBGIPACNPR8178
012013072302BHGR3       010BHG         ON      NM   R$  000000000168100000000017410000000001675000000000169700000000016940000000001694000000000171100197000000000000185800000000000315402600000000000000009999123100000010000000000000BRBHGRACNOR9101
012013072396BHGR3F      020BHG         ON      NM   R$  000000000170000000000017000000000001670000000000167200000000016700000000001601000000000171100002000000000000000085000000000000142130000000000000009999123100000010000000000000BRBHGRACNOR9101
012013072302BICB4       010BICBANCO    PN      N1   R$  000000000039900000000004060000000000396000000000039900000000004060000000000406000000000040800361000000000000126700000000000050677100000000000000009999123100000010000000000000BRBICBACNPR7131
012013072396BICB4F      020BICBANCO    PN      N1   R$  000000000040000000000004000000000000384000000000039500000000003840000000000398000000000040400006000000000000000247000000000000097678000000000000009999123100000010000000000000BRBICBACNPR7131
012013072396BIOM4F      020BIOMM       PN           R$  000000000088000000000008800000000000880000000000088000000000008800000000000800000000000090000001000000000000000100000000000000088000000000000000009999123100000010000000000000BRBIOMACNPR9101
012013072302BISA3       010BROOKFIELD  ON      NM   R$  000000000018000000000001840000000000170000000000017400000000001700000000000170000000000017116145000000000008472700000000001481155900000000000000009999123100000010000000000000BRBISAACNOR8109
012013072396BISA3F      020BROOKFIELD  ON      NM   R$  000000000018200000000001820000000000166000000000017400000000001660000000000166000000000017000027000000000000000735000000000000128112000000000000009999123100000010000000000000BRBISAACNOR8109
012013072362BISA3T      030BROOKFIELD  ON      NM030R$  000000000018100000000001820000000000171000000000017500000000001720000000000000000000000000000006000000000000060000000000000010533220000000000000009999123100000010000000000000BRBISAACNOR8109
012013072312BJRC11      010FII JS RECIMCI           R$  000000009300000000000950000000000093000000000009300100000000950000000000089000000000009500000002000000000000001071000000000099605000000000000000009999123100000010000000000000BRBJRCCTF007108
012013072396BMEB3F      020MERC BRASIL ON           R$  000000000130000000000013000000000001300000000000130000000000013000000000001300000000000000000001000000000000000009000000000000011700000000000000009999123100000010000000000000BRBMEBACNOR8189
012013072302BMEB4       010MERC BRASIL PN           R$  000000000113000000000011300000000001130000000000113000000000011300000000000000000000000113000004000000000000011100000000000012543000000000000000009999123100000010000000000000BRBMEBACNPR5190
012013072396BMEB4F      020MERC BRASIL PN           R$  000000000100000000000010000000000001000000000000100000000000010000000000001130000000000000000001000000000000000063000000000000063000000000000000009999123100000010000000000000BRBMEBACNPR5190
012013072302BMIN3       010MERC INVEST ON           R$  000000000011100000000001110000000000111000000000011100000000001110000000000110000000000012000001000000000000002000000000000000222000000000000000009999123100000010000000000000BRBMINACNOR4158
012013072302BMIN4       010MERC INVEST PN           R$  000000000002200000000000230000000000022000000000002200000000000220000000000022000000000002300007000000000000023000000000000000511000000000000000009999123100000010000000000000BRBMINACNPR1159
012013072312BMLC11B     010FII BMBRC LCCI      MB   R$  000000001172000000000117300000000011700000000001171300000000117200000000011690000000001172000025000000000000001928000000000022584220000000000000009999123100000010000000000000BRBMLCCTF004117
012013072302BMTO4       010BRASMOTOR   PN           R$  000000000008700000000000880000000000085000000000008700000000000880000000000086000000000008800014000000000000130000000000000011355000000000000000009999123100000010000000000000BRBMTOACNPR6065
012013072312BNFS11      010FII BANRISULCI           R$  000000000991100000000104460000000009911000000000993600000000104460000000009911000000001044600003000000000000000021000000000000208666000000000000009999123100000010000000000000BRBNFSCTF000110
012013072302BOAC11B     010BANK AMERICADRN     MB   R$  000000000333200000000033320000000003332000000000333200000000033320000000003290000000000334000001000000000000013300000000000044315600000000000000009999123100000010000000000000BRBOACBDR004111
012013072302BOBR4       010BOMBRIL     PN           R$  000000000065500000000006620000000000655000000000066000000000006550000000000655000000000069900006000000000000004300000000000002841000000000000000009999123100000010000000000000BRBOBRACNPR3127
012013072302BOEI11B     010BOEING      DRN     MB   R$  000000002382900000000238290000000023829000000002382900000000238290000000023700000000002410000001000000000000002700000000000064338300000000000000009999123100000010000000000000BRBOEIBDR003105
012013072314BOVA11      010ISHARES BOVACI           R$  000000000484800000000048480000000004779000000000480800000000047830000000004774000000000478305357000000000002278620000000010956408840000000000000009999123100000010000000000000BRBOVACTF003101
012013072396BOVA11F     020ISHARES BOVACI           R$  000000000477200000000048530000000004772000000000481200000000048530000000004810000000000485300013000000000000000038000000000000182887000000000000009999123100000010000000000000BRBOVACTF003101
012013072362BOVA11T     030ISHARES BOVACI        030R$  000000000485300000000048540000000004853000000000485300000000048540000000000000000000000000000002000000000000005000000000000024268914000000000000009999123100000010000000000000BRBOVACTF003101
012013072382BOVAU50     080BOVAE       CI        000R$  000000000031000000000003100000000000310000000000031000000000003100000000000000000000000000000001000000000000040000000000000012400000000000000500002013091600000010000000000000BRBOVACTF003101
012013072382BOVAV49     080BOVAE       CI        000R$  000000000023000000000002300000000000230000000000023000000000002300000000000000000000000000000001000000000000040000000000000009200000000000000490002013102100000010000000000000BRBOVACTF003101
012013072312BPFF11      010FII ABSOLUTOCI           R$  000000000909500000000090950000000008890000000000892600000000090000000000008891000000000900000016000000000000000549000000000004900778000000000000009999123100000010000000000000BRBPFFCTF002103
012013072302BPHA3       010BR PHARMA   ON      NM   R$  000000000093500000000009770000000000930000000000095600000000009550000000000955000000000097502270000000000000912900000000000873169300000000000000009999123100000010000000000000BRBPHAACNOR6102
012013072396BPHA3F      020BR PHARMA   ON      NM   R$  000000000093500000000009700000000000909000000000091800000000009610000000000961000000000098900007000000000000000037000000000000033975000000000000009999123100000010000000000000BRBPHAACNOR6102
012013072302BPNM4       010PANAMERICANOPN      N1   R$  000000000056500000000005780000000000563000000000056800000000005660000000000566000000000057100268000000000000117200000000000066603600000000000000009999123100000010000000000000BRBPNMACNPR6111
012013072396BPNM4F      020PANAMERICANOPN      N1   R$  000000000056700000000005720000000000567000000000057100000000005700000000000555000000000059800004000000000000000125000000000000071388000000000000009999123100000010000000000000BRBPNMACNPR6111
012013072302BRAP3       010BRADESPAR   ON      N1   R$  000000000188900000000019700000000001860000000000188700000000018740000000001874000000000188500188000000000000096000000000000181233100000000000000009999123100000010000000000000BRBRAPACNOR5124
012013072396BRAP3F      020BRADESPAR   ON      N1   R$  000000000192400000000019250000000001924000000000192400000000019240000000001870000000000192000006000000000000000112000000000000215489000000000000009999123100000010000000000000BRBRAPACNOR5124
012013072362BRAP3T      030BRADESPAR   ON      N1121R$  000000000192400000000019250000000001924000000000192400000000019250000000000000000000000000000002000000000000000500000000000000962250000000000000009999123100000010000000000000BRBRAPACNOR5124
012013072302BRAP4       010BRADESPAR   PN      N1   R$  000000000226600000000023080000000002240000000000227800000000023050000000002301000000000230506477000000000001692800000000003857475300000000000000009999123100000010000000000000BRBRAPACNPR2124
012013072396BRAP4F      020BRADESPAR   PN      N1   R$  000000000225000000000023380000000002249000000000228700000000022970000000002260000000000229000046000000000000001146000000000002621692000000000000009999123100000010000000000000BRBRAPACNPR2124
012013072362BRAP4T      030BRADESPAR   PN      N1121R$  000000000235900000000023600000000002359000000000235900000000023600000000000000000000000000000002000000000000031300000000000073851214000000000000009999123100000010000000000000BRBRAPACNPR2124
012013072314BRAX11      010ISHARES BRAXCI           R$  000000000392600000000039960000000003926000000000397300000000039740000000003700000000000000000065000000000000550010000000002185496620000000000000009999123100000010000000000000BRBRAXCTF002100
012013072312BRCR11      010FII BC FUND CI           R$  000000001337100000000135000000000013371000000001343600000000134030000000013403000000001342500604000000000000045986000000000617904263000000000000009999123100000010000000000000BRBRCRCTF000131
012013072302BRFS3       010BRF SA      ON      NM   R$  000000000483500000000048880000000004811000000000484400000000048300000000004825000000000483005376000000000001322900000000006408733200000000000000009999123100000010000000000000BRBRFSACNOR8110
012013072396BRFS3F      020BRF SA      ON      NM   R$  000000000487400000000048870000000004811000000000484500000000048120000000004791000000000481200122000000000000003389000000000016420120000000000000009999123100000010000000000000BRBRFSACNOR8110
012013072362BRFS3T      030BRF SA      ON      NM120R$  000000000496200000000049630000000004962000000000496200000000049630000000000000000000000000000002000000000000002000000000000009924321000000000000009999123100000010000000000000BRBRFSACNOR8110
012013072378BRFSH50     070BRFS        ON      NM000R$  000000000005500000000000810000000000055000000000006800000000000810000000000000000000000000000002000000000000000600000000000000040800000000000500002013081900000010000000000000BRBRFSACNOR8110
012013072396BRGE11F     020ALFA CONSORCPNE          R$  000000000031000000000003100000000000310000000000031000000000003100000000000310000000000036000002000000000000000066000000000000020460000000000000009999123100000010000000000000BRBRGEACNPE1090
012013072302BRGE3       010ALFA CONSORCON           R$  000000000033900000000003390000000000339000000000033900000000003390000000000338000000000040000001000000000000000600000000000000203400000000000000009999123100000010000000000000BRBRGEACNOR6196
012013072302BRIN3       010BR INSURANCEON      NM   R$  000000000210000000000021000000000002060000000000207700000000020890000000002089000000000209101021000000000000196900000000000409058400000000000000009999123100000010000000000000BRBRINACNOR3105
012013072396BRIN3F      020BR INSURANCEON      NM   R$  000000000209700000000020970000000002026000000000207500000000020960000000002090000000000214500013000000000000000275000000000000570723000000000000009999123100000010000000000000BRBRINACNOR3105
012013072302BRIV3       010ALFA INVEST ON           R$  000000000064800000000006480000000000648000000000064800000000006480000000000647000000000069900001000000000000003100000000000002008800000000000000009999123100000010000000000000BRBRIVACNOR6196
012013072302BRKM3       010BRASKEM     ON      N1   R$  000000000126000000000012640000000001180000000000120100000000011910000000001191000000000126400052000000000000017900000000000021500100000000000000009999123100000010000000000000BRBRKMACNOR1110
012013072396BRKM3F      020BRASKEM     ON      N1   R$  000000000125000000000012500000000001183000000000118900000000011830000000001175000000000124800004000000000000000110000000000000130845000000000000009999123100000010000000000000BRBRKMACNOR1110
012013072302BRKM5       010BRASKEM     PNA     N1   R$  000000000170500000000017320000000001705000000000171700000000017300000000001727000000000173005830000000000002115900000000003633621400000000000000009999123100000010000000000000BRBRKMACNPA4110
012013072396BRKM5F      020BRASKEM     PNA     N1   R$  000000000170000000000017290000000001651000000000171700000000017250000000001705000000000172000037000000000000001042000000000001789342000000000000009999123100000010000000000000BRBRKMACNPA4110
012013072302BRML3       010BR MALLS PARON      NM   R$  000000000209000000000020900000000002034000000000205100000000020580000000002057000000000205908878000000000003054900000000006267490600000000000000009999123100000010000000000000BRBRMLACNOR9105
012013072396BRML3F      020BR MALLS PARON      NM   R$  000000000208400000000020840000000002034000000000205600000000020510000000002051000000000209000062000000000000001808000000000003718218000000000000009999123100000010000000000000BRBRMLACNOR9105
012013072378BRMLH51     070BRML        ON      NM000R$  000000000002400000000000240000000000024000000000002400000000000240000000000000000000000000000001000000000000073800000000000001771200000000000215002013081900000010000000000000BRBRMLACNOR9105
012013072378BRMLI21     070BRML        ON      NM000R$  000000000009600000000000960000000000096000000000009600000000000960000000000000000000000000000002000000000000000300000000000000028800000000000210002013091600000010000000000000BRBRMLACNOR9105
012013072302BRPR3       010BR PROPERT  ON      NM   R$  000000000198000000000019970000000001952000000000197700000000019520000000001952000000000196706972000000000001377800000000002725208500000000000000009999123100000010000000000000BRBRPRACNOR9112
012013072396BRPR3F      020BR PROPERT  ON      NM   R$  000000000198000000000019950000000001916000000000196800000000019360000000001935000000000199800024000000000000000741000000000001457562000000000000009999123100000010000000000000BRBRPRACNOR9112
012013072378BRPRH21     070BRPR        ON      NM000R$  000000000001200000000000120000000000012000000000001200000000000120000000000000000000000000000001000000000000007000000000000000084000000000000210002013081900000010000000000000BRBRPRACNOR9112
012013072302BRSR6       010BANRISUL    PNB     N1   R$  000000000147800000000015110000000001461000000000148000000000014660000000001466000000000147001608000000000000489000000000000723835500000000000000009999123100000010000000000000BRBRSRACNPB4133
012013072396BRSR6F      020BANRISUL    PNB     N1   R$  000000000148500000000015100000000001412000000000148300000000014640000000001440000000000156500049000000000000001359000000000002016482000000000000009999123100000010000000000000BRBRSRACNPB4133
012013072362BRSR6T      030BANRISUL    PNB     N1090R$  000000000151100000000015120000000001511000000000151100000000015120000000000000000000000000000002000000000000001000000000000001511474000000000000009999123100000010000000000000BRBRSRACNPB4133
012013072302BSEV3       010BIOSEV      ON      NM   R$  000000000123000000000012300000000001218000000000122700000000012280000000001210000000000122900009000000000000003800000000000004665100000000000000009999123100000010000000000000BRBSEVACNOR3100
012013072382BSEVS99     080BSEVE       ON      NM000R$  000000000030100000000003010000000000300000000000030000000000003000000000000000000000000030000002000000000000001000000000000000300500000000000165702014072100000010000000000000BRBSEVACNOR3100
012013072302BTOW3       010B2W DIGITAL ON      NM   R$  000000000117500000000012090000000001088000000000115200000000011650000000001164000000000116503090000000000001564700000000001803484400000000000000009999123100000010000000000000BRBTOWACNOR8105
012013072396BTOW3F      020B2W DIGITAL ON      NM   R$  000000000118200000000012000000000001088000000000115300000000011870000000001090000000000118700052000000000000001535000000000001771743000000000000009999123100000010000000000000BRBTOWACNOR8105
012013072302BTTL4       010BATTISTELLA PN           R$  000000000009600000000001010000000000096000000000009800000000000990000000000099000000000010100005000000000000002200000000000000217700000000000000009999123100000010000000000000BRBTTLACNPR7105
012013072302BVMF3       010BMFBOVESPA  ON      NM   R$  000000000125000000000012670000000001235000000000124400000000012410000000001240000000000124112610000000000006586900000000008198115000000000000000009999123100000010000000000000BRBVMFACNOR3125
012013072396BVMF3F      020BMFBOVESPA  ON      NM   R$  000000000124500000000012590000000001235000000000124500000000012360000000001236000000000124100108000000000000003640000000000004534271000000000000009999123100000010000000000000BRBVMFACNOR3125
012013072362BVMF3T      030BMFBOVESPA  ON      NM030R$  000000000125200000000012530000000001252000000000125200000000012530000000000000000000000000000002000000000000001400000000000001753095000000000000009999123100000010000000000000BRBVMFACNOR3125
012013072378BVMFH1      070BVMFE       ON      NM000R$  000000000001900000000000190000000000016000000000001600000000000160000000000003000000000000000003000000000000359000000000000005753000000000000132502013081900000010000000000000BRBVMFACNOR3125
012013072378BVMFH11     070BVMF        ON      NM000R$  000000000017200000000001770000000000155000000000016300000000001590000000000153000000000017600012000000000000010600000000000001728800000000000110002013081900000010000000000000BRBVMFACNOR3125
012013072378BVMFH12     070BVMF  FM    ON      NM000R$  000000000008400000000000890000000000074000000000007800000000000740000000000074000000000008100213000000000000256200000000000020208700000000000120002013081900000010000000000000BRBVMFACNOR3125
012013072378BVMFH13     070BVMF  FM    ON      NM000R$  000000000003200000000000330000000000026000000000002800000000000260000000000026000000000002800177000000000000390800000000000011201500000000000128902013081900000010000000000000BRBVMFACNOR3124
012013072378BVMFH14     070BVMF  FM    ON      NM000R$  000000000000600000000000060000000000004000000000000500000000000040000000000004000000000000500028000000000000096600000000000000555900000000000138902013081900000010000000000000BRBVMFACNOR3124
012013072378BVMFH15     070BVMF        ON      NM000R$  000000000000100000000000020000000000001000000000000100000000000010000000000001000000000000200004000000000000016200000000000000017200000000000150002013081900000010000000000000BRBVMFACNOR3125
012013072378BVMFH41     070BVMF        ON      NM000R$  000000000011400000000001140000000000114000000000011400000000001140000000000000000000000000000001000000000000003500000000000000399000000000000115002013081900000010000000000000BRBVMFACNOR3125
012013072378BVMFH42     070BVMF  FM    ON      NM000R$  000000000005500000000000550000000000044000000000004700000000000440000000000000000000000006100016000000000000041400000000000001971600000000000125002013081900000010000000000000BRBVMFACNOR3125
012013072378BVMFH43     070BVMF  FM    ON      NM000R$  000000000001100000000000120000000000009000000000001000000000000090000000000009000000000001000020000000000000055300000000000000568800000000000135002013081900000010000000000000BRBVMFACNOR3125
012013072378BVMFH62     070BVMFE       ON      NM000R$  000000000006900000000000690000000000069000000000006900000000000690000000000000000000000000000001000000000000003000000000000000207000000000000122502013081900000010000000000000BRBVMFACNOR3125
012013072378BVMFI10     070BVMF        ON      NM000R$  000000000025700000000002570000000000257000000000025700000000002570000000000000000000000000000001000000000000001500000000000000385500000000000100002013091600000010000000000000BRBVMFACNOR3125
012013072378BVMFI11     070BVMF        ON      NM000R$  000000000019000000000001900000000000173000000000018800000000001730000000000000000000000000000002000000000000001100000000000000207300000000000110002013091600000010000000000000BRBVMFACNOR3125
012013072378BVMFI12     070BVMF  FM    ON      NM000R$  000000000009400000000000980000000000080000000000009200000000000800000000000080000000000009800069000000000000126600000000000011649900000000000120002013091600000010000000000000BRBVMFACNOR3125
012013072378BVMFI13     070BVMF  FM    ON      NM000R$  000000000004600000000000460000000000037000000000004000000000000400000000000035000000000004600056000000000000125500000000000005104000000000000130002013091600000010000000000000BRBVMFACNOR3125
012013072378BVMFI14     070BVMF  FM    ON      NM000R$  000000000001200000000000130000000000012000000000001200000000000130000000000010000000000001500002000000000000003800000000000000046400000000000140002013091600000010000000000000BRBVMFACNOR3125
012013072378BVMFI42     070BVMF  FM    ON      NM000R$  000000000006200000000000660000000000062000000000006200000000000640000000000000000000000000000018000000000000007800000000000000491200000000000125002013091600000010000000000000BRBVMFACNOR3125
012013072378BVMFI43     070BVMF  FM    ON      NM000R$  000000000002200000000000250000000000021000000000002300000000000240000000000024000000000002600024000000000000061300000000000001436900000000000135002013091600000010000000000000BRBVMFACNOR3125
012013072378BVMFJ13     070BVMF        ON      NM000R$  000000000006900000000000690000000000069000000000006900000000000690000000000000000000000007000001000000000000005000000000000000345000000000000130002013102100000010000000000000BRBVMFACNOR3125
012013072378BVMFJ15     070BVMF        ON      NM000R$  000000000001500000000000150000000000011000000000001200000000000120000000000010000000000001500003000000000000004800000000000000062300000000000150002013102100000010000000000000BRBVMFACNOR3125
012013072382BVMFQ73     080BVMFE       ON      NM000R$  000000000011400000000001140000000000114000000000011400000000001140000000000000000000000000000001000000000000016100000000000001835400000000000128902014051900000010000000000000BRBVMFACNOR3124
012013072382BVMFR63     080BVMFE       ON      NM000R$  000000000012200000000001220000000000122000000000012200000000001220000000000000000000000000000001000000000000025000000000000003050000000000000130002014061600000010000000000000BRBVMFACNOR3125
012013072382BVMFT11     080BVMFE       ON      NM000R$  000000000000400000000000110000000000004000000000000600000000000110000000000004000000000007500007000000000000352200000000000002114400000000000110002013081900000010000000000000BRBVMFACNOR3125
012013072382BVMFT12     080BVMFE FM    ON      NM000R$  000000000002500000000000310000000000018000000000002200000000000290000000000023000000000003400033000000000000371900000000000008241200000000000120002013081900000010000000000000BRBVMFACNOR3125
012013072382BVMFT13     080BVMFE FM    ON      NM000R$  000000000005700000000000700000000000056000000000006500000000000670000000000000000000000008900039000000000000073800000000000004854200000000000128902013081900000010000000000000BRBVMFACNOR3124
012013072382BVMFT14     080BVMFE       ON      NM000R$  000000000014400000000001440000000000144000000000014400000000001440000000000100000000000000000001000000000000003500000000000000504000000000000138902013081900000010000000000000BRBVMFACNOR3124
012013072382BVMFT41     080BVMFE FM    ON      NM000R$  000000000001100000000000180000000000011000000000001500000000000170000000000000000000000005500012000000000000021900000000000000347700000000000115002013081900000010000000000000BRBVMFACNOR3125
012013072382BVMFT42     080BVMFE FM    ON      NM000R$  000000000003800000000000490000000000038000000000004200000000000470000000000000000000000000000008000000000000029500000000000001240800000000000125002013081900000010000000000000BRBVMFACNOR3125
012013072382BVMFT43     080BVMFE       ON      NM000R$  000000000011000000000001120000000000110000000000011000000000001120000000000000000000000015000005000000000000010400000000000001151000000000000135002013081900000010000000000000BRBVMFACNOR3125
012013072382BVMFT61     080BVMFE       ON      NM000R$  000000000001700000000000230000000000017000000000001700000000000230000000000000000000000000000002000000000000006100000000000000104300000000000117502013081900000010000000000000BRBVMFACNOR3125
012013072382BVMFT62     080BVMFE       ON      NM000R$  000000000003000000000000370000000000030000000000003500000000000370000000000000000000000000000003000000000000008400000000000000294700000000000122502013081900000010000000000000BRBVMFACNOR3125
012013072382BVMFU10     080BVMFE       ON      NM000R$  000000000000700000000000070000000000007000000000000700000000000070000000000000000000000001000001000000000000000400000000000000002800000000000100002013091600000010000000000000BRBVMFACNOR3125
012013072382BVMFU12     080BVMFE FM    ON      NM000R$  000000000003700000000000400000000000033000000000003700000000000400000000000034000000000004100025000000000000012800000000000000474700000000000120002013091600000010000000000000BRBVMFACNOR3125
012013072382BVMFU13     080BVMFE FM    ON      NM000R$  000000000007600000000000860000000000076000000000008100000000000840000000000053000000000000000005000000000000014700000000000001193200000000000130002013091600000010000000000000BRBVMFACNOR3125
012013072382BVMFU41     080BVMFE FM    ON      NM000R$  000000000002400000000000250000000000024000000000002400000000000250000000000000000000000000000004000000000000015700000000000000390700000000000115002013091600000010000000000000BRBVMFACNOR3125
012013072382BVMFU42     080BVMFE FM    ON      NM000R$  000000000005300000000000590000000000053000000000005500000000000580000000000000000000000000000004000000000000011500000000000000642500000000000125002013091600000010000000000000BRBVMFACNOR3125
012013072302CARD3       010CSU CARDSYSTON      NM   R$  000000000033500000000003350000000000321000000000032500000000003250000000000322000000000032500024000000000000018300000000000005952000000000000000009999123100000010000000000000BRCARDACNOR9105
012013072396CARD3F      020CSU CARDSYSTON      NM   R$  000000000031000000000003100000000000300000000000030500000000003000000000000286000000000033000002000000000000000050000000000000015250000000000000009999123100000010000000000000BRCARDACNOR9105
012013072302CBEE3       010AMPLA ENERG ON *         R$  000000000012400000000001240000000000124000000000012400000000001240000000000113000000000013000004000000000002400000000000000000297600000000000000009999123100010000000000000000BRCBEEACNOR3149
012013072302CBMA3       010COBRASMA    ON           R$  000000000000500000000000050000000000005000000000000500000000000050000000000004000000000000600001000000000000010000000000000000050000000000000000009999123100000010000000000000BRCBMAACNOR4124
012013072396CBMA3F      020COBRASMA    ON           R$  000000000000500000000000050000000000005000000000000500000000000050000000000004000000000000500001000000000000002000000000000000010000000000000000009999123100000010000000000000BRCBMAACNOR4124
012013072302CBMA4       010COBRASMA    PN           R$  000000000000400000000000060000000000004000000000000400000000000050000000000004000000000000500079000000000002600000000000000012530000000000000000009999123100000010000000000000BRCBMAACNPR1124
012013072396CBMA4F      020COBRASMA    PN           R$  000000000000400000000000050000000000004000000000000400000000000050000000000006000000000000700008000000000000010002000000000000041611000000000000009999123100000010000000000000BRCBMAACNPR1124
012013072308CCHI3       010CHIARELLI   ON           R$  000000000002800000000000310000000000028000000000002900000000000300000000000029000000000003000036000000000000660000000000000019410000000000000000009999123100000010000000000000BRCCHIACNOR5123
012013072396CCHI3F      020CHIARELLI   ON           R$  000000000002800000000000300000000000028000000000002800000000000300000000000028000000000003000007000000000000008480000000000000244300000000000000009999123100000010000000000000BRCCHIACNOR5123
012013072308CCHI4       010CHIARELLI   PN           R$  000000000002200000000000240000000000022000000000002300000000000240000000000023000000000002400008000000000000120000000000000002830000000000000000009999123100000010000000000000BRCCHIACNPR2122
012013072396CCHI4F      020CHIARELLI   PN           R$  000000000002300000000000230000000000023000000000002300000000000230000000000023000000000002400003000000000000004090000000000000094070000000000000009999123100000010000000000000BRCCHIACNPR2122
012013072302CCPR3       010CYRE COM-CCPON      NM   R$  000000000199100000000020150000000001952000000000195300000000020150000000002015000000000211800015000000000000058000000000000113321300000000000000009999123100000010000000000000BRCCPRACNOR9107
012013072302CCRO3       010CCR SA      ON      NM   R$  000000000172700000000017520000000001718000000000173400000000017290000000001726000000000172907902000000000002397500000000004157996600000000000000009999123100000010000000000000BRCCROACNOR2122
012013072396CCRO3F      020CCR SA      ON      NM   R$  000000000170600000000017470000000001706000000000172900000000017150000000001715000000000174400037000000000000001102000000000001905368000000000000009999123100000010000000000000BRCCROACNOR2122
012013072362CCRO3T      030CCR SA      ON      NM181R$  000000000180900000000018100000000001809000000000180900000000018100000000000000000000000000000002000000000000000200000000000000361884000000000000009999123100000010000000000000BRCCROACNOR2122
012013072378CCROH18     070CCRO        ON      NM000R$  000000000002400000000000240000000000016000000000002100000000000160000000000000000000000000000002000000000000106100000000000002288000000000000180002013081900000010000000000000BRCCROACNOR2122
012013072302CCXC3       010CCX CARVAO  ON      NM   R$  000000000010500000000001070000000000098000000000010200000000001010000000000100000000000010100541000000000002933200000000000299415600000000000000009999123100000010000000000000BRCCXCACNOR5100
012013072396CCXC3F      020CCX CARVAO  ON      NM   R$  000000000010100000000001030000000000101000000000010100000000001030000000000101000000000010300004000000000000000209000000000000021183000000000000009999123100000010000000000000BRCCXCACNOR5100
012013072362CCXC3T      030CCX CARVAO  ON      NM062R$  000000000010300000000001040000000000103000000000010300000000001040000000000000000000000000000002000000000000100000000000000010332600000000000000009999123100000010000000000000BRCCXCACNOR5100
012013072396CEDO3F      020CEDRO       ON      N1   R$  000000000100100000000010010000000001001000000000100100000000010010000000000000000000000178500001000000000000000035000000000000035035000000000000009999123100000010000000000000BRCEDOACNOR8094
012013072308CELP3       010CELPA       ON           R$  000000000007000000000000700000000000070000000000007000000000000700000000000060000000000007000002000000000000001000000000000000070000000000000000009999123100000010000000000000BRCELPACNOR8112
012013072312CEOC11B     010FII CEO CCP CI      MB   R$  000000000889900000000089000000000008860000000000887900000000088980000000008865000000000889800029000000000000001059000000000009403850000000000000009999123100000010000000000000BRCEOCCTF003108
012013072302CESP3       010CESP        ON      N1   R$  000000000168000000000017000000000001680000000000169600000000017000000000001652000000000170000013000000000000004500000000000007632300000000000000009999123100000010000000000000BRCESPACNOR3159
012013072302CESP6       010CESP        PNB     N1   R$  000000000208300000000021250000000002073000000000208900000000020890000000002081000000000208903715000000000000937500000000001959014700000000000000009999123100000010000000000000BRCESPACNPB4118
012013072396CESP6F      020CESP        PNB     N1   R$  000000000205900000000021990000000002059000000000208700000000020760000000002076000000000207900032000000000000001047000000000002185040000000000000009999123100000010000000000000BRCESPACNPB4118
012013072362CESP6T      030CESP        PNB     N1030R$  000000000209900000000021000000000002099000000000209900000000021000000000000000000000000000000002000000000000002500000000000005248466000000000000009999123100000010000000000000BRCESPACNPB4118
012013072302CGAS3       010COMGAS      ON           R$  000000000484800000000049500000000004848000000000491200000000049490000000004881000000000495000008000000000000007100000000000034877200000000000000009999123100000010000000000000BRCGASACNOR0132
012013072302CGAS5       010COMGAS      PNA          R$  000000000539900000000054400000000005329000000000540900000000054400000000005412000000000544000092000000000000038600000000000208803000000000000000009999123100000010000000000000BRCGASACNPA3129
012013072396CGAS5F      020COMGAS      PNA          R$  000000000534000000000054500000000005340000000000537600000000054500000000005550000000000557000007000000000000000094000000000000505429000000000000009999123100000010000000000000BRCGASACNPA3129
012013072302CGRA3       010GRAZZIOTIN  ON           R$  000000000150100000000015500000000001501000000000153000000000015500000000001526000000000155000018000000000000007600000000000011628700000000000000009999123100000010000000000000BRCGRAACNOR2061
012013072396CGRA3F      020GRAZZIOTIN  ON           R$  000000000169900000000016990000000001699000000000169900000000016990000000001530000000000169900001000000000000000003000000000000005097000000000000009999123100000010000000000000BRCGRAACNOR2061
012013072362CGRA3T      030GRAZZIOTIN  ON        360R$  000000000168500000000016860000000001685000000000168500000000016860000000000000000000000000000002000000000000001000000000000001685123000000000000009999123100000010000000000000BRCGRAACNOR2061
012013072302CGRA4       010GRAZZIOTIN  PN           R$  000000000157800000000017000000000001578000000000163400000000016160000000001616000000000170000033000000000000011300000000000018472700000000000000009999123100000010000000000000BRCGRAACNPR9061
012013072396CGRA4F      020GRAZZIOTIN  PN           R$  000000000163500000000016350000000001635000000000163500000000016350000000001645000000000171500001000000000000000001000000000000001635000000000000009999123100000010000000000000BRCGRAACNPR9061
012013072302CHVX11B     010CHEVRON     DRN     MB   R$  000000002832000000000283200000000028320000000002832000000000283200000000025000000000002912700004000000000000001600000000000045312000000000000000009999123100000010000000000000BRCHVXBDR008108
012013072302CIEL3       010CIELO       ON      NM   R$  000000000562500000000056390000000005489000000000554500000000055430000000005530000000000554304617000000000001037700000000005754714600000000000000009999123100000010000000000000BRCIELACNOR3111
012013072396CIEL3F      020CIELO       ON      NM   R$  000000000563800000000056490000000005491000000000554100000000054910000000005500000000000555000175000000000000004935000000000027348091000000000000009999123100000010000000000000BRCIELACNOR3111
012013072362CIEL3T      030CIELO       ON      NM030R$  000000000555800000000055590000000005558000000000555800000000055590000000000000000000000000000002000000000000000500000000000002779171000000000000009999123100000010000000000000BRCIELACNOR3111
012013072378CIELH57     070CIEL        ON      NM000R$  000000000008100000000000810000000000081000000000008100000000000810000000000000000000000000000001000000000000000300000000000000024300000000000570002013081900000010000000000000BRCIELACNOR3111
012013072396CIQU4F      020CACIQUE     PN           R$  000000000060600000000006060000000000606000000000060600000000006060000000000606000000000070000001000000000000000010000000000000006060000000000000009999123100000010000000000000BRCIQUACNPR5157
012013072302CLSC4       010CELESC      PN      N2   R$  000000000189000000000019300000000001876000000000190100000000019050000000001886000000000191000038000000000000005400000000000010268500000000000000009999123100000010000000000000BRCLSCACNPR3107
012013072396CLSC4F      020CELESC      PN      N2   R$  000000000189000000000018900000000001890000000000189000000000018900000000001801000000000198500003000000000000000147000000000000277830000000000000009999123100000010000000000000BRCLSCACNPR3107
012013072302CMCS11B     010COMCAST     DRN     MB   R$  000000001001900000000100190000000010019000000001001900000000100190000000008800000000001080000006000000000000003900000000000039074100000000000000009999123100000010000000000000BRCMCSBDR008106
012013072302CMIG3       010CEMIG       ON      N1   R$  000000000216000000000021950000000002150000000000217100000000021930000000002176000000000219300556000000000000125300000000000272028300000000000000009999123100000010000000000000BRCMIGACNOR6208
012013072396CMIG3F      020CEMIG       ON      N1   R$  000000000218500000000021990000000002140000000000216900000000021990000000002150000000000219900018000000000000000505000000000001095388000000000000009999123100000010000000000000BRCMIGACNOR6208
012013072302CMIG4       010CEMIG       PN      N1   R$  000000000215000000000021570000000002107000000000213000000000021250000000002120000000000212508363000000000002750200000000005857971700000000000000009999123100000010000000000000BRCMIGACNPR3208
012013072396CMIG4F      020CEMIG       PN      N1   R$  000000000214000000000021600000000002110000000000213400000000021200000000002120000000000213500142000000000000004004000000000008545555000000000000009999123100000010000000000000BRCMIGACNPR3208
012013072362CMIG4T      030CEMIG       PN      N1030R$  000000000214700000000021480000000002137000000000214700000000021430000000000000000000000000000008000000000000046900000000000100720644000000000000009999123100000010000000000000BRCMIGACNPR3208
012013072378CMIGH21     070CMIG        PN      N1000R$  000000000009000000000000900000000000090000000000009000000000000900000000000040000000000000000001000000000000000400000000000000036000000000000210002013081900000010000000000000BRCMIGACNPR3208
012013072378CMIGH22     070CMIG        PN      N1000R$  000000000005000000000000500000000000035000000000004200000000000350000000000005000000000007000006000000000000008300000000000000349300000000000220002013081900000010000000000000BRCMIGACNPR3208
012013072312CNES11B     010FII CENESP  CI  ER  MB   R$  000000001244000000000124400000000012365000000001240200000000124100000000012365000000001241000018000000000000000711000000000008818370000000000000009999123100000010000000000000BRCNESCTF001124
012013072302COCE3       010COELCE      ON           R$  000000000414500000000043490000000004145000000000427200000000043490000000004007000000000435000005000000000000000500000000000002136400000000000000009999123100000010000000000000BRCOCEACNOR0132
012013072302COCE5       010COELCE      PNA          R$  000000000403000000000041950000000004030000000000415600000000041700000000004159000000000417000305000000000000121500000000000505067000000000000000009999123100000010000000000000BRCOCEACNPA3133
012013072396COCE5F      020COELCE      PNA          R$  000000000401000000000041700000000004010000000000412500000000041010000000004101000000000418500022000000000000000386000000000001592318000000000000009999123100000010000000000000BRCOCEACNPA3133
012013072302CPFE3       010CPFL ENERGIAON      NM   R$  000000000214900000000021720000000002124000000000214400000000021330000000002133000000000213803096000000000000552600000000001185180500000000000000009999123100000010000000000000BRCPFEACNOR0121
012013072396CPFE3F      020CPFL ENERGIAON      NM   R$  000000000216600000000021790000000002111000000000214800000000021110000000002110000000000218000029000000000000000740000000000001589386000000000000009999123100000010000000000000BRCPFEACNOR0121
012013072302CPLE3       010COPEL       ON      N1   R$  000000000234400000000023790000000002214000000000225200000000022700000000002260000000000227000134000000000000133200000000000299980300000000000000009999123100000010000000000000BRCPLEACNOR8128
012013072396CPLE3F      020COPEL       ON      N1   R$  000000000234600000000023460000000002345000000000234500000000023450000000002250000000000234000003000000000000000011000000000000025796000000000000009999123100000010000000000000BRCPLEACNOR8128
012013072302CPLE6       010COPEL       PNB     N1   R$  000000000290000000000029500000000002871000000000291100000000029200000000002906000000000292102637000000000000615100000000001791001800000000000000009999123100000010000000000000BRCPLEACNPB9125
012013072396CPLE6F      020COPEL       PNB     N1   R$  000000000292000000000029490000000002820000000000290600000000028200000000002820000000000290000028000000000000000604000000000001755656000000000000009999123100000010000000000000BRCPLEACNPB9125
012013072302CPRE3       010CPFL RENOVAVON      NM   R$  000000000120000000000012100000000001185000000000118800000000011850000000001185000000000118900075000000000000077500000000000092088900000000000000009999123100000010000000000000BRCPREACNOR5100
012013072396CPRE3F      020CPFL RENOVAVON      NM   R$  000000000118900000000012030000000001182000000000118800000000011820000000001182000000000118800018000000000000000556000000000000661063000000000000009999123100000010000000000000BRCPREACNOR5100
012013072302CRDE3       010CR2         ON      NM   R$  000000000040800000000004150000000000400000000000040800000000004100000000000400000000000045000010000000000000015400000000000006286500000000000000009999123100000010000000000000BRCRDEACNOR1108
012013072302CREM3       010CREMER      ON      NM   R$  000000000142700000000014300000000001420000000000142800000000014200000000001391000000000142000007000000000000003400000000000004857400000000000000009999123100000010000000000000BRCREMACNOR2166
012013072396CREM3F      020CREMER      ON      NM   R$  000000000140800000000014310000000001408000000000142200000000014250000000001420000000000142500004000000000000000046000000000000065419000000000000009999123100000010000000000000BRCREMACNOR2166
012013072302CRIV3       010ALFA FINANC ON           R$  000000000055800000000005580000000000558000000000055800000000005580000000000440000000000057000002000000000000006700000000000003738600000000000000009999123100000010000000000000BRCRIVACNOR4189
012013072396CRIV4F      020ALFA FINANC PN           R$  000000000048500000000004850000000000485000000000048500000000004850000000000455000000000048500001000000000000000040000000000000019400000000000000009999123100000010000000000000BRCRIVACNPR1189
012013072302CRUZ3       010SOUZA CRUZ  ON           R$  000000000285500000000028680000000002818000000000283700000000028300000000002826000000000283004385000000000000941700000000002671808100000000000000009999123100000010000000000000BRCRUZACNOR0246
012013072396CRUZ3F      020SOUZA CRUZ  ON           R$  000000000285000000000029060000000002820000000000284900000000028270000000002831000000000284900051000000000000001546000000000004403810000000000000009999123100000010000000000000BRCRUZACNOR0246
012013072362CRUZ3T      030SOUZA CRUZ  ON        016R$  000000000287800000000028790000000002846000000000287200000000028470000000000000000000000000000004000000000000005000000000000014361172000000000000009999123100000010000000000000BRCRUZACNOR0246
012013072362CRUZ3T      030SOUZA CRUZ  ON        030R$  000000000287600000000028770000000002876000000000287600000000028770000000000000000000000000000002000000000000005000000000000014384826000000000000009999123100000010000000000000BRCRUZACNOR0246
012013072362CRUZ3T      030SOUZA CRUZ  ON        121R$  000000000293200000000029330000000002932000000000293200000000029330000000000000000000000000000002000000000000000700000000000002052697000000000000009999123100000010000000000000BRCRUZACNOR0246
012013072362CRUZ3T      030SOUZA CRUZ  ON        184R$  000000000295000000000029510000000002950000000000295000000000029510000000000000000000000000000002000000000000008000000000000023600016000000000000009999123100000010000000000000BRCRUZACNOR0246
012013072378CRUZE82     070CRUZ        ON        000R$  000000000011100000000001110000000000111000000000011100000000001110000000000000000000000000000001000000000000003300000000000000366300000000000319902014051900000010000000000000BRCRUZACNOR0245
012013072302CSAN3       010COSAN       ON      NM   R$  000000000444000000000044500000000004351000000000439900000000043900000000004390000000000439902045000000000000557100000000002450822100000000000000009999123100000010000000000000BRCSANACNOR6107
012013072396CSAN3F      020COSAN       ON      NM   R$  000000000441100000000044500000000004351000000000440600000000043900000000004400000000000444500059000000000000001800000000000007932479000000000000009999123100000010000000000000BRCSANACNOR6107
012013072362CSAN3T      030COSAN       ON      NM030R$  000000000442900000000044300000000004429000000000442900000000044300000000000000000000000000000002000000000000000400000000000001771968000000000000009999123100000010000000000000BRCSANACNOR6107
012013072378CSANH46     070CSAN        ON      NM000R$  000000000003700000000000370000000000037000000000003700000000000370000000000000000000000000000001000000000000000200000000000000007400000000000460002013081900000010000000000000BRCSANACNOR6107
012013072302CSCO11B     010CISCO       DRN     MB   R$  000000000569200000000056920000000005692000000000569200000000056920000000005100000000000630000001000000000000003700000000000021060400000000000000009999123100000010000000000000BRCSCOBDR004110
012013072302CSMG3       010COPASA      ON      NM   R$  000000000365000000000036700000000003587000000000362400000000035960000000003596000000000363001670000000000000261000000000000946069400000000000000009999123100000010000000000000BRCSMGACNOR5127
012013072396CSMG3F      020COPASA      ON      NM   R$  000000000372300000000038170000000003586000000000365600000000036260000000003585000000000362000018000000000000000621000000000002269022000000000000009999123100000010000000000000BRCSMGACNOR5127
012013072314CSMO11      010ISHARES CSMOCI           R$  000000000440100000000045680000000004401000000000448400000000045680000000003800000000000461000002000000000000000020000000000000089690000000000000009999123100000010000000000000BRCSMOCTF002100
012013072302CSNA3       010SID NACIONALON           R$  000000000063300000000006650000000000633000000000065100000000006490000000000647000000000064913856000000000007984800000000005203732200000000000000009999123100000010000000000000BRCSNAACNOR6242
012013072396CSNA3F      020SID NACIONALON           R$  000000000063500000000006640000000000635000000000065100000000006430000000000642000000000064300136000000000000003358000000000002186984000000000000009999123100000010000000000000BRCSNAACNOR6242
012013072362CSNA3T      030SID NACIONALON        016R$  000000000065100000000006520000000000651000000000065100000000006520000000000000000000000000000002000000000000001500000000000000977589000000000000009999123100000010000000000000BRCSNAACNOR6242
012013072362CSNA3T      030SID NACIONALON        030R$  000000000066200000000006630000000000642000000000065400000000006520000000000000000000000000000014000000000000036000000000000023561986000000000000009999123100000010000000000000BRCSNAACNOR6242
012013072362CSNA3T      030SID NACIONALON        062R$  000000000065500000000006560000000000655000000000065500000000006560000000000000000000000000000002000000000000030000000000000019666212000000000000009999123100000010000000000000BRCSNAACNOR6242
012013072362CSNA3T      030SID NACIONALON        090R$  000000000066000000000006610000000000660000000000066000000000006610000000000000000000000000000002000000000000000800000000000000528301000000000000009999123100000010000000000000BRCSNAACNOR6242
012013072378CSNAH48     070CSNA        ON        000R$  000000000018300000000001830000000000170000000000018100000000001700000000000000000000000000000002000000000000000900000000000000163400000000000048002013081900000010000000000000BRCSNAACNOR6242
012013072378CSNAH58     070CSNA        ON        000R$  000000000007300000000000730000000000073000000000007300000000000730000000000000000000000000000001000000000000001000000000000000073000000000000058002013081900000010000000000000BRCSNAACNOR6242
012013072378CSNAH6      070CSNA  FM    ON        000R$  000000000007000000000000730000000000061000000000006600000000000610000000000055000000000006400015000000000000016200000000000001069600000000000060002013081900000010000000000000BRCSNAACNOR6242
012013072378CSNAH64     070CSNA  FM    ON        000R$  000000000004100000000000430000000000041000000000004100000000000430000000000000000000000000000003000000000000002900000000000000119700000000000064002013081900000010000000000000BRCSNAACNOR6242
012013072378CSNAH65     070CSNAE       ON        000R$  000000000003000000000000300000000000030000000000003000000000000300000000000010000000000000000001000000000000000500000000000000015000000000000065002013081900000010000000000000BRCSNAACNOR6242
012013072378CSNAH66     070CSNA  FM    ON        000R$  000000000002400000000000310000000000024000000000002800000000000310000000000000000000000003500007000000000000012100000000000000340100000000000066002013081900000010000000000000BRCSNAACNOR6242
012013072378CSNAH68     070CSNA  FM    ON        000R$  000000000001500000000000210000000000015000000000001900000000000190000000000005000000000006000019000000000000033600000000000000665400000000000068002013081900000010000000000000BRCSNAACNOR6242
012013072378CSNAH7      070CSNA        ON        000R$  000000000000900000000000150000000000009000000000001200000000000120000000000012000000000001300022000000000000037300000000000000472300000000000070002013081900000010000000000000BRCSNAACNOR6242
012013072378CSNAH72     070CSNA        ON        000R$  000000000001000000000000100000000000010000000000001000000000000100000000000000000000000000000002000000000000008000000000000000080000000000000072002013081900000010000000000000BRCSNAACNOR6242
012013072378CSNAI6      070CSNA  FM    ON        000R$  000000000007900000000000840000000000072000000000007800000000000740000000000000000000000000000006000000000000007200000000000000564000000000000060002013091600000010000000000000BRCSNAACNOR6242
012013072378CSNAI62     070CSNA  FM    ON        000R$  000000000006100000000000630000000000061000000000006100000000000630000000000000000000000006300012000000000000034500000000000002123500000000000062002013091600000010000000000000BRCSNAACNOR6242
012013072378CSNAI64     070CSNA  FM    ON        000R$  000000000005700000000000570000000000048000000000004800000000000490000000000000000000000000000005000000000000009100000000000000444200000000000064002013091600000010000000000000BRCSNAACNOR6242
012013072378CSNAI66     070CSNA  FM    ON        000R$  000000000004600000000000460000000000038000000000003900000000000390000000000000000000000004000005000000000000013000000000000000514000000000000066002013091600000010000000000000BRCSNAACNOR6242
012013072378CSNAI68     070CSNA  FM    ON        000R$  000000000003300000000000330000000000030000000000003100000000000300000000000000000000000000000003000000000000006000000000000000187500000000000068002013091600000010000000000000BRCSNAACNOR6242
012013072378CSNAI7      070CSNA        ON        000R$  000000000002600000000000260000000000023000000000002400000000000230000000000012000000000000000004000000000000006600000000000000161700000000000070002013091600000010000000000000BRCSNAACNOR6242
012013072378CSNAI72     070CSNA        ON        000R$  000000000001900000000000190000000000019000000000001900000000000190000000000000000000000000000001000000000000004000000000000000076000000000000072002013091600000010000000000000BRCSNAACNOR6242
012013072378CSNAI74     070CSNA        ON        000R$  000000000001500000000000150000000000015000000000001500000000000150000000000000000000000000000002000000000000005400000000000000081000000000000074002013091600000010000000000000BRCSNAACNOR6242
012013072378CSNAI76     070CSNA        ON        000R$  000000000001100000000000110000000000011000000000001100000000000110000000000000000000000001000002000000000000008000000000000000088000000000000076002013091600000010000000000000BRCSNAACNOR6242
012013072378CSNAI78     070CSNA        ON        000R$  000000000000800000000000090000000000008000000000000800000000000090000000000000000000000000000003000000000000008000000000000000068000000000000078002013091600000010000000000000BRCSNAACNOR6242
012013072378CSNAI8      070CSNA        ON        000R$  000000000000600000000000060000000000006000000000000600000000000060000000000000000000000000000002000000000000008000000000000000048000000000000080002013091600000010000000000000BRCSNAACNOR6242
012013072378CSNAJ7      070CSNA        ON        000R$  000000000003500000000000350000000000035000000000003500000000000350000000000000000000000000000001000000000000001000000000000000035000000000000070002013102100000010000000000000BRCSNAACNOR6242
012013072378CSNAJ8      070CSNA        ON        000R$  000000000001400000000000140000000000014000000000001400000000000140000000000000000000000000000001000000000000004000000000000000056000000000000080002013102100000010000000000000BRCSNAACNOR6242
012013072382CSNAT58     080CSNAE FM    ON        000R$  000000000001000000000000100000000000010000000000001000000000000100000000000005000000000000000002000000000000003000000000000000030000000000000058002013081900000010000000000000BRCSNAACNOR6242
012013072382CSNAT6      080CSNAE FM    ON        000R$  000000000001000000000000110000000000010000000000001000000000000110000000000000000000000000000009000000000000020500000000000000215000000000000060002013081900000010000000000000BRCSNAACNOR6242
012013072382CSNAT62     080CSNAE FM    ON        000R$  000000000001400000000000170000000000014000000000001600000000000170000000000000000000000000000004000000000000009500000000000000152500000000000062002013081900000010000000000000BRCSNAACNOR6242
012013072382CSNAT64     080CSNAE FM    ON        000R$  000000000002100000000000210000000000021000000000002100000000000210000000000000000000000000000001000000000000002000000000000000042000000000000064002013081900000010000000000000BRCSNAACNOR6242
012013072382CSNAT7      080CSNAE       ON        000R$  000000000006500000000000670000000000065000000000006500000000000650000000000000000000000000000003000000000000015000000000000000985000000000000070002013081900000010000000000000BRCSNAACNOR6242
012013072382CSNAU54     080CSNAE       ON        000R$  000000000000800000000000080000000000008000000000000800000000000080000000000008000000000000000001000000000000001100000000000000008800000000000054002013091600000010000000000000BRCSNAACNOR6242
012013072382CSNAU6      080CSNAE FM    ON        000R$  000000000002000000000000200000000000020000000000002000000000000200000000000000000000000000000001000000000000001000000000000000020000000000000060002013091600000010000000000000BRCSNAACNOR6242
012013072382CSNAU62     080CSNAE FM    ON        000R$  000000000002600000000000260000000000026000000000002600000000000260000000000000000000000000000002000000000000005000000000000000130000000000000062002013091600000010000000000000BRCSNAACNOR6242
012013072382CSNAU64     080CSNAE FM    ON        000R$  000000000003400000000000340000000000034000000000003400000000000340000000000000000000000000000002000000000000003500000000000000119000000000000064002013091600000010000000000000BRCSNAACNOR6242
012013072382CSNAU7      080CSNAE       ON        000R$  000000000007500000000000750000000000058000000000006100000000000590000000000058000000000007800016000000000000001600000000000000098100000000000070002013091600000010000000000000BRCSNAACNOR6242
012013072302CTAX11      010CONTAX      UNT     N2   R$  000000000178600000000018190000000001620000000000175700000000017800000000001780000000000181000153000000000000057000000000000100163800000000000000009999123100000010000000000000BRCTAXCDAM19100
012013072396CTAX11F     020CONTAX      UNT     N2   R$  000000000175500000000017550000000001700000000000173200000000017000000000001700000000000175000004000000000000000099000000000000171551000000000000009999123100000010000000000000BRCTAXCDAM19100
012013072302CTAX3       010CONTAX      ON      N2   R$  000000000053900000000005390000000000445000000000046800000000004450000000000401000000000045000004000000000000000400000000000000187400000000000000009999123100000010000000000000BRCTAXACNOR3113
012013072396CTAX3F      020CONTAX      ON      N2   R$  000000000055000000000005500000000000550000000000055000000000005500000000000405000000000000000002000000000000000050000000000000027500000000000000009999123100000010000000000000BRCTAXACNOR3113
012013072302CTAX4       010CONTAX      PN      N2   R$  000000000033300000000003600000000000332000000000034600000000003520000000000338000000000035200108000000000000201900000000000069962200000000000000009999123100000010000000000000BRCTAXACNPR0114
012013072396CTAX4F      020CONTAX      PN      N2   R$  000000000034300000000003630000000000313000000000033700000000003350000000000315000000000036300006000000000000000179000000000000060429000000000000009999123100000010000000000000BRCTAXACNPR0114
012013072302CTGP11B     010CITIGROUP   DRN     MB   R$  000000001173300000000117330000000011733000000001173300000000117330000000011680000000001180000001000000000000004200000000000049278600000000000000009999123100000010000000000000BRCTGPBDR000110
012013072302CTIP3       010CETIP       ON      NM   R$  000000000231000000000023100000000002259000000000228800000000022900000000002290000000000229704281000000000001046500000000002395349300000000000000009999123100000010000000000000BRCTIPACNOR2119
012013072396CTIP3F      020CETIP       ON      NM   R$  000000000230300000000023190000000002264000000000228700000000022870000000002260000000000228700064000000000000002027000000000004637484000000000000009999123100000010000000000000BRCTIPACNOR2119
012013072362CTIP3T      030CETIP       ON      NM045R$  000000000231200000000023130000000002312000000000231200000000023130000000000000000000000000000002000000000000000300000000000000693607000000000000009999123100000010000000000000BRCTIPACNOR2119
012013072378CTIPH53     070CTIP        ON      NM000R$  000000000002000000000000210000000000020000000000002000000000000210000000000000000000000000000002000000000000064200000000000001348100000000000235002013081900000010000000000000BRCTIPACNOR2119
012013072302CTKA4       010KARSTEN     PN           R$  000000000010200000000001020000000000102000000000010200000000001020000000000101000000000010200003000000000000003000000000000000306000000000000000009999123100000010000000000000BRCTKAACNPR7041
