00COTAHIST.2013BOVESPA 20130930                                                                                                                                                                                                                      
012013093002ABCB4       010ABC BRASIL  PN      N2   R$  000000000129100000000013080000000001286000000000129300000000013000000000001290000000000130400944000000000000215200000000000278397900000000000000009999123100000010000000000000BRABCBACNPR4120
012013093096ABCB4F      020ABC BRASIL  PN      N2   R$  000000000129000000000013160000000001281000000000129600000000013160000000001284000000000131600016000000000000000267000000000000346128000000000000009999123100000010000000000000BRABCBACNPR4120
012013093012ABCP11      010FII ABC IMOBCI           R$  000000000100000000000010000000000000998000000000099800000000009980000000000998000000000099900004000000000000000130000000000000129860000000000000009999123100000010000000000000BRABCPCTF000215
012013093002ABRE11      010ABRIL EDUCA UNT     N2   R$  000000000327600000000033760000000003245000000000328600000000033160000000003275000000000331600352000000000000261700000000000860064900000000000000009999123100000010000000000000BRABRECDAM15102
012013093096ABRE11F     020ABRIL EDUCA UNT     N2   R$  000000000333000000000033300000000003241000000000324500000000032720000000003200000000000349600004000000000000000056000000000000181735000000000000009999123100000010000000000000BRABRECDAM15102
012013093002AEDU3       010ANHANGUERA  ON      NM   R$  000000000133000000000013410000000001309000000000132300000000013260000000001318000000000132605798000000000002874500000000003803805400000000000000009999123100000010000000000000BRAEDUACNOR9107
012013093096AEDU3F      020ANHANGUERA  ON      NM   R$  000000000137000000000013700000000001311000000000132500000000013200000000001310000000000132000036000000000000001030000000000001365543000000000000009999123100000010000000000000BRAEDUACNOR9107
012013093062AEDU3T      030ANHANGUERA  ON      NM030R$  000000000133200000000013330000000001332000000000133200000000013330000000000000000000000000000002000000000000010000000000000013320120000000000000009999123100000010000000000000BRAEDUACNOR9107
012013093012AEFI11      010FII AESAPAR CI           R$  000000001185000000000120100000000011850000000001192300000000120100000000011960000000001201000015000000000000001186000000000014141169000000000000009999123100000010000000000000BRAEFICTF002121
012013093002AELP3       010AES ELPA    ON           R$  000000000094900000000010880000000000949000000000098600000000010880000000000951000000000108700039000000000000005200000000000005127700000000000000009999123100000010000000000000BRAELPACNOR2119
012013093096AELP3F      020AES ELPA    ON           R$  000000000102500000000010250000000001025000000000102500000000010250000000000950000000000000000001000000000000000022000000000000022550000000000000009999123100000010000000000000BRAELPACNOR2119
012013093062AELP3T      030AES ELPA    ON        016R$  000000000097500000000010070000000000975000000000098500000000010070000000000000000000000000000004000000000000004500000000000004434206000000000000009999123100000010000000000000BRAELPACNOR2119
012013093012AGCX11      010FII AG CAIXACI           R$  000000009600000000000960000000000095200000000009587000000000960000000000095302000000009600000009000000000000000037000000000003547200000000000000009999123100000010000000000000BRAGCXCTF003110
012013093002AGRO3       010BRASILAGRO  ON      NM   R$  000000000099100000000009910000000000960000000000097400000000009770000000000977000000000101900106000000000000026100000000000025444000000000000000009999123100000010000000000000BRAGROACNOR7102
012013093096AGRO3F      020BRASILAGRO  ON      NM   R$  000000000095000000000009500000000000950000000000095000000000009500000000000950000000000105000003000000000000000062000000000000058900000000000000009999123100000010000000000000BRAGROACNOR7102
012013093062AGRO3T      030BRASILAGRO  ON      NM030R$  000000000098200000000009830000000000982000000000098200000000009830000000000000000000000000000002000000000000002000000000000001964430000000000000009999123100000010000000000000BRAGROACNOR7102
012013093002ALLL3       010ALL AMER LATON      NM   R$  000000000087500000000009020000000000870000000000088400000000008760000000000876000000000087707505000000000002407000000000002129024900000000000000009999123100000010000000000000BRALLLACNOR6118
012013093096ALLL3F      020ALL AMER LATON      NM   R$  000000000089900000000009030000000000873000000000089000000000009030000000000874000000000090300326000000000000009648000000000008589918000000000000009999123100000010000000000000BRALLLACNOR6118
012013093062ALLL3T      030ALL AMER LATON      NM016R$  000000000088000000000008810000000000880000000000088000000000008810000000000000000000000000000002000000000000010000000000000008808588000000000000009999123100000010000000000000BRALLLACNOR6118
012013093062ALLL3T      030ALL AMER LATON      NM030R$  000000000088000000000008810000000000880000000000088000000000008810000000000000000000000000000002000000000000003800000000000003344603000000000000009999123100000010000000000000BRALLLACNOR6118
012013093012ALMI11B     010FII TORRE ALCI      MB   R$  000000031149800000003114980000000310000000000031038000000003113990000000310011000000031179000010000000000000000051000000000015829392000000000000009999123100000010000000000000BRALMICTF003205
012013093002ALPA3       010ALPARGATAS  ON      N1   R$  000000000127600000000012760000000001265000000000127300000000012650000000001251000000000129600003000000000000000400000000000000509300000000000000009999123100000010000000000000BRALPAACNOR0203
012013093002ALPA4       010ALPARGATAS  PN      N1   R$  000000000143900000000014390000000001414000000000142100000000014270000000001427000000000142800800000000000000235000000000000334028600000000000000009999123100000010000000000000BRALPAACNPR7203
012013093096ALPA4F      020ALPARGATAS  PN      N1   R$  000000000142000000000014200000000001415000000000141700000000014180000000001410000000000141200010000000000000000281000000000000398436000000000000009999123100000010000000000000BRALPAACNPR7203
012013093078ALPAK15     070ALPA        PN      N1000R$  000000000002500000000000250000000000025000000000002500000000000250000000000000000000000000000001000000000000004900000000000000122500000000000150002013111800000010000000000000BRALPAACNPR7203
012013093078ALPAK57     070ALPA        PN      N1000R$  000000000008000000000000800000000000080000000000008000000000000800000000000000000000000000000002000000000000049000000000000003920000000000000175002014111700000010000000000000BRALPAACNPR7203
012013093082ALPAW12     080ALPAE       PN      N1000R$  000000000003000000000000300000000000030000000000003000000000000300000000000000000000000000000001000000000000049000000000000001470000000000000120002014111700000010000000000000BRALPAACNPR7203
012013093082ALPAW44     080ALPAE       PN      N1000R$  000000000011000000000001100000000000110000000000011000000000001100000000000000000000000000000002000000000000049000000000000005390000000000000142502014111700000010000000000000BRALPAACNPR7203
012013093002ALSC3       010ALIANSCE    ON      NM   R$  000000000199000000000020200000000001978000000000199400000000019900000000001990000000000199501190000000000000308200000000000614717100000000000000009999123100000010000000000000BRALSCACNOR0104
012013093096ALSC3F      020ALIANSCE    ON      NM   R$  000000000199800000000021000000000001998000000000204900000000021000000000001900000000000210000002000000000000000024000000000000049176000000000000009999123100000010000000000000BRALSCACNOR0104
012013093002ALUP11      010ALUPAR      UNT     N2   R$  000000000177700000000017770000000001734000000000173900000000017500000000001750000000000176000452000000000000448100000000000779278600000000000000009999123100000010000000000000BRALUPCDAM15100
012013093096ALUP11F     020ALUPAR      UNT     N2   R$  000000000176100000000017800000000001721000000000175400000000017800000000001743000000000178000078000000000000001396000000000002449534000000000000009999123100000010000000000000BRALUPCDAM15100
012013093002AMAR3       010LOJAS MARISAON      NM   R$  000000000213000000000021460000000002076000000000209400000000021000000000002100000000000211104821000000000001752100000000003668966000000000000000009999123100000010000000000000BRAMARACNOR4109
012013093096AMAR3F      020LOJAS MARISAON      NM   R$  000000000216600000000021660000000002079000000000210800000000021000000000002090000000000210500044000000000000000665000000000001402015000000000000009999123100000010000000000000BRAMARACNOR4109
012013093062AMAR3T      030LOJAS MARISAON      NM021R$  000000000210900000000021100000000002109000000000210900000000021100000000000000000000000000000002000000000000010000000000000021094183000000000000009999123100000010000000000000BRAMARACNOR4109
012013093002AMBV3       010AMBEV       ON           R$  000000000874100000000087600000000008468000000000855100000000084680000000008468000000000848202499000000000000446500000000003818163000000000000000009999123100000010000000000000BRAMBVACNOR4154
012013093096AMBV3F      020AMBEV       ON           R$  000000000879400000000087990000000008520000000000860900000000085200000000008523000000000862300060000000000000001274000000000010968440000000000000009999123100000010000000000000BRAMBVACNOR4154
012013093062AMBV3T      030AMBEV       ON        030R$  000000000865600000000086570000000008656000000000865600000000086570000000000000000000000000000002000000000000001000000000000008656440000000000000009999123100000010000000000000BRAMBVACNOR4154
012013093002AMBV4       010AMBEV       PN           R$  000000000871800000000087180000000008490000000000855800000000085460000000008537000000000854607634000000000002115100000000018102025100000000000000009999123100000010000000000000BRAMBVACNPR1154
012013093096AMBV4F      020AMBEV       PN           R$  000000000873400000000087340000000008503000000000858500000000085030000000008510000000000867900160000000000000003331000000000028599202000000000000009999123100000010000000000000BRAMBVACNPR1154
012013093062AMBV4S      030AMBEV       PN        090R$  000000000875300000000087540000000008753000000000875300000000087540000000000000000000000000000002000000000000001000000000000008753827000000000000009999123100000010000000000000BRAMBVACNPR1154
012013093062AMBV4T      030AMBEV       PN        030R$  000000000860900000000086100000000008586000000000859900000000086050000000000000000000000000000008000000000000004300000000000036979603000000000000009999123100000010000000000000BRAMBVACNPR1154
012013093062AMBV4T      030AMBEV       PN        060R$  000000000863900000000086400000000008639000000000863900000000086400000000000000000000000000000002000000000000003000000000000025918571000000000000009999123100000010000000000000BRAMBVACNPR1154
012013093062AMBV4T      030AMBEV       PN        081R$  000000000878100000000087820000000008781000000000878100000000087820000000000000000000000000000002000000000000000500000000000004390987000000000000009999123100000010000000000000BRAMBVACNPR1154
012013093002AORE3       010ALL ORE     ON           R$  000000000014900000000001490000000000149000000000014900000000001490000000000131000000000078000001000000000000000100000000000000014900000000000000009999123100000010000000000000BRAOREACNOR2100
012013093002ARTR3       010ARTERIS     ON      NM   R$  000000000193000000000019700000000001892000000000193800000000019700000000001948000000000197001324000000000000338800000000000656912300000000000000009999123100000010000000000000BRARTRACNOR3101
012013093096ARTR3F      020ARTERIS     ON      NM   R$  000000000197400000000019740000000001904000000000192300000000019330000000001927000000000193900012000000000000000290000000000000557777000000000000009999123100000010000000000000BRARTRACNOR3101
012013093002ARZZ3       010AREZZO CO   ON      NM   R$  000000000390000000000039420000000003862000000000389000000000039190000000003910000000000391900561000000000000184700000000000718518400000000000000009999123100000010000000000000BRARZZACNOR3109
012013093096ARZZ3F      020AREZZO CO   ON      NM   R$  000000000380000000000039140000000003700000000000386500000000037000000000003654000000000392000011000000000000000211000000000000815548000000000000009999123100000010000000000000BRARZZACNOR3109
012013093002AUTM3       010AUTOMETAL   ON      NM   R$  000000000178800000000018640000000001775000000000181800000000018640000000001834000000000186400880000000000000298000000000000542000200000000000000009999123100000010000000000000BRAUTMACNOR8109
012013093096AUTM3F      020AUTOMETAL   ON      NM   R$  000000000178600000000017860000000001772000000000178100000000017720000000001768000000000190000004000000000000000103000000000000183480000000000000009999123100000010000000000000BRAUTMACNOR8109
012013093002AZEV4       010AZEVEDO     PN           R$  000000000012500000000001250000000000120000000000012400000000001250000000000126000000000014000005000000000000010000000000000001248100000000000000009999123100000010000000000000BRAZEVACNPR7113
012013093002BAHI3       010BAHEMA      ON           R$  000000000050500000000005050000000000490000000000049600000000005050000000000475000000000050500003000000000000000900000000000000447000000000000000009999123100000010000000000000BRBAHIACNOR1066
012013093002BAUH4       010EXCELSIOR   PN           R$  000000000089000000000009000000000000890000000000089300000000009000000000000830000000000090000007000000000000001600000000000001428900000000000000009999123100000010000000000000BRBAUHACNPR3108
012013093096BAUH4F      020EXCELSIOR   PN           R$  000000000089900000000008990000000000899000000000089900000000008990000000000800000000000089900001000000000000000060000000000000053940000000000000009999123100000010000000000000BRBAUHACNPR3108
012013093002BAZA3       010AMAZONIA    ON           R$  000000000003200000000000320000000000032000000000003200000000000320000000000032000000000003300003000000000000015000000000000000480000000000000000009999123100000010000000000000BRBAZAACNOR0163
012013093002BBAS3       010BRASIL      ON      NM   R$  000000000261200000000026260000000002562000000000259400000000025850000000002580000000000258517200000000000006614300000000017161084900000000000000009999123100000010000000000000BRBBASACNOR3239
012013093096BBAS3F      020BRASIL      ON      NM   R$  000000000261100000000026350000000002566000000000259700000000025700000000002570000000000257800285000000000000006999000000000018181090000000000000009999123100000010000000000000BRBBASACNOR3239
012013093062BBAS3T      030BRASIL      ON      NM030R$  000000000264500000000026460000000002645000000000264500000000026460000000000000000000000000000002000000000000008000000000000021163459000000000000009999123100000010000000000000BRBBASACNOR3239
012013093062BBAS3T      030BRASIL      ON      NM091R$  000000000266300000000026640000000002644000000000266200000000026450000000000000000000000000000004000000000000002200000000000005856456000000000000009999123100000010000000000000BRBBASACNOR3239
012013093062BBAS3T      030BRASIL      ON      NM100R$  000000000265300000000026540000000002653000000000265300000000026540000000000000000000000000000002000000000000000400000000000001061367000000000000009999123100000010000000000000BRBBASACNOR3239
012013093078BBASJ21     070BBAS        ON      NM000R$  000000000059400000000005940000000000594000000000059400000000005940000000000000000000000000000001000000000000000200000000000000118800000000000199502013102100000010000000000000BRBBASACNOR3237
012013093078BBASJ22     070BBAS        ON      NM000R$  000000000050000000000005000000000000500000000000050000000000005000000000000111000000000000000001000000000000000100000000000000050000000000000209502013102100000010000000000000BRBBASACNOR3237
012013093078BBASJ23     070BBAS        ON      NM000R$  000000000046000000000004600000000000445000000000045500000000004450000000000422000000000000000006000000000000030000000000000013650000000000000216102013102100000010000000000000BRBBASACNOR3235
012013093078BBASJ24     070BBAS        ON      NM000R$  000000000036000000000003620000000000346000000000035400000000003620000000000311000000000036200007000000000000004600000000000001630800000000000227102013102100000010000000000000BRBBASACNOR3236
012013093078BBASJ25     070BBAS  FM    ON      NM000R$  000000000023500000000002480000000000190000000000022400000000001900000000000188000000000021600074000000000000149300000000000033541100000000000239502013102100000010000000000000BRBBASACNOR3237
012013093078BBASJ26     070BBAS  FM    ON      NM000R$  000000000017500000000001840000000000140000000000016700000000001500000000000039000000000014900039000000000000036400000000000006087000000000000246102013102100000010000000000000BRBBASACNOR3235
012013093078BBASJ27     070BBAS  FM    ON      NM000R$  000000000010200000000001060000000000073000000000008100000000000790000000000070000000000008700256000000000000262800000000000021504000000000000256102013102100000010000000000000BRBBASACNOR3235
012013093078BBASJ28     070BBAS  FM    ON      NM000R$  000000000003400000000000360000000000020000000000002900000000000200000000000020000000000002500300000000000000352900000000000010434900000000000269502013102100000010000000000000BRBBASACNOR3237
012013093078BBASJ29     070BBAS  FM    ON      NM000R$  000000000001400000000000170000000000008000000000001200000000000150000000000007000000000001500138000000000000347400000000000004425900000000000276102013102100000010000000000000BRBBASACNOR3235
012013093078BBASJ30     070BBAS        ON      NM000R$  000000000000600000000000060000000000005000000000000500000000000050000000000003000000000000500006000000000000019000000000000000105000000000000286102013102100000010000000000000BRBBASACNOR3235
012013093078BBASJ31     070BBAS        ON      NM000R$  000000000000100000000000010000000000001000000000000100000000000010000000000000000000000000200001000000000000011800000000000000011800000000000307302013102100000010000000000000BRBBASACNOR3238
012013093078BBASJ56     070BBAS        ON      NM000R$  000000000012200000000001250000000000122000000000012300000000001250000000000000000000000000000002000000000000000800000000000000098800000000000251102013102100000010000000000000BRBBASACNOR3235
012013093078BBASJ65     070BBAS        ON      NM000R$  000000000004600000000000460000000000038000000000004200000000000440000000000000000000000000000015000000000000030400000000000001295500000000000265002013102100000010000000000000BRBBASACNOR3239
012013093078BBASK24     070BBAS        ON      NM000R$  000000000037000000000003700000000000350000000000036300000000003500000000000320000000000000000007000000000000004500000000000001635000000000000229502013111800000010000000000000BRBBASACNOR3237
012013093078BBASK25     070BBAS  FM    ON      NM000R$  000000000028300000000002890000000000251000000000027400000000002510000000000000000000000027800043000000000000054300000000000014911300000000000237102013111800000010000000000000BRBBASACNOR3236
012013093078BBASK26     070BBAS  FM    ON      NM000R$  000000000020400000000002150000000000174000000000019300000000001740000000000100000000000000000015000000000000023300000000000004503400000000000247102013111800000010000000000000BRBBASACNOR3236
012013093078BBASK27     070BBAS  FM    ON      NM000R$  000000000013600000000001430000000000120000000000012900000000001240000000000045000000000000000019000000000000029300000000000003802400000000000257102013111800000010000000000000BRBBASACNOR3236
012013093078BBASK28     070BBAS  FM    ON      NM000R$  000000000007800000000000840000000000061000000000007100000000000620000000000045000000000008000030000000000000038800000000000002791200000000000267102013111800000010000000000000BRBBASACNOR3236
012013093078BBASK29     070BBAS  FM    ON      NM000R$  000000000003200000000000350000000000025000000000003200000000000250000000000020000000000003700052000000000000043800000000000001405800000000000279502013111800000010000000000000BRBBASACNOR3237
012013093078BBASK32     070BBAS        ON      NM000R$  000000000000300000000000030000000000003000000000000300000000000030000000000001000000000009800001000000000000002000000000000000006000000000000320002013111800000010000000000000BRBBASACNOR3239
012013093078BBASK56     070BBAS        ON      NM000R$  000000000010500000000001050000000000098000000000010200000000000980000000000060000000000000000007000000000000015000000000000001530000000000000262302013111800000010000000000000BRBBASACNOR3238
012013093078BBASL26     070BBAS        ON      NM000R$  000000000023100000000002310000000000231000000000023100000000002310000000000210000000000000000001000000000000000100000000000000023100000000000246102013121600000010000000000000BRBBASACNOR3235
012013093078BBASL27     070BBAS        ON      NM000R$  000000000014800000000001480000000000148000000000014800000000001480000000000016000000000000000001000000000000500000000000000074000000000000000259502013121600000010000000000000BRBBASACNOR3237
012013093078BBASL28     070BBAS        ON      NM000R$  000000000009400000000000960000000000094000000000009400000000000960000000000016000000000009500007000000000000004400000000000000415400000000000269502013121600000010000000000000BRBBASACNOR3237
012013093078BBASL29     070BBAS        ON      NM000R$  000000000006900000000000710000000000061000000000006900000000000610000000000010000000000000000021000000000000012600000000000000870400000000000276102013121600000010000000000000BRBBASACNOR3235
012013093078BBASL60     070BBAS        ON      NM000R$  000000000003800000000000380000000000036000000000003700000000000360000000000014000000000004500047000000000000085800000000000003260000000000000286202013121600000010000000000000BRBBASACNOR3233
012013093082BBASM27     080BBASE       ON      NM000R$  000000000011000000000001100000000000110000000000011000000000001100000000000000000000000000000002000000000000000200000000000000022000000000000259502014012000000010000000000000BRBBASACNOR3237
012013093082BBASV23     080BBASE       ON      NM000R$  000000000000300000000000030000000000003000000000000300000000000030000000000000000000000000300001000000000000000100000000000000000300000000000216102013102100000010000000000000BRBBASACNOR3235
012013093082BBASV24     080BBASE FM    ON      NM000R$  000000000000200000000000050000000000002000000000000200000000000040000000000000000000000000500016000000000000017300000000000000047200000000000227102013102100000010000000000000BRBBASACNOR3236
012013093082BBASV25     080BBASE FM    ON      NM000R$  000000000001000000000000120000000000009000000000001000000000000120000000000008000000000001700034000000000000064800000000000000684500000000000239502013102100000010000000000000BRBBASACNOR3237
012013093082BBASV26     080BBASE FM    ON      NM000R$  000000000001500000000000240000000000015000000000001700000000000240000000000017000000000002500056000000000000152800000000000002642000000000000246102013102100000010000000000000BRBBASACNOR3235
012013093082BBASV27     080BBASE FM    ON      NM000R$  000000000004500000000000540000000000037000000000004400000000000540000000000000000000000006000204000000000000206400000000000009099900000000000256102013102100000010000000000000BRBBASACNOR3235
012013093082BBASV28     080BBASE       ON      NM000R$  000000000010000000000001180000000000100000000000011000000000001130000000000000000000000000000024000000000000049000000000000005392500000000000269502013102100000010000000000000BRBBASACNOR3237
012013093082BBASW26     080BBASE FM    ON      NM000R$  000000000004000000000000400000000000040000000000004000000000000400000000000000000000000000000001000000000000002800000000000000112000000000000247102013111800000010000000000000BRBBASACNOR3236
012013093082BBASW27     080BBASE FM    ON      NM000R$  000000000006900000000000820000000000068000000000007200000000000820000000000000000000000000000012000000000000022000000000000001592500000000000257102013111800000010000000000000BRBBASACNOR3236
012013093082BBASW28     080BBASE       ON      NM000R$  000000000011800000000001180000000000118000000000011800000000001180000000000115000000000000000003000000000000007000000000000000826000000000000267102013111800000010000000000000BRBBASACNOR3236
012013093082BBASW56     080BBASE       ON      NM000R$  000000000008800000000000880000000000088000000000008800000000000880000000000000000000000000000003000000000000006000000000000000528000000000000262302013111800000010000000000000BRBBASACNOR3238
012013093082BBASX25     080BBASE       ON      NM000R$  000000000003700000000000410000000000037000000000003700000000000410000000000032000000000004200004000000000000003300000000000000122900000000000236102013121600000010000000000000BRBBASACNOR3235
012013093082BBASX55     080BBASE       ON      NM000R$  000000000003300000000000350000000000033000000000003300000000000350000000000000000000000000000003000000000000009000000000000000303000000000000235202013121600000010000000000000BRBBASACNOR3233
012013093002BBDC3       010BRADESCO    ON      N1   R$  000000000356300000000035800000000003449000000000349300000000034490000000003449000000000346505057000000000001777300000000006207046300000000000000009999123100000010000000000000BRBBDCACNOR1606
012013093096BBDC3F      020BRADESCO    ON      N1   R$  000000000368900000000036890000000003232000000000352400000000034680000000003300000000000346200087000000000000001825000000000006431328000000000000009999123100000010000000000000BRBBDCACNOR1606
012013093002BBDC4       010BRADESCO    PN      N1   R$  000000000313200000000031460000000003038000000000307700000000030380000000003038000000000304016992000000000013008600000000040031826700000000000000009999123100000010000000000000BRBBDCACNPR8606
012013093096BBDC4F      020BRADESCO    PN      N1   R$  000000000316100000000031610000000003050000000000309600000000030910000000003050000000000309100421000000000000007135000000000022085150000000000000009999123100000010000000000000BRBBDCACNPR8606
012013093062BBDC4T      030BRADESCO    PN      N1016R$  000000000306300000000030640000000003063000000000306300000000030640000000000000000000000000000002000000000000022200000000000068012301000000000000009999123100000010000000000000BRBBDCACNPR8606
012013093078BBDCJ2      070BBDC        PN      N1000R$  000000000003200000000000320000000000022000000000002500000000000220000000000000000000000000000037000000000000011700000000000000294100000000000324402013102100000010000000000000BRBBDCACNPR8603
012013093078BBDCJ29     070BBDC        PN      N1000R$  000000000025600000000002580000000000223000000000023300000000002230000000000000000000000000000091000000000000051500000000000012035300000000000287602013102100000010000000000000BRBBDCACNPR8602
012013093078BBDCJ30     070BBDC        PN      N1000R$  000000000017500000000001860000000000133000000000015900000000001350000000000131000000000015500474000000000000224700000000000035922100000000000297602013102100000010000000000000BRBBDCACNPR8602
012013093078BBDCJ31     070BBDC        PN      N1000R$  000000000010100000000001120000000000070000000000009500000000000700000000000060000000000007000332000000000000206000000000000019646300000000000307602013102100000010000000000000BRBBDCACNPR8602
012013093078BBDCJ32     070BBDC        PN      N1000R$  000000000005300000000000570000000000033000000000004700000000000330000000000032000000000004500122000000000000170500000000000008146100000000000317602013102100000010000000000000BRBBDCACNPR8602
012013093078BBDCJ33     070BBDC        PN      N1000R$  000000000002400000000000260000000000013000000000002000000000000130000000000013000000000003500077000000000000123500000000000002503800000000000327602013102100000010000000000000BRBBDCACNPR8602
012013093078BBDCJ34     070BBDC        PN      N1000R$  000000000000900000000000090000000000004000000000000600000000000040000000000004000000000001500053000000000000072700000000000000454300000000000337202013102100000010000000000000BRBBDCACNPR8600
012013093078BBDCK30     070BBDC        PN      N1000R$  000000000021500000000002150000000000164000000000018800000000001640000000000000000000000000000173000000000000144300000000000027145900000000000299802013111800000010000000000000BRBBDCACNPR8605
012013093078BBDCK31     070BBDC        PN      N1000R$  000000000013600000000001360000000000111000000000011600000000001110000000000000000000000012800118000000000000070800000000000008226800000000000309802013111800000010000000000000BRBBDCACNPR8605
012013093078BBDCK32     070BBDC        PN      N1000R$  000000000009800000000001010000000000077000000000008900000000000770000000000072000000000000000121000000000000192900000000000017209300000000000317402013111800000010000000000000BRBBDCACNPR8601
012013093078BBDCK33     070BBDC        PN      N1000R$  000000000005700000000000600000000000041000000000004900000000000410000000000021000000000008800267000000000000200700000000000009836500000000000327602013111800000010000000000000BRBBDCACNPR8602
012013093078BBDCK34     070BBDC        PN      N1000R$  000000000002900000000000290000000000019000000000002200000000000190000000000011000000000000000133000000000000168400000000000003757900000000000339602013111800000010000000000000BRBBDCACNPR8604
012013093078BBDCL3      070BBDC        PN      N1000R$  000000000009100000000000910000000000091000000000009100000000000910000000000000000000000000000002000000000000500000000000000045500000000000000327202013121600000010000000000000BRBBDCACNPR8601
012013093078BBDCL32     070BBDC        PN      N1000R$  000000000013100000000001320000000000123000000000012400000000001230000000000000000000000000000023000000000000109400000000000013586700000000000317202013121600000010000000000000BRBBDCACNPR8600
012013093078BBDCL33     070BBDC        PN      N1000R$  000000000023900000000002400000000000227000000000023300000000002270000000000000000000000000000003000000000001000000000000000233150000000000000297002013121600000010000000000000BRBBDCACNPR8598
012013093078BBDCL34     070BBDC        PN      N1000R$  000000000005800000000000590000000000058000000000005800000000000580000000000000000000000000000015000000000000008200000000000000479300000000000337202013121600000010000000000000BRBBDCACNPR8600
012013093078BBDCL35     070BBDC        PN      N1000R$  000000000004000000000000400000000000030000000000003200000000000300000000000013000000000009000031000000000000022800000000000000746300000000000347202013121600000010000000000000BRBBDCACNPR8600
012013093078BBDCL36     070BBDC        PN      N1000R$  000000000009600000000001020000000000091000000000009200000000001010000000000025000000000000000042000000000013338500000000001232574900000000000324102013121600000010000000000000BRBBDCACNPR8597
012013093082BBDCV25     080BBDCE       PN      N1000R$  000000000000300000000000030000000000003000000000000300000000000030000000000003000000000000000002000000000000020000000000000000060000000000000249402013102100000010000000000000BRBBDCACNPR8603
012013093082BBDCV27     080BBDCE       PN      N1000R$  000000000000500000000000050000000000005000000000000500000000000050000000000000000000000000500001000000000000001000000000000000005000000000000267602013102100000010000000000000BRBBDCACNPR8602
012013093082BBDCV29     080BBDCE       PN      N1000R$  000000000001400000000000210000000000012000000000001700000000000190000000000000000000000000000087000000000000110300000000000001888400000000000287602013102100000010000000000000BRBBDCACNPR8602
012013093082BBDCV30     080BBDCE       PN      N1000R$  000000000002500000000000400000000000025000000000003100000000000400000000000000000000000011800143000000000000175500000000000005608200000000000297602013102100000010000000000000BRBBDCACNPR8602
012013093082BBDCV31     080BBDCE       PN      N1000R$  000000000004900000000000740000000000049000000000006200000000000740000000000000000000000000000047000000000000078300000000000004862900000000000307602013102100000010000000000000BRBBDCACNPR8602
012013093082BBDCV32     080BBDCE       PN      N1000R$  000000000010000000000001370000000000097000000000011100000000001370000000000000000000000000000036000000000000068700000000000007684500000000000317602013102100000010000000000000BRBBDCACNPR8602
012013093082BBDCW28     080BBDCE       PN      N1000R$  000000000001500000000000190000000000015000000000001700000000000190000000000011000000000003000010000000000000018000000000000000312000000000000277602013111800000010000000000000BRBBDCACNPR8602
012013093082BBDCW30     080BBDCE       PN      N1000R$  000000000006400000000000640000000000064000000000006400000000000640000000000000000000000000000001000000000000000300000000000000019200000000000299802013111800000010000000000000BRBBDCACNPR8605
012013093082BBDCW31     080BBDCE       PN      N1000R$  000000000009600000000001140000000000090000000000009600000000001140000000000000000000000000000016000000000000025900000000000002510000000000000309802013111800000010000000000000BRBBDCACNPR8605
012013093082BBDCW32     080BBDCE       PN      N1000R$  000000000013200000000001590000000000130000000000014900000000001590000000000000000000000000000024000000000000036100000000000005383800000000000317402013111800000010000000000000BRBBDCACNPR8601
012013093012BBFI11B     010FII BB PROGRCI      MB   R$  000000042500000000004250000000000425000000000042500000000004250000000000422001000000042500000001000000000000000001000000000000425000000000000000009999123100000010000000000000BRBBFICTF006198
012013093012BBPO11      010FII BB PRGIICI           R$  000000001110000000000111450000000011070000000001108500000000110720000000011072000000001110000138000000000000018361000000000203534769000000000000009999123100000010000000000000BRBBPOCTF003110
012013093012BBRC11      010FII BB CORP CI           R$  000000000915000000000091500000000009150000000000915000000000091500000000009110000000000915000002000000000000000490000000000004483500000000000000009999123100000010000000000000BRBBRCCTF004124
012013093002BBRK3       010BR BROKERS  ON      NM   R$  000000000057700000000005780000000000568000000000057400000000005750000000000571000000000057501986000000000000396200000000000227755600000000000000009999123100000010000000000000BRBBRKACNOR4108
012013093096BBRK3F      020BR BROKERS  ON      NM   R$  000000000057000000000005700000000000570000000000057000000000005700000000000566000000000065000001000000000000000080000000000000045600000000000000009999123100000010000000000000BRBBRKACNOR4108
012013093002BBSE3       010BBSEGURIDADEON      NM   R$  000000000220100000000022040000000002166000000000218300000000021810000000002181000000000219011590000000000003580300000000007818149000000000000000009999123100000010000000000000BRBBSEACNOR5101
012013093096BBSE3F      020BBSEGURIDADEON      NM   R$  000000000219000000000022000000000002163000000000218200000000021790000000002170000000000218000532000000000000014474000000000031588743000000000000009999123100000010000000000000BRBBSEACNOR5101
012013093062BBSE3T      030BBSEGURIDADEON      NM115R$  000000000226000000000022610000000002260000000000226000000000022610000000000000000000000000000002000000000000002200000000000004973424000000000000009999123100000010000000000000BRBBSEACNOR5101
012013093002BBTG11      010BTG PACTUAL UNT          R$  000000000277000000000028790000000002750000000000280000000000027500000000002750000000000279901636000000000000817400000000002289534800000000000000009999123100000010000000000000BRBBTGUNT007105
012013093096BBTG11F     020BTG PACTUAL UNT          R$  000000000282500000000028500000000002768000000000280500000000027760000000002761000000000299600014000000000000000493000000000001382920000000000000009999123100000010000000000000BRBBTGUNT007105
012013093062BBTG11T     030BTG PACTUAL UNT       030R$  000000000281600000000028170000000002816000000000281600000000028170000000000000000000000000000002000000000000000800000000000002253392000000000000009999123100000010000000000000BRBBTGUNT007105
012013093012BBVJ11      010FII C JARDIMCI           R$  000000000777000000000079000000000007770000000000782800000000077700000000007770000000000792000014000000000000000273000000000002137218000000000000009999123100000010000000000000BRBBVJCTF001133
012013093012BCFF11B     010FII BC FFII CI      MB   R$  000000000895100000000091000000000008940000000000899300000000090500000000009002000000000905000125000000000000008188000000000073636075000000000000009999123100000010000000000000BRBCFFCTF000142
012013093002BDLL4       010BARDELLA    PN           R$  000000000510000000000051000000000005100000000000510000000000051000000000005000000000000540000003000000000000000300000000000001530000000000000000009999123100000010000000000000BRBDLLACNPR8149
012013093002BEEF3       010MINERVA     ON      NM   R$  000000000098000000000010100000000000972000000000099600000000010100000000001001000000000101002511000000000000691000000000000688849800000000000000009999123100000010000000000000BRBEEFACNOR6104
012013093096BEEF3F      020MINERVA     ON      NM   R$  000000000098000000000010170000000000980000000000098900000000010010000000000988000000000101800011000000000000000438000000000000433486000000000000009999123100000010000000000000BRBEEFACNOR6104
012013093002BEES3       010BANESTES    ON           R$  000000000005000000000000500000000000049000000000004900000000000500000000000049000000000005000007000000000000044000000000000002187000000000000000009999123100000010000000000000BRBEESACNOR9244
012013093010BEES9       010BANESTES    ON  REC      R$  000000000004900000000000490000000000049000000000004900000000000490000000000044000000000004900001000000000000000100000000000000004900000000000000009999123100000010000000000000BRBEESR03OR0241
012013093002BEMA3       010BEMATECH    ON      NM   R$  000000000078000000000007860000000000773000000000077700000000007800000000000777000000000078100332000000000000092400000000000071822300000000000000009999123100000010000000000000BRBEMAACNOR0114
012013093096BEMA3F      020BEMATECH    ON      NM   R$  000000000078400000000007840000000000784000000000078400000000007840000000000770000000000078400001000000000000000030000000000000023520000000000000009999123100000010000000000000BRBEMAACNOR0114
012013093002BGIP4       010BANESE      PN           R$  000000000484900000000049990000000004849000000000492400000000049990000000004800000000000499900002000000000000000200000000000000984800000000000000009999123100000010000000000000BRBGIPACNPR8179
012013093002BHGR3       010BHG         ON      NM   R$  000000000146500000000014650000000001455000000000145600000000014560000000001456000000000146100011000000000000002500000000000003640100000000000000009999123100000010000000000000BRBHGRACNOR9101
012013093002BICB4       010BICBANCO    PN      N1   R$  000000000042800000000004500000000000428000000000044500000000004500000000000450000000000045200153000000000000214000000000000095402100000000000000009999123100000010000000000000BRBICBACNPR7131
012013093096BICB4F      020BICBANCO    PN      N1   R$  000000000042000000000004470000000000420000000000044300000000004470000000000422000000000044600004000000000000000106000000000000047022000000000000009999123100000010000000000000BRBICBACNPR7131
012013093002BIOM3       010BIOMM       ON           R$  000000000095000000000009500000000000950000000000095000000000009500000000000900000000000095000003000000000000003000000000000002850000000000000000009999123100000010000000000000BRBIOMACNOR2101
012013093096BIOM3F      020BIOMM       ON           R$  000000000094000000000009400000000000940000000000094000000000009400000000000860000000000092000001000000000000000100000000000000094000000000000000009999123100000010000000000000BRBIOMACNOR2101
012013093002BISA3       010BROOKFIELD  ON      NM   R$  000000000016500000000001650000000000160000000000016200000000001610000000000161000000000016202536000000000006359900000000001030468700000000000000009999123100000010000000000000BRBISAACNOR8109
012013093096BISA3F      020BROOKFIELD  ON      NM   R$  000000000016700000000001670000000000160000000000016200000000001600000000000160000000000016100021000000000000000498000000000000080765000000000000009999123100000010000000000000BRBISAACNOR8109
012013093062BISA3T      030BROOKFIELD  ON      NM030R$  000000000016300000000001640000000000162000000000016200000000001630000000000000000000000000000012000000000000094000000000000015283944000000000000009999123100000010000000000000BRBISAACNOR8109
012013093062BISA3T      030BROOKFIELD  ON      NM060R$  000000000016500000000001660000000000164000000000016500000000001650000000000000000000000000000004000000000000005600000000000000926793000000000000009999123100000010000000000000BRBISAACNOR8109
012013093062BISA3T      030BROOKFIELD  ON      NM120R$  000000000016800000000001690000000000168000000000016800000000001690000000000000000000000000000002000000000000007300000000000001230961000000000000009999123100000010000000000000BRBISAACNOR8109
012013093012BJRC11      010FII JS RECIMCI           R$  000000009490000000000949000000000094900000000009490000000000949000000000084200000000009400000001000000000000000001000000000000094900000000000000009999123100000010000000000000BRBJRCCTF007110
012013093002BMEB3       010MERC BRASIL ON           R$  000000000161400000000016140000000001516000000000156500000000015160000000001515000000000167900003000000000000000600000000000000939000000000000000009999123100000010000000000000BRBMEBACNOR8190
012013093002BMEB4       010MERC BRASIL PN           R$  000000000108500000000010850000000001085000000000108500000000010850000000001065000000000111000001000000000000000500000000000000542500000000000000009999123100000010000000000000BRBMEBACNPR5191
012013093002BMIN4       010MERC INVEST PN           R$  000000000002400000000000240000000000024000000000002400000000000240000000000024000000000002500003000000000000014000000000000000336000000000000000009999123100000010000000000000BRBMINACNPR1160
012013093002BMKS3       010BIC MONARK  ON           R$  000000003400000000000340000000000034000000000003400000000000340000000000032000000000003400000001000000000000000002000000000000068000000000000000009999123100000010000000000000BRBMKSACNOR9155
012013093012BMLC11B     010FII BMBRC LCCI      MB   R$  000000001150000000000115990000000011347000000001139500000000115990000000011300000000001159900012000000000000000200000000000002279067000000000000009999123100000010000000000000BRBMLCCTF004119
012013093002BMTO4       010BRASMOTOR   PN           R$  000000000008700000000000880000000000087000000000008700000000000880000000000086000000000008800003000000000000003000000000000000262000000000000000009999123100000010000000000000BRBMTOACNPR6065
012013093002BOBR4       010BOMBRIL     PN           R$  000000000062000000000006500000000000611000000000062900000000006350000000000635000000000065500004000000000000000400000000000000251600000000000000009999123100000010000000000000BRBOBRACNPR3127
012013093014BOVA11      010ISHARES BOVACI           R$  000000000520000000000052000000000005116000000000515700000000051290000000005120000000000512901939000000000000884360000000004560661030000000000000009999123100000010000000000000BRBOVACTF003101
012013093096BOVA11F     020ISHARES BOVACI           R$  000000000524000000000054070000000005127000000000520200000000052960000000005101000000000529600022000000000000000064000000000000332968000000000000009999123100000010000000000000BRBOVACTF003101
012013093062BOVA11T     030ISHARES BOVACI        024R$  000000000520400000000052050000000005204000000000520400000000052050000000000000000000000000000004000000000000005000000000000026023196000000000000009999123100000010000000000000BRBOVACTF003101
012013093062BOVA11T     030ISHARES BOVACI        060R$  000000000519900000000052000000000005199000000000519900000000052000000000000000000000000000000002000000000000001000000000000005199803000000000000009999123100000010000000000000BRBOVACTF003101
012013093078BOVAJ53     070BOVA        CI        000R$  000000000004500000000000450000000000045000000000004500000000000450000000000000000000000000000003000000000000010000000000000000450000000000000530002013102100000010000000000000BRBOVACTF003101
012013093012BPFF11      010FII ABSOLUTOCI           R$  000000000820000000000083000000000008050000000000813300000000083000000000008250000000000830000027000000000000004107000000000033404643000000000000009999123100000010000000000000BRBPFFCTF002105
012013093002BPHA3       010BR PHARMA   ON      NM   R$  000000000080600000000008060000000000778000000000078800000000007800000000000778000000000078001650000000000000793100000000000625075900000000000000009999123100000010000000000000BRBPHAACNOR6102
012013093096BPHA3F      020BR PHARMA   ON      NM   R$  000000000079500000000007950000000000772000000000078400000000007800000000000771000000000084900006000000000000000118000000000000092594000000000000009999123100000010000000000000BRBPHAACNOR6102
012013093002BPNM4       010PANAMERICANOPN      N1   R$  000000000052200000000005230000000000517000000000051900000000005200000000000517000000000052000073000000000000061100000000000031766200000000000000009999123100000010000000000000BRBPNMACNPR6111
012013093096BPNM4F      020PANAMERICANOPN      N1   R$  000000000052000000000005450000000000513000000000052300000000005290000000000502000000000052900045000000000000001060000000000000554769000000000000009999123100000010000000000000BRBPNMACNPR6111
012013093002BRAP3       010BRADESPAR   ON      N1   R$  000000000203000000000020300000000001994000000000201400000000020100000000002010000000000203400025000000000000006500000000000013096000000000000000009999123100000010000000000000BRBRAPACNOR5124
012013093096BRAP3F      020BRADESPAR   ON      N1   R$  000000000208400000000020840000000002000000000000201200000000020000000000001991000000000218900020000000000000000156000000000000313876000000000000009999123100000010000000000000BRBRAPACNOR5124
012013093062BRAP3T      030BRADESPAR   ON      N1030R$  000000000201400000000020150000000002014000000000201400000000020150000000000000000000000000000002000000000000000500000000000001007400000000000000009999123100000010000000000000BRBRAPACNOR5124
012013093002BRAP4       010BRADESPAR   PN      N1   R$  000000000248700000000024870000000002450000000000246300000000024600000000002458000000000246005088000000000001608900000000003963617700000000000000009999123100000010000000000000BRBRAPACNPR2124
012013093096BRAP4F      020BRADESPAR   PN      N1   R$  000000000255900000000025590000000002429000000000246700000000024290000000002430000000000248900084000000000000001580000000000003898313000000000000009999123100000010000000000000BRBRAPACNPR2124
012013093062BRAP4T      030BRADESPAR   PN      N1032R$  000000000248700000000024880000000002487000000000248700000000024880000000000000000000000000000002000000000000050000000000000124351151000000000000009999123100000010000000000000BRBRAPACNPR2124
012013093062BRAP4T      030BRADESPAR   PN      N1060R$  000000000248600000000024870000000002486000000000248600000000024870000000000000000000000000000002000000000000003000000000000007459720000000000000009999123100000010000000000000BRBRAPACNPR2124
012013093062BRAP4T      030BRADESPAR   PN      N1360R$  000000000272600000000027270000000002726000000000272600000000027270000000000000000000000000000002000000000000005000000000000013631349000000000000009999123100000010000000000000BRBRAPACNPR2124
012013093014BRAX11      010ISHARES BRAXCI           R$  000000000423700000000042370000000004205000000000422000000000042050000000004205000000000000000003000000000000000040000000000000168820000000000000009999123100000010000000000000BRBRAXCTF002100
012013093012BRCR11      010FII BC FUND CI           R$  000000001310000000000133500000000013010000000001326100000000132990000000013295000000001329900209000000000000022935000000000304148059000000000000009999123100000010000000000000BRBRCRCTF000133
012013093002BRFS3       010BRF SA      ON      NM   R$  000000000552500000000055450000000005400000000000544600000000054000000000005399000000000540008259000000000003667100000000019973262800000000000000009999123100000010000000000000BRBRFSACNOR8110
012013093096BRFS3F      020BRF SA      ON      NM   R$  000000000560000000000056000000000005413000000000548000000000054190000000005418000000000544900163000000000000004448000000000024361882000000000000009999123100000010000000000000BRBRFSACNOR8110
012013093062BRFS3T      030BRF SA      ON      NM120R$  000000000561800000000056190000000005618000000000561800000000056190000000000000000000000000000002000000000000001000000000000005618567000000000000009999123100000010000000000000BRBRFSACNOR8110
012013093078BRFSJ55     070BRFS        ON      NM000R$  000000000009000000000001260000000000090000000000009500000000001200000000000000000000000000000005000000000000001200000000000000114600000000000550002013102100000010000000000000BRBRFSACNOR8110
012013093082BRFSW53     080BRFSE       ON      NM000R$  000000000007700000000000770000000000077000000000007700000000000770000000000000000000000000000001000000000000002500000000000000192500000000000530002013111800000010000000000000BRBRFSACNOR8110
012013093002BRGE11      010ALFA CONSORCPNE          R$  000000000038200000000003820000000000382000000000038200000000003820000000000381000000000060000001000000000000000100000000000000038200000000000000009999123100000010000000000000BRBRGEACNPE1091
012013093096BRGE6F      020ALFA CONSORCPNB          R$  000000000052100000000005210000000000521000000000052100000000005210000000000521000000000000000001000000000000000006000000000000003126000000000000009999123100000010000000000000BRBRGEACNPB7198
012013093096BRGE8F      020ALFA CONSORCPND          R$  000000000034500000000003450000000000345000000000034500000000003450000000000345000000000046900001000000000000000006000000000000002070000000000000009999123100000010000000000000BRBRGEACNPD3200
012013093002BRIN3       010BR INSURANCEON      NM   R$  000000000201300000000020190000000001979000000000199000000000019900000000001983000000000199000935000000000000253400000000000504335200000000000000009999123100000010000000000000BRBRINACNOR3106
012013093096BRIN3F      020BR INSURANCEON      NM   R$  000000000200000000000020000000000001978000000000198700000000019820000000001982000000000208000026000000000000000300000000000000596117000000000000009999123100000010000000000000BRBRINACNOR3106
012013093002BRIV4       010ALFA INVEST PN           R$  000000000057400000000005890000000000570000000000057400000000005800000000000569000000000058000014000000000000009600000000000005517500000000000000009999123100000010000000000000BRBRIVACNPR3197
012013093002BRKM3       010BRASKEM     ON      N1   R$  000000000124000000000012740000000001238000000000124500000000012740000000001220000000000127200007000000000000004600000000000005728200000000000000009999123100000010000000000000BRBRKMACNOR1110
012013093002BRKM5       010BRASKEM     PNA     N1   R$  000000000176700000000017830000000001740000000000176400000000017750000000001770000000000177605524000000000001394900000000002461470400000000000000009999123100000010000000000000BRBRKMACNPA4110
012013093096BRKM5F      020BRASKEM     PNA     N1   R$  000000000181000000000018100000000001738000000000175800000000017840000000001737000000000178400019000000000000000576000000000001012902000000000000009999123100000010000000000000BRBRKMACNPA4110
012013093002BRML3       010BR MALLS PARON      NM   R$  000000000203900000000020830000000001991000000000202200000000020100000000002010000000000202010141000000000002996500000000006059759900000000000000009999123100000010000000000000BRBRMLACNOR9105
012013093096BRML3F      020BR MALLS PARON      NM   R$  000000000204600000000020800000000001992000000000202300000000019920000000001992000000000205000108000000000000003416000000000006909619000000000000009999123100000010000000000000BRBRMLACNOR9105
012013093078BRMLJ50     070BRML        ON      NM000R$  000000000002700000000000400000000000027000000000002700000000000400000000000027000000000000000003000000000000001500000000000000041800000000000205002013102100000010000000000000BRBRMLACNOR9105
012013093002BRPR3       010BR PROPERT  ON      NM   R$  000000000198100000000019970000000001940000000000196600000000019700000000001970000000000197105987000000000001245300000000002449182100000000000000009999123100000010000000000000BRBRPRACNOR9112
012013093096BRPR3F      020BR PROPERT  ON      NM   R$  000000000198000000000020670000000001925000000000198600000000020200000000001925000000000200000039000000000000001185000000000002353918000000000000009999123100000010000000000000BRBRPRACNOR9112
012013093002BRSR6       010BANRISUL    PNB     N1   R$  000000000157500000000015910000000001530000000000154500000000015300000000001530000000000154103987000000000001524600000000002356548200000000000000009999123100000010000000000000BRBRSRACNPB4134
012013093096BRSR6F      020BANRISUL    PNB     N1   R$  000000000160000000000016000000000001531000000000155700000000015490000000001532000000000160000022000000000000000653000000000001017251000000000000009999123100000010000000000000BRBRSRACNPB4134
012013093002BSEV3       010BIOSEV      ON      NM   R$  000000000084100000000008450000000000841000000000084100000000008450000000000700000000000085000004000000000000002300000000000001935100000000000000009999123100000010000000000000BRBSEVACNOR3100
012013093082BSEVS99     080BSEVE       ON      NM000R$  000000000070000000000007000000000000700000000000070000000000007000000000000000000000000070000001000000000000002000000000000001400000000000000165702014072100000010000000000000BRBSEVACNOR3100
012013093002BTOW3       010B2W DIGITAL ON      NM   R$  000000000148000000000014800000000001417000000000144100000000014170000000001417000000000142501712000000000000525600000000000757618600000000000000009999123100000010000000000000BRBTOWACNOR8105
012013093096BTOW3F      020B2W DIGITAL ON      NM   R$  000000000147000000000014700000000001403000000000144600000000014100000000001425000000000149500026000000000000000931000000000001344074000000000000009999123100000010000000000000BRBTOWACNOR8105
012013093062BTOW3T      030B2W DIGITAL ON      NM030R$  000000000146400000000014650000000001464000000000146400000000014650000000000000000000000000000004000000000000008400000000000012305202000000000000009999123100000010000000000000BRBTOWACNOR8105
012013093002BTTL4       010BATTISTELLA PN           R$  000000000010000000000001000000000000096000000000009800000000000980000000000095000000000009800105000000000000059900000000000005885300000000000000009999123100000010000000000000BRBTTLACNPR7105
012013093002BVMF3       010BMFBOVESPA  ON      NM   R$  000000000125100000000012600000000001216000000000123800000000012380000000001238000000000124230755000000000014759100000000018278752500000000000000009999123100000010000000000000BRBVMFACNOR3126
012013093096BVMF3F      020BMFBOVESPA  ON      NM   R$  000000000125500000000012590000000001219000000000124300000000012490000000001235000000000124900298000000000000006303000000000007836534000000000000009999123100000010000000000000BRBVMFACNOR3126
012013093062BVMF3T      030BMFBOVESPA  ON      NM016R$  000000000124800000000012490000000001248000000000124800000000012490000000000000000000000000000004000000000000050000000000000062429675000000000000009999123100000010000000000000BRBVMFACNOR3126
012013093062BVMF3T      030BMFBOVESPA  ON      NM030R$  000000000125100000000012520000000001250000000000125100000000012510000000000000000000000000000004000000000000013072000000000016365235000000000000009999123100000010000000000000BRBVMFACNOR3126
012013093062BVMF3T      030BMFBOVESPA  ON      NM045R$  000000000125300000000012540000000001253000000000125300000000012540000000000000000000000000000004000000000000236700000000000296609622000000000000009999123100000010000000000000BRBVMFACNOR3126
012013093078BVMFA12     070BVMF        ON      NM000R$  000000000012200000000001220000000000122000000000012200000000001220000000000000000000000000000001000000000000000700000000000000085400000000000120002014012000000010000000000000BRBVMFACNOR3126
012013093078BVMFA42     070BVMF        ON      NM000R$  000000000008500000000000850000000000085000000000008500000000000850000000000000000000000000000001000000000000000700000000000000059500000000000125002014012000000010000000000000BRBVMFACNOR3126
012013093078BVMFJ10     070BVMF        ON      NM000R$  000000000024200000000002520000000000242000000000024200000000002520000000000000000000000040200004000000000000008100000000000001965900000000000098502013102100000010000000000000BRBVMFACNOR3125
012013093078BVMFJ11     070BVMF        ON      NM000R$  000000000016600000000001920000000000145000000000016600000000001750000000000161000000000000000116000000000000030300000000000005030700000000000108502013102100000010000000000000BRBVMFACNOR3125
012013093078BVMFJ12     070BVMF        ON      NM000R$  000000000008700000000000940000000000061000000000007900000000000770000000000078000000000009800805000000000000167000000000000013295400000000000118502013102100000010000000000000BRBVMFACNOR3125
012013093078BVMFJ13     070BVMF  FM    ON      NM000R$  000000000002700000000000270000000000016000000000001900000000000230000000000023000000000002400148000000000000266100000000000005315200000000000128502013102100000010000000000000BRBVMFACNOR3125
012013093078BVMFJ14     070BVMF  FM    ON      NM000R$  000000000000500000000000050000000000003000000000000400000000000040000000000004000000000000500037000000000000115800000000000000470700000000000138502013102100000010000000000000BRBVMFACNOR3125
012013093078BVMFJ42     070BVMF  FM    ON      NM000R$  000000000003700000000000510000000000035000000000003600000000000510000000000041000000000123500028000000000000029000000000000001064600000000000123502013102100000010000000000000BRBVMFACNOR3125
012013093078BVMFJ43     070BVMF  FM    ON      NM000R$  000000000000800000000000110000000000008000000000000900000000000110000000000009000000000001600004000000000000003800000000000000035200000000000133502013102100000010000000000000BRBVMFACNOR3125
012013093078BVMFJ44     070BVMF  FM    ON      NM000R$  000000000000200000000000030000000000002000000000000200000000000030000000000001000000000000000018000000000000050300000000000000111700000000000145002013102100000010000000000000BRBVMFACNOR3126
012013093078BVMFK12     070BVMF        ON      NM000R$  000000000008800000000000880000000000088000000000008800000000000880000000000088000000000011800007000000000000007000000000000000616000000000000118502013111800000010000000000000BRBVMFACNOR3125
012013093078BVMFK13     070BVMF  FM    ON      NM000R$  000000000003600000000000460000000000034000000000004000000000000410000000000038000000000005000045000000000000083100000000000003342700000000000128502013111800000010000000000000BRBVMFACNOR3125
012013093078BVMFK14     070BVMF  FM    ON      NM000R$  000000000001100000000000120000000000008000000000001000000000000110000000000010000000000001300232000000000000162100000000000001655700000000000138502013111800000010000000000000BRBVMFACNOR3125
012013093078BVMFK15     070BVMF        ON      NM000R$  000000000000300000000000030000000000003000000000000300000000000030000000000001000000000000000001000000000000004000000000000000012000000000000148502013111800000010000000000000BRBVMFACNOR3125
012013093078BVMFK42     070BVMF  FM    ON      NM000R$  000000000005100000000000630000000000051000000000005500000000000630000000000000000000000000000011000000000000019000000000000001049500000000000125002013111800000010000000000000BRBVMFACNOR3126
012013093078BVMFK43     070BVMF  FM    ON      NM000R$  000000000002000000000000210000000000020000000000002000000000000210000000000000000000000000000007000000000000017900000000000000372400000000000135002013111800000010000000000000BRBVMFACNOR3126
012013093078BVMFK44     070BVMF  FM    ON      NM000R$  000000000000500000000000050000000000004000000000000400000000000050000000000000000000000000000010000000000000026500000000000000124500000000000145002013111800000010000000000000BRBVMFACNOR3126
012013093078BVMFL13     070BVMF        ON      NM000R$  000000000004500000000000570000000000045000000000005000000000000500000000000000000000000000000003000000000000002300000000000000115600000000000128502013121600000010000000000000BRBVMFACNOR3125
012013093078BVMFL14     070BVMF        ON      NM000R$  000000000002900000000000290000000000029000000000002900000000000290000000000015000000000000000001000000000000000500000000000000014500000000000137402013121600000010000000000000BRBVMFACNOR3124
012013093078BVMFL42     070BVMF        ON      NM000R$  000000000006100000000000610000000000061000000000006100000000000610000000000000000000000000000001000000000000000500000000000000030500000000000125002013121600000010000000000000BRBVMFACNOR3126
012013093082BVMFV11     080BVMFE       ON      NM000R$  000000000000700000000000110000000000004000000000000600000000000110000000000001000000000001100036000000000000007300000000000000049100000000000108502013102100000010000000000000BRBVMFACNOR3125
012013093082BVMFV12     080BVMFE FM    ON      NM000R$  000000000001700000000000230000000000013000000000001900000000000170000000000012000000000001800071000000000000050700000000000000968400000000000118502013102100000010000000000000BRBVMFACNOR3125
012013093082BVMFV13     080BVMFE FM    ON      NM000R$  000000000007000000000000750000000000049000000000006000000000000550000000000000000000000008200037000000000000040700000000000002460000000000000128502013102100000010000000000000BRBVMFACNOR3125
012013093082BVMFV41     080BVMFE       ON      NM000R$  000000000001000000000000100000000000010000000000001000000000000100000000000000000000000001000001000000000000005000000000000000050000000000000113502013102100000010000000000000BRBVMFACNOR3125
012013093082BVMFV42     080BVMFE FM    ON      NM000R$  000000000003900000000000450000000000032000000000004100000000000320000000000025000000000000000032000000000000092600000000000003801800000000000123502013102100000010000000000000BRBVMFACNOR3125
012013093082BVMFV43     080BVMFE FM    ON      NM000R$  000000000011100000000001160000000000102000000000011100000000001020000000000000000000000000000005000000000000014700000000000001632400000000000133502013102100000010000000000000BRBVMFACNOR3125
012013093082BVMFW11     080BVMFE       ON      NM000R$  000000000001400000000000140000000000014000000000001400000000000140000000000000000000000001400001000000000000000200000000000000002800000000000108502013111800000010000000000000BRBVMFACNOR3125
012013093082BVMFW12     080BVMFE FM    ON      NM000R$  000000000003500000000000350000000000024000000000002600000000000290000000000000000000000000000026000000000000007200000000000000190600000000000118502013111800000010000000000000BRBVMFACNOR3125
012013093082BVMFW13     080BVMFE FM    ON      NM000R$  000000000008000000000000830000000000077000000000007900000000000830000000000000000000000025000009000000000000027600000000000002205700000000000128502013111800000010000000000000BRBVMFACNOR3125
012013093082BVMFW42     080BVMFE FM    ON      NM000R$  000000000006100000000000610000000000061000000000006100000000000610000000000000000000000000000001000000000000003500000000000000213500000000000125002013111800000010000000000000BRBVMFACNOR3126
012013093082BVMFW43     080BVMFE FM    ON      NM000R$  000000000012400000000001300000000000101000000000012000000000001110000000000000000000000000000028000000000000085800000000000010315800000000000135002013111800000010000000000000BRBVMFACNOR3126
012013093096CALI4F      020CONST A LINDPN           R$  000000001502200000000169990000000015001000000001620300000000169990000000015001000000002000000005000000000000000005000000000000081018000000000000009999123100000010000000000000BRCALIACNPR8131
012013093002CAMB4       010CAMBUCI     PN           R$  000000000019600000000001960000000000196000000000019600000000001960000000000186000000000019600001000000000000000100000000000000019600000000000000009999123100000010000000000000BRCAMBACNPR1117
012013093002CARD3       010CSU CARDSYSTON      NM   R$  000000000031800000000003190000000000309000000000031300000000003160000000000308000000000031800049000000000000032200000000000010098300000000000000009999123100000010000000000000BRCARDACNOR9105
012013093096CARD3F      020CSU CARDSYSTON      NM   R$  000000000031200000000003120000000000312000000000031200000000003120000000000312000000000031500001000000000000000024000000000000007488000000000000009999123100000010000000000000BRCARDACNOR9105
012013093002CBEE3       010AMPLA ENERG ON *         R$  000000000012900000000001290000000000129000000000012900000000001290000000000126000000000012900001000000000000800000000000000000103200000000000000009999123100010000000000000000BRCBEEACNOR3149
012013093096CBMA4F      020COBRASMA    PN           R$  000000000000400000000000040000000000004000000000000400000000000040000000000003000000000000400001000000000000001000000000000000004000000000000000009999123100000010000000000000BRCBMAACNPR1124
012013093008CCHI3       010CHIARELLI   ON           R$  000000000001800000000000190000000000018000000000001800000000000180000000000017000000000001900007000000000000080000000000000001450000000000000000009999123100000010000000000000BRCCHIACNOR5123
012013093096CCHI3F      020CHIARELLI   ON           R$  000000000001800000000000190000000000018000000000001800000000000190000000000018000000000001900004000000000000005402000000000000099236000000000000009999123100000010000000000000BRCCHIACNOR5123
012013093008CCHI4       010CHIARELLI   PN           R$  000000000001200000000000120000000000012000000000001200000000000120000000000011000000000001300002000000000000020000000000000000240000000000000000009999123100000010000000000000BRCCHIACNPR2122
012013093002CCPR3       010CYRE COM-CCPON      NM   R$  000000000208600000000020860000000002086000000000208600000000020860000000002045000000000212700002000000000000000200000000000000417200000000000000009999123100000010000000000000BRCCPRACNOR9107
012013093002CCRO3       010CCR SA      ON  ED  NM   R$  000000000176000000000017850000000001735000000000175300000000017350000000001735000000000174409807000000000003531600000000006191510100000000000000009999123100000010000000000000BRCCROACNOR2123
012013093096CCRO3F      020CCR SA      ON  ED  NM   R$  000000000178400000000017870000000001740000000000176400000000017400000000001740000000000180000095000000000000002540000000000004480183000000000000009999123100000010000000000000BRCCROACNOR2123
012013093078CCROJ48     070CCRO    /ED ON      NM000R$  000000000001100000000000140000000000011000000000001300000000000140000000000013000000000005000002000000000000008300000000000000115900000000000178202013102100000010000000000000BRCCROACNOR2122
012013093078CCROK18     070CCRO    /ED ON      NM000R$  000000000003800000000000380000000000038000000000003800000000000380000000000000000000000000000002000000000000010500000000000000399000000000000180002013111800000010000000000000BRCCROACNOR2123
012013093002CCXC3       010CCX CARVAO  ON      NM   R$  000000000013900000000001400000000000133000000000013600000000001340000000000134000000000013500649000000000001790100000000000243581600000000000000009999123100000010000000000000BRCCXCACNOR5100
012013093096CCXC3F      020CCX CARVAO  ON      NM   R$  000000000014000000000001400000000000140000000000014000000000001400000000000133000000000014000002000000000000000017000000000000002380000000000000009999123100000010000000000000BRCCXCACNOR5100
012013093062CCXC3T      030CCX CARVAO  ON      NM016R$  000000000013400000000001350000000000134000000000013400000000001350000000000000000000000000000002000000000000045000000000000006055929000000000000009999123100000010000000000000BRCCXCACNOR5100
012013093002CEBR5       010CEB         PNA          R$  000000000180000000000018000000000001800000000000180000000000018000000000001800000000000270000001000000000000000100000000000000180000000000000000009999123100000010000000000000BRCEBRACNPA8113
012013093002CEDO3       010CEDRO       ON      N1   R$  000000000101500000000010150000000001015000000000101500000000010150000000001015000000000125000002000000000000000700000000000000710500000000000000009999123100000010000000000000BRCEDOACNOR8094
012013093002CEEB3       010COELBA      ON           R$  000000000345000000000034500000000003450000000000345000000000034500000000003001000000000346000001000000000000000100000000000000345000000000000000009999123100000010000000000000BRCEEBACNOR3163
012013093012CEOC11B     010FII CEO CCP CI      MB   R$  000000000865000000000086500000000008510000000000857400000000085100000000008500000000000865000021000000000000000818000000000007013862000000000000009999123100000010000000000000BRCEOCCTF003110
012013093002CESP3       010CESP        ON      N1   R$  000000000195000000000020500000000001950000000000201800000000020500000000001980000000000205000005000000000000000800000000000001614600000000000000009999123100000010000000000000BRCESPACNOR3160
012013093002CESP5       010CESP        PNA     N1   R$  000000000230000000000023390000000002300000000000230900000000023390000000002300000000000236900003000000000000000400000000000000923900000000000000009999123100000010000000000000BRCESPACNPA6108
012013093096CESP5F      020CESP        PNA     N1   R$  000000000220000000000022000000000002200000000000220000000000022000000000002208000000000240000001000000000000000047000000000000103400000000000000009999123100000010000000000000BRCESPACNPA6108
012013093002CESP6       010CESP        PNB     N1   R$  000000000232800000000023650000000002295000000000234000000000023650000000002359000000000236504069000000000001204500000000002819736000000000000000009999123100000010000000000000BRCESPACNPB4119
012013093096CESP6F      020CESP        PNB     N1   R$  000000000244800000000024480000000002282000000000233100000000022820000000002283000000000235000023000000000000000580000000000001352447000000000000009999123100000010000000000000BRCESPACNPB4119
012013093062CESP6T      030CESP        PNB     N1016R$  000000000233100000000023320000000002331000000000233100000000023320000000000000000000000000000002000000000000000800000000000001865404000000000000009999123100000010000000000000BRCESPACNPB4119
012013093082CESPX23     080CESPE       PNB     N1000R$  000000000007000000000000700000000000070000000000007000000000000700000000000000000000000000000002000000000000050000000000000003500000000000000230002013121600000010000000000000BRCESPACNPB4119
012013093002CGAS3       010COMGAS      ON           R$  000000000540000000000054000000000005250000000000537500000000053950000000005120000000000540000004000000000000000700000000000003762500000000000000009999123100000010000000000000BRCGASACNOR0132
012013093096CGAS3F      020COMGAS      ON           R$  000000000539500000000053950000000005395000000000539500000000053950000000005400000000000550000001000000000000000002000000000000010790000000000000009999123100000010000000000000BRCGASACNOR0132
012013093002CGAS5       010COMGAS      PNA          R$  000000000583800000000058380000000005738000000000577200000000057930000000005735000000000579300035000000000000012300000000000071003400000000000000009999123100000010000000000000BRCGASACNPA3129
012013093096CGAS5F      020COMGAS      PNA          R$  000000000574500000000057500000000005745000000000574800000000057500000000005701000000000583400003000000000000000130000000000000747275000000000000009999123100000010000000000000BRCGASACNPA3129
012013093002CGRA3       010GRAZZIOTIN  ON           R$  000000000165000000000016500000000001650000000000165000000000016500000000001590000000000165000002000000000000000700000000000001155000000000000000009999123100000010000000000000BRCGRAACNOR2061
012013093002CGRA4       010GRAZZIOTIN  PN           R$  000000000176400000000017940000000001737000000000177100000000017940000000001765000000000179400043000000000000007400000000000013105900000000000000009999123100000010000000000000BRCGRAACNPR9061
012013093096CGRA4F      020GRAZZIOTIN  PN           R$  000000000177000000000017990000000001600000000000173800000000017970000000001602000000000176000025000000000000000246000000000000427634000000000000009999123100000010000000000000BRCGRAACNPR9061
012013093002CIEL3       010CIELO       ON      NM   R$  000000000602000000000060760000000005982000000000602100000000059940000000005994000000000600008045000000000001938000000000011668731400000000000000009999123100000010000000000000BRCIELACNOR3112
012013093096CIEL3F      020CIELO       ON      NM   R$  000000000607700000000060800000000005982000000000604500000000060220000000006022000000000608701308000000000000028392000000000171642560000000000000009999123100000010000000000000BRCIELACNOR3112
012013093078CIELA59     070CIEL        ON      NM000R$  000000000044600000000004470000000000446000000000044600000000004470000000000000000000000000000002000000000000069800000000000031165700000000000590002014012000000010000000000000BRCIELACNOR3112
012013093078CIELL63     070CIEL        ON      NM000R$  000000000018200000000001820000000000182000000000018200000000001820000000000000000000000000000001000000000000100000000000000018200000000000000630002013121600000010000000000000BRCIELACNOR3112
012013093082CIELX60     080CIELE       ON      NM000R$  000000000020500000000002050000000000205000000000020500000000002050000000000000000000000000000002000000000000100000000000000020500000000000000600002013121600000010000000000000BRCIELACNOR3112
012013093002CLSC4       010CELESC      PN      N2   R$  000000000177000000000018000000000001770000000000177300000000017800000000001775000000000178000088000000000000134000000000000237702400000000000000009999123100000010000000000000BRCLSCACNPR3107
012013093096CLSC4F      020CELESC      PN      N2   R$  000000000177000000000017700000000001770000000000177000000000017700000000001765000000000180000001000000000000000001000000000000001770000000000000009999123100000010000000000000BRCLSCACNPR3107
012013093002CMIG3       010CEMIG       ON      N1   R$  000000000188000000000019000000000001846000000000185800000000018460000000001846000000000187400159000000000000042700000000000079372800000000000000009999123100000010000000000000BRCMIGACNOR6208
012013093096CMIG3F      020CEMIG       ON      N1   R$  000000000188100000000018920000000001870000000000187700000000018750000000001865000000000187500042000000000000000966000000000001813264000000000000009999123100000010000000000000BRCMIGACNOR6208
012013093002CMIG4       010CEMIG       PN      N1   R$  000000000192000000000019240000000001891000000000191200000000019240000000001923000000000192409842000000000003869700000000007399160100000000000000009999123100000010000000000000BRCMIGACNPR3208
012013093096CMIG4F      020CEMIG       PN      N1   R$  000000000194900000000019490000000001880000000000190400000000018800000000001880000000000189000475000000000000009197000000000017514823000000000000009999123100000010000000000000BRCMIGACNPR3208
012013093062CMIG4T      030CEMIG       PN      N1030R$  000000000193100000000019320000000001931000000000193100000000019320000000000000000000000000000002000000000000010000000000000019313775000000000000009999123100000010000000000000BRCMIGACNPR3208
012013093062CMIG4T      030CEMIG       PN      N1060R$  000000000192600000000019270000000001922000000000192400000000019230000000000000000000000000000006000000000000005000000000000009623457000000000000009999123100000010000000000000BRCMIGACNPR3208
012013093062CMIG4T      030CEMIG       PN      N1091R$  000000000194100000000019420000000001941000000000194100000000019420000000000000000000000000000002000000000000000200000000000000388388000000000000009999123100000010000000000000BRCMIGACNPR3208
012013093078CMIGJ19     070CMIG        PN      N1000R$  000000000005600000000000560000000000043000000000005200000000000430000000000042000000000005200008000000000000002300000000000000119700000000000190002013102100000010000000000000BRCMIGACNPR3208
012013093078CMIGJ20     070CMIG        PN      N1000R$  000000000001300000000000130000000000012000000000001200000000000120000000000005000000000003900012000000000000008400000000000000104800000000000200002013102100000010000000000000BRCMIGACNPR3208
012013093012CNES11B     010FII CENESP  CI  ER  MB   R$  000000001267800000000127500000000012678000000001269400000000127500000000012600000000001275000006000000000000000176000000000002234230000000000000009999123100000010000000000000BRCNESCTF001126
012013093002COCE3       010COELCE      ON           R$  000000000404100000000040780000000004000000000000403300000000040650000000003985000000000406500072000000000000019900000000000080259500000000000000009999123100000010000000000000BRCOCEACNOR0132
012013093096COCE3F      020COELCE      ON           R$  000000000400100000000040010000000004001000000000400100000000040010000000004000000000000413500001000000000000000050000000000000200050000000000000009999123100000010000000000000BRCOCEACNOR0132
012013093002COCE5       010COELCE      PNA          R$  000000000388100000000039230000000003783000000000383700000000038150000000003815000000000384800188000000000000066200000000000254041100000000000000009999123100000010000000000000BRCOCEACNPA3133
012013093096COCE5F      020COELCE      PNA          R$  000000000388000000000039050000000003795000000000387200000000037950000000003790000000000393600029000000000000000407000000000001576047000000000000009999123100000010000000000000BRCOCEACNPA3133
012013093002CPFE3       010CPFL ENERGIAON      NM   R$  000000000194100000000019410000000001911000000000192700000000019390000000001921000000000193904918000000000001317300000000002539578500000000000000009999123100000010000000000000BRCPFEACNOR0122
012013093096CPFE3F      020CPFL ENERGIAON      NM   R$  000000000197000000000019700000000001902000000000192400000000019260000000001926000000000193200030000000000000000848000000000001631987000000000000009999123100000010000000000000BRCPFEACNOR0122
012013093062CPFE3T      030CPFL ENERGIAON      NM045R$  000000000194200000000019430000000001942000000000194200000000019430000000000000000000000000000002000000000000040000000000000077685240000000000000009999123100000010000000000000BRCPFEACNOR0122
012013093002CPLE3       010COPEL       ON      N1   R$  000000000226000000000022800000000002226000000000225000000000022600000000002235000000000226000074000000000000025700000000000057826700000000000000009999123100000010000000000000BRCPLEACNOR8128
012013093002CPLE6       010COPEL       PNB     N1   R$  000000000312600000000031650000000003078000000000311600000000031450000000003091000000000314502751000000000001097300000000003419879700000000000000009999123100000010000000000000BRCPLEACNPB9125
012013093096CPLE6F      020COPEL       PNB     N1   R$  000000000315500000000031940000000002962000000000308600000000029660000000003000000000000309900031000000000000001169000000000003601025000000000000009999123100000010000000000000BRCPLEACNPB9125
012013093002CPRE3       010CPFL RENOVAVON      NM   R$  000000000131500000000014000000000001295000000000134500000000014000000000001297000000000140000097000000000000028100000000000037812200000000000000009999123100000010000000000000BRCPREACNOR5100
012013093096CPRE3F      020CPFL RENOVAVON      NM   R$  000000000131300000000013200000000001190000000000126200000000013200000000001190000000000132000010000000000000000343000000000000433162000000000000009999123100000010000000000000BRCPREACNOR5100
012013093002CRDE3       010CR2         ON      NM   R$  000000000042000000000004200000000000400000000000040000000000004110000000000395000000000040000031000000000000760500000000000304358000000000000000009999123100000010000000000000BRCRDEACNOR1108
012013093096CRDE3F      020CR2         ON      NM   R$  000000000041000000000004100000000000410000000000041000000000004100000000000408000000000044800001000000000000000010000000000000004100000000000000009999123100000010000000000000BRCRDEACNOR1108
012013093002CREM3       010CREMER      ON      NM   R$  000000000149700000000015520000000001473000000000150600000000014730000000001473000000000150400034000000000000432400000000000651229400000000000000009999123100000010000000000000BRCREMACNOR2167
012013093096CREM3F      020CREMER      ON      NM   R$  000000000154500000000015500000000001507000000000154000000000015500000000001505000000000159500008000000000000000153000000000000235637000000000000009999123100000010000000000000BRCREMACNOR2167
012013093096CRIV3F      020ALFA FINANC ON           R$  000000000045000000000004500000000000450000000000045000000000004500000000000450000000000055000001000000000000000010000000000000004500000000000000009999123100000010000000000000BRCRIVACNOR4190
012013093002CRUZ3       010SOUZA CRUZ  ON  EDJ      R$  000000000264000000000026560000000002620000000000264000000000026450000000002645000000000265006471000000000001676500000000004426470900000000000000009999123100000010000000000000BRCRUZACNOR0248
012013093096CRUZ3F      020SOUZA CRUZ  ON  EDJ      R$  000000000266400000000026650000000002609000000000263800000000026360000000002636000000000265300062000000000000001773000000000004678569000000000000009999123100000010000000000000BRCRUZACNOR0248
012013093062CRUZ3T      030SOUZA CRUZ  ON  EDJ   081R$  000000000267400000000026750000000002674000000000267400000000026750000000000000000000000000000002000000000000001000000000000002674149000000000000009999123100000010000000000000BRCRUZACNOR0248
012013093002CSAN3       010COSAN       ON      NM   R$  000000000428500000000043110000000004233000000000426400000000042720000000004271000000000427205076000000000001178000000000005023751000000000000000009999123100000010000000000000BRCSANACNOR6108
012013093096CSAN3F      020COSAN       ON      NM   R$  000000000439900000000043990000000004201000000000425000000000042550000000004200000000000423200046000000000000000932000000000003961672000000000000009999123100000010000000000000BRCSANACNOR6108
012013093062CSAN3T      030COSAN       ON      NM016R$  000000000427400000000042750000000004274000000000427400000000042750000000000000000000000000000002000000000000000300000000000001282418000000000000009999123100000010000000000000BRCSANACNOR6108
012013093002CSMG3       010COPASA      ON  EJ  NM   R$  000000000350300000000035390000000003464000000000349900000000035000000000003500000000000350801235000000000000318400000000001114112200000000000000009999123100000010000000000000BRCSMGACNOR5128
012013093096CSMG3F      020COPASA      ON  EJ  NM   R$  000000000353900000000035390000000003450000000000348700000000035010000000003450000000000353900014000000000000000346000000000001206528000000000000009999123100000010000000000000BRCSMGACNOR5128
012013093014CSMO11      010ISHARES CSMOCI           R$  000000000477800000000047850000000004755000000000477600000000047550000000004755000000000610000003000000000000000120000000000000573200000000000000009999123100000010000000000000BRCSMOCTF002100
012013093002CSNA3       010SID NACIONALON           R$  000000000095000000000009570000000000931000000000094300000000009460000000000942000000000094614452000000000007416700000000006998340200000000000000009999123100000010000000000000BRCSNAACNOR6243
012013093096CSNA3F      020SID NACIONALON           R$  000000000096600000000009660000000000933000000000094300000000009380000000000936000000000095500056000000000000001731000000000001632962000000000000009999123100000010000000000000BRCSNAACNOR6243
012013093062CSNA3T      030SID NACIONALON        021R$  000000000094500000000009460000000000945000000000094500000000009460000000000000000000000000000002000000000000005000000000000004725850000000000000009999123100000010000000000000BRCSNAACNOR6243
012013093062CSNA3T      030SID NACIONALON        060R$  000000000095500000000009560000000000954000000000095400000000009550000000000000000000000000000004000000000000005200000000000004964915000000000000009999123100000010000000000000BRCSNAACNOR6243
012013093078CSNAJ10     070CSNA  FM    ON        000R$  000000000002200000000000220000000000013000000000001300000000000130000000000000000000000001600033000000000000071600000000000000995000000000000100002013102100000010000000000000BRCSNAACNOR6243
012013093078CSNAJ20     070CSNA  FM    ON        000R$  000000000001000000000000120000000000008000000000000900000000000100000000000000000000000000000036000000000000074100000000000000701200000000000102002013102100000010000000000000BRCSNAACNOR6243
012013093078CSNAJ60     070CSNA        ON        000R$  000000000000600000000000070000000000006000000000000600000000000070000000000000000000000001000009000000000000025600000000000000161600000000000106002013102100000010000000000000BRCSNAACNOR6243
012013093078CSNAJ8      070CSNA        ON        000R$  000000000017000000000001700000000000169000000000016900000000001690000000000000000000000019700008000000000000008200000000000001393000000000000078002013102100000010000000000000BRCSNAACNOR6242
012013093078CSNAJ86     070CSNA        ON        000R$  000000000011200000000001120000000000112000000000011200000000001120000000000000000000000000000001000000000000001000000000000000112000000000000084002013102100000010000000000000BRCSNAACNOR6242
012013093078CSNAJ9      070CSNA        ON        000R$  000000000008500000000000850000000000075000000000007700000000000750000000000071000000000015700005000000000000005800000000000000447600000000000088002013102100000010000000000000BRCSNAACNOR6242
012013093078CSNAJ94     070CSNA  FM    ON        000R$  000000000004100000000000410000000000035000000000003800000000000380000000000000000000000000000034000000000000058500000000000002253800000000000094002013102100000010000000000000BRCSNAACNOR6243
012013093078CSNAJ96     070CSNA  FM    ON        000R$  000000000003100000000000310000000000030000000000003000000000000300000000000000000000000000000004000000000000010300000000000000311300000000000096002013102100000010000000000000BRCSNAACNOR6243
012013093078CSNAJ98     070CSNA  FM    ON        000R$  000000000002000000000000220000000000020000000000002000000000000200000000000003000000000002500013000000000000041400000000000000849800000000000098002013102100000010000000000000BRCSNAACNOR6243
012013093078CSNAK10     070CSNA  FM    ON        000R$  000000000004500000000000470000000000041000000000004400000000000410000000000000000000000008200013000000000000032300000000000001447700000000000098002013111800000010000000000000BRCSNAACNOR6242
012013093078CSNAK20     070CSNA  FM    ON        000R$  000000000002600000000000320000000000024000000000002700000000000240000000000000000000000000000022000000000000042600000000000001179000000000000102002013111800000010000000000000BRCSNAACNOR6243
012013093078CSNAK40     070CSNA        ON        000R$  000000000002300000000000230000000000023000000000002300000000000230000000000000000000000002300004000000000000009000000000000000207000000000000104002013111800000010000000000000BRCSNAACNOR6243
012013093078CSNAK8      070CSNA        ON        000R$  000000000018000000000001800000000000180000000000018000000000001800000000000000000000000000000001000000000000000400000000000000072000000000000078002013111800000010000000000000BRCSNAACNOR6242
012013093078CSNAK9      070CSNA        ON        000R$  000000000008100000000000820000000000081000000000008100000000000820000000000000000000000000000003000000000000007000000000000000569000000000000090002013111800000010000000000000BRCSNAACNOR6243
012013093078CSNAK94     070CSNA  FM    ON        000R$  000000000006400000000000640000000000058000000000005900000000000580000000000000000000000000000006000000000000012800000000000000765800000000000094002013111800000010000000000000BRCSNAACNOR6243
012013093078CSNAK96     070CSNA  FM    ON        000R$  000000000005400000000000540000000000053000000000005300000000000530000000000000000000000000000004000000000000010500000000000000560000000000000096002013111800000010000000000000BRCSNAACNOR6243
012013093078CSNAL12     070CSNA        ON        000R$  000000000001000000000000100000000000010000000000001000000000000100000000000000000000000000000001000000000000001000000000000000010000000000000114702013121600000010000000000000BRCSNAACNOR6241
012013093082CSNAV10     080CSNAE       ON        000R$  000000000007500000000000770000000000068000000000007000000000000680000000000069000000000007800019000000000000007600000000000000535500000000000100002013102100000010000000000000BRCSNAACNOR6243
012013093082CSNAV8      080CSNAE       ON        000R$  000000000000400000000000040000000000004000000000000400000000000040000000000000000000000000300001000000000000000100000000000000000400000000000078002013102100000010000000000000BRCSNAACNOR6242
012013093082CSNAV9      080CSNAE       ON        000R$  000000000001200000000000160000000000010000000000001500000000000100000000000010000000000001600016000000000000022200000000000000349800000000000088002013102100000010000000000000BRCSNAACNOR6242
012013093082CSNAV92     080CSNAE FM    ON        000R$  000000000002700000000000270000000000024000000000002500000000000240000000000000000000000003000006000000000000006000000000000000150000000000000092002013102100000010000000000000BRCSNAACNOR6243
012013093082CSNAV94     080CSNAE FM    ON        000R$  000000000003300000000000330000000000032000000000003200000000000320000000000000000000000000000005000000000000010900000000000000358800000000000094002013102100000010000000000000BRCSNAACNOR6243
012013093082CSNAV96     080CSNAE FM    ON        000R$  000000000003900000000000440000000000039000000000003900000000000440000000000000000000000000000003000000000000010100000000000000394400000000000096002013102100000010000000000000BRCSNAACNOR6243
012013093082CSNAV98     080CSNAE FM    ON        000R$  000000000005600000000000570000000000052000000000005400000000000550000000000000000000000007200008000000000000013900000000000000751900000000000098002013102100000010000000000000BRCSNAACNOR6243
012013093082CSNAW92     080CSNAE FM    ON        000R$  000000000004300000000000430000000000040000000000004100000000000400000000000000000000000000000004000000000000006900000000000000286500000000000092002013111800000010000000000000BRCSNAACNOR6243
012013093082CSNAW94     080CSNAE FM    ON        000R$  000000000005100000000000510000000000048000000000005000000000000480000000000000000000000000000003000000000000007400000000000000370200000000000094002013111800000010000000000000BRCSNAACNOR6243
012013093082CSNAW96     080CSNAE FM    ON        000R$  000000000006100000000000660000000000061000000000006200000000000610000000000000000000000000000010000000000000024500000000000001520500000000000096002013111800000010000000000000BRCSNAACNOR6243
012013093002CTAX11      010CONTAX      UNT     N2   R$  000000000188900000000019490000000001865000000000190100000000019490000000001885000000000194900064000000000000033600000000000063885000000000000000009999123100000010000000000000BRCTAXCDAM19100
012013093002CTAX3       010CONTAX      ON      N2   R$  000000000038000000000003990000000000380000000000038100000000003990000000000372000000000039900008000000000000002700000000000001030800000000000000009999123100000010000000000000BRCTAXACNOR3113
012013093002CTAX4       010CONTAX      PN      N2   R$  000000000037100000000003780000000000366000000000037100000000003740000000000371000000000037400029000000000000010300000000000003829000000000000000009999123100000010000000000000BRCTAXACNPR0114
012013093096CTAX4F      020CONTAX      PN      N2   R$  000000000037700000000003770000000000360000000000037000000000003600000000000376000000000039000003000000000000000166000000000000061508000000000000009999123100000010000000000000BRCTAXACNPR0114
012013093002CTIP3       010CETIP       ON  EJ  NM   R$  000000000233700000000023480000000002312000000000233500000000023480000000002345000000000234906831000000000001507300000000003520413600000000000000009999123100000010000000000000BRCTIPACNOR2120
012013093096CTIP3F      020CETIP       ON  EJ  NM   R$  000000000234500000000024180000000002314000000000233300000000023200000000002321000000000241900034000000000000000996000000000002323745000000000000009999123100000010000000000000BRCTIPACNOR2120
012013093078CTIPA52     070CTIP        ON      NM000R$  000000000022300000000002240000000000223000000000022300000000002240000000000000000000000000000003000000000000081500000000000018215500000000000225002014012000000010000000000000BRCTIPACNOR2120
012013093096CTNM3F      020COTEMINAS   ON           R$  000000000024000000000002400000000000240000000000024000000000002400000000000201000000000025800001000000000000000010000000000000002400000000000000009999123100000010000000000000BRCTNMACNOR9129
012013093002CTNM4       010COTEMINAS   PN           R$  000000000022500000000002340000000000225000000000022700000000002290000000000225000000000022900048000000000000148400000000000033689300000000000000009999123100000010000000000000BRCTNMACNPR6128
012013093096CTNM4F      020COTEMINAS   PN           R$  000000000024300000000002440000000000243000000000024300000000002440000000000221000000000024400002000000000000000020000000000000004872000000000000009999123100000010000000000000BRCTNMACNPR6128
012013093002CTSA3       010SANTANENSE  ON           R$  000000000056000000000005650000000000560000000000056200000000005650000000000543000000000056800002000000000000000200000000000000112500000000000000009999123100000010000000000000BRCTSAACNOR3051
012013093012CXCE11B     010FII CX CEDAECI      MB   R$  000000019399800000001939980000000193998000000019399800000001939980000000191000000000019399800001000000000000000011000000000002133978000000000000009999123100000010000000000000BRCXCECTF004138
012013093002CYRE3       010CYRELA REALTON      NM   R$  000000000166900000000016800000000001622000000000164800000000016750000000001673000000000167511350000000000004771900000000007868312300000000000000009999123100000010000000000000BRCYREACNOR7125
012013093096CYRE3F      020CYRELA REALTON      NM   R$  000000000168700000000016870000000001604000000000164400000000016850000000001640000000000168500065000000000000001862000000000003062270000000000000009999123100000010000000000000BRCYREACNOR7125
012013093078CYREJ15     070CYRE        ON      NM000R$  000000000015400000000001540000000000154000000000015400000000001540000000000000000000000000000001000000000000002500000000000000385000000000000150002013102100000010000000000000BRCYREACNOR7125
012013093078CYREJ17     070CYRE  FM    ON      NM000R$  000000000002300000000000330000000000023000000000002700000000000330000000000018000000000006300003000000000000010300000000000000282400000000000170002013102100000010000000000000BRCYREACNOR7125
012013093078CYREJ46     070CYRE  FM    ON      NM000R$  000000000006300000000000630000000000040000000000005300000000000520000000000000000000000000000007000000000000018600000000000000993700000000000165002013102100000010000000000000BRCYREACNOR7125
012013093078CYREK17     070CYRE  FM    ON      NM000R$  000000000005300000000000530000000000053000000000005300000000000530000000000000000000000000000001000000000000003500000000000000185500000000000170002013111800000010000000000000BRCYREACNOR7125
012013093078CYREK18     070CYRE  FM    ON      NM000R$  000000000002600000000000260000000000026000000000002600000000000260000000000000000000000000000001000000000000000600000000000000015600000000000180002013111800000010000000000000BRCYREACNOR7125
012013093078CYREK46     070CYRE  FM    ON      NM000R$  000000000007800000000000810000000000076000000000007700000000000810000000000000000000000000000004000000000000014000000000000001088500000000000165002013111800000010000000000000BRCYREACNOR7125
012013093078CYREK48     070CYRE  FM    ON      NM000R$  000000000001700000000000170000000000017000000000001700000000000170000000000000000000000000000001000000000000001000000000000000017000000000000185002013111800000010000000000000BRCYREACNOR7125
012013093082CYREV16     080CYREE FM    ON      NM000R$  000000000003300000000000330000000000032000000000003200000000000320000000000000000000000000000004000000000000014000000000000000458500000000000160002013102100000010000000000000BRCYREACNOR7125
012013093082CYREV17     080CYREE FM    ON      NM000R$  000000000008000000000000830000000000080000000000008200000000000810000000000000000000000000000004000000000000010100000000000000831100000000000170002013102100000010000000000000BRCYREACNOR7125
012013093082CYREV46     080CYREE FM    ON      NM000R$  000000000005200000000000520000000000052000000000005200000000000520000000000000000000000000000001000000000000001000000000000000052000000000000165002013102100000010000000000000BRCYREACNOR7125
012013093082CYREV47     080CYREE FM    ON      NM000R$  000000000012100000000001210000000000117000000000012000000000001170000000000000000000000000000006000000000000005500000000000000661500000000000175002013102100000010000000000000BRCYREACNOR7125
012013093082CYREV55     080CYREE       ON      NM000R$  000000000001400000000000140000000000013000000000001300000000000130000000000000000000000000000002000000000000002000000000000000027000000000000152502013102100000010000000000000BRCYREACNOR7125
012013093082CYREV56     080CYREE       ON      NM000R$  000000000003600000000000360000000000036000000000003600000000000360000000000000000000000000000001000000000000004000000000000000144000000000000162502013102100000010000000000000BRCYREACNOR7125
012013093082CYREW16     080CYREE FM    ON      NM000R$  000000000004200000000000540000000000042000000000005100000000000510000000000000000000000000000005000000000000014500000000000000740500000000000160002013111800000010000000000000BRCYREACNOR7125
012013093082CYREW46     080CYREE FM    ON      NM000R$  000000000006400000000000640000000000064000000000006400000000000640000000000000000000000000000001000000000000001000000000000000064000000000000165002013111800000010000000000000BRCYREACNOR7125
012013093082CYREW47     080CYREE FM    ON      NM000R$  000000000012600000000001260000000000114000000000012000000000001140000000000000000000000000000004000000000000014000000000000001680000000000000175002013111800000010000000000000BRCYREACNOR7125
012013093002CZLT33      010COSAN LTD   DR3          R$  000000000344400000000034450000000003366000000000341200000000034250000000003415000000000342600970000000000000338600000000001155323100000000000000009999123100000010000000000000BRCZLTBDR009105
012013093096CZLT33F     020COSAN LTD   DR3          R$  000000000338100000000033810000000003381000000000338100000000033810000000003200000000000346000001000000000000000034000000000000114954000000000000009999123100000010000000000000BRCZLTBDR009105
012013093002DAGB33      010DUFRY AG    DR3          R$  000000003300200000000340000000000033002000000003378200000000340000000000033477000000003400000282000000000000010221000000000345290777000000000000009999123100000010000000000000BRDAGBBDR008100
012013093002DASA3       010DASA        ON      NM   R$  000000000116900000000011880000000001149000000000116700000000011680000000001167000000000116804380000000000002426000000000002832735400000000000000009999123100000010000000000000BRDASAACNOR1108
012013093096DASA3F      020DASA        ON      NM   R$  000000000115000000000011980000000001150000000000117100000000011510000000001151000000000118800024000000000000000660000000000000772888000000000000009999123100000010000000000000BRDASAACNOR1108
012013093002DAYC4       010DAYCOVAL    PN      N2   R$  000000000087700000000008850000000000862000000000087300000000008660000000000866000000000086900152000000000000075100000000000065637200000000000000009999123100000010000000000000BRDAYCACNPR2128
012013093096DAYC4F      020DAYCOVAL    PN      N2   R$  000000000088000000000008800000000000853000000000086200000000008530000000000853000000000087500004000000000000000081000000000000069844000000000000009999123100000010000000000000BRDAYCACNPR2128
012013093062DAYC4T      030DAYCOVAL    PN      N2060R$  000000000089600000000008970000000000896000000000089600000000008970000000000000000000000000000002000000000000005000000000000004484315000000000000009999123100000010000000000000BRDAYCACNPR2128
012013093002DIRR3       010DIRECIONAL  ON      NM   R$  000000000122200000000012310000000001186000000000120200000000012030000000001203000000000120402992000000000000569300000000000684762300000000000000009999123100000010000000000000BRDIRRACNOR0104
012013093096DIRR3F      020DIRECIONAL  ON      NM   R$  000000000125600000000013000000000001163000000000120800000000012050000000001188000000000120500207000000000000003562000000000004305300000000000000009999123100000010000000000000BRDIRRACNOR0104
012013093014DIVO11      010IT NOW IDIV CI           R$  000000000340000000000034010000000003389000000000339300000000033890000000003330000000000338900017000000000000004930000000000016727910000000000000009999123100000010000000000000BRDIVOCTF002100
