00COTAHIST.2013BOVESPA 20130710                                                                                                                                                                                                                      
012013071002AAPL11B     010APPLE       DRN     MB   R$  000000000966900000000096690000000009528000000000965300000000095280000000009500000000000960000002000000000000008400000000000081092700000000000000009999123100000010000000000000BRAAPLBDR004104
012013071010ABCB2       010ABC BRASIL  DIR PRE N2   R$  000000000015500000000001590000000000140000000000015100000000001550000000000140000000000000000173000000000000130000000000000019754700000000000000009999123100000010000000000000BRABCBD03PR5119
012013071096ABCB2F      020ABC BRASIL  DIR PRE N2   R$  000000000014000000000001490000000000139000000000014200000000001490000000000000000000000014900008000000000000000119000000000000016948000000000000009999123100000010000000000000BRABCBD03PR5119
012013071002ABCB4       010ABC BRASIL  PN  EJS N2   R$  000000000124500000000012640000000001220000000000123500000000012450000000001245000000000125100825000000000000218100000000000269544700000000000000009999123100000010000000000000BRABCBACNPR4120
012013071096ABCB4F      020ABC BRASIL  PN  EJS N2   R$  000000000124700000000013320000000001241000000000124400000000013320000000001230000000000125100007000000000000000121000000000000150542000000000000009999123100000010000000000000BRABCBACNPR4120
012013071002ABRE11      010ABRIL EDUCA UNT     N2   R$  000000000383300000000039480000000003830000000000389900000000039010000000003901000000000391201274000000000000417600000000001628375300000000000000009999123100000010000000000000BRABRECDAM15102
012013071096ABRE11F     020ABRIL EDUCA UNT     N2   R$  000000000385300000000039400000000003817000000000388500000000039200000000003833000000000396900017000000000000000416000000000001616285000000000000009999123100000010000000000000BRABRECDAM15102
012013071002AEDU3       010ANHANGUERA  ON      NM   R$  000000000124200000000012930000000001238000000000126600000000012930000000001280000000000129308462000000000002861200000000003622922400000000000000009999123100000010000000000000BRAEDUACNOR9107
012013071096AEDU3F      020ANHANGUERA  ON      NM   R$  000000000124900000000013080000000001233000000000126300000000013030000000001237000000000130300026000000000000000921000000000001163571000000000000009999123100000010000000000000BRAEDUACNOR9107
012013071012AEFI11      010FII AESAPAR CI  ER       R$  000000001230000000000123500000000012270000000001232400000000123500000000012315000000001235000046000000000000003295000000000040609468000000000000009999123100000010000000000000BRAEFICTF002119
012013071002AELP3       010AES ELPA    ON           R$  000000000074100000000007870000000000741000000000074100000000007870000000000735000000000078700002000000000000005100000000000003783700000000000000009999123100000010000000000000BRAELPACNOR2119
012013071002AFLT3       010AFLUENTE T  ON           R$  000000000037500000000003750000000000375000000000037500000000003750000000000300000000000037500001000000000000000200000000000000075000000000000000009999123100000010000000000000BRAFLTACNOR1103
012013071012AGCX11      010FII AG CAIXACI  ER       R$  000000009900000000001005000000000099000000000009945400000001005000000000100050000000010050000018000000000000000154000000000015315975000000000000009999123100000010000000000000BRAGCXCTF003108
012013071002AGEN11      010AGRENCO     DR3          R$  000000000004200000000000430000000000041000000000004200000000000420000000000041000000000004200208000000000001968300000000000082733600000000000000009999123100000010000000000000BRAGENBDR001100
012013071096AGEN11F     020AGRENCO     DR3          R$  000000000004000000000000400000000000040000000000004000000000000400000000000035000000000005200003000000000000000071000000000000002840000000000000009999123100000010000000000000BRAGENBDR001100
012013071002AGRO3       010BRASILAGRO  ON      NM   R$  000000000102300000000010670000000001005000000000101600000000010250000000000980000000000102500065000000000000052600000000000053471100000000000000009999123100000010000000000000BRAGROACNOR7102
012013071096AGRO3F      020BRASILAGRO  ON      NM   R$  000000000100000000000010000000000000951000000000098300000000010000000000000000000000000114900004000000000000000150000000000000147501000000000000009999123100000010000000000000BRAGROACNOR7102
012013071002ALLL3       010ALL AMER LATON      NM   R$  000000000089400000000009000000000000853000000000086800000000008630000000000860000000000086305010000000000001668500000000001449024700000000000000009999123100000010000000000000BRALLLACNOR6118
012013071096ALLL3F      020ALL AMER LATON      NM   R$  000000000089700000000009380000000000852000000000087300000000008790000000000854000000000087700048000000000000001373000000000001198831000000000000009999123100000010000000000000BRALLLACNOR6118
012013071062ALLL3T      030ALL AMER LATON      NM030R$  000000000086700000000008680000000000867000000000086700000000008680000000000000000000000000000002000000000000004000000000000003471446000000000000009999123100000010000000000000BRALLLACNOR6118
012013071012ALMI11B     010FII TORRE ALCI  ER  MB   R$  000000031990000000003199990000000319900000000031991300000003199990000000310300000000031999900003000000000000000015000000000004798698000000000000009999123100000010000000000000BRALMICTF003203
012013071002ALPA3       010ALPARGATAS  ON      N1   R$  000000000110000000000011000000000001040000000000105300000000010400000000001039000000000107900054000000000000032200000000000033932800000000000000009999123100000010000000000000BRALPAACNOR0202
012013071002ALPA4       010ALPARGATAS  PN      N1   R$  000000000138400000000014000000000001384000000000138900000000013850000000001385000000000138800561000000000000205800000000000286025800000000000000009999123100000010000000000000BRALPAACNPR7202
012013071096ALPA4F      020ALPARGATAS  PN      N1   R$  000000000139700000000013970000000001390000000000139200000000013970000000001380000000000139700004000000000000000056000000000000077990000000000000009999123100000010000000000000BRALPAACNPR7202
012013071002ALSC3       010ALIANSCE    ON      NM   R$  000000000185000000000018640000000001827000000000184700000000018600000000001852000000000186001716000000000000260000000000000480455000000000000000009999123100000010000000000000BRALSCACNOR0104
012013071096ALSC3F      020ALIANSCE    ON      NM   R$  000000000170500000000018480000000001705000000000181100000000018480000000001708000000000211700006000000000000000200000000000000362262000000000000009999123100000010000000000000BRALSCACNOR0104
012013071002ALUP11      010ALUPAR      UNT     N2   R$  000000000185100000000018530000000001800000000000181900000000018100000000001810000000000182000483000000000000116500000000000211946700000000000000009999123100000010000000000000BRALUPCDAM15100
012013071096ALUP11F     020ALUPAR      UNT     N2   R$  000000000191600000000020560000000001800000000000185100000000019900000000001810000000000199000022000000000000000649000000000001201715000000000000009999123100000010000000000000BRALUPCDAM15100
012013071002AMAR3       010LOJAS MARISAON      NM   R$  000000000223500000000022500000000002168000000000220700000000021810000000002177000000000219300986000000000000214900000000000474442300000000000000009999123100000010000000000000BRAMARACNOR4109
012013071096AMAR3F      020LOJAS MARISAON      NM   R$  000000000221400000000022450000000002195000000000221900000000021950000000002165000000000221500017000000000000000546000000000001211642000000000000009999123100000010000000000000BRAMARACNOR4109
012013071062AMAR3T      030LOJAS MARISAON      NM030R$  000000000219800000000021990000000002198000000000219800000000021990000000000000000000000000000002000000000000001000000000000002198414000000000000009999123100000010000000000000BRAMARACNOR4109
012013071062AMAR3T      030LOJAS MARISAON      NM090R$  000000000229300000000022940000000002293000000000229300000000022940000000000000000000000000000002000000000000000055000000000000126167000000000000009999123100000010000000000000BRAMARACNOR4109
012013071062AMAR3T      030LOJAS MARISAON      NM180R$  000000000229000000000022910000000002290000000000229000000000022910000000000000000000000000000002000000000000007700000000000017638317000000000000009999123100000010000000000000BRAMARACNOR4109
012013071002AMBV3       010AMBEV       ON           R$  000000000812100000000083350000000008121000000000823700000000081800000000008180000000000822201161000000000000182300000000001501650200000000000000009999123100000010000000000000BRAMBVACNOR4153
012013071096AMBV3F      020AMBEV       ON           R$  000000000811200000000083500000000008112000000000822700000000082000000000008150000000000829000042000000000000000755000000000006211916000000000000009999123100000010000000000000BRAMBVACNOR4153
012013071002AMBV4       010AMBEV       PN           R$  000000000822500000000083980000000008217000000000830200000000082820000000008282000000000828505665000000000001215600000000010091824600000000000000009999123100000010000000000000BRAMBVACNPR1153
012013071096AMBV4F      020AMBEV       PN           R$  000000000825000000000083870000000008221000000000830100000000083200000000008296000000000832000150000000000000002914000000000024190386000000000000009999123100000010000000000000BRAMBVACNPR1153
012013071062AMBV4T      030AMBEV       PN        030R$  000000000833100000000083320000000008331000000000833100000000083320000000000000000000000000000002000000000000000200000000000001666384000000000000009999123100000010000000000000BRAMBVACNPR1153
012013071062AMBV4T      030AMBEV       PN        061R$  000000000844400000000084450000000008395000000000840600000000083960000000000000000000000000000006000000000000001275000000000010718089000000000000009999123100000010000000000000BRAMBVACNPR1153
012013071062AMBV4T      030AMBEV       PN        090R$  000000000852400000000085250000000008434000000000852100000000084350000000000000000000000000000004000000000000007300000000000062207838000000000000009999123100000010000000000000BRAMBVACNPR1153
012013071062AMBV4T      030AMBEV       PN        120R$  000000000849200000000084930000000008492000000000849200000000084930000000000000000000000000000002000000000000000500000000000004246416000000000000009999123100000010000000000000BRAMBVACNPR1153
012013071078AMBVG84     070AMBV        PN        000R$  000000000004000000000000400000000000040000000000004000000000000400000000000010000000000000000001000000000000000300000000000000012000000000000840002013071500000010000000000000BRAMBVACNPR1153
012013071078AMBVH85     070AMBV        PN        000R$  000000000020500000000002050000000000180000000000019900000000001800000000000000000000000020000007000000000000001100000000000000219000000000000850002013081900000010000000000000BRAMBVACNPR1153
012013071002ARTR3       010ARTERIS     ON      NM   R$  000000000205300000000020790000000002021000000000204900000000020500000000002050000000000205804005000000000004727600000000009687756600000000000000009999123100000010000000000000BRARTRACNOR3101
012013071096ARTR3F      020ARTERIS     ON      NM   R$  000000000208000000000020800000000002027000000000204800000000020800000000002054000000000208000054000000000000001615000000000003308497000000000000009999123100000010000000000000BRARTRACNOR3101
012013071002ARZZ3       010AREZZO CO   ON  EJ  NM   R$  000000000339100000000034320000000003355000000000341500000000034100000000003410000000000342301535000000000000237100000000000809869800000000000000009999123100000010000000000000BRARZZACNOR3108
012013071096ARZZ3F      020AREZZO CO   ON  EJ  NM   R$  000000000340000000000034240000000003350000000000340500000000034170000000003306000000000367400009000000000000000261000000000000888831000000000000009999123100000010000000000000BRARZZACNOR3108
012013071002AUTM3       010AUTOMETAL   ON      NM   R$  000000000160000000000016690000000001562000000000163400000000016480000000001648000000000165401335000000000000265700000000000434312600000000000000009999123100000010000000000000BRAUTMACNOR8109
012013071096AUTM3F      020AUTOMETAL   ON      NM   R$  000000000167000000000016700000000001650000000000165900000000016500000000001577000000000165000004000000000000000086000000000000142688000000000000009999123100000010000000000000BRAUTMACNOR8109
012013071002AXPB11B     010AMERICAN EXPDRN ED  MB   R$  000000001728500000000172850000000017236000000001728000000000172360000000016906000000001776300002000000000000004700000000000081219900000000000000009999123100000010000000000000BRAXPBBDR007105
012013071002BAUH4       010EXCELSIOR   PN           R$  000000000102500000000010250000000001025000000000102500000000010250000000000910000000000101000001000000000000000100000000000000102500000000000000009999123100000010000000000000BRBAUHACNPR3108
012013071096BAUH4F      020EXCELSIOR   PN           R$  000000000110000000000011000000000001100000000000110000000000011000000000000800000000000110000003000000000000000032000000000000035200000000000000009999123100000010000000000000BRBAUHACNPR3108
012013071002BAZA3       010AMAZONIA    ON           R$  000000000003300000000000330000000000033000000000003300000000000330000000000032000000000003300002000000000000004000000000000000132000000000000000009999123100000010000000000000BRBAZAACNOR0163
012013071002BBAS3       010BRASIL      ON      NM   R$  000000000205000000000020800000000002041000000000206000000000020540000000002047000000000205411410000000000006505700000000013403521100000000000000009999123100000010000000000000BRBBASACNOR3237
012013071096BBAS3F      020BRASIL      ON      NM   R$  000000000205000000000020800000000002040000000000205900000000020450000000002051000000000206200189000000000000005194000000000010699047000000000000009999123100000010000000000000BRBBASACNOR3237
012013071062BBAS3T      030BRASIL      ON      NM030R$  000000000207400000000020890000000002061000000000206400000000020620000000000000000000000000000012000000000000013200000000000027248928000000000000009999123100000010000000000000BRBBASACNOR3237
012013071062BBAS3T      030BRASIL      ON      NM045R$  000000000206500000000020660000000002065000000000206500000000020660000000000000000000000000000002000000000000001000000000000002065450000000000000009999123100000010000000000000BRBBASACNOR3237
012013071062BBAS3T      030BRASIL      ON      NM061R$  000000000208500000000020940000000002077000000000209200000000020800000000000000000000000000000014000000000000439300000000000919214130000000000000009999123100000010000000000000BRBBASACNOR3237
012013071062BBAS3T      030BRASIL      ON      NM090R$  000000000208600000000021140000000002086000000000208700000000021140000000000000000000000000000004000000000000005200000000000010853104000000000000009999123100000010000000000000BRBBASACNOR3237
012013071062BBAS3T      030BRASIL      ON      NM120R$  000000000211800000000021190000000002118000000000211800000000021190000000000000000000000000000004000000000000009800000000000020759334000000000000009999123100000010000000000000BRBBASACNOR3237
012013071062BBAS3T      030BRASIL      ON      NM180R$  000000000216600000000021670000000002152000000000215600000000021530000000000000000000000000000006000000000000003100000000000006686354000000000000009999123100000010000000000000BRBBASACNOR3237
012013071078BBASG19     070BBAS        ON      NM000R$  000000000016300000000001630000000000163000000000016300000000001630000000000000000000000000000001000000000000004100000000000000668300000000000190002013071500000010000000000000BRBBASACNOR3237
012013071078BBASG20     070BBAS        ON      NM000R$  000000000010000000000001050000000000088000000000009400000000000880000000000050000000000010500021000000000000019100000000000001799500000000000197602013071500000010000000000000BRBBASACNOR3236
012013071078BBASG21     070BBAS        ON      NM000R$  000000000008600000000000910000000000070000000000008400000000000700000000000050000000000009800030000000000000043600000000000003695400000000000199202013071500000010000000000000BRBBASACNOR3232
012013071078BBASG22     070BBAS        ON      NM000R$  000000000001200000000000180000000000009000000000001300000000000100000000000007000000000001100163000000000000168700000000000002195600000000000211702013071500000010000000000000BRBBASACNOR3233
012013071078BBASG23     070BBAS        ON      NM000R$  000000000000200000000000020000000000001000000000000100000000000010000000000000000000000000100010000000000000017700000000000000032400000000000226602013071500000010000000000000BRBBASACNOR3235
012013071078BBASG24     070BBAS        ON      NM000R$  000000000000100000000000010000000000001000000000000100000000000010000000000000000000000000100004000000000000003300000000000000003300000000000231702013071500000010000000000000BRBBASACNOR3233
012013071078BBASG26     070BBAS        ON      NM000R$  000000000000100000000000010000000000001000000000000100000000000010000000000000000000000000100001000000000000010000000000000000010000000000000251702013071500000010000000000000BRBBASACNOR3233
012013071078BBASH19     070BBAS        ON      NM000R$  000000000020300000000002050000000000185000000000019900000000001850000000000185000000000000000006000000000000007700000000000001532300000000000190002013081900000010000000000000BRBBASACNOR3237
012013071078BBASH20     070BBAS  FM    ON      NM000R$  000000000013400000000001400000000000123000000000013100000000001230000000000000000000000022000088000000000000201300000000000026543200000000000200002013081900000010000000000000BRBBASACNOR3237
012013071078BBASH21     070BBAS  FM    ON      NM000R$  000000000009600000000000960000000000078000000000008500000000000800000000000007000000000008500168000000000000098000000000000008334600000000000207602013081900000010000000000000BRBBASACNOR3236
012013071078BBASH22     070BBAS  FM    ON      NM000R$  000000000005400000000000540000000000040000000000004400000000000400000000000030000000000004800034000000000000050200000000000002257400000000000217602013081900000010000000000000BRBBASACNOR3236
012013071078BBASH23     070BBAS  FM    ON      NM000R$  000000000002500000000000250000000000019000000000001900000000000190000000000011000000000003000075000000000000185200000000000003682900000000000227602013081900000010000000000000BRBBASACNOR3236
012013071078BBASH24     070BBAS  FM    ON      NM000R$  000000000001500000000000190000000000014000000000001400000000000140000000000011000000000002300013000000000000025300000000000000376700000000000231702013081900000010000000000000BRBBASACNOR3233
012013071078BBASH25     070BBAS        ON      NM000R$  000000000000700000000000080000000000007000000000000700000000000080000000000006000000000001100019000000000000160500000000000001237000000000000241702013081900000010000000000000BRBBASACNOR3233
012013071078BBASH26     070BBAS        ON      NM000R$  000000000000400000000000040000000000004000000000000400000000000040000000000003000000000000500002000000000000003600000000000000014400000000000256602013081900000010000000000000BRBBASACNOR3235
012013071078BBASH27     070BBAS        ON      NM000R$  000000000000200000000000020000000000002000000000000200000000000020000000000001000000000000200002000000000000001100000000000000002200000000000266602013081900000010000000000000BRBBASACNOR3235
012013071078BBASI18     070BBAS        ON      NM000R$  000000000032000000000003200000000000320000000000032000000000003200000000000000000000000000000002000000000000006500000000000002080000000000000180002013091600000010000000000000BRBBASACNOR3237
012013071078BBASI20     070BBAS  FM    ON      NM000R$  000000000016400000000001720000000000153000000000016000000000001550000000000000000000000000000071000000000000130300000000000020881900000000000200002013091600000010000000000000BRBBASACNOR3237
012013071078BBASI21     070BBAS  FM    ON      NM000R$  000000000010800000000001150000000000100000000000010500000000001000000000000000000000000000000036000000000000058000000000000006117000000000000210002013091600000010000000000000BRBBASACNOR3237
012013071078BBASI22     070BBAS  FM    ON      NM000R$  000000000007500000000000780000000000066000000000007200000000000660000000000007000000000008800027000000000000048800000000000003520200000000000217602013091600000010000000000000BRBBASACNOR3236
012013071078BBASI23     070BBAS  FM    ON      NM000R$  000000000004900000000000490000000000037000000000004100000000000390000000000031000000000005500038000000000000065400000000000002699900000000000227602013091600000010000000000000BRBBASACNOR3236
012013071078BBASI24     070BBAS        ON      NM000R$  000000000002500000000000250000000000022000000000002300000000000220000000000011000000000003000012000000000000010900000000000000256100000000000237602013091600000010000000000000BRBBASACNOR3236
012013071078BBASI25     070BBAS        ON      NM000R$  000000000001300000000000130000000000013000000000001300000000000130000000000011000000000000000001000000000000003000000000000000039000000000000246602013091600000010000000000000BRBBASACNOR3235
012013071078BBASI26     070BBAS        ON      NM000R$  000000000000800000000000080000000000008000000000000800000000000080000000000008000000000009800011000000000000018500000000000000148000000000000256602013091600000010000000000000BRBBASACNOR3235
012013071078BBASJ21     070BBAS        ON      NM000R$  000000000012800000000001280000000000128000000000012800000000001280000000000000000000000000000003000000000000005000000000000000640000000000000210002013102100000010000000000000BRBBASACNOR3237
012013071078BBASJ24     070BBAS        ON      NM000R$  000000000003900000000000390000000000039000000000003900000000000390000000000000000000000000000002000000000000004000000000000000156000000000000237602013102100000010000000000000BRBBASACNOR3236
012013071082BBASS20     080BBASE       ON      NM000R$  000000000000900000000000100000000000009000000000000900000000000100000000000009000000000003800005000000000000030000000000000000290000000000000197602013071500000010000000000000BRBBASACNOR3236
012013071082BBASS21     080BBASE       ON      NM000R$  000000000001000000000000130000000000010000000000001100000000000130000000000011000000000002500004000000000000022000000000000000247000000000000199202013071500000010000000000000BRBBASACNOR3232
012013071082BBASS22     080BBASE       ON      NM000R$  000000000007000000000000730000000000053000000000006100000000000730000000000042000000000000000021000000000000065700000000000004026600000000000211702013071500000010000000000000BRBBASACNOR3233
012013071082BBASS23     080BBASE       ON      NM000R$  000000000021000000000002100000000000210000000000021000000000002100000000000200000000000000000001000000000000000500000000000000105000000000000226602013071500000010000000000000BRBBASACNOR3235
012013071082BBASS24     080BBASE       ON      NM000R$  000000000023600000000002400000000000236000000000023700000000002400000000000200000000000000000004000000000000004000000000000000948000000000000231702013071500000010000000000000BRBBASACNOR3233
012013071082BBAST19     080BBASE FM    ON      NM000R$  000000000003400000000000340000000000029000000000003100000000000340000000000020000000000000000082000000000000073000000000000002311400000000000190002013081900000010000000000000BRBBASACNOR3237
012013071082BBAST20     080BBASE FM    ON      NM000R$  000000000006100000000000620000000000051000000000005400000000000600000000000040000000000000000020000000000000050100000000000002752600000000000200002013081900000010000000000000BRBBASACNOR3237
012013071082BBAST21     080BBASE FM    ON      NM000R$  000000000009100000000000930000000000079000000000008700000000000910000000000067000000000000000033000000000000060900000000000005356200000000000207602013081900000010000000000000BRBBASACNOR3236
012013071082BBAST22     080BBASE FM    ON      NM000R$  000000000014900000000001510000000000133000000000014600000000001500000000000020000000000000000043000000000000086500000000000012647300000000000217602013081900000010000000000000BRBBASACNOR3236
012013071082BBAST24     080BBASE       ON      NM000R$  000000000023600000000002360000000000236000000000023600000000002360000000000000000000000000000003000000000000003000000000000000708000000000000231702013081900000010000000000000BRBBASACNOR3233
012013071082BBASU18     080BBASE       ON      NM000R$  000000000002700000000000270000000000027000000000002700000000000270000000000000000000000000000001000000000000003000000000000000081000000000000180002013091600000010000000000000BRBBASACNOR3237
012013071082BBASU19     080BBASE FM    ON      NM000R$  000000000004700000000000480000000000046000000000004700000000000480000000000000000000000000000010000000000000021300000000000001006800000000000190002013091600000010000000000000BRBBASACNOR3237
012013071082BBASU20     080BBASE FM    ON      NM000R$  000000000007700000000000800000000000069000000000007600000000000800000000000000000000000000000018000000000000041000000000000003138500000000000200002013091600000010000000000000BRBBASACNOR3237
012013071082BBASU21     080BBASE FM    ON      NM000R$  000000000011800000000001250000000000108000000000011800000000001220000000000000000000000000000051000000000000077500000000000009206600000000000210002013091600000010000000000000BRBBASACNOR3237
012013071002BBDC3       010BRADESCO    ON  EJ  N1   R$  000000000286600000000029480000000002866000000000291000000000028800000000002880000000000288504468000000000001371000000000003990171600000000000000009999123100000010000000000000BRBBDCACNOR1604
012013071096BBDC3F      020BRADESCO    ON  EJ  N1   R$  000000000305000000000030500000000002894000000000292300000000028940000000002875000000000291000048000000000000001219000000000003563151000000000000009999123100000010000000000000BRBBDCACNOR1604
012013071002BBDC4       010BRADESCO    PN  EJ  N1   R$  000000000263100000000026610000000002598000000000262700000000026070000000002607000000000260816716000000000008002900000000021026544800000000000000009999123100000010000000000000BRBBDCACNPR8604
012013071096BBDC4F      020BRADESCO    PN  EJ  N1   R$  000000000262000000000026690000000002600000000000263100000000026230000000002601000000000262300249000000000000006163000000000016217276000000000000009999123100000010000000000000BRBBDCACNPR8604
012013071062BBDC4S      030BRADESCO    PN  EJ  N1041R$  000000000265400000000026550000000002654000000000265400000000026550000000000000000000000000000002000000000000003800000000000010085573000000000000009999123100000010000000000000BRBBDCACNPR8604
012013071062BBDC4T      030BRADESCO    PN  EJ  N1045R$  000000000263900000000026400000000002639000000000263900000000026400000000000000000000000000000002000000000000000400000000000001055652000000000000009999123100000010000000000000BRBBDCACNPR8604
012013071062BBDC4T      030BRADESCO    PN  EJ  N1060R$  000000000267200000000026730000000002672000000000267200000000026730000000000000000000000000000002000000000000001000000000000002672072000000000000009999123100000010000000000000BRBBDCACNPR8604
012013071062BBDC4T      030BRADESCO    PN  EJ  N1061R$  000000000266700000000026830000000002667000000000268000000000026800000000000000000000000000000006000000000000005189000000000013911672000000000000009999123100000010000000000000BRBBDCACNPR8604
012013071062BBDC4T      030BRADESCO    PN  EJ  N1090R$  000000000267000000000026710000000002670000000000267000000000026710000000000000000000000000000002000000000000001500000000000004005063000000000000009999123100000010000000000000BRBBDCACNPR8604
012013071062BBDC4T      030BRADESCO    PN  EJ  N1180R$  000000000275800000000027590000000002758000000000275800000000027590000000000000000000000000000002000000000000005000000000000013791302000000000000009999123100000010000000000000BRBBDCACNPR8604
012013071062BBDC4T      030BRADESCO    PN  EJ  N1016R$  000000000264700000000026480000000002611000000000263500000000026470000000000000000000000000000006000000000000004500000000000011857742000000000000009999123100000010000000000000BRBBDCACNPR8604
012013071062BBDC4T      030BRADESCO    PN  EJ  N1030R$  000000000266600000000026670000000002666000000000266600000000026670000000000000000000000000000002000000000000000200000000000000533222000000000000009999123100000010000000000000BRBBDCACNPR8604
012013071038BBDCG24E    012BBDC    /EJ PN      N1000R$  000000000237800000000023780000000002378000000000237800000000023780000000000000000000000000000001000000000000002000000000000004756000000000000237802013071500000010000000000000BRBBDCACNPR8604
012013071078BBDCG25     070BBDC    /EJ PN      N1000R$  000000000015900000000001790000000000151000000000017000000000001510000000000000000000000017800009000000000000021200000000000003612900000000000247802013071500000010000000000000BRBBDCACNPR8601
012013071078BBDCG26     070BBDC    /EJ PN      N1000R$  000000000007000000000000960000000000070000000000008000000000000880000000000000000000000010500007000000000000016800000000000001360600000000000257802013071500000010000000000000BRBBDCACNPR8601
012013071078BBDCG27     070BBDC    /EJ PN      N1000R$  000000000004200000000000420000000000014000000000002400000000000140000000000010000000000002000049000000000000071200000000000001753700000000000267802013071500000010000000000000BRBBDCACNPR8601
012013071078BBDCG28     070BBDC    /EJ PN      N1000R$  000000000000700000000000070000000000003000000000000300000000000030000000000001000000000000300006000000000000022000000000000000074000000000000278002013071500000010000000000000BRBBDCACNPR8602
012013071078BBDCG29     070BBDC    /EJ PN      N1000R$  000000000000200000000000020000000000002000000000000200000000000020000000000000000000000000100001000000000000001000000000000000002000000000000288002013071500000010000000000000BRBBDCACNPR8602
012013071078BBDCG30     070BBDC    /EJ PN      N1000R$  000000000000100000000000030000000000001000000000000100000000000030000000000000000000000000100003000000000000019100000000000000019700000000000297802013071500000010000000000000BRBBDCACNPR8601
012013071078BBDCG31     070BBDC    /EJ PN      N1000R$  000000000000100000000000010000000000001000000000000100000000000010000000000000000000000000000004000000000000012600000000000000012600000000000307802013071500000010000000000000BRBBDCACNPR8601
012013071078BBDCG34     070BBDC    /EJ PN      N1000R$  000000000000100000000000010000000000001000000000000100000000000010000000000000000000000000300004000000000000018300000000000000018300000000000300602013071500000010000000000000BRBBDCACNPR8591
012013071078BBDCH24     070BBDC    /EJ PN      N1000R$  000000000031100000000003110000000000311000000000031100000000003110000000000000000000000000000001000000000000003000000000000000933000000000000238002013081900000010000000000000BRBBDCACNPR8602
012013071078BBDCH25     070BBDC    /EJ PN      N1000R$  000000000021500000000002300000000000215000000000022200000000002300000000000000000000000000000050000000000000040000000000000008894700000000000248002013081900000010000000000000BRBBDCACNPR8602
012013071078BBDCH26     070BBDC    /EJ PN      N1000R$  000000000015700000000001650000000000130000000000015200000000001330000000000000000000000014000182000000000000170600000000000026036000000000000258002013081900000010000000000000BRBBDCACNPR8602
012013071078BBDCH27     070BBDC    /EJ PN      N1000R$  000000000010600000000001090000000000079000000000009800000000000790000000000077000000000011000159000000000000129600000000000012738300000000000268002013081900000010000000000000BRBBDCACNPR8602
012013071078BBDCH28     070BBDC    /EJ PN      N1000R$  000000000005500000000000620000000000043000000000005200000000000440000000000035000000000006800117000000000000108200000000000005679600000000000278002013081900000010000000000000BRBBDCACNPR8602
012013071078BBDCH29     070BBDC    /EJ PN      N1000R$  000000000002900000000000330000000000022000000000002700000000000220000000000005000000000002500078000000000000073800000000000002026500000000000288002013081900000010000000000000BRBBDCACNPR8602
012013071078BBDCH30     070BBDC    /EJ PN      N1000R$  000000000001300000000000170000000000009000000000001300000000000090000000000000000000000002000113000000000000098900000000000001302000000000000298002013081900000010000000000000BRBBDCACNPR8602
012013071078BBDCH31     070BBDC    /EJ PN      N1000R$  000000000000700000000000070000000000006000000000000600000000000060000000000005000000000000800005000000000000023300000000000000143100000000000307602013081900000010000000000000BRBBDCACNPR8600
012013071078BBDCH32     070BBDC    /EJ PN      N1000R$  000000000000400000000000040000000000004000000000000400000000000040000000000002000000000000700001000000000000001700000000000000006800000000000318002013081900000010000000000000BRBBDCACNPR8602
012013071078BBDCH33     070BBDC    /EJ PN      N1000R$  000000000000100000000000010000000000001000000000000100000000000010000000000000000000000002500001000000000000001700000000000000001700000000000327802013081900000010000000000000BRBBDCACNPR8601
012013071078BBDCH34     070BBDC    /EJ PN      N1000R$  000000000000900000000000090000000000007000000000000800000000000070000000000000000000000002800003000000000000005500000000000000047200000000000305502013081900000010000000000000BRBBDCACNPR8595
012013071078BBDCI23     070BBDC    /EJ PN      N1000R$  000000000039100000000004070000000000391000000000039900000000004070000000000000000000000000000002000000000000006000000000000002394000000000000230002013091600000010000000000000BRBBDCACNPR8604
012013071078BBDCI25     070BBDC    /EJ PN      N1000R$  000000000024100000000002550000000000216000000000023900000000002190000000000000000000000000000121000000000000112800000000000026999000000000000250002013091600000010000000000000BRBBDCACNPR8604
012013071078BBDCI26     070BBDC    /EJ PN      N1000R$  000000000017700000000001850000000000155000000000017200000000001570000000000100000000000000000097000000000000073600000000000012726900000000000260002013091600000010000000000000BRBBDCACNPR8604
012013071078BBDCI27     070BBDC    /EJ PN      N1000R$  000000000013700000000001430000000000114000000000013000000000001170000000000000000000000000000108000000000000074700000000000009765200000000000268002013091600000010000000000000BRBBDCACNPR8602
012013071078BBDCI28     070BBDC    /EJ PN      N1000R$  000000000008700000000000960000000000075000000000008600000000000780000000000000000000000011100079000000000000054400000000000004717900000000000278002013091600000010000000000000BRBBDCACNPR8602
012013071078BBDCI29     070BBDC    /EJ PN      N1000R$  000000000005400000000000610000000000046000000000005400000000000460000000000000000000000005000047000000000000028000000000000001539300000000000288002013091600000010000000000000BRBBDCACNPR8602
012013071078BBDCI30     070BBDC    /EJ PN      N1000R$  000000000003300000000000350000000000033000000000003400000000000350000000000000000000000003500002000000000000005900000000000000200700000000000298002013091600000010000000000000BRBBDCACNPR8602
012013071078BBDCI31     070BBDC    /EJ PN      N1000R$  000000000011800000000001180000000000109000000000011300000000001120000000000093000000000000000003000000000000006000000000000000681000000000000273102013091600000010000000000000BRBBDCACNPR8590
012013071078BBDCI33     070BBDC    /EJ PN      N1000R$  000000000003500000000000350000000000034000000000003400000000000340000000000000000000000000000003000000000000009000000000000000309000000000000297402013091600000010000000000000BRBBDCACNPR8598
012013071078BBDCI81     070BBDC    /EJ PN      N1000R$  000000000002000000000000200000000000020000000000002000000000000200000000000000000000000000000001000000000000002700000000000000054000000000000308002013091600000010000000000000BRBBDCACNPR8602
012013071078BBDCJ27     070BBDC    /EJ PN      N1000R$  000000000017100000000001720000000000171000000000017100000000001720000000000000000000000000000002000000000000100000000000000017125000000000000268002013102100000010000000000000BRBBDCACNPR8602
012013071078BBDCL31     070BBDC    /EJ PN      N1000R$  000000000015600000000001560000000000156000000000015600000000001560000000000000000000000000000001000000000000500000000000000078000000000000000279002013121600000010000000000000BRBBDCACNPR8597
012013071078BBDCL33     070BBDC    /EJ PN      N1000R$  000000000009700000000000970000000000097000000000009700000000000970000000000000000000000000000001000000000000048500000000000004704500000000000297402013121600000010000000000000BRBBDCACNPR8598
012013071082BBDCS25     080BBDCE   /EJ PN      N1000R$  000000000000600000000000070000000000006000000000000600000000000070000000000000000000000000000002000000000000010000000000000000065000000000000247802013071500000010000000000000BRBBDCACNPR8601
012013071082BBDCS26     080BBDCE   /EJ PN      N1000R$  000000000002100000000000210000000000021000000000002100000000000210000000000000000000000000000002000000000000002000000000000000042000000000000257802013071500000010000000000000BRBBDCACNPR8601
012013071082BBDCS27     080BBDCE   /EJ PN      N1000R$  000000000006300000000000820000000000051000000000006800000000000820000000000050000000000016700048000000000000111100000000000007580000000000000267802013071500000010000000000000BRBBDCACNPR8601
012013071082BBDCS28     080BBDCE   /EJ PN      N1000R$  000000000014000000000001400000000000140000000000014000000000001400000000000090000000000009900001000000000000001000000000000000140000000000000278002013071500000010000000000000BRBBDCACNPR8602
012013071082BBDCS30     080BBDCE   /EJ PN      N1000R$  000000000033300000000003330000000000330000000000033100000000003300000000000000000000000000000002000000000000002500000000000000829500000000000297802013071500000010000000000000BRBBDCACNPR8601
012013071082BBDCS31     080BBDCE   /EJ PN      N1000R$  000000000044000000000004400000000000432000000000043400000000004320000000000000000000000000000002000000000000002700000000000001172000000000000307802013071500000010000000000000BRBBDCACNPR8601
012013071082BBDCS32     080BBDCE   /EJ PN      N1000R$  000000000054500000000005450000000000545000000000054500000000005450000000000340000000000000000001000000000000030000000000000016350000000000000317602013071500000010000000000000BRBBDCACNPR8600
012013071082BBDCT24     080BBDCE   /EJ PN      N1000R$  000000000002700000000000290000000000027000000000002800000000000290000000000038000000000000000003000000000000005000000000000000143000000000000238002013081900000010000000000000BRBBDCACNPR8602
012013071082BBDCT25     080BBDCE   /EJ PN      N1000R$  000000000004800000000000550000000000043000000000004700000000000530000000000060000000000000000144000000000000119600000000000005734400000000000248002013081900000010000000000000BRBBDCACNPR8602
012013071082BBDCT26     080BBDCE   /EJ PN      N1000R$  000000000007700000000000870000000000070000000000007900000000000860000000000000000000000000000072000000000000103900000000000008247600000000000258002013081900000010000000000000BRBBDCACNPR8602
012013071082BBDCT27     080BBDCE   /EJ PN      N1000R$  000000000012600000000001360000000000112000000000012100000000001360000000000000000000000016100074000000000000064200000000000007817800000000000268002013081900000010000000000000BRBBDCACNPR8602
012013071082BBDCT28     080BBDCE   /EJ PN      N1000R$  000000000018400000000002000000000000168000000000017800000000002000000000000000000000000000000167000000000000196400000000000034995800000000000278002013081900000010000000000000BRBBDCACNPR8602
012013071082BBDCT29     080BBDCE   /EJ PN      N1000R$  000000000023900000000002390000000000238000000000023800000000002380000000000080000000000000000004000000000000004000000000000000953000000000000288002013081900000010000000000000BRBBDCACNPR8602
012013071082BBDCT32     080BBDCE   /EJ PN      N1000R$  000000000050700000000005070000000000507000000000050700000000005070000000000000000000000000000001000000000000030000000000000015210000000000000318002013081900000010000000000000BRBBDCACNPR8602
012013071082BBDCU24     080BBDCE   /EJ PN      N1000R$  000000000005100000000000510000000000051000000000005100000000000510000000000000000000000000000001000000000000000100000000000000005100000000000240002013091600000010000000000000BRBBDCACNPR8604
012013071082BBDCU25     080BBDCE   /EJ PN      N1000R$  000000000007200000000000730000000000067000000000006900000000000680000000000000000000000000000012000000000000014500000000000001008200000000000250002013091600000010000000000000BRBBDCACNPR8604
012013071082BBDCU26     080BBDCE   /EJ PN      N1000R$  000000000010500000000001100000000000098000000000010200000000001090000000000000000000000000000017000000000000022700000000000002319200000000000260002013091600000010000000000000BRBBDCACNPR8604
012013071082BBDCU27     080BBDCE   /EJ PN      N1000R$  000000000014000000000001550000000000131000000000013900000000001550000000000000000000000000000029000000000000049500000000000006919500000000000268002013091600000010000000000000BRBBDCACNPR8602
012013071082BBDCX26     080BBDCE   /EJ PN      N1000R$  000000000006100000000000610000000000061000000000006100000000000610000000000000000000000000000002000000000000500000000000000030500000000000000233602013121600000010000000000000BRBBDCACNPR8597
012013071082BBDCX33     080BBDCE   /EJ PN      N1000R$  000000000032800000000003280000000000328000000000032800000000003280000000000000000000000000000001000000000000048500000000000015908000000000000297402013121600000010000000000000BRBBDCACNPR8598
012013071012BBFI11B     010FII BB PROGRCI  ER  MB   R$  000000042999900000004299990000000429999000000042999900000004299990000000421000000000042980000001000000000000000001000000000000429999000000000000009999123100000010000000000000BRBBFICTF006196
012013071012BBPO11      010FII BB PRGIICI  ER       R$  000000001098000000000110000000000010902000000001093900000000109020000000010902000000001092900230000000000000026781000000000292977703000000000000009999123100000010000000000000BRBBPOCTF003108
012013071012BBRC11      010FII BB CORP CI  ER       R$  000000000980000000000100000000000009800000000000995900000000100000000000009800000000001000000006000000000000000250000000000002489950000000000000009999123100000010000000000000BRBBRCCTF004122
012013071002BBRK3       010BR BROKERS  ON      NM   R$  000000000057200000000005770000000000535000000000055100000000005420000000000538000000000054205656000000000001419600000000000783069500000000000000009999123100000010000000000000BRBBRKACNOR4108
012013071096BBRK3F      020BR BROKERS  ON      NM   R$  000000000057000000000005700000000000486000000000053200000000004860000000000486000000000055800019000000000000000453000000000000241063000000000000009999123100000010000000000000BRBBRKACNOR4108
012013071002BBSE3       010BBSEGURIDADEON      NM   R$  000000000180000000000018000000000001760000000000178000000000017750000000001766000000000177508182000000000004124000000000007341089400000000000000009999123100000010000000000000BRBBSEACNOR5100
012013071096BBSE3F      020BBSEGURIDADEON      NM   R$  000000000178300000000017990000000001703000000000177800000000017650000000001762000000000176500357000000000000010506000000000018684906000000000000009999123100000010000000000000BRBBSEACNOR5100
012013071062BBSE3T      030BBSEGURIDADEON      NM061R$  000000000180600000000018070000000001806000000000180600000000018070000000000000000000000000000004000000000000080000000000000144504000000000000000009999123100000010000000000000BRBBSEACNOR5100
012013071002BBTG11      010BTG PACTUAL UNT          R$  000000000281000000000028400000000002747000000000279900000000028000000000002800000000000280102296000000000000523400000000001465357400000000000000009999123100000010000000000000BRBBTGUNT007104
012013071096BBTG11F     020BTG PACTUAL UNT          R$  000000000275000000000028500000000002729000000000277200000000028500000000002729000000000285000008000000000000000310000000000000859503000000000000009999123100000010000000000000BRBBTGUNT007104
012013071062BBTG11T     030BTG PACTUAL UNT       090R$  000000000285300000000028540000000002852000000000285200000000028530000000000000000000000000000004000000000000150200000000000428464914000000000000009999123100000010000000000000BRBBTGUNT007104
012013071012BBVJ11      010FII C JARDIMCI  ER       R$  000000000814000000000081400000000008010000000000807000000000080500000000008050000000000809500029000000000000001260000000000010168743000000000000009999123100000010000000000000BRBBVJCTF001131
012013071012BCFF11B     010FII BC FFII CI  ER  MB   R$  000000000995200000000101000000000009860000000000993200000000099280000000009928000000000993000080000000000000003733000000000037076634000000000000009999123100000010000000000000BRBCFFCTF000140
012013071002BDLL4       010BARDELLA    PN           R$  000000000420000000000042990000000004200000000000420900000000042990000000004202000000000439400003000000000000001000000000000004209900000000000000009999123100000010000000000000BRBDLLACNPR8149
012013071096BDLL4F      020BARDELLA    PN           R$  000000000430000000000043000000000004300000000000430000000000043000000000004305000000000850000004000000000000000026000000000000111800000000000000009999123100000010000000000000BRBDLLACNPR8149
012013071002BEEF3       010MINERVA     ON      NM   R$  000000000091000000000009160000000000884000000000090400000000008990000000000898000000000090002712000000000000658400000000000595213500000000000000009999123100000010000000000000BRBEEFACNOR6104
012013071096BEEF3F      020MINERVA     ON      NM   R$  000000000087300000000008880000000000873000000000087800000000008880000000000900000000000090400002000000000000000080000000000000070290000000000000009999123100000010000000000000BRBEEFACNOR6104
012013071002BEES3       010BANESTES    ON  EJ       R$  000000000004900000000000490000000000047000000000004700000000000470000000000047000000000004800009000000000000010200000000000000480400000000000000009999123100000010000000000000BRBEESACNOR9241
012013071002BEMA3       010BEMATECH    ON      NM   R$  000000000067500000000006870000000000666000000000067900000000006760000000000676000000000068300354000000000000193100000000000131190100000000000000009999123100000010000000000000BRBEMAACNOR0113
012013071096BEMA3F      020BEMATECH    ON      NM   R$  000000000068200000000006820000000000682000000000068200000000006820000000000651000000000068200001000000000000000025000000000000017050000000000000009999123100000010000000000000BRBEMAACNOR0113
012013071002BGIP4       010BANESE      PN  EJ       R$  000000000483000000000048300000000004800000000000482000000000048000000000004750000000000483000003000000000000000300000000000001446000000000000000009999123100000010000000000000BRBGIPACNPR8178
012013071096BGIP4F      020BANESE      PN  EJ       R$  000000000489700000000048970000000004897000000000489700000000048970000000004805000000000489700001000000000000000032000000000000156704000000000000009999123100000010000000000000BRBGIPACNPR8178
012013071002BHGR3       010BHG         ON      NM   R$  000000000153400000000015430000000001431000000000144600000000014320000000001400000000000143200267000000000000342400000000000495414400000000000000009999123100000010000000000000BRBHGRACNOR9101
012013071096BHGR3F      020BHG         ON      NM   R$  000000000147000000000014700000000001450000000000146900000000014500000000001450000000000169000002000000000000000080000000000000117580000000000000009999123100000010000000000000BRBHGRACNOR9101
012013071002BICB4       010BICBANCO    PN      N1   R$  000000000040000000000004000000000000393000000000039800000000004000000000000397000000000040000226000000000000086600000000000034487000000000000000009999123100000010000000000000BRBICBACNPR7131
012013071096BICB4F      020BICBANCO    PN      N1   R$  000000000040000000000004000000000000390000000000039700000000003900000000000391000000000041700006000000000000000112000000000000044507000000000000009999123100000010000000000000BRBICBACNPR7131
012013071096BIOM3F      020BIOMM       ON           R$  000000000099500000000009950000000000995000000000099500000000009950000000000700000000000000000001000000000000000078000000000000077610000000000000009999123100000010000000000000BRBIOMACNOR2101
012013071002BISA3       010BROOKFIELD  ON      NM   R$  000000000015200000000001550000000000149000000000015100000000001520000000000151000000000015203600000000000007687800000000001161917600000000000000009999123100000010000000000000BRBISAACNOR8109
012013071096BISA3F      020BROOKFIELD  ON      NM   R$  000000000015400000000001590000000000145000000000015200000000001510000000000145000000000015100014000000000000000505000000000000077181000000000000009999123100000010000000000000BRBISAACNOR8109
012013071062BISA3T      030BROOKFIELD  ON      NM061R$  000000000015300000000001550000000000153000000000015400000000001550000000000000000000000000000004000000000000039300000000000006057585000000000000009999123100000010000000000000BRBISAACNOR8109
012013071062BISA3T      030BROOKFIELD  ON      NM090R$  000000000015200000000001530000000000152000000000015200000000001530000000000000000000000000000002000000000000832500000000000127247625000000000000009999123100000010000000000000BRBISAACNOR8109
012013071002BMEB4       010MERC BRASIL PN           R$  000000000110900000000011390000000001109000000000112900000000011380000000001100000000000113900026000000000000018300000000000020672500000000000000009999123100000010000000000000BRBMEBACNPR5190
012013071002BMKS3       010BIC MONARK  ON           R$  000000003272500000000327250000000032720000000003272200000000327200000000032721000000003499900002000000000000000002000000000000065445000000000000009999123100000010000000000000BRBMKSACNOR9155
012013071012BMLC11B     010FII BMBRC LCCI  ER  MB   R$  000000001150000000000118000000000011500000000001165700000000118000000000011501000000001180000023000000000000002100000000000024479850000000000000009999123100000010000000000000BRBMLCCTF004117
012013071002BOBR4       010BOMBRIL     PN           R$  000000000067600000000006760000000000651000000000067000000000006510000000000651000000000069900005000000000000001000000000000000670300000000000000009999123100000010000000000000BRBOBRACNPR3127
012013071014BOVA11      010ISHARES BOVACI           R$  000000000442100000000045110000000004421000000000446800000000044520000000004450000000000446502060000000000001330060000000005942998900000000000000009999123100000010000000000000BRBOVACTF003101
012013071096BOVA11F     020ISHARES BOVACI           R$  000000000440000000000045500000000004400000000000445400000000044540000000004304000000000448000014000000000000000032000000000000142539000000000000009999123100000010000000000000BRBOVACTF003101
012013071062BOVA11T     030ISHARES BOVACI        030R$  000000000446700000000044680000000004467000000000446700000000044680000000000000000000000000000002000000000000000300000000000001340187000000000000009999123100000010000000000000BRBOVACTF003101
012013071062BOVA11T     030ISHARES BOVACI        090R$  000000000457200000000045730000000004572000000000457200000000045730000000000000000000000000000002000000000000002000000000000009145403000000000000009999123100000010000000000000BRBOVACTF003101
012013071012BPFF11      010FII ABSOLUTOCI  ER       R$  000000000855100000000087860000000008505000000000856200000000086990000000008505000000000869900024000000000000003141000000000026895030000000000000009999123100000010000000000000BRBPFFCTF002103
012013071002BPHA3       010BR PHARMA   ON      NM   R$  000000000102500000000010260000000000950000000000099100000000010000000000001000000000000100304029000000000002424100000000002403738100000000000000009999123100000010000000000000BRBPHAACNOR6102
012013071096BPHA3F      020BR PHARMA   ON      NM   R$  000000000102000000000010250000000000953000000000098000000000009560000000000956000000000100800012000000000000000297000000000000291096000000000000009999123100000010000000000000BRBPHAACNOR6102
012013071002BPNM4       010PANAMERICANOPN      N1   R$  000000000052000000000005230000000000508000000000051600000000005200000000000515000000000052000545000000000000275400000000000142227400000000000000009999123100000010000000000000BRBPNMACNPR6111
012013071096BPNM4F      020PANAMERICANOPN      N1   R$  000000000051300000000005540000000000513000000000051900000000005200000000000510000000000051300004000000000000000200000000000000103833000000000000009999123100000010000000000000BRBPNMACNPR6111
012013071062BPNM4T      030PANAMERICANOPN      N1090R$  000000000052400000000005250000000000524000000000052400000000005250000000000000000000000000000002000000000000003000000000000001574536000000000000009999123100000010000000000000BRBPNMACNPR6111
012013071002BRAP3       010BRADESPAR   ON      N1   R$  000000000168900000000016980000000001626000000000164600000000016350000000001635000000000165000056000000000000029300000000000048253300000000000000009999123100000010000000000000BRBRAPACNOR5124
012013071096BRAP3F      020BRADESPAR   ON      N1   R$  000000000165000000000017390000000001650000000000165100000000017390000000001633000000000167100002000000000000000051000000000000084239000000000000009999123100000010000000000000BRBRAPACNOR5124
012013071002BRAP4       010BRADESPAR   PN      N1   R$  000000000204200000000020680000000002021000000000203900000000020250000000002024000000000202504594000000000001264900000000002579420200000000000000009999123100000010000000000000BRBRAPACNPR2124
012013071096BRAP4F      020BRADESPAR   PN      N1   R$  000000000204900000000020790000000002021000000000204300000000020260000000002021000000000202600029000000000000000910000000000001858652000000000000009999123100000010000000000000BRBRAPACNPR2124
012013071062BRAP4T      030BRADESPAR   PN      N1180R$  000000000212100000000021220000000002121000000000212100000000021220000000000000000000000000000002000000000000001300000000000002757529000000000000009999123100000010000000000000BRBRAPACNPR2124
012013071012BRCR11      010FII BC FUND CI  ER       R$  000000001370000000000137500000000013525000000001362700000000136450000000013620000000001364500285000000000000014930000000000203457336000000000000009999123100000010000000000000BRBRCRCTF000131
012013071002BRFS3       010BRF SA      ON  EJ  NM   R$  000000000472400000000048790000000004710000000000481500000000047680000000004768000000000478505593000000000001552200000000007474649500000000000000009999123100000010000000000000BRBRFSACNOR8110
012013071096BRFS3F      020BRF SA      ON  EJ  NM   R$  000000000480000000000048780000000004713000000000481300000000048100000000004784000000000484400081000000000000002176000000000010472283000000000000009999123100000010000000000000BRBRFSACNOR8110
012013071062BRFS3T      030BRF SA      ON  EJ  NM090R$  000000000495800000000049590000000004958000000000495800000000049590000000000000000000000000000002000000000000012300000000000060994969000000000000009999123100000010000000000000BRBRFSACNOR8110
012013071078BRFSH50     070BRFS    /EJ ON      NM000R$  000000000010000000000001000000000000100000000000010000000000001000000000000000000000000000000001000000000000001100000000000000110000000000000500002013081900000010000000000000BRBRFSACNOR8110
012013071002BRGE11      010ALFA CONSORCPNE          R$  000000000036000000000003600000000000359000000000035900000000003600000000000350000000000000000004000000000000001800000000000000647700000000000000009999123100000010000000000000BRBRGEACNPE1090
012013071002BRIN3       010BR INSURANCEON      NM   R$  000000000213700000000021550000000002090000000000210800000000021150000000002104000000000211501458000000000000552500000000001164706800000000000000009999123100000010000000000000BRBRINACNOR3105
012013071096BRIN3F      020BR INSURANCEON      NM   R$  000000000212500000000021940000000002095000000000211500000000021940000000002023000000000219400007000000000000000115000000000000243254000000000000009999123100000010000000000000BRBRINACNOR3105
012013071002BRIV3       010ALFA INVEST ON           R$  000000000064400000000006440000000000644000000000064400000000006440000000000644000000000000000013000000000000006500000000000004186000000000000000009999123100000010000000000000BRBRIVACNOR6196
012013071002BRIV4       010ALFA INVEST PN           R$  000000000061400000000006140000000000561000000000060700000000006090000000000571000000000060900009000000000000012800000000000007781400000000000000009999123100000010000000000000BRBRIVACNPR3196
012013071096BRIV4F      020ALFA INVEST PN           R$  000000000056100000000005610000000000561000000000056100000000005610000000000521000000000064100001000000000000000050000000000000028050000000000000009999123100000010000000000000BRBRIVACNPR3196
012013071002BRKM3       010BRASKEM     ON      N1   R$  000000000124100000000012410000000001164000000000116900000000011640000000001141000000000116400012000000000000006600000000000007719300000000000000009999123100000010000000000000BRBRKMACNOR1110
012013071002BRKM5       010BRASKEM     PNA     N1   R$  000000000157800000000016200000000001560000000000158300000000015780000000001575000000000157806220000000000001130600000000001790717500000000000000009999123100000010000000000000BRBRKMACNPA4110
012013071096BRKM5F      020BRASKEM     PNA     N1   R$  000000000155500000000016200000000001555000000000157800000000015650000000001561000000000158900044000000000000001234000000000001947940000000000000009999123100000010000000000000BRBRKMACNPA4110
012013071062BRKM5T      030BRASKEM     PNA     N1061R$  000000000158000000000015810000000001580000000000158000000000015810000000000000000000000000000002000000000000003000000000000004741537000000000000009999123100000010000000000000BRBRKMACNPA4110
012013071002BRML3       010BR MALLS PARON      NM   R$  000000000186100000000018820000000001847000000000186500000000018740000000001871000000000187410128000000000003526500000000006577899800000000000000009999123100000010000000000000BRBRMLACNOR9105
012013071096BRML3F      020BR MALLS PARON      NM   R$  000000000186000000000018760000000001847000000000186200000000018690000000001852000000000186900077000000000000002405000000000004478787000000000000009999123100000010000000000000BRBRMLACNOR9105
012013071078BRMLH20     070BRML        ON      NM000R$  000000000002000000000000200000000000020000000000002000000000000200000000000000000000000000000001000000000000003000000000000000060000000000000200002013081900000010000000000000BRBRMLACNOR9105
012013071002BRPR3       010BR PROPERT  ON      NM   R$  000000000184700000000018640000000001811000000000183600000000018300000000001828000000000183005928000000000002157100000000003961556000000000000000009999123100000010000000000000BRBRPRACNOR9112
012013071096BRPR3F      020BR PROPERT  ON      NM   R$  000000000184500000000019340000000001772000000000183500000000018150000000001814000000000191500044000000000000001255000000000002303250000000000000009999123100000010000000000000BRBRPRACNOR9112
012013071062BRPR3T      030BR PROPERT  ON      NM061R$  000000000186900000000018700000000001869000000000186900000000018700000000000000000000000000000002000000000000004000000000000007476300000000000000009999123100000010000000000000BRBRPRACNOR9112
012013071062BRPR3T      030BR PROPERT  ON      NM180R$  000000000191400000000019150000000001914000000000191400000000019150000000000000000000000000000002000000000000000400000000000000765754000000000000009999123100000010000000000000BRBRPRACNOR9112
012013071002BRSR6       010BANRISUL    PNB     N1   R$  000000000138400000000013890000000001358000000000137300000000013620000000001362000000000137203189000000000001081800000000001485742500000000000000009999123100000010000000000000BRBRSRACNPB4133
012013071096BRSR6F      020BANRISUL    PNB     N1   R$  000000000137000000000014200000000001334000000000137700000000013600000000001345000000000144600038000000000000001215000000000001671991000000000000009999123100000010000000000000BRBRSRACNPB4133
012013071002BSEV3       010BIOSEV      ON      NM   R$  000000000127300000000012730000000001247000000000125700000000012600000000001257000000000126000015000000000000012800000000000016101100000000000000009999123100000010000000000000BRBSEVACNOR3100
012013071002BTOW3       010B2W DIGITAL ON      NM   R$  000000000085200000000008920000000000852000000000087100000000008840000000000880000000000088401531000000000000773800000000000674508700000000000000009999123100000010000000000000BRBTOWACNOR8105
012013071096BTOW3F      020B2W DIGITAL ON      NM   R$  000000000089900000000008990000000000788000000000085800000000008560000000000799000000000090000025000000000000000729000000000000626091000000000000009999123100000010000000000000BRBTOWACNOR8105
012013071002BTTL3       010BATTISTELLA ON           R$  000000000007000000000000780000000000070000000000007500000000000780000000000070000000000007800004000000000000000400000000000000030000000000000000009999123100000010000000000000BRBTTLACNOR0105
012013071002BTTL4       010BATTISTELLA PN           R$  000000000009400000000000960000000000093000000000009300000000000960000000000093000000000009700007000000000000007400000000000000695200000000000000009999123100000010000000000000BRBTTLACNPR7105
012013071002BVMF3       010BMFBOVESPA  ON      NM   R$  000000000122800000000012510000000001218000000000123800000000012510000000001251000000000125216364000000000008082700000000010010677700000000000000009999123100000010000000000000BRBVMFACNOR3125
012013071096BVMF3F      020BMFBOVESPA  ON      NM   R$  000000000122700000000012480000000001213000000000123400000000012260000000001223000000000124200071000000000000002324000000000002869616000000000000009999123100000010000000000000BRBVMFACNOR3125
012013071062BVMF3T      030BMFBOVESPA  ON      NM030R$  000000000124500000000012460000000001230000000000123800000000012310000000000000000000000000000004000000000000001700000000000002104700000000000000009999123100000010000000000000BRBVMFACNOR3125
012013071062BVMF3T      030BMFBOVESPA  ON      NM061R$  000000000125200000000012530000000001252000000000125200000000012530000000000000000000000000000002000000000000000300000000000000375798000000000000009999123100000010000000000000BRBVMFACNOR3125
012013071062BVMF3T      030BMFBOVESPA  ON      NM120R$  000000000127700000000012780000000001277000000000127700000000012780000000000000000000000000000002000000000000003000000000000003832857000000000000009999123100000010000000000000BRBVMFACNOR3125
012013071078BVMFG11     070BVMF        ON      NM000R$  000000000012900000000001290000000000124000000000012600000000001240000000000111000000000000000002000000000000000200000000000000025300000000000110002013071500000010000000000000BRBVMFACNOR3125
012013071038BVMFG11E    012BVMF        ON      NM000R$  000000000110000000000011000000000001100000000000110000000000011000000000000000000000000000000002000000000000000500000000000000550000000000000110002013071500000010000000000000BRBVMFACNOR3125
012013071078BVMFG12     070BVMF        ON      NM000R$  000000000005300000000000670000000000045000000000005400000000000600000000000040000000000006600013000000000000029300000000000001603300000000000118902013071500000010000000000000BRBVMFACNOR3124
012013071078BVMFG13     070BVMF        ON      NM000R$  000000000001200000000000140000000000004000000000000700000000000080000000000008000000000000900198000000000000364900000000000002877900000000000126902013071500000010000000000000BRBVMFACNOR3123
012013071078BVMFG14     070BVMF        ON      NM000R$  000000000000100000000000010000000000001000000000000100000000000010000000000000000000000000100004000000000000001800000000000000001800000000000136902013071500000010000000000000BRBVMFACNOR3123
012013071078BVMFG42     070BVMF        ON      NM000R$  000000000003000000000000340000000000030000000000003000000000000300000000000000000000000000000018000000000000029400000000000000906000000000000121902013071500000010000000000000BRBVMFACNOR3123
012013071078BVMFG43     070BVMF        ON      NM000R$  000000000000100000000000010000000000001000000000000100000000000010000000000000000000000000200003000000000000005400000000000000005400000000000133902013071500000010000000000000BRBVMFACNOR3124
012013071078BVMFH11     070BVMF        ON      NM000R$  000000000014600000000001480000000000146000000000014700000000001480000000000123000000000000000002000000000000000200000000000000029400000000000110002013081900000010000000000000BRBVMFACNOR3125
012013071078BVMFH12     070BVMF  FM    ON      NM000R$  000000000007700000000000850000000000070000000000007800000000000700000000000020000000000019700047000000000000068100000000000005316100000000000120002013081900000010000000000000BRBVMFACNOR3125
012013071078BVMFH13     070BVMF  FM    ON      NM000R$  000000000003000000000000340000000000026000000000003100000000000300000000000026000000000003100404000000000000478700000000000015176500000000000128902013081900000010000000000000BRBVMFACNOR3124
012013071078BVMFH14     070BVMF  FM    ON      NM000R$  000000000000800000000000080000000000008000000000000800000000000080000000000005000000000000800011000000000000034100000000000000272800000000000138902013081900000010000000000000BRBVMFACNOR3124
012013071078BVMFH15     070BVMF        ON      NM000R$  000000000000500000000000060000000000004000000000000500000000000040000000000003000000000000400183000000000000150100000000000000769600000000000150002013081900000010000000000000BRBVMFACNOR3125
012013071078BVMFH40     070BVMF        ON      NM000R$  000000000020200000000002020000000000202000000000020200000000002020000000000000000000000000000001000000000000002300000000000000464600000000000105002013081900000010000000000000BRBVMFACNOR3125
012013071078BVMFH41     070BVMF        ON      NM000R$  000000000010600000000001060000000000106000000000010600000000001060000000000000000000000000000001000000000000006000000000000000636000000000000115002013081900000010000000000000BRBVMFACNOR3125
012013071078BVMFH42     070BVMF  FM    ON      NM000R$  000000000004400000000000530000000000044000000000004900000000000490000000000000000000000000000013000000000000041200000000000002053300000000000125002013081900000010000000000000BRBVMFACNOR3125
012013071078BVMFH43     070BVMF  FM    ON      NM000R$  000000000001400000000000140000000000012000000000001300000000000120000000000005000000000135000007000000000000018600000000000000256800000000000135002013081900000010000000000000BRBVMFACNOR3125
012013071078BVMFH44     070BVMF        ON      NM000R$  000000000000600000000000060000000000006000000000000600000000000060000000000000000000000143900007000000000000022500000000000000135000000000000143902013081900000010000000000000BRBVMFACNOR3124
012013071078BVMFH61     070BVMFE       ON      NM000R$  000000000008900000000000890000000000087000000000008800000000000870000000000000000000000000000002000000000000011500000000000001012500000000000117502013081900000010000000000000BRBVMFACNOR3125
012013071078BVMFH62     070BVMFE       ON      NM000R$  000000000006400000000000640000000000064000000000006400000000000640000000000000000000000000000001000000000000006000000000000000384000000000000122502013081900000010000000000000BRBVMFACNOR3125
012013071078BVMFI12     070BVMF  FM    ON      NM000R$  000000000009200000000001020000000000088000000000009600000000000880000000000000000000000000000019000000000000029400000000000002847600000000000120002013091600000010000000000000BRBVMFACNOR3125
012013071078BVMFI13     070BVMF  FM    ON      NM000R$  000000000004100000000000470000000000040000000000004200000000000410000000000024000000000000000030000000000000103500000000000004381100000000000130002013091600000010000000000000BRBVMFACNOR3125
012013071078BVMFI15     070BVMF        ON      NM000R$  000000000000600000000000060000000000006000000000000600000000000060000000000000000000000010000002000000000000005000000000000000030000000000000150002013091600000010000000000000BRBVMFACNOR3125
012013071078BVMFI42     070BVMF  FM    ON      NM000R$  000000000006300000000000700000000000063000000000006700000000000690000000000000000000000000000008000000000000028700000000000001948400000000000125002013091600000010000000000000BRBVMFACNOR3125
012013071078BVMFI43     070BVMF  FM    ON      NM000R$  000000000002600000000000260000000000023000000000002300000000000230000000000000000000000002700010000000000000027400000000000000650600000000000135002013091600000010000000000000BRBVMFACNOR3125
012013071078BVMFL14     070BVMF        ON      NM000R$  000000000005100000000000510000000000051000000000005100000000000510000000000000000000000000000002000000000000003600000000000000183600000000000138902013121600000010000000000000BRBVMFACNOR3124
012013071082BVMFS12     080BVMFE       ON      NM000R$  000000000000800000000000100000000000007000000000000900000000000100000000000000000000000001300019000000000000086900000000000000817400000000000118902013071500000010000000000000BRBVMFACNOR3124
012013071082BVMFS13     080BVMFE       ON      NM000R$  000000000003700000000000540000000000032000000000003500000000000540000000000030000000000000000047000000000000070100000000000002482600000000000126902013071500000010000000000000BRBVMFACNOR3123
012013071082BVMFS14     080BVMFE       ON      NM000R$  000000000012400000000001390000000000124000000000013400000000001390000000000100000000000000000006000000000000007300000000000000982200000000000136902013071500000010000000000000BRBVMFACNOR3123
012013071082BVMFS41     080BVMFE       ON      NM000R$  000000000000600000000000060000000000006000000000000600000000000060000000000000000000000000000002000000000000020900000000000000125400000000000115002013071500000010000000000000BRBVMFACNOR3125
012013071082BVMFS42     080BVMFE       ON      NM000R$  000000000001600000000000160000000000015000000000001500000000000150000000000000000000000000000005000000000000004700000000000000072400000000000121902013071500000010000000000000BRBVMFACNOR3123
012013071082BVMFS49     080BVMFE       ON      NM000R$  000000000017000000000001700000000000170000000000017000000000001700000000000000000000000000000001000000000000005000000000000000850000000000000140002013071500000010000000000000BRBVMFACNOR3125
012013071082BVMFT10     080BVMFE       ON      NM000R$  000000000000400000000000040000000000004000000000000400000000000040000000000000000000000010000001000000000000000300000000000000001200000000000100002013081900000010000000000000BRBVMFACNOR3125
012013071082BVMFT11     080BVMFE       ON      NM000R$  000000000001400000000000140000000000014000000000001400000000000140000000000000000000000001600001000000000000000200000000000000002800000000000110002013081900000010000000000000BRBVMFACNOR3125
012013071082BVMFT12     080BVMFE FM    ON      NM000R$  000000000003200000000000390000000000028000000000003300000000000390000000000032000000000004000066000000000000251000000000000008481900000000000120002013081900000010000000000000BRBVMFACNOR3125
012013071082BVMFT13     080BVMFE FM    ON      NM000R$  000000000007100000000000840000000000064000000000007000000000000840000000000054000000000000000013000000000000039100000000000002753900000000000128902013081900000010000000000000BRBVMFACNOR3124
012013071082BVMFT14     080BVMFE       ON      NM000R$  000000000014100000000001410000000000141000000000014100000000001410000000000000000000000000000001000000000000000300000000000000042300000000000138902013081900000010000000000000BRBVMFACNOR3124
012013071082BVMFT41     080BVMFE FM    ON      NM000R$  000000000002100000000000210000000000021000000000002100000000000210000000000000000000000000000007000000000000021500000000000000451500000000000115002013081900000010000000000000BRBVMFACNOR3125
012013071082BVMFT42     080BVMFE FM    ON      NM000R$  000000000004500000000000610000000000045000000000005400000000000610000000000000000000000000000006000000000000023500000000000001279500000000000125002013081900000010000000000000BRBVMFACNOR3125
012013071082BVMFT43     080BVMFE       ON      NM000R$  000000000011900000000001190000000000119000000000011900000000001190000000000000000000000000000001000000000000005500000000000000654500000000000135002013081900000010000000000000BRBVMFACNOR3125
012013071082BVMFT62     080BVMFE       ON      NM000R$  000000000004900000000000490000000000049000000000004900000000000490000000000000000000000000000001000000000000004600000000000000225400000000000122502013081900000010000000000000BRBVMFACNOR3125
012013071082BVMFT9      080BVMFE       ON      NM000R$  000000000000200000000000020000000000002000000000000200000000000020000000000000000000000000000001000000000000001000000000000000002000000000000090002013081900000010000000000000BRBVMFACNOR3125
012013071082BVMFU11     080BVMFE       ON      NM000R$  000000000001700000000000210000000000017000000000001700000000000210000000000000000000000000000003000000000000003700000000000000063300000000000110002013091600000010000000000000BRBVMFACNOR3125
012013071082BVMFU12     080BVMFE FM    ON      NM000R$  000000000004000000000000440000000000038000000000004100000000000440000000000038000000000005000025000000000000029000000000000001192300000000000120002013091600000010000000000000BRBVMFACNOR3125
012013071082BVMFU41     080BVMFE FM    ON      NM000R$  000000000003200000000000330000000000026000000000003000000000000330000000000000000000000000000004000000000000015300000000000000471300000000000115002013091600000010000000000000BRBVMFACNOR3125
012013071082BVMFU42     080BVMFE FM    ON      NM000R$  000000000005800000000000700000000000058000000000006000000000000700000000000000000000000000000009000000000000033000000000000002008000000000000125002013091600000010000000000000BRBVMFACNOR3125
012013071082BVMFX2      080BVMFE       ON      NM000R$  000000000006000000000000600000000000060000000000006000000000000600000000000071000000000006200001000000000000000200000000000000012000000000000118902013121600000010000000000000BRBVMFACNOR3124
012013071002CAMB4       010CAMBUCI     PN           R$  000000000020000000000002000000000000200000000000020000000000002000000000000183000000000020000002000000000000011100000000000002220000000000000000009999123100000010000000000000BRCAMBACNPR1117
012013071002CARD3       010CSU CARDSYSTON      NM   R$  000000000028900000000002890000000000289000000000028900000000002890000000000275000000000029000012000000000000023800000000000006878200000000000000009999123100000010000000000000BRCARDACNOR9105
012013071002CBMA4       010COBRASMA    PN           R$  000000000000300000000000030000000000003000000000000300000000000030000000000003000000000000400001000000000000010000000000000000030000000000000000009999123100000010000000000000BRCBMAACNPR1124
012013071008CCHI3       010CHIARELLI   ON           R$  000000000003200000000000340000000000026000000000002900000000000270000000000026000000000002700080000000000001210000000000000035320000000000000000009999123100000010000000000000BRCCHIACNOR5123
012013071096CCHI3F      020CHIARELLI   ON           R$  000000000003100000000000310000000000025000000000002800000000000250000000000025000000000002800017000000000000024977000000000000707577000000000000009999123100000010000000000000BRCCHIACNOR5123
012013071008CCHI4       010CHIARELLI   PN           R$  000000000002100000000000210000000000020000000000002000000000000200000000000015000000000002300002000000000000030000000000000000610000000000000000009999123100000010000000000000BRCCHIACNPR2122
012013071096CCHI4F      020CHIARELLI   PN           R$  000000000002100000000000210000000000017000000000001900000000000170000000000017000000000001900003000000000000010000000000000000198568000000000000009999123100000010000000000000BRCCHIACNPR2122
012013071002CCPR3       010CYRE COM-CCPON      NM   R$  000000000209300000000021060000000002000000000000208600000000020000000000002000000000000210000018000000000000002300000000000004799000000000000000009999123100000010000000000000BRCCPRACNOR9107
012013071002CCRO3       010CCR SA      ON      NM   R$  000000000170600000000017340000000001669000000000169100000000016850000000001678000000000168511118000000000003918400000000006628798100000000000000009999123100000010000000000000BRCCROACNOR2122
012013071096CCRO3F      020CCR SA      ON      NM   R$  000000000172500000000017490000000001670000000000169100000000016950000000001665000000000169500059000000000000001753000000000002964349000000000000009999123100000010000000000000BRCCROACNOR2122
012013071078CCROH18     070CCRO        ON      NM000R$  000000000002700000000000270000000000017000000000001900000000000170000000000000000000000000000002000000000000011100000000000000213700000000000180002013081900000010000000000000BRCCROACNOR2122
012013071002CCXC3       010CCX CARVAO  ON      NM   R$  000000000007700000000000790000000000073000000000007700000000000780000000000078000000000007900379000000000001601200000000000123523400000000000000009999123100000010000000000000BRCCXCACNOR5100
012013071096CCXC3F      020CCX CARVAO  ON      NM   R$  000000000007800000000000780000000000071000000000007700000000000750000000000076000000000007800003000000000000000115000000000000008918000000000000009999123100000010000000000000BRCCXCACNOR5100
012013071002CEDO4       010CEDRO       PN      N1   R$  000000000084800000000009200000000000848000000000087700000000009200000000000700000000000093000007000000000000001700000000000001491700000000000000009999123100000010000000000000BRCEDOACNPR5126
012013071008CELP3       010CELPA       ON           R$  000000000005900000000000590000000000059000000000005900000000000590000000000056000000000005900004000000000000006900000000000000407100000000000000009999123100000010000000000000BRCELPACNOR8112
012013071096CELP3F      020CELPA       ON           R$  000000000007000000000000700000000000070000000000007000000000000700000000000035000000000000000001000000000000000001000000000000000070000000000000009999123100000010000000000000BRCELPACNOR8112
012013071008CELP5       010CELPA       PNA          R$  000000000007700000000000770000000000077000000000007700000000000770000000000066000000000007800001000000000000000100000000000000007700000000000000009999123100000010000000000000BRCELPACNPA1114
012013071012CEOC11B     010FII CEO CCP CI  ER  MB   R$  000000000889900000000088990000000008739000000000884300000000087390000000008739000000000889700032000000000000001336000000000011814600000000000000009999123100000010000000000000BRCEOCCTF003108
012013071002CEPE5       010CELPE       PNA          R$  000000000185000000000018500000000001850000000000185000000000018500000000001740000000000185000001000000000000000100000000000000185000000000000000009999123100000010000000000000BRCEPEACNPA6151
012013071002CESP3       010CESP        ON      N1   R$  000000000160500000000016230000000001561000000000160700000000016190000000001563000000000162000007000000000000000900000000000001446800000000000000009999123100000010000000000000BRCESPACNOR3159
012013071002CESP6       010CESP        PNB     N1   R$  000000000188800000000019490000000001883000000000190900000000019100000000001901000000000191003263000000000001087300000000002075994900000000000000009999123100000010000000000000BRCESPACNPB4118
012013071096CESP6F      020CESP        PNB     N1   R$  000000000191900000000019380000000001871000000000190000000000019380000000001871000000000193800017000000000000000492000000000000934934000000000000009999123100000010000000000000BRCESPACNPB4118
012013071082CESPU50     080CESPE       PNB     N1000R$  000000000016300000000001630000000000163000000000016300000000001630000000000000000000000000000001000000000000945000000000000154035000000000000205002013091600000010000000000000BRCESPACNPB4118
012013071082CESPU51     080CESPE       PNB     N1000R$  000000000022800000000002280000000000228000000000022800000000002280000000000000000000000000000001000000000000945000000000000215460000000000000215002013091600000010000000000000BRCESPACNPB4118
012013071002CGAS3       010COMGAS      ON           R$  000000000454000000000045400000000004540000000000454000000000045400000000004500000000000474500001000000000000000100000000000000454000000000000000009999123100000010000000000000BRCGASACNOR0132
012013071096CGAS3F      020COMGAS      ON           R$  000000000496800000000049680000000004968000000000496800000000049680000000004055000000000649900001000000000000000002000000000000009936000000000000009999123100000010000000000000BRCGASACNOR0132
012013071002CGAS5       010COMGAS      PNA          R$  000000000484700000000049940000000004847000000000491000000000049340000000004934000000000497500044000000000000008300000000000040755000000000000000009999123100000010000000000000BRCGASACNPA3129
012013071096CGAS5F      020COMGAS      PNA          R$  000000000493000000000049490000000004910000000000491900000000049490000000004935000000000528000007000000000000000114000000000000560777000000000000009999123100000010000000000000BRCGASACNPA3129
012013071002CGRA3       010GRAZZIOTIN  ON           R$  000000000158000000000016300000000001552000000000161500000000015520000000001513000000000155200016000000000000144600000000000233613500000000000000009999123100000010000000000000BRCGRAACNOR2061
012013071002CGRA4       010GRAZZIOTIN  PN           R$  000000000158500000000016340000000001556000000000161500000000015560000000001556000000000164000058000000000000156300000000000252563200000000000000009999123100000010000000000000BRCGRAACNPR9061
012013071002CIEL3       010CIELO       ON      NM   R$  000000000557100000000055900000000005525000000000555100000000055650000000005564000000000556504580000000000002125100000000011797465100000000000000009999123100000010000000000000BRCIELACNOR3111
012013071096CIEL3F      020CIELO       ON      NM   R$  000000000559500000000055990000000005521000000000554600000000055220000000005536000000000553900092000000000000002049000000000011365081000000000000009999123100000010000000000000BRCIELACNOR3111
012013071002CLSC4       010CELESC      PN      N2   R$  000000000194500000000019600000000001905000000000193100000000019050000000001905000000000193000099000000000000016000000000000030900000000000000000009999123100000010000000000000BRCLSCACNPR3107
012013071002CMIG3       010CEMIG       ON      N1   R$  000000000204800000000020920000000001981000000000205800000000019810000000001981000000000200000454000000000000123200000000000253604600000000000000009999123100000010000000000000BRCMIGACNOR6208
012013071096CMIG3F      020CEMIG       ON      N1   R$  000000000209000000000021000000000001967000000000207500000000020450000000002040000000000209000044000000000000001048000000000002175421000000000000009999123100000010000000000000BRCMIGACNOR6208
012013071062CMIG3T      030CEMIG       ON      N1061R$  000000000209300000000020940000000002093000000000209300000000020940000000000000000000000000000002000000000000001600000000000003349926000000000000009999123100000010000000000000BRCMIGACNOR6208
012013071062CMIG3T      030CEMIG       ON      N1090R$  000000000211400000000021150000000002114000000000211400000000021150000000000000000000000000000004000000000000000140000000000000295974000000000000009999123100000010000000000000BRCMIGACNOR6208
012013071002CMIG4       010CEMIG       PN      N1   R$  000000000202000000000020600000000001962000000000202400000000020250000000002024000000000202510158000000000003784900000000007661035100000000000000009999123100000010000000000000BRCMIGACNPR3208
012013071096CMIG4F      020CEMIG       PN      N1   R$  000000000204300000000020610000000001962000000000201700000000020100000000002010000000000203900159000000000000004430000000000008937155000000000000009999123100000010000000000000BRCMIGACNPR3208
012013071062CMIG4T      030CEMIG       PN      N1016R$  000000000199400000000020110000000001994000000000200000000000020110000000000000000000000000000004000000000000001500000000000003000129000000000000009999123100000010000000000000BRCMIGACNPR3208
012013071062CMIG4T      030CEMIG       PN      N1030R$  000000000200200000000020030000000002002000000000200200000000020030000000000000000000000000000002000000000000001000000000000002002127000000000000009999123100000010000000000000BRCMIGACNPR3208
012013071062CMIG4T      030CEMIG       PN      N1061R$  000000000202200000000020830000000002022000000000205800000000020700000000000000000000000000000010000000000000004528000000000009318708000000000000009999123100000010000000000000BRCMIGACNPR3208
012013071062CMIG4T      030CEMIG       PN      N1090R$  000000000208900000000020900000000002059000000000208800000000020590000000000000000000000000000003000000000000000121000000000000252656000000000000009999123100000010000000000000BRCMIGACNPR3208
012013071062CMIG4T      030CEMIG       PN      N1113R$  000000000207100000000020720000000002071000000000207100000000020720000000000000000000000000000002000000000000045000000000000093197894000000000000009999123100000010000000000000BRCMIGACNPR3208
012013071078CMIGH20     070CMIG        PN      N1000R$  000000000009000000000000900000000000090000000000009000000000000900000000000000000000000000000001000000000000000400000000000000036000000000000200002013081900000010000000000000BRCMIGACNPR3208
012013071078CMIGL21     070CMIG        PN      N1000R$  000000000016000000000001600000000000160000000000016000000000001600000000000000000000000000000001000000000000017300000000000002768000000000000210002013121600000010000000000000BRCMIGACNPR3208
012013071012CNES11B     010FII CENESP  CI      MB   R$  000000001230000000000123000000000012200000000001223100000000122000000000012000000000001227000018000000000000000901000000000011020835000000000000009999123100000010000000000000BRCNESCTF001123
012013071002COCA11B     010COCA COLA   DRN     MB   R$  000000000932000000000093200000000009208000000000923000000000092080000000009149000000000951500002000000000000000500000000000004615200000000000000009999123100000010000000000000BRCOCABDR002108
012013071002COCE3       010COELCE      ON           R$  000000000390000000000039500000000003900000000000390500000000039000000000003900000000000394900007000000000000001000000000000003905000000000000000009999123100000010000000000000BRCOCEACNOR0132
012013071002COCE5       010COELCE      PNA          R$  000000000378700000000038090000000003700000000000374700000000037000000000003700000000000371000290000000000000150000000000000562066500000000000000009999123100000010000000000000BRCOCEACNPA3133
012013071096COCE5F      020COELCE      PNA          R$  000000000373000000000038100000000003729000000000376800000000037550000000003730000000000375500020000000000000000422000000000001590147000000000000009999123100000010000000000000BRCOCEACNPA3133
012013071002CPFE3       010CPFL ENERGIAON      NM   R$  000000000202500000000020650000000002004000000000204600000000020650000000002056000000000206503455000000000000876200000000001793587000000000000000009999123100000010000000000000BRCPFEACNOR0121
012013071096CPFE3F      020CPFL ENERGIAON      NM   R$  000000000205900000000021800000000002001000000000204800000000021800000000002030000000000218000037000000000000000829000000000001697898000000000000009999123100000010000000000000BRCPFEACNOR0121
012013071002CPLE3       010COPEL       ON      N1   R$  000000000236000000000023900000000002281000000000232100000000022810000000002281000000000230000116000000000000070100000000000162704900000000000000009999123100000010000000000000BRCPLEACNOR8128
012013071096CPLE3F      020COPEL       ON      N1   R$  000000000236100000000023610000000002361000000000236100000000023610000000002310000000000236000002000000000000000011000000000000025971000000000000009999123100000010000000000000BRCPLEACNOR8128
012013071002CPLE6       010COPEL       PNB     N1   R$  000000000292000000000030120000000002920000000000295700000000029800000000002976000000000298003560000000000001287300000000003807551700000000000000009999123100000010000000000000BRCPLEACNPB9125
012013071096CPLE6F      020COPEL       PNB     N1   R$  000000000285400000000029890000000002800000000000294100000000029750000000002955000000000297500032000000000000000778000000000002291008000000000000009999123100000010000000000000BRCPLEACNPB9125
012013071062CPLE6T      030COPEL       PNB     N1090R$  000000000301000000000030110000000003010000000000301000000000030110000000000000000000000000000002000000000000002000000000000006020843000000000000009999123100000010000000000000BRCPLEACNPB9125
012013071002CRDE3       010CR2         ON      NM   R$  000000000039600000000004000000000000396000000000039900000000004000000000000400000000000040500007000000000000003600000000000001439200000000000000009999123100000010000000000000BRCRDEACNOR1108
012013071002CREM3       010CREMER      ON      NM   R$  000000000140000000000014010000000001375000000000139900000000013760000000001375000000000141000026000000000000914400000000001279737000000000000000009999123100000010000000000000BRCREMACNOR2166
012013071096CREM3F      020CREMER      ON      NM   R$  000000000143800000000014380000000001438000000000143800000000014380000000001276000000000164700001000000000000000006000000000000008628000000000000009999123100000010000000000000BRCREMACNOR2166
012013071002CRIV3       010ALFA FINANC ON           R$  000000000058000000000005800000000000580000000000058000000000005800000000000461000000000057500001000000000000002200000000000001276000000000000000009999123100000010000000000000BRCRIVACNOR4189
012013071096CRIV3F      020ALFA FINANC ON           R$  000000000050000000000005000000000000500000000000050000000000005000000000000400000000000059400001000000000000000075000000000000037500000000000000009999123100000010000000000000BRCRIVACNOR4189
012013071002CRIV4       010ALFA FINANC PN           R$  000000000049100000000004910000000000491000000000049100000000004910000000000475000000000049000001000000000000005800000000000002847800000000000000009999123100000010000000000000BRCRIVACNPR1189
012013071002CRUZ3       010SOUZA CRUZ  ON           R$  000000000272100000000027850000000002710000000000274500000000027490000000002745000000000274904852000000000001037700000000002848804300000000000000009999123100000010000000000000BRCRUZACNOR0246
012013071096CRUZ3F      020SOUZA CRUZ  ON           R$  000000000275100000000028360000000002716000000000275200000000027260000000002755000000000280900082000000000000002433000000000006696777000000000000009999123100000010000000000000BRCRUZACNOR0246
012013071002CSAB4       010SEG AL BAHIAPN           R$  000000000300000000000030000000000003000000000000300000000000030000000000003000000000000000000001000000000000000200000000000000600000000000000000009999123100000010000000000000BRCSABACNPR8051
012013071002CSAN3       010COSAN       ON      NM   R$  000000000424800000000043000000000004155000000000422200000000041750000000004175000000000417803623000000000000753000000000003179429600000000000000009999123100000010000000000000BRCSANACNOR6107
012013071096CSAN3F      020COSAN       ON      NM   R$  000000000420000000000043980000000004161000000000421500000000041630000000004160000000000430000069000000000000001702000000000007175172000000000000009999123100000010000000000000BRCSANACNOR6107
012013071062CSAN3T      030COSAN       ON      NM030R$  000000000426200000000042630000000004262000000000426200000000042630000000000000000000000000000004000000000000000600000000000002557289000000000000009999123100000010000000000000BRCSANACNOR6107
012013071002CSCO11B     010CISCO       DRN ED  MB   R$  000000000577100000000057710000000005771000000000577100000000057710000000005707000000000601000001000000000000001900000000000010964900000000000000009999123100000010000000000000BRCSCOBDR004110
012013071002CSMG3       010COPASA      ON      NM   R$  000000000332700000000034190000000003284000000000338600000000034000000000003400000000000340903252000000000000722400000000002446708400000000000000009999123100000010000000000000BRCSMGACNOR5127
012013071096CSMG3F      020COPASA      ON      NM   R$  000000000335000000000035110000000003230000000000336900000000033700000000003104000000000359900036000000000000000913000000000003076347000000000000009999123100000010000000000000BRCSMGACNOR5127
012013071014CSMO11      010ISHARES CSMOCI           R$  000000000449200000000044920000000004492000000000449200000000044920000000004400000000000454000001000000000000000010000000000000044920000000000000009999123100000010000000000000BRCSMOCTF002100
012013071002CSNA3       010SID NACIONALON           R$  000000000055900000000005600000000000546000000000055100000000005520000000000548000000000055206508000000000003113800000000001715847700000000000000009999123100000010000000000000BRCSNAACNOR6242
012013071096CSNA3F      020SID NACIONALON           R$  000000000056000000000005640000000000546000000000055000000000005470000000000547000000000055500065000000000000001646000000000000906117000000000000009999123100000010000000000000BRCSNAACNOR6242
012013071062CSNA3T      030SID NACIONALON        030R$  000000000055800000000005590000000000551000000000055400000000005520000000000000000000000000000006000000000000036200000000000020056569000000000000009999123100000010000000000000BRCSNAACNOR6242
012013071062CSNA3T      030SID NACIONALON        061R$  000000000056200000000005630000000000554000000000055800000000005570000000000000000000000000000008000000000000019500000000000010897324000000000000009999123100000010000000000000BRCSNAACNOR6242
012013071062CSNA3T      030SID NACIONALON        090R$  000000000056900000000005700000000000559000000000056000000000005600000000000000000000000000000006000000000000033400000000000018722317000000000000009999123100000010000000000000BRCSNAACNOR6242
012013071078CSNAG58     070CSNA        ON        000R$  000000000000600000000000060000000000005000000000000500000000000050000000000006000000000002200006000000000000028600000000000000171500000000000058002013071500000010000000000000BRCSNAACNOR6242
012013071078CSNAG6      070CSNA        ON        000R$  000000000000100000000000010000000000001000000000000100000000000010000000000001000000000000200001000000000000000500000000000000000500000000000060002013071500000010000000000000BRCSNAACNOR6242
012013071078CSNAH54     070CSNA  FM    ON        000R$  000000000003900000000000390000000000039000000000003900000000000390000000000000000000000005500003000000000000004400000000000000171600000000000054002013081900000010000000000000BRCSNAACNOR6242
012013071078CSNAH56     070CSNA  FM    ON        000R$  000000000003100000000000310000000000031000000000003100000000000310000000000000000000000000000001000000000000001000000000000000031000000000000056002013081900000010000000000000BRCSNAACNOR6242
012013071078CSNAH58     070CSNA  FM    ON        000R$  000000000001900000000000190000000000019000000000001900000000000190000000000000000000000000000001000000000000000100000000000000001900000000000058002013081900000010000000000000BRCSNAACNOR6242
012013071078CSNAH6      070CSNA  FM    ON        000R$  000000000001700000000000170000000000011000000000001200000000000140000000000010000000000001500010000000000000021900000000000000262800000000000060002013081900000010000000000000BRCSNAACNOR6242
012013071078CSNAH78     070CSNA        ON        000R$  000000000000100000000000010000000000001000000000000100000000000010000000000000000000000000000001000000000000008000000000000000008000000000000078002013081900000010000000000000BRCSNAACNOR6242
012013071078CSNAI54     070CSNA  FM    ON        000R$  000000000005500000000000550000000000054000000000005400000000000540000000000000000000000000000003000000000000009500000000000000515500000000000054002013091600000010000000000000BRCSNAACNOR6242
012013071078CSNAI56     070CSNA  FM    ON        000R$  000000000004400000000000440000000000043000000000004300000000000430000000000000000000000000000003000000000000009000000000000000389500000000000056002013091600000010000000000000BRCSNAACNOR6242
012013071078CSNAI58     070CSNA  FM    ON        000R$  000000000003500000000000350000000000033000000000003300000000000330000000000000000000000000000004000000000000012000000000000000403500000000000058002013091600000010000000000000BRCSNAACNOR6242
012013071078CSNAI6      070CSNA  FM    ON        000R$  000000000003000000000000300000000000027000000000002900000000000270000000000000000000000003600002000000000000009000000000000000267000000000000060002013091600000010000000000000BRCSNAACNOR6242
012013071082CSNAS54     080CSNAE       ON        000R$  000000000000700000000000080000000000007000000000000700000000000080000000000000000000000000000003000000000000003000000000000000023000000000000054002013071500000010000000000000BRCSNAACNOR6242
012013071082CSNAS66     080CSNAE       ON        000R$  000000000011200000000001120000000000112000000000011200000000001120000000000000000000000000000001000000000000001000000000000000112000000000000066002013071500000010000000000000BRCSNAACNOR6242
012013071082CSNAT52     080CSNAE FM    ON        000R$  000000000001900000000000190000000000018000000000001800000000000180000000000000000000000000000003000000000000006000000000000000112000000000000052002013081900000010000000000000BRCSNAACNOR6242
012013071082CSNAT54     080CSNAE FM    ON        000R$  000000000002300000000000260000000000023000000000002500000000000260000000000010000000000000000002000000000000003000000000000000075000000000000054002013081900000010000000000000BRCSNAACNOR6242
012013071082CSNAT56     080CSNAE FM    ON        000R$  000000000003200000000000360000000000032000000000003400000000000350000000000000000000000000000003000000000000005000000000000000170000000000000056002013081900000010000000000000BRCSNAACNOR6242
012013071082CSNAT58     080CSNAE FM    ON        000R$  000000000004700000000000470000000000047000000000004700000000000470000000000000000000000000000005000000000000009800000000000000460600000000000058002013081900000010000000000000BRCSNAACNOR6242
012013071082CSNAT6      080CSNAE       ON        000R$  000000000005700000000000570000000000057000000000005700000000000570000000000000000000000000000001000000000000002000000000000000114000000000000060002013081900000010000000000000BRCSNAACNOR6242
012013071082CSNAT66     080CSNAE       ON        000R$  000000000010400000000001040000000000104000000000010400000000001040000000000000000000000000000001000000000000001000000000000000104000000000000066002013081900000010000000000000BRCSNAACNOR6242
012013071082CSNAU5      080CSNAE       ON        000R$  000000000002100000000000210000000000021000000000002100000000000210000000000020000000000000000001000000000000002200000000000000046200000000000050002013091600000010000000000000BRCSNAACNOR6242
012013071082CSNAU54     080CSNAE FM    ON        000R$  000000000003400000000000340000000000034000000000003400000000000340000000000000000000000003400001000000000000002200000000000000074800000000000054002013091600000010000000000000BRCSNAACNOR6242
012013071002CTAX11      010CONTAX      UNT     N2   R$  000000000199800000000019980000000001800000000000183900000000018950000000001750000000000189500105000000000000082600000000000151909400000000000000009999123100000010000000000000BRCTAXCDAM19100
012013071002CTAX4       010CONTAX      PN      N2   R$  000000000034100000000003550000000000341000000000034300000000003430000000000343000000000034600334000000000000136200000000000046757300000000000000009999123100000010000000000000BRCTAXACNPR0114
012013071096CTAX4F      020CONTAX      PN      N2   R$  000000000035000000000003500000000000350000000000035000000000003500000000000350000000000039900001000000000000000026000000000000009100000000000000009999123100000010000000000000BRCTAXACNPR0114
012013071002CTIP3       010CETIP       ON      NM   R$  000000000214500000000021840000000002100000000000212800000000021400000000002136000000000214007989000000000001996400000000004248722900000000000000009999123100000010000000000000BRCTIPACNOR2119
012013071096CTIP3F      020CETIP       ON      NM   R$  000000000219800000000021980000000002091000000000211900000000021720000000002105000000000217200042000000000000000884000000000001873398000000000000009999123100000010000000000000BRCTIPACNOR2119
012013071002CTKA4       010KARSTEN     PN           R$  000000000011400000000001140000000000109000000000011300000000001090000000000100000000000011000002000000000000003000000000000000339500000000000000009999123100000010000000000000BRCTKAACNPR7041
012013071002CTNM4       010COTEMINAS   PN           R$  000000000024400000000002440000000000240000000000024100000000002400000000000240000000000024700023000000000000102700000000000024751800000000000000009999123100000010000000000000BRCTNMACNPR6128
012013071002CTSA3       010SANTANENSE  ON           R$  000000000059700000000005970000000000596000000000059600000000005960000000000340000000000058000002000000000000001300000000000000774900000000000000009999123100000010000000000000BRCTSAACNOR3051
012013071062CTSA3T      030SANTANENSE  ON        083R$  000000000060600000000006070000000000606000000000060600000000006070000000000000000000000000000002000000000000001200000000000000727716000000000000009999123100000010000000000000BRCTSAACNOR3051
