00COTAHIST.2013BOVESPA 20130912                                                                                                                                                                                                                      
012013091202AAPL34      010APPLE       DRN          R$  000000001081500000000108150000000010815000000001081500000000108150000000010675000000001081500001000000000000018000000000000194670000000000000000009999123100000010000000000000BRAAPLBDR004105
012013091202ABCB4       010ABC BRASIL  PN      N2   R$  000000000123300000000012620000000001226000000000124200000000012400000000001240000000000124800657000000000000351100000000000436310600000000000000009999123100000010000000000000BRABCBACNPR4120
012013091296ABCB4F      020ABC BRASIL  PN      N2   R$  000000000125000000000012700000000001230000000000124200000000012700000000001240000000000126000019000000000000000465000000000000577823000000000000009999123100000010000000000000BRABCBACNPR4120
012013091212ABCP11      010FII ABC IMOBCI           R$  000000000096700000000009680000000000950000000000096700000000009500000000000950000000000096800007000000000000005146000000000004979052000000000000009999123100000010000000000000BRABCPCTF000215
012013091202ABRE11      010ABRIL EDUCA UNT     N2   R$  000000000345100000000034510000000003408000000000343100000000034320000000003420000000000344500435000000000000085700000000000294104000000000000000009999123100000010000000000000BRABRECDAM15102
012013091202AEDU3       010ANHANGUERA  ON      NM   R$  000000000135000000000013590000000001329000000000134000000000013440000000001341000000000134408369000000000006515500000000008734062700000000000000009999123100000010000000000000BRAEDUACNOR9107
012013091296AEDU3F      020ANHANGUERA  ON      NM   R$  000000000134900000000013900000000001316000000000134000000000013160000000001300000000000136500040000000000000000742000000000000994785000000000000009999123100000010000000000000BRAEDUACNOR9107
012013091262AEDU3T      030ANHANGUERA  ON      NM060R$  000000000135500000000013560000000001355000000000135500000000013560000000000000000000000000000002000000000000050000000000000067771611000000000000009999123100000010000000000000BRAEDUACNOR9107
012013091278AEDUI13     070AEDU        ON      NM000R$  000000000004500000000000450000000000045000000000004500000000000450000000000000000000000000000001000000000000001500000000000000067500000000000130002013091600000010000000000000BRAEDUACNOR9107
012013091278AEDUJ43     070AEDU        ON      NM000R$  000000000004800000000000480000000000048000000000004800000000000480000000000000000000000000000001000000000000001500000000000000072000000000000135002013102100000010000000000000BRAEDUACNOR9107
012013091212AEFI11      010FII AESAPAR CI           R$  000000001183000000000118500000000011700000000001178200000000118500000000011730000000001187500044000000000000002055000000000024213593000000000000009999123100000010000000000000BRAEFICTF002121
012013091212AGCX11      010FII AG CAIXACI           R$  000000009800000000000985000000000097000000000009773700000000970000000000096820000000009750000008000000000000000196000000000019156548000000000000009999123100000010000000000000BRAGCXCTF003110
012013091202AGRO3       010BRASILAGRO  ON      NM   R$  000000000096000000000009650000000000960000000000096300000000009610000000000961000000000096200019000000000000021200000000000020418200000000000000009999123100000010000000000000BRAGROACNOR7102
012013091202ALLL3       010ALL AMER LATON      NM   R$  000000000092200000000009280000000000901000000000091200000000009090000000000908000000000090905824000000000003033100000000002767516900000000000000009999123100000010000000000000BRALLLACNOR6118
012013091296ALLL3F      020ALL AMER LATON      NM   R$  000000000091100000000009400000000000900000000000091200000000009000000000000900000000000092900050000000000000001431000000000001305553000000000000009999123100000010000000000000BRALLLACNOR6118
012013091278ALLLJ9      070ALLL        ON      NM000R$  000000000004700000000000470000000000047000000000004700000000000470000000000000000000000000000003000000000000120000000000000005640000000000000090002013102100000010000000000000BRALLLACNOR6118
012013091212ALMI11B     010FII TORRE ALCI      MB   R$  000000030712300000003071230000000306000000000030635000000003070000000000307000000000030950000010000000000000000071000000000021750911000000000000009999123100000010000000000000BRALMICTF003205
012013091202ALPA3       010ALPARGATAS  ON      N1   R$  000000000112400000000012300000000001124000000000122600000000012300000000001200000000000123000012000000000000055700000000000068343700000000000000009999123100000010000000000000BRALPAACNOR0203
012013091202ALPA4       010ALPARGATAS  PN      N1   R$  000000000132600000000013720000000001326000000000135100000000013550000000001355000000000135801220000000000000359400000000000485551300000000000000009999123100000010000000000000BRALPAACNPR7203
012013091296ALPA4F      020ALPARGATAS  PN      N1   R$  000000000133000000000013640000000001330000000000134800000000013640000000001340000000000139400026000000000000000704000000000000949011000000000000009999123100000010000000000000BRALPAACNPR7203
012013091262ALPA4S      030ALPARGATAS  PN      N1090R$  000000000136200000000013630000000001362000000000136200000000013630000000000000000000000000000002000000000000001000000000000001362053000000000000009999123100000010000000000000BRALPAACNPR7203
012013091278ALPAJ14     070ALPA        PN      N1000R$  000000000001200000000000170000000000012000000000001300000000000170000000000000000000000000000002000000000000029800000000000000396600000000000140002013102100000010000000000000BRALPAACNPR7203
012013091278ALPAJ53     070ALPAE       PN      N1000R$  000000000001900000000000190000000000019000000000001900000000000190000000000000000000000000000002000000000000026500000000000000503500000000000137502013102100000010000000000000BRALPAACNPR7203
012013091202ALSC3       010ALIANSCE    ON      NM   R$  000000000191400000000019410000000001901000000000192700000000019400000000001915000000000194002763000000000000396000000000000763288100000000000000009999123100000010000000000000BRALSCACNOR0104
012013091296ALSC3F      020ALIANSCE    ON      NM   R$  000000000192700000000019270000000001927000000000192700000000019270000000001826000000000196900001000000000000000063000000000000121401000000000000009999123100000010000000000000BRALSCACNOR0104
012013091202ALUP11      010ALUPAR      UNT     N2   R$  000000000174500000000017450000000001702000000000171900000000017250000000001714000000000173500545000000000000134600000000000231430900000000000000009999123100000010000000000000BRALUPCDAM15100
012013091296ALUP11F     020ALUPAR      UNT     N2   R$  000000000174600000000017490000000001716000000000172600000000017160000000001725000000000179900006000000000000000142000000000000245108000000000000009999123100000010000000000000BRALUPCDAM15100
012013091202AMAR3       010LOJAS MARISAON      NM   R$  000000000209800000000022150000000002098000000000215600000000021920000000002191000000000219204415000000000000712600000000001536696100000000000000009999123100000010000000000000BRAMARACNOR4109
012013091296AMAR3F      020LOJAS MARISAON      NM   R$  000000000215500000000021850000000002104000000000213700000000021850000000002106000000000230000009000000000000000293000000000000626425000000000000009999123100000010000000000000BRAMARACNOR4109
012013091262AMAR3T      030LOJAS MARISAON      NM032R$  000000000216800000000021690000000002168000000000216800000000021690000000000000000000000000000002000000000000002000000000000004336701000000000000009999123100000010000000000000BRAMARACNOR4109
012013091202AMBV3       010AMBEV       ON           R$  000000000850200000000085130000000008387000000000843200000000084450000000008427000000000844502072000000000000554000000000004671529800000000000000009999123100000010000000000000BRAMBVACNOR4153
012013091296AMBV3F      020AMBEV       ON           R$  000000000850000000000085000000000008338000000000843100000000084350000000008300000000000843000049000000000000001227000000000010347420000000000000009999123100000010000000000000BRAMBVACNOR4153
012013091202AMBV4       010AMBEV       PN           R$  000000000850900000000085090000000008380000000000842700000000084400000000008432000000000844008539000000000001683000000000014183765100000000000000009999123100000010000000000000BRAMBVACNPR1153
012013091296AMBV4F      020AMBEV       PN           R$  000000000848000000000084990000000008361000000000843200000000084050000000008405000000000843000162000000000000004168000000000035146440000000000000009999123100000010000000000000BRAMBVACNPR1153
012013091278AMBVA10     070AMBV        PN        000R$  000000000004500000000000450000000000045000000000004500000000000450000000000000000000000000000002000000000000005000000000000000225000000000001000002014012000000010000000000000BRAMBVACNPR1153
012013091278AMBVA90     070AMBV        PN        000R$  000000000032500000000003250000000000325000000000032500000000003250000000000000000000000000000001000000000000005000000000000001625000000000000900002014012000000010000000000000BRAMBVACNPR1153
012013091278AMBVB1      070AMBV        PN        000R$  000000000008000000000000800000000000080000000000008000000000000800000000000000000000000000000001000000000000005000000000000000400000000000001000002014021700000010000000000000BRAMBVACNPR1153
012013091278AMBVB90     070AMBV        PN        000R$  000000000041000000000004100000000000410000000000041000000000004100000000000000000000000000000001000000000000005000000000000002050000000000000900002014021700000010000000000000BRAMBVACNPR1153
012013091278AMBVI68     070AMBV        PN        000R$  000000000159400000000015950000000001594000000000159400000000015950000000000000000000000000000002000000000000004400000000000007015800000000000680002013091600000010000000000000BRAMBVACNPR1153
012013091278AMBVI84     070AMBV        PN        000R$  000000000011300000000001130000000000113000000000011300000000001130000000000020000000000000000001000000000000000200000000000000022600000000000840002013091600000010000000000000BRAMBVACNPR1153
012013091278AMBVI85     070AMBV        PN        000R$  000000000001800000000000650000000000018000000000005100000000000650000000000000000000000000000003000000000000009800000000000000505400000000000850002013091600000010000000000000BRAMBVACNPR1153
012013091278AMBVJ65     070AMBV        PN        000R$  000000000194900000000019490000000001949000000000194900000000019490000000000000000000000000000001000000000000004400000000000008575600000000000650002013102100000010000000000000BRAMBVACNPR1153
012013091278AMBVJ80     070AMBV        PN        000R$  000000000055600000000005560000000000556000000000055600000000005560000000000000000000000000000002000000000000006500000000000003614000000000000800002013102100000010000000000000BRAMBVACNPR1153
012013091278AMBVJ85     070AMBV        PN        000R$  000000000024400000000002440000000000244000000000024400000000002440000000000000000000000000000001000000000000000200000000000000048800000000000850002013102100000010000000000000BRAMBVACNPR1153
012013091278AMBVJ88     070AMBV        PN        000R$  000000000008200000000000820000000000082000000000008200000000000820000000000000000000000000000002000000000000000900000000000000073800000000000880002013102100000010000000000000BRAMBVACNPR1153
012013091278AMBVJ89     070AMBV        PN        000R$  000000000007000000000000700000000000061000000000006200000000000610000000000000000000000007000003000000000000001800000000000000112500000000000890002013102100000010000000000000BRAMBVACNPR1153
012013091278AMBVJ90     070AMBV        PN        000R$  000000000005300000000000530000000000035000000000004900000000000350000000000000000000000005000009000000000000007300000000000000364500000000000900002013102100000010000000000000BRAMBVACNPR1153
012013091278AMBVL88     070AMBV        PN        000R$  000000000022600000000002260000000000226000000000022600000000002260000000000000000000000000000004000000000000200000000000000045200000000000000880002013121600000010000000000000BRAMBVACNPR1153
012013091282AMBVX76     080AMBVE       PN        000R$  000000000005600000000000560000000000056000000000005600000000000560000000000000000000000000000003000000000000200000000000000011200000000000000760002013121600000010000000000000BRAMBVACNPR1153
012013091282AMBVX80     080AMBVE       PN        000R$  000000000008200000000000820000000000082000000000008200000000000820000000000000000000000000000005000000000000203000000000000016646000000000000800002013121600000010000000000000BRAMBVACNPR1153
012013091202AMZO34      010AMAZON      DRN          R$  000000006880500000000688050000000068805000000006880500000000688050000000067318000000007003800001000000000000000100000000000006880500000000000000009999123100000010000000000000BRAMZOBDR002100
012013091202ARTR3       010ARTERIS     ON      NM   R$  000000000196000000000019650000000001927000000000195000000000019500000000001945000000000195402260000000000000561500000000001095182400000000000000009999123100000010000000000000BRARTRACNOR3101
012013091296ARTR3F      020ARTERIS     ON      NM   R$  000000000194100000000019610000000001925000000000194700000000019590000000001946000000000195900062000000000000002462000000000004794885000000000000009999123100000010000000000000BRARTRACNOR3101
012013091262ARTR3T      030ARTERIS     ON      NM032R$  000000000196400000000019650000000001964000000000196400000000019650000000000000000000000000000002000000000000000900000000000001767636000000000000009999123100000010000000000000BRARTRACNOR3101
012013091202ARZZ3       010AREZZO CO   ON      NM   R$  000000000365800000000037860000000003658000000000371000000000037100000000003706000000000372200677000000000000131000000000000486123100000000000000009999123100000010000000000000BRARZZACNOR3109
012013091296ARZZ3F      020AREZZO CO   ON      NM   R$  000000000367700000000037140000000003677000000000367700000000037140000000003532000000000378000003000000000000000101000000000000371436000000000000009999123100000010000000000000BRARZZACNOR3109
012013091202ATTB34      010ATT INC     DRN          R$  000000000768000000000077000000000007680000000000769000000000077000000000007706000000000793700002000000000000000200000000000001538000000000000000009999123100000010000000000000BRATTBBDR007104
012013091202AUTM3       010AUTOMETAL   ON      NM   R$  000000000185900000000018620000000001841000000000185400000000018620000000001857000000000186200296000000000000067600000000000125373900000000000000009999123100000010000000000000BRAUTMACNOR8109
012013091202AZEV4       010AZEVEDO     PN           R$  000000000014000000000001400000000000140000000000014000000000001400000000000140000000000014900002000000000000001700000000000000238000000000000000009999123100000010000000000000BRAZEVACNPR7113
012013091202BAHI3       010BAHEMA      ON           R$  000000000049800000000005000000000000498000000000049900000000005000000000000475000000000049900002000000000000000200000000000000099800000000000000009999123100000010000000000000BRBAHIACNOR1066
012013091296BALM4F      020BAUMER      PN           R$  000000000900000000000090000000000009000000000000900000000000090000000000008400000000001020000001000000000000000010000000000000090000000000000000009999123100000010000000000000BRBALMACNPR2043
012013091202BAUH4       010EXCELSIOR   PN           R$  000000000090000000000009250000000000900000000000090700000000009250000000000900000000000092800003000000000000001400000000000001270000000000000000009999123100000010000000000000BRBAUHACNPR3108
012013091296BAUH4F      020EXCELSIOR   PN           R$  000000000090000000000009000000000000900000000000090000000000009000000000000866000000000098900001000000000000000003000000000000002700000000000000009999123100000010000000000000BRBAUHACNPR3108
012013091202BAZA3       010AMAZONIA    ON           R$  000000000003300000000000330000000000032000000000003200000000000320000000000031000000000003200026000000000000304000000000000009793000000000000000009999123100000010000000000000BRBAZAACNOR0163
012013091296BAZA3F      020AMAZONIA    ON           R$  000000000003200000000000320000000000032000000000003200000000000320000000000032000000000003400002000000000000000192000000000000006144000000000000009999123100000010000000000000BRBAZAACNOR0163
012013091202BBAS3       010BRASIL      ON  EJ  NM   R$  000000000244600000000024470000000002361000000000238400000000023780000000002376000000000237814297000000000006054300000000014435159800000000000000009999123100000010000000000000BRBBASACNOR3239
012013091296BBAS3F      020BRASIL      ON  EJ  NM   R$  000000000244500000000024450000000002360000000000238700000000023690000000002369000000000237400311000000000000008312000000000019840763000000000000009999123100000010000000000000BRBBASACNOR3239
012013091262BBAS3T      030BRASIL      ON  EJ  NM060R$  000000000241800000000024190000000002418000000000241800000000024190000000000000000000000000000002000000000000003000000000000007254454000000000000009999123100000010000000000000BRBBASACNOR3239
012013091262BBAS3T      030BRASIL      ON  EJ  NM090R$  000000000242900000000024300000000002418000000000242900000000024190000000000000000000000000000004000000000000002100000000000005101503000000000000009999123100000010000000000000BRBBASACNOR3239
012013091278BBASI21     070BBAS    /EJ ON      NM000R$  000000000039900000000003990000000000399000000000039900000000003990000000000100000000000000000001000000000000002000000000000000798000000000000199502013091600000010000000000000BRBBASACNOR3237
012013091278BBASI22     070BBAS    /EJ ON      NM000R$  000000000033300000000003330000000000297000000000031000000000002970000000000061000000000000000161000000000000028300000000000008776200000000000207102013091600000010000000000000BRBBASACNOR3236
012013091238BBASI22E    012BBAS    /EJ ON      NM000R$  000000000207100000000020710000000002071000000000207100000000020710000000000000000000000000000001000000000000000500000000000001035500000000000207102013091600000010000000000000BRBBASACNOR3239
012013091278BBASI23     070BBAS    /EJ ON      NM000R$  000000000025900000000002590000000000201000000000021700000000002010000000000016000000000000000015000000000000008100000000000001762300000000000217102013091600000010000000000000BRBBASACNOR3236
012013091278BBASI24     070BBAS    /EJ ON      NM000R$  000000000015200000000001520000000000099000000000011800000000001050000000000100000000000027500113000000000000070700000000000008345700000000000227102013091600000010000000000000BRBBASACNOR3236
012013091278BBASI25     070BBAS    /EJ ON      NM000R$  000000000006500000000000710000000000021000000000003900000000000220000000000016000000000004500196000000000000064500000000000002576200000000000236102013091600000010000000000000BRBBASACNOR3235
012013091278BBASI26     070BBAS    /EJ ON      NM000R$  000000000000800000000000080000000000002000000000000400000000000020000000000001000000000000200022000000000000057100000000000000243900000000000246102013091600000010000000000000BRBBASACNOR3235
012013091278BBASJ22     070BBAS    /EJ ON      NM000R$  000000000031000000000003100000000000286000000000029500000000002860000000000287000000000033700004000000000000000400000000000000118100000000000209502013102100000010000000000000BRBBASACNOR3237
012013091278BBASJ23     070BBAS  FM/EJ ON      NM000R$  000000000029400000000002940000000000238000000000025700000000002460000000000000000000000000000232000000000000140800000000000036229300000000000216102013102100000010000000000000BRBBASACNOR3235
012013091278BBASJ24     070BBAS  FM/EJ ON      NM000R$  000000000018400000000001900000000000149000000000016600000000001580000000000100000000000000000160000000000000136000000000000022646000000000000227102013102100000010000000000000BRBBASACNOR3236
012013091278BBASJ25     070BBAS  FM/EJ ON      NM000R$  000000000010500000000001050000000000073000000000009000000000000760000000000075000000000008800053000000000000092700000000000008379700000000000239502013102100000010000000000000BRBBASACNOR3237
012013091278BBASJ26     070BBAS  FM/EJ ON      NM000R$  000000000006500000000000650000000000045000000000005200000000000460000000000046000000000005500166000000000000067200000000000003499600000000000246102013102100000010000000000000BRBBASACNOR3235
012013091278BBASJ27     070BBAS  FM/EJ ON      NM000R$  000000000002600000000000260000000000019000000000002200000000000210000000000019000000000002200111000000000000102900000000000002277300000000000256102013102100000010000000000000BRBBASACNOR3235
012013091278BBASJ28     070BBAS    /EJ ON      NM000R$  000000000000900000000000090000000000006000000000000800000000000080000000000006000000000002400025000000000000062500000000000000500600000000000269502013102100000010000000000000BRBBASACNOR3237
012013091278BBASJ30     070BBAS    /EJ ON      NM000R$  000000000000300000000000030000000000003000000000000300000000000030000000000002000000000000800003000000000000012000000000000000036000000000000286102013102100000010000000000000BRBBASACNOR3235
012013091278BBASJ31     070BBAS    /EJ ON      NM000R$  000000000000200000000000020000000000002000000000000200000000000020000000000000000000000000000001000000000000000500000000000000001000000000000307302013102100000010000000000000BRBBASACNOR3238
012013091278BBASK23     070BBAS  FM/EJ ON      NM000R$  000000000028100000000002870000000000244000000000026100000000002470000000000240000000000000000043000000000000068100000000000017801700000000000219502013111800000010000000000000BRBBASACNOR3237
012013091278BBASK24     070BBAS  FM/EJ ON      NM000R$  000000000019800000000002080000000000173000000000018600000000001730000000000159000000000000000045000000000000042800000000000007973000000000000229502013111800000010000000000000BRBBASACNOR3237
012013091278BBASK25     070BBAS  FM/EJ ON      NM000R$  000000000014100000000001410000000000125000000000013300000000001260000000000016000000000000000014000000000000020900000000000002792600000000000237102013111800000010000000000000BRBBASACNOR3236
012013091278BBASK26     070BBAS  FM/EJ ON      NM000R$  000000000009100000000000910000000000075000000000008200000000000780000000000065000000000000000008000000000000013000000000000001074300000000000247102013111800000010000000000000BRBBASACNOR3236
012013091278BBASK27     070BBAS  FM/EJ ON      NM000R$  000000000004800000000000480000000000042000000000004500000000000420000000000016000000000004800007000000000000008800000000000000400600000000000257102013111800000010000000000000BRBBASACNOR3236
012013091278BBASK28     070BBAS    /EJ ON      NM000R$  000000000002300000000000230000000000023000000000002300000000000230000000000020000000000000000001000000000000001000000000000000023000000000000267102013111800000010000000000000BRBBASACNOR3236
012013091278BBASK56     070BBAS    /EJ ON      NM000R$  000000000004300000000000430000000000035000000000003700000000000360000000000000000000000000000054000000000000130700000000000004872000000000000262302013111800000010000000000000BRBBASACNOR3238
012013091278BBASL24     070BBAS    /EJ ON      NM000R$  000000000021400000000002140000000000195000000000020800000000001950000000000188000000000000000015000000000000012000000000000002503000000000000229502013121600000010000000000000BRBBASACNOR3237
012013091278BBASL27     070BBAS    /EJ ON      NM000R$  000000000006400000000000640000000000064000000000006400000000000640000000000005000000000000000001000000000000000200000000000000012800000000000259502013121600000010000000000000BRBBASACNOR3237
012013091278BBASL28     070BBAS    /EJ ON      NM000R$  000000000003800000000000380000000000038000000000003800000000000380000000000003000000000000000001000000000000001200000000000000045600000000000269502013121600000010000000000000BRBBASACNOR3237
012013091282BBASN22     080BBASE   /EJ ON      NM000R$  000000000006500000000000650000000000065000000000006500000000000650000000000000000000000000000001000000000000001200000000000000078000000000000220002014021700000010000000000000BRBBASACNOR3239
012013091282BBASU21     080BBASE   /EJ ON      NM000R$  000000000000200000000000020000000000001000000000000100000000000010000000000000000000000000100002000000000000000300000000000000000400000000000199502013091600000010000000000000BRBBASACNOR3237
012013091282BBASU23     080BBASE   /EJ ON      NM000R$  000000000000200000000000020000000000002000000000000200000000000020000000000000000000000000100002000000000000000800000000000000001600000000000217102013091600000010000000000000BRBBASACNOR3236
012013091282BBASU24     080BBASE   /EJ ON      NM000R$  000000000000300000000000070000000000003000000000000600000000000070000000000000000000000000000009000000000000013300000000000000083300000000000227102013091600000010000000000000BRBBASACNOR3236
012013091282BBASU25     080BBASE   /EJ ON      NM000R$  000000000001200000000000310000000000011000000000001600000000000150000000000000000000000006900052000000000000139200000000000002362600000000000236102013091600000010000000000000BRBBASACNOR3235
012013091282BBASV22     080BBASE FM/EJ ON      NM000R$  000000000001300000000000140000000000013000000000001300000000000140000000000000000000000000000007000000000000013200000000000000182800000000000209502013102100000010000000000000BRBBASACNOR3237
012013091282BBASV23     080BBASE FM/EJ ON      NM000R$  000000000001600000000000220000000000016000000000002000000000000210000000000016000000000011000074000000000000251000000000000005092300000000000216102013102100000010000000000000BRBBASACNOR3235
012013091282BBASV24     080BBASE FM/EJ ON      NM000R$  000000000003300000000000390000000000033000000000003500000000000380000000000000000000000003900061000000000000111200000000000003986100000000000227102013102100000010000000000000BRBBASACNOR3236
012013091282BBASV25     080BBASE FM/EJ ON      NM000R$  000000000006400000000000860000000000062000000000007600000000000850000000000000000000000000000029000000000000091800000000000007054400000000000239502013102100000010000000000000BRBBASACNOR3237
012013091282BBASV26     080BBASE   /EJ ON      NM000R$  000000000012100000000001210000000000110000000000011000000000001100000000000000000000000000000003000000000000006500000000000000720500000000000246102013102100000010000000000000BRBBASACNOR3235
012013091282BBASV27     080BBASE   /EJ ON      NM000R$  000000000019200000000001920000000000192000000000019200000000001920000000000135000000000000000001000000000000001000000000000000192000000000000256102013102100000010000000000000BRBBASACNOR3235
012013091282BBASW22     080BBASE FM/EJ ON      NM000R$  000000000002500000000000260000000000025000000000002500000000000260000000000000000000000000000002000000000000004000000000000000102000000000000209502013111800000010000000000000BRBBASACNOR3237
012013091282BBASW23     080BBASE FM/EJ ON      NM000R$  000000000003800000000000410000000000038000000000003900000000000390000000000000000000000000000012000000000000029700000000000001161400000000000219502013111800000010000000000000BRBBASACNOR3237
012013091282BBASW24     080BBASE FM/EJ ON      NM000R$  000000000005800000000000700000000000058000000000006500000000000700000000000000000000000000000009000000000000010000000000000000652600000000000229502013111800000010000000000000BRBBASACNOR3237
012013091282BBASW25     080BBASE FM/EJ ON      NM000R$  000000000007700000000000970000000000077000000000008800000000000930000000000000000000000000000009000000000000013200000000000001163300000000000237102013111800000010000000000000BRBBASACNOR3236
012013091282BBASX23     080BBASE   /EJ ON      NM000R$  000000000005600000000000560000000000056000000000005600000000000560000000000000000000000000000001000000000000000800000000000000044800000000000219502013121600000010000000000000BRBBASACNOR3237
012013091202BBDC3       010BRADESCO    ON  EJ  N1   R$  000000000346500000000034690000000003402000000000343100000000034070000000003406000000000340708242000000000002275600000000007807551700000000000000009999123100000010000000000000BRBBDCACNOR1606
012013091296BBDC3F      020BRADESCO    ON  EJ  N1   R$  000000000343100000000034690000000003401000000000343200000000034010000000003409000000000345000034000000000000000939000000000003223220000000000000009999123100000010000000000000BRBBDCACNOR1606
012013091202BBDC4       010BRADESCO    PN  EJ  N1   R$  000000000301100000000030170000000002940000000000296200000000029560000000002955000000000295620176000000000007908000000000023429433700000000000000009999123100000010000000000000BRBBDCACNPR8606
012013091296BBDC4F      020BRADESCO    PN  EJ  N1   R$  000000000301000000000030190000000002911000000000296600000000029640000000002947000000000296400207000000000000005993000000000017774770000000000000009999123100000010000000000000BRBBDCACNPR8606
012013091262BBDC4T      030BRADESCO    PN  EJ  N1018R$  000000000296500000000029660000000002961000000000296400000000029650000000000000000000000000000006000000000000016000000000000047432383000000000000009999123100000010000000000000BRBBDCACNPR8606
012013091262BBDC4T      030BRADESCO    PN  EJ  N1060R$  000000000305300000000030540000000003053000000000305300000000030540000000000000000000000000000002000000000000000300000000000000916127000000000000009999123100000010000000000000BRBBDCACNPR8606
012013091278BBDCB36     070BBDC    /EJ PN      N1000R$  000000000004100000000000410000000000041000000000004100000000000410000000000000000000000000000001000000000000001900000000000000077900000000000357602014021700000010000000000000BRBBDCACNPR8602
012013091278BBDCB63     070BBDC    /EJ PN      N1000R$  000000000007900000000000790000000000079000000000007900000000000790000000000000000000000000000002000000000000001900000000000000150100000000000335002014021700000010000000000000BRBBDCACNPR8606
012013091278BBDCI27     070BBDC    /EJ PN      N1000R$  000000000029100000000002910000000000281000000000028200000000002810000000000033000000000000000003000000000000003800000000000001075300000000000267602013091600000010000000000000BRBBDCACNPR8602
012013091278BBDCI28     070BBDC    /EJ PN      N1000R$  000000000021800000000002180000000000175000000000019600000000001820000000000179000000000020400156000000000000032200000000000006343300000000000277602013091600000010000000000000BRBBDCACNPR8602
012013091278BBDCI29     070BBDC    /EJ PN      N1000R$  000000000012300000000001230000000000081000000000009900000000000870000000000081000000000010500105000000000000083800000000000008335100000000000287602013091600000010000000000000BRBBDCACNPR8602
012013091278BBDCI30     070BBDC    /EJ PN      N1000R$  000000000003900000000000400000000000010000000000002700000000000100000000000010000000000002400137000000000000145300000000000003945100000000000297602013091600000010000000000000BRBBDCACNPR8602
012013091278BBDCI33     070BBDC    /EJ PN      N1000R$  000000000003900000000000390000000000015000000000001900000000000170000000000000000000000000000009000000000000025500000000000000508100000000000297002013091600000010000000000000BRBBDCACNPR8598
012013091278BBDCI58     070BBDC    /EJ PN      N1000R$  000000000011800000000001180000000000118000000000011800000000001180000000000000000000000000000001000000000000000200000000000000023600000000000284802013091600000010000000000000BRBBDCACNPR8605
012013091278BBDCI75     070BBDCE   /EJ PN      N1000R$  000000000014400000000001440000000000144000000000014400000000001440000000000000000000000000000001000000000000000300000000000000043200000000000282102013091600000010000000000000BRBBDCACNPR8604
012013091278BBDCI81     070BBDC    /EJ PN      N1000R$  000000000000300000000000040000000000003000000000000300000000000040000000000000000000000000300004000000000000008600000000000000027800000000000307602013091600000010000000000000BRBBDCACNPR8602
012013091278BBDCJ26     070BBDC    /EJ PN      N1000R$  000000000040000000000004000000000000400000000000040000000000004000000000000000000000000043900001000000000000001000000000000000400000000000000259602013102100000010000000000000BRBBDCACNPR8604
012013091278BBDCJ27     070BBDC    /EJ PN      N1000R$  000000000038000000000003800000000000327000000000036100000000003270000000000000000000000000000050000000000000015500000000000005606500000000000267602013102100000010000000000000BRBBDCACNPR8602
012013091278BBDCJ29     070BBDC    /EJ PN      N1000R$  000000000019400000000001960000000000151000000000016600000000001530000000000153000000000016900135000000000000118600000000000019755900000000000287602013102100000010000000000000BRBBDCACNPR8602
012013091278BBDCJ30     070BBDC    /EJ PN      N1000R$  000000000012500000000001260000000000091000000000010300000000000950000000000095000000000010100223000000000000246300000000000025385100000000000297602013102100000010000000000000BRBBDCACNPR8602
012013091278BBDCJ31     070BBDC    /EJ PN      N1000R$  000000000007200000000000720000000000050000000000005700000000000540000000000042000000000005600204000000000000176700000000000010093700000000000307602013102100000010000000000000BRBBDCACNPR8602
012013091278BBDCJ32     070BBDC    /EJ PN      N1000R$  000000000003700000000000400000000000025000000000003300000000000260000000000012000000000004900099000000000000183600000000000006093100000000000317602013102100000010000000000000BRBBDCACNPR8602
012013091278BBDCJ33     070BBDC    /EJ PN      N1000R$  000000000001800000000000180000000000012000000000001400000000000150000000000000000000000000000027000000000000060400000000000000882200000000000327602013102100000010000000000000BRBBDCACNPR8602
012013091278BBDCJ34     070BBDC    /EJ PN      N1000R$  000000000000800000000000080000000000008000000000000800000000000080000000000000000000000000000001000000000000000500000000000000004000000000000337202013102100000010000000000000BRBBDCACNPR8600
012013091278BBDCJ58     070BBDC    /EJ PN      N1000R$  000000000024000000000002400000000000206000000000022000000000002200000000000180000000000000000048000000000000036800000000000008115400000000000279802013102100000010000000000000BRBBDCACNPR8605
012013091278BBDCK28     070BBDC    /EJ PN      N1000R$  000000000027900000000002790000000000260000000000027400000000002600000000000000000000000000000096000000000000021100000000000005796200000000000277602013111800000010000000000000BRBBDCACNPR8602
012013091278BBDCK30     070BBDC    /EJ PN      N1000R$  000000000015400000000001540000000000126000000000013200000000001330000000000000000000000000000007000000000000011800000000000001562700000000000299802013111800000010000000000000BRBBDCACNPR8605
012013091278BBDCK31     070BBDC    /EJ PN      N1000R$  000000000009700000000000970000000000082000000000008500000000000850000000000074000000000000000006000000000000001600000000000000136600000000000309802013111800000010000000000000BRBBDCACNPR8605
012013091278BBDCK32     070BBDC    /EJ PN      N1000R$  000000000006100000000000610000000000056000000000005800000000000560000000000013000000000000000005000000000000007700000000000000449400000000000317402013111800000010000000000000BRBBDCACNPR8601
012013091278BBDCK33     070BBDC    /EJ PN      N1000R$  000000000004400000000000450000000000031000000000003300000000000310000000000000000000000000000013000000000000013400000000000000451800000000000327602013111800000010000000000000BRBBDCACNPR8602
012013091278BBDCK9      070BBDC    /EJ PN      N1000R$  000000000022000000000002200000000000180000000000019600000000001820000000000000000000000000000024000000000000043200000000000008489900000000000289802013111800000010000000000000BRBBDCACNPR8605
012013091282BBDCN27     080BBDCE   /EJ PN      N1000R$  000000000006400000000000640000000000064000000000006400000000000640000000000000000000000000000002000000000000002000000000000000128000000000000269802014021700000010000000000000BRBBDCACNPR8605
012013091282BBDCU27     080BBDCE   /EJ PN      N1000R$  000000000000100000000000010000000000001000000000000100000000000010000000000000000000000000100001000000000000000400000000000000000400000000000267602013091600000010000000000000BRBBDCACNPR8602
012013091282BBDCU29     080BBDCE   /EJ PN      N1000R$  000000000000900000000000090000000000009000000000000900000000000090000000000000000000000000900001000000000000010000000000000000090000000000000287602013091600000010000000000000BRBBDCACNPR8602
012013091282BBDCU30     080BBDCE   /EJ PN      N1000R$  000000000003000000000000350000000000030000000000003200000000000350000000000000000000000000000009000000000000022000000000000000711000000000000297602013091600000010000000000000BRBBDCACNPR8602
012013091282BBDCU31     080BBDCE   /EJ PN      N1000R$  000000000000300000000000030000000000003000000000000300000000000030000000000001000000000000000001000000000000000800000000000000002400000000000272702013091600000010000000000000BRBBDCACNPR8590
012013091282BBDCU33     080BBDCE   /EJ PN      N1000R$  000000000003300000000000330000000000033000000000003300000000000330000000000000000000000000000002000000000000003300000000000000108900000000000297002013091600000010000000000000BRBBDCACNPR8598
012013091282BBDCV29     080BBDCE   /EJ PN      N1000R$  000000000003700000000000580000000000037000000000004900000000000550000000000035000000000007800023000000000000044500000000000002213800000000000287602013102100000010000000000000BRBBDCACNPR8602
012013091282BBDCV30     080BBDCE   /EJ PN      N1000R$  000000000006600000000001000000000000066000000000008700000000000960000000000000000000000010000067000000000000105900000000000009246300000000000297602013102100000010000000000000BRBBDCACNPR8602
012013091282BBDCV31     080BBDCE   /EJ PN      N1000R$  000000000011700000000001550000000000117000000000014000000000001500000000000000000000000000000030000000000000058900000000000008284400000000000307602013102100000010000000000000BRBBDCACNPR8602
012013091282BBDCV58     080BBDCE   /EJ PN      N1000R$  000000000002300000000000370000000000023000000000003300000000000350000000000000000000000000000027000000000000049200000000000001659900000000000279802013102100000010000000000000BRBBDCACNPR8605
012013091282BBDCW28     080BBDCE   /EJ PN      N1000R$  000000000003800000000000380000000000038000000000003800000000000380000000000000000000000000000001000000000000000100000000000000003800000000000277602013111800000010000000000000BRBBDCACNPR8602
012013091282BBDCW30     080BBDCE   /EJ PN      N1000R$  000000000011400000000001280000000000114000000000012000000000001200000000000000000000000000000005000000000000008000000000000000966000000000000299802013111800000010000000000000BRBBDCACNPR8605
012013091282BBDCW31     080BBDCE   /EJ PN      N1000R$  000000000016800000000001800000000000168000000000017200000000001800000000000000000000000000000007000000000000010700000000000001842700000000000309802013111800000010000000000000BRBBDCACNPR8605
012013091282BBDCW9      080BBDCE   /EJ PN      N1000R$  000000000008000000000000890000000000079000000000008500000000000890000000000000000000000000000004000000000000007500000000000000637500000000000289802013111800000010000000000000BRBBDCACNPR8605
012013091282BBDCX28     080BBDCE   /EJ PN      N1000R$  000000000007100000000000710000000000071000000000007100000000000710000000000000000000000000000001000000000000000800000000000000056800000000000279602013121600000010000000000000BRBBDCACNPR8604
012013091212BBFI11B     010FII BB PROGRCI      MB   R$  000000043000000000004300000000000423500000000042531800000004235000000000423600000000042500000007000000000000000011000000000004678499000000000000009999123100000010000000000000BRBBFICTF006198
012013091212BBPO11      010FII BB PRGIICI           R$  000000001104000000000110400000000011000000000001101700000000110280000000011000000000001103000097000000000000009407000000000103641811000000000000009999123100000010000000000000BRBBPOCTF003110
012013091212BBRC11      010FII BB CORP CI           R$  000000000919200000000091920000000008960000000000901100000000089600000000008960000000000905000016000000000000000652000000000005875235000000000000009999123100000010000000000000BRBBRCCTF004124
012013091202BBRK3       010BR BROKERS  ON      NM   R$  000000000058400000000005880000000000579000000000058400000000005850000000000585000000000058702120000000000004234900000000002477305600000000000000009999123100000010000000000000BRBBRKACNOR4108
012013091296BBRK3F      020BR BROKERS  ON      NM   R$  000000000059600000000005960000000000590000000000059300000000005900000000000568000000000060000002000000000000000080000000000000047440000000000000009999123100000010000000000000BRBBRKACNOR4108
012013091202BBSE3       010BBSEGURIDADEON      NM   R$  000000000207400000000021010000000002064000000000208800000000021010000000002100000000000210110454000000000004570000000000009544918100000000000000009999123100000010000000000000BRBBSEACNOR5101
012013091296BBSE3F      020BBSEGURIDADEON      NM   R$  000000000206000000000021000000000002060000000000208400000000021000000000002081000000000210000810000000000000026276000000000054784210000000000000009999123100000010000000000000BRBBSEACNOR5101
012013091262BBSE3T      030BBSEGURIDADEON      NM032R$  000000000210200000000021030000000002102000000000210200000000021030000000000000000000000000000002000000000000001300000000000002732634000000000000009999123100000010000000000000BRBBSEACNOR5101
012013091202BBTG11      010BTG PACTUAL UNT          R$  000000000292000000000029300000000002812000000000286500000000028700000000002870000000000288000901000000000000140000000000000401151800000000000000009999123100000010000000000000BRBBTGUNT007105
012013091296BBTG11F     020BTG PACTUAL UNT          R$  000000000289000000000028900000000002820000000000286400000000028650000000002697000000000314800008000000000000000235000000000000673084000000000000009999123100000010000000000000BRBBTGUNT007105
012013091212BBVJ11      010FII C JARDIMCI           R$  000000000774000000000078980000000007701000000000779900000000078000000000007750000000000780000012000000000000001168000000000009109558000000000000009999123100000010000000000000BRBBVJCTF001133
012013091212BCFF11B     010FII BC FFII CI  ER  MB   R$  000000000869500000000087490000000008550000000000865700000000085500000000008540000000000855000087000000000000004345000000000037617920000000000000009999123100000010000000000000BRBCFFCTF000142
012013091202BEEF3       010MINERVA     ON      NM   R$  000000000110000000000011260000000001084000000000111300000000011240000000001115000000000112403804000000000000979900000000001090820900000000000000009999123100000010000000000000BRBEEFACNOR6104
012013091296BEEF3F      020MINERVA     ON      NM   R$  000000000108900000000011120000000001089000000000109600000000010900000000001090000000000111900004000000000000000055000000000000060281000000000000009999123100000010000000000000BRBEEFACNOR6104
012013091262BEEF3T      030MINERVA     ON      NM032R$  000000000112100000000011290000000001121000000000112200000000011290000000000000000000000000000014000000000000033000000000000037039418000000000000009999123100000010000000000000BRBEEFACNOR6104
012013091202BEES3       010BANESTES    ON           R$  000000000004900000000000500000000000049000000000004900000000000490000000000048000000000005000019000000000000308900000000000015337100000000000000009999123100000010000000000000BRBEESACNOR9244
012013091202BEES4       010BANESTES    PN           R$  000000000004500000000000450000000000044000000000004400000000000440000000000044000000000004500004000000000000001400000000000000062000000000000000009999123100000010000000000000BRBEESACNPR6169
012013091202BEMA3       010BEMATECH    ON      NM   R$  000000000075000000000007580000000000750000000000075500000000007580000000000750000000000075800050000000000000015400000000000011631600000000000000009999123100000010000000000000BRBEMAACNOR0114
012013091202BGIP4       010BANESE      PN           R$  000000000450000000000046480000000004500000000000462800000000046480000000004201000000000469700011000000000000010500000000000048597500000000000000009999123100000010000000000000BRBGIPACNPR8179
012013091202BHGR3       010BHG         ON      NM   R$  000000000145700000000014620000000001445000000000145000000000014500000000001450000000000145900047000000000000147400000000000213851000000000000000009999123100000010000000000000BRBHGRACNOR9101
012013091296BHGR3F      020BHG         ON      NM   R$  000000000144500000000014450000000001445000000000144500000000014450000000001303000000000157900001000000000000000056000000000000080920000000000000009999123100000010000000000000BRBHGRACNOR9101
012013091202BICB4       010BICBANCO    PN      N1   R$  000000000044800000000004530000000000435000000000044600000000004510000000000449000000000045100687000000000000179500000000000080230900000000000000009999123100000010000000000000BRBICBACNPR7131
012013091296BICB4F      020BICBANCO    PN      N1   R$  000000000045200000000004520000000000437000000000043900000000004370000000000436000000000048300015000000000000000261000000000000114733000000000000009999123100000010000000000000BRBICBACNPR7131
012013091262BICB4T      030BICBANCO    PN      N1060R$  000000000045300000000004540000000000453000000000045300000000004540000000000000000000000000000002000000000000009300000000000004214774000000000000009999123100000010000000000000BRBICBACNPR7131
012013091202BIOM3       010BIOMM       ON           R$  000000000091000000000009390000000000910000000000092400000000009390000000000900000000000094000002000000000000002000000000000001849000000000000000009999123100000010000000000000BRBIOMACNOR2101
012013091296BIOM3F      020BIOMM       ON           R$  000000000090300000000009030000000000903000000000090300000000009030000000000850000000000090300001000000000000000010000000000000009030000000000000009999123100000010000000000000BRBIOMACNOR2101
012013091202BISA3       010BROOKFIELD  ON      NM   R$  000000000018800000000001890000000000179000000000018200000000001800000000000180000000000018104910000000000012673500000000002309085600000000000000009999123100000010000000000000BRBISAACNOR8109
012013091296BISA3F      020BROOKFIELD  ON      NM   R$  000000000018800000000002070000000000178000000000018300000000001790000000000179000000000018600048000000000000001189000000000000218107000000000000009999123100000010000000000000BRBISAACNOR8109
012013091262BISA3T      030BROOKFIELD  ON      NM032R$  000000000018700000000001880000000000187000000000018700000000001880000000000000000000000000000002000000000000010000000000000001874136000000000000009999123100000010000000000000BRBISAACNOR8109
012013091262BISA3T      030BROOKFIELD  ON      NM060R$  000000000018600000000001870000000000182000000000018400000000001830000000000000000000000000000004000000000000020000000000000003690960000000000000009999123100000010000000000000BRBISAACNOR8109
012013091262BISA3T      030BROOKFIELD  ON      NM120R$  000000000018600000000001870000000000186000000000018600000000001870000000000000000000000000000002000000000000005000000000000000930069000000000000009999123100000010000000000000BRBISAACNOR8109
012013091202BMEB4       010MERC BRASIL PN           R$  000000000111000000000011100000000001110000000000111000000000011100000000001010000000000111000001000000000000000200000000000000222000000000000000009999123100000010000000000000BRBMEBACNPR5191
012013091202BMTO4       010BRASMOTOR   PN           R$  000000000008700000000000870000000000086000000000008600000000000870000000000085000000000008700003000000000000005000000000000000433000000000000000009999123100000010000000000000BRBMTOACNPR6065
012013091202BOBR4       010BOMBRIL     PN           R$  000000000062000000000006490000000000601000000000062000000000006010000000000601000000000066800007000000000000451700000000000280055000000000000000009999123100000010000000000000BRBOBRACNPR3127
012013091214BOVA11      010ISHARES BOVACI           R$  000000000524000000000052950000000005172000000000520300000000052190000000005213000000000521902937000000000001113860000000005796124230000000000000009999123100000010000000000000BRBOVACTF003101
012013091296BOVA11F     020ISHARES BOVACI           R$  000000000525000000000052800000000005178000000000522600000000052150000000005117000000000521500008000000000000000021000000000000109746000000000000009999123100000010000000000000BRBOVACTF003101
012013091212BPFF11      010FII ABSOLUTOCI           R$  000000000840100000000084010000000008355000000000835700000000083550000000008355000000000840000010000000000000018656000000000155909069000000000000009999123100000010000000000000BRBPFFCTF002105
012013091202BPHA3       010BR PHARMA   ON      NM   R$  000000000082100000000008400000000000806000000000082200000000008140000000000813000000000081402395000000000001384100000000001138271200000000000000009999123100000010000000000000BRBPHAACNOR6102
012013091296BPHA3F      020BR PHARMA   ON      NM   R$  000000000082200000000008350000000000809000000000082100000000008140000000000806000000000083400027000000000000000933000000000000766123000000000000009999123100000010000000000000BRBPHAACNOR6102
012013091202BPNM4       010PANAMERICANOPN      N1   R$  000000000052200000000005260000000000521000000000052300000000005220000000000522000000000052500226000000000000096100000000000050277400000000000000009999123100000010000000000000BRBPNMACNPR6111
012013091202BRAP3       010BRADESPAR   ON      N1   R$  000000000208500000000021000000000002053000000000206300000000020530000000002052000000000206000086000000000000022700000000000046845900000000000000009999123100000010000000000000BRBRAPACNOR5124
012013091296BRAP3F      020BRADESPAR   ON      N1   R$  000000000214500000000021450000000002040000000000206200000000020400000000002013000000000219800002000000000000000076000000000000156720000000000000009999123100000010000000000000BRBRAPACNOR5124
012013091202BRAP4       010BRADESPAR   PN      N1   R$  000000000259000000000025900000000002539000000000256000000000025700000000002566000000000257104296000000000001116800000000002859191400000000000000009999123100000010000000000000BRBRAPACNPR2124
012013091296BRAP4F      020BRADESPAR   PN      N1   R$  000000000257100000000025990000000002540000000000256500000000025410000000002541000000000257200067000000000000002251000000000005773654000000000000009999123100000010000000000000BRBRAPACNPR2124
012013091262BRAP4T      030BRADESPAR   PN      N1120R$  000000000264700000000026500000000002647000000000264800000000026500000000000000000000000000000004000000000000000600000000000001589286000000000000009999123100000010000000000000BRBRAPACNPR2124
012013091278BRAPK28     070BRAP        PN      N1000R$  000000000004200000000000450000000000042000000000004200000000000420000000000000000000000006000011000000000000223000000000000009393000000000000280002013111800000010000000000000BRBRAPACNPR2124
012013091282BRAPU26     080BRAPE       PN      N1000R$  000000000005200000000000520000000000052000000000005200000000000520000000000000000000000000000001000000000000001000000000000000052000000000000260002013091600000010000000000000BRBRAPACNPR2124
012013091282BRAPV25     080BRAPE       PN      N1000R$  000000000006600000000000660000000000066000000000006600000000000660000000000000000000000006000003000000000000001000000000000000066000000000000250002013102100000010000000000000BRBRAPACNPR2124
012013091212BRCR11      010FII BC FUND CI  ER       R$  000000001252500000000126000000000012405000000001250700000000124500000000012423000000001245000331000000000000020343000000000254430909000000000000009999123100000010000000000000BRBRCRCTF000133
012013091202BRFS3       010BRF SA      ON      NM   R$  000000000590000000000059200000000005697000000000575700000000056970000000005696000000000569707254000000000002446700000000014085295100000000000000009999123100000010000000000000BRBRFSACNOR8110
012013091296BRFS3F      020BRF SA      ON      NM   R$  000000000590000000000059150000000005705000000000577000000000057160000000005704000000000575600083000000000000002776000000000016002324000000000000009999123100000010000000000000BRBRFSACNOR8110
012013091262BRFS3T      030BRF SA      ON      NM018R$  000000000574500000000057520000000005720000000000572600000000057210000000000000000000000000000006000000000000005200000000000029779030000000000000009999123100000010000000000000BRBRFSACNOR8110
012013091262BRFS3T      030BRF SA      ON      NM032R$  000000000576400000000057650000000005764000000000576400000000057650000000000000000000000000000004000000000000000200000000000001152868000000000000009999123100000010000000000000BRBRFSACNOR8110
012013091262BRFS3T      030BRF SA      ON      NM120R$  000000000591000000000059110000000005910000000000591000000000059110000000000000000000000000000002000000000000001000000000000005910303000000000000009999123100000010000000000000BRBRFSACNOR8110
012013091278BRFSI50     070BRFS        ON      NM000R$  000000000080000000000008000000000000800000000000080000000000008000000000000000000000000000000001000000000000005000000000000004000000000000000500002013091600000010000000000000BRBRFSACNOR8110
012013091278BRFSI57     070BRFS        ON      NM000R$  000000000010000000000001560000000000100000000000013700000000001560000000000000000000000000000003000000000000000300000000000000041200000000000570002013091600000010000000000000BRBRFSACNOR8110
012013091278BRFSI58     070BRFS        ON      NM000R$  000000000002400000000000240000000000024000000000002400000000000240000000000000000000000002400003000000000000004300000000000000103200000000000580002013091600000010000000000000BRBRFSACNOR8110
012013091278BRFSJ58     070BRFS        ON      NM000R$  000000000017500000000001750000000000175000000000017500000000001750000000000050000000000000000001000000000000000300000000000000052500000000000580002013102100000010000000000000BRBRFSACNOR8110
012013091278BRFSK51     070BRFS        ON      NM000R$  000000000080000000000008000000000000800000000000080000000000008000000000000000000000000000000001000000000000005000000000000004000000000000000510002013111800000010000000000000BRBRFSACNOR8110
012013091202BRIN3       010BR INSURANCEON      NM   R$  000000000189700000000018970000000001859000000000187800000000018830000000001883000000000189100912000000000000193800000000000364062300000000000000009999123100000010000000000000BRBRINACNOR3106
012013091296BRIN3F      020BR INSURANCEON      NM   R$  000000000178800000000018930000000001788000000000186600000000018780000000001861000000000189400018000000000000000516000000000000962981000000000000009999123100000010000000000000BRBRINACNOR3106
012013091202BRIV3       010ALFA INVEST ON           R$  000000000062800000000006280000000000628000000000062800000000006280000000000628000000000070000006000000000000001000000000000000628000000000000000009999123100000010000000000000BRBRIVACNOR6197
012013091202BRIV4       010ALFA INVEST PN           R$  000000000060300000000006030000000000603000000000060300000000006030000000000573000000000060400001000000000000010000000000000006030000000000000000009999123100000010000000000000BRBRIVACNPR3197
012013091202BRKM3       010BRASKEM     ON      N1   R$  000000000125000000000012500000000001235000000000124400000000012480000000001240000000000124800004000000000000000500000000000000622300000000000000009999123100000010000000000000BRBRKMACNOR1110
012013091202BRKM5       010BRASKEM     PNA     N1   R$  000000000182500000000018430000000001813000000000183100000000018360000000001831000000000183605666000000000001181800000000002164069600000000000000009999123100000010000000000000BRBRKMACNPA4110
012013091296BRKM5F      020BRASKEM     PNA     N1   R$  000000000186800000000018680000000001803000000000183000000000018030000000001803000000000183700040000000000000000542000000000000991881000000000000009999123100000010000000000000BRBRKMACNPA4110
012013091202BRML3       010BR MALLS PARON      NM   R$  000000000196600000000019690000000001946000000000195900000000019690000000001956000000000196906579000000000002572400000000005041011000000000000000009999123100000010000000000000BRBRMLACNOR9105
012013091296BRML3F      020BR MALLS PARON      NM   R$  000000000195500000000019690000000001943000000000195700000000019610000000001957000000000196000031000000000000000896000000000001753882000000000000009999123100000010000000000000BRBRMLACNOR9105
012013091278BRMLJ20     070BRML        ON      NM000R$  000000000005300000000000530000000000053000000000005300000000000530000000000000000000000000000001000000000000011400000000000000604200000000000200002013102100000010000000000000BRBRMLACNOR9105
012013091202BRPR3       010BR PROPERT  ON      NM   R$  000000000188000000000019140000000001876000000000190300000000019050000000001905000000000190706006000000000002242100000000004268163400000000000000009999123100000010000000000000BRBRPRACNOR9112
012013091296BRPR3F      020BR PROPERT  ON      NM   R$  000000000187100000000019660000000001861000000000189900000000018700000000001870000000000196000042000000000000001287000000000002444558000000000000009999123100000010000000000000BRBRPRACNOR9112
012013091262BRPR3T      030BR PROPERT  ON      NM032R$  000000000192100000000019220000000001921000000000192100000000019220000000000000000000000000000002000000000000000200000000000000384386000000000000009999123100000010000000000000BRBRPRACNOR9112
012013091278BRPRI19     070BRPR        ON      NM000R$  000000000003300000000000330000000000033000000000003300000000000330000000000000000000000000000001000000000000000500000000000000016500000000000190002013091600000010000000000000BRBRPRACNOR9112
012013091278BRPRJ19     070BRPR        ON      NM000R$  000000000008500000000000850000000000085000000000008500000000000850000000000000000000000000000001000000000000000500000000000000042500000000000190002013102100000010000000000000BRBRPRACNOR9112
012013091202BRSR6       010BANRISUL    PNB EJ  N1   R$  000000000152000000000015500000000001491000000000153600000000015480000000001540000000000154802262000000000000708300000000001088307600000000000000009999123100000010000000000000BRBRSRACNPB4134
012013091296BRSR6F      020BANRISUL    PNB EJ  N1   R$  000000000152000000000015560000000001499000000000152700000000015380000000001530000000000159400026000000000000000512000000000000782010000000000000009999123100000010000000000000BRBRSRACNPB4134
012013091202BSEV3       010BIOSEV      ON      NM   R$  000000000093100000000009570000000000931000000000094500000000009570000000000939000000000095700012000000000000018200000000000017206700000000000000009999123100000010000000000000BRBSEVACNOR3100
012013091202BTOW3       010B2W DIGITAL ON      NM   R$  000000000156500000000016200000000001560000000000159600000000016090000000001608000000000160901229000000000000354600000000000566306000000000000000009999123100000010000000000000BRBTOWACNOR8105
012013091296BTOW3F      020B2W DIGITAL ON      NM   R$  000000000158500000000016490000000001560000000000159300000000016070000000001500000000000160700032000000000000001009000000000001607751000000000000009999123100000010000000000000BRBTOWACNOR8105
012013091262BTOW3T      030B2W DIGITAL ON      NM090R$  000000000163600000000016370000000001636000000000163600000000016370000000000000000000000000000002000000000000001000000000000001636022000000000000009999123100000010000000000000BRBTOWACNOR8105
012013091202BTTL4       010BATTISTELLA PN           R$  000000000009800000000000990000000000098000000000009800000000000980000000000098000000000009900005000000000000007500000000000000737200000000000000009999123100000010000000000000BRBTTLACNPR7105
012013091296BTTL4F      020BATTISTELLA PN           R$  000000000010000000000001000000000000100000000000010000000000001000000000000098000000000010000001000000000000000005000000000000000500000000000000009999123100000010000000000000BRBTTLACNPR7105
012013091202BVMF3       010BMFBOVESPA  ON      NM   R$  000000000125700000000012650000000001229000000000123700000000012360000000001235000000000123616740000000000006803200000000008416527300000000000000009999123100000010000000000000BRBVMFACNOR3126
012013091296BVMF3F      020BMFBOVESPA  ON      NM   R$  000000000126200000000012650000000001228000000000123800000000012310000000001226000000000123500072000000000000002343000000000002901144000000000000009999123100000010000000000000BRBVMFACNOR3126
012013091262BVMF3T      030BMFBOVESPA  ON      NM032R$  000000000124200000000012430000000001242000000000124200000000012430000000000000000000000000000002000000000000010000000000000012420009000000000000009999123100000010000000000000BRBVMFACNOR3126
012013091278BVMFI11     070BVMF        ON      NM000R$  000000000015200000000001560000000000148000000000015100000000001540000000000141000000000015500106000000000000014500000000000002200900000000000108502013091600000010000000000000BRBVMFACNOR3125
012013091278BVMFI12     070BVMF        ON      NM000R$  000000000007200000000000720000000000048000000000005400000000000550000000000046000000000000000129000000000000067100000000000003643400000000000118502013091600000010000000000000BRBVMFACNOR3125
012013091278BVMFI13     070BVMF        ON      NM000R$  000000000000600000000000070000000000001000000000000100000000000010000000000000000000000000100030000000000000283600000000000000463000000000000128502013091600000010000000000000BRBVMFACNOR3125
012013091278BVMFI14     070BVMF        ON      NM000R$  000000000000100000000000010000000000001000000000000100000000000010000000000000000000000000100001000000000000000100000000000000000100000000000138502013091600000010000000000000BRBVMFACNOR3125
012013091278BVMFI41     070BVMF        ON      NM000R$  000000000010900000000001100000000000097000000000010000000000001010000000000000000000000000000014000000000000005900000000000000593000000000000113502013091600000010000000000000BRBVMFACNOR3125
012013091278BVMFI42     070BVMF        ON      NM000R$  000000000003300000000000330000000000008000000000001300000000000120000000000010000000000004500033000000000000226200000000000003151400000000000123502013091600000010000000000000BRBVMFACNOR3125
012013091278BVMFI43     070BVMF        ON      NM000R$  000000000000100000000000010000000000001000000000000100000000000010000000000000000000000000100001000000000000000100000000000000000100000000000133502013091600000010000000000000BRBVMFACNOR3125
012013091278BVMFJ11     070BVMF        ON      NM000R$  000000000017400000000001740000000000159000000000016400000000001610000000000151000000000020500007000000000000002500000000000000410400000000000108502013102100000010000000000000BRBVMFACNOR3125
012013091278BVMFJ12     070BVMF  FM    ON      NM000R$  000000000010500000000001050000000000081000000000008500000000000810000000000069000000000008600081000000000000129900000000000011108900000000000118502013102100000010000000000000BRBVMFACNOR3125
012013091278BVMFJ13     070BVMF  FM    ON      NM000R$  000000000003700000000000390000000000028000000000003000000000000300000000000027000000000003100100000000000000146000000000000004391400000000000128502013102100000010000000000000BRBVMFACNOR3125
012013091278BVMFJ14     070BVMF  FM    ON      NM000R$  000000000000700000000000080000000000006000000000000700000000000060000000000005000000000000700022000000000000040100000000000000286100000000000138502013102100000010000000000000BRBVMFACNOR3125
012013091278BVMFJ42     070BVMF  FM    ON      NM000R$  000000000006200000000000620000000000050000000000005300000000000530000000000000000000000123500030000000000000050100000000000002677400000000000123502013102100000010000000000000BRBVMFACNOR3125
012013091278BVMFJ43     070BVMF  FM    ON      NM000R$  000000000001700000000000170000000000013000000000001400000000000140000000000000000000000000000012000000000000028400000000000000411700000000000133502013102100000010000000000000BRBVMFACNOR3125
012013091278BVMFK13     070BVMF  FM    ON      NM000R$  000000000004900000000000490000000000043000000000004500000000000430000000000000000000000000000019000000000000027000000000000001215200000000000128502013111800000010000000000000BRBVMFACNOR3125
012013091278BVMFK14     070BVMF  FM    ON      NM000R$  000000000001400000000000160000000000011000000000001200000000000110000000000005000000000001400055000000000000162300000000000002098200000000000138502013111800000010000000000000BRBVMFACNOR3125
012013091278BVMFK42     070BVMF  FM    ON      NM000R$  000000000006600000000000660000000000059000000000006000000000000610000000000000000000000000000009000000000000021000000000000001276500000000000125002013111800000010000000000000BRBVMFACNOR3126
012013091278BVMFK43     070BVMF  FM    ON      NM000R$  000000000002000000000000210000000000020000000000002000000000000210000000000000000000000000000005000000000000011400000000000000236000000000000135002013111800000010000000000000BRBVMFACNOR3126
012013091278BVMFL13     070BVMF        ON      NM000R$  000000000006200000000000640000000000061000000000006300000000000630000000000025000000000000000006000000000000306100000000000019424200000000000128502013121600000010000000000000BRBVMFACNOR3125
012013091282BVMFU12     080BVMFE       ON      NM000R$  000000000000300000000000040000000000001000000000000200000000000010000000000001000000000000200017000000000000077900000000000000181100000000000118502013091600000010000000000000BRBVMFACNOR3125
012013091282BVMFU13     080BVMFE       ON      NM000R$  000000000005100000000000510000000000050000000000005000000000000500000000000001000000000005400003000000000000003600000000000000180600000000000128502013091600000010000000000000BRBVMFACNOR3125
012013091282BVMFU41     080BVMFE       ON      NM000R$  000000000000100000000000010000000000001000000000000100000000000010000000000000000000000000100001000000000000000900000000000000000900000000000113502013091600000010000000000000BRBVMFACNOR3125
012013091282BVMFU42     080BVMFE       ON      NM000R$  000000000001100000000000150000000000011000000000001400000000000120000000000009000000000000000003000000000000016000000000000000225400000000000123502013091600000010000000000000BRBVMFACNOR3125
012013091282BVMFV11     080BVMFE       ON      NM000R$  000000000001000000000000100000000000010000000000001000000000000100000000000000000000000000000001000000000000001800000000000000018000000000000108502013102100000010000000000000BRBVMFACNOR3125
012013091282BVMFV12     080BVMFE FM    ON      NM000R$  000000000002300000000000280000000000023000000000002500000000000240000000000000000000000002800037000000000000084300000000000002156900000000000118502013102100000010000000000000BRBVMFACNOR3125
012013091282BVMFV13     080BVMFE FM    ON      NM000R$  000000000006200000000000730000000000062000000000006800000000000710000000000060000000000007300045000000000000089600000000000006170100000000000128502013102100000010000000000000BRBVMFACNOR3125
012013091282BVMFV41     080BVMFE FM    ON      NM000R$  000000000001400000000000150000000000014000000000001400000000000150000000000000000000000000000027000000000000069000000000000001027000000000000113502013102100000010000000000000BRBVMFACNOR3125
012013091282BVMFV42     080BVMFE FM    ON      NM000R$  000000000004000000000000460000000000040000000000004300000000000460000000000000000000000000000018000000000000048100000000000002070400000000000123502013102100000010000000000000BRBVMFACNOR3125
012013091282BVMFW12     080BVMFE FM    ON      NM000R$  000000000003900000000000390000000000038000000000003800000000000380000000000000000000000004000009000000000000018200000000000000705100000000000118502013111800000010000000000000BRBVMFACNOR3125
012013091282BVMFW13     080BVMFE FM    ON      NM000R$  000000000007700000000000800000000000076000000000007800000000000760000000000000000000000000000014000000000000032000000000000002512900000000000128502013111800000010000000000000BRBVMFACNOR3125
012013091282BVMFW42     080BVMFE FM    ON      NM000R$  000000000006300000000000630000000000060000000000006100000000000600000000000000000000000000000014000000000000035600000000000002193400000000000125002013111800000010000000000000BRBVMFACNOR3126
012013091282BVMFX12     080BVMFE       ON      NM000R$  000000000003700000000000370000000000037000000000003700000000000370000000000000000000000000000002000000000000010000000000000000370000000000000115402013121600000010000000000000BRBVMFACNOR3123
012013091202CAMB4       010CAMBUCI     PN           R$  000000000018600000000001860000000000186000000000018600000000001860000000000185000000000019000003000000000000002600000000000000483600000000000000009999123100000010000000000000BRCAMBACNPR1117
012013091202CARD3       010CSU CARDSYSTON      NM   R$  000000000031700000000003230000000000317000000000031700000000003210000000000315000000000032100003000000000000001900000000000000603300000000000000009999123100000010000000000000BRCARDACNOR9105
012013091202CBEE3       010AMPLA ENERG ON *         R$  000000000013000000000001300000000000130000000000013000000000001300000000000130000000000013200002000000000000500000000000000000065000000000000000009999123100010000000000000000BRCBEEACNOR3149
012013091202CBMA4       010COBRASMA    PN           R$  000000000000400000000000040000000000004000000000000400000000000040000000000004000000000000500006000000000000150000000000000000600000000000000000009999123100000010000000000000BRCBMAACNPR1124
012013091296CBMA4F      020COBRASMA    PN           R$  000000000000300000000000030000000000003000000000000300000000000030000000000003000000000000400003000000000000003300000000000000009900000000000000009999123100000010000000000000BRCBMAACNPR1124
012013091208CCHI3       010CHIARELLI   ON           R$  000000000001800000000000180000000000018000000000001800000000000180000000000017000000000001900008000000000000130000000000000002340000000000000000009999123100000010000000000000BRCCHIACNOR5123
012013091296CCHI3F      020CHIARELLI   ON           R$  000000000001700000000000170000000000017000000000001700000000000170000000000017000000000002200001000000000000000200000000000000003400000000000000009999123100000010000000000000BRCCHIACNOR5123
012013091202CCPR3       010CYRE COM-CCPON      NM   R$  000000000212300000000021230000000002061000000000208300000000020610000000002060000000000212000010000000000000001500000000000003124900000000000000009999123100000010000000000000BRCCPRACNOR9107
012013091202CCRO3       010CCR SA      ON      NM   R$  000000000181300000000018550000000001812000000000184200000000018400000000001840000000000184112373000000000004183100000000007705766800000000000000009999123100000010000000000000BRCCROACNOR2122
012013091296CCRO3F      020CCR SA      ON      NM   R$  000000000181500000000018540000000001800000000000183900000000018400000000001825000000000184000088000000000000002018000000000003713304000000000000009999123100000010000000000000BRCCROACNOR2122
012013091278CCROI48     070CCRO        ON      NM000R$  000000000000900000000000090000000000009000000000000900000000000090000000000000000000000000000001000000000000013400000000000000120600000000000185002013091600000010000000000000BRCCROACNOR2122
012013091278CCROJ19     070CCRO        ON      NM000R$  000000000002000000000000200000000000020000000000002000000000000200000000000000000000000000000001000000000000009000000000000000180000000000000190002013102100000010000000000000BRCCROACNOR2122
012013091202CCXC3       010CCX CARVAO  ON      NM   R$  000000000015500000000001620000000000153000000000015700000000001570000000000156000000000015701119000000000003168900000000000498168900000000000000009999123100000010000000000000BRCCXCACNOR5100
012013091296CCXC3F      020CCX CARVAO  ON      NM   R$  000000000015900000000001620000000000155000000000015700000000001570000000000144000000000015700014000000000000000496000000000000078103000000000000009999123100000010000000000000BRCCXCACNOR5100
012013091202CEBR6       010CEB         PNB          R$  000000000160000000000016000000000001600000000000160000000000016000000000001500000000000169900007000000000000020000000000000032000000000000000000009999123100000010000000000000BRCEBRACNPB6113
012013091202CEED4       010CEEE-D      PN      N1   R$  000000000013600000000001360000000000136000000000013600000000001360000000000136000000000016000001000000000000000100000000000000013600000000000000009999123100000010000000000000BRCEEDACNPR6101
012013091208CELP3       010CELPA       ON           R$  000000000007000000000000700000000000070000000000007000000000000700000000000068000000000007500005000000000000082000000000000005740000000000000000009999123100000010000000000000BRCELPACNOR8112
012013091212CEOC11B     010FII CEO CCP CI  ER  MB   R$  000000000845500000000084990000000008303000000000838700000000084450000000008400000000000844500033000000000000001654000000000013873507000000000000009999123100000010000000000000BRCEOCCTF003110
012013091202CESP6       010CESP        PNB     N1   R$  000000000229500000000023210000000002280000000000230000000000023090000000002299000000000230903337000000000000622600000000001432119900000000000000009999123100000010000000000000BRCESPACNPB4119
012013091296CESP6F      020CESP        PNB     N1   R$  000000000231800000000023200000000002273000000000229700000000022820000000002281000000000230000023000000000000000629000000000001445099000000000000009999123100000010000000000000BRCESPACNPB4119
012013091202CGAS3       010COMGAS      ON           R$  000000000540000000000054000000000005400000000000540000000000054000000000005350000000000546100001000000000000000100000000000000540000000000000000009999123100000010000000000000BRCGASACNOR0132
012013091296CGAS3F      020COMGAS      ON           R$  000000000513000000000052850000000005130000000000527300000000052850000000004200000000000528500004000000000000000045000000000000237326000000000000009999123100000010000000000000BRCGASACNOR0132
012013091202CGAS5       010COMGAS      PNA          R$  000000000583200000000059280000000005832000000000586700000000059000000000005869000000000590000103000000000000013500000000000079212400000000000000009999123100000010000000000000BRCGASACNPA3129
012013091296CGAS5F      020COMGAS      PNA          R$  000000000583700000000059000000000005752000000000580100000000059000000000005752000000000590000006000000000000000131000000000000759964000000000000009999123100000010000000000000BRCGASACNPA3129
012013091202CGRA3       010GRAZZIOTIN  ON           R$  000000000162900000000016300000000001629000000000162900000000016300000000001601000000000171400002000000000000000200000000000000325900000000000000009999123100000010000000000000BRCGRAACNOR2061
012013091202CGRA4       010GRAZZIOTIN  PN           R$  000000000178000000000017850000000001780000000000178300000000017850000000001760000000000178500012000000000000003100000000000005528500000000000000009999123100000010000000000000BRCGRAACNPR9061
012013091296CGRA4F      020GRAZZIOTIN  PN           R$  000000000180000000000018000000000001800000000000180000000000018000000000001700000000000180000001000000000000000018000000000000032400000000000000009999123100000010000000000000BRCGRAACNPR9061
012013091202CIEL3       010CIELO       ON      NM   R$  000000000569100000000057470000000005650000000000569800000000057020000000005702000000000570305219000000000001185700000000006756338300000000000000009999123100000010000000000000BRCIELACNOR3111
012013091296CIEL3F      020CIELO       ON      NM   R$  000000000573100000000057550000000005652000000000569700000000057210000000005670000000000574000107000000000000002984000000000017002019000000000000009999123100000010000000000000BRCIELACNOR3111
012013091262CIEL3S      030CIELO       ON      NM090R$  000000000578900000000057900000000005789000000000578900000000057900000000000000000000000000000002000000000000000500000000000002894916000000000000009999123100000010000000000000BRCIELACNOR3111
012013091262CIEL3T      030CIELO       ON      NM018R$  000000000571700000000057180000000005717000000000571700000000057180000000000000000000000000000002000000000000000200000000000001143409000000000000009999123100000010000000000000BRCIELACNOR3111
012013091262CIEL3T      030CIELO       ON      NM060R$  000000000583500000000058360000000005835000000000583500000000058360000000000000000000000000000002000000000000000400000000000002334325000000000000009999123100000010000000000000BRCIELACNOR3111
012013091278CIELI57     070CIEL        ON      NM000R$  000000000007100000000000710000000000071000000000007100000000000710000000000000000000000000000001000000000000000300000000000000021300000000000570002013091600000010000000000000BRCIELACNOR3111
012013091278CIELJ58     070CIEL        ON      NM000R$  000000000013300000000001330000000000133000000000013300000000001330000000000000000000000000000001000000000000000300000000000000039900000000000580002013102100000010000000000000BRCIELACNOR3111
012013091202CLSC4       010CELESC      PN      N2   R$  000000000179900000000018100000000001775000000000178900000000017750000000001770000000000177500041000000000000006000000000000010738300000000000000009999123100000010000000000000BRCLSCACNPR3107
012013091202CMIG3       010CEMIG       ON      N1   R$  000000000187300000000018910000000001865000000000187900000000018770000000001863000000000187700191000000000000038100000000000071609700000000000000009999123100000010000000000000BRCMIGACNOR6208
012013091296CMIG3F      020CEMIG       ON      N1   R$  000000000197000000000019700000000001864000000000189100000000018640000000001864000000000194700033000000000000000889000000000001681392000000000000009999123100000010000000000000BRCMIGACNOR6208
012013091202CMIG4       010CEMIG       PN      N1   R$  000000000190200000000019150000000001857000000000187300000000018570000000001856000000000185708943000000000003006500000000005633496300000000000000009999123100000010000000000000BRCMIGACNPR3208
012013091296CMIG4F      020CEMIG       PN      N1   R$  000000000191900000000019190000000001855000000000187700000000018900000000001856000000000189000158000000000000003744000000000007030828000000000000009999123100000010000000000000BRCMIGACNPR3208
012013091262CMIG4T      030CEMIG       PN      N1018R$  000000000190000000000019010000000001899000000000189900000000019000000000000000000000000000000004000000000000007000000000000013299834000000000000009999123100000010000000000000BRCMIGACNPR3208
012013091262CMIG4T      030CEMIG       PN      N1040R$  000000000188200000000018830000000001882000000000188200000000018830000000000000000000000000000002000000000000003000000000000005648152000000000000009999123100000010000000000000BRCMIGACNPR3208
012013091262CMIG4T      030CEMIG       PN      N1060R$  000000000191100000000019120000000001911000000000191100000000019120000000000000000000000000000002000000000000002000000000000003823676000000000000009999123100000010000000000000BRCMIGACNPR3208
012013091278CMIGJ21     070CMIG        PN      N1000R$  000000000001500000000000150000000000015000000000001500000000000150000000000000000000000001500002000000000000001500000000000000022500000000000210002013102100000010000000000000BRCMIGACNPR3208
012013091212CNES11B     010FII CENESP  CI      MB   R$  000000001215000000000122000000000012150000000001219900000000122000000000012210000000001230000009000000000000003228000000000039380350000000000000009999123100000010000000000000BRCNESCTF001125
012013091202COCE3       010COELCE      ON           R$  000000000413500000000041980000000004000000000000406600000000040980000000004098000000000413600033000000000000007400000000000030095400000000000000009999123100000010000000000000BRCOCEACNOR0132
012013091202COCE5       010COELCE      PNA          R$  000000000400900000000040650000000003954000000000398500000000039800000000003980000000000398100292000000000000081400000000000324439600000000000000009999123100000010000000000000BRCOCEACNPA3133
012013091296COCE5F      020COELCE      PNA          R$  000000000419400000000041940000000003970000000000403900000000039700000000003970000000000406900014000000000000000089000000000000359500000000000000009999123100000010000000000000BRCOCEACNPA3133
012013091202CPFE3       010CPFL ENERGIAON      NM   R$  000000000197000000000019700000000001941000000000195400000000019600000000001960000000000196104842000000000000993300000000001941260700000000000000009999123100000010000000000000BRCPFEACNOR0122
012013091296CPFE3F      020CPFL ENERGIAON      NM   R$  000000000190800000000020070000000001908000000000194300000000020070000000001911000000000200900026000000000000000544000000000001057331000000000000009999123100000010000000000000BRCPFEACNOR0122
012013091262CPFE3T      030CPFL ENERGIAON      NM032R$  000000000197800000000019790000000001978000000000197800000000019790000000000000000000000000000002000000000000001000000000000001978534000000000000009999123100000010000000000000BRCPFEACNOR0122
012013091202CPLE3       010COPEL       ON      N1   R$  000000000219800000000021980000000002182000000000218500000000021850000000002168000000000218500038000000000000009900000000000021637200000000000000009999123100000010000000000000BRCPLEACNOR8128
012013091296CPLE3F      020COPEL       ON      N1   R$  000000000223000000000022300000000002126000000000215500000000021260000000002126000000000239400005000000000000000115000000000000247860000000000000009999123100000010000000000000BRCPLEACNOR8128
012013091202CPLE5       010COPEL       PNA     N1   R$  000000000300000000000030000000000003000000000000300000000000030000000000002708000000000000000001000000000000000100000000000000300000000000000000009999123100000010000000000000BRCPLEACNPA1126
012013091202CPLE6       010COPEL       PNB     N1   R$  000000000308900000000031130000000003036000000000307300000000030590000000003050000000000305902779000000000000643700000000001978447200000000000000009999123100000010000000000000BRCPLEACNPB9125
012013091296CPLE6F      020COPEL       PNB     N1   R$  000000000309100000000030910000000002915000000000307400000000029150000000003040000000000313900007000000000000000182000000000000559551000000000000009999123100000010000000000000BRCPLEACNPB9125
012013091202CPRE3       010CPFL RENOVAVON      NM   R$  000000000119900000000012080000000001199000000000120300000000012050000000001181000000000120800013000000000000004800000000000005777000000000000000009999123100000010000000000000BRCPREACNOR5100
012013091296CPRE3F      020CPFL RENOVAVON      NM   R$  000000000119100000000011910000000001191000000000119100000000011910000000001191000000000120000001000000000000000039000000000000046449000000000000009999123100000010000000000000BRCPREACNOR5100
012013091202CRDE3       010CR2         ON      NM   R$  000000000041600000000004220000000000415000000000042100000000004150000000000415000000000042200027000000000000002700000000000001138100000000000000009999123100000010000000000000BRCRDEACNOR1108
012013091202CREM3       010CREMER      ON      NM   R$  000000000144600000000014700000000001446000000000145100000000014640000000001423000000000146400023000000000000019400000000000028150100000000000000009999123100000010000000000000BRCREMACNOR2167
012013091202CRIV3       010ALFA FINANC ON           R$  000000000050000000000005000000000000481000000000049700000000004990000000000480000000000050000008000000000000007100000000000003530900000000000000009999123100000010000000000000BRCRIVACNOR4190
012013091202CRIV4       010ALFA FINANC PN           R$  000000000047700000000004770000000000445000000000045200000000004450000000000445000000000045800052000000000000072300000000000032689400000000000000009999123100000010000000000000BRCRIVACNPR1190
012013091202CRUZ3       010SOUZA CRUZ  ON           R$  000000000270100000000027130000000002691000000000269800000000027090000000002695000000000270905902000000000004182900000000011287709900000000000000009999123100000010000000000000BRCRUZACNOR0246
012013091296CRUZ3F      020SOUZA CRUZ  ON           R$  000000000260100000000027200000000002601000000000269400000000026910000000002691000000000271000040000000000000000904000000000002435982000000000000009999123100000010000000000000BRCRUZACNOR0246
012013091262CRUZ3T      030SOUZA CRUZ  ON        032R$  000000000272200000000027230000000002722000000000272200000000027230000000000000000000000000000002000000000000000500000000000001361403000000000000009999123100000010000000000000BRCRUZACNOR0246
012013091202CSAN3       010COSAN       ON      NM   R$  000000000428100000000043300000000004252000000000428800000000043000000000004283000000000430604248000000000000867600000000003720473300000000000000009999123100000010000000000000BRCSANACNOR6108
012013091296CSAN3F      020COSAN       ON      NM   R$  000000000440000000000044000000000004200000000000429500000000043490000000004275000000000435000036000000000000000801000000000003441088000000000000009999123100000010000000000000BRCSANACNOR6108
012013091262CSAN3T      030COSAN       ON      NM120R$  000000000442000000000044210000000004420000000000442000000000044210000000000000000000000000000002000000000000001000000000000004420138000000000000009999123100000010000000000000BRCSANACNOR6108
012013091278CSANI41     070CSAN        ON      NM000R$  000000000019100000000001910000000000191000000000019100000000001910000000000000000000000000000001000000000000000200000000000000038200000000000410002013091600000010000000000000BRCSANACNOR6108
012013091278CSANJ42     070CSAN        ON      NM000R$  000000000019700000000001970000000000197000000000019700000000001970000000000000000000000000000001000000000000000200000000000000039400000000000420002013102100000010000000000000BRCSANACNOR6108
012013091278CSANJ46     070CSAN        ON      NM000R$  000000000002600000000000260000000000026000000000002600000000000260000000000000000000000000000002000000000000001500000000000000039000000000000460002013102100000010000000000000BRCSANACNOR6108
012013091202CSMG3       010COPASA      ON      NM   R$  000000000312300000000031800000000003094000000000312000000000031000000000003100000000000310801160000000000000160000000000000499352700000000000000009999123100000010000000000000BRCSMGACNOR5127
012013091296CSMG3F      020COPASA      ON      NM   R$  000000000313000000000032800000000003115000000000314300000000032800000000002882000000000328000022000000000000000454000000000001427041000000000000009999123100000010000000000000BRCSMGACNOR5127
012013091214CSMO11      010ISHARES CSMOCI           R$  000000000480600000000048060000000004806000000000480600000000048060000000004600000000000610000001000000000000000200000000000000961200000000000000009999123100000010000000000000BRCSMOCTF002100
012013091202CSNA3       010SID NACIONALON           R$  000000000093700000000009480000000000930000000000093800000000009360000000000935000000000093611074000000000005676700000000005325451200000000000000009999123100000010000000000000BRCSNAACNOR6243
012013091296CSNA3F      020SID NACIONALON           R$  000000000093800000000009470000000000933000000000093700000000009390000000000930000000000094700051000000000000001552000000000001455672000000000000009999123100000010000000000000BRCSNAACNOR6243
012013091262CSNA3T      030SID NACIONALON        032R$  000000000094700000000009480000000000947000000000094700000000009480000000000000000000000000000002000000000000002500000000000002369438000000000000009999123100000010000000000000BRCSNAACNOR6243
012013091262CSNA3T      030SID NACIONALON        090R$  000000000096300000000009670000000000963000000000096400000000009670000000000000000000000000000006000000000000002700000000000002604572000000000000009999123100000010000000000000BRCSNAACNOR6243
012013091278CSNAI10     070CSNA        ON        000R$  000000000000100000000000010000000000001000000000000100000000000010000000000000000000000006500003000000000000018100000000000000018100000000000100002013091600000010000000000000BRCSNAACNOR6243
012013091278CSNAI20     070CSNA        ON        000R$  000000000000100000000000010000000000001000000000000100000000000010000000000000000000000000000001000000000000003700000000000000003700000000000102002013091600000010000000000000BRCSNAACNOR6243
012013091278CSNAI7      070CSNA        ON        000R$  000000000026400000000002640000000000259000000000025900000000002590000000000235000000000000000004000000000000004600000000000001195400000000000068002013091600000010000000000000BRCSNAACNOR6242
012013091278CSNAI76     070CSNA        ON        000R$  000000000020000000000002000000000000200000000000020000000000002000000000000000000000000000000002000000000000010000000000000002000000000000000074002013091600000010000000000000BRCSNAACNOR6242
012013091278CSNAI8      070CSNA        ON        000R$  000000000016300000000001650000000000161000000000016300000000001650000000000000000000000000000003000000000000004400000000000000717200000000000078002013091600000010000000000000BRCSNAACNOR6242
012013091278CSNAI82     070CSNA        ON        000R$  000000000014000000000001400000000000138000000000013800000000001390000000000000000000000000000004000000000000003900000000000000541100000000000080002013091600000010000000000000BRCSNAACNOR6242
012013091278CSNAI84     070CSNA        ON        000R$  000000000009700000000001050000000000097000000000010100000000001000000000000094000000000000000008000000000000006500000000000000658500000000000084002013091600000010000000000000BRCSNAACNOR6243
012013091278CSNAI88     070CSNA        ON        000R$  000000000006700000000000670000000000063000000000006300000000000630000000000000000000000000000006000000000000008600000000000000548600000000000088002013091600000010000000000000BRCSNAACNOR6243
012013091278CSNAI9      070CSNA        ON        000R$  000000000005400000000000540000000000043000000000004700000000000470000000000041000000000000000016000000000000049000000000000002316700000000000090002013091600000010000000000000BRCSNAACNOR6243
012013091278CSNAI92     070CSNA        ON        000R$  000000000003200000000000320000000000025000000000002700000000000250000000000012000000000000000003000000000000006000000000000000162000000000000092002013091600000010000000000000BRCSNAACNOR6243
012013091278CSNAI94     070CSNA        ON        000R$  000000000002000000000000200000000000020000000000002000000000000200000000000000000000000000000001000000000000001000000000000000020000000000000094002013091600000010000000000000BRCSNAACNOR6243
012013091278CSNAI96     070CSNA        ON        000R$  000000000000800000000000080000000000006000000000000600000000000060000000000000000000000000800003000000000000006700000000000000046200000000000096002013091600000010000000000000BRCSNAACNOR6243
012013091278CSNAI98     070CSNA        ON        000R$  000000000000300000000000030000000000003000000000000300000000000030000000000001000000000000400003000000000000020000000000000000060000000000000098002013091600000010000000000000BRCSNAACNOR6243
012013091278CSNAJ10     070CSNA  FM    ON        000R$  000000000003200000000000320000000000028000000000002900000000000280000000000025000000000003200004000000000000004100000000000000122800000000000100002013102100000010000000000000BRCSNAACNOR6243
012013091278CSNAJ7      070CSNA        ON        000R$  000000000026700000000002670000000000261000000000026400000000002610000000000000000000000027100006000000000000004600000000000001218700000000000068002013102100000010000000000000BRCSNAACNOR6242
012013091278CSNAJ74     070CSNA        ON        000R$  000000000020400000000002040000000000204000000000020400000000002040000000000180000000000000000002000000000000010000000000000002040000000000000074002013102100000010000000000000BRCSNAACNOR6243
012013091278CSNAJ8      070CSNA        ON        000R$  000000000017000000000001700000000000170000000000017000000000001700000000000000000000000017500001000000000000001000000000000000170000000000000078002013102100000010000000000000BRCSNAACNOR6242
012013091278CSNAJ82     070CSNA        ON        000R$  000000000015200000000001520000000000152000000000015200000000001520000000000000000000000000000001000000000000000900000000000000136800000000000080002013102100000010000000000000BRCSNAACNOR6242
012013091278CSNAJ86     070CSNA        ON        000R$  000000000011800000000001200000000000118000000000011800000000001200000000000102000000000000000002000000000000002300000000000000272600000000000084002013102100000010000000000000BRCSNAACNOR6242
012013091278CSNAJ9      070CSNA        ON        000R$  000000000009600000000000960000000000090000000000009000000000000900000000000000000000000010500002000000000000002600000000000000235200000000000088002013102100000010000000000000BRCSNAACNOR6242
012013091278CSNAJ92     070CSNA  FM    ON        000R$  000000000007100000000000710000000000065000000000006500000000000650000000000000000000000000000004000000000000012600000000000000828600000000000092002013102100000010000000000000BRCSNAACNOR6243
012013091278CSNAJ94     070CSNA  FM    ON        000R$  000000000005800000000000580000000000055000000000005500000000000550000000000000000000000010000005000000000000003300000000000000182300000000000094002013102100000010000000000000BRCSNAACNOR6243
012013091278CSNAJ96     070CSNA  FM    ON        000R$  000000000004500000000000450000000000045000000000004500000000000450000000000000000000000000000001000000000000001000000000000000045000000000000096002013102100000010000000000000BRCSNAACNOR6243
012013091278CSNAJ98     070CSNA  FM    ON        000R$  000000000003500000000000380000000000035000000000003500000000000380000000000034000000000000000003000000000000007000000000000000251000000000000098002013102100000010000000000000BRCSNAACNOR6243
012013091278CSNAK60     070CSNA        ON        000R$  000000000002800000000000280000000000025000000000002700000000000250000000000000000000000000000081000000000000290000000000000007881500000000000106002013111800000010000000000000BRCSNAACNOR6243
012013091278CSNAK88     070CSNA        ON        000R$  000000000010500000000001050000000000105000000000010500000000001050000000000000000000000000000006000000000000005600000000000000588000000000000088002013111800000010000000000000BRCSNAACNOR6243
012013091278CSNAK9      070CSNA        ON        000R$  000000000009300000000000930000000000093000000000009300000000000930000000000000000000000000000001000000000000000400000000000000037200000000000090002013111800000010000000000000BRCSNAACNOR6243
012013091278CSNAK92     070CSNA  FM    ON        000R$  000000000008500000000000860000000000085000000000008500000000000860000000000000000000000000000003000000000000010400000000000000891000000000000092002013111800000010000000000000BRCSNAACNOR6243
012013091278CSNAK94     070CSNA  FM    ON        000R$  000000000007500000000000750000000000075000000000007500000000000750000000000000000000000000000002000000000000007000000000000000525000000000000094002013111800000010000000000000BRCSNAACNOR6243
012013091278CSNAK96     070CSNA  FM    ON        000R$  000000000006500000000000650000000000065000000000006500000000000650000000000000000000000000000003000000000000006500000000000000422500000000000096002013111800000010000000000000BRCSNAACNOR6243
012013091282CSNAU8      080CSNAE       ON        000R$  000000000000100000000000010000000000001000000000000100000000000010000000000000000000000000100001000000000000002900000000000000002900000000000078002013091600000010000000000000BRCSNAACNOR6242
012013091282CSNAU82     080CSNAE       ON        000R$  000000000000100000000000010000000000001000000000000100000000000010000000000001000000000000000001000000000000000200000000000000000200000000000080002013091600000010000000000000BRCSNAACNOR6242
012013091282CSNAU84     080CSNAE       ON        000R$  000000000000200000000000020000000000002000000000000200000000000020000000000000000000000000000001000000000000000300000000000000000600000000000084002013091600000010000000000000BRCSNAACNOR6243
012013091282CSNAU9      080CSNAE       ON        000R$  000000000000600000000000080000000000005000000000000500000000000060000000000003000000000000600019000000000000019700000000000000113600000000000090002013091600000010000000000000BRCSNAACNOR6243
012013091282CSNAV9      080CSNAE FM    ON        000R$  000000000003000000000000300000000000029000000000002900000000000290000000000029000000000005100084000000000000044800000000000001330200000000000088002013102100000010000000000000BRCSNAACNOR6242
012013091282CSNAW9      080CSNAE FM    ON        000R$  000000000004800000000000480000000000047000000000004700000000000470000000000000000000000000000003000000000000005600000000000000268000000000000090002013111800000010000000000000BRCSNAACNOR6243
012013091282CSNAW92     080CSNAE FM    ON        000R$  000000000005500000000000550000000000055000000000005500000000000550000000000000000000000000000001000000000000002400000000000000132000000000000092002013111800000010000000000000BRCSNAACNOR6243
012013091282CSNAW94     080CSNAE FM    ON        000R$  000000000006600000000000660000000000066000000000006600000000000660000000000000000000000000000001000000000000002400000000000000158400000000000094002013111800000010000000000000BRCSNAACNOR6243
012013091282CSNAW96     080CSNAE FM    ON        000R$  000000000007600000000000760000000000076000000000007600000000000760000000000000000000000000000001000000000000001000000000000000076000000000000096002013111800000010000000000000BRCSNAACNOR6243
012013091202CTAX11      010CONTAX      UNT     N2   R$  000000000180700000000019010000000001807000000000186400000000018980000000001855000000000189800062000000000000032200000000000060025400000000000000009999123100000010000000000000BRCTAXCDAM19100
012013091296CTAX11F     020CONTAX      UNT     N2   R$  000000000182000000000018250000000001820000000000182200000000018250000000001615000000000198800002000000000000000068000000000000123960000000000000009999123100000010000000000000BRCTAXCDAM19100
012013091202CTAX3       010CONTAX      ON      N2   R$  000000000038800000000003880000000000384000000000038400000000003840000000000350000000000038500005000000000000002600000000000001000200000000000000009999123100000010000000000000BRCTAXACNOR3113
012013091202CTAX4       010CONTAX      PN      N2   R$  000000000036200000000003690000000000357000000000036500000000003690000000000360000000000036900072000000000000050600000000000018489300000000000000009999123100000010000000000000BRCTAXACNPR0114
012013091202CTIP3       010CETIP       ON      NM   R$  000000000234700000000023810000000002318000000000235900000000023690000000002364000000000237107820000000000002709200000000006393036800000000000000009999123100000010000000000000BRCTIPACNOR2119
012013091296CTIP3F      020CETIP       ON      NM   R$  000000000235800000000023990000000002307000000000235200000000023100000000002315000000000238800022000000000000000711000000000001672625000000000000009999123100000010000000000000BRCTIPACNOR2119
012013091202CTKA4       010KARSTEN     PN           R$  000000000009500000000000950000000000095000000000009500000000000950000000000090000000000009600001000000000000000300000000000000028500000000000000009999123100000010000000000000BRCTKAACNPR7041
012013091202CTNM4       010COTEMINAS   PN           R$  000000000023900000000002390000000000239000000000023900000000002390000000000233000000000023900001000000000000000500000000000000119500000000000000009999123100000010000000000000BRCTNMACNPR6128
012013091202CTSA3       010SANTANENSE  ON           R$  000000000055400000000005540000000000554000000000055400000000005540000000000553000000000057400001000000000000000100000000000000055400000000000000009999123100000010000000000000BRCTSAACNOR3051
012013091212CXTL11      010FII CX TRX  CI           R$  000000007300000000000730000000000072000000000007257100000000720000000000071166000000007200100004000000000000000007000000000000508002000000000000009999123100000010000000000000BRCXTLCTF003122
012013091202CYRE3       010CYRELA REALTON      NM   R$  000000000168300000000016890000000001644000000000166400000000016700000000001668000000000167005427000000000001542700000000002568316900000000000000009999123100000010000000000000BRCYREACNOR7125
012013091296CYRE3F      020CYRELA REALTON      NM   R$  000000000168800000000016880000000001626000000000165800000000016840000000001651000000000168400017000000000000000517000000000000858097000000000000009999123100000010000000000000BRCYREACNOR7125
012013091278CYREI16     070CYRE        ON      NM000R$  000000000005800000000000750000000000058000000000005900000000000750000000000000000000000000000007000000000000024500000000000001469900000000000160002013091600000010000000000000BRCYREACNOR7125
012013091278CYREI46     070CYRE        ON      NM000R$  000000000004200000000000420000000000018000000000002000000000000240000000000000000000000000000014000000000000026400000000000000528700000000000165002013091600000010000000000000BRCYREACNOR7125
012013091278CYREJ16     070CYRE  FM    ON      NM000R$  000000000011100000000001110000000000110000000000011000000000001100000000000000000000000000000002000000000000003700000000000000410500000000000160002013102100000010000000000000BRCYREACNOR7125
012013091278CYREJ18     070CYRE  FM    ON      NM000R$  000000000002000000000000200000000000020000000000002000000000000200000000000000000000000000000003000000000000002200000000000000044000000000000180002013102100000010000000000000BRCYREACNOR7125
