00COTAHIST.2013BOVESPA 20130702                                                                                                                                                                                                                      
012013070202AAPL11B     010APPLE       DRN     MB   R$  000000000936100000000093610000000009361000000000936100000000093610000000009355000000000946000001000000000000001500000000000014041500000000000000009999123100000010000000000000BRAAPLBDR004104
012013070202ABCB4       010ABC BRASIL  PN  EJS N2   R$  000000000133800000000013590000000001293000000000132500000000013000000000001300000000000130300718000000000000304300000000000403201000000000000000009999123100000010000000000000BRABCBACNPR4120
012013070296ABCB4F      020ABC BRASIL  PN  EJS N2   R$  000000000133000000000013300000000001271000000000130200000000013210000000001207000000000132100011000000000000000286000000000000372463000000000000009999123100000010000000000000BRABCBACNPR4120
012013070212ABCP11      010FII ABC IMOBCI  ER       R$  000000000095000000000009500000000000950000000000095000000000009500000000000880000000000096200002000000000000000025000000000000023750000000000000009999123100000010000000000000BRABCPCTF000213
012013070202ABRE11      010ABRIL EDUCA UNT     N2   R$  000000000391200000000039120000000003799000000000384300000000038220000000003822000000000385000417000000000000073200000000000281319200000000000000009999123100000010000000000000BRABRECDAM15102
012013070296ABRE11F     020ABRIL EDUCA UNT     N2   R$  000000000384500000000038910000000003814000000000383500000000038240000000003664000000000388400010000000000000000262000000000001004976000000000000009999123100000010000000000000BRABRECDAM15102
012013070202AEDU3       010ANHANGUERA  ON      NM   R$  000000000130000000000013080000000001245000000000128500000000012500000000001250000000000125105806000000000002609700000000003353936000000000000000009999123100000010000000000000BRAEDUACNOR9107
012013070296AEDU3F      020ANHANGUERA  ON      NM   R$  000000000130200000000013020000000001230000000000126400000000012470000000001241000000000132500025000000000000000881000000000001112557000000000000009999123100000010000000000000BRAEDUACNOR9107
012013070212AEFI11      010FII AESAPAR CI  ER       R$  000000001211200000000122000000000012112000000001219100000000121900000000012190000000001220000021000000000000000698000000000008509538000000000000009999123100000010000000000000BRAEFICTF002119
012013070202AELP3       010AES ELPA    ON           R$  000000000071100000000007490000000000710000000000071200000000007390000000000673000000000073800006000000000000002500000000000001782100000000000000009999123100000010000000000000BRAELPACNOR2119
012013070296AELP3F      020AES ELPA    ON           R$  000000000080000000000008000000000000788000000000079100000000007880000000000700000000000199900004000000000000000032000000000000025312000000000000009999123100000010000000000000BRAELPACNOR2119
012013070212AGCX11      010FII AG CAIXACI  ER       R$  000000010100000000001010000000000100500000000010096900000001005000000000100000000000010050000006000000000000000081000000000008178500000000000000009999123100000010000000000000BRAGCXCTF003108
012013070202AGEN11      010AGRENCO     DR3          R$  000000000004300000000000460000000000041000000000004300000000000410000000000041000000000004200337000000000004068900000000000176990800000000000000009999123100000010000000000000BRAGENBDR001100
012013070296AGEN11F     020AGRENCO     DR3          R$  000000000003100000000000380000000000031000000000003400000000000380000000000033000000000005400002000000000000000048000000000000001656000000000000009999123100000010000000000000BRAGENBDR001100
012013070202AGRO3       010BRASILAGRO  ON      NM   R$  000000000111000000000011100000000001079000000000109000000000010900000000001074000000000109000023000000000000009600000000000010469200000000000000009999123100000010000000000000BRAGROACNOR7102
012013070296AGRO3F      020BRASILAGRO  ON      NM   R$  000000000110000000000011000000000001085000000000109100000000010850000000001085000000000114900004000000000000000100000000000000109175000000000000009999123100000010000000000000BRAGROACNOR7102
012013070202ALLL3       010ALL AMER LATON      NM   R$  000000000092900000000009480000000000898000000000092500000000009100000000000909000000000091406359000000000002270800000000002100881700000000000000009999123100000010000000000000BRALLLACNOR6118
012013070296ALLL3F      020ALL AMER LATON      NM   R$  000000000093800000000009450000000000900000000000092400000000009060000000000905000000000092900066000000000000001939000000000001791239000000000000009999123100000010000000000000BRALLLACNOR6118
012013070278ALLLH10     070ALLL        ON      NM000R$  000000000001200000000000120000000000012000000000001200000000000120000000000000000000000000000001000000000000841000000000000010092000000000000100002013081900000010000000000000BRALLLACNOR6118
012013070278ALLLL11     070ALLL        ON      NM000R$  000000000002500000000000250000000000025000000000002500000000000250000000000000000000000000000001000000000000008000000000000000200000000000000110002013121600000010000000000000BRALLLACNOR6118
012013070282ALLLT38     080ALLLE       ON      NM000R$  000000000001400000000000140000000000014000000000001400000000000140000000000000000000000000000001000000000000841000000000000011774000000000000085002013081900000010000000000000BRALLLACNOR6118
012013070282ALLLT9      080ALLLE       ON      NM000R$  000000000003100000000000320000000000031000000000003100000000000320000000000000000000000000000002000000000000841000000000000026491500000000000090002013081900000010000000000000BRALLLACNOR6118
012013070282ALLLX75     080ALLLE       ON      NM000R$  000000000000900000000000090000000000009000000000000900000000000090000000000000000000000000000001000000000000008000000000000000072000000000000075002013121600000010000000000000BRALLLACNOR6118
012013070282ALLLX9      080ALLLE       ON      NM000R$  000000000004000000000000400000000000040000000000004000000000000400000000000000000000000000000001000000000000008000000000000000320000000000000090002013121600000010000000000000BRALLLACNOR6118
012013070212ALMI11B     010FII TORRE ALCI  ER  MB   R$  000000033000000000003300000000000320000000000032504100000003200000000000320500000000032979000011000000000000000020000000000006500827000000000000009999123100000010000000000000BRALMICTF003203
012013070202ALPA3       010ALPARGATAS  ON      N1   R$  000000000107500000000011080000000001061000000000109700000000010990000000001060000000000110000012000000000000043400000000000047651500000000000000009999123100000010000000000000BRALPAACNOR0202
012013070296ALPA3F      020ALPARGATAS  ON      N1   R$  000000000120000000000012000000000001000000000000104000000000010000000000000930000000000119900003000000000000000010000000000000010400000000000000009999123100000010000000000000BRALPAACNOR0202
012013070202ALPA4       010ALPARGATAS  PN      N1   R$  000000000146900000000014930000000001375000000000143600000000013940000000001382000000000139401890000000000000878400000000001261649400000000000000009999123100000010000000000000BRALPAACNPR7202
012013070296ALPA4F      020ALPARGATAS  PN      N1   R$  000000000143500000000014890000000001383000000000143200000000014000000000001380000000000140000053000000000000001449000000000002075156000000000000009999123100000010000000000000BRALPAACNPR7202
012013070262ALPA4T      030ALPARGATAS  PN      N1030R$  000000000139400000000013940000000001394000000000139400000000013940000000000000000000000000000001000000000000000100000000000000139400000000000000009999123100000010000000000000BRALPAACNPR7202
012013070202ALSC3       010ALIANSCE    ON      NM   R$  000000000191900000000019320000000001818000000000187700000000018460000000001846000000000184702183000000000000500800000000000940108900000000000000009999123100000010000000000000BRALSCACNOR0104
012013070296ALSC3F      020ALIANSCE    ON      NM   R$  000000000188800000000018880000000001823000000000184000000000018380000000001811000000000211700007000000000000000249000000000000458349000000000000009999123100000010000000000000BRALSCACNOR0104
012013070202ALUP11      010ALUPAR      UNT     N2   R$  000000000189900000000019070000000001815000000000185400000000018210000000001821000000000182400456000000000000128800000000000238843400000000000000009999123100000010000000000000BRALUPCDAM15100
012013070296ALUP11F     020ALUPAR      UNT     N2   R$  000000000190200000000019460000000001824000000000187100000000018350000000001826000000000185000071000000000000002499000000000004676420000000000000009999123100000010000000000000BRALUPCDAM15100
012013070202AMAR3       010LOJAS MARISAON      NM   R$  000000000230000000000023100000000002203000000000223700000000022300000000002230000000000224301363000000000000267300000000000598043100000000000000009999123100000010000000000000BRAMARACNOR4109
012013070296AMAR3F      020LOJAS MARISAON      NM   R$  000000000239600000000023960000000002190000000000227900000000022390000000002139000000000223900016000000000000000514000000000001171429000000000000009999123100000010000000000000BRAMARACNOR4109
012013070202AMBV3       010AMBEV       ON           R$  000000000823800000000083300000000008096000000000817200000000081200000000008120000000000812401144000000000000239300000000001955505500000000000000009999123100000010000000000000BRAMBVACNOR4153
012013070296AMBV3F      020AMBEV       ON           R$  000000000822700000000083100000000008000000000000820200000000080000000000007901000000000835700053000000000000001173000000000009620830000000000000009999123100000010000000000000BRAMBVACNOR4153
012013070262AMBV3T      030AMBEV       ON        120R$  000000000836300000000083640000000008363000000000836300000000083640000000000000000000000000000002000000000000002000000000000016727253000000000000009999123100000010000000000000BRAMBVACNOR4153
012013070202AMBV4       010AMBEV       PN           R$  000000000833900000000084440000000008125000000000824000000000081640000000008164000000000817808344000000000001781900000000014683425800000000000000009999123100000010000000000000BRAMBVACNPR1153
012013070296AMBV4F      020AMBEV       PN           R$  000000000838600000000084990000000008071000000000828500000000080710000000008032000000000815000196000000000000004591000000000038024855000000000000009999123100000010000000000000BRAMBVACNPR1153
012013070262AMBV4T      030AMBEV       PN        016R$  000000000847600000000084770000000008347000000000842200000000083480000000000000000000000000000004000000000000001900000000000016002254000000000000009999123100000010000000000000BRAMBVACNPR1153
012013070262AMBV4T      030AMBEV       PN        030R$  000000000826400000000082650000000008198000000000825000000000082270000000000000000000000000000008000000000000000900000000000007425858000000000000009999123100000010000000000000BRAMBVACNPR1153
012013070278AMBVG84     070AMBV        PN        000R$  000000000013000000000001300000000000130000000000013000000000001300000000000030000000000000000003000000000000008000000000000001040000000000000840002013071500000010000000000000BRAMBVACNPR1153
012013070278AMBVG87     070AMBV        PN        000R$  000000000003100000000000310000000000031000000000003100000000000310000000000000000000000000000001000000000000000600000000000000018600000000000870002013071500000010000000000000BRAMBVACNPR1153
012013070278AMBVH86     070AMBV        PN        000R$  000000000015000000000002400000000000150000000000020200000000002200000000000000000000000000000016000000000000008700000000000001763500000000000860002013081900000010000000000000BRAMBVACNPR1153
012013070278AMBVH88     070AMBV        PN        000R$  000000000016500000000001650000000000165000000000016500000000001650000000000000000000000016400003000000000000000300000000000000049500000000000880002013081900000010000000000000BRAMBVACNPR1153
012013070282AMBVU81     080AMBVE       PN        000R$  000000000027000000000002700000000000270000000000027000000000002700000000000000000000000000000001000000000000000700000000000000189000000000000810002013091600000010000000000000BRAMBVACNPR1153
012013070212ANCR11B     010FII ANCAR ICCI      MB   R$  000000006020000000000602000000000060200000000006020000000000602000000000060200000000000000000001000000000000000001000000000000060200000000000000009999123100000010000000000000BRANCRCTF001128
012013070202ARTR3       010ARTERIS     ON      NM   R$  000000000197100000000020100000000001921000000000197800000000019550000000001950000000000195507110000000000002804500000000005547840200000000000000009999123100000010000000000000BRARTRACNOR3101
012013070296ARTR3F      020ARTERIS     ON      NM   R$  000000000196500000000020630000000001866000000000198200000000019170000000001872000000000204400190000000000000004979000000000009871148000000000000009999123100000010000000000000BRARTRACNOR3101
012013070202ARZZ3       010AREZZO CO   ON  EJ  NM   R$  000000000328100000000034020000000003145000000000327000000000032080000000003208000000000321801204000000000000314800000000001029497500000000000000009999123100000010000000000000BRARZZACNOR3108
012013070296ARZZ3F      020AREZZO CO   ON  EJ  NM   R$  000000000350000000000035000000000003107000000000328800000000032120000000003106000000000349800012000000000000000491000000000001614605000000000000009999123100000010000000000000BRARZZACNOR3108
012013070202AUTM3       010AUTOMETAL   ON      NM   R$  000000000178000000000017970000000001749000000000176700000000017520000000001752000000000176000384000000000000115500000000000204109300000000000000009999123100000010000000000000BRAUTMACNOR8109
012013070296AUTM3F      020AUTOMETAL   ON      NM   R$  000000000174500000000017700000000001745000000000174600000000017450000000001700000000000179100003000000000000000150000000000000261950000000000000009999123100000010000000000000BRAUTMACNOR8109
012013070202AXPB11B     010AMERICAN EXPDRN ED  MB   R$  000000001682700000000168270000000016827000000001682700000000168270000000016475000000001696700001000000000000001100000000000018509700000000000000009999123100000010000000000000BRAXPBBDR007105
012013070202BAHI3       010BAHEMA      ON           R$  000000000050000000000005000000000000492000000000049700000000004920000000000490000000000050500004000000000000004500000000000002237600000000000000009999123100000010000000000000BRBAHIACNOR1066
012013070202BALM4       010BAUMER      PN           R$  000000000750000000000075000000000007500000000000750000000000075000000000005500000000000000000001000000000000000200000000000001500000000000000000009999123100000010000000000000BRBALMACNPR2043
012013070202BAUH4       010EXCELSIOR   PN           R$  000000000090000000000010800000000000900000000000091100000000010800000000000900000000000108000013000000000000006400000000000005834600000000000000009999123100000010000000000000BRBAUHACNPR3108
012013070202BAZA3       010AMAZONIA    ON           R$  000000000003300000000000340000000000032000000000003200000000000330000000000032000000000003300007000000000000046000000000000001514000000000000000009999123100000010000000000000BRBAZAACNOR0163
012013070202BBAS3       010BRASIL      ON      NM   R$  000000000219800000000021980000000002050000000000210700000000020900000000002090000000000209125319000000000013990000000000029487031400000000000000009999123100000010000000000000BRBBASACNOR3237
012013070296BBAS3F      020BRASIL      ON      NM   R$  000000000220000000000022000000000002050000000000210900000000020950000000002105000000000211500526000000000000012826000000000027049233000000000000009999123100000010000000000000BRBBASACNOR3237
012013070262BBAS3T      030BRASIL      ON      NM016R$  000000000208800000000021000000000002088000000000209000000000021000000000000000000000000000000004000000000000012000000000000025082428000000000000009999123100000010000000000000BRBBASACNOR3237
012013070262BBAS3T      030BRASIL      ON      NM017R$  000000000209100000000020920000000002091000000000209100000000020920000000000000000000000000000002000000000000002000000000000004182049000000000000009999123100000010000000000000BRBBASACNOR3237
012013070262BBAS3T      030BRASIL      ON      NM030R$  000000000220300000000022040000000002079000000000219100000000020800000000000000000000000000000006000000000000050000000000000109558361000000000000009999123100000010000000000000BRBBASACNOR3237
012013070262BBAS3T      030BRASIL      ON      NM062R$  000000000219300000000021940000000002106000000000210800000000021090000000000000000000000000000006000000000000021400000000000045118396000000000000009999123100000010000000000000BRBBASACNOR3237
012013070262BBAS3T      030BRASIL      ON      NM090R$  000000000222700000000022280000000002112000000000216700000000021130000000000000000000000000000006000000000000005800000000000012574256000000000000009999123100000010000000000000BRBBASACNOR3237
012013070278BBASG19     070BBAS        ON      NM000R$  000000000024800000000002480000000000177000000000019800000000002050000000000000000000000000000022000000000000056100000000000011123700000000000190002013071500000010000000000000BRBBASACNOR3237
012013070278BBASG20     070BBAS        ON      NM000R$  000000000021700000000002170000000000127000000000015000000000001270000000000127000000000000000015000000000000026100000000000003938600000000000197602013071500000010000000000000BRBBASACNOR3236
012013070278BBASG21     070BBAS  FM    ON      NM000R$  000000000020200000000002070000000000105000000000014300000000001410000000000072000000000018200233000000000000267300000000000038354400000000000199202013071500000010000000000000BRBBASACNOR3232
012013070278BBASG22     070BBAS  FM    ON      NM000R$  000000000010100000000001010000000000033000000000005800000000000550000000000051000000000005900320000000000000428600000000000025200500000000000211702013071500000010000000000000BRBBASACNOR3233
012013070278BBASG23     070BBAS  FM    ON      NM000R$  000000000001800000000000210000000000007000000000001100000000000100000000000010000000000001300216000000000000273300000000000003047300000000000226602013071500000010000000000000BRBBASACNOR3235
012013070278BBASG24     070BBAS  FM    ON      NM000R$  000000000001100000000000110000000000004000000000000500000000000070000000000005000000000000900023000000000000113000000000000000601000000000000231702013071500000010000000000000BRBBASACNOR3233
012013070278BBASG25     070BBAS  FM    ON      NM000R$  000000000000200000000000020000000000002000000000000200000000000020000000000001000000000000200003000000000000034200000000000000068400000000000246602013071500000010000000000000BRBBASACNOR3235
012013070278BBASG26     070BBAS        ON      NM000R$  000000000000200000000000020000000000001000000000000100000000000010000000000000000000000000100009000000000000039200000000000000041900000000000251702013071500000010000000000000BRBBASACNOR3233
012013070278BBASG30     070BBAS        ON      NM000R$  000000000000100000000000010000000000001000000000000100000000000010000000000000000000000001400002000000000000001300000000000000001300000000000296602013071500000010000000000000BRBBASACNOR3235
012013070278BBASH18     070BBAS        ON      NM000R$  000000000030800000000003080000000000308000000000030800000000003080000000000000000000000000000001000000000000003000000000000000924000000000000180002013081900000010000000000000BRBBASACNOR3237
012013070278BBASH20     070BBAS        ON      NM000R$  000000000018300000000001830000000000157000000000016300000000001780000000000166000000000000000004000000000000002500000000000000408900000000000200002013081900000010000000000000BRBBASACNOR3237
012013070278BBASH21     070BBAS  FM    ON      NM000R$  000000000017200000000001740000000000104000000000012900000000001360000000000000000000000040000436000000000000386800000000000050136900000000000207602013081900000010000000000000BRBBASACNOR3236
012013070278BBASH22     070BBAS  FM    ON      NM000R$  000000000010600000000001100000000000060000000000009100000000000860000000000058000000000010000253000000000000735000000000000067484200000000000217602013081900000010000000000000BRBBASACNOR3236
012013070278BBASH23     070BBAS  FM    ON      NM000R$  000000000005800000000000590000000000029000000000003900000000000480000000000040000000000005400083000000000000160900000000000006385300000000000227602013081900000010000000000000BRBBASACNOR3236
012013070278BBASH24     070BBAS  FM    ON      NM000R$  000000000004400000000000460000000000022000000000003100000000000340000000000025000000000004000114000000000000150100000000000004714300000000000231702013081900000010000000000000BRBBASACNOR3233
012013070278BBASH25     070BBAS  FM    ON      NM000R$  000000000002000000000000220000000000012000000000001800000000000200000000000020000000000003000117000000000000161900000000000002998700000000000241702013081900000010000000000000BRBBASACNOR3233
012013070278BBASH26     070BBAS        ON      NM000R$  000000000000800000000000080000000000005000000000000600000000000050000000000005000000000001800007000000000000025500000000000000168000000000000256602013081900000010000000000000BRBBASACNOR3235
012013070278BBASI20     070BBAS        ON      NM000R$  000000000021400000000002140000000000185000000000019400000000001890000000000000000000000000000004000000000000010200000000000001984800000000000200002013091600000010000000000000BRBBASACNOR3237
012013070278BBASI22     070BBAS        ON      NM000R$  000000000011100000000001120000000000106000000000011100000000001060000000000000000000000000000007000000000000011600000000000001288600000000000217602013091600000010000000000000BRBBASACNOR3236
012013070278BBASI23     070BBAS        ON      NM000R$  000000000005900000000000590000000000059000000000005900000000000590000000000011000000000000000001000000000000003000000000000000177000000000000227602013091600000010000000000000BRBBASACNOR3236
012013070278BBASI24     070BBAS        ON      NM000R$  000000000003400000000000400000000000033000000000003400000000000400000000000033000000000000000012000000000000027100000000000000937700000000000237602013091600000010000000000000BRBBASACNOR3236
012013070278BBASI25     070BBAS        ON      NM000R$  000000000002400000000000240000000000024000000000002400000000000240000000000011000000000000000001000000000000001000000000000000024000000000000246602013091600000010000000000000BRBBASACNOR3235
012013070278BBASI26     070BBAS        ON      NM000R$  000000000001300000000000130000000000012000000000001200000000000120000000000008000000000009800004000000000000001700000000000000020600000000000256602013091600000010000000000000BRBBASACNOR3235
012013070278BBASJ20     070BBAS        ON      NM000R$  000000000023900000000002390000000000239000000000023900000000002390000000000000000000000000000001000000000000000600000000000000143400000000000200002013102100000010000000000000BRBBASACNOR3237
012013070278BBASJ26     070BBAS        ON      NM000R$  000000000002500000000000250000000000025000000000002500000000000250000000000000000000000000000001000000000000001000000000000000025000000000000256602013102100000010000000000000BRBBASACNOR3235
012013070282BBASS19     080BBASE       ON      NM000R$  000000000001400000000000140000000000014000000000001400000000000140000000000000000000000001200001000000000000001000000000000000014000000000000190002013071500000010000000000000BRBBASACNOR3237
012013070282BBASS20     080BBASE FM    ON      NM000R$  000000000000900000000000330000000000009000000000001300000000000230000000000000000000000002500121000000000000387800000000000005215000000000000197602013071500000010000000000000BRBBASACNOR3236
012013070282BBASS21     080BBASE FM    ON      NM000R$  000000000001000000000000340000000000010000000000002200000000000250000000000014000000000002500083000000000000157000000000000003539700000000000199202013071500000010000000000000BRBBASACNOR3232
012013070282BBASS22     080BBASE FM    ON      NM000R$  000000000002200000000000930000000000022000000000006400000000000650000000000035000000000008000122000000000000222600000000000014313900000000000211702013071500000010000000000000BRBBASACNOR3233
012013070282BBASS23     080BBASE FM    ON      NM000R$  000000000009300000000002140000000000091000000000016400000000001710000000000000000000000000000308000000000000542600000000000089180400000000000226602013071500000010000000000000BRBBASACNOR3235
012013070282BBASS24     080BBASE       ON      NM000R$  000000000024100000000002410000000000241000000000024100000000002410000000000024000000000028300003000000000000001000000000000000241000000000000231702013071500000010000000000000BRBBASACNOR3233
012013070282BBAST19     080BBASE       ON      NM000R$  000000000002500000000000480000000000025000000000004100000000000480000000000000000000000000000025000000000000079100000000000003288300000000000190002013081900000010000000000000BRBBASACNOR3237
012013070282BBAST20     080BBASE FM    ON      NM000R$  000000000003100000000000750000000000031000000000006200000000000620000000000047000000000013500065000000000000108000000000000006802600000000000200002013081900000010000000000000BRBBASACNOR3237
012013070282BBAST21     080BBASE FM    ON      NM000R$  000000000004500000000001110000000000045000000000008700000000000890000000000045000000000000000098000000000000183700000000000016141500000000000207602013081900000010000000000000BRBBASACNOR3236
012013070282BBAST22     080BBASE FM    ON      NM000R$  000000000007800000000001610000000000078000000000012900000000001370000000000041000000000000000114000000000000209800000000000027236300000000000217602013081900000010000000000000BRBBASACNOR3236
012013070282BBAST23     080BBASE FM    ON      NM000R$  000000000012900000000002290000000000128000000000019600000000002010000000000000000000000000000129000000000000241400000000000047372800000000000227602013081900000010000000000000BRBBASACNOR3236
012013070282BBAST24     080BBASE       ON      NM000R$  000000000024600000000002460000000000246000000000024600000000002460000000000000000000000000000001000000000000003900000000000000959400000000000231702013081900000010000000000000BRBBASACNOR3233
012013070282BBAST25     080BBASE       ON      NM000R$  000000000033700000000003370000000000335000000000033600000000003350000000000000000000000000000002000000000000010000000000000003360000000000000241702013081900000010000000000000BRBBASACNOR3233
012013070282BBASU21     080BBASE       ON      NM000R$  000000000012300000000001230000000000123000000000012300000000001230000000000000000000000000000001000000000000002900000000000000356700000000000210002013091600000010000000000000BRBBASACNOR3237
012013070282BBASU23     080BBASE       ON      NM000R$  000000000016400000000002150000000000164000000000020000000000002150000000000000000000000000000002000000000000004200000000000000841800000000000227602013091600000010000000000000BRBBASACNOR3236
012013070282BBASU24     080BBASE       ON      NM000R$  000000000029100000000002940000000000282000000000028800000000002940000000000000000000000000000003000000000000008400000000000002424600000000000237602013091600000010000000000000BRBBASACNOR3236
012013070282BBASU25     080BBASE       ON      NM000R$  000000000036700000000003670000000000356000000000036100000000003560000000000000000000000000000002000000000000006000000000000002169000000000000246602013091600000010000000000000BRBBASACNOR3235
012013070202BBDC3       010BRADESCO    ON  EJ  N1   R$  000000000308500000000030850000000002950000000000302100000000029800000000002980000000000298307430000000000002953900000000008924542900000000000000009999123100000010000000000000BRBBDCACNOR1604
012013070296BBDC3F      020BRADESCO    ON  EJ  N1   R$  000000000309900000000030990000000002877000000000301300000000028920000000002885000000000300000101000000000000003226000000000009723031000000000000009999123100000010000000000000BRBBDCACNOR1604
012013070202BBDC4       010BRADESCO    PN  EJ  N1   R$  000000000285500000000028640000000002710000000000277900000000027320000000002732000000000273528761000000000011159600000000031012473200000000000000009999123100000010000000000000BRBBDCACNPR8604
012013070296BBDC4F      020BRADESCO    PN  EJ  N1   R$  000000000288500000000028940000000002711000000000278400000000027200000000002720000000000279500339000000000000008974000000000024983796000000000000009999123100000010000000000000BRBBDCACNPR8604
012013070262BBDC4T      030BRADESCO    PN  EJ  N1016R$  000000000284000000000028410000000002744000000000276900000000027450000000000000000000000000000006000000000000008200000000000022707988000000000000009999123100000010000000000000BRBBDCACNPR8604
012013070262BBDC4T      030BRADESCO    PN  EJ  N1017R$  000000000274700000000027480000000002747000000000274700000000027480000000000000000000000000000002000000000000002000000000000005495162000000000000009999123100000010000000000000BRBBDCACNPR8604
012013070262BBDC4T      030BRADESCO    PN  EJ  N1030R$  000000000281900000000028200000000002819000000000281900000000028200000000000000000000000000000002000000000000000500000000000001409883000000000000009999123100000010000000000000BRBBDCACNPR8604
012013070262BBDC4T      030BRADESCO    PN  EJ  N1036R$  000000000285100000000028520000000002851000000000285100000000028520000000000000000000000000000002000000000000000200000000000000570213000000000000009999123100000010000000000000BRBBDCACNPR8604
012013070262BBDC4T      030BRADESCO    PN  EJ  N1062R$  000000000290000000000029010000000002773000000000283000000000027740000000000000000000000000000016000000000000014100000000000039908503000000000000009999123100000010000000000000BRBBDCACNPR8604
012013070262BBDC4T      030BRADESCO    PN  EJ  N1090R$  000000000277800000000028100000000002778000000000279800000000028100000000000000000000000000000003000000000000000300000000000000839677000000000000009999123100000010000000000000BRBBDCACNPR8604
012013070262BBDC4T      030BRADESCO    PN  EJ  N1120R$  000000000281300000000028140000000002813000000000281300000000028140000000000000000000000000000004000000000000002600000000000007316348000000000000009999123100000010000000000000BRBBDCACNPR8604
012013070262BBDC4T      030BRADESCO    PN  EJ  N1181R$  000000000286500000000028660000000002864000000000286400000000028650000000000000000000000000000004000000000000000800000000000002291945000000000000009999123100000010000000000000BRBBDCACNPR8604
012013070278BBDCG26     070BBDC    /EJ PN      N1000R$  000000000028600000000002860000000000181000000000024500000000002000000000000000000000000000000005000000000000011100000000000002726000000000000257802013071500000010000000000000BRBBDCACNPR8601
012013070278BBDCG27     070BBDC    /EJ PN      N1000R$  000000000022900000000002290000000000105000000000016400000000001130000000000000000000000017800171000000000000254300000000000041790400000000000267802013071500000010000000000000BRBBDCACNPR8601
012013070278BBDCG28     070BBDC    /EJ PN      N1000R$  000000000010400000000001140000000000046000000000007500000000000550000000000045000000000007500167000000000000301700000000000022681100000000000278002013071500000010000000000000BRBBDCACNPR8602
012013070278BBDCG29     070BBDC    /EJ PN      N1000R$  000000000004100000000000500000000000019000000000002800000000000220000000000018000000000002700243000000000000361700000000000010210900000000000288002013071500000010000000000000BRBBDCACNPR8602
012013070278BBDCG3      070BBDC    /EJ PN      N1000R$  000000000000200000000000050000000000001000000000000100000000000050000000000000000000000000500008000000000000030200000000000000036000000000000327602013071500000010000000000000BRBBDCACNPR8600
012013070278BBDCG30     070BBDC    /EJ PN      N1000R$  000000000001500000000000160000000000008000000000001200000000000100000000000007000000000001200042000000000000050400000000000000620500000000000297802013071500000010000000000000BRBBDCACNPR8601
012013070278BBDCG31     070BBDC    /EJ PN      N1000R$  000000000000500000000000050000000000005000000000000500000000000050000000000002000000000000700002000000000000012100000000000000060500000000000307802013071500000010000000000000BRBBDCACNPR8601
012013070278BBDCG32     070BBDC    /EJ PN      N1000R$  000000000000300000000000030000000000003000000000000300000000000030000000000000000000000000500001000000000000002000000000000000006000000000000317602013071500000010000000000000BRBBDCACNPR8600
012013070278BBDCG33     070BBDC    /EJ PN      N1000R$  000000000003200000000000320000000000015000000000001800000000000160000000000027000000000004000034000000000000034200000000000000623000000000000291902013071500000010000000000000BRBBDCACNPR8593
012013070278BBDCG5      070BBDC    /EJ PN      N1000R$  000000000000400000000000040000000000004000000000000400000000000040000000000000000000000000700001000000000000005000000000000000020000000000000314602013071500000010000000000000BRBBDCACNPR8593
012013070278BBDCH26     070BBDC    /EJ PN      N1000R$  000000000032600000000003320000000000305000000000032400000000003050000000000000000000000000000023000000000000025000000000000008120500000000000258002013081900000010000000000000BRBBDCACNPR8602
012013070278BBDCH27     070BBDC    /EJ PN      N1000R$  000000000023200000000002510000000000164000000000020200000000001760000000000000000000000000000646000000000000735200000000000149029400000000000268002013081900000010000000000000BRBBDCACNPR8602
012013070278BBDCH28     070BBDC    /EJ PN      N1000R$  000000000016200000000001790000000000104000000000014100000000001210000000000000000000000019400250000000000000283600000000000040199100000000000278002013081900000010000000000000BRBBDCACNPR8602
012013070278BBDCH29     070BBDC    /EJ PN      N1000R$  000000000010900000000001220000000000074000000000009200000000000820000000000000000000000013500221000000000000267700000000000024764700000000000288002013081900000010000000000000BRBBDCACNPR8602
012013070278BBDCH30     070BBDC    /EJ PN      N1000R$  000000000006500000000000740000000000042000000000005600000000000510000000000000000000000009000172000000000000219300000000000012357600000000000298002013081900000010000000000000BRBBDCACNPR8602
012013070278BBDCH31     070BBDC    /EJ PN      N1000R$  000000000003900000000000390000000000025000000000003200000000000300000000000009000000000003500059000000000000103900000000000003425300000000000307602013081900000010000000000000BRBBDCACNPR8600
012013070278BBDCH32     070BBDC    /EJ PN      N1000R$  000000000001600000000000170000000000014000000000001500000000000170000000000009000000000001700004000000000000010000000000000000154000000000000318002013081900000010000000000000BRBBDCACNPR8602
012013070278BBDCH33     070BBDC    /EJ PN      N1000R$  000000000001000000000000100000000000007000000000000800000000000070000000000006000000000002500002000000000000001900000000000000015400000000000327802013081900000010000000000000BRBBDCACNPR8601
012013070278BBDCH34     070BBDC    /EJ PN      N1000R$  000000000004200000000000420000000000031000000000003100000000000320000000000000000000000005800007000000000000016100000000000000508200000000000305502013081900000010000000000000BRBBDCACNPR8595
012013070278BBDCI29     070BBDC    /EJ PN      N1000R$  000000000012100000000001210000000000107000000000011400000000001070000000000000000000000000000002000000000000006000000000000000684000000000000288002013091600000010000000000000BRBBDCACNPR8602
012013070278BBDCI30     070BBDC    /EJ PN      N1000R$  000000000010000000000001000000000000072000000000008800000000000720000000000000000000000013800005000000000000010500000000000000926000000000000298002013091600000010000000000000BRBBDCACNPR8602
012013070278BBDCI33     070BBDC    /EJ PN      N1000R$  000000000009900000000000990000000000070000000000007700000000000780000000000000000000000000000087000000000000114100000000000008893100000000000297402013091600000010000000000000BRBBDCACNPR8598
012013070278BBDCI81     070BBDC    /EJ PN      N1000R$  000000000006200000000000620000000000046000000000005200000000000480000000000000000000000000000010000000000000015000000000000000790000000000000308002013091600000010000000000000BRBBDCACNPR8602
012013070278BBDCJ29     070BBDC    /EJ PN      N1000R$  000000000014900000000001490000000000144000000000014600000000001450000000000000000000000000000024000000000000032800000000000004802700000000000288002013102100000010000000000000BRBBDCACNPR8602
012013070278BBDCL28     070BBDC    /EJ PN      N1000R$  000000000025000000000002500000000000240000000000024000000000002400000000000000000000000000000007000000000000007500000000000001804000000000000280002013121600000010000000000000BRBBDCACNPR8604
012013070278BBDCL29     070BBDC    /EJ PN      N1000R$  000000000020000000000002050000000000200000000000020000000000002020000000000000000000000000000005000000000000156000000000000031221000000000000288002013121600000010000000000000BRBBDCACNPR8602
012013070278BBDCL31     070BBDC    /EJ PN      N1000R$  000000000025000000000002500000000000246000000000024800000000002460000000000000000000000000000015000000000000021200000000000005263800000000000279002013121600000010000000000000BRBBDCACNPR8597
012013070278BBDCL33     070BBDC    /EJ PN      N1000R$  000000000016600000000001660000000000158000000000016100000000001660000000000000000000000000000087000000000000123400000000000019937100000000000297402013121600000010000000000000BRBBDCACNPR8598
012013070282BBDCN32     080BBDCE   /EJ PN      N1000R$  000000000025800000000002580000000000258000000000025800000000002580000000000000000000000000000001000000000000001200000000000000309600000000000288302014021700000010000000000000BRBBDCACNPR8598
012013070282BBDCS26     080BBDCE   /EJ PN      N1000R$  000000000000800000000000230000000000008000000000001800000000000210000000000000000000000000000015000000000000024400000000000000459400000000000257802013071500000010000000000000BRBBDCACNPR8601
012013070282BBDCS27     080BBDCE   /EJ PN      N1000R$  000000000001400000000000480000000000014000000000002900000000000480000000000000000000000000000071000000000000108900000000000003170600000000000267802013071500000010000000000000BRBBDCACNPR8601
012013070282BBDCS28     080BBDCE   /EJ PN      N1000R$  000000000003200000000000920000000000027000000000005400000000000860000000000040000000000010000129000000000000257600000000000014082800000000000278002013071500000010000000000000BRBBDCACNPR8602
012013070282BBDCS29     080BBDCE   /EJ PN      N1000R$  000000000007300000000001630000000000062000000000010500000000001530000000000000000000000019400099000000000000188600000000000019841800000000000288002013071500000010000000000000BRBBDCACNPR8602
012013070282BBDCS30     080BBDCE   /EJ PN      N1000R$  000000000013400000000001340000000000128000000000013100000000001280000000000000000000000000000002000000000000004000000000000000524000000000000297802013071500000010000000000000BRBBDCACNPR8601
012013070282BBDCS33     080BBDCE   /EJ PN      N1000R$  000000000008800000000000930000000000085000000000008700000000000930000000000000000000000000000006000000000000011100000000000000975000000000000291902013071500000010000000000000BRBBDCACNPR8593
012013070282BBDCT26     080BBDCE   /EJ PN      N1000R$  000000000003200000000000760000000000032000000000005500000000000690000000000000000000000000000087000000000000170900000000000009522900000000000258002013081900000010000000000000BRBBDCACNPR8602
012013070282BBDCT27     080BBDCE   /EJ PN      N1000R$  000000000005100000000001110000000000046000000000006600000000000930000000000000000000000000000166000000000000346500000000000022900600000000000268002013081900000010000000000000BRBBDCACNPR8602
012013070282BBDCT28     080BBDCE   /EJ PN      N1000R$  000000000008300000000001550000000000073000000000011700000000001370000000000000000000000000000127000000000000174900000000000020571100000000000278002013081900000010000000000000BRBBDCACNPR8602
012013070282BBDCT29     080BBDCE   /EJ PN      N1000R$  000000000012600000000002130000000000111000000000015700000000001900000000000080000000000000000144000000000000221600000000000034935200000000000288002013081900000010000000000000BRBBDCACNPR8602
012013070282BBDCT30     080BBDCE   /EJ PN      N1000R$  000000000019500000000001970000000000195000000000019500000000001970000000000000000000000000000003000000000000007000000000000001369000000000000298002013081900000010000000000000BRBBDCACNPR8602
012013070282BBDCU27     080BBDCE   /EJ PN      N1000R$  000000000007300000000001220000000000073000000000008200000000001220000000000000000000000000000010000000000000003000000000000000247400000000000268002013091600000010000000000000BRBBDCACNPR8602
012013070282BBDCU29     080BBDCE   /EJ PN      N1000R$  000000000013000000000001300000000000130000000000013000000000001300000000000000000000000000000001000000000000002000000000000000260000000000000288002013091600000010000000000000BRBBDCACNPR8602
012013070282BBDCV27     080BBDCE   /EJ PN      N1000R$  000000000008500000000000850000000000085000000000008500000000000850000000000000000000000000000001000000000000001000000000000000085000000000000268002013102100000010000000000000BRBBDCACNPR8602
012013070282BBDCW27     080BBDCE   /EJ PN      N1000R$  000000000009400000000000940000000000094000000000009400000000000940000000000000000000000000000001000000000000001000000000000000094000000000000269802013111800000010000000000000BRBBDCACNPR8603
012013070282BBDCX27     080BBDCE   /EJ PN      N1000R$  000000000012800000000001300000000000128000000000012800000000001300000000000000000000000000000003000000000000001300000000000000167000000000000270002013121600000010000000000000BRBBDCACNPR8604
012013070212BBFI11B     010FII BB PROGRCI  ER  MB   R$  000000043600000000004360000000000420000000000042582700000004259900000000421000000000042590000011000000000000000029000000000012348995000000000000009999123100000010000000000000BRBBFICTF006196
012013070212BBPO11      010FII BB PRGIICI  ER       R$  000000001101000000000110100000000010900000000001094000000000109180000000010918000000001093800262000000000000019676000000000215255555000000000000009999123100000010000000000000BRBBPOCTF003108
012013070212BBRC11      010FII BB CORP CI  ER       R$  000000000990000000000100000000000009700000000000990400000000100000000000010000000000001004500010000000000000000633000000000006269680000000000000009999123100000010000000000000BRBBRCCTF004122
012013070202BBRK3       010BR BROKERS  ON      NM   R$  000000000063000000000006420000000000590000000000061000000000005990000000000598000000000060004380000000000003387000000000002067193900000000000000009999123100000010000000000000BRBBRKACNOR4108
012013070296BBRK3F      020BR BROKERS  ON      NM   R$  000000000060200000000006990000000000596000000000063800000000006000000000000552000000000062000015000000000000000385000000000000245682000000000000009999123100000010000000000000BRBBRKACNOR4108
012013070202BBSE3       010BBSEGURIDADEON      NM   R$  000000000175200000000017780000000001680000000000172500000000017190000000001713000000000171909645000000000003728300000000006434343700000000000000009999123100000010000000000000BRBBSEACNOR5100
012013070296BBSE3F      020BBSEGURIDADEON      NM   R$  000000000175000000000017770000000001680000000000174100000000017090000000001700000000000170900373000000000000013059000000000022743880000000000000009999123100000010000000000000BRBBSEACNOR5100
012013070262BBSE3T      030BBSEGURIDADEON      NM030R$  000000000171200000000017130000000001712000000000171200000000017130000000000000000000000000000002000000000000002000000000000003424453000000000000009999123100000010000000000000BRBBSEACNOR5100
012013070202BBTG11      010BTG PACTUAL UNT          R$  000000000267100000000026710000000002463000000000257100000000024850000000002485000000000250003146000000000003663500000000009422051400000000000000009999123100000010000000000000BRBBTGUNT007104
012013070296BBTG11F     020BTG PACTUAL UNT          R$  000000000268000000000026800000000002490000000000256900000000026000000000002401000000000260000025000000000000000603000000000001549500000000000000009999123100000010000000000000BRBBTGUNT007104
012013070262BBTG11T     030BTG PACTUAL UNT       090R$  000000000259900000000026000000000002598000000000259900000000025990000000000000000000000000000004000000000000491600000000001277679435000000000000009999123100000010000000000000BRBBTGUNT007104
012013070212BBVJ11      010FII C JARDIMCI  ER       R$  000000000818000000000081800000000008021000000000813600000000081500000000008050000000000815000017000000000000000489000000000003978580000000000000009999123100000010000000000000BRBBVJCTF001131
012013070212BCFF11B     010FII BC FFII CI      MB   R$  000000001025000000000103100000000010180000000001022200000000102000000000010200000000001025000055000000000000005504000000000056265719000000000000009999123100000010000000000000BRBCFFCTF000139
012013070202BDLL4       010BARDELLA    PN           R$  000000000430100000000043010000000004250000000000429400000000042500000000004250000000000429600004000000000000004900000000000021041100000000000000009999123100000010000000000000BRBDLLACNPR8149
012013070296BDLL4F      020BARDELLA    PN           R$  000000000430100000000043010000000004300000000000430000000000043000000000004212000000000849900006000000000000000129000000000000554710000000000000009999123100000010000000000000BRBDLLACNPR8149
012013070202BEEF3       010MINERVA     ON      NM   R$  000000000099800000000010170000000000971000000000098500000000009890000000000981000000000098903626000000000001099400000000001083099500000000000000009999123100000010000000000000BRBEEFACNOR6104
012013070296BEEF3F      020MINERVA     ON      NM   R$  000000000100000000000010000000000000973000000000098300000000009730000000000950000000000099900002000000000000000042000000000000041325000000000000009999123100000010000000000000BRBEEFACNOR6104
012013070202BEES3       010BANESTES    ON  EJ       R$  000000000004700000000000480000000000046000000000004700000000000480000000000047000000000004800023000000000000102800000000000004834100000000000000009999123100000010000000000000BRBEESACNOR9241
012013070202BEMA3       010BEMATECH    ON      NM   R$  000000000071100000000007160000000000695000000000070500000000007010000000000701000000000070200241000000000000062200000000000043852600000000000000009999123100000010000000000000BRBEMAACNOR0113
012013070296BEMA3F      020BEMATECH    ON      NM   R$  000000000070000000000007000000000000700000000000070000000000007000000000000640000000000072500002000000000000000030000000000000021000000000000000009999123100000010000000000000BRBEMAACNOR0113
012013070202BGIP4       010BANESE      PN           R$  000000000480100000000050850000000004800000000000485700000000050850000000004801000000000508800003000000000000000500000000000002428600000000000000009999123100000010000000000000BRBGIPACNPR8177
012013070202BHGR3       010BHG         ON      NM   R$  000000000159100000000015910000000001561000000000158300000000015690000000001501000000000157000043000000000000068100000000000107857200000000000000009999123100000010000000000000BRBHGRACNOR9101
012013070296BHGR3F      020BHG         ON      NM   R$  000000000150000000000015700000000001500000000000152900000000015450000000001550000000000170000007000000000000000197000000000000301285000000000000009999123100000010000000000000BRBHGRACNOR9101
012013070202BICB4       010BICBANCO    PN      N1   R$  000000000042500000000004370000000000398000000000040700000000004000000000000398000000000040000197000000000000105800000000000043118100000000000000009999123100000010000000000000BRBICBACNPR7131
012013070296BICB4F      020BICBANCO    PN      N1   R$  000000000042400000000004360000000000361000000000040200000000004360000000000362000000000043600023000000000000000312000000000000125593000000000000009999123100000010000000000000BRBICBACNPR7131
012013070262BICB4T      030BICBANCO    PN      N1120R$  000000000044800000000004490000000000448000000000044800000000004490000000000000000000000000000002000000000000007000000000000003139146000000000000009999123100000010000000000000BRBICBACNPR7131
012013070202BISA3       010BROOKFIELD  ON      NM   R$  000000000014500000000001470000000000138000000000014100000000001400000000000140000000000014104021000000000008444300000000001193708000000000000000009999123100000010000000000000BRBISAACNOR8109
012013070296BISA3F      020BROOKFIELD  ON      NM   R$  000000000014200000000001440000000000138000000000014100000000001380000000000138000000000014000029000000000000000710000000000000100397000000000000009999123100000010000000000000BRBISAACNOR8109
012013070262BISA3T      030BROOKFIELD  ON      NM030R$  000000000014000000000001410000000000140000000000014000000000001410000000000000000000000000000004000000000000011500000000000001611575000000000000009999123100000010000000000000BRBISAACNOR8109
012013070262BISA3T      030BROOKFIELD  ON      NM272R$  000000000015400000000001550000000000154000000000015400000000001550000000000000000000000000000002000000000000001000000000000000154612000000000000009999123100000010000000000000BRBISAACNOR8109
012013070210BMEB2       010MERC BRASIL DIR PRE      R$  000000000000700000000000150000000000007000000000001100000000000070000000000007000000000001500010000000000000004500000000000000049900000000000000009999123100000010000000000000BRBMEBD02PR8189
012013070296BMEB2F      020MERC BRASIL DIR PRE      R$  000000000000600000000000060000000000006000000000000600000000000060000000000000000000000000100001000000000000000027000000000000000162000000000000009999123100000010000000000000BRBMEBD02PR8189
012013070202BMEB4       010MERC BRASIL PN           R$  000000000113700000000011900000000001103000000000113800000000011480000000001148000000000115000011000000000000010900000000000012413500000000000000009999123100000010000000000000BRBMEBACNPR5190
012013070202BMIN4       010MERC INVEST PN           R$  000000000002300000000000230000000000022000000000002200000000000220000000000021000000000002300004000000000000007000000000000000155000000000000000009999123100000010000000000000BRBMINACNPR1159
012013070202BMKS3       010BIC MONARK  ON           R$  000000003270000000000327000000000032700000000003270000000000327000000000032601000000003499900003000000000000000009000000000000294300000000000000009999123100000010000000000000BRBMKSACNOR9155
012013070212BMLC11B     010FII BMBRC LCCI      MB   R$  000000001200100000000120010000000012000000000001200000000000120000000000012000000000001225000003000000000000000174000000000002088050000000000000009999123100000010000000000000BRBMLCCTF004116
012013070202BMTO4       010BRASMOTOR   PN           R$  000000000008500000000000890000000000085000000000008500000000000890000000000085000000000008900012000000000000026000000000000002234000000000000000009999123100000010000000000000BRBMTOACNPR6065
012013070296BMTO4F      020BRASMOTOR   PN           R$  000000000008500000000000930000000000085000000000008600000000000930000000000084000000000009300003000000000000001000000000000000086600000000000000009999123100000010000000000000BRBMTOACNPR6065
012013070202BNBR3       010NORD BRASIL ON           R$  000000000191000000000019100000000001910000000000191000000000019100000000001800000000000215000001000000000000000200000000000000382000000000000000009999123100000010000000000000BRBNBRACNOR8186
012013070202BNBR4       010NORD BRASIL PN           R$  000000000191000000000019100000000001910000000000191000000000019100000000001870000000000191000003000000000000001500000000000002865000000000000000009999123100000010000000000000BRBNBRACNPR5186
012013070202BOBR4       010BOMBRIL     PN           R$  000000000071000000000007100000000000688000000000069200000000006880000000000688000000000071000006000000000000002400000000000001663000000000000000009999123100000010000000000000BRBOBRACNPR3127
012013070214BOVA11      010ISHARES BOVACI           R$  000000000458000000000046030000000004390000000000448800000000044200000000004420000000000443007411000000000001930560000000008666028500000000000000009999123100000010000000000000BRBOVACTF003101
012013070296BOVA11F     020ISHARES BOVACI           R$  000000000463900000000046390000000004426000000000453900000000044260000000004439000000000455100027000000000000000067000000000000304150000000000000009999123100000010000000000000BRBOVACTF003101
012013070278BOVAG48     070BOVA        CI        000R$  000000000001100000000000110000000000011000000000001100000000000110000000000000000000000000000002000000000000011800000000000000129800000000000480002013071500000010000000000000BRBOVACTF003101
012013070212BPFF11      010FII ABSOLUTOCI  ER       R$  000000000832000000000085000000000008300000000000835800000000085000000000008300000000000850000013000000000000000554000000000004630595000000000000009999123100000010000000000000BRBPFFCTF002103
012013070202BPHA3       010BR PHARMA   ON      NM   R$  000000000106000000000010670000000001000000000000102400000000010000000000001000000000000101701798000000000000728400000000000746109800000000000000009999123100000010000000000000BRBPHAACNOR6102
012013070296BPHA3F      020BR PHARMA   ON      NM   R$  000000000115000000000012100000000001008000000000105200000000012100000000001000000000000121000017000000000000000634000000000000667037000000000000009999123100000010000000000000BRBPHAACNOR6102
012013070202BPNM4       010PANAMERICANOPN      N1   R$  000000000052700000000005320000000000499000000000050400000000005100000000000509000000000051000671000000000001389200000000000701417500000000000000009999123100000010000000000000BRBPNMACNPR6111
012013070296BPNM4F      020PANAMERICANOPN      N1   R$  000000000052900000000005290000000000503000000000051900000000005030000000000503000000000051600018000000000000000538000000000000279242000000000000009999123100000010000000000000BRBPNMACNPR6111
012013070202BRAP3       010BRADESPAR   ON      N1   R$  000000000159800000000016410000000001570000000000158400000000016060000000001580000000000160800146000000000000442800000000000701456200000000000000009999123100000010000000000000BRBRAPACNOR5124
012013070296BRAP3F      020BRADESPAR   ON      N1   R$  000000000160500000000016100000000001600000000000160400000000016100000000001532000000000159900005000000000000000082000000000000131540000000000000009999123100000010000000000000BRBRAPACNOR5124
012013070202BRAP4       010BRADESPAR   PN      N1   R$  000000000202000000000020530000000001940000000000199500000000019800000000001980000000000199207881000000000002499000000000004987285500000000000000009999123100000010000000000000BRBRAPACNPR2124
012013070296BRAP4F      020BRADESPAR   PN      N1   R$  000000000203600000000020440000000001950000000000199500000000019740000000001974000000000199500068000000000000001591000000000003174325000000000000009999123100000010000000000000BRBRAPACNPR2124
012013070262BRAP4T      030BRADESPAR   PN      N1062R$  000000000199700000000019980000000001997000000000199700000000019980000000000000000000000000000002000000000000001000000000000001997039000000000000009999123100000010000000000000BRBRAPACNPR2124
012013070262BRAP4T      030BRADESPAR   PN      N1181R$  000000000211500000000021160000000002115000000000211500000000021160000000000000000000000000000002000000000000004500000000000009521503000000000000009999123100000010000000000000BRBRAPACNPR2124
012013070214BRAX11      010ISHARES BRAXCI           R$  000000000373300000000037490000000003733000000000374400000000037490000000000000000000000000000003000000000000005500000000000020594000000000000000009999123100000010000000000000BRBRAXCTF002100
012013070212BRCR11      010FII BC FUND CI           R$  000000001380000000000139000000000013750000000001379100000000137950000000013795000000001380000633000000000000062726000000000865065429000000000000009999123100000010000000000000BRBRCRCTF000130
012013070202BRFS3       010BRF SA      ON  EJ  NM   R$  000000000480000000000048730000000004711000000000478600000000047300000000004727000000000473008322000000000002241100000000010726574400000000000000009999123100000010000000000000BRBRFSACNOR8110
012013070296BRFS3F      020BRF SA      ON  EJ  NM   R$  000000000485000000000048970000000004660000000000479800000000046600000000004661000000000472000119000000000000003079000000000014772921000000000000009999123100000010000000000000BRBRFSACNOR8110
012013070262BRFS3T      030BRF SA      ON  EJ  NM120R$  000000000488500000000048860000000004885000000000488500000000048860000000000000000000000000000002000000000000001000000000000004885188000000000000009999123100000010000000000000BRBRFSACNOR8110
012013070202BRIN3       010BR INSURANCEON      NM   R$  000000000217900000000021980000000002136000000000215800000000021490000000002141000000000214900916000000000000257500000000000555848800000000000000009999123100000010000000000000BRBRINACNOR3105
012013070296BRIN3F      020BR INSURANCEON      NM   R$  000000000218000000000021800000000002101000000000215800000000021010000000002101000000000218000008000000000000000237000000000000511462000000000000009999123100000010000000000000BRBRINACNOR3105
012013070202BRIV3       010ALFA INVEST ON           R$  000000000064400000000006440000000000644000000000064400000000006440000000000000000000000067500005000000000000013900000000000008951600000000000000009999123100000010000000000000BRBRIVACNOR6196
012013070202BRIV4       010ALFA INVEST PN           R$  000000000058300000000005830000000000583000000000058300000000005830000000000550000000000058300004000000000000001000000000000000583000000000000000009999123100000010000000000000BRBRIVACNPR3196
012013070202BRKM3       010BRASKEM     ON      N1   R$  000000000119900000000012290000000001171000000000117100000000011710000000001171000000000122800010000000000000024800000000000029057700000000000000009999123100000010000000000000BRBRKMACNOR1110
012013070202BRKM5       010BRASKEM     PNA     N1   R$  000000000172400000000017290000000001626000000000165700000000016700000000001667000000000167007656000000000001794700000000002974944100000000000000009999123100000010000000000000BRBRKMACNPA4110
012013070296BRKM5F      020BRASKEM     PNA     N1   R$  000000000171600000000017300000000001617000000000165900000000016300000000001630000000000173000050000000000000001523000000000002528023000000000000009999123100000010000000000000BRBRKMACNPA4110
012013070262BRKM5T      030BRASKEM     PNA     N1016R$  000000000167600000000016770000000001636000000000165900000000016370000000000000000000000000000046000000000000005000000000000008298060000000000000009999123100000010000000000000BRBRKMACNPA4110
012013070262BRKM5T      030BRASKEM     PNA     N1030R$  000000000164600000000016470000000001646000000000164600000000016470000000000000000000000000000002000000000000000400000000000000658719000000000000009999123100000010000000000000BRBRKMACNPA4110
012013070202BRML3       010BR MALLS PARON      NM   R$  000000000194700000000019540000000001835000000000187600000000018500000000001848000000000185012182000000000004040000000000007581569200000000000000009999123100000010000000000000BRBRMLACNOR9105
012013070296BRML3F      020BR MALLS PARON      NM   R$  000000000193000000000019770000000001759000000000188300000000017600000000001855000000000189900125000000000000003053000000000005750032000000000000009999123100000010000000000000BRBRMLACNOR9105
012013070262BRML3T      030BR MALLS PARON      NM030R$  000000000194900000000019500000000001861000000000188700000000018620000000000000000000000000000008000000000000009400000000000017738366000000000000009999123100000010000000000000BRBRMLACNOR9105
012013070202BRPR3       010BR PROPERT  ON      NM   R$  000000000186400000000018930000000001800000000000184700000000018000000000001800000000000180406799000000000002785700000000005145796400000000000000009999123100000010000000000000BRBRPRACNOR9112
012013070296BRPR3F      020BR PROPERT  ON      NM   R$  000000000189000000000019030000000001753000000000183400000000018000000000001753000000000190300068000000000000001868000000000003426078000000000000009999123100000010000000000000BRBRPRACNOR9112
012013070202BRSR6       010BANRISUL    PNB     N1   R$  000000000148500000000014930000000001410000000000144200000000014370000000001437000000000144203425000000000000644700000000000929745300000000000000009999123100000010000000000000BRBRSRACNPB4133
012013070296BRSR6F      020BANRISUL    PNB     N1   R$  000000000147200000000014920000000001410000000000145100000000014210000000001421000000000149000046000000000000001227000000000001781561000000000000009999123100000010000000000000BRBRSRACNPB4133
012013070202BSEV3       010BIOSEV      ON      NM   R$  000000000127400000000012740000000001273000000000127300000000012730000000001241000000000127300008000000000000001000000000000001273100000000000000009999123100000010000000000000BRBSEVACNOR3100
012013070202BTOW3       010B2W DIGITAL ON      NM   R$  000000000063400000000006750000000000619000000000065400000000006750000000000675000000000067604054000000000001938800000000001268441500000000000000009999123100000010000000000000BRBTOWACNOR8105
012013070296BTOW3F      020B2W DIGITAL ON      NM   R$  000000000063100000000006680000000000623000000000064500000000006510000000000651000000000069900033000000000000000981000000000000633381000000000000009999123100000010000000000000BRBTOWACNOR8105
012013070262BTOW3T      030B2W DIGITAL ON      NM016R$  000000000064400000000006450000000000644000000000064400000000006450000000000000000000000000000002000000000000003000000000000001934282000000000000009999123100000010000000000000BRBTOWACNOR8105
012013070262BTOW3T      030B2W DIGITAL ON      NM120R$  000000000067300000000006740000000000673000000000067300000000006740000000000000000000000000000002000000000000001000000000000000673253000000000000009999123100000010000000000000BRBTOWACNOR8105
012013070202BTTL3       010BATTISTELLA ON           R$  000000000007500000000000750000000000073000000000007400000000000730000000000072000000000007700005000000000000019200000000000001421400000000000000009999123100000010000000000000BRBTTLACNOR0105
012013070202BTTL4       010BATTISTELLA PN           R$  000000000009500000000000960000000000093000000000009300000000000930000000000093000000000009800011000000000000017400000000000001629400000000000000009999123100000010000000000000BRBTTLACNPR7105
012013070202BVMF3       010BMFBOVESPA  ON      NM   R$  000000000126900000000012710000000001192000000000121900000000012150000000001215000000000121641156000000000019596200000000023906463500000000000000009999123100000010000000000000BRBVMFACNOR3125
012013070296BVMF3F      020BMFBOVESPA  ON      NM   R$  000000000127000000000012700000000001191000000000122400000000012150000000001205000000000121500266000000000000007711000000000009441579000000000000009999123100000010000000000000BRBVMFACNOR3125
012013070262BVMF3T      030BMFBOVESPA  ON      NM090R$  000000000123900000000012400000000001239000000000123900000000012400000000000000000000000000000002000000000000000100000000000000123910000000000000009999123100000010000000000000BRBVMFACNOR3125
012013070278BVMFG10     070BVMF        ON      NM000R$  000000000022000000000002460000000000213000000000023800000000002440000000000000000000000000000011000000000000006100000000000001454200000000000098902013071500000010000000000000BRBVMFACNOR3124
012013070278BVMFG11     070BVMF        ON      NM000R$  000000000016500000000001650000000000115000000000012100000000001180000000000000000000000000000006000000000000013000000000000001582000000000000110002013071500000010000000000000BRBVMFACNOR3125
012013070278BVMFG12     070BVMF  FM    ON      NM000R$  000000000009300000000000930000000000041000000000005900000000000690000000000066000000000007100460000000000000557400000000000033234300000000000118902013071500000010000000000000BRBVMFACNOR3124
012013070278BVMFG13     070BVMF  FM    ON      NM000R$  000000000003000000000000300000000000010000000000001800000000000240000000000023000000000002500219000000000000476200000000000008860500000000000126902013071500000010000000000000BRBVMFACNOR3123
012013070278BVMFG14     070BVMF  FM    ON      NM000R$  000000000000200000000000020000000000001000000000000100000000000020000000000001000000000000200060000000000000345000000000000000391600000000000136902013071500000010000000000000BRBVMFACNOR3123
012013070278BVMFG15     070BVMF        ON      NM000R$  000000000000100000000000010000000000001000000000000100000000000010000000000000000000000000100001000000000000002000000000000000002000000000000148902013071500000010000000000000BRBVMFACNOR3124
012013070278BVMFG40     070BVMF        ON      NM000R$  000000000016700000000001670000000000167000000000016700000000001670000000000000000000000022000001000000000000000800000000000000133600000000000105002013071500000010000000000000BRBVMFACNOR3125
012013070278BVMFG41     070BVMF        ON      NM000R$  000000000007700000000000770000000000074000000000007500000000000740000000000000000000000000000004000000000000009000000000000000681000000000000115002013071500000010000000000000BRBVMFACNOR3125
012013070278BVMFG42     070BVMF  FM    ON      NM000R$  000000000006200000000000620000000000027000000000003900000000000380000000000000000000000006200034000000000000151300000000000005961900000000000121902013071500000010000000000000BRBVMFACNOR3123
012013070278BVMFG43     070BVMF  FM    ON      NM000R$  000000000000300000000000030000000000003000000000000300000000000030000000000000000000000001200001000000000000001800000000000000005400000000000133902013071500000010000000000000BRBVMFACNOR3124
012013070278BVMFG50     070BVMF        ON      NM000R$  000000000000500000000000130000000000005000000000000600000000000130000000000000000000000000000004000000000000013900000000000000084000000000000130002013071500000010000000000000BRBVMFACNOR3125
012013070278BVMFH10     070BVMF        ON      NM000R$  000000000026900000000002690000000000269000000000026900000000002690000000000000000000000000000002000000000000255800000000000068810200000000000100002013081900000010000000000000BRBVMFACNOR3125
012013070278BVMFH11     070BVMF        ON      NM000R$  000000000015900000000001590000000000136000000000014700000000001550000000000000000000000000000004000000000000002300000000000000339300000000000110002013081900000010000000000000BRBVMFACNOR3125
012013070278BVMFH12     070BVMF  FM    ON      NM000R$  000000000009900000000001010000000000066000000000007500000000000790000000000080000000000000000039000000000000133200000000000009990700000000000120002013081900000010000000000000BRBVMFACNOR3125
012013070278BVMFH13     070BVMF  FM    ON      NM000R$  000000000004400000000000440000000000026000000000003200000000000410000000000035000000000005800100000000000000256400000000000008421600000000000128902013081900000010000000000000BRBVMFACNOR3124
012013070278BVMFH14     070BVMF  FM    ON      NM000R$  000000000000900000000000120000000000007000000000000700000000000120000000000005000000000001300056000000000000201500000000000001506500000000000138902013081900000010000000000000BRBVMFACNOR3124
012013070278BVMFH40     070BVMF        ON      NM000R$  000000000018700000000001870000000000187000000000018700000000001870000000000000000000000000000007000000000000020000000000000003740000000000000105002013081900000010000000000000BRBVMFACNOR3125
012013070278BVMFH41     070BVMF        ON      NM000R$  000000000010200000000001020000000000102000000000010200000000001020000000000000000000000000000003000000000000011000000000000001122000000000000115002013081900000010000000000000BRBVMFACNOR3125
012013070278BVMFH42     070BVMF  FM    ON      NM000R$  000000000006600000000000660000000000041000000000004500000000000450000000000000000000000000000043000000000000187300000000000008568100000000000125002013081900000010000000000000BRBVMFACNOR3125
012013070278BVMFH43     070BVMF  FM    ON      NM000R$  000000000002300000000000230000000000015000000000001500000000000180000000000005000000000135000017000000000000079500000000000001271000000000000135002013081900000010000000000000BRBVMFACNOR3125
012013070278BVMFH61     070BVMFE       ON      NM000R$  000000000011800000000001180000000000118000000000011800000000001180000000000000000000000000000001000000000000006000000000000000708000000000000117502013081900000010000000000000BRBVMFACNOR3125
012013070278BVMFH62     070BVMFE       ON      NM000R$  000000000008100000000000810000000000081000000000008100000000000810000000000000000000000000000001000000000000003000000000000000243000000000000122502013081900000010000000000000BRBVMFACNOR3125
012013070278BVMFI13     070BVMF        ON      NM000R$  000000000004000000000000400000000000040000000000004000000000000400000000000025000000000000000003000000000000009000000000000000360000000000000130002013091600000010000000000000BRBVMFACNOR3125
012013070278BVMFI15     070BVMF        ON      NM000R$  000000000000400000000000040000000000004000000000000400000000000040000000000000000000000010000001000000000000001000000000000000004000000000000150002013091600000010000000000000BRBVMFACNOR3125
012013070278BVMFJ15     070BVMF        ON      NM000R$  000000000000900000000000090000000000009000000000000900000000000090000000000000000000000000000002000000000000003600000000000000032400000000000150002013102100000010000000000000BRBVMFACNOR3125
012013070282BVMFQ73     080BVMFE       ON      NM000R$  000000000011900000000001190000000000119000000000011900000000001190000000000000000000000000000001000000000000039700000000000004724300000000000128902014051900000010000000000000BRBVMFACNOR3124
012013070282BVMFR63     080BVMFE       ON      NM000R$  000000000012600000000001260000000000126000000000012600000000001260000000000000000000000000000001000000000000057900000000000007295400000000000130002014061600000010000000000000BRBVMFACNOR3125
012013070282BVMFS11     080BVMFE       ON      NM000R$  000000000000400000000000140000000000004000000000001100000000000140000000000004000000000001700003000000000000014000000000000000165000000000000110002013071500000010000000000000BRBVMFACNOR3125
012013070282BVMFS12     080BVMFE FM    ON      NM000R$  000000000001000000000000360000000000007000000000001800000000000250000000000002000000000003200210000000000000579100000000000010590900000000000118902013071500000010000000000000BRBVMFACNOR3124
012013070282BVMFS13     080BVMFE FM    ON      NM000R$  000000000003100000000000810000000000031000000000005500000000000630000000000005000000000028700078000000000000136100000000000007520100000000000126902013071500000010000000000000BRBVMFACNOR3123
012013070282BVMFS14     080BVMFE       ON      NM000R$  000000000012800000000001610000000000128000000000014400000000001420000000000000000000000000000031000000000000033800000000000004875000000000000136902013071500000010000000000000BRBVMFACNOR3123
012013070282BVMFS40     080BVMFE       ON      NM000R$  000000000000400000000000070000000000004000000000000600000000000070000000000001000000000000000004000000000000030000000000000000180000000000000105002013071500000010000000000000BRBVMFACNOR3125
012013070282BVMFS41     080BVMFE FM    ON      NM000R$  000000000000600000000000230000000000006000000000001500000000000170000000000001000000000000000025000000000000094000000000000001501000000000000115002013071500000010000000000000BRBVMFACNOR3125
012013070282BVMFS42     080BVMFE FM    ON      NM000R$  000000000001500000000000480000000000015000000000003700000000000370000000000000000000000000000024000000000000090400000000000003390100000000000121902013071500000010000000000000BRBVMFACNOR3123
012013070282BVMFS50     080BVMFE       ON      NM000R$  000000000008900000000000890000000000089000000000008900000000000890000000000000000000000000000001000000000000000100000000000000008900000000000130002013071500000010000000000000BRBVMFACNOR3125
012013070282BVMFT10     080BVMFE       ON      NM000R$  000000000000500000000000060000000000005000000000000500000000000060000000000000000000000001200004000000000000020000000000000000110000000000000100002013081900000010000000000000BRBVMFACNOR3125
012013070282BVMFT11     080BVMFE       ON      NM000R$  000000000003100000000000310000000000031000000000003100000000000310000000000015000000000004900001000000000000003000000000000000093000000000000110002013081900000010000000000000BRBVMFACNOR3125
012013070282BVMFT12     080BVMFE FM    ON      NM000R$  000000000003000000000000630000000000030000000000004900000000000620000000000036000000000006000123000000000000130100000000000006445900000000000120002013081900000010000000000000BRBVMFACNOR3125
012013070282BVMFT13     080BVMFE FM    ON      NM000R$  000000000006200000000001090000000000062000000000008000000000000950000000000054000000000000000077000000000000080500000000000006485200000000000128902013081900000010000000000000BRBVMFACNOR3124
012013070282BVMFT41     080BVMFE FM    ON      NM000R$  000000000003300000000000370000000000033000000000003600000000000370000000000000000000000000000008000000000000031000000000000001119300000000000115002013081900000010000000000000BRBVMFACNOR3125
012013070282BVMFT42     080BVMFE FM    ON      NM000R$  000000000004900000000000770000000000048000000000006500000000000750000000000000000000000000000022000000000000088900000000000005850200000000000125002013081900000010000000000000BRBVMFACNOR3125
012013070282BVMFT61     080BVMFE       ON      NM000R$  000000000003300000000000440000000000033000000000003800000000000440000000000000000000000000000002000000000000020000000000000000770000000000000117502013081900000010000000000000BRBVMFACNOR3125
012013070282BVMFT62     080BVMFE       ON      NM000R$  000000000005000000000000650000000000050000000000005900000000000630000000000000000000000000000003000000000000030000000000000001780000000000000122502013081900000010000000000000BRBVMFACNOR3125
012013070282BVMFU11     080BVMFE       ON      NM000R$  000000000002700000000000270000000000027000000000002700000000000270000000000000000000000000000001000000000000000500000000000000013500000000000110002013091600000010000000000000BRBVMFACNOR3125
012013070282BVMFU12     080BVMFE       ON      NM000R$  000000000005500000000000550000000000055000000000005500000000000550000000000000000000000000000001000000000000000100000000000000005500000000000120002013091600000010000000000000BRBVMFACNOR3125
012013070296CALI4F      020CONST A LINDPN           R$  000000001199900000000119990000000011999000000001199900000000119990000000009900000000001200000001000000000000000009000000000000107991000000000000009999123100000010000000000000BRCALIACNPR8131
012013070202CAMB4       010CAMBUCI     PN           R$  000000000020400000000002040000000000204000000000020400000000002040000000000197000000000020300001000000000000020000000000000004080000000000000000009999123100000010000000000000BRCAMBACNPR1117
012013070202CARD3       010CSU CARDSYSTON      NM   R$  000000000028500000000002850000000000271000000000028300000000002850000000000271000000000028500021000000000000007200000000000002039700000000000000009999123100000010000000000000BRCARDACNOR9105
012013070202CBEE3       010AMPLA ENERG ON *         R$  000000000012700000000001270000000000125000000000012500000000001250000000000125000000000014000002000000000001000000000000000000125800000000000000009999123100010000000000000000BRCBEEACNOR3149
012013070296CBMA3F      020COBRASMA    ON           R$  000000000000500000000000050000000000005000000000000500000000000050000000000004000000000000500001000000000000000001000000000000000005000000000000009999123100000010000000000000BRCBMAACNOR4124
012013070202CBMA4       010COBRASMA    PN           R$  000000000000400000000000040000000000004000000000000400000000000040000000000003000000000000400001000000000000010000000000000000040000000000000000009999123100000010000000000000BRCBMAACNPR1124
012013070296CBMA4F      020COBRASMA    PN           R$  000000000000400000000000040000000000004000000000000400000000000040000000000003000000000000400001000000000000000001000000000000000004000000000000009999123100000010000000000000BRCBMAACNPR1124
012013070208CCHI3       010CHIARELLI   ON           R$  000000000002100000000000230000000000017000000000002000000000000170000000000017000000000001800081000000000001070000000000000022080000000000000000009999123100000010000000000000BRCCHIACNOR5123
012013070296CCHI3F      020CHIARELLI   ON           R$  000000000002200000000000250000000000018000000000002100000000000180000000000017000000000002200021000000000000034078000000000000727810000000000000009999123100000010000000000000BRCCHIACNOR5123
012013070208CCHI4       010CHIARELLI   PN           R$  000000000001600000000000160000000000016000000000001600000000000160000000000014000000000001600004000000000000050000000000000000800000000000000000009999123100000010000000000000BRCCHIACNPR2122
012013070202CCPR3       010CYRE COM-CCPON      NM   R$  000000000208600000000021700000000002086000000000211000000000021100000000002110000000000218900019000000000000095100000000000200675700000000000000009999123100000010000000000000BRCCPRACNOR9107
012013070296CCPR3F      020CYRE COM-CCPON      NM   R$  000000000209300000000020930000000002015000000000208700000000020150000000002012000000000214500002000000000000000059000000000000123175000000000000009999123100000010000000000000BRCCPRACNOR9107
012013070202CCRO3       010CCR SA      ON      NM   R$  000000000172100000000017360000000001630000000000167200000000016700000000001669000000000167023843000000000009963900000000016666125500000000000000009999123100000010000000000000BRCCROACNOR2122
012013070296CCRO3F      020CCR SA      ON      NM   R$  000000000174000000000017450000000001632000000000167500000000016520000000001652000000000171200151000000000000004757000000000007971738000000000000009999123100000010000000000000BRCCROACNOR2122
012013070262CCRO3T      030CCR SA      ON      NM030R$  000000000166400000000016650000000001664000000000166400000000016650000000000000000000000000000002000000000000050000000000000083237550000000000000009999123100000010000000000000BRCCROACNOR2122
012013070282CCROT45     080CCROE       ON      NM000R$  000000000001900000000000190000000000019000000000001900000000000190000000000000000000000000000001000000000001000000000000000019000000000000000155002013081900000010000000000000BRCCROACNOR2122
012013070282CCROT46     080CCROE       ON      NM000R$  000000000004900000000000490000000000048000000000004800000000000480000000000000000000000000000002000000000001000000000000000048560000000000000165002013081900000010000000000000BRCCROACNOR2122
012013070202CCXC3       010CCX CARVAO  ON      NM   R$  000000000007300000000000760000000000068000000000007100000000000690000000000069000000000007000614000000000003130000000000000223310900000000000000009999123100000010000000000000BRCCXCACNOR5100
012013070296CCXC3F      020CCX CARVAO  ON      NM   R$  000000000007500000000000750000000000068000000000007100000000000720000000000068000000000007300027000000000000001010000000000000072457000000000000009999123100000010000000000000BRCCXCACNOR5100
012013070202CEBR3       010CEB         ON           R$  000000000175200000000017520000000001752000000000175200000000017520000000000000000000000220000001000000000000031900000000000055888800000000000000009999123100000010000000000000BRCEBRACNOR5114
012013070296CEBR3F      020CEB         ON           R$  000000000175200000000017520000000001752000000000175200000000017520000000001500000000000000000001000000000000000060000000000000105120000000000000009999123100000010000000000000BRCEBRACNOR5114
012013070202CEBR6       010CEB         PNB          R$  000000000175600000000017560000000001756000000000175600000000017560000000000000000000000175600001000000000000017200000000000030203200000000000000009999123100000010000000000000BRCEBRACNPB6113
012013070296CEBR6F      020CEB         PNB          R$  000000000175600000000017560000000001756000000000175600000000017560000000000000000000000309900001000000000000000040000000000000070240000000000000009999123100000010000000000000BRCEBRACNPB6113
012013070202CEDO3       010CEDRO       ON      N1   R$  000000000100000000000010000000000001000000000000100000000000010000000000001000000000000178500002000000000000000200000000000000200000000000000000009999123100000010000000000000BRCEDOACNOR8094
012013070296CEDO3F      020CEDRO       ON      N1   R$  000000000095500000000010000000000000955000000000097600000000010000000000000900000000000178500003000000000000000179000000000000174725000000000000009999123100000010000000000000BRCEDOACNOR8094
012013070202CEDO4       010CEDRO       PN      N1   R$  000000000085000000000008880000000000800000000000081300000000008450000000000750000000000084500023000000000000005700000000000004634100000000000000009999123100000010000000000000BRCEDOACNPR5126
012013070202CEEB3       010COELBA      ON           R$  000000000355000000000035500000000003550000000000355000000000035500000000002900000000000365000001000000000000000100000000000000355000000000000000009999123100000010000000000000BRCEEBACNOR3163
012013070208CELP3       010CELPA       ON           R$  000000000005500000000000570000000000055000000000005500000000000570000000000056000000000005700003000000000000051000000000000002807000000000000000009999123100000010000000000000BRCELPACNOR8112
012013070212CEOC11B     010FII CEO CCP CI      MB   R$  000000000910000000000091000000000008870000000000894000000000088700000000008870000000000900000036000000000000002245000000000020071863000000000000009999123100000010000000000000BRCEOCCTF003107
012013070202CESP3       010CESP        ON      N1   R$  000000000162500000000016350000000001625000000000163300000000016350000000001530000000000164000005000000000000000500000000000000816500000000000000009999123100000010000000000000BRCESPACNOR3159
012013070296CESP3F      020CESP        ON      N1   R$  000000000168200000000016820000000001682000000000168200000000016820000000001682000000000200000001000000000000000001000000000000001682000000000000009999123100000010000000000000BRCESPACNOR3159
012013070202CESP6       010CESP        PNB     N1   R$  000000000193400000000019950000000001868000000000192800000000018980000000001890000000000189903873000000000000901900000000001739127000000000000000009999123100000010000000000000BRCESPACNPB4118
012013070296CESP6F      020CESP        PNB     N1   R$  000000000190900000000020180000000001803000000000194500000000018030000000001810000000000199800043000000000000001467000000000002846623000000000000009999123100000010000000000000BRCESPACNPB4118
012013070278CESPH21     070CESP        PNB     N1000R$  000000000000900000000000300000000000009000000000000900000000000300000000000015000000000003000007000000000000106400000000000000966000000000000210002013081900000010000000000000BRCESPACNPB4118
012013070282CESPT18     080CESPE       PNB     N1000R$  000000000002300000000000230000000000023000000000002300000000000230000000000000000000000000000001000000000000104000000000000002392000000000000180002013081900000010000000000000BRCESPACNPB4118
012013070282CESPT19     080CESPE       PNB     N1000R$  000000000005000000000000500000000000050000000000005000000000000500000000000000000000000000000001000000000000104000000000000005200000000000000190002013081900000010000000000000BRCESPACNPB4118
012013070202CGAS3       010COMGAS      ON           R$  000000000426100000000043990000000004260000000000426700000000042600000000004260000000000438400010000000000000010600000000000045237700000000000000009999123100000010000000000000BRCGASACNOR0132
012013070202CGAS5       010COMGAS      PNA          R$  000000000479600000000047960000000004751000000000476800000000047700000000004757000000000479200178000000000000095200000000000453958500000000000000009999123100000010000000000000BRCGASACNPA3129
012013070296CGAS5F      020COMGAS      PNA          R$  000000000478000000000047800000000004769000000000477200000000047800000000004731000000000480000010000000000000000290000000000001384039000000000000009999123100000010000000000000BRCGASACNPA3129
012013070202CGRA3       010GRAZZIOTIN  ON           R$  000000000155000000000015500000000001500000000000151200000000015120000000001500000000000155000006000000000000006200000000000009374400000000000000009999123100000010000000000000BRCGRAACNOR2061
012013070202CGRA4       010GRAZZIOTIN  PN           R$  000000000155100000000016500000000001551000000000159600000000015990000000001571000000000159900056000000000000047700000000000076164700000000000000009999123100000010000000000000BRCGRAACNPR9061
012013070296CGRA4F      020GRAZZIOTIN  PN           R$  000000000154000000000016000000000001520000000000157500000000016000000000001500000000000163500023000000000000000604000000000000951830000000000000009999123100000010000000000000BRCGRAACNPR9061
012013070202CIEL3       010CIELO       ON      NM   R$  000000000562900000000056900000000005456000000000556500000000055090000000005500000000000550909521000000000002435600000000013556142500000000000000009999123100000010000000000000BRCIELACNOR3111
012013070296CIEL3F      020CIELO       ON      NM   R$  000000000566600000000056890000000005432000000000559500000000054320000000005457000000000565000128000000000000002918000000000016326223000000000000009999123100000010000000000000BRCIELACNOR3111
012013070278CIELG58     070CIEL        ON      NM000R$  000000000003500000000000350000000000035000000000003500000000000350000000000000000000000000000002000000000000000800000000000000028000000000000580002013071500000010000000000000BRCIELACNOR3111
012013070278CIELH56     070CIEL        ON      NM000R$  000000000016000000000001600000000000160000000000016000000000001600000000000000000000000000000002000000000000001000000000000000160000000000000560002013081900000010000000000000BRCIELACNOR3111
012013070202CLSC3       010CELESC      ON      N2   R$  000000000390100000000039010000000003901000000000390100000000039010000000003900000000000000000001000000000000024000000000000093624000000000000000009999123100000010000000000000BRCLSCACNOR6128
012013070296CLSC3F      020CELESC      ON      N2   R$  000000000390100000000039010000000003901000000000390100000000039010000000003008000000000000000001000000000000000056000000000000218456000000000000009999123100000010000000000000BRCLSCACNOR6128
012013070202CLSC4       010CELESC      PN      N2   R$  000000000205000000000020500000000002000000000000202700000000020500000000001970000000000205000013000000000000003600000000000007299200000000000000009999123100000010000000000000BRCLSCACNPR3107
012013070296CLSC4F      020CELESC      PN      N2   R$  000000000201000000000020100000000002010000000000201000000000020100000000001959000000000207000001000000000000000023000000000000046230000000000000009999123100000010000000000000BRCLSCACNPR3107
012013070202CMCS11B     010COMCAST     DRN ED  MB   R$  000000000905600000000090560000000009056000000000905600000000090560000000008908000000000941400001000000000000000200000000000001811200000000000000009999123100000010000000000000BRCMCSBDR008106
012013070202CMIG3       010CEMIG       ON      N1   R$  000000000203900000000020390000000001941000000000197900000000019540000000001954000000000197500305000000000000077200000000000152817300000000000000009999123100000010000000000000BRCMIGACNOR6208
012013070296CMIG3F      020CEMIG       ON      N1   R$  000000000202000000000020340000000001964000000000200600000000020330000000001968000000000203400039000000000000001021000000000002048963000000000000009999123100000010000000000000BRCMIGACNOR6208
012013070202CMIG4       010CEMIG       PN      N1   R$  000000000201700000000020200000000001927000000000197300000000019650000000001960000000000196510039000000000003356600000000006623776500000000000000009999123100000010000000000000BRCMIGACNPR3208
012013070296CMIG4F      020CEMIG       PN      N1   R$  000000000209800000000021000000000001929000000000198500000000019310000000001931000000000196400332000000000000009502000000000018855860000000000000009999123100000010000000000000BRCMIGACNPR3208
012013070262CMIG4T      030CEMIG       PN      N1045R$  000000000201500000000020160000000002015000000000201500000000020160000000000000000000000000000002000000000000001000000000000002015960000000000000009999123100000010000000000000BRCMIGACNPR3208
012013070262CMIG4T      030CEMIG       PN      N1120R$  000000000205800000000020590000000002058000000000205800000000020590000000000000000000000000000002000000000000047800000000000098408623000000000000009999123100000010000000000000BRCMIGACNPR3208
012013070282CMIGU20     080CMIGE       PN      N1000R$  000000000011400000000001140000000000114000000000011400000000001140000000000000000000000000000001000000000000001100000000000000125400000000000200002013091600000010000000000000BRCMIGACNPR3208
012013070212CNES11B     010FII CENESP  CI  ER  MB   R$  000000001229000000000123500000000012256000000001228400000000123100000000012310000000001235000005000000000000000161000000000001977782000000000000009999123100000010000000000000BRCNESCTF001123
012013070202COCA11B     010COCA COLA   DRN     MB   R$  000000000903000000000090300000000008994000000000902500000000089940000000008993000000000935300002000000000000009500000000000085738200000000000000009999123100000010000000000000BRCOCABDR002108
012013070202COCE3       010COELCE      ON           R$  000000000400100000000041000000000004001000000000403600000000040730000000003961000000000407400012000000000000001800000000000007266100000000000000009999123100000010000000000000BRCOCEACNOR0132
012013070296COCE3F      020COELCE      ON           R$  000000000450000000000045000000000004500000000000450000000000045000000000003508000000000000000001000000000000000045000000000000202500000000000000009999123100000010000000000000BRCOCEACNOR0132
012013070202COCE5       010COELCE      PNA          R$  000000000395200000000040200000000003875000000000393900000000039000000000003900000000000393500137000000000000104100000000000410076700000000000000009999123100000010000000000000BRCOCEACNPA3133
012013070296COCE5F      020COELCE      PNA          R$  000000000401000000000040100000000003855000000000392100000000038550000000003855000000000390000022000000000000000281000000000001102071000000000000009999123100000010000000000000BRCOCEACNPA3133
012013070202CPFE3       010CPFL ENERGIAON      NM   R$  000000000205400000000020690000000001986000000000202200000000020390000000002020000000000203904812000000000001149700000000002325802100000000000000009999123100000010000000000000BRCPFEACNOR0121
012013070296CPFE3F      020CPFL ENERGIAON      NM   R$  000000000197000000000020450000000001970000000000201900000000020010000000002000000000000201000050000000000000001500000000000003028470000000000000009999123100000010000000000000BRCPFEACNOR0121
012013070202CPLE3       010COPEL       ON      N1   R$  000000000215800000000021790000000002100000000000215300000000021790000000002113000000000218000033000000000000007700000000000016584400000000000000009999123100000010000000000000BRCPLEACNOR8128
012013070296CPLE3F      020COPEL       ON      N1   R$  000000000216400000000021640000000002164000000000216400000000021640000000002052000000000216400001000000000000000041000000000000088724000000000000009999123100000010000000000000BRCPLEACNOR8128
012013070202CPLE6       010COPEL       PNB     N1   R$  000000000275000000000028160000000002684000000000275500000000027490000000002747000000000274902447000000000000487100000000001342206800000000000000009999123100000010000000000000BRCPLEACNPB9125
012013070296CPLE6F      020COPEL       PNB     N1   R$  000000000282100000000028210000000002650000000000273700000000027980000000002652000000000274500039000000000000001172000000000003208490000000000000009999123100000010000000000000BRCPLEACNPB9125
012013070202CRDE3       010CR2         ON      NM   R$  000000000042400000000004240000000000390000000000039800000000004070000000000398000000000040700014000000000000021200000000000008443900000000000000009999123100000010000000000000BRCRDEACNOR1108
012013070202CREM3       010CREMER      ON      NM   R$  000000000141500000000014150000000001395000000000141300000000013950000000001395000000000141000013000000000000104100000000000147185100000000000000009999123100000010000000000000BRCREMACNOR2166
012013070202CRIV3       010ALFA FINANC ON           R$  000000000047400000000004850000000000474000000000048400000000004850000000000451000000000048800004000000000000012700000000000006157300000000000000009999123100000010000000000000BRCRIVACNOR4189
012013070296CRIV3F      020ALFA FINANC ON           R$  000000000050000000000005000000000000500000000000050000000000005000000000000400000000000050000001000000000000000008000000000000004000000000000000009999123100000010000000000000BRCRIVACNOR4189
012013070202CRIV4       010ALFA FINANC PN           R$  000000000049300000000004930000000000493000000000049300000000004930000000000461000000000049400001000000000000000200000000000000098600000000000000009999123100000010000000000000BRCRIVACNPR1189
012013070202CRUZ3       010SOUZA CRUZ  ON  EJ       R$  000000000278200000000028090000000002752000000000278200000000027520000000002752000000000277005409000000000002368400000000006588125000000000000000009999123100000010000000000000BRCRUZACNOR0246
012013070296CRUZ3F      020SOUZA CRUZ  ON  EJ       R$  000000000279500000000028330000000002731000000000278500000000027310000000002735000000000283500100000000000000002345000000000006525247000000000000009999123100000010000000000000BRCRUZACNOR0246
012013070262CRUZ3T      030SOUZA CRUZ  ON  EJ    030R$  000000000281000000000028110000000002792000000000279800000000027930000000000000000000000000000004000000000000002800000000000007836605000000000000009999123100000010000000000000BRCRUZACNOR0246
012013070278CRUZE82     070CRUZ    /EJ ON        000R$  000000000014600000000001460000000000146000000000014600000000001460000000000000000000000000000001000000000000007400000000000001080400000000000319902014051900000010000000000000BRCRUZACNOR0245
012013070278CRUZH27     070CRUZ    /EJ ON        000R$  000000000012500000000001250000000000125000000000012500000000001250000000000000000000000000000002000000000000000300000000000000037500000000000270002013081900000010000000000000BRCRUZACNOR0246
012013070202CSAN3       010COSAN       ON      NM   R$  000000000430100000000043280000000004160000000000425100000000042310000000004231000000000424203784000000000000935200000000003975457000000000000000009999123100000010000000000000BRCSANACNOR6107
012013070296CSAN3F      020COSAN       ON      NM   R$  000000000430500000000043330000000004167000000000425900000000042990000000004162000000000429900033000000000000001017000000000004332378000000000000009999123100000010000000000000BRCSANACNOR6107
012013070262CSAN3T      030COSAN       ON      NM030R$  000000000429700000000042980000000004297000000000429700000000042980000000000000000000000000000002000000000000001100000000000004727761000000000000009999123100000010000000000000BRCSANACNOR6107
012013070202CSCO11B     010CISCO       DRN ED  MB   R$  000000000532500000000053250000000005325000000000532500000000053250000000005324000000000561100001000000000000000100000000000000532500000000000000009999123100000010000000000000BRCSCOBDR004110
012013070202CSMG3       010COPASA      ON  EJ  NM   R$  000000000362400000000036300000000003376000000000349700000000034080000000003408000000000343402286000000000000446400000000001561335200000000000000009999123100000010000000000000BRCSMGACNOR5127
012013070296CSMG3F      020COPASA      ON  EJ  NM   R$  000000000361900000000036890000000003351000000000349300000000034980000000003350000000000349800045000000000000001296000000000004527841000000000000009999123100000010000000000000BRCSMGACNOR5127
012013070214CSMO11      010ISHARES CSMOCI           R$  000000000450000000000045000000000004437000000000445700000000044370000000004300000000000449500006000000000000000950000000000004234800000000000000009999123100000010000000000000BRCSMOCTF002100
012013070202CSNA3       010SID NACIONALON           R$  000000000060000000000006010000000000566000000000058100000000005700000000000570000000000057415132000000000007970300000000004630233700000000000000009999123100000010000000000000BRCSNAACNOR6242
012013070296CSNA3F      020SID NACIONALON           R$  000000000060800000000006080000000000570000000000058200000000005700000000000571000000000057400180000000000000004020000000000002341648000000000000009999123100000010000000000000BRCSNAACNOR6242
012013070262CSNA3T      030SID NACIONALON        016R$  000000000059000000000005910000000000572000000000057200000000005730000000000000000000000000000006000000000000104000000000000059582815000000000000009999123100000010000000000000BRCSNAACNOR6242
012013070262CSNA3T      030SID NACIONALON        030R$  000000000058100000000005830000000000578000000000058100000000005790000000000000000000000000000006000000000000012000000000000006982583000000000000009999123100000010000000000000BRCSNAACNOR6242
012013070262CSNA3T      030SID NACIONALON        045R$  000000000059800000000005990000000000598000000000059800000000005990000000000000000000000000000004000000000000065000000000000038876344000000000000009999123100000010000000000000BRCSNAACNOR6242
012013070262CSNA3T      030SID NACIONALON        062R$  000000000059500000000005960000000000585000000000059500000000005870000000000000000000000000000006000000000000020600000000000012267898000000000000009999123100000010000000000000BRCSNAACNOR6242
012013070262CSNA3T      030SID NACIONALON        120R$  000000000061200000000006130000000000612000000000061200000000006130000000000000000000000000000002000000000000001000000000000000612701000000000000009999123100000010000000000000BRCSNAACNOR6242
012013070262CSNA3T      030SID NACIONALON        272R$  000000000063700000000006380000000000637000000000063700000000006380000000000000000000000000000002000000000000001000000000000000637908000000000000009999123100000010000000000000BRCSNAACNOR6242
012013070278CSNAG56     070CSNA        ON        000R$  000000000003600000000000370000000000033000000000003500000000000330000000000000000000000000000008000000000000024000000000000000855000000000000056002013071500000010000000000000BRCSNAACNOR6242
012013070278CSNAG58     070CSNA  FM    ON        000R$  000000000003100000000000310000000000019000000000002000000000000190000000000000000000000000000020000000000000157400000000000003290400000000000058002013071500000010000000000000BRCSNAACNOR6242
012013070278CSNAG6      070CSNA  FM    ON        000R$  000000000001600000000000170000000000011000000000001300000000000130000000000011000000000001900023000000000000079400000000000001100200000000000060002013071500000010000000000000BRCSNAACNOR6242
012013070278CSNAG62     070CSNA  FM    ON        000R$  000000000000800000000000090000000000008000000000000800000000000090000000000000000000000002000003000000000000018000000000000000150000000000000062002013071500000010000000000000BRCSNAACNOR6242
012013070278CSNAG64     070CSNA  FM    ON        000R$  000000000000500000000000050000000000005000000000000500000000000050000000000000000000000000500001000000000000005000000000000000025000000000000064002013071500000010000000000000BRCSNAACNOR6242
012013070278CSNAG66     070CSNA  FM    ON        000R$  000000000000300000000000030000000000003000000000000300000000000030000000000000000000000002000002000000000000004000000000000000012000000000000066002013071500000010000000000000BRCSNAACNOR6242
012013070278CSNAG7      070CSNA        ON        000R$  000000000000200000000000020000000000001000000000000100000000000010000000000001000000000000200006000000000000009300000000000000009800000000000070002013071500000010000000000000BRCSNAACNOR6242
012013070278CSNAH10     070CSNA        ON        000R$  000000000000300000000000030000000000003000000000000300000000000030000000000000000000000000000001000000000000002600000000000000007800000000000096702013081900000010000000000000BRCSNAACNOR6241
012013070278CSNAH52     070CSNA        ON        000R$  000000000007200000000000720000000000072000000000007200000000000720000000000000000000000000000001000000000000002000000000000000144000000000000052002013081900000010000000000000BRCSNAACNOR6242
012013070278CSNAH58     070CSNA  FM    ON        000R$  000000000003800000000000410000000000038000000000003900000000000410000000000000000000000005000008000000000000024000000000000000954000000000000058002013081900000010000000000000BRCSNAACNOR6242
012013070278CSNAH6      070CSNA  FM    ON        000R$  000000000003200000000000330000000000030000000000003100000000000300000000000000000000000013800003000000000000005800000000000000181900000000000060002013081900000010000000000000BRCSNAACNOR6242
012013070278CSNAH64     070CSNA  FM    ON        000R$  000000000001900000000000190000000000018000000000001800000000000180000000000000000000000000000002000000000000004600000000000000083900000000000064002013081900000010000000000000BRCSNAACNOR6242
012013070278CSNAH7      070CSNA        ON        000R$  000000000000700000000000070000000000007000000000000700000000000070000000000005000000000000800001000000000000000300000000000000002100000000000070002013081900000010000000000000BRCSNAACNOR6242
