00COTAHIST.2013BOVESPA 20131016                                                                                                                                                                                                                      
012013101602ABCB4       010ABC BRASIL  PN      N2   R$  000000000136000000000014200000000001324000000000135200000000013670000000001361000000000136701484000000000000256000000000000346349900000000000000009999123100000010000000000000BRABCBACNPR4120
012013101696ABCB4F      020ABC BRASIL  PN      N2   R$  000000000136000000000013800000000001322000000000134900000000013800000000001337000000000138000036000000000000000792000000000001068579000000000000009999123100000010000000000000BRABCBACNPR4120
012013101602ABRE11      010ABRIL EDUCA UNT     N2   R$  000000000337700000000034220000000003344000000000339100000000033900000000003383000000000339000739000000000000187000000000000634259100000000000000009999123100000010000000000000BRABRECDAM15102
012013101696ABRE11F     020ABRIL EDUCA UNT     N2   R$  000000000341600000000034200000000003333000000000339300000000033330000000003333000000000342000014000000000000000405000000000001374210000000000000009999123100000010000000000000BRABRECDAM15102
012013101602AEDU3       010ANHANGUERA  ON      NM   R$  000000000137600000000013760000000001312000000000132900000000013280000000001323000000000132811651000000000004708200000000006260833600000000000000009999123100000010000000000000BRAEDUACNOR9107
012013101696AEDU3F      020ANHANGUERA  ON      NM   R$  000000000136000000000013740000000001317000000000133200000000013200000000001319000000000137500034000000000000001068000000000001422783000000000000009999123100000010000000000000BRAEDUACNOR9107
012013101612AEFI11      010FII AESAPAR CI           R$  000000001210000000000121000000000012010000000001203600000000120480000000012000000000001204800027000000000000000847000000000010194997000000000000009999123100000010000000000000BRAEFICTF002122
012013101602AELP3       010AES ELPA    ON           R$  000000000091800000000009490000000000909000000000093600000000009490000000000900000000000094900009000000000000001700000000000001592200000000000000009999123100000010000000000000BRAELPACNOR2119
012013101696AELP3F      020AES ELPA    ON           R$  000000000091800000000009180000000000900000000000091700000000009000000000000900000000000097500003000000000000000051000000000000046782000000000000009999123100000010000000000000BRAELPACNOR2119
012013101696AFLU3F      020AFLUENTE    ON           R$  000000000056500000000005650000000000565000000000056500000000005650000000000358000000000000000002000000000000000013000000000000007345000000000000009999123100000010000000000000BRAFLUACNOR9117
012013101612AGCX11      010FII AG CAIXACI           R$  000000009449000000000944900000000093799000000009413400000000937990000000093700000000009379900040000000000000000332000000000031252502000000000000009999123100000010000000000000BRAGCXCTF003111
012013101602AGRO3       010BRASILAGRO  ON      NM   R$  000000000098300000000010100000000000983000000000100000000000010050000000000986000000000100500013000000000000074000000000000074012300000000000000009999123100000010000000000000BRAGROACNOR7102
012013101662AGRO3T      030BRASILAGRO  ON      NM033R$  000000000100200000000010030000000001002000000000100200000000010030000000000000000000000000000002000000000000033000000000000033081262000000000000009999123100000010000000000000BRAGROACNOR7102
012013101602ALLL3       010ALL AMER LATON      NM   R$  000000000083500000000008620000000000832000000000084900000000008540000000000853000000000085411330000000000004395500000000003732965300000000000000009999123100000010000000000000BRALLLACNOR6118
012013101696ALLL3F      020ALL AMER LATON      NM   R$  000000000083200000000008600000000000828000000000084400000000008470000000000847000000000085000113000000000000003703000000000003128255000000000000009999123100000010000000000000BRALLLACNOR6118
012013101662ALLL3T      030ALL AMER LATON      NM033R$  000000000084500000000008460000000000845000000000084500000000008460000000000000000000000000000002000000000000002000000000000001690921000000000000009999123100000010000000000000BRALLLACNOR6118
012013101662ALLL3T      030ALL AMER LATON      NM090R$  000000000085300000000008700000000000853000000000086700000000008700000000000000000000000000000006000000000000060000000000000052020804000000000000009999123100000010000000000000BRALLLACNOR6118
012013101678ALLLK86     070ALLL        ON      NM000R$  000000000000700000000000070000000000007000000000000700000000000070000000000000000000000000000002000000000000012000000000000000084000000000000086002013111800000010000000000000BRALLLACNOR6118
012013101682ALLLN45     080ALLLE       ON      NM000R$  000000000010800000000001080000000000108000000000010800000000001080000000000000000000000000000001000000000000010000000000000001080000000000000095002014021700000010000000000000BRALLLACNOR6118
012013101682ALLLW39     080ALLLE       ON      NM000R$  000000000010800000000001080000000000108000000000010800000000001080000000000000000000000000000001000000000000010000000000000001080000000000000095002013111800000010000000000000BRALLLACNOR6118
012013101612ALMI11B     010FII TORRE ALCI      MB   R$  000000031889800000003200000000000318898000000031974900000003200000000000317100000000032280000013000000000000000060000000000019184977000000000000009999123100000010000000000000BRALMICTF003206
012013101602ALPA4       010ALPARGATAS  PN      N1   R$  000000000146900000000014930000000001458000000000146900000000014850000000001483000000000148500962000000000000656300000000000964254200000000000000009999123100000010000000000000BRALPAACNPR7203
012013101696ALPA4F      020ALPARGATAS  PN      N1   R$  000000000147000000000014900000000001460000000000147800000000014890000000001471000000000148000018000000000000000401000000000000592940000000000000009999123100000010000000000000BRALPAACNPR7203
012013101602ALSC3       010ALIANSCE    ON      NM   R$  000000000214000000000021600000000002120000000000213800000000021400000000002139000000000214001037000000000000244500000000000522825600000000000000009999123100000010000000000000BRALSCACNOR0104
012013101696ALSC3F      020ALIANSCE    ON      NM   R$  000000000214300000000021430000000002134000000000213900000000021360000000002138000000000214500004000000000000000190000000000000406531000000000000009999123100000010000000000000BRALSCACNOR0104
012013101662ALSC3T      030ALIANSCE    ON      NM033R$  000000000214200000000021520000000002142000000000215000000000021520000000000000000000000000000014000000000000010000000000000021503108000000000000009999123100000010000000000000BRALSCACNOR0104
012013101602ALUP11      010ALUPAR      UNT     N2   R$  000000000174500000000017450000000001722000000000172400000000017230000000001722000000000173100193000000000000767200000000001322936300000000000000009999123100000010000000000000BRALUPCDAM15100
012013101696ALUP11F     020ALUPAR      UNT     N2   R$  000000000174000000000017500000000001722000000000173300000000017500000000001722000000000176000008000000000000000135000000000000233986000000000000009999123100000010000000000000BRALUPCDAM15100
012013101662ALUP11T     030ALUPAR      UNT     N2090R$  000000000176200000000017630000000001762000000000176200000000017630000000000000000000000000000002000000000000000400000000000000704835000000000000009999123100000010000000000000BRALUPCDAM15100
012013101602AMAR3       010LOJAS MARISAON      NM   R$  000000000200200000000020530000000001993000000000202600000000020100000000002010000000000201701721000000000000406800000000000824448700000000000000009999123100000010000000000000BRAMARACNOR4109
012013101696AMAR3F      020LOJAS MARISAON      NM   R$  000000000202200000000020320000000001995000000000202000000000019950000000001995000000000201600011000000000000000211000000000000426310000000000000009999123100000010000000000000BRAMARACNOR4109
012013101662AMAR3T      030LOJAS MARISAON      NM033R$  000000000206000000000020610000000002036000000000204900000000020370000000000000000000000000000006000000000000022900000000000046928364000000000000009999123100000010000000000000BRAMARACNOR4109
012013101662AMAR3T      030LOJAS MARISAON      NM120R$  000000000208200000000020830000000002082000000000208200000000020830000000000000000000000000000002000000000000001000000000000002082291000000000000009999123100000010000000000000BRAMARACNOR4109
012013101602AMBV3       010AMBEV       ON           R$  000000000855900000000085670000000008401000000000845900000000084700000000008457000000000847000756000000000000120600000000001020188100000000000000009999123100000010000000000000BRAMBVACNOR4154
012013101696AMBV3F      020AMBEV       ON           R$  000000000852000000000085300000000008426000000000848000000000085000000000008438000000000850000038000000000000000880000000000007462558000000000000009999123100000010000000000000BRAMBVACNOR4154
012013101662AMBV3T      030AMBEV       ON        033R$  000000000852600000000085270000000008526000000000852600000000085270000000000000000000000000000002000000000000002000000000000017052299000000000000009999123100000010000000000000BRAMBVACNOR4154
012013101662AMBV3T      030AMBEV       ON        047R$  000000000851800000000085190000000008518000000000851800000000085190000000000000000000000000000002000000000000000100000000000000851818000000000000009999123100000010000000000000BRAMBVACNOR4154
012013101602AMBV4       010AMBEV       PN           R$  000000000856500000000085760000000008392000000000845500000000084700000000008447000000000847007281000000000001660000000000014036792500000000000000009999123100000010000000000000BRAMBVACNPR1154
012013101696AMBV4F      020AMBEV       PN           R$  000000000855000000000085690000000008405000000000846700000000084700000000008470000000000850500257000000000000006585000000000055762440000000000000009999123100000010000000000000BRAMBVACNPR1154
012013101662AMBV4S      030AMBEV       PN        090R$  000000000861100000000086680000000008611000000000862800000000086680000000000000000000000000000006000000000000002600000000000022432915000000000000009999123100000010000000000000BRAMBVACNPR1154
012013101662AMBV4T      030AMBEV       PN        090R$  000000000863600000000086370000000008636000000000863600000000086370000000000000000000000000000002000000000000002000000000000017272928000000000000009999123100000010000000000000BRAMBVACNPR1154
012013101662AMBV4T      030AMBEV       PN        120R$  000000000869700000000086980000000008697000000000869700000000086980000000000000000000000000000002000000000000000900000000000007827728000000000000009999123100000010000000000000BRAMBVACNPR1154
012013101662AMBV4T      030AMBEV       PN        180R$  000000000897200000000089730000000008908000000000892900000000089090000000000000000000000000000004000000000000001500000000000013394542000000000000009999123100000010000000000000BRAMBVACNPR1154
012013101662AMBV4T      030AMBEV       PN        033R$  000000000864000000000086410000000008511000000000852900000000085240000000000000000000000000000018000000000000006500000000000055440771000000000000009999123100000010000000000000BRAMBVACNPR1154
012013101662AMBV4T      030AMBEV       PN        061R$  000000000852000000000085960000000008520000000000853700000000085960000000000000000000000000000006000000000000004700000000000040126190000000000000009999123100000010000000000000BRAMBVACNPR1154
012013101602ARTR3       010ARTERIS     ON      NM   R$  000000000193900000000019510000000001911000000000192700000000019370000000001925000000000193701580000000000000267400000000000515541100000000000000009999123100000010000000000000BRARTRACNOR3101
012013101696ARTR3F      020ARTERIS     ON      NM   R$  000000000193500000000019890000000001907000000000193700000000019500000000001906000000000198900017000000000000000530000000000001026660000000000000009999123100000010000000000000BRARTRACNOR3101
012013101662ARTR3T      030ARTERIS     ON      NM362R$  000000000212600000000021270000000002126000000000212600000000021270000000000000000000000000000002000000000000000300000000000000637876000000000000009999123100000010000000000000BRARTRACNOR3101
012013101602ARZZ3       010AREZZO CO   ON      NM   R$  000000000351000000000035630000000003462000000000352300000000034620000000003461000000000346300684000000000000108000000000000380516400000000000000009999123100000010000000000000BRARZZACNOR3109
012013101696ARZZ3F      020AREZZO CO   ON      NM   R$  000000000359900000000035990000000003450000000000353300000000034500000000003450000000000347200022000000000000000717000000000002533655000000000000009999123100000010000000000000BRARZZACNOR3109
012013101662ARZZ3T      030AREZZO CO   ON      NM033R$  000000000352600000000035270000000003526000000000352600000000035270000000000000000000000000000002000000000000000600000000000002115873000000000000009999123100000010000000000000BRARZZACNOR3109
012013101602AUTM3       010AUTOMETAL   ON      NM   R$  000000000184500000000018500000000001836000000000184400000000018440000000001839000000000184400147000000000000043700000000000080617000000000000000009999123100000010000000000000BRAUTMACNOR8109
012013101696AUTM3F      020AUTOMETAL   ON      NM   R$  000000000184500000000018500000000001845000000000184700000000018460000000001839000000000185000004000000000000000158000000000000291886000000000000009999123100000010000000000000BRAUTMACNOR8109
012013101602AZEV4       010AZEVEDO     PN           R$  000000000014900000000001490000000000121000000000014800000000001210000000000121000000000017000002000000000000005100000000000000757100000000000000009999123100000010000000000000BRAZEVACNPR7113
012013101602BAHI3       010BAHEMA      ON           R$  000000000049000000000004900000000000478000000000048100000000004780000000000476000000000050500009000000000000003400000000000001637600000000000000009999123100000010000000000000BRBAHIACNOR1066
012013101602BAUH4       010EXCELSIOR   PN           R$  000000000092000000000009380000000000920000000000092900000000009380000000000900000000000093800002000000000000000200000000000000185800000000000000009999123100000010000000000000BRBAUHACNPR3108
012013101696BAUH4F      020EXCELSIOR   PN           R$  000000000090000000000009000000000000900000000000090000000000009000000000000901000000000098700001000000000000000009000000000000008100000000000000009999123100000010000000000000BRBAUHACNPR3108
012013101602BAZA3       010AMAZONIA    ON           R$  000000000003300000000000340000000000033000000000003300000000000330000000000032000000000003300010000000000000114000000000000003766000000000000000009999123100000010000000000000BRBAZAACNOR0163
012013101696BAZA3F      020AMAZONIA    ON           R$  000000000003200000000000320000000000032000000000003200000000000320000000000033000000000003500003000000000000000890000000000000028480000000000000009999123100000010000000000000BRBAZAACNOR0163
012013101662BAZA3T      030AMAZONIA    ON        120R$  000000000003300000000000340000000000033000000000003300000000000340000000000000000000000000000004000000000000100000000000000003395700000000000000009999123100000010000000000000BRBAZAACNOR0163
012013101602BBAS3       010BRASIL      ON      NM   R$  000000000271400000000027790000000002706000000000275600000000027650000000002765000000000276620487000000000008176800000000022538360800000000000000009999123100000010000000000000BRBBASACNOR3239
012013101696BBAS3F      020BRASIL      ON      NM   R$  000000000271000000000027790000000002700000000000274700000000027510000000002751000000000276600396000000000000011454000000000031477423000000000000009999123100000010000000000000BRBBASACNOR3239
012013101662BBAS3T      030BRASIL      ON      NM033R$  000000000273000000000027580000000002730000000000274200000000027580000000000000000000000000000006000000000000009200000000000025233241000000000000009999123100000010000000000000BRBBASACNOR3239
012013101662BBAS3T      030BRASIL      ON      NM061R$  000000000277300000000027740000000002773000000000277300000000027740000000000000000000000000000002000000000000005400000000000014976621000000000000009999123100000010000000000000BRBBASACNOR3239
012013101662BBAS3T      030BRASIL      ON      NM090R$  000000000279100000000028100000000002788000000000279000000000028100000000000000000000000000000006000000000000010500000000000029304589000000000000009999123100000010000000000000BRBBASACNOR3239
012013101678BBASA27     070BBAS        ON      NM000R$  000000000027100000000002710000000000271000000000027100000000002710000000000159000000000000000001000000000000001000000000000000271000000000000259502014012000000010000000000000BRBBASACNOR3237
012013101678BBASJ21     070BBAS        ON      NM000R$  000000000079200000000007920000000000779000000000078400000000007790000000000000000000000000000004000000000000000700000000000000549200000000000199502013102100000010000000000000BRBBASACNOR3237
012013101638BBASJ23E    012BBAS        ON      NM000R$  000000000216100000000021610000000002161000000000216100000000021610000000000000000000000000000003000000000000087700000000000189519700000000000216102013102100000010000000000000BRBBASACNOR3239
012013101678BBASJ25     070BBAS        ON      NM000R$  000000000036000000000004000000000000305000000000036500000000003780000000000376000000000043300012000000000000029100000000000010645500000000000239502013102100000010000000000000BRBBASACNOR3237
012013101638BBASJ25E    012BBAS        ON      NM000R$  000000000239500000000023950000000002395000000000239500000000023950000000000000000000000000000046000000000000085800000000000205491000000000000239502013102100000010000000000000BRBBASACNOR3239
012013101678BBASJ26     070BBAS        ON      NM000R$  000000000026500000000003230000000000265000000000029700000000003230000000000278000000000000000146000000000000039300000000000011674900000000000246102013102100000010000000000000BRBBASACNOR3235
012013101678BBASJ27     070BBAS        ON      NM000R$  000000000017300000000002300000000000171000000000019300000000002190000000000201000000000021900017000000000000011800000000000002278300000000000256102013102100000010000000000000BRBBASACNOR3235
012013101678BBASJ28     070BBAS        ON      NM000R$  000000000003700000000000890000000000037000000000006800000000000840000000000084000000000009200182000000000000150000000000000010200900000000000269502013102100000010000000000000BRBBASACNOR3237
012013101678BBASJ29     070BBAS        ON      NM000R$  000000000001200000000000350000000000010000000000002600000000000320000000000011000000000003100181000000000000168400000000000004472400000000000276102013102100000010000000000000BRBBASACNOR3235
012013101678BBASJ30     070BBAS        ON      NM000R$  000000000000300000000000030000000000003000000000000300000000000030000000000001000000000000300003000000000000017000000000000000051000000000000286102013102100000010000000000000BRBBASACNOR3235
012013101678BBASJ31     070BBAS        ON      NM000R$  000000000000100000000000010000000000001000000000000100000000000010000000000000000000000000100002000000000000009000000000000000009000000000000307302013102100000010000000000000BRBBASACNOR3238
012013101678BBASJ65     070BBAS        ON      NM000R$  000000000012600000000001270000000000126000000000012600000000001270000000000000000000000000000002000000000000007600000000000000960200000000000265002013102100000010000000000000BRBBASACNOR3239
012013101678BBASK23     070BBAS        ON      NM000R$  000000000059000000000005900000000000590000000000059000000000005900000000000162000000000000000003000000000000003600000000000002124000000000000219502013111800000010000000000000BRBBASACNOR3237
012013101678BBASK24     070BBAS        ON      NM000R$  000000000043000000000004760000000000430000000000044300000000004760000000000000000000000000000003000000000000000700000000000000310200000000000229502013111800000010000000000000BRBBASACNOR3237
012013101678BBASK25     070BBAS        ON      NM000R$  000000000038400000000003840000000000384000000000038400000000003840000000000340000000000000000001000000000000000100000000000000038400000000000237102013111800000010000000000000BRBBASACNOR3236
012013101678BBASK26     070BBAS        ON      NM000R$  000000000027800000000003200000000000278000000000029200000000003160000000000100000000000032900015000000000000011900000000000003480400000000000247102013111800000010000000000000BRBBASACNOR3236
012013101678BBASK27     070BBAS  FM    ON      NM000R$  000000000019100000000002350000000000191000000000021700000000002320000000000190000000000000000138000000000000153000000000000033222600000000000257102013111800000010000000000000BRBBASACNOR3236
012013101678BBASK28     070BBAS  FM    ON      NM000R$  000000000011700000000001520000000000117000000000013200000000001500000000000080000000000015500222000000000000148700000000000019698600000000000267102013111800000010000000000000BRBBASACNOR3236
012013101678BBASK29     070BBAS  FM    ON      NM000R$  000000000005500000000000720000000000052000000000005800000000000690000000000058000000000009000206000000000000341000000000000019813000000000000279502013111800000010000000000000BRBBASACNOR3237
012013101678BBASK30     070BBAS  FM    ON      NM000R$  000000000002400000000000320000000000023000000000002800000000000280000000000016000000000003100046000000000000076800000000000002152000000000000289502013111800000010000000000000BRBBASACNOR3237
012013101678BBASK31     070BBAS  FM    ON      NM000R$  000000000001200000000000130000000000010000000000001100000000000120000000000009000000000001400026000000000000056000000000000000646000000000000299502013111800000010000000000000BRBBASACNOR3237
012013101678BBASK32     070BBAS        ON      NM000R$  000000000000300000000000030000000000003000000000000300000000000030000000000002000000000000800005000000000000017900000000000000053700000000000320002013111800000010000000000000BRBBASACNOR3239
012013101678BBASK56     070BBAS        ON      NM000R$  000000000014700000000001670000000000147000000000015400000000001590000000000000000000000000000005000000000000019000000000000002933000000000000262302013111800000010000000000000BRBBASACNOR3238
012013101678BBASK57     070BBAS        ON      NM000R$  000000000006500000000000920000000000065000000000007400000000000920000000000070000000000000000026000000000000018400000000000001375800000000000275002013111800000010000000000000BRBBASACNOR3239
012013101678BBASK58     070BBAS        ON      NM000R$  000000000003100000000000370000000000031000000000003300000000000310000000000032000000000000000011000000000000042100000000000001411300000000000285002013111800000010000000000000BRBBASACNOR3239
012013101678BBASL26     070BBAS        ON      NM000R$  000000000031400000000003530000000000314000000000034800000000003460000000000016000000000000000006000000000000006300000000000002197200000000000246102013121600000010000000000000BRBBASACNOR3235
012013101678BBASL27     070BBAS  FM    ON      NM000R$  000000000020400000000002460000000000204000000000022400000000002450000000000155000000000000000104000000000000147800000000000033115500000000000259502013121600000010000000000000BRBBASACNOR3237
012013101678BBASL28     070BBAS  FM    ON      NM000R$  000000000014400000000001710000000000141000000000015500000000001700000000000090000000000000000054000000000000070200000000000010929400000000000269502013121600000010000000000000BRBBASACNOR3237
012013101678BBASL29     070BBAS  FM    ON      NM000R$  000000000010200000000001280000000000102000000000010800000000001250000000000016000000000000000045000000000000548500000000000059398100000000000276102013121600000010000000000000BRBBASACNOR3235
012013101678BBASL30     070BBAS  FM    ON      NM000R$  000000000002400000000000330000000000023000000000002800000000000310000000000007000000000003900231000000000000641000000000000018283300000000000300002013121600000010000000000000BRBBASACNOR3239
012013101678BBASL31     070BBAS        ON      NM000R$  000000000000400000000000040000000000004000000000000400000000000040000000000004000000000000000002000000000000002000000000000000008000000000000310002013121600000010000000000000BRBBASACNOR3239
012013101678BBASL59     070BBAS        ON      NM000R$  000000000003500000000000350000000000035000000000003500000000000350000000000000000000000000000048000000000000200000000000000007000000000000000295002013121600000010000000000000BRBBASACNOR3239
012013101678BBASL60     070BBAS        ON      NM000R$  000000000006100000000000750000000000061000000000006700000000000730000000000014000000000007400046000000000000011900000000000000804400000000000286202013121600000010000000000000BRBBASACNOR3233
012013101678BBASL65     070BBAS        ON      NM000R$  000000000000900000000000090000000000009000000000000900000000000090000000000000000000000000000002000000000000190000000000000001710000000000000305002013121600000010000000000000BRBBASACNOR3239
012013101678BBASL79     070BBAS  FM    ON      NM000R$  000000000004400000000000630000000000043000000000005100000000000560000000000000000000000000000067000000000000079100000000000004110600000000000290002013121600000010000000000000BRBBASACNOR3239
012013101682BBASM26     080BBASE       ON      NM000R$  000000000003300000000000330000000000033000000000003300000000000330000000000000000000000000000001000000000000000700000000000000023100000000000249502014012000000010000000000000BRBBASACNOR3237
012013101682BBASM29     080BBASE       ON      NM000R$  000000000018900000000001890000000000166000000000017700000000001660000000000000000000000000000002000000000000006000000000000001065000000000000290002014012000000010000000000000BRBBASACNOR3239
012013101682BBASM30     080BBASE       ON      NM000R$  000000000018600000000001860000000000163000000000017400000000001630000000000000000000000000000002000000000000006000000000000001047000000000000289502014012000000010000000000000BRBBASACNOR3237
012013101682BBASV22     080BBASE       ON      NM000R$  000000000000100000000000010000000000001000000000000100000000000010000000000000000000000000000001000000000000000100000000000000000100000000000209502013102100000010000000000000BRBBASACNOR3237
012013101682BBASV26     080BBASE       ON      NM000R$  000000000000100000000000010000000000001000000000000100000000000010000000000000000000000000100001000000000000001000000000000000001000000000000246102013102100000010000000000000BRBBASACNOR3235
012013101682BBASV27     080BBASE       ON      NM000R$  000000000000200000000000020000000000001000000000000100000000000010000000000000000000000000100015000000000000016900000000000000033700000000000256102013102100000010000000000000BRBBASACNOR3235
012013101682BBASV28     080BBASE       ON      NM000R$  000000000001500000000000150000000000003000000000000700000000000030000000000004000000000000000023000000000000053000000000000000377000000000000269502013102100000010000000000000BRBBASACNOR3237
012013101682BBASV29     080BBASE       ON      NM000R$  000000000004000000000000400000000000016000000000001900000000000190000000000017000000000000000099000000000000159700000000000003089200000000000276102013102100000010000000000000BRBBASACNOR3235
012013101682BBASW24     080BBASE       ON      NM000R$  000000000000300000000000040000000000003000000000000300000000000030000000000000000000000001500009000000000000064900000000000000219700000000000229502013111800000010000000000000BRBBASACNOR3237
012013101682BBASW26     080BBASE FM    ON      NM000R$  000000000000600000000000070000000000006000000000000600000000000060000000000000000000000002600041000000000000072700000000000000491700000000000247102013111800000010000000000000BRBBASACNOR3236
012013101682BBASW27     080BBASE FM    ON      NM000R$  000000000002200000000000220000000000014000000000001800000000000150000000000014000000000002000029000000000000034000000000000000628800000000000257102013111800000010000000000000BRBBASACNOR3236
012013101682BBASW28     080BBASE FM    ON      NM000R$  000000000005000000000000500000000000029000000000003900000000000330000000000030000000000003600122000000000000304200000000000012032400000000000267102013111800000010000000000000BRBBASACNOR3236
012013101682BBASW29     080BBASE FM    ON      NM000R$  000000000010500000000001050000000000070000000000008700000000000730000000000000000000000009900055000000000000092900000000000008098000000000000279502013111800000010000000000000BRBBASACNOR3237
012013101682BBASX25     080BBASE       ON      NM000R$  000000000001100000000000110000000000011000000000001100000000000110000000000000000000000003100001000000000000001600000000000000017600000000000236102013121600000010000000000000BRBBASACNOR3235
012013101682BBASX26     080BBASE FM    ON      NM000R$  000000000002100000000000210000000000015000000000001700000000000150000000000000000000000010000014000000000000023000000000000000399000000000000246102013121600000010000000000000BRBBASACNOR3235
012013101682BBASX27     080BBASE FM    ON      NM000R$  000000000004700000000000470000000000033000000000004200000000000340000000000000000000000000000016000000000000027300000000000001152300000000000259502013121600000010000000000000BRBBASACNOR3237
012013101682BBASX28     080BBASE FM    ON      NM000R$  000000000007800000000000780000000000057000000000006700000000000590000000000000000000000011000028000000000000046200000000000003118100000000000269502013121600000010000000000000BRBBASACNOR3237
012013101682BBASX29     080BBASE FM    ON      NM000R$  000000000010600000000001060000000000079000000000008900000000000820000000000000000000000000000019000000000000032200000000000002880800000000000276102013121600000010000000000000BRBBASACNOR3235
012013101602BBDC3       010BRADESCO    ON      N1   R$  000000000368300000000037300000000003526000000000369600000000036700000000003669000000000367007278000000000002289000000000008460248400000000000000009999123100000010000000000000BRBBDCACNOR1607
012013101696BBDC3F      020BRADESCO    ON      N1   R$  000000000365500000000037290000000003640000000000369300000000036930000000003590000000000370000040000000000000001204000000000004447189000000000000009999123100000010000000000000BRBBDCACNOR1607
012013101662BBDC3T      030BRADESCO    ON      N1061R$  000000000373600000000037370000000003736000000000373600000000037370000000000000000000000000000002000000000000005800000000000021670614000000000000009999123100000010000000000000BRBBDCACNOR1607
012013101602BBDC4       010BRADESCO    PN      N1   R$  000000000323300000000033070000000003225000000000327200000000032600000000003257000000000326023644000000000010576200000000034607189900000000000000009999123100000010000000000000BRBBDCACNPR8607
012013101696BBDC4F      020BRADESCO    PN      N1   R$  000000000322800000000033050000000003227000000000327000000000032640000000003262000000000327900285000000000000007462000000000024404790000000000000009999123100000010000000000000BRBBDCACNPR8607
012013101662BBDC4T      030BRADESCO    PN      N1016R$  000000000325200000000032530000000003252000000000325200000000032530000000000000000000000000000002000000000000001000000000000003252895000000000000009999123100000010000000000000BRBBDCACNPR8607
012013101662BBDC4T      030BRADESCO    PN      N1061R$  000000000332100000000033220000000003321000000000332100000000033220000000000000000000000000000002000000000000000100000000000000332147000000000000009999123100000010000000000000BRBBDCACNPR8607
012013101678BBDCA34     070BBDC        PN      N1000R$  000000000013000000000001300000000000130000000000013000000000001300000000000000000000000000000024000000000000010000000000000001300000000000000339402014012000000010000000000000BRBBDCACNPR8604
012013101678BBDCA37     070BBDC        PN      N1000R$  000000000003600000000000390000000000036000000000003700000000000390000000000000000000000000000006000000000000017700000000000000669300000000000367402014012000000010000000000000BRBBDCACNPR8602
012013101678BBDCA40     070BBDC        PN      N1000R$  000000000005100000000000520000000000051000000000005100000000000520000000000000000000000000000003000000000000008400000000000000431400000000000360402014012000000010000000000000BRBBDCACNPR8598
012013101678BBDCC62     070BBDCE       PN      N1000R$  000000000002100000000000430000000000021000000000004100000000000430000000000000000000000000000004000000000001100000000000000045100000000000000393202014031700000010000000000000BRBBDCACNPR8597
012013101678BBDCJ2      070BBDC        PN      N1000R$  000000000003500000000000690000000000034000000000005100000000000690000000000000000000000000000014000000000000060800000000000003152000000000000324202013102100000010000000000000BRBBDCACNPR8603
012013101678BBDCJ29     070BBDC        PN      N1000R$  000000000043600000000004360000000000406000000000041100000000004100000000000382000000000051500003000000000000001600000000000000658200000000000287402013102100000010000000000000BRBBDCACNPR8602
012013101678BBDCJ30     070BBDC        PN      N1000R$  000000000026000000000003500000000000260000000000030500000000003000000000000250000000000033600264000000000000056900000000000017401700000000000297402013102100000010000000000000BRBBDCACNPR8602
012013101678BBDCJ31     070BBDC        PN      N1000R$  000000000016500000000002250000000000165000000000021100000000002090000000000190000000000000000068000000000000130600000000000027669600000000000307402013102100000010000000000000BRBBDCACNPR8602
012013101678BBDCJ32     070BBDC        PN      N1000R$  000000000007500000000001400000000000075000000000011600000000001050000000000000000000000000000038000000000000100200000000000011651300000000000317402013102100000010000000000000BRBBDCACNPR8602
012013101678BBDCJ33     070BBDC        PN      N1000R$  000000000002200000000000590000000000022000000000003900000000000400000000000035000000000000000026000000000000059600000000000002347400000000000327402013102100000010000000000000BRBBDCACNPR8602
012013101678BBDCJ34     070BBDC        PN      N1000R$  000000000000900000000000150000000000008000000000001100000000000080000000000000000000000001100009000000000000122600000000000001375800000000000337002013102100000010000000000000BRBBDCACNPR8600
012013101678BBDCJ58     070BBDC        PN      N1000R$  000000000047000000000004870000000000468000000000047600000000004780000000000250000000000000000007000000000000005700000000000002715200000000000279602013102100000010000000000000BRBBDCACNPR8605
012013101678BBDCK30     070BBDC        PN      N1000R$  000000000031000000000003120000000000310000000000031100000000003120000000000020000000000000000002000000000000002400000000000000746800000000000299602013111800000010000000000000BRBBDCACNPR8605
012013101678BBDCK31     070BBDC  FM    PN      N1000R$  000000000019200000000002460000000000188000000000021800000000002220000000000102000000000000000293000000000000311800000000000068272300000000000309602013111800000010000000000000BRBBDCACNPR8605
012013101678BBDCK32     070BBDC  FM    PN      N1000R$  000000000013200000000001860000000000131000000000016000000000001620000000000151000000000016500344000000000000333000000000000053363000000000000317202013111800000010000000000000BRBBDCACNPR8601
012013101678BBDCK33     070BBDC  FM    PN      N1000R$  000000000007500000000001170000000000075000000000009800000000000960000000000091000000000011000569000000000000325400000000000032178000000000000327402013111800000010000000000000BRBBDCACNPR8602
012013101678BBDCK34     070BBDC  FM    PN      N1000R$  000000000003400000000000560000000000034000000000004600000000000430000000000025000000000006800305000000000000375000000000000017499700000000000339402013111800000010000000000000BRBBDCACNPR8604
012013101678BBDCK35     070BBDC  FM    PN      N1000R$  000000000002500000000000290000000000024000000000002800000000000240000000000000000000000003500053000000000000022200000000000000622800000000000347402013111800000010000000000000BRBBDCACNPR8602
012013101678BBDCK36     070BBDC        PN      N1000R$  000000000001200000000000120000000000012000000000001200000000000120000000000000000000000000000001000000000000001400000000000000016800000000000357202013111800000010000000000000BRBBDCACNPR8601
012013101678BBDCL1      070BBDC  FM    PN      N1000R$  000000000024400000000003030000000000244000000000027600000000002760000000000000000000000000000062000000000000104500000000000028844000000000000307002013121600000010000000000000BRBBDCACNPR8600
012013101678BBDCL15     070BBDC        PN      N1000R$  000000000001000000000000100000000000010000000000001000000000000100000000000000000000000000000002000000000000470000000000000004700000000000000370002013121600000010000000000000BRBBDCACNPR8607
012013101678BBDCL3      070BBDC  FM    PN      N1000R$  000000000012100000000001620000000000121000000000014300000000001510000000000000000000000000000069000000000000096200000000000013807700000000000327002013121600000010000000000000BRBBDCACNPR8601
012013101678BBDCL32     070BBDC  FM    PN      N1000R$  000000000017900000000002280000000000179000000000021000000000002040000000000068000000000026000257000000000000251900000000000053112600000000000317002013121600000010000000000000BRBBDCACNPR8600
012013101678BBDCL34     070BBDC  FM    PN      N1000R$  000000000007700000000001010000000000077000000000009200000000001000000000000000000000000000000050000000000000053800000000000004955500000000000337002013121600000010000000000000BRBBDCACNPR8600
012013101678BBDCL35     070BBDC        PN      N1000R$  000000000005800000000000630000000000058000000000005900000000000630000000000021000000000006800007000000000000001600000000000000094900000000000347002013121600000010000000000000BRBBDCACNPR8600
012013101678BBDCL36     070BBDC        PN      N1000R$  000000000013200000000001590000000000132000000000013700000000001590000000000000000000000000000007000000000000005800000000000000799700000000000323902013121600000010000000000000BRBBDCACNPR8597
012013101678BBDCL37     070BBDC        PN      N1000R$  000000000002100000000000210000000000020000000000002000000000000200000000000000000000000000000002000000000000450000000000000009180000000000000367402013121600000010000000000000BRBBDCACNPR8602
012013101678BBDCL5      070BBDC  FM    PN      N1000R$  000000000005300000000000560000000000051000000000005400000000000560000000000000000000000000000074000000000000104300000000000005633800000000000349802013121600000010000000000000BRBBDCACNPR8606
012013101682BBDCM26     080BBDCE       PN      N1000R$  000000000000900000000000090000000000009000000000000900000000000090000000000000000000000000000001000000000000001200000000000000010800000000000260002014012000000010000000000000BRBBDCACNPR8607
012013101682BBDCM33     080BBDCE       PN      N1000R$  000000000015800000000001580000000000150000000000015400000000001500000000000000000000000000000002000000000000003400000000000000526000000000000329802014012000000010000000000000BRBBDCACNPR8606
012013101682BBDCM34     080BBDCE       PN      N1000R$  000000000020900000000002090000000000196000000000020000000000001960000000000000000000000000000007000000000000012800000000000002562900000000000339402014012000000010000000000000BRBBDCACNPR8604
012013101682BBDCM35     080BBDCE       PN      N1000R$  000000000026500000000002650000000000261000000000026300000000002610000000000000000000000000000003000000000000006000000000000001582000000000000350002014012000000010000000000000BRBBDCACNPR8607
012013101682BBDCM59     080BBDCE       PN      N1000R$  000000000003500000000000350000000000035000000000003500000000000350000000000000000000000000000001000000000000001200000000000000042000000000000294602014012000000010000000000000BRBBDCACNPR8605
012013101682BBDCO61     080BBDCE       PN      N1000R$  000000000003200000000000320000000000032000000000003200000000000320000000000000000000000000000001000000000001000000000000000032000000000000000278602014031700000010000000000000BRBBDCACNPR8598
012013101682BBDCV2      080BBDCE       PN      N1000R$  000000000003300000000000330000000000033000000000003300000000000330000000000000000000000000000001000000000000002000000000000000066000000000000324202013102100000010000000000000BRBBDCACNPR8603
012013101682BBDCV29     080BBDCE       PN      N1000R$  000000000000100000000000010000000000001000000000000100000000000010000000000000000000000000000002000000000000011000000000000000011000000000000287402013102100000010000000000000BRBBDCACNPR8602
012013101682BBDCV32     080BBDCE       PN      N1000R$  000000000001300000000000130000000000013000000000001300000000000130000000000000000000000001300001000000000000000100000000000000001300000000000317402013102100000010000000000000BRBBDCACNPR8602
012013101682BBDCV33     080BBDCE       PN      N1000R$  000000000004900000000000490000000000028000000000003100000000000280000000000000000000000000000011000000000000032500000000000001028000000000000327402013102100000010000000000000BRBBDCACNPR8602
012013101682BBDCW23     080BBDCE       PN      N1000R$  000000000000100000000000010000000000001000000000000100000000000010000000000000000000000000000001000000000000000100000000000000000100000000000229602013111800000010000000000000BRBBDCACNPR8605
012013101682BBDCW30     080BBDCE FM    PN      N1000R$  000000000001300000000000130000000000012000000000001200000000000120000000000000000000000001500011000000000000018000000000000000229300000000000299602013111800000010000000000000BRBBDCACNPR8605
012013101682BBDCW31     080BBDCE FM    PN      N1000R$  000000000002600000000000270000000000024000000000002500000000000250000000000000000000000000000126000000000000134300000000000003444400000000000309602013111800000010000000000000BRBBDCACNPR8605
012013101682BBDCW32     080BBDCE FM    PN      N1000R$  000000000004500000000000470000000000040000000000004200000000000410000000000030000000000000000253000000000000233400000000000009866700000000000317202013111800000010000000000000BRBBDCACNPR8601
012013101682BBDCW33     080BBDCE FM    PN      N1000R$  000000000009900000000000990000000000066000000000008000000000000830000000000000000000000015600104000000000000125700000000000010094900000000000327402013111800000010000000000000BRBBDCACNPR8602
012013101682BBDCW34     080BBDCE       PN      N1000R$  000000000014700000000001480000000000142000000000014500000000001420000000000000000000000000000003000000000000004900000000000000711800000000000339402013111800000010000000000000BRBBDCACNPR8604
012013101682BBDCW9      080BBDCE       PN      N1000R$  000000000000700000000000070000000000007000000000000700000000000070000000000005000000000000000002000000000000014000000000000000098000000000000289602013111800000010000000000000BRBBDCACNPR8605
012013101682BBDCX1      080BBDCE FM    PN      N1000R$  000000000004700000000000470000000000035000000000004100000000000390000000000000000000000000000022000000000000017900000000000000734800000000000307002013121600000010000000000000BRBBDCACNPR8600
012013101682BBDCX3      080BBDCE FM    PN      N1000R$  000000000012000000000001220000000000090000000000010600000000001010000000000000000000000000000056000000000000090800000000000009641000000000000327002013121600000010000000000000BRBBDCACNPR8601
012013101682BBDCX32     080BBDCE FM    PN      N1000R$  000000000007800000000000790000000000061000000000006800000000000740000000000074000000000000000043000000000000058800000000000004007200000000000317002013121600000010000000000000BRBBDCACNPR8600
012013101682BBDCX33     080BBDCE FM    PN      N1000R$  000000000003100000000000310000000000022000000000002300000000000240000000000000000000000000000020000000000000026800000000000000636200000000000296802013121600000010000000000000BRBBDCACNPR8598
012013101682BBDCX34     080BBDCE       PN      N1000R$  000000000014700000000001470000000000147000000000014700000000001470000000000000000000000000000001000000000000002000000000000000294000000000000337002013121600000010000000000000BRBBDCACNPR8600
012013101682BBDCX35     080BBDCE       PN      N1000R$  000000000020600000000002060000000000206000000000020600000000002060000000000000000000000000000001000000000000002000000000000000412000000000000347002013121600000010000000000000BRBBDCACNPR8600
012013101682BBDCX36     080BBDCE       PN      N1000R$  000000000010700000000001080000000000086000000000009800000000000860000000000000000000000000000010000000000000016500000000000001633200000000000323902013121600000010000000000000BRBBDCACNPR8597
012013101612BBFI11B     010FII BB PROGRCI      MB   R$  000000042100000000004210000000000419101000000041994500000004191010000000419500000000042000000007000000000000000011000000000004619405000000000000009999123100000010000000000000BRBBFICTF006199
012013101612BBPO11      010FII BB PRGIICI           R$  000000001120000000000112090000000011116000000001117000000000111700000000011158000000001117000210000000000000018652000000000208353206000000000000009999123100000010000000000000BRBBPOCTF003111
012013101612BBRC11      010FII BB CORP CI           R$  000000000900000000000090000000000009000000000000900000000000090000000000008870000000000895000001000000000000000002000000000000018000000000000000009999123100000010000000000000BRBBRCCTF004125
012013101602BBRK3       010BR BROKERS  ON      NM   R$  000000000064000000000006470000000000623000000000063400000000006330000000000625000000000063402519000000000000996900000000000632872300000000000000009999123100000010000000000000BRBBRKACNOR4108
012013101696BBRK3F      020BR BROKERS  ON      NM   R$  000000000063100000000006450000000000631000000000063600000000006400000000000567000000000064600014000000000000000393000000000000250244000000000000009999123100000010000000000000BRBBRKACNOR4108
012013101602BBSE3       010BBSEGURIDADEON      NM   R$  000000000237500000000023880000000002352000000000236600000000023550000000002355000000000236014167000000000004807000000000011377626800000000000000009999123100000010000000000000BRBBSEACNOR5101
012013101696BBSE3F      020BBSEGURIDADEON      NM   R$  000000000235100000000023840000000002335000000000236500000000023640000000002353000000000236400413000000000000014222000000000033641649000000000000009999123100000010000000000000BRBBSEACNOR5101
012013101662BBSE3T      030BBSEGURIDADEON      NM030R$  000000000239100000000023920000000002390000000000239000000000023910000000000000000000000000000004000000000000050000000000000119546302000000000000009999123100000010000000000000BRBBSEACNOR5101
012013101678BBSEK23     070BBSE        ON      NM000R$  000000000004500000000000450000000000045000000000004500000000000450000000000060000000000012000002000000000000002000000000000000090000000000000230002013111800000010000000000000BRBBSEACNOR5101
012013101678BBSEL25     070BBSE        ON      NM000R$  000000000003300000000000330000000000033000000000003300000000000330000000000000000000000000000002000000000000332000000000000010956000000000000250002013121600000010000000000000BRBBSEACNOR5101
012013101682BBSEW23     080BBSEE       ON      NM000R$  000000000002900000000000310000000000029000000000003000000000000310000000000000000000000000000002000000000000004000000000000000120000000000000230002013111800000010000000000000BRBBSEACNOR5101
012013101682BBSEX21     080BBSEE       ON      NM000R$  000000000001200000000000120000000000012000000000001200000000000120000000000000000000000000000001000000000000332000000000000003984000000000000210002013121600000010000000000000BRBBSEACNOR5101
012013101682BBSEX23     080BBSEE       ON      NM000R$  000000000005600000000000560000000000055000000000005500000000000550000000000000000000000000000002000000000000332000000000000018558800000000000230002013121600000010000000000000BRBBSEACNOR5101
012013101602BBTG11      010BTG PACTUAL UNT          R$  000000000286800000000028770000000002830000000000284200000000028770000000002871000000000287700521000000000000510600000000001451405000000000000000009999123100000010000000000000BRBBTGUNT007105
012013101696BBTG11F     020BTG PACTUAL UNT          R$  000000000280500000000028770000000002805000000000285900000000028050000000002805000000000287800012000000000000000343000000000000980910000000000000009999123100000010000000000000BRBBTGUNT007105
012013101612BBVJ11      010FII C JARDIMCI           R$  000000000770000000000078400000000007700000000000775700000000077000000000007682000000000772000021000000000000000840000000000006516190000000000000009999123100000010000000000000BRBBVJCTF001134
012013101612BCFF11B     010FII BC FFII CI  ER  MB   R$  000000000894000000000089990000000008920000000000895000000000089210000000008920000000000897000075000000000000005334000000000047741051000000000000009999123100000010000000000000BRBCFFCTF000143
012013101602BDLL4       010BARDELLA    PN           R$  000000000520000000000052000000000005070000000000519700000000050700000000005000000000000530000015000000000000005800000000000030147000000000000000009999123100000010000000000000BRBDLLACNPR8149
012013101602BEEF3       010MINERVA     ON      NM   R$  000000000099000000000009950000000000976000000000098700000000009950000000000995000000000099602412000000000000573800000000000566642900000000000000009999123100000010000000000000BRBEEFACNOR6104
012013101696BEEF3F      020MINERVA     ON      NM   R$  000000000098400000000009860000000000982000000000098400000000009860000000000975000000000102500009000000000000000360000000000000354302000000000000009999123100000010000000000000BRBEEFACNOR6104
012013101662BEEF3T      030MINERVA     ON      NM033R$  000000000099400000000009950000000000994000000000099400000000009950000000000000000000000000000002000000000000005000000000000004972506000000000000009999123100000010000000000000BRBEEFACNOR6104
012013101662BEEF3T      030MINERVA     ON      NM090R$  000000000100700000000010080000000001007000000000100700000000010080000000000000000000000000000002000000000000000100000000000000100795000000000000009999123100000010000000000000BRBEEFACNOR6104
012013101602BEES3       010BANESTES    ON           R$  000000000004900000000000510000000000049000000000004900000000000500000000000049000000000005000018000000000000150700000000000007432800000000000000009999123100000010000000000000BRBEESACNOR9245
012013101602BEES4       010BANESTES    PN           R$  000000000004600000000000460000000000046000000000004600000000000460000000000045000000000004700003000000000000003300000000000000151800000000000000009999123100000010000000000000BRBEESACNPR6170
012013101602BEMA3       010BEMATECH    ON      NM   R$  000000000077000000000007800000000000770000000000077500000000007750000000000774000000000077500384000000000000270900000000000210109100000000000000009999123100000010000000000000BRBEMAACNOR0114
012013101696BEMA3F      020BEMATECH    ON      NM   R$  000000000079900000000007990000000000770000000000077400000000007700000000000770000000000084900002000000000000000060000000000000046490000000000000009999123100000010000000000000BRBEMAACNOR0114
012013101662BEMA3T      030BEMATECH    ON      NM033R$  000000000078100000000007820000000000781000000000078100000000007820000000000000000000000000000002000000000000008100000000000006330859000000000000009999123100000010000000000000BRBEMAACNOR0114
012013101662BEMA3T      030BEMATECH    ON      NM090R$  000000000079000000000007930000000000790000000000079100000000007930000000000000000000000000000006000000000000004500000000000003560576000000000000009999123100000010000000000000BRBEMAACNOR0114
012013101602BHGR3       010BHG         ON      NM   R$  000000000147900000000014790000000001465000000000146600000000014650000000001465000000000147700082000000000000103300000000000151468700000000000000009999123100000010000000000000BRBHGRACNOR9101
012013101602BICB3       010BICBANCO    ON      N1   R$  000000000069900000000006990000000000699000000000069900000000006990000000000500000000000075900003000000000000000500000000000000349500000000000000009999123100000010000000000000BRBICBACNOR0131
012013101696BICB3F      020BICBANCO    ON      N1   R$  000000000061500000000006150000000000615000000000061500000000006150000000000556000000000061500001000000000000000002000000000000001230000000000000009999123100000010000000000000BRBICBACNOR0131
012013101602BICB4       010BICBANCO    PN      N1   R$  000000000060700000000006070000000000581000000000059700000000005990000000000598000000000059900151000000000000158200000000000094576800000000000000009999123100000010000000000000BRBICBACNPR7131
012013101696BICB4F      020BICBANCO    PN      N1   R$  000000000059100000000006070000000000591000000000059600000000006070000000000598000000000060000011000000000000000195000000000000116367000000000000009999123100000010000000000000BRBICBACNPR7131
012013101602BIOM3       010BIOMM       ON           R$  000000000091000000000009500000000000910000000000092800000000009500000000000911000000000095500006000000000000011000000000000010215000000000000000009999123100000010000000000000BRBIOMACNOR2101
012013101696BIOM3F      020BIOMM       ON           R$  000000000091000000000009100000000000910000000000091000000000009100000000000850000000000092500002000000000000000025000000000000022750000000000000009999123100000010000000000000BRBIOMACNOR2101
012013101602BISA3       010BROOKFIELD  ON      NM   R$  000000000016200000000001640000000000159000000000016200000000001620000000000161000000000016206922000000000009596700000000001556150500000000000000009999123100000010000000000000BRBISAACNOR8109
012013101696BISA3F      020BROOKFIELD  ON      NM   R$  000000000015800000000001640000000000153000000000016000000000001590000000000159000000000016000022000000000000000645000000000000103223000000000000009999123100000010000000000000BRBISAACNOR8109
012013101662BISA3T      030BROOKFIELD  ON      NM033R$  000000000016300000000001660000000000161000000000016400000000001660000000000000000000000000000006000000000000027000000000000004430949000000000000009999123100000010000000000000BRBISAACNOR8109
012013101662BISA3T      030BROOKFIELD  ON      NM061R$  000000000016600000000001670000000000166000000000016600000000001670000000000000000000000000000002000000000000100000000000000016650920000000000000009999123100000010000000000000BRBISAACNOR8109
012013101662BISA3T      030BROOKFIELD  ON      NM090R$  000000000016700000000001680000000000167000000000016700000000001680000000000000000000000000000002000000000000001000000000000000167428000000000000009999123100000010000000000000BRBISAACNOR8109
012013101612BJRC11      010FII JS RECIMCI           R$  000000008500000000000850000000000081001000000008403500000000845000000000081200000000008450000010000000000000000080000000000006722800000000000000009999123100000010000000000000BRBJRCCTF007111
012013101602BMEB4       010MERC BRASIL PN           R$  000000000107800000000010780000000001078000000000107800000000010780000000001078000000000110000003000000000000002000000000000002156000000000000000009999123100000010000000000000BRBMEBACNPR5191
012013101602BMIN4       010MERC INVEST PN           R$  000000000002900000000000310000000000029000000000002900000000000310000000000028000000000002900008000000000000040000000000000001186000000000000000009999123100000010000000000000BRBMINACNPR1160
012013101696BMIN4F      020MERC INVEST PN           R$  000000000003000000000000300000000000030000000000003000000000000300000000000025000000000003000001000000000000000200000000000000006000000000000000009999123100000010000000000000BRBMINACNPR1160
012013101602BMKS3       010BIC MONARK  ON           R$  000000003400000000000340000000000033000000000003304700000000330000000000033000000000003300100003000000000000000021000000000000694000000000000000009999123100000010000000000000BRBMKSACNOR9155
012013101612BMLC11B     010FII BMBRC LCCI  ER  MB   R$  000000001160000000000116000000000011550000000001155400000000115500000000011411000000001160000005000000000000000824000000000009520900000000000000009999123100000010000000000000BRBMLCCTF004120
012013101602BOBR4       010BOMBRIL     PN           R$  000000000066300000000006650000000000650000000000066100000000006500000000000650000000000066400009000000000000030200000000000019980000000000000000009999123100000010000000000000BRBOBRACNPR3127
012013101662BOBR4T      030BOMBRIL     PN        120R$  000000000068200000000006830000000000682000000000068200000000006830000000000000000000000000000002000000000000026600000000000018143711000000000000009999123100000010000000000000BRBOBRACNPR3127
012013101614BOVA11      010ISHARES BOVACI           R$  000000000539000000000055370000000005375000000000548000000000054500000000005449000000000545006028000000000004427600000000024266795900000000000000009999123100000010000000000000BRBOVACTF003101
012013101696BOVA11F     020ISHARES BOVACI           R$  000000000548200000000055580000000005340000000000546200000000054650000000005435000000000552500032000000000000000104000000000000568115000000000000009999123100000010000000000000BRBOVACTF003101
012013101612BPFF11      010FII ABSOLUTOCI           R$  000000000830000000000083200000000008225000000000826900000000082670000000008267000000000835000027000000000000002114000000000017482733000000000000009999123100000010000000000000BRBPFFCTF002106
012013101602BPHA3       010BR PHARMA   ON      NM   R$  000000000086200000000008750000000000849000000000086500000000008650000000000861000000000086500609000000000000218300000000000188917800000000000000009999123100000010000000000000BRBPHAACNOR6102
012013101696BPHA3F      020BR PHARMA   ON      NM   R$  000000000086100000000008690000000000860000000000086100000000008640000000000805000000000087400005000000000000000177000000000000152558000000000000009999123100000010000000000000BRBPHAACNOR6102
012013101602BPNM4       010PANAMERICANOPN      N1   R$  000000000053900000000005490000000000535000000000053600000000005410000000000537000000000054100239000000000001265200000000000678624200000000000000009999123100000010000000000000BRBPNMACNPR6111
012013101696BPNM4F      020PANAMERICANOPN      N1   R$  000000000054500000000005450000000000537000000000053900000000005390000000000538000000000053900008000000000000000181000000000000097568000000000000009999123100000010000000000000BRBPNMACNPR6111
012013101662BPNM4T      030PANAMERICANOPN      N1033R$  000000000054200000000005430000000000542000000000054200000000005430000000000000000000000000000002000000000000020000000000000010840700000000000000009999123100000010000000000000BRBPNMACNPR6111
012013101662BPNM4T      030PANAMERICANOPN      N1120R$  000000000055000000000005510000000000550000000000055000000000005510000000000000000000000000000002000000000000950000000000000523294200000000000000009999123100000010000000000000BRBPNMACNPR6111
012013101602BRAP3       010BRADESPAR   ON      N1   R$  000000000207500000000020950000000002065000000000208200000000020950000000002065000000000209500023000000000000014900000000000031028800000000000000009999123100000010000000000000BRBRAPACNOR5124
012013101696BRAP3F      020BRADESPAR   ON      N1   R$  000000000205000000000020500000000002050000000000205000000000020500000000002001000000000210000002000000000000000037000000000000075850000000000000009999123100000010000000000000BRBRAPACNOR5124
012013101602BRAP4       010BRADESPAR   PN      N1   R$  000000000252200000000025650000000002500000000000252800000000025300000000002525000000000253006990000000000001555900000000003934399200000000000000009999123100000010000000000000BRBRAPACNPR2124
012013101696BRAP4F      020BRADESPAR   PN      N1   R$  000000000252500000000025560000000002402000000000252100000000025480000000002450000000000254800030000000000000000690000000000001740147000000000000009999123100000010000000000000BRBRAPACNPR2124
012013101662BRAP4T      030BRADESPAR   PN      N1061R$  000000000256500000000025660000000002565000000000256500000000025660000000000000000000000000000002000000000000003000000000000007696231000000000000009999123100000010000000000000BRBRAPACNPR2124
012013101678BRAPJ22     070BRAP        PN      N1000R$  000000000035000000000003500000000000350000000000035000000000003500000000000000000000000000000001000000000000010000000000000003500000000000000220002013102100000010000000000000BRBRAPACNPR2124
012013101678BRAPK22     070BRAP        PN      N1000R$  000000000035600000000003560000000000356000000000035600000000003560000000000000000000000000000001000000000000010000000000000003560000000000000220002013111800000010000000000000BRBRAPACNPR2124
012013101614BRAX11      010ISHARES BRAXCI           R$  000000000435800000000043580000000004353000000000435500000000043530000000003000000000000440000002000000000000000020000000000000087110000000000000009999123100000010000000000000BRBRAXCTF002100
012013101612BRCR11      010FII BC FUND CI  ER       R$  000000001334000000000133500000000013270000000001330900000000132700000000013270000000001329900247000000000000022783000000000303223061000000000000009999123100000010000000000000BRBRCRCTF000134
012013101602BRFS3       010BRF SA      ON      NM   R$  000000000548500000000055160000000005381000000000544500000000054500000000005445000000000545009722000000000002428600000000013224588700000000000000009999123100000010000000000000BRBRFSACNOR8110
012013101696BRFS3F      020BRF SA      ON      NM   R$  000000000549400000000055010000000005377000000000544800000000054600000000005449000000000546000159000000000000004748000000000025870652000000000000009999123100000010000000000000BRBRFSACNOR8110
012013101662BRFS3S      030BRF SA      ON      NM090R$  000000000553700000000055730000000005537000000000554800000000055730000000000000000000000000000008000000000000004000000000000022193389000000000000009999123100000010000000000000BRBRFSACNOR8110
012013101662BRFS3T      030BRF SA      ON      NM033R$  000000000550400000000055140000000005490000000000550400000000054910000000000000000000000000000008000000000000001100000000000006055132000000000000009999123100000010000000000000BRBRFSACNOR8110
012013101662BRFS3T      030BRF SA      ON      NM060R$  000000000553200000000055330000000005532000000000553200000000055330000000000000000000000000000002000000000000001500000000000008299260000000000000009999123100000010000000000000BRBRFSACNOR8110
012013101662BRFS3T      030BRF SA      ON      NM061R$  000000000554900000000055500000000005517000000000554500000000055180000000000000000000000000000004000000000000001500000000000008318063000000000000009999123100000010000000000000BRBRFSACNOR8110
012013101602BRGE12      010ALFA CONSORCPNF          R$  000000000037500000000003750000000000375000000000037500000000003750000000000375000000000039900002000000000000000600000000000000225000000000000000009999123100000010000000000000BRBRGEACNPF8091
012013101696BRGE12F     020ALFA CONSORCPNF          R$  000000000030200000000003020000000000302000000000030200000000003020000000000000000000000000000001000000000000000071000000000000021442000000000000009999123100000010000000000000BRBRGEACNPF8091
012013101602BRGE3       010ALFA CONSORCON           R$  000000000037500000000003750000000000375000000000037500000000003750000000000375000000000049900003000000000000000600000000000000225000000000000000009999123100000010000000000000BRBRGEACNOR6197
012013101696BRGE3F      020ALFA CONSORCON           R$  000000000037500000000003750000000000375000000000037500000000003750000000000375000000000000000002000000000000000078000000000000029250000000000000009999123100000010000000000000BRBRGEACNOR6197
012013101602BRIN3       010BR INSURANCEON      NM   R$  000000000202800000000020360000000002006000000000201800000000020340000000002034000000000203500597000000000000090700000000000183077000000000000000009999123100000010000000000000BRBRINACNOR3106
012013101696BRIN3F      020BR INSURANCEON      NM   R$  000000000201000000000020170000000002010000000000201300000000020170000000001911000000000202900005000000000000000170000000000000342260000000000000009999123100000010000000000000BRBRINACNOR3106
012013101602BRIV4       010ALFA INVEST PN           R$  000000000057900000000005800000000000557000000000057000000000005800000000000580000000000058900004000000000000001200000000000000684400000000000000009999123100000010000000000000BRBRIVACNPR3197
012013101696BRIV4F      020ALFA INVEST PN           R$  000000000055700000000005570000000000557000000000055700000000005570000000000544000000000070000001000000000000000048000000000000026736000000000000009999123100000010000000000000BRBRIVACNPR3197
012013101602BRKM3       010BRASKEM     ON      N1   R$  000000000130000000000013400000000001298000000000130100000000013000000000001293000000000130000016000000000000046000000000000059859900000000000000009999123100000010000000000000BRBRKMACNOR1110
012013101696BRKM3F      020BRASKEM     ON      N1   R$  000000000132500000000013250000000001325000000000132500000000013250000000001268000000000131000001000000000000000005000000000000006625000000000000009999123100000010000000000000BRBRKMACNOR1110
012013101662BRKM3T      030BRASKEM     ON      N1033R$  000000000135000000000013510000000001350000000000135000000000013510000000000000000000000000000002000000000000001100000000000001485588000000000000009999123100000010000000000000BRBRKMACNOR1110
012013101602BRKM5       010BRASKEM     PNA     N1   R$  000000000189100000000019260000000001866000000000190700000000019200000000001920000000000192210324000000000002389300000000004556920300000000000000009999123100000010000000000000BRBRKMACNPA4110
012013101696BRKM5F      020BRASKEM     PNA     N1   R$  000000000190000000000019470000000001877000000000190200000000019200000000001880000000000190000022000000000000000737000000000001401953000000000000009999123100000010000000000000BRBRKMACNPA4110
012013101662BRKM5T      030BRASKEM     PNA     N1016R$  000000000191400000000019150000000001901000000000191100000000019020000000000000000000000000000006000000000000020000000000000038228472000000000000009999123100000010000000000000BRBRKMACNPA4110
012013101662BRKM5T      030BRASKEM     PNA     N1033R$  000000000189900000000019000000000001899000000000189900000000019000000000000000000000000000000002000000000000002000000000000003799406000000000000009999123100000010000000000000BRBRKMACNPA4110
012013101662BRKM5T      030BRASKEM     PNA     N1061R$  000000000191100000000019130000000001911000000000191200000000019130000000000000000000000000000004000000000000002700000000000005163799000000000000009999123100000010000000000000BRBRKMACNPA4110
012013101678BRKML53     070BRKME       PNA     N1000R$  000000000056700000000005670000000000567000000000056700000000005670000000000000000000000000000001000000000000395000000000000223965000000000000132502013121600000010000000000000BRBRKMACNPA4110
012013101678BRKML61     070BRKME       PNA     N1000R$  000000000001200000000000120000000000012000000000001200000000000120000000000000000000000000000001000000000000395000000000000004740000000000000212502013121600000010000000000000BRBRKMACNPA4110
012013101682BRKMX53     080BRKME       PNA     N1000R$  000000000000100000000000010000000000001000000000000100000000000010000000000000000000000000000001000000000000395000000000000000395000000000000132502013121600000010000000000000BRBRKMACNPA4110
012013101682BRKMX61     080BRKME       PNA     N1000R$  000000000023200000000002320000000000232000000000023200000000002320000000000000000000000000000001000000000000395000000000000091640000000000000212502013121600000010000000000000BRBRKMACNPA4110
012013101602BRML3       010BR MALLS PARON      NM   R$  000000000209500000000021520000000002077000000000211500000000021100000000002109000000000211011936000000000003617900000000007652268900000000000000009999123100000010000000000000BRBRMLACNOR9105
012013101696BRML3F      020BR MALLS PARON      NM   R$  000000000207100000000021500000000002071000000000211200000000021280000000002128000000000214900056000000000000002151000000000004545322000000000000009999123100000010000000000000BRBRMLACNOR9105
012013101662BRML3T      030BR MALLS PARON      NM061R$  000000000217400000000021750000000002174000000000217400000000021750000000000000000000000000000002000000000000000500000000000001087437000000000000009999123100000010000000000000BRBRMLACNOR9105
012013101602BRPR3       010BR PROPERT  ON      NM   R$  000000000186200000000018870000000001819000000000186600000000018800000000001880000000000188212532000000000005207400000000009717789100000000000000009999123100000010000000000000BRBRPRACNOR9112
012013101696BRPR3F      020BR PROPERT  ON      NM   R$  000000000184600000000019530000000001824000000000185900000000018660000000001900000000000190300076000000000000002470000000000004649063000000000000009999123100000010000000000000BRBRPRACNOR9112
012013101662BRPR3T      030BR PROPERT  ON      NM090R$  000000000186500000000018660000000001865000000000186500000000018660000000000000000000000000000002000000000000000200000000000000373014000000000000009999123100000010000000000000BRBRPRACNOR9112
012013101602BRSR6       010BANRISUL    PNB     N1   R$  000000000152300000000015330000000001512000000000152500000000015300000000001523000000000153005864000000000001364600000000002081966800000000000000009999123100000010000000000000BRBRSRACNPB4134
012013101696BRSR6F      020BANRISUL    PNB     N1   R$  000000000156300000000015630000000001511000000000153800000000015600000000001510000000000156100024000000000000000961000000000001478548000000000000009999123100000010000000000000BRBRSRACNPB4134
012013101662BRSR6T      030BANRISUL    PNB     N1120R$  000000000156800000000015690000000001568000000000156800000000015690000000000000000000000000000002000000000000001000000000000001568920000000000000009999123100000010000000000000BRBRSRACNPB4134
012013101602BSEV3       010BIOSEV      ON      NM   R$  000000000086000000000009190000000000845000000000085700000000008900000000000881000000000089000050000000000000066300000000000056858400000000000000009999123100000010000000000000BRBSEVACNOR3100
012013101696BSEV3F      020BIOSEV      ON      NM   R$  000000000090000000000009210000000000870000000000089400000000009210000000000850000000000094800005000000000000000114000000000000101942000000000000009999123100000010000000000000BRBSEVACNOR3100
012013101682BSEVS99     080BSEVE       ON      NM000R$  000000000063000000000006800000000000620000000000065100000000006430000000000643000000000070000005000000000000002600000000000001693209000000000165702014072100000010000000000000BRBSEVACNOR3100
012013101602BTOW3       010B2W DIGITAL ON      NM   R$  000000000169800000000017190000000001634000000000168600000000016640000000001664000000000166503222000000000000757000000000001276189000000000000000009999123100000010000000000000BRBTOWACNOR8105
012013101696BTOW3F      020B2W DIGITAL ON      NM   R$  000000000168400000000017150000000001604000000000168600000000016060000000001602000000000167700054000000000000001792000000000003020344000000000000009999123100000010000000000000BRBTOWACNOR8105
012013101662BTOW3T      030B2W DIGITAL ON      NM033R$  000000000172900000000017300000000001729000000000172900000000017300000000000000000000000000000002000000000000001600000000000002767082000000000000009999123100000010000000000000BRBTOWACNOR8105
012013101602BTTL3       010BATTISTELLA ON           R$  000000000009800000000000980000000000098000000000009800000000000980000000000085000000000009800003000000000000000600000000000000058800000000000000009999123100000010000000000000BRBTTLACNOR0105
012013101602BVMF3       010BMFBOVESPA  ON      NM   R$  000000000126700000000013070000000001263000000000128400000000012880000000001286000000000128821648000000000011673600000000014992002200000000000000009999123100000010000000000000BRBVMFACNOR3126
012013101696BVMF3F      020BMFBOVESPA  ON      NM   R$  000000000125000000000013050000000001250000000000128300000000012840000000001270000000000128700146000000000000005417000000000006951912000000000000009999123100000010000000000000BRBVMFACNOR3126
012013101662BVMF3T      030BMFBOVESPA  ON      NM033R$  000000000130700000000013080000000001307000000000130700000000013080000000000000000000000000000002000000000000050000000000000065386750000000000000009999123100000010000000000000BRBVMFACNOR3126
012013101662BVMF3T      030BMFBOVESPA  ON      NM061R$  000000000128200000000013070000000001282000000000130600000000013070000000000000000000000000000004000000000000010200000000000013322039000000000000009999123100000010000000000000BRBVMFACNOR3126
012013101662BVMF3T      030BMFBOVESPA  ON      NM064R$  000000000129000000000012910000000001290000000000129000000000012910000000000000000000000000000006000000000000550000000000000709675560000000000000009999123100000010000000000000BRBVMFACNOR3126
012013101678BVMFA13     070BVMF        ON      NM000R$  000000000006600000000000660000000000066000000000006600000000000660000000000062000000000000000004000000000000007000000000000000462000000000000130002014012000000010000000000000BRBVMFACNOR3126
012013101678BVMFA14     070BVMF        ON      NM000R$  000000000002700000000000270000000000027000000000002700000000000270000000000000000000000000000001000000000000001800000000000000048600000000000140002014012000000010000000000000BRBVMFACNOR3126
012013101678BVMFA43     070BVMF        ON      NM000R$  000000000003600000000000360000000000036000000000003600000000000360000000000000000000000000000001000000000000000800000000000000028800000000000135002014012000000010000000000000BRBVMFACNOR3126
012013101678BVMFJ11     070BVMF        ON      NM000R$  000000000021300000000002130000000000204000000000021100000000002040000000000196000000000000000004000000000000001300000000000000275300000000000108502013102100000010000000000000BRBVMFACNOR3125
012013101678BVMFJ12     070BVMF        ON      NM000R$  000000000008800000000001210000000000084000000000010600000000001020000000000090000000000011500190000000000000177900000000000018949700000000000118502013102100000010000000000000BRBVMFACNOR3125
012013101678BVMFJ13     070BVMF        ON      NM000R$  000000000001100000000000250000000000008000000000001600000000000130000000000013000000000002000347000000000001155400000000000019429500000000000128502013102100000010000000000000BRBVMFACNOR3125
012013101678BVMFJ14     070BVMF        ON      NM000R$  000000000000100000000000010000000000001000000000000100000000000010000000000000000000000000100004000000000000024600000000000000024600000000000138502013102100000010000000000000BRBVMFACNOR3125
012013101678BVMFJ41     070BVMF        ON      NM000R$  000000000017000000000001700000000000162000000000016600000000001620000000000150000000000000000002000000000000000200000000000000033200000000000113502013102100000010000000000000BRBVMFACNOR3125
012013101678BVMFJ42     070BVMF        ON      NM000R$  000000000004500000000000700000000000045000000000005800000000000530000000000025000000000123500037000000000000081900000000000004752800000000000123502013102100000010000000000000BRBVMFACNOR3125
012013101678BVMFJ43     070BVMF        ON      NM000R$  000000000000200000000000040000000000002000000000000200000000000020000000000001000000000000000006000000000000021600000000000000056500000000000133502013102100000010000000000000BRBVMFACNOR3125
012013101678BVMFK12     070BVMF  FM    ON      NM000R$  000000000010400000000001320000000000101000000000011800000000001150000000000111000000000012400044000000000000089700000000000010674100000000000118502013111800000010000000000000BRBVMFACNOR3125
012013101678BVMFK13     070BVMF  FM    ON      NM000R$  000000000003500000000000540000000000034000000000004400000000000430000000000041000000000004800213000000000000381900000000000017169700000000000128502013111800000010000000000000BRBVMFACNOR3125
012013101678BVMFK14     070BVMF  FM    ON      NM000R$  000000000000700000000000110000000000005000000000000700000000000090000000000007000000000001000179000000000000211900000000000001668600000000000138502013111800000010000000000000BRBVMFACNOR3125
012013101678BVMFK15     070BVMF        ON      NM000R$  000000000000100000000000010000000000001000000000000100000000000010000000000001000000000000000002000000000000010000000000000000010000000000000148502013111800000010000000000000BRBVMFACNOR3125
012013101678BVMFK16     070BVMF        ON      NM000R$  000000000000100000000000010000000000001000000000000100000000000010000000000000000000000000000002000000000000007900000000000000007900000000000160002013111800000010000000000000BRBVMFACNOR3126
012013101678BVMFK42     070BVMF  FM    ON      NM000R$  000000000006200000000000790000000000062000000000007000000000000660000000000000000000000008000027000000000000071800000000000005035700000000000125002013111800000010000000000000BRBVMFACNOR3126
012013101678BVMFK43     070BVMF  FM    ON      NM000R$  000000000001200000000000230000000000012000000000001600000000000190000000000001000000000002000034000000000000075600000000000001214400000000000135002013111800000010000000000000BRBVMFACNOR3126
012013101678BVMFL13     070BVMF  FM    ON      NM000R$  000000000005300000000000690000000000053000000000005900000000000660000000000055000000000009000035000000000000089700000000000005355200000000000128502013121600000010000000000000BRBVMFACNOR3125
012013101678BVMFL14     070BVMF  FM    ON      NM000R$  000000000001800000000000280000000000017000000000002100000000000260000000000004000000000003000029000000000000057700000000000001226200000000000137402013121600000010000000000000BRBVMFACNOR3124
012013101678BVMFL15     070BVMF        ON      NM000R$  000000000000800000000000080000000000008000000000000800000000000080000000000005000000000000000001000000000000000500000000000000004000000000000148502013121600000010000000000000BRBVMFACNOR3125
012013101678BVMFL42     070BVMF  FM    ON      NM000R$  000000000007400000000000980000000000073000000000008500000000000840000000000000000000000000000022000000000000061100000000000005208600000000000125002013121600000010000000000000BRBVMFACNOR3126
012013101678BVMFL51     070BVMFE       ON      NM000R$  000000000000700000000000070000000000007000000000000700000000000070000000000000000000000000000002000000000000330000000000000002310000000000000142502013121600000010000000000000BRBVMFACNOR3126
012013101678BVMFL64     070BVMF  FM    ON      NM000R$  000000000001500000000000230000000000015000000000001700000000000220000000000000000000000000000050000000000000104900000000000001797500000000000140002013121600000010000000000000BRBVMFACNOR3126
012013101682BVMFM12     080BVMFE       ON      NM000R$  000000000003000000000000300000000000030000000000003000000000000300000000000000000000000003000003000000000000008600000000000000258000000000000120002014012000000010000000000000BRBVMFACNOR3126
012013101682BVMFV11     080BVMFE       ON      NM000R$  000000000000200000000000020000000000002000000000000200000000000020000000000000000000000000200001000000000000001000000000000000002000000000000108502013102100000010000000000000BRBVMFACNOR3125
012013101682BVMFV12     080BVMFE       ON      NM000R$  000000000000100000000000020000000000001000000000000100000000000010000000000000000000000000200013000000000000046000000000000000060000000000000118502013102100000010000000000000BRBVMFACNOR3125
012013101682BVMFV13     080BVMFE       ON      NM000R$  000000000002600000000000260000000000010000000000001400000000000120000000000012000000000003700053000000000000084800000000000001230600000000000128502013102100000010000000000000BRBVMFACNOR3125
012013101682BVMFV42     080BVMFE       ON      NM000R$  000000000000900000000000090000000000003000000000000600000000000030000000000001000000000000400002000000000000000200000000000000001200000000000123502013102100000010000000000000BRBVMFACNOR3125
012013101682BVMFV43     080BVMFE       ON      NM000R$  000000000004000000000000400000000000036000000000003900000000000390000000000000000000000010000008000000000000012000000000000000472500000000000133502013102100000010000000000000BRBVMFACNOR3125
012013101682BVMFV51     080BVMFE       ON      NM000R$  000000000000100000000000010000000000001000000000000100000000000010000000000000000000000000000001000000000000000100000000000000000100000000000116002013102100000010000000000000BRBVMFACNOR3125
012013101682BVMFW12     080BVMFE FM    ON      NM000R$  000000000001400000000000140000000000010000000000001000000000000110000000000000000000000000000023000000000000080600000000000000822000000000000118502013111800000010000000000000BRBVMFACNOR3125
012013101682BVMFW13     080BVMFE FM    ON      NM000R$  000000000003800000000000380000000000030000000000003300000000000380000000000029000000000004000025000000000000066900000000000002218700000000000128502013111800000010000000000000BRBVMFACNOR3125
012013101682BVMFW41     080BVMFE FM    ON      NM000R$  000000000001000000000000100000000000006000000000000700000000000060000000000000000000000000000033000000000000059200000000000000463700000000000115002013111800000010000000000000BRBVMFACNOR3126
012013101682BVMFW42     080BVMFE FM    ON      NM000R$  000000000003100000000000310000000000020000000000002500000000000250000000000000000000000000000027000000000000058500000000000001489900000000000125002013111800000010000000000000BRBVMFACNOR3126
012013101682BVMFX13     080BVMFE FM    ON      NM000R$  000000000005600000000000560000000000056000000000005600000000000560000000000000000000000000000004000000000000011100000000000000621600000000000128502013121600000010000000000000BRBVMFACNOR3125
012013101682BVMFX42     080BVMFE FM    ON      NM000R$  000000000003900000000000390000000000039000000000003900000000000390000000000000000000000000000001000000000000001800000000000000070200000000000125002013121600000010000000000000BRBVMFACNOR3126
012013101682BVMFX62     080BVMFE FM    ON      NM000R$  000000000002600000000000260000000000022000000000002500000000000220000000000000000000000003000025000000000000043800000000000001122500000000000120002013121600000010000000000000BRBVMFACNOR3126
012013101602CARD3       010CSU CARDSYSTON      NM   R$  000000000031100000000003110000000000303000000000030600000000003110000000000305000000000031100023000000000000019600000000000006016800000000000000009999123100000010000000000000BRCARDACNOR9105
012013101696CARD3F      020CSU CARDSYSTON      NM   R$  000000000030200000000003020000000000302000000000030200000000003020000000000300000000000030200001000000000000000002000000000000000604000000000000009999123100000010000000000000BRCARDACNOR9105
012013101602CBEE3       010AMPLA ENERG ON *         R$  000000000012900000000001290000000000129000000000012900000000001290000000000125000000000013000001000000000001000000000000000000129000000000000000009999123100010000000000000000BRCBEEACNOR3149
012013101662CBEE3T      030AMPLA ENERG ON *      061R$  000000000013000000000001310000000000130000000000013000000000001310000000000000000000000000000002000000000001000000000000000000130831000000000000009999123100010000000000000000BRCBEEACNOR3149
012013101602CBMA4       010COBRASMA    PN           R$  000000000000400000000000050000000000004000000000000400000000000050000000000004000000000000500007000000000000160000000000000000650000000000000000009999123100000010000000000000BRCBMAACNPR1124
012013101696CBMA4F      020COBRASMA    PN           R$  000000000000400000000000040000000000004000000000000400000000000040000000000004000000000000500001000000000000000001000000000000000004000000000000009999123100000010000000000000BRCBMAACNPR1124
012013101608CCHI3       010CHIARELLI   ON           R$  000000000001800000000000190000000000017000000000001700000000000170000000000016000000000001700074000000000001590000000000000027610000000000000000009999123100000010000000000000BRCCHIACNOR5123
012013101696CCHI3F      020CHIARELLI   ON           R$  000000000001800000000000190000000000017000000000001700000000000170000000000017000000000001800006000000000000007121000000000000124188000000000000009999123100000010000000000000BRCCHIACNOR5123
012013101662CCHI3T      030CHIARELLI   ON        061R$  000000000001900000000000200000000000019000000000001900000000000200000000000000000000000000000002000000000000030000000000000000578151000000000000009999123100000010000000000000BRCCHIACNOR5123
012013101608CCHI4       010CHIARELLI   PN           R$  000000000001200000000000120000000000012000000000001200000000000120000000000011000000000001300013000000000000270000000000000003240000000000000000009999123100000010000000000000BRCCHIACNPR2122
012013101602CCPR3       010CYRE COM-CCPON      NM   R$  000000000200300000000020500000000002003000000000204700000000020490000000002001000000000204900011000000000000004800000000000009828500000000000000009999123100000010000000000000BRCCPRACNOR9107
012013101602CCRO3       010CCR SA      ON      NM   R$  000000000177900000000017820000000001756000000000176800000000017570000000001757000000000175916136000000000005657900000000010003419500000000000000009999123100000010000000000000BRCCROACNOR2123
012013101696CCRO3F      020CCR SA      ON      NM   R$  000000000176300000000017840000000001755000000000176700000000017550000000001755000000000178400094000000000000002910000000000005142518000000000000009999123100000010000000000000BRCCROACNOR2123
012013101662CCRO3T      030CCR SA      ON      NM033R$  000000000178200000000017830000000001781000000000178100000000017820000000000000000000000000000004000000000000001000000000000001781509000000000000009999123100000010000000000000BRCCROACNOR2123
012013101662CCRO3T      030CCR SA      ON      NM061R$  000000000180300000000018040000000001803000000000180300000000018040000000000000000000000000000002000000000000000500000000000000901700000000000000009999123100000010000000000000BRCCROACNOR2123
012013101678CCROJ18     070CCRO        ON      NM000R$  000000000006500000000000650000000000065000000000006500000000000650000000000000000000000000000001000000000000005000000000000000325000000000000173202013102100000010000000000000BRCCROACNOR2122
012013101678CCROK47     070CCRO        ON      NM000R$  000000000006500000000000650000000000065000000000006500000000000650000000000000000000000000000001000000000000005000000000000000325000000000000175002013111800000010000000000000BRCCROACNOR2123
012013101602CCXC3       010CCX CARVAO  ON      NM   R$  000000000013000000000001380000000000125000000000013200000000001340000000000133000000000013400857000000000002910600000000000384680100000000000000009999123100000010000000000000BRCCXCACNOR5100
012013101662CCXC3T      030CCX CARVAO  ON      NM021R$  000000000013500000000001360000000000135000000000013500000000001360000000000000000000000000000002000000000000250000000000000033939000000000000000009999123100000010000000000000BRCCXCACNOR5100
012013101696CEEB3F      020COELBA      ON           R$  000000000340000000000034000000000003400000000000340000000000034000000000003013000000000441500002000000000000000036000000000000122400000000000000009999123100000010000000000000BRCEEBACNOR3163
012013101608CELP3       010CELPA       ON           R$  000000000008200000000000830000000000082000000000008200000000000830000000000080000000000008300006000000000000008300000000000000684600000000000000009999123100000010000000000000BRCELPACNOR8112
012013101612CEOC11B     010FII CEO CCP CI  ER  MB   R$  000000000870000000000087490000000008600000000000863000000000087490000000008601000000000874900016000000000000002615000000000022568879000000000000009999123100000010000000000000BRCEOCCTF003111
012013101602CEPE5       010CELPE       PNA          R$  000000000215000000000021500000000002150000000000215000000000021500000000001700000000000215000002000000000000000200000000000000430000000000000000009999123100000010000000000000BRCEPEACNPA6151
012013101602CESP3       010CESP        ON      N1   R$  000000000198000000000019800000000001930000000000194100000000019300000000001901000000000193000021000000000000006800000000000013199800000000000000009999123100000010000000000000BRCESPACNOR3160
012013101662CESP3T      030CESP        ON      N1033R$  000000000196300000000019640000000001963000000000196300000000019640000000000000000000000000000002000000000000003000000000000005889265000000000000009999123100000010000000000000BRCESPACNOR3160
012013101602CESP6       010CESP        PNB     N1   R$  000000000228900000000022900000000002248000000000226900000000022600000000002260000000000226704948000000000000759200000000001723336900000000000000009999123100000010000000000000BRCESPACNPB4119
012013101696CESP6F      020CESP        PNB     N1   R$  000000000228500000000023980000000002241000000000228400000000023080000000002241000000000230800022000000000000000551000000000001258663000000000000009999123100000010000000000000BRCESPACNPB4119
012013101662CESP6T      030CESP        PNB     N1033R$  000000000228600000000022870000000002286000000000228600000000022870000000000000000000000000000002000000000000010000000000000022860175000000000000009999123100000010000000000000BRCESPACNPB4119
012013101602CGAS5       010COMGAS      PNA          R$  000000000579000000000058250000000005785000000000581200000000058100000000005805000000000583800046000000000000040900000000000237729600000000000000009999123100000010000000000000BRCGASACNPA3129
012013101696CGAS5F      020COMGAS      PNA          R$  000000000580500000000058490000000005801000000000580400000000058490000000005801000000000584900004000000000000000097000000000000563033000000000000009999123100000010000000000000BRCGASACNPA3129
012013101602CGRA3       010GRAZZIOTIN  ON           R$  000000000163500000000016450000000001625000000000163600000000016400000000001626000000000164000007000000000000000700000000000001145500000000000000009999123100000010000000000000BRCGRAACNOR2061
012013101662CGRA3T      030GRAZZIOTIN  ON        362R$  000000000181100000000018120000000001811000000000181100000000018120000000000000000000000000000002000000000000000200000000000000362316000000000000009999123100000010000000000000BRCGRAACNOR2061
012013101602CGRA4       010GRAZZIOTIN  PN           R$  000000000177300000000017730000000001750000000000175600000000017650000000001760000000000176500006000000000000001000000000000001756900000000000000009999123100000010000000000000BRCGRAACNPR9061
012013101602CIEL3       010CIELO       ON      NM   R$  000000000659400000000067470000000006567000000000661500000000066150000000006615000000000662707803000000000003461700000000022902430400000000000000009999123100000010000000000000BRCIELACNOR3112
012013101696CIEL3F      020CIELO       ON      NM   R$  000000000654000000000067440000000006540000000000661700000000066000000000006590000000000660000189000000000000005872000000000038859558000000000000009999123100000010000000000000BRCIELACNOR3112
012013101662CIEL3T      030CIELO       ON      NM061R$  000000000674400000000067450000000006744000000000674400000000067450000000000000000000000000000002000000000000001500000000000010116645000000000000009999123100000010000000000000BRCIELACNOR3112
012013101662CIEL3T      030CIELO       ON      NM090R$  000000000672100000000067830000000006721000000000675700000000067830000000000000000000000000000006000000000000250000000000001689374033000000000000009999123100000010000000000000BRCIELACNOR3112
012013101638CIELJ61E    012CIEL        ON      NM000R$  000000000610000000000061000000000006100000000000610000000000061000000000000000000000000000000001000000000000002500000000000015250000000000000610002013102100000010000000000000BRCIELACNOR3112
012013101682CIELV52     080CIELE       ON      NM000R$  000000000000100000000000010000000000001000000000000100000000000010000000000000000000000000000001000000000000000100000000000000000100000000000509402013102100000010000000000000BRCIELACNOR3111
012013101602CLSC4       010CELESC      PN      N2   R$  000000000186300000000018650000000001860000000000186100000000018600000000001850000000000186500007000000000000002000000000000003723800000000000000009999123100000010000000000000BRCLSCACNPR3107
012013101696CLSC4F      020CELESC      PN      N2   R$  000000000186000000000018600000000001860000000000186000000000018600000000001801000000000186000001000000000000000025000000000000046500000000000000009999123100000010000000000000BRCLSCACNPR3107
012013101602CMIG3       010CEMIG       ON      N1   R$  000000000195700000000019690000000001945000000000195700000000019450000000001945000000000195900215000000000000041000000000000080266400000000000000009999123100000010000000000000BRCMIGACNOR6208
012013101696CMIG3F      020CEMIG       ON      N1   R$  000000000196000000000019770000000001946000000000195900000000019770000000001950000000000197800037000000000000001054000000000002065426000000000000009999123100000010000000000000BRCMIGACNOR6208
012013101602CMIG4       010CEMIG       PN      N1   R$  000000000198100000000019990000000001962000000000197500000000019700000000001970000000000197910835000000000003003900000000005934922300000000000000009999123100000010000000000000BRCMIGACNPR3208
012013101696CMIG4F      020CEMIG       PN      N1   R$  000000000197200000000019980000000001964000000000197800000000019810000000001971000000000198100125000000000000003292000000000006513490000000000000009999123100000010000000000000BRCMIGACNPR3208
012013101662CMIG4T      030CEMIG       PN      N1033R$  000000000198100000000019820000000001981000000000198100000000019820000000000000000000000000000002000000000000000100000000000000198175000000000000009999123100000010000000000000BRCMIGACNPR3208
012013101662CMIG4T      030CEMIG       PN      N1061R$  000000000200600000000020070000000001998000000000199800000000019990000000000000000000000000000004000000000000004200000000000008393783000000000000009999123100000010000000000000BRCMIGACNPR3208
012013101662CMIG4T      030CEMIG       PN      N1090R$  000000000201200000000020130000000002012000000000201200000000020130000000000000000000000000000002000000000000000563000000000001133087000000000000009999123100000010000000000000BRCMIGACNPR3208
012013101612CNES11B     010FII CENESP  CI      MB   R$  000000001300000000000130000000000012700000000001282700000000127000000000012700000000001280000005000000000000000176000000000002257571000000000000009999123100000010000000000000BRCNESCTF001126
012013101602COCE3       010COELCE      ON           R$  000000000407800000000040790000000004000000000000403700000000040790000000003952000000000407900027000000000000006900000000000027859200000000000000009999123100000010000000000000BRCOCEACNOR0132
012013101696COCE3F      020COELCE      ON           R$  000000000408000000000040800000000004080000000000408000000000040800000000004000000000000408000001000000000000000030000000000000122400000000000000009999123100000010000000000000BRCOCEACNOR0132
012013101602COCE5       010COELCE      PNA          R$  000000000385000000000039110000000003850000000000389400000000038930000000003882000000000389300169000000000000043100000000000167866400000000000000009999123100000010000000000000BRCOCEACNPA3133
012013101696COCE5F      020COELCE      PNA          R$  000000000385200000000039080000000003852000000000389200000000038800000000003879000000000388000023000000000000000317000000000001233855000000000000009999123100000010000000000000BRCOCEACNPA3133
012013101696CORR4F      020COR RIBEIRO PN           R$  000000001989900000000198990000000019899000000001989900000000198990000000014000000000001990000002000000000000000026000000000000517374000000000000009999123100000010000000000000BRCORRACNPR7015
012013101662CORR4T      030COR RIBEIRO PN        090R$  000000002031400000000203150000000020314000000002031400000000203150000000000000000000000000000002000000000000000021000000000000426613000000000000009999123100000010000000000000BRCORRACNPR7015
012013101602CPFE3       010CPFL ENERGIAON      NM   R$  000000000197500000000019900000000001964000000000197900000000019790000000001977000000000197905899000000000000993200000000001965845700000000000000009999123100000010000000000000BRCPFEACNOR0122
012013101696CPFE3F      020CPFL ENERGIAON      NM   R$  000000000197600000000019860000000001965000000000198000000000019810000000001980000000000199000030000000000000000842000000000001667420000000000000009999123100000010000000000000BRCPFEACNOR0122
012013101662CPFE3T      030CPFL ENERGIAON      NM061R$  000000000201500000000020160000000002015000000000201500000000020160000000000000000000000000000002000000000000001000000000000002015215000000000000009999123100000010000000000000BRCPFEACNOR0122
012013101602CPLE3       010COPEL       ON      N1   R$  000000000221000000000022300000000002200000000000220800000000022140000000002203000000000221400239000000000000095800000000000211575400000000000000009999123100000010000000000000BRCPLEACNOR8128
012013101696CPLE3F      020COPEL       ON      N1   R$  000000000221500000000022150000000002209000000000220900000000022090000000002209000000000238500002000000000000000068000000000000150218000000000000009999123100000010000000000000BRCPLEACNOR8128
012013101602CPLE6       010COPEL       PNB     N1   R$  000000000302100000000030740000000003020000000000305300000000030500000000003050000000000305802457000000000000434600000000001327128300000000000000009999123100000010000000000000BRCPLEACNPB9125
012013101696CPLE6F      020COPEL       PNB     N1   R$  000000000304400000000030650000000002970000000000304700000000030650000000003040000000000306500014000000000000000399000000000001215746000000000000009999123100000010000000000000BRCPLEACNPB9125
012013101602CPRE3       010CPFL RENOVAVON      NM   R$  000000000137100000000013710000000001344000000000135100000000013500000000001350000000000137100022000000000000004800000000000006487100000000000000009999123100000010000000000000BRCPREACNOR5100
012013101696CPRE3F      020CPFL RENOVAVON      NM   R$  000000000132300000000013600000000001323000000000132700000000013600000000001360000000000136100003000000000000000134000000000000177911000000000000009999123100000010000000000000BRCPREACNOR5100
012013101602CRDE3       010CR2         ON      NM   R$  000000000038800000000003880000000000384000000000038400000000003840000000000321000000000039900004000000000000003100000000000001191000000000000000009999123100000010000000000000BRCRDEACNOR1108
012013101602CREM3       010CREMER      ON      NM   R$  000000000147700000000014830000000001466000000000147400000000014750000000001434000000000149700033000000000000021400000000000031556000000000000000009999123100000010000000000000BRCREMACNOR2167
012013101696CREM3F      020CREMER      ON      NM   R$  000000000159900000000015990000000001599000000000159900000000015990000000001499000000000159900001000000000000000013000000000000020787000000000000009999123100000010000000000000BRCREMACNOR2167
012013101602CRIV4       010ALFA FINANC PN           R$  000000000044000000000004400000000000440000000000044000000000004400000000000433000000000044000004000000000000010800000000000004752000000000000000009999123100000010000000000000BRCRIVACNPR1190
012013101602CRUZ3       010SOUZA CRUZ  ON           R$  000000000256800000000026100000000002553000000000257500000000025700000000002562000000000257006162000000000001177300000000003032399300000000000000009999123100000010000000000000BRCRUZACNOR0248
012013101696CRUZ3F      020SOUZA CRUZ  ON           R$  000000000255000000000026180000000002550000000000257500000000025500000000002550000000000261500062000000000000002072000000000005336705000000000000009999123100000010000000000000BRCRUZACNOR0248
012013101602CSAB4       010SEG AL BAHIAPN           R$  000000000300500000000030050000000003005000000000300500000000030050000000003000000000000000000001000000000000001000000000000003005000000000000000009999123100000010000000000000BRCSABACNPR8051
012013101662CSAB4T      030SEG AL BAHIAPN        180R$  000000000315400000000031550000000003154000000000315400000000031550000000000000000000000000000002000000000000001000000000000003154649000000000000009999123100000010000000000000BRCSABACNPR8051
012013101602CSAN3       010COSAN       ON      NM   R$  000000000441000000000044550000000004370000000000440900000000044130000000004413000000000442804863000000000001319400000000005817394600000000000000009999123100000010000000000000BRCSANACNOR6108
012013101696CSAN3F      020COSAN       ON      NM   R$  000000000431100000000044550000000004311000000000441400000000044300000000004400000000000442000056000000000000001763000000000007782436000000000000009999123100000010000000000000BRCSANACNOR6108
012013101662CSAN3T      030COSAN       ON      NM061R$  000000000446600000000044670000000004466000000000446600000000044670000000000000000000000000000002000000000000003000000000000013399610000000000000009999123100000010000000000000BRCSANACNOR6108
012013101662CSAN3T      030COSAN       ON      NM090R$  000000000448900000000045420000000004472000000000449000000000045420000000000000000000000000000024000000000000360400000000001618287917000000000000009999123100000010000000000000BRCSANACNOR6108
012013101662CSAN3T      030COSAN       ON      NM180R$  000000000462600000000046270000000004602000000000461800000000046140000000000000000000000000000014000000000000003300000000000015239807000000000000009999123100000010000000000000BRCSANACNOR6108
012013101678CSANJ14     070CSAN        ON      NM000R$  000000000002200000000000220000000000022000000000002200000000000220000000000000000000000000000002000000000000025000000000000000550000000000000445002013102100000010000000000000BRCSANACNOR6108
