00COTAHIST.2013BOVESPA 20130829                                                                                                                                                                                                                      
012013082902AAPL11B     010APPLE       DRN     MB   R$  000000001178000000000117800000000011780000000001178000000000117800000000011580000000001172000001000000000000000500000000000005890000000000000000009999123100000010000000000000BRAAPLBDR004105
012013082910ABCB10      010ABC BRASIL  PN  REC N2   R$  000000000124300000000012430000000001243000000000124300000000012430000000000000000000000120000001000000000000011700000000000014543100000000000000009999123100000010000000000000BRABCBR04PR3119
012013082996ABCB10F     020ABC BRASIL  PN  REC N2   R$  000000000124300000000012430000000001100000000000114400000000011000000000001100000000000120000004000000000000000084000000000000096118000000000000009999123100000010000000000000BRABCBR04PR3119
012013082902ABCB4       010ABC BRASIL  PN      N2   R$  000000000116000000000012250000000001160000000000117400000000012080000000001208000000000121000795000000000000396200000000000465304600000000000000009999123100000010000000000000BRABCBACNPR4120
012013082996ABCB4F      020ABC BRASIL  PN      N2   R$  000000000117500000000012200000000001163000000000119400000000012040000000001184000000000120400015000000000000000348000000000000415547000000000000009999123100000010000000000000BRABCBACNPR4120
012013082902ABRE11      010ABRIL EDUCA UNT     N2   R$  000000000320800000000032460000000003181000000000320100000000031980000000003180000000000319800569000000000000107100000000000342861100000000000000009999123100000010000000000000BRABRECDAM15102
012013082996ABRE11F     020ABRIL EDUCA UNT     N2   R$  000000000325000000000032500000000003151000000000322700000000032260000000003161000000000327900003000000000000000068000000000000219488000000000000009999123100000010000000000000BRABRECDAM15102
012013082902AEDU3       010ANHANGUERA  ON      NM   R$  000000000134200000000013910000000001332000000000137100000000013910000000001379000000000139106606000000000002518400000000003454043200000000000000009999123100000010000000000000BRAEDUACNOR9107
012013082996AEDU3F      020ANHANGUERA  ON      NM   R$  000000000137900000000013820000000001324000000000136100000000013800000000001380000000000139000024000000000000000775000000000001056534000000000000009999123100000010000000000000BRAEDUACNOR9107
012013082912AEFI11      010FII AESAPAR CI           R$  000000001238800000000123880000000012130000000001220500000000121390000000012140000000001220000029000000000000000475000000000005797845000000000000009999123100000010000000000000BRAEFICTF002120
012013082902AELP3       010AES ELPA    ON           R$  000000000076000000000008100000000000748000000000076400000000008100000000000778000000000081700014000000000000002000000000000001529400000000000000009999123100000010000000000000BRAELPACNOR2119
012013082996AFLU5F      020AFLUENTE    PNA ED       R$  000000000059900000000005990000000000599000000000059900000000005990000000000400000000000000000001000000000000000005000000000000002995000000000000009999123100000010000000000000BRAFLUACNPA2117
012013082912AGCX11      010FII AG CAIXACI           R$  000000009930000000000993930000000099300000000009933600000000993000000000099200000000009930000006000000000000000085000000000008443569000000000000009999123100000010000000000000BRAGCXCTF003109
012013082902AGRO3       010BRASILAGRO  ON      NM   R$  000000000094700000000009570000000000928000000000094600000000009520000000000952000000000095600046000000000000011800000000000011170100000000000000009999123100000010000000000000BRAGROACNOR7102
012013082902ALLL3       010ALL AMER LATON      NM   R$  000000000089000000000009200000000000885000000000090900000000009050000000000905000000000090605843000000000007288100000000006625519800000000000000009999123100000010000000000000BRALLLACNOR6118
012013082996ALLL3F      020ALL AMER LATON      NM   R$  000000000089000000000009190000000000878000000000090200000000008970000000000897000000000091900039000000000000001325000000000001195207000000000000009999123100000010000000000000BRALLLACNOR6118
012013082912ALMI11B     010FII TORRE ALCI      MB   R$  000000030810000000003081000000000308000000000030806600000003080000000000308100000000031400000002000000000000000003000000000000924200000000000000009999123100000010000000000000BRALMICTF003204
012013082902ALPA3       010ALPARGATAS  ON      N1   R$  000000000110000000000011000000000001053000000000108500000000010530000000001053000000000110000017000000000000003300000000000003582200000000000000009999123100000010000000000000BRALPAACNOR0203
012013082902ALPA4       010ALPARGATAS  PN      N1   R$  000000000119500000000012450000000001191000000000121100000000012100000000001201000000000121001356000000000000359200000000000435074700000000000000009999123100000010000000000000BRALPAACNPR7203
012013082996ALPA4F      020ALPARGATAS  PN      N1   R$  000000000122200000000012400000000001200000000000120800000000012000000000001200000000000131500010000000000000000192000000000000231979000000000000009999123100000010000000000000BRALPAACNPR7203
012013082902ALSC3       010ALIANSCE    ON      NM   R$  000000000181800000000018790000000001818000000000186000000000018560000000001856000000000186701590000000000000359300000000000668630800000000000000009999123100000010000000000000BRALSCACNOR0104
012013082996ALSC3F      020ALIANSCE    ON      NM   R$  000000000184000000000018750000000001808000000000185800000000018690000000001806000000000187500009000000000000000256000000000000475734000000000000009999123100000010000000000000BRALSCACNOR0104
012013082902ALUP11      010ALUPAR      UNT     N2   R$  000000000168400000000017070000000001662000000000169300000000016950000000001676000000000169500293000000000000167500000000000283638000000000000000009999123100000010000000000000BRALUPCDAM15100
012013082996ALUP11F     020ALUPAR      UNT     N2   R$  000000000161300000000017000000000001613000000000167400000000017000000000001688000000000179900006000000000000000184000000000000308039000000000000009999123100000010000000000000BRALUPCDAM15100
012013082902AMAR3       010LOJAS MARISAON      NM   R$  000000000183400000000018630000000001815000000000183800000000018350000000001834000000000184301327000000000000327300000000000601673400000000000000009999123100000010000000000000BRAMARACNOR4109
012013082996AMAR3F      020LOJAS MARISAON      NM   R$  000000000183500000000018530000000001829000000000184800000000018290000000001820000000000217000007000000000000000102000000000000188501000000000000009999123100000010000000000000BRAMARACNOR4109
012013082902AMBV3       010AMBEV       ON           R$  000000000802700000000083490000000008011000000000827200000000082750000000008275000000000831601440000000000000245000000000002026695900000000000000009999123100000010000000000000BRAMBVACNOR4153
012013082996AMBV3F      020AMBEV       ON           R$  000000000809900000000083370000000008073000000000823100000000083000000000008212000000000839700036000000000000000888000000000007314183000000000000009999123100000010000000000000BRAMBVACNOR4153
012013082902AMBV4       010AMBEV       PN           R$  000000000805500000000083570000000008055000000000828500000000082900000000008290000000000829908289000000000002793700000000023148324800000000000000009999123100000010000000000000BRAMBVACNPR1153
012013082996AMBV4F      020AMBEV       PN           R$  000000000810000000000083590000000008061000000000825700000000083590000000008299000000000835900165000000000000003758000000000031031966000000000000009999123100000010000000000000BRAMBVACNPR1153
012013082962AMBV4T      030AMBEV       PN        060R$  000000000842700000000084280000000008427000000000842700000000084280000000000000000000000000000002000000000000001000000000000008427616000000000000009999123100000010000000000000BRAMBVACNPR1153
012013082962AMBV4T      030AMBEV       PN        090R$  000000000821700000000082180000000008217000000000821700000000082180000000000000000000000000000002000000000000000500000000000004108856000000000000009999123100000010000000000000BRAMBVACNPR1153
012013082962AMBV4T      030AMBEV       PN        112R$  000000000826400000000082650000000008264000000000826400000000082650000000000000000000000000000002000000000000000500000000000004132215000000000000009999123100000010000000000000BRAMBVACNPR1153
012013082978AMBVI82     070AMBV        PN        000R$  000000000006000000000000850000000000060000000000007200000000000850000000000000000000000000000002000000000000000800000000000000058000000000000820002013091600000010000000000000BRAMBVACNPR1153
012013082978AMBVI84     070AMBV        PN        000R$  000000000000100000000001000000000000001000000000004100000000001000000000000001000000000000000007000000000000001400000000000000058100000000000840002013091600000010000000000000BRAMBVACNPR1153
012013082978AMBVL87     070AMBV        PN        000R$  000000000033200000000003320000000000332000000000033200000000003320000000000000000000000000000002000000000000070000000000000023240000000000000870002013121600000010000000000000BRAMBVACNPR1153
012013082902ARMT11B     010ARCELOR     DRN     MB   R$  000000000155200000000015520000000001552000000000155200000000015520000000001525000000000155500001000000000000002300000000000003569600000000000000009999123100000010000000000000BRARMTBDR008111
012013082902ARTR3       010ARTERIS     ON      NM   R$  000000000215900000000022700000000002150000000000220400000000022300000000002225000000000223001909000000000005189200000000011441829200000000000000009999123100000010000000000000BRARTRACNOR3101
012013082996ARTR3F      020ARTERIS     ON      NM   R$  000000000215000000000022410000000002111000000000219800000000022380000000002231000000000233200042000000000000001358000000000002985128000000000000009999123100000010000000000000BRARTRACNOR3101
012013082902ARZZ3       010AREZZO CO   ON      NM   R$  000000000330200000000033590000000003302000000000333300000000033490000000003338000000000336000957000000000000159400000000000531398200000000000000009999123100000010000000000000BRARZZACNOR3109
012013082996ARZZ3F      020AREZZO CO   ON      NM   R$  000000000332100000000033810000000003278000000000332200000000033370000000003278000000000349900013000000000000000319000000000001060014000000000000009999123100000010000000000000BRARZZACNOR3109
012013082962ARZZ3T      030AREZZO CO   ON      NM090R$  000000000336800000000033690000000003368000000000336800000000033690000000000000000000000000000002000000000000000500000000000001684350000000000000009999123100000010000000000000BRARZZACNOR3109
012013082902AUTM3       010AUTOMETAL   ON      NM   R$  000000000183100000000018430000000001750000000000183900000000018400000000001836000000000184000209000000000000316600000000000582530200000000000000009999123100000010000000000000BRAUTMACNOR8109
012013082996AUTM3F      020AUTOMETAL   ON      NM   R$  000000000184600000000018460000000001800000000000182400000000018100000000001710000000000200000009000000000000000273000000000000498219000000000000009999123100000010000000000000BRAUTMACNOR8109
012013082902BAHI3       010BAHEMA      ON           R$  000000000049500000000005050000000000495000000000049800000000005050000000000471000000000051000002000000000000001600000000000000798000000000000000009999123100000010000000000000BRBAHIACNOR1066
012013082962BAHI3T      030BAHEMA      ON        060R$  000000000050200000000005130000000000502000000000050600000000005130000000000000000000000000000004000000000000001600000000000000810608000000000000009999123100000010000000000000BRBAHIACNOR1066
012013082902BAZA3       010AMAZONIA    ON           R$  000000000003200000000000320000000000032000000000003200000000000320000000000032000000000003300007000000000000127000000000000004064000000000000000009999123100000010000000000000BRBAZAACNOR0163
012013082902BBAS3       010BRASIL      ON  ED  NM   R$  000000000222500000000022900000000002215000000000226500000000022590000000002258000000000225914331000000000007525800000000017049111000000000000000009999123100000010000000000000BRBBASACNOR3238
012013082996BBAS3F      020BRASIL      ON  ED  NM   R$  000000000221600000000022890000000002216000000000225900000000022640000000002260000000000226400308000000000000009142000000000020658679000000000000009999123100000010000000000000BRBBASACNOR3238
012013082962BBAS3T      030BRASIL      ON  ED  NM032R$  000000000227500000000022760000000002275000000000227500000000022760000000000000000000000000000002000000000000002000000000000004550530000000000000009999123100000010000000000000BRBBASACNOR3238
012013082962BBAS3T      030BRASIL      ON  ED  NM060R$  000000000227100000000022810000000002271000000000227300000000022810000000000000000000000000000004000000000000006500000000000014779318000000000000009999123100000010000000000000BRBBASACNOR3238
012013082962BBAS3T      030BRASIL      ON  ED  NM085R$  000000000233000000000023310000000002330000000000233000000000023310000000000000000000000000000002000000000000010000000000000023303484000000000000009999123100000010000000000000BRBBASACNOR3238
012013082962BBAS3T      030BRASIL      ON  ED  NM090R$  000000000228500000000022860000000002285000000000228500000000022860000000000000000000000000000002000000000000010000000000000022850240000000000000009999123100000010000000000000BRBBASACNOR3238
012013082962BBAS3T      030BRASIL      ON  ED  NM120R$  000000000233100000000023320000000002331000000000233100000000023320000000000000000000000000000002000000000000007700000000000017951761000000000000009999123100000010000000000000BRBBASACNOR3238
012013082978BBASI20     070BBAS    /EDRON      NM000R$  000000000035000000000003500000000000350000000000035000000000003500000000000320000000000000000001000000000000001000000000000000350000000000000192202013091600000010000000000000BRBBASACNOR3237
012013082978BBASI21     070BBAS  FM/EDRON      NM000R$  000000000022100000000002750000000000221000000000024900000000002550000000000100000000000027200271000000000000271500000000000067819800000000000202202013091600000010000000000000BRBBASACNOR3237
012013082978BBASI22     070BBAS  FM/EDRON      NM000R$  000000000015300000000002050000000000153000000000018500000000001880000000000134000000000018900333000000000000534500000000000098893500000000000209802013091600000010000000000000BRBBASACNOR3236
012013082978BBASI23     070BBAS  FM/EDRON      NM000R$  000000000007600000000001190000000000076000000000010100000000000990000000000092000000000010000216000000000000193600000000000019577100000000000219802013091600000010000000000000BRBBASACNOR3236
012013082978BBASI24     070BBAS  FM/EDRON      NM000R$  000000000003000000000000500000000000030000000000004000000000000400000000000033000000000004600362000000000000616000000000000025155000000000000229802013091600000010000000000000BRBBASACNOR3236
012013082978BBASI25     070BBAS  FM/EDRON      NM000R$  000000000001200000000000180000000000012000000000001400000000000140000000000010000000000001500047000000000000151400000000000002185300000000000238802013091600000010000000000000BRBBASACNOR3235
012013082978BBASI26     070BBAS    /EDRON      NM000R$  000000000000600000000000070000000000006000000000000600000000000060000000000004000000000000600013000000000000128800000000000000882800000000000248802013091600000010000000000000BRBBASACNOR3235
012013082978BBASJ21     070BBAS  FM/EDRON      NM000R$  000000000026800000000003050000000000265000000000028200000000002890000000000000000000000000000036000000000000062700000000000017706500000000000202202013102100000010000000000000BRBBASACNOR3237
012013082978BBASJ22     070BBAS  FM/EDRON      NM000R$  000000000018700000000002230000000000187000000000020700000000002130000000000000000000000000000012000000000000020100000000000004164500000000000212202013102100000010000000000000BRBBASACNOR3237
012013082978BBASJ23     070BBAS  FM/EDRON      NM000R$  000000000013900000000001710000000000139000000000016200000000001650000000000140000000000021000115000000000000025300000000000004123800000000000218802013102100000010000000000000BRBBASACNOR3235
012013082978BBASJ24     070BBAS  FM/EDRON      NM000R$  000000000007800000000001070000000000078000000000010300000000000960000000000080000000000010000147000000000000432700000000000044905100000000000229802013102100000010000000000000BRBBASACNOR3236
012013082978BBASJ25     070BBAS  FM/EDRON      NM000R$  000000000003600000000000490000000000036000000000004700000000000470000000000035000000000004400010000000000000020100000000000000951600000000000242202013102100000010000000000000BRBBASACNOR3237
012013082978BBASJ26     070BBAS    /EDRON      NM000R$  000000000002400000000000310000000000024000000000003000000000000290000000000016000000000003000064000000000000204200000000000006306500000000000248802013102100000010000000000000BRBBASACNOR3235
012013082978BBASJ27     070BBAS    /EDRON      NM000R$  000000000001300000000000130000000000013000000000001300000000000130000000000008000000000003800001000000000000001000000000000000013000000000000258802013102100000010000000000000BRBBASACNOR3235
012013082978BBASJ28     070BBAS    /EDRON      NM000R$  000000000000600000000000060000000000004000000000000400000000000040000000000003000000000000800002000000000000010100000000000000040600000000000272202013102100000010000000000000BRBBASACNOR3237
012013082978BBASK25     070BBAS    /EDRON      NM000R$  000000000007000000000000700000000000070000000000007000000000000700000000000016000000000000000001000000000000000100000000000000007000000000000239802013111800000010000000000000BRBBASACNOR3236
012013082978BBASK26     070BBAS    /EDRON      NM000R$  000000000003800000000000450000000000038000000000003800000000000450000000000016000000000000000002000000000000001700000000000000065300000000000249802013111800000010000000000000BRBBASACNOR3236
012013082982BBASO24     080BBASE   /EDRON      NM000R$  000000000015100000000001510000000000151000000000015100000000001510000000000000000000000000000001000000000000001200000000000000181200000000000232202014031700000010000000000000BRBBASACNOR3237
012013082982BBASU19     080BBASE   /EDRON      NM000R$  000000000000200000000000020000000000002000000000000200000000000020000000000000000000000000000001000000000000001000000000000000002000000000000182202013091600000010000000000000BRBBASACNOR3237
012013082982BBASU20     080BBASE FM/EDRON      NM000R$  000000000000400000000000040000000000003000000000000300000000000030000000000001000000000000600002000000000000001000000000000000003500000000000192202013091600000010000000000000BRBBASACNOR3237
012013082982BBASU21     080BBASE FM/EDRON      NM000R$  000000000000800000000000080000000000006000000000000700000000000070000000000001000000000000000031000000000000093300000000000000731300000000000202202013091600000010000000000000BRBBASACNOR3237
012013082982BBASU22     080BBASE FM/EDRON      NM000R$  000000000001400000000000140000000000010000000000001100000000000140000000000009000000000000000025000000000000042400000000000000493500000000000209802013091600000010000000000000BRBBASACNOR3236
012013082982BBASU23     080BBASE FM/EDRON      NM000R$  000000000003800000000000380000000000022000000000002800000000000280000000000000000000000003200054000000000000082400000000000002336600000000000219802013091600000010000000000000BRBBASACNOR3236
012013082982BBASU24     080BBASE   /EDRON      NM000R$  000000000006700000000000720000000000060000000000006200000000000720000000000056000000000012000019000000000000027200000000000001696900000000000229802013091600000010000000000000BRBBASACNOR3236
012013082982BBASV20     080BBASE FM/EDRON      NM000R$  000000000001800000000000180000000000016000000000001700000000000160000000000000000000000000000039000000000000120000000000000002060000000000000192202013102100000010000000000000BRBBASACNOR3237
012013082982BBASV21     080BBASE FM/EDRON      NM000R$  000000000002500000000000260000000000025000000000002500000000000260000000000000000000000000000002000000000000001300000000000000033700000000000202202013102100000010000000000000BRBBASACNOR3237
012013082982BBASV22     080BBASE FM/EDRON      NM000R$  000000000004000000000000410000000000040000000000004000000000000410000000000043000000000024700002000000000000004900000000000000200000000000000212202013102100000010000000000000BRBBASACNOR3237
012013082982BBASV23     080BBASE FM/EDRON      NM000R$  000000000005400000000000630000000000054000000000006100000000000630000000000000000000000006300016000000000000039100000000000002400600000000000218802013102100000010000000000000BRBBASACNOR3235
012013082982BBASW22     080BBASE   /EDRON      NM000R$  000000000006400000000000640000000000059000000000006200000000000590000000000000000000000000000004000000000000012000000000000000747000000000000212202013111800000010000000000000BRBBASACNOR3237
012013082982BBASW23     080BBASE   /EDRON      NM000R$  000000000009100000000000910000000000091000000000009100000000000910000000000000000000000000000001000000000000003000000000000000273000000000000222202013111800000010000000000000BRBBASACNOR3237
012013082982BBASW53     080BBASE   /EDRON      NM000R$  000000000007100000000000710000000000071000000000007100000000000710000000000000000000000000000001000000000000003000000000000000213000000000000216402013111800000010000000000000BRBBASACNOR3232
012013082982BBASX25     080BBASE   /EDRON      NM000R$  000000000018600000000001860000000000186000000000018600000000001860000000000000000000000000000001000000000000001200000000000000223200000000000238802013121600000010000000000000BRBBASACNOR3235
012013082982BBASX26     080BBASE   /EDRON      NM000R$  000000000023100000000002310000000000231000000000023100000000002310000000000000000000000000000001000000000000001200000000000000277200000000000248802013121600000010000000000000BRBBASACNOR3235
012013082902BBDC3       010BRADESCO    ON      N1   R$  000000000300900000000030920000000003009000000000305500000000030500000000003050000000000307402952000000000000740000000000002261296200000000000000009999123100000010000000000000BRBBDCACNOR1605
012013082996BBDC3F      020BRADESCO    ON      N1   R$  000000000303000000000030890000000003001000000000304300000000030550000000003001000000000309900038000000000000001399000000000004258982000000000000009999123100000010000000000000BRBBDCACNOR1605
012013082962BBDC3T      030BRADESCO    ON      N1032R$  000000000308700000000030880000000003087000000000308700000000030880000000000000000000000000000002000000000000008000000000000024697582000000000000009999123100000010000000000000BRBBDCACNOR1605
012013082902BBDC4       010BRADESCO    PN      N1   R$  000000000268900000000027630000000002680000000000271800000000027150000000002714000000000271517545000000000010680800000000029039304400000000000000009999123100000010000000000000BRBBDCACNPR8605
012013082996BBDC4F      020BRADESCO    PN      N1   R$  000000000267700000000027800000000002677000000000272100000000027220000000002718000000000272200288000000000000008196000000000022307860000000000000009999123100000010000000000000BRBBDCACNPR8605
012013082962BBDC4T      030BRADESCO    PN      N1032R$  000000000271100000000027470000000002711000000000273700000000027380000000000000000000000000000010000000000000009500000000000026004530000000000000009999123100000010000000000000BRBBDCACNPR8605
012013082962BBDC4T      030BRADESCO    PN      N1060R$  000000000272100000000027220000000002721000000000272100000000027220000000000000000000000000000002000000000000001000000000000002721992000000000000009999123100000010000000000000BRBBDCACNPR8605
012013082962BBDC4T      030BRADESCO    PN      N1090R$  000000000279200000000027930000000002774000000000277400000000027750000000000000000000000000000004000000000000100500000000000278811888000000000000009999123100000010000000000000BRBBDCACNPR8605
012013082962BBDC4T      030BRADESCO    PN      N1120R$  000000000276300000000027640000000002760000000000276200000000027610000000000000000000000000000016000000000000065000000000000179594436000000000000009999123100000010000000000000BRBBDCACNPR8605
012013082978BBDCI26     070BBDC        PN      N1000R$  000000000013000000000001860000000000127000000000014800000000001550000000000000000000000034000123000000000000222700000000000033147400000000000259802013091600000010000000000000BRBBDCACNPR8604
012013082978BBDCI27     070BBDC        PN      N1000R$  000000000008100000000001210000000000076000000000009600000000000970000000000084000000000011500079000000000000136400000000000013113300000000000267802013091600000010000000000000BRBBDCACNPR8602
012013082978BBDCI28     070BBDC        PN      N1000R$  000000000003300000000000570000000000032000000000004700000000000420000000000038000000000004300166000000000000457800000000000021674600000000000277802013091600000010000000000000BRBBDCACNPR8602
012013082978BBDCI29     070BBDC        PN      N1000R$  000000000001400000000000200000000000011000000000001500000000000160000000000011000000000001600064000000000000149800000000000002395400000000000287802013091600000010000000000000BRBBDCACNPR8602
012013082978BBDCI30     070BBDC        PN      N1000R$  000000000000400000000000080000000000004000000000000500000000000080000000000006000000000001000052000000000000077900000000000000391600000000000297802013091600000010000000000000BRBBDCACNPR8602
012013082978BBDCI31     070BBDC        PN      N1000R$  000000000006800000000000680000000000068000000000006800000000000680000000000000000000000000000001000000000000002100000000000000142800000000000272902013091600000010000000000000BRBBDCACNPR8590
012013082978BBDCI32     070BBDC        PN      N1000R$  000000000000200000000000020000000000002000000000000200000000000020000000000001000000000000300001000000000000001000000000000000002000000000000317802013091600000010000000000000BRBBDCACNPR8602
012013082978BBDCI81     070BBDC        PN      N1000R$  000000000000400000000000040000000000002000000000000300000000000030000000000000000000000001200003000000000000008200000000000000029700000000000307802013091600000010000000000000BRBBDCACNPR8602
012013082978BBDCJ26     070BBDC        PN      N1000R$  000000000019400000000002400000000000186000000000020800000000002130000000000000000000000000000034000000000000067400000000000014058800000000000259802013102100000010000000000000BRBBDCACNPR8604
012013082978BBDCJ27     070BBDC        PN      N1000R$  000000000013900000000001800000000000139000000000015700000000001630000000000000000000000019900046000000000000087200000000000013755700000000000267802013102100000010000000000000BRBBDCACNPR8602
012013082978BBDCJ29     070BBDC        PN      N1000R$  000000000005300000000000750000000000053000000000007000000000000660000000000064000000000006900227000000000000293200000000000020749400000000000287802013102100000010000000000000BRBBDCACNPR8602
012013082978BBDCJ30     070BBDC        PN      N1000R$  000000000003000000000000440000000000030000000000003700000000000370000000000030000000000006900109000000000000177800000000000006637700000000000297802013102100000010000000000000BRBBDCACNPR8602
012013082978BBDCJ32     070BBDC        PN      N1000R$  000000000001000000000000140000000000010000000000001200000000000140000000000011000000000001400004000000000000026000000000000000329000000000000317802013102100000010000000000000BRBBDCACNPR8602
012013082978BBDCJ58     070BBDC        PN      N1000R$  000000000007900000000001110000000000078000000000009500000000000960000000000000000000000012800053000000000000089000000000000008505900000000000280002013102100000010000000000000BRBBDCACNPR8605
012013082978BBDCK28     070BBDC        PN      N1000R$  000000000014200000000001420000000000142000000000014200000000001420000000000000000000000020000001000000000000001000000000000000142000000000000277802013111800000010000000000000BRBBDCACNPR8602
012013082978BBDCL29     070BBDC        PN      N1000R$  000000000012100000000001210000000000121000000000012100000000001210000000000000000000000000000003000000000000004000000000000000484000000000000287802013121600000010000000000000BRBBDCACNPR8602
012013082982BBDCM59     080BBDCE       PN      N1000R$  000000000027500000000002750000000000275000000000027500000000002750000000000000000000000000000001000000000000001200000000000000330000000000000295002014012000000010000000000000BRBBDCACNPR8605
012013082982BBDCO2      080BBDCE       PN      N1000R$  000000000027900000000002790000000000257000000000026800000000002570000000000000000000000000000002000000000000002400000000000000643200000000000294702014031700000010000000000000BRBBDCACNPR8604
012013082982BBDCU25     080BBDCE       PN      N1000R$  000000000001500000000000150000000000004000000000000800000000000120000000000000000000000000000084000000000000150300000000000001345300000000000249802013091600000010000000000000BRBBDCACNPR8604
012013082982BBDCU26     080BBDCE       PN      N1000R$  000000000003200000000000330000000000012000000000001900000000000250000000000000000000000000000083000000000000141400000000000002806300000000000259802013091600000010000000000000BRBBDCACNPR8604
012013082982BBDCU27     080BBDCE       PN      N1000R$  000000000005400000000000540000000000028000000000003600000000000450000000000027000000000000000098000000000000202900000000000007381300000000000267802013091600000010000000000000BRBBDCACNPR8602
012013082982BBDCU28     080BBDCE       PN      N1000R$  000000000013500000000001350000000000064000000000008700000000000890000000000000000000000000000126000000000000204400000000000017979900000000000277802013091600000010000000000000BRBBDCACNPR8602
012013082982BBDCU29     080BBDCE       PN      N1000R$  000000000015600000000001650000000000131000000000015600000000001600000000000000000000000000000006000000000000011400000000000001788400000000000287802013091600000010000000000000BRBBDCACNPR8602
012013082982BBDCU31     080BBDCE       PN      N1000R$  000000000007600000000000760000000000044000000000006300000000000680000000000000000000000000000011000000000000020700000000000001316500000000000272902013091600000010000000000000BRBBDCACNPR8590
012013082982BBDCU75     080BBDCE       PN      N1000R$  000000000010000000000001340000000000099000000000012200000000001170000000000000000000000000000029000000000000029100000000000003572200000000000282302013091600000010000000000000BRBBDCACNPR8604
012013082982BBDCV26     080BBDCE       PN      N1000R$  000000000006100000000000640000000000048000000000005400000000000640000000000000000000000000000022000000000000097400000000000005343400000000000259802013102100000010000000000000BRBBDCACNPR8604
012013082982BBDCV27     080BBDCE       PN      N1000R$  000000000009000000000000900000000000078000000000008300000000000890000000000000000000000000000008000000000000015700000000000001308100000000000267802013102100000010000000000000BRBBDCACNPR8602
012013082982BBDCV29     080BBDCE       PN      N1000R$  000000000017000000000002000000000000170000000000018700000000001940000000000000000000000000000019000000000000035700000000000006690000000000000287802013102100000010000000000000BRBBDCACNPR8602
012013082982BBDCV58     080BBDCE       PN      N1000R$  000000000015900000000001590000000000125000000000014600000000001450000000000000000000000000000025000000000000047800000000000006978800000000000280002013102100000010000000000000BRBBDCACNPR8605
012013082982BBDCW25     080BBDCE       PN      N1000R$  000000000005200000000000520000000000052000000000005200000000000520000000000000000000000000000001000000000000001200000000000000062400000000000249802013111800000010000000000000BRBBDCACNPR8604
012013082982BBDCW27     080BBDCE       PN      N1000R$  000000000011600000000001160000000000100000000000010700000000001000000000000000000000000000000004000000000000004800000000000000516000000000000269602013111800000010000000000000BRBBDCACNPR8603
012013082982BBDCX27     080BBDCE       PN      N1000R$  000000000011600000000001160000000000116000000000011600000000001160000000000000000000000000000001000000000000000500000000000000058000000000000269802013121600000010000000000000BRBBDCACNPR8604
012013082912BBFI11B     010FII BB PROGRCI      MB   R$  000000042800000000004280000000000426002000000042783900000004280000000000426000000000042800000006000000000000000025000000000010695997000000000000009999123100000010000000000000BRBBFICTF006197
012013082912BBPO11      010FII BB PRGIICI           R$  000000001093900000000110390000000010939000000001099400000000110200000000011000000000001102000222000000000000021879000000000240547101000000000000009999123100000010000000000000BRBBPOCTF003109
012013082912BBRC11      010FII BB CORP CI           R$  000000000905100000000092290000000009000000000000902800000000090500000000009000000000000905000025000000000000002066000000000018652071000000000000009999123100000010000000000000BRBBRCCTF004123
012013082902BBRK3       010BR BROKERS  ON      NM   R$  000000000053600000000005400000000000524000000000053500000000005370000000000535000000000053701473000000000000644100000000000345192200000000000000009999123100000010000000000000BRBBRKACNOR4108
012013082996BBRK3F      020BR BROKERS  ON      NM   R$  000000000054000000000005400000000000508000000000053200000000005320000000000531000000000060600006000000000000000272000000000000144904000000000000009999123100000010000000000000BRBBRKACNOR4108
012013082902BBSE3       010BBSEGURIDADEON  ED  NM   R$  000000000187700000000019020000000001867000000000188700000000019000000000001899000000000190008024000000000004654200000000008786591400000000000000009999123100000010000000000000BRBBSEACNOR5101
012013082996BBSE3F      020BBSEGURIDADEON  ED  NM   R$  000000000187500000000019000000000001864000000000189000000000018970000000001891000000000189702602000000000000090806000000000171674557000000000000009999123100000010000000000000BRBBSEACNOR5101
012013082902BBTG11      010BTG PACTUAL UNT          R$  000000000269100000000027310000000002681000000000270900000000027100000000002710000000000272100238000000000000211100000000000571952200000000000000009999123100000010000000000000BRBBTGUNT007105
012013082996BBTG11F     020BTG PACTUAL UNT          R$  000000000270000000000028000000000002680000000000271600000000027110000000002711000000000299800011000000000000000560000000000001520981000000000000009999123100000010000000000000BRBBTGUNT007105
012013082912BBVJ11      010FII C JARDIMCI           R$  000000000765700000000077010000000007613000000000763700000000076140000000007613000000000761400020000000000000000983000000000007507198000000000000009999123100000010000000000000BRBBVJCTF001132
012013082912BCFF11B     010FII BC FFII CI      MB   R$  000000000947900000000094800000000008813000000000903800000000090000000000009000000000000902000164000000000000009289000000000083958950000000000000009999123100000010000000000000BRBCFFCTF000141
012013082902BEEF3       010MINERVA     ON      NM   R$  000000000105600000000010720000000001050000000000106400000000010700000000001061000000000107001527000000000000328700000000000349761400000000000000009999123100000010000000000000BRBEEFACNOR6104
012013082996BEEF3F      020MINERVA     ON      NM   R$  000000000106000000000010600000000001017000000000102800000000010170000000001016000000000112200003000000000000000050000000000000051430000000000000009999123100000010000000000000BRBEEFACNOR6104
012013082902BEES3       010BANESTES    ON           R$  000000000004800000000000480000000000048000000000004800000000000480000000000047000000000004800003000000000000011100000000000000532800000000000000009999123100000010000000000000BRBEESACNOR9243
012013082902BEMA3       010BEMATECH    ON      NM   R$  000000000068700000000007000000000000680000000000069000000000007000000000000695000000000070000088000000000000036200000000000024992700000000000000009999123100000010000000000000BRBEMAACNOR0114
012013082996BEMA3F      020BEMATECH    ON      NM   R$  000000000069800000000006990000000000698000000000069800000000006990000000000698000000000069900002000000000000000034000000000000023740000000000000009999123100000010000000000000BRBEMAACNOR0114
012013082962BEMA3T      030BEMATECH    ON      NM090R$  000000000069800000000006990000000000698000000000069800000000006990000000000000000000000000000002000000000000005600000000000003913731000000000000009999123100000010000000000000BRBEMAACNOR0114
012013082902BHGR3       010BHG         ON      NM   R$  000000000142500000000014250000000001410000000000141100000000014110000000001400000000000141100023000000000000116600000000000164531100000000000000009999123100000010000000000000BRBHGRACNOR9101
012013082902BICB4       010BICBANCO    PN      N1   R$  000000000039300000000004010000000000392000000000039400000000004010000000000400000000000040100053000000000000065700000000000025926800000000000000009999123100000010000000000000BRBICBACNPR7131
012013082996BICB4F      020BICBANCO    PN      N1   R$  000000000040700000000004070000000000394000000000040300000000003940000000000361000000000040700004000000000000000100000000000000040399000000000000009999123100000010000000000000BRBICBACNPR7131
012013082962BICB4T      030BICBANCO    PN      N1180R$  000000000041100000000004120000000000411000000000041100000000004120000000000000000000000000000002000000000000040000000000000016457268000000000000009999123100000010000000000000BRBICBACNPR7131
012013082902BIOM3       010BIOMM       ON           R$  000000000080000000000008500000000000800000000000081600000000008500000000000730000000000099000002000000000000003000000000000002450000000000000000009999123100000010000000000000BRBIOMACNOR2101
012013082902BIOM4       010BIOMM       PN           R$  000000000085000000000008500000000000850000000000085000000000008500000000000790000000000085000001000000000000001000000000000000850000000000000000009999123100000010000000000000BRBIOMACNPR9101
012013082996BIOM4F      020BIOMM       PN           R$  000000000082500000000008730000000000825000000000086800000000008730000000000751000000000087500002000000000000000123000000000000106803000000000000009999123100000010000000000000BRBIOMACNPR9101
012013082902BISA3       010BROOKFIELD  ON      NM   R$  000000000017800000000001830000000000175000000000017900000000001750000000000174000000000017505351000000000005162600000000000925679200000000000000009999123100000010000000000000BRBISAACNOR8109
012013082996BISA3F      020BROOKFIELD  ON      NM   R$  000000000017600000000001830000000000176000000000017900000000001770000000000176000000000018000014000000000000000535000000000000095823000000000000009999123100000010000000000000BRBISAACNOR8109
012013082912BJRC11      010FII JS RECIMCI           R$  000000008940000000000930000000000089400000000009232100000000900000000000084200000000009495000008000000000000001529000000000141160300000000000000009999123100000010000000000000BRBJRCCTF007109
012013082902BMEB3       010MERC BRASIL ON           R$  000000000172900000000017800000000001729000000000175400000000017800000000000000000000000180000002000000000000000200000000000000350900000000000000009999123100000010000000000000BRBMEBACNOR8190
012013082902BMIN4       010MERC INVEST PN  EJ       R$  000000000002600000000000260000000000026000000000002600000000000260000000000025000000000002700001000000000000001000000000000000026000000000000000009999123100000010000000000000BRBMINACNPR1160
012013082996BMIN4F      020MERC INVEST PN  EJ       R$  000000000002600000000000260000000000026000000000002600000000000260000000000026000000000002700001000000000000000550000000000000014300000000000000009999123100000010000000000000BRBMINACNPR1160
012013082912BMLC11B     010FII BMBRC LCCI      MB   R$  000000001140100000000114510000000011401000000001140300000000114510000000011402000000001145000003000000000000000425000000000004846675000000000000009999123100000010000000000000BRBMLCCTF004118
012013082902BNBR4       010NORD BRASIL PN           R$  000000000250000000000025000000000002500000000000250000000000025000000000002500000000000273300002000000000000000300000000000000750000000000000000009999123100000010000000000000BRBNBRACNPR5187
012013082902BOBR4       010BOMBRIL     PN           R$  000000000066000000000006600000000000660000000000066000000000006600000000000660000000000068400001000000000000001000000000000000660000000000000000009999123100000010000000000000BRBOBRACNPR3127
012013082996BOBR4F      020BOMBRIL     PN           R$  000000000065500000000006550000000000655000000000065500000000006550000000000000000000000000000001000000000000000048000000000000031440000000000000009999123100000010000000000000BRBOBRACNPR3127
012013082902BOEI11B     010BOEING      DRN     MB   R$  000000002504900000000250490000000025049000000002504900000000250490000000021500000000002700000001000000000000000200000000000005009800000000000000009999123100000010000000000000BRBOEIBDR003106
012013082914BOVA11      010ISHARES BOVACI           R$  000000000493100000000049610000000004883000000000491400000000049060000000004906000000000492005341000000000003022380000000014853621290000000000000009999123100000010000000000000BRBOVACTF003101
012013082996BOVA11F     020ISHARES BOVACI           R$  000000000492000000000049510000000004865000000000492000000000048650000000004865000000000497800010000000000000000041000000000000201750000000000000009999123100000010000000000000BRBOVACTF003101
012013082912BPFF11      010FII ABSOLUTOCI           R$  000000000865000000000086500000000008400000000000854000000000084000000000008300000000000862000018000000000000000996000000000008506280000000000000009999123100000010000000000000BRBPFFCTF002104
012013082902BPHA3       010BR PHARMA   ON      NM   R$  000000000090000000000009020000000000888000000000089500000000008890000000000889000000000089201134000000000000466600000000000417654600000000000000009999123100000010000000000000BRBPHAACNOR6102
012013082996BPHA3F      020BR PHARMA   ON      NM   R$  000000000090200000000009100000000000891000000000090100000000009010000000000890000000000097700007000000000000000257000000000000231791000000000000009999123100000010000000000000BRBPHAACNOR6102
012013082902BPNM4       010PANAMERICANOPN      N1   R$  000000000051500000000005190000000000510000000000051500000000005100000000000508000000000051200096000000000002152900000000001110090800000000000000009999123100000010000000000000BRBPNMACNPR6111
012013082996BPNM4F      020PANAMERICANOPN      N1   R$  000000000048900000000004890000000000489000000000048900000000004890000000000489000000000051900001000000000000000012000000000000005868000000000000009999123100000010000000000000BRBPNMACNPR6111
012013082962BPNM4T      030PANAMERICANOPN      N1090R$  000000000052700000000005280000000000527000000000052700000000005280000000000000000000000000000002000000000002000000000000001055220000000000000000009999123100000010000000000000BRBPNMACNPR6111
012013082902BRAP3       010BRADESPAR   ON      N1   R$  000000000201900000000020200000000001981000000000200400000000020130000000001983000000000202900033000000000000012400000000000024852800000000000000009999123100000010000000000000BRBRAPACNOR5124
012013082996BRAP3F      020BRADESPAR   ON      N1   R$  000000000198000000000020200000000001980000000000199900000000020000000000001975000000000211700005000000000000000073000000000000145980000000000000009999123100000010000000000000BRBRAPACNOR5124
012013082902BRAP4       010BRADESPAR   PN      N1   R$  000000000245600000000024710000000002420000000000244500000000024430000000002441000000000244304329000000000000883500000000002160802100000000000000009999123100000010000000000000BRBRAPACNPR2124
012013082996BRAP4F      020BRADESPAR   PN      N1   R$  000000000243600000000025000000000002420000000000244400000000024200000000002420000000000245300056000000000000001247000000000003047801000000000000009999123100000010000000000000BRBRAPACNPR2124
012013082962BRAP4T      030BRADESPAR   PN      N1090R$  000000000248300000000024840000000002483000000000248300000000024840000000000000000000000000000002000000000000001000000000000002483167000000000000009999123100000010000000000000BRBRAPACNPR2124
012013082914BRAX11      010ISHARES BRAXCI           R$  000000000393900000000040080000000003930000000000398500000000039830000000000000000000000000000035000000000000008060000000000032122650000000000000009999123100000010000000000000BRBRAXCTF002100
012013082912BRCR11      010FII BC FUND CI           R$  000000001231500000000124800000000012156000000001229300000000122300000000012230000000001225000837000000000000048891000000000601060278000000000000009999123100000010000000000000BRBRCRCTF000132
012013082902BRFS3       010BRF SA      ON      NM   R$  000000000530000000000054300000000005293000000000537800000000053700000000005366000000000537005475000000000001419100000000007632471800000000000000009999123100000010000000000000BRBRFSACNOR8110
012013082996BRFS3F      020BRF SA      ON      NM   R$  000000000528000000000054300000000005280000000000536900000000054190000000005271000000000541900092000000000000002849000000000015297435000000000000009999123100000010000000000000BRBRFSACNOR8110
012013082962BRFS3T      030BRF SA      ON      NM032R$  000000000544700000000054480000000005447000000000544700000000054480000000000000000000000000000002000000000000100000000000000544706149000000000000009999123100000010000000000000BRBRFSACNOR8110
012013082978BRFSI55     070BRFS        ON      NM000R$  000000000003700000000000370000000000037000000000003700000000000370000000000000000000000000000001000000000000000100000000000000003700000000000550002013091600000010000000000000BRBRFSACNOR8110
012013082982BRFSW52     080BRFSE       ON      NM000R$  000000000016000000000001600000000000160000000000016000000000001600000000000000000000000000000001000000000000000100000000000000016000000000000520002013111800000010000000000000BRBRFSACNOR8110
012013082902BRIN3       010BR INSURANCEON      NM   R$  000000000180200000000018030000000001757000000000177800000000017750000000001775000000000178902617000000000000934400000000001661568400000000000000009999123100000010000000000000BRBRINACNOR3106
012013082996BRIN3F      020BR INSURANCEON      NM   R$  000000000190000000000019000000000001760000000000177900000000017800000000001701000000000194100018000000000000000480000000000000853984000000000000009999123100000010000000000000BRBRINACNOR3106
012013082996BRIV4F      020ALFA INVEST PN           R$  000000000056500000000005650000000000565000000000056500000000005650000000000502000000000059900001000000000000000019000000000000010735000000000000009999123100000010000000000000BRBRIVACNPR3197
012013082902BRKM3       010BRASKEM     ON      N1   R$  000000000119000000000012140000000001190000000000119900000000011960000000001196000000000120000013000000000000013600000000000016310000000000000000009999123100000010000000000000BRBRKMACNOR1110
012013082996BRKM3F      020BRASKEM     ON      N1   R$  000000000121900000000012460000000001194000000000120400000000012460000000001220000000000124800005000000000000000150000000000000180678000000000000009999123100000010000000000000BRBRKMACNOR1110
012013082962BRKM3T      030BRASKEM     ON      N1180R$  000000000125800000000012590000000001258000000000125800000000012590000000000000000000000000000002000000000000009000000000000011327040000000000000009999123100000010000000000000BRBRKMACNOR1110
012013082902BRKM5       010BRASKEM     PNA     N1   R$  000000000170000000000017480000000001692000000000172800000000017230000000001718000000000172305057000000000001322800000000002286509700000000000000009999123100000010000000000000BRBRKMACNPA4110
012013082996BRKM5F      020BRASKEM     PNA     N1   R$  000000000170500000000017410000000001689000000000172800000000017200000000001719000000000173300046000000000000001249000000000002158591000000000000009999123100000010000000000000BRBRKMACNPA4110
012013082902BRML3       010BR MALLS PARON      NM   R$  000000000181000000000018350000000001796000000000181000000000018000000000001800000000000180606888000000000001912400000000003462637800000000000000009999123100000010000000000000BRBRMLACNOR9105
012013082996BRML3F      020BR MALLS PARON      NM   R$  000000000180700000000018320000000001796000000000181300000000018110000000001790000000000182300061000000000000001818000000000003296692000000000000009999123100000010000000000000BRBRMLACNOR9105
012013082962BRML3T      030BR MALLS PARON      NM032R$  000000000183200000000018330000000001832000000000183200000000018330000000000000000000000000000002000000000000001000000000000001832922000000000000009999123100000010000000000000BRBRMLACNOR9105
012013082902BRPR3       010BR PROPERT  ON      NM   R$  000000000176200000000018000000000001760000000000177800000000018000000000001781000000000180003499000000000001041800000000001852396200000000000000009999123100000010000000000000BRBRPRACNOR9112
012013082996BRPR3F      020BR PROPERT  ON      NM   R$  000000000176600000000018770000000001752000000000177800000000017650000000001764000000000176500042000000000000001612000000000002866016000000000000009999123100000010000000000000BRBRPRACNOR9112
012013082978BRPRI18     070BRPR        ON      NM000R$  000000000003600000000000370000000000036000000000003600000000000370000000000000000000000000000002000000000000075000000000000002745000000000000180002013091600000010000000000000BRBRPRACNOR9112
012013082902BRSR3       010BANRISUL    ON      N1   R$  000000000126000000000012600000000001260000000000126000000000012600000000001270000000000136900001000000000000000900000000000001134000000000000000009999123100000010000000000000BRBRSRACNOR3130
012013082902BRSR6       010BANRISUL    PNB     N1   R$  000000000136200000000014150000000001362000000000140400000000014140000000001407000000000141401343000000000000565000000000000793433600000000000000009999123100000010000000000000BRBRSRACNPB4133
012013082996BRSR6F      020BANRISUL    PNB     N1   R$  000000000137000000000014050000000001339000000000138800000000013910000000001425000000000154500019000000000000000555000000000000770379000000000000009999123100000010000000000000BRBRSRACNPB4133
012013082962BRSR6T      030BANRISUL    PNB     N1090R$  000000000140900000000014100000000001409000000000140900000000014100000000000000000000000000000002000000000000000100000000000000140934000000000000009999123100000010000000000000BRBRSRACNPB4133
012013082902BSEV3       010BIOSEV      ON      NM   R$  000000000091000000000009340000000000910000000000092400000000009340000000000901000000000093400009000000000000018200000000000016832100000000000000009999123100000010000000000000BRBSEVACNOR3100
012013082902BTOW3       010B2W DIGITAL ON      NM   R$  000000000134100000000013990000000001323000000000136100000000013310000000001331000000000134001671000000000000677900000000000922832300000000000000009999123100000010000000000000BRBTOWACNOR8105
012013082996BTOW3F      020B2W DIGITAL ON      NM   R$  000000000133200000000014240000000001281000000000136400000000013300000000001325000000000137700044000000000000001308000000000001785046000000000000009999123100000010000000000000BRBTOWACNOR8105
012013082902BTTL3       010BATTISTELLA ON           R$  000000000009100000000000910000000000091000000000009100000000000910000000000080000000000009100001000000000000000100000000000000009100000000000000009999123100000010000000000000BRBTTLACNOR0105
012013082902BTTL4       010BATTISTELLA PN           R$  000000000010000000000001010000000000100000000000010000000000001000000000000099000000000010000005000000000000014000000000000001402000000000000000009999123100000010000000000000BRBTTLACNPR7105
012013082902BVMF3       010BMFBOVESPA  ON  ED  NM   R$  000000000115000000000011670000000001137000000000115500000000011600000000001159000000000116017778000000000009586100000000011081258900000000000000009999123100000010000000000000BRBVMFACNOR3126
012013082996BVMF3F      020BMFBOVESPA  ON  ED  NM   R$  000000000115000000000011690000000001140000000000115200000000011550000000001155000000000116400073000000000000002659000000000003064740000000000000009999123100000010000000000000BRBVMFACNOR3126
012013082962BVMF3T      030BMFBOVESPA  ON  ED  NM021R$  000000000116500000000011660000000001165000000000116500000000011660000000000000000000000000000002000000000000017000000000000019805456000000000000009999123100000010000000000000BRBVMFACNOR3126
012013082978BVMFI10     070BVMF    /ED ON      NM000R$  000000000016000000000001600000000000160000000000016000000000001600000000000140000000000000000001000000000000000100000000000000016000000000000098502013091600000010000000000000BRBVMFACNOR3125
012013082978BVMFI11     070BVMF  FM/ED ON      NM000R$  000000000007600000000000920000000000074000000000008600000000000920000000000076000000000012000021000000000000016700000000000001451800000000000108502013091600000010000000000000BRBVMFACNOR3125
012013082978BVMFI12     070BVMF  FM/ED ON      NM000R$  000000000002200000000000280000000000020000000000002400000000000230000000000023000000000002600213000000000000503900000000000012180100000000000118502013091600000010000000000000BRBVMFACNOR3125
012013082978BVMFI13     070BVMF  FM/ED ON      NM000R$  000000000000600000000000060000000000005000000000000500000000000050000000000005000000000000600016000000000000039100000000000000197500000000000128502013091600000010000000000000BRBVMFACNOR3125
012013082978BVMFI14     070BVMF    /ED ON      NM000R$  000000000000100000000000020000000000001000000000000100000000000020000000000001000000000000200003000000000000012100000000000000012200000000000138502013091600000010000000000000BRBVMFACNOR3125
012013082978BVMFI41     070BVMF  FM/ED ON      NM000R$  000000000004200000000000540000000000042000000000004900000000000540000000000030000000000005400116000000000000138600000000000006874100000000000113502013091600000010000000000000BRBVMFACNOR3125
012013082978BVMFI42     070BVMF  FM/ED ON      NM000R$  000000000001100000000000120000000000011000000000001100000000000120000000000000000000000001300012000000000000038300000000000000439800000000000123502013091600000010000000000000BRBVMFACNOR3125
012013082978BVMFJ11     070BVMF  FM/ED ON      NM000R$  000000000010800000000001180000000000108000000000010800000000001180000000000082000000000000000005000000000000008700000000000000948000000000000108502013102100000010000000000000BRBVMFACNOR3125
012013082978BVMFJ12     070BVMF  FM/ED ON      NM000R$  000000000005300000000000540000000000046000000000005100000000000500000000000044000000000000000040000000000000124800000000000006397400000000000118502013102100000010000000000000BRBVMFACNOR3125
012013082978BVMFJ13     070BVMF  FM/ED ON      NM000R$  000000000001400000000000180000000000014000000000001600000000000170000000000013000000000001800061000000000000158800000000000002564800000000000128502013102100000010000000000000BRBVMFACNOR3125
012013082978BVMFJ14     070BVMF    /ED ON      NM000R$  000000000000300000000000050000000000003000000000000400000000000050000000000003000000000000000006000000000000024400000000000000115000000000000138502013102100000010000000000000BRBVMFACNOR3125
012013082978BVMFJ41     070BVMF  FM/ED ON      NM000R$  000000000007500000000000810000000000075000000000007900000000000810000000000000000000000000000006000000000000016200000000000001286500000000000113502013102100000010000000000000BRBVMFACNOR3125
012013082978BVMFJ42     070BVMF  FM/ED ON      NM000R$  000000000002900000000000330000000000029000000000003000000000000310000000000000000000000000000015000000000000031600000000000000963100000000000123502013102100000010000000000000BRBVMFACNOR3125
012013082978BVMFL13     070BVMF    /ED ON      NM000R$  000000000004500000000000450000000000045000000000004500000000000450000000000040000000000004500001000000000000001800000000000000081000000000000128502013121600000010000000000000BRBVMFACNOR3125
012013082978BVMFL43     070BVMF    /ED ON      NM000R$  000000000003100000000000360000000000031000000000003200000000000360000000000000000000000000000007000000000003300000000000000108375000000000000131902013121600000010000000000000BRBVMFACNOR3126
012013082982BVMFU11     080BVMFE FM/ED ON      NM000R$  000000000001600000000000160000000000010000000000001100000000000110000000000006000000000002100023000000000000088900000000000001064300000000000108502013091600000010000000000000BRBVMFACNOR3125
012013082982BVMFU12     080BVMFE FM/ED ON      NM000R$  000000000004900000000000580000000000041000000000004700000000000460000000000020000000000005000060000000000000179900000000000008550000000000000118502013091600000010000000000000BRBVMFACNOR3125
012013082982BVMFU40     080BVMFE FM/ED ON      NM000R$  000000000000700000000000070000000000004000000000000400000000000040000000000003000000000000000008000000000000024000000000000000101400000000000103502013091600000010000000000000BRBVMFACNOR3125
012013082982BVMFU41     080BVMFE FM/ED ON      NM000R$  000000000002300000000000240000000000023000000000002300000000000240000000000000000000000000000003000000000000020000000000000000462800000000000113502013091600000010000000000000BRBVMFACNOR3125
012013082982BVMFU42     080BVMFE   /ED ON      NM000R$  000000000008400000000000840000000000084000000000008400000000000840000000000000000000000000000001000000000000001000000000000000084000000000000123502013091600000010000000000000BRBVMFACNOR3125
012013082982BVMFV11     080BVMFE FM/ED ON      NM000R$  000000000003200000000000320000000000028000000000002900000000000280000000000000000000000005400008000000000000014700000000000000439100000000000108502013102100000010000000000000BRBVMFACNOR3125
012013082982BVMFV12     080BVMFE FM/ED ON      NM000R$  000000000007500000000000750000000000066000000000006900000000000660000000000050000000000020000015000000000000029000000000000002009700000000000118502013102100000010000000000000BRBVMFACNOR3125
012013082982BVMFV40     080BVMFE FM/ED ON      NM000R$  000000000002300000000000230000000000018000000000001900000000000190000000000000000000000000000041000000000000091200000000000001766700000000000103502013102100000010000000000000BRBVMFACNOR3125
012013082982BVMFV41     080BVMFE FM/ED ON      NM000R$  000000000004700000000000470000000000046000000000004600000000000460000000000000000000000008000004000000000000016900000000000000786900000000000113502013102100000010000000000000BRBVMFACNOR3125
012013082982BVMFV42     080BVMFE   /ED ON      NM000R$  000000000009700000000000970000000000097000000000009700000000000970000000000000000000000000000001000000000000001000000000000000097000000000000123502013102100000010000000000000BRBVMFACNOR3125
012013082982BVMFW12     080BVMFE   /ED ON      NM000R$  000000000008400000000000840000000000084000000000008400000000000840000000000000000000000000000001000000000000001800000000000000151200000000000118502013111800000010000000000000BRBVMFACNOR3125
012013082902CAMB4       010CAMBUCI     PN           R$  000000000018400000000001840000000000184000000000018400000000001840000000000185000000000019800001000000000000000100000000000000018400000000000000009999123100000010000000000000BRCAMBACNPR1117
012013082902CARD3       010CSU CARDSYSTON      NM   R$  000000000032200000000003230000000000318000000000032200000000003230000000000318000000000032300010000000000000007000000000000002256100000000000000009999123100000010000000000000BRCARDACNOR9105
012013082996CBMA3F      020COBRASMA    ON           R$  000000000000600000000000060000000000006000000000000600000000000060000000000005000000000000600001000000000000000001000000000000000006000000000000009999123100000010000000000000BRCBMAACNOR4124
012013082902CBMA4       010COBRASMA    PN           R$  000000000000400000000000040000000000004000000000000400000000000040000000000004000000000000500005000000000000120000000000000000480000000000000000009999123100000010000000000000BRCBMAACNPR1124
012013082996CBMA4F      020COBRASMA    PN           R$  000000000000400000000000040000000000004000000000000400000000000040000000000003000000000000400007000000000000019990000000000000079960000000000000009999123100000010000000000000BRCBMAACNPR1124
012013082908CCHI3       010CHIARELLI   ON           R$  000000000002200000000000290000000000022000000000002600000000000260000000000025000000000002800047000000000000680000000000000017840000000000000000009999123100000010000000000000BRCCHIACNOR5123
012013082996CCHI3F      020CHIARELLI   ON           R$  000000000002200000000000290000000000022000000000002600000000000280000000000022000000000002800013000000000000022489000000000000594973000000000000009999123100000010000000000000BRCCHIACNOR5123
012013082908CCHI4       010CHIARELLI   PN           R$  000000000002100000000000240000000000021000000000002200000000000240000000000021000000000002300005000000000000060000000000000001330000000000000000009999123100000010000000000000BRCCHIACNPR2122
012013082902CCPR3       010CYRE COM-CCPON      NM   R$  000000000208900000000021250000000002081000000000208300000000020810000000002081000000000210000030000000000000016200000000000033753800000000000000009999123100000010000000000000BRCCPRACNOR9107
012013082996CCPR3F      020CYRE COM-CCPON      NM   R$  000000000208100000000020820000000002062000000000207400000000020620000000002062000000000222000004000000000000000167000000000000346421000000000000009999123100000010000000000000BRCCPRACNOR9107
012013082902CCRO3       010CCR SA      ON      NM   R$  000000000171800000000017450000000001718000000000173700000000017450000000001736000000000174507912000000000003257000000000005658307900000000000000009999123100000010000000000000BRCCROACNOR2122
012013082996CCRO3F      020CCR SA      ON      NM   R$  000000000171800000000017500000000001714000000000173200000000017500000000001730000000000175000080000000000000002511000000000004350166000000000000009999123100000010000000000000BRCCROACNOR2122
012013082978CCROI18     070CCRO        ON      NM000R$  000000000002500000000000250000000000025000000000002500000000000250000000000000000000000000000001000000000000000600000000000000015000000000000180002013091600000010000000000000BRCCROACNOR2122
012013082902CCXC3       010CCX CARVAO  ON      NM   R$  000000000014500000000001480000000000132000000000013800000000001370000000000137000000000013801012000000000003513700000000000487173000000000000000009999123100000010000000000000BRCCXCACNOR5100
012013082996CCXC3F      020CCX CARVAO  ON      NM   R$  000000000014000000000001400000000000132000000000013600000000001400000000000132000000000014000006000000000000000185000000000000025250000000000000009999123100000010000000000000BRCCXCACNOR5100
012013082912CEOC11B     010FII CEO CCP CI      MB   R$  000000000879000000000088500000000008670000000000875600000000086700000000008655000000000867000033000000000000001169000000000010236794000000000000009999123100000010000000000000BRCEOCCTF003109
012013082902CESP3       010CESP        ON      N1   R$  000000000171900000000017200000000001719000000000171900000000017200000000001660000000000172000002000000000000000300000000000000515900000000000000009999123100000010000000000000BRCESPACNOR3160
012013082902CESP5       010CESP        PNA     N1   R$  000000000221000000000022100000000002210000000000221000000000022100000000002115000000000228800001000000000000000100000000000000221000000000000000009999123100000010000000000000BRCESPACNPA6108
012013082902CESP6       010CESP        PNB     N1   R$  000000000207000000000021140000000002050000000000209300000000021030000000002103000000000210504697000000000000882200000000001846961300000000000000009999123100000010000000000000BRCESPACNPB4119
012013082996CESP6F      020CESP        PNB     N1   R$  000000000205600000000021000000000002051000000000207500000000020720000000002072000000000210700021000000000000000427000000000000886575000000000000009999123100000010000000000000BRCESPACNPB4119
012013082902CGAS3       010COMGAS      ON           R$  000000000500000000000051310000000005000000000000500300000000051310000000005015000000000514900005000000000000012500000000000062543100000000000000009999123100000010000000000000BRCGASACNOR0132
012013082902CGAS5       010COMGAS      PNA          R$  000000000552500000000055290000000005392000000000546600000000054990000000005499000000000552800072000000000000023500000000000128470100000000000000009999123100000010000000000000BRCGASACNPA3129
012013082996CGAS5F      020COMGAS      PNA          R$  000000000544100000000054500000000005305000000000543900000000054500000000005304000000000555000007000000000000000203000000000001104254000000000000009999123100000010000000000000BRCGASACNPA3129
012013082902CGRA3       010GRAZZIOTIN  ON           R$  000000000160000000000016000000000001561000000000159900000000015610000000001561000000000159900007000000000000080900000000000129436100000000000000009999123100000010000000000000BRCGRAACNOR2061
012013082996CGRA3F      020GRAZZIOTIN  ON           R$  000000000145500000000014550000000001455000000000145500000000014550000000001500000000000159500001000000000000000014000000000000020370000000000000009999123100000010000000000000BRCGRAACNOR2061
012013082902CGRA4       010GRAZZIOTIN  PN           R$  000000000166300000000016740000000001606000000000163000000000016740000000001650000000000167400028000000000000008000000000000013043100000000000000009999123100000010000000000000BRCGRAACNPR9061
012013082996CGRA4F      020GRAZZIOTIN  PN           R$  000000000161000000000016100000000001610000000000161000000000016100000000001638000000000180000002000000000000000015000000000000024150000000000000009999123100000010000000000000BRCGRAACNPR9061
012013082902CIEL3       010CIELO       ON      NM   R$  000000000574500000000058650000000005745000000000580100000000057820000000005782000000000578506860000000000001544100000000008958682200000000000000009999123100000010000000000000BRCIELACNOR3111
012013082996CIEL3F      020CIELO       ON      NM   R$  000000000577200000000058600000000005754000000000581000000000058060000000005751000000000577000095000000000000002457000000000014272649000000000000009999123100000010000000000000BRCIELACNOR3111
012013082962CIEL3T      030CIELO       ON      NM090R$  000000000595700000000059580000000005957000000000595700000000059580000000000000000000000000000002000000000000000100000000000000595797000000000000009999123100000010000000000000BRCIELACNOR3111
012013082902CLSC4       010CELESC      PN      N2   R$  000000000177000000000017840000000001750000000000176900000000017680000000001768000000000178000090000000000000014700000000000026011200000000000000009999123100000010000000000000BRCLSCACNPR3107
012013082996CLSC4F      020CELESC      PN      N2   R$  000000000167800000000016780000000001678000000000167800000000016780000000001678000000000190000001000000000000000008000000000000013424000000000000009999123100000010000000000000BRCLSCACNPR3107
012013082902CMIG3       010CEMIG       ON      N1   R$  000000000188500000000018870000000001846000000000185600000000018630000000001863000000000188500362000000000000096000000000000178228600000000000000009999123100000010000000000000BRCMIGACNOR6208
012013082996CMIG3F      020CEMIG       ON      N1   R$  000000000185500000000018990000000001850000000000186200000000018750000000001855000000000187500019000000000000000390000000000000726526000000000000009999123100000010000000000000BRCMIGACNOR6208
012013082902CMIG4       010CEMIG       PN      N1   R$  000000000185200000000018800000000001814000000000185900000000018600000000001860000000000187008011000000000002531300000000004707830500000000000000009999123100000010000000000000BRCMIGACNPR3208
012013082996CMIG4F      020CEMIG       PN      N1   R$  000000000185500000000018830000000001820000000000185800000000018470000000001847000000000187900137000000000000003953000000000007346451000000000000009999123100000010000000000000BRCMIGACNPR3208
012013082962CMIG4T      030CEMIG       PN      N1090R$  000000000190700000000019080000000001907000000000190700000000019080000000000000000000000000000002000000000000003000000000000005721422000000000000009999123100000010000000000000BRCMIGACNPR3208
012013082962CMIG4T      030CEMIG       PN      N1180R$  000000000194700000000019480000000001939000000000194400000000019400000000000000000000000000000004000000000000004500000000000008752254000000000000009999123100000010000000000000BRCMIGACNPR3208
012013082978CMIGI19     070CMIG        PN      N1000R$  000000000003300000000000330000000000033000000000003300000000000330000000000000000000000005000001000000000000000500000000000000016500000000000190002013091600000010000000000000BRCMIGACNPR3208
012013082982CMIGX48     080CMIGE       PN      N1000R$  000000000010600000000001060000000000106000000000010600000000001060000000000000000000000000000003000000000000013800000000000001462800000000000185002013121600000010000000000000BRCMIGACNPR3208
012013082912CNES11B     010FII CENESP  CI  ER  MB   R$  000000001240000000000124000000000012030000000001211500000000123000000000012030000000001240000005000000000000000185000000000002241279000000000000009999123100000010000000000000BRCNESCTF001125
012013082902COCE3       010COELCE      ON           R$  000000000415000000000041500000000004150000000000415000000000041500000000003850000000000414900001000000000000000100000000000000415000000000000000009999123100000010000000000000BRCOCEACNOR0132
012013082902COCE5       010COELCE      PNA          R$  000000000397300000000040820000000003973000000000402300000000040040000000004004000000000403400123000000000000039600000000000159338200000000000000009999123100000010000000000000BRCOCEACNPA3133
012013082996COCE5F      020COELCE      PNA          R$  000000000399200000000040790000000003992000000000401500000000039980000000003990000000000408200012000000000000000376000000000001509678000000000000009999123100000010000000000000BRCOCEACNPA3133
012013082902CPFE3       010CPFL ENERGIAON  ED  NM   R$  000000000193900000000019610000000001918000000000193800000000019280000000001928000000000193902879000000000000514200000000000996796200000000000000009999123100000010000000000000BRCPFEACNOR0122
012013082996CPFE3F      020CPFL ENERGIAON  ED  NM   R$  000000000193300000000019600000000001905000000000193800000000019500000000001909000000000195000024000000000000000783000000000001518766000000000000009999123100000010000000000000BRCPFEACNOR0122
012013082902CPLE3       010COPEL       ON      N1   R$  000000000216000000000021750000000002030000000000203000000000020300000000002016000000000203000264000000000003921800000000007964655000000000000000009999123100000010000000000000BRCPLEACNOR8128
012013082996CPLE3F      020COPEL       ON      N1   R$  000000000210000000000021000000000002100000000000210000000000021000000000002038000000000249900002000000000000000020000000000000042000000000000000009999123100000010000000000000BRCPLEACNOR8128
012013082996CPLE5F      020COPEL       PNA     N1   R$  000000000292200000000029220000000002922000000000292200000000029220000000002923000000000369900003000000000000000071000000000000207462000000000000009999123100000010000000000000BRCPLEACNPA1126
012013082902CPLE6       010COPEL       PNB     N1   R$  000000000289600000000029460000000002850000000000288100000000028720000000002872000000000287604052000000000000977000000000002815327700000000000000009999123100000010000000000000BRCPLEACNPB9125
012013082996CPLE6F      020COPEL       PNB     N1   R$  000000000288800000000029880000000002847000000000291400000000028590000000002850000000000294900020000000000000000717000000000002089514000000000000009999123100000010000000000000BRCPLEACNPB9125
012013082902CPRE3       010CPFL RENOVAVON      NM   R$  000000000118900000000011890000000001162000000000117300000000011850000000001165000000000118600019000000000000011600000000000013615000000000000000009999123100000010000000000000BRCPREACNOR5100
012013082996CPRE3F      020CPFL RENOVAVON      NM   R$  000000000116500000000011900000000001100000000000112000000000011900000000001100000000000120000018000000000000000788000000000000883257000000000000009999123100000010000000000000BRCPREACNOR5100
012013082902CRDE3       010CR2         ON      NM   R$  000000000040800000000004200000000000408000000000041900000000004150000000000415000000000042500003000000000000003200000000000001342300000000000000009999123100000010000000000000BRCRDEACNOR1108
012013082902CREM3       010CREMER      ON  EJ  NM   R$  000000000142700000000014370000000001401000000000142400000000014100000000001405000000000149000053000000000000073700000000000104992600000000000000009999123100000010000000000000BRCREMACNOR2167
012013082996CREM3F      020CREMER      ON  EJ  NM   R$  000000000140600000000014060000000001406000000000140600000000014060000000001406000000000149800001000000000000000044000000000000061864000000000000009999123100000010000000000000BRCREMACNOR2167
012013082902CRIV4       010ALFA FINANC PN           R$  000000000045000000000004580000000000450000000000045600000000004580000000000433000000000045800006000000000000003700000000000001690600000000000000009999123100000010000000000000BRCRIVACNPR1190
012013082902CRUZ3       010SOUZA CRUZ  ON           R$  000000000258100000000025930000000002538000000000255500000000025380000000002537000000000255003354000000000001131400000000002891532200000000000000009999123100000010000000000000BRCRUZACNOR0246
012013082996CRUZ3F      020SOUZA CRUZ  ON           R$  000000000256600000000025870000000002555000000000256500000000025550000000002555000000000260000046000000000000001428000000000003660901000000000000009999123100000010000000000000BRCRUZACNOR0246
012013082962CRUZ3T      030SOUZA CRUZ  ON        032R$  000000000257800000000025790000000002578000000000257800000000025790000000000000000000000000000002000000000000000100000000000000257821000000000000009999123100000010000000000000BRCRUZACNOR0246
012013082902CSAN3       010COSAN       ON      NM   R$  000000000408100000000041190000000004015000000000406200000000040200000000004020000000000403003831000000000001177000000000004781114200000000000000009999123100000010000000000000BRCSANACNOR6108
012013082996CSAN3F      020COSAN       ON      NM   R$  000000000404400000000041520000000003954000000000405700000000040210000000004021000000000414900028000000000000000698000000000002830425000000000000009999123100000010000000000000BRCSANACNOR6108
012013082902CSMG3       010COPASA      ON      NM   R$  000000000279200000000028400000000002792000000000281000000000028050000000002805000000000281301605000000000000737900000000002073517800000000000000009999123100000010000000000000BRCSMGACNOR5127
012013082996CSMG3F      020COPASA      ON      NM   R$  000000000286900000000028690000000002791000000000281400000000028050000000002791000000000288900024000000000000000720000000000002026116000000000000009999123100000010000000000000BRCSMGACNOR5127
012013082902CSNA3       010SID NACIONALON           R$  000000000087200000000008780000000000852000000000086100000000008520000000000852000000000085408147000000000005844900000000005032803900000000000000009999123100000010000000000000BRCSNAACNOR6243
012013082996CSNA3F      020SID NACIONALON           R$  000000000086000000000008750000000000855000000000086400000000008560000000000856000000000087400071000000000000002383000000000002059606000000000000009999123100000010000000000000BRCSNAACNOR6243
012013082962CSNA3T      030SID NACIONALON        060R$  000000000087200000000008730000000000872000000000087200000000008730000000000000000000000000000002000000000000001000000000000000872451000000000000009999123100000010000000000000BRCSNAACNOR6243
012013082962CSNA3T      030SID NACIONALON        120R$  000000000089200000000008960000000000892000000000089400000000008960000000000000000000000000000004000000000000017000000000000015212714000000000000009999123100000010000000000000BRCSNAACNOR6243
012013082962CSNA3T      030SID NACIONALON        180R$  000000000090100000000009020000000000901000000000090100000000009020000000000000000000000000000002000000000000001100000000000000991313000000000000009999123100000010000000000000BRCSNAACNOR6243
012013082978CSNAB11     070CSNA        ON        000R$  000000000002500000000000280000000000025000000000002600000000000250000000000000000000000000000005000000000000660400000000000017260000000000000110002014021700000010000000000000BRCSNAACNOR6243
012013082978CSNAI21     070CSNA        ON        000R$  000000000008000000000000800000000000080000000000008000000000000800000000000000000000000000000002000000000000050000000000000004000000000000000110002014091500000010000000000000BRCSNAACNOR6243
012013082978CSNAI8      070CSNA        ON        000R$  000000000010100000000001010000000000095000000000009500000000000950000000000050000000000009500003000000000000002500000000000000239900000000000078002013091600000010000000000000BRCSNAACNOR6242
012013082978CSNAI80     070CSNA  FM    ON        000R$  000000000004300000000000430000000000041000000000004200000000000410000000000000000000000000000004000000000000013000000000000000547000000000000086002013091600000010000000000000BRCSNAACNOR6243
012013082978CSNAI84     070CSNA  FM    ON        000R$  000000000005400000000000540000000000054000000000005400000000000540000000000025000000000007100001000000000000003500000000000000189000000000000084002013091600000010000000000000BRCSNAACNOR6243
012013082978CSNAI88     070CSNA  FM    ON        000R$  000000000003300000000000330000000000031000000000003200000000000310000000000000000000000003300003000000000000005200000000000000166400000000000088002013091600000010000000000000BRCSNAACNOR6243
012013082978CSNAI9      070CSNA  FM    ON        000R$  000000000002600000000000270000000000021000000000002300000000000210000000000021000000000002300010000000000000013300000000000000306300000000000090002013091600000010000000000000BRCSNAACNOR6243
012013082978CSNAI92     070CSNA  FM    ON        000R$  000000000001900000000000190000000000019000000000001900000000000190000000000000000000000000000001000000000000000400000000000000007600000000000092002013091600000010000000000000BRCSNAACNOR6243
012013082978CSNAI94     070CSNA        ON        000R$  000000000001200000000000120000000000012000000000001200000000000120000000000000000000000000000002000000000000009000000000000000108000000000000094002013091600000010000000000000BRCSNAACNOR6243
012013082978CSNAI98     070CSNA        ON        000R$  000000000000600000000000060000000000006000000000000600000000000060000000000000000000000000000001000000000000003800000000000000022800000000000098002013091600000010000000000000BRCSNAACNOR6243
012013082978CSNAJ20     070CSNA        ON        000R$  000000000001500000000000150000000000015000000000001500000000000150000000000000000000000000000003000000000000000300000000000000004500000000000102002013102100000010000000000000BRCSNAACNOR6243
012013082978CSNAJ8      070CSNA        ON        000R$  000000000011200000000001120000000000112000000000011200000000001120000000000000000000000000000001000000000000001100000000000000123200000000000078002013102100000010000000000000BRCSNAACNOR6242
012013082978CSNAJ9      070CSNA  FM    ON        000R$  000000000005700000000000570000000000050000000000005400000000000500000000000000000000000000000039000000000000022100000000000001194900000000000088002013102100000010000000000000BRCSNAACNOR6242
012013082978CSNAJ92     070CSNA  FM    ON        000R$  000000000003700000000000370000000000037000000000003700000000000370000000000000000000000000000001000000000000003500000000000000129500000000000092002013102100000010000000000000BRCSNAACNOR6243
012013082978CSNAK40     070CSNA        ON        000R$  000000000002200000000000220000000000022000000000002200000000000220000000000000000000000000000001000000000000003000000000000000066000000000000104002013111800000010000000000000BRCSNAACNOR6243
012013082978CSNAL10     070CSNA        ON        000R$  000000000003100000000000320000000000030000000000003000000000000320000000000000000000000004500003000000000000005100000000000000153300000000000100002013121600000010000000000000BRCSNAACNOR6243
012013082978CSNAL20     070CSNA        ON        000R$  000000000003100000000000310000000000031000000000003100000000000310000000000000000000000000000001000000000000000100000000000000003100000000000102002013121600000010000000000000BRCSNAACNOR6243
012013082982CSNAN60     080CSNAE       ON        000R$  000000000001300000000000160000000000008000000000001200000000000080000000000000000000000000000005000000000000660400000000000008085200000000000060002014021700000010000000000000BRCSNAACNOR6243
012013082982CSNAN8      080CSNAE       ON        000R$  000000000005600000000000560000000000050000000000005300000000000500000000000000000000000000000005000000000000660400000000000035482400000000000080002014021700000010000000000000BRCSNAACNOR6243
012013082982CSNAU16     080CSNAE       ON        000R$  000000000001900000000000190000000000019000000000001900000000000190000000000000000000000000000001000000000000050000000000000000950000000000000060002014091500000010000000000000BRCSNAACNOR6243
012013082982CSNAU18     080CSNAE       ON        000R$  000000000009900000000000990000000000099000000000009900000000000990000000000000000000000000000001000000000000050000000000000004950000000000000080002014091500000010000000000000BRCSNAACNOR6243
012013082982CSNAU8      080CSNAE       ON        000R$  000000000001200000000000130000000000012000000000001200000000000130000000000000000000000002400002000000000000005100000000000000066200000000000078002013091600000010000000000000BRCSNAACNOR6242
012013082982CSNAU80     080CSNAE FM    ON        000R$  000000000003500000000000410000000000033000000000003800000000000380000000000000000000000000000212000000000000598900000000000023057300000000000086002013091600000010000000000000BRCSNAACNOR6243
012013082982CSNAU84     080CSNAE FM    ON        000R$  000000000002900000000000300000000000026000000000002900000000000300000000000000000000000010000003000000000000005100000000000000150100000000000084002013091600000010000000000000BRCSNAACNOR6243
012013082982CSNAU88     080CSNAE FM    ON        000R$  000000000004500000000000500000000000043000000000004600000000000480000000000000000000000000000031000000000000058500000000000002717000000000000088002013091600000010000000000000BRCSNAACNOR6243
012013082982CSNAU9      080CSNAE FM    ON        000R$  000000000005600000000000640000000000055000000000006000000000000640000000000045000000000006500057000000000000059900000000000003608400000000000090002013091600000010000000000000BRCSNAACNOR6243
012013082982CSNAV6      080CSNAE       ON        000R$  000000000000600000000000060000000000006000000000000600000000000060000000000001000000000001200025000000000000002500000000000000015000000000000058002013102100000010000000000000BRCSNAACNOR6242
012013082982CSNAV7      080CSNAE       ON        000R$  000000000000800000000000080000000000008000000000000800000000000080000000000008000000000003000025000000000000005000000000000000040000000000000068002013102100000010000000000000BRCSNAACNOR6242
012013082982CSNAV8      080CSNAE       ON        000R$  000000000002800000000000280000000000027000000000002700000000000270000000000028000000000003100027000000000000003000000000000000083500000000000078002013102100000010000000000000BRCSNAACNOR6242
012013082982CSNAV9      080CSNAE FM    ON        000R$  000000000007000000000000700000000000070000000000007000000000000700000000000050000000000008300001000000000000002400000000000000168000000000000088002013102100000010000000000000BRCSNAACNOR6242
012013082902CTAX11      010CONTAX      UNT     N2   R$  000000000185000000000018500000000001830000000000183000000000018490000000001832000000000187000032000000000000218300000000000399613900000000000000009999123100000010000000000000BRCTAXCDAM19100
012013082902CTAX3       010CONTAX      ON      N2   R$  000000000037100000000003950000000000371000000000039300000000003950000000000360000000000040500016000000000000003000000000000001180300000000000000009999123100000010000000000000BRCTAXACNOR3113
012013082902CTAX4       010CONTAX      PN      N2   R$  000000000036000000000003600000000000350000000000035400000000003500000000000350000000000035800076000000000000025800000000000009143800000000000000009999123100000010000000000000BRCTAXACNPR0114
012013082996CTAX4F      020CONTAX      PN      N2   R$  000000000033100000000003310000000000331000000000033100000000003310000000000331000000000038100001000000000000000020000000000000006620000000000000009999123100000010000000000000BRCTAXACNPR0114
012013082902CTIP3       010CETIP       ON      NM   R$  000000000233100000000023800000000002320000000000235100000000023600000000002345000000000236004605000000000001044600000000002455871900000000000000009999123100000010000000000000BRCTIPACNOR2119
012013082996CTIP3F      020CETIP       ON      NM   R$  000000000233900000000024320000000002297000000000234300000000023500000000002312000000000241900030000000000000001085000000000002542293000000000000009999123100000010000000000000BRCTIPACNOR2119
012013082978CTIPC24     070CTIP        ON      NM000R$  000000000026600000000002660000000000266000000000026600000000002660000000000000000000000000000002000000000000007500000000000001995000000000000240002014031700000010000000000000BRCTIPACNOR2119
012013082902CTKA4       010KARSTEN     PN           R$  000000000008400000000000880000000000080000000000008300000000000800000000000080000000000008800008000000000000004000000000000000332200000000000000009999123100000010000000000000BRCTKAACNPR7041
012013082902CTSA3       010SANTANENSE  ON           R$  000000000059600000000005960000000000565000000000057000000000005840000000000562000000000058400003000000000000000900000000000000513500000000000000009999123100000010000000000000BRCTSAACNOR3051
012013082912CXCE11B     010FII CX CEDAECI      MB   R$  000000019250100000001925010000000192501000000019250100000001925010000000192500000000019450000002000000000000000010000000000001925010000000000000009999123100000010000000000000BRCXCECTF004137
012013082902CYRE3       010CYRELA REALTON      NM   R$  000000000157100000000015990000000001557000000000158000000000015750000000001575000000000157605213000000000001526400000000002412425400000000000000009999123100000010000000000000BRCYREACNOR7125
012013082996CYRE3F      020CYRELA REALTON      NM   R$  000000000159700000000015990000000001536000000000158200000000015820000000001555000000000158900032000000000000000888000000000001405460000000000000009999123100000010000000000000BRCYREACNOR7125
012013082978CYREI15     070CYRE        ON      NM000R$  000000000009900000000000990000000000099000000000009900000000000990000000000000000000000000000003000000000000002600000000000000257400000000000150002013091600000010000000000000BRCYREACNOR7125
012013082978CYREI16     070CYRE  FM    ON      NM000R$  000000000004000000000000430000000000035000000000004000000000000430000000000000000000000000000004000000000000008400000000000000336300000000000160002013091600000010000000000000BRCYREACNOR7125
012013082978CYREI17     070CYRE  FM    ON      NM000R$  000000000001000000000000100000000000010000000000001000000000000100000000000000000000000000000001000000000000003000000000000000030000000000000170002013091600000010000000000000BRCYREACNOR7125
012013082978CYREI45     070CYRE  FM    ON      NM000R$  000000000007200000000000720000000000068000000000006900000000000680000000000000000000000000000002000000000000000500000000000000034800000000000155002013091600000010000000000000BRCYREACNOR7125
012013082978CYREI46     070CYRE  FM    ON      NM000R$  000000000002600000000000260000000000024000000000002400000000000240000000000000000000000002300003000000000000005100000000000000125600000000000165002013091600000010000000000000BRCYREACNOR7125
012013082978CYREJ16     070CYRE  FM    ON      NM000R$  000000000007700000000000770000000000075000000000007600000000000750000000000000000000000000000002000000000000007000000000000000532000000000000160002013102100000010000000000000BRCYREACNOR7125
012013082982CYREU44     080CYREE       ON      NM000R$  000000000001200000000000120000000000012000000000001200000000000120000000000000000000000000000001000000000000000500000000000000006000000000000145002013091600000010000000000000BRCYREACNOR7125
012013082982CYREU45     080CYREE FM    ON      NM000R$  000000000003200000000000320000000000032000000000003200000000000320000000000000000000000000000001000000000000000500000000000000016000000000000155002013091600000010000000000000BRCYREACNOR7125
012013082982CYREV15     080CYREE FM    ON      NM000R$  000000000004600000000000460000000000046000000000004600000000000460000000000000000000000000000001000000000000001000000000000000046000000000000150002013102100000010000000000000BRCYREACNOR7125
012013082982CYREV45     080CYREE FM    ON      NM000R$  000000000006200000000000620000000000062000000000006200000000000620000000000000000000000000000001000000000000001000000000000000062000000000000155002013102100000010000000000000BRCYREACNOR7125
012013082902CZLT11      010COSAN LTD   DR3          R$  000000000317500000000032070000000003122000000000316500000000031220000000003122000000000315001009000000000000718600000000002274810300000000000000009999123100000010000000000000BRCZLTBDR009105
012013082996CZLT11F     020COSAN LTD   DR3          R$  000000000314900000000031490000000003149000000000314900000000031490000000003100000000000319500001000000000000000009000000000000028341000000000000009999123100000010000000000000BRCZLTBDR009105
012013082902DAGB11      010DUFRY AG    DR3          R$  000000003100000000000323000000000031000000000003132400000000317000000000031250000000003170000847000000000000028489000000000892398285000000000000009999123100000010000000000000BRDAGBBDR008100
012013082902DASA3       010DASA        ON      NM   R$  000000000106900000000011050000000001069000000000109000000000010960000000001096000000000110003683000000000001242800000000001355682200000000000000009999123100000010000000000000BRDASAACNOR1108
012013082996DASA3F      020DASA        ON      NM   R$  000000000106600000000011010000000001066000000000108700000000011010000000001095000000000115000019000000000000000554000000000000602656000000000000009999123100000010000000000000BRDASAACNOR1108
012013082902DAYC4       010DAYCOVAL    PN      N2   R$  000000000078000000000007910000000000753000000000077100000000007580000000000757000000000075800308000000000000109900000000000084838000000000000000009999123100000010000000000000BRDAYCACNPR2128
012013082902DIRR3       010DIRECIONAL  ON      NM   R$  000000000118000000000011960000000001161000000000117800000000011800000000001180000000000118102301000000000000459600000000000541744500000000000000009999123100000010000000000000BRDIRRACNOR0104
012013082996DIRR3F      020DIRECIONAL  ON      NM   R$  000000000117000000000011840000000001160000000000117200000000011600000000001150000000000121700020000000000000000581000000000000681272000000000000009999123100000010000000000000BRDIRRACNOR0104
012013082962DIRR3T      030DIRECIONAL  ON      NM032R$  000000000117600000000011770000000001176000000000117600000000011770000000000000000000000000000002000000000000001000000000000001176293000000000000009999123100000010000000000000BRDIRRACNOR0104
012013082914DIVO11      010IT NOW IDIV CI           R$  000000000316700000000031940000000003164000000000317700000000031650000000003162000000000316600070000000000000002800000000000008896910000000000000009999123100000010000000000000BRDIVOCTF002100
012013082996DIVO11F     020IT NOW IDIV CI           R$  000000000316300000000031630000000003163000000000316300000000031630000000003163000000000328200001000000000000000002000000000000006326000000000000009999123100000010000000000000BRDIVOCTF002100
012013082902DOHL4       010DOHLER      PN           R$  000000000042400000000004240000000000424000000000042400000000004240000000000411000000000042000001000000000000000100000000000000042400000000000000009999123100000010000000000000BRDOHLACNPR9054
012013082912DRIT11B     010FII MTGESTAOCI      MB   R$  000000001155000000000115500000000011550000000001155000000000115500000000011205000000001170000001000000000000000020000000000000231000000000000000009999123100000010000000000000BRDRITCTF009122
012013082902DTEX3       010DURATEX     ON      NM   R$  000000000116500000000012040000000001160000000000118400000000011800000000001180000000000118203012000000000000958100000000001134923200000000000000009999123100000010000000000000BRDTEXACNOR3115
012013082996DTEX3F      020DURATEX     ON      NM   R$  000000000117000000000012000000000001157000000000118500000000011680000000001168000000000119900052000000000000001830000000000002168869000000000000009999123100000010000000000000BRDTEXACNOR3115
012013082902EALT4       010ACO ALTONA  PN           R$  000000000250000000000026000000000002500000000000251500000000026000000000002481000000000260000007000000000000008600000000000021636900000000000000009999123100000010000000000000BREALTACNPR1123
012013082996EALT4F      020ACO ALTONA  PN           R$  000000000255000000000025500000000002550000000000255000000000025500000000002200000000000260000001000000000000000017000000000000043350000000000000009999123100000010000000000000BREALTACNPR1123
012013082996EBTP3F      020EMBRATEL PARON *         R$  000000000090000000000009000000000000900000000000090000000000009000000000000860000000000092400004000000000000053942000000000000048547000000000000009999123100010000000000000000BREBTPACNOR3115
012013082996EBTP4F      020EMBRATEL PARPN *         R$  000000000091200000000009120000000000900000000000090400000000009000000000000904000000000100000005000000000000035999000000000000032542000000000000009999123100010000000000000000BREBTPACNPR0120
012013082914ECOO11      010ISHARES ECOOCI           R$  000000000510300000000051920000000005103000000000516100000000051490000000005100000000000529500255000000000000027240000000000140602630000000000000009999123100000010000000000000BRECOOCTF008100
012013082902ECOR3       010ECORODOVIAS ON      NM   R$  000000000151500000000015330000000001508000000000152100000000015250000000001525000000000152703219000000000000951200000000001447529300000000000000009999123100000010000000000000BRECORACNOR8106
012013082996ECOR3F      020ECORODOVIAS ON      NM   R$  000000000152200000000015300000000001476000000000151600000000015230000000001481000000000153000016000000000000000482000000000000730923000000000000009999123100000010000000000000BRECORACNOR8106
012013082902ECPR4       010ENCORPAR    PN           R$  000000000498000000000049800000000004980000000000498000000000049800000000004200000000000498000002000000000000000300000000000001494000000000000000009999123100000010000000000000BRECPRACNPR2107
012013082912EDGA11B     010FII GALERIA CI  ER  MB   R$  000000000795000000000079500000000007702000000000786900000000079500000000007800000000000795000021000000000000001224000000000009631695000000000000009999123100000010000000000000BREDGACTF001111
012013082902EEEL4       010CEEE-GT     PN      N1   R$  000000000016000000000001600000000000155000000000015900000000001550000000000152000000000016500005000000000000005200000000000000831000000000000000009999123100000010000000000000BREEELACNPR5102
012013082996EEEL4F      020CEEE-GT     PN      N1   R$  000000000020000000000002000000000000200000000000020000000000002000000000000160000000000020000001000000000000000012000000000000002400000000000000009999123100000010000000000000BREEELACNPR5102
012013082902ELET3       010ELETROBRAS  ON      N1   R$  000000000049300000000005060000000000493000000000049900000000004950000000000495000000000049704297000000000002598900000000001297136800000000000000009999123100000010000000000000BRELETACNOR6151
012013082996ELET3F      020ELETROBRAS  ON      N1   R$  000000000048800000000005070000000000482000000000049900000000004820000000000482000000000049900021000000000000000586000000000000292312000000000000009999123100000010000000000000BRELETACNOR6151
012013082962ELET3S      030ELETROBRAS  ON      N1090R$  000000000051000000000005110000000000510000000000051000000000005110000000000000000000000000000002000000000000003100000000000001582241000000000000009999123100000010000000000000BRELETACNOR6151
012013082902ELET6       010ELETROBRAS  PNB     N1   R$  000000000091100000000009300000000000908000000000091900000000009130000000000913000000000091504477000000000002231600000000002050757100000000000000009999123100000010000000000000BRELETACNPB7066
012013082996ELET6F      020ELETROBRAS  PNB     N1   R$  000000000091200000000009290000000000908000000000091900000000009110000000000911000000000092000026000000000000000877000000000000806572000000000000009999123100000010000000000000BRELETACNPB7066
012013082902ELPL4       010ELETROPAULO PN      N2   R$  000000000074700000000007650000000000737000000000075100000000007390000000000738000000000073902760000000000001492900000000001120956800000000000000009999123100000010000000000000BRELPLACNPR6118
012013082996ELPL4F      020ELETROPAULO PN      N2   R$  000000000075800000000007900000000000739000000000075300000000007500000000000738000000000075000073000000000000001795000000000001352895000000000000009999123100000010000000000000BRELPLACNPR6118
012013082962ELPL4T      030ELETROPAULO PN      N2060R$  000000000077200000000007730000000000772000000000077200000000007730000000000000000000000000000002000000000000000500000000000000386334000000000000009999123100000010000000000000BRELPLACNPR6118
012013082978ELPLI74     070ELPL        PN      N2000R$  000000000002600000000000260000000000026000000000002600000000000260000000000000000000000000000003000000000000002100000000000000054600000000000074002013091600000010000000000000BRELPLACNPR6118
012013082978ELPLJ76     070ELPL        PN      N2000R$  000000000002200000000000220000000000021000000000002100000000000210000000000000000000000000000002000000000000001000000000000000021100000000000076002013102100000010000000000000BRELPLACNPR6118
012013082978ELPLJ8      070ELPL        PN      N2000R$  000000000005000000000000500000000000040000000000004300000000000400000000000020000000000003000010000000000000017000000000000000742500000000000080002013102100000010000000000000BRELPLACNPR6118
012013082902EMAE4       010EMAE        PN           R$  000000000064500000000006450000000000645000000000064500000000006450000000000558000000000064700001000000000000000100000000000000064500000000000000009999123100000010000000000000BREMAEACNPR1106
012013082902EMBR3       010EMBRAER     ON      NM   R$  000000000190500000000019350000000001890000000000191700000000019280000000001922000000000192806029000000000001888000000000003619540400000000000000009999123100000010000000000000BREMBRACNOR4164
012013082996EMBR3F      020EMBRAER     ON      NM   R$  000000000191100000000019570000000001877000000000191100000000018770000000001879000000000194900032000000000000000899000000000001715817000000000000009999123100000010000000000000BREMBRACNOR4164
012013082982EMBRU47     080EMBRE       ON      NM000R$  000000000000800000000000080000000000008000000000000800000000000080000000000000000000000020000001000000000000090200000000000000721600000000000175002013091600000010000000000000BREMBRACNOR4164
012013082982EMBRU49     080EMBRE       ON      NM000R$  000000000006800000000000680000000000068000000000006800000000000680000000000000000000000000000001000000000000090200000000000006133600000000000195002013091600000010000000000000BREMBRACNOR4164
012013082902ENBR3       010ENERGIAS BR ON      NM   R$  000000000107100000000011030000000001060000000000107700000000010700000000001068000000000107306305000000000001975000000000002128070700000000000000009999123100000010000000000000BRENBRACNOR2115
012013082996ENBR3F      020ENERGIAS BR ON      NM   R$  000000000108700000000010960000000001061000000000107600000000010800000000001061000000000114500024000000000000000545000000000000586874000000000000009999123100000010000000000000BRENBRACNOR2115
012013082902ENGI3       010ENERGISA    ON           R$  000000000024500000000002450000000000245000000000024500000000002450000000000225000000000024500001000000000000000100000000000000024500000000000000009999123100000010000000000000BRENGIACNOR0120
012013082902ENGI4       010ENERGISA    PN           R$  000000000023000000000002300000000000230000000000023000000000002300000000000232000000000024500001000000000000005300000000000001219000000000000000009999123100000010000000000000BRENGIACNPR7116
012013082902ENMA3B      010CEMAR       ON      MB   R$  000000000127000000000012900000000001270000000000127600000000012900000000001211000000000129000005000000000000001300000000000001658800000000000000009999123100000010000000000000BRENMAACNOR5110
012013082902EQTL3       010EQUATORIAL  ON      NM   R$  000000000195200000000020190000000001952000000000200200000000019930000000001988000000000200302735000000000000864600000000001731578300000000000000009999123100000010000000000000BREQTLACNOR0114
012013082996EQTL3F      020EQUATORIAL  ON      NM   R$  000000000199900000000020170000000001981000000000200400000000020000000000001981000000000201400032000000000000001012000000000002028804000000000000009999123100000010000000000000BREQTLACNOR0114
