00COTAHIST.2013BOVESPA 20130808                                                                                                                                                                                                                      
012013080802ABCB4       010ABC BRASIL  PN      N2   R$  000000000122700000000012390000000001216000000000122600000000012230000000001223000000000123000306000000000000166500000000000204285500000000000000009999123100000010000000000000BRABCBACNPR4120
012013080812ABCP11      010FII ABC IMOBCI  ER       R$  000000000093900000000009390000000000900000000000093200000000009000000000000901000000000094900007000000000000002156000000000002011146000000000000009999123100000010000000000000BRABCPCTF000214
012013080802ABRE11      010ABRIL EDUCA UNT     N2   R$  000000000337300000000033950000000003283000000000331100000000032980000000003298000000000330001108000000000000320500000000001061423400000000000000009999123100000010000000000000BRABRECDAM15102
012013080896ABRE11F     020ABRIL EDUCA UNT     N2   R$  000000000336700000000033700000000003295000000000332800000000033060000000003283000000000332000018000000000000000499000000000001661064000000000000009999123100000010000000000000BRABRECDAM15102
012013080862ABRE11T     030ABRIL EDUCA UNT     N2090R$  000000000336400000000033710000000003364000000000336800000000033710000000000000000000000000000006000000000000005000000000000016844750000000000000009999123100000010000000000000BRABRECDAM15102
012013080802AEDU3       010ANHANGUERA  ON      NM   R$  000000000133600000000013930000000001330000000000136600000000013880000000001385000000000138808460000000000005355800000000007318028300000000000000009999123100000010000000000000BRAEDUACNOR9107
012013080896AEDU3F      020ANHANGUERA  ON      NM   R$  000000000135400000000013900000000001302000000000136700000000013610000000001362000000000139500029000000000000001056000000000001444844000000000000009999123100000010000000000000BRAEDUACNOR9107
012013080812AEFI11      010FII AESAPAR CI  ER       R$  000000001250000000000125200000000012450000000001250000000000125200000000012500000000001252000017000000000000000451000000000005637582000000000000009999123100000010000000000000BRAEFICTF002120
012013080802AELP3       010AES ELPA    ON           R$  000000000070000000000008140000000000700000000000075100000000007790000000000702000000000075000042000000000000005000000000000003758000000000000000009999123100000010000000000000BRAELPACNOR2119
012013080896AELP3F      020AES ELPA    ON           R$  000000000075000000000007500000000000732000000000074000000000007320000000000679000000000077800002000000000000000062000000000000045924000000000000009999123100000010000000000000BRAELPACNOR2119
012013080812AGCX11      010FII AG CAIXACI  ER       R$  000000009999900000001000010000000099999000000010000000000001000000000000099501000000010000000005000000000000000022000000000002200003000000000000009999123100000010000000000000BRAGCXCTF003109
012013080802AGRO3       010BRASILAGRO  ON      NM   R$  000000000106800000000010760000000001052000000000107300000000010750000000001070000000000107500017000000000000012500000000000013419700000000000000009999123100000010000000000000BRAGROACNOR7102
012013080802ALLL3       010ALL AMER LATON      NM   R$  000000000085700000000008850000000000847000000000087300000000008790000000000879000000000088008890000000000003121900000000002727153000000000000000009999123100000010000000000000BRALLLACNOR6118
012013080896ALLL3F      020ALL AMER LATON      NM   R$  000000000085100000000008940000000000849000000000087000000000008830000000000850000000000089400055000000000000001588000000000001383313000000000000009999123100000010000000000000BRALLLACNOR6118
012013080862ALLL3T      030ALL AMER LATON      NM032R$  000000000086000000000008610000000000860000000000086000000000008610000000000000000000000000000002000000000000000500000000000000430288000000000000009999123100000010000000000000BRALLLACNOR6118
012013080862ALLL3T      030ALL AMER LATON      NM090R$  000000000087100000000008780000000000871000000000087600000000008780000000000000000000000000000008000000000000030000000000000026285910000000000000009999123100000010000000000000BRALLLACNOR6118
012013080812ALMI11B     010FII TORRE ALCI  ER  MB   R$  000000031070100000003150000000000310700000000031137900000003150000000000311000000000031730000004000000000000000038000000000011832430000000000000009999123100000010000000000000BRALMICTF003204
012013080802ALPA3       010ALPARGATAS  ON      N1   R$  000000000112000000000011800000000001120000000000114300000000011800000000001132000000000118100004000000000000002000000000000002286400000000000000009999123100000010000000000000BRALPAACNOR0202
012013080896ALPA3F      020ALPARGATAS  ON      N1   R$  000000000113000000000011300000000001130000000000113000000000011300000000001130000000000120000001000000000000000011000000000000012430000000000000009999123100000010000000000000BRALPAACNOR0202
012013080802ALPA4       010ALPARGATAS  PN      N1   R$  000000000136100000000013900000000001345000000000136700000000013800000000001374000000000138000873000000000000258900000000000354033900000000000000009999123100000010000000000000BRALPAACNPR7202
012013080896ALPA4F      020ALPARGATAS  PN      N1   R$  000000000136400000000013700000000001364000000000136700000000013700000000001341000000000136000002000000000000000050000000000000068350000000000000009999123100000010000000000000BRALPAACNPR7202
012013080802ALSC3       010ALIANSCE    ON      NM   R$  000000000201700000000020260000000001984000000000200000000000020110000000002011000000000201302120000000000000429300000000000858802900000000000000009999123100000010000000000000BRALSCACNOR0104
012013080896ALSC3F      020ALIANSCE    ON      NM   R$  000000000200200000000020040000000002001000000000200200000000020010000000001808000000000227700005000000000000000127000000000000254331000000000000009999123100000010000000000000BRALSCACNOR0104
012013080802ALUP11      010ALUPAR      UNT     N2   R$  000000000171300000000017130000000001677000000000169700000000017050000000001699000000000170500353000000000000089700000000000152228200000000000000009999123100000010000000000000BRALUPCDAM15100
012013080896ALUP11F     020ALUPAR      UNT     N2   R$  000000000168000000000017880000000001680000000000170900000000016880000000001680000000000170000010000000000000000291000000000000497323000000000000009999123100000010000000000000BRALUPCDAM15100
012013080862ALUP11T     030ALUPAR      UNT     N2032R$  000000000172100000000017220000000001721000000000172100000000017220000000000000000000000000000002000000000000003000000000000005164098000000000000009999123100000010000000000000BRALUPCDAM15100
012013080802AMAR3       010LOJAS MARISAON      NM   R$  000000000206000000000021110000000002026000000000206400000000020630000000002055000000000206301378000000000000364800000000000753210100000000000000009999123100000010000000000000BRAMARACNOR4109
012013080896AMAR3F      020LOJAS MARISAON      NM   R$  000000000207100000000021000000000002007000000000205200000000020840000000002005000000000208500011000000000000000336000000000000689764000000000000009999123100000010000000000000BRAMARACNOR4109
012013080862AMAR3T      030LOJAS MARISAON      NM032R$  000000000206900000000020700000000002069000000000206900000000020700000000000000000000000000000004000000000000010000000000000020693736000000000000009999123100000010000000000000BRAMARACNOR4109
012013080802AMBV3       010AMBEV       ON           R$  000000000857100000000086020000000008474000000000855200000000086000000000008593000000000861200990000000000000354000000000003027533400000000000000009999123100000010000000000000BRAMBVACNOR4153
012013080896AMBV3F      020AMBEV       ON           R$  000000000858100000000086890000000008451000000000856500000000085900000000008502000000000858900056000000000000001300000000000011137792000000000000009999123100000010000000000000BRAMBVACNOR4153
012013080802AMBV4       010AMBEV       PN           R$  000000000860000000000086110000000008475000000000856400000000086000000000008600000000000860708688000000000001954900000000016743232900000000000000009999123100000010000000000000BRAMBVACNPR1153
012013080896AMBV4F      020AMBEV       PN           R$  000000000854700000000086100000000008495000000000857000000000086100000000008540000000000861000134000000000000003148000000000026979166000000000000009999123100000010000000000000BRAMBVACNPR1153
012013080862AMBV4T      030AMBEV       PN        032R$  000000000864200000000086610000000008642000000000865200000000086600000000000000000000000000000008000000000000003500000000000030282907000000000000009999123100000010000000000000BRAMBVACNPR1153
012013080878AMBVH86     070AMBV        PN        000R$  000000000012900000000001290000000000129000000000012900000000001290000000000035000000000000000002000000000000001000000000000000129000000000000860002013081900000010000000000000BRAMBVACNPR1153
012013080878AMBVH88     070AMBV        PN        000R$  000000000002200000000000220000000000022000000000002200000000000220000000000000000000000000000001000000000000000200000000000000004400000000000880002013081900000010000000000000BRAMBVACNPR1153
012013080878AMBVI87     070AMBV        PN        000R$  000000000010500000000001050000000000105000000000010500000000001050000000000000000000000000000001000000000000000100000000000000010500000000000870002013091600000010000000000000BRAMBVACNPR1153
012013080878AMBVI88     070AMBV        PN        000R$  000000000007100000000001210000000000071000000000011900000000001200000000000000000000000000000003000000000000017500000000000002095200000000000880002013091600000010000000000000BRAMBVACNPR1153
012013080878AMBVI90     070AMBV        PN        000R$  000000000009000000000000900000000000090000000000009000000000000900000000000090000000000000000003000000000000000300000000000000027000000000000900002013091600000010000000000000BRAMBVACNPR1153
012013080802ARMT11B     010ARCELOR     DRN     MB   R$  000000000147300000000014730000000001473000000000147300000000014730000000001460000000000149000001000000000000001100000000000001620300000000000000009999123100000010000000000000BRARMTBDR008111
012013080802ARTR3       010ARTERIS     ON      NM   R$  000000000225600000000022780000000002252000000000226000000000022550000000002250000000000225502448000000000002600900000000005880280300000000000000009999123100000010000000000000BRARTRACNOR3101
012013080896ARTR3F      020ARTERIS     ON      NM   R$  000000000226000000000022790000000002235000000000225800000000022600000000002234000000000225900038000000000000001059000000000002391938000000000000009999123100000010000000000000BRARTRACNOR3101
012013080802ARZZ3       010AREZZO CO   ON  ED  NM   R$  000000000363800000000037790000000003580000000000367200000000037400000000003740000000000377401349000000000000893100000000003280046900000000000000009999123100000010000000000000BRARZZACNOR3109
012013080896ARZZ3F      020AREZZO CO   ON  ED  NM   R$  000000000366900000000037740000000003647000000000371000000000037100000000003592000000000377400014000000000000000472000000000001751541000000000000009999123100000010000000000000BRARZZACNOR3109
012013080802AUTM3       010AUTOMETAL   ON      NM   R$  000000000183300000000018970000000001824000000000187100000000018750000000001875000000000187900523000000000000113400000000000212206000000000000000009999123100000010000000000000BRAUTMACNOR8109
012013080896AUTM3F      020AUTOMETAL   ON      NM   R$  000000000187000000000018760000000001870000000000187100000000018760000000001710000000000190000003000000000000000100000000000000187120000000000000009999123100000010000000000000BRAUTMACNOR8109
012013080802BAHI3       010BAHEMA      ON           R$  000000000050800000000005080000000000489000000000049000000000004900000000000483000000000049000011000000000000003100000000000001521100000000000000009999123100000010000000000000BRBAHIACNOR1066
012013080802BAUH4       010EXCELSIOR   PN           R$  000000000090300000000009480000000000840000000000086700000000009480000000000870000000000093900008000000000000005100000000000004422400000000000000009999123100000010000000000000BRBAUHACNPR3108
012013080802BAZA3       010AMAZONIA    ON           R$  000000000003300000000000340000000000033000000000003300000000000340000000000032000000000003400003000000000000006000000000000000199000000000000000009999123100000010000000000000BRBAZAACNOR0163
012013080802BBAS3       010BRASIL      ON      NM   R$  000000000215000000000022290000000002145000000000219500000000022110000000002211000000000221217411000000000006509300000000014288203500000000000000009999123100000010000000000000BRBBASACNOR3237
012013080896BBAS3F      020BRASIL      ON      NM   R$  000000000214500000000022280000000002145000000000218700000000022190000000002200000000000221900248000000000000007000000000000015315983000000000000009999123100000010000000000000BRBBASACNOR3237
012013080862BBAS3T      030BRASIL      ON      NM018R$  000000000216200000000021630000000002162000000000216200000000021630000000000000000000000000000002000000000000001000000000000002162473000000000000009999123100000010000000000000BRBBASACNOR3237
012013080862BBAS3T      030BRASIL      ON      NM030R$  000000000217800000000021790000000002178000000000217800000000021790000000000000000000000000000002000000000000002000000000000004357430000000000000009999123100000010000000000000BRBBASACNOR3237
012013080862BBAS3T      030BRASIL      ON      NM032R$  000000000218000000000021810000000002180000000000218000000000021810000000000000000000000000000002000000000000001500000000000003270768000000000000009999123100000010000000000000BRBBASACNOR3237
012013080862BBAS3T      030BRASIL      ON      NM039R$  000000000220200000000022030000000002202000000000220200000000022030000000000000000000000000000002000000000000002000000000000004404748000000000000009999123100000010000000000000BRBBASACNOR3237
012013080862BBAS3T      030BRASIL      ON      NM046R$  000000000218700000000021880000000002187000000000218700000000021880000000000000000000000000000002000000000000000500000000000001093829000000000000009999123100000010000000000000BRBBASACNOR3237
012013080862BBAS3T      030BRASIL      ON      NM060R$  000000000218200000000021830000000002182000000000218200000000021830000000000000000000000000000002000000000000001000000000000002182800000000000000009999123100000010000000000000BRBBASACNOR3237
012013080862BBAS3T      030BRASIL      ON      NM180R$  000000000227200000000022730000000002272000000000227200000000022730000000000000000000000000000002000000000000001000000000000002272700000000000000009999123100000010000000000000BRBBASACNOR3237
012013080862BBAS3T      030BRASIL      ON      NM361R$  000000000240400000000024050000000002404000000000240400000000024050000000000000000000000000000002000000000000002000000000000004809864000000000000009999123100000010000000000000BRBBASACNOR3237
012013080878BBASH20     070BBAS        ON      NM000R$  000000000017500000000002230000000000175000000000019100000000002230000000000190000000000024100004000000000000003600000000000000691000000000000200002013081900000010000000000000BRBBASACNOR3237
012013080878BBASH21     070BBAS  FM    ON      NM000R$  000000000011400000000001610000000000096000000000012400000000001520000000000114000000000000000151000000000000227800000000000028449800000000000207602013081900000010000000000000BRBBASACNOR3236
012013080878BBASH22     070BBAS  FM    ON      NM000R$  000000000004400000000000790000000000036000000000005400000000000790000000000055000000000007200232000000000000401700000000000021749900000000000217602013081900000010000000000000BRBBASACNOR3236
012013080878BBASH23     070BBAS  FM    ON      NM000R$  000000000001300000000000220000000000012000000000001600000000000190000000000016000000000002000102000000000000293500000000000004818700000000000227602013081900000010000000000000BRBBASACNOR3236
012013080878BBASH24     070BBAS  FM    ON      NM000R$  000000000001000000000000130000000000008000000000000900000000000110000000000010000000000001100058000000000000184800000000000001688300000000000231702013081900000010000000000000BRBBASACNOR3233
012013080878BBASH25     070BBAS  FM    ON      NM000R$  000000000000500000000000050000000000002000000000000300000000000030000000000003000000000001000043000000000000078500000000000000307300000000000241702013081900000010000000000000BRBBASACNOR3233
012013080878BBASI14     070BBAS        ON      NM000R$  000000000077500000000008040000000000775000000000077700000000008040000000000000000000000000000007000000000000025200000000000019590900000000000140002013091600000010000000000000BRBBASACNOR3237
012013080878BBASI20     070BBAS        ON      NM000R$  000000000019800000000001990000000000198000000000019800000000001990000000000110000000000000000002000000000000002500000000000000495400000000000200002013091600000010000000000000BRBBASACNOR3237
012013080878BBASI21     070BBAS  FM    ON      NM000R$  000000000013600000000001740000000000125000000000014500000000001660000000000000000000000000000081000000000000084300000000000012284500000000000210002013091600000010000000000000BRBBASACNOR3237
012013080878BBASI22     070BBAS  FM    ON      NM000R$  000000000009100000000001200000000000078000000000009800000000001140000000000065000000000015800058000000000000096100000000000009481900000000000217602013091600000010000000000000BRBBASACNOR3236
012013080878BBASI23     070BBAS  FM    ON      NM000R$  000000000004800000000000680000000000040000000000005200000000000620000000000016000000000006800038000000000000065500000000000003412000000000000227602013091600000010000000000000BRBBASACNOR3236
012013080878BBASI24     070BBAS  FM    ON      NM000R$  000000000002000000000000330000000000019000000000002400000000000280000000000029000000000003900040000000000000065100000000000001596800000000000237602013091600000010000000000000BRBBASACNOR3236
012013080878BBASI25     070BBAS  FM    ON      NM000R$  000000000001300000000000150000000000013000000000001400000000000150000000000008000000000001500004000000000000005100000000000000072500000000000246602013091600000010000000000000BRBBASACNOR3235
012013080878BBASI52     070BBAS        ON      NM000R$  000000000005700000000000600000000000052000000000005500000000000600000000000000000000000000000009000000000000032000000000000001788000000000000225002013091600000010000000000000BRBBASACNOR3237
012013080878BBASI61     070BBASE       ON      NM000R$  000000000006800000000000750000000000060000000000006500000000000750000000000000000000000000000020000000000000062700000000000004135100000000000222502013091600000010000000000000BRBBASACNOR3237
012013080878BBASJ21     070BBAS        ON      NM000R$  000000000016900000000002100000000000169000000000017300000000002100000000000000000000000000000003000000000000006600000000000001146000000000000210002013102100000010000000000000BRBBASACNOR3237
012013080878BBASJ22     070BBAS        ON      NM000R$  000000000011500000000001370000000000110000000000011500000000001370000000000000000000000000000011000000000000022000000000000002543200000000000220002013102100000010000000000000BRBBASACNOR3237
012013080878BBASJ23     070BBAS        ON      NM000R$  000000000008100000000000900000000000081000000000008100000000000900000000000000000000000000000002000000000000002600000000000000212400000000000226602013102100000010000000000000BRBBASACNOR3235
012013080878BBASJ24     070BBAS        ON      NM000R$  000000000004700000000000630000000000047000000000005100000000000630000000000017000000000000000018000000000000032800000000000001673700000000000237602013102100000010000000000000BRBBASACNOR3236
012013080878BBASJ25     070BBAS        ON      NM000R$  000000000002200000000000300000000000022000000000002600000000000290000000000017000000000000000010000000000000017400000000000000458800000000000250002013102100000010000000000000BRBBASACNOR3237
012013080878BBASJ26     070BBAS        ON      NM000R$  000000000001900000000000190000000000019000000000001900000000000190000000000013000000000002200001000000000000004000000000000000076000000000000256602013102100000010000000000000BRBBASACNOR3235
012013080878BBASJ27     070BBAS        ON      NM000R$  000000000001100000000000110000000000011000000000001100000000000110000000000011000000000003800001000000000000002000000000000000022000000000000266602013102100000010000000000000BRBBASACNOR3235
012013080878BBASJ53     070BBAS        ON      NM000R$  000000000006300000000000730000000000063000000000006700000000000730000000000000000000000000000006000000000000018000000000000001220000000000000231602013102100000010000000000000BRBBASACNOR3235
012013080878BBASK22     070BBAS        ON      NM000R$  000000000014600000000001460000000000146000000000014600000000001460000000000000000000000000000001000000000000000700000000000000102200000000000220002013111800000010000000000000BRBBASACNOR3237
012013080878BBASK25     070BBAS        ON      NM000R$  000000000004700000000000470000000000047000000000004700000000000470000000000000000000000000000001000000000000001100000000000000051700000000000247602013111800000010000000000000BRBBASACNOR3236
012013080882BBASM23     080BBASE       ON      NM000R$  000000000017900000000001790000000000179000000000017900000000001790000000000000000000000000000001000000000000001200000000000000214800000000000230002014012000000010000000000000BRBBASACNOR3237
012013080882BBASM24     080BBASE       ON      NM000R$  000000000024400000000002440000000000244000000000024400000000002440000000000000000000000000000001000000000000001200000000000000292800000000000240002014012000000010000000000000BRBBASACNOR3237
012013080882BBASN23     080BBASE       ON      NM000R$  000000000019200000000001920000000000192000000000019200000000001920000000000000000000000000000001000000000000001200000000000000230400000000000230002014021700000010000000000000BRBBASACNOR3237
012013080882BBAST20     080BBASE FM    ON      NM000R$  000000000000700000000000070000000000007000000000000700000000000070000000000002000000000000000001000000000000000500000000000000003500000000000200002013081900000010000000000000BRBBASACNOR3237
012013080882BBAST21     080BBASE FM    ON      NM000R$  000000000001700000000000190000000000010000000000001500000000000100000000000001000000000004000013000000000000012800000000000000193100000000000207602013081900000010000000000000BRBBASACNOR3236
012013080882BBAST22     080BBASE FM    ON      NM000R$  000000000004500000000000580000000000023000000000004100000000000240000000000024000000000010400059000000000000103500000000000004252600000000000217602013081900000010000000000000BRBBASACNOR3236
012013080882BBAST23     080BBASE FM    ON      NM000R$  000000000011800000000001350000000000069000000000010500000000000780000000000000000000000000000071000000000000130500000000000013740900000000000227602013081900000010000000000000BRBBASACNOR3236
012013080882BBAST24     080BBASE       ON      NM000R$  000000000014200000000001420000000000142000000000014200000000001420000000000026000000000000000001000000000000001000000000000000142000000000000231702013081900000010000000000000BRBBASACNOR3233
012013080882BBASU20     080BBASE FM    ON      NM000R$  000000000002600000000000260000000000023000000000002500000000000230000000000008000000000000000002000000000000007000000000000000176000000000000200002013091600000010000000000000BRBBASACNOR3237
012013080882BBASU21     080BBASE FM    ON      NM000R$  000000000005600000000000560000000000044000000000004700000000000440000000000000000000000007000015000000000000031700000000000001513300000000000210002013091600000010000000000000BRBBASACNOR3237
012013080882BBASU22     080BBASE FM    ON      NM000R$  000000000008700000000000880000000000056000000000007600000000000560000000000054000000000006800015000000000000030300000000000002321600000000000217602013091600000010000000000000BRBBASACNOR3236
012013080882BBASU23     080BBASE FM    ON      NM000R$  000000000013900000000001510000000000104000000000012900000000001050000000000000000000000000000038000000000000063000000000000008167500000000000227602013091600000010000000000000BRBBASACNOR3236
012013080882BBASU51     080BBASE       ON      NM000R$  000000000003500000000000350000000000034000000000003400000000000340000000000000000000000000000004000000000000012000000000000000416000000000000205002013091600000010000000000000BRBBASACNOR3237
012013080882BBASV18     080BBASE       ON      NM000R$  000000000001500000000000150000000000015000000000001500000000000150000000000000000000000000000001000000000000004000000000000000060000000000000180002013102100000010000000000000BRBBASACNOR3237
012013080882BBASV19     080BBASE       ON      NM000R$  000000000002500000000000250000000000025000000000002500000000000250000000000000000000000000000001000000000000004000000000000000100000000000000190002013102100000010000000000000BRBBASACNOR3237
012013080882BBASV20     080BBASE       ON      NM000R$  000000000004800000000000480000000000042000000000004400000000000440000000000000000000000006000010000000000000033500000000000001501500000000000200002013102100000010000000000000BRBBASACNOR3237
012013080882BBASV21     080BBASE       ON      NM000R$  000000000007600000000000760000000000068000000000007000000000000710000000000000000000000000000012000000000000035700000000000002530400000000000210002013102100000010000000000000BRBBASACNOR3237
012013080882BBASV22     080BBASE       ON      NM000R$  000000000011800000000001200000000000106000000000011600000000001100000000000000000000000000000054000000000000037400000000000004345000000000000220002013102100000010000000000000BRBBASACNOR3237
012013080882BBASV23     080BBASE       ON      NM000R$  000000000015500000000001550000000000131000000000014400000000001310000000000000000000000000000009000000000000031500000000000004538500000000000226602013102100000010000000000000BRBBASACNOR3235
012013080882BBASV24     080BBASE       ON      NM000R$  000000000022300000000002230000000000196000000000020800000000001960000000000000000000000000000003000000000000011200000000000002329600000000000237602013102100000010000000000000BRBBASACNOR3236
012013080882BBASV53     080BBASE       ON      NM000R$  000000000018600000000001860000000000159000000000017400000000001590000000000000000000000000000011000000000000036200000000000006310100000000000231602013102100000010000000000000BRBBASACNOR3235
012013080882BBASX22     080BBASE       ON      NM000R$  000000000010400000000001040000000000104000000000010400000000001040000000000000000000000000000001000000000000001200000000000000124800000000000216602013121600000010000000000000BRBBASACNOR3235
012013080882BBASX52     080BBASE       ON      NM000R$  000000000011900000000001190000000000119000000000011900000000001190000000000000000000000000000001000000000000001200000000000000142800000000000219702013121600000010000000000000BRBBASACNOR3233
012013080802BBDC3       010BRADESCO    ON  EJ  N1   R$  000000000296200000000030940000000002962000000000304200000000030590000000003059000000000306004213000000000000960700000000002922631800000000000000009999123100000010000000000000BRBBDCACNOR1605
012013080896BBDC3F      020BRADESCO    ON  EJ  N1   R$  000000000296200000000030990000000002962000000000301600000000030700000000002983000000000308200036000000000000001252000000000003778516000000000000009999123100000010000000000000BRBBDCACNOR1605
012013080802BBDC4       010BRADESCO    PN  EJ  N1   R$  000000000273500000000028100000000002728000000000277600000000028020000000002802000000000280322035000000000009011000000000025015479400000000000000009999123100000010000000000000BRBBDCACNPR8605
012013080896BBDC4F      020BRADESCO    PN  EJ  N1   R$  000000000272100000000028100000000002721000000000277200000000028040000000002795000000000281000250000000000000007411000000000020552782000000000000009999123100000010000000000000BRBBDCACNPR8605
012013080862BBDC4T      030BRADESCO    PN  EJ  N1018R$  000000000278300000000027840000000002783000000000278300000000027840000000000000000000000000000002000000000000001000000000000002783224000000000000009999123100000010000000000000BRBBDCACNPR8605
012013080862BBDC4T      030BRADESCO    PN  EJ  N1032R$  000000000281400000000028150000000002814000000000281400000000028150000000000000000000000000000002000000000000002000000000000005629571000000000000009999123100000010000000000000BRBBDCACNPR8605
012013080862BBDC4T      030BRADESCO    PN  EJ  N1060R$  000000000280500000000028060000000002805000000000280500000000028060000000000000000000000000000002000000000000010000000000000028057330000000000000009999123100000010000000000000BRBBDCACNPR8605
012013080862BBDC4T      030BRADESCO    PN  EJ  N1090R$  000000000279600000000027970000000002796000000000279600000000027970000000000000000000000000000002000000000000003000000000000008388510000000000000009999123100000010000000000000BRBBDCACNPR8605
012013080862BBDC4T      030BRADESCO    PN  EJ  N1180R$  000000000287400000000028750000000002874000000000287400000000028750000000000000000000000000000004000000000000001099000000000003159460000000000000009999123100000010000000000000BRBBDCACNPR8605
012013080878BBDCA34     070BBDC    /EJ PN      N1000R$  000000000003500000000000350000000000035000000000003500000000000350000000000000000000000000000002000000000000001500000000000000052500000000000339802014012000000010000000000000BRBBDCACNPR8604
012013080878BBDCH27     070BBDC    /EJ PN      N1000R$  000000000009100000000001430000000000086000000000011100000000001380000000000082000000000014800158000000000000239100000000000026749400000000000267802013081900000010000000000000BRBBDCACNPR8602
012013080878BBDCH28     070BBDC    /EJ PN      N1000R$  000000000003800000000000650000000000030000000000005000000000000620000000000059000000000006200211000000000000335300000000000016913100000000000277802013081900000010000000000000BRBBDCACNPR8602
012013080878BBDCH29     070BBDC    /EJ PN      N1000R$  000000000001200000000000180000000000009000000000001200000000000170000000000009000000000001900082000000000000226100000000000002785100000000000287802013081900000010000000000000BRBBDCACNPR8602
012013080878BBDCH30     070BBDC    /EJ PN      N1000R$  000000000000500000000000050000000000003000000000000300000000000050000000000004000000000000500025000000000000130200000000000000412500000000000297802013081900000010000000000000BRBBDCACNPR8602
012013080878BBDCH33     070BBDC    /EJ PN      N1000R$  000000000000200000000000020000000000002000000000000200000000000020000000000000000000000000200001000000000000000100000000000000000200000000000327602013081900000010000000000000BRBBDCACNPR8601
012013080878BBDCH34     070BBDC    /EJ PN      N1000R$  000000000000200000000000020000000000001000000000000100000000000010000000000000000000000000000003000000000000011000000000000000015000000000000305302013081900000010000000000000BRBBDCACNPR8595
012013080878BBDCI26     070BBDC    /EJ PN      N1000R$  000000000020600000000002240000000000206000000000021400000000002170000000000206000000000030000045000000000000031900000000000006841200000000000259802013091600000010000000000000BRBBDCACNPR8604
012013080878BBDCI27     070BBDC    /EJ PN      N1000R$  000000000015400000000001910000000000141000000000016400000000001850000000000142000000000000000075000000000000089400000000000014686800000000000267802013091600000010000000000000BRBBDCACNPR8602
012013080878BBDCI28     070BBDC    /EJ PN      N1000R$  000000000009500000000001220000000000081000000000009800000000001220000000000071000000000012900081000000000000111700000000000011016100000000000277802013091600000010000000000000BRBBDCACNPR8602
012013080878BBDCI29     070BBDC    /EJ PN      N1000R$  000000000005000000000000660000000000043000000000005300000000000660000000000041000000000007900044000000000000088800000000000004765700000000000287802013091600000010000000000000BRBBDCACNPR8602
012013080878BBDCI30     070BBDC    /EJ PN      N1000R$  000000000002500000000000330000000000022000000000002600000000000330000000000027000000000003600087000000000000246400000000000006450500000000000297802013091600000010000000000000BRBBDCACNPR8602
012013080878BBDCI31     070BBDC    /EJ PN      N1000R$  000000000011300000000001320000000000113000000000012200000000001320000000000000000000000000000003000000000000008700000000000001063300000000000272902013091600000010000000000000BRBBDCACNPR8590
012013080878BBDCI32     070BBDC    /EJ PN      N1000R$  000000000000500000000000070000000000005000000000000500000000000070000000000007000000000000000004000000000000009200000000000000053400000000000317802013091600000010000000000000BRBBDCACNPR8602
012013080878BBDCI33     070BBDC    /EJ PN      N1000R$  000000000002800000000000280000000000023000000000002500000000000270000000000000000000000000000006000000000000015700000000000000402000000000000297202013091600000010000000000000BRBBDCACNPR8598
012013080878BBDCI75     070BBDCE   /EJ PN      N1000R$  000000000007600000000000880000000000062000000000007300000000000840000000000000000000000000000027000000000000052700000000000003854500000000000282302013091600000010000000000000BRBBDCACNPR8604
012013080878BBDCI81     070BBDC    /EJ PN      N1000R$  000000000001300000000000140000000000012000000000001200000000000120000000000000000000000000000021000000000000023600000000000000284400000000000307802013091600000010000000000000BRBBDCACNPR8602
012013080878BBDCJ1      070BBDC    /EJ PN      N1000R$  000000000002500000000000250000000000025000000000002500000000000250000000000000000000000000000001000000000000004000000000000000100000000000000314602013102100000010000000000000BRBBDCACNPR8603
012013080878BBDCJ2      070BBDC    /EJ PN      N1000R$  000000000001500000000000160000000000015000000000001500000000000160000000000000000000000000000002000000000000004000000000000000062000000000000324602013102100000010000000000000BRBBDCACNPR8603
012013080878BBDCJ25     070BBDC    /EJ PN      N1000R$  000000000034900000000003490000000000349000000000034900000000003490000000000000000000000000000001000000000000004000000000000001396000000000000249602013102100000010000000000000BRBBDCACNPR8603
012013080878BBDCJ26     070BBDC    /EJ PN      N1000R$  000000000027000000000002700000000000270000000000027000000000002700000000000000000000000000000001000000000000004000000000000001080000000000000259802013102100000010000000000000BRBBDCACNPR8604
012013080878BBDCJ27     070BBDC    /EJ PN      N1000R$  000000000019700000000002230000000000197000000000021100000000002230000000000000000000000000000005000000000000014300000000000003026000000000000267802013102100000010000000000000BRBBDCACNPR8602
012013080878BBDCJ29     070BBDC    /EJ PN      N1000R$  000000000008800000000001040000000000088000000000009200000000001040000000000000000000000000000003000000000000008300000000000000771600000000000287802013102100000010000000000000BRBBDCACNPR8602
012013080878BBDCJ30     070BBDC    /EJ PN      N1000R$  000000000005500000000000700000000000055000000000006000000000000700000000000000000000000000000006000000000000010200000000000000613600000000000297802013102100000010000000000000BRBBDCACNPR8602
012013080878BBDCJ31     070BBDC    /EJ PN      N1000R$  000000000003500000000000480000000000034000000000004000000000000480000000000010000000000000000008000000000000017900000000000000721200000000000307802013102100000010000000000000BRBBDCACNPR8602
012013080878BBDCJ32     070BBDC    /EJ PN      N1000R$  000000000002100000000000210000000000021000000000002100000000000210000000000000000000000000000001000000000000004000000000000000084000000000000317802013102100000010000000000000BRBBDCACNPR8602
012013080878BBDCJ33     070BBDC    /EJ PN      N1000R$  000000000001200000000000150000000000012000000000001300000000000150000000000009000000000000000003000000000000007000000000000000093600000000000327802013102100000010000000000000BRBBDCACNPR8602
012013080878BBDCJ34     070BBDC    /EJ PN      N1000R$  000000000000800000000000090000000000008000000000000800000000000090000000000000000000000000000004000000000000014200000000000000119800000000000337402013102100000010000000000000BRBBDCACNPR8600
012013080878BBDCJ35     070BBDC    /EJ PN      N1000R$  000000000000400000000000050000000000004000000000000400000000000050000000000000000000000000000012000000000000031500000000000000149500000000000350002013102100000010000000000000BRBBDCACNPR8605
012013080878BBDCJ36     070BBDC    /EJ PN      N1000R$  000000000000300000000000030000000000003000000000000300000000000030000000000000000000000000000008000000000000020000000000000000060000000000000360002013102100000010000000000000BRBBDCACNPR8605
012013080878BBDCJ4      070BBDC    /EJ PN      N1000R$  000000000000500000000000050000000000005000000000000500000000000050000000000000000000000000000001000000000000004000000000000000020000000000000345002013102100000010000000000000BRBBDCACNPR8605
012013080878BBDCL29     070BBDC    /EJ PN      N1000R$  000000000015100000000001520000000000151000000000015100000000001520000000000000000000000000000002000000000000100000000000000015140000000000000287802013121600000010000000000000BRBBDCACNPR8602
012013080882BBDCT25     080BBDCE   /EJ PN      N1000R$  000000000000100000000000010000000000001000000000000100000000000010000000000001000000000000000002000000000000020300000000000000020300000000000247802013081900000010000000000000BRBBDCACNPR8602
012013080882BBDCT27     080BBDCE   /EJ PN      N1000R$  000000000001800000000000240000000000009000000000001500000000000090000000000000000000000011600059000000000000106000000000000001604300000000000267802013081900000010000000000000BRBBDCACNPR8602
012013080882BBDCT28     080BBDCE   /EJ PN      N1000R$  000000000005400000000000640000000000029000000000004700000000000290000000000000000000000000000071000000000000141400000000000006690900000000000277802013081900000010000000000000BRBBDCACNPR8602
012013080882BBDCT29     080BBDCE   /EJ PN      N1000R$  000000000012400000000001460000000000084000000000011800000000000880000000000000000000000000000169000000000000263400000000000031148800000000000287802013081900000010000000000000BRBBDCACNPR8602
012013080882BBDCU24     080BBDCE   /EJ PN      N1000R$  000000000000800000000000080000000000008000000000000800000000000080000000000000000000000000000001000000000000002000000000000000016000000000000239802013091600000010000000000000BRBBDCACNPR8604
012013080882BBDCU26     080BBDCE   /EJ PN      N1000R$  000000000003100000000000340000000000025000000000002900000000000250000000000025000000000000000018000000000000044000000000000001316000000000000259802013091600000010000000000000BRBBDCACNPR8604
012013080882BBDCU27     080BBDCE   /EJ PN      N1000R$  000000000005700000000000570000000000041000000000004600000000000410000000000000000000000000000038000000000000126800000000000005866600000000000267802013091600000010000000000000BRBBDCACNPR8602
012013080882BBDCU28     080BBDCE   /EJ PN      N1000R$  000000000009400000000001000000000000075000000000008100000000000750000000000000000000000000000027000000000000082800000000000006765700000000000277802013091600000010000000000000BRBBDCACNPR8602
012013080882BBDCU29     080BBDCE   /EJ PN      N1000R$  000000000013900000000001640000000000120000000000014200000000001200000000000000000000000000000049000000000000076400000000000010875700000000000287802013091600000010000000000000BRBBDCACNPR8602
012013080882BBDCU31     080BBDCE   /EJ PN      N1000R$  000000000007200000000000720000000000063000000000006800000000000630000000000000000000000000000004000000000000007000000000000000478000000000000272902013091600000010000000000000BRBBDCACNPR8590
012013080882BBDCU75     080BBDCE   /EJ PN      N1000R$  000000000011800000000001180000000000102000000000010900000000001030000000000000000000000000000005000000000000008200000000000000899400000000000282302013091600000010000000000000BRBBDCACNPR8604
012013080882BBDCV24     080BBDCE   /EJ PN      N1000R$  000000000002500000000000250000000000023000000000002400000000000230000000000000000000000000000002000000000000002400000000000000057600000000000239802013102100000010000000000000BRBBDCACNPR8604
012013080882BBDCV25     080BBDCE   /EJ PN      N1000R$  000000000003600000000000360000000000036000000000003600000000000360000000000000000000000000000001000000000000001200000000000000043200000000000249602013102100000010000000000000BRBBDCACNPR8603
012013080882BBDCV26     080BBDCE   /EJ PN      N1000R$  000000000005800000000000580000000000056000000000005700000000000560000000000000000000000000000002000000000000003200000000000000183200000000000259802013102100000010000000000000BRBBDCACNPR8604
012013080882BBDCV27     080BBDCE   /EJ PN      N1000R$  000000000008500000000000850000000000078000000000008100000000000800000000000000000000000000000005000000000000007100000000000000579100000000000267802013102100000010000000000000BRBBDCACNPR8602
012013080882BBDCV28     080BBDCE   /EJ PN      N1000R$  000000000003300000000000330000000000033000000000003300000000000330000000000000000000000000000001000000000000001200000000000000039600000000000245802013102100000010000000000000BRBBDCACNPR8591
012013080882BBDCV29     080BBDCE   /EJ PN      N1000R$  000000000016900000000001840000000000165000000000017500000000001680000000000000000000000000000012000000000000019900000000000003487400000000000287802013102100000010000000000000BRBBDCACNPR8602
012013080882BBDCV30     080BBDCE   /EJ PN      N1000R$  000000000023200000000002410000000000226000000000023300000000002260000000000000000000000000000003000000000000005000000000000001166000000000000297802013102100000010000000000000BRBBDCACNPR8602
012013080882BBDCV31     080BBDCE   /EJ PN      N1000R$  000000000032000000000003200000000000298000000000030900000000002980000000000000000000000000000002000000000000004000000000000001236000000000000307802013102100000010000000000000BRBBDCACNPR8602
012013080882BBDCW27     080BBDCE   /EJ PN      N1000R$  000000000010400000000001040000000000103000000000010300000000001030000000000000000000000000000002000000000000002400000000000000248400000000000269602013111800000010000000000000BRBBDCACNPR8603
012013080882BBDCW30     080BBDCE   /EJ PN      N1000R$  000000000024900000000002490000000000246000000000024700000000002460000000000000000000000000000002000000000000002400000000000000594000000000000300002013111800000010000000000000BRBBDCACNPR8605
012013080812BBFI11B     010FII BB PROGRCI  ER  MB   R$  000000042000000000004250000000000418001000000042141400000004250000000000421000000000042990000013000000000000000034000000000014328100000000000000009999123100000010000000000000BRBBFICTF006197
012013080812BBPO11      010FII BB PRGIICI  ER       R$  000000001113000000000112000000000011051000000001111700000000110960000000011070000000001109600209000000000000015323000000000170357417000000000000009999123100000010000000000000BRBBPOCTF003109
012013080812BBRC11      010FII BB CORP CI  ER       R$  000000000913500000000093500000000009135000000000918100000000093500000000009200000000000938900022000000000000001116000000000010247003000000000000009999123100000010000000000000BRBBRCCTF004123
012013080802BBRK3       010BR BROKERS  ON      NM   R$  000000000054100000000005590000000000536000000000054900000000005580000000000552000000000055802214000000000000611600000000000335962000000000000000009999123100000010000000000000BRBBRKACNOR4108
012013080896BBRK3F      020BR BROKERS  ON      NM   R$  000000000053600000000005360000000000536000000000053600000000005360000000000536000000000055500001000000000000000066000000000000035376000000000000009999123100000010000000000000BRBBRKACNOR4108
012013080802BBSE3       010BBSEGURIDADEON      NM   R$  000000000195000000000020000000000001925000000000197000000000019900000000001980000000000199008461000000000005228100000000010299678400000000000000009999123100000010000000000000BRBBSEACNOR5100
012013080896BBSE3F      020BBSEGURIDADEON      NM   R$  000000000195000000000019970000000001902000000000196400000000019860000000001951000000000198600834000000000000026432000000000051913360000000000000009999123100000010000000000000BRBBSEACNOR5100
012013080862BBSE3T      030BBSEGURIDADEON      NM020R$  000000000197200000000019730000000001972000000000197200000000019730000000000000000000000000000002000000000000000300000000000000591844000000000000009999123100000010000000000000BRBBSEACNOR5100
012013080862BBSE3T      030BBSEGURIDADEON      NM032R$  000000000197500000000019760000000001975000000000197500000000019760000000000000000000000000000002000000000000000700000000000001382876000000000000009999123100000010000000000000BRBBSEACNOR5100
012013080878BBSEH20     070BBSE        ON      NM000R$  000000000001000000000000110000000000010000000000001000000000000110000000000000000000000000000002000000000000500000000000000005160000000000000200002013081900000010000000000000BRBBSEACNOR5100
012013080878BBSEH49     070BBSE        ON      NM000R$  000000000002900000000000400000000000014000000000002800000000000400000000000000000000000000000005000000000000504500000000000014567200000000000195002013081900000010000000000000BRBBSEACNOR5100
012013080878BBSEJ51     070BBSE        ON      NM000R$  000000000001900000000000200000000000019000000000001900000000000200000000000000000000000000000003000000000001910000000000000037725000000000000215002013102100000010000000000000BRBBSEACNOR5100
012013080882BBSEV48     080BBSEE       ON      NM000R$  000000000002400000000000260000000000024000000000002500000000000260000000000000000000000000000004000000000001910000000000000047992500000000000185002013102100000010000000000000BRBBSEACNOR5100
012013080882BBSEV49     080BBSEE       ON      NM000R$  000000000005300000000000530000000000050000000000005000000000000500000000000000000000000000000003000000000001910000000000000096925000000000000195002013102100000010000000000000BRBBSEACNOR5100
012013080802BBTG11      010BTG PACTUAL UNT          R$  000000000278300000000028590000000002701000000000276200000000027620000000002762000000000276502270000000000000800400000000002210846500000000000000009999123100000010000000000000BRBBTGUNT007104
012013080896BBTG11F     020BTG PACTUAL UNT          R$  000000000272500000000028000000000002725000000000278600000000027870000000002700000000000279700004000000000000000091000000000000253534000000000000009999123100000010000000000000BRBBTGUNT007104
012013080862BBTG11T     030BTG PACTUAL UNT       090R$  000000000285800000000028590000000002816000000000281600000000028170000000000000000000000000000004000000000000210200000000000591990717000000000000009999123100000010000000000000BRBBTGUNT007104
012013080812BBVJ11      010FII C JARDIMCI  ER       R$  000000000804700000000080470000000007990000000000800200000000080300000000008030000000000804800036000000000000005330000000000042651257000000000000009999123100000010000000000000BRBBVJCTF001132
012013080812BCFF11B     010FII BC FFII CI  ER  MB   R$  000000001011000000000101100000000009800000000000996800000000100500000000010050000000001008800058000000000000006571000000000065502413000000000000009999123100000010000000000000BRBCFFCTF000141
012013080802BEEF3       010MINERVA     ON      NM   R$  000000000093300000000009440000000000895000000000092500000000009400000000000940000000000094101975000000000000651200000000000602820800000000000000009999123100000010000000000000BRBEEFACNOR6104
012013080896BEEF3F      020MINERVA     ON      NM   R$  000000000092500000000009810000000000888000000000093000000000009810000000000894000000000098100017000000000000000508000000000000472563000000000000009999123100000010000000000000BRBEEFACNOR6104
012013080802BEES3       010BANESTES    ON  EJ       R$  000000000004700000000000470000000000046000000000004600000000000470000000000046000000000004700004000000000000013200000000000000609400000000000000009999123100000010000000000000BRBEESACNOR9243
012013080802BEMA3       010BEMATECH    ON  ED  NM   R$  000000000074100000000007460000000000730000000000073700000000007300000000000729000000000073000206000000000000072100000000000053155700000000000000009999123100000010000000000000BRBEMAACNOR0114
012013080896BEMA3F      020BEMATECH    ON  ED  NM   R$  000000000074000000000007990000000000702000000000073200000000007990000000000692000000000079900005000000000000000190000000000000139244000000000000009999123100000010000000000000BRBEMAACNOR0114
012013080802BGIP4       010BANESE      PN           R$  000000000465000000000046500000000004650000000000465000000000046500000000004635000000000487000001000000000000000100000000000000465000000000000000009999123100000010000000000000BRBGIPACNPR8178
012013080802BHGR3       010BHG         ON      NM   R$  000000000151800000000015500000000001500000000000151400000000015100000000001502000000000151000082000000000000051200000000000077535900000000000000009999123100000010000000000000BRBHGRACNOR9101
012013080896BHGR3F      020BHG         ON      NM   R$  000000000140100000000015050000000001401000000000147200000000015010000000001501000000000165000003000000000000000084000000000000123712000000000000009999123100000010000000000000BRBHGRACNOR9101
012013080802BICB4       010BICBANCO    PN      N1   R$  000000000034600000000003460000000000340000000000034300000000003430000000000343000000000034400142000000000000046300000000000015892600000000000000009999123100000010000000000000BRBICBACNPR7131
012013080896BICB4F      020BICBANCO    PN      N1   R$  000000000034800000000003530000000000348000000000035100000000003530000000000346000000000035300003000000000000000078000000000000027411000000000000009999123100000010000000000000BRBICBACNPR7131
012013080896BIOM4F      020BIOMM       PN           R$  000000000089000000000008900000000000890000000000089000000000008900000000000771000000000089000001000000000000000052000000000000046280000000000000009999123100000010000000000000BRBIOMACNPR9101
012013080802BISA3       010BROOKFIELD  ON      NM   R$  000000000015500000000001680000000000154000000000016200000000001670000000000166000000000016707204000000000012991600000000002106803200000000000000009999123100000010000000000000BRBISAACNOR8109
012013080896BISA3F      020BROOKFIELD  ON      NM   R$  000000000015500000000001650000000000155000000000016000000000001620000000000162000000000016900008000000000000000265000000000000042440000000000000009999123100000010000000000000BRBISAACNOR8109
012013080812BMLC11B     010FII BMBRC LCCI  ER  MB   R$  000000001173500000000117350000000011660000000001169600000000116600000000011670000000001177000005000000000000000489000000000005719415000000000000009999123100000010000000000000BRBMLCCTF004118
012013080802BMTO4       010BRASMOTOR   PN           R$  000000000008500000000000850000000000084000000000008400000000000850000000000084000000000008500008000000000000049000000000000004135000000000000000009999123100000010000000000000BRBMTOACNPR6065
012013080802BNBR4       010NORD BRASIL PN  EDJ      R$  000000000200000000000020000000000002000000000000200000000000020000000000002000000000000209900001000000000000000100000000000000200000000000000000009999123100000010000000000000BRBNBRACNPR5187
012013080802BOAC11B     010BANK AMERICADRN     MB   R$  000000000333900000000033390000000003339000000000333900000000033390000000003305000000000336500001000000000000000600000000000002003400000000000000009999123100000010000000000000BRBOACBDR004111
012013080802BOBR4       010BOMBRIL     PN           R$  000000000066000000000006700000000000660000000000066500000000006700000000000670000000000068900011000000000000007700000000000005128100000000000000009999123100000010000000000000BRBOBRACNPR3127
012013080851BORB4L      017BOREASA     PN *         R$  000000000369600000000036960000000003696000000000369600000000036960000000000000000000000000000002000000000002000000000000000007392000000000000000009999123100010000000000000000BRBORBACNPR3102
012013080814BOVA11      010ISHARES BOVACI           R$  000000000469900000000048380000000004668000000000476100000000048100000000004790000000000481003693000000000002961830000000014102808400000000000000009999123100000010000000000000BRBOVACTF003101
012013080896BOVA11F     020ISHARES BOVACI           R$  000000000469800000000048270000000004698000000000475900000000048270000000004840000000000484500019000000000000000038000000000000180853000000000000009999123100000010000000000000BRBOVACTF003101
012013080862BOVA11T     030ISHARES BOVACI        047R$  000000000472100000000047220000000004721000000000472100000000047220000000000000000000000000000002000000000000000500000000000002360566000000000000009999123100000010000000000000BRBOVACTF003101
012013080812BPFF11      010FII ABSOLUTOCI  ER       R$  000000000895000000000090000000000008900000000000896200000000089500000000008900000000000895000014000000000000001831000000000016410250000000000000009999123100000010000000000000BRBPFFCTF002104
012013080802BPHA3       010BR PHARMA   ON      NM   R$  000000000101000000000010120000000000930000000000099000000000009900000000000990000000000099301956000000000001583800000000001568744700000000000000009999123100000010000000000000BRBPHAACNOR6102
012013080896BPHA3F      020BR PHARMA   ON      NM   R$  000000000100200000000010120000000000950000000000099500000000009930000000000941000000000109600020000000000000000540000000000000537765000000000000009999123100000010000000000000BRBPHAACNOR6102
012013080862BPHA3T      030BR PHARMA   ON      NM030R$  000000000099500000000009960000000000995000000000099500000000009960000000000000000000000000000002000000000000001000000000000000995725000000000000009999123100000010000000000000BRBPHAACNOR6102
012013080862BPHA3T      030BR PHARMA   ON      NM060R$  000000000100400000000010050000000001004000000000100400000000010050000000000000000000000000000002000000000000005000000000000005021893000000000000009999123100000010000000000000BRBPHAACNOR6102
012013080802BPNM4       010PANAMERICANOPN      N1   R$  000000000059000000000005940000000000574000000000058700000000005880000000000585000000000058800272000000000000236300000000000138722300000000000000009999123100000010000000000000BRBPNMACNPR6111
012013080896BPNM4F      020PANAMERICANOPN      N1   R$  000000000058500000000005920000000000575000000000058100000000005760000000000574000000000057600010000000000000000332000000000000192903000000000000009999123100000010000000000000BRBPNMACNPR6111
012013080802BRAP3       010BRADESPAR   ON      N1   R$  000000000189500000000019800000000001890000000000194100000000019780000000001969000000000197900192000000000000058400000000000113393000000000000000009999123100000010000000000000BRBRAPACNOR5124
012013080896BRAP3F      020BRADESPAR   ON      N1   R$  000000000190000000000019940000000001900000000000192200000000019940000000001846000000000193600004000000000000000138000000000000265314000000000000009999123100000010000000000000BRBRAPACNOR5124
012013080802BRAP4       010BRADESPAR   PN      N1   R$  000000000228200000000024130000000002282000000000237300000000023980000000002394000000000240007024000000000001518100000000003602631000000000000000009999123100000010000000000000BRBRAPACNPR2124
012013080896BRAP4F      020BRADESPAR   PN      N1   R$  000000000229200000000024180000000002292000000000236900000000024050000000002312000000000240000047000000000000001399000000000003315150000000000000009999123100000010000000000000BRBRAPACNPR2124
012013080862BRAP4T      030BRADESPAR   PN      N1032R$  000000000233300000000023420000000002333000000000233900000000023420000000000000000000000000000006000000000000001900000000000004444154000000000000009999123100000010000000000000BRBRAPACNPR2124
012013080862BRAP4T      030BRADESPAR   PN      N1090R$  000000000240000000000024010000000002396000000000240000000000023970000000000000000000000000000004000000000000013000000000000031207512000000000000009999123100000010000000000000BRBRAPACNPR2124
012013080878BRAPH23     070BRAP        PN      N1000R$  000000000007300000000000730000000000073000000000007300000000000730000000000000000000000000000001000000000000006200000000000000452600000000000230002013081900000010000000000000BRBRAPACNPR2124
012013080878BRAPH24     070BRAP        PN      N1000R$  000000000002200000000000230000000000022000000000002200000000000230000000000000000000000000000002000000000000012500000000000000281500000000000240002013081900000010000000000000BRBRAPACNPR2124
012013080814BRAX11      010ISHARES BRAXCI           R$  000000000397500000000039840000000003975000000000397900000000039840000000003800000000000400000002000000000000000020000000000000079590000000000000009999123100000010000000000000BRBRAXCTF002100
012013080812BRCR11      010FII BC FUND CI  ER       R$  000000001334000000000133690000000013220000000001326800000000132240000000013224000000001328500634000000000000030731000000000407743463000000000000009999123100000010000000000000BRBRCRCTF000132
012013080802BRFS3       010BRF SA      ON      NM   R$  000000000488600000000049780000000004826000000000489800000000049390000000004939000000000496507135000000000002103500000000010305150500000000000000009999123100000010000000000000BRBRFSACNOR8110
012013080896BRFS3F      020BRF SA      ON      NM   R$  000000000489100000000049670000000004831000000000490000000000049400000000004950000000000495500069000000000000002267000000000011108382000000000000009999123100000010000000000000BRBRFSACNOR8110
012013080862BRFS3T      030BRF SA      ON      NM120R$  000000000499100000000049920000000004991000000000499100000000049920000000000000000000000000000002000000000000000100000000000000499182000000000000009999123100000010000000000000BRBRFSACNOR8110
012013080878BRFSI50     070BRFS        ON      NM000R$  000000000011100000000001130000000000100000000000010700000000001040000000000000000000000011500010000000000000002400000000000000258500000000000500002013091600000010000000000000BRBRFSACNOR8110
012013080896BRGE3F      020ALFA CONSORCON           R$  000000000034000000000003400000000000340000000000034000000000003400000000000250000000000040000001000000000000000001000000000000000340000000000000009999123100000010000000000000BRBRGEACNOR6196
012013080802BRIN3       010BR INSURANCEON      NM   R$  000000000232500000000024310000000002309000000000237800000000023880000000002387000000000240802516000000000000907600000000002158650100000000000000009999123100000010000000000000BRBRINACNOR3105
012013080896BRIN3F      020BR INSURANCEON      NM   R$  000000000235000000000024150000000002340000000000237300000000023750000000002203000000000236000022000000000000000638000000000001514081000000000000009999123100000010000000000000BRBRINACNOR3105
012013080802BRIV4       010ALFA INVEST PN           R$  000000000059600000000005960000000000596000000000059600000000005960000000000561000000000059600003000000000000001100000000000000655600000000000000009999123100000010000000000000BRBRIVACNPR3196
012013080802BRKM3       010BRASKEM     ON      N1   R$  000000000114600000000012590000000001146000000000121500000000012500000000001233000000000125000029000000000000004800000000000005835700000000000000009999123100000010000000000000BRBRKMACNOR1110
012013080896BRKM3F      020BRASKEM     ON      N1   R$  000000000117700000000012490000000001177000000000123300000000012490000000001161000000000124900003000000000000000045000000000000055517000000000000009999123100000010000000000000BRBRKMACNOR1110
012013080802BRKM5       010BRASKEM     PNA     N1   R$  000000000167000000000017590000000001659000000000171400000000017380000000001737000000000173809652000000000002901500000000004975924800000000000000009999123100000010000000000000BRBRKMACNPA4110
012013080896BRKM5F      020BRASKEM     PNA     N1   R$  000000000167500000000017590000000001670000000000172200000000017590000000001721000000000174500062000000000000002053000000000003537245000000000000009999123100000010000000000000BRBRKMACNPA4110
012013080802BRML3       010BR MALLS PARON      NM   R$  000000000191500000000019660000000001885000000000190900000000018900000000001890000000000189210615000000000003840700000000007335220100000000000000009999123100000010000000000000BRBRMLACNOR9105
012013080896BRML3F      020BR MALLS PARON      NM   R$  000000000191600000000019540000000001886000000000191500000000018960000000001890000000000191000065000000000000001910000000000003658686000000000000009999123100000010000000000000BRBRMLACNOR9105
012013080862BRML3T      030BR MALLS PARON      NM018R$  000000000190000000000019010000000001900000000000190000000000019010000000000000000000000000000002000000000000001100000000000002090357000000000000009999123100000010000000000000BRBRMLACNOR9105
012013080862BRML3T      030BR MALLS PARON      NM032R$  000000000190100000000019020000000001901000000000190100000000019020000000000000000000000000000002000000000000003000000000000005703082000000000000009999123100000010000000000000BRBRMLACNOR9105
012013080802BRPR3       010BR PROPERT  ON      NM   R$  000000000185200000000019140000000001837000000000188100000000018800000000001880000000000188209001000000000002420200000000004553000000000000000000009999123100000010000000000000BRBRPRACNOR9112
012013080896BRPR3F      020BR PROPERT  ON      NM   R$  000000000182800000000019100000000001828000000000187100000000018610000000001866000000000190000031000000000000000989000000000001851185000000000000009999123100000010000000000000BRBRPRACNOR9112
012013080802BRSR3       010BANRISUL    ON      N1   R$  000000000133400000000013340000000001322000000000133200000000013300000000001300000000000134000005000000000000002200000000000002932000000000000000009999123100000010000000000000BRBRSRACNOR3130
012013080896BRSR5F      020BANRISUL    PNA     N1   R$  000000000144700000000014470000000001447000000000144700000000014470000000001400000000000144700002000000000000000007000000000000010129000000000000009999123100000010000000000000BRBRSRACNPA6134
012013080802BRSR6       010BANRISUL    PNB     N1   R$  000000000144500000000014490000000001406000000000143000000000014320000000001432000000000143402081000000000000650100000000000930137500000000000000009999123100000010000000000000BRBRSRACNPB4133
012013080896BRSR6F      020BANRISUL    PNB     N1   R$  000000000140000000000014410000000001400000000000142200000000014310000000001400000000000143000014000000000000000415000000000000590353000000000000009999123100000010000000000000BRBRSRACNPB4133
012013080862BRSR6T      030BANRISUL    PNB     N1060R$  000000000142700000000014280000000001427000000000142700000000014280000000000000000000000000000002000000000000000800000000000001141741000000000000009999123100000010000000000000BRBRSRACNPB4133
012013080802BSEV3       010BIOSEV      ON      NM   R$  000000000118600000000011950000000001177000000000118400000000011770000000001177000000000119500010000000000000002400000000000002843100000000000000009999123100000010000000000000BRBSEVACNOR3100
012013080896BSEV3F      020BIOSEV      ON      NM   R$  000000000118000000000011800000000001180000000000118000000000011800000000001125000000000129000002000000000000000045000000000000053100000000000000009999123100000010000000000000BRBSEVACNOR3100
012013080802BSLI3       010BRB BANCO   ON           R$  000000000290000000000029000000000002900000000000290000000000029000000000002900000000000000000001000000000000001300000000000003770000000000000000009999123100000010000000000000BRBSLIACNOR5146
012013080802BTOW3       010B2W DIGITAL ON      NM   R$  000000000122800000000012880000000001181000000000124300000000012680000000001263000000000126802770000000000000992500000000001234476800000000000000009999123100000010000000000000BRBTOWACNOR8105
012013080896BTOW3F      020B2W DIGITAL ON      NM   R$  000000000124900000000012800000000001167000000000125400000000012800000000001267000000000128000065000000000000001841000000000002310267000000000000009999123100000010000000000000BRBTOWACNOR8105
012013080862BTOW3T      030B2W DIGITAL ON      NM090R$  000000000124100000000012420000000001241000000000124100000000012420000000000000000000000000000002000000000000010000000000000012410966000000000000009999123100000010000000000000BRBTOWACNOR8105
012013080802BTTL3       010BATTISTELLA ON           R$  000000000007900000000000790000000000079000000000007900000000000790000000000078000000000008500002000000000000006200000000000000489800000000000000009999123100000010000000000000BRBTTLACNOR0105
012013080802BTTL4       010BATTISTELLA PN           R$  000000000010000000000001020000000000100000000000010000000000001020000000000098000000000010100004000000000000007700000000000000770400000000000000009999123100000010000000000000BRBTTLACNPR7105
012013080802BVMF3       010BMFBOVESPA  ON      NM   R$  000000000116500000000012100000000001150000000000118600000000012100000000001207000000000121019884000000000009768600000000011589104100000000000000009999123100000010000000000000BRBVMFACNOR3125
012013080896BVMF3F      020BMFBOVESPA  ON      NM   R$  000000000116600000000012020000000001153000000000117600000000012020000000001188000000000120300127000000000000004213000000000004963827000000000000009999123100000010000000000000BRBVMFACNOR3125
012013080862BVMF3T      030BMFBOVESPA  ON      NM032R$  000000000121800000000012190000000001218000000000121800000000012190000000000000000000000000000002000000000000050000000000000060917450000000000000009999123100000010000000000000BRBVMFACNOR3125
012013080862BVMF3T      030BMFBOVESPA  ON      NM042R$  000000000117100000000011720000000001171000000000117100000000011720000000000000000000000000000002000000000000005000000000000005859567000000000000009999123100000010000000000000BRBVMFACNOR3125
012013080862BVMF3T      030BMFBOVESPA  ON      NM180R$  000000000122100000000012220000000001221000000000122100000000012220000000000000000000000000000002000000000000003000000000000003663082000000000000009999123100000010000000000000BRBVMFACNOR3125
012013080878BVMFH10     070BVMF        ON      NM000R$  000000000019600000000001960000000000196000000000019600000000001960000000000000000000000021900001000000000000000100000000000000019600000000000100002013081900000010000000000000BRBVMFACNOR3125
012013080878BVMFH11     070BVMF        ON      NM000R$  000000000007900000000001130000000000068000000000009600000000001090000000000091000000000011900298000000000000257900000000000024858200000000000110002013081900000010000000000000BRBVMFACNOR3125
012013080878BVMFH12     070BVMF  FM    ON      NM000R$  000000000001600000000000330000000000013000000000002200000000000330000000000028000000000003300310000000000000608500000000000013660400000000000120002013081900000010000000000000BRBVMFACNOR3125
012013080878BVMFH13     070BVMF  FM    ON      NM000R$  000000000000300000000000050000000000002000000000000300000000000050000000000004000000000000500406000000000000879300000000000003203000000000000128902013081900000010000000000000BRBVMFACNOR3124
012013080878BVMFH40     070BVMF        ON      NM000R$  000000000014600000000001460000000000146000000000014600000000001460000000000000000000000000000001000000000000000100000000000000014600000000000105002013081900000010000000000000BRBVMFACNOR3125
012013080878BVMFH41     070BVMF  FM    ON      NM000R$  000000000004100000000000660000000000034000000000004800000000000660000000000000000000000000000023000000000000047800000000000002331700000000000115002013081900000010000000000000BRBVMFACNOR3125
012013080878BVMFH42     070BVMF  FM    ON      NM000R$  000000000000800000000000090000000000005000000000000800000000000070000000000003000000000001200050000000000000124200000000000001048600000000000125002013081900000010000000000000BRBVMFACNOR3125
012013080878BVMFH43     070BVMF  FM    ON      NM000R$  000000000000200000000000020000000000002000000000000200000000000020000000000001000000000003000016000000000000100000000000000000200000000000000135002013081900000010000000000000BRBVMFACNOR3125
012013080878BVMFH62     070BVMFE       ON      NM000R$  000000000001600000000000160000000000016000000000001600000000000160000000000000000000000000000003000000000000003300000000000000052800000000000122502013081900000010000000000000BRBVMFACNOR3125
012013080878BVMFI10     070BVMF        ON      NM000R$  000000000020300000000002030000000000197000000000020000000000001970000000000165000000000000000002000000000000000200000000000000040000000000000100002013091600000010000000000000BRBVMFACNOR3125
012013080878BVMFI11     070BVMF        ON      NM000R$  000000000010700000000001250000000000107000000000011800000000001210000000000105000000000000000013000000000000005500000000000000652800000000000110002013091600000010000000000000BRBVMFACNOR3125
012013080878BVMFI12     070BVMF  FM    ON      NM000R$  000000000004200000000000600000000000035000000000004800000000000600000000000047000000000006400105000000000000222400000000000010738000000000000120002013091600000010000000000000BRBVMFACNOR3125
012013080878BVMFI13     070BVMF  FM    ON      NM000R$  000000000001400000000000180000000000010000000000001400000000000180000000000013000000000001900063000000000000166600000000000002430700000000000130002013091600000010000000000000BRBVMFACNOR3125
012013080878BVMFI14     070BVMF        ON      NM000R$  000000000000400000000000100000000000004000000000000900000000000100000000000005000000000001000022000000000000697000000000000006701500000000000140002013091600000010000000000000BRBVMFACNOR3125
012013080878BVMFI41     070BVMF  FM    ON      NM000R$  000000000006500000000000890000000000060000000000007500000000000890000000000000000000000000000046000000000000115700000000000008747700000000000115002013091600000010000000000000BRBVMFACNOR3125
012013080878BVMFI42     070BVMF  FM    ON      NM000R$  000000000002500000000000340000000000025000000000003100000000000330000000000000000000000007800020000000000000037800000000000001181300000000000125002013091600000010000000000000BRBVMFACNOR3125
012013080878BVMFI43     070BVMF  FM    ON      NM000R$  000000000000700000000000070000000000007000000000000700000000000070000000000007000000000002500001000000000000000100000000000000000700000000000135002013091600000010000000000000BRBVMFACNOR3125
012013080878BVMFJ12     070BVMF        ON      NM000R$  000000000007000000000000700000000000070000000000007000000000000700000000000000000000000000000001000000000000005000000000000000350000000000000120002013102100000010000000000000BRBVMFACNOR3125
012013080878BVMFJ13     070BVMF        ON      NM000R$  000000000002800000000000300000000000028000000000002900000000000300000000000000000000000003000106000000000000268300000000000007909900000000000130002013102100000010000000000000BRBVMFACNOR3125
012013080878BVMFJ15     070BVMF        ON      NM000R$  000000000000500000000000050000000000005000000000000500000000000050000000000000000000000000900001000000000000003600000000000000018000000000000150002013102100000010000000000000BRBVMFACNOR3125
012013080878BVMFK12     070BVMF        ON      NM000R$  000000000007700000000000950000000000077000000000008300000000000950000000000000000000000000000002000000000000000300000000000000024900000000000120002013111800000010000000000000BRBVMFACNOR3125
012013080878BVMFK13     070BVMF        ON      NM000R$  000000000004200000000000420000000000041000000000004100000000000410000000000000000000000000000003000000000000003600000000000000150400000000000130002013111800000010000000000000BRBVMFACNOR3125
012013080878BVMFK15     070BVMF        ON      NM000R$  000000000000400000000000040000000000004000000000000400000000000040000000000000000000000000000001000000000000002400000000000000009600000000000150002013111800000010000000000000BRBVMFACNOR3125
012013080878BVMFL13     070BVMF        ON      NM000R$  000000000004700000000000470000000000047000000000004700000000000470000000000000000000000008500002000000000000000800000000000000037600000000000130002013121600000010000000000000BRBVMFACNOR3125
012013080878BVMFL2      070BVMF        ON      NM000R$  000000000010400000000001040000000000104000000000010400000000001040000000000000000000000000000001000000000000000100000000000000010400000000000118902013121600000010000000000000BRBVMFACNOR3124
012013080882BVMFT11     080BVMFE FM    ON      NM000R$  000000000000800000000000130000000000004000000000000500000000000060000000000005000000000000700112000000000000190300000000000001072300000000000110002013081900000010000000000000BRBVMFACNOR3125
012013080882BVMFT12     080BVMFE FM    ON      NM000R$  000000000004700000000000570000000000025000000000003500000000000270000000000001000000000000000125000000000000219000000000000007844400000000000120002013081900000010000000000000BRBVMFACNOR3125
012013080882BVMFT13     080BVMFE       ON      NM000R$  000000000013100000000001310000000000094000000000010400000000001020000000000000000000000000000016000000000000031600000000000003304700000000000128902013081900000010000000000000BRBVMFACNOR3124
012013080882BVMFT41     080BVMFE FM    ON      NM000R$  000000000002300000000000280000000000012000000000001500000000000120000000000001000000000000000050000000000000140400000000000002231600000000000115002013081900000010000000000000BRBVMFACNOR3125
012013080882BVMFT42     080BVMFE FM    ON      NM000R$  000000000009300000000000970000000000070000000000008000000000000700000000000000000000000000000007000000000000024500000000000001967000000000000125002013081900000010000000000000BRBVMFACNOR3125
012013080882BVMFT43     080BVMFE       ON      NM000R$  000000000016400000000001640000000000164000000000016400000000001640000000000000000000000000000001000000000000000700000000000000114800000000000135002013081900000010000000000000BRBVMFACNOR3125
012013080882BVMFT61     080BVMFE       ON      NM000R$  000000000002000000000000200000000000020000000000002000000000000200000000000000000000000000000001000000000000000600000000000000012000000000000117502013081900000010000000000000BRBVMFACNOR3125
012013080882BVMFU11     080BVMFE FM    ON      NM000R$  000000000002600000000000260000000000017000000000002000000000000180000000000017000000000002100034000000000000071200000000000001428600000000000110002013091600000010000000000000BRBVMFACNOR3125
012013080882BVMFU12     080BVMFE FM    ON      NM000R$  000000000006200000000000720000000000045000000000005300000000000460000000000045000000000005800134000000000000061700000000000003319400000000000120002013091600000010000000000000BRBVMFACNOR3125
012013080882BVMFU41     080BVMFE FM    ON      NM000R$  000000000004000000000000440000000000029000000000003700000000000320000000000000000000000000000028000000000000074600000000000002761200000000000115002013091600000010000000000000BRBVMFACNOR3125
012013080882BVMFU42     080BVMFE FM    ON      NM000R$  000000000010400000000001040000000000071000000000007900000000000710000000000000000000000000000016000000000000036500000000000002894200000000000125002013091600000010000000000000BRBVMFACNOR3125
012013080882BVMFV41     080BVMFE       ON      NM000R$  000000000005000000000000500000000000050000000000005000000000000500000000000000000000000008000001000000000000005000000000000000250000000000000115002013102100000010000000000000BRBVMFACNOR3125
012013080882BVMFV42     080BVMFE       ON      NM000R$  000000000009700000000000970000000000097000000000009700000000000970000000000000000000000000000001000000000000004600000000000000446200000000000125002013102100000010000000000000BRBVMFACNOR3125
012013080882BVMFX11     080BVMFE       ON      NM000R$  000000000004800000000000480000000000048000000000004800000000000480000000000000000000000000000001000000000000001800000000000000086400000000000110002013121600000010000000000000BRBVMFACNOR3125
012013080802CAMB4       010CAMBUCI     PN           R$  000000000018200000000001940000000000182000000000018300000000001830000000000185000000000019300012000000000000006800000000000001247400000000000000009999123100000010000000000000BRCAMBACNPR1117
012013080802CARD3       010CSU CARDSYSTON      NM   R$  000000000032500000000003300000000000320000000000032100000000003210000000000319000000000032100068000000000000138400000000000044526800000000000000009999123100000010000000000000BRCARDACNOR9105
012013080802CBEE3       010AMPLA ENERG ON *         R$  000000000011600000000001160000000000116000000000011600000000001160000000000116000000000013000003000000000000900000000000000000104400000000000000009999123100010000000000000000BRCBEEACNOR3149
012013080896CBMA3F      020COBRASMA    ON           R$  000000000000600000000000060000000000005000000000000500000000000050000000000005000000000000600002000000000000002539000000000000015233000000000000009999123100000010000000000000BRCBMAACNOR4124
012013080802CBMA4       010COBRASMA    PN           R$  000000000000500000000000050000000000005000000000000500000000000050000000000004000000000000500039000000000002240000000000000011200000000000000000009999123100000010000000000000BRCBMAACNPR1124
012013080896CBMA4F      020COBRASMA    PN           R$  000000000000500000000000050000000000005000000000000500000000000050000000000005000000000000600003000000000000010000000000000000050000000000000000009999123100000010000000000000BRCBMAACNPR1124
012013080808CCHI3       010CHIARELLI   ON           R$  000000000002900000000000290000000000028000000000002800000000000290000000000028000000000002900013000000000000190000000000000005350000000000000000009999123100000010000000000000BRCCHIACNOR5123
012013080896CCHI3F      020CHIARELLI   ON           R$  000000000002700000000000270000000000027000000000002700000000000270000000000027000000000002900001000000000000008000000000000000216000000000000000009999123100000010000000000000BRCCHIACNOR5123
012013080808CCHI4       010CHIARELLI   PN           R$  000000000002200000000000220000000000022000000000002200000000000220000000000021000000000002300001000000000000010000000000000000220000000000000000009999123100000010000000000000BRCCHIACNPR2122
012013080802CCPR3       010CYRE COM-CCPON      NM   R$  000000000209700000000021600000000002097000000000215200000000021600000000002160000000000236100006000000000000000900000000000001937100000000000000009999123100000010000000000000BRCCPRACNOR9107
012013080802CCRO3       010CCR SA      ON      NM   R$  000000000172500000000017380000000001709000000000172000000000017200000000001720000000000172211339000000000005885100000000010127056100000000000000009999123100000010000000000000BRCCROACNOR2122
012013080896CCRO3F      020CCR SA      ON      NM   R$  000000000172400000000017390000000001714000000000172100000000017150000000001716000000000172300034000000000000001018000000000001752519000000000000009999123100000010000000000000BRCCROACNOR2122
012013080862CCRO3T      030CCR SA      ON      NM018R$  000000000171900000000017200000000001719000000000171900000000017200000000000000000000000000000002000000000000001700000000000002922988000000000000009999123100000010000000000000BRCCROACNOR2122
012013080862CCRO3T      030CCR SA      ON      NM032R$  000000000174200000000017430000000001742000000000174200000000017430000000000000000000000000000002000000000000001500000000000002614416000000000000009999123100000010000000000000BRCCROACNOR2122
012013080802CCXC3       010CCX CARVAO  ON      NM   R$  000000000008300000000000860000000000082000000000008400000000000830000000000083000000000008400282000000000000849100000000000071377000000000000000009999123100000010000000000000BRCCXCACNOR5100
012013080896CCXC3F      020CCX CARVAO  ON      NM   R$  000000000008300000000000860000000000083000000000008400000000000860000000000083000000000008600006000000000000000211000000000000017725000000000000009999123100000010000000000000BRCCXCACNOR5100
012013080802CEBR5       010CEB         PNA          R$  000000000200000000000020000000000002000000000000200000000000020000000000001900000000000230000003000000000000001000000000000002000000000000000000009999123100000010000000000000BRCEBRACNPA8113
012013080802CEDO4       010CEDRO       PN      N1   R$  000000000087500000000008750000000000874000000000087400000000008740000000000800000000000087500003000000000000000300000000000000262300000000000000009999123100000010000000000000BRCEDOACNPR5126
012013080808CELP3       010CELPA       ON           R$  000000000006400000000000640000000000064000000000006400000000000640000000000060000000000006400005000000000000005100000000000000326400000000000000009999123100000010000000000000BRCELPACNOR8112
012013080812CEOC11B     010FII CEO CCP CI  ER  MB   R$  000000000880100000000091600000000008801000000000906600000000091300000000009010000000000913000025000000000000001586000000000014379890000000000000009999123100000010000000000000BRCEOCCTF003109
012013080802CESP5       010CESP        PNA     N1   R$  000000000228900000000022890000000002289000000000228900000000022890000000002070000000000229000001000000000000000100000000000000228900000000000000009999123100000010000000000000BRCESPACNPA6108
012013080896CESP5F      020CESP        PNA     N1   R$  000000000235000000000023500000000002350000000000235000000000023500000000002027000000000235000002000000000000000013000000000000030550000000000000009999123100000010000000000000BRCESPACNPA6108
012013080802CESP6       010CESP        PNB     N1   R$  000000000208100000000021400000000002035000000000210000000000021030000000002100000000000210303247000000000000952500000000002000617700000000000000009999123100000010000000000000BRCESPACNPB4118
012013080896CESP6F      020CESP        PNB     N1   R$  000000000207000000000022210000000002021000000000208500000000022210000000002101000000000222100023000000000000000707000000000001474336000000000000009999123100000010000000000000BRCESPACNPB4118
012013080862CESP6T      030CESP        PNB     N1090R$  000000000213500000000021360000000002135000000000213500000000021360000000000000000000000000000002000000000000005000000000000010677306000000000000009999123100000010000000000000BRCESPACNPB4118
012013080802CGAS3       010COMGAS      ON           R$  000000000512600000000051500000000005126000000000514700000000051500000000004702000000000514000002000000000000001000000000000005147600000000000000009999123100000010000000000000BRCGASACNOR0132
012013080802CGAS5       010COMGAS      PNA          R$  000000000559100000000055970000000005539000000000554600000000055500000000005550000000000557000046000000000000018300000000000101504200000000000000009999123100000010000000000000BRCGASACNPA3129
012013080896CGAS5F      020COMGAS      PNA          R$  000000000552000000000055270000000005520000000000552500000000055270000000005526000000000576000002000000000000000101000000000000558059000000000000009999123100000010000000000000BRCGASACNPA3129
012013080802CGRA4       010GRAZZIOTIN  PN           R$  000000000163000000000016300000000001615000000000162100000000016300000000001630000000000165900018000000000000006100000000000009891300000000000000009999123100000010000000000000BRCGRAACNPR9061
012013080896CGRA4F      020GRAZZIOTIN  PN           R$  000000000163000000000016300000000001630000000000163000000000016300000000001590000000000163000001000000000000000020000000000000032600000000000000009999123100000010000000000000BRCGRAACNPR9061
012013080802CIEL3       010CIELO       ON      NM   R$  000000000545500000000056160000000005452000000000554600000000056010000000005601000000000560906340000000000001390800000000007713592700000000000000009999123100000010000000000000BRCIELACNOR3111
012013080896CIEL3F      020CIELO       ON      NM   R$  000000000553300000000056210000000005470000000000554700000000056000000000005595000000000560000122000000000000003543000000000019659115000000000000009999123100000010000000000000BRCIELACNOR3111
012013080862CIEL3T      030CIELO       ON      NM120R$  000000000563200000000056330000000005632000000000563200000000056330000000000000000000000000000002000000000000000100000000000000563248000000000000009999123100000010000000000000BRCIELACNOR3111
012013080862CIEL3T      030CIELO       ON      NM180R$  000000000572400000000057250000000005724000000000572400000000057250000000000000000000000000000002000000000000001000000000000005724610000000000000009999123100000010000000000000BRCIELACNOR3111
012013080802CLSC4       010CELESC      PN      N2   R$  000000000185900000000019000000000001840000000000186900000000019000000000001861000000000190000018000000000000003000000000000005609700000000000000009999123100000010000000000000BRCLSCACNPR3107
012013080896CLSC4F      020CELESC      PN      N2   R$  000000000195000000000019500000000001950000000000195000000000019500000000001601000000000190500003000000000000000042000000000000081900000000000000009999123100000010000000000000BRCLSCACNPR3107
012013080802CMIG3       010CEMIG       ON      N1   R$  000000000206700000000020690000000002000000000000203900000000020300000000002030000000000204500436000000000000119500000000000243735300000000000000009999123100000010000000000000BRCMIGACNOR6208
012013080896CMIG3F      020CEMIG       ON      N1   R$  000000000205000000000020990000000002022000000000205000000000020410000000002050000000000210000013000000000000000415000000000000850801000000000000009999123100000010000000000000BRCMIGACNOR6208
012013080862CMIG3T      030CEMIG       ON      N1032R$  000000000205800000000020590000000002058000000000205800000000020590000000000000000000000000000002000000000000001000000000000002058906000000000000009999123100000010000000000000BRCMIGACNOR6208
012013080802CMIG4       010CEMIG       PN      N1   R$  000000000206700000000020910000000002004000000000205300000000020590000000002058000000000205912044000000000003443400000000007070371900000000000000009999123100000010000000000000BRCMIGACNPR3208
012013080896CMIG4F      020CEMIG       PN      N1   R$  000000000206000000000020890000000002007000000000205100000000020540000000002060000000000206500136000000000000004117000000000008445046000000000000009999123100000010000000000000BRCMIGACNPR3208
012013080862CMIG4S      030CEMIG       PN      N1090R$  000000000211800000000021190000000002118000000000211800000000021190000000000000000000000000000002000000000000000300000000000000635531000000000000009999123100000010000000000000BRCMIGACNPR3208
012013080862CMIG4T      030CEMIG       PN      N1090R$  000000000210400000000021050000000002104000000000210400000000021050000000000000000000000000000002000000000000000500000000000001052434000000000000009999123100000010000000000000BRCMIGACNPR3208
012013080862CMIG4T      030CEMIG       PN      N1151R$  000000000214200000000021430000000002142000000000214200000000021430000000000000000000000000000002000000000000001000000000000002142855000000000000009999123100000010000000000000BRCMIGACNPR3208
012013080862CMIG4T      030CEMIG       PN      N1180R$  000000000217300000000021740000000002173000000000217300000000021740000000000000000000000000000004000000000000000564000000000001225790000000000000009999123100000010000000000000BRCMIGACNPR3208
012013080862CMIG4T      030CEMIG       PN      N1032R$  000000000209600000000020970000000002056000000000206400000000020570000000000000000000000000000004000000000000005900000000000012180343000000000000009999123100000010000000000000BRCMIGACNPR3208
012013080862CMIG4T      030CEMIG       PN      N1060R$  000000000210400000000021050000000002092000000000209700000000020930000000000000000000000000000004000000000000002900000000000006082010000000000000009999123100000010000000000000BRCMIGACNPR3208
012013080878CMIGH21     070CMIG        PN      N1000R$  000000000001500000000000150000000000015000000000001500000000000150000000000000000000000000000001000000000000003000000000000000045000000000000210002013081900000010000000000000BRCMIGACNPR3208
012013080878CMIGH22     070CMIG        PN      N1000R$  000000000000700000000000080000000000005000000000000700000000000050000000000000000000000005000006000000000000004300000000000000030700000000000220002013081900000010000000000000BRCMIGACNPR3208
012013080878CMIGI22     070CMIG        PN      N1000R$  000000000002500000000000250000000000025000000000002500000000000250000000000000000000000004400001000000000000001000000000000000025000000000000220002013091600000010000000000000BRCMIGACNPR3208
012013080882CMIGU20     080CMIGE       PN      N1000R$  000000000005200000000000530000000000052000000000005200000000000530000000000000000000000000000002000000000000050000000000000002635000000000000200002013091600000010000000000000BRCMIGACNPR3208
012013080882CMIGV20     080CMIGE       PN      N1000R$  000000000008000000000000810000000000080000000000008000000000000810000000000000000000000000000002000000000000070000000000000005649000000000000200002013102100000010000000000000BRCMIGACNPR3208
012013080812CNES11B     010FII CENESP  CI      MB   R$  000000001280000000000130000000000012800000000001285300000000129000000000012600000000001290000009000000000000000196000000000002519270000000000000009999123100000010000000000000BRCNESCTF001124
012013080802COCE3       010COELCE      ON           R$  000000000429500000000042950000000004101000000000418000000000041770000000004101000000000417700008000000000000001000000000000004180400000000000000009999123100000010000000000000BRCOCEACNOR0132
012013080802COCE5       010COELCE      PNA          R$  000000000403300000000040770000000003935000000000397000000000039550000000003955000000000402000110000000000000036300000000000144135800000000000000009999123100000010000000000000BRCOCEACNPA3133
012013080896COCE5F      020COELCE      PNA          R$  000000000400000000000040330000000003950000000000395300000000040330000000003959000000000428700012000000000000000451000000000001783045000000000000009999123100000010000000000000BRCOCEACNPA3133
012013080802CPFE3       010CPFL ENERGIAON      NM   R$  000000000209300000000021480000000002065000000000211900000000021480000000002133000000000214805001000000000000828700000000001756132500000000000000009999123100000010000000000000BRCPFEACNOR0121
012013080896CPFE3F      020CPFL ENERGIAON      NM   R$  000000000210000000000021470000000002020000000000208900000000020600000000002061000000000214700018000000000000000386000000000000806253000000000000009999123100000010000000000000BRCPFEACNOR0121
012013080802CPLE3       010COPEL       ON      N1   R$  000000000229000000000023490000000002245000000000231800000000023490000000002295000000000234900059000000000000018400000000000042655100000000000000009999123100000010000000000000BRCPLEACNOR8128
012013080802CPLE6       010COPEL       PNB     N1   R$  000000000296700000000030450000000002873000000000293900000000030000000000002982000000000300804933000000000001031000000000003030815300000000000000009999123100000010000000000000BRCPLEACNPB9125
012013080896CPLE6F      020COPEL       PNB     N1   R$  000000000290000000000030000000000002711000000000286300000000030000000000002870000000000300000014000000000000000549000000000001572301000000000000009999123100000010000000000000BRCPLEACNPB9125
012013080802CPRE3       010CPFL RENOVAVON      NM   R$  000000000118900000000011890000000001170000000000117300000000011870000000001170000000000118800009000000000000002800000000000003285400000000000000009999123100000010000000000000BRCPREACNOR5100
012013080896CPRE3F      020CPFL RENOVAVON      NM   R$  000000000118000000000012000000000001180000000000118000000000012000000000001173000000000120000003000000000000000050000000000000059020000000000000009999123100000010000000000000BRCPREACNOR5100
012013080802CRDE3       010CR2         ON      NM   R$  000000000041100000000004150000000000405000000000040900000000004050000000000405000000000041500004000000000000000700000000000000286800000000000000009999123100000010000000000000BRCRDEACNOR1108
012013080802CREM3       010CREMER      ON      NM   R$  000000000145700000000014690000000001451000000000146300000000014680000000001450000000000146900024000000000000006600000000000009655900000000000000009999123100000010000000000000BRCREMACNOR2166
012013080802CRIV4       010ALFA FINANC PN           R$  000000000048700000000004870000000000486000000000048600000000004860000000000468000000000048600003000000000000000400000000000000194500000000000000009999123100000010000000000000BRCRIVACNPR1189
012013080802CRUZ3       010SOUZA CRUZ  ON           R$  000000000255800000000025860000000002500000000000252000000000025600000000002555000000000256004394000000000002769200000000006978975100000000000000009999123100000010000000000000BRCRUZACNOR0246
012013080896CRUZ3F      020SOUZA CRUZ  ON           R$  000000000259900000000025990000000002500000000000255100000000025550000000002555000000000258000066000000000000001626000000000004148603000000000000009999123100000010000000000000BRCRUZACNOR0246
012013080862CRUZ3S      030SOUZA CRUZ  ON        090R$  000000000263300000000026340000000002630000000000263200000000026310000000000000000000000000000004000000000000001200000000000003159223000000000000009999123100000010000000000000BRCRUZACNOR0246
012013080862CRUZ3T      030SOUZA CRUZ  ON        032R$  000000000258700000000025880000000002587000000000258700000000025880000000000000000000000000000010000000000000010000000000000025874760000000000000009999123100000010000000000000BRCRUZACNOR0246
012013080862CRUZ3T      030SOUZA CRUZ  ON        060R$  000000000254600000000025470000000002546000000000254600000000025470000000000000000000000000000002000000000000001000000000000002546431000000000000009999123100000010000000000000BRCRUZACNOR0246
012013080802CSAB3       010SEG AL BAHIAON           R$  000000000301000000000030100000000003010000000000301000000000030100000000003000000000000000000001000000000000000100000000000000301000000000000000009999123100000010000000000000BRCSABACNOR1051
012013080802CSAN3       010COSAN       ON  ED  NM   R$  000000000416900000000042040000000004030000000000415800000000041800000000004175000000000418005439000000000001484400000000006173657900000000000000009999123100000010000000000000BRCSANACNOR6108
012013080896CSAN3F      020COSAN       ON  ED  NM   R$  000000000417000000000042000000000004073000000000415200000000042000000000004176000000000420000051000000000000001490000000000006187934000000000000009999123100000010000000000000BRCSANACNOR6108
012013080862CSAN3T      030COSAN       ON  ED  NM060R$  000000000421500000000042160000000004215000000000421500000000042160000000000000000000000000000002000000000000005000000000000021079626000000000000009999123100000010000000000000BRCSANACNOR6108
012013080862CSAN3T      030COSAN       ON  ED  NM090R$  000000000422800000000042420000000004228000000000423000000000042400000000000000000000000000000014000000000000130000000000000549980723000000000000009999123100000010000000000000BRCSANACNOR6108
012013080802CSCO11B     010CISCO       DRN     MB   R$  000000000595700000000059570000000005957000000000595700000000059570000000005952000000000605600001000000000000033200000000000197772400000000000000009999123100000010000000000000BRCSCOBDR004110
012013080802CSMG3       010COPASA      ON      NM   R$  000000000332500000000033650000000003281000000000331400000000033050000000003285000000000330501963000000000000308100000000001021086700000000000000009999123100000010000000000000BRCSMGACNOR5127
012013080896CSMG3F      020COPASA      ON      NM   R$  000000000330000000000033400000000003241000000000330100000000032960000000003250000000000337000011000000000000000344000000000001135723000000000000009999123100000010000000000000BRCSMGACNOR5127
012013080862CSMG3T      030COPASA      ON      NM030R$  000000000332100000000033220000000003321000000000332100000000033220000000000000000000000000000002000000000000000300000000000000996530000000000000009999123100000010000000000000BRCSMGACNOR5127
012013080862CSMG3T      030COPASA      ON      NM045R$  000000000332500000000033260000000003325000000000332500000000033260000000000000000000000000000002000000000000001000000000000003325930000000000000009999123100000010000000000000BRCSMGACNOR5127
012013080814CSMO11      010ISHARES CSMOCI           R$  000000000461800000000046180000000004610000000000461400000000046100000000003800000000000467000002000000000000000020000000000000092280000000000000009999123100000010000000000000BRCSMOCTF002100
012013080802CSNA3       010SID NACIONALON  EDJ      R$  000000000066700000000006910000000000654000000000067100000000006750000000000675000000000067613614000000000007852000000000005275746400000000000000009999123100000010000000000000BRCSNAACNOR6243
012013080896CSNA3F      020SID NACIONALON  EDJ      R$  000000000062800000000006890000000000628000000000067100000000006790000000000677000000000067800077000000000000002448000000000001644393000000000000009999123100000010000000000000BRCSNAACNOR6243
012013080862CSNA3T      030SID NACIONALON  EDJ   018R$  000000000066900000000006700000000000669000000000066900000000006700000000000000000000000000000004000000000000027900000000000018685598000000000000009999123100000010000000000000BRCSNAACNOR6243
012013080862CSNA3T      030SID NACIONALON  EDJ   030R$  000000000067100000000006720000000000671000000000067100000000006720000000000000000000000000000002000000000000010000000000000006716690000000000000009999123100000010000000000000BRCSNAACNOR6243
012013080862CSNA3T      030SID NACIONALON  EDJ   042R$  000000000068000000000006810000000000680000000000068000000000006810000000000000000000000000000002000000000000003000000000000002040805000000000000009999123100000010000000000000BRCSNAACNOR6243
012013080862CSNA3T      030SID NACIONALON  EDJ   060R$  000000000069000000000006920000000000690000000000069000000000006920000000000000000000000000000004000000000000005000000000000003454118000000000000009999123100000010000000000000BRCSNAACNOR6243
012013080862CSNA3T      030SID NACIONALON  EDJ   090R$  000000000067900000000007020000000000679000000000068000000000006930000000000000000000000000000010000000000000094700000000000064423759000000000000009999123100000010000000000000BRCSNAACNOR6243
012013080862CSNA3T      030SID NACIONALON  EDJ   120R$  000000000068200000000006830000000000677000000000067800000000006780000000000000000000000000000004000000000000001300000000000000882449000000000000009999123100000010000000000000BRCSNAACNOR6243
012013080878CSNAH6      070CSNA    /EDJON        000R$  000000000009000000000001110000000000082000000000010000000000001000000000000075000000000012000010000000000000005300000000000000530700000000000058002013081900000010000000000000BRCSNAACNOR6242
012013080878CSNAH64     070CSNA  FM/EDJON        000R$  000000000006500000000000730000000000065000000000007000000000000730000000000000000000000000000005000000000000012000000000000000844000000000000062002013081900000010000000000000BRCSNAACNOR6242
012013080878CSNAH66     070CSNA  FM/EDJON        000R$  000000000004500000000000450000000000045000000000004500000000000450000000000000000000000000000001000000000000002000000000000000090000000000000064002013081900000010000000000000BRCSNAACNOR6242
012013080878CSNAH68     070CSNA  FM/EDJON        000R$  000000000002500000000000340000000000024000000000002800000000000330000000000000000000000000000010000000000000027800000000000000786000000000000066002013081900000010000000000000BRCSNAACNOR6242
012013080878CSNAH7      070CSNA  FM/EDJON        000R$  000000000002000000000000300000000000014000000000001700000000000280000000000024000000000002800034000000000000080800000000000001435600000000000068002013081900000010000000000000BRCSNAACNOR6242
012013080878CSNAH72     070CSNA  FM/EDJON        000R$  000000000001100000000000170000000000010000000000001200000000000130000000000000000000000002200005000000000000010500000000000000126000000000000070002013081900000010000000000000BRCSNAACNOR6242
012013080878CSNAH78     070CSNA    /EDJON        000R$  000000000000400000000000040000000000004000000000000400000000000040000000000002000000000000000003000000000000006200000000000000024800000000000076002013081900000010000000000000BRCSNAACNOR6242
012013080878CSNAI64     070CSNA  FM/EDJON        000R$  000000000006600000000000660000000000066000000000006600000000000660000000000000000000000000000001000000000000001500000000000000099000000000000062002013091600000010000000000000BRCSNAACNOR6242
012013080878CSNAI66     070CSNA  FM/EDJON        000R$  000000000007500000000000750000000000075000000000007500000000000750000000000000000000000000000001000000000000002000000000000000150000000000000064002013091600000010000000000000BRCSNAACNOR6242
012013080878CSNAI7      070CSNA  FM/EDJON        000R$  000000000004000000000000500000000000034000000000004000000000000500000000000029000000000000000014000000000000020300000000000000822200000000000068002013091600000010000000000000BRCSNAACNOR6242
012013080878CSNAI71     070CSNAE       ON        000R$  000000000001600000000000160000000000016000000000001600000000000160000000000000000000000000000003000000000000050000000000000000800000000000000071002013091600000010000000000000BRCSNAACNOR6243
012013080878CSNAI72     070CSNA  FM/EDJON        000R$  000000000003500000000000350000000000035000000000003500000000000350000000000000000000000000000001000000000000000400000000000000014000000000000070002013091600000010000000000000BRCSNAACNOR6242
012013080878CSNAI74     070CSNA    /EDJON        000R$  000000000002100000000000280000000000021000000000002500000000000280000000000000000000000000000002000000000000001500000000000000038500000000000072002013091600000010000000000000BRCSNAACNOR6242
