00COTAHIST.2013BOVESPA 20130925                                                                                                                                                                                                                      
012013092502AAPL34      010APPLE       DRN          R$  000000001075000000000107500000000010750000000001075000000000107500000000010750000000001080500001000000000000000600000000000006450000000000000000009999123100000010000000000000BRAAPLBDR004105
012013092502ABCB4       010ABC BRASIL  PN      N2   R$  000000000125300000000012550000000001226000000000123700000000012450000000001242000000000124501679000000000000372900000000000461649400000000000000009999123100000010000000000000BRABCBACNPR4120
012013092596ABCB4F      020ABC BRASIL  PN      N2   R$  000000000124000000000012500000000001221000000000124000000000012400000000001231000000000129900016000000000000000265000000000000328826000000000000009999123100000010000000000000BRABCBACNPR4120
012013092512ABCP11      010FII ABC IMOBCI           R$  000000000097500000000009750000000000975000000000097500000000009750000000000975000000000100000002000000000000000007000000000000006825000000000000009999123100000010000000000000BRABCPCTF000215
012013092502ABRE11      010ABRIL EDUCA UNT     N2   R$  000000000333500000000034550000000003334000000000340700000000034000000000003400000000000344101340000000000000412700000000001406414900000000000000009999123100000010000000000000BRABRECDAM15102
012013092596ABRE11F     020ABRIL EDUCA UNT     N2   R$  000000000338000000000034950000000003380000000000340100000000034950000000003341000000000349500007000000000000000220000000000000748280000000000000009999123100000010000000000000BRABRECDAM15102
012013092502AEDU3       010ANHANGUERA  ON      NM   R$  000000000137000000000013900000000001337000000000135600000000013560000000001356000000000135706261000000000002342100000000003176679900000000000000009999123100000010000000000000BRAEDUACNOR9107
012013092596AEDU3F      020ANHANGUERA  ON      NM   R$  000000000136000000000013890000000001331000000000135100000000013400000000001331000000000134500020000000000000000559000000000000755463000000000000009999123100000010000000000000BRAEDUACNOR9107
012013092562AEDU3T      030ANHANGUERA  ON      NM061R$  000000000136600000000013670000000001366000000000136600000000013670000000000000000000000000000002000000000000000500000000000000683131000000000000009999123100000010000000000000BRAEDUACNOR9107
012013092512AEFI11      010FII AESAPAR CI           R$  000000001190000000000119700000000011840000000001188400000000118400000000011816000000001184000088000000000000015471000000000183871568000000000000009999123100000010000000000000BRAEFICTF002121
012013092502AELP3       010AES ELPA    ON           R$  000000000099900000000009990000000000999000000000099900000000009990000000000830000000000100000001000000000000000100000000000000099900000000000000009999123100000010000000000000BRAELPACNOR2119
012013092512AGCX11      010FII AG CAIXACI           R$  000000009599900000000960000000000095501000000009571800000000960000000000095500000000009600000004000000000000000154000000000014740585000000000000009999123100000010000000000000BRAGCXCTF003110
012013092502AGRO3       010BRASILAGRO  ON      NM   R$  000000000101300000000010190000000001000000000000100900000000010150000000001010000000000101800060000000000000035700000000000036045100000000000000009999123100000010000000000000BRAGROACNOR7102
012013092502ALLL3       010ALL AMER LATON      NM   R$  000000000091300000000009230000000000903000000000090800000000009040000000000903000000000090404417000000000001080800000000000982151800000000000000009999123100000010000000000000BRALLLACNOR6118
012013092596ALLL3F      020ALL AMER LATON      NM   R$  000000000091800000000009280000000000903000000000091000000000009030000000000900000000000090300029000000000000000711000000000000646771000000000000009999123100000010000000000000BRALLLACNOR6118
012013092502ALPA3       010ALPARGATAS  ON      N1   R$  000000000127000000000012900000000001260000000000128300000000012900000000001261000000000129800007000000000000003300000000000004236800000000000000009999123100000010000000000000BRALPAACNOR0203
012013092596ALPA3F      020ALPARGATAS  ON      N1   R$  000000000116500000000012100000000001165000000000118800000000012100000000001211000000000126900002000000000000000063000000000000074880000000000000009999123100000010000000000000BRALPAACNOR0203
012013092562ALPA3T      030ALPARGATAS  ON      N1061R$  000000000128700000000012880000000001287000000000128700000000012880000000000000000000000000000002000000000000000300000000000000386182000000000000009999123100000010000000000000BRALPAACNOR0203
012013092502ALPA4       010ALPARGATAS  PN      N1   R$  000000000141700000000014500000000001401000000000142200000000014500000000001440000000000145001304000000000000454600000000000646654200000000000000009999123100000010000000000000BRALPAACNPR7203
012013092596ALPA4F      020ALPARGATAS  PN      N1   R$  000000000142000000000014350000000001406000000000141500000000014350000000001420000000000143900012000000000000000273000000000000386332000000000000009999123100000010000000000000BRALPAACNPR7203
012013092562ALPA4T      030ALPARGATAS  PN      N1057R$  000000000143800000000014390000000001438000000000143800000000014390000000000000000000000000000002000000000000002000000000000002877204000000000000009999123100000010000000000000BRALPAACNPR7203
012013092502ALSC3       010ALIANSCE    ON      NM   R$  000000000204300000000020550000000002006000000000203000000000020200000000002020000000000203001400000000000000207700000000000421746300000000000000009999123100000010000000000000BRALSCACNOR0104
012013092596ALSC3F      020ALIANSCE    ON      NM   R$  000000000202000000000020200000000002020000000000202000000000020200000000002000000000000205000002000000000000000002000000000000004040000000000000009999123100000010000000000000BRALSCACNOR0104
012013092578ALSCJ51     070ALSC        ON      NM000R$  000000000001400000000000140000000000014000000000001400000000000140000000000000000000000000000002000000000000005000000000000000070000000000000215002013102100000010000000000000BRALSCACNOR0104
012013092502ALUP11      010ALUPAR      UNT     N2   R$  000000000176400000000017800000000001759000000000177300000000017800000000001768000000000178000456000000000000145900000000000258755400000000000000009999123100000010000000000000BRALUPCDAM15100
012013092596ALUP11F     020ALUPAR      UNT     N2   R$  000000000178000000000017990000000001738000000000176600000000017380000000001738000000000177500009000000000000000342000000000000604183000000000000009999123100000010000000000000BRALUPCDAM15100
012013092502AMAR3       010LOJAS MARISAON      NM   R$  000000000228500000000022850000000002171000000000220600000000022080000000002208000000000221002630000000000000562900000000001242076800000000000000009999123100000010000000000000BRAMARACNOR4109
012013092596AMAR3F      020LOJAS MARISAON      NM   R$  000000000234000000000023400000000002176000000000221700000000022040000000002201000000000247300034000000000000000978000000000002169033000000000000009999123100000010000000000000BRAMARACNOR4109
012013092562AMAR3T      030LOJAS MARISAON      NM120R$  000000000226900000000022700000000002269000000000226900000000022700000000000000000000000000000002000000000000040000000000000090776870000000000000009999123100000010000000000000BRAMARACNOR4109
012013092502AMBV3       010AMBEV       ON  ED       R$  000000000862900000000086480000000008556000000000859900000000086100000000008590000000000861001524000000000000411400000000003537921200000000000000009999123100000010000000000000BRAMBVACNOR4154
012013092596AMBV3F      020AMBEV       ON  ED       R$  000000000868000000000086800000000008411000000000858200000000085910000000008591000000000861500021000000000000000529000000000004541237000000000000009999123100000010000000000000BRAMBVACNOR4154
012013092502AMBV4       010AMBEV       PN  ED       R$  000000000862100000000086480000000008544000000000860700000000086480000000008630000000000864804929000000000001011500000000008706198300000000000000009999123100000010000000000000BRAMBVACNPR1154
012013092596AMBV4F      020AMBEV       PN  ED       R$  000000000860000000000086400000000008546000000000860500000000086350000000008612000000000863900098000000000000002480000000000021341513000000000000009999123100000010000000000000BRAMBVACNPR1154
012013092562AMBV4T      030AMBEV       PN  ED    030R$  000000000870400000000087050000000008704000000000870400000000087050000000000000000000000000000002000000000000000100000000000000870408000000000000009999123100000010000000000000BRAMBVACNPR1154
012013092562AMBV4T      030AMBEV       PN  ED    061R$  000000000876200000000087630000000008762000000000876200000000087630000000000000000000000000000002000000000000000500000000000004381096000000000000009999123100000010000000000000BRAMBVACNPR1154
012013092578AMBVJ87     070AMBV    /ED PN        000R$  000000000018200000000001820000000000181000000000018100000000001810000000000001000000000000000002000000000000050000000000000009065800000000000863502013102100000010000000000000BRAMBVACNPR1153
012013092578AMBVJ90     070AMBV    /ED PN        000R$  000000000006700000000000680000000000067000000000006700000000000680000000000031000000000000000002000000000000001100000000000000074700000000000893502013102100000010000000000000BRAMBVACNPR1153
012013092502ARTR3       010ARTERIS     ON      NM   R$  000000000190800000000019640000000001906000000000193900000000019260000000001925000000000192601546000000000000460000000000000892153200000000000000009999123100000010000000000000BRARTRACNOR3101
012013092596ARTR3F      020ARTERIS     ON      NM   R$  000000000192100000000019570000000001921000000000194100000000019210000000001878000000000192900036000000000000001158000000000002248762000000000000009999123100000010000000000000BRARTRACNOR3101
012013092502ARZZ3       010AREZZO CO   ON      NM   R$  000000000384900000000038690000000003692000000000376300000000037500000000003745000000000375001117000000000000202200000000000760895900000000000000009999123100000010000000000000BRARZZACNOR3109
012013092596ARZZ3F      020AREZZO CO   ON      NM   R$  000000000380100000000039990000000003693000000000379200000000038000000000003710000000000380000024000000000000000999000000000003789163000000000000009999123100000010000000000000BRARZZACNOR3109
012013092562ARZZ3T      030AREZZO CO   ON      NM057R$  000000000380500000000038060000000003805000000000380500000000038060000000000000000000000000000002000000000000001000000000000003805811000000000000009999123100000010000000000000BRARZZACNOR3109
012013092502AUTM3       010AUTOMETAL   ON      NM   R$  000000000182000000000018200000000001798000000000180600000000018060000000001806000000000181100231000000000000069000000000000124649600000000000000009999123100000010000000000000BRAUTMACNOR8109
012013092596AUTM3F      020AUTOMETAL   ON      NM   R$  000000000181500000000018160000000001800000000000181100000000018000000000001701000000000185000005000000000000000103000000000000186600000000000000009999123100000010000000000000BRAUTMACNOR8109
012013092502AXPB34      010AMERICAN EXPDRN          R$  000000001687800000000168780000000016878000000001687800000000168780000000016696000000001719100001000000000000000200000000000003375600000000000000009999123100000010000000000000BRAXPBBDR007105
012013092502AZEV4       010AZEVEDO     PN           R$  000000000014000000000001400000000000140000000000014000000000001400000000000125000000000014000001000000000000000100000000000000014000000000000000009999123100000010000000000000BRAZEVACNPR7113
012013092502BAHI3       010BAHEMA      ON           R$  000000000049500000000004950000000000495000000000049500000000004950000000000485000000000049500001000000000000000100000000000000049500000000000000009999123100000010000000000000BRBAHIACNOR1066
012013092502BAUH4       010EXCELSIOR   PN           R$  000000000082500000000008250000000000820000000000082100000000008200000000000827000000000089400002000000000000000800000000000000657000000000000000009999123100000010000000000000BRBAUHACNPR3108
012013092502BAZA3       010AMAZONIA    ON           R$  000000000003300000000000340000000000032000000000003200000000000340000000000033000000000003400018000000000000071000000000000002316000000000000000009999123100000010000000000000BRBAZAACNOR0163
012013092596BAZA3F      020AMAZONIA    ON           R$  000000000003300000000000330000000000032000000000003200000000000320000000000032000000000003500003000000000000000235000000000000007590000000000000009999123100000010000000000000BRBAZAACNOR0163
012013092502BBAS3       010BRASIL      ON      NM   R$  000000000258300000000025970000000002545000000000255700000000025750000000002574000000000257513216000000000008017600000000020508483300000000000000009999123100000010000000000000BRBBASACNOR3239
012013092596BBAS3F      020BRASIL      ON      NM   R$  000000000256300000000026000000000002544000000000256100000000025790000000002552000000000257900252000000000000006104000000000015632700000000000000009999123100000010000000000000BRBBASACNOR3239
012013092562BBAS3T      030BRASIL      ON      NM020R$  000000000256400000000025650000000002564000000000256400000000025650000000000000000000000000000002000000000000000100000000000000256427000000000000009999123100000010000000000000BRBBASACNOR3239
012013092562BBAS3T      030BRASIL      ON      NM030R$  000000000256800000000025770000000002568000000000257500000000025770000000000000000000000000000006000000000000007300000000000018800895000000000000009999123100000010000000000000BRBBASACNOR3239
012013092562BBAS3T      030BRASIL      ON      NM061R$  000000000259300000000025950000000002586000000000259200000000025870000000000000000000000000000016000000000001583300000000004104986776000000000000009999123100000010000000000000BRBBASACNOR3239
012013092562BBAS3T      030BRASIL      ON      NM092R$  000000000260300000000026040000000002603000000000260300000000026040000000000000000000000000000002000000000000003000000000000007811415000000000000009999123100000010000000000000BRBBASACNOR3239
012013092578BBASJ23     070BBAS        ON      NM000R$  000000000043000000000004300000000000400000000000041100000000004020000000000400000000000046100037000000000000022100000000000009104600000000000216102013102100000010000000000000BRBBASACNOR3235
012013092578BBASJ24     070BBAS        ON      NM000R$  000000000033500000000003350000000000335000000000033500000000003350000000000190000000000035500003000000000000004300000000000001440500000000000227102013102100000010000000000000BRBBASACNOR3236
012013092578BBASJ25     070BBAS  FM    ON      NM000R$  000000000022500000000002280000000000183000000000019900000000001940000000000183000000000019800196000000000000149800000000000029935700000000000239502013102100000010000000000000BRBBASACNOR3237
012013092578BBASJ26     070BBAS  FM    ON      NM000R$  000000000016700000000001670000000000130000000000014100000000001400000000000130000000000014400120000000000000095400000000000013461500000000000246102013102100000010000000000000BRBBASACNOR3235
012013092578BBASJ27     070BBAS  FM    ON      NM000R$  000000000009200000000000920000000000065000000000007100000000000730000000000064000000000008000137000000000000134600000000000009634300000000000256102013102100000010000000000000BRBBASACNOR3235
012013092578BBASJ28     070BBAS  FM    ON      NM000R$  000000000003000000000000310000000000018000000000002100000000000240000000000019000000000002400113000000000000199400000000000004348100000000000269502013102100000010000000000000BRBBASACNOR3237
012013092578BBASJ29     070BBAS  FM    ON      NM000R$  000000000001500000000000160000000000008000000000001000000000000090000000000007000000000001500025000000000000064900000000000000666300000000000276102013102100000010000000000000BRBBASACNOR3235
012013092578BBASJ30     070BBAS        ON      NM000R$  000000000001100000000000110000000000003000000000001000000000000030000000000002000000000000800003000000000000003200000000000000033700000000000286102013102100000010000000000000BRBBASACNOR3235
012013092578BBASJ31     070BBAS        ON      NM000R$  000000000000100000000000010000000000001000000000000100000000000010000000000000000000000000200001000000000000000200000000000000000200000000000307302013102100000010000000000000BRBBASACNOR3238
012013092578BBASJ56     070BBAS        ON      NM000R$  000000000012600000000001260000000000092000000000010400000000001040000000000000000000000000000029000000000000020100000000000002103600000000000251102013102100000010000000000000BRBBASACNOR3235
012013092578BBASJ65     070BBAS        ON      NM000R$  000000000004000000000000400000000000031000000000003100000000000310000000000000000000000000000025000000000000056500000000000001807300000000000265002013102100000010000000000000BRBBASACNOR3239
012013092578BBASK24     070BBAS        ON      NM000R$  000000000038000000000003800000000000380000000000038000000000003800000000000290000000000000000001000000000000002000000000000000760000000000000229502013111800000010000000000000BRBBASACNOR3237
012013092578BBASK25     070BBAS  FM    ON      NM000R$  000000000026000000000002620000000000234000000000024500000000002490000000000000000000000000000088000000000000102000000000000025078900000000000237102013111800000010000000000000BRBBASACNOR3236
012013092578BBASK26     070BBAS  FM    ON      NM000R$  000000000019300000000001930000000000160000000000017300000000001710000000000159000000000000000062000000000000047000000000000008165000000000000247102013111800000010000000000000BRBBASACNOR3236
012013092578BBASK27     070BBAS  FM    ON      NM000R$  000000000012400000000001240000000000099000000000010300000000001070000000000104000000000000000085000000000000038900000000000004023300000000000257102013111800000010000000000000BRBBASACNOR3236
012013092578BBASK28     070BBAS  FM    ON      NM000R$  000000000007300000000000730000000000054000000000005700000000000600000000000054000000000009000056000000000000051100000000000002918900000000000267102013111800000010000000000000BRBBASACNOR3236
012013092578BBASK29     070BBAS  FM    ON      NM000R$  000000000003300000000000330000000000021000000000002500000000000250000000000021000000000002800025000000000000026400000000000000676800000000000279502013111800000010000000000000BRBBASACNOR3237
012013092578BBASK56     070BBAS        ON      NM000R$  000000000007500000000000750000000000075000000000007500000000000750000000000000000000000000000014000000000000018900000000000001417500000000000262302013111800000010000000000000BRBBASACNOR3238
012013092578BBASK57     070BBAS        ON      NM000R$  000000000003100000000000330000000000031000000000003100000000000310000000000000000000000000000067000000000000200000000000000006323800000000000275002013111800000010000000000000BRBBASACNOR3239
012013092578BBASL25     070BBAS        ON      NM000R$  000000000027600000000002760000000000276000000000027600000000002760000000000000000000000000000009000000000000001500000000000000414000000000000236102013121600000010000000000000BRBBASACNOR3235
012013092578BBASL26     070BBAS        ON      NM000R$  000000000022300000000002230000000000200000000000020400000000002100000000000016000000000000000025000000000000003100000000000000632600000000000246102013121600000010000000000000BRBBASACNOR3235
012013092578BBASL27     070BBAS        ON      NM000R$  000000000012400000000001250000000000120000000000012000000000001230000000000007000000000000000008000000000000501100000000000060135500000000000259502013121600000010000000000000BRBBASACNOR3237
012013092578BBASL28     070BBAS        ON      NM000R$  000000000007800000000000810000000000078000000000007800000000000810000000000005000000000000000004000000000000001000000000000000078900000000000269502013121600000010000000000000BRBBASACNOR3237
012013092578BBASL29     070BBAS        ON      NM000R$  000000000005500000000000550000000000055000000000005500000000000550000000000010000000000000000001000000000000000300000000000000016500000000000276102013121600000010000000000000BRBBASACNOR3235
012013092578BBASL30     070BBAS        ON      NM000R$  000000000001000000000000100000000000010000000000001000000000000100000000000005000000000000000001000000000000003000000000000000030000000000000300002013121600000010000000000000BRBBASACNOR3239
012013092582BBASV24     080BBASE FM    ON      NM000R$  000000000000600000000000070000000000004000000000000500000000000050000000000003000000000000700013000000000000124200000000000000636500000000000227102013102100000010000000000000BRBBASACNOR3236
012013092582BBASV25     080BBASE FM    ON      NM000R$  000000000001500000000000180000000000013000000000001500000000000140000000000007000000000002200073000000000000055100000000000000876600000000000239502013102100000010000000000000BRBBASACNOR3237
012013092582BBASV26     080BBASE FM    ON      NM000R$  000000000002100000000000310000000000020000000000002700000000000290000000000015000000000002600052000000000000114300000000000003190500000000000246102013102100000010000000000000BRBBASACNOR3235
012013092582BBASV27     080BBASE FM    ON      NM000R$  000000000004700000000000660000000000047000000000006000000000000550000000000055000000000007000266000000000000223700000000000013632900000000000256102013102100000010000000000000BRBBASACNOR3235
012013092582BBASV28     080BBASE       ON      NM000R$  000000000011600000000001500000000000116000000000014000000000001390000000000130000000000000000060000000000000021600000000000003044300000000000269502013102100000010000000000000BRBBASACNOR3237
012013092582BBASV29     080BBASE       ON      NM000R$  000000000016600000000002050000000000166000000000018700000000002050000000000000000000000000000011000000000000004700000000000000883500000000000276102013102100000010000000000000BRBBASACNOR3235
012013092582BBASW21     080BBASE       ON      NM000R$  000000000000400000000000040000000000004000000000000400000000000040000000000000000000000000000001000000000000000600000000000000002400000000000197102013111800000010000000000000BRBBASACNOR3236
012013092582BBASW24     080BBASE FM    ON      NM000R$  000000000002000000000000200000000000020000000000002000000000000200000000000006000000000000000001000000000000001200000000000000024000000000000229502013111800000010000000000000BRBBASACNOR3237
012013092582BBASW25     080BBASE FM    ON      NM000R$  000000000003100000000000310000000000030000000000003000000000000300000000000000000000000000000007000000000000005700000000000000174300000000000237102013111800000010000000000000BRBBASACNOR3236
012013092582BBASW26     080BBASE FM    ON      NM000R$  000000000005000000000000550000000000050000000000005200000000000510000000000000000000000000000030000000000000037000000000000001953800000000000247102013111800000010000000000000BRBBASACNOR3236
012013092582BBASW27     080BBASE FM    ON      NM000R$  000000000009200000000000930000000000087000000000009000000000000890000000000000000000000000000022000000000000035400000000000003216800000000000257102013111800000010000000000000BRBBASACNOR3236
012013092582BBASX24     080BBASE       ON      NM000R$  000000000002900000000000320000000000029000000000002900000000000320000000000025000000000008000007000000000000011300000000000000329200000000000229502013121600000010000000000000BRBBASACNOR3237
012013092582BBASX25     080BBASE       ON      NM000R$  000000000004400000000000440000000000044000000000004400000000000440000000000032000000000004500001000000000000000100000000000000004400000000000236102013121600000010000000000000BRBBASACNOR3235
012013092502BBDC3       010BRADESCO    ON      N1   R$  000000000352100000000035830000000003501000000000352200000000035210000000003521000000000353904895000000000001301500000000004584595000000000000000009999123100000010000000000000BRBBDCACNOR1606
012013092596BBDC3F      020BRADESCO    ON      N1   R$  000000000354200000000035790000000003499000000000352800000000035490000000003498000000000354900029000000000000000758000000000002674491000000000000009999123100000010000000000000BRBBDCACNOR1606
012013092502BBDC4       010BRADESCO    PN      N1   R$  000000000306200000000030900000000003040000000000307200000000030900000000003084000000000309012119000000000004716700000000014492937000000000000000009999123100000010000000000000BRBBDCACNPR8606
012013092596BBDC4F      020BRADESCO    PN      N1   R$  000000000307000000000030840000000003045000000000307000000000030840000000003061000000000308400240000000000000005573000000000017114099000000000000009999123100000010000000000000BRBBDCACNPR8606
012013092562BBDC4T      030BRADESCO    PN      N1030R$  000000000309900000000031000000000003099000000000309900000000031000000000000000000000000000000002000000000000006000000000000018596773000000000000009999123100000010000000000000BRBBDCACNPR8606
012013092562BBDC4T      030BRADESCO    PN      N1071R$  000000000312000000000031210000000003120000000000312000000000031210000000000000000000000000000004000000000000002000000000000006240082000000000000009999123100000010000000000000BRBBDCACNPR8606
012013092578BBDCA34     070BBDC        PN      N1000R$  000000000006900000000000690000000000064000000000006500000000000640000000000000000000000000000015000000000000016700000000000001085600000000000339602014012000000010000000000000BRBBDCACNPR8604
012013092578BBDCJ1      070BBDC        PN      N1000R$  000000000005500000000000560000000000050000000000005200000000000560000000000000000000000000000024000000000000010300000000000000545600000000000314402013102100000010000000000000BRBBDCACNPR8603
012013092578BBDCJ29     070BBDC        PN      N1000R$  000000000023200000000002340000000000213000000000022700000000002130000000000213000000000000000016000000000000016500000000000003747600000000000287602013102100000010000000000000BRBBDCACNPR8602
012013092578BBDCJ30     070BBDC        PN      N1000R$  000000000015100000000001570000000000134000000000014500000000001560000000000140000000000017800065000000000000092700000000000013491700000000000297602013102100000010000000000000BRBBDCACNPR8602
012013092578BBDCJ31     070BBDC        PN      N1000R$  000000000008800000000000920000000000070000000000008200000000000890000000000080000000000009800087000000000000129900000000000010699800000000000307602013102100000010000000000000BRBBDCACNPR8602
012013092578BBDCJ32     070BBDC        PN      N1000R$  000000000004400000000000460000000000036000000000004200000000000440000000000038000000000005000079000000000000135400000000000005730800000000000317602013102100000010000000000000BRBBDCACNPR8602
012013092578BBDCJ33     070BBDC        PN      N1000R$  000000000001800000000000220000000000018000000000001900000000000210000000000012000000000003800098000000000000058500000000000001146300000000000327602013102100000010000000000000BRBBDCACNPR8602
012013092578BBDCJ34     070BBDC        PN      N1000R$  000000000000900000000000100000000000008000000000000900000000000100000000000000000000000001000030000000000000045000000000000000406500000000000337202013102100000010000000000000BRBBDCACNPR8600
012013092578BBDCJ6      070BBDC        PN      N1000R$  000000000018000000000001800000000000180000000000018000000000001800000000000000000000000000000002000000000000004100000000000000738000000000000365002014102000000010000000000000BRBBDCACNPR8606
012013092578BBDCK30     070BBDC        PN      N1000R$  000000000018000000000001830000000000160000000000017100000000001770000000000000000000000000000070000000000000063400000000000010863400000000000299802013111800000010000000000000BRBBDCACNPR8605
012013092578BBDCK31     070BBDC        PN      N1000R$  000000000011700000000001210000000000101000000000011100000000001190000000000092000000000013100104000000000000110400000000000012281900000000000309802013111800000010000000000000BRBBDCACNPR8605
012013092578BBDCK32     070BBDC        PN      N1000R$  000000000008000000000000850000000000071000000000008200000000000850000000000052000000000008900050000000000000086300000000000007141700000000000317402013111800000010000000000000BRBBDCACNPR8601
012013092578BBDCK33     070BBDC        PN      N1000R$  000000000004900000000000490000000000038000000000004200000000000470000000000021000000000006800095000000000000081000000000000003406700000000000327602013111800000010000000000000BRBBDCACNPR8602
012013092578BBDCK34     070BBDC        PN      N1000R$  000000000002500000000000250000000000024000000000002400000000000250000000000011000000000003800004000000000000005000000000000000124500000000000339602013111800000010000000000000BRBBDCACNPR8604
012013092578BBDCK9      070BBDC        PN      N1000R$  000000000028200000000002820000000000282000000000028200000000002820000000000000000000000029000002000000000000021100000000000005950200000000000289802013111800000010000000000000BRBBDCACNPR8605
012013092578BBDCL1      070BBDC        PN      N1000R$  000000000016000000000001700000000000160000000000016500000000001700000000000000000000000000000002000000000000001000000000000000165000000000000307202013121600000010000000000000BRBBDCACNPR8600
012013092578BBDCL29     070BBDC        PN      N1000R$  000000000030600000000003060000000000306000000000030600000000003060000000000285000000000000000001000000000000021000000000000006426000000000000287602013121600000010000000000000BRBBDCACNPR8602
012013092578BBDCL33     070BBDC        PN      N1000R$  000000000022100000000002210000000000221000000000022100000000002210000000000000000000000000000001000000000000000500000000000000110500000000000297002013121600000010000000000000BRBBDCACNPR8598
012013092578BBDCL34     070BBDC        PN      N1000R$  000000000005100000000000520000000000044000000000004900000000000520000000000000000000000000000020000000000000010000000000000000491000000000000337202013121600000010000000000000BRBBDCACNPR8600
012013092578BBDCL35     070BBDC        PN      N1000R$  000000000003300000000000340000000000027000000000003100000000000330000000000000000000000004500046000000000000023000000000000000717500000000000347202013121600000010000000000000BRBBDCACNPR8600
012013092582BBDCO60     080BBDCE       PN      N1000R$  000000000005700000000000570000000000057000000000005700000000000570000000000000000000000000000001000000000000001200000000000000068400000000000274302014031700000010000000000000BRBBDCACNPR8598
012013092582BBDCO61     080BBDCE       PN      N1000R$  000000000007000000000000700000000000070000000000007000000000000700000000000000000000000000000001000000000000001200000000000000084000000000000278802014031700000010000000000000BRBBDCACNPR8598
012013092582BBDCV1      080BBDCE       PN      N1000R$  000000000012500000000001250000000000106000000000010700000000001060000000000000000000000000000033000000000000024300000000000002617600000000000314402013102100000010000000000000BRBBDCACNPR8603
012013092582BBDCV25     080BBDCE       PN      N1000R$  000000000000200000000000020000000000002000000000000200000000000020000000000002000000000000000005000000000000025000000000000000050000000000000249402013102100000010000000000000BRBBDCACNPR8603
012013092582BBDCV27     080BBDCE       PN      N1000R$  000000000000500000000000050000000000005000000000000500000000000050000000000000000000000001300001000000000000003000000000000000015000000000000267602013102100000010000000000000BRBBDCACNPR8602
012013092582BBDCV29     080BBDCE       PN      N1000R$  000000000001900000000000190000000000016000000000001600000000000160000000000000000000000000000087000000000000061100000000000001001500000000000287602013102100000010000000000000BRBBDCACNPR8602
012013092582BBDCV30     080BBDCE       PN      N1000R$  000000000003800000000000460000000000037000000000004000000000000370000000000000000000000011800055000000000000052600000000000002115700000000000297602013102100000010000000000000BRBBDCACNPR8602
012013092582BBDCV31     080BBDCE       PN      N1000R$  000000000007400000000000850000000000073000000000007700000000000740000000000000000000000000000036000000000000029800000000000002324200000000000307602013102100000010000000000000BRBBDCACNPR8602
012013092582BBDCV32     080BBDCE       PN      N1000R$  000000000012900000000001480000000000123000000000013200000000001250000000000000000000000000000065000000000000086700000000000011466300000000000317602013102100000010000000000000BRBBDCACNPR8602
012013092582BBDCV57     080BBDCE       PN      N1000R$  000000000006000000000000600000000000060000000000006000000000000600000000000000000000000000000002000000000000004100000000000000246000000000000275002014102000000010000000000000BRBBDCACNPR8606
012013092582BBDCV60     080BBDCE       PN      N1000R$  000000000024000000000002400000000000240000000000024000000000002400000000000000000000000000000002000000000000004100000000000000984000000000000305002014102000000010000000000000BRBBDCACNPR8606
012013092582BBDCW30     080BBDCE       PN      N1000R$  000000000007800000000000780000000000068000000000007100000000000680000000000000000000000000000017000000000000006400000000000000458000000000000299802013111800000010000000000000BRBBDCACNPR8605
012013092582BBDCW31     080BBDCE       PN      N1000R$  000000000011300000000001240000000000107000000000011500000000001070000000000000000000000000000047000000000000116400000000000013397100000000000309802013111800000010000000000000BRBBDCACNPR8605
012013092582BBDCW32     080BBDCE       PN      N1000R$  000000000015100000000001630000000000143000000000015600000000001430000000000000000000000000000015000000000000029200000000000004566500000000000317402013111800000010000000000000BRBBDCACNPR8601
012013092582BBDCW9      080BBDCE       PN      N1000R$  000000000004400000000000440000000000044000000000004400000000000440000000000000000000000000000001000000000000002200000000000000096800000000000289802013111800000010000000000000BRBBDCACNPR8605
012013092582BBDCX25     080BBDCE       PN      N1000R$  000000000001200000000000130000000000012000000000001200000000000130000000000000000000000000000009000000000000009700000000000000120400000000000249602013121600000010000000000000BRBBDCACNPR8604
012013092582BBDCX27     080BBDCE       PN      N1000R$  000000000002700000000000300000000000027000000000002800000000000300000000000000000000000000000005000000000000007000000000000000202300000000000269602013121600000010000000000000BRBBDCACNPR8604
012013092582BBDCX28     080BBDCE       PN      N1000R$  000000000004000000000000400000000000040000000000004000000000000400000000000000000000000000000001000000000000001600000000000000064000000000000279602013121600000010000000000000BRBBDCACNPR8604
012013092582BBDCX30     080BBDCE       PN      N1000R$  000000000002700000000000300000000000027000000000002800000000000300000000000000000000000000000002000000000000003000000000000000084000000000000269502013121600000010000000000000BRBBDCACNPR8597
012013092582BBDCX31     080BBDCE       PN      N1000R$  000000000003900000000000440000000000039000000000004100000000000440000000000000000000000000000005000000000000007300000000000000303200000000000278602013121600000010000000000000BRBBDCACNPR8597
012013092582BBDCX33     080BBDCE       PN      N1000R$  000000000008000000000000800000000000080000000000008000000000000800000000000000000000000000000001000000000000001100000000000000088000000000000297002013121600000010000000000000BRBBDCACNPR8598
012013092582BBDCX54     080BBDCE       PN      N1000R$  000000000001000000000000100000000000010000000000001000000000000100000000000000000000000000000001000000000000002000000000000000020000000000000244602013121600000010000000000000BRBBDCACNPR8604
012013092582BBDCX57     080BBDCE       PN      N1000R$  000000000003400000000000380000000000034000000000003500000000000380000000000000000000000000000008000000000000010100000000000000360000000000000275202013121600000010000000000000BRBBDCACNPR8600
012013092582BBDCX66     080BBDCE       PN      N1000R$  000000000001800000000000190000000000018000000000001800000000000190000000000000000000000000000003000000000000003600000000000000066400000000000259602013121600000010000000000000BRBBDCACNPR8604
012013092512BBPO11      010FII BB PRGIICI           R$  000000001107900000000110790000000011037000000001105200000000110700000000011063000000001107000086000000000000010704000000000118310051000000000000009999123100000010000000000000BRBBPOCTF003110
012013092512BBRC11      010FII BB CORP CI           R$  000000000925000000000092500000000009200000000000923700000000092500000000009220000000000925000005000000000000000819000000000007565750000000000000009999123100000010000000000000BRBBRCCTF004124
012013092502BBRK3       010BR BROKERS  ON      NM   R$  000000000059100000000005960000000000584000000000058800000000005870000000000584000000000058701509000000000000904000000000000532143700000000000000009999123100000010000000000000BRBBRKACNOR4108
012013092596BBRK3F      020BR BROKERS  ON      NM   R$  000000000059100000000005910000000000590000000000059000000000005910000000000568000000000058900006000000000000000239000000000000141087000000000000009999123100000010000000000000BRBBRKACNOR4108
012013092502BBSE3       010BBSEGURIDADEON      NM   R$  000000000214000000000021880000000002125000000000216400000000021850000000002176000000000218505044000000000002501600000000005415569600000000000000009999123100000010000000000000BRBBSEACNOR5101
012013092596BBSE3F      020BBSEGURIDADEON      NM   R$  000000000213500000000021870000000002122000000000215900000000021870000000002179000000000218700437000000000000015393000000000033245934000000000000009999123100000010000000000000BRBBSEACNOR5101
012013092562BBSE3T      030BBSEGURIDADEON      NM020R$  000000000218300000000021840000000002183000000000218300000000021840000000000000000000000000000002000000000000000300000000000000654988000000000000009999123100000010000000000000BRBBSEACNOR5101
012013092562BBSE3T      030BBSEGURIDADEON      NM092R$  000000000220200000000022350000000002196000000000222000000000022350000000000000000000000000000040000000000000500000000000001110216541000000000000009999123100000010000000000000BRBBSEACNOR5101
012013092538BBSEK20E    012BBSE        ON      NM000R$  000000000195900000000019590000000001959000000000195900000000019590000000000000000000000000000001000000000000000300000000000000587700000000000195902013111800000010000000000000BRBBSEACNOR5101
012013092502BBTG11      010BTG PACTUAL UNT          R$  000000000284100000000028570000000002787000000000281100000000028180000000002805000000000281801388000000000000387700000000001089918500000000000000009999123100000010000000000000BRBBTGUNT007105
012013092596BBTG11F     020BTG PACTUAL UNT          R$  000000000287800000000028780000000002800000000000283500000000028000000000002800000000000288000008000000000000000223000000000000632259000000000000009999123100000010000000000000BRBBTGUNT007105
012013092562BBTG11T     030BTG PACTUAL UNT       030R$  000000000286600000000028770000000002866000000000287100000000028770000000000000000000000000000004000000000000020200000000000058013289000000000000009999123100000010000000000000BRBBTGUNT007105
012013092512BBVJ11      010FII C JARDIMCI           R$  000000000779800000000077990000000007798000000000779800000000077980000000007750000000000779800007000000000000000144000000000001122934000000000000009999123100000010000000000000BRBBVJCTF001133
012013092512BCFF11B     010FII BC FFII CI      MB   R$  000000000885000000000089990000000008830000000000887800000000089990000000008920000000000899800066000000000000005911000000000052482269000000000000009999123100000010000000000000BRBCFFCTF000142
012013092502BEEF3       010MINERVA     ON      NM   R$  000000000098900000000009930000000000960000000000097300000000009700000000000969000000000097003408000000000001576100000000001534136500000000000000009999123100000010000000000000BRBEEFACNOR6104
012013092596BEEF3F      020MINERVA     ON      NM   R$  000000000104800000000010480000000000964000000000098800000000009740000000000970000000000098000023000000000000000785000000000000776008000000000000009999123100000010000000000000BRBEEFACNOR6104
012013092562BEEF3T      030MINERVA     ON      NM016R$  000000000097400000000009800000000000974000000000097600000000009800000000000000000000000000000004000000000000010000000000000009766818000000000000009999123100000010000000000000BRBEEFACNOR6104
012013092502BEES3       010BANESTES    ON           R$  000000000005000000000000500000000000050000000000005000000000000500000000000048000000000004900001000000000000000200000000000000010000000000000000009999123100000010000000000000BRBEESACNOR9244
012013092502BEMA3       010BEMATECH    ON      NM   R$  000000000077500000000007900000000000775000000000078400000000007800000000000777000000000078000188000000000000092600000000000072605200000000000000009999123100000010000000000000BRBEMAACNOR0114
012013092596BEMA3F      020BEMATECH    ON      NM   R$  000000000078000000000008490000000000766000000000078600000000007660000000000766000000000077500015000000000000000319000000000000250932000000000000009999123100000010000000000000BRBEMAACNOR0114
012013092562BEMA3T      030BEMATECH    ON      NM030R$  000000000078800000000007890000000000788000000000078800000000007890000000000000000000000000000002000000000000000200000000000000157743000000000000009999123100000010000000000000BRBEMAACNOR0114
012013092502BHGR3       010BHG         ON      NM   R$  000000000149900000000014990000000001449000000000146000000000014570000000001450000000000146500066000000000000036000000000000052576400000000000000009999123100000010000000000000BRBHGRACNOR9101
012013092502BICB4       010BICBANCO    PN      N1   R$  000000000046700000000004670000000000446000000000045100000000004490000000000448000000000045000381000000000000162400000000000073247100000000000000009999123100000010000000000000BRBICBACNPR7131
012013092596BICB4F      020BICBANCO    PN      N1   R$  000000000045700000000004940000000000450000000000045200000000004940000000000450000000000049400009000000000000000140000000000000063327000000000000009999123100000010000000000000BRBICBACNPR7131
012013092562BICB4T      030BICBANCO    PN      N1061R$  000000000045400000000004550000000000454000000000045400000000004550000000000000000000000000000002000000000000005000000000000002273376000000000000009999123100000010000000000000BRBICBACNPR7131
012013092596BIOM3F      020BIOMM       ON           R$  000000000085000000000009000000000000850000000000085300000000009000000000000881000000000094000002000000000000000046000000000000039250000000000000009999123100000010000000000000BRBIOMACNOR2101
012013092502BISA3       010BROOKFIELD  ON      NM   R$  000000000016600000000001730000000000165000000000016800000000001690000000000169000000000017003977000000000016606400000000002803694200000000000000009999123100000010000000000000BRBISAACNOR8109
012013092596BISA3F      020BROOKFIELD  ON      NM   R$  000000000016800000000001720000000000168000000000016900000000001720000000000169000000000017300022000000000000000581000000000000098665000000000000009999123100000010000000000000BRBISAACNOR8109
012013092562BISA3T      030BROOKFIELD  ON      NM016R$  000000000016900000000001700000000000169000000000016900000000001700000000000000000000000000000002000000000000044000000000000007467975000000000000009999123100000010000000000000BRBISAACNOR8109
012013092562BISA3T      030BROOKFIELD  ON      NM030R$  000000000017100000000001720000000000171000000000017100000000001720000000000000000000000000000002000000000000007000000000000001198568000000000000009999123100000010000000000000BRBISAACNOR8109
012013092562BISA3T      030BROOKFIELD  ON      NM045R$  000000000017100000000001720000000000171000000000017100000000001720000000000000000000000000000002000000000000005000000000000000859265000000000000009999123100000010000000000000BRBISAACNOR8109
012013092562BISA3T      030BROOKFIELD  ON      NM054R$  000000000017200000000001730000000000172000000000017200000000001730000000000000000000000000000002000000000000030000000000000005161710000000000000009999123100000010000000000000BRBISAACNOR8109
012013092562BISA3T      030BROOKFIELD  ON      NM061R$  000000000016900000000001720000000000169000000000017100000000001720000000000000000000000000000004000000000000025400000000000004350617000000000000009999123100000010000000000000BRBISAACNOR8109
012013092562BISA3T      030BROOKFIELD  ON      NM092R$  000000000017300000000001740000000000173000000000017300000000001740000000000000000000000000000002000000000000006000000000000001043868000000000000009999123100000010000000000000BRBISAACNOR8109
012013092502BMIN4       010MERC INVEST PN           R$  000000000002400000000000240000000000024000000000002400000000000240000000000023000000000002400003000000000000019000000000000000456000000000000000009999123100000010000000000000BRBMINACNPR1160
012013092596BMIN4F      020MERC INVEST PN           R$  000000000002700000000000270000000000027000000000002700000000000270000000000023000000000002700002000000000000000131000000000000003537000000000000009999123100000010000000000000BRBMINACNPR1160
012013092512BMLC11B     010FII BMBRC LCCI      MB   R$  000000001130100000000114300000000011301000000001141300000000114300000000011415000000001143000010000000000000000927000000000010580130000000000000009999123100000010000000000000BRBMLCCTF004119
012013092502BMTO3       010BRASMOTOR   ON           R$  000000000008100000000000810000000000081000000000008100000000000810000000000070000000000008200001000000000000001000000000000000081000000000000000009999123100000010000000000000BRBMTOACNOR9180
012013092502BMTO4       010BRASMOTOR   PN           R$  000000000008800000000000880000000000088000000000008800000000000880000000000086000000000008700001000000000000001000000000000000088000000000000000009999123100000010000000000000BRBMTOACNPR6065
012013092512BNFS11      010FII BANRISULCI           R$  000000000999500000000099950000000009994000000000999400000000099940000000009706000000000990000003000000000000000021000000000000209875000000000000009999123100000010000000000000BRBNFSCTF000112
012013092514BOVA11      010ISHARES BOVACI           R$  000000000535000000000053500000000005265000000000529400000000053030000000005303000000000530504025000000000000940840000000004980917780000000000000009999123100000010000000000000BRBOVACTF003101
012013092596BOVA11F     020ISHARES BOVACI           R$  000000000537000000000053720000000005270000000000532800000000052700000000005256000000000537800011000000000000000026000000000000138546000000000000009999123100000010000000000000BRBOVACTF003101
012013092512BPFF11      010FII ABSOLUTOCI           R$  000000000824000000000083250000000008240000000000827100000000083000000000008270000000000832500040000000000000007470000000000061787830000000000000009999123100000010000000000000BRBPFFCTF002105
012013092502BPHA3       010BR PHARMA   ON      NM   R$  000000000077600000000007780000000000745000000000075600000000007680000000000760000000000076802080000000000002974600000000002249210400000000000000009999123100000010000000000000BRBPHAACNOR6102
012013092596BPHA3F      020BR PHARMA   ON      NM   R$  000000000076100000000007650000000000750000000000075800000000007500000000000717000000000076900015000000000000000389000000000000294884000000000000009999123100000010000000000000BRBPHAACNOR6102
012013092562BPHA3T      030BR PHARMA   ON      NM061R$  000000000076100000000007620000000000761000000000076100000000007620000000000000000000000000000002000000000000004000000000000003045900000000000000009999123100000010000000000000BRBPHAACNOR6102
012013092502BPNM4       010PANAMERICANOPN      N1   R$  000000000051600000000005190000000000510000000000051200000000005100000000000510000000000051500057000000000000063100000000000032350300000000000000009999123100000010000000000000BRBPNMACNPR6111
012013092596BPNM4F      020PANAMERICANOPN      N1   R$  000000000051300000000005160000000000512000000000051200000000005120000000000500000000000051600006000000000000000074000000000000037929000000000000009999123100000010000000000000BRBPNMACNPR6111
012013092502BRAP3       010BRADESPAR   ON      N1   R$  000000000206500000000020650000000002055000000000206000000000020650000000002056000000000207000006000000000000003600000000000007419100000000000000009999123100000010000000000000BRBRAPACNOR5124
012013092596BRAP3F      020BRADESPAR   ON      N1   R$  000000000205500000000020990000000002054000000000205600000000020990000000002041000000000209900007000000000000000042000000000000086378000000000000009999123100000010000000000000BRBRAPACNOR5124
012013092502BRAP4       010BRADESPAR   PN      N1   R$  000000000251700000000025400000000002506000000000252400000000025210000000002521000000000252703774000000000000861500000000002174482300000000000000009999123100000010000000000000BRBRAPACNPR2124
012013092596BRAP4F      020BRADESPAR   PN      N1   R$  000000000252500000000025400000000002502000000000252300000000025050000000002505000000000258000028000000000000000527000000000001329747000000000000009999123100000010000000000000BRBRAPACNPR2124
012013092514BRAX11      010ISHARES BRAXCI           R$  000000000425000000000042500000000004250000000000425000000000042500000000000000000000000000000001000000000000000010000000000000042500000000000000009999123100000010000000000000BRBRAXCTF002100
012013092512BRCR11      010FII BC FUND CI           R$  000000001280000000000129000000000012700000000001276200000000128000000000012726000000001280000606000000000000050987000000000650737554000000000000009999123100000010000000000000BRBRCRCTF000133
012013092502BRFS3       010BRF SA      ON      NM   R$  000000000562100000000056830000000005541000000000558100000000055840000000005565000000000558408129000000000002224000000000012414144000000000000000009999123100000010000000000000BRBRFSACNOR8110
012013092596BRFS3F      020BRF SA      ON      NM   R$  000000000563000000000056870000000005546000000000559300000000055750000000005554000000000557500072000000000000001873000000000010476124000000000000009999123100000010000000000000BRBRFSACNOR8110
012013092562BRFS3T      030BRF SA      ON      NM016R$  000000000557700000000056090000000005577000000000560500000000056090000000000000000000000000000004000000000000012000000000000067266005000000000000009999123100000010000000000000BRBRFSACNOR8110
012013092562BRFS3T      030BRF SA      ON      NM030R$  000000000559600000000056000000000005596000000000559800000000056000000000000000000000000000000006000000000000004200000000000023515431000000000000009999123100000010000000000000BRBRFSACNOR8110
012013092562BRFS3T      030BRF SA      ON      NM047R$  000000000564100000000056420000000005641000000000564100000000056420000000000000000000000000000002000000000000000600000000000003384806000000000000009999123100000010000000000000BRBRFSACNOR8110
012013092562BRFS3T      030BRF SA      ON      NM092R$  000000000568600000000056870000000005686000000000568600000000056870000000000000000000000000000002000000000000001000000000000005686506000000000000009999123100000010000000000000BRBRFSACNOR8110
012013092562BRFS3T      030BRF SA      ON      NM120R$  000000000570300000000057040000000005703000000000570300000000057040000000000000000000000000000002000000000000001000000000000005703262000000000000009999123100000010000000000000BRBRFSACNOR8110
012013092578BRFSJ58     070BRFS        ON      NM000R$  000000000004300000000000430000000000043000000000004300000000000430000000000000000000000000000002000000000000004000000000000000172000000000000580002013102100000010000000000000BRBRFSACNOR8110
012013092578BRFSK60     070BRFS        ON      NM000R$  000000000004300000000000430000000000041000000000004100000000000410000000000000000000000000000002000000000000004000000000000000164200000000000600002013111800000010000000000000BRBRFSACNOR8110
012013092578BRFSL62     070BRFS        ON      NM000R$  000000000003800000000000380000000000038000000000003800000000000380000000000000000000000000000002000000000000004000000000000000152000000000000620002013121600000010000000000000BRBRFSACNOR8110
012013092502BRIN3       010BR INSURANCEON      NM   R$  000000000202000000000020200000000001978000000000199200000000019900000000001990000000000199500869000000000000441900000000000880496500000000000000009999123100000010000000000000BRBRINACNOR3106
012013092596BRIN3F      020BR INSURANCEON      NM   R$  000000000199100000000019970000000001981000000000198800000000019810000000001989000000000199400013000000000000000422000000000000839017000000000000009999123100000010000000000000BRBRINACNOR3106
012013092502BRKM3       010BRASKEM     ON      N1   R$  000000000124000000000012400000000001200000000000120900000000012000000000001200000000000122000018000000000000006400000000000007742300000000000000009999123100000010000000000000BRBRKMACNOR1110
012013092596BRKM3F      020BRASKEM     ON      N1   R$  000000000120000000000012000000000001176000000000117900000000011760000000001177000000000126200002000000000000000035000000000000041280000000000000009999123100000010000000000000BRBRKMACNOR1110
012013092502BRKM5       010BRASKEM     PNA     N1   R$  000000000179300000000018210000000001778000000000179500000000018030000000001797000000000180306741000000000001474100000000002647353900000000000000009999123100000010000000000000BRBRKMACNPA4110
012013092596BRKM5F      020BRASKEM     PNA     N1   R$  000000000180700000000018190000000001773000000000179400000000018190000000001772000000000181900019000000000000000780000000000001399983000000000000009999123100000010000000000000BRBRKMACNPA4110
012013092502BRML3       010BR MALLS PARON      NM   R$  000000000211300000000021200000000002045000000000206400000000020530000000002053000000000205807328000000000002801900000000005784330000000000000000009999123100000010000000000000BRBRMLACNOR9105
012013092596BRML3F      020BR MALLS PARON      NM   R$  000000000214800000000021480000000002049000000000206400000000020650000000002057000000000208100045000000000000001216000000000002509933000000000000009999123100000010000000000000BRBRMLACNOR9105
012013092562BRML3T      030BR MALLS PARON      NM030R$  000000000207200000000020830000000002070000000000207300000000020710000000000000000000000000000008000000000000004300000000000008914502000000000000009999123100000010000000000000BRBRMLACNOR9105
012013092578BRMLK52     070BRML        ON      NM000R$  000000000002000000000000200000000000020000000000002000000000000200000000000000000000000000000002000000000000005500000000000000110000000000000225002013111800000010000000000000BRBRMLACNOR9105
012013092582BRMLV20     080BRMLE       ON      NM000R$  000000000003500000000000350000000000035000000000003500000000000350000000000000000000000000000001000000000000000500000000000000017500000000000200002013102100000010000000000000BRBRMLACNOR9105
012013092502BRPR3       010BR PROPERT  ON      NM   R$  000000000197300000000020000000000001951000000000198800000000019990000000001993000000000199905336000000000001226400000000002438981800000000000000009999123100000010000000000000BRBRPRACNOR9112
012013092596BRPR3F      020BR PROPERT  ON      NM   R$  000000000198600000000019990000000001959000000000196900000000019990000000001977000000000199900022000000000000000638000000000001256514000000000000009999123100000010000000000000BRBRPRACNOR9112
012013092502BRSR3       010BANRISUL    ON      N1   R$  000000000141300000000014130000000001413000000000141300000000014130000000001300000000000141400001000000000000000100000000000000141300000000000000009999123100000010000000000000BRBRSRACNOR3131
012013092596BRSR3F      020BANRISUL    ON      N1   R$  000000000131000000000014130000000001310000000000136100000000014130000000001413000000000150000002000000000000000006000000000000008169000000000000009999123100000010000000000000BRBRSRACNOR3131
012013092596BRSR5F      020BANRISUL    PNA     N1   R$  000000000150000000000015000000000001500000000000150000000000015000000000001520000000000190000003000000000000000044000000000000066000000000000000009999123100000010000000000000BRBRSRACNPA6135
012013092502BRSR6       010BANRISUL    PNB     N1   R$  000000000158400000000015900000000001535000000000156600000000015650000000001565000000000157803683000000000001023500000000001603578200000000000000009999123100000010000000000000BRBRSRACNPB4134
012013092596BRSR6F      020BANRISUL    PNB     N1   R$  000000000158900000000015890000000001502000000000155200000000015890000000001570000000000158500024000000000000000759000000000001178335000000000000009999123100000010000000000000BRBRSRACNPB4134
012013092502BSEV3       010BIOSEV      ON      NM   R$  000000000078900000000007970000000000789000000000079600000000007970000000000800000000000082000002000000000000001100000000000000875900000000000000009999123100000010000000000000BRBSEVACNOR3100
012013092596BSEV3F      020BIOSEV      ON      NM   R$  000000000078900000000007900000000000789000000000078900000000007900000000000712000000000080000003000000000000000043000000000000033937000000000000009999123100000010000000000000BRBSEVACNOR3100
012013092502BTOW3       010B2W DIGITAL ON      NM   R$  000000000147000000000015040000000001442000000000147800000000014990000000001498000000000149901571000000000000619500000000000916216500000000000000009999123100000010000000000000BRBTOWACNOR8105
012013092596BTOW3F      020B2W DIGITAL ON      NM   R$  000000000147000000000015010000000001449000000000147600000000015010000000001472000000000150100031000000000000001031000000000001523078000000000000009999123100000010000000000000BRBTOWACNOR8105
012013092562BTOW3T      030B2W DIGITAL ON      NM030R$  000000000146500000000014660000000001460000000000146100000000014610000000000000000000000000000004000000000000016700000000000024402409000000000000009999123100000010000000000000BRBTOWACNOR8105
012013092562BTOW3T      030B2W DIGITAL ON      NM120R$  000000000152000000000015210000000001520000000000152000000000015210000000000000000000000000000002000000000000001000000000000001520283000000000000009999123100000010000000000000BRBTOWACNOR8105
012013092502BTTL3       010BATTISTELLA ON           R$  000000000008000000000000930000000000080000000000008100000000000930000000000081000000000009400004000000000000007100000000000000576800000000000000009999123100000010000000000000BRBTTLACNOR0105
012013092502BTTL4       010BATTISTELLA PN           R$  000000000010000000000001010000000000099000000000009900000000001000000000000100000000000010300016000000000000021500000000000002146100000000000000009999123100000010000000000000BRBTTLACNPR7105
012013092502BVMF3       010BMFBOVESPA  ON      NM   R$  000000000127300000000012940000000001269000000000128800000000012900000000001289000000000129011630000000000006372400000000008212286100000000000000009999123100000010000000000000BRBVMFACNOR3126
012013092596BVMF3F      020BMFBOVESPA  ON      NM   R$  000000000127400000000012930000000001269000000000128400000000012710000000001271000000000129100079000000000000002430000000000003120163000000000000009999123100000010000000000000BRBVMFACNOR3126
012013092578BVMFA12     070BVMF        ON      NM000R$  000000000014600000000001460000000000146000000000014600000000001460000000000000000000000000000001000000000000000500000000000000073000000000000120002014012000000010000000000000BRBVMFACNOR3126
012013092578BVMFA13     070BVMF        ON      NM000R$  000000000009500000000000950000000000095000000000009500000000000950000000000000000000000000000001000000000000000500000000000000047500000000000130002014012000000010000000000000BRBVMFACNOR3126
012013092578BVMFJ12     070BVMF        ON      NM000R$  000000000010600000000001180000000000106000000000011500000000001180000000000108000000000011900023000000000000049400000000000005686000000000000118502013102100000010000000000000BRBVMFACNOR3125
012013092578BVMFJ13     070BVMF  FM    ON      NM000R$  000000000003900000000000420000000000038000000000004000000000000410000000000039000000000004100101000000000000187600000000000007554000000000000128502013102100000010000000000000BRBVMFACNOR3125
012013092578BVMFJ14     070BVMF  FM    ON      NM000R$  000000000000800000000000100000000000007000000000000800000000000090000000000009000000000001000029000000000000080500000000000000716800000000000138502013102100000010000000000000BRBVMFACNOR3125
012013092578BVMFJ15     070BVMF        ON      NM000R$  000000000000200000000000020000000000002000000000000200000000000020000000000001000000000000200003000000000000040000000000000000080000000000000148502013102100000010000000000000BRBVMFACNOR3125
012013092578BVMFJ42     070BVMF  FM    ON      NM000R$  000000000007400000000000750000000000071000000000007300000000000750000000000072000000000123500021000000000000050500000000000003718700000000000123502013102100000010000000000000BRBVMFACNOR3125
012013092578BVMFJ43     070BVMF  FM    ON      NM000R$  000000000002000000000000200000000000020000000000002000000000000200000000000016000000000002000001000000000000000600000000000000012000000000000133502013102100000010000000000000BRBVMFACNOR3125
012013092578BVMFK12     070BVMF        ON      NM000R$  000000000013500000000001350000000000135000000000013500000000001350000000000099000000000013900001000000000000005000000000000000675000000000000118502013111800000010000000000000BRBVMFACNOR3125
012013092578BVMFK13     070BVMF  FM    ON      NM000R$  000000000006200000000000630000000000057000000000006000000000000610000000000000000000000006300071000000000000118300000000000007107600000000000128502013111800000010000000000000BRBVMFACNOR3125
012013092578BVMFK14     070BVMF  FM    ON      NM000R$  000000000001900000000000200000000000017000000000001900000000000190000000000010000000000001900063000000000000110400000000000002135900000000000138502013111800000010000000000000BRBVMFACNOR3125
012013092578BVMFK42     070BVMF  FM    ON      NM000R$  000000000008600000000000860000000000086000000000008600000000000860000000000000000000000000000002000000000000003600000000000000309600000000000125002013111800000010000000000000BRBVMFACNOR3126
012013092578BVMFK43     070BVMF  FM    ON      NM000R$  000000000003200000000000320000000000030000000000003000000000000300000000000000000000000003100003000000000000004400000000000000133400000000000135002013111800000010000000000000BRBVMFACNOR3126
012013092578BVMFL13     070BVMF        ON      NM000R$  000000000008000000000000800000000000080000000000008000000000000800000000000080000000000008400001000000000000000300000000000000024000000000000128502013121600000010000000000000BRBVMFACNOR3125
012013092578BVMFL14     070BVMF        ON      NM000R$  000000000003700000000000370000000000037000000000003700000000000370000000000015000000000003900001000000000000000100000000000000003700000000000137402013121600000010000000000000BRBVMFACNOR3124
012013092582BVMFV12     080BVMFE FM    ON      NM000R$  000000000001100000000000110000000000006000000000000700000000000060000000000005000000000000600026000000000000028000000000000000196900000000000118502013102100000010000000000000BRBVMFACNOR3125
012013092582BVMFV13     080BVMFE FM    ON      NM000R$  000000000003100000000000360000000000030000000000003200000000000300000000000029000000000003300031000000000000057800000000000001858500000000000128502013102100000010000000000000BRBVMFACNOR3125
012013092582BVMFV42     080BVMFE FM    ON      NM000R$  000000000001700000000000170000000000016000000000001600000000000160000000000013000000000002400006000000000000012000000000000000200000000000000123502013102100000010000000000000BRBVMFACNOR3125
012013092582BVMFV43     080BVMFE FM    ON      NM000R$  000000000006000000000000630000000000060000000000006100000000000620000000000000000000000000000004000000000000012200000000000000750100000000000133502013102100000010000000000000BRBVMFACNOR3125
012013092582BVMFW12     080BVMFE FM    ON      NM000R$  000000000001900000000000200000000000019000000000001900000000000200000000000016000000000002500002000000000000004000000000000000076500000000000118502013111800000010000000000000BRBVMFACNOR3125
012013092582BVMFW13     080BVMFE FM    ON      NM000R$  000000000004500000000000460000000000045000000000004500000000000460000000000000000000000025000003000000000000005500000000000000249500000000000128502013111800000010000000000000BRBVMFACNOR3125
012013092582BVMFW42     080BVMFE FM    ON      NM000R$  000000000003200000000000330000000000032000000000003200000000000330000000000000000000000000000013000000000000022000000000000000724200000000000125002013111800000010000000000000BRBVMFACNOR3126
012013092582BVMFW43     080BVMFE FM    ON      NM000R$  000000000007700000000000770000000000077000000000007700000000000770000000000000000000000000000001000000000000003500000000000000269500000000000135002013111800000010000000000000BRBVMFACNOR3126
012013092502CAMB4       010CAMBUCI     PN           R$  000000000018300000000001950000000000182000000000018200000000001950000000000182000000000019600004000000000000002900000000000000530100000000000000009999123100000010000000000000BRCAMBACNPR1117
012013092596CAMB4F      020CAMBUCI     PN           R$  000000000017600000000001760000000000176000000000017600000000001760000000000175000000000025000001000000000000000001000000000000000176000000000000009999123100000010000000000000BRCAMBACNPR1117
012013092502CARD3       010CSU CARDSYSTON      NM   R$  000000000031200000000003190000000000312000000000031600000000003190000000000313000000000031900012000000000000005900000000000001865800000000000000009999123100000010000000000000BRCARDACNOR9105
012013092596CARD3F      020CSU CARDSYSTON      NM   R$  000000000031500000000003150000000000314000000000031400000000003140000000000303000000000031400003000000000000000030000000000000009435000000000000009999123100000010000000000000BRCARDACNOR9105
012013092502CBEE3       010AMPLA ENERG ON *         R$  000000000013000000000001300000000000130000000000013000000000001300000000000127000000000013000003000000000000700000000000000000091000000000000000009999123100010000000000000000BRCBEEACNOR3149
012013092596CBMA3F      020COBRASMA    ON           R$  000000000000500000000000050000000000005000000000000500000000000050000000000004000000000000500001000000000000000001000000000000000005000000000000009999123100000010000000000000BRCBMAACNOR4124
012013092596CBMA4F      020COBRASMA    PN           R$  000000000000400000000000040000000000004000000000000400000000000040000000000003000000000000400001000000000000000001000000000000000004000000000000009999123100000010000000000000BRCBMAACNPR1124
012013092508CCHI3       010CHIARELLI   ON           R$  000000000001700000000000190000000000017000000000001700000000000170000000000017000000000001800029000000000000580000000000000010220000000000000000009999123100000010000000000000BRCCHIACNOR5123
012013092596CCHI3F      020CHIARELLI   ON           R$  000000000001700000000000170000000000017000000000001700000000000170000000000017000000000001800002000000000000007000000000000000119000000000000000009999123100000010000000000000BRCCHIACNOR5123
012013092508CCHI4       010CHIARELLI   PN           R$  000000000001200000000000120000000000012000000000001200000000000120000000000012000000000001300003000000000000040000000000000000480000000000000000009999123100000010000000000000BRCCHIACNPR2122
012013092596CCHI4F      020CHIARELLI   PN           R$  000000000001100000000000110000000000011000000000001100000000000110000000000011000000000001300002000000000000005000000000000000055000000000000000009999123100000010000000000000BRCCHIACNPR2122
012013092502CCPR3       010CYRE COM-CCPON      NM   R$  000000000207200000000021330000000002072000000000209900000000021000000000002071000000000214800020000000000000005400000000000011337700000000000000009999123100000010000000000000BRCCPRACNOR9107
012013092596CCPR3F      020CYRE COM-CCPON      NM   R$  000000000206300000000020630000000002062000000000206200000000020620000000002010000000000228500002000000000000000035000000000000072195000000000000009999123100000010000000000000BRCCPRACNOR9107
012013092502CCRO3       010CCR SA      ON      NM   R$  000000000185100000000018510000000001803000000000181700000000018200000000001820000000000182109427000000000003979400000000007230626000000000000000009999123100000010000000000000BRCCROACNOR2122
012013092596CCRO3F      020CCR SA      ON      NM   R$  000000000184400000000018440000000001801000000000181900000000018400000000001801000000000184000079000000000000002243000000000004081940000000000000009999123100000010000000000000BRCCROACNOR2122
012013092562CCRO3T      030CCR SA      ON      NM016R$  000000000182700000000018310000000001827000000000182800000000018310000000000000000000000000000004000000000000003000000000000005485844000000000000009999123100000010000000000000BRCCROACNOR2122
012013092562CCRO3T      030CCR SA      ON      NM030R$  000000000182300000000018240000000001823000000000182300000000018240000000000000000000000000000002000000000000000100000000000000182321000000000000009999123100000010000000000000BRCCROACNOR2122
012013092562CCRO3T      030CCR SA      ON      NM058R$  000000000183200000000018330000000001832000000000183200000000018330000000000000000000000000000002000000000000001300000000000002382782000000000000009999123100000010000000000000BRCCROACNOR2122
012013092562CCRO3T      030CCR SA      ON      NM061R$  000000000186500000000018660000000001865000000000186500000000018660000000000000000000000000000002000000000000002000000000000003731520000000000000009999123100000010000000000000BRCCROACNOR2122
012013092578CCROJ79     070CCROE       ON      NM000R$  000000000001400000000000160000000000014000000000001400000000000160000000000000000000000000000003000000000000490000000000000007007000000000000192502013102100000010000000000000BRCCROACNOR2122
012013092502CCXC3       010CCX CARVAO  ON      NM   R$  000000000013400000000001410000000000130000000000013500000000001330000000000132000000000013303707000000000010214000000000001384639200000000000000009999123100000010000000000000BRCCXCACNOR5100
012013092596CCXC3F      020CCX CARVAO  ON      NM   R$  000000000013600000000001360000000000134000000000013500000000001340000000000131000000000014200004000000000000000068000000000000009218000000000000009999123100000010000000000000BRCCXCACNOR5100
012013092562CCXC3T      030CCX CARVAO  ON      NM016R$  000000000013300000000001340000000000133000000000013300000000001340000000000000000000000000000002000000000000050000000000000006679925000000000000009999123100000010000000000000BRCCXCACNOR5100
012013092562CCXC3T      030CCX CARVAO  ON      NM030R$  000000000014000000000001410000000000140000000000014000000000001410000000000000000000000000000006000000000000050000000000000007000040000000000000009999123100000010000000000000BRCCXCACNOR5100
012013092596CELP3F      020CELPA       ON           R$  000000000007100000000000740000000000071000000000007300000000000740000000000070000000000010000002000000000000000082000000000000006035000000000000009999123100000010000000000000BRCELPACNOR8112
012013092512CEOC11B     010FII CEO CCP CI      MB   R$  000000000850500000000086500000000008505000000000858700000000085130000000008513000000000861300021000000000000001697000000000014572967000000000000009999123100000010000000000000BRCEOCCTF003110
012013092502CEPE5       010CELPE       PNA          R$  000000000210000000000021000000000002100000000000210000000000021000000000002000000000000210000001000000000000000100000000000000210000000000000000009999123100000010000000000000BRCEPEACNPA6151
012013092502CESP3       010CESP        ON      N1   R$  000000000185000000000019000000000001850000000000187400000000019000000000001860000000000190000006000000000000001300000000000002437000000000000000009999123100000010000000000000BRCESPACNOR3160
012013092502CESP5       010CESP        PNA     N1   R$  000000000239000000000023900000000002390000000000239000000000023900000000002300000000000242000001000000000000000100000000000000239000000000000000009999123100000010000000000000BRCESPACNPA6108
012013092502CESP6       010CESP        PNB     N1   R$  000000000240600000000024280000000002377000000000240500000000024000000000002392000000000240202884000000000001761600000000004237830700000000000000009999123100000010000000000000BRCESPACNPB4119
012013092596CESP6F      020CESP        PNB     N1   R$  000000000242000000000024470000000002391000000000240600000000024470000000002376000000000244700010000000000000000353000000000000849467000000000000009999123100000010000000000000BRCESPACNPB4119
012013092578CESPJ22     070CESP        PNB     N1000R$  000000000021900000000002190000000000219000000000021900000000002190000000000000000000000000000001000000000000435000000000000095265000000000000220002013102100000010000000000000BRCESPACNPB4119
012013092582CESPV50     080CESPE       PNB     N1000R$  000000000000100000000000010000000000001000000000000100000000000010000000000000000000000000000002000000000000435000000000000000435000000000000205002013102100000010000000000000BRCESPACNPB4119
012013092502CGAS5       010COMGAS      PNA          R$  000000000582100000000059150000000005811000000000587600000000059100000000005890000000000591700049000000000000007100000000000041720600000000000000009999123100000010000000000000BRCGASACNPA3129
012013092596CGAS5F      020COMGAS      PNA          R$  000000000590000000000059050000000005900000000000590200000000059050000000006000000000000609800003000000000000000021000000000000123950000000000000009999123100000010000000000000BRCGASACNPA3129
012013092502CGRA3       010GRAZZIOTIN  ON           R$  000000000165000000000016500000000001650000000000165000000000016500000000001625000000000165000001000000000000000200000000000000330000000000000000009999123100000010000000000000BRCGRAACNOR2061
012013092502CGRA4       010GRAZZIOTIN  PN           R$  000000000177600000000017760000000001745000000000175600000000017580000000001701000000000175900015000000000000003600000000000006322400000000000000009999123100000010000000000000BRCGRAACNPR9061
012013092502CIEL3       010CIELO       ON  EDJ NM   R$  000000000571700000000057740000000005620000000000573200000000057600000000005756000000000576004397000000000000957500000000005489103900000000000000009999123100000010000000000000BRCIELACNOR3112
012013092596CIEL3F      020CIELO       ON  EDJ NM   R$  000000000572000000000057640000000005640000000000572300000000057570000000005710000000000575700143000000000000003553000000000020335342000000000000009999123100000010000000000000BRCIELACNOR3112
012013092562CIEL3T      030CIELO       ON  EDJ NM016R$  000000000579200000000057930000000005731000000000576500000000057320000000000000000000000000000004000000000000000900000000000005188896000000000000009999123100000010000000000000BRCIELACNOR3112
012013092562CIEL3T      030CIELO       ON  EDJ NM103R$  000000000587400000000058750000000005874000000000587400000000058750000000000000000000000000000002000000000000002700000000000015860297000000000000009999123100000010000000000000BRCIELACNOR3112
012013092578CIELJ59     070CIEL    /EDJON      NM000R$  000000000008800000000000880000000000088000000000008800000000000880000000000000000000000000000001000000000000000100000000000000008800000000000579402013102100000010000000000000BRCIELACNOR3111
012013092502CLSC4       010CELESC      PN      N2   R$  000000000179000000000017900000000001775000000000178400000000017890000000001775000000000180000080000000000000019100000000000034089300000000000000009999123100000010000000000000BRCLSCACNPR3107
012013092596CLSC4F      020CELESC      PN      N2   R$  000000000175100000000017510000000001751000000000175100000000017510000000001750000000000178500019000000000000000019000000000000033269000000000000009999123100000010000000000000BRCLSCACNPR3107
012013092502CMIG3       010CEMIG       ON      N1   R$  000000000189400000000019020000000001880000000000188800000000019020000000001891000000000190300187000000000000083500000000000157722900000000000000009999123100000010000000000000BRCMIGACNOR6208
012013092596CMIG3F      020CEMIG       ON      N1   R$  000000000189400000000019460000000001880000000000189400000000019040000000001896000000000194700027000000000000000778000000000001474241000000000000009999123100000010000000000000BRCMIGACNOR6208
012013092502CMIG4       010CEMIG       PN      N1   R$  000000000191300000000019300000000001909000000000192000000000019230000000001920000000000192308283000000000003663900000000007035097000000000000000009999123100000010000000000000BRCMIGACNPR3208
012013092596CMIG4F      020CEMIG       PN      N1   R$  000000000192200000000019300000000001909000000000192100000000019300000000001915000000000193000171000000000000004796000000000009215631000000000000009999123100000010000000000000BRCMIGACNPR3208
012013092562CMIG4S      030CEMIG       PN      N1061R$  000000000194100000000019420000000001941000000000194100000000019420000000000000000000000000000002000000000000016000000000000031066176000000000000009999123100000010000000000000BRCMIGACNPR3208
012013092562CMIG4T      030CEMIG       PN      N1061R$  000000000194800000000019490000000001948000000000194800000000019490000000000000000000000000000002000000000000003000000000000005846242000000000000009999123100000010000000000000BRCMIGACNPR3208
012013092562CMIG4T      030CEMIG       PN      N1092R$  000000000196900000000019700000000001969000000000196900000000019700000000000000000000000000000002000000000000006000000000000011815761000000000000009999123100000010000000000000BRCMIGACNPR3208
012013092562CMIG4T      030CEMIG       PN      N1016R$  000000000193300000000019340000000001933000000000193300000000019340000000000000000000000000000002000000000000007000000000000013532943000000000000009999123100000010000000000000BRCMIGACNPR3208
012013092562CMIG4T      030CEMIG       PN      N1020R$  000000000193500000000019360000000001935000000000193500000000019360000000000000000000000000000002000000000000000100000000000000193501000000000000009999123100000010000000000000BRCMIGACNPR3208
012013092582CMIGX19     080CMIGE       PN      N1000R$  000000000005400000000000540000000000054000000000005400000000000540000000000000000000000000000002000000000000150000000000000008100000000000000190002013121600000010000000000000BRCMIGACNPR3208
012013092512CNES11B     010FII CENESP  CI  ER  MB   R$  000000001222000000000122200000000012200000000001221900000000122200000000012210000000001222000007000000000000000783000000000009567568000000000000009999123100000010000000000000BRCNESCTF001126
012013092502COCA34      010COCA COLA   DRN          R$  000000000852700000000085270000000008527000000000852700000000085270000000008456000000000879400001000000000000000200000000000001705400000000000000009999123100000010000000000000BRCOCABDR002109
012013092502COCE3       010COELCE      ON           R$  000000000411800000000041750000000004025000000000410200000000041480000000004001000000000414900032000000000000008100000000000033229400000000000000009999123100000010000000000000BRCOCEACNOR0132
012013092502COCE5       010COELCE      PNA          R$  000000000390500000000039690000000003840000000000390700000000039050000000003905000000000391400337000000000000357000000000001394956900000000000000009999123100000010000000000000BRCOCEACNPA3133
012013092596COCE5F      020COELCE      PNA          R$  000000000396900000000039980000000003890000000000394600000000038900000000003859000000000389000022000000000000000394000000000001555019000000000000009999123100000010000000000000BRCOCEACNPA3133
012013092502CPFE3       010CPFL ENERGIAON      NM   R$  000000000193600000000019450000000001917000000000193500000000019340000000001934000000000193503692000000000001286100000000002488616100000000000000009999123100000010000000000000BRCPFEACNOR0122
012013092596CPFE3F      020CPFL ENERGIAON      NM   R$  000000000194000000000019590000000001913000000000193300000000019300000000001925000000000196000017000000000000000371000000000000717421000000000000009999123100000010000000000000BRCPFEACNOR0122
012013092578CPFEJ20     070CPFE        ON      NM000R$  000000000002400000000000240000000000024000000000002400000000000240000000000000000000000000000002000000000000070000000000000001680000000000000200002013102100000010000000000000BRCPFEACNOR0122
012013092502CPLE3       010COPEL       ON      N1   R$  000000000217700000000022800000000002176000000000219200000000022130000000002166000000000221300116000000000000200500000000000439680100000000000000009999123100000010000000000000BRCPLEACNOR8128
012013092596CPLE3F      020COPEL       ON      N1   R$  000000000229500000000022950000000002295000000000229500000000022950000000002190000000000229000002000000000000000058000000000000133110000000000000009999123100000010000000000000BRCPLEACNOR8128
012013092502CPLE6       010COPEL       PNB     N1   R$  000000000303100000000030940000000003031000000000308200000000030940000000003079000000000309402378000000000000764700000000002357202200000000000000009999123100000010000000000000BRCPLEACNPB9125
012013092596CPLE6F      020COPEL       PNB     N1   R$  000000000298000000000031490000000002980000000000304400000000031000000000003050000000000315000019000000000000000378000000000001150734000000000000009999123100000010000000000000BRCPLEACNPB9125
012013092502CPRE3       010CPFL RENOVAVON      NM   R$  000000000127200000000012720000000001254000000000126300000000012670000000001200000000000126700010000000000000001300000000000001642300000000000000009999123100000010000000000000BRCPREACNOR5100
012013092596CPRE3F      020CPFL RENOVAVON      NM   R$  000000000123900000000012740000000001239000000000126000000000012740000000001110000000000125400002000000000000000100000000000000126035000000000000009999123100000010000000000000BRCPREACNOR5100
012013092502CRDE3       010CR2         ON      NM   R$  000000000041600000000004160000000000416000000000041600000000004160000000000411000000000042000002000000000000001500000000000000624000000000000000009999123100000010000000000000BRCRDEACNOR1108
012013092502CREM3       010CREMER      ON      NM   R$  000000000149400000000015330000000001486000000000150500000000015040000000001504000000000152200017000000000000004900000000000007376900000000000000009999123100000010000000000000BRCREMACNOR2167
012013092596CREM3F      020CREMER      ON      NM   R$  000000000152200000000015220000000001522000000000152200000000015220000000001442000000000152100001000000000000000079000000000000120238000000000000009999123100000010000000000000BRCREMACNOR2167
012013092502CRIV4       010ALFA FINANC PN           R$  000000000043900000000004490000000000436000000000043900000000004490000000000437000000000044900011000000000000006900000000000003033100000000000000009999123100000010000000000000BRCRIVACNPR1190
012013092502CRUZ3       010SOUZA CRUZ  ON  EDJ      R$  000000000263000000000026530000000002602000000000263800000000026520000000002650000000000265203648000000000001080800000000002852062600000000000000009999123100000010000000000000BRCRUZACNOR0248
012013092596CRUZ3F      020SOUZA CRUZ  ON  EDJ      R$  000000000260000000000026550000000002600000000000262800000000026530000000002605000000000265200059000000000000001580000000000004153027000000000000009999123100000010000000000000BRCRUZACNOR0248
012013092562CRUZ3T      030SOUZA CRUZ  ON  EDJ   092R$  000000000268300000000026840000000002683000000000268300000000026840000000000000000000000000000002000000000000000150000000000000402518000000000000009999123100000010000000000000BRCRUZACNOR0248
012013092502CSAN3       010COSAN       ON      NM   R$  000000000432500000000044160000000004325000000000438200000000043800000000004372000000000438007800000000000001699800000000007448620800000000000000009999123100000010000000000000BRCSANACNOR6108
012013092596CSAN3F      020COSAN       ON      NM   R$  000000000436000000000044150000000004300000000000438000000000043800000000004360000000000438900096000000000000002605000000000011413009000000000000009999123100000010000000000000BRCSANACNOR6108
012013092562CSAN3T      030COSAN       ON      NM030R$  000000000441700000000044180000000004417000000000441700000000044180000000000000000000000000000002000000000000110000000000000485963121000000000000009999123100000010000000000000BRCSANACNOR6108
012013092582CSANX42     080CSANE       ON      NM000R$  000000000007200000000000720000000000072000000000007200000000000720000000000000000000000000000003000000000000070000000000000005040000000000000420002013121600000010000000000000BRCSANACNOR6108
012013092502CSCO34      010CISCO       DRN          R$  000000000544500000000054450000000005445000000000544500000000054450000000005333000000000557100001000000000000001000000000000005445000000000000000009999123100000010000000000000BRCSCOBDR004110
012013092502CSMG3       010COPASA      ON  EJ  NM   R$  000000000343100000000034850000000003425000000000346600000000034830000000003452000000000348300710000000000000109500000000000379555100000000000000009999123100000010000000000000BRCSMGACNOR5128
012013092596CSMG3F      020COPASA      ON  EJ  NM   R$  000000000344000000000034990000000003401000000000345700000000034780000000003430000000000349000011000000000000000290000000000001002722000000000000009999123100000010000000000000BRCSMGACNOR5128
012013092514CSMO11      010ISHARES CSMOCI           R$  000000000483000000000048600000000004830000000000484300000000048360000000004600000000000610000003000000000000000120000000000000581220000000000000009999123100000010000000000000BRCSMOCTF002100
012013092502CSNA3       010SID NACIONALON           R$  000000000094000000000009460000000000930000000000094000000000009450000000000943000000000094507789000000000006748600000000006344331300000000000000009999123100000010000000000000BRCSNAACNOR6243
012013092596CSNA3F      020SID NACIONALON           R$  000000000093500000000009460000000000933000000000094000000000009460000000000942000000000094600075000000000000001988000000000001870239000000000000009999123100000010000000000000BRCSNAACNOR6243
012013092562CSNA3T      030SID NACIONALON        061R$  000000000095000000000009510000000000950000000000095000000000009510000000000000000000000000000002000000000000004800000000000004563633000000000000009999123100000010000000000000BRCSNAACNOR6243
012013092562CSNA3T      030SID NACIONALON        090R$  000000000096300000000009640000000000963000000000096300000000009640000000000000000000000000000002000000000000000500000000000000481590000000000000009999123100000010000000000000BRCSNAACNOR6243
012013092562CSNA3T      030SID NACIONALON        120R$  000000000096600000000009670000000000966000000000096600000000009670000000000000000000000000000002000000000000020000000000000019330160000000000000009999123100000010000000000000BRCSNAACNOR6243
012013092562CSNA3T      030SID NACIONALON        180R$  000000000098500000000009860000000000985000000000098500000000009860000000000000000000000000000002000000000000000400000000000000394128000000000000009999123100000010000000000000BRCSNAACNOR6243
012013092578CSNAJ10     070CSNA  FM    ON        000R$  000000000002000000000000200000000000019000000000001900000000000190000000000000000000000004500003000000000000015000000000000000296500000000000100002013102100000010000000000000BRCSNAACNOR6243
012013092578CSNAJ40     070CSNA        ON        000R$  000000000000900000000000110000000000009000000000001000000000000110000000000004000000000000000002000000000000015700000000000000171300000000000104002013102100000010000000000000BRCSNAACNOR6243
012013092578CSNAJ60     070CSNA        ON        000R$  000000000000800000000000080000000000008000000000000800000000000080000000000000000000000001000013000000000000020000000000000000160000000000000106002013102100000010000000000000BRCSNAACNOR6243
012013092578CSNAJ8      070CSNA        ON        000R$  000000000016000000000001700000000000160000000000016700000000001700000000000000000000000019500003000000000000000400000000000000066900000000000078002013102100000010000000000000BRCSNAACNOR6242
012013092578CSNAJ82     070CSNA        ON        000R$  000000000015000000000001500000000000150000000000015000000000001500000000000000000000000000000001000000000000001000000000000000150000000000000080002013102100000010000000000000BRCSNAACNOR6242
012013092578CSNAJ9      070CSNA        ON        000R$  000000000008200000000000850000000000082000000000008300000000000850000000000073000000000010500002000000000000001500000000000000124500000000000088002013102100000010000000000000BRCSNAACNOR6242
012013092578CSNAJ92     070CSNA  FM    ON        000R$  000000000005700000000000590000000000057000000000005800000000000590000000000000000000000000000002000000000000003500000000000000204500000000000092002013102100000010000000000000BRCSNAACNOR6243
012013092578CSNAJ94     070CSNA  FM    ON        000R$  000000000004200000000000480000000000042000000000004700000000000480000000000000000000000006000007000000000000015700000000000000741400000000000094002013102100000010000000000000BRCSNAACNOR6243
012013092578CSNAJ96     070CSNA  FM    ON        000R$  000000000003700000000000380000000000036000000000003600000000000380000000000000000000000000000016000000000000056800000000000002089600000000000096002013102100000010000000000000BRCSNAACNOR6243
012013092578CSNAK10     070CSNA  FM    ON        000R$  000000000005100000000000510000000000051000000000005100000000000510000000000000000000000000000001000000000000000200000000000000010200000000000098002013111800000010000000000000BRCSNAACNOR6242
012013092578CSNAK9      070CSNA        ON        000R$  000000000009200000000000920000000000092000000000009200000000000920000000000000000000000000000002000000000000001500000000000000138000000000000090002013111800000010000000000000BRCSNAACNOR6243
012013092578CSNAK94     070CSNA  FM    ON        000R$  000000000006600000000000660000000000066000000000006600000000000660000000000000000000000000000001000000000000001000000000000000066000000000000094002013111800000010000000000000BRCSNAACNOR6243
012013092582CSNAV10     080CSNAE       ON        000R$  000000000007900000000000790000000000074000000000007600000000000740000000000074000000000009000076000000000000012400000000000000946100000000000100002013102100000010000000000000BRCSNAACNOR6243
012013092582CSNAV9      080CSNAE FM    ON        000R$  000000000002100000000000210000000000020000000000002000000000000200000000000019000000000002900007000000000000002400000000000000049000000000000088002013102100000010000000000000BRCSNAACNOR6242
012013092582CSNAV92     080CSNAE FM    ON        000R$  000000000003200000000000320000000000031000000000003100000000000310000000000000000000000000000007000000000000014000000000000000438000000000000092002013102100000010000000000000BRCSNAACNOR6243
012013092582CSNAV94     080CSNAE FM    ON        000R$  000000000003900000000000390000000000039000000000003900000000000390000000000000000000000000000002000000000000004000000000000000156000000000000094002013102100000010000000000000BRCSNAACNOR6243
012013092502CTAX11      010CONTAX      UNT     N2   R$  000000000191800000000019180000000001871000000000189800000000019000000000001891000000000191900102000000000000081900000000000155498100000000000000009999123100000010000000000000BRCTAXCDAM19100
012013092502CTAX3       010CONTAX      ON      N2   R$  000000000038400000000003840000000000380000000000038300000000003800000000000354000000000038500003000000000000001000000000000000383600000000000000009999123100000010000000000000BRCTAXACNOR3113
012013092502CTAX4       010CONTAX      PN      N2   R$  000000000037600000000003900000000000372000000000038100000000003900000000000379000000000039100160000000000000050600000000000019313600000000000000009999123100000010000000000000BRCTAXACNPR0114
012013092596CTAX4F      020CONTAX      PN      N2   R$  000000000038300000000003830000000000379000000000038100000000003810000000000343000000000043400003000000000000000200000000000000076224000000000000009999123100000010000000000000BRCTAXACNPR0114
012013092502CTIP3       010CETIP       ON  EJ  NM   R$  000000000234700000000023550000000002312000000000233700000000023550000000002352000000000235604239000000000001796300000000004199309100000000000000009999123100000010000000000000BRCTIPACNOR2120
012013092596CTIP3F      020CETIP       ON  EJ  NM   R$  000000000235000000000024110000000002322000000000233400000000023400000000002340000000000236100034000000000000001395000000000003256509000000000000009999123100000010000000000000BRCTIPACNOR2120
012013092562CTIP3T      030CETIP       ON  EJ  NM016R$  000000000234800000000023490000000002348000000000234800000000023490000000000000000000000000000002000000000000001000000000000002348076000000000000009999123100000010000000000000BRCTIPACNOR2120
012013092502CTKA4       010KARSTEN     PN           R$  000000000009500000000001040000000000091000000000009400000000000990000000000093000000000009900051000000000000009100000000000000860500000000000000009999123100000010000000000000BRCTKAACNPR7041
012013092502CTNM4       010COTEMINAS   PN           R$  000000000022400000000002280000000000214000000000021900000000002220000000000214000000000022100032000000000000040900000000000008960900000000000000009999123100000010000000000000BRCTNMACNPR6128
012013092502CTSA3       010SANTANENSE  ON           R$  000000000057500000000005750000000000574000000000057400000000005740000000000549000000000057400002000000000000001300000000000000746300000000000000009999123100000010000000000000BRCTSAACNOR3051
012013092562CTSA3T      030SANTANENSE  ON        086R$  000000000058500000000005860000000000585000000000058500000000005860000000000000000000000000000002000000000000001200000000000000702920000000000000009999123100000010000000000000BRCTSAACNOR3051
012013092502CTSA4       010SANTANENSE  PN           R$  000000000055600000000005560000000000555000000000055500000000005550000000000550000000000055500002000000000000002100000000000001165600000000000000009999123100000010000000000000BRCTSAACNPR0051
012013092596CTSA4F      020SANTANENSE  PN           R$  000000000060000000000006000000000000600000000000060000000000006000000000000550000000000065000001000000000000000012000000000000007200000000000000009999123100000010000000000000BRCTSAACNPR0051
012013092512CTXT11      010FII C TEXTILCI           R$  000000000030000000000003000000000000300000000000030000000000003000000000000290000000000000000005000000000000001000000000000000300000000000000000009999123100000010000000000000BRCTXTCTF014109
012013092502CYRE3       010CYRELA REALTON      NM   R$  000000000169900000000017190000000001675000000000168900000000016950000000001695000000000169606188000000000001719400000000002905136900000000000000009999123100000010000000000000BRCYREACNOR7125
012013092596CYRE3F      020CYRELA REALTON      NM   R$  000000000170000000000017240000000001655000000000168400000000016850000000001685000000000172500025000000000000000658000000000001108422000000000000009999123100000010000000000000BRCYREACNOR7125
012013092578CYREJ17     070CYRE  FM    ON      NM000R$  000000000005600000000000560000000000047000000000005200000000000470000000000000000000000000000005000000000000010000000000000000529500000000000170002013102100000010000000000000BRCYREACNOR7125
012013092578CYREJ18     070CYRE  FM    ON      NM000R$  000000000001900000000000190000000000012000000000001500000000000120000000000000000000000000000008000000000000017500000000000000268000000000000180002013102100000010000000000000BRCYREACNOR7125
012013092578CYREJ46     070CYRE  FM    ON      NM000R$  000000000010100000000001010000000000081000000000009200000000000810000000000000000000000000000009000000000000022000000000000002037500000000000165002013102100000010000000000000BRCYREACNOR7125
012013092578CYREJ47     070CYRE  FM    ON      NM000R$  000000000002700000000000270000000000027000000000002700000000000270000000000000000000000000000001000000000000003500000000000000094500000000000175002013102100000010000000000000BRCYREACNOR7125
012013092578CYREJ48     070CYRE  FM    ON      NM000R$  000000000000500000000000100000000000005000000000000800000000000050000000000000000000000000000016000000000000024000000000000000197000000000000185002013102100000010000000000000BRCYREACNOR7125
012013092578CYREK18     070CYRE  FM    ON      NM000R$  000000000005000000000000500000000000037000000000004000000000000370000000000000000000000000000008000000000000022700000000000000928400000000000180002013111800000010000000000000BRCYREACNOR7125
012013092578CYREK46     070CYRE  FM    ON      NM000R$  000000000012000000000001200000000000120000000000012000000000001200000000000000000000000000000002000000000000007000000000000000840000000000000165002013111800000010000000000000BRCYREACNOR7125
012013092578CYREK47     070CYRE  FM    ON      NM000R$  000000000007100000000000710000000000071000000000007100000000000710000000000000000000000005700001000000000000002400000000000000170400000000000175002013111800000010000000000000BRCYREACNOR7125
012013092582CYREV16     080CYREE FM    ON      NM000R$  000000000001700000000000170000000000017000000000001700000000000170000000000000000000000000000003000000000000003500000000000000059500000000000160002013102100000010000000000000BRCYREACNOR7125
012013092582CYREV17     080CYREE FM    ON      NM000R$  000000000003700000000000430000000000037000000000004000000000000430000000000000000000000000000003000000000000007000000000000000280000000000000170002013102100000010000000000000BRCYREACNOR7125
012013092582CYREV47     080CYREE FM    ON      NM000R$  000000000006400000000000750000000000064000000000006800000000000750000000000000000000000000000005000000000000007500000000000000514500000000000175002013102100000010000000000000BRCYREACNOR7125
012013092582CYREW47     080CYREE FM    ON      NM000R$  000000000008600000000000910000000000086000000000008900000000000910000000000000000000000000000003000000000000005500000000000000490500000000000175002013111800000010000000000000BRCYREACNOR7125
012013092582CYREX17     080CYREE       ON      NM000R$  000000000004200000000000420000000000042000000000004200000000000420000000000000000000000000000001000000000000200000000000000008400000000000000165002013121600000010000000000000BRCYREACNOR7124
012013092502CZLT33      010COSAN LTD   DR3          R$  000000000345000000000034890000000003371000000000343300000000034890000000003459000000000348901683000000000000466000000000001600188400000000000000009999123100000010000000000000BRCZLTBDR009105
012013092596CZLT33F     020COSAN LTD   DR3          R$  000000000320000000000032000000000002800000000000283800000000028000000000003400000000000345000002000000000000000042000000000000119200000000000000009999123100000010000000000000BRCZLTBDR009105
012013092502DAGB33      010DUFRY AG    DR3          R$  000000003340000000000335000000000033300000000003342100000000334980000000033400000000003349800649000000000000007752000000000259086018000000000000009999123100000010000000000000BRDAGBBDR008100
012013092502DASA3       010DASA        ON      NM   R$  000000000115000000000011810000000001137000000000116200000000011700000000001169000000000117004390000000000001234600000000001434838200000000000000009999123100000010000000000000BRDASAACNOR1108
012013092596DASA3F      020DASA        ON      NM   R$  000000000114300000000011980000000001130000000000115200000000011980000000001170000000000119800014000000000000000297000000000000342200000000000000009999123100000010000000000000BRDASAACNOR1108
012013092562DASA3T      030DASA        ON      NM016R$  000000000114600000000011470000000001146000000000114600000000011470000000000000000000000000000002000000000000002000000000000002292269000000000000009999123100000010000000000000BRDASAACNOR1108
012013092578DASAK12     070DASA        ON      NM000R$  000000000002800000000000280000000000025000000000002500000000000250000000000022000000000006900003000000000000067800000000000001711900000000000120002013111800000010000000000000BRDASAACNOR1108
012013092502DAYC4       010DAYCOVAL    PN      N2   R$  000000000084600000000008870000000000846000000000086800000000008870000000000871000000000088700166000000000000067800000000000058916500000000000000009999123100000010000000000000BRDAYCACNPR2128
012013092502DIRR3       010DIRECIONAL  ON      NM   R$  000000000121800000000012420000000001218000000000122800000000012300000000001230000000000123302329000000000000556700000000000683931500000000000000009999123100000010000000000000BRDIRRACNOR0104
012013092596DIRR3F      020DIRECIONAL  ON      NM   R$  000000000123700000000013000000000001212000000000123300000000012240000000001211000000000136500009000000000000000360000000000000444163000000000000009999123100000010000000000000BRDIRRACNOR0104
012013092514DIVO11      010IT NOW IDIV CI           R$  000000000342000000000034200000000003406000000000340900000000034180000000003417000000000342000012000000000000000600000000000002045620000000000000009999123100000010000000000000BRDIVOCTF002100
012013092596DIVO11F     020IT NOW IDIV CI           R$  000000000328800000000032880000000003288000000000328800000000032880000000003288000000000340000001000000000000000001000000000000003288000000000000009999123100000010000000000000BRDIVOCTF002100
