00COTAHIST.2013BOVESPA 20130916                                                                                                                                                                                                                      
012013091602AAPL34      010APPLE       DRN          R$  000000001018000000000102500000000010180000000001018300000000102500000000010195000000001025000004000000000000003100000000000031570000000000000000009999123100000010000000000000BRAAPLBDR004105
012013091602ABCB4       010ABC BRASIL  PN      N2   R$  000000000127000000000012930000000001250000000000127100000000012550000000001255000000000126000205000000000000066700000000000084796700000000000000009999123100000010000000000000BRABCBACNPR4120
012013091696ABCB4F      020ABC BRASIL  PN      N2   R$  000000000127800000000012780000000001270000000000127300000000012700000000001255000000000127000005000000000000000097000000000000123535000000000000009999123100000010000000000000BRABCBACNPR4120
012013091612ABCP11      010FII ABC IMOBCI           R$  000000000097200000000009720000000000972000000000097200000000009720000000000950000000000097200001000000000000000001000000000000000972000000000000009999123100000010000000000000BRABCPCTF000215
012013091602ABRE11      010ABRIL EDUCA UNT     N2   R$  000000000318500000000031860000000003045000000000309500000000031440000000003100000000000314401059000000000000234500000000000725994900000000000000009999123100000010000000000000BRABRECDAM15102
012013091696ABRE11F     020ABRIL EDUCA UNT     N2   R$  000000000318000000000031800000000003027000000000310800000000030550000000003055000000000314900023000000000000000697000000000002166958000000000000009999123100000010000000000000BRABRECDAM15102
012013091662ABRE11T     030ABRIL EDUCA UNT     N2030R$  000000000313500000000031360000000003135000000000313500000000031360000000000000000000000000000002000000000000001000000000000003135212000000000000009999123100000010000000000000BRABRECDAM15102
012013091602AEDU3       010ANHANGUERA  ON      NM   R$  000000000136800000000013740000000001356000000000136800000000013700000000001360000000000137006259000000000004480800000000006130649100000000000000009999123100000010000000000000BRAEDUACNOR9107
012013091696AEDU3F      020ANHANGUERA  ON      NM   R$  000000000137000000000013710000000001351000000000136400000000013600000000001360000000000137200043000000000000001040000000000001419135000000000000009999123100000010000000000000BRAEDUACNOR9107
012013091638AEDUI38E    012AEDU        ON      NM000R$  000000000126600000000012660000000001266000000000126600000000012660000000000000000000000000000002000000000000087300000000000110521800000000000126602013091600000010000000000000BRAEDUACNOR9107
012013091638AEDUI42E    012AEDU        ON      NM000R$  000000000125000000000012500000000001250000000000125000000000012500000000000000000000000000000002000000000000100000000000000125000000000000000125002013091600000010000000000000BRAEDUACNOR9107
012013091638AEDUI43E    012AEDU        ON      NM000R$  000000000135000000000013500000000001350000000000135000000000013500000000000000000000000000000001000000000000006000000000000008100000000000000135002013091600000010000000000000BRAEDUACNOR9107
012013091612AEFI11      010FII AESAPAR CI           R$  000000001180000000000118000000000011728000000001174000000000117700000000011729000000001177000038000000000000002102000000000024677481000000000000009999123100000010000000000000BRAEFICTF002121
012013091612AGCX11      010FII AG CAIXACI           R$  000000009720000000000975000000000092500000000009638300000000975000000000095700000000009750000036000000000000000436000000000042023066000000000000009999123100000010000000000000BRAGCXCTF003110
012013091602AGRO3       010BRASILAGRO  ON      NM   R$  000000000096700000000009840000000000965000000000097100000000009750000000000975000000000098300029000000000000032500000000000031562500000000000000009999123100000010000000000000BRAGROACNOR7102
012013091662AGRO3T      030BRASILAGRO  ON      NM182R$  000000000102200000000010230000000001022000000000102200000000010230000000000000000000000000000002000000000000010000000000000010226911000000000000009999123100000010000000000000BRAGROACNOR7102
012013091602ALLL3       010ALL AMER LATON      NM   R$  000000000090600000000009130000000000885000000000089900000000008940000000000892000000000089405553000000000001823400000000001639421500000000000000009999123100000010000000000000BRALLLACNOR6118
012013091696ALLL3F      020ALL AMER LATON      NM   R$  000000000091500000000009200000000000888000000000089700000000008900000000000891000000000091200028000000000000000860000000000000771968000000000000009999123100000010000000000000BRALLLACNOR6118
012013091662ALLL3T      030ALL AMER LATON      NM030R$  000000000091500000000009160000000000915000000000091500000000009160000000000000000000000000000002000000000000002500000000000002288387000000000000009999123100000010000000000000BRALLLACNOR6118
012013091638ALLLI82E    012ALLL        ON      NM000R$  000000000082000000000008200000000000820000000000082000000000008200000000000000000000000000000001000000000000078400000000000064288000000000000082002013091600000010000000000000BRALLLACNOR6118
012013091638ALLLI86E    012ALLL        ON      NM000R$  000000000086000000000008600000000000860000000000086000000000008600000000000000000000000000000001000000000000015000000000000012900000000000000086002013091600000010000000000000BRALLLACNOR6118
012013091638ALLLI88E    012ALLL        ON      NM000R$  000000000088000000000008800000000000880000000000088000000000008800000000000000000000000000000002000000000000094800000000000083424000000000000088002013091600000010000000000000BRALLLACNOR6118
012013091638ALLLI9E     012ALLL        ON      NM000R$  000000000090000000000009000000000000900000000000090000000000009000000000000000000000000000000001000000000000068500000000000061650000000000000090002013091600000010000000000000BRALLLACNOR6118
012013091612ALMI11B     010FII TORRE ALCI      MB   R$  000000030990000000003099000000000309900000000030990000000003099000000000306200000000030965000001000000000000000001000000000000309900000000000000009999123100000010000000000000BRALMICTF003205
012013091602ALPA3       010ALPARGATAS  ON      N1   R$  000000000122800000000012280000000001196000000000119900000000011980000000001197000000000123000006000000000000001000000000000001199600000000000000009999123100000010000000000000BRALPAACNOR0203
012013091696ALPA3F      020ALPARGATAS  ON      N1   R$  000000000119000000000011900000000001190000000000119000000000011900000000001181000000000122900001000000000000000029000000000000034510000000000000009999123100000010000000000000BRALPAACNOR0203
012013091602ALPA4       010ALPARGATAS  PN      N1   R$  000000000135500000000013800000000001342000000000136400000000013620000000001362000000000136501153000000000000217800000000000297221200000000000000009999123100000010000000000000BRALPAACNPR7203
012013091696ALPA4F      020ALPARGATAS  PN      N1   R$  000000000137000000000013800000000001346000000000136300000000013710000000001349000000000139400011000000000000000181000000000000246880000000000000009999123100000010000000000000BRALPAACNPR7203
012013091638ALPAI13E    012ALPA        PN      N1000R$  000000000130000000000013000000000001300000000000130000000000013000000000000000000000000000000002000000000000017800000000000023140000000000000130002013091600000010000000000000BRALPAACNPR7203
012013091638ALPAI42E    012ALPA        PN      N1000R$  000000000125000000000012500000000001250000000000125000000000012500000000000000000000000000000001000000000000002000000000000002500000000000000125002013091600000010000000000000BRALPAACNPR7203
012013091678ALPAJ14     070ALPA        PN      N1000R$  000000000001600000000000160000000000016000000000001600000000000160000000000000000000000000000001000000000000005500000000000000088000000000000140002013102100000010000000000000BRALPAACNPR7203
012013091602ALSC3       010ALIANSCE    ON      NM   R$  000000000197900000000019790000000001918000000000193500000000019400000000001925000000000194001897000000000000361600000000000699980000000000000000009999123100000010000000000000BRALSCACNOR0104
012013091696ALSC3F      020ALIANSCE    ON      NM   R$  000000000192700000000019270000000001927000000000192700000000019270000000001863000000000199800001000000000000000045000000000000086715000000000000009999123100000010000000000000BRALSCACNOR0104
012013091602ALUP11      010ALUPAR      UNT     N2   R$  000000000172400000000017250000000001673000000000169600000000017100000000001705000000000171000806000000000000486500000000000825166900000000000000009999123100000010000000000000BRALUPCDAM15100
012013091696ALUP11F     020ALUPAR      UNT     N2   R$  000000000170700000000017500000000001675000000000170800000000016750000000001675000000000176200020000000000000000428000000000000731404000000000000009999123100000010000000000000BRALUPCDAM15100
012013091602AMAR3       010LOJAS MARISAON      NM   R$  000000000218700000000022830000000002187000000000225600000000022270000000002227000000000223101810000000000000588700000000001328369200000000000000009999123100000010000000000000BRAMARACNOR4109
012013091696AMAR3F      020LOJAS MARISAON      NM   R$  000000000221000000000022700000000002210000000000226200000000022510000000002210000000000225800007000000000000000167000000000000377835000000000000009999123100000010000000000000BRAMARACNOR4109
012013091602AMBV3       010AMBEV       ON  ED       R$  000000000845900000000084830000000008375000000000844400000000084830000000008450000000000848301230000000000000216300000000001826540900000000000000009999123100000010000000000000BRAMBVACNOR4154
012013091696AMBV3F      020AMBEV       ON  ED       R$  000000000843500000000084760000000008370000000000844200000000084630000000008456000000000847200037000000000000001132000000000009558416000000000000009999123100000010000000000000BRAMBVACNOR4154
012013091602AMBV4       010AMBEV       PN  ED       R$  000000000848100000000084810000000008377000000000843700000000084690000000008469000000000847004131000000000000796400000000006719516500000000000000009999123100000010000000000000BRAMBVACNPR1154
012013091696AMBV4F      020AMBEV       PN  ED       R$  000000000845000000000084940000000008300000000000843300000000084440000000008444000000000846100154000000000000003364000000000028372223000000000000009999123100000010000000000000BRAMBVACNPR1154
012013091662AMBV4T      030AMBEV       PN  ED    030R$  000000000852300000000085240000000008503000000000850800000000085040000000000000000000000000000004000000000000009000000000000076575729000000000000009999123100000010000000000000BRAMBVACNPR1154
012013091662AMBV4T      030AMBEV       PN  ED    120R$  000000000865200000000086530000000008652000000000865200000000086530000000000000000000000000000002000000000000005600000000000048453395000000000000009999123100000010000000000000BRAMBVACNPR1154
012013091638AMBVI82E    012AMBV    /ED PN        000R$  000000000813500000000081350000000008135000000000813500000000081350000000000000000000000000000001000000000000000400000000000003254000000000000813502013091600000010000000000000BRAMBVACNPR1154
012013091638AMBVI83E    012AMBV    /ED PN        000R$  000000000823500000000082350000000008235000000000823500000000082350000000000000000000000000000001000000000000000200000000000001647000000000000823502013091600000010000000000000BRAMBVACNPR1154
012013091638AMBVI84E    012AMBV    /ED PN        000R$  000000000833500000000083350000000008335000000000833500000000083350000000000000000000000000000017000000000000014700000000000122524500000000000833502013091600000010000000000000BRAMBVACNPR1154
012013091678AMBVJ86     070AMBV    /ED PN        000R$  000000000016600000000002000000000000152000000000017100000000001720000000000000000000000000000012000000000000076000000000000013041600000000000853502013102100000010000000000000BRAMBVACNPR1153
012013091678AMBVJ87     070AMBV    /ED PN        000R$  000000000011000000000001200000000000110000000000011400000000001200000000000089000000000000000003000000000000000700000000000000080000000000000863502013102100000010000000000000BRAMBVACNPR1153
012013091678AMBVJ88     070AMBV    /ED PN        000R$  000000000009500000000001000000000000075000000000009700000000000750000000000000000000000014000008000000000000012500000000000001220900000000000873502013102100000010000000000000BRAMBVACNPR1153
012013091678AMBVJ89     070AMBV    /ED PN        000R$  000000000006000000000000700000000000055000000000006500000000000600000000000000000000000008000009000000000000009300000000000000605500000000000883502013102100000010000000000000BRAMBVACNPR1153
012013091678AMBVJ90     070AMBV    /ED PN        000R$  000000000005500000000000600000000000050000000000005100000000000500000000000000000000000000000007000000000000005500000000000000284000000000000893502013102100000010000000000000BRAMBVACNPR1153
012013091642AMBVU1E     013AMBVE   /ED PN        000R$  000000001093500000000109350000000010935000000001093500000000109350000000000000000000000000000001000000000000080000000000000874800000000000001093502013091600000010000000000000BRAMBVACNPR1154
012013091642AMBVU86E    013AMBVE   /ED PN        000R$  000000000853500000000085350000000008535000000000853500000000085350000000000000000000000000000001000000000000100000000000000853500000000000000853502013091600000010000000000000BRAMBVACNPR1154
012013091642AMBVU90E    013AMBVE   /ED PN        000R$  000000000893500000000089350000000008935000000000893500000000089350000000000000000000000000000001000000000000080000000000000714800000000000000893502013091600000010000000000000BRAMBVACNPR1154
012013091602ARTR3       010ARTERIS     ON      NM   R$  000000000197300000000019790000000001926000000000195100000000019400000000001937000000000194001078000000000000282200000000000550778500000000000000009999123100000010000000000000BRARTRACNOR3101
012013091696ARTR3F      020ARTERIS     ON      NM   R$  000000000198500000000019850000000001931000000000195800000000019500000000001940000000000198400032000000000000001046000000000002048833000000000000009999123100000010000000000000BRARTRACNOR3101
012013091662ARTR3T      030ARTERIS     ON      NM030R$  000000000197600000000019770000000001976000000000197600000000019770000000000000000000000000000002000000000000002000000000000003952253000000000000009999123100000010000000000000BRARTRACNOR3101
012013091602ARZZ3       010AREZZO CO   ON      NM   R$  000000000381500000000038330000000003700000000000373100000000037000000000003700000000000371000991000000000000146100000000000545124900000000000000009999123100000010000000000000BRARZZACNOR3109
012013091696ARZZ3F      020AREZZO CO   ON      NM   R$  000000000375000000000038180000000003701000000000376000000000037690000000003701000000000380000013000000000000000441000000000001658214000000000000009999123100000010000000000000BRARZZACNOR3109
012013091602AUTM3       010AUTOMETAL   ON      NM   R$  000000000188100000000018810000000001853000000000187200000000018760000000001860000000000187600027000000000000009800000000000018347600000000000000009999123100000010000000000000BRAUTMACNOR8109
012013091696AUTM3F      020AUTOMETAL   ON      NM   R$  000000000187200000000018720000000001865000000000186900000000018650000000001707000000000208400002000000000000000014000000000000026166000000000000009999123100000010000000000000BRAUTMACNOR8109
012013091602BAHI3       010BAHEMA      ON           R$  000000000049500000000004950000000000495000000000049500000000004950000000000485000000000049500001000000000000000100000000000000049500000000000000009999123100000010000000000000BRBAHIACNOR1066
012013091696BAUH4F      020EXCELSIOR   PN           R$  000000000090000000000009000000000000900000000000090000000000009000000000000801000000000090000001000000000000000005000000000000004500000000000000009999123100000010000000000000BRBAUHACNPR3108
012013091602BAZA3       010AMAZONIA    ON           R$  000000000003300000000000330000000000033000000000003300000000000330000000000032000000000003300002000000000000015000000000000000495000000000000000009999123100000010000000000000BRBAZAACNOR0163
012013091602BBAS3       010BRASIL      ON  EJ  NM   R$  000000000242400000000024380000000002390000000000241200000000024140000000002405000000000241414591000000000004358300000000010516498800000000000000009999123100000010000000000000BRBBASACNOR3239
012013091696BBAS3F      020BRASIL      ON  EJ  NM   R$  000000000241500000000024350000000002394000000000241500000000024100000000002400000000000241000200000000000000005594000000000013510446000000000000009999123100000010000000000000BRBBASACNOR3239
012013091662BBAS3T      030BRASIL      ON  EJ  NM016R$  000000000242000000000024210000000002420000000000242000000000024210000000000000000000000000000002000000000000001000000000000002420122000000000000009999123100000010000000000000BRBBASACNOR3239
012013091662BBAS3T      030BRASIL      ON  EJ  NM030R$  000000000245100000000024520000000002451000000000245100000000024520000000000000000000000000000004000000000000001000000000000002451004000000000000009999123100000010000000000000BRBBASACNOR3239
012013091662BBAS3T      030BRASIL      ON  EJ  NM067R$  000000000246500000000024660000000002461000000000246200000000024620000000000000000000000000000004000000000000002800000000000006896071000000000000009999123100000010000000000000BRBBASACNOR3239
012013091678BBASA25     070BBAS    /EJ ON      NM000R$  000000000019600000000001960000000000196000000000019600000000001960000000000000000000000000000001000000000000000200000000000000039200000000000239502014012000000010000000000000BRBBASACNOR3237
012013091678BBASA27     070BBAS    /EJ ON      NM000R$  000000000009400000000000940000000000094000000000009400000000000940000000000000000000000000000001000000000000000100000000000000009400000000000259502014012000000010000000000000BRBBASACNOR3237
012013091678BBASC24     070BBAS    /EJ ON      NM000R$  000000000029000000000002900000000000290000000000029000000000002900000000000000000000000000000001000000000000000200000000000000058000000000000229502014031700000010000000000000BRBBASACNOR3237
012013091638BBASI14E    012BBAS    /EJ ON      NM000R$  000000000129500000000012950000000001295000000000129500000000012950000000000000000000000000000001000000000000004000000000000005180000000000000129502013091600000010000000000000BRBBASACNOR3239
012013091638BBASI18E    012BBAS    /EJ ON      NM000R$  000000000169500000000016950000000001695000000000169500000000016950000000000000000000000000000002000000000000008500000000000014407500000000000169502013091600000010000000000000BRBBASACNOR3239
012013091638BBASI19E    012BBAS    /EJ ON      NM000R$  000000000179500000000017950000000001795000000000179500000000017950000000000000000000000000000002000000000000043600000000000078262000000000000179502013091600000010000000000000BRBBASACNOR3239
012013091638BBASI20E    012BBAS    /EJ ON      NM000R$  000000000189500000000018950000000001895000000000189500000000018950000000000000000000000000000006000000000000120500000000000228347500000000000189502013091600000010000000000000BRBBASACNOR3239
012013091638BBASI21E    012BBAS    /EJ ON      NM000R$  000000000199500000000019950000000001995000000000199500000000019950000000000000000000000000000017000000000001336100000000002665519500000000000199502013091600000010000000000000BRBBASACNOR3239
012013091638BBASI22E    012BBAS    /EJ ON      NM000R$  000000000207100000000020710000000002071000000000207100000000020710000000000000000000000000000046000000000000587200000000001216091200000000000207102013091600000010000000000000BRBBASACNOR3239
012013091638BBASI23E    012BBAS    /EJ ON      NM000R$  000000000217100000000021710000000002171000000000217100000000021710000000000000000000000000000108000000000000611000000000001326481000000000000217102013091600000010000000000000BRBBASACNOR3239
012013091638BBASI24E    012BBAS    /EJ ON      NM000R$  000000000227100000000022710000000002271000000000227100000000022710000000000000000000000000000148000000000001012500000000002299387500000000000227102013091600000010000000000000BRBBASACNOR3239
012013091638BBASI25E    012BBAS    /EJ ON      NM000R$  000000000236100000000023610000000002361000000000236100000000023610000000000000000000000000000094000000000000391200000000000923623200000000000236102013091600000010000000000000BRBBASACNOR3239
012013091638BBASI51E    012BBAS    /EJ ON      NM000R$  000000000194500000000019450000000001945000000000194500000000019450000000000000000000000000000001000000000000013400000000000026063000000000000194502013091600000010000000000000BRBBASACNOR3239
012013091638BBASI52E    012BBAS    /EJ ON      NM000R$  000000000214500000000021450000000002145000000000214500000000021450000000000000000000000000000006000000000000042100000000000090304500000000000214502013091600000010000000000000BRBBASACNOR3239
012013091638BBASI61E    012BBASE   /EJ ON      NM000R$  000000000212000000000021200000000002120000000000212000000000021200000000000000000000000000000002000000000000209000000000000443080000000000000212002013091600000010000000000000BRBBASACNOR3239
012013091678BBASJ23     070BBAS  FM/EJ ON      NM000R$  000000000026000000000003000000000000255000000000027700000000002550000000000245000000000030000102000000000000160900000000000044691800000000000216102013102100000010000000000000BRBBASACNOR3235
012013091678BBASJ24     070BBAS  FM/EJ ON      NM000R$  000000000020200000000002020000000000167000000000018000000000001750000000000160000000000018000175000000000000156200000000000028203500000000000227102013102100000010000000000000BRBBASACNOR3236
012013091678BBASJ25     070BBAS  FM/EJ ON      NM000R$  000000000010500000000001070000000000088000000000009600000000000930000000000080000000000010000089000000000000150500000000000014522400000000000239502013102100000010000000000000BRBBASACNOR3237
012013091678BBASJ26     070BBAS  FM/EJ ON      NM000R$  000000000006500000000000690000000000054000000000006100000000000590000000000053000000000006800226000000000000175100000000000010720800000000000246102013102100000010000000000000BRBBASACNOR3235
012013091678BBASJ27     070BBAS  FM/EJ ON      NM000R$  000000000002900000000000330000000000025000000000002600000000000270000000000025000000000002700106000000000000164300000000000004383500000000000256102013102100000010000000000000BRBBASACNOR3235
012013091678BBASJ28     070BBAS    /EJ ON      NM000R$  000000000000900000000000090000000000007000000000000700000000000070000000000005000000000002400003000000000000003000000000000000023000000000000269502013102100000010000000000000BRBBASACNOR3237
012013091678BBASJ29     070BBAS    /EJ ON      NM000R$  000000000000500000000000050000000000004000000000000400000000000040000000000003000000000000000003000000000000013700000000000000055000000000000276102013102100000010000000000000BRBBASACNOR3235
012013091678BBASJ56     070BBAS    /EJ ON      NM000R$  000000000004600000000000460000000000038000000000004200000000000390000000000000000000000004200087000000000000096300000000000004115700000000000251102013102100000010000000000000BRBBASACNOR3235
012013091678BBASK23     070BBAS  FM/EJ ON      NM000R$  000000000029600000000002960000000000263000000000027900000000002730000000000000000000000000000052000000000000093800000000000026185900000000000219502013111800000010000000000000BRBBASACNOR3237
012013091678BBASK24     070BBAS  FM/EJ ON      NM000R$  000000000021400000000002140000000000188000000000019900000000001940000000000000000000000000000026000000000000044400000000000008836200000000000229502013111800000010000000000000BRBBASACNOR3237
012013091678BBASK25     070BBAS  FM/EJ ON      NM000R$  000000000015900000000001590000000000143000000000014800000000001470000000000000000000000031900013000000000000024300000000000003602600000000000237102013111800000010000000000000BRBBASACNOR3236
012013091678BBASK26     070BBAS  FM/EJ ON      NM000R$  000000000009200000000000920000000000092000000000009200000000000920000000000016000000000021900004000000000000006300000000000000579600000000000247102013111800000010000000000000BRBBASACNOR3236
012013091678BBASK27     070BBAS  FM/EJ ON      NM000R$  000000000006100000000000610000000000056000000000005800000000000560000000000025000000000014300004000000000000002700000000000000156600000000000257102013111800000010000000000000BRBBASACNOR3236
012013091678BBASK28     070BBAS    /EJ ON      NM000R$  000000000003300000000000330000000000030000000000003000000000000300000000000026000000000003000010000000000000015100000000000000457700000000000267102013111800000010000000000000BRBBASACNOR3236
012013091678BBASL23     070BBAS    /EJ ON      NM000R$  000000000030600000000003060000000000306000000000030600000000003060000000000000000000000031000001000000000000000200000000000000061200000000000219502013121600000010000000000000BRBBASACNOR3237
012013091678BBASL26     070BBAS    /EJ ON      NM000R$  000000000012600000000001260000000000126000000000012600000000001260000000000005000000000000000001000000000000001000000000000000126000000000000246102013121600000010000000000000BRBBASACNOR3235
012013091678BBASL28     070BBAS    /EJ ON      NM000R$  000000000004400000000000440000000000044000000000004400000000000440000000000003000000000000000001000000000000001000000000000000044000000000000269502013121600000010000000000000BRBBASACNOR3237
012013091642BBASU26E    013BBASE   /EJ ON      NM000R$  000000000246100000000024610000000002461000000000246100000000024610000000000000000000000000000003000000000000010100000000000024856100000000000246102013091600000010000000000000BRBBASACNOR3239
012013091642BBASU27E    013BBASE   /EJ ON      NM000R$  000000000257100000000025710000000002571000000000257100000000025710000000000000000000000000000001000000000000016300000000000041907300000000000257102013091600000010000000000000BRBBASACNOR3239
012013091642BBASU28E    013BBASE   /EJ ON      NM000R$  000000000266100000000026610000000002661000000000266100000000026610000000000000000000000000000002000000000000005000000000000013305000000000000266102013091600000010000000000000BRBBASACNOR3239
012013091682BBASV22     080BBASE FM/EJ ON      NM000R$  000000000000900000000000120000000000009000000000001000000000000120000000000009000000000000000004000000000000011200000000000000118200000000000209502013102100000010000000000000BRBBASACNOR3237
012013091682BBASV23     080BBASE FM/EJ ON      NM000R$  000000000001500000000000180000000000014000000000001500000000000170000000000013000000000001900062000000000000315100000000000004850000000000000216102013102100000010000000000000BRBBASACNOR3235
012013091682BBASV24     080BBASE FM/EJ ON      NM000R$  000000000002700000000000370000000000025000000000003000000000000340000000000000000000000000000075000000000000069100000000000002138000000000000227102013102100000010000000000000BRBBASACNOR3236
012013091682BBASV25     080BBASE FM/EJ ON      NM000R$  000000000005500000000000780000000000055000000000006800000000000730000000000000000000000016000220000000000000577900000000000039693500000000000239502013102100000010000000000000BRBBASACNOR3237
012013091682BBASV26     080BBASE   /EJ ON      NM000R$  000000000009100000000000910000000000091000000000009100000000000910000000000000000000000000000001000000000000000400000000000000036400000000000246102013102100000010000000000000BRBBASACNOR3235
012013091682BBASV53     080BBASE   /EJ ON      NM000R$  000000000002400000000000240000000000024000000000002400000000000240000000000000000000000000000001000000000000001000000000000000024000000000000221102013102100000010000000000000BRBBASACNOR3235
012013091682BBASW22     080BBASE FM/EJ ON      NM000R$  000000000002300000000000230000000000023000000000002300000000000230000000000000000000000000000001000000000000001000000000000000023000000000000209502013111800000010000000000000BRBBASACNOR3237
012013091682BBASW23     080BBASE FM/EJ ON      NM000R$  000000000003300000000000370000000000033000000000003600000000000370000000000000000000000014300007000000000000013300000000000000482500000000000219502013111800000010000000000000BRBBASACNOR3237
012013091682BBASW24     080BBASE FM/EJ ON      NM000R$  000000000005000000000000610000000000050000000000005500000000000610000000000000000000000021900021000000000000040600000000000002262800000000000229502013111800000010000000000000BRBBASACNOR3237
012013091682BBASW25     080BBASE FM/EJ ON      NM000R$  000000000007100000000000890000000000071000000000007900000000000850000000000000000000000031900024000000000000046600000000000003691600000000000237102013111800000010000000000000BRBBASACNOR3236
012013091682BBASX24     080BBASE   /EJ ON      NM000R$  000000000007000000000000700000000000068000000000006800000000000680000000000000000000000000000003000000000000005800000000000000400000000000000229502013121600000010000000000000BRBBASACNOR3237
012013091682BBASX26     080BBASE   /EJ ON      NM000R$  000000000012500000000001250000000000125000000000012500000000001250000000000000000000000000000001000000000000001200000000000000150000000000000246102013121600000010000000000000BRBBASACNOR3235
012013091682BBASX55     080BBASE   /EJ ON      NM000R$  000000000008800000000000880000000000088000000000008800000000000880000000000000000000000000000001000000000000003000000000000000264000000000000235202013121600000010000000000000BRBBASACNOR3233
012013091602BBDC3       010BRADESCO    ON      N1   R$  000000000345800000000034830000000003437000000000345600000000034460000000003446000000000345702976000000000000792800000000002740095800000000000000009999123100000010000000000000BRBBDCACNOR1606
012013091696BBDC3F      020BRADESCO    ON      N1   R$  000000000344200000000034990000000003375000000000345900000000034500000000003375000000000346200042000000000000001363000000000004715188000000000000009999123100000010000000000000BRBBDCACNOR1606
012013091602BBDC4       010BRADESCO    PN      N1   R$  000000000299500000000030140000000002966000000000299000000000029930000000002971000000000299312561000000000005145600000000015388559900000000000000009999123100000010000000000000BRBBDCACNPR8606
012013091696BBDC4F      020BRADESCO    PN      N1   R$  000000000299000000000030130000000002967000000000299400000000029670000000002967000000000298000164000000000000004333000000000012972781000000000000009999123100000010000000000000BRBBDCACNPR8606
012013091662BBDC4T      030BRADESCO    PN      N1016R$  000000000302300000000030240000000003015000000000301800000000030160000000000000000000000000000006000000000000011000000000000033199796000000000000009999123100000010000000000000BRBBDCACNPR8606
012013091662BBDC4T      030BRADESCO    PN      N1030R$  000000000302300000000030240000000002991000000000300600000000029920000000000000000000000000000008000000000000001000000000000003006585000000000000009999123100000010000000000000BRBBDCACNPR8606
012013091662BBDC4T      030BRADESCO    PN      N1038R$  000000000301000000000030130000000003006000000000301000000000030130000000000000000000000000000008000000000000008400000000000025285190000000000000009999123100000010000000000000BRBBDCACNPR8606
012013091662BBDC4T      030BRADESCO    PN      N1063R$  000000000302900000000030300000000003029000000000302900000000030300000000000000000000000000000002000000000000003000000000000009088241000000000000009999123100000010000000000000BRBBDCACNPR8606
012013091662BBDC4T      030BRADESCO    PN      N1067R$  000000000304000000000030430000000003040000000000304100000000030430000000000000000000000000000006000000000000007500000000000022813462000000000000009999123100000010000000000000BRBBDCACNPR8606
012013091662BBDC4T      030BRADESCO    PN      N1080R$  000000000303600000000030370000000003036000000000303600000000030370000000000000000000000000000002000000000000001000000000000003036148000000000000009999123100000010000000000000BRBBDCACNPR8606
012013091662BBDC4T      030BRADESCO    PN      N1091R$  000000000304800000000030490000000003048000000000304800000000030490000000000000000000000000000002000000000000001500000000000004573059000000000000009999123100000010000000000000BRBBDCACNPR8606
012013091662BBDC4T      030BRADESCO    PN      N1094R$  000000000304800000000030490000000003048000000000304800000000030490000000000000000000000000000002000000000000001100000000000003353020000000000000009999123100000010000000000000BRBBDCACNPR8606
012013091678BBDCA31     070BBDC        PN      N1000R$  000000000016100000000001620000000000161000000000016100000000001620000000000000000000000000000003000000000000100000000000000016157000000000000309802014012000000010000000000000BRBBDCACNPR8605
012013091678BBDCA34     070BBDC        PN      N1000R$  000000000006300000000000630000000000062000000000006200000000000620000000000000000000000006300002000000000000001600000000000000100400000000000339602014012000000010000000000000BRBBDCACNPR8604
012013091638BBDCI1E     012BBDC        ON      N1000R$  000000000314600000000031460000000003146000000000314600000000031460000000000000000000000000000002000000000000040000000000000125840000000000000314602013091600000010000000000000BRBBDCACNOR1606
012013091638BBDCI20E    012BBDC        PN      N1000R$  000000000199800000000019980000000001998000000000199800000000019980000000000000000000000000000002000000000000002000000000000003996000000000000199802013091600000010000000000000BRBBDCACNPR8606
012013091638BBDCI23E    012BBDC        PN      N1000R$  000000000229600000000022960000000002296000000000229600000000022960000000000000000000000000000001000000000000006000000000000013776000000000000229602013091600000010000000000000BRBBDCACNPR8606
012013091638BBDCI25E    012BBDC        PN      N1000R$  000000000249600000000024960000000002496000000000249600000000024960000000000000000000000000000004000000000000075400000000000188198400000000000249602013091600000010000000000000BRBBDCACNPR8606
012013091638BBDCI26E    012BBDC        PN      N1000R$  000000000259600000000025960000000002596000000000259600000000025960000000000000000000000000000011000000000000342400000000000888870400000000000259602013091600000010000000000000BRBBDCACNPR8606
012013091638BBDCI27E    012BBDC        PN      N1000R$  000000000267600000000026760000000002676000000000267600000000026760000000000000000000000000000029000000000000780400000000002088350400000000000267602013091600000010000000000000BRBBDCACNPR8606
012013091638BBDCI28E    012BBDC        PN      N1000R$  000000000277600000000027760000000002776000000000277600000000027760000000000000000000000000000067000000000001184500000000003288172000000000000277602013091600000010000000000000BRBBDCACNPR8606
012013091638BBDCI29E    012BBDC        PN      N1000R$  000000000287600000000028760000000002876000000000287600000000028760000000000000000000000000000068000000000000772500000000002221710000000000000287602013091600000010000000000000BRBBDCACNPR8606
012013091638BBDCI30E    012BBDC        PN      N1000R$  000000000297600000000029760000000002976000000000297600000000029760000000000000000000000000000055000000000000524100000000001559721600000000000297602013091600000010000000000000BRBBDCACNPR8606
012013091638BBDCI31E    012BBDC        PN      N1000R$  000000000272700000000027270000000002727000000000272700000000027270000000000000000000000000000008000000000000245100000000000668387700000000000272702013091600000010000000000000BRBBDCACNPR8606
012013091638BBDCI33E    012BBDC        PN      N1000R$  000000000297000000000029700000000002970000000000297000000000029700000000000000000000000000000016000000000000863700000000002565189000000000000297002013091600000010000000000000BRBBDCACNPR8606
012013091638BBDCI58E    012BBDC        PN      N1000R$  000000000284800000000028480000000002848000000000284800000000028480000000000000000000000000000009000000000000180900000000000515203200000000000284802013091600000010000000000000BRBBDCACNPR8606
012013091638BBDCI68E    012BBDC        ON      N1000R$  000000000279600000000027960000000002796000000000279600000000027960000000000000000000000000000003000000000000049000000000000137004000000000000279602013091600000010000000000000BRBBDCACNOR1606
012013091638BBDCI72E    012BBDC        ON      N1000R$  000000000319600000000031960000000003196000000000319600000000031960000000000000000000000000000003000000000000049000000000000156604000000000000319602013091600000010000000000000BRBBDCACNOR1606
012013091638BBDCI75E    012BBDCE       PN      N1000R$  000000000282100000000028210000000002821000000000282100000000028210000000000000000000000000000010000000000000110700000000000312284700000000000282102013091600000010000000000000BRBBDCACNPR8606
012013091638BBDCI86E    012BBDC        ON      N1000R$  000000000304800000000030480000000003048000000000304800000000030480000000000000000000000000000002000000000000040000000000000121920000000000000304802013091600000010000000000000BRBBDCACNOR1606
012013091678BBDCJ26     070BBDC        PN      N1000R$  000000000043900000000004390000000000399000000000039900000000004000000000000000000000000044900006000000000000016200000000000006476000000000000259602013102100000010000000000000BRBBDCACNPR8604
012013091678BBDCJ29     070BBDC        PN      N1000R$  000000000019300000000001930000000000165000000000018100000000001800000000000180000000000019800080000000000000061600000000000011166700000000000287602013102100000010000000000000BRBBDCACNPR8602
012013091678BBDCJ30     070BBDC        PN      N1000R$  000000000012200000000001250000000000103000000000011100000000001100000000000098000000000012100165000000000000158300000000000017670200000000000297602013102100000010000000000000BRBBDCACNPR8602
012013091678BBDCJ31     070BBDC        PN      N1000R$  000000000006500000000000710000000000056000000000006100000000000600000000000056000000000007000173000000000000219500000000000013551700000000000307602013102100000010000000000000BRBBDCACNPR8602
012013091678BBDCJ32     070BBDC        PN      N1000R$  000000000003300000000000390000000000028000000000003200000000000330000000000012000000000003700070000000000000118200000000000003836200000000000317602013102100000010000000000000BRBBDCACNPR8602
012013091678BBDCJ33     070BBDC        PN      N1000R$  000000000001700000000000180000000000014000000000001600000000000160000000000000000000000005000020000000000000057500000000000000928900000000000327602013102100000010000000000000BRBBDCACNPR8602
012013091678BBDCJ35     070BBDC        PN      N1000R$  000000000000400000000000040000000000004000000000000400000000000040000000000000000000000000000001000000000000009300000000000000037200000000000349802013102100000010000000000000BRBBDCACNPR8605
012013091678BBDCJ58     070BBDC        PN      N1000R$  000000000024000000000002400000000000222000000000022700000000002220000000000092000000000026900006000000000000002300000000000000522600000000000279802013102100000010000000000000BRBBDCACNPR8605
012013091678BBDCK28     070BBDC        PN      N1000R$  000000000028100000000002810000000000281000000000028100000000002810000000000000000000000000000001000000000000000500000000000000140500000000000277602013111800000010000000000000BRBBDCACNPR8602
012013091678BBDCK30     070BBDC        PN      N1000R$  000000000015200000000001530000000000136000000000014000000000001360000000000000000000000000000063000000000000058200000000000008194200000000000299802013111800000010000000000000BRBBDCACNPR8605
012013091678BBDCK31     070BBDC        PN      N1000R$  000000000010100000000001010000000000090000000000009700000000000900000000000000000000000010200005000000000000009200000000000000899200000000000309802013111800000010000000000000BRBBDCACNPR8605
012013091678BBDCK32     070BBDC        PN      N1000R$  000000000007200000000000720000000000068000000000006900000000000690000000000013000000000000000011000000000000009900000000000000689000000000000317402013111800000010000000000000BRBBDCACNPR8601
012013091678BBDCK33     070BBDC        PN      N1000R$  000000000004400000000000450000000000040000000000004100000000000400000000000000000000000000000008000000000000013900000000000000583200000000000327602013111800000010000000000000BRBBDCACNPR8602
012013091678BBDCK9      070BBDC        PN      N1000R$  000000000021500000000002160000000000194000000000020600000000001960000000000000000000000000000018000000000000034500000000000007140500000000000289802013111800000010000000000000BRBBDCACNPR8605
012013091678BBDCL27     070BBDC        PN      N1000R$  000000000037600000000003760000000000376000000000037600000000003760000000000000000000000000000014000000000000015000000000000005640000000000000269602013121600000010000000000000BRBBDCACNPR8604
012013091642BBDCU13E    013BBDCE       PN      N1000R$  000000000327600000000032760000000003276000000000327600000000032760000000000000000000000000000001000000000000006000000000000019656000000000000327602013091600000010000000000000BRBBDCACNPR8606
012013091642BBDCU32E    013BBDCE       PN      N1000R$  000000000317600000000031760000000003176000000000317600000000031760000000000000000000000000000003000000000000066000000000000209616000000000000317602013091600000010000000000000BRBBDCACNPR8606
012013091642BBDCU34E    013BBDCE       PN      N1000R$  000000000337600000000033760000000003376000000000337600000000033760000000000000000000000000000001000000000000007100000000000023969600000000000337602013091600000010000000000000BRBBDCACNPR8606
012013091642BBDCU35E    013BBDCE       PN      N1000R$  000000000347400000000034740000000003474000000000347400000000034740000000000000000000000000000001000000000000027400000000000095187600000000000347402013091600000010000000000000BRBBDCACNPR8606
012013091642BBDCU37E    013BBDCE       PN      N1000R$  000000000333400000000033340000000003334000000000333400000000033340000000000000000000000000000001000000000000001200000000000004000800000000000333402013091600000010000000000000BRBBDCACNPR8606
012013091642BBDCU81E    013BBDCE       PN      N1000R$  000000000307600000000030760000000003076000000000307600000000030760000000000000000000000000000003000000000000042000000000000129192000000000000307602013091600000010000000000000BRBBDCACNPR8606
012013091682BBDCV25     080BBDCE       PN      N1000R$  000000000000500000000000050000000000005000000000000500000000000050000000000003000000000000000001000000000000010000000000000000050000000000000249402013102100000010000000000000BRBBDCACNPR8603
012013091682BBDCV26     080BBDCE       PN      N1000R$  000000000000700000000000070000000000007000000000000700000000000070000000000008000000000000000001000000000000001500000000000000010500000000000259602013102100000010000000000000BRBBDCACNPR8604
012013091682BBDCV27     080BBDCE       PN      N1000R$  000000000001300000000000140000000000013000000000001300000000000140000000000014000000000000000003000000000000017000000000000000230000000000000267602013102100000010000000000000BRBBDCACNPR8602
012013091682BBDCV29     080BBDCE       PN      N1000R$  000000000003800000000000490000000000038000000000004400000000000470000000000035000000000000000022000000000000042200000000000001863100000000000287602013102100000010000000000000BRBBDCACNPR8602
012013091682BBDCV30     080BBDCE       PN      N1000R$  000000000007000000000000770000000000070000000000007200000000000770000000000063000000000011800039000000000000063300000000000004613800000000000297602013102100000010000000000000BRBBDCACNPR8602
012013091682BBDCV31     080BBDCE       PN      N1000R$  000000000011800000000001370000000000117000000000012300000000001370000000000000000000000000000008000000000000014300000000000001759200000000000307602013102100000010000000000000BRBBDCACNPR8602
012013091682BBDCV58     080BBDCE       PN      N1000R$  000000000002500000000000320000000000025000000000002600000000000320000000000000000000000000000003000000000000013700000000000000368400000000000279802013102100000010000000000000BRBBDCACNPR8605
012013091682BBDCW28     080BBDCE       PN      N1000R$  000000000004000000000000400000000000040000000000004000000000000400000000000000000000000000000009000000000000006600000000000000264000000000000277602013111800000010000000000000BRBBDCACNPR8602
012013091682BBDCW30     080BBDCE       PN      N1000R$  000000000010400000000001190000000000104000000000010800000000001180000000000000000000000000000017000000000000023000000000000002488000000000000299802013111800000010000000000000BRBBDCACNPR8605
012013091682BBDCW31     080BBDCE       PN      N1000R$  000000000015200000000001710000000000152000000000016100000000001700000000000000000000000000000017000000000000029400000000000004759500000000000309802013111800000010000000000000BRBBDCACNPR8605
012013091682BBDCW9      080BBDCE       PN      N1000R$  000000000007200000000000790000000000072000000000007700000000000780000000000000000000000000000007000000000000010200000000000000787800000000000289802013111800000010000000000000BRBBDCACNPR8605
012013091612BBFI11B     010FII BB PROGRCI      MB   R$  000000042500000000004250000000000420001000000042312600000004240010000000424001000000042800000009000000000000000027000000000011424408000000000000009999123100000010000000000000BRBBFICTF006198
012013091612BBPO11      010FII BB PRGIICI           R$  000000001114900000000111680000000011024000000001108300000000110240000000011024000000001106100158000000000000012922000000000143219781000000000000009999123100000010000000000000BRBBPOCTF003110
012013091612BBRC11      010FII BB CORP CI           R$  000000000905000000000100000000000008955000000000928700000000100000000000009180000000001000000023000000000000001675000000000015556318000000000000009999123100000010000000000000BRBBRCCTF004124
012013091602BBRK3       010BR BROKERS  ON      NM   R$  000000000059000000000006140000000000585000000000060500000000006110000000000610000000000061501906000000000006393700000000003868549300000000000000009999123100000010000000000000BRBBRKACNOR4108
012013091696BBRK3F      020BR BROKERS  ON      NM   R$  000000000056800000000006080000000000568000000000059500000000006050000000000602000000000000000008000000000000000340000000000000202367000000000000009999123100000010000000000000BRBBRKACNOR4108
012013091638BBRKI55E    012BBRKE       ON      NM000R$  000000000055000000000005500000000000550000000000055000000000005500000000000000000000000000000001000000000000070000000000000038500000000000000055002013091600000010000000000000BRBBRKACNOR4108
012013091602BBSE3       010BBSEGURIDADEON      NM   R$  000000000209500000000021050000000002058000000000207600000000020880000000002083000000000208808936000000000009339900000000019395420700000000000000009999123100000010000000000000BRBBSEACNOR5101
012013091696BBSE3F      020BBSEGURIDADEON      NM   R$  000000000208900000000021020000000002057000000000208500000000020730000000002073000000000209000563000000000000017437000000000036356621000000000000009999123100000010000000000000BRBBSEACNOR5101
012013091662BBSE3T      030BBSEGURIDADEON      NM030R$  000000000208600000000020870000000002078000000000208200000000020790000000000000000000000000000004000000000000004000000000000008331559000000000000009999123100000010000000000000BRBBSEACNOR5101
012013091638BBSEI19E    012BBSE        ON      NM000R$  000000000185900000000018590000000001859000000000185900000000018590000000000000000000000000000004000000000001234900000000002295679100000000000185902013091600000010000000000000BRBBSEACNOR5101
012013091638BBSEI20E    012BBSE        ON      NM000R$  000000000195900000000019590000000001959000000000195900000000019590000000000000000000000000000008000000000000277000000000000542643000000000000195902013091600000010000000000000BRBBSEACNOR5101
012013091638BBSEI48E    012BBSE        ON      NM000R$  000000000185000000000018500000000001850000000000185000000000018500000000000000000000000000000001000000000000018000000000000033300000000000000185002013091600000010000000000000BRBBSEACNOR5101
012013091638BBSEI49E    012BBSE        ON      NM000R$  000000000190900000000019090000000001909000000000190900000000019090000000000000000000000000000004000000000000234000000000000446706000000000000190902013091600000010000000000000BRBBSEACNOR5101
012013091638BBSEI58E    012BBSE        ON      NM000R$  000000000180000000000018000000000001800000000000180000000000018000000000000000000000000000000001000000000000022000000000000039600000000000000180002013091600000010000000000000BRBBSEACNOR5101
012013091678BBSEJ21     070BBSE        ON      NM000R$  000000000006100000000000610000000000061000000000006100000000000610000000000000000000000000000002000000000000015000000000000000915000000000000205902013102100000010000000000000BRBBSEACNOR5100
012013091602BBTG11      010BTG PACTUAL UNT          R$  000000000292900000000030180000000002887000000000295900000000029100000000002910000000000291301767000000000000456200000000001350066200000000000000009999123100000010000000000000BRBBTGUNT007105
012013091696BBTG11F     020BTG PACTUAL UNT          R$  000000000296000000000029670000000002801000000000291700000000029040000000002808000000000307000014000000000000000310000000000000904490000000000000009999123100000010000000000000BRBBTGUNT007105
012013091612BBVJ11      010FII C JARDIMCI           R$  000000000785000000000078500000000007650000000000773900000000076500000000007651000000000779000017000000000000000890000000000006888056000000000000009999123100000010000000000000BRBBVJCTF001133
012013091612BCFF11B     010FII BC FFII CI  ER  MB   R$  000000000872900000000087290000000008571000000000864100000000086480000000008605000000000864800092000000000000003987000000000034452234000000000000009999123100000010000000000000BRBCFFCTF000142
012013091602BEEF3       010MINERVA     ON      NM   R$  000000000112700000000011270000000001099000000000110600000000011030000000001103000000000110401961000000000000440100000000000487135000000000000000009999123100000010000000000000BRBEEFACNOR6104
012013091696BEEF3F      020MINERVA     ON      NM   R$  000000000109900000000010990000000001099000000000109900000000010990000000001089000000000114800001000000000000000028000000000000030772000000000000009999123100000010000000000000BRBEEFACNOR6104
012013091602BEES3       010BANESTES    ON           R$  000000000004900000000000500000000000048000000000004800000000000500000000000049000000000005000007000000000000019400000000000000945600000000000000009999123100000010000000000000BRBEESACNOR9244
012013091602BEES4       010BANESTES    PN           R$  000000000004500000000000450000000000045000000000004500000000000450000000000044000000000004500002000000000000000200000000000000009000000000000000009999123100000010000000000000BRBEESACNPR6169
012013091602BEMA3       010BEMATECH    ON      NM   R$  000000000074500000000007570000000000745000000000074900000000007540000000000749000000000075400085000000000000021200000000000015880000000000000000009999123100000010000000000000BRBEMAACNOR0114
012013091696BEMA3F      020BEMATECH    ON      NM   R$  000000000076000000000007600000000000753000000000075400000000007540000000000712000000000075900004000000000000000105000000000000079188000000000000009999123100000010000000000000BRBEMAACNOR0114
012013091602BGIP4       010BANESE      PN           R$  000000000470000000000047000000000004700000000000470000000000047000000000004700000000000474800007000000000000008000000000000037600000000000000000009999123100000010000000000000BRBGIPACNPR8179
012013091602BHGR3       010BHG         ON      NM   R$  000000000142600000000014560000000001400000000000141800000000014320000000001410000000000143200085000000000000049100000000000069627700000000000000009999123100000010000000000000BRBHGRACNOR9101
012013091602BICB4       010BICBANCO    PN      N1   R$  000000000045200000000004530000000000443000000000044700000000004430000000000443000000000044600044000000000000023800000000000010638600000000000000009999123100000010000000000000BRBICBACNPR7131
012013091696BICB4F      020BICBANCO    PN      N1   R$  000000000045200000000004520000000000450000000000045000000000004500000000000450000000000048100002000000000000000021000000000000009460000000000000009999123100000010000000000000BRBICBACNPR7131
012013091602BIOM3       010BIOMM       ON           R$  000000000093000000000009400000000000930000000000093500000000009400000000000916000000000098000002000000000000002000000000000001870000000000000000009999123100000010000000000000BRBIOMACNOR2101
012013091696BIOM3F      020BIOMM       ON           R$  000000000090000000000009000000000000900000000000090000000000009000000000000755000000000092000002000000000000000015000000000000013500000000000000009999123100000010000000000000BRBIOMACNOR2101
012013091602BISA3       010BROOKFIELD  ON      NM   R$  000000000018400000000001860000000000177000000000018000000000001780000000000178000000000017907278000000000014686600000000002651867700000000000000009999123100000010000000000000BRBISAACNOR8109
012013091696BISA3F      020BROOKFIELD  ON      NM   R$  000000000018300000000001970000000000177000000000018000000000001770000000000177000000000019500029000000000000000899000000000000161939000000000000009999123100000010000000000000BRBISAACNOR8109
012013091662BISA3T      030BROOKFIELD  ON      NM063R$  000000000018200000000001830000000000181000000000018100000000001820000000000000000000000000000004000000000000085000000000000015442490000000000000009999123100000010000000000000BRBISAACNOR8109
012013091662BISA3T      030BROOKFIELD  ON      NM091R$  000000000018400000000001850000000000180000000000018100000000001820000000000000000000000000000008000000000000505000000000000091489055000000000000009999123100000010000000000000BRBISAACNOR8109
012013091612BJRC11      010FII JS RECIMCI           R$  000000009100000000000910000000000090000000000009054500000000900000000000090000000000009200000002000000000000000044000000000003984000000000000000009999123100000010000000000000BRBJRCCTF007110
012013091602BMEB4       010MERC BRASIL PN           R$  000000000110000000000011000000000001095000000000109900000000010950000000001095000000000110500004000000000000000500000000000000549500000000000000009999123100000010000000000000BRBMEBACNPR5191
012013091612BMLC11B     010FII BMBRC LCCI  ER  MB   R$  000000001149000000000114900000000011490000000001149000000000114900000000011400000000001149000002000000000000000024000000000000275760000000000000009999123100000010000000000000BRBMLCCTF004119
012013091602BMTO4       010BRASMOTOR   PN           R$  000000000008500000000000870000000000085000000000008500000000000870000000000084000000000008700011000000000000049000000000000004177000000000000000009999123100000010000000000000BRBMTOACNPR6065
012013091602BNBR4       010NORD BRASIL PN           R$  000000000245000000000024500000000002450000000000245000000000024500000000002208000000000250000001000000000000000500000000000001225000000000000000009999123100000010000000000000BRBNBRACNPR5187
012013091696BOBR4F      020BOMBRIL     PN           R$  000000000060000000000006000000000000600000000000060000000000006000000000000600000000000065800001000000000000000018000000000000010800000000000000009999123100000010000000000000BRBOBRACNPR3127
012013091614BOVA11      010ISHARES BOVACI           R$  000000000532300000000053240000000005225000000000526600000000052480000000005248000000000525502850000000000001410990000000007431305430000000000000009999123100000010000000000000BRBOVACTF003101
012013091696BOVA11F     020ISHARES BOVACI           R$  000000000528300000000053420000000005224000000000528500000000052240000000005220000000000534200015000000000000000044000000000000232572000000000000009999123100000010000000000000BRBOVACTF003101
012013091662BOVA11T     030ISHARES BOVACI        016R$  000000000531200000000053130000000005312000000000531200000000053130000000000000000000000000000004000000000000006000000000000031873308000000000000009999123100000010000000000000BRBOVACTF003101
012013091638BOVAI49E    012BOVA        CI        000R$  000000000490000000000049000000000004900000000000490000000000049000000000000000000000000000000003000000000000024300000000000119070000000000000490002013091600000010000000000000BRBOVACTF003101
012013091638BOVAI50E    012BOVA        CI        000R$  000000000500000000000050000000000005000000000000500000000000050000000000000000000000000000000003000000000000022700000000000113500000000000000500002013091600000010000000000000BRBOVACTF003101
012013091612BPFF11      010FII ABSOLUTOCI           R$  000000000835500000000084250000000008310000000000837500000000083880000000008375000000000838800029000000000000001558000000000013048715000000000000009999123100000010000000000000BRBPFFCTF002105
012013091602BPHA3       010BR PHARMA   ON      NM   R$  000000000082700000000008500000000000823000000000083700000000008320000000000830000000000083201812000000000000664200000000000556527600000000000000009999123100000010000000000000BRBPHAACNOR6102
012013091696BPHA3F      020BR PHARMA   ON      NM   R$  000000000083300000000008430000000000825000000000083300000000008360000000000810000000000086500005000000000000000186000000000000154962000000000000009999123100000010000000000000BRBPHAACNOR6102
012013091662BPHA3T      030BR PHARMA   ON      NM063R$  000000000084800000000008490000000000848000000000084800000000008490000000000000000000000000000002000000000000004000000000000003393440000000000000009999123100000010000000000000BRBPHAACNOR6102
012013091642BPHAU85E    013BPHAE       ON      NM000R$  000000000085000000000008500000000000850000000000085000000000008500000000000000000000000000000002000000000000900000000000000765000000000000000085002013091600000010000000000000BRBPHAACNOR6102
012013091642BPHAU95E    013BPHAE       ON      NM000R$  000000000095000000000009500000000000950000000000095000000000009500000000000000000000000000000002000000000000900000000000000855000000000000000095002013091600000010000000000000BRBPHAACNOR6102
012013091602BPNM4       010PANAMERICANOPN      N1   R$  000000000051600000000005200000000000511000000000051500000000005180000000000514000000000051800134000000000000063900000000000032939100000000000000009999123100000010000000000000BRBPNMACNPR6111
012013091696BPNM4F      020PANAMERICANOPN      N1   R$  000000000051300000000005150000000000513000000000051300000000005150000000000506000000000054800002000000000000000100000000000000051340000000000000009999123100000010000000000000BRBPNMACNPR6111
012013091602BRAP3       010BRADESPAR   ON      N1   R$  000000000206500000000021200000000002057000000000210200000000020790000000002080000000000211000013000000000000003200000000000006726500000000000000009999123100000010000000000000BRBRAPACNOR5124
012013091696BRAP3F      020BRADESPAR   ON      N1   R$  000000000214200000000021420000000002100000000000212400000000021000000000002011000000000208000002000000000000000024000000000000050988000000000000009999123100000010000000000000BRBRAPACNOR5124
012013091602BRAP4       010BRADESPAR   PN      N1   R$  000000000258700000000026110000000002555000000000257500000000025830000000002582000000000258303698000000000000837900000000002157722800000000000000009999123100000010000000000000BRBRAPACNPR2124
012013091696BRAP4F      020BRADESPAR   PN      N1   R$  000000000259000000000026020000000002556000000000257900000000025700000000002563000000000260200028000000000000000690000000000001779727000000000000009999123100000010000000000000BRBRAPACNPR2124
012013091662BRAP4T      030BRADESPAR   PN      N1067R$  000000000262500000000026260000000002625000000000262500000000026260000000000000000000000000000002000000000000001000000000000002625361000000000000009999123100000010000000000000BRBRAPACNPR2124
012013091638BRAPI22E    012BRAP        PN      N1000R$  000000000220000000000022000000000002200000000000220000000000022000000000000000000000000000000001000000000000010000000000000022000000000000000220002013091600000010000000000000BRBRAPACNPR2124
012013091638BRAPI24E    012BRAP        PN      N1000R$  000000000240000000000024000000000002400000000000240000000000024000000000000000000000000000000006000000000000056300000000000135120000000000000240002013091600000010000000000000BRBRAPACNPR2124
012013091638BRAPI25E    012BRAP        PN      N1000R$  000000000250000000000025000000000002500000000000250000000000025000000000000000000000000000000001000000000000002700000000000006750000000000000250002013091600000010000000000000BRBRAPACNPR2124
012013091678BRAPK28     070BRAP        PN      N1000R$  000000000004900000000000490000000000049000000000004900000000000490000000000000000000000005000001000000000000000100000000000000004900000000000280002013111800000010000000000000BRBRAPACNPR2124
012013091642BRAPU26E    013BRAPE       PN      N1000R$  000000000260000000000026000000000002600000000000260000000000026000000000000000000000000000000001000000000000000500000000000001300000000000000260002013091600000010000000000000BRBRAPACNPR2124
012013091614BRAX11      010ISHARES BRAXCI           R$  000000000424900000000042490000000004249000000000424900000000042490000000000000000000000000000001000000000000000010000000000000042490000000000000009999123100000010000000000000BRBRAXCTF002100
012013091612BRCR11      010FII BC FUND CI  ER       R$  000000001248000000000125480000000012450000000001249800000000125300000000012530000000001254800560000000000000034342000000000429238078000000000000009999123100000010000000000000BRBRCRCTF000133
012013091602BRFS3       010BRF SA      ON      NM   R$  000000000574700000000058850000000005705000000000574800000000057400000000005730000000000574005216000000000001191600000000006849360200000000000000009999123100000010000000000000BRBRFSACNOR8110
012013091696BRFS3F      020BRF SA      ON      NM   R$  000000000571000000000058550000000005710000000000575600000000057380000000005766000000000577100095000000000000002783000000000016018839000000000000009999123100000010000000000000BRBRFSACNOR8110
012013091662BRFS3T      030BRF SA      ON      NM016R$  000000000576000000000057610000000005760000000000576000000000057610000000000000000000000000000002000000000000001800000000000010369454000000000000009999123100000010000000000000BRBRFSACNOR8110
012013091662BRFS3T      030BRF SA      ON      NM030R$  000000000588000000000058810000000005762000000000578000000000057630000000000000000000000000000008000000000000001500000000000008670360000000000000009999123100000010000000000000BRBRFSACNOR8110
012013091638BRFSI20E    012BRFS        ON      NM000R$  000000000501000000000050100000000005010000000000501000000000050100000000000000000000000000000001000000000000044000000000000220440000000000000501002013091600000010000000000000BRBRFSACNOR8110
012013091638BRFSI43E    012BRFS        ON      NM000R$  000000000426000000000042600000000004260000000000426000000000042600000000000000000000000000000001000000000000010000000000000042600000000000000426002013091600000010000000000000BRBRFSACNOR8110
012013091638BRFSI44E    012BRFS        ON      NM000R$  000000000440000000000044000000000004400000000000440000000000044000000000000000000000000000000001000000000000004000000000000017600000000000000440002013091600000010000000000000BRBRFSACNOR8110
012013091638BRFSI47E    012BRFS        ON      NM000R$  000000000470000000000047000000000004700000000000470000000000047000000000000000000000000000000001000000000000435000000000002044500000000000000470002013091600000010000000000000BRBRFSACNOR8110
012013091638BRFSI50E    012BRFS        ON      NM000R$  000000000500000000000050000000000005000000000000500000000000050000000000000000000000000000000002000000000000004000000000000020000000000000000500002013091600000010000000000000BRBRFSACNOR8110
012013091638BRFSI51E    012BRFS        ON      NM000R$  000000000510000000000051000000000005100000000000510000000000051000000000000000000000000000000002000000000000021300000000000108630000000000000510002013091600000010000000000000BRBRFSACNOR8110
012013091638BRFSI52E    012BRFS        ON      NM000R$  000000000520000000000052000000000005200000000000520000000000052000000000000000000000000000000001000000000000000100000000000000520000000000000520002013091600000010000000000000BRBRFSACNOR8110
012013091638BRFSI53E    012BRFS        ON      NM000R$  000000000530000000000053000000000005300000000000530000000000053000000000000000000000000000000005000000000000055700000000000295210000000000000530002013091600000010000000000000BRBRFSACNOR8110
012013091638BRFSI54E    012BRFS        ON      NM000R$  000000000540000000000054000000000005400000000000540000000000054000000000000000000000000000000004000000000000020000000000000108000000000000000540002013091600000010000000000000BRBRFSACNOR8110
012013091638BRFSI55E    012BRFS        ON      NM000R$  000000000550000000000055000000000005500000000000550000000000055000000000000000000000000000000004000000000000040100000000000220550000000000000550002013091600000010000000000000BRBRFSACNOR8110
012013091638BRFSI57E    012BRFS        ON      NM000R$  000000000570000000000057000000000005700000000000570000000000057000000000000000000000000000000005000000000000001500000000000008550000000000000570002013091600000010000000000000BRBRFSACNOR8110
012013091638BRFSI58E    012BRFS        ON      NM000R$  000000000580000000000058000000000005800000000000580000000000058000000000000000000000000000000001000000000000000100000000000000580000000000000580002013091600000010000000000000BRBRFSACNOR8110
012013091678BRFSJ56     070BRFS        ON      NM000R$  000000000022500000000002250000000000224000000000022400000000002240000000000000000000000000000002000000000000013000000000000002912100000000000560002013102100000010000000000000BRBRFSACNOR8110
012013091678BRFSJ59     070BRFS        ON      NM000R$  000000000008800000000000950000000000088000000000009000000000000950000000000000000000000000000003000000000000000600000000000000054200000000000590002013102100000010000000000000BRBRFSACNOR8110
012013091678BRFSJ60     070BRFS        ON      NM000R$  000000000005800000000000580000000000058000000000005800000000000580000000000000000000000000000001000000000000000400000000000000023200000000000600002013102100000010000000000000BRBRFSACNOR8110
012013091682BRFSV55     080BRFSE       ON      NM000R$  000000000008200000000000820000000000052000000000007300000000000750000000000052000000000007500012000000000000008600000000000000633900000000000550002013102100000010000000000000BRBRFSACNOR8110
012013091602BRGE8       010ALFA CONSORCPND          R$  000000000037100000000003710000000000371000000000037100000000003710000000000371000000000060000001000000000000000100000000000000037100000000000000009999123100000010000000000000BRBRGEACNPD3200
012013091602BRIN3       010BR INSURANCEON      NM   R$  000000000196500000000020500000000001965000000000201100000000020280000000002001000000000202801141000000000000450700000000000906600400000000000000009999123100000010000000000000BRBRINACNOR3106
012013091696BRIN3F      020BR INSURANCEON      NM   R$  000000000197900000000020390000000001979000000000200200000000020000000000001999000000000200500018000000000000000141000000000000282374000000000000009999123100000010000000000000BRBRINACNOR3106
012013091602BRIV4       010ALFA INVEST PN           R$  000000000060500000000006050000000000605000000000060500000000006050000000000560000000000060500001000000000000000200000000000000121000000000000000009999123100000010000000000000BRBRIVACNPR3197
012013091602BRKM3       010BRASKEM     ON      N1   R$  000000000126900000000012690000000001242000000000124900000000012420000000001241000000000127000007000000000000003000000000000003749600000000000000009999123100000010000000000000BRBRKMACNOR1110
012013091602BRKM5       010BRASKEM     PNA     N1   R$  000000000186200000000018750000000001845000000000185800000000018630000000001850000000000186306326000000000001746200000000003245397700000000000000009999123100000010000000000000BRBRKMACNPA4110
012013091696BRKM5F      020BRASKEM     PNA     N1   R$  000000000180100000000018750000000001801000000000186000000000018470000000001846000000000185600042000000000000000760000000000001412954000000000000009999123100000010000000000000BRBRKMACNPA4110
012013091638BRKMI47E    012BRKM        PNA     N1000R$  000000000175000000000017500000000001750000000000175000000000017500000000000000000000000000000002000000000000050000000000000087500000000000000175002013091600000010000000000000BRBRKMACNPA4110
012013091638BRKMI48E    012BRKM        PNA     N1000R$  000000000185000000000018500000000001850000000000185000000000018500000000000000000000000000000003000000000000635000000000001174750000000000000185002013091600000010000000000000BRBRKMACNPA4110
012013091638BRKMI53E    012BRKME       PNA     N1000R$  000000000132500000000013250000000001325000000000132500000000013250000000000000000000000000000004000000000001155000000000001530375000000000000132502013091600000010000000000000BRBRKMACNPA4110
012013091642BRKMU59E    013BRKME       PNA     N1000R$  000000000192500000000019250000000001925000000000192500000000019250000000000000000000000000000002000000000000778000000000001497650000000000000192502013091600000010000000000000BRBRKMACNPA4110
012013091642BRKMU60E    013BRKME       PNA     N1000R$  000000000202500000000020250000000002025000000000202500000000020250000000000000000000000000000001000000000000377000000000000763425000000000000202502013091600000010000000000000BRBRKMACNPA4110
012013091602BRML3       010BR MALLS PARON      NM   R$  000000000201500000000020950000000002015000000000205900000000020510000000002047000000000205112804000000000002627100000000005410857300000000000000009999123100000010000000000000BRBRMLACNOR9105
012013091696BRML3F      020BR MALLS PARON      NM   R$  000000000203800000000020800000000002037000000000205900000000020430000000002012000000000204400046000000000000001451000000000002987537000000000000009999123100000010000000000000BRBRMLACNOR9105
012013091662BRML3T      030BR MALLS PARON      NM030R$  000000000204800000000020490000000002048000000000204800000000020490000000000000000000000000000004000000000000000600000000000001228826000000000000009999123100000010000000000000BRBRMLACNOR9105
012013091638BRMLI19E    012BRML        ON      NM000R$  000000000190000000000019000000000001900000000000190000000000019000000000000000000000000000000006000000000000051400000000000097660000000000000190002013091600000010000000000000BRBRMLACNOR9105
012013091638BRMLI20E    012BRML        ON      NM000R$  000000000200000000000020000000000002000000000000200000000000020000000000000000000000000000000001000000000000000200000000000000400000000000000200002013091600000010000000000000BRBRMLACNOR9105
012013091678BRMLJ22     070BRML        ON      NM000R$  000000000002900000000000290000000000029000000000002900000000000290000000000000000000000003000001000000000000000400000000000000011600000000000220002013102100000010000000000000BRBRMLACNOR9105
012013091642BRMLU22E    013BRMLE       ON      NM000R$  000000000220000000000022000000000002200000000000220000000000022000000000000000000000000000000001000000000000020000000000000044000000000000000220002013091600000010000000000000BRBRMLACNOR9105
012013091602BRPR3       010BR PROPERT  ON      NM   R$  000000000190500000000019470000000001900000000000192500000000019220000000001917000000000192507530000000000001912300000000003681884600000000000000009999123100000010000000000000BRBRPRACNOR9112
012013091696BRPR3F      020BR PROPERT  ON      NM   R$  000000000191000000000019570000000001909000000000192500000000019110000000001911000000000195400022000000000000000903000000000001737998000000000000009999123100000010000000000000BRBRPRACNOR9112
012013091662BRPR3T      030BR PROPERT  ON      NM016R$  000000000193400000000019350000000001934000000000193400000000019350000000000000000000000000000002000000000000002000000000000003868178000000000000009999123100000010000000000000BRBRPRACNOR9112
012013091662BRPR3T      030BR PROPERT  ON      NM030R$  000000000193000000000019310000000001930000000000193000000000019310000000000000000000000000000002000000000000001000000000000001930178000000000000009999123100000010000000000000BRBRPRACNOR9112
012013091602BRSR3       010BANRISUL    ON      N1   R$  000000000143000000000014300000000001400000000000142500000000014000000000001300000000000141700005000000000000000700000000000000998000000000000000009999123100000010000000000000BRBRSRACNOR3131
012013091696BRSR5F      020BANRISUL    PNA     N1   R$  000000000155000000000015500000000001550000000000155000000000015500000000001448000000000166500002000000000000000027000000000000041850000000000000009999123100000010000000000000BRBRSRACNPA6135
012013091602BRSR6       010BANRISUL    PNB     N1   R$  000000000159500000000015950000000001531000000000154100000000015400000000001538000000000154201670000000000000527200000000000812839200000000000000009999123100000010000000000000BRBRSRACNPB4134
012013091696BRSR6F      020BANRISUL    PNB     N1   R$  000000000155000000000015620000000001521000000000154500000000015540000000001522000000000155400030000000000000000813000000000001256537000000000000009999123100000010000000000000BRBRSRACNPB4134
012013091602BSEV3       010BIOSEV      ON      NM   R$  000000000096100000000009750000000000956000000000096300000000009750000000000808000000000099000009000000000000002600000000000002504300000000000000009999123100000010000000000000BRBSEVACNOR3100
012013091602BTOW3       010B2W DIGITAL ON      NM   R$  000000000158000000000016200000000001513000000000155000000000015250000000001522000000000152501550000000000000300400000000000465782500000000000000009999123100000010000000000000BRBTOWACNOR8105
012013091696BTOW3F      020B2W DIGITAL ON      NM   R$  000000000156000000000016190000000001515000000000155000000000015200000000001550000000000160000026000000000000000657000000000001018768000000000000009999123100000010000000000000BRBTOWACNOR8105
012013091678BTOWJ16     070BTOW        ON      NM000R$  000000000008400000000000840000000000084000000000008400000000000840000000000000000000000009000003000000000000010100000000000000848400000000000160002013102100000010000000000000BRBTOWACNOR8105
012013091602BTTL4       010BATTISTELLA PN           R$  000000000009900000000001000000000000099000000000009900000000001000000000000099000000000010000003000000000000005600000000000000554500000000000000009999123100000010000000000000BRBTTLACNPR7105
012013091602BVMF3       010BMFBOVESPA  ON      NM   R$  000000000127400000000012900000000001271000000000128000000000012800000000001279000000000128016281000000000008651600000000011082315800000000000000009999123100000010000000000000BRBVMFACNOR3126
012013091696BVMF3F      020BMFBOVESPA  ON      NM   R$  000000000127300000000012880000000001272000000000128000000000012830000000001270000000000128300091000000000000002811000000000003599315000000000000009999123100000010000000000000BRBVMFACNOR3126
012013091662BVMF3T      030BMFBOVESPA  ON      NM030R$  000000000129400000000012960000000001286000000000129200000000012900000000000000000000000000000012000000000000550000000000000710625315000000000000009999123100000010000000000000BRBVMFACNOR3126
012013091662BVMF3T      030BMFBOVESPA  ON      NM038R$  000000000128800000000012910000000001288000000000128900000000012910000000000000000000000000000004000000000000004000000000000005158774000000000000009999123100000010000000000000BRBVMFACNOR3126
012013091662BVMF3T      030BMFBOVESPA  ON      NM067R$  000000000130700000000013080000000001299000000000130500000000013000000000000000000000000000000004000000000000008000000000000010441544000000000000009999123100000010000000000000BRBVMFACNOR3126
012013091662BVMF3T      030BMFBOVESPA  ON      NM091R$  000000000130700000000013080000000001307000000000130700000000013080000000000000000000000000000002000000000000010000000000000013071360000000000000009999123100000010000000000000BRBVMFACNOR3126
012013091662BVMF3T      030BMFBOVESPA  ON      NM094R$  000000000131500000000013160000000001315000000000131500000000013160000000000000000000000000000002000000000000005000000000000006579843000000000000009999123100000010000000000000BRBVMFACNOR3126
012013091678BVMFA14     070BVMF        ON      NM000R$  000000000004100000000000410000000000041000000000004100000000000410000000000000000000000000000001000000000000001000000000000000041000000000000140002014012000000010000000000000BRBVMFACNOR3126
012013091678BVMFA44     070BVMF        ON      NM000R$  000000000002600000000000260000000000026000000000002600000000000260000000000000000000000000000001000000000000000800000000000000020800000000000145002014012000000010000000000000BRBVMFACNOR3126
012013091638BVMFI10E    012BVMF        ON      NM000R$  000000000098500000000009850000000000985000000000098500000000009850000000000000000000000000000006000000000000040200000000000039597000000000000098502013091600000010000000000000BRBVMFACNOR3126
012013091638BVMFI11E    012BVMF        ON      NM000R$  000000000108500000000010850000000001085000000000108500000000010850000000000000000000000000000047000000000000802100000000000870278500000000000108502013091600000010000000000000BRBVMFACNOR3126
012013091638BVMFI12E    012BVMF        ON      NM000R$  000000000118500000000011850000000001185000000000118500000000011850000000000000000000000000000132000000000001325800000000001571073000000000000118502013091600000010000000000000BRBVMFACNOR3126
012013091638BVMFI13E    012BVMF        ON      NM000R$  000000000128500000000012850000000001285000000000128500000000012850000000000000000000000000000072000000000000596800000000000766888000000000000128502013091600000010000000000000BRBVMFACNOR3126
012013091638BVMFI40E    012BVMF        ON      NM000R$  000000000103500000000010350000000001035000000000103500000000010350000000000000000000000000000008000000000000049500000000000051232500000000000103502013091600000010000000000000BRBVMFACNOR3126
012013091638BVMFI41E    012BVMF        ON      NM000R$  000000000113500000000011350000000001135000000000113500000000011350000000000000000000000000000027000000000000400800000000000454908000000000000113502013091600000010000000000000BRBVMFACNOR3126
012013091638BVMFI42E    012BVMF        ON      NM000R$  000000000123500000000012350000000001235000000000123500000000012350000000000000000000000000000040000000000000911300000000001125455500000000000123502013091600000010000000000000BRBVMFACNOR3126
012013091678BVMFJ11     070BVMF        ON      NM000R$  000000000021000000000002120000000000201000000000020200000000002020000000000191000000000000000056000000000000100000000000000020298900000000000108502013102100000010000000000000BRBVMFACNOR3125
012013091678BVMFJ12     070BVMF  FM    ON      NM000R$  000000000011600000000001250000000000113000000000011700000000001170000000000111000000000012100889000000000000609700000000000071773500000000000118502013102100000010000000000000BRBVMFACNOR3125
012013091678BVMFJ13     070BVMF  FM    ON      NM000R$  000000000004500000000000550000000000045000000000004900000000000460000000000042000000000004900495000000000000686200000000000033960300000000000128502013102100000010000000000000BRBVMFACNOR3125
012013091678BVMFJ14     070BVMF  FM    ON      NM000R$  000000000001200000000000140000000000011000000000001200000000000130000000000013000000000001500048000000000000107100000000000001348000000000000138502013102100000010000000000000BRBVMFACNOR3125
012013091678BVMFJ15     070BVMF        ON      NM000R$  000000000000200000000000020000000000002000000000000200000000000020000000000002000000000000400002000000000000007700000000000000015400000000000148502013102100000010000000000000BRBVMFACNOR3125
012013091678BVMFJ42     070BVMF  FM    ON      NM000R$  000000000007900000000000850000000000076000000000008300000000000770000000000000000000000008800092000000000000120400000000000010013800000000000123502013102100000010000000000000BRBVMFACNOR3125
012013091678BVMFJ43     070BVMF  FM    ON      NM000R$  000000000002600000000000280000000000022000000000002300000000000240000000000000000000000003000014000000000000060500000000000001451300000000000133502013102100000010000000000000BRBVMFACNOR3125
012013091678BVMFK11     070BVMF        ON      NM000R$  000000000022500000000002250000000000225000000000022500000000002250000000000000000000000000000001000000000000000500000000000000112500000000000108502013111800000010000000000000BRBVMFACNOR3125
012013091678BVMFK12     070BVMF  FM    ON      NM000R$  000000000013100000000001370000000000128000000000013400000000001280000000000000000000000000000027000000000000067500000000000009101500000000000118502013111800000010000000000000BRBVMFACNOR3125
012013091678BVMFK13     070BVMF  FM    ON      NM000R$  000000000006500000000000700000000000060000000000006500000000000600000000000000000000000006500122000000000000142300000000000009385100000000000128502013111800000010000000000000BRBVMFACNOR3125
012013091678BVMFK14     070BVMF  FM    ON      NM000R$  000000000002000000000000230000000000018000000000002000000000000190000000000019000000000002001317000000000001532100000000000031517200000000000138502013111800000010000000000000BRBVMFACNOR3125
012013091678BVMFK42     070BVMF  FM    ON      NM000R$  000000000008900000000000890000000000089000000000008900000000000890000000000000000000000000000001000000000000003500000000000000311500000000000125002013111800000010000000000000BRBVMFACNOR3126
012013091678BVMFK43     070BVMF  FM    ON      NM000R$  000000000003700000000000370000000000033000000000003400000000000330000000000000000000000000000010000000000000030000000000000001046000000000000135002013111800000010000000000000BRBVMFACNOR3126
012013091678BVMFK56     070BVMFE       ON      NM000R$  000000000000400000000000040000000000004000000000000400000000000040000000000000000000000000000002000000000000440000000000000001760000000000000162502013111800000010000000000000BRBVMFACNOR3126
012013091678BVMFL13     070BVMF        ON      NM000R$  000000000009000000000000920000000000090000000000009000000000000920000000000000000000000000000002000000000000002000000000000000180400000000000128502013121600000010000000000000BRBVMFACNOR3125
012013091678BVMFL42     070BVMF        ON      NM000R$  000000000009800000000000980000000000098000000000009800000000000980000000000000000000000000000001000000000000000300000000000000029400000000000125002013121600000010000000000000BRBVMFACNOR3126
012013091642BVMFU13E    013BVMFE       ON      NM000R$  000000000128500000000012850000000001285000000000128500000000012850000000000000000000000000000003000000000000019600000000000025186000000000000128502013091600000010000000000000BRBVMFACNOR3126
012013091642BVMFU14E    013BVMFE       ON      NM000R$  000000000138500000000013850000000001385000000000138500000000013850000000000000000000000000000001000000000000005100000000000007063500000000000138502013091600000010000000000000BRBVMFACNOR3126
012013091642BVMFU35E    013BVMFE       ON      NM000R$  000000000131000000000013100000000001310000000000131000000000013100000000000000000000000000000002000000000000440000000000000576400000000000000131002013091600000010000000000000BRBVMFACNOR3126
012013091642BVMFU43E    013BVMFE       ON      NM000R$  000000000133500000000013350000000001335000000000133500000000013350000000000000000000000000000007000000000000064000000000000085440000000000000133502013091600000010000000000000BRBVMFACNOR3126
012013091682BVMFV12     080BVMFE FM    ON      NM000R$  000000000001700000000000170000000000014000000000001500000000000170000000000016000000000001700038000000000000077200000000000001214600000000000118502013102100000010000000000000BRBVMFACNOR3125
012013091682BVMFV13     080BVMFE FM    ON      NM000R$  000000000004500000000000480000000000042000000000004400000000000480000000000039000000000005000011000000000000021600000000000000964700000000000128502013102100000010000000000000BRBVMFACNOR3125
012013091682BVMFV41     080BVMFE FM    ON      NM000R$  000000000000700000000000090000000000007000000000000800000000000090000000000000000000000001000030000000000000065400000000000000573600000000000113502013102100000010000000000000BRBVMFACNOR3125
012013091682BVMFV42     080BVMFE FM    ON      NM000R$  000000000002600000000000300000000000025000000000002700000000000290000000000020000000000004000027000000000000049500000000000001383600000000000123502013102100000010000000000000BRBVMFACNOR3125
012013091682BVMFV43     080BVMFE       ON      NM000R$  000000000007000000000000700000000000070000000000007000000000000700000000000000000000000000000001000000000000000100000000000000007000000000000133502013102100000010000000000000BRBVMFACNOR3125
012013091682BVMFW12     080BVMFE FM    ON      NM000R$  000000000002600000000000270000000000026000000000002600000000000270000000000000000000000000000003000000000000010500000000000000276500000000000118502013111800000010000000000000BRBVMFACNOR3125
012013091682BVMFW13     080BVMFE FM    ON      NM000R$  000000000005500000000000570000000000053000000000005600000000000570000000000053000000000012200003000000000000004000000000000000226800000000000128502013111800000010000000000000BRBVMFACNOR3125
012013091682BVMFW42     080BVMFE FM    ON      NM000R$  000000000004400000000000440000000000044000000000004400000000000440000000000000000000000000000006000000000000019000000000000000836000000000000125002013111800000010000000000000BRBVMFACNOR3126
012013091682BVMFW56     080BVMFE       ON      NM000R$  000000000032600000000003260000000000326000000000032600000000003260000000000000000000000000000002000000000000440000000000000143440000000000000162502013111800000010000000000000BRBVMFACNOR3126
012013091696CALI3F      020CONST A LINDON           R$  000000002000000000000200000000000020000000000002000000000000200000000000015000000000003500000001000000000000000001000000000000020000000000000000009999123100000010000000000000BRCALIACNOR1127
012013091696CALI4F      020CONST A LINDPN           R$  000000002000000000000200000000000020000000000002000000000000200000000000015000000000002499900006000000000000000008000000000000160000000000000000009999123100000010000000000000BRCALIACNPR8131
012013091602CAMB4       010CAMBUCI     PN           R$  000000000018600000000001860000000000186000000000018600000000001860000000000186000000000019600001000000000000000100000000000000018600000000000000009999123100000010000000000000BRCAMBACNPR1117
012013091696CAMB4F      020CAMBUCI     PN           R$  000000000018100000000001810000000000172000000000017600000000001720000000000110000000000025000003000000000000000003000000000000000528000000000000009999123100000010000000000000BRCAMBACNPR1117
012013091602CARD3       010CSU CARDSYSTON      NM   R$  000000000032200000000003220000000000315000000000031800000000003200000000000312000000000032200014000000000000014100000000000004493900000000000000009999123100000010000000000000BRCARDACNOR9105
012013091696CARD3F      020CSU CARDSYSTON      NM   R$  000000000031600000000003160000000000316000000000031600000000003160000000000309000000000032300001000000000000000024000000000000007584000000000000009999123100000010000000000000BRCARDACNOR9105
012013091602CBEE3       010AMPLA ENERG ON *         R$  000000000013000000000001300000000000130000000000013000000000001300000000000126000000000013000001000000000000200000000000000000026000000000000000009999123100010000000000000000BRCBEEACNOR3149
012013091602CBMA4       010COBRASMA    PN           R$  000000000000400000000000040000000000004000000000000400000000000040000000000004000000000000500002000000000000040000000000000000160000000000000000009999123100000010000000000000BRCBMAACNPR1124
012013091696CBMA4F      020COBRASMA    PN           R$  000000000000400000000000040000000000004000000000000400000000000040000000000003000000000000400001000000000000000001000000000000000004000000000000009999123100000010000000000000BRCBMAACNPR1124
012013091608CCHI3       010CHIARELLI   ON           R$  000000000001800000000000230000000000018000000000002000000000000190000000000019000000000002000147000000000002210000000000000045250000000000000000009999123100000010000000000000BRCCHIACNOR5123
012013091696CCHI3F      020CHIARELLI   ON           R$  000000000002000000000000220000000000018000000000002000000000000180000000000018000000000002100021000000000000056800000000000001146500000000000000009999123100000010000000000000BRCCHIACNOR5123
012013091608CCHI4       010CHIARELLI   PN           R$  000000000001500000000000170000000000015000000000001500000000000150000000000015000000000001600032000000000000510000000000000008030000000000000000009999123100000010000000000000BRCCHIACNPR2122
012013091602CCPR3       010CYRE COM-CCPON      NM   R$  000000000209900000000021480000000002099000000000212600000000021480000000002100000000000214800008000000000000000900000000000001913700000000000000009999123100000010000000000000BRCCPRACNOR9107
012013091696CCPR3F      020CYRE COM-CCPON      NM   R$  000000000203100000000020600000000002031000000000203900000000020600000000002008000000000219000003000000000000000072000000000000146812000000000000009999123100000010000000000000BRCCPRACNOR9107
012013091602CCRO3       010CCR SA      ON      NM   R$  000000000184700000000018540000000001786000000000181900000000018000000000001799000000000180012697000000000007356300000000013386568500000000000000009999123100000010000000000000BRCCROACNOR2122
012013091696CCRO3F      020CCR SA      ON      NM   R$  000000000185400000000018540000000001790000000000181800000000018040000000001801000000000183800081000000000000002243000000000004079401000000000000009999123100000010000000000000BRCCROACNOR2122
012013091662CCRO3T      030CCR SA      ON      NM016R$  000000000180700000000018100000000001807000000000180700000000018100000000000000000000000000000006000000000000071000000000000128339100000000000000009999123100000010000000000000BRCCROACNOR2122
012013091662CCRO3T      030CCR SA      ON      NM038R$  000000000184000000000018420000000001840000000000184100000000018420000000000000000000000000000004000000000000000200000000000000368217000000000000009999123100000010000000000000BRCCROACNOR2122
012013091662CCRO3T      030CCR SA      ON      NM066R$  000000000185200000000018540000000001852000000000185300000000018540000000000000000000000000000004000000000000000400000000000000741393000000000000009999123100000010000000000000BRCCROACNOR2122
012013091638CCROI17E    012CCRO        ON      NM000R$  000000000170000000000017000000000001700000000000170000000000017000000000000000000000000000000007000000000000556800000000000946560000000000000170002013091600000010000000000000BRCCROACNOR2122
012013091638CCROI18E    012CCRO        ON      NM000R$  000000000180000000000018000000000001800000000000180000000000018000000000000000000000000000000011000000000000034200000000000061560000000000000180002013091600000010000000000000BRCCROACNOR2122
012013091638CCROI47E    012CCRO        ON      NM000R$  000000000175000000000017500000000001750000000000175000000000017500000000000000000000000000000004000000000000068900000000000120575000000000000175002013091600000010000000000000BRCCROACNOR2122
012013091678CCROJ48     070CCRO        ON      NM000R$  000000000004200000000000420000000000042000000000004200000000000420000000000000000000000000000002000000000000004000000000000000168000000000000185002013102100000010000000000000BRCCROACNOR2122
012013091678CCROJ75     070CCROE       ON      NM000R$  000000000001600000000000160000000000016000000000001600000000000160000000000000000000000000000002000000000000064600000000000001033600000000000187502013102100000010000000000000BRCCROACNOR2122
012013091602CCXC3       010CCX CARVAO  ON      NM   R$  000000000018700000000001940000000000163000000000017600000000001650000000000165000000000016602445000000000011619700000000002055742300000000000000009999123100000010000000000000BRCCXCACNOR5100
012013091696CCXC3F      020CCX CARVAO  ON      NM   R$  000000000018600000000001880000000000165000000000017400000000001650000000000165000000000017700036000000000000000983000000000000171214000000000000009999123100000010000000000000BRCCXCACNOR5100
012013091662CCXC3T      030CCX CARVAO  ON      NM016R$  000000000017000000000001710000000000170000000000017000000000001710000000000000000000000000000002000000000000002000000000000000341428000000000000009999123100000010000000000000BRCCXCACNOR5100
012013091662CCXC3T      030CCX CARVAO  ON      NM063R$  000000000017700000000001780000000000177000000000017700000000001780000000000000000000000000000002000000000000010000000000000001774675000000000000009999123100000010000000000000BRCCXCACNOR5100
012013091696CEEB3F      020COELBA      ON           R$  000000000350000000000035000000000003500000000000350000000000035000000000003090000000000350000001000000000000000035000000000000122500000000000000009999123100000010000000000000BRCEEBACNOR3163
012013091612CEOC11B     010FII CEO CCP CI  ER  MB   R$  000000000844000000000084600000000008303000000000839200000000084500000000008350000000000845000078000000000000003494000000000029324580000000000000009999123100000010000000000000BRCEOCCTF003110
012013091602CESP3       010CESP        ON      N1   R$  000000000175000000000017500000000001750000000000175000000000017500000000001720000000000175000001000000000000000100000000000000175000000000000000009999123100000010000000000000BRCESPACNOR3160
012013091602CESP5       010CESP        PNA     N1   R$  000000000235000000000023500000000002338000000000233900000000023380000000002316000000000236900004000000000000001100000000000002573700000000000000009999123100000010000000000000BRCESPACNPA6108
012013091696CESP5F      020CESP        PNA     N1   R$  000000000233800000000023380000000002338000000000233800000000023380000000002144000000000241400001000000000000000050000000000000116900000000000000009999123100000010000000000000BRCESPACNPA6108
012013091602CESP6       010CESP        PNB     N1   R$  000000000232500000000023940000000002320000000000236600000000023640000000002359000000000236402871000000000000617000000000001460116900000000000000009999123100000010000000000000BRCESPACNPB4119
012013091696CESP6F      020CESP        PNB     N1   R$  000000000234000000000023880000000002310000000000235600000000023500000000002340000000000238600018000000000000000471000000000001110046000000000000009999123100000010000000000000BRCESPACNPB4119
012013091638CESPI21E    012CESP        PNB     N1000R$  000000000207700000000020770000000002077000000000207700000000020770000000000000000000000000000006000000000000738100000000001533033700000000000207702013091600000010000000000000BRCESPACNPB4119
012013091602CGAS5       010COMGAS      PNA          R$  000000000592900000000059410000000005801000000000587100000000058700000000005844000000000587000071000000000000011000000000000064581800000000000000009999123100000010000000000000BRCGASACNPA3129
012013091696CGAS5F      020COMGAS      PNA          R$  000000000599800000000059980000000005831000000000589600000000059050000000005526000000000590500004000000000000000004000000000000023584000000000000009999123100000010000000000000BRCGASACNPA3129
012013091602CGRA4       010GRAZZIOTIN  PN           R$  000000000179000000000017900000000001780000000000178400000000017900000000001770000000000179000009000000000000002400000000000004282500000000000000009999123100000010000000000000BRCGRAACNPR9061
012013091696CGRA4F      020GRAZZIOTIN  PN           R$  000000000180000000000018000000000001732000000000178100000000017320000000001732000000000190000003000000000000000055000000000000097980000000000000009999123100000010000000000000BRCGRAACNPR9061
012013091602CIEL3       010CIELO       ON  EDJ NM   R$  000000000570100000000058150000000005655000000000574400000000057850000000005778000000000578509140000000000003160100000000018152975300000000000000009999123100000010000000000000BRCIELACNOR3112
012013091696CIEL3F      020CIELO       ON  EDJ NM   R$  000000000570000000000058000000000005650000000000573200000000057850000000005783000000000578500127000000000000003575000000000020497286000000000000009999123100000010000000000000BRCIELACNOR3112
012013091662CIEL3T      030CIELO       ON  EDJ NM030R$  000000000571600000000057860000000005716000000000578500000000057850000000000000000000000000000030000000000000350300000000002026584318000000000000009999123100000010000000000000BRCIELACNOR3112
012013091638CIELI56E    012CIEL    /EDJON      NM000R$  000000000549400000000054940000000005494000000000549400000000054940000000000000000000000000000001000000000000005000000000000027470000000000000549402013091600000010000000000000BRCIELACNOR3112
012013091638CIELI57E    012CIEL    /EDJON      NM000R$  000000000559400000000055940000000005594000000000559400000000055940000000000000000000000000000004000000000000001100000000000006153400000000000559402013091600000010000000000000BRCIELACNOR3112
012013091638CIELI58E    012CIEL    /EDJON      NM000R$  000000000569400000000056940000000005694000000000569400000000056940000000000000000000000000000001000000000000002000000000000011388000000000000569402013091600000010000000000000BRCIELACNOR3112
012013091678CIELJ58     070CIEL    /EDJON      NM000R$  000000000016300000000001630000000000163000000000016300000000001630000000000000000000000000000001000000000000005000000000000000815000000000000569402013102100000010000000000000BRCIELACNOR3111
012013091678CIELJ61     070CIEL    /EDJON      NM000R$  000000000006200000000000620000000000062000000000006200000000000620000000000000000000000000000001000000000000010000000000000000620000000000000610002013102100000010000000000000BRCIELACNOR3112
012013091602CLSC4       010CELESC      PN      N2   R$  000000000178900000000017890000000001766000000000177200000000017750000000001765000000000177900011000000000000003100000000000005494800000000000000009999123100000010000000000000BRCLSCACNPR3107
012013091602CMIG3       010CEMIG       ON      N1   R$  000000000185100000000018900000000001851000000000187900000000018680000000001857000000000188500275000000000000043100000000000081018200000000000000009999123100000010000000000000BRCMIGACNOR6208
012013091696CMIG3F      020CEMIG       ON      N1   R$  000000000187500000000018990000000001865000000000187900000000018750000000001880000000000194700023000000000000000648000000000001217733000000000000009999123100000010000000000000BRCMIGACNOR6208
012013091602CMIG4       010CEMIG       PN      N1   R$  000000000187500000000018920000000001874000000000188200000000018860000000001885000000000188607315000000000002951000000000005555875400000000000000009999123100000010000000000000BRCMIGACNPR3208
012013091696CMIG4F      020CEMIG       PN      N1   R$  000000000189000000000018940000000001873000000000188200000000018810000000001881000000000188400118000000000000003289000000000006192723000000000000009999123100000010000000000000BRCMIGACNPR3208
012013091662CMIG4T      030CEMIG       PN      N1016R$  000000000189000000000018910000000001890000000000189000000000018910000000000000000000000000000002000000000000001000000000000001890469000000000000009999123100000010000000000000BRCMIGACNPR3208
012013091662CMIG4T      030CEMIG       PN      N1030R$  000000000190000000000019010000000001895000000000189600000000018960000000000000000000000000000010000000000000022500000000000042671581000000000000009999123100000010000000000000BRCMIGACNPR3208
012013091662CMIG4T      030CEMIG       PN      N1063R$  000000000190700000000019080000000001907000000000190700000000019080000000000000000000000000000002000000000000000300000000000000572313000000000000009999123100000010000000000000BRCMIGACNPR3208
012013091678CMIGJ19     070CMIG        PN      N1000R$  000000000006500000000000650000000000065000000000006500000000000650000000000032000000000000000001000000000000000900000000000000058500000000000190002013102100000010000000000000BRCMIGACNPR3208
012013091678CMIGJ20     070CMIG        PN      N1000R$  000000000001300000000000130000000000013000000000001300000000000130000000000016000000000004000001000000000000000300000000000000003900000000000200002013102100000010000000000000BRCMIGACNPR3208
012013091642CMIGU19E    013CMIGE       PN      N1000R$  000000000190000000000019000000000001900000000000190000000000019000000000000000000000000000000001000000000000003000000000000005700000000000000190002013091600000010000000000000BRCMIGACNPR3208
012013091642CMIGU20E    013CMIGE       PN      N1000R$  000000000200000000000020000000000002000000000000200000000000020000000000000000000000000000000001000000000000001100000000000002200000000000000200002013091600000010000000000000BRCMIGACNPR3208
012013091612CNES11B     010FII CENESP  CI      MB   R$  000000001235000000000123500000000012200000000001229800000000122500000000012250000000001235000005000000000000000111000000000001365100000000000000009999123100000010000000000000BRCNESCTF001125
012013091602COCE3       010COELCE      ON           R$  000000000419800000000041980000000004195000000000419600000000041950000000003850000000000419600003000000000000000300000000000001258800000000000000009999123100000010000000000000BRCOCEACNOR0132
012013091602COCE5       010COELCE      PNA          R$  000000000400000000000040580000000004000000000000403500000000040270000000004027000000000404000179000000000000033500000000000135180200000000000000009999123100000010000000000000BRCOCEACNPA3133
