00COTAHIST.2013BOVESPA 20131031                                                                                                                                                                                                                      
012013103102AAPL34      010APPLE       DRN          R$  000000001174900000000117490000000011749000000001174900000000117490000000011640000000001178000001000000000000000200000000000002349800000000000000009999123100000010000000000000BRAAPLBDR004105
012013103102ABCB4       010ABC BRASIL  PN      N2   R$  000000000134000000000013790000000001326000000000135000000000013790000000001362000000000137901212000000000000365500000000000493747200000000000000009999123100000010000000000000BRABCBACNPR4120
012013103196ABCB4F      020ABC BRASIL  PN      N2   R$  000000000134400000000013580000000001328000000000133700000000013320000000001332000000000137600031000000000000000835000000000001116837000000000000009999123100000010000000000000BRABCBACNPR4120
012013103112ABCP11      010FII ABC IMOBCI           R$  000000000099000000000009900000000000970000000000097200000000009900000000000950000000000099000003000000000000000116000000000000112840000000000000009999123100000010000000000000BRABCPCTF000216
012013103102ABRE11      010ABRIL EDUCA UNT     N2   R$  000000000321800000000032180000000003170000000000319200000000031900000000003176000000000319000265000000000000062600000000000199869400000000000000009999123100000010000000000000BRABRECDAM15102
012013103196ABRE11F     020ABRIL EDUCA UNT     N2   R$  000000000323900000000032390000000003106000000000319900000000031060000000003106000000000340000009000000000000000169000000000000540649000000000000009999123100000010000000000000BRABRECDAM15102
012013103102AEDU3       010ANHANGUERA  ON      NM   R$  000000000128500000000013400000000001285000000000131900000000013400000000001334000000000134006579000000000005166900000000006819764100000000000000009999123100000010000000000000BRAEDUACNOR9107
012013103196AEDU3F      020ANHANGUERA  ON      NM   R$  000000000131500000000013490000000001271000000000133000000000013300000000001330000000000135000034000000000000001035000000000001377427000000000000009999123100000010000000000000BRAEDUACNOR9107
012013103178AEDUK13     070AEDU        ON      NM000R$  000000000004000000000000400000000000040000000000004000000000000400000000000000000000000000000001000000000000000100000000000000004000000000000130002013111800000010000000000000BRAEDUACNOR9107
012013103178AEDUK43     070AEDU        ON      NM000R$  000000000001000000000000100000000000010000000000001000000000000100000000000000000000000000000002000000000000050000000000000000500000000000000135002013111800000010000000000000BRAEDUACNOR9107
012013103112AEFI11      010FII AESAPAR CI           R$  000000001225000000000123940000000012250000000001229600000000123940000000012260000000001239400032000000000000002221000000000027309728000000000000009999123100000010000000000000BRAEFICTF002122
012013103102AELP3       010AES ELPA    ON           R$  000000000098300000000009930000000000983000000000099200000000009930000000000930000000000098700002000000000000006100000000000006056300000000000000009999123100000010000000000000BRAELPACNOR2119
012013103196AELP3F      020AES ELPA    ON           R$  000000000093200000000009320000000000932000000000093200000000009320000000000937000000000097800002000000000000000057000000000000053124000000000000009999123100000010000000000000BRAELPACNOR2119
012013103162AELP3T      030AES ELPA    ON        032R$  000000000100000000000010010000000001000000000000100000000000010010000000000000000000000000000002000000000000006000000000000006003877000000000000009999123100000010000000000000BRAELPACNOR2119
012013103112AGCX11      010FII AG CAIXACI           R$  000000009471000000000947500000000094710000000009472500000000947100000000094304000000009471000010000000000000000084000000000007956973000000000000009999123100000010000000000000BRAGCXCTF003111
012013103102AGRO3       010BRASILAGRO  ON      NM   R$  000000000102400000000010240000000000989000000000099500000000010100000000001005000000000102300277000000000000053400000000000053172500000000000000009999123100000010000000000000BRAGROACNOR7102
012013103102ALLL3       010ALL AMER LATON      NM   R$  000000000081500000000008190000000000792000000000080300000000008020000000000801000000000080209134000000000006232400000000005009736800000000000000009999123100000010000000000000BRALLLACNOR6118
012013103196ALLL3F      020ALL AMER LATON      NM   R$  000000000081100000000008180000000000794000000000080200000000007960000000000796000000000082200114000000000000002632000000000002111682000000000000009999123100000010000000000000BRALLLACNOR6118
012013103162ALLL3T      030ALL AMER LATON      NM030R$  000000000080400000000008070000000000804000000000080500000000008070000000000000000000000000000004000000000000008000000000000006444066000000000000009999123100000010000000000000BRALLLACNOR6118
012013103162ALLL3T      030ALL AMER LATON      NM032R$  000000000082100000000008220000000000805000000000080900000000008090000000000000000000000000000012000000000000138000000000000111663343000000000000009999123100000010000000000000BRALLLACNOR6118
012013103162ALLL3T      030ALL AMER LATON      NM090R$  000000000081100000000008190000000000811000000000081700000000008190000000000000000000000000000006000000000000101000000000000082565556000000000000009999123100000010000000000000BRALLLACNOR6118
012013103162ALLL3T      030ALL AMER LATON      NM361R$  000000000089000000000008910000000000890000000000089000000000008910000000000000000000000000000002000000000000000500000000000000445030000000000000009999123100000010000000000000BRALLLACNOR6118
012013103178ALLLK8      070ALLL        ON      NM000R$  000000000002200000000000220000000000022000000000002200000000000220000000000000000000000000000001000000000000062000000000000001364000000000000080002013111800000010000000000000BRALLLACNOR6118
012013103112ALMI11B     010FII TORRE ALCI      MB   R$  000000033100000000003310000000000329000000000033054100000003310000000000329000000000033100000007000000000000000048000000000015865996000000000000009999123100000010000000000000BRALMICTF003206
012013103102ALPA3       010ALPARGATAS  ON      N1   R$  000000000127400000000012740000000001274000000000127400000000012740000000001271000000000128000002000000000000000200000000000000254800000000000000009999123100000010000000000000BRALPAACNOR0203
012013103102ALPA4       010ALPARGATAS  PN      N1   R$  000000000154300000000015550000000001536000000000154700000000015500000000001545000000000155300618000000000000286500000000000443266700000000000000009999123100000010000000000000BRALPAACNPR7203
012013103196ALPA4F      020ALPARGATAS  PN      N1   R$  000000000155000000000015530000000001483000000000153900000000014830000000001483000000000155500020000000000000000299000000000000460213000000000000009999123100000010000000000000BRALPAACNPR7203
012013103102ALSC3       010ALIANSCE    ON      NM   R$  000000000215000000000021670000000002118000000000214500000000021670000000002124000000000216701068000000000000263400000000000565057400000000000000009999123100000010000000000000BRALSCACNOR0104
012013103196ALSC3F      020ALIANSCE    ON      NM   R$  000000000214300000000021440000000002130000000000213600000000021300000000002130000000000230000004000000000000000099000000000000211526000000000000009999123100000010000000000000BRALSCACNOR0104
012013103102ALUP11      010ALUPAR      UNT     N2   R$  000000000168900000000016980000000001672000000000168300000000016900000000001684000000000170700285000000000000103900000000000174897200000000000000009999123100000010000000000000BRALUPCDAM15100
012013103196ALUP11F     020ALUPAR      UNT     N2   R$  000000000168000000000017000000000001661000000000167300000000017000000000001660000000000170000312000000000000008903000000000014901813000000000000009999123100000010000000000000BRALUPCDAM15100
012013103162ALUP11T     030ALUPAR      UNT     N2361R$  000000000187500000000018760000000001875000000000187500000000018760000000000000000000000000000002000000000000000200000000000000375112000000000000009999123100000010000000000000BRALUPCDAM15100
012013103102AMAR3       010LOJAS MARISAON      NM   R$  000000000191600000000019270000000001832000000000186600000000018700000000001869000000000187003765000000000001344600000000002509709100000000000000009999123100000010000000000000BRAMARACNOR4109
012013103196AMAR3F      020LOJAS MARISAON      NM   R$  000000000191900000000019400000000001838000000000187100000000018700000000001847000000000187000026000000000000000616000000000001152550000000000000009999123100000010000000000000BRAMARACNOR4109
012013103162AMAR3T      030LOJAS MARISAON      NM032R$  000000000186500000000018750000000001865000000000186600000000018750000000000000000000000000000004000000000000011200000000000020902253000000000000009999123100000010000000000000BRAMARACNOR4109
012013103162AMAR3T      030LOJAS MARISAON      NM361R$  000000000207500000000020760000000002075000000000207500000000020760000000000000000000000000000002000000000000000200000000000000415065000000000000009999123100000010000000000000BRAMARACNOR4109
012013103102AMBV3       010AMBEV       ON           R$  000000000839900000000084080000000008221000000000833900000000083450000000008323000000000834502616000000000000800100000000006672561900000000000000009999123100000010000000000000BRAMBVACNOR4154
012013103196AMBV3F      020AMBEV       ON           R$  000000000837000000000084000000000008221000000000832800000000082270000000008225000000000858900092000000000000002119000000000017648333000000000000009999123100000010000000000000BRAMBVACNOR4154
012013103102AMBV4       010AMBEV       PN           R$  000000000841500000000084150000000008211000000000833700000000083570000000008354000000000835712602000000000003132100000000026112431900000000000000009999123100000010000000000000BRAMBVACNPR1154
012013103196AMBV4F      020AMBEV       PN           R$  000000000845900000000084590000000008218000000000833300000000084390000000008350000000000843900374000000000000009768000000000081407459000000000000009999123100000010000000000000BRAMBVACNPR1154
012013103162AMBV4S      030AMBEV       PN        090R$  000000000852700000000085290000000008527000000000852700000000085290000000000000000000000000000004000000000000002400000000000020466327000000000000009999123100000010000000000000BRAMBVACNPR1154
012013103162AMBV4T      030AMBEV       PN        090R$  000000000852600000000085270000000008526000000000852600000000085270000000000000000000000000000002000000000000000400000000000003410474000000000000009999123100000010000000000000BRAMBVACNPR1154
012013103162AMBV4T      030AMBEV       PN        018R$  000000000835400000000084290000000008354000000000836500000000083580000000000000000000000000000008000000000000007000000000000058556400000000000000009999123100000010000000000000BRAMBVACNPR1154
012013103162AMBV4T      030AMBEV       PN        032R$  000000000840000000000084010000000008309000000000837300000000083600000000000000000000000000000016000000000000007100000000000059454202000000000000009999123100000010000000000000BRAMBVACNPR1154
012013103162AMBV4T      030AMBEV       PN        060R$  000000000846400000000084650000000008464000000000846400000000084650000000000000000000000000000002000000000000002500000000000021160987000000000000009999123100000010000000000000BRAMBVACNPR1154
012013103178AMBVK88     070AMBV        PN        000R$  000000000003000000000000310000000000030000000000003000000000000310000000000010000000000003000002000000000000003800000000000000114800000000000880002013111800000010000000000000BRAMBVACNPR1154
012013103178AMBVL86     070AMBV        PN        000R$  000000000010200000000001020000000000102000000000010200000000001020000000000000000000000000000001000000000000000200000000000000020400000000000860002013121600000010000000000000BRAMBVACNPR1154
012013103178AMBVL87     070AMBV        PN        000R$  000000000011000000000001100000000000110000000000011000000000001100000000000000000000000000000001000000000000000200000000000000022000000000000863502013121600000010000000000000BRAMBVACNPR1153
012013103102ANIM3       010ANIMA       ON      NM   R$  000000000183000000000019310000000001830000000000187400000000019180000000001910000000000191801110000000000000990900000000001857276500000000000000009999123100000010000000000000BRANIMACNOR6100
012013103196ANIM3F      020ANIMA       ON      NM   R$  000000000185000000000019280000000001835000000000190200000000019170000000001908000000000195000026000000000000000815000000000001550225000000000000009999123100000010000000000000BRANIMACNOR6100
012013103102ARTR3       010ARTERIS     ON      NM   R$  000000000201500000000020150000000001975000000000199200000000019900000000001985000000000199002261000000000001511200000000003010462000000000000000009999123100000010000000000000BRARTRACNOR3101
012013103196ARTR3F      020ARTERIS     ON      NM   R$  000000000196600000000021690000000001966000000000199700000000019710000000001971000000000203000017000000000000000392000000000000782835000000000000009999123100000010000000000000BRARTRACNOR3101
012013103162ARTR3T      030ARTERIS     ON      NM030R$  000000000199600000000019970000000001996000000000199600000000019970000000000000000000000000000002000000000000002000000000000003992541000000000000009999123100000010000000000000BRARTRACNOR3101
012013103162ARTR3T      030ARTERIS     ON      NM361R$  000000000220800000000022090000000002208000000000220800000000022090000000000000000000000000000004000000000000000600000000000001325101000000000000009999123100000010000000000000BRARTRACNOR3101
012013103102ARZZ3       010AREZZO CO   ON      NM   R$  000000000333500000000033660000000003320000000000334700000000033500000000003335000000000335000494000000000000178500000000000597562500000000000000009999123100000010000000000000BRARZZACNOR3109
012013103196ARZZ3F      020AREZZO CO   ON      NM   R$  000000000335000000000033570000000003301000000000333000000000033010000000003301000000000349900014000000000000000220000000000000732711000000000000009999123100000010000000000000BRARZZACNOR3109
012013103102AUTM3       010AUTOMETAL   ON      NM   R$  000000000171100000000017600000000001697000000000171500000000017600000000001700000000000176000594000000000000727600000000001248283800000000000000009999123100000010000000000000BRAUTMACNOR8109
012013103196AUTM3F      020AUTOMETAL   ON      NM   R$  000000000171000000000017100000000001675000000000169300000000016750000000001710000000000175000003000000000000000165000000000000279450000000000000009999123100000010000000000000BRAUTMACNOR8109
012013103102AXPB34      010AMERICAN EXPDRN          R$  000000001837100000000183710000000018371000000001837100000000183710000000016000000000002000000001000000000000000100000000000001837100000000000000009999123100000010000000000000BRAXPBBDR007106
012013103102AZEV4       010AZEVEDO     PN           R$  000000000015600000000001630000000000156000000000015700000000001630000000000162000000000017400006000000000000002500000000000000392900000000000000009999123100000010000000000000BRAZEVACNPR7113
012013103196BAHI3F      020BAHEMA      ON           R$  000000000050000000000005000000000000500000000000050000000000005000000000000465000000000050000001000000000000000004000000000000002000000000000000009999123100000010000000000000BRBAHIACNOR1066
012013103102BAUH4       010EXCELSIOR   PN           R$  000000000098000000000010800000000000980000000000099900000000010800000000000976000000000108000017000000000000010000000000000009993000000000000000009999123100000010000000000000BRBAUHACNPR3108
012013103102BAZA3       010AMAZONIA    ON           R$  000000000003200000000000330000000000032000000000003200000000000320000000000032000000000003300010000000000000050000000000000001616000000000000000009999123100000010000000000000BRBAZAACNOR0163
012013103102BBAS3       010BRASIL      ON      NM   R$  000000000289900000000029750000000002892000000000294700000000029750000000002951000000000297512206000000000006594100000000019437516800000000000000009999123100000010000000000000BRBBASACNOR3239
012013103196BBAS3F      020BRASIL      ON      NM   R$  000000000289600000000029680000000002881000000000293700000000029670000000002966000000000296700365000000000000012163000000000035750439000000000000009999123100000010000000000000BRBBASACNOR3239
012013103178BBASA31     070BBAS        ON      NM000R$  000000000007600000000000760000000000076000000000007600000000000760000000000016000000000008800001000000000000001000000000000000076000000000000310002014012000000010000000000000BRBBASACNOR3239
012013103178BBASA32     070BBAS        ON      NM000R$  000000000004800000000000480000000000048000000000004800000000000480000000000007000000000000000001000000000000001000000000000000048000000000000320002014012000000010000000000000BRBBASACNOR3239
012013103178BBASB27     070BBAS        ON      NM000R$  000000000033300000000003330000000000333000000000033300000000003330000000000220000000000000000001000000000000002000000000000000666000000000000270002014021700000010000000000000BRBBASACNOR3239
012013103178BBASB28     070BBAS        ON      NM000R$  000000000027300000000002730000000000273000000000027300000000002730000000000000000000000000000001000000000000002000000000000000546000000000000280002014021700000010000000000000BRBBASACNOR3239
012013103178BBASC27     070BBAS        ON      NM000R$  000000000036200000000003620000000000362000000000036200000000003620000000000000000000000000000001000000000000001000000000000000362000000000000270002014031700000010000000000000BRBBASACNOR3239
012013103178BBASK1      070BBAS  FM    ON      NM000R$  000000000001400000000000170000000000014000000000001600000000000160000000000016000000000000000017000000000000053300000000000000865000000000000310002013111800000010000000000000BRBBASACNOR3239
012013103178BBASK26     070BBAS        ON      NM000R$  000000000047500000000004950000000000475000000000049400000000004950000000000415000000000000000003000000000000005100000000000002522500000000000247102013111800000010000000000000BRBBASACNOR3236
012013103178BBASK27     070BBAS        ON      NM000R$  000000000039000000000004040000000000390000000000039900000000004040000000000220000000000000000011000000000000003000000000000001197100000000000257102013111800000010000000000000BRBBASACNOR3236
012013103178BBASK28     070BBAS        ON      NM000R$  000000000025100000000003020000000000251000000000027800000000003020000000000302000000000039000016000000000000010900000000000003039500000000000267102013111800000010000000000000BRBBASACNOR3236
012013103178BBASK29     070BBAS  FM    ON      NM000R$  000000000013600000000001910000000000136000000000016700000000001790000000000160000000000000000217000000000000253800000000000042531500000000000279502013111800000010000000000000BRBBASACNOR3237
012013103178BBASK30     070BBAS  FM    ON      NM000R$  000000000007900000000001090000000000073000000000009000000000001060000000000085000000000011000074000000000000085400000000000007756800000000000289502013111800000010000000000000BRBBASACNOR3237
012013103178BBASK31     070BBAS  FM    ON      NM000R$  000000000002800000000000460000000000028000000000003800000000000410000000000042000000000004900159000000000000384200000000000014750800000000000299502013111800000010000000000000BRBBASACNOR3237
012013103178BBASK32     070BBAS  FM    ON      NM000R$  000000000000600000000000080000000000005000000000000600000000000080000000000008000000000000900027000000000000134000000000000000894100000000000320002013111800000010000000000000BRBBASACNOR3239
012013103178BBASK58     070BBAS        ON      NM000R$  000000000013400000000001340000000000128000000000012800000000001280000000000000000000000000000002000000000000004100000000000000525400000000000285002013111800000010000000000000BRBBASACNOR3239
012013103178BBASL28     070BBAS        ON      NM000R$  000000000030300000000003030000000000303000000000030300000000003030000000000034000000000000000001000000000000001000000000000000303000000000000269502013121600000010000000000000BRBBASACNOR3237
012013103178BBASL29     070BBAS  FM    ON      NM000R$  000000000021800000000002520000000000214000000000023200000000002420000000000034000000000000000129000000000000136100000000000031665400000000000276102013121600000010000000000000BRBBASACNOR3235
012013103178BBASL30     070BBAS  FM    ON      NM000R$  000000000006400000000000870000000000064000000000007500000000000830000000000060000000000008900052000000000000044800000000000003392900000000000300002013121600000010000000000000BRBBASACNOR3239
012013103178BBASL31     070BBAS  FM    ON      NM000R$  000000000004000000000000480000000000034000000000004000000000000480000000000044000000000005000028000000000000053500000000000002177600000000000310002013121600000010000000000000BRBBASACNOR3239
012013103178BBASL32     070BBAS  FM    ON      NM000R$  000000000002000000000000200000000000020000000000002000000000000200000000000013000000000003500006000000000000014000000000000000280000000000000320002013121600000010000000000000BRBBASACNOR3239
012013103178BBASL33     070BBAS        ON      NM000R$  000000000001100000000000110000000000010000000000001000000000000100000000000003000000000000000003000000000000007000000000000000074000000000000330002013121600000010000000000000BRBBASACNOR3239
012013103178BBASL59     070BBAS        ON      NM000R$  000000000010500000000001050000000000105000000000010500000000001050000000000000000000000000000001000000000000003500000000000000367500000000000295002013121600000010000000000000BRBBASACNOR3239
012013103178BBASL60     070BBAS        ON      NM000R$  000000000015100000000001560000000000149000000000015200000000001560000000000014000000000000000012000000000000027500000000000004191900000000000286202013121600000010000000000000BRBBASACNOR3233
012013103178BBASL65     070BBAS        ON      NM000R$  000000000005400000000000540000000000050000000000005100000000000500000000000040000000000000000002000000000000011200000000000000580000000000000305002013121600000010000000000000BRBBASACNOR3239
012013103178BBASL79     070BBAS  FM    ON      NM000R$  000000000011000000000001460000000000110000000000012600000000001460000000000000000000000000000029000000000000045900000000000005803100000000000290002013121600000010000000000000BRBBASACNOR3239
012013103182BBASM28     080BBASE       ON      NM000R$  000000000004900000000000490000000000049000000000004900000000000490000000000000000000000000000001000000000000001000000000000000049000000000000280002014012000000010000000000000BRBBASACNOR3239
012013103182BBASW23     080BBASE       ON      NM000R$  000000000000100000000000010000000000001000000000000100000000000010000000000000000000000000000007000000000000150000000000000000150000000000000219502013111800000010000000000000BRBBASACNOR3237
012013103182BBASW28     080BBASE FM    ON      NM000R$  000000000000400000000000040000000000003000000000000300000000000030000000000002000000000000400042000000000000031200000000000000119800000000000267102013111800000010000000000000BRBBASACNOR3236
012013103182BBASW29     080BBASE FM    ON      NM000R$  000000000001100000000000170000000000011000000000001200000000000110000000000012000000000001400016000000000000035800000000000000444700000000000279502013111800000010000000000000BRBBASACNOR3237
012013103182BBASW30     080BBASE FM    ON      NM000R$  000000000004300000000000440000000000026000000000003200000000000290000000000027000000000003300061000000000000056900000000000001850400000000000289502013111800000010000000000000BRBBASACNOR3237
012013103182BBASW31     080BBASE FM    ON      NM000R$  000000000009000000000000970000000000067000000000007700000000000710000000000000000000000000000103000000000000128900000000000010045500000000000299502013111800000010000000000000BRBBASACNOR3237
012013103182BBASW57     080BBASE       ON      NM000R$  000000000001100000000000110000000000008000000000000900000000000080000000000000000000000000000005000000000000006800000000000000061600000000000275002013111800000010000000000000BRBBASACNOR3239
012013103182BBASW58     080BBASE       ON      NM000R$  000000000002300000000000230000000000023000000000002300000000000230000000000000000000000005000001000000000000002000000000000000046000000000000285002013111800000010000000000000BRBBASACNOR3239
012013103182BBASX27     080BBASE       ON      NM000R$  000000000000900000000000100000000000009000000000000900000000000090000000000008000000000001500008000000000000006000000000000000059000000000000259502013121600000010000000000000BRBBASACNOR3237
012013103182BBASX28     080BBASE FM    ON      NM000R$  000000000002100000000000220000000000017000000000002000000000000170000000000016000000000002100022000000000000092800000000000001866200000000000269502013121600000010000000000000BRBBASACNOR3237
012013103182BBASX29     080BBASE FM    ON      NM000R$  000000000003400000000000340000000000025000000000002900000000000250000000000025000000000003700037000000000000022800000000000000679900000000000276102013121600000010000000000000BRBBASACNOR3235
012013103182BBASX30     080BBASE FM    ON      NM000R$  000000000012600000000001260000000000100000000000011200000000001010000000000000000000000013100070000000000000042300000000000004763900000000000300002013121600000010000000000000BRBBASACNOR3239
012013103182BBASX60     080BBASE       ON      NM000R$  000000000005800000000000580000000000047000000000005500000000000470000000000045000000000000000030000000000000101000000000000005598000000000000286202013121600000010000000000000BRBBASACNOR3233
012013103182BBASX79     080BBASE FM    ON      NM000R$  000000000007100000000000730000000000058000000000006700000000000620000000000000000000000008000030000000000000066900000000000004499900000000000290002013121600000010000000000000BRBBASACNOR3239
012013103102BBDC3       010BRADESCO    ON      N1   R$  000000000356400000000036190000000003532000000000358300000000035910000000003591000000000361505079000000000001451600000000005202458400000000000000009999123100000010000000000000BRBBDCACNOR1607
012013103196BBDC3F      020BRADESCO    ON      N1   R$  000000000358100000000036060000000003538000000000357500000000035900000000003541000000000361900049000000000000001387000000000004959162000000000000009999123100000010000000000000BRBBDCACNOR1607
012013103102BBDC4       010BRADESCO    PN      N1   R$  000000000324500000000032590000000003182000000000321800000000032280000000003227000000000322815058000000000008211500000000026428019600000000000000009999123100000010000000000000BRBBDCACNPR8607
012013103196BBDC4F      020BRADESCO    PN      N1   R$  000000000325000000000032590000000003180000000000322400000000032400000000003221000000000324000166000000000000003826000000000012336770000000000000009999123100000010000000000000BRBBDCACNPR8607
012013103162BBDC4T      030BRADESCO    PN      N1018R$  000000000326200000000032630000000003231000000000325100000000032320000000000000000000000000000006000000000000022000000000000071528078000000000000009999123100000010000000000000BRBBDCACNPR8607
012013103162BBDC4T      030BRADESCO    PN      N1060R$  000000000330400000000033050000000003304000000000330400000000033050000000000000000000000000000002000000000000000200000000000000660895000000000000009999123100000010000000000000BRBBDCACNPR8607
012013103162BBDC4T      030BRADESCO    PN      N1071R$  000000000324700000000032480000000003240000000000324400000000032410000000000000000000000000000004000000000000004000000000000012976001000000000000009999123100000010000000000000BRBBDCACNPR8607
012013103162BBDC4T      030BRADESCO    PN      N1120R$  000000000332100000000033240000000003321000000000332100000000033240000000000000000000000000000004000000000000013500000000000044843411000000000000009999123100000010000000000000BRBBDCACNPR8607
012013103178BBDCA31     070BBDC        PN      N1000R$  000000000021100000000002170000000000203000000000020700000000002120000000000000000000000000000075000000000000032200000000000006666200000000000309602014012000000010000000000000BRBBDCACNPR8605
012013103178BBDCA32     070BBDC        PN      N1000R$  000000000016500000000001650000000000143000000000015300000000001600000000000000000000000000000064000000000000050100000000000007678900000000000319802014012000000010000000000000BRBBDCACNPR8606
012013103178BBDCA33     070BBDC        PN      N1000R$  000000000010800000000001080000000000108000000000010800000000001080000000000097000000000000000001000000000000001000000000000000108000000000000329802014012000000010000000000000BRBBDCACNPR8606
012013103178BBDCA34     070BBDC        PN      N1000R$  000000000006300000000000630000000000063000000000006300000000000630000000000000000000000000000001000000000000000200000000000000012600000000000339402014012000000010000000000000BRBBDCACNPR8604
012013103178BBDCB63     070BBDC        PN      N1000R$  000000000013300000000001340000000000126000000000013300000000001260000000000000000000000000000004000000000000100200000000000013411900000000000334802014021700000010000000000000BRBBDCACNPR8606
012013103178BBDCK30     070BBDC        PN      N1000R$  000000000023100000000002450000000000210000000000022400000000002450000000000240000000000032000084000000000000017400000000000003906400000000000299602013111800000010000000000000BRBBDCACNPR8605
012013103178BBDCK31     070BBDC        PN      N1000R$  000000000017800000000001840000000000122000000000016600000000001590000000000122000000000018800050000000000000036000000000000005987600000000000309602013111800000010000000000000BRBBDCACNPR8605
012013103178BBDCK32     070BBDC  FM    PN      N1000R$  000000000010000000000001190000000000070000000000009000000000001010000000000090000000000010300309000000000000391500000000000035397800000000000317202013111800000010000000000000BRBBDCACNPR8601
012013103178BBDCK33     070BBDC  FM    PN      N1000R$  000000000004300000000000520000000000025000000000004200000000000360000000000034000000000004200216000000000000559100000000000023937400000000000327402013111800000010000000000000BRBBDCACNPR8602
012013103178BBDCK34     070BBDC  FM    PN      N1000R$  000000000001200000000000150000000000008000000000000900000000000090000000000007000000000001200029000000000000057400000000000000539700000000000339402013111800000010000000000000BRBBDCACNPR8604
012013103178BBDCK36     070BBDC  FM    PN      N1000R$  000000000000200000000000020000000000002000000000000200000000000020000000000000000000000001000007000000000000080000000000000000160000000000000357202013111800000010000000000000BRBBDCACNPR8601
012013103178BBDCL3      070BBDC  FM    PN      N1000R$  000000000009700000000000970000000000074000000000008400000000000810000000000000000000000019900021000000000000053200000000000004516700000000000327002013121600000010000000000000BRBBDCACNPR8601
012013103178BBDCL32     070BBDC  FM    PN      N1000R$  000000000015600000000001670000000000118000000000014300000000001420000000000000000000000000000173000000000000169200000000000024237900000000000317002013121600000010000000000000BRBBDCACNPR8600
012013103178BBDCL34     070BBDC  FM    PN      N1000R$  000000000005400000000000540000000000038000000000004600000000000500000000000039000000000007200050000000000000079100000000000003717300000000000337002013121600000010000000000000BRBBDCACNPR8600
012013103178BBDCL35     070BBDC        PN      N1000R$  000000000002100000000000260000000000020000000000002200000000000260000000000016000000000003500007000000000000018400000000000000411600000000000347002013121600000010000000000000BRBBDCACNPR8600
012013103178BBDCL36     070BBDC        PN      N1000R$  000000000009000000000001090000000000090000000000009700000000001090000000000000000000000014900043000000000000106600000000000010376400000000000323902013121600000010000000000000BRBBDCACNPR8597
012013103178BBDCL5      070BBDC  FM    PN      N1000R$  000000000002200000000000220000000000016000000000001800000000000200000000000013000000000000000045000000000000098900000000000001796600000000000349802013121600000010000000000000BRBBDCACNPR8606
012013103178BBDCL6      070BBDC  FM    PN      N1000R$  000000000000900000000000090000000000009000000000000900000000000090000000000000000000000000000002000000000000004100000000000000036900000000000357202013121600000010000000000000BRBBDCACNPR8601
012013103182BBDCN30     080BBDCE       PN      N1000R$  000000000005500000000000550000000000050000000000005200000000000500000000000000000000000000000034000000000000100000000000000005250000000000000300002014021700000010000000000000BRBBDCACNPR8607
012013103182BBDCW27     080BBDCE       PN      N1000R$  000000000000200000000000020000000000002000000000000200000000000020000000000000000000000000000004000000000000100000000000000000200000000000000269202013111800000010000000000000BRBBDCACNPR8603
012013103182BBDCW31     080BBDCE FM    PN      N1000R$  000000000001700000000000190000000000014000000000001600000000000140000000000000000000000000000007000000000000006300000000000000102900000000000309602013111800000010000000000000BRBBDCACNPR8605
012013103182BBDCW32     080BBDCE FM    PN      N1000R$  000000000003000000000000430000000000024000000000003400000000000310000000000000000000000006000031000000000000051400000000000001761300000000000317202013111800000010000000000000BRBBDCACNPR8601
012013103182BBDCW33     080BBDCE FM    PN      N1000R$  000000000007400000000001040000000000063000000000008300000000000750000000000000000000000010300082000000000000118100000000000009840400000000000327402013111800000010000000000000BRBBDCACNPR8602
012013103182BBDCW34     080BBDCE FM    PN      N1000R$  000000000016300000000002050000000000141000000000017700000000001620000000000000000000000000000204000000000000265000000000000047033000000000000339402013111800000010000000000000BRBBDCACNPR8604
012013103182BBDCX1      080BBDCE FM    PN      N1000R$  000000000003800000000000450000000000033000000000003700000000000340000000000000000000000000000019000000000000050800000000000001891700000000000307002013121600000010000000000000BRBBDCACNPR8600
012013103182BBDCX3      080BBDCE FM    PN      N1000R$  000000000010000000000001240000000000091000000000010000000000001070000000000000000000000000000022000000000000541500000000000054510800000000000327002013121600000010000000000000BRBBDCACNPR8601
012013103182BBDCX32     080BBDCE FM    PN      N1000R$  000000000006000000000000660000000000058000000000006000000000000660000000000000000000000000000011000000000000523200000000000031401500000000000317002013121600000010000000000000BRBBDCACNPR8600
012013103182BBDCX33     080BBDCE       PN      N1000R$  000000000001900000000000190000000000019000000000001900000000000190000000000000000000000000000006000000000000028400000000000000539600000000000296802013121600000010000000000000BRBBDCACNPR8598
012013103182BBDCX34     080BBDCE FM    PN      N1000R$  000000000015700000000001930000000000142000000000016800000000001590000000000000000000000000000040000000000000074200000000000012539600000000000337002013121600000010000000000000BRBBDCACNPR8600
012013103182BBDCX36     080BBDCE       PN      N1000R$  000000000008400000000000940000000000084000000000008400000000000940000000000000000000000000000005000000000001001600000000000084650400000000000323902013121600000010000000000000BRBBDCACNPR8597
012013103112BBFI11B     010FII BB PROGRCI      MB   R$  000000042390000000004239000000000418121000000041993600000004200000000000420000000000042050000012000000000000000034000000000014277824000000000000009999123100000010000000000000BRBBFICTF006199
012013103112BBPO11      010FII BB PRGIICI           R$  000000001122600000000112750000000011212000000001123400000000112140000000011214000000001124101909000000000000011515000000000129360805000000000000009999123100000010000000000000BRBBPOCTF003111
012013103112BBRC11      010FII BB CORP CI           R$  000000000855000000000085900000000008500000000000853300000000085600000000008506000000000855000027000000000000001982000000000016913317000000000000009999123100000010000000000000BRBBRCCTF004125
012013103102BBRK3       010BR BROKERS  ON      NM   R$  000000000057900000000005880000000000572000000000057900000000005830000000000583000000000058401799000000000000608900000000000353270100000000000000009999123100000010000000000000BRBBRKACNOR4108
012013103196BBRK3F      020BR BROKERS  ON      NM   R$  000000000058300000000006080000000000540000000000055700000000005400000000000540000000000060900012000000000000000293000000000000163215000000000000009999123100000010000000000000BRBBRKACNOR4108
012013103102BBSE3       010BBSEGURIDADEON      NM   R$  000000000240400000000024470000000002396000000000242100000000024470000000002445000000000244711789000000000004142800000000010030459200000000000000009999123100000010000000000000BRBBSEACNOR5101
012013103196BBSE3F      020BBSEGURIDADEON      NM   R$  000000000240000000000024420000000002362000000000241500000000024400000000002440000000000244601216000000000000037203000000000089877814000000000000009999123100000010000000000000BRBBSEACNOR5101
012013103162BBSE3T      030BBSEGURIDADEON      NM090R$  000000000248200000000024840000000002480000000000248100000000024840000000000000000000000000000028000000000000102500000000000254380500000000000000009999123100000010000000000000BRBBSEACNOR5101
012013103102BBTG11      010BTG PACTUAL UNT          R$  000000000298500000000029970000000002953000000000297400000000029970000000002983000000000299700412000000000000130400000000000387937700000000000000009999123100000010000000000000BRBBTGUNT007105
012013103196BBTG11F     020BTG PACTUAL UNT          R$  000000000309600000000030960000000002940000000000307800000000029400000000002872000000000294000004000000000000000053000000000000163152000000000000009999123100000010000000000000BRBBTGUNT007105
012013103182BBTGR15     080BBTGE       UNT       000R$  000000000000500000000000050000000000005000000000000500000000000050000000000000000000000000000001000000000000024500000000000000122500000000000146902014061600000010000000000000BRBBTGUNT007104
012013103182BBTGR25     080BBTGE       UNT       000R$  000000000007100000000000710000000000071000000000007100000000000710000000000000000000000000000002000000000000024500000000000001739500000000000246902014061600000010000000000000BRBBTGUNT007104
012013103112BBVJ11      010FII C JARDIMCI           R$  000000000780000000000078500000000007705000000000775000000000077080000000007708000000000785000018000000000000001014000000000007858716000000000000009999123100000010000000000000BRBBVJCTF001134
012013103112BCFF11B     010FII BC FFII CI      MB   R$  000000000868000000000088000000000008663000000000872600000000087700000000008690000000000877000079000000000000005203000000000045401530000000000000009999123100000010000000000000BRBCFFCTF000143
012013103102BDLL4       010BARDELLA    PN           R$  000000000509800000000050980000000005098000000000509800000000050980000000004901000000000525000001000000000000000100000000000000509800000000000000009999123100000010000000000000BRBDLLACNPR8149
012013103196BDLL4F      020BARDELLA    PN           R$  000000000529900000000052990000000005299000000000529900000000052990000000004850000000000530000001000000000000000001000000000000005299000000000000009999123100000010000000000000BRBDLLACNPR8149
012013103102BEEF3       010MINERVA     ON      NM   R$  000000000094900000000009580000000000934000000000094400000000009500000000000945000000000095002275000000000000977300000000000923484100000000000000009999123100000010000000000000BRBEEFACNOR6104
012013103196BEEF3F      020MINERVA     ON      NM   R$  000000000093200000000009700000000000923000000000093300000000009230000000000923000000000095000009000000000000000082000000000000076520000000000000009999123100000010000000000000BRBEEFACNOR6104
012013103162BEEF3T      030MINERVA     ON      NM032R$  000000000094600000000009470000000000946000000000094600000000009470000000000000000000000000000004000000000000003000000000000002840304000000000000009999123100000010000000000000BRBEEFACNOR6104
012013103102BEES3       010BANESTES    ON           R$  000000000005000000000000510000000000050000000000005000000000000500000000000050000000000005100024000000000000082900000000000004147900000000000000009999123100000010000000000000BRBEESACNOR9245
012013103196BEES3F      020BANESTES    ON           R$  000000000005400000000000540000000000054000000000005400000000000540000000000046000000000005400001000000000000000039000000000000002106000000000000009999123100000010000000000000BRBEESACNOR9245
012013103102BEES4       010BANESTES    PN           R$  000000000004800000000000480000000000048000000000004800000000000480000000000047000000000004800001000000000000000100000000000000004800000000000000009999123100000010000000000000BRBEESACNPR6170
012013103102BEMA3       010BEMATECH    ON      NM   R$  000000000078500000000007850000000000775000000000077900000000007800000000000777000000000078000132000000000000062100000000000048426500000000000000009999123100000010000000000000BRBEMAACNOR0114
012013103196BEMA3F      020BEMATECH    ON      NM   R$  000000000079000000000007900000000000790000000000079000000000007900000000000777000000000078400001000000000000000040000000000000031600000000000000009999123100000010000000000000BRBEMAACNOR0114
012013103102BERK34      010BERKSHIRE   DRN          R$  000000002593400000000259340000000025934000000002593400000000259340000000025540000000002612000001000000000000000100000000000002593400000000000000009999123100000010000000000000BRBERKBDR002100
012013103196BGIP4F      020BANESE      PN           R$  000000000490000000000049000000000004900000000000490000000000049000000000004815000000000490000001000000000000000016000000000000078400000000000000009999123100000010000000000000BRBGIPACNPR8179
012013103102BHGR3       010BHG         ON      NM   R$  000000000165900000000016700000000001614000000000163800000000016400000000001640000000000165000121000000000000087900000000000143995800000000000000009999123100000010000000000000BRBHGRACNOR9101
012013103196BHGR3F      020BHG         ON      NM   R$  000000000160000000000016000000000001600000000000160000000000016000000000001600000000000168000001000000000000000001000000000000001600000000000000009999123100000010000000000000BRBHGRACNOR9101
012013103102BICB4       010BICBANCO    PN      N1   R$  000000000074800000000007540000000000726000000000074200000000007500000000000750000000000075100385000000000000594300000000000441297000000000000000009999123100000010000000000000BRBICBACNPR7131
012013103196BICB4F      020BICBANCO    PN      N1   R$  000000000074300000000007490000000000706000000000073200000000007060000000000706000000000075100017000000000000000351000000000000257181000000000000009999123100000010000000000000BRBICBACNPR7131
012013103162BICB4T      030BICBANCO    PN      N1032R$  000000000075800000000007590000000000758000000000075800000000007590000000000000000000000000000002000000000000020000000000000015175962000000000000009999123100000010000000000000BRBICBACNPR7131
012013103102BIOM3       010BIOMM       ON           R$  000000000095000000000009500000000000950000000000095000000000009500000000000901000000000099000004000000000000023000000000000021850000000000000000009999123100000010000000000000BRBIOMACNOR2101
012013103102BISA3       010BROOKFIELD  ON      NM   R$  000000000014100000000001430000000000139000000000014000000000001410000000000140000000000014104646000000000009685600000000001361486200000000000000009999123100000010000000000000BRBISAACNOR8109
012013103196BISA3F      020BROOKFIELD  ON      NM   R$  000000000014000000000001410000000000139000000000014000000000001410000000000140000000000014300021000000000000000568000000000000079733000000000000009999123100000010000000000000BRBISAACNOR8109
012013103162BISA3T      030BROOKFIELD  ON      NM361R$  000000000015700000000001580000000000157000000000015700000000001580000000000000000000000000000002000000000000002000000000000000315840000000000000009999123100000010000000000000BRBISAACNOR8109
012013103102BMEB4       010MERC BRASIL PN           R$  000000000110000000000011000000000001100000000000110000000000011000000000000000000000000110000002000000000000000600000000000000660000000000000000009999123100000010000000000000BRBMEBACNPR5191
012013103102BMIN4       010MERC INVEST PN           R$  000000000002700000000000270000000000027000000000002700000000000270000000000027000000000003000005000000000000019000000000000000513000000000000000009999123100000010000000000000BRBMINACNPR1160
012013103112BMLC11B     010FII BMBRC LCCI      MB   R$  000000001170000000000117000000000011700000000001170000000000117000000000011529000000001170000004000000000000000512000000000005990400000000000000009999123100000010000000000000BRBMLCCTF004120
012013103102BMTO4       010BRASMOTOR   PN  ED       R$  000000000008700000000000870000000000086000000000008600000000000870000000000085000000000008700004000000000000010000000000000000863000000000000000009999123100000010000000000000BRBMTOACNPR6066
012013103102BNBR4       010NORD BRASIL PN           R$  000000000240000000000024000000000002400000000000240000000000024000000000002350000000000270000003000000000000001000000000000002400000000000000000009999123100000010000000000000BRBNBRACNPR5187
012013103114BOVA11      010ISHARES BOVACI           R$  000000000527400000000053290000000005225000000000527700000000052700000000005270000000000528502718000000000001416950000000007477766520000000000000009999123100000010000000000000BRBOVACTF003101
012013103196BOVA11F     020ISHARES BOVACI           R$  000000000529400000000053150000000005273000000000529800000000053150000000005314000000000531500009000000000000000027000000000000143064000000000000009999123100000010000000000000BRBOVACTF003101
012013103112BPFF11      010FII ABSOLUTOCI           R$  000000000845000000000084850000000008430000000000844100000000084850000000008405000000000848500006000000000000000640000000000005402775000000000000009999123100000010000000000000BRBPFFCTF002106
012013103102BPHA3       010BR PHARMA   ON      NM   R$  000000000083700000000008420000000000800000000000082600000000008300000000000830000000000083400616000000000000309900000000000256110000000000000000009999123100000010000000000000BRBPHAACNOR6102
012013103196BPHA3F      020BR PHARMA   ON      NM   R$  000000000083000000000008500000000000801000000000082500000000008010000000000801000000000089900007000000000000000313000000000000258248000000000000009999123100000010000000000000BRBPHAACNOR6102
012013103162BPHA3T      030BR PHARMA   ON      NM090R$  000000000084700000000008490000000000845000000000084700000000008460000000000000000000000000000006000000000000002000000000000001694984000000000000009999123100000010000000000000BRBPHAACNOR6102
012013103102BPNM4       010PANAMERICANOPN      N1   R$  000000000051400000000005280000000000514000000000052200000000005280000000000524000000000052800386000000000000300500000000000156889200000000000000009999123100000010000000000000BRBPNMACNPR6111
012013103196BPNM4F      020PANAMERICANOPN      N1   R$  000000000051000000000005260000000000510000000000051900000000005140000000000514000000000052700051000000000000000969000000000000503658000000000000009999123100000010000000000000BRBPNMACNPR6111
012013103102BRAP3       010BRADESPAR   ON      N1   R$  000000000215000000000021800000000002140000000000215400000000021650000000002165000000000217900023000000000000015700000000000033827000000000000000009999123100000010000000000000BRBRAPACNOR5124
012013103196BRAP3F      020BRADESPAR   ON      N1   R$  000000000215000000000021800000000002150000000000215700000000021800000000002141000000000219400005000000000000000044000000000000094940000000000000009999123100000010000000000000BRBRAPACNOR5124
012013103102BRAP4       010BRADESPAR   PN      N1   R$  000000000264100000000026660000000002613000000000264000000000026660000000002654000000000266605593000000000001805300000000004766767600000000000000009999123100000010000000000000BRBRAPACNPR2124
012013103196BRAP4F      020BRADESPAR   PN      N1   R$  000000000263700000000026630000000002609000000000263900000000026600000000002618000000000266000069000000000000001973000000000005209605000000000000009999123100000010000000000000BRBRAPACNPR2124
012013103162BRAP4T      030BRADESPAR   PN      N1032R$  000000000264500000000026460000000002645000000000264500000000026460000000000000000000000000000002000000000000000700000000000001851956000000000000009999123100000010000000000000BRBRAPACNPR2124
012013103162BRAP4T      030BRADESPAR   PN      N1071R$  000000000267000000000026710000000002670000000000267000000000026710000000000000000000000000000002000000000000005000000000000013350584000000000000009999123100000010000000000000BRBRAPACNPR2124
012013103162BRAP4T      030BRADESPAR   PN      N1090R$  000000000270400000000027230000000002704000000000271500000000027230000000000000000000000000000004000000000000005000000000000013576546000000000000009999123100000010000000000000BRBRAPACNPR2124
012013103178BRAPK27     070BRAP        PN      N1000R$  000000000004500000000000450000000000045000000000004500000000000450000000000000000000000004500001000000000000004000000000000000180000000000000270002013111800000010000000000000BRBRAPACNPR2124
012013103114BRAX11      010ISHARES BRAXCI           R$  000000000442700000000044290000000004427000000000442800000000044290000000004429000000000443000003000000000000000060000000000000265720000000000000009999123100000010000000000000BRBRAXCTF002100
012013103112BRCR11      010FII BC FUND CI           R$  000000001370000000000137900000000013700000000001375100000000137800000000013753000000001378001313000000000000029357000000000403692528000000000000009999123100000010000000000000BRBRCRCTF000134
012013103102BRFS3       010BRF SA      ON      NM   R$  000000000525800000000052980000000005171000000000524700000000052600000000005242000000000526008276000000000002258300000000011850259600000000000000009999123100000010000000000000BRBRFSACNOR8110
012013103196BRFS3F      020BRF SA      ON      NM   R$  000000000525000000000052950000000005180000000000525000000000052500000000005249000000000525000134000000000000005248000000000027555163000000000000009999123100000010000000000000BRBRFSACNOR8110
012013103162BRFS3T      030BRF SA      ON      NM018R$  000000000528400000000052850000000005284000000000528400000000052850000000000000000000000000000002000000000000001800000000000009512241000000000000009999123100000010000000000000BRBRFSACNOR8110
012013103162BRFS3T      030BRF SA      ON      NM032R$  000000000529500000000052960000000005295000000000529500000000052960000000000000000000000000000002000000000000000100000000000000529533000000000000009999123100000010000000000000BRBRFSACNOR8110
012013103162BRFS3T      030BRF SA      ON      NM090R$  000000000540500000000054060000000005405000000000540500000000054060000000000000000000000000000002000000000000002000000000000010810644000000000000009999123100000010000000000000BRBRFSACNOR8110
012013103178BRFSK53     070BRFS        ON      NM000R$  000000000010200000000001020000000000102000000000010200000000001020000000000000000000000011000001000000000000017600000000000001795200000000000530002013111800000010000000000000BRBRFSACNOR8110
012013103178BRFSL53     070BRFS        ON      NM000R$  000000000017500000000001750000000000175000000000017500000000001750000000000000000000000000000002000000000000003100000000000000542500000000000530002013121600000010000000000000BRBRFSACNOR8110
012013103182BRFSW55     080BRFSE       ON      NM000R$  000000000025600000000002560000000000256000000000025600000000002560000000000000000000000000000001000000000000001500000000000000384000000000000550002013111800000010000000000000BRBRFSACNOR8110
012013103102BRGE3       010ALFA CONSORCON           R$  000000000049000000000004900000000000490000000000049000000000004900000000000420000000000050000002000000000000001000000000000000490000000000000000009999123100000010000000000000BRBRGEACNOR6197
012013103196BRGE3F      020ALFA CONSORCON           R$  000000000043000000000004300000000000430000000000043000000000004300000000000430000000000000000001000000000000000053000000000000022790000000000000009999123100000010000000000000BRBRGEACNOR6197
012013103102BRIN3       010BR INSURANCEON      NM   R$  000000000198900000000020400000000001989000000000201700000000020400000000002014000000000204000450000000000000148100000000000298782700000000000000009999123100000010000000000000BRBRINACNOR3106
012013103196BRIN3F      020BR INSURANCEON      NM   R$  000000000200000000000020410000000001996000000000200900000000020300000000002030000000000204200020000000000000000325000000000000653205000000000000009999123100000010000000000000BRBRINACNOR3106
012013103102BRKM3       010BRASKEM     ON      N1   R$  000000000146000000000014970000000001460000000000147700000000014970000000001440000000000149300012000000000000004100000000000006057100000000000000009999123100000010000000000000BRBRKMACNOR1110
012013103196BRKM3F      020BRASKEM     ON      N1   R$  000000000146500000000014700000000001465000000000146600000000014700000000001408000000000147000004000000000000000110000000000000161265000000000000009999123100000010000000000000BRBRKMACNOR1110
012013103102BRKM5       010BRASKEM     PNA     N1   R$  000000000196800000000019980000000001948000000000197900000000019880000000001981000000000198806343000000000001381500000000002734937200000000000000009999123100000010000000000000BRBRKMACNPA4110
012013103196BRKM5F      020BRASKEM     PNA     N1   R$  000000000196500000000019990000000001950000000000197500000000019970000000001953000000000199700037000000000000001063000000000002100345000000000000009999123100000010000000000000BRBRKMACNPA4110
012013103162BRKM5T      030BRASKEM     PNA     N1018R$  000000000197800000000019960000000001978000000000198300000000019960000000000000000000000000000004000000000000004230000000000008389715000000000000009999123100000010000000000000BRBRKMACNPA4110
012013103162BRKM5T      030BRASKEM     PNA     N1060R$  000000000199800000000019990000000001998000000000199800000000019990000000000000000000000000000002000000000000001970000000000003937285000000000000009999123100000010000000000000BRBRKMACNPA4110
012013103102BRML3       010BR MALLS PARON      NM   R$  000000000221200000000022170000000002170000000000219300000000021700000000002170000000000217705936000000000002465500000000005407999000000000000000009999123100000010000000000000BRBRMLACNOR9105
012013103196BRML3F      020BR MALLS PARON      NM   R$  000000000220900000000022120000000002176000000000219700000000022000000000002152000000000220000040000000000000001417000000000003113261000000000000009999123100000010000000000000BRBRMLACNOR9105
012013103162BRML3T      030BR MALLS PARON      NM032R$  000000000220000000000022010000000002200000000000220000000000022010000000000000000000000000000002000000000000000700000000000001540359000000000000009999123100000010000000000000BRBRMLACNOR9105
012013103178BRMLK22     070BRML        ON      NM000R$  000000000003200000000000320000000000032000000000003200000000000320000000000000000000000000000002000000000000040000000000000001280000000000000220002013111800000010000000000000BRBRMLACNOR9105
012013103102BRPR3       010BR PROPERT  ON      NM   R$  000000000188000000000019120000000001871000000000189400000000019000000000001899000000000190006553000000000001653600000000003132575900000000000000009999123100000010000000000000BRBRPRACNOR9112
012013103196BRPR3F      020BR PROPERT  ON      NM   R$  000000000187000000000019350000000001870000000000189300000000019350000000001895000000000193500037000000000000000938000000000001775968000000000000009999123100000010000000000000BRBRPRACNOR9112
012013103102BRSR6       010BANRISUL    PNB     N1   R$  000000000157700000000016150000000001564000000000159500000000016150000000001603000000000161504914000000000002100300000000003351690900000000000000009999123100000010000000000000BRBRSRACNPB4134
012013103196BRSR6F      020BANRISUL    PNB     N1   R$  000000000158000000000016090000000001570000000000159300000000016070000000001590000000000160700027000000000000000739000000000001179346000000000000009999123100000010000000000000BRBRSRACNPB4134
012013103162BRSR6T      030BANRISUL    PNB     N1018R$  000000000160500000000016060000000001605000000000160500000000016060000000000000000000000000000002000000000000000100000000000000160572000000000000009999123100000010000000000000BRBRSRACNPB4134
012013103162BRSR6T      030BANRISUL    PNB     N1090R$  000000000161600000000016170000000001616000000000161600000000016170000000000000000000000000000002000000000000000434000000000000701766000000000000009999123100000010000000000000BRBRSRACNPB4134
012013103178BRSRL17     070BRSR        PNB     N1000R$  000000000002400000000000240000000000024000000000002400000000000240000000000000000000000000000001000000000000550000000000000013200000000000000170002013121600000010000000000000BRBRSRACNPB4134
012013103182BRSRX15     080BRSRE       PNB     N1000R$  000000000002200000000000220000000000022000000000002200000000000220000000000000000000000000000001000000000000550000000000000012100000000000000150002013121600000010000000000000BRBRSRACNPB4134
012013103182BRSRX16     080BRSRE       PNB     N1000R$  000000000006000000000000600000000000059000000000005900000000000590000000000000000000000000000002000000000000550000000000000032780000000000000160002013121600000010000000000000BRBRSRACNPB4134
012013103102BSEV3       010BIOSEV      ON      NM   R$  000000000092900000000010240000000000929000000000100100000000010030000000001002000000000102300047000000000000091100000000000091208500000000000000009999123100000010000000000000BRBSEVACNOR3100
012013103196BSEV3F      020BIOSEV      ON      NM   R$  000000000099700000000010000000000000997000000000099900000000010000000000000902000000000102500003000000000000000041000000000000040972000000000000009999123100000010000000000000BRBSEVACNOR3100
012013103102BSLI4       010BRB BANCO   PN           R$  000000000299900000000029990000000002999000000000299900000000029990000000002400000000000299900002000000000000000200000000000000599800000000000000009999123100000010000000000000BRBSLIACNPR2147
012013103196BSLI4F      020BRB BANCO   PN           R$  000000000243100000000024310000000002431000000000243100000000024310000000002430000000000000000002000000000000000068000000000000165308000000000000009999123100000010000000000000BRBSLIACNPR2147
012013103102BTOW3       010B2W DIGITAL ON      NM   R$  000000000167000000000017080000000001638000000000167600000000016750000000001673000000000167501417000000000000327800000000000549467100000000000000009999123100000010000000000000BRBTOWACNOR8105
012013103196BTOW3F      020B2W DIGITAL ON      NM   R$  000000000166000000000016990000000001615000000000167400000000016150000000001615000000000169500019000000000000000523000000000000875680000000000000009999123100000010000000000000BRBTOWACNOR8105
012013103102BTTL4       010BATTISTELLA PN           R$  000000000009700000000000980000000000094000000000009500000000000980000000000094000000000009700008000000000000011300000000000001073900000000000000009999123100000010000000000000BRBTTLACNPR7105
012013103196BTTL4F      020BATTISTELLA PN           R$  000000000010700000000001070000000000107000000000010700000000001070000000000104000000000011000001000000000000000026000000000000002782000000000000009999123100000010000000000000BRBTTLACNPR7105
012013103102BVMF3       010BMFBOVESPA  ON      NM   R$  000000000128000000000012840000000001263000000000127100000000012630000000001263000000000126812493000000000007478100000000009511560700000000000000009999123100000010000000000000BRBVMFACNOR3126
012013103196BVMF3F      020BMFBOVESPA  ON      NM   R$  000000000129500000000012950000000001265000000000127500000000012650000000001265000000000128500300000000000000006099000000000007780712000000000000009999123100000010000000000000BRBVMFACNOR3126
012013103162BVMF3T      030BMFBOVESPA  ON      NM090R$  000000000130200000000013030000000001299000000000130100000000013000000000000000000000000000000012000000000000135000000000000175660785000000000000009999123100000010000000000000BRBVMFACNOR3126
012013103178BVMFA13     070BVMF        ON      NM000R$  000000000006000000000000610000000000057000000000005800000000000570000000000000000000000000000021000000000000059300000000000003476600000000000130002014012000000010000000000000BRBVMFACNOR3126
012013103178BVMFK10     070BVMF        ON      NM000R$  000000000029000000000002920000000000290000000000029000000000002920000000000000000000000045700002000000000000007900000000000002292800000000000098502013111800000010000000000000BRBVMFACNOR3125
012013103178BVMFK12     070BVMF        ON      NM000R$  000000000010600000000001110000000000095000000000010200000000000960000000000095000000000011300115000000000000017800000000000001824900000000000118502013111800000010000000000000BRBVMFACNOR3125
012013103178BVMFK13     070BVMF  FM    ON      NM000R$  000000000002900000000000340000000000025000000000002800000000000270000000000026000000000002700939000000000000717600000000000020178200000000000128502013111800000010000000000000BRBVMFACNOR3125
012013103178BVMFK14     070BVMF  FM    ON      NM000R$  000000000000600000000000060000000000003000000000000300000000000030000000000003000000000000401063000000000000292400000000000001056600000000000138502013111800000010000000000000BRBVMFACNOR3125
012013103178BVMFK42     070BVMF  FM    ON      NM000R$  000000000005200000000000520000000000048000000000004800000000000480000000000000000000000008500008000000000000021100000000000001025200000000000125002013111800000010000000000000BRBVMFACNOR3126
012013103178BVMFK43     070BVMF  FM    ON      NM000R$  000000000000700000000000080000000000007000000000000700000000000080000000000006000000000001000002000000000000001800000000000000014300000000000135002013111800000010000000000000BRBVMFACNOR3126
012013103178BVMFK44     070BVMF  FM    ON      NM000R$  000000000000100000000000010000000000001000000000000100000000000010000000000000000000000000200003000000000000010000000000000000010000000000000145002013111800000010000000000000BRBVMFACNOR3126
012013103178BVMFL10     070BVMF        ON      NM000R$  000000000030000000000003000000000000300000000000030000000000003000000000000000000000000061900003000000000000010000000000000003000000000000000098502013121600000010000000000000BRBVMFACNOR3125
012013103178BVMFL13     070BVMF  FM    ON      NM000R$  000000000005100000000000510000000000046000000000004800000000000480000000000046000000000004900173000000000000054100000000000002607400000000000128502013121600000010000000000000BRBVMFACNOR3125
012013103178BVMFL14     070BVMF  FM    ON      NM000R$  000000000001700000000000180000000000016000000000001600000000000160000000000016000000000001800012000000000000012500000000000000210300000000000137402013121600000010000000000000BRBVMFACNOR3124
012013103178BVMFL15     070BVMF        ON      NM000R$  000000000000300000000000040000000000003000000000000300000000000030000000000001000000000000400019000000000000057500000000000000179500000000000148502013121600000010000000000000BRBVMFACNOR3125
012013103178BVMFL43     070BVMF        ON      NM000R$  000000000003300000000000330000000000033000000000003300000000000330000000000000000000000131900001000000000000001300000000000000042900000000000131902013121600000010000000000000BRBVMFACNOR3126
012013103182BVMFM11     080BVMFE       ON      NM000R$  000000000001100000000000110000000000011000000000001100000000000110000000000000000000000000000001000000000000000300000000000000003300000000000110002014012000000010000000000000BRBVMFACNOR3126
012013103182BVMFM12     080BVMFE       ON      NM000R$  000000000002700000000000270000000000027000000000002700000000000270000000000000000000000000000002000000000000003600000000000000097200000000000120002014012000000010000000000000BRBVMFACNOR3126
012013103182BVMFW12     080BVMFE FM    ON      NM000R$  000000000000600000000000090000000000006000000000000600000000000080000000000005000000000000900085000000000000081300000000000000548100000000000118502013111800000010000000000000BRBVMFACNOR3125
012013103182BVMFW13     080BVMFE FM    ON      NM000R$  000000000003800000000000380000000000031000000000003400000000000350000000000032000000000004800016000000000000018200000000000000636900000000000128502013111800000010000000000000BRBVMFACNOR3125
012013103182BVMFW42     080BVMFE FM    ON      NM000R$  000000000001900000000000290000000000019000000000002000000000000290000000000019000000000002900024000000000000052700000000000001077700000000000125002013111800000010000000000000BRBVMFACNOR3126
012013103182BVMFW43     080BVMFE FM    ON      NM000R$  000000000008000000000000800000000000080000000000008000000000000800000000000000000000000000000002000000000000007200000000000000576000000000000135002013111800000010000000000000BRBVMFACNOR3126
012013103182BVMFX13     080BVMFE FM    ON      NM000R$  000000000005000000000000500000000000048000000000004800000000000490000000000000000000000000000151000000000000016800000000000000811300000000000128502013121600000010000000000000BRBVMFACNOR3125
012013103182BVMFX14     080BVMFE FM    ON      NM000R$  000000000009900000000001080000000000099000000000010400000000001060000000000000000000000000000005000000000000017500000000000001823500000000000137402013121600000010000000000000BRBVMFACNOR3124
012013103182BVMFX42     080BVMFE FM    ON      NM000R$  000000000003100000000000350000000000031000000000003200000000000350000000000000000000000003600009000000000000029500000000000000972000000000000125002013121600000010000000000000BRBVMFACNOR3126
012013103182BVMFX62     080BVMFE FM    ON      NM000R$  000000000001900000000000190000000000019000000000001900000000000190000000000000000000000000000001000000000000001800000000000000034200000000000120002013121600000010000000000000BRBVMFACNOR3126
012013103102CAMB4       010CAMBUCI     PN           R$  000000000018400000000001890000000000181000000000018300000000001810000000000180000000000018300014000000000000030300000000000005551800000000000000009999123100000010000000000000BRCAMBACNPR1117
012013103102CARD3       010CSU CARDSYSTON      NM   R$  000000000030300000000003030000000000297000000000030000000000003000000000000298000000000031000033000000000000047100000000000014131100000000000000009999123100000010000000000000BRCARDACNOR9105
012013103102CBEE3       010AMPLA ENERG ON *         R$  000000000012900000000001300000000000129000000000012900000000001290000000000120000000000013000003000000000001200000000000000000154900000000000000009999123100010000000000000000BRCBEEACNOR3149
012013103102CBMA4       010COBRASMA    PN           R$  000000000000400000000000040000000000004000000000000400000000000040000000000004000000000000500026000000000001700000000000000006800000000000000000009999123100000010000000000000BRCBMAACNPR1124
012013103196CBMA4F      020COBRASMA    PN           R$  000000000000400000000000040000000000004000000000000400000000000040000000000004000000000000500006000000000000008632000000000000034528000000000000009999123100000010000000000000BRCBMAACNPR1124
012013103108CCHI3       010CHIARELLI   ON           R$  000000000001300000000000130000000000012000000000001200000000000130000000000012000000000001400016000000000000410000000000000005320000000000000000009999123100000010000000000000BRCCHIACNOR5123
012013103196CCHI3F      020CHIARELLI   ON           R$  000000000001300000000000130000000000011000000000001100000000000130000000000011000000000001300008000000000000013800000000000000163200000000000000009999123100000010000000000000BRCCHIACNOR5123
012013103108CCHI4       010CHIARELLI   PN           R$  000000000000800000000000080000000000008000000000000800000000000080000000000008000000000000900004000000000000050000000000000000400000000000000000009999123100000010000000000000BRCCHIACNPR2122
012013103102CCPR3       010CYRE COM-CCPON      NM   R$  000000000201600000000020500000000002001000000000203900000000020170000000002016000000000205000009000000000000001400000000000002854700000000000000009999123100000010000000000000BRCCPRACNOR9107
012013103196CCPR3F      020CYRE COM-CCPON      NM   R$  000000000192000000000020690000000001920000000000203100000000020690000000001922000000000206900003000000000000000121000000000000245834000000000000009999123100000010000000000000BRCCPRACNOR9107
012013103102CCRO3       010CCR SA      ON      NM   R$  000000000186200000000018730000000001845000000000185800000000018630000000001855000000000186308887000000000003284000000000006101741700000000000000009999123100000010000000000000BRCCROACNOR2123
012013103196CCRO3F      020CCR SA      ON      NM   R$  000000000184600000000018990000000001840000000000185700000000018600000000001850000000000189500094000000000000002333000000000004333112000000000000009999123100000010000000000000BRCCROACNOR2123
012013103178CCROL48     070CCRO        ON      NM000R$  000000000006600000000000660000000000066000000000006600000000000660000000000000000000000000000002000000000000008900000000000000587400000000000185002013121600000010000000000000BRCCROACNOR2123
012013103178CCROL49     070CCRO        ON      NM000R$  000000000001600000000000160000000000016000000000001600000000000160000000000000000000000000000001000000000000003100000000000000049600000000000195002013121600000010000000000000BRCCROACNOR2123
012013103102CCXC3       010CCX CARVAO  ON      NM   R$  000000000011900000000001340000000000113000000000012500000000001180000000000117000000000011802629000000000009423700000000001186134200000000000000009999123100000010000000000000BRCCXCACNOR5100
012013103196CCXC3F      020CCX CARVAO  ON      NM   R$  000000000012500000000001280000000000122000000000012400000000001280000000000120000000000012800017000000000000000723000000000000089908000000000000009999123100000010000000000000BRCCXCACNOR5100
012013103102CEBR6       010CEB         PNB          R$  000000000160000000000016000000000001600000000000160000000000016000000000001500000000000160000002000000000000000600000000000000960000000000000000009999123100000010000000000000BRCEBRACNPB6113
012013103102CEDO4       010CEDRO       PN  ED  N1   R$  000000000097400000000009740000000000974000000000097400000000009740000000000880000000000097500001000000000000000100000000000000097400000000000000009999123100000010000000000000BRCEDOACNPR5127
012013103108CELP3       010CELPA       ON           R$  000000000009000000000000900000000000090000000000009000000000000900000000000071000000000011000011000000000000089800000000000008082000000000000000009999123100000010000000000000BRCELPACNOR8112
012013103112CEOC11B     010FII CEO CCP CI      MB   R$  000000000860000000000087000000000008536000000000865300000000086950000000008540000000000869500030000000000000001875000000000016225442000000000000009999123100000010000000000000BRCEOCCTF003111
012013103102CEPE5       010CELPE       PNA          R$  000000000215000000000021500000000002150000000000215000000000021500000000002000000000000220000002000000000000001300000000000002795000000000000000009999123100000010000000000000BRCEPEACNPA6151
012013103102CESP3       010CESP        ON      N1   R$  000000000194000000000019400000000001940000000000194000000000019400000000001881000000000194000005000000000000002400000000000004656000000000000000009999123100000010000000000000BRCESPACNOR3160
012013103196CESP5F      020CESP        PNA     N1   R$  000000000210800000000021080000000002108000000000210800000000021080000000002108000000000230000001000000000000000059000000000000124372000000000000009999123100000010000000000000BRCESPACNPA6108
012013103102CESP6       010CESP        PNB     N1   R$  000000000229700000000023430000000002252000000000232000000000023430000000002330000000000234303897000000000001001600000000002323912400000000000000009999123100000010000000000000BRCESPACNPB4119
012013103196CESP6F      020CESP        PNB     N1   R$  000000000231000000000023590000000002265000000000232100000000023590000000002300000000000235900029000000000000000814000000000001890043000000000000009999123100000010000000000000BRCESPACNPB4119
012013103162CESP6T      030CESP        PNB     N1018R$  000000000232700000000023280000000002327000000000232700000000023280000000000000000000000000000002000000000000000100000000000000232774000000000000009999123100000010000000000000BRCESPACNPB4119
012013103178CESPK53     070CESP        PNB     N1000R$  000000000001100000000000110000000000011000000000001100000000000110000000000000000000000000000002000000000000040000000000000000440000000000000235002013111800000010000000000000BRCESPACNPB4119
012013103102CGAS3       010COMGAS      ON           R$  000000000542000000000054200000000005301000000000536000000000053980000000005356000000000550000012000000000000032200000000000172612800000000000000009999123100000010000000000000BRCGASACNOR0132
012013103196CGAS3F      020COMGAS      ON           R$  000000000535000000000065000000000005350000000000538800000000065000000000004511000000000650000003000000000000000063000000000000339500000000000000009999123100000010000000000000BRCGASACNOR0132
012013103102CGAS5       010COMGAS      PNA          R$  000000000591500000000059790000000005900000000000592800000000059450000000005925000000000594500047000000000000017200000000000101966800000000000000009999123100000010000000000000BRCGASACNPA3129
012013103196CGAS5F      020COMGAS      PNA          R$  000000000592000000000059200000000005900000000000590000000000059000000000005900000000000620000005000000000000000121000000000000713985000000000000009999123100000010000000000000BRCGASACNPA3129
012013103102CGRA3       010GRAZZIOTIN  ON           R$  000000000167000000000017500000000001670000000000170300000000017500000000001750000000000183000017000000000000005800000000000009880000000000000000009999123100000010000000000000BRCGRAACNOR2061
012013103196CGRA3F      020GRAZZIOTIN  ON           R$  000000000170000000000017050000000001700000000000170000000000017050000000001700000000000180000003000000000000000054000000000000091825000000000000009999123100000010000000000000BRCGRAACNOR2061
012013103102CGRA4       010GRAZZIOTIN  PN           R$  000000000177500000000018600000000001775000000000182600000000018590000000001830000000000185900151000000000000035500000000000064840500000000000000009999123100000010000000000000BRCGRAACNPR9061
012013103196CGRA4F      020GRAZZIOTIN  PN           R$  000000000178000000000024000000000001780000000000188100000000018500000000001815000000000190000043000000000000000689000000000001296110000000000000009999123100000010000000000000BRCGRAACNPR9061
012013103162CGRA4T      030GRAZZIOTIN  PN        090R$  000000000187700000000018780000000001877000000000187700000000018780000000000000000000000000000002000000000000001900000000000003566341000000000000009999123100000010000000000000BRCGRAACNPR9061
012013103102CIEL3       010CIELO       ON      NM   R$  000000000665700000000068350000000006647000000000677300000000068000000000006795000000000680006018000000000001924600000000013035916100000000000000009999123100000010000000000000BRCIELACNOR3112
012013103196CIEL3F      020CIELO       ON      NM   R$  000000000666000000000068390000000006660000000000676000000000067000000000006700000000000677500679000000000000013757000000000093007108000000000000009999123100000010000000000000BRCIELACNOR3112
012013103162CIEL3T      030CIELO       ON      NM032R$  000000000675600000000067570000000006756000000000675600000000067570000000000000000000000000000002000000000000001500000000000010134446000000000000009999123100000010000000000000BRCIELACNOR3112
012013103162CIEL3T      030CIELO       ON      NM060R$  000000000690500000000069060000000006905000000000690500000000069060000000000000000000000000000002000000000000000700000000000004833555000000000000009999123100000010000000000000BRCIELACNOR3112
012013103162CIEL3T      030CIELO       ON      NM090R$  000000000684900000000068740000000006849000000000686200000000068740000000000000000000000000000020000000000000150000000000001029442441000000000000009999123100000010000000000000BRCIELACNOR3112
012013103178CIELK69     070CIEL        ON      NM000R$  000000000006500000000000650000000000065000000000006500000000000650000000000000000000000000000001000000000000000900000000000000058500000000000690002013111800000010000000000000BRCIELACNOR3112
012013103102CLSC4       010CELESC      PN      N2   R$  000000000181500000000018150000000001775000000000178400000000017800000000001780000000000179000043000000000000014900000000000026586800000000000000009999123100000010000000000000BRCLSCACNPR3107
012013103196CLSC4F      020CELESC      PN      N2   R$  000000000179000000000017900000000001771000000000177200000000017710000000001771000000000185000003000000000000000019000000000000033677000000000000009999123100000010000000000000BRCLSCACNPR3107
012013103102CMIG3       010CEMIG       ON      N1   R$  000000000202000000000020200000000001983000000000199400000000019830000000001983000000000200500277000000000000086000000000000171558600000000000000009999123100000010000000000000BRCMIGACNOR6208
012013103196CMIG3F      020CEMIG       ON      N1   R$  000000000201200000000020120000000001980000000000199700000000020100000000001996000000000201000044000000000000000861000000000001720158000000000000009999123100000010000000000000BRCMIGACNOR6208
012013103102CMIG4       010CEMIG       PN      N1   R$  000000000199200000000020060000000001960000000000198400000000019930000000001991000000000199306255000000000002225200000000004415653900000000000000009999123100000010000000000000BRCMIGACNPR3208
012013103196CMIG4F      020CEMIG       PN      N1   R$  000000000199000000000020210000000001962000000000198500000000020050000000002000000000000200500792000000000000019989000000000039687461000000000000009999123100000010000000000000BRCMIGACNPR3208
012013103162CMIG4T      030CEMIG       PN      N1018R$  000000000198700000000019990000000001987000000000198900000000019990000000000000000000000000000004000000000000000600000000000001193492000000000000009999123100000010000000000000BRCMIGACNPR3208
012013103162CMIG4T      030CEMIG       PN      N1032R$  000000000200500000000020060000000002005000000000200500000000020060000000000000000000000000000002000000000000000800000000000001604268000000000000009999123100000010000000000000BRCMIGACNPR3208
012013103162CMIG4T      030CEMIG       PN      N1060R$  000000000199800000000019990000000001998000000000199800000000019990000000000000000000000000000002000000000000003000000000000005994513000000000000009999123100000010000000000000BRCMIGACNPR3208
012013103162CMIG4T      030CEMIG       PN      N1090R$  000000000203100000000020320000000002031000000000203100000000020320000000000000000000000000000002000000000000010000000000000020319890000000000000009999123100000010000000000000BRCMIGACNPR3208
012013103178CMIGK20     070CMIG        PN      N1000R$  000000000003500000000000350000000000029000000000003100000000000290000000000000000000000004900005000000000000004800000000000000150000000000000200002013111800000010000000000000BRCMIGACNPR3208
012013103178CMIGL1      070CMIGE       PN      N1000R$  000000000002700000000000270000000000027000000000002700000000000270000000000000000000000000000002000000000000007600000000000000205200000000000207502013121600000010000000000000BRCMIGACNPR3208
012013103182CMIGX48     080CMIGE       PN      N1000R$  000000000001600000000000160000000000016000000000001600000000000160000000000000000000000000000001000000000000007600000000000000121600000000000185002013121600000010000000000000BRCMIGACNPR3208
012013103182CMIGX49     080CMIGE       PN      N1000R$  000000000004300000000000430000000000043000000000004300000000000430000000000000000000000000000001000000000000007600000000000000326800000000000195002013121600000010000000000000BRCMIGACNPR3208
012013103112CNES11B     010FII CENESP  CI  ER  MB   R$  000000001285000000000128500000000012704000000001279900000000127040000000012704000000001280000022000000000000001490000000000019071726000000000000009999123100000010000000000000BRCNESCTF001127
012013103102COCA34      010COCA COLA   DRN          R$  000000000891500000000089150000000008915000000000891500000000089150000000008796000000000914800001000000000000000300000000000002674500000000000000009999123100000010000000000000BRCOCABDR002109
012013103102COCE3       010COELCE      ON           R$  000000000400600000000040980000000004000000000000403600000000040980000000003990000000000409900035000000000000009500000000000038344500000000000000009999123100000010000000000000BRCOCEACNOR0132
012013103102COCE5       010COELCE      PNA          R$  000000000389400000000039970000000003810000000000392600000000039490000000003947000000000395400682000000000000147300000000000578332500000000000000009999123100000010000000000000BRCOCEACNPA3133
012013103196COCE5F      020COELCE      PNA          R$  000000000389400000000040000000000003894000000000396000000000040000000000003894000000000400000017000000000000000377000000000001493112000000000000009999123100000010000000000000BRCOCEACNPA3133
012013103102CPFE3       010CPFL ENERGIAON      NM   R$  000000000192700000000019330000000001890000000000191000000000019140000000001912000000000191404433000000000001198800000000002290331200000000000000009999123100000010000000000000BRCPFEACNOR0122
012013103196CPFE3F      020CPFL ENERGIAON      NM   R$  000000000192100000000019390000000001891000000000190500000000019130000000001893000000000191300044000000000000001037000000000001975503000000000000009999123100000010000000000000BRCPFEACNOR0122
012013103162CPFE3T      030CPFL ENERGIAON      NM060R$  000000000194400000000019450000000001927000000000193500000000019280000000000000000000000000000004000000000000002000000000000003871422000000000000009999123100000010000000000000BRCPFEACNOR0122
012013103102CPLE3       010COPEL       ON      N1   R$  000000000224700000000022790000000002220000000000226400000000022790000000002238000000000227900063000000000000046500000000000105284500000000000000009999123100000010000000000000BRCPLEACNOR8128
012013103102CPLE6       010COPEL       PNB     N1   R$  000000000309000000000031260000000003077000000000311000000000031240000000003109000000000312403065000000000000931100000000002896193600000000000000009999123100000010000000000000BRCPLEACNPB9125
012013103196CPLE6F      020COPEL       PNB     N1   R$  000000000310000000000031490000000002860000000000307700000000031470000000003070000000000314700024000000000000000839000000000002581888000000000000009999123100000010000000000000BRCPLEACNPB9125
012013103102CPRE3       010CPFL RENOVAVON      NM   R$  000000000133500000000013530000000001300000000000133100000000013250000000001325000000000133500017000000000000007600000000000010119200000000000000009999123100000010000000000000BRCPREACNOR5100
012013103102CRDE3       010CR2         ON      NM   R$  000000000041500000000004150000000000400000000000040600000000004130000000000390000000000041400019000000000000047300000000000019225400000000000000009999123100000010000000000000BRCRDEACNOR1108
012013103196CRDE3F      020CR2         ON      NM   R$  000000000040000000000004000000000000400000000000040000000000004000000000000400000000000044800002000000000000000047000000000000018800000000000000009999123100000010000000000000BRCRDEACNOR1108
012013103102CREM3       010CREMER      ON      NM   R$  000000000153000000000015620000000001524000000000155400000000015620000000001525000000000156200013000000000000003700000000000005750700000000000000009999123100000010000000000000BRCREMACNOR2167
012013103196CREM3F      020CREMER      ON      NM   R$  000000000159400000000015940000000001594000000000159400000000015940000000001431000000000159400001000000000000000016000000000000025504000000000000009999123100000010000000000000BRCREMACNOR2167
012013103102CRIV3       010ALFA FINANC ON           R$  000000000049900000000004990000000000499000000000049900000000004990000000000472000000000051600001000000000000000600000000000000299400000000000000009999123100000010000000000000BRCRIVACNOR4190
012013103102CRIV4       010ALFA FINANC PN           R$  000000000043300000000004480000000000430000000000043400000000004390000000000427000000000044000018000000000000011200000000000004864500000000000000009999123100000010000000000000BRCRIVACNPR1190
012013103102CRUZ3       010SOUZA CRUZ  ON           R$  000000000240200000000024480000000002401000000000242000000000024230000000002420000000000242304904000000000001352100000000003272766000000000000000009999123100000010000000000000BRCRUZACNOR0248
012013103196CRUZ3F      020SOUZA CRUZ  ON           R$  000000000242200000000024700000000002405000000000242000000000024050000000002405000000000244500065000000000000001605000000000003885257000000000000009999123100000010000000000000BRCRUZACNOR0248
012013103162CRUZ3T      030SOUZA CRUZ  ON        018R$  000000000244400000000024470000000002444000000000244400000000024470000000000000000000000000000012000000000000001000000000000002444667000000000000009999123100000010000000000000BRCRUZACNOR0248
012013103162CRUZ3T      030SOUZA CRUZ  ON        060R$  000000000243700000000024380000000002437000000000243700000000024380000000000000000000000000000002000000000000001000000000000002437949000000000000009999123100000010000000000000BRCRUZACNOR0248
012013103162CRUZ3T      030SOUZA CRUZ  ON        180R$  000000000253500000000025360000000002535000000000253500000000025360000000000000000000000000000002000000000000001000000000000002535508000000000000009999123100000010000000000000BRCRUZACNOR0248
012013103102CSAB4       010SEG AL BAHIAPN           R$  000000000300600000000030060000000003005000000000300500000000030050000000003005000000000000000002000000000000000300000000000000901700000000000000009999123100000010000000000000BRCSABACNPR8051
012013103102CSAN3       010COSAN       ON      NM   R$  000000000442300000000044960000000004402000000000446600000000044920000000004463000000000449203348000000000000965500000000004312224100000000000000009999123100000010000000000000BRCSANACNOR6108
012013103196CSAN3F      020COSAN       ON      NM   R$  000000000443000000000045350000000004418000000000446900000000045350000000004500000000000453500479000000000000015811000000000070664258000000000000009999123100000010000000000000BRCSANACNOR6108
012013103162CSAN3T      030COSAN       ON      NM018R$  000000000447400000000044750000000004474000000000447400000000044750000000000000000000000000000002000000000000002000000000000008948977000000000000009999123100000010000000000000BRCSANACNOR6108
012013103162CSAN3T      030COSAN       ON      NM022R$  000000000451200000000045130000000004512000000000451200000000045130000000000000000000000000000002000000000000000300000000000001353638000000000000009999123100000010000000000000BRCSANACNOR6108
012013103162CSAN3T      030COSAN       ON      NM032R$  000000000451900000000045200000000004519000000000451900000000045200000000000000000000000000000002000000000000000400000000000001807946000000000000009999123100000010000000000000BRCSANACNOR6108
012013103162CSAN3T      030COSAN       ON      NM090R$  000000000453000000000045440000000004515000000000452900000000045440000000000000000000000000000018000000000000100000000000000452997894000000000000009999123100000010000000000000BRCSANACNOR6108
012013103178CSANK45     070CSAN        ON      NM000R$  000000000010300000000001030000000000103000000000010300000000001030000000000000000000000000000003000000000000001500000000000000154500000000000450002013111800000010000000000000BRCSANACNOR6108
012013103178CSANK48     070CSAN        ON      NM000R$  000000000000900000000000090000000000009000000000000900000000000090000000000000000000000000000002000000000000001500000000000000013500000000000480002013111800000010000000000000BRCSANACNOR6108
012013103178CSANL45     070CSAN        ON      NM000R$  000000000013700000000001380000000000137000000000013700000000001380000000000000000000000000000002000000000000003700000000000000508000000000000450002013121600000010000000000000BRCSANACNOR6108
012013103102CSCO34      010CISCO       DRN          R$  000000000508200000000050820000000005082000000000508200000000050820000000005015000000000510000001000000000000000700000000000003557400000000000000009999123100000010000000000000BRCSCOBDR004111
012013103102CSMG3       010COPASA      ON      NM   R$  000000000361100000000036660000000003572000000000361100000000036180000000003600000000000361801467000000000000293200000000001058855300000000000000009999123100000010000000000000BRCSMGACNOR5128
012013103196CSMG3F      020COPASA      ON      NM   R$  000000000364900000000036490000000003549000000000359600000000036200000000003549000000000362000012000000000000000312000000000001122179000000000000009999123100000010000000000000BRCSMGACNOR5128
012013103114CSMO11      010ISHARES CSMOCI           R$  000000000476000000000047600000000004753000000000475400000000047530000000004753000000000475700004000000000000000250000000000001188520000000000000009999123100000010000000000000BRCSMOCTF002100
012013103102CSNA3       010SID NACIONALON           R$  000000000119900000000012300000000001193000000000121400000000012190000000001218000000000121912169000000000006648700000000008072291300000000000000009999123100000010000000000000BRCSNAACNOR6243
012013103196CSNA3F      020SID NACIONALON           R$  000000000119600000000012310000000001195000000000121500000000012300000000001228000000000123000073000000000000002305000000000002801695000000000000009999123100000010000000000000BRCSNAACNOR6243
012013103162CSNA3T      030SID NACIONALON        060R$  000000000122400000000012250000000001224000000000122400000000012250000000000000000000000000000002000000000000050000000000000061234576000000000000009999123100000010000000000000BRCSNAACNOR6243
012013103178CSNAK1      070CSNA        ON        000R$  000000000020900000000002090000000000209000000000020900000000002090000000000000000000000000000001000000000000003000000000000000627000000000000100002013111800000010000000000000BRCSNAACNOR6243
012013103178CSNAK11     070CSNA        ON        000R$  000000000012900000000001370000000000125000000000012700000000001370000000000000000000000000000010000000000000007500000000000000958100000000000110002013111800000010000000000000BRCSNAACNOR6243
012013103178CSNAK12     070CSNA  FM    ON        000R$  000000000004600000000000630000000000046000000000005300000000000620000000000000000000000000000030000000000000066800000000000003593100000000000120002013111800000010000000000000BRCSNAACNOR6243
012013103178CSNAK13     070CSNA  FM    ON        000R$  000000000001500000000000180000000000011000000000001600000000000180000000000014000000000001900014000000000000030400000000000000486800000000000130002013111800000010000000000000BRCSNAACNOR6243
012013103178CSNAK14     070CSNA        ON        000R$  000000000000400000000000040000000000004000000000000400000000000040000000000002000000000000000002000000000000003500000000000000014000000000000140002013111800000010000000000000BRCSNAACNOR6243
012013103178CSNAK41     070CSNA  FM    ON        000R$  000000000008400000000000980000000000082000000000008600000000000980000000000000000000000000000012000000000000027500000000000002366600000000000115002013111800000010000000000000BRCSNAACNOR6243
012013103178CSNAK42     070CSNA  FM    ON        000R$  000000000002800000000000350000000000028000000000003100000000000330000000000000000000000000000005000000000000012100000000000000386600000000000125002013111800000010000000000000BRCSNAACNOR6243
012013103178CSNAL11     070CSNA        ON        000R$  000000000019000000000001900000000000190000000000019000000000001900000000000000000000000000000002000000000000000400000000000000076000000000000104702013121600000010000000000000BRCSNAACNOR6241
012013103178CSNAL12     070CSNA  FM    ON        000R$  000000000011900000000001240000000000111000000000011600000000001240000000000055000000000000000009000000000000019900000000000002310100000000000114702013121600000010000000000000BRCSNAACNOR6241
012013103178CSNAL13     070CSNA  FM    ON        000R$  000000000003800000000000380000000000038000000000003800000000000380000000000035000000000000000005000000000000014200000000000000539600000000000130002013121600000010000000000000BRCSNAACNOR6243
012013103178CSNAL42     070CSNA  FM    ON        000R$  000000000007800000000000880000000000078000000000008300000000000860000000000010000000000000000005000000000000013300000000000001115400000000000119702013121600000010000000000000BRCSNAACNOR6241
012013103178CSNAL43     070CSNA  FM    ON        000R$  000000000002700000000000300000000000027000000000002700000000000300000000000008000000000000000004000000000000010800000000000000294000000000000135002013121600000010000000000000BRCSNAACNOR6243
012013103182CSNAW11     080CSNAE FM    ON        000R$  000000000001100000000000110000000000009000000000000900000000000100000000000000000000000001200004000000000000015800000000000000152200000000000110002013111800000010000000000000BRCSNAACNOR6243
012013103182CSNAW12     080CSNAE FM    ON        000R$  000000000003800000000000390000000000033000000000003500000000000330000000000000000000000007700006000000000000009000000000000000318000000000000120002013111800000010000000000000BRCSNAACNOR6243
012013103182CSNAW42     080CSNAE FM    ON        000R$  000000000006600000000000670000000000057000000000006300000000000570000000000000000000000000000013000000000000035800000000000002260700000000000125002013111800000010000000000000BRCSNAACNOR6243
012013103182CSNAX12     080CSNAE FM    ON        000R$  000000000004300000000000430000000000043000000000004300000000000430000000000027000000000006300001000000000000000100000000000000004300000000000114702013121600000010000000000000BRCSNAACNOR6241
012013103182CSNAX2      080CSNAE FM    ON        000R$  000000000008200000000000820000000000082000000000008200000000000820000000000000000000000000000003000000000000010000000000000000820000000000000125002013121600000010000000000000BRCSNAACNOR6243
012013103182CSNAX41     080CSNAE FM    ON        000R$  000000000002800000000000280000000000028000000000002800000000000280000000000000000000000000000001000000000000002400000000000000067200000000000110002013121600000010000000000000BRCSNAACNOR6243
012013103102CTAX11      010CONTAX      UNT     N2   R$  000000000182600000000018440000000001791000000000181200000000018440000000001825000000000184400309000000000000329900000000000598044500000000000000009999123100000010000000000000BRCTAXCDAM19100
012013103162CTAX11T     030CONTAX      UNT     N2090R$  000000000185800000000018590000000001853000000000185300000000018540000000000000000000000000000008000000000000020000000000000037074405000000000000009999123100000010000000000000BRCTAXCDAM19100
012013103102CTAX3       010CONTAX      ON      N2   R$  000000000038000000000004500000000000361000000000038400000000003610000000000361000000000037000132000000000000025300000000000009724700000000000000009999123100000010000000000000BRCTAXACNOR3113
012013103102CTAX4       010CONTAX      PN      N2   R$  000000000036000000000003600000000000328000000000034500000000003540000000000354000000000036900671000000000000176000000000000060746700000000000000009999123100000010000000000000BRCTAXACNPR0114
012013103196CTAX4F      020CONTAX      PN      N2   R$  000000000033500000000003350000000000321000000000033200000000003210000000000321000000000043300005000000000000000123000000000000040878000000000000009999123100000010000000000000BRCTAXACNPR0114
012013103102CTIP3       010CETIP       ON      NM   R$  000000000248200000000024890000000002448000000000246800000000024840000000002475000000000248408397000000000001698200000000004192629100000000000000009999123100000010000000000000BRCTIPACNOR2120
012013103196CTIP3F      020CETIP       ON      NM   R$  000000000243100000000025980000000002431000000000246600000000024650000000002465000000000247500072000000000000001652000000000004073889000000000000009999123100000010000000000000BRCTIPACNOR2120
012013103102CTNM4       010COTEMINAS   PN           R$  000000000023300000000002440000000000227000000000023000000000002290000000000226000000000023000022000000000000032300000000000007440100000000000000009999123100000010000000000000BRCTNMACNPR6128
012013103196CTSA3F      020SANTANENSE  ON           R$  000000000060000000000006000000000000600000000000060000000000006000000000000500000000000000000001000000000000000003000000000000001800000000000000009999123100000010000000000000BRCTSAACNOR3051
012013103102CTSA4       010SANTANENSE  PN           R$  000000000055100000000005950000000000551000000000055600000000005950000000000548000000000059400004000000000000001600000000000000890400000000000000009999123100000010000000000000BRCTSAACNPR0051
012013103196CTSA4F      020SANTANENSE  PN           R$  000000000060000000000006000000000000600000000000060000000000006000000000000600000000000065000001000000000000000015000000000000009000000000000000009999123100000010000000000000BRCTSAACNPR0051
012013103162CTSA4T      030SANTANENSE  PN        090R$  000000000056200000000005630000000000562000000000056200000000005630000000000000000000000000000002000000000000001300000000000000731414000000000000009999123100000010000000000000BRCTSAACNPR0051
012013103112CXCE11B     010FII CX CEDAECI      MB   R$  000000019230000000001923000000000192200000000019223700000001922000000000191000000000019200000002000000000000000008000000000001537900000000000000009999123100000010000000000000BRCXCECTF004139
012013103112CXTL11      010FII CX TRX  CI           R$  000000007190000000000720000000000071900000000007196800000000720000000000071919000000007200000004000000000000000038000000000002734800000000000000009999123100000010000000000000BRCXTLCTF003123
012013103102CYRE3       010CYRELA REALTON      NM   R$  000000000168300000000016840000000001651000000000166600000000016750000000001675000000000167607232000000000002708500000000004514985800000000000000009999123100000010000000000000BRCYREACNOR7125
012013103196CYRE3F      020CYRELA REALTON      NM   R$  000000000166800000000016840000000001621000000000166000000000016520000000001651000000000168000025000000000000000561000000000000931483000000000000009999123100000010000000000000BRCYREACNOR7125
012013103162CYRE3T      030CYRELA REALTON      NM361R$  000000000185800000000018590000000001858000000000185800000000018590000000000000000000000000000002000000000000000200000000000000371783000000000000009999123100000010000000000000BRCYREACNOR7125
012013103178CYREA3      070CYRE        ON      NM000R$  000000000005500000000000610000000000055000000000005800000000000610000000000000000000000000000009000000000000011400000000000000664800000000000175002014012000000010000000000000BRCYREACNOR7124
012013103178CYREK15     070CYRE        ON      NM000R$  000000000018700000000001870000000000172000000000017900000000001720000000000000000000000000000002000000000000000600000000000000107700000000000150002013111800000010000000000000BRCYREACNOR7125
012013103178CYREK16     070CYRE        ON      NM000R$  000000000009600000000000960000000000084000000000008700000000000840000000000000000000000000000004000000000000001600000000000000139200000000000160002013111800000010000000000000BRCYREACNOR7125
012013103178CYREK17     070CYRE  FM    ON      NM000R$  000000000002500000000000260000000000023000000000002400000000000230000000000000000000000000000005000000000000014000000000000000343500000000000170002013111800000010000000000000BRCYREACNOR7125
012013103178CYREK18     070CYRE  FM    ON      NM000R$  000000000000500000000000050000000000005000000000000500000000000050000000000000000000000000000002000000000000007000000000000000035000000000000180002013111800000010000000000000BRCYREACNOR7125
012013103178CYREK45     070CYRE        ON      NM000R$  000000000014000000000001400000000000126000000000012900000000001260000000000000000000000000000005000000000000001500000000000000194400000000000155002013111800000010000000000000BRCYREACNOR7125
012013103178CYREK46     070CYRE  FM    ON      NM000R$  000000000005200000000000600000000000050000000000005600000000000500000000000000000000000000000007000000000000014000000000000000785000000000000165002013111800000010000000000000BRCYREACNOR7125
012013103178CYREK47     070CYRE  FM    ON      NM000R$  000000000001200000000000130000000000012000000000001200000000000120000000000000000000000000000003000000000000007000000000000000084500000000000175002013111800000010000000000000BRCYREACNOR7125
012013103178CYREL17     070CYRE  FM    ON      NM000R$  000000000009000000000000900000000000075000000000008700000000000850000000000000000000000000000011000000000000016900000000000001480600000000000165002013121600000010000000000000BRCYREACNOR7124
012013103178CYREL18     070CYRE  FM    ON      NM000R$  000000000002100000000000210000000000021000000000002100000000000210000000000000000000000000000001000000000000003500000000000000073500000000000180002013121600000010000000000000BRCYREACNOR7125
