00COTAHIST.2013BOVESPA 20130719                                                                                                                                                                                                                      
012013071910ABCB2       010ABC BRASIL  DIR PRE N2   R$  000000000010800000000001200000000000107000000000011300000000001160000000000104000000000000000107000000000000017200000000000001952300000000000000009999123100000010000000000000BRABCBD03PR5119
012013071996ABCB2F      020ABC BRASIL  DIR PRE N2   R$  000000000009000000000001090000000000090000000000009700000000001090000000000000000000000010900004000000000000000100000000000000009756000000000000009999123100000010000000000000BRABCBD03PR5119
012013071902ABCB4       010ABC BRASIL  PN      N2   R$  000000000118200000000012100000000001170000000000119000000000012100000000001200000000000121001233000000000000555500000000000661375100000000000000009999123100000010000000000000BRABCBACNPR4120
012013071996ABCB4F      020ABC BRASIL  PN      N2   R$  000000000119500000000011960000000001191000000000119200000000011910000000001185000000000119900005000000000000000081000000000000096554000000000000009999123100000010000000000000BRABCBACNPR4120
012013071902ABRE11      010ABRIL EDUCA UNT     N2   R$  000000000388800000000038990000000003820000000000384200000000038350000000003832000000000383500686000000000000135500000000000520682900000000000000009999123100000010000000000000BRABRECDAM15102
012013071996ABRE11F     020ABRIL EDUCA UNT     N2   R$  000000000390700000000039070000000003834000000000385900000000038350000000003712000000000384000009000000000000000301000000000001161627000000000000009999123100000010000000000000BRABRECDAM15102
012013071902AEDU3       010ANHANGUERA  ON      NM   R$  000000000130000000000013100000000001278000000000128900000000012940000000001294000000000129705001000000000001285400000000001657298300000000000000009999123100000010000000000000BRAEDUACNOR9107
012013071996AEDU3F      020ANHANGUERA  ON      NM   R$  000000000130000000000013080000000001270000000000129100000000012900000000001276000000000130000013000000000000000484000000000000624868000000000000009999123100000010000000000000BRAEDUACNOR9107
012013071912AEFI11      010FII AESAPAR CI           R$  000000001235400000000123940000000012250000000001233700000000123750000000012260000000001232500030000000000000001204000000000014854110000000000000009999123100000010000000000000BRAEFICTF002119
012013071902AELP3       010AES ELPA    ON           R$  000000000073400000000007500000000000732000000000074400000000007500000000000707000000000075000005000000000000001000000000000000744600000000000000009999123100000010000000000000BRAELPACNOR2119
012013071912AGCX11      010FII AG CAIXACI           R$  000000010080000000001009990000000100500000000010074400000001005000000000100200000000010050000008000000000000000069000000000006951348000000000000009999123100000010000000000000BRAGCXCTF003108
012013071902AGEN11      010AGRENCO     DR3          R$  000000000005100000000000540000000000049000000000005100000000000530000000000053000000000005401032000000000009698100000000000501888900000000000000009999123100000010000000000000BRAGENBDR001100
012013071996AGEN11F     020AGRENCO     DR3          R$  000000000005200000000000520000000000049000000000005100000000000510000000000052000000000006000003000000000000000097000000000000004951000000000000009999123100000010000000000000BRAGENBDR001100
012013071902AGRO3       010BRASILAGRO  ON      NM   R$  000000000103800000000010500000000001037000000000104500000000010500000000001010000000000105000009000000000000001900000000000001986100000000000000009999123100000010000000000000BRAGROACNOR7102
012013071996AGRO3F      020BRASILAGRO  ON      NM   R$  000000000104000000000010400000000001040000000000104000000000010400000000000900000000000104000001000000000000000010000000000000010400000000000000009999123100000010000000000000BRAGROACNOR7102
012013071902ALLL3       010ALL AMER LATON      NM   R$  000000000085500000000008770000000000852000000000086400000000008650000000000865000000000086704110000000000001625000000000001405306600000000000000009999123100000010000000000000BRALLLACNOR6118
012013071996ALLL3F      020ALL AMER LATON      NM   R$  000000000086200000000008750000000000852000000000086600000000008700000000000864000000000087000025000000000000000611000000000000529504000000000000009999123100000010000000000000BRALLLACNOR6118
012013071962ALLL3T      030ALL AMER LATON      NM031R$  000000000085800000000008590000000000858000000000085800000000008590000000000000000000000000000002000000000000000300000000000000257538000000000000009999123100000010000000000000BRALLLACNOR6118
012013071962ALLL3T      030ALL AMER LATON      NM060R$  000000000087600000000008770000000000876000000000087600000000008770000000000000000000000000000002000000000000000600000000000000525813000000000000009999123100000010000000000000BRALLLACNOR6118
012013071962ALLL3T      030ALL AMER LATON      NM122R$  000000000089200000000008930000000000892000000000089200000000008930000000000000000000000000000002000000000000058000000000000051785647000000000000009999123100000010000000000000BRALLLACNOR6118
012013071912ALMI11B     010FII TORRE ALCI      MB   R$  000000031300200000003130020000000313000000000031300000000003130000000000312200000000031500000002000000000000000006000000000001878002000000000000009999123100000010000000000000BRALMICTF003203
012013071902ALPA4       010ALPARGATAS  PN      N1   R$  000000000133300000000013440000000001333000000000133800000000013400000000001337000000000134000621000000000000284500000000000380885300000000000000009999123100000010000000000000BRALPAACNPR7202
012013071996ALPA4F      020ALPARGATAS  PN      N1   R$  000000000135000000000013590000000001328000000000133900000000013280000000001328000000000141500017000000000000000330000000000000442095000000000000009999123100000010000000000000BRALPAACNPR7202
012013071902ALSC3       010ALIANSCE    ON      NM   R$  000000000203500000000020500000000002000000000000202300000000020350000000002035000000000204601452000000000000549400000000001111588000000000000000009999123100000010000000000000BRALSCACNOR0104
012013071996ALSC3F      020ALIANSCE    ON      NM   R$  000000000203100000000020380000000002031000000000203300000000020380000000001858000000000211400004000000000000000100000000000000203313000000000000009999123100000010000000000000BRALSCACNOR0104
012013071902ALUP11      010ALUPAR      UNT     N2   R$  000000000179000000000017900000000001722000000000174400000000017400000000001740000000000174800766000000000000535400000000000934014700000000000000009999123100000010000000000000BRALUPCDAM15100
012013071996ALUP11F     020ALUPAR      UNT     N2   R$  000000000178000000000018200000000001700000000000174400000000017500000000001656000000000175000028000000000000000637000000000001111561000000000000009999123100000010000000000000BRALUPCDAM15100
012013071962ALUP11T     030ALUPAR      UNT     N2031R$  000000000175100000000017540000000001751000000000175300000000017540000000000000000000000000000006000000000000002000000000000003507336000000000000009999123100000010000000000000BRALUPCDAM15100
012013071902AMAR3       010LOJAS MARISAON      NM   R$  000000000225300000000022530000000002124000000000215400000000021550000000002151000000000216000789000000000000309900000000000667546100000000000000009999123100000010000000000000BRAMARACNOR4109
012013071996AMAR3F      020LOJAS MARISAON      NM   R$  000000000223400000000022340000000002135000000000214200000000021400000000002126000000000215000008000000000000000159000000000000340636000000000000009999123100000010000000000000BRAMARACNOR4109
012013071962AMAR3T      030LOJAS MARISAON      NM090R$  000000000226100000000022620000000002261000000000226100000000022620000000000000000000000000000002000000000000000500000000000001130802000000000000009999123100000010000000000000BRAMARACNOR4109
012013071902AMBV3       010AMBEV       ON           R$  000000000801400000000080370000000007943000000000798200000000080080000000008000000000000800800970000000000000160200000000001278845200000000000000009999123100000010000000000000BRAMBVACNOR4153
012013071996AMBV3F      020AMBEV       ON           R$  000000000810100000000081010000000007900000000000799100000000079750000000007975000000000799500058000000000000001293000000000010333559000000000000009999123100000010000000000000BRAMBVACNOR4153
012013071962AMBV3T      030AMBEV       ON        017R$  000000000804800000000080490000000008048000000000804800000000080490000000000000000000000000000002000000000000000500000000000004024032000000000000009999123100000010000000000000BRAMBVACNOR4153
012013071902AMBV4       010AMBEV       PN           R$  000000000802500000000080550000000007966000000000800000000000080090000000008009000000000802503791000000000000688700000000005509848000000000000000009999123100000010000000000000BRAMBVACNPR1153
012013071996AMBV4F      020AMBEV       PN           R$  000000000806000000000080890000000007968000000000800500000000080500000000008007000000000805000172000000000000003894000000000031180125000000000000009999123100000010000000000000BRAMBVACNPR1153
012013071978AMBVH86     070AMBV        PN        000R$  000000000004200000000000420000000000021000000000004000000000000240000000000000000000000000000004000000000000002300000000000000092500000000000860002013081900000010000000000000BRAMBVACNPR1153
012013071978AMBVH88     070AMBV        PN        000R$  000000000002900000000000290000000000025000000000002800000000000250000000000000000000000000000005000000000000004000000000000000115500000000000880002013081900000010000000000000BRAMBVACNPR1153
012013071902AORE3       010ALL ORE     ON           R$  000000000014000000000001400000000000140000000000014000000000001400000000000120000000000085000003000000000000000900000000000000126000000000000000009999123100000010000000000000BRAOREACNOR2100
012013071902ARTR3       010ARTERIS     ON      NM   R$  000000000203000000000020400000000002007000000000202400000000020290000000002025000000000202903166000000000002635400000000005336049800000000000000009999123100000010000000000000BRARTRACNOR3101
012013071996ARTR3F      020ARTERIS     ON      NM   R$  000000000203000000000020450000000002000000000000202200000000020250000000002020000000000203000048000000000000001501000000000003035826000000000000009999123100000010000000000000BRARTRACNOR3101
012013071902ARZZ3       010AREZZO CO   ON      NM   R$  000000000356900000000036150000000003526000000000354900000000035700000000003570000000000358900827000000000000144700000000000513681500000000000000009999123100000010000000000000BRARZZACNOR3108
012013071996ARZZ3F      020AREZZO CO   ON      NM   R$  000000000369900000000036990000000003550000000000364600000000035500000000003536000000000355000003000000000000000105000000000000382882000000000000009999123100000010000000000000BRARZZACNOR3108
012013071902AUTM3       010AUTOMETAL   ON      NM   R$  000000000178900000000018010000000001771000000000178900000000017880000000001788000000000180000113000000000000047200000000000084487900000000000000009999123100000010000000000000BRAUTMACNOR8109
012013071902AZEV4       010AZEVEDO     PN           R$  000000000015000000000001500000000000150000000000015000000000001500000000000135000000000014500002000000000000002000000000000000300000000000000000009999123100000010000000000000BRAZEVACNPR7113
012013071996AZEV4F      020AZEVEDO     PN           R$  000000000015000000000001500000000000150000000000015000000000001500000000000100000000000014500001000000000000000016000000000000002400000000000000009999123100000010000000000000BRAZEVACNPR7113
012013071902BAHI3       010BAHEMA      ON           R$  000000000051500000000005150000000000515000000000051500000000005150000000000491000000000052000002000000000000000800000000000000412000000000000000009999123100000010000000000000BRBAHIACNOR1066
012013071902BALM4       010BAUMER      PN           R$  000000000750100000000075010000000007501000000000750100000000075010000000007500000000000000000001000000000000000200000000000001500200000000000000009999123100000010000000000000BRBALMACNPR2043
012013071902BAUH4       010EXCELSIOR   PN           R$  000000000094500000000009450000000000945000000000094500000000009450000000000926000000000100000001000000000000000100000000000000094500000000000000009999123100000010000000000000BRBAUHACNPR3108
012013071902BBAS3       010BRASIL      ON      NM   R$  000000000223600000000022550000000002215000000000223400000000022300000000002230000000000223506705000000000003749300000000008377565600000000000000009999123100000010000000000000BRBBASACNOR3237
012013071996BBAS3F      020BRASIL      ON      NM   R$  000000000223100000000022580000000002211000000000223600000000022540000000002244000000000225500184000000000000005245000000000011729267000000000000009999123100000010000000000000BRBBASACNOR3237
012013071962BBAS3T      030BRASIL      ON      NM017R$  000000000223300000000022340000000002233000000000223300000000022340000000000000000000000000000002000000000000001000000000000002233900000000000000009999123100000010000000000000BRBBASACNOR3237
012013071962BBAS3T      030BRASIL      ON      NM018R$  000000000225400000000022570000000002254000000000225600000000022570000000000000000000000000000008000000000000140000000000000315912608000000000000009999123100000010000000000000BRBBASACNOR3237
012013071962BBAS3T      030BRASIL      ON      NM031R$  000000000224600000000022470000000002246000000000224600000000022470000000000000000000000000000002000000000000400000000000000898511600000000000000009999123100000010000000000000BRBBASACNOR3237
012013071962BBAS3T      030BRASIL      ON      NM122R$  000000000230400000000023050000000002304000000000230400000000023050000000000000000000000000000002000000000000001000000000000002304396000000000000009999123100000010000000000000BRBBASACNOR3237
012013071978BBASB26     070BBAS        ON      NM000R$  000000000008900000000000890000000000089000000000008900000000000890000000000000000000000000000001000000000000001200000000000000106800000000000260002014021700000010000000000000BRBBASACNOR3237
012013071978BBASH20     070BBAS        ON      NM000R$  000000000026000000000002600000000000245000000000025500000000002450000000000220000000000032200003000000000000003000000000000000765000000000000200002013081900000010000000000000BRBBASACNOR3237
012013071978BBASH21     070BBAS  FM    ON      NM000R$  000000000017500000000002080000000000175000000000019700000000002060000000000146000000000026700119000000000000174700000000000034492800000000000207602013081900000010000000000000BRBBASACNOR3236
012013071978BBASH22     070BBAS  FM    ON      NM000R$  000000000012100000000001300000000000105000000000011900000000001280000000000104000000000013500055000000000000099500000000000011853800000000000217602013081900000010000000000000BRBBASACNOR3236
012013071978BBASH23     070BBAS  FM    ON      NM000R$  000000000007000000000000700000000000052000000000006000000000000660000000000052000000000007900058000000000000077400000000000004682600000000000227602013081900000010000000000000BRBBASACNOR3236
012013071978BBASH24     070BBAS  FM    ON      NM000R$  000000000004300000000000490000000000035000000000004400000000000450000000000040000000000005000058000000000000066400000000000002953300000000000231702013081900000010000000000000BRBBASACNOR3233
012013071978BBASH25     070BBAS  FM    ON      NM000R$  000000000001700000000000200000000000015000000000001700000000000170000000000017000000000002100067000000000000022900000000000000412000000000000241702013081900000010000000000000BRBBASACNOR3233
012013071978BBASH26     070BBAS        ON      NM000R$  000000000000300000000000040000000000003000000000000300000000000040000000000002000000000000500003000000000000003000000000000000011500000000000256602013081900000010000000000000BRBBASACNOR3235
012013071978BBASH28     070BBAS        ON      NM000R$  000000000000200000000000020000000000002000000000000200000000000020000000000000000000000000400001000000000000010000000000000000020000000000000276602013081900000010000000000000BRBBASACNOR3235
012013071978BBASI21     070BBAS  FM    ON      NM000R$  000000000021300000000002180000000000191000000000020700000000002150000000000000000000000000000068000000000000100700000000000020904900000000000210002013091600000010000000000000BRBBASACNOR3237
012013071978BBASI22     070BBAS  FM    ON      NM000R$  000000000015500000000001610000000000146000000000015500000000001610000000000124000000000017700022000000000000041900000000000006503600000000000217602013091600000010000000000000BRBBASACNOR3236
012013071978BBASI23     070BBAS  FM    ON      NM000R$  000000000009700000000001020000000000088000000000009200000000001010000000000055000000000000000066000000000000073300000000000006791500000000000227602013091600000010000000000000BRBBASACNOR3236
012013071978BBASI24     070BBAS  FM    ON      NM000R$  000000000006100000000000610000000000050000000000005500000000000570000000000040000000000006000009000000000000013200000000000000733900000000000237602013091600000010000000000000BRBBASACNOR3236
012013071978BBASI25     070BBAS  FM    ON      NM000R$  000000000003100000000000320000000000028000000000003000000000000320000000000011000000000000000014000000000000023500000000000000727800000000000246602013091600000010000000000000BRBBASACNOR3235
012013071978BBASJ22     070BBAS        ON      NM000R$  000000000016100000000001610000000000161000000000016100000000001610000000000000000000000000000001000000000000000500000000000000080500000000000220002013102100000010000000000000BRBBASACNOR3237
012013071978BBASJ23     070BBAS        ON      NM000R$  000000000012900000000001300000000000124000000000012700000000001240000000000000000000000000000057000000000000029500000000000003755600000000000226602013102100000010000000000000BRBBASACNOR3235
012013071978BBASJ25     070BBAS        ON      NM000R$  000000000004400000000000440000000000044000000000004400000000000440000000000000000000000000000001000000000000001000000000000000044000000000000250002013102100000010000000000000BRBBASACNOR3237
012013071982BBAST20     080BBASE FM    ON      NM000R$  000000000001200000000000140000000000012000000000001300000000000120000000000000000000000000000004000000000000003900000000000000050800000000000200002013081900000010000000000000BRBBASACNOR3237
012013071982BBAST21     080BBASE FM    ON      NM000R$  000000000002300000000000240000000000021000000000002200000000000210000000000000000000000002400005000000000000009900000000000000224400000000000207602013081900000010000000000000BRBBASACNOR3236
012013071982BBAST22     080BBASE FM    ON      NM000R$  000000000004100000000000500000000000039000000000004400000000000410000000000038000000000004400031000000000000052200000000000002299500000000000217602013081900000010000000000000BRBBASACNOR3236
012013071982BBAST23     080BBASE FM    ON      NM000R$  000000000008300000000000960000000000078000000000008500000000000780000000000070000000000000000038000000000000085000000000000007304300000000000227602013081900000010000000000000BRBBASACNOR3236
012013071982BBASU21     080BBASE FM    ON      NM000R$  000000000004200000000000460000000000042000000000004500000000000460000000000000000000000000000004000000000000009200000000000000414200000000000210002013091600000010000000000000BRBBASACNOR3237
012013071982BBASU22     080BBASE FM    ON      NM000R$  000000000006100000000000680000000000061000000000006300000000000610000000000000000000000000000011000000000000022600000000000001433600000000000217602013091600000010000000000000BRBBASACNOR3236
012013071982BBASU23     080BBASE FM    ON      NM000R$  000000000010000000000001110000000000100000000000010300000000001000000000000000000000000000000018000000000000036100000000000003749800000000000227602013091600000010000000000000BRBBASACNOR3236
012013071982BBASU24     080BBASE       ON      NM000R$  000000000017000000000001700000000000170000000000017000000000001700000000000000000000000000000001000000000000004000000000000000680000000000000237602013091600000010000000000000BRBBASACNOR3236
012013071982BBASU61     080BBASE       ON      NM000R$  000000000008500000000000870000000000085000000000008600000000000870000000000000000000000000000003000000000000008000000000000000688000000000000222502013091600000010000000000000BRBBASACNOR3237
012013071982BBASV18     080BBASE       ON      NM000R$  000000000001700000000000170000000000017000000000001700000000000170000000000000000000000000000001000000000000003000000000000000051000000000000180002013102100000010000000000000BRBBASACNOR3237
012013071982BBASV19     080BBASE       ON      NM000R$  000000000002600000000000280000000000026000000000002700000000000280000000000000000000000000000003000000000000009000000000000000243000000000000190002013102100000010000000000000BRBBASACNOR3237
012013071982BBASV20     080BBASE       ON      NM000R$  000000000004300000000000430000000000040000000000004200000000000400000000000000000000000012000005000000000000012000000000000000504000000000000200002013102100000010000000000000BRBBASACNOR3237
012013071902BBDC3       010BRADESCO    ON      N1   R$  000000000317400000000032000000000003076000000000311700000000031050000000003105000000000312509668000000000003680900000000011476555100000000000000009999123100000010000000000000BRBBDCACNOR1604
012013071996BBDC3F      020BRADESCO    ON      N1   R$  000000000323000000000032970000000003064000000000312700000000031110000000003125000000000327500066000000000000002176000000000006804647000000000000009999123100000010000000000000BRBBDCACNOR1604
012013071962BBDC3T      030BRADESCO    ON      N1060R$  000000000315400000000031590000000003154000000000315600000000031590000000000000000000000000000006000000000000014800000000000046723282000000000000009999123100000010000000000000BRBBDCACNOR1604
012013071902BBDC4       010BRADESCO    PN      N1   R$  000000000280100000000028410000000002743000000000278100000000027770000000002777000000000278521025000000000008180700000000022751668400000000000000009999123100000010000000000000BRBBDCACNPR8604
012013071996BBDC4F      020BRADESCO    PN      N1   R$  000000000283000000000028390000000002745000000000278400000000028010000000002801000000000281800265000000000000006153000000000017132811000000000000009999123100000010000000000000BRBBDCACNPR8604
012013071962BBDC4T      030BRADESCO    PN      N1017R$  000000000280600000000028070000000002806000000000280600000000028070000000000000000000000000000002000000000000001000000000000002806180000000000000009999123100000010000000000000BRBBDCACNPR8604
012013071962BBDC4T      030BRADESCO    PN      N1031R$  000000000282500000000028260000000002769000000000280800000000028030000000000000000000000000000010000000000000003100000000000008707875000000000000009999123100000010000000000000BRBBDCACNPR8604
012013071962BBDC4T      030BRADESCO    PN      N1060R$  000000000282100000000028220000000002816000000000281800000000028170000000000000000000000000000010000000000000150200000000000423338431000000000000009999123100000010000000000000BRBBDCACNPR8604
012013071962BBDC4T      030BRADESCO    PN      N1090R$  000000000285000000000028510000000002850000000000285000000000028510000000000000000000000000000004000000000000005000000000000014250308000000000000009999123100000010000000000000BRBBDCACNPR8604
012013071962BBDC4T      030BRADESCO    PN      N1122R$  000000000286100000000028620000000002861000000000286100000000028620000000000000000000000000000002000000000000001000000000000002861514000000000000009999123100000010000000000000BRBBDCACNPR8604
012013071978BBDCB87     070BBDC        ON      N1000R$  000000000011600000000001160000000000116000000000011600000000001160000000000000000000000000000002000000000000300000000000000034800000000000000370002014021700000010000000000000BRBBDCACNOR1604
012013071978BBDCC6      070BBDC        PN      N1000R$  000000000011500000000001320000000000114000000000012800000000001320000000000000000000000000000005000000000000006300000000000000809100000000000324702014031700000010000000000000BRBBDCACNPR8598
012013071978BBDCH25     070BBDC        PN      N1000R$  000000000033900000000003390000000000333000000000033700000000003330000000000000000000000000000032000000000000007100000000000002394500000000000248002013081900000010000000000000BRBBDCACNPR8602
012013071978BBDCH26     070BBDC        PN      N1000R$  000000000027300000000002730000000000232000000000024500000000002410000000000223000000000028800004000000000000007300000000000001793800000000000258002013081900000010000000000000BRBBDCACNPR8602
012013071978BBDCH27     070BBDC        PN      N1000R$  000000000020000000000002010000000000154000000000017300000000001820000000000000000000000019900117000000000000114600000000000019901900000000000268002013081900000010000000000000BRBBDCACNPR8602
012013071978BBDCH28     070BBDC        PN      N1000R$  000000000012400000000001270000000000094000000000010700000000001190000000000104000000000012700270000000000000946800000000000102219200000000000278002013081900000010000000000000BRBBDCACNPR8602
012013071978BBDCH29     070BBDC        PN      N1000R$  000000000008200000000000820000000000053000000000006100000000000700000000000055000000000007200197000000000000225000000000000013841600000000000288002013081900000010000000000000BRBBDCACNPR8602
012013071978BBDCH30     070BBDC        PN      N1000R$  000000000004200000000000420000000000030000000000003300000000000370000000000027000000000004500046000000000000090300000000000003039500000000000298002013081900000010000000000000BRBBDCACNPR8602
012013071978BBDCH31     070BBDC        PN      N1000R$  000000000001800000000000190000000000014000000000001700000000000190000000000014000000000004900035000000000000031600000000000000551400000000000307602013081900000010000000000000BRBBDCACNPR8600
012013071978BBDCH32     070BBDC        PN      N1000R$  000000000000700000000000070000000000007000000000000700000000000070000000000001000000000001300002000000000000010000000000000000070000000000000318002013081900000010000000000000BRBBDCACNPR8602
012013071978BBDCH34     070BBDC        PN      N1000R$  000000000002600000000000260000000000021000000000002200000000000210000000000016000000000002800003000000000000002100000000000000047100000000000305502013081900000010000000000000BRBBDCACNPR8595
012013071978BBDCH91     070BBDC        ON      N1000R$  000000000013700000000001370000000000137000000000013700000000001370000000000000000000000000000002000000000000007000000000000000959000000000000410002014081800000010000000000000BRBBDCACNOR1604
012013071978BBDCI27     070BBDC        PN      N1000R$  000000000023300000000002330000000000196000000000020800000000002120000000000205000000000000000051000000000000104700000000000021824200000000000268002013091600000010000000000000BRBBDCACNPR8602
012013071978BBDCI28     070BBDC        PN      N1000R$  000000000016100000000001670000000000135000000000014600000000001510000000000000000000000019900049000000000000070600000000000010319300000000000278002013091600000010000000000000BRBBDCACNPR8602
012013071978BBDCI29     070BBDC        PN      N1000R$  000000000010900000000001090000000000090000000000009800000000001030000000000012000000000013900151000000000000140900000000000013816000000000000288002013091600000010000000000000BRBBDCACNPR8602
012013071978BBDCI30     070BBDC        PN      N1000R$  000000000006800000000000680000000000055000000000006000000000000610000000000055000000000007800039000000000000076000000000000004596000000000000298002013091600000010000000000000BRBBDCACNPR8602
012013071978BBDCI31     070BBDC        PN      N1000R$  000000000016300000000001630000000000163000000000016300000000001630000000000000000000000000000001000000000000002100000000000000342300000000000273102013091600000010000000000000BRBBDCACNPR8590
012013071978BBDCI32     070BBDC        PN      N1000R$  000000000002100000000000210000000000021000000000002100000000000210000000000016000000000003800001000000000000001000000000000000021000000000000318002013091600000010000000000000BRBBDCACNPR8602
012013071978BBDCI75     070BBDCE       PN      N1000R$  000000000011300000000001130000000000113000000000011300000000001130000000000000000000000000000002000000000000004000000000000000452000000000000282502013091600000010000000000000BRBBDCACNPR8604
012013071978BBDCI81     070BBDC        PN      N1000R$  000000000003800000000000380000000000032000000000003500000000000370000000000000000000000000000004000000000000007200000000000000255300000000000308002013091600000010000000000000BRBBDCACNPR8602
012013071978BBDCJ25     070BBDC        PN      N1000R$  000000000037500000000003750000000000375000000000037500000000003750000000000000000000000000000001000000000000003000000000000001125000000000000249802013102100000010000000000000BRBBDCACNPR8603
012013071978BBDCJ29     070BBDC        PN      N1000R$  000000000013600000000001360000000000135000000000013500000000001350000000000000000000000000000003000000000000004000000000000000542400000000000288002013102100000010000000000000BRBBDCACNPR8602
012013071978BBDCK32     070BBDC        PN      N1000R$  000000000005500000000000580000000000055000000000005700000000000580000000000000000000000000000005000000000000053200000000000003050600000000000317802013111800000010000000000000BRBBDCACNPR8601
012013071982BBDCN79     080BBDCE       ON      N1000R$  000000000008400000000000840000000000084000000000008400000000000840000000000000000000000000000002000000000000300000000000000025200000000000000290002014021700000010000000000000BRBBDCACNOR1604
012013071982BBDCN82     080BBDCE       ON      N1000R$  000000000020000000000002000000000000200000000000020000000000002000000000000000000000000000000002000000000000300000000000000060000000000000000320002014021700000010000000000000BRBBDCACNOR1604
012013071982BBDCT24     080BBDCE       PN      N1000R$  000000000001200000000000120000000000012000000000001200000000000120000000000000000000000000000001000000000000010000000000000000120000000000000238002013081900000010000000000000BRBBDCACNPR8602
012013071982BBDCT25     080BBDCE       PN      N1000R$  000000000002100000000000230000000000021000000000002100000000000230000000000000000000000002200003000000000000003100000000000000065300000000000248002013081900000010000000000000BRBBDCACNPR8602
012013071982BBDCT26     080BBDCE       PN      N1000R$  000000000003600000000000390000000000031000000000003500000000000310000000000000000000000000000040000000000000074100000000000002630000000000000258002013081900000010000000000000BRBBDCACNPR8602
012013071982BBDCT27     080BBDCE       PN      N1000R$  000000000005000000000000630000000000050000000000005700000000000580000000000058000000000007000034000000000000092200000000000005343300000000000268002013081900000010000000000000BRBBDCACNPR8602
012013071982BBDCT28     080BBDCE       PN      N1000R$  000000000008200000000001110000000000082000000000009700000000000900000000000000000000000012100063000000000000061700000000000005991100000000000278002013081900000010000000000000BRBBDCACNPR8602
012013071982BBDCT29     080BBDCE       PN      N1000R$  000000000012900000000001690000000000129000000000015300000000001440000000000000000000000000000079000000000000156200000000000023988200000000000288002013081900000010000000000000BRBBDCACNPR8602
012013071982BBDCT30     080BBDCE       PN      N1000R$  000000000019700000000001970000000000197000000000019700000000001970000000000000000000000000000001000000000000000100000000000000019700000000000298002013081900000010000000000000BRBBDCACNPR8602
012013071982BBDCT34     080BBDCE       PN      N1000R$  000000000027600000000002800000000000276000000000027800000000002770000000000000000000000000000004000000000000008000000000000002224000000000000305502013081900000010000000000000BRBBDCACNPR8595
012013071982BBDCT69     080BBDCE       ON      N1000R$  000000000004700000000000470000000000047000000000004700000000000470000000000000000000000000000002000000000002000000000000000094000000000000000295002013081900000010000000000000BRBBDCACNOR1604
012013071982BBDCT71     080BBDCE       ON      N1000R$  000000000010400000000001040000000000104000000000010400000000001040000000000000000000000000000002000000000002000000000000000208000000000000000312502013081900000010000000000000BRBBDCACNOR1604
012013071982BBDCT79     080BBDCE       ON      N1000R$  000000000009700000000000970000000000097000000000009700000000000970000000000000000000000000000002000000000000007000000000000000679000000000000290002014081800000010000000000000BRBBDCACNOR1604
012013071982BBDCT92     080BBDCE       ON      N1000R$  000000000023400000000002340000000000234000000000023400000000002340000000000000000000000000000001000000000000007000000000000001638000000000000320002014081800000010000000000000BRBBDCACNOR1604
012013071982BBDCU24     080BBDCE       PN      N1000R$  000000000002200000000000220000000000022000000000002200000000000220000000000000000000000000000001000000000000000200000000000000004400000000000240002013091600000010000000000000BRBBDCACNPR8604
012013071982BBDCU25     080BBDCE       PN      N1000R$  000000000003800000000000400000000000038000000000003900000000000400000000000000000000000000000002000000000000000200000000000000007800000000000250002013091600000010000000000000BRBBDCACNPR8604
012013071982BBDCU26     080BBDCE       PN      N1000R$  000000000005200000000000660000000000052000000000006500000000000660000000000000000000000000000002000000000000002100000000000000137200000000000260002013091600000010000000000000BRBBDCACNPR8604
012013071982BBDCU27     080BBDCE       PN      N1000R$  000000000008100000000000860000000000080000000000008300000000000820000000000000000000000000000016000000000000032000000000000002664800000000000268002013091600000010000000000000BRBBDCACNPR8602
012013071982BBDCU28     080BBDCE       PN      N1000R$  000000000010200000000001200000000000102000000000011600000000001200000000000000000000000000000003000000000000005000000000000000580000000000000278002013091600000010000000000000BRBBDCACNPR8602
012013071982BBDCU29     080BBDCE       PN      N1000R$  000000000014900000000001800000000000149000000000016600000000001620000000000000000000000000000020000000000000036700000000000006099100000000000288002013091600000010000000000000BRBBDCACNPR8602
012013071982BBDCU30     080BBDCE       PN      N1000R$  000000000020700000000002350000000000207000000000023200000000002330000000000000000000000000000003000000000000003100000000000000721700000000000298002013091600000010000000000000BRBBDCACNPR8602
012013071982BBDCU33     080BBDCE       PN      N1000R$  000000000022200000000002310000000000222000000000022800000000002290000000000000000000000000000004000000000000006600000000000001509800000000000297402013091600000010000000000000BRBBDCACNPR8598
012013071982BBDCU75     080BBDCE       PN      N1000R$  000000000014100000000001410000000000141000000000014100000000001410000000000000000000000000000001000000000000001800000000000000253800000000000282502013091600000010000000000000BRBBDCACNPR8604
012013071982BBDCV29     080BBDCE       PN      N1000R$  000000000020000000000002000000000000189000000000019100000000001900000000000000000000000000000005000000000000008800000000000001684900000000000288002013102100000010000000000000BRBBDCACNPR8602
012013071982BBDCV30     080BBDCE       PN      N1000R$  000000000024700000000002480000000000247000000000024700000000002480000000000000000000000000000007000000000000009900000000000002451300000000000298002013102100000010000000000000BRBBDCACNPR8602
012013071982BBDCV31     080BBDCE       PN      N1000R$  000000000031500000000003150000000000315000000000031500000000003150000000000000000000000000000001000000000000002000000000000000630000000000000308002013102100000010000000000000BRBBDCACNPR8602
012013071982BBDCW8      080BBDCE       PN      N1000R$  000000000005900000000000590000000000059000000000005900000000000590000000000000000000000000000003000000000000005000000000000000295000000000000246202013111800000010000000000000BRBBDCACNPR8592
012013071912BBFI11B     010FII BB PROGRCI      MB   R$  000000042380000000004239990000000423800000000042383300000004239990000000422500000000042399900002000000000000000012000000000005085998000000000000009999123100000010000000000000BRBBFICTF006196
012013071912BBPO11      010FII BB PRGIICI           R$  000000001089100000000110100000000010840000000001092000000000110100000000011010000000001101300354000000000000020731000000000226401196000000000000009999123100000010000000000000BRBBPOCTF003108
012013071912BBRC11      010FII BB CORP CI           R$  000000000950200000000095050000000009501000000000950300000000095010000000009500000000000960100004000000000000000140000000000001330420000000000000009999123100000010000000000000BRBBRCCTF004122
012013071902BBRK3       010BR BROKERS  ON      NM   R$  000000000057200000000005750000000000558000000000056600000000005700000000000565000000000057002900000000000001109500000000000628167800000000000000009999123100000010000000000000BRBBRKACNOR4108
012013071996BBRK3F      020BR BROKERS  ON      NM   R$  000000000056800000000007500000000000555000000000057500000000007500000000000546000000000075000006000000000000000214000000000000123130000000000000009999123100000010000000000000BRBBRKACNOR4108
012013071902BBSE3       010BBSEGURIDADEON      NM   R$  000000000179600000000018040000000001782000000000179300000000017950000000001789000000000179503871000000000001694200000000003038187200000000000000009999123100000010000000000000BRBBSEACNOR5100
012013071996BBSE3F      020BBSEGURIDADEON      NM   R$  000000000178500000000018030000000001776000000000179200000000017760000000001775000000000177600348000000000000010468000000000018768626000000000000009999123100000010000000000000BRBBSEACNOR5100
012013071962BBSE3T      030BBSEGURIDADEON      NM017R$  000000000180400000000018050000000001804000000000180400000000018050000000000000000000000000000002000000000000001500000000000002707249000000000000009999123100000010000000000000BRBBSEACNOR5100
012013071978BBSEI19     070BBSE        ON      NM000R$  000000000003500000000000400000000000035000000000003800000000000400000000000000000000000000000005000000000000545000000000000020758000000000000190002013091600000010000000000000BRBBSEACNOR5100
012013071978BBSEI49     070BBSE        ON      NM000R$  000000000002000000000000200000000000020000000000002000000000000200000000000000000000000000000003000000000000214000000000000004280000000000000195002013091600000010000000000000BRBBSEACNOR5100
012013071982BBSEU17     080BBSEE       ON      NM000R$  000000000002600000000000270000000000025000000000002500000000000250000000000000000000000000000007000000000000759000000000000019465000000000000170002013091600000010000000000000BRBBSEACNOR5100
012013071982BBSEU18     080BBSEE       ON      NM000R$  000000000005700000000000700000000000054000000000006200000000000700000000000000000000000000000008000000000000773000000000000048280000000000000180002013091600000010000000000000BRBBSEACNOR5100
012013071902BBTG11      010BTG PACTUAL UNT          R$  000000000286400000000029330000000002818000000000285700000000029000000000002889000000000290001218000000000000626400000000001790114100000000000000009999123100000010000000000000BRBBTGUNT007104
012013071996BBTG11F     020BTG PACTUAL UNT          R$  000000000285900000000028620000000002855000000000285900000000028550000000002882000000000290500004000000000000000194000000000000554768000000000000009999123100000010000000000000BRBBTGUNT007104
012013071912BBVJ11      010FII C JARDIMCI           R$  000000000806100000000080610000000007805000000000800600000000080610000000007860000000000806100037000000000000002115000000000016933956000000000000009999123100000010000000000000BRBBVJCTF001131
012013071912BCFF11B     010FII BC FFII CI      MB   R$  000000000971000000000097960000000009705000000000972100000000097900000000009721000000000979000048000000000000001173000000000011403745000000000000009999123100000010000000000000BRBCFFCTF000140
012013071902BEEF3       010MINERVA     ON      NM   R$  000000000095500000000009550000000000933000000000094000000000009420000000000942000000000094402608000000000000749200000000000704592800000000000000009999123100000010000000000000BRBEEFACNOR6104
012013071902BEES3       010BANESTES    ON  ES       R$  000000000004800000000000480000000000048000000000004800000000000480000000000047000000000004800003000000000000001300000000000000062400000000000000009999123100000010000000000000BRBEESACNOR9242
012013071902BEES4       010BANESTES    PN  ES       R$  000000000004500000000000450000000000044000000000004400000000000440000000000043000000000004500002000000000000000600000000000000026700000000000000009999123100000010000000000000BRBEESACNPR6167
012013071902BEMA3       010BEMATECH    ON      NM   R$  000000000070300000000007100000000000694000000000070200000000007060000000000700000000000070700066000000000000027100000000000019043800000000000000009999123100000010000000000000BRBEMAACNOR0113
012013071902BGIP4       010BANESE      PN           R$  000000000495000000000050980000000004950000000000497100000000050980000000004830000000000509800007000000000000000700000000000003480300000000000000009999123100000010000000000000BRBGIPACNPR8178
012013071902BHGR3       010BHG         ON      NM   R$  000000000168300000000017050000000001650000000000167900000000016500000000001650000000000169000047000000000000068700000000000115392500000000000000009999123100000010000000000000BRBHGRACNOR9101
012013071996BHGR3F      020BHG         ON      NM   R$  000000000169300000000016930000000001693000000000169300000000016930000000001552000000000172700001000000000000000006000000000000010158000000000000009999123100000010000000000000BRBHGRACNOR9101
012013071902BICB4       010BICBANCO    PN      N1   R$  000000000040000000000004000000000000386000000000039300000000003860000000000385000000000038800257000000000000076600000000000030164900000000000000009999123100000010000000000000BRBICBACNPR7131
012013071996BICB4F      020BICBANCO    PN      N1   R$  000000000039700000000003970000000000397000000000039700000000003970000000000395000000000039700005000000000000000014000000000000005558000000000000009999123100000010000000000000BRBICBACNPR7131
012013071996BIOM4F      020BIOMM       PN           R$  000000000085000000000008500000000000850000000000085000000000008500000000000790000000000085000001000000000000000050000000000000042500000000000000009999123100000010000000000000BRBIOMACNPR9101
012013071902BISA3       010BROOKFIELD  ON      NM   R$  000000000017200000000001820000000000170000000000017500000000001710000000000171000000000017305778000000000006211800000000001087305600000000000000009999123100000010000000000000BRBISAACNOR8109
012013071996BISA3F      020BROOKFIELD  ON      NM   R$  000000000017500000000001800000000000170000000000017500000000001800000000000171000000000017800026000000000000000803000000000000141043000000000000009999123100000010000000000000BRBISAACNOR8109
012013071962BISA3T      030BROOKFIELD  ON      NM031R$  000000000017400000000001750000000000174000000000017400000000001750000000000000000000000000000002000000000000004900000000000000853295000000000000009999123100000010000000000000BRBISAACNOR8109
012013071962BISA3T      030BROOKFIELD  ON      NM090R$  000000000018000000000001810000000000180000000000018000000000001810000000000000000000000000000002000000000000004000000000000000721594000000000000009999123100000010000000000000BRBISAACNOR8109
012013071902BMEB4       010MERC BRASIL PN           R$  000000000113300000000011330000000001133000000000113300000000011330000000001100000000000113400006000000000000015200000000000017221600000000000000009999123100000010000000000000BRBMEBACNPR5190
012013071902BMIN4       010MERC INVEST PN           R$  000000000002300000000000230000000000023000000000002300000000000230000000000022000000000002400001000000000000001000000000000000023000000000000000009999123100000010000000000000BRBMINACNPR1159
012013071912BMLC11B     010FII BMBRC LCCI      MB   R$  000000001165000000000117200000000011650000000001171400000000117200000000011660000000001172000004000000000000000486000000000005693400000000000000009999123100000010000000000000BRBMLCCTF004117
012013071996BMTO3F      020BRASMOTOR   ON           R$  000000000009700000000000970000000000097000000000009700000000000970000000000050000000000009700001000000000000000003000000000000000291000000000000009999123100000010000000000000BRBMTOACNOR9180
012013071996BMTO4F      020BRASMOTOR   PN           R$  000000000008900000000000890000000000089000000000008900000000000890000000000085000000000008900001000000000000000002000000000000000178000000000000009999123100000010000000000000BRBMTOACNPR6065
012013071902BOBR4       010BOMBRIL     PN           R$  000000000065200000000006950000000000652000000000066900000000006610000000000660000000000069500003000000000000000300000000000000200800000000000000009999123100000010000000000000BRBOBRACNPR3127
012013071902BOEI11B     010BOEING      DRN     MB   R$  000000002455100000000245510000000024551000000002455100000000245510000000023368000000002455100001000000000000000100000000000002455100000000000000009999123100000010000000000000BRBOEIBDR003105
012013071914BOVA11      010ISHARES BOVACI           R$  000000000464900000000046650000000004600000000000464400000000046540000000004654000000000469201437000000000000976110000000004533533060000000000000009999123100000010000000000000BRBOVACTF003101
012013071996BOVA11F     020ISHARES BOVACI           R$  000000000475800000000047580000000004540000000000462700000000046300000000004541000000000475800011000000000000000026000000000000120317000000000000009999123100000010000000000000BRBOVACTF003101
012013071978BOVAH48     070BOVA        CI        000R$  000000000009300000000000930000000000093000000000009300000000000930000000000000000000000000000001000000000000000050000000000000004650000000000480002013081900000010000000000000BRBOVACTF003101
012013071912BPFF11      010FII ABSOLUTOCI           R$  000000000892000000000091950000000008920000000000899700000000091000000000009000000000000910000005000000000000000299000000000002690175000000000000009999123100000010000000000000BRBPFFCTF002103
012013071902BPHA3       010BR PHARMA   ON      NM   R$  000000000099500000000010160000000000960000000000098100000000009650000000000965000000000097002696000000000004458100000000004376300700000000000000009999123100000010000000000000BRBPHAACNOR6102
012013071996BPHA3F      020BR PHARMA   ON      NM   R$  000000000099600000000010090000000000965000000000098800000000009700000000000956000000000100900011000000000000000292000000000000288518000000000000009999123100000010000000000000BRBPHAACNOR6102
012013071962BPHA3T      030BR PHARMA   ON      NM028R$  000000000098500000000009860000000000975000000000098100000000009760000000000000000000000000000004000000000000005000000000000004909280000000000000009999123100000010000000000000BRBPHAACNOR6102
012013071902BPNM4       010PANAMERICANOPN      N1   R$  000000000053200000000005440000000000528000000000053300000000005440000000000540000000000054400097000000000000986400000000000526085700000000000000009999123100000010000000000000BRBPNMACNPR6111
012013071996BPNM4F      020PANAMERICANOPN      N1   R$  000000000053200000000005320000000000532000000000053200000000005320000000000507000000000053400004000000000000000128000000000000068096000000000000009999123100000010000000000000BRBPNMACNPR6111
012013071962BPNM4T      030PANAMERICANOPN      N1090R$  000000000054400000000005450000000000544000000000054400000000005450000000000000000000000000000004000000000000830000000000000451635951000000000000009999123100000010000000000000BRBPNMACNPR6111
012013071902BRAP3       010BRADESPAR   ON      N1   R$  000000000183400000000018350000000001800000000000183300000000018080000000001788000000000180800037000000000000095800000000000175619000000000000000009999123100000010000000000000BRBRAPACNOR5124
012013071996BRAP3F      020BRADESPAR   ON      N1   R$  000000000185000000000018880000000001834000000000184500000000018860000000001803000000000188500006000000000000000101000000000000186380000000000000009999123100000010000000000000BRBRAPACNOR5124
012013071902BRAP4       010BRADESPAR   PN      N1   R$  000000000219200000000022120000000002142000000000217200000000021650000000002154000000000216503010000000000001578600000000003429719700000000000000009999123100000010000000000000BRBRAPACNPR2124
012013071996BRAP4F      020BRADESPAR   PN      N1   R$  000000000223000000000022310000000002146000000000218000000000021560000000002144000000000223900047000000000000001186000000000002586625000000000000009999123100000010000000000000BRBRAPACNPR2124
012013071962BRAP4T      030BRADESPAR   PN      N1031R$  000000000217800000000021790000000002178000000000217800000000021790000000000000000000000000000002000000000000000500000000000001089428000000000000009999123100000010000000000000BRBRAPACNPR2124
012013071912BRCR11      010FII BC FUND CI           R$  000000001360000000000136300000000013403000000001352500000000135200000000013460000000001352000793000000000000015802000000000213736811000000000000009999123100000010000000000000BRBRCRCTF000131
012013071902BRFS3       010BRF SA      ON      NM   R$  000000000477100000000048300000000004764000000000480000000000048300000000004829000000000483004846000000000001054500000000005063041500000000000000009999123100000010000000000000BRBRFSACNOR8110
012013071996BRFS3F      020BRF SA      ON      NM   R$  000000000479800000000048400000000004700000000000479600000000048400000000004817000000000484000104000000000000003223000000000015459095000000000000009999123100000010000000000000BRBRFSACNOR8110
012013071962BRFS3T      030BRF SA      ON      NM241R$  000000000511100000000051120000000005111000000000511100000000051120000000000000000000000000000002000000000000001500000000000007667783000000000000009999123100000010000000000000BRBRFSACNOR8110
012013071978BRFSI51     070BRFS        ON      NM000R$  000000000013100000000001330000000000128000000000012900000000001330000000000000000000000000000004000000000000125300000000000016164200000000000510002013091600000010000000000000BRBRFSACNOR8110
012013071982BRFSU44     080BRFSE       ON      NM000R$  000000000008000000000000800000000000080000000000008000000000000800000000000000000000000000000001000000000000125000000000000010000000000000000440002013091600000010000000000000BRBRFSACNOR8110
012013071982BRFSU47     080BRFSE       ON      NM000R$  000000000021700000000002170000000000211000000000021200000000002120000000000000000000000000000003000000000000137500000000000029183700000000000470002013091600000010000000000000BRBRFSACNOR8110
012013071902BRGE3       010ALFA CONSORCON           R$  000000000033700000000003370000000000337000000000033700000000003370000000000337000000000039900002000000000000001000000000000000337000000000000000009999123100000010000000000000BRBRGEACNOR6196
012013071902BRIN3       010BR INSURANCEON      NM   R$  000000000209800000000021140000000002083000000000209000000000020850000000002084000000000208500571000000000000174600000000000365023900000000000000009999123100000010000000000000BRBRINACNOR3105
012013071996BRIN3F      020BR INSURANCEON      NM   R$  000000000209600000000021100000000002080000000000209600000000020930000000002080000000000209300010000000000000000156000000000000327000000000000000009999123100000010000000000000BRBRINACNOR3105
012013071996BRIV3F      020ALFA INVEST ON           R$  000000000064400000000006440000000000508000000000063400000000005080000000000508000000000070000002000000000000000090000000000000057144000000000000009999123100000010000000000000BRBRIVACNOR6196
012013071902BRIV4       010ALFA INVEST PN           R$  000000000060000000000006000000000000600000000000060000000000006000000000000575000000000060000001000000000000000100000000000000060000000000000000009999123100000010000000000000BRBRIVACNPR3196
012013071902BRKM3       010BRASKEM     ON      N1   R$  000000000115600000000011720000000001140000000000115800000000011650000000001165000000000118000024000000000000009300000000000010773700000000000000009999123100000010000000000000BRBRKMACNOR1110
012013071996BRKM3F      020BRASKEM     ON      N1   R$  000000000118000000000011800000000001180000000000118000000000011800000000001117000000000117500001000000000000000010000000000000011800000000000000009999123100000010000000000000BRBRKMACNOR1110
012013071902BRKM5       010BRASKEM     PNA     N1   R$  000000000167000000000017100000000001668000000000169400000000017000000000001700000000000170502527000000000000560900000000000950195900000000000000009999123100000010000000000000BRBRKMACNPA4110
012013071996BRKM5F      020BRASKEM     PNA     N1   R$  000000000169500000000017090000000001662000000000169400000000017090000000001686000000000170900016000000000000000458000000000000776204000000000000009999123100000010000000000000BRBRKMACNPA4110
012013071962BRKM5T      030BRASKEM     PNA     N1031R$  000000000170700000000017080000000001707000000000170700000000017080000000000000000000000000000002000000000000001200000000000002049433000000000000009999123100000010000000000000BRBRKMACNPA4110
012013071996BRKM6F      020BRASKEM     PNB     N1   R$  000000000100800000000010080000000001008000000000100800000000010080000000001008000000000000000001000000000000000002000000000000002016000000000000009999123100000010000000000000BRBRKMACNPB2108
012013071902BRML3       010BR MALLS PARON      NM   R$  000000000199900000000020500000000001999000000000202300000000020200000000002020000000000202308764000000000002354700000000004763738900000000000000009999123100000010000000000000BRBRMLACNOR9105
012013071996BRML3F      020BR MALLS PARON      NM   R$  000000000200000000000020530000000002000000000000202400000000020530000000002023000000000205300071000000000000002470000000000005000830000000000000009999123100000010000000000000BRBRMLACNOR9105
012013071962BRML3T      030BR MALLS PARON      NM031R$  000000000205200000000020530000000002052000000000205200000000020530000000000000000000000000000002000000000000002000000000000004104099000000000000009999123100000010000000000000BRBRMLACNOR9105
012013071902BRPR3       010BR PROPERT  ON      NM   R$  000000000194700000000019690000000001928000000000195900000000019600000000001960000000000196306547000000000001615000000000003164625100000000000000009999123100000010000000000000BRBRPRACNOR9112
012013071996BRPR3F      020BR PROPERT  ON      NM   R$  000000000197400000000019970000000001921000000000195900000000019670000000001967000000000198000057000000000000002004000000000003926220000000000000009999123100000010000000000000BRBRPRACNOR9112
012013071962BRPR3T      030BR PROPERT  ON      NM122R$  000000000201400000000020150000000002014000000000201400000000020150000000000000000000000000000002000000000000001000000000000002014712000000000000009999123100000010000000000000BRBRPRACNOR9112
012013071902BRSR6       010BANRISUL    PNB     N1   R$  000000000141200000000014670000000001400000000000143600000000014450000000001445000000000144901533000000000000932600000000001340118800000000000000009999123100000010000000000000BRBRSRACNPB4133
012013071996BRSR6F      020BANRISUL    PNB     N1   R$  000000000140100000000014580000000001401000000000142900000000014580000000001455000000000147500024000000000000000773000000000001107578000000000000009999123100000010000000000000BRBRSRACNPB4133
012013071902BSEV3       010BIOSEV      ON      NM   R$  000000000123000000000012300000000001230000000000123000000000012300000000001228000000000129000004000000000000006600000000000008118000000000000000009999123100000010000000000000BRBSEVACNOR3100
012013071982BSEVS99     080BSEVE       ON      NM000R$  000000000031900000000003190000000000319000000000031900000000003190000000000000000000000031900002000000000000006516000000000002078604000000000165702014072100000010000000000000BRBSEVACNOR3100
012013071902BTOW3       010B2W DIGITAL ON      NM   R$  000000000093100000000010830000000000931000000000101100000000010790000000001077000000000107901808000000000000868600000000000878985600000000000000009999123100000010000000000000BRBTOWACNOR8105
012013071996BTOW3F      020B2W DIGITAL ON      NM   R$  000000000093000000000010670000000000930000000000101900000000010670000000001067000000000115000039000000000000000895000000000000913406000000000000009999123100000010000000000000BRBTOWACNOR8105
012013071902BTTL3       010BATTISTELLA ON           R$  000000000008000000000000840000000000080000000000008000000000000840000000000072000000000008400008000000000000023500000000000001881200000000000000009999123100000010000000000000BRBTTLACNOR0105
012013071902BTTL4       010BATTISTELLA PN           R$  000000000010000000000001020000000000100000000000010000000000001000000000000099000000000010200009000000000000079000000000000007927600000000000000009999123100000010000000000000BRBTTLACNPR7105
012013071902BVMF3       010BMFBOVESPA  ON      NM   R$  000000000125000000000012560000000001216000000000123100000000012300000000001230000000000123314616000000000006441700000000007934913300000000000000009999123100000010000000000000BRBVMFACNOR3125
012013071996BVMF3F      020BMFBOVESPA  ON      NM   R$  000000000126000000000012950000000001218000000000124000000000012400000000001238000000000124100100000000000000002911000000000003609730000000000000009999123100000010000000000000BRBVMFACNOR3125
012013071962BVMF3T      030BMFBOVESPA  ON      NM017R$  000000000122800000000012290000000001228000000000122800000000012290000000000000000000000000000002000000000000000400000000000000491460000000000000009999123100000010000000000000BRBVMFACNOR3125
012013071962BVMF3T      030BMFBOVESPA  ON      NM031R$  000000000123700000000012380000000001237000000000123700000000012380000000000000000000000000000002000000000000040000000000000049514880000000000000009999123100000010000000000000BRBVMFACNOR3125
012013071962BVMF3T      030BMFBOVESPA  ON      NM034R$  000000000123200000000012330000000001232000000000123200000000012330000000000000000000000000000002000000000000001000000000000001232111000000000000009999123100000010000000000000BRBVMFACNOR3125
012013071978BVMFH1      070BVMFE       ON      NM000R$  000000000001500000000000150000000000015000000000001500000000000150000000000004000000000000000001000000000000003000000000000000045000000000000132502013081900000010000000000000BRBVMFACNOR3125
012013071978BVMFH11     070BVMF        ON      NM000R$  000000000016700000000001670000000000143000000000015600000000001450000000000132000000000021800009000000000000005800000000000000910300000000000110002013081900000010000000000000BRBVMFACNOR3125
012013071978BVMFH12     070BVMF  FM    ON      NM000R$  000000000008800000000000920000000000067000000000007900000000000800000000000077000000000008100633000000000000738000000000000058863600000000000120002013081900000010000000000000BRBVMFACNOR3125
012013071978BVMFH13     070BVMF  FM    ON      NM000R$  000000000003600000000000370000000000025000000000003000000000000300000000000028000000000003000433000000000000712800000000000021794400000000000128902013081900000010000000000000BRBVMFACNOR3124
012013071978BVMFH14     070BVMF  FM    ON      NM000R$  000000000000700000000000070000000000006000000000000600000000000070000000000006000000000000700016000000000000044300000000000000274000000000000138902013081900000010000000000000BRBVMFACNOR3124
012013071978BVMFH40     070BVMF        ON      NM000R$  000000000018800000000001900000000000188000000000018800000000001900000000000000000000000000000003000000000000004500000000000000849600000000000105002013081900000010000000000000BRBVMFACNOR3125
012013071978BVMFH42     070BVMF  FM    ON      NM000R$  000000000005400000000000570000000000041000000000004800000000000500000000000038000000000006100047000000000000103800000000000005080200000000000125002013081900000010000000000000BRBVMFACNOR3125
012013071978BVMFH43     070BVMF  FM    ON      NM000R$  000000000001000000000000120000000000010000000000001000000000000120000000000010000000000001300028000000000000045500000000000000484100000000000135002013081900000010000000000000BRBVMFACNOR3125
012013071978BVMFI10     070BVMF        ON      NM000R$  000000000024500000000002450000000000245000000000024500000000002450000000000000000000000000000001000000000000001500000000000000367500000000000100002013091600000010000000000000BRBVMFACNOR3125
012013071978BVMFI12     070BVMF  FM    ON      NM000R$  000000000010300000000001070000000000086000000000009300000000000990000000000080000000000010400020000000000000050100000000000004683800000000000120002013091600000010000000000000BRBVMFACNOR3125
012013071978BVMFI13     070BVMF  FM    ON      NM000R$  000000000004600000000000470000000000037000000000004000000000000460000000000041000000000005000073000000000000106400000000000004257000000000000130002013091600000010000000000000BRBVMFACNOR3125
012013071978BVMFI14     070BVMF  FM    ON      NM000R$  000000000001400000000000140000000000013000000000001300000000000130000000000013000000000002500005000000000000010800000000000000149400000000000140002013091600000010000000000000BRBVMFACNOR3125
012013071978BVMFI35     070BVMFE       ON      NM000R$  000000000003600000000000360000000000036000000000003600000000000360000000000000000000000000000002000000000000010000000000000000360000000000000132502013091600000010000000000000BRBVMFACNOR3125
012013071978BVMFI42     070BVMF  FM    ON      NM000R$  000000000007200000000000720000000000058000000000006600000000000690000000000000000000000000000008000000000000021000000000000001390900000000000125002013091600000010000000000000BRBVMFACNOR3125
012013071978BVMFI43     070BVMF  FM    ON      NM000R$  000000000002600000000000260000000000023000000000002300000000000230000000000000000000000000000008000000000000015900000000000000371900000000000135002013091600000010000000000000BRBVMFACNOR3125
012013071978BVMFJ13     070BVMF        ON      NM000R$  000000000006200000000000620000000000062000000000006200000000000620000000000000000000000000000001000000000000004000000000000000248000000000000130002013102100000010000000000000BRBVMFACNOR3125
012013071978BVMFL13     070BVMF        ON      NM000R$  000000000009200000000000920000000000092000000000009200000000000920000000000000000000000000000001000000000000001800000000000000165600000000000130002013121600000010000000000000BRBVMFACNOR3125
012013071978BVMFL15     070BVMF        ON      NM000R$  000000000002000000000000250000000000020000000000002100000000000250000000000011000000000003000004000000000000001000000000000000021300000000000150002013121600000010000000000000BRBVMFACNOR3125
012013071978BVMFL2      070BVMF        ON      NM000R$  000000000014400000000001440000000000144000000000014400000000001440000000000000000000000000000001000000000000001000000000000000144000000000000118902013121600000010000000000000BRBVMFACNOR3124
012013071982BVMFT11     080BVMFE       ON      NM000R$  000000000001400000000000160000000000014000000000001400000000000150000000000000000000000001200007000000000000004200000000000000059300000000000110002013081900000010000000000000BRBVMFACNOR3125
012013071982BVMFT12     080BVMFE FM    ON      NM000R$  000000000003200000000000420000000000030000000000003400000000000310000000000033000000000003800244000000000000148500000000000005144600000000000120002013081900000010000000000000BRBVMFACNOR3125
012013071982BVMFT13     080BVMFE FM    ON      NM000R$  000000000006800000000000890000000000068000000000007800000000000690000000000000000000000008900052000000000000043500000000000003423200000000000128902013081900000010000000000000BRBVMFACNOR3124
012013071982BVMFT41     080BVMFE FM    ON      NM000R$  000000000002200000000000260000000000022000000000002400000000000220000000000000000000000005500005000000000000008700000000000000217100000000000115002013081900000010000000000000BRBVMFACNOR3125
012013071982BVMFT42     080BVMFE FM    ON      NM000R$  000000000004800000000000580000000000048000000000005200000000000510000000000000000000000000000004000000000000011100000000000000578300000000000125002013081900000010000000000000BRBVMFACNOR3125
012013071982BVMFT61     080BVMFE       ON      NM000R$  000000000002800000000000290000000000028000000000002800000000000290000000000000000000000000000003000000000000004500000000000000130100000000000117502013081900000010000000000000BRBVMFACNOR3125
012013071982BVMFT62     080BVMFE       ON      NM000R$  000000000004500000000000450000000000045000000000004500000000000450000000000000000000000000000001000000000000002300000000000000103500000000000122502013081900000010000000000000BRBVMFACNOR3125
012013071982BVMFT9      080BVMFE       ON      NM000R$  000000000000200000000000020000000000002000000000000200000000000020000000000000000000000000000001000000000000000500000000000000001000000000000090002013081900000010000000000000BRBVMFACNOR3125
012013071982BVMFU10     080BVMFE       ON      NM000R$  000000000000900000000000090000000000009000000000000900000000000090000000000007000000000001000003000000000000000500000000000000004500000000000100002013091600000010000000000000BRBVMFACNOR3125
012013071982BVMFU11     080BVMFE       ON      NM000R$  000000000002100000000000240000000000021000000000002200000000000240000000000000000000000000000002000000000000000400000000000000009000000000000110002013091600000010000000000000BRBVMFACNOR3125
012013071982BVMFU12     080BVMFE FM    ON      NM000R$  000000000004400000000000540000000000044000000000005000000000000490000000000037000000000004900016000000000000011400000000000000575400000000000120002013091600000010000000000000BRBVMFACNOR3125
012013071982BVMFU13     080BVMFE FM    ON      NM000R$  000000000008400000000000930000000000084000000000008800000000000930000000000057000000000000000004000000000000012500000000000001112200000000000130002013091600000010000000000000BRBVMFACNOR3125
012013071982BVMFU41     080BVMFE FM    ON      NM000R$  000000000002800000000000350000000000028000000000003100000000000350000000000000000000000000000002000000000000006300000000000000200900000000000115002013091600000010000000000000BRBVMFACNOR3125
012013071982BVMFU42     080BVMFE FM    ON      NM000R$  000000000006300000000000670000000000063000000000006400000000000660000000000000000000000000000005000000000000018300000000000001183300000000000125002013091600000010000000000000BRBVMFACNOR3125
012013071982BVMFX11     080BVMFE       ON      NM000R$  000000000003600000000000360000000000036000000000003600000000000360000000000000000000000003800002000000000000000300000000000000010800000000000110002013121600000010000000000000BRBVMFACNOR3125
012013071902CAMB4       010CAMBUCI     PN           R$  000000000017100000000001800000000000171000000000017100000000001730000000000172000000000017300017000000000000057800000000000009910700000000000000009999123100000010000000000000BRCAMBACNPR1117
012013071902CARD3       010CSU CARDSYSTON      NM   R$  000000000033000000000003300000000000312000000000032200000000003230000000000319000000000032300023000000000000025700000000000008291100000000000000009999123100000010000000000000BRCARDACNOR9105
012013071996CARD3F      020CSU CARDSYSTON      NM   R$  000000000032900000000003290000000000286000000000029800000000002860000000000287000000000033000003000000000000000034000000000000010154000000000000009999123100000010000000000000BRCARDACNOR9105
012013071902CBEE3       010AMPLA ENERG ON *         R$  000000000011900000000001190000000000119000000000011900000000001190000000000111000000000012000001000000000000500000000000000000059500000000000000009999123100010000000000000000BRCBEEACNOR3149
012013071996CBEE3F      020AMPLA ENERG ON *         R$  000000000015000000000001500000000000150000000000015000000000001500000000000125000000000015000001000000000000001000000000000000000150000000000000009999123100010000000000000000BRCBEEACNOR3149
012013071902CBMA4       010COBRASMA    PN           R$  000000000000400000000000040000000000004000000000000400000000000040000000000003000000000000400002000000000000030000000000000000120000000000000000009999123100000010000000000000BRCBMAACNPR1124
012013071996CBMA4F      020COBRASMA    PN           R$  000000000000400000000000040000000000003000000000000300000000000030000000000003000000000000400003000000000000009001000000000000036003000000000000009999123100000010000000000000BRCBMAACNPR1124
012013071908CCHI3       010CHIARELLI   ON           R$  000000000002900000000000290000000000028000000000002800000000000280000000000027000000000003000015000000000000260000000000000007330000000000000000009999123100000010000000000000BRCCHIACNOR5123
012013071996CCHI3F      020CHIARELLI   ON           R$  000000000002800000000000300000000000028000000000002900000000000300000000000028000000000003000005000000000000009500000000000000283800000000000000009999123100000010000000000000BRCCHIACNOR5123
012013071996CCHI4F      020CHIARELLI   PN           R$  000000000001900000000000190000000000019000000000001900000000000190000000000019000000000002100002000000000000001558000000000000029602000000000000009999123100000010000000000000BRCCHIACNPR2122
012013071902CCPR3       010CYRE COM-CCPON      NM   R$  000000000201000000000020100000000001965000000000200500000000019650000000001965000000000200000008000000000000001300000000000002606700000000000000009999123100000010000000000000BRCCPRACNOR9107
012013071902CCRO3       010CCR SA      ON      NM   R$  000000000170800000000017290000000001675000000000170200000000017290000000001727000000000172909338000000000004404400000000007498216500000000000000009999123100000010000000000000BRCCROACNOR2122
012013071996CCRO3F      020CCR SA      ON      NM   R$  000000000173000000000017460000000001684000000000170800000000017420000000001722000000000174200074000000000000002161000000000003692508000000000000009999123100000010000000000000BRCCROACNOR2122
012013071962CCRO3T      030CCR SA      ON      NM031R$  000000000170300000000017040000000001703000000000170300000000017040000000000000000000000000000002000000000000001000000000000001703835000000000000009999123100000010000000000000BRCCROACNOR2122
012013071902CCXC3       010CCX CARVAO  ON      NM   R$  000000000008000000000000980000000000077000000000009100000000000930000000000093000000000009400941000000000006156600000000000560733400000000000000009999123100000010000000000000BRCCXCACNOR5100
012013071996CCXC3F      020CCX CARVAO  ON      NM   R$  000000000007900000000000960000000000077000000000008400000000000930000000000093000000000009700046000000000000001480000000000000124718000000000000009999123100000010000000000000BRCCXCACNOR5100
012013071902CEBR5       010CEB         PNA          R$  000000000240000000000024000000000002400000000000240000000000024000000000000000000000000251700001000000000000000500000000000001200000000000000000009999123100000010000000000000BRCEBRACNPA8113
012013071902CEEB3       010COELBA      ON           R$  000000000335000000000033500000000003350000000000335000000000033500000000003100000000000340000001000000000000000100000000000000335000000000000000009999123100000010000000000000BRCEEBACNOR3163
012013071912CEOC11B     010FII CEO CCP CI      MB   R$  000000000885000000000088550000000008815000000000883900000000088550000000008825000000000885500015000000000000001026000000000009069825000000000000009999123100000010000000000000BRCEOCCTF003108
012013071902CESP3       010CESP        ON      N1   R$  000000000163000000000016300000000001630000000000163000000000016300000000001551000000000163500001000000000000000100000000000000163000000000000000009999123100000010000000000000BRCESPACNOR3159
012013071996CESP3F      020CESP        ON      N1   R$  000000000162400000000016240000000001624000000000162400000000016240000000001624000000000163500001000000000000000010000000000000016240000000000000009999123100000010000000000000BRCESPACNOR3159
012013071902CESP6       010CESP        PNB     N1   R$  000000000197100000000020360000000001962000000000200700000000020310000000002021000000000203101733000000000000599600000000001203921200000000000000009999123100000010000000000000BRCESPACNPB4118
012013071996CESP6F      020CESP        PNB     N1   R$  000000000201800000000020990000000001953000000000199500000000020990000000002018000000000209900035000000000000001144000000000002282774000000000000009999123100000010000000000000BRCESPACNPB4118
012013071978CESPH21     070CESP        PNB     N1000R$  000000000006900000000000700000000000069000000000006900000000000700000000000035000000000000000002000000000000000300000000000000020900000000000210002013081900000010000000000000BRCESPACNPB4118
012013071978CESPI21     070CESP        PNB     N1000R$  000000000009100000000001000000000000091000000000009500000000001000000000000000000000000000000002000000000000000200000000000000019100000000000210002013091600000010000000000000BRCESPACNPB4118
012013071982CESPU19     080CESPE       PNB     N1000R$  000000000008000000000000900000000000080000000000008300000000000900000000000000000000000008900002000000000000000300000000000000025000000000000190002013091600000010000000000000BRCESPACNPB4118
012013071902CGAS3       010COMGAS      ON           R$  000000000465000000000047000000000004650000000000468500000000047000000000004403000000000475000006000000000000001000000000000004685000000000000000009999123100000010000000000000BRCGASACNOR0132
012013071902CGAS5       010COMGAS      PNA          R$  000000000525000000000052700000000005170000000000520900000000052000000000005200000000000523000045000000000000008900000000000046363200000000000000009999123100000010000000000000BRCGASACNPA3129
012013071996CGAS5F      020COMGAS      PNA          R$  000000000521400000000052140000000005214000000000521400000000052140000000004803000000000530000001000000000000000048000000000000250272000000000000009999123100000010000000000000BRCGASACNPA3129
012013071902CGRA3       010GRAZZIOTIN  ON           R$  000000000154400000000015440000000001544000000000154400000000015440000000001491000000000177000002000000000000000300000000000000463200000000000000009999123100000010000000000000BRCGRAACNOR2061
012013071902CGRA4       010GRAZZIOTIN  PN           R$  000000000163900000000016390000000001600000000000161600000000016160000000001600000000000161600069000000000000014800000000000023926500000000000000009999123100000010000000000000BRCGRAACNPR9061
012013071962CGRA4T      030GRAZZIOTIN  PN        034R$  000000000162800000000016290000000001628000000000162800000000016290000000000000000000000000000002000000000000000300000000000000488570000000000000009999123100000010000000000000BRCGRAACNPR9061
012013071902CIEL3       010CIELO       ON      NM   R$  000000000550100000000055670000000005480000000000553600000000055500000000005550000000000555102889000000000000666000000000003687425000000000000000009999123100000010000000000000BRCIELACNOR3111
012013071996CIEL3F      020CIELO       ON      NM   R$  000000000555000000000055700000000005480000000000552300000000055480000000005552000000000557700072000000000000001634000000000009028959000000000000009999123100000010000000000000BRCIELACNOR3111
012013071962CIEL3T      030CIELO       ON      NM031R$  000000000557600000000055770000000005576000000000557600000000055770000000000000000000000000000002000000000000000100000000000000557656000000000000009999123100000010000000000000BRCIELACNOR3111
012013071902CLSC4       010CELESC      PN      N2   R$  000000000179700000000018500000000001781000000000180400000000018200000000001820000000000185000022000000000000002200000000000003970700000000000000009999123100000010000000000000BRCLSCACNPR3107
012013071902CMIG3       010CEMIG       ON      N1   R$  000000000210700000000021420000000002060000000000208500000000020880000000002088000000000212100648000000000000182900000000000381406400000000000000009999123100000010000000000000BRCMIGACNOR6208
012013071996CMIG3F      020CEMIG       ON      N1   R$  000000000214900000000021990000000002077000000000209900000000021990000000002077000000000218900052000000000000001489000000000003126021000000000000009999123100000010000000000000BRCMIGACNOR6208
012013071902CMIG4       010CEMIG       PN      N1   R$  000000000205500000000020900000000002022000000000206300000000020720000000002072000000000207809782000000000003014300000000006218904200000000000000009999123100000010000000000000BRCMIGACNPR3208
012013071996CMIG4F      020CEMIG       PN      N1   R$  000000000207900000000020990000000002025000000000206200000000020810000000002066000000000208200138000000000000004443000000000009165489000000000000009999123100000010000000000000BRCMIGACNPR3208
012013071962CMIG4T      030CEMIG       PN      N1090R$  000000000209200000000020930000000002092000000000209200000000020930000000000000000000000000000002000000000000000676000000000001414768000000000000009999123100000010000000000000BRCMIGACNPR3208
012013071978CMIGH21     070CMIG        PN      N1000R$  000000000004700000000000710000000000047000000000006700000000000650000000000000000000000000000016000000000000020100000000000001362100000000000210002013081900000010000000000000BRCMIGACNPR3208
012013071978CMIGH22     070CMIG        PN      N1000R$  000000000003000000000000300000000000030000000000003000000000000300000000000005000000000004000002000000000000000300000000000000009000000000000220002013081900000010000000000000BRCMIGACNPR3208
012013071982CMIGT20     080CMIGE       PN      N1000R$  000000000005000000000000500000000000050000000000005000000000000500000000000010000000000006000003000000000000005000000000000000250000000000000200002013081900000010000000000000BRCMIGACNPR3208
012013071912CNES11B     010FII CENESP  CI      MB   R$  000000001230000000000123480000000012275000000001230700000000122750000000012250000000001227500009000000000000000238000000000002929188000000000000009999123100000010000000000000BRCNESCTF001123
012013071902COCE3       010COELCE      ON           R$  000000000400000000000040600000000003990000000000401100000000040550000000004000000000000410000021000000000000005300000000000021259000000000000000009999123100000010000000000000BRCOCEACNOR0132
012013071902COCE5       010COELCE      PNA          R$  000000000394100000000040500000000003883000000000393200000000039200000000003920000000000398100142000000000000042200000000000165930700000000000000009999123100000010000000000000BRCOCEACNPA3133
012013071996COCE5F      020COELCE      PNA          R$  000000000396000000000039990000000003907000000000395000000000039700000000003906000000000398300015000000000000000363000000000001433861000000000000009999123100000010000000000000BRCOCEACNPA3133
012013071902CPFE3       010CPFL ENERGIAON      NM   R$  000000000212200000000021360000000002090000000000211800000000021180000000002118000000000213003939000000000000690000000000001461751500000000000000009999123100000010000000000000BRCPFEACNOR0121
012013071996CPFE3F      020CPFL ENERGIAON      NM   R$  000000000219900000000021990000000001991000000000210600000000021930000000002116000000000218900012000000000000000475000000000001002285000000000000009999123100000010000000000000BRCPFEACNOR0121
012013071902CPLE3       010COPEL       ON      N1   R$  000000000230000000000023000000000002243000000000227400000000022800000000002280000000000231500016000000000000007200000000000016373600000000000000009999123100000010000000000000BRCPLEACNOR8128
012013071902CPLE6       010COPEL       PNB     N1   R$  000000000290000000000029070000000002812000000000284100000000028450000000002845000000000285001854000000000000333200000000000946709200000000000000009999123100000010000000000000BRCPLEACNPB9125
012013071996CPLE6F      020COPEL       PNB     N1   R$  000000000288300000000028830000000002815000000000284900000000028740000000002825000000000287500031000000000000000465000000000001324943000000000000009999123100000010000000000000BRCPLEACNPB9125
012013071958CPRE3       010CPFL RENOVAVON      NM   R$  000000000120600000000012200000000001182000000000120500000000012020000000001202000000000121001431000000000000894100000000001077643500000000000000009999123100000010000000000000BRCPREACNOR5100
012013071996CPRE3F      020CPFL RENOVAVON      NM   R$  000000000120100000000012260000000001180000000000119900000000012000000000001200000000000121401455000000000000052897000000000063436544000000000000009999123100000010000000000000BRCPREACNOR5100
012013071902CRDE3       010CR2         ON      NM   R$  000000000040600000000004150000000000406000000000041200000000004150000000000410000000000042000004000000000000006100000000000002515600000000000000009999123100000010000000000000BRCRDEACNOR1108
012013071902CREM3       010CREMER      ON      NM   R$  000000000144200000000014420000000001412000000000142800000000014120000000001411000000000146000007000000000000001500000000000002142600000000000000009999123100000010000000000000BRCREMACNOR2166
012013071902CRIV4       010ALFA FINANC PN           R$  000000000049000000000004900000000000480000000000048200000000004850000000000479000000000048500007000000000000002100000000000001014100000000000000009999123100000010000000000000BRCRIVACNPR1189
012013071902CRUZ3       010SOUZA CRUZ  ON           R$  000000000272600000000027530000000002721000000000274100000000027390000000002738000000000273901678000000000000474500000000001300743300000000000000009999123100000010000000000000BRCRUZACNOR0246
012013071996CRUZ3F      020SOUZA CRUZ  ON           R$  000000000272200000000027970000000002705000000000274300000000027370000000002737000000000279400026000000000000000808000000000002216950000000000000009999123100000010000000000000BRCRUZACNOR0246
012013071962CRUZ3T      030SOUZA CRUZ  ON        031R$  000000000276700000000027680000000002767000000000276700000000027680000000000000000000000000000002000000000000000300000000000000830362000000000000009999123100000010000000000000BRCRUZACNOR0246
012013071902CSAN3       010COSAN       ON      NM   R$  000000000438000000000044030000000004330000000000436100000000043650000000004365000000000438001254000000000000524800000000002288767100000000000000009999123100000010000000000000BRCSANACNOR6107
012013071996CSAN3F      020COSAN       ON      NM   R$  000000000439000000000044180000000004331000000000436600000000043980000000004381000000000438900034000000000000000978000000000004271887000000000000009999123100000010000000000000BRCSANACNOR6107
012013071962CSAN3T      030COSAN       ON      NM031R$  000000000441600000000044170000000004369000000000438700000000043930000000000000000000000000000008000000000000003300000000000014478910000000000000009999123100000010000000000000BRCSANACNOR6107
012013071962CSAN3T      030COSAN       ON      NM090R$  000000000448000000000044810000000004453000000000446000000000044540000000000000000000000000000010000000000000180000000000000802940441000000000000009999123100000010000000000000BRCSANACNOR6107
012013071962CSAN3T      030COSAN       ON      NM180R$  000000000452900000000045300000000004529000000000452900000000045300000000000000000000000000000002000000000000000200000000000000905913000000000000009999123100000010000000000000BRCSANACNOR6107
012013071978CSANH46     070CSAN        ON      NM000R$  000000000002700000000000270000000000027000000000002700000000000270000000000000000000000000000002000000000000001100000000000000029700000000000460002013081900000010000000000000BRCSANACNOR6107
012013071902CSMG3       010COPASA      ON      NM   R$  000000000358000000000036250000000003550000000000358800000000035990000000003598000000000361401130000000000000137800000000000494512400000000000000009999123100000010000000000000BRCSMGACNOR5127
012013071996CSMG3F      020COPASA      ON      NM   R$  000000000357000000000037400000000003504000000000359700000000037000000000003510000000000370000018000000000000000526000000000001892451000000000000009999123100000010000000000000BRCSMGACNOR5127
012013071914CSMO11      010ISHARES CSMOCI           R$  000000000447600000000044790000000004476000000000447600000000044790000000003800000000000461000002000000000000001060000000000004744740000000000000009999123100000010000000000000BRCSMOCTF002100
012013071902CSNA3       010SID NACIONALON           R$  000000000058800000000006030000000000585000000000059800000000006000000000000599000000000060008004000000000004569200000000002733698600000000000000009999123100000010000000000000BRCSNAACNOR6242
012013071996CSNA3F      020SID NACIONALON           R$  000000000059700000000006040000000000585000000000059800000000006000000000000597000000000060400057000000000000001947000000000001164360000000000000009999123100000010000000000000BRCSNAACNOR6242
012013071962CSNA3T      030SID NACIONALON        122R$  000000000061300000000006140000000000613000000000061300000000006140000000000000000000000000000002000000000000001000000000000000613548000000000000009999123100000010000000000000BRCSNAACNOR6242
012013071962CSNA3T      030SID NACIONALON        180R$  000000000062800000000006290000000000628000000000062800000000006290000000000000000000000000000002000000000000001000000000000000628729000000000000009999123100000010000000000000BRCSNAACNOR6242
012013071978CSNAH6      070CSNA  FM    ON        000R$  000000000002700000000000340000000000026000000000003000000000000340000000000028000000000003400051000000000000042800000000000001317400000000000060002013081900000010000000000000BRCSNAACNOR6242
012013071978CSNAH62     070CSNA  FM    ON        000R$  000000000001900000000000190000000000019000000000001900000000000190000000000000000000000000000002000000000000003000000000000000057000000000000062002013081900000010000000000000BRCSNAACNOR6242
012013071978CSNAH64     070CSNA  FM    ON        000R$  000000000001400000000000140000000000014000000000001400000000000140000000000000000000000001600001000000000000002000000000000000028000000000000064002013081900000010000000000000BRCSNAACNOR6242
012013071978CSNAH68     070CSNA        ON        000R$  000000000000600000000000060000000000006000000000000600000000000060000000000003000000000006000002000000000000001600000000000000009600000000000068002013081900000010000000000000BRCSNAACNOR6242
012013071978CSNAI6      070CSNA  FM    ON        000R$  000000000004100000000000410000000000041000000000004100000000000410000000000039000000000000000002000000000000005000000000000000205000000000000060002013091600000010000000000000BRCSNAACNOR6242
012013071978CSNAI7      070CSNA        ON        000R$  000000000001000000000000100000000000010000000000001000000000000100000000000004000000000001100001000000000000000500000000000000005000000000000070002013091600000010000000000000BRCSNAACNOR6242
012013071978CSNAJ7      070CSNA        ON        000R$  000000000001900000000000190000000000019000000000001900000000000190000000000000000000000000000003000000000000008500000000000000161500000000000070002013102100000010000000000000BRCSNAACNOR6242
012013071982CSNAT6      080CSNAE FM    ON        000R$  000000000003100000000000310000000000031000000000003100000000000310000000000025000000000000000002000000000000002400000000000000074400000000000060002013081900000010000000000000BRCSNAACNOR6242
012013071982CSNAU56     080CSNAE FM    ON        000R$  000000000002200000000000220000000000022000000000002200000000000220000000000000000000000000000006000000000000017500000000000000385000000000000056002013091600000010000000000000BRCSNAACNOR6242
012013071982CSNAU58     080CSNAE FM    ON        000R$  000000000002900000000000290000000000029000000000002900000000000290000000000000000000000000000006000000000000014000000000000000406000000000000058002013091600000010000000000000BRCSNAACNOR6242
012013071982CSNAU6      080CSNAE FM    ON        000R$  000000000003800000000000380000000000038000000000003800000000000380000000000000000000000003900001000000000000000500000000000000019000000000000060002013091600000010000000000000BRCSNAACNOR6242
012013071902CTAX11      010CONTAX      UNT     N2   R$  000000000178100000000018140000000001760000000000177900000000017890000000001740000000000178900036000000000000016100000000000028648300000000000000009999123100000010000000000000BRCTAXCDAM19100
012013071902CTAX3       010CONTAX      ON      N2   R$  000000000044600000000004460000000000445000000000044500000000004460000000000446000000000050000009000000000000008500000000000003790200000000000000009999123100000010000000000000BRCTAXACNOR3113
012013071902CTAX4       010CONTAX      PN      N2   R$  000000000033400000000003450000000000331000000000033600000000003450000000000332000000000034500025000000000000020500000000000006892300000000000000009999123100000010000000000000BRCTAXACNPR0114
012013071996CTAX4F      020CONTAX      PN      N2   R$  000000000033800000000003630000000000338000000000033800000000003630000000000324000000000036300002000000000000000030000000000000010165000000000000009999123100000010000000000000BRCTAXACNPR0114
012013071902CTIP3       010CETIP       ON      NM   R$  000000000227500000000023040000000002260000000000228000000000022850000000002284000000000228804278000000000001145700000000002612819700000000000000009999123100000010000000000000BRCTIPACNOR2119
012013071996CTIP3F      020CETIP       ON      NM   R$  000000000222300000000022990000000002223000000000227800000000022990000000002278000000000229900051000000000000001863000000000004245371000000000000009999123100000010000000000000BRCTIPACNOR2119
012013071962CTIP3T      030CETIP       ON      NM031R$  000000000229500000000022960000000002295000000000229500000000022960000000000000000000000000000002000000000000005000000000000011476715000000000000009999123100000010000000000000BRCTIPACNOR2119
012013071902CTKA4       010KARSTEN     PN           R$  000000000010200000000001020000000000100000000000010100000000001000000000000098000000000010000006000000000000007600000000000000771300000000000000009999123100000010000000000000BRCTKAACNPR7041
012013071902CTNM4       010COTEMINAS   PN           R$  000000000024000000000002400000000000234000000000023600000000002340000000000234000000000024800011000000000000011400000000000002695200000000000000009999123100000010000000000000BRCTNMACNPR6128
012013071902CTSA4       010SANTANENSE  PN           R$  000000000056000000000005600000000000560000000000056000000000005600000000000560000000000059400003000000000000002500000000000001400000000000000000009999123100000010000000000000BRCTSAACNPR0051
012013071962CTSA4T      030SANTANENSE  PN        090R$  000000000057000000000005710000000000570000000000057000000000005710000000000000000000000000000002000000000000002200000000000001255654000000000000009999123100000010000000000000BRCTSAACNPR0051
012013071912CXCE11B     010FII CX CEDAECI      MB   R$  000000018900000000001890000000000188100000000018825800000001881000000000190000000000020060000005000000000000000009000000000001694322000000000000009999123100000010000000000000BRCXCECTF004136
012013071912CXTL11      010FII CX TRX  CI           R$  000000007700000000000770000000000076010000000007611200000000760100000000076010000000007900000005000000000000000100000000000007611240000000000000009999123100000010000000000000BRCXTLCTF003120
012013071902CYRE3       010CYRELA REALTON      NM   R$  000000000165400000000016840000000001654000000000167000000000016800000000001678000000000168006000000000000001238100000000002068714500000000000000009999123100000010000000000000BRCYREACNOR7125
012013071996CYRE3F      020CYRELA REALTON      NM   R$  000000000168600000000017030000000001628000000000167400000000016830000000001670000000000170000024000000000000000690000000000001155210000000000000009999123100000010000000000000BRCYREACNOR7125
012013071962CYRE3T      030CYRELA REALTON      NM122R$  000000000171100000000017120000000001711000000000171100000000017120000000000000000000000000000002000000000000001000000000000001711368000000000000009999123100000010000000000000BRCYREACNOR7125
012013071978CYREH16     070CYRE  FM    ON      NM000R$  000000000010500000000001170000000000103000000000010700000000001150000000000000000000000000000007000000000000162000000000000017426500000000000160002013081900000010000000000000BRCYREACNOR7125
012013071978CYREH17     070CYRE  FM    ON      NM000R$  000000000005600000000000560000000000056000000000005600000000000560000000000000000000000000000001000000000000000600000000000000033600000000000170002013081900000010000000000000BRCYREACNOR7125
012013071978CYREH18     070CYRE  FM    ON      NM000R$  000000000002100000000000210000000000021000000000002100000000000210000000000000000000000000000001000000000000000900000000000000018900000000000180002013081900000010000000000000BRCYREACNOR7125
012013071982CYRET15     080CYREE       ON      NM000R$  000000000001600000000000160000000000014000000000001400000000000140000000000000000000000000000003000000000000009800000000000000137400000000000150002013081900000010000000000000BRCYREACNOR7125
012013071982CYRET17     080CYREE FM    ON      NM000R$  000000000007900000000000790000000000079000000000007900000000000790000000000000000000000000000001000000000000001000000000000000079000000000000170002013081900000010000000000000BRCYREACNOR7125
012013071902CZLT11      010COSAN LTD   DR3          R$  000000000366200000000036750000000003589000000000364500000000036430000000003630000000000364300319000000000000211400000000000770593400000000000000009999123100000010000000000000BRCZLTBDR009104
012013071962CZLT11T     030COSAN LTD   DR3       060R$  000000000371400000000037150000000003714000000000371400000000037150000000000000000000000000000002000000000000071700000000000266314019000000000000009999123100000010000000000000BRCZLTBDR009104
012013071902DAGB11      010DUFRY AG    DR3          R$  000000002865000000000298990000000028202000000002926000000000290000000000029000000000002906200072000000000000002566000000000075083270000000000000009999123100000010000000000000BRDAGBBDR008100
012013071902DASA3       010DASA        ON      NM   R$  000000000121500000000012560000000001214000000000123500000000012450000000001242000000000125003317000000000001026500000000001267855700000000000000009999123100000010000000000000BRDASAACNOR1108
012013071996DASA3F      020DASA        ON      NM   R$  000000000123200000000012550000000001220000000000124600000000012310000000001231000000000133500021000000000000000589000000000000734158000000000000009999123100000010000000000000BRDASAACNOR1108
012013071902DAYC4       010DAYCOVAL    PN      N2   R$  000000000088100000000008830000000000870000000000087500000000008820000000000882000000000088400347000000000000253000000000000221607000000000000000009999123100000010000000000000BRDAYCACNPR2128
012013071996DAYC4F      020DAYCOVAL    PN      N2   R$  000000000087300000000008730000000000873000000000087300000000008730000000000821000000000088200037000000000000001027000000000000896571000000000000009999123100000010000000000000BRDAYCACNPR2128
012013071902DIRR3       010DIRECIONAL  ON      NM   R$  000000000127100000000012770000000001253000000000126500000000012700000000001270000000000127401088000000000000315100000000000398606000000000000000009999123100000010000000000000BRDIRRACNOR0104
012013071996DIRR3F      020DIRECIONAL  ON      NM   R$  000000000120400000000013000000000001204000000000124800000000013000000000001204000000000133800002000000000000000077000000000000096164000000000000009999123100000010000000000000BRDIRRACNOR0104
012013071978DIRRC13     070DIRR        ON      NM000R$  000000000018300000000001830000000000183000000000018300000000001830000000000000000000000000000002000000000000006500000000000001189500000000000130002014031700000010000000000000BRDIRRACNOR0104
012013071914DIVO11      010IT NOW IDIV CI           R$  000000000309800000000031050000000003095000000000310000000000031050000000003105000000000315000014000000000000001070000000000003317880000000000000009999123100000010000000000000BRDIVOCTF002100
012013071996DIVO11F     020IT NOW IDIV CI           R$  000000000290000000000030990000000002900000000000301500000000030950000000002800000000000309500012000000000000000036000000000000108541000000000000009999123100000010000000000000BRDIVOCTF002100
012013071902DTEX3       010DURATEX     ON      NM   R$  000000000135400000000013640000000001337000000000135000000000013500000000001349000000000135002179000000000000681400000000000920482800000000000000009999123100000010000000000000BRDTEXACNOR3114
012013071996DTEX3F      020DURATEX     ON      NM   R$  000000000137300000000013940000000001344000000000135900000000013530000000001352000000000137700032000000000000001176000000000001598711000000000000009999123100000010000000000000BRDTEXACNOR3114
012013071962DTEX3T      030DURATEX     ON      NM090R$  000000000137800000000013790000000001378000000000137800000000013790000000000000000000000000000002000000000000001200000000000001653642000000000000009999123100000010000000000000BRDTEXACNOR3114
012013071902DUQE4       010MET DUQUE   PN           R$  000000000075000000000007700000000000750000000000076200000000007700000000000700000000000077000003000000000000000300000000000000228800000000000000009999123100000010000000000000BRDUQEACNPR2040
012013071902EALT4       010ACO ALTONA  PN           R$  000000000213900000000021900000000002121000000000214400000000021210000000002121000000000219500010000000000000002400000000000005147400000000000000009999123100000010000000000000BREALTACNPR1123
012013071996EBTP3F      020EMBRATEL PARON *         R$  000000000090000000000009150000000000900000000000090400000000009010000000000902000000000100000004000000000000052970000000000000047900000000000000009999123100010000000000000000BREBTPACNOR3115
012013071996EBTP4F      020EMBRATEL PARPN *         R$  000000000095000000000010500000000000950000000000101200000000010000000000000957000000000105000004000000000000025684000000000000025998000000000000009999123100010000000000000000BREBTPACNPR0120
012013071914ECOO11      010ISHARES ECOOCI           R$  000000000500000000000050700000000005000000000000505400000000050600000000005000000000000505500063000000000000017730000000000089624780000000000000009999123100000010000000000000BRECOOCTF008100
012013071996ECOO11F     020ISHARES ECOOCI           R$  000000000495000000000049500000000004804000000000490800000000049500000000004950000000000503000004000000000000000007000000000000034358000000000000009999123100000010000000000000BRECOOCTF008100
012013071902ECOR3       010ECORODOVIAS ON      NM   R$  000000000154300000000015500000000001507000000000151600000000015200000000001512000000000152004556000000000001143600000000001733892500000000000000009999123100000010000000000000BRECORACNOR8106
012013071996ECOR3F      020ECORODOVIAS ON      NM   R$  000000000151100000000015160000000001509000000000151200000000015150000000001525000000000164400010000000000000000434000000000000656547000000000000009999123100000010000000000000BRECORACNOR8106
012013071912EDGA11B     010FII GALERIA CI      MB   R$  000000000800500000000080750000000007999000000000800400000000080000000000007991000000000800000044000000000000006352000000000050846485000000000000009999123100000010000000000000BREDGACTF001109
012013071902ELEK3       010ELEKEIROZ   ON           R$  000000000072100000000007210000000000721000000000072100000000007210000000000722000000000098900004000000000000001700000000000001225700000000000000009999123100000010000000000000BRELEKACNOR5118
012013071902ELET3       010ELETROBRAS  ON      N1   R$  000000000046900000000004690000000000444000000000045500000000004620000000000462000000000046406104000000000003557300000000001620128300000000000000009999123100000010000000000000BRELETACNOR6151
012013071996ELET3F      020ELETROBRAS  ON      N1   R$  000000000046500000000005030000000000447000000000045500000000005030000000000456000000000050400036000000000000001091000000000000498021000000000000009999123100000010000000000000BRELETACNOR6151
012013071962ELET3T      030ELETROBRAS  ON      N1030R$  000000000044900000000004500000000000449000000000044900000000004500000000000000000000000000000002000000000000000500000000000000224930000000000000009999123100000010000000000000BRELETACNOR6151
012013071962ELET3T      030ELETROBRAS  ON      N1031R$  000000000044600000000004540000000000446000000000044700000000004540000000000000000000000000000004000000000000010200000000000004564865000000000000009999123100000010000000000000BRELETACNOR6151
012013071962ELET3T      030ELETROBRAS  ON      N1060R$  000000000045500000000004560000000000455000000000045500000000004560000000000000000000000000000004000000000000020000000000000009111600000000000000009999123100000010000000000000BRELETACNOR6151
012013071962ELET3T      030ELETROBRAS  ON      N1122R$  000000000046300000000004640000000000463000000000046300000000004640000000000000000000000000000004000000000000367000000000000170267338000000000000009999123100000010000000000000BRELETACNOR6151
012013071902ELET6       010ELETROBRAS  PNB     N1   R$  000000000090000000000009060000000000840000000000087900000000008940000000000894000000000090008935000000000005155500000000004535400100000000000000009999123100000010000000000000BRELETACNPB7066
