00COTAHIST.2013BOVESPA 20130819                                                                                                                                                                                                                      
012013081902AAPL11B     010APPLE       DRN ED  MB   R$  000000001212000000000122450000000012120000000001217800000000122450000000012200000000001234500007000000000000009000000000000109605000000000000000009999123100000010000000000000BRAAPLBDR004105
012013081902ABCB4       010ABC BRASIL  PN      N2   R$  000000000119600000000012100000000001171000000000118500000000011910000000001181000000000119100737000000000000327900000000000388783500000000000000009999123100000010000000000000BRABCBACNPR4120
012013081996ABCB4F      020ABC BRASIL  PN      N2   R$  000000000118000000000012000000000001180000000000118900000000011890000000001179000000000118900009000000000000000092000000000000109433000000000000009999123100000010000000000000BRABCBACNPR4120
012013081962ABCB4T      030ABC BRASIL  PN      N2030R$  000000000120000000000012010000000001200000000000120000000000012010000000000000000000000000000002000000000000025000000000000030007245000000000000009999123100000010000000000000BRABCBACNPR4120
012013081962ABCB4T      030ABC BRASIL  PN      N2060R$  000000000120900000000012100000000001209000000000120900000000012100000000000000000000000000000002000000000000025000000000000030239490000000000000009999123100000010000000000000BRABCBACNPR4120
012013081912ABCP11      010FII ABC IMOBCI           R$  000000000093500000000009500000000000935000000000094700000000009500000000000919000000000096700002000000000000000060000000000000056850000000000000009999123100000010000000000000BRABCPCTF000214
012013081902ABRE11      010ABRIL EDUCA UNT     N2   R$  000000000302000000000031340000000002971000000000302300000000030600000000003060000000000306600930000000000000361000000000001091510100000000000000009999123100000010000000000000BRABRECDAM15102
012013081996ABRE11F     020ABRIL EDUCA UNT     N2   R$  000000000300000000000031500000000003000000000000306500000000031500000000002986000000000333500014000000000000000460000000000001410248000000000000009999123100000010000000000000BRABRECDAM15102
012013081902AEDU3       010ANHANGUERA  ON      NM   R$  000000000131800000000013220000000001254000000000127000000000012750000000001275000000000127605885000000000003736800000000004746597100000000000000009999123100000010000000000000BRAEDUACNOR9107
012013081996AEDU3F      020ANHANGUERA  ON      NM   R$  000000000133000000000013490000000001256000000000127600000000012580000000001258000000000139400044000000000000001385000000000001767142000000000000009999123100000010000000000000BRAEDUACNOR9107
012013081962AEDU3S      030ANHANGUERA  ON      NM090R$  000000000131700000000013200000000001317000000000131900000000013200000000000000000000000000000004000000000000002580000000000003404227000000000000009999123100000010000000000000BRAEDUACNOR9107
012013081962AEDU3T      030ANHANGUERA  ON      NM060R$  000000000132000000000013210000000001320000000000132000000000013210000000000000000000000000000002000000000000001000000000000001320098000000000000009999123100000010000000000000BRAEDUACNOR9107
012013081938AEDUH12E    012AEDU        ON      NM000R$  000000000120000000000012000000000001200000000000120000000000012000000000000000000000000000000002000000000000050000000000000060000000000000000120002013081900000010000000000000BRAEDUACNOR9107
012013081912AEFI11      010FII AESAPAR CI           R$  000000001250000000000125000000000012401000000001242400000000124010000000012401000000001250000023000000000000000980000000000012175578000000000000009999123100000010000000000000BRAEFICTF002120
012013081902AELP3       010AES ELPA    ON           R$  000000000078000000000007800000000000780000000000078000000000007800000000000732000000000078000003000000000000002100000000000001638000000000000000009999123100000010000000000000BRAELPACNOR2119
012013081912AGCX11      010FII AG CAIXACI           R$  000000009950000000000995000000000099101000000009918200000000993000000000099200000000009950000013000000000000000143000000000014183109000000000000009999123100000010000000000000BRAGCXCTF003109
012013081902AGRO3       010BRASILAGRO  ON      NM   R$  000000000099800000000010000000000000907000000000092000000000009070000000000907000000000092400187000000000001887400000000001736878600000000000000009999123100000010000000000000BRAGROACNOR7102
012013081962AGRO3T      030BRASILAGRO  ON      NM060R$  000000000093200000000009330000000000932000000000093200000000009330000000000000000000000000000002000000000000010000000000000009327880000000000000009999123100000010000000000000BRAGROACNOR7102
012013081902ALLL3       010ALL AMER LATON      NM   R$  000000000091100000000009140000000000869000000000089000000000008750000000000875000000000087707916000000000006645300000000005915348700000000000000009999123100000010000000000000BRALLLACNOR6118
012013081996ALLL3F      020ALL AMER LATON      NM   R$  000000000090400000000009080000000000871000000000088700000000008710000000000867000000000087100054000000000000001488000000000001320597000000000000009999123100000010000000000000BRALLLACNOR6118
012013081962ALLL3T      030ALL AMER LATON      NM016R$  000000000090000000000009010000000000894000000000089900000000008950000000000000000000000000000004000000000000002000000000000001798477000000000000009999123100000010000000000000BRALLLACNOR6118
012013081962ALLL3T      030ALL AMER LATON      NM030R$  000000000090100000000009020000000000889000000000089800000000008900000000000000000000000000000004000000000000002500000000000002246941000000000000009999123100000010000000000000BRALLLACNOR6118
012013081962ALLL3T      030ALL AMER LATON      NM031R$  000000000088900000000008900000000000889000000000088900000000008900000000000000000000000000000002000000000000001000000000000000889534000000000000009999123100000010000000000000BRALLLACNOR6118
012013081912ALMI11B     010FII TORRE ALCI      MB   R$  000000030800000000003100000000000308000000000030928500000003100000000000308600000000031300000008000000000000000021000000000006495001000000000000009999123100000010000000000000BRALMICTF003204
012013081902ALPA3       010ALPARGATAS  ON  EJ  N1   R$  000000000118000000000011800000000001160000000000117100000000011600000000001153000000000120000016000000000000011900000000000013945100000000000000009999123100000010000000000000BRALPAACNOR0203
012013081902ALPA4       010ALPARGATAS  PN  EJ  N1   R$  000000000132500000000013320000000001306000000000131500000000013150000000001309000000000131501548000000000000261000000000000343382400000000000000009999123100000010000000000000BRALPAACNPR7203
012013081996ALPA4F      020ALPARGATAS  PN  EJ  N1   R$  000000000132300000000013410000000001304000000000131700000000013040000000001304000000000132500068000000000000001125000000000001482127000000000000009999123100000010000000000000BRALPAACNPR7203
012013081902ALSC3       010ALIANSCE    ON      NM   R$  000000000192200000000019400000000001900000000000192100000000019150000000001905000000000191502073000000000000479500000000000921511500000000000000009999123100000010000000000000BRALSCACNOR0104
012013081996ALSC3F      020ALIANSCE    ON      NM   R$  000000000191800000000019180000000001900000000000191100000000019140000000001811000000000227700005000000000000000167000000000000319244000000000000009999123100000010000000000000BRALSCACNOR0104
012013081938ALSCH19E    012ALSC        ON      NM000R$  000000000190000000000019000000000001900000000000190000000000019000000000000000000000000000000002000000000000046800000000000088920000000000000190002013081900000010000000000000BRALSCACNOR0104
012013081902ALUP11      010ALUPAR      UNT     N2   R$  000000000170900000000017090000000001687000000000169500000000017040000000001693000000000170400145000000000000043000000000000072912700000000000000009999123100000010000000000000BRALUPCDAM15100
012013081996ALUP11F     020ALUPAR      UNT     N2   R$  000000000170300000000017950000000001685000000000171300000000016910000000001682000000000179900015000000000000000393000000000000673231000000000000009999123100000010000000000000BRALUPCDAM15100
012013081902AMAR3       010LOJAS MARISAON      NM   R$  000000000205100000000020510000000001916000000000199600000000019390000000001928000000000193903561000000000000655400000000001308613100000000000000009999123100000010000000000000BRAMARACNOR4109
012013081996AMAR3F      020LOJAS MARISAON      NM   R$  000000000203000000000021500000000001975000000000202300000000021500000000001810000000000217000013000000000000000245000000000000495772000000000000009999123100000010000000000000BRAMARACNOR4109
012013081962AMAR3T      030LOJAS MARISAON      NM030R$  000000000203500000000020360000000002013000000000202400000000020140000000000000000000000000000006000000000000000400000000000000809950000000000000009999123100000010000000000000BRAMARACNOR4109
012013081902AMBV3       010AMBEV       ON           R$  000000000872000000000087910000000008627000000000870200000000086850000000008682000000000868500939000000000000171700000000001494119200000000000000009999123100000010000000000000BRAMBVACNOR4153
012013081996AMBV3F      020AMBEV       ON           R$  000000000880000000000088000000000008503000000000871900000000086900000000008510000000000872500061000000000000001477000000000012879022000000000000009999123100000010000000000000BRAMBVACNOR4153
012013081902AMBV4       010AMBEV       PN           R$  000000000870000000000088000000000008631000000000871200000000086860000000008685000000000869007685000000000001632100000000014220037800000000000000009999123100000010000000000000BRAMBVACNPR1153
012013081996AMBV4F      020AMBEV       PN           R$  000000000877200000000087980000000008616000000000870800000000086170000000008617000000000867000139000000000000003336000000000029047021000000000000009999123100000010000000000000BRAMBVACNPR1153
012013081962AMBV4T      030AMBEV       PN        016R$  000000000875600000000087600000000008672000000000873400000000086730000000000000000000000000000014000000000000001900000000000016596408000000000000009999123100000010000000000000BRAMBVACNPR1153
012013081962AMBV4T      030AMBEV       PN        030R$  000000000879000000000087910000000008790000000000879000000000087910000000000000000000000000000002000000000000000300000000000002637271000000000000009999123100000010000000000000BRAMBVACNPR1153
012013081962AMBV4T      030AMBEV       PN        060R$  000000000882000000000088210000000008820000000000882000000000088210000000000000000000000000000002000000000000002300000000000020286440000000000000009999123100000010000000000000BRAMBVACNPR1153
012013081938AMBVH80E    012AMBV        PN        000R$  000000000800000000000080000000000008000000000000800000000000080000000000000000000000000000000001000000000000075000000000000600000000000000000800002013081900000010000000000000BRAMBVACNPR1153
012013081938AMBVH81E    012AMBV        PN        000R$  000000000810000000000081000000000008100000000000810000000000081000000000000000000000000000000002000000000000075600000000000612360000000000000810002013081900000010000000000000BRAMBVACNPR1153
012013081938AMBVH82E    012AMBV        PN        000R$  000000000820000000000082000000000008200000000000820000000000082000000000000000000000000000000002000000000000060800000000000498560000000000000820002013081900000010000000000000BRAMBVACNPR1153
012013081938AMBVH83E    012AMBV        PN        000R$  000000000830000000000083000000000008300000000000830000000000083000000000000000000000000000000009000000000000066500000000000551950000000000000830002013081900000010000000000000BRAMBVACNPR1153
012013081938AMBVH84E    012AMBV        PN        000R$  000000000840000000000084000000000008400000000000840000000000084000000000000000000000000000000017000000000000167400000000001406160000000000000840002013081900000010000000000000BRAMBVACNPR1153
012013081938AMBVH85E    012AMBV        PN        000R$  000000000850000000000085000000000008500000000000850000000000085000000000000000000000000000000024000000000000122300000000001039550000000000000850002013081900000010000000000000BRAMBVACNPR1153
012013081938AMBVH86E    012AMBV        PN        000R$  000000000860000000000086000000000008600000000000860000000000086000000000000000000000000000000030000000000000163700000000001407820000000000000860002013081900000010000000000000BRAMBVACNPR1153
012013081938AMBVH87E    012AMBV        PN        000R$  000000000870000000000087000000000008700000000000870000000000087000000000000000000000000000000014000000000000164600000000001432020000000000000870002013081900000010000000000000BRAMBVACNPR1153
012013081978AMBVI86     070AMBV        PN        000R$  000000000026500000000002650000000000265000000000026500000000002650000000000000000000000030000001000000000000060000000000000015900000000000000860002013091600000010000000000000BRAMBVACNPR1153
012013081978AMBVI89     070AMBV        PN        000R$  000000000006900000000000690000000000069000000000006900000000000690000000000000000000000000000002000000000000001500000000000000103500000000000890002013091600000010000000000000BRAMBVACNPR1153
012013081902ARTR3       010ARTERIS     ON      NM   R$  000000000226000000000022990000000002260000000000229400000000022990000000002280000000000229901727000000000003892900000000008933475800000000000000009999123100000010000000000000BRARTRACNOR3101
012013081996ARTR3F      020ARTERIS     ON      NM   R$  000000000227100000000022960000000002271000000000228200000000022960000000002270000000000229600026000000000000000608000000000001387723000000000000009999123100000010000000000000BRARTRACNOR3101
012013081902ARZZ3       010AREZZO CO   ON      NM   R$  000000000366200000000037470000000003645000000000369500000000036450000000003645000000000368000746000000000000173400000000000640868700000000000000009999123100000010000000000000BRARZZACNOR3109
012013081996ARZZ3F      020AREZZO CO   ON      NM   R$  000000000370000000000037290000000003600000000000365100000000036800000000003562000000000380000007000000000000000172000000000000627973000000000000009999123100000010000000000000BRARZZACNOR3109
012013081902AUTM3       010AUTOMETAL   ON      NM   R$  000000000190700000000019140000000001862000000000187400000000019140000000001886000000000191401284000000000000472800000000000886178600000000000000009999123100000010000000000000BRAUTMACNOR8109
012013081996AUTM3F      020AUTOMETAL   ON      NM   R$  000000000180000000000018730000000001800000000000183700000000018700000000001850000000000200000003000000000000000088000000000000161708000000000000009999123100000010000000000000BRAUTMACNOR8109
012013081902AZEV4       010AZEVEDO     PN           R$  000000000016500000000001650000000000165000000000016500000000001650000000000150000000000017400001000000000000001200000000000000198000000000000000009999123100000010000000000000BRAZEVACNPR7113
012013081996AZEV4F      020AZEVEDO     PN           R$  000000000016500000000001650000000000165000000000016500000000001650000000000165000000000017500001000000000000000009000000000000001485000000000000009999123100000010000000000000BRAZEVACNPR7113
012013081902BAHI3       010BAHEMA      ON           R$  000000000047600000000004800000000000475000000000047700000000004750000000000475000000000050000007000000000000001800000000000000858700000000000000009999123100000010000000000000BRBAHIACNOR1066
012013081902BAUH4       010EXCELSIOR   PN           R$  000000000094000000000009480000000000940000000000094300000000009480000000000850000000000094800002000000000000001000000000000000943200000000000000009999123100000010000000000000BRBAUHACNPR3108
012013081902BAZA3       010AMAZONIA    ON           R$  000000000003300000000000330000000000032000000000003200000000000320000000000032000000000003300010000000000000046000000000000001517000000000000000009999123100000010000000000000BRBAZAACNOR0163
012013081996BAZA3F      020AMAZONIA    ON           R$  000000000003300000000000330000000000033000000000003300000000000330000000000031000000000003300002000000000000000600000000000000019800000000000000009999123100000010000000000000BRBAZAACNOR0163
012013081902BBAS3       010BRASIL      ON      NM   R$  000000000230500000000023200000000002252000000000228600000000022520000000002252000000000226318884000000000008389200000000019179773600000000000000009999123100000010000000000000BRBBASACNOR3237
012013081996BBAS3F      020BRASIL      ON      NM   R$  000000000231500000000023230000000002266000000000229200000000022660000000002266000000000227300393000000000000011281000000000025849542000000000000009999123100000010000000000000BRBBASACNOR3237
012013081962BBAS3T      030BRASIL      ON      NM016R$  000000000231600000000023170000000002281000000000229100000000022820000000000000000000000000000006000000000000004000000000000009164026000000000000009999123100000010000000000000BRBBASACNOR3237
012013081962BBAS3T      030BRASIL      ON      NM022R$  000000000230600000000023070000000002306000000000230600000000023070000000000000000000000000000002000000000000000100000000000000230635000000000000009999123100000010000000000000BRBBASACNOR3237
012013081962BBAS3T      030BRASIL      ON      NM030R$  000000000232200000000023230000000002267000000000227300000000022680000000000000000000000000000020000000000000126000000000000286521013000000000000009999123100000010000000000000BRBBASACNOR3237
012013081962BBAS3T      030BRASIL      ON      NM031R$  000000000232900000000023300000000002292000000000229400000000022930000000000000000000000000000008000000000000056500000000000129664208000000000000009999123100000010000000000000BRBBASACNOR3237
012013081962BBAS3T      030BRASIL      ON      NM060R$  000000000233100000000023330000000002331000000000233200000000023330000000000000000000000000000004000000000000002200000000000005132186000000000000009999123100000010000000000000BRBBASACNOR3237
012013081962BBAS3T      030BRASIL      ON      NM066R$  000000000230700000000023080000000002307000000000230700000000023080000000000000000000000000000002000000000000000600000000000001384473000000000000009999123100000010000000000000BRBBASACNOR3237
012013081962BBAS3T      030BRASIL      ON      NM120R$  000000000238100000000023820000000002357000000000236100000000023580000000000000000000000000000004000000000000004900000000000011571803000000000000009999123100000010000000000000BRBBASACNOR3237
012013081978BBASA24     070BBAS        ON      NM000R$  000000000015700000000001570000000000157000000000015700000000001570000000000000000000000000000001000000000000000100000000000000015700000000000240002014012000000010000000000000BRBBASACNOR3237
012013081978BBASB23     070BBAS        ON      NM000R$  000000000020800000000002080000000000208000000000020800000000002080000000000000000000000000000001000000000000000100000000000000020800000000000230002014021700000010000000000000BRBBASACNOR3237
012013081938BBASH18E    012BBAS        ON      NM000R$  000000000180000000000018000000000001800000000000180000000000018000000000000000000000000000000004000000000000038900000000000070020000000000000180002013081900000010000000000000BRBBASACNOR3237
012013081938BBASH19E    012BBAS        ON      NM000R$  000000000190000000000019000000000001900000000000190000000000019000000000000000000000000000000007000000000000010200000000000019380000000000000190002013081900000010000000000000BRBBASACNOR3237
012013081938BBASH20E    012BBAS        ON      NM000R$  000000000200000000000020000000000002000000000000200000000000020000000000000000000000000000000016000000000000257200000000000514400000000000000200002013081900000010000000000000BRBBASACNOR3237
012013081938BBASH21E    012BBAS        ON      NM000R$  000000000207600000000020760000000002076000000000207600000000020760000000000000000000000000000040000000000000885900000000001839128400000000000207602013081900000010000000000000BRBBASACNOR3237
012013081938BBASH22E    012BBAS        ON      NM000R$  000000000217600000000021760000000002176000000000217600000000021760000000000000000000000000000052000000000001186600000000002582041600000000000217602013081900000010000000000000BRBBASACNOR3237
012013081938BBASH23E    012BBAS        ON      NM000R$  000000000227600000000022760000000002276000000000227600000000022760000000000000000000000000000047000000000000620200000000001411575200000000000227602013081900000010000000000000BRBBASACNOR3237
012013081978BBASI14     070BBAS        ON      NM000R$  000000000091500000000009150000000000915000000000091500000000009150000000000000000000000000000001000000000000021000000000000019215000000000000140002013091600000010000000000000BRBBASACNOR3237
012013081978BBASI20     070BBAS        ON      NM000R$  000000000031300000000003140000000000313000000000031300000000003140000000000000000000000032000006000000000000005500000000000001722000000000000200002013091600000010000000000000BRBBASACNOR3237
012013081978BBASI22     070BBAS  FM    ON      NM000R$  000000000018300000000001830000000000136000000000016000000000001360000000000136000000000015300081000000000000078200000000000012531300000000000217602013091600000010000000000000BRBBASACNOR3236
012013081978BBASI23     070BBAS  FM    ON      NM000R$  000000000010500000000001130000000000079000000000009000000000000800000000000080000000000009000196000000000000185700000000000016852900000000000227602013091600000010000000000000BRBBASACNOR3236
012013081978BBASI24     070BBAS  FM    ON      NM000R$  000000000005800000000000590000000000040000000000004500000000000450000000000045000000000004900305000000000000310300000000000014124700000000000237602013091600000010000000000000BRBBASACNOR3236
012013081978BBASI25     070BBAS  FM    ON      NM000R$  000000000003000000000000300000000000019000000000002100000000000190000000000018000000000002000085000000000000190100000000000004172300000000000246602013091600000010000000000000BRBBASACNOR3235
012013081978BBASI26     070BBAS  FM    ON      NM000R$  000000000001000000000000130000000000008000000000001000000000000080000000000007000000000001000010000000000000007400000000000000074300000000000256602013091600000010000000000000BRBBASACNOR3235
012013081978BBASI27     070BBAS        ON      NM000R$  000000000000500000000000050000000000005000000000000500000000000050000000000003000000000001300003000000000000003000000000000000015000000000000267602013091600000010000000000000BRBBASACNOR3236
012013081978BBASJ22     070BBAS  FM    ON      NM000R$  000000000020500000000002050000000000172000000000018600000000001740000000000000000000000000000071000000000000115700000000000021533500000000000220002013102100000010000000000000BRBBASACNOR3237
012013081978BBASJ23     070BBAS  FM    ON      NM000R$  000000000016000000000001600000000000131000000000014100000000001320000000000000000000000000000046000000000000067800000000000009620300000000000226602013102100000010000000000000BRBBASACNOR3235
012013081978BBASJ24     070BBAS  FM    ON      NM000R$  000000000010000000000001000000000000078000000000008400000000000790000000000017000000000000000277000000000000541000000000000045668900000000000237602013102100000010000000000000BRBBASACNOR3236
012013081978BBASJ25     070BBAS  FM    ON      NM000R$  000000000004900000000000490000000000041000000000004200000000000440000000000017000000000004400028000000000000034500000000000001457900000000000250002013102100000010000000000000BRBBASACNOR3237
012013081978BBASJ26     070BBAS  FM    ON      NM000R$  000000000002800000000000290000000000028000000000002800000000000290000000000017000000000003000008000000000000013600000000000000386800000000000256602013102100000010000000000000BRBBASACNOR3235
012013081978BBASJ28     070BBAS        ON      NM000R$  000000000000500000000000050000000000005000000000000500000000000050000000000003000000000002400002000000000000005400000000000000027000000000000280002013102100000010000000000000BRBBASACNOR3237
012013081978BBASK24     070BBAS        ON      NM000R$  000000000009900000000000990000000000099000000000009900000000000990000000000000000000000000000001000000000000000300000000000000029700000000000240002013111800000010000000000000BRBBASACNOR3237
012013081978BBASL22     070BBAS        ON      NM000R$  000000000025600000000002560000000000256000000000025600000000002560000000000000000000000000000001000000000000000100000000000000025600000000000216602013121600000010000000000000BRBBASACNOR3235
012013081978BBASL24     070BBAS        ON      NM000R$  000000000011000000000001110000000000110000000000011000000000001110000000000000000000000035000003000000000000400000000000000044024000000000000240002013121600000010000000000000BRBBASACNOR3237
012013081978BBASL25     070BBAS        ON      NM000R$  000000000008700000000000870000000000082000000000008300000000000820000000000000000000000000000012000000000000013000000000000001081600000000000246602013121600000010000000000000BRBBASACNOR3235
012013081982BBASM23     080BBASE       ON      NM000R$  000000000012400000000001240000000000124000000000012400000000001240000000000000000000000000000001000000000000001200000000000000148800000000000230002014012000000010000000000000BRBBASACNOR3237
012013081982BBASN23     080BBASE       ON      NM000R$  000000000013300000000001330000000000133000000000013300000000001330000000000000000000000000000001000000000000001200000000000000159600000000000230002014021700000010000000000000BRBBASACNOR3237
012013081942BBAST24E    013BBASE       ON      NM000R$  000000000231700000000023170000000002317000000000231700000000023170000000000000000000000000000012000000000001009500000000002339011500000000000231702013081900000010000000000000BRBBASACNOR3237
012013081942BBAST25E    013BBASE       ON      NM000R$  000000000241700000000024170000000002417000000000241700000000024170000000000000000000000000000004000000000000048000000000000116016000000000000241702013081900000010000000000000BRBBASACNOR3237
012013081942BBAST26E    013BBASE       ON      NM000R$  000000000256600000000025660000000002566000000000256600000000025660000000000000000000000000000005000000000000016100000000000041312600000000000256602013081900000010000000000000BRBBASACNOR3237
012013081942BBAST27E    013BBASE       ON      NM000R$  000000000266600000000026660000000002666000000000266600000000026660000000000000000000000000000002000000000000007200000000000019195200000000000266602013081900000010000000000000BRBBASACNOR3237
012013081942BBAST28E    013BBASE       ON      NM000R$  000000000276600000000027660000000002766000000000276600000000027660000000000000000000000000000002000000000000002700000000000007468200000000000276602013081900000010000000000000BRBBASACNOR3237
012013081942BBAST55E    013BBASE       ON      NM000R$  000000000251600000000025160000000002516000000000251600000000025160000000000000000000000000000002000000000000020000000000000050320000000000000251602013081900000010000000000000BRBBASACNOR3237
012013081982BBASU20     080BBASE       ON      NM000R$  000000000000900000000000090000000000009000000000000900000000000090000000000004000000000001000002000000000000003400000000000000030600000000000200002013091600000010000000000000BRBBASACNOR3237
012013081982BBASU21     080BBASE FM    ON      NM000R$  000000000001700000000000170000000000015000000000001500000000000150000000000018000000000000000005000000000000011000000000000000167000000000000210002013091600000010000000000000BRBBASACNOR3237
012013081982BBASU22     080BBASE FM    ON      NM000R$  000000000003400000000000390000000000034000000000003500000000000390000000000019000000000004200018000000000000011600000000000000416300000000000217602013091600000010000000000000BRBBASACNOR3236
012013081982BBASU23     080BBASE FM    ON      NM000R$  000000000005800000000000750000000000056000000000006900000000000740000000000057000000000000000067000000000000152800000000000010627900000000000227602013091600000010000000000000BRBBASACNOR3236
012013081982BBASU24     080BBASE FM    ON      NM000R$  000000000010600000000001220000000000106000000000011500000000001200000000000000000000000000000061000000000000030100000000000003468600000000000237602013091600000010000000000000BRBBASACNOR3236
012013081982BBASU52     080BBASE       ON      NM000R$  000000000005100000000000510000000000050000000000005000000000000500000000000000000000000000000003000000000000009000000000000000455000000000000225002013091600000010000000000000BRBBASACNOR3237
012013081982BBASU61     080BBASE       ON      NM000R$  000000000004200000000000420000000000042000000000004200000000000420000000000000000000000000000003000000000000009000000000000000378000000000000222502013091600000010000000000000BRBBASACNOR3237
012013081982BBASV21     080BBASE FM    ON      NM000R$  000000000003700000000000440000000000031000000000003700000000000440000000000000000000000000000034000000000000053800000000000002014200000000000210002013102100000010000000000000BRBBASACNOR3237
012013081982BBASV22     080BBASE FM    ON      NM000R$  000000000005600000000000730000000000054000000000006800000000000730000000000000000000000000000048000000000000163700000000000011185600000000000220002013102100000010000000000000BRBBASACNOR3237
012013081982BBASV23     080BBASE FM    ON      NM000R$  000000000007700000000000990000000000077000000000008500000000000990000000000000000000000000000048000000000000048800000000000004164300000000000226602013102100000010000000000000BRBBASACNOR3235
012013081982BBASV24     080BBASE FM    ON      NM000R$  000000000012500000000001520000000000125000000000013500000000001520000000000000000000000000000037000000000000054000000000000007331200000000000237602013102100000010000000000000BRBBASACNOR3236
012013081982BBASW19     080BBASE       ON      NM000R$  000000000001800000000000180000000000018000000000001800000000000180000000000000000000000000000002000000000000006000000000000000108000000000000190002013111800000010000000000000BRBBASACNOR3237
012013081982BBASW20     080BBASE       ON      NM000R$  000000000002900000000000290000000000029000000000002900000000000290000000000000000000000000000001000000000000003000000000000000087000000000000200002013111800000010000000000000BRBBASACNOR3237
012013081982BBASW21     080BBASE       ON      NM000R$  000000000004100000000000420000000000041000000000004100000000000420000000000000000000000045900003000000000000009000000000000000375000000000000207602013111800000010000000000000BRBBASACNOR3236
012013081982BBASW22     080BBASE       ON      NM000R$  000000000007200000000000720000000000072000000000007200000000000720000000000000000000000000000003000000000000006000000000000000432000000000000220002013111800000010000000000000BRBBASACNOR3237
012013081982BBASW23     080BBASE       ON      NM000R$  000000000010900000000001200000000000108000000000011100000000001200000000000000000000000000000006000000000000010800000000000001199400000000000230002013111800000010000000000000BRBBASACNOR3237
012013081982BBASW24     080BBASE       ON      NM000R$  000000000015800000000001580000000000158000000000015800000000001580000000000000000000000000000001000000000000003000000000000000474000000000000240002013111800000010000000000000BRBBASACNOR3237
012013081982BBASW26     080BBASE       ON      NM000R$  000000000026300000000002630000000000263000000000026300000000002630000000000000000000000000000001000000000000001400000000000000368200000000000257602013111800000010000000000000BRBBASACNOR3236
012013081982BBASW53     080BBASE       ON      NM000R$  000000000008700000000000870000000000087000000000008700000000000870000000000000000000000000000001000000000000003000000000000000261000000000000224202013111800000010000000000000BRBBASACNOR3232
012013081902BBDC3       010BRADESCO    ON      N1   R$  000000000314100000000031880000000003115000000000315700000000031700000000003157000000000317004369000000000001343700000000004242922800000000000000009999123100000010000000000000BRBBDCACNOR1605
012013081996BBDC3F      020BRADESCO    ON      N1   R$  000000000310000000000032000000000003018000000000314200000000031380000000003110000000000320000046000000000000001393000000000004378124000000000000009999123100000010000000000000BRBBDCACNOR1605
012013081962BBDC3T      030BRADESCO    ON      N1091R$  000000000323300000000032340000000003232000000000323300000000032340000000000000000000000000000006000000000000047000000000000151953230000000000000009999123100000010000000000000BRBBDCACNOR1605
012013081902BBDC4       010BRADESCO    PN      N1   R$  000000000284400000000028650000000002797000000000283500000000028450000000002845000000000284720700000000000009314000000000026412042000000000000000009999123100000010000000000000BRBBDCACNPR8605
012013081996BBDC4F      020BRADESCO    PN      N1   R$  000000000284900000000028640000000002796000000000283500000000028400000000002834000000000284000204000000000000006096000000000017285217000000000000009999123100000010000000000000BRBBDCACNPR8605
012013081962BBDC4T      030BRADESCO    PN      N1016R$  000000000286300000000028640000000002863000000000286300000000028640000000000000000000000000000002000000000000010000000000000028636932000000000000009999123100000010000000000000BRBBDCACNPR8605
012013081962BBDC4T      030BRADESCO    PN      N1030R$  000000000282900000000028760000000002829000000000287200000000028680000000000000000000000000000014000000000000110778000000000318251856000000000000009999123100000010000000000000BRBBDCACNPR8605
012013081962BBDC4T      030BRADESCO    PN      N1031R$  000000000287000000000028710000000002870000000000287000000000028710000000000000000000000000000002000000000000002000000000000005740735000000000000009999123100000010000000000000BRBBDCACNPR8605
012013081962BBDC4T      030BRADESCO    PN      N1060R$  000000000284500000000028460000000002845000000000284500000000028460000000000000000000000000000002000000000000000200000000000000569078000000000000009999123100000010000000000000BRBBDCACNPR8605
012013081962BBDC4T      030BRADESCO    PN      N1095R$  000000000291600000000029170000000002916000000000291600000000029170000000000000000000000000000002000000000000005000000000000014581086000000000000009999123100000010000000000000BRBBDCACNPR8605
012013081938BBDCH20E    012BBDC        PN      N1000R$  000000000199800000000019980000000001998000000000199800000000019980000000000000000000000000000002000000000000003000000000000005994000000000000199802013081900000010000000000000BRBBDCACNPR8605
012013081938BBDCH23E    012BBDC        PN      N1000R$  000000000229600000000022960000000002296000000000229600000000022960000000000000000000000000000001000000000000006000000000000013776000000000000229602013081900000010000000000000BRBBDCACNPR8605
012013081938BBDCH24E    012BBDC        PN      N1000R$  000000000237800000000023780000000002378000000000237800000000023780000000000000000000000000000003000000000000123100000000000292731800000000000237802013081900000010000000000000BRBBDCACNPR8605
012013081938BBDCH25E    012BBDC        PN      N1000R$  000000000247800000000024780000000002478000000000247800000000024780000000000000000000000000000008000000000000183100000000000453721800000000000247802013081900000010000000000000BRBBDCACNPR8605
012013081938BBDCH26E    012BBDC        PN      N1000R$  000000000257800000000025780000000002578000000000257800000000025780000000000000000000000000000016000000000000538600000000001388510800000000000257802013081900000010000000000000BRBBDCACNPR8605
012013081938BBDCH27E    012BBDC        PN      N1000R$  000000000267800000000026780000000002678000000000267800000000026780000000000000000000000000000022000000000000815200000000002183105600000000000267802013081900000010000000000000BRBBDCACNPR8605
012013081938BBDCH28E    012BBDC        PN      N1000R$  000000000277800000000027780000000002778000000000277800000000027780000000000000000000000000000052000000000002668100000000007411981800000000000277802013081900000010000000000000BRBBDCACNPR8605
012013081978BBDCI27     070BBDC        PN      N1000R$  000000000018000000000002180000000000178000000000021200000000002040000000000180000000000022900013000000000000022700000000000004814800000000000267802013091600000010000000000000BRBBDCACNPR8602
012013081978BBDCI28     070BBDC        PN      N1000R$  000000000012400000000001450000000000105000000000011800000000001300000000000112000000000013400250000000000000553600000000000065444700000000000277802013091600000010000000000000BRBBDCACNPR8602
012013081978BBDCI29     070BBDC        PN      N1000R$  000000000007200000000000860000000000057000000000007500000000000780000000000066000000000007500158000000000000220300000000000016716500000000000287802013091600000010000000000000BRBBDCACNPR8602
012013081978BBDCI30     070BBDC        PN      N1000R$  000000000003900000000000430000000000028000000000003500000000000350000000000035000000000003900113000000000000108900000000000003854100000000000297802013091600000010000000000000BRBBDCACNPR8602
012013081978BBDCI31     070BBDC        PN      N1000R$  000000000017200000000001740000000000151000000000016700000000001510000000000000000000000000000135000000000000060000000000000010063900000000000272902013091600000010000000000000BRBBDCACNPR8590
012013081978BBDCI32     070BBDC        PN      N1000R$  000000000000900000000000090000000000008000000000000800000000000080000000000006000000000000000002000000000000001200000000000000009800000000000317802013091600000010000000000000BRBBDCACNPR8602
012013081978BBDCI33     070BBDC        PN      N1000R$  000000000002800000000000430000000000028000000000003100000000000430000000000032000000000000000046000000000000312900000000000009948800000000000297202013091600000010000000000000BRBBDCACNPR8598
012013081978BBDCI58     070BBDC        PN      N1000R$  000000000007700000000000780000000000077000000000007700000000000780000000000000000000000000000002000000000000110000000000000008579900000000000285002013091600000010000000000000BRBBDCACNPR8605
012013081978BBDCI81     070BBDC        PN      N1000R$  000000000001400000000000200000000000014000000000001500000000000170000000000017000000000001900007000000000000006700000000000000106600000000000307802013091600000010000000000000BRBBDCACNPR8602
012013081978BBDCJ27     070BBDC        PN      N1000R$  000000000026700000000002670000000000248000000000026100000000002480000000000000000000000000000002000000000000001700000000000000444400000000000267802013102100000010000000000000BRBBDCACNPR8602
012013081978BBDCJ29     070BBDC        PN      N1000R$  000000000012700000000001390000000000119000000000013000000000001340000000000000000000000000000064000000000000082700000000000010806900000000000287802013102100000010000000000000BRBBDCACNPR8602
012013081978BBDCJ30     070BBDC        PN      N1000R$  000000000007800000000000940000000000077000000000008400000000000880000000000000000000000009800026000000000000043200000000000003665400000000000297802013102100000010000000000000BRBBDCACNPR8602
012013081978BBDCJ31     070BBDC        PN      N1000R$  000000000005100000000000590000000000051000000000005500000000000560000000000011000000000005800015000000000000020400000000000001141400000000000307802013102100000010000000000000BRBBDCACNPR8602
012013081978BBDCJ32     070BBDC        PN      N1000R$  000000000003700000000000370000000000029000000000003500000000000360000000000010000000000005200022000000000000160200000000000005763400000000000317802013102100000010000000000000BRBBDCACNPR8602
012013081978BBDCJ58     070BBDC        PN      N1000R$  000000000017200000000001840000000000159000000000016900000000001770000000000000000000000000000040000000000000048500000000000008197300000000000280002013102100000010000000000000BRBBDCACNPR8605
012013081978BBDCK28     070BBDC        PN      N1000R$  000000000022600000000002260000000000218000000000022300000000002200000000000000000000000000000033000000000000008000000000000001788300000000000277802013111800000010000000000000BRBBDCACNPR8602
012013081978BBDCK30     070BBDC        PN      N1000R$  000000000009800000000001110000000000093000000000010300000000001110000000000090000000000000000004000000000000007200000000000000744200000000000300002013111800000010000000000000BRBBDCACNPR8605
012013081978BBDCK31     070BBDC        PN      N1000R$  000000000007700000000000790000000000077000000000007800000000000790000000000000000000000000000002000000000000006000000000000000468000000000000310002013111800000010000000000000BRBBDCACNPR8605
012013081978BBDCK32     070BBDC        PN      N1000R$  000000000005700000000000590000000000057000000000005800000000000590000000000000000000000000000002000000000000006000000000000000348000000000000317602013111800000010000000000000BRBBDCACNPR8601
012013081978BBDCK9      070BBDC        PN      N1000R$  000000000015600000000001560000000000156000000000015600000000001560000000000000000000000000000001000000000000003000000000000000468000000000000290002013111800000010000000000000BRBBDCACNPR8605
012013081978BBDCL1      070BBDC        PN      N1000R$  000000000010600000000001060000000000106000000000010600000000001060000000000000000000000000000001000000000000001200000000000000127200000000000307402013121600000010000000000000BRBBDCACNPR8600
012013081978BBDCL27     070BBDC        PN      N1000R$  000000000030500000000003060000000000298000000000030200000000002980000000000000000000000000000104000000000000020000000000000006041400000000000269802013121600000010000000000000BRBBDCACNPR8604
012013081942BBDCT16E    013BBDCE       PN      N1000R$  000000000330100000000033010000000003301000000000330100000000033010000000000000000000000000000002000000000000037400000000000123457400000000000330102013081900000010000000000000BRBBDCACNPR8605
012013081942BBDCT29E    013BBDCE       PN      N1000R$  000000000287800000000028780000000002878000000000287800000000028780000000000000000000000000000016000000000000426300000000001226891400000000000287802013081900000010000000000000BRBBDCACNPR8605
012013081942BBDCT30E    013BBDCE       PN      N1000R$  000000000297800000000029780000000002978000000000297800000000029780000000000000000000000000000010000000000000159600000000000475288800000000000297802013081900000010000000000000BRBBDCACNPR8605
012013081942BBDCT31E    013BBDCE       PN      N1000R$  000000000307400000000030740000000003074000000000307400000000030740000000000000000000000000000008000000000000871600000000002679298400000000000307402013081900000010000000000000BRBBDCACNPR8605
012013081942BBDCT32E    013BBDCE       PN      N1000R$  000000000317800000000031780000000003178000000000317800000000031780000000000000000000000000000007000000000000205600000000000653396800000000000317802013081900000010000000000000BRBBDCACNPR8605
012013081942BBDCT33E    013BBDCE       PN      N1000R$  000000000327600000000032760000000003276000000000327600000000032760000000000000000000000000000002000000000000057800000000000189352800000000000327602013081900000010000000000000BRBBDCACNPR8605
012013081942BBDCT34E    013BBDCE       PN      N1000R$  000000000305300000000030530000000003053000000000305300000000030530000000000000000000000000000007000000000000501000000000001529553000000000000305302013081900000010000000000000BRBBDCACNPR8605
012013081942BBDCT35E    013BBDCE       PN      N1000R$  000000000347600000000034760000000003476000000000347600000000034760000000000000000000000000000001000000000000007500000000000026070000000000000347602013081900000010000000000000BRBBDCACNPR8605
012013081942BBDCT36E    013BBDCE       PN      N1000R$  000000000357400000000035740000000003574000000000357400000000035740000000000000000000000000000001000000000000004700000000000016797800000000000357402013081900000010000000000000BRBBDCACNPR8605
012013081942BBDCT37E    013BBDCE       PN      N1000R$  000000000333400000000033340000000003334000000000333400000000033340000000000000000000000000000007000000000000030400000000000101353600000000000333402013081900000010000000000000BRBBDCACNPR8605
012013081942BBDCT39E    013BBDCE       PN      N1000R$  000000000351900000000035190000000003519000000000351900000000035190000000000000000000000000000001000000000000021300000000000074954700000000000351902013081900000010000000000000BRBBDCACNPR8605
012013081942BBDCT4E     013BBDCE       PN      N1000R$  000000000342600000000034260000000003426000000000342600000000034260000000000000000000000000000004000000000000026900000000000092159400000000000342602013081900000010000000000000BRBBDCACNPR8605
012013081942BBDCT5E     013BBDCE       PN      N1000R$  000000000352600000000035260000000003526000000000352600000000035260000000000000000000000000000001000000000000011200000000000039491200000000000352602013081900000010000000000000BRBBDCACNPR8605
012013081942BBDCT6E     013BBDCE       PN      N1000R$  000000000362600000000036260000000003626000000000362600000000036260000000000000000000000000000001000000000000021600000000000078321600000000000362602013081900000010000000000000BRBBDCACNPR8605
012013081982BBDCU27     080BBDCE       PN      N1000R$  000000000003100000000000370000000000024000000000002900000000000270000000000018000000000003500018000000000000025200000000000000754100000000000267802013091600000010000000000000BRBBDCACNPR8602
012013081982BBDCU28     080BBDCE       PN      N1000R$  000000000006500000000000670000000000048000000000005700000000000510000000000000000000000000000048000000000000074900000000000004333100000000000277802013091600000010000000000000BRBBDCACNPR8602
012013081982BBDCU29     080BBDCE       PN      N1000R$  000000000011100000000001150000000000086000000000010100000000000910000000000000000000000000000037000000000000048800000000000004969200000000000287802013091600000010000000000000BRBBDCACNPR8602
012013081982BBDCU30     080BBDCE       PN      N1000R$  000000000016800000000001900000000000146000000000016900000000001510000000000000000000000000000076000000000000073500000000000012439100000000000297802013091600000010000000000000BRBBDCACNPR8602
012013081982BBDCU75     080BBDCE       PN      N1000R$  000000000008400000000000840000000000084000000000008400000000000840000000000000000000000000000001000000000000001200000000000000100800000000000282302013091600000010000000000000BRBBDCACNPR8604
012013081982BBDCV27     080BBDCE       PN      N1000R$  000000000007100000000000710000000000058000000000006400000000000590000000000000000000000006700006000000000000008300000000000000538100000000000267802013102100000010000000000000BRBBDCACNPR8602
012013081982BBDCV29     080BBDCE       PN      N1000R$  000000000014300000000001530000000000128000000000014300000000001290000000000000000000000000000018000000000000025100000000000003613600000000000287802013102100000010000000000000BRBBDCACNPR8602
012013081982BBDCV30     080BBDCE       PN      N1000R$  000000000019500000000002100000000000180000000000019900000000001860000000000000000000000000000016000000000000024900000000000004965000000000000297802013102100000010000000000000BRBBDCACNPR8602
012013081982BBDCV58     080BBDCE       PN      N1000R$  000000000011300000000001140000000000113000000000011300000000001140000000000000000000000000000008000000000000011200000000000001267600000000000280002013102100000010000000000000BRBBDCACNPR8605
012013081982BBDCX29     080BBDCE       PN      N1000R$  000000000015700000000001570000000000157000000000015700000000001570000000000000000000000000000001000000000000001200000000000000188400000000000287802013121600000010000000000000BRBBDCACNPR8602
012013081912BBFI11B     010FII BB PROGRCI      MB   R$  000000042500000000004250000000000425000000000042500000000004250000000000422200000000042899900001000000000000000001000000000000425000000000000000009999123100000010000000000000BRBBFICTF006197
012013081912BBPO11      010FII BB PRGIICI           R$  000000001107000000000110700000000010900000000001094000000000109000000000010900000000001091200136000000000000011916000000000130368160000000000000009999123100000010000000000000BRBBPOCTF003109
012013081912BBRC11      010FII BB CORP CI           R$  000000000942000000000094200000000009200000000000930300000000092500000000009250000000000925100023000000000000001028000000000009563864000000000000009999123100000010000000000000BRBBRCCTF004123
012013081902BBRK3       010BR BROKERS  ON      NM   R$  000000000053600000000005550000000000534000000000054600000000005530000000000552000000000055302733000000000001156900000000000632468600000000000000009999123100000010000000000000BRBBRKACNOR4108
012013081996BBRK3F      020BR BROKERS  ON      NM   R$  000000000050600000000005530000000000506000000000052600000000005530000000000505000000000060800004000000000000000130000000000000068459000000000000009999123100000010000000000000BRBBRKACNOR4108
012013081962BBRK3T      030BR BROKERS  ON      NM030R$  000000000054200000000005530000000000542000000000054600000000005530000000000000000000000000000004000000000000030000000000000016380668000000000000009999123100000010000000000000BRBBRKACNOR4108
012013081978BBRKB6      070BBRK        ON      NM000R$  000000000003700000000000370000000000037000000000003700000000000370000000000000000000000000000002000000000000366300000000000013553100000000000060002014021700000010000000000000BRBBRKACNOR4108
012013081982BBRKN5      080BBRKE       ON      NM000R$  000000000003800000000000380000000000038000000000003800000000000380000000000000000000000000000003000000000000366300000000000013919400000000000050002014021700000010000000000000BRBBRKACNOR4108
012013081902BBSE3       010BBSEGURIDADEON      NM   R$  000000000192200000000019310000000001862000000000189500000000018680000000001867000000000186810607000000000004897900000000009285726100000000000000009999123100000010000000000000BRBBSEACNOR5100
012013081996BBSE3F      020BBSEGURIDADEON      NM   R$  000000000192300000000019290000000001860000000000190000000000018600000000001860000000000186700299000000000000007992000000000015185336000000000000009999123100000010000000000000BRBBSEACNOR5100
012013081962BBSE3T      030BBSEGURIDADEON      NM045R$  000000000189000000000018910000000001890000000000189000000000018910000000000000000000000000000002000000000000002000000000000003780018000000000000009999123100000010000000000000BRBBSEACNOR5100
012013081962BBSE3T      030BBSEGURIDADEON      NM091R$  000000000194400000000019560000000001944000000000195400000000019450000000000000000000000000000012000000000000121000000000000236453690000000000000009999123100000010000000000000BRBBSEACNOR5100
012013081938BBSEH18E    012BBSE        ON      NM000R$  000000000180000000000018000000000001800000000000180000000000018000000000000000000000000000000002000000000001000000000000001800000000000000000180002013081900000010000000000000BRBBSEACNOR5100
012013081938BBSEH19E    012BBSE        ON      NM000R$  000000000190000000000019000000000001900000000000190000000000019000000000000000000000000000000001000000000000100000000000000190000000000000000190002013081900000010000000000000BRBBSEACNOR5100
012013081938BBSEH46E    012BBSE        ON      NM000R$  000000000165000000000016500000000001650000000000165000000000016500000000000000000000000000000002000000000000050000000000000082500000000000000165002013081900000010000000000000BRBBSEACNOR5100
012013081938BBSEH48E    012BBSE        ON      NM000R$  000000000185000000000018500000000001850000000000185000000000018500000000000000000000000000000005000000000000682000000000001261700000000000000185002013081900000010000000000000BRBBSEACNOR5100
012013081902BBTG11      010BTG PACTUAL UNT EDJ      R$  000000000285200000000029030000000002778000000000283100000000028360000000002830000000000283601403000000000000282300000000000799276600000000000000009999123100000010000000000000BRBBTGUNT007105
012013081996BBTG11F     020BTG PACTUAL UNT EDJ      R$  000000000286100000000029000000000002756000000000282500000000027560000000002674000000000282400015000000000000000438000000000001237782000000000000009999123100000010000000000000BRBBTGUNT007105
012013081962BBTG11T     030BTG PACTUAL UNT EDJ   030R$  000000000289600000000028970000000002896000000000289600000000028970000000000000000000000000000002000000000000001700000000000004924158000000000000009999123100000010000000000000BRBBTGUNT007105
012013081962BBTG11T     030BTG PACTUAL UNT EDJ   182R$  000000000296500000000029660000000002965000000000296500000000029660000000000000000000000000000002000000000000050000000000000148297235000000000000009999123100000010000000000000BRBBTGUNT007105
012013081912BBVJ11      010FII C JARDIMCI           R$  000000000790100000000080190000000007900000000000791600000000079000000000007900000000000793000036000000000000003285000000000026006939000000000000009999123100000010000000000000BRBBVJCTF001132
012013081912BCFF11B     010FII BC FFII CI  ER  MB   R$  000000000990000000000099000000000009650000000000976600000000097000000000009651000000000970000073000000000000004963000000000048468834000000000000009999123100000010000000000000BRBCFFCTF000141
012013081902BDLL4       010BARDELLA    PN           R$  000000000578900000000057890000000005650000000000574200000000057880000000005001000000000578900003000000000000000300000000000001722700000000000000009999123100000010000000000000BRBDLLACNPR8149
012013081996BDLL4F      020BARDELLA    PN           R$  000000000659900000000065990000000006599000000000659900000000065990000000004640000000000660000002000000000000000021000000000000138579000000000000009999123100000010000000000000BRBDLLACNPR8149
012013081962BDLL4T      030BARDELLA    PN        091R$  000000000673600000000067370000000006736000000000673600000000067370000000000000000000000000000002000000000000000021000000000000141461000000000000009999123100000010000000000000BRBDLLACNPR8149
012013081902BEEF3       010MINERVA     ON      NM   R$  000000000107400000000011490000000001072000000000110700000000010980000000001098000000000110004549000000000002084300000000002307830900000000000000009999123100000010000000000000BRBEEFACNOR6104
012013081996BEEF3F      020MINERVA     ON      NM   R$  000000000107500000000011240000000001075000000000110200000000011200000000001105000000000112000019000000000000000393000000000000433220000000000000009999123100000010000000000000BRBEEFACNOR6104
012013081902BEES3       010BANESTES    ON           R$  000000000004700000000000480000000000046000000000004700000000000470000000000046000000000004700009000000000000043500000000000002051600000000000000009999123100000010000000000000BRBEESACNOR9243
012013081996BEES3F      020BANESTES    ON           R$  000000000005100000000000510000000000051000000000005100000000000510000000000047000000000005100001000000000000000010000000000000000510000000000000009999123100000010000000000000BRBEESACNOR9243
012013081902BEES4       010BANESTES    PN           R$  000000000004300000000000440000000000043000000000004300000000000440000000000044000000000004500004000000000000004200000000000000184600000000000000009999123100000010000000000000BRBEESACNPR6168
012013081902BEMA3       010BEMATECH    ON      NM   R$  000000000070300000000007030000000000675000000000068600000000006960000000000689000000000069600264000000000000139800000000000096023600000000000000009999123100000010000000000000BRBEMAACNOR0114
012013081996BEMA3F      020BEMATECH    ON      NM   R$  000000000070000000000007000000000000680000000000069000000000007000000000000680000000000079900006000000000000000106000000000000073235000000000000009999123100000010000000000000BRBEMAACNOR0114
012013081902BGIP4       010BANESE      PN           R$  000000000445100000000044790000000004423000000000445600000000044790000000004425000000000447900005000000000000000500000000000002228200000000000000009999123100000010000000000000BRBGIPACNPR8178
012013081996BGIP4F      020BANESE      PN           R$  000000000478000000000047800000000004780000000000478000000000047800000000004780000000000000000002000000000000000014000000000000066920000000000000009999123100000010000000000000BRBGIPACNPR8178
012013081902BHGR3       010BHG         ON      NM   R$  000000000142100000000014240000000001400000000000140600000000014000000000001397000000000140000027000000000000099700000000000140195500000000000000009999123100000010000000000000BRBHGRACNOR9101
012013081996BHGR3F      020BHG         ON      NM   R$  000000000140800000000014080000000001402000000000140600000000014020000000001401000000000149900002000000000000000021000000000000029532000000000000009999123100000010000000000000BRBHGRACNOR9101
012013081902BICB4       010BICBANCO    PN      N1   R$  000000000038000000000003900000000000373000000000038400000000003900000000000387000000000039100117000000000000122200000000000046962500000000000000009999123100000010000000000000BRBICBACNPR7131
012013081902BIOM4       010BIOMM       PN           R$  000000000082000000000008290000000000801000000000081100000000008290000000000780000000000083000012000000000000027000000000000021912000000000000000009999123100000010000000000000BRBIOMACNPR9101
012013081996BIOM4F      020BIOMM       PN           R$  000000000081000000000008100000000000810000000000081000000000008100000000000770000000000081000001000000000000000015000000000000012150000000000000009999123100000010000000000000BRBIOMACNPR9101
012013081902BISA3       010BROOKFIELD  ON      NM   R$  000000000018600000000001950000000000185000000000018900000000001880000000000186000000000018803430000000000006153800000000001168754000000000000000009999123100000010000000000000BRBISAACNOR8109
012013081996BISA3F      020BROOKFIELD  ON      NM   R$  000000000018900000000001910000000000168000000000018400000000001680000000000182000000000018500017000000000000000402000000000000074273000000000000009999123100000010000000000000BRBISAACNOR8109
012013081962BISA3T      030BROOKFIELD  ON      NM091R$  000000000019300000000001940000000000193000000000019300000000001940000000000000000000000000000002000000000000006000000000000001158381000000000000009999123100000010000000000000BRBISAACNOR8109
012013081912BJRC11      010FII JS RECIMCI           R$  000000008600000000000870000000000086000000000008622200000000870000000000083001000000008700000012000000000000000639000000000055095998000000000000009999123100000010000000000000BRBJRCCTF007109
012013081902BMEB4       010MERC BRASIL PN  EJ       R$  000000000110600000000011060000000001100000000000110300000000011000000000001090000000000114900004000000000000001200000000000001324700000000000000009999123100000010000000000000BRBMEBACNPR5191
012013081902BMIN4       010MERC INVEST PN           R$  000000000002300000000000230000000000023000000000002300000000000230000000000023000000000002400003000000000000009000000000000000207000000000000000009999123100000010000000000000BRBMINACNPR1159
012013081902BMKS3       010BIC MONARK  ON           R$  000000003285100000000328510000000032850000000003285000000000328500000000032816000000003490000002000000000000000005000000000000164252000000000000009999123100000010000000000000BRBMKSACNOR9155
012013081912BMLC11B     010FII BMBRC LCCI  ER  MB   R$  000000001165100000000116510000000011600000000001163100000000116000000000011550000000001160000008000000000000000412000000000004792306000000000000009999123100000010000000000000BRBMLCCTF004118
012013081902BMTO4       010BRASMOTOR   PN           R$  000000000008600000000000860000000000086000000000008600000000000860000000000085000000000008600002000000000000002000000000000000172000000000000000009999123100000010000000000000BRBMTOACNPR6065
012013081996BMTO4F      020BRASMOTOR   PN           R$  000000000008600000000000860000000000086000000000008600000000000860000000000080000000000008600002000000000000000300000000000000025800000000000000009999123100000010000000000000BRBMTOACNPR6065
012013081996BNBR3F      020NORD BRASIL ON           R$  000000000200000000000020000000000002000000000000200000000000020000000000002000000000000000000002000000000000000060000000000000120000000000000000009999123100000010000000000000BRBNBRACNOR8187
012013081914BOVA11      010ISHARES BOVACI           R$  000000000501300000000051130000000005008000000000505900000000050700000000005042000000000507002868000000000001257110000000006360624640000000000000009999123100000010000000000000BRBOVACTF003101
012013081996BOVA11F     020ISHARES BOVACI           R$  000000000503000000000050950000000005007000000000506400000000050640000000005035000000000505000012000000000000000032000000000000162068000000000000009999123100000010000000000000BRBOVACTF003101
012013081962BOVA11T     030ISHARES BOVACI        030R$  000000000510500000000051060000000005105000000000510500000000051060000000000000000000000000000002000000000000005000000000000025527450000000000000009999123100000010000000000000BRBOVACTF003101
012013081938BOVAH48E    012BOVA        CI        000R$  000000000480000000000048000000000004800000000000480000000000048000000000000000000000000000000007000000000000036830000000000176784000000000000480002013081900000010000000000000BRBOVACTF003101
012013081978BOVAI49     070BOVA        CI        000R$  000000000025500000000002620000000000255000000000025900000000002620000000000000000000000000000004000000000000072800000000000018903500000000000490002013091600000010000000000000BRBOVACTF003101
012013081978BOVAI50     070BOVA        CI        000R$  000000000016800000000001690000000000168000000000016800000000001690000000000000000000000016900003000000000000017000000000000002861000000000000500002013091600000010000000000000BRBOVACTF003101
012013081942BOVAT53E    013BOVAE       CI        000R$  000000000530000000000053000000000005300000000000530000000000053000000000000000000000000000000001000000000000002500000000000013250000000000000530002013081900000010000000000000BRBOVACTF003101
012013081942BOVAT64E    013BOVAE       CI        000R$  000000000640000000000064000000000006400000000000640000000000064000000000000000000000000000000001000000000000012000000000000076800000000000000640002013081900000010000000000000BRBOVACTF003101
012013081996BPAT11F     020PATAGONIA   DR3          R$  000000000180000000000018000000000001800000000000180000000000018000000000000000000000000180000001000000000000000002000000000000003600000000000000009999123100000010000000000000BRBPATBDR005104
012013081912BPFF11      010FII ABSOLUTOCI           R$  000000000881400000000089500000000008700000000000871000000000088500000000008800000000000893700012000000000000008796000000000076621622000000000000009999123100000010000000000000BRBPFFCTF002104
012013081902BPHA3       010BR PHARMA   ON      NM   R$  000000000097800000000010000000000000959000000000098600000000009800000000000979000000000098002369000000000000661500000000000652244200000000000000009999123100000010000000000000BRBPHAACNOR6102
012013081996BPHA3F      020BR PHARMA   ON      NM   R$  000000000099000000000009900000000000979000000000098000000000009790000000000982000000000104200005000000000000000082000000000000080425000000000000009999123100000010000000000000BRBPHAACNOR6102
012013081942BPHAT10E    013BPHAE       ON      NM000R$  000000000100000000000010000000000001000000000000100000000000010000000000000000000000000000000001000000000000013300000000000013300000000000000100002013081900000010000000000000BRBPHAACNOR6102
012013081942BPHAT40E    013BPHAE       ON      NM000R$  000000000105000000000010500000000001050000000000105000000000010500000000000000000000000000000001000000000000013300000000000013965000000000000105002013081900000010000000000000BRBPHAACNOR6102
012013081902BPNM4       010PANAMERICANOPN      N1   R$  000000000057200000000005720000000000548000000000055600000000005520000000000552000000000055700352000000000000206200000000000114726100000000000000009999123100000010000000000000BRBPNMACNPR6111
012013081996BPNM4F      020PANAMERICANOPN      N1   R$  000000000055100000000005590000000000546000000000055200000000005580000000000545000000000056900014000000000000000503000000000000278030000000000000009999123100000010000000000000BRBPNMACNPR6111
012013081902BRAP3       010BRADESPAR   ON      N1   R$  000000000208900000000021390000000002089000000000212600000000021360000000002115000000000213700052000000000000013400000000000028501200000000000000009999123100000010000000000000BRBRAPACNOR5124
012013081996BRAP3F      020BRADESPAR   ON      N1   R$  000000000209400000000021150000000002094000000000210400000000021150000000002095000000000219700002000000000000000030000000000000063135000000000000009999123100000010000000000000BRBRAPACNOR5124
012013081902BRAP4       010BRADESPAR   PN      N1   R$  000000000259600000000026430000000002581000000000262200000000026430000000002628000000000264306576000000000001841400000000004828325000000000000000009999123100000010000000000000BRBRAPACNPR2124
012013081996BRAP4F      020BRADESPAR   PN      N1   R$  000000000258300000000026410000000002583000000000261800000000025930000000002593000000000263700051000000000000001547000000000004049487000000000000009999123100000010000000000000BRBRAPACNPR2124
012013081938BRAPH22E    012BRAP        PN      N1000R$  000000000220000000000022000000000002200000000000220000000000022000000000000000000000000000000001000000000000010000000000000022000000000000000220002013081900000010000000000000BRBRAPACNPR2124
012013081938BRAPH23E    012BRAP        PN      N1000R$  000000000230000000000023000000000002300000000000230000000000023000000000000000000000000000000001000000000000006200000000000014260000000000000230002013081900000010000000000000BRBRAPACNPR2124
012013081938BRAPH24E    012BRAP        PN      N1000R$  000000000240000000000024000000000002400000000000240000000000024000000000000000000000000000000002000000000000012500000000000030000000000000000240002013081900000010000000000000BRBRAPACNPR2124
012013081978BRAPL30     070BRAP        PN      N1000R$  000000000006200000000000620000000000062000000000006200000000000620000000000000000000000000000001000000000000052300000000000003242600000000000300002013121600000010000000000000BRBRAPACNPR2124
012013081982BRAPX22     080BRAPE       PN      N1000R$  000000000001000000000000100000000000010000000000001000000000000100000000000000000000000000000001000000000000052300000000000000523000000000000220002013121600000010000000000000BRBRAPACNPR2124
012013081982BRAPX24     080BRAPE       PN      N1000R$  000000000003900000000000390000000000039000000000003900000000000390000000000000000000000000000001000000000000052300000000000002039700000000000240002013121600000010000000000000BRBRAPACNPR2124
012013081914BRAX11      010ISHARES BRAXCI           R$  000000000405600000000040920000000004056000000000407000000000040820000000004082000000000000000005000000000000002910000000000011844770000000000000009999123100000010000000000000BRBRAXCTF002100
012013081912BRCR11      010FII BC FUND CI  ER       R$  000000001273000000000128500000000012613000000001267500000000126150000000012614000000001261501682000000000000049518000000000627679198000000000000009999123100000010000000000000BRBRCRCTF000132
012013081902BRFS3       010BRF SA      ON      NM   R$  000000000555700000000056750000000005484000000000562500000000056700000000005661000000000567008457000000000002375100000000013361246200000000000000009999123100000010000000000000BRBRFSACNOR8110
012013081996BRFS3F      020BRF SA      ON      NM   R$  000000000562000000000056710000000005500000000000559900000000056600000000005655000000000567000122000000000000004163000000000023320506000000000000009999123100000010000000000000BRBRFSACNOR8110
012013081938BRFSH44E    012BRFS        ON      NM000R$  000000000436500000000043650000000004365000000000436500000000043650000000000000000000000000000001000000000000004000000000000017460000000000000436502013081900000010000000000000BRBRFSACNOR8110
012013081938BRFSH47E    012BRFS        ON      NM000R$  000000000470000000000047000000000004700000000000470000000000047000000000000000000000000000000004000000000000004200000000000019740000000000000470002013081900000010000000000000BRBRFSACNOR8110
012013081938BRFSH48E    012BRFS        ON      NM000R$  000000000476500000000047650000000004765000000000476500000000047650000000000000000000000000000001000000000000000100000000000000476500000000000476502013081900000010000000000000BRBRFSACNOR8110
012013081938BRFSH49E    012BRFS        ON      NM000R$  000000000490000000000049000000000004900000000000490000000000049000000000000000000000000000000007000000000000018100000000000088690000000000000490002013081900000010000000000000BRBRFSACNOR8110
012013081938BRFSH50E    012BRFS        ON      NM000R$  000000000500000000000050000000000005000000000000500000000000050000000000000000000000000000000012000000000000018700000000000093500000000000000500002013081900000010000000000000BRBRFSACNOR8110
012013081938BRFSH78E    012BRFS        ON      NM000R$  000000000480000000000048000000000004800000000000480000000000048000000000000000000000000000000002000000000000020000000000000096000000000000000480002013081900000010000000000000BRBRFSACNOR8110
012013081978BRFSI53     070BRFS        ON      NM000R$  000000000037400000000003740000000000374000000000037400000000003740000000000000000000000000000001000000000000013000000000000004862000000000000530002013091600000010000000000000BRBRFSACNOR8110
012013081978BRFSI57     070BRFS        ON      NM000R$  000000000008700000000000870000000000087000000000008700000000000870000000000000000000000000000002000000000000000700000000000000060900000000000570002013091600000010000000000000BRBRFSACNOR8110
012013081978BRFSJ7      070BRFSE       ON      NM000R$  000000000017000000000001730000000000170000000000017200000000001730000000000000000000000000000003000000000000090000000000000015494000000000000575002013102100000010000000000000BRBRFSACNOR8110
012013081902BRIN3       010BR INSURANCEON  ED  NM   R$  000000000198500000000020780000000001968000000000203500000000020100000000002002000000000202502460000000000001563600000000003182389200000000000000009999123100000010000000000000BRBRINACNOR3106
012013081996BRIN3F      020BR INSURANCEON  ED  NM   R$  000000000200500000000020720000000001985000000000204300000000020000000000001985000000000207800065000000000000001465000000000002993668000000000000009999123100000010000000000000BRBRINACNOR3106
012013081978BRINA52     070BRINE   /ED ON      NM000R$  000000000009500000000000950000000000095000000000009500000000000950000000000000000000000000000002000000000000044000000000000004180000000000000227502014012000000010000000000000BRBRINACNOR3106
012013081978BRINA57     070BRINE   /ED ON      NM000R$  000000000001600000000000160000000000016000000000001600000000000160000000000000000000000000000001000000000000044000000000000000704000000000000272502014012000000010000000000000BRBRINACNOR3106
012013081982BRINM52     080BRINE   /ED ON      NM000R$  000000000025800000000002590000000000258000000000025800000000002590000000000000000000000000000003000000000000044000000000000011393200000000000227502014012000000010000000000000BRBRINACNOR3106
012013081902BRIV3       010ALFA INVEST ON  EJ       R$  000000000062600000000006260000000000626000000000062600000000006260000000000626000000000070000001000000000000000700000000000000438200000000000000009999123100000010000000000000BRBRIVACNOR6197
012013081902BRIV4       010ALFA INVEST PN  EJ       R$  000000000055000000000005980000000000550000000000058200000000005980000000000556000000000059900003000000000000000300000000000000174600000000000000009999123100000010000000000000BRBRIVACNPR3197
012013081902BRKM3       010BRASKEM     ON      N1   R$  000000000122300000000012230000000001223000000000122300000000012230000000001201000000000122400002000000000000000500000000000000611500000000000000009999123100000010000000000000BRBRKMACNOR1110
012013081902BRKM5       010BRASKEM     PNA     N1   R$  000000000181200000000018500000000001801000000000182300000000018280000000001825000000000182805499000000000001070800000000001953041000000000000000009999123100000010000000000000BRBRKMACNPA4110
012013081996BRKM5F      020BRASKEM     PNA     N1   R$  000000000181000000000018430000000001786000000000182100000000017860000000001786000000000183300052000000000000001748000000000003183887000000000000009999123100000010000000000000BRBRKMACNPA4110
012013081962BRKM5T      030BRASKEM     PNA     N1030R$  000000000182500000000018260000000001825000000000182500000000018260000000000000000000000000000002000000000000000500000000000000912653000000000000009999123100000010000000000000BRBRKMACNPA4110
012013081938BRKMH16E    012BRKM        PNA     N1000R$  000000000160000000000016000000000001600000000000160000000000016000000000000000000000000000000005000000000000010000000000000016000000000000000160002013081900000010000000000000BRBRKMACNPA4110
012013081938BRKMH17E    012BRKM        PNA     N1000R$  000000000170000000000017000000000001700000000000170000000000017000000000000000000000000000000002000000000000040000000000000068000000000000000170002013081900000010000000000000BRBRKMACNPA4110
012013081978BRKMJ56     070BRKME       PNA     N1000R$  000000000023900000000002390000000000239000000000023900000000002390000000000000000000000000000001000000000000460000000000000109940000000000000162502013102100000010000000000000BRBRKMACNPA4110
012013081978BRKMJ60     070BRKME       PNA     N1000R$  000000000003600000000000360000000000036000000000003600000000000360000000000000000000000000000001000000000000460000000000000016560000000000000202502013102100000010000000000000BRBRKMACNPA4110
012013081982BRKMV56     080BRKME       PNA     N1000R$  000000000002000000000000200000000000020000000000002000000000000200000000000000000000000000000001000000000000460000000000000009200000000000000162502013102100000010000000000000BRBRKMACNPA4110
012013081982BRKMV60     080BRKME       PNA     N1000R$  000000000021000000000002100000000000210000000000021000000000002100000000000000000000000000000001000000000000460000000000000096600000000000000202502013102100000010000000000000BRBRKMACNPA4110
012013081902BRML3       010BR MALLS PARON      NM   R$  000000000191000000000019110000000001817000000000184700000000018260000000001826000000000182814512000000000004540200000000008388031200000000000000009999123100000010000000000000BRBRMLACNOR9105
012013081996BRML3F      020BR MALLS PARON      NM   R$  000000000190900000000019090000000001814000000000184400000000018290000000001820000000000184300103000000000000003442000000000006345926000000000000009999123100000010000000000000BRBRMLACNOR9105
012013081962BRML3T      030BR MALLS PARON      NM030R$  000000000188100000000019010000000001876000000000189100000000019010000000000000000000000000000006000000000000007000000000000013238208000000000000009999123100000010000000000000BRBRMLACNOR9105
012013081962BRML3T      030BR MALLS PARON      NM031R$  000000000183800000000018390000000001838000000000183800000000018390000000000000000000000000000002000000000000000600000000000001103103000000000000009999123100000010000000000000BRBRMLACNOR9105
012013081962BRML3T      030BR MALLS PARON      NM045R$  000000000184700000000018480000000001847000000000184700000000018480000000000000000000000000000002000000000000060000000000000110830896000000000000009999123100000010000000000000BRBRMLACNOR9105
012013081962BRML3T      030BR MALLS PARON      NM091R$  000000000186300000000018690000000001863000000000186800000000018690000000000000000000000000000004000000000000062000000000000115817337000000000000009999123100000010000000000000BRBRMLACNOR9105
012013081978BRMLI19     070BRML        ON      NM000R$  000000000002500000000000250000000000025000000000002500000000000250000000000000000000000000000001000000000000025000000000000000625000000000000190002013091600000010000000000000BRBRMLACNOR9105
012013081978BRMLI21     070BRML        ON      NM000R$  000000000000500000000000050000000000005000000000000500000000000050000000000000000000000000000001000000000000002000000000000000010000000000000210002013091600000010000000000000BRBRMLACNOR9105
012013081942BRMLT19E    013BRMLE       ON      NM000R$  000000000190000000000019000000000001900000000000190000000000019000000000000000000000000000000001000000000000025000000000000047500000000000000190002013081900000010000000000000BRBRMLACNOR9105
012013081942BRMLT20E    013BRMLE       ON      NM000R$  000000000200000000000020000000000002000000000000200000000000020000000000000000000000000000000006000000000000201700000000000403400000000000000200002013081900000010000000000000BRBRMLACNOR9105
012013081942BRMLT49E    013BRMLE       ON      NM000R$  000000000195000000000019500000000001950000000000195000000000019500000000000000000000000000000010000000000000800000000000001560000000000000000195002013081900000010000000000000BRBRMLACNOR9105
012013081902BRPR3       010BR PROPERT  ON      NM   R$  000000000186500000000018750000000001820000000000184000000000018230000000001822000000000182305318000000000002235400000000004115052000000000000000009999123100000010000000000000BRBRPRACNOR9112
012013081996BRPR3F      020BR PROPERT  ON      NM   R$  000000000186000000000019060000000001811000000000184300000000018120000000001825000000000187000032000000000000000815000000000001501146000000000000009999123100000010000000000000BRBRPRACNOR9112
012013081962BRPR3T      030BR PROPERT  ON      NM045R$  000000000186200000000018630000000001862000000000186200000000018630000000000000000000000000000002000000000000000800000000000001490176000000000000009999123100000010000000000000BRBRPRACNOR9112
012013081902BRSR3       010BANRISUL    ON      N1   R$  000000000135000000000013500000000001350000000000135000000000013500000000001200000000000138000001000000000000000100000000000000135000000000000000009999123100000010000000000000BRBRSRACNOR3130
012013081996BRSR3F      020BANRISUL    ON      N1   R$  000000000135300000000013530000000001350000000000135000000000013500000000001350000000000140000002000000000000000073000000000000098619000000000000009999123100000010000000000000BRBRSRACNOR3130
012013081902BRSR6       010BANRISUL    PNB     N1   R$  000000000145600000000014610000000001403000000000141700000000014060000000001406000000000141003286000000000000660300000000000934968300000000000000009999123100000010000000000000BRBRSRACNPB4133
012013081996BRSR6F      020BANRISUL    PNB     N1   R$  000000000145000000000014580000000001405000000000142200000000014050000000001400000000000141000034000000000000000992000000000001408877000000000000009999123100000010000000000000BRBRSRACNPB4133
012013081962BRSR6T      030BANRISUL    PNB     N1031R$  000000000141900000000014200000000001419000000000141900000000014200000000000000000000000000000002000000000000000800000000000001135541000000000000009999123100000010000000000000BRBRSRACNPB4133
012013081902BSEV3       010BIOSEV      ON      NM   R$  000000000083500000000008450000000000796000000000081900000000008160000000000816000000000083300064000000000000013100000000000010731300000000000000009999123100000010000000000000BRBSEVACNOR3100
012013081996BSEV3F      020BIOSEV      ON      NM   R$  000000000084500000000008700000000000811000000000083500000000008700000000000801000000000087000006000000000000000160000000000000133675000000000000009999123100000010000000000000BRBSEVACNOR3100
012013081902BTOW3       010B2W DIGITAL ON      NM   R$  000000000140000000000014450000000001379000000000141200000000013980000000001398000000000139901115000000000000524100000000000740472300000000000000009999123100000010000000000000BRBTOWACNOR8105
012013081996BTOW3F      020B2W DIGITAL ON      NM   R$  000000000140300000000014220000000001361000000000141000000000013610000000001360000000000143000015000000000000000385000000000000542032000000000000009999123100000010000000000000BRBTOWACNOR8105
012013081902BTTL4       010BATTISTELLA PN           R$  000000000010000000000001020000000000098000000000009900000000001020000000000100000000000010200004000000000000013300000000000001326600000000000000009999123100000010000000000000BRBTTLACNPR7105
012013081902BVMF3       010BMFBOVESPA  ON      NM   R$  000000000116000000000011750000000001126000000000114300000000011320000000001131000000000113221822000000000014763400000000016874406500000000000000009999123100000010000000000000BRBVMFACNOR3125
012013081996BVMF3F      020BMFBOVESPA  ON      NM   R$  000000000116300000000011720000000001128000000000115000000000011400000000001136000000000113800147000000000000004733000000000005440321000000000000009999123100000010000000000000BRBVMFACNOR3125
012013081962BVMF3T      030BMFBOVESPA  ON      NM030R$  000000000117700000000011780000000001139000000000115400000000011400000000000000000000000000000016000000000000255117000000000294566325000000000000009999123100000010000000000000BRBVMFACNOR3125
012013081962BVMF3T      030BMFBOVESPA  ON      NM031R$  000000000116600000000011670000000001162000000000116500000000011630000000000000000000000000000006000000000000022000000000000025643358000000000000009999123100000010000000000000BRBVMFACNOR3125
012013081962BVMF3T      030BMFBOVESPA  ON      NM063R$  000000000115000000000011510000000001150000000000115000000000011510000000000000000000000000000006000000000000550000000000000632939687000000000000009999123100000010000000000000BRBVMFACNOR3125
012013081962BVMF3T      030BMFBOVESPA  ON      NM066R$  000000000117200000000011730000000001172000000000117200000000011730000000000000000000000000000002000000000000000300000000000000351767000000000000009999123100000010000000000000BRBVMFACNOR3125
012013081962BVMF3T      030BMFBOVESPA  ON      NM091R$  000000000117800000000011790000000001156000000000117700000000011570000000000000000000000000000004000000000000015700000000000018487868000000000000009999123100000010000000000000BRBVMFACNOR3125
012013081978BVMFF66     070BVMF        ON      NM000R$  000000000003500000000000350000000000035000000000003500000000000350000000000000000000000000000001000000000000047000000000000001645000000000000160002014061600000010000000000000BRBVMFACNOR3125
012013081938BVMFH10E    012BVMF        ON      NM000R$  000000000100000000000010000000000001000000000000100000000000010000000000000000000000000000000008000000000000474600000000000474600000000000000100002013081900000010000000000000BRBVMFACNOR3125
012013081938BVMFH11E    012BVMF        ON      NM000R$  000000000110000000000011000000000001100000000000110000000000011000000000000000000000000000000035000000000000643300000000000707630000000000000110002013081900000010000000000000BRBVMFACNOR3125
012013081938BVMFH40E    012BVMF        ON      NM000R$  000000000105000000000010500000000001050000000000105000000000010500000000000000000000000000000014000000000000097300000000000102165000000000000105002013081900000010000000000000BRBVMFACNOR3125
012013081938BVMFH41E    012BVMF        ON      NM000R$  000000000115000000000011500000000001150000000000115000000000011500000000000000000000000000000020000000000000533900000000000613985000000000000115002013081900000010000000000000BRBVMFACNOR3125
012013081978BVMFI10     070BVMF        ON      NM000R$  000000000015800000000001580000000000141000000000014700000000001410000000000000000000000000000009000000000000022500000000000003313700000000000100002013091600000010000000000000BRBVMFACNOR3125
012013081978BVMFI11     070BVMF  FM    ON      NM000R$  000000000007200000000000960000000000065000000000007500000000000750000000000073000000000007900656000000000000457800000000000034613200000000000110002013091600000010000000000000BRBVMFACNOR3125
012013081978BVMFI12     070BVMF  FM    ON      NM000R$  000000000003900000000000390000000000020000000000002700000000000220000000000022000000000002300733000000000001058100000000000028790400000000000120002013091600000010000000000000BRBVMFACNOR3125
012013081978BVMFI13     070BVMF  FM    ON      NM000R$  000000000000800000000000080000000000006000000000000600000000000070000000000007000000000000800153000000000000419600000000000002882500000000000130002013091600000010000000000000BRBVMFACNOR3125
012013081978BVMFI14     070BVMF        ON      NM000R$  000000000000300000000000030000000000002000000000000200000000000030000000000002000000000000300035000000000000260300000000000000652000000000000140002013091600000010000000000000BRBVMFACNOR3125
012013081978BVMFI15     070BVMF        ON      NM000R$  000000000000100000000000010000000000001000000000000100000000000010000000000000000000000000100001000000000000001100000000000000001100000000000150002013091600000010000000000000BRBVMFACNOR3125
012013081978BVMFI40     070BVMF        ON      NM000R$  000000000012100000000001210000000000099000000000010200000000001050000000000000000000000000000061000000000000045300000000000004648700000000000105002013091600000010000000000000BRBVMFACNOR3125
012013081978BVMFI41     070BVMF  FM    ON      NM000R$  000000000005700000000000570000000000037000000000005200000000000370000000000000000000000000000065000000000000154800000000000008056900000000000115002013091600000010000000000000BRBVMFACNOR3125
012013081978BVMFI42     070BVMF  FM    ON      NM000R$  000000000001700000000000170000000000010000000000001200000000000120000000000000000000000001400093000000000000197900000000000002550500000000000125002013091600000010000000000000BRBVMFACNOR3125
012013081978BVMFJ11     070BVMF  FM    ON      NM000R$  000000000010100000000001050000000000090000000000009700000000000930000000000095000000000009900447000000000000281000000000000027523900000000000110002013102100000010000000000000BRBVMFACNOR3125
012013081978BVMFJ12     070BVMF  FM    ON      NM000R$  000000000004600000000000470000000000040000000000004300000000000400000000000000000000000004300347000000000000169100000000000007276700000000000120002013102100000010000000000000BRBVMFACNOR3125
012013081978BVMFJ13     070BVMF  FM    ON      NM000R$  000000000001500000000000150000000000010000000000001100000000000120000000000011000000000001300528000000000000587100000000000006815300000000000130002013102100000010000000000000BRBVMFACNOR3125
012013081978BVMFJ14     070BVMF        ON      NM000R$  000000000000400000000000040000000000004000000000000400000000000040000000000002000000000000000004000000000000002500000000000000010000000000000140002013102100000010000000000000BRBVMFACNOR3125
012013081978BVMFJ41     070BVMF  FM    ON      NM000R$  000000000007700000000000770000000000064000000000006800000000000640000000000000000000000000000037000000000000085900000000000005881200000000000115002013102100000010000000000000BRBVMFACNOR3125
012013081978BVMFJ42     070BVMF  FM    ON      NM000R$  000000000003200000000000330000000000024000000000002600000000000250000000000000000000000000000044000000000000072900000000000001900600000000000125002013102100000010000000000000BRBVMFACNOR3125
012013081978BVMFK13     070BVMF        ON      NM000R$  000000000002200000000000280000000000022000000000002600000000000280000000000000000000000002500003000000000000006800000000000000182600000000000130002013111800000010000000000000BRBVMFACNOR3125
012013081978BVMFK14     070BVMF        ON      NM000R$  000000000001200000000000120000000000012000000000001200000000000120000000000005000000000000000001000000000000003000000000000000036000000000000140002013111800000010000000000000BRBVMFACNOR3125
012013081978BVMFL2      070BVMF        ON      NM000R$  000000000007500000000000770000000000075000000000007600000000000770000000000000000000000000000002000000000000200000000000000015200000000000000118902013121600000010000000000000BRBVMFACNOR3124
012013081982BVMFR62     080BVMFE       ON      NM000R$  000000000011200000000001120000000000112000000000011200000000001120000000000000000000000000000001000000000000047000000000000005264000000000000120002014061600000010000000000000BRBVMFACNOR3125
012013081982BVMFR63     080BVMFE       ON      NM000R$  000000000015400000000001540000000000154000000000015400000000001540000000000000000000000000000001000000000000047000000000000007238000000000000130002014061600000010000000000000BRBVMFACNOR3125
012013081942BVMFT12E    013BVMFE       ON      NM000R$  000000000120000000000012000000000001200000000000120000000000012000000000000000000000000000000031000000000000935200000000001122240000000000000120002013081900000010000000000000BRBVMFACNOR3125
012013081942BVMFT13E    013BVMFE       ON      NM000R$  000000000128900000000012890000000001289000000000128900000000012890000000000000000000000000000017000000000003033700000000003910439300000000000128902013081900000010000000000000BRBVMFACNOR3125
012013081942BVMFT14E    013BVMFE       ON      NM000R$  000000000138900000000013890000000001389000000000138900000000013890000000000000000000000000000008000000000000084400000000000117231600000000000138902013081900000010000000000000BRBVMFACNOR3125
012013081942BVMFT15E    013BVMFE       ON      NM000R$  000000000150000000000015000000000001500000000000150000000000015000000000000000000000000000000001000000000000001000000000000001500000000000000150002013081900000010000000000000BRBVMFACNOR3125
012013081942BVMFT1E     013BVMFE       ON      NM000R$  000000000132500000000013250000000001325000000000132500000000013250000000000000000000000000000006000000000000566000000000000749950000000000000132502013081900000010000000000000BRBVMFACNOR3125
012013081942BVMFT41E    013BVMFE       ON      NM000R$  000000000115000000000011500000000001150000000000115000000000011500000000000000000000000000000004000000000000034300000000000039445000000000000115002013081900000010000000000000BRBVMFACNOR3125
012013081942BVMFT42E    013BVMFE       ON      NM000R$  000000000125000000000012500000000001250000000000125000000000012500000000000000000000000000000011000000000000327400000000000409250000000000000125002013081900000010000000000000BRBVMFACNOR3125
012013081942BVMFT43E    013BVMFE       ON      NM000R$  000000000135000000000013500000000001350000000000135000000000013500000000000000000000000000000007000000000000145500000000000196425000000000000135002013081900000010000000000000BRBVMFACNOR3125
012013081942BVMFT44E    013BVMFE       ON      NM000R$  000000000143900000000014390000000001439000000000143900000000014390000000000000000000000000000002000000000000000300000000000000431700000000000143902013081900000010000000000000BRBVMFACNOR3125
012013081942BVMFT61E    013BVMFE       ON      NM000R$  000000000117500000000011750000000001175000000000117500000000011750000000000000000000000000000013000000000000982500000000001154437500000000000117502013081900000010000000000000BRBVMFACNOR3125
012013081942BVMFT62E    013BVMFE       ON      NM000R$  000000000122500000000012250000000001225000000000122500000000012250000000000000000000000000000013000000000002618600000000003207785000000000000122502013081900000010000000000000BRBVMFACNOR3125
012013081982BVMFU10     080BVMFE       ON      NM000R$  000000000000600000000000070000000000006000000000000600000000000070000000000004000000000000700003000000000000001600000000000000009800000000000100002013091600000010000000000000BRBVMFACNOR3125
012013081982BVMFU11     080BVMFE FM    ON      NM000R$  000000000001800000000000290000000000018000000000002400000000000270000000000024000000000004100120000000000000264900000000000006505700000000000110002013091600000010000000000000BRBVMFACNOR3125
012013081982BVMFU12     080BVMFE FM    ON      NM000R$  000000000007000000000000830000000000066000000000007100000000000810000000000000000000000000000178000000000000227100000000000016126800000000000120002013091600000010000000000000BRBVMFACNOR3125
012013081982BVMFU13     080BVMFE       ON      NM000R$  000000000016400000000001640000000000164000000000016400000000001640000000000000000000000000000012000000000000010000000000000001640000000000000130002013091600000010000000000000BRBVMFACNOR3125
012013081982BVMFU35     080BVMFE       ON      NM000R$  000000000018400000000001840000000000184000000000018400000000001840000000000000000000000000000001000000000000220000000000000040480000000000000132502013091600000010000000000000BRBVMFACNOR3125
012013081982BVMFU40     080BVMFE       ON      NM000R$  000000000001000000000000150000000000010000000000001000000000000150000000000009000000000001500004000000000000020100000000000000201500000000000105002013091600000010000000000000BRBVMFACNOR3125
012013081982BVMFU41     080BVMFE FM    ON      NM000R$  000000000004000000000000520000000000036000000000004200000000000520000000000000000000000000000048000000000000119300000000000005102600000000000115002013091600000010000000000000BRBVMFACNOR3125
012013081982BVMFU42     080BVMFE FM    ON      NM000R$  000000000009100000000001210000000000091000000000011100000000001190000000000000000000000000000036000000000000082900000000000009260200000000000125002013091600000010000000000000BRBVMFACNOR3125
012013081982BVMFU43     080BVMFE       ON      NM000R$  000000000021000000000002120000000000210000000000021100000000002120000000000000000000000000000002000000000000002000000000000000422000000000000135002013091600000010000000000000BRBVMFACNOR3125
012013081982BVMFV10     080BVMFE       ON      NM000R$  000000000002000000000000200000000000020000000000002000000000000200000000000000000000000000000001000000000000000200000000000000004000000000000100002013102100000010000000000000BRBVMFACNOR3125
012013081982BVMFV11     080BVMFE FM    ON      NM000R$  000000000003400000000000470000000000031000000000004200000000000440000000000000000000000004500069000000000000138400000000000005880100000000000110002013102100000010000000000000BRBVMFACNOR3125
012013081982BVMFV12     080BVMFE FM    ON      NM000R$  000000000007800000000000960000000000071000000000008300000000000870000000000000000000000009700127000000000000267900000000000022399700000000000120002013102100000010000000000000BRBVMFACNOR3125
012013081982BVMFV14     080BVMFE       ON      NM000R$  000000000024100000000002410000000000241000000000024100000000002410000000000000000000000000000001000000000000001000000000000000241000000000000140002013102100000010000000000000BRBVMFACNOR3125
012013081982BVMFV40     080BVMFE       ON      NM000R$  000000000003000000000000300000000000030000000000003000000000000300000000000000000000000000000001000000000000000200000000000000006000000000000105002013102100000010000000000000BRBVMFACNOR3125
012013081982BVMFV41     080BVMFE FM    ON      NM000R$  000000000004500000000000660000000000045000000000005900000000000610000000000000000000000008000070000000000000149600000000000008844900000000000115002013102100000010000000000000BRBVMFACNOR3125
012013081982BVMFW10     080BVMFE       ON      NM000R$  000000000002500000000000250000000000025000000000002500000000000250000000000000000000000000000001000000000000000300000000000000007500000000000100002013111800000010000000000000BRBVMFACNOR3125
012013081982BVMFW11     080BVMFE       ON      NM000R$  000000000004200000000000420000000000042000000000004200000000000420000000000000000000000000000001000000000000003000000000000000126000000000000110002013111800000010000000000000BRBVMFACNOR3125
012013081902CAMB4       010CAMBUCI     PN           R$  000000000017600000000001930000000000174000000000017500000000001830000000000181000000000019300008000000000000002900000000000000508800000000000000009999123100000010000000000000BRCAMBACNPR1117
012013081996CAMB4F      020CAMBUCI     PN           R$  000000000017000000000001700000000000161000000000016500000000001610000000000100000000000025000003000000000000000003000000000000000496000000000000009999123100000010000000000000BRCAMBACNPR1117
012013081902CARD3       010CSU CARDSYSTON      NM   R$  000000000032100000000003290000000000318000000000032600000000003290000000000317000000000032900022000000000000025000000000000008157200000000000000009999123100000010000000000000BRCARDACNOR9105
012013081902CBEE3       010AMPLA ENERG ON *         R$  000000000013000000000001350000000000130000000000013000000000001350000000000125000000000013700003000000000001100000000000000000143500000000000000009999123100010000000000000000BRCBEEACNOR3149
012013081996CBEE3F      020AMPLA ENERG ON *         R$  000000000012800000000001280000000000128000000000012800000000001280000000000090000000000012800001000000000000001654000000000000000211000000000000009999123100010000000000000000BRCBEEACNOR3149
012013081996CBMA3F      020COBRASMA    ON           R$  000000000000500000000000050000000000005000000000000500000000000050000000000005000000000000600001000000000000000001000000000000000005000000000000009999123100000010000000000000BRCBMAACNOR4124
012013081902CBMA4       010COBRASMA    PN           R$  000000000000400000000000040000000000004000000000000400000000000040000000000004000000000000500003000000000000100000000000000000400000000000000000009999123100000010000000000000BRCBMAACNPR1124
012013081996CBMA4F      020COBRASMA    PN           R$  000000000000300000000000040000000000003000000000000300000000000040000000000004000000000000500005000000000000006627000000000000023181000000000000009999123100000010000000000000BRCBMAACNPR1124
012013081908CCHI3       010CHIARELLI   ON           R$  000000000002900000000000290000000000029000000000002900000000000290000000000029000000000003000012000000000000160000000000000004640000000000000000009999123100000010000000000000BRCCHIACNOR5123
012013081996CCHI3F      020CHIARELLI   ON           R$  000000000002900000000000300000000000028000000000002900000000000290000000000029000000000003000005000000000000006100000000000000177800000000000000009999123100000010000000000000BRCCHIACNOR5123
012013081902CCPR3       010CYRE COM-CCPON      NM   R$  000000000222000000000023300000000002179000000000219700000000021790000000002179000000000236200013000000000000003900000000000008572100000000000000009999123100000010000000000000BRCCPRACNOR9107
012013081902CCRO3       010CCR SA      ON      NM   R$  000000000168500000000017430000000001642000000000169000000000017430000000001730000000000174310747000000000010767800000000018203445200000000000000009999123100000010000000000000BRCCROACNOR2122
012013081996CCRO3F      020CCR SA      ON      NM   R$  000000000169900000000017450000000001650000000000168500000000016900000000001685000000000172500060000000000000001623000000000002735710000000000000009999123100000010000000000000BRCCROACNOR2122
012013081962CCRO3T      030CCR SA      ON      NM030R$  000000000168100000000016820000000001681000000000168100000000016820000000000000000000000000000002000000000000003000000000000005045571000000000000009999123100000010000000000000BRCCROACNOR2122
012013081962CCRO3T      030CCR SA      ON      NM060R$  000000000169300000000016940000000001693000000000169300000000016940000000000000000000000000000002000000000000001000000000000001693213000000000000009999123100000010000000000000BRCCROACNOR2122
012013081962CCRO3T      030CCR SA      ON      NM182R$  000000000178400000000017860000000001784000000000178500000000017860000000000000000000000000000004000000000000010000000000000017850268000000000000009999123100000010000000000000BRCCROACNOR2122
012013081938CCROH17E    012CCRO        ON      NM000R$  000000000170000000000017000000000001700000000000170000000000017000000000000000000000000000000003000000000000435000000000000739500000000000000170002013081900000010000000000000BRCCROACNOR2122
012013081978CCROI17     070CCRO        ON      NM000R$  000000000005000000000000500000000000049000000000004900000000000490000000000000000000000000000004000000000000503000000000000025147000000000000170002013091600000010000000000000BRCCROACNOR2122
012013081902CCXC3       010CCX CARVAO  ON      NM   R$  000000000009900000000001000000000000098000000000009900000000000990000000000098000000000009900705000000000004104800000000000406948900000000000000009999123100000010000000000000BRCCXCACNOR5100
012013081996CCXC3F      020CCX CARVAO  ON      NM   R$  000000000009500000000000980000000000095000000000009600000000000970000000000097000000000010300008000000000000000131000000000000012643000000000000009999123100000010000000000000BRCCXCACNOR5100
012013081902CEEB3       010COELBA      ON           R$  000000000350000000000035000000000003500000000000350000000000035000000000003057000000000350000001000000000000000200000000000000700000000000000000009999123100000010000000000000BRCEEBACNOR3163
012013081996CEEB5F      020COELBA      PNA          R$  000000000300900000000030090000000003009000000000300900000000030090000000003009000000000379900003000000000000000025000000000000075225000000000000009999123100000010000000000000BRCEEBACNPA6157
012013081908CELP3       010CELPA       ON           R$  000000000006400000000000640000000000064000000000006400000000000640000000000060000000000006400001000000000000000500000000000000032000000000000000009999123100000010000000000000BRCELPACNOR8112
012013081912CEOC11B     010FII CEO CCP CI  ER  MB   R$  000000000905000000000090500000000008900000000000892800000000089000000000008900000000000893000030000000000000002259000000000020170580000000000000009999123100000010000000000000BRCEOCCTF003109
012013081902CEPE5       010CELPE       PNA          R$  000000000190000000000019000000000001900000000000190000000000019000000000001900000000000210000001000000000000002000000000000003800000000000000000009999123100000010000000000000BRCEPEACNPA6151
012013081902CESP3       010CESP        ON  EJ  N1   R$  000000000170000000000017050000000001655000000000169700000000017050000000001651000000000172000005000000000000001300000000000002206500000000000000009999123100000010000000000000BRCESPACNOR3160
