00COTAHIST.2013BOVESPA 20130814                                                                                                                                                                                                                      
012013081402ABCB4       010ABC BRASIL  PN      N2   R$  000000000125000000000012500000000001213000000000122200000000012140000000001212000000000121400246000000000000131200000000000160437400000000000000009999123100000010000000000000BRABCBACNPR4120
012013081496ABCB4F      020ABC BRASIL  PN      N2   R$  000000000123500000000012500000000001213000000000122800000000012300000000001214000000000125800012000000000000000365000000000000448460000000000000009999123100000010000000000000BRABCBACNPR4120
012013081412ABCP11      010FII ABC IMOBCI           R$  000000000094000000000009400000000000920000000000093600000000009200000000000920000000000096700002000000000000000565000000000000529100000000000000009999123100000010000000000000BRABCPCTF000214
012013081402ABRE11      010ABRIL EDUCA UNT     N2   R$  000000000322900000000033000000000003060000000000312200000000030610000000003061000000000308002577000000000000794900000000002481999400000000000000009999123100000010000000000000BRABRECDAM15102
012013081496ABRE11F     020ABRIL EDUCA UNT     N2   R$  000000000320100000000032850000000003078000000000320000000000031500000000003066000000000315000029000000000000001054000000000003373150000000000000009999123100000010000000000000BRABRECDAM15102
012013081462ABRE11T     030ABRIL EDUCA UNT     N2061R$  000000000311100000000031120000000003111000000000311100000000031120000000000000000000000000000002000000000000001000000000000003111844000000000000009999123100000010000000000000BRABRECDAM15102
012013081402AEDU3       010ANHANGUERA  ON      NM   R$  000000000138800000000013950000000001329000000000134900000000013500000000001345000000000135105379000000000002013000000000002717114100000000000000009999123100000010000000000000BRAEDUACNOR9107
012013081496AEDU3F      020ANHANGUERA  ON      NM   R$  000000000135600000000013960000000001304000000000134900000000013450000000001342000000000139500026000000000000000940000000000001268924000000000000009999123100000010000000000000BRAEDUACNOR9107
012013081462AEDU3T      030ANHANGUERA  ON      NM016R$  000000000134800000000013520000000001348000000000134900000000013520000000000000000000000000000006000000000000052000000000000070169520000000000000009999123100000010000000000000BRAEDUACNOR9107
012013081462AEDU3T      030ANHANGUERA  ON      NM061R$  000000000138400000000013850000000001384000000000138400000000013850000000000000000000000000000002000000000000001500000000000002076866000000000000009999123100000010000000000000BRAEDUACNOR9107
012013081412AEFI11      010FII AESAPAR CI           R$  000000001252900000000125500000000012450000000001253100000000125500000000012522000000001255000018000000000000000380000000000004761801000000000000009999123100000010000000000000BRAEFICTF002120
012013081402AELP3       010AES ELPA    ON           R$  000000000079800000000007980000000000780000000000078600000000007800000000000720000000000079700003000000000000000300000000000000235800000000000000009999123100000010000000000000BRAELPACNOR2119
012013081412AGCX11      010FII AG CAIXACI           R$  000000009900000000000996000000000098999000000009923600000000994000000000099001000000009940000022000000000000000216000000000021435068000000000000009999123100000010000000000000BRAGCXCTF003109
012013081402AGRO3       010BRASILAGRO  ON      NM   R$  000000000103100000000010480000000001024000000000103600000000010240000000001024000000000102900044000000000000033600000000000034820300000000000000009999123100000010000000000000BRAGROACNOR7102
012013081462AGRO3T      030BRASILAGRO  ON      NM061R$  000000000105200000000010530000000001052000000000105200000000010530000000000000000000000000000002000000000000020000000000000021054792000000000000009999123100000010000000000000BRAGROACNOR7102
012013081496AHEB3F      020SPTURIS     ON           R$  000000000200000000000020000000000002000000000000200000000000020000000000002000000000000220000002000000000000000071000000000000142000000000000000009999123100000010000000000000BRAHEBACNOR0102
012013081402ALLL3       010ALL AMER LATON      NM   R$  000000000091600000000009700000000000911000000000094000000000009540000000000952000000000095417365000000000015422500000000014508159600000000000000009999123100000010000000000000BRALLLACNOR6118
012013081496ALLL3F      020ALL AMER LATON      NM   R$  000000000087600000000009650000000000876000000000093700000000009510000000000930000000000096800086000000000000002621000000000002457314000000000000009999123100000010000000000000BRALLLACNOR6118
012013081462ALLL3T      030ALL AMER LATON      NM061R$  000000000096300000000009640000000000963000000000096300000000009640000000000000000000000000000002000000000000000300000000000000289113000000000000009999123100000010000000000000BRALLLACNOR6118
012013081462ALLL3T      030ALL AMER LATON      NM090R$  000000000093400000000009350000000000934000000000093400000000009350000000000000000000000000000002000000000000010000000000000009347780000000000000009999123100000010000000000000BRALLLACNOR6118
012013081412ALMI11B     010FII TORRE ALCI      MB   R$  000000031690000000003170000000000316900000000031697500000003170000000000312250000000031700000003000000000000000004000000000001267900000000000000009999123100000010000000000000BRALMICTF003204
012013081402ALPA3       010ALPARGATAS  ON      N1   R$  000000000125500000000012550000000001220000000000123000000000012300000000001210000000000126400013000000000000002600000000000003198000000000000000009999123100000010000000000000BRALPAACNOR0202
012013081496ALPA3F      020ALPARGATAS  ON      N1   R$  000000000120000000000012000000000001152000000000117600000000011520000000001153000000000128000004000000000000000135000000000000158832000000000000009999123100000010000000000000BRALPAACNOR0202
012013081462ALPA3T      030ALPARGATAS  ON      N1061R$  000000000127100000000012720000000001271000000000127100000000012720000000000000000000000000000002000000000000000100000000000000127169000000000000009999123100000010000000000000BRALPAACNOR0202
012013081402ALPA4       010ALPARGATAS  PN      N1   R$  000000000138900000000013890000000001354000000000136700000000013650000000001365000000000137001160000000000000597100000000000816666800000000000000009999123100000010000000000000BRALPAACNPR7202
012013081496ALPA4F      020ALPARGATAS  PN      N1   R$  000000000139900000000013990000000001359000000000137600000000013650000000001362000000000139400063000000000000000844000000000001162068000000000000009999123100000010000000000000BRALPAACNPR7202
012013081402ALSC3       010ALIANSCE    ON      NM   R$  000000000203500000000020510000000001988000000000201400000000019900000000001990000000000200702342000000000000562000000000001132225900000000000000009999123100000010000000000000BRALSCACNOR0104
012013081402ALUP11      010ALUPAR      UNT     N2   R$  000000000165700000000017300000000001657000000000170200000000017060000000001700000000000170600532000000000000231300000000000393714100000000000000009999123100000010000000000000BRALUPCDAM15100
012013081496ALUP11F     020ALUPAR      UNT     N2   R$  000000000167000000000017350000000001670000000000169600000000017090000000001681000000000170900009000000000000000245000000000000415686000000000000009999123100000010000000000000BRALUPCDAM15100
012013081402AMAR3       010LOJAS MARISAON      NM   R$  000000000208900000000020990000000002047000000000206400000000020640000000002054000000000207101656000000000000312900000000000645846100000000000000009999123100000010000000000000BRAMARACNOR4109
012013081496AMAR3F      020LOJAS MARISAON      NM   R$  000000000204000000000020780000000002040000000000206100000000020700000000002020000000000209000004000000000000000117000000000000241222000000000000009999123100000010000000000000BRAMARACNOR4109
012013081462AMAR3T      030LOJAS MARISAON      NM090R$  000000000211700000000021180000000002117000000000211700000000021180000000000000000000000000000002000000000000000500000000000001058561000000000000009999123100000010000000000000BRAMARACNOR4109
012013081402AMBV3       010AMBEV       ON           R$  000000000860400000000086730000000008566000000000859500000000085700000000008570000000000859900746000000000000181800000000001562674900000000000000009999123100000010000000000000BRAMBVACNOR4153
012013081496AMBV3F      020AMBEV       ON           R$  000000000861900000000086790000000008583000000000863300000000085830000000008500000000000860000038000000000000000828000000000007148549000000000000009999123100000010000000000000BRAMBVACNOR4153
012013081402AMBV4       010AMBEV       PN           R$  000000000862000000000086830000000008575000000000861700000000085750000000008575000000000859012261000000000002641600000000022763241900000000000000009999123100000010000000000000BRAMBVACNPR1153
012013081496AMBV4F      020AMBEV       PN           R$  000000000862500000000086980000000008503000000000862600000000085850000000008585000000000862900168000000000000004595000000000039632457000000000000009999123100000010000000000000BRAMBVACNPR1153
012013081462AMBV4T      030AMBEV       PN        030R$  000000000871200000000087130000000008635000000000866100000000086360000000000000000000000000000006000000000000002200000000000019054973000000000000009999123100000010000000000000BRAMBVACNPR1153
012013081462AMBV4T      030AMBEV       PN        061R$  000000000877700000000087780000000008726000000000876300000000087270000000000000000000000000000008000000000000007000000000000061342767000000000000009999123100000010000000000000BRAMBVACNPR1153
012013081462AMBV4T      030AMBEV       PN        180R$  000000000905000000000090510000000009050000000000905000000000090510000000000000000000000000000002000000000000000600000000000005430104000000000000009999123100000010000000000000BRAMBVACNPR1153
012013081478AMBVH85     070AMBV        PN        000R$  000000000020200000000002020000000000160000000000017400000000001600000000000160000000000000000004000000000000008500000000000001484600000000000850002013081900000010000000000000BRAMBVACNPR1153
012013081478AMBVH86     070AMBV        PN        000R$  000000000013000000000001300000000000070000000000010000000000000700000000000000000000000000000002000000000000000400000000000000040000000000000860002013081900000010000000000000BRAMBVACNPR1153
012013081478AMBVH87     070AMBV        PN        000R$  000000000008500000000000850000000000085000000000008500000000000850000000000000000000000008500001000000000000000200000000000000017000000000000870002013081900000010000000000000BRAMBVACNPR1153
012013081478AMBVI85     070AMBV        PN        000R$  000000000027100000000002710000000000265000000000026500000000002650000000000000000000000000000003000000000000008300000000000002207300000000000850002013091600000010000000000000BRAMBVACNPR1153
012013081478AMBVI88     070AMBV        PN        000R$  000000000012200000000001240000000000101000000000012300000000001010000000000039000000000000000005000000000000015500000000000001913900000000000880002013091600000010000000000000BRAMBVACNPR1153
012013081402ARTR3       010ARTERIS     ON      NM   R$  000000000224400000000022570000000002213000000000223700000000022350000000002235000000000224904387000000000001763800000000003946539400000000000000009999123100000010000000000000BRARTRACNOR3101
012013081496ARTR3F      020ARTERIS     ON      NM   R$  000000000225000000000022990000000002221000000000224100000000022250000000002220000000000228700048000000000000001381000000000003095730000000000000009999123100000010000000000000BRARTRACNOR3101
012013081402ARZZ3       010AREZZO CO   ON      NM   R$  000000000363500000000037470000000003626000000000365600000000037470000000003657000000000374700990000000000000159800000000000584356600000000000000009999123100000010000000000000BRARZZACNOR3109
012013081496ARZZ3F      020AREZZO CO   ON      NM   R$  000000000355500000000038950000000003555000000000360300000000038950000000003680000000000389500004000000000000000107000000000000385605000000000000009999123100000010000000000000BRARZZACNOR3109
012013081402AUTM3       010AUTOMETAL   ON      NM   R$  000000000183700000000018520000000001810000000000183500000000018460000000001826000000000184600387000000000000067200000000000123328400000000000000009999123100000010000000000000BRAUTMACNOR8109
012013081496AUTM3F      020AUTOMETAL   ON      NM   R$  000000000183400000000018350000000001834000000000183400000000018350000000001714000000000183500003000000000000000054000000000000099065000000000000009999123100000010000000000000BRAUTMACNOR8109
012013081402BAHI3       010BAHEMA      ON           R$  000000000049000000000004900000000000485000000000048800000000004850000000000481000000000049000002000000000000000600000000000000293000000000000000009999123100000010000000000000BRBAHIACNOR1066
012013081402BALM4       010BAUMER      PN           R$  000000000753000000000075300000000007530000000000753000000000075300000000007500000000000000000002000000000000000200000000000001506000000000000000009999123100000010000000000000BRBALMACNPR2043
012013081402BAUH4       010EXCELSIOR   PN           R$  000000000089400000000008940000000000800000000000080900000000008030000000000800000000000093800021000000000000008000000000000006477900000000000000009999123100000010000000000000BRBAUHACNPR3108
012013081402BAZA3       010AMAZONIA    ON           R$  000000000003400000000000340000000000034000000000003400000000000340000000000033000000000003400001000000000000001000000000000000034000000000000000009999123100000010000000000000BRBAZAACNOR0163
012013081496BAZA3F      020AMAZONIA    ON           R$  000000000003400000000000340000000000034000000000003400000000000340000000000034000000000003600001000000000000000100000000000000003400000000000000009999123100000010000000000000BRBAZAACNOR0163
012013081402BBAS3       010BRASIL      ON      NM   R$  000000000232000000000023600000000002317000000000234100000000023470000000002347000000000234827894000000000010404200000000024364289400000000000000009999123100000010000000000000BRBBASACNOR3237
012013081496BBAS3F      020BRASIL      ON      NM   R$  000000000233900000000023580000000002317000000000233900000000023580000000002357000000000235800410000000000000012218000000000028591464000000000000009999123100000010000000000000BRBBASACNOR3237
012013081462BBAS3T      030BRASIL      ON      NM016R$  000000000233300000000023340000000002333000000000233300000000023340000000000000000000000000000002000000000000000700000000000001633307000000000000009999123100000010000000000000BRBBASACNOR3237
012013081462BBAS3T      030BRASIL      ON      NM030R$  000000000234700000000023480000000002347000000000234700000000023480000000000000000000000000000002000000000000000700000000000001643016000000000000009999123100000010000000000000BRBBASACNOR3237
012013081462BBAS3T      030BRASIL      ON      NM036R$  000000000234100000000023540000000002341000000000235100000000023540000000000000000000000000000004000000000000005100000000000011991995000000000000009999123100000010000000000000BRBBASACNOR3237
012013081462BBAS3T      030BRASIL      ON      NM061R$  000000000235600000000023610000000002356000000000235900000000023610000000000000000000000000000008000000000000008900000000000021001738000000000000009999123100000010000000000000BRBBASACNOR3237
012013081462BBAS3T      030BRASIL      ON      NM120R$  000000000241000000000024110000000002410000000000241000000000024110000000000000000000000000000002000000000000030000000000000072325152000000000000009999123100000010000000000000BRBBASACNOR3237
012013081462BBAS3T      030BRASIL      ON      NM180R$  000000000243100000000024320000000002431000000000243100000000024320000000000000000000000000000002000000000000003000000000000007295850000000000000009999123100000010000000000000BRBBASACNOR3237
012013081478BBASH18     070BBAS        ON      NM000R$  000000000053300000000005440000000000523000000000053300000000005260000000000000000000000000000036000000000000028200000000000015035400000000000180002013081900000010000000000000BRBBASACNOR3237
012013081478BBASH20     070BBAS        ON      NM000R$  000000000032600000000003590000000000325000000000033400000000003430000000000000000000000036800044000000000000033700000000000011258500000000000200002013081900000010000000000000BRBBASACNOR3237
012013081478BBASH21     070BBAS        ON      NM000R$  000000000021000000000002790000000000210000000000025700000000002730000000000235000000000028300043000000000000039600000000000010202700000000000207602013081900000010000000000000BRBBASACNOR3236
012013081478BBASH22     070BBAS        ON      NM000R$  000000000017500000000001820000000000149000000000016300000000001730000000000016000000000018900038000000000000038100000000000006219500000000000217602013081900000010000000000000BRBBASACNOR3236
012013081478BBASH23     070BBAS        ON      NM000R$  000000000006400000000000850000000000060000000000007200000000000800000000000078000000000008500062000000000000142400000000000010283300000000000227602013081900000010000000000000BRBBASACNOR3236
012013081478BBASH24     070BBAS        ON      NM000R$  000000000005000000000000500000000000030000000000004000000000000490000000000041000000000005300097000000000000335200000000000013708300000000000231702013081900000010000000000000BRBBASACNOR3233
012013081478BBASH25     070BBAS        ON      NM000R$  000000000000900000000000090000000000003000000000000500000000000050000000000003000000000000800019000000000000039800000000000000208400000000000241702013081900000010000000000000BRBBASACNOR3233
012013081478BBASI20     070BBAS        ON      NM000R$  000000000036000000000003600000000000360000000000036000000000003600000000000340000000000038000001000000000000001000000000000000360000000000000200002013091600000010000000000000BRBBASACNOR3237
012013081478BBASI21     070BBAS        ON      NM000R$  000000000026100000000002740000000000261000000000027100000000002740000000000250000000000000000004000000000000001200000000000000326200000000000210002013091600000010000000000000BRBBASACNOR3237
012013081478BBASI22     070BBAS  FM    ON      NM000R$  000000000019500000000002150000000000187000000000020000000000002090000000000148000000000021400067000000000000119200000000000023956100000000000217602013091600000010000000000000BRBBASACNOR3236
012013081478BBASI23     070BBAS  FM    ON      NM000R$  000000000011800000000001370000000000115000000000012400000000001310000000000110000000000013700066000000000000121700000000000015151500000000000227602013091600000010000000000000BRBBASACNOR3236
012013081478BBASI24     070BBAS  FM    ON      NM000R$  000000000006600000000000750000000000061000000000006700000000000720000000000070000000000007200061000000000000106100000000000007199600000000000237602013091600000010000000000000BRBBASACNOR3236
012013081478BBASI25     070BBAS  FM    ON      NM000R$  000000000003000000000000380000000000030000000000003300000000000370000000000034000000000004000044000000000000058600000000000001962000000000000246602013091600000010000000000000BRBBASACNOR3235
012013081478BBASI26     070BBAS  FM    ON      NM000R$  000000000001400000000000170000000000013000000000001400000000000170000000000016000000000002000015000000000000017000000000000000250000000000000256602013091600000010000000000000BRBBASACNOR3235
012013081478BBASI27     070BBAS        ON      NM000R$  000000000000600000000000060000000000006000000000000600000000000060000000000002000000000000700001000000000000005000000000000000030000000000000267602013091600000010000000000000BRBBASACNOR3236
012013081478BBASI28     070BBAS        ON      NM000R$  000000000000500000000000050000000000004000000000000400000000000050000000000001000000000001300003000000000000003900000000000000017500000000000276602013091600000010000000000000BRBBASACNOR3235
012013081478BBASJ22     070BBAS  FM    ON      NM000R$  000000000021200000000002310000000000210000000000021900000000002270000000000000000000000000000039000000000000070200000000000015390900000000000220002013102100000010000000000000BRBBASACNOR3237
012013081478BBASJ23     070BBAS  FM    ON      NM000R$  000000000017100000000001860000000000168000000000017700000000001840000000000000000000000000000022000000000000038400000000000006808000000000000226602013102100000010000000000000BRBBASACNOR3235
012013081478BBASJ24     070BBAS  FM    ON      NM000R$  000000000011000000000001190000000000103000000000011200000000001190000000000103000000000000000009000000000000010200000000000001146900000000000237602013102100000010000000000000BRBBASACNOR3236
012013081478BBASJ25     070BBAS  FM    ON      NM000R$  000000000006700000000000670000000000056000000000006100000000000660000000000017000000000007000006000000000000010900000000000000671600000000000250002013102100000010000000000000BRBBASACNOR3237
012013081478BBASJ26     070BBAS  FM    ON      NM000R$  000000000004100000000000450000000000040000000000004100000000000440000000000017000000000004900057000000000000014600000000000000608400000000000256602013102100000010000000000000BRBBASACNOR3235
012013081478BBASJ27     070BBAS        ON      NM000R$  000000000002500000000000260000000000023000000000002400000000000250000000000007000000000002500005000000000000016900000000000000419500000000000266602013102100000010000000000000BRBBASACNOR3235
012013081478BBASJ56     070BBAS        ON      NM000R$  000000000003200000000000320000000000032000000000003200000000000320000000000000000000000000000001000000000000005500000000000000176000000000000261602013102100000010000000000000BRBBASACNOR3235
012013081478BBASK24     070BBAS        ON      NM000R$  000000000011800000000001180000000000117000000000011700000000001180000000000000000000000000000007000000000000020000000000000002351000000000000240002013111800000010000000000000BRBBASACNOR3237
012013081478BBASL25     070BBAS        ON      NM000R$  000000000010000000000001000000000000100000000000010000000000001000000000000000000000000000000006000000000000016300000000000001630000000000000246602013121600000010000000000000BRBBASACNOR3235
012013081482BBAST22     080BBASE       ON      NM000R$  000000000000100000000000010000000000001000000000000100000000000010000000000000000000000000100002000000000000005000000000000000005000000000000217602013081900000010000000000000BRBBASACNOR3236
012013081482BBAST23     080BBASE       ON      NM000R$  000000000000700000000000080000000000007000000000000700000000000070000000000001000000000000000038000000000000110000000000000000820000000000000227602013081900000010000000000000BRBBASACNOR3236
012013081482BBAST24     080BBASE       ON      NM000R$  000000000001400000000000300000000000010000000000001500000000000300000000000009000000000006600042000000000000072000000000000001123300000000000231702013081900000010000000000000BRBBASACNOR3233
012013081482BBAST25     080BBASE       ON      NM000R$  000000000009000000000000900000000000090000000000009000000000000900000000000000000000000000000001000000000000001000000000000000090000000000000241702013081900000010000000000000BRBBASACNOR3233
012013081482BBASU20     080BBASE       ON      NM000R$  000000000000600000000000060000000000006000000000000600000000000060000000000005000000000003300001000000000000000300000000000000001800000000000200002013091600000010000000000000BRBBASACNOR3237
012013081482BBASU21     080BBASE FM    ON      NM000R$  000000000001400000000000140000000000012000000000001300000000000120000000000000000000000007000004000000000000003500000000000000047800000000000210002013091600000010000000000000BRBBASACNOR3237
012013081482BBASU22     080BBASE FM    ON      NM000R$  000000000002200000000000220000000000021000000000002100000000000210000000000020000000000003800005000000000000003900000000000000083500000000000217602013091600000010000000000000BRBBASACNOR3236
012013081482BBASU23     080BBASE FM    ON      NM000R$  000000000005100000000000520000000000044000000000004800000000000460000000000040000000000004800016000000000000023800000000000001151700000000000227602013091600000010000000000000BRBBASACNOR3236
012013081482BBASU24     080BBASE FM    ON      NM000R$  000000000008800000000000970000000000080000000000008900000000000820000000000066000000000000000019000000000000036200000000000003226200000000000237602013091600000010000000000000BRBBASACNOR3236
012013081482BBASV21     080BBASE FM    ON      NM000R$  000000000003000000000000300000000000030000000000003000000000000300000000000000000000000000000001000000000000000700000000000000021000000000000210002013102100000010000000000000BRBBASACNOR3237
012013081482BBASV22     080BBASE FM    ON      NM000R$  000000000005200000000000550000000000047000000000005100000000000470000000000046000000000000000007000000000000006400000000000000327600000000000220002013102100000010000000000000BRBBASACNOR3237
012013081482BBASV23     080BBASE FM    ON      NM000R$  000000000006800000000000750000000000066000000000006900000000000750000000000000000000000000000008000000000000010800000000000000748800000000000226602013102100000010000000000000BRBBASACNOR3235
012013081482BBASV24     080BBASE FM    ON      NM000R$  000000000012300000000001240000000000110000000000011700000000001200000000000000000000000000000029000000000000043700000000000005116200000000000237602013102100000010000000000000BRBBASACNOR3236
012013081482BBASW23     080BBASE       ON      NM000R$  000000000008500000000000860000000000082000000000008400000000000820000000000000000000000000000032000000000000060000000000000005081400000000000230002013111800000010000000000000BRBBASACNOR3237
012013081482BBASX24     080BBASE       ON      NM000R$  000000000014700000000001470000000000147000000000014700000000001470000000000000000000000000000001000000000000001200000000000000176400000000000240002013121600000010000000000000BRBBASACNOR3237
012013081482BBASX25     080BBASE       ON      NM000R$  000000000017500000000001820000000000175000000000017800000000001820000000000000000000000000000002000000000000002400000000000000428400000000000246602013121600000010000000000000BRBBASACNOR3235
012013081482BBASX26     080BBASE       ON      NM000R$  000000000022700000000002330000000000227000000000023000000000002330000000000000000000000000000002000000000000002400000000000000552000000000000256602013121600000010000000000000BRBBASACNOR3235
012013081482BBASX55     080BBASE       ON      NM000R$  000000000016400000000001710000000000164000000000016700000000001710000000000000000000000000000002000000000000002400000000000000402000000000000245702013121600000010000000000000BRBBASACNOR3233
012013081402BBDC3       010BRADESCO    ON      N1   R$  000000000323000000000032300000000003161000000000318800000000031850000000003184000000000318507163000000000001755600000000005598485800000000000000009999123100000010000000000000BRBBDCACNOR1605
012013081496BBDC3F      020BRADESCO    ON      N1   R$  000000000320000000000032290000000003152000000000319400000000032270000000003200000000000322700058000000000000001606000000000005130061000000000000009999123100000010000000000000BRBBDCACNOR1605
012013081402BBDC4       010BRADESCO    PN      N1   R$  000000000291300000000029490000000002900000000000292300000000029150000000002915000000000291931591000000000012466300000000036448914500000000000000009999123100000010000000000000BRBBDCACNPR8605
012013081496BBDC4F      020BRADESCO    PN      N1   R$  000000000295100000000029510000000002890000000000292500000000029390000000002927000000000293500218000000000000006375000000000018649809000000000000009999123100000010000000000000BRBBDCACNPR8605
012013081462BBDC4T      030BRADESCO    PN      N1036R$  000000000293600000000029370000000002936000000000293600000000029370000000000000000000000000000002000000000000002000000000000005872962000000000000009999123100000010000000000000BRBBDCACNPR8605
012013081462BBDC4T      030BRADESCO    PN      N1061R$  000000000298800000000029890000000002988000000000298800000000029890000000000000000000000000000002000000000000000100000000000000298859000000000000009999123100000010000000000000BRBBDCACNPR8605
012013081462BBDC4T      030BRADESCO    PN      N1090R$  000000000297100000000029720000000002971000000000297100000000029720000000000000000000000000000002000000000000000200000000000000594252000000000000009999123100000010000000000000BRBBDCACNPR8605
012013081478BBDCH25     070BBDC        PN      N1000R$  000000000045500000000004550000000000440000000000044500000000004470000000000000000000000000000013000000000000036400000000000016208600000000000247802013081900000010000000000000BRBBDCACNPR8602
012013081478BBDCH26     070BBDC        PN      N1000R$  000000000035700000000003570000000000340000000000034700000000003490000000000000000000000000000015000000000000043000000000000014930000000000000257802013081900000010000000000000BRBBDCACNPR8602
012013081478BBDCH27     070BBDC        PN      N1000R$  000000000023200000000002680000000000228000000000024700000000002420000000000000000000000000000034000000000000103100000000000025560400000000000267802013081900000010000000000000BRBBDCACNPR8602
012013081478BBDCH28     070BBDC        PN      N1000R$  000000000015300000000001720000000000132000000000015200000000001590000000000131000000000016000179000000000000101500000000000015441500000000000277802013081900000010000000000000BRBBDCACNPR8602
012013081478BBDCH29     070BBDC        PN      N1000R$  000000000005400000000000800000000000051000000000006600000000000560000000000055000000000000000138000000000000355500000000000023772400000000000287802013081900000010000000000000BRBBDCACNPR8602
012013081478BBDCH30     070BBDC        PN      N1000R$  000000000001000000000000190000000000009000000000001400000000000130000000000010000000000001500132000000000000099100000000000001415100000000000297802013081900000010000000000000BRBBDCACNPR8602
012013081478BBDCH31     070BBDC        PN      N1000R$  000000000000400000000000060000000000004000000000000500000000000060000000000003000000000000600017000000000000300000000000000001622900000000000307402013081900000010000000000000BRBBDCACNPR8600
012013081478BBDCI27     070BBDC        PN      N1000R$  000000000026800000000002980000000000268000000000027800000000002960000000000151000000000028500003000000000000000800000000000000223000000000000267802013091600000010000000000000BRBBDCACNPR8602
012013081478BBDCI28     070BBDC        PN      N1000R$  000000000018900000000002100000000000180000000000019600000000001960000000000000000000000000000079000000000000135700000000000026606200000000000277802013091600000010000000000000BRBBDCACNPR8602
012013081478BBDCI29     070BBDC        PN      N1000R$  000000000011700000000001380000000000112000000000012200000000001270000000000101000000000013900112000000000000129100000000000015798500000000000287802013091600000010000000000000BRBBDCACNPR8602
012013081478BBDCI30     070BBDC        PN      N1000R$  000000000006400000000000780000000000059000000000006800000000000690000000000052000000000007900155000000000000172900000000000011886300000000000297802013091600000010000000000000BRBBDCACNPR8602
012013081478BBDCI32     070BBDC        PN      N1000R$  000000000001900000000000190000000000014000000000001600000000000140000000000005000000000000000007000000000000014500000000000000235300000000000317802013091600000010000000000000BRBBDCACNPR8602
012013081478BBDCI75     070BBDCE       PN      N1000R$  000000000016700000000001670000000000166000000000016600000000001660000000000000000000000000000019000000000000006900000000000001150400000000000282302013091600000010000000000000BRBBDCACNPR8604
012013081478BBDCI81     070BBDC        PN      N1000R$  000000000003200000000000390000000000027000000000003400000000000340000000000006000000000003400206000000000000139700000000000004757900000000000307802013091600000010000000000000BRBBDCACNPR8602
012013081478BBDCJ27     070BBDC        PN      N1000R$  000000000032800000000003280000000000322000000000032700000000003220000000000000000000000000000002000000000000001200000000000000392400000000000267802013102100000010000000000000BRBBDCACNPR8602
012013081478BBDCJ29     070BBDC        PN      N1000R$  000000000017500000000001890000000000175000000000018100000000001840000000000000000000000000000026000000000000050000000000000009062400000000000287802013102100000010000000000000BRBBDCACNPR8602
012013081478BBDCJ30     070BBDC        PN      N1000R$  000000000011900000000001320000000000119000000000012500000000001260000000000000000000000000000025000000000000049300000000000006171300000000000297802013102100000010000000000000BRBBDCACNPR8602
012013081478BBDCJ31     070BBDC        PN      N1000R$  000000000008500000000000900000000000080000000000008400000000000810000000000010000000000009000006000000000000012000000000000001014000000000000307802013102100000010000000000000BRBBDCACNPR8602
012013081478BBDCJ32     070BBDC        PN      N1000R$  000000000005400000000000560000000000053000000000005400000000000530000000000000000000000006000004000000000000002900000000000000157600000000000317802013102100000010000000000000BRBBDCACNPR8602
012013081478BBDCJ58     070BBDC        PN      N1000R$  000000000022700000000002420000000000219000000000023300000000002230000000000000000000000000000039000000000000072300000000000016901100000000000280002013102100000010000000000000BRBBDCACNPR8605
012013081478BBDCK30     070BBDC        PN      N1000R$  000000000014600000000001460000000000140000000000014400000000001400000000000133000000000015500004000000000000003200000000000000462000000000000300002013111800000010000000000000BRBBDCACNPR8605
012013081478BBDCK32     070BBDC        PN      N1000R$  000000000006700000000000670000000000067000000000006700000000000670000000000000000000000000000003000000000000007000000000000000469000000000000317602013111800000010000000000000BRBBDCACNPR8601
012013081482BBDCT28     080BBDCE       PN      N1000R$  000000000000500000000000050000000000005000000000000500000000000050000000000001000000000000000001000000000000000100000000000000000500000000000277802013081900000010000000000000BRBBDCACNPR8602
012013081482BBDCT29     080BBDCE       PN      N1000R$  000000000001800000000000180000000000010000000000001200000000000110000000000010000000000000000071000000000000140700000000000001807000000000000287802013081900000010000000000000BRBBDCACNPR8602
012013081482BBDCT30     080BBDCE       PN      N1000R$  000000000006200000000000680000000000062000000000006600000000000680000000000000000000000000000035000000000000039000000000000002609000000000000297802013081900000010000000000000BRBBDCACNPR8602
012013081482BBDCT34     080BBDCE       PN      N1000R$  000000000013000000000001360000000000130000000000013200000000001360000000000000000000000000000006000000000000010300000000000001365800000000000305302013081900000010000000000000BRBBDCACNPR8595
012013081482BBDCU26     080BBDCE       PN      N1000R$  000000000001100000000000110000000000011000000000001100000000000110000000000008000000000000000002000000000000006000000000000000066000000000000259802013091600000010000000000000BRBBDCACNPR8604
012013081482BBDCU27     080BBDCE       PN      N1000R$  000000000001900000000000190000000000017000000000001800000000000170000000000000000000000003000007000000000000031900000000000000592100000000000267802013091600000010000000000000BRBBDCACNPR8602
012013081482BBDCU28     080BBDCE       PN      N1000R$  000000000003300000000000330000000000033000000000003300000000000330000000000000000000000000000001000000000000001000000000000000033000000000000277802013091600000010000000000000BRBBDCACNPR8602
012013081482BBDCU29     080BBDCE       PN      N1000R$  000000000006400000000000670000000000055000000000006100000000000630000000000000000000000000000017000000000000028700000000000001761000000000000287802013091600000010000000000000BRBBDCACNPR8602
012013081482BBDCU30     080BBDCE       PN      N1000R$  000000000010800000000001080000000000093000000000010300000000001040000000000000000000000012300022000000000000041400000000000004285500000000000297802013091600000010000000000000BRBBDCACNPR8602
012013081482BBDCU31     080BBDCE       PN      N1000R$  000000000002400000000000240000000000024000000000002400000000000240000000000000000000000000000001000000000000002000000000000000048000000000000272902013091600000010000000000000BRBBDCACNPR8590
012013081482BBDCU33     080BBDCE       PN      N1000R$  000000000009500000000001040000000000088000000000009700000000001040000000000000000000000000000009000000000000016200000000000001583200000000000297202013091600000010000000000000BRBBDCACNPR8598
012013081482BBDCU75     080BBDCE       PN      N1000R$  000000000004300000000000430000000000043000000000004300000000000430000000000000000000000000000001000000000000001000000000000000043000000000000282302013091600000010000000000000BRBBDCACNPR8604
012013081482BBDCU81     080BBDCE       PN      N1000R$  000000000016800000000001680000000000168000000000016800000000001680000000000000000000000000000001000000000000002000000000000000336000000000000307802013091600000010000000000000BRBBDCACNPR8602
012013081482BBDCV1      080BBDCE       PN      N1000R$  000000000023900000000002390000000000239000000000023900000000002390000000000000000000000000000001000000000000001000000000000000239000000000000314602013102100000010000000000000BRBBDCACNPR8603
012013081482BBDCV23     080BBDCE       PN      N1000R$  000000000000900000000000090000000000009000000000000900000000000090000000000000000000000000000001000000000000001900000000000000017100000000000230002013102100000010000000000000BRBBDCACNPR8605
012013081482BBDCV24     080BBDCE       PN      N1000R$  000000000001300000000000130000000000013000000000001300000000000130000000000000000000000000000001000000000000001100000000000000014300000000000239802013102100000010000000000000BRBBDCACNPR8604
012013081482BBDCV25     080BBDCE       PN      N1000R$  000000000002000000000000200000000000020000000000002000000000000200000000000000000000000000000001000000000000002000000000000000040000000000000249602013102100000010000000000000BRBBDCACNPR8603
012013081482BBDCV26     080BBDCE       PN      N1000R$  000000000003000000000000300000000000030000000000003000000000000300000000000000000000000000000001000000000000002000000000000000060000000000000259802013102100000010000000000000BRBBDCACNPR8604
012013081482BBDCV27     080BBDCE       PN      N1000R$  000000000004400000000000440000000000042000000000004200000000000430000000000000000000000000000003000000000000005200000000000000222800000000000267802013102100000010000000000000BRBBDCACNPR8602
012013081482BBDCV29     080BBDCE       PN      N1000R$  000000000008900000000000980000000000089000000000009400000000000980000000000000000000000000000003000000000000004200000000000000398800000000000287802013102100000010000000000000BRBBDCACNPR8602
012013081482BBDCV30     080BBDCE       PN      N1000R$  000000000013400000000001500000000000134000000000013900000000001420000000000000000000000000000017000000000000030400000000000004243400000000000297802013102100000010000000000000BRBBDCACNPR8602
012013081482BBDCV31     080BBDCE       PN      N1000R$  000000000019400000000001940000000000194000000000019400000000001940000000000000000000000000000001000000000000001000000000000000194000000000000307802013102100000010000000000000BRBBDCACNPR8602
012013081482BBDCV32     080BBDCE       PN      N1000R$  000000000026200000000002620000000000262000000000026200000000002620000000000000000000000000000001000000000000002000000000000000524000000000000317802013102100000010000000000000BRBBDCACNPR8602
012013081482BBDCV58     080BBDCE       PN      N1000R$  000000000007100000000000720000000000064000000000006900000000000720000000000000000000000000000003000000000000006000000000000000414000000000000280002013102100000010000000000000BRBBDCACNPR8605
012013081482BBDCW23     080BBDCE       PN      N1000R$  000000000001200000000000120000000000012000000000001200000000000120000000000000000000000000000001000000000000002000000000000000024000000000000230002013111800000010000000000000BRBBDCACNPR8605
012013081482BBDCW24     080BBDCE       PN      N1000R$  000000000001900000000000190000000000019000000000001900000000000190000000000000000000000000000001000000000000002000000000000000038000000000000240002013111800000010000000000000BRBBDCACNPR8605
012013081482BBDCW25     080BBDCE       PN      N1000R$  000000000002700000000000270000000000027000000000002700000000000270000000000000000000000000000001000000000000002000000000000000054000000000000249802013111800000010000000000000BRBBDCACNPR8604
012013081482BBDCW26     080BBDCE       PN      N1000R$  000000000004000000000000400000000000040000000000004000000000000400000000000000000000000000000001000000000000002000000000000000080000000000000259802013111800000010000000000000BRBBDCACNPR8604
012013081482BBDCW27     080BBDCE       PN      N1000R$  000000000005800000000000580000000000058000000000005800000000000580000000000000000000000000000001000000000000001000000000000000058000000000000269602013111800000010000000000000BRBBDCACNPR8603
012013081482BBDCW28     080BBDCE       PN      N1000R$  000000000007800000000000780000000000078000000000007800000000000780000000000000000000000000000001000000000000002000000000000000156000000000000277802013111800000010000000000000BRBBDCACNPR8602
012013081482BBDCW30     080BBDCE       PN      N1000R$  000000000016400000000001640000000000164000000000016400000000001640000000000000000000000000000001000000000000002000000000000000328000000000000300002013111800000010000000000000BRBBDCACNPR8605
012013081482BBDCW31     080BBDCE       PN      N1000R$  000000000021800000000002180000000000218000000000021800000000002180000000000000000000000000000001000000000000001000000000000000218000000000000310002013111800000010000000000000BRBBDCACNPR8605
012013081482BBDCW8      080BBDCE       PN      N1000R$  000000000002300000000000230000000000023000000000002300000000000230000000000000000000000000000001000000000000002000000000000000046000000000000246002013111800000010000000000000BRBBDCACNPR8592
012013081482BBDCW9      080BBDCE       PN      N1000R$  000000000011900000000001190000000000119000000000011900000000001190000000000000000000000000000001000000000000001000000000000000119000000000000290002013111800000010000000000000BRBBDCACNPR8605
012013081482BBDCX1      080BBDCE       PN      N1000R$  000000000021800000000002180000000000214000000000021600000000002140000000000000000000000000000002000000000000002400000000000000518400000000000307402013121600000010000000000000BRBBDCACNPR8600
012013081482BBDCX27     080BBDCE       PN      N1000R$  000000000007100000000000710000000000071000000000007100000000000710000000000000000000000000000001000000000000000500000000000000035500000000000269802013121600000010000000000000BRBBDCACNPR8604
012013081482BBDCX30     080BBDCE       PN      N1000R$  000000000007100000000000710000000000071000000000007100000000000710000000000000000000000000000001000000000000000990000000000000070290000000000269702013121600000010000000000000BRBBDCACNPR8597
012013081482BBDCX31     080BBDCE       PN      N1000R$  000000000010200000000001020000000000102000000000010200000000001020000000000000000000000000000001000000000000001000000000000000102000000000000278802013121600000010000000000000BRBBDCACNPR8597
012013081482BBDCX33     080BBDCE       PN      N1000R$  000000000016600000000001660000000000166000000000016600000000001660000000000000000000000000000001000000000000001200000000000000199200000000000297202013121600000010000000000000BRBBDCACNPR8598
012013081412BBFI11B     010FII BB PROGRCI      MB   R$  000000042400000000004240000000000422000000000042333300000004240000000000420500000000042400000006000000000000000033000000000013969995000000000000009999123100000010000000000000BRBBFICTF006197
012013081412BBPO11      010FII BB PRGIICI           R$  000000001099000000000111150000000010910000000001102500000000110000000000011000000000001104800249000000000000013758000000000151687421000000000000009999123100000010000000000000BRBBPOCTF003109
012013081412BBRC11      010FII BB CORP CI           R$  000000000954900000000095490000000009450000000000950000000000095000000000009500000000000954900012000000000000000128000000000001216072000000000000009999123100000010000000000000BRBBRCCTF004123
012013081402BBRK3       010BR BROKERS  ON      NM   R$  000000000056600000000005800000000000556000000000056400000000005640000000000564000000000056703068000000000001042600000000000588183100000000000000009999123100000010000000000000BRBBRKACNOR4108
012013081496BBRK3F      020BR BROKERS  ON      NM   R$  000000000056500000000005650000000000555000000000056400000000005550000000000511000000000056400006000000000000000240000000000000135368000000000000009999123100000010000000000000BRBBRKACNOR4108
012013081402BBSE3       010BBSEGURIDADEON      NM   R$  000000000195900000000019770000000001935000000000195400000000019400000000001938000000000194009663000000000003669100000000007170309300000000000000009999123100000010000000000000BRBBSEACNOR5100
012013081496BBSE3F      020BBSEGURIDADEON      NM   R$  000000000195800000000019750000000001912000000000195600000000019500000000001924000000000195000470000000000000012501000000000024463757000000000000009999123100000010000000000000BRBBSEACNOR5100
012013081462BBSE3T      030BBSEGURIDADEON      NM061R$  000000000197000000000019710000000001970000000000197000000000019710000000000000000000000000000002000000000000025000000000000049271712000000000000009999123100000010000000000000BRBBSEACNOR5100
012013081462BBSE3T      030BBSEGURIDADEON      NM090R$  000000000200600000000020080000000001974000000000199700000000020060000000000000000000000000000075000000000000450000000000000898989682000000000000009999123100000010000000000000BRBBSEACNOR5100
012013081402BBTG11      010BTG PACTUAL UNT EDJ      R$  000000000292000000000029590000000002840000000000290200000000029000000000002892000000000291001410000000000003041900000000008828247300000000000000009999123100000010000000000000BRBBTGUNT007105
012013081496BBTG11F     020BTG PACTUAL UNT EDJ      R$  000000000292000000000029230000000002868000000000289800000000028760000000002876000000000299600015000000000000000353000000000001023022000000000000009999123100000010000000000000BRBBTGUNT007105
012013081462BBTG11T     030BTG PACTUAL UNT EDJ   030R$  000000000292500000000029260000000002925000000000292500000000029260000000000000000000000000000002000000000000001700000000000004973793000000000000009999123100000010000000000000BRBBTGUNT007105
012013081462BBTG11T     030BTG PACTUAL UNT EDJ   090R$  000000000296900000000029700000000002925000000000296800000000029260000000000000000000000000000004000000000002505400000000007438419467000000000000009999123100000010000000000000BRBBTGUNT007105
012013081462BBTG11T     030BTG PACTUAL UNT EDJ   180R$  000000000304900000000030500000000003049000000000304900000000030500000000000000000000000000000002000000000000002000000000000006099689000000000000009999123100000010000000000000BRBBTGUNT007105
012013081412BBVJ11      010FII C JARDIMCI           R$  000000000804800000000080480000000007900000000000796500000000079030000000007902000000000804800037000000000000007249000000000057740369000000000000009999123100000010000000000000BRBBVJCTF001132
012013081412BCFF11B     010FII BC FFII CI  ER  MB   R$  000000000994000000000099850000000009851000000000997000000000099710000000009900000000000997100071000000000000000942000000000009392208000000000000009999123100000010000000000000BRBCFFCTF000141
012013081402BEEF3       010MINERVA     ON      NM   R$  000000000100900000000010380000000001009000000000102500000000010300000000001019000000000103002726000000000000583900000000000598551300000000000000009999123100000010000000000000BRBEEFACNOR6104
012013081496BEEF3F      020MINERVA     ON      NM   R$  000000000100100000000010400000000001000000000000102500000000010000000000001000000000000103900004000000000000000140000000000000143550000000000000009999123100000010000000000000BRBEEFACNOR6104
012013081402BEES3       010BANESTES    ON           R$  000000000004700000000000480000000000047000000000004700000000000480000000000047000000000004800006000000000000029500000000000001391800000000000000009999123100000010000000000000BRBEESACNOR9243
012013081402BEES4       010BANESTES    PN           R$  000000000004500000000000450000000000045000000000004500000000000450000000000044000000000004500001000000000000000100000000000000004500000000000000009999123100000010000000000000BRBEESACNPR6168
012013081410BEES9       010BANESTES    ON  REC      R$  000000000004100000000000450000000000041000000000004200000000000420000000000042000000000004500012000000000000058800000000000002469800000000000000009999123100000010000000000000BRBEESR03OR0241
012013081402BEMA3       010BEMATECH    ON  ED  NM   R$  000000000070800000000007100000000000674000000000069400000000007050000000000705000000000070600240000000000000111700000000000077613100000000000000009999123100000010000000000000BRBEMAACNOR0114
012013081496BEMA3F      020BEMATECH    ON  ED  NM   R$  000000000075000000000007500000000000689000000000072300000000006890000000000689000000000075000005000000000000000195000000000000141068000000000000009999123100000010000000000000BRBEMAACNOR0114
012013081462BEMA3T      030BEMATECH    ON  ED  NM120R$  000000000071200000000007130000000000712000000000071200000000007130000000000000000000000000000002000000000000000500000000000000356133000000000000009999123100000010000000000000BRBEMAACNOR0114
012013081402BGIP4       010BANESE      PN           R$  000000000479800000000047990000000004699000000000478200000000046990000000004662000000000499900003000000000000000600000000000002869300000000000000009999123100000010000000000000BRBGIPACNPR8178
012013081402BHGR3       010BHG         ON      NM   R$  000000000152900000000015310000000001491000000000151500000000014950000000001495000000000150000141000000000000068900000000000104448600000000000000009999123100000010000000000000BRBHGRACNOR9101
012013081402BICB4       010BICBANCO    PN      N1   R$  000000000034400000000003460000000000338000000000034400000000003450000000000344000000000034900083000000000000119800000000000041302500000000000000009999123100000010000000000000BRBICBACNPR7131
012013081496BICB4F      020BICBANCO    PN      N1   R$  000000000034200000000003420000000000342000000000034200000000003420000000000344000000000036000006000000000000000038000000000000012996000000000000009999123100000010000000000000BRBICBACNPR7131
012013081496BIOM3F      020BIOMM       ON           R$  000000000080000000000008000000000000800000000000080000000000008000000000000700000000000099900001000000000000000100000000000000080000000000000000009999123100000010000000000000BRBIOMACNOR2101
012013081402BIOM4       010BIOMM       PN           R$  000000000084000000000008400000000000840000000000084000000000008400000000000811000000000085000003000000000000007000000000000005880000000000000000009999123100000010000000000000BRBIOMACNPR9101
012013081496BIOM4F      020BIOMM       PN           R$  000000000085000000000008500000000000840000000000084900000000008400000000000800000000000084000002000000000000000220000000000000186800000000000000009999123100000010000000000000BRBIOMACNPR9101
012013081402BISA3       010BROOKFIELD  ON      NM   R$  000000000018600000000001940000000000184000000000019000000000001880000000000188000000000018911198000000000023207700000000004412156100000000000000009999123100000010000000000000BRBISAACNOR8109
012013081496BISA3F      020BROOKFIELD  ON      NM   R$  000000000018000000000001940000000000179000000000018900000000001880000000000181000000000019400041000000000000001195000000000000226499000000000000009999123100000010000000000000BRBISAACNOR8109
012013081462BISA3T      030BROOKFIELD  ON      NM061R$  000000000019400000000001950000000000194000000000019400000000001950000000000000000000000000000002000000000000004500000000000000875923000000000000009999123100000010000000000000BRBISAACNOR8109
012013081462BISA3T      030BROOKFIELD  ON      NM090R$  000000000018900000000001920000000000189000000000019000000000001920000000000000000000000000000004000000000000200000000000000038144260000000000000009999123100000010000000000000BRBISAACNOR8109
012013081412BJRC11      010FII JS RECIMCI           R$  000000008410000000000899990000000084100000000008747400000000898990000000089899000000008990000018000000000000000182000000000015920344000000000000009999123100000010000000000000BRBJRCCTF007109
012013081402BMIN4       010MERC INVEST PN           R$  000000000002400000000000240000000000024000000000002400000000000240000000000023000000000002400004000000000000004000000000000000096000000000000000009999123100000010000000000000BRBMINACNPR1159
012013081402BMKS3       010BIC MONARK  ON           R$  000000003286500000000328650000000032800000000003284300000000328000000000032802000000003490000006000000000000000011000000000000361283000000000000009999123100000010000000000000BRBMKSACNOR9155
012013081402BMTO4       010BRASMOTOR   PN           R$  000000000008700000000000870000000000084000000000008400000000000870000000000084000000000008700006000000000000014000000000000001189000000000000000009999123100000010000000000000BRBMTOACNPR6065
012013081402BNBR4       010NORD BRASIL PN           R$  000000000210000000000021000000000002100000000000210000000000021000000000002000000000000249300002000000000000000200000000000000420000000000000000009999123100000010000000000000BRBNBRACNPR5187
012013081414BOVA11      010ISHARES BOVACI           R$  000000000495500000000050280000000004917000000000497500000000049700000000004970000000000497713620000000000005115360000000025450869150000000000000009999123100000010000000000000BRBOVACTF003101
012013081496BOVA11F     020ISHARES BOVACI           R$  000000000496000000000050320000000004940000000000497700000000049900000000004950000000000499000024000000000000000057000000000000283712000000000000009999123100000010000000000000BRBOVACTF003101
012013081462BOVA11T     030ISHARES BOVACI        030R$  000000000501000000000050110000000005010000000000501000000000050110000000000000000000000000000002000000000000000300000000000001503100000000000000009999123100000010000000000000BRBOVACTF003101
012013081412BPFF11      010FII ABSOLUTOCI           R$  000000000890000000000089700000000008600000000000870400000000086500000000008620000000000873000051000000000000003397000000000029567685000000000000009999123100000010000000000000BRBPFFCTF002104
012013081402BPHA3       010BR PHARMA   ON      NM   R$  000000000097400000000010100000000000974000000000100500000000010060000000001005000000000101001835000000000001252400000000001259181200000000000000009999123100000010000000000000BRBPHAACNOR6102
012013081496BPHA3F      020BR PHARMA   ON      NM   R$  000000000100900000000010100000000001003000000000100700000000010030000000000991000000000106700003000000000000000100000000000000100752000000000000009999123100000010000000000000BRBPHAACNOR6102
012013081462BPHA3T      030BR PHARMA   ON      NM030R$  000000000101500000000010160000000001015000000000101500000000010160000000000000000000000000000002000000000000003000000000000003047886000000000000009999123100000010000000000000BRBPHAACNOR6102
012013081402BPNM4       010PANAMERICANOPN      N1   R$  000000000056300000000005720000000000547000000000055300000000005560000000000552000000000055600209000000000000153000000000000084707900000000000000009999123100000010000000000000BRBPNMACNPR6111
012013081496BPNM4F      020PANAMERICANOPN      N1   R$  000000000056000000000005600000000000530000000000054600000000005520000000000548000000000059300008000000000000000246000000000000134345000000000000009999123100000010000000000000BRBPNMACNPR6111
012013081462BPNM4T      030PANAMERICANOPN      N1030R$  000000000055100000000005520000000000551000000000055100000000005520000000000000000000000000000004000000000000001000000000000000551890000000000000009999123100000010000000000000BRBPNMACNPR6111
012013081402BRAP3       010BRADESPAR   ON      N1   R$  000000000206900000000021070000000002069000000000208900000000020800000000002080000000000209400033000000000000011200000000000023407900000000000000009999123100000010000000000000BRBRAPACNOR5124
012013081496BRAP3F      020BRADESPAR   ON      N1   R$  000000000200000000000021000000000002000000000000203200000000020070000000002002000000000209400006000000000000000175000000000000355737000000000000009999123100000010000000000000BRBRAPACNOR5124
012013081402BRAP4       010BRADESPAR   PN      N1   R$  000000000253500000000025900000000002529000000000255500000000025520000000002552000000000255809302000000000002747400000000007020724100000000000000009999123100000010000000000000BRBRAPACNPR2124
012013081496BRAP4F      020BRADESPAR   PN      N1   R$  000000000251800000000025890000000002518000000000255300000000025410000000002540000000000255800035000000000000001090000000000002783132000000000000009999123100000010000000000000BRBRAPACNPR2124
012013081478BRAPI25     070BRAP        PN      N1000R$  000000000010900000000001090000000000109000000000010900000000001090000000000000000000000000000002000000000000002700000000000000294300000000000250002013091600000010000000000000BRBRAPACNPR2124
012013081478BRAPI26     070BRAP        PN      N1000R$  000000000005900000000000590000000000059000000000005900000000000590000000000000000000000000000001000000000000002700000000000000159300000000000260002013091600000010000000000000BRBRAPACNPR2124
012013081478BRAPI28     070BRAP        PN      N1000R$  000000000002100000000000210000000000021000000000002100000000000210000000000000000000000000000004000000000000010800000000000000226800000000000280002013091600000010000000000000BRBRAPACNPR2124
012013081478BRAPL30     070BRAP        PN      N1000R$  000000000003400000000000340000000000034000000000003400000000000340000000000000000000000000000001000000000000680000000000000023120000000000000300002013121600000010000000000000BRBRAPACNPR2124
012013081482BRAPX22     080BRAPE       PN      N1000R$  000000000001600000000000160000000000016000000000001600000000000160000000000000000000000000000001000000000000680000000000000010880000000000000220002013121600000010000000000000BRBRAPACNPR2124
012013081482BRAPX24     080BRAPE       PN      N1000R$  000000000005100000000000510000000000051000000000005100000000000510000000000000000000000000000001000000000000680000000000000034680000000000000240002013121600000010000000000000BRBRAPACNPR2124
012013081414BRAX11      010ISHARES BRAXCI           R$  000000000408600000000040860000000004086000000000408600000000040860000000000000000000000000000002000000000000001680000000000006864480000000000000009999123100000010000000000000BRBRAXCTF002100
012013081412BRCR11      010FII BC FUND CI  ER       R$  000000001290200000000129020000000012718000000001277900000000127240000000012724000000001279903158000000000000052667000000000673047491000000000000009999123100000010000000000000BRBRCRCTF000132
012013081402BRFS3       010BRF SA      ON      NM   R$  000000000521400000000054200000000005214000000000537300000000053850000000005382000000000539021557000000000007749800000000041647103200000000000000009999123100000010000000000000BRBRFSACNOR8110
012013081496BRFS3F      020BRF SA      ON      NM   R$  000000000524000000000054160000000005111000000000535500000000053790000000005390000000000539600317000000000000009722000000000052048122000000000000009999123100000010000000000000BRBRFSACNOR8110
012013081478BRFSH47     070BRFS        ON      NM000R$  000000000066400000000006640000000000664000000000066400000000006640000000000000000000000000000001000000000000435000000000000288840000000000000470002013081900000010000000000000BRBRFSACNOR8110
012013081478BRFSI47     070BRFS        ON      NM000R$  000000000069600000000006960000000000696000000000069600000000006960000000000000000000000000000001000000000000435000000000000302760000000000000470002013091600000010000000000000BRBRFSACNOR8110
012013081478BRFSI51     070BRFS        ON      NM000R$  000000000036200000000003630000000000362000000000036200000000003630000000000000000000000000000002000000000000390000000000000141375000000000000510002013091600000010000000000000BRBRFSACNOR8110
012013081478BRFSJ57     070BRFS        ON      NM000R$  000000000009500000000000950000000000095000000000009500000000000950000000000000000000000000000002000000000000050000000000000004750000000000000570002013102100000010000000000000BRBRFSACNOR8110
012013081482BRFSU44     080BRFSE       ON      NM000R$  000000000000100000000000010000000000001000000000000100000000000010000000000000000000000000000001000000000000390000000000000000390000000000000440002013091600000010000000000000BRBRFSACNOR8110
012013081482BRFSU47     080BRFSE       ON      NM000R$  000000000000200000000000020000000000002000000000000200000000000020000000000000000000000000000001000000000000390000000000000000780000000000000470002013091600000010000000000000BRBRFSACNOR8110
012013081482BRFSU50     080BRFSE       ON      NM000R$  000000000003800000000000380000000000038000000000003800000000000380000000000000000000000000000001000000000000500000000000000019000000000000000500002013091600000010000000000000BRBRFSACNOR8110
012013081482BRFSU52     080BRFSE       ON      NM000R$  000000000005000000000000510000000000050000000000005000000000000510000000000000000000000000000003000000000000002200000000000000112000000000000520002013091600000010000000000000BRBRFSACNOR8110
012013081402BRIN3       010BR INSURANCEON      NM   R$  000000000234100000000024000000000002273000000000230000000000023150000000002315000000000233201697000000000000450800000000001036915600000000000000009999123100000010000000000000BRBRINACNOR3105
012013081496BRIN3F      020BR INSURANCEON      NM   R$  000000000232700000000023270000000002280000000000229400000000022800000000002291000000000249200011000000000000000155000000000000355596000000000000009999123100000010000000000000BRBRINACNOR3105
012013081402BRIV3       010ALFA INVEST ON  EJ       R$  000000000062100000000006210000000000616000000000062000000000006160000000000615000000000067600003000000000000000600000000000000372100000000000000009999123100000010000000000000BRBRIVACNOR6197
012013081402BRIV4       010ALFA INVEST PN  EJ       R$  000000000059800000000005980000000000597000000000059700000000005970000000000572000000000059800002000000000000000200000000000000119500000000000000009999123100000010000000000000BRBRIVACNPR3197
012013081402BRKM3       010BRASKEM     ON      N1   R$  000000000123600000000012600000000001209000000000123000000000012600000000001222000000000126000019000000000000006300000000000007749600000000000000009999123100000010000000000000BRBRKMACNOR1110
012013081402BRKM5       010BRASKEM     PNA     N1   R$  000000000178600000000018100000000001755000000000179400000000018090000000001808000000000180912630000000000003009900000000005401174200000000000000009999123100000010000000000000BRBRKMACNPA4110
012013081496BRKM5F      020BRASKEM     PNA     N1   R$  000000000176200000000018130000000001762000000000179100000000018130000000001775000000000181300044000000000000001002000000000001795179000000000000009999123100000010000000000000BRBRKMACNPA4110
012013081462BRKM5T      030BRASKEM     PNA     N1016R$  000000000179600000000017970000000001796000000000179600000000017970000000000000000000000000000002000000000000001000000000000001796046000000000000009999123100000010000000000000BRBRKMACNPA4110
012013081402BRML3       010BR MALLS PARON      NM   R$  000000000200000000000020300000000001953000000000199800000000020100000000002009000000000201518693000000000006056000000000012104590300000000000000009999123100000010000000000000BRBRMLACNOR9105
012013081496BRML3F      020BR MALLS PARON      NM   R$  000000000200000000000020300000000001970000000000200500000000020230000000001992000000000204000056000000000000001539000000000003085730000000000000009999123100000010000000000000BRBRMLACNOR9105
012013081462BRML3T      030BR MALLS PARON      NM030R$  000000000203700000000020380000000002008000000000201400000000020090000000000000000000000000000004000000000000002500000000000005036514000000000000009999123100000010000000000000BRBRMLACNOR9105
012013081462BRML3T      030BR MALLS PARON      NM061R$  000000000202500000000020260000000002025000000000202500000000020260000000000000000000000000000002000000000000005000000000000010126863000000000000009999123100000010000000000000BRBRMLACNOR9105
012013081402BRPR3       010BR PROPERT  ON      NM   R$  000000000190100000000019470000000001896000000000192400000000019330000000001933000000000193809598000000000003248700000000006252010300000000000000009999123100000010000000000000BRBRPRACNOR9112
012013081496BRPR3F      020BR PROPERT  ON      NM   R$  000000000190000000000019650000000001881000000000192400000000019600000000001950000000000198000032000000000000000952000000000001832045000000000000009999123100000010000000000000BRBRPRACNOR9112
012013081402BRSR6       010BANRISUL    PNB     N1   R$  000000000145600000000014790000000001443000000000145400000000014450000000001445000000000145004274000000000000842200000000001224694000000000000000009999123100000010000000000000BRBRSRACNPB4133
012013081496BRSR6F      020BANRISUL    PNB     N1   R$  000000000146700000000014780000000001416000000000145900000000014160000000001416000000000145000036000000000000000981000000000001431181000000000000009999123100000010000000000000BRBRSRACNPB4133
012013081402BSEV3       010BIOSEV      ON      NM   R$  000000000107000000000010810000000001012000000000107700000000010120000000001012000000000103200031000000000000224200000000000241507400000000000000009999123100000010000000000000BRBSEVACNOR3100
012013081496BSEV3F      020BIOSEV      ON      NM   R$  000000000110000000000011000000000001026000000000105800000000010670000000001026000000000114900007000000000000000139000000000000147148000000000000009999123100000010000000000000BRBSEVACNOR3100
012013081482BSEVS99     080BSEVE       ON      NM000R$  000000000046400000000004800000000000464000000000047800000000004800000000000400000000000052500004000000000000008000000000000003830400000000000165702014072100000010000000000000BRBSEVACNOR3100
012013081402BTOW3       010B2W DIGITAL ON      NM   R$  000000000147500000000015400000000001445000000000148000000000014800000000001480000000000151705790000000000001803800000000002670590400000000000000009999123100000010000000000000BRBTOWACNOR8105
012013081496BTOW3F      020B2W DIGITAL ON      NM   R$  000000000148400000000015490000000001458000000000148400000000014860000000001480000000000153800047000000000000001517000000000002251413000000000000009999123100000010000000000000BRBTOWACNOR8105
012013081402BTTL3       010BATTISTELLA ON           R$  000000000008700000000000880000000000087000000000008700000000000880000000000081000000000008800003000000000000002400000000000000208900000000000000009999123100000010000000000000BRBTTLACNOR0105
012013081402BTTL4       010BATTISTELLA PN           R$  000000000009900000000001020000000000099000000000009900000000001020000000000101000000000010200013000000000000075900000000000007532400000000000000009999123100000010000000000000BRBTTLACNPR7105
012013081402BVMF3       010BMFBOVESPA  ON      NM   R$  000000000118600000000011860000000001139000000000115400000000011560000000001156000000000115732876000000000022539200000000026032254100000000000000009999123100000010000000000000BRBVMFACNOR3125
012013081496BVMF3F      020BMFBOVESPA  ON      NM   R$  000000000118900000000011890000000001141000000000115700000000011580000000001158000000000116500183000000000000005036000000000005828910000000000000009999123100000010000000000000BRBVMFACNOR3125
012013081462BVMF3T      030BMFBOVESPA  ON      NM016R$  000000000116400000000011650000000001150000000000115300000000011520000000000000000000000000000006000000000000099000000000000114154078000000000000009999123100000010000000000000BRBVMFACNOR3125
012013081462BVMF3T      030BMFBOVESPA  ON      NM030R$  000000000117100000000011740000000001163000000000116400000000011640000000000000000000000000000013000000000000103100000000000120019711000000000000009999123100000010000000000000BRBVMFACNOR3125
012013081462BVMF3T      030BMFBOVESPA  ON      NM061R$  000000000116700000000011700000000001158000000000116800000000011590000000000000000000000000000008000000000000056000000000000065446734000000000000009999123100000010000000000000BRBVMFACNOR3125
012013081462BVMF3T      030BMFBOVESPA  ON      NM090R$  000000000119600000000011970000000001196000000000119600000000011970000000000000000000000000000002000000000000000300000000000000358938000000000000009999123100000010000000000000BRBVMFACNOR3125
012013081478BVMFH11     070BVMF        ON      NM000R$  000000000008800000000000880000000000053000000000006200000000000590000000000059000000000006200227000000000000347700000000000021725700000000000110002013081900000010000000000000BRBVMFACNOR3125
012013081478BVMFH12     070BVMF        ON      NM000R$  000000000001200000000000120000000000004000000000000600000000000050000000000004000000000000500173000000000000449100000000000002974000000000000120002013081900000010000000000000BRBVMFACNOR3125
012013081478BVMFH13     070BVMF        ON      NM000R$  000000000000100000000000010000000000001000000000000100000000000010000000000000000000000000100016000000000000102000000000000000102000000000000128902013081900000010000000000000BRBVMFACNOR3124
012013081478BVMFH15     070BVMF        ON      NM000R$  000000000000100000000000010000000000001000000000000100000000000010000000000000000000000000100001000000000000001500000000000000001500000000000150002013081900000010000000000000BRBVMFACNOR3125
012013081478BVMFH40     070BVMF        ON      NM000R$  000000000009500000000000960000000000095000000000009500000000000960000000000000000000000000000002000000000000000200000000000000019100000000000105002013081900000010000000000000BRBVMFACNOR3125
012013081478BVMFH41     070BVMF        ON      NM000R$  000000000003800000000000380000000000017000000000002400000000000240000000000021000000000000000011000000000000021800000000000000541200000000000115002013081900000010000000000000BRBVMFACNOR3125
012013081478BVMFH42     070BVMF        ON      NM000R$  000000000000200000000000020000000000002000000000000200000000000020000000000000000000000009300002000000000000002500000000000000005000000000000125002013081900000010000000000000BRBVMFACNOR3125
012013081478BVMFH43     070BVMF        ON      NM000R$  000000000000200000000000020000000000002000000000000200000000000020000000000000000000000003000001000000000000001000000000000000002000000000000135002013081900000010000000000000BRBVMFACNOR3125
012013081478BVMFH62     070BVMFE       ON      NM000R$  000000000000300000000000030000000000003000000000000300000000000030000000000000000000000000000001000000000000002100000000000000006300000000000122502013081900000010000000000000BRBVMFACNOR3125
012013081478BVMFI11     070BVMF        ON      NM000R$  000000000009900000000000990000000000078000000000008800000000000850000000000075000000000009000034000000000000055900000000000004933500000000000110002013091600000010000000000000BRBVMFACNOR3125
012013081478BVMFI12     070BVMF  FM    ON      NM000R$  000000000003900000000000390000000000027000000000003200000000000320000000000031000000000003200255000000000000596200000000000019584900000000000120002013091600000010000000000000BRBVMFACNOR3125
012013081478BVMFI13     070BVMF  FM    ON      NM000R$  000000000001000000000000100000000000008000000000000900000000000080000000000008000000000001100104000000000000482700000000000004394700000000000130002013091600000010000000000000BRBVMFACNOR3125
012013081478BVMFI14     070BVMF        ON      NM000R$  000000000000300000000000030000000000003000000000000300000000000030000000000002000000000000300008000000000000068000000000000000204000000000000140002013091600000010000000000000BRBVMFACNOR3125
012013081478BVMFI15     070BVMF        ON      NM000R$  000000000000100000000000010000000000001000000000000100000000000010000000000000000000000000200001000000000000000800000000000000000800000000000150002013091600000010000000000000BRBVMFACNOR3125
012013081478BVMFI41     070BVMF  FM    ON      NM000R$  000000000006500000000000670000000000047000000000005500000000000520000000000000000000000000000038000000000000117300000000000006453700000000000115002013091600000010000000000000BRBVMFACNOR3125
012013081478BVMFI42     070BVMF  FM    ON      NM000R$  000000000002000000000000210000000000014000000000001600000000000170000000000012000000000004500082000000000000265100000000000004379600000000000125002013091600000010000000000000BRBVMFACNOR3125
012013081478BVMFI43     070BVMF  FM    ON      NM000R$  000000000000500000000000050000000000005000000000000500000000000050000000000000000000000002300006000000000000014400000000000000072000000000000135002013091600000010000000000000BRBVMFACNOR3125
012013081478BVMFJ12     070BVMF  FM    ON      NM000R$  000000000005700000000000570000000000044000000000004800000000000520000000000000000000000000000021000000000000043700000000000002123100000000000120002013102100000010000000000000BRBVMFACNOR3125
012013081478BVMFJ13     070BVMF  FM    ON      NM000R$  000000000002200000000000220000000000017000000000001800000000000170000000000003000000000000000010000000000000022400000000000000406700000000000130002013102100000010000000000000BRBVMFACNOR3125
012013081478BVMFJ41     070BVMF  FM    ON      NM000R$  000000000008400000000000840000000000069000000000007400000000000700000000000000000000000000000009000000000000023300000000000001729700000000000115002013102100000010000000000000BRBVMFACNOR3125
012013081478BVMFJ42     070BVMF  FM    ON      NM000R$  000000000003700000000000370000000000028000000000003300000000000290000000000000000000000000000006000000000000023500000000000000782000000000000125002013102100000010000000000000BRBVMFACNOR3125
012013081478BVMFK12     070BVMF        ON      NM000R$  000000000006900000000000690000000000059000000000006100000000000590000000000000000000000000000003000000000000002000000000000000123600000000000120002013111800000010000000000000BRBVMFACNOR3125
012013081478BVMFK13     070BVMF        ON      NM000R$  000000000002900000000000290000000000029000000000002900000000000290000000000000000000000000000001000000000000000900000000000000026100000000000130002013111800000010000000000000BRBVMFACNOR3125
012013081478BVMFL13     070BVMF        ON      NM000R$  000000000004800000000000480000000000040000000000004100000000000400000000000005000000000011000003000000000000003700000000000000152000000000000130002013121600000010000000000000BRBVMFACNOR3125
012013081482BVMFT11     080BVMFE       ON      NM000R$  000000000000500000000000090000000000003000000000000600000000000060000000000001000000000000800113000000000000072100000000000000451000000000000110002013081900000010000000000000BRBVMFACNOR3125
012013081482BVMFT12     080BVMFE       ON      NM000R$  000000000003500000000000590000000000033000000000004900000000000480000000000035000000000000000075000000000000051300000000000002552000000000000120002013081900000010000000000000BRBVMFACNOR3125
012013081482BVMFT13     080BVMFE       ON      NM000R$  000000000012700000000001400000000000127000000000013300000000001400000000000000000000000000000002000000000000002000000000000000267000000000000128902013081900000010000000000000BRBVMFACNOR3124
012013081482BVMFT14     080BVMFE       ON      NM000R$  000000000023300000000002430000000000233000000000023900000000002430000000000000000000000000000005000000000000014500000000000003473500000000000138902013081900000010000000000000BRBVMFACNOR3124
012013081482BVMFT41     080BVMFE       ON      NM000R$  000000000001600000000000230000000000016000000000001900000000000170000000000001000000000000000013000000000000023300000000000000445200000000000115002013081900000010000000000000BRBVMFACNOR3125
012013081482BVMFT42     080BVMFE       ON      NM000R$  000000000009300000000000930000000000093000000000009300000000000930000000000005000000000000000001000000000000000600000000000000055800000000000125002013081900000010000000000000BRBVMFACNOR3125
012013081482BVMFT43     080BVMFE       ON      NM000R$  000000000019400000000002050000000000193000000000019700000000001980000000000000000000000000000011000000000000030500000000000006024000000000000135002013081900000010000000000000BRBVMFACNOR3125
012013081482BVMFT61     080BVMFE       ON      NM000R$  000000000001800000000000340000000000018000000000003000000000000300000000000000000000000000000004000000000000005200000000000000161000000000000117502013081900000010000000000000BRBVMFACNOR3125
012013081482BVMFT62     080BVMFE       ON      NM000R$  000000000005200000000000740000000000052000000000005400000000000740000000000000000000000000000002000000000000000800000000000000043800000000000122502013081900000010000000000000BRBVMFACNOR3125
012013081482BVMFU10     080BVMFE       ON      NM000R$  000000000000600000000000060000000000006000000000000600000000000060000000000000000000000005500001000000000000002500000000000000015000000000000100002013091600000010000000000000BRBVMFACNOR3125
012013081482BVMFU11     080BVMFE FM    ON      NM000R$  000000000001900000000000290000000000017000000000002300000000000220000000000009000000000003000035000000000000075900000000000001784100000000000110002013091600000010000000000000BRBVMFACNOR3125
012013081482BVMFU12     080BVMFE FM    ON      NM000R$  000000000005700000000000760000000000053000000000006600000000000660000000000045000000000000000071000000000000142900000000000009572400000000000120002013091600000010000000000000BRBVMFACNOR3125
012013081482BVMFU13     080BVMFE       ON      NM000R$  000000000012500000000001250000000000125000000000012500000000001250000000000000000000000016400001000000000000001000000000000000125000000000000130002013091600000010000000000000BRBVMFACNOR3125
012013081482BVMFU41     080BVMFE FM    ON      NM000R$  000000000003500000000000490000000000033000000000003900000000000460000000000000000000000005100027000000000000046600000000000001855200000000000115002013091600000010000000000000BRBVMFACNOR3125
012013081482BVMFU42     080BVMFE FM    ON      NM000R$  000000000009000000000001130000000000090000000000010300000000001020000000000000000000000000000015000000000000043600000000000004505800000000000125002013091600000010000000000000BRBVMFACNOR3125
012013081482BVMFU43     080BVMFE       ON      NM000R$  000000000019100000000001910000000000191000000000019100000000001910000000000000000000000000000001000000000000000500000000000000095500000000000135002013091600000010000000000000BRBVMFACNOR3125
012013081482BVMFV11     080BVMFE FM    ON      NM000R$  000000000003200000000000420000000000032000000000003800000000000330000000000030000000000004000007000000000000021100000000000000820900000000000110002013102100000010000000000000BRBVMFACNOR3125
012013081482BVMFV12     080BVMFE FM    ON      NM000R$  000000000007000000000000870000000000070000000000008100000000000760000000000000000000000010000015000000000000040900000000000003323000000000000120002013102100000010000000000000BRBVMFACNOR3125
012013081482BVMFV41     080BVMFE FM    ON      NM000R$  000000000004800000000000610000000000048000000000005500000000000520000000000000000000000000000012000000000000042100000000000002335800000000000115002013102100000010000000000000BRBVMFACNOR3125
012013081482BVMFW11     080BVMFE       ON      NM000R$  000000000004500000000000450000000000045000000000004500000000000450000000000000000000000000000001000000000000000200000000000000009000000000000110002013111800000010000000000000BRBVMFACNOR3125
012013081482BVMFX11     080BVMFE       ON      NM000R$  000000000005000000000000500000000000050000000000005000000000000500000000000000000000000005500001000000000000000300000000000000015000000000000110002013121600000010000000000000BRBVMFACNOR3125
012013081496CALI3F      020CONST A LINDON           R$  000000001500000000000150000000000015000000000001500000000000150000000000015000000000003500000001000000000000000001000000000000015000000000000000009999123100000010000000000000BRCALIACNOR1127
012013081496CALI4F      020CONST A LINDPN           R$  000000001500000000000150000000000015000000000001500000000000150000000000013000000000002499900009000000000000000011000000000000165000000000000000009999123100000010000000000000BRCALIACNPR8131
012013081402CAMB4       010CAMBUCI     PN           R$  000000000017800000000001780000000000178000000000017800000000001780000000000183000000000019600001000000000000000100000000000000017800000000000000009999123100000010000000000000BRCAMBACNPR1117
012013081496CAMB4F      020CAMBUCI     PN           R$  000000000017000000000001700000000000166000000000016800000000001660000000000165000000000019000002000000000000000002000000000000000336000000000000009999123100000010000000000000BRCAMBACNPR1117
012013081402CARD3       010CSU CARDSYSTON      NM   R$  000000000033000000000003300000000000319000000000032100000000003210000000000317000000000032100028000000000000021700000000000006972600000000000000009999123100000010000000000000BRCARDACNOR9105
012013081496CARD3F      020CSU CARDSYSTON      NM   R$  000000000032100000000003210000000000321000000000032100000000003210000000000321000000000032800001000000000000000008000000000000002568000000000000009999123100000010000000000000BRCARDACNOR9105
012013081402CBEE3       010AMPLA ENERG ON *         R$  000000000013000000000001300000000000130000000000013000000000001300000000000120000000000013600004000000000006000000000000000000780000000000000000009999123100010000000000000000BRCBEEACNOR3149
012013081496CBMA3F      020COBRASMA    ON           R$  000000000000500000000000050000000000005000000000000500000000000050000000000005000000000000700001000000000000000001000000000000000005000000000000009999123100000010000000000000BRCBMAACNOR4124
012013081402CBMA4       010COBRASMA    PN           R$  000000000000400000000000040000000000004000000000000400000000000040000000000003000000000000400010000000000000390000000000000001560000000000000000009999123100000010000000000000BRCBMAACNPR1124
012013081496CBMA4F      020COBRASMA    PN           R$  000000000000400000000000040000000000003000000000000300000000000040000000000003000000000000400007000000000000017302000000000000069207000000000000009999123100000010000000000000BRCBMAACNPR1124
012013081408CCHI3       010CHIARELLI   ON           R$  000000000003000000000000300000000000029000000000002900000000000290000000000029000000000003000015000000000000230000000000000006710000000000000000009999123100000010000000000000BRCCHIACNOR5123
012013081496CCHI3F      020CHIARELLI   ON           R$  000000000002700000000000310000000000027000000000002900000000000300000000000029000000000003000004000000000000005500000000000000163500000000000000009999123100000010000000000000BRCCHIACNOR5123
012013081408CCHI4       010CHIARELLI   PN           R$  000000000002200000000000230000000000022000000000002200000000000230000000000021000000000002400002000000000000020000000000000000450000000000000000009999123100000010000000000000BRCCHIACNPR2122
012013081402CCPR3       010CYRE COM-CCPON      NM   R$  000000000219300000000022400000000002185000000000218900000000021910000000002190000000000225000007000000000000002700000000000005911600000000000000009999123100000010000000000000BRCCPRACNOR9107
012013081402CCRO3       010CCR SA      ON      NM   R$  000000000176900000000017950000000001734000000000176700000000017380000000001738000000000174524578000000000012667400000000022395228500000000000000009999123100000010000000000000BRCCROACNOR2122
012013081496CCRO3F      020CCR SA      ON      NM   R$  000000000173300000000017980000000001733000000000176400000000017360000000001750000000000175700070000000000000002347000000000004138927000000000000009999123100000010000000000000BRCCROACNOR2122
012013081462CCRO3T      030CCR SA      ON      NM061R$  000000000180600000000018070000000001806000000000180600000000018070000000000000000000000000000002000000000000003000000000000005420844000000000000009999123100000010000000000000BRCCROACNOR2122
012013081462CCRO3T      030CCR SA      ON      NM090R$  000000000182400000000018250000000001824000000000182400000000018250000000000000000000000000000002000000000000000300000000000000547434000000000000009999123100000010000000000000BRCCROACNOR2122
012013081462CCRO3T      030CCR SA      ON      NM180R$  000000000187100000000018720000000001870000000000187000000000018710000000000000000000000000000006000000000000005000000000000009352229000000000000009999123100000010000000000000BRCCROACNOR2122
012013081478CCROH17     070CCRO        ON      NM000R$  000000000007500000000000750000000000075000000000007500000000000750000000000000000000000000000001000000000000000100000000000000007500000000000170002013081900000010000000000000BRCCROACNOR2122
012013081402CCXC3       010CCX CARVAO  ON      NM   R$  000000000008500000000001010000000000082000000000008900000000000990000000000099000000000010001605000000000006041300000000000543727800000000000000009999123100000010000000000000BRCCXCACNOR5100
012013081496CCXC3F      020CCX CARVAO  ON      NM   R$  000000000008700000000001000000000000084000000000009100000000000950000000000095000000000010000031000000000000001115000000000000102549000000000000009999123100000010000000000000BRCCXCACNOR5100
012013081462CCXC3T      030CCX CARVAO  ON      NM030R$  000000000008300000000000950000000000083000000000008400000000000950000000000000000000000000000008000000000000852000000000000071770609000000000000009999123100000010000000000000BRCCXCACNOR5100
012013081402CEBR5       010CEB         PNA          R$  000000000190000000000019000000000001900000000000190000000000019000000000001800000000000248800005000000000000001400000000000002660000000000000000009999123100000010000000000000BRCEBRACNPA8113
012013081402CEBR6       010CEB         PNB          R$  000000000169900000000016990000000001699000000000169900000000016990000000001500000000000169900001000000000000000100000000000000169900000000000000009999123100000010000000000000BRCEBRACNPB6113
012013081402CEEB3       010COELBA      ON           R$  000000000325000000000032500000000003250000000000325000000000032500000000003250000000000350000001000000000000000100000000000000325000000000000000009999123100000010000000000000BRCEEBACNOR3163
012013081462CEEB3T      030COELBA      ON        180R$  000000000339900000000034000000000003399000000000339900000000034000000000000000000000000000000002000000000000000100000000000000339950000000000000009999123100000010000000000000BRCEEBACNOR3163
012013081412CEOC11B     010FII CEO CCP CI  ER  MB   R$  000000000913500000000091490000000009000000000000907300000000090000000000008990000000000900000051000000000000001478000000000013411320000000000000009999123100000010000000000000BRCEOCCTF003109
012013081402CESP3       010CESP        ON      N1   R$  000000000172000000000017200000000001720000000000172000000000017200000000001688000000000170900001000000000000000100000000000000172000000000000000009999123100000010000000000000BRCESPACNOR3159
012013081402CESP6       010CESP        PNB     N1   R$  000000000213800000000021660000000002114000000000213700000000021500000000002139000000000215006729000000000001668700000000003567364600000000000000009999123100000010000000000000BRCESPACNPB4118
012013081496CESP6F      020CESP        PNB     N1   R$  000000000215000000000021830000000002105000000000213900000000021430000000002105000000000217000020000000000000000629000000000001345609000000000000009999123100000010000000000000BRCESPACNPB4118
012013081478CESPH50     070CESP        PNB     N1000R$  000000000008000000000000800000000000080000000000008000000000000800000000000000000000000000000002000000000000003000000000000000240000000000000205002013081900000010000000000000BRCESPACNPB4118
012013081478CESPI50     070CESP        PNB     N1000R$  000000000009500000000000950000000000095000000000009500000000000950000000000000000000000000000002000000000000003000000000000000285000000000000205002013091600000010000000000000BRCESPACNPB4118
012013081402CGAS3       010COMGAS      ON           R$  000000000519900000000052030000000005198000000000519900000000052020000000005155000000000525000009000000000000004000000000000020798600000000000000009999123100000010000000000000BRCGASACNOR0132
012013081402CGAS5       010COMGAS      PNA          R$  000000000567100000000057480000000005671000000000570100000000057000000000005700000000000572800077000000000000012100000000000068985800000000000000009999123100000010000000000000BRCGASACNPA3129
012013081402CGRA3       010GRAZZIOTIN  ON           R$  000000000166000000000016600000000001660000000000166000000000016600000000001605000000000166000001000000000000000100000000000000166000000000000000009999123100000010000000000000BRCGRAACNOR2061
012013081402CGRA4       010GRAZZIOTIN  PN           R$  000000000169900000000017500000000001690000000000170300000000016990000000001699000000000170000149000000000000034300000000000058417000000000000000009999123100000010000000000000BRCGRAACNPR9061
012013081402CIEL3       010CIELO       ON      NM   R$  000000000563000000000056870000000005600000000000564100000000056580000000005634000000000565810131000000000002359900000000013314235900000000000000009999123100000010000000000000BRCIELACNOR3111
012013081496CIEL3F      020CIELO       ON      NM   R$  000000000563600000000056850000000005602000000000565000000000056300000000005601000000000563900093000000000000002293000000000012955215000000000000009999123100000010000000000000BRCIELACNOR3111
012013081402CIQU4       010CACIQUE     PN           R$  000000000063300000000006600000000000633000000000063900000000006600000000000750000000000090000003000000000000000400000000000000255900000000000000009999123100000010000000000000BRCIQUACNPR5157
012013081402CLSC4       010CELESC      PN      N2   R$  000000000184000000000018600000000001815000000000183300000000018300000000001767000000000183000059000000000000012200000000000022365400000000000000009999123100000010000000000000BRCLSCACNPR3107
012013081458CMGR3       010CEMAT       ON           R$  000000000046100000000005400000000000461000000000048300000000005400000000000422000000000055000006000000000000000700000000000000338500000000000000009999123100000010000000000000BRCMGRACNOR7114
012013081402CMIG3       010CEMIG       ON      N1   R$  000000000203100000000020400000000001980000000000200500000000020220000000002004000000000202200610000000000000466200000000000935106400000000000000009999123100000010000000000000BRCMIGACNOR6208
012013081496CMIG3F      020CEMIG       ON      N1   R$  000000000203100000000020500000000001986000000000201500000000020150000000002040000000000205000048000000000000001370000000000002761414000000000000009999123100000010000000000000BRCMIGACNOR6208
012013081462CMIG3T      030CEMIG       ON      N1030R$  000000000201400000000020150000000002014000000000201400000000020150000000000000000000000000000002000000000000000200000000000000402840000000000000009999123100000010000000000000BRCMIGACNOR6208
012013081462CMIG3T      030CEMIG       ON      N1061R$  000000000203400000000020350000000002034000000000203400000000020350000000000000000000000000000002000000000000001000000000000002034295000000000000009999123100000010000000000000BRCMIGACNOR6208
012013081402CMIG4       010CEMIG       PN      N1   R$  000000000206400000000020830000000002005000000000202600000000020120000000002012000000000201615023000000000006523700000000013217422200000000000000009999123100000010000000000000BRCMIGACNPR3208
012013081496CMIG4F      020CEMIG       PN      N1   R$  000000000206400000000020840000000002007000000000203900000000020350000000002010000000000203700218000000000000005382000000000010973931000000000000009999123100000010000000000000BRCMIGACNPR3208
012013081462CMIG4T      030CEMIG       PN      N1016R$  000000000203800000000020390000000002018000000000202600000000020190000000000000000000000000000004000000000000001600000000000003241732000000000000009999123100000010000000000000BRCMIGACNPR3208
012013081462CMIG4T      030CEMIG       PN      N1030R$  000000000207400000000020850000000002022000000000204000000000020270000000000000000000000000000018000000000000041100000000000083857366000000000000009999123100000010000000000000BRCMIGACNPR3208
012013081462CMIG4T      030CEMIG       PN      N1090R$  000000000205500000000020560000000002055000000000205500000000020560000000000000000000000000000002000000000000000500000000000001027744000000000000009999123100000010000000000000BRCMIGACNPR3208
012013081462CMIG4T      030CEMIG       PN      N1099R$  000000000205700000000020580000000002057000000000205700000000020580000000000000000000000000000002000000000000030000000000000061735689000000000000009999123100000010000000000000BRCMIGACNPR3208
012013081478CMIGH21     070CMIG        PN      N1000R$  000000000001100000000000110000000000011000000000001100000000000110000000000000000000000000000001000000000000000100000000000000001100000000000210002013081900000010000000000000BRCMIGACNPR3208
012013081478CMIGI20     070CMIG        PN      N1000R$  000000000009500000000000950000000000095000000000009500000000000950000000000040000000000000000002000000000000000200000000000000019000000000000200002013091600000010000000000000BRCMIGACNPR3208
012013081478CMIGJ22     070CMIG        PN      N1000R$  000000000008200000000000820000000000082000000000008200000000000820000000000000000000000000000001000000000000250000000000000020500000000000000220002013102100000010000000000000BRCMIGACNPR3208
012013081412CNES11B     010FII CENESP  CI      MB   R$  000000001255900000000126000000000012500000000001255200000000125500000000012400000000001270000015000000000000005409000000000067894368000000000000009999123100000010000000000000BRCNESCTF001124
012013081402COCE3       010COELCE      ON           R$  000000000411900000000041200000000004070000000000409800000000041000000000004000000000000410000017000000000000003200000000000013115800000000000000009999123100000010000000000000BRCOCEACNOR0132
012013081402COCE5       010COELCE      PNA          R$  000000000390200000000040000000000003899000000000395100000000039500000000003950000000000397000230000000000000046300000000000182967000000000000000009999123100000010000000000000BRCOCEACNPA3133
012013081496COCE5F      020COELCE      PNA          R$  000000000396100000000040000000000003933000000000396100000000040000000000003901000000000400000016000000000000000294000000000001164754000000000000009999123100000010000000000000BRCOCEACNPA3133
012013081462COCE5S      030COELCE      PNA       090R$  000000000406000000000040610000000004060000000000406000000000040610000000000000000000000000000002000000000000000600000000000002436310000000000000009999123100000010000000000000BRCOCEACNPA3133
012013081402CPFE3       010CPFL ENERGIAON      NM   R$  000000000216000000000022000000000002142000000000216700000000021750000000002175000000000219907451000000000001495100000000003240284200000000000000009999123100000010000000000000BRCPFEACNOR0121
012013081496CPFE3F      020CPFL ENERGIAON      NM   R$  000000000214600000000022270000000002146000000000217900000000021880000000002145000000000219900040000000000000001139000000000002482072000000000000009999123100000010000000000000BRCPFEACNOR0121
012013081402CPLE3       010COPEL       ON      N1   R$  000000000233600000000023880000000002334000000000236000000000023600000000002265000000000236000030000000000000018400000000000043440700000000000000009999123100000010000000000000BRCPLEACNOR8128
012013081402CPLE6       010COPEL       PNB     N1   R$  000000000313500000000031350000000003040000000000308500000000030870000000003087000000000308904881000000000000879500000000002713731600000000000000009999123100000010000000000000BRCPLEACNPB9125
012013081496CPLE6F      020COPEL       PNB     N1   R$  000000000309500000000031690000000003042000000000309100000000031300000000003041000000000311500036000000000000000961000000000002970945000000000000009999123100000010000000000000BRCPLEACNPB9125
012013081462CPLE6T      030COPEL       PNB     N1030R$  000000000311100000000031120000000003111000000000311100000000031120000000000000000000000000000002000000000000003000000000000009333963000000000000009999123100000010000000000000BRCPLEACNPB9125
012013081402CPRE3       010CPFL RENOVAVON      NM   R$  000000000120000000000012100000000001170000000000120500000000012100000000001210000000000121400015000000000000027800000000000033513100000000000000009999123100000010000000000000BRCPREACNOR5100
012013081496CPRE3F      020CPFL RENOVAVON      NM   R$  000000000120000000000012000000000001200000000000120000000000012000000000001189000000000120000006000000000000000103000000000000123600000000000000009999123100000010000000000000BRCPREACNOR5100
012013081462CPRE3T      030CPFL RENOVAVON      NM016R$  000000000120300000000012040000000001203000000000120300000000012040000000000000000000000000000002000000000000001900000000000002287440000000000000009999123100000010000000000000BRCPREACNOR5100
012013081402CRDE3       010CR2         ON      NM   R$  000000000041100000000004110000000000408000000000040900000000004100000000000410000000000041500008000000000000009600000000000003931200000000000000009999123100000010000000000000BRCRDEACNOR1108
012013081496CRDE3F      020CR2         ON      NM   R$  000000000044000000000004400000000000440000000000044000000000004400000000000384000000000044000001000000000000000022000000000000009680000000000000009999123100000010000000000000BRCRDEACNOR1108
012013081402CREM3       010CREMER      ON      NM   R$  000000000148000000000014800000000001440000000000145800000000014590000000001439000000000145900010000000000000015700000000000022905200000000000000009999123100000010000000000000BRCREMACNOR2166
012013081496CREM3F      020CREMER      ON      NM   R$  000000000147700000000014770000000001460000000000146800000000014600000000001401000000000147000002000000000000000100000000000000146850000000000000009999123100000010000000000000BRCREMACNOR2166
012013081462CREM3T      030CREMER      ON      NM061R$  000000000147400000000014750000000001474000000000147400000000014750000000000000000000000000000002000000000000000300000000000000442394000000000000009999123100000010000000000000BRCREMACNOR2166
012013081402CRIV4       010ALFA FINANC PN  EJ       R$  000000000049000000000004900000000000471000000000047200000000004710000000000463000000000048900005000000000000001500000000000000709300000000000000009999123100000010000000000000BRCRIVACNPR1190
012013081402CRUZ3       010SOUZA CRUZ  ON           R$  000000000265200000000026750000000002613000000000263500000000026240000000002624000000000262509051000000000002082700000000005489719700000000000000009999123100000010000000000000BRCRUZACNOR0246
012013081496CRUZ3F      020SOUZA CRUZ  ON           R$  000000000264500000000026810000000002604000000000264600000000026700000000002610000000000267000126000000000000002053000000000005434185000000000000009999123100000010000000000000BRCRUZACNOR0246
012013081462CRUZ3T      030SOUZA CRUZ  ON        016R$  000000000264100000000026420000000002641000000000264100000000026420000000000000000000000000000002000000000000002000000000000005283574000000000000009999123100000010000000000000BRCRUZACNOR0246
012013081462CRUZ3T      030SOUZA CRUZ  ON        030R$  000000000264800000000026490000000002648000000000264800000000026490000000000000000000000000000002000000000000000300000000000000794444000000000000009999123100000010000000000000BRCRUZACNOR0246
012013081462CRUZ3T      030SOUZA CRUZ  ON        061R$  000000000268500000000026860000000002685000000000268500000000026860000000000000000000000000000002000000000000006900000000000018528190000000000000009999123100000010000000000000BRCRUZACNOR0246
012013081462CRUZ3T      030SOUZA CRUZ  ON        180R$  000000000277300000000027740000000002773000000000277300000000027740000000000000000000000000000002000000000000001000000000000002773992000000000000009999123100000010000000000000BRCRUZACNOR0246
012013081402CSAB4       010SEG AL BAHIAPN           R$  000000000300000000000030000000000003000000000000300000000000030000000000002708000000000302900002000000000000001000000000000003000000000000000000009999123100000010000000000000BRCSABACNPR8051
012013081402CSAN3       010COSAN       ON      NM   R$  000000000415800000000042120000000004023000000000409800000000040750000000004057000000000407507792000000000002519200000000010324023000000000000000009999123100000010000000000000BRCSANACNOR6108
012013081496CSAN3F      020COSAN       ON      NM   R$  000000000415600000000042050000000004006000000000409700000000040500000000004050000000000410000080000000000000002099000000000008595890000000000000009999123100000010000000000000BRCSANACNOR6108
012013081462CSAN3T      030COSAN       ON      NM016R$  000000000417800000000041790000000004080000000000412900000000040810000000000000000000000000000004000000000000002000000000000008258541000000000000009999123100000010000000000000BRCSANACNOR6108
