00COTAHIST.2013BOVESPA 20130820                                                                                                                                                                                                                      
012013082002AAPL11B     010APPLE       DRN     MB   R$  000000001214400000000121440000000012069000000001209700000000120690000000011925000000001207000002000000000000001300000000000015727200000000000000009999123100000010000000000000BRAAPLBDR004105
012013082096ABCB10F     020ABC BRASIL  PN  REC N2   R$  000000000119000000000011900000000001190000000000119000000000011900000000000000000000000119000001000000000000000001000000000000001190000000000000009999123100000010000000000000BRABCBR04PR3119
012013082002ABCB4       010ABC BRASIL  PN      N2   R$  000000000118500000000012000000000001173000000000119000000000011900000000001189000000000119000607000000000000127300000000000151595400000000000000009999123100000010000000000000BRABCBACNPR4120
012013082096ABCB4F      020ABC BRASIL  PN      N2   R$  000000000124700000000012470000000001180000000000120500000000011800000000001183000000000121100003000000000000000195000000000000235105000000000000009999123100000010000000000000BRABCBACNPR4120
012013082012ABCP11      010FII ABC IMOBCI           R$  000000000094900000000009500000000000919000000000094100000000009190000000000904000000000094900006000000000000001017000000000000957079000000000000009999123100000010000000000000BRABCPCTF000214
012013082002ABRE11      010ABRIL EDUCA UNT     N2   R$  000000000307000000000031960000000003054000000000315600000000031890000000003185000000000318900553000000000000451900000000001426395900000000000000009999123100000010000000000000BRABRECDAM15102
012013082096ABRE11F     020ABRIL EDUCA UNT     N2   R$  000000000310000000000032000000000003095000000000314800000000031750000000003107000000000319800020000000000000000338000000000001064164000000000000009999123100000010000000000000BRABRECDAM15102
012013082002ABTT11B     010ABBOTT      DRN     MB   R$  000000000210400000000021040000000002104000000000210400000000021040000000002050000000000209000001000000000000001400000000000002945600000000000000009999123100000010000000000000BRABTTBDR007107
012013082002AEDU3       010ANHANGUERA  ON      NM   R$  000000000127500000000012940000000001257000000000127600000000012840000000001281000000000128405508000000000004502500000000005749174200000000000000009999123100000010000000000000BRAEDUACNOR9107
012013082096AEDU3F      020ANHANGUERA  ON      NM   R$  000000000128500000000013000000000001260000000000127700000000012910000000001270000000000131000023000000000000000703000000000000898011000000000000009999123100000010000000000000BRAEDUACNOR9107
012013082062AEDU3S      030ANHANGUERA  ON      NM090R$  000000000131400000000013150000000001314000000000131400000000013150000000000000000000000000000002000000000000002300000000000003023191000000000000009999123100000010000000000000BRAEDUACNOR9107
012013082062AEDU3T      030ANHANGUERA  ON      NM016R$  000000000129000000000012910000000001290000000000129000000000012910000000000000000000000000000002000000000000000400000000000000516107000000000000009999123100000010000000000000BRAEDUACNOR9107
012013082078AEDUI42     070AEDU        ON      NM000R$  000000000002500000000000250000000000025000000000002500000000000250000000000000000000000000000003000000000000100000000000000002500000000000000125002013091600000010000000000000BRAEDUACNOR9107
012013082012AEFI11      010FII AESAPAR CI           R$  000000001240200000000125500000000012400000000001246100000000125500000000012375000000001255000084000000000000001351000000000016834915000000000000009999123100000010000000000000BRAEFICTF002120
012013082002AELP3       010AES ELPA    ON           R$  000000000077900000000008000000000000779000000000079100000000008000000000000732000000000080000006000000000000006100000000000004831000000000000000009999123100000010000000000000BRAELPACNOR2119
012013082012AGCX11      010FII AG CAIXACI           R$  000000009910300000000993000000000099101000000009912800000000991010000000099102000000009930000011000000000000000205000000000020321361000000000000009999123100000010000000000000BRAGCXCTF003109
012013082002AGRO3       010BRASILAGRO  ON      NM   R$  000000000089600000000009400000000000896000000000092300000000009250000000000923000000000092900082000000000000079200000000000073110100000000000000009999123100000010000000000000BRAGROACNOR7102
012013082062AGRO3T      030BRASILAGRO  ON      NM181R$  000000000097500000000009760000000000975000000000097500000000009760000000000000000000000000000002000000000000005000000000000004876868000000000000009999123100000010000000000000BRAGROACNOR7102
012013082002ALLL3       010ALL AMER LATON      NM   R$  000000000087500000000008900000000000850000000000087000000000008500000000000850000000000085505538000000000002746400000000002388448300000000000000009999123100000010000000000000BRALLLACNOR6118
012013082096ALLL3F      020ALL AMER LATON      NM   R$  000000000087000000000009090000000000855000000000087000000000008550000000000855000000000087000057000000000000001433000000000001241495000000000000009999123100000010000000000000BRALLLACNOR6118
012013082062ALLL3T      030ALL AMER LATON      NM016R$  000000000086400000000008650000000000864000000000086400000000008650000000000000000000000000000002000000000000001000000000000000864702000000000000009999123100000010000000000000BRALLLACNOR6118
012013082062ALLL3T      030ALL AMER LATON      NM030R$  000000000087700000000008790000000000877000000000087700000000008790000000000000000000000000000004000000000000007500000000000006583362000000000000009999123100000010000000000000BRALLLACNOR6118
012013082062ALLL3T      030ALL AMER LATON      NM090R$  000000000087100000000008720000000000871000000000087100000000008720000000000000000000000000000002000000000000002000000000000001743356000000000000009999123100000010000000000000BRALLLACNOR6118
012013082012ALMI11B     010FII TORRE ALCI      MB   R$  000000030860200000003137000000000308100000000030999100000003137000000000310000000000031409000009000000000000000035000000000010849703000000000000009999123100000010000000000000BRALMICTF003204
012013082002ALPA3       010ALPARGATAS  ON  EJ  N1   R$  000000000115400000000011790000000001153000000000115500000000011790000000001151000000000117800011000000000000007600000000000008778900000000000000009999123100000010000000000000BRALPAACNOR0203
012013082002ALPA4       010ALPARGATAS  PN  EJ  N1   R$  000000000130600000000013070000000001270000000000128300000000012710000000001270000000000127101860000000000000558600000000000717127700000000000000009999123100000010000000000000BRALPAACNPR7203
012013082096ALPA4F      020ALPARGATAS  PN  EJ  N1   R$  000000000130400000000013290000000001200000000000128900000000013130000000001211000000000133000065000000000000001139000000000001468900000000000000009999123100000010000000000000BRALPAACNPR7203
012013082062ALPA4T      030ALPARGATAS  PN  EJ  N1062R$  000000000131400000000013150000000001314000000000131400000000013150000000000000000000000000000002000000000000005000000000000006570072000000000000009999123100000010000000000000BRALPAACNPR7203
012013082078ALPAC45     070ALPAE   /EJ PN      N1000R$  000000000006400000000000640000000000064000000000006400000000000640000000000000000000000000000001000000000000150000000000000009600000000000000152502014031700000010000000000000BRALPAACNPR7203
012013082082ALPAO43     080ALPAE   /EJ PN      N1000R$  000000000009900000000000990000000000099000000000009900000000000990000000000000000000000000000003000000000000150000000000000014850000000000000135002014031700000010000000000000BRALPAACNPR7203
012013082082ALPAO52     080ALPAE   /EJ PN      N1000R$  000000000003500000000000350000000000035000000000003500000000000350000000000000000000000000000001000000000000150000000000000005250000000000000122502014031700000010000000000000BRALPAACNPR7203
012013082002ALSC3       010ALIANSCE    ON      NM   R$  000000000191300000000019280000000001861000000000188400000000018650000000001865000000000187303528000000000000854000000000001609471300000000000000009999123100000010000000000000BRALSCACNOR0104
012013082096ALSC3F      020ALIANSCE    ON      NM   R$  000000000191500000000019150000000001868000000000188600000000018680000000001867000000000227700005000000000000000180000000000000339536000000000000009999123100000010000000000000BRALSCACNOR0104
012013082002ALUP11      010ALUPAR      UNT     N2   R$  000000000170900000000017090000000001676000000000168900000000016760000000001676000000000168400231000000000000106200000000000179426500000000000000009999123100000010000000000000BRALUPCDAM15100
012013082096ALUP11F     020ALUPAR      UNT     N2   R$  000000000171000000000017140000000001612000000000168500000000016120000000001610000000000171500009000000000000000241000000000000406186000000000000009999123100000010000000000000BRALUPCDAM15100
012013082002AMAR3       010LOJAS MARISAON      NM   R$  000000000193800000000019450000000001879000000000191500000000019000000000001899000000000191901270000000000000373900000000000716260800000000000000009999123100000010000000000000BRAMARACNOR4109
012013082096AMAR3F      020LOJAS MARISAON      NM   R$  000000000195000000000019500000000001881000000000191300000000019240000000001925000000000217000013000000000000000232000000000000443909000000000000009999123100000010000000000000BRAMARACNOR4109
012013082062AMAR3T      030LOJAS MARISAON      NM030R$  000000000195000000000019550000000001950000000000195200000000019550000000000000000000000000000004000000000000004800000000000009371218000000000000009999123100000010000000000000BRAMARACNOR4109
012013082062AMAR3T      030LOJAS MARISAON      NM090R$  000000000197600000000019770000000001976000000000197600000000019770000000000000000000000000000002000000000000000100000000000000197616000000000000009999123100000010000000000000BRAMARACNOR4109
012013082002AMBV3       010AMBEV       ON           R$  000000000861500000000086150000000008290000000000841300000000083000000000008298000000000830001489000000000000308600000000002596322300000000000000009999123100000010000000000000BRAMBVACNOR4153
012013082096AMBV3F      020AMBEV       ON           R$  000000000872000000000087200000000008206000000000841700000000084000000000008400000000000858900047000000000000001172000000000009862542000000000000009999123100000010000000000000BRAMBVACNOR4153
012013082062AMBV3T      030AMBEV       ON        016R$  000000000839000000000083910000000008390000000000839000000000083910000000000000000000000000000002000000000000010000000000000083902596000000000000009999123100000010000000000000BRAMBVACNOR4153
012013082062AMBV3T      030AMBEV       ON        030R$  000000000853900000000085400000000008539000000000853900000000085400000000000000000000000000000002000000000000001000000000000008539125000000000000009999123100000010000000000000BRAMBVACNOR4153
012013082062AMBV3T      030AMBEV       ON        090R$  000000000866100000000086620000000008661000000000866100000000086620000000000000000000000000000002000000000000003000000000000025984494000000000000009999123100000010000000000000BRAMBVACNOR4153
012013082002AMBV4       010AMBEV       PN           R$  000000000860500000000086300000000008281000000000842600000000083050000000008305000000000831712169000000000002547000000000021461813800000000000000009999123100000010000000000000BRAMBVACNPR1153
012013082096AMBV4F      020AMBEV       PN           R$  000000000864000000000086400000000008288000000000842400000000082880000000008282000000000828800276000000000000006309000000000053136917000000000000009999123100000010000000000000BRAMBVACNPR1153
012013082062AMBV4T      030AMBEV       PN        016R$  000000000850500000000085060000000008338000000000834500000000083390000000000000000000000000000004000000000000007300000000000060919165000000000000009999123100000010000000000000BRAMBVACNPR1153
012013082062AMBV4T      030AMBEV       PN        030R$  000000000856400000000085830000000008363000000000853000000000083640000000000000000000000000000022000000000000010900000000000092979911000000000000009999123100000010000000000000BRAMBVACNPR1153
012013082062AMBV4T      030AMBEV       PN        062R$  000000000853700000000085380000000008438000000000848200000000084390000000000000000000000000000008000000000000016700000000000141656970000000000000009999123100000010000000000000BRAMBVACNPR1153
012013082062AMBV4T      030AMBEV       PN        090R$  000000000847400000000084750000000008474000000000847400000000084750000000000000000000000000000002000000000000000600000000000005084653000000000000009999123100000010000000000000BRAMBVACNPR1153
012013082062AMBV4T      030AMBEV       PN        181R$  000000000874600000000087470000000008746000000000874600000000087470000000000000000000000000000002000000000000000200000000000001749240000000000000009999123100000010000000000000BRAMBVACNPR1153
012013082078AMBVI86     070AMBV        PN        000R$  000000000014300000000001430000000000109000000000013100000000001090000000000080000000000014000007000000000000005500000000000000720500000000000860002013091600000010000000000000BRAMBVACNPR1153
012013082078AMBVI87     070AMBV        PN        000R$  000000000008700000000000870000000000087000000000008700000000000870000000000000000000000019100001000000000000000100000000000000008700000000000870002013091600000010000000000000BRAMBVACNPR1153
012013082078AMBVI88     070AMBV        PN        000R$  000000000008400000000000840000000000030000000000008300000000000320000000000020000000000000000008000000000000162600000000000013601000000000000880002013091600000010000000000000BRAMBVACNPR1153
012013082082AMBVU83     080AMBVE       PN        000R$  000000000009700000000000980000000000097000000000009700000000000980000000000000000000000000000004000000000000150000000000000014587500000000000830002013091600000010000000000000BRAMBVACNPR1153
012013082002ARMT11B     010ARCELOR     DRN     MB   R$  000000000160000000000016000000000001600000000000160000000000016000000000001570000000000160000001000000000000000900000000000001440000000000000000009999123100000010000000000000BRARMTBDR008111
012013082002ARTR3       010ARTERIS     ON      NM   R$  000000000229900000000022990000000002270000000000227900000000022760000000002272000000000227602783000000000001524100000000003473575000000000000000009999123100000010000000000000BRARTRACNOR3101
012013082096ARTR3F      020ARTERIS     ON      NM   R$  000000000228000000000023330000000002267000000000228300000000023330000000002266000000000233300038000000000000000643000000000001468502000000000000009999123100000010000000000000BRARTRACNOR3101
012013082002ARZZ3       010AREZZO CO   ON      NM   R$  000000000362500000000037120000000003470000000000361100000000034700000000003470000000000348200624000000000000160900000000000581106300000000000000009999123100000010000000000000BRARZZACNOR3109
012013082096ARZZ3F      020AREZZO CO   ON      NM   R$  000000000369500000000037800000000003520000000000359000000000037800000000003250000000000365000016000000000000000401000000000001439892000000000000009999123100000010000000000000BRARZZACNOR3109
012013082002ATTB11B     010ATT INC     DRN     MB   R$  000000000819000000000081900000000008190000000000819000000000081900000000007991000000000823100001000000000000000500000000000004095000000000000000009999123100000010000000000000BRATTBBDR007104
012013082002AUTM3       010AUTOMETAL   ON      NM   R$  000000000191000000000019510000000001908000000000193600000000019500000000001950000000000195100342000000000000061100000000000118329900000000000000009999123100000010000000000000BRAUTMACNOR8109
012013082096AUTM3F      020AUTOMETAL   ON      NM   R$  000000000192500000000019460000000001925000000000193700000000019380000000001505000000000200000010000000000000000262000000000000507630000000000000009999123100000010000000000000BRAUTMACNOR8109
012013082002AXPB11B     010AMERICAN EXPDRN     MB   R$  000000001779000000000178610000000017790000000001784300000000178610000000017518000000001804400002000000000000000400000000000007137300000000000000009999123100000010000000000000BRAXPBBDR007105
012013082002AZEV4       010AZEVEDO     PN           R$  000000000016600000000001660000000000166000000000016600000000001660000000000166000000000017400001000000000000001000000000000000166000000000000000009999123100000010000000000000BRAZEVACNPR7113
012013082002BAHI3       010BAHEMA      ON           R$  000000000047500000000004750000000000475000000000047500000000004750000000000471000000000050000004000000000000003500000000000001662500000000000000009999123100000010000000000000BRBAHIACNOR1066
012013082002BAZA3       010AMAZONIA    ON           R$  000000000003300000000000340000000000032000000000003200000000000330000000000033000000000003400018000000000000095000000000000003125000000000000000009999123100000010000000000000BRBAZAACNOR0163
012013082096BAZA3F      020AMAZONIA    ON           R$  000000000003100000000000310000000000031000000000003100000000000310000000000031000000000003500001000000000000000164000000000000005084000000000000009999123100000010000000000000BRBAZAACNOR0163
012013082002BBAS3       010BRASIL      ON      NM   R$  000000000225000000000022870000000002230000000000225900000000022300000000002229000000000223013074000000000005215700000000011785503500000000000000009999123100000010000000000000BRBBASACNOR3237
012013082096BBAS3F      020BRASIL      ON      NM   R$  000000000225200000000022850000000002235000000000226300000000022500000000002237000000000225000303000000000000008267000000000018705395000000000000009999123100000010000000000000BRBBASACNOR3237
012013082062BBAS3T      030BRASIL      ON      NM030R$  000000000228800000000023010000000002250000000000228600000000022510000000000000000000000000000022000000000000035100000000000080248467000000000000009999123100000010000000000000BRBBASACNOR3237
012013082062BBAS3T      030BRASIL      ON      NM031R$  000000000227300000000022740000000002273000000000227300000000022740000000000000000000000000000002000000000000004400000000000010002833000000000000009999123100000010000000000000BRBBASACNOR3237
012013082062BBAS3T      030BRASIL      ON      NM038R$  000000000226500000000022660000000002265000000000226500000000022660000000000000000000000000000002000000000000002000000000000004531308000000000000009999123100000010000000000000BRBBASACNOR3237
012013082062BBAS3T      030BRASIL      ON      NM062R$  000000000229900000000023000000000002299000000000229900000000023000000000000000000000000000000002000000000000000300000000000000689931000000000000009999123100000010000000000000BRBBASACNOR3237
012013082062BBAS3T      030BRASIL      ON      NM120R$  000000000231600000000023170000000002316000000000231600000000023170000000000000000000000000000002000000000000002500000000000005790526000000000000009999123100000010000000000000BRBBASACNOR3237
012013082062BBAS3T      030BRASIL      ON      NM181R$  000000000238800000000023890000000002388000000000238800000000023890000000000000000000000000000002000000000000015000000000000035828595000000000000009999123100000010000000000000BRBBASACNOR3237
012013082078BBASA25     070BBAS        ON      NM000R$  000000000008400000000000840000000000084000000000008400000000000840000000000000000000000000000002000000000000010000000000000000840000000000000250002014012000000010000000000000BRBBASACNOR3237
012013082078BBASI21     070BBAS        ON      NM000R$  000000000020600000000002060000000000194000000000020100000000001940000000000132000000000020600005000000000000005800000000000001171200000000000210002013091600000010000000000000BRBBASACNOR3237
012013082078BBASI22     070BBAS  FM    ON      NM000R$  000000000014000000000001530000000000112000000000013400000000001120000000000025000000000016900090000000000000096800000000000013030900000000000217602013091600000010000000000000BRBBASACNOR3236
012013082078BBASI23     070BBAS  FM    ON      NM000R$  000000000008100000000000880000000000057000000000007000000000000590000000000059000000000007000095000000000000157800000000000011166100000000000227602013091600000010000000000000BRBBASACNOR3236
012013082078BBASI24     070BBAS  FM    ON      NM000R$  000000000003700000000000430000000000025000000000003400000000000260000000000025000000000002600311000000000000304100000000000010528800000000000237602013091600000010000000000000BRBBASACNOR3236
012013082078BBASI25     070BBAS  FM    ON      NM000R$  000000000002000000000000220000000000009000000000001500000000000090000000000009000000000001500256000000000000303000000000000004736300000000000246602013091600000010000000000000BRBBASACNOR3235
012013082078BBASI26     070BBAS  FM    ON      NM000R$  000000000000800000000000080000000000005000000000000500000000000050000000000004000000000000600015000000000000016900000000000000096600000000000256602013091600000010000000000000BRBBASACNOR3235
012013082078BBASI27     070BBAS        ON      NM000R$  000000000000300000000000040000000000003000000000000300000000000040000000000002000000000000300002000000000000001100000000000000003700000000000267602013091600000010000000000000BRBBASACNOR3236
012013082078BBASI28     070BBAS        ON      NM000R$  000000000000400000000000040000000000002000000000000200000000000020000000000001000000000000300003000000000000003100000000000000008000000000000276602013091600000010000000000000BRBBASACNOR3235
012013082078BBASI52     070BBAS        ON      NM000R$  000000000009800000000000980000000000085000000000008900000000000870000000000000000000000000000003000000000000002100000000000000188000000000000225002013091600000010000000000000BRBBASACNOR3237
012013082078BBASI61     070BBASE       ON      NM000R$  000000000010400000000001050000000000104000000000010400000000001050000000000000000000000000000002000000000000004500000000000000468500000000000222502013091600000010000000000000BRBBASACNOR3237
012013082078BBASJ22     070BBAS  FM    ON      NM000R$  000000000016500000000001810000000000148000000000016500000000001480000000000000000000000000000039000000000000059200000000000009773900000000000220002013102100000010000000000000BRBBASACNOR3237
012013082078BBASJ23     070BBAS  FM    ON      NM000R$  000000000012600000000001370000000000113000000000012600000000001130000000000000000000000000000018000000000000028800000000000003651300000000000226602013102100000010000000000000BRBBASACNOR3235
012013082078BBASJ24     070BBAS  FM    ON      NM000R$  000000000007800000000000820000000000060000000000006700000000000610000000000017000000000000000015000000000000025400000000000001717400000000000237602013102100000010000000000000BRBBASACNOR3236
012013082078BBASJ25     070BBAS  FM    ON      NM000R$  000000000003800000000000400000000000030000000000003700000000000300000000000017000000000004000011000000000000013700000000000000507200000000000250002013102100000010000000000000BRBBASACNOR3237
012013082078BBASJ26     070BBAS  FM    ON      NM000R$  000000000002700000000000290000000000027000000000002700000000000290000000000017000000000002300004000000000000004900000000000000133100000000000256602013102100000010000000000000BRBBASACNOR3235
012013082078BBASJ27     070BBAS        ON      NM000R$  000000000001300000000000130000000000013000000000001300000000000130000000000005000000000001600001000000000000003000000000000000039000000000000266602013102100000010000000000000BRBBASACNOR3235
012013082078BBASK24     070BBAS        ON      NM000R$  000000000009300000000000950000000000085000000000009200000000000850000000000000000000000008400006000000000000010500000000000000974500000000000240002013111800000010000000000000BRBBASACNOR3237
012013082078BBASK26     070BBAS        ON      NM000R$  000000000003600000000000360000000000036000000000003600000000000360000000000016000000000000000002000000000000003100000000000000111600000000000257602013111800000010000000000000BRBBASACNOR3236
012013082078BBASL24     070BBAS        ON      NM000R$  000000000010500000000001050000000000097000000000009700000000000970000000000000000000000035000008000000000000017400000000000001700000000000000240002013121600000010000000000000BRBBASACNOR3237
012013082078BBASL25     070BBAS        ON      NM000R$  000000000008200000000000820000000000080000000000008000000000000800000000000000000000000000000010000000000000012900000000000001044000000000000246602013121600000010000000000000BRBBASACNOR3235
012013082078BBASL26     070BBAS        ON      NM000R$  000000000004800000000000480000000000048000000000004800000000000480000000000005000000000000000001000000000000000200000000000000009600000000000256602013121600000010000000000000BRBBASACNOR3235
012013082082BBASN23     080BBASE       ON      NM000R$  000000000014400000000001440000000000144000000000014400000000001440000000000000000000000000000001000000000000001200000000000000172800000000000230002014021700000010000000000000BRBBASACNOR3237
012013082082BBASU21     080BBASE FM    ON      NM000R$  000000000002400000000000240000000000020000000000002100000000000210000000000000000000000000000004000000000000007600000000000000164100000000000210002013091600000010000000000000BRBBASACNOR3237
012013082082BBASU22     080BBASE FM    ON      NM000R$  000000000004000000000000410000000000033000000000003600000000000410000000000022000000000004200075000000000000121800000000000004411900000000000217602013091600000010000000000000BRBBASACNOR3236
012013082082BBASU23     080BBASE FM    ON      NM000R$  000000000007200000000000850000000000066000000000007300000000000840000000000040000000000000000058000000000000128000000000000009367400000000000227602013091600000010000000000000BRBBASACNOR3236
012013082082BBASU24     080BBASE FM    ON      NM000R$  000000000013800000000001520000000000123000000000013300000000001520000000000000000000000027500062000000000000111600000000000014875200000000000237602013091600000010000000000000BRBBASACNOR3236
012013082082BBASU25     080BBASE       ON      NM000R$  000000000020500000000002050000000000205000000000020500000000002050000000000000000000000000000001000000000000003000000000000000615000000000000246602013091600000010000000000000BRBBASACNOR3235
012013082082BBASU52     080BBASE       ON      NM000R$  000000000006400000000000660000000000056000000000006100000000000570000000000000000000000000000012000000000000033900000000000002070200000000000225002013091600000010000000000000BRBBASACNOR3237
012013082082BBASU61     080BBASE       ON      NM000R$  000000000005400000000000560000000000045000000000005100000000000480000000000000000000000000000017000000000000044000000000000002277000000000000222502013091600000010000000000000BRBBASACNOR3237
012013082082BBASV21     080BBASE FM    ON      NM000R$  000000000004600000000000470000000000040000000000004300000000000400000000000035000000000000000012000000000000019900000000000000866200000000000210002013102100000010000000000000BRBBASACNOR3237
012013082082BBASV22     080BBASE FM    ON      NM000R$  000000000007600000000000790000000000067000000000007400000000000790000000000050000000000000000022000000000000040900000000000003031000000000000220002013102100000010000000000000BRBBASACNOR3237
012013082082BBASV23     080BBASE FM    ON      NM000R$  000000000010200000000001070000000000092000000000009800000000001070000000000000000000000000000016000000000000026600000000000002607000000000000226602013102100000010000000000000BRBBASACNOR3235
012013082082BBASV24     080BBASE FM    ON      NM000R$  000000000015800000000001700000000000147000000000015400000000001700000000000000000000000000000031000000000000055600000000000008597500000000000237602013102100000010000000000000BRBBASACNOR3236
012013082082BBASW17     080BBASE       ON      NM000R$  000000000001000000000000110000000000010000000000001000000000000110000000000000000000000000000005000000000000015000000000000000153000000000000170002013111800000010000000000000BRBBASACNOR3237
012013082082BBASW18     080BBASE       ON      NM000R$  000000000001500000000000170000000000015000000000001500000000000170000000000000000000000000000008000000000000024000000000000000375000000000000180002013111800000010000000000000BRBBASACNOR3237
012013082082BBASW19     080BBASE       ON      NM000R$  000000000002300000000000260000000000023000000000002400000000000260000000000000000000000000000005000000000000015000000000000000360000000000000190002013111800000010000000000000BRBBASACNOR3237
012013082082BBASW20     080BBASE       ON      NM000R$  000000000003700000000000380000000000033000000000003700000000000330000000000000000000000000000004000000000000010200000000000000378600000000000200002013111800000010000000000000BRBBASACNOR3237
012013082082BBASW21     080BBASE       ON      NM000R$  000000000005100000000000530000000000051000000000005100000000000510000000000000000000000045900008000000000000024000000000000001236000000000000207602013111800000010000000000000BRBBASACNOR3236
012013082082BBASW22     080BBASE       ON      NM000R$  000000000008200000000000900000000000082000000000008600000000000860000000000000000000000000000008000000000000019700000000000001702400000000000220002013111800000010000000000000BRBBASACNOR3237
012013082082BBASW23     080BBASE       ON      NM000R$  000000000012500000000001320000000000116000000000012500000000001320000000000000000000000000000070000000000000114800000000000014396800000000000230002013111800000010000000000000BRBBASACNOR3237
012013082082BBASW24     080BBASE       ON      NM000R$  000000000017400000000001850000000000174000000000018000000000001810000000000000000000000000000011000000000000029700000000000005346300000000000240002013111800000010000000000000BRBBASACNOR3237
012013082082BBASW25     080BBASE       ON      NM000R$  000000000022700000000002350000000000224000000000023000000000002290000000000000000000000000000008000000000000023000000000000005290000000000000247602013111800000010000000000000BRBBASACNOR3236
012013082082BBASW26     080BBASE       ON      NM000R$  000000000030700000000003070000000000296000000000030200000000002990000000000000000000000000000004000000000000012000000000000003624000000000000257602013111800000010000000000000BRBBASACNOR3236
012013082082BBASW53     080BBASE       ON      NM000R$  000000000009700000000001060000000000097000000000010100000000001020000000000000000000000000000010000000000000025200000000000002562000000000000224202013111800000010000000000000BRBBASACNOR3232
012013082082BBASX21     080BBASE       ON      NM000R$  000000000006400000000000640000000000064000000000006400000000000640000000000000000000000000000002000000000000002400000000000000153600000000000210002013121600000010000000000000BRBBASACNOR3237
012013082082BBASX22     080BBASE       ON      NM000R$  000000000008100000000000850000000000081000000000008100000000000850000000000000000000000000000002000000000000001300000000000000105700000000000216602013121600000010000000000000BRBBASACNOR3235
012013082082BBASX68     080BBASE       ON      NM000R$  000000000002400000000000240000000000024000000000002400000000000240000000000000000000000000000002000000000000002400000000000000057600000000000187502013121600000010000000000000BRBBASACNOR3237
012013082082BBASX69     080BBASE       ON      NM000R$  000000000003800000000000380000000000038000000000003800000000000380000000000000000000000000000001000000000000001200000000000000045600000000000197502013121600000010000000000000BRBBASACNOR3237
012013082002BBDC3       010BRADESCO    ON      N1   R$  000000000317000000000031700000000003092000000000312200000000031180000000003098000000000311803066000000000000915900000000002859450100000000000000009999123100000010000000000000BRBBDCACNOR1605
012013082096BBDC3F      020BRADESCO    ON      N1   R$  000000000313400000000031990000000003053000000000313600000000031870000000003053000000000318700042000000000000000868000000000002721919000000000000009999123100000010000000000000BRBBDCACNOR1605
012013082002BBDC4       010BRADESCO    PN      N1   R$  000000000283800000000028590000000002791000000000281900000000028070000000002804000000000280719053000000000008208800000000023146550300000000000000009999123100000010000000000000BRBBDCACNPR8605
012013082096BBDC4F      020BRADESCO    PN      N1   R$  000000000284500000000028790000000002790000000000282500000000028170000000002790000000000281700207000000000000005219000000000014744437000000000000009999123100000010000000000000BRBBDCACNPR8605
012013082062BBDC4T      030BRADESCO    PN      N1030R$  000000000285100000000028520000000002851000000000285100000000028520000000000000000000000000000002000000000000000100000000000000285123000000000000009999123100000010000000000000BRBBDCACNPR8605
012013082078BBDCB37     070BBDC        PN      N1000R$  000000000001900000000000190000000000019000000000001900000000000190000000000000000000000000000002000000000000300000000000000005700000000000000370002014021700000010000000000000BRBBDCACNPR8605
012013082078BBDCI27     070BBDC        PN      N1000R$  000000000018700000000002180000000000163000000000018300000000001640000000000152000000000022900091000000000000088300000000000016232500000000000267802013091600000010000000000000BRBBDCACNPR8602
012013082078BBDCI28     070BBDC        PN      N1000R$  000000000012000000000001400000000000097000000000011700000000001010000000000100000000000010600225000000000000310200000000000036443100000000000277802013091600000010000000000000BRBBDCACNPR8602
012013082078BBDCI29     070BBDC        PN      N1000R$  000000000006300000000000800000000000048000000000005900000000000490000000000046000000000005800235000000000000391700000000000023197500000000000287802013091600000010000000000000BRBBDCACNPR8602
012013082078BBDCI30     070BBDC        PN      N1000R$  000000000003700000000000400000000000023000000000002700000000000230000000000022000000000003000088000000000000125000000000000003498500000000000297802013091600000010000000000000BRBBDCACNPR8602
012013082078BBDCI31     070BBDC        PN      N1000R$  000000000014800000000001750000000000127000000000014600000000001270000000000000000000000017400137000000000000126800000000000018608400000000000272902013091600000010000000000000BRBBDCACNPR8590
012013082078BBDCI32     070BBDC        PN      N1000R$  000000000000600000000000060000000000005000000000000500000000000050000000000004000000000000000007000000000000020500000000000000120500000000000317802013091600000010000000000000BRBBDCACNPR8602
012013082078BBDCI33     070BBDC        PN      N1000R$  000000000002900000000000400000000000024000000000003000000000000240000000000000000000000000000014000000000000018800000000000000574100000000000297202013091600000010000000000000BRBBDCACNPR8598
012013082078BBDCI58     070BBDC        PN      N1000R$  000000000006900000000000930000000000069000000000007700000000000790000000000000000000000000000013000000000000036800000000000002861400000000000285002013091600000010000000000000BRBBDCACNPR8605
012013082078BBDCI71     070BBDC        ON      N1000R$  000000000009000000000000900000000000090000000000009000000000000900000000000000000000000000000002000000000000001000000000000000090000000000000310002013091600000010000000000000BRBBDCACNOR1605
012013082078BBDCI75     070BBDCE       PN      N1000R$  000000000009600000000000960000000000096000000000009600000000000960000000000000000000000000000001000000000000000700000000000000067200000000000282302013091600000010000000000000BRBBDCACNPR8604
012013082078BBDCI81     070BBDC        PN      N1000R$  000000000001400000000000170000000000011000000000001500000000000110000000000006000000000001600017000000000000044900000000000000694900000000000307802013091600000010000000000000BRBBDCACNPR8602
012013082078BBDCJ27     070BBDC        PN      N1000R$  000000000024600000000002460000000000218000000000024000000000002180000000000000000000000000000003000000000000005800000000000001397400000000000267802013102100000010000000000000BRBBDCACNPR8602
012013082078BBDCJ29     070BBDC        PN      N1000R$  000000000011300000000001400000000000105000000000012600000000001050000000000000000000000000000038000000000000060800000000000007689900000000000287802013102100000010000000000000BRBBDCACNPR8602
012013082078BBDCJ30     070BBDC        PN      N1000R$  000000000008000000000000940000000000071000000000008300000000000710000000000062000000000009000027000000000000048800000000000004059600000000000297802013102100000010000000000000BRBBDCACNPR8602
012013082078BBDCJ31     070BBDC        PN      N1000R$  000000000005200000000000520000000000049000000000004900000000000510000000000031000000000006000004000000000000005700000000000000283900000000000307802013102100000010000000000000BRBBDCACNPR8602
012013082078BBDCJ32     070BBDC        PN      N1000R$  000000000003400000000000350000000000025000000000003200000000000250000000000012000000000004200004000000000000008200000000000000265000000000000317802013102100000010000000000000BRBBDCACNPR8602
012013082078BBDCJ58     070BBDC        PN      N1000R$  000000000016700000000001820000000000145000000000016800000000001450000000000000000000000000000084000000000000154500000000000025970100000000000280002013102100000010000000000000BRBBDCACNPR8605
012013082078BBDCK30     070BBDC        PN      N1000R$  000000000009700000000001130000000000091000000000010000000000000910000000000000000000000000000005000000000000013200000000000001331200000000000300002013111800000010000000000000BRBBDCACNPR8605
012013082078BBDCK31     070BBDC        PN      N1000R$  000000000006500000000000650000000000065000000000006500000000000650000000000000000000000000000003000000000000007900000000000000513500000000000310002013111800000010000000000000BRBBDCACNPR8605
012013082078BBDCK32     070BBDC        PN      N1000R$  000000000004900000000000610000000000048000000000005200000000000480000000000000000000000000000015000000000000037500000000000001963000000000000317602013111800000010000000000000BRBBDCACNPR8601
012013082078BBDCK33     070BBDC        PN      N1000R$  000000000003200000000000410000000000031000000000003300000000000310000000000000000000000000000015000000000000038000000000000001270000000000000327802013111800000010000000000000BRBBDCACNPR8602
012013082078BBDCK34     070BBDC        PN      N1000R$  000000000002300000000000250000000000021000000000002200000000000220000000000000000000000000000005000000000000015000000000000000336000000000000339802013111800000010000000000000BRBBDCACNPR8604
012013082078BBDCK35     070BBDC        PN      N1000R$  000000000001600000000000160000000000015000000000001500000000000150000000000000000000000000000004000000000000011400000000000000174000000000000347802013111800000010000000000000BRBBDCACNPR8602
012013082078BBDCK9      070BBDC        PN      N1000R$  000000000014600000000001480000000000137000000000014400000000001380000000000000000000000000000010000000000000415500000000000060089800000000000290002013111800000010000000000000BRBBDCACNPR8605
012013082078BBDCL1      070BBDC        PN      N1000R$  000000000010900000000001090000000000103000000000010500000000001030000000000000000000000000000003000000000000003600000000000000378000000000000307402013121600000010000000000000BRBBDCACNPR8600
012013082078BBDCL27     070BBDC        PN      N1000R$  000000000029500000000003020000000000295000000000029800000000003020000000000000000000000000000016000000000000020000000000000005970000000000000269802013121600000010000000000000BRBBDCACNPR8604
012013082078BBDCL29     070BBDC        PN      N1000R$  000000000018500000000001860000000000185000000000018500000000001860000000000000000000000000000002000000000000001400000000000000260200000000000287802013121600000010000000000000BRBBDCACNPR8602
012013082078BBDCL32     070BBDC        PN      N1000R$  000000000007200000000000720000000000072000000000007200000000000720000000000000000000000000000001000000000000001200000000000000086400000000000317402013121600000010000000000000BRBBDCACNPR8600
012013082078BBDCL33     070BBDC        PN      N1000R$  000000000014800000000001480000000000138000000000014300000000001380000000000000000000000000000002000000000000002400000000000000343200000000000297202013121600000010000000000000BRBBDCACNPR8598
012013082082BBDCM31     080BBDCE       PN      N1000R$  000000000029900000000002990000000000299000000000029900000000002990000000000000000000000000000001000000000000001200000000000000358800000000000310002014012000000010000000000000BRBBDCACNPR8605
012013082082BBDCU26     080BBDCE       PN      N1000R$  000000000001700000000000180000000000016000000000001700000000000180000000000000000000000000000005000000000000006800000000000000115600000000000259802013091600000010000000000000BRBBDCACNPR8604
012013082082BBDCU27     080BBDCE       PN      N1000R$  000000000003100000000000350000000000028000000000003100000000000350000000000000000000000003600011000000000000018000000000000000568800000000000267802013091600000010000000000000BRBBDCACNPR8602
012013082082BBDCU28     080BBDCE       PN      N1000R$  000000000005500000000000630000000000045000000000005500000000000610000000000000000000000008300058000000000000087300000000000004863400000000000277802013091600000010000000000000BRBBDCACNPR8602
012013082082BBDCU29     080BBDCE       PN      N1000R$  000000000010000000000001180000000000085000000000009800000000001180000000000000000000000000000042000000000000065400000000000006418900000000000287802013091600000010000000000000BRBBDCACNPR8602
012013082082BBDCU30     080BBDCE       PN      N1000R$  000000000016600000000001830000000000144000000000016500000000001830000000000000000000000000000099000000000000173200000000000028671100000000000297802013091600000010000000000000BRBBDCACNPR8602
012013082082BBDCU31     080BBDCE       PN      N1000R$  000000000004100000000000430000000000038000000000004100000000000430000000000000000000000000000007000000000000012000000000000000502000000000000272902013091600000010000000000000BRBBDCACNPR8590
012013082082BBDCU33     080BBDCE       PN      N1000R$  000000000014100000000001650000000000141000000000015600000000001640000000000000000000000000000003000000000000005700000000000000890500000000000297202013091600000010000000000000BRBBDCACNPR8598
012013082082BBDCU75     080BBDCE       PN      N1000R$  000000000006000000000000770000000000060000000000007200000000000710000000000000000000000000000022000000000000027000000000000001956300000000000282302013091600000010000000000000BRBBDCACNPR8604
012013082082BBDCV22     080BBDCE       PN      N1000R$  000000000000900000000000090000000000009000000000000900000000000090000000000000000000000000000003000000000000006000000000000000054000000000000220002013102100000010000000000000BRBBDCACNPR8605
012013082082BBDCV23     080BBDCE       PN      N1000R$  000000000001200000000000140000000000012000000000001200000000000140000000000000000000000000000009000000000000018000000000000000228000000000000230002013102100000010000000000000BRBBDCACNPR8605
012013082082BBDCV24     080BBDCE       PN      N1000R$  000000000001800000000000210000000000018000000000001900000000000210000000000000000000000000000009000000000000013900000000000000268200000000000239802013102100000010000000000000BRBBDCACNPR8604
012013082082BBDCV25     080BBDCE       PN      N1000R$  000000000003100000000000330000000000031000000000003200000000000330000000000000000000000000000004000000000000007300000000000000234300000000000249602013102100000010000000000000BRBBDCACNPR8603
012013082082BBDCV26     080BBDCE       PN      N1000R$  000000000004700000000000510000000000047000000000004700000000000510000000000000000000000000000003000000000000013800000000000000658400000000000259802013102100000010000000000000BRBBDCACNPR8604
012013082082BBDCV27     080BBDCE       PN      N1000R$  000000000006600000000000700000000000056000000000006500000000000700000000000000000000000000000053000000000000126500000000000008238000000000000267802013102100000010000000000000BRBBDCACNPR8602
012013082082BBDCV28     080BBDCE       PN      N1000R$  000000000002400000000000280000000000024000000000002500000000000280000000000000000000000000000008000000000000014000000000000000360000000000000245802013102100000010000000000000BRBBDCACNPR8591
012013082082BBDCV29     080BBDCE       PN      N1000R$  000000000014800000000001480000000000124000000000013800000000001370000000000000000000000000000019000000000000038400000000000005304700000000000287802013102100000010000000000000BRBBDCACNPR8602
012013082082BBDCV30     080BBDCE       PN      N1000R$  000000000019500000000002060000000000179000000000019700000000002050000000000000000000000000000020000000000000036900000000000007304000000000000297802013102100000010000000000000BRBBDCACNPR8602
012013082082BBDCV58     080BBDCE       PN      N1000R$  000000000010700000000001100000000000092000000000010200000000001100000000000000000000000000000024000000000000036800000000000003761400000000000280002013102100000010000000000000BRBBDCACNPR8605
012013082082BBDCW23     080BBDCE       PN      N1000R$  000000000002100000000000230000000000021000000000002200000000000230000000000000000000000000000014000000000000020000000000000000440000000000000230002013111800000010000000000000BRBBDCACNPR8605
012013082082BBDCW24     080BBDCE       PN      N1000R$  000000000003000000000000330000000000030000000000003100000000000330000000000000000000000000000010000000000000015000000000000000479000000000000240002013111800000010000000000000BRBBDCACNPR8605
012013082082BBDCW25     080BBDCE       PN      N1000R$  000000000004200000000000420000000000042000000000004200000000000420000000000000000000000000000001000000000000002000000000000000084000000000000249802013111800000010000000000000BRBBDCACNPR8604
012013082082BBDCW26     080BBDCE       PN      N1000R$  000000000005800000000000660000000000058000000000006100000000000660000000000000000000000000000003000000000000005000000000000000306000000000000259802013111800000010000000000000BRBBDCACNPR8604
012013082082BBDCW27     080BBDCE       PN      N1000R$  000000000008500000000000850000000000085000000000008500000000000850000000000000000000000000000001000000000000001200000000000000102000000000000269602013111800000010000000000000BRBBDCACNPR8603
012013082082BBDCW30     080BBDCE       PN      N1000R$  000000000020700000000002340000000000207000000000022400000000002320000000000000000000000000000014000000000000021700000000000004865600000000000300002013111800000010000000000000BRBBDCACNPR8605
012013082082BBDCW31     080BBDCE       PN      N1000R$  000000000027100000000003010000000000271000000000028400000000003010000000000000000000000000000019000000000000030000000000000008535000000000000310002013111800000010000000000000BRBBDCACNPR8605
012013082082BBDCW8      080BBDCE       PN      N1000R$  000000000003600000000000400000000000033000000000003600000000000350000000000000000000000000000012000000000000015200000000000000549000000000000246002013111800000010000000000000BRBBDCACNPR8592
012013082082BBDCW9      080BBDCE       PN      N1000R$  000000000015900000000001770000000000159000000000017100000000001760000000000000000000000000000006000000000000011000000000000001888000000000000290002013111800000010000000000000BRBBDCACNPR8605
012013082082BBDCX28     080BBDCE       PN      N1000R$  000000000013600000000001360000000000136000000000013600000000001360000000000000000000000000000001000000000000001200000000000000163200000000000279802013121600000010000000000000BRBBDCACNPR8604
012013082012BBFI11B     010FII BB PROGRCI      MB   R$  000000042500000000004290000000000425000000000042827200000004289990000000426000000000042900000007000000000000000011000000000004710998000000000000009999123100000010000000000000BRBBFICTF006197
012013082012BBPO11      010FII BB PRGIICI           R$  000000001093000000000109850000000010861000000001090500000000109470000000010900000000001094700144000000000000010488000000000114373301000000000000009999123100000010000000000000BRBBPOCTF003109
012013082012BBRC11      010FII BB CORP CI           R$  000000000925100000000092900000000009200000000000921200000000092000000000009200000000000922900032000000000000002392000000000022037035000000000000009999123100000010000000000000BRBBRCCTF004123
012013082002BBRK3       010BR BROKERS  ON      NM   R$  000000000055500000000005580000000000544000000000055100000000005560000000000553000000000055602360000000000000765400000000000422113500000000000000009999123100000010000000000000BRBBRKACNOR4108
012013082002BBSE3       010BBSEGURIDADEON  ED  NM   R$  000000000182200000000018580000000001801000000000181700000000018200000000001820000000000182508832000000000003678700000000006687410700000000000000009999123100000010000000000000BRBBSEACNOR5101
012013082096BBSE3F      020BBSEGURIDADEON  ED  NM   R$  000000000182500000000018550000000001800000000000181900000000018150000000001802000000000181500174000000000000004476000000000008142402000000000000009999123100000010000000000000BRBBSEACNOR5101
012013082062BBSE3T      030BBSEGURIDADEON  ED  NM062R$  000000000184800000000018490000000001848000000000184800000000018490000000000000000000000000000002000000000000002000000000000003696432000000000000009999123100000010000000000000BRBBSEACNOR5101
012013082002BBTG11      010BTG PACTUAL UNT EDJ      R$  000000000280100000000028300000000002776000000000280300000000028000000000002795000000000280001196000000000000416600000000001167818500000000000000009999123100000010000000000000BRBBTGUNT007105
012013082096BBTG11F     020BTG PACTUAL UNT EDJ      R$  000000000282300000000028790000000002700000000000279400000000028050000000002761000000000280500011000000000000000271000000000000757221000000000000009999123100000010000000000000BRBBTGUNT007105
012013082012BBVJ11      010FII C JARDIMCI           R$  000000000795500000000080000000000007866000000000796300000000080000000000007870000000000800000026000000000000000928000000000007390159000000000000009999123100000010000000000000BRBBVJCTF001132
012013082012BCFF11B     010FII BC FFII CI      MB   R$  000000000966000000000097800000000009631000000000969100000000096500000000009650000000000965500056000000000000002063000000000019994268000000000000009999123100000010000000000000BRBCFFCTF000141
012013082002BEEF3       010MINERVA     ON      NM   R$  000000000110700000000011220000000001087000000000110500000000011150000000001115000000000111705126000000000001639600000000001812388300000000000000009999123100000010000000000000BRBEEFACNOR6104
012013082096BEEF3F      020MINERVA     ON      NM   R$  000000000112100000000011210000000001103000000000111000000000011150000000001080000000000112200010000000000000000218000000000000242137000000000000009999123100000010000000000000BRBEEFACNOR6104
012013082002BEES3       010BANESTES    ON           R$  000000000004600000000000470000000000046000000000004600000000000460000000000047000000000004800005000000000000017700000000000000814700000000000000009999123100000010000000000000BRBEESACNOR9243
012013082002BEMA3       010BEMATECH    ON      NM   R$  000000000069600000000006960000000000686000000000069400000000006860000000000686000000000069400230000000000000053600000000000037201100000000000000009999123100000010000000000000BRBEMAACNOR0114
012013082096BEMA3F      020BEMATECH    ON      NM   R$  000000000069300000000006950000000000693000000000069400000000006950000000000672000000000079900003000000000000000040000000000000027760000000000000009999123100000010000000000000BRBEMAACNOR0114
012013082002BGIP4       010BANESE      PN           R$  000000000446000000000044600000000004460000000000446000000000044600000000004200000000000490000001000000000000000100000000000000446000000000000000009999123100000010000000000000BRBGIPACNPR8178
012013082002BHGR3       010BHG         ON      NM   R$  000000000140000000000014000000000001265000000000133000000000013330000000001326000000000133300541000000000000161100000000000214341100000000000000009999123100000010000000000000BRBHGRACNOR9101
012013082096BHGR3F      020BHG         ON      NM   R$  000000000140100000000014010000000001300000000000133700000000013290000000001270000000000149800004000000000000000036000000000000048145000000000000009999123100000010000000000000BRBHGRACNOR9101
012013082002BICB4       010BICBANCO    PN      N1   R$  000000000039100000000003980000000000391000000000039400000000003940000000000394000000000039500065000000000000036300000000000014302500000000000000009999123100000010000000000000BRBICBACNPR7131
012013082096BICB4F      020BICBANCO    PN      N1   R$  000000000039300000000003960000000000393000000000039400000000003950000000000383000000000041200005000000000000000115000000000000045325000000000000009999123100000010000000000000BRBICBACNPR7131
012013082002BIOM4       010BIOMM       PN           R$  000000000082000000000008200000000000801000000000081300000000008100000000000786000000000089000007000000000000040000000000000032551000000000000000009999123100000010000000000000BRBIOMACNPR9101
012013082096BIOM4F      020BIOMM       PN           R$  000000000077000000000007700000000000770000000000077000000000007700000000000751000000000077000001000000000000000023000000000000017710000000000000009999123100000010000000000000BRBIOMACNPR9101
012013082002BISA3       010BROOKFIELD  ON      NM   R$  000000000018600000000001920000000000182000000000018500000000001820000000000182000000000018309286000000000005728800000000001064311100000000000000009999123100000010000000000000BRBISAACNOR8109
012013082096BISA3F      020BROOKFIELD  ON      NM   R$  000000000018500000000001930000000000172000000000018400000000001720000000000172000000000018500022000000000000000718000000000000132750000000000000009999123100000010000000000000BRBISAACNOR8109
012013082062BISA3T      030BROOKFIELD  ON      NM030R$  000000000018300000000001840000000000183000000000018300000000001840000000000000000000000000000002000000000000057000000000000010458029000000000000009999123100000010000000000000BRBISAACNOR8109
012013082062BISA3T      030BROOKFIELD  ON      NM090R$  000000000018500000000001860000000000185000000000018500000000001860000000000000000000000000000002000000000000200000000000000037131640000000000000009999123100000010000000000000BRBISAACNOR8109
012013082012BJRC11      010FII JS RECIMCI           R$  000000008700000000000880000000000087000000000008732600000000880000000000085000000000008980000003000000000000000260000000000022705000000000000000009999123100000010000000000000BRBJRCCTF007109
012013082002BMKS3       010BIC MONARK  ON           R$  000000003281100000000328110000000032811000000003281100000000328110000000032805000000003490000004000000000000000014000000000000459354000000000000009999123100000010000000000000BRBMKSACNOR9155
012013082012BMLC11B     010FII BMBRC LCCI      MB   R$  000000001150000000000115990000000011500000000001151800000000115100000000011510000000001159000007000000000000000200000000000002303742000000000000009999123100000010000000000000BRBMLCCTF004118
012013082002BMTO4       010BRASMOTOR   PN           R$  000000000008700000000000870000000000087000000000008700000000000870000000000084000000000008700001000000000000001000000000000000087000000000000000009999123100000010000000000000BRBMTOACNPR6065
012013082096BMTO4F      020BRASMOTOR   PN           R$  000000000008600000000000870000000000086000000000008600000000000870000000000080000000000008700002000000000000000200000000000000017318000000000000009999123100000010000000000000BRBMTOACNPR6065
012013082002BNBR4       010NORD BRASIL PN           R$  000000000219700000000021970000000002197000000000219700000000021970000000002201000000000249900001000000000000000100000000000000219700000000000000009999123100000010000000000000BRBNBRACNPR5187
012013082002BOAC11B     010BANK AMERICADRN     MB   R$  000000000339300000000033930000000003393000000000339300000000033930000000003390000000000345500001000000000000000500000000000001696500000000000000009999123100000010000000000000BRBOACBDR004111
012013082002BOEI11B     010BOEING      DRN     MB   R$  000000002510000000000251900000000025100000000002513000000000251900000000024683000000002542500002000000000000000300000000000007539000000000000000009999123100000010000000000000BRBOEIBDR003106
012013082014BOVA11      010ISHARES BOVACI           R$  000000000502500000000050570000000004960000000000501800000000049630000000004963000000000497903081000000000000732850000000003677779320000000000000009999123100000010000000000000BRBOVACTF003101
012013082096BOVA11F     020ISHARES BOVACI           R$  000000000503800000000050690000000004981000000000503200000000050590000000005000000000000507000019000000000000000064000000000000322091000000000000009999123100000010000000000000BRBOVACTF003101
012013082012BPFF11      010FII ABSOLUTOCI           R$  000000000887500000000088750000000008500000000000870600000000087000000000008551000000000875000023000000000000001809000000000015749369000000000000009999123100000010000000000000BRBPFFCTF002104
012013082002BPHA3       010BR PHARMA   ON      NM   R$  000000000096800000000010000000000000968000000000098600000000009940000000000992000000000099402089000000000001199000000000001183207300000000000000009999123100000010000000000000BRBPHAACNOR6102
012013082096BPHA3F      020BR PHARMA   ON      NM   R$  000000000098600000000009990000000000984000000000099000000000009840000000000981000000000099900007000000000000000319000000000000315810000000000000009999123100000010000000000000BRBPHAACNOR6102
012013082078BPHAI10     070BPHA        ON      NM000R$  000000000001900000000000190000000000019000000000001900000000000190000000000000000000000000000002000000000000064000000000000001216000000000000100002013091600000010000000000000BRBPHAACNOR6102
012013082002BPNM4       010PANAMERICANOPN      N1   R$  000000000054600000000005520000000000530000000000054200000000005450000000000536000000000054700242000000000000181000000000000098196500000000000000009999123100000010000000000000BRBPNMACNPR6111
012013082096BPNM4F      020PANAMERICANOPN      N1   R$  000000000059500000000005980000000000533000000000055100000000005370000000000537000000000054200009000000000000000392000000000000216148000000000000009999123100000010000000000000BRBPNMACNPR6111
012013082002BRAP3       010BRADESPAR   ON      N1   R$  000000000211500000000021180000000002075000000000210200000000020750000000002075000000000209300014000000000000005100000000000010723000000000000000009999123100000010000000000000BRBRAPACNOR5124
012013082096BRAP3F      020BRADESPAR   ON      N1   R$  000000000210000000000021000000000002069000000000207200000000020690000000002069000000000219000003000000000000000072000000000000149216000000000000009999123100000010000000000000BRBRAPACNOR5124
012013082002BRAP4       010BRADESPAR   PN      N1   R$  000000000261800000000026180000000002538000000000257400000000025480000000002548000000000255305873000000000001519800000000003912161200000000000000009999123100000010000000000000BRBRAPACNPR2124
012013082096BRAP4F      020BRADESPAR   PN      N1   R$  000000000262800000000026430000000002534000000000258500000000025970000000002538000000000259700023000000000000000442000000000001142632000000000000009999123100000010000000000000BRBRAPACNPR2124
012013082062BRAP4T      030BRADESPAR   PN      N1062R$  000000000261100000000026120000000002585000000000259600000000025860000000000000000000000000000008000000000000005400000000000014018435000000000000009999123100000010000000000000BRBRAPACNPR2124
012013082078BRAPI24     070BRAP        PN      N1000R$  000000000021600000000002200000000000216000000000021700000000002170000000000000000000000000000009000000000000010000000000000002177000000000000240002013091600000010000000000000BRBRAPACNPR2124
012013082014BRAX11      010ISHARES BRAXCI           R$  000000000405200000000040530000000004004000000000402900000000040040000000004004000000000000000009000000000000003850000000000015515450000000000000009999123100000010000000000000BRBRAXCTF002100
012013082012BRCR11      010FII BC FUND CI           R$  000000001262100000000126800000000012501000000001255300000000125120000000012512000000001253500786000000000000039435000000000495052168000000000000009999123100000010000000000000BRBRCRCTF000132
012013082002BRFS3       010BRF SA      ON      NM   R$  000000000566900000000056690000000005542000000000559100000000055800000000005570000000000558007324000000000001717300000000009602241800000000000000009999123100000010000000000000BRBRFSACNOR8110
012013082096BRFS3F      020BRF SA      ON      NM   R$  000000000567000000000056700000000005550000000000558900000000056000000000005551000000000560000116000000000000003433000000000019189813000000000000009999123100000010000000000000BRBRFSACNOR8110
012013082062BRFS3T      030BRF SA      ON      NM030R$  000000000561500000000056200000000005615000000000561700000000056200000000000000000000000000000004000000000000003200000000000017976417000000000000009999123100000010000000000000BRBRFSACNOR8110
012013082062BRFS3T      030BRF SA      ON      NM090R$  000000000567100000000056800000000005671000000000567500000000056800000000000000000000000000000004000000000000002000000000000011350745000000000000009999123100000010000000000000BRBRFSACNOR8110
012013082078BRFSI55     070BRFS        ON      NM000R$  000000000017000000000001700000000000170000000000017000000000001700000000000000000000000000000003000000000000040000000000000006800000000000000550002013091600000010000000000000BRBRFSACNOR8110
012013082078BRFSI57     070BRFS        ON      NM000R$  000000000007900000000000820000000000079000000000007900000000000820000000000000000000000000000003000000000000000400000000000000031900000000000570002013091600000010000000000000BRBRFSACNOR8110
012013082002BRIN3       010BR INSURANCEON  ED  NM   R$  000000000201100000000020300000000001960000000000198600000000019650000000001956000000000196501572000000000000652800000000001296786300000000000000009999123100000010000000000000BRBRINACNOR3106
012013082096BRIN3F      020BR INSURANCEON  ED  NM   R$  000000000201000000000020100000000001964000000000197900000000019640000000001960000000000198900037000000000000000371000000000000734214000000000000009999123100000010000000000000BRBRINACNOR3106
012013082002BRKM3       010BRASKEM     ON      N1   R$  000000000120800000000012080000000001201000000000120300000000012010000000001200000000000122400003000000000000000500000000000000601900000000000000009999123100000010000000000000BRBRKMACNOR1110
012013082002BRKM5       010BRASKEM     PNA     N1   R$  000000000183800000000018380000000001770000000000178400000000017700000000001770000000000178010180000000000002411300000000004302613100000000000000009999123100000010000000000000BRBRKMACNPA4110
012013082096BRKM5F      020BRASKEM     PNA     N1   R$  000000000182800000000018280000000001764000000000179000000000017890000000001781000000000178900043000000000000001396000000000002498990000000000000009999123100000010000000000000BRBRKMACNPA4110
012013082062BRKM5T      030BRASKEM     PNA     N1016R$  000000000178200000000017830000000001782000000000178200000000017830000000000000000000000000000002000000000000002000000000000003564910000000000000009999123100000010000000000000BRBRKMACNPA4110
012013082062BRKM5T      030BRASKEM     PNA     N1030R$  000000000178800000000017890000000001787000000000178800000000017880000000000000000000000000000004000000000000002800000000000005006603000000000000009999123100000010000000000000BRBRKMACNPA4110
012013082002BRML3       010BR MALLS PARON      NM   R$  000000000183000000000018580000000001814000000000183300000000018450000000001845000000000184611548000000000003842900000000007049227700000000000000009999123100000010000000000000BRBRMLACNOR9105
012013082096BRML3F      020BR MALLS PARON      NM   R$  000000000182700000000019660000000001819000000000183600000000019660000000001827000000000196600078000000000000002523000000000004639146000000000000009999123100000010000000000000BRBRMLACNOR9105
012013082062BRML3T      030BR MALLS PARON      NM030R$  000000000184800000000018490000000001848000000000184800000000018490000000000000000000000000000002000000000000001000000000000001848489000000000000009999123100000010000000000000BRBRMLACNOR9105
012013082002BRPR3       010BR PROPERT  ON      NM   R$  000000000182000000000018200000000001789000000000180000000000017950000000001795000000000179805500000000000003111800000000005604071400000000000000009999123100000010000000000000BRBRPRACNOR9112
012013082096BRPR3F      020BR PROPERT  ON      NM   R$  000000000181000000000018400000000001790000000000180200000000018400000000001790000000000184000053000000000000001433000000000002582724000000000000009999123100000010000000000000BRBRPRACNOR9112
012013082002BRSR3       010BANRISUL    ON      N1   R$  000000000128700000000012870000000001287000000000128700000000012870000000001251000000000134000001000000000000000100000000000000128700000000000000009999123100000010000000000000BRBRSRACNOR3130
012013082096BRSR3F      020BANRISUL    ON      N1   R$  000000000135000000000013500000000001350000000000135000000000013500000000001258000000000135000001000000000000000012000000000000016200000000000000009999123100000010000000000000BRBRSRACNOR3130
012013082002BRSR6       010BANRISUL    PNB     N1   R$  000000000139900000000014100000000001375000000000138800000000013850000000001382000000000138503682000000000000726100000000001008472500000000000000009999123100000010000000000000BRBRSRACNPB4133
012013082096BRSR6F      020BANRISUL    PNB     N1   R$  000000000139200000000014010000000001380000000000138900000000013960000000001360000000000139600022000000000000000689000000000000957606000000000000009999123100000010000000000000BRBRSRACNPB4133
012013082062BRSR6T      030BANRISUL    PNB     N1030R$  000000000139400000000013950000000001394000000000139400000000013950000000000000000000000000000004000000000000001000000000000001394972000000000000009999123100000010000000000000BRBRSRACNPB4133
012013082062BRSR6T      030BANRISUL    PNB     N1062R$  000000000140400000000014050000000001399000000000140000000000014000000000000000000000000000000008000000000000006000000000000008400161000000000000009999123100000010000000000000BRBRSRACNPB4133
012013082002BSEV3       010BIOSEV      ON      NM   R$  000000000079800000000008650000000000798000000000084800000000008460000000000846000000000086400016000000000000011400000000000009676900000000000000009999123100000010000000000000BRBSEVACNOR3100
012013082096BSEV3F      020BIOSEV      ON      NM   R$  000000000086900000000008690000000000841000000000084200000000008410000000000805000000000086900002000000000000000016000000000000013484000000000000009999123100000010000000000000BRBSEVACNOR3100
012013082082BSEVS99     080BSEVE       ON      NM000R$  000000000049000000000004900000000000490000000000049000000000004900000000000590000000000065000003000000000000000904000000000000442960000000000165702014072100000010000000000000BRBSEVACNOR3100
012013082002BTOW3       010B2W DIGITAL ON      NM   R$  000000000139100000000013920000000001280000000000130700000000012800000000001280000000000128902684000000000001284900000000001679796100000000000000009999123100000010000000000000BRBTOWACNOR8105
012013082096BTOW3F      020B2W DIGITAL ON      NM   R$  000000000136100000000013610000000001290000000000131500000000013190000000001281000000000131900049000000000000001253000000000001648440000000000000009999123100000010000000000000BRBTOWACNOR8105
012013082062BTOW3T      030B2W DIGITAL ON      NM030R$  000000000131000000000013110000000001310000000000131000000000013110000000000000000000000000000002000000000000005000000000000006554919000000000000009999123100000010000000000000BRBTOWACNOR8105
012013082002BTTL4       010BATTISTELLA PN           R$  000000000010000000000001000000000000098000000000009800000000000990000000000099000000000010100009000000000000027000000000000002663700000000000000009999123100000010000000000000BRBTTLACNPR7105
012013082002BVMF3       010BMFBOVESPA  ON      NM   R$  000000000113200000000011560000000001120000000000113600000000011280000000001125000000000112822148000000000013306500000000015119997800000000000000009999123100000010000000000000BRBVMFACNOR3125
012013082096BVMF3F      020BMFBOVESPA  ON      NM   R$  000000000113500000000011550000000001122000000000113600000000011300000000001120000000000113000115000000000000003524000000000004005581000000000000009999123100000010000000000000BRBVMFACNOR3125
012013082062BVMF3T      030BMFBOVESPA  ON      NM030R$  000000000115400000000011550000000001135000000000113600000000011360000000000000000000000000000004000000000000050400000000000057256409000000000000009999123100000010000000000000BRBVMFACNOR3125
012013082062BVMF3T      030BMFBOVESPA  ON      NM041R$  000000000115500000000011560000000001155000000000115500000000011560000000000000000000000000000002000000000000001740000000000002011028000000000000009999123100000010000000000000BRBVMFACNOR3125
012013082062BVMF3T      030BMFBOVESPA  ON      NM062R$  000000000114000000000011410000000001140000000000114000000000011410000000000000000000000000000006000000000000050000000000000057043124000000000000009999123100000010000000000000BRBVMFACNOR3125
012013082062BVMF3T      030BMFBOVESPA  ON      NM120R$  000000000115700000000011580000000001157000000000115700000000011580000000000000000000000000000002000000000000001000000000000001157078000000000000009999123100000010000000000000BRBVMFACNOR3125
012013082078BVMFI10     070BVMF        ON      NM000R$  000000000013700000000001400000000000137000000000013800000000001400000000000000000000000000000002000000000000002000000000000000277000000000000100002013091600000010000000000000BRBVMFACNOR3125
012013082078BVMFI11     070BVMF  FM    ON      NM000R$  000000000007400000000000790000000000058000000000006500000000000710000000000071000000000007400120000000000000232800000000000015247300000000000110002013091600000010000000000000BRBVMFACNOR3125
012013082078BVMFI12     070BVMF  FM    ON      NM000R$  000000000002300000000000240000000000016000000000002000000000000170000000000017000000000001800252000000000000971200000000000020162900000000000120002013091600000010000000000000BRBVMFACNOR3125
012013082078BVMFI13     070BVMF  FM    ON      NM000R$  000000000000700000000000070000000000005000000000000600000000000050000000000005000000000000600122000000000000299800000000000001861400000000000130002013091600000010000000000000BRBVMFACNOR3125
012013082078BVMFI14     070BVMF        ON      NM000R$  000000000000200000000000020000000000002000000000000200000000000020000000000001000000000000200023000000000000170300000000000000340600000000000140002013091600000010000000000000BRBVMFACNOR3125
012013082078BVMFI35     070BVMFE       ON      NM000R$  000000000000600000000000060000000000006000000000000600000000000060000000000000000000000000000001000000000000220000000000000001320000000000000132502013091600000010000000000000BRBVMFACNOR3125
012013082078BVMFI40     070BVMF        ON      NM000R$  000000000011000000000001100000000000110000000000011000000000001100000000000000000000000000000002000000000000005600000000000000616000000000000105002013091600000010000000000000BRBVMFACNOR3125
012013082078BVMFI41     070BVMF  FM    ON      NM000R$  000000000004700000000000470000000000034000000000003900000000000340000000000000000000000003400042000000000000132900000000000005312500000000000115002013091600000010000000000000BRBVMFACNOR3125
012013082078BVMFI42     070BVMF  FM    ON      NM000R$  000000000001200000000000120000000000008000000000000900000000000080000000000000000000000001100058000000000000135000000000000001308800000000000125002013091600000010000000000000BRBVMFACNOR3125
012013082078BVMFI43     070BVMF        ON      NM000R$  000000000000300000000000030000000000003000000000000300000000000030000000000000000000000002500001000000000000000300000000000000000900000000000135002013091600000010000000000000BRBVMFACNOR3125
012013082078BVMFJ11     070BVMF  FM    ON      NM000R$  000000000010300000000001030000000000084000000000009600000000000840000000000000000000000009200046000000000000105200000000000010187400000000000110002013102100000010000000000000BRBVMFACNOR3125
012013082078BVMFJ12     070BVMF  FM    ON      NM000R$  000000000004600000000000460000000000033000000000003700000000000330000000000031000000000003500039000000000000110800000000000004182700000000000120002013102100000010000000000000BRBVMFACNOR3125
012013082078BVMFJ13     070BVMF  FM    ON      NM000R$  000000000001400000000000150000000000011000000000001400000000000110000000000005000000000001200036000000000000105700000000000001495700000000000130002013102100000010000000000000BRBVMFACNOR3125
012013082078BVMFJ14     070BVMF        ON      NM000R$  000000000000500000000000050000000000005000000000000500000000000050000000000003000000000000000001000000000000005000000000000000025000000000000140002013102100000010000000000000BRBVMFACNOR3125
012013082078BVMFJ41     070BVMF  FM    ON      NM000R$  000000000007200000000000720000000000055000000000006700000000000550000000000000000000000000000022000000000000045000000000000003057400000000000115002013102100000010000000000000BRBVMFACNOR3125
012013082078BVMFJ42     070BVMF  FM    ON      NM000R$  000000000002800000000000280000000000020000000000002400000000000200000000000000000000000000000020000000000000058900000000000001434400000000000125002013102100000010000000000000BRBVMFACNOR3125
012013082078BVMFK11     070BVMF        ON      NM000R$  000000000010300000000001030000000000103000000000010300000000001030000000000000000000000000000001000000000000003000000000000000309000000000000110002013111800000010000000000000BRBVMFACNOR3125
012013082078BVMFK13     070BVMF        ON      NM000R$  000000000002300000000000230000000000023000000000002300000000000230000000000000000000000002800001000000000000002900000000000000066700000000000130002013111800000010000000000000BRBVMFACNOR3125
012013082078BVMFK14     070BVMF        ON      NM000R$  000000000001200000000000120000000000012000000000001200000000000120000000000000000000000000000001000000000000003000000000000000036000000000000140002013111800000010000000000000BRBVMFACNOR3125
012013082078BVMFK15     070BVMF        ON      NM000R$  000000000000400000000000040000000000004000000000000400000000000040000000000000000000000000000001000000000000002900000000000000011600000000000150002013111800000010000000000000BRBVMFACNOR3125
012013082082BVMFU10     080BVMFE       ON      NM000R$  000000000000500000000000050000000000005000000000000500000000000050000000000005000000000001000011000000000000061800000000000000309000000000000100002013091600000010000000000000BRBVMFACNOR3125
012013082082BVMFU11     080BVMFE FM    ON      NM000R$  000000000002300000000000280000000000021000000000002400000000000280000000000000000000000003500025000000000000092500000000000002240500000000000110002013091600000010000000000000BRBVMFACNOR3125
012013082082BVMFU12     080BVMFE FM    ON      NM000R$  000000000006800000000000840000000000067000000000007600000000000830000000000067000000000000000083000000000000237100000000000018170600000000000120002013091600000010000000000000BRBVMFACNOR3125
012013082082BVMFU13     080BVMFE       ON      NM000R$  000000000014900000000001730000000000149000000000015800000000001720000000000000000000000000000045000000000000037000000000000005879000000000000130002013091600000010000000000000BRBVMFACNOR3125
012013082082BVMFU35     080BVMFE       ON      NM000R$  000000000018500000000001850000000000185000000000018500000000001850000000000000000000000000000001000000000000220000000000000040700000000000000132502013091600000010000000000000BRBVMFACNOR3125
012013082082BVMFU40     080BVMFE FM    ON      NM000R$  000000000001100000000000110000000000009000000000000900000000000100000000000007000000000001800005000000000000012300000000000000119800000000000105002013091600000010000000000000BRBVMFACNOR3125
012013082082BVMFU41     080BVMFE FM    ON      NM000R$  000000000003700000000000500000000000037000000000004400000000000490000000000037000000000000000027000000000000078700000000000003509700000000000115002013091600000010000000000000BRBVMFACNOR3125
012013082082BVMFU42     080BVMFE       ON      NM000R$  000000000010500000000001100000000000105000000000010700000000001090000000000000000000000000000007000000000000035400000000000003810600000000000125002013091600000010000000000000BRBVMFACNOR3125
012013082082BVMFV10     080BVMFE       ON      NM000R$  000000000001400000000000160000000000014000000000001500000000000160000000000000000000000002000002000000000000000300000000000000004600000000000100002013102100000010000000000000BRBVMFACNOR3125
012013082082BVMFV11     080BVMFE FM    ON      NM000R$  000000000003900000000000430000000000037000000000003900000000000420000000000000000000000000000018000000000000057300000000000002268400000000000110002013102100000010000000000000BRBVMFACNOR3125
012013082082BVMFV12     080BVMFE FM    ON      NM000R$  000000000008100000000000930000000000081000000000008500000000000930000000000000000000000000000031000000000000104700000000000008936400000000000120002013102100000010000000000000BRBVMFACNOR3125
012013082082BVMFV40     080BVMFE FM    ON      NM000R$  000000000002500000000000270000000000024000000000002400000000000260000000000000000000000000000022000000000000053500000000000001335500000000000105002013102100000010000000000000BRBVMFACNOR3125
012013082082BVMFV41     080BVMFE FM    ON      NM000R$  000000000005700000000000650000000000055000000000006100000000000650000000000000000000000008000044000000000000141700000000000008644400000000000115002013102100000010000000000000BRBVMFACNOR3125
012013082082BVMFV9      080BVMFE       ON      NM000R$  000000000000600000000000060000000000006000000000000600000000000060000000000000000000000000000001000000000000000100000000000000000600000000000090002013102100000010000000000000BRBVMFACNOR3125
012013082082BVMFW10     080BVMFE       ON      NM000R$  000000000002500000000000250000000000025000000000002500000000000250000000000000000000000000000001000000000000001100000000000000027500000000000100002013111800000010000000000000BRBVMFACNOR3125
012013082082BVMFW11     080BVMFE       ON      NM000R$  000000000004700000000000470000000000047000000000004700000000000470000000000000000000000000000003000000000000001900000000000000089300000000000110002013111800000010000000000000BRBVMFACNOR3125
012013082082BVMFW12     080BVMFE       ON      NM000R$  000000000009400000000000940000000000090000000000009300000000000900000000000000000000000000000002000000000000003800000000000000354000000000000120002013111800000010000000000000BRBVMFACNOR3125
012013082082BVMFX10     080BVMFE       ON      NM000R$  000000000003200000000000320000000000032000000000003200000000000320000000000000000000000000000001000000000000000100000000000000003200000000000100002013121600000010000000000000BRBVMFACNOR3125
012013082082BVMFX11     080BVMFE       ON      NM000R$  000000000005200000000000520000000000052000000000005200000000000520000000000000000000000000000001000000000000000100000000000000005200000000000110002013121600000010000000000000BRBVMFACNOR3125
012013082002CAMB4       010CAMBUCI     PN           R$  000000000018300000000001830000000000182000000000018200000000001820000000000182000000000018900003000000000000003200000000000000583600000000000000009999123100000010000000000000BRCAMBACNPR1117
012013082096CAMB4F      020CAMBUCI     PN           R$  000000000017200000000001720000000000165000000000016800000000001650000000000100000000000025000003000000000000000003000000000000000504000000000000009999123100000010000000000000BRCAMBACNPR1117
012013082002CARD3       010CSU CARDSYSTON      NM   R$  000000000032800000000003290000000000326000000000032700000000003290000000000324000000000032900010000000000000003900000000000001277200000000000000009999123100000010000000000000BRCARDACNOR9105
012013082002CBMA4       010COBRASMA    PN           R$  000000000000400000000000050000000000004000000000000400000000000050000000000004000000000000500007000000000000330000000000000001340000000000000000009999123100000010000000000000BRCBMAACNPR1124
012013082008CCHI3       010CHIARELLI   ON           R$  000000000003100000000000310000000000029000000000002900000000000290000000000028000000000002900014000000000000260000000000000007600000000000000000009999123100000010000000000000BRCCHIACNOR5123
012013082096CCHI3F      020CHIARELLI   ON           R$  000000000003100000000000310000000000030000000000003000000000000300000000000029000000000003000009000000000000019790000000000000605700000000000000009999123100000010000000000000BRCCHIACNOR5123
012013082002CCPR3       010CYRE COM-CCPON      NM   R$  000000000218000000000021990000000002168000000000218300000000021990000000002167000000000220000009000000000000001800000000000003930800000000000000009999123100000010000000000000BRCCPRACNOR9107
012013082096CCPR3F      020CYRE COM-CCPON      NM   R$  000000000217800000000021780000000002178000000000217800000000021780000000002156000000000257800003000000000000000041000000000000089298000000000000009999123100000010000000000000BRCCPRACNOR9107
012013082002CCRO3       010CCR SA      ON      NM   R$  000000000173000000000017600000000001703000000000172900000000017100000000001709000000000171013833000000000006111500000000010569214800000000000000009999123100000010000000000000BRCCROACNOR2122
012013082096CCRO3F      020CCR SA      ON      NM   R$  000000000172500000000017670000000001696000000000172900000000016960000000001696000000000174900050000000000000001423000000000002460398000000000000009999123100000010000000000000BRCCROACNOR2122
012013082078CCROI17     070CCRO        ON      NM000R$  000000000003500000000000350000000000035000000000003500000000000350000000000000000000000000000003000000000000050000000000000001750000000000000170002013091600000010000000000000BRCCROACNOR2122
012013082078CCROI18     070CCRO        ON      NM000R$  000000000001600000000000160000000000016000000000001600000000000160000000000000000000000000000002000000000000013400000000000000214400000000000180002013091600000010000000000000BRCCROACNOR2122
012013082078CCROI47     070CCRO        ON      NM000R$  000000000002600000000000260000000000016000000000002100000000000160000000000000000000000000000003000000000000065900000000000001390400000000000175002013091600000010000000000000BRCCROACNOR2122
012013082002CCXC3       010CCX CARVAO  ON      NM   R$  000000000010000000000001280000000000100000000000011900000000001280000000000127000000000012802866000000000026057700000000003118956800000000000000009999123100000010000000000000BRCCXCACNOR5100
012013082096CCXC3F      020CCX CARVAO  ON      NM   R$  000000000010000000000001260000000000100000000000011800000000001260000000000126000000000013500044000000000000001292000000000000153128000000000000009999123100000010000000000000BRCCXCACNOR5100
012013082062CCXC3T      030CCX CARVAO  ON      NM016R$  000000000011900000000001290000000000119000000000012800000000001290000000000000000000000000000008000000000000250000000000000032055012000000000000009999123100000010000000000000BRCCXCACNOR5100
012013082062CCXC3T      030CCX CARVAO  ON      NM030R$  000000000012300000000001240000000000123000000000012300000000001240000000000000000000000000000002000000000000030000000000000003716937000000000000009999123100000010000000000000BRCCXCACNOR5100
012013082002CEBR5       010CEB         PNA          R$  000000000190100000000019010000000001900000000000190000000000019000000000001900000000000210000007000000000000014500000000000027550400000000000000009999123100000010000000000000BRCEBRACNPA8113
012013082096CEEB3F      020COELBA      ON           R$  000000000350000000000035000000000003500000000000350000000000035000000000003259000000000350000001000000000000000008000000000000028000000000000000009999123100000010000000000000BRCEEBACNOR3163
012013082008CELP3       010CELPA       ON           R$  000000000006400000000000640000000000063000000000006300000000000630000000000060000000000006400010000000000000033300000000000002111200000000000000009999123100000010000000000000BRCELPACNOR8112
012013082012CEOC11B     010FII CEO CCP CI      MB   R$  000000000895000000000089500000000008800000000000889900000000089500000000008860000000000895000047000000000000002414000000000021483484000000000000009999123100000010000000000000BRCEOCCTF003109
012013082002CESP3       010CESP        ON  EJ  N1   R$  000000000168000000000017000000000001680000000000168300000000016800000000001653000000000171000003000000000000001200000000000002020000000000000000009999123100000010000000000000BRCESPACNOR3160
012013082002CESP6       010CESP        PNB EJ  N1   R$  000000000203500000000020690000000002018000000000203500000000020340000000002025000000000203403209000000000000844600000000001719072100000000000000009999123100000010000000000000BRCESPACNPB4119
012013082096CESP6F      020CESP        PNB EJ  N1   R$  000000000203000000000020530000000002012000000000203400000000020370000000002014000000000203700018000000000000000530000000000001078162000000000000009999123100000010000000000000BRCESPACNPB4119
012013082062CESP6T      030CESP        PNB EJ  N1062R$  000000000206900000000020700000000002069000000000206900000000020700000000000000000000000000000002000000000000010000000000000020697840000000000000009999123100000010000000000000BRCESPACNPB4119
012013082078CESPJ22     070CESP    /EJ PNB     N1000R$  000000000002500000000000250000000000025000000000002500000000000250000000000000000000000000000002000000000000365000000000000009125000000000000220002013102100000010000000000000BRCESPACNPB4119
012013082078CESPK22     070CESP    /EJ PNB     N1000R$  000000000006400000000000640000000000064000000000006400000000000640000000000000000000000000000002000000000000600000000000000038400000000000000220002013111800000010000000000000BRCESPACNPB4119
012013082082CESPV49     080CESPE   /EJ PNB     N1000R$  000000000004100000000000410000000000041000000000004100000000000410000000000000000000000000000001000000000000365000000000000014965000000000000195002013102100000010000000000000BRCESPACNPB4119
012013082082CESPV50     080CESPE   /EJ PNB     N1000R$  000000000007600000000000760000000000076000000000007600000000000760000000000000000000000000000001000000000000365000000000000027740000000000000205002013102100000010000000000000BRCESPACNPB4119
012013082082CESPW49     080CESPE   /EJ PNB     N1000R$  000000000006300000000000630000000000063000000000006300000000000630000000000000000000000000000002000000000000600000000000000037800000000000000195002013111800000010000000000000BRCESPACNPB4119
012013082082CESPW50     080CESPE   /EJ PNB     N1000R$  000000000010200000000001030000000000102000000000010200000000001030000000000000000000000000000003000000000000600000000000000061500000000000000205002013111800000010000000000000BRCESPACNPB4119
012013082002CGAS5       010COMGAS      PNA          R$  000000000557200000000055980000000005525000000000554300000000055690000000005534000000000556800073000000000000011800000000000065409700000000000000009999123100000010000000000000BRCGASACNPA3129
012013082002CGRA4       010GRAZZIOTIN  PN           R$  000000000169300000000016930000000001651000000000167100000000016690000000001623000000000166900036000000000000009200000000000015377800000000000000009999123100000010000000000000BRCGRAACNPR9061
012013082096CGRA4F      020GRAZZIOTIN  PN           R$  000000000169000000000016900000000001600000000000164800000000016400000000001677000000000172500005000000000000000069000000000000113780000000000000009999123100000010000000000000BRCGRAACNPR9061
012013082002CIEL3       010CIELO       ON      NM   R$  000000000555800000000056430000000005527000000000560300000000056000000000005600000000000560505082000000000001958000000000010970902600000000000000009999123100000010000000000000BRCIELACNOR3111
012013082096CIEL3F      020CIELO       ON      NM   R$  000000000556000000000056400000000005531000000000559900000000056000000000005538000000000560000068000000000000001826000000000010225193000000000000009999123100000010000000000000BRCIELACNOR3111
012013082062CIEL3T      030CIELO       ON      NM030R$  000000000564500000000056470000000005641000000000564400000000056420000000000000000000000000000022000000000000350000000000001975428460000000000000009999123100000010000000000000BRCIELACNOR3111
012013082078CIELJ58     070CIEL        ON      NM000R$  000000000005000000000000500000000000050000000000005000000000000500000000000000000000000000000002000000000000001000000000000000050000000000000580002013102100000010000000000000BRCIELACNOR3111
012013082078CIELJ59     070CIEL        ON      NM000R$  000000000008100000000000810000000000080000000000008000000000000800000000000000000000000000000003000000000000018100000000000001448100000000000590002013102100000010000000000000BRCIELACNOR3111
012013082078CIELK60     070CIEL        ON      NM000R$  000000000013200000000001470000000000131000000000014500000000001460000000000000000000000000000004000000000000285000000000000041429500000000000600002013111800000010000000000000BRCIELACNOR3111
012013082082CIELW52     080CIELE       ON      NM000R$  000000000006200000000000620000000000050000000000005100000000000500000000000000000000000000000003000000000000285000000000000014550000000000000520002013111800000010000000000000BRCIELACNOR3111
012013082082CIELW56     080CIELE       ON      NM000R$  000000000019800000000002000000000000198000000000019900000000002000000000000000000000000000000002000000000000285000000000000056950000000000000560002013111800000010000000000000BRCIELACNOR3111
012013082002CIQU4       010CACIQUE     PN           R$  000000000072800000000009000000000000728000000000077600000000009000000000000670000000000090000004000000000000000400000000000000310600000000000000009999123100000010000000000000BRCIQUACNPR5157
012013082096CIQU4F      020CACIQUE     PN           R$  000000000075000000000007500000000000750000000000075000000000007500000000000670000000000080000002000000000000000067000000000000050250000000000000009999123100000010000000000000BRCIQUACNPR5157
012013082002CLSC4       010CELESC      PN      N2   R$  000000000184500000000018500000000001802000000000182300000000018260000000001825000000000183000095000000000000016700000000000030459000000000000000009999123100000010000000000000BRCLSCACNPR3107
012013082002CMCS11B     010COMCAST     DRN     MB   R$  000000001025100000000102510000000010251000000001025100000000102510000000010055000000001038600001000000000000000500000000000005125500000000000000009999123100000010000000000000BRCMCSBDR008106
012013082058CMGR3       010CEMAT       ON           R$  000000000048500000000005200000000000485000000000050200000000005200000000000440000000000060000002000000000000000200000000000000100500000000000000009999123100000010000000000000BRCMGRACNOR7114
012013082002CMIG3       010CEMIG       ON      N1   R$  000000000196300000000019630000000001905000000000192700000000019110000000001905000000000191100179000000000000048900000000000094270100000000000000009999123100000010000000000000BRCMIGACNOR6208
012013082096CMIG3F      020CEMIG       ON      N1   R$  000000000198300000000019830000000001903000000000192600000000019050000000001905000000000193900027000000000000000709000000000001365620000000000000009999123100000010000000000000BRCMIGACNOR6208
012013082002CMIG4       010CEMIG       PN      N1   R$  000000000196500000000019700000000001925000000000195300000000019250000000001925000000000192908295000000000002591800000000005063032500000000000000009999123100000010000000000000BRCMIGACNPR3208
012013082096CMIG4F      020CEMIG       PN      N1   R$  000000000196000000000019900000000001930000000000195200000000019640000000001930000000000196400140000000000000003651000000000007126447000000000000009999123100000010000000000000BRCMIGACNPR3208
012013082062CMIG4T      030CEMIG       PN      N1030R$  000000000197700000000019780000000001977000000000197700000000019780000000000000000000000000000004000000000000000400000000000000790854000000000000009999123100000010000000000000BRCMIGACNPR3208
012013082062CMIG4T      030CEMIG       PN      N1062R$  000000000198200000000019830000000001982000000000198200000000019830000000000000000000000000000002000000000000004000000000000007929332000000000000009999123100000010000000000000BRCMIGACNPR3208
012013082078CMIGI20     070CMIG        PN      N1000R$  000000000005000000000000500000000000040000000000004600000000000400000000000000000000000004300002000000000000000300000000000000014000000000000200002013091600000010000000000000BRCMIGACNPR3208
012013082078CMIGI21     070CMIG        PN      N1000R$  000000000000900000000000090000000000009000000000000900000000000090000000000000000000000003500002000000000000004800000000000000043200000000000210002013091600000010000000000000BRCMIGACNPR3208
012013082012CNES11B     010FII CENESP  CI      MB   R$  000000001261000000000128450000000012580000000001263300000000125800000000012580000000001281500005000000000000000085000000000001073825000000000000009999123100000010000000000000BRCNESCTF001124
012013082002COCA11B     010COCA COLA   DRN     MB   R$  000000000938200000000093820000000009306000000000934400000000093060000000009176000000000940000002000000000000000600000000000005606400000000000000009999123100000010000000000000BRCOCABDR002108
012013082002COCE3       010COELCE      ON           R$  000000000400200000000040880000000003980000000000400100000000039800000000003850000000000398000011000000000000002500000000000010003500000000000000009999123100000010000000000000BRCOCEACNOR0132
012013082002COCE5       010COELCE      PNA          R$  000000000391500000000039640000000003900000000000393100000000039400000000003940000000000394200109000000000000028500000000000112056500000000000000009999123100000010000000000000BRCOCEACNPA3133
012013082096COCE5F      020COELCE      PNA          R$  000000000394000000000039400000000003890000000000391600000000039350000000003822000000000409200015000000000000000200000000000000783202000000000000009999123100000010000000000000BRCOCEACNPA3133
012013082002CPFE3       010CPFL ENERGIAON      NM   R$  000000000202400000000020330000000002001000000000201800000000020200000000002004000000000202003491000000000000625500000000001262362400000000000000009999123100000010000000000000BRCPFEACNOR0121
012013082096CPFE3F      020CPFL ENERGIAON      NM   R$  000000000208300000000021020000000002007000000000203000000000021020000000002003000000000210200025000000000000000553000000000001122603000000000000009999123100000010000000000000BRCPFEACNOR0121
012013082062CPFE3T      030CPFL ENERGIAON      NM062R$  000000000204100000000020420000000002041000000000204100000000020420000000000000000000000000000002000000000000001000000000000002041995000000000000009999123100000010000000000000BRCPFEACNOR0121
012013082002CPLE3       010COPEL       ON      N1   R$  000000000228900000000022950000000002218000000000224400000000022340000000002221000000000223400060000000000000014700000000000032998600000000000000009999123100000010000000000000BRCPLEACNOR8128
012013082096CPLE3F      020COPEL       ON      N1   R$  000000000210200000000022350000000002101000000000217100000000022350000000002210000000000223500004000000000000000155000000000000336648000000000000009999123100000010000000000000BRCPLEACNOR8128
012013082002CPLE6       010COPEL       PNB     N1   R$  000000000300400000000030390000000002961000000000299000000000029730000000002973000000000297902045000000000000428100000000001280212300000000000000009999123100000010000000000000BRCPLEACNPB9125
012013082096CPLE6F      020COPEL       PNB     N1   R$  000000000302700000000030280000000002972000000000299600000000030280000000002971000000000308400018000000000000000630000000000001891091000000000000009999123100000010000000000000BRCPLEACNPB9125
012013082062CPLE6T      030COPEL       PNB     N1030R$  000000000301200000000030130000000003012000000000301200000000030130000000000000000000000000000002000000000000000200000000000000602425000000000000009999123100000010000000000000BRCPLEACNPB9125
012013082002CPRE3       010CPFL RENOVAVON      NM   R$  000000000118600000000011860000000001186000000000118600000000011860000000001185000000000121800001000000000000000100000000000000118600000000000000009999123100000010000000000000BRCPREACNOR5100
012013082096CPRE3F      020CPFL RENOVAVON      NM   R$  000000000117500000000011750000000001174000000000117400000000011740000000001174000000000121800002000000000000000092000000000000108087000000000000009999123100000010000000000000BRCPREACNOR5100
012013082002CRDE3       010CR2         ON      NM   R$  000000000041700000000004250000000000415000000000042000000000004240000000000418000000000042400007000000000000017600000000000007392300000000000000009999123100000010000000000000BRCRDEACNOR1108
012013082002CREM3       010CREMER      ON      NM   R$  000000000145000000000014880000000001442000000000146000000000014420000000001427000000000148900030000000000000006200000000000009052300000000000000009999123100000010000000000000BRCREMACNOR2166
012013082002CRIV3       010ALFA FINANC ON  EJ       R$  000000000051200000000005120000000000491000000000050300000000004910000000000491000000000051000016000000000000008400000000000004232600000000000000009999123100000010000000000000BRCRIVACNOR4190
012013082096CRIV3F      020ALFA FINANC ON  EJ       R$  000000000050000000000005100000000000500000000000050500000000005100000000000400000000000055000002000000000000000042000000000000021210000000000000009999123100000010000000000000BRCRIVACNOR4190
012013082002CRIV4       010ALFA FINANC PN  EJ       R$  000000000045700000000004650000000000450000000000045400000000004500000000000450000000000046800021000000000000013200000000000006002900000000000000009999123100000010000000000000BRCRIVACNPR1190
012013082002CRUZ3       010SOUZA CRUZ  ON           R$  000000000266500000000026890000000002602000000000263900000000026200000000002608000000000262003811000000000000916800000000002419459600000000000000009999123100000010000000000000BRCRUZACNOR0246
012013082096CRUZ3F      020SOUZA CRUZ  ON           R$  000000000263800000000026980000000002520000000000264200000000026870000000002529000000000268700103000000000000002647000000000006995282000000000000009999123100000010000000000000BRCRUZACNOR0246
012013082062CRUZ3T      030SOUZA CRUZ  ON        030R$  000000000269400000000026950000000002694000000000269400000000026950000000000000000000000000000002000000000000002000000000000005389999000000000000009999123100000010000000000000BRCRUZACNOR0246
012013082078CRUZI28     070CRUZ        ON        000R$  000000000000800000000000080000000000008000000000000800000000000080000000000000000000000000000001000000000000001800000000000000014400000000000280002013091600000010000000000000BRCRUZACNOR0246
012013082002CSAN3       010COSAN       ON      NM   R$  000000000405400000000041160000000003989000000000404800000000040250000000004018000000000402504891000000000001421500000000005755030700000000000000009999123100000010000000000000BRCSANACNOR6108
012013082096CSAN3F      020COSAN       ON      NM   R$  000000000406000000000041100000000003997000000000404900000000041100000000003951000000000411000029000000000000000708000000000002867189000000000000009999123100000010000000000000BRCSANACNOR6108
012013082062CSAN3T      030COSAN       ON      NM016R$  000000000403400000000041070000000004030000000000408700000000041070000000000000000000000000000012000000000000004500000000000018392272000000000000009999123100000010000000000000BRCSANACNOR6108
012013082078CSANJ41     070CSAN        ON      NM000R$  000000000019000000000001900000000000189000000000018900000000001890000000000000000000000000000002000000000000500000000000000094750000000000000410002013102100000010000000000000BRCSANACNOR6108
012013082078CSANJ45     070CSAN        ON      NM000R$  000000000004100000000000410000000000041000000000004100000000000410000000000000000000000000000001000000000000500000000000000020500000000000000450002013102100000010000000000000BRCSANACNOR6108
012013082002CSCO11B     010CISCO       DRN     MB   R$  000000000588000000000058800000000005880000000000588000000000058800000000005729000000000592500002000000000000002600000000000015288000000000000000009999123100000010000000000000BRCSCOBDR004110
012013082002CSMG3       010COPASA      ON      NM   R$  000000000298200000000029820000000002922000000000296600000000029800000000002970000000000298001922000000000000277500000000000823134700000000000000009999123100000010000000000000BRCSMGACNOR5127
012013082096CSMG3F      020COPASA      ON      NM   R$  000000000297000000000030990000000002954000000000297700000000029990000000002930000000000339600018000000000000000331000000000000985675000000000000009999123100000010000000000000BRCSMGACNOR5127
012013082062CSMG3T      030COPASA      ON      NM062R$  000000000298700000000029880000000002987000000000298700000000029880000000000000000000000000000002000000000000000500000000000001493557000000000000009999123100000010000000000000BRCSMGACNOR5127
012013082062CSMG3T      030COPASA      ON      NM181R$  000000000309600000000030970000000003096000000000309600000000030970000000000000000000000000000002000000000000000600000000000001858104000000000000009999123100000010000000000000BRCSMGACNOR5127
