00COTAHIST.2013BOVESPA 20131022                                                                                                                                                                                                                      
012013102202ABCB4       010ABC BRASIL  PN      N2   R$  000000000136500000000013730000000001354000000000135800000000013540000000001354000000000135601008000000000000212800000000000289131100000000000000009999123100000010000000000000BRABCBACNPR4120
012013102296ABCB4F      020ABC BRASIL  PN      N2   R$  000000000134600000000013790000000001316000000000135000000000013160000000001316000000000136900012000000000000000236000000000000318760000000000000009999123100000010000000000000BRABCBACNPR4120
012013102212ABCP11      010FII ABC IMOBCI           R$  000000000099000000000009900000000000985000000000098900000000009850000000000951000000000099000005000000000000001272000000000001258150000000000000009999123100000010000000000000BRABCPCTF000216
012013102202ABRE11      010ABRIL EDUCA UNT     N2   R$  000000000323500000000032670000000003200000000000322000000000032000000000003194000000000320000228000000000000049200000000000158454200000000000000009999123100000010000000000000BRABRECDAM15102
012013102296ABRE11F     020ABRIL EDUCA UNT     N2   R$  000000000320000000000032650000000003200000000000323300000000032410000000003200000000000326900005000000000000000091000000000000294214000000000000009999123100000010000000000000BRABRECDAM15102
012013102202AEDU3       010ANHANGUERA  ON      NM   R$  000000000131500000000013350000000001300000000000131100000000013240000000001316000000000132404113000000000002668400000000003500187100000000000000009999123100000010000000000000BRAEDUACNOR9107
012013102296AEDU3F      020ANHANGUERA  ON      NM   R$  000000000132000000000013310000000001291000000000131600000000013010000000001300000000000133100024000000000000000762000000000001003117000000000000009999123100000010000000000000BRAEDUACNOR9107
012013102262AEDU3T      030ANHANGUERA  ON      NM090R$  000000000135000000000013510000000001350000000000135000000000013510000000000000000000000000000002000000000000001000000000000001350375000000000000009999123100000010000000000000BRAEDUACNOR9107
012013102278AEDUK43     070AEDU        ON      NM000R$  000000000001600000000000160000000000016000000000001600000000000160000000000000000000000000000001000000000000004000000000000000064000000000000135002013111800000010000000000000BRAEDUACNOR9107
012013102212AEFI11      010FII AESAPAR CI           R$  000000001209600000000121300000000012023000000001211400000000121300000000012051000000001213000014000000000000000558000000000006759940000000000000009999123100000010000000000000BRAEFICTF002122
012013102202AELP3       010AES ELPA    ON           R$  000000000094700000000010000000000000947000000000097100000000009800000000000820000000000098000022000000000000013600000000000013218300000000000000009999123100000010000000000000BRAELPACNOR2119
012013102262AELP3T      030AES ELPA    ON        062R$  000000000099800000000009990000000000998000000000099800000000009990000000000000000000000000000002000000000000005000000000000004992165000000000000009999123100000010000000000000BRAELPACNOR2119
012013102212AGCX11      010FII AG CAIXACI           R$  000000009401000000000945010000000094010000000009436400000000945010000000094500000000009450100006000000000000000025000000000002359107000000000000009999123100000010000000000000BRAGCXCTF003111
012013102202AGRO3       010BRASILAGRO  ON      NM   R$  000000000100400000000010050000000000992000000000100000000000010000000000001000000000000100500043000000000000017100000000000017105500000000000000009999123100000010000000000000BRAGROACNOR7102
012013102202ALLL3       010ALL AMER LATON      NM   R$  000000000084800000000008500000000000841000000000084500000000008460000000000846000000000084906807000000000002200800000000001859936400000000000000009999123100000010000000000000BRALLLACNOR6118
012013102296ALLL3F      020ALL AMER LATON      NM   R$  000000000084500000000008550000000000842000000000084500000000008470000000000841000000000085500028000000000000000588000000000000497316000000000000009999123100000010000000000000BRALLLACNOR6118
012013102262ALLL3T      030ALL AMER LATON      NM030R$  000000000085100000000008530000000000851000000000085100000000008530000000000000000000000000000012000000000000150000000000000127797969000000000000009999123100000010000000000000BRALLLACNOR6118
012013102262ALLL3T      030ALL AMER LATON      NM062R$  000000000085500000000008560000000000855000000000085500000000008560000000000000000000000000000002000000000000002000000000000001710616000000000000009999123100000010000000000000BRALLLACNOR6118
012013102262ALLL3T      030ALL AMER LATON      NM090R$  000000000086200000000008630000000000862000000000086200000000008630000000000000000000000000000002000000000000005000000000000004313725000000000000009999123100000010000000000000BRALLLACNOR6118
012013102262ALLL3T      030ALL AMER LATON      NM360R$  000000000093700000000009380000000000937000000000093700000000009380000000000000000000000000000002000000000000000200000000000000187522000000000000009999123100000010000000000000BRALLLACNOR6118
012013102212ALMI11B     010FII TORRE ALCI      MB   R$  000000032189900000003248990000000321899000000032282900000003248990000000320100000000032490000010000000000000000013000000000004196778000000000000009999123100000010000000000000BRALMICTF003206
012013102202ALPA3       010ALPARGATAS  ON      N1   R$  000000000134900000000013650000000001310000000000135400000000013650000000001327000000000136500007000000000000001100000000000001490100000000000000009999123100000010000000000000BRALPAACNOR0203
012013102296ALPA3F      020ALPARGATAS  ON      N1   R$  000000000130000000000013290000000001300000000000131900000000013290000000001171000000000000000003000000000000000137000000000000180710000000000000009999123100000010000000000000BRALPAACNOR0203
012013102202ALPA4       010ALPARGATAS  PN      N1   R$  000000000150100000000015580000000001499000000000153700000000015200000000001520000000000153002258000000000000561300000000000862877500000000000000009999123100000010000000000000BRALPAACNPR7203
012013102296ALPA4F      020ALPARGATAS  PN      N1   R$  000000000145500000000015590000000001455000000000153100000000015300000000001494000000000155100023000000000000000439000000000000672519000000000000009999123100000010000000000000BRALPAACNPR7203
012013102202ALSC3       010ALIANSCE    ON      NM   R$  000000000216700000000022360000000002167000000000221900000000022100000000002209000000000221001147000000000000397100000000000881453100000000000000009999123100000010000000000000BRALSCACNOR0104
012013102296ALSC3F      020ALIANSCE    ON      NM   R$  000000000218800000000022050000000002180000000000218600000000021800000000002180000000000224300009000000000000000168000000000000367269000000000000009999123100000010000000000000BRALSCACNOR0104
012013102278ALSCK51     070ALSC        ON      NM000R$  000000000006100000000000610000000000061000000000006100000000000610000000000000000000000000000002000000000000054000000000000003294000000000000215002013111800000010000000000000BRALSCACNOR0104
012013102202ALUP11      010ALUPAR      UNT     N2   R$  000000000173900000000017400000000001715000000000172400000000017210000000001721000000000172700483000000000000168100000000000289839300000000000000009999123100000010000000000000BRALUPCDAM15100
012013102296ALUP11F     020ALUPAR      UNT     N2   R$  000000000173500000000017350000000001720000000000172500000000017200000000001715000000000174900005000000000000000193000000000000333095000000000000009999123100000010000000000000BRALUPCDAM15100
012013102202AMAR3       010LOJAS MARISAON      NM   R$  000000000203200000000020850000000002001000000000205800000000020600000000002060000000000206101910000000000000423600000000000871853100000000000000009999123100000010000000000000BRAMARACNOR4109
012013102296AMAR3F      020LOJAS MARISAON      NM   R$  000000000202000000000020800000000002010000000000206900000000020800000000002021000000000208000015000000000000000259000000000000535987000000000000009999123100000010000000000000BRAMARACNOR4109
012013102262AMAR3T      030LOJAS MARISAON      NM020R$  000000000203500000000020360000000002035000000000203500000000020360000000000000000000000000000002000000000000000500000000000001017765000000000000009999123100000010000000000000BRAMARACNOR4109
012013102262AMAR3T      030LOJAS MARISAON      NM030R$  000000000207000000000020710000000002070000000000207000000000020710000000000000000000000000000002000000000000001000000000000002070468000000000000009999123100000010000000000000BRAMARACNOR4109
012013102262AMAR3T      030LOJAS MARISAON      NM045R$  000000000209100000000020920000000002091000000000209100000000020920000000000000000000000000000002000000000000001000000000000002091759000000000000009999123100000010000000000000BRAMARACNOR4109
012013102202AMBV3       010AMBEV       ON           R$  000000000863600000000087430000000008588000000000867400000000086800000000008676000000000868000920000000000000156100000000001354080900000000000000009999123100000010000000000000BRAMBVACNOR4154
012013102296AMBV3F      020AMBEV       ON           R$  000000000864900000000087590000000008595000000000868200000000087200000000008686000000000875000043000000000000000965000000000008378199000000000000009999123100000010000000000000BRAMBVACNOR4154
012013102262AMBV3S      030AMBEV       ON        030R$  000000000871500000000087160000000008715000000000871500000000087160000000000000000000000000000002000000000000010000000000000087150245000000000000009999123100000010000000000000BRAMBVACNOR4154
012013102262AMBV3T      030AMBEV       ON        030R$  000000000866900000000086700000000008669000000000866900000000086700000000000000000000000000000002000000000000001000000000000008669978000000000000009999123100000010000000000000BRAMBVACNOR4154
012013102202AMBV4       010AMBEV       PN           R$  000000000864900000000087400000000008592000000000868800000000086960000000008696000000000869906672000000000001503300000000013062340200000000000000009999123100000010000000000000BRAMBVACNPR1154
012013102296AMBV4F      020AMBEV       PN           R$  000000000862500000000087400000000008595000000000867900000000087100000000008695000000000871000222000000000000006661000000000057817412000000000000009999123100000010000000000000BRAMBVACNPR1154
012013102262AMBV4T      030AMBEV       PN        030R$  000000000876400000000087650000000008764000000000876400000000087650000000000000000000000000000004000000000000000200000000000001752876000000000000009999123100000010000000000000BRAMBVACNPR1154
012013102262AMBV4T      030AMBEV       PN        062R$  000000000886500000000088660000000008865000000000886500000000088660000000000000000000000000000002000000000000000200000000000001773030000000000000009999123100000010000000000000BRAMBVACNPR1154
012013102262AMBV4T      030AMBEV       PN        090R$  000000000890000000000089010000000008900000000000890000000000089010000000000000000000000000000002000000000000001000000000000008900881000000000000009999123100000010000000000000BRAMBVACNPR1154
012013102262AMBV4T      030AMBEV       PN        182R$  000000000913300000000091340000000009133000000000913300000000091340000000000000000000000000000002000000000000000200000000000001826754000000000000009999123100000010000000000000BRAMBVACNPR1154
012013102278AMBVK85     070AMBV        PN        000R$  000000000029700000000002970000000000297000000000029700000000002970000000000000000000000000000001000000000000003800000000000001128600000000000850002013111800000010000000000000BRAMBVACNPR1154
012013102278AMBVK86     070AMBV        PN        000R$  000000000020000000000002000000000000200000000000020000000000002000000000000000000000000000000001000000000000000600000000000000120000000000000860002013111800000010000000000000BRAMBVACNPR1154
012013102278AMBVK87     070AMBV        PN        000R$  000000000025000000000002500000000000250000000000025000000000002500000000000000000000000000000002000000000000000200000000000000050000000000000863502013111800000010000000000000BRAMBVACNPR1153
012013102278AMBVK88     070AMBV        PN        000R$  000000000010200000000001840000000000090000000000011600000000001840000000000050000000000017000008000000000000003700000000000000432300000000000880002013111800000010000000000000BRAMBVACNPR1154
012013102278AMBVK89     070AMBV        PN        000R$  000000000010000000000001000000000000100000000000010000000000001000000000000000000000000000000001000000000000000200000000000000020000000000000883502013111800000010000000000000BRAMBVACNPR1153
012013102278AMBVK9      070AMBV        PN        000R$  000000000003100000000000350000000000031000000000003400000000000350000000000000000000000000000002000000000000004500000000000000157100000000000900002013111800000010000000000000BRAMBVACNPR1154
012013102278AMBVK90     070AMBV        PN        000R$  000000000008600000000001400000000000086000000000009900000000001130000000000100000000000014000023000000000000019000000000000001894800000000000883102013111800000010000000000000BRAMBVACNPR1154
012013102278AMBVL93     070AMBV        PN        000R$  000000000002500000000000250000000000024000000000002400000000000240000000000000000000000005000002000000000000004500000000000000108100000000000930002013121600000010000000000000BRAMBVACNPR1154
012013102212ANCR11B     010FII ANCAR ICCI      MB   R$  000000014230000000001423000000000142300000000014230000000001423000000000063000000000014230000003000000000000012843000000001827558900000000000000009999123100000010000000000000BRANCRCTF001129
012013102202AORE3       010ALL ORE     ON           R$  000000000010000000000001000000000000090000000000009700000000000900000000000090000000000009900074000000000000057200000000000005577300000000000000009999123100000010000000000000BRAOREACNOR2100
012013102296AORE3F      020ALL ORE     ON           R$  000000000008500000000000850000000000085000000000008500000000000850000000000071000000000008500001000000000000000089000000000000007565000000000000009999123100000010000000000000BRAOREACNOR2100
012013102212AQLL11B     010FII AQUILLA CI      MB   R$  000000014534000000001453400000000145340000000014534000000001453400000000000000000000014534000002000000000000005489000000000797771260000000000000009999123100000010000000000000BRAQLLCTF008100
012013102202ARTR3       010ARTERIS     ON      NM   R$  000000000199200000000020650000000001991000000000203000000000020650000000002054000000000206501855000000000000507200000000001030280200000000000000009999123100000010000000000000BRARTRACNOR3101
012013102296ARTR3F      020ARTERIS     ON      NM   R$  000000000199900000000020480000000001966000000000202700000000020480000000002040000000000217100055000000000000001628000000000003300517000000000000009999123100000010000000000000BRARTRACNOR3101
012013102202ARZZ3       010AREZZO CO   ON      NM   R$  000000000342300000000036140000000003422000000000356400000000035950000000003595000000000360001308000000000000262000000000000933962200000000000000009999123100000010000000000000BRARZZACNOR3109
012013102296ARZZ3F      020AREZZO CO   ON      NM   R$  000000000345000000000036060000000003450000000000352800000000034610000000003461000000000362000033000000000000000967000000000003411695000000000000009999123100000010000000000000BRARZZACNOR3109
012013102262ARZZ3T      030AREZZO CO   ON      NM090R$  000000000366800000000036690000000003668000000000366800000000036690000000000000000000000000000002000000000000001000000000000003668453000000000000009999123100000010000000000000BRARZZACNOR3109
012013102202AUTM3       010AUTOMETAL   ON      NM   R$  000000000185800000000018580000000001828000000000184100000000018340000000001829000000000183400443000000000000116600000000000214664200000000000000009999123100000010000000000000BRAUTMACNOR8109
012013102296AUTM3F      020AUTOMETAL   ON      NM   R$  000000000170200000000018300000000001702000000000173400000000018300000000001836000000000190000002000000000000000130000000000000225484000000000000009999123100000010000000000000BRAUTMACNOR8109
012013102262AUTM3T      030AUTOMETAL   ON      NM360R$  000000000203200000000020330000000002032000000000203200000000020330000000000000000000000000000002000000000000000100000000000000203279000000000000009999123100000010000000000000BRAUTMACNOR8109
012013102202BAHI3       010BAHEMA      ON           R$  000000000048900000000004890000000000473000000000047400000000004890000000000472000000000049000005000000000000006400000000000003037600000000000000009999123100000010000000000000BRBAHIACNOR1066
012013102202BAUH4       010EXCELSIOR   PN           R$  000000000106000000000010600000000001060000000000106000000000010600000000001000000000000106000001000000000000000100000000000000106000000000000000009999123100000010000000000000BRBAUHACNPR3108
012013102296BAUH4F      020EXCELSIOR   PN           R$  000000000100000000000010000000000001000000000000100000000000010000000000000923000000000114000001000000000000000006000000000000006000000000000000009999123100000010000000000000BRBAUHACNPR3108
012013102202BAZA3       010AMAZONIA    ON           R$  000000000003300000000000340000000000032000000000003300000000000330000000000033000000000003400010000000000000056000000000000001861000000000000000009999123100000010000000000000BRBAZAACNOR0163
012013102296BAZA3F      020AMAZONIA    ON           R$  000000000003300000000000330000000000033000000000003300000000000330000000000033000000000003500001000000000000000020000000000000000660000000000000009999123100000010000000000000BRBAZAACNOR0163
012013102202BBAS3       010BRASIL      ON      NM   R$  000000000280400000000028150000000002773000000000279600000000028150000000002815000000000281614707000000000006542700000000018296357400000000000000009999123100000010000000000000BRBBASACNOR3239
012013102296BBAS3F      020BRASIL      ON      NM   R$  000000000279100000000028100000000002776000000000279400000000028050000000002795000000000280500271000000000000007392000000000020661267000000000000009999123100000010000000000000BRBBASACNOR3239
012013102262BBAS3T      030BRASIL      ON      NM035R$  000000000281900000000028200000000002819000000000281900000000028200000000000000000000000000000004000000000000006300000000000017763940000000000000009999123100000010000000000000BRBBASACNOR3239
012013102262BBAS3T      030BRASIL      ON      NM045R$  000000000282000000000028210000000002820000000000282000000000028210000000000000000000000000000002000000000000000500000000000001410345000000000000009999123100000010000000000000BRBBASACNOR3239
012013102262BBAS3T      030BRASIL      ON      NM090R$  000000000285200000000028530000000002852000000000285200000000028530000000000000000000000000000002000000000000004000000000000011408461000000000000009999123100000010000000000000BRBBASACNOR3239
012013102278BBASK25     070BBAS        ON      NM000R$  000000000043900000000004390000000000430000000000043100000000004300000000000000000000000000000004000000000000002200000000000000948800000000000237102013111800000010000000000000BRBBASACNOR3236
012013102278BBASK26     070BBAS        ON      NM000R$  000000000034000000000003400000000000340000000000034000000000003400000000000316000000000048300002000000000000002700000000000000918000000000000247102013111800000010000000000000BRBBASACNOR3236
012013102278BBASK27     070BBAS        ON      NM000R$  000000000024700000000002500000000000236000000000024200000000002480000000000236000000000000000013000000000000016300000000000003957000000000000257102013111800000010000000000000BRBBASACNOR3236
012013102278BBASK28     070BBAS  FM    ON      NM000R$  000000000017000000000001720000000000145000000000015900000000001650000000000164000000000019500102000000000000175900000000000027982000000000000267102013111800000010000000000000BRBBASACNOR3236
012013102278BBASK29     070BBAS  FM    ON      NM000R$  000000000007200000000000860000000000069000000000007500000000000860000000000058000000000008900330000000000000247600000000000018697800000000000279502013111800000010000000000000BRBBASACNOR3237
012013102278BBASK30     070BBAS  FM    ON      NM000R$  000000000003200000000000350000000000030000000000003200000000000350000000000028000000000003900079000000000000151600000000000004865500000000000289502013111800000010000000000000BRBBASACNOR3237
012013102278BBASK31     070BBAS  FM    ON      NM000R$  000000000001200000000000140000000000012000000000001300000000000140000000000013000000000003800036000000000000058300000000000000758000000000000299502013111800000010000000000000BRBBASACNOR3237
012013102278BBASK32     070BBAS        ON      NM000R$  000000000000300000000000030000000000003000000000000300000000000030000000000001000000000000300004000000000000035000000000000000105000000000000320002013111800000010000000000000BRBBASACNOR3239
012013102278BBASK34     070BBAS        ON      NM000R$  000000000000200000000000020000000000002000000000000200000000000020000000000000000000000000000001000000000000000100000000000000000200000000000340002013111800000010000000000000BRBBASACNOR3239
012013102278BBASK56     070BBAS        ON      NM000R$  000000000019000000000001900000000000190000000000019000000000001900000000000000000000000000000002000000000000010000000000000001900000000000000262302013111800000010000000000000BRBBASACNOR3238
012013102278BBASK57     070BBAS        ON      NM000R$  000000000009900000000001050000000000095000000000010100000000001050000000000105000000000000000008000000000000021400000000000002175900000000000275002013111800000010000000000000BRBBASACNOR3239
012013102278BBASK58     070BBAS        ON      NM000R$  000000000004600000000000470000000000042000000000004400000000000420000000000000000000000009600025000000000000064200000000000002884200000000000285002013111800000010000000000000BRBBASACNOR3239
012013102278BBASL28     070BBAS  FM    ON      NM000R$  000000000017700000000001890000000000171000000000017600000000001890000000000034000000000000000167000000000000131100000000000023128600000000000269502013121600000010000000000000BRBBASACNOR3237
012013102278BBASL29     070BBAS  FM    ON      NM000R$  000000000013600000000001430000000000125000000000013100000000001430000000000120000000000000000021000000000000023600000000000003111000000000000276102013121600000010000000000000BRBBASACNOR3235
012013102278BBASL30     070BBAS  FM    ON      NM000R$  000000000003200000000000330000000000026000000000002800000000000330000000000031000000000003300059000000000000153100000000000004435200000000000300002013121600000010000000000000BRBBASACNOR3239
012013102278BBASL31     070BBAS  FM    ON      NM000R$  000000000001400000000000150000000000012000000000001300000000000150000000000010000000000000000023000000000000038800000000000000524800000000000310002013121600000010000000000000BRBBASACNOR3239
012013102278BBASL59     070BBAS        ON      NM000R$  000000000004100000000000420000000000039000000000004100000000000390000000000000000000000000000035000000000000088700000000000003640400000000000295002013121600000010000000000000BRBBASACNOR3239
012013102278BBASL60     070BBAS        ON      NM000R$  000000000008000000000000800000000000071000000000007200000000000730000000000014000000000000000009000000000000302300000000000021980000000000000286202013121600000010000000000000BRBBASACNOR3233
012013102278BBASL65     070BBAS        ON      NM000R$  000000000002000000000000210000000000020000000000002000000000000210000000000000000000000000000005000000000000015800000000000000327800000000000305002013121600000010000000000000BRBBASACNOR3239
012013102278BBASL79     070BBAS  FM    ON      NM000R$  000000000006200000000000620000000000061000000000006100000000000610000000000000000000000000000006000000000000011800000000000000725300000000000290002013121600000010000000000000BRBBASACNOR3239
012013102282BBASW26     080BBASE       ON      NM000R$  000000000000500000000000050000000000005000000000000500000000000050000000000000000000000002300001000000000000002200000000000000011000000000000247102013111800000010000000000000BRBBASACNOR3236
012013102282BBASW27     080BBASE FM    ON      NM000R$  000000000001200000000000120000000000011000000000001100000000000110000000000005000000000001000013000000000000003000000000000000035100000000000257102013111800000010000000000000BRBBASACNOR3236
012013102282BBASW28     080BBASE FM    ON      NM000R$  000000000002400000000000270000000000020000000000002300000000000200000000000019000000000002400063000000000000050800000000000001187700000000000267102013111800000010000000000000BRBBASACNOR3236
012013102282BBASW29     080BBASE FM    ON      NM000R$  000000000005900000000000680000000000052000000000006000000000000530000000000047000000000008500036000000000000065200000000000003953500000000000279502013111800000010000000000000BRBBASACNOR3237
012013102282BBASW30     080BBASE FM    ON      NM000R$  000000000011600000000001300000000000104000000000011900000000001040000000000000000000000000000025000000000000022800000000000002724400000000000289502013111800000010000000000000BRBBASACNOR3237
012013102282BBASW56     080BBASE       ON      NM000R$  000000000001600000000000160000000000016000000000001600000000000160000000000000000000000002000001000000000000005000000000000000080000000000000262302013111800000010000000000000BRBBASACNOR3238
012013102282BBASW57     080BBASE       ON      NM000R$  000000000004200000000000420000000000042000000000004200000000000420000000000000000000000000000001000000000000005000000000000000210000000000000275002013111800000010000000000000BRBBASACNOR3239
012013102282BBASW58     080BBASE       ON      NM000R$  000000000008600000000000860000000000085000000000008500000000000860000000000000000000000000000013000000000000003000000000000000257700000000000285002013111800000010000000000000BRBBASACNOR3239
012013102282BBASX26     080BBASE       ON      NM000R$  000000000001300000000000130000000000013000000000001300000000000130000000000000000000000000000001000000000000002500000000000000032500000000000246102013121600000010000000000000BRBBASACNOR3235
012013102282BBASX27     080BBASE FM    ON      NM000R$  000000000002600000000000310000000000026000000000002800000000000280000000000024000000000000000043000000000000030400000000000000856600000000000259502013121600000010000000000000BRBBASACNOR3237
012013102282BBASX28     080BBASE FM    ON      NM000R$  000000000005000000000000510000000000050000000000005000000000000510000000000000000000000000000012000000000000027300000000000001367000000000000269502013121600000010000000000000BRBBASACNOR3237
012013102282BBASX29     080BBASE FM    ON      NM000R$  000000000007200000000000720000000000062000000000007100000000000620000000000000000000000008000012000000000000025100000000000001785100000000000276102013121600000010000000000000BRBBASACNOR3235
012013102282BBASX79     080BBASE FM    ON      NM000R$  000000000013800000000001390000000000125000000000013400000000001250000000000000000000000000000013000000000000022000000000000002962800000000000290002013121600000010000000000000BRBBASACNOR3239
012013102202BBDC3       010BRADESCO    ON      N1   R$  000000000365000000000037070000000003631000000000368200000000036850000000003684000000000368503271000000000000818600000000003014481100000000000000009999123100000010000000000000BRBBDCACNOR1607
012013102296BBDC3F      020BRADESCO    ON      N1   R$  000000000364000000000037500000000003623000000000369200000000037500000000003650000000000375000031000000000000000685000000000002529728000000000000009999123100000010000000000000BRBBDCACNOR1607
012013102202BBDC4       010BRADESCO    PN      N1   R$  000000000326900000000033160000000003241000000000329500000000033070000000003307000000000331016636000000000008802300000000029006011500000000000000009999123100000010000000000000BRBBDCACNPR8607
012013102296BBDC4F      020BRADESCO    PN      N1   R$  000000000327000000000033190000000003245000000000329200000000033000000000003300000000000331500176000000000000004843000000000015950218000000000000009999123100000010000000000000BRBBDCACNPR8607
012013102262BBDC4T      030BRADESCO    PN      N1030R$  000000000330300000000033040000000003303000000000330300000000033040000000000000000000000000000002000000000000015000000000000049559160000000000000009999123100000010000000000000BRBBDCACNPR8607
012013102262BBDC4T      030BRADESCO    PN      N1062R$  000000000330800000000033090000000003308000000000330800000000033090000000000000000000000000000002000000000000000100000000000000330890000000000000009999123100000010000000000000BRBBDCACNPR8607
012013102262BBDC4T      030BRADESCO    PN      N1090R$  000000000333700000000033380000000003337000000000333700000000033380000000000000000000000000000002000000000000006000000000000020025894000000000000009999123100000010000000000000BRBBDCACNPR8607
012013102278BBDCA33     070BBDC        PN      N1000R$  000000000016200000000001710000000000162000000000016300000000001710000000000102000000000000000003000000000000002400000000000000392400000000000329802014012000000010000000000000BRBBDCACNPR8606
012013102278BBDCA34     070BBDC        PN      N1000R$  000000000012500000000001270000000000125000000000012600000000001270000000000095000000000000000002000000000000004600000000000000580200000000000339402014012000000010000000000000BRBBDCACNPR8604
012013102278BBDCA35     070BBDC        PN      N1000R$  000000000006900000000000820000000000069000000000007700000000000770000000000065000000000008500008000000000000021600000000000001664200000000000350002014012000000010000000000000BRBBDCACNPR8607
012013102278BBDCA37     070BBDC        PN      N1000R$  000000000003500000000000370000000000035000000000003500000000000350000000000000000000000004000005000000000000011700000000000000415500000000000367402014012000000010000000000000BRBBDCACNPR8602
012013102278BBDCA40     070BBDC        PN      N1000R$  000000000004900000000000510000000000046000000000004900000000000490000000000000000000000000000007000000000000016900000000000000833600000000000360402014012000000010000000000000BRBBDCACNPR8598
012013102278BBDCC34     070BBDC        PN      N1000R$  000000000018500000000001850000000000185000000000018500000000001850000000000000000000000000000001000000000000001200000000000000222000000000000340002014031700000010000000000000BRBBDCACNPR8607
012013102278BBDCC6      070BBDC        PN      N1000R$  000000000027500000000002750000000000275000000000027500000000002750000000000000000000000000000001000000000000001200000000000000330000000000000324102014031700000010000000000000BRBBDCACNPR8598
012013102278BBDCK30     070BBDC        PN      N1000R$  000000000027000000000003300000000000270000000000032300000000003300000000000285000000000000000005000000000000000900000000000000291000000000000299602013111800000010000000000000BRBBDCACNPR8605
012013102278BBDCK31     070BBDC        PN      N1000R$  000000000021000000000002420000000000205000000000022400000000002390000000000152000000000000000182000000000000096600000000000021643100000000000309602013111800000010000000000000BRBBDCACNPR8605
012013102278BBDCK32     070BBDC  FM    PN      N1000R$  000000000014300000000001800000000000138000000000015400000000001780000000000132000000000018100233000000000000333400000000000051526200000000000317202013111800000010000000000000BRBBDCACNPR8601
012013102278BBDCK33     070BBDC  FM    PN      N1000R$  000000000007700000000001060000000000074000000000009100000000001060000000000073000000000010900383000000000000280600000000000025611000000000000327402013111800000010000000000000BRBBDCACNPR8602
012013102278BBDCK34     070BBDC  FM    PN      N1000R$  000000000003500000000000450000000000030000000000003700000000000440000000000030000000000004500151000000000000138400000000000005227000000000000339402013111800000010000000000000BRBBDCACNPR8604
012013102278BBDCK35     070BBDC  FM    PN      N1000R$  000000000001600000000000230000000000015000000000001800000000000220000000000017000000000002500029000000000000022700000000000000412100000000000347402013111800000010000000000000BRBBDCACNPR8602
012013102278BBDCK36     070BBDC  FM    PN      N1000R$  000000000000700000000000080000000000007000000000000700000000000080000000000000000000000000900029000000000000140000000000000001100000000000000357202013111800000010000000000000BRBBDCACNPR8601
012013102278BBDCL15     070BBDC        PN      N1000R$  000000000001500000000000150000000000015000000000001500000000000150000000000000000000000000000001000000000000001000000000000000015000000000000370002013121600000010000000000000BRBBDCACNPR8607
012013102278BBDCL3      070BBDC  FM    PN      N1000R$  000000000012800000000001560000000000126000000000014000000000001540000000000000000000000015600021000000000000041700000000000005849900000000000327002013121600000010000000000000BRBBDCACNPR8601
012013102278BBDCL32     070BBDC  FM    PN      N1000R$  000000000019400000000002240000000000187000000000020500000000002230000000000170000000000000000274000000000000201200000000000041337300000000000317002013121600000010000000000000BRBBDCACNPR8600
012013102278BBDCL34     070BBDC  FM    PN      N1000R$  000000000008200000000001010000000000080000000000008800000000000990000000000011000000000000000018000000000000035200000000000003097800000000000337002013121600000010000000000000BRBBDCACNPR8600
012013102278BBDCL35     070BBDC        PN      N1000R$  000000000004900000000000580000000000049000000000005600000000000560000000000043000000000007000021000000000000041900000000000002386100000000000347002013121600000010000000000000BRBBDCACNPR8600
012013102278BBDCL36     070BBDC        PN      N1000R$  000000000016400000000001670000000000164000000000016500000000001670000000000112000000000018000003000000000000002500000000000000414500000000000323902013121600000010000000000000BRBBDCACNPR8597
012013102278BBDCL5      070BBDC  FM    PN      N1000R$  000000000004100000000000500000000000035000000000004100000000000500000000000000000000000005200054000000000000074900000000000003103200000000000349802013121600000010000000000000BRBBDCACNPR8606
012013102278BBDCL6      070BBDC  FM    PN      N1000R$  000000000002600000000000330000000000017000000000002300000000000330000000000012000000000000000063000000000000092300000000000002156400000000000357202013121600000010000000000000BRBBDCACNPR8601
012013102282BBDCM31     080BBDCE       PN      N1000R$  000000000005900000000000590000000000059000000000005900000000000590000000000000000000000000000001000000000000002000000000000000118000000000000309602014012000000010000000000000BRBBDCACNPR8605
012013102282BBDCM32     080BBDCE       PN      N1000R$  000000000008700000000000870000000000077000000000008200000000000770000000000000000000000000000002000000000000004000000000000000328000000000000319802014012000000010000000000000BRBBDCACNPR8606
012013102282BBDCM33     080BBDCE       PN      N1000R$  000000000012000000000001200000000000120000000000012000000000001200000000000000000000000000000001000000000000002000000000000000240000000000000329802014012000000010000000000000BRBBDCACNPR8606
012013102282BBDCW30     080BBDCE       PN      N1000R$  000000000000600000000000070000000000006000000000000600000000000070000000000005000000000002000006000000000000035000000000000000220000000000000299602013111800000010000000000000BRBBDCACNPR8605
012013102282BBDCW31     080BBDCE FM    PN      N1000R$  000000000001900000000000220000000000011000000000001400000000000120000000000000000000000000000188000000000000132500000000000001891600000000000309602013111800000010000000000000BRBBDCACNPR8605
012013102282BBDCW32     080BBDCE FM    PN      N1000R$  000000000003500000000000380000000000021000000000002800000000000240000000000000000000000006900113000000000000091800000000000002587000000000000317202013111800000010000000000000BRBBDCACNPR8601
012013102282BBDCW33     080BBDCE FM    PN      N1000R$  000000000007200000000000750000000000051000000000006000000000000520000000000000000000000005700075000000000000105200000000000006401800000000000327402013111800000010000000000000BRBBDCACNPR8602
012013102282BBDCW34     080BBDCE FM    PN      N1000R$  000000000014600000000001460000000000116000000000013300000000001170000000000103000000000012000025000000000000035500000000000004724500000000000339402013111800000010000000000000BRBBDCACNPR8604
012013102282BBDCW35     080BBDCE       PN      N1000R$  000000000021500000000002150000000000207000000000021100000000002070000000000000000000000000000002000000000000002000000000000000422000000000000347402013111800000010000000000000BRBBDCACNPR8602
012013102282BBDCW9      080BBDCE       PN      N1000R$  000000000000200000000000020000000000002000000000000200000000000020000000000000000000000000400001000000000000005000000000000000010000000000000289602013111800000010000000000000BRBBDCACNPR8605
012013102282BBDCX1      080BBDCE FM    PN      N1000R$  000000000003700000000000370000000000032000000000003400000000000320000000000000000000000000000003000000000000004800000000000000165600000000000307002013121600000010000000000000BRBBDCACNPR8600
012013102282BBDCX3      080BBDCE FM    PN      N1000R$  000000000009800000000000980000000000075000000000008300000000000750000000000000000000000000000015000000000000024000000000000002007900000000000327002013121600000010000000000000BRBBDCACNPR8601
012013102282BBDCX31     080BBDCE       PN      N1000R$  000000000001000000000000100000000000010000000000001000000000000100000000000000000000000000000001000000000000001000000000000000010000000000000278402013121600000010000000000000BRBBDCACNPR8597
012013102282BBDCX32     080BBDCE FM    PN      N1000R$  000000000006000000000000600000000000049000000000005300000000000530000000000000000000000000000013000000000000014800000000000000791800000000000317002013121600000010000000000000BRBBDCACNPR8600
012013102282BBDCX34     080BBDCE FM    PN      N1000R$  000000000014900000000001490000000000119000000000013000000000001210000000000000000000000000000013000000000000022300000000000002900700000000000337002013121600000010000000000000BRBBDCACNPR8600
012013102282BBDCX36     080BBDCE       PN      N1000R$  000000000006600000000000670000000000064000000000006500000000000640000000000000000000000000000011000000000000010000000000000000654000000000000323902013121600000010000000000000BRBBDCACNPR8597
012013102212BBFI11B     010FII BB PROGRCI      MB   R$  000000041987500000004204990000000419000000000041993700000004204990000000419500000000042049800005000000000000000006000000000002519624000000000000009999123100000010000000000000BRBBFICTF006199
012013102212BBPO11      010FII BB PRGIICI           R$  000000001114100000000112890000000011122000000001123100000000112600000000011230000000001126000742000000000000016069000000000180472973000000000000009999123100000010000000000000BRBBPOCTF003111
012013102212BBRC11      010FII BB CORP CI           R$  000000000880000000000088000000000008800000000000880000000000088000000000008773000000000880000006000000000000000339000000000002983200000000000000009999123100000010000000000000BRBBRCCTF004125
012013102202BBRK3       010BR BROKERS  ON      NM   R$  000000000059400000000005970000000000587000000000059200000000005900000000000589000000000059001592000000000000457700000000000271010100000000000000009999123100000010000000000000BRBBRKACNOR4108
012013102296BBRK3F      020BR BROKERS  ON      NM   R$  000000000056500000000006400000000000565000000000061400000000006400000000000585000000000064000010000000000000000303000000000000186112000000000000009999123100000010000000000000BRBBRKACNOR4108
012013102202BBSE3       010BBSEGURIDADEON      NM   R$  000000000241500000000024350000000002391000000000242200000000024220000000002417000000000242208648000000000006122100000000014832663100000000000000009999123100000010000000000000BRBBSEACNOR5101
012013102296BBSE3F      020BBSEGURIDADEON      NM   R$  000000000242000000000024340000000002350000000000241600000000024250000000002416000000000242500364000000000000011328000000000027373508000000000000009999123100000010000000000000BRBBSEACNOR5101
012013102262BBSE3T      030BBSEGURIDADEON      NM030R$  000000000242600000000024480000000002426000000000243300000000024480000000000000000000000000000006000000000000001500000000000003650939000000000000009999123100000010000000000000BRBBSEACNOR5101
012013102262BBSE3T      030BBSEGURIDADEON      NM090R$  000000000247900000000024800000000002475000000000247700000000024760000000000000000000000000000008000000000000200000000000000495448295000000000000009999123100000010000000000000BRBBSEACNOR5101
012013102278BBSEK22     070BBSE        ON      NM000R$  000000000024800000000002480000000000248000000000024800000000002480000000000000000000000000000001000000000000022000000000000005456000000000000220002013111800000010000000000000BRBBSEACNOR5101
012013102278BBSEK23     070BBSE        ON      NM000R$  000000000014600000000001530000000000146000000000014700000000001530000000000140000000000000000074000000000001698000000000000250357700000000000230002013111800000010000000000000BRBBSEACNOR5101
012013102278BBSEK54     070BBSE        ON      NM000R$  000000000003100000000000310000000000031000000000003100000000000310000000000030000000000006000002000000000000000400000000000000012400000000000245002013111800000010000000000000BRBBSEACNOR5101
012013102282BBSEW19     080BBSEE       ON      NM000R$  000000000000100000000000010000000000001000000000000100000000000010000000000000000000000000000002000000000001650000000000000001650000000000000190002013111800000010000000000000BRBBSEACNOR5101
012013102282BBSEW20     080BBSEE       ON      NM000R$  000000000000100000000000010000000000001000000000000100000000000010000000000000000000000000000001000000000000048000000000000000048000000000000195902013111800000010000000000000BRBBSEACNOR5100
012013102282BBSEW21     080BBSEE       ON      NM000R$  000000000000100000000000010000000000001000000000000100000000000010000000000000000000000000000001000000000000048000000000000000048000000000000210002013111800000010000000000000BRBBSEACNOR5101
012013102282BBSEW50     080BBSEE       ON      NM000R$  000000000000100000000000010000000000001000000000000100000000000010000000000000000000000000000002000000000001650000000000000001650000000000000205002013111800000010000000000000BRBBSEACNOR5101
012013102202BBTG11      010BTG PACTUAL UNT          R$  000000000300700000000030750000000002989000000000305000000000030550000000003050000000000306801043000000000000484600000000001478264600000000000000009999123100000010000000000000BRBBTGUNT007105
012013102296BBTG11F     020BTG PACTUAL UNT          R$  000000000300000000000030600000000003000000000000303000000000030600000000003011000000000313000012000000000000000307000000000000930222000000000000009999123100000010000000000000BRBBTGUNT007105
012013102278BBTGA2      070BBTG        UNT       000R$  000000000006600000000000660000000000066000000000006600000000000660000000000000000000000000000002000000000000075000000000000004950000000000000325002014012000000010000000000000BRBBTGUNT007105
012013102278BBTGL32     070BBTG        UNT       000R$  000000000005000000000000500000000000050000000000005000000000000500000000000000000000000000000002000000000000050000000000000002500000000000000320002013121600000010000000000000BRBBTGUNT007105
012013102212BBVJ11      010FII C JARDIMCI           R$  000000000767200000000077970000000007670000000000772700000000077000000000007700000000000775000016000000000000000737000000000005694949000000000000009999123100000010000000000000BRBBVJCTF001134
012013102212BCFF11B     010FII BC FFII CI      MB   R$  000000000900000000000090000000000008900000000000892600000000089980000000008900000000000899800082000000000000004238000000000037831301000000000000009999123100000010000000000000BRBCFFCTF000143
012013102202BDLL4       010BARDELLA    PN           R$  000000000510000000000051000000000005100000000000510000000000051000000000005000000000000535000001000000000000000100000000000000510000000000000000009999123100000010000000000000BRBDLLACNPR8149
012013102202BEEF3       010MINERVA     ON      NM   R$  000000000095000000000009580000000000946000000000095200000000009550000000000955000000000095601338000000000000716000000000000682102600000000000000009999123100000010000000000000BRBEEFACNOR6104
012013102296BEEF3F      020MINERVA     ON      NM   R$  000000000094600000000009870000000000945000000000095600000000009450000000000940000000000098800006000000000000000224000000000000214194000000000000009999123100000010000000000000BRBEEFACNOR6104
012013102202BEES3       010BANESTES    ON           R$  000000000005100000000000510000000000050000000000005000000000000510000000000050000000000005100021000000000000225900000000000011494400000000000000009999123100000010000000000000BRBEESACNOR9245
012013102202BEMA3       010BEMATECH    ON      NM   R$  000000000077200000000007760000000000767000000000077400000000007750000000000774000000000077500799000000000000239900000000000185765800000000000000009999123100000010000000000000BRBEMAACNOR0114
012013102296BEMA3F      020BEMATECH    ON      NM   R$  000000000077500000000007750000000000769000000000077200000000007750000000000775000000000079800008000000000000000270000000000000208560000000000000009999123100000010000000000000BRBEMAACNOR0114
012013102262BEMA3T      030BEMATECH    ON      NM120R$  000000000079600000000007970000000000796000000000079600000000007970000000000000000000000000000002000000000000000200000000000000159305000000000000009999123100000010000000000000BRBEMAACNOR0114
012013102202BGIP4       010BANESE      PN           R$  000000000480000000000049880000000004800000000000480800000000049880000000004801000000000498900004000000000000002200000000000010578900000000000000009999123100000010000000000000BRBGIPACNPR8179
012013102296BGIP4F      020BANESE      PN           R$  000000000500100000000050010000000005000000000000500000000000050000000000004702000000000500000002000000000000000004000000000000020002000000000000009999123100000010000000000000BRBGIPACNPR8179
012013102202BHGR3       010BHG         ON      NM   R$  000000000156000000000016500000000001532000000000155900000000015940000000001590000000000159500253000000000000039700000000000061907500000000000000009999123100000010000000000000BRBHGRACNOR9101
012013102296BHGR3F      020BHG         ON      NM   R$  000000000156000000000015600000000001560000000000156000000000015600000000001501000000000157900001000000000000000011000000000000017160000000000000009999123100000010000000000000BRBHGRACNOR9101
012013102202BICB4       010BICBANCO    PN      N1   R$  000000000062600000000006370000000000616000000000062900000000006320000000000630000000000063300331000000000000091800000000000057816600000000000000009999123100000010000000000000BRBICBACNPR7131
012013102296BICB4F      020BICBANCO    PN      N1   R$  000000000063000000000006360000000000602000000000062400000000006020000000000602000000000062800005000000000000000224000000000000139942000000000000009999123100000010000000000000BRBICBACNPR7131
012013102202BIOM3       010BIOMM       ON           R$  000000000095000000000009900000000000950000000000095000000000009500000000000950000000000097000010000000000000061000000000000057990000000000000000009999123100000010000000000000BRBIOMACNOR2101
012013102296BIOM3F      020BIOMM       ON           R$  000000000099500000000009950000000000995000000000099500000000009950000000000940000000000099400001000000000000000100000000000000099500000000000000009999123100000010000000000000BRBIOMACNOR2101
012013102262BIOM3T      030BIOMM       ON        090R$  000000000101000000000010110000000001010000000000101000000000010110000000000000000000000000000002000000000000001000000000000001010790000000000000009999123100000010000000000000BRBIOMACNOR2101
012013102202BISA3       010BROOKFIELD  ON      NM   R$  000000000015800000000001600000000000156000000000015800000000001580000000000158000000000015904911000000000003878500000000000613701000000000000000009999123100000010000000000000BRBISAACNOR8109
012013102296BISA3F      020BROOKFIELD  ON      NM   R$  000000000015800000000001620000000000155000000000015700000000001570000000000157000000000016200024000000000000000798000000000000125969000000000000009999123100000010000000000000BRBISAACNOR8109
012013102262BISA3T      030BROOKFIELD  ON      NM020R$  000000000015700000000001580000000000157000000000015700000000001580000000000000000000000000000002000000000000005000000000000000789082000000000000009999123100000010000000000000BRBISAACNOR8109
012013102212BJRC11      010FII JS RECIMCI           R$  000000008399900000000840000000000083999000000008399900000000840000000000081100000000008400000002000000000000000020000000000001679990000000000000009999123100000010000000000000BRBJRCCTF007111
012013102202BMEB3       010MERC BRASIL ON           R$  000000000165400000000016540000000001654000000000165400000000016540000000000000000000000165000002000000000000000200000000000000330800000000000000009999123100000010000000000000BRBMEBACNOR8190
012013102202BMEB4       010MERC BRASIL PN           R$  000000000109000000000010900000000001090000000000109000000000010900000000001090000000000109500005000000000000000900000000000000981000000000000000009999123100000010000000000000BRBMEBACNPR5191
012013102296BMIN4F      020MERC INVEST PN           R$  000000000003000000000000300000000000030000000000003000000000000300000000000028000000000003000002000000000000000669000000000000020070000000000000009999123100000010000000000000BRBMINACNPR1160
012013102202BMKS3       010BIC MONARK  ON           R$  000000003320000000000332000000000033100000000003315700000000332000000000033001000000003400000005000000000000000014000000000000464200000000000000009999123100000010000000000000BRBMKSACNOR9155
012013102212BMLC11B     010FII BMBRC LCCI      MB   R$  000000001172000000000117200000000011700000000001171800000000117000000000011601000000001170000006000000000000000138000000000001617100000000000000009999123100000010000000000000BRBMLCCTF004120
012013102296BMTO3F      020BRASMOTOR   ON           R$  000000000008000000000000820000000000080000000000008100000000000820000000000060000000000008200005000000000000000352000000000000028664000000000000009999123100000010000000000000BRBMTOACNOR9180
012013102202BMTO4       010BRASMOTOR   PN           R$  000000000008800000000000880000000000087000000000008700000000000870000000000086000000000008800005000000000000022000000000000001915000000000000000009999123100000010000000000000BRBMTOACNPR6065
012013102214BOVA11      010ISHARES BOVACI           R$  000000000545700000000055500000000005453000000000552100000000055250000000005513000000000552503909000000000001085550000000005993533980000000000000009999123100000010000000000000BRBOVACTF003101
012013102296BOVA11F     020ISHARES BOVACI           R$  000000000545000000000055500000000005450000000000550500000000055170000000005510000000000555000010000000000000000030000000000000165156000000000000009999123100000010000000000000BRBOVACTF003101
012013102212BPFF11      010FII ABSOLUTOCI           R$  000000000830000000000083550000000008214000000000824800000000082140000000008215000000000827500041000000000000003286000000000027105367000000000000009999123100000010000000000000BRBPFFCTF002106
012013102202BPHA3       010BR PHARMA   ON      NM   R$  000000000086100000000008750000000000861000000000086900000000008700000000000865000000000087000413000000000000104100000000000090519300000000000000009999123100000010000000000000BRBPHAACNOR6102
012013102296BPHA3F      020BR PHARMA   ON      NM   R$  000000000080200000000008020000000000802000000000080200000000008020000000000802000000000089900004000000000000000050000000000000040100000000000000009999123100000010000000000000BRBPHAACNOR6102
012013102202BPNM4       010PANAMERICANOPN      N1   R$  000000000052600000000005290000000000519000000000052000000000005230000000000522000000000052300242000000000001014500000000000527863000000000000000009999123100000010000000000000BRBPNMACNPR6111
012013102296BPNM4F      020PANAMERICANOPN      N1   R$  000000000052500000000005300000000000514000000000052100000000005140000000000514000000000053000012000000000000000281000000000000146462000000000000009999123100000010000000000000BRBPNMACNPR6111
012013102262BPNM4T      030PANAMERICANOPN      N1090R$  000000000053200000000005330000000000532000000000053200000000005330000000000000000000000000000002000000000000609500000000000324388090000000000000009999123100000010000000000000BRBPNMACNPR6111
012013102262BPNM4T      030PANAMERICANOPN      N1120R$  000000000053500000000005360000000000535000000000053500000000005360000000000000000000000000000002000000000000192000000000000102755328000000000000009999123100000010000000000000BRBPNMACNPR6111
012013102202BRAP3       010BRADESPAR   ON      N1   R$  000000000212500000000021820000000002125000000000216500000000021820000000002150000000000218900036000000000000007900000000000017104900000000000000009999123100000010000000000000BRBRAPACNOR5124
012013102296BRAP3F      020BRADESPAR   ON      N1   R$  000000000212900000000021980000000002129000000000213000000000021980000000002131000000000219800002000000000000000037000000000000078842000000000000009999123100000010000000000000BRBRAPACNOR5124
012013102202BRAP4       010BRADESPAR   PN      N1   R$  000000000259500000000026660000000002592000000000263700000000026650000000002660000000000266506255000000000001774800000000004680571900000000000000009999123100000010000000000000BRBRAPACNPR2124
012013102296BRAP4F      020BRADESPAR   PN      N1   R$  000000000262800000000026950000000002593000000000264200000000026940000000002659000000000269400130000000000000004156000000000010987795000000000000009999123100000010000000000000BRBRAPACNPR2124
012013102262BRAP4T      030BRADESPAR   PN      N1030R$  000000000262800000000026810000000002628000000000265000000000026750000000000000000000000000000006000000000000003600000000000009540272000000000000009999123100000010000000000000BRBRAPACNPR2124
012013102278BRAPK26     070BRAP        PN      N1000R$  000000000008400000000000840000000000084000000000008400000000000840000000000000000000000000000002000000000000002800000000000000235200000000000260002013111800000010000000000000BRBRAPACNPR2124
012013102278BRAPK27     070BRAP        PN      N1000R$  000000000004500000000000460000000000045000000000004500000000000460000000000045000000000000000008000000000000053900000000000002439300000000000270002013111800000010000000000000BRBRAPACNPR2124
012013102214BRAX11      010ISHARES BRAXCI           R$  000000000440000000000044180000000004400000000000441500000000044150000000004415000000000442400006000000000000020100000000000088752500000000000000009999123100000010000000000000BRBRAXCTF002100
012013102212BRCR11      010FII BC FUND CI           R$  000000001352000000000136900000000013512000000001359500000000136900000000013665000000001369000210000000000000014299000000000194396779000000000000009999123100000010000000000000BRBRCRCTF000134
012013102202BRFS3       010BRF SA      ON      NM   R$  000000000553900000000056470000000005525000000000561100000000056200000000005620000000000564310056000000000002037300000000011433237300000000000000009999123100000010000000000000BRBRFSACNOR8110
012013102296BRFS3F      020BRF SA      ON      NM   R$  000000000555000000000056460000000005532000000000560900000000056450000000005615000000000564500262000000000000008327000000000046707520000000000000009999123100000010000000000000BRBRFSACNOR8110
012013102262BRFS3T      030BRF SA      ON      NM030R$  000000000564700000000056620000000005644000000000565600000000056620000000000000000000000000000006000000000000005100000000000028847140000000000000009999123100000010000000000000BRBRFSACNOR8110
012013102262BRFS3T      030BRF SA      ON      NM031R$  000000000567400000000056750000000005674000000000567400000000056750000000000000000000000000000002000000000000004000000000000022699213000000000000009999123100000010000000000000BRBRFSACNOR8110
012013102262BRFS3T      030BRF SA      ON      NM062R$  000000000568800000000057090000000005688000000000569700000000057090000000000000000000000000000010000000000000002000000000000011394054000000000000009999123100000010000000000000BRBRFSACNOR8110
012013102262BRFS3T      030BRF SA      ON      NM090R$  000000000574100000000057450000000005741000000000574200000000057420000000000000000000000000000006000000000000001500000000000008614485000000000000009999123100000010000000000000BRBRFSACNOR8110
012013102278BRFSA62     070BRFS        ON      NM000R$  000000000004600000000000460000000000046000000000004600000000000460000000000000000000000000000002000000000000004000000000000000184000000000000620002014012000000010000000000000BRBRFSACNOR8110
012013102278BRFSK57     070BRFS        ON      NM000R$  000000000006600000000000670000000000050000000000006200000000000650000000000000000000000000000004000000000000000400000000000000024800000000000570002013111800000010000000000000BRBRFSACNOR8110
012013102278BRFSK58     070BRFS        ON      NM000R$  000000000005000000000000500000000000040000000000004300000000000400000000000000000000000006000002000000000000001000000000000000043000000000000580002013111800000010000000000000BRBRFSACNOR8110
012013102278BRFSK59     070BRFS        ON      NM000R$  000000000003400000000000340000000000034000000000003400000000000340000000000000000000000000000002000000000000000800000000000000027200000000000590002013111800000010000000000000BRBRFSACNOR8110
012013102278BRFSL58     070BRFS        ON      NM000R$  000000000010000000000001000000000000100000000000010000000000001000000000000000000000000012000001000000000000001000000000000000100000000000000580002013121600000010000000000000BRBRFSACNOR8110
012013102202BRGE12      010ALFA CONSORCPNF          R$  000000000040000000000004000000000000400000000000040000000000004000000000000400000000000042500001000000000000000300000000000000120000000000000000009999123100000010000000000000BRBRGEACNPF8091
012013102202BRIN3       010BR INSURANCEON      NM   R$  000000000206300000000020780000000002046000000000206000000000020590000000002059000000000206800585000000000000179600000000000370063100000000000000009999123100000010000000000000BRBRINACNOR3106
012013102296BRIN3F      020BR INSURANCEON      NM   R$  000000000205400000000020540000000002051000000000205100000000020510000000002051000000000208700002000000000000000070000000000000143630000000000000009999123100000010000000000000BRBRINACNOR3106
012013102202BRIV4       010ALFA INVEST PN           R$  000000000058700000000005880000000000587000000000058700000000005880000000000570000000000058800003000000000000003500000000000002054600000000000000009999123100000010000000000000BRBRIVACNPR3197
012013102202BRKM3       010BRASKEM     ON      N1   R$  000000000137000000000014100000000001343000000000139300000000014100000000001351000000000141000039000000000000502100000000000699540100000000000000009999123100000010000000000000BRBRKMACNOR1110
012013102296BRKM3F      020BRASKEM     ON      N1   R$  000000000134500000000013800000000001345000000000137300000000013800000000001326000000000141700004000000000000000064000000000000087880000000000000009999123100000010000000000000BRBRKMACNOR1110
012013102202BRKM5       010BRASKEM     PNA     N1   R$  000000000200000000000020150000000001980000000000199800000000020130000000002008000000000201307787000000000001854000000000003705210700000000000000009999123100000010000000000000BRBRKMACNPA4110
012013102296BRKM5F      020BRASKEM     PNA     N1   R$  000000000199000000000020140000000001981000000000199900000000020110000000002000000000000201500068000000000000001223000000000002445257000000000000009999123100000010000000000000BRBRKMACNPA4110
012013102262BRKM5T      030BRASKEM     PNA     N1062R$  000000000204200000000020430000000002042000000000204200000000020430000000000000000000000000000002000000000000000300000000000000612717000000000000009999123100000010000000000000BRBRKMACNPA4110
012013102278BRKMA19     070BRKM        PNA     N1000R$  000000000017500000000001750000000000175000000000017500000000001750000000000000000000000000000001000000000000100000000000000017500000000000000190002014012000000010000000000000BRBRKMACNPA4110
012013102278BRKMA21     070BRKM        PNA     N1000R$  000000000006300000000000630000000000063000000000006300000000000630000000000000000000000000000001000000000000100000000000000006300000000000000210002014012000000010000000000000BRBRKMACNPA4110
012013102282BRKMM17     080BRKME       PNA     N1000R$  000000000001600000000000160000000000016000000000001600000000000160000000000000000000000000000001000000000000100000000000000001600000000000000170002014012000000010000000000000BRBRKMACNPA4110
012013102202BRML3       010BR MALLS PARON      NM   R$  000000000221700000000022700000000002203000000000224500000000022660000000002265000000000226708009000000000002625700000000005896678600000000000000009999123100000010000000000000BRBRMLACNOR9105
012013102296BRML3F      020BR MALLS PARON      NM   R$  000000000221900000000022690000000002206000000000224900000000022650000000002264000000000226500083000000000000002271000000000005109541000000000000009999123100000010000000000000BRBRMLACNOR9105
012013102262BRML3T      030BR MALLS PARON      NM016R$  000000000225900000000022600000000002259000000000225900000000022600000000000000000000000000000002000000000000003500000000000007909650000000000000009999123100000010000000000000BRBRMLACNOR9105
012013102262BRML3T      030BR MALLS PARON      NM030R$  000000000223200000000022330000000002232000000000223200000000022330000000000000000000000000000002000000000000001000000000000002232211000000000000009999123100000010000000000000BRBRMLACNOR9105
012013102262BRML3T      030BR MALLS PARON      NM062R$  000000000227400000000022750000000002274000000000227400000000022750000000000000000000000000000002000000000000002000000000000004549466000000000000009999123100000010000000000000BRBRMLACNOR9105
012013102262BRML3T      030BR MALLS PARON      NM090R$  000000000228900000000022900000000002289000000000228900000000022900000000000000000000000000000002000000000000002000000000000004579061000000000000009999123100000010000000000000BRBRMLACNOR9105
012013102278BRMLK23     070BRML        ON      NM000R$  000000000006100000000000610000000000061000000000006100000000000610000000000000000000000008800001000000000000000400000000000000024400000000000230002013111800000010000000000000BRBRMLACNOR9105
012013102202BRPR3       010BR PROPERT  ON      NM   R$  000000000190300000000019330000000001888000000000191100000000019250000000001924000000000192506553000000000001700000000000003249634400000000000000009999123100000010000000000000BRBRPRACNOR9112
012013102296BRPR3F      020BR PROPERT  ON      NM   R$  000000000188300000000019560000000001883000000000192400000000019560000000001905000000000195600020000000000000000599000000000001153038000000000000009999123100000010000000000000BRBRPRACNOR9112
012013102262BRPR3T      030BR PROPERT  ON      NM030R$  000000000193900000000019400000000001939000000000193900000000019400000000000000000000000000000002000000000000000600000000000001163920000000000000009999123100000010000000000000BRBRPRACNOR9112
012013102202BRSR6       010BANRISUL    PNB     N1   R$  000000000159000000000016070000000001565000000000158700000000015950000000001595000000000160403244000000000001060300000000001682855300000000000000009999123100000010000000000000BRBRSRACNPB4134
012013102296BRSR6F      020BANRISUL    PNB     N1   R$  000000000154800000000016480000000001548000000000160000000000016480000000001570000000000164800020000000000000000493000000000000788842000000000000009999123100000010000000000000BRBRSRACNPB4134
012013102202BSEV3       010BIOSEV      ON      NM   R$  000000000089000000000009300000000000890000000000089500000000009210000000000865000000000090000013000000000000012600000000000011285100000000000000009999123100000010000000000000BRBSEVACNOR3100
012013102296BSEV3F      020BIOSEV      ON      NM   R$  000000000086100000000009000000000000861000000000088000000000009000000000000833000000000092900002000000000000000122000000000000107382000000000000009999123100000010000000000000BRBSEVACNOR3100
012013102202BTOW3       010B2W DIGITAL ON      NM   R$  000000000171000000000017960000000001690000000000175800000000017680000000001768000000000178001514000000000000442900000000000778708000000000000000009999123100000010000000000000BRBTOWACNOR8105
012013102296BTOW3F      020B2W DIGITAL ON      NM   R$  000000000172900000000017960000000001729000000000175900000000017500000000001750000000000179500049000000000000001138000000000002002576000000000000009999123100000010000000000000BRBTOWACNOR8105
012013102202BTTL3       010BATTISTELLA ON           R$  000000000009500000000000950000000000095000000000009500000000000950000000000090000000000009500001000000000000015000000000000001425000000000000000009999123100000010000000000000BRBTTLACNOR0105
012013102202BTTL4       010BATTISTELLA PN           R$  000000000009800000000001010000000000098000000000009800000000001010000000000098000000000010000028000000000000029200000000000002882300000000000000009999123100000010000000000000BRBTTLACNPR7105
012013102202BVMF3       010BMFBOVESPA  ON      NM   R$  000000000129900000000013130000000001296000000000130400000000013060000000001304000000000130611927000000000004920600000000006419957500000000000000009999123100000010000000000000BRBVMFACNOR3126
012013102296BVMF3F      020BMFBOVESPA  ON      NM   R$  000000000130500000000013100000000001297000000000130200000000013050000000001296000000000130500083000000000000003018000000000003930055000000000000009999123100000010000000000000BRBVMFACNOR3126
012013102278BVMFA12     070BVMF        ON      NM000R$  000000000015500000000001550000000000155000000000015500000000001550000000000000000000000000000002000000000000000300000000000000046500000000000120002014012000000010000000000000BRBVMFACNOR3126
012013102278BVMFB15     070BVMF        ON      NM000R$  000000000003000000000000300000000000030000000000003000000000000300000000000000000000000005400001000000000000005000000000000000150000000000000148502014021700000010000000000000BRBVMFACNOR3125
012013102278BVMFK11     070BVMF        ON      NM000R$  000000000021600000000002160000000000215000000000021500000000002150000000000146000000000000000002000000000000000300000000000000064700000000000108502013111800000010000000000000BRBVMFACNOR3125
012013102278BVMFK12     070BVMF        ON      NM000R$  000000000013000000000001360000000000128000000000013200000000001290000000000130000000000015000007000000000000004000000000000000530900000000000118502013111800000010000000000000BRBVMFACNOR3125
012013102278BVMFK13     070BVMF  FM    ON      NM000R$  000000000005400000000000570000000000048000000000005200000000000500000000000049000000000005500156000000000000244800000000000012773300000000000128502013111800000010000000000000BRBVMFACNOR3125
012013102278BVMFK14     070BVMF  FM    ON      NM000R$  000000000001100000000000120000000000009000000000000900000000000090000000000008000000000000900082000000000000288000000000000002769200000000000138502013111800000010000000000000BRBVMFACNOR3125
012013102278BVMFK15     070BVMF        ON      NM000R$  000000000000100000000000020000000000001000000000000100000000000010000000000001000000000000200010000000000000035200000000000000060200000000000148502013111800000010000000000000BRBVMFACNOR3125
012013102278BVMFK42     070BVMF  FM    ON      NM000R$  000000000007700000000000810000000000072000000000007600000000000770000000000000000000000000000013000000000000033700000000000002570000000000000125002013111800000010000000000000BRBVMFACNOR3126
012013102278BVMFK43     070BVMF  FM    ON      NM000R$  000000000002000000000000210000000000018000000000001900000000000180000000000016000000000002100018000000000000017000000000000000328000000000000135002013111800000010000000000000BRBVMFACNOR3126
012013102278BVMFK44     070BVMF  FM    ON      NM000R$  000000000000300000000000040000000000003000000000000300000000000030000000000000000000000000000011000000000000034200000000000000117400000000000145002013111800000010000000000000BRBVMFACNOR3126
012013102278BVMFL12     070BVMF        ON      NM000R$  000000000017100000000001710000000000171000000000017100000000001710000000000000000000000020900001000000000000001500000000000000256500000000000115402013121600000010000000000000BRBVMFACNOR3123
012013102278BVMFL13     070BVMF  FM    ON      NM000R$  000000000007000000000000760000000000069000000000007200000000000700000000000070000000000007500094000000000000116400000000000008450000000000000128502013121600000010000000000000BRBVMFACNOR3125
012013102278BVMFL14     070BVMF  FM    ON      NM000R$  000000000002700000000000300000000000027000000000002800000000000280000000000020000000000003000023000000000000087500000000000002498000000000000137402013121600000010000000000000BRBVMFACNOR3124
012013102278BVMFL43     070BVMF        ON      NM000R$  000000000005200000000000540000000000052000000000005300000000000520000000000000000000000000000003000000000000001400000000000000074800000000000131902013121600000010000000000000BRBVMFACNOR3126
012013102282BVMFW12     080BVMFE FM    ON      NM000R$  000000000000900000000000090000000000007000000000000800000000000070000000000007000000000001000022000000000000058400000000000000483500000000000118502013111800000010000000000000BRBVMFACNOR3125
012013102282BVMFW13     080BVMFE FM    ON      NM000R$  000000000002800000000000280000000000025000000000002600000000000270000000000023000000000002700007000000000000013400000000000000357200000000000128502013111800000010000000000000BRBVMFACNOR3125
012013102282BVMFW43     080BVMFE FM    ON      NM000R$  000000000006000000000000610000000000054000000000005700000000000580000000000000000000000000000019000000000000059100000000000003397200000000000135002013111800000010000000000000BRBVMFACNOR3126
012013102282BVMFX13     080BVMFE FM    ON      NM000R$  000000000004000000000000400000000000038000000000003800000000000380000000000033000000000000000003000000000000003700000000000000141000000000000128502013121600000010000000000000BRBVMFACNOR3125
012013102282BVMFX14     080BVMFE FM    ON      NM000R$  000000000008400000000000860000000000078000000000008200000000000780000000000000000000000000000037000000000000075200000000000006212200000000000137402013121600000010000000000000BRBVMFACNOR3124
012013102282BVMFX42     080BVMFE FM    ON      NM000R$  000000000002500000000000270000000000025000000000002600000000000270000000000000000000000000000008000000000000018500000000000000492500000000000125002013121600000010000000000000BRBVMFACNOR3126
012013102202CARD3       010CSU CARDSYSTON      NM   R$  000000000031100000000003110000000000303000000000030500000000003080000000000305000000000030800011000000000000005700000000000001742300000000000000009999123100000010000000000000BRCARDACNOR9105
012013102296CARD3F      020CSU CARDSYSTON      NM   R$  000000000030300000000003030000000000303000000000030300000000003030000000000302000000000030900001000000000000000035000000000000010605000000000000009999123100000010000000000000BRCARDACNOR9105
012013102202CBEE3       010AMPLA ENERG ON *         R$  000000000012900000000001290000000000129000000000012900000000001290000000000123000000000013000001000000000018000000000000000002322000000000000000009999123100010000000000000000BRCBEEACNOR3149
012013102262CBEE3T      030AMPLA ENERG ON *      062R$  000000000013000000000001310000000000130000000000013000000000001310000000000000000000000000000002000000000018000000000000000002355901000000000000009999123100010000000000000000BRCBEEACNOR3149
012013102296CBMA4F      020COBRASMA    PN           R$  000000000000400000000000040000000000004000000000000400000000000040000000000004000000000000500001000000000000000100000000000000000400000000000000009999123100000010000000000000BRCBMAACNPR1124
012013102208CCHI3       010CHIARELLI   ON           R$  000000000001700000000000180000000000016000000000001600000000000170000000000016000000000001800025000000000000520000000000000008830000000000000000009999123100000010000000000000BRCCHIACNOR5123
012013102296CCHI3F      020CHIARELLI   ON           R$  000000000001700000000000170000000000016000000000001600000000000160000000000016000000000001700006000000000000009214000000000000156637000000000000009999123100000010000000000000BRCCHIACNOR5123
012013102208CCHI4       010CHIARELLI   PN           R$  000000000001200000000000120000000000012000000000001200000000000120000000000012000000000001300001000000000000010000000000000000120000000000000000009999123100000010000000000000BRCCHIACNPR2122
012013102296CCPR3F      020CYRE COM-CCPON      NM   R$  000000000205000000000020500000000002050000000000205000000000020500000000001980000000000210000001000000000000000020000000000000041000000000000000009999123100000010000000000000BRCCPRACNOR9107
012013102202CCRO3       010CCR SA      ON      NM   R$  000000000179400000000018520000000001777000000000182500000000018460000000001845000000000184610334000000000003718200000000006786331000000000000000009999123100000010000000000000BRCCROACNOR2123
012013102296CCRO3F      020CCR SA      ON      NM   R$  000000000179900000000018630000000001767000000000182200000000018620000000001835000000000186200119000000000000003659000000000006669911000000000000009999123100000010000000000000BRCCROACNOR2123
012013102262CCRO3T      030CCR SA      ON      NM030R$  000000000180200000000018650000000001802000000000183300000000018600000000000000000000000000000008000000000000005000000000000009168976000000000000009999123100000010000000000000BRCCROACNOR2123
012013102262CCRO3T      030CCR SA      ON      NM031R$  000000000184300000000018510000000001843000000000184900000000018510000000000000000000000000000006000000000000012000000000000022189740000000000000009999123100000010000000000000BRCCROACNOR2123
012013102278CCROK1      070CCROE       ON      NM000R$  000000000009300000000000930000000000092000000000009200000000000920000000000000000000000020000002000000000000013500000000000001242100000000000172502013111800000010000000000000BRCCROACNOR2123
012013102278CCROK48     070CCRO        ON      NM000R$  000000000005000000000000500000000000050000000000005000000000000500000000000000000000000000000001000000000000000400000000000000020000000000000185002013111800000010000000000000BRCCROACNOR2123
012013102278CCROL59     070CCRO        ON      NM000R$  000000000001900000000000190000000000019000000000001900000000000190000000000019000000000011900002000000000000008600000000000000163400000000000190002013121600000010000000000000BRCCROACNOR2123
012013102202CCXC3       010CCX CARVAO  ON      NM   R$  000000000013600000000001430000000000135000000000013900000000001390000000000138000000000013901450000000000005916200000000000824357600000000000000009999123100000010000000000000BRCCXCACNOR5100
012013102296CCXC3F      020CCX CARVAO  ON      NM   R$  000000000014000000000001420000000000138000000000014000000000001420000000000136000000000014200007000000000000000301000000000000042174000000000000009999123100000010000000000000BRCCXCACNOR5100
012013102262CCXC3T      030CCX CARVAO  ON      NM016R$  000000000014000000000001410000000000140000000000014000000000001410000000000000000000000000000002000000000000007500000000000001054725000000000000009999123100000010000000000000BRCCXCACNOR5100
012013102262CCXC3T      030CCX CARVAO  ON      NM030R$  000000000014000000000001410000000000140000000000014000000000001410000000000000000000000000000002000000000000200000000000000028000160000000000000009999123100000010000000000000BRCCXCACNOR5100
012013102202CEEB3       010COELBA      ON           R$  000000000320000000000033300000000003200000000000326500000000033300000000003265000000000333000002000000000000000200000000000000653000000000000000009999123100000010000000000000BRCEEBACNOR3163
012013102212CEOC11B     010FII CEO CCP CI      MB   R$  000000000875000000000087500000000008697000000000870800000000086970000000008691000000000869700016000000000000001190000000000010363475000000000000009999123100000010000000000000BRCEOCCTF003111
012013102202CEPE5       010CELPE       PNA          R$  000000000215000000000021500000000002150000000000215000000000021500000000001800000000000215000001000000000000000100000000000000215000000000000000009999123100000010000000000000BRCEPEACNPA6151
012013102202CESP3       010CESP        ON      N1   R$  000000000193000000000019760000000001930000000000195600000000019760000000001930000000000197900006000000000000000800000000000001565300000000000000009999123100000010000000000000BRCESPACNOR3160
012013102202CESP6       010CESP        PNB     N1   R$  000000000224100000000022630000000002211000000000224000000000022300000000002230000000000223702040000000000000599600000000001343146300000000000000009999123100000010000000000000BRCESPACNPB4119
012013102296CESP6F      020CESP        PNB     N1   R$  000000000223400000000022690000000002220000000000224100000000022350000000002235000000000226800018000000000000000537000000000001201488000000000000009999123100000010000000000000BRCESPACNPB4119
012013102278CESPK22     070CESP        PNB     N1000R$  000000000009700000000000970000000000097000000000009700000000000970000000000000000000000000000001000000000000300000000000000029100000000000000220002013111800000010000000000000BRCESPACNPB4119
012013102282CESPW49     080CESPE       PNB     N1000R$  000000000000100000000000010000000000001000000000000100000000000010000000000000000000000000000001000000000000300000000000000000300000000000000195002013111800000010000000000000BRCESPACNPB4119
012013102282CESPW50     080CESPE       PNB     N1000R$  000000000000500000000000050000000000005000000000000500000000000050000000000000000000000000000001000000000000300000000000000001500000000000000205002013111800000010000000000000BRCESPACNPB4119
012013102202CGAS3       010COMGAS      ON           R$  000000000529900000000052990000000005299000000000529900000000052990000000005295000000000555100001000000000000000100000000000000529900000000000000009999123100000010000000000000BRCGASACNOR0132
012013102202CGAS5       010COMGAS      PNA          R$  000000000583500000000058350000000005769000000000581700000000058200000000005777000000000582000085000000000000083900000000000488094600000000000000009999123100000010000000000000BRCGASACNPA3129
012013102296CGAS5F      020COMGAS      PNA          R$  000000000579500000000057950000000005771000000000577200000000057710000000005750000000000579200002000000000000000046000000000000265538000000000000009999123100000010000000000000BRCGASACNPA3129
012013102202CGRA3       010GRAZZIOTIN  ON           R$  000000000164900000000016490000000001649000000000164900000000016490000000001632000000000164900001000000000000000100000000000000164900000000000000009999123100000010000000000000BRCGRAACNOR2061
012013102202CGRA4       010GRAZZIOTIN  PN           R$  000000000178900000000017890000000001751000000000176800000000017510000000001751000000000176900010000000000000004200000000000007426400000000000000009999123100000010000000000000BRCGRAACNPR9061
012013102296CGRA4F      020GRAZZIOTIN  PN           R$  000000000176000000000017600000000001750000000000175700000000017500000000001765000000000190000002000000000000000007000000000000012300000000000000009999123100000010000000000000BRCGRAACNPR9061
012013102202CIEL3       010CIELO       ON      NM   R$  000000000658100000000066010000000006491000000000653400000000065200000000006520000000000653005826000000000001858400000000012143166400000000000000009999123100000010000000000000BRCIELACNOR3112
012013102296CIEL3F      020CIELO       ON      NM   R$  000000000650000000000065950000000006500000000000653400000000065200000000006520000000000654500117000000000000003220000000000021041229000000000000009999123100000010000000000000BRCIELACNOR3112
012013102262CIEL3T      030CIELO       ON      NM030R$  000000000661600000000066170000000006576000000000657800000000065770000000000000000000000000000004000000000000001900000000000012498481000000000000009999123100000010000000000000BRCIELACNOR3112
012013102278CIELK30     070CIEL        ON      NM000R$  000000000061000000000006100000000000610000000000061000000000006100000000000000000000000000000001000000000000002200000000000001342000000000000600002013111800000010000000000000BRCIELACNOR3112
012013102278CIELK59     070CIEL        ON      NM000R$  000000000081000000000008100000000000796000000000079800000000007960000000000000000000000000000002000000000000120000000000000095800000000000000579402013111800000010000000000000BRCIELACNOR3111
012013102278CIELL69     070CIEL        ON      NM000R$  000000000012300000000001230000000000102000000000011800000000001020000000000000000000000000000002000000000000250000000000000029700000000000000690002013121600000010000000000000BRCIELACNOR3112
012013102282CIELX17     080CIELE       ON      NM000R$  000000000017900000000001800000000000179000000000017900000000001800000000000000000000000000000002000000000000250000000000000044800000000000000655002013121600000010000000000000BRCIELACNOR3112
012013102282CIELX63     080CIELE       ON      NM000R$  000000000008600000000000860000000000080000000000008400000000000800000000000000000000000000000003000000000000250000000000000021200000000000000630002013121600000010000000000000BRCIELACNOR3112
012013102202CLSC4       010CELESC      PN      N2   R$  000000000185500000000018600000000001841000000000184700000000018540000000001844000000000185400052000000000000008500000000000015707000000000000000009999123100000010000000000000BRCLSCACNPR3107
012013102202CMIG3       010CEMIG       ON      N1   R$  000000000197100000000020000000000001968000000000198700000000019870000000001980000000000198700201000000000000052500000000000104324100000000000000009999123100000010000000000000BRCMIGACNOR6208
012013102296CMIG3F      020CEMIG       ON      N1   R$  000000000197000000000019990000000001970000000000198900000000019810000000001980000000000199300015000000000000000556000000000001106399000000000000009999123100000010000000000000BRCMIGACNOR6208
012013102262CMIG3T      030CEMIG       ON      N1115R$  000000000204600000000020470000000002046000000000204600000000020470000000000000000000000000000002000000000000005000000000000010233575000000000000009999123100000010000000000000BRCMIGACNOR6208
012013102202CMIG4       010CEMIG       PN      N1   R$  000000000201500000000020370000000002002000000000202300000000020240000000002023000000000202410206000000000002783600000000005632965700000000000000009999123100000010000000000000BRCMIGACNPR3208
012013102296CMIG4F      020CEMIG       PN      N1   R$  000000000201900000000020360000000002005000000000202100000000020340000000002025000000000203400126000000000000003845000000000007771039000000000000009999123100000010000000000000BRCMIGACNPR3208
012013102262CMIG4T      030CEMIG       PN      N1060R$  000000000204100000000020420000000002041000000000204100000000020420000000000000000000000000000002000000000000005000000000000010209795000000000000009999123100000010000000000000BRCMIGACNPR3208
012013102262CMIG4T      030CEMIG       PN      N1062R$  000000000205300000000020540000000002053000000000205300000000020540000000000000000000000000000004000000000000016300000000000033472871000000000000009999123100000010000000000000BRCMIGACNPR3208
012013102278CMIGK20     070CMIG        PN      N1000R$  000000000006100000000000640000000000060000000000006100000000000640000000000030000000000007500003000000000000001900000000000000117700000000000200002013111800000010000000000000BRCMIGACNPR3208
012013102278CMIGK21     070CMIG        PN      N1000R$  000000000002000000000000220000000000011000000000001400000000000180000000000000000000000002500005000000000000004100000000000000059300000000000210002013111800000010000000000000BRCMIGACNPR3208
012013102212CNES11B     010FII CENESP  CI  ER  MB   R$  000000001271000000000127110000000012710000000001271000000000127110000000012710000000001299000003000000000000000120000000000001525220000000000000009999123100000010000000000000BRCNESCTF001127
012013102202COCE3       010COELCE      ON           R$  000000000392000000000041290000000003852000000000399100000000040500000000004002000000000405000022000000000000004400000000000017564600000000000000009999123100000010000000000000BRCOCEACNOR0132
012013102202COCE5       010COELCE      PNA          R$  000000000390200000000039240000000003804000000000388100000000039000000000003900000000000390800410000000000000142300000000000552280900000000000000009999123100000010000000000000BRCOCEACNPA3133
012013102296COCE5F      020COELCE      PNA          R$  000000000390200000000039200000000003809000000000386000000000038810000000003910000000000393200020000000000000000442000000000001706149000000000000009999123100000010000000000000BRCOCEACNPA3133
012013102202CPFE3       010CPFL ENERGIAON      NM   R$  000000000198100000000020130000000001975000000000199400000000020000000000001997000000000200204250000000000000890400000000001775710300000000000000009999123100000010000000000000BRCPFEACNOR0122
012013102296CPFE3F      020CPFL ENERGIAON      NM   R$  000000000198300000000020350000000001980000000000200200000000020100000000001977000000000201000042000000000000001398000000000002800197000000000000009999123100000010000000000000BRCPFEACNOR0122
012013102202CPLE3       010COPEL       ON      N1   R$  000000000224900000000022680000000002236000000000224700000000022460000000002245000000000225500161000000000000054200000000000121793400000000000000009999123100000010000000000000BRCPLEACNOR8128
012013102262CPLE3T      030COPEL       ON      N1030R$  000000000225600000000022570000000002256000000000225600000000022570000000000000000000000000000004000000000000001200000000000002707354000000000000009999123100000010000000000000BRCPLEACNOR8128
012013102202CPLE6       010COPEL       PNB     N1   R$  000000000308600000000031430000000003061000000000310500000000031430000000003135000000000314302502000000000000594800000000001847110400000000000000009999123100000010000000000000BRCPLEACNPB9125
012013102296CPLE6F      020COPEL       PNB     N1   R$  000000000311800000000031850000000003103000000000313600000000031850000000003101000000000318500013000000000000000357000000000001121459000000000000009999123100000010000000000000BRCPLEACNPB9125
012013102202CPRE3       010CPFL RENOVAVON      NM   R$  000000000136500000000013650000000001340000000000135400000000013600000000001340000000000136500011000000000000004800000000000006501000000000000000009999123100000010000000000000BRCPREACNOR5100
012013102296CPRE3F      020CPFL RENOVAVON      NM   R$  000000000136100000000013700000000001300000000000132900000000013700000000001256000000000137000010000000000000000428000000000000569186000000000000009999123100000010000000000000BRCPREACNOR5100
012013102202CRDE3       010CR2         ON      NM   R$  000000000038700000000003870000000000387000000000038700000000003870000000000386000000000039500001000000000000000100000000000000038700000000000000009999123100000010000000000000BRCRDEACNOR1108
012013102202CREM3       010CREMER      ON      NM   R$  000000000149400000000015500000000001494000000000152700000000015290000000001525000000000155000030000000000000009400000000000014363000000000000000009999123100000010000000000000BRCREMACNOR2167
012013102296CREM3F      020CREMER      ON      NM   R$  000000000151800000000015180000000001518000000000151800000000015180000000001492000000000159000001000000000000000030000000000000045540000000000000009999123100000010000000000000BRCREMACNOR2167
012013102202CRIV3       010ALFA FINANC ON           R$  000000000049500000000005070000000000495000000000050100000000005070000000000000000000000050700012000000000000002900000000000001453300000000000000009999123100000010000000000000BRCRIVACNOR4190
012013102202CRIV4       010ALFA FINANC PN           R$  000000000044000000000004400000000000440000000000044000000000004400000000000434000000000044000005000000000000002000000000000000880000000000000000009999123100000010000000000000BRCRIVACNPR1190
012013102202CRUZ3       010SOUZA CRUZ  ON           R$  000000000252500000000025520000000002525000000000253600000000025350000000002535000000000253807223000000000001541600000000003910329300000000000000009999123100000010000000000000BRCRUZACNOR0248
012013102296CRUZ3F      020SOUZA CRUZ  ON           R$  000000000258000000000025800000000002520000000000253800000000025760000000002531000000000257600090000000000000002818000000000007155303000000000000009999123100000010000000000000BRCRUZACNOR0248
012013102262CRUZ3T      030SOUZA CRUZ  ON        030R$  000000000255400000000025650000000002554000000000255700000000025650000000000000000000000000000004000000000000001500000000000003836686000000000000009999123100000010000000000000BRCRUZACNOR0248
012013102262CRUZ3T      030SOUZA CRUZ  ON        062R$  000000000257000000000025810000000002570000000000257700000000025770000000000000000000000000000008000000000000004500000000000011599906000000000000009999123100000010000000000000BRCRUZACNOR0248
012013102278CRUZK1      070CRUZ        ON        000R$  000000000004200000000000420000000000042000000000004200000000000420000000000000000000000000000001000000000000001000000000000000042000000000000255002013111800000010000000000000BRCRUZACNOR0248
012013102278CRUZK25     070CRUZ        ON        000R$  000000000006900000000000690000000000069000000000006900000000000690000000000000000000000000000001000000000000005000000000000000345000000000000250002013111800000010000000000000BRCRUZACNOR0248
012013102202CSAN3       010COSAN       ON      NM   R$  000000000442000000000045090000000004388000000000444200000000044450000000004434000000000444504034000000000001127100000000005007391500000000000000009999123100000010000000000000BRCSANACNOR6108
012013102296CSAN3F      020COSAN       ON      NM   R$  000000000441000000000045000000000004398000000000443200000000044010000000004401000000000448200063000000000000001757000000000007796387000000000000009999123100000010000000000000BRCSANACNOR6108
012013102262CSAN3T      030COSAN       ON      NM030R$  000000000442600000000044300000000004426000000000442800000000044300000000000000000000000000000004000000000000110000000000000487097028000000000000009999123100000010000000000000BRCSANACNOR6108
012013102262CSAN3T      030COSAN       ON      NM062R$  000000000456200000000045630000000004562000000000456200000000045630000000000000000000000000000002000000000000002000000000000009125312000000000000009999123100000010000000000000BRCSANACNOR6108
012013102262CSAN3T      030COSAN       ON      NM090R$  000000000458700000000045930000000004587000000000458700000000045930000000000000000000000000000004000000000000002000000000000009175482000000000000009999123100000010000000000000BRCSANACNOR6108
012013102278CSANK13     070CSAN        ON      NM000R$  000000000017300000000001740000000000172000000000017300000000001730000000000000000000000000000005000000000000010600000000000001836000000000000435002013111800000010000000000000BRCSANACNOR6108
012013102278CSANK43     070CSAN        ON      NM000R$  000000000020200000000002200000000000202000000000020400000000002200000000000000000000000000000003000000000000012100000000000002471200000000000430002013111800000010000000000000BRCSANACNOR6108
012013102278CSANK44     070CSAN        ON      NM000R$  000000000015300000000001530000000000153000000000015300000000001530000000000000000000000000000001000000000000010700000000000001637100000000000440002013111800000010000000000000BRCSANACNOR6108
012013102278CSANK46     070CSAN        ON      NM000R$  000000000002300000000000230000000000023000000000002300000000000230000000000000000000000000000002000000000000001200000000000000027600000000000460002013111800000010000000000000BRCSANACNOR6108
012013102278CSANK5      070CSAN        ON      NM000R$  000000000019600000000001960000000000196000000000019600000000001960000000000000000000000000000001000000000000003500000000000000686000000000000425002013111800000010000000000000BRCSANACNOR6108
012013102202CSMG3       010COPASA      ON      NM   R$  000000000379700000000038330000000003753000000000379000000000037750000000003775000000000378101067000000000000261400000000000990903700000000000000009999123100000010000000000000BRCSMGACNOR5128
012013102296CSMG3F      020COPASA      ON      NM   R$  000000000377500000000038990000000003701000000000382300000000037850000000003750000000000380000013000000000000000344000000000001313835000000000000009999123100000010000000000000BRCSMGACNOR5128
012013102214CSMO11      010ISHARES CSMOCI           R$  000000000490600000000049060000000004906000000000490600000000049060000000004861000000000000000001000000000000000010000000000000049060000000000000009999123100000010000000000000BRCSMOCTF002100
012013102202CSNA3       010SID NACIONALON           R$  000000000118800000000012410000000001183000000000122600000000012400000000001239000000000124014012000000000008810000000000010809740400000000000000009999123100000010000000000000BRCSNAACNOR6243
012013102296CSNA3F      020SID NACIONALON           R$  000000000118000000000012430000000001180000000000122200000000012360000000001236000000000124400132000000000000003144000000000003844716000000000000009999123100000010000000000000BRCSNAACNOR6243
012013102262CSNA3T      030SID NACIONALON        030R$  000000000124200000000012490000000001242000000000124200000000012490000000000000000000000000000008000000000000023500000000000029203077000000000000009999123100000010000000000000BRCSNAACNOR6243
012013102262CSNA3T      030SID NACIONALON        062R$  000000000124700000000012570000000001247000000000125200000000012570000000000000000000000000000008000000000000020000000000000025052707000000000000009999123100000010000000000000BRCSNAACNOR6243
012013102262CSNA3T      030SID NACIONALON        090R$  000000000126600000000012670000000001266000000000126600000000012670000000000000000000000000000002000000000000016000000000000020256640000000000000009999123100000010000000000000BRCSNAACNOR6243
012013102262CSNA3T      030SID NACIONALON        120R$  000000000122700000000012280000000001227000000000122700000000012280000000000000000000000000000002000000000000003200000000000003928692000000000000009999123100000010000000000000BRCSNAACNOR6243
012013102262CSNA3T      030SID NACIONALON        122R$  000000000125000000000012510000000001250000000000125000000000012510000000000000000000000000000002000000000000100000000000000125035750000000000000009999123100000010000000000000BRCSNAACNOR6243
012013102262CSNA3T      030SID NACIONALON        182R$  000000000129700000000012980000000001297000000000129700000000012980000000000000000000000000000002000000000000001500000000000001945866000000000000009999123100000010000000000000BRCSNAACNOR6243
012013102278CSNAK1      070CSNA        ON        000R$  000000000023200000000002320000000000232000000000023200000000002320000000000000000000000000000001000000000000003000000000000000696000000000000100002013111800000010000000000000BRCSNAACNOR6243
012013102278CSNAK10     070CSNA        ON        000R$  000000000021800000000002730000000000218000000000026500000000002680000000000000000000000000000010000000000000212300000000000056448700000000000098002013111800000010000000000000BRCSNAACNOR6242
012013102278CSNAK11     070CSNA  FM    ON        000R$  000000000011300000000001550000000000113000000000014300000000001550000000000154000000000000000039000000000000086100000000000012346200000000000110002013111800000010000000000000BRCSNAACNOR6243
012013102278CSNAK12     070CSNA  FM    ON        000R$  000000000004900000000000790000000000048000000000007100000000000750000000000000000000000008100166000000000000229900000000000016548500000000000120002013111800000010000000000000BRCSNAACNOR6243
012013102278CSNAK13     070CSNA  FM    ON        000R$  000000000001500000000000300000000000014000000000002400000000000290000000000026000000000003500081000000000000210200000000000005085500000000000130002013111800000010000000000000BRCSNAACNOR6243
012013102278CSNAK14     070CSNA        ON        000R$  000000000001200000000000120000000000012000000000001200000000000120000000000009000000000001600001000000000000000100000000000000001200000000000140002013111800000010000000000000BRCSNAACNOR6243
012013102278CSNAK40     070CSNA        ON        000R$  000000000017700000000002010000000000177000000000019500000000001980000000000163000000000000000117000000000000130000000000000025465000000000000104002013111800000010000000000000BRCSNAACNOR6243
012013102278CSNAK41     070CSNA  FM    ON        000R$  000000000008300000000001100000000000083000000000010600000000001050000000000000000000000000000006000000000000024500000000000002607500000000000115002013111800000010000000000000BRCSNAACNOR6243
012013102278CSNAK42     070CSNA  FM    ON        000R$  000000000003100000000000480000000000031000000000004000000000000430000000000024000000000004900024000000000000058300000000000002333400000000000125002013111800000010000000000000BRCSNAACNOR6243
012013102278CSNAK60     070CSNA        ON        000R$  000000000017000000000001850000000000160000000000017600000000001800000000000000000000000019500005000000000000021500000000000003805000000000000106002013111800000010000000000000BRCSNAACNOR6243
012013102278CSNAK8      070CSNA        ON        000R$  000000000047300000000004730000000000473000000000047300000000004730000000000300000000000000000001000000000000001000000000000000473000000000000078002013111800000010000000000000BRCSNAACNOR6242
012013102278CSNAL11     070CSNA        ON        000R$  000000000021300000000002130000000000210000000000021100000000002130000000000000000000000000000004000000000000002600000000000000550800000000000104702013121600000010000000000000BRCSNAACNOR6241
012013102278CSNAL12     070CSNA  FM    ON        000R$  000000000010400000000001400000000000104000000000013000000000001370000000000065000000000000000024000000000000055800000000000007286200000000000114702013121600000010000000000000BRCSNAACNOR6241
012013102278CSNAL13     070CSNA  FM    ON        000R$  000000000003400000000000560000000000030000000000004400000000000540000000000050000000000000000036000000000000091000000000000004071500000000000130002013121600000010000000000000BRCSNAACNOR6243
012013102278CSNAL16     070CSNA        ON        000R$  000000000000500000000000050000000000005000000000000500000000000050000000000001000000000000000001000000000000008000000000000000040000000000000154702013121600000010000000000000BRCSNAACNOR6241
012013102278CSNAL2      070CSNA  FM    ON        000R$  000000000004800000000000750000000000048000000000005700000000000750000000000000000000000000000009000000000000026000000000000001499000000000000125002013121600000010000000000000BRCSNAACNOR6243
012013102278CSNAL41     070CSNA  FM    ON        000R$  000000000013800000000001750000000000136000000000016300000000001720000000000000000000000000000034000000000000081300000000000013314100000000000110002013121600000010000000000000BRCSNAACNOR6243
012013102278CSNAL42     070CSNA  FM    ON        000R$  000000000010400000000001040000000000102000000000010300000000001020000000000010000000000000000007000000000000006500000000000000675000000000000119702013121600000010000000000000BRCSNAACNOR6241
012013102282CSNAW11     080CSNAE FM    ON        000R$  000000000001800000000000180000000000014000000000001600000000000150000000000009000000000001400007000000000000005800000000000000096500000000000110002013111800000010000000000000BRCSNAACNOR6243
012013102282CSNAW12     080CSNAE FM    ON        000R$  000000000004800000000000480000000000033000000000003600000000000340000000000032000000000004000103000000000000132900000000000004840000000000000120002013111800000010000000000000BRCSNAACNOR6243
012013102282CSNAW13     080CSNAE       ON        000R$  000000000010000000000001000000000000100000000000010000000000001000000000000075000000000000000001000000000000001000000000000000100000000000000130002013111800000010000000000000BRCSNAACNOR6243
012013102282CSNAW40     080CSNAE FM    ON        000R$  000000000000800000000000080000000000008000000000000800000000000080000000000000000000000000000003000000000000003000000000000000024000000000000104002013111800000010000000000000BRCSNAACNOR6243
012013102282CSNAW41     080CSNAE FM    ON        000R$  000000000003100000000000310000000000021000000000002200000000000210000000000000000000000000000004000000000000021000000000000000466000000000000115002013111800000010000000000000BRCSNAACNOR6243
012013102282CSNAX11     080CSNAE FM    ON        000R$  000000000002300000000000230000000000015000000000001600000000000150000000000013000000000003400041000000000001618400000000000026193900000000000104702013121600000010000000000000BRCSNAACNOR6241
012013102282CSNAX12     080CSNAE FM    ON        000R$  000000000004900000000000490000000000033000000000003600000000000340000000000022000000000003400096000000000001717800000000000063381000000000000114702013121600000010000000000000BRCSNAACNOR6241
