00COTAHIST.2013BOVESPA 20130923                                                                                                                                                                                                                      
012013092302AAPL34      010APPLE       DRN          R$  000000001077000000000108270000000010750000000001078400000000108270000000010730000000001087500003000000000000014600000000000157452500000000000000009999123100000010000000000000BRAAPLBDR004105
012013092302ABCB4       010ABC BRASIL  PN      N2   R$  000000000121800000000012550000000001208000000000122600000000012520000000001252000000000125301263000000000002743600000000003364048100000000000000009999123100000010000000000000BRABCBACNPR4120
012013092396ABCB4F      020ABC BRASIL  PN      N2   R$  000000000121800000000012480000000001212000000000123600000000012460000000001240000000000125800014000000000000000299000000000000369746000000000000009999123100000010000000000000BRABCBACNPR4120
012013092302ABRE11      010ABRIL EDUCA UNT     N2   R$  000000000333600000000033600000000003307000000000333800000000033600000000003342000000000336200688000000000000095900000000000320132200000000000000009999123100000010000000000000BRABRECDAM15102
012013092396ABRE11F     020ABRIL EDUCA UNT     N2   R$  000000000330500000000033480000000003305000000000333800000000033480000000003302000000000339000003000000000000000064000000000000213671000000000000009999123100000010000000000000BRABRECDAM15102
012013092302ABTT34      010ABBOTT      DRN          R$  000000000193800000000019490000000001938000000000194700000000019490000000001910000000000195000002000000000000025300000000000049276700000000000000009999123100000010000000000000BRABTTBDR007107
012013092302AEDU3       010ANHANGUERA  ON      NM   R$  000000000130700000000013280000000001284000000000130600000000013280000000001315000000000132809256000000000006210200000000008116401300000000000000009999123100000010000000000000BRAEDUACNOR9107
012013092396AEDU3F      020ANHANGUERA  ON      NM   R$  000000000130000000000013430000000001300000000000131800000000013150000000001315000000000134500018000000000000000585000000000000771231000000000000009999123100000010000000000000BRAEDUACNOR9107
012013092362AEDU3T      030ANHANGUERA  ON      NM030R$  000000000131600000000013170000000001316000000000131600000000013170000000000000000000000000000002000000000000003200000000000004213350000000000000009999123100000010000000000000BRAEDUACNOR9107
012013092312AEFI11      010FII AESAPAR CI           R$  000000001194000000000119400000000011857000000001189500000000119000000000011900000000001192000045000000000000000740000000000008802906000000000000009999123100000010000000000000BRAEFICTF002121
012013092312AGCX11      010FII AG CAIXACI           R$  000000009550000000000955000000000095000000000009535700000000950000000000094000000000009639600002000000000000000007000000000000667500000000000000009999123100000010000000000000BRAGCXCTF003110
012013092302AGRO3       010BRASILAGRO  ON      NM   R$  000000000099100000000009940000000000970000000000098300000000009930000000000985000000000099300048000000000000035700000000000035123500000000000000009999123100000010000000000000BRAGROACNOR7102
012013092362AGRO3T      030BRASILAGRO  ON      NM030R$  000000000099100000000009920000000000991000000000099100000000009920000000000000000000000000000002000000000000014000000000000013876565000000000000009999123100000010000000000000BRAGROACNOR7102
012013092302ALLL3       010ALL AMER LATON      NM   R$  000000000092400000000009270000000000897000000000091100000000009200000000000916000000000092005217000000000001620500000000001477687700000000000000009999123100000010000000000000BRALLLACNOR6118
012013092396ALLL3F      020ALL AMER LATON      NM   R$  000000000092000000000009260000000000896000000000091300000000009180000000000918000000000092700038000000000000001364000000000001245541000000000000009999123100000010000000000000BRALLLACNOR6118
012013092312ALMI11B     010FII TORRE ALCI      MB   R$  000000031179000000003117900000000308000000000030814500000003080000000000308001000000031000000003000000000000000026000000000008011790000000000000009999123100000010000000000000BRALMICTF003205
012013092302ALPA3       010ALPARGATAS  ON      N1   R$  000000000130000000000013010000000001252000000000129400000000012800000000001256000000000129800042000000000000057200000000000074021900000000000000009999123100000010000000000000BRALPAACNOR0203
012013092396ALPA3F      020ALPARGATAS  ON      N1   R$  000000000123000000000012700000000001149000000000124700000000012400000000001149000000000124000005000000000000000114000000000000142252000000000000009999123100000010000000000000BRALPAACNOR0203
012013092302ALPA4       010ALPARGATAS  PN      N1   R$  000000000137800000000014250000000001378000000000139800000000013980000000001394000000000139800719000000000000185000000000000258712500000000000000009999123100000010000000000000BRALPAACNPR7203
012013092396ALPA4F      020ALPARGATAS  PN      N1   R$  000000000139000000000014210000000001374000000000139100000000013830000000001383000000000142100024000000000000000596000000000000829459000000000000009999123100000010000000000000BRALPAACNPR7203
012013092362ALPA4T      030ALPARGATAS  PN      N1060R$  000000000143300000000014340000000001433000000000143300000000014340000000000000000000000000000002000000000000005000000000000007168856000000000000009999123100000010000000000000BRALPAACNPR7203
012013092302ALSC3       010ALIANSCE    ON      NM   R$  000000000206000000000020600000000002009000000000203600000000020450000000002044000000000204501054000000000000162700000000000331259400000000000000009999123100000010000000000000BRALSCACNOR0104
012013092396ALSC3F      020ALIANSCE    ON      NM   R$  000000000202000000000020200000000002020000000000202000000000020200000000002001000000000205500001000000000000000010000000000000020200000000000000009999123100000010000000000000BRALSCACNOR0104
012013092302ALUP11      010ALUPAR      UNT     N2   R$  000000000176100000000017700000000001744000000000175700000000017500000000001745000000000175000155000000000000057200000000000100537000000000000000009999123100000010000000000000BRALUPCDAM15100
012013092396ALUP11F     020ALUPAR      UNT     N2   R$  000000000176500000000017650000000001761000000000176400000000017610000000001725000000000176500002000000000000000042000000000000074102000000000000009999123100000010000000000000BRALUPCDAM15100
012013092302AMAR3       010LOJAS MARISAON      NM   R$  000000000228400000000023000000000002238000000000227600000000022650000000002263000000000226500914000000000000192000000000000437168500000000000000009999123100000010000000000000BRAMARACNOR4109
012013092396AMAR3F      020LOJAS MARISAON      NM   R$  000000000228900000000022890000000002159000000000225900000000021590000000002158000000000224500009000000000000000181000000000000409031000000000000009999123100000010000000000000BRAMARACNOR4109
012013092302AMBV3       010AMBEV       ON  ED       R$  000000000867000000000086940000000008584000000000864300000000086640000000008647000000000866400900000000000000194900000000001684624600000000000000009999123100000010000000000000BRAMBVACNOR4154
012013092396AMBV3F      020AMBEV       ON  ED       R$  000000000879800000000087980000000008581000000000865500000000086000000000008599000000000864900045000000000000001020000000000008827253000000000000009999123100000010000000000000BRAMBVACNOR4154
012013092362AMBV3T      030AMBEV       ON  ED    060R$  000000000876700000000088120000000008767000000000878100000000088120000000000000000000000000000006000000000000030000000000000263457480000000000000009999123100000010000000000000BRAMBVACNOR4154
012013092302AMBV4       010AMBEV       PN  ED       R$  000000000867000000000086950000000008581000000000862300000000086420000000008642000000000864307658000000000001496800000000012907478200000000000000009999123100000010000000000000BRAMBVACNPR1154
012013092396AMBV4F      020AMBEV       PN  ED       R$  000000000867000000000086900000000008562000000000862000000000085930000000008593000000000864000171000000000000004155000000000035821127000000000000009999123100000010000000000000BRAMBVACNPR1154
012013092362AMBV4T      030AMBEV       PN  ED    016R$  000000000865600000000086630000000008656000000000865700000000086630000000000000000000000000000004000000000000002000000000000017315137000000000000009999123100000010000000000000BRAMBVACNPR1154
012013092362AMBV4T      030AMBEV       PN  ED    060R$  000000000873800000000087390000000008738000000000873800000000087390000000000000000000000000000002000000000000001000000000000008738188000000000000009999123100000010000000000000BRAMBVACNPR1154
012013092378AMBVJ84     070AMBV    /ED PN        000R$  000000000050000000000005000000000000425000000000046200000000004250000000000000000000000000000003000000000000004000000000000001850000000000000833502013102100000010000000000000BRAMBVACNPR1153
012013092378AMBVJ90     070AMBV    /ED PN        000R$  000000000006500000000000650000000000065000000000006500000000000650000000000031000000000007000002000000000000000200000000000000013000000000000893502013102100000010000000000000BRAMBVACNPR1153
012013092302AMGN34      010AMGEN       DRN          R$  000000002553500000000255350000000025509000000002551000000000255090000000025110000000002553000002000000000000002500000000000063775100000000000000009999123100000010000000000000BRAMGNBDR004107
012013092302ARTR3       010ARTERIS     ON      NM   R$  000000000191500000000019340000000001901000000000191600000000019200000000001905000000000192000792000000000000331300000000000634817800000000000000009999123100000010000000000000BRARTRACNOR3101
012013092396ARTR3F      020ARTERIS     ON      NM   R$  000000000192900000000019290000000001905000000000191400000000019100000000001906000000000191000032000000000000001169000000000002235820000000000000009999123100000010000000000000BRARTRACNOR3101
012013092302ARZZ3       010AREZZO CO   ON      NM   R$  000000000377000000000038950000000003769000000000381800000000038950000000003880000000000389500782000000000000237900000000000908444700000000000000009999123100000010000000000000BRARZZACNOR3109
012013092396ARZZ3F      020AREZZO CO   ON      NM   R$  000000000383000000000038300000000003721000000000378900000000038280000000003721000000000387400008000000000000000216000000000000818527000000000000009999123100000010000000000000BRARZZACNOR3109
012013092302AUTM3       010AUTOMETAL   ON      NM   R$  000000000184100000000018600000000001834000000000185000000000018600000000001847000000000186000058000000000000011800000000000021837500000000000000009999123100000010000000000000BRAUTMACNOR8109
012013092396AUTM3F      020AUTOMETAL   ON      NM   R$  000000000185600000000018560000000001856000000000185600000000018560000000001800000000000184000001000000000000000060000000000000111360000000000000009999123100000010000000000000BRAUTMACNOR8109
012013092302BAHI3       010BAHEMA      ON           R$  000000000049500000000004950000000000480000000000048500000000004850000000000484000000000049500005000000000000006400000000000003107400000000000000009999123100000010000000000000BRBAHIACNOR1066
012013092302BAUH4       010EXCELSIOR   PN           R$  000000000085900000000008940000000000820000000000083600000000008940000000000825000000000089400004000000000000001600000000000001338500000000000000009999123100000010000000000000BRBAUHACNPR3108
012013092302BAZA3       010AMAZONIA    ON           R$  000000000003300000000000330000000000032000000000003200000000000320000000000032000000000003300006000000000000072000000000000002355000000000000000009999123100000010000000000000BRBAZAACNOR0163
012013092396BAZA3F      020AMAZONIA    ON           R$  000000000003200000000000320000000000032000000000003200000000000320000000000032000000000003500001000000000000000530000000000000016960000000000000009999123100000010000000000000BRBAZAACNOR0163
012013092362BAZA3T      030AMAZONIA    ON        091R$  000000000003300000000000340000000000033000000000003300000000000340000000000000000000000000000002000000000000050000000000000001688940000000000000009999123100000010000000000000BRBAZAACNOR0163
012013092302BBAS3       010BRASIL      ON  EJ  NM   R$  000000000255800000000026450000000002556000000000261200000000026230000000002622000000000262319235000000000007647700000000019980203900000000000000009999123100000010000000000000BRBBASACNOR3239
012013092396BBAS3F      020BRASIL      ON  EJ  NM   R$  000000000255800000000026430000000002461000000000260300000000026100000000002603000000000262000417000000000000012206000000000031784801000000000000009999123100000010000000000000BRBBASACNOR3239
012013092362BBAS3T      030BRASIL      ON  EJ  NM028R$  000000000261300000000026140000000002613000000000261300000000026140000000000000000000000000000002000000000000002000000000000005227887000000000000009999123100000010000000000000BRBBASACNOR3239
012013092362BBAS3T      030BRASIL      ON  EJ  NM030R$  000000000264400000000026450000000002644000000000264400000000026450000000000000000000000000000002000000000000006100000000000016128551000000000000009999123100000010000000000000BRBBASACNOR3239
012013092378BBASA24     070BBAS    /EJ ON      NM000R$  000000000038000000000004000000000000380000000000039100000000004000000000000000000000000000000007000000000000010000000000000003911000000000000229502014012000000010000000000000BRBBASACNOR3237
012013092378BBASA26     070BBAS    /EJ ON      NM000R$  000000000022600000000002260000000000226000000000022600000000002260000000000000000000000000000001000000000000000500000000000000113000000000000249502014012000000010000000000000BRBBASACNOR3237
012013092378BBASJ22     070BBAS    /EJ ON      NM000R$  000000000048500000000005350000000000485000000000051600000000005350000000000111000000000000000014000000000000018800000000000009701700000000000209502013102100000010000000000000BRBBASACNOR3237
012013092378BBASJ23     070BBAS    /EJ ON      NM000R$  000000000042300000000004850000000000423000000000045900000000004750000000000000000000000000000021000000000000020400000000000009379200000000000216102013102100000010000000000000BRBBASACNOR3235
012013092378BBASJ24     070BBAS  FM/EJ ON      NM000R$  000000000032900000000003850000000000329000000000035200000000003570000000000241000000000038500117000000000000146000000000000051421300000000000227102013102100000010000000000000BRBBASACNOR3236
012013092378BBASJ25     070BBAS  FM/EJ ON      NM000R$  000000000022000000000002700000000000217000000000023600000000002470000000000180000000000027300103000000000000157000000000000037189100000000000239502013102100000010000000000000BRBBASACNOR3237
012013092378BBASJ26     070BBAS  FM/EJ ON      NM000R$  000000000016400000000002100000000000162000000000018500000000001840000000000184000000000019100113000000000000122800000000000022738800000000000246102013102100000010000000000000BRBBASACNOR3235
012013092378BBASJ27     070BBAS  FM/EJ ON      NM000R$  000000000007400000000001300000000000074000000000010200000000001120000000000101000000000014400410000000000000432300000000000044149200000000000256102013102100000010000000000000BRBBASACNOR3235
012013092378BBASJ28     070BBAS  FM/EJ ON      NM000R$  000000000002900000000000530000000000029000000000004100000000000410000000000041000000000004300200000000000000289000000000000012127900000000000269502013102100000010000000000000BRBBASACNOR3237
012013092378BBASJ29     070BBAS    /EJ ON      NM000R$  000000000001900000000000290000000000017000000000002200000000000250000000000025000000000002800036000000000000093300000000000002106500000000000276102013102100000010000000000000BRBBASACNOR3235
012013092378BBASJ30     070BBAS    /EJ ON      NM000R$  000000000000500000000000050000000000005000000000000500000000000050000000000006000000000001200002000000000000003900000000000000019500000000000286102013102100000010000000000000BRBBASACNOR3235
012013092378BBASJ31     070BBAS    /EJ ON      NM000R$  000000000000200000000000020000000000001000000000000100000000000010000000000001000000000000000008000000000000046200000000000000092200000000000307302013102100000010000000000000BRBBASACNOR3238
012013092378BBASJ56     070BBAS    /EJ ON      NM000R$  000000000013300000000001690000000000133000000000016100000000001600000000000000000000000000000039000000000000043500000000000007028300000000000251102013102100000010000000000000BRBBASACNOR3235
012013092378BBASJ60     070BBAS    /EJ ON      NM000R$  000000000000600000000000060000000000006000000000000600000000000060000000000000000000000000000001000000000000000500000000000000003000000000000291102013102100000010000000000000BRBBASACNOR3235
012013092378BBASJ65     070BBAS    /EJ ON      NM000R$  000000000004800000000000680000000000046000000000005100000000000610000000000000000000000000000037000000000000078700000000000004025300000000000265002013102100000010000000000000BRBBASACNOR3239
012013092378BBASK23     070BBAS    /EJ ON      NM000R$  000000000043000000000004300000000000430000000000043000000000004300000000000000000000000000000002000000000000002000000000000000860000000000000219502013111800000010000000000000BRBBASACNOR3237
012013092378BBASK24     070BBAS  FM/EJ ON      NM000R$  000000000033000000000003800000000000330000000000035500000000003580000000000256000000000000000048000000000000095500000000000033987900000000000229502013111800000010000000000000BRBBASACNOR3237
012013092378BBASK25     070BBAS  FM/EJ ON      NM000R$  000000000027100000000003110000000000270000000000028800000000002930000000000000000000000000000047000000000000082100000000000023662900000000000237102013111800000010000000000000BRBBASACNOR3236
012013092378BBASK26     070BBAS  FM/EJ ON      NM000R$  000000000019000000000002350000000000190000000000020900000000002230000000000100000000000000000028000000000000044900000000000009396800000000000247102013111800000010000000000000BRBBASACNOR3236
012013092378BBASK27     070BBAS  FM/EJ ON      NM000R$  000000000012300000000001600000000000120000000000013200000000001540000000000025000000000000000067000000000000071600000000000009469700000000000257102013111800000010000000000000BRBBASACNOR3236
012013092378BBASK28     070BBAS  FM/EJ ON      NM000R$  000000000008800000000000980000000000066000000000008700000000000880000000000035000000000010200166000000000000162200000000000014209000000000000267102013111800000010000000000000BRBBASACNOR3236
012013092378BBASK29     070BBAS    /EJ ON      NM000R$  000000000003200000000000500000000000032000000000004000000000000420000000000033000000000004600402000000000000574800000000000023488400000000000279502013111800000010000000000000BRBBASACNOR3237
012013092378BBASK30     070BBAS    /EJ ON      NM000R$  000000000001900000000000240000000000019000000000002100000000000240000000000007000000000000000002000000000000000400000000000000008600000000000289502013111800000010000000000000BRBBASACNOR3237
012013092378BBASK31     070BBAS    /EJ ON      NM000R$  000000000001000000000000100000000000010000000000001000000000000100000000000006000000000000000001000000000000002000000000000000020000000000000299502013111800000010000000000000BRBBASACNOR3237
012013092378BBASK32     070BBAS    /EJ ON      NM000R$  000000000000200000000000020000000000002000000000000200000000000020000000000000000000000000000001000000000000000500000000000000001000000000000320002013111800000010000000000000BRBBASACNOR3239
012013092378BBASL26     070BBAS    /EJ ON      NM000R$  000000000025700000000002620000000000257000000000026000000000002620000000000016000000000000000003000000000000000700000000000000182400000000000246102013121600000010000000000000BRBBASACNOR3235
012013092378BBASL27     070BBAS    /EJ ON      NM000R$  000000000015600000000001730000000000150000000000016400000000001720000000000007000000000000000032000000000000013100000000000002150300000000000259502013121600000010000000000000BRBBASACNOR3237
012013092378BBASL28     070BBAS    /EJ ON      NM000R$  000000000010500000000001220000000000099000000000011200000000001180000000000025000000000000000053000000000000224500000000000025263300000000000269502013121600000010000000000000BRBBASACNOR3237
012013092378BBASL29     070BBAS    /EJ ON      NM000R$  000000000007700000000000900000000000072000000000008100000000000870000000000010000000000000000047000000000000020800000000000001687200000000000276102013121600000010000000000000BRBBASACNOR3235
012013092382BBASM26     080BBASE   /EJ ON      NM000R$  000000000007400000000000740000000000074000000000007400000000000740000000000000000000000000000001000000000000001000000000000000074000000000000249502014012000000010000000000000BRBBASACNOR3237
012013092382BBASN26     080BBASE   /EJ ON      NM000R$  000000000009400000000000940000000000094000000000009400000000000940000000000000000000000000000001000000000000003000000000000000282000000000000249502014021700000010000000000000BRBBASACNOR3237
012013092382BBASV23     080BBASE FM/EJ ON      NM000R$  000000000000100000000000030000000000001000000000000200000000000030000000000003000000000001200013000000000000034500000000000000100700000000000216102013102100000010000000000000BRBBASACNOR3235
012013092382BBASV24     080BBASE FM/EJ ON      NM000R$  000000000000900000000000090000000000004000000000000600000000000050000000000004000000000000000022000000000000044800000000000000273400000000000227102013102100000010000000000000BRBBASACNOR3236
012013092382BBASV25     080BBASE FM/EJ ON      NM000R$  000000000001500000000000150000000000010000000000001200000000000130000000000011000000000002400052000000000000083900000000000001057400000000000239502013102100000010000000000000BRBBASACNOR3237
012013092382BBASV26     080BBASE FM/EJ ON      NM000R$  000000000002800000000000280000000000016000000000002100000000000200000000000005000000000003500182000000000000252000000000000005424700000000000246102013102100000010000000000000BRBBASACNOR3235
012013092382BBASV27     080BBASE   /EJ ON      NM000R$  000000000005000000000000560000000000036000000000004700000000000460000000000039000000000004500122000000000000230400000000000011024500000000000256102013102100000010000000000000BRBBASACNOR3235
012013092382BBASW24     080BBASE FM/EJ ON      NM000R$  000000000001700000000000170000000000017000000000001700000000000170000000000000000000000000000002000000000000002300000000000000039100000000000229502013111800000010000000000000BRBBASACNOR3237
012013092382BBASW25     080BBASE FM/EJ ON      NM000R$  000000000002600000000000270000000000020000000000002200000000000200000000000000000000000000000007000000000000010200000000000000232800000000000237102013111800000010000000000000BRBBASACNOR3236
012013092382BBASW26     080BBASE FM/EJ ON      NM000R$  000000000004800000000000480000000000035000000000004100000000000410000000000000000000000000000015000000000000021800000000000000915300000000000247102013111800000010000000000000BRBBASACNOR3236
012013092382BBASW28     080BBASE   /EJ ON      NM000R$  000000000011600000000001160000000000116000000000011600000000001160000000000000000000000000000001000000000000000900000000000000104400000000000267102013111800000010000000000000BRBBASACNOR3236
012013092382BBASX24     080BBASE   /EJ ON      NM000R$  000000000003000000000000300000000000023000000000002700000000000230000000000020000000000003500005000000000000000500000000000000013600000000000229502013121600000010000000000000BRBBASACNOR3237
012013092382BBASX25     080BBASE   /EJ ON      NM000R$  000000000003900000000000390000000000032000000000003500000000000320000000000031000000000004800007000000000000000700000000000000025000000000000236102013121600000010000000000000BRBBASACNOR3235
012013092382BBASX27     080BBASE   /EJ ON      NM000R$  000000000009000000000000900000000000090000000000009000000000000900000000000000000000000000000001000000000000000400000000000000036000000000000259502013121600000010000000000000BRBBASACNOR3237
012013092302BBDC3       010BRADESCO    ON      N1   R$  000000000355000000000035750000000003513000000000354200000000035490000000003545000000000354904076000000000001141000000000004042060000000000000000009999123100000010000000000000BRBBDCACNOR1606
012013092396BBDC3F      020BRADESCO    ON      N1   R$  000000000350000000000035980000000003500000000000354100000000035790000000003510000000000355000022000000000000000607000000000002149961000000000000009999123100000010000000000000BRBBDCACNOR1606
012013092302BBDC4       010BRADESCO    PN      N1   R$  000000000307300000000031030000000003063000000000308200000000030810000000003068000000000308113513000000000005198700000000016023076800000000000000009999123100000010000000000000BRBBDCACNPR8606
012013092396BBDC4F      020BRADESCO    PN      N1   R$  000000000305000000000031010000000003050000000000308000000000030750000000003075000000000309100224000000000000007782000000000023968953000000000000009999123100000010000000000000BRBBDCACNPR8606
012013092362BBDC4T      030BRADESCO    PN      N1016R$  000000000310000000000031010000000003087000000000309200000000030930000000000000000000000000000006000000000000016000000000000049480582000000000000009999123100000010000000000000BRBBDCACNPR8606
012013092362BBDC4T      030BRADESCO    PN      N1030R$  000000000310200000000031030000000003102000000000310200000000031030000000000000000000000000000002000000000000000500000000000001551242000000000000009999123100000010000000000000BRBBDCACNPR8606
012013092362BBDC4T      030BRADESCO    PN      N1060R$  000000000311200000000031130000000003112000000000311200000000031130000000000000000000000000000002000000000000001000000000000003112980000000000000009999123100000010000000000000BRBBDCACNPR8606
012013092362BBDC4T      030BRADESCO    PN      N1120R$  000000000318200000000031830000000003182000000000318200000000031830000000000000000000000000000002000000000000010000000000000031822790000000000000009999123100000010000000000000BRBBDCACNPR8606
012013092378BBDCA34     070BBDC        PN      N1000R$  000000000007800000000000780000000000077000000000007700000000000770000000000000000000000000000002000000000000001300000000000000101300000000000339602014012000000010000000000000BRBBDCACNPR8604
012013092378BBDCJ1      070BBDC        PN      N1000R$  000000000006500000000000700000000000059000000000006300000000000630000000000000000000000000000005000000000000010500000000000000669900000000000314402013102100000010000000000000BRBBDCACNPR8603
012013092378BBDCJ2      070BBDC        PN      N1000R$  000000000003200000000000320000000000032000000000003200000000000320000000000000000000000000000001000000000000001500000000000000048000000000000324402013102100000010000000000000BRBBDCACNPR8603
012013092378BBDCJ29     070BBDC        PN      N1000R$  000000000023400000000002510000000000229000000000023400000000002300000000000221000000000000000013000000000000001900000000000000445900000000000287602013102100000010000000000000BRBBDCACNPR8602
012013092378BBDCJ30     070BBDC  FM    PN      N1000R$  000000000017100000000001760000000000151000000000016200000000001600000000000132000000000017500234000000000000222500000000000036232900000000000297602013102100000010000000000000BRBBDCACNPR8602
012013092378BBDCJ31     070BBDC  FM    PN      N1000R$  000000000010200000000001110000000000088000000000010300000000000880000000000088000000000010000618000000000000166900000000000017338300000000000307602013102100000010000000000000BRBBDCACNPR8602
012013092378BBDCJ32     070BBDC  FM    PN      N1000R$  000000000005800000000000600000000000047000000000005100000000000470000000000048000000000006000027000000000000046400000000000002404100000000000317602013102100000010000000000000BRBBDCACNPR8602
012013092378BBDCJ33     070BBDC  FM    PN      N1000R$  000000000002800000000000300000000000024000000000002500000000000240000000000021000000000002400032000000000000084400000000000002133000000000000327602013102100000010000000000000BRBBDCACNPR8602
012013092378BBDCJ34     070BBDC        PN      N1000R$  000000000001200000000000150000000000012000000000001200000000000150000000000000000000000001700006000000000000012300000000000000153600000000000337202013102100000010000000000000BRBBDCACNPR8600
012013092378BBDCJ58     070BBDC        PN      N1000R$  000000000031800000000003180000000000302000000000030800000000003060000000000000000000000000000005000000000000002000000000000000616700000000000279802013102100000010000000000000BRBBDCACNPR8605
012013092378BBDCK30     070BBDC  FM    PN      N1000R$  000000000019600000000002020000000000180000000000019200000000001800000000000000000000000020600116000000000000168900000000000032507800000000000299802013111800000010000000000000BRBBDCACNPR8605
012013092378BBDCK31     070BBDC  FM    PN      N1000R$  000000000013400000000001390000000000124000000000013100000000001240000000000106000000000000000136000000000000130700000000000017140900000000000309802013111800000010000000000000BRBBDCACNPR8605
012013092378BBDCK32     070BBDC  FM    PN      N1000R$  000000000009700000000001010000000000087000000000009800000000000980000000000052000000000000000578000000000000123500000000000012182200000000000317402013111800000010000000000000BRBBDCACNPR8601
012013092378BBDCK33     070BBDC  FM    PN      N1000R$  000000000005600000000000610000000000051000000000005600000000000510000000000021000000000006800108000000000000087100000000000004882900000000000327602013111800000010000000000000BRBBDCACNPR8602
012013092378BBDCK34     070BBDC        PN      N1000R$  000000000003000000000000330000000000030000000000003100000000000330000000000011000000000003800002000000000000004200000000000000132000000000000339602013111800000010000000000000BRBBDCACNPR8604
012013092378BBDCL30     070BBDC        PN      N1000R$  000000000045600000000004560000000000456000000000045600000000004560000000000000000000000000000002000000000000000300000000000000136800000000000269502013121600000010000000000000BRBBDCACNPR8597
012013092378BBDCL32     070BBDC        PN      N1000R$  000000000011700000000001170000000000117000000000011700000000001170000000000000000000000014000001000000000000000400000000000000046800000000000317202013121600000010000000000000BRBBDCACNPR8600
012013092382BBDCV1      080BBDCE       PN      N1000R$  000000000010500000000001120000000000104000000000010600000000001120000000000000000000000000000004000000000000005500000000000000584500000000000314402013102100000010000000000000BRBBDCACNPR8603
012013092382BBDCV25     080BBDCE       PN      N1000R$  000000000000300000000000030000000000003000000000000300000000000030000000000002000000000000000002000000000000025000000000000000075000000000000249402013102100000010000000000000BRBBDCACNPR8603
012013092382BBDCV27     080BBDCE       PN      N1000R$  000000000000500000000000060000000000005000000000000500000000000060000000000006000000000001500002000000000000003300000000000000018000000000000267602013102100000010000000000000BRBBDCACNPR8602
012013092382BBDCV29     080BBDCE FM    PN      N1000R$  000000000002200000000000220000000000019000000000002100000000000200000000000000000000000000000005000000000000003600000000000000076200000000000287602013102100000010000000000000BRBBDCACNPR8602
012013092382BBDCV30     080BBDCE FM    PN      N1000R$  000000000003800000000000440000000000038000000000003900000000000390000000000000000000000011800056000000000000036400000000000001437200000000000297602013102100000010000000000000BRBBDCACNPR8602
012013092382BBDCV31     080BBDCE FM    PN      N1000R$  000000000007000000000000810000000000068000000000007300000000000770000000000065000000000000000025000000000000063400000000000004635000000000000307602013102100000010000000000000BRBBDCACNPR8602
012013092382BBDCV32     080BBDCE       PN      N1000R$  000000000012400000000001250000000000122000000000012400000000001250000000000000000000000000000026000000000000010000000000000001242100000000000317602013102100000010000000000000BRBBDCACNPR8602
012013092382BBDCW27     080BBDCE       PN      N1000R$  000000000001400000000000150000000000013000000000001300000000000140000000000000000000000000000038000000000000115000000000000001545600000000000269402013111800000010000000000000BRBBDCACNPR8603
012013092382BBDCW28     080BBDCE       PN      N1000R$  000000000002800000000000280000000000027000000000002700000000000270000000000011000000000000000002000000000000800000000000000021950000000000000277602013111800000010000000000000BRBBDCACNPR8602
012013092382BBDCW30     080BBDCE FM    PN      N1000R$  000000000007900000000000790000000000074000000000007800000000000740000000000000000000000000000002000000000000802200000000000063362800000000000299802013111800000010000000000000BRBBDCACNPR8605
012013092382BBDCW31     080BBDCE FM    PN      N1000R$  000000000011200000000001130000000000104000000000010600000000001040000000000000000000000000000019000000000000056300000000000005976200000000000309802013111800000010000000000000BRBBDCACNPR8605
012013092382BBDCW32     080BBDCE       PN      N1000R$  000000000014600000000001580000000000144000000000015000000000001540000000000000000000000000000024000000000000008500000000000001276700000000000317402013111800000010000000000000BRBBDCACNPR8601
012013092382BBDCW9      080BBDCE FM    PN      N1000R$  000000000004500000000000450000000000044000000000004400000000000440000000000000000000000000000002000000000000003400000000000000151800000000000289802013111800000010000000000000BRBBDCACNPR8605
012013092312BBFI11B     010FII BB PROGRCI      MB   R$  000000042000100000004279990000000420000000000042059200000004279990000000420000000000042800000007000000000000000027000000000011356000000000000000009999123100000010000000000000BRBBFICTF006198
012013092312BBPO11      010FII BB PRGIICI           R$  000000001105000000000111200000000011050000000001107300000000110530000000011053000000001108000128000000000000012703000000000140661536000000000000009999123100000010000000000000BRBBPOCTF003110
012013092312BBRC11      010FII BB CORP CI           R$  000000000919900000000092500000000009198000000000921300000000092500000000009201000000000925000009000000000000001061000000000009775119000000000000009999123100000010000000000000BRBBRCCTF004124
012013092302BBRK3       010BR BROKERS  ON      NM   R$  000000000057800000000005860000000000570000000000057800000000005800000000000579000000000058001918000000000000390400000000000225759900000000000000009999123100000010000000000000BRBBRKACNOR4108
012013092396BBRK3F      020BR BROKERS  ON      NM   R$  000000000057700000000005800000000000577000000000057900000000005800000000000567000000000061500003000000000000000090000000000000052160000000000000009999123100000010000000000000BRBBRKACNOR4108
012013092302BBSE3       010BBSEGURIDADEON      NM   R$  000000000215100000000021700000000002118000000000213800000000021390000000002138000000000213906239000000000003225900000000006899993800000000000000009999123100000010000000000000BRBBSEACNOR5101
012013092396BBSE3F      020BBSEGURIDADEON      NM   R$  000000000215000000000021550000000002040000000000213600000000021290000000002118000000000212900661000000000000015249000000000032586852000000000000009999123100000010000000000000BRBBSEACNOR5101
012013092362BBSE3T      030BBSEGURIDADEON      NM030R$  000000000216400000000021650000000002145000000000215700000000021460000000000000000000000000000006000000000000006000000000000012947230000000000000009999123100000010000000000000BRBBSEACNOR5101
012013092362BBSE3T      030BBSEGURIDADEON      NM060R$  000000000217900000000021800000000002179000000000217900000000021800000000000000000000000000000002000000000000001000000000000002179885000000000000009999123100000010000000000000BRBBSEACNOR5101
012013092378BBSEK20     070BBSE        ON      NM000R$  000000000006000000000000710000000000060000000000006600000000000630000000000065000000000000000004000000000000004400000000000000292900000000000195902013111800000010000000000000BRBBSEACNOR5100
012013092378BBSEK23     070BBSE        ON      NM000R$  000000000002600000000000270000000000026000000000002600000000000270000000000000000000000000000002000000000000048000000000000001276800000000000230002013111800000010000000000000BRBBSEACNOR5101
012013092382BBSEW20     080BBSEE       ON      NM000R$  000000000001000000000000100000000000010000000000001000000000000100000000000000000000000000000001000000000000048000000000000000480000000000000195902013111800000010000000000000BRBBSEACNOR5100
012013092382BBSEW21     080BBSEE       ON      NM000R$  000000000004400000000000440000000000044000000000004400000000000440000000000000000000000000000001000000000000048000000000000002112000000000000210002013111800000010000000000000BRBBSEACNOR5101
012013092302BBTG11      010BTG PACTUAL UNT          R$  000000000297000000000029710000000002893000000000290700000000028930000000002893000000000290000997000000000000421000000000001224254500000000000000009999123100000010000000000000BRBBTGUNT007105
012013092396BBTG11F     020BTG PACTUAL UNT          R$  000000000291600000000029260000000002910000000000291600000000029120000000002881000000000292000007000000000000000232000000000000676662000000000000009999123100000010000000000000BRBBTGUNT007105
012013092312BBVJ11      010FII C JARDIMCI           R$  000000000780000000000078000000000007750000000000779900000000077990000000007708000000000779900009000000000000000437000000000003408175000000000000009999123100000010000000000000BRBBVJCTF001133
012013092312BCFF11B     010FII BC FFII CI      MB   R$  000000000878000000000088980000000008761000000000881400000000088600000000008802000000000886000097000000000000006029000000000053145128000000000000009999123100000010000000000000BRBCFFCTF000142
012013092302BDLL4       010BARDELLA    PN           R$  000000000545000000000054500000000005450000000000545000000000054500000000005100000000000555000001000000000000003000000000000016350000000000000000009999123100000010000000000000BRBDLLACNPR8149
012013092362BDLL4T      030BARDELLA    PN        091R$  000000000556400000000055650000000005564000000000556400000000055650000000000000000000000000000002000000000000003000000000000016694985000000000000009999123100000010000000000000BRBDLLACNPR8149
012013092302BEEF3       010MINERVA     ON      NM   R$  000000000104500000000010450000000000993000000000100300000000010000000000001000000000000100102836000000000000793200000000000796210500000000000000009999123100000010000000000000BRBEEFACNOR6104
012013092396BEEF3F      020MINERVA     ON      NM   R$  000000000103500000000010960000000000995000000000101800000000009950000000000992000000000103500044000000000000001187000000000001209111000000000000009999123100000010000000000000BRBEEFACNOR6104
012013092362BEEF3T      030MINERVA     ON      NM030R$  000000000101200000000010200000000001011000000000101300000000010160000000000000000000000000000036000000000000010700000000000010841168000000000000009999123100000010000000000000BRBEEFACNOR6104
012013092362BEEF3T      030MINERVA     ON      NM032R$  000000000101300000000010140000000001013000000000101300000000010140000000000000000000000000000002000000000000001500000000000001520921000000000000009999123100000010000000000000BRBEEFACNOR6104
012013092302BEES3       010BANESTES    ON           R$  000000000004800000000000500000000000048000000000004900000000000500000000000048000000000005000006000000000000046100000000000002294800000000000000009999123100000010000000000000BRBEESACNOR9244
012013092396BEES3F      020BANESTES    ON           R$  000000000004700000000000470000000000047000000000004700000000000470000000000048000000000005500001000000000000000040000000000000001880000000000000009999123100000010000000000000BRBEESACNOR9244
012013092302BEES4       010BANESTES    PN           R$  000000000004500000000000450000000000045000000000004500000000000450000000000044000000000004500003000000000000001100000000000000049500000000000000009999123100000010000000000000BRBEESACNPR6169
012013092302BEMA3       010BEMATECH    ON      NM   R$  000000000076200000000007800000000000760000000000077100000000007790000000000768000000000078000225000000000000048800000000000037638300000000000000009999123100000010000000000000BRBEMAACNOR0114
012013092396BEMA3F      020BEMATECH    ON      NM   R$  000000000077500000000007750000000000770000000000077100000000007700000000000765000000000077800002000000000000000060000000000000046300000000000000009999123100000010000000000000BRBEMAACNOR0114
012013092302BGIP4       010BANESE      PN           R$  000000000475100000000047700000000004750000000000475700000000047700000000004751000000000478800003000000000000000300000000000001427100000000000000009999123100000010000000000000BRBGIPACNPR8179
012013092396BGIP4F      020BANESE      PN           R$  000000000490000000000049000000000004900000000000490000000000049000000000004800000000000490000001000000000000000020000000000000098000000000000000009999123100000010000000000000BRBGIPACNPR8179
012013092302BHGR3       010BHG         ON      NM   R$  000000000144800000000014530000000001440000000000144600000000014530000000001443000000000145300062000000000000047600000000000068873600000000000000009999123100000010000000000000BRBHGRACNOR9101
012013092302BICB4       010BICBANCO    PN      N1   R$  000000000047000000000005180000000000455000000000048900000000004900000000000487000000000049000338000000000000451700000000000221287300000000000000009999123100000010000000000000BRBICBACNPR7131
012013092396BICB4F      020BICBANCO    PN      N1   R$  000000000049000000000005000000000000485000000000049300000000004950000000000485000000000051600014000000000000000227000000000000111948000000000000009999123100000010000000000000BRBICBACNPR7131
012013092362BICB4T      030BICBANCO    PN      N1030R$  000000000049800000000004990000000000498000000000049800000000004990000000000000000000000000000002000000000000012000000000000005977560000000000000009999123100000010000000000000BRBICBACNPR7131
012013092362BICB4T      030BICBANCO    PN      N1091R$  000000000050600000000005070000000000506000000000050600000000005070000000000000000000000000000002000000000000010000000000000005069265000000000000009999123100000010000000000000BRBICBACNPR7131
012013092396BIOM3F      020BIOMM       ON           R$  000000000088000000000008800000000000880000000000088000000000008800000000000752000000000090000002000000000000000010000000000000008800000000000000009999123100000010000000000000BRBIOMACNOR2101
012013092302BISA3       010BROOKFIELD  ON      NM   R$  000000000016900000000001700000000000163000000000016500000000001670000000000166000000000016704907000000000010784600000000001788881800000000000000009999123100000010000000000000BRBISAACNOR8109
012013092396BISA3F      020BROOKFIELD  ON      NM   R$  000000000017000000000001700000000000164000000000016600000000001680000000000164000000000016800030000000000000000922000000000000153334000000000000009999123100000010000000000000BRBISAACNOR8109
012013092362BISA3T      030BROOKFIELD  ON      NM030R$  000000000016700000000001690000000000166000000000016700000000001690000000000000000000000000000010000000000000107400000000000017965080000000000000009999123100000010000000000000BRBISAACNOR8109
012013092362BISA3T      030BROOKFIELD  ON      NM091R$  000000000017000000000001710000000000168000000000017000000000001690000000000000000000000000000008000000000000054000000000000009184916000000000000009999123100000010000000000000BRBISAACNOR8109
012013092362BISA3T      030BROOKFIELD  ON      NM120R$  000000000016900000000001700000000000169000000000016900000000001700000000000000000000000000000002000000000000025000000000000004245037000000000000009999123100000010000000000000BRBISAACNOR8109
012013092302BMEB3       010MERC BRASIL ON           R$  000000000169300000000016930000000001693000000000169300000000016930000000001600000000000179400001000000000000000100000000000000169300000000000000009999123100000010000000000000BRBMEBACNOR8190
012013092302BMIN4       010MERC INVEST PN           R$  000000000002300000000000230000000000023000000000002300000000000230000000000024000000000002500001000000000000013000000000000000299000000000000000009999123100000010000000000000BRBMINACNPR1160
012013092302BMKS3       010BIC MONARK  ON           R$  000000003250000000000340000000000032500000000003256400000000340000000000032501000000003400000009000000000000000045000000000001465400000000000000009999123100000010000000000000BRBMKSACNOR9155
012013092312BMLC11B     010FII BMBRC LCCI      MB   R$  000000001142900000000114300000000011400000000001141100000000114300000000011060000000001142500007000000000000000501000000000005717276000000000000009999123100000010000000000000BRBMLCCTF004119
012013092302BMTO4       010BRASMOTOR   PN           R$  000000000008800000000000880000000000085000000000008600000000000880000000000085000000000008800005000000000000008000000000000000688000000000000000009999123100000010000000000000BRBMTOACNPR6065
012013092302BOAC34      010BANK AMERICADRN          R$  000000000314000000000031400000000003140000000000314000000000031400000000003080000000000314000001000000000000023700000000000074418000000000000000009999123100000010000000000000BRBOACBDR004112
012013092302BOBR4       010BOMBRIL     PN           R$  000000000066800000000006680000000000667000000000066700000000006670000000000623000000000066800002000000000000120100000000000080106800000000000000009999123100000010000000000000BRBOBRACNPR3127
012013092362BOBR4T      030BOMBRIL     PN        120R$  000000000068700000000006880000000000687000000000068700000000006880000000000000000000000000000002000000000000120000000000000082481220000000000000009999123100000010000000000000BRBOBRACNPR3127
012013092302BOEI34      010BOEING      DRN          R$  000000002590200000000259600000000025902000000002595800000000259600000000025497000000002625300002000000000000005000000000000129794200000000000000009999123100000010000000000000BRBOEIBDR003106
012013092314BOVA11      010ISHARES BOVACI           R$  000000000531100000000053440000000005275000000000531500000000053410000000005320000000000534100734000000000000582130000000003094489520000000000000009999123100000010000000000000BRBOVACTF003101
012013092396BOVA11F     020ISHARES BOVACI           R$  000000000530600000000053060000000005306000000000530600000000053060000000005335000000000534300002000000000000000003000000000000015918000000000000009999123100000010000000000000BRBOVACTF003101
012013092312BPFF11      010FII ABSOLUTOCI           R$  000000000834900000000083750000000008300000000000833200000000083400000000008280000000000832000014000000000000002211000000000018422400000000000000009999123100000010000000000000BRBPFFCTF002105
012013092302BPHA3       010BR PHARMA   ON      NM   R$  000000000080200000000008210000000000800000000000081000000000008110000000000805000000000081101269000000000000224300000000000181743000000000000000009999123100000010000000000000BRBPHAACNOR6102
012013092396BPHA3F      020BR PHARMA   ON      NM   R$  000000000081500000000008300000000000810000000000081100000000008300000000000830000000000084300003000000000000000015000000000000012175000000000000009999123100000010000000000000BRBPHAACNOR6102
012013092362BPHA3T      030BR PHARMA   ON      NM030R$  000000000081700000000008180000000000817000000000081700000000008180000000000000000000000000000002000000000000001300000000000001062945000000000000009999123100000010000000000000BRBPHAACNOR6102
012013092302BPNM4       010PANAMERICANOPN      N1   R$  000000000052700000000005270000000000518000000000052200000000005180000000000518000000000052000222000000000000212700000000000111097900000000000000009999123100000010000000000000BRBPNMACNPR6111
012013092396BPNM4F      020PANAMERICANOPN      N1   R$  000000000050900000000005270000000000509000000000051000000000005270000000000513000000000052600004000000000000000052000000000000026570000000000000009999123100000010000000000000BRBPNMACNPR6111
012013092362BPNM4T      030PANAMERICANOPN      N1091R$  000000000053400000000005350000000000534000000000053400000000005350000000000000000000000000000002000000000000100000000000000053434910000000000000009999123100000010000000000000BRBPNMACNPR6111
012013092302BRAP3       010BRADESPAR   ON      N1   R$  000000000206100000000021000000000002058000000000207100000000020970000000002074000000000209700043000000000000011800000000000024448300000000000000009999123100000010000000000000BRBRAPACNOR5124
012013092396BRAP3F      020BRADESPAR   ON      N1   R$  000000000219900000000021990000000002050000000000210500000000020900000000002050000000000219900006000000000000000149000000000000313791000000000000009999123100000010000000000000BRBRAPACNOR5124
012013092302BRAP4       010BRADESPAR   PN      N1   R$  000000000252400000000025770000000002524000000000256100000000025700000000002564000000000257204739000000000001327100000000003400003400000000000000009999123100000010000000000000BRBRAPACNPR2124
012013092396BRAP4F      020BRADESPAR   PN      N1   R$  000000000255500000000025840000000002546000000000256400000000025460000000002546000000000258500077000000000000002308000000000005919341000000000000009999123100000010000000000000BRBRAPACNPR2124
012013092378BRAPK29     070BRAP        PN      N1000R$  000000000002000000000000200000000000020000000000002000000000000200000000000000000000000000000001000000000000000100000000000000002000000000000290002013111800000010000000000000BRBRAPACNPR2124
012013092312BRCR11      010FII BC FUND CI           R$  000000001295000000000129800000000012803000000001284300000000128030000000012803000000001280500368000000000000028373000000000364411813000000000000009999123100000010000000000000BRBRCRCTF000133
012013092302BRFS3       010BRF SA      ON      NM   R$  000000000565800000000057190000000005592000000000563500000000056370000000005636000000000563705469000000000001329500000000007492098100000000000000009999123100000010000000000000BRBRFSACNOR8110
012013092396BRFS3F      020BRF SA      ON      NM   R$  000000000570000000000057000000000005597000000000563900000000056390000000005600000000000563900097000000000000002787000000000015717293000000000000009999123100000010000000000000BRBRFSACNOR8110
012013092362BRFS3T      030BRF SA      ON      NM016R$  000000000568100000000056820000000005681000000000568100000000056820000000000000000000000000000002000000000000000400000000000002272430000000000000009999123100000010000000000000BRBRFSACNOR8110
012013092362BRFS3T      030BRF SA      ON      NM030R$  000000000574600000000057470000000005746000000000574600000000057470000000000000000000000000000004000000000000000200000000000001149356000000000000009999123100000010000000000000BRBRFSACNOR8110
012013092362BRFS3T      030BRF SA      ON      NM060R$  000000000567800000000056790000000005678000000000567800000000056790000000000000000000000000000002000000000000001000000000000005678400000000000000009999123100000010000000000000BRBRFSACNOR8110
012013092378BRFSJ7      070BRFSE       ON      NM000R$  000000000012100000000001210000000000121000000000012100000000001210000000000000000000000000000001000000000000007000000000000000847000000000000575002013102100000010000000000000BRBRFSACNOR8110
012013092382BRFSV55     080BRFSE       ON      NM000R$  000000000009000000000000900000000000090000000000009000000000000900000000000000000000000000000003000000000000005000000000000000450000000000000550002013102100000010000000000000BRBRFSACNOR8110
012013092302BRGE3       010ALFA CONSORCON           R$  000000000036600000000003660000000000366000000000036600000000003660000000000366000000000050000002000000000000001200000000000000439200000000000000009999123100000010000000000000BRBRGEACNOR6197
012013092302BRIN3       010BR INSURANCEON      NM   R$  000000000207400000000020740000000001996000000000202100000000020250000000002025000000000202901288000000000000296500000000000599367200000000000000009999123100000010000000000000BRBRINACNOR3106
012013092396BRIN3F      020BR INSURANCEON      NM   R$  000000000206900000000020690000000001990000000000203500000000019900000000001990000000000201400042000000000000000910000000000001852636000000000000009999123100000010000000000000BRBRINACNOR3106
012013092302BRIV4       010ALFA INVEST PN           R$  000000000056500000000006020000000000564000000000057700000000006020000000000565000000000060200006000000000000002100000000000001211700000000000000009999123100000010000000000000BRBRIVACNPR3197
012013092396BRIV4F      020ALFA INVEST PN           R$  000000000053800000000005380000000000538000000000053800000000005380000000000538000000000060400001000000000000000026000000000000013988000000000000009999123100000010000000000000BRBRIVACNPR3197
012013092302BRKM3       010BRASKEM     ON      N1   R$  000000000123900000000012390000000001205000000000120900000000012050000000001201000000000124000005000000000000001300000000000001572400000000000000009999123100000010000000000000BRBRKMACNOR1110
012013092396BRKM3F      020BRASKEM     ON      N1   R$  000000000120000000000012000000000001200000000000120000000000012000000000001179000000000126300002000000000000000015000000000000018000000000000000009999123100000010000000000000BRBRKMACNOR1110
012013092302BRKM5       010BRASKEM     PNA     N1   R$  000000000178500000000017900000000001771000000000177700000000017900000000001779000000000179005250000000000001305000000000002320247800000000000000009999123100000010000000000000BRBRKMACNPA4110
012013092396BRKM5F      020BRASKEM     PNA     N1   R$  000000000179400000000017940000000001761000000000177800000000017900000000001785000000000179000023000000000000000709000000000001261533000000000000009999123100000010000000000000BRBRKMACNPA4110
012013092362BRKM5T      030BRASKEM     PNA     N1030R$  000000000179600000000017970000000001796000000000179600000000017970000000000000000000000000000002000000000000002000000000000003592868000000000000009999123100000010000000000000BRBRKMACNPA4110
012013092302BRML3       010BR MALLS PARON      NM   R$  000000000211200000000021470000000002100000000000212100000000021220000000002122000000000212306540000000000002080200000000004413928800000000000000009999123100000010000000000000BRBRMLACNOR9105
012013092396BRML3F      020BR MALLS PARON      NM   R$  000000000213200000000021400000000002102000000000212400000000021390000000002109000000000214500031000000000000001232000000000002617832000000000000009999123100000010000000000000BRBRMLACNOR9105
012013092362BRML3T      030BR MALLS PARON      NM030R$  000000000212700000000021280000000002120000000000212300000000021210000000000000000000000000000006000000000000000900000000000001911425000000000000009999123100000010000000000000BRBRMLACNOR9105
012013092378BRMLJ22     070BRML        ON      NM000R$  000000000001900000000000190000000000019000000000001900000000000190000000000017000000000011000002000000000000002000000000000000038000000000000220002013102100000010000000000000BRBRMLACNOR9105
012013092302BRPR3       010BR PROPERT  ON      NM   R$  000000000200000000000020070000000001955000000000197900000000020020000000001995000000000200205161000000000001167200000000002310122900000000000000009999123100000010000000000000BRBRPRACNOR9112
012013092396BRPR3F      020BR PROPERT  ON      NM   R$  000000000199000000000020090000000001928000000000197600000000020090000000001960000000000200900021000000000000000746000000000001476703000000000000009999123100000010000000000000BRBRPRACNOR9112
012013092362BRPR3T      030BR PROPERT  ON      NM120R$  000000000201000000000020110000000002010000000000201000000000020110000000000000000000000000000002000000000000002000000000000004021145000000000000009999123100000010000000000000BRBRPRACNOR9112
012013092302BRSR3       010BANRISUL    ON      N1   R$  000000000135800000000013580000000001358000000000135800000000013580000000001350000000000141300001000000000000000100000000000000135800000000000000009999123100000010000000000000BRBRSRACNOR3131
012013092302BRSR5       010BANRISUL    PNA     N1   R$  000000000157200000000015720000000001572000000000157200000000015720000000001570000000000159000004000000000000001200000000000001886400000000000000009999123100000010000000000000BRBRSRACNPA6135
012013092302BRSR6       010BANRISUL    PNB     N1   R$  000000000158000000000016040000000001571000000000159100000000015900000000001580000000000159002901000000000001093300000000001739939100000000000000009999123100000010000000000000BRBRSRACNPB4134
012013092396BRSR6F      020BANRISUL    PNB     N1   R$  000000000157900000000016090000000001571000000000158900000000016090000000001580000000000161000023000000000000000652000000000001036274000000000000009999123100000010000000000000BRBRSRACNPB4134
012013092302BSEV3       010BIOSEV      ON      NM   R$  000000000077000000000007860000000000765000000000077300000000007650000000000765000000000079000018000000000000008800000000000006805000000000000000009999123100000010000000000000BRBSEVACNOR3100
012013092396BSEV3F      020BIOSEV      ON      NM   R$  000000000078500000000007890000000000785000000000078700000000007890000000000712000000000078900002000000000000000134000000000000105458000000000000009999123100000010000000000000BRBSEVACNOR3100
012013092302BTOW3       010B2W DIGITAL ON      NM   R$  000000000152700000000015540000000001500000000000152500000000015120000000001512000000000151501436000000000000391700000000000597474200000000000000009999123100000010000000000000BRBTOWACNOR8105
012013092396BTOW3F      020B2W DIGITAL ON      NM   R$  000000000153500000000015790000000001510000000000152800000000015790000000001515000000000157900020000000000000000673000000000001030661000000000000009999123100000010000000000000BRBTOWACNOR8105
012013092302BTTL4       010BATTISTELLA PN           R$  000000000010400000000001040000000000104000000000010400000000001040000000000099000000000010400002000000000000000800000000000000083200000000000000009999123100000010000000000000BRBTTLACNPR7105
012013092302BVMF3       010BMFBOVESPA  ON      NM   R$  000000000126600000000012810000000001250000000000126500000000012800000000001280000000000128117515000000000010554300000000013354722600000000000000009999123100000010000000000000BRBVMFACNOR3126
012013092396BVMF3F      020BMFBOVESPA  ON      NM   R$  000000000129000000000012900000000001251000000000126400000000012740000000001265000000000127400080000000000000002429000000000003075842000000000000009999123100000010000000000000BRBVMFACNOR3126
012013092362BVMF3T      030BMFBOVESPA  ON      NM030R$  000000000128200000000012830000000001282000000000128200000000012830000000000000000000000000000002000000000000002000000000000002565137000000000000009999123100000010000000000000BRBVMFACNOR3126
012013092362BVMF3T      030BMFBOVESPA  ON      NM120R$  000000000128500000000012860000000001285000000000128500000000012860000000000000000000000000000002000000000000009000000000000011570874000000000000009999123100000010000000000000BRBVMFACNOR3126
012013092378BVMFJ11     070BVMF        ON      NM000R$  000000000019000000000001910000000000184000000000018600000000001910000000000000000000000000000005000000000000009300000000000001734000000000000108502013102100000010000000000000BRBVMFACNOR3125
012013092378BVMFJ12     070BVMF        ON      NM000R$  000000000010500000000001060000000000087000000000009800000000001010000000000100000000000011000073000000000000131000000000000012884200000000000118502013102100000010000000000000BRBVMFACNOR3125
012013092378BVMFJ13     070BVMF  FM    ON      NM000R$  000000000003800000000000380000000000027000000000003200000000000360000000000031000000000003600360000000000000759800000000000024899400000000000128502013102100000010000000000000BRBVMFACNOR3125
012013092378BVMFJ14     070BVMF  FM    ON      NM000R$  000000000001000000000000100000000000007000000000000700000000000080000000000007000000000000900145000000000000578300000000000004608900000000000138502013102100000010000000000000BRBVMFACNOR3125
012013092378BVMFJ15     070BVMF        ON      NM000R$  000000000000200000000000020000000000002000000000000200000000000020000000000001000000000000200011000000000000083000000000000000166000000000000148502013102100000010000000000000BRBVMFACNOR3125
012013092378BVMFJ42     070BVMF  FM    ON      NM000R$  000000000006900000000000690000000000053000000000006200000000000640000000000000000000000123500040000000000000099300000000000006166300000000000123502013102100000010000000000000BRBVMFACNOR3125
012013092378BVMFJ43     070BVMF  FM    ON      NM000R$  000000000001800000000000180000000000015000000000001600000000000170000000000000000000000002200040000000000000153600000000000002496300000000000133502013102100000010000000000000BRBVMFACNOR3125
012013092378BVMFJ44     070BVMF  FM    ON      NM000R$  000000000000300000000000040000000000002000000000000200000000000040000000000001000000000000000018000000000000048000000000000000112700000000000145002013102100000010000000000000BRBVMFACNOR3126
012013092378BVMFK11     070BVMF        ON      NM000R$  000000000019000000000001900000000000190000000000019000000000001900000000000000000000000000000002000000000000003000000000000000570000000000000108502013111800000010000000000000BRBVMFACNOR3125
012013092378BVMFK12     070BVMF        ON      NM000R$  000000000011300000000001130000000000113000000000011300000000001130000000000118000000000000000001000000000000001500000000000000169500000000000118502013111800000010000000000000BRBVMFACNOR3125
012013092378BVMFK13     070BVMF  FM    ON      NM000R$  000000000004400000000000530000000000044000000000005100000000000520000000000000000000000005900008000000000000004500000000000000229800000000000128502013111800000010000000000000BRBVMFACNOR3125
012013092378BVMFK14     070BVMF  FM    ON      NM000R$  000000000001300000000000170000000000012000000000001300000000000170000000000017000000000003000060000000000000161200000000000002242100000000000138502013111800000010000000000000BRBVMFACNOR3125
012013092378BVMFK42     070BVMF  FM    ON      NM000R$  000000000007400000000000740000000000073000000000007300000000000730000000000000000000000000000003000000000000003800000000000000278200000000000125002013111800000010000000000000BRBVMFACNOR3126
012013092378BVMFK43     070BVMF  FM    ON      NM000R$  000000000002600000000000260000000000021000000000002300000000000210000000000000000000000000000008000000000000027400000000000000649900000000000135002013111800000010000000000000BRBVMFACNOR3126
012013092378BVMFK44     070BVMF  FM    ON      NM000R$  000000000000600000000000060000000000005000000000000500000000000060000000000000000000000000000025000000000000066000000000000000383900000000000145002013111800000010000000000000BRBVMFACNOR3126
012013092378BVMFL12     070BVMF        ON      NM000R$  000000000015600000000001560000000000156000000000015600000000001560000000000000000000000000000001000000000000000500000000000000078000000000000115402013121600000010000000000000BRBVMFACNOR3123
012013092382BVMFM12     080BVMFE       ON      NM000R$  000000000005000000000000500000000000050000000000005000000000000500000000000000000000000000000002000000000000010000000000000000500000000000000120002014012000000010000000000000BRBVMFACNOR3126
012013092382BVMFM13     080BVMFE       ON      NM000R$  000000000007000000000000700000000000070000000000007000000000000700000000000000000000000000000001000000000000000100000000000000007000000000000130002014012000000010000000000000BRBVMFACNOR3126
012013092382BVMFV12     080BVMFE FM    ON      NM000R$  000000000001100000000000160000000000011000000000001200000000000110000000000011000000000001400019000000000000038900000000000000493400000000000118502013102100000010000000000000BRBVMFACNOR3125
012013092382BVMFV13     080BVMFE FM    ON      NM000R$  000000000004300000000000570000000000043000000000004700000000000440000000000028000000000005900097000000000000138000000000000006598800000000000128502013102100000010000000000000BRBVMFACNOR3125
012013092382BVMFV41     080BVMFE       ON      NM000R$  000000000000600000000000060000000000006000000000000600000000000060000000000000000000000001000003000000000000005000000000000000030000000000000113502013102100000010000000000000BRBVMFACNOR3125
012013092382BVMFV42     080BVMFE FM    ON      NM000R$  000000000002700000000000310000000000023000000000002500000000000300000000000019000000000003100036000000000000064200000000000001622600000000000123502013102100000010000000000000BRBVMFACNOR3125
012013092382BVMFV43     080BVMFE FM    ON      NM000R$  000000000007500000000000860000000000074000000000007800000000000750000000000000000000000000000030000000000000069000000000000005442200000000000133502013102100000010000000000000BRBVMFACNOR3125
012013092382BVMFW12     080BVMFE FM    ON      NM000R$  000000000002200000000000260000000000022000000000002200000000000260000000000000000000000000000002000000000000001900000000000000042200000000000118502013111800000010000000000000BRBVMFACNOR3125
012013092382BVMFW42     080BVMFE FM    ON      NM000R$  000000000004500000000000450000000000045000000000004500000000000450000000000000000000000000000001000000000000000100000000000000004500000000000125002013111800000010000000000000BRBVMFACNOR3126
012013092382BVMFW43     080BVMFE FM    ON      NM000R$  000000000008800000000001000000000000088000000000009200000000001000000000000000000000000000000010000000000000026300000000000002432700000000000135002013111800000010000000000000BRBVMFACNOR3126
012013092396CALI4F      020CONST A LINDPN           R$  000000002000000000000200000000000020000000000002000000000000200000000000015100000000002500000003000000000000000003000000000000060000000000000000009999123100000010000000000000BRCALIACNPR8131
012013092302CAMB4       010CAMBUCI     PN           R$  000000000017900000000001960000000000179000000000018700000000001880000000000187000000000019600004000000000000010600000000000001992700000000000000009999123100000010000000000000BRCAMBACNPR1117
012013092396CAMB4F      020CAMBUCI     PN           R$  000000000017600000000001760000000000176000000000017600000000001760000000000175000000000025000001000000000000000001000000000000000176000000000000009999123100000010000000000000BRCAMBACNPR1117
012013092302CARD3       010CSU CARDSYSTON      NM   R$  000000000032000000000003200000000000317000000000031700000000003170000000000306000000000031800003000000000000004900000000000001554200000000000000009999123100000010000000000000BRCARDACNOR9105
012013092302CBEE3       010AMPLA ENERG ON *         R$  000000000013000000000001300000000000129000000000012900000000001290000000000126000000000013000003000000000001100000000000000000142700000000000000009999123100010000000000000000BRCBEEACNOR3149
012013092396CBMA3F      020COBRASMA    ON           R$  000000000000500000000000050000000000005000000000000500000000000050000000000004000000000000500001000000000000000001000000000000000005000000000000009999123100000010000000000000BRCBMAACNOR4124
012013092396CBMA4F      020COBRASMA    PN           R$  000000000000400000000000040000000000004000000000000400000000000040000000000003000000000000400001000000000000000001000000000000000004000000000000009999123100000010000000000000BRCBMAACNPR1124
012013092308CCHI3       010CHIARELLI   ON           R$  000000000001600000000000170000000000016000000000001600000000000160000000000016000000000001700016000000000000280000000000000004510000000000000000009999123100000010000000000000BRCCHIACNOR5123
012013092396CCHI3F      020CHIARELLI   ON           R$  000000000001500000000000170000000000015000000000001600000000000170000000000016000000000001800007000000000000019456000000000000321840000000000000009999123100000010000000000000BRCCHIACNOR5123
012013092308CCHI4       010CHIARELLI   PN           R$  000000000001100000000000110000000000011000000000001100000000000110000000000011000000000001300004000000000000040000000000000000440000000000000000009999123100000010000000000000BRCCHIACNPR2122
012013092302CCPR3       010CYRE COM-CCPON      NM   R$  000000000208600000000021190000000002061000000000208300000000020610000000002061000000000211800014000000000000020800000000000043337000000000000000009999123100000010000000000000BRCCPRACNOR9107
012013092302CCRO3       010CCR SA      ON      NM   R$  000000000183600000000018640000000001804000000000182800000000018260000000001826000000000183709807000000000003914400000000007158534700000000000000009999123100000010000000000000BRCCROACNOR2122
012013092396CCRO3F      020CCR SA      ON      NM   R$  000000000181000000000018900000000001804000000000182800000000018520000000001840000000000188000078000000000000002085000000000003812554000000000000009999123100000010000000000000BRCCROACNOR2122
012013092362CCRO3T      030CCR SA      ON      NM030R$  000000000183200000000018330000000001832000000000183200000000018330000000000000000000000000000002000000000000004500000000000008246073000000000000009999123100000010000000000000BRCCROACNOR2122
012013092378CCROJ19     070CCRO        ON      NM000R$  000000000001500000000000150000000000015000000000001500000000000150000000000000000000000003000001000000000000016400000000000000246000000000000190002013102100000010000000000000BRCCROACNOR2122
012013092302CCXC3       010CCX CARVAO  ON      NM   R$  000000000015200000000001520000000000134000000000014000000000001340000000000134000000000013501408000000000007132700000000001004451900000000000000009999123100000010000000000000BRCCXCACNOR5100
012013092396CCXC3F      020CCX CARVAO  ON      NM   R$  000000000015700000000001570000000000134000000000014400000000001350000000000135000000000014800021000000000000000630000000000000091190000000000000009999123100000010000000000000BRCCXCACNOR5100
012013092308CELP3       010CELPA       ON           R$  000000000007200000000000820000000000072000000000007200000000000820000000000072000000000008300013000000000000027700000000000002017800000000000000009999123100000010000000000000BRCELPACNOR8112
012013092312CEOC11B     010FII CEO CCP CI      MB   R$  000000000875900000000087590000000008571000000000862900000000086400000000008569000000000864000027000000000000001761000000000015197245000000000000009999123100000010000000000000BRCEOCCTF003110
012013092302CESP3       010CESP        ON      N1   R$  000000000176000000000017600000000001760000000000176000000000017600000000001721000000000176000001000000000000000200000000000000352000000000000000009999123100000010000000000000BRCESPACNOR3160
012013092302CESP5       010CESP        PNA     N1   R$  000000000237000000000023700000000002370000000000237000000000023700000000002208000000000239000001000000000000000100000000000000237000000000000000009999123100000010000000000000BRCESPACNPA6108
012013092302CESP6       010CESP        PNB     N1   R$  000000000234700000000023800000000002346000000000236900000000023790000000002366000000000237901896000000000000383300000000000908090300000000000000009999123100000010000000000000BRCESPACNPB4119
012013092396CESP6F      020CESP        PNB     N1   R$  000000000239800000000023980000000002352000000000237700000000023970000000002352000000000239000012000000000000000606000000000001441255000000000000009999123100000010000000000000BRCESPACNPB4119
012013092302CGAS3       010COMGAS      ON           R$  000000000546900000000054690000000005380000000000540600000000054000000000004911000000000547800005000000000000000500000000000002703000000000000000009999123100000010000000000000BRCGASACNOR0132
012013092302CGAS5       010COMGAS      PNA          R$  000000000585400000000059150000000005800000000000582500000000058740000000005870000000000589500090000000000000099000000000000576728200000000000000009999123100000010000000000000BRCGASACNPA3129
012013092396CGAS5F      020COMGAS      PNA          R$  000000000585200000000059100000000005852000000000589800000000059100000000005900000000000609900002000000000000000025000000000000147460000000000000009999123100000010000000000000BRCGASACNPA3129
012013092362CGAS5T      030COMGAS      PNA       060R$  000000000590700000000059080000000005907000000000590700000000059080000000000000000000000000000004000000000000086000000000000508003324000000000000009999123100000010000000000000BRCGASACNPA3129
012013092302CGRA3       010GRAZZIOTIN  ON           R$  000000000162500000000016250000000001625000000000162500000000016250000000001621000000000162500001000000000000000100000000000000162500000000000000009999123100000010000000000000BRCGRAACNOR2061
012013092302CGRA4       010GRAZZIOTIN  PN           R$  000000000178800000000017880000000001785000000000178600000000017850000000001750000000000178800005000000000000000700000000000001250400000000000000009999123100000010000000000000BRCGRAACNPR9061
012013092396CGRA4F      020GRAZZIOTIN  PN           R$  000000000180000000000018000000000001800000000000180000000000018000000000001765000000000180000002000000000000000002000000000000003600000000000000009999123100000010000000000000BRCGRAACNPR9061
012013092302CHVX34      010CHEVRON     DRN          R$  000000002769400000000277090000000027694000000002770800000000277090000000027359000000002845300002000000000000001700000000000047103800000000000000009999123100000010000000000000BRCHVXBDR008109
012013092302CIEL3       010CIELO       ON  EDJ NM   R$  000000000571100000000058600000000005711000000000581000000000058220000000005819000000000582205992000000000001418300000000008241170500000000000000009999123100000010000000000000BRCIELACNOR3112
012013092396CIEL3F      020CIELO       ON  EDJ NM   R$  000000000572900000000058500000000005729000000000580000000000058200000000005800000000000582000083000000000000002649000000000015367471000000000000009999123100000010000000000000BRCIELACNOR3112
012013092362CIEL3T      030CIELO       ON  EDJ NM030R$  000000000577200000000057730000000005772000000000577200000000057730000000000000000000000000000004000000000000000200000000000001154594000000000000009999123100000010000000000000BRCIELACNOR3112
012013092378CIELK58     070CIEL    /EDJON      NM000R$  000000000022200000000002220000000000222000000000022200000000002220000000000000000000000000000001000000000000048000000000000010656000000000000580002013111800000010000000000000BRCIELACNOR3112
012013092378CIELK62     070CIEL    /EDJON      NM000R$  000000000004500000000000450000000000035000000000003700000000000350000000000000000000000000000002000000000000286000000000000010620000000000000620002013111800000010000000000000BRCIELACNOR3112
012013092382CIELW53     080CIELE   /EDJON      NM000R$  000000000002300000000000230000000000011000000000002000000000000230000000000000000000000000000004000000000000286000000000000005867000000000000530002013111800000010000000000000BRCIELACNOR3112
012013092382CIELW6      080CIELE   /EDJON      NM000R$  000000000007700000000000850000000000077000000000008300000000000850000000000000000000000000000003000000000000286000000000000023822000000000000560002013111800000010000000000000BRCIELACNOR3112
012013092302CLSC4       010CELESC      PN      N2   R$  000000000176500000000018300000000001763000000000178100000000018000000000001780000000000180000027000000000000004200000000000007481400000000000000009999123100000010000000000000BRCLSCACNPR3107
012013092396CLSC4F      020CELESC      PN      N2   R$  000000000176500000000017650000000001765000000000176500000000017650000000001750000000000186400002000000000000000050000000000000088250000000000000009999123100000010000000000000BRCLSCACNPR3107
012013092302CMCS34      010COMCAST     DRN          R$  000000000972700000000097270000000009727000000000972700000000097270000000009585000000000976000001000000000000006800000000000066143600000000000000009999123100000010000000000000BRCMCSBDR008106
012013092358CMGR3       010CEMAT       ON           R$  000000000044600000000004610000000000446000000000045100000000004610000000000460000000000050000004000000000000000600000000000000270600000000000000009999123100000010000000000000BRCMGRACNOR7114
012013092302CMIG3       010CEMIG       ON      N1   R$  000000000187000000000018770000000001855000000000186900000000018750000000001872000000000187500134000000000000028600000000000053475200000000000000009999123100000010000000000000BRCMIGACNOR6208
012013092396CMIG3F      020CEMIG       ON      N1   R$  000000000191400000000019140000000001856000000000187100000000018580000000001858000000000187500024000000000000000671000000000001255836000000000000009999123100000010000000000000BRCMIGACNOR6208
012013092302CMIG4       010CEMIG       PN      N1   R$  000000000186000000000018860000000001855000000000187900000000018830000000001883000000000188408534000000000003880600000000007293351700000000000000009999123100000010000000000000BRCMIGACNPR3208
012013092396CMIG4F      020CEMIG       PN      N1   R$  000000000185400000000018890000000001854000000000187700000000018890000000001879000000000188900115000000000000003158000000000005929096000000000000009999123100000010000000000000BRCMIGACNPR3208
012013092362CMIG4T      030CEMIG       PN      N1028R$  000000000188800000000018890000000001888000000000188800000000018890000000000000000000000000000002000000000000010000000000000018886875000000000000009999123100000010000000000000BRCMIGACNPR3208
012013092362CMIG4T      030CEMIG       PN      N1030R$  000000000189700000000018980000000001892000000000189400000000018950000000000000000000000000000012000000000000003550000000000006726203000000000000009999123100000010000000000000BRCMIGACNPR3208
012013092378CMIGJ19     070CMIG        PN      N1000R$  000000000004100000000000450000000000041000000000004400000000000450000000000045000000000000000006000000000000001200000000000000053200000000000190002013102100000010000000000000BRCMIGACNPR3208
012013092378CMIGJ20     070CMIG        PN      N1000R$  000000000001200000000000120000000000012000000000001200000000000120000000000007000000000001500001000000000000120000000000000001440000000000000200002013102100000010000000000000BRCMIGACNPR3208
012013092312CNES11B     010FII CENESP  CI  ER  MB   R$  000000001220000000000123200000000012100000000001213900000000121000000000012051000000001232000012000000000000000380000000000004613020000000000000009999123100000010000000000000BRCNESCTF001126
012013092302COCA34      010COCA COLA   DRN ED       R$  000000000853600000000085360000000008536000000000853600000000085360000000008419000000000875500001000000000000003200000000000027315200000000000000009999123100000010000000000000BRCOCABDR002109
012013092302COCE3       010COELCE      ON           R$  000000000398600000000041650000000003986000000000406700000000041600000000003901000000000418000007000000000000001100000000000004474500000000000000009999123100000010000000000000BRCOCEACNOR0132
012013092302COCE5       010COELCE      PNA          R$  000000000380500000000039180000000003804000000000388100000000039170000000003901000000000391700331000000000000055800000000000216582400000000000000009999123100000010000000000000BRCOCEACNPA3133
012013092396COCE5F      020COELCE      PNA          R$  000000000388000000000039200000000003866000000000388100000000039000000000003918000000000419800063000000000000001641000000000006369349000000000000009999123100000010000000000000BRCOCEACNPA3133
012013092302CPFE3       010CPFL ENERGIAON      NM   R$  000000000192500000000019390000000001911000000000193000000000019370000000001933000000000193703295000000000000703000000000001356918300000000000000009999123100000010000000000000BRCPFEACNOR0122
012013092396CPFE3F      020CPFL ENERGIAON      NM   R$  000000000190100000000019490000000001901000000000193000000000019100000000001910000000000195000022000000000000000762000000000001471244000000000000009999123100000010000000000000BRCPFEACNOR0122
012013092302CPLE3       010COPEL       ON      N1   R$  000000000214000000000021930000000002126000000000217300000000021840000000002170000000000218400101000000000000034000000000000073889000000000000000009999123100000010000000000000BRCPLEACNOR8128
012013092396CPLE3F      020COPEL       ON      N1   R$  000000000223000000000022310000000002230000000000223000000000022310000000002230000000000234800002000000000000000108000000000000240923000000000000009999123100000010000000000000BRCPLEACNOR8128
012013092302CPLE6       010COPEL       PNB     N1   R$  000000000295300000000030700000000002953000000000303300000000030700000000003061000000000307002912000000000000521600000000001582182800000000000000009999123100000010000000000000BRCPLEACNPB9125
012013092396CPLE6F      020COPEL       PNB     N1   R$  000000000315200000000031520000000002990000000000307100000000031520000000003010000000000315200033000000000000000824000000000002530701000000000000009999123100000010000000000000BRCPLEACNPB9125
012013092302CPRE3       010CPFL RENOVAVON      NM   R$  000000000127000000000012800000000001242000000000127200000000012780000000001150000000000127800041000000000000012600000000000016038000000000000000009999123100000010000000000000BRCPREACNOR5100
012013092396CPRE3F      020CPFL RENOVAVON      NM   R$  000000000127500000000012780000000001210000000000126800000000012780000000001211000000000127800033000000000000000903000000000001145851000000000000009999123100000010000000000000BRCPREACNOR5100
012013092302CRDE3       010CR2         ON      NM   R$  000000000040900000000004200000000000409000000000041400000000004200000000000412000000000042000002000000000000000200000000000000082900000000000000009999123100000010000000000000BRCRDEACNOR1108
012013092302CREM3       010CREMER      ON      NM   R$  000000000148200000000015960000000001480000000000149800000000015500000000001501000000000155000075000000000000052500000000000078661300000000000000009999123100000010000000000000BRCREMACNOR2167
012013092396CREM3F      020CREMER      ON      NM   R$  000000000147000000000015900000000001470000000000148000000000015900000000001441000000000159000005000000000000000159000000000000235460000000000000009999123100000010000000000000BRCREMACNOR2167
012013092362CREM3T      030CREMER      ON      NM060R$  000000000151600000000015180000000001516000000000151700000000015180000000000000000000000000000004000000000000006000000000000009102264000000000000009999123100000010000000000000BRCREMACNOR2167
012013092302CRIV3       010ALFA FINANC ON           R$  000000000047500000000005180000000000473000000000049800000000005140000000000482000000000051400022000000000000012400000000000006187400000000000000009999123100000010000000000000BRCRIVACNOR4190
012013092302CRIV4       010ALFA FINANC PN           R$  000000000043800000000004480000000000435000000000043500000000004400000000000438000000000044000016000000000000018300000000000007977300000000000000009999123100000010000000000000BRCRIVACNPR1190
012013092302CRUZ3       010SOUZA CRUZ  ON  ED       R$  000000000266100000000027010000000002605000000000263400000000026280000000002628000000000263105579000000000001465400000000003861090100000000000000009999123100000010000000000000BRCRUZACNOR0247
012013092396CRUZ3F      020SOUZA CRUZ  ON  ED       R$  000000000264000000000026990000000002601000000000264000000000026210000000002621000000000270700058000000000000001437000000000003793647000000000000009999123100000010000000000000BRCRUZACNOR0247
012013092362CRUZ3T      030SOUZA CRUZ  ON  ED    016R$  000000000264400000000026480000000002644000000000264700000000026480000000000000000000000000000004000000000000010700000000000028325047000000000000009999123100000010000000000000BRCRUZACNOR0247
012013092362CRUZ3T      030SOUZA CRUZ  ON  ED    030R$  000000000266300000000026640000000002663000000000266300000000026640000000000000000000000000000004000000000000006600000000000017579375000000000000009999123100000010000000000000BRCRUZACNOR0247
012013092378CRUZJ28     070CRUZ    /EDRON        000R$  000000000005100000000000510000000000051000000000005100000000000510000000000000000000000007600001000000000000000200000000000000010200000000000275302013102100000010000000000000BRCRUZACNOR0246
012013092302CSAN3       010COSAN       ON      NM   R$  000000000420000000000042630000000004182000000000421700000000042070000000004207000000000422502594000000000000746700000000003149087300000000000000009999123100000010000000000000BRCSANACNOR6108
012013092396CSAN3F      020COSAN       ON      NM   R$  000000000431900000000043380000000004122000000000427300000000043380000000004230000000000433800056000000000000001515000000000006474085000000000000009999123100000010000000000000BRCSANACNOR6108
012013092362CSAN3T      030COSAN       ON      NM091R$  000000000430400000000043050000000004299000000000430100000000043000000000000000000000000000000028000000000000200000000000000860360941000000000000009999123100000010000000000000BRCSANACNOR6108
012013092378CSANJ44     070CSAN        ON      NM000R$  000000000001600000000000160000000000016000000000001600000000000160000000000000000000000000000002000000000000001000000000000000016000000000000440002013102100000010000000000000BRCSANACNOR6108
012013092378CSANK5      070CSAN        ON      NM000R$  000000000017700000000001770000000000177000000000017700000000001770000000000000000000000000000002000000000000002500000000000000442500000000000425002013111800000010000000000000BRCSANACNOR6108
012013092378CSANK8      070CSAN        ON      NM000R$  000000000006400000000000640000000000064000000000006400000000000640000000000000000000000000000002000000000000002500000000000000160000000000000445002013111800000010000000000000BRCSANACNOR6108
012013092378CSANL45     070CSAN        ON      NM000R$  000000000009000000000000900000000000090000000000009000000000000900000000000000000000000000000002000000000000025000000000000002250000000000000450002013121600000010000000000000BRCSANACNOR6108
012013092382CSANW3      080CSANE       ON      NM000R$  000000000011300000000001130000000000113000000000011300000000001130000000000000000000000000000002000000000000002500000000000000282500000000000417502013111800000010000000000000BRCSANACNOR6108
012013092302CSCO34      010CISCO       DRN          R$  000000000536800000000053680000000005368000000000536800000000053680000000005290000000000539000001000000000000008200000000000044017600000000000000009999123100000010000000000000BRCSCOBDR004110
012013092302CSMG3       010COPASA      ON      NM   R$  000000000342900000000035100000000003405000000000347300000000035100000000003446000000000351000928000000000000225400000000000782947300000000000000009999123100000010000000000000BRCSMGACNOR5127
012013092396CSMG3F      020COPASA      ON      NM   R$  000000000340000000000034930000000003400000000000344700000000034300000000003430000000000349400013000000000000000428000000000001475680000000000000009999123100000010000000000000BRCSMGACNOR5127
012013092314CSMO11      010ISHARES CSMOCI           R$  000000000486100000000048610000000004817000000000484700000000048340000000004600000000000610000003000000000000001510000000000007319370000000000000009999123100000010000000000000BRCSMOCTF002100
012013092362CSMO11T     030ISHARES CSMOCI        030R$  000000000489600000000048970000000004896000000000489600000000048970000000000000000000000000000002000000000000001000000000000004896971000000000000009999123100000010000000000000BRCSMOCTF002100
012013092302CSNA3       010SID NACIONALON           R$  000000000092900000000009400000000000918000000000092900000000009300000000000929000000000093012945000000000007615700000000007077701300000000000000009999123100000010000000000000BRCSNAACNOR6243
012013092396CSNA3F      020SID NACIONALON           R$  000000000093200000000009340000000000918000000000092800000000009340000000000934000000000093700045000000000000001366000000000001268466000000000000009999123100000010000000000000BRCSNAACNOR6243
012013092362CSNA3T      030SID NACIONALON        030R$  000000000093500000000009380000000000935000000000093700000000009380000000000000000000000000000006000000000000004100000000000003841773000000000000009999123100000010000000000000BRCSNAACNOR6243
012013092362CSNA3T      030SID NACIONALON        182R$  000000000096400000000009650000000000964000000000096400000000009650000000000000000000000000000002000000000000070000000000000067497640000000000000009999123100000010000000000000BRCSNAACNOR6243
012013092378CSNAD78     070CSNAE       ON        000R$  000000000020800000000002080000000000208000000000020800000000002080000000000000000000000000000002000000000001334500000000000277576000000000000078502014042200000010000000000000BRCSNAACNOR6243
012013092378CSNAJ10     070CSNA  FM    ON        000R$  000000000001900000000000190000000000018000000000001800000000000180000000000000000000000002000003000000000000003600000000000000065300000000000100002013102100000010000000000000BRCSNAACNOR6243
012013092378CSNAJ60     070CSNA        ON        000R$  000000000001000000000000100000000000010000000000001000000000000100000000000000000000000001200001000000000000000100000000000000001000000000000106002013102100000010000000000000BRCSNAACNOR6243
012013092378CSNAJ8      070CSNA        ON        000R$  000000000015000000000001600000000000150000000000015500000000001600000000000152000000000019500006000000000000003000000000000000467000000000000078002013102100000010000000000000BRCSNAACNOR6242
012013092378CSNAJ86     070CSNA        ON        000R$  000000000011000000000001110000000000110000000000011000000000001110000000000000000000000000000002000000000000100000000000000011020000000000000084002013102100000010000000000000BRCSNAACNOR6242
012013092378CSNAJ9      070CSNA        ON        000R$  000000000007100000000000750000000000071000000000007200000000000750000000000070000000000010500006000000000000015300000000000001107500000000000088002013102100000010000000000000BRCSNAACNOR6242
012013092378CSNAJ92     070CSNA  FM    ON        000R$  000000000005400000000000540000000000054000000000005400000000000540000000000000000000000006200001000000000000003000000000000000162000000000000092002013102100000010000000000000BRCSNAACNOR6243
012013092378CSNAJ93     070CSNAE       ON        000R$  000000000004100000000000410000000000041000000000004100000000000410000000000000000000000000000001000000000000000700000000000000028700000000000093002013102100000010000000000000BRCSNAACNOR6243
012013092378CSNAJ94     070CSNA  FM    ON        000R$  000000000004200000000000420000000000042000000000004200000000000420000000000000000000000004400001000000000000004000000000000000168000000000000094002013102100000010000000000000BRCSNAACNOR6243
012013092378CSNAJ96     070CSNA  FM    ON        000R$  000000000003300000000000330000000000031000000000003200000000000310000000000000000000000000000002000000000000006700000000000000214700000000000096002013102100000010000000000000BRCSNAACNOR6243
012013092378CSNAJ98     070CSNA  FM    ON        000R$  000000000002800000000000280000000000026000000000002700000000000260000000000003000000000000000002000000000000001500000000000000041000000000000098002013102100000010000000000000BRCSNAACNOR6243
012013092378CSNAK10     070CSNA  FM    ON        000R$  000000000004700000000000470000000000046000000000004600000000000470000000000000000000000000000006000000000000014000000000000000655200000000000098002013111800000010000000000000BRCSNAACNOR6242
012013092378CSNAK92     070CSNA  FM    ON        000R$  000000000007400000000000740000000000074000000000007400000000000740000000000000000000000000000003000000000000010400000000000000769600000000000092002013111800000010000000000000BRCSNAACNOR6243
012013092378CSNAK94     070CSNA  FM    ON        000R$  000000000006400000000000640000000000064000000000006400000000000640000000000000000000000000000001000000000000002400000000000000153600000000000094002013111800000010000000000000BRCSNAACNOR6243
012013092378CSNAK96     070CSNA  FM    ON        000R$  000000000005500000000000550000000000055000000000005500000000000550000000000000000000000000000001000000000000003200000000000000176000000000000096002013111800000010000000000000BRCSNAACNOR6243
012013092382CSNAP78     080CSNAE       ON        000R$  000000000003600000000000360000000000036000000000003600000000000360000000000000000000000000000002000000000000581700000000000020941200000000000078502014042200000010000000000000BRCSNAACNOR6243
012013092382CSNAV10     080CSNAE       ON        000R$  000000000008800000000000930000000000088000000000009000000000000920000000000081000000000009000028000000000000006000000000000000544900000000000100002013102100000010000000000000BRCSNAACNOR6243
012013092382CSNAV9      080CSNAE FM    ON        000R$  000000000002400000000000240000000000024000000000002400000000000240000000000022000000000003400002000000000000004800000000000000115200000000000088002013102100000010000000000000BRCSNAACNOR6242
012013092382CSNAV92     080CSNAE FM    ON        000R$  000000000004400000000000440000000000037000000000004000000000000370000000000000000000000000000002000000000000003600000000000000145800000000000092002013102100000010000000000000BRCSNAACNOR6243
012013092382CSNAV94     080CSNAE FM    ON        000R$  000000000004900000000000490000000000049000000000004900000000000490000000000000000000000005300001000000000000001800000000000000088200000000000094002013102100000010000000000000BRCSNAACNOR6243
012013092382CSNAW94     080CSNAE FM    ON        000R$  000000000006800000000000680000000000068000000000006800000000000680000000000000000000000000000001000000000000001000000000000000068000000000000094002013111800000010000000000000BRCSNAACNOR6243
012013092302CTAX11      010CONTAX      UNT     N2   R$  000000000188900000000019750000000001860000000000192000000000019750000000001877000000000197500095000000000000041600000000000079906400000000000000009999123100000010000000000000BRCTAXCDAM19100
012013092302CTAX3       010CONTAX      ON      N2   R$  000000000035500000000003800000000000354000000000036700000000003800000000000354000000000038500004000000000000002000000000000000734900000000000000009999123100000010000000000000BRCTAXACNOR3113
012013092302CTAX4       010CONTAX      PN      N2   R$  000000000036600000000003850000000000366000000000037400000000003850000000000380000000000038500229000000000000084400000000000031580600000000000000009999123100000010000000000000BRCTAXACNPR0114
012013092396CTAX4F      020CONTAX      PN      N2   R$  000000000043400000000004340000000000382000000000043000000000003820000000000342000000000038200002000000000000000086000000000000037012000000000000009999123100000010000000000000BRCTAXACNPR0114
012013092302CTGP34      010CITIGROUP   DRN          R$  000000001098900000000109890000000010989000000001098900000000109890000000010840000000001097500001000000000000007200000000000079120800000000000000009999123100000010000000000000BRCTGPBDR000111
012013092302CTIP3       010CETIP       ON      NM   R$  000000000235800000000024040000000002341000000000236400000000023650000000002364000000000236504557000000000001219900000000002884085000000000000000009999123100000010000000000000BRCTIPACNOR2119
012013092396CTIP3F      020CETIP       ON      NM   R$  000000000235800000000024100000000002332000000000235400000000023700000000002353000000000241100099000000000000003629000000000008545814000000000000009999123100000010000000000000BRCTIPACNOR2119
012013092378CTIPK53     070CTIP        ON      NM000R$  000000000011300000000001130000000000112000000000011200000000001120000000000000000000000000000002000000000000050000000000000005640000000000000235002013111800000010000000000000BRCTIPACNOR2119
012013092302CTKA4       010KARSTEN     PN           R$  000000000010600000000001150000000000090000000000010300000000000900000000000090000000000009500075000000000000047400000000000004904200000000000000009999123100000010000000000000BRCTKAACNPR7041
012013092396CTNM3F      020COTEMINAS   ON           R$  000000000025500000000002550000000000255000000000025500000000002550000000000255000000000000000001000000000000000008000000000000002040000000000000009999123100000010000000000000BRCTNMACNOR9129
012013092302CTNM4       010COTEMINAS   PN           R$  000000000023600000000002370000000000221000000000022400000000002290000000000225000000000022900030000000000000017600000000000003956400000000000000009999123100000010000000000000BRCTNMACNPR6128
012013092302CTSA4       010SANTANENSE  PN           R$  000000000055000000000005500000000000550000000000055000000000005500000000000550000000000057800003000000000000003500000000000001925000000000000000009999123100000010000000000000BRCTSAACNPR0051
012013092312CXTL11      010FII CX TRX  CI           R$  000000007150000000000715000000000071165000000007141600000000711650000000071165000000007150000003000000000000000004000000000000285665000000000000009999123100000010000000000000BRCXTLCTF003122
012013092302CYRE3       010CYRELA REALTON      NM   R$  000000000171500000000017150000000001664000000000168000000000016900000000001690000000000169207839000000000003393400000000005701448300000000000000009999123100000010000000000000BRCYREACNOR7125
012013092396CYRE3F      020CYRELA REALTON      NM   R$  000000000170400000000017040000000001653000000000168400000000016840000000001675000000000170400039000000000000001177000000000001982368000000000000009999123100000010000000000000BRCYREACNOR7125
012013092378CYREJ17     070CYRE  FM    ON      NM000R$  000000000004500000000000480000000000045000000000004700000000000480000000000000000000000000000002000000000000002200000000000000105000000000000170002013102100000010000000000000BRCYREACNOR7125
012013092378CYREJ18     070CYRE  FM    ON      NM000R$  000000000001700000000000170000000000015000000000001600000000000150000000000000000000000002200004000000000000004100000000000000068900000000000180002013102100000010000000000000BRCYREACNOR7125
012013092378CYREJ46     070CYRE  FM    ON      NM000R$  000000000007200000000000740000000000070000000000007100000000000740000000000000000000000000000041000000000000057400000000000004115300000000000165002013102100000010000000000000BRCYREACNOR7125
012013092378CYREK17     070CYRE  FM    ON      NM000R$  000000000007800000000000780000000000078000000000007800000000000780000000000000000000000000000002000000000000003200000000000000249600000000000170002013111800000010000000000000BRCYREACNOR7125
012013092378CYREK46     070CYRE  FM    ON      NM000R$  000000000010100000000001140000000000101000000000010700000000001140000000000000000000000000000002000000000000002000000000000000215000000000000165002013111800000010000000000000BRCYREACNOR7125
012013092382CYREV46     080CYREE FM    ON      NM000R$  000000000003900000000000390000000000039000000000003900000000000390000000000000000000000000000001000000000000001000000000000000039000000000000165002013102100000010000000000000BRCYREACNOR7125
012013092382CYREV47     080CYREE FM    ON      NM000R$  000000000008500000000000850000000000085000000000008500000000000850000000000000000000000000000001000000000000002000000000000000170000000000000175002013102100000010000000000000BRCYREACNOR7125
012013092382CYREW46     080CYREE FM    ON      NM000R$  000000000005800000000000580000000000058000000000005800000000000580000000000000000000000000000001000000000000000100000000000000005800000000000165002013111800000010000000000000BRCYREACNOR7125
012013092382CYREW47     080CYREE FM    ON      NM000R$  000000000010700000000001070000000000107000000000010700000000001070000000000000000000000000000001000000000000003100000000000000331700000000000175002013111800000010000000000000BRCYREACNOR7125
012013092302CZLT33      010COSAN LTD   DR3          R$  000000000332000000000033500000000003304000000000333100000000033250000000003325000000000332700523000000000000431100000000001436213900000000000000009999123100000010000000000000BRCZLTBDR009105
012013092396CZLT33F     020COSAN LTD   DR3          R$  000000000399300000000039930000000003993000000000399300000000039930000000003300000000000380000001000000000000000007000000000000027951000000000000009999123100000010000000000000BRCZLTBDR009105
012013092302DAGB33      010DUFRY AG    DR3          R$  000000003359900000000337990000000033202000000003343000000000335000000000033341000000003350000612000000000000015979000000000534185597000000000000009999123100000010000000000000BRDAGBBDR008100
012013092302DASA3       010DASA        ON      NM   R$  000000000111400000000011340000000001112000000000112500000000011270000000001126000000000112702729000000000001486500000000001673170100000000000000009999123100000010000000000000BRDASAACNOR1108
012013092396DASA3F      020DASA        ON      NM   R$  000000000111700000000011300000000001062000000000111000000000011010000000001100000000000116900019000000000000000575000000000000638893000000000000009999123100000010000000000000BRDASAACNOR1108
012013092302DAYC4       010DAYCOVAL    PN      N2   R$  000000000086500000000008740000000000858000000000086500000000008630000000000863000000000087500304000000000000134900000000000116739400000000000000009999123100000010000000000000BRDAYCACNPR2128
012013092396DAYC4F      020DAYCOVAL    PN      N2   R$  000000000087000000000008700000000000862000000000086700000000008700000000000863000000000087800004000000000000000039000000000000033834000000000000009999123100000010000000000000BRDAYCACNPR2128
012013092302DIRR3       010DIRECIONAL  ON      NM   R$  000000000128500000000012860000000001210000000000122700000000012100000000001209000000000121003538000000000000876100000000001075473100000000000000009999123100000010000000000000BRDIRRACNOR0104
