00COTAHIST.2013BOVESPA 20130830                                                                                                                                                                                                                      
012013083096ABCB10F     020ABC BRASIL  PN  REC N2   R$  000000000110000000000011000000000001100000000000110000000000011000000000001080000000000110000001000000000000000036000000000000039600000000000000009999123100000010000000000000BRABCBR04PR3119
012013083002ABCB4       010ABC BRASIL  PN      N2   R$  000000000121800000000012360000000001177000000000119400000000011950000000001195000000000120701093000000000000465700000000000556188100000000000000009999123100000010000000000000BRABCBACNPR4120
012013083096ABCB4F      020ABC BRASIL  PN      N2   R$  000000000121300000000012130000000001179000000000120600000000011940000000001178000000000119000015000000000000000311000000000000375219000000000000009999123100000010000000000000BRABCBACNPR4120
012013083012ABCP11      010FII ABC IMOBCI           R$  000000000094600000000009460000000000946000000000094600000000009460000000000905000000000094600002000000000000000012000000000000011352000000000000009999123100000010000000000000BRABCPCTF000214
012013083002ABRE11      010ABRIL EDUCA UNT     N2   R$  000000000317000000000033370000000003170000000000328300000000033000000000003295000000000330000705000000000000285400000000000937057100000000000000009999123100000010000000000000BRABRECDAM15102
012013083096ABRE11F     020ABRIL EDUCA UNT     N2   R$  000000000332700000000033290000000003326000000000332700000000033290000000003167000000000332800008000000000000000276000000000000918390000000000000009999123100000010000000000000BRABRECDAM15102
012013083002AEDU3       010ANHANGUERA  ON      NM   R$  000000000139200000000014220000000001369000000000138800000000013850000000001384000000000138508795000000000008652200000000012013249400000000000000009999123100000010000000000000BRAEDUACNOR9107
012013083096AEDU3F      020ANHANGUERA  ON      NM   R$  000000000137300000000014390000000001351000000000138800000000014000000000001400000000000141500097000000000000003265000000000004534135000000000000009999123100000010000000000000BRAEDUACNOR9107
012013083012AEFI11      010FII AESAPAR CI           R$  000000001220000000000123400000000012199000000001222200000000123400000000012220000000001234000028000000000000001022000000000012491419000000000000009999123100000010000000000000BRAEFICTF002120
012013083002AELP3       010AES ELPA    ON           R$  000000000078000000000008170000000000780000000000079900000000007850000000000784000000000081400005000000000000000500000000000000399700000000000000009999123100000010000000000000BRAELPACNOR2119
012013083096AELP3F      020AES ELPA    ON           R$  000000000078000000000007800000000000780000000000078000000000007800000000000724000000000090900001000000000000000035000000000000027300000000000000009999123100000010000000000000BRAELPACNOR2119
012013083012AGCX11      010FII AG CAIXACI           R$  000000009939300000000994500000000099393000000009940900000000994500000000099400000000009950000007000000000000000088000000000008748022000000000000009999123100000010000000000000BRAGCXCTF003109
012013083002AGRO3       010BRASILAGRO  ON      NM   R$  000000000095900000000009800000000000934000000000094600000000009400000000000940000000000095200088000000000000041900000000000039653900000000000000009999123100000010000000000000BRAGROACNOR7102
012013083062AGRO3T      030BRASILAGRO  ON      NM031R$  000000000095100000000009520000000000946000000000094800000000009470000000000000000000000000000004000000000000003000000000000002844210000000000000009999123100000010000000000000BRAGROACNOR7102
012013083002AHEB5       010SPTURIS     PNA          R$  000000000200000000000020000000000002000000000000200000000000020000000000001500000000000312200001000000000000000100000000000000200000000000000000009999123100000010000000000000BRAHEBACNPA3102
012013083096AHEB5F      020SPTURIS     PNA          R$  000000000150100000000015010000000001501000000000150100000000015010000000001501000000000000000002000000000000000053000000000000079553000000000000009999123100000010000000000000BRAHEBACNPA3102
012013083002ALLL3       010ALL AMER LATON      NM   R$  000000000090600000000009350000000000904000000000092300000000009230000000000923000000000092507795000000000003106600000000002868095700000000000000009999123100000010000000000000BRALLLACNOR6118
012013083096ALLL3F      020ALL AMER LATON      NM   R$  000000000083000000000009970000000000830000000000092700000000009300000000000929000000000093000459000000000000014682000000000013617106000000000000009999123100000010000000000000BRALLLACNOR6118
012013083062ALLL3T      030ALL AMER LATON      NM090R$  000000000094600000000009470000000000946000000000094600000000009470000000000000000000000000000002000000000000005000000000000004734192000000000000009999123100000010000000000000BRALLLACNOR6118
012013083012ALMI11B     010FII TORRE ALCI      MB   R$  000000031399900000003139990000000308106000000030955700000003091000000000309100000000031400000011000000000000000046000000000014239650000000000000009999123100000010000000000000BRALMICTF003204
012013083002ALPA3       010ALPARGATAS  ON      N1   R$  000000000112000000000011200000000001081000000000111100000000010810000000001080000000000111800004000000000000000500000000000000555800000000000000009999123100000010000000000000BRALPAACNOR0203
012013083002ALPA4       010ALPARGATAS  PN      N1   R$  000000000120000000000012430000000001200000000000122800000000012430000000001240000000000124301012000000000000499200000000000613464700000000000000009999123100000010000000000000BRALPAACNPR7203
012013083096ALPA4F      020ALPARGATAS  PN      N1   R$  000000000122200000000012400000000001222000000000123100000000012400000000001222000000000130900032000000000000000382000000000000470479000000000000009999123100000010000000000000BRALPAACNPR7203
012013083002ALSC3       010ALIANSCE    ON      NM   R$  000000000185300000000018940000000001853000000000187000000000018580000000001858000000000187002026000000000000523500000000000978953700000000000000009999123100000010000000000000BRALSCACNOR0104
012013083096ALSC3F      020ALIANSCE    ON      NM   R$  000000000188200000000024290000000001880000000000214400000000024290000000001859000000000242900004000000000000000137000000000000293818000000000000009999123100000010000000000000BRALSCACNOR0104
012013083002ALUP11      010ALUPAR      UNT     N2   R$  000000000170500000000017100000000001687000000000170200000000017080000000001708000000000171700384000000000000116500000000000198300100000000000000009999123100000010000000000000BRALUPCDAM15100
012013083096ALUP11F     020ALUPAR      UNT     N2   R$  000000000171300000000017990000000001688000000000171200000000017990000000001710000000000179900133000000000000002438000000000004175589000000000000009999123100000010000000000000BRALUPCDAM15100
012013083002AMAR3       010LOJAS MARISAON      NM   R$  000000000183300000000019170000000001825000000000188900000000019100000000001903000000000191001926000000000001032700000000001951186900000000000000009999123100000010000000000000BRAMARACNOR4109
012013083096AMAR3F      020LOJAS MARISAON      NM   R$  000000000185500000000019000000000001837000000000185400000000018980000000001880000000000191900005000000000000000116000000000000215104000000000000009999123100000010000000000000BRAMARACNOR4109
012013083002AMBV3       010AMBEV       ON           R$  000000000828100000000083680000000008077000000000827500000000083680000000008296000000000836804696000000000001313500000000010869631400000000000000009999123100000010000000000000BRAMBVACNOR4153
012013083096AMBV3F      020AMBEV       ON           R$  000000000805400000000083350000000008054000000000821500000000083300000000008260000000000844300074000000000000001845000000000015158380000000000000009999123100000010000000000000BRAMBVACNOR4153
012013083002AMBV4       010AMBEV       PN           R$  000000000831600000000083410000000008089000000000826300000000083200000000008320000000000832312851000000000003452800000000028531701800000000000000009999123100000010000000000000BRAMBVACNPR1153
012013083096AMBV4F      020AMBEV       PN           R$  000000000830000000000083600000000008100000000000823200000000083000000000008250000000000830000154000000000000004051000000000033358397000000000000009999123100000010000000000000BRAMBVACNPR1153
012013083062AMBV4T      030AMBEV       PN        017R$  000000000819700000000082790000000008197000000000822100000000082790000000000000000000000000000004000000000000001700000000000013976497000000000000009999123100000010000000000000BRAMBVACNPR1153
012013083062AMBV4T      030AMBEV       PN        031R$  000000000818000000000083460000000008165000000000828900000000083460000000000000000000000000000014000000000000007850000000000065076041000000000000009999123100000010000000000000BRAMBVACNPR1153
012013083062AMBV4T      030AMBEV       PN        060R$  000000000835100000000084240000000008261000000000832900000000084240000000000000000000000000000006000000000000002500000000000020824172000000000000009999123100000010000000000000BRAMBVACNPR1153
012013083002ARTR3       010ARTERIS     ON      NM   R$  000000000222900000000022360000000002138000000000216000000000021520000000002152000000000215302271000000000002204300000000004761522800000000000000009999123100000010000000000000BRARTRACNOR3101
012013083096ARTR3F      020ARTERIS     ON      NM   R$  000000000205400000000022230000000002054000000000214700000000021370000000002136000000000219600043000000000000001132000000000002431253000000000000009999123100000010000000000000BRARTRACNOR3101
012013083002ARZZ3       010AREZZO CO   ON      NM   R$  000000000338000000000033990000000003308000000000334000000000033200000000003320000000000336000687000000000000177800000000000594014900000000000000009999123100000010000000000000BRARZZACNOR3109
012013083096ARZZ3F      020AREZZO CO   ON      NM   R$  000000000337600000000033770000000003362000000000337200000000033760000000003301000000000337600007000000000000000280000000000000944326000000000000009999123100000010000000000000BRARZZACNOR3109
012013083002AUTM3       010AUTOMETAL   ON      NM   R$  000000000184100000000019690000000001834000000000194600000000019690000000001875000000000196900190000000000000135000000000000262823700000000000000009999123100000010000000000000BRAUTMACNOR8109
012013083096AUTM3F      020AUTOMETAL   ON      NM   R$  000000000183000000000018300000000001505000000000162300000000015050000000001505000000000184400002000000000000000011000000000000017855000000000000009999123100000010000000000000BRAUTMACNOR8109
012013083002BAHI3       010BAHEMA      ON           R$  000000000051500000000005250000000000496000000000051600000000004960000000000495000000000050000010000000000000005000000000000002584900000000000000009999123100000010000000000000BRBAHIACNOR1066
012013083062BAHI3T      030BAHEMA      ON        060R$  000000000050300000000005340000000000503000000000052500000000005340000000000000000000000000000011000000000000004900000000000002574950000000000000009999123100000010000000000000BRBAHIACNOR1066
012013083002BALM4       010BAUMER      PN           R$  000000000920000000000092000000000009200000000000920000000000092000000000008300000000000940000002000000000000000400000000000003680000000000000000009999123100000010000000000000BRBALMACNPR2043
012013083002BAZA3       010AMAZONIA    ON           R$  000000000003300000000000330000000000031000000000003100000000000330000000000031000000000003300016000000000000077000000000000002401000000000000000009999123100000010000000000000BRBAZAACNOR0163
012013083002BBAS3       010BRASIL      ON  ED  NM   R$  000000000227000000000023050000000002238000000000228500000000023050000000002300000000000230514104000000000008471300000000019360147300000000000000009999123100000010000000000000BRBBASACNOR3238
012013083096BBAS3F      020BRASIL      ON  ED  NM   R$  000000000226000000000023050000000002241000000000227700000000023000000000002287000000000230000473000000000000012980000000000029582362000000000000009999123100000010000000000000BRBBASACNOR3238
012013083062BBAS3T      030BRASIL      ON  ED  NM019R$  000000000229600000000022970000000002296000000000229600000000022970000000000000000000000000000002000000000000003000000000000006888175000000000000009999123100000010000000000000BRBBASACNOR3238
012013083062BBAS3T      030BRASIL      ON  ED  NM031R$  000000000228200000000022830000000002282000000000228200000000022830000000000000000000000000000002000000000000001000000000000002282416000000000000009999123100000010000000000000BRBBASACNOR3238
012013083062BBAS3T      030BRASIL      ON  ED  NM060R$  000000000231600000000023170000000002316000000000231600000000023170000000000000000000000000000002000000000000000500000000000001158316000000000000009999123100000010000000000000BRBBASACNOR3238
012013083062BBAS3T      030BRASIL      ON  ED  NM090R$  000000000231100000000023330000000002308000000000231300000000023330000000000000000000000000000008000000000000014000000000000032390445000000000000009999123100000010000000000000BRBBASACNOR3238
012013083078BBASB23     070BBAS    /EDRON      NM000R$  000000000025000000000002500000000000250000000000025000000000002500000000000000000000000000000001000000000000010000000000000002500000000000000222202014021700000010000000000000BRBBASACNOR3237
012013083078BBASI21     070BBAS  FM/EDRON      NM000R$  000000000028000000000002870000000000234000000000026000000000002770000000000240000000000031300120000000000000142000000000000036968600000000000202202013091600000010000000000000BRBBASACNOR3237
012013083078BBASI22     070BBAS  FM/EDRON      NM000R$  000000000019400000000002140000000000161000000000018500000000001790000000000177000000000028000324000000000000285200000000000052822100000000000209802013091600000010000000000000BRBBASACNOR3236
012013083078BBASI23     070BBAS  FM/EDRON      NM000R$  000000000011000000000001280000000000080000000000010300000000001190000000000119000000000000000137000000000000128200000000000013294800000000000219802013091600000010000000000000BRBBASACNOR3236
012013083078BBASI24     070BBAS  FM/EDRON      NM000R$  000000000004700000000000560000000000031000000000004400000000000500000000000050000000000005300194000000000000218700000000000009823900000000000229802013091600000010000000000000BRBBASACNOR3236
012013083078BBASI25     070BBAS  FM/EDRON      NM000R$  000000000001500000000000210000000000010000000000001700000000000170000000000015000000000001800068000000000000122200000000000002155400000000000238802013091600000010000000000000BRBBASACNOR3235
012013083078BBASI26     070BBAS    /EDRON      NM000R$  000000000000700000000000070000000000006000000000000600000000000060000000000002000000000000500002000000000000011500000000000000070500000000000248802013091600000010000000000000BRBBASACNOR3235
012013083078BBASJ21     070BBAS  FM/EDRON      NM000R$  000000000029000000000003130000000000269000000000029000000000003020000000000000000000000000000073000000000000109000000000000031644900000000000202202013102100000010000000000000BRBBASACNOR3237
012013083078BBASJ22     070BBAS  FM/EDRON      NM000R$  000000000020800000000002350000000000193000000000021200000000002230000000000000000000000000000042000000000000066600000000000014154300000000000212202013102100000010000000000000BRBBASACNOR3237
012013083078BBASJ23     070BBAS  FM/EDRON      NM000R$  000000000017500000000001810000000000141000000000016100000000001780000000000148000000000000000025000000000000037200000000000006016000000000000218802013102100000010000000000000BRBBASACNOR3235
012013083078BBASJ24     070BBAS  FM/EDRON      NM000R$  000000000009500000000001100000000000084000000000009600000000000920000000000092000000000011000033000000000000059100000000000005705400000000000229802013102100000010000000000000BRBBASACNOR3236
012013083078BBASJ25     070BBAS  FM/EDRON      NM000R$  000000000005000000000000550000000000040000000000004900000000000520000000000035000000000005300084000000000000108300000000000005372000000000000242202013102100000010000000000000BRBBASACNOR3237
012013083078BBASJ26     070BBAS    /EDRON      NM000R$  000000000002700000000000290000000000025000000000002700000000000250000000000025000000000003300006000000000000005100000000000000138800000000000248802013102100000010000000000000BRBBASACNOR3235
012013083078BBASJ27     070BBAS    /EDRON      NM000R$  000000000001600000000000160000000000016000000000001600000000000160000000000007000000000003800003000000000000005000000000000000080000000000000258802013102100000010000000000000BRBBASACNOR3235
012013083078BBASK24     070BBAS    /EDRON      NM000R$  000000000009100000000001220000000000091000000000011700000000001200000000000000000000000000000018000000000000018700000000000002195500000000000232202013111800000010000000000000BRBBASACNOR3237
012013083078BBASK25     070BBAS    /EDRON      NM000R$  000000000007300000000000840000000000073000000000008000000000000840000000000016000000000000000009000000000000005000000000000000404000000000000239802013111800000010000000000000BRBBASACNOR3236
012013083078BBASK26     070BBAS    /EDRON      NM000R$  000000000005200000000000520000000000052000000000005200000000000520000000000016000000000000000001000000000000000500000000000000026000000000000249802013111800000010000000000000BRBBASACNOR3236
012013083078BBASL24     070BBAS    /EDRON      NM000R$  000000000013100000000001440000000000131000000000014200000000001420000000000000000000000035000007000000000000300400000000000042904400000000000232202013121600000010000000000000BRBBASACNOR3237
012013083078BBASL25     070BBAS    /EDRON      NM000R$  000000000009800000000001200000000000098000000000010500000000001200000000000000000000000000000029000000000000070900000000000007488000000000000238802013121600000010000000000000BRBBASACNOR3235
012013083082BBASN20     080BBASE   /EDRON      NM000R$  000000000005000000000000500000000000050000000000005000000000000500000000000000000000000000000001000000000000050000000000000002500000000000000200002014021700000010000000000000BRBBASACNOR3238
012013083082BBASU20     080BBASE FM/EDRON      NM000R$  000000000000400000000000040000000000004000000000000400000000000040000000000000000000000000000005000000000000010200000000000000040800000000000192202013091600000010000000000000BRBBASACNOR3237
012013083082BBASU21     080BBASE FM/EDRON      NM000R$  000000000000800000000000080000000000006000000000000700000000000060000000000000000000000000400010000000000000033300000000000000258000000000000202202013091600000010000000000000BRBBASACNOR3237
012013083082BBASU22     080BBASE FM/EDRON      NM000R$  000000000001300000000000150000000000007000000000001000000000000090000000000001000000000001200217000000000000468800000000000005071600000000000209802013091600000010000000000000BRBBASACNOR3236
012013083082BBASU23     080BBASE FM/EDRON      NM000R$  000000000002300000000000310000000000017000000000002100000000000240000000000000000000000002400141000000000000336700000000000007395000000000000219802013091600000010000000000000BRBBASACNOR3236
012013083082BBASU24     080BBASE   /EDRON      NM000R$  000000000006400000000000740000000000048000000000005900000000000480000000000000000000000006100018000000000000044300000000000002622700000000000229802013091600000010000000000000BRBBASACNOR3236
012013083082BBASV20     080BBASE FM/EDRON      NM000R$  000000000001900000000000190000000000019000000000001900000000000190000000000000000000000000000004000000000000020000000000000000380000000000000192202013102100000010000000000000BRBBASACNOR3237
012013083082BBASV21     080BBASE FM/EDRON      NM000R$  000000000002700000000000270000000000024000000000002500000000000240000000000000000000000000000002000000000000002400000000000000061200000000000202202013102100000010000000000000BRBBASACNOR3237
012013083082BBASV22     080BBASE FM/EDRON      NM000R$  000000000004300000000000450000000000037000000000004000000000000370000000000000000000000024700031000000000000076500000000000003080400000000000212202013102100000010000000000000BRBBASACNOR3237
012013083082BBASV23     080BBASE FM/EDRON      NM000R$  000000000006100000000000670000000000053000000000005800000000000540000000000000000000000007000017000000000000037200000000000002185600000000000218802013102100000010000000000000BRBBASACNOR3235
012013083082BBASV24     080BBASE   /EDRON      NM000R$  000000000010300000000001030000000000103000000000010300000000001030000000000000000000000000000001000000000000002600000000000000267800000000000229802013102100000010000000000000BRBBASACNOR3236
012013083082BBASV53     080BBASE   /EDRON      NM000R$  000000000007700000000000770000000000077000000000007700000000000770000000000000000000000000000001000000000000004000000000000000308000000000000223802013102100000010000000000000BRBBASACNOR3235
012013083082BBASX24     080BBASE   /EDRON      NM000R$  000000000014900000000001490000000000149000000000014900000000001490000000000000000000000000000001000000000000001200000000000000178800000000000232202013121600000010000000000000BRBBASACNOR3237
012013083082BBASX26     080BBASE   /EDRON      NM000R$  000000000024500000000002450000000000245000000000024500000000002450000000000000000000000000000001000000000000001200000000000000294000000000000248802013121600000010000000000000BRBBASACNOR3235
012013083082BBASX55     080BBASE   /EDRON      NM000R$  000000000017300000000001760000000000165000000000017100000000001650000000000000000000000000000003000000000000003600000000000000616800000000000237902013121600000010000000000000BRBBASACNOR3233
012013083002BBDC3       010BRADESCO    ON      N1   R$  000000000307600000000031600000000003051000000000314700000000031600000000003160000000000316105106000000000006020700000000018947648100000000000000009999123100000010000000000000BRBBDCACNOR1605
012013083096BBDC3F      020BRADESCO    ON      N1   R$  000000000300100000000032000000000003001000000000310700000000032000000000003100000000000330000119000000000000002274000000000007068371000000000000009999123100000010000000000000BRBBDCACNOR1605
012013083002BBDC4       010BRADESCO    PN      N1   R$  000000000275000000000027870000000002713000000000275800000000027710000000002770000000000277124166000000000013702200000000037796691700000000000000009999123100000010000000000000BRBBDCACNPR8605
012013083096BBDC4F      020BRADESCO    PN      N1   R$  000000000275800000000028000000000002715000000000275700000000027300000000002730000000000279900662000000000000009845000000000027144858000000000000009999123100000010000000000000BRBBDCACNPR8605
012013083062BBDC4S      030BRADESCO    PN      N1090R$  000000000280400000000028050000000002798000000000280100000000027990000000000000000000000000000004000000000000010000000000000028014855000000000000009999123100000010000000000000BRBBDCACNPR8605
012013083062BBDC4T      030BRADESCO    PN      N1090R$  000000000280300000000028040000000002803000000000280300000000028040000000000000000000000000000002000000000000000200000000000000560783000000000000009999123100000010000000000000BRBBDCACNPR8605
012013083062BBDC4T      030BRADESCO    PN      N1119R$  000000000281100000000028120000000002811000000000281100000000028120000000000000000000000000000003000000000000000219000000000000615827000000000000009999123100000010000000000000BRBBDCACNPR8605
012013083062BBDC4T      030BRADESCO    PN      N1030R$  000000000276200000000027630000000002762000000000276200000000027630000000000000000000000000000002000000000000001000000000000002762659000000000000009999123100000010000000000000BRBBDCACNPR8605
012013083062BBDC4T      030BRADESCO    PN      N1060R$  000000000277500000000027760000000002775000000000277500000000027760000000000000000000000000000002000000000000000200000000000000555047000000000000009999123100000010000000000000BRBBDCACNPR8605
012013083078BBDCI26     070BBDC        PN      N1000R$  000000000017000000000002060000000000148000000000017500000000001880000000000000000000000034000139000000000000253200000000000044312600000000000259802013091600000010000000000000BRBBDCACNPR8604
012013083078BBDCI27     070BBDC        PN      N1000R$  000000000010100000000001370000000000092000000000011000000000001370000000000101000000000013900099000000000000178600000000000019763900000000000267802013091600000010000000000000BRBBDCACNPR8602
012013083078BBDCI28     070BBDC        PN      N1000R$  000000000004400000000000670000000000039000000000005100000000000640000000000052000000000006400284000000000000310000000000000016088300000000000277802013091600000010000000000000BRBBDCACNPR8602
012013083078BBDCI29     070BBDC        PN      N1000R$  000000000002000000000000230000000000014000000000001800000000000170000000000015000000000002000056000000000000071100000000000001283600000000000287802013091600000010000000000000BRBBDCACNPR8602
012013083078BBDCI30     070BBDC        PN      N1000R$  000000000000700000000000090000000000005000000000000600000000000050000000000002000000000001200063000000000000219800000000000001507900000000000297802013091600000010000000000000BRBBDCACNPR8602
012013083078BBDCI31     070BBDC        PN      N1000R$  000000000007400000000000740000000000067000000000007100000000000670000000000000000000000000000002000000000000005600000000000000400400000000000272902013091600000010000000000000BRBBDCACNPR8590
012013083078BBDCI32     070BBDC        PN      N1000R$  000000000000200000000000020000000000002000000000000200000000000020000000000001000000000000200001000000000000005000000000000000010000000000000317802013091600000010000000000000BRBBDCACNPR8602
012013083078BBDCI81     070BBDC        PN      N1000R$  000000000000300000000000030000000000003000000000000300000000000030000000000000000000000000300001000000000000001500000000000000004500000000000307802013091600000010000000000000BRBBDCACNPR8602
012013083078BBDCJ26     070BBDC        PN      N1000R$  000000000021400000000002530000000000207000000000023000000000002360000000000000000000000000000127000000000000144500000000000033249200000000000259802013102100000010000000000000BRBBDCACNPR8604
012013083078BBDCJ27     070BBDC        PN      N1000R$  000000000016100000000001890000000000155000000000017000000000001890000000000171000000000019900183000000000000250000000000000042566300000000000267802013102100000010000000000000BRBBDCACNPR8602
012013083078BBDCJ29     070BBDC        PN      N1000R$  000000000007100000000000820000000000061000000000007200000000000770000000000040000000000007200146000000000000172200000000000012420500000000000287802013102100000010000000000000BRBBDCACNPR8602
012013083078BBDCJ30     070BBDC        PN      N1000R$  000000000004100000000000480000000000037000000000004100000000000400000000000021000000000007800021000000000000032700000000000001342600000000000297802013102100000010000000000000BRBBDCACNPR8602
012013083078BBDCJ32     070BBDC        PN      N1000R$  000000000001200000000000120000000000012000000000001200000000000120000000000011000000000000000001000000000000000100000000000000001200000000000317802013102100000010000000000000BRBBDCACNPR8602
012013083078BBDCJ58     070BBDC        PN      N1000R$  000000000010300000000001210000000000091000000000010200000000001070000000000092000000000012800032000000000000068500000000000007054800000000000280002013102100000010000000000000BRBBDCACNPR8605
012013083078BBDCK30     070BBDC        PN      N1000R$  000000000006300000000000640000000000063000000000006300000000000640000000000000000000000000000002000000000000006000000000000000381000000000000300002013111800000010000000000000BRBBDCACNPR8605
012013083078BBDCK31     070BBDC        PN      N1000R$  000000000003900000000000390000000000039000000000003900000000000390000000000000000000000000000001000000000000003000000000000000117000000000000310002013111800000010000000000000BRBBDCACNPR8605
012013083078BBDCL33     070BBDC        PN      N1000R$  000000000009500000000000950000000000094000000000009400000000000940000000000000000000000000000003000000000000008500000000000000805000000000000297202013121600000010000000000000BRBBDCACNPR8598
012013083082BBDCU25     080BBDCE       PN      N1000R$  000000000000400000000000040000000000003000000000000300000000000040000000000000000000000000000029000000000000051600000000000000198000000000000249802013091600000010000000000000BRBBDCACNPR8604
012013083082BBDCU26     080BBDCE       PN      N1000R$  000000000001500000000000150000000000009000000000001100000000000110000000000000000000000000000023000000000000033400000000000000367600000000000259802013091600000010000000000000BRBBDCACNPR8604
012013083082BBDCU27     080BBDCE       PN      N1000R$  000000000003900000000000390000000000020000000000002800000000000240000000000000000000000000000018000000000000037700000000000001070200000000000267802013091600000010000000000000BRBBDCACNPR8602
012013083082BBDCU28     080BBDCE       PN      N1000R$  000000000008200000000000890000000000052000000000007300000000000590000000000000000000000000000042000000000000067700000000000004945400000000000277802013091600000010000000000000BRBBDCACNPR8602
012013083082BBDCU29     080BBDCE       PN      N1000R$  000000000016600000000001660000000000112000000000014500000000001200000000000000000000000000000007000000000000021200000000000003077600000000000287802013091600000010000000000000BRBBDCACNPR8602
012013083082BBDCU31     080BBDCE       PN      N1000R$  000000000004900000000000490000000000049000000000004900000000000490000000000000000000000000000001000000000000001200000000000000058800000000000272902013091600000010000000000000BRBBDCACNPR8590
012013083082BBDCU75     080BBDCE       PN      N1000R$  000000000010900000000001090000000000105000000000010700000000001050000000000000000000000000000002000000000000004200000000000000449400000000000282302013091600000010000000000000BRBBDCACNPR8604
012013083082BBDCV26     080BBDCE       PN      N1000R$  000000000005800000000000580000000000042000000000004600000000000420000000000000000000000000000030000000000000077500000000000003608600000000000259802013102100000010000000000000BRBBDCACNPR8604
012013083082BBDCV27     080BBDCE       PN      N1000R$  000000000007700000000000780000000000062000000000006700000000000620000000000000000000000000000018000000000000029500000000000001996000000000000267802013102100000010000000000000BRBBDCACNPR8602
012013083082BBDCV28     080BBDCE       PN      N1000R$  000000000002800000000000280000000000028000000000002800000000000280000000000000000000000000000001000000000000000500000000000000014000000000000245802013102100000010000000000000BRBBDCACNPR8591
012013083082BBDCV29     080BBDCE       PN      N1000R$  000000000017800000000001790000000000150000000000017100000000001500000000000000000000000000000010000000000000016600000000000002852000000000000287802013102100000010000000000000BRBBDCACNPR8602
012013083082BBDCV58     080BBDCE       PN      N1000R$  000000000014500000000001450000000000106000000000012600000000001090000000000000000000000000000021000000000000040800000000000005159600000000000280002013102100000010000000000000BRBBDCACNPR8605
012013083082BBDCW26     080BBDCE       PN      N1000R$  000000000007700000000000770000000000072000000000007200000000000720000000000000000000000000000011000000000000011500000000000000834000000000000259802013111800000010000000000000BRBBDCACNPR8604
012013083082BBDCW28     080BBDCE       PN      N1000R$  000000000013900000000001390000000000120000000000012600000000001200000000000000000000000000000002000000000000003000000000000000379000000000000277802013111800000010000000000000BRBBDCACNPR8602
012013083082BBDCW30     080BBDCE       PN      N1000R$  000000000024400000000002440000000000244000000000024400000000002440000000000000000000000000000001000000000000002000000000000000488000000000000300002013111800000010000000000000BRBBDCACNPR8605
012013083082BBDCW9      080BBDCE       PN      N1000R$  000000000018100000000001810000000000180000000000018000000000001810000000000000000000000000000003000000000000005000000000000000904000000000000290002013111800000010000000000000BRBBDCACNPR8605
012013083012BBFI11B     010FII BB PROGRCI      MB   R$  000000042800000000004300000000000427999000000042865600000004300000000000425000000000043389700012000000000000000035000000000015002993000000000000009999123100000010000000000000BRBBFICTF006197
012013083012BBPO11      010FII BB PRGIICI           R$  000000001106000000000111590000000011000000000001106100000000110400000000011040000000001110000174000000000000017334000000000191733151000000000000009999123100000010000000000000BRBBPOCTF003109
012013083012BBRC11      010FII BB CORP CI           R$  000000000900000000000090500000000009000000000000900000000000090500000000009000000000000905000013000000000000001613000000000014517250000000000000009999123100000010000000000000BRBBRCCTF004123
012013083002BBRK3       010BR BROKERS  ON      NM   R$  000000000053600000000005510000000000515000000000052800000000005250000000000521000000000052603649000000000001835000000000000969404800000000000000009999123100000010000000000000BRBBRKACNOR4108
012013083096BBRK3F      020BR BROKERS  ON      NM   R$  000000000055100000000005510000000000508000000000053400000000005410000000000507000000000054100028000000000000000815000000000000435595000000000000009999123100000010000000000000BRBBRKACNOR4108
012013083002BBSE3       010BBSEGURIDADEON      NM   R$  000000000188500000000019240000000001885000000000190700000000019240000000001916000000000192408646000000000003807500000000007261710100000000000000009999123100000010000000000000BRBBSEACNOR5101
012013083096BBSE3F      020BBSEGURIDADEON      NM   R$  000000000188300000000019170000000001883000000000190000000000019170000000001910000000000191703789000000000000123086000000000233888900000000000000009999123100000010000000000000BRBBSEACNOR5101
012013083062BBSE3T      030BBSEGURIDADEON      NM031R$  000000000191900000000019200000000001918000000000191800000000019190000000000000000000000000000004000000000000003000000000000005756613000000000000009999123100000010000000000000BRBBSEACNOR5101
012013083002BBTG11      010BTG PACTUAL UNT          R$  000000000270100000000027180000000002700000000000271500000000027100000000002710000000000272000359000000000002063900000000005604822300000000000000009999123100000010000000000000BRBBTGUNT007105
012013083096BBTG11F     020BTG PACTUAL UNT          R$  000000000280000000000028000000000002680000000000275100000000027900000000002593000000000284900006000000000000000152000000000000418276000000000000009999123100000010000000000000BRBBTGUNT007105
012013083012BBVJ11      010FII C JARDIMCI           R$  000000000761400000000077990000000007510000000000759700000000075100000000007510000000000767500059000000000000004355000000000033087964000000000000009999123100000010000000000000BRBBVJCTF001132
012013083012BCFF11B     010FII BC FFII CI      MB   R$  000000000900000000000092000000000008850000000000900700000000090700000000009010000000000907000104000000000000007092000000000063882183000000000000009999123100000010000000000000BRBCFFCTF000141
012013083002BEEF3       010MINERVA     ON      NM   R$  000000000107400000000010830000000001056000000000106800000000010800000000001077000000000108003397000000000000669600000000000715264600000000000000009999123100000010000000000000BRBEEFACNOR6104
012013083096BEEF3F      020MINERVA     ON      NM   R$  000000000106500000000010660000000001015000000000102900000000010150000000001015000000000110000007000000000000000192000000000000197712000000000000009999123100000010000000000000BRBEEFACNOR6104
012013083002BEES3       010BANESTES    ON           R$  000000000004800000000000480000000000047000000000004700000000000480000000000047000000000004800009000000000000016900000000000000805200000000000000009999123100000010000000000000BRBEESACNOR9243
012013083002BEMA3       010BEMATECH    ON      NM   R$  000000000070000000000007010000000000689000000000069600000000006940000000000694000000000069900064000000000000026700000000000018608600000000000000009999123100000010000000000000BRBEMAACNOR0114
012013083096BEMA3F      020BEMATECH    ON      NM   R$  000000000069800000000007200000000000670000000000069200000000006920000000000687000000000074000008000000000000000287000000000000198622000000000000009999123100000010000000000000BRBEMAACNOR0114
012013083096BGIP4F      020BANESE      PN  ED       R$  000000000475000000000047500000000004750000000000475000000000047500000000004520000000000000000001000000000000000003000000000000014250000000000000009999123100000010000000000000BRBGIPACNPR8179
012013083002BHGR3       010BHG         ON      NM   R$  000000000141100000000014110000000001372000000000137800000000013720000000001372000000000141000041000000000000031900000000000043962100000000000000009999123100000010000000000000BRBHGRACNOR9101
012013083002BICB4       010BICBANCO    PN      N1   R$  000000000039600000000004030000000000396000000000039900000000004020000000000398000000000040200022000000000000026700000000000010678300000000000000009999123100000010000000000000BRBICBACNPR7131
012013083002BIOM4       010BIOMM       PN           R$  000000000085000000000008680000000000850000000000086500000000008680000000000810000000000089000003000000000000006000000000000005190000000000000000009999123100000010000000000000BRBIOMACNPR9101
012013083002BISA3       010BROOKFIELD  ON      NM   R$  000000000017700000000001790000000000170000000000017100000000001700000000000170000000000017104227000000000009886700000000001699259000000000000000009999123100000010000000000000BRBISAACNOR8109
012013083096BISA3F      020BROOKFIELD  ON      NM   R$  000000000017800000000001780000000000167000000000017200000000001670000000000167000000000017800022000000000000000678000000000000117239000000000000009999123100000010000000000000BRBISAACNOR8109
012013083002BMEB3       010MERC BRASIL ON           R$  000000000175200000000017520000000001650000000000170100000000016500000000000000000000000180000003000000000000000600000000000001020600000000000000009999123100000010000000000000BRBMEBACNOR8190
012013083002BMIN4       010MERC INVEST PN  EJ       R$  000000000002500000000000250000000000024000000000002400000000000240000000000024000000000002500004000000000000013000000000000000315000000000000000009999123100000010000000000000BRBMINACNPR1160
012013083012BMLC11B     010FII BMBRC LCCI      MB   R$  000000001145000000000114500000000011200000000001132400000000112000000000011201000000001145000009000000000000001101000000000012467926000000000000009999123100000010000000000000BRBMLCCTF004118
012013083002BMTO4       010BRASMOTOR   PN           R$  000000000008600000000000860000000000084000000000008500000000000860000000000084000000000008600006000000000000011000000000000000939000000000000000009999123100000010000000000000BRBMTOACNPR6065
012013083096BMTO4F      020BRASMOTOR   PN           R$  000000000008400000000000840000000000084000000000008400000000000840000000000083000000000008400002000000000000000163000000000000013692000000000000009999123100000010000000000000BRBMTOACNPR6065
012013083002BNBR4       010NORD BRASIL PN           R$  000000000250200000000025020000000002502000000000250200000000025020000000002510000000000260000002000000000000000200000000000000500400000000000000009999123100000010000000000000BRBNBRACNPR5187
012013083012BNFS11      010FII BANRISULCI           R$  000000001038600000000103860000000010386000000001038600000000103860000000009672000000001038600002000000000000000004000000000000041544000000000000009999123100000010000000000000BRBNFSCTF000111
012013083002BOBR4       010BOMBRIL     PN           R$  000000000066000000000006600000000000660000000000066000000000006600000000000660000000000067800001000000000000000200000000000000132000000000000000009999123100000010000000000000BRBOBRACNPR3127
012013083014BOVA11      010ISHARES BOVACI           R$  000000000495000000000049670000000004862000000000490100000000049500000000004908000000000495007867000000000004130820000000020247363780000000000000009999123100000010000000000000BRBOVACTF003101
012013083096BOVA11F     020ISHARES BOVACI           R$  000000000490600000000050120000000004852000000000493200000000050110000000004852000000000501100016000000000000000047000000000000231838000000000000009999123100000010000000000000BRBOVACTF003101
012013083062BOVA11T     030ISHARES BOVACI        020R$  000000000492500000000049260000000004925000000000492500000000049260000000000000000000000000000008000000000000010000000000000049259700000000000000009999123100000010000000000000BRBOVACTF003101
012013083012BPFF11      010FII ABSOLUTOCI           R$  000000000858000000000086500000000008400000000000847100000000084500000000008350000000000845000057000000000000002926000000000024789024000000000000009999123100000010000000000000BRBPFFCTF002104
012013083002BPHA3       010BR PHARMA   ON      NM   R$  000000000088600000000008930000000000844000000000085500000000008500000000000850000000000085601373000000000000679300000000000581326400000000000000009999123100000010000000000000BRBPHAACNOR6102
012013083096BPHA3F      020BR PHARMA   ON      NM   R$  000000000081500000000009760000000000815000000000084600000000008150000000000815000000000097700013000000000000000366000000000000309844000000000000009999123100000010000000000000BRBPHAACNOR6102
012013083002BPNM4       010PANAMERICANOPN      N1   R$  000000000051100000000005280000000000506000000000052200000000005260000000000522000000000052600415000000000000304100000000000158768900000000000000009999123100000010000000000000BRBPNMACNPR6111
012013083096BPNM4F      020PANAMERICANOPN      N1   R$  000000000050200000000005610000000000502000000000052400000000005610000000000523000000000056100013000000000000000136000000000000071311000000000000009999123100000010000000000000BRBPNMACNPR6111
012013083002BRAP3       010BRADESPAR   ON      N1   R$  000000000200200000000020370000000001985000000000200300000000020190000000001984000000000201900032000000000000010900000000000021836900000000000000009999123100000010000000000000BRBRAPACNOR5124
012013083096BRAP3F      020BRADESPAR   ON      N1   R$  000000000196100000000020160000000001956000000000197400000000019850000000001974000000000209000016000000000000000104000000000000205340000000000000009999123100000010000000000000BRBRAPACNOR5124
012013083002BRAP4       010BRADESPAR   PN      N1   R$  000000000245100000000024670000000002399000000000244300000000024670000000002458000000000246705652000000000001802300000000004404572300000000000000009999123100000010000000000000BRBRAPACNPR2124
012013083096BRAP4F      020BRADESPAR   PN      N1   R$  000000000242000000000025600000000002325000000000242100000000024300000000002410000000000246000092000000000000001448000000000003508424000000000000009999123100000010000000000000BRBRAPACNPR2124
012013083014BRAX11      010ISHARES BRAXCI           R$  000000000396700000000039670000000003967000000000396700000000039670000000000000000000000000000001000000000000000300000000000001190100000000000000009999123100000010000000000000BRBRAXCTF002100
012013083012BRCR11      010FII BC FUND CI           R$  000000001225000000000123700000000012100000000001218200000000122000000000012196000000001220000481000000000000037692000000000459174309000000000000009999123100000010000000000000BRBRCRCTF000132
012013083002BRFS3       010BRF SA      ON      NM   R$  000000000539000000000055200000000005325000000000548100000000055200000000005514000000000552009655000000000004771100000000026154222900000000000000009999123100000010000000000000BRBRFSACNOR8110
012013083096BRFS3F      020BRF SA      ON      NM   R$  000000000537000000000056300000000005328000000000544200000000056300000000005459000000000563000132000000000000004061000000000022101075000000000000009999123100000010000000000000BRBRFSACNOR8110
012013083062BRFS3T      030BRF SA      ON      NM017R$  000000000535400000000053550000000005354000000000535400000000053550000000000000000000000000000002000000000000001000000000000005354865000000000000009999123100000010000000000000BRBRFSACNOR8110
012013083062BRFS3T      030BRF SA      ON      NM030R$  000000000555800000000055590000000005558000000000555800000000055590000000000000000000000000000002000000000000002500000000000013895220000000000000009999123100000010000000000000BRBRFSACNOR8110
012013083096BRGE11F     020ALFA CONSORCPNE          R$  000000000030800000000003080000000000308000000000030800000000003080000000000308000000000000000002000000000000000022000000000000006776000000000000009999123100000010000000000000BRBRGEACNPE1091
012013083096BRGE3F      020ALFA CONSORCON           R$  000000000033000000000003300000000000330000000000033000000000003300000000000330000000000000000002000000000000000022000000000000007260000000000000009999123100000010000000000000BRBRGEACNOR6197
012013083002BRIN3       010BR INSURANCEON      NM   R$  000000000178900000000019100000000001782000000000186900000000019100000000001910000000000191202473000000000000743900000000001390497900000000000000009999123100000010000000000000BRBRINACNOR3106
012013083096BRIN3F      020BR INSURANCEON      NM   R$  000000000180000000000019200000000001797000000000185400000000019200000000001864000000000192000024000000000000000563000000000001043820000000000000009999123100000010000000000000BRBRINACNOR3106
012013083062BRIN3T      030BR INSURANCEON      NM017R$  000000000187500000000018850000000001817000000000182100000000018180000000000000000000000000000010000000000000022100000000000040255380000000000000009999123100000010000000000000BRBRINACNOR3106
012013083062BRIN3T      030BR INSURANCEON      NM020R$  000000000191900000000019200000000001919000000000191900000000019200000000000000000000000000000002000000000000034000000000000065271194000000000000009999123100000010000000000000BRBRINACNOR3106
012013083002BRKM3       010BRASKEM     ON      N1   R$  000000000119500000000012240000000001195000000000121300000000012240000000001210000000000122400015000000000000012300000000000014923700000000000000009999123100000010000000000000BRBRKMACNOR1110
012013083096BRKM3F      020BRASKEM     ON      N1   R$  000000000115600000000011560000000001156000000000115600000000011560000000001156000000000124900001000000000000000011000000000000012716000000000000009999123100000010000000000000BRBRKMACNOR1110
012013083002BRKM5       010BRASKEM     PNA     N1   R$  000000000170600000000017550000000001706000000000174700000000017550000000001755000000000175606337000000000002155500000000003766407500000000000000009999123100000010000000000000BRBRKMACNPA4110
012013083096BRKM5F      020BRASKEM     PNA     N1   R$  000000000162200000000017660000000001622000000000174200000000017660000000001724000000000176600060000000000000001600000000000002787608000000000000009999123100000010000000000000BRBRKMACNPA4110
012013083002BRKM6       010BRASKEM     PNB     N1   R$  000000000101000000000010100000000001010000000000101000000000010100000000001010000000000130000002000000000000000500000000000000505000000000000000009999123100000010000000000000BRBRKMACNPB2108
012013083002BRML3       010BR MALLS PARON      NM   R$  000000000181400000000018310000000001802000000000181200000000018100000000001810000000000181308249000000000004511900000000008176259600000000000000009999123100000010000000000000BRBRMLACNOR9105
012013083096BRML3F      020BR MALLS PARON      NM   R$  000000000180000000000018280000000001800000000000181200000000018010000000001801000000000181300555000000000000017439000000000031601251000000000000009999123100000010000000000000BRBRMLACNOR9105
012013083062BRML3T      030BR MALLS PARON      NM031R$  000000000183100000000018320000000001831000000000183100000000018320000000000000000000000000000002000000000000001000000000000001831817000000000000009999123100000010000000000000BRBRMLACNOR9105
012013083002BRPR3       010BR PROPERT  ON      NM   R$  000000000180000000000018150000000001765000000000180800000000018150000000001797000000000181504976000000000004012400000000007257644200000000000000009999123100000010000000000000BRBRPRACNOR9112
012013083096BRPR3F      020BR PROPERT  ON      NM   R$  000000000180100000000018780000000001760000000000180300000000018780000000001761000000000188000031000000000000000942000000000001699239000000000000009999123100000010000000000000BRBRPRACNOR9112
012013083002BRSR6       010BANRISUL    PNB     N1   R$  000000000140600000000014280000000001385000000000141200000000014280000000001424000000000142702618000000000001002200000000001415329200000000000000009999123100000010000000000000BRBRSRACNPB4133
012013083096BRSR6F      020BANRISUL    PNB     N1   R$  000000000141000000000014240000000001362000000000138800000000014100000000001401000000000141000388000000000000012615000000000017514902000000000000009999123100000010000000000000BRBRSRACNPB4133
012013083002BSEV3       010BIOSEV      ON      NM   R$  000000000092900000000009490000000000913000000000093900000000009360000000000929000000000093600017000000000000016700000000000015682400000000000000009999123100000010000000000000BRBSEVACNOR3100
012013083096BSEV3F      020BIOSEV      ON      NM   R$  000000000093100000000009310000000000900000000000092300000000009000000000000806000000000094400002000000000000000132000000000000121869000000000000009999123100000010000000000000BRBSEVACNOR3100
012013083002BTOW3       010B2W DIGITAL ON      NM   R$  000000000133600000000013770000000001315000000000135700000000013600000000001360000000000136101463000000000001786400000000002424849100000000000000009999123100000010000000000000BRBTOWACNOR8105
012013083096BTOW3F      020B2W DIGITAL ON      NM   R$  000000000132200000000013690000000001305000000000134400000000013050000000001305000000000137000024000000000000000608000000000000817566000000000000009999123100000010000000000000BRBTOWACNOR8105
012013083002BTTL3       010BATTISTELLA ON           R$  000000000009200000000000950000000000092000000000009200000000000950000000000080000000000009400002000000000000000600000000000000055500000000000000009999123100000010000000000000BRBTTLACNOR0105
012013083002BTTL4       010BATTISTELLA PN           R$  000000000010100000000001010000000000099000000000010000000000001010000000000099000000000010100003000000000000003400000000000000340800000000000000009999123100000010000000000000BRBTTLACNPR7105
012013083002BVMF3       010BMFBOVESPA  ON  ED  NM   R$  000000000116100000000011750000000001153000000000116500000000011690000000001168000000000116923769000000000014843000000000017294390700000000000000009999123100000010000000000000BRBVMFACNOR3126
012013083096BVMF3F      020BMFBOVESPA  ON  ED  NM   R$  000000000116400000000011800000000001156000000000116400000000011800000000001169000000000118000357000000000000008474000000000009869522000000000000009999123100000010000000000000BRBVMFACNOR3126
012013083062BVMF3T      030BMFBOVESPA  ON  ED  NM031R$  000000000117600000000011770000000001176000000000117600000000011770000000000000000000000000000002000000000000050000000000000058847460000000000000009999123100000010000000000000BRBVMFACNOR3126
012013083062BVMF3T      030BMFBOVESPA  ON  ED  NM060R$  000000000119000000000011910000000001190000000000119000000000011910000000000000000000000000000002000000000000001000000000000001190745000000000000009999123100000010000000000000BRBVMFACNOR3126
012013083062BVMF3T      030BMFBOVESPA  ON  ED  NM090R$  000000000118500000000011950000000001185000000000118700000000011940000000000000000000000000000026000000000001310546000000001556460204000000000000009999123100000010000000000000BRBVMFACNOR3126
012013083078BVMFI10     070BVMF    /ED ON      NM000R$  000000000018700000000001880000000000183000000000018400000000001840000000000140000000000000000025000000000000009100000000000001677100000000000098502013091600000010000000000000BRBVMFACNOR3125
012013083078BVMFI11     070BVMF  FM/ED ON      NM000R$  000000000009800000000000990000000000083000000000009100000000000970000000000082000000000009800127000000000000090100000000000008251000000000000108502013091600000010000000000000BRBVMFACNOR3125
012013083078BVMFI12     070BVMF  FM/ED ON      NM000R$  000000000002500000000000260000000000019000000000002300000000000260000000000024000000000002600224000000000000291800000000000006774000000000000118502013091600000010000000000000BRBVMFACNOR3125
012013083078BVMFI13     070BVMF  FM/ED ON      NM000R$  000000000000500000000000050000000000003000000000000400000000000050000000000004000000000000500055000000000000126800000000000000563300000000000128502013091600000010000000000000BRBVMFACNOR3125
012013083078BVMFI14     070BVMF    /ED ON      NM000R$  000000000000100000000000020000000000001000000000000100000000000020000000000001000000000000200007000000000000057200000000000000061200000000000138502013091600000010000000000000BRBVMFACNOR3125
012013083078BVMFI41     070BVMF  FM/ED ON      NM000R$  000000000005100000000000580000000000047000000000005200000000000580000000000000000000000006100072000000000000151500000000000007917200000000000113502013091600000010000000000000BRBVMFACNOR3125
012013083078BVMFI42     070BVMF  FM/ED ON      NM000R$  000000000000900000000000100000000000007000000000000800000000000100000000000000000000000001200021000000000000086500000000000000752800000000000123502013091600000010000000000000BRBVMFACNOR3125
012013083078BVMFJ11     070BVMF  FM/ED ON      NM000R$  000000000011700000000001200000000000110000000000011400000000001200000000000000000000000000000113000000000000053300000000000006127800000000000108502013102100000010000000000000BRBVMFACNOR3125
012013083078BVMFJ12     070BVMF  FM/ED ON      NM000R$  000000000005500000000000550000000000045000000000005100000000000500000000000045000000000007000071000000000000165100000000000008495600000000000118502013102100000010000000000000BRBVMFACNOR3125
012013083078BVMFJ13     070BVMF  FM/ED ON      NM000R$  000000000001300000000000170000000000013000000000001500000000000170000000000010000000000001900030000000000000059500000000000000928100000000000128502013102100000010000000000000BRBVMFACNOR3125
012013083078BVMFJ15     070BVMF    /ED ON      NM000R$  000000000000200000000000020000000000002000000000000200000000000020000000000001000000000000400001000000000000008600000000000000017200000000000148502013102100000010000000000000BRBVMFACNOR3125
012013083078BVMFJ41     070BVMF  FM/ED ON      NM000R$  000000000007700000000000850000000000077000000000008100000000000850000000000000000000000000000112000000000000045800000000000003722100000000000113502013102100000010000000000000BRBVMFACNOR3125
012013083078BVMFJ42     070BVMF  FM/ED ON      NM000R$  000000000002900000000000340000000000028000000000003000000000000340000000000000000000000003500048000000000000037900000000000001164000000000000123502013102100000010000000000000BRBVMFACNOR3125
012013083078BVMFK13     070BVMF    /ED ON      NM000R$  000000000002900000000000290000000000029000000000002900000000000290000000000000000000000000000001000000000000001800000000000000052200000000000128502013111800000010000000000000BRBVMFACNOR3125
012013083078BVMFK42     070BVMF    /ED ON      NM000R$  000000000003700000000000400000000000037000000000003800000000000400000000000000000000000000000002000000000000003600000000000000138600000000000125002013111800000010000000000000BRBVMFACNOR3126
012013083078BVMFL13     070BVMF    /ED ON      NM000R$  000000000004300000000000430000000000035000000000003900000000000410000000000041000000000000000032000000000000028000000000000001111800000000000128502013121600000010000000000000BRBVMFACNOR3125
012013083082BVMFU11     080BVMFE FM/ED ON      NM000R$  000000000001200000000000120000000000006000000000000800000000000090000000000006000000000000900036000000000000106500000000000000947700000000000108502013091600000010000000000000BRBVMFACNOR3125
012013083082BVMFU12     080BVMFE FM/ED ON      NM000R$  000000000004100000000000460000000000034000000000004000000000000360000000000020000000000004300073000000000000129600000000000005220300000000000118502013091600000010000000000000BRBVMFACNOR3125
012013083082BVMFU40     080BVMFE FM/ED ON      NM000R$  000000000000300000000000040000000000003000000000000300000000000030000000000000000000000000000023000000000000057400000000000000177200000000000103502013091600000010000000000000BRBVMFACNOR3125
012013083082BVMFU41     080BVMFE FM/ED ON      NM000R$  000000000001900000000000220000000000016000000000002000000000000170000000000016000000000000000087000000000000397000000000000008262800000000000113502013091600000010000000000000BRBVMFACNOR3125
012013083082BVMFU42     080BVMFE   /ED ON      NM000R$  000000000007500000000000750000000000075000000000007500000000000750000000000000000000000000000001000000000000000500000000000000037500000000000123502013091600000010000000000000BRBVMFACNOR3125
012013083082BVMFV11     080BVMFE FM/ED ON      NM000R$  000000000002600000000000260000000000026000000000002600000000000260000000000000000000000005400001000000000000001800000000000000046800000000000108502013102100000010000000000000BRBVMFACNOR3125
012013083082BVMFV40     080BVMFE FM/ED ON      NM000R$  000000000001700000000000170000000000016000000000001600000000000170000000000000000000000000000004000000000000007200000000000000118800000000000103502013102100000010000000000000BRBVMFACNOR3125
012013083082BVMFV41     080BVMFE FM/ED ON      NM000R$  000000000004100000000000410000000000041000000000004100000000000410000000000000000000000008000001000000000000003500000000000000143500000000000113502013102100000010000000000000BRBVMFACNOR3125
012013083002CAMB4       010CAMBUCI     PN           R$  000000000018500000000001930000000000178000000000018400000000001880000000000188000000000019800011000000000000003300000000000000608500000000000000009999123100000010000000000000BRCAMBACNPR1117
012013083096CAMB4F      020CAMBUCI     PN           R$  000000000015000000000001700000000000150000000000016200000000001610000000000100000000000025000004000000000000000271000000000000044171000000000000009999123100000010000000000000BRCAMBACNPR1117
012013083002CARD3       010CSU CARDSYSTON      NM   R$  000000000032400000000003290000000000315000000000032400000000003290000000000324000000000032900020000000000000015900000000000005162400000000000000009999123100000010000000000000BRCARDACNOR9105
012013083096CBEE3F      020AMPLA ENERG ON *         R$  000000000013300000000001330000000000133000000000013300000000001330000000000133000000000014900002000000000000009000000000000000001196000000000000009999123100010000000000000000BRCBEEACNOR3149
012013083096CBMA3F      020COBRASMA    ON           R$  000000000000600000000000060000000000006000000000000600000000000060000000000005000000000000600001000000000000000001000000000000000006000000000000009999123100000010000000000000BRCBMAACNOR4124
012013083002CBMA4       010COBRASMA    PN           R$  000000000000400000000000040000000000004000000000000400000000000040000000000004000000000000500002000000000000040000000000000000160000000000000000009999123100000010000000000000BRCBMAACNPR1124
012013083096CBMA4F      020COBRASMA    PN           R$  000000000000400000000000040000000000004000000000000400000000000040000000000003000000000000400001000000000000001000000000000000004000000000000000009999123100000010000000000000BRCBMAACNPR1124
012013083008CCHI3       010CHIARELLI   ON           R$  000000000002700000000000270000000000027000000000002700000000000270000000000025000000000002800003000000000000030000000000000000810000000000000000009999123100000010000000000000BRCCHIACNOR5123
012013083096CCHI3F      020CHIARELLI   ON           R$  000000000002100000000000210000000000021000000000002100000000000210000000000020000000000002800001000000000000001000000000000000021000000000000000009999123100000010000000000000BRCCHIACNOR5123
012013083008CCHI4       010CHIARELLI   PN           R$  000000000002100000000000220000000000021000000000002100000000000220000000000022000000000002300002000000000000020000000000000000430000000000000000009999123100000010000000000000BRCCHIACNPR2122
012013083002CCPR3       010CYRE COM-CCPON      NM   R$  000000000208800000000021100000000002080000000000208200000000020800000000002080000000000218800004000000000000001300000000000002707800000000000000009999123100000010000000000000BRCCPRACNOR9107
012013083096CCPR3F      020CYRE COM-CCPON      NM   R$  000000000218700000000021870000000002187000000000218700000000021870000000002065000000000218700002000000000000000080000000000000174960000000000000009999123100000010000000000000BRCCPRACNOR9107
012013083002CCRO3       010CCR SA      ON      NM   R$  000000000174400000000017500000000001716000000000172800000000017350000000001725000000000173508903000000000004907300000000008483104600000000000000009999123100000010000000000000BRCCROACNOR2122
012013083096CCRO3F      020CCR SA      ON      NM   R$  000000000173100000000017680000000001711000000000172900000000017210000000001721000000000176900084000000000000002521000000000004361206000000000000009999123100000010000000000000BRCCROACNOR2122
012013083002CCXC3       010CCX CARVAO  ON      NM   R$  000000000013800000000001460000000000135000000000014000000000001390000000000138000000000013901628000000000004457100000000000624157200000000000000009999123100000010000000000000BRCCXCACNOR5100
012013083096CCXC3F      020CCX CARVAO  ON      NM   R$  000000000014300000000001430000000000131000000000013500000000001310000000000131000000000014300008000000000000000195000000000000026519000000000000009999123100000010000000000000BRCCXCACNOR5100
012013083062CCXC3T      030CCX CARVAO  ON      NM016R$  000000000014300000000001440000000000143000000000014300000000001440000000000000000000000000000002000000000000030000000000000004310163000000000000009999123100000010000000000000BRCCXCACNOR5100
012013083062CCXC3T      030CCX CARVAO  ON      NM017R$  000000000014100000000001420000000000139000000000013900000000001400000000000000000000000000000004000000000000160000000000000022380260000000000000009999123100000010000000000000BRCCXCACNOR5100
012013083096CEEB3F      020COELBA      ON           R$  000000000350000000000035000000000003089000000000319500000000030890000000003089000000000441500003000000000000000062000000000000198094000000000000009999123100000010000000000000BRCEEBACNOR3163
012013083096CEEB5F      020COELBA      PNA          R$  000000000369900000000036990000000003699000000000369900000000036990000000003009000000000428300001000000000000000002000000000000007398000000000000009999123100000010000000000000BRCEEBACNPA6157
012013083012CEOC11B     010FII CEO CCP CI      MB   R$  000000000879900000000088000000000008700000000000878300000000088000000000008702000000000879500054000000000000002663000000000023389828000000000000009999123100000010000000000000BRCEOCCTF003109
012013083002CESP3       010CESP        ON      N1   R$  000000000172000000000017500000000001697000000000173300000000017390000000001698000000000173900007000000000000007600000000000013176800000000000000009999123100000010000000000000BRCESPACNOR3160
012013083002CESP6       010CESP        PNB     N1   R$  000000000210200000000021250000000002073000000000211000000000021250000000002125000000000212603788000000000001416300000000002989426800000000000000009999123100000010000000000000BRCESPACNPB4119
012013083096CESP6F      020CESP        PNB     N1   R$  000000000211000000000021290000000002031000000000209200000000021290000000002076000000000212900036000000000000001088000000000002276757000000000000009999123100000010000000000000BRCESPACNPB4119
012013083002CGAS3       010COMGAS      ON           R$  000000000510000000000051000000000005000000000000502500000000050000000000005000000000000514900007000000000000000800000000000004020000000000000000009999123100000010000000000000BRCGASACNOR0132
012013083002CGAS5       010COMGAS      PNA          R$  000000000545100000000054520000000005361000000000536700000000053610000000005350000000000540000093000000000000052200000000000280201800000000000000009999123100000010000000000000BRCGASACNPA3129
012013083096CGAS5F      020COMGAS      PNA          R$  000000000540000000000054050000000005305000000000536500000000053050000000005305000000000540000007000000000000000187000000000001003330000000000000009999123100000010000000000000BRCGASACNPA3129
012013083002CGRA3       010GRAZZIOTIN  ON           R$  000000000156000000000016000000000001556000000000157900000000015990000000001580000000000159900005000000000000000600000000000000947400000000000000009999123100000010000000000000BRCGRAACNOR2061
012013083002CGRA4       010GRAZZIOTIN  PN           R$  000000000165000000000017630000000001645000000000171100000000017000000000001642000000000170000259000000000000039000000000000066761800000000000000009999123100000010000000000000BRCGRAACNPR9061
012013083096CGRA4F      020GRAZZIOTIN  PN           R$  000000000160000000000017220000000001508000000000161700000000015080000000001616000000000172200011000000000000000186000000000000300778000000000000009999123100000010000000000000BRCGRAACNPR9061
012013083002CIEL3       010CIELO       ON      NM   R$  000000000580000000000058490000000005752000000000580300000000058410000000005837000000000584106799000000000005063100000000029384083400000000000000009999123100000010000000000000BRCIELACNOR3111
012013083096CIEL3F      020CIELO       ON      NM   R$  000000000580800000000058700000000005760000000000580800000000058700000000005760000000000587000229000000000000004296000000000024947690000000000000009999123100000010000000000000BRCIELACNOR3111
012013083062CIEL3T      030CIELO       ON      NM090R$  000000000592600000000059500000000005926000000000594400000000059480000000000000000000000000000030000000000000500000000000002972108658000000000000009999123100000010000000000000BRCIELACNOR3111
012013083078CIELI60     070CIEL        ON      NM000R$  000000000002600000000000260000000000026000000000002600000000000260000000000000000000000006500001000000000000000100000000000000002600000000000600002013091600000010000000000000BRCIELACNOR3111
012013083078CIELJ60     070CIEL        ON      NM000R$  000000000004000000000000400000000000040000000000004000000000000400000000000000000000000000000001000000000000000100000000000000004000000000000600002013102100000010000000000000BRCIELACNOR3111
012013083002CLSC4       010CELESC      PN      N2   R$  000000000179600000000017960000000001735000000000174500000000017410000000001741000000000175400125000000000000113600000000000198343600000000000000009999123100000010000000000000BRCLSCACNPR3107
012013083096CLSC4F      020CELESC      PN      N2   R$  000000000168800000000016880000000001688000000000168800000000016880000000001687000000000189800001000000000000000013000000000000021944000000000000009999123100000010000000000000BRCLSCACNPR3107
012013083058CMGR3       010CEMAT       ON           R$  000000000046100000000004900000000000460000000000047900000000004900000000000460000000000049000009000000000000001200000000000000575700000000000000009999123100000010000000000000BRCMGRACNOR7114
012013083058CMGR4       010CEMAT       PN           R$  000000000050000000000005000000000000500000000000050000000000005000000000000315000000000050000002000000000000000700000000000000350000000000000000009999123100000010000000000000BRCMGRACNPR4114
012013083002CMIG3       010CEMIG       ON      N1   R$  000000000186300000000018710000000001853000000000186100000000018600000000001860000000000187000314000000000000119100000000000221655300000000000000009999123100000010000000000000BRCMIGACNOR6208
012013083096CMIG3F      020CEMIG       ON      N1   R$  000000000187600000000018760000000001854000000000186400000000018600000000001860000000000190000037000000000000000949000000000001769473000000000000009999123100000010000000000000BRCMIGACNOR6208
012013083002CMIG4       010CEMIG       PN      N1   R$  000000000187000000000018850000000001842000000000186500000000018600000000001860000000000186607279000000000003720800000000006939830300000000000000009999123100000010000000000000BRCMIGACNPR3208
012013083096CMIG4F      020CEMIG       PN      N1   R$  000000000186900000000019200000000001845000000000187100000000018800000000001880000000000189900802000000000000023832000000000044588399000000000000009999123100000010000000000000BRCMIGACNPR3208
012013083062CMIG4T      030CEMIG       PN      N1031R$  000000000188700000000018880000000001875000000000188300000000018760000000000000000000000000000004000000000000000700000000000001318646000000000000009999123100000010000000000000BRCMIGACNPR3208
012013083062CMIG4T      030CEMIG       PN      N1060R$  000000000188200000000018830000000001882000000000188200000000018830000000000000000000000000000002000000000000000500000000000000941449000000000000009999123100000010000000000000BRCMIGACNPR3208
012013083062CMIG4T      030CEMIG       PN      N1090R$  000000000190800000000019120000000001908000000000190900000000019100000000000000000000000000000006000000000000001800000000000003436923000000000000009999123100000010000000000000BRCMIGACNPR3208
012013083062CMIG4T      030CEMIG       PN      N1122R$  000000000191500000000019160000000001915000000000191500000000019160000000000000000000000000000002000000000000000300000000000000574690000000000000009999123100000010000000000000BRCMIGACNPR3208
012013083078CMIGI20     070CMIG        PN      N1000R$  000000000001000000000000100000000000010000000000001000000000000100000000000008000000000002000001000000000000000700000000000000007000000000000200002013091600000010000000000000BRCMIGACNPR3208
012013083012CNES11B     010FII CENESP  CI  ER  MB   R$  000000001239500000000123950000000012300000000001230200000000123000000000012301000000001250000008000000000000000424000000000005216435000000000000009999123100000010000000000000BRCNESCTF001125
012013083002COCA11B     010COCA COLA   DRN     MB   R$  000000000913000000000091300000000009130000000000913000000000091300000000009012000000000937300004000000000000108000000000000986040000000000000000009999123100000010000000000000BRCOCABDR002108
012013083002COCE3       010COELCE      ON           R$  000000000403000000000041190000000004030000000000407800000000041190000000003860000000000408900011000000000000003600000000000014683200000000000000009999123100000010000000000000BRCOCEACNOR0132
012013083002COCE5       010COELCE      PNA          R$  000000000400000000000040200000000003951000000000399500000000040000000000003980000000000400000329000000000000110900000000000443121500000000000000009999123100000010000000000000BRCOCEACNPA3133
012013083096COCE5F      020COELCE      PNA          R$  000000000408100000000041520000000003909000000000403500000000041500000000003852000000000415000016000000000000000226000000000000912096000000000000009999123100000010000000000000BRCOCEACNPA3133
012013083002CPFE3       010CPFL ENERGIAON  ED  NM   R$  000000000192800000000019550000000001902000000000194000000000019500000000001950000000000195302581000000000000657700000000001276046000000000000000009999123100000010000000000000BRCPFEACNOR0122
012013083096CPFE3F      020CPFL ENERGIAON  ED  NM   R$  000000000190600000000021050000000001903000000000194000000000019900000000001941000000000199000029000000000000000893000000000001734124000000000000009999123100000010000000000000BRCPFEACNOR0122
012013083002CPLE3       010COPEL       ON      N1   R$  000000000204900000000020890000000002042000000000205400000000020500000000002035000000000205000071000000000000027600000000000056701100000000000000009999123100000010000000000000BRCPLEACNOR8128
012013083002CPLE6       010COPEL       PNB     N1   R$  000000000289400000000029090000000002820000000000284200000000028550000000002841000000000285502452000000000000643000000000001827758300000000000000009999123100000010000000000000BRCPLEACNPB9125
012013083096CPLE6F      020COPEL       PNB     N1   R$  000000000287000000000029990000000002709000000000285700000000029990000000002840000000000299900040000000000000000934000000000002669221000000000000009999123100000010000000000000BRCPLEACNPB9125
012013083002CPRE3       010CPFL RENOVAVON      NM   R$  000000000119000000000011980000000001165000000000118100000000011980000000001165000000000119800023000000000004211100000000004973334400000000000000009999123100000010000000000000BRCPREACNOR5100
012013083096CPRE3F      020CPFL RENOVAVON      NM   R$  000000000118500000000011850000000001101000000000115900000000011790000000001100000000000117900006000000000000000212000000000000245727000000000000009999123100000010000000000000BRCPREACNOR5100
012013083002CRDE3       010CR2         ON      NM   R$  000000000040800000000004250000000000408000000000042400000000004200000000000420000000000043000003000000000000003200000000000001357800000000000000009999123100000010000000000000BRCRDEACNOR1108
012013083002CREM3       010CREMER      ON  EJ  NM   R$  000000000141100000000014690000000001411000000000143300000000014540000000001416000000000145500057000000000000048100000000000068933800000000000000009999123100000010000000000000BRCREMACNOR2167
012013083096CREM3F      020CREMER      ON  EJ  NM   R$  000000000140300000000014380000000001369000000000142500000000014380000000001386000000000143800003000000000000000040000000000000057000000000000000009999123100000010000000000000BRCREMACNOR2167
012013083002CRIV3       010ALFA FINANC ON           R$  000000000050600000000005060000000000506000000000050600000000005060000000000000000000000050600009000000000000001600000000000000809600000000000000009999123100000010000000000000BRCRIVACNOR4190
012013083096CRIV3F      020ALFA FINANC ON           R$  000000000042000000000004200000000000420000000000042000000000004200000000000400000000000055000002000000000000000050000000000000021000000000000000009999123100000010000000000000BRCRIVACNOR4190
012013083002CRIV4       010ALFA FINANC PN           R$  000000000044100000000004570000000000440000000000045300000000004570000000000443000000000045700014000000000000007900000000000003579200000000000000009999123100000010000000000000BRCRIVACNPR1190
012013083096CRIV4F      020ALFA FINANC PN           R$  000000000044000000000004400000000000440000000000044000000000004400000000000442000000000049000001000000000000000025000000000000011000000000000000009999123100000010000000000000BRCRIVACNPR1190
012013083002CRUZ3       010SOUZA CRUZ  ON           R$  000000000254800000000025700000000002485000000000250300000000025000000000002500000000000251306496000000000004034800000000010099228200000000000000009999123100000010000000000000BRCRUZACNOR0246
012013083096CRUZ3F      020SOUZA CRUZ  ON           R$  000000000255000000000025990000000002465000000000251700000000025840000000002466000000000258400111000000000000003285000000000008269679000000000000009999123100000010000000000000BRCRUZACNOR0246
012013083062CRUZ3T      030SOUZA CRUZ  ON        017R$  000000000250700000000025080000000002507000000000250700000000025080000000000000000000000000000002000000000000003000000000000007521713000000000000009999123100000010000000000000BRCRUZACNOR0246
012013083062CRUZ3T      030SOUZA CRUZ  ON        031R$  000000000251900000000025210000000002511000000000251600000000025210000000000000000000000000000008000000000000007200000000000018115847000000000000009999123100000010000000000000BRCRUZACNOR0246
012013083062CRUZ3T      030SOUZA CRUZ  ON        060R$  000000000253600000000025410000000002531000000000253600000000025340000000000000000000000000000008000000000000007300000000000018513567000000000000009999123100000010000000000000BRCRUZACNOR0246
012013083078CRUZJ25     070CRUZ        ON        000R$  000000000009200000000000920000000000092000000000009200000000000920000000000000000000000000000001000000000000001000000000000000092000000000000250002013102100000010000000000000BRCRUZACNOR0246
012013083002CSAN3       010COSAN       ON      NM   R$  000000000403600000000041580000000004000000000000408700000000041580000000004153000000000415803982000000000001970400000000008054548000000000000000009999123100000010000000000000BRCSANACNOR6108
012013083096CSAN3F      020COSAN       ON      NM   R$  000000000402000000000041960000000004001000000000407300000000041900000000004003000000000419000046000000000000001716000000000006991513000000000000009999123100000010000000000000BRCSANACNOR6108
012013083062CSAN3T      030COSAN       ON      NM017R$  000000000402400000000040250000000004024000000000402400000000040250000000000000000000000000000002000000000000001000000000000004024635000000000000009999123100000010000000000000BRCSANACNOR6108
012013083062CSAN3T      030COSAN       ON      NM045R$  000000000406000000000040610000000004060000000000406000000000040610000000000000000000000000000002000000000000002000000000000008121204000000000000009999123100000010000000000000BRCSANACNOR6108
012013083078CSANJ39     070CSAN        ON      NM000R$  000000000021800000000002180000000000218000000000021800000000002180000000000000000000000000000001000000000000017500000000000003815000000000000390002013102100000010000000000000BRCSANACNOR6108
012013083002CSMG3       010COPASA      ON      NM   R$  000000000281000000000028750000000002792000000000283300000000028750000000002875000000000287603423000000000000688700000000001951464000000000000000009999123100000010000000000000BRCSMGACNOR5127
012013083096CSMG3F      020COPASA      ON      NM   R$  000000000289200000000030000000000002705000000000283100000000030000000000002781000000000300000034000000000000000750000000000002123750000000000000009999123100000010000000000000BRCSMGACNOR5127
012013083062CSMG3T      030COPASA      ON      NM031R$  000000000287600000000028800000000002876000000000287900000000028800000000000000000000000000000018000000000000010000000000000028794178000000000000009999123100000010000000000000BRCSMGACNOR5127
012013083014CSMO11      010ISHARES CSMOCI           R$  000000000455100000000045510000000004551000000000455100000000045510000000003800000000000475900001000000000000000200000000000000910200000000000000009999123100000010000000000000BRCSMOCTF002100
012013083002CSNA3       010SID NACIONALON           R$  000000000085900000000008690000000000833000000000084500000000008420000000000842000000000084315163000000000010957000000000009265283600000000000000009999123100000010000000000000BRCSNAACNOR6243
012013083096CSNA3F      020SID NACIONALON           R$  000000000085300000000008670000000000836000000000084900000000008440000000000842000000000084400094000000000000003166000000000002690228000000000000009999123100000010000000000000BRCSNAACNOR6243
012013083062CSNA3T      030SID NACIONALON        017R$  000000000084500000000008460000000000845000000000084500000000008460000000000000000000000000000002000000000000001500000000000001268178000000000000009999123100000010000000000000BRCSNAACNOR6243
012013083062CSNA3T      030SID NACIONALON        060R$  000000000087000000000008710000000000853000000000086400000000008540000000000000000000000000000004000000000000004500000000000003891971000000000000009999123100000010000000000000BRCSNAACNOR6243
012013083062CSNA3T      030SID NACIONALON        090R$  000000000088200000000008830000000000882000000000088200000000008830000000000000000000000000000002000000000000001000000000000000882733000000000000009999123100000010000000000000BRCSNAACNOR6243
012013083062CSNA3T      030SID NACIONALON        150R$  000000000089400000000008950000000000894000000000089400000000008950000000000000000000000000000002000000000000030000000000000026839953000000000000009999123100000010000000000000BRCSNAACNOR6243
012013083062CSNA3T      030SID NACIONALON        180R$  000000000088800000000008890000000000888000000000088800000000008890000000000000000000000000000002000000000000001000000000000000888249000000000000009999123100000010000000000000BRCSNAACNOR6243
012013083078CSNAI10     070CSNA        ON        000R$  000000000000400000000000040000000000003000000000000300000000000030000000000000000000000003000006000000000000003500000000000000013500000000000100002013091600000010000000000000BRCSNAACNOR6243
012013083078CSNAI6      070CSNA        ON        000R$  000000000029000000000002900000000000260000000000026700000000002600000000000000000000000000000003000000000000002000000000000000535000000000000058002013091600000010000000000000BRCSNAACNOR6242
012013083078CSNAI64     070CSNA        ON        000R$  000000000023000000000002300000000000230000000000023000000000002300000000000000000000000000000001000000000000001000000000000000230000000000000062002013091600000010000000000000BRCSNAACNOR6242
012013083078CSNAI8      070CSNA        ON        000R$  000000000008200000000000890000000000080000000000008600000000000800000000000050000000000000000004000000000000007100000000000000616300000000000078002013091600000010000000000000BRCSNAACNOR6242
012013083078CSNAI80     070CSNA  FM    ON        000R$  000000000003600000000000370000000000031000000000003400000000000310000000000000000000000000000007000000000000020500000000000000710500000000000086002013091600000010000000000000BRCSNAACNOR6243
012013083078CSNAI82     070CSNA        ON        000R$  000000000006500000000000650000000000065000000000006500000000000650000000000000000000000000000001000000000000000100000000000000006500000000000080002013091600000010000000000000BRCSNAACNOR6242
012013083078CSNAI84     070CSNA  FM    ON        000R$  000000000004700000000000480000000000040000000000004300000000000400000000000020000000000000000016000000000000037900000000000001645500000000000084002013091600000010000000000000BRCSNAACNOR6243
012013083078CSNAI88     070CSNA  FM    ON        000R$  000000000002300000000000230000000000017000000000002000000000000170000000000018000000000000000006000000000000009500000000000000194500000000000088002013091600000010000000000000BRCSNAACNOR6243
012013083078CSNAI9      070CSNA  FM    ON        000R$  000000000001600000000000200000000000013000000000001600000000000130000000000000000000000001800025000000000000064000000000000001057000000000000090002013091600000010000000000000BRCSNAACNOR6243
012013083078CSNAI94     070CSNA        ON        000R$  000000000001000000000000100000000000010000000000001000000000000100000000000006000000000000000001000000000000002000000000000000020000000000000094002013091600000010000000000000BRCSNAACNOR6243
012013083078CSNAI96     070CSNA        ON        000R$  000000000000700000000000070000000000007000000000000700000000000070000000000000000000000000000005000000000000003000000000000000021000000000000096002013091600000010000000000000BRCSNAACNOR6243
012013083078CSNAI98     070CSNA        ON        000R$  000000000000500000000000060000000000005000000000000500000000000060000000000000000000000000000014000000000000044500000000000000252000000000000098002013091600000010000000000000BRCSNAACNOR6243
012013083078CSNAJ20     070CSNA        ON        000R$  000000000001300000000000130000000000013000000000001300000000000130000000000000000000000000000001000000000000000100000000000000001300000000000102002013102100000010000000000000BRCSNAACNOR6243
012013083078CSNAJ8      070CSNA        ON        000R$  000000000010700000000001070000000000107000000000010700000000001070000000000000000000000013400002000000000000002000000000000000214000000000000078002013102100000010000000000000BRCSNAACNOR6242
012013083078CSNAJ86     070CSNA  FM    ON        000R$  000000000006400000000000640000000000063000000000006300000000000630000000000000000000000000000003000000000000004600000000000000293300000000000084002013102100000010000000000000BRCSNAACNOR6242
012013083078CSNAJ9      070CSNA  FM    ON        000R$  000000000004700000000000520000000000043000000000004700000000000430000000000000000000000005100037000000000000024900000000000001195100000000000088002013102100000010000000000000BRCSNAACNOR6242
012013083078CSNAJ92     070CSNA  FM    ON        000R$  000000000003200000000000370000000000031000000000003200000000000370000000000000000000000000000018000000000000047700000000000001562100000000000092002013102100000010000000000000BRCSNAACNOR6243
012013083078CSNAJ94     070CSNA        ON        000R$  000000000002700000000000270000000000027000000000002700000000000270000000000000000000000000000001000000000000003600000000000000097200000000000094002013102100000010000000000000BRCSNAACNOR6243
012013083078CSNAJ98     070CSNA        ON        000R$  000000000001900000000000190000000000019000000000001900000000000190000000000003000000000000000001000000000000005000000000000000095000000000000098002013102100000010000000000000BRCSNAACNOR6243
012013083078CSNAK20     070CSNA        ON        000R$  000000000002200000000000220000000000022000000000002200000000000220000000000000000000000000000001000000000000004000000000000000088000000000000102002013111800000010000000000000BRCSNAACNOR6243
012013083078CSNAK40     070CSNA        ON        000R$  000000000001900000000000190000000000019000000000001900000000000190000000000000000000000000000001000000000000004000000000000000076000000000000104002013111800000010000000000000BRCSNAACNOR6243
012013083078CSNAK60     070CSNA        ON        000R$  000000000001600000000000160000000000016000000000001600000000000160000000000000000000000000000001000000000000004000000000000000064000000000000106002013111800000010000000000000BRCSNAACNOR6243
012013083078CSNAK9      070CSNA        ON        000R$  000000000005100000000000510000000000051000000000005100000000000510000000000000000000000000000001000000000000001500000000000000076500000000000090002013111800000010000000000000BRCSNAACNOR6243
012013083082CSNAU80     080CSNAE FM    ON        000R$  000000000003500000000000500000000000035000000000004300000000000430000000000000000000000000000069000000000000226500000000000009783500000000000086002013091600000010000000000000BRCSNAACNOR6243
012013083082CSNAU82     080CSNAE FM    ON        000R$  000000000001600000000000160000000000016000000000001600000000000160000000000000000000000000000001000000000000001000000000000000016000000000000080002013091600000010000000000000BRCSNAACNOR6242
012013083082CSNAU84     080CSNAE FM    ON        000R$  000000000003300000000000380000000000033000000000003400000000000340000000000000000000000000000017000000000000028000000000000000954000000000000084002013091600000010000000000000BRCSNAACNOR6243
012013083082CSNAU88     080CSNAE FM    ON        000R$  000000000005200000000000600000000000045000000000005500000000000540000000000000000000000000000047000000000000149300000000000008279700000000000088002013091600000010000000000000BRCSNAACNOR6243
012013083082CSNAU9      080CSNAE       ON        000R$  000000000006200000000000760000000000058000000000006700000000000750000000000040000000000007500016000000000000035800000000000002408500000000000090002013091600000010000000000000BRCSNAACNOR6243
012013083082CSNAV6      080CSNAE       ON        000R$  000000000000200000000000020000000000002000000000000200000000000020000000000003000000000001100001000000000000002000000000000000004000000000000058002013102100000010000000000000BRCSNAACNOR6242
012013083082CSNAV62     080CSNAE       ON        000R$  000000000000300000000000030000000000003000000000000300000000000030000000000000000000000000000001000000000000000700000000000000002100000000000060002013102100000010000000000000BRCSNAACNOR6242
012013083082CSNAV7      080CSNAE       ON        000R$  000000000001200000000000120000000000012000000000001200000000000120000000000009000000000002500001000000000000002700000000000000032400000000000068002013102100000010000000000000BRCSNAACNOR6242
012013083082CSNAV8      080CSNAE       ON        000R$  000000000002800000000000340000000000027000000000002900000000000270000000000028000000000003200040000000000000011200000000000000327600000000000078002013102100000010000000000000BRCSNAACNOR6242
012013083082CSNAV82     080CSNAE FM    ON        000R$  000000000003600000000000360000000000036000000000003600000000000360000000000000000000000000000001000000000000001000000000000000036000000000000080002013102100000010000000000000BRCSNAACNOR6242
012013083082CSNAV86     080CSNAE FM    ON        000R$  000000000005600000000000560000000000056000000000005600000000000560000000000000000000000000000002000000000000003500000000000000196000000000000084002013102100000010000000000000BRCSNAACNOR6242
012013083082CSNAV9      080CSNAE       ON        000R$  000000000007400000000000740000000000074000000000007400000000000740000000000060000000000007600001000000000000000100000000000000007400000000000088002013102100000010000000000000BRCSNAACNOR6242
012013083082CSNAW84     080CSNAE       ON        000R$  000000000005600000000000560000000000056000000000005600000000000560000000000000000000000000000001000000000000001000000000000000056000000000000084002013111800000010000000000000BRCSNAACNOR6243
012013083002CTAX11      010CONTAX      UNT     N2   R$  000000000181100000000018500000000001780000000000180900000000018300000000001780000000000183000059000000000000065000000000000117608400000000000000009999123100000010000000000000BRCTAXCDAM19100
012013083002CTAX3       010CONTAX      ON      N2   R$  000000000039900000000004000000000000399000000000039900000000004000000000000345000000000040000005000000000000000900000000000000359700000000000000009999123100000010000000000000BRCTAXACNOR3113
012013083002CTAX4       010CONTAX      PN      N2   R$  000000000035100000000003600000000000328000000000035500000000003590000000000355000000000035900152000000000000089800000000000031913100000000000000009999123100000010000000000000BRCTAXACNPR0114
012013083002CTIP3       010CETIP       ON      NM   R$  000000000235600000000023740000000002298000000000232100000000023400000000002325000000000234006428000000000002307300000000005357488900000000000000009999123100000010000000000000BRCTIPACNOR2119
012013083096CTIP3F      020CETIP       ON      NM   R$  000000000230200000000024400000000002157000000000233600000000024400000000002312000000000244000061000000000000001958000000000004578064000000000000009999123100000010000000000000BRCTIPACNOR2119
012013083078CTIPI64     070CTIP        ON      NM000R$  000000000002300000000000230000000000023000000000002300000000000230000000000000000000000000000001000000000000014300000000000000328900000000000245002013091600000010000000000000BRCTIPACNOR2119
012013083078CTIPL61     070CTIPE       ON      NM000R$  000000000017500000000001750000000000175000000000017500000000001750000000000000000000000000000002000000000000050000000000000008750000000000000212502013121600000010000000000000BRCTIPACNOR2119
012013083078CTIPL66     070CTIPE       ON      NM000R$  000000000008100000000000810000000000056000000000005800000000000560000000000000000000000000000004000000000000500000000000000029250000000000000262502013121600000010000000000000BRCTIPACNOR2119
012013083082CTIPX61     080CTIPE       ON      NM000R$  000000000003000000000000400000000000030000000000003500000000000360000000000000000000000000000004000000000000500000000000000017749900000000000212502013121600000010000000000000BRCTIPACNOR2119
012013083002CTKA4       010KARSTEN     PN           R$  000000000008800000000000900000000000088000000000008800000000000890000000000084000000000008900007000000000000004700000000000000415400000000000000009999123100000010000000000000BRCTKAACNPR7041
012013083002CTNM4       010COTEMINAS   PN           R$  000000000023800000000002380000000000230000000000023600000000002300000000000222000000000023600009000000000000085900000000000020331800000000000000009999123100000010000000000000BRCTNMACNPR6128
012013083096CTSA4F      020SANTANENSE  PN           R$  000000000060000000000006000000000000600000000000060000000000006000000000000583000000000060000001000000000000000001000000000000000600000000000000009999123100000010000000000000BRCTSAACNPR0051
012013083012CXCE11B     010FII CX CEDAECI      MB   R$  000000019449800000001945000000000194498000000019449900000001945000000000189100000000019450000003000000000000000006000000000001166994000000000000009999123100000010000000000000BRCXCECTF004137
012013083012CXTL11      010FII CX TRX  CI           R$  000000007850000000000785000000000078500000000007850000000000785000000000075000000000007850000001000000000000000010000000000000785000000000000000009999123100000010000000000000BRCXTLCTF003121
012013083002CYRE3       010CYRELA REALTON      NM   R$  000000000158800000000015990000000001542000000000156200000000015720000000001571000000000157207480000000000004730800000000007395495000000000000000009999123100000010000000000000BRCYREACNOR7125
012013083096CYRE3F      020CYRELA REALTON      NM   R$  000000000155500000000015990000000001543000000000156300000000015930000000001545000000000159300031000000000000000895000000000001399455000000000000009999123100000010000000000000BRCYREACNOR7125
012013083078CYREI15     070CYRE        ON      NM000R$  000000000008600000000000860000000000086000000000008600000000000860000000000000000000000000000001000000000000004000000000000000344000000000000150002013091600000010000000000000BRCYREACNOR7125
012013083078CYREI16     070CYRE  FM    ON      NM000R$  000000000003400000000000340000000000026000000000003000000000000260000000000000000000000000000006000000000000018100000000000000554500000000000160002013091600000010000000000000BRCYREACNOR7125
012013083078CYREI17     070CYRE  FM    ON      NM000R$  000000000000900000000000090000000000007000000000000700000000000070000000000006000000000000000002000000000000007800000000000000059200000000000170002013091600000010000000000000BRCYREACNOR7125
012013083078CYREI44     070CYRE        ON      NM000R$  000000000012600000000001260000000000126000000000012600000000001260000000000000000000000000000001000000000000004000000000000000504000000000000145002013091600000010000000000000BRCYREACNOR7125
012013083078CYREI45     070CYRE  FM    ON      NM000R$  000000000005700000000000590000000000055000000000005600000000000590000000000000000000000000000006000000000000018600000000000001057200000000000155002013091600000010000000000000BRCYREACNOR7125
012013083078CYREI46     070CYRE  FM    ON      NM000R$  000000000001300000000000130000000000012000000000001200000000000120000000000000000000000000000015000000000000010800000000000000136600000000000165002013091600000010000000000000BRCYREACNOR7125
012013083078CYREJ16     070CYRE  FM    ON      NM000R$  000000000007000000000000740000000000065000000000007000000000000650000000000000000000000000000005000000000000017500000000000001232000000000000160002013102100000010000000000000BRCYREACNOR7125
012013083078CYREJ45     070CYRE  FM    ON      NM000R$  000000000009700000000000970000000000089000000000009200000000000890000000000000000000000000000004000000000000012300000000000001132400000000000155002013102100000010000000000000BRCYREACNOR7125
012013083078CYREJ46     070CYRE  FM    ON      NM000R$  000000000004900000000000500000000000049000000000004900000000000500000000000000000000000000000002000000000000006000000000000000296500000000000165002013102100000010000000000000BRCYREACNOR7125
012013083082CYREU14     080CYREE       ON      NM000R$  000000000000900000000000090000000000009000000000000900000000000090000000000000000000000000000001000000000000000500000000000000004500000000000140002013091600000010000000000000BRCYREACNOR7125
012013083082CYREU15     080CYREE FM    ON      NM000R$  000000000002300000000000260000000000023000000000002500000000000260000000000000000000000000000002000000000000002200000000000000056000000000000150002013091600000010000000000000BRCYREACNOR7125
012013083082CYREU16     080CYREE FM    ON      NM000R$  000000000005400000000000700000000000054000000000006600000000000680000000000000000000000000000007000000000000020900000000000001392100000000000160002013091600000010000000000000BRCYREACNOR7125
012013083082CYREU45     080CYREE FM    ON      NM000R$  000000000003300000000000440000000000033000000000003600000000000370000000000000000000000000000006000000000000014500000000000000523700000000000155002013091600000010000000000000BRCYREACNOR7125
012013083082CYREU46     080CYREE FM    ON      NM000R$  000000000010400000000001080000000000092000000000010200000000001080000000000000000000000000000006000000000000012700000000000001296200000000000165002013091600000010000000000000BRCYREACNOR7125
012013083082CYREV15     080CYREE FM    ON      NM000R$  000000000005000000000000500000000000050000000000005000000000000500000000000000000000000000000001000000000000003500000000000000175000000000000150002013102100000010000000000000BRCYREACNOR7125
012013083082CYREV16     080CYREE FM    ON      NM000R$  000000000009100000000000950000000000091000000000009300000000000950000000000000000000000000000003000000000000009200000000000000856500000000000160002013102100000010000000000000BRCYREACNOR7125
012013083082CYREV46     080CYREE FM    ON      NM000R$  000000000012000000000001240000000000120000000000012100000000001240000000000000000000000000000003000000000000008500000000000001034000000000000165002013102100000010000000000000BRCYREACNOR7125
012013083002CZLT11      010COSAN LTD   DR3          R$  000000000316400000000032310000000003157000000000319600000000032100000000003210000000000321800603000000000000381600000000001219605400000000000000009999123100000010000000000000BRCZLTBDR009105
012013083096CZLT11F     020COSAN LTD   DR3          R$  000000000319400000000031940000000003155000000000318000000000031550000000003050000000000315500002000000000000000145000000000000461180000000000000009999123100000010000000000000BRCZLTBDR009105
012013083002DAGB11      010DUFRY AG    DR3          R$  000000003400000000000340000000000031121000000003162500000000317000000000031700000000003200000215000000000000016917000000000535014951000000000000009999123100000010000000000000BRDAGBBDR008100
012013083002DASA3       010DASA        ON      NM   R$  000000000109000000000011090000000001087000000000110300000000011090000000001103000000000110904213000000000003236200000000003571241800000000000000009999123100000010000000000000BRDASAACNOR1108
012013083096DASA3F      020DASA        ON      NM   R$  000000000109600000000011900000000001096000000000110900000000011900000000001092000000000119000027000000000000000749000000000000831214000000000000009999123100000010000000000000BRDASAACNOR1108
012013083002DAYC4       010DAYCOVAL    PN      N2   R$  000000000076100000000007930000000000735000000000076700000000007930000000000767000000000079300496000000000000154600000000000118647100000000000000009999123100000010000000000000BRDAYCACNPR2128
012013083096DAYC4F      020DAYCOVAL    PN      N2   R$  000000000076500000000007650000000000722000000000074400000000007650000000000722000000000076600004000000000000000097000000000000072184000000000000009999123100000010000000000000BRDAYCACNPR2128
012013083002DIRR3       010DIRECIONAL  ON      NM   R$  000000000117500000000012270000000001165000000000120100000000012070000000001207000000000121003708000000000001153500000000001385963100000000000000009999123100000010000000000000BRDIRRACNOR0104
012013083096DIRR3F      020DIRECIONAL  ON      NM   R$  000000000118200000000012490000000001131000000000119000000000011710000000001171000000000120700319000000000000007254000000000008632782000000000000009999123100000010000000000000BRDIRRACNOR0104
012013083062DIRR3T      030DIRECIONAL  ON      NM017R$  000000000121400000000012150000000001214000000000121400000000012150000000000000000000000000000002000000000000035000000000000042505417000000000000009999123100000010000000000000BRDIRRACNOR0104
012013083062DIRR3T      030DIRECIONAL  ON      NM090R$  000000000120000000000012010000000001199000000000120000000000012000000000000000000000000000000004000000000000003000000000000003600972000000000000009999123100000010000000000000BRDIRRACNOR0104
012013083014DIVO11      010IT NOW IDIV CI           R$  000000000318900000000031900000000003149000000000316800000000031900000000003190000000000319700019000000000000014490000000000045904530000000000000009999123100000010000000000000BRDIVOCTF002100
012013083096DIVO11F     020IT NOW IDIV CI           R$  000000000304800000000031500000000003000000000000308500000000031500000000003048000000000316500003000000000000000015000000000000046284000000000000009999123100000010000000000000BRDIVOCTF002100
012013083012DRIT11B     010FII MTGESTAOCI      MB   R$  000000001155000000000115500000000011550000000001155000000000115500000000011205000000001170000001000000000000000020000000000000231000000000000000009999123100000010000000000000BRDRITCTF009122
012013083002DTCY3       010DTCOM-DIRECTON           R$  000000000004200000000000420000000000040000000000004100000000000410000000000041000000000004400009000000000000018900000000000000788900000000000000009999123100000010000000000000BRDTCYACNOR5107
012013083002DTEX3       010DURATEX     ON      NM   R$  000000000117900000000012270000000001157000000000120300000000012080000000001208000000000121806387000000000003458600000000004164423000000000000000009999123100000010000000000000BRDTEXACNOR3115
012013083096DTEX3F      020DURATEX     ON      NM   R$  000000000116100000000012650000000001144000000000119600000000012650000000001188000000000126500084000000000000002683000000000003209668000000000000009999123100000010000000000000BRDTEXACNOR3115
