00COTAHIST.2013BOVESPA 20131011                                                                                                                                                                                                                      
012013101102ABCB4       010ABC BRASIL  PN      N2   R$  000000000136000000000013600000000001310000000000133100000000013100000000001310000000000131400567000000000000178900000000000238121900000000000000009999123100000010000000000000BRABCBACNPR4120
012013101196ABCB4F      020ABC BRASIL  PN      N2   R$  000000000125800000000013320000000001258000000000128200000000013300000000001330000000000135000004000000000000000125000000000000160270000000000000009999123100000010000000000000BRABCBACNPR4120
012013101112ABCP11      010FII ABC IMOBCI           R$  000000000098500000000009860000000000985000000000098500000000009860000000000946000000000098600002000000000000000130000000000000128080000000000000009999123100000010000000000000BRABCPCTF000216
012013101102ABRE11      010ABRIL EDUCA UNT     N2   R$  000000000330600000000034340000000003257000000000332500000000032570000000003257000000000331400999000000000000317500000000001055866300000000000000009999123100000010000000000000BRABRECDAM15102
012013101196ABRE11F     020ABRIL EDUCA UNT     N2   R$  000000000337500000000034120000000003292000000000337900000000033040000000003200000000000341200008000000000000000113000000000000381934000000000000009999123100000010000000000000BRABRECDAM15102
012013101102AEDU3       010ANHANGUERA  ON      NM   R$  000000000134400000000013690000000001331000000000134500000000013690000000001367000000000136904727000000000001768200000000002379893700000000000000009999123100000010000000000000BRAEDUACNOR9107
012013101196AEDU3F      020ANHANGUERA  ON      NM   R$  000000000133500000000013510000000001335000000000134400000000013510000000001340000000000136000010000000000000000268000000000000360877000000000000009999123100000010000000000000BRAEDUACNOR9107
012013101112AEFI11      010FII AESAPAR CI           R$  000000001210000000000121290000000011910000000001197400000000121290000000011950000000001212900014000000000000000979000000000011723258000000000000009999123100000010000000000000BRAEFICTF002122
012013101102AELP3       010AES ELPA    ON           R$  000000000090900000000009090000000000900000000000090600000000009000000000000880000000000090000003000000000000000300000000000000271800000000000000009999123100000010000000000000BRAELPACNOR2119
012013101112AGCX11      010FII AG CAIXACI           R$  000000009450000000000945000000000094211000000009448100000000945000000000094211000000009450000017000000000000000082000000000007747489000000000000009999123100000010000000000000BRAGCXCTF003111
012013101102AGRO3       010BRASILAGRO  ON      NM   R$  000000000098900000000009930000000000973000000000098400000000009850000000000985000000000099500143000000000000034500000000000033970400000000000000009999123100000010000000000000BRAGROACNOR7102
012013101162AGRO3T      030BRASILAGRO  ON      NM090R$  000000000100900000000010100000000001009000000000100900000000010100000000000000000000000000000002000000000000002000000000000002018218000000000000009999123100000010000000000000BRAGROACNOR7102
012013101162AGRO3T      030BRASILAGRO  ON      NM360R$  000000000109500000000010960000000001095000000000109500000000010960000000000000000000000000000002000000000000000100000000000000109543000000000000009999123100000010000000000000BRAGROACNOR7102
012013101102ALLL3       010ALL AMER LATON      NM   R$  000000000087100000000008760000000000838000000000084600000000008460000000000846000000000084909183000000000005848300000000004952057500000000000000009999123100000010000000000000BRALLLACNOR6118
012013101196ALLL3F      020ALL AMER LATON      NM   R$  000000000086100000000008650000000000836000000000084600000000008440000000000845000000000086300081000000000000002180000000000001845000000000000000009999123100000010000000000000BRALLLACNOR6118
012013101162ALLL3S      030ALL AMER LATON      NM090R$  000000000086700000000008680000000000867000000000086700000000008680000000000000000000000000000002000000000000020000000000000017348325000000000000009999123100000010000000000000BRALLLACNOR6118
012013101162ALLL3T      030ALL AMER LATON      NM090R$  000000000088900000000008900000000000862000000000086800000000008630000000000000000000000000000012000000000000012300000000000010679151000000000000009999123100000010000000000000BRALLLACNOR6118
012013101162ALLL3T      030ALL AMER LATON      NM180R$  000000000088800000000008890000000000888000000000088800000000008890000000000000000000000000000002000000000000004000000000000003554528000000000000009999123100000010000000000000BRALLLACNOR6118
012013101162ALLL3T      030ALL AMER LATON      NM360R$  000000000093600000000009370000000000936000000000093600000000009370000000000000000000000000000002000000000000000400000000000000374440000000000000009999123100000010000000000000BRALLLACNOR6118
012013101162ALLL3T      030ALL AMER LATON      NM017R$  000000000084700000000008500000000000847000000000084800000000008500000000000000000000000000000004000000000000010000000000000008485068000000000000009999123100000010000000000000BRALLLACNOR6118
012013101162ALLL3T      030ALL AMER LATON      NM031R$  000000000085100000000008570000000000845000000000085000000000008570000000000000000000000000000013000000000000019200000000000016331099000000000000009999123100000010000000000000BRALLLACNOR6118
012013101162ALLL3T      030ALL AMER LATON      NM045R$  000000000085500000000008560000000000855000000000085500000000008560000000000000000000000000000002000000000000002000000000000001711448000000000000009999123100000010000000000000BRALLLACNOR6118
012013101162ALLL3T      030ALL AMER LATON      NM060R$  000000000085900000000008600000000000859000000000085900000000008600000000000000000000000000000002000000000000006000000000000005158214000000000000009999123100000010000000000000BRALLLACNOR6118
012013101112ALMI11B     010FII TORRE ALCI      MB   R$  000000031839800000003187000000000318000000000031837400000003180000000000313000000000031800000004000000000000000004000000000001273497000000000000009999123100000010000000000000BRALMICTF003206
012013101102ALPA3       010ALPARGATAS  ON      N1   R$  000000000125200000000012520000000001251000000000125100000000012510000000001251000000000128000008000000000000002400000000000003002700000000000000009999123100000010000000000000BRALPAACNOR0203
012013101196ALPA3F      020ALPARGATAS  ON      N1   R$  000000000121600000000012920000000001216000000000123000000000012920000000001198000000000129200002000000000000000100000000000000123044000000000000009999123100000010000000000000BRALPAACNOR0203
012013101102ALPA4       010ALPARGATAS  PN      N1   R$  000000000147600000000014880000000001453000000000147500000000014750000000001470000000000147500849000000000000372800000000000549965500000000000000009999123100000010000000000000BRALPAACNPR7203
012013101196ALPA4F      020ALPARGATAS  PN      N1   R$  000000000147600000000014870000000001455000000000146700000000014700000000001458000000000149000013000000000000000179000000000000262659000000000000009999123100000010000000000000BRALPAACNPR7203
012013101102ALSC3       010ALIANSCE    ON      NM   R$  000000000211000000000021300000000002090000000000210900000000021140000000002108000000000211400811000000000000180300000000000380308100000000000000009999123100000010000000000000BRALSCACNOR0104
012013101196ALSC3F      020ALIANSCE    ON      NM   R$  000000000209000000000021100000000002085000000000209600000000020850000000002085000000000215800003000000000000000026000000000000054510000000000000009999123100000010000000000000BRALSCACNOR0104
012013101102ALUP11      010ALUPAR      UNT     N2   R$  000000000174000000000017580000000001728000000000174500000000017500000000001745000000000176000134000000000000021300000000000037168800000000000000009999123100000010000000000000BRALUPCDAM15100
012013101196ALUP11F     020ALUPAR      UNT     N2   R$  000000000170000000000017980000000001700000000000173800000000017600000000001700000000000178500005000000000000000167000000000000290294000000000000009999123100000010000000000000BRALUPCDAM15100
012013101102AMAR3       010LOJAS MARISAON      NM   R$  000000000200600000000020300000000001990000000000200800000000020000000000001995000000000200001256000000000000212600000000000427050100000000000000009999123100000010000000000000BRAMARACNOR4109
012013101162AMAR3T      030LOJAS MARISAON      NM017R$  000000000201600000000020170000000002016000000000201600000000020170000000000000000000000000000002000000000000001000000000000002016233000000000000009999123100000010000000000000BRAMARACNOR4109
012013101162AMAR3T      030LOJAS MARISAON      NM031R$  000000000201900000000020200000000002019000000000201900000000020200000000000000000000000000000002000000000000000500000000000001009818000000000000009999123100000010000000000000BRAMARACNOR4109
012013101102AMBV3       010AMBEV       ON           R$  000000000840000000000084700000000008357000000000840800000000084700000000008431000000000847000561000000000000081900000000000688654400000000000000009999123100000010000000000000BRAMBVACNOR4154
012013101196AMBV3F      020AMBEV       ON           R$  000000000832100000000084940000000008321000000000839800000000084940000000008425000000000848400016000000000000000347000000000002914288000000000000009999123100000010000000000000BRAMBVACNOR4154
012013101162AMBV3T      030AMBEV       ON        031R$  000000000846600000000084670000000008466000000000846600000000084670000000000000000000000000000002000000000000001000000000000008466961000000000000009999123100000010000000000000BRAMBVACNOR4154
012013101102AMBV4       010AMBEV       PN           R$  000000000841300000000084760000000008355000000000840700000000084590000000008459000000000846105552000000000001267500000000010657331500000000000000009999123100000010000000000000BRAMBVACNPR1154
012013101196AMBV4F      020AMBEV       PN           R$  000000000847000000000084790000000008365000000000841200000000084420000000008405000000000844200099000000000000002388000000000020093523000000000000009999123100000010000000000000BRAMBVACNPR1154
012013101162AMBV4T      030AMBEV       PN        017R$  000000000847000000000084710000000008470000000000847000000000084710000000000000000000000000000002000000000000001200000000000010165138000000000000009999123100000010000000000000BRAMBVACNPR1154
012013101162AMBV4T      030AMBEV       PN        031R$  000000000847000000000084950000000008459000000000846200000000084950000000000000000000000000000008000000000000009300000000000078702059000000000000009999123100000010000000000000BRAMBVACNPR1154
012013101162AMBV4T      030AMBEV       PN        060R$  000000000851900000000085200000000008519000000000851900000000085200000000000000000000000000000002000000000000000200000000000001703995000000000000009999123100000010000000000000BRAMBVACNPR1154
012013101162AMBV4T      030AMBEV       PN        090R$  000000000864200000000086430000000008642000000000864200000000086430000000000000000000000000000002000000000000000100000000000000864227000000000000009999123100000010000000000000BRAMBVACNPR1154
012013101178AMBVK84     070AMBV        PN        000R$  000000000021000000000002100000000000210000000000021000000000002100000000000000000000000000000001000000000000005900000000000001239000000000000840002013111800000010000000000000BRAMBVACNPR1154
012013101196AORE3F      020ALL ORE     ON           R$  000000000016000000000001600000000000160000000000016000000000001600000000000121000000000050000001000000000000000001000000000000000160000000000000009999123100000010000000000000BRAOREACNOR2100
012013101102ARTR3       010ARTERIS     ON      NM   R$  000000000197500000000019750000000001951000000000196100000000019600000000001950000000000196000698000000000000127800000000000250640600000000000000009999123100000010000000000000BRARTRACNOR3101
012013101196ARTR3F      020ARTERIS     ON      NM   R$  000000000195600000000019660000000001956000000000196000000000019560000000001955000000000198900011000000000000000263000000000000515686000000000000009999123100000010000000000000BRARTRACNOR3101
012013101102ARZZ3       010AREZZO CO   ON      NM   R$  000000000355900000000036080000000003559000000000359500000000035850000000003585000000000359001176000000000000155800000000000560191600000000000000009999123100000010000000000000BRARZZACNOR3109
012013101196ARZZ3F      020AREZZO CO   ON      NM   R$  000000000353500000000036010000000003535000000000359400000000035990000000003591000000000360500013000000000000000175000000000000629061000000000000009999123100000010000000000000BRARZZACNOR3109
012013101162ARZZ3T      030AREZZO CO   ON      NM122R$  000000000370500000000037060000000003705000000000370500000000037060000000000000000000000000000002000000000000000600000000000002223443000000000000009999123100000010000000000000BRARZZACNOR3109
012013101162ARZZ3T      030AREZZO CO   ON      NM180R$  000000000377700000000037780000000003777000000000377700000000037780000000000000000000000000000002000000000000000500000000000001888920000000000000009999123100000010000000000000BRARZZACNOR3109
012013101102AUTM3       010AUTOMETAL   ON      NM   R$  000000000184200000000018520000000001840000000000184300000000018470000000001837000000000184700266000000000000334400000000000616603000000000000000009999123100000010000000000000BRAUTMACNOR8109
012013101196AUTM3F      020AUTOMETAL   ON      NM   R$  000000000184700000000018470000000001847000000000184700000000018470000000001700000000000184900001000000000000000014000000000000025858000000000000009999123100000010000000000000BRAUTMACNOR8109
012013101102AZEV4       010AZEVEDO     PN           R$  000000000011700000000001400000000000117000000000012600000000001400000000000126000000000014000007000000000000023800000000000003012000000000000000009999123100000010000000000000BRAZEVACNPR7113
012013101102BAHI3       010BAHEMA      ON           R$  000000000048000000000004800000000000480000000000048000000000004800000000000475000000000050500003000000000000010300000000000004944000000000000000009999123100000010000000000000BRBAHIACNOR1066
012013101102BAUH4       010EXCELSIOR   PN           R$  000000000093800000000009400000000000938000000000093800000000009400000000000920000000000094000005000000000000000700000000000000657200000000000000009999123100000010000000000000BRBAUHACNPR3108
012013101102BAZA3       010AMAZONIA    ON           R$  000000000003300000000000330000000000032000000000003200000000000330000000000032000000000003300009000000000000029000000000000000946000000000000000009999123100000010000000000000BRBAZAACNOR0163
012013101102BBAS3       010BRASIL      ON      NM   R$  000000000267100000000026880000000002655000000000267100000000026680000000002667000000000266812513000000000004086200000000010915497700000000000000009999123100000010000000000000BRBBASACNOR3239
012013101196BBAS3F      020BRASIL      ON      NM   R$  000000000266000000000026850000000002653000000000267000000000026700000000002655000000000267000120000000000000003822000000000010208061000000000000009999123100000010000000000000BRBBASACNOR3239
012013101162BBAS3T      030BRASIL      ON      NM017R$  000000000268200000000026830000000002682000000000268200000000026830000000000000000000000000000002000000000000000100000000000000268222000000000000009999123100000010000000000000BRBBASACNOR3239
012013101162BBAS3T      030BRASIL      ON      NM090R$  000000000274300000000027440000000002743000000000274300000000027440000000000000000000000000000002000000000000000100000000000000274316000000000000009999123100000010000000000000BRBBASACNOR3239
012013101162BBAS3T      030BRASIL      ON      NM180R$  000000000281600000000028170000000002816000000000281600000000028170000000000000000000000000000002000000000000001200000000000003379593000000000000009999123100000010000000000000BRBBASACNOR3239
012013101178BBASA26     070BBAS        ON      NM000R$  000000000026500000000002650000000000265000000000026500000000002650000000000000000000000000000001000000000000000500000000000000132500000000000249502014012000000010000000000000BRBBASACNOR3237
012013101178BBASA27     070BBAS        ON      NM000R$  000000000020000000000002000000000000200000000000020000000000002000000000000000000000000000000001000000000000000100000000000000020000000000000259502014012000000010000000000000BRBBASACNOR3237
012013101178BBASA29     070BBAS        ON      NM000R$  000000000006300000000000630000000000063000000000006300000000000630000000000000000000000000000001000000000000000600000000000000037800000000000290002014012000000010000000000000BRBBASACNOR3239
012013101178BBASJ25     070BBAS        ON      NM000R$  000000000028000000000003000000000000257000000000027800000000002720000000000265000000000000000018000000000000022300000000000006218000000000000239502013102100000010000000000000BRBBASACNOR3237
012013101178BBASJ26     070BBAS  FM    ON      NM000R$  000000000021400000000002300000000000202000000000021700000000002070000000000192000000000021500149000000000000197600000000000043068000000000000246102013102100000010000000000000BRBBASACNOR3235
012013101178BBASJ27     070BBAS  FM    ON      NM000R$  000000000012000000000001340000000000106000000000012100000000001130000000000100000000000012600102000000000000141800000000000017270400000000000256102013102100000010000000000000BRBBASACNOR3235
012013101178BBASJ28     070BBAS  FM    ON      NM000R$  000000000003000000000000320000000000019000000000002500000000000210000000000017000000000002200053000000000000114800000000000002903400000000000269502013102100000010000000000000BRBBASACNOR3237
012013101178BBASJ29     070BBAS  FM    ON      NM000R$  000000000000900000000000130000000000005000000000000600000000000130000000000004000000000001300015000000000000025100000000000000169600000000000276102013102100000010000000000000BRBBASACNOR3235
012013101178BBASK19     070BBAS        ON      NM000R$  000000000090000000000009000000000000900000000000090000000000009000000000000000000000000000000001000000000000000500000000000000450000000000000179502013111800000010000000000000BRBBASACNOR3237
012013101178BBASK27     070BBAS  FM    ON      NM000R$  000000000016000000000001620000000000152000000000015800000000001520000000000045000000000000000023000000000000031600000000000005015700000000000257102013111800000010000000000000BRBBASACNOR3236
012013101178BBASK28     070BBAS  FM    ON      NM000R$  000000000008900000000000970000000000086000000000009100000000000860000000000083000000000009800023000000000000035700000000000003262100000000000267102013111800000010000000000000BRBBASACNOR3236
012013101178BBASK29     070BBAS  FM    ON      NM000R$  000000000004000000000000400000000000030000000000003800000000000300000000000029000000000003600008000000000000025800000000000000985000000000000279502013111800000010000000000000BRBBASACNOR3237
012013101178BBASK30     070BBAS  FM    ON      NM000R$  000000000001600000000000160000000000014000000000001500000000000140000000000013000000000001800005000000000000020000000000000000300000000000000289502013111800000010000000000000BRBBASACNOR3237
012013101178BBASK57     070BBAS        ON      NM000R$  000000000005000000000000500000000000050000000000005000000000000500000000000000000000000000000001000000000000004000000000000000200000000000000275002013111800000010000000000000BRBBASACNOR3239
012013101178BBASK58     070BBAS        ON      NM000R$  000000000002300000000000230000000000023000000000002300000000000230000000000000000000000000000001000000000000001100000000000000025300000000000285002013111800000010000000000000BRBBASACNOR3239
012013101178BBASL26     070BBAS        ON      NM000R$  000000000027000000000002700000000000270000000000027000000000002700000000000016000000000000000001000000000000000100000000000000027000000000000246102013121600000010000000000000BRBBASACNOR3235
012013101178BBASL27     070BBAS        ON      NM000R$  000000000017300000000001730000000000172000000000017200000000001720000000000016000000000018000002000000000000002300000000000000397600000000000259502013121600000010000000000000BRBBASACNOR3237
012013101178BBASL28     070BBAS        ON      NM000R$  000000000011300000000001130000000000112000000000011200000000001120000000000090000000000000000002000000000000003200000000000000361400000000000269502013121600000010000000000000BRBBASACNOR3237
012013101178BBASL29     070BBAS        ON      NM000R$  000000000007300000000000780000000000073000000000007700000000000780000000000016000000000000000002000000000000001500000000000000115500000000000276102013121600000010000000000000BRBBASACNOR3235
012013101178BBASL60     070BBAS        ON      NM000R$  000000000005000000000000500000000000050000000000005000000000000500000000000014000000000000000001000000000000000100000000000000005000000000000286202013121600000010000000000000BRBBASACNOR3233
012013101178BBASL79     070BBAS        ON      NM000R$  000000000003300000000000330000000000033000000000003300000000000330000000000000000000000000000001000000000000300000000000000009900000000000000290002013121600000010000000000000BRBBASACNOR3239
012013101182BBASV25     080BBASE FM    ON      NM000R$  000000000000100000000000010000000000001000000000000100000000000010000000000000000000000000300002000000000000003000000000000000003000000000000239502013102100000010000000000000BRBBASACNOR3237
012013101182BBASV27     080BBASE FM    ON      NM000R$  000000000000900000000000090000000000005000000000000600000000000080000000000004000000000000900041000000000000095200000000000000660600000000000256102013102100000010000000000000BRBBASACNOR3235
012013101182BBASV28     080BBASE FM    ON      NM000R$  000000000004600000000000530000000000040000000000004500000000000480000000000036000000000005800049000000000000052600000000000002417700000000000269502013102100000010000000000000BRBBASACNOR3237
012013101182BBASW26     080BBASE FM    ON      NM000R$  000000000001800000000000180000000000017000000000001700000000000170000000000000000000000002500002000000000000000200000000000000003500000000000247102013111800000010000000000000BRBBASACNOR3236
012013101182BBASW27     080BBASE FM    ON      NM000R$  000000000003400000000000390000000000034000000000003700000000000390000000000035000000000000000055000000000000183300000000000006785200000000000257102013111800000010000000000000BRBBASACNOR3236
012013101182BBASW28     080BBASE FM    ON      NM000R$  000000000006900000000000720000000000067000000000006700000000000720000000000000000000000000000014000000000000027500000000000001863900000000000267102013111800000010000000000000BRBBASACNOR3236
012013101182BBASW29     080BBASE FM    ON      NM000R$  000000000014100000000001420000000000131000000000013800000000001410000000000000000000000019400026000000000000026700000000000003688700000000000279502013111800000010000000000000BRBBASACNOR3237
012013101182BBASX26     080BBASE       ON      NM000R$  000000000003100000000000310000000000031000000000003100000000000310000000000000000000000010000001000000000000001900000000000000058900000000000246102013121600000010000000000000BRBBASACNOR3235
012013101182BBASX27     080BBASE       ON      NM000R$  000000000006700000000000670000000000067000000000006700000000000670000000000000000000000000000001000000000000001500000000000000100500000000000259502013121600000010000000000000BRBBASACNOR3237
012013101102BBDC3       010BRADESCO    ON  EJ  N1   R$  000000000361200000000036500000000003594000000000361200000000035970000000003597000000000362402676000000000000729500000000002634851700000000000000009999123100000010000000000000BRBBDCACNOR1607
012013101196BBDC3F      020BRADESCO    ON  EJ  N1   R$  000000000366000000000036600000000003600000000000361900000000036150000000003600000000000362900022000000000000000646000000000002337170000000000000009999123100000010000000000000BRBBDCACNOR1607
012013101162BBDC3T      030BRADESCO    ON  EJ  N1180R$  000000000380100000000038020000000003801000000000380100000000038020000000000000000000000000000002000000000000000900000000000003421779000000000000009999123100000010000000000000BRBBDCACNOR1607
012013101102BBDC4       010BRADESCO    PN  EJ  N1   R$  000000000316500000000031920000000003144000000000315800000000031550000000003155000000000315912265000000000005309900000000016771160000000000000000009999123100000010000000000000BRBBDCACNPR8607
012013101196BBDC4F      020BRADESCO    PN  EJ  N1   R$  000000000317900000000031900000000003144000000000316300000000031510000000003151000000000316600136000000000000003485000000000011021428000000000000009999123100000010000000000000BRBBDCACNPR8607
012013101162BBDC4T      030BRADESCO    PN  EJ  N1031R$  000000000318800000000031890000000003188000000000318800000000031890000000000000000000000000000006000000000000010000000000000031884210000000000000009999123100000010000000000000BRBBDCACNPR8607
012013101162BBDC4T      030BRADESCO    PN  EJ  N1122R$  000000000327400000000032750000000003274000000000327400000000032750000000000000000000000000000002000000000000001000000000000003274446000000000000009999123100000010000000000000BRBBDCACNPR8607
012013101178BBDCJ1      070BBDC    /EJ PN      N1000R$  000000000007600000000000760000000000053000000000006300000000000540000000000000000000000000000040000000000000016200000000000001026400000000000314202013102100000010000000000000BRBBDCACNPR8603
012013101178BBDCJ30     070BBDC  FM/EJ PN      N1000R$  000000000020500000000002230000000000182000000000019800000000001950000000000183000000000021000123000000000000170600000000000033790100000000000297402013102100000010000000000000BRBBDCACNPR8602
012013101178BBDCJ31     070BBDC  FM/EJ PN      N1000R$  000000000011400000000001300000000000099000000000011500000000001060000000000090000000000012800111000000000000151100000000000017477000000000000307402013102100000010000000000000BRBBDCACNPR8602
012013101178BBDCJ32     070BBDC  FM/EJ PN      N1000R$  000000000004600000000000580000000000036000000000004500000000000400000000000034000000000000000075000000000000101600000000000004585400000000000317402013102100000010000000000000BRBBDCACNPR8602
012013101178BBDCJ33     070BBDC  FM/EJ PN      N1000R$  000000000001300000000000130000000000010000000000001200000000000120000000000009000000000001400057000000000000116900000000000001453900000000000327402013102100000010000000000000BRBBDCACNPR8602
012013101178BBDCJ34     070BBDC  FM/EJ PN      N1000R$  000000000000200000000000030000000000002000000000000200000000000030000000000001000000000000000037000000000000066200000000000000154600000000000337002013102100000010000000000000BRBBDCACNPR8600
012013101178BBDCK30     070BBDC  FM/EJ PN      N1000R$  000000000023000000000002390000000000206000000000022400000000002190000000000182000000000024100096000000000000102500000000000022964200000000000299602013111800000010000000000000BRBBDCACNPR8605
012013101178BBDCK31     070BBDC  FM/EJ PN      N1000R$  000000000015000000000001620000000000136000000000014900000000001400000000000102000000000016000016000000000000028100000000000004209400000000000309602013111800000010000000000000BRBBDCACNPR8605
012013101178BBDCK32     070BBDC  FM/EJ PN      N1000R$  000000000010400000000001150000000000091000000000010200000000001130000000000090000000000011300040000000000000040100000000000004097200000000000317202013111800000010000000000000BRBBDCACNPR8601
012013101178BBDCK33     070BBDC  FM/EJ PN      N1000R$  000000000005600000000000630000000000047000000000005300000000000480000000000036000000000006800063000000000001409500000000000075009200000000000327402013111800000010000000000000BRBBDCACNPR8602
012013101178BBDCK34     070BBDC  FM/EJ PN      N1000R$  000000000002900000000000290000000000021000000000002300000000000260000000000020000000000000000046000000000000147700000000000003507800000000000339402013111800000010000000000000BRBBDCACNPR8604
012013101178BBDCK35     070BBDC    /EJ PN      N1000R$  000000000001400000000000140000000000012000000000001300000000000120000000000000000000000000000003000000000000002200000000000000030500000000000347402013111800000010000000000000BRBBDCACNPR8602
012013101178BBDCK36     070BBDC    /EJ PN      N1000R$  000000000000500000000000060000000000005000000000000500000000000060000000000000000000000000000002000000000000010200000000000000061000000000000357202013111800000010000000000000BRBBDCACNPR8601
012013101178BBDCL35     070BBDC    /EJ PN      N1000R$  000000000003300000000000340000000000033000000000003300000000000340000000000013000000000009000007000000000000013600000000000000453800000000000347002013121600000010000000000000BRBBDCACNPR8600
012013101182BBDCM25     080BBDCE   /EJ PN      N1000R$  000000000000700000000000070000000000007000000000000700000000000070000000000000000000000000000001000000000000001200000000000000008400000000000250002014012000000010000000000000BRBBDCACNPR8607
012013101182BBDCM31     080BBDCE   /EJ PN      N1000R$  000000000009600000000001030000000000096000000000009900000000000980000000000000000000000000000003000000000000005300000000000000524900000000000309602014012000000010000000000000BRBBDCACNPR8605
012013101182BBDCM59     080BBDCE   /EJ PN      N1000R$  000000000005500000000000610000000000055000000000005900000000000600000000000000000000000000000014000000000000018000000000000001068000000000000294602014012000000010000000000000BRBBDCACNPR8605
012013101182BBDCV1      080BBDCE   /EJ PN      N1000R$  000000000002900000000000290000000000025000000000002600000000000250000000000000000000000000000006000000000000011000000000000000292600000000000314202013102100000010000000000000BRBBDCACNPR8603
012013101182BBDCV2      080BBDCE   /EJ PN      N1000R$  000000000008800000000000900000000000088000000000008800000000000900000000000000000000000000000004000000000000011900000000000001056000000000000324202013102100000010000000000000BRBBDCACNPR8603
012013101182BBDCV29     080BBDCE FM/EJ PN      N1000R$  000000000000200000000000080000000000002000000000000200000000000080000000000000000000000000000008000000000000011000000000000000023200000000000287402013102100000010000000000000BRBBDCACNPR8602
012013101182BBDCV30     080BBDCE FM/EJ PN      N1000R$  000000000000100000000000060000000000001000000000000200000000000020000000000001000000000000000028000000000000048800000000000000144700000000000297402013102100000010000000000000BRBBDCACNPR8602
012013101182BBDCV31     080BBDCE FM/EJ PN      N1000R$  000000000001100000000000210000000000009000000000001200000000000200000000000000000000000010000016000000000000030700000000000000381600000000000307402013102100000010000000000000BRBBDCACNPR8602
012013101182BBDCV32     080BBDCE FM/EJ PN      N1000R$  000000000003700000000000560000000000037000000000004700000000000460000000000032000000000000000062000000000000140800000000000006710600000000000317402013102100000010000000000000BRBBDCACNPR8602
012013101182BBDCW30     080BBDCE FM/EJ PN      N1000R$  000000000002500000000000320000000000024000000000002500000000000320000000000000000000000000000024000000000000067200000000000001692400000000000299602013111800000010000000000000BRBBDCACNPR8605
012013101182BBDCW31     080BBDCE FM/EJ PN      N1000R$  000000000004700000000000620000000000047000000000005500000000000550000000000000000000000000000023000000000001340500000000000073803300000000000309602013111800000010000000000000BRBBDCACNPR8605
012013101182BBDCW32     080BBDCE FM/EJ PN      N1000R$  000000000007900000000000920000000000072000000000008300000000000850000000000000000000000000000019000000000000026300000000000002190100000000000317202013111800000010000000000000BRBBDCACNPR8601
012013101182BBDCW9      080BBDCE FM/EJ PN      N1000R$  000000000001300000000000150000000000005000000000000600000000000140000000000000000000000001600023000000000001338900000000000008423900000000000289602013111800000010000000000000BRBBDCACNPR8605
012013101182BBDCX1      080BBDCE   /EJ PN      N1000R$  000000000006800000000000680000000000068000000000006800000000000680000000000000000000000000000001000000000000002000000000000000136000000000000307002013121600000010000000000000BRBBDCACNPR8600
012013101182BBDCX32     080BBDCE   /EJ PN      N1000R$  000000000010500000000001050000000000102000000000010300000000001020000000000000000000000000000004000000000000005300000000000000546000000000000317002013121600000010000000000000BRBBDCACNPR8600
012013101182BBDCX34     080BBDCE   /EJ PN      N1000R$  000000000020500000000002050000000000205000000000020500000000002050000000000000000000000000000001000000000000000300000000000000061500000000000337002013121600000010000000000000BRBBDCACNPR8600
012013101112BBFI11B     010FII BB PROGRCI      MB   R$  000000041900100000004190010000000418000000000041872700000004190000000000418000000000041900000004000000000000000011000000000004606006000000000000009999123100000010000000000000BRBBFICTF006199
012013101112BBPO11      010FII BB PRGIICI           R$  000000001120500000000112550000000011200000000001120900000000112000000000011200000000001122000079000000000000011110000000000124540661000000000000009999123100000010000000000000BRBBPOCTF003111
012013101112BBRC11      010FII BB CORP CI           R$  000000000898100000000090000000000008912000000000898100000000089900000000008916000000000899000008000000000000000470000000000004221458000000000000009999123100000010000000000000BRBBRCCTF004125
012013101102BBRK3       010BR BROKERS  ON      NM   R$  000000000061100000000006230000000000609000000000061700000000006230000000000621000000000062401928000000000000589800000000000364305000000000000000009999123100000010000000000000BRBBRKACNOR4108
012013101196BBRK3F      020BR BROKERS  ON      NM   R$  000000000061600000000006490000000000600000000000063300000000006490000000000605000000000064900008000000000000000223000000000000141236000000000000009999123100000010000000000000BRBBRKACNOR4108
012013101162BBRK3T      030BR BROKERS  ON      NM060R$  000000000062400000000006250000000000624000000000062400000000006250000000000000000000000000000002000000000000002000000000000001249248000000000000009999123100000010000000000000BRBBRKACNOR4108
012013101102BBSE3       010BBSEGURIDADEON      NM   R$  000000000232600000000023440000000002313000000000232400000000023330000000002333000000000233709582000000000005691900000000013231081600000000000000009999123100000010000000000000BRBBSEACNOR5101
012013101196BBSE3F      020BBSEGURIDADEON      NM   R$  000000000232200000000023420000000002313000000000232500000000023420000000002324000000000234200390000000000000012899000000000029998543000000000000009999123100000010000000000000BRBBSEACNOR5101
012013101162BBSE3T      030BBSEGURIDADEON      NM017R$  000000000234800000000023490000000002345000000000234700000000023460000000000000000000000000000004000000000000030000000000000070412428000000000000009999123100000010000000000000BRBBSEACNOR5101
012013101162BBSE3T      030BBSEGURIDADEON      NM031R$  000000000235000000000023510000000002350000000000235000000000023510000000000000000000000000000004000000000000000400000000000000940106000000000000009999123100000010000000000000BRBBSEACNOR5101
012013101162BBSE3T      030BBSEGURIDADEON      NM090R$  000000000239000000000023910000000002386000000000238800000000023870000000000000000000000000000004000000000000200000000000000477787700000000000000009999123100000010000000000000BRBBSEACNOR5101
012013101178BBSEC56     070BBSE        ON      NM000R$  000000000004900000000000490000000000049000000000004900000000000490000000000000000000000000000002000000000000237200000000000011622800000000000265002014031700000010000000000000BRBBSEACNOR5101
012013101178BBSEK23     070BBSE        ON      NM000R$  000000000006300000000000630000000000063000000000006300000000000630000000000000000000000000000003000000000000096100000000000006054300000000000230002013111800000010000000000000BRBBSEACNOR5101
012013101178BBSEK54     070BBSE        ON      NM000R$  000000000001800000000000180000000000018000000000001800000000000180000000000000000000000000000003000000000002250000000000000040500000000000000245002013111800000010000000000000BRBBSEACNOR5101
012013101182BBSEO23     080BBSEE       ON      NM000R$  000000000009400000000000940000000000094000000000009400000000000940000000000000000000000000000002000000000000237200000000000022296800000000000230002014031700000010000000000000BRBBSEACNOR5101
012013101182BBSEO50     080BBSEE       ON      NM000R$  000000000003100000000000310000000000031000000000003100000000000310000000000000000000000000000002000000000000237200000000000007353200000000000205002014031700000010000000000000BRBBSEACNOR5101
012013101182BBSEW22     080BBSEE       ON      NM000R$  000000000001300000000000130000000000013000000000001300000000000130000000000000000000000000000003000000000002250000000000000029250000000000000220002013111800000010000000000000BRBBSEACNOR5101
012013101182BBSEW23     080BBSEE       ON      NM000R$  000000000004200000000000430000000000042000000000004200000000000430000000000000000000000000000003000000000002250000000000000094950000000000000230002013111800000010000000000000BRBBSEACNOR5101
012013101102BBTG11      010BTG PACTUAL UNT          R$  000000000281000000000028800000000002785000000000283100000000028750000000002849000000000287500944000000000000865900000000002451932100000000000000009999123100000010000000000000BRBBTGUNT007105
012013101196BBTG11F     020BTG PACTUAL UNT          R$  000000000279000000000028680000000002790000000000282500000000028520000000002840000000000296600007000000000000000220000000000000621630000000000000009999123100000010000000000000BRBBTGUNT007105
012013101112BBVJ11      010FII C JARDIMCI           R$  000000000780300000000078690000000007781000000000780000000000077810000000007781000000000786700019000000000000001539000000000012005324000000000000009999123100000010000000000000BRBBVJCTF001134
012013101112BCFF11B     010FII BC FFII CI  ER  MB   R$  000000000905000000000090500000000008885000000000895200000000089000000000008895000000000898900049000000000000002634000000000023581831000000000000009999123100000010000000000000BRBCFFCTF000143
012013101102BDLL4       010BARDELLA    PN           R$  000000000526000000000052600000000005082000000000519400000000050820000000005082000000000540000011000000000000002700000000000014025600000000000000009999123100000010000000000000BRBDLLACNPR8149
012013101102BEEF3       010MINERVA     ON      NM   R$  000000000094800000000009590000000000937000000000094600000000009500000000000950000000000095102671000000000000931900000000000882203500000000000000009999123100000010000000000000BRBEEFACNOR6104
012013101196BEEF3F      020MINERVA     ON      NM   R$  000000000094500000000009540000000000941000000000094400000000009440000000000941000000000096000006000000000000000271000000000000255834000000000000009999123100000010000000000000BRBEEFACNOR6104
012013101162BEEF3T      030MINERVA     ON      NM090R$  000000000096400000000009650000000000964000000000096400000000009650000000000000000000000000000002000000000000003100000000000002988440000000000000009999123100000010000000000000BRBEEFACNOR6104
012013101102BEES3       010BANESTES    ON           R$  000000000004900000000000500000000000049000000000004900000000000490000000000049000000000005000003000000000000008500000000000000418500000000000000009999123100000010000000000000BRBEESACNOR9245
012013101102BEES4       010BANESTES    PN           R$  000000000004600000000000460000000000046000000000004600000000000460000000000045000000000004600002000000000000000300000000000000013800000000000000009999123100000010000000000000BRBEESACNPR6170
012013101102BEMA3       010BEMATECH    ON      NM   R$  000000000078600000000007890000000000780000000000078400000000007850000000000781000000000078500512000000000000212500000000000166698800000000000000009999123100000010000000000000BRBEMAACNOR0114
012013101102BHGR3       010BHG         ON      NM   R$  000000000149700000000015240000000001467000000000149500000000015100000000001500000000000151200114000000000000026200000000000039177200000000000000009999123100000010000000000000BRBHGRACNOR9101
012013101196BICB3F      020BICBANCO    ON      N1   R$  000000000059100000000005910000000000591000000000059100000000005910000000000336000000000068100001000000000000000010000000000000005910000000000000009999123100000010000000000000BRBICBACNOR0131
012013101102BICB4       010BICBANCO    PN      N1   R$  000000000055000000000005900000000000546000000000057100000000005820000000000582000000000059300158000000000000182200000000000104149000000000000000009999123100000010000000000000BRBICBACNPR7131
012013101196BICB4F      020BICBANCO    PN      N1   R$  000000000054900000000005930000000000549000000000055500000000005930000000000558000000000059600013000000000000000372000000000000206643000000000000009999123100000010000000000000BRBICBACNPR7131
012013101162BICB4T      030BICBANCO    PN      N1031R$  000000000056100000000005620000000000561000000000056100000000005620000000000000000000000000000002000000000000010000000000000005613126000000000000009999123100000010000000000000BRBICBACNPR7131
012013101162BICB4T      030BICBANCO    PN      N1090R$  000000000058300000000005840000000000583000000000058300000000005840000000000000000000000000000002000000000000015000000000000008756856000000000000009999123100000010000000000000BRBICBACNPR7131
012013101102BIOM3       010BIOMM       ON           R$  000000000095000000000009500000000000950000000000095000000000009500000000000850000000000095000003000000000000036000000000000034200000000000000000009999123100000010000000000000BRBIOMACNOR2101
012013101102BISA3       010BROOKFIELD  ON      NM   R$  000000000015900000000001600000000000155000000000015700000000001550000000000155000000000015602878000000000003507900000000000551516100000000000000009999123100000010000000000000BRBISAACNOR8109
012013101196BISA3F      020BROOKFIELD  ON      NM   R$  000000000016700000000001680000000000154000000000015800000000001560000000000152000000000015700025000000000000000707000000000000111716000000000000009999123100000010000000000000BRBISAACNOR8109
012013101162BISA3T      030BROOKFIELD  ON      NM122R$  000000000016000000000001610000000000160000000000016000000000001610000000000000000000000000000002000000000000008000000000000001283818000000000000009999123100000010000000000000BRBISAACNOR8109
012013101112BJRC11      010FII JS RECIMCI           R$  000000008850000000000900000000000085700000000008864500000000900000000000086300000000009100000018000000000000000903000000000080047299000000000000009999123100000010000000000000BRBJRCCTF007111
012013101102BMEB4       010MERC BRASIL PN           R$  000000000108000000000010810000000001078000000000107900000000010780000000001078000000000109900011000000000000006500000000000007019200000000000000009999123100000010000000000000BRBMEBACNPR5191
012013101102BMIN4       010MERC INVEST PN           R$  000000000002800000000000280000000000028000000000002800000000000280000000000026000000000002800001000000000000001000000000000000028000000000000000009999123100000010000000000000BRBMINACNPR1160
012013101112BMLC11B     010FII BMBRC LCCI  ER  MB   R$  000000001160000000000116000000000011600000000001160000000000116000000000011550000000001160000004000000000000000206000000000002389600000000000000009999123100000010000000000000BRBMLCCTF004120
012013101102BMTO4       010BRASMOTOR   PN           R$  000000000008700000000000880000000000087000000000008700000000000880000000000085000000000008800003000000000000011000000000000000958000000000000000009999123100000010000000000000BRBMTOACNPR6065
012013101114BOVA11      010ISHARES BOVACI           R$  000000000520500000000052100000000005151000000000518800000000052040000000005200000000000520401912000000000001065740000000005530062290000000000000009999123100000010000000000000BRBOVACTF003101
012013101196BOVA11F     020ISHARES BOVACI           R$  000000000525100000000052510000000005129000000000519100000000052000000000005131000000000523200012000000000000000043000000000000223219000000000000009999123100000010000000000000BRBOVACTF003101
012013101162BOVA11T     030ISHARES BOVACI        090R$  000000000529800000000052990000000005298000000000529800000000052990000000000000000000000000000002000000000000000500000000000002649235000000000000009999123100000010000000000000BRBOVACTF003101
012013101112BPFF11      010FII ABSOLUTOCI           R$  000000000825000000000082500000000008200000000000821700000000082250000000008210000000000822500026000000000000002296000000000018867670000000000000009999123100000010000000000000BRBPFFCTF002106
012013101102BPHA3       010BR PHARMA   ON      NM   R$  000000000085800000000008700000000000839000000000085900000000008620000000000860000000000086201706000000000001069400000000000918955200000000000000009999123100000010000000000000BRBPHAACNOR6102
012013101196BPHA3F      020BR PHARMA   ON      NM   R$  000000000085200000000008620000000000852000000000085400000000008620000000000780000000000086800004000000000000000141000000000000120554000000000000009999123100000010000000000000BRBPHAACNOR6102
012013101162BPHA3T      030BR PHARMA   ON      NM042R$  000000000086900000000008700000000000869000000000086900000000008700000000000000000000000000000002000000000000003000000000000002609605000000000000009999123100000010000000000000BRBPHAACNOR6102
012013101102BPNM4       010PANAMERICANOPN      N1   R$  000000000053600000000005390000000000520000000000052900000000005390000000000539000000000054000304000000000003356300000000001778219900000000000000009999123100000010000000000000BRBPNMACNPR6111
012013101196BPNM4F      020PANAMERICANOPN      N1   R$  000000000050300000000005290000000000503000000000051600000000005290000000000503000000000053600004000000000000000128000000000000066174000000000000009999123100000010000000000000BRBPNMACNPR6111
012013101162BPNM4T      030PANAMERICANOPN      N1122R$  000000000054500000000005460000000000545000000000054500000000005460000000000000000000000000000004000000000003000000000000001636843230000000000000009999123100000010000000000000BRBPNMACNPR6111
012013101102BRAP3       010BRADESPAR   ON      N1   R$  000000000194600000000019550000000001933000000000194000000000019400000000001939000000000196000016000000000000002200000000000004268200000000000000009999123100000010000000000000BRBRAPACNOR5124
012013101196BRAP3F      020BRADESPAR   ON      N1   R$  000000000191100000000019110000000001911000000000191100000000019110000000001952000000000221500002000000000000000020000000000000038220000000000000009999123100000010000000000000BRBRAPACNOR5124
012013101102BRAP4       010BRADESPAR   PN      N1   R$  000000000233600000000023810000000002336000000000236200000000023800000000002380000000000238104144000000000001503300000000003552017500000000000000009999123100000010000000000000BRBRAPACNPR2124
012013101196BRAP4F      020BRADESPAR   PN      N1   R$  000000000234000000000024000000000002335000000000236700000000023560000000002355000000000236900025000000000000000866000000000002050684000000000000009999123100000010000000000000BRBRAPACNPR2124
012013101162BRAP4T      030BRADESPAR   PN      N1017R$  000000000238900000000023900000000002375000000000238600000000023760000000000000000000000000000004000000000000021300000000000050825090000000000000009999123100000010000000000000BRBRAPACNPR2124
012013101112BRCR11      010FII BC FUND CI  ER       R$  000000001321100000000134300000000013202000000001325900000000134300000000013370000000001340000162000000000000014360000000000190407681000000000000009999123100000010000000000000BRBRCRCTF000134
012013101102BRFS3       010BRF SA      ON      NM   R$  000000000552500000000055850000000005456000000000553000000000055850000000005560000000000558505993000000000001318800000000007294183400000000000000009999123100000010000000000000BRBRFSACNOR8110
012013101196BRFS3F      020BRF SA      ON      NM   R$  000000000555000000000055760000000005459000000000553000000000055560000000005556000000000559000115000000000000003677000000000020335046000000000000009999123100000010000000000000BRBRFSACNOR8110
012013101162BRFS3T      030BRF SA      ON      NM031R$  000000000556300000000055640000000005563000000000556300000000055640000000000000000000000000000002000000000000001200000000000006675981000000000000009999123100000010000000000000BRBRFSACNOR8110
012013101162BRFS3T      030BRF SA      ON      NM180R$  000000000578000000000057810000000005780000000000578000000000057810000000000000000000000000000002000000000000000600000000000003468057000000000000009999123100000010000000000000BRBRFSACNOR8110
012013101102BRGE12      010ALFA CONSORCPNF          R$  000000000037500000000003750000000000375000000000037500000000003750000000000343000000000039900002000000000000001400000000000000525000000000000000009999123100000010000000000000BRBRGEACNPF8091
012013101196BRGE12F     020ALFA CONSORCPNF          R$  000000000033000000000003300000000000330000000000033000000000003300000000000331000000000000000001000000000000000028000000000000009240000000000000009999123100000010000000000000BRBRGEACNPF8091
012013101102BRIN3       010BR INSURANCEON      NM   R$  000000000199500000000020480000000001984000000000201300000000020480000000002039000000000204800561000000000000094700000000000190715000000000000000009999123100000010000000000000BRBRINACNOR3106
012013101196BRIN3F      020BR INSURANCEON      NM   R$  000000000185300000000018530000000001809000000000183300000000018090000000001951000000000203900002000000000000000110000000000000201630000000000000009999123100000010000000000000BRBRINACNOR3106
012013101182BRINX16     080BRINE       ON      NM000R$  000000000005500000000000550000000000055000000000005500000000000550000000000000000000000000000002000000000000136000000000000007480000000000000160002013121600000010000000000000BRBRINACNOR3106
012013101102BRIV4       010ALFA INVEST PN           R$  000000000058000000000005800000000000570000000000057900000000005790000000000551000000000057900007000000000000006900000000000004000300000000000000009999123100000010000000000000BRBRIVACNPR3197
012013101196BRIV4F      020ALFA INVEST PN           R$  000000000059000000000005900000000000590000000000059000000000005900000000000590000000000070000001000000000000000010000000000000005900000000000000009999123100000010000000000000BRBRIVACNPR3197
012013101102BRKM5       010BRASKEM     PNA     N1   R$  000000000183300000000018500000000001820000000000183900000000018490000000001841000000000184904650000000000001031600000000001897282000000000000000009999123100000010000000000000BRBRKMACNPA4110
012013101196BRKM5F      020BRASKEM     PNA     N1   R$  000000000176200000000018490000000001762000000000183000000000018310000000001840000000000189900027000000000000000942000000000001725118000000000000009999123100000010000000000000BRBRKMACNPA4110
012013101102BRML3       010BR MALLS PARON      NM   R$  000000000205000000000020650000000002041000000000205100000000020650000000002063000000000206505412000000000001794500000000003681092700000000000000009999123100000010000000000000BRBRMLACNOR9105
012013101196BRML3F      020BR MALLS PARON      NM   R$  000000000207500000000020760000000002045000000000205200000000020760000000002041000000000207600045000000000000001205000000000002473798000000000000009999123100000010000000000000BRBRMLACNOR9105
012013101102BRPR3       010BR PROPERT  ON      NM   R$  000000000189100000000019080000000001860000000000187300000000018800000000001880000000000188108510000000000002572000000000004818387400000000000000009999123100000010000000000000BRBRPRACNOR9112
012013101196BRPR3F      020BR PROPERT  ON      NM   R$  000000000198500000000019850000000001833000000000188100000000018330000000001833000000000189800034000000000000001230000000000002309610000000000000009999123100000010000000000000BRBRPRACNOR9112
012013101162BRPR3T      030BR PROPERT  ON      NM031R$  000000000187900000000018800000000001879000000000187900000000018800000000000000000000000000000002000000000000002000000000000003758870000000000000009999123100000010000000000000BRBRPRACNOR9112
012013101162BRPR3T      030BR PROPERT  ON      NM090R$  000000000190300000000019140000000001903000000000190300000000019140000000000000000000000000000006000000000000020200000000000038454751000000000000009999123100000010000000000000BRBRPRACNOR9112
012013101102BRSR6       010BANRISUL    PNB     N1   R$  000000000153900000000015430000000001522000000000153500000000015310000000001531000000000153701675000000000000330800000000000508051100000000000000009999123100000010000000000000BRBRSRACNPB4134
012013101196BRSR6F      020BANRISUL    PNB     N1   R$  000000000153800000000015380000000001504000000000153100000000015350000000001511000000000156300005000000000000000203000000000000310882000000000000009999123100000010000000000000BRBRSRACNPB4134
012013101102BSEV3       010BIOSEV      ON      NM   R$  000000000090000000000009250000000000894000000000090300000000008940000000000829000000000090500007000000000000002300000000000002077100000000000000009999123100000010000000000000BRBSEVACNOR3100
012013101102BTOW3       010B2W DIGITAL ON      NM   R$  000000000158000000000016130000000001557000000000158300000000015800000000001580000000000158801332000000000000306800000000000485794300000000000000009999123100000010000000000000BRBTOWACNOR8105
012013101196BTOW3F      020B2W DIGITAL ON      NM   R$  000000000157200000000016010000000001465000000000157700000000015880000000001570000000000158800024000000000000000636000000000001004045000000000000009999123100000010000000000000BRBTOWACNOR8105
012013101102BTTL3       010BATTISTELLA ON           R$  000000000009700000000000980000000000097000000000009700000000000980000000000085000000000009800002000000000000000400000000000000038900000000000000009999123100000010000000000000BRBTTLACNOR0105
012013101102BTTL4       010BATTISTELLA PN           R$  000000000009700000000000990000000000094000000000009600000000000990000000000095000000000009900021000000000000052400000000000005048500000000000000009999123100000010000000000000BRBTTLACNPR7105
012013101102BVMF3       010BMFBOVESPA  ON      NM   R$  000000000124500000000012630000000001241000000000125200000000012570000000001255000000000125713049000000000005938700000000007435837100000000000000009999123100000010000000000000BRBVMFACNOR3126
012013101196BVMF3F      020BMFBOVESPA  ON      NM   R$  000000000124700000000012610000000001240000000000125000000000012400000000001240000000000126100077000000000000002311000000000002889788000000000000009999123100000010000000000000BRBVMFACNOR3126
012013101162BVMF3T      030BMFBOVESPA  ON      NM017R$  000000000126200000000012670000000001262000000000126500000000012670000000000000000000000000000006000000000000051400000000000065072310000000000000009999123100000010000000000000BRBVMFACNOR3126
012013101162BVMF3T      030BMFBOVESPA  ON      NM031R$  000000000125500000000012680000000001255000000000125800000000012680000000000000000000000000000008000000000000450000000000000566294400000000000000009999123100000010000000000000BRBVMFACNOR3126
012013101162BVMF3T      030BMFBOVESPA  ON      NM090R$  000000000127900000000012800000000001279000000000127900000000012800000000000000000000000000000002000000000000002000000000000002558375000000000000009999123100000010000000000000BRBVMFACNOR3126
012013101178BVMFA13     070BVMF        ON      NM000R$  000000000005800000000000580000000000058000000000005800000000000580000000000054000000000000000001000000000000000800000000000000046400000000000130002014012000000010000000000000BRBVMFACNOR3126
012013101178BVMFJ12     070BVMF  FM    ON      NM000R$  000000000007200000000000820000000000068000000000007200000000000800000000000080000000000008700250000000000000237600000000000017319500000000000118502013102100000010000000000000BRBVMFACNOR3125
012013101178BVMFJ13     070BVMF  FM    ON      NM000R$  000000000001000000000000140000000000009000000000001200000000000130000000000010000000000001300166000000000000413200000000000005146000000000000128502013102100000010000000000000BRBVMFACNOR3125
012013101178BVMFJ14     070BVMF  FM    ON      NM000R$  000000000000100000000000010000000000001000000000000100000000000010000000000000000000000000100001000000000000001800000000000000001800000000000138502013102100000010000000000000BRBVMFACNOR3125
012013101178BVMFJ42     070BVMF  FM    ON      NM000R$  000000000003600000000000410000000000031000000000003500000000000410000000000039000000000123500036000000000000079500000000000002820300000000000123502013102100000010000000000000BRBVMFACNOR3125
012013101178BVMFJ43     070BVMF  FM    ON      NM000R$  000000000000300000000000040000000000003000000000000300000000000040000000000002000000000000500002000000000000005700000000000000019100000000000133502013102100000010000000000000BRBVMFACNOR3125
012013101178BVMFK12     070BVMF  FM    ON      NM000R$  000000000009500000000001000000000000093000000000009700000000001000000000000089000000000010400022000000000000050400000000000004890100000000000118502013111800000010000000000000BRBVMFACNOR3125
012013101178BVMFK13     070BVMF  FM    ON      NM000R$  000000000003700000000000370000000000030000000000003200000000000340000000000030000000000003800133000000000000308300000000000009880400000000000128502013111800000010000000000000BRBVMFACNOR3125
012013101178BVMFK14     070BVMF  FM    ON      NM000R$  000000000000700000000000070000000000005000000000000600000000000060000000000006000000000000900204000000000000164400000000000001035200000000000138502013111800000010000000000000BRBVMFACNOR3125
012013101178BVMFK42     070BVMF  FM    ON      NM000R$  000000000005500000000000570000000000047000000000005300000000000520000000000000000000000000000040000000000000098300000000000005253500000000000125002013111800000010000000000000BRBVMFACNOR3126
012013101178BVMFK43     070BVMF  FM    ON      NM000R$  000000000001500000000000150000000000013000000000001300000000000130000000000007000000000001600004000000000000006600000000000000086000000000000135002013111800000010000000000000BRBVMFACNOR3126
012013101178BVMFL13     070BVMF        ON      NM000R$  000000000005000000000000500000000000050000000000005000000000000500000000000055000000000000000006000000000000007000000000000000350000000000000128502013121600000010000000000000BRBVMFACNOR3125
012013101182BVMFM12     080BVMFE       ON      NM000R$  000000000003700000000000400000000000037000000000003700000000000390000000000000000000000003900038000000000000155000000000000005875000000000000120002014012000000010000000000000BRBVMFACNOR3126
012013101182BVMFV12     080BVMFE FM    ON      NM000R$  000000000000600000000000070000000000005000000000000600000000000050000000000005000000000000700010000000000000425000000000000002940800000000000118502013102100000010000000000000BRBVMFACNOR3125
012013101182BVMFV13     080BVMFE FM    ON      NM000R$  000000000004200000000000490000000000037000000000004200000000000390000000000033000000000004000027000000000000053700000000000002263200000000000128502013102100000010000000000000BRBVMFACNOR3125
012013101182BVMFV42     080BVMFE FM    ON      NM000R$  000000000001700000000000280000000000016000000000001600000000000280000000000011000000000002900007000000000000411600000000000006829300000000000123502013102100000010000000000000BRBVMFACNOR3125
012013101182BVMFW12     080BVMFE FM    ON      NM000R$  000000000002000000000000220000000000020000000000002000000000000210000000000000000000000000000021000000000000056100000000000001146000000000000118502013111800000010000000000000BRBVMFACNOR3125
012013101182BVMFW13     080BVMFE FM    ON      NM000R$  000000000006200000000000620000000000055000000000005600000000000550000000000000000000000025000011000000000000038500000000000002191000000000000128502013111800000010000000000000BRBVMFACNOR3125
012013101182BVMFW42     080BVMFE FM    ON      NM000R$  000000000004000000000000450000000000040000000000004000000000000410000000000000000000000000000026000000000000073000000000000002977200000000000125002013111800000010000000000000BRBVMFACNOR3126
012013101102CARD3       010CSU CARDSYSTON      NM   R$  000000000031200000000003120000000000307000000000030900000000003120000000000307000000000031200014000000000000012300000000000003812300000000000000009999123100000010000000000000BRCARDACNOR9105
012013101102CBEE3       010AMPLA ENERG ON *         R$  000000000012900000000001290000000000129000000000012900000000001290000000000122000000000012900001000000000000300000000000000000038700000000000000009999123100010000000000000000BRCBEEACNOR3149
012013101196CBMA3F      020COBRASMA    ON           R$  000000000000700000000000070000000000007000000000000700000000000070000000000004000000000000700001000000000000000001000000000000000007000000000000009999123100000010000000000000BRCBMAACNOR4124
012013101102CBMA4       010COBRASMA    PN           R$  000000000000500000000000050000000000005000000000000500000000000050000000000004000000000000500003000000000000160000000000000000800000000000000000009999123100000010000000000000BRCBMAACNPR1124
012013101108CCHI3       010CHIARELLI   ON           R$  000000000002200000000000220000000000019000000000001900000000000190000000000018000000000001900072000000000001220000000000000023860000000000000000009999123100000010000000000000BRCCHIACNOR5123
012013101196CCHI3F      020CHIARELLI   ON           R$  000000000002000000000000200000000000020000000000002000000000000200000000000019000000000002000002000000000000002000000000000000040000000000000000009999123100000010000000000000BRCCHIACNOR5123
012013101108CCHI4       010CHIARELLI   PN           R$  000000000001300000000000140000000000013000000000001300000000000130000000000013000000000001400011000000000000200000000000000002660000000000000000009999123100000010000000000000BRCCHIACNPR2122
012013101196CCHI4F      020CHIARELLI   PN           R$  000000000001600000000000160000000000013000000000001300000000000130000000000012000000000001300004000000000000002740000000000000036520000000000000009999123100000010000000000000BRCCHIACNPR2122
012013101102CCPR3       010CYRE COM-CCPON      NM   R$  000000000210000000000021110000000002099000000000210000000000021110000000002110000000000214800008000000000000032200000000000067631100000000000000009999123100000010000000000000BRCCPRACNOR9107
012013101196CCPR3F      020CYRE COM-CCPON      NM   R$  000000000228700000000022870000000002287000000000228700000000022870000000001915000000000228500002000000000000000052000000000000118924000000000000009999123100000010000000000000BRCCPRACNOR9107
012013101102CCRO3       010CCR SA      ON      NM   R$  000000000181300000000018290000000001790000000000180600000000018130000000001813000000000181808276000000000002307600000000004169607700000000000000009999123100000010000000000000BRCCROACNOR2123
012013101196CCRO3F      020CCR SA      ON      NM   R$  000000000181800000000018200000000001781000000000180500000000018170000000001817000000000182000062000000000000001723000000000003112564000000000000009999123100000010000000000000BRCCROACNOR2123
012013101102CCXC3       010CCX CARVAO  ON      NM   R$  000000000012200000000001350000000000120000000000012900000000001320000000000130000000000013201883000000000006702400000000000867518300000000000000009999123100000010000000000000BRCCXCACNOR5100
012013101196CCXC3F      020CCX CARVAO  ON      NM   R$  000000000011500000000001290000000000115000000000012600000000001290000000000128000000000013200004000000000000000120000000000000015200000000000000009999123100000010000000000000BRCCXCACNOR5100
012013101162CCXC3T      030CCX CARVAO  ON      NM017R$  000000000013100000000001320000000000131000000000013100000000001320000000000000000000000000000002000000000000010000000000000001315633000000000000009999123100000010000000000000BRCCXCACNOR5100
012013101102CEGR3       010CEG         ON *         R$  000000000850000000000085000000000008500000000000850000000000085000000000008000000000000000000001000000000000100000000000000000850000000000000000009999123100010000000000000000BRCEGRACNOR4123
012013101112CEOC11B     010FII CEO CCP CI  ER  MB   R$  000000000869000000000088000000000008571000000000869900000000086500000000008633000000000865000053000000000000003975000000000034582029000000000000009999123100000010000000000000BRCEOCCTF003111
012013101102CEPE5       010CELPE       PNA          R$  000000000210000000000021500000000002100000000000210200000000021500000000001855000000000215000002000000000000002100000000000004415000000000000000009999123100000010000000000000BRCEPEACNPA6151
012013101102CESP5       010CESP        PNA     N1   R$  000000000221000000000022100000000002200000000000220500000000022000000000002180000000000224000002000000000000000200000000000000441000000000000000009999123100000010000000000000BRCESPACNPA6108
012013101102CESP6       010CESP        PNB     N1   R$  000000000223200000000022390000000002201000000000222100000000022100000000002210000000000222401793000000000000341600000000000758747800000000000000009999123100000010000000000000BRCESPACNPB4119
012013101196CESP6F      020CESP        PNB     N1   R$  000000000223300000000022690000000002182000000000222800000000021820000000002185000000000224000013000000000000000463000000000001031676000000000000009999123100000010000000000000BRCESPACNPB4119
012013101162CESP6T      030CESP        PNB     N1031R$  000000000223900000000022400000000002239000000000223900000000022400000000000000000000000000000002000000000000000800000000000001791984000000000000009999123100000010000000000000BRCESPACNPB4119
012013101182CESPM22     080CESPE       PNB     N1000R$  000000000006200000000000620000000000062000000000006200000000000620000000000000000000000000000002000000000000200000000000000012400000000000000220002014012000000010000000000000BRCESPACNPB4119
012013101196CGAS3F      020COMGAS      ON           R$  000000000465200000000046520000000004652000000000465200000000046520000000004651000000000530000001000000000000000038000000000000176776000000000000009999123100000010000000000000BRCGASACNOR0132
012013101102CGAS5       010COMGAS      PNA          R$  000000000590000000000059110000000005844000000000585600000000058500000000005850000000000585500079000000000000025700000000000150520800000000000000009999123100000010000000000000BRCGASACNPA3129
012013101196CGAS5F      020COMGAS      PNA          R$  000000000593000000000059300000000005526000000000579400000000058450000000005800000000000590000007000000000000000172000000000000996625000000000000009999123100000010000000000000BRCGASACNPA3129
012013101102CGRA3       010GRAZZIOTIN  ON           R$  000000000167000000000016700000000001660000000000166700000000016660000000001665000000000166900010000000000000001700000000000002834000000000000000009999123100000010000000000000BRCGRAACNOR2061
012013101196CGRA3F      020GRAZZIOTIN  ON           R$  000000000168000000000016800000000001635000000000167900000000016350000000001650000000000170000002000000000000000100000000000000167955000000000000009999123100000010000000000000BRCGRAACNOR2061
012013101102CGRA4       010GRAZZIOTIN  PN           R$  000000000175100000000017700000000001751000000000176800000000017600000000001756000000000176100015000000000000016700000000000029532600000000000000009999123100000010000000000000BRCGRAACNPR9061
012013101102CIEL3       010CIELO       ON      NM   R$  000000000628500000000065000000000006275000000000643200000000064750000000006475000000000648308748000000000002482200000000015966910600000000000000009999123100000010000000000000BRCIELACNOR3112
012013101196CIEL3F      020CIELO       ON      NM   R$  000000000630000000000064990000000006235000000000640300000000064900000000006465000000000648900159000000000000003465000000000022191059000000000000009999123100000010000000000000BRCIELACNOR3112
012013101162CIEL3T      030CIELO       ON      NM090R$  000000000658000000000065810000000006580000000000658000000000065810000000000000000000000000000002000000000000350000000000002303243320000000000000009999123100000010000000000000BRCIELACNOR3112
012013101138CIELJ61E    012CIEL        ON      NM000R$  000000000610000000000061000000000006100000000000610000000000061000000000000000000000000000000003000000000000003000000000000018300000000000000610002013102100000010000000000000BRCIELACNOR3112
012013101178CIELL16     070CIELE       ON      NM000R$  000000000008500000000000850000000000085000000000008500000000000850000000000000000000000000000002000000000000575000000000000048875000000000000665002013121600000010000000000000BRCIELACNOR3112
012013101182CIELX11     080CIELE       ON      NM000R$  000000000014200000000001420000000000142000000000014200000000001420000000000000000000000000000002000000000000575000000000000081650000000000000615002013121600000010000000000000BRCIELACNOR3112
012013101182CIELX58     080CIELE       ON      NM000R$  000000000006200000000000620000000000062000000000006200000000000620000000000000000000000000000002000000000000575000000000000035650000000000000580002013121600000010000000000000BRCIELACNOR3112
012013101102CLSC4       010CELESC      PN      N2   R$  000000000188500000000018850000000001860000000000186600000000018700000000001855000000000187500016000000000000002500000000000004666400000000000000009999123100000010000000000000BRCLSCACNPR3107
012013101102CMIG3       010CEMIG       ON      N1   R$  000000000194000000000019580000000001927000000000193600000000019270000000001927000000000194000249000000000000054100000000000104771600000000000000009999123100000010000000000000BRCMIGACNOR6208
012013101196CMIG3F      020CEMIG       ON      N1   R$  000000000194400000000019780000000001936000000000194700000000019360000000001926000000000194000012000000000000000397000000000000773142000000000000009999123100000010000000000000BRCMIGACNOR6208
012013101102CMIG4       010CEMIG       PN      N1   R$  000000000197200000000019930000000001969000000000198000000000019690000000001969000000000197004102000000000001341600000000002656397000000000000000009999123100000010000000000000BRCMIGACNPR3208
012013101196CMIG4F      020CEMIG       PN      N1   R$  000000000199000000000019900000000001971000000000198300000000019810000000001981000000000198800129000000000000003834000000000007598645000000000000009999123100000010000000000000BRCMIGACNPR3208
012013101162CMIG4T      030CEMIG       PN      N1017R$  000000000199000000000019910000000001990000000000199000000000019910000000000000000000000000000002000000000000003000000000000005970973000000000000009999123100000010000000000000BRCMIGACNPR3208
012013101162CMIG4T      030CEMIG       PN      N1060R$  000000000201500000000020160000000002015000000000201500000000020160000000000000000000000000000002000000000000000700000000000001411053000000000000009999123100000010000000000000BRCMIGACNPR3208
012013101162CMIG4T      030CEMIG       PN      N1180R$  000000000206900000000020700000000002069000000000206900000000020700000000000000000000000000000002000000000000003000000000000006208842000000000000009999123100000010000000000000BRCMIGACNPR3208
012013101178CMIGK20     070CMIG        PN      N1000R$  000000000005700000000000570000000000057000000000005700000000000570000000000000000000000007000001000000000000001000000000000000057000000000000200002013111800000010000000000000BRCMIGACNPR3208
012013101112CNES11B     010FII CENESP  CI      MB   R$  000000001251000000000129990000000012501000000001276300000000129990000000012501000000001299900008000000000000000133000000000001697517000000000000009999123100000010000000000000BRCNESCTF001126
012013101102COCE3       010COELCE      ON           R$  000000000400100000000040380000000004000000000000401300000000040290000000004000000000000402900025000000000000005100000000000020470200000000000000009999123100000010000000000000BRCOCEACNOR0132
012013101102COCE5       010COELCE      PNA          R$  000000000389000000000039180000000003856000000000388200000000038630000000003862000000000388400119000000000000023900000000000092784400000000000000009999123100000010000000000000BRCOCEACNPA3133
012013101196COCE5F      020COELCE      PNA          R$  000000000388900000000039090000000003865000000000388500000000039090000000003860000000000390900012000000000000000161000000000000625526000000000000009999123100000010000000000000BRCOCEACNPA3133
012013101102CPFE3       010CPFL ENERGIAON      NM   R$  000000000197900000000019980000000001972000000000198400000000019880000000001988000000000198904935000000000001173000000000002328069900000000000000009999123100000010000000000000BRCPFEACNOR0122
012013101196CPFE3F      020CPFL ENERGIAON      NM   R$  000000000196700000000019900000000001932000000000197300000000019320000000001933000000000199000022000000000000000565000000000001113221000000000000009999123100000010000000000000BRCPFEACNOR0122
012013101182CPFEV23     080CPFEE       ON      NM000R$  000000000031400000000003140000000000314000000000031400000000003140000000000000000000000000000001000000000000160000000000000050240000000000000230002013102100000010000000000000BRCPFEACNOR0122
012013101102CPLE3       010COPEL       ON      N1   R$  000000000225200000000022740000000002196000000000221200000000022250000000002201000000000222500182000000000000059900000000000132554500000000000000009999123100000010000000000000BRCPLEACNOR8128
012013101196CPLE3F      020COPEL       ON      N1   R$  000000000223000000000022300000000002205000000000221000000000022050000000002205000000000239000002000000000000000057000000000000125985000000000000009999123100000010000000000000BRCPLEACNOR8128
012013101102CPLE6       010COPEL       PNB     N1   R$  000000000303800000000030380000000003008000000000302400000000030300000000003023000000000303002654000000000000587300000000001776417400000000000000009999123100000010000000000000BRCPLEACNPB9125
012013101196CPLE6F      020COPEL       PNB     N1   R$  000000000303000000000031490000000003001000000000302500000000030010000000003000000000000302600010000000000000000396000000000001197835000000000000009999123100000010000000000000BRCPLEACNPB9125
012013101102CPRE3       010CPFL RENOVAVON      NM   R$  000000000138000000000013800000000001370000000000137400000000013740000000001365000000000137400003000000000000000400000000000000549800000000000000009999123100000010000000000000BRCPREACNOR5100
012013101102CRDE3       010CR2         ON      NM   R$  000000000039000000000003900000000000384000000000038700000000003840000000000384000000000039000004000000000000000700000000000000271200000000000000009999123100000010000000000000BRCRDEACNOR1108
012013101102CREM3       010CREMER      ON      NM   R$  000000000146100000000014770000000001450000000000145600000000014500000000001450000000000148100045000000000000012400000000000018054500000000000000009999123100000010000000000000BRCREMACNOR2167
012013101196CREM3F      020CREMER      ON      NM   R$  000000000149900000000015000000000001499000000000149900000000015000000000001420000000000150000002000000000000000028000000000000041986000000000000009999123100000010000000000000BRCREMACNOR2167
012013101102CRIV4       010ALFA FINANC PN           R$  000000000043300000000004490000000000426000000000043000000000004260000000000426000000000045800010000000000000005900000000000002541200000000000000009999123100000010000000000000BRCRIVACNPR1190
012013101102CRUZ3       010SOUZA CRUZ  ON           R$  000000000255500000000025650000000002528000000000254300000000025470000000002546000000000254702247000000000000482200000000001226090500000000000000009999123100000010000000000000BRCRUZACNOR0248
012013101196CRUZ3F      020SOUZA CRUZ  ON           R$  000000000256000000000025880000000002530000000000254400000000025500000000002530000000000255000035000000000000001282000000000003262449000000000000009999123100000010000000000000BRCRUZACNOR0248
012013101162CRUZ3T      030SOUZA CRUZ  ON        017R$  000000000255500000000025560000000002555000000000255500000000025560000000000000000000000000000002000000000000002000000000000005111378000000000000009999123100000010000000000000BRCRUZACNOR0248
012013101162CRUZ3T      030SOUZA CRUZ  ON        090R$  000000000261400000000026150000000002614000000000261400000000026150000000000000000000000000000002000000000000000100000000000000261428000000000000009999123100000010000000000000BRCRUZACNOR0248
012013101102CSAB4       010SEG AL BAHIAPN           R$  000000000300000000000030050000000003000000000000300300000000030050000000003000000000000000000003000000000000000300000000000000901000000000000000009999123100000010000000000000BRCSABACNPR8051
012013101162CSAB4T      030SEG AL BAHIAPN        180R$  000000000315400000000031550000000003154000000000315400000000031550000000000000000000000000000002000000000000000100000000000000315435000000000000009999123100000010000000000000BRCSABACNPR8051
012013101102CSAN3       010COSAN       ON      NM   R$  000000000436000000000043750000000004251000000000430200000000043270000000004326000000000432704898000000000001088400000000004682502000000000000000009999123100000010000000000000BRCSANACNOR6108
012013101196CSAN3F      020COSAN       ON      NM   R$  000000000438000000000043800000000004269000000000433000000000043020000000004302000000000435900051000000000000001639000000000007095736000000000000009999123100000010000000000000BRCSANACNOR6108
012013101162CSAN3T      030COSAN       ON      NM017R$  000000000437600000000043770000000004376000000000437600000000043770000000000000000000000000000002000000000000000300000000000001312891000000000000009999123100000010000000000000BRCSANACNOR6108
012013101162CSAN3T      030COSAN       ON      NM031R$  000000000431800000000043190000000004318000000000431800000000043190000000000000000000000000000002000000000000000800000000000003454979000000000000009999123100000010000000000000BRCSANACNOR6108
012013101162CSAN3T      030COSAN       ON      NM090R$  000000000446100000000044620000000004375000000000441500000000043760000000000000000000000000000024000000000000180100000000000795142282000000000000009999123100000010000000000000BRCSANACNOR6108
012013101178CSANJ14     070CSAN        ON      NM000R$  000000000001700000000000170000000000016000000000001600000000000160000000000000000000000000000003000000000000025000000000000000417500000000000445002013102100000010000000000000BRCSANACNOR6108
012013101182CSANV41     080CSANE       ON      NM000R$  000000000001500000000000150000000000015000000000001500000000000150000000000000000000000000000001000000000000025000000000000000375000000000000410002013102100000010000000000000BRCSANACNOR6108
012013101182CSANV42     080CSANE       ON      NM000R$  000000000004000000000000400000000000040000000000004000000000000400000000000000000000000000000001000000000000025000000000000001000000000000000420002013102100000010000000000000BRCSANACNOR6108
012013101102CSMG3       010COPASA      ON      NM   R$  000000000353800000000035620000000003500000000000353500000000035370000000003530000000000353701738000000000000250200000000000884661800000000000000009999123100000010000000000000BRCSMGACNOR5128
012013101196CSMG3F      020COPASA      ON      NM   R$  000000000359100000000036250000000003529000000000356200000000036250000000003501000000000363900018000000000000000529000000000001884542000000000000009999123100000010000000000000BRCSMGACNOR5128
012013101114CSMO11      010ISHARES CSMOCI           R$  000000000484000000000048400000000004840000000000484000000000048400000000004700000000000487700001000000000000000410000000000001984400000000000000009999123100000010000000000000BRCSMOCTF002100
012013101102CSNA3       010SID NACIONALON           R$  000000000101500000000010690000000001014000000000104900000000010610000000001061000000000106219078000000000010426300000000010946487000000000000000009999123100000010000000000000BRCSNAACNOR6243
012013101196CSNA3F      020SID NACIONALON           R$  000000000103900000000010680000000001020000000000105100000000010660000000001063000000000106600117000000000000003211000000000003378019000000000000009999123100000010000000000000BRCSNAACNOR6243
012013101162CSNA3T      030SID NACIONALON        031R$  000000000103400000000010350000000001034000000000103400000000010350000000000000000000000000000002000000000000001000000000000001034497000000000000009999123100000010000000000000BRCSNAACNOR6243
012013101162CSNA3T      030SID NACIONALON        060R$  000000000105800000000010590000000001058000000000105800000000010590000000000000000000000000000002000000000000005000000000000005292036000000000000009999123100000010000000000000BRCSNAACNOR6243
012013101162CSNA3T      030SID NACIONALON        090R$  000000000105900000000010820000000001059000000000106900000000010820000000000000000000000000000006000000000000012000000000000012832297000000000000009999123100000010000000000000BRCSNAACNOR6243
012013101178CSNAJ10     070CSNA        ON        000R$  000000000005100000000000770000000000051000000000006400000000000730000000000000000000000007300147000000000000129600000000000008421500000000000100002013102100000010000000000000BRCSNAACNOR6243
012013101178CSNAJ11     070CSNA  FM    ON        000R$  000000000000700000000000110000000000007000000000000800000000000090000000000000000000000001200029000000000000093000000000000000814000000000000110002013102100000010000000000000BRCSNAACNOR6243
012013101178CSNAJ20     070CSNA        ON        000R$  000000000004000000000000450000000000040000000000004000000000000450000000000000000000000000000006000000000000011600000000000000475500000000000102002013102100000010000000000000BRCSNAACNOR6243
012013101178CSNAJ40     070CSNA  FM    ON        000R$  000000000003100000000000420000000000027000000000003300000000000420000000000000000000000000000011000000000000028900000000000000953800000000000104002013102100000010000000000000BRCSNAACNOR6243
012013101178CSNAJ60     070CSNA        ON        000R$  000000000001500000000000150000000000015000000000001500000000000150000000000000000000000000000001000000000000000300000000000000004500000000000106002013102100000010000000000000BRCSNAACNOR6243
012013101178CSNAJ74     070CSNA        ON        000R$  000000000029200000000002920000000000292000000000029200000000002920000000000000000000000000000001000000000000006000000000000001752000000000000074002013102100000010000000000000BRCSNAACNOR6243
012013101178CSNAJ9      070CSNA        ON        000R$  000000000018600000000001890000000000186000000000018600000000001860000000000000000000000000000008000000000000006400000000000001195400000000000088002013102100000010000000000000BRCSNAACNOR6242
012013101178CSNAJ92     070CSNA        ON        000R$  000000000010900000000001120000000000109000000000011100000000001120000000000000000000000000000008000000000000016700000000000001859000000000000092002013102100000010000000000000BRCSNAACNOR6243
012013101178CSNAJ93     070CSNAE       ON        000R$  000000000010000000000001000000000000100000000000010000000000001000000000000000000000000000000001000000000000003000000000000000300000000000000093002013102100000010000000000000BRCSNAACNOR6243
012013101178CSNAJ94     070CSNA        ON        000R$  000000000012500000000001300000000000124000000000012600000000001270000000000000000000000000000010000000000000007100000000000000896400000000000094002013102100000010000000000000BRCSNAACNOR6243
012013101178CSNAJ98     070CSNA  FM    ON        000R$  000000000006900000000000920000000000069000000000007900000000000920000000000070000000000000000017000000000000041400000000000003281200000000000098002013102100000010000000000000BRCSNAACNOR6243
012013101178CSNAK10     070CSNA  FM    ON        000R$  000000000008400000000001120000000000084000000000010800000000001110000000000000000000000000000008000000000000016200000000000001757000000000000098002013111800000010000000000000BRCSNAACNOR6242
012013101178CSNAK11     070CSNA  FM    ON        000R$  000000000003200000000000390000000000030000000000003500000000000390000000000032000000000003900044000000000000358500000000000012578800000000000110002013111800000010000000000000BRCSNAACNOR6243
012013101178CSNAK40     070CSNA  FM    ON        000R$  000000000004900000000000700000000000048000000000006500000000000700000000000000000000000000000136000000000000118800000000000007797200000000000104002013111800000010000000000000BRCSNAACNOR6243
012013101178CSNAK60     070CSNA        ON        000R$  000000000004300000000000430000000000043000000000004300000000000430000000000000000000000000000001000000000000000200000000000000008600000000000106002013111800000010000000000000BRCSNAACNOR6243
012013101178CSNAK8      070CSNA        ON        000R$  000000000025200000000002940000000000252000000000027000000000002940000000000000000000000000000004000000000000011000000000000002979000000000000078002013111800000010000000000000BRCSNAACNOR6242
012013101178CSNAK92     070CSNA        ON        000R$  000000000012900000000001320000000000129000000000013000000000001320000000000000000000000000000005000000000000016700000000000002174400000000000092002013111800000010000000000000BRCSNAACNOR6243
012013101178CSNAL12     070CSNA        ON        000R$  000000000003700000000000370000000000036000000000003600000000000360000000000000000000000000000005000000000000020000000000000000735000000000000114702013121600000010000000000000BRCSNAACNOR6241
012013101182CSNAV10     080CSNAE       ON        000R$  000000000002000000000000200000000000007000000000001100000000000070000000000006000000000000700041000000000000068000000000000000793000000000000100002013102100000010000000000000BRCSNAACNOR6243
012013101182CSNAV40     080CSNAE FM    ON        000R$  000000000003100000000000330000000000012000000000002600000000000120000000000000000000000003100012000000000000033000000000000000872000000000000104002013102100000010000000000000BRCSNAACNOR6243
012013101182CSNAV60     080CSNAE       ON        000R$  000000000003600000000000360000000000031000000000003300000000000310000000000000000000000000000002000000000000004000000000000000134000000000000106002013102100000010000000000000BRCSNAACNOR6243
012013101182CSNAV9      080CSNAE       ON        000R$  000000000000100000000000010000000000001000000000000100000000000010000000000001000000000002400008000000000000042400000000000000042400000000000088002013102100000010000000000000BRCSNAACNOR6242
012013101182CSNAV98     080CSNAE FM    ON        000R$  000000000000600000000000060000000000006000000000000600000000000060000000000000000000000000000001000000000000003000000000000000018000000000000098002013102100000010000000000000BRCSNAACNOR6243
012013101182CSNAW1      080CSNAE       ON        000R$  000000000003700000000000370000000000031000000000003300000000000310000000000000000000000000000016000000000000021900000000000000729700000000000100002013111800000010000000000000BRCSNAACNOR6243
012013101182CSNAW10     080CSNAE FM    ON        000R$  000000000003200000000000320000000000021000000000002700000000000210000000000020000000000003000039000000000000034000000000000000930900000000000098002013111800000010000000000000BRCSNAACNOR6242
012013101182CSNAW20     080CSNAE       ON        000R$  000000000004400000000000440000000000044000000000004400000000000440000000000000000000000000000001000000000000002000000000000000088000000000000102002013111800000010000000000000BRCSNAACNOR6243
012013101182CSNAW40     080CSNAE FM    ON        000R$  000000000005700000000000570000000000037000000000004000000000000390000000000000000000000000000053000000000000832000000000000033960000000000000104002013111800000010000000000000BRCSNAACNOR6243
012013101182CSNAW60     080CSNAE       ON        000R$  000000000006400000000000640000000000064000000000006400000000000640000000000000000000000000000001000000000000002000000000000000128000000000000106002013111800000010000000000000BRCSNAACNOR6243
012013101182CSNAW9      080CSNAE       ON        000R$  000000000001400000000000140000000000012000000000001200000000000120000000000009000000000002200015000000000000007600000000000000097700000000000090002013111800000010000000000000BRCSNAACNOR6243
012013101182CSNAW94     080CSNAE FM    ON        000R$  000000000001900000000000190000000000014000000000001400000000000150000000000000000000000000000003000000000000736000000000000010475000000000000094002013111800000010000000000000BRCSNAACNOR6243
012013101182CSNAX9      080CSNAE       ON        000R$  000000000001400000000000140000000000011000000000001200000000000110000000000010000000000003000004000000000000001900000000000000023100000000000084702013121600000010000000000000BRCSNAACNOR6241
012013101102CTAX11      010CONTAX      UNT     N2   R$  000000000187000000000018970000000001837000000000186300000000018700000000001853000000000187300069000000000000090600000000000168818900000000000000009999123100000010000000000000BRCTAXCDAM19100
012013101196CTAX11F     020CONTAX      UNT     N2   R$  000000000188000000000018800000000001777000000000185300000000017770000000001652000000000197500006000000000000000122000000000000226133000000000000009999123100000010000000000000BRCTAXCDAM19100
012013101102CTAX3       010CONTAX      ON      N2   R$  000000000038300000000003830000000000375000000000037800000000003750000000000365000000000037500015000000000000004200000000000001588000000000000000009999123100000010000000000000BRCTAXACNOR3113
012013101102CTAX4       010CONTAX      PN      N2   R$  000000000035300000000003800000000000353000000000036800000000003800000000000354000000000038000036000000000000011900000000000004383300000000000000009999123100000010000000000000BRCTAXACNPR0114
012013101196CTAX4F      020CONTAX      PN      N2   R$  000000000037000000000003700000000000370000000000037000000000003700000000000343000000000043300001000000000000000009000000000000003330000000000000009999123100000010000000000000BRCTAXACNPR0114
012013101102CTIP3       010CETIP       ON      NM   R$  000000000235500000000023570000000002332000000000234100000000023390000000002336000000000234104834000000000001064400000000002492269300000000000000009999123100000010000000000000BRCTIPACNOR2120
012013101196CTIP3F      020CETIP       ON      NM   R$  000000000235000000000023610000000002330000000000234100000000023360000000002337000000000234100037000000000000001176000000000002753678000000000000009999123100000010000000000000BRCTIPACNOR2120
012013101162CTIP3T      030CETIP       ON      NM017R$  000000000236200000000023630000000002362000000000236200000000023630000000000000000000000000000002000000000000004000000000000009450589000000000000009999123100000010000000000000BRCTIPACNOR2120
012013101102CTKA4       010KARSTEN     PN           R$  000000000010500000000001100000000000100000000000010200000000001100000000000097000000000010700016000000000000003900000000000000399200000000000000009999123100000010000000000000BRCTKAACNPR7041
012013101102CTNM4       010COTEMINAS   PN           R$  000000000022700000000002300000000000227000000000022700000000002270000000000225000000000022900007000000000000003200000000000000728000000000000000009999123100000010000000000000BRCTNMACNPR6128
012013101102CTSA3       010SANTANENSE  ON           R$  000000000052100000000005300000000000520000000000052100000000005250000000000513000000000052500007000000000000001900000000000000991700000000000000009999123100000010000000000000BRCTSAACNOR3051
012013101102CTSA4       010SANTANENSE  PN           R$  000000000059400000000005940000000000582000000000058700000000005820000000000555000000000058200003000000000000000900000000000000528700000000000000009999123100000010000000000000BRCTSAACNPR0051
012013101112CXCE11B     010FII CX CEDAECI      MB   R$  000000019200600000001920060000000192006000000019200600000001920060000000190501000000019398000005000000000000000080000000000015360480000000000000009999123100000010000000000000BRCXCECTF004139
012013101102CYRE3       010CYRELA REALTON      NM   R$  000000000170100000000017360000000001689000000000170900000000017160000000001710000000000171609191000000000002999500000000005126567200000000000000009999123100000010000000000000BRCYREACNOR7125
012013101196CYRE3F      020CYRELA REALTON      NM   R$  000000000171800000000017270000000001680000000000170800000000016940000000001693000000000173200023000000000000000660000000000001127280000000000000009999123100000010000000000000BRCYREACNOR7125
012013101162CYRE3T      030CYRELA REALTON      NM090R$  000000000174800000000017490000000001732000000000173800000000017330000000000000000000000000000004000000000000000500000000000000869368000000000000009999123100000010000000000000BRCYREACNOR7125
012013101178CYREJ16     070CYRE        ON      NM000R$  000000000010300000000001030000000000103000000000010300000000001030000000000000000000000000000001000000000000001200000000000000123600000000000160002013102100000010000000000000BRCYREACNOR7125
012013101178CYREJ17     070CYRE  FM    ON      NM000R$  000000000003800000000000450000000000024000000000003800000000000390000000000000000000000000000006000000000000013900000000000000535400000000000170002013102100000010000000000000BRCYREACNOR7125
012013101178CYREJ46     070CYRE  FM    ON      NM000R$  000000000007600000000000810000000000076000000000008000000000000810000000000000000000000000000005000000000000012600000000000001015600000000000165002013102100000010000000000000BRCYREACNOR7125
012013101178CYREJ47     070CYRE  FM    ON      NM000R$  000000000001600000000000160000000000008000000000001100000000000080000000000000000000000001200005000000000000015000000000000000176000000000000175002013102100000010000000000000BRCYREACNOR7125
012013101178CYREK17     070CYRE  FM    ON      NM000R$  000000000007000000000000830000000000060000000000007100000000000600000000000000000000000000000004000000000000005800000000000000412000000000000170002013111800000010000000000000BRCYREACNOR7125
012013101178CYREK18     070CYRE  FM    ON      NM000R$  000000000003200000000000320000000000024000000000002800000000000240000000000000000000000000000002000000000000004000000000000000112000000000000180002013111800000010000000000000BRCYREACNOR7125
012013101178CYREK46     070CYRE  FM    ON      NM000R$  000000000011300000000001200000000000108000000000011500000000001080000000000000000000000000000005000000000000011000000000000001273000000000000165002013111800000010000000000000BRCYREACNOR7125
012013101178CYREK47     070CYRE  FM    ON      NM000R$  000000000005200000000000520000000000052000000000005200000000000520000000000000000000000000000001000000000000002700000000000000140400000000000175002013111800000010000000000000BRCYREACNOR7125
012013101178CYREK48     070CYRE  FM    ON      NM000R$  000000000002000000000000200000000000017000000000001800000000000170000000000000000000000000000002000000000000006900000000000000127500000000000185002013111800000010000000000000BRCYREACNOR7125
012013101178CYREK58     070CYREE       ON      NM000R$  000000000001900000000000200000000000018000000000001800000000000190000000000000000000000000000005000000000000400000000000000007554000000000000182502013111800000010000000000000BRCYREACNOR7125
012013101182CYREV17     080CYREE FM    ON      NM000R$  000000000001700000000000290000000000017000000000002300000000000290000000000000000000000000000003000000000000002500000000000000057500000000000170002013102100000010000000000000BRCYREACNOR7125
012013101182CYREV47     080CYREE FM    ON      NM000R$  000000000004600000000000550000000000046000000000005000000000000550000000000000000000000000000002000000000000002000000000000000101000000000000175002013102100000010000000000000BRCYREACNOR7125
012013101182CYREW16     080CYREE FM    ON      NM000R$  000000000002400000000000240000000000024000000000002400000000000240000000000000000000000000000002000000000000400000000000000009600000000000000160002013111800000010000000000000BRCYREACNOR7125
012013101182CYREW17     080CYREE FM    ON      NM000R$  000000000004500000000000560000000000045000000000005500000000000560000000000000000000000000000004000000000000403500000000000022357500000000000170002013111800000010000000000000BRCYREACNOR7125
012013101182CYREW47     080CYREE FM    ON      NM000R$  000000000007600000000000760000000000065000000000006700000000000650000000000000000000000000000003000000000000007000000000000000469200000000000175002013111800000010000000000000BRCYREACNOR7125
012013101102CZLT33      010COSAN LTD   DR3          R$  000000000338000000000034010000000003351000000000337500000000033800000000003370000000000338700916000000000000259500000000000876069900000000000000009999123100000010000000000000BRCZLTBDR009105
012013101196CZLT33F     020COSAN LTD   DR3          R$  000000000335800000000033600000000003358000000000335900000000033600000000003360000000000347000002000000000000000048000000000000161270000000000000009999123100000010000000000000BRCZLTBDR009105
012013101102DAGB33      010DUFRY AG    DR3          R$  000000003265100000000334960000000032099000000003265900000000327000000000032400000000003273300303000000000000006409000000000209316699000000000000009999123100000010000000000000BRDAGBBDR008100
012013101162DAGB33T     030DUFRY AG    DR3       122R$  000000003369300000000336940000000033693000000003369300000000336940000000000000000000000000000002000000000000000050000000000001684660000000000000009999123100000010000000000000BRDAGBBDR008100
012013101102DASA3       010DASA        ON      NM   R$  000000000124500000000012800000000001239000000000125700000000012720000000001265000000000127204460000000000001182600000000001487531600000000000000009999123100000010000000000000BRDASAACNOR1108
012013101196DASA3F      020DASA        ON      NM   R$  000000000125200000000012990000000001252000000000126300000000012700000000001230000000000129000015000000000000000350000000000000442274000000000000009999123100000010000000000000BRDASAACNOR1108
012013101102DAYC4       010DAYCOVAL    PN      N2   R$  000000000090200000000009100000000000899000000000090500000000009100000000000901000000000091000033000000000000008800000000000007971200000000000000009999123100000010000000000000BRDAYCACNPR2129
012013101196DAYC4F      020DAYCOVAL    PN      N2   R$  000000000084500000000010000000000000845000000000089300000000008500000000000851000000000099600009000000000000000250000000000000223344000000000000009999123100000010000000000000BRDAYCACNPR2129
012013101102DIRR3       010DIRECIONAL  ON      NM   R$  000000000122500000000012290000000001202000000000121100000000012190000000001211000000000121901801000000000000397600000000000481794700000000000000009999123100000010000000000000BRDIRRACNOR0104
012013101196DIRR3F      020DIRECIONAL  ON      NM   R$  000000000122000000000012220000000001203000000000120600000000012030000000001202000000000130000013000000000000000388000000000000468186000000000000009999123100000010000000000000BRDIRRACNOR0104
012013101114DIVO11      010IT NOW IDIV CI           R$  000000000342300000000034440000000003423000000000343100000000034440000000003444000000000345000013000000000000001360000000000004667420000000000000009999123100000010000000000000BRDIVOCTF002100
012013101196DIVO11F     020IT NOW IDIV CI           R$  000000000334400000000034270000000003344000000000338000000000034270000000003374000000000342700003000000000000000006000000000000020285000000000000009999123100000010000000000000BRDIVOCTF002100
012013101102DOCA4       010DOCAS       PN           R$  000000000050100000000005010000000000501000000000050100000000005010000000000500000000000100000001000000000000000100000000000000050100000000000000009999123100000010000000000000BRDOCAACNPR3143
012013101162DOCA4T      030DOCAS       PN        090R$  000000000051100000000005120000000000511000000000051100000000005120000000000000000000000000000002000000000000000100000000000000051147000000000000009999123100000010000000000000BRDOCAACNPR3143
012013101102DOHL4       010DOHLER      PN           R$  000000000046000000000004790000000000460000000000046000000000004790000000000440000000000047900008000000000000002600000000000001197900000000000000009999123100000010000000000000BRDOHLACNPR9054
012013101112DRIT11B     010FII MTGESTAOCI  ER  MB   R$  000000001150000000000115000000000011500000000001150000000000115000000000011202000000001290000001000000000000000440000000000005060000000000000000009999123100000010000000000000BRDRITCTF009124
012013101102DTEX3       010DURATEX     ON      NM   R$  000000000135200000000013780000000001349000000000136600000000013650000000001365000000000136604656000000000002377500000000003248597800000000000000009999123100000010000000000000BRDTEXACNOR3115
012013101196DTEX3F      020DURATEX     ON      NM   R$  000000000135400000000013750000000001350000000000136300000000013560000000001325000000000137500041000000000000001419000000000001934335000000000000009999123100000010000000000000BRDTEXACNOR3115
012013101102EBTP3       010EMBRATEL PARON *         R$  000000000070100000000007500000000000700000000000071200000000007500000000000750000000000089900007000000000000900000000000000000641000000000000000009999123100010000000000000000BREBTPACNOR3115
012013101196EBTP3F      020EMBRATEL PARON *         R$  000000000070000000000007000000000000632000000000068800000000006320000000000632000000000090000005000000000000027137000000000000018677000000000000009999123100010000000000000000BREBTPACNOR3115
