00COTAHIST.2013BOVESPA 20130911                                                                                                                                                                                                                      
012013091102AAPL34      010APPLE       DRN          R$  000000001069500000000106950000000010600000000001061900000000106000000000010585000000001073000002000000000000001000000000000010619000000000000000009999123100000010000000000000BRAAPLBDR004105
012013091102ABCB4       010ABC BRASIL  PN      N2   R$  000000000120800000000012390000000001204000000000122700000000012390000000001226000000000123900398000000000000084800000000000104076800000000000000009999123100000010000000000000BRABCBACNPR4120
012013091196ABCB4F      020ABC BRASIL  PN      N2   R$  000000000123500000000012430000000001203000000000122300000000012030000000001203000000000124300027000000000000000494000000000000604390000000000000009999123100000010000000000000BRABCBACNPR4120
012013091112ABCP11      010FII ABC IMOBCI  ER       R$  000000000096400000000009640000000000950000000000095600000000009500000000000950000000000096700003000000000000000316000000000000302300000000000000009999123100000010000000000000BRABCPCTF000215
012013091102ABRE11      010ABRIL EDUCA UNT     N2   R$  000000000343600000000034680000000003386000000000343100000000034260000000003401000000000342600425000000000000086700000000000297545800000000000000009999123100000010000000000000BRABRECDAM15102
012013091196ABRE11F     020ABRIL EDUCA UNT     N2   R$  000000000343000000000034610000000003300000000000338300000000034600000000003000000000000346000006000000000000000240000000000000811994000000000000009999123100000010000000000000BRABRECDAM15102
012013091102AEDU3       010ANHANGUERA  ON      NM   R$  000000000138200000000013820000000001331000000000134300000000013380000000001335000000000133806012000000000002823700000000003794404800000000000000009999123100000010000000000000BRAEDUACNOR9107
012013091196AEDU3F      020ANHANGUERA  ON      NM   R$  000000000137200000000013780000000001330000000000135100000000013490000000001303000000000134900028000000000000000832000000000001124398000000000000009999123100000010000000000000BRAEDUACNOR9107
012013091162AEDU3T      030ANHANGUERA  ON      NM030R$  000000000134800000000013490000000001348000000000134800000000013490000000000000000000000000000002000000000000000700000000000000944246000000000000009999123100000010000000000000BRAEDUACNOR9107
012013091112AEFI11      010FII AESAPAR CI  ER       R$  000000001181500000000118660000000011800000000001182100000000118580000000011810000000001185800027000000000000001021000000000012070109000000000000009999123100000010000000000000BRAEFICTF002121
012013091196AELP3F      020AES ELPA    ON           R$  000000000092000000000009200000000000920000000000092000000000009200000000000918000000000000000001000000000000000057000000000000052440000000000000009999123100000010000000000000BRAELPACNOR2119
012013091112AGCX11      010FII AG CAIXACI  ER       R$  000000009800000000000980000000000096601000000009745500000000966010000000096601000000009820000012000000000000000037000000000003605854000000000000009999123100000010000000000000BRAGCXCTF003110
012013091102AGRO3       010BRASILAGRO  ON      NM   R$  000000000096200000000009650000000000959000000000096100000000009600000000000958000000000096700049000000000000034200000000000032887300000000000000009999123100000010000000000000BRAGROACNOR7102
012013091196AGRO3F      020BRASILAGRO  ON      NM   R$  000000000090000000000009000000000000900000000000090000000000009000000000000900000000000109000001000000000000000010000000000000009000000000000000009999123100000010000000000000BRAGROACNOR7102
012013091162AGRO3T      030BRASILAGRO  ON      NM061R$  000000000097300000000009740000000000973000000000097300000000009740000000000000000000000000000002000000000000002000000000000001946688000000000000009999123100000010000000000000BRAGROACNOR7102
012013091102ALLL3       010ALL AMER LATON      NM   R$  000000000093400000000009380000000000905000000000091700000000009160000000000916000000000091706106000000000003558100000000003263650700000000000000009999123100000010000000000000BRALLLACNOR6118
012013091196ALLL3F      020ALL AMER LATON      NM   R$  000000000093200000000009410000000000908000000000091600000000009130000000000913000000000091800041000000000000001107000000000001015019000000000000009999123100000010000000000000BRALLLACNOR6118
012013091178ALLLL11     070ALLL        ON      NM000R$  000000000001500000000000150000000000015000000000001500000000000150000000000000000000000000000001000000000000000300000000000000004500000000000110002013121600000010000000000000BRALLLACNOR6118
012013091112ALMI11B     010FII TORRE ALCI  ER  MB   R$  000000030810000000003095000000000308100000000030860000000003095000000000308300000000030950000007000000000000000034000000000010492400000000000000009999123100000010000000000000BRALMICTF003205
012013091102ALPA3       010ALPARGATAS  ON      N1   R$  000000000113900000000011410000000001121000000000113000000000011240000000001123000000000113700014000000000000005200000000000005876600000000000000009999123100000010000000000000BRALPAACNOR0203
012013091196ALPA3F      020ALPARGATAS  ON      N1   R$  000000000114100000000011410000000001141000000000114100000000011410000000001141000000000119700001000000000000000005000000000000005705000000000000009999123100000010000000000000BRALPAACNOR0203
012013091102ALPA4       010ALPARGATAS  PN      N1   R$  000000000132000000000013530000000001317000000000134000000000013390000000001329000000000133901244000000000000311800000000000418016600000000000000009999123100000010000000000000BRALPAACNPR7203
012013091196ALPA4F      020ALPARGATAS  PN      N1   R$  000000000131500000000013550000000001311000000000132900000000013410000000001320000000000134100013000000000000000387000000000000514693000000000000009999123100000010000000000000BRALPAACNPR7203
012013091102ALSC3       010ALIANSCE    ON      NM   R$  000000000189900000000019260000000001865000000000189000000000018930000000001886000000000189301526000000000000356300000000000673523100000000000000009999123100000010000000000000BRALSCACNOR0104
012013091102ALUP11      010ALUPAR      UNT     N2   R$  000000000177400000000017740000000001728000000000174700000000017310000000001730000000000174400185000000000000101800000000000177857500000000000000009999123100000010000000000000BRALUPCDAM15100
012013091196ALUP11F     020ALUPAR      UNT     N2   R$  000000000176000000000017600000000001705000000000173800000000017460000000001631000000000175500016000000000000000484000000000000841528000000000000009999123100000010000000000000BRALUPCDAM15100
012013091102AMAR3       010LOJAS MARISAON      NM   R$  000000000210200000000021440000000002029000000000207100000000020800000000002074000000000208001313000000000000267000000000000553020900000000000000009999123100000010000000000000BRAMARACNOR4109
012013091196AMAR3F      020LOJAS MARISAON      NM   R$  000000000213100000000021310000000002047000000000208800000000020570000000002057000000000217000022000000000000000691000000000001443445000000000000009999123100000010000000000000BRAMARACNOR4109
012013091162AMAR3T      030LOJAS MARISAON      NM016R$  000000000206600000000020670000000002065000000000206600000000020660000000000000000000000000000004000000000000008000000000000016528357000000000000009999123100000010000000000000BRAMARACNOR4109
012013091162AMAR3T      030LOJAS MARISAON      NM090R$  000000000210600000000021070000000002106000000000210600000000021070000000000000000000000000000004000000000000000040000000000000084255000000000000009999123100000010000000000000BRAMARACNOR4109
012013091178AMARJ21     070AMAR        ON      NM000R$  000000000007200000000000720000000000072000000000007200000000000720000000000000000000000000000001000000000000000800000000000000057600000000000210002013102100000010000000000000BRAMARACNOR4109
012013091102AMBV3       010AMBEV       ON           R$  000000000842300000000085090000000008300000000000838600000000085090000000008509000000000851202703000000000000473400000000003970306700000000000000009999123100000010000000000000BRAMBVACNOR4153
012013091196AMBV3F      020AMBEV       ON           R$  000000000844100000000084970000000008306000000000838900000000084400000000008412000000000850000043000000000000000972000000000008162294000000000000009999123100000010000000000000BRAMBVACNOR4153
012013091162AMBV3T      030AMBEV       ON        016R$  000000000843500000000084360000000008435000000000843500000000084360000000000000000000000000000002000000000000003000000000000025305840000000000000009999123100000010000000000000BRAMBVACNOR4153
012013091102AMBV4       010AMBEV       PN           R$  000000000836200000000084930000000008295000000000840000000000084930000000008493000000000849409187000000000002710400000000022771766500000000000000009999123100000010000000000000BRAMBVACNPR1153
012013091196AMBV4F      020AMBEV       PN           R$  000000000839000000000084510000000008300000000000838700000000084510000000008451000000000845500219000000000000004815000000000040428963000000000000009999123100000010000000000000BRAMBVACNPR1153
012013091162AMBV4T      030AMBEV       PN        030R$  000000000840800000000084170000000008408000000000841300000000084170000000000000000000000000000004000000000000000300000000000002524072000000000000009999123100000010000000000000BRAMBVACNPR1153
012013091162AMBV4T      030AMBEV       PN        090R$  000000000849100000000085170000000008491000000000850400000000085170000000000000000000000000000004000000000000025200000000000214315047000000000000009999123100000010000000000000BRAMBVACNPR1153
012013091162AMBV4T      030AMBEV       PN        120R$  000000000860100000000086020000000008601000000000860100000000086020000000000000000000000000000002000000000000001000000000000008601012000000000000009999123100000010000000000000BRAMBVACNPR1153
012013091162AMBV4T      030AMBEV       PN        180R$  000000000875100000000087690000000008751000000000876200000000087690000000000000000000000000000004000000000000001600000000000014019530000000000000009999123100000010000000000000BRAMBVACNPR1153
012013091178AMBVA10     070AMBV        PN        000R$  000000000004000000000000400000000000040000000000004000000000000400000000000000000000000000000002000000000000021000000000000000840000000000001000002014012000000010000000000000BRAMBVACNPR1153
012013091178AMBVA90     070AMBV        PN        000R$  000000000031000000000003100000000000310000000000031000000000003100000000000000000000000000000001000000000000021000000000000006510000000000000900002014012000000010000000000000BRAMBVACNPR1153
012013091178AMBVI84     070AMBV        PN        000R$  000000000005500000000000550000000000055000000000005500000000000550000000000011000000000007000002000000000000000500000000000000027500000000000840002013091600000010000000000000BRAMBVACNPR1153
012013091178AMBVI86     070AMBV        PN        000R$  000000000000400000000000040000000000004000000000000400000000000040000000000010000000000004000001000000000000000400000000000000001600000000000860002013091600000010000000000000BRAMBVACNPR1153
012013091178AMBVJ84     070AMBV        PN        000R$  000000000020000000000002500000000000200000000000022500000000002500000000000000000000000000000014000000000000009700000000000002183200000000000840002013102100000010000000000000BRAMBVACNPR1153
012013091178AMBVJ85     070AMBV        PN        000R$  000000000016000000000001950000000000130000000000016900000000001950000000000000000000000000000005000000000000000500000000000000084500000000000850002013102100000010000000000000BRAMBVACNPR1153
012013091178AMBVJ87     070AMBV        PN        000R$  000000000013500000000001350000000000104000000000011900000000001040000000000090000000000000000002000000000000000200000000000000023900000000000870002013102100000010000000000000BRAMBVACNPR1153
012013091178AMBVJ88     070AMBV        PN        000R$  000000000010100000000001010000000000074000000000008100000000000900000000000000000000000011000017000000000000014700000000000001196700000000000880002013102100000010000000000000BRAMBVACNPR1153
012013091178AMBVJ89     070AMBV        PN        000R$  000000000005000000000000710000000000050000000000006200000000000700000000000000000000000010000007000000000000013000000000000000815000000000000890002013102100000010000000000000BRAMBVACNPR1153
012013091178AMBVL91     070AMBV        PN        000R$  000000000014200000000001420000000000142000000000014200000000001420000000000000000000000000000002000000000000000800000000000000113600000000000910002013121600000010000000000000BRAMBVACNPR1153
012013091182AMBVX2      080AMBVE       PN        000R$  000000000011000000000001100000000000110000000000011000000000001100000000000000000000000000000002000000000000000800000000000000088000000000000785002013121600000010000000000000BRAMBVACNPR1153
012013091102ARTR3       010ARTERIS     ON      NM   R$  000000000188200000000019600000000001880000000000193000000000019600000000001950000000000196001753000000000000728900000000001406933400000000000000009999123100000010000000000000BRARTRACNOR3101
012013091196ARTR3F      020ARTERIS     ON      NM   R$  000000000191400000000019690000000001908000000000193600000000019500000000001894000000000197000040000000000000001314000000000002544494000000000000009999123100000010000000000000BRARTRACNOR3101
012013091102ARZZ3       010AREZZO CO   ON      NM   R$  000000000361000000000036970000000003559000000000360400000000036970000000003670000000000369800369000000000000292400000000001054081600000000000000009999123100000010000000000000BRARZZACNOR3109
012013091196ARZZ3F      020AREZZO CO   ON      NM   R$  000000000360000000000037150000000003600000000000367900000000036520000000003506000000000378000010000000000000000300000000000001103949000000000000009999123100000010000000000000BRARZZACNOR3109
012013091102AUTM3       010AUTOMETAL   ON      NM   R$  000000000184000000000018620000000001840000000000185200000000018550000000001848000000000185500166000000000000029400000000000054452200000000000000009999123100000010000000000000BRAUTMACNOR8109
012013091196AUTM3F      020AUTOMETAL   ON      NM   R$  000000000187000000000018700000000001870000000000187000000000018700000000001870000000000194800001000000000000000010000000000000018700000000000000009999123100000010000000000000BRAUTMACNOR8109
012013091102AXPB34      010AMERICAN EXPDRN          R$  000000001725000000000173150000000016998000000001727500000000169980000000016882000000001738900003000000000000010900000000000188301200000000000000009999123100000010000000000000BRAXPBBDR007105
012013091102AZEV4       010AZEVEDO     PN           R$  000000000014000000000001400000000000140000000000014000000000001400000000000135000000000014000001000000000000000400000000000000056000000000000000009999123100000010000000000000BRAZEVACNPR7113
012013091102BAHI3       010BAHEMA      ON           R$  000000000049000000000004980000000000490000000000049400000000004980000000000473000000000050000003000000000000004000000000000001976000000000000000009999123100000010000000000000BRBAHIACNOR1066
012013091162BAHI3T      030BAHEMA      ON        030R$  000000000049400000000005030000000000494000000000049800000000005030000000000000000000000000000004000000000000004000000000000001993586000000000000009999123100000010000000000000BRBAHIACNOR1066
012013091102BAZA3       010AMAZONIA    ON           R$  000000000003300000000000330000000000032000000000003200000000000330000000000032000000000003300005000000000000009000000000000000294000000000000000009999123100000010000000000000BRBAZAACNOR0163
012013091102BBAS3       010BRASIL      ON      NM   R$  000000000246500000000024750000000002440000000000245000000000024510000000002451000000000245211777000000000011815000000000028948328000000000000000009999123100000010000000000000BRBBASACNOR3238
012013091196BBAS3F      020BRASIL      ON      NM   R$  000000000246700000000024750000000002430000000000245400000000024300000000002430000000000245300265000000000000006771000000000016619897000000000000009999123100000010000000000000BRBBASACNOR3238
012013091162BBAS3T      030BRASIL      ON      NM016R$  000000000245500000000024560000000002455000000000245500000000024560000000000000000000000000000002000000000000050000000000000122752404000000000000009999123100000010000000000000BRBBASACNOR3238
012013091162BBAS3T      030BRASIL      ON      NM030R$  000000000246200000000024630000000002462000000000246200000000024630000000000000000000000000000002000000000000050000000000000123119121000000000000009999123100000010000000000000BRBBASACNOR3238
012013091162BBAS3T      030BRASIL      ON      NM047R$  000000000247800000000024790000000002478000000000247800000000024790000000000000000000000000000002000000000000001000000000000002478941000000000000009999123100000010000000000000BRBBASACNOR3238
012013091162BBAS3T      030BRASIL      ON      NM120R$  000000000253200000000025330000000002532000000000253200000000025330000000000000000000000000000002000000000000001000000000000002532006000000000000009999123100000010000000000000BRBBASACNOR3238
012013091178BBASB26     070BBAS        ON      NM000R$  000000000015700000000001600000000000153000000000015400000000001540000000000000000000000000000014000000000000038800000000000005996600000000000252202014021700000010000000000000BRBBASACNOR3237
012013091138BBASI14E    012BBAS        ON      NM000R$  000000000132200000000013220000000001322000000000132200000000013220000000000000000000000000000001000000000000014100000000000018640200000000000132202013091600000010000000000000BRBBASACNOR3238
012013091138BBASI20E    012BBAS        ON      NM000R$  000000000192200000000019220000000001922000000000192200000000019220000000000000000000000000000001000000000000000100000000000000192200000000000192202013091600000010000000000000BRBBASACNOR3238
012013091138BBASI21E    012BBAS        ON      NM000R$  000000000202200000000020220000000002022000000000202200000000020220000000000000000000000000000003000000000000097300000000000196740600000000000202202013091600000010000000000000BRBBASACNOR3238
012013091178BBASI22     070BBAS        ON      NM000R$  000000000035000000000003500000000000350000000000035000000000003500000000000306000000000000000001000000000000000500000000000000175000000000000209802013091600000010000000000000BRBBASACNOR3236
012013091178BBASI23     070BBAS        ON      NM000R$  000000000025900000000002590000000000259000000000025900000000002590000000000219000000000025500005000000000000002400000000000000621600000000000219802013091600000010000000000000BRBBASACNOR3236
012013091178BBASI24     070BBAS        ON      NM000R$  000000000017900000000001790000000000150000000000017300000000001500000000000021000000000016200024000000000000015700000000000002717700000000000229802013091600000010000000000000BRBBASACNOR3236
012013091178BBASI25     070BBAS        ON      NM000R$  000000000008400000000000930000000000066000000000008600000000000660000000000065000000000007000101000000000000288000000000000025054900000000000238802013091600000010000000000000BRBBASACNOR3235
012013091178BBASI26     070BBAS        ON      NM000R$  000000000001500000000000180000000000009000000000001200000000000090000000000007000000000001000032000000000000055800000000000000723000000000000248802013091600000010000000000000BRBBASACNOR3235
012013091178BBASJ22     070BBAS        ON      NM000R$  000000000032600000000003530000000000305000000000032900000000003050000000000302000000000000000013000000000000001300000000000000428700000000000212202013102100000010000000000000BRBBASACNOR3237
012013091178BBASJ23     070BBAS  FM    ON      NM000R$  000000000030200000000003120000000000283000000000029300000000002830000000000266000000000000000166000000000000142900000000000041984400000000000218802013102100000010000000000000BRBBASACNOR3235
012013091178BBASJ24     070BBAS  FM    ON      NM000R$  000000000020500000000002140000000000196000000000020600000000001970000000000145000000000000000092000000000000052500000000000010837700000000000229802013102100000010000000000000BRBBASACNOR3236
012013091178BBASJ25     070BBAS  FM    ON      NM000R$  000000000011300000000001220000000000105000000000011200000000001050000000000100000000000010800047000000000000041800000000000004694800000000000242202013102100000010000000000000BRBBASACNOR3237
012013091178BBASJ26     070BBAS  FM    ON      NM000R$  000000000007200000000000800000000000066000000000007200000000000660000000000060000000000007500301000000000000145700000000000010531200000000000248802013102100000010000000000000BRBBASACNOR3235
012013091178BBASJ27     070BBAS  FM    ON      NM000R$  000000000003500000000000380000000000029000000000003300000000000300000000000025000000000003300070000000000000068100000000000002285500000000000258802013102100000010000000000000BRBBASACNOR3235
012013091178BBASJ28     070BBAS        ON      NM000R$  000000000001200000000000130000000000008000000000001000000000000090000000000007000000000000800006000000000000006400000000000000067200000000000272202013102100000010000000000000BRBBASACNOR3237
012013091178BBASJ30     070BBAS        ON      NM000R$  000000000000400000000000040000000000003000000000000300000000000030000000000002000000000000400002000000000000001600000000000000005900000000000288802013102100000010000000000000BRBBASACNOR3235
012013091178BBASJ31     070BBAS        ON      NM000R$  000000000000100000000000010000000000001000000000000100000000000010000000000000000000000000000001000000000000002000000000000000002000000000000310002013102100000010000000000000BRBBASACNOR3238
012013091178BBASK22     070BBAS        ON      NM000R$  000000000035000000000003500000000000350000000000035000000000003500000000000240000000000000000001000000000000000100000000000000035000000000000212202013111800000010000000000000BRBBASACNOR3237
012013091178BBASK23     070BBAS  FM    ON      NM000R$  000000000029800000000003050000000000289000000000029700000000002900000000000000000000000000000027000000000000039400000000000011730000000000000222202013111800000010000000000000BRBBASACNOR3237
012013091178BBASK24     070BBAS  FM    ON      NM000R$  000000000022400000000002270000000000210000000000021700000000002120000000000146000000000000000061000000000000021800000000000004752000000000000232202013111800000010000000000000BRBBASACNOR3237
012013091178BBASK25     070BBAS  FM    ON      NM000R$  000000000016900000000001700000000000157000000000016500000000001570000000000016000000000000000013000000000000010800000000000001783600000000000239802013111800000010000000000000BRBBASACNOR3236
012013091178BBASK26     070BBAS  FM    ON      NM000R$  000000000010500000000001090000000000097000000000009900000000000980000000000016000000000010200030000000000000026100000000000002601300000000000249802013111800000010000000000000BRBBASACNOR3236
012013091178BBASK27     070BBAS  FM    ON      NM000R$  000000000006000000000000640000000000055000000000005800000000000550000000000016000000000000000021000000000000034800000000000002045200000000000259802013111800000010000000000000BRBBASACNOR3236
012013091178BBASK28     070BBAS        ON      NM000R$  000000000003300000000000330000000000029000000000002900000000000300000000000028000000000003000114000000000000221800000000000006587200000000000269802013111800000010000000000000BRBBASACNOR3236
012013091178BBASK56     070BBAS        ON      NM000R$  000000000004100000000000410000000000039000000000003900000000000390000000000000000000000000000030000000000000070000000000000002794200000000000265002013111800000010000000000000BRBBASACNOR3238
012013091178BBASL26     070BBAS        ON      NM000R$  000000000013700000000001370000000000135000000000013600000000001350000000000005000000000000000002000000000000000300000000000000040900000000000248802013121600000010000000000000BRBBASACNOR3235
012013091178BBASL27     070BBAS        ON      NM000R$  000000000008100000000000810000000000079000000000007900000000000790000000000005000000000000000003000000000000003600000000000000286800000000000262202013121600000010000000000000BRBBASACNOR3237
012013091178BBASL28     070BBAS        ON      NM000R$  000000000005000000000000500000000000050000000000005000000000000500000000000011000000000000000001000000000000002000000000000000100000000000000272202013121600000010000000000000BRBBASACNOR3237
012013091178BBASL29     070BBAS        ON      NM000R$  000000000003300000000000330000000000033000000000003300000000000330000000000007000000000000000001000000000000001200000000000000039600000000000278802013121600000010000000000000BRBBASACNOR3235
012013091182BBASU23     080BBASE       ON      NM000R$  000000000000200000000000020000000000002000000000000200000000000020000000000002000000000000000001000000000000000100000000000000000200000000000219802013091600000010000000000000BRBBASACNOR3236
012013091182BBASU24     080BBASE       ON      NM000R$  000000000000200000000000040000000000002000000000000200000000000020000000000000000000000001000009000000000000032100000000000000064400000000000229802013091600000010000000000000BRBBASACNOR3236
012013091182BBASU25     080BBASE       ON      NM000R$  000000000001300000000000130000000000008000000000000800000000000090000000000000000000000001300015000000000000042000000000000000343600000000000238802013091600000010000000000000BRBBASACNOR3235
012013091182BBASU26     080BBASE       ON      NM000R$  000000000004100000000000530000000000040000000000004200000000000500000000000000000000000005700015000000000000005200000000000000223400000000000248802013091600000010000000000000BRBBASACNOR3235
012013091182BBASV23     080BBASE FM    ON      NM000R$  000000000001500000000000160000000000014000000000001400000000000140000000000000000000000011000014000000000000031000000000000000458200000000000218802013102100000010000000000000BRBBASACNOR3235
012013091182BBASV24     080BBASE FM    ON      NM000R$  000000000003100000000000310000000000031000000000003100000000000310000000000000000000000004500005000000000000022000000000000000682000000000000229802013102100000010000000000000BRBBASACNOR3236
012013091182BBASV25     080BBASE FM    ON      NM000R$  000000000005200000000000660000000000052000000000006100000000000640000000000000000000000000000021000000000000056900000000000003504700000000000242202013102100000010000000000000BRBBASACNOR3237
012013091182BBASV26     080BBASE       ON      NM000R$  000000000009600000000000960000000000096000000000009600000000000960000000000000000000000000000002000000000000006000000000000000576000000000000248802013102100000010000000000000BRBBASACNOR3235
012013091182BBASW23     080BBASE FM    ON      NM000R$  000000000003200000000000330000000000032000000000003200000000000320000000000000000000000000000014000000000000038300000000000001246400000000000222202013111800000010000000000000BRBBASACNOR3237
012013091182BBASW24     080BBASE FM    ON      NM000R$  000000000004800000000000520000000000048000000000005000000000000520000000000000000000000000000002000000000000003200000000000000161600000000000232202013111800000010000000000000BRBBASACNOR3237
012013091182BBASW25     080BBASE FM    ON      NM000R$  000000000007000000000000730000000000069000000000007000000000000730000000000000000000000000000004000000000000006200000000000000435600000000000239802013111800000010000000000000BRBBASACNOR3236
012013091182BBASX25     080BBASE       ON      NM000R$  000000000008200000000000820000000000082000000000008200000000000820000000000000000000000000000001000000000000001200000000000000098400000000000238802013121600000010000000000000BRBBASACNOR3235
012013091182BBASX26     080BBASE       ON      NM000R$  000000000012200000000001240000000000122000000000012300000000001240000000000000000000000000000002000000000000002400000000000000295200000000000248802013121600000010000000000000BRBBASACNOR3235
012013091102BBDC3       010BRADESCO    ON  EJ  N1   R$  000000000343400000000034680000000003430000000000344600000000034680000000003459000000000346807848000000000002722200000000009382317300000000000000009999123100000010000000000000BRBBDCACNOR1606
012013091196BBDC3F      020BRADESCO    ON  EJ  N1   R$  000000000346000000000034800000000003364000000000344300000000034800000000003279000000000348000050000000000000001489000000000005127537000000000000009999123100000010000000000000BRBBDCACNOR1606
012013091102BBDC4       010BRADESCO    PN  EJ  N1   R$  000000000297800000000030140000000002958000000000298800000000030140000000003003000000000301417626000000000008772900000000026221236500000000000000009999123100000010000000000000BRBBDCACNPR8606
012013091196BBDC4F      020BRADESCO    PN  EJ  N1   R$  000000000298000000000030060000000002967000000000298600000000030060000000003000000000000300600259000000000000007299000000000021799769000000000000009999123100000010000000000000BRBBDCACNPR8606
012013091162BBDC4T      030BRADESCO    PN  EJ  N1030R$  000000000300200000000030250000000003002000000000300700000000030250000000000000000000000000000008000000000000007400000000000022253166000000000000009999123100000010000000000000BRBBDCACNPR8606
012013091162BBDC4T      030BRADESCO    PN  EJ  N1061R$  000000000303000000000030310000000003030000000000303000000000030310000000000000000000000000000002000000000000022000000000000066678674000000000000009999123100000010000000000000BRBBDCACNPR8606
012013091162BBDC4T      030BRADESCO    PN  EJ  N1090R$  000000000303200000000030730000000003032000000000307100000000030730000000000000000000000000000008000000000000251249000000000771832774000000000000009999123100000010000000000000BRBBDCACNPR8606
012013091178BBDCC99     070BBDC        ON      N1000R$  000000000011100000000001110000000000111000000000011100000000001110000000000000000000000000000002000000000000300000000000000033300000000000000390002014031700000010000000000000BRBBDCACNOR1606
012013091178BBDCI26     070BBDC    /EJ PN      N1000R$  000000000037700000000003770000000000373000000000037400000000003730000000000000000000000000000015000000000000010000000000000003745200000000000259602013091600000010000000000000BRBBDCACNPR8604
012013091178BBDCI28     070BBDC    /EJ PN      N1000R$  000000000022100000000002210000000000212000000000021700000000002140000000000202000000000000000026000000000000008200000000000001785600000000000277602013091600000010000000000000BRBBDCACNPR8602
012013091178BBDCI29     070BBDC    /EJ PN      N1000R$  000000000011100000000001260000000000100000000000011800000000001220000000000110000000000000000118000000000000054600000000000006468700000000000287602013091600000010000000000000BRBBDCACNPR8602
012013091178BBDCI30     070BBDC    /EJ PN      N1000R$  000000000004600000000000460000000000023000000000003600000000000450000000000034000000000005600048000000000000073100000000000002647100000000000297602013091600000010000000000000BRBBDCACNPR8602
012013091178BBDCI33     070BBDC    /EJ PN      N1000R$  000000000003900000000000440000000000028000000000003500000000000390000000000000000000000000000010000000000000020000000000000000709100000000000297002013091600000010000000000000BRBBDCACNPR8598
012013091178BBDCI58     070BBDC    /EJ PN      N1000R$  000000000014900000000001490000000000149000000000014900000000001490000000000000000000000000000001000000000000004400000000000000655600000000000284802013091600000010000000000000BRBBDCACNPR8605
012013091178BBDCI75     070BBDCE   /EJ PN      N1000R$  000000000016300000000001630000000000162000000000016200000000001620000000000000000000000000000002000000000000005800000000000000941100000000000282102013091600000010000000000000BRBBDCACNPR8604
012013091178BBDCI81     070BBDC    /EJ PN      N1000R$  000000000000700000000000090000000000007000000000000700000000000090000000000001000000000001600022000000000000015100000000000000105900000000000307602013091600000010000000000000BRBBDCACNPR8602
012013091178BBDCJ1      070BBDC    /EJ PN      N1000R$  000000000004000000000000400000000000040000000000004000000000000400000000000000000000000000000001000000000000002200000000000000088000000000000314402013102100000010000000000000BRBBDCACNPR8603
012013091178BBDCJ26     070BBDC    /EJ PN      N1000R$  000000000042900000000004290000000000429000000000042900000000004290000000000000000000000044900001000000000000000100000000000000042900000000000259602013102100000010000000000000BRBBDCACNPR8604
012013091178BBDCJ27     070BBDC    /EJ PN      N1000R$  000000000035000000000003500000000000337000000000034000000000003480000000000000000000000000000004000000000000013900000000000004738400000000000267602013102100000010000000000000BRBBDCACNPR8602
012013091178BBDCJ29     070BBDC    /EJ PN      N1000R$  000000000017500000000001940000000000158000000000017200000000001940000000000102000000000020000209000000000000157500000000000027195600000000000287602013102100000010000000000000BRBBDCACNPR8602
012013091178BBDCJ30     070BBDC    /EJ PN      N1000R$  000000000010400000000001250000000000103000000000011200000000001250000000000120000000000000000359000000000000254200000000000028490400000000000297602013102100000010000000000000BRBBDCACNPR8602
012013091178BBDCJ31     070BBDC    /EJ PN      N1000R$  000000000006600000000000730000000000057000000000007000000000000730000000000042000000000007900102000000000000486900000000000034568300000000000307602013102100000010000000000000BRBBDCACNPR8602
012013091178BBDCJ32     070BBDC    /EJ PN      N1000R$  000000000003400000000000380000000000027000000000003100000000000380000000000015000000000004900102000000000000154100000000000004894700000000000317602013102100000010000000000000BRBBDCACNPR8602
012013091178BBDCJ33     070BBDC    /EJ PN      N1000R$  000000000001700000000000190000000000014000000000001700000000000180000000000000000000000000000020000000000000442400000000000007954600000000000327602013102100000010000000000000BRBBDCACNPR8602
012013091178BBDCJ34     070BBDC    /EJ PN      N1000R$  000000000000800000000000080000000000008000000000000800000000000080000000000000000000000000000001000000000000001300000000000000010400000000000337202013102100000010000000000000BRBBDCACNPR8600
012013091178BBDCJ58     070BBDC    /EJ PN      N1000R$  000000000023500000000002400000000000235000000000023900000000002400000000000092000000000000000003000000000000004900000000000001172700000000000279802013102100000010000000000000BRBBDCACNPR8605
012013091178BBDCK28     070BBDC    /EJ PN      N1000R$  000000000028300000000002990000000000273000000000028700000000002900000000000000000000000000000051000000000000089200000000000025606500000000000277602013111800000010000000000000BRBBDCACNPR8602
012013091178BBDCK30     070BBDC    /EJ PN      N1000R$  000000000013800000000001510000000000138000000000014200000000001510000000000000000000000000000008000000000000018000000000000002569800000000000299802013111800000010000000000000BRBBDCACNPR8605
012013091178BBDCK31     070BBDC    /EJ PN      N1000R$  000000000009400000000001000000000000088000000000009400000000001000000000000000000000000000000088000000000000135700000000000012774400000000000309802013111800000010000000000000BRBBDCACNPR8605
012013091178BBDCK32     070BBDC    /EJ PN      N1000R$  000000000006600000000000660000000000064000000000006400000000000640000000000013000000000000000012000000000000013400000000000000869800000000000317402013111800000010000000000000BRBBDCACNPR8601
012013091178BBDCK33     070BBDC    /EJ PN      N1000R$  000000000004000000000000400000000000038000000000003900000000000380000000000000000000000000000011000000000000031300000000000001251400000000000327602013111800000010000000000000BRBBDCACNPR8602
012013091178BBDCK9      070BBDC    /EJ PN      N1000R$  000000000019600000000002120000000000194000000000020100000000002120000000000000000000000000000035000000000000069600000000000014040600000000000289802013111800000010000000000000BRBBDCACNPR8605
012013091178BBDCL27     070BBDC    /EJ PN      N1000R$  000000000039800000000003990000000000384000000000039200000000003850000000000000000000000000000018000000000000020000000000000007843000000000000269602013121600000010000000000000BRBBDCACNPR8604
012013091178BBDCL34     070BBDC    /EJ PN      N1000R$  000000000004500000000000450000000000045000000000004500000000000450000000000000000000000000000002000000000000002500000000000000112500000000000337202013121600000010000000000000BRBBDCACNPR8600
012013091178BBDCL35     070BBDC    /EJ PN      N1000R$  000000000002900000000000290000000000029000000000002900000000000290000000000000000000000000000001000000000000003000000000000000087000000000000347202013121600000010000000000000BRBBDCACNPR8600
012013091182BBDCO91     080BBDCE       ON      N1000R$  000000000006700000000000670000000000067000000000006700000000000670000000000000000000000000000002000000000000300000000000000020100000000000000310002014031700000010000000000000BRBBDCACNOR1606
012013091182BBDCO94     080BBDCE       ON      N1000R$  000000000017700000000001770000000000177000000000017700000000001770000000000000000000000000000002000000000000300000000000000053100000000000000340002014031700000010000000000000BRBBDCACNOR1606
012013091182BBDCU28     080BBDCE   /EJ PN      N1000R$  000000000000400000000000050000000000004000000000000400000000000040000000000003000000000000400013000000000000051000000000000000205000000000000277602013091600000010000000000000BRBBDCACNPR8602
012013091182BBDCU30     080BBDCE   /EJ PN      N1000R$  000000000002600000000000260000000000026000000000002600000000000260000000000015000000000000000003000000000000005000000000000000130000000000000297602013091600000010000000000000BRBBDCACNPR8602
012013091182BBDCU32     080BBDCE   /EJ PN      N1000R$  000000000020700000000002080000000000190000000000019500000000001900000000000000000000000000000076000000000000030000000000000005859400000000000317602013091600000010000000000000BRBBDCACNPR8602
012013091182BBDCV25     080BBDCE   /EJ PN      N1000R$  000000000000400000000000040000000000004000000000000400000000000040000000000000000000000000600002000000000000020000000000000000080000000000000249402013102100000010000000000000BRBBDCACNPR8603
012013091182BBDCV27     080BBDCE   /EJ PN      N1000R$  000000000001100000000000110000000000011000000000001100000000000110000000000000000000000000000005000000000000022000000000000000242000000000000267602013102100000010000000000000BRBBDCACNPR8602
012013091182BBDCV29     080BBDCE   /EJ PN      N1000R$  000000000004200000000000440000000000039000000000004200000000000390000000000000000000000000000006000000000000009700000000000000408300000000000287602013102100000010000000000000BRBBDCACNPR8602
012013091182BBDCV30     080BBDCE   /EJ PN      N1000R$  000000000008100000000000880000000000069000000000007800000000000690000000000000000000000012300036000000000000048300000000000003796000000000000297602013102100000010000000000000BRBBDCACNPR8602
012013091182BBDCV31     080BBDCE   /EJ PN      N1000R$  000000000013300000000001400000000000124000000000012900000000001260000000000000000000000000000022000000000000018300000000000002372600000000000307602013102100000010000000000000BRBBDCACNPR8602
012013091182BBDCV32     080BBDCE   /EJ PN      N1000R$  000000000020700000000002080000000000190000000000019500000000001900000000000000000000000000000081000000000000030000000000000005857500000000000317602013102100000010000000000000BRBBDCACNPR8602
012013091182BBDCV58     080BBDCE   /EJ PN      N1000R$  000000000002500000000000250000000000023000000000002300000000000230000000000000000000000000000010000000000000015600000000000000372300000000000279802013102100000010000000000000BRBBDCACNPR8605
012013091182BBDCW27     080BBDCE   /EJ PN      N1000R$  000000000002700000000000270000000000026000000000002600000000000270000000000000000000000000000010000000000000030000000000000000803000000000000269402013111800000010000000000000BRBBDCACNPR8603
012013091182BBDCW28     080BBDCE   /EJ PN      N1000R$  000000000004100000000000410000000000041000000000004100000000000410000000000000000000000000000002000000000000003400000000000000139400000000000277602013111800000010000000000000BRBBDCACNPR8602
012013091182BBDCW30     080BBDCE   /EJ PN      N1000R$  000000000011100000000001120000000000103000000000010900000000001030000000000000000000000000000021000000000000046200000000000005036800000000000299802013111800000010000000000000BRBBDCACNPR8605
012013091182BBDCW9      080BBDCE   /EJ PN      N1000R$  000000000007200000000000720000000000068000000000007100000000000680000000000000000000000000000010000000000000017800000000000001271600000000000289802013111800000010000000000000BRBBDCACNPR8605
012013091182BBDCX28     080BBDCE   /EJ PN      N1000R$  000000000006000000000000600000000000060000000000006000000000000600000000000000000000000000000001000000000000001200000000000000072000000000000279602013121600000010000000000000BRBBDCACNPR8604
012013091182BBDCX29     080BBDCE   /EJ PN      N1000R$  000000000008300000000000830000000000083000000000008300000000000830000000000000000000000000000001000000000000001200000000000000099600000000000287602013121600000010000000000000BRBBDCACNPR8602
012013091182BBDCX57     080BBDCE   /EJ PN      N1000R$  000000000005000000000000500000000000050000000000005000000000000500000000000000000000000000000001000000000000001200000000000000060000000000000275202013121600000010000000000000BRBBDCACNPR8600
012013091182BBDCX66     080BBDCE   /EJ PN      N1000R$  000000000002800000000000280000000000028000000000002800000000000280000000000000000000000000000001000000000000001200000000000000033600000000000259602013121600000010000000000000BRBBDCACNPR8604
012013091112BBFI11B     010FII BB PROGRCI  ER  MB   R$  000000042500000000004250000000000425000000000042500000000004250000000000430000000000043350000002000000000000000004000000000001700000000000000000009999123100000010000000000000BRBBFICTF006198
012013091112BBPO11      010FII BB PRGIICI  ER       R$  000000001104900000000110690000000011007000000001104000000000110450000000011007000000001104500097000000000000007087000000000078241105000000000000009999123100000010000000000000BRBBPOCTF003110
012013091112BBRC11      010FII BB CORP CI  ER       R$  000000000900000000000090160000000008970000000000899400000000090000000000009000000000000913000015000000000000000839000000000007546731000000000000009999123100000010000000000000BRBBRCCTF004124
012013091102BBRK3       010BR BROKERS  ON      NM   R$  000000000058700000000005880000000000577000000000058400000000005880000000000582000000000058801881000000000001006500000000000588063600000000000000009999123100000010000000000000BRBBRKACNOR4108
012013091196BBRK3F      020BR BROKERS  ON      NM   R$  000000000056800000000006470000000000568000000000058400000000006470000000000568000000000000000016000000000000000392000000000000229071000000000000009999123100000010000000000000BRBBRKACNOR4108
012013091102BBSE3       010BBSEGURIDADEON      NM   R$  000000000205000000000021120000000002042000000000207400000000020860000000002086000000000208711676000000000007203600000000014940303400000000000000009999123100000010000000000000BRBBSEACNOR5101
012013091196BBSE3F      020BBSEGURIDADEON      NM   R$  000000000205100000000021100000000002050000000000207400000000020810000000002081000000000209001266000000000000042772000000000088742605000000000000009999123100000010000000000000BRBBSEACNOR5101
012013091162BBSE3T      030BBSEGURIDADEON      NM030R$  000000000207400000000020750000000002074000000000207400000000020750000000000000000000000000000002000000000000001000000000000002074648000000000000009999123100000010000000000000BRBBSEACNOR5101
012013091162BBSE3T      030BBSEGURIDADEON      NM061R$  000000000208900000000020900000000002089000000000208900000000020900000000000000000000000000000002000000000000001000000000000002089061000000000000009999123100000010000000000000BRBBSEACNOR5101
012013091178BBSEA51     070BBSE        ON      NM000R$  000000000016500000000001650000000000165000000000016500000000001650000000000000000000000000000002000000000000003100000000000000511500000000000215002014012000000010000000000000BRBBSEACNOR5101
012013091178BBSEA55     070BBSE        ON      NM000R$  000000000002600000000000270000000000020000000000002300000000000200000000000000000000000000000003000000000000015500000000000000357100000000000255002014012000000010000000000000BRBBSEACNOR5101
012013091178BBSEJ22     070BBSE        ON      NM000R$  000000000001400000000000140000000000013000000000001300000000000130000000000000000000000000000002000000000000100000000000000001315000000000000220002013102100000010000000000000BRBBSEACNOR5101
012013091182BBSEM51     080BBSEE       ON      NM000R$  000000000023000000000002300000000000190000000000021400000000001900000000000000000000000000000003000000000000012500000000000002675000000000000215002014012000000010000000000000BRBBSEACNOR5101
012013091102BBTG11      010BTG PACTUAL UNT          R$  000000000298100000000029810000000002871000000000290200000000029000000000002895000000000290000797000000000000210100000000000609772300000000000000009999123100000010000000000000BRBBTGUNT007105
012013091196BBTG11F     020BTG PACTUAL UNT          R$  000000000269500000000029300000000002695000000000289600000000029300000000002885000000000293000010000000000000000178000000000000515493000000000000009999123100000010000000000000BRBBTGUNT007105
012013091112BBVJ11      010FII C JARDIMCI  ER       R$  000000000777900000000079450000000007722000000000786100000000078010000000007751000000000780000021000000000000000928000000000007295363000000000000009999123100000010000000000000BRBBVJCTF001133
012013091112BCFF11B     010FII BC FFII CI  ER  MB   R$  000000000866900000000087400000000008655000000000868600000000087000000000008675000000000869500037000000000000001572000000000013655568000000000000009999123100000010000000000000BRBCFFCTF000142
012013091102BEEF3       010MINERVA     ON      NM   R$  000000000110400000000011200000000001086000000000109900000000011000000000001100000000000110102637000000000000890800000000000979212100000000000000009999123100000010000000000000BRBEEFACNOR6104
012013091162BEEF3T      030MINERVA     ON      NM030R$  000000000111200000000011190000000001112000000000111700000000011190000000000000000000000000000008000000000000002000000000000002234192000000000000009999123100000010000000000000BRBEEFACNOR6104
012013091102BEES3       010BANESTES    ON  EJ       R$  000000000004800000000000490000000000048000000000004800000000000480000000000048000000000004900019000000000000131000000000000006289700000000000000009999123100000010000000000000BRBEESACNOR9244
012013091102BEES4       010BANESTES    PN  EJ       R$  000000000004400000000000450000000000044000000000004400000000000450000000000043000000000004500002000000000000099000000000000004406000000000000000009999123100000010000000000000BRBEESACNPR6169
012013091162BEES4T      030BANESTES    PN  EJ    180R$  000000000004600000000000470000000000046000000000004600000000000470000000000000000000000000000002000000000000049000000000000002255823000000000000009999123100000010000000000000BRBEESACNPR6169
012013091102BEMA3       010BEMATECH    ON      NM   R$  000000000075000000000007530000000000745000000000075000000000007530000000000745000000000075400062000000000000027700000000000020785600000000000000009999123100000010000000000000BRBEMAACNOR0114
012013091102BHGR3       010BHG         ON      NM   R$  000000000144800000000014550000000001442000000000144600000000014550000000001445000000000145500364000000000000086200000000000124713800000000000000009999123100000010000000000000BRBHGRACNOR9101
012013091196BHGR3F      020BHG         ON      NM   R$  000000000145000000000014500000000001450000000000145000000000014500000000001446000000000145000001000000000000000015000000000000021750000000000000009999123100000010000000000000BRBHGRACNOR9101
012013091102BICB4       010BICBANCO    PN      N1   R$  000000000043700000000004530000000000437000000000044800000000004500000000000448000000000045000088000000000000172600000000000077444700000000000000009999123100000010000000000000BRBICBACNPR7131
012013091196BICB4F      020BICBANCO    PN      N1   R$  000000000044800000000004530000000000448000000000044800000000004520000000000421000000000045200007000000000000000108000000000000048416000000000000009999123100000010000000000000BRBICBACNPR7131
012013091102BIOM3       010BIOMM       ON           R$  000000000093900000000009390000000000939000000000093900000000009390000000000910000000000094000001000000000000001000000000000000939000000000000000009999123100000010000000000000BRBIOMACNOR2101
012013091102BISA3       010BROOKFIELD  ON      NM   R$  000000000019000000000001930000000000186000000000018900000000001870000000000187000000000018801860000000000006557900000000001242734200000000000000009999123100000010000000000000BRBISAACNOR8109
012013091196BISA3F      020BROOKFIELD  ON      NM   R$  000000000019100000000001940000000000188000000000019100000000001880000000000188000000000019500017000000000000000532000000000000101272000000000000009999123100000010000000000000BRBISAACNOR8109
012013091162BISA3T      030BROOKFIELD  ON      NM017R$  000000000019000000000001910000000000190000000000019000000000001910000000000000000000000000000002000000000000206000000000000039335700000000000000009999123100000010000000000000BRBISAACNOR8109
012013091162BISA3T      030BROOKFIELD  ON      NM061R$  000000000019500000000001960000000000195000000000019500000000001960000000000000000000000000000002000000000000005000000000000000975360000000000000009999123100000010000000000000BRBISAACNOR8109
012013091162BISA3T      030BROOKFIELD  ON      NM090R$  000000000019400000000001950000000000194000000000019400000000001950000000000000000000000000000002000000000000200000000000000038881600000000000000009999123100000010000000000000BRBISAACNOR8109
012013091112BJRC11      010FII JS RECIMCI  ER       R$  000000009000000000000920000000000090000000000009056300000000920000000000091000000000009500000006000000000000000373000000000033780000000000000000009999123100000010000000000000BRBJRCCTF007110
012013091102BMEB4       010MERC BRASIL PN           R$  000000000110000000000011000000000001100000000000110000000000011000000000001100000000000110900001000000000000000400000000000000440000000000000000009999123100000010000000000000BRBMEBACNPR5191
012013091102BMIN4       010MERC INVEST PN           R$  000000000002400000000000240000000000024000000000002400000000000240000000000023000000000002500005000000000000061000000000000001464000000000000000009999123100000010000000000000BRBMINACNPR1160
012013091112BMLC11B     010FII BMBRC LCCI  ER  MB   R$  000000001105000000000115000000000011050000000001125000000000115000000000011250000000001150000016000000000000002540000000000028577300000000000000009999123100000010000000000000BRBMLCCTF004119
012013091102BMTO4       010BRASMOTOR   PN           R$  000000000008700000000000870000000000087000000000008700000000000870000000000085000000000008700002000000000000003000000000000000261000000000000000009999123100000010000000000000BRBMTOACNPR6065
012013091196BMTO4F      020BRASMOTOR   PN           R$  000000000008500000000000850000000000085000000000008500000000000850000000000084000000000008900001000000000000000287000000000000024395000000000000009999123100000010000000000000BRBMTOACNPR6065
012013091112BNFS11      010FII BANRISULCI  ER       R$  000000000999500000000099950000000009995000000000999500000000099950000000009710000000000999500002000000000000000013000000000000129935000000000000009999123100000010000000000000BRBNFSCTF000112
012013091114BOVA11      010ISHARES BOVACI           R$  000000000529700000000053450000000005210000000000525400000000052390000000005220000000000523903494000000000001506090000000007914197360000000000000009999123100000010000000000000BRBOVACTF003101
012013091196BOVA11F     020ISHARES BOVACI           R$  000000000530000000000053500000000005228000000000529100000000052280000000005215000000000530000009000000000000000027000000000000142882000000000000009999123100000010000000000000BRBOVACTF003101
012013091112BPFF11      010FII ABSOLUTOCI  ER       R$  000000000840000000000084500000000008380000000000841800000000084000000000008360000000000840000012000000000000000480000000000004041000000000000000009999123100000010000000000000BRBPFFCTF002105
012013091102BPHA3       010BR PHARMA   ON      NM   R$  000000000083500000000008470000000000810000000000082700000000008100000000000810000000000081302132000000000000826600000000000683936600000000000000009999123100000010000000000000BRBPHAACNOR6102
012013091196BPHA3F      020BR PHARMA   ON      NM   R$  000000000082900000000008320000000000813000000000082000000000008170000000000812000000000091500023000000000000000348000000000000285415000000000000009999123100000010000000000000BRBPHAACNOR6102
012013091162BPHA3T      030BR PHARMA   ON      NM030R$  000000000081900000000008200000000000819000000000081900000000008200000000000000000000000000000002000000000000000500000000000000409971000000000000009999123100000010000000000000BRBPHAACNOR6102
012013091102BPNM4       010PANAMERICANOPN      N1   R$  000000000052200000000005370000000000510000000000051700000000005240000000000517000000000052400300000000000001196000000000000618843800000000000000009999123100000010000000000000BRBPNMACNPR6111
012013091196BPNM4F      020PANAMERICANOPN      N1   R$  000000000052500000000005290000000000502000000000051900000000005020000000000502000000000052900008000000000000000223000000000000115900000000000000009999123100000010000000000000BRBPNMACNPR6111
012013091162BPNM4T      030PANAMERICANOPN      N1090R$  000000000054700000000005480000000000547000000000054700000000005480000000000000000000000000000002000000000000060000000000000032864920000000000000009999123100000010000000000000BRBPNMACNPR6111
012013091102BRAP3       010BRADESPAR   ON      N1   R$  000000000209900000000021400000000002090000000000211000000000021060000000002100000000000210700039000000000000020100000000000042421700000000000000009999123100000010000000000000BRBRAPACNOR5124
012013091196BRAP3F      020BRADESPAR   ON      N1   R$  000000000209900000000020990000000002099000000000209900000000020990000000001985000000000221300001000000000000000084000000000000176316000000000000009999123100000010000000000000BRBRAPACNOR5124
012013091162BRAP3T      030BRADESPAR   ON      N1030R$  000000000214200000000021430000000002142000000000214200000000021430000000000000000000000000000002000000000000007600000000000016285914000000000000009999123100000010000000000000BRBRAPACNOR5124
012013091102BRAP4       010BRADESPAR   PN      N1   R$  000000000260900000000026460000000002545000000000258900000000025770000000002571000000000257704456000000000001378400000000003568833900000000000000009999123100000010000000000000BRBRAPACNPR2124
012013091196BRAP4F      020BRADESPAR   PN      N1   R$  000000000263900000000026440000000002489000000000259500000000025420000000002542000000000260000052000000000000001633000000000004239106000000000000009999123100000010000000000000BRBRAPACNPR2124
012013091162BRAP4T      030BRADESPAR   PN      N1061R$  000000000266100000000026620000000002603000000000263200000000026040000000000000000000000000000004000000000000004000000000000010529327000000000000009999123100000010000000000000BRBRAPACNPR2124
012013091182BRAPU26     080BRAPE       PN      N1000R$  000000000003800000000000380000000000038000000000003800000000000380000000000000000000000000000001000000000000000500000000000000019000000000000260002013091600000010000000000000BRBRAPACNPR2124
012013091182BRAPV25     080BRAPE       PN      N1000R$  000000000005200000000000640000000000052000000000005700000000000640000000000000000000000000000005000000000000002900000000000000167600000000000250002013102100000010000000000000BRBRAPACNPR2124
012013091114BRAX11      010ISHARES BRAXCI           R$  000000000423500000000042350000000004235000000000423500000000042350000000004200000000000000000001000000000000000030000000000000127050000000000000009999123100000010000000000000BRBRAXCTF002100
012013091112BRCR11      010FII BC FUND CI  ER       R$  000000001259800000000126500000000012502000000001255400000000125040000000012504000000001257000840000000000000025504000000000320194214000000000000009999123100000010000000000000BRBRCRCTF000133
012013091102BRFS3       010BRF SA      ON      NM   R$  000000000580000000000059100000000005790000000000587900000000058960000000005880000000000589606254000000000001831300000000010766337900000000000000009999123100000010000000000000BRBRFSACNOR8110
012013091196BRFS3F      020BRF SA      ON      NM   R$  000000000580000000000059170000000005800000000000587200000000058770000000005846000000000589000101000000000000003266000000000019180656000000000000009999123100000010000000000000BRBRFSACNOR8110
012013091196BRGE3F      020ALFA CONSORCON           R$  000000000025000000000002500000000000250000000000025000000000002500000000000250000000000000000001000000000000000006000000000000001500000000000000009999123100000010000000000000BRBRGEACNOR6197
012013091196BRGE6F      020ALFA CONSORCPNB          R$  000000000052100000000005210000000000521000000000052100000000005210000000000521000000000000000001000000000000000012000000000000006252000000000000009999123100000010000000000000BRBRGEACNPB7198
012013091102BRIN3       010BR INSURANCEON      NM   R$  000000000191000000000019100000000001877000000000189000000000018970000000001890000000000189700849000000000000157400000000000297556500000000000000009999123100000010000000000000BRBRINACNOR3106
012013091196BRIN3F      020BR INSURANCEON      NM   R$  000000000191000000000019100000000001880000000000188900000000018830000000001880000000000190100012000000000000000258000000000000487434000000000000009999123100000010000000000000BRBRINACNOR3106
012013091102BRKM3       010BRASKEM     ON      N1   R$  000000000126500000000012650000000001250000000000126300000000012500000000001191000000000125000007000000000000019000000000000024008600000000000000009999123100000010000000000000BRBRKMACNOR1110
012013091162BRKM3T      030BRASKEM     ON      N1180R$  000000000132600000000013270000000001326000000000132600000000013270000000000000000000000000000002000000000000017000000000000022545842000000000000009999123100000010000000000000BRBRKMACNOR1110
012013091102BRKM5       010BRASKEM     PNA     N1   R$  000000000185000000000018700000000001833000000000185200000000018350000000001833000000000183507018000000000001850100000000003425869000000000000000009999123100000010000000000000BRBRKMACNPA4110
012013091196BRKM5F      020BRASKEM     PNA     N1   R$  000000000186000000000018700000000001835000000000185700000000018630000000001821000000000186300020000000000000000459000000000000852489000000000000009999123100000010000000000000BRBRKMACNPA4110
012013091162BRKM5T      030BRASKEM     PNA     N1090R$  000000000189700000000018980000000001897000000000189700000000018980000000000000000000000000000002000000000000005000000000000009485547000000000000009999123100000010000000000000BRBRKMACNPA4110
012013091178BRKMK50     070BRKM        PNA     N1000R$  000000000003300000000000330000000000032000000000003200000000000320000000000000000000000000000002000000000000100000000000000003243000000000000205002013111800000010000000000000BRBRKMACNPA4110
012013091102BRML3       010BR MALLS PARON      NM   R$  000000000197900000000019790000000001933000000000194900000000019500000000001945000000000195007308000000000003059000000000005964077400000000000000009999123100000010000000000000BRBRMLACNOR9105
012013091196BRML3F      020BR MALLS PARON      NM   R$  000000000199500000000019950000000001936000000000195200000000019700000000001944000000000197000047000000000000001311000000000002561053000000000000009999123100000010000000000000BRBRMLACNOR9105
012013091162BRML3T      030BR MALLS PARON      NM030R$  000000000196500000000019660000000001965000000000196500000000019660000000000000000000000000000002000000000000000400000000000000786019000000000000009999123100000010000000000000BRBRMLACNOR9105
012013091162BRML3T      030BR MALLS PARON      NM061R$  000000000197400000000019750000000001974000000000197400000000019750000000000000000000000000000002000000000000001000000000000001974258000000000000009999123100000010000000000000BRBRMLACNOR9105
012013091178BRMLI19     070BRML        ON      NM000R$  000000000007400000000000740000000000074000000000007400000000000740000000000000000000000000000001000000000000000200000000000000014800000000000190002013091600000010000000000000BRBRMLACNOR9105
012013091178BRMLI49     070BRML        ON      NM000R$  000000000003900000000000390000000000039000000000003900000000000390000000000000000000000000000001000000000000000200000000000000007800000000000195002013091600000010000000000000BRBRMLACNOR9105
012013091102BRPR3       010BR PROPERT  ON      NM   R$  000000000188700000000018980000000001842000000000187300000000018800000000001870000000000188006514000000000003221000000000006035999100000000000000009999123100000010000000000000BRBRPRACNOR9112
012013091196BRPR3F      020BR PROPERT  ON      NM   R$  000000000185200000000019300000000001843000000000187400000000018600000000001860000000000193000036000000000000000982000000000001840794000000000000009999123100000010000000000000BRBRPRACNOR9112
012013091196BRSR5F      020BANRISUL    PNA EJ  N1   R$  000000000154900000000015490000000001549000000000154900000000015490000000001447000000000154900001000000000000000001000000000000001549000000000000009999123100000010000000000000BRBRSRACNPA6135
012013091102BRSR6       010BANRISUL    PNB EJ  N1   R$  000000000151100000000015270000000001500000000000151700000000015260000000001516000000000152602053000000000000482000000000000731404400000000000000009999123100000010000000000000BRBRSRACNPB4134
012013091196BRSR6F      020BANRISUL    PNB EJ  N1   R$  000000000151000000000015440000000001491000000000150800000000015160000000001490000000000151600015000000000000000355000000000000535601000000000000009999123100000010000000000000BRBRSRACNPB4134
012013091162BRSR6T      030BANRISUL    PNB EJ  N1030R$  000000000152100000000015220000000001521000000000152100000000015220000000000000000000000000000002000000000000000300000000000000456518000000000000009999123100000010000000000000BRBRSRACNPB4134
012013091102BSEV3       010BIOSEV      ON      NM   R$  000000000092600000000009500000000000926000000000093600000000009400000000000940000000000096000009000000000000006600000000000006180600000000000000009999123100000010000000000000BRBSEVACNOR3100
012013091102BTOW3       010B2W DIGITAL ON      NM   R$  000000000157400000000016150000000001546000000000157600000000015870000000001586000000000158701318000000000000521600000000000822174700000000000000009999123100000010000000000000BRBTOWACNOR8105
012013091196BTOW3F      020B2W DIGITAL ON      NM   R$  000000000160000000000016200000000001560000000000157700000000016050000000001584000000000160500019000000000000000535000000000000844023000000000000009999123100000010000000000000BRBTOWACNOR8105
012013091162BTOW3T      030B2W DIGITAL ON      NM030R$  000000000159100000000015920000000001591000000000159100000000015920000000000000000000000000000002000000000000004000000000000006364872000000000000009999123100000010000000000000BRBTOWACNOR8105
012013091162BTOW3T      030B2W DIGITAL ON      NM120R$  000000000163500000000016360000000001635000000000163500000000016360000000000000000000000000000002000000000000002000000000000003271442000000000000009999123100000010000000000000BRBTOWACNOR8105
012013091102BTTL3       010BATTISTELLA ON           R$  000000000009300000000000930000000000093000000000009300000000000930000000000093000000000009400001000000000000000300000000000000027900000000000000009999123100000010000000000000BRBTTLACNOR0105
012013091102BTTL4       010BATTISTELLA PN           R$  000000000009900000000001010000000000098000000000009800000000000990000000000098000000000010000012000000000000037600000000000003705400000000000000009999123100000010000000000000BRBTTLACNPR7105
012013091102BVMF3       010BMFBOVESPA  ON      NM   R$  000000000126200000000012650000000001244000000000125600000000012630000000001262000000000126317168000000000007909300000000009940802000000000000000009999123100000010000000000000BRBVMFACNOR3126
012013091196BVMF3F      020BMFBOVESPA  ON      NM   R$  000000000126000000000012650000000001248000000000125500000000012600000000001248000000000126000085000000000000002794000000000003508613000000000000009999123100000010000000000000BRBVMFACNOR3126
012013091162BVMF3T      030BMFBOVESPA  ON      NM030R$  000000000125600000000012620000000001256000000000126000000000012620000000000000000000000000000004000000000000012000000000000015123866000000000000009999123100000010000000000000BRBVMFACNOR3126
012013091178BVMFI11     070BVMF        ON      NM000R$  000000000017800000000001780000000000163000000000017200000000001720000000000100000000000018100005000000000000002200000000000000380500000000000108502013091600000010000000000000BRBVMFACNOR3125
012013091178BVMFI12     070BVMF        ON      NM000R$  000000000007500000000000780000000000069000000000007400000000000760000000000068000000000008000067000000000000062000000000000004624900000000000118502013091600000010000000000000BRBVMFACNOR3125
012013091178BVMFI13     070BVMF        ON      NM000R$  000000000001000000000000100000000000003000000000000500000000000060000000000004000000000000600083000000000000432700000000000002430800000000000128502013091600000010000000000000BRBVMFACNOR3125
012013091178BVMFI41     070BVMF        ON      NM000R$  000000000011200000000001270000000000112000000000012000000000001270000000000000000000000000000023000000000000005600000000000000675100000000000113502013091600000010000000000000BRBVMFACNOR3125
012013091178BVMFI42     070BVMF        ON      NM000R$  000000000002800000000000340000000000028000000000003100000000000300000000000005000000000004500009000000000000044300000000000001390900000000000123502013091600000010000000000000BRBVMFACNOR3125
012013091178BVMFI43     070BVMF        ON      NM000R$  000000000000200000000000020000000000002000000000000200000000000020000000000001000000000000300002000000000000013600000000000000027200000000000133502013091600000010000000000000BRBVMFACNOR3125
012013091178BVMFJ11     070BVMF        ON      NM000R$  000000000019400000000001940000000000188000000000019300000000001880000000000171000000000020500002000000000000001100000000000000212800000000000108502013102100000010000000000000BRBVMFACNOR3125
012013091178BVMFJ12     070BVMF  FM    ON      NM000R$  000000000010600000000001060000000000095000000000010000000000001020000000000100000000000010500060000000000000098200000000000009842700000000000118502013102100000010000000000000BRBVMFACNOR3125
012013091178BVMFJ13     070BVMF  FM    ON      NM000R$  000000000004000000000000430000000000034000000000003900000000000430000000000036000000000004300121000000000000208000000000000008267300000000000128502013102100000010000000000000BRBVMFACNOR3125
012013091178BVMFJ14     070BVMF  FM    ON      NM000R$  000000000000900000000000100000000000006000000000000800000000000100000000000008000000000001000038000000000000087200000000000000784500000000000138502013102100000010000000000000BRBVMFACNOR3125
012013091178BVMFJ42     070BVMF  FM    ON      NM000R$  000000000006300000000000690000000000061000000000006500000000000660000000000000000000000007000024000000000000028900000000000001896900000000000123502013102100000010000000000000BRBVMFACNOR3125
012013091178BVMFJ43     070BVMF  FM    ON      NM000R$  000000000001800000000000210000000000017000000000002000000000000210000000000000000000000000000020000000000000053000000000000001070500000000000133502013102100000010000000000000BRBVMFACNOR3125
012013091178BVMFK13     070BVMF  FM    ON      NM000R$  000000000005200000000000570000000000051000000000005500000000000570000000000000000000000000000030000000000000034600000000000001917600000000000128502013111800000010000000000000BRBVMFACNOR3125
012013091178BVMFK14     070BVMF  FM    ON      NM000R$  000000000001900000000000190000000000015000000000001600000000000180000000000005000000000000000088000000000000169600000000000002870500000000000138502013111800000010000000000000BRBVMFACNOR3125
012013091178BVMFK42     070BVMF  FM    ON      NM000R$  000000000007800000000000780000000000071000000000007500000000000780000000000000000000000000000006000000000000015500000000000001165100000000000125002013111800000010000000000000BRBVMFACNOR3126
012013091178BVMFK43     070BVMF  FM    ON      NM000R$  000000000002600000000000280000000000026000000000002600000000000280000000000000000000000000000002000000000000001900000000000000049600000000000135002013111800000010000000000000BRBVMFACNOR3126
012013091178BVMFK44     070BVMF        ON      NM000R$  000000000000900000000000090000000000009000000000000900000000000090000000000000000000000000000001000000000000000100000000000000000900000000000145002013111800000010000000000000BRBVMFACNOR3126
012013091178BVMFL13     070BVMF        ON      NM000R$  000000000006900000000000690000000000069000000000006900000000000690000000000000000000000000000001000000000000000100000000000000006900000000000128502013121600000010000000000000BRBVMFACNOR3125
012013091178BVMFL14     070BVMF        ON      NM000R$  000000000003000000000000300000000000030000000000003000000000000300000000000015000000000000000001000000000000000600000000000000018000000000000137402013121600000010000000000000BRBVMFACNOR3124
012013091178BVMFL15     070BVMF        ON      NM000R$  000000000001100000000000110000000000011000000000001100000000000110000000000000000000000000000003000000000000015000000000000000165000000000000148502013121600000010000000000000BRBVMFACNOR3125
012013091182BVMFU11     080BVMFE       ON      NM000R$  000000000000100000000000010000000000001000000000000100000000000010000000000000000000000000100001000000000000000200000000000000000200000000000108502013091600000010000000000000BRBVMFACNOR3125
012013091182BVMFU12     080BVMFE       ON      NM000R$  000000000000500000000000050000000000001000000000000200000000000030000000000001000000000000300027000000000000062700000000000000155500000000000118502013091600000010000000000000BRBVMFACNOR3125
012013091182BVMFU13     080BVMFE       ON      NM000R$  000000000003800000000000380000000000028000000000003600000000000280000000000025000000000005100003000000000000004600000000000000166800000000000128502013091600000010000000000000BRBVMFACNOR3125
012013091182BVMFU41     080BVMFE       ON      NM000R$  000000000000200000000000020000000000002000000000000200000000000020000000000000000000000000000001000000000000000800000000000000001600000000000113502013091600000010000000000000BRBVMFACNOR3125
012013091182BVMFU42     080BVMFE       ON      NM000R$  000000000001200000000000130000000000007000000000000800000000000070000000000001000000000001100006000000000000007200000000000000059500000000000123502013091600000010000000000000BRBVMFACNOR3125
012013091182BVMFV10     080BVMFE       ON      NM000R$  000000000000200000000000020000000000002000000000000200000000000020000000000000000000000000000001000000000000000100000000000000000200000000000098502013102100000010000000000000BRBVMFACNOR3125
012013091182BVMFV12     080BVMFE FM    ON      NM000R$  000000000002300000000000230000000000019000000000002100000000000220000000000020000000000002300057000000000000175200000000000003777100000000000118502013102100000010000000000000BRBVMFACNOR3125
012013091182BVMFV13     080BVMFE FM    ON      NM000R$  000000000005700000000000630000000000054000000000005800000000000570000000000048000000000007800016000000000000033800000000000001979700000000000128502013102100000010000000000000BRBVMFACNOR3125
012013091182BVMFV41     080BVMFE FM    ON      NM000R$  000000000001200000000000120000000000012000000000001200000000000120000000000000000000000000000002000000000000007200000000000000086400000000000113502013102100000010000000000000BRBVMFACNOR3125
012013091182BVMFV42     080BVMFE FM    ON      NM000R$  000000000003500000000000370000000000035000000000003500000000000350000000000000000000000000000020000000000000045000000000000001604100000000000123502013102100000010000000000000BRBVMFACNOR3125
012013091182BVMFV43     080BVMFE       ON      NM000R$  000000000009300000000000930000000000083000000000008800000000000830000000000000000000000000000006000000000000012500000000000001111500000000000133502013102100000010000000000000BRBVMFACNOR3125
012013091182BVMFV51     080BVMFE       ON      NM000R$  000000000001500000000000150000000000015000000000001500000000000150000000000000000000000000000001000000000000000100000000000000001500000000000116002013102100000010000000000000BRBVMFACNOR3125
012013091182BVMFW12     080BVMFE FM    ON      NM000R$  000000000003200000000000350000000000032000000000003300000000000330000000000000000000000000000010000000000000037000000000000001254000000000000118502013111800000010000000000000BRBVMFACNOR3125
012013091182BVMFW13     080BVMFE FM    ON      NM000R$  000000000006900000000000700000000000064000000000006700000000000640000000000000000000000000000003000000000000009000000000000000606000000000000128502013111800000010000000000000BRBVMFACNOR3125
012013091182BVMFW42     080BVMFE FM    ON      NM000R$  000000000005100000000000510000000000051000000000005100000000000510000000000000000000000000000001000000000000003700000000000000188700000000000125002013111800000010000000000000BRBVMFACNOR3126
012013091102CAMB4       010CAMBUCI     PN           R$  000000000018900000000001900000000000187000000000018900000000001900000000000185000000000019000011000000000000031400000000000005965100000000000000009999123100000010000000000000BRCAMBACNPR1117
012013091102CARD3       010CSU CARDSYSTON      NM   R$  000000000032000000000003200000000000315000000000031600000000003170000000000315000000000031700018000000000000014700000000000004649500000000000000009999123100000010000000000000BRCARDACNOR9105
012013091196CBMA4F      020COBRASMA    PN           R$  000000000000300000000000030000000000003000000000000300000000000030000000000003000000000000400004000000000000001499000000000000004497000000000000009999123100000010000000000000BRCBMAACNPR1124
012013091108CCHI3       010CHIARELLI   ON           R$  000000000001800000000000190000000000018000000000001800000000000180000000000017000000000001800012000000000000200000000000000003610000000000000000009999123100000010000000000000BRCCHIACNOR5123
012013091196CCHI3F      020CHIARELLI   ON           R$  000000000001700000000000170000000000016000000000001600000000000160000000000016000000000002200006000000000000008600000000000000145100000000000000009999123100000010000000000000BRCCHIACNOR5123
012013091108CCHI4       010CHIARELLI   PN           R$  000000000001600000000000160000000000016000000000001600000000000160000000000014000000000001600002000000000000020000000000000000320000000000000000009999123100000010000000000000BRCCHIACNPR2122
012013091102CCPR3       010CYRE COM-CCPON      NM   R$  000000000214100000000021420000000002084000000000213400000000020840000000002084000000000217900009000000000000002100000000000004483400000000000000009999123100000010000000000000BRCCPRACNOR9107
012013091196CCPR3F      020CYRE COM-CCPON      NM   R$  000000000210000000000021000000000002100000000000210000000000021000000000002032000000000228000001000000000000000020000000000000042000000000000000009999123100000010000000000000BRCCPRACNOR9107
012013091102CCRO3       010CCR SA      ON      NM   R$  000000000179400000000018220000000001794000000000181000000000018220000000001820000000000182211053000000000004598800000000008324483700000000000000009999123100000010000000000000BRCCROACNOR2122
012013091196CCRO3F      020CCR SA      ON      NM   R$  000000000180000000000018240000000001791000000000180600000000018240000000001791000000000183900073000000000000001970000000000003559760000000000000009999123100000010000000000000BRCCROACNOR2122
012013091178CCROJ48     070CCRO        ON      NM000R$  000000000003400000000000340000000000034000000000003400000000000340000000000000000000000000000001000000000000013500000000000000459000000000000185002013102100000010000000000000BRCCROACNOR2122
012013091102CCXC3       010CCX CARVAO  ON      NM   R$  000000000014800000000001550000000000146000000000015100000000001550000000000154000000000015502297000000000005911600000000000896488900000000000000009999123100000010000000000000BRCCXCACNOR5100
012013091196CCXC3F      020CCX CARVAO  ON      NM   R$  000000000014000000000001540000000000140000000000014600000000001540000000000133000000000015400010000000000000000420000000000000061610000000000000009999123100000010000000000000BRCCXCACNOR5100
012013091162CCXC3T      030CCX CARVAO  ON      NM016R$  000000000015500000000001560000000000155000000000015500000000001560000000000000000000000000000004000000000000140000000000000021801990000000000000009999123100000010000000000000BRCCXCACNOR5100
012013091162CCXC3T      030CCX CARVAO  ON      NM030R$  000000000015200000000001540000000000152000000000015200000000001540000000000000000000000000000004000000000000020000000000000003058666000000000000009999123100000010000000000000BRCCXCACNOR5100
012013091102CEEB3       010COELBA      ON           R$  000000000340000000000034000000000003400000000000340000000000034000000000003000000000000347500001000000000000000100000000000000340000000000000000009999123100000010000000000000BRCEEBACNOR3163
012013091112CEOC11B     010FII CEO CCP CI  ER  MB   R$  000000000846000000000085000000000008300000000000840600000000084700000000008401000000000847000031000000000000001501000000000012618881000000000000009999123100000010000000000000BRCEOCCTF003110
012013091102CEPE5       010CELPE       PNA          R$  000000000200000000000020000000000002000000000000200000000000020000000000001900000000000220000002000000000000004200000000000008400000000000000000009999123100000010000000000000BRCEPEACNPA6151
012013091162CEPE5T      030CELPE       PNA       090R$  000000000204100000000020410000000002041000000000204100000000020410000000000000000000000000000001000000000000003700000000000007551700000000000000009999123100000010000000000000BRCEPEACNPA6151
012013091102CESP3       010CESP        ON      N1   R$  000000000174800000000017480000000001748000000000174800000000017480000000001720000000000174000002000000000000007400000000000012935200000000000000009999123100000010000000000000BRCESPACNOR3160
012013091162CESP3T      030CESP        ON      N1030R$  000000000176300000000017640000000001763000000000176300000000017640000000000000000000000000000002000000000000006900000000000012168545000000000000009999123100000010000000000000BRCESPACNOR3160
012013091102CESP5       010CESP        PNA     N1   R$  000000000235000000000023500000000002350000000000235000000000023500000000002208000000000239000001000000000000000100000000000000235000000000000000009999123100000010000000000000BRCESPACNPA6108
012013091102CESP6       010CESP        PNB     N1   R$  000000000230900000000023130000000002265000000000229400000000023130000000002300000000000231302755000000000000788100000000001808699200000000000000009999123100000010000000000000BRCESPACNPB4119
012013091196CESP6F      020CESP        PNB     N1   R$  000000000230100000000023200000000002260000000000229900000000023200000000002272000000000232000019000000000000000512000000000001177511000000000000009999123100000010000000000000BRCESPACNPB4119
012013091162CESP6T      030CESP        PNB     N1030R$  000000000232400000000023250000000002324000000000232400000000023250000000000000000000000000000002000000000000000800000000000001859305000000000000009999123100000010000000000000BRCESPACNPB4119
012013091178CESPI50     070CESP        PNB     N1000R$  000000000029000000000002900000000000290000000000029000000000002900000000000000000000000000000001000000000000003000000000000000870000000000000202702013091600000010000000000000BRCESPACNPB4118
012013091178CESPJ20     070CESP        PNB     N1000R$  000000000030300000000003030000000000303000000000030300000000003030000000000000000000000000000001000000000000003000000000000000909000000000000200002013102100000010000000000000BRCESPACNPB4119
012013091102CGAS5       010COMGAS      PNA          R$  000000000578800000000058470000000005670000000000583100000000058390000000005805000000000583900034000000000000005600000000000032658000000000000000009999123100000010000000000000BRCGASACNPA3129
012013091196CGAS5F      020COMGAS      PNA          R$  000000000584000000000059000000000005840000000000588300000000059000000000005805000000000590600002000000000000000063000000000000370680000000000000009999123100000010000000000000BRCGASACNPA3129
012013091102CGRA3       010GRAZZIOTIN  ON           R$  000000000158500000000016070000000001585000000000159800000000016070000000001600000000000163000003000000000000000500000000000000799000000000000000009999123100000010000000000000BRCGRAACNOR2061
012013091102CGRA4       010GRAZZIOTIN  PN           R$  000000000176500000000017790000000001764000000000176900000000017790000000001760000000000177900008000000000000001400000000000002476700000000000000009999123100000010000000000000BRCGRAACNPR9061
012013091196CGRA4F      020GRAZZIOTIN  PN           R$  000000000175500000000017550000000001755000000000175500000000017550000000001755000000000178000002000000000000000056000000000000098280000000000000009999123100000010000000000000BRCGRAACNPR9061
012013091102CIEL3       010CIELO       ON      NM   R$  000000000575000000000057850000000005650000000000571900000000057200000000005710000000000572005638000000000001658500000000009485765500000000000000009999123100000010000000000000BRCIELACNOR3111
012013091196CIEL3F      020CIELO       ON      NM   R$  000000000579700000000057970000000005659000000000572300000000057770000000005712000000000577700164000000000000004234000000000024234029000000000000009999123100000010000000000000BRCIELACNOR3111
012013091162CIEL3T      030CIELO       ON      NM016R$  000000000573100000000057320000000005731000000000573100000000057320000000000000000000000000000002000000000000000400000000000002292540000000000000009999123100000010000000000000BRCIELACNOR3111
012013091162CIEL3T      030CIELO       ON      NM020R$  000000000579900000000058010000000005799000000000579900000000058010000000000000000000000000000003000000000000000600000000000003479701000000000000009999123100000010000000000000BRCIELACNOR3111
012013091162CIEL3T      030CIELO       ON      NM030R$  000000000581400000000058150000000005743000000000574300000000057440000000000000000000000000000010000000000000301550000000001731928060000000000000009999123100000010000000000000BRCIELACNOR3111
012013091162CIEL3T      030CIELO       ON      NM061R$  000000000580000000000058010000000005800000000000580000000000058010000000000000000000000000000002000000000000075000000000000435040200000000000000009999123100000010000000000000BRCIELACNOR3111
012013091162CIEL3T      030CIELO       ON      NM180R$  000000000598900000000059900000000005989000000000598900000000059900000000000000000000000000000002000000000000000500000000000002994803000000000000009999123100000010000000000000BRCIELACNOR3111
012013091102CLSC4       010CELESC      PN      N2   R$  000000000177500000000017850000000001765000000000177700000000017850000000001770000000000179000027000000000000004600000000000008175600000000000000009999123100000010000000000000BRCLSCACNPR3107
012013091196CLSC4F      020CELESC      PN      N2   R$  000000000179000000000018150000000001790000000000179800000000018150000000001600000000000189100020000000000000000044000000000000079115000000000000009999123100000010000000000000BRCLSCACNPR3107
012013091102CMIG3       010CEMIG       ON      N1   R$  000000000189900000000019120000000001875000000000189000000000018750000000001875000000000189500100000000000000031300000000000059180000000000000000009999123100000010000000000000BRCMIGACNOR6208
012013091196CMIG3F      020CEMIG       ON      N1   R$  000000000190000000000019000000000001890000000000189600000000018900000000001890000000000190000025000000000000000364000000000000690160000000000000009999123100000010000000000000BRCMIGACNOR6208
012013091162CMIG3T      030CEMIG       ON      N1030R$  000000000191400000000019150000000001914000000000191400000000019150000000000000000000000000000002000000000000001000000000000001914497000000000000009999123100000010000000000000BRCMIGACNOR6208
012013091102CMIG4       010CEMIG       PN      N1   R$  000000000191400000000019280000000001883000000000190100000000019000000000001900000000000190109336000000000003732000000000007097714700000000000000009999123100000010000000000000BRCMIGACNPR3208
012013091196CMIG4F      020CEMIG       PN      N1   R$  000000000191500000000019280000000001890000000000190300000000019150000000001900000000000191500149000000000000004187000000000007970427000000000000009999123100000010000000000000BRCMIGACNPR3208
012013091162CMIG4S      030CEMIG       PN      N1090R$  000000000194300000000019440000000001943000000000194300000000019440000000000000000000000000000004000000000000004160000000000008083116000000000000009999123100000010000000000000BRCMIGACNPR3208
012013091162CMIG4T      030CEMIG       PN      N1090R$  000000000195000000000019510000000001950000000000195000000000019510000000000000000000000000000002000000000000000069000000000000134609000000000000009999123100000010000000000000BRCMIGACNPR3208
012013091162CMIG4T      030CEMIG       PN      N1120R$  000000000195500000000019560000000001955000000000195500000000019560000000000000000000000000000002000000000000015000000000000029338473000000000000009999123100000010000000000000BRCMIGACNPR3208
012013091162CMIG4T      030CEMIG       PN      N1030R$  000000000193200000000019330000000001914000000000192600000000019150000000000000000000000000000010000000000000005500000000000010596887000000000000009999123100000010000000000000BRCMIGACNPR3208
012013091162CMIG4T      030CEMIG       PN      N1061R$  000000000193200000000019330000000001932000000000193200000000019330000000000000000000000000000002000000000000001500000000000002898740000000000000009999123100000010000000000000BRCMIGACNPR3208
012013091178CMIGJ19     070CMIG        PN      N1000R$  000000000007000000000000700000000000070000000000007000000000000700000000000066000000000000000001000000000000000500000000000000035000000000000190002013102100000010000000000000BRCMIGACNPR3208
012013091112CNES11B     010FII CENESP  CI      MB   R$  000000001215000000000121500000000012150000000001215000000000121500000000012150000000001220000003000000000000000052000000000000631800000000000000009999123100000010000000000000BRCNESCTF001125
012013091102COCA34      010COCA COLA   DRN          R$  000000000877300000000087730000000008773000000000877300000000087730000000008738000000000909100001000000000000000700000000000006141100000000000000009999123100000010000000000000BRCOCABDR002108
012013091102COCE3       010COELCE      ON           R$  000000000410500000000042140000000004100000000000415200000000041670000000004080000000000416700022000000000000005600000000000023252700000000000000009999123100000010000000000000BRCOCEACNOR0132
012013091102COCE5       010COELCE      PNA          R$  000000000407000000000040900000000004031000000000404200000000040310000000004031000000000404900142000000000000034800000000000140692300000000000000009999123100000010000000000000BRCOCEACNPA3133
012013091196COCE5F      020COELCE      PNA          R$  000000000407500000000040750000000004065000000000407100000000040690000000004050000000000406900006000000000000000180000000000000732796000000000000009999123100000010000000000000BRCOCEACNPA3133
012013091102CPFE3       010CPFL ENERGIAON      NM   R$  000000000199300000000019930000000001945000000000196300000000019640000000001960000000000196402147000000000000720200000000001414315300000000000000009999123100000010000000000000BRCPFEACNOR0122
012013091196CPFE3F      020CPFL ENERGIAON      NM   R$  000000000199500000000019950000000001945000000000197000000000019650000000001946000000000199500058000000000000001463000000000002882350000000000000009999123100000010000000000000BRCPFEACNOR0122
012013091102CPLE3       010COPEL       ON      N1   R$  000000000221700000000022170000000002195000000000219500000000021970000000002185000000000219700016000000000000017800000000000039088200000000000000009999123100000010000000000000BRCPLEACNOR8128
012013091196CPLE3F      020COPEL       ON      N1   R$  000000000225000000000022500000000002210000000000224700000000022500000000002067000000000225000004000000000000000090000000000000202300000000000000009999123100000010000000000000BRCPLEACNOR8128
012013091102CPLE6       010COPEL       PNB     N1   R$  000000000310600000000031380000000003087000000000311100000000031090000000003097000000000310901489000000000000312000000000000970761500000000000000009999123100000010000000000000BRCPLEACNPB9125
012013091196CPLE6F      020COPEL       PNB     N1   R$  000000000315600000000031940000000003080000000000311700000000030800000000003080000000000318500018000000000000000682000000000002126074000000000000009999123100000010000000000000BRCPLEACNPB9125
012013091102CPRE3       010CPFL RENOVAVON      NM   R$  000000000119900000000011990000000001182000000000119100000000011990000000001175000000000119900007000000000000002500000000000002978900000000000000009999123100000010000000000000BRCPREACNOR5100
012013091196CPRE3F      020CPFL RENOVAVON      NM   R$  000000000119500000000011950000000001108000000000116200000000011080000000001108000000000118300004000000000000000032000000000000037196000000000000009999123100000010000000000000BRCPREACNOR5100
012013091102CRDE3       010CR2         ON      NM   R$  000000000040800000000004250000000000408000000000042000000000004230000000000415000000000042300009000000000000013200000000000005549200000000000000009999123100000010000000000000BRCRDEACNOR1108
012013091102CREM3       010CREMER      ON      NM   R$  000000000145600000000014600000000001435000000000144200000000014500000000001438000000000145000023000000000000044500000000000064203100000000000000009999123100000010000000000000BRCREMACNOR2167
012013091102CRIV3       010ALFA FINANC ON           R$  000000000050000000000005000000000000500000000000050000000000005000000000000481000000000050700001000000000000000100000000000000050000000000000000009999123100000010000000000000BRCRIVACNOR4190
012013091102CRUZ3       010SOUZA CRUZ  ON           R$  000000000265500000000027150000000002650000000000268700000000027150000000002714000000000271507300000000000003824400000000010277636400000000000000009999123100000010000000000000BRCRUZACNOR0246
012013091196CRUZ3F      020SOUZA CRUZ  ON           R$  000000000266000000000027050000000002563000000000268100000000026960000000002696000000000270200097000000000000002542000000000006819198000000000000009999123100000010000000000000BRCRUZACNOR0246
012013091162CRUZ3T      030SOUZA CRUZ  ON        016R$  000000000268800000000026890000000002683000000000268600000000026840000000000000000000000000000004000000000000014300000000000038421486000000000000009999123100000010000000000000BRCRUZACNOR0246
012013091162CRUZ3T      030SOUZA CRUZ  ON        030R$  000000000269600000000026970000000002696000000000269600000000026970000000000000000000000000000004000000000000001100000000000002965901000000000000009999123100000010000000000000BRCRUZACNOR0246
012013091178CRUZJ27     070CRUZ        ON        000R$  000000000007500000000000750000000000075000000000007500000000000750000000000000000000000000000002000000000000001000000000000000075000000000000270002013102100000010000000000000BRCRUZACNOR0246
012013091102CSAN3       010COSAN       ON      NM   R$  000000000429700000000043280000000004233000000000427900000000043000000000004296000000000430003758000000000001182800000000005061349000000000000000009999123100000010000000000000BRCSANACNOR6108
012013091196CSAN3F      020COSAN       ON      NM   R$  000000000430000000000043490000000004240000000000428500000000043100000000004210000000000434800051000000000000001192000000000005108703000000000000009999123100000010000000000000BRCSANACNOR6108
012013091162CSAN3T      030COSAN       ON      NM016R$  000000000427800000000042790000000004258000000000426600000000042730000000000000000000000000000006000000000000002000000000000008533537000000000000009999123100000010000000000000BRCSANACNOR6108
012013091162CSAN3T      030COSAN       ON      NM030R$  000000000428800000000042890000000004288000000000428800000000042890000000000000000000000000000002000000000000002500000000000010721644000000000000009999123100000010000000000000BRCSANACNOR6108
012013091162CSAN3T      030COSAN       ON      NM061R$  000000000432200000000043230000000004322000000000432200000000043230000000000000000000000000000002000000000000000500000000000002161341000000000000009999123100000010000000000000BRCSANACNOR6108
012013091162CSAN3T      030COSAN       ON      NM180R$  000000000450100000000045020000000004501000000000450100000000045020000000000000000000000000000002000000000000001500000000000006751661000000000000009999123100000010000000000000BRCSANACNOR6108
012013091178CSANJ43     070CSAN        ON      NM000R$  000000000013600000000001360000000000136000000000013600000000001360000000000000000000000000000002000000000000002400000000000000326400000000000430002013102100000010000000000000BRCSANACNOR6108
012013091102CSCO34      010CISCO       DRN          R$  000000000551800000000055180000000005518000000000551800000000055180000000005509000000000560600001000000000000002200000000000012139600000000000000009999123100000010000000000000BRCSCOBDR004110
012013091102CSMG3       010COPASA      ON      NM   R$  000000000315000000000031790000000003110000000000314700000000031570000000003156000000000315701440000000000000243100000000000765216000000000000000009999123100000010000000000000BRCSMGACNOR5127
012013091196CSMG3F      020COPASA      ON      NM   R$  000000000295000000000032220000000002950000000000315300000000031260000000002919000000000328000011000000000000000310000000000000977696000000000000009999123100000010000000000000BRCSMGACNOR5127
012013091114CSMO11      010ISHARES CSMOCI           R$  000000000478000000000047990000000004780000000000479400000000047990000000004300000000000490000002000000000000000280000000000001342580000000000000009999123100000010000000000000BRCSMOCTF002100
012013091102CSNA3       010SID NACIONALON           R$  000000000094500000000009600000000000932000000000094400000000009370000000000937000000000093815602000000000009867800000000009319052500000000000000009999123100000010000000000000BRCSNAACNOR6243
012013091196CSNA3F      020SID NACIONALON           R$  000000000095000000000009590000000000935000000000094600000000009530000000000935000000000095300047000000000000001428000000000001352062000000000000009999123100000010000000000000BRCSNAACNOR6243
012013091162CSNA3T      030SID NACIONALON        061R$  000000000096700000000009680000000000962000000000096400000000009630000000000000000000000000000004000000000000002500000000000002412211000000000000009999123100000010000000000000BRCSNAACNOR6243
012013091162CSNA3T      030SID NACIONALON        090R$  000000000097400000000009750000000000974000000000097400000000009750000000000000000000000000000002000000000000003000000000000002923446000000000000009999123100000010000000000000BRCSNAACNOR6243
012013091178CSNAI10     070CSNA        ON        000R$  000000000000500000000000050000000000005000000000000500000000000050000000000000000000000000500002000000000000002900000000000000014500000000000100002013091600000010000000000000BRCSNAACNOR6243
012013091178CSNAI6      070CSNA        ON        000R$  000000000036600000000003660000000000366000000000036600000000003660000000000000000000000000000001000000000000001700000000000000622200000000000058002013091600000010000000000000BRCSNAACNOR6242
012013091178CSNAI62     070CSNA        ON        000R$  000000000034800000000003480000000000345000000000034600000000003450000000000000000000000000000002000000000000003800000000000001318200000000000060002013091600000010000000000000BRCSNAACNOR6242
012013091178CSNAI64     070CSNA        ON        000R$  000000000032000000000003200000000000320000000000032000000000003200000000000310000000000000000001000000000000000900000000000000288000000000000062002013091600000010000000000000BRCSNAACNOR6242
012013091178CSNAI7      070CSNA        ON        000R$  000000000027700000000002770000000000257000000000026900000000002570000000000235000000000000000003000000000000000900000000000000242900000000000068002013091600000010000000000000BRCSNAACNOR6242
012013091178CSNAI72     070CSNA        ON        000R$  000000000024600000000002460000000000246000000000024600000000002460000000000000000000000000000001000000000000000600000000000000147600000000000070002013091600000010000000000000BRCSNAACNOR6242
012013091178CSNAI8      070CSNA        ON        000R$  000000000018000000000001810000000000165000000000017700000000001650000000000000000000000000000007000000000000008000000000000001416300000000000078002013091600000010000000000000BRCSNAACNOR6242
012013091178CSNAI84     070CSNA        ON        000R$  000000000011000000000001100000000000100000000000010600000000001000000000000011000000000000000003000000000000011900000000000001273000000000000084002013091600000010000000000000BRCSNAACNOR6243
012013091138CSNAI8E     012CSNA        ON        000R$  000000000078000000000007800000000000780000000000078000000000007800000000000000000000000000000002000000000000000500000000000000390000000000000078002013091600000010000000000000BRCSNAACNOR6243
012013091178CSNAI9      070CSNA        ON        000R$  000000000005500000000000580000000000045000000000005200000000000460000000000043000000000000000008000000000000017000000000000000890700000000000090002013091600000010000000000000BRCSNAACNOR6243
012013091178CSNAI94     070CSNA        ON        000R$  000000000002700000000000270000000000027000000000002700000000000270000000000000000000000000000003000000000000053900000000000001455300000000000094002013091600000010000000000000BRCSNAACNOR6243
012013091178CSNAI96     070CSNA        ON        000R$  000000000001100000000000110000000000011000000000001100000000000110000000000000000000000000000001000000000000000600000000000000006600000000000096002013091600000010000000000000BRCSNAACNOR6243
012013091178CSNAI98     070CSNA        ON        000R$  000000000000500000000000050000000000005000000000000500000000000050000000000001000000000002300002000000000000010000000000000000050000000000000098002013091600000010000000000000BRCSNAACNOR6243
012013091178CSNAJ10     070CSNA  FM    ON        000R$  000000000003800000000000400000000000030000000000003200000000000320000000000000000000000003700006000000000000012800000000000000411100000000000100002013102100000010000000000000BRCSNAACNOR6243
012013091178CSNAJ40     070CSNA        ON        000R$  000000000002100000000000210000000000021000000000002100000000000210000000000000000000000000000001000000000000001200000000000000025200000000000104002013102100000010000000000000BRCSNAACNOR6243
012013091178CSNAJ62     070CSNA        ON        000R$  000000000033500000000003350000000000335000000000033500000000003350000000000000000000000000000002000000000000003800000000000001273000000000000060002013102100000010000000000000BRCSNAACNOR6242
012013091178CSNAJ74     070CSNA        ON        000R$  000000000021000000000002100000000000204000000000020700000000002040000000000000000000000023500002000000000000000200000000000000041400000000000074002013102100000010000000000000BRCSNAACNOR6243
012013091178CSNAJ8      070CSNA        ON        000R$  000000000016800000000001680000000000166000000000016600000000001660000000000000000000000019500003000000000000003600000000000000598800000000000078002013102100000010000000000000BRCSNAACNOR6242
012013091178CSNAJ86     070CSNA        ON        000R$  000000000013800000000001380000000000126000000000012800000000001260000000000000000000000000000002000000000000002500000000000000322200000000000084002013102100000010000000000000BRCSNAACNOR6242
012013091178CSNAJ9      070CSNA        ON        000R$  000000000010800000000001080000000000095000000000009700000000000950000000000000000000000010500004000000000000017400000000000001697900000000000088002013102100000010000000000000BRCSNAACNOR6242
012013091178CSNAJ92     070CSNA  FM    ON        000R$  000000000007600000000000770000000000069000000000007300000000000690000000000000000000000000000008000000000000015800000000000001154900000000000092002013102100000010000000000000BRCSNAACNOR6243
012013091178CSNAJ94     070CSNA  FM    ON        000R$  000000000006900000000000690000000000058000000000005800000000000580000000000000000000000010000002000000000000002600000000000000153000000000000094002013102100000010000000000000BRCSNAACNOR6243
012013091178CSNAJ96     070CSNA  FM    ON        000R$  000000000005300000000000530000000000047000000000004800000000000470000000000000000000000006000002000000000000002500000000000000120500000000000096002013102100000010000000000000BRCSNAACNOR6243
