00COTAHIST.2013BOVESPA 20130918                                                                                                                                                                                                                      
012013091802ABCB4       010ABC BRASIL  PN      N2   R$  000000000122500000000012500000000001225000000000124100000000012500000000001249000000000125000881000000000000199700000000000247926000000000000000009999123100000010000000000000BRABCBACNPR4120
012013091896ABCB4F      020ABC BRASIL  PN      N2   R$  000000000127000000000012700000000001201000000000124000000000012590000000001239000000000125800023000000000000000489000000000000606735000000000000009999123100000010000000000000BRABCBACNPR4120
012013091802ABRE11      010ABRIL EDUCA UNT     N2   R$  000000000327900000000032940000000003204000000000326600000000032850000000003285000000000328900416000000000000096700000000000315854200000000000000009999123100000010000000000000BRABRECDAM15102
012013091896ABRE11F     020ABRIL EDUCA UNT     N2   R$  000000000327500000000032750000000003275000000000327500000000032750000000003201000000000327500001000000000000000018000000000000058950000000000000009999123100000010000000000000BRABRECDAM15102
012013091802AEDU3       010ANHANGUERA  ON      NM   R$  000000000132500000000013500000000001305000000000132100000000013500000000001350000000000135111783000000000008620500000000011393972700000000000000009999123100000010000000000000BRAEDUACNOR9107
012013091896AEDU3F      020ANHANGUERA  ON      NM   R$  000000000131900000000013500000000001301000000000132600000000013500000000001350000000000136900030000000000000001064000000000001411216000000000000009999123100000010000000000000BRAEDUACNOR9107
012013091862AEDU3T      030ANHANGUERA  ON      NM016R$  000000000134000000000013410000000001340000000000134000000000013410000000000000000000000000000002000000000000002000000000000002681214000000000000009999123100000010000000000000BRAEDUACNOR9107
012013091862AEDU3T      030ANHANGUERA  ON      NM030R$  000000000132100000000013470000000001321000000000134300000000013470000000000000000000000000000008000000000000006800000000000009136916000000000000009999123100000010000000000000BRAEDUACNOR9107
012013091862AEDU3T      030ANHANGUERA  ON      NM047R$  000000000134900000000013500000000001349000000000134900000000013500000000000000000000000000000002000000000000002000000000000002698836000000000000009999123100000010000000000000BRAEDUACNOR9107
012013091862AEDU3T      030ANHANGUERA  ON      NM061R$  000000000132800000000013290000000001328000000000132800000000013290000000000000000000000000000002000000000000018000000000000023907762000000000000009999123100000010000000000000BRAEDUACNOR9107
012013091878AEDUJ13     070AEDU        ON      NM000R$  000000000006400000000000640000000000064000000000006400000000000640000000000000000000000000000001000000000000050000000000000003200000000000000130002013102100000010000000000000BRAEDUACNOR9107
012013091812AEFI11      010FII AESAPAR CI           R$  000000001190000000000119000000000011750000000001179700000000117990000000011790000000001179900021000000000000000419000000000004943165000000000000009999123100000010000000000000BRAEFICTF002121
012013091802AELP3       010AES ELPA    ON           R$  000000000100000000000010000000000000989000000000099200000000009890000000000920000000000099000008000000000000015000000000000014890000000000000000009999123100000010000000000000BRAELPACNOR2119
012013091896AELP3F      020AES ELPA    ON           R$  000000000097600000000009760000000000976000000000097600000000009760000000000976000000000107500002000000000000000061000000000000059536000000000000009999123100000010000000000000BRAELPACNOR2119
012013091862AELP3T      030AES ELPA    ON        030R$  000000000099600000000009970000000000996000000000099600000000009970000000000000000000000000000002000000000000010000000000000009969120000000000000009999123100000010000000000000BRAELPACNOR2119
012013091802AFLT3       010AFLUENTE T  ON           R$  000000000037500000000003750000000000375000000000037500000000003750000000000100000000000037500001000000000000000100000000000000037500000000000000009999123100000010000000000000BRAFLTACNOR1104
012013091812AGCX11      010FII AG CAIXACI           R$  000000009720000000000985000000000093700000000009477200000000952000000000095200000000009690000039000000000000000374000000000035444995000000000000009999123100000010000000000000BRAGCXCTF003110
012013091802AGRO3       010BRASILAGRO  ON      NM   R$  000000000098200000000009970000000000982000000000098800000000009890000000000985000000000098900026000000000000020800000000000020551500000000000000009999123100000010000000000000BRAGROACNOR7102
012013091802ALLL3       010ALL AMER LATON      NM   R$  000000000091000000000009290000000000902000000000091600000000009290000000000927000000000092909098000000000002426700000000002223365900000000000000009999123100000010000000000000BRALLLACNOR6118
012013091896ALLL3F      020ALL AMER LATON      NM   R$  000000000092900000000009290000000000901000000000091400000000009270000000000927000000000093200039000000000000000958000000000000875750000000000000009999123100000010000000000000BRALLLACNOR6118
012013091862ALLL3T      030ALL AMER LATON      NM090R$  000000000092600000000009270000000000923000000000092500000000009240000000000000000000000000000004000000000000003000000000000002777445000000000000009999123100000010000000000000BRALLLACNOR6118
012013091862ALLL3T      030ALL AMER LATON      NM120R$  000000000093100000000009320000000000931000000000093100000000009320000000000000000000000000000004000000000000002000000000000001863756000000000000009999123100000010000000000000BRALLLACNOR6118
012013091878ALLLJ92     070ALLL        ON      NM000R$  000000000001500000000000150000000000015000000000001500000000000150000000000000000000000000000002000000000000004000000000000000060000000000000092002013102100000010000000000000BRALLLACNOR6118
012013091812ALMI11B     010FII TORRE ALCI      MB   R$  000000030820000000003082000000000308200000000030820000000003082000000000308201000000030989800001000000000000000025000000000007705000000000000000009999123100000010000000000000BRALMICTF003205
012013091802ALPA3       010ALPARGATAS  ON      N1   R$  000000000117600000000011760000000001175000000000117500000000011750000000001178000000000122900002000000000000000500000000000000587600000000000000009999123100000010000000000000BRALPAACNOR0203
012013091896ALPA3F      020ALPARGATAS  ON      N1   R$  000000000123000000000012300000000001230000000000123000000000012300000000001149000000000123000001000000000000000010000000000000012300000000000000009999123100000010000000000000BRALPAACNOR0203
012013091802ALPA4       010ALPARGATAS  PN      N1   R$  000000000136900000000014160000000001368000000000139300000000014160000000001416000000000141700798000000000000271000000000000377581000000000000000009999123100000010000000000000BRALPAACNPR7203
012013091896ALPA4F      020ALPARGATAS  PN      N1   R$  000000000137500000000014100000000001375000000000139100000000014100000000001379000000000141000019000000000000000420000000000000584315000000000000009999123100000010000000000000BRALPAACNPR7203
012013091878ALPAJ14     070ALPA        PN      N1000R$  000000000002200000000000220000000000022000000000002200000000000220000000000014000000000000000001000000000000001300000000000000028600000000000140002013102100000010000000000000BRALPAACNPR7203
012013091802ALSC3       010ALIANSCE    ON      NM   R$  000000000194500000000020540000000001945000000000199200000000020500000000002050000000000205201793000000000000485200000000000966599900000000000000009999123100000010000000000000BRALSCACNOR0104
012013091896ALSC3F      020ALIANSCE    ON      NM   R$  000000000197000000000020310000000001965000000000199100000000020310000000001902000000000208100010000000000000000331000000000000659289000000000000009999123100000010000000000000BRALSCACNOR0104
012013091802ALUP11      010ALUPAR      UNT     N2   R$  000000000172900000000017750000000001710000000000173600000000017750000000001746000000000177500556000000000000095000000000000164950000000000000000009999123100000010000000000000BRALUPCDAM15100
012013091896ALUP11F     020ALUPAR      UNT     N2   R$  000000000170000000000017610000000001700000000000173000000000017550000000001700000000000176000011000000000000000272000000000000470587000000000000009999123100000010000000000000BRALUPCDAM15100
012013091862ALUP11T     030ALUPAR      UNT     N2016R$  000000000174600000000017470000000001739000000000174500000000017400000000000000000000000000000004000000000000002000000000000003490996000000000000009999123100000010000000000000BRALUPCDAM15100
012013091802AMAR3       010LOJAS MARISAON      NM   R$  000000000224900000000023530000000002218000000000229400000000023260000000002310000000000232602079000000000000552900000000001268467800000000000000009999123100000010000000000000BRAMARACNOR4109
012013091896AMAR3F      020LOJAS MARISAON      NM   R$  000000000228000000000023530000000002250000000000230800000000023160000000002300000000000232000017000000000000000463000000000001068817000000000000009999123100000010000000000000BRAMARACNOR4109
012013091862AMAR3T      030LOJAS MARISAON      NM061R$  000000000231100000000023140000000002311000000000231100000000023120000000000000000000000000000006000000000000002100000000000004855159000000000000009999123100000010000000000000BRAMARACNOR4109
012013091802AMBV3       010AMBEV       ON  ED       R$  000000000849800000000085880000000008374000000000849800000000085460000000008546000000000858501263000000000000223200000000001896812100000000000000009999123100000010000000000000BRAMBVACNOR4154
012013091896AMBV3F      020AMBEV       ON  ED       R$  000000000852300000000085630000000008390000000000847300000000085600000000008500000000000859900036000000000000000890000000000007541738000000000000009999123100000010000000000000BRAMBVACNOR4154
012013091862AMBV3T      030AMBEV       ON  ED    016R$  000000000852900000000085300000000008529000000000852900000000085300000000000000000000000000000002000000000000001000000000000008529520000000000000009999123100000010000000000000BRAMBVACNOR4154
012013091802AMBV4       010AMBEV       PN  ED       R$  000000000846300000000085950000000008366000000000850000000000085850000000008578000000000858708928000000000002540600000000021597088300000000000000009999123100000010000000000000BRAMBVACNPR1154
012013091896AMBV4F      020AMBEV       PN  ED       R$  000000000843100000000085900000000008370000000000849500000000085900000000008588000000000859000175000000000000004370000000000037137321000000000000009999123100000010000000000000BRAMBVACNPR1154
012013091862AMBV4T      030AMBEV       PN  ED    030R$  000000000862700000000086280000000008627000000000862700000000086280000000000000000000000000000002000000000000000100000000000000862783000000000000009999123100000010000000000000BRAMBVACNPR1154
012013091862AMBV4T      030AMBEV       PN  ED    090R$  000000000874800000000087490000000008748000000000874800000000087490000000000000000000000000000002000000000000001200000000000010498104000000000000009999123100000010000000000000BRAMBVACNPR1154
012013091862AMBV4T      030AMBEV       PN  ED    120R$  000000000866900000000088170000000008669000000000872100000000088170000000000000000000000000000006000000000000007700000000000067153051000000000000009999123100000010000000000000BRAMBVACNPR1154
012013091878AMBVJ88     070AMBV    /ED PN        000R$  000000000012500000000001900000000000125000000000013800000000001900000000000000000000000019100003000000000000000500000000000000069000000000000873502013102100000010000000000000BRAMBVACNPR1153
012013091878AMBVJ92     070AMBV    /ED PN        000R$  000000000003500000000000350000000000035000000000003500000000000350000000000000000000000005000001000000000000000100000000000000003500000000000913502013102100000010000000000000BRAMBVACNPR1153
012013091878AMBVL88     070AMBV    /ED PN        000R$  000000000033200000000003320000000000332000000000033200000000003320000000000000000000000000000002000000000000250000000000000083000000000000000873502013121600000010000000000000BRAMBVACNPR1153
012013091882AMBVV10     080AMBVE   /ED PN        000R$  000000000133500000000013350000000001335000000000133500000000013350000000000000000000000000000001000000000000035000000000000046725000000000001000002013102100000010000000000000BRAMBVACNPR1154
012013091882AMBVV12     080AMBVE   /ED PN        000R$  000000000327500000000032750000000003275000000000327500000000032750000000000000000000000000000001000000000000035000000000000114625000000000001200002013102100000010000000000000BRAMBVACNPR1154
012013091882AMBVX76     080AMBVE   /ED PN        000R$  000000000007300000000000730000000000073000000000007300000000000730000000000000000000000000000002000000000000250000000000000018250000000000000753502013121600000010000000000000BRAMBVACNPR1153
012013091882AMBVX80     080AMBVE   /ED PN        000R$  000000000019200000000001920000000000192000000000019200000000001920000000000000000000000000000002000000000000250000000000000048000000000000000793502013121600000010000000000000BRAMBVACNPR1153
012013091802ARTR3       010ARTERIS     ON      NM   R$  000000000189000000000019240000000001879000000000190300000000019200000000001912000000000192002690000000000000927100000000001764843100000000000000009999123100000010000000000000BRARTRACNOR3101
012013091896ARTR3F      020ARTERIS     ON      NM   R$  000000000188500000000019290000000001876000000000190500000000019290000000001915000000000192900100000000000000003174000000000006051734000000000000009999123100000010000000000000BRARTRACNOR3101
012013091862ARTR3T      030ARTERIS     ON      NM030R$  000000000192000000000019220000000001920000000000192100000000019210000000000000000000000000000008000000000000006700000000000012871411000000000000009999123100000010000000000000BRARTRACNOR3101
012013091862ARTR3T      030ARTERIS     ON      NM061R$  000000000192500000000019260000000001925000000000192500000000019260000000000000000000000000000002000000000000005300000000000010206361000000000000009999123100000010000000000000BRARTRACNOR3101
012013091802ARZZ3       010AREZZO CO   ON      NM   R$  000000000377000000000037970000000003703000000000377100000000037790000000003775000000000377900398000000000000129100000000000486955500000000000000009999123100000010000000000000BRARZZACNOR3109
012013091896ARZZ3F      020AREZZO CO   ON      NM   R$  000000000379900000000037990000000003701000000000371900000000037010000000003701000000000379900004000000000000000062000000000000230588000000000000009999123100000010000000000000BRARZZACNOR3109
012013091802AUTM3       010AUTOMETAL   ON      NM   R$  000000000185400000000018590000000001832000000000184000000000018590000000001848000000000185900135000000000001382300000000002544031100000000000000009999123100000010000000000000BRAUTMACNOR8109
012013091896AUTM3F      020AUTOMETAL   ON      NM   R$  000000000185000000000018500000000001850000000000185000000000018500000000001800000000000185000002000000000000000054000000000000099900000000000000009999123100000010000000000000BRAUTMACNOR8109
012013091802BAHI3       010BAHEMA      ON           R$  000000000049500000000004950000000000494000000000049400000000004950000000000485000000000049900004000000000000009200000000000004545500000000000000009999123100000010000000000000BRBAHIACNOR1066
012013091862BAHI3T      030BAHEMA      ON        090R$  000000000050500000000005060000000000505000000000050500000000005060000000000000000000000000000002000000000000008500000000000004299776000000000000009999123100000010000000000000BRBAHIACNOR1066
012013091802BAZA3       010AMAZONIA    ON           R$  000000000003300000000000330000000000033000000000003300000000000330000000000032000000000003300005000000000000028000000000000000924000000000000000009999123100000010000000000000BRBAZAACNOR0163
012013091896BAZA3F      020AMAZONIA    ON           R$  000000000003200000000000350000000000031000000000003200000000000350000000000033000000000003500004000000000000000410000000000000013138000000000000009999123100000010000000000000BRBAZAACNOR0163
012013091802BBAS3       010BRASIL      ON  EJ  NM   R$  000000000244900000000025580000000002440000000000250200000000025350000000002535000000000253719979000000000007502400000000018778837500000000000000009999123100000010000000000000BRBBASACNOR3239
012013091896BBAS3F      020BRASIL      ON  EJ  NM   R$  000000000245000000000025550000000002450000000000249400000000025500000000002539000000000255000506000000000000014062000000000035094681000000000000009999123100000010000000000000BRBBASACNOR3239
012013091862BBAS3T      030BRASIL      ON  EJ  NM030R$  000000000249700000000025470000000002497000000000253600000000025470000000000000000000000000000004000000000000001000000000000002536942000000000000009999123100000010000000000000BRBBASACNOR3239
012013091862BBAS3T      030BRASIL      ON  EJ  NM036R$  000000000249500000000024960000000002491000000000249300000000024920000000000000000000000000000004000000000000001200000000000002992076000000000000009999123100000010000000000000BRBBASACNOR3239
012013091862BBAS3T      030BRASIL      ON  EJ  NM061R$  000000000249600000000025070000000002496000000000249900000000025070000000000000000000000000000012000000000000460000000000001149995885000000000000009999123100000010000000000000BRBBASACNOR3239
012013091862BBAS3T      030BRASIL      ON  EJ  NM090R$  000000000258300000000025840000000002583000000000258300000000025840000000000000000000000000000002000000000000000650000000000001679594000000000000009999123100000010000000000000BRBBASACNOR3239
012013091878BBASA26     070BBAS    /EJ ON      NM000R$  000000000016200000000001620000000000162000000000016200000000001620000000000000000000000000000001000000000000000500000000000000081000000000000249502014012000000010000000000000BRBBASACNOR3237
012013091878BBASB26     070BBAS    /EJ ON      NM000R$  000000000017800000000001780000000000176000000000017700000000001760000000000186000000000000000004000000000000009500000000000001684000000000000249502014021700000010000000000000BRBBASACNOR3237
012013091878BBASJ22     070BBAS    /EJ ON      NM000R$  000000000038300000000004650000000000357000000000039300000000004650000000000365000000000000000012000000000000023300000000000009157600000000000209502013102100000010000000000000BRBBASACNOR3237
012013091878BBASJ23     070BBAS  FM/EJ ON      NM000R$  000000000031600000000004110000000000313000000000036000000000003700000000000362000000000044900238000000000000249600000000000089969700000000000216102013102100000010000000000000BRBBASACNOR3235
012013091878BBASJ24     070BBAS  FM/EJ ON      NM000R$  000000000020800000000003030000000000208000000000025100000000003010000000000270000000000000000089000000000000139900000000000035130400000000000227102013102100000010000000000000BRBBASACNOR3236
012013091878BBASJ25     070BBAS  FM/EJ ON      NM000R$  000000000012100000000001950000000000121000000000014800000000001900000000000070000000000000000928000000000000240600000000000035816100000000000239502013102100000010000000000000BRBBASACNOR3237
012013091878BBASJ26     070BBAS  FM/EJ ON      NM000R$  000000000007600000000001440000000000076000000000009100000000001260000000000126000000000016000539000000000000371700000000000034008900000000000246102013102100000010000000000000BRBBASACNOR3235
012013091878BBASJ27     070BBAS  FM/EJ ON      NM000R$  000000000003500000000000790000000000035000000000005200000000000760000000000060000000000007600537000000000000397700000000000020686600000000000256102013102100000010000000000000BRBBASACNOR3235
012013091878BBASJ28     070BBAS    /EJ ON      NM000R$  000000000001000000000000280000000000009000000000002100000000000260000000000022000000000002600174000000000000394400000000000008533900000000000269502013102100000010000000000000BRBBASACNOR3237
012013091878BBASJ29     070BBAS    /EJ ON      NM000R$  000000000000700000000000120000000000007000000000000800000000000120000000000007000000000000000007000000000000014700000000000000122100000000000276102013102100000010000000000000BRBBASACNOR3235
012013091878BBASJ30     070BBAS    /EJ ON      NM000R$  000000000000400000000000040000000000004000000000000400000000000040000000000003000000000000400001000000000000001100000000000000004400000000000286102013102100000010000000000000BRBBASACNOR3235
012013091878BBASJ56     070BBAS    /EJ ON      NM000R$  000000000005200000000001030000000000050000000000006000000000001030000000000000000000000000000135000000000000075100000000000004516400000000000251102013102100000010000000000000BRBBASACNOR3235
012013091878BBASK23     070BBAS  FM/EJ ON      NM000R$  000000000031500000000003960000000000313000000000034500000000003940000000000000000000000000000054000000000000078600000000000027125600000000000219502013111800000010000000000000BRBBASACNOR3237
012013091878BBASK24     070BBAS  FM/EJ ON      NM000R$  000000000022900000000003080000000000229000000000026300000000003060000000000175000000000000000027000000000000044900000000000011824300000000000229502013111800000010000000000000BRBBASACNOR3237
012013091878BBASK25     070BBAS  FM/EJ ON      NM000R$  000000000018000000000002450000000000177000000000020700000000002450000000000000000000000031900074000000000000025900000000000005374300000000000237102013111800000010000000000000BRBBASACNOR3236
012013091878BBASK26     070BBAS  FM/EJ ON      NM000R$  000000000011500000000001710000000000115000000000013900000000001710000000000016000000000017000024000000000000025600000000000003572200000000000247102013111800000010000000000000BRBBASACNOR3236
012013091878BBASK27     070BBAS  FM/EJ ON      NM000R$  000000000006600000000000990000000000066000000000007600000000000990000000000075000000000014300013000000000000018200000000000001387800000000000257102013111800000010000000000000BRBBASACNOR3236
012013091878BBASK28     070BBAS    /EJ ON      NM000R$  000000000003600000000000620000000000035000000000004700000000000600000000000010000000000006000172000000000000270600000000000012870500000000000267102013111800000010000000000000BRBBASACNOR3236
012013091878BBASK29     070BBAS    /EJ ON      NM000R$  000000000001400000000000200000000000014000000000001400000000000200000000000007000000000002800003000000000000020400000000000000288000000000000279502013111800000010000000000000BRBBASACNOR3237
012013091878BBASK56     070BBAS    /EJ ON      NM000R$  000000000005000000000000540000000000050000000000005100000000000540000000000000000000000000000014000000000000040800000000000002107600000000000262302013111800000010000000000000BRBBASACNOR3238
012013091878BBASL28     070BBAS    /EJ ON      NM000R$  000000000008000000000000800000000000080000000000008000000000000800000000000005000000000000000001000000000000000300000000000000024000000000000269502013121600000010000000000000BRBBASACNOR3237
012013091882BBASV22     080BBASE FM/EJ ON      NM000R$  000000000000400000000000040000000000004000000000000400000000000040000000000000000000000000000005000000000000010000000000000000040000000000000209502013102100000010000000000000BRBBASACNOR3237
012013091882BBASV23     080BBASE FM/EJ ON      NM000R$  000000000001200000000000120000000000002000000000000400000000000020000000000002000000000000500141000000000000572800000000000002702100000000000216102013102100000010000000000000BRBBASACNOR3235
012013091882BBASV24     080BBASE FM/EJ ON      NM000R$  000000000002100000000000210000000000006000000000001100000000000060000000000006000000000003000248000000000000532800000000000006326100000000000227102013102100000010000000000000BRBBASACNOR3236
012013091882BBASV25     080BBASE FM/EJ ON      NM000R$  000000000004500000000000470000000000020000000000003100000000000220000000000000000000000002201156000000000000691200000000000021817100000000000239502013102100000010000000000000BRBBASACNOR3237
012013091882BBASV26     080BBASE   /EJ ON      NM000R$  000000000006300000000000630000000000035000000000003900000000000350000000000000000000000005500176000000000001127700000000000044622100000000000246102013102100000010000000000000BRBBASACNOR3235
012013091882BBASV27     080BBASE   /EJ ON      NM000R$  000000000012700000000001270000000000085000000000010200000000000850000000000065000000000013600020000000000000019700000000000002021200000000000256102013102100000010000000000000BRBBASACNOR3235
012013091882BBASV53     080BBASE   /EJ ON      NM000R$  000000000000900000000000090000000000009000000000000900000000000090000000000000000000000000000002000000000000002400000000000000021600000000000221102013102100000010000000000000BRBBASACNOR3235
012013091882BBASV60     080BBASE   /EJ ON      NM000R$  000000000039800000000003980000000000389000000000039300000000003890000000000000000000000000000072000000000000700100000000000275488900000000000291102013102100000010000000000000BRBBASACNOR3235
012013091882BBASV65     080BBASE       ON      NM000R$  000000000013500000000001350000000000135000000000013500000000001350000000000000000000000000000001000000000000350000000000000047250000000000000265002013102100000010000000000000BRBBASACNOR3239
012013091882BBASW24     080BBASE FM/EJ ON      NM000R$  000000000002400000000000240000000000024000000000002400000000000240000000000000000000000021900002000000000000001400000000000000033600000000000229502013111800000010000000000000BRBBASACNOR3237
012013091882BBASW26     080BBASE   /EJ ON      NM000R$  000000000009500000000000950000000000066000000000007000000000000660000000000000000000000000000002000000000000001400000000000000098200000000000247102013111800000010000000000000BRBBASACNOR3236
012013091882BBASX20     080BBASE   /EJ ON      NM000R$  000000000000900000000000090000000000009000000000000900000000000090000000000000000000000000000001000000000000001000000000000000009000000000000189502013121600000010000000000000BRBBASACNOR3237
012013091882BBASX23     080BBASE   /EJ ON      NM000R$  000000000002900000000000290000000000029000000000002900000000000290000000000000000000000000000001000000000000001500000000000000043500000000000219502013121600000010000000000000BRBBASACNOR3237
012013091802BBDC3       010BRADESCO    ON      N1   R$  000000000349200000000036580000000003480000000000356000000000036110000000003611000000000363006233000000000001582600000000005635169700000000000000009999123100000010000000000000BRBBDCACNOR1606
012013091896BBDC3F      020BRADESCO    ON      N1   R$  000000000350000000000037000000000003462000000000353600000000037000000000003501000000000370000059000000000000001638000000000005796294000000000000009999123100000010000000000000BRBBDCACNOR1606
012013091862BBDC3T      030BRADESCO    ON      N1061R$  000000000354300000000035440000000003543000000000354300000000035440000000000000000000000000000002000000000000010000000000000035437460000000000000009999123100000010000000000000BRBBDCACNOR1606
012013091802BBDC4       010BRADESCO    PN      N1   R$  000000000302000000000031500000000003010000000000308800000000031240000000003123000000000312518188000000000009206600000000028437183600000000000000009999123100000010000000000000BRBBDCACNPR8606
012013091896BBDC4F      020BRADESCO    PN      N1   R$  000000000303400000000031480000000003001000000000307100000000031450000000003130000000000314500307000000000000008271000000000025417807000000000000009999123100000010000000000000BRBBDCACNPR8606
012013091862BBDC4S      030BRADESCO    PN      N1061R$  000000000318600000000031870000000003186000000000318600000000031870000000000000000000000000000002000000000000002000000000000006372650000000000000009999123100000010000000000000BRBBDCACNPR8606
012013091862BBDC4T      030BRADESCO    PN      N1061R$  000000000306200000000030920000000003062000000000308700000000030920000000000000000000000000000010000000000000150500000000000464737222000000000000009999123100000010000000000000BRBBDCACNPR8606
012013091862BBDC4T      030BRADESCO    PN      N1090R$  000000000309200000000030930000000003092000000000309200000000030930000000000000000000000000000002000000000000006000000000000018555654000000000000009999123100000010000000000000BRBBDCACNPR8606
012013091862BBDC4T      030BRADESCO    PN      N1180R$  000000000316200000000031630000000003162000000000316200000000031630000000000000000000000000000002000000000000000800000000000002530291000000000000009999123100000010000000000000BRBBDCACNPR8606
012013091862BBDC4T      030BRADESCO    PN      N1016R$  000000000303200000000031240000000003032000000000306200000000031240000000000000000000000000000004000000000000001500000000000004594482000000000000009999123100000010000000000000BRBBDCACNPR8606
012013091878BBDCA34     070BBDC        PN      N1000R$  000000000008500000000001000000000000085000000000009000000000001000000000000000000000000000000009000000000000025000000000000002270000000000000339602014012000000010000000000000BRBBDCACNPR8604
012013091878BBDCB63     070BBDC        PN      N1000R$  000000000012800000000001290000000000124000000000012700000000001250000000000000000000000000000004000000000000300000000000000038187000000000000335002014021700000010000000000000BRBBDCACNPR8606
012013091878BBDCJ1      070BBDC        PN      N1000R$  000000000004400000000000440000000000040000000000004200000000000440000000000000000000000000000003000000000000010000000000000000420400000000000314402013102100000010000000000000BRBBDCACNPR8603
012013091878BBDCJ2      070BBDC        PN      N1000R$  000000000001900000000000240000000000019000000000002100000000000240000000000000000000000000000002000000000000000200000000000000004300000000000324402013102100000010000000000000BRBBDCACNPR8603
012013091878BBDCJ26     070BBDC        PN      N1000R$  000000000044900000000004990000000000449000000000047300000000004990000000000000000000000000000004000000000000000400000000000000189400000000000259602013102100000010000000000000BRBBDCACNPR8604
012013091878BBDCJ29     070BBDC        PN      N1000R$  000000000019300000000003020000000000193000000000024700000000003000000000000195000000000000000199000000000000256300000000000063310000000000000287602013102100000010000000000000BRBBDCACNPR8602
012013091878BBDCJ30     070BBDC        PN      N1000R$  000000000012500000000002170000000000119000000000016900000000002170000000000123000000000000000134000000000000179200000000000030348700000000000297602013102100000010000000000000BRBBDCACNPR8602
012013091878BBDCJ31     070BBDC        PN      N1000R$  000000000006700000000001430000000000067000000000011400000000001350000000000120000000000014700526000000000000570800000000000065225700000000000307602013102100000010000000000000BRBBDCACNPR8602
012013091878BBDCJ32     070BBDC        PN      N1000R$  000000000003500000000000880000000000033000000000006200000000000880000000000059000000000008600301000000000000429900000000000026948900000000000317602013102100000010000000000000BRBBDCACNPR8602
012013091878BBDCJ33     070BBDC        PN      N1000R$  000000000001900000000000580000000000017000000000003600000000000500000000000025000000000004900297000000000000426400000000000015632700000000000327602013102100000010000000000000BRBBDCACNPR8602
012013091878BBDCJ34     070BBDC        PN      N1000R$  000000000001000000000000260000000000010000000000001800000000000260000000000016000000000002600003000000000000005000000000000000091000000000000337202013102100000010000000000000BRBBDCACNPR8600
012013091878BBDCJ35     070BBDC        PN      N1000R$  000000000000600000000000060000000000006000000000000600000000000060000000000006000000000000000001000000000000001600000000000000009600000000000349802013102100000010000000000000BRBBDCACNPR8605
012013091878BBDCJ58     070BBDC        PN      N1000R$  000000000026900000000003650000000000267000000000032900000000003650000000000202000000000000000019000000000000006500000000000002141500000000000279802013102100000010000000000000BRBBDCACNPR8605
012013091878BBDCK30     070BBDC        PN      N1000R$  000000000015200000000002400000000000152000000000021100000000002400000000000000000000000000000161000000000000170800000000000036137500000000000299802013111800000010000000000000BRBBDCACNPR8605
012013091878BBDCK31     070BBDC        PN      N1000R$  000000000010100000000001710000000000101000000000013400000000001690000000000000000000000000000032000000000000055400000000000007447400000000000309802013111800000010000000000000BRBBDCACNPR8605
012013091878BBDCK32     070BBDC        PN      N1000R$  000000000008100000000001300000000000081000000000011500000000001270000000000100000000000000000015000000000000034600000000000004002900000000000317402013111800000010000000000000BRBBDCACNPR8601
012013091878BBDCK33     070BBDC        PN      N1000R$  000000000004500000000000850000000000045000000000007300000000000850000000000012000000000000000129000000000000109800000000000008105400000000000327602013111800000010000000000000BRBBDCACNPR8602
012013091878BBDCK34     070BBDC        PN      N1000R$  000000000002000000000000220000000000020000000000002100000000000220000000000008000000000000000002000000000000004000000000000000084000000000000339602013111800000010000000000000BRBBDCACNPR8604
012013091878BBDCK9      070BBDC        PN      N1000R$  000000000021600000000003170000000000216000000000027400000000003170000000000000000000000000000062000000000000122000000000000033545800000000000289802013111800000010000000000000BRBBDCACNPR8605
012013091878BBDCL1      070BBDC        PN      N1000R$  000000000018500000000001920000000000179000000000018100000000001920000000000000000000000000000011000000000000413400000000000074918100000000000307202013121600000010000000000000BRBBDCACNPR8600
012013091878BBDCL3      070BBDC        PN      N1000R$  000000000007600000000000760000000000076000000000007600000000000760000000000000000000000000000001000000000000001200000000000000091200000000000327202013121600000010000000000000BRBBDCACNPR8601
012013091878BBDCL32     070BBDC        PN      N1000R$  000000000013800000000001410000000000138000000000013800000000001410000000000000000000000000000005000000000000003200000000000000444700000000000317202013121600000010000000000000BRBBDCACNPR8600
012013091878BBDCL34     070BBDC        PN      N1000R$  000000000005300000000000750000000000053000000000006600000000000750000000000000000000000000000004000000000000004200000000000000280200000000000337202013121600000010000000000000BRBBDCACNPR8600
012013091878BBDCL36     070BBDC        PN      N1000R$  000000000013000000000001300000000000130000000000013000000000001300000000000000000000000000000001000000000000000200000000000000026000000000000324102013121600000010000000000000BRBBDCACNPR8597
012013091882BBDCV1      080BBDCE       PN      N1000R$  000000000010900000000001090000000000093000000000009800000000000930000000000000000000000000000008000000000000015400000000000001523100000000000314402013102100000010000000000000BRBBDCACNPR8603
012013091882BBDCV26     080BBDCE       PN      N1000R$  000000000000800000000000080000000000008000000000000800000000000080000000000002000000000000000002000000000000010000000000000000080000000000000259602013102100000010000000000000BRBBDCACNPR8604
012013091882BBDCV27     080BBDCE       PN      N1000R$  000000000001100000000000110000000000010000000000001000000000000100000000000000000000000001500003000000000000013700000000000000140700000000000267602013102100000010000000000000BRBBDCACNPR8602
012013091882BBDCV28     080BBDCE       PN      N1000R$  000000000000300000000000030000000000003000000000000300000000000030000000000000000000000000000001000000000000000700000000000000002100000000000245602013102100000010000000000000BRBBDCACNPR8591
012013091882BBDCV29     080BBDCE       PN      N1000R$  000000000003300000000000330000000000016000000000002400000000000160000000000016000000000000000144000000000000361100000000000009000600000000000287602013102100000010000000000000BRBBDCACNPR8602
012013091882BBDCV30     080BBDCE       PN      N1000R$  000000000006000000000000620000000000029000000000004200000000000300000000000000000000000011800064000000000000129400000000000005511900000000000297602013102100000010000000000000BRBBDCACNPR8602
012013091882BBDCV31     080BBDCE       PN      N1000R$  000000000010700000000001070000000000055000000000007800000000000570000000000058000000000000000029000000000000052200000000000004120000000000000307602013102100000010000000000000BRBBDCACNPR8602
012013091882BBDCV32     080BBDCE       PN      N1000R$  000000000012600000000001280000000000110000000000011700000000001100000000000000000000000000000015000000000000023600000000000002770800000000000317602013102100000010000000000000BRBBDCACNPR8602
012013091882BBDCV58     080BBDCE       PN      N1000R$  000000000002000000000000200000000000010000000000001400000000000100000000000000000000000000000041000000000000072500000000000001061900000000000279802013102100000010000000000000BRBBDCACNPR8605
012013091882BBDCW28     080BBDCE       PN      N1000R$  000000000003300000000000330000000000022000000000002600000000000220000000000011000000000000000016000000000000025000000000000000651000000000000277602013111800000010000000000000BRBBDCACNPR8602
012013091882BBDCW30     080BBDCE       PN      N1000R$  000000000009200000000000920000000000056000000000007400000000000580000000000000000000000000000020000000000000031200000000000002314500000000000299802013111800000010000000000000BRBBDCACNPR8605
012013091882BBDCW31     080BBDCE       PN      N1000R$  000000000014000000000001400000000000087000000000010700000000000890000000000000000000000000000051000000000000125600000000000013503100000000000309802013111800000010000000000000BRBBDCACNPR8605
012013091882BBDCW32     080BBDCE       PN      N1000R$  000000000013400000000001340000000000134000000000013400000000001340000000000000000000000000000001000000000000001800000000000000241200000000000317402013111800000010000000000000BRBBDCACNPR8601
012013091882BBDCW33     080BBDCE       PN      N1000R$  000000000019800000000001980000000000191000000000019400000000001910000000000000000000000000000004000000000000007800000000000001520400000000000327602013111800000010000000000000BRBBDCACNPR8602
012013091882BBDCW9      080BBDCE       PN      N1000R$  000000000005200000000000540000000000038000000000004300000000000380000000000000000000000000000014000000000000048200000000000002098100000000000289802013111800000010000000000000BRBBDCACNPR8605
012013091882BBDCX28     080BBDCE       PN      N1000R$  000000000004100000000000410000000000041000000000004100000000000410000000000000000000000000000001000000000000002500000000000000102500000000000279602013121600000010000000000000BRBBDCACNPR8604
012013091882BBDCX31     080BBDCE       PN      N1000R$  000000000004300000000000430000000000042000000000004200000000000420000000000000000000000000000002000000000000300000000000000012780000000000000278602013121600000010000000000000BRBBDCACNPR8597
012013091812BBFI11B     010FII BB PROGRCI      MB   R$  000000042810000000004281000000000417110000000042280500000004236000000000423600000000042800000017000000000000000055000000000023254318000000000000009999123100000010000000000000BRBBFICTF006198
012013091812BBPO11      010FII BB PRGIICI           R$  000000001090400000000111150000000010904000000001099900000000110410000000011041000000001105000197000000000000024434000000000268762005000000000000009999123100000010000000000000BRBBPOCTF003110
012013091812BBRC11      010FII BB CORP CI           R$  000000000919900000000091990000000009100000000000917800000000091500000000009150000000000919800013000000000000001709000000000015686240000000000000009999123100000010000000000000BRBBRCCTF004124
012013091802BBRK3       010BR BROKERS  ON      NM   R$  000000000060500000000006100000000000599000000000060200000000006030000000000602000000000060303489000000000001623000000000000978315600000000000000009999123100000010000000000000BRBBRKACNOR4108
012013091896BBRK3F      020BR BROKERS  ON      NM   R$  000000000056900000000007000000000000569000000000061600000000007000000000000600000000000000000010000000000000000311000000000000191862000000000000009999123100000010000000000000BRBBRKACNOR4108
012013091802BBSE3       010BBSEGURIDADEON      NM   R$  000000000211200000000022010000000002103000000000217000000000021900000000002190000000000219516033000000000007528000000000016340133100000000000000009999123100000010000000000000BRBBSEACNOR5101
012013091896BBSE3F      020BBSEGURIDADEON      NM   R$  000000000211300000000022000000000002113000000000215600000000021820000000002182000000000218901056000000000000034538000000000074475100000000000000009999123100000010000000000000BRBBSEACNOR5101
012013091878BBSEJ22     070BBSE        ON      NM000R$  000000000002400000000000240000000000024000000000002400000000000240000000000040000000000008000002000000000000002000000000000000048000000000000220002013102100000010000000000000BRBBSEACNOR5101
012013091878BBSEK22     070BBSE        ON      NM000R$  000000000002900000000000300000000000029000000000002900000000000300000000000000000000000000000003000000000000001600000000000000047900000000000220002013111800000010000000000000BRBBSEACNOR5101
012013091878BBSEK23     070BBSE        ON      NM000R$  000000000002200000000000230000000000022000000000002200000000000230000000000000000000000000000002000000000001650000000000000037125000000000000230002013111800000010000000000000BRBBSEACNOR5101
012013091882BBSEW19     080BBSEE       ON      NM000R$  000000000001300000000000130000000000013000000000001300000000000130000000000000000000000000000001000000000001650000000000000021450000000000000190002013111800000010000000000000BRBBSEACNOR5101
012013091882BBSEW50     080BBSEE       ON      NM000R$  000000000004900000000000490000000000049000000000004900000000000490000000000000000000000000000001000000000001650000000000000080850000000000000205002013111800000010000000000000BRBBSEACNOR5101
012013091802BBTG11      010BTG PACTUAL UNT          R$  000000000292700000000029920000000002801000000000286700000000029440000000002943000000000294402475000000000000665700000000001908638000000000000000009999123100000010000000000000BRBBTGUNT007105
012013091896BBTG11F     020BTG PACTUAL UNT          R$  000000000290000000000029440000000002775000000000288200000000029350000000002850000000000307000014000000000000000200000000000000576501000000000000009999123100000010000000000000BRBBTGUNT007105
012013091812BBVJ11      010FII C JARDIMCI           R$  000000000780000000000078300000000007800000000000781100000000078300000000007700000000000783000006000000000000000010000000000000078119000000000000009999123100000010000000000000BRBBVJCTF001133
012013091812BCFF11B     010FII BC FFII CI  ER  MB   R$  000000000869900000000087290000000008586000000000864900000000085880000000008588000000000869900087000000000000004489000000000038828338000000000000009999123100000010000000000000BRBCFFCTF000142
012013091896BDLL4F      020BARDELLA    PN           R$  000000000560000000000056000000000005600000000000560000000000056000000000005300000000000560000002000000000000000002000000000000011200000000000000009999123100000010000000000000BRBDLLACNPR8149
012013091802BEEF3       010MINERVA     ON      NM   R$  000000000110100000000011040000000001064000000000107800000000010650000000001064000000000106502320000000000000938300000000001011784900000000000000009999123100000010000000000000BRBEEFACNOR6104
012013091896BEEF3F      020MINERVA     ON      NM   R$  000000000114700000000011470000000001070000000000107800000000010700000000001070000000000114800017000000000000000372000000000000401044000000000000009999123100000010000000000000BRBEEFACNOR6104
012013091862BEEF3T      030MINERVA     ON      NM061R$  000000000110900000000011100000000001109000000000110900000000011100000000000000000000000000000002000000000000003000000000000003329676000000000000009999123100000010000000000000BRBEEFACNOR6104
012013091802BEES3       010BANESTES    ON           R$  000000000004900000000000500000000000048000000000004800000000000480000000000048000000000004900041000000000001163800000000000057006400000000000000009999123100000010000000000000BRBEESACNOR9244
012013091802BEES4       010BANESTES    PN           R$  000000000004500000000000450000000000045000000000004500000000000450000000000044000000000004500004000000000000002000000000000000090000000000000000009999123100000010000000000000BRBEESACNPR6169
012013091810BEES9       010BANESTES    ON  REC      R$  000000000004900000000000490000000000049000000000004900000000000490000000000045000000000004900001000000000000000100000000000000004900000000000000009999123100000010000000000000BRBEESR03OR0241
012013091802BEMA3       010BEMATECH    ON      NM   R$  000000000079000000000007920000000000780000000000078800000000007880000000000785000000000078800172000000000000112900000000000088971500000000000000009999123100000010000000000000BRBEMAACNOR0114
012013091896BEMA3F      020BEMATECH    ON      NM   R$  000000000079100000000007950000000000791000000000079200000000007950000000000795000000000084800003000000000000000037000000000000029315000000000000009999123100000010000000000000BRBEMAACNOR0114
012013091802BGIP4       010BANESE      PN           R$  000000000475000000000047880000000004750000000000475700000000047880000000004750000000000478800004000000000000002100000000000009989900000000000000009999123100000010000000000000BRBGIPACNPR8179
012013091896BGIP4F      020BANESE      PN           R$  000000000475000000000047500000000004750000000000475000000000047500000000004700000000000475000003000000000000000048000000000000228000000000000000009999123100000010000000000000BRBGIPACNPR8179
012013091802BHGR3       010BHG         ON      NM   R$  000000000143500000000014470000000001426000000000143800000000014470000000001431000000000144700127000000000000065900000000000094794900000000000000009999123100000010000000000000BRBHGRACNOR9101
012013091802BICB4       010BICBANCO    PN      N1   R$  000000000043800000000004380000000000423000000000043300000000004370000000000435000000000043700176000000000000129900000000000056324500000000000000009999123100000010000000000000BRBICBACNPR7131
012013091896BICB4F      020BICBANCO    PN      N1   R$  000000000043600000000004360000000000436000000000043600000000004360000000000433000000000043600004000000000000000009000000000000003924000000000000009999123100000010000000000000BRBICBACNPR7131
012013091862BICB4T      030BICBANCO    PN      N1030R$  000000000043900000000004400000000000439000000000043900000000004400000000000000000000000000000002000000000000010000000000000004393572000000000000009999123100000010000000000000BRBICBACNPR7131
012013091862BICB4T      030BICBANCO    PN      N1180R$  000000000045700000000004580000000000457000000000045700000000004580000000000000000000000000000002000000000000035000000000000016004688000000000000009999123100000010000000000000BRBICBACNPR7131
012013091802BIOM3       010BIOMM       ON           R$  000000000095000000000009500000000000950000000000095000000000009500000000000902000000000095000007000000000000198000000000000188100000000000000000009999123100000010000000000000BRBIOMACNOR2101
012013091896BIOM3F      020BIOMM       ON           R$  000000000088100000000008900000000000881000000000088600000000008900000000000900000000000093500004000000000000000286000000000000253586000000000000009999123100000010000000000000BRBIOMACNOR2101
012013091802BISA3       010BROOKFIELD  ON      NM   R$  000000000017700000000001790000000000172000000000017500000000001780000000000177000000000017805822000000000025174400000000004423411400000000000000009999123100000010000000000000BRBISAACNOR8109
012013091896BISA3F      020BROOKFIELD  ON      NM   R$  000000000017600000000001800000000000171000000000017500000000001750000000000175000000000017900021000000000000000744000000000000130529000000000000009999123100000010000000000000BRBISAACNOR8109
012013091862BISA3T      030BROOKFIELD  ON      NM016R$  000000000017600000000001770000000000176000000000017600000000001770000000000000000000000000000002000000000000005800000000000001025087000000000000009999123100000010000000000000BRBISAACNOR8109
012013091862BISA3T      030BROOKFIELD  ON      NM030R$  000000000017800000000001800000000000176000000000017700000000001800000000000000000000000000000016000000000000167000000000000029683251000000000000009999123100000010000000000000BRBISAACNOR8109
012013091862BISA3T      030BROOKFIELD  ON      NM032R$  000000000017800000000001790000000000178000000000017800000000001790000000000000000000000000000002000000000000005000000000000000891372000000000000009999123100000010000000000000BRBISAACNOR8109
012013091862BISA3T      030BROOKFIELD  ON      NM036R$  000000000017800000000001790000000000178000000000017800000000001790000000000000000000000000000002000000000000001000000000000000178611000000000000009999123100000010000000000000BRBISAACNOR8109
012013091862BISA3T      030BROOKFIELD  ON      NM061R$  000000000017700000000001780000000000177000000000017700000000001780000000000000000000000000000002000000000000045700000000000008106266000000000000009999123100000010000000000000BRBISAACNOR8109
012013091862BISA3T      030BROOKFIELD  ON      NM090R$  000000000017900000000001800000000000179000000000017900000000001800000000000000000000000000000002000000000000149300000000000026818102000000000000009999123100000010000000000000BRBISAACNOR8109
012013091862BISA3T      030BROOKFIELD  ON      NM120R$  000000000018100000000001820000000000181000000000018100000000001820000000000000000000000000000002000000000000050000000000000009056960000000000000009999123100000010000000000000BRBISAACNOR8109
012013091802BMEB4       010MERC BRASIL PN           R$  000000000109600000000011000000000001096000000000109900000000011000000000001095000000000111500003000000000000021300000000000023427600000000000000009999123100000010000000000000BRBMEBACNPR5191
012013091896BMEB4F      020MERC BRASIL PN           R$  000000000114800000000011480000000001148000000000114800000000011480000000001075000000000113000001000000000000000010000000000000011480000000000000009999123100000010000000000000BRBMEBACNPR5191
012013091802BMIN4       010MERC INVEST PN           R$  000000000002400000000000240000000000024000000000002400000000000240000000000023000000000002400004000000000000026000000000000000624000000000000000009999123100000010000000000000BRBMINACNPR1160
012013091802BMTO4       010BRASMOTOR   PN           R$  000000000008700000000000870000000000086000000000008600000000000870000000000085000000000008700004000000000000014000000000000001206000000000000000009999123100000010000000000000BRBMTOACNPR6065
012013091896BMTO4F      020BRASMOTOR   PN           R$  000000000008400000000000840000000000084000000000008400000000000840000000000084000000000008600001000000000000000011000000000000000924000000000000009999123100000010000000000000BRBMTOACNPR6065
012013091896BNBR3F      020NORD BRASIL ON           R$  000000000300000000000030000000000003000000000000300000000000030000000000002008000000000300000003000000000000000010000000000000030000000000000000009999123100000010000000000000BRBNBRACNOR8187
012013091812BNFS11      010FII BANRISULCI           R$  000000000999500000000099950000000009995000000000999500000000099950000000009702000000000999500001000000000000000001000000000000009995000000000000009999123100000010000000000000BRBNFSCTF000112
012013091802BOAC34      010BANK AMERICADRN          R$  000000000324500000000032450000000003245000000000324500000000032450000000003240000000000325500001000000000000010000000000000032450000000000000000009999123100000010000000000000BRBOACBDR004112
012013091896BOBR4F      020BOMBRIL     PN           R$  000000000065000000000006500000000000650000000000065000000000006500000000000000000000000065800001000000000000000020000000000000013000000000000000009999123100000010000000000000BRBOBRACNPR3127
012013091814BOVA11      010ISHARES BOVACI           R$  000000000530000000000054660000000005283000000000536400000000054660000000005430000000000546609433000000000002161960000000011596861220000000000000009999123100000010000000000000BRBOVACTF003101
012013091896BOVA11F     020ISHARES BOVACI           R$  000000000532400000000054480000000005279000000000535400000000054480000000005412000000000558400014000000000000000044000000000000235615000000000000009999123100000010000000000000BRBOVACTF003101
012013091812BPFF11      010FII ABSOLUTOCI           R$  000000000835000000000084000000000008350000000000836000000000084000000000008350000000000840000010000000000000000623000000000005208750000000000000009999123100000010000000000000BRBPFFCTF002105
012013091802BPHA3       010BR PHARMA   ON      NM   R$  000000000083600000000008380000000000808000000000081600000000008180000000000818000000000082101390000000000000927500000000000756981200000000000000009999123100000010000000000000BRBPHAACNOR6102
012013091896BPHA3F      020BR PHARMA   ON      NM   R$  000000000085400000000008540000000000813000000000083500000000008130000000000805000000000083900003000000000000000035000000000000029236000000000000009999123100000010000000000000BRBPHAACNOR6102
012013091862BPHA3T      030BR PHARMA   ON      NM030R$  000000000082300000000008240000000000823000000000082300000000008240000000000000000000000000000002000000000000010000000000000008238896000000000000009999123100000010000000000000BRBPHAACNOR6102
012013091802BPNM4       010PANAMERICANOPN      N1   R$  000000000050600000000005330000000000505000000000052900000000005290000000000527000000000052900351000000000001607700000000000850741100000000000000009999123100000010000000000000BRBPNMACNPR6111
012013091896BPNM4F      020PANAMERICANOPN      N1   R$  000000000051100000000005110000000000511000000000051100000000005110000000000511000000000054800001000000000000000050000000000000025550000000000000009999123100000010000000000000BRBPNMACNPR6111
012013091802BRAP3       010BRADESPAR   ON      N1   R$  000000000206400000000021400000000002064000000000211100000000021400000000002105000000000214000070000000000000017700000000000037379300000000000000009999123100000010000000000000BRBRAPACNOR5124
012013091896BRAP3F      020BRADESPAR   ON      N1   R$  000000000206400000000021420000000002064000000000209500000000021420000000002120000000000214200010000000000000000158000000000000331056000000000000009999123100000010000000000000BRBRAPACNOR5124
012013091802BRAP4       010BRADESPAR   PN      N1   R$  000000000257000000000026010000000002544000000000258200000000026010000000002600000000000260104732000000000001193800000000003083539600000000000000009999123100000010000000000000BRBRAPACNPR2124
012013091896BRAP4F      020BRADESPAR   PN      N1   R$  000000000257000000000026500000000002560000000000258000000000026500000000002575000000000265000029000000000000000816000000000002105319000000000000009999123100000010000000000000BRBRAPACNPR2124
012013091862BRAP4T      030BRADESPAR   PN      N1016R$  000000000258600000000025870000000002586000000000258600000000025870000000000000000000000000000002000000000000005000000000000012930362000000000000009999123100000010000000000000BRBRAPACNPR2124
012013091862BRAP4T      030BRADESPAR   PN      N1061R$  000000000262400000000026250000000002624000000000262400000000026250000000000000000000000000000002000000000000001000000000000002624210000000000000009999123100000010000000000000BRBRAPACNPR2124
012013091878BRAPJ25     070BRAP        PN      N1000R$  000000000013100000000001310000000000131000000000013100000000001310000000000000000000000000000002000000000000002800000000000000366800000000000250002013102100000010000000000000BRBRAPACNPR2124
012013091878BRAPJ27     070BRAP        PN      N1000R$  000000000003500000000000400000000000033000000000003400000000000400000000000000000000000010000008000000000000007000000000000000240800000000000270002013102100000010000000000000BRBRAPACNPR2124
012013091878BRAPJ29     070BRAP        PN      N1000R$  000000000001000000000000100000000000010000000000001000000000000100000000000000000000000000000002000000000000002800000000000000028000000000000290002013102100000010000000000000BRBRAPACNPR2124
012013091878BRAPK28     070BRAP        PN      N1000R$  000000000004800000000000480000000000048000000000004800000000000480000000000000000000000000000001000000000000000100000000000000004800000000000280002013111800000010000000000000BRBRAPACNPR2124
012013091878BRAPK29     070BRAP        PN      N1000R$  000000000003000000000000300000000000030000000000003000000000000300000000000000000000000000000002000000000000000200000000000000006000000000000290002013111800000010000000000000BRBRAPACNPR2124
012013091814BRAX11      010ISHARES BRAXCI           R$  000000000428800000000042880000000004288000000000428800000000042880000000004200000000000000000001000000000000000010000000000000042880000000000000009999123100000010000000000000BRBRAXCTF002100
012013091812BRCR11      010FII BC FUND CI  ER       R$  000000001269000000000127990000000012570000000001266500000000126750000000012671000000001267500413000000000000052555000000000665649759000000000000009999123100000010000000000000BRBRCRCTF000133
012013091802BRFS3       010BRF SA      ON      NM   R$  000000000568900000000057910000000005645000000000573900000000057420000000005742000000000574509358000000000002101700000000012062430500000000000000009999123100000010000000000000BRBRFSACNOR8110
012013091896BRFS3F      020BRF SA      ON      NM   R$  000000000566200000000057850000000005650000000000573200000000056600000000005660000000000575000108000000000000003609000000000020691460000000000000009999123100000010000000000000BRBRFSACNOR8110
012013091862BRFS3T      030BRF SA      ON      NM016R$  000000000576300000000057640000000005763000000000576300000000057640000000000000000000000000000002000000000000001000000000000005763879000000000000009999123100000010000000000000BRBRFSACNOR8110
012013091862BRFS3T      030BRF SA      ON      NM030R$  000000000577000000000058010000000005770000000000577500000000057910000000000000000000000000000008000000000000001300000000000007508359000000000000009999123100000010000000000000BRBRFSACNOR8110
012013091802BRIN3       010BR INSURANCEON      NM   R$  000000000199500000000020400000000001971000000000200000000000020400000000002040000000000204201338000000000001445700000000002891926500000000000000009999123100000010000000000000BRBRINACNOR3106
012013091896BRIN3F      020BR INSURANCEON      NM   R$  000000000204800000000020780000000001986000000000200800000000020780000000001986000000000207800026000000000000000690000000000001385543000000000000009999123100000010000000000000BRBRINACNOR3106
012013091862BRIN3T      030BR INSURANCEON      NM030R$  000000000200900000000020130000000002009000000000201000000000020130000000000000000000000000000004000000000000001400000000000002814218000000000000009999123100000010000000000000BRBRINACNOR3106
012013091878BRINE50     070BRINE       ON      NM000R$  000000000016500000000001650000000000165000000000016500000000001650000000000000000000000000000002000000000000116000000000000019140000000000000202502014051900000010000000000000BRBRINACNOR3106
012013091896BRIV3F      020ALFA INVEST ON           R$  000000000069900000000006990000000000699000000000069900000000006990000000000610000000000070000001000000000000000010000000000000006990000000000000009999123100000010000000000000BRBRIVACNOR6197
012013091896BRIV4F      020ALFA INVEST PN           R$  000000000060400000000006040000000000604000000000060400000000006040000000000541000000000060400001000000000000000010000000000000006040000000000000009999123100000010000000000000BRBRIVACNPR3197
012013091802BRKM3       010BRASKEM     ON      N1   R$  000000000125500000000012550000000001225000000000123500000000012250000000001221000000000124500028000000000000057200000000000070648100000000000000009999123100000010000000000000BRBRKMACNOR1110
012013091896BRKM3F      020BRASKEM     ON      N1   R$  000000000120100000000012010000000001201000000000120100000000012010000000001200000000000124500004000000000000000100000000000000120100000000000000009999123100000010000000000000BRBRKMACNOR1110
012013091862BRKM3T      030BRASKEM     ON      N1180R$  000000000131600000000013170000000001316000000000131600000000013170000000000000000000000000000002000000000000010500000000000013821880000000000000009999123100000010000000000000BRBRKMACNOR1110
012013091802BRKM5       010BRASKEM     PNA     N1   R$  000000000184700000000018730000000001827000000000184400000000018460000000001838000000000184606521000000000001384200000000002553733900000000000000009999123100000010000000000000BRBRKMACNPA4110
012013091896BRKM5F      020BRASKEM     PNA     N1   R$  000000000185000000000018690000000001809000000000184000000000018110000000001811000000000186600044000000000000000918000000000001689987000000000000009999123100000010000000000000BRBRKMACNPA4110
012013091862BRKM5T      030BRASKEM     PNA     N1016R$  000000000185700000000018580000000001857000000000185700000000018580000000000000000000000000000002000000000000002000000000000003715910000000000000009999123100000010000000000000BRBRKMACNPA4110
012013091878BRKMK55     070BRKME       PNA     N1000R$  000000000035900000000003590000000000359000000000035900000000003590000000000000000000000000000002000000000000681000000000000244479000000000000152502013111800000010000000000000BRBRKMACNPA4110
012013091878BRKMK62     070BRKME       PNA     N1000R$  000000000001300000000000130000000000013000000000001300000000000130000000000000000000000000000002000000000000681000000000000008853000000000000222502013111800000010000000000000BRBRKMACNPA4110
012013091882BRKMW55     080BRKME       PNA     N1000R$  000000000000500000000000050000000000005000000000000500000000000050000000000000000000000000000002000000000000681000000000000003405000000000000152502013111800000010000000000000BRBRKMACNPA4110
012013091882BRKMW62     080BRKME       PNA     N1000R$  000000000034700000000003470000000000347000000000034700000000003470000000000000000000000000000002000000000000681000000000000236307000000000000222502013111800000010000000000000BRBRKMACNPA4110
012013091802BRML3       010BR MALLS PARON      NM   R$  000000000208900000000022000000000002064000000000212200000000021900000000002190000000000219109850000000000005306700000000011266714100000000000000009999123100000010000000000000BRBRMLACNOR9105
012013091896BRML3F      020BR MALLS PARON      NM   R$  000000000211500000000021940000000002069000000000211900000000021340000000002115000000000213400090000000000000003140000000000006657454000000000000009999123100000010000000000000BRBRMLACNOR9105
012013091862BRML3T      030BR MALLS PARON      NM062R$  000000000212100000000021220000000002121000000000212100000000021220000000000000000000000000000002000000000000001500000000000003181666000000000000009999123100000010000000000000BRBRMLACNOR9105
012013091878BRMLJ21     070BRML        ON      NM000R$  000000000006700000000000670000000000067000000000006700000000000670000000000000000000000000000001000000000000001000000000000000067000000000000210002013102100000010000000000000BRBRMLACNOR9105
012013091878BRMLJ22     070BRML        ON      NM000R$  000000000003500000000000350000000000035000000000003500000000000350000000000000000000000009900002000000000000002000000000000000070000000000000220002013102100000010000000000000BRBRMLACNOR9105
012013091878BRMLJ51     070BRML        ON      NM000R$  000000000004600000000000460000000000046000000000004600000000000460000000000000000000000000000003000000000000000600000000000000027600000000000215002013102100000010000000000000BRBRMLACNOR9105
012013091802BRPR3       010BR PROPERT  ON      NM   R$  000000000192400000000020100000000001919000000000195600000000020100000000001985000000000201007172000000000002995000000000005861107000000000000000009999123100000010000000000000BRBRPRACNOR9112
012013091896BRPR3F      020BR PROPERT  ON      NM   R$  000000000192000000000020000000000001920000000000195200000000019210000000001922000000000199900030000000000000000885000000000001726600000000000000009999123100000010000000000000BRBRPRACNOR9112
012013091862BRPR3T      030BR PROPERT  ON      NM030R$  000000000194300000000019570000000001943000000000195200000000019570000000000000000000000000000004000000000000001600000000000003123328000000000000009999123100000010000000000000BRBRPRACNOR9112
012013091802BRSR6       010BANRISUL    PNB     N1   R$  000000000156500000000015990000000001539000000000156300000000015950000000001585000000000159502594000000000002070200000000003235884400000000000000009999123100000010000000000000BRBRSRACNPB4134
012013091896BRSR6F      020BANRISUL    PNB     N1   R$  000000000155200000000015900000000001541000000000156000000000015900000000001550000000000159000021000000000000000561000000000000877261000000000000009999123100000010000000000000BRBRSRACNPB4134
012013091802BSEV3       010BIOSEV      ON      NM   R$  000000000089200000000008920000000000869000000000088600000000008830000000000883000000000100500010000000000000003100000000000002748800000000000000009999123100000010000000000000BRBSEVACNOR3100
012013091896BSEV3F      020BIOSEV      ON      NM   R$  000000000090000000000009050000000000900000000000090200000000009050000000000889000000000090400002000000000000000030000000000000027075000000000000009999123100000010000000000000BRBSEVACNOR3100
012013091802BTOW3       010B2W DIGITAL ON      NM   R$  000000000151000000000016130000000001503000000000154400000000016090000000001596000000000161001557000000000000377400000000000583313600000000000000009999123100000010000000000000BRBTOWACNOR8105
012013091896BTOW3F      020B2W DIGITAL ON      NM   R$  000000000150000000000016030000000001500000000000156100000000016030000000001501000000000160300023000000000000000595000000000000929078000000000000009999123100000010000000000000BRBTOWACNOR8105
012013091802BTTL4       010BATTISTELLA PN           R$  000000000009900000000001000000000000099000000000009900000000001000000000000099000000000010000003000000000000005200000000000000519800000000000000009999123100000010000000000000BRBTTLACNPR7105
012013091802BVMF3       010BMFBOVESPA  ON      NM   R$  000000000128000000000013350000000001275000000000130200000000013350000000001330000000000133525657000000000016668300000000021714142200000000000000009999123100000010000000000000BRBVMFACNOR3126
012013091896BVMF3F      020BMFBOVESPA  ON      NM   R$  000000000128000000000013300000000001278000000000129800000000013270000000001267000000000132900165000000000000005627000000000007317800000000000000009999123100000010000000000000BRBVMFACNOR3126
012013091878BVMFA13     070BVMF        ON      NM000R$  000000000008500000000000970000000000085000000000008900000000000960000000000000000000000000000020000000000000019000000000000001695600000000000130002014012000000010000000000000BRBVMFACNOR3126
012013091878BVMFB13     070BVMF        ON      NM000R$  000000000011400000000001140000000000114000000000011400000000001140000000000000000000000000000001000000000001000000000000000114000000000000000128502014021700000010000000000000BRBVMFACNOR3125
012013091878BVMFJ12     070BVMF  FM    ON      NM000R$  000000000012500000000001580000000000117000000000012900000000001580000000000105000000000000000083000000000000223400000000000029029200000000000118502013102100000010000000000000BRBVMFACNOR3125
012013091878BVMFJ13     070BVMF  FM    ON      NM000R$  000000000004500000000000800000000000045000000000005500000000000800000000000047000000000008000468000000000000731500000000000040720400000000000128502013102100000010000000000000BRBVMFACNOR3125
012013091878BVMFJ14     070BVMF  FM    ON      NM000R$  000000000001200000000000190000000000011000000000001400000000000190000000000019000000000002000168000000000000753900000000000010970100000000000138502013102100000010000000000000BRBVMFACNOR3125
012013091878BVMFJ15     070BVMF        ON      NM000R$  000000000000300000000000030000000000003000000000000300000000000030000000000000000000000000400001000000000000003000000000000000009000000000000148502013102100000010000000000000BRBVMFACNOR3125
012013091878BVMFJ16     070BVMF        ON      NM000R$  000000000000100000000000010000000000001000000000000100000000000010000000000000000000000000100001000000000000000800000000000000000800000000000160002013102100000010000000000000BRBVMFACNOR3126
012013091878BVMFJ42     070BVMF  FM    ON      NM000R$  000000000008400000000001130000000000078000000000008800000000001110000000000000000000000123500073000000000000123200000000000010923100000000000123502013102100000010000000000000BRBVMFACNOR3125
012013091878BVMFJ43     070BVMF  FM    ON      NM000R$  000000000002800000000000420000000000025000000000003400000000000420000000000037000000000004000028000000000000074800000000000002545500000000000133502013102100000010000000000000BRBVMFACNOR3125
012013091878BVMFJ44     070BVMF        ON      NM000R$  000000000000500000000000050000000000005000000000000500000000000050000000000000000000000000600001000000000000005500000000000000027500000000000145002013102100000010000000000000BRBVMFACNOR3126
012013091878BVMFK12     070BVMF  FM    ON      NM000R$  000000000013300000000001590000000000133000000000014300000000001590000000000000000000000000000019000000000000046700000000000006711700000000000118502013111800000010000000000000BRBVMFACNOR3125
012013091878BVMFK13     070BVMF  FM    ON      NM000R$  000000000006600000000000910000000000062000000000007700000000000910000000000000000000000000000096000000000000143600000000000011062400000000000128502013111800000010000000000000BRBVMFACNOR3125
012013091878BVMFK14     070BVMF  FM    ON      NM000R$  000000000002200000000000360000000000018000000000002800000000000350000000000005000000000003601156000000000001635300000000000046511700000000000138502013111800000010000000000000BRBVMFACNOR3125
012013091878BVMFK42     070BVMF  FM    ON      NM000R$  000000000008700000000001180000000000087000000000010200000000001180000000000000000000000000000006000000000000018000000000000001842500000000000125002013111800000010000000000000BRBVMFACNOR3126
012013091878BVMFK43     070BVMF  FM    ON      NM000R$  000000000003400000000000520000000000031000000000003600000000000520000000000025000000000000000029000000000000055600000000000002047500000000000135002013111800000010000000000000BRBVMFACNOR3126
012013091878BVMFL12     070BVMF        ON      NM000R$  000000000017600000000001810000000000176000000000017800000000001810000000000000000000000000000003000000000000002500000000000000447000000000000115402013121600000010000000000000BRBVMFACNOR3123
012013091878BVMFL14     070BVMF        ON      NM000R$  000000000005000000000000500000000000050000000000005000000000000500000000000015000000000000000001000000000000000500000000000000025000000000000137402013121600000010000000000000BRBVMFACNOR3124
012013091878BVMFL43     070BVMF        ON      NM000R$  000000000006100000000000610000000000061000000000006100000000000610000000000000000000000000000001000000000000001000000000000000061000000000000131902013121600000010000000000000BRBVMFACNOR3126
012013091882BVMFV11     080BVMFE       ON      NM000R$  000000000000400000000000040000000000004000000000000400000000000040000000000001000000000001100015000000000000024500000000000000098000000000000108502013102100000010000000000000BRBVMFACNOR3125
012013091882BVMFV12     080BVMFE FM    ON      NM000R$  000000000001700000000000170000000000008000000000001000000000000080000000000001000000000001000054000000000000165600000000000001765300000000000118502013102100000010000000000000BRBVMFACNOR3125
012013091882BVMFV13     080BVMFE FM    ON      NM000R$  000000000003900000000000430000000000024000000000003500000000000240000000000023000000000003600079000000000000050900000000000001828300000000000128502013102100000010000000000000BRBVMFACNOR3125
012013091882BVMFV14     080BVMFE       ON      NM000R$  000000000009500000000000950000000000095000000000009500000000000950000000000000000000000019700001000000000000000500000000000000047500000000000138502013102100000010000000000000BRBVMFACNOR3125
012013091882BVMFV41     080BVMFE FM    ON      NM000R$  000000000000700000000000080000000000005000000000000700000000000050000000000000000000000000600013000000000000040000000000000000292500000000000113502013102100000010000000000000BRBVMFACNOR3125
012013091882BVMFV42     080BVMFE FM    ON      NM000R$  000000000002300000000000270000000000014000000000001900000000000160000000000000000000000002400045000000000000136000000000000002590500000000000123502013102100000010000000000000BRBVMFACNOR3125
012013091882BVMFV43     080BVMFE       ON      NM000R$  000000000004700000000000470000000000042000000000004500000000000420000000000000000000000000000006000000000000011200000000000000507400000000000133502013102100000010000000000000BRBVMFACNOR3125
012013091882BVMFW12     080BVMFE FM    ON      NM000R$  000000000002100000000000210000000000021000000000002100000000000210000000000000000000000000000001000000000000002100000000000000044100000000000118502013111800000010000000000000BRBVMFACNOR3125
012013091882BVMFW13     080BVMFE FM    ON      NM000R$  000000000004900000000000500000000000037000000000004600000000000370000000000000000000000000000007000000000000021600000000000001000800000000000128502013111800000010000000000000BRBVMFACNOR3125
012013091882BVMFW42     080BVMFE FM    ON      NM000R$  000000000003600000000000410000000000036000000000003600000000000410000000000000000000000004200002000000000000003600000000000000130100000000000125002013111800000010000000000000BRBVMFACNOR3126
012013091882BVMFX13     080BVMFE       ON      NM000R$  000000000005500000000000550000000000055000000000005500000000000550000000000000000000000000000001000000000000002300000000000000126500000000000128502013121600000010000000000000BRBVMFACNOR3125
012013091896CALI4F      020CONST A LINDPN           R$  000000002000100000000249950000000020001000000002124900000000249950000000019990000000002499500004000000000000000004000000000000084998000000000000009999123100000010000000000000BRCALIACNPR8131
012013091802CAMB4       010CAMBUCI     PN           R$  000000000018600000000001970000000000185000000000019400000000001870000000000186000000000019600007000000000000001400000000000000272000000000000000009999123100000010000000000000BRCAMBACNPR1117
012013091802CARD3       010CSU CARDSYSTON      NM   R$  000000000032300000000003230000000000313000000000031800000000003230000000000316000000000032400015000000000000010900000000000003468600000000000000009999123100000010000000000000BRCARDACNOR9105
012013091896CARD3F      020CSU CARDSYSTON      NM   R$  000000000030400000000003040000000000304000000000030400000000003040000000000308000000000032300001000000000000000006000000000000001824000000000000009999123100000010000000000000BRCARDACNOR9105
012013091802CBEE3       010AMPLA ENERG ON *         R$  000000000013000000000001300000000000130000000000013000000000001300000000000126000000000013000001000000000001000000000000000000130000000000000000009999123100010000000000000000BRCBEEACNOR3149
012013091896CBMA4F      020COBRASMA    PN           R$  000000000000400000000000040000000000004000000000000400000000000040000000000003000000000000400001000000000000000001000000000000000004000000000000009999123100000010000000000000BRCBMAACNPR1124
012013091808CCHI3       010CHIARELLI   ON           R$  000000000001800000000000180000000000017000000000001700000000000170000000000016000000000001800083000000000001190000000000000020360000000000000000009999123100000010000000000000BRCCHIACNOR5123
012013091896CCHI3F      020CHIARELLI   ON           R$  000000000001900000000000190000000000017000000000001700000000000170000000000016000000000001800008000000000000021300000000000000378400000000000000009999123100000010000000000000BRCCHIACNOR5123
012013091808CCHI4       010CHIARELLI   PN           R$  000000000001300000000000130000000000012000000000001200000000000130000000000012000000000001400011000000000000180000000000000002280000000000000000009999123100000010000000000000BRCCHIACNPR2122
012013091802CCPR3       010CYRE COM-CCPON      NM   R$  000000000210000000000021340000000002100000000000212500000000021340000000002107000000000213500003000000000000000400000000000000850200000000000000009999123100000010000000000000BRCCPRACNOR9107
012013091802CCRO3       010CCR SA      ON      NM   R$  000000000179300000000018900000000001772000000000181300000000018700000000001870000000000187116556000000000007425400000000013474312900000000000000009999123100000010000000000000BRCCROACNOR2122
012013091896CCRO3F      020CCR SA      ON      NM   R$  000000000179300000000018740000000001772000000000182900000000018600000000001860000000000186500086000000000000002210000000000004043919000000000000009999123100000010000000000000BRCCROACNOR2122
012013091862CCRO3T      030CCR SA      ON      NM016R$  000000000187700000000018780000000001877000000000187700000000018780000000000000000000000000000002000000000000003000000000000005633562000000000000009999123100000010000000000000BRCCROACNOR2122
012013091862CCRO3T      030CCR SA      ON      NM030R$  000000000181300000000018220000000001813000000000181300000000018220000000000000000000000000000006000000000000011600000000000021039131000000000000009999123100000010000000000000BRCCROACNOR2122
012013091878CCROJ48     070CCRO        ON      NM000R$  000000000001200000000000120000000000011000000000001100000000000110000000000014000000000020000002000000000000007000000000000000077100000000000185002013102100000010000000000000BRCCROACNOR2122
012013091878CCROK48     070CCRO        ON      NM000R$  000000000005400000000000540000000000054000000000005400000000000540000000000000000000000000000001000000000000231600000000000012506400000000000185002013111800000010000000000000BRCCROACNOR2122
012013091802CCXC3       010CCX CARVAO  ON      NM   R$  000000000016100000000001650000000000147000000000015400000000001490000000000149000000000015004151000000000007915000000000001225899600000000000000009999123100000010000000000000BRCCXCACNOR5100
012013091896CCXC3F      020CCX CARVAO  ON      NM   R$  000000000015700000000001570000000000151000000000015400000000001510000000000152000000000016400008000000000000000250000000000000038616000000000000009999123100000010000000000000BRCCXCACNOR5100
012013091862CCXC3T      030CCX CARVAO  ON      NM016R$  000000000015100000000001520000000000151000000000015100000000001520000000000000000000000000000002000000000000010000000000000001516795000000000000009999123100000010000000000000BRCCXCACNOR5100
012013091802CEBR6       010CEB         PNB          R$  000000000160000000000016000000000001600000000000160000000000016000000000001600000000000174000003000000000000000600000000000000960000000000000000009999123100000010000000000000BRCEBRACNPB6113
012013091808CELP3       010CELPA       ON           R$  000000000007300000000000740000000000070000000000007300000000000740000000000056000000000007400005000000000000005700000000000000418100000000000000009999123100000010000000000000BRCELPACNOR8112
012013091812CEOC11B     010FII CEO CCP CI  ER  MB   R$  000000000845900000000084600000000008351000000000840800000000084600000000008400000000000846000023000000000000000912000000000007668592000000000000009999123100000010000000000000BRCEOCCTF003110
012013091802CESP3       010CESP        ON      N1   R$  000000000174000000000017600000000001740000000000174900000000017600000000001736000000000176000010000000000000020300000000000035519000000000000000009999123100000010000000000000BRCESPACNOR3160
012013091862CESP3T      030CESP        ON      N1082R$  000000000178700000000017880000000001787000000000178700000000017880000000000000000000000000000002000000000000010000000000000017878000000000000000009999123100000010000000000000BRCESPACNOR3160
012013091802CESP5       010CESP        PNA     N1   R$  000000000235500000000024000000000002350000000000235000000000023500000000002218000000000240000016000000000000029000000000000068162000000000000000009999123100000010000000000000BRCESPACNPA6108
012013091802CESP6       010CESP        PNB     N1   R$  000000000235500000000024210000000002333000000000237100000000023650000000002364000000000236505471000000000001439000000000003412342400000000000000009999123100000010000000000000BRCESPACNPB4119
012013091896CESP6F      020CESP        PNB     N1   R$  000000000237100000000024200000000002363000000000239600000000023630000000002366000000000244500020000000000000000380000000000000910646000000000000009999123100000010000000000000BRCESPACNPB4119
012013091862CESP6T      030CESP        PNB     N1026R$  000000000241200000000024130000000002412000000000241200000000024130000000000000000000000000000002000000000000008000000000000019302562000000000000009999123100000010000000000000BRCESPACNPB4119
012013091802CGAS5       010COMGAS      PNA          R$  000000000587800000000059190000000005878000000000590000000000059170000000005900000000000591800127000000000000080900000000000477387000000000000000009999123100000010000000000000BRCGASACNPA3129
012013091896CGAS5F      020COMGAS      PNA          R$  000000000581000000000059280000000005810000000000586500000000059280000000005890000000000592800002000000000000000038000000000000222904000000000000009999123100000010000000000000BRCGASACNPA3129
012013091802CGRA3       010GRAZZIOTIN  ON           R$  000000000160100000000016900000000001601000000000160900000000016120000000001612000000000170000005000000000000001300000000000002092300000000000000009999123100000010000000000000BRCGRAACNOR2061
012013091802CGRA4       010GRAZZIOTIN  PN           R$  000000000178300000000017830000000001771000000000177900000000017820000000001726000000000178200014000000000000003600000000000006406300000000000000009999123100000010000000000000BRCGRAACNPR9061
012013091896CGRA4F      020GRAZZIOTIN  PN           R$  000000000177000000000017700000000001737000000000175800000000017370000000001737000000000178300002000000000000000040000000000000070338000000000000009999123100000010000000000000BRCGRAACNPR9061
012013091802CIEL3       010CIELO       ON  EDJ NM   R$  000000000579900000000058700000000005799000000000583800000000058600000000005852000000000586205620000000000003293300000000019227777000000000000000009999123100000010000000000000BRCIELACNOR3112
012013091896CIEL3F      020CIELO       ON  EDJ NM   R$  000000000581600000000058770000000005801000000000583000000000058530000000005853000000000587900164000000000000004732000000000027592308000000000000009999123100000010000000000000BRCIELACNOR3112
012013091862CIEL3T      030CIELO       ON  EDJ NM016R$  000000000584600000000058470000000005846000000000584600000000058470000000000000000000000000000006000000000000011200000000000065480267000000000000009999123100000010000000000000BRCIELACNOR3112
012013091862CIEL3T      030CIELO       ON  EDJ NM030R$  000000000586400000000059100000000005861000000000589000000000059100000000000000000000000000000022000000000001201200000000007076074670000000000000009999123100000010000000000000BRCIELACNOR3112
012013091862CIEL3T      030CIELO       ON  EDJ NM090R$  000000000595400000000059570000000005936000000000595400000000059380000000000000000000000000000030000000000000800000000000004763657539000000000000009999123100000010000000000000BRCIELACNOR3112
012013091878CIELJ60     070CIEL    /EDJON      NM000R$  000000000008000000000000800000000000080000000000008000000000000800000000000000000000000000000001000000000000001000000000000000080000000000000589402013102100000010000000000000BRCIELACNOR3111
012013091802CLSC4       010CELESC      PN      N2   R$  000000000177900000000018500000000001775000000000179000000000017900000000001780000000000179000085000000000000030400000000000054433600000000000000009999123100000010000000000000BRCLSCACNPR3107
012013091896CLSC4F      020CELESC      PN      N2   R$  000000000176500000000017850000000001750000000000177800000000017850000000001785000000000178900006000000000000000108000000000000192030000000000000009999123100000010000000000000BRCLSCACNPR3107
012013091802CMIG3       010CEMIG       ON      N1   R$  000000000188000000000018800000000001826000000000184300000000018400000000001840000000000184500441000000000000220500000000000406439800000000000000009999123100000010000000000000BRCMIGACNOR6208
012013091896CMIG3F      020CEMIG       ON      N1   R$  000000000189000000000018900000000001826000000000185100000000018430000000001843000000000191500044000000000000001194000000000002210941000000000000009999123100000010000000000000BRCMIGACNOR6208
012013091802CMIG4       010CEMIG       PN      N1   R$  000000000180100000000018620000000001790000000000182900000000018450000000001845000000000185320746000000000008171500000000014949683600000000000000009999123100000010000000000000BRCMIGACNPR3208
012013091896CMIG4F      020CEMIG       PN      N1   R$  000000000187000000000018700000000001797000000000183400000000018450000000001845000000000186500346000000000000008958000000000016431552000000000000009999123100000010000000000000BRCMIGACNPR3208
012013091862CMIG4T      030CEMIG       PN      N1016R$  000000000180700000000018320000000001807000000000182700000000018320000000000000000000000000000004000000000000006000000000000010967105000000000000009999123100000010000000000000BRCMIGACNPR3208
012013091862CMIG4T      030CEMIG       PN      N1029R$  000000000183900000000018400000000001839000000000183900000000018400000000000000000000000000000002000000000000028600000000000052612560000000000000009999123100000010000000000000BRCMIGACNPR3208
012013091862CMIG4T      030CEMIG       PN      N1030R$  000000000183600000000018690000000001812000000000185800000000018660000000000000000000000000000040000000000000035300000000000065622287000000000000009999123100000010000000000000BRCMIGACNPR3208
012013091862CMIG4T      030CEMIG       PN      N1061R$  000000000184400000000018450000000001844000000000184400000000018450000000000000000000000000000002000000000000001000000000000001844752000000000000009999123100000010000000000000BRCMIGACNPR3208
012013091862CMIG4T      030CEMIG       PN      N1090R$  000000000185700000000018710000000001857000000000185800000000018710000000000000000000000000000004000000000000001100000000000002044686000000000000009999123100000010000000000000BRCMIGACNPR3208
012013091862CMIG4T      030CEMIG       PN      N1362R$  000000000201600000000020170000000002016000000000201600000000020170000000000000000000000000000002000000000000004000000000000008066968000000000000009999123100000010000000000000BRCMIGACNPR3208
012013091878CMIGJ18     070CMIG        PN      N1000R$  000000000009400000000000940000000000094000000000009400000000000940000000000000000000000000000002000000000000000300000000000000028200000000000180002013102100000010000000000000BRCMIGACNPR3208
012013091878CMIGJ19     070CMIG        PN      N1000R$  000000000003000000000000500000000000030000000000003400000000000500000000000035000000000005000027000000000000005400000000000000188500000000000190002013102100000010000000000000BRCMIGACNPR3208
012013091812CNES11B     010FII CENESP  CI      MB   R$  000000001239700000000124940000000012397000000001248300000000124940000000012300000000001249400005000000000000000127000000000001585358000000000000009999123100000010000000000000BRCNESCTF001125
012013091802COCE3       010COELCE      ON           R$  000000000404000000000041970000000003980000000000413200000000041970000000004040000000000428000016000000000000002700000000000011158400000000000000009999123100000010000000000000BRCOCEACNOR0132
012013091802COCE5       010COELCE      PNA          R$  000000000394200000000040000000000003922000000000395500000000040000000000004000000000000400700229000000000000098900000000000391241900000000000000009999123100000010000000000000BRCOCEACNPA3133
012013091896COCE5F      020COELCE      PNA          R$  000000000393900000000041950000000003927000000000400700000000039400000000003952000000000419900022000000000000000302000000000001210187000000000000009999123100000010000000000000BRCOCEACNPA3133
012013091802CPFE3       010CPFL ENERGIAON      NM   R$  000000000196900000000019930000000001942000000000196800000000019930000000001979000000000199304465000000000000986700000000001942727300000000000000009999123100000010000000000000BRCPFEACNOR0122
012013091896CPFE3F      020CPFL ENERGIAON      NM   R$  000000000198000000000019890000000001906000000000195200000000019570000000001957000000000198900034000000000000000947000000000001851091000000000000009999123100000010000000000000BRCPFEACNOR0122
012013091802CPLE3       010COPEL       ON      N1   R$  000000000218000000000021890000000002138000000000215900000000021600000000002160000000000218000200000000000000103600000000000223755700000000000000009999123100000010000000000000BRCPLEACNOR8128
012013091896CPLE3F      020COPEL       ON      N1   R$  000000000207200000000022100000000002071000000000214500000000022100000000002130000000000221000004000000000000000078000000000000167343000000000000009999123100000010000000000000BRCPLEACNOR8128
012013091802CPLE6       010COPEL       PNB     N1   R$  000000000310200000000031150000000003057000000000308400000000031000000000003097000000000310703158000000000000498100000000001536560600000000000000009999123100000010000000000000BRCPLEACNPB9125
012013091896CPLE6F      020COPEL       PNB     N1   R$  000000000309300000000031930000000003063000000000309000000000030930000000003092000000000319000017000000000000000511000000000001579697000000000000009999123100000010000000000000BRCPLEACNPB9125
012013091802CPRE3       010CPFL RENOVAVON      NM   R$  000000000121800000000012360000000001217000000000122000000000012360000000001205000000000123700016000000000000012000000000000014647600000000000000009999123100000010000000000000BRCPREACNOR5100
012013091896CPRE3F      020CPFL RENOVAVON      NM   R$  000000000120000000000012300000000001200000000000121600000000012200000000001108000000000122000006000000000000000130000000000000158200000000000000009999123100000010000000000000BRCPREACNOR5100
012013091802CRDE3       010CR2         ON      NM   R$  000000000041100000000004250000000000411000000000041700000000004250000000000416000000000042500007000000000000000700000000000000292200000000000000009999123100000010000000000000BRCRDEACNOR1108
012013091896CRDE3F      020CR2         ON      NM   R$  000000000042000000000004200000000000420000000000042000000000004200000000000410000000000042000002000000000000000099000000000000041580000000000000009999123100000010000000000000BRCRDEACNOR1108
012013091802CREM3       010CREMER      ON      NM   R$  000000000147000000000014740000000001425000000000145700000000014250000000001425000000000147400011000000000000070400000000000102589300000000000000009999123100000010000000000000BRCREMACNOR2167
012013091802CRIV4       010ALFA FINANC PN           R$  000000000044000000000004480000000000440000000000044400000000004480000000000441000000000044800006000000000000003700000000000001644800000000000000009999123100000010000000000000BRCRIVACNPR1190
012013091896CRIV4F      020ALFA FINANC PN           R$  000000000045000000000004500000000000450000000000045000000000004500000000000435000000000045000001000000000000000004000000000000001800000000000000009999123100000010000000000000BRCRIVACNPR1190
012013091802CRUZ3       010SOUZA CRUZ  ON           R$  000000000272700000000027990000000002717000000000275800000000027990000000002785000000000279904999000000000001229800000000003392571400000000000000009999123100000010000000000000BRCRUZACNOR0246
012013091896CRUZ3F      020SOUZA CRUZ  ON           R$  000000000273800000000027800000000002731000000000275600000000027800000000002736000000000279000053000000000000001647000000000004540381000000000000009999123100000010000000000000BRCRUZACNOR0246
012013091862CRUZ3T      030SOUZA CRUZ  ON        047R$  000000000279800000000027990000000002798000000000279800000000027990000000000000000000000000000002000000000000000500000000000001399453000000000000009999123100000010000000000000BRCRUZACNOR0246
012013091878CRUZJ28     070CRUZ        ON        000R$  000000000007600000000000760000000000076000000000007600000000000760000000000000000000000000000001000000000000000200000000000000015200000000000280002013102100000010000000000000BRCRUZACNOR0246
012013091802CSAB4       010SEG AL BAHIAPN           R$  000000000300000000000030000000000003000000000000300000000000030000000000003000000000000000000001000000000000000200000000000000600000000000000000009999123100000010000000000000BRCSABACNPR8051
012013091802CSAN3       010COSAN       ON      NM   R$  000000000429900000000043380000000004232000000000427900000000043380000000004331000000000433804437000000000001520900000000006508555500000000000000009999123100000010000000000000BRCSANACNOR6108
012013091896CSAN3F      020COSAN       ON      NM   R$  000000000429300000000043250000000004228000000000427200000000043250000000004230000000000433000021000000000000000501000000000002140858000000000000009999123100000010000000000000BRCSANACNOR6108
012013091878CSANJ13     070CSAN        ON      NM000R$  000000000017000000000001700000000000170000000000017000000000001700000000000000000000000000000002000000000000012200000000000002074000000000000530002014102000000010000000000000BRCSANACNOR6108
012013091882CSANV12     080CSANE       ON      NM000R$  000000000027000000000002700000000000270000000000027000000000002700000000000000000000000000000002000000000000012200000000000003294000000000000420002014102000000010000000000000BRCSANACNOR6108
012013091882CSANV8      080CSANE       ON      NM000R$  000000000010000000000001000000000000100000000000010000000000001000000000000000000000000000000001000000000000012200000000000001220000000000000380002014102000000010000000000000BRCSANACNOR6108
012013091802CSMG3       010COPASA      ON      NM   R$  000000000337600000000034380000000003371000000000341200000000034020000000003402000000000340901047000000000000172100000000000587217000000000000000009999123100000010000000000000BRCSMGACNOR5127
012013091896CSMG3F      020COPASA      ON      NM   R$  000000000341000000000034940000000003362000000000342800000000034200000000003303000000000341400017000000000000000477000000000001635295000000000000009999123100000010000000000000BRCSMGACNOR5127
012013091814CSMO11      010ISHARES CSMOCI           R$  000000000481500000000048910000000004810000000000483000000000048910000000004837000000000610000007000000000000001420000000000006859740000000000000009999123100000010000000000000BRCSMOCTF002100
012013091802CSNA3       010SID NACIONALON           R$  000000000093200000000009570000000000932000000000094400000000009450000000000944000000000094617232000000000007895600000000007457410500000000000000009999123100000010000000000000BRCSNAACNOR6243
012013091896CSNA3F      020SID NACIONALON           R$  000000000093500000000009550000000000933000000000094200000000009470000000000945000000000094700056000000000000002009000000000001893643000000000000009999123100000010000000000000BRCSNAACNOR6243
012013091862CSNA3T      030SID NACIONALON        090R$  000000000096500000000009660000000000965000000000096500000000009660000000000000000000000000000002000000000000002000000000000001931543000000000000009999123100000010000000000000BRCSNAACNOR6243
012013091862CSNA3T      030SID NACIONALON        120R$  000000000096700000000009720000000000967000000000097000000000009720000000000000000000000000000004000000000000004000000000000003881540000000000000009999123100000010000000000000BRCSNAACNOR6243
012013091878CSNAJ10     070CSNA  FM    ON        000R$  000000000002700000000000320000000000025000000000003000000000000300000000000000000000000003900015000000000000030900000000000000929900000000000100002013102100000010000000000000BRCSNAACNOR6243
012013091878CSNAJ20     070CSNA        ON        000R$  000000000001900000000000190000000000019000000000001900000000000190000000000000000000000000000001000000000000005000000000000000095000000000000102002013102100000010000000000000BRCSNAACNOR6243
012013091878CSNAJ64     070CSNA        ON        000R$  000000000032200000000003220000000000321000000000032100000000003210000000000000000000000000000002000000000000001000000000000000321500000000000062002013102100000010000000000000BRCSNAACNOR6242
012013091878CSNAJ8      070CSNA        ON        000R$  000000000017100000000001710000000000171000000000017100000000001710000000000000000000000018500001000000000000002000000000000000342000000000000078002013102100000010000000000000BRCSNAACNOR6242
012013091878CSNAJ82     070CSNA        ON        000R$  000000000015000000000001500000000000150000000000015000000000001500000000000000000000000000000001000000000000001000000000000000150000000000000080002013102100000010000000000000BRCSNAACNOR6242
012013091878CSNAJ9      070CSNA        ON        000R$  000000000009100000000000910000000000091000000000009100000000000910000000000079000000000010500001000000000000000500000000000000045500000000000088002013102100000010000000000000BRCSNAACNOR6242
012013091878CSNAJ92     070CSNA  FM    ON        000R$  000000000006400000000000730000000000062000000000006700000000000730000000000000000000000000000007000000000000012500000000000000849400000000000092002013102100000010000000000000BRCSNAACNOR6243
012013091878CSNAJ94     070CSNA  FM    ON        000R$  000000000005300000000000600000000000053000000000005400000000000600000000000000000000000000000003000000000000003900000000000000212000000000000094002013102100000010000000000000BRCSNAACNOR6243
012013091878CSNAJ96     070CSNA  FM    ON        000R$  000000000004400000000000480000000000040000000000004400000000000480000000000000000000000000000004000000000000002500000000000000112000000000000096002013102100000010000000000000BRCSNAACNOR6243
012013091878CSNAJ98     070CSNA  FM    ON        000R$  000000000003300000000000400000000000033000000000003800000000000390000000000035000000000000000006000000000000014900000000000000577000000000000098002013102100000010000000000000BRCSNAACNOR6243
012013091878CSNAK10     070CSNA  FM    ON        000R$  000000000005000000000000520000000000050000000000005000000000000520000000000000000000000000000002000000000000002600000000000000131200000000000098002013111800000010000000000000BRCSNAACNOR6242
012013091878CSNAK60     070CSNA        ON        000R$  000000000002500000000000270000000000024000000000002600000000000270000000000000000000000000000024000000000000053000000000000001423000000000000106002013111800000010000000000000BRCSNAACNOR6243
012013091878CSNAK92     070CSNA  FM    ON        000R$  000000000009100000000000910000000000091000000000009100000000000910000000000000000000000000000001000000000000001000000000000000091000000000000092002013111800000010000000000000BRCSNAACNOR6243
012013091878CSNAK94     070CSNA  FM    ON        000R$  000000000007900000000000790000000000078000000000007800000000000780000000000000000000000000000002000000000000002000000000000000157000000000000094002013111800000010000000000000BRCSNAACNOR6243
012013091878CSNAL20     070CSNA        ON        000R$  000000000004800000000000480000000000048000000000004800000000000480000000000000000000000000000001000000000000250000000000000012000000000000000102002013121600000010000000000000BRCSNAACNOR6243
012013091882CSNAV10     080CSNAE       ON        000R$  000000000007600000000000760000000000073000000000007400000000000740000000000074000000000009900007000000000000000700000000000000051900000000000100002013102100000010000000000000BRCSNAACNOR6243
012013091882CSNAV8      080CSNAE       ON        000R$  000000000000500000000000070000000000003000000000000300000000000070000000000005000000000001500010000000000000029000000000000000093600000000000078002013102100000010000000000000BRCSNAACNOR6242
012013091882CSNAV9      080CSNAE FM    ON        000R$  000000000002800000000000280000000000023000000000002500000000000270000000000025000000000003600054000000000000124800000000000003162700000000000088002013102100000010000000000000BRCSNAACNOR6242
012013091882CSNAV92     080CSNAE FM    ON        000R$  000000000003600000000000370000000000034000000000003500000000000370000000000000000000000000000006000000000000012000000000000000430000000000000092002013102100000010000000000000BRCSNAACNOR6243
012013091882CSNAV94     080CSNAE FM    ON        000R$  000000000004300000000000450000000000043000000000004400000000000450000000000000000000000000000003000000000000006000000000000000266000000000000094002013102100000010000000000000BRCSNAACNOR6243
012013091882CSNAV96     080CSNAE FM    ON        000R$  000000000005000000000000550000000000050000000000005200000000000550000000000000000000000020000003000000000000004000000000000000211000000000000096002013102100000010000000000000BRCSNAACNOR6243
012013091882CSNAW9      080CSNAE FM    ON        000R$  000000000004100000000000410000000000041000000000004100000000000410000000000000000000000000000001000000000000000900000000000000036900000000000090002013111800000010000000000000BRCSNAACNOR6243
012013091882CSNAW92     080CSNAE FM    ON        000R$  000000000005500000000000550000000000055000000000005500000000000550000000000000000000000000000001000000000000001000000000000000055000000000000092002013111800000010000000000000BRCSNAACNOR6243
