00COTAHIST.2013BOVESPA 20130902                                                                                                                                                                                                                      
012013090202ABCB4       010ABC BRASIL  PN      N2   R$  000000000120400000000012410000000001195000000000121100000000012190000000001208000000000122000561000000000000116200000000000140726900000000000000009999123100000010000000000000BRABCBACNPR4120
012013090296ABCB4F      020ABC BRASIL  PN      N2   R$  000000000121100000000012200000000001198000000000121100000000012200000000001204000000000122500009000000000000000120000000000000145372000000000000009999123100000010000000000000BRABCBACNPR4120
012013090202ABRE11      010ABRIL EDUCA UNT     N2   R$  000000000329800000000034100000000003284000000000331600000000033170000000003315000000000331700334000000000000053500000000000177426100000000000000009999123100000010000000000000BRABRECDAM15102
012013090296ABRE11F     020ABRIL EDUCA UNT     N2   R$  000000000330000000000033350000000003300000000000331900000000033200000000003201000000000335000009000000000000000209000000000000693828000000000000009999123100000010000000000000BRABRECDAM15102
012013090202AEDU3       010ANHANGUERA  ON      NM   R$  000000000141000000000014330000000001397000000000142000000000014320000000001432000000000143309617000000000002478400000000003521240700000000000000009999123100000010000000000000BRAEDUACNOR9107
012013090296AEDU3F      020ANHANGUERA  ON      NM   R$  000000000141400000000014590000000001386000000000142200000000014480000000001426000000000144900049000000000000001587000000000002257244000000000000009999123100000010000000000000BRAEDUACNOR9107
012013090212AEFI11      010FII AESAPAR CI  ER       R$  000000001220000000000122000000000012000000000001205400000000120080000000012008000000001206000036000000000000001776000000000021408683000000000000009999123100000010000000000000BRAEFICTF002121
012013090202AELP3       010AES ELPA    ON           R$  000000000081400000000008500000000000810000000000082400000000008500000000000801000000000084900011000000000000001400000000000001154800000000000000009999123100000010000000000000BRAELPACNOR2119
012013090262AELP3T      030AES ELPA    ON        060R$  000000000082100000000008220000000000821000000000082100000000008220000000000000000000000000000002000000000000000300000000000000246475000000000000009999123100000010000000000000BRAELPACNOR2119
012013090212AGCX11      010FII AG CAIXACI  ER       R$  000000009950000000000995000000000099400000000009948400000000994000000000099300000000009948900005000000000000000026000000000002586600000000000000009999123100000010000000000000BRAGCXCTF003110
012013090202AGRO3       010BRASILAGRO  ON      NM   R$  000000000095100000000009630000000000941000000000095500000000009600000000000956000000000096000033000000000000016100000000000015384300000000000000009999123100000010000000000000BRAGROACNOR7102
012013090202ALLL3       010ALL AMER LATON      NM   R$  000000000094000000000009550000000000926000000000094500000000009490000000000949000000000095007472000000000002198600000000002078419700000000000000009999123100000010000000000000BRALLLACNOR6118
012013090296ALLL3F      020ALL AMER LATON      NM   R$  000000000094500000000009590000000000930000000000094600000000009500000000000955000000000096000270000000000000008260000000000007815102000000000000009999123100000010000000000000BRALLLACNOR6118
012013090262ALLL3T      030ALL AMER LATON      NM030R$  000000000095600000000009570000000000956000000000095600000000009570000000000000000000000000000002000000000000004000000000000003826980000000000000009999123100000010000000000000BRALLLACNOR6118
012013090202ALPA3       010ALPARGATAS  ON      N1   R$  000000000114800000000011480000000001083000000000109000000000010830000000001083000000000114500017000000000000007200000000000007849100000000000000009999123100000010000000000000BRALPAACNOR0203
012013090296ALPA3F      020ALPARGATAS  ON      N1   R$  000000000114900000000011490000000001058000000000108800000000010580000000001080000000000109800005000000000000000048000000000000052263000000000000009999123100000010000000000000BRALPAACNOR0203
012013090202ALPA4       010ALPARGATAS  PN      N1   R$  000000000125500000000013050000000001247000000000125900000000012850000000001285000000000128902663000000000000853600000000001075334200000000000000009999123100000010000000000000BRALPAACNPR7203
012013090296ALPA4F      020ALPARGATAS  PN      N1   R$  000000000127000000000012800000000001245000000000125100000000012660000000001241000000000128000393000000000000005011000000000006272914000000000000009999123100000010000000000000BRALPAACNPR7203
012013090202ALSC3       010ALIANSCE    ON      NM   R$  000000000186500000000019240000000001855000000000188300000000019240000000001920000000000192401753000000000000280700000000000528804000000000000000009999123100000010000000000000BRALSCACNOR0104
012013090296ALSC3F      020ALIANSCE    ON      NM   R$  000000000188200000000019990000000001868000000000191400000000019990000000001809000000000199900009000000000000000298000000000000570391000000000000009999123100000010000000000000BRALSCACNOR0104
012013090202ALUP11      010ALUPAR      UNT     N2   R$  000000000169100000000017300000000001691000000000172000000000017250000000001702000000000172500231000000000000196700000000000338433100000000000000009999123100000010000000000000BRALUPCDAM15100
012013090296ALUP11F     020ALUPAR      UNT     N2   R$  000000000172900000000017950000000001708000000000172900000000017120000000001712000000000179900080000000000000001187000000000002052886000000000000009999123100000010000000000000BRALUPCDAM15100
012013090202AMAR3       010LOJAS MARISAON      NM   R$  000000000191000000000019890000000001880000000000194700000000019850000000001983000000000198501108000000000000229800000000000447474100000000000000009999123100000010000000000000BRAMARACNOR4109
012013090296AMAR3F      020LOJAS MARISAON      NM   R$  000000000193900000000019650000000001902000000000192800000000019650000000001901000000000199500007000000000000000203000000000000391432000000000000009999123100000010000000000000BRAMARACNOR4109
012013090202AMBV3       010AMBEV       ON           R$  000000000840800000000084420000000008199000000000831900000000083500000000008350000000000837001355000000000000210800000000001753881000000000000000009999123100000010000000000000BRAMBVACNOR4153
012013090296AMBV3F      020AMBEV       ON           R$  000000000845000000000087970000000008230000000000829800000000083500000000008252000000000835000114000000000000002614000000000021691978000000000000009999123100000010000000000000BRAMBVACNOR4153
012013090262AMBV3T      030AMBEV       ON        016R$  000000000843800000000084390000000008438000000000843800000000084390000000000000000000000000000002000000000000010000000000000084382926000000000000009999123100000010000000000000BRAMBVACNOR4153
012013090202AMBV4       010AMBEV       PN           R$  000000000836500000000084580000000008222000000000837900000000084240000000008400000000000842406610000000000001759700000000014745958600000000000000009999123100000010000000000000BRAMBVACNPR1153
012013090296AMBV4F      020AMBEV       PN           R$  000000000835000000000084590000000008202000000000833800000000083500000000008301000000000835000279000000000000006620000000000055209498000000000000009999123100000010000000000000BRAMBVACNPR1153
012013090262AMBV4T      030AMBEV       PN        016R$  000000000839800000000083990000000008398000000000839800000000083990000000000000000000000000000002000000000000007000000000000058789220000000000000009999123100000010000000000000BRAMBVACNPR1153
012013090262AMBV4T      030AMBEV       PN        030R$  000000000848300000000084840000000008483000000000848300000000084840000000000000000000000000000002000000000000000100000000000000848381000000000000009999123100000010000000000000BRAMBVACNPR1153
012013090202ARTR3       010ARTERIS     ON      NM   R$  000000000215300000000021740000000002063000000000209700000000020750000000002069000000000207500884000000000000206800000000000433656300000000000000009999123100000010000000000000BRARTRACNOR3101
012013090296ARTR3F      020ARTERIS     ON      NM   R$  000000000215300000000021990000000002027000000000209200000000020500000000002031000000000209100045000000000000001239000000000002592282000000000000009999123100000010000000000000BRARTRACNOR3101
012013090202ARZZ3       010AREZZO CO   ON      NM   R$  000000000332000000000034880000000003320000000000343200000000034500000000003420000000000345001108000000000000162700000000000558461700000000000000009999123100000010000000000000BRARZZACNOR3109
012013090296ARZZ3F      020AREZZO CO   ON      NM   R$  000000000341600000000035970000000003400000000000343300000000035970000000003480000000000355000014000000000000000469000000000001610234000000000000009999123100000010000000000000BRARZZACNOR3109
012013090262ARZZ3T      030AREZZO CO   ON      NM016R$  000000000345900000000034600000000003459000000000345900000000034600000000000000000000000000000002000000000000001500000000000005189290000000000000009999123100000010000000000000BRARZZACNOR3109
012013090202AUTM3       010AUTOMETAL   ON      NM   R$  000000000195400000000019990000000001916000000000195400000000019500000000001940000000000197300620000000000000227900000000000445467300000000000000009999123100000010000000000000BRAUTMACNOR8109
012013090296AUTM3F      020AUTOMETAL   ON      NM   R$  000000000196500000000020820000000001960000000000202300000000019730000000001869000000000208000004000000000000000026000000000000052599000000000000009999123100000010000000000000BRAUTMACNOR8109
012013090202AZEV4       010AZEVEDO     PN           R$  000000000016400000000001640000000000150000000000016000000000001500000000000125000000000015000002000000000000001300000000000000209000000000000000009999123100000010000000000000BRAZEVACNPR7113
012013090202BAHI3       010BAHEMA      ON           R$  000000000049500000000005100000000000495000000000050100000000005100000000000495000000000051000002000000000000000500000000000000250500000000000000009999123100000010000000000000BRBAHIACNOR1066
012013090202BAUH4       010EXCELSIOR   PN           R$  000000000090000000000009400000000000900000000000090300000000009400000000000850000000000094800003000000000000001100000000000000994000000000000000009999123100000010000000000000BRBAUHACNPR3108
012013090202BAZA3       010AMAZONIA    ON           R$  000000000003200000000000330000000000031000000000003100000000000330000000000032000000000003300008000000000000037000000000000001167000000000000000009999123100000010000000000000BRBAZAACNOR0163
012013090296BAZA3F      020AMAZONIA    ON           R$  000000000003200000000000330000000000032000000000003200000000000330000000000032000000000003300005000000000000000798000000000000025834000000000000009999123100000010000000000000BRBAZAACNOR0163
012013090202BBAS3       010BRASIL      ON  ED  NM   R$  000000000231700000000023620000000002317000000000233900000000023250000000002325000000000232910935000000000005363900000000012547558200000000000000009999123100000010000000000000BRBBASACNOR3238
012013090296BBAS3F      020BRASIL      ON  ED  NM   R$  000000000231000000000023610000000002307000000000233600000000023400000000002320000000000234000557000000000000015491000000000036197645000000000000009999123100000010000000000000BRBBASACNOR3238
012013090262BBAS3T      030BRASIL      ON  ED  NM017R$  000000000233100000000023340000000002331000000000233300000000023340000000000000000000000000000006000000000000005000000000000011667380000000000000009999123100000010000000000000BRBBASACNOR3238
012013090262BBAS3T      030BRASIL      ON  ED  NM030R$  000000000235100000000023750000000002349000000000235400000000023500000000000000000000000000000012000000000000025800000000000060751449000000000000009999123100000010000000000000BRBBASACNOR3238
012013090262BBAS3T      030BRASIL      ON  ED  NM060R$  000000000235700000000023580000000002357000000000235700000000023580000000000000000000000000000002000000000000001000000000000002357233000000000000009999123100000010000000000000BRBBASACNOR3238
012013090262BBAS3T      030BRASIL      ON  ED  NM091R$  000000000237100000000023930000000002371000000000238500000000023850000000000000000000000000000012000000000000301400000000000718877048000000000000009999123100000010000000000000BRBBASACNOR3238
012013090278BBASI21     070BBAS    /EDRON      NM000R$  000000000031900000000003200000000000319000000000031900000000003200000000000100000000000000000002000000000000001200000000000000383800000000000202202013091600000010000000000000BRBBASACNOR3237
012013090278BBASI22     070BBAS  FM/EDRON      NM000R$  000000000027000000000002710000000000235000000000025800000000002510000000000061000000000027100129000000000000117400000000000030304400000000000209802013091600000010000000000000BRBBASACNOR3236
012013090278BBASI23     070BBAS  FM/EDRON      NM000R$  000000000013000000000001750000000000130000000000016400000000001420000000000142000000000016500127000000000000106600000000000017484300000000000219802013091600000010000000000000BRBBASACNOR3236
012013090278BBASI24     070BBAS  FM/EDRON      NM000R$  000000000006000000000000910000000000060000000000007900000000000890000000000070000000000008900190000000000000236800000000000018854700000000000229802013091600000010000000000000BRBBASACNOR3236
012013090278BBASI25     070BBAS  FM/EDRON      NM000R$  000000000002100000000000370000000000021000000000002700000000000280000000000025000000000002800163000000000000185500000000000005155000000000000238802013091600000010000000000000BRBBASACNOR3235
012013090278BBASI26     070BBAS  FM/EDRON      NM000R$  000000000000800000000000090000000000007000000000000700000000000080000000000007000000000001000018000000000000030600000000000000230300000000000248802013091600000010000000000000BRBBASACNOR3235
012013090278BBASI27     070BBAS    /EDRON      NM000R$  000000000000200000000000020000000000002000000000000200000000000020000000000001000000000000300001000000000000005000000000000000010000000000000259802013091600000010000000000000BRBBASACNOR3236
012013090278BBASJ22     070BBAS  FM/EDRON      NM000R$  000000000027700000000002830000000000253000000000026700000000002570000000000000000000000000000067000000000000060800000000000016290400000000000212202013102100000010000000000000BRBBASACNOR3237
012013090278BBASJ23     070BBAS  FM/EDRON      NM000R$  000000000022500000000002270000000000197000000000021400000000002160000000000000000000000000000090000000000000064700000000000013851900000000000218802013102100000010000000000000BRBBASACNOR3235
012013090278BBASJ24     070BBAS  FM/EDRON      NM000R$  000000000014400000000001450000000000128000000000013500000000001360000000000018000000000014100098000000000000056200000000000007609700000000000229802013102100000010000000000000BRBBASACNOR3236
012013090278BBASJ25     070BBAS  FM/EDRON      NM000R$  000000000007600000000000760000000000065000000000006700000000000690000000000025000000000006000134000000000000051800000000000003520600000000000242202013102100000010000000000000BRBBASACNOR3237
012013090278BBASJ26     070BBAS  FM/EDRON      NM000R$  000000000004700000000000470000000000040000000000004400000000000440000000000016000000000004600037000000000000070900000000000003122400000000000248802013102100000010000000000000BRBBASACNOR3235
012013090278BBASJ27     070BBAS    /EDRON      NM000R$  000000000002000000000000250000000000020000000000002300000000000200000000000010000000000003000011000000000000065900000000000001559000000000000258802013102100000010000000000000BRBBASACNOR3235
012013090278BBASJ56     070BBAS    /EDRON      NM000R$  000000000003100000000000310000000000031000000000003100000000000310000000000000000000000000000062000000000000119900000000000003716900000000000253802013102100000010000000000000BRBBASACNOR3235
012013090278BBASK24     070BBAS    /EDRON      NM000R$  000000000014500000000001450000000000145000000000014500000000001450000000000090000000000015000012000000000000010000000000000001450000000000000232202013111800000010000000000000BRBBASACNOR3237
012013090278BBASK26     070BBAS    /EDRON      NM000R$  000000000006300000000000630000000000063000000000006300000000000630000000000016000000000000000004000000000000005500000000000000346500000000000249802013111800000010000000000000BRBBASACNOR3236
012013090278BBASL24     070BBAS    /EDRON      NM000R$  000000000016500000000001650000000000165000000000016500000000001650000000000107000000000035000001000000000000002800000000000000462000000000000232202013121600000010000000000000BRBBASACNOR3237
012013090278BBASL26     070BBAS    /EDRON      NM000R$  000000000009200000000000920000000000092000000000009200000000000920000000000005000000000000000001000000000000000100000000000000009200000000000248802013121600000010000000000000BRBBASACNOR3235
012013090282BBASU21     080BBASE FM/EDRON      NM000R$  000000000000100000000000010000000000001000000000000100000000000010000000000001000000000000200006000000000000010600000000000000010600000000000202202013091600000010000000000000BRBBASACNOR3237
012013090282BBASU22     080BBASE FM/EDRON      NM000R$  000000000000400000000000050000000000004000000000000400000000000040000000000002000000000000900007000000000000010800000000000000045500000000000209802013091600000010000000000000BRBBASACNOR3236
012013090282BBASU23     080BBASE FM/EDRON      NM000R$  000000000000700000000000110000000000007000000000000900000000000100000000000000000000000000000011000000000000026000000000000000252000000000000219802013091600000010000000000000BRBBASACNOR3236
012013090282BBASU24     080BBASE FM/EDRON      NM000R$  000000000002900000000000380000000000024000000000003200000000000370000000000025000000000003700132000000000000314500000000000010328200000000000229802013091600000010000000000000BRBBASACNOR3236
012013090282BBASV21     080BBASE FM/EDRON      NM000R$  000000000001500000000000150000000000015000000000001500000000000150000000000000000000000000000002000000000000002700000000000000040500000000000202202013102100000010000000000000BRBBASACNOR3237
012013090282BBASV22     080BBASE FM/EDRON      NM000R$  000000000002700000000000270000000000026000000000002600000000000260000000000000000000000024700002000000000000003000000000000000078700000000000212202013102100000010000000000000BRBBASACNOR3237
012013090282BBASV24     080BBASE FM/EDRON      NM000R$  000000000006300000000000690000000000063000000000006600000000000680000000000000000000000000000035000000000000029200000000000001936800000000000229802013102100000010000000000000BRBBASACNOR3236
012013090282BBASV25     080BBASE   /EDRON      NM000R$  000000000012900000000001290000000000129000000000012900000000001290000000000106000000000000000001000000000000001500000000000000193500000000000242202013102100000010000000000000BRBBASACNOR3237
012013090202BBDC3       010BRADESCO    ON      N1   R$  000000000319000000000032390000000003160000000000319200000000031600000000003152000000000319405101000000000001236400000000003946983400000000000000009999123100000010000000000000BRBBDCACNOR1605
012013090296BBDC3F      020BRADESCO    ON      N1   R$  000000000310000000000033000000000003042000000000318400000000030500000000003053000000000329800083000000000000001701000000000005416969000000000000009999123100000010000000000000BRBBDCACNOR1605
012013090202BBDC4       010BRADESCO    PN      N1   R$  000000000280500000000028560000000002780000000000281400000000027970000000002797000000000280315005000000000005651200000000015902405200000000000000009999123100000010000000000000BRBBDCACNPR8605
012013090296BBDC4F      020BRADESCO    PN      N1   R$  000000000280000000000028590000000002776000000000281600000000028150000000002815000000000282900330000000000000009564000000000026929597000000000000009999123100000010000000000000BRBBDCACNPR8605
012013090262BBDC4T      030BRADESCO    PN      N1030R$  000000000283800000000028540000000002838000000000285000000000028540000000000000000000000000000004000000000000005000000000000014251250000000000000009999123100000010000000000000BRBBDCACNPR8605
012013090262BBDC4T      030BRADESCO    PN      N1060R$  000000000286200000000028630000000002862000000000286200000000028630000000000000000000000000000002000000000000003300000000000009447451000000000000009999123100000010000000000000BRBBDCACNPR8605
012013090262BBDC4T      030BRADESCO    PN      N1091R$  000000000287200000000028750000000002872000000000287200000000028730000000000000000000000000000012000000000000021000000000000060332114000000000000009999123100000010000000000000BRBBDCACNPR8605
012013090278BBDCI26     070BBDC        PN      N1000R$  000000000026200000000002620000000000205000000000023700000000002290000000000000000000000034000075000000000000130200000000000030937200000000000259802013091600000010000000000000BRBBDCACNPR8604
012013090278BBDCI27     070BBDC        PN      N1000R$  000000000013900000000001890000000000135000000000016700000000001560000000000135000000000017900071000000000000098700000000000016558000000000000267802013091600000010000000000000BRBBDCACNPR8602
012013090278BBDCI28     070BBDC        PN      N1000R$  000000000006800000000001040000000000060000000000007800000000000800000000000076000000000008800146000000000000241700000000000018908400000000000277802013091600000010000000000000BRBBDCACNPR8602
012013090278BBDCI29     070BBDC        PN      N1000R$  000000000002400000000000420000000000021000000000002800000000000250000000000025000000000003000133000000000000240400000000000006958000000000000287802013091600000010000000000000BRBBDCACNPR8602
012013090278BBDCI30     070BBDC        PN      N1000R$  000000000000500000000000150000000000005000000000000900000000000080000000000006000000000001000153000000000000151900000000000001374600000000000297802013091600000010000000000000BRBBDCACNPR8602
012013090278BBDCI58     070BBDC        PN      N1000R$  000000000004400000000000440000000000040000000000004200000000000400000000000000000000000000000002000000000000001400000000000000058800000000000285002013091600000010000000000000BRBBDCACNPR8605
012013090278BBDCI81     070BBDC        PN      N1000R$  000000000000400000000000040000000000003000000000000300000000000040000000000000000000000000400006000000000000031500000000000000116000000000000307802013091600000010000000000000BRBBDCACNPR8602
012013090278BBDCJ26     070BBDC        PN      N1000R$  000000000029400000000002940000000000253000000000028100000000002760000000000000000000000000000086000000000000100200000000000028177000000000000259802013102100000010000000000000BRBBDCACNPR8604
012013090278BBDCJ27     070BBDC        PN      N1000R$  000000000022900000000002290000000000194000000000022000000000002130000000000000000000000024000058000000000000056100000000000012369600000000000267802013102100000010000000000000BRBBDCACNPR8602
012013090278BBDCJ29     070BBDC        PN      N1000R$  000000000008900000000001110000000000076000000000009600000000000910000000000000000000000010300035000000000000065000000000000006257100000000000287802013102100000010000000000000BRBBDCACNPR8602
012013090278BBDCJ30     070BBDC        PN      N1000R$  000000000006600000000000660000000000043000000000005200000000000520000000000050000000000006000026000000000000039400000000000002078300000000000297802013102100000010000000000000BRBBDCACNPR8602
012013090278BBDCJ31     070BBDC        PN      N1000R$  000000000002900000000000300000000000029000000000002900000000000300000000000012000000000003000002000000000000005700000000000000166000000000000307802013102100000010000000000000BRBBDCACNPR8602
012013090278BBDCJ32     070BBDC        PN      N1000R$  000000000001800000000000180000000000016000000000001700000000000160000000000014000000000002400003000000000000005900000000000000100800000000000317802013102100000010000000000000BRBBDCACNPR8602
012013090278BBDCJ58     070BBDC        PN      N1000R$  000000000015200000000001520000000000116000000000013700000000001300000000000102000000000000000022000000000000027200000000000003739400000000000280002013102100000010000000000000BRBBDCACNPR8605
012013090278BBDCK28     070BBDC        PN      N1000R$  000000000020000000000002000000000000169000000000018200000000001800000000000000000000000000000037000000000000050200000000000009185000000000000277802013111800000010000000000000BRBBDCACNPR8602
012013090282BBDCU26     080BBDCE       PN      N1000R$  000000000001100000000000110000000000004000000000000600000000000100000000000005000000000001000066000000000000103400000000000000686100000000000259802013091600000010000000000000BRBBDCACNPR8604
012013090282BBDCU27     080BBDCE       PN      N1000R$  000000000001800000000000180000000000009000000000001200000000000140000000000000000000000000000055000000000000195000000000000002490300000000000267802013091600000010000000000000BRBBDCACNPR8602
012013090282BBDCU28     080BBDCE       PN      N1000R$  000000000002600000000000460000000000026000000000003600000000000350000000000000000000000000000008000000000000023600000000000000861100000000000277802013091600000010000000000000BRBBDCACNPR8602
012013090282BBDCV25     080BBDCE       PN      N1000R$  000000000001600000000000200000000000015000000000001700000000000190000000000000000000000000000022000000000000037400000000000000647300000000000249602013102100000010000000000000BRBBDCACNPR8603
012013090282BBDCV26     080BBDCE       PN      N1000R$  000000000002900000000000310000000000029000000000002900000000000310000000000000000000000000000005000000000000009600000000000000285900000000000259802013102100000010000000000000BRBBDCACNPR8604
012013090282BBDCV27     080BBDCE       PN      N1000R$  000000000004500000000000490000000000043000000000004400000000000490000000000000000000000000000012000000000000027500000000000001218500000000000267802013102100000010000000000000BRBBDCACNPR8602
012013090282BBDCV29     080BBDCE       PN      N1000R$  000000000012100000000001210000000000121000000000012100000000001210000000000000000000000000000001000000000000001600000000000000193600000000000287802013102100000010000000000000BRBBDCACNPR8602
012013090282BBDCV58     080BBDCE       PN      N1000R$  000000000008100000000000990000000000081000000000008800000000000990000000000000000000000000000004000000000000007000000000000000617400000000000280002013102100000010000000000000BRBBDCACNPR8605
012013090282BBDCW27     080BBDCE       PN      N1000R$  000000000006400000000000640000000000064000000000006400000000000640000000000064000000000000000001000000000000001200000000000000076800000000000269602013111800000010000000000000BRBBDCACNPR8603
012013090212BBFI11B     010FII BB PROGRCI  ER  MB   R$  000000042399900000004265000000000422000000000042435600000004265000000000426500000000043000000007000000000000000014000000000005940997000000000000009999123100000010000000000000BRBBFICTF006198
012013090212BBPO11      010FII BB PRGIICI  ER       R$  000000001104000000000111000000000010801000000001100500000000110880000000011021000000001108800214000000000000025903000000000285085619000000000000009999123100000010000000000000BRBBPOCTF003110
012013090212BBRC11      010FII BB CORP CI  ER       R$  000000000900100000000091000000000009000000000000900100000000090060000000009006000000000905000008000000000000000300000000000002700328000000000000009999123100000010000000000000BRBBRCCTF004124
012013090202BBRK3       010BR BROKERS  ON      NM   R$  000000000052900000000005450000000000529000000000053800000000005370000000000536000000000053703449000000000000960500000000000517023500000000000000009999123100000010000000000000BRBBRKACNOR4108
012013090296BBRK3F      020BR BROKERS  ON      NM   R$  000000000051800000000005410000000000518000000000052300000000005240000000000523000000000060600006000000000000000040000000000000020928000000000000009999123100000010000000000000BRBBRKACNOR4108
012013090278BBRKB6      070BBRK        ON      NM000R$  000000000003200000000000320000000000032000000000003200000000000320000000000000000000000000000001000000000000332500000000000010640000000000000060002014021700000010000000000000BRBBRKACNOR4108
012013090282BBRKN5      080BBRKE       ON      NM000R$  000000000003300000000000330000000000033000000000003300000000000330000000000000000000000000000001000000000000332500000000000010972500000000000050002014021700000010000000000000BRBBRKACNOR4108
012013090202BBSE3       010BBSEGURIDADEON      NM   R$  000000000190400000000019250000000001904000000000191600000000019200000000001916000000000192007656000000000002949600000000005653720800000000000000009999123100000010000000000000BRBBSEACNOR5101
012013090296BBSE3F      020BBSEGURIDADEON      NM   R$  000000000190000000000019240000000001885000000000191400000000019190000000001913000000000191902274000000000000074347000000000142338464000000000000009999123100000010000000000000BRBBSEACNOR5101
012013090278BBSEI49     070BBSE        ON      NM000R$  000000000003800000000000380000000000038000000000003800000000000380000000000020000000000000000001000000000000020000000000000000760000000000000190902013091600000010000000000000BRBBSEACNOR5100
012013090202BBTG11      010BTG PACTUAL UNT          R$  000000000273200000000028200000000002732000000000277700000000027780000000002750000000000277800231000000000000053500000000000148571300000000000000009999123100000010000000000000BRBBTGUNT007105
012013090296BBTG11F     020BTG PACTUAL UNT          R$  000000000276000000000027870000000002652000000000277000000000026520000000002750000000000299800005000000000000000111000000000000307501000000000000009999123100000010000000000000BRBBTGUNT007105
012013090212BBVJ11      010FII C JARDIMCI  ER       R$  000000000755000000000075500000000007200000000000746400000000075200000000007367000000000752000039000000000000001491000000000011128990000000000000009999123100000010000000000000BRBBVJCTF001133
012013090212BCFF11B     010FII BC FFII CI      MB   R$  000000000910000000000091000000000008950000000000900400000000089500000000008960000000000899500080000000000000003177000000000028605981000000000000009999123100000010000000000000BRBCFFCTF000141
012013090202BDLL4       010BARDELLA    PN           R$  000000000577900000000057790000000005779000000000577900000000057790000000004751000000000560000001000000000000000100000000000000577900000000000000009999123100000010000000000000BRBDLLACNPR8149
012013090202BEEF3       010MINERVA     ON      NM   R$  000000000109400000000010980000000001081000000000109000000000010940000000001088000000000109502359000000000000516300000000000563161300000000000000009999123100000010000000000000BRBEEFACNOR6104
012013090296BEEF3F      020MINERVA     ON      NM   R$  000000000108700000000010990000000001080000000000108900000000010910000000001070000000000109200011000000000000000384000000000000418404000000000000009999123100000010000000000000BRBEEFACNOR6104
012013090202BEES3       010BANESTES    ON  EJ       R$  000000000004700000000000520000000000047000000000004800000000000490000000000048000000000004900016000000000000043800000000000002114300000000000000009999123100000010000000000000BRBEESACNOR9244
012013090202BEMA3       010BEMATECH    ON      NM   R$  000000000070000000000007070000000000691000000000069900000000007020000000000701000000000070400166000000000000080100000000000056047600000000000000009999123100000010000000000000BRBEMAACNOR0114
012013090296BEMA3F      020BEMATECH    ON      NM   R$  000000000069500000000006950000000000691000000000069200000000006910000000000700000000000079500002000000000000000063000000000000043649000000000000009999123100000010000000000000BRBEMAACNOR0114
012013090262BEMA3T      030BEMATECH    ON      NM016R$  000000000070700000000007080000000000707000000000070700000000007080000000000000000000000000000002000000000000000200000000000000141592000000000000009999123100000010000000000000BRBEMAACNOR0114
012013090202BGIP4       010BANESE      PN           R$  000000000465000000000046500000000004650000000000465000000000046500000000004511000000000469900001000000000000000100000000000000465000000000000000009999123100000010000000000000BRBGIPACNPR8179
012013090202BHGR3       010BHG         ON      NM   R$  000000000137000000000014090000000001347000000000138000000000013850000000001385000000000139000126000000000000071500000000000098679900000000000000009999123100000010000000000000BRBHGRACNOR9101
012013090296BHGR3F      020BHG         ON      NM   R$  000000000149900000000014990000000001393000000000143800000000013930000000001215000000000149900002000000000000000089000000000000128005000000000000009999123100000010000000000000BRBHGRACNOR9101
012013090202BICB4       010BICBANCO    PN      N1   R$  000000000041000000000004200000000000409000000000041300000000004200000000000415000000000041900066000000000000052600000000000021737200000000000000009999123100000010000000000000BRBICBACNPR7131
012013090296BICB4F      020BICBANCO    PN      N1   R$  000000000040900000000004180000000000409000000000041000000000004180000000000401000000000041800008000000000000000210000000000000086202000000000000009999123100000010000000000000BRBICBACNPR7131
012013090202BISA3       010BROOKFIELD  ON      NM   R$  000000000017500000000001840000000000173000000000017900000000001830000000000183000000000018407351000000000008973600000000001612628700000000000000009999123100000010000000000000BRBISAACNOR8109
012013090296BISA3F      020BROOKFIELD  ON      NM   R$  000000000018600000000001860000000000172000000000018000000000001850000000000178000000000018600033000000000000000939000000000000169284000000000000009999123100000010000000000000BRBISAACNOR8109
012013090262BISA3S      030BROOKFIELD  ON      NM090R$  000000000018400000000001850000000000184000000000018400000000001850000000000000000000000000000002000000000000010000000000000001843200000000000000009999123100000010000000000000BRBISAACNOR8109
012013090212BJRC11      010FII JS RECIMCI  ER       R$  000000008700100000000870010000000085000000000008649000000000861000000000086100000000009000000004000000000000000048000000000004151533000000000000009999123100000010000000000000BRBJRCCTF007110
012013090202BMIN4       010MERC INVEST PN  EJ       R$  000000000002500000000000250000000000025000000000002500000000000250000000000024000000000002600003000000000000012000000000000000300000000000000000009999123100000010000000000000BRBMINACNPR1160
012013090202BMKS3       010BIC MONARK  ON           R$  000000003300000000000330000000000033000000000003300000000000330000000000031400000000003290000001000000000000000001000000000000033000000000000000009999123100000010000000000000BRBMKSACNOR9155
012013090212BMLC11B     010FII BMBRC LCCI      MB   R$  000000001125000000000114490000000011250000000001126800000000114490000000011320000000001144900002000000000000000055000000000000619745000000000000009999123100000010000000000000BRBMLCCTF004118
012013090202BMTO4       010BRASMOTOR   PN           R$  000000000008500000000000880000000000085000000000008500000000000880000000000084000000000008700006000000000000009000000000000000772000000000000000009999123100000010000000000000BRBMTOACNPR6065
012013090296BMTO4F      020BRASMOTOR   PN           R$  000000000008400000000000840000000000081000000000008200000000000810000000000081000000000008800002000000000000001042000000000000086028000000000000009999123100000010000000000000BRBMTOACNPR6065
012013090202BNBR4       010NORD BRASIL PN           R$  000000000260000000000026000000000002600000000000260000000000026000000000002600000000000269900002000000000000000200000000000000520000000000000000009999123100000010000000000000BRBNBRACNPR5187
012013090202BOBR4       010BOMBRIL     PN           R$  000000000068800000000006880000000000688000000000068800000000006880000000000660000000000068000001000000000000000100000000000000068800000000000000009999123100000010000000000000BRBOBRACNPR3127
012013090214BOVA11      010ISHARES BOVACI           R$  000000000508200000000051200000000005001000000000504000000000050460000000005046000000000505515990000000000001768660000000008915689590000000000000009999123100000010000000000000BRBOVACTF003101
012013090296BOVA11F     020ISHARES BOVACI           R$  000000000500800000000050760000000004969000000000502700000000050300000000005000000000000503500014000000000000000037000000000000186026000000000000009999123100000010000000000000BRBOVACTF003101
012013090212BPFF11      010FII ABSOLUTOCI  ER       R$  000000000849900000000085000000000008400000000000846200000000085000000000008475000000000855000020000000000000001122000000000009495298000000000000009999123100000010000000000000BRBPFFCTF002105
012013090202BPHA3       010BR PHARMA   ON      NM   R$  000000000082500000000008510000000000817000000000083400000000008350000000000835000000000083801820000000000000573400000000000478222400000000000000009999123100000010000000000000BRBPHAACNOR6102
012013090296BPHA3F      020BR PHARMA   ON      NM   R$  000000000084600000000008490000000000815000000000083600000000008150000000000815000000000097600025000000000000000773000000000000646614000000000000009999123100000010000000000000BRBPHAACNOR6102
012013090262BPHA3T      030BR PHARMA   ON      NM030R$  000000000085200000000008530000000000846000000000085100000000008470000000000000000000000000000004000000000000002900000000000002470073000000000000009999123100000010000000000000BRBPHAACNOR6102
012013090202BPNM4       010PANAMERICANOPN      N1   R$  000000000052800000000005450000000000519000000000052900000000005300000000000520000000000053000248000000000000200100000000000105899900000000000000009999123100000010000000000000BRBPNMACNPR6111
012013090296BPNM4F      020PANAMERICANOPN      N1   R$  000000000050100000000005680000000000501000000000052500000000005680000000000506000000000056800003000000000000000058000000000000030498000000000000009999123100000010000000000000BRBPNMACNPR6111
012013090202BRAP3       010BRADESPAR   ON      N1   R$  000000000205100000000020750000000002050000000000205700000000020750000000002058000000000207500010000000000000006900000000000014195400000000000000009999123100000010000000000000BRBRAPACNOR5124
012013090202BRAP4       010BRADESPAR   PN      N1   R$  000000000250600000000025650000000002506000000000254600000000025600000000002550000000000256004580000000000001041500000000002651885600000000000000009999123100000010000000000000BRBRAPACNPR2124
012013090296BRAP4F      020BRADESPAR   PN      N1   R$  000000000250000000000026140000000002427000000000251500000000024940000000002428000000000259900046000000000000001340000000000003372547000000000000009999123100000010000000000000BRBRAPACNPR2124
012013090214BRAX11      010ISHARES BRAXCI           R$  000000000408500000000041030000000004054000000000406200000000040680000000004050000000000000000058000000000000006040000000000024538020000000000000009999123100000010000000000000BRBRAXCTF002100
012013090212BRCR11      010FII BC FUND CI           R$  000000001220000000000125000000000012100000000001225100000000124910000000012491000000001249901351000000000000051558000000000631673372000000000000009999123100000010000000000000BRBRCRCTF000132
012013090202BRFS3       010BRF SA      ON      NM   R$  000000000561900000000056500000000005524000000000559700000000055660000000005561000000000558805699000000000001418700000000007941232300000000000000009999123100000010000000000000BRBRFSACNOR8110
012013090296BRFS3F      020BRF SA      ON      NM   R$  000000000560000000000056430000000005545000000000559700000000055940000000005547000000000559400164000000000000004760000000000026643978000000000000009999123100000010000000000000BRBRFSACNOR8110
012013090262BRFS3T      030BRF SA      ON      NM030R$  000000000566300000000056640000000005663000000000566300000000056640000000000000000000000000000002000000000000001000000000000005663506000000000000009999123100000010000000000000BRBRFSACNOR8110
012013090202BRIN3       010BR INSURANCEON      NM   R$  000000000192500000000019370000000001851000000000189300000000019250000000001920000000000192501699000000000000482600000000000913962700000000000000009999123100000010000000000000BRBRINACNOR3106
012013090296BRIN3F      020BR INSURANCEON      NM   R$  000000000193700000000019370000000001794000000000188000000000019250000000001871000000000192500081000000000000001993000000000003747812000000000000009999123100000010000000000000BRBRINACNOR3106
012013090202BRKM3       010BRASKEM     ON      N1   R$  000000000126800000000012700000000001216000000000124400000000012160000000001215000000000123500016000000000000003000000000000003732400000000000000009999123100000010000000000000BRBRKMACNOR1110
012013090296BRKM3F      020BRASKEM     ON      N1   R$  000000000125000000000012500000000001200000000000124200000000012000000000001171000000000125000003000000000000000044000000000000054652000000000000009999123100000010000000000000BRBRKMACNOR1110
012013090202BRKM5       010BRASKEM     PNA     N1   R$  000000000177200000000018170000000001760000000000179500000000017940000000001794000000000180007348000000000001756100000000003153029500000000000000009999123100000010000000000000BRBRKMACNPA4110
012013090296BRKM5F      020BRASKEM     PNA     N1   R$  000000000175600000000018170000000001756000000000178900000000017700000000001770000000000181300060000000000000001570000000000002809254000000000000009999123100000010000000000000BRBRKMACNPA4110
012013090262BRKM5T      030BRASKEM     PNA     N1030R$  000000000181000000000018110000000001810000000000181000000000018110000000000000000000000000000002000000000000001000000000000001810766000000000000009999123100000010000000000000BRBRKMACNPA4110
012013090202BRML3       010BR MALLS PARON      NM   R$  000000000182600000000018900000000001826000000000186700000000018820000000001878000000000188208232000000000002260400000000004221477100000000000000009999123100000010000000000000BRBRMLACNOR9105
012013090296BRML3F      020BR MALLS PARON      NM   R$  000000000181900000000018890000000001810000000000186000000000018890000000001856000000000189000293000000000000009824000000000018281093000000000000009999123100000010000000000000BRBRMLACNOR9105
012013090262BRML3T      030BR MALLS PARON      NM030R$  000000000189000000000018940000000001890000000000189100000000018940000000000000000000000000000004000000000000030000000000000056740014000000000000009999123100000010000000000000BRBRMLACNOR9105
012013090278BRMLI19     070BRML        ON      NM000R$  000000000003100000000000310000000000031000000000003100000000000310000000000000000000000000000001000000000000000500000000000000015500000000000190002013091600000010000000000000BRBRMLACNOR9105
012013090278BRMLJ19     070BRML        ON      NM000R$  000000000004500000000000450000000000045000000000004500000000000450000000000000000000000000000002000000000000020100000000000000904500000000000190002013102100000010000000000000BRBRMLACNOR9105
012013090202BRPR3       010BR PROPERT  ON      NM   R$  000000000183600000000018950000000001828000000000186000000000018750000000001874000000000187507324000000000001881100000000003500506000000000000000009999123100000010000000000000BRBRPRACNOR9112
012013090296BRPR3F      020BR PROPERT  ON      NM   R$  000000000181800000000018950000000001818000000000185600000000018940000000001840000000000189500050000000000000001589000000000002951522000000000000009999123100000010000000000000BRBRPRACNOR9112
012013090202BRSR3       010BANRISUL    ON      N1   R$  000000000138400000000014400000000001384000000000139900000000014400000000001281000000000144000007000000000000001100000000000001539300000000000000009999123100000010000000000000BRBRSRACNOR3130
012013090202BRSR6       010BANRISUL    PNB     N1   R$  000000000143700000000014650000000001415000000000143700000000014650000000001450000000000146502927000000000000737500000000001060254200000000000000009999123100000010000000000000BRBRSRACNPB4133
012013090296BRSR6F      020BANRISUL    PNB     N1   R$  000000000141500000000014600000000001391000000000142900000000014240000000001440000000000146000207000000000000006681000000000009551911000000000000009999123100000010000000000000BRBRSRACNPB4133
012013090202BSEV3       010BIOSEV      ON      NM   R$  000000000094100000000009450000000000930000000000093800000000009450000000000930000000000094500036000000000000010800000000000010133800000000000000009999123100000010000000000000BRBSEVACNOR3100
012013090202BTOW3       010B2W DIGITAL ON      NM   R$  000000000138500000000014630000000001372000000000142400000000014570000000001456000000000145702277000000000000608300000000000866611400000000000000009999123100000010000000000000BRBTOWACNOR8105
012013090296BTOW3F      020B2W DIGITAL ON      NM   R$  000000000135100000000014740000000001351000000000141800000000014740000000001439000000000145900067000000000000001900000000000002697733000000000000009999123100000010000000000000BRBTOWACNOR8105
012013090262BTOW3T      030B2W DIGITAL ON      NM030R$  000000000144100000000014420000000001441000000000144100000000014420000000000000000000000000000002000000000000002000000000000002882320000000000000009999123100000010000000000000BRBTOWACNOR8105
012013090202BTTL3       010BATTISTELLA ON           R$  000000000009000000000000940000000000090000000000009000000000000940000000000085000000000009400002000000000000001100000000000000099400000000000000009999123100000010000000000000BRBTTLACNOR0105
012013090202BTTL4       010BATTISTELLA PN           R$  000000000009900000000001010000000000099000000000009900000000001010000000000098000000000010100004000000000000011100000000000001099100000000000000009999123100000010000000000000BRBTTLACNPR7105
012013090202BVMF3       010BMFBOVESPA  ON  ED  NM   R$  000000000118400000000012050000000001170000000000119000000000011800000000001180000000000118121520000000000012843100000000015288043700000000000000009999123100000010000000000000BRBVMFACNOR3126
012013090296BVMF3F      020BMFBOVESPA  ON  ED  NM   R$  000000000118100000000012030000000001174000000000119100000000011780000000001160000000000117800284000000000000007626000000000009082627000000000000009999123100000010000000000000BRBVMFACNOR3126
012013090262BVMF3T      030BMFBOVESPA  ON  ED  NM017R$  000000000118700000000011880000000001187000000000118700000000011880000000000000000000000000000004000000000000002000000000000002375110000000000000009999123100000010000000000000BRBVMFACNOR3126
012013090262BVMF3T      030BMFBOVESPA  ON  ED  NM091R$  000000000121500000000012160000000001210000000000121400000000012110000000000000000000000000000022000000000000885000000000001075179719000000000000009999123100000010000000000000BRBVMFACNOR3126
012013090278BVMFI10     070BVMF    /ED ON      NM000R$  000000000020500000000002050000000000205000000000020500000000002050000000000160000000000000000001000000000000000900000000000000184500000000000098502013091600000010000000000000BRBVMFACNOR3125
012013090278BVMFI11     070BVMF  FM/ED ON      NM000R$  000000000011500000000001250000000000100000000000011300000000001000000000000090000000000011500081000000000000177500000000000020155000000000000108502013091600000010000000000000BRBVMFACNOR3125
012013090278BVMFI12     070BVMF  FM/ED ON      NM000R$  000000000002900000000000420000000000025000000000003300000000000270000000000027000000000003000199000000000000398200000000000013273500000000000118502013091600000010000000000000BRBVMFACNOR3125
012013090278BVMFI13     070BVMF  FM/ED ON      NM000R$  000000000000500000000000060000000000004000000000000500000000000050000000000004000000000000500159000000000000413000000000000002215900000000000128502013091600000010000000000000BRBVMFACNOR3125
012013090278BVMFI14     070BVMF    /ED ON      NM000R$  000000000000100000000000010000000000001000000000000100000000000010000000000001000000000000200008000000000000101100000000000000101100000000000138502013091600000010000000000000BRBVMFACNOR3125
012013090278BVMFI41     070BVMF  FM/ED ON      NM000R$  000000000007100000000000780000000000058000000000006800000000000580000000000050000000000000000017000000000000043700000000000003015100000000000113502013091600000010000000000000BRBVMFACNOR3125
012013090278BVMFI42     070BVMF  FM/ED ON      NM000R$  000000000001300000000000160000000000008000000000001200000000000110000000000000000000000001200039000000000000125000000000000001505900000000000123502013091600000010000000000000BRBVMFACNOR3125
012013090278BVMFJ11     070BVMF  FM/ED ON      NM000R$  000000000013500000000001430000000000123000000000013500000000001250000000000000000000000015000015000000000000031100000000000004212200000000000108502013102100000010000000000000BRBVMFACNOR3125
012013090278BVMFJ12     070BVMF  FM/ED ON      NM000R$  000000000005800000000000700000000000056000000000006400000000000560000000000030000000000007500037000000000000065000000000000004186200000000000118502013102100000010000000000000BRBVMFACNOR3125
012013090278BVMFJ13     070BVMF  FM/ED ON      NM000R$  000000000002000000000000220000000000015000000000001900000000000150000000000015000000000002000109000000000000186500000000000003573100000000000128502013102100000010000000000000BRBVMFACNOR3125
012013090278BVMFJ41     070BVMF  FM/ED ON      NM000R$  000000000009600000000001030000000000091000000000009700000000000910000000000000000000000010200006000000000000014700000000000001437100000000000113502013102100000010000000000000BRBVMFACNOR3125
012013090278BVMFJ42     070BVMF  FM/ED ON      NM000R$  000000000003800000000000420000000000030000000000003900000000000300000000000000000000000004700019000000000000048100000000000001880600000000000123502013102100000010000000000000BRBVMFACNOR3125
012013090278BVMFJ43     070BVMF    /ED ON      NM000R$  000000000001100000000000120000000000011000000000001100000000000120000000000000000000000000000002000000000000100000000000000001143000000000000133502013102100000010000000000000BRBVMFACNOR3125
012013090278BVMFL12     070BVMF    /ED ON      NM000R$  000000000011200000000001140000000000105000000000011000000000001050000000000100000000000000000006000000000000023000000000000002547000000000000115402013121600000010000000000000BRBVMFACNOR3123
012013090278BVMFL13     070BVMF    /ED ON      NM000R$  000000000004300000000000430000000000043000000000004300000000000430000000000041000000000004700013000000000000012000000000000000516000000000000128502013121600000010000000000000BRBVMFACNOR3125
012013090282BVMFU11     080BVMFE FM/ED ON      NM000R$  000000000000900000000000090000000000004000000000000500000000000080000000000006000000000000900089000000000000184300000000000001026300000000000108502013091600000010000000000000BRBVMFACNOR3125
012013090282BVMFU12     080BVMFE FM/ED ON      NM000R$  000000000002700000000000330000000000020000000000002400000000000290000000000020000000000004400067000000000000142300000000000003460800000000000118502013091600000010000000000000BRBVMFACNOR3125
012013090282BVMFU13     080BVMFE   /ED ON      NM000R$  000000000008900000000001020000000000089000000000009400000000001020000000000000000000000000000005000000000000007000000000000000661000000000000128502013091600000010000000000000BRBVMFACNOR3125
012013090282BVMFU40     080BVMFE FM/ED ON      NM000R$  000000000000200000000000040000000000002000000000000300000000000040000000000000000000000000000007000000000000014000000000000000044200000000000103502013091600000010000000000000BRBVMFACNOR3125
012013090282BVMFU41     080BVMFE FM/ED ON      NM000R$  000000000001100000000000140000000000011000000000001200000000000130000000000000000000000000000024000000000000133700000000000001670800000000000113502013091600000010000000000000BRBVMFACNOR3125
012013090282BVMFV10     080BVMFE   /ED ON      NM000R$  000000000000500000000000050000000000005000000000000500000000000050000000000000000000000000000001000000000000003200000000000000016000000000000098502013102100000010000000000000BRBVMFACNOR3125
012013090282BVMFV11     080BVMFE FM/ED ON      NM000R$  000000000001700000000000180000000000015000000000001500000000000160000000000000000000000005400021000000000000048700000000000000777800000000000108502013102100000010000000000000BRBVMFACNOR3125
012013090282BVMFV12     080BVMFE FM/ED ON      NM000R$  000000000004400000000000490000000000043000000000004400000000000460000000000000000000000020000029000000000000074200000000000003289300000000000118502013102100000010000000000000BRBVMFACNOR3125
012013090282BVMFV13     080BVMFE   /ED ON      NM000R$  000000000009500000000000950000000000095000000000009500000000000950000000000000000000000000000001000000000000001000000000000000095000000000000128502013102100000010000000000000BRBVMFACNOR3125
012013090282BVMFV40     080BVMFE FM/ED ON      NM000R$  000000000001000000000000100000000000010000000000001000000000000100000000000000000000000000000005000000000000015000000000000000150000000000000103502013102100000010000000000000BRBVMFACNOR3125
012013090282BVMFV41     080BVMFE FM/ED ON      NM000R$  000000000002700000000000270000000000027000000000002700000000000270000000000000000000000008000002000000000000007200000000000000194400000000000113502013102100000010000000000000BRBVMFACNOR3125
012013090282BVMFX11     080BVMFE   /ED ON      NM000R$  000000000003600000000000360000000000036000000000003600000000000360000000000000000000000000000001000000000000003000000000000000108000000000000108502013121600000010000000000000BRBVMFACNOR3125
012013090202CAMB4       010CAMBUCI     PN           R$  000000000018700000000001930000000000187000000000018800000000001870000000000188000000000019400007000000000000002300000000000000434300000000000000009999123100000010000000000000BRCAMBACNPR1117
012013090296CAMB4F      020CAMBUCI     PN           R$  000000000017000000000001700000000000170000000000017000000000001700000000000100000000000023500001000000000000000090000000000000015300000000000000009999123100000010000000000000BRCAMBACNPR1117
012013090202CARD3       010CSU CARDSYSTON      NM   R$  000000000032800000000003290000000000328000000000032800000000003290000000000321000000000032900006000000000000001400000000000000460100000000000000009999123100000010000000000000BRCARDACNOR9105
012013090202CBMA3       010COBRASMA    ON           R$  000000000000400000000000040000000000004000000000000400000000000040000000000004000000000000500002000000000000020000000000000000080000000000000000009999123100000010000000000000BRCBMAACNOR4124
012013090296CBMA3F      020COBRASMA    ON           R$  000000000000400000000000040000000000004000000000000400000000000040000000000004000000000000600002000000000000004054000000000000016216000000000000009999123100000010000000000000BRCBMAACNOR4124
012013090202CBMA4       010COBRASMA    PN           R$  000000000000400000000000040000000000004000000000000400000000000040000000000004000000000000500005000000000000050000000000000000200000000000000000009999123100000010000000000000BRCBMAACNPR1124
012013090296CBMA4F      020COBRASMA    PN           R$  000000000000400000000000040000000000004000000000000400000000000040000000000003000000000000400002000000000000003010000000000000012040000000000000009999123100000010000000000000BRCBMAACNPR1124
012013090208CCHI3       010CHIARELLI   ON           R$  000000000002600000000000260000000000024000000000002400000000000250000000000025000000000002600017000000000000260000000000000006370000000000000000009999123100000010000000000000BRCCHIACNOR5123
012013090296CCHI3F      020CHIARELLI   ON           R$  000000000002600000000000260000000000026000000000002600000000000260000000000023000000000002600003000000000000006000000000000000156000000000000000009999123100000010000000000000BRCCHIACNOR5123
012013090208CCHI4       010CHIARELLI   PN           R$  000000000001900000000000220000000000019000000000002000000000000220000000000019000000000002200004000000000000040000000000000000800000000000000000009999123100000010000000000000BRCCHIACNPR2122
012013090202CCPR3       010CYRE COM-CCPON      NM   R$  000000000209000000000021650000000002090000000000209000000000021000000000002100000000000216300006000000000000012600000000000026344100000000000000009999123100000010000000000000BRCCPRACNOR9107
012013090296CCPR3F      020CYRE COM-CCPON      NM   R$  000000000210000000000021890000000002100000000000217900000000021890000000002075000000000218600003000000000000000020000000000000043593000000000000009999123100000010000000000000BRCCPRACNOR9107
012013090202CCRO3       010CCR SA      ON      NM   R$  000000000174500000000017820000000001729000000000175400000000017400000000001740000000000174208804000000000003021300000000005301654700000000000000009999123100000010000000000000BRCCROACNOR2122
012013090296CCRO3F      020CCR SA      ON      NM   R$  000000000174600000000017790000000001735000000000175700000000017350000000001735000000000176900141000000000000004475000000000007863052000000000000009999123100000010000000000000BRCCROACNOR2122
012013090262CCRO3T      030CCR SA      ON      NM016R$  000000000175200000000017530000000001752000000000175200000000017530000000000000000000000000000002000000000000000100000000000000175233000000000000009999123100000010000000000000BRCCROACNOR2122
012013090262CCRO3T      030CCR SA      ON      NM030R$  000000000177900000000017800000000001779000000000177900000000017800000000000000000000000000000002000000000000002000000000000003559445000000000000009999123100000010000000000000BRCCROACNOR2122
012013090278CCROJ48     070CCRO        ON      NM000R$  000000000002600000000000260000000000026000000000002600000000000260000000000000000000000000000001000000000000002000000000000000052000000000000185002013102100000010000000000000BRCCROACNOR2122
012013090202CCXC3       010CCX CARVAO  ON      NM   R$  000000000014100000000001420000000000137000000000013900000000001380000000000138000000000013900767000000000001817100000000000253345000000000000000009999123100000010000000000000BRCCXCACNOR5100
012013090296CCXC3F      020CCX CARVAO  ON      NM   R$  000000000014000000000001400000000000135000000000013800000000001350000000000135000000000014600011000000000000000272000000000000037639000000000000009999123100000010000000000000BRCCXCACNOR5100
012013090262CCXC3T      030CCX CARVAO  ON      NM016R$  000000000014000000000001410000000000140000000000014000000000001410000000000000000000000000000004000000000000030000000000000004218900000000000000009999123100000010000000000000BRCCXCACNOR5100
012013090202CEBR5       010CEB         PNA          R$  000000000169000000000016900000000001690000000000169000000000016900000000001690000000000185000003000000000000000600000000000001014000000000000000009999123100000010000000000000BRCEBRACNPA8113
012013090202CEDO3       010CEDRO       ON      N1   R$  000000000097000000000009700000000000970000000000097000000000009700000000000970000000000100500001000000000000000200000000000000194000000000000000009999123100000010000000000000BRCEDOACNOR8094
012013090296CEDO3F      020CEDRO       ON      N1   R$  000000000090000000000009000000000000900000000000090000000000009000000000000930000000000100000002000000000000000030000000000000027000000000000000009999123100000010000000000000BRCEDOACNOR8094
012013090202CEDO4       010CEDRO       PN      N1   R$  000000000085100000000009350000000000851000000000089700000000009350000000000850000000000093500005000000000000000500000000000000448600000000000000009999123100000010000000000000BRCEDOACNPR5126
012013090296CEDO4F      020CEDRO       PN      N1   R$  000000000077800000000007780000000000778000000000077800000000007780000000000800000000000093500001000000000000000014000000000000010892000000000000009999123100000010000000000000BRCEDOACNPR5126
012013090212CEOC11B     010FII CEO CCP CI      MB   R$  000000000879500000000087950000000008600000000000867900000000086500000000008650000000000875000056000000000000004152000000000036037512000000000000009999123100000010000000000000BRCEOCCTF003109
012013090202CESP3       010CESP        ON      N1   R$  000000000173900000000017480000000001739000000000174300000000017480000000001705000000000174500004000000000000001400000000000002440500000000000000009999123100000010000000000000BRCESPACNOR3160
012013090296CESP3F      020CESP        ON      N1   R$  000000000171000000000017100000000001710000000000171000000000017100000000001565000000000176000002000000000000000080000000000000136800000000000000009999123100000010000000000000BRCESPACNOR3160
012013090202CESP6       010CESP        PNB     N1   R$  000000000214900000000021880000000002128000000000216000000000021600000000002160000000000217903510000000000000846700000000001829464300000000000000009999123100000010000000000000BRCESPACNPB4119
012013090296CESP6F      020CESP        PNB     N1   R$  000000000215000000000021870000000002061000000000213900000000021320000000002132000000000218600026000000000000000681000000000001456717000000000000009999123100000010000000000000BRCESPACNPB4119
012013090262CESP6T      030CESP        PNB     N1016R$  000000000216900000000021700000000002169000000000216900000000021700000000000000000000000000000002000000000000001000000000000002169288000000000000009999123100000010000000000000BRCESPACNPB4119
012013090202CGAS3       010COMGAS      ON           R$  000000000500100000000050010000000004998000000000499900000000049980000000004700000000000505000004000000000000001300000000000006499800000000000000009999123100000010000000000000BRCGASACNOR0132
012013090202CGAS5       010COMGAS      PNA          R$  000000000535000000000053720000000005303000000000534800000000053720000000005323000000000537200289000000000000113600000000000607625800000000000000009999123100000010000000000000BRCGASACNPA3129
012013090296CGAS5F      020COMGAS      PNA          R$  000000000531000000000053400000000005310000000000532300000000053400000000005305000000000540000002000000000000000090000000000000479100000000000000009999123100000010000000000000BRCGASACNPA3129
012013090202CGRA3       010GRAZZIOTIN  ON           R$  000000000164900000000016490000000001649000000000164900000000016490000000001560000000000164900001000000000000000100000000000000164900000000000000009999123100000010000000000000BRCGRAACNOR2061
012013090296CGRA3F      020GRAZZIOTIN  ON           R$  000000000159500000000015950000000001595000000000159500000000015950000000001525000000000170000001000000000000000012000000000000019140000000000000009999123100000010000000000000BRCGRAACNOR2061
012013090202CGRA4       010GRAZZIOTIN  PN           R$  000000000172000000000017200000000001700000000000171300000000017060000000001705000000000173500017000000000000024700000000000042335200000000000000009999123100000010000000000000BRCGRAACNPR9061
012013090296CGRA4F      020GRAZZIOTIN  PN           R$  000000000170500000000017050000000001705000000000170500000000017050000000001577000000000170000001000000000000000030000000000000051150000000000000009999123100000010000000000000BRCGRAACNPR9061
012013090202CIEL3       010CIELO       ON      NM   R$  000000000594900000000059700000000005829000000000587400000000058550000000005855000000000585605629000000000001358500000000007979893200000000000000009999123100000010000000000000BRCIELACNOR3111
012013090296CIEL3F      020CIELO       ON      NM   R$  000000000590100000000059600000000005827000000000587900000000058990000000005820000000000589900268000000000000006154000000000036178716000000000000009999123100000010000000000000BRCIELACNOR3111
012013090262CIEL3T      030CIELO       ON      NM030R$  000000000596400000000059650000000005964000000000596400000000059650000000000000000000000000000002000000000000001200000000000007157171000000000000009999123100000010000000000000BRCIELACNOR3111
012013090262CIEL3T      030CIELO       ON      NM060R$  000000000593500000000059360000000005935000000000593500000000059360000000000000000000000000000002000000000000002000000000000011871679000000000000009999123100000010000000000000BRCIELACNOR3111
012013090278CIELJ60     070CIEL        ON      NM000R$  000000000004500000000000450000000000045000000000004500000000000450000000000000000000000000000002000000000000000200000000000000009000000000000600002013102100000010000000000000BRCIELACNOR3111
012013090202CLSC4       010CELESC      PN      N2   R$  000000000174500000000018370000000001745000000000179000000000017850000000001770000000000178500032000000000000010700000000000019157100000000000000009999123100000010000000000000BRCLSCACNPR3107
012013090202CMIG3       010CEMIG       ON      N1   R$  000000000189500000000019200000000001860000000000188800000000018600000000001860000000000187900218000000000000054000000000000101982300000000000000009999123100000010000000000000BRCMIGACNOR6208
012013090296CMIG3F      020CEMIG       ON      N1   R$  000000000190000000000019800000000001875000000000189900000000018760000000001865000000000187600038000000000000000820000000000001557744000000000000009999123100000010000000000000BRCMIGACNOR6208
012013090202CMIG4       010CEMIG       PN      N1   R$  000000000189200000000019290000000001874000000000189900000000018940000000001893000000000190312660000000000002919600000000005544298300000000000000009999123100000010000000000000BRCMIGACNPR3208
012013090296CMIG4F      020CEMIG       PN      N1   R$  000000000190000000000019490000000001879000000000190300000000019000000000001896000000000190000957000000000000018560000000000035331157000000000000009999123100000010000000000000BRCMIGACNPR3208
012013090262CMIG4T      030CEMIG       PN      N1030R$  000000000192700000000019280000000001907000000000191700000000019080000000000000000000000000000004000000000000002000000000000003835035000000000000009999123100000010000000000000BRCMIGACNPR3208
012013090278CMIGI19     070CMIG        PN      N1000R$  000000000003800000000000380000000000038000000000003800000000000380000000000000000000000005700001000000000000000200000000000000007600000000000190002013091600000010000000000000BRCMIGACNPR3208
012013090278CMIGI20     070CMIG        PN      N1000R$  000000000002100000000000210000000000021000000000002100000000000210000000000000000000000003000002000000000000000500000000000000010500000000000200002013091600000010000000000000BRCMIGACNPR3208
012013090278CMIGJ49     070CMIG        PN      N1000R$  000000000001000000000000100000000000010000000000001000000000000100000000000012000000000006000003000000000000002500000000000000025000000000000195002013102100000010000000000000BRCMIGACNPR3208
012013090212CNES11B     010FII CENESP  CI  ER  MB   R$  000000001269300000000126930000000012306000000001250600000000126890000000012401000000001260000006000000000000000157000000000001963511000000000000009999123100000010000000000000BRCNESCTF001125
012013090202COCE3       010COELCE      ON           R$  000000000414900000000042680000000004081000000000416600000000042680000000004100000000000429000012000000000000001700000000000007082900000000000000009999123100000010000000000000BRCOCEACNOR0132
012013090296COCE3F      020COELCE      ON           R$  000000000416000000000041600000000004160000000000416000000000041600000000004050000000000470000001000000000000000050000000000000208000000000000000009999123100000010000000000000BRCOCEACNOR0132
012013090202COCE5       010COELCE      PNA          R$  000000000412000000000041410000000004001000000000408500000000041190000000004072000000000411900167000000000000023100000000000094374700000000000000009999123100000010000000000000BRCOCEACNPA3133
012013090296COCE5F      020COELCE      PNA          R$  000000000408000000000041110000000004042000000000408200000000040420000000004020000000000410000035000000000000000632000000000002579933000000000000009999123100000010000000000000BRCOCEACNPA3133
012013090202CPFE3       010CPFL ENERGIAON  ED  NM   R$  000000000196600000000020360000000001949000000000200700000000019800000000001977000000000198003580000000000000681300000000001367382200000000000000009999123100000010000000000000BRCPFEACNOR0122
012013090296CPFE3F      020CPFL ENERGIAON  ED  NM   R$  000000000194500000000020880000000001909000000000198600000000019680000000001965000000000198700120000000000000003203000000000006362967000000000000009999123100000010000000000000BRCPFEACNOR0122
012013090202CPLE3       010COPEL       ON      N1   R$  000000000208900000000021400000000002065000000000210600000000020990000000002080000000000209900095000000000000047400000000000099828300000000000000009999123100000010000000000000BRCPLEACNOR8128
012013090202CPLE6       010COPEL       PNB     N1   R$  000000000288400000000029730000000002863000000000293500000000029330000000002933000000000294001842000000000000316700000000000929791100000000000000009999123100000010000000000000BRCPLEACNPB9125
012013090296CPLE6F      020COPEL       PNB     N1   R$  000000000287000000000030440000000002753000000000293300000000028820000000002845000000000291500038000000000000000763000000000002237084000000000000009999123100000010000000000000BRCPLEACNPB9125
012013090202CPRE3       010CPFL RENOVAVON      NM   R$  000000000119900000000011990000000001191000000000119700000000011980000000001190000000000119800005000000000000005200000000000006229000000000000000009999123100000010000000000000BRCPREACNOR5100
012013090296CPRE3F      020CPFL RENOVAVON      NM   R$  000000000116900000000011690000000001169000000000116900000000011690000000001169000000000119900001000000000000000068000000000000079492000000000000009999123100000010000000000000BRCPREACNOR5100
012013090202CRDE3       010CR2         ON      NM   R$  000000000042000000000004240000000000415000000000041900000000004150000000000415000000000042500006000000000000007900000000000003311000000000000000009999123100000010000000000000BRCRDEACNOR1108
012013090202CREM3       010CREMER      ON  EJ  NM   R$  000000000145400000000014540000000001417000000000145200000000014170000000001417000000000142500044000000000000325300000000000472386400000000000000009999123100000010000000000000BRCREMACNOR2167
012013090296CREM3F      020CREMER      ON  EJ  NM   R$  000000000152900000000015300000000001529000000000152900000000015300000000001370000000000164700002000000000000000086000000000000131499000000000000009999123100000010000000000000BRCREMACNOR2167
012013090202CRIV4       010ALFA FINANC PN           R$  000000000045000000000004570000000000440000000000044900000000004560000000000445000000000045600011000000000000003500000000000001574300000000000000009999123100000010000000000000BRCRIVACNPR1190
012013090202CRUZ3       010SOUZA CRUZ  ON           R$  000000000251900000000025980000000002519000000000256900000000025800000000002579000000000258004418000000000001399400000000003595252500000000000000009999123100000010000000000000BRCRUZACNOR0246
012013090296CRUZ3F      020SOUZA CRUZ  ON           R$  000000000252000000000026420000000002500000000000256000000000025600000000002560000000000258300169000000000000004535000000000011613213000000000000009999123100000010000000000000BRCRUZACNOR0246
012013090262CRUZ3T      030SOUZA CRUZ  ON        016R$  000000000258300000000025840000000002583000000000258300000000025840000000000000000000000000000002000000000000001500000000000003875710000000000000009999123100000010000000000000BRCRUZACNOR0246
012013090278CRUZL34     070CRUZ        ON        000R$  000000000000300000000000030000000000003000000000000300000000000030000000000000000000000000000002000000000000001000000000000000003000000000000340002013121600000010000000000000BRCRUZACNOR0246
012013090282CRUZU28     080CRUZE       ON        000R$  000000000021600000000002160000000000216000000000021600000000002160000000000000000000000000000001000000000000001700000000000000367200000000000280002013091600000010000000000000BRCRUZACNOR0246
012013090282CRUZX57     080CRUZE       ON        000R$  000000000031500000000003150000000000315000000000031500000000003150000000000000000000000000000002000000000000001000000000000000315000000000000275002013121600000010000000000000BRCRUZACNOR0246
012013090202CSAN3       010COSAN       ON      NM   R$  000000000420000000000042800000000004153000000000420500000000042000000000004199000000000420003963000000000000894100000000003759777600000000000000009999123100000010000000000000BRCSANACNOR6108
012013090296CSAN3F      020COSAN       ON      NM   R$  000000000419000000000042800000000004100000000000422100000000042200000000004151000000000421900063000000000000001158000000000004888713000000000000009999123100000010000000000000BRCSANACNOR6108
012013090262CSAN3T      030COSAN       ON      NM016R$  000000000426600000000042670000000004266000000000426600000000042670000000000000000000000000000002000000000000001000000000000004266266000000000000009999123100000010000000000000BRCSANACNOR6108
012013090262CSAN3T      030COSAN       ON      NM017R$  000000000418500000000041860000000004183000000000418400000000041860000000000000000000000000000008000000000000003300000000000013808027000000000000009999123100000010000000000000BRCSANACNOR6108
012013090262CSAN3T      030COSAN       ON      NM030R$  000000000422600000000042270000000004226000000000422600000000042270000000000000000000000000000002000000000000000500000000000002113399000000000000009999123100000010000000000000BRCSANACNOR6108
012013090278CSANJ44     070CSAN        ON      NM000R$  000000000007100000000000710000000000071000000000007100000000000710000000000000000000000000000001000000000000000900000000000000063900000000000440002013102100000010000000000000BRCSANACNOR6108
012013090278CSANJ45     070CSAN        ON      NM000R$  000000000003800000000000380000000000038000000000003800000000000380000000000000000000000000000002000000000000003000000000000000114000000000000450002013102100000010000000000000BRCSANACNOR6108
012013090202CSMG3       010COPASA      ON      NM   R$  000000000291000000000029280000000002853000000000291700000000029080000000002908000000000291602418000000000001000800000000002919368400000000000000009999123100000010000000000000BRCSMGACNOR5127
012013090296CSMG3F      020COPASA      ON      NM   R$  000000000292800000000029490000000002615000000000286000000000029490000000002750000000000294900018000000000000000578000000000001653551000000000000009999123100000010000000000000BRCSMGACNOR5127
012013090278CSMGJ31     070CSMG        ON      NM000R$  000000000001800000000000180000000000018000000000001800000000000180000000000000000000000000000002000000000000000400000000000000007200000000000310002013102100000010000000000000BRCSMGACNOR5127
012013090214CSMO11      010ISHARES CSMOCI           R$  000000000466500000000046720000000004650000000000465400000000046720000000004597000000000475900005000000000000000290000000000001349890000000000000009999123100000010000000000000BRCSMOCTF002100
012013090202CSNA3       010SID NACIONALON           R$  000000000086100000000008980000000000860000000000088400000000008870000000000887000000000088816896000000000007336400000000006492222600000000000000009999123100000010000000000000BRCSNAACNOR6243
012013090296CSNA3F      020SID NACIONALON           R$  000000000086000000000008970000000000860000000000088200000000008820000000000876000000000088800139000000000000004405000000000003888314000000000000009999123100000010000000000000BRCSNAACNOR6243
012013090262CSNA3T      030SID NACIONALON        016R$  000000000089000000000008910000000000890000000000089000000000008910000000000000000000000000000002000000000000010000000000000008907254000000000000009999123100000010000000000000BRCSNAACNOR6243
012013090278CSNAI10     070CSNA        ON        000R$  000000000000500000000000050000000000005000000000000500000000000050000000000000000000000000400001000000000000004000000000000000020000000000000100002013091600000010000000000000BRCSNAACNOR6243
012013090278CSNAI20     070CSNA        ON        000R$  000000000000300000000000030000000000003000000000000300000000000030000000000000000000000000000001000000000000003700000000000000011100000000000102002013091600000010000000000000BRCSNAACNOR6243
012013090278CSNAI7      070CSNA        ON        000R$  000000000021500000000002150000000000215000000000021500000000002150000000000120000000000000000001000000000000001000000000000000215000000000000068002013091600000010000000000000BRCSNAACNOR6242
012013090278CSNAI76     070CSNA        ON        000R$  000000000015000000000001500000000000150000000000015000000000001500000000000000000000000000000001000000000000001000000000000000150000000000000074002013091600000010000000000000BRCSNAACNOR6242
012013090278CSNAI8      070CSNA        ON        000R$  000000000011800000000001180000000000118000000000011800000000001180000000000095000000000000000001000000000000000500000000000000059000000000000078002013091600000010000000000000BRCSNAACNOR6242
012013090278CSNAI80     070CSNA  FM    ON        000R$  000000000005000000000000500000000000050000000000005000000000000500000000000000000000000000000001000000000000001000000000000000050000000000000086002013091600000010000000000000BRCSNAACNOR6243
012013090278CSNAI82     070CSNA  FM    ON        000R$  000000000009200000000001010000000000087000000000009600000000000870000000000000000000000000000013000000000000028500000000000002738000000000000080002013091600000010000000000000BRCSNAACNOR6242
012013090278CSNAI84     070CSNA  FM    ON        000R$  000000000006100000000000730000000000059000000000006500000000000650000000000011000000000000000020000000000000041600000000000002715700000000000084002013091600000010000000000000BRCSNAACNOR6243
012013090278CSNAI88     070CSNA  FM    ON        000R$  000000000003900000000000390000000000038000000000003800000000000380000000000000000000000000000004000000000000008400000000000000327200000000000088002013091600000010000000000000BRCSNAACNOR6243
012013090278CSNAI9      070CSNA  FM    ON        000R$  000000000002500000000000330000000000024000000000002700000000000280000000000025000000000002900018000000000000025300000000000000700800000000000090002013091600000010000000000000BRCSNAACNOR6243
012013090278CSNAI92     070CSNA        ON        000R$  000000000002100000000000220000000000016000000000001900000000000160000000000000000000000002400004000000000000002100000000000000040100000000000092002013091600000010000000000000BRCSNAACNOR6243
012013090278CSNAJ10     070CSNA        ON        000R$  000000000002100000000000210000000000021000000000002100000000000210000000000000000000000002200002000000000000005000000000000000105000000000000100002013102100000010000000000000BRCSNAACNOR6243
012013090278CSNAJ8      070CSNA        ON        000R$  000000000013400000000001340000000000134000000000013400000000001340000000000000000000000013800008000000000000006300000000000000844200000000000078002013102100000010000000000000BRCSNAACNOR6242
012013090278CSNAJ82     070CSNA  FM    ON        000R$  000000000011700000000001210000000000113000000000011800000000001200000000000000000000000000000015000000000000029000000000000003435500000000000080002013102100000010000000000000BRCSNAACNOR6242
012013090278CSNAJ86     070CSNA  FM    ON        000R$  000000000009400000000000940000000000094000000000009400000000000940000000000000000000000000000001000000000000003500000000000000329000000000000084002013102100000010000000000000BRCSNAACNOR6242
012013090278CSNAJ9      070CSNA  FM    ON        000R$  000000000006500000000000650000000000065000000000006500000000000650000000000043000000000000000003000000000000009200000000000000598000000000000088002013102100000010000000000000BRCSNAACNOR6242
012013090282CSNAU80     080CSNAE FM    ON        000R$  000000000002300000000000230000000000023000000000002300000000000230000000000000000000000000000004000000000000004000000000000000092000000000000086002013091600000010000000000000BRCSNAACNOR6243
012013090282CSNAU88     080CSNAE FM    ON        000R$  000000000003000000000000360000000000030000000000003100000000000350000000000000000000000003500029000000000000136700000000000004370900000000000088002013091600000010000000000000BRCSNAACNOR6243
012013090282CSNAU9      080CSNAE       ON        000R$  000000000004900000000000520000000000037000000000004600000000000400000000000039000000000005400026000000000000058900000000000002767100000000000090002013091600000010000000000000BRCSNAACNOR6243
012013090282CSNAV8      080CSNAE       ON        000R$  000000000002400000000000240000000000021000000000002100000000000210000000000022000000000003100017000000000000008000000000000000173200000000000078002013102100000010000000000000BRCSNAACNOR6242
012013090282CSNAV86     080CSNAE FM    ON        000R$  000000000003300000000000350000000000033000000000003300000000000350000000000000000000000000000010000000000000029400000000000000989800000000000084002013102100000010000000000000BRCSNAACNOR6242
012013090282CSNAW9      080CSNAE       ON        000R$  000000000006900000000000690000000000069000000000006900000000000690000000000000000000000000000001000000000000001000000000000000069000000000000090002013111800000010000000000000BRCSNAACNOR6243
012013090202CTAX11      010CONTAX      UNT     N2   R$  000000000178000000000018500000000001750000000000180800000000018300000000001802000000000183000108000000000000193400000000000349797900000000000000009999123100000010000000000000BRCTAXCDAM19100
012013090296CTAX11F     020CONTAX      UNT     N2   R$  000000000175500000000018190000000001755000000000177800000000017950000000001615000000000179000014000000000000000418000000000000743401000000000000009999123100000010000000000000BRCTAXCDAM19100
012013090262CTAX11T     030CONTAX      UNT     N2030R$  000000000183200000000018330000000001832000000000183200000000018330000000000000000000000000000006000000000000100000000000000183264249000000000000009999123100000010000000000000BRCTAXCDAM19100
012013090202CTAX3       010CONTAX      ON      N2   R$  000000000037100000000004000000000000371000000000038700000000003900000000000351000000000040000027000000000000007200000000000002790300000000000000009999123100000010000000000000BRCTAXACNOR3113
012013090202CTAX4       010CONTAX      PN      N2   R$  000000000034900000000003690000000000321000000000035500000000003650000000000365000000000036800228000000000000144500000000000051307900000000000000009999123100000010000000000000BRCTAXACNPR0114
012013090202CTIP3       010CETIP       ON      NM   R$  000000000235500000000023700000000002303000000000232500000000023190000000002315000000000231906435000000000003474300000000008078762000000000000000009999123100000010000000000000BRCTIPACNOR2119
012013090296CTIP3F      020CETIP       ON      NM   R$  000000000243000000000024300000000002301000000000234400000000023640000000002301000000000236400126000000000000003935000000000009226086000000000000009999123100000010000000000000BRCTIPACNOR2119
012013090262CTIP3T      030CETIP       ON      NM030R$  000000000235700000000023580000000002357000000000235700000000023580000000000000000000000000000002000000000000000600000000000001414573000000000000009999123100000010000000000000BRCTIPACNOR2119
012013090202CTKA4       010KARSTEN     PN           R$  000000000009000000000000900000000000090000000000009000000000000900000000000089000000000009000002000000000000000200000000000000018000000000000000009999123100000010000000000000BRCTKAACNPR7041
012013090202CTNM4       010COTEMINAS   PN           R$  000000000023000000000002300000000000229000000000022900000000002290000000000229000000000023800004000000000000005700000000000001310300000000000000009999123100000010000000000000BRCTNMACNPR6128
012013090202CTSA3       010SANTANENSE  ON           R$  000000000057900000000005800000000000579000000000057900000000005800000000000563000000000059000006000000000000017200000000000009975400000000000000009999123100000010000000000000BRCTSAACNOR3051
012013090212CXCE11B     010FII CX CEDAECI  ER  MB   R$  000000019600100000001979980000000196000000000019650000000001979980000000192000000000019800000003000000000000000004000000000000786000000000000000009999123100000010000000000000BRCXCECTF004138
012013090202CYRE3       010CYRELA REALTON      NM   R$  000000000159100000000016100000000001578000000000159200000000016060000000001599000000000160607255000000000002297800000000003658675500000000000000009999123100000010000000000000BRCYREACNOR7125
012013090296CYRE3F      020CYRELA REALTON      NM   R$  000000000159500000000016490000000001560000000000158900000000015750000000001575000000000163000040000000000000001094000000000001738223000000000000009999123100000010000000000000BRCYREACNOR7125
012013090262CYRE3T      030CYRELA REALTON      NM030R$  000000000160000000000016010000000001600000000000160000000000016010000000000000000000000000000002000000000000000600000000000000960169000000000000009999123100000010000000000000BRCYREACNOR7125
012013090278CYREH18     070CYRE        ON      NM000R$  000000000014200000000001430000000000142000000000014200000000001430000000000000000000000000000002000000000000372000000000000053010000000000000180002014081800000010000000000000BRCYREACNOR7125
012013090278CYREI16     070CYRE  FM    ON      NM000R$  000000000004600000000000460000000000046000000000004600000000000460000000000000000000000000000001000000000000003500000000000000161000000000000160002013091600000010000000000000BRCYREACNOR7125
012013090278CYREI17     070CYRE  FM    ON      NM000R$  000000000000900000000000100000000000009000000000000900000000000100000000000000000000000000000005000000000000012500000000000000112600000000000170002013091600000010000000000000BRCYREACNOR7125
012013090278CYREI45     070CYRE  FM    ON      NM000R$  000000000008000000000000800000000000069000000000007500000000000690000000000000000000000000000003000000000000007300000000000000552700000000000155002013091600000010000000000000BRCYREACNOR7125
012013090278CYREI46     070CYRE  FM    ON      NM000R$  000000000002000000000000200000000000020000000000002000000000000200000000000000000000000000000003000000000000010500000000000000210000000000000165002013091600000010000000000000BRCYREACNOR7125
012013090278CYREI47     070CYRE  FM    ON      NM000R$  000000000000300000000000030000000000003000000000000300000000000030000000000000000000000000000004000000000000014000000000000000042000000000000175002013091600000010000000000000BRCYREACNOR7125
012013090278CYREJ16     070CYRE  FM    ON      NM000R$  000000000008900000000000890000000000089000000000008900000000000890000000000000000000000000000001000000000000003200000000000000284800000000000160002013102100000010000000000000BRCYREACNOR7125
012013090278CYREJ17     070CYRE  FM    ON      NM000R$  000000000003900000000000390000000000039000000000003900000000000390000000000000000000000000000001000000000000000300000000000000011700000000000170002013102100000010000000000000BRCYREACNOR7125
012013090278CYREJ45     070CYRE  FM    ON      NM000R$  000000000012000000000001200000000000111000000000011300000000001120000000000000000000000000000004000000000000014000000000000001589000000000000155002013102100000010000000000000BRCYREACNOR7125
012013090278CYREJ57     070CYREE       ON      NM000R$  000000000003000000000000300000000000030000000000003000000000000300000000000000000000000000000001000000000000059000000000000001770000000000000172502013102100000010000000000000BRCYREACNOR7125
012013090282CYREU16     080CYREE FM    ON      NM000R$  000000000003800000000000380000000000038000000000003800000000000380000000000000000000000000000001000000000000000100000000000000003800000000000160002013091600000010000000000000BRCYREACNOR7125
012013090282CYREU46     080CYREE FM    ON      NM000R$  000000000006500000000000730000000000065000000000006800000000000730000000000000000000000000000004000000000000010600000000000000721100000000000165002013091600000010000000000000BRCYREACNOR7125
012013090282CYREV15     080CYREE FM    ON      NM000R$  000000000004000000000000400000000000040000000000004000000000000400000000000000000000000000000002000000000000059000000000000002360000000000000150002013102100000010000000000000BRCYREACNOR7125
012013090282CYREV16     080CYREE FM    ON      NM000R$  000000000007700000000000770000000000077000000000007700000000000770000000000000000000000000000002000000000000059000000000000004543000000000000160002013102100000010000000000000BRCYREACNOR7125
012013090282CYREV46     080CYREE FM    ON      NM000R$  000000000009200000000000980000000000092000000000009600000000000960000000000000000000000000000004000000000000013700000000000001316400000000000165002013102100000010000000000000BRCYREACNOR7125
012013090202CZLT33      010COSAN LTD   DR3          R$  000000000337800000000033780000000003245000000000326100000000032800000000003270000000000328000169000000000000060700000000000197969500000000000000009999123100000010000000000000BRCZLTBDR009105
012013090296CZLT33F     020COSAN LTD   DR3          R$  000000000320000000000032000000000003200000000000320000000000032000000000003200000000000337800001000000000000000024000000000000076800000000000000009999123100000010000000000000BRCZLTBDR009105
012013090202DAGB33      010DUFRY AG    DR3          R$  000000002900000000000325000000000029000000000003215900000000325000000000031900000000003250000056000000000000005047000000000162309015000000000000009999123100000010000000000000BRDAGBBDR008100
012013090202DASA3       010DASA        ON      NM   R$  000000000111100000000011390000000001108000000000112200000000011210000000001112000000000112105167000000000002082400000000002338078900000000000000009999123100000010000000000000BRDASAACNOR1108
012013090296DASA3F      020DASA        ON      NM   R$  000000000109100000000011890000000001091000000000111200000000011060000000001105000000000112100028000000000000000920000000000001023827000000000000009999123100000010000000000000BRDASAACNOR1108
012013090202DAYC4       010DAYCOVAL    PN      N2   R$  000000000078800000000007880000000000755000000000076800000000007600000000000759000000000076000201000000000000136600000000000105018100000000000000009999123100000010000000000000BRDAYCACNPR2128
012013090296DAYC4F      020DAYCOVAL    PN      N2   R$  000000000076800000000007680000000000768000000000076800000000007680000000000769000000000077200001000000000000000029000000000000022272000000000000009999123100000010000000000000BRDAYCACNPR2128
012013090202DIRR3       010DIRECIONAL  ON      NM   R$  000000000121000000000012460000000001198000000000121700000000012460000000001240000000000124601455000000000000303600000000000369536800000000000000009999123100000010000000000000BRDIRRACNOR0104
012013090296DIRR3F      020DIRECIONAL  ON      NM   R$  000000000120700000000012490000000001169000000000120500000000012330000000001230000000000127400171000000000000003983000000000004800193000000000000009999123100000010000000000000BRDIRRACNOR0104
012013090214DIVO11      010IT NOW IDIV CI           R$  000000000310200000000032400000000003102000000000318300000000032400000000003112000000000324000071000000000000016220000000000051637890000000000000009999123100000010000000000000BRDIVOCTF002100
012013090296DIVO11F     020IT NOW IDIV CI           R$  000000000310000000000033000000000003000000000000309100000000033000000000003022000000000330000009000000000000000026000000000000080366000000000000009999123100000010000000000000BRDIVOCTF002100
012013090202DTEX3       010DURATEX     ON      NM   R$  000000000122100000000012580000000001217000000000123900000000012480000000001242000000000124807304000000000001775300000000002200799400000000000000009999123100000010000000000000BRDTEXACNOR3115
012013090296DTEX3F      020DURATEX     ON      NM   R$  000000000123500000000012700000000001213000000000123700000000012700000000001237000000000126900072000000000000002214000000000002740312000000000000009999123100000010000000000000BRDTEXACNOR3115
012013090202EALT4       010ACO ALTONA  PN           R$  000000000260000000000026000000000002600000000000260000000000026000000000002550000000000260000001000000000000000100000000000000260000000000000000009999123100000010000000000000BREALTACNPR1123
012013090296EBTP3F      020EMBRATEL PARON *         R$  000000000090000000000009100000000000900000000000090500000000009100000000000901000000000091700004000000000000023074000000000000020884000000000000009999123100010000000000000000BREBTPACNOR3115
012013090202EBTP4       010EMBRATEL PARPN *         R$  000000000090100000000009010000000000900000000000090000000000009000000000000890000000000097900006000000000002000000000000000001800400000000000000009999123100010000000000000000BREBTPACNPR0120
012013090296EBTP4F      020EMBRATEL PARPN *         R$  000000000090400000000009500000000000904000000000090600000000009500000000000908000000000095000004000000000000014193000000000000012859000000000000009999123100010000000000000000BREBTPACNPR0120
012013090214ECOO11      010ISHARES ECOOCI           R$  000000000526000000000053150000000005133000000000525500000000052500000000004900000000000531000180000000000000058400000000000306921330000000000000009999123100000010000000000000BRECOOCTF008100
012013090296ECOO11F     020ISHARES ECOOCI           R$  000000000515100000000053000000000005151000000000520900000000053000000000005151000000000530000004000000000000000017000000000000088564000000000000009999123100000010000000000000BRECOOCTF008100
012013090202ECOR3       010ECORODOVIAS ON      NM   R$  000000000153100000000015520000000001508000000000153100000000015360000000001525000000000153602543000000000000671300000000001027970800000000000000009999123100000010000000000000BRECORACNOR8106
012013090296ECOR3F      020ECORODOVIAS ON      NM   R$  000000000151300000000016000000000001481000000000152900000000014890000000001480000000000154900033000000000000000852000000000001303096000000000000009999123100000010000000000000BRECORACNOR8106
012013090212EDGA11B     010FII GALERIA CI  ER  MB   R$  000000000790000000000080000000000007900000000000796200000000079500000000007901000000000795000070000000000000014282000000000113725941000000000000009999123100000010000000000000BREDGACTF001111
012013090202ELET3       010ELETROBRAS  ON      N1   R$  000000000050500000000005250000000000502000000000051500000000005200000000000519000000000052008131000000000003978700000000002051113200000000000000009999123100000010000000000000BRELETACNOR6151
012013090296ELET3F      020ELETROBRAS  ON      N1   R$  000000000051000000000005250000000000481000000000051200000000005250000000000518000000000052500054000000000000001582000000000000810832000000000000009999123100000010000000000000BRELETACNOR6151
012013090262ELET3T      030ELETROBRAS  ON      N1030R$  000000000052000000000005220000000000520000000000052100000000005220000000000000000000000000000004000000000000021000000000000010955263000000000000009999123100000010000000000000BRELETACNOR6151
012013090262ELET3T      030ELETROBRAS  ON      N1060R$  000000000053000000000005310000000000530000000000053000000000005310000000000000000000000000000002000000000000002000000000000001061462000000000000009999123100000010000000000000BRELETACNOR6151
012013090262ELET3T      030ELETROBRAS  ON      N1091R$  000000000052200000000005230000000000522000000000052200000000005230000000000000000000000000000002000000000000013000000000000006795110000000000000009999123100000010000000000000BRELETACNOR6151
012013090262ELET3T      030ELETROBRAS  ON      N1122R$  000000000053700000000005380000000000537000000000053700000000005380000000000000000000000000000002000000000000030000000000000016132458000000000000009999123100000010000000000000BRELETACNOR6151
012013090202ELET6       010ELETROBRAS  PNB     N1   R$  000000000092700000000009400000000000922000000000093200000000009350000000000934000000000093504364000000000001773000000000001653144800000000000000009999123100000010000000000000BRELETACNPB7066
012013090296ELET6F      020ELETROBRAS  PNB     N1   R$  000000000091600000000009400000000000916000000000092800000000009300000000000934000000000094000051000000000000001500000000000001393411000000000000009999123100000010000000000000BRELETACNPB7066
012013090262ELET6T      030ELETROBRAS  PNB     N1060R$  000000000094000000000009410000000000940000000000094000000000009410000000000000000000000000000002000000000000020000000000000018812538000000000000009999123100000010000000000000BRELETACNPB7066
012013090278ELETJ10     070ELET        PNB     N1000R$  000000000002100000000000210000000000021000000000002100000000000210000000000019000000000000000002000000000000008900000000000000186900000000000100002013102100000010000000000000BRELETACNPB7066
012013090202ELPL4       010ELETROPAULO PN      N2   R$  000000000074200000000007650000000000740000000000075500000000007650000000000763000000000076505528000000000001991300000000001505498000000000000000009999123100000010000000000000BRELPLACNPR6118
012013090296ELPL4F      020ELETROPAULO PN      N2   R$  000000000074000000000007950000000000733000000000075700000000007650000000000751000000000076500070000000000000001739000000000001317814000000000000009999123100000010000000000000BRELPLACNPR6118
012013090262ELPL4T      030ELETROPAULO PN      N2060R$  000000000076500000000007720000000000765000000000076700000000007720000000000000000000000000000004000000000000007000000000000005369648000000000000009999123100000010000000000000BRELPLACNPR6118
012013090262ELPL4T      030ELETROPAULO PN      N2091R$  000000000077100000000007720000000000771000000000077100000000007720000000000000000000000000000002000000000000001000000000000000771649000000000000009999123100000010000000000000BRELPLACNPR6118
012013090278ELPLJ8      070ELPL        PN      N2000R$  000000000004000000000000500000000000040000000000004500000000000500000000000030000000000006000003000000000000001200000000000000054000000000000080002013102100000010000000000000BRELPLACNPR6118
012013090202EMAE4       010EMAE        PN           R$  000000000063900000000006420000000000585000000000060100000000005850000000000582000000000064000014000000000000002700000000000001623400000000000000009999123100000010000000000000BREMAEACNPR1106
012013090296EMAE4F      020EMAE        PN           R$  000000000058000000000005800000000000580000000000058000000000005800000000000580000000000000000002000000000000000092000000000000053360000000000000009999123100000010000000000000BREMAEACNPR1106
012013090202EMBR3       010EMBRAER     ON      NM   R$  000000000197900000000020420000000001924000000000196600000000019450000000001944000000000194507409000000000001536000000000003020438300000000000000009999123100000010000000000000BREMBRACNOR4164
012013090296EMBR3F      020EMBRAER     ON      NM   R$  000000000193600000000020930000000001907000000000196800000000019840000000001920000000000198400087000000000000002265000000000004458277000000000000009999123100000010000000000000BREMBRACNOR4164
012013090202ENBR3       010ENERGIAS BR ON      NM   R$  000000000107800000000011270000000001061000000000110000000000011090000000001109000000000111106356000000000002225600000000002448743300000000000000009999123100000010000000000000BRENBRACNOR2115
012013090296ENBR3F      020ENERGIAS BR ON      NM   R$  000000000114700000000011540000000001051000000000110000000000011540000000001081000000000115400039000000000000001206000000000001327528000000000000009999123100000010000000000000BRENBRACNOR2115
012013090202ENGI11      010ENERGISA    UNT          R$  000000000122500000000012250000000001225000000000122500000000012250000000001225000000000124900001000000000000003000000000000003675000000000000000009999123100000010000000000000BRENGICDAM16110
012013090202ENGI3       010ENERGISA    ON           R$  000000000024500000000002450000000000245000000000024500000000002450000000000230000000000024500001000000000000000100000000000000024500000000000000009999123100000010000000000000BRENGIACNOR0120
012013090202ENGI4       010ENERGISA    PN           R$  000000000023000000000002300000000000230000000000023000000000002300000000000225000000000024500004000000000000003500000000000000805000000000000000009999123100000010000000000000BRENGIACNPR7116
012013090296ENGI4F      020ENERGISA    PN           R$  000000000023500000000002350000000000235000000000023500000000002350000000000235000000000026000001000000000000000050000000000000011750000000000000009999123100000010000000000000BRENGIACNPR7116
012013090202ENMA3B      010CEMAR       ON      MB   R$  000000000129000000000012900000000001290000000000129000000000012900000000001220000000000129300001000000000000000200000000000000258000000000000000009999123100000010000000000000BRENMAACNOR5110
012013090296ENMA3BF     020CEMAR       ON      MB   R$  000000000128500000000012850000000001285000000000128500000000012850000000001200000000000128500001000000000000000016000000000000020560000000000000009999123100000010000000000000BRENMAACNOR5110
012013090202EQTL3       010EQUATORIAL  ON      NM   R$  000000000199900000000020160000000001973000000000199500000000020000000000002000000000000200602330000000000000412400000000000822982300000000000000009999123100000010000000000000BREQTLACNOR0114
012013090296EQTL3F      020EQUATORIAL  ON      NM   R$  000000000198000000000020190000000001800000000000198600000000019800000000001902000000000198000284000000000000006466000000000012845187000000000000009999123100000010000000000000BREQTLACNOR0114
012013090262EQTL3T      030EQUATORIAL  ON      NM030R$  000000000200500000000020060000000002005000000000200500000000020060000000000000000000000000000002000000000000001000000000000002005944000000000000009999123100000010000000000000BREQTLACNOR0114
