00COTAHIST.2013BOVESPA 20130705                                                                                                                                                                                                                      
012013070502AAPL11B     010APPLE       DRN     MB   R$  000000000940500000000094650000000009405000000000940800000000094650000000009365000000000946500002000000000000001900000000000017875500000000000000009999123100000010000000000000BRAAPLBDR004104
012013070510ABCB2       010ABC BRASIL  DIR PRE N2   R$  000000000020000000000002000000000000200000000000020000000000002000000000000150000000000020000002000000000000000200000000000000040000000000000000009999123100000010000000000000BRABCBD03PR5119
012013070596ABCB2F      020ABC BRASIL  DIR PRE N2   R$  000000000026000000000003000000000000260000000000026400000000003000000000000150000000000021700003000000000000000025000000000000006620000000000000009999123100000010000000000000BRABCBD03PR5119
012013070502ABCB4       010ABC BRASIL  PN  EJS N2   R$  000000000128000000000012800000000001210000000000124800000000012590000000001259000000000126501171000000000000256500000000000320250500000000000000009999123100000010000000000000BRABCBACNPR4120
012013070596ABCB4F      020ABC BRASIL  PN  EJS N2   R$  000000000125000000000013350000000001235000000000124700000000013350000000001233000000000133500005000000000000000156000000000000194608000000000000009999123100000010000000000000BRABCBACNPR4120
012013070512ABCP11      010FII ABC IMOBCI  ER       R$  000000000089500000000008950000000000882000000000089200000000008820000000000921000000000096000002000000000000000120000000000000107140000000000000009999123100000010000000000000BRABCPCTF000213
012013070502ABRE11      010ABRIL EDUCA UNT     N2   R$  000000000375100000000038000000000003702000000000374400000000037500000000003738000000000377401371000000000000585100000000002190844400000000000000009999123100000010000000000000BRABRECDAM15102
012013070596ABRE11F     020ABRIL EDUCA UNT     N2   R$  000000000375500000000037800000000003730000000000374700000000037400000000003750000000000388500015000000000000000422000000000001581347000000000000009999123100000010000000000000BRABRECDAM15102
012013070502ABTT11B     010ABBOTT      DRN     MB   R$  000000000199000000000019900000000001990000000000199000000000019900000000001940000000000199000001000000000000000100000000000000199000000000000000009999123100000010000000000000BRABTTBDR007106
012013070502AEDU3       010ANHANGUERA  ON      NM   R$  000000000123500000000012410000000001205000000000121600000000012300000000001230000000000123103465000000000001514000000000001842327800000000000000009999123100000010000000000000BRAEDUACNOR9107
012013070596AEDU3F      020ANHANGUERA  ON      NM   R$  000000000122900000000012290000000001208000000000121500000000012200000000001164000000000126500010000000000000000254000000000000308746000000000000009999123100000010000000000000BRAEDUACNOR9107
012013070512AEFI11      010FII AESAPAR CI  ER       R$  000000001225000000000122510000000012200000000001224100000000122510000000012230000000001225100024000000000000000792000000000009695328000000000000009999123100000010000000000000BRAEFICTF002119
012013070502AELP3       010AES ELPA    ON           R$  000000000074000000000007400000000000731000000000073900000000007310000000000731000000000075900006000000000000010900000000000008064200000000000000009999123100000010000000000000BRAELPACNOR2119
012013070596AELP3F      020AES ELPA    ON           R$  000000000078800000000008000000000000788000000000079600000000008000000000000714000000000000000003000000000000000024000000000000019104000000000000009999123100000010000000000000BRAELPACNOR2119
012013070562AELP3T      030AES ELPA    ON        031R$  000000000074500000000007460000000000745000000000074500000000007460000000000000000000000000000002000000000000010000000000000007454020000000000000009999123100000010000000000000BRAELPACNOR2119
012013070512AGCX11      010FII AG CAIXACI  ER       R$  000000010100000000001010000000000100100000000010030300000001001000000000099500000000010089000005000000000000000078000000000007823650000000000000009999123100000010000000000000BRAGCXCTF003108
012013070502AGEN11      010AGRENCO     DR3          R$  000000000004300000000000440000000000042000000000004300000000000440000000000043000000000004400304000000000001740200000000000075158400000000000000009999123100000010000000000000BRAGENBDR001100
012013070502AGRO3       010BRASILAGRO  ON      NM   R$  000000000106400000000010720000000001033000000000104800000000010400000000001020000000000107200074000000000000033600000000000035231700000000000000009999123100000010000000000000BRAGROACNOR7102
012013070596AGRO3F      020BRASILAGRO  ON      NM   R$  000000000114900000000011490000000001149000000000114900000000011490000000000000000000000114900001000000000000000010000000000000011490000000000000009999123100000010000000000000BRAGROACNOR7102
012013070502ALLL3       010ALL AMER LATON      NM   R$  000000000087400000000008850000000000839000000000086300000000008730000000000870000000000087308102000000000004373800000000003778011900000000000000009999123100000010000000000000BRALLLACNOR6118
012013070596ALLL3F      020ALL AMER LATON      NM   R$  000000000088500000000009090000000000841000000000086000000000008510000000000851000000000089900044000000000000001374000000000001182674000000000000009999123100000010000000000000BRALLLACNOR6118
012013070562ALLL3T      030ALL AMER LATON      NM031R$  000000000088800000000008890000000000888000000000088800000000008890000000000000000000000000000010000000000000050000000000000044428145000000000000009999123100000010000000000000BRALLLACNOR6118
012013070562ALLL3T      030ALL AMER LATON      NM060R$  000000000086800000000008690000000000868000000000086800000000008690000000000000000000000000000002000000000000000400000000000000347599000000000000009999123100000010000000000000BRALLLACNOR6118
012013070512ALMI11B     010FII TORRE ALCI  ER  MB   R$  000000031999900000003200000000000319999000000031999900000003200000000000317600000000032000000002000000000000000006000000000001919995000000000000009999123100000010000000000000BRALMICTF003203
012013070502ALPA3       010ALPARGATAS  ON      N1   R$  000000000114400000000011440000000001144000000000114400000000011440000000001096000000000114500001000000000000000100000000000000114400000000000000009999123100000010000000000000BRALPAACNOR0202
012013070502ALPA4       010ALPARGATAS  PN      N1   R$  000000000142900000000014290000000001370000000000137600000000014000000000001400000000000140200986000000000000681500000000000938298100000000000000009999123100000010000000000000BRALPAACNPR7202
012013070596ALPA4F      020ALPARGATAS  PN      N1   R$  000000000140900000000014090000000001373000000000138400000000013880000000001375000000000140900020000000000000000534000000000000739117000000000000009999123100000010000000000000BRALPAACNPR7202
012013070562ALPA4T      030ALPARGATAS  PN      N1017R$  000000000140600000000014070000000001406000000000140600000000014070000000000000000000000000000002000000000000001000000000000001406907000000000000009999123100000010000000000000BRALPAACNPR7202
012013070562ALPA4T      030ALPARGATAS  PN      N1031R$  000000000139400000000013950000000001394000000000139400000000013950000000000000000000000000000002000000000000001000000000000001394732000000000000009999123100000010000000000000BRALPAACNPR7202
012013070502ALSC3       010ALIANSCE    ON      NM   R$  000000000180300000000018420000000001803000000000182100000000018250000000001825000000000183701512000000000000531000000000000967210100000000000000009999123100000010000000000000BRALSCACNOR0104
012013070596ALSC3F      020ALIANSCE    ON      NM   R$  000000000181000000000018230000000001750000000000180000000000017500000000001752000000000211700007000000000000000275000000000000495150000000000000009999123100000010000000000000BRALSCACNOR0104
012013070578ALSCH19     070ALSC        ON      NM000R$  000000000004500000000000450000000000045000000000004500000000000450000000000000000000000000000001000000000000031200000000000001404000000000000190002013081900000010000000000000BRALSCACNOR0104
012013070582ALSCT18     080ALSCE       ON      NM000R$  000000000005900000000000600000000000059000000000005900000000000600000000000000000000000000000002000000000000031200000000000001856400000000000180002013081900000010000000000000BRALSCACNOR0104
012013070502ALUP11      010ALUPAR      UNT     N2   R$  000000000186000000000018600000000001816000000000184100000000018530000000001825000000000185300322000000000000072000000000000132576800000000000000009999123100000010000000000000BRALUPCDAM15100
012013070596ALUP11F     020ALUPAR      UNT     N2   R$  000000000186000000000018600000000001820000000000184300000000018300000000001851000000000191500018000000000000000597000000000001100291000000000000009999123100000010000000000000BRALUPCDAM15100
012013070502AMAR3       010LOJAS MARISAON      NM   R$  000000000223100000000022770000000002194000000000222300000000022050000000002204000000000220800929000000000000303200000000000674315600000000000000009999123100000010000000000000BRAMARACNOR4109
012013070596AMAR3F      020LOJAS MARISAON      NM   R$  000000000227000000000022700000000002200000000000222500000000022420000000002190000000000221200007000000000000000258000000000000574254000000000000009999123100000010000000000000BRAMARACNOR4109
012013070502AMBV3       010AMBEV       ON           R$  000000000798200000000081480000000007981000000000808000000000081480000000008097000000000814800912000000000000152900000000001235537700000000000000009999123100000010000000000000BRAMBVACNOR4153
012013070596AMBV3F      020AMBEV       ON           R$  000000000807400000000081160000000008002000000000806200000000080020000000008189000000000819000026000000000000000558000000000004499153000000000000009999123100000010000000000000BRAMBVACNOR4153
012013070502AMBV4       010AMBEV       PN           R$  000000000807600000000081800000000008058000000000812000000000081790000000008159000000000817907421000000000001376100000000011174572500000000000000009999123100000010000000000000BRAMBVACNPR1153
012013070596AMBV4F      020AMBEV       PN           R$  000000000813900000000082000000000008000000000000811700000000080110000000008001000000000801100133000000000000002974000000000024135565000000000000009999123100000010000000000000BRAMBVACNPR1153
012013070562AMBV4T      030AMBEV       PN        031R$  000000000817900000000081800000000008179000000000817900000000081800000000000000000000000000000002000000000000000100000000000000817959000000000000009999123100000010000000000000BRAMBVACNPR1153
012013070578AMBVH84     070AMBV        PN        000R$  000000000011600000000001850000000000116000000000015000000000001850000000000056000000000000000002000000000000000200000000000000030100000000000840002013081900000010000000000000BRAMBVACNPR1153
012013070578AMBVH85     070AMBV        PN        000R$  000000000015500000000001550000000000155000000000015500000000001550000000000000000000000000000002000000000000000200000000000000031000000000000850002013081900000010000000000000BRAMBVACNPR1153
012013070502ARTR3       010ARTERIS     ON      NM   R$  000000000200200000000020430000000001981000000000199900000000020000000000001997000000000200002703000000000006360800000000012720493400000000000000009999123100000010000000000000BRARTRACNOR3101
012013070596ARTR3F      020ARTERIS     ON      NM   R$  000000000200000000000020300000000001980000000000200400000000020100000000001950000000000201000037000000000000000729000000000001461531000000000000009999123100000010000000000000BRARTRACNOR3101
012013070502ARZZ3       010AREZZO CO   ON  EJ  NM   R$  000000000325100000000032870000000003190000000000325800000000032600000000003257000000000327801214000000000000262900000000000856548300000000000000009999123100000010000000000000BRARZZACNOR3108
012013070596ARZZ3F      020AREZZO CO   ON  EJ  NM   R$  000000000322800000000032900000000003228000000000326100000000032650000000003150000000000326500007000000000000000143000000000000466447000000000000009999123100000010000000000000BRARZZACNOR3108
012013070502AUTM3       010AUTOMETAL   ON      NM   R$  000000000168300000000017340000000001613000000000167200000000016500000000001650000000000165101762000000000000463100000000000774428200000000000000009999123100000010000000000000BRAUTMACNOR8109
012013070596AUTM3F      020AUTOMETAL   ON      NM   R$  000000000168200000000016820000000001618000000000166200000000016180000000001580000000000169000004000000000000000122000000000000202772000000000000009999123100000010000000000000BRAUTMACNOR8109
012013070502BAHI3       010BAHEMA      ON           R$  000000000052000000000005200000000000520000000000052000000000005200000000000489000000000052000006000000000000000700000000000000364000000000000000009999123100000010000000000000BRBAHIACNOR1066
012013070502BALM4       010BAUMER      PN           R$  000000000755000000000075500000000007550000000000755000000000075500000000005500000000000900000001000000000000000100000000000000755000000000000000009999123100000010000000000000BRBALMACNPR2043
012013070502BAZA3       010AMAZONIA    ON           R$  000000000003300000000000340000000000031000000000003100000000000310000000000031000000000003300006000000000000050000000000000001562000000000000000009999123100000010000000000000BRBAZAACNOR0163
012013070502BBAS3       010BRASIL      ON      NM   R$  000000000205400000000020760000000002003000000000203300000000020440000000002043000000000204414238000000000006557100000000013333322200000000000000009999123100000010000000000000BRBBASACNOR3237
012013070596BBAS3F      020BRASIL      ON      NM   R$  000000000208400000000020840000000002005000000000203300000000020820000000002060000000000208200246000000000000006402000000000013020048000000000000009999123100000010000000000000BRBBASACNOR3237
012013070562BBAS3T      030BRASIL      ON      NM031R$  000000000204800000000020580000000002048000000000205200000000020580000000000000000000000000000004000000000000002000000000000004105894000000000000009999123100000010000000000000BRBBASACNOR3237
012013070562BBAS3T      030BRASIL      ON      NM060R$  000000000203400000000020780000000002034000000000203800000000020780000000000000000000000000000006000000000000022500000000000045856209000000000000009999123100000010000000000000BRBBASACNOR3237
012013070562BBAS3T      030BRASIL      ON      NM090R$  000000000204300000000020440000000002043000000000204300000000020440000000000000000000000000000002000000000000002000000000000004087024000000000000009999123100000010000000000000BRBBASACNOR3237
012013070562BBAS3T      030BRASIL      ON      NM122R$  000000000211000000000021110000000002110000000000211000000000021110000000000000000000000000000002000000000000002000000000000004220964000000000000009999123100000010000000000000BRBBASACNOR3237
012013070562BBAS3T      030BRASIL      ON      NM130R$  000000000207500000000020760000000002075000000000207500000000020760000000000000000000000000000002000000000000001000000000000002075699000000000000009999123100000010000000000000BRBBASACNOR3237
012013070578BBASG19     070BBAS        ON      NM000R$  000000000013600000000001370000000000133000000000013500000000001370000000000000000000000000000003000000000000011000000000000001492000000000000190002013071500000010000000000000BRBBASACNOR3237
012013070578BBASG20     070BBAS        ON      NM000R$  000000000008500000000000950000000000072000000000008500000000000900000000000031000000000012700012000000000000018700000000000001591000000000000197602013071500000010000000000000BRBBASACNOR3236
012013070578BBASG21     070BBAS        ON      NM000R$  000000000008600000000000910000000000057000000000007000000000000850000000000051000000000000000034000000000000044800000000000003148200000000000199202013071500000010000000000000BRBBASACNOR3232
012013070578BBASG22     070BBAS        ON      NM000R$  000000000002000000000000270000000000012000000000001800000000000210000000000021000000000002300063000000000000169800000000000003086500000000000211702013071500000010000000000000BRBBASACNOR3233
012013070578BBASG23     070BBAS        ON      NM000R$  000000000000200000000000030000000000001000000000000200000000000030000000000000000000000000300025000000000000090300000000000000200900000000000226602013071500000010000000000000BRBBASACNOR3235
012013070578BBASG27     070BBAS        ON      NM000R$  000000000000100000000000010000000000001000000000000100000000000010000000000000000000000000100002000000000000003200000000000000003200000000000266602013071500000010000000000000BRBBASACNOR3235
012013070578BBASH18     070BBAS        ON      NM000R$  000000000028100000000002810000000000281000000000028100000000002810000000000000000000000000000001000000000000001000000000000000281000000000000180002013081900000010000000000000BRBBASACNOR3237
012013070578BBASH20     070BBAS  FM    ON      NM000R$  000000000012600000000001450000000000110000000000012600000000001330000000000000000000000023000104000000000000182900000000000023075300000000000200002013081900000010000000000000BRBBASACNOR3237
012013070578BBASH21     070BBAS  FM    ON      NM000R$  000000000008200000000001010000000000072000000000008500000000000900000000000040000000000013000068000000000000106500000000000009151300000000000207602013081900000010000000000000BRBBASACNOR3236
012013070578BBASH22     070BBAS  FM    ON      NM000R$  000000000004500000000000600000000000039000000000005000000000000510000000000051000000000006000092000000000000179300000000000009047600000000000217602013081900000010000000000000BRBBASACNOR3236
012013070578BBASH23     070BBAS  FM    ON      NM000R$  000000000002400000000000280000000000020000000000002300000000000280000000000015000000000003600044000000000000011400000000000000262900000000000227602013081900000010000000000000BRBBASACNOR3236
012013070578BBASH24     070BBAS  FM    ON      NM000R$  000000000001800000000000210000000000015000000000001700000000000210000000000016000000000002500078000000000000053300000000000000938400000000000231702013081900000010000000000000BRBBASACNOR3233
012013070578BBASH25     070BBAS        ON      NM000R$  000000000001000000000000120000000000007000000000000800000000000120000000000006000000000001200020000000000000056600000000000000479700000000000241702013081900000010000000000000BRBBASACNOR3233
012013070578BBASH26     070BBAS        ON      NM000R$  000000000000500000000000050000000000005000000000000500000000000050000000000003000000000000600003000000000000007600000000000000038000000000000256602013081900000010000000000000BRBBASACNOR3235
012013070578BBASI20     070BBAS  FM    ON      NM000R$  000000000016400000000001730000000000139000000000015800000000001600000000000000000000000000000081000000000000113400000000000017976900000000000200002013091600000010000000000000BRBBASACNOR3237
012013070578BBASI21     070BBAS  FM    ON      NM000R$  000000000010900000000001220000000000090000000000010400000000001080000000000000000000000000000031000000000000043900000000000004586700000000000210002013091600000010000000000000BRBBASACNOR3237
012013070578BBASI22     070BBAS  FM    ON      NM000R$  000000000007700000000000830000000000062000000000007200000000000740000000000007000000000000000020000000000000033100000000000002414400000000000217602013091600000010000000000000BRBBASACNOR3236
012013070578BBASI23     070BBAS  FM    ON      NM000R$  000000000004200000000000510000000000042000000000004300000000000450000000000030000000000000000012000000000000018300000000000000800100000000000227602013091600000010000000000000BRBBASACNOR3236
012013070578BBASI24     070BBAS        ON      NM000R$  000000000002900000000000290000000000029000000000002900000000000290000000000018000000000000000001000000000000000800000000000000023200000000000237602013091600000010000000000000BRBBASACNOR3236
012013070582BBASS19     080BBASE       ON      NM000R$  000000000001100000000000110000000000011000000000001100000000000110000000000000000000000001200001000000000000001000000000000000011000000000000190002013071500000010000000000000BRBBASACNOR3237
012013070582BBASS20     080BBASE       ON      NM000R$  000000000002200000000000340000000000022000000000002800000000000340000000000000000000000003800015000000000000049800000000000001437200000000000197602013071500000010000000000000BRBBASACNOR3236
012013070582BBASS21     080BBASE       ON      NM000R$  000000000002500000000000350000000000025000000000002900000000000280000000000011000000000002500008000000000000025000000000000000736000000000000199202013071500000010000000000000BRBBASACNOR3232
012013070582BBASS22     080BBASE       ON      NM000R$  000000000010200000000001020000000000081000000000008600000000000810000000000042000000000000000013000000000000063800000000000005488800000000000211702013071500000010000000000000BRBBASACNOR3233
012013070582BBAST18     080BBASE       ON      NM000R$  000000000002900000000000290000000000029000000000002900000000000290000000000003000000000000000001000000000000006000000000000000174000000000000180002013081900000010000000000000BRBBASACNOR3237
012013070582BBAST19     080BBASE FM    ON      NM000R$  000000000003800000000000510000000000037000000000004300000000000440000000000000000000000000000027000000000000055300000000000002408000000000000190002013081900000010000000000000BRBBASACNOR3237
012013070582BBAST20     080BBASE FM    ON      NM000R$  000000000006600000000000860000000000066000000000007500000000000710000000000000000000000000000016000000000000029300000000000002213500000000000200002013081900000010000000000000BRBBASACNOR3237
012013070582BBAST21     080BBASE FM    ON      NM000R$  000000000009800000000001240000000000098000000000010800000000001030000000000067000000000000000041000000000000076400000000000008285200000000000207602013081900000010000000000000BRBBASACNOR3236
012013070582BBAST22     080BBASE FM    ON      NM000R$  000000000015600000000001890000000000156000000000017200000000001590000000000020000000000029600087000000000000166600000000000028672800000000000217602013081900000010000000000000BRBBASACNOR3236
012013070582BBASU19     080BBASE FM    ON      NM000R$  000000000005200000000000630000000000052000000000005800000000000630000000000000000000000000000018000000000000039800000000000002316500000000000190002013091600000010000000000000BRBBASACNOR3237
012013070582BBASU20     080BBASE FM    ON      NM000R$  000000000008200000000000990000000000082000000000009100000000000900000000000000000000000000000033000000000000065800000000000006032000000000000200002013091600000010000000000000BRBBASACNOR3237
012013070582BBASU21     080BBASE FM    ON      NM000R$  000000000012300000000001460000000000123000000000013400000000001310000000000000000000000000000046000000000000086900000000000011722400000000000210002013091600000010000000000000BRBBASACNOR3237
012013070582BBASV20     080BBASE       ON      NM000R$  000000000011000000000001100000000000110000000000011000000000001100000000000000000000000000000001000000000000000200000000000000022000000000000200002013102100000010000000000000BRBBASACNOR3237
012013070582BBASX20     080BBASE       ON      NM000R$  000000000013000000000001300000000000130000000000013000000000001300000000000000000000000012900001000000000000000100000000000000013000000000000200002013121600000010000000000000BRBBASACNOR3237
012013070502BBDC3       010BRADESCO    ON  EJ  N1   R$  000000000292100000000029790000000002824000000000286300000000028750000000002875000000000288406530000000000001970800000000005644405800000000000000009999123100000010000000000000BRBBDCACNOR1604
012013070596BBDC3F      020BRADESCO    ON  EJ  N1   R$  000000000298000000000029800000000002829000000000289100000000029210000000002870000000000292100072000000000000001757000000000005080104000000000000009999123100000010000000000000BRBBDCACNOR1604
012013070562BBDC3T      030BRADESCO    ON  EJ  N1031R$  000000000286800000000028690000000002868000000000286800000000028690000000000000000000000000000004000000000000000250000000000000717198000000000000009999123100000010000000000000BRBBDCACNOR1604
012013070562BBDC3T      030BRADESCO    ON  EJ  N1181R$  000000000298300000000029840000000002983000000000298300000000029840000000000000000000000000000002000000000000002000000000000005966379000000000000009999123100000010000000000000BRBBDCACNOR1604
012013070502BBDC4       010BRADESCO    PN  EJ  N1   R$  000000000268500000000027060000000002550000000000259500000000026130000000002610000000000261338064000000000016987800000000044096636700000000000000009999123100000010000000000000BRBBDCACNPR8604
012013070596BBDC4F      020BRADESCO    PN  EJ  N1   R$  000000000269000000000026980000000002551000000000259800000000026350000000002603000000000263500444000000000000010175000000000026448264000000000000009999123100000010000000000000BRBBDCACNPR8604
012013070562BBDC4T      030BRADESCO    PN  EJ  N1031R$  000000000262000000000026210000000002582000000000261400000000025880000000000000000000000000000010000000000000025400000000000066415389000000000000009999123100000010000000000000BRBBDCACNPR8604
012013070562BBDC4T      030BRADESCO    PN  EJ  N1045R$  000000000258000000000025810000000002580000000000258000000000025810000000000000000000000000000002000000000000001000000000000002580282000000000000009999123100000010000000000000BRBBDCACNPR8604
012013070562BBDC4T      030BRADESCO    PN  EJ  N1060R$  000000000258200000000026160000000002582000000000260400000000026160000000000000000000000000000006000000000000006000000000000015629787000000000000009999123100000010000000000000BRBBDCACNPR8604
012013070562BBDC4T      030BRADESCO    PN  EJ  N1090R$  000000000261300000000026140000000002608000000000261200000000026090000000000000000000000000000004000000000000002500000000000006532413000000000000009999123100000010000000000000BRBBDCACNPR8604
012013070562BBDC4T      030BRADESCO    PN  EJ  N1122R$  000000000267800000000026790000000002678000000000267800000000026790000000000000000000000000000002000000000000015400000000000041254844000000000000009999123100000010000000000000BRBBDCACNPR8604
012013070562BBDC4T      030BRADESCO    PN  EJ  N1181R$  000000000272500000000027260000000002680000000000268800000000026810000000000000000000000000000004000000000000012000000000000032260388000000000000009999123100000010000000000000BRBBDCACNPR8604
012013070578BBDCG24     070BBDC    /EJ PN      N1000R$  000000000020600000000002100000000000200000000000020500000000002000000000000000000000000028500004000000000000007000000000000001438000000000000237802013071500000010000000000000BRBBDCACNPR8601
012013070578BBDCG25     070BBDC    /EJ PN      N1000R$  000000000017100000000001710000000000113000000000014400000000001150000000000000000000000000000036000000000000107900000000000015606100000000000247802013071500000010000000000000BRBBDCACNPR8601
012013070578BBDCG26     070BBDC    /EJ PN      N1000R$  000000000009000000000000920000000000052000000000006900000000000520000000000008000000000009400032000000000000087900000000000006072200000000000257802013071500000010000000000000BRBBDCACNPR8601
012013070578BBDCG27     070BBDC    /EJ PN      N1000R$  000000000006400000000000640000000000019000000000003200000000000350000000000020000000000003500143000000000000205800000000000006661600000000000267802013071500000010000000000000BRBBDCACNPR8601
012013070578BBDCG28     070BBDC    /EJ PN      N1000R$  000000000002200000000000220000000000005000000000000600000000000110000000000006000000000001200113000000000000270400000000000001885500000000000278002013071500000010000000000000BRBBDCACNPR8602
012013070578BBDCG29     070BBDC    /EJ PN      N1000R$  000000000000500000000000050000000000002000000000000300000000000030000000000002000000000000300052000000000000120100000000000000360800000000000288002013071500000010000000000000BRBBDCACNPR8602
012013070578BBDCG30     070BBDC    /EJ PN      N1000R$  000000000000200000000000020000000000002000000000000200000000000020000000000001000000000000300052000000000000077200000000000000154400000000000297802013071500000010000000000000BRBBDCACNPR8601
012013070578BBDCG31     070BBDC    /EJ PN      N1000R$  000000000000200000000000030000000000002000000000000200000000000030000000000001000000000000600103000000000000191200000000000000482800000000000307802013071500000010000000000000BRBBDCACNPR8601
012013070578BBDCG32     070BBDC    /EJ PN      N1000R$  000000000000100000000000010000000000001000000000000100000000000010000000000001000000000000500003000000000000046000000000000000046000000000000317602013071500000010000000000000BRBBDCACNPR8600
012013070578BBDCG34     070BBDC    /EJ PN      N1000R$  000000000000300000000000030000000000003000000000000300000000000030000000000000000000000003000001000000000000001000000000000000003000000000000300602013071500000010000000000000BRBBDCACNPR8591
012013070578BBDCH24     070BBDC    /EJ PN      N1000R$  000000000025500000000002850000000000255000000000026800000000002850000000000000000000000000000070000000000000060000000000000016110500000000000238002013081900000010000000000000BRBBDCACNPR8602
012013070578BBDCH25     070BBDC    /EJ PN      N1000R$  000000000021300000000002250000000000177000000000019800000000002190000000000000000000000000000057000000000000044300000000000008774600000000000248002013081900000010000000000000BRBBDCACNPR8602
012013070578BBDCH26     070BBDC    /EJ PN      N1000R$  000000000018000000000001800000000000116000000000013100000000001570000000000135000000000019800091000000000000132200000000000017438900000000000258002013081900000010000000000000BRBBDCACNPR8602
012013070578BBDCH27     070BBDC    /EJ PN      N1000R$  000000000013100000000001310000000000074000000000009000000000000970000000000000000000000013000531000000000000486600000000000043957300000000000268002013081900000010000000000000BRBBDCACNPR8602
012013070578BBDCH28     070BBDC    /EJ PN      N1000R$  000000000007800000000000790000000000042000000000005500000000000590000000000050000000000006500602000000000000409800000000000022725200000000000278002013081900000010000000000000BRBBDCACNPR8602
012013070578BBDCH29     070BBDC    /EJ PN      N1000R$  000000000005100000000000510000000000023000000000003200000000000330000000000000000000000000000265000000000000228600000000000007506000000000000288002013081900000010000000000000BRBBDCACNPR8602
012013070578BBDCH30     070BBDC    /EJ PN      N1000R$  000000000002400000000000240000000000011000000000001700000000000180000000000011000000000002400083000000000000131300000000000002307400000000000298002013081900000010000000000000BRBBDCACNPR8602
012013070578BBDCH31     070BBDC    /EJ PN      N1000R$  000000000001200000000000140000000000008000000000000900000000000100000000000008000000000000000109000000000000182100000000000001747000000000000307602013081900000010000000000000BRBBDCACNPR8600
012013070578BBDCH32     070BBDC    /EJ PN      N1000R$  000000000000400000000000040000000000004000000000000400000000000040000000000004000000000000700002000000000000006600000000000000026400000000000318002013081900000010000000000000BRBBDCACNPR8602
012013070578BBDCH34     070BBDC    /EJ PN      N1000R$  000000000001300000000000130000000000010000000000001000000000000110000000000010000000000002800004000000000000002000000000000000020900000000000305502013081900000010000000000000BRBBDCACNPR8595
012013070578BBDCH36     070BBDC    /EJ PN      N1000R$  000000000000200000000000020000000000002000000000000200000000000020000000000000000000000008000001000000000000000200000000000000000400000000000357602013081900000010000000000000BRBBDCACNPR8600
012013070578BBDCI25     070BBDC    /EJ PN      N1000R$  000000000024700000000002470000000000247000000000024700000000002470000000000000000000000000000001000000000000003000000000000000741000000000000250002013091600000010000000000000BRBBDCACNPR8604
012013070578BBDCI26     070BBDC    /EJ PN      N1000R$  000000000018700000000001870000000000187000000000018700000000001870000000000100000000000000000001000000000000003000000000000000561000000000000260002013091600000010000000000000BRBBDCACNPR8604
012013070578BBDCI27     070BBDC    /EJ PN      N1000R$  000000000014200000000001450000000000125000000000013700000000001300000000000000000000000000000011000000000000029200000000000004021000000000000268002013091600000010000000000000BRBBDCACNPR8602
012013070578BBDCI28     070BBDC    /EJ PN      N1000R$  000000000009800000000001010000000000075000000000008400000000000770000000000000000000000000000024000000000000077600000000000006533200000000000278002013091600000010000000000000BRBBDCACNPR8602
012013070578BBDCI29     070BBDC    /EJ PN      N1000R$  000000000006700000000000670000000000064000000000006500000000000650000000000000000000000000000007000000000000021000000000000001377000000000000288002013091600000010000000000000BRBBDCACNPR8602
012013070578BBDCI30     070BBDC    /EJ PN      N1000R$  000000000004100000000000420000000000041000000000004100000000000410000000000000000000000013800003000000000000009000000000000000372000000000000298002013091600000010000000000000BRBBDCACNPR8602
012013070578BBDCI31     070BBDC    /EJ PN      N1000R$  000000000011700000000001170000000000087000000000010200000000000870000000000093000000000000000005000000000000011400000000000001173000000000000273102013091600000010000000000000BRBBDCACNPR8590
012013070578BBDCI32     070BBDC    /EJ PN      N1000R$  000000000001100000000000110000000000010000000000001000000000000100000000000004000000000000000003000000000000002900000000000000029800000000000318002013091600000010000000000000BRBBDCACNPR8602
012013070578BBDCJ27     070BBDC    /EJ PN      N1000R$  000000000014300000000001430000000000143000000000014300000000001430000000000000000000000000000001000000000000200000000000000028600000000000000268002013102100000010000000000000BRBBDCACNPR8602
012013070578BBDCK33     070BBDC    /EJ PN      N1000R$  000000000002700000000000270000000000027000000000002700000000000270000000000000000000000000000001000000000000000100000000000000002700000000000328002013111800000010000000000000BRBBDCACNPR8602
012013070578BBDCL27     070BBDC    /EJ PN      N1000R$  000000000017800000000001780000000000178000000000017800000000001780000000000000000000000000000001000000000000100000000000000017800000000000000270002013121600000010000000000000BRBBDCACNPR8604
012013070578BBDCL28     070BBDC    /EJ PN      N1000R$  000000000013200000000001320000000000132000000000013200000000001320000000000000000000000000000001000000000000000100000000000000013200000000000280002013121600000010000000000000BRBBDCACNPR8604
012013070578BBDCL34     070BBDC    /EJ PN      N1000R$  000000000002200000000000220000000000022000000000002200000000000220000000000000000000000000000002000000000000001700000000000000037400000000000337602013121600000010000000000000BRBBDCACNPR8600
012013070582BBDCR10     080BBDCE   /EJ PN      N1000R$  000000000035500000000003550000000000353000000000035400000000003530000000000000000000000000000003000000000000550000000000000194700000000000000300002014061600000010000000000000BRBBDCACNPR8604
012013070582BBDCS23     080BBDCE   /EJ PN      N1000R$  000000000000400000000000040000000000004000000000000400000000000040000000000000000000000000000001000000000000005000000000000000020000000000000230002013071500000010000000000000BRBBDCACNPR8604
012013070582BBDCS25     080BBDCE   /EJ PN      N1000R$  000000000003200000000000340000000000032000000000003200000000000320000000000000000000000000000031000000000000061800000000000002019400000000000247802013071500000010000000000000BRBBDCACNPR8601
012013070582BBDCS26     080BBDCE   /EJ PN      N1000R$  000000000002600000000000730000000000026000000000004800000000000460000000000000000000000000000101000000000000209800000000000010145100000000000257802013071500000010000000000000BRBBDCACNPR8601
012013070582BBDCS27     080BBDCE   /EJ PN      N1000R$  000000000005400000000001400000000000054000000000010300000000000960000000000000000000000016700173000000000000324900000000000033518800000000000267802013071500000010000000000000BRBBDCACNPR8601
012013070582BBDCS28     080BBDCE   /EJ PN      N1000R$  000000000011300000000002300000000000113000000000018900000000001750000000000040000000000009900304000000000000488200000000000092743000000000000278002013071500000010000000000000BRBBDCACNPR8602
012013070582BBDCS29     080BBDCE   /EJ PN      N1000R$  000000000019700000000003270000000000197000000000028600000000002570000000000000000000000034700579000000000000735000000000000210333600000000000288002013071500000010000000000000BRBBDCACNPR8602
012013070582BBDCS30     080BBDCE   /EJ PN      N1000R$  000000000036500000000003650000000000365000000000036500000000003650000000000000000000000000000003000000000000000300000000000000109500000000000297802013071500000010000000000000BRBBDCACNPR8601
012013070582BBDCT24     080BBDCE   /EJ PN      N1000R$  000000000005100000000000510000000000040000000000004700000000000400000000000038000000000000000039000000000000170000000000000008020000000000000238002013081900000010000000000000BRBBDCACNPR8602
012013070582BBDCT25     080BBDCE   /EJ PN      N1000R$  000000000007300000000000800000000000066000000000007700000000000660000000000060000000000000000031000000000000172000000000000013344000000000000248002013081900000010000000000000BRBBDCACNPR8602
012013070582BBDCT26     080BBDCE   /EJ PN      N1000R$  000000000007100000000001230000000000071000000000010300000000000950000000000000000000000000000069000000000000123900000000000012849500000000000258002013081900000010000000000000BRBBDCACNPR8602
012013070582BBDCT27     080BBDCE   /EJ PN      N1000R$  000000000010700000000001790000000000107000000000016000000000001410000000000000000000000016100234000000000000414800000000000066708000000000000268002013081900000010000000000000BRBBDCACNPR8602
012013070582BBDCT28     080BBDCE   /EJ PN      N1000R$  000000000015600000000002460000000000156000000000021300000000002040000000000000000000000000000273000000000000327000000000000069756700000000000278002013081900000010000000000000BRBBDCACNPR8602
012013070582BBDCT29     080BBDCE   /EJ PN      N1000R$  000000000023300000000003260000000000230000000000029000000000002790000000000080000000000000000264000000000000454900000000000131984600000000000288002013081900000010000000000000BRBBDCACNPR8602
012013070582BBDCT31     080BBDCE   /EJ PN      N1000R$  000000000043100000000004310000000000431000000000043100000000004310000000000000000000000000000001000000000000002000000000000000862000000000000307602013081900000010000000000000BRBBDCACNPR8600
012013070582BBDCU23     080BBDCE   /EJ PN      N1000R$  000000000003900000000000390000000000038000000000003800000000000380000000000000000000000000000003000000000000004000000000000000154000000000000230002013091600000010000000000000BRBBDCACNPR8604
012013070582BBDCU26     080BBDCE   /EJ PN      N1000R$  000000000011900000000001210000000000118000000000011800000000001190000000000000000000000000000009000000000000013400000000000001593400000000000260002013091600000010000000000000BRBBDCACNPR8604
012013070582BBDCU27     080BBDCE   /EJ PN      N1000R$  000000000014500000000001920000000000145000000000015800000000001920000000000000000000000000000017000000000000012700000000000002014100000000000268002013091600000010000000000000BRBBDCACNPR8602
012013070582BBDCU28     080BBDCE   /EJ PN      N1000R$  000000000019000000000002080000000000190000000000020400000000002080000000000000000000000000000005000000000000007200000000000001470000000000000278002013091600000010000000000000BRBBDCACNPR8602
012013070582BBDCU29     080BBDCE   /EJ PN      N1000R$  000000000023800000000002880000000000232000000000025900000000002880000000000000000000000000000008000000000000010800000000000002807200000000000288002013091600000010000000000000BRBBDCACNPR8602
012013070582BBDCV27     080BBDCE   /EJ PN      N1000R$  000000000017900000000001790000000000179000000000017900000000001790000000000000000000000000000001000000000000001200000000000000214800000000000268002013102100000010000000000000BRBBDCACNPR8602
012013070582BBDCX26     080BBDCE   /EJ PN      N1000R$  000000000008000000000000860000000000080000000000008500000000000840000000000000000000000000000003000000000000450100000000000038308000000000000233602013121600000010000000000000BRBBDCACNPR8597
012013070582BBDCX27     080BBDCE   /EJ PN      N1000R$  000000000020000000000002000000000000200000000000020000000000002000000000000000000000000000000001000000000000000100000000000000020000000000000270002013121600000010000000000000BRBBDCACNPR8604
012013070582BBDCX31     080BBDCE   /EJ PN      N1000R$  000000000025200000000002600000000000252000000000025800000000002600000000000000000000000000000003000000000000450000000000000116249500000000000279002013121600000010000000000000BRBBDCACNPR8597
012013070582BBDCX33     080BBDCE   /EJ PN      N1000R$  000000000036200000000003630000000000361000000000036200000000003610000000000000000000000000000004000000000000583100000000000211082200000000000297402013121600000010000000000000BRBBDCACNPR8598
012013070512BBFI11B     010FII BB PROGRCI  ER  MB   R$  000000042310000000004231000000000420001000000042118500000004200010000000420001000000042550000008000000000000000052000000000021901623000000000000009999123100000010000000000000BRBBFICTF006196
012013070512BBPO11      010FII BB PRGIICI  ER       R$  000000001098000000000109890000000010950000000001095700000000109500000000010950000000001096000140000000000000015426000000000169028593000000000000009999123100000010000000000000BRBBPOCTF003108
012013070512BBRC11      010FII BB CORP CI  ER       R$  000000001010000000000101000000000009903000000001009900000000101000000000010000000000001040000004000000000000000262000000000002646003000000000000009999123100000010000000000000BRBBRCCTF004122
012013070502BBRK3       010BR BROKERS  ON      NM   R$  000000000057900000000005830000000000559000000000056800000000005820000000000569000000000058302605000000000001433400000000000815439200000000000000009999123100000010000000000000BRBBRKACNOR4108
012013070596BBRK3F      020BR BROKERS  ON      NM   R$  000000000057200000000005830000000000564000000000057300000000005640000000000528000000000056700007000000000000000237000000000000135871000000000000009999123100000010000000000000BRBBRKACNOR4108
012013070502BBSE3       010BBSEGURIDADEON      NM   R$  000000000175900000000017840000000001736000000000176400000000017600000000001760000000000176515184000000000007332500000000012940098600000000000000009999123100000010000000000000BRBBSEACNOR5100
012013070596BBSE3F      020BBSEGURIDADEON      NM   R$  000000000175000000000017800000000001733000000000176400000000017690000000001749000000000176900408000000000000012922000000000022796135000000000000009999123100000010000000000000BRBBSEACNOR5100
012013070502BBTG11      010BTG PACTUAL UNT          R$  000000000270000000000027310000000002622000000000266400000000026900000000002690000000000271402910000000000001165800000000003105826900000000000000009999123100000010000000000000BRBBTGUNT007104
012013070596BBTG11F     020BTG PACTUAL UNT          R$  000000000267500000000028960000000002620000000000267800000000026420000000002505000000000289200010000000000000000274000000000000734024000000000000009999123100000010000000000000BRBBTGUNT007104
012013070562BBTG11T     030BTG PACTUAL UNT       090R$  000000000273100000000027320000000002730000000000273000000000027310000000000000000000000000000004000000000000174200000000000475646369000000000000009999123100000010000000000000BRBBTGUNT007104
012013070512BBVJ11      010FII C JARDIMCI  ER       R$  000000000809000000000081430000000008010000000000803900000000081430000000008051000000000814300014000000000000000489000000000003931380000000000000009999123100000010000000000000BRBBVJCTF001131
012013070512BCFF11B     010FII BC FFII CI      MB   R$  000000001030000000000104000000000010203000000001027900000000103000000000010262000000001030000037000000000000002028000000000020847225000000000000009999123100000010000000000000BRBCFFCTF000139
012013070502BDLL3       010BARDELLA    ON           R$  000000000420000000000042000000000004200000000000420000000000042000000000004000000000000450000001000000000000000100000000000000420000000000000000009999123100000010000000000000BRBDLLACNOR1149
012013070502BDLL4       010BARDELLA    PN           R$  000000000430000000000043000000000004200000000000421200000000042000000000004150000000000429900005000000000000000800000000000003370200000000000000009999123100000010000000000000BRBDLLACNPR8149
012013070596BDLL4F      020BARDELLA    PN           R$  000000000430000000000043000000000004300000000000430000000000043000000000004201000000000430000003000000000000000034000000000000146200000000000000009999123100000010000000000000BRBDLLACNPR8149
012013070502BEEF3       010MINERVA     ON      NM   R$  000000000096000000000009710000000000917000000000093000000000009250000000000920000000000092602984000000000001020800000000000949672000000000000000009999123100000010000000000000BRBEEFACNOR6104
012013070596BEEF3F      020MINERVA     ON      NM   R$  000000000094000000000009400000000000920000000000092600000000009230000000000900000000000093000008000000000000000184000000000000170392000000000000009999123100000010000000000000BRBEEFACNOR6104
012013070502BEES3       010BANESTES    ON  EJ       R$  000000000004700000000000480000000000046000000000004700000000000480000000000047000000000004800011000000000000074600000000000003509200000000000000009999123100000010000000000000BRBEESACNOR9241
012013070562BEES3T      030BANESTES    ON  EJ    122R$  000000000004900000000000500000000000049000000000004900000000000500000000000000000000000000000002000000000000010000000000000000492480000000000000009999123100000010000000000000BRBEESACNOR9241
012013070502BEES4       010BANESTES    PN  EJ       R$  000000000004200000000000420000000000042000000000004200000000000420000000000042000000000004600001000000000000000100000000000000004200000000000000009999123100000010000000000000BRBEESACNPR6166
012013070502BEMA3       010BEMATECH    ON      NM   R$  000000000067000000000006770000000000660000000000067100000000006600000000000659000000000067400161000000000000275300000000000184845800000000000000009999123100000010000000000000BRBEMAACNOR0113
012013070596BEMA3F      020BEMATECH    ON      NM   R$  000000000068000000000006800000000000675000000000067600000000006750000000000675000000000072500004000000000000000200000000000000135274000000000000009999123100000010000000000000BRBEMAACNOR0113
012013070502BHGR3       010BHG         ON      NM   R$  000000000157600000000015760000000001558000000000156600000000015670000000001553000000000156700014000000000000036100000000000056552100000000000000009999123100000010000000000000BRBHGRACNOR9101
012013070502BICB4       010BICBANCO    PN      N1   R$  000000000040900000000004090000000000375000000000039000000000004050000000000396000000000040500188000000000000133400000000000052150200000000000000009999123100000010000000000000BRBICBACNPR7131
012013070596BICB4F      020BICBANCO    PN      N1   R$  000000000039500000000004280000000000380000000000039000000000003810000000000381000000000042800014000000000000000252000000000000098317000000000000009999123100000010000000000000BRBICBACNPR7131
012013070562BICB4T      030BICBANCO    PN      N1122R$  000000000039300000000004060000000000393000000000039300000000004060000000000000000000000000000004000000000000002000000000000000787454000000000000009999123100000010000000000000BRBICBACNPR7131
012013070596BIOM4F      020BIOMM       PN           R$  000000000083000000000008300000000000830000000000083000000000008300000000000765000000000088000001000000000000000100000000000000083000000000000000009999123100000010000000000000BRBIOMACNPR9101
012013070502BISA3       010BROOKFIELD  ON      NM   R$  000000000014000000000001460000000000137000000000014100000000001460000000000146000000000014712897000000000009405700000000001333560100000000000000009999123100000010000000000000BRBISAACNOR8109
012013070596BISA3F      020BROOKFIELD  ON      NM   R$  000000000014800000000001490000000000131000000000014300000000001360000000000136000000000014800030000000000000000949000000000000136264000000000000009999123100000010000000000000BRBISAACNOR8109
012013070562BISA3T      030BROOKFIELD  ON      NM060R$  000000000014300000000001460000000000143000000000014400000000001460000000000000000000000000000004000000000000013000000000000001876070000000000000009999123100000010000000000000BRBISAACNOR8109
012013070512BJRC11      010FII JS RECIMCI  ER       R$  000000009500000000000998000000000095000000000009516800000000998000000000094000000000009650000003000000000000000052000000000004948755000000000000009999123100000010000000000000BRBJRCCTF007108
012013070510BMEB2       010MERC BRASIL DIR PRE      R$  000000000000600000000000060000000000006000000000000600000000000060000000000001000000000000700001000000000000001200000000000000007200000000000000009999123100000010000000000000BRBMEBD02PR8189
012013070502BMEB3       010MERC BRASIL ON           R$  000000000165000000000016500000000001650000000000165000000000016500000000001520000000000165000001000000000000000600000000000000990000000000000000009999123100000010000000000000BRBMEBACNOR8189
012013070502BMEB4       010MERC BRASIL PN           R$  000000000110800000000011300000000001100000000000112000000000011280000000001120000000000112800026000000000000020000000000000022400900000000000000009999123100000010000000000000BRBMEBACNPR5190
012013070512BMLC11B     010FII BMBRC LCCI      MB   R$  000000001185100000000118510000000011849000000001184900000000118500000000011600000000001220000004000000000000000942000000000011161902000000000000009999123100000010000000000000BRBMLCCTF004116
012013070502BMTO4       010BRASMOTOR   PN           R$  000000000008500000000000880000000000085000000000008500000000000880000000000085000000000008800005000000000000012000000000000001023000000000000000009999123100000010000000000000BRBMTOACNPR6065
012013070596BMTO4F      020BRASMOTOR   PN           R$  000000000009300000000000930000000000093000000000009300000000000930000000000083000000000009300001000000000000000001000000000000000093000000000000009999123100000010000000000000BRBMTOACNPR6065
012013070502BOAC11B     010BANK AMERICADRN     MB   R$  000000000296500000000029650000000002965000000000296500000000029650000000002915000000000296500001000000000000000100000000000000296500000000000000009999123100000010000000000000BRBOACBDR004111
012013070502BOBR4       010BOMBRIL     PN           R$  000000000067600000000006760000000000676000000000067600000000006760000000000652000000000067600001000000000000000100000000000000067600000000000000009999123100000010000000000000BRBOBRACNPR3127
012013070514BOVA11      010ISHARES BOVACI           R$  000000000445900000000045460000000004323000000000438900000000044390000000004439000000000444007835000000000003406720000000014955293700000000000000009999123100000010000000000000BRBOVACTF003101
012013070596BOVA11F     020ISHARES BOVACI           R$  000000000449600000000045500000000004363000000000443300000000045500000000004415000000000455100033000000000000000105000000000000465559000000000000009999123100000010000000000000BRBOVACTF003101
012013070562BOVA11T     030ISHARES BOVACI        031R$  000000000437600000000043770000000004376000000000437600000000043770000000000000000000000000000002000000000000000100000000000000437653000000000000009999123100000010000000000000BRBOVACTF003101
012013070562BOVA11T     030ISHARES BOVACI        060R$  000000000450300000000045040000000004503000000000450300000000045040000000000000000000000000000002000000000000000100000000000000450340000000000000009999123100000010000000000000BRBOVACTF003101
012013070578BOVAH48     070BOVA        CI        000R$  000000000004000000000000400000000000040000000000004000000000000400000000000000000000000000000002000000000000002800000000000000112000000000000480002013081900000010000000000000BRBOVACTF003101
012013070512BPFF11      010FII ABSOLUTOCI  ER       R$  000000000850000000000087970000000008450000000000850100000000086000000000008500000000000860000039000000000000001296000000000011017965000000000000009999123100000010000000000000BRBPFFCTF002103
012013070502BPHA3       010BR PHARMA   ON      NM   R$  000000000098400000000010100000000000955000000000097900000000010000000000001000000000000100400969000000000000311100000000000304821800000000000000009999123100000010000000000000BRBPHAACNOR6102
012013070596BPHA3F      020BR PHARMA   ON      NM   R$  000000000096100000000010000000000000910000000000096800000000010000000000000961000000000100900014000000000000000339000000000000328428000000000000009999123100000010000000000000BRBPHAACNOR6102
012013070562BPHA3T      030BR PHARMA   ON      NM031R$  000000000096700000000009680000000000967000000000096700000000009680000000000000000000000000000002000000000000001300000000000001257110000000000000009999123100000010000000000000BRBPHAACNOR6102
012013070502BPNM4       010PANAMERICANOPN      N1   R$  000000000051200000000005210000000000510000000000051400000000005160000000000516000000000052000112000000000000047900000000000024641400000000000000009999123100000010000000000000BRBPNMACNPR6111
012013070596BPNM4F      020PANAMERICANOPN      N1   R$  000000000051500000000005150000000000510000000000051100000000005100000000000510000000000052000010000000000000000111000000000000056755000000000000009999123100000010000000000000BRBPNMACNPR6111
012013070502BRAP3       010BRADESPAR   ON      N1   R$  000000000170000000000017000000000001621000000000164900000000016400000000001640000000000168000058000000000000030700000000000050631000000000000000009999123100000010000000000000BRBRAPACNOR5124
012013070596BRAP3F      020BRADESPAR   ON      N1   R$  000000000170000000000017000000000001656000000000166400000000016560000000001625000000000168000007000000000000000118000000000000196354000000000000009999123100000010000000000000BRBRAPACNOR5124
012013070502BRAP4       010BRADESPAR   PN      N1   R$  000000000199100000000020210000000001926000000000198600000000020210000000002005000000000202104794000000000001020400000000002027538700000000000000009999123100000010000000000000BRBRAPACNPR2124
012013070596BRAP4F      020BRADESPAR   PN      N1   R$  000000000202700000000020760000000001933000000000198600000000020160000000001955000000000201600061000000000000001134000000000002252742000000000000009999123100000010000000000000BRBRAPACNPR2124
012013070512BRCR11      010FII BC FUND CI           R$  000000001378500000000138500000000013705000000001380500000000138200000000013752000000001382000298000000000000028546000000000394099278000000000000009999123100000010000000000000BRBRCRCTF000130
012013070502BRFS3       010BRF SA      ON  EJ  NM   R$  000000000473500000000048050000000004665000000000471900000000047750000000004770000000000477605427000000000001842800000000008697357300000000000000009999123100000010000000000000BRBRFSACNOR8110
012013070596BRFS3F      020BRF SA      ON  EJ  NM   R$  000000000461700000000048700000000004617000000000472700000000046320000000004633000000000487000066000000000000001633000000000007720421000000000000009999123100000010000000000000BRBRFSACNOR8110
012013070578BRFSH50     070BRFS    /EJ ON      NM000R$  000000000008500000000000850000000000085000000000008500000000000850000000000000000000000000000001000000000000000100000000000000008500000000000500002013081900000010000000000000BRBRFSACNOR8110
012013070502BRGE11      010ALFA CONSORCPNE          R$  000000000036100000000003610000000000361000000000036100000000003610000000000360000000000039900001000000000000000100000000000000036100000000000000009999123100000010000000000000BRBRGEACNPE1090
012013070502BRGE3       010ALFA CONSORCON           R$  000000000040000000000004000000000000400000000000040000000000004000000000000337000000000040000002000000000000001000000000000000400000000000000000009999123100000010000000000000BRBRGEACNOR6196
012013070502BRIN3       010BR INSURANCEON      NM   R$  000000000215100000000021610000000002117000000000213000000000021200000000002119000000000212000806000000000000344800000000000734678500000000000000009999123100000010000000000000BRBRINACNOR3105
012013070596BRIN3F      020BR INSURANCEON      NM   R$  000000000218900000000021890000000002142000000000216400000000021500000000002021000000000215000003000000000000000005000000000000010820000000000000009999123100000010000000000000BRBRINACNOR3105
012013070502BRIV3       010ALFA INVEST ON           R$  000000000064400000000006440000000000644000000000064400000000006440000000000644000000000000000001000000000000001700000000000001094800000000000000009999123100000010000000000000BRBRIVACNOR6196
012013070502BRKM3       010BRASKEM     ON      N1   R$  000000000124900000000012500000000001207000000000123800000000012070000000001207000000000120800010000000000000004400000000000005447300000000000000009999123100000010000000000000BRBRKMACNOR1110
012013070502BRKM5       010BRASKEM     PNA     N1   R$  000000000171000000000017100000000001542000000000159500000000016210000000001621000000000162615744000000000004935600000000007877430600000000000000009999123100000010000000000000BRBRKMACNPA4110
012013070596BRKM5F      020BRASKEM     PNA     N1   R$  000000000170300000000017200000000001550000000000160100000000015700000000001570000000000169400050000000000000001478000000000002367566000000000000009999123100000010000000000000BRBRKMACNPA4110
012013070562BRKM5T      030BRASKEM     PNA     N1031R$  000000000156900000000015700000000001569000000000156900000000015700000000000000000000000000000002000000000000000400000000000000627605000000000000009999123100000010000000000000BRBRKMACNPA4110
012013070502BRML3       010BR MALLS PARON      NM   R$  000000000187000000000018860000000001847000000000186500000000018860000000001864000000000188613473000000000003427100000000006392249800000000000000009999123100000010000000000000BRBRMLACNOR9105
012013070596BRML3F      020BR MALLS PARON      NM   R$  000000000180100000000019900000000001801000000000186600000000018010000000001801000000000198900035000000000000000921000000000001719032000000000000009999123100000010000000000000BRBRMLACNOR9105
012013070578BRMLH19     070BRML        ON      NM000R$  000000000006000000000000600000000000060000000000006000000000000600000000000000000000000000000001000000000000000100000000000000006000000000000190002013081900000010000000000000BRBRMLACNOR9105
012013070502BRPR3       010BR PROPERT  ON      NM   R$  000000000179400000000018090000000001751000000000178100000000017900000000001774000000000179106641000000000002801200000000004989719200000000000000009999123100000010000000000000BRBRPRACNOR9112
012013070596BRPR3F      020BR PROPERT  ON      NM   R$  000000000179500000000018750000000001750000000000177800000000018750000000001776000000000187500044000000000000001354000000000002407900000000000000009999123100000010000000000000BRBRPRACNOR9112
012013070596BRSR3F      020BANRISUL    ON      N1   R$  000000000120000000000013050000000001200000000000125000000000013050000000001304000000000130500003000000000000000033000000000000041280000000000000009999123100000010000000000000BRBRSRACNOR3130
012013070596BRSR5F      020BANRISUL    PNA     N1   R$  000000000133000000000013300000000001330000000000133000000000013300000000001300000000000000000006000000000000000016000000000000021280000000000000009999123100000010000000000000BRBRSRACNPA6134
012013070502BRSR6       010BANRISUL    PNB     N1   R$  000000000141000000000014100000000001353000000000137500000000013750000000001375000000000137603370000000000001401000000000001926599700000000000000009999123100000010000000000000BRBRSRACNPB4133
012013070596BRSR6F      020BANRISUL    PNB     N1   R$  000000000141000000000014300000000001360000000000137800000000014300000000001360000000000146100032000000000000000833000000000001148508000000000000009999123100000010000000000000BRBRSRACNPB4133
012013070502BSEV3       010BIOSEV      ON      NM   R$  000000000126200000000012720000000001250000000000125300000000012720000000001272000000000129000006000000000000002600000000000003258000000000000000009999123100000010000000000000BRBSEVACNOR3100
012013070582BSEVS99     080BSEVE       ON      NM000R$  000000000025000000000002500000000000250000000000025000000000002500000000000250000000000032000001000000000000000100000000000000025000000000000165702014072100000010000000000000BRBSEVACNOR3100
012013070502BTOW3       010B2W DIGITAL ON      NM   R$  000000000080700000000008280000000000762000000000079800000000008170000000000817000000000081903988000000000001379900000000001101545800000000000000009999123100000010000000000000BRBTOWACNOR8105
012013070596BTOW3F      020B2W DIGITAL ON      NM   R$  000000000081000000000008270000000000765000000000079700000000008270000000000766000000000082700026000000000000000740000000000000590380000000000000009999123100000010000000000000BRBTOWACNOR8105
012013070502BTTL3       010BATTISTELLA ON           R$  000000000007300000000000770000000000073000000000007300000000000770000000000070000000000007800002000000000000002600000000000000190200000000000000009999123100000010000000000000BRBTTLACNOR0105
012013070502BTTL4       010BATTISTELLA PN           R$  000000000009400000000000960000000000094000000000009500000000000960000000000093000000000009600004000000000000000400000000000000038100000000000000009999123100000010000000000000BRBTTLACNPR7105
012013070596BTTL4F      020BATTISTELLA PN           R$  000000000008500000000000850000000000085000000000008500000000000850000000000085000000000013500001000000000000000010000000000000000850000000000000009999123100000010000000000000BRBTTLACNPR7105
012013070502BVMF3       010BMFBOVESPA  ON      NM   R$  000000000120800000000012150000000001180000000000119900000000012150000000001208000000000121517616000000000009360100000000011230688100000000000000009999123100000010000000000000BRBVMFACNOR3125
012013070596BVMF3F      020BMFBOVESPA  ON      NM   R$  000000000121200000000012150000000001181000000000119700000000012150000000001210000000000121500088000000000000002423000000000002901970000000000000009999123100000010000000000000BRBVMFACNOR3125
012013070562BVMF3T      030BMFBOVESPA  ON      NM090R$  000000000123100000000012320000000001231000000000123100000000012320000000000000000000000000000002000000000000002000000000000002462280000000000000009999123100000010000000000000BRBVMFACNOR3125
012013070578BVMFG11     070BVMF        ON      NM000R$  000000000011600000000001160000000000093000000000009900000000001110000000000115000000000000000028000000000000012700000000000001262400000000000110002013071500000010000000000000BRBVMFACNOR3125
012013070578BVMFG12     070BVMF        ON      NM000R$  000000000005100000000000510000000000034000000000004300000000000470000000000042000000000005100229000000000000179800000000000007880000000000000118902013071500000010000000000000BRBVMFACNOR3124
012013070578BVMFG13     070BVMF        ON      NM000R$  000000000001300000000000150000000000008000000000001100000000000140000000000013000000000001400274000000000000365200000000000004061000000000000126902013071500000010000000000000BRBVMFACNOR3123
012013070578BVMFG14     070BVMF        ON      NM000R$  000000000000100000000000010000000000001000000000000100000000000010000000000000000000000000100005000000000000017000000000000000017000000000000136902013071500000010000000000000BRBVMFACNOR3123
012013070578BVMFG41     070BVMF        ON      NM000R$  000000000007500000000000750000000000055000000000006000000000000570000000000000000000000000000012000000000000054000000000000003270000000000000115002013071500000010000000000000BRBVMFACNOR3125
012013070578BVMFG42     070BVMF        ON      NM000R$  000000000002400000000000250000000000024000000000002400000000000250000000000000000000000000000002000000000000003600000000000000088200000000000121902013071500000010000000000000BRBVMFACNOR3123
012013070578BVMFG43     070BVMF        ON      NM000R$  000000000000200000000000020000000000002000000000000200000000000020000000000001000000000000300005000000000000007000000000000000014000000000000133902013071500000010000000000000BRBVMFACNOR3124
012013070578BVMFH10     070BVMF        ON      NM000R$  000000000021200000000002120000000000210000000000021100000000002100000000000000000000000000000002000000000000005000000000000001058000000000000100002013081900000010000000000000BRBVMFACNOR3125
012013070578BVMFH11     070BVMF        ON      NM000R$  000000000013500000000001370000000000122000000000013200000000001370000000000065000000000000000009000000000000001800000000000000237900000000000110002013081900000010000000000000BRBVMFACNOR3125
012013070578BVMFH12     070BVMF  FM    ON      NM000R$  000000000007000000000000720000000000058000000000006800000000000720000000000045000000000019700019000000000000046200000000000003153400000000000120002013081900000010000000000000BRBVMFACNOR3125
012013070578BVMFH13     070BVMF  FM    ON      NM000R$  000000000003100000000000370000000000023000000000002600000000000370000000000032000000000003700154000000000000186400000000000004872900000000000128902013081900000010000000000000BRBVMFACNOR3124
012013070578BVMFH14     070BVMF  FM    ON      NM000R$  000000000000700000000000070000000000006000000000000600000000000070000000000005000000000001100006000000000000007800000000000000048100000000000138902013081900000010000000000000BRBVMFACNOR3124
012013070578BVMFH15     070BVMF        ON      NM000R$  000000000000200000000000020000000000002000000000000200000000000020000000000001000000000000400001000000000000007000000000000000014000000000000150002013081900000010000000000000BRBVMFACNOR3125
012013070578BVMFH42     070BVMF  FM    ON      NM000R$  000000000004300000000000450000000000035000000000004100000000000390000000000000000000000000000013000000000000045900000000000001884600000000000125002013081900000010000000000000BRBVMFACNOR3125
012013070578BVMFH43     070BVMF  FM    ON      NM000R$  000000000001000000000000130000000000010000000000001000000000000130000000000005000000000135000003000000000000005400000000000000055200000000000135002013081900000010000000000000BRBVMFACNOR3125
012013070578BVMFI11     070BVMF        ON      NM000R$  000000000014700000000001470000000000147000000000014700000000001470000000000000000000000000000001000000000000001000000000000000147000000000000110002013091600000010000000000000BRBVMFACNOR3125
012013070578BVMFI12     070BVMF  FM    ON      NM000R$  000000000008000000000000870000000000077000000000008100000000000870000000000000000000000000000008000000000000026700000000000002164500000000000120002013091600000010000000000000BRBVMFACNOR3125
012013070578BVMFI13     070BVMF  FM    ON      NM000R$  000000000003800000000000410000000000034000000000003700000000000400000000000024000000000000000012000000000000047800000000000001772800000000000130002013091600000010000000000000BRBVMFACNOR3125
012013070578BVMFI14     070BVMF        ON      NM000R$  000000000001500000000000150000000000015000000000001500000000000150000000000002000000000001700001000000000000001000000000000000015000000000000140002013091600000010000000000000BRBVMFACNOR3125
012013070578BVMFI42     070BVMF  FM    ON      NM000R$  000000000005500000000000570000000000053000000000005500000000000570000000000000000000000000000003000000000000009100000000000000503300000000000125002013091600000010000000000000BRBVMFACNOR3125
012013070578BVMFI43     070BVMF  FM    ON      NM000R$  000000000002100000000000270000000000018000000000002100000000000270000000000000000000000000000011000000000000029600000000000000651100000000000135002013091600000010000000000000BRBVMFACNOR3125
012013070578BVMFJ15     070BVMF        ON      NM000R$  000000000001100000000000110000000000010000000000001000000000000110000000000012000000000000000006000000000000009100000000000000094700000000000150002013102100000010000000000000BRBVMFACNOR3125
012013070578BVMFL2      070BVMF        ON      NM000R$  000000000012400000000001240000000000124000000000012400000000001240000000000000000000000000000002000000000000002000000000000000248000000000000118902013121600000010000000000000BRBVMFACNOR3124
012013070582BVMFS10     080BVMFE       ON      NM000R$  000000000000100000000000010000000000001000000000000100000000000010000000000000000000000000100003000000000000016700000000000000016700000000000098902013071500000010000000000000BRBVMFACNOR3124
012013070582BVMFS11     080BVMFE       ON      NM000R$  000000000000700000000000070000000000007000000000000700000000000070000000000000000000000001400002000000000000002000000000000000014000000000000110002013071500000010000000000000BRBVMFACNOR3125
012013070582BVMFS12     080BVMFE       ON      NM000R$  000000000002800000000000380000000000028000000000002900000000000280000000000011000000000004000021000000000000059700000000000001768000000000000118902013071500000010000000000000BRBVMFACNOR3124
012013070582BVMFS13     080BVMFE       ON      NM000R$  000000000007400000000000890000000000071000000000007500000000000850000000000005000000000009800044000000000000022600000000000001700900000000000126902013071500000010000000000000BRBVMFACNOR3123
012013070582BVMFS14     080BVMFE       ON      NM000R$  000000000017300000000001730000000000173000000000017300000000001730000000000100000000000000000001000000000000000600000000000000103800000000000136902013071500000010000000000000BRBVMFACNOR3123
012013070582BVMFS15     080BVMFE       ON      NM000R$  000000000027300000000002910000000000273000000000028200000000002910000000000000000000000000000004000000000000012000000000000003389800000000000148902013071500000010000000000000BRBVMFACNOR3124
012013070582BVMFS41     080BVMFE       ON      NM000R$  000000000001800000000000180000000000018000000000001800000000000180000000000000000000000000000005000000000000030000000000000000540000000000000115002013071500000010000000000000BRBVMFACNOR3125
012013070582BVMFS42     080BVMFE       ON      NM000R$  000000000004000000000000480000000000040000000000004200000000000480000000000000000000000000000003000000000000007200000000000000304000000000000121902013071500000010000000000000BRBVMFACNOR3123
012013070582BVMFS43     080BVMFE       ON      NM000R$  000000000013400000000001340000000000134000000000013400000000001340000000000000000000000000000001000000000000003300000000000000442200000000000133902013071500000010000000000000BRBVMFACNOR3124
012013070582BVMFT11     080BVMFE       ON      NM000R$  000000000002500000000000270000000000025000000000002600000000000270000000000015000000000003000002000000000000002300000000000000061100000000000110002013081900000010000000000000BRBVMFACNOR3125
012013070582BVMFT12     080BVMFE FM    ON      NM000R$  000000000005300000000000650000000000053000000000005800000000000550000000000045000000000006200040000000000000050400000000000002951900000000000120002013081900000010000000000000BRBVMFACNOR3125
012013070582BVMFT13     080BVMFE FM    ON      NM000R$  000000000010800000000001170000000000101000000000010600000000001020000000000054000000000000000018000000000000057400000000000006100400000000000128902013081900000010000000000000BRBVMFACNOR3124
012013070582BVMFT41     080BVMFE FM    ON      NM000R$  000000000003600000000000430000000000036000000000003800000000000390000000000000000000000000000017000000000000048600000000000001849200000000000115002013081900000010000000000000BRBVMFACNOR3125
012013070582BVMFT42     080BVMFE FM    ON      NM000R$  000000000008300000000000870000000000078000000000008200000000000780000000000000000000000000000008000000000000024400000000000002017600000000000125002013081900000010000000000000BRBVMFACNOR3125
012013070582BVMFU11     080BVMFE       ON      NM000R$  000000000003200000000000320000000000032000000000003200000000000320000000000000000000000000000001000000000000000100000000000000003200000000000110002013091600000010000000000000BRBVMFACNOR3125
012013070582BVMFU12     080BVMFE FM    ON      NM000R$  000000000006200000000000680000000000062000000000006500000000000680000000000000000000000007400007000000000000025200000000000001660100000000000120002013091600000010000000000000BRBVMFACNOR3125
012013070582BVMFU41     080BVMFE FM    ON      NM000R$  000000000004400000000000490000000000044000000000004600000000000490000000000000000000000000000009000000000000036600000000000001690400000000000115002013091600000010000000000000BRBVMFACNOR3125
012013070582BVMFU42     080BVMFE FM    ON      NM000R$  000000000009200000000000980000000000087000000000009200000000000870000000000000000000000000000005000000000000014400000000000001333100000000000125002013091600000010000000000000BRBVMFACNOR3125
012013070582BVMFX2      080BVMFE       ON      NM000R$  000000000007500000000000750000000000075000000000007500000000000750000000000071000000000000000001000000000000001800000000000000135000000000000118902013121600000010000000000000BRBVMFACNOR3124
012013070502CAMB4       010CAMBUCI     PN           R$  000000000019700000000001970000000000197000000000019700000000001970000000000182000000000020400001000000000000002500000000000000492500000000000000009999123100000010000000000000BRCAMBACNPR1117
012013070502CARD3       010CSU CARDSYSTON      NM   R$  000000000029000000000002900000000000276000000000028600000000002900000000000277000000000029000025000000000000021000000000000006016600000000000000009999123100000010000000000000BRCARDACNOR9105
012013070502CBEE3       010AMPLA ENERG ON *         R$  000000000014300000000001430000000000143000000000014300000000001430000000000117000000000014400001000000000000100000000000000000014300000000000000009999123100010000000000000000BRCBEEACNOR3149
012013070596CBMA4F      020COBRASMA    PN           R$  000000000000300000000000030000000000003000000000000300000000000030000000000003000000000000400002000000000000003651000000000000010953000000000000009999123100000010000000000000BRCBMAACNPR1124
012013070508CCHI3       010CHIARELLI   ON           R$  000000000002100000000000230000000000019000000000002000000000000200000000000019000000000002100031000000000000450000000000000009030000000000000000009999123100000010000000000000BRCCHIACNOR5123
012013070596CCHI3F      020CHIARELLI   ON           R$  000000000001800000000000180000000000018000000000001800000000000180000000000020000000000002100003000000000000002000000000000000036000000000000000009999123100000010000000000000BRCCHIACNOR5123
012013070508CCHI4       010CHIARELLI   PN           R$  000000000001700000000000170000000000017000000000001700000000000170000000000015000000000001800001000000000000010000000000000000170000000000000000009999123100000010000000000000BRCCHIACNPR2122
012013070502CCPR3       010CYRE COM-CCPON      NM   R$  000000000208600000000020860000000002031000000000206300000000020310000000002031000000000211900009000000000000001500000000000003095100000000000000009999123100000010000000000000BRCCPRACNOR9107
012013070502CCRO3       010CCR SA      ON      NM   R$  000000000165000000000017130000000001646000000000168300000000017120000000001696000000000171209951000000000003436900000000005787765500000000000000009999123100000010000000000000BRCCROACNOR2122
012013070596CCRO3F      020CCR SA      ON      NM   R$  000000000163100000000017250000000001631000000000168300000000016890000000001689000000000177000064000000000000001977000000000003329790000000000000009999123100000010000000000000BRCCROACNOR2122
012013070578CCROH17     070CCRO        ON      NM000R$  000000000005000000000000500000000000050000000000005000000000000500000000000000000000000000000001000000000000000100000000000000005000000000000170002013081900000010000000000000BRCCROACNOR2122
012013070502CCXC3       010CCX CARVAO  ON      NM   R$  000000000006500000000000720000000000061000000000006600000000000720000000000071000000000007200618000000000003092500000000000205653800000000000000009999123100000010000000000000BRCCXCACNOR5100
012013070596CCXC3F      020CCX CARVAO  ON      NM   R$  000000000006500000000000690000000000061000000000006400000000000660000000000068000000000007100020000000000000000861000000000000055474000000000000009999123100000010000000000000BRCCXCACNOR5100
012013070508CELP3       010CELPA       ON           R$  000000000005800000000000580000000000055000000000005500000000000570000000000054000000000005800008000000000000057600000000000003184200000000000000009999123100000010000000000000BRCELPACNOR8112
012013070508CELP5       010CELPA       PNA          R$  000000000006600000000000660000000000066000000000006600000000000660000000000066000000000008000003000000000000002100000000000000138600000000000000009999123100000010000000000000BRCELPACNPA1114
012013070512CEOC11B     010FII CEO CCP CI      MB   R$  000000000900000000000090000000000008821000000000891800000000088210000000008821000000000899900015000000000000000700000000000006242769000000000000009999123100000010000000000000BRCEOCCTF003107
012013070502CESP3       010CESP        ON      N1   R$  000000000150000000000015680000000001500000000000153200000000015680000000001501000000000154900012000000000000001600000000000002452200000000000000009999123100000010000000000000BRCESPACNOR3159
012013070502CESP6       010CESP        PNB     N1   R$  000000000186300000000018810000000001802000000000183300000000018260000000001826000000000184003823000000000000692700000000001270379600000000000000009999123100000010000000000000BRCESPACNPB4118
012013070596CESP6F      020CESP        PNB     N1   R$  000000000185100000000019150000000001815000000000186200000000019150000000001810000000000191500020000000000000000757000000000001414768000000000000009999123100000010000000000000BRCESPACNPB4118
012013070562CESP6T      030CESP        PNB     N1060R$  000000000182300000000018240000000001823000000000182300000000018240000000000000000000000000000002000000000000000700000000000001276537000000000000009999123100000010000000000000BRCESPACNPB4118
012013070562CESP6T      030CESP        PNB     N1130R$  000000000188000000000018810000000001880000000000188000000000018810000000000000000000000000000002000000000000001000000000000001880424000000000000009999123100000010000000000000BRCESPACNPB4118
012013070502CGAS3       010COMGAS      ON           R$  000000000444000000000044800000000004300000000000432600000000044800000000004480000000000448800009000000000000005000000000000021630100000000000000009999123100000010000000000000BRCGASACNOR0132
012013070502CGAS5       010COMGAS      PNA          R$  000000000483000000000048320000000004794000000000481400000000048320000000004832000000000483700071000000000000021400000000000103026700000000000000009999123100000010000000000000BRCGASACNPA3129
012013070596CGAS5F      020COMGAS      PNA          R$  000000000482000000000048330000000004805000000000481400000000048330000000004833000000000523300006000000000000000221000000000001064015000000000000009999123100000010000000000000BRCGASACNPA3129
012013070502CGRA3       010GRAZZIOTIN  ON           R$  000000000155000000000015500000000001550000000000155000000000015500000000001500000000000158000001000000000000000100000000000000155000000000000000009999123100000010000000000000BRCGRAACNOR2061
012013070502CGRA4       010GRAZZIOTIN  PN           R$  000000000158500000000016150000000001585000000000160000000000016100000000001588000000000161000051000000000000022600000000000036162400000000000000009999123100000010000000000000BRCGRAACNPR9061
012013070502CIEL3       010CIELO       ON      NM   R$  000000000555000000000055990000000005490000000000553900000000055800000000005580000000000558206950000000000001511300000000008371926300000000000000009999123100000010000000000000BRCIELACNOR3111
012013070596CIEL3F      020CIELO       ON      NM   R$  000000000557000000000056250000000005450000000000554300000000056250000000005470000000000562500088000000000000002069000000000011469303000000000000009999123100000010000000000000BRCIELACNOR3111
012013070562CIEL3T      030CIELO       ON      NM031R$  000000000559700000000055980000000005597000000000559700000000055980000000000000000000000000000002000000000000000400000000000002239176000000000000009999123100000010000000000000BRCIELACNOR3111
012013070582CIELU40     080CIELE       ON      NM000R$  000000000000100000000000010000000000001000000000000100000000000010000000000000000000000000000002000000000000100000000000000000100000000000000400002013091600000010000000000000BRCIELACNOR3111
012013070582CIELU50     080CIELE       ON      NM000R$  000000000008700000000000870000000000086000000000008600000000000860000000000000000000000008500003000000000000100100000000000008683700000000000500002013091600000010000000000000BRCIELACNOR3111
012013070502CLSC4       010CELESC      PN      N2   R$  000000000200000000000020000000000001984000000000199100000000019900000000001945000000000199500005000000000000000600000000000001194800000000000000009999123100000010000000000000BRCLSCACNPR3107
012013070596CLSC4F      020CELESC      PN      N2   R$  000000000190300000000019030000000001903000000000190300000000019030000000001902000000000211800001000000000000000025000000000000047575000000000000009999123100000010000000000000BRCLSCACNPR3107
012013070502CMCS11B     010COMCAST     DRN ED  MB   R$  000000000977800000000097780000000009778000000000977800000000097780000000008544000000000977800001000000000000000100000000000000977800000000000000009999123100000010000000000000BRCMCSBDR008106
012013070558CMGR3       010CEMAT       ON           R$  000000000065900000000006590000000000600000000000063900000000006000000000000251000000000060000003000000000000000300000000000000191800000000000000009999123100000010000000000000BRCMGRACNOR7114
012013070558CMGR4       010CEMAT       PN           R$  000000000044900000000004500000000000449000000000044900000000004500000000000316000000000059900004000000000000000400000000000000179700000000000000009999123100000010000000000000BRCMGRACNPR4114
012013070502CMIG3       010CEMIG       ON      N1   R$  000000000194000000000019950000000001889000000000192700000000019820000000001980000000000198200489000000000000114300000000000220282000000000000000009999123100000010000000000000BRCMIGACNOR6208
012013070596CMIG3F      020CEMIG       ON      N1   R$  000000000195600000000019570000000001900000000000192200000000019270000000001927000000000203000040000000000000001073000000000002062714000000000000009999123100000010000000000000BRCMIGACNOR6208
012013070502CMIG4       010CEMIG       PN      N1   R$  000000000195000000000020000000000001881000000000192300000000019810000000001981000000000198313014000000000004414600000000008491825100000000000000009999123100000010000000000000BRCMIGACNPR3208
012013070596CMIG4F      020CEMIG       PN      N1   R$  000000000196800000000019970000000001883000000000192500000000019900000000001902000000000199000192000000000000005361000000000010322657000000000000009999123100000010000000000000BRCMIGACNPR3208
012013070562CMIG4T      030CEMIG       PN      N1031R$  000000000190200000000019030000000001902000000000190200000000019030000000000000000000000000000002000000000000002000000000000003804570000000000000009999123100000010000000000000BRCMIGACNPR3208
012013070562CMIG4T      030CEMIG       PN      N1181R$  000000000202000000000020210000000002020000000000202000000000020210000000000000000000000000000002000000000000001000000000000002020256000000000000009999123100000010000000000000BRCMIGACNPR3208
012013070578CMIGG24     070CMIG        PN      N1000R$  000000000003000000000000300000000000030000000000003000000000000300000000000005000000000009000005000000000000000500000000000000015000000000000200002013071500000010000000000000BRCMIGACNPR3207
012013070502COCA11B     010COCA COLA   DRN     MB   R$  000000000941500000000094150000000009415000000000941500000000094150000000009053000000000941500001000000000000000100000000000000941500000000000000009999123100000010000000000000BRCOCABDR002108
012013070502COCE5       010COELCE      PNA          R$  000000000383600000000039000000000003710000000000377500000000038500000000003850000000000386600291000000000000104500000000000394555200000000000000009999123100000010000000000000BRCOCEACNPA3133
012013070596COCE5F      020COELCE      PNA          R$  000000000383600000000039660000000003750000000000380200000000038990000000003629000000000389800018000000000000000388000000000001475348000000000000009999123100000010000000000000BRCOCEACNPA3133
012013070502CPFE3       010CPFL ENERGIAON      NM   R$  000000000203800000000020580000000001986000000000200400000000020380000000002004000000000203804562000000000000992800000000001990469900000000000000009999123100000010000000000000BRCPFEACNOR0121
012013070596CPFE3F      020CPFL ENERGIAON      NM   R$  000000000190100000000021670000000001901000000000200500000000020400000000002035000000000216700027000000000000000731000000000001466162000000000000009999123100000010000000000000BRCPFEACNOR0121
012013070502CPLE3       010COPEL       ON      N1   R$  000000000216000000000022370000000002100000000000214000000000022340000000002130000000000223400087000000000000031100000000000066564400000000000000009999123100000010000000000000BRCPLEACNOR8128
012013070596CPLE3F      020COPEL       ON      N1   R$  000000000240900000000025320000000002409000000000242900000000025320000000002100000000000000000002000000000000000012000000000000029154000000000000009999123100000010000000000000BRCPLEACNOR8128
012013070502CPLE6       010COPEL       PNB     N1   R$  000000000277000000000028310000000002647000000000272200000000028090000000002795000000000280903267000000000001258100000000003425386800000000000000009999123100000010000000000000BRCPLEACNPB9125
012013070596CPLE6F      020COPEL       PNB     N1   R$  000000000276000000000028490000000002668000000000275600000000028450000000002701000000000284500026000000000000000903000000000002510726000000000000009999123100000010000000000000BRCPLEACNPB9125
012013070502CRDE3       010CR2         ON      NM   R$  000000000040400000000004040000000000383000000000039200000000004000000000000386000000000045000016000000000000032600000000000012788400000000000000009999123100000010000000000000BRCRDEACNOR1108
012013070596CRDE3F      020CR2         ON      NM   R$  000000000039700000000003970000000000397000000000039700000000003970000000000380000000000040400001000000000000000051000000000000020247000000000000009999123100000010000000000000BRCRDEACNOR1108
012013070502CREM3       010CREMER      ON      NM   R$  000000000140900000000014100000000001393000000000140500000000014000000000001387000000000140400011000000000000002100000000000002952400000000000000009999123100000010000000000000BRCREMACNOR2166
012013070596CREM3F      020CREMER      ON      NM   R$  000000000143000000000014300000000001400000000000142300000000014000000000001381000000000140000004000000000000000009000000000000012810000000000000009999123100000010000000000000BRCREMACNOR2166
012013070502CRIV4       010ALFA FINANC PN           R$  000000000048000000000004800000000000470000000000047700000000004800000000000472000000000048000013000000000000009200000000000004396000000000000000009999123100000010000000000000BRCRIVACNPR1189
012013070502CRUZ3       010SOUZA CRUZ  ON           R$  000000000274100000000027750000000002724000000000274600000000027450000000002742000000000274804011000000000000883300000000002425576500000000000000009999123100000010000000000000BRCRUZACNOR0246
012013070596CRUZ3F      020SOUZA CRUZ  ON           R$  000000000276200000000028400000000002721000000000275400000000027210000000002721000000000283900037000000000000000979000000000002696697000000000000009999123100000010000000000000BRCRUZACNOR0246
012013070502CSAN3       010COSAN       ON      NM   R$  000000000418000000000042300000000004129000000000416900000000041950000000004194000000000419503583000000000000641300000000002673698500000000000000009999123100000010000000000000BRCSANACNOR6107
012013070596CSAN3F      020COSAN       ON      NM   R$  000000000420500000000042180000000004143000000000417100000000041490000000004149000000000421800053000000000000001477000000000006161784000000000000009999123100000010000000000000BRCSANACNOR6107
012013070562CSAN3T      030COSAN       ON      NM017R$  000000000417600000000041770000000004176000000000417600000000041770000000000000000000000000000002000000000000000100000000000000417664000000000000009999123100000010000000000000BRCSANACNOR6107
012013070562CSAN3T      030COSAN       ON      NM031R$  000000000424100000000042420000000004241000000000424100000000042420000000000000000000000000000002000000000000002500000000000010604786000000000000009999123100000010000000000000BRCSANACNOR6107
012013070562CSAN3T      030COSAN       ON      NM048R$  000000000420300000000042040000000004203000000000420300000000042040000000000000000000000000000002000000000000001300000000000005464784000000000000009999123100000010000000000000BRCSANACNOR6107
012013070578CSANG45     070CSAN        ON      NM000R$  000000000000500000000000050000000000005000000000000500000000000050000000000000000000000000000001000000000000002000000000000000010000000000000450002013071500000010000000000000BRCSANACNOR6107
012013070502CSCO11B     010CISCO       DRN ED  MB   R$  000000000575200000000057520000000005752000000000575200000000057520000000005189000000000575200001000000000000000100000000000000575200000000000000009999123100000010000000000000BRCSCOBDR004110
012013070502CSMG3       010COPASA      ON  EJ  NM   R$  000000000321000000000033290000000003173000000000324300000000032450000000003235000000000324504362000000000002744100000000008900602900000000000000009999123100000010000000000000BRCSMGACNOR5127
012013070596CSMG3F      020COPASA      ON  EJ  NM   R$  000000000323000000000033000000000003196000000000323700000000032350000000003052000000000333900016000000000000000424000000000001372562000000000000009999123100000010000000000000BRCSMGACNOR5127
012013070514CSMO11      010ISHARES CSMOCI           R$  000000000437900000000043830000000004379000000000438000000000043830000000004350000000000445800002000000000000000100000000000000438020000000000000009999123100000010000000000000BRCSMOCTF002100
012013070502CSNA3       010SID NACIONALON           R$  000000000055400000000005720000000000528000000000054600000000005450000000000545000000000054618881000000000010845000000000005927227600000000000000009999123100000010000000000000BRCSNAACNOR6242
012013070596CSNA3F      020SID NACIONALON           R$  000000000056400000000005700000000000530000000000054500000000005460000000000546000000000056900157000000000000003916000000000002138163000000000000009999123100000010000000000000BRCSNAACNOR6242
012013070562CSNA3T      030SID NACIONALON        031R$  000000000053800000000005460000000000538000000000054000000000005460000000000000000000000000000004000000000000014600000000000007887710000000000000009999123100000010000000000000BRCSNAACNOR6242
012013070562CSNA3T      030SID NACIONALON        090R$  000000000054900000000005640000000000542000000000054700000000005640000000000000000000000000000008000000000000037000000000000020254438000000000000009999123100000010000000000000BRCSNAACNOR6242
012013070562CSNA3T      030SID NACIONALON        122R$  000000000056900000000005700000000000569000000000056900000000005700000000000000000000000000000002000000000000010000000000000005691830000000000000009999123100000010000000000000BRCSNAACNOR6242
012013070578CSNAF8      070CSNA        ON        000R$  000000000004000000000000400000000000040000000000004000000000000400000000000000000000000000000002000000000000500000000000000020000000000000000080002014061600000010000000000000BRCSNAACNOR6242
012013070578CSNAG52     070CSNA        ON        000R$  000000000003500000000000350000000000033000000000003300000000000330000000000035000000000000000005000000000000019000000000000000645000000000000052002013071500000010000000000000BRCSNAACNOR6242
012013070578CSNAG54     070CSNA        ON        000R$  000000000003600000000000360000000000034000000000003500000000000340000000000000000000000000000004000000000000010000000000000000351000000000000054002013071500000010000000000000BRCSNAACNOR6242
012013070578CSNAG56     070CSNA        ON        000R$  000000000000900000000000090000000000009000000000000900000000000090000000000000000000000000000002000000000000012000000000000000108000000000000056002013071500000010000000000000BRCSNAACNOR6242
012013070578CSNAG58     070CSNA        ON        000R$  000000000000600000000000220000000000006000000000000600000000000220000000000004000000000000000004000000000000061900000000000000373000000000000058002013071500000010000000000000BRCSNAACNOR6242
012013070578CSNAG6      070CSNA        ON        000R$  000000000000600000000000060000000000003000000000000300000000000040000000000002000000000000400009000000000000037200000000000000140800000000000060002013071500000010000000000000BRCSNAACNOR6242
012013070578CSNAG62     070CSNA        ON        000R$  000000000000100000000000010000000000001000000000000100000000000010000000000000000000000003500002000000000000013000000000000000013000000000000062002013071500000010000000000000BRCSNAACNOR6242
012013070578CSNAG64     070CSNA        ON        000R$  000000000000100000000000010000000000001000000000000100000000000010000000000000000000000000100003000000000000006800000000000000006800000000000064002013071500000010000000000000BRCSNAACNOR6242
012013070578CSNAG7      070CSNA        ON        000R$  000000000000100000000000010000000000001000000000000100000000000010000000000000000000000000100002000000000000003000000000000000003000000000000070002013071500000010000000000000BRCSNAACNOR6242
012013070578CSNAH52     070CSNA        ON        000R$  000000000005100000000000560000000000051000000000005300000000000560000000000000000000000000000002000000000000001700000000000000090200000000000052002013081900000010000000000000BRCSNAACNOR6242
012013070578CSNAH54     070CSNA  FM    ON        000R$  000000000005200000000000540000000000039000000000004700000000000440000000000000000000000000000015000000000000032400000000000001531100000000000054002013081900000010000000000000BRCSNAACNOR6242
012013070578CSNAH56     070CSNA  FM    ON        000R$  000000000004100000000000420000000000030000000000004000000000000340000000000000000000000000000008000000000000014500000000000000581000000000000056002013081900000010000000000000BRCSNAACNOR6242
012013070578CSNAH58     070CSNA  FM    ON        000R$  000000000003000000000000320000000000022000000000002700000000000220000000000000000000000000000006000000000000014000000000000000384000000000000058002013081900000010000000000000BRCSNAACNOR6242
012013070578CSNAH6      070CSNA  FM    ON        000R$  000000000002200000000000220000000000014000000000001600000000000170000000000000000000000013800007000000000000014500000000000000232200000000000060002013081900000010000000000000BRCSNAACNOR6242
012013070578CSNAH7      070CSNA        ON        000R$  000000000000300000000000030000000000003000000000000300000000000030000000000000000000000000500001000000000000000200000000000000000600000000000070002013081900000010000000000000BRCSNAACNOR6242
012013070578CSNAI56     070CSNA  FM    ON        000R$  000000000005100000000000540000000000036000000000004500000000000400000000000000000000000000000018000000000000039700000000000001811700000000000056002013091600000010000000000000BRCSNAACNOR6242
012013070578CSNAI58     070CSNA  FM    ON        000R$  000000000004200000000000430000000000031000000000003900000000000310000000000000000000000000000010000000000000023000000000000000909500000000000058002013091600000010000000000000BRCSNAACNOR6242
012013070578CSNAI6      070CSNA  FM    ON        000R$  000000000003300000000000340000000000023000000000003200000000000230000000000022000000000003300008000000000000014100000000000000462900000000000060002013091600000010000000000000BRCSNAACNOR6242
012013070578CSNAI7      070CSNA        ON        000R$  000000000000700000000000070000000000006000000000000600000000000070000000000005000000000001500003000000000000002300000000000000015300000000000070002013091600000010000000000000BRCSNAACNOR6242
012013070578CSNAJ7      070CSNA        ON        000R$  000000000001200000000000120000000000012000000000001200000000000120000000000000000000000000000001000000000000003000000000000000036000000000000070002013102100000010000000000000BRCSNAACNOR6242
012013070582CSNAR5      080CSNAE       ON        000R$  000000000003400000000000350000000000034000000000003400000000000350000000000000000000000000000003000000000000500000000000000017250000000000000050002014061600000010000000000000BRCSNAACNOR6242
012013070582CSNAS54     080CSNAE       ON        000R$  000000000002100000000000210000000000021000000000002100000000000210000000000000000000000000000001000000000000001000000000000000021000000000000054002013071500000010000000000000BRCSNAACNOR6242
012013070582CSNAS56     080CSNAE       ON        000R$  000000000002000000000000200000000000017000000000001800000000000170000000000000000000000000000013000000000000119300000000000002178100000000000056002013071500000010000000000000BRCSNAACNOR6242
012013070582CSNAS6      080CSNAE       ON        000R$  000000000004100000000000570000000000041000000000005600000000000570000000000000000000000020000027000000000000041200000000000002338000000000000060002013071500000010000000000000BRCSNAACNOR6242
012013070582CSNAT52     080CSNAE       ON        000R$  000000000002400000000000260000000000024000000000002500000000000260000000000000000000000000000003000000000000006000000000000000152000000000000052002013081900000010000000000000BRCSNAACNOR6242
012013070582CSNAT54     080CSNAE FM    ON        000R$  000000000002900000000000350000000000029000000000003200000000000350000000000029000000000000000006000000000000012000000000000000394000000000000054002013081900000010000000000000BRCSNAACNOR6242
012013070582CSNAT55     080CSNAE       ON        000R$  000000000003400000000000340000000000034000000000003400000000000340000000000000000000000000000001000000000000001000000000000000034000000000000055002013081900000010000000000000BRCSNAACNOR6242
012013070582CSNAT56     080CSNAE FM    ON        000R$  000000000003800000000000460000000000038000000000004200000000000450000000000000000000000000000012000000000000022900000000000000979900000000000056002013081900000010000000000000BRCSNAACNOR6242
012013070582CSNAT58     080CSNAE FM    ON        000R$  000000000004400000000000580000000000044000000000005200000000000550000000000000000000000000000015000000000000030300000000000001580400000000000058002013081900000010000000000000BRCSNAACNOR6242
012013070582CSNAT6      080CSNAE FM    ON        000R$  000000000005600000000000720000000000051000000000006500000000000700000000000000000000000000000016000000000000036400000000000002382400000000000060002013081900000010000000000000BRCSNAACNOR6242
012013070582CSNAT68     080CSNAE       ON        000R$  000000000013800000000001380000000000138000000000013800000000001380000000000000000000000000000001000000000000002000000000000000276000000000000068002013081900000010000000000000BRCSNAACNOR6242
012013070582CSNAU54     080CSNAE FM    ON        000R$  000000000003300000000000420000000000033000000000003800000000000410000000000000000000000000000009000000000000017500000000000000666200000000000054002013091600000010000000000000BRCSNAACNOR6242
012013070582CSNAU56     080CSNAE FM    ON        000R$  000000000003900000000000520000000000038000000000004700000000000490000000000000000000000000000008000000000000017000000000000000802000000000000056002013091600000010000000000000BRCSNAACNOR6242
012013070582CSNAU58     080CSNAE FM    ON        000R$  000000000005100000000000630000000000047000000000005500000000000620000000000000000000000000000010000000000000019000000000000001049000000000000058002013091600000010000000000000BRCSNAACNOR6242
012013070502CTAX11      010CONTAX      UNT     N2   R$  000000000199400000000019940000000001920000000000194500000000019500000000001915000000000195000059000000000000029800000000000057965300000000000000009999123100000010000000000000BRCTAXCDAM19100
012013070502CTAX4       010CONTAX      PN      N2   R$  000000000035600000000003660000000000347000000000035400000000003500000000000350000000000035500272000000000000039000000000000013809000000000000000009999123100000010000000000000BRCTAXACNPR0114
012013070596CTAX4F      020CONTAX      PN      N2   R$  000000000035000000000003500000000000347000000000034700000000003470000000000333000000000037800002000000000000000055000000000000019136000000000000009999123100000010000000000000BRCTAXACNPR0114
012013070502CTIP3       010CETIP       ON      NM   R$  000000000219100000000022070000000002115000000000214400000000021580000000002158000000000216008078000000000001738700000000003728004200000000000000009999123100000010000000000000BRCTIPACNOR2119
012013070596CTIP3F      020CETIP       ON      NM   R$  000000000218000000000022090000000002114000000000215100000000022090000000002120000000000220900032000000000000000998000000000002148618000000000000009999123100000010000000000000BRCTIPACNOR2119
