00COTAHIST.2013BOVESPA 20131008                                                                                                                                                                                                                      
012013100802AAPL34      010APPLE       DRN          R$  000000001064200000000106420000000010642000000001064200000000106420000000010530000000001067500001000000000000002300000000000024476600000000000000009999123100000010000000000000BRAAPLBDR004105
012013100802ABCB4       010ABC BRASIL  PN      N2   R$  000000000130300000000013100000000001282000000000129600000000013000000000001300000000000130900455000000000000166900000000000216334000000000000000009999123100000010000000000000BRABCBACNPR4120
012013100896ABCB4F      020ABC BRASIL  PN      N2   R$  000000000130000000000013000000000001277000000000129200000000013000000000001287000000000131300008000000000000000076000000000000098197000000000000009999123100000010000000000000BRABCBACNPR4120
012013100812ABCP11      010FII ABC IMOBCI  ER       R$  000000000097500000000009900000000000945000000000095600000000009900000000000946000000000099000006000000000000000056000000000000053580000000000000009999123100000010000000000000BRABCPCTF000216
012013100802ABRE11      010ABRIL EDUCA UNT     N2   R$  000000000330100000000033020000000003202000000000323500000000032200000000003220000000000323100663000000000000129200000000000417991400000000000000009999123100000010000000000000BRABRECDAM15102
012013100896ABRE11F     020ABRIL EDUCA UNT     N2   R$  000000000329000000000032900000000003200000000000323900000000032000000000003200000000000322000010000000000000000344000000000001114519000000000000009999123100000010000000000000BRABRECDAM15102
012013100802AEDU3       010ANHANGUERA  ON      NM   R$  000000000131800000000013230000000001304000000000130800000000013050000000001305000000000131202555000000000000900100000000001178026700000000000000009999123100000010000000000000BRAEDUACNOR9107
012013100896AEDU3F      020ANHANGUERA  ON      NM   R$  000000000133000000000013300000000001305000000000131400000000013130000000001307000000000133000025000000000000000752000000000000988476000000000000009999123100000010000000000000BRAEDUACNOR9107
012013100862AEDU3T      030ANHANGUERA  ON      NM030R$  000000000131500000000013160000000001315000000000131500000000013160000000000000000000000000000002000000000000003000000000000003946993000000000000009999123100000010000000000000BRAEDUACNOR9107
012013100812AEFI11      010FII AESAPAR CI  ER       R$  000000001197000000000120500000000011950000000001198900000000119500000000011950000000001205000012000000000000000309000000000003704669000000000000009999123100000010000000000000BRAEFICTF002122
012013100802AELP3       010AES ELPA    ON           R$  000000000094400000000009440000000000937000000000094200000000009370000000000911000000000093800009000000000000001300000000000001225800000000000000009999123100000010000000000000BRAELPACNOR2119
012013100896AELP3F      020AES ELPA    ON           R$  000000000097500000000009800000000000975000000000097800000000009800000000000925000000000098000004000000000000000045000000000000044025000000000000009999123100000010000000000000BRAELPACNOR2119
012013100896AFLU3F      020AFLUENTE    ON           R$  000000000056500000000005650000000000565000000000056500000000005650000000000358000000000056500002000000000000000036000000000000020340000000000000009999123100000010000000000000BRAFLUACNOR9117
012013100812AGCX11      010FII AG CAIXACI  ER       R$  000000009499900000000950010000000094201000000009494700000000950000000000094310000000009550000017000000000000000193000000000018324779000000000000009999123100000010000000000000BRAGCXCTF003111
012013100802AGRO3       010BRASILAGRO  ON      NM   R$  000000000097600000000009990000000000976000000000098700000000009950000000000995000000000099800030000000000000118400000000000116975800000000000000009999123100000010000000000000BRAGROACNOR7102
012013100896AGRO3F      020BRASILAGRO  ON      NM   R$  000000000108900000000010890000000001089000000000108900000000010890000000000995000000000108900001000000000000000071000000000000077319000000000000009999123100000010000000000000BRAGROACNOR7102
012013100802ALLL3       010ALL AMER LATON      NM   R$  000000000090200000000009030000000000882000000000088900000000008940000000000893000000000089403829000000000001112600000000000989849600000000000000009999123100000010000000000000BRALLLACNOR6118
012013100896ALLL3F      020ALL AMER LATON      NM   R$  000000000090000000000009000000000000881000000000088800000000008910000000000891000000000089900043000000000000000894000000000000794708000000000000009999123100000010000000000000BRALLLACNOR6118
012013100812ALMI11B     010FII TORRE ALCI  ER  MB   R$  000000031500000000003189000000000314000000000031495200000003150000000000315000000000031840000016000000000000000133000000000041888624000000000000009999123100000010000000000000BRALMICTF003206
012013100802ALPA3       010ALPARGATAS  ON      N1   R$  000000000126000000000012980000000001260000000000129000000000012930000000001252000000000129800014000000000000008500000000000010971500000000000000009999123100000010000000000000BRALPAACNOR0203
012013100802ALPA4       010ALPARGATAS  PN      N1   R$  000000000144700000000014480000000001425000000000143400000000014480000000001437000000000144800843000000000000617300000000000885744200000000000000009999123100000010000000000000BRALPAACNPR7203
012013100896ALPA4F      020ALPARGATAS  PN      N1   R$  000000000143000000000014500000000001421000000000142800000000014370000000001420000000000143700013000000000000000172000000000000245638000000000000009999123100000010000000000000BRALPAACNPR7203
012013100862ALPA4T      030ALPARGATAS  PN      N1062R$  000000000145300000000014540000000001453000000000145300000000014540000000000000000000000000000002000000000000003000000000000004360476000000000000009999123100000010000000000000BRALPAACNPR7203
012013100802ALSC3       010ALIANSCE    ON      NM   R$  000000000201900000000020500000000002012000000000203700000000020500000000002032000000000205000800000000000000131300000000000267547700000000000000009999123100000010000000000000BRALSCACNOR0104
012013100878ALSCJ50     070ALSC        ON      NM000R$  000000000003200000000000320000000000032000000000003200000000000320000000000000000000000000000002000000000000054000000000000001728000000000000205002013102100000010000000000000BRALSCACNOR0104
012013100802ALUP11      010ALUPAR      UNT     N2   R$  000000000172700000000017300000000001710000000000172200000000017300000000001705000000000176300399000000000000174600000000000300687100000000000000009999123100000010000000000000BRALUPCDAM15100
012013100896ALUP11F     020ALUPAR      UNT     N2   R$  000000000174900000000017490000000001701000000000172000000000017070000000001701000000000175000013000000000000000263000000000000452362000000000000009999123100000010000000000000BRALUPCDAM15100
012013100802AMAR3       010LOJAS MARISAON      NM   R$  000000000205000000000020560000000001988000000000200800000000019880000000001988000000000200002272000000000000547100000000001098682100000000000000009999123100000010000000000000BRAMARACNOR4109
012013100896AMAR3F      020LOJAS MARISAON      NM   R$  000000000200200000000020050000000001989000000000199400000000020050000000001991000000000209900011000000000000000205000000000000408810000000000000009999123100000010000000000000BRAMARACNOR4109
012013100862AMAR3T      030LOJAS MARISAON      NM030R$  000000000201200000000020130000000002012000000000201200000000020130000000000000000000000000000002000000000000005000000000000010060838000000000000009999123100000010000000000000BRAMARACNOR4109
012013100862AMAR3T      030LOJAS MARISAON      NM062R$  000000000206200000000020630000000002062000000000206200000000020630000000000000000000000000000002000000000000004000000000000008248083000000000000009999123100000010000000000000BRAMARACNOR4109
012013100862AMAR3T      030LOJAS MARISAON      NM120R$  000000000209800000000020990000000002098000000000209800000000020990000000000000000000000000000002000000000000035000000000000073448109000000000000009999123100000010000000000000BRAMARACNOR4109
012013100802AMBV3       010AMBEV       ON           R$  000000000848900000000084900000000008300000000000835900000000083600000000008339000000000836000890000000000000141000000000001178700900000000000000009999123100000010000000000000BRAMBVACNOR4154
012013100896AMBV3F      020AMBEV       ON           R$  000000000848900000000084890000000008322000000000839500000000083290000000008333000000000845000064000000000000001213000000000010184011000000000000009999123100000010000000000000BRAMBVACNOR4154
012013100862AMBV3T      030AMBEV       ON        030R$  000000000839000000000083910000000008390000000000839000000000083910000000000000000000000000000002000000000000002000000000000016780570000000000000009999123100000010000000000000BRAMBVACNOR4154
012013100802AMBV4       010AMBEV       PN           R$  000000000849600000000084990000000008301000000000834600000000083530000000008353000000000835506439000000000001535600000000012817609400000000000000009999123100000010000000000000BRAMBVACNPR1154
012013100896AMBV4F      020AMBEV       PN           R$  000000000850000000000085500000000008306000000000837100000000083360000000008341000000000840000195000000000000003953000000000033093117000000000000009999123100000010000000000000BRAMBVACNPR1154
012013100862AMBV4T      030AMBEV       PN        016R$  000000000840900000000084100000000008352000000000835800000000083530000000000000000000000000000008000000000000012100000000000101135045000000000000009999123100000010000000000000BRAMBVACNPR1154
012013100862AMBV4T      030AMBEV       PN        030R$  000000000844800000000084490000000008375000000000838000000000083850000000000000000000000000000006000000000000003500000000000029330977000000000000009999123100000010000000000000BRAMBVACNPR1154
012013100862AMBV4T      030AMBEV       PN        062R$  000000000844700000000084480000000008447000000000844700000000084480000000000000000000000000000002000000000000000500000000000004223638000000000000009999123100000010000000000000BRAMBVACNPR1154
012013100862AMBV4T      030AMBEV       PN        090R$  000000000848300000000084840000000008483000000000848300000000084840000000000000000000000000000004000000000000003000000000000025451607000000000000009999123100000010000000000000BRAMBVACNPR1154
012013100878AMBVK85     070AMBV        PN        000R$  000000000022000000000002200000000000220000000000022000000000002200000000000000000000000000000001000000000000000100000000000000022000000000000850002013111800000010000000000000BRAMBVACNPR1154
012013100878AMBVL85     070AMBV        PN        000R$  000000000027500000000002750000000000270000000000027200000000002700000000000000000000000000000002000000000000200000000000000054500000000000000850002013121600000010000000000000BRAMBVACNPR1154
012013100802ARTR3       010ARTERIS     ON      NM   R$  000000000195300000000019530000000001926000000000193600000000019400000000001940000000000194500371000000000000081600000000000158060800000000000000009999123100000010000000000000BRARTRACNOR3101
012013100896ARTR3F      020ARTERIS     ON      NM   R$  000000000194500000000019450000000001910000000000193100000000019100000000001910000000000194800018000000000000000422000000000000814991000000000000009999123100000010000000000000BRARTRACNOR3101
012013100802ARZZ3       010AREZZO CO   ON      NM   R$  000000000370800000000037290000000003683000000000370700000000037010000000003701000000000371300648000000000000128000000000000474609000000000000000009999123100000010000000000000BRARZZACNOR3109
012013100896ARZZ3F      020AREZZO CO   ON      NM   R$  000000000372000000000037200000000003694000000000371200000000037020000000003691000000000371000007000000000000000151000000000000560600000000000000009999123100000010000000000000BRARZZACNOR3109
012013100802ATTB34      010ATT INC     DRN ED       R$  000000000739200000000073920000000007392000000000739200000000073920000000000000000000000762600002000000000000000600000000000004435200000000000000009999123100000010000000000000BRATTBBDR007105
012013100802AUTM3       010AUTOMETAL   ON      NM   R$  000000000184200000000018680000000001842000000000185400000000018550000000001848000000000185500025000000000000028900000000000053606500000000000000009999123100000010000000000000BRAUTMACNOR8109
012013100896AUTM3F      020AUTOMETAL   ON      NM   R$  000000000184500000000018550000000001845000000000184500000000018550000000001700000000000185000003000000000000000066000000000000121823000000000000009999123100000010000000000000BRAUTMACNOR8109
012013100802AXPB34      010AMERICAN EXPDRN ED       R$  000000001602600000000160260000000016026000000001602600000000160260000000015688000000001615300001000000000000000100000000000001602600000000000000009999123100000010000000000000BRAXPBBDR007106
012013100802AZEV4       010AZEVEDO     PN           R$  000000000012500000000001250000000000125000000000012500000000001250000000000115000000000012500011000000000000049200000000000006150000000000000000009999123100000010000000000000BRAZEVACNPR7113
012013100802BAHI3       010BAHEMA      ON           R$  000000000050000000000005000000000000480000000000049100000000005000000000000474000000000050000004000000000000007400000000000003634000000000000000009999123100000010000000000000BRBAHIACNOR1066
012013100896BAHI3F      020BAHEMA      ON           R$  000000000047000000000004700000000000470000000000047000000000004700000000000470000000000060000001000000000000000010000000000000004700000000000000009999123100000010000000000000BRBAHIACNOR1066
012013100862BAHI3T      030BAHEMA      ON        062R$  000000000050800000000005090000000000508000000000050800000000005090000000000000000000000000000002000000000000004000000000000002033600000000000000009999123100000010000000000000BRBAHIACNOR1066
012013100802BAUH4       010EXCELSIOR   PN           R$  000000000090000000000009000000000000900000000000090000000000009000000000000835000000000090000002000000000000000200000000000000180000000000000000009999123100000010000000000000BRBAUHACNPR3108
012013100802BAZA3       010AMAZONIA    ON           R$  000000000003300000000000330000000000032000000000003200000000000320000000000032000000000003300005000000000000021000000000000000673000000000000000009999123100000010000000000000BRBAZAACNOR0163
012013100802BBAS3       010BRASIL      ON      NM   R$  000000000263800000000026430000000002589000000000260000000000026030000000002600000000000260314011000000000005728800000000014900481700000000000000009999123100000010000000000000BRBBASACNOR3239
012013100896BBAS3F      020BRASIL      ON      NM   R$  000000000262700000000026410000000002590000000000260300000000026040000000002599000000000260400234000000000000006159000000000016036346000000000000009999123100000010000000000000BRBBASACNOR3239
012013100862BBAS3T      030BRASIL      ON      NM030R$  000000000261000000000026110000000002610000000000261000000000026110000000000000000000000000000004000000000000001000000000000002610950000000000000009999123100000010000000000000BRBBASACNOR3239
012013100862BBAS3T      030BRASIL      ON      NM045R$  000000000262200000000026230000000002622000000000262200000000026230000000000000000000000000000002000000000000001000000000000002622534000000000000009999123100000010000000000000BRBBASACNOR3239
012013100878BBASC26     070BBAS        ON      NM000R$  000000000021800000000002180000000000218000000000021800000000002180000000000000000000000060000001000000000000000300000000000000065400000000000260002014031700000010000000000000BRBBASACNOR3239
012013100878BBASJ25     070BBAS        ON      NM000R$  000000000022100000000002210000000000208000000000020900000000002100000000000205000000000030200007000000000000022900000000000004800300000000000239502013102100000010000000000000BRBBASACNOR3237
012013100878BBASJ26     070BBAS  FM    ON      NM000R$  000000000018100000000001810000000000146000000000015500000000001480000000000140000000000016200105000000000000154300000000000023926700000000000246102013102100000010000000000000BRBBASACNOR3235
012013100878BBASJ27     070BBAS  FM    ON      NM000R$  000000000008300000000000830000000000068000000000007300000000000680000000000065000000000007400206000000000000211300000000000015504400000000000256102013102100000010000000000000BRBBASACNOR3235
012013100878BBASJ28     070BBAS  FM    ON      NM000R$  000000000002200000000000250000000000012000000000001400000000000130000000000010000000000001500064000000000000069400000000000001035000000000000269502013102100000010000000000000BRBBASACNOR3237
012013100878BBASJ29     070BBAS  FM    ON      NM000R$  000000000000700000000000070000000000007000000000000700000000000070000000000005000000000001200002000000000000001200000000000000008400000000000276102013102100000010000000000000BRBBASACNOR3235
012013100878BBASJ30     070BBAS  FM    ON      NM000R$  000000000000200000000000030000000000002000000000000200000000000030000000000003000000000000800005000000000000008000000000000000022500000000000286102013102100000010000000000000BRBBASACNOR3235
012013100878BBASJ56     070BBAS        ON      NM000R$  000000000010700000000001090000000000107000000000010700000000001070000000000102000000000000000007000000000000003500000000000000375500000000000251102013102100000010000000000000BRBBASACNOR3235
012013100878BBASJ65     070BBAS        ON      NM000R$  000000000002700000000000270000000000027000000000002700000000000270000000000000000000000000000002000000000000005100000000000000137700000000000265002013102100000010000000000000BRBBASACNOR3239
012013100878BBASK26     070BBAS  FM    ON      NM000R$  000000000019200000000001930000000000177000000000018200000000001790000000000125000000000000000048000000000000075400000000000013749900000000000247102013111800000010000000000000BRBBASACNOR3236
012013100878BBASK27     070BBAS  FM    ON      NM000R$  000000000011300000000001180000000000110000000000011200000000001100000000000045000000000000000021000000000000028100000000000003166600000000000257102013111800000010000000000000BRBBASACNOR3236
012013100878BBASK28     070BBAS  FM    ON      NM000R$  000000000006000000000000610000000000058000000000005900000000000590000000000055000000000006500017000000000000022900000000000001366300000000000267102013111800000010000000000000BRBBASACNOR3236
012013100878BBASK29     070BBAS  FM    ON      NM000R$  000000000002300000000000290000000000022000000000002200000000000220000000000016000000000002300069000000000000058500000000000001344600000000000279502013111800000010000000000000BRBBASACNOR3237
012013100878BBASK30     070BBAS  FM    ON      NM000R$  000000000001200000000000120000000000010000000000001100000000000100000000000010000000000001600002000000000000001200000000000000014000000000000289502013111800000010000000000000BRBBASACNOR3237
012013100878BBASK57     070BBAS        ON      NM000R$  000000000003300000000000330000000000033000000000003300000000000330000000000000000000000000000004000000000000009000000000000000297000000000000275002013111800000010000000000000BRBBASACNOR3239
012013100878BBASL27     070BBAS        ON      NM000R$  000000000013200000000001320000000000132000000000013200000000001320000000000016000000000000000001000000000000000100000000000000013200000000000259502013121600000010000000000000BRBBASACNOR3237
012013100878BBASL29     070BBAS        ON      NM000R$  000000000006000000000000600000000000058000000000005800000000000580000000000016000000000000000004000000000000006000000000000000352000000000000276102013121600000010000000000000BRBBASACNOR3235
012013100878BBASL30     070BBAS        ON      NM000R$  000000000001200000000000120000000000012000000000001200000000000120000000000007000000000000000002000000000000010300000000000000123600000000000300002013121600000010000000000000BRBBASACNOR3239
012013100878BBASL60     070BBAS        ON      NM000R$  000000000003100000000000310000000000030000000000003000000000000310000000000014000000000000000012000000000000060100000000000001862900000000000286202013121600000010000000000000BRBBASACNOR3233
012013100882BBASV24     080BBASE       ON      NM000R$  000000000000300000000000030000000000003000000000000300000000000030000000000000000000000000300006000000000000003000000000000000009000000000000227102013102100000010000000000000BRBBASACNOR3236
012013100882BBASV25     080BBASE FM    ON      NM000R$  000000000000500000000000060000000000005000000000000500000000000060000000000000000000000000800021000000000000047100000000000000263800000000000239502013102100000010000000000000BRBBASACNOR3237
012013100882BBASV26     080BBASE FM    ON      NM000R$  000000000000800000000000100000000000008000000000000900000000000090000000000009000000000001000006000000000000013000000000000000121700000000000246102013102100000010000000000000BRBBASACNOR3235
012013100882BBASV27     080BBASE FM    ON      NM000R$  000000000003100000000000320000000000025000000000002900000000000290000000000025000000000005700072000000000000104900000000000003063100000000000256102013102100000010000000000000BRBBASACNOR3235
012013100882BBASV28     080BBASE FM    ON      NM000R$  000000000009000000000001100000000000090000000000010200000000001040000000000000000000000000000135000000000000145600000000000014911900000000000269502013102100000010000000000000BRBBASACNOR3237
012013100882BBASW24     080BBASE       ON      NM000R$  000000000001200000000000130000000000012000000000001200000000000130000000000000000000000000000005000000000000015800000000000000192600000000000229502013111800000010000000000000BRBBASACNOR3237
012013100882BBASW25     080BBASE FM    ON      NM000R$  000000000001700000000000180000000000017000000000001700000000000180000000000000000000000000000005000000000000009700000000000000166900000000000237102013111800000010000000000000BRBBASACNOR3236
012013100882BBASW26     080BBASE FM    ON      NM000R$  000000000003200000000000360000000000032000000000003400000000000350000000000029000000000003700032000000000000033700000000000001165600000000000247102013111800000010000000000000BRBBASACNOR3236
012013100882BBASW27     080BBASE FM    ON      NM000R$  000000000006600000000000670000000000065000000000006600000000000650000000000000000000000000000007000000000000010900000000000000720600000000000257102013111800000010000000000000BRBBASACNOR3236
012013100882BBASW28     080BBASE FM    ON      NM000R$  000000000009900000000001140000000000099000000000010800000000001120000000000000000000000000000010000000000000017500000000000001891800000000000267102013111800000010000000000000BRBBASACNOR3236
012013100882BBASW29     080BBASE       ON      NM000R$  000000000020100000000002010000000000198000000000020000000000001980000000000000000000000000000004000000000000007000000000000001404000000000000279502013111800000010000000000000BRBBASACNOR3237
012013100882BBASX23     080BBASE       ON      NM000R$  000000000001600000000000180000000000015000000000001600000000000160000000000000000000000000000006000000000000017800000000000000284800000000000219502013121600000010000000000000BRBBASACNOR3237
012013100882BBASX26     080BBASE       ON      NM000R$  000000000005100000000000510000000000049000000000005000000000000490000000000000000000000000000002000000000000005300000000000000265700000000000246102013121600000010000000000000BRBBASACNOR3235
012013100882BBASX27     080BBASE       ON      NM000R$  000000000009500000000000950000000000095000000000009500000000000950000000000000000000000000000001000000000000001200000000000000114000000000000259502013121600000010000000000000BRBBASACNOR3237
012013100882BBASX28     080BBASE       ON      NM000R$  000000000013900000000001390000000000137000000000013800000000001370000000000000000000000000000002000000000000001000000000000000138800000000000269502013121600000010000000000000BRBBASACNOR3237
012013100802BBDC3       010BRADESCO    ON  EJ  N1   R$  000000000354300000000035550000000003495000000000351800000000035150000000003511000000000352104879000000000001256100000000004419104200000000000000009999123100000010000000000000BRBBDCACNOR1607
012013100896BBDC3F      020BRADESCO    ON  EJ  N1   R$  000000000353500000000035530000000003452000000000351100000000035200000000003491000000000352000051000000000000001436000000000005042491000000000000009999123100000010000000000000BRBBDCACNOR1607
012013100802BBDC4       010BRADESCO    PN  EJ  N1   R$  000000000307400000000030900000000003055000000000307200000000030710000000003070000000000307112007000000000004403300000000013529178000000000000000009999123100000010000000000000BRBBDCACNPR8607
012013100896BBDC4F      020BRADESCO    PN  EJ  N1   R$  000000000307300000000030870000000003056000000000307200000000030560000000003056000000000308200138000000000000003533000000000010855328000000000000009999123100000010000000000000BRBBDCACNPR8607
012013100862BBDC4T      030BRADESCO    PN  EJ  N1016R$  000000000309900000000031000000000003086000000000308900000000030870000000000000000000000000000004000000000000275000000000000849524198000000000000009999123100000010000000000000BRBBDCACNPR8607
012013100862BBDC4T      030BRADESCO    PN  EJ  N1069R$  000000000312400000000031250000000003124000000000312400000000031250000000000000000000000000000002000000000000001000000000000003124414000000000000009999123100000010000000000000BRBBDCACNPR8607
012013100862BBDC4T      030BRADESCO    PN  EJ  N1090R$  000000000312500000000031260000000003125000000000312500000000031260000000000000000000000000000002000000000000000500000000000001562896000000000000009999123100000010000000000000BRBBDCACNPR8607
012013100878BBDCA31     070BBDC    /EJ PN      N1000R$  000000000017700000000001780000000000177000000000017700000000001780000000000000000000000000000003000000000000103000000000000018321000000000000309602014012000000010000000000000BRBBDCACNPR8605
012013100878BBDCA32     070BBDC    /EJ PN      N1000R$  000000000013700000000001370000000000130000000000013400000000001350000000000000000000000000000003000000000000009000000000000001206000000000000319802014012000000010000000000000BRBBDCACNPR8606
012013100878BBDCA33     070BBDC    /EJ PN      N1000R$  000000000009800000000000980000000000091000000000009300000000000950000000000000000000000000000009000000000000027000000000000002529000000000000329802014012000000010000000000000BRBBDCACNPR8606
012013100878BBDCA34     070BBDC    /EJ PN      N1000R$  000000000006900000000000690000000000063000000000006600000000000660000000000000000000000000000009000000000000026900000000000001778200000000000339402014012000000010000000000000BRBBDCACNPR8604
012013100878BBDCA35     070BBDC    /EJ PN      N1000R$  000000000004400000000000440000000000042000000000004200000000000420000000000000000000000000000004000000000000011300000000000000479200000000000350002014012000000010000000000000BRBBDCACNPR8607
012013100878BBDCA37     070BBDC    /EJ PN      N1000R$  000000000002200000000000220000000000021000000000002100000000000210000000000000000000000000000004000000000000012000000000000000255000000000000367402014012000000010000000000000BRBBDCACNPR8602
012013100878BBDCA40     070BBDC    /EJ PN      N1000R$  000000000002900000000000290000000000028000000000002800000000000290000000000000000000000000000004000000000000011800000000000000336400000000000360402014012000000010000000000000BRBBDCACNPR8598
012013100878BBDCJ1      070BBDC    /EJ PN      N1000R$  000000000003300000000000330000000000030000000000003000000000000300000000000000000000000000000005000000000000002600000000000000080300000000000314202013102100000010000000000000BRBBDCACNPR8603
012013100878BBDCJ2      070BBDC    /EJ PN      N1000R$  000000000001000000000000110000000000009000000000001000000000000090000000000000000000000000000036000000000000018800000000000000194800000000000324202013102100000010000000000000BRBBDCACNPR8603
012013100878BBDCJ29     070BBDC    /EJ PN      N1000R$  000000000022500000000002290000000000212000000000022300000000002170000000000200000000000024800781000000000000083500000000000018679300000000000287402013102100000010000000000000BRBBDCACNPR8602
012013100878BBDCJ30     070BBDC  FM/EJ PN      N1000R$  000000000014000000000001400000000000115000000000012900000000001300000000000103000000000014300335000000000000215700000000000027977600000000000297402013102100000010000000000000BRBBDCACNPR8602
012013100878BBDCJ31     070BBDC  FM/EJ PN      N1000R$  000000000006800000000000700000000000056000000000006200000000000630000000000048000000000007800124000000000000062900000000000003962100000000000307402013102100000010000000000000BRBBDCACNPR8602
012013100878BBDCJ32     070BBDC  FM/EJ PN      N1000R$  000000000002300000000000250000000000018000000000002200000000000220000000000017000000000002800087000000000000102900000000000002351800000000000317402013102100000010000000000000BRBBDCACNPR8602
012013100878BBDCJ33     070BBDC  FM/EJ PN      N1000R$  000000000000600000000000080000000000005000000000000500000000000080000000000005000000000000900015000000000000023700000000000000133400000000000327402013102100000010000000000000BRBBDCACNPR8602
012013100878BBDCJ34     070BBDC  FM/EJ PN      N1000R$  000000000000200000000000030000000000001000000000000200000000000030000000000001000000000000000022000000000000027300000000000000065800000000000337002013102100000010000000000000BRBBDCACNPR8600
012013100878BBDCK30     070BBDC  FM/EJ PN      N1000R$  000000000016700000000001700000000000151000000000015900000000001560000000000151000000000020900096000000000000075200000000000012031400000000000299602013111800000010000000000000BRBBDCACNPR8605
012013100878BBDCK31     070BBDC  FM/EJ PN      N1000R$  000000000010800000000001090000000000096000000000010400000000001050000000000082000000000014800130000000000000093000000000000009726500000000000309602013111800000010000000000000BRBBDCACNPR8605
012013100878BBDCK32     070BBDC  FM/EJ PN      N1000R$  000000000006800000000000710000000000064000000000006900000000000700000000000053000000000007400079000000000000062800000000000004387800000000000317202013111800000010000000000000BRBBDCACNPR8601
012013100878BBDCK33     070BBDC  FM/EJ PN      N1000R$  000000000004000000000000400000000000034000000000003800000000000380000000000026000000000004900017000000000000016100000000000000616000000000000327402013111800000010000000000000BRBBDCACNPR8602
012013100878BBDCK34     070BBDC  FM/EJ PN      N1000R$  000000000001800000000000180000000000014000000000001500000000000170000000000014000000000002000006000000000000010700000000000000169000000000000339402013111800000010000000000000BRBBDCACNPR8604
012013100878BBDCK9      070BBDC    /EJ PN      N1000R$  000000000023600000000002400000000000226000000000023400000000002260000000000000000000000000000786000000000000082900000000000019442500000000000289602013111800000010000000000000BRBBDCACNPR8605
012013100878BBDCL1      070BBDC    /EJ PN      N1000R$  000000000016000000000001630000000000156000000000015700000000001560000000000000000000000000000013000000000000008600000000000001355600000000000307002013121600000010000000000000BRBBDCACNPR8600
012013100878BBDCL32     070BBDC    /EJ PN      N1000R$  000000000010800000000001120000000000105000000000010700000000001050000000000068000000000000000017000000000000005500000000000000593400000000000317002013121600000010000000000000BRBBDCACNPR8600
012013100878BBDCL33     070BBDC    /EJ PN      N1000R$  000000000021000000000002100000000000210000000000021000000000002100000000000000000000000000000001000000000000000100000000000000021000000000000296802013121600000010000000000000BRBBDCACNPR8598
012013100878BBDCL34     070BBDC    /EJ PN      N1000R$  000000000004000000000000400000000000040000000000004000000000000400000000000000000000000000000001000000000000002000000000000000080000000000000337002013121600000010000000000000BRBBDCACNPR8600
012013100878BBDCL36     070BBDC    /EJ PN      N1000R$  000000000008100000000000810000000000078000000000007900000000000780000000000000000000000000000004000000000000002000000000000000159000000000000323902013121600000010000000000000BRBBDCACNPR8597
012013100882BBDCM24     080BBDCE   /EJ PN      N1000R$  000000000001100000000000110000000000011000000000001100000000000110000000000000000000000000000019000000000000020200000000000000222200000000000239402014012000000010000000000000BRBBDCACNPR8604
012013100882BBDCM25     080BBDCE   /EJ PN      N1000R$  000000000001600000000000160000000000016000000000001600000000000160000000000000000000000000000015000000000000015900000000000000254400000000000250002014012000000010000000000000BRBBDCACNPR8607
012013100882BBDCV1      080BBDCE   /EJ PN      N1000R$  000000000009400000000000940000000000084000000000008500000000000840000000000000000000000000000003000000000000005200000000000000446800000000000314202013102100000010000000000000BRBBDCACNPR8603
012013100882BBDCV29     080BBDCE FM/EJ PN      N1000R$  000000000000900000000000100000000000006000000000000700000000000060000000000000000000000000000048000000000000159000000000000001172700000000000287402013102100000010000000000000BRBBDCACNPR8602
012013100882BBDCV30     080BBDCE FM/EJ PN      N1000R$  000000000002300000000000230000000000020000000000002100000000000200000000000000000000000000000022000000000000020700000000000000449800000000000297402013102100000010000000000000BRBBDCACNPR8602
012013100882BBDCV31     080BBDCE FM/EJ PN      N1000R$  000000000005400000000000570000000000050000000000005300000000000500000000000000000000000010000026000000000000034500000000000001839700000000000307402013102100000010000000000000BRBBDCACNPR8602
012013100882BBDCV32     080BBDCE FM/EJ PN      N1000R$  000000000010700000000001240000000000106000000000011300000000001090000000000000000000000000000044000000000000078500000000000008917700000000000317402013102100000010000000000000BRBBDCACNPR8602
012013100882BBDCW30     080BBDCE FM/EJ PN      N1000R$  000000000005800000000000600000000000055000000000005700000000000550000000000000000000000000000007000000000000013000000000000000752000000000000299602013111800000010000000000000BRBBDCACNPR8605
012013100882BBDCW31     080BBDCE FM/EJ PN      N1000R$  000000000009800000000001030000000000092000000000009700000000000920000000000000000000000000000006000000000000009800000000000000953300000000000309602013111800000010000000000000BRBBDCACNPR8605
012013100882BBDCW32     080BBDCE FM/EJ PN      N1000R$  000000000014600000000001460000000000131000000000013700000000001320000000000000000000000000000008000000000000015000000000000002067300000000000317202013111800000010000000000000BRBBDCACNPR8601
012013100882BBDCW9      080BBDCE FM/EJ PN      N1000R$  000000000003300000000000330000000000033000000000003300000000000330000000000000000000000000000001000000000000001200000000000000039600000000000289602013111800000010000000000000BRBBDCACNPR8605
012013100812BBFI11B     010FII BB PROGRCI  ER  MB   R$  000000041500200000004250000000000415002000000042428800000004250000000000416105000000042489900008000000000000000052000000000022062988000000000000009999123100000010000000000000BRBBFICTF006199
012013100812BBPO11      010FII BB PRGIICI  ER       R$  000000001119000000000113000000000011150000000001122100000000112490000000011190000000001124900379000000000000023835000000000267459868000000000000009999123100000010000000000000BRBBPOCTF003111
012013100812BBRC11      010FII BB CORP CI  ER       R$  000000000889000000000088900000000008890000000000889000000000088900000000008881000000000889000004000000000000000221000000000001964690000000000000009999123100000010000000000000BRBBRCCTF004125
012013100802BBRK3       010BR BROKERS  ON      NM   R$  000000000059100000000005960000000000586000000000059100000000005900000000000589000000000059001314000000000000432200000000000255628800000000000000009999123100000010000000000000BRBBRKACNOR4108
012013100896BBRK3F      020BR BROKERS  ON      NM   R$  000000000058900000000005890000000000589000000000058900000000005890000000000589000000000065000004000000000000000048000000000000028272000000000000009999123100000010000000000000BRBBRKACNOR4108
012013100802BBSE3       010BBSEGURIDADEON      NM   R$  000000000219000000000022400000000002177000000000221600000000022380000000002234000000000223806346000000000002529500000000005606494400000000000000009999123100000010000000000000BRBBSEACNOR5101
012013100896BBSE3F      020BBSEGURIDADEON      NM   R$  000000000218100000000022400000000002177000000000220700000000022200000000002220000000000223500519000000000000016883000000000037269555000000000000009999123100000010000000000000BRBBSEACNOR5101
012013100862BBSE3T      030BBSEGURIDADEON      NM090R$  000000000227100000000022870000000002271000000000227900000000022850000000000000000000000000000030000000000000150000000000000341867559000000000000009999123100000010000000000000BRBBSEACNOR5101
012013100802BBTG11      010BTG PACTUAL UNT          R$  000000000280000000000028180000000002768000000000279200000000028120000000002790000000000281200490000000000000132700000000000370539300000000000000009999123100000010000000000000BRBBTGUNT007105
012013100896BBTG11F     020BTG PACTUAL UNT          R$  000000000277100000000028100000000002771000000000278100000000028100000000002772000000000285000007000000000000000215000000000000598070000000000000009999123100000010000000000000BRBBTGUNT007105
012013100812BBVJ11      010FII C JARDIMCI  ER       R$  000000000777600000000080000000000007775000000000793100000000080000000000007860000000000800000029000000000000001366000000000010833839000000000000009999123100000010000000000000BRBBVJCTF001134
012013100812BCFF11B     010FII BC FFII CI  ER  MB   R$  000000000906000000000090600000000008801000000000896200000000089350000000008935000000000900000102000000000000008019000000000071871899000000000000009999123100000010000000000000BRBCFFCTF000143
012013100896BDLL4F      020BARDELLA    PN           R$  000000000530000000000053000000000005300000000000530000000000053000000000005151000000000570000004000000000000000018000000000000095400000000000000009999123100000010000000000000BRBDLLACNPR8149
012013100802BEEF3       010MINERVA     ON      NM   R$  000000000098200000000009860000000000957000000000096400000000009640000000000963000000000096402526000000000001026800000000000990015000000000000000009999123100000010000000000000BRBEEFACNOR6104
012013100896BEEF3F      020MINERVA     ON      NM   R$  000000000097600000000010420000000000960000000000097200000000010420000000000950000000000104200010000000000000000158000000000000153708000000000000009999123100000010000000000000BRBEEFACNOR6104
012013100802BEES3       010BANESTES    ON  EJ       R$  000000000004900000000000490000000000049000000000004900000000000490000000000049000000000005000006000000000000033000000000000001617000000000000000009999123100000010000000000000BRBEESACNOR9245
012013100802BEES4       010BANESTES    PN  EJ       R$  000000000004600000000000460000000000045000000000004500000000000450000000000045000000000004600002000000000000001700000000000000077500000000000000009999123100000010000000000000BRBEESACNPR6170
012013100802BEMA3       010BEMATECH    ON      NM   R$  000000000076700000000007710000000000753000000000076300000000007700000000000765000000000077000391000000000000128200000000000097939000000000000000009999123100000010000000000000BRBEMAACNOR0114
012013100896BEMA3F      020BEMATECH    ON      NM   R$  000000000070200000000007700000000000702000000000075900000000007630000000000751000000000078900007000000000000000188000000000000142833000000000000009999123100000010000000000000BRBEMAACNOR0114
012013100802BGIP4       010BANESE      PN           R$  000000000490000000000049890000000004900000000000492900000000049890000000004901000000000499000002000000000000000300000000000001478900000000000000009999123100000010000000000000BRBGIPACNPR8179
012013100802BHGR3       010BHG         ON      NM   R$  000000000149300000000014930000000001472000000000148200000000014720000000001465000000000146900004000000000000000400000000000000593000000000000000009999123100000010000000000000BRBHGRACNOR9101
012013100896BHGR3F      020BHG         ON      NM   R$  000000000149900000000014990000000001499000000000149900000000014990000000001401000000000149800001000000000000000001000000000000001499000000000000009999123100000010000000000000BRBHGRACNOR9101
012013100802BICB4       010BICBANCO    PN      N1   R$  000000000052000000000005300000000000517000000000052400000000005280000000000528000000000053200037000000000000034400000000000018050800000000000000009999123100000010000000000000BRBICBACNPR7131
012013100896BICB4F      020BICBANCO    PN      N1   R$  000000000052000000000005200000000000520000000000052000000000005200000000000490000000000053900001000000000000000010000000000000005200000000000000009999123100000010000000000000BRBICBACNPR7131
012013100802BISA3       010BROOKFIELD  ON      NM   R$  000000000015600000000001570000000000153000000000015400000000001550000000000154000000000015505082000000000006887700000000001062206300000000000000009999123100000010000000000000BRBISAACNOR8109
012013100896BISA3F      020BROOKFIELD  ON      NM   R$  000000000015400000000001570000000000153000000000015400000000001530000000000153000000000016900024000000000000000555000000000000085926000000000000009999123100000010000000000000BRBISAACNOR8109
012013100862BISA3T      030BROOKFIELD  ON      NM030R$  000000000015700000000001580000000000157000000000015700000000001580000000000000000000000000000002000000000000018000000000000002828779000000000000009999123100000010000000000000BRBISAACNOR8109
012013100812BJRC11      010FII JS RECIMCI  ER       R$  000000008400000000000900000000000084000000000008986800000000900000000000088100000000009100000005000000000000000426000000000038284000000000000000009999123100000010000000000000BRBJRCCTF007111
012013100802BMEB4       010MERC BRASIL PN           R$  000000000109900000000010990000000001099000000000109900000000010990000000000950000000000110000001000000000000000600000000000000659400000000000000009999123100000010000000000000BRBMEBACNPR5191
012013100802BMIN4       010MERC INVEST PN           R$  000000000002700000000000270000000000027000000000002700000000000270000000000025000000000002700002000000000000002000000000000000054000000000000000009999123100000010000000000000BRBMINACNPR1160
012013100802BMKS3       010BIC MONARK  ON           R$  000000003300000000000330000000000033000000000003300000000000330000000000031520000000003400000001000000000000000020000000000000660000000000000000009999123100000010000000000000BRBMKSACNOR9155
012013100812BMLC11B     010FII BMBRC LCCI  ER  MB   R$  000000001160000000000116000000000011550000000001157100000000115500000000011505000000001160000010000000000000000838000000000009696900000000000000009999123100000010000000000000BRBMLCCTF004120
012013100802BMTO4       010BRASMOTOR   PN           R$  000000000008600000000000870000000000086000000000008600000000000870000000000085000000000008700002000000000000008000000000000000689000000000000000009999123100000010000000000000BRBMTOACNPR6065
012013100802BOAC34      010BANK AMERICADRN          R$  000000000303100000000030310000000003031000000000303100000000030310000000002985000000000305000001000000000000008100000000000024551100000000000000009999123100000010000000000000BRBOACBDR004112
012013100802BOEI34      010BOEING      DRN          R$  000000002557300000000255730000000025573000000002557300000000255730000000025078000000002582200001000000000000000900000000000023015700000000000000009999123100000010000000000000BRBOEIBDR003106
012013100814BOVA11      010ISHARES BOVACI           R$  000000000513000000000051340000000005078000000000509700000000051170000000005115000000000511702807000000000000928960000000004735706300000000000000009999123100000010000000000000BRBOVACTF003101
012013100896BOVA11F     020ISHARES BOVACI           R$  000000000511100000000051200000000005100000000000510900000000051110000000005111000000000515100008000000000000000026000000000000132847000000000000009999123100000010000000000000BRBOVACTF003101
012013100812BPFF11      010FII ABSOLUTOCI  ER       R$  000000000829000000000082900000000008120000000000821300000000081200000000008120000000000824000051000000000000002691000000000022103036000000000000009999123100000010000000000000BRBPFFCTF002106
012013100802BPHA3       010BR PHARMA   ON      NM   R$  000000000081800000000008300000000000817000000000082300000000008240000000000824000000000082500560000000000000307300000000000253037300000000000000009999123100000010000000000000BRBPHAACNOR6102
012013100896BPHA3F      020BR PHARMA   ON      NM   R$  000000000082600000000008260000000000826000000000082600000000008260000000000826000000000084500001000000000000000010000000000000008260000000000000009999123100000010000000000000BRBPHAACNOR6102
012013100862BPHA3T      030BR PHARMA   ON      NM030R$  000000000082700000000008280000000000827000000000082700000000008280000000000000000000000000000002000000000000000500000000000000413620000000000000009999123100000010000000000000BRBPHAACNOR6102
012013100802BPNM4       010PANAMERICANOPN      N1   R$  000000000051700000000005200000000000506000000000051100000000005100000000000508000000000051300143000000000000099200000000000050706300000000000000009999123100000010000000000000BRBPNMACNPR6111
012013100896BPNM4F      020PANAMERICANOPN      N1   R$  000000000050200000000005160000000000502000000000051200000000005160000000000510000000000051600002000000000000000098000000000000050176000000000000009999123100000010000000000000BRBPNMACNPR6111
012013100862BPNM4T      030PANAMERICANOPN      N1360R$  000000000056400000000005650000000000564000000000056400000000005650000000000000000000000000000002000000000000001000000000000000564604000000000000009999123100000010000000000000BRBPNMACNPR6111
012013100802BRAP3       010BRADESPAR   ON      N1   R$  000000000199800000000019990000000001998000000000199800000000019980000000001958000000000202000007000000000000008300000000000016583500000000000000009999123100000010000000000000BRBRAPACNOR5124
012013100862BRAP3T      030BRADESPAR   ON      N1062R$  000000000203100000000020320000000002031000000000203100000000020320000000000000000000000000000002000000000000007600000000000015439905000000000000009999123100000010000000000000BRBRAPACNOR5124
012013100802BRAP4       010BRADESPAR   PN      N1   R$  000000000240900000000024090000000002375000000000239100000000024030000000002400000000000240303735000000000000850900000000002035071100000000000000009999123100000010000000000000BRBRAPACNPR2124
012013100896BRAP4F      020BRADESPAR   PN      N1   R$  000000000240000000000024480000000002380000000000239400000000023950000000002395000000000241100027000000000000000564000000000001350460000000000000009999123100000010000000000000BRBRAPACNPR2124
012013100882BRAPV24     080BRAPE       PN      N1000R$  000000000004500000000000450000000000045000000000004500000000000450000000000000000000000000000001000000000000000800000000000000036000000000000240002013102100000010000000000000BRBRAPACNPR2124
012013100812BRCR11      010FII BC FUND CI  ER       R$  000000001371000000000137200000000013001000000001341600000000134210000000013391000000001345000720000000000000027399000000000367606605000000000000009999123100000010000000000000BRBRCRCTF000134
012013100802BRFS3       010BRF SA      ON      NM   R$  000000000549700000000054970000000005412000000000544500000000054250000000005423000000000542505874000000000001423700000000007752861200000000000000009999123100000010000000000000BRBRFSACNOR8110
012013100896BRFS3F      020BRF SA      ON      NM   R$  000000000548800000000054980000000005420000000000545200000000054260000000005426000000000543000103000000000000002937000000000016011346000000000000009999123100000010000000000000BRBRFSACNOR8110
012013100862BRFS3T      030BRF SA      ON      NM016R$  000000000549200000000054950000000005492000000000549200000000054950000000000000000000000000000004000000000000001100000000000006041667000000000000009999123100000010000000000000BRBRFSACNOR8110
012013100862BRFS3T      030BRF SA      ON      NM030R$  000000000546700000000054680000000005467000000000546700000000054680000000000000000000000000000002000000000000012000000000000065607780000000000000009999123100000010000000000000BRBRFSACNOR8110
012013100878BRFSA50     070BRFS        ON      NM000R$  000000000068000000000006800000000000640000000000066600000000006400000000000000000000000000000002000000000000300000000000000200000000000000000500002014012000000010000000000000BRBRFSACNOR8110
012013100878BRFSJ57     070BRFS        ON      NM000R$  000000000003100000000000310000000000031000000000003100000000000310000000000000000000000000000001000000000000020000000000000000620000000000000570002013102100000010000000000000BRBRFSACNOR8110
012013100882BRFSV4      080BRFSE       ON      NM000R$  000000000007000000000000700000000000070000000000007000000000000700000000000000000000000000000002000000000000020000000000000001400000000000000535002013102100000010000000000000BRBRFSACNOR8110
012013100882BRFSV75     080BRFSE       ON      NM000R$  000000000002000000000000200000000000020000000000002000000000000200000000000000000000000000000001000000000000020000000000000000400000000000000515002013102100000010000000000000BRBRFSACNOR8110
012013100802BRIN3       010BR INSURANCEON      NM   R$  000000000198000000000019800000000001916000000000194800000000019500000000001947000000000195001080000000000000208400000000000406116100000000000000009999123100000010000000000000BRBRINACNOR3106
012013100896BRIN3F      020BR INSURANCEON      NM   R$  000000000197000000000019800000000001930000000000195600000000019300000000001930000000000196000024000000000000000437000000000000855106000000000000009999123100000010000000000000BRBRINACNOR3106
012013100802BRKM3       010BRASKEM     ON      N1   R$  000000000127200000000012720000000001271000000000127100000000012710000000001230000000000127200002000000000000000200000000000000254300000000000000009999123100000010000000000000BRBRKMACNOR1110
012013100802BRKM5       010BRASKEM     PNA     N1   R$  000000000181000000000018190000000001790000000000179800000000017900000000001790000000000179604911000000000001274500000000002291959700000000000000009999123100000010000000000000BRBRKMACNPA4110
012013100896BRKM5F      020BRASKEM     PNA     N1   R$  000000000183900000000018390000000001761000000000180800000000018250000000001766000000000182500024000000000000000672000000000001215395000000000000009999123100000010000000000000BRBRKMACNPA4110
012013100878BRKMC20     070BRKM        PNA     N1000R$  000000000005700000000000570000000000057000000000005700000000000570000000000000000000000000000002000000000000296500000000000016900500000000000200002014031700000010000000000000BRBRKMACNPA4110
012013100882BRKMO15     080BRKME       PNA     N1000R$  000000000002600000000000260000000000026000000000002600000000000260000000000000000000000000000002000000000000296500000000000007709000000000000150002014031700000010000000000000BRBRKMACNPA4110
012013100882BRKMO47     080BRKME       PNA     N1000R$  000000000007700000000000770000000000077000000000007700000000000770000000000000000000000000000002000000000000296500000000000022830500000000000175002014031700000010000000000000BRBRKMACNPA4110
012013100802BRML3       010BR MALLS PARON      NM   R$  000000000199000000000019990000000001968000000000198700000000019900000000001982000000000199004368000000000001982800000000003941378600000000000000009999123100000010000000000000BRBRMLACNOR9105
012013100896BRML3F      020BR MALLS PARON      NM   R$  000000000199100000000019940000000001967000000000198500000000019910000000001958000000000199200111000000000000000905000000000001796763000000000000009999123100000010000000000000BRBRMLACNOR9105
012013100862BRML3T      030BR MALLS PARON      NM090R$  000000000203300000000020340000000002026000000000203100000000020270000000000000000000000000000004000000000000000400000000000000812706000000000000009999123100000010000000000000BRBRMLACNOR9105
012013100802BRPR3       010BR PROPERT  ON      NM   R$  000000000192400000000019480000000001908000000000192000000000019190000000001911000000000191905287000000000010389400000000019951894100000000000000009999123100000010000000000000BRBRPRACNOR9112
012013100896BRPR3F      020BR PROPERT  ON      NM   R$  000000000194000000000019420000000001901000000000192300000000019150000000001902000000000197500026000000000000000742000000000001427196000000000000009999123100000010000000000000BRBRPRACNOR9112
012013100862BRPR3T      030BR PROPERT  ON      NM090R$  000000000196400000000019650000000001964000000000196400000000019650000000000000000000000000000004000000000009000000000000017677440000000000000000009999123100000010000000000000BRBRPRACNOR9112
012013100802BRSR3       010BANRISUL    ON      N1   R$  000000000141000000000014100000000001410000000000141000000000014100000000001335000000000140900001000000000000000100000000000000141000000000000000009999123100000010000000000000BRBRSRACNOR3131
012013100802BRSR6       010BANRISUL    PNB     N1   R$  000000000153500000000015420000000001522000000000153000000000015320000000001532000000000153401548000000000000342800000000000524804300000000000000009999123100000010000000000000BRBRSRACNPB4134
012013100896BRSR6F      020BANRISUL    PNB     N1   R$  000000000153100000000015590000000001520000000000153100000000015200000000001520000000000156000014000000000000000495000000000000758217000000000000009999123100000010000000000000BRBRSRACNPB4134
012013100802BSEV3       010BIOSEV      ON      NM   R$  000000000090000000000009090000000000900000000000090400000000009010000000000900000000000093000007000000000000004600000000000004159800000000000000009999123100000010000000000000BRBSEVACNOR3100
012013100896BSEV3F      020BIOSEV      ON      NM   R$  000000000092000000000009200000000000920000000000092000000000009200000000000850000000000090000001000000000000000001000000000000000920000000000000009999123100000010000000000000BRBSEVACNOR3100
012013100896BSLI4F      020BRB BANCO   PN           R$  000000000260000000000026000000000002600000000000260000000000026000000000002600000000000000000002000000000000000033000000000000085800000000000000009999123100000010000000000000BRBSLIACNPR2147
012013100802BTOW3       010B2W DIGITAL ON      NM   R$  000000000142500000000014460000000001413000000000143100000000014460000000001435000000000144601375000000000000265400000000000379800200000000000000009999123100000010000000000000BRBTOWACNOR8105
012013100896BTOW3F      020B2W DIGITAL ON      NM   R$  000000000143000000000014450000000001401000000000143500000000014010000000001400000000000146000013000000000000000275000000000000394654000000000000009999123100000010000000000000BRBTOWACNOR8105
012013100802BTTL3       010BATTISTELLA ON           R$  000000000009600000000000960000000000096000000000009600000000000960000000000080000000000009600001000000000000000200000000000000019200000000000000009999123100000010000000000000BRBTTLACNOR0105
012013100802BTTL4       010BATTISTELLA PN           R$  000000000009400000000000970000000000094000000000009400000000000970000000000095000000000009700008000000000000008700000000000000822800000000000000009999123100000010000000000000BRBTTLACNPR7105
012013100802BVMF3       010BMFBOVESPA  ON      NM   R$  000000000126500000000012650000000001235000000000124800000000012630000000001260000000000126316045000000000006971900000000008707377300000000000000009999123100000010000000000000BRBVMFACNOR3126
012013100896BVMF3F      020BMFBOVESPA  ON      NM   R$  000000000126200000000012640000000001237000000000124600000000012450000000001245000000000126000105000000000000002866000000000003573703000000000000009999123100000010000000000000BRBVMFACNOR3126
012013100862BVMF3T      030BMFBOVESPA  ON      NM030R$  000000000124900000000012500000000001249000000000124900000000012500000000000000000000000000000002000000000000000600000000000000749580000000000000009999123100000010000000000000BRBVMFACNOR3126
012013100878BVMFA14     070BVMF        ON      NM000R$  000000000002900000000000290000000000029000000000002900000000000290000000000000000000000000000002000000000000006200000000000000179800000000000140002014012000000010000000000000BRBVMFACNOR3126
012013100878BVMFA15     070BVMF        ON      NM000R$  000000000001300000000000140000000000013000000000001300000000000140000000000000000000000010000006000000000000018300000000000000241700000000000150002014012000000010000000000000BRBVMFACNOR3126
012013100878BVMFA44     070BVMF        ON      NM000R$  000000000002000000000000200000000000020000000000002000000000000200000000000006000000000000000001000000000000004700000000000000094000000000000145002014012000000010000000000000BRBVMFACNOR3126
012013100878BVMFJ12     070BVMF  FM    ON      NM000R$  000000000008400000000000860000000000066000000000007600000000000860000000000076000000000008800420000000000000311900000000000023903700000000000118502013102100000010000000000000BRBVMFACNOR3125
012013100878BVMFJ13     070BVMF  FM    ON      NM000R$  000000000002000000000000200000000000013000000000001600000000000180000000000016000000000002000168000000000000413800000000000006633100000000000128502013102100000010000000000000BRBVMFACNOR3125
012013100878BVMFJ14     070BVMF  FM    ON      NM000R$  000000000000200000000000040000000000002000000000000200000000000030000000000002000000000000300030000000000000159300000000000000335100000000000138502013102100000010000000000000BRBVMFACNOR3125
012013100878BVMFJ42     070BVMF  FM    ON      NM000R$  000000000004300000000000450000000000035000000000003700000000000450000000000036000000000123500075000000000000092600000000000003435200000000000123502013102100000010000000000000BRBVMFACNOR3125
012013100878BVMFJ43     070BVMF  FM    ON      NM000R$  000000000000600000000000060000000000005000000000000500000000000060000000000004000000000001000015000000000000014000000000000000082000000000000133502013102100000010000000000000BRBVMFACNOR3125
012013100878BVMFK12     070BVMF  FM    ON      NM000R$  000000000009700000000001080000000000091000000000009800000000001070000000000089000000000011000038000000000000028900000000000002833700000000000118502013111800000010000000000000BRBVMFACNOR3125
012013100878BVMFK13     070BVMF  FM    ON      NM000R$  000000000004000000000000430000000000032000000000003600000000000420000000000031000000000004400069000000000000169300000000000006141300000000000128502013111800000010000000000000BRBVMFACNOR3125
012013100878BVMFK14     070BVMF  FM    ON      NM000R$  000000000001200000000000120000000000008000000000000900000000000100000000000008000000000001100125000000000000153300000000000001442100000000000138502013111800000010000000000000BRBVMFACNOR3125
012013100878BVMFK42     070BVMF  FM    ON      NM000R$  000000000006100000000000610000000000061000000000006100000000000610000000000000000000000000000007000000000000027400000000000001671400000000000125002013111800000010000000000000BRBVMFACNOR3126
012013100878BVMFK43     070BVMF  FM    ON      NM000R$  000000000001700000000000180000000000017000000000001700000000000180000000000006000000000000000004000000000000011000000000000000192000000000000135002013111800000010000000000000BRBVMFACNOR3126
012013100878BVMFL12     070BVMF        ON      NM000R$  000000000012500000000001250000000000125000000000012500000000001250000000000000000000000020900001000000000000005000000000000000625000000000000115402013121600000010000000000000BRBVMFACNOR3123
012013100882BVMFV10     080BVMFE       ON      NM000R$  000000000000100000000000010000000000001000000000000100000000000010000000000000000000000000000001000000000000003200000000000000003200000000000098502013102100000010000000000000BRBVMFACNOR3125
012013100882BVMFV12     080BVMFE FM    ON      NM000R$  000000000000900000000000130000000000008000000000000900000000000100000000000008000000000001200016000000000000028200000000000000278900000000000118502013102100000010000000000000BRBVMFACNOR3125
012013100882BVMFV13     080BVMFE FM    ON      NM000R$  000000000004400000000000550000000000044000000000004600000000000550000000000001000000000006000005000000000000007500000000000000350000000000000128502013102100000010000000000000BRBVMFACNOR3125
012013100882BVMFV41     080BVMFE FM    ON      NM000R$  000000000000300000000000060000000000003000000000000400000000000060000000000000000000000000000007000000000000016700000000000000073700000000000113502013102100000010000000000000BRBVMFACNOR3125
012013100882BVMFV42     080BVMFE FM    ON      NM000R$  000000000002800000000000310000000000022000000000002500000000000290000000000001000000000002900005000000000000001500000000000000038800000000000123502013102100000010000000000000BRBVMFACNOR3125
012013100882BVMFV43     080BVMFE       ON      NM000R$  000000000009500000000000960000000000092000000000009400000000000920000000000000000000000010500003000000000000001300000000000000122700000000000133502013102100000010000000000000BRBVMFACNOR3125
012013100882BVMFW12     080BVMFE FM    ON      NM000R$  000000000002700000000000300000000000023000000000002600000000000230000000000000000000000003000010000000000000022700000000000000590300000000000118502013111800000010000000000000BRBVMFACNOR3125
012013100882BVMFW13     080BVMFE FM    ON      NM000R$  000000000006500000000000720000000000058000000000006700000000000580000000000000000000000025000019000000000000057300000000000003840100000000000128502013111800000010000000000000BRBVMFACNOR3125
012013100882BVMFW41     080BVMFE FM    ON      NM000R$  000000000001900000000000190000000000016000000000001700000000000160000000000000000000000000000003000000000000009900000000000000177000000000000115002013111800000010000000000000BRBVMFACNOR3126
012013100882BVMFW42     080BVMFE FM    ON      NM000R$  000000000004800000000000530000000000048000000000005200000000000530000000000000000000000005500004000000000000007200000000000000380900000000000125002013111800000010000000000000BRBVMFACNOR3126
012013100802CARD3       010CSU CARDSYSTON      NM   R$  000000000031200000000003140000000000307000000000031100000000003140000000000308000000000031400015000000000000010500000000000003272200000000000000009999123100000010000000000000BRCARDACNOR9105
012013100896CARD3F      020CSU CARDSYSTON      NM   R$  000000000034300000000003430000000000343000000000034300000000003430000000000300000000000034300001000000000000000001000000000000000343000000000000009999123100000010000000000000BRCARDACNOR9105
012013100896CBMA4F      020COBRASMA    PN           R$  000000000000400000000000040000000000004000000000000400000000000040000000000004000000000000500002000000000000000434000000000000001736000000000000009999123100000010000000000000BRCBMAACNPR1124
012013100808CCHI3       010CHIARELLI   ON           R$  000000000001900000000000200000000000018000000000001800000000000190000000000018000000000001900042000000000000900000000000000016640000000000000000009999123100000010000000000000BRCCHIACNOR5123
012013100896CCHI3F      020CHIARELLI   ON           R$  000000000001900000000000190000000000017000000000001800000000000190000000000018000000000003000003000000000000012000000000000000218000000000000000009999123100000010000000000000BRCCHIACNOR5123
012013100808CCHI4       010CHIARELLI   PN           R$  000000000001300000000000130000000000012000000000001200000000000120000000000012000000000001400007000000000000070000000000000000900000000000000000009999123100000010000000000000BRCCHIACNPR2122
012013100802CCPR3       010CYRE COM-CCPON      NM   R$  000000000206500000000020650000000002065000000000206500000000020650000000002060000000000209800001000000000000000200000000000000413000000000000000009999123100000010000000000000BRCCPRACNOR9107
012013100802CCRO3       010CCR SA      ON  ED  NM   R$  000000000179500000000018030000000001777000000000179000000000017900000000001790000000000179106829000000000002829000000000005065909500000000000000009999123100000010000000000000BRCCROACNOR2123
012013100896CCRO3F      020CCR SA      ON  ED  NM   R$  000000000180000000000018080000000001762000000000178600000000018080000000001795000000000180800055000000000000001392000000000002487720000000000000009999123100000010000000000000BRCCROACNOR2123
012013100878CCROK19     070CCRO    /ED ON      NM000R$  000000000004500000000000460000000000045000000000004500000000000460000000000000000000000000000002000000000000800000000000000036200000000000000183202013111800000010000000000000BRCCROACNOR2122
012013100802CCXC3       010CCX CARVAO  ON      NM   R$  000000000013100000000001330000000000118000000000012500000000001250000000000125000000000012602762000000000008462800000000001064239200000000000000009999123100000010000000000000BRCCXCACNOR5100
012013100896CCXC3F      020CCX CARVAO  ON      NM   R$  000000000013200000000001320000000000120000000000012300000000001270000000000127000000000013000021000000000000000659000000000000081449000000000000009999123100000010000000000000BRCCXCACNOR5100
012013100862CCXC3T      030CCX CARVAO  ON      NM030R$  000000000013100000000001320000000000131000000000013100000000001320000000000000000000000000000002000000000000020000000000000002621060000000000000009999123100000010000000000000BRCCXCACNOR5100
012013100812CEOC11B     010FII CEO CCP CI  ER  MB   R$  000000000885000000000088500000000008650000000000877400000000088000000000008675000000000880000029000000000000001392000000000012214432000000000000009999123100000010000000000000BRCEOCCTF003111
012013100802CEPE5       010CELPE       PNA          R$  000000000210000000000021000000000002100000000000210000000000021000000000002010000000000220000002000000000000001300000000000002730000000000000000009999123100000010000000000000BRCEPEACNPA6151
012013100802CESP3       010CESP        ON      N1   R$  000000000203000000000020300000000001950000000000202100000000019500000000001925000000000197300009000000000000008100000000000016370600000000000000009999123100000010000000000000BRCESPACNOR3160
012013100862CESP3T      030CESP        ON      N1062R$  000000000206400000000020650000000002064000000000206400000000020650000000000000000000000000000002000000000000006900000000000014242318000000000000009999123100000010000000000000BRCESPACNOR3160
012013100802CESP5       010CESP        PNA     N1   R$  000000000218600000000021860000000002186000000000218600000000021860000000002110000000000233800005000000000000001000000000000002186000000000000000009999123100000010000000000000BRCESPACNPA6108
012013100802CESP6       010CESP        PNB     N1   R$  000000000217900000000022150000000002136000000000215700000000021650000000002165000000000216704304000000000000797900000000001721179100000000000000009999123100000010000000000000BRCESPACNPB4119
012013100896CESP6F      020CESP        PNB     N1   R$  000000000218300000000022030000000002130000000000215800000000021350000000002135000000000219000108000000000000000965000000000002083291000000000000009999123100000010000000000000BRCESPACNPB4119
012013100862CESP6T      030CESP        PNB     N1090R$  000000000224500000000022460000000002245000000000224500000000022460000000000000000000000000000002000000000000003000000000000006735300000000000000009999123100000010000000000000BRCESPACNPB4119
012013100802CGAS5       010COMGAS      PNA          R$  000000000582500000000058500000000005781000000000582500000000058500000000005786000000000586100021000000000000005600000000000032624400000000000000009999123100000010000000000000BRCGASACNPA3129
012013100896CGAS5F      020COMGAS      PNA          R$  000000000580600000000058060000000005806000000000580600000000058060000000005501000000000580600001000000000000000001000000000000005806000000000000009999123100000010000000000000BRCGASACNPA3129
012013100896CGRA3F      020GRAZZIOTIN  ON           R$  000000000168000000000016800000000001680000000000168000000000016800000000001608000000000170000001000000000000000030000000000000050400000000000000009999123100000010000000000000BRCGRAACNOR2061
012013100802CGRA4       010GRAZZIOTIN  PN           R$  000000000178600000000017860000000001750000000000175500000000017500000000001750000000000175700040000000000000012200000000000021414600000000000000009999123100000010000000000000BRCGRAACNPR9061
012013100896CGRA4F      020GRAZZIOTIN  PN           R$  000000000176000000000017600000000001630000000000173400000000017500000000001756000000000180000006000000000000000085000000000000147390000000000000009999123100000010000000000000BRCGRAACNPR9061
012013100802CIEL3       010CIELO       ON      NM   R$  000000000638000000000063800000000006201000000000627800000000062750000000006274000000000627708386000000000002218500000000013929113300000000000000009999123100000010000000000000BRCIELACNOR3112
012013100896CIEL3F      020CIELO       ON      NM   R$  000000000637700000000063950000000006206000000000628800000000062800000000006280000000000635000209000000000000005487000000000034507423000000000000009999123100000010000000000000BRCIELACNOR3112
012013100862CIEL3T      030CIELO       ON      NM016R$  000000000631400000000063150000000006314000000000631400000000063150000000000000000000000000000002000000000000002100000000000013260792000000000000009999123100000010000000000000BRCIELACNOR3112
012013100862CIEL3T      030CIELO       ON      NM030R$  000000000635400000000063550000000006354000000000635400000000063550000000000000000000000000000004000000000000000200000000000001270912000000000000009999123100000010000000000000BRCIELACNOR3112
012013100862CIEL3T      030CIELO       ON      NM090R$  000000000640600000000064550000000006406000000000640700000000064550000000000000000000000000000004000000000000270900000000001735695008000000000000009999123100000010000000000000BRCIELACNOR3112
012013100802CLSC4       010CELESC      PN      N2   R$  000000000183900000000018780000000001839000000000184900000000018600000000001846000000000185900046000000000000012400000000000022930000000000000000009999123100000010000000000000BRCLSCACNPR3107
012013100896CLSC4F      020CELESC      PN      N2   R$  000000000175700000000017570000000001757000000000175700000000017570000000001757000000000185000001000000000000000001000000000000001757000000000000009999123100000010000000000000BRCLSCACNPR3107
012013100802CMCS34      010COMCAST     DRN ED       R$  000000000982800000000098280000000009828000000000982800000000098280000000009750000000000992500001000000000000002500000000000024570000000000000000009999123100000010000000000000BRCMCSBDR008107
012013100802CMIG3       010CEMIG       ON      N1   R$  000000000194000000000019400000000001910000000000191900000000019200000000001920000000000193000271000000000000173700000000000333463700000000000000009999123100000010000000000000BRCMIGACNOR6208
012013100896CMIG3F      020CEMIG       ON      N1   R$  000000000193900000000019740000000001909000000000192100000000019110000000001911000000000192500033000000000000000879000000000001688696000000000000009999123100000010000000000000BRCMIGACNOR6208
012013100802CMIG4       010CEMIG       PN      N1   R$  000000000195000000000019800000000001950000000000196400000000019620000000001961000000000196207734000000000001997100000000003922552600000000000000009999123100000010000000000000BRCMIGACNPR3208
012013100896CMIG4F      020CEMIG       PN      N1   R$  000000000195900000000019790000000001950000000000196400000000019640000000001961000000000196800159000000000000003254000000000006393400000000000000009999123100000010000000000000BRCMIGACNPR3208
012013100862CMIG4T      030CEMIG       PN      N1016R$  000000000197400000000019750000000001974000000000197400000000019750000000000000000000000000000002000000000000007000000000000013822399000000000000009999123100000010000000000000BRCMIGACNPR3208
012013100862CMIG4T      030CEMIG       PN      N1030R$  000000000197600000000019770000000001976000000000197600000000019770000000000000000000000000000002000000000000000700000000000001383700000000000000009999123100000010000000000000BRCMIGACNPR3208
012013100862CMIG4T      030CEMIG       PN      N1062R$  000000000198800000000019890000000001988000000000198800000000019890000000000000000000000000000002000000000000001500000000000002982630000000000000009999123100000010000000000000BRCMIGACNPR3208
012013100878CMIGK20     070CMIG        PN      N1000R$  000000000004200000000000500000000000042000000000004600000000000500000000000000000000000000000002000000000000000500000000000000023400000000000200002013111800000010000000000000BRCMIGACNPR3208
012013100812CNES11B     010FII CENESP  CI      MB   R$  000000001240100000000126000000000012401000000001249900000000126000000000012500000000001260000008000000000000000266000000000003324740000000000000009999123100000010000000000000BRCNESCTF001126
012013100802COCA34      010COCA COLA   DRN          R$  000000000816600000000081660000000008166000000000816600000000081660000000008141000000000846700001000000000000000500000000000004083000000000000000009999123100000010000000000000BRCOCABDR002109
012013100802COCE3       010COELCE      ON           R$  000000000400100000000040300000000004000000000000401600000000040300000000003995000000000403000021000000000000003200000000000012854200000000000000009999123100000010000000000000BRCOCEACNOR0132
012013100802COCE5       010COELCE      PNA          R$  000000000385900000000038710000000003844000000000385800000000038610000000003861000000000387500066000000000000016600000000000064045600000000000000009999123100000010000000000000BRCOCEACNPA3133
012013100896COCE5F      020COELCE      PNA          R$  000000000386000000000038600000000003826000000000384900000000038410000000003850000000000387900011000000000000000079000000000000304126000000000000009999123100000010000000000000BRCOCEACNPA3133
012013100802CPFE3       010CPFL ENERGIAON      NM   R$  000000000191000000000019290000000001897000000000191000000000019100000000001909000000000191102559000000000000719600000000001374454900000000000000009999123100000010000000000000BRCPFEACNOR0122
012013100896CPFE3F      020CPFL ENERGIAON      NM   R$  000000000191000000000019490000000001900000000000190900000000019000000000001900000000000192000033000000000000000874000000000001668797000000000000009999123100000010000000000000BRCPFEACNOR0122
012013100802CPLE3       010COPEL       ON      N1   R$  000000000226900000000022840000000002222000000000225100000000022590000000002222000000000225900258000000000000076000000000000171149500000000000000009999123100000010000000000000BRCPLEACNOR8128
012013100896CPLE3F      020COPEL       ON      N1   R$  000000000220500000000022050000000002205000000000220500000000022050000000002205000000000238900001000000000000000080000000000000176400000000000000009999123100000010000000000000BRCPLEACNOR8128
012013100802CPLE6       010COPEL       PNB     N1   R$  000000000306500000000030990000000002995000000000303300000000029990000000002999000000000301002300000000000000532200000000001614118700000000000000009999123100000010000000000000BRCPLEACNPB9125
012013100896CPLE6F      020COPEL       PNB     N1   R$  000000000301400000000030760000000002960000000000302900000000030150000000002960000000000301500052000000000000000725000000000002196652000000000000009999123100000010000000000000BRCPLEACNPB9125
012013100802CPRE3       010CPFL RENOVAVON      NM   R$  000000000136900000000013720000000001340000000000135200000000013400000000001340000000000137200009000000000000002800000000000003788100000000000000009999123100000010000000000000BRCPREACNOR5100
012013100896CPRE3F      020CPFL RENOVAVON      NM   R$  000000000137900000000013790000000001379000000000137900000000013790000000001209000000000135900002000000000000000002000000000000002758000000000000009999123100000010000000000000BRCPREACNOR5100
012013100802CRDE3       010CR2         ON      NM   R$  000000000039400000000003990000000000394000000000039500000000003990000000000392000000000039900006000000000000005700000000000002252400000000000000009999123100000010000000000000BRCRDEACNOR1108
012013100896CRDE3F      020CR2         ON      NM   R$  000000000042400000000004240000000000400000000000040200000000004000000000000378000000000042400002000000000000000009000000000000003624000000000000009999123100000010000000000000BRCRDEACNOR1108
012013100802CREM3       010CREMER      ON      NM   R$  000000000146000000000014660000000001441000000000145000000000014410000000001441000000000146000010000000000000001500000000000002175100000000000000009999123100000010000000000000BRCREMACNOR2167
012013100896CREM3F      020CREMER      ON      NM   R$  000000000147000000000014700000000001470000000000147000000000014700000000001442000000000148000001000000000000000001000000000000001470000000000000009999123100000010000000000000BRCREMACNOR2167
012013100802CRIV4       010ALFA FINANC PN           R$  000000000044000000000004440000000000440000000000044000000000004400000000000437000000000044000013000000000000007000000000000003080500000000000000009999123100000010000000000000BRCRIVACNPR1190
012013100802CRUZ3       010SOUZA CRUZ  ON           R$  000000000250600000000025530000000002502000000000252300000000025400000000002535000000000254004128000000000000833300000000002102614600000000000000009999123100000010000000000000BRCRUZACNOR0248
012013100896CRUZ3F      020SOUZA CRUZ  ON           R$  000000000251000000000025600000000002508000000000252700000000025410000000002520000000000255000059000000000000002288000000000005783116000000000000009999123100000010000000000000BRCRUZACNOR0248
012013100862CRUZ3T      030SOUZA CRUZ  ON        030R$  000000000252500000000025480000000002521000000000252800000000025480000000000000000000000000000010000000000000008700000000000021997142000000000000009999123100000010000000000000BRCRUZACNOR0248
012013100862CRUZ3T      030SOUZA CRUZ  ON        045R$  000000000254400000000025450000000002544000000000254400000000025450000000000000000000000000000002000000000000000200000000000000508989000000000000009999123100000010000000000000BRCRUZACNOR0248
012013100862CRUZ3T      030SOUZA CRUZ  ON        062R$  000000000254900000000025600000000002549000000000255600000000025600000000000000000000000000000004000000000000001700000000000004346182000000000000009999123100000010000000000000BRCRUZACNOR0248
012013100802CSAN3       010COSAN       ON      NM   R$  000000000438100000000044500000000004363000000000439700000000044110000000004411000000000441405108000000000001293800000000005689726500000000000000009999123100000010000000000000BRCSANACNOR6108
012013100896CSAN3F      020COSAN       ON      NM   R$  000000000438200000000044480000000004365000000000439800000000044480000000004440000000000444800155000000000000004903000000000021572019000000000000009999123100000010000000000000BRCSANACNOR6108
012013100878CSANJ45     070CSAN        ON      NM000R$  000000000006900000000000690000000000069000000000006900000000000690000000000000000000000000000001000000000000001000000000000000069000000000000450002013102100000010000000000000BRCSANACNOR6108
012013100802CSCO34      010CISCO       DRN ED       R$  000000000506000000000050600000000005060000000000506000000000050600000000004950000000000503000001000000000000000900000000000004554000000000000000009999123100000010000000000000BRCSCOBDR004111
012013100802CSMG3       010COPASA      ON      NM   R$  000000000348300000000035060000000003445000000000347400000000034890000000003486000000000348901250000000000000191700000000000666064300000000000000009999123100000010000000000000BRCSMGACNOR5128
012013100896CSMG3F      020COPASA      ON      NM   R$  000000000349900000000035440000000003346000000000343500000000034010000000003401000000000354400013000000000000000283000000000000972151000000000000009999123100000010000000000000BRCSMGACNOR5128
012013100814CSMO11      010ISHARES CSMOCI           R$  000000000472500000000047250000000004725000000000472500000000047250000000004700000000000480000001000000000000000200000000000000945000000000000000009999123100000010000000000000BRCSMOCTF002100
012013100802CSNA3       010SID NACIONALON           R$  000000000099000000000010050000000000985000000000099400000000009950000000000995000000000099610262000000000005144400000000005113820100000000000000009999123100000010000000000000BRCSNAACNOR6243
012013100896CSNA3F      020SID NACIONALON           R$  000000000097000000000010050000000000970000000000099500000000010050000000000984000000000100500163000000000000002512000000000002499695000000000000009999123100000010000000000000BRCSNAACNOR6243
012013100862CSNA3T      030SID NACIONALON        030R$  000000000099700000000009980000000000997000000000099700000000009980000000000000000000000000000002000000000000001000000000000000997524000000000000009999123100000010000000000000BRCSNAACNOR6243
012013100878CSNAJ10     070CSNA  FM    ON        000R$  000000000002800000000000290000000000025000000000002700000000000280000000000020000000000003200039000000000000036600000000000001008600000000000100002013102100000010000000000000BRCSNAACNOR6243
012013100878CSNAJ20     070CSNA  FM    ON        000R$  000000000001900000000000190000000000018000000000001800000000000180000000000000000000000000000002000000000000006200000000000000115600000000000102002013102100000010000000000000BRCSNAACNOR6243
012013100878CSNAJ40     070CSNA  FM    ON        000R$  000000000001300000000000130000000000013000000000001300000000000130000000000000000000000000000001000000000000002000000000000000026000000000000104002013102100000010000000000000BRCSNAACNOR6243
012013100878CSNAJ7      070CSNA        ON        000R$  000000000033000000000003300000000000320000000000032500000000003200000000000000000000000000000002000000000000000200000000000000065000000000000068002013102100000010000000000000BRCSNAACNOR6242
012013100878CSNAJ74     070CSNA        ON        000R$  000000000026300000000002630000000000263000000000026300000000002630000000000000000000000000000001000000000000000200000000000000052600000000000074002013102100000010000000000000BRCSNAACNOR6243
012013100878CSNAJ8      070CSNA        ON        000R$  000000000022000000000002200000000000214000000000021800000000002200000000000000000000000000000004000000000000001900000000000000414400000000000078002013102100000010000000000000BRCSNAACNOR6242
012013100878CSNAJ9      070CSNA        ON        000R$  000000000012000000000001220000000000120000000000012000000000001220000000000000000000000017500005000000000000008100000000000000979800000000000088002013102100000010000000000000BRCSNAACNOR6242
012013100878CSNAJ94     070CSNA        ON        000R$  000000000007300000000000730000000000063000000000006800000000000630000000000000000000000000000013000000000000007500000000000000512800000000000094002013102100000010000000000000BRCSNAACNOR6243
012013100878CSNAJ96     070CSNA  FM    ON        000R$  000000000004800000000000480000000000048000000000004800000000000480000000000000000000000000000001000000000000003500000000000000168000000000000096002013102100000010000000000000BRCSNAACNOR6243
012013100878CSNAJ98     070CSNA  FM    ON        000R$  000000000003700000000000420000000000035000000000003800000000000370000000000003000000000000000015000000000000057200000000000002176200000000000098002013102100000010000000000000BRCSNAACNOR6243
012013100878CSNAK1      070CSNA  FM    ON        000R$  000000000005500000000000550000000000055000000000005500000000000550000000000000000000000000000001000000000000003500000000000000192500000000000100002013111800000010000000000000BRCSNAACNOR6243
012013100878CSNAK10     070CSNA  FM    ON        000R$  000000000006400000000000670000000000061000000000006200000000000650000000000000000000000006700015000000000000032700000000000002043800000000000098002013111800000010000000000000BRCSNAACNOR6242
012013100878CSNAK11     070CSNA        ON        000R$  000000000001500000000000190000000000015000000000001800000000000190000000000000000000000002900004000000000000013000000000000000235000000000000110002013111800000010000000000000BRCSNAACNOR6243
012013100878CSNAK20     070CSNA  FM    ON        000R$  000000000004000000000000440000000000040000000000004000000000000440000000000000000000000000000002000000000000003600000000000000144400000000000102002013111800000010000000000000BRCSNAACNOR6243
012013100878CSNAK22     070CSNA        ON        000R$  000000000001500000000000150000000000015000000000001500000000000150000000000000000000000000000001000000000000003000000000000000045000000000000112002013111800000010000000000000BRCSNAACNOR6243
012013100878CSNAK60     070CSNA        ON        000R$  000000000002600000000000290000000000026000000000002700000000000290000000000000000000000000000006000000000000006000000000000000165000000000000106002013111800000010000000000000BRCSNAACNOR6243
012013100878CSNAK8      070CSNA        ON        000R$  000000000022600000000002260000000000222000000000022500000000002260000000000000000000000000000003000000000000001100000000000000247800000000000078002013111800000010000000000000BRCSNAACNOR6242
012013100878CSNAK96     070CSNA  FM    ON        000R$  000000000007300000000000730000000000073000000000007300000000000730000000000000000000000000000002000000000000003300000000000000240900000000000096002013111800000010000000000000BRCSNAACNOR6243
012013100882CSNAV10     080CSNAE FM    ON        000R$  000000000003200000000000340000000000027000000000003200000000000320000000000025000000000006700063000000000000081600000000000002617600000000000100002013102100000010000000000000BRCSNAACNOR6243
012013100882CSNAV96     080CSNAE FM    ON        000R$  000000000001700000000000170000000000017000000000001700000000000170000000000000000000000005000002000000000000004200000000000000071400000000000096002013102100000010000000000000BRCSNAACNOR6243
012013100882CSNAW1      080CSNAE FM    ON        000R$  000000000005200000000000560000000000052000000000005400000000000520000000000000000000000000000006000000000000009000000000000000486500000000000100002013111800000010000000000000BRCSNAACNOR6243
012013100882CSNAW10     080CSNAE FM    ON        000R$  000000000004300000000000450000000000040000000000004200000000000450000000000039000000000006300013000000000000013700000000000000586200000000000098002013111800000010000000000000BRCSNAACNOR6242
012013100882CSNAW9      080CSNAE       ON        000R$  000000000002000000000000210000000000019000000000002000000000000200000000000019000000000002600023000000000000011500000000000000233000000000000090002013111800000010000000000000BRCSNAACNOR6243
012013100882CSNAW96     080CSNAE FM    ON        000R$  000000000003600000000000370000000000036000000000003600000000000370000000000000000000000000000002000000000000004000000000000000146000000000000096002013111800000010000000000000BRCSNAACNOR6243
012013100802CTAX11      010CONTAX      UNT     N2   R$  000000000188100000000018810000000001831000000000184800000000018500000000001846000000000189500098000000000000034700000000000064146100000000000000009999123100000010000000000000BRCTAXCDAM19100
012013100802CTAX3       010CONTAX      ON      N2   R$  000000000040000000000004000000000000361000000000039000000000004000000000000375000000000040000030000000000000011500000000000004485900000000000000009999123100000010000000000000BRCTAXACNOR3113
012013100802CTAX4       010CONTAX      PN      N2   R$  000000000037000000000003700000000000351000000000036100000000003600000000000358000000000036000404000000000000176800000000000063849900000000000000009999123100000010000000000000BRCTAXACNPR0114
012013100896CTAX4F      020CONTAX      PN      N2   R$  000000000037500000000003750000000000343000000000037000000000003430000000000343000000000043300003000000000000000076000000000000028124000000000000009999123100000010000000000000BRCTAXACNPR0114
012013100802CTGP34      010CITIGROUP   DRN          R$  000000001054300000000105430000000010543000000001054300000000105430000000010440000000001057500001000000000000002300000000000024248900000000000000009999123100000010000000000000BRCTGPBDR000111
012013100802CTIP3       010CETIP       ON      NM   R$  000000000232200000000023220000000002282000000000229800000000023170000000002316000000000231704782000000000001397300000000003212385000000000000000009999123100000010000000000000BRCTIPACNOR2120
012013100896CTIP3F      020CETIP       ON      NM   R$  000000000230200000000023150000000002285000000000229800000000023150000000002285000000000231500023000000000000000629000000000001447416000000000000009999123100000010000000000000BRCTIPACNOR2120
012013100878CTIPC29     070CTIP        ON      NM000R$  000000000000300000000000040000000000003000000000000300000000000040000000000000000000000000000003000000000000522500000000000001828700000000000290002014031700000010000000000000BRCTIPACNOR2120
012013100882CTIPO21     080CTIPE       ON      NM000R$  000000000004900000000000490000000000049000000000004900000000000490000000000000000000000000000001000000000000522500000000000025602500000000000210002014031700000010000000000000BRCTIPACNOR2120
012013100802CTKA4       010KARSTEN     PN           R$  000000000010500000000001050000000000105000000000010500000000001050000000000103000000000010600002000000000000000300000000000000031500000000000000009999123100000010000000000000BRCTKAACNPR7041
012013100802CTNM3       010COTEMINAS   ON           R$  000000000023000000000002300000000000230000000000023000000000002300000000000230000000000030000001000000000000000200000000000000046000000000000000009999123100000010000000000000BRCTNMACNOR9129
012013100802CTNM4       010COTEMINAS   PN           R$  000000000023000000000002300000000000225000000000022700000000002300000000000226000000000023000005000000000000003800000000000000865000000000000000009999123100000010000000000000BRCTNMACNPR6128
012013100896CTSA3F      020SANTANENSE  ON           R$  000000000052500000000005250000000000525000000000052500000000005250000000000520000000000055000002000000000000000055000000000000028875000000000000009999123100000010000000000000BRCTSAACNOR3051
012013100802CTSA4       010SANTANENSE  PN           R$  000000000059500000000005950000000000594000000000059400000000005950000000000548000000000059500004000000000000003500000000000002080000000000000000009999123100000010000000000000BRCTSAACNPR0051
012013100862CTSA4T      030SANTANENSE  PN        080R$  000000000060500000000006070000000000605000000000060500000000006070000000000000000000000000000004000000000000002600000000000001574154000000000000009999123100000010000000000000BRCTSAACNPR0051
012013100802CYRE3       010CYRELA REALTON      NM   R$  000000000165600000000016730000000001656000000000166200000000016610000000001660000000000166105273000000000001232600000000002049214900000000000000009999123100000010000000000000BRCYREACNOR7125
012013100896CYRE3F      020CYRELA REALTON      NM   R$  000000000166500000000016790000000001640000000000166300000000016400000000001640000000000168000025000000000000000430000000000000715192000000000000009999123100000010000000000000BRCYREACNOR7125
012013100862CYRE3T      030CYRELA REALTON      NM016R$  000000000166800000000016710000000001668000000000167000000000016710000000000000000000000000000004000000000000007000000000000011691216000000000000009999123100000010000000000000BRCYREACNOR7125
012013100878CYREJ16     070CYRE  FM    ON      NM000R$  000000000008600000000000860000000000083000000000008300000000000830000000000000000000000000000002000000000000004500000000000000376500000000000160002013102100000010000000000000BRCYREACNOR7125
012013100878CYREJ46     070CYRE  FM    ON      NM000R$  000000000004600000000000470000000000046000000000004600000000000470000000000000000000000000000013000000000000044000000000000002044500000000000165002013102100000010000000000000BRCYREACNOR7125
012013100878CYREK18     070CYRE  FM    ON      NM000R$  000000000002400000000000240000000000023000000000002300000000000230000000000000000000000000000002000000000000005900000000000000139200000000000180002013111800000010000000000000BRCYREACNOR7125
012013100878CYREK46     070CYRE  FM    ON      NM000R$  000000000008400000000000850000000000083000000000008300000000000840000000000000000000000000000010000000000000032500000000000002723000000000000165002013111800000010000000000000BRCYREACNOR7125
012013100878CYREL18     070CYRE        ON      NM000R$  000000000004500000000000450000000000045000000000004500000000000450000000000000000000000000000001000000000000000200000000000000009000000000000180002013121600000010000000000000BRCYREACNOR7125
012013100878CYREL19     070CYRE        ON      NM000R$  000000000002300000000000230000000000022000000000002200000000000220000000000000000000000000000002000000000000006000000000000000135000000000000190002013121600000010000000000000BRCYREACNOR7125
012013100882CYREV46     080CYREE FM    ON      NM000R$  000000000002800000000000280000000000028000000000002800000000000280000000000000000000000000000001000000000000001000000000000000028000000000000165002013102100000010000000000000BRCYREACNOR7125
012013100882CYREW46     080CYREE FM    ON      NM000R$  000000000005700000000000570000000000055000000000005500000000000550000000000000000000000000000003000000000000009800000000000000544600000000000165002013111800000010000000000000BRCYREACNOR7125
012013100802CZLT33      010COSAN LTD   DR3          R$  000000000346500000000034900000000003403000000000344100000000034900000000003450000000000349000451000000000000306800000000001055924600000000000000009999123100000010000000000000BRCZLTBDR009105
012013100802DAGB33      010DUFRY AG    DR3          R$  000000003250000000000335000000000032500000000003310800000000332000000000033200000000003350000334000000000000008068000000000267122583000000000000009999123100000010000000000000BRDAGBBDR008100
012013100802DASA3       010DASA        ON      NM   R$  000000000120500000000012320000000001195000000000121800000000012270000000001227000000000122905698000000000001963200000000002391882900000000000000009999123100000010000000000000BRDASAACNOR1108
012013100896DASA3F      020DASA        ON      NM   R$  000000000120500000000012460000000001197000000000121300000000012460000000001206000000000124600014000000000000000418000000000000507351000000000000009999123100000010000000000000BRDASAACNOR1108
012013100802DAYC4       010DAYCOVAL    PN  EJ  N2   R$  000000000090700000000009200000000000894000000000090400000000009010000000000901000000000091000450000000000000216500000000000195900700000000000000009999123100000010000000000000BRDAYCACNPR2129
012013100896DAYC4F      020DAYCOVAL    PN  EJ  N2   R$  000000000094500000000009450000000000886000000000089900000000008860000000000862000000000088600009000000000000000201000000000000180803000000000000009999123100000010000000000000BRDAYCACNPR2129
012013100802DIRR3       010DIRECIONAL  ON      NM   R$  000000000118600000000011960000000001163000000000117700000000011850000000001170000000000118502390000000000000433200000000000510049900000000000000009999123100000010000000000000BRDIRRACNOR0104
012013100896DIRR3F      020DIRECIONAL  ON      NM   R$  000000000129900000000012990000000001170000000000121700000000011750000000001165000000000119000012000000000000000282000000000000343433000000000000009999123100000010000000000000BRDIRRACNOR0104
012013100814DIVO11      010IT NOW IDIV CI           R$  000000000339000000000033930000000003381000000000338600000000033870000000003383000000000338800013000000000000002140000000000007246450000000000000009999123100000010000000000000BRDIVOCTF002100
012013100802DOHL4       010DOHLER      PN           R$  000000000048000000000004800000000000480000000000048000000000004800000000000480000000000050200001000000000000005000000000000002400000000000000000009999123100000010000000000000BRDOHLACNPR9054
012013100802DTEX3       010DURATEX     ON      NM   R$  000000000128500000000013210000000001284000000000130300000000013210000000001311000000000132103750000000000003109600000000004053852800000000000000009999123100000010000000000000BRDTEXACNOR3115
012013100896DTEX3F      020DURATEX     ON      NM   R$  000000000128200000000013240000000001261000000000130100000000013240000000001303000000000132500037000000000000001059000000000001378308000000000000009999123100000010000000000000BRDTEXACNOR3115
012013100802EALT4       010ACO ALTONA  PN           R$  000000000269900000000026990000000002699000000000269900000000026990000000002515000000000269900001000000000000000500000000000001349500000000000000009999123100000010000000000000BREALTACNPR1123
012013100896EBTP3F      020EMBRATEL PARON *         R$  000000000070100000000007010000000000701000000000070100000000007010000000000701000000000072000002000000000000007126000000000000004995000000000000009999123100010000000000000000BREBTPACNOR3115
012013100802EBTP4       010EMBRATEL PARPN *         R$  000000000072000000000007400000000000715000000000072100000000007400000000000722000000000074800005000000000001500000000000000001081500000000000000009999123100010000000000000000BREBTPACNPR0120
012013100896EBTP4F      020EMBRATEL PARPN *         R$  000000000072000000000007240000000000718000000000071900000000007240000000000724000000000078000003000000000000007130000000000000005130000000000000009999123100010000000000000000BREBTPACNPR0120
012013100814ECOO11      010ISHARES ECOOCI           R$  000000000550100000000055050000000005454000000000547500000000054700000000005200000000000555000016000000000000001310000000000007173470000000000000009999123100000010000000000000BRECOOCTF008100
012013100896ECOO11F     020ISHARES ECOOCI           R$  000000000540400000000054110000000005402000000000540500000000054020000000005410000000000575500007000000000000000046000000000000248667000000000000009999123100000010000000000000BRECOOCTF008100
012013100802ECOR3       010ECORODOVIAS ON      NM   R$  000000000155500000000015710000000001544000000000156200000000015680000000001562000000000156803290000000000001378300000000002153152300000000000000009999123100000010000000000000BRECORACNOR8106
012013100896ECOR3F      020ECORODOVIAS ON      NM   R$  000000000154800000000015750000000001541000000000155200000000015410000000001541000000000159000016000000000000000268000000000000416079000000000000009999123100000010000000000000BRECORACNOR8106
012013100812EDGA11B     010FII GALERIA CI      MB   R$  000000000776000000000077600000000007676000000000770000000000076800000000007665000000000770000036000000000000003019000000000023248216000000000000009999123100000010000000000000BREDGACTF001112
012013100802ELET3       010ELETROBRAS  ON      N1   R$  000000000067000000000006730000000000656000000000066300000000006600000000000658000000000066006209000000000002735700000000001815717000000000000000009999123100000010000000000000BRELETACNOR6151
012013100896ELET3F      020ELETROBRAS  ON      N1   R$  000000000067000000000006790000000000653000000000066400000000006530000000000653000000000066900026000000000000000576000000000000382872000000000000009999123100000010000000000000BRELETACNOR6151
012013100862ELET3T      030ELETROBRAS  ON      N1090R$  000000000068000000000006810000000000680000000000068000000000006810000000000000000000000000000002000000000000001000000000000000680740000000000000009999123100000010000000000000BRELETACNOR6151
012013100862ELET3T      030ELETROBRAS  ON      N1120R$  000000000069100000000006920000000000691000000000069100000000006920000000000000000000000000000002000000000000100000000000000069186810000000000000009999123100000010000000000000BRELETACNOR6151
012013100802ELET6       010ELETROBRAS  PNB     N1   R$  000000000108900000000010970000000001072000000000108300000000010860000000001085000000000108604083000000000001663100000000001801809300000000000000009999123100000010000000000000BRELETACNPB7066
012013100896ELET6F      020ELETROBRAS  PNB     N1   R$  000000000109900000000010990000000001067000000000108300000000010670000000001061000000000106700032000000000000000575000000000000622728000000000000009999123100000010000000000000BRELETACNPB7066
012013100862ELET6T      030ELETROBRAS  PNB     N1090R$  000000000111100000000011120000000001111000000000111100000000011120000000000000000000000000000002000000000000000200000000000000222287000000000000009999123100000010000000000000BRELETACNPB7066
012013100878ELETD11     070ELET        PNB     N1000R$  000000000017100000000001710000000000171000000000017100000000001710000000000000000000000000000002000000000000042500000000000007267500000000000110002014042200000010000000000000BRELETACNPB7066
012013100878ELETD13     070ELET        PNB     N1000R$  000000000008500000000000850000000000085000000000008500000000000850000000000000000000000000000002000000000000074200000000000006307000000000000130002014042200000010000000000000BRELETACNPB7066
012013100878ELETD15     070ELET        PNB     N1000R$  000000000003700000000000370000000000037000000000003700000000000370000000000000000000000000000001000000000000031700000000000001172900000000000150002014042200000010000000000000BRELETACNPB7066
012013100878ELETJ10     070ELET        PNB     N1000R$  000000000008000000000000800000000000080000000000008000000000000800000000000070000000000009700001000000000000000200000000000000016000000000000100002013102100000010000000000000BRELETACNPB7066
