00COTAHIST.2013BOVESPA 20130906                                                                                                                                                                                                                      
012013090602AAPL34      010APPLE       DRN          R$  000000001145500000000114550000000011426000000001144100000000114260000000011405000000001145900003000000000000008900000000000101828300000000000000009999123100000010000000000000BRAAPLBDR004105
012013090602ABCB4       010ABC BRASIL  PN      N2   R$  000000000123900000000012390000000001200000000000121300000000012000000000001200000000000121000496000000000000195500000000000237305700000000000000009999123100000010000000000000BRABCBACNPR4120
012013090696ABCB4F      020ABC BRASIL  PN      N2   R$  000000000123300000000012330000000001203000000000121200000000012030000000001214000000000121900009000000000000000225000000000000272843000000000000009999123100000010000000000000BRABCBACNPR4120
012013090612ABCP11      010FII ABC IMOBCI  ER       R$  000000000096500000000009650000000000950000000000095100000000009500000000000910000000000096500003000000000000001105000000000001051325000000000000009999123100000010000000000000BRABCPCTF000215
012013090602ABRE11      010ABRIL EDUCA UNT     N2   R$  000000000347400000000034870000000003284000000000335600000000034340000000003400000000000343800574000000000000183600000000000616196000000000000000009999123100000010000000000000BRABRECDAM15102
012013090696ABRE11F     020ABRIL EDUCA UNT     N2   R$  000000000338000000000034000000000003310000000000332600000000033150000000003286000000000349500014000000000000000218000000000000725176000000000000009999123100000010000000000000BRABRECDAM15102
012013090602ABTT34      010ABBOTT      DRN          R$  000000000194400000000019440000000001944000000000194400000000019440000000001900000000000194000001000000000000014900000000000028965600000000000000009999123100000010000000000000BRABTTBDR007107
012013090602AEDU3       010ANHANGUERA  ON      NM   R$  000000000139500000000014080000000001362000000000137600000000014080000000001394000000000140806115000000000003331900000000004586575000000000000000009999123100000010000000000000BRAEDUACNOR9107
012013090696AEDU3F      020ANHANGUERA  ON      NM   R$  000000000138600000000014290000000001370000000000138500000000013800000000001371000000000141300032000000000000000995000000000001378755000000000000009999123100000010000000000000BRAEDUACNOR9107
012013090662AEDU3T      030ANHANGUERA  ON      NM030R$  000000000140000000000014010000000001400000000000140000000000014010000000000000000000000000000002000000000000002800000000000003922453000000000000009999123100000010000000000000BRAEDUACNOR9107
012013090662AEDU3T      030ANHANGUERA  ON      NM122R$  000000000144100000000014420000000001441000000000144100000000014420000000000000000000000000000002000000000000000008000000000000011533000000000000009999123100000010000000000000BRAEDUACNOR9107
012013090612AEFI11      010FII AESAPAR CI  ER       R$  000000001210000000000121000000000012010000000001206000000000120600000000012060000000001209900020000000000000001007000000000012145383000000000000009999123100000010000000000000BRAEFICTF002121
012013090602AELP3       010AES ELPA    ON           R$  000000000085400000000009000000000000854000000000088200000000008990000000000830000000000091900010000000000000012100000000000010678100000000000000009999123100000010000000000000BRAELPACNOR2119
012013090696AELP3F      020AES ELPA    ON           R$  000000000082800000000008280000000000828000000000082800000000008280000000000800000000000090000001000000000000000013000000000000010764000000000000009999123100000010000000000000BRAELPACNOR2119
012013090662AELP3T      030AES ELPA    ON        060R$  000000000091200000000009130000000000912000000000091200000000009130000000000000000000000000000002000000000000005500000000000005019656000000000000009999123100000010000000000000BRAELPACNOR2119
012013090696AFLT3F      020AFLUENTE T  ON           R$  000000000036000000000003600000000000360000000000036000000000003600000000000300000000000036000001000000000000000056000000000000020160000000000000009999123100000010000000000000BRAFLTACNOR1104
012013090612AGCX11      010FII AG CAIXACI  ER       R$  000000009890000000000990000000000098000000000009845200000000980000000000097500000000009920000007000000000000000063000000000006202500000000000000009999123100000010000000000000BRAGCXCTF003110
012013090602AGRO3       010BRASILAGRO  ON      NM   R$  000000000096700000000009670000000000947000000000095000000000009500000000000947000000000095000058000000000000022700000000000021587000000000000000009999123100000010000000000000BRAGROACNOR7102
012013090662AGRO3T      030BRASILAGRO  ON      NM090R$  000000000097000000000009710000000000970000000000097000000000009710000000000000000000000000000004000000000000002500000000000002427012000000000000009999123100000010000000000000BRAGROACNOR7102
012013090602ALLL3       010ALL AMER LATON      NM   R$  000000000093700000000009440000000000912000000000093100000000009330000000000927000000000093308774000000000002484900000000002315838900000000000000009999123100000010000000000000BRALLLACNOR6118
012013090696ALLL3F      020ALL AMER LATON      NM   R$  000000000092800000000009450000000000915000000000092900000000009300000000000933000000000094000023000000000000000744000000000000691362000000000000009999123100000010000000000000BRALLLACNOR6118
012013090612ALMI11B     010FII TORRE ALCI  ER  MB   R$  000000031399900000003210000000000313999000000031452600000003210000000000308041000000032100000006000000000000000131000000000041202999000000000000009999123100000010000000000000BRALMICTF003205
012013090602ALPA3       010ALPARGATAS  ON      N1   R$  000000000113800000000011380000000001133000000000113600000000011330000000001102000000000113300005000000000000001300000000000001477900000000000000009999123100000010000000000000BRALPAACNOR0203
012013090696ALPA3F      020ALPARGATAS  ON      N1   R$  000000000110000000000011380000000001100000000000111700000000011380000000001063000000000113800002000000000000000024000000000000026818000000000000009999123100000010000000000000BRALPAACNOR0203
012013090602ALPA4       010ALPARGATAS  PN      N1   R$  000000000129000000000013130000000001273000000000129000000000013080000000001306000000000130801362000000000000381600000000000492347900000000000000009999123100000010000000000000BRALPAACNPR7203
012013090696ALPA4F      020ALPARGATAS  PN      N1   R$  000000000135200000000013520000000001262000000000130200000000012620000000001262000000000130400007000000000000000240000000000000312531000000000000009999123100000010000000000000BRALPAACNPR7203
012013090662ALPA4T      030ALPARGATAS  PN      N1122R$  000000000134300000000013430000000001343000000000134300000000013430000000000000000000000000000001000000000000000001000000000000001343000000000000009999123100000010000000000000BRALPAACNPR7203
012013090602ALSC3       010ALIANSCE    ON      NM   R$  000000000183900000000019070000000001839000000000189000000000018900000000001890000000000189102150000000000000471600000000000891424700000000000000009999123100000010000000000000BRALSCACNOR0104
012013090696ALSC3F      020ALIANSCE    ON      NM   R$  000000000182100000000019430000000001820000000000187500000000018200000000001820000000000194500011000000000000000176000000000000330018000000000000009999123100000010000000000000BRALSCACNOR0104
012013090602ALUP11      010ALUPAR      UNT     N2   R$  000000000173300000000017540000000001718000000000173400000000017330000000001733000000000174300321000000000000517700000000000898072200000000000000009999123100000010000000000000BRALUPCDAM15100
012013090696ALUP11F     020ALUPAR      UNT     N2   R$  000000000179700000000017970000000001717000000000174000000000017170000000001717000000000173000022000000000000000717000000000001247828000000000000009999123100000010000000000000BRALUPCDAM15100
012013090602AMAR3       010LOJAS MARISAON      NM   R$  000000000195400000000019670000000001914000000000194300000000019500000000001945000000000195002009000000000000393100000000000763934800000000000000009999123100000010000000000000BRAMARACNOR4109
012013090696AMAR3F      020LOJAS MARISAON      NM   R$  000000000191900000000019400000000001919000000000192300000000019400000000001930000000000199500003000000000000000141000000000000271160000000000000009999123100000010000000000000BRAMARACNOR4109
012013090662AMAR3T      030LOJAS MARISAON      NM017R$  000000000193500000000019360000000001935000000000193500000000019360000000000000000000000000000002000000000000008000000000000015483830000000000000009999123100000010000000000000BRAMARACNOR4109
012013090602AMBV3       010AMBEV       ON           R$  000000000820100000000082700000000008090000000000815500000000081840000000008164000000000818401891000000000000317400000000002588538500000000000000009999123100000010000000000000BRAMBVACNOR4153
012013090696AMBV3F      020AMBEV       ON           R$  000000000828300000000082860000000008097000000000817200000000081410000000008141000000000824000070000000000000001328000000000010854598000000000000009999123100000010000000000000BRAMBVACNOR4153
012013090662AMBV3T      030AMBEV       ON        017R$  000000000829200000000082930000000008292000000000829200000000082930000000000000000000000000000002000000000000001000000000000008292214000000000000009999123100000010000000000000BRAMBVACNOR4153
012013090602AMBV4       010AMBEV       PN           R$  000000000820100000000082700000000008085000000000816500000000081670000000008167000000000817208899000000000001818100000000014845820800000000000000009999123100000010000000000000BRAMBVACNPR1153
012013090696AMBV4F      020AMBEV       PN           R$  000000000819900000000082690000000008091000000000816900000000081810000000008150000000000818100171000000000000004539000000000037079829000000000000009999123100000010000000000000BRAMBVACNPR1153
012013090662AMBV4T      030AMBEV       PN        031R$  000000000821400000000082150000000008214000000000821400000000082150000000000000000000000000000002000000000000001000000000000008214099000000000000009999123100000010000000000000BRAMBVACNPR1153
012013090662AMBV4T      030AMBEV       PN        060R$  000000000830900000000083100000000008260000000000828200000000082610000000000000000000000000000004000000000000002200000000000018221669000000000000009999123100000010000000000000BRAMBVACNPR1153
012013090662AMBV4T      030AMBEV       PN        180R$  000000000853700000000085380000000008504000000000851900000000085050000000000000000000000000000004000000000000000900000000000007667173000000000000009999123100000010000000000000BRAMBVACNPR1153
012013090602AMGN34      010AMGEN       DRN          R$  000000002570600000000257060000000025646000000002570200000000256460000000025310000000002585300002000000000000001800000000000046264800000000000000009999123100000010000000000000BRAMGNBDR004107
012013090602ARTR3       010ARTERIS     ON      NM   R$  000000000183000000000018880000000001799000000000184700000000018800000000001880000000000188303494000000000002789300000000005154522900000000000000009999123100000010000000000000BRARTRACNOR3101
012013090696ARTR3F      020ARTERIS     ON      NM   R$  000000000182800000000018990000000001800000000000185900000000018840000000001889000000000208700176000000000000005792000000000010778594000000000000009999123100000010000000000000BRARTRACNOR3101
012013090662ARTR3T      030ARTERIS     ON      NM017R$  000000000186200000000018630000000001862000000000186200000000018630000000000000000000000000000002000000000000001000000000000001862420000000000000009999123100000010000000000000BRARTRACNOR3101
012013090662ARTR3T      030ARTERIS     ON      NM031R$  000000000186400000000018870000000001862000000000186200000000018870000000000000000000000000000006000000000000023300000000000043407345000000000000009999123100000010000000000000BRARTRACNOR3101
012013090662ARTR3T      030ARTERIS     ON      NM060R$  000000000188200000000018830000000001882000000000188200000000018830000000000000000000000000000002000000000000000900000000000001693863000000000000009999123100000010000000000000BRARTRACNOR3101
012013090662ARTR3T      030ARTERIS     ON      NM090R$  000000000191300000000019140000000001913000000000191300000000019140000000000000000000000000000002000000000000005000000000000009567187000000000000009999123100000010000000000000BRARTRACNOR3101
012013090662ARTR3T      030ARTERIS     ON      NM122R$  000000000192700000000019270000000001927000000000192700000000019270000000000000000000000000000001000000000000000001000000000000001927000000000000009999123100000010000000000000BRARTRACNOR3101
012013090602ARZZ3       010AREZZO CO   ON      NM   R$  000000000346200000000034890000000003401000000000344500000000034630000000003451000000000346300779000000000000128300000000000442094100000000000000009999123100000010000000000000BRARZZACNOR3109
012013090696ARZZ3F      020AREZZO CO   ON      NM   R$  000000000348000000000034800000000003401000000000344500000000034600000000003410000000000347500012000000000000000450000000000001550444000000000000009999123100000010000000000000BRARZZACNOR3109
012013090602AUTM3       010AUTOMETAL   ON      NM   R$  000000000187100000000018750000000001815000000000184400000000018710000000001860000000000187100620000000000000145100000000000267660800000000000000009999123100000010000000000000BRAUTMACNOR8109
012013090696AUTM3F      020AUTOMETAL   ON      NM   R$  000000000183000000000018380000000001715000000000181300000000017150000000001716000000000183000007000000000000000110000000000000199534000000000000009999123100000010000000000000BRAUTMACNOR8109
012013090602AXPB34      010AMERICAN EXPDRN          R$  000000001691400000000169140000000016914000000001691400000000169140000000016643000000001714300001000000000000000200000000000003382800000000000000009999123100000010000000000000BRAXPBBDR007105
012013090602BAHI3       010BAHEMA      ON           R$  000000000049500000000004950000000000495000000000049500000000004950000000000492000000000051900003000000000000003000000000000001485000000000000000009999123100000010000000000000BRBAHIACNOR1066
012013090662BAHI3T      030BAHEMA      ON        060R$  000000000050300000000005040000000000503000000000050300000000005040000000000000000000000000000002000000000000001000000000000000503069000000000000009999123100000010000000000000BRBAHIACNOR1066
012013090602BAZA3       010AMAZONIA    ON           R$  000000000003300000000000330000000000032000000000003200000000000330000000000032000000000003300013000000000000139000000000000004527000000000000000009999123100000010000000000000BRBAZAACNOR0163
012013090696BAZA3F      020AMAZONIA    ON           R$  000000000003500000000000350000000000035000000000003500000000000350000000000032000000000003300001000000000000000020000000000000000700000000000000009999123100000010000000000000BRBAZAACNOR0163
012013090602BBAS3       010BRASIL      ON      NM   R$  000000000236500000000024060000000002351000000000237600000000023750000000002375000000000238117348000000000006961300000000016545657000000000000000009999123100000010000000000000BRBBASACNOR3238
012013090696BBAS3F      020BRASIL      ON      NM   R$  000000000233000000000024050000000002330000000000237800000000023900000000002390000000000239500394000000000000011317000000000026912675000000000000009999123100000010000000000000BRBBASACNOR3238
012013090662BBAS3T      030BRASIL      ON      NM031R$  000000000238100000000023870000000002381000000000238500000000023870000000000000000000000000000004000000000000011000000000000026242242000000000000009999123100000010000000000000BRBBASACNOR3238
012013090662BBAS3T      030BRASIL      ON      NM090R$  000000000242200000000024230000000002422000000000242200000000024230000000000000000000000000000002000000000000000300000000000000726800000000000000009999123100000010000000000000BRBBASACNOR3238
012013090662BBAS3T      030BRASIL      ON      NM122R$  000000000247500000000024750000000002475000000000247500000000024750000000000000000000000000000001000000000000000001000000000000002475000000000000009999123100000010000000000000BRBBASACNOR3238
012013090678BBASB25     070BBAS        ON      NM000R$  000000000016600000000001660000000000153000000000015900000000001530000000000000000000000050000012000000000000030000000000000004787400000000000242202014021700000010000000000000BRBBASACNOR3237
012013090678BBASB26     070BBAS        ON      NM000R$  000000000011900000000001190000000000112000000000011500000000001120000000000000000000000000000010000000000000025000000000000002884000000000000252202014021700000010000000000000BRBBASACNOR3237
012013090678BBASI22     070BBAS  FM    ON      NM000R$  000000000027000000000003090000000000258000000000028200000000002880000000000061000000000000000179000000000000201100000000000056718800000000000209802013091600000010000000000000BRBBASACNOR3236
012013090678BBASI23     070BBAS  FM    ON      NM000R$  000000000017500000000002090000000000169000000000018300000000001900000000000130000000000020900100000000000000127600000000000023443800000000000219802013091600000010000000000000BRBBASACNOR3236
012013090678BBASI24     070BBAS  FM    ON      NM000R$  000000000007800000000001150000000000076000000000009800000000001000000000000082000000000010800215000000000000327300000000000032400200000000000229802013091600000010000000000000BRBBASACNOR3236
012013090678BBASI25     070BBAS  FM    ON      NM000R$  000000000002400000000000450000000000023000000000003400000000000320000000000032000000000003900409000000000000579200000000000019783700000000000238802013091600000010000000000000BRBBASACNOR3235
012013090678BBASI26     070BBAS  FM    ON      NM000R$  000000000000300000000000080000000000003000000000000400000000000050000000000003000000000000700102000000000000190100000000000000936300000000000248802013091600000010000000000000BRBBASACNOR3235
012013090678BBASI27     070BBAS        ON      NM000R$  000000000000100000000000020000000000001000000000000100000000000020000000000001000000000000300006000000000000015700000000000000027700000000000259802013091600000010000000000000BRBBASACNOR3236
012013090678BBASJ22     070BBAS  FM    ON      NM000R$  000000000028100000000003050000000000269000000000028500000000003050000000000200000000000000000029000000000000044900000000000012827300000000000212202013102100000010000000000000BRBBASACNOR3237
012013090678BBASJ23     070BBAS  FM    ON      NM000R$  000000000022400000000002500000000000214000000000023100000000002390000000000000000000000000000053000000000000074100000000000017143000000000000218802013102100000010000000000000BRBBASACNOR3235
012013090678BBASJ24     070BBAS  FM    ON      NM000R$  000000000014000000000001620000000000132000000000014500000000001480000000000100000000000020300063000000000000075200000000000010954700000000000229802013102100000010000000000000BRBBASACNOR3236
012013090678BBASJ25     070BBAS  FM    ON      NM000R$  000000000006800000000000820000000000068000000000007300000000000740000000000031000000000008500067000000000000075700000000000005563400000000000242202013102100000010000000000000BRBBASACNOR3237
012013090678BBASJ26     070BBAS  FM    ON      NM000R$  000000000004300000000000540000000000041000000000004700000000000460000000000025000000000005600062000000000000103100000000000004887400000000000248802013102100000010000000000000BRBBASACNOR3235
012013090678BBASJ27     070BBAS        ON      NM000R$  000000000002000000000000250000000000020000000000002400000000000250000000000010000000000002600005000000000000017200000000000000418000000000000258802013102100000010000000000000BRBBASACNOR3235
012013090678BBASJ28     070BBAS        ON      NM000R$  000000000000900000000000090000000000009000000000000900000000000090000000000007000000000003400001000000000000002000000000000000018000000000000272202013102100000010000000000000BRBBASACNOR3237
012013090678BBASJ56     070BBAS        ON      NM000R$  000000000003100000000000340000000000031000000000003200000000000340000000000000000000000000000176000000000000512100000000000016510300000000000253802013102100000010000000000000BRBBASACNOR3235
012013090678BBASK25     070BBAS        ON      NM000R$  000000000011200000000001120000000000112000000000011200000000001120000000000031000000000000000001000000000000000300000000000000033600000000000239802013111800000010000000000000BRBBASACNOR3236
012013090678BBASK26     070BBAS        ON      NM000R$  000000000006500000000000800000000000065000000000006900000000000800000000000022000000000020000005000000000000006300000000000000435600000000000249802013111800000010000000000000BRBBASACNOR3236
012013090678BBASK27     070BBAS        ON      NM000R$  000000000004100000000000450000000000041000000000004300000000000450000000000016000000000000000003000000000000003600000000000000156000000000000259802013111800000010000000000000BRBBASACNOR3236
012013090682BBASN23     080BBASE       ON      NM000R$  000000000007700000000000770000000000077000000000007700000000000770000000000000000000000000000002000000000000002400000000000000184800000000000222202014021700000010000000000000BRBBASACNOR3237
012013090682BBASO20     080BBASE       ON      NM000R$  000000000004000000000000400000000000040000000000004000000000000400000000000000000000000000000001000000000000001200000000000000048000000000000200002014031700000010000000000000BRBBASACNOR3238
012013090682BBASO22     080BBASE       ON      NM000R$  000000000006300000000000630000000000063000000000006300000000000630000000000000000000000000000001000000000000001200000000000000075600000000000212202014031700000010000000000000BRBBASACNOR3237
012013090682BBASU21     080BBASE FM    ON      NM000R$  000000000000100000000000010000000000001000000000000100000000000010000000000000000000000000000008000000000000029500000000000000029500000000000202202013091600000010000000000000BRBBASACNOR3237
012013090682BBASU22     080BBASE FM    ON      NM000R$  000000000000200000000000020000000000001000000000000100000000000010000000000000000000000000200002000000000000001300000000000000001600000000000209802013091600000010000000000000BRBBASACNOR3236
012013090682BBASU23     080BBASE FM    ON      NM000R$  000000000000400000000000040000000000002000000000000300000000000020000000000001000000000001700014000000000000049600000000000000155700000000000219802013091600000010000000000000BRBBASACNOR3236
012013090682BBASU24     080BBASE FM    ON      NM000R$  000000000001600000000000170000000000008000000000001300000000000090000000000001000000000001500040000000000000119600000000000001612500000000000229802013091600000010000000000000BRBBASACNOR3236
012013090682BBASU25     080BBASE       ON      NM000R$  000000000005100000000000570000000000028000000000003600000000000360000000000025000000000004900028000000000000045200000000000001671100000000000238802013091600000010000000000000BRBBASACNOR3235
012013090682BBASU26     080BBASE       ON      NM000R$  000000000010000000000001000000000000094000000000009800000000000940000000000000000000000000000008000000000000001600000000000000157800000000000248802013091600000010000000000000BRBBASACNOR3235
012013090682BBASV21     080BBASE FM    ON      NM000R$  000000000001200000000000120000000000012000000000001200000000000120000000000000000000000000000001000000000000001200000000000000014400000000000202202013102100000010000000000000BRBBASACNOR3237
012013090682BBASV22     080BBASE FM    ON      NM000R$  000000000002000000000000210000000000015000000000001800000000000150000000000000000000000024700007000000000000008200000000000000155200000000000212202013102100000010000000000000BRBBASACNOR3237
012013090682BBASV23     080BBASE FM    ON      NM000R$  000000000002800000000000290000000000020000000000002400000000000200000000000000000000000002800020000000000000026100000000000000648400000000000218802013102100000010000000000000BRBBASACNOR3235
012013090682BBASV24     080BBASE FM    ON      NM000R$  000000000005400000000000550000000000040000000000004200000000000410000000000000000000000000000021000000000000089200000000000003771800000000000229802013102100000010000000000000BRBBASACNOR3236
012013090682BBASV25     080BBASE       ON      NM000R$  000000000009500000000000950000000000087000000000009300000000000870000000000000000000000009400009000000000000004900000000000000456600000000000242202013102100000010000000000000BRBBASACNOR3237
012013090682BBASX23     080BBASE       ON      NM000R$  000000000006300000000000630000000000063000000000006300000000000630000000000000000000000000000001000000000000000700000000000000044100000000000222202013121600000010000000000000BRBBASACNOR3237
012013090682BBASX25     080BBASE       ON      NM000R$  000000000010100000000001010000000000101000000000010100000000001010000000000000000000000000000001000000000000001200000000000000121200000000000238802013121600000010000000000000BRBBASACNOR3235
012013090602BBDC3       010BRADESCO    ON  EJ  N1   R$  000000000321000000000032950000000003200000000000325000000000032640000000003264000000000326909654000000000002227100000000007238560600000000000000009999123100000010000000000000BRBBDCACNOR1606
012013090696BBDC3F      020BRADESCO    ON  EJ  N1   R$  000000000317300000000033000000000003173000000000324600000000032680000000003258000000000329000049000000000000001191000000000003867268000000000000009999123100000010000000000000BRBBDCACNOR1606
012013090602BBDC4       010BRADESCO    PN  EJ  N1   R$  000000000282500000000028900000000002817000000000285500000000028650000000002865000000000286620128000000000008172900000000023334169900000000000000009999123100000010000000000000BRBBDCACNPR8606
012013090696BBDC4F      020BRADESCO    PN  EJ  N1   R$  000000000281500000000028880000000002813000000000285500000000028700000000002870000000000288800313000000000000008777000000000025064471000000000000009999123100000010000000000000BRBBDCACNPR8606
012013090662BBDC4T      030BRADESCO    PN  EJ  N1017R$  000000000283600000000028910000000002836000000000286100000000028910000000000000000000000000000008000000000000041200000000000117907786000000000000009999123100000010000000000000BRBBDCACNPR8606
012013090662BBDC4T      030BRADESCO    PN  EJ  N1031R$  000000000286900000000028700000000002865000000000286800000000028660000000000000000000000000000004000000000000023000000000000065983199000000000000009999123100000010000000000000BRBBDCACNPR8606
012013090662BBDC4T      030BRADESCO    PN  EJ  N1060R$  000000000292600000000029270000000002926000000000292600000000029270000000000000000000000000000004000000000000000600000000000001756192000000000000009999123100000010000000000000BRBBDCACNPR8606
012013090662BBDC4T      030BRADESCO    PN  EJ  N1122R$  000000000292600000000029750000000002926000000000292800000000029750000000000000000000000000000013000000000000029004000000000084926720000000000000009999123100000010000000000000BRBBDCACNPR8606
012013090678BBDCA32     070BBDC    /EJ PN      N1000R$  000000000006600000000000660000000000066000000000006600000000000660000000000000000000000000000001000000000000001200000000000000079200000000000320002014012000000010000000000000BRBBDCACNPR8606
012013090678BBDCA33     070BBDC    /EJ PN      N1000R$  000000000004200000000000420000000000042000000000004200000000000420000000000000000000000000000001000000000000001200000000000000050400000000000330002014012000000010000000000000BRBBDCACNPR8606
012013090678BBDCA34     070BBDC    /EJ PN      N1000R$  000000000003000000000000340000000000030000000000003000000000000340000000000000000000000000000056000000000000099100000000000003032100000000000339602014012000000010000000000000BRBBDCACNPR8604
012013090678BBDCI27     070BBDC    /EJ PN      N1000R$  000000000016900000000002190000000000155000000000018200000000002190000000000152000000000000000140000000000000239300000000000043666400000000000267602013091600000010000000000000BRBBDCACNPR8602
012013090678BBDCI28     070BBDC    /EJ PN      N1000R$  000000000007800000000001270000000000074000000000009500000000001270000000000060000000000012700123000000000000220000000000000021085400000000000277602013091600000010000000000000BRBBDCACNPR8602
012013090678BBDCI29     070BBDC    /EJ PN      N1000R$  000000000002700000000000510000000000021000000000003800000000000470000000000040000000000005000327000000000000450600000000000017437500000000000287602013091600000010000000000000BRBBDCACNPR8602
012013090678BBDCI30     070BBDC    /EJ PN      N1000R$  000000000000600000000000110000000000006000000000000800000000000090000000000007000000000000900061000000000000137000000000000001152200000000000297602013091600000010000000000000BRBBDCACNPR8602
012013090678BBDCI31     070BBDC    /EJ PN      N1000R$  000000000011000000000001100000000000110000000000011000000000001100000000000050000000000000000001000000000000004000000000000000440000000000000272702013091600000010000000000000BRBBDCACNPR8590
012013090678BBDCI33     070BBDC    /EJ PN      N1000R$  000000000000700000000000110000000000007000000000001000000000000100000000000008000000000001200036000000000000057400000000000000581900000000000297002013091600000010000000000000BRBBDCACNPR8598
012013090678BBDCI58     070BBDC    /EJ PN      N1000R$  000000000003900000000000650000000000039000000000005200000000000650000000000000000000000000000011000000000000018200000000000000959400000000000284802013091600000010000000000000BRBBDCACNPR8605
012013090678BBDCI75     070BBDCE   /EJ PN      N1000R$  000000000006600000000000700000000000054000000000006600000000000700000000000000000000000000000011000000000000024600000000000001640000000000000282102013091600000010000000000000BRBBDCACNPR8604
012013090678BBDCI81     070BBDC    /EJ PN      N1000R$  000000000000200000000000020000000000001000000000000100000000000020000000000000000000000000300024000000000000048000000000000000070800000000000307602013091600000010000000000000BRBBDCACNPR8602
012013090678BBDCJ26     070BBDC    /EJ PN      N1000R$  000000000030300000000003030000000000300000000000030100000000003000000000000000000000000000000002000000000000004200000000000001266300000000000259602013102100000010000000000000BRBBDCACNPR8604
012013090678BBDCJ27     070BBDC    /EJ PN      N1000R$  000000000023600000000002620000000000210000000000023700000000002620000000000000000000000000000208000000000000231400000000000054979700000000000267602013102100000010000000000000BRBBDCACNPR8602
012013090678BBDCJ29     070BBDC    /EJ PN      N1000R$  000000000010000000000001210000000000087000000000010200000000001160000000000090000000000000000062000000000000114300000000000011749800000000000287602013102100000010000000000000BRBBDCACNPR8602
012013090678BBDCJ30     070BBDC    /EJ PN      N1000R$  000000000005200000000000690000000000045000000000006100000000000680000000000060000000000007000293000000000000302900000000000018692900000000000297602013102100000010000000000000BRBBDCACNPR8602
012013090678BBDCJ31     070BBDC    /EJ PN      N1000R$  000000000002700000000000370000000000016000000000003200000000000370000000000012000000000003800140000000000000239600000000000007847100000000000307602013102100000010000000000000BRBBDCACNPR8602
012013090678BBDCJ32     070BBDC    /EJ PN      N1000R$  000000000001300000000000170000000000013000000000001300000000000170000000000017000000000002400003000000000000504800000000000006577100000000000317602013102100000010000000000000BRBBDCACNPR8602
012013090678BBDCJ33     070BBDC    /EJ PN      N1000R$  000000000001100000000000110000000000011000000000001100000000000110000000000000000000000000000001000000000000010000000000000000110000000000000327602013102100000010000000000000BRBBDCACNPR8602
012013090678BBDCJ35     070BBDC    /EJ PN      N1000R$  000000000000300000000000030000000000003000000000000300000000000030000000000000000000000000000001000000000000000500000000000000001500000000000349802013102100000010000000000000BRBBDCACNPR8605
012013090678BBDCJ58     070BBDC    /EJ PN      N1000R$  000000000014900000000001690000000000131000000000015800000000001680000000000092000000000017900143000000000000116200000000000018369400000000000279802013102100000010000000000000BRBBDCACNPR8605
012013090678BBDCK26     070BBDC    /EJ PN      N1000R$  000000000031800000000003180000000000310000000000031300000000003100000000000000000000000000000050000000000000020400000000000006400100000000000259602013111800000010000000000000BRBBDCACNPR8604
012013090678BBDCK28     070BBDC    /EJ PN      N1000R$  000000000018700000000001870000000000183000000000018500000000001840000000000000000000000000000003000000000000004400000000000000814400000000000277602013111800000010000000000000BRBBDCACNPR8602
012013090678BBDCK30     070BBDC    /EJ PN      N1000R$  000000000007400000000000880000000000073000000000007600000000000880000000000000000000000000000008000000000000019300000000000001485400000000000299802013111800000010000000000000BRBBDCACNPR8605
012013090678BBDCK31     070BBDC    /EJ PN      N1000R$  000000000004600000000000510000000000044000000000004700000000000510000000000000000000000000000014000000000000034500000000000001647300000000000309802013111800000010000000000000BRBBDCACNPR8605
012013090678BBDCK32     070BBDC    /EJ PN      N1000R$  000000000003200000000000400000000000032000000000003600000000000400000000000035000000000000000009000000000000026500000000000000966500000000000317402013111800000010000000000000BRBBDCACNPR8601
012013090678BBDCK33     070BBDC    /EJ PN      N1000R$  000000000002300000000000230000000000020000000000002200000000000230000000000000000000000003000005000000000000010100000000000000226900000000000327602013111800000010000000000000BRBBDCACNPR8602
012013090678BBDCK9      070BBDC    /EJ PN      N1000R$  000000000011500000000001220000000000115000000000011900000000001220000000000000000000000000000004000000000000012000000000000001428000000000000289802013111800000010000000000000BRBBDCACNPR8605
012013090678BBDCL29     070BBDC    /EJ PN      N1000R$  000000000014800000000001510000000000140000000000014500000000001460000000000000000000000000000054000000000000128300000000000018682900000000000287602013121600000010000000000000BRBBDCACNPR8602
012013090678BBDCL30     070BBDC    /EJ PN      N1000R$  000000000029400000000002960000000000294000000000029500000000002960000000000230000000000000000002000000000000002700000000000000797200000000000269502013121600000010000000000000BRBBDCACNPR8597
012013090678BBDCL32     070BBDC    /EJ PN      N1000R$  000000000004900000000000510000000000046000000000004900000000000460000000000000000000000000000018000000000000011200000000000000552600000000000317202013121600000010000000000000BRBBDCACNPR8600
012013090678BBDCL33     070BBDC    /EJ PN      N1000R$  000000000010500000000001200000000000103000000000010800000000001190000000000000000000000000000025000000000000042100000000000004574500000000000297002013121600000010000000000000BRBBDCACNPR8598
012013090678BBDCL34     070BBDC    /EJ PN      N1000R$  000000000002100000000000240000000000021000000000002200000000000230000000000002000000000000000031000000000000050500000000000001117600000000000337202013121600000010000000000000BRBBDCACNPR8600
012013090682BBDCM30     080BBDCE   /EJ PN      N1000R$  000000000020200000000002020000000000202000000000020200000000002020000000000000000000000000000001000000000000001200000000000000242400000000000300002014012000000010000000000000BRBBDCACNPR8606
012013090682BBDCN25     080BBDCE   /EJ PN      N1000R$  000000000005600000000000560000000000056000000000005600000000000560000000000000000000000000000001000000000000001200000000000000067200000000000249802014021700000010000000000000BRBBDCACNPR8605
012013090682BBDCN26     080BBDCE   /EJ PN      N1000R$  000000000007300000000000730000000000073000000000007300000000000730000000000000000000000000000001000000000000001200000000000000087600000000000259802014021700000010000000000000BRBBDCACNPR8605
012013090682BBDCN27     080BBDCE   /EJ PN      N1000R$  000000000009600000000000960000000000096000000000009600000000000960000000000000000000000000000002000000000000002200000000000000211200000000000269802014021700000010000000000000BRBBDCACNPR8605
012013090682BBDCU26     080BBDCE   /EJ PN      N1000R$  000000000000200000000000020000000000001000000000000100000000000010000000000000000000000000100029000000000000057200000000000000112200000000000259602013091600000010000000000000BRBBDCACNPR8604
012013090682BBDCU27     080BBDCE   /EJ PN      N1000R$  000000000000400000000000050000000000001000000000000200000000000020000000000000000000000007100020000000000000030700000000000000080400000000000267602013091600000010000000000000BRBBDCACNPR8602
012013090682BBDCU28     080BBDCE   /EJ PN      N1000R$  000000000001800000000000230000000000010000000000001100000000000100000000000000000000000000000064000000000000480800000000000005706900000000000277602013091600000010000000000000BRBBDCACNPR8602
012013090682BBDCU29     080BBDCE   /EJ PN      N1000R$  000000000005100000000000740000000000031000000000004900000000000350000000000029000000000003500082000000000000101000000000000004954300000000000287602013091600000010000000000000BRBBDCACNPR8602
012013090682BBDCU58     080BBDCE   /EJ PN      N1000R$  000000000005500000000000550000000000033000000000004500000000000330000000000000000000000000000002000000000000003400000000000000156200000000000284802013091600000010000000000000BRBBDCACNPR8605
012013090682BBDCU75     080BBDCE   /EJ PN      N1000R$  000000000004300000000000430000000000043000000000004300000000000430000000000000000000000000000001000000000000002000000000000000086000000000000282102013091600000010000000000000BRBBDCACNPR8604
012013090682BBDCV24     080BBDCE   /EJ PN      N1000R$  000000000000600000000000070000000000006000000000000600000000000070000000000000000000000000000002000000000000500000000000000003175000000000000239602013102100000010000000000000BRBBDCACNPR8604
012013090682BBDCV25     080BBDCE   /EJ PN      N1000R$  000000000001000000000000100000000000010000000000001000000000000100000000000000000000000000000002000000000000004200000000000000042000000000000249402013102100000010000000000000BRBBDCACNPR8603
012013090682BBDCV26     080BBDCE   /EJ PN      N1000R$  000000000002200000000000240000000000016000000000002100000000000160000000000000000000000000000010000000000000515800000000000011327300000000000259602013102100000010000000000000BRBBDCACNPR8604
012013090682BBDCV27     080BBDCE   /EJ PN      N1000R$  000000000003400000000000350000000000027000000000003000000000000270000000000000000000000000000016000000000000026700000000000000815100000000000267602013102100000010000000000000BRBBDCACNPR8602
012013090682BBDCV29     080BBDCE   /EJ PN      N1000R$  000000000010700000000001150000000000081000000000009900000000000810000000000000000000000000000034000000000000058800000000000005870600000000000287602013102100000010000000000000BRBBDCACNPR8602
012013090682BBDCV30     080BBDCE   /EJ PN      N1000R$  000000000017700000000001770000000000141000000000015900000000001410000000000000000000000015600004000000000000005000000000000000795000000000000297602013102100000010000000000000BRBBDCACNPR8602
012013090682BBDCV58     080BBDCE   /EJ PN      N1000R$  000000000006500000000000790000000000055000000000006300000000000550000000000000000000000000000040000000000000097300000000000006133300000000000279802013102100000010000000000000BRBBDCACNPR8605
012013090682BBDCW25     080BBDCE   /EJ PN      N1000R$  000000000002300000000000230000000000023000000000002300000000000230000000000000000000000000000006000000000000004800000000000000110400000000000249602013111800000010000000000000BRBBDCACNPR8604
012013090682BBDCW27     080BBDCE   /EJ PN      N1000R$  000000000006300000000000630000000000063000000000006300000000000630000000000000000000000000000010000000000000012600000000000000793800000000000269402013111800000010000000000000BRBBDCACNPR8603
012013090682BBDCW28     080BBDCE   /EJ PN      N1000R$  000000000007900000000000790000000000069000000000007100000000000690000000000000000000000000000004000000000000006200000000000000441800000000000277602013111800000010000000000000BRBBDCACNPR8602
012013090682BBDCW30     080BBDCE   /EJ PN      N1000R$  000000000020800000000002080000000000164000000000017500000000001640000000000000000000000000000006000000000000012000000000000002102000000000000299802013111800000010000000000000BRBBDCACNPR8605
012013090682BBDCW31     080BBDCE   /EJ PN      N1000R$  000000000024700000000002470000000000247000000000024700000000002470000000000000000000000000000001000000000000002000000000000000494000000000000309802013111800000010000000000000BRBBDCACNPR8605
012013090682BBDCW8      080BBDCE   /EJ PN      N1000R$  000000000001900000000000190000000000019000000000001900000000000190000000000000000000000000000001000000000000001200000000000000022800000000000245802013111800000010000000000000BRBBDCACNPR8592
012013090682BBDCW9      080BBDCE   /EJ PN      N1000R$  000000000014900000000001490000000000119000000000012900000000001190000000000000000000000000000003000000000000004600000000000000593400000000000289802013111800000010000000000000BRBBDCACNPR8605
012013090682BBDCX27     080BBDCE   /EJ PN      N1000R$  000000000007300000000000730000000000066000000000006900000000000660000000000000000000000000000002000000000000002400000000000000166800000000000269602013121600000010000000000000BRBBDCACNPR8604
012013090682BBDCX28     080BBDCE   /EJ PN      N1000R$  000000000010100000000001010000000000101000000000010100000000001010000000000000000000000000000001000000000000001200000000000000121200000000000279602013121600000010000000000000BRBBDCACNPR8604
012013090682BBDCX30     080BBDCE   /EJ PN      N1000R$  000000000007500000000000750000000000074000000000007400000000000740000000000000000000000000000002000000000000002400000000000000178800000000000269502013121600000010000000000000BRBBDCACNPR8597
012013090682BBDCX31     080BBDCE   /EJ PN      N1000R$  000000000009300000000000930000000000071000000000007200000000000710000000000000000000000000000005000000000000353600000000000025470500000000000278602013121600000010000000000000BRBBDCACNPR8597
012013090682BBDCX57     080BBDCE   /EJ PN      N1000R$  000000000008800000000000880000000000088000000000008800000000000880000000000000000000000000000001000000000000001200000000000000105600000000000275202013121600000010000000000000BRBBDCACNPR8600
012013090682BBDCX66     080BBDCE   /EJ PN      N1000R$  000000000005000000000000500000000000044000000000004700000000000440000000000000000000000000000002000000000000002400000000000000112800000000000259602013121600000010000000000000BRBBDCACNPR8604
012013090612BBFI11B     010FII BB PROGRCI  ER  MB   R$  000000042500000000004250000000000425000000000042500000000004250000000000425100000000042990000006000000000000000012000000000005100000000000000000009999123100000010000000000000BRBBFICTF006198
012013090612BBPO11      010FII BB PRGIICI  ER       R$  000000001095400000000110000000000010945000000001097900000000109790000000010967000000001097900127000000000000015183000000000166704033000000000000009999123100000010000000000000BRBBPOCTF003110
012013090612BBRC11      010FII BB CORP CI  ER       R$  000000000894000000000091900000000008940000000000894600000000091900000000009000000000000919000012000000000000001507000000000013482089000000000000009999123100000010000000000000BRBBRCCTF004124
012013090602BBRK3       010BR BROKERS  ON      NM   R$  000000000057500000000006010000000000563000000000058000000000005860000000000586000000000058801413000000000000666900000000000387279700000000000000009999123100000010000000000000BRBBRKACNOR4108
012013090696BBRK3F      020BR BROKERS  ON      NM   R$  000000000055100000000005630000000000550000000000056100000000005630000000000531000000000060600003000000000000000059000000000000033142000000000000009999123100000010000000000000BRBBRKACNOR4108
012013090602BBSE3       010BBSEGURIDADEON      NM   R$  000000000195000000000019980000000001947000000000197100000000019900000000001990000000000199111092000000000007978400000000015729196300000000000000009999123100000010000000000000BRBBSEACNOR5101
012013090696BBSE3F      020BBSEGURIDADEON      NM   R$  000000000194000000000019970000000001940000000000197100000000019900000000001981000000000199001697000000000000056499000000000111398841000000000000009999123100000010000000000000BRBBSEACNOR5101
012013090662BBSE3T      030BBSEGURIDADEON      NM017R$  000000000197400000000019750000000001974000000000197400000000019750000000000000000000000000000002000000000000000300000000000000592460000000000000009999123100000010000000000000BRBBSEACNOR5101
012013090662BBSE3T      030BBSEGURIDADEON      NM031R$  000000000200300000000020040000000002003000000000200300000000020040000000000000000000000000000002000000000000001700000000000003406681000000000000009999123100000010000000000000BRBBSEACNOR5101
012013090682BBSEU20     080BBSEE       ON      NM000R$  000000000004600000000000470000000000046000000000004600000000000470000000000000000000000000000002000000000000800000000000000037440000000000000195902013091600000010000000000000BRBBSEACNOR5100
012013090682BBSEU49     080BBSEE       ON      NM000R$  000000000003000000000000300000000000030000000000003000000000000300000000000000000000000000000002000000000000800000000000000024000000000000000190902013091600000010000000000000BRBBSEACNOR5100
012013090602BBTG11      010BTG PACTUAL UNT          R$  000000000281200000000029830000000002812000000000293400000000029500000000002950000000000296000683000000000000314300000000000922352800000000000000009999123100000010000000000000BRBBTGUNT007105
012013090696BBTG11F     020BTG PACTUAL UNT          R$  000000000299000000000029900000000002751000000000289700000000029400000000002850000000000294500013000000000000000262000000000000759140000000000000009999123100000010000000000000BRBBTGUNT007105
012013090612BBVJ11      010FII C JARDIMCI  ER       R$  000000000743600000000074980000000007435000000000743700000000074980000000007435000000000749800014000000000000001439000000000010703153000000000000009999123100000010000000000000BRBBVJCTF001133
012013090612BCFF11B     010FII BC FFII CI      MB   R$  000000000890000000000089000000000008650000000000881500000000088300000000008825000000000883000093000000000000009862000000000086937927000000000000009999123100000010000000000000BRBCFFCTF000141
012013090602BDLL4       010BARDELLA    PN           R$  000000000566900000000056690000000005669000000000566900000000056690000000005210000000000566700001000000000000000100000000000000566900000000000000009999123100000010000000000000BRBDLLACNPR8149
012013090602BEEF3       010MINERVA     ON      NM   R$  000000000111900000000011300000000001098000000000110200000000011000000000001100000000000110202016000000000000634900000000000700110800000000000000009999123100000010000000000000BRBEEFACNOR6104
012013090696BEEF3F      020MINERVA     ON      NM   R$  000000000114900000000011490000000001070000000000109900000000011010000000001071000000000115000010000000000000000358000000000000394388000000000000009999123100000010000000000000BRBEEFACNOR6104
012013090602BEES3       010BANESTES    ON  EJ       R$  000000000004700000000000480000000000047000000000004700000000000480000000000048000000000004900003000000000000003900000000000000185200000000000000009999123100000010000000000000BRBEESACNOR9244
012013090602BEES4       010BANESTES    PN  EJ       R$  000000000004500000000000450000000000044000000000004400000000000450000000000044000000000004500007000000000000059100000000000002618500000000000000009999123100000010000000000000BRBEESACNPR6169
012013090602BEMA3       010BEMATECH    ON      NM   R$  000000000075000000000007570000000000739000000000074800000000007530000000000752000000000075300165000000000000074800000000000056010600000000000000009999123100000010000000000000BRBEMAACNOR0114
012013090696BEMA3F      020BEMATECH    ON      NM   R$  000000000077000000000007700000000000770000000000077000000000007700000000000770000000000080000002000000000000000100000000000000077000000000000000009999123100000010000000000000BRBEMAACNOR0114
012013090602BGIP4       010BANESE      PN           R$  000000000430000000000043300000000004300000000000431500000000043300000000004330000000000450000002000000000000000200000000000000863000000000000000009999123100000010000000000000BRBGIPACNPR8179
012013090696BGIP4F      020BANESE      PN           R$  000000000455000000000045500000000004550000000000455000000000045500000000004355000000000480000001000000000000000027000000000000122850000000000000009999123100000010000000000000BRBGIPACNPR8179
012013090602BHGR3       010BHG         ON      NM   R$  000000000146200000000014620000000001446000000000145100000000014600000000001450000000000146000083000000000000093300000000000135467600000000000000009999123100000010000000000000BRBHGRACNOR9101
012013090602BICB4       010BICBANCO    PN      N1   R$  000000000041900000000004280000000000414000000000041900000000004140000000000414000000000041700100000000000000066700000000000027947900000000000000009999123100000010000000000000BRBICBACNPR7131
012013090696BICB4F      020BICBANCO    PN      N1   R$  000000000042000000000004200000000000400000000000041000000000004000000000000416000000000042700005000000000000000095000000000000039030000000000000009999123100000010000000000000BRBICBACNPR7131
012013090602BIOM3       010BIOMM       ON           R$  000000000090600000000009150000000000905000000000090800000000009150000000000910000000000093000003000000000000003000000000000002726000000000000000009999123100000010000000000000BRBIOMACNOR2101
012013090696BIOM3F      020BIOMM       ON           R$  000000000090300000000009030000000000903000000000090300000000009030000000000820000000000090300005000000000000001252000000000001130556000000000000009999123100000010000000000000BRBIOMACNOR2101
012013090602BISA3       010BROOKFIELD  ON      NM   R$  000000000019600000000001990000000000192000000000019600000000001980000000000197000000000019805752000000000010193000000000002005320600000000000000009999123100000010000000000000BRBISAACNOR8109
012013090696BISA3F      020BROOKFIELD  ON      NM   R$  000000000019100000000001980000000000191000000000019500000000001950000000000195000000000019700034000000000000000980000000000000191505000000000000009999123100000010000000000000BRBISAACNOR8109
012013090662BISA3S      030BROOKFIELD  ON      NM031R$  000000000019600000000001970000000000196000000000019600000000001970000000000000000000000000000004000000000000065000000000000012773865000000000000009999123100000010000000000000BRBISAACNOR8109
012013090662BISA3T      030BROOKFIELD  ON      NM122R$  000000000020100000000002030000000000201000000000020100000000002030000000000000000000000000000005000000000000042050000000000008469157000000000000009999123100000010000000000000BRBISAACNOR8109
012013090602BMEB4       010MERC BRASIL PN           R$  000000000111500000000011150000000001115000000000111500000000011150000000001100000000000111500001000000000000000200000000000000223000000000000000009999123100000010000000000000BRBMEBACNPR5191
012013090602BMIN4       010MERC INVEST PN           R$  000000000002400000000000240000000000023000000000002300000000000230000000000023000000000002400012000000000000174000000000000004005000000000000000009999123100000010000000000000BRBMINACNPR1160
012013090696BMIN4F      020MERC INVEST PN           R$  000000000002300000000000230000000000022000000000002200000000000220000000000023000000000002700004000000000000001000000000000000022900000000000000009999123100000010000000000000BRBMINACNPR1160
012013090612BMLC11B     010FII BMBRC LCCI      MB   R$  000000001120000000000112900000000011100000000001112800000000112000000000011055000000001125000006000000000000002430000000000027041180000000000000009999123100000010000000000000BRBMLCCTF004118
012013090602BMTO4       010BRASMOTOR   PN           R$  000000000008600000000000870000000000085000000000008500000000000870000000000085000000000008600007000000000000010000000000000000857000000000000000009999123100000010000000000000BRBMTOACNPR6065
012013090602BOAC34      010BANK AMERICADRN ED       R$  000000000333000000000033300000000003330000000000333000000000033300000000003275000000000333500001000000000000016300000000000054279000000000000000009999123100000010000000000000BRBOACBDR004112
012013090602BOBR4       010BOMBRIL     PN           R$  000000000066000000000006600000000000660000000000066000000000006600000000000655000000000066000003000000000000002400000000000001584000000000000000009999123100000010000000000000BRBOBRACNPR3127
012013090602BOEI34      010BOEING      DRN          R$  000000002450000000000245730000000024500000000002450300000000245730000000024071000000002479400003000000000000002400000000000058807300000000000000009999123100000010000000000000BRBOEIBDR003106
012013090614BOVA11      010ISHARES BOVACI           R$  000000000515200000000052880000000005152000000000522400000000052880000000005240000000000528804440000000000003303460000000017259896370000000000000009999123100000010000000000000BRBOVACTF003101
012013090696BOVA11F     020ISHARES BOVACI           R$  000000000490000000000052230000000004900000000000516800000000052200000000005131000000000532000034000000000000000106000000000000547895000000000000009999123100000010000000000000BRBOVACTF003101
012013090662BOVA11T     030ISHARES BOVACI        017R$  000000000522000000000052210000000005220000000000522000000000052210000000000000000000000000000004000000000000005000000000000026101400000000000000009999123100000010000000000000BRBOVACTF003101
012013090612BPFF11      010FII ABSOLUTOCI  ER       R$  000000000847500000000085000000000008450000000000846000000000084990000000008451000000000849900013000000000000000516000000000004365390000000000000009999123100000010000000000000BRBPFFCTF002105
012013090602BPHA3       010BR PHARMA   ON      NM   R$  000000000088000000000008800000000000850000000000086100000000008550000000000855000000000086001118000000000001827600000000001574795500000000000000009999123100000010000000000000BRBPHAACNOR6102
012013090696BPHA3F      020BR PHARMA   ON      NM   R$  000000000087000000000008700000000000838000000000085900000000008380000000000837000000000087900006000000000000000049000000000000042108000000000000009999123100000010000000000000BRBPHAACNOR6102
012013090602BPNM4       010PANAMERICANOPN      N1   R$  000000000051400000000005220000000000510000000000051700000000005200000000000516000000000052000215000000000000261900000000000135590900000000000000009999123100000010000000000000BRBPNMACNPR6111
012013090696BPNM4F      020PANAMERICANOPN      N1   R$  000000000051200000000005160000000000512000000000051400000000005160000000000500000000000055900003000000000000000177000000000000091024000000000000009999123100000010000000000000BRBPNMACNPR6111
012013090662BPNM4T      030PANAMERICANOPN      N1360R$  000000000057400000000005750000000000574000000000057400000000005750000000000000000000000000000002000000000000001000000000000000574080000000000000009999123100000010000000000000BRBPNMACNPR6111
012013090602BRAP3       010BRADESPAR   ON      N1   R$  000000000207800000000020900000000002025000000000207000000000020250000000002025000000000209000021000000000000006800000000000014077400000000000000009999123100000010000000000000BRBRAPACNOR5124
012013090696BRAP3F      020BRADESPAR   ON      N1   R$  000000000206500000000020800000000002056000000000206900000000020560000000002057000000000209500008000000000000000209000000000000432535000000000000009999123100000010000000000000BRBRAPACNOR5124
012013090602BRAP4       010BRADESPAR   PN      N1   R$  000000000258500000000025850000000002507000000000253100000000025200000000002520000000000252408921000000000001747500000000004424342700000000000000009999123100000010000000000000BRBRAPACNPR2124
012013090696BRAP4F      020BRADESPAR   PN      N1   R$  000000000256000000000025620000000002500000000000253500000000025000000000002500000000000257000029000000000000000763000000000001932903000000000000009999123100000010000000000000BRBRAPACNPR2124
012013090662BRAP4T      030BRADESPAR   PN      N1017R$  000000000252900000000025300000000002529000000000252900000000025300000000000000000000000000000002000000000000000500000000000001264914000000000000009999123100000010000000000000BRBRAPACNPR2124
012013090678BRAPL30     070BRAP        PN      N1000R$  000000000003400000000000340000000000034000000000003400000000000340000000000000000000000000000002000000000000365000000000000012410000000000000300002013121600000010000000000000BRBRAPACNPR2124
012013090682BRAPX22     080BRAPE       PN      N1000R$  000000000004500000000000450000000000045000000000004500000000000450000000000000000000000000000001000000000000365000000000000016425000000000000220002013121600000010000000000000BRBRAPACNPR2124
012013090682BRAPX24     080BRAPE       PN      N1000R$  000000000008800000000000880000000000088000000000008800000000000880000000000000000000000000000001000000000000365000000000000032120000000000000240002013121600000010000000000000BRBRAPACNPR2124
012013090614BRAX11      010ISHARES BRAXCI           R$  000000000415000000000041500000000004150000000000415000000000041500000000000000000000000415000001000000000000000010000000000000041500000000000000009999123100000010000000000000BRBRAXCTF002100
012013090612BRCR11      010FII BC FUND CI           R$  000000001262100000000126990000000012502000000001257700000000126000000000012600000000001264900330000000000000025105000000000315764304000000000000009999123100000010000000000000BRBRCRCTF000132
012013090602BRFS3       010BRF SA      ON      NM   R$  000000000562000000000056990000000005593000000000566700000000056490000000005649000000000565008470000000000001821300000000010321394000000000000000009999123100000010000000000000BRBRFSACNOR8110
012013090696BRFS3F      020BRF SA      ON      NM   R$  000000000555000000000056970000000005550000000000566000000000056670000000005684000000000569100110000000000000003139000000000017766956000000000000009999123100000010000000000000BRBRFSACNOR8110
012013090662BRFS3T      030BRF SA      ON      NM031R$  000000000572000000000057210000000005720000000000572000000000057210000000000000000000000000000002000000000000000200000000000001144029000000000000009999123100000010000000000000BRBRFSACNOR8110
012013090678BRFSI57     070BRFS        ON      NM000R$  000000000003200000000000320000000000032000000000003200000000000320000000000000000000000008500003000000000000000700000000000000022400000000000570002013091600000010000000000000BRBRFSACNOR8110
012013090678BRFSK62     070BRFS        ON      NM000R$  000000000007000000000000700000000000070000000000007000000000000700000000000000000000000000000001000000000000013000000000000000910000000000000620002013111800000010000000000000BRBRFSACNOR8110
012013090602BRIN3       010BR INSURANCEON      NM   R$  000000000192300000000019380000000001895000000000190600000000019000000000001899000000000190000801000000000000277400000000000528912700000000000000009999123100000010000000000000BRBRINACNOR3106
012013090696BRIN3F      020BR INSURANCEON      NM   R$  000000000193400000000019350000000001890000000000190900000000018980000000001897000000000193400028000000000000000673000000000001285024000000000000009999123100000010000000000000BRBRINACNOR3106
012013090602BRIV4       010ALFA INVEST PN           R$  000000000060500000000006050000000000605000000000060500000000006050000000000563000000000059900001000000000000004200000000000002541000000000000000009999123100000010000000000000BRBRIVACNPR3197
012013090696BRIV4F      020ALFA INVEST PN           R$  000000000059000000000005900000000000590000000000059000000000005900000000000536000000000060400001000000000000000020000000000000011800000000000000009999123100000010000000000000BRBRIVACNPR3197
012013090602BRKM3       010BRASKEM     ON      N1   R$  000000000126600000000012670000000001266000000000126600000000012670000000001240000000000126700005000000000000019800000000000025067100000000000000009999123100000010000000000000BRBRKMACNOR1110
012013090602BRKM5       010BRASKEM     PNA     N1   R$  000000000184800000000018480000000001820000000000183200000000018330000000001833000000000183407170000000000001881700000000003448818100000000000000009999123100000010000000000000BRBRKMACNPA4110
012013090696BRKM5F      020BRASKEM     PNA     N1   R$  000000000182600000000018380000000001822000000000182900000000018350000000001820000000000183500027000000000000000576000000000001053635000000000000009999123100000010000000000000BRBRKMACNPA4110
012013090662BRKM5T      030BRASKEM     PNA     N1122R$  000000000189100000000018910000000001891000000000189100000000018910000000000000000000000000000001000000000000000009000000000000017019000000000000009999123100000010000000000000BRBRKMACNPA4110
012013090678BRKMA19     070BRKM        PNA     N1000R$  000000000012400000000001240000000000124000000000012400000000001240000000000000000000000000000001000000000000047800000000000005927200000000000190002014012000000010000000000000BRBRKMACNPA4110
012013090678BRKMA21     070BRKM        PNA     N1000R$  000000000004800000000000480000000000048000000000004800000000000480000000000000000000000000000001000000000000047800000000000002294400000000000210002014012000000010000000000000BRBRKMACNPA4110
012013090682BRKMM17     080BRKME       PNA     N1000R$  000000000006900000000000690000000000069000000000006900000000000690000000000000000000000000000001000000000000047800000000000003298200000000000170002014012000000010000000000000BRBRKMACNPA4110
012013090602BRML3       010BR MALLS PARON      NM   R$  000000000188900000000019040000000001878000000000188800000000018890000000001888000000000189111855000000000003895700000000007355124100000000000000009999123100000010000000000000BRBRMLACNOR9105
012013090696BRML3F      020BR MALLS PARON      NM   R$  000000000187000000000019030000000001870000000000188500000000019030000000001880000000000192000039000000000000001110000000000002093393000000000000009999123100000010000000000000BRBRMLACNOR9105
012013090662BRML3T      030BR MALLS PARON      NM031R$  000000000189400000000018950000000001894000000000189400000000018950000000000000000000000000000002000000000000001000000000000001894798000000000000009999123100000010000000000000BRBRMLACNOR9105
012013090602BRPR3       010BR PROPERT  ON      NM   R$  000000000181400000000018360000000001805000000000182200000000018270000000001824000000000182809269000000000002691000000000004904299100000000000000009999123100000010000000000000BRBRPRACNOR9112
012013090696BRPR3F      020BR PROPERT  ON      NM   R$  000000000181500000000018400000000001780000000000182100000000017800000000001780000000000185000020000000000000000456000000000000830429000000000000009999123100000010000000000000BRBRPRACNOR9112
012013090602BRSR6       010BANRISUL    PNB EJ  N1   R$  000000000147600000000015020000000001467000000000148500000000014820000000001482000000000149104657000000000001228300000000001824905600000000000000009999123100000010000000000000BRBRSRACNPB4134
012013090696BRSR6F      020BANRISUL    PNB EJ  N1   R$  000000000148200000000015300000000001470000000000148500000000014790000000001460000000000149800023000000000000000925000000000001374548000000000000009999123100000010000000000000BRBRSRACNPB4134
012013090662BRSR6T      030BANRISUL    PNB EJ  N1090R$  000000000152200000000015230000000001522000000000152200000000015230000000000000000000000000000002000000000000010000000000000015225860000000000000009999123100000010000000000000BRBRSRACNPB4134
012013090602BSEV3       010BIOSEV      ON      NM   R$  000000000094700000000009560000000000920000000000094900000000009560000000000938000000000095600019000000000000014000000000000013297700000000000000009999123100000010000000000000BRBSEVACNOR3100
012013090602BSLI3       010BRB BANCO   ON           R$  000000000290000000000029000000000002900000000000290000000000029000000000002900000000000000000001000000000000000600000000000001740000000000000000009999123100000010000000000000BRBSLIACNOR5147
012013090602BTOW3       010B2W DIGITAL ON      NM   R$  000000000151500000000015440000000001490000000000152300000000015310000000001531000000000154302235000000000000401400000000000611382800000000000000009999123100000010000000000000BRBTOWACNOR8105
012013090696BTOW3F      020B2W DIGITAL ON      NM   R$  000000000152000000000015420000000001486000000000151300000000014860000000001486000000000154100044000000000000001069000000000001618248000000000000009999123100000010000000000000BRBTOWACNOR8105
012013090662BTOW3T      030B2W DIGITAL ON      NM122R$  000000000158900000000015890000000001589000000000158900000000015890000000000000000000000000000001000000000000000001000000000000001589000000000000009999123100000010000000000000BRBTOWACNOR8105
012013090602BTTL4       010BATTISTELLA PN           R$  000000000010500000000001050000000000098000000000009900000000000980000000000098000000000010300031000000000000103200000000000010310900000000000000009999123100000010000000000000BRBTTLACNPR7105
012013090602BVMF3       010BMFBOVESPA  ON      NM   R$  000000000123200000000012550000000001225000000000124300000000012550000000001253000000000125521784000000000012217700000000015188132800000000000000009999123100000010000000000000BRBVMFACNOR3126
012013090696BVMF3F      020BMFBOVESPA  ON      NM   R$  000000000122300000000012500000000001223000000000123900000000012500000000001226000000000125000145000000000000004725000000000005858668000000000000009999123100000010000000000000BRBVMFACNOR3126
012013090662BVMF3T      030BMFBOVESPA  ON      NM090R$  000000000127300000000012740000000001273000000000127300000000012740000000000000000000000000000002000000000000001000000000000001273459000000000000009999123100000010000000000000BRBVMFACNOR3126
012013090678BVMFA12     070BVMF        ON      NM000R$  000000000012200000000001250000000000122000000000012200000000001220000000000000000000000000000004000000000000002500000000000000306500000000000120002014012000000010000000000000BRBVMFACNOR3126
012013090678BVMFI10     070BVMF        ON      NM000R$  000000000024400000000002650000000000244000000000026000000000002640000000000160000000000000000018000000000000013800000000000003590600000000000098502013091600000010000000000000BRBVMFACNOR3125
012013090678BVMFI11     070BVMF        ON      NM000R$  000000000013500000000001660000000000135000000000015600000000001650000000000000000000000000000061000000000000072000000000000011273900000000000108502013091600000010000000000000BRBVMFACNOR3125
012013090678BVMFI12     070BVMF  FM    ON      NM000R$  000000000005000000000000740000000000050000000000006500000000000740000000000068000000000007400220000000000000332400000000000021807800000000000118502013091600000010000000000000BRBVMFACNOR3125
012013090678BVMFI13     070BVMF  FM    ON      NM000R$  000000000000600000000000090000000000005000000000000600000000000090000000000009000000000001000216000000000000896900000000000006000600000000000128502013091600000010000000000000BRBVMFACNOR3125
012013090678BVMFI14     070BVMF        ON      NM000R$  000000000000100000000000010000000000001000000000000100000000000010000000000001000000000000200013000000000000088800000000000000088800000000000138502013091600000010000000000000BRBVMFACNOR3125
012013090678BVMFI40     070BVMF        ON      NM000R$  000000000020600000000002150000000000194000000000020800000000002070000000000000000000000000000024000000000000017900000000000003737000000000000103502013091600000010000000000000BRBVMFACNOR3125
012013090678BVMFI41     070BVMF  FM    ON      NM000R$  000000000010600000000001180000000000103000000000011200000000001150000000000000000000000000000052000000000000090400000000000010190100000000000113502013091600000010000000000000BRBVMFACNOR3125
012013090678BVMFI42     070BVMF  FM    ON      NM000R$  000000000002600000000000330000000000023000000000002800000000000330000000000005000000000003500397000000000000500100000000000014065000000000000123502013091600000010000000000000BRBVMFACNOR3125
012013090678BVMFI43     070BVMF  FM    ON      NM000R$  000000000000200000000000020000000000002000000000000200000000000020000000000000000000000000300002000000000000005000000000000000010000000000000133502013091600000010000000000000BRBVMFACNOR3125
012013090678BVMFJ11     070BVMF        ON      NM000R$  000000000017300000000001820000000000173000000000017800000000001820000000000000000000000000000008000000000000010800000000000001930700000000000108502013102100000010000000000000BRBVMFACNOR3125
012013090678BVMFJ12     070BVMF  FM    ON      NM000R$  000000000009000000000001010000000000085000000000009200000000001010000000000011000000000011000048000000000000113500000000000010507700000000000118502013102100000010000000000000BRBVMFACNOR3125
012013090678BVMFJ13     070BVMF  FM    ON      NM000R$  000000000003400000000000400000000000030000000000003500000000000400000000000030000000000004000280000000000000588200000000000020813800000000000128502013102100000010000000000000BRBVMFACNOR3125
012013090678BVMFJ14     070BVMF        ON      NM000R$  000000000000700000000000110000000000007000000000000700000000000110000000000003000000000001100007000000000000020400000000000000162400000000000138502013102100000010000000000000BRBVMFACNOR3125
012013090678BVMFJ15     070BVMF        ON      NM000R$  000000000000200000000000020000000000002000000000000200000000000020000000000001000000000000200001000000000000003000000000000000006000000000000148502013102100000010000000000000BRBVMFACNOR3125
012013090678BVMFJ41     070BVMF  FM    ON      NM000R$  000000000012900000000001410000000000129000000000013400000000001390000000000000000000000000000031000000000000078500000000000010519100000000000113502013102100000010000000000000BRBVMFACNOR3125
012013090678BVMFJ42     070BVMF  FM    ON      NM000R$  000000000005700000000000650000000000052000000000005900000000000620000000000000000000000123500044000000000000101600000000000006025500000000000123502013102100000010000000000000BRBVMFACNOR3125
012013090678BVMFJ43     070BVMF  FM    ON      NM000R$  000000000001900000000000200000000000017000000000001800000000000190000000000000000000000000000069000000000000148700000000000002729600000000000133502013102100000010000000000000BRBVMFACNOR3125
012013090678BVMFK12     070BVMF        ON      NM000R$  000000000011100000000001170000000000107000000000011200000000001150000000000000000000000015000007000000000000004000000000000000448400000000000118502013111800000010000000000000BRBVMFACNOR3125
012013090678BVMFK13     070BVMF        ON      NM000R$  000000000004600000000000460000000000046000000000004600000000000460000000000000000000000000000001000000000000000600000000000000027600000000000128502013111800000010000000000000BRBVMFACNOR3125
012013090678BVMFK14     070BVMF        ON      NM000R$  000000000001400000000000170000000000009000000000001400000000000170000000000005000000000001700214000000000000494500000000000007089000000000000138502013111800000010000000000000BRBVMFACNOR3125
012013090678BVMFK43     070BVMF        ON      NM000R$  000000000002700000000000270000000000024000000000002600000000000270000000000006000000000000000011000000000000018100000000000000483300000000000135002013111800000010000000000000BRBVMFACNOR3126
012013090678BVMFL13     070BVMF        ON      NM000R$  000000000006500000000000680000000000065000000000006500000000000670000000000000000000000000000003000000000000002700000000000000177700000000000128502013121600000010000000000000BRBVMFACNOR3125
012013090682BVMFM12     080BVMFE       ON      NM000R$  000000000005400000000000540000000000054000000000005400000000000540000000000000000000000000000001000000000000002000000000000000108000000000000120002014012000000010000000000000BRBVMFACNOR3126
012013090682BVMFU11     080BVMFE FM    ON      NM000R$  000000000000200000000000020000000000001000000000000100000000000010000000000001000000000000200022000000000000094900000000000000098400000000000108502013091600000010000000000000BRBVMFACNOR3125
012013090682BVMFU12     080BVMFE FM    ON      NM000R$  000000000000900000000000100000000000006000000000000700000000000060000000000006000000000000800093000000000000215200000000000001640800000000000118502013091600000010000000000000BRBVMFACNOR3125
012013090682BVMFU13     080BVMFE       ON      NM000R$  000000000004800000000000530000000000040000000000004600000000000400000000000000000000000000000020000000000000019300000000000000906400000000000128502013091600000010000000000000BRBVMFACNOR3125
012013090682BVMFU41     080BVMFE FM    ON      NM000R$  000000000000400000000000040000000000003000000000000300000000000030000000000001000000000000000002000000000000000200000000000000000700000000000113502013091600000010000000000000BRBVMFACNOR3125
012013090682BVMFU42     080BVMFE FM    ON      NM000R$  000000000002000000000000270000000000018000000000002000000000000180000000000000000000000001700016000000000000059800000000000001233900000000000123502013091600000010000000000000BRBVMFACNOR3125
012013090682BVMFV11     080BVMFE FM    ON      NM000R$  000000000001000000000000110000000000009000000000001000000000000100000000000000000000000001800009000000000000026200000000000000269300000000000108502013102100000010000000000000BRBVMFACNOR3125
012013090682BVMFV12     080BVMFE FM    ON      NM000R$  000000000002900000000000320000000000026000000000002800000000000260000000000025000000000003100030000000000000071500000000000002049100000000000118502013102100000010000000000000BRBVMFACNOR3125
012013090682BVMFV13     080BVMFE       ON      NM000R$  000000000007000000000000700000000000063000000000006700000000000630000000000062000000000007500054000000000000014900000000000001003100000000000128502013102100000010000000000000BRBVMFACNOR3125
012013090682BVMFV40     080BVMFE       ON      NM000R$  000000000000800000000000080000000000007000000000000700000000000070000000000000000000000000000009000000000000023700000000000000184400000000000103502013102100000010000000000000BRBVMFACNOR3125
012013090682BVMFV41     080BVMFE FM    ON      NM000R$  000000000001900000000000190000000000016000000000001700000000000160000000000000000000000000000034000000000000068500000000000001171600000000000113502013102100000010000000000000BRBVMFACNOR3125
012013090682BVMFV42     080BVMFE FM    ON      NM000R$  000000000004400000000000520000000000041000000000004700000000000410000000000000000000000000000023000000000000062000000000000002928600000000000123502013102100000010000000000000BRBVMFACNOR3125
012013090682BVMFW12     080BVMFE       ON      NM000R$  000000000003900000000000400000000000038000000000003800000000000380000000000034000000000000000020000000000000055400000000000002113300000000000118502013111800000010000000000000BRBVMFACNOR3125
012013090682BVMFW41     080BVMFE       ON      NM000R$  000000000002600000000000260000000000026000000000002600000000000260000000000000000000000000000002000000000000003400000000000000088400000000000115002013111800000010000000000000BRBVMFACNOR3126
012013090602CARD3       010CSU CARDSYSTON      NM   R$  000000000032400000000003240000000000312000000000031900000000003200000000000313000000000032000055000000000000107700000000000034364000000000000000009999123100000010000000000000BRCARDACNOR9105
012013090602CATP34      010CATERPILLAR DRN          R$  000000001927900000000192790000000019279000000001927900000000192790000000000000000000001927900001000000000000000200000000000003855800000000000000009999123100000010000000000000BRCATPBDR003108
012013090602CBMA3       010COBRASMA    ON           R$  000000000000500000000000050000000000005000000000000500000000000050000000000004000000000000500001000000000000020000000000000000100000000000000000009999123100000010000000000000BRCBMAACNOR4124
012013090662CBMA3T      030COBRASMA    ON        122R$  000000000000500000000000060000000000005000000000000500000000000060000000000000000000000000000002000000000000020000000000000000102760000000000000009999123100000010000000000000BRCBMAACNOR4124
012013090602CBMA4       010COBRASMA    PN           R$  000000000000400000000000040000000000004000000000000400000000000040000000000004000000000000500002000000000000020000000000000000080000000000000000009999123100000010000000000000BRCBMAACNPR1124
012013090696CBMA4F      020COBRASMA    PN           R$  000000000000400000000000050000000000004000000000000400000000000050000000000004000000000000500004000000000000008000000000000000033000000000000000009999123100000010000000000000BRCBMAACNPR1124
012013090608CCHI3       010CHIARELLI   ON           R$  000000000002000000000000200000000000018000000000001800000000000190000000000019000000000002000033000000000000440000000000000008260000000000000000009999123100000010000000000000BRCCHIACNOR5123
012013090696CCHI3F      020CHIARELLI   ON           R$  000000000001800000000000180000000000018000000000001800000000000180000000000019000000000002100003000000000000003000000000000000054000000000000000009999123100000010000000000000BRCCHIACNOR5123
012013090696CCHI4F      020CHIARELLI   PN           R$  000000000001800000000000180000000000018000000000001800000000000180000000000015000000000001800001000000000000000690000000000000012420000000000000009999123100000010000000000000BRCCHIACNPR2122
012013090602CCPR3       010CYRE COM-CCPON      NM   R$  000000000219000000000022000000000002128000000000214000000000021990000000002198000000000219900020000000000000012400000000000026536600000000000000009999123100000010000000000000BRCCPRACNOR9107
012013090696CCPR3F      020CYRE COM-CCPON      NM   R$  000000000215000000000021500000000002150000000000215000000000021500000000002031000000000228500001000000000000000020000000000000043000000000000000009999123100000010000000000000BRCCPRACNOR9107
012013090602CCRO3       010CCR SA      ON      NM   R$  000000000174000000000017920000000001740000000000176900000000017860000000001782000000000178612762000000000004870700000000008619611900000000000000009999123100000010000000000000BRCCROACNOR2122
012013090696CCRO3F      020CCR SA      ON      NM   R$  000000000173000000000017990000000001730000000000177300000000017900000000001780000000000179000085000000000000002415000000000004283137000000000000009999123100000010000000000000BRCCROACNOR2122
012013090662CCRO3T      030CCR SA      ON      NM122R$  000000000184300000000018430000000001843000000000184300000000018430000000000000000000000000000001000000000000000001000000000000001843000000000000009999123100000010000000000000BRCCROACNOR2122
012013090602CCXC3       010CCX CARVAO  ON      NM   R$  000000000014000000000001420000000000136000000000013800000000001380000000000137000000000013800985000000000004628600000000000643205800000000000000009999123100000010000000000000BRCCXCACNOR5100
012013090696CCXC3F      020CCX CARVAO  ON      NM   R$  000000000014000000000001400000000000140000000000014000000000001400000000000138000000000014100002000000000000000020000000000000002800000000000000009999123100000010000000000000BRCCXCACNOR5100
012013090662CCXC3T      030CCX CARVAO  ON      NM031R$  000000000013800000000001390000000000138000000000013800000000001390000000000000000000000000000002000000000000000700000000000000097276000000000000009999123100000010000000000000BRCCXCACNOR5100
012013090662CCXC3T      030CCX CARVAO  ON      NM090R$  000000000014000000000001410000000000140000000000014000000000001410000000000000000000000000000002000000000000010000000000000001408152000000000000009999123100000010000000000000BRCCXCACNOR5100
012013090602CEBR5       010CEB         PNA          R$  000000000185000000000018500000000001850000000000185000000000018500000000001850000000000270000001000000000000000100000000000000185000000000000000009999123100000010000000000000BRCEBRACNPA8113
012013090696CEDO3F      020CEDRO       ON      N1   R$  000000000090000000000009000000000000900000000000090000000000009000000000000850000000000100000001000000000000000020000000000000018000000000000000009999123100000010000000000000BRCEDOACNOR8094
012013090602CEEB3       010COELBA      ON           R$  000000000335000000000033500000000003350000000000335000000000033500000000003000000000000335000002000000000000000400000000000001340000000000000000009999123100000010000000000000BRCEEBACNOR3163
012013090612CEOC11B     010FII CEO CCP CI      MB   R$  000000000855000000000086800000000008550000000000862100000000086000000000008575000000000866000014000000000000000715000000000006164250000000000000009999123100000010000000000000BRCEOCCTF003109
012013090602CEPE5       010CELPE       PNA          R$  000000000185100000000020000000000001850000000000187400000000020000000000001855000000000200000003000000000000006100000000000011435500000000000000009999123100000010000000000000BRCEPEACNPA6151
012013090696CEPE5F      020CELPE       PNA          R$  000000000200000000000020000000000002000000000000200000000000020000000000001700000000000256300001000000000000000005000000000000010000000000000000009999123100000010000000000000BRCEPEACNPA6151
012013090602CESP3       010CESP        ON      N1   R$  000000000174700000000017500000000001700000000000174600000000017200000000001720000000000173900017000000000000023400000000000040863600000000000000009999123100000010000000000000BRCESPACNOR3160
012013090696CESP3F      020CESP        ON      N1   R$  000000000174000000000017400000000001740000000000174000000000017400000000001696000000000200100001000000000000000020000000000000034800000000000000009999123100000010000000000000BRCESPACNOR3160
012013090602CESP6       010CESP        PNB     N1   R$  000000000227200000000022900000000002218000000000225100000000022800000000002271000000000228005967000000000001052000000000002368535900000000000000009999123100000010000000000000BRCESPACNPB4119
012013090696CESP6F      020CESP        PNB     N1   R$  000000000227500000000022990000000002222000000000225400000000022310000000002231000000000229900032000000000000000825000000000001859571000000000000009999123100000010000000000000BRCESPACNPB4119
012013090662CESP6T      030CESP        PNB     N1031R$  000000000227800000000022790000000002278000000000227800000000022790000000000000000000000000000002000000000000000500000000000001139092000000000000009999123100000010000000000000BRCESPACNPB4119
012013090662CESP6T      030CESP        PNB     N1122R$  000000000229900000000022990000000002299000000000229900000000022990000000000000000000000000000001000000000000000001000000000000002299000000000000009999123100000010000000000000BRCESPACNPB4119
012013090602CGAS3       010COMGAS      ON           R$  000000000520000000000052000000000005200000000000520000000000052000000000004671000000000549500004000000000000002200000000000011440000000000000000009999123100000010000000000000BRCGASACNOR0132
012013090696CGAS3F      020COMGAS      ON           R$  000000000513000000000051300000000005130000000000513000000000051300000000005000000000000513000002000000000000000024000000000000123120000000000000009999123100000010000000000000BRCGASACNOR0132
012013090602CGAS5       010COMGAS      PNA          R$  000000000567500000000058020000000005675000000000575300000000057950000000005743000000000579500196000000000000045100000000000259474200000000000000009999123100000010000000000000BRCGASACNPA3129
012013090696CGAS5F      020COMGAS      PNA          R$  000000000573000000000057500000000005581000000000564300000000055810000000005582000000000578300007000000000000000143000000000000807081000000000000009999123100000010000000000000BRCGASACNPA3129
012013090602CGRA3       010GRAZZIOTIN  ON           R$  000000000160200000000016020000000001591000000000159900000000015910000000001590000000000164200009000000000000004300000000000006878400000000000000009999123100000010000000000000BRCGRAACNOR2061
012013090662CGRA3T      030GRAZZIOTIN  ON        360R$  000000000176600000000017670000000001766000000000176600000000017670000000000000000000000000000002000000000000000500000000000000883200000000000000009999123100000010000000000000BRCGRAACNOR2061
012013090602CGRA4       010GRAZZIOTIN  PN           R$  000000000170000000000017100000000001691000000000170300000000017100000000001691000000000171100004000000000000000700000000000001192100000000000000009999123100000010000000000000BRCGRAACNPR9061
012013090696CGRA4F      020GRAZZIOTIN  PN           R$  000000000168000000000016800000000001630000000000163300000000016300000000001607000000000180000002000000000000000055000000000000089850000000000000009999123100000010000000000000BRCGRAACNPR9061
012013090602CHVX34      010CHEVRON     DRN          R$  000000002795300000000279970000000027953000000002795600000000279970000000027672000000002879000003000000000000001200000000000033548000000000000000009999123100000010000000000000BRCHVXBDR008109
012013090602CIEL3       010CIELO       ON      NM   R$  000000000571000000000057750000000005675000000000570500000000057060000000005706000000000571008827000000000002050600000000011700136700000000000000009999123100000010000000000000BRCIELACNOR3111
012013090696CIEL3F      020CIELO       ON      NM   R$  000000000569900000000057360000000005680000000000570200000000057040000000005691000000000570700157000000000000004475000000000025517653000000000000009999123100000010000000000000BRCIELACNOR3111
012013090662CIEL3T      030CIELO       ON      NM017R$  000000000572700000000057280000000005727000000000572700000000057280000000000000000000000000000006000000000000011200000000000064145195000000000000009999123100000010000000000000BRCIELACNOR3111
012013090678CIELK59     070CIEL        ON      NM000R$  000000000013200000000001320000000000132000000000013200000000001320000000000000000000000000000001000000000000120000000000000015840000000000000590002013111800000010000000000000BRCIELACNOR3111
012013090602CLSC4       010CELESC      PN      N2   R$  000000000176400000000017800000000001751000000000176500000000017600000000001760000000000176900095000000000000014700000000000025958900000000000000009999123100000010000000000000BRCLSCACNPR3107
012013090602CMCS34      010COMCAST     DRN          R$  000000000983200000000098670000000009832000000000983400000000098670000000009679000000000989800002000000000000004900000000000048187300000000000000009999123100000010000000000000BRCMCSBDR008106
012013090658CMGR3       010CEMAT       ON           R$  000000000044500000000004450000000000445000000000044500000000004450000000000433000000000048000002000000000000000300000000000000133500000000000000009999123100000010000000000000BRCMGRACNOR7114
012013090602CMIG3       010CEMIG       ON      N1   R$  000000000184500000000018850000000001845000000000186800000000018720000000001864000000000187200842000000000000286900000000000536137100000000000000009999123100000010000000000000BRCMIGACNOR6208
012013090696CMIG3F      020CEMIG       ON      N1   R$  000000000185000000000019000000000001845000000000187200000000018640000000001865000000000187200048000000000000001093000000000002046188000000000000009999123100000010000000000000BRCMIGACNOR6208
012013090662CMIG3S      030CEMIG       ON      N1090R$  000000000191100000000019120000000001911000000000191100000000019120000000000000000000000000000004000000000000002109000000000004031011000000000000009999123100000010000000000000BRCMIGACNOR6208
012013090602CMIG4       010CEMIG       PN      N1   R$  000000000189400000000019010000000001870000000000188200000000018870000000001885000000000188714835000000000004700000000000008845831900000000000000009999123100000010000000000000BRCMIGACNPR3208
012013090696CMIG4F      020CEMIG       PN      N1   R$  000000000190000000000019000000000001870000000000188300000000018900000000001881000000000189000176000000000000005371000000000010119606000000000000009999123100000010000000000000BRCMIGACNPR3208
012013090662CMIG4T      030CEMIG       PN      N1017R$  000000000188300000000018960000000001883000000000188900000000018960000000000000000000000000000006000000000000011000000000000020786119000000000000009999123100000010000000000000BRCMIGACNPR3208
012013090662CMIG4T      030CEMIG       PN      N1031R$  000000000189700000000018990000000001893000000000189600000000018990000000000000000000000000000014000000000000009300000000000017632880000000000000009999123100000010000000000000BRCMIGACNPR3208
012013090662CMIG4T      030CEMIG       PN      N1060R$  000000000190400000000019070000000001904000000000190600000000019070000000000000000000000000000004000000000000010200000000000019442927000000000000009999123100000010000000000000BRCMIGACNPR3208
012013090662CMIG4T      030CEMIG       PN      N1090R$  000000000193800000000019390000000001925000000000193100000000019260000000000000000000000000000004000000000000005500000000000010624426000000000000009999123100000010000000000000BRCMIGACNPR3208
012013090662CMIG4T      030CEMIG       PN      N1360R$  000000000207400000000020750000000002070000000000207200000000020710000000000000000000000000000016000000000000005640000000000011691299000000000000009999123100000010000000000000BRCMIGACNPR3208
012013090678CMIGI20     070CMIG        PN      N1000R$  000000000002000000000000240000000000020000000000002200000000000240000000000010000000000001900002000000000000000500000000000000011200000000000200002013091600000010000000000000BRCMIGACNPR3208
012013090682CMIGU48     080CMIGE       PN      N1000R$  000000000000500000000000050000000000005000000000000500000000000050000000000000000000000000500005000000000000001000000000000000005000000000000185002013091600000010000000000000BRCMIGACNPR3208
012013090612CNES11B     010FII CENESP  CI      MB   R$  000000001245000000000124500000000012300000000001242800000000124000000000012300000000001240000010000000000000000707000000000008786950000000000000009999123100000010000000000000BRCNESCTF001125
012013090602COCA34      010COCA COLA   DRN          R$  000000000888100000000088810000000008860000000000887800000000088600000000008746000000000909900002000000000000002500000000000022196200000000000000009999123100000010000000000000BRCOCABDR002108
012013090602COCE3       010COELCE      ON           R$  000000000419700000000043740000000004197000000000425500000000043690000000004155000000000436900014000000000000004900000000000020852400000000000000009999123100000010000000000000BRCOCEACNOR0132
012013090602COCE5       010COELCE      PNA          R$  000000000405500000000041400000000004055000000000410600000000041020000000004084000000000410200281000000000000063100000000000259147300000000000000009999123100000010000000000000BRCOCEACNPA3133
012013090696COCE5F      020COELCE      PNA          R$  000000000413900000000041500000000004060000000000412500000000040600000000004060000000000419900017000000000000000267000000000001101594000000000000009999123100000010000000000000BRCOCEACNPA3133
012013090602COLG34      010COLGATE     DRN          R$  000000001335600000000133560000000013356000000001335600000000133560000000013235000000001376900001000000000000000200000000000002671200000000000000009999123100000010000000000000BRCOLGBDR000109
012013090602COPH34      010COPHILLIPS  DRN          R$  000000000395900000000039590000000003959000000000395900000000039590000000003890000000000396000002000000000000000800000000000003167200000000000000009999123100000010000000000000BRCOPHBDR009107
012013090602CPFE3       010CPFL ENERGIAON      NM   R$  000000000197600000000019830000000001948000000000196600000000019730000000001972000000000197305661000000000001185900000000002332057300000000000000009999123100000010000000000000BRCPFEACNOR0122
012013090696CPFE3F      020CPFL ENERGIAON      NM   R$  000000000196400000000020190000000001941000000000196900000000019650000000002000000000000202300035000000000000001065000000000002097509000000000000009999123100000010000000000000BRCPFEACNOR0122
012013090602CPLE3       010COPEL       ON      N1   R$  000000000218900000000022290000000002160000000000217000000000021600000000002152000000000216000033000000000000016900000000000036687700000000000000009999123100000010000000000000BRCPLEACNOR8128
012013090602CPLE6       010COPEL       PNB     N1   R$  000000000309000000000031210000000003042000000000306500000000030490000000003049000000000305402293000000000000410700000000001259070500000000000000009999123100000010000000000000BRCPLEACNPB9125
012013090696CPLE6F      020COPEL       PNB     N1   R$  000000000310000000000031240000000003050000000000308700000000031240000000003100000000000312600017000000000000000449000000000001386982000000000000009999123100000010000000000000BRCPLEACNPB9125
012013090602CPRE3       010CPFL RENOVAVON      NM   R$  000000000119900000000011990000000001180000000000118100000000011800000000001180000000000119900019000000000000011700000000000013827700000000000000009999123100000010000000000000BRCPREACNOR5100
012013090696CPRE3F      020CPFL RENOVAVON      NM   R$  000000000118100000000011990000000001180000000000118800000000011990000000001180000000000119900003000000000000000044000000000000052305000000000000009999123100000010000000000000BRCPREACNOR5100
012013090602CRDE3       010CR2         ON      NM   R$  000000000042400000000004240000000000424000000000042400000000004240000000000416000000000042400001000000000000000100000000000000042400000000000000009999123100000010000000000000BRCRDEACNOR1108
012013090602CREM3       010CREMER      ON  EJ  NM   R$  000000000140700000000014490000000001400000000000141800000000014260000000001425000000000144900065000000000000026700000000000037869100000000000000009999123100000010000000000000BRCREMACNOR2167
012013090696CREM3F      020CREMER      ON  EJ  NM   R$  000000000145000000000014500000000001450000000000145000000000014500000000001401000000000149900001000000000000000030000000000000043500000000000000009999123100000010000000000000BRCREMACNOR2167
012013090602CRIV3       010ALFA FINANC ON           R$  000000000050500000000005080000000000481000000000049900000000005080000000000477000000000050800015000000000000013600000000000006799800000000000000009999123100000010000000000000BRCRIVACNOR4190
012013090602CRIV4       010ALFA FINANC PN           R$  000000000044900000000004490000000000448000000000044800000000004490000000000443000000000045000007000000000000014100000000000006324900000000000000009999123100000010000000000000BRCRIVACNPR1190
012013090696CRIV4F      020ALFA FINANC PN           R$  000000000044200000000004420000000000442000000000044200000000004420000000000442000000000000000001000000000000000004000000000000001768000000000000009999123100000010000000000000BRCRIVACNPR1190
012013090602CRUZ3       010SOUZA CRUZ  ON           R$  000000000247100000000025200000000002445000000000247800000000025200000000002520000000000252109324000000000004089200000000010136598400000000000000009999123100000010000000000000BRCRUZACNOR0246
012013090696CRUZ3F      020SOUZA CRUZ  ON           R$  000000000245000000000025200000000002430000000000248100000000025190000000002482000000000252000062000000000000001745000000000004329828000000000000009999123100000010000000000000BRCRUZACNOR0246
012013090662CRUZ3S      030SOUZA CRUZ  ON        090R$  000000000250800000000025090000000002508000000000250800000000025090000000000000000000000000000002000000000000000200000000000000501604000000000000009999123100000010000000000000BRCRUZACNOR0246
012013090662CRUZ3T      030SOUZA CRUZ  ON        090R$  000000000252000000000025210000000002520000000000252000000000025210000000000000000000000000000002000000000000000200000000000000504078000000000000009999123100000010000000000000BRCRUZACNOR0246
012013090662CRUZ3T      030SOUZA CRUZ  ON        017R$  000000000248100000000025190000000002481000000000249300000000025190000000000000000000000000000006000000000000001500000000000003740148000000000000009999123100000010000000000000BRCRUZACNOR0246
012013090662CRUZ3T      030SOUZA CRUZ  ON        031R$  000000000248800000000025230000000002488000000000249000000000025230000000000000000000000000000004000000000000003200000000000007969449000000000000009999123100000010000000000000BRCRUZACNOR0246
012013090662CRUZ3T      030SOUZA CRUZ  ON        060R$  000000000250700000000025080000000002507000000000250700000000025080000000000000000000000000000004000000000000003000000000000007521949000000000000009999123100000010000000000000BRCRUZACNOR0246
012013090662CRUZ3T      030SOUZA CRUZ  ON        073R$  000000000256000000000025610000000002560000000000256000000000025610000000000000000000000000000002000000000000000500000000000001280282000000000000009999123100000010000000000000BRCRUZACNOR0246
012013090678CRUZI25     070CRUZ        ON        000R$  000000000002500000000000250000000000025000000000002500000000000250000000000000000000000000000001000000000000001000000000000000025000000000000250002013091600000010000000000000BRCRUZACNOR0246
012013090678CRUZJ25     070CRUZ        ON        000R$  000000000006500000000000650000000000065000000000006500000000000650000000000000000000000000000002000000000000001000000000000000065000000000000250002013102100000010000000000000BRCRUZACNOR0246
012013090602CSAN3       010COSAN       ON      NM   R$  000000000421800000000042600000000004128000000000416300000000041600000000004160000000000416904613000000000001198600000000004990380200000000000000009999123100000010000000000000BRCSANACNOR6108
012013090696CSAN3F      020COSAN       ON      NM   R$  000000000420000000000042300000000004131000000000416500000000041500000000004131000000000428000029000000000000000823000000000003428391000000000000009999123100000010000000000000BRCSANACNOR6108
012013090662CSAN3T      030COSAN       ON      NM031R$  000000000419000000000041910000000004190000000000419000000000041910000000000000000000000000000002000000000000000400000000000001676121000000000000009999123100000010000000000000BRCSANACNOR6108
012013090662CSAN3T      030COSAN       ON      NM060R$  000000000430500000000043060000000004305000000000430500000000043060000000000000000000000000000002000000000000000500000000000002152867000000000000009999123100000010000000000000BRCSANACNOR6108
012013090602CSCO34      010CISCO       DRN          R$  000000000544700000000054470000000005443000000000544600000000054430000000005360000000000548800002000000000000006200000000000033769000000000000000009999123100000010000000000000BRCSCOBDR004110
012013090602CSMG3       010COPASA      ON      NM   R$  000000000310900000000031840000000003070000000000312900000000031550000000003155000000000316001859000000000000302300000000000945981900000000000000009999123100000010000000000000BRCSMGACNOR5127
012013090696CSMG3F      020COPASA      ON      NM   R$  000000000312000000000031750000000003077000000000313200000000031400000000003145000000000317000031000000000000000663000000000002076860000000000000009999123100000010000000000000BRCSMGACNOR5127
012013090662CSMG3T      030COPASA      ON      NM180R$  000000000324900000000032500000000003249000000000324900000000032500000000000000000000000000000002000000000000000200000000000000649993000000000000009999123100000010000000000000BRCSMGACNOR5127
012013090614CSMO11      010ISHARES CSMOCI           R$  000000000470000000000047000000000004700000000000470000000000047000000000004595000000000470000001000000000000000010000000000000047000000000000000009999123100000010000000000000BRCSMOCTF002100
012013090602CSNA3       010SID NACIONALON           R$  000000000092800000000009350000000000910000000000091900000000009190000000000919000000000092013480000000000008212900000000007552155700000000000000009999123100000010000000000000BRCSNAACNOR6243
012013090696CSNA3F      020SID NACIONALON           R$  000000000093000000000009310000000000911000000000092000000000009190000000000915000000000092300068000000000000001887000000000001736363000000000000009999123100000010000000000000BRCSNAACNOR6243
012013090662CSNA3T      030SID NACIONALON        017R$  000000000091800000000009220000000000918000000000092000000000009220000000000000000000000000000004000000000000003000000000000002762004000000000000009999123100000010000000000000BRCSNAACNOR6243
012013090662CSNA3T      030SID NACIONALON        031R$  000000000093000000000009310000000000930000000000093000000000009310000000000000000000000000000002000000000000003000000000000002790850000000000000009999123100000010000000000000BRCSNAACNOR6243
012013090662CSNA3T      030SID NACIONALON        060R$  000000000093000000000009310000000000930000000000093000000000009310000000000000000000000000000002000000000000005000000000000004650565000000000000009999123100000010000000000000BRCSNAACNOR6243
012013090662CSNA3T      030SID NACIONALON        090R$  000000000095300000000009540000000000953000000000095300000000009540000000000000000000000000000002000000000000020000000000000019061072000000000000009999123100000010000000000000BRCSNAACNOR6243
012013090678CSNAI10     070CSNA        ON        000R$  000000000000300000000000030000000000003000000000000300000000000030000000000000000000000002400001000000000000000500000000000000001500000000000100002013091600000010000000000000BRCSNAACNOR6243
012013090678CSNAI7      070CSNA        ON        000R$  000000000024000000000002480000000000240000000000024200000000002440000000000235000000000000000014000000000000024600000000000005964200000000000068002013091600000010000000000000BRCSNAACNOR6242
