00COTAHIST.2013BOVESPA 20130725                                                                                                                                                                                                                      
012013072502ABCB4       010ABC BRASIL  PN      N2   R$  000000000128000000000012860000000001263000000000127500000000012700000000001269000000000127000724000000000000255200000000000325526700000000000000009999123100000010000000000000BRABCBACNPR4120
012013072596ABCB4F      020ABC BRASIL  PN      N2   R$  000000000127100000000012740000000001271000000000127100000000012740000000001263000000000127700005000000000000000119000000000000151309000000000000009999123100000010000000000000BRABCBACNPR4120
012013072502ABRE11      010ABRIL EDUCA UNT     N2   R$  000000000367100000000036710000000003541000000000358400000000035410000000003541000000000355000789000000000000299600000000001073810500000000000000009999123100000010000000000000BRABRECDAM15102
012013072596ABRE11F     020ABRIL EDUCA UNT     N2   R$  000000000389900000000038990000000003571000000000359300000000035770000000003555000000000390000023000000000000000681000000000002446996000000000000009999123100000010000000000000BRABRECDAM15102
012013072502ABTT11B     010ABBOTT      DRN     MB   R$  000000000207000000000020700000000002070000000000207000000000020700000000002020000000000206000002000000000000001900000000000003933000000000000000009999123100000010000000000000BRABTTBDR007107
012013072502AEDU3       010ANHANGUERA  ON      NM   R$  000000000129700000000013140000000001279000000000128600000000013050000000001305000000000130902730000000000002745800000000003533403600000000000000009999123100000010000000000000BRAEDUACNOR9107
012013072596AEDU3F      020ANHANGUERA  ON      NM   R$  000000000129500000000013110000000001280000000000128800000000013110000000001281000000000131200015000000000000000579000000000000746133000000000000009999123100000010000000000000BRAEDUACNOR9107
012013072512AEFI11      010FII AESAPAR CI           R$  000000001240000000000124500000000012350000000001239000000000124000000000012400000000001248000027000000000000000943000000000011683810000000000000009999123100000010000000000000BRAEFICTF002119
012013072502AELP3       010AES ELPA    ON           R$  000000000075000000000007500000000000745000000000074500000000007480000000000748000000000076400030000000000000014500000000000010816100000000000000009999123100000010000000000000BRAELPACNOR2119
012013072512AGCX11      010FII AG CAIXACI           R$  000000010100000000001010000000000100800000000010083100000001008000000000100800000000010100000004000000000000000035000000000003529100000000000000009999123100000010000000000000BRAGCXCTF003108
012013072502AGEN11      010AGRENCO     DR3          R$  000000000007200000000000770000000000065000000000007100000000000650000000000064000000000006502563000000000031197500000000002239352300000000000000009999123100000010000000000000BRAGENBDR001100
012013072596AGEN11F     020AGRENCO     DR3          R$  000000000006800000000000770000000000068000000000007200000000000680000000000065000000000007500027000000000000000910000000000000065764000000000000009999123100000010000000000000BRAGENBDR001100
012013072502AGRO3       010BRASILAGRO  ON      NM   R$  000000000108000000000010800000000001073000000000107700000000010780000000001071000000000108000008000000000000001500000000000001616800000000000000009999123100000010000000000000BRAGROACNOR7102
012013072596AGRO3F      020BRASILAGRO  ON      NM   R$  000000000114900000000011490000000001149000000000114900000000011490000000000950000000000115000001000000000000000021000000000000024129000000000000009999123100000010000000000000BRAGROACNOR7102
012013072502ALLL3       010ALL AMER LATON      NM   R$  000000000087000000000008930000000000863000000000088300000000008900000000000887000000000089004205000000000001494200000000001320397500000000000000009999123100000010000000000000BRALLLACNOR6118
012013072596ALLL3F      020ALL AMER LATON      NM   R$  000000000087000000000008990000000000864000000000087700000000008990000000000880000000000089400012000000000000000312000000000000274438000000000000009999123100000010000000000000BRALLLACNOR6118
012013072512ALMI11B     010FII TORRE ALCI      MB   R$  000000031800000000003180000000000311001000000031349200000003120000000000312000000000031750000019000000000000000051000000000015988102000000000000009999123100000010000000000000BRALMICTF003203
012013072502ALPA3       010ALPARGATAS  ON      N1   R$  000000000107000000000010700000000001070000000000107000000000010700000000001056000000000107000003000000000000015600000000000016692000000000000000009999123100000010000000000000BRALPAACNOR0202
012013072596ALPA3F      020ALPARGATAS  ON      N1   R$  000000000097000000000009700000000000970000000000097000000000009700000000000970000000000105000001000000000000000001000000000000000970000000000000009999123100000010000000000000BRALPAACNOR0202
012013072502ALPA4       010ALPARGATAS  PN      N1   R$  000000000132400000000013330000000001315000000000132400000000013250000000001319000000000132500445000000000000927900000000001229267600000000000000009999123100000010000000000000BRALPAACNPR7202
012013072596ALPA4F      020ALPARGATAS  PN      N1   R$  000000000133000000000013300000000001315000000000132300000000013180000000001316000000000132500013000000000000000356000000000000471108000000000000009999123100000010000000000000BRALPAACNPR7202
012013072502ALSC3       010ALIANSCE    ON      NM   R$  000000000205600000000020740000000002027000000000205100000000020700000000002061000000000207801102000000000000243800000000000500140300000000000000009999123100000010000000000000BRALSCACNOR0104
012013072596ALSC3F      020ALIANSCE    ON      NM   R$  000000000200000000000021900000000002000000000000209600000000021900000000001951000000000219900007000000000000000205000000000000429818000000000000009999123100000010000000000000BRALSCACNOR0104
012013072502ALUP11      010ALUPAR      UNT     N2   R$  000000000175200000000017700000000001740000000000175400000000017510000000001751000000000177000261000000000000070000000000000122818900000000000000009999123100000010000000000000BRALUPCDAM15100
012013072596ALUP11F     020ALUPAR      UNT     N2   R$  000000000177800000000017780000000001753000000000176100000000017570000000001730000000000184900004000000000000000111000000000000195544000000000000009999123100000010000000000000BRALUPCDAM15100
012013072562ALUP11T     030ALUPAR      UNT     N2032R$  000000000176800000000017690000000001768000000000176800000000017690000000000000000000000000000002000000000000002000000000000003536325000000000000009999123100000010000000000000BRALUPCDAM15100
012013072502AMAR3       010LOJAS MARISAON      NM   R$  000000000212000000000021790000000002111000000000213800000000021500000000002150000000000216001867000000000000471800000000001008760300000000000000009999123100000010000000000000BRAMARACNOR4109
012013072596AMAR3F      020LOJAS MARISAON      NM   R$  000000000224900000000022490000000002122000000000217800000000021630000000002163000000000219100010000000000000000325000000000000707914000000000000009999123100000010000000000000BRAMARACNOR4109
012013072502AMBV3       010AMBEV       ON           R$  000000000808900000000081420000000008061000000000810300000000081040000000008104000000000811800627000000000000140300000000001136985800000000000000009999123100000010000000000000BRAMBVACNOR4153
012013072596AMBV3F      020AMBEV       ON           R$  000000000808000000000082190000000008080000000000810200000000080920000000008092000000000813900027000000000000000591000000000004788615000000000000009999123100000010000000000000BRAMBVACNOR4153
012013072562AMBV3T      030AMBEV       ON        032R$  000000000818500000000081860000000008185000000000818500000000081860000000000000000000000000000002000000000000002000000000000016371029000000000000009999123100000010000000000000BRAMBVACNOR4153
012013072502AMBV4       010AMBEV       PN           R$  000000000812500000000081620000000008085000000000812800000000081590000000008116000000000815903615000000000000879100000000007146105900000000000000009999123100000010000000000000BRAMBVACNPR1153
012013072596AMBV4F      020AMBEV       PN           R$  000000000817500000000081750000000008076000000000812100000000081300000000008130000000000816500120000000000000002815000000000022864075000000000000009999123100000010000000000000BRAMBVACNPR1153
012013072578AMBVH84     070AMBV        PN        000R$  000000000008000000000000800000000000080000000000008000000000000800000000000065000000000000000002000000000000004000000000000000320000000000000840002013081900000010000000000000BRAMBVACNPR1153
012013072502ARMT11B     010ARCELOR     DRN     MB   R$  000000000147600000000014760000000001476000000000147600000000014760000000001425000000000147500001000000000000005300000000000007822800000000000000009999123100000010000000000000BRARMTBDR008111
012013072502ARTR3       010ARTERIS     ON      NM   R$  000000000206800000000021330000000002067000000000211800000000021050000000002105000000000211002740000000000001500800000000003179129900000000000000009999123100000010000000000000BRARTRACNOR3101
012013072596ARTR3F      020ARTERIS     ON      NM   R$  000000000209400000000021300000000002094000000000211300000000021140000000002100000000000211400027000000000000000522000000000001103252000000000000009999123100000010000000000000BRARTRACNOR3101
012013072562ARTR3T      030ARTERIS     ON      NM018R$  000000000211500000000021160000000002115000000000211500000000021160000000000000000000000000000002000000000000002500000000000005289097000000000000009999123100000010000000000000BRARTRACNOR3101
012013072562ARTR3T      030ARTERIS     ON      NM032R$  000000000213000000000021320000000002130000000000213000000000021320000000000000000000000000000004000000000000005000000000000010653506000000000000009999123100000010000000000000BRARTRACNOR3101
012013072502ARZZ3       010AREZZO CO   ON      NM   R$  000000000356000000000036150000000003551000000000359200000000035900000000003590000000000359700484000000000000098800000000000354979000000000000000009999123100000010000000000000BRARZZACNOR3108
012013072596ARZZ3F      020AREZZO CO   ON      NM   R$  000000000352500000000037090000000003525000000000360400000000035900000000003411000000000375400006000000000000000204000000000000735295000000000000009999123100000010000000000000BRARZZACNOR3108
012013072502ATTB11B     010ATT INC     DRN     MB   R$  000000000812400000000081240000000008124000000000812400000000081240000000007818000000000805300001000000000000000400000000000003249600000000000000009999123100000010000000000000BRATTBBDR007104
012013072502AUTM3       010AUTOMETAL   ON      NM   R$  000000000178500000000018520000000001785000000000181000000000018120000000001812000000000182700309000000000000363800000000000658749600000000000000009999123100000010000000000000BRAUTMACNOR8109
012013072502BAHI3       010BAHEMA      ON           R$  000000000050000000000005000000000000500000000000050000000000005000000000000491000000000050400001000000000000000200000000000000100000000000000000009999123100000010000000000000BRBAHIACNOR1066
012013072502BALM4       010BAUMER      PN           R$  000000000760100000000076010000000007601000000000760100000000076010000000007550000000000000000001000000000000000200000000000001520200000000000000009999123100000010000000000000BRBALMACNPR2043
012013072596BAUH4F      020EXCELSIOR   PN           R$  000000000092500000000009250000000000925000000000092500000000009250000000000000000000000140000001000000000000000011000000000000010175000000000000009999123100000010000000000000BRBAUHACNPR3108
012013072502BAZA3       010AMAZONIA    ON           R$  000000000003400000000000340000000000034000000000003400000000000340000000000033000000000003500002000000000000010000000000000000340000000000000000009999123100000010000000000000BRBAZAACNOR0163
012013072502BBAS3       010BRASIL      ON      NM   R$  000000000227000000000022960000000002258000000000227600000000022590000000002259000000000226010783000000000005648100000000012859530300000000000000009999123100000010000000000000BRBBASACNOR3237
012013072596BBAS3F      020BRASIL      ON      NM   R$  000000000225900000000022950000000002259000000000227600000000022650000000002264000000000227000149000000000000004477000000000010190088000000000000009999123100000010000000000000BRBBASACNOR3237
012013072562BBAS3T      030BRASIL      ON      NM018R$  000000000228500000000022860000000002285000000000228500000000022860000000000000000000000000000002000000000000066000000000000150857731000000000000009999123100000010000000000000BRBBASACNOR3237
012013072562BBAS3T      030BRASIL      ON      NM028R$  000000000229400000000022950000000002294000000000229400000000022950000000000000000000000000000002000000000000000100000000000000229495000000000000009999123100000010000000000000BRBBASACNOR3237
012013072562BBAS3T      030BRASIL      ON      NM032R$  000000000230200000000023030000000002302000000000230200000000023030000000000000000000000000000002000000000000001000000000000002302552000000000000009999123100000010000000000000BRBBASACNOR3237
012013072562BBAS3T      030BRASIL      ON      NM060R$  000000000231100000000023120000000002302000000000231000000000023020000000000000000000000000000003000000000000000800000000000001848558000000000000009999123100000010000000000000BRBBASACNOR3237
012013072562BBAS3T      030BRASIL      ON      NM090R$  000000000232100000000023220000000002321000000000232100000000023220000000000000000000000000000002000000000000000300000000000000696352000000000000009999123100000010000000000000BRBBASACNOR3237
012013072578BBASH21     070BBAS  FM    ON      NM000R$  000000000022500000000002370000000000210000000000022400000000002220000000000080000000000022300157000000000000279100000000000062646000000000000207602013081900000010000000000000BRBBASACNOR3236
012013072578BBASH22     070BBAS  FM    ON      NM000R$  000000000014100000000001510000000000127000000000013800000000001270000000000122000000000013100163000000000000272000000000000037667300000000000217602013081900000010000000000000BRBBASACNOR3236
012013072578BBASH23     070BBAS  FM    ON      NM000R$  000000000007500000000000820000000000062000000000007000000000000620000000000060000000000009000091000000000000189400000000000013367100000000000227602013081900000010000000000000BRBBASACNOR3236
012013072578BBASH24     070BBAS  FM    ON      NM000R$  000000000005000000000000550000000000043000000000004700000000000450000000000041000000000004600098000000000000144200000000000006881200000000000231702013081900000010000000000000BRBBASACNOR3233
012013072578BBASH25     070BBAS  FM    ON      NM000R$  000000000001900000000000240000000000016000000000001900000000000170000000000016000000000001800028000000000000033200000000000000644800000000000241702013081900000010000000000000BRBBASACNOR3233
012013072578BBASH26     070BBAS        ON      NM000R$  000000000000500000000000050000000000004000000000000400000000000050000000000004000000000000600006000000000000010500000000000000050500000000000256602013081900000010000000000000BRBBASACNOR3235
012013072578BBASH28     070BBAS        ON      NM000R$  000000000000200000000000020000000000002000000000000200000000000020000000000000000000000000300001000000000000000500000000000000001000000000000276602013081900000010000000000000BRBBASACNOR3235
012013072578BBASI21     070BBAS  FM    ON      NM000R$  000000000023300000000002450000000000220000000000023100000000002200000000000200000000000000000099000000000000178800000000000041362400000000000210002013091600000010000000000000BRBBASACNOR3237
012013072578BBASI22     070BBAS  FM    ON      NM000R$  000000000017700000000001860000000000163000000000017200000000001640000000000145000000000000000101000000000000149600000000000025825400000000000217602013091600000010000000000000BRBBASACNOR3236
012013072578BBASI23     070BBAS  FM    ON      NM000R$  000000000011600000000001160000000000104000000000010900000000001080000000000045000000000000000015000000000000030400000000000003338500000000000227602013091600000010000000000000BRBBASACNOR3236
012013072578BBASI24     070BBAS  FM    ON      NM000R$  000000000007900000000000790000000000057000000000006300000000000570000000000045000000000006600019000000000000028300000000000001794800000000000237602013091600000010000000000000BRBBASACNOR3236
012013072578BBASI25     070BBAS  FM    ON      NM000R$  000000000003900000000000390000000000033000000000003600000000000330000000000029000000000004000004000000000000004400000000000000159300000000000246602013091600000010000000000000BRBBASACNOR3235
012013072578BBASI61     070BBASE       ON      NM000R$  000000000014300000000001450000000000143000000000014300000000001450000000000000000000000000000002000000000000006000000000000000862000000000000222502013091600000010000000000000BRBBASACNOR3237
012013072578BBASJ26     070BBAS        ON      NM000R$  000000000004100000000000410000000000040000000000004000000000000400000000000000000000000000000002000000000000003800000000000000155000000000000256602013102100000010000000000000BRBBASACNOR3235
012013072578BBASL27     070BBAS        ON      NM000R$  000000000003700000000000370000000000037000000000003700000000000370000000000000000000000000000001000000000000500000000000000018500000000000000270002013121600000010000000000000BRBBASACNOR3237
012013072582BBAST20     080BBASE       ON      NM000R$  000000000000700000000000070000000000007000000000000700000000000070000000000002000000000000000002000000000000005100000000000000035700000000000200002013081900000010000000000000BRBBASACNOR3237
012013072582BBAST21     080BBASE FM    ON      NM000R$  000000000001100000000000110000000000009000000000000900000000000090000000000000000000000002400008000000000000024100000000000000228100000000000207602013081900000010000000000000BRBBASACNOR3236
012013072582BBAST22     080BBASE FM    ON      NM000R$  000000000002500000000000300000000000023000000000002600000000000300000000000020000000000003000015000000000000022900000000000000598900000000000217602013081900000010000000000000BRBBASACNOR3236
012013072582BBAST23     080BBASE FM    ON      NM000R$  000000000005600000000000630000000000050000000000005600000000000630000000000000000000000010000027000000000000068700000000000003874000000000000227602013081900000010000000000000BRBBASACNOR3236
012013072582BBAST24     080BBASE FM    ON      NM000R$  000000000007200000000000840000000000068000000000007500000000000840000000000052000000000000000042000000000000081400000000000006162800000000000231702013081900000010000000000000BRBBASACNOR3233
012013072582BBASU21     080BBASE FM    ON      NM000R$  000000000003000000000000310000000000030000000000003000000000000310000000000000000000000000000002000000000000002200000000000000066100000000000210002013091600000010000000000000BRBBASACNOR3237
012013072582BBASU22     080BBASE FM    ON      NM000R$  000000000004700000000000500000000000045000000000004800000000000500000000000000000000000000000008000000000000014700000000000000708100000000000217602013091600000010000000000000BRBBASACNOR3236
012013072582BBASU23     080BBASE FM    ON      NM000R$  000000000008200000000000870000000000078000000000008200000000000830000000000057000000000000000015000000000000027800000000000002288600000000000227602013091600000010000000000000BRBBASACNOR3236
012013072582BBASU24     080BBASE FM    ON      NM000R$  000000000013400000000001420000000000126000000000013500000000001420000000000000000000000000000031000000000000062700000000000008477700000000000237602013091600000010000000000000BRBBASACNOR3236
012013072582BBASV23     080BBASE       ON      NM000R$  000000000010100000000001010000000000101000000000010100000000001010000000000000000000000000000001000000000000003000000000000000303000000000000226602013102100000010000000000000BRBBASACNOR3235
012013072582BBASV24     080BBASE       ON      NM000R$  000000000015000000000001500000000000150000000000015000000000001500000000000000000000000000000002000000000000006000000000000000900000000000000237602013102100000010000000000000BRBBASACNOR3236
012013072582BBASV53     080BBASE       ON      NM000R$  000000000012300000000001260000000000123000000000012400000000001260000000000000000000000000000002000000000000006000000000000000747000000000000231602013102100000010000000000000BRBBASACNOR3235
012013072582BBASX22     080BBASE       ON      NM000R$  000000000008500000000000860000000000085000000000008500000000000860000000000000000000000000000002000000000000500000000000000042560000000000000216602013121600000010000000000000BRBBASACNOR3235
012013072502BBDC3       010BRADESCO    ON      N1   R$  000000000319500000000032260000000003156000000000318800000000031940000000003194000000000319603653000000000001368400000000004363004600000000000000009999123100000010000000000000BRBBDCACNOR1604
012013072596BBDC3F      020BRADESCO    ON      N1   R$  000000000319900000000032200000000003146000000000318000000000031800000000003180000000000321000058000000000000001178000000000003746284000000000000009999123100000010000000000000BRBBDCACNOR1604
012013072562BBDC3T      030BRADESCO    ON      N1090R$  000000000327800000000032790000000003278000000000327800000000032790000000000000000000000000000004000000000000000209000000000000685184000000000000009999123100000010000000000000BRBBDCACNOR1604
012013072502BBDC4       010BRADESCO    PN      N1   R$  000000000286100000000029030000000002847000000000287400000000028830000000002875000000000288318226000000000009006700000000025887788600000000000000009999123100000010000000000000BRBBDCACNPR8604
012013072596BBDC4F      020BRADESCO    PN      N1   R$  000000000287400000000028990000000002850000000000287100000000028550000000002855000000000288400204000000000000006053000000000017379552000000000000009999123100000010000000000000BRBBDCACNPR8604
012013072562BBDC4T      030BRADESCO    PN      N1022R$  000000000287300000000028740000000002873000000000287300000000028740000000000000000000000000000002000000000000000700000000000002011203000000000000009999123100000010000000000000BRBBDCACNPR8604
012013072562BBDC4T      030BRADESCO    PN      N1060R$  000000000292600000000029270000000002926000000000292600000000029270000000000000000000000000000002000000000000000500000000000001463351000000000000009999123100000010000000000000BRBBDCACNPR8604
012013072578BBDCH27     070BBDC        PN      N1000R$  000000000023800000000002380000000000210000000000022100000000002210000000000202000000000027800009000000000000024100000000000005333800000000000268002013081900000010000000000000BRBBDCACNPR8602
012013072578BBDCH28     070BBDC        PN      N1000R$  000000000014200000000001650000000000130000000000014400000000001440000000000130000000000014500305000000000000400500000000000058016600000000000278002013081900000010000000000000BRBBDCACNPR8602
012013072578BBDCH29     070BBDC        PN      N1000R$  000000000008000000000000990000000000069000000000008100000000000740000000000076000000000009600133000000000000187200000000000015182700000000000288002013081900000010000000000000BRBBDCACNPR8602
012013072578BBDCH30     070BBDC        PN      N1000R$  000000000003900000000000500000000000030000000000003800000000000350000000000031000000000004100158000000000000182000000000000007039700000000000298002013081900000010000000000000BRBBDCACNPR8602
012013072578BBDCH31     070BBDC        PN      N1000R$  000000000001800000000000210000000000013000000000001600000000000150000000000013000000000002000011000000000000027500000000000000444500000000000307602013081900000010000000000000BRBBDCACNPR8600
012013072578BBDCH34     070BBDC        PN      N1000R$  000000000002400000000000250000000000020000000000002000000000000200000000000015000000000002900004000000000000002300000000000000047300000000000305502013081900000010000000000000BRBBDCACNPR8595
012013072578BBDCI26     070BBDC        PN      N1000R$  000000000032200000000003220000000000322000000000032200000000003220000000000000000000000000000001000000000000002000000000000000644000000000000260002013091600000010000000000000BRBBDCACNPR8604
012013072578BBDCI27     070BBDC        PN      N1000R$  000000000027300000000002730000000000256000000000026500000000002560000000000000000000000000000003000000000000012000000000000003188000000000000268002013091600000010000000000000BRBBDCACNPR8602
012013072578BBDCI28     070BBDC        PN      N1000R$  000000000018600000000002050000000000173000000000018600000000001800000000000140000000000022800094000000000000155600000000000029089400000000000278002013091600000010000000000000BRBBDCACNPR8602
012013072578BBDCI29     070BBDC        PN      N1000R$  000000000012300000000001360000000000115000000000012500000000001200000000000000000000000015800036000000000000061800000000000007772100000000000288002013091600000010000000000000BRBBDCACNPR8602
012013072578BBDCI30     070BBDC        PN      N1000R$  000000000008500000000000920000000000076000000000008100000000000780000000000060000000000009900010000000000000020800000000000001702300000000000298002013091600000010000000000000BRBBDCACNPR8602
012013072578BBDCI31     070BBDC        PN      N1000R$  000000000022900000000002290000000000218000000000022300000000002180000000000000000000000000000002000000000000008000000000000001788000000000000273102013091600000010000000000000BRBBDCACNPR8590
012013072578BBDCI33     070BBDC        PN      N1000R$  000000000008500000000000850000000000085000000000008500000000000850000000000000000000000000000001000000000000004000000000000000340000000000000297402013091600000010000000000000BRBBDCACNPR8598
012013072578BBDCI75     070BBDCE       PN      N1000R$  000000000016600000000001760000000000152000000000016100000000001550000000000000000000000000000008000000000000013000000000000002105000000000000282502013091600000010000000000000BRBBDCACNPR8604
012013072578BBDCI81     070BBDC        PN      N1000R$  000000000005300000000000530000000000044000000000004700000000000440000000000000000000000000000007000000000000014500000000000000687100000000000308002013091600000010000000000000BRBBDCACNPR8602
012013072578BBDCJ1      070BBDC        PN      N1000R$  000000000006300000000000640000000000063000000000006300000000000640000000000000000000000000000002000000000000006000000000000000381000000000000314802013102100000010000000000000BRBBDCACNPR8603
012013072578BBDCJ26     070BBDC        PN      N1000R$  000000000035900000000003590000000000359000000000035900000000003590000000000000000000000000000001000000000000003000000000000001077000000000000260002013102100000010000000000000BRBBDCACNPR8604
012013072578BBDCJ27     070BBDC        PN      N1000R$  000000000029800000000002980000000000298000000000029800000000002980000000000000000000000000000001000000000000002000000000000000596000000000000268002013102100000010000000000000BRBBDCACNPR8602
012013072578BBDCJ29     070BBDC        PN      N1000R$  000000000016600000000001700000000000166000000000016600000000001700000000000000000000000000000006000000000000212000000000000035222000000000000288002013102100000010000000000000BRBBDCACNPR8602
012013072578BBDCJ30     070BBDC        PN      N1000R$  000000000011900000000001190000000000119000000000011900000000001190000000000000000000000000000001000000000000003000000000000000357000000000000298002013102100000010000000000000BRBBDCACNPR8602
012013072578BBDCJ31     070BBDC        PN      N1000R$  000000000008200000000000820000000000082000000000008200000000000820000000000010000000000000000001000000000000003000000000000000246000000000000308002013102100000010000000000000BRBBDCACNPR8602
012013072578BBDCK33     070BBDC        PN      N1000R$  000000000005100000000000530000000000051000000000005100000000000530000000000021000000000000000003000000000000450000000000000023250000000000000328002013111800000010000000000000BRBBDCACNPR8602
012013072582BBDCT25     080BBDCE       PN      N1000R$  000000000000700000000000070000000000006000000000000600000000000060000000000000000000000000000003000000000000030100000000000000180700000000000248002013081900000010000000000000BRBBDCACNPR8602
012013072582BBDCT26     080BBDCE       PN      N1000R$  000000000000900000000000110000000000009000000000001000000000000100000000000000000000000000000004000000000000019600000000000000200400000000000258002013081900000010000000000000BRBBDCACNPR8602
012013072582BBDCT27     080BBDCE       PN      N1000R$  000000000001900000000000190000000000019000000000001900000000000190000000000013000000000002800003000000000000005500000000000000104500000000000268002013081900000010000000000000BRBBDCACNPR8602
012013072582BBDCT28     080BBDCE       PN      N1000R$  000000000003900000000000470000000000038000000000004000000000000390000000000000000000000006500055000000000000072600000000000002972600000000000278002013081900000010000000000000BRBBDCACNPR8602
012013072582BBDCT29     080BBDCE       PN      N1000R$  000000000007300000000000880000000000066000000000007600000000000790000000000000000000000011800040000000000000072400000000000005552300000000000288002013081900000010000000000000BRBBDCACNPR8602
012013072582BBDCT30     080BBDCE       PN      N1000R$  000000000012600000000001420000000000124000000000013200000000001320000000000125000000000000000053000000000000097300000000000012938900000000000298002013081900000010000000000000BRBBDCACNPR8602
012013072582BBDCT31     080BBDCE       PN      N1000R$  000000000019200000000002210000000000184000000000020800000000002070000000000000000000000000000019000000000000035300000000000007350300000000000307602013081900000010000000000000BRBBDCACNPR8600
012013072582BBDCT34     080BBDCE       PN      N1000R$  000000000017600000000002000000000000176000000000019100000000001880000000000000000000000000000011000000000000020100000000000003851600000000000305502013081900000010000000000000BRBBDCACNPR8595
012013072582BBDCU27     080BBDCE       PN      N1000R$  000000000004100000000000470000000000041000000000004300000000000410000000000000000000000000000011000000000000021400000000000000922400000000000268002013091600000010000000000000BRBBDCACNPR8602
012013072582BBDCU28     080BBDCE       PN      N1000R$  000000000006400000000000750000000000060000000000006600000000000670000000000000000000000000000021000000000000038900000000000002593200000000000278002013091600000010000000000000BRBBDCACNPR8602
012013072582BBDCU29     080BBDCE       PN      N1000R$  000000000009900000000001160000000000094000000000010500000000001030000000000000000000000000000035000000000000064200000000000006782100000000000288002013091600000010000000000000BRBBDCACNPR8602
012013072582BBDCU30     080BBDCE       PN      N1000R$  000000000015100000000001710000000000145000000000015700000000001540000000000000000000000000000062000000000000109500000000000017256900000000000298002013091600000010000000000000BRBBDCACNPR8602
012013072582BBDCU31     080BBDCE       PN      N1000R$  000000000005500000000000550000000000055000000000005500000000000550000000000000000000000000000001000000000000001000000000000000055000000000000273102013091600000010000000000000BRBBDCACNPR8590
012013072582BBDCU32     080BBDCE       PN      N1000R$  000000000028900000000003090000000000278000000000029800000000003000000000000000000000000000000014000000000000025000000000000007456000000000000318002013091600000010000000000000BRBBDCACNPR8602
012013072582BBDCU33     080BBDCE       PN      N1000R$  000000000015000000000001560000000000150000000000015300000000001560000000000000000000000000000002000000000000004000000000000000612000000000000297402013091600000010000000000000BRBBDCACNPR8598
012013072582BBDCU75     080BBDCE       PN      N1000R$  000000000008500000000000850000000000085000000000008500000000000850000000000000000000000000000001000000000000002000000000000000170000000000000282502013091600000010000000000000BRBBDCACNPR8604
012013072582BBDCU81     080BBDCE       PN      N1000R$  000000000021500000000002360000000000215000000000022800000000002270000000000000000000000000000005000000000000006000000000000001369000000000000308002013091600000010000000000000BRBBDCACNPR8602
012013072582BBDCV1      080BBDCE       PN      N1000R$  000000000028300000000002830000000000283000000000028300000000002830000000000000000000000000000001000000000000001000000000000000283000000000000314802013102100000010000000000000BRBBDCACNPR8603
012013072582BBDCV25     080BBDCE       PN      N1000R$  000000000003600000000000360000000000033000000000003400000000000340000000000000000000000000000004000000000000006400000000000000219600000000000249802013102100000010000000000000BRBBDCACNPR8603
012013072582BBDCV26     080BBDCE       PN      N1000R$  000000000005300000000000530000000000053000000000005300000000000530000000000000000000000000000001000000000000002000000000000000106000000000000260002013102100000010000000000000BRBBDCACNPR8604
012013072582BBDCV27     080BBDCE       PN      N1000R$  000000000007200000000000720000000000068000000000007000000000000680000000000000000000000000000005000000000000008000000000000000562000000000000268002013102100000010000000000000BRBBDCACNPR8602
012013072582BBDCV28     080BBDCE       PN      N1000R$  000000000002800000000000290000000000028000000000002800000000000290000000000000000000000000000003000000000000004200000000000000120600000000000246002013102100000010000000000000BRBBDCACNPR8591
012013072582BBDCV29     080BBDCE       PN      N1000R$  000000000014300000000001430000000000130000000000013400000000001300000000000000000000000000000013000000000000019000000000000002563000000000000288002013102100000010000000000000BRBBDCACNPR8602
012013072582BBDCV30     080BBDCE       PN      N1000R$  000000000017500000000001910000000000175000000000018100000000001780000000000000000000000000000009000000000000014000000000000002538200000000000298002013102100000010000000000000BRBBDCACNPR8602
012013072582BBDCV31     080BBDCE       PN      N1000R$  000000000025200000000002520000000000236000000000024200000000002360000000000000000000000000000004000000000000006600000000000001603600000000000308002013102100000010000000000000BRBBDCACNPR8602
012013072582BBDCW27     080BBDCE       PN      N1000R$  000000000009000000000000900000000000089000000000008900000000000890000000000000000000000000000004000000000000450000000000000040378500000000000269802013111800000010000000000000BRBBDCACNPR8603
012013072582BBDCW8      080BBDCE       PN      N1000R$  000000000003500000000000350000000000035000000000003500000000000350000000000000000000000000000003000000000000007200000000000000252000000000000246202013111800000010000000000000BRBBDCACNPR8592
012013072512BBFI11B     010FII BB PROGRCI      MB   R$  000000042800000000004294990000000428000000000042916500000004294980000000422501000000042949800004000000000000000027000000000011587477000000000000009999123100000010000000000000BRBBFICTF006196
012013072512BBPO11      010FII BB PRGIICI           R$  000000001142000000000114200000000011163000000001126600000000112850000000011285000000001130000178000000000000015494000000000174556114000000000000009999123100000010000000000000BRBBPOCTF003108
012013072512BBRC11      010FII BB CORP CI           R$  000000000930000000000094000000000009201000000000923100000000092080000000009201000000000927400025000000000000002397000000000022128157000000000000009999123100000010000000000000BRBBRCCTF004122
012013072502BBRK3       010BR BROKERS  ON      NM   R$  000000000059500000000006000000000000580000000000058800000000005940000000000594000000000059504231000000000000965000000000000568054500000000000000009999123100000010000000000000BRBBRKACNOR4108
012013072596BBRK3F      020BR BROKERS  ON      NM   R$  000000000058300000000005850000000000583000000000058400000000005850000000000558000000000075000002000000000000000058000000000000033872000000000000009999123100000010000000000000BRBBRKACNOR4108
012013072502BBSE3       010BBSEGURIDADEON      NM   R$  000000000178300000000018180000000001782000000000180900000000018110000000001810000000000181207262000000000003145900000000005692865300000000000000009999123100000010000000000000BRBBSEACNOR5100
012013072596BBSE3F      020BBSEGURIDADEON      NM   R$  000000000177500000000018170000000001775000000000180500000000018120000000001810000000000181200658000000000000021304000000000038455726000000000000009999123100000010000000000000BRBBSEACNOR5100
012013072502BBTG11      010BTG PACTUAL UNT          R$  000000000278600000000028490000000002746000000000280800000000028150000000002811000000000281500658000000000000141600000000000397724200000000000000009999123100000010000000000000BRBBTGUNT007104
012013072596BBTG11F     020BTG PACTUAL UNT          R$  000000000280000000000028400000000002750000000000279600000000028310000000002779000000000299500010000000000000000157000000000000439022000000000000009999123100000010000000000000BRBBTGUNT007104
012013072512BBVJ11      010FII C JARDIMCI           R$  000000000806000000000080600000000008000000000000801500000000080600000000008010000000000806000033000000000000001637000000000013122180000000000000009999123100000010000000000000BRBBVJCTF001131
012013072512BCFF11B     010FII BC FFII CI      MB   R$  000000000989000000000099000000000009721000000000977500000000098490000000009800000000000985000049000000000000003677000000000035944683000000000000009999123100000010000000000000BRBCFFCTF000140
012013072596BDLL3F      020BARDELLA    ON           R$  000000000500000000000050000000000005000000000000500000000000050000000000004200000000000000000003000000000000000012000000000000060000000000000000009999123100000010000000000000BRBDLLACNOR1149
012013072502BDLL4       010BARDELLA    PN           R$  000000000499900000000050000000000004997000000000499800000000050000000000004700000000000500000007000000000000001700000000000008497900000000000000009999123100000010000000000000BRBDLLACNPR8149
012013072596BDLL4F      020BARDELLA    PN           R$  000000000510000000000051000000000005100000000000510000000000051000000000004650000000000629900004000000000000000020000000000000102000000000000000009999123100000010000000000000BRBDLLACNPR8149
012013072562BDLL4T      030BARDELLA    PN        120R$  000000000512900000000051300000000005129000000000512900000000051300000000000000000000000000000004000000000000001000000000000005129474000000000000009999123100000010000000000000BRBDLLACNPR8149
012013072502BEEF3       010MINERVA     ON      NM   R$  000000000092300000000009400000000000914000000000092600000000009220000000000922000000000092502187000000000000682600000000000632303000000000000000009999123100000010000000000000BRBEEFACNOR6104
012013072596BEEF3F      020MINERVA     ON      NM   R$  000000000091100000000009330000000000911000000000092100000000009250000000000910000000000102200008000000000000000178000000000000164000000000000000009999123100000010000000000000BRBEEFACNOR6104
012013072502BEES3       010BANESTES    ON           R$  000000000004800000000000480000000000047000000000004700000000000480000000000047000000000004800022000000000000128100000000000006038000000000000000009999123100000010000000000000BRBEESACNOR9242
012013072502BEMA3       010BEMATECH    ON      NM   R$  000000000074700000000007630000000000746000000000075500000000007570000000000757000000000076000117000000000000066000000000000049848000000000000000009999123100000010000000000000BRBEMAACNOR0113
012013072502BGIP4       010BANESE      PN           R$  000000000510000000000051000000000005100000000000510000000000051000000000004632000000000510000001000000000000000100000000000000510000000000000000009999123100000010000000000000BRBGIPACNPR8178
012013072502BHGR3       010BHG         ON      NM   R$  000000000168200000000016990000000001665000000000167600000000016750000000001675000000000168000262000000000000069300000000000116210900000000000000009999123100000010000000000000BRBHGRACNOR9101
012013072502BICB4       010BICBANCO    PN      N1   R$  000000000040200000000004270000000000402000000000040900000000004070000000000407000000000041500183000000000000086100000000000035276000000000000000009999123100000010000000000000BRBICBACNPR7131
012013072596BICB4F      020BICBANCO    PN      N1   R$  000000000040400000000004040000000000404000000000040400000000004040000000000410000000000042600003000000000000000030000000000000012120000000000000009999123100000010000000000000BRBICBACNPR7131
012013072502BIOM4       010BIOMM       PN           R$  000000000088000000000008800000000000880000000000088000000000008800000000000840000000000088500001000000000000001000000000000000880000000000000000009999123100000010000000000000BRBIOMACNPR9101
012013072596BIOM4F      020BIOMM       PN           R$  000000000090000000000009000000000000900000000000090000000000009000000000000800000000000088000001000000000000000001000000000000000900000000000000009999123100000010000000000000BRBIOMACNPR9101
012013072502BISA3       010BROOKFIELD  ON      NM   R$  000000000017600000000001820000000000171000000000017700000000001800000000000180000000000018104827000000000008987800000000001599270500000000000000009999123100000010000000000000BRBISAACNOR8109
012013072596BISA3F      020BROOKFIELD  ON      NM   R$  000000000017400000000001820000000000173000000000017600000000001820000000000170000000000018200012000000000000000398000000000000070385000000000000009999123100000010000000000000BRBISAACNOR8109
012013072562BISA3T      030BROOKFIELD  ON      NM032R$  000000000017800000000001790000000000178000000000017800000000001790000000000000000000000000000002000000000000025000000000000004455975000000000000009999123100000010000000000000BRBISAACNOR8109
012013072562BISA3T      030BROOKFIELD  ON      NM060R$  000000000018000000000001810000000000180000000000018000000000001810000000000000000000000000000002000000000000265000000000000047863399000000000000009999123100000010000000000000BRBISAACNOR8109
012013072562BISA3T      030BROOKFIELD  ON      NM090R$  000000000018200000000001830000000000178000000000018100000000001820000000000000000000000000000010000000000000825000000000000149480345000000000000009999123100000010000000000000BRBISAACNOR8109
012013072512BJRC11      010FII JS RECIMCI           R$  000000008550000000000929990000000085500000000009064400000000929000000000085500000000009290000021000000000000000801000000000072605935000000000000009999123100000010000000000000BRBJRCCTF007108
012013072502BMEB4       010MERC BRASIL PN           R$  000000000113000000000011300000000001130000000000113000000000011300000000001050000000000113000001000000000000015000000000000016950000000000000000009999123100000010000000000000BRBMEBACNPR5190
012013072512BMLC11B     010FII BMBRC LCCI      MB   R$  000000001174000000000117400000000011675000000001169200000000116750000000011690000000001174000004000000000000000268000000000003133620000000000000009999123100000010000000000000BRBMLCCTF004117
012013072512BNFS11      010FII BANRISULCI           R$  000000001018800000000101880000000010099000000001018000000000101000000000010000000000001010000003000000000000000048000000000000488670000000000000009999123100000010000000000000BRBNFSCTF000110
012013072514BOVA11      010ISHARES BOVACI           R$  000000000471800000000048220000000004700000000000478300000000048140000000004814000000000481506106000000000002930650000000014017380510000000000000009999123100000010000000000000BRBOVACTF003101
012013072596BOVA11F     020ISHARES BOVACI           R$  000000000452700000000048400000000004527000000000472800000000048400000000004739000000000484100008000000000000000019000000000000089843000000000000009999123100000010000000000000BRBOVACTF003101
012013072562BOVA11T     030ISHARES BOVACI        060R$  000000000486100000000048620000000004861000000000486100000000048620000000000000000000000000000002000000000000000850000000000004132677000000000000009999123100000010000000000000BRBOVACTF003101
012013072512BPFF11      010FII ABSOLUTOCI           R$  000000000890000000000090000000000008770000000000882200000000090000000000008900000000000900000009000000000000000599000000000005284920000000000000009999123100000010000000000000BRBPFFCTF002103
012013072502BPHA3       010BR PHARMA   ON      NM   R$  000000000096900000000010000000000000969000000000099400000000010000000000000994000000000100001658000000000000821800000000000817486000000000000000009999123100000010000000000000BRBPHAACNOR6102
012013072596BPHA3F      020BR PHARMA   ON      NM   R$  000000000100000000000010040000000000973000000000098700000000010040000000000991000000000109500008000000000000000207000000000000204453000000000000009999123100000010000000000000BRBPHAACNOR6102
012013072562BPHA3T      030BR PHARMA   ON      NM032R$  000000000100600000000010070000000001006000000000100600000000010070000000000000000000000000000002000000000000005000000000000005030964000000000000009999123100000010000000000000BRBPHAACNOR6102
012013072578BPHAI40     070BPHA        ON      NM000R$  000000000002400000000000240000000000024000000000002400000000000240000000000000000000000000000002000000000000900000000000000021600000000000000104002013091600000010000000000000BRBPHAACNOR6102
012013072582BPHAU85     080BPHAE       ON      NM000R$  000000000000400000000000040000000000004000000000000400000000000040000000000000000000000000000002000000000000900000000000000003600000000000000085002013091600000010000000000000BRBPHAACNOR6102
012013072582BPHAU95     080BPHAE       ON      NM000R$  000000000002400000000000240000000000024000000000002400000000000240000000000000000000000000000002000000000000900000000000000021600000000000000095002013091600000010000000000000BRBPHAACNOR6102
012013072502BPNM4       010PANAMERICANOPN      N1   R$  000000000056600000000005700000000000559000000000056500000000005700000000000564000000000057000137000000000000058900000000000033285800000000000000009999123100000010000000000000BRBPNMACNPR6111
012013072596BPNM4F      020PANAMERICANOPN      N1   R$  000000000060000000000006000000000000558000000000055900000000005580000000000551000000000059800003000000000000000032000000000000017907000000000000009999123100000010000000000000BRBPNMACNPR6111
012013072502BRAP3       010BRADESPAR   ON      N1   R$  000000000187500000000019480000000001842000000000187500000000019480000000001870000000000194900068000000000000305600000000000573038700000000000000009999123100000010000000000000BRBRAPACNOR5124
012013072596BRAP3F      020BRADESPAR   ON      N1   R$  000000000185500000000018880000000001825000000000184700000000018870000000001851000000000192000005000000000000000022000000000000040646000000000000009999123100000010000000000000BRBRAPACNOR5124
012013072502BRAP4       010BRADESPAR   PN      N1   R$  000000000224300000000023020000000002243000000000228500000000022990000000002291000000000229902559000000000000676600000000001546543000000000000000009999123100000010000000000000BRBRAPACNPR2124
012013072596BRAP4F      020BRADESPAR   PN      N1   R$  000000000223000000000023180000000002230000000000227300000000022900000000002278000000000229000052000000000000000960000000000002182911000000000000009999123100000010000000000000BRBRAPACNPR2124
012013072562BRAP4T      030BRADESPAR   PN      N1028R$  000000000231300000000023140000000002313000000000231300000000023140000000000000000000000000000002000000000000000100000000000000231308000000000000009999123100000010000000000000BRBRAPACNPR2124
012013072514BRAX11      010ISHARES BRAXCI           R$  000000000398500000000039850000000003929000000000395700000000039290000000003700000000000400000002000000000000000200000000000000791400000000000000009999123100000010000000000000BRBRAXCTF002100
012013072512BRCR11      010FII BC FUND CI           R$  000000001340000000000135000000000013375000000001340200000000133770000000013377000000001348400197000000000000014661000000000196494219000000000000009999123100000010000000000000BRBRCRCTF000131
012013072502BRFS3       010BRF SA      ON      NM   R$  000000000476100000000048800000000004746000000000484100000000048530000000004853000000000485903998000000000001034700000000005009393600000000000000009999123100000010000000000000BRBRFSACNOR8110
012013072596BRFS3F      020BRF SA      ON      NM   R$  000000000479900000000048670000000004751000000000483400000000048590000000004820000000000487200123000000000000003287000000000015896944000000000000009999123100000010000000000000BRBRFSACNOR8110
012013072578BRFSJ75     070BRFS        ON      NM000R$  000000000004600000000000520000000000046000000000005100000000000520000000000000000000000000000002000000000000001100000000000000056600000000000515002013102100000010000000000000BRBRFSACNOR8110
012013072582BRFSV45     080BRFSE       ON      NM000R$  000000000002000000000000240000000000020000000000002300000000000240000000000000000000000000000002000000000000001100000000000000026000000000000450002013102100000010000000000000BRBRFSACNOR8110
012013072582BRFSV48     080BRFSE       ON      NM000R$  000000000010100000000001130000000000101000000000011100000000001130000000000000000000000000000003000000000000001100000000000000122700000000000480002013102100000010000000000000BRBRFSACNOR8110
012013072502BRGE3       010ALFA CONSORCON           R$  000000000040000000000004000000000000400000000000040000000000004000000000000350000000000045500001000000000000000600000000000000240000000000000000009999123100000010000000000000BRBRGEACNOR6196
012013072502BRIN3       010BR INSURANCEON      NM   R$  000000000206200000000021320000000002062000000000211600000000021250000000002125000000000212600776000000000000337300000000000713765300000000000000009999123100000010000000000000BRBRINACNOR3105
012013072596BRIN3F      020BR INSURANCEON      NM   R$  000000000208100000000021480000000002081000000000213400000000021480000000002026000000000214800010000000000000000198000000000000422654000000000000009999123100000010000000000000BRBRINACNOR3105
012013072502BRIV3       010ALFA INVEST ON           R$  000000000064800000000006480000000000648000000000064800000000006480000000000646000000000069900001000000000000003000000000000001944000000000000000009999123100000010000000000000BRBRIVACNOR6196
012013072502BRIV4       010ALFA INVEST PN           R$  000000000055000000000006030000000000550000000000058000000000005900000000000556000000000060500036000000000000029700000000000017234000000000000000009999123100000010000000000000BRBRIVACNPR3196
012013072502BRKM3       010BRASKEM     ON      N1   R$  000000000116100000000011620000000001161000000000116100000000011610000000001161000000000117800041000000000000009000000000000010450900000000000000009999123100000010000000000000BRBRKMACNOR1110
012013072502BRKM5       010BRASKEM     PNA     N1   R$  000000000171500000000017500000000001694000000000172800000000017250000000001710000000000172505184000000000001593700000000002754396100000000000000009999123100000010000000000000BRBRKMACNPA4110
012013072596BRKM5F      020BRASKEM     PNA     N1   R$  000000000171800000000017460000000001703000000000172500000000017030000000001703000000000174000025000000000000000955000000000001647806000000000000009999123100000010000000000000BRBRKMACNPA4110
012013072562BRKM5T      030BRASKEM     PNA     N1032R$  000000000173900000000017400000000001739000000000173900000000017400000000000000000000000000000002000000000000000300000000000000521925000000000000009999123100000010000000000000BRBRKMACNPA4110
012013072502BRML3       010BR MALLS PARON      NM   R$  000000000204500000000020830000000002035000000000205000000000020600000000002060000000000206108064000000000003412100000000006997496100000000000000009999123100000010000000000000BRBRMLACNOR9105
012013072596BRML3F      020BR MALLS PARON      NM   R$  000000000206000000000020780000000002039000000000205200000000020590000000002043000000000205900031000000000000001063000000000002182359000000000000009999123100000010000000000000BRBRMLACNOR9105
012013072562BRML3T      030BR MALLS PARON      NM180R$  000000000214600000000021470000000002146000000000214600000000021470000000000000000000000000000002000000000000000100000000000000214639000000000000009999123100000010000000000000BRBRMLACNOR9105
012013072502BRPR3       010BR PROPERT  ON      NM   R$  000000000196000000000019600000000001903000000000192300000000019100000000001910000000000191506071000000000001700300000000003269932200000000000000009999123100000010000000000000BRBRPRACNOR9112
012013072596BRPR3F      020BR PROPERT  ON      NM   R$  000000000195800000000020080000000001902000000000192100000000019020000000001902000000000201000046000000000000001488000000000002858293000000000000009999123100000010000000000000BRBRPRACNOR9112
012013072562BRPR3T      030BR PROPERT  ON      NM060R$  000000000195900000000019600000000001958000000000195900000000019590000000000000000000000000000004000000000000002000000000000003918808000000000000009999123100000010000000000000BRBRPRACNOR9112
012013072502BRSR6       010BANRISUL    PNB     N1   R$  000000000146900000000014970000000001469000000000148700000000014890000000001483000000000148901247000000000000228600000000000339957000000000000000009999123100000010000000000000BRBRSRACNPB4133
012013072596BRSR6F      020BANRISUL    PNB     N1   R$  000000000148000000000015940000000001478000000000149700000000014780000000001480000000000160700020000000000000000538000000000000805714000000000000009999123100000010000000000000BRBRSRACNPB4133
012013072562BRSR6T      030BANRISUL    PNB     N1032R$  000000000150100000000015020000000001501000000000150100000000015020000000000000000000000000000004000000000000001000000000000001501436000000000000009999123100000010000000000000BRBRSRACNPB4133
012013072502BSEV3       010BIOSEV      ON      NM   R$  000000000120700000000012110000000001207000000000120900000000012110000000001210000000000121700002000000000000000200000000000000241800000000000000009999123100000010000000000000BRBSEVACNOR3100
012013072596BSEV3F      020BIOSEV      ON      NM   R$  000000000121500000000012150000000001212000000000121200000000012120000000001208000000000121500002000000000000000066000000000000080019000000000000009999123100000010000000000000BRBSEVACNOR3100
012013072502BTOW3       010B2W DIGITAL ON      NM   R$  000000000112500000000011740000000001089000000000113000000000011740000000001148000000000117401744000000000000645200000000000730149700000000000000009999123100000010000000000000BRBTOWACNOR8105
012013072596BTOW3F      020B2W DIGITAL ON      NM   R$  000000000112500000000011790000000001112000000000112800000000011770000000001100000000000117700027000000000000000962000000000001088556000000000000009999123100000010000000000000BRBTOWACNOR8105
012013072562BTOW3T      030B2W DIGITAL ON      NM032R$  000000000110300000000011040000000001103000000000110300000000011040000000000000000000000000000002000000000000002000000000000002206425000000000000009999123100000010000000000000BRBTOWACNOR8105
012013072502BTTL3       010BATTISTELLA ON           R$  000000000008400000000000840000000000084000000000008400000000000840000000000079000000000008400002000000000000000200000000000000016800000000000000009999123100000010000000000000BRBTTLACNOR0105
012013072502BTTL4       010BATTISTELLA PN           R$  000000000010000000000001020000000000100000000000010100000000001020000000000100000000000010300005000000000000024700000000000002518600000000000000009999123100000010000000000000BRBTTLACNPR7105
012013072502BVMF3       010BMFBOVESPA  ON      NM   R$  000000000122100000000012570000000001217000000000123800000000012570000000001252000000000125712566000000000007588000000000009398355100000000000000009999123100000010000000000000BRBVMFACNOR3125
012013072596BVMF3F      020BMFBOVESPA  ON      NM   R$  000000000122000000000012580000000001216000000000123500000000012270000000001227000000000125500074000000000000002416000000000002984944000000000000009999123100000010000000000000BRBVMFACNOR3125
012013072578BVMFH1      070BVMFE       ON      NM000R$  000000000001200000000000130000000000012000000000001200000000000130000000000004000000000001400002000000000000004200000000000000053900000000000132502013081900000010000000000000BRBVMFACNOR3125
012013072578BVMFH11     070BVMF        ON      NM000R$  000000000013800000000001610000000000133000000000014900000000001610000000000132000000000016900024000000000000019700000000000002942900000000000110002013081900000010000000000000BRBVMFACNOR3125
012013072578BVMFH12     070BVMF  FM    ON      NM000R$  000000000006100000000000800000000000058000000000007000000000000800000000000079000000000008100161000000000000383500000000000026926900000000000120002013081900000010000000000000BRBVMFACNOR3125
012013072578BVMFH13     070BVMF  FM    ON      NM000R$  000000000001900000000000250000000000018000000000002100000000000240000000000023000000000002500175000000000000478900000000000010264000000000000128902013081900000010000000000000BRBVMFACNOR3124
012013072578BVMFH14     070BVMF  FM    ON      NM000R$  000000000000300000000000040000000000003000000000000300000000000030000000000003000000000000400039000000000000183000000000000000612300000000000138902013081900000010000000000000BRBVMFACNOR3124
012013072578BVMFH42     070BVMF  FM    ON      NM000R$  000000000003300000000000440000000000030000000000003300000000000440000000000028000000000006100021000000000000102400000000000003464000000000000125002013081900000010000000000000BRBVMFACNOR3125
012013072578BVMFH43     070BVMF  FM    ON      NM000R$  000000000000700000000000080000000000007000000000000700000000000080000000000006000000000001100014000000000000056900000000000000438900000000000135002013081900000010000000000000BRBVMFACNOR3125
012013072578BVMFH62     070BVMFE       ON      NM000R$  000000000005500000000000550000000000054000000000005400000000000540000000000000000000000000000002000000000000012000000000000000650100000000000122502013081900000010000000000000BRBVMFACNOR3125
012013072578BVMFI12     070BVMF  FM    ON      NM000R$  000000000008000000000000970000000000080000000000009400000000000960000000000072000000000000000009000000000000014700000000000001383600000000000120002013091600000010000000000000BRBVMFACNOR3125
012013072578BVMFI13     070BVMF  FM    ON      NM000R$  000000000003400000000000430000000000034000000000003800000000000390000000000035000000000003900020000000000000044300000000000001688000000000000130002013091600000010000000000000BRBVMFACNOR3125
012013072578BVMFI14     070BVMF  FM    ON      NM000R$  000000000001000000000000100000000000010000000000001000000000000100000000000012000000000001300003000000000000004100000000000000041000000000000140002013091600000010000000000000BRBVMFACNOR3125
012013072578BVMFI42     070BVMF  FM    ON      NM000R$  000000000006300000000000630000000000063000000000006300000000000630000000000000000000000000000003000000000000007500000000000000472500000000000125002013091600000010000000000000BRBVMFACNOR3125
012013072578BVMFI43     070BVMF  FM    ON      NM000R$  000000000002100000000000260000000000021000000000002300000000000220000000000017000000000002800009000000000000012400000000000000291700000000000135002013091600000010000000000000BRBVMFACNOR3125
012013072578BVMFI44     070BVMF        ON      NM000R$  000000000000800000000000080000000000008000000000000800000000000080000000000000000000000000000001000000000000000100000000000000000800000000000145002013091600000010000000000000BRBVMFACNOR3125
012013072578BVMFJ13     070BVMF        ON      NM000R$  000000000005800000000000620000000000058000000000006000000000000620000000000000000000000000000003000000000000010000000000000000600000000000000130002013102100000010000000000000BRBVMFACNOR3125
012013072578BVMFK13     070BVMF        ON      NM000R$  000000000007700000000000770000000000077000000000007700000000000770000000000050000000000008000001000000000000001800000000000000138600000000000130002013111800000010000000000000BRBVMFACNOR3125
012013072582BVMFQ73     080BVMFE       ON      NM000R$  000000000010800000000001080000000000108000000000010800000000001080000000000000000000000000000001000000000000015200000000000001641600000000000128902014051900000010000000000000BRBVMFACNOR3124
012013072582BVMFR63     080BVMFE       ON      NM000R$  000000000011500000000001150000000000115000000000011500000000001150000000000000000000000000000001000000000000023700000000000002725500000000000130002014061600000010000000000000BRBVMFACNOR3125
012013072582BVMFT1      080BVMFE       ON      NM000R$  000000000008400000000000840000000000084000000000008400000000000840000000000000000000000011900002000000000000016000000000000001344000000000000132502013081900000010000000000000BRBVMFACNOR3125
012013072582BVMFT11     080BVMFE       ON      NM000R$  000000000001200000000000120000000000006000000000000800000000000060000000000006000000000003300015000000000000005800000000000000051000000000000110002013081900000010000000000000BRBVMFACNOR3125
012013072582BVMFT12     080BVMFE FM    ON      NM000R$  000000000003800000000000380000000000022000000000003300000000000220000000000021000000000002300033000000000000058700000000000001990300000000000120002013081900000010000000000000BRBVMFACNOR3125
012013072582BVMFT13     080BVMFE FM    ON      NM000R$  000000000007300000000000730000000000056000000000006100000000000570000000000000000000000008900052000000000000062800000000000003879000000000000128902013081900000010000000000000BRBVMFACNOR3124
012013072582BVMFT14     080BVMFE       ON      NM000R$  000000000016400000000001640000000000164000000000016400000000001640000000000000000000000000000001000000000000004000000000000000656000000000000138902013081900000010000000000000BRBVMFACNOR3124
012013072582BVMFT41     080BVMFE FM    ON      NM000R$  000000000001600000000000160000000000016000000000001600000000000160000000000000000000000005500001000000000000001800000000000000028800000000000115002013081900000010000000000000BRBVMFACNOR3125
012013072582BVMFT42     080BVMFE FM    ON      NM000R$  000000000005800000000000580000000000043000000000004600000000000430000000000000000000000000000006000000000000010100000000000000467800000000000125002013081900000010000000000000BRBVMFACNOR3125
012013072582BVMFT43     080BVMFE       ON      NM000R$  000000000012200000000001220000000000122000000000012200000000001220000000000000000000000015000001000000000000001800000000000000219600000000000135002013081900000010000000000000BRBVMFACNOR3125
012013072582BVMFT61     080BVMFE       ON      NM000R$  000000000002300000000000230000000000019000000000002200000000000190000000000000000000000002000002000000000000000400000000000000008800000000000117502013081900000010000000000000BRBVMFACNOR3125
012013072582BVMFT62     080BVMFE       ON      NM000R$  000000000003100000000000310000000000031000000000003100000000000310000000000000000000000000000001000000000000000100000000000000003100000000000122502013081900000010000000000000BRBVMFACNOR3125
012013072582BVMFU11     080BVMFE       ON      NM000R$  000000000001800000000000180000000000018000000000001800000000000180000000000000000000000000000001000000000000001700000000000000030600000000000110002013091600000010000000000000BRBVMFACNOR3125
012013072582BVMFU12     080BVMFE FM    ON      NM000R$  000000000004500000000000470000000000034000000000003800000000000340000000000033000000000004500035000000000000069100000000000002634000000000000120002013091600000010000000000000BRBVMFACNOR3125
012013072582BVMFU13     080BVMFE FM    ON      NM000R$  000000000008800000000000880000000000082000000000008400000000000830000000000053000000000000000004000000000000007300000000000000614100000000000130002013091600000010000000000000BRBVMFACNOR3125
012013072582BVMFU42     080BVMFE FM    ON      NM000R$  000000000005600000000000560000000000052000000000005400000000000530000000000000000000000000000004000000000000013500000000000000736000000000000125002013091600000010000000000000BRBVMFACNOR3125
012013072582BVMFV11     080BVMFE       ON      NM000R$  000000000002800000000000280000000000028000000000002800000000000280000000000000000000000000000001000000000000000100000000000000002800000000000110002013102100000010000000000000BRBVMFACNOR3125
012013072582BVMFV12     080BVMFE       ON      NM000R$  000000000005200000000000520000000000052000000000005200000000000520000000000044000000000000000001000000000000000100000000000000005200000000000120002013102100000010000000000000BRBVMFACNOR3125
012013072582BVMFW11     080BVMFE       ON      NM000R$  000000000003400000000000340000000000034000000000003400000000000340000000000000000000000000000001000000000000000800000000000000027200000000000110002013111800000010000000000000BRBVMFACNOR3125
012013072582BVMFW12     080BVMFE       ON      NM000R$  000000000005800000000000580000000000053000000000005300000000000530000000000050000000000000000003000000000000004400000000000000237200000000000120002013111800000010000000000000BRBVMFACNOR3125
012013072502CARD3       010CSU CARDSYSTON      NM   R$  000000000033500000000003350000000000327000000000033000000000003320000000000329000000000033200017000000000000029900000000000009892000000000000000009999123100000010000000000000BRCARDACNOR9105
012013072502CBEE3       010AMPLA ENERG ON *         R$  000000000012400000000001240000000000124000000000012400000000001240000000000115000000000012900002000000000000200000000000000000024800000000000000009999123100010000000000000000BRCBEEACNOR3149
012013072596CBMA3F      020COBRASMA    ON           R$  000000000000500000000000050000000000005000000000000500000000000050000000000004000000000000500001000000000000000001000000000000000005000000000000009999123100000010000000000000BRCBMAACNOR4124
012013072502CBMA4       010COBRASMA    PN           R$  000000000000500000000000060000000000005000000000000500000000000060000000000005000000000000600010000000000000200000000000000001060000000000000000009999123100000010000000000000BRCBMAACNPR1124
012013072596CBMA4F      020COBRASMA    PN           R$  000000000000500000000000050000000000004000000000000400000000000050000000000004000000000000500003000000000000006001000000000000025005000000000000009999123100000010000000000000BRCBMAACNPR1124
012013072508CCHI3       010CHIARELLI   ON           R$  000000000003100000000000310000000000029000000000003000000000000290000000000029000000000003000047000000000000750000000000000022530000000000000000009999123100000010000000000000BRCCHIACNOR5123
012013072596CCHI3F      020CHIARELLI   ON           R$  000000000003000000000000300000000000028000000000002800000000000280000000000028000000000003000007000000000000008648000000000000246444000000000000009999123100000010000000000000BRCCHIACNOR5123
012013072508CCHI4       010CHIARELLI   PN           R$  000000000002500000000000250000000000023000000000002400000000000240000000000022000000000002500003000000000000030000000000000000720000000000000000009999123100000010000000000000BRCCHIACNPR2122
012013072502CCPR3       010CYRE COM-CCPON      NM   R$  000000000202200000000020900000000002000000000000201400000000020000000000002000000000000209900016000000000000004200000000000008462400000000000000009999123100000010000000000000BRCCPRACNOR9107
012013072596CCPR3F      020CYRE COM-CCPON      NM   R$  000000000200000000000020000000000002000000000000200000000000020000000000001921000000000219000001000000000000000038000000000000076000000000000000009999123100000010000000000000BRCCPRACNOR9107
012013072502CCRO3       010CCR SA      ON      NM   R$  000000000174200000000017990000000001736000000000178000000000017890000000001778000000000179008647000000000002887000000000005141162900000000000000009999123100000010000000000000BRCCROACNOR2122
012013072596CCRO3F      020CCR SA      ON      NM   R$  000000000175700000000018040000000001740000000000178000000000017830000000001778000000000179900061000000000000001984000000000003532058000000000000009999123100000010000000000000BRCCROACNOR2122
012013072502CCXC3       010CCX CARVAO  ON      NM   R$  000000000009600000000001020000000000095000000000009800000000001010000000000100000000000010100435000000000000904300000000000089367300000000000000009999123100000010000000000000BRCCXCACNOR5100
012013072596CCXC3F      020CCX CARVAO  ON      NM   R$  000000000009500000000001010000000000095000000000009900000000001010000000000098000000000011000011000000000000000351000000000000034920000000000000009999123100000010000000000000BRCCXCACNOR5100
012013072562CCXC3T      030CCX CARVAO  ON      NM060R$  000000000009900000000001000000000000099000000000009900000000001000000000000000000000000000000002000000000000002000000000000000198489000000000000009999123100000010000000000000BRCCXCACNOR5100
012013072502CEBR3       010CEB         ON           R$  000000000175000000000017500000000001750000000000175000000000017500000000000000000000000175000001000000000000000300000000000000525000000000000000009999123100000010000000000000BRCEBRACNOR5114
012013072502CEBR5       010CEB         PNA          R$  000000000230000000000023000000000002300000000000230000000000023000000000002300000000000251500001000000000000000100000000000000230000000000000000009999123100000010000000000000BRCEBRACNPA8113
012013072596CEDO3F      020CEDRO       ON      N1   R$  000000000100100000000010010000000001001000000000100100000000010010000000000000000000000100100001000000000000000036000000000000036036000000000000009999123100000010000000000000BRCEDOACNOR8094
012013072502CEEB3       010COELBA      ON           R$  000000000329000000000032900000000003290000000000329000000000032900000000000000000000000350000002000000000000003100000000000010199000000000000000009999123100000010000000000000BRCEEBACNOR3163
012013072508CELP3       010CELPA       ON           R$  000000000006800000000000700000000000068000000000006800000000000700000000000066000000000007000005000000000000229100000000000015579000000000000000009999123100000010000000000000BRCELPACNOR8112
012013072512CEOC11B     010FII CEO CCP CI      MB   R$  000000000900000000000091000000000008857000000000897500000000091000000000008950000000000910000062000000000000003348000000000030051269000000000000009999123100000010000000000000BRCEOCCTF003108
012013072596CESP5F      020CESP        PNA     N1   R$  000000000205100000000020510000000002051000000000205100000000020510000000002051000000000227500002000000000000000020000000000000041020000000000000009999123100000010000000000000BRCESPACNPA6108
012013072502CESP6       010CESP        PNB     N1   R$  000000000204800000000020970000000002048000000000207400000000020850000000002085000000000209102063000000000000545500000000001131433600000000000000009999123100000010000000000000BRCESPACNPB4118
012013072596CESP6F      020CESP        PNB     N1   R$  000000000205700000000020990000000002057000000000206300000000020990000000002065000000000209900007000000000000000133000000000000275254000000000000009999123100000010000000000000BRCESPACNPB4118
012013072562CESP6T      030CESP        PNB     N1028R$  000000000209800000000020990000000002098000000000209800000000020990000000000000000000000000000002000000000000000100000000000000209859000000000000009999123100000010000000000000BRCESPACNPB4118
012013072578CESPH21     070CESP        PNB     N1000R$  000000000008000000000000890000000000070000000000008000000000000850000000000056000000000010000036000000000000053200000000000004305900000000000210002013081900000010000000000000BRCESPACNPB4118
012013072502CGAS3       010COMGAS      ON           R$  000000000505000000000050500000000005050000000000505000000000050500000000004950000000000505000002000000000000002900000000000014645000000000000000009999123100000010000000000000BRCGASACNOR0132
012013072502CGAS5       010COMGAS      PNA          R$  000000000547800000000055890000000005460000000000549700000000055290000000005529000000000556100190000000000000096800000000000532115900000000000000009999123100000010000000000000BRCGASACNPA3129
012013072596CGAS5F      020COMGAS      PNA          R$  000000000547500000000055700000000005475000000000549000000000055700000000005511000000000556900008000000000000000136000000000000746690000000000000009999123100000010000000000000BRCGASACNPA3129
012013072502CGRA3       010GRAZZIOTIN  ON           R$  000000000148600000000014900000000001476000000000148300000000014760000000001476000000000155000023000000000000005500000000000008158600000000000000009999123100000010000000000000BRCGRAACNOR2061
012013072502CGRA4       010GRAZZIOTIN  PN           R$  000000000161300000000016190000000001554000000000159100000000015810000000001581000000000160800048000000000000012000000000000019103900000000000000009999123100000010000000000000BRCGRAACNPR9061
012013072596CGRA4F      020GRAZZIOTIN  PN           R$  000000000164000000000016400000000001600000000000162600000000016000000000001610000000000171500003000000000000000100000000000000162600000000000000009999123100000010000000000000BRCGRAACNPR9061
012013072502CIEL3       010CIELO       ON      NM   R$  000000000547800000000055680000000005474000000000552000000000055500000000005550000000000555105800000000000001568000000000008656875400000000000000009999123100000010000000000000BRCIELACNOR3111
012013072596CIEL3F      020CIELO       ON      NM   R$  000000000549300000000055620000000005480000000000551400000000055590000000005501000000000555900071000000000000001887000000000010405415000000000000009999123100000010000000000000BRCIELACNOR3111
012013072562CIEL3T      030CIELO       ON      NM018R$  000000000550100000000055020000000005501000000000550100000000055020000000000000000000000000000002000000000000001000000000000005501464000000000000009999123100000010000000000000BRCIELACNOR3111
012013072502CLSC4       010CELESC      PN      N2   R$  000000000185800000000019390000000001842000000000187400000000019200000000001920000000000194000065000000000000009900000000000018552700000000000000009999123100000010000000000000BRCLSCACNPR3107
012013072596CLSC4F      020CELESC      PN      N2   R$  000000000184200000000018420000000001842000000000184200000000018420000000001752000000000198500002000000000000000032000000000000058944000000000000009999123100000010000000000000BRCLSCACNPR3107
012013072562CLSC4T      030CELESC      PN      N2120R$  000000000189900000000019000000000001898000000000189900000000018990000000000000000000000000000004000000000000000700000000000001329415000000000000009999123100000010000000000000BRCLSCACNPR3107
012013072502CMIG3       010CEMIG       ON      N1   R$  000000000214500000000022200000000002145000000000219900000000022000000000002199000000000220000655000000000000144800000000000318556800000000000000009999123100000010000000000000BRCMIGACNOR6208
012013072596CMIG3F      020CEMIG       ON      N1   R$  000000000217000000000022200000000002143000000000219300000000022140000000002190000000000221400035000000000000000799000000000001752956000000000000009999123100000010000000000000BRCMIGACNOR6208
012013072562CMIG3T      030CEMIG       ON      N1180R$  000000000229200000000022930000000002292000000000229200000000022930000000000000000000000000000004000000000000000111000000000000254504000000000000009999123100000010000000000000BRCMIGACNOR6208
012013072502CMIG4       010CEMIG       PN      N1   R$  000000000210300000000021950000000002103000000000216900000000021800000000002179000000000218009633000000000003203600000000006950518400000000000000009999123100000010000000000000BRCMIGACNPR3208
012013072596CMIG4F      020CEMIG       PN      N1   R$  000000000211000000000021920000000002103000000000217000000000021870000000002173000000000218700123000000000000002926000000000006351520000000000000009999123100000010000000000000BRCMIGACNPR3208
012013072562CMIG4T      030CEMIG       PN      N1028R$  000000000219300000000021940000000002193000000000219300000000021940000000000000000000000000000002000000000000000100000000000000219325000000000000009999123100000010000000000000BRCMIGACNPR3208
012013072578CMIGH21     070CMIG        PN      N1000R$  000000000009000000000001110000000000090000000000010000000000001110000000000000000000000000000002000000000000000600000000000000060300000000000210002013081900000010000000000000BRCMIGACNPR3208
012013072578CMIGH22     070CMIG        PN      N1000R$  000000000005000000000000690000000000050000000000005700000000000690000000000005000000000006800008000000000000004600000000000000263400000000000220002013081900000010000000000000BRCMIGACNPR3208
012013072582CMIGU20     080CMIGE       PN      N1000R$  000000000003200000000000320000000000031000000000003100000000000310000000000000000000000000000002000000000000050000000000000001580000000000000200002013091600000010000000000000BRCMIGACNPR3208
012013072512CNES11B     010FII CENESP  CI  ER  MB   R$  000000001248100000000126000000000012480000000001251400000000124800000000012480000000001260000008000000000000000170000000000002127524000000000000009999123100000010000000000000BRCNESCTF001124
012013072502COCE3       010COELCE      ON           R$  000000000438800000000043880000000004388000000000438800000000043880000000004300000000000438000001000000000000000100000000000000438800000000000000009999123100000010000000000000BRCOCEACNOR0132
012013072502COCE5       010COELCE      PNA          R$  000000000416000000000043900000000004160000000000423100000000042370000000004237000000000424800106000000000000018800000000000079544300000000000000009999123100000010000000000000BRCOCEACNPA3133
012013072596COCE5F      020COELCE      PNA          R$  000000000423000000000043840000000004220000000000422600000000042200000000004200000000000438600011000000000000000179000000000000756618000000000000009999123100000010000000000000BRCOCEACNPA3133
012013072502CPFE3       010CPFL ENERGIAON      NM   R$  000000000207300000000021620000000002073000000000213200000000021500000000002147000000000215003714000000000000797200000000001699990200000000000000009999123100000010000000000000BRCPFEACNOR0121
012013072596CPFE3F      020CPFL ENERGIAON      NM   R$  000000000204000000000021890000000002040000000000213300000000021870000000002135000000000219900022000000000000000587000000000001252081000000000000009999123100000010000000000000BRCPFEACNOR0121
012013072502CPLE3       010COPEL       ON      N1   R$  000000000221400000000022460000000002181000000000219300000000021810000000002180000000000220000108000000000000046600000000000102208700000000000000009999123100000010000000000000BRCPLEACNOR8128
012013072502CPLE6       010COPEL       PNB     N1   R$  000000000285000000000029080000000002836000000000289000000000029000000000002900000000000290801134000000000000279900000000000808947400000000000000009999123100000010000000000000BRCPLEACNPB9125
012013072596CPLE6F      020COPEL       PNB     N1   R$  000000000290000000000029640000000002850000000000289100000000029610000000002885000000000296100025000000000000000515000000000001489159000000000000009999123100000010000000000000BRCPLEACNPB9125
012013072562CPLE6T      030COPEL       PNB     N1028R$  000000000291900000000029200000000002919000000000291900000000029200000000000000000000000000000002000000000000000100000000000000291929000000000000009999123100000010000000000000BRCPLEACNPB9125
012013072502CPRE3       010CPFL RENOVAVON      NM   R$  000000000116000000000011710000000001140000000000115700000000011510000000001151000000000115900141000000000000194000000000000224497100000000000000009999123100000010000000000000BRCPREACNOR5100
012013072596CPRE3F      020CPFL RENOVAVON      NM   R$  000000000116500000000011800000000001102000000000114500000000011250000000001141000000000115900070000000000000002763000000000003164853000000000000009999123100000010000000000000BRCPREACNOR5100
012013072562CPRE3T      030CPFL RENOVAVON      NM032R$  000000000116400000000011650000000001164000000000116400000000011650000000000000000000000000000002000000000000001500000000000001747301000000000000009999123100000010000000000000BRCPREACNOR5100
012013072596CPTP3BF     020CAPITALPART ON      MB   R$  000000000000500000000000050000000000005000000000000500000000000050000000000005000000000000000001000000000000000012000000000000000060000000000000009999123100000010000000000000BRCPTPACNOR7104
012013072502CRDE3       010CR2         ON      NM   R$  000000000040000000000004100000000000400000000000040900000000004100000000000410000000000042000004000000000000003300000000000001351000000000000000009999123100000010000000000000BRCRDEACNOR1108
012013072502CREM3       010CREMER      ON      NM   R$  000000000141400000000014150000000001414000000000141400000000014150000000001405000000000141500002000000000000001100000000000001556400000000000000009999123100000010000000000000BRCREMACNOR2166
012013072502CRIV3       010ALFA FINANC ON           R$  000000000055800000000005580000000000558000000000055800000000005580000000000515000000000056800001000000000000004600000000000002566800000000000000009999123100000010000000000000BRCRIVACNOR4189
012013072502CRUZ3       010SOUZA CRUZ  ON           R$  000000000278500000000028130000000002775000000000279300000000027750000000002775000000000279003606000000000000836600000000002337382000000000000000009999123100000010000000000000BRCRUZACNOR0246
012013072596CRUZ3F      020SOUZA CRUZ  ON           R$  000000000278500000000028200000000002748000000000279000000000028000000000002720000000000280000043000000000000001060000000000002958008000000000000009999123100000010000000000000BRCRUZACNOR0246
012013072578CRUZE82     070CRUZ        ON        000R$  000000000010900000000001090000000000109000000000010900000000001090000000000000000000000000000001000000000000003000000000000000327000000000000319902014051900000010000000000000BRCRUZACNOR0245
012013072502CSAN3       010COSAN       ON      NM   R$  000000000433300000000043500000000004263000000000429500000000042750000000004275000000000428905477000000000002266500000000009735489000000000000000009999123100000010000000000000BRCSANACNOR6107
012013072596CSAN3F      020COSAN       ON      NM   R$  000000000436900000000043690000000004268000000000431300000000042900000000004280000000000429000072000000000000002197000000000009476456000000000000009999123100000010000000000000BRCSANACNOR6107
012013072562CSAN3T      030COSAN       ON      NM018R$  000000000431700000000043180000000004317000000000431700000000043180000000000000000000000000000002000000000000001000000000000004317630000000000000009999123100000010000000000000BRCSANACNOR6107
012013072562CSAN3T      030COSAN       ON      NM032R$  000000000431700000000043180000000004317000000000431700000000043180000000000000000000000000000002000000000000000200000000000000863432000000000000009999123100000010000000000000BRCSANACNOR6107
012013072578CSANH38     070CSAN        ON      NM000R$  000000000050200000000005020000000000502000000000050200000000005020000000000000000000000000000001000000000000500000000000000251000000000000000380002013081900000010000000000000BRCSANACNOR6107
012013072502CSCO11B     010CISCO       DRN     MB   R$  000000000575500000000057550000000005755000000000575500000000057550000000005100000000000630000001000000000000000400000000000002302000000000000000009999123100000010000000000000BRCSCOBDR004110
012013072502CSMG3       010COPASA      ON      NM   R$  000000000349900000000036290000000003499000000000355800000000036290000000003555000000000362901495000000000000220700000000000785323300000000000000009999123100000010000000000000BRCSMGACNOR5127
012013072596CSMG3F      020COPASA      ON      NM   R$  000000000366300000000036630000000003530000000000355100000000035610000000003520000000000357000014000000000000000362000000000001287736000000000000009999123100000010000000000000BRCSMGACNOR5127
012013072514CSMO11      010ISHARES CSMOCI           R$  000000000453500000000045350000000004500000000000452400000000045270000000003800000000000461000004000000000000000310000000000001402740000000000000009999123100000010000000000000BRCSMOCTF002100
012013072596CSMO11F     020ISHARES CSMOCI           R$  000000000498000000000049800000000004980000000000498000000000049800000000000000000000000498000001000000000000000001000000000000004980000000000000009999123100000010000000000000BRCSMOCTF002100
012013072502CSNA3       010SID NACIONALON           R$  000000000062500000000006470000000000625000000000063800000000006400000000000639000000000064004740000000000004933200000000003149808300000000000000009999123100000010000000000000BRCSNAACNOR6242
012013072596CSNA3F      020SID NACIONALON           R$  000000000063000000000006470000000000629000000000063900000000006470000000000632000000000064700042000000000000001351000000000000863807000000000000009999123100000010000000000000BRCSNAACNOR6242
012013072562CSNA3T      030SID NACIONALON        032R$  000000000064800000000006490000000000648000000000064800000000006490000000000000000000000000000002000000000000005000000000000003241574000000000000009999123100000010000000000000BRCSNAACNOR6242
012013072562CSNA3T      030SID NACIONALON        060R$  000000000065000000000006510000000000650000000000065000000000006510000000000000000000000000000002000000000000004000000000000002600614000000000000009999123100000010000000000000BRCSNAACNOR6242
012013072562CSNA3T      030SID NACIONALON        090R$  000000000065600000000006570000000000656000000000065600000000006570000000000000000000000000000002000000000000000900000000000000590844000000000000009999123100000010000000000000BRCSNAACNOR6242
012013072562CSNA3T      030SID NACIONALON        120R$  000000000064900000000006500000000000649000000000064900000000006500000000000000000000000000000002000000000000150000000000000097394850000000000000009999123100000010000000000000BRCSNAACNOR6242
012013072578CSNAH6      070CSNA        ON        000R$  000000000006000000000000600000000000060000000000006000000000000600000000000055000000000000000001000000000000000100000000000000006000000000000060002013081900000010000000000000BRCSNAACNOR6242
012013072578CSNAH62     070CSNA  FM    ON        000R$  000000000003400000000000340000000000034000000000003400000000000340000000000000000000000007000001000000000000003500000000000000119000000000000062002013081900000010000000000000BRCSNAACNOR6242
012013072578CSNAH64     070CSNA  FM    ON        000R$  000000000002600000000000310000000000026000000000003000000000000310000000000015000000000005000003000000000000003000000000000000092000000000000064002013081900000010000000000000BRCSNAACNOR6242
012013072578CSNAH65     070CSNAE       ON        000R$  000000000002400000000000240000000000024000000000002400000000000240000000000000000000000000000001000000000000000500000000000000012000000000000065002013081900000010000000000000BRCSNAACNOR6242
012013072578CSNAH68     070CSNA  FM    ON        000R$  000000000001300000000000140000000000013000000000001300000000000130000000000003000000000006000006000000000000011000000000000000148000000000000068002013081900000010000000000000BRCSNAACNOR6242
012013072578CSNAH7      070CSNA  FM    ON        000R$  000000000000700000000000080000000000007000000000000700000000000080000000000007000000000000900009000000000000026700000000000000211600000000000070002013081900000010000000000000BRCSNAACNOR6242
012013072578CSNAI6      070CSNA        ON        000R$  000000000006900000000000690000000000058000000000005900000000000610000000000000000000000000000003000000000000010500000000000000628500000000000060002013091600000010000000000000BRCSNAACNOR6242
012013072578CSNAI62     070CSNA  FM    ON        000R$  000000000004700000000000550000000000047000000000005100000000000550000000000000000000000000000009000000000000030500000000000001584000000000000062002013091600000010000000000000BRCSNAACNOR6242
012013072578CSNAI64     070CSNA  FM    ON        000R$  000000000003800000000000410000000000038000000000003900000000000410000000000000000000000000000003000000000000010500000000000000409500000000000064002013091600000010000000000000BRCSNAACNOR6242
012013072578CSNAI66     070CSNA  FM    ON        000R$  000000000003300000000000350000000000032000000000003200000000000320000000000028000000000000000005000000000000018500000000000000606500000000000066002013091600000010000000000000BRCSNAACNOR6242
012013072578CSNAI7      070CSNA  FM    ON        000R$  000000000001800000000000180000000000018000000000001800000000000180000000000007000000000002000001000000000000000100000000000000001800000000000070002013091600000010000000000000BRCSNAACNOR6242
012013072578CSNAJ6      070CSNA        ON        000R$  000000000008000000000000800000000000080000000000008000000000000800000000000000000000000000000001000000000000000500000000000000040000000000000060002013102100000010000000000000BRCSNAACNOR6242
012013072582CSNAT62     080CSNAE FM    ON        000R$  000000000001600000000000160000000000016000000000001600000000000160000000000000000000000000000003000000000000005500000000000000088000000000000062002013081900000010000000000000BRCSNAACNOR6242
012013072582CSNAU6      080CSNAE FM    ON        000R$  000000000002100000000000210000000000021000000000002100000000000210000000000000000000000000000001000000000000002000000000000000042000000000000060002013091600000010000000000000BRCSNAACNOR6242
012013072582CSNAU7      080CSNAE       ON        000R$  000000000008200000000000820000000000082000000000008200000000000820000000000062000000000008000001000000000000000100000000000000008200000000000070002013091600000010000000000000BRCSNAACNOR6242
012013072502CTAX11      010CONTAX      UNT     N2   R$  000000000173200000000017320000000001686000000000171000000000017140000000001701000000000171400042000000000000067100000000000114767000000000000000009999123100000010000000000000BRCTAXCDAM19100
012013072502CTAX3       010CONTAX      ON      N2   R$  000000000040000000000004000000000000395000000000039800000000003950000000000395000000000041100004000000000000003200000000000001276500000000000000009999123100000010000000000000BRCTAXACNOR3113
012013072596CTAX3F      020CONTAX      ON      N2   R$  000000000040500000000004050000000000405000000000040500000000004050000000000405000000000000000001000000000000000005000000000000002025000000000000009999123100000010000000000000BRCTAXACNOR3113
012013072502CTAX4       010CONTAX      PN      N2   R$  000000000033300000000003360000000000326000000000032900000000003300000000000330000000000033200084000000000000082200000000000027054100000000000000009999123100000010000000000000BRCTAXACNPR0114
012013072596CTAX4F      020CONTAX      PN      N2   R$  000000000033100000000003310000000000323000000000032500000000003230000000000315000000000036100002000000000000000069000000000000022487000000000000009999123100000010000000000000BRCTAXACNPR0114
012013072502CTIP3       010CETIP       ON      NM   R$  000000000228900000000023490000000002274000000000232500000000023450000000002344000000000234504808000000000001310800000000003048599800000000000000009999123100000010000000000000BRCTIPACNOR2119
012013072596CTIP3F      020CETIP       ON      NM   R$  000000000230400000000023500000000002302000000000232600000000023450000000002300000000000233000062000000000000002087000000000004856908000000000000009999123100000010000000000000BRCTIPACNOR2119
012013072502CTKA4       010KARSTEN     PN           R$  000000000010500000000001050000000000105000000000010500000000001050000000000096000000000010500001000000000000000100000000000000010500000000000000009999123100000010000000000000BRCTKAACNPR7041
012013072502CTNM4       010COTEMINAS   PN           R$  000000000025000000000002500000000000233000000000024100000000002330000000000233000000000024800109000000000000124500000000000030087300000000000000009999123100000010000000000000BRCTNMACNPR6128
012013072562CTNM4T      030COTEMINAS   PN        120R$  000000000025600000000002570000000000256000000000025600000000002570000000000000000000000000000002000000000000059000000000000015134975000000000000009999123100000010000000000000BRCTNMACNPR6128
012013072502CTSA3       010SANTANENSE  ON           R$  000000000054600000000005460000000000531000000000053300000000005450000000000530000000000054500008000000000000005500000000000002933800000000000000009999123100000010000000000000BRCTSAACNOR3051
012013072502CTSA4       010SANTANENSE  PN           R$  000000000057800000000005780000000000578000000000057800000000005780000000000567000000000057900001000000000000000100000000000000057800000000000000009999123100000010000000000000BRCTSAACNPR0051
012013072512CXTL11      010FII CX TRX  CI           R$  000000007900000000000800000000000079000000000007996000000000800000000000076010000000008000000002000000000000000025000000000001999000000000000000009999123100000010000000000000BRCXTLCTF003120
012013072502CYRE3       010CYRELA REALTON      NM   R$  000000000165300000000016900000000001643000000000167500000000016850000000001676000000000168508415000000000002359400000000003953083500000000000000009999123100000010000000000000BRCYREACNOR7125
012013072596CYRE3F      020CYRELA REALTON      NM   R$  000000000165500000000017350000000001650000000000167400000000017350000000001671000000000173500017000000000000000494000000000000827268000000000000009999123100000010000000000000BRCYREACNOR7125
012013072578CYREH16     070CYRE  FM    ON      NM000R$  000000000009800000000001100000000000098000000000010400000000001100000000000000000000000000000009000000000000031500000000000003293500000000000160002013081900000010000000000000BRCYREACNOR7125
012013072578CYREH17     070CYRE  FM    ON      NM000R$  000000000003700000000000460000000000037000000000004200000000000460000000000000000000000000000006000000000000020500000000000000877500000000000170002013081900000010000000000000BRCYREACNOR7125
012013072578CYREH46     070CYRE  FM    ON      NM000R$  000000000007300000000000760000000000073000000000007400000000000760000000000000000000000000000005000000000000016500000000000001222000000000000165002013081900000010000000000000BRCYREACNOR7125
012013072578CYREH47     070CYRE  FM    ON      NM000R$  000000000002800000000000280000000000028000000000002800000000000280000000000000000000000000000001000000000000000700000000000000019600000000000175002013081900000010000000000000BRCYREACNOR7125
012013072578CYREI16     070CYRE  FM    ON      NM000R$  000000000012600000000001260000000000126000000000012600000000001260000000000000000000000000000001000000000000002400000000000000302400000000000160002013091600000010000000000000BRCYREACNOR7125
012013072582CYRET47     080CYREE FM    ON      NM000R$  000000000010800000000001080000000000084000000000009600000000000860000000000000000000000000000009000000000000025200000000000002433200000000000175002013081900000010000000000000BRCYREACNOR7125
012013072582CYREU47     080CYREE FM    ON      NM000R$  000000000011400000000001140000000000114000000000011400000000001140000000000000000000000000000001000000000000002400000000000000273600000000000175002013091600000010000000000000BRCYREACNOR7125
012013072582CYREW45     080CYREE       ON      NM000R$  000000000004600000000000460000000000046000000000004600000000000460000000000000000000000006000003000000000000132000000000000006072000000000000155002013111800000010000000000000BRCYREACNOR7125
012013072502CZLT11      010COSAN LTD   DR3          R$  000000000375000000000037500000000003640000000000367500000000036600000000003660000000000366200684000000000000244000000000000896792800000000000000009999123100000010000000000000BRCZLTBDR009104
012013072562CZLT11T     030COSAN LTD   DR3       120R$  000000000383500000000038360000000003835000000000383500000000038360000000000000000000000000000002000000000000003000000000000011506685000000000000009999123100000010000000000000BRCZLTBDR009104
012013072502DAGB11      010DUFRY AG    DR3          R$  000000002999700000000299990000000029202000000002963400000000299000000000029310000000002990001099000000000000006624000000000196300306000000000000009999123100000010000000000000BRDAGBBDR008100
012013072502DASA3       010DASA        ON      NM   R$  000000000120800000000012630000000001203000000000123100000000012420000000001242000000000124402867000000000001094300000000001347489300000000000000009999123100000010000000000000BRDASAACNOR1108
012013072596DASA3F      020DASA        ON      NM   R$  000000000121000000000013520000000001210000000000123800000000013520000000001202000000000135400006000000000000000084000000000000104051000000000000009999123100000010000000000000BRDASAACNOR1108
012013072502DAYC4       010DAYCOVAL    PN      N2   R$  000000000087600000000008890000000000868000000000087800000000008820000000000873000000000088200445000000000000083700000000000073528200000000000000009999123100000010000000000000BRDAYCACNPR2128
012013072596DAYC4F      020DAYCOVAL    PN      N2   R$  000000000088100000000008860000000000881000000000088400000000008850000000000828000000000096400003000000000000000115000000000000101682000000000000009999123100000010000000000000BRDAYCACNPR2128
012013072502DIRR3       010DIRECIONAL  ON      NM   R$  000000000125200000000012940000000001246000000000128700000000012890000000001286000000000128901659000000000000755000000000000971905300000000000000009999123100000010000000000000BRDIRRACNOR0104
012013072596DIRR3F      020DIRECIONAL  ON      NM   R$  000000000129000000000012900000000001203000000000126500000000012030000000001203000000000129900002000000000000000081000000000000102489000000000000009999123100000010000000000000BRDIRRACNOR0104
012013072578DIRRC13     070DIRR        ON      NM000R$  000000000018700000000001870000000000187000000000018700000000001870000000000000000000000000000002000000000000012000000000000002244000000000000130002014031700000010000000000000BRDIRRACNOR0104
012013072514DIVO11      010IT NOW IDIV CI           R$  000000000319000000000032040000000003189000000000319300000000032010000000003200000000000330000006000000000000001820000000000005811430000000000000009999123100000010000000000000BRDIVOCTF002100
012013072596DIVO11F     020IT NOW IDIV CI           R$  000000000309500000000031000000000003095000000000309600000000031000000000003000000000000310000005000000000000000017000000000000052641000000000000009999123100000010000000000000BRDIVOCTF002100
012013072502DTEX3       010DURATEX     ON  EJ  NM   R$  000000000136000000000013870000000001357000000000137300000000013690000000001369000000000137203964000000000001559700000000002141585700000000000000009999123100000010000000000000BRDTEXACNOR3115
012013072596DTEX3F      020DURATEX     ON  EJ  NM   R$  000000000136400000000013860000000001331000000000137000000000013860000000001357000000000138600027000000000000000963000000000001321087000000000000009999123100000010000000000000BRDTEXACNOR3115
012013072562DTEX3T      030DURATEX     ON  EJ  NM046R$  000000000138700000000013880000000001387000000000138700000000013880000000000000000000000000000002000000000000000600000000000000832450000000000000009999123100000010000000000000BRDTEXACNOR3115
012013072596EBTP3F      020EMBRATEL PARON *         R$  000000000095000000000009500000000000900000000000091600000000009000000000000855000000000095000003000000000000091293000000000000083663000000000000009999123100010000000000000000BREBTPACNOR3115
012013072502EBTP4       010EMBRATEL PARPN *         R$  000000000091700000000009170000000000917000000000091700000000009170000000000916000000000098900001000000000000100000000000000000091700000000000000009999123100010000000000000000BREBTPACNPR0120
012013072596EBTP4F      020EMBRATEL PARPN *         R$  000000000091100000000010000000000000911000000000091200000000009120000000000917000000000100000005000000000000042635000000000000038923000000000000009999123100010000000000000000BREBTPACNPR0120
012013072514ECOO11      010ISHARES ECOOCI           R$  000000000506100000000051830000000005061000000000515100000000051800000000005000000000000520000044000000000000011380000000000058625430000000000000009999123100000010000000000000BRECOOCTF008100
012013072596ECOO11F     020ISHARES ECOOCI           R$  000000000487600000000049500000000004876000000000488600000000049500000000004950000000000547000003000000000000000007000000000000034206000000000000009999123100000010000000000000BRECOOCTF008100
012013072502ECOR3       010ECORODOVIAS ON      NM   R$  000000000158800000000016280000000001574000000000161000000000016120000000001612000000000161504805000000000001377400000000002218015900000000000000009999123100000010000000000000BRECORACNOR8106
012013072596ECOR3F      020ECORODOVIAS ON      NM   R$  000000000160800000000016240000000001562000000000161100000000015620000000001557000000000162700014000000000000000392000000000000631549000000000000009999123100000010000000000000BRECORACNOR8106
012013072512EDGA11B     010FII GALERIA CI  ER  MB   R$  000000000810100000000082000000000008040000000000807900000000080490000000008031000000000804900039000000000000001220000000000009856873000000000000009999123100000010000000000000BREDGACTF001110
012013072502EEEL4       010CEEE-GT     PN      N1   R$  000000000016000000000001600000000000160000000000016000000000001600000000000156000000000016000003000000000000006500000000000001040000000000000000009999123100000010000000000000BREEELACNPR5102
012013072502ELET3       010ELETROBRAS  ON      N1   R$  000000000047200000000004920000000000471000000000048200000000004880000000000488000000000048902778000000000002026200000000000977463100000000000000009999123100000010000000000000BRELETACNOR6151
