00COTAHIST.2013BOVESPA 20130701                                                                                                                                                                                                                      
012013070102AAPL11B     010APPLE       DRN     MB   R$  000000000905000000000091650000000009050000000000914700000000091210000000009065000000000917000005000000000000003100000000000028356900000000000000009999123100000010000000000000BRAAPLBDR004104
012013070102ABCB4       010ABC BRASIL  PN  EJS N2   R$  000000000132700000000013620000000001308000000000132600000000013300000000001330000000000134001124000000000000280700000000000372327700000000000000009999123100000010000000000000BRABCBACNPR4120
012013070196ABCB4F      020ABC BRASIL  PN  EJS N2   R$  000000000132400000000013760000000001208000000000131000000000013760000000001208000000000137600009000000000000000161000000000000210989000000000000009999123100000010000000000000BRABCBACNPR4120
012013070102ABRE11      010ABRIL EDUCA UNT     N2   R$  000000000389000000000039220000000003868000000000388900000000038900000000003882000000000389000532000000000000075500000000000293656300000000000000009999123100000010000000000000BRABRECDAM15102
012013070196ABRE11F     020ABRIL EDUCA UNT     N2   R$  000000000400000000000040000000000003846000000000391900000000038880000000003846000000000389000008000000000000000283000000000001109123000000000000009999123100000010000000000000BRABRECDAM15102
012013070102AEDU3       010ANHANGUERA  ON      NM   R$  000000000129200000000013100000000001280000000000129600000000013000000000001295000000000130008068000000000002651100000000003436224300000000000000009999123100000010000000000000BRAEDUACNOR9107
012013070196AEDU3F      020ANHANGUERA  ON      NM   R$  000000000129000000000013390000000001282000000000130100000000012820000000001300000000000133200020000000000000000573000000000000745259000000000000009999123100000010000000000000BRAEDUACNOR9107
012013070112AEFI11      010FII AESAPAR CI  ER       R$  000000001225000000000122500000000012100000000001216800000000121900000000012100000000001219000035000000000000001199000000000014589582000000000000009999123100000010000000000000BRAEFICTF002119
012013070102AELP3       010AES ELPA    ON           R$  000000000080000000000008000000000000750000000000077700000000007780000000000711000000000077800007000000000000000700000000000000544000000000000000009999123100000010000000000000BRAELPACNOR2119
012013070196AELP3F      020AES ELPA    ON           R$  000000000082800000000008280000000000828000000000082800000000008280000000000608000000000199900001000000000000000008000000000000006624000000000000009999123100000010000000000000BRAELPACNOR2119
012013070112AGCX11      010FII AG CAIXACI  ER       R$  000000010200000000001020000000000100503000000010060300000001005030000000100300000000010050300006000000000000000229000000000023038115000000000000009999123100000010000000000000BRAGCXCTF003108
012013070102AGEN11      010AGRENCO     DR3          R$  000000000004400000000000450000000000043000000000004300000000000430000000000043000000000004400226000000000002960100000000000129792500000000000000009999123100000010000000000000BRAGENBDR001100
012013070102AGRO3       010BRASILAGRO  ON      NM   R$  000000000111000000000011100000000001110000000000111000000000011100000000001106000000000114900010000000000000001700000000000001887000000000000000009999123100000010000000000000BRAGROACNOR7102
012013070102ALLL3       010ALL AMER LATON      NM   R$  000000000093800000000009590000000000926000000000093900000000009390000000000936000000000093904442000000000001557600000000001463174700000000000000009999123100000010000000000000BRALLLACNOR6118
012013070196ALLL3F      020ALL AMER LATON      NM   R$  000000000094400000000009590000000000928000000000093900000000009500000000000928000000000095000088000000000000002923000000000002747444000000000000009999123100000010000000000000BRALLLACNOR6118
012013070178ALLLL11     070ALLL        ON      NM000R$  000000000002400000000000240000000000024000000000002400000000000240000000000000000000000000000001000000000000398000000000000009552000000000000110002013121600000010000000000000BRALLLACNOR6118
012013070182ALLLX75     080ALLLE       ON      NM000R$  000000000001000000000000100000000000010000000000001000000000000100000000000000000000000000000002000000000000398000000000000003980000000000000075002013121600000010000000000000BRALLLACNOR6118
012013070182ALLLX9      080ALLLE       ON      NM000R$  000000000004200000000000430000000000042000000000004200000000000430000000000000000000000000000002000000000000398000000000000016915000000000000090002013121600000010000000000000BRALLLACNOR6118
012013070102ALPA3       010ALPARGATAS  ON      N1   R$  000000000107000000000011160000000001014000000000108800000000010800000000001080000000000111500054000000000000040900000000000044512800000000000000009999123100000010000000000000BRALPAACNOR0202
012013070196ALPA3F      020ALPARGATAS  ON      N1   R$  000000000091000000000009100000000000910000000000091000000000009100000000000910000000000120000002000000000000000002000000000000001820000000000000009999123100000010000000000000BRALPAACNOR0202
012013070102ALPA4       010ALPARGATAS  PN      N1   R$  000000000142400000000014870000000001406000000000144400000000014620000000001462000000000146902402000000000000583000000000000842075400000000000000009999123100000010000000000000BRALPAACNPR7202
012013070196ALPA4F      020ALPARGATAS  PN      N1   R$  000000000142100000000015090000000001401000000000142800000000014770000000001430000000000147700082000000000000002595000000000003707237000000000000009999123100000010000000000000BRALPAACNPR7202
012013070162ALPA4T      030ALPARGATAS  PN      N1030R$  000000000143800000000014390000000001438000000000143800000000014390000000000000000000000000000002000000000000001000000000000001438431000000000000009999123100000010000000000000BRALPAACNPR7202
012013070102ALSC3       010ALIANSCE    ON      NM   R$  000000000195200000000019520000000001904000000000191800000000019160000000001916000000000191701085000000000000225500000000000432610700000000000000009999123100000010000000000000BRALSCACNOR0104
012013070196ALSC3F      020ALIANSCE    ON      NM   R$  000000000191400000000019140000000001914000000000191400000000019140000000001900000000000200000001000000000000000014000000000000026796000000000000009999123100000010000000000000BRALSCACNOR0104
012013070102ALUP11      010ALUPAR      UNT     N2   R$  000000000188800000000019210000000001888000000000191300000000019000000000001899000000000190000710000000000000293900000000000562236100000000000000009999123100000010000000000000BRALUPCDAM15100
012013070196ALUP11F     020ALUPAR      UNT     N2   R$  000000000190000000000020560000000001900000000000191500000000019030000000001902000000000205500173000000000000005903000000000011310086000000000000009999123100000010000000000000BRALUPCDAM15100
012013070102AMAR3       010LOJAS MARISAON      NM   R$  000000000230400000000023370000000002257000000000230100000000023050000000002304000000000230501482000000000000742800000000001709340200000000000000009999123100000010000000000000BRAMARACNOR4109
012013070196AMAR3F      020LOJAS MARISAON      NM   R$  000000000232000000000023980000000002300000000000232800000000023140000000002250000000000230800014000000000000000367000000000000854403000000000000009999123100000010000000000000BRAMARACNOR4109
012013070102AMBV3       010AMBEV       ON           R$  000000000818600000000083820000000008186000000000828900000000082770000000008276000000000827701026000000000000144800000000001200247400000000000000009999123100000010000000000000BRAMBVACNOR4153
012013070196AMBV3F      020AMBEV       ON           R$  000000000828000000000083600000000008250000000000828600000000082800000000008001000000000833400114000000000000002677000000000022180549000000000000009999123100000010000000000000BRAMBVACNOR4153
012013070162AMBV3T      030AMBEV       ON        030R$  000000000837800000000083790000000008378000000000837800000000083790000000000000000000000000000024000000000000002000000000000016756480000000000000009999123100000010000000000000BRAMBVACNOR4153
012013070102AMBV4       010AMBEV       PN           R$  000000000834900000000084610000000008303000000000836600000000083880000000008376000000000838806706000000000001316300000000011012586400000000000000009999123100000010000000000000BRAMBVACNPR1153
012013070196AMBV4F      020AMBEV       PN           R$  000000000837200000000084380000000008316000000000836300000000084090000000008318000000000838800228000000000000005255000000000043954459000000000000009999123100000010000000000000BRAMBVACNPR1153
012013070162AMBV4T      030AMBEV       PN        016R$  000000000840300000000084050000000008403000000000840300000000084050000000000000000000000000000006000000000000000800000000000006723153000000000000009999123100000010000000000000BRAMBVACNPR1153
012013070178AMBVG84     070AMBV        PN        000R$  000000000010000000000001010000000000100000000000010000000000001010000000000043000000000000000007000000000000001500000000000000150600000000000840002013071500000010000000000000BRAMBVACNPR1153
012013070178AMBVH86     070AMBV        PN        000R$  000000000013000000000001300000000000130000000000013000000000001300000000000000000000000000000005000000000000003100000000000000403000000000000860002013081900000010000000000000BRAMBVACNPR1153
012013070178AMBVH87     070AMBV        PN        000R$  000000000014800000000001480000000000148000000000014800000000001480000000000000000000000000000001000000000000060000000000000008880000000000000870002013081900000010000000000000BRAMBVACNPR1153
012013070178AMBVH88     070AMBV        PN        000R$  000000000016500000000001650000000000153000000000015600000000001530000000000000000000000000000004000000000000000500000000000000078200000000000880002013081900000010000000000000BRAMBVACNPR1153
012013070178AMBVH92     070AMBV        PN        000R$  000000000003500000000000350000000000035000000000003500000000000350000000000000000000000000000001000000000000050000000000000001750000000000000920002013081900000010000000000000BRAMBVACNPR1153
012013070178AMBVK87     070AMBV        PN        000R$  000000000038900000000003890000000000389000000000038900000000003890000000000000000000000000000001000000000000050000000000000019450000000000000870002013111800000010000000000000BRAMBVACNPR1153
012013070178AMBVK92     070AMBV        PN        000R$  000000000018100000000001820000000000181000000000018100000000001820000000000000000000000000000002000000000000050000000000000009095000000000000920002013111800000010000000000000BRAMBVACNPR1153
012013070102ARTR3       010ARTERIS     ON      NM   R$  000000000199100000000020230000000001972000000000199600000000019850000000001985000000000198603705000000000001730800000000003456278300000000000000009999123100000010000000000000BRARTRACNOR3101
012013070196ARTR3F      020ARTERIS     ON      NM   R$  000000000202600000000020640000000001965000000000199700000000019650000000001960000000000201000234000000000000006995000000000013969672000000000000009999123100000010000000000000BRARTRACNOR3101
012013070102ARZZ3       010AREZZO CO   ON  EJ  NM   R$  000000000334000000000033770000000003277000000000331700000000033190000000003303000000000331901192000000000000526200000000001745703100000000000000009999123100000010000000000000BRARZZACNOR3108
012013070196ARZZ3F      020AREZZO CO   ON  EJ  NM   R$  000000000310600000000033450000000003106000000000327400000000033000000000003115000000000360100023000000000000000827000000000002707985000000000000009999123100000010000000000000BRARZZACNOR3108
012013070102AUTM3       010AUTOMETAL   ON      NM   R$  000000000176700000000018040000000001767000000000178300000000017800000000001779000000000178000240000000000000090800000000000161948400000000000000009999123100000010000000000000BRAUTMACNOR8109
012013070196AUTM3F      020AUTOMETAL   ON      NM   R$  000000000178000000000017870000000001700000000000174000000000017870000000001750000000000179000005000000000000000177000000000000308062000000000000009999123100000010000000000000BRAUTMACNOR8109
012013070102AXPB11B     010AMERICAN EXPDRN     MB   R$  000000001688600000000168860000000016886000000001688600000000168860000000016611000000001710600001000000000000000100000000000001688600000000000000009999123100000010000000000000BRAXPBBDR007104
012013070102BAHI3       010BAHEMA      ON           R$  000000000051500000000005150000000000500000000000050200000000005000000000000500000000000052500018000000000000006200000000000003114400000000000000009999123100000010000000000000BRBAHIACNOR1066
012013070196BAHI3F      020BAHEMA      ON           R$  000000000051700000000005170000000000515000000000051600000000005150000000000515000000000125000004000000000000000100000000000000051618000000000000009999123100000010000000000000BRBAHIACNOR1066
012013070102BAZA3       010AMAZONIA    ON           R$  000000000003400000000000340000000000034000000000003400000000000340000000000033000000000003400005000000000000028000000000000000952000000000000000009999123100000010000000000000BRBAZAACNOR0163
012013070102BBAS3       010BRASIL      ON      NM   R$  000000000219800000000022320000000002161000000000218500000000022150000000002211000000000221521286000000000009182000000000020064036500000000000000009999123100000010000000000000BRBBASACNOR3237
012013070196BBAS3F      020BRASIL      ON      NM   R$  000000000219500000000022300000000002160000000000218700000000021850000000002185000000000223200304000000000000008910000000000019494710000000000000009999123100000010000000000000BRBBASACNOR3237
012013070162BBAS3T      030BRASIL      ON      NM016R$  000000000223100000000022320000000002178000000000220300000000021790000000000000000000000000000018000000000000002500000000000005509497000000000000009999123100000010000000000000BRBBASACNOR3237
012013070162BBAS3T      030BRASIL      ON      NM030R$  000000000218100000000021820000000002181000000000218100000000021820000000000000000000000000000002000000000000000200000000000000436217000000000000009999123100000010000000000000BRBBASACNOR3237
012013070162BBAS3T      030BRASIL      ON      NM091R$  000000000222100000000022220000000002221000000000222100000000022220000000000000000000000000000002000000000000004000000000000008884219000000000000009999123100000010000000000000BRBBASACNOR3237
012013070162BBAS3T      030BRASIL      ON      NM185R$  000000000230100000000023020000000002301000000000230100000000023020000000000000000000000000000002000000000000000500000000000001150653000000000000009999123100000010000000000000BRBBASACNOR3237
012013070178BBASG19     070BBAS        ON      NM000R$  000000000028500000000002850000000000285000000000028500000000002850000000000000000000000000000001000000000000003000000000000000855000000000000190002013071500000010000000000000BRBBASACNOR3237
012013070178BBASG20     070BBAS        ON      NM000R$  000000000022500000000002300000000000212000000000021800000000002300000000000000000000000000000005000000000000008000000000000001750000000000000197602013071500000010000000000000BRBBASACNOR3236
012013070178BBASG21     070BBAS  FM    ON      NM000R$  000000000024000000000002420000000000184000000000020600000000002410000000000215000000000026000246000000000000291400000000000060122800000000000199202013071500000010000000000000BRBBASACNOR3232
012013070178BBASG22     070BBAS  FM    ON      NM000R$  000000000012400000000001290000000000081000000000009700000000001290000000000121000000000012900217000000000000302900000000000029602400000000000211702013071500000010000000000000BRBBASACNOR3233
012013070178BBASG23     070BBAS  FM    ON      NM000R$  000000000003100000000000320000000000014000000000002000000000000320000000000018000000000003000096000000000000169300000000000003440800000000000226602013071500000010000000000000BRBBASACNOR3235
012013070178BBASG24     070BBAS  FM    ON      NM000R$  000000000001400000000000170000000000008000000000001000000000000160000000000009000000000001500063000000000000083000000000000000853700000000000231702013071500000010000000000000BRBBASACNOR3233
012013070178BBASG25     070BBAS  FM    ON      NM000R$  000000000000200000000000030000000000002000000000000200000000000030000000000002000000000000300008000000000000020100000000000000053700000000000246602013071500000010000000000000BRBBASACNOR3235
012013070178BBASG26     070BBAS        ON      NM000R$  000000000000200000000000020000000000002000000000000200000000000020000000000001000000000000200005000000000000020200000000000000040400000000000251702013071500000010000000000000BRBBASACNOR3233
012013070178BBASG27     070BBAS        ON      NM000R$  000000000000100000000000010000000000001000000000000100000000000010000000000000000000000000700002000000000000010000000000000000010000000000000266602013071500000010000000000000BRBBASACNOR3235
012013070178BBASG28     070BBAS        ON      NM000R$  000000000000100000000000010000000000001000000000000100000000000010000000000000000000000000100002000000000000011700000000000000011700000000000276602013071500000010000000000000BRBBASACNOR3235
012013070178BBASH19     070BBAS        ON      NM000R$  000000000031100000000003110000000000311000000000031100000000003110000000000000000000000000000001000000000000003000000000000000933000000000000190002013081900000010000000000000BRBBASACNOR3237
012013070178BBASH20     070BBAS        ON      NM000R$  000000000023100000000002310000000000231000000000023100000000002310000000000000000000000000000001000000000000001000000000000000231000000000000200002013081900000010000000000000BRBBASACNOR3237
012013070178BBASH21     070BBAS  FM    ON      NM000R$  000000000019100000000002000000000000158000000000016600000000002000000000000140000000000000000140000000000000721300000000000120136700000000000207602013081900000010000000000000BRBBASACNOR3236
012013070178BBASH22     070BBAS  FM    ON      NM000R$  000000000011500000000001300000000000097000000000010800000000001300000000000100000000000013500080000000000000124000000000000013466700000000000217602013081900000010000000000000BRBBASACNOR3236
012013070178BBASH23     070BBAS  FM    ON      NM000R$  000000000007000000000000700000000000050000000000005800000000000700000000000050000000000000000024000000000000040200000000000002353300000000000227602013081900000010000000000000BRBBASACNOR3236
012013070178BBASH24     070BBAS  FM    ON      NM000R$  000000000005300000000000590000000000037000000000004400000000000590000000000038000000000007500046000000000000083200000000000003675800000000000231702013081900000010000000000000BRBBASACNOR3233
012013070178BBASH25     070BBAS  FM    ON      NM000R$  000000000002600000000000300000000000016000000000002200000000000300000000000011000000000003500294000000000000555400000000000012356000000000000241702013081900000010000000000000BRBBASACNOR3233
012013070178BBASH26     070BBAS        ON      NM000R$  000000000000800000000000090000000000007000000000000800000000000090000000000007000000000001200012000000000000023100000000000000190300000000000256602013081900000010000000000000BRBBASACNOR3235
012013070178BBASI19     070BBAS        ON      NM000R$  000000000033200000000003370000000000332000000000033400000000003370000000000000000000000000000006000000000000016200000000000005414400000000000190002013091600000010000000000000BRBBASACNOR3237
012013070178BBASI20     070BBAS        ON      NM000R$  000000000025000000000002530000000000250000000000025100000000002530000000000000000000000000000003000000000000008800000000000002215000000000000200002013091600000010000000000000BRBBASACNOR3237
012013070178BBASI25     070BBAS        ON      NM000R$  000000000002500000000000340000000000025000000000002700000000000340000000000021000000000000000004000000000000004500000000000000125000000000000246602013091600000010000000000000BRBBASACNOR3235
012013070182BBASS20     080BBASE FM    ON      NM000R$  000000000000500000000000050000000000005000000000000500000000000050000000000000000000000002500001000000000000002000000000000000010000000000000197602013071500000010000000000000BRBBASACNOR3236
012013070182BBASS21     080BBASE FM    ON      NM000R$  000000000000700000000000080000000000006000000000000600000000000060000000000000000000000002500003000000000000004000000000000000027000000000000199202013071500000010000000000000BRBBASACNOR3232
012013070182BBASS22     080BBASE FM    ON      NM000R$  000000000002300000000000280000000000018000000000002300000000000180000000000042000000000010600013000000000000016300000000000000387800000000000211702013071500000010000000000000BRBBASACNOR3233
012013070182BBASS23     080BBASE FM    ON      NM000R$  000000000008000000000001110000000000068000000000009600000000000680000000000030000000000000000139000000000000314000000000000030270900000000000226602013071500000010000000000000BRBBASACNOR3235
012013070182BBASS24     080BBASE       ON      NM000R$  000000000013700000000001370000000000131000000000013400000000001310000000000060000000000000000005000000000000013600000000000001835200000000000231702013071500000010000000000000BRBBASACNOR3233
012013070182BBAST20     080BBASE FM    ON      NM000R$  000000000003000000000000300000000000029000000000002900000000000290000000000021000000000013500003000000000000004100000000000000120900000000000200002013081900000010000000000000BRBBASACNOR3237
012013070182BBAST21     080BBASE FM    ON      NM000R$  000000000003700000000000460000000000037000000000004300000000000450000000000067000000000000000014000000000000028300000000000001234200000000000207602013081900000010000000000000BRBBASACNOR3236
012013070182BBAST22     080BBASE FM    ON      NM000R$  000000000006400000000000860000000000064000000000007600000000000760000000000052000000000000000033000000000000060300000000000004624200000000000217602013081900000010000000000000BRBBASACNOR3236
012013070182BBAST23     080BBASE FM    ON      NM000R$  000000000010800000000001410000000000107000000000012800000000001070000000000000000000000000000077000000000000177800000000000022767400000000000227602013081900000010000000000000BRBBASACNOR3236
012013070182BBAST24     080BBASE       ON      NM000R$  000000000013900000000001600000000000139000000000014900000000001550000000000000000000000000000004000000000000015300000000000002287500000000000231702013081900000010000000000000BRBBASACNOR3233
012013070182BBASU22     080BBASE       ON      NM000R$  000000000009400000000000940000000000094000000000009400000000000940000000000000000000000000000001000000000000001200000000000000112800000000000217602013091600000010000000000000BRBBASACNOR3236
012013070182BBASU23     080BBASE       ON      NM000R$  000000000014400000000001440000000000144000000000014400000000001440000000000000000000000000000001000000000000003000000000000000432000000000000227602013091600000010000000000000BRBBASACNOR3236
012013070182BBASU24     080BBASE       ON      NM000R$  000000000020800000000002110000000000204000000000020700000000002110000000000000000000000000000004000000000000010800000000000002243900000000000237602013091600000010000000000000BRBBASACNOR3236
012013070182BBASU25     080BBASE       ON      NM000R$  000000000027600000000002760000000000276000000000027600000000002760000000000000000000000000000001000000000000002600000000000000717600000000000246602013091600000010000000000000BRBBASACNOR3235
012013070182BBASX20     080BBASE       ON      NM000R$  000000000006000000000000600000000000060000000000006000000000000600000000000000000000000000000001000000000000000300000000000000018000000000000200002013121600000010000000000000BRBBASACNOR3237
012013070102BBDC3       010BRADESCO    ON  EJ  N1   R$  000000000307600000000031000000000003033000000000307400000000030800000000003080000000000308304214000000000001425300000000004382320500000000000000009999123100000010000000000000BRBBDCACNOR1603
012013070196BBDC3F      020BRADESCO    ON  EJ  N1   R$  000000000308000000000030970000000003006000000000307200000000030150000000003014000000000309700154000000000000003964000000000012181289000000000000009999123100000010000000000000BRBBDCACNOR1603
012013070162BBDC3T      030BRADESCO    ON  EJ  N1030R$  000000000310500000000031060000000003102000000000310300000000031030000000000000000000000000000012000000000000026000000000000080690774000000000000009999123100000010000000000000BRBBDCACNOR1603
012013070102BBDC4       010BRADESCO    PN  EJ  N1   R$  000000000287500000000029000000000002840000000000286500000000028800000000002873000000000288017438000000000005072900000000014537236400000000000000009999123100000010000000000000BRBBDCACNPR8603
012013070196BBDC4F      020BRADESCO    PN  EJ  N1   R$  000000000288000000000029260000000002840000000000286500000000028790000000002859000000000287900538000000000000011351000000000032523937000000000000009999123100000010000000000000BRBBDCACNPR8603
012013070162BBDC4T      030BRADESCO    PN  EJ  N1016R$  000000000289400000000028950000000002894000000000289400000000028950000000000000000000000000000002000000000000001000000000000002894820000000000000009999123100000010000000000000BRBBDCACNPR8603
012013070162BBDC4T      030BRADESCO    PN  EJ  N1030R$  000000000288400000000028850000000002884000000000288400000000028850000000000000000000000000000002000000000000002300000000000006634762000000000000009999123100000010000000000000BRBBDCACNPR8603
012013070162BBDC4T      030BRADESCO    PN  EJ  N1060R$  000000000288200000000028980000000002882000000000288900000000028980000000000000000000000000000004000000000000001800000000000005200936000000000000009999123100000010000000000000BRBBDCACNPR8603
012013070178BBDCG26     070BBDC    /EJ PN      N1000R$  000000000029600000000002960000000000293000000000029300000000002930000000000000000000000000000002000000000000003600000000000001056600000000000258002013071500000010000000000000BRBBDCACNPR8601
012013070178BBDCG27     070BBDC    /EJ PN      N1000R$  000000000021100000000002200000000000183000000000020200000000002170000000000000000000000022800218000000000000382700000000000077549600000000000268002013071500000010000000000000BRBBDCACNPR8601
012013070178BBDCG28     070BBDC    /EJ PN      N1000R$  000000000012400000000001320000000000101000000000011700000000001290000000000105000000000013800191000000000000341300000000000039988400000000000278202013071500000010000000000000BRBBDCACNPR8602
012013070178BBDCG29     070BBDC    /EJ PN      N1000R$  000000000006500000000000650000000000044000000000005400000000000610000000000043000000000006200105000000000000133400000000000007233600000000000288202013071500000010000000000000BRBBDCACNPR8602
012013070178BBDCG30     070BBDC    /EJ PN      N1000R$  000000000002200000000000250000000000015000000000002000000000000220000000000015000000000002400077000000000000058200000000000001196800000000000298002013071500000010000000000000BRBBDCACNPR8601
012013070178BBDCG31     070BBDC    /EJ PN      N1000R$  000000000000700000000000100000000000006000000000000800000000000080000000000002000000000000800050000000000000048700000000000000394900000000000308002013071500000010000000000000BRBBDCACNPR8601
012013070178BBDCG32     070BBDC    /EJ PN      N1000R$  000000000000500000000000050000000000004000000000000400000000000040000000000000000000000000500002000000000000005000000000000000021000000000000317802013071500000010000000000000BRBBDCACNPR8600
012013070178BBDCG33     070BBDC    /EJ PN      N1000R$  000000000003500000000000440000000000031000000000004200000000000370000000000022000000000004800006000000000000005400000000000000227100000000000292102013071500000010000000000000BRBBDCACNPR8593
012013070178BBDCG34     070BBDC    /EJ PN      N1000R$  000000000002000000000000200000000000014000000000001900000000000140000000000012000000000002500002000000000000202000000000000004028000000000000300802013071500000010000000000000BRBBDCACNPR8591
012013070178BBDCG4      070BBDC    /EJ PN      N1000R$  000000000000100000000000010000000000001000000000000100000000000010000000000000000000000000200002000000000000005000000000000000005000000000000343002013071500000010000000000000BRBBDCACNPR8601
012013070178BBDCH26     070BBDC    /EJ PN      N1000R$  000000000032800000000003280000000000328000000000032800000000003280000000000000000000000000000001000000000000002000000000000000656000000000000258202013081900000010000000000000BRBBDCACNPR8602
012013070178BBDCH27     070BBDC    /EJ PN      N1000R$  000000000026100000000002700000000000235000000000025400000000002670000000000000000000000000000322000000000000331700000000000084352400000000000268202013081900000010000000000000BRBBDCACNPR8602
012013070178BBDCH28     070BBDC    /EJ PN      N1000R$  000000000018700000000001950000000000165000000000018000000000001930000000000162000000000000000090000000000000150900000000000027198000000000000278202013081900000010000000000000BRBBDCACNPR8602
012013070178BBDCH29     070BBDC    /EJ PN      N1000R$  000000000012600000000001330000000000108000000000011700000000001300000000000000000000000000000364000000000000326000000000000038317800000000000288202013081900000010000000000000BRBBDCACNPR8602
012013070178BBDCH30     070BBDC    /EJ PN      N1000R$  000000000007700000000000850000000000065000000000007500000000000840000000000062000000000008900233000000000000128500000000000009763900000000000298202013081900000010000000000000BRBBDCACNPR8602
012013070178BBDCH31     070BBDC    /EJ PN      N1000R$  000000000004700000000000490000000000036000000000004100000000000400000000000000000000000000000137000000000000045600000000000001893800000000000307802013081900000010000000000000BRBBDCACNPR8600
012013070178BBDCH32     070BBDC    /EJ PN      N1000R$  000000000002200000000000240000000000021000000000002200000000000240000000000009000000000000000007000000000000016500000000000000368000000000000318202013081900000010000000000000BRBBDCACNPR8602
012013070178BBDCH34     070BBDC    /EJ PN      N1000R$  000000000005300000000000530000000000046000000000005000000000000490000000000042000000000006800004000000000000005900000000000000298900000000000305702013081900000010000000000000BRBBDCACNPR8595
012013070178BBDCH39     070BBDC    /EJ PN      N1000R$  000000000000400000000000040000000000004000000000000400000000000040000000000000000000000000000001000000000000000700000000000000002800000000000352302013081900000010000000000000BRBBDCACNPR8601
012013070178BBDCI29     070BBDC    /EJ PN      N1000R$  000000000014900000000001490000000000149000000000014900000000001490000000000000000000000000000001000000000000003000000000000000447000000000000288202013091600000010000000000000BRBBDCACNPR8602
012013070178BBDCI30     070BBDC    /EJ PN      N1000R$  000000000010700000000001070000000000104000000000010600000000001040000000000000000000000013800003000000000000007000000000000000743000000000000298202013091600000010000000000000BRBBDCACNPR8602
012013070178BBDCI32     070BBDC    /EJ PN      N1000R$  000000000004700000000000470000000000047000000000004700000000000470000000000010000000000000000001000000000000002000000000000000094000000000000318202013091600000010000000000000BRBBDCACNPR8602
012013070182BBDCS26     080BBDCE   /EJ PN      N1000R$  000000000000600000000000060000000000006000000000000600000000000060000000000000000000000000000005000000000000026300000000000000157800000000000258002013071500000010000000000000BRBBDCACNPR8601
012013070182BBDCS27     080BBDCE   /EJ PN      N1000R$  000000000001100000000000130000000000011000000000001200000000000130000000000000000000000000000017000000000000091400000000000001174600000000000268002013071500000010000000000000BRBBDCACNPR8601
012013070182BBDCS28     080BBDCE   /EJ PN      N1000R$  000000000003200000000000350000000000027000000000003100000000000280000000000040000000000003100011000000000000019600000000000000612500000000000278202013071500000010000000000000BRBBDCACNPR8602
012013070182BBDCS29     080BBDCE   /EJ PN      N1000R$  000000000005800000000000770000000000055000000000006500000000000570000000000000000000000007300097000000000000208700000000000013724700000000000288202013071500000010000000000000BRBBDCACNPR8602
012013070182BBDCS30     080BBDCE   /EJ PN      N1000R$  000000000012000000000001390000000000115000000000012500000000001390000000000000000000000000000006000000000000010500000000000001316500000000000298002013071500000010000000000000BRBBDCACNPR8601
012013070182BBDCS31     080BBDCE   /EJ PN      N1000R$  000000000021000000000002230000000000196000000000020900000000002190000000000000000000000000000021000000000000037200000000000007798000000000000308002013071500000010000000000000BRBBDCACNPR8601
012013070182BBDCS32     080BBDCE   /EJ PN      N1000R$  000000000031500000000003150000000000315000000000031500000000003150000000000000000000000000000001000000000000001500000000000000472500000000000317802013071500000010000000000000BRBBDCACNPR8600
012013070182BBDCS33     080BBDCE   /EJ PN      N1000R$  000000000008000000000001010000000000078000000000009000000000000920000000000000000000000000000013000000000000022700000000000002052100000000000292102013071500000010000000000000BRBBDCACNPR8593
012013070182BBDCS34     080BBDCE   /EJ PN      N1000R$  000000000013800000000001530000000000138000000000014700000000001530000000000000000000000000000010000000000000019400000000000002870200000000000300802013071500000010000000000000BRBBDCACNPR8591
012013070182BBDCS5      080BBDCE   /EJ PN      N1000R$  000000000027200000000002840000000000260000000000027300000000002800000000000000000000000000000033000000000000059600000000000016284400000000000314802013071500000010000000000000BRBBDCACNPR8593
012013070182BBDCT26     080BBDCE   /EJ PN      N1000R$  000000000003000000000000320000000000025000000000002800000000000260000000000000000000000000000137000000000000072100000000000002051800000000000258202013081900000010000000000000BRBBDCACNPR8602
012013070182BBDCT27     080BBDCE   /EJ PN      N1000R$  000000000004100000000000510000000000041000000000004600000000000440000000000000000000000000000065000000000000113400000000000005232200000000000268202013081900000010000000000000BRBBDCACNPR8602
012013070182BBDCT28     080BBDCE   /EJ PN      N1000R$  000000000006500000000000800000000000065000000000007000000000000730000000000060000000000000000100000000000000085600000000000006065500000000000278202013081900000010000000000000BRBBDCACNPR8602
012013070182BBDCT29     080BBDCE   /EJ PN      N1000R$  000000000010300000000001220000000000101000000000011100000000001050000000000080000000000000000263000000000000176900000000000019657900000000000288202013081900000010000000000000BRBBDCACNPR8602
012013070182BBDCT30     080BBDCE   /EJ PN      N1000R$  000000000015600000000001730000000000156000000000016200000000001730000000000000000000000000000004000000000000006700000000000001091700000000000298202013081900000010000000000000BRBBDCACNPR8602
012013070182BBDCT31     080BBDCE   /EJ PN      N1000R$  000000000023800000000002380000000000238000000000023800000000002380000000000000000000000000000001000000000000000200000000000000047600000000000307802013081900000010000000000000BRBBDCACNPR8600
012013070182BBDCT34     080BBDCE   /EJ PN      N1000R$  000000000020600000000002060000000000206000000000020600000000002060000000000000000000000000000001000000000000001000000000000000206000000000000305702013081900000010000000000000BRBBDCACNPR8595
012013070182BBDCU32     080BBDCE   /EJ PN      N1000R$  000000000030700000000003070000000000295000000000030400000000003050000000000000000000000000000003000000000000004700000000000001430500000000000318202013091600000010000000000000BRBBDCACNPR8602
012013070182BBDCU33     080BBDCE   /EJ PN      N1000R$  000000000017100000000001710000000000171000000000017100000000001710000000000000000000000000000001000000000000002000000000000000342000000000000297602013091600000010000000000000BRBBDCACNPR8598
012013070182BBDCU81     080BBDCE   /EJ PN      N1000R$  000000000023600000000002360000000000236000000000023600000000002360000000000000000000000000000001000000000000002000000000000000472000000000000308202013091600000010000000000000BRBBDCACNPR8602
012013070112BBFI11B     010FII BB PROGRCI  ER  MB   R$  000000044000000000004400000000000430178000000043773600000004301780000000426001000000042999000006000000000000000027000000000011818890000000000000009999123100000010000000000000BRBBFICTF006196
012013070112BBPO11      010FII BB PRGIICI  ER       R$  000000001092000000000110900000000010831000000001093200000000109990000000010940000000001099900239000000000000017158000000000187586517000000000000009999123100000010000000000000BRBBPOCTF003108
012013070112BBRC11      010FII BB CORP CI  ER       R$  000000001000000000000102000000000009600000000001000400000000096000000000009600000000001002000012000000000000001199000000000011995400000000000000009999123100000010000000000000BRBBRCCTF004122
012013070102BBRK3       010BR BROKERS  ON      NM   R$  000000000066200000000006620000000000635000000000064100000000006350000000000634000000000063503040000000000001185900000000000760426100000000000000009999123100000010000000000000BRBBRKACNOR4108
012013070196BBRK3F      020BR BROKERS  ON      NM   R$  000000000065500000000007210000000000643000000000065600000000007210000000000603000000000065000008000000000000000186000000000000122061000000000000009999123100000010000000000000BRBBRKACNOR4108
012013070102BBSE3       010BBSEGURIDADEON      NM   R$  000000000174800000000017920000000001726000000000175500000000017500000000001749000000000175009225000000000004269600000000007493761300000000000000009999123100000010000000000000BRBBSEACNOR5100
012013070196BBSE3F      020BBSEGURIDADEON      NM   R$  000000000173000000000017900000000001728000000000175800000000017470000000001747000000000175500434000000000000013126000000000023088040000000000000009999123100000010000000000000BRBBSEACNOR5100
012013070102BBTG11      010BTG PACTUAL UNT          R$  000000000274400000000027440000000002676000000000269000000000026890000000002689000000000269001279000000000001205500000000003243146200000000000000009999123100000010000000000000BRBBTGUNT007104
012013070196BBTG11F     020BTG PACTUAL UNT          R$  000000000272000000000029770000000002680000000000271100000000026800000000002680000000000269800011000000000000000492000000000001334129000000000000009999123100000010000000000000BRBBTGUNT007104
012013070162BBTG11T     030BTG PACTUAL UNT       091R$  000000000275200000000027530000000002747000000000274700000000027480000000000000000000000000000006000000000000511400000000001404963330000000000000009999123100000010000000000000BRBBTGUNT007104
012013070112BBVJ11      010FII C JARDIMCI  ER       R$  000000000818100000000082000000000008160000000000817100000000081800000000008160000000000818000029000000000000000838000000000006848132000000000000009999123100000010000000000000BRBBVJCTF001131
012013070112BCFF11B     010FII BC FFII CI      MB   R$  000000001019900000000104800000000010000000000001017900000000102000000000010200000000001025000047000000000000003669000000000037349394000000000000009999123100000010000000000000BRBCFFCTF000139
012013070102BDLL3       010BARDELLA    ON           R$  000000000401000000000040900000000004000000000000403300000000040900000000004006000000000440000003000000000000000300000000000001210000000000000000009999123100000010000000000000BRBDLLACNOR1149
012013070102BDLL4       010BARDELLA    PN           R$  000000000448500000000044850000000004485000000000448500000000044850000000004331000000000459000001000000000000000100000000000000448500000000000000009999123100000010000000000000BRBDLLACNPR8149
012013070196BDLL4F      020BARDELLA    PN           R$  000000000440000000000044000000000004350000000000438500000000043500000000004301000000000435000010000000000000000071000000000000311400000000000000009999123100000010000000000000BRBDLLACNPR8149
012013070102BEEF3       010MINERVA     ON      NM   R$  000000000102300000000010460000000000998000000000101100000000010100000000001008000000000101002733000000000000740800000000000749065500000000000000009999123100000010000000000000BRBEEFACNOR6104
012013070196BEEF3F      020MINERVA     ON      NM   R$  000000000102500000000010480000000001000000000000101000000000010010000000001000000000000101000011000000000000000348000000000000351563000000000000009999123100000010000000000000BRBEEFACNOR6104
012013070102BEES3       010BANESTES    ON  EJ       R$  000000000004700000000000490000000000047000000000004700000000000480000000000046000000000004800047000000000000287500000000000013635800000000000000009999123100000010000000000000BRBEESACNOR9241
012013070102BEES4       010BANESTES    PN  EJ       R$  000000000004100000000000410000000000041000000000004100000000000410000000000041000000000004600002000000000000007300000000000000299300000000000000009999123100000010000000000000BRBEESACNPR6166
012013070102BEMA3       010BEMATECH    ON      NM   R$  000000000070300000000007250000000000700000000000070900000000007090000000000709000000000071100244000000000000095300000000000067583000000000000000009999123100000010000000000000BRBEMAACNOR0113
012013070196BEMA3F      020BEMATECH    ON      NM   R$  000000000073000000000007300000000000708000000000072400000000007080000000000708000000000072500002000000000000000100000000000000072494000000000000009999123100000010000000000000BRBEMAACNOR0113
012013070102BGIP4       010BANESE      PN           R$  000000000509900000000051850000000005099000000000513500000000051850000000004850000000000508900003000000000000000700000000000003595000000000000000009999123100000010000000000000BRBGIPACNPR8177
012013070162BGIP4T      030BANESE      PN        030R$  000000000513200000000051330000000005132000000000513200000000051330000000000000000000000000000002000000000000000400000000000002053061000000000000009999123100000010000000000000BRBGIPACNPR8177
012013070102BHGR3       010BHG         ON      NM   R$  000000000159000000000016270000000001577000000000160200000000015900000000001590000000000175000218000000000000087400000000000140076500000000000000009999123100000010000000000000BRBHGRACNOR9101
012013070102BICB4       010BICBANCO    PN      N1   R$  000000000043000000000004320000000000424000000000042500000000004250000000000424000000000042500193000000000000090200000000000038378600000000000000009999123100000010000000000000BRBICBACNPR7131
012013070102BISA3       010BROOKFIELD  ON      NM   R$  000000000015000000000001520000000000145000000000014700000000001460000000000146000000000014705034000000000004732800000000000698762300000000000000009999123100000010000000000000BRBISAACNOR8109
012013070196BISA3F      020BROOKFIELD  ON      NM   R$  000000000016100000000001610000000000145000000000014900000000001490000000000142000000000014800027000000000000000820000000000000122360000000000000009999123100000010000000000000BRBISAACNOR8109
012013070162BISA3T      030BROOKFIELD  ON      NM060R$  000000000015100000000001520000000000151000000000015100000000001520000000000000000000000000000002000000000000500000000000000075632400000000000000009999123100000010000000000000BRBISAACNOR8109
012013070162BISA3T      030BROOKFIELD  ON      NM091R$  000000000015000000000001510000000000150000000000015000000000001510000000000000000000000000000002000000000000006000000000000000905405000000000000009999123100000010000000000000BRBISAACNOR8109
012013070110BMEB2       010MERC BRASIL DIR PRE      R$  000000000000400000000000060000000000004000000000000400000000000060000000000002000000000000600004000000000000011500000000000000046200000000000000009999123100000010000000000000BRBMEBD02PR8189
012013070196BMEB2F      020MERC BRASIL DIR PRE      R$  000000000000400000000000040000000000004000000000000400000000000040000000000000000000000000100002000000000000000068000000000000000272000000000000009999123100000010000000000000BRBMEBD02PR8189
012013070102BMEB3       010MERC BRASIL ON           R$  000000000153800000000016300000000001538000000000158400000000016300000000001520000000000200000002000000000000000200000000000000316800000000000000009999123100000010000000000000BRBMEBACNOR8189
012013070102BMEB4       010MERC BRASIL PN           R$  000000000111100000000011380000000001110000000000112300000000011380000000001111000000000113500008000000000000006000000000000006742300000000000000009999123100000010000000000000BRBMEBACNPR5190
012013070196BMIN4F      020MERC INVEST PN           R$  000000000002400000000000240000000000024000000000002400000000000240000000000021000000000002500001000000000000000500000000000000012000000000000000009999123100000010000000000000BRBMINACNPR1159
012013070102BMKS3       010BIC MONARK  ON           R$  000000003499900000000349990000000034999000000003499900000000349990000000032700000000003499900003000000000000000003000000000000104997000000000000009999123100000010000000000000BRBMKSACNOR9155
012013070112BMLC11B     010FII BMBRC LCCI      MB   R$  000000001227000000000122900000000012270000000001227200000000122900000000012000000000001229000007000000000000000580000000000007118200000000000000009999123100000010000000000000BRBMLCCTF004116
012013070102BMTO4       010BRASMOTOR   PN           R$  000000000008600000000000870000000000086000000000008600000000000870000000000086000000000008800005000000000000011000000000000000947000000000000000009999123100000010000000000000BRBMTOACNPR6065
012013070102BNBR4       010NORD BRASIL PN           R$  000000000191000000000019310000000001910000000000192600000000019310000000001930000000000199900007000000000000005500000000000010597400000000000000009999123100000010000000000000BRBNBRACNPR5186
012013070196BNBR4F      020NORD BRASIL PN           R$  000000000200000000000020000000000001900000000000194000000000019000000000000000000000000549900003000000000000000100000000000000194000000000000000009999123100000010000000000000BRBNBRACNPR5186
012013070112BNFS11      010FII BANRISULCI  ER       R$  000000001000000000000100000000000009905000000000997400000000099050000000009910000000001054500009000000000000000524000000000005226380000000000000009999123100000010000000000000BRBNFSCTF000110
012013070114BOVA11      010ISHARES BOVACI           R$  000000000465000000000046560000000004580000000000462700000000046390000000004630000000000463902767000000000001334030000000006173002910000000000000009999123100000010000000000000BRBOVACTF003101
012013070196BOVA11F     020ISHARES BOVACI           R$  000000000463000000000047560000000004512000000000464300000000046100000000004610000000000475600015000000000000000039000000000000181112000000000000009999123100000010000000000000BRBOVACTF003101
012013070162BOVA11T     030ISHARES BOVACI        091R$  000000000471000000000047110000000004710000000000471000000000047110000000000000000000000000000002000000000000000100000000000000471099000000000000009999123100000010000000000000BRBOVACTF003101
012013070112BPFF11      010FII ABSOLUTOCI  ER       R$  000000000831000000000085000000000008310000000000843100000000085000000000008360000000000850000012000000000000000859000000000007242334000000000000009999123100000010000000000000BRBPFFCTF002103
012013070102BPHA3       010BR PHARMA   ON      NM   R$  000000000102800000000010570000000001010000000000104600000000010570000000001045000000000105702042000000000000846500000000000885617300000000000000009999123100000010000000000000BRBPHAACNOR6102
012013070196BPHA3F      020BR PHARMA   ON      NM   R$  000000000104000000000010610000000001000000000000103800000000010610000000001042000000000122000023000000000000000759000000000000788090000000000000009999123100000010000000000000BRBPHAACNOR6102
012013070102BPNM4       010PANAMERICANOPN      N1   R$  000000000052800000000005360000000000512000000000052400000000005290000000000520000000000052900687000000000000740400000000000388018300000000000000009999123100000010000000000000BRBPNMACNPR6111
012013070196BPNM4F      020PANAMERICANOPN      N1   R$  000000000053000000000005760000000000516000000000052700000000005760000000000507000000000057500022000000000000000607000000000000320109000000000000009999123100000010000000000000BRBPNMACNPR6111
012013070102BRAP3       010BRADESPAR   ON      N1   R$  000000000163000000000016450000000001600000000000160800000000016000000000001596000000000160000678000000000000098800000000000158884800000000000000009999123100000010000000000000BRBRAPACNOR5124
012013070196BRAP3F      020BRADESPAR   ON      N1   R$  000000000159100000000016100000000001591000000000159500000000016020000000001602000000000171900006000000000000000083000000000000132424000000000000009999123100000010000000000000BRBRAPACNOR5124
012013070162BRAP3T      030BRADESPAR   ON      N1030R$  000000000161500000000016210000000001615000000000161700000000016210000000000000000000000000000004000000000000000700000000000001132537000000000000009999123100000010000000000000BRBRAPACNOR5124
012013070102BRAP4       010BRADESPAR   PN      N1   R$  000000000201300000000020810000000002011000000000205300000000020550000000002050000000000205805246000000000001334600000000002740196200000000000000009999123100000010000000000000BRBRAPACNPR2124
012013070196BRAP4F      020BRADESPAR   PN      N1   R$  000000000201000000000020840000000002010000000000205300000000020320000000002032000000000208200067000000000000001136000000000002332238000000000000009999123100000010000000000000BRBRAPACNPR2124
012013070162BRAP4T      030BRADESPAR   PN      N1016R$  000000000206400000000020650000000002064000000000206400000000020650000000000000000000000000000002000000000000179400000000000370390150000000000000009999123100000010000000000000BRBRAPACNPR2124
012013070114BRAX11      010ISHARES BRAXCI           R$  000000000386900000000038780000000003868000000000386900000000038780000000000000000000000000000003000000000000006000000000000023219500000000000000009999123100000010000000000000BRBRAXCTF002100
012013070112BRCR11      010FII BC FUND CI           R$  000000001399000000000141000000000013700000000001396200000000138480000000013703000000001384800466000000000000021235000000000296501861000000000000009999123100000010000000000000BRBRCRCTF000130
012013070102BRFS3       010BRF SA      ON  EJ  NM   R$  000000000484900000000049210000000004795000000000483500000000048190000000004810000000000481905979000000000002686900000000012993406600000000000000009999123100000010000000000000BRBRFSACNOR8110
012013070196BRFS3F      020BRF SA      ON  EJ  NM   R$  000000000486500000000049000000000004761000000000482800000000047610000000004820000000000490000183000000000000004677000000000022581176000000000000009999123100000010000000000000BRBRFSACNOR8110
012013070162BRFS3T      030BRF SA      ON  EJ  NM016R$  000000000484900000000048500000000004849000000000484900000000048500000000000000000000000000000002000000000000001000000000000004849320000000000000009999123100000010000000000000BRBRFSACNOR8110
012013070162BRFS3T      030BRF SA      ON  EJ  NM182R$  000000000507700000000050780000000005077000000000507700000000050780000000000000000000000000000002000000000000004000000000000020311981000000000000009999123100000010000000000000BRBRFSACNOR8110
012013070102BRGE3       010ALFA CONSORCON           R$  000000000033700000000003370000000000337000000000033700000000003370000000000337000000000060000004000000000000004100000000000001381700000000000000009999123100000010000000000000BRBRGEACNOR6196
012013070196BRGE3F      020ALFA CONSORCON           R$  000000000033700000000003370000000000337000000000033700000000003370000000000210000000000000000001000000000000000030000000000000010110000000000000009999123100000010000000000000BRBRGEACNOR6196
012013070102BRIN3       010BR INSURANCEON      NM   R$  000000000220000000000022000000000002124000000000216700000000021940000000002189000000000219402374000000000000675000000000001462847100000000000000009999123100000010000000000000BRBRINACNOR3105
012013070196BRIN3F      020BR INSURANCEON      NM   R$  000000000219000000000021920000000002101000000000215600000000021800000000002102000000000229400132000000000000003443000000000007426394000000000000009999123100000010000000000000BRBRINACNOR3105
012013070102BRIV4       010ALFA INVEST PN           R$  000000000056500000000005700000000000550000000000055500000000005550000000000555000000000057400010000000000000005400000000000003001500000000000000009999123100000010000000000000BRBRIVACNPR3196
012013070102BRKM3       010BRASKEM     ON      N1   R$  000000000125300000000012530000000001248000000000125200000000012480000000001160000000000125200007000000000000001000000000000001252000000000000000009999123100000010000000000000BRBRKMACNOR1110
012013070102BRKM5       010BRASKEM     PNA     N1   R$  000000000164900000000017180000000001605000000000168300000000017150000000001714000000000171509172000000000002623000000000004417147800000000000000009999123100000010000000000000BRBRKMACNPA4110
012013070196BRKM5F      020BRASKEM     PNA     N1   R$  000000000164700000000017150000000001612000000000167200000000017120000000001670000000000171200040000000000000001042000000000001742691000000000000009999123100000010000000000000BRBRKMACNPA4110
012013070162BRKM5T      030BRASKEM     PNA     N1016R$  000000000170500000000017060000000001705000000000170500000000017060000000000000000000000000000002000000000000002500000000000004264490000000000000009999123100000010000000000000BRBRKMACNPA4110
012013070162BRKM5T      030BRASKEM     PNA     N1030R$  000000000171600000000017170000000001716000000000171600000000017170000000000000000000000000000002000000000000000800000000000001373002000000000000009999123100000010000000000000BRBRKMACNPA4110
012013070102BRML3       010BR MALLS PARON      NM   R$  000000000198800000000020150000000001940000000000196600000000019490000000001946000000000194912036000000000003375200000000006635644300000000000000009999123100000010000000000000BRBRMLACNOR9105
012013070196BRML3F      020BR MALLS PARON      NM   R$  000000000200900000000020440000000001931000000000196900000000019750000000001931000000000199000153000000000000003237000000000006374269000000000000009999123100000010000000000000BRBRMLACNOR9105
012013070162BRML3T      030BR MALLS PARON      NM091R$  000000000201700000000020180000000002017000000000201700000000020180000000000000000000000000000002000000000000001500000000000003025792000000000000009999123100000010000000000000BRBRMLACNOR9105
012013070178BRMLG18     070BRML        ON      NM000R$  000000000000500000000000060000000000005000000000000500000000000060000000000000000000000000000004000000000000022000000000000000118000000000000180002013071500000010000000000000BRBRMLACNOR9105
012013070178BRMLG20     070BRML        ON      NM000R$  000000000005900000000000590000000000059000000000005900000000000590000000000000000000000000000002000000000000022000000000000001298000000000000200002013071500000010000000000000BRBRMLACNOR9105
012013070182BRMLS18     080BRMLE       ON      NM000R$  000000000000600000000000060000000000005000000000000500000000000050000000000000000000000000000002000000000000220000000000000001188000000000000180002013071500000010000000000000BRBRMLACNOR9105
012013070182BRMLS20     080BRMLE       ON      NM000R$  000000000005900000000000590000000000059000000000005900000000000590000000000000000000000000000001000000000000220000000000000012980000000000000200002013071500000010000000000000BRBRMLACNOR9105
012013070182BRMLT19     080BRMLE       ON      NM000R$  000000000003000000000000300000000000030000000000003000000000000300000000000000000000000000000002000000000000025000000000000000750000000000000190002013081900000010000000000000BRBRMLACNOR9105
012013070102BRPR3       010BR PROPERT  ON      NM   R$  000000000188600000000019180000000001871000000000189300000000018900000000001890000000000190007942000000000002691100000000005094905500000000000000009999123100000010000000000000BRBRPRACNOR9112
012013070196BRPR3F      020BR PROPERT  ON      NM   R$  000000000190500000000019060000000001871000000000189000000000019040000000001870000000000190000073000000000000002227000000000004210164000000000000009999123100000010000000000000BRBRPRACNOR9112
012013070196BRSR5F      020BANRISUL    PNA     N1   R$  000000000150000000000015000000000001500000000000150000000000015000000000001450000000000000000003000000000000000025000000000000037500000000000000009999123100000010000000000000BRBRSRACNPA6134
012013070102BRSR6       010BANRISUL    PNB     N1   R$  000000000151500000000015440000000001470000000000150600000000014820000000001482000000000148703062000000000000922700000000001390114100000000000000009999123100000010000000000000BRBRSRACNPB4133
012013070196BRSR6F      020BANRISUL    PNB     N1   R$  000000000151300000000016030000000001480000000000152200000000014900000000001470000000000150000072000000000000001704000000000002593570000000000000009999123100000010000000000000BRBRSRACNPB4133
012013070102BSEV3       010BIOSEV      ON      NM   R$  000000000131000000000013100000000001272000000000129300000000012970000000001243000000000129700006000000000000002800000000000003621700000000000000009999123100000010000000000000BRBSEVACNOR3100
012013070196BSEV3F      020BIOSEV      ON      NM   R$  000000000129500000000012950000000001295000000000129500000000012950000000001115000000000137000001000000000000000008000000000000010360000000000000009999123100000010000000000000BRBSEVACNOR3100
012013070182BSEVS99     080BSEVE       ON      NM000R$  000000000025000000000002500000000000250000000000025000000000002500000000000250000000000032500001000000000000000500000000000000125000000000000165702014072100000010000000000000BRBSEVACNOR3100
012013070102BTOW3       010B2W DIGITAL ON      NM   R$  000000000066000000000006660000000000623000000000063900000000006330000000000630000000000063303896000000000001609000000000001028434600000000000000009999123100000010000000000000BRBTOWACNOR8105
012013070196BTOW3F      020B2W DIGITAL ON      NM   R$  000000000066200000000006930000000000622000000000065200000000006920000000000630000000000069200013000000000000000400000000000000261048000000000000009999123100000010000000000000BRBTOWACNOR8105
012013070102BTTL3       010BATTISTELLA ON           R$  000000000007500000000000750000000000074000000000007400000000000740000000000074000000000007700008000000000000034000000000000002548500000000000000009999123100000010000000000000BRBTTLACNOR0105
012013070102BTTL4       010BATTISTELLA PN           R$  000000000009600000000000970000000000093000000000009400000000000970000000000096000000000009900015000000000000023000000000000002176700000000000000009999123100000010000000000000BRBTTLACNPR7105
012013070102BVMF3       010BMFBOVESPA  ON      NM   R$  000000000123600000000012850000000001232000000000126200000000012850000000001281000000000128517472000000000010719900000000013535848200000000000000009999123100000010000000000000BRBVMFACNOR3125
012013070196BVMF3F      020BMFBOVESPA  ON      NM   R$  000000000123000000000012870000000001221000000000125400000000012750000000001275000000000128500351000000000000009989000000000012534162000000000000009999123100000010000000000000BRBVMFACNOR3125
012013070162BVMF3T      030BMFBOVESPA  ON      NM120R$  000000000128400000000012850000000001284000000000128400000000012850000000000000000000000000000002000000000000003000000000000003852079000000000000009999123100000010000000000000BRBVMFACNOR3125
012013070178BVMFG11     070BVMF        ON      NM000R$  000000000016000000000001800000000000156000000000016500000000001800000000000154000000000000000005000000000000003500000000000000579300000000000110002013071500000010000000000000BRBVMFACNOR3125
012013070178BVMFG12     070BVMF  FM    ON      NM000R$  000000000007900000000001050000000000064000000000008300000000001040000000000101000000000010900077000000000000251900000000000021106900000000000118902013071500000010000000000000BRBVMFACNOR3124
012013070178BVMFG13     070BVMF  FM    ON      NM000R$  000000000002400000000000400000000000017000000000002700000000000390000000000027000000000004000213000000000000491000000000000013583000000000000126902013071500000010000000000000BRBVMFACNOR3123
012013070178BVMFG14     070BVMF        ON      NM000R$  000000000000200000000000040000000000002000000000000200000000000040000000000004000000000000500050000000000000260900000000000000737200000000000136902013071500000010000000000000BRBVMFACNOR3123
012013070178BVMFG15     070BVMF        ON      NM000R$  000000000000100000000000010000000000001000000000000100000000000010000000000000000000000000100001000000000000005000000000000000005000000000000148902013071500000010000000000000BRBVMFACNOR3124
012013070178BVMFG41     070BVMF  FM    ON      NM000R$  000000000010200000000001340000000000102000000000012600000000001230000000000000000000000000000012000000000000037000000000000004680000000000000115002013071500000010000000000000BRBVMFACNOR3125
012013070178BVMFG42     070BVMF  FM    ON      NM000R$  000000000004700000000000790000000000045000000000006100000000000790000000000031000000000000000022000000000000087100000000000005354700000000000121902013071500000010000000000000BRBVMFACNOR3123
012013070178BVMFG43     070BVMF  FM    ON      NM000R$  000000000000700000000000080000000000007000000000000700000000000080000000000000000000000001200004000000000000005900000000000000041900000000000133902013071500000010000000000000BRBVMFACNOR3124
012013070178BVMFG44     070BVMF        ON      NM000R$  000000000000100000000000010000000000001000000000000100000000000010000000000000000000000143900001000000000000000100000000000000000100000000000143902013071500000010000000000000BRBVMFACNOR3124
012013070178BVMFG50     070BVMF        ON      NM000R$  000000000001600000000000160000000000016000000000001600000000000160000000000000000000000000000004000000000000034300000000000000548800000000000130002013071500000010000000000000BRBVMFACNOR3125
012013070178BVMFH1      070BVMFE       ON      NM000R$  000000000003200000000000320000000000030000000000003100000000000300000000000002000000000000000002000000000000004700000000000000148600000000000132502013081900000010000000000000BRBVMFACNOR3125
012013070178BVMFH11     070BVMF        ON      NM000R$  000000000020100000000002010000000000201000000000020100000000002010000000000000000000000000000001000000000000000800000000000000160800000000000110002013081900000010000000000000BRBVMFACNOR3125
012013070178BVMFH12     070BVMF  FM    ON      NM000R$  000000000009300000000001200000000000093000000000010800000000001200000000000020000000000000000019000000000000042200000000000004564400000000000120002013081900000010000000000000BRBVMFACNOR3125
012013070178BVMFH13     070BVMF  FM    ON      NM000R$  000000000004000000000000580000000000033000000000004500000000000580000000000044000000000005900067000000000000097800000000000004470500000000000128902013081900000010000000000000BRBVMFACNOR3124
012013070178BVMFH14     070BVMF        ON      NM000R$  000000000001000000000000150000000000010000000000001100000000000150000000000005000000000001500128000000000000253100000000000003017900000000000138902013081900000010000000000000BRBVMFACNOR3124
012013070178BVMFH15     070BVMF        ON      NM000R$  000000000000200000000000030000000000002000000000000200000000000030000000000001000000000000400006000000000000023000000000000000059000000000000150002013081900000010000000000000BRBVMFACNOR3125
012013070178BVMFH41     070BVMF  FM    ON      NM000R$  000000000014800000000001570000000000147000000000015000000000001570000000000000000000000000000004000000000000011000000000000001655000000000000115002013081900000010000000000000BRBVMFACNOR3125
012013070178BVMFH42     070BVMF  FM    ON      NM000R$  000000000005800000000000750000000000054000000000006400000000000730000000000000000000000000000004000000000000013000000000000000837000000000000125002013081900000010000000000000BRBVMFACNOR3125
012013070178BVMFH43     070BVMF  FM    ON      NM000R$  000000000001800000000000260000000000018000000000001800000000000260000000000005000000000003000007000000000001610700000000000029047000000000000135002013081900000010000000000000BRBVMFACNOR3125
012013070178BVMFH44     070BVMF        ON      NM000R$  000000000000600000000000060000000000006000000000000600000000000060000000000000000000000143900002000000000000018000000000000000108000000000000143902013081900000010000000000000BRBVMFACNOR3124
012013070178BVMFI14     070BVMF        ON      NM000R$  000000000002000000000000200000000000020000000000002000000000000200000000000000000000000000000001000000000000004000000000000000080000000000000140002013091600000010000000000000BRBVMFACNOR3125
012013070178BVMFI15     070BVMF        ON      NM000R$  000000000000700000000000070000000000007000000000000700000000000070000000000004000000000010000001000000000000003000000000000000021000000000000150002013091600000010000000000000BRBVMFACNOR3125
012013070178BVMFI43     070BVMF        ON      NM000R$  000000000003900000000000390000000000039000000000003900000000000390000000000000000000000000000001000000000000003000000000000000117000000000000135002013091600000010000000000000BRBVMFACNOR3125
012013070178BVMFI44     070BVMF        ON      NM000R$  000000000001300000000000130000000000013000000000001300000000000130000000000000000000000000000001000000000000003000000000000000039000000000000145002013091600000010000000000000BRBVMFACNOR3125
012013070178BVMFK14     070BVMF        ON      NM000R$  000000000004500000000000490000000000045000000000004700000000000490000000000000000000000004300002000000000000000300000000000000014300000000000140002013111800000010000000000000BRBVMFACNOR3125
012013070182BVMFS11     080BVMFE FM    ON      NM000R$  000000000000200000000000020000000000002000000000000200000000000020000000000000000000000000000001000000000000006000000000000000012000000000000110002013071500000010000000000000BRBVMFACNOR3125
012013070182BVMFS12     080BVMFE FM    ON      NM000R$  000000000001300000000000140000000000007000000000000700000000000070000000000006000000000000700033000000000000120300000000000000935100000000000118902013071500000010000000000000BRBVMFACNOR3124
012013070182BVMFS13     080BVMFE       ON      NM000R$  000000000003600000000000360000000000022000000000002700000000000220000000000020000000000003200034000000000000052000000000000001435300000000000126902013071500000010000000000000BRBVMFACNOR3123
012013070182BVMFS14     080BVMFE       ON      NM000R$  000000000009300000000000930000000000090000000000009200000000000900000000000085000000000000000002000000000000003500000000000000324000000000000136902013071500000010000000000000BRBVMFACNOR3123
012013070182BVMFS41     080BVMFE FM    ON      NM000R$  000000000000700000000000070000000000004000000000000500000000000040000000000000000000000000600006000000000000019900000000000000113800000000000115002013071500000010000000000000BRBVMFACNOR3125
012013070182BVMFS42     080BVMFE FM    ON      NM000R$  000000000002000000000000200000000000010000000000001700000000000120000000000000000000000000000008000000000000038800000000000000696800000000000121902013071500000010000000000000BRBVMFACNOR3123
012013070182BVMFS43     080BVMFE       ON      NM000R$  000000000006400000000000640000000000064000000000006400000000000640000000000060000000000000000001000000000000001000000000000000064000000000000133902013071500000010000000000000BRBVMFACNOR3124
012013070182BVMFS50     080BVMFE       ON      NM000R$  000000000005300000000000530000000000038000000000004800000000000380000000000000000000000000000003000000000000017300000000000000837400000000000130002013071500000010000000000000BRBVMFACNOR3125
012013070182BVMFT10     080BVMFE       ON      NM000R$  000000000000400000000000040000000000004000000000000400000000000040000000000000000000000000400002000000000000020000000000000000080000000000000100002013081900000010000000000000BRBVMFACNOR3125
012013070182BVMFT11     080BVMFE FM    ON      NM000R$  000000000001100000000000120000000000011000000000001100000000000120000000000015000000000000000005000000000000017000000000000000200500000000000110002013081900000010000000000000BRBVMFACNOR3125
012013070182BVMFT12     080BVMFE FM    ON      NM000R$  000000000003400000000000350000000000026000000000003100000000000260000000000024000000000003600101000000000000074400000000000002350500000000000120002013081900000010000000000000BRBVMFACNOR3125
012013070182BVMFT13     080BVMFE       ON      NM000R$  000000000006000000000000600000000000051000000000005300000000000520000000000051000000000006400049000000000000011100000000000000590500000000000128902013081900000010000000000000BRBVMFACNOR3124
012013070182BVMFT41     080BVMFE FM    ON      NM000R$  000000000002200000000000240000000000017000000000002100000000000170000000000000000000000000000003000000000000008800000000000000191600000000000115002013081900000010000000000000BRBVMFACNOR3125
012013070182BVMFT42     080BVMFE FM    ON      NM000R$  000000000004900000000000520000000000038000000000004100000000000380000000000000000000000000000014000000000000050600000000000002092500000000000125002013081900000010000000000000BRBVMFACNOR3125
012013070182BVMFT43     080BVMFE       ON      NM000R$  000000000008500000000000870000000000085000000000008500000000000870000000000000000000000000000002000000000000008000000000000000686000000000000135002013081900000010000000000000BRBVMFACNOR3125
012013070182BVMFT61     080BVMFE       ON      NM000R$  000000000002300000000000230000000000023000000000002300000000000230000000000000000000000000000001000000000001600000000000000036800000000000000117502013081900000010000000000000BRBVMFACNOR3125
012013070182BVMFT62     080BVMFE       ON      NM000R$  000000000004100000000000410000000000032000000000004000000000000320000000000000000000000000000004000000000001617400000000000066180800000000000122502013081900000010000000000000BRBVMFACNOR3125
012013070182BVMFT9      080BVMFE       ON      NM000R$  000000000000200000000000020000000000002000000000000200000000000020000000000002000000000000300001000000000000001000000000000000002000000000000090002013081900000010000000000000BRBVMFACNOR3125
012013070182BVMFU11     080BVMFE       ON      NM000R$  000000000001600000000000160000000000015000000000001500000000000150000000000015000000000000000002000000000000000500000000000000007800000000000110002013091600000010000000000000BRBVMFACNOR3125
012013070182BVMFU12     080BVMFE       ON      NM000R$  000000000003400000000000340000000000034000000000003400000000000340000000000033000000000000000001000000000000000100000000000000003400000000000120002013091600000010000000000000BRBVMFACNOR3125
012013070102CARD3       010CSU CARDSYSTON      NM   R$  000000000028900000000002900000000000278000000000028300000000002840000000000283000000000028400021000000000000024700000000000007007300000000000000009999123100000010000000000000BRCARDACNOR9105
012013070196CARD3F      020CSU CARDSYSTON      NM   R$  000000000027200000000002720000000000272000000000027200000000002720000000000274000000000029000001000000000000000050000000000000013600000000000000009999123100000010000000000000BRCARDACNOR9105
012013070108CCHI3       010CHIARELLI   ON           R$  000000000003300000000000360000000000019000000000002700000000000190000000000017000000000001900194000000000003030000000000000082790000000000000000009999123100000010000000000000BRCCHIACNOR5123
012013070196CCHI3F      020CHIARELLI   ON           R$  000000000003500000000000360000000000022000000000003000000000000250000000000020000000000002400040000000000000081376000000000002445228000000000000009999123100000010000000000000BRCCHIACNOR5123
012013070108CCHI4       010CHIARELLI   PN           R$  000000000002300000000000260000000000016000000000002100000000000160000000000015000000000002500021000000000000230000000000000004950000000000000000009999123100000010000000000000BRCCHIACNPR2122
012013070196CCHI4F      020CHIARELLI   PN           R$  000000000002000000000000200000000000017000000000001800000000000170000000000013000000000001700011000000000000019400000000000000362800000000000000009999123100000010000000000000BRCCHIACNPR2122
012013070102CCPR3       010CYRE COM-CCPON      NM   R$  000000000205500000000022470000000002055000000000215800000000020810000000002081000000000240000055000000000000006500000000000014027200000000000000009999123100000010000000000000BRCCPRACNOR9107
012013070196CCPR3F      020CYRE COM-CCPON      NM   R$  000000000213000000000021300000000002130000000000213000000000021300000000002120000000000239800001000000000000000049000000000000104370000000000000009999123100000010000000000000BRCCPRACNOR9107
012013070102CCRO3       010CCR SA      ON      NM   R$  000000000176200000000017700000000001724000000000174100000000017340000000001734000000000173907749000000000003176100000000005530215400000000000000009999123100000010000000000000BRCCROACNOR2122
012013070196CCRO3F      020CCR SA      ON      NM   R$  000000000174100000000017940000000001702000000000174200000000017890000000001750000000000178500058000000000000001907000000000003322728000000000000009999123100000010000000000000BRCCROACNOR2122
012013070162CCRO3T      030CCR SA      ON      NM016R$  000000000173800000000017390000000001738000000000173800000000017390000000000000000000000000000002000000000000001200000000000002086714000000000000009999123100000010000000000000BRCCROACNOR2122
012013070102CCXC3       010CCX CARVAO  ON      NM   R$  000000000009300000000000930000000000073000000000007900000000000760000000000076000000000007701391000000000007000800000000000557882800000000000000009999123100000010000000000000BRCCXCACNOR5100
012013070196CCXC3F      020CCX CARVAO  ON      NM   R$  000000000009300000000000930000000000075000000000007800000000000840000000000075000000000008400042000000000000001497000000000000116943000000000000009999123100000010000000000000BRCCXCACNOR5100
012013070102CEDO4       010CEDRO       PN      N1   R$  000000000094000000000009400000000000940000000000094000000000009400000000000850000000000092000001000000000000000100000000000000094000000000000000009999123100000010000000000000BRCEDOACNPR5126
012013070102CEEB3       010COELBA      ON           R$  000000000301100000000036440000000003011000000000330400000000036440000000003250000000000365000006000000000000002500000000000008260900000000000000009999123100000010000000000000BRCEEBACNOR3163
012013070196CEEB3F      020COELBA      ON           R$  000000000350800000000035080000000003508000000000350800000000035080000000003008000000000399000001000000000000000050000000000000175400000000000000009999123100000010000000000000BRCEEBACNOR3163
012013070108CELP3       010CELPA       ON           R$  000000000005300000000000560000000000053000000000005400000000000560000000000056000000000005800007000000000000006200000000000000335600000000000000009999123100000010000000000000BRCELPACNOR8112
012013070112CEOC11B     010FII CEO CCP CI      MB   R$  000000000909000000000091970000000008900000000000903200000000089020000000008902000000000903900039000000000000002806000000000025343942000000000000009999123100000010000000000000BRCEOCCTF003107
012013070102CEPE5       010CELPE       PNA          R$  000000000180500000000018080000000001804000000000180500000000018080000000001807000000000250000004000000000000376500000000000679585000000000000000009999123100000010000000000000BRCEPEACNPA6151
012013070102CESP3       010CESP        ON      N1   R$  000000000170000000000017000000000001532000000000160100000000016000000000001600000000000164800040000000000000006300000000000010088000000000000000009999123100000010000000000000BRCESPACNOR3159
012013070102CESP6       010CESP        PNB     N1   R$  000000000194000000000019970000000001926000000000195600000000019500000000001947000000000195003115000000000000828700000000001621487000000000000000009999123100000010000000000000BRCESPACNPB4118
012013070196CESP6F      020CESP        PNB     N1   R$  000000000196300000000019900000000001931000000000195000000000019510000000001928000000000195100028000000000000000886000000000001728280000000000000009999123100000010000000000000BRCESPACNPB4118
012013070102CGAS3       010COMGAS      ON           R$  000000000428700000000044600000000004287000000000438700000000044600000000004252000000000444000011000000000000005400000000000023691200000000000000009999123100000010000000000000BRCGASACNOR0132
012013070102CGAS5       010COMGAS      PNA          R$  000000000484000000000049020000000004792000000000484600000000048240000000004820000000000485000201000000000000064000000000000310150600000000000000009999123100000010000000000000BRCGASACNPA3129
012013070196CGAS5F      020COMGAS      PNA          R$  000000000480000000000050000000000004771000000000484300000000048010000000004801000000000484100075000000000000002153000000000010427775000000000000009999123100000010000000000000BRCGASACNPA3129
012013070102CGRA3       010GRAZZIOTIN  ON           R$  000000000149800000000015200000000001488000000000149800000000015000000000001488000000000150000015000000000000007900000000000011836900000000000000009999123100000010000000000000BRCGRAACNOR2061
012013070102CGRA4       010GRAZZIOTIN  PN           R$  000000000157700000000016200000000001576000000000158400000000015780000000001578000000000158000055000000000000022500000000000035655100000000000000009999123100000010000000000000BRCGRAACNPR9061
012013070196CGRA4F      020GRAZZIOTIN  PN           R$  000000000155000000000016150000000001500000000000156700000000015500000000001450000000000156000028000000000000000466000000000000730503000000000000009999123100000010000000000000BRCGRAACNPR9061
012013070162CGRA4T      030GRAZZIOTIN  PN        161R$  000000000166400000000016640000000001664000000000166400000000016640000000000000000000000000000001000000000000000500000000000000832000000000000000009999123100000010000000000000BRCGRAACNPR9061
012013070102CIEL3       010CIELO       ON      NM   R$  000000000559000000000056790000000005530000000000563000000000056660000000005666000000000567006813000000000001736800000000009778881700000000000000009999123100000010000000000000BRCIELACNOR3111
012013070196CIEL3F      020CIELO       ON      NM   R$  000000000558500000000056980000000005540000000000563900000000056300000000005601000000000569700271000000000000006071000000000034237452000000000000009999123100000010000000000000BRCIELACNOR3111
012013070162CIEL3T      030CIELO       ON      NM182R$  000000000585600000000058570000000005856000000000585600000000058570000000000000000000000000000002000000000000003500000000000020497939000000000000009999123100000010000000000000BRCIELACNOR3111
012013070178CIELH56     070CIEL        ON      NM000R$  000000000028500000000002850000000000284000000000028400000000002840000000000000000000000000000003000000000000300000000000000085305000000000000560002013081900000010000000000000BRCIELACNOR3111
012013070182CIELT47     080CIELE       ON      NM000R$  000000000001000000000000100000000000010000000000001000000000000100000000000000000000000000000001000000000000300000000000000003000000000000000470002013081900000010000000000000BRCIELACNOR3111
012013070182CIELT51     080CIELE       ON      NM000R$  000000000004400000000000440000000000044000000000004400000000000440000000000000000000000000000001000000000000300000000000000013200000000000000510002013081900000010000000000000BRCIELACNOR3111
012013070102CLSC4       010CELESC      PN      N2   R$  000000000207900000000020790000000002061000000000207300000000020700000000002025000000000207300027000000000000087000000000000180431300000000000000009999123100000010000000000000BRCLSCACNPR3107
012013070102CMIG3       010CEMIG       ON      N1   R$  000000000198500000000020400000000001981000000000201100000000020360000000002032000000000203600617000000000000100900000000000202937300000000000000009999123100000010000000000000BRCMIGACNOR6208
012013070196CMIG3F      020CEMIG       ON      N1   R$  000000000199700000000020980000000001995000000000202000000000020140000000002010000000000204500034000000000000000986000000000001991866000000000000009999123100000010000000000000BRCMIGACNOR6208
012013070102CMIG4       010CEMIG       PN      N1   R$  000000000198700000000020430000000001972000000000200300000000020100000000002006000000000201008198000000000002781100000000005570711000000000000000009999123100000010000000000000BRCMIGACNPR3208
012013070196CMIG4F      020CEMIG       PN      N1   R$  000000000199000000000021000000000001970000000000200800000000020990000000002010000000000209800414000000000000011280000000000022655601000000000000009999123100000010000000000000BRCMIGACNPR3208
012013070162CMIG4T      030CEMIG       PN      N1030R$  000000000202800000000020290000000002028000000000202800000000020290000000000000000000000000000002000000000000002500000000000005071756000000000000009999123100000010000000000000BRCMIGACNPR3208
012013070178CMIGL24     070CMIG        PN      N1000R$  000000000004100000000000410000000000041000000000004100000000000410000000000000000000000000000002000000000000008200000000000000336200000000000240002013121600000010000000000000BRCMIGACNPR3208
012013070182CMIGX19     080CMIGE       PN      N1000R$  000000000009500000000000950000000000095000000000009500000000000950000000000000000000000000000002000000000000008200000000000000779000000000000190002013121600000010000000000000BRCMIGACNPR3208
012013070182CMIGX46     080CMIGE       PN      N1000R$  000000000007000000000000700000000000070000000000007000000000000700000000000000000000000000000002000000000000008200000000000000574000000000000165002013121600000010000000000000BRCMIGACNPR3208
012013070112CNES11B     010FII CENESP  CI  ER  MB   R$  000000001250000000000125000000000012300000000001246700000000123000000000012290000000001230000012000000000000001304000000000016258213000000000000009999123100000010000000000000BRCNESCTF001123
012013070102COCA11B     010COCA COLA   DRN     MB   R$  000000000905000000000090500000000008998000000000902400000000089980000000008930000000000928700002000000000000000200000000000001804800000000000000009999123100000010000000000000BRCOCABDR002108
012013070102COCE3       010COELCE      ON           R$  000000000420000000000042290000000004180000000000419400000000042290000000004062000000000424900003000000000000001300000000000005452900000000000000009999123100000010000000000000BRCOCEACNOR0132
012013070196COCE3F      020COELCE      ON           R$  000000000400000000000040000000000004000000000000400000000000040000000000003808000000000000000002000000000000000045000000000000180000000000000000009999123100000010000000000000BRCOCEACNOR0132
012013070102COCE5       010COELCE      PNA          R$  000000000401100000000041840000000003983000000000404900000000040260000000004024000000000402600316000000000000101500000000000411073200000000000000009999123100000010000000000000BRCOCEACNPA3133
012013070196COCE5F      020COELCE      PNA          R$  000000000410000000000041000000000004000000000000404600000000040500000000004008000000000405000026000000000000000599000000000002424024000000000000009999123100000010000000000000BRCOCEACNPA3133
012013070102CPFE3       010CPFL ENERGIAON      NM   R$  000000000203000000000020700000000002017000000000204100000000020700000000002041000000000207006559000000000001375900000000002808994900000000000000009999123100000010000000000000BRCPFEACNOR0121
012013070196CPFE3F      020CPFL ENERGIAON      NM   R$  000000000203800000000020980000000002011000000000203800000000020300000000002050000000000209900078000000000000001812000000000003694439000000000000009999123100000010000000000000BRCPFEACNOR0121
012013070102CPLE3       010COPEL       ON      N1   R$  000000000211700000000021560000000002117000000000214300000000021450000000002103000000000214500024000000000000005200000000000011147200000000000000009999123100000010000000000000BRCPLEACNOR8128
012013070196CPLE3F      020COPEL       ON      N1   R$  000000000211700000000021170000000002051000000000209200000000020510000000002140000000000000000004000000000000000123000000000000257383000000000000009999123100000010000000000000BRCPLEACNOR8128
012013070102CPLE6       010COPEL       PNB     N1   R$  000000000275000000000028330000000002720000000000276000000000027760000000002775000000000277602056000000000000422100000000001165326000000000000000009999123100000010000000000000BRCPLEACNPB9125
012013070196CPLE6F      020COPEL       PNB     N1   R$  000000000276800000000028990000000002701000000000275300000000028000000000002700000000000298500023000000000000000470000000000001294552000000000000009999123100000010000000000000BRCPLEACNPB9125
012013070102CRDE3       010CR2         ON      NM   R$  000000000042500000000004250000000000411000000000041400000000004210000000000322000000000039000006000000000000008300000000000003437600000000000000009999123100000010000000000000BRCRDEACNOR1108
012013070102CREM3       010CREMER      ON      NM   R$  000000000137400000000014170000000001374000000000140300000000014150000000001386000000000141500024000000000000347500000000000487843100000000000000009999123100000010000000000000BRCREMACNOR2166
012013070196CREM3F      020CREMER      ON      NM   R$  000000000137000000000013700000000001370000000000137000000000013700000000001371000000000140800001000000000000000017000000000000023290000000000000009999123100000010000000000000BRCREMACNOR2166
012013070102CRIV3       010ALFA FINANC ON           R$  000000000049000000000004900000000000474000000000047900000000004740000000000461000000000047500005000000000000000600000000000000287700000000000000009999123100000010000000000000BRCRIVACNOR4189
012013070102CRIV4       010ALFA FINANC PN           R$  000000000048500000000004950000000000485000000000048700000000004930000000000464000000000049400006000000000000000700000000000000341300000000000000009999123100000010000000000000BRCRIVACNPR1189
012013070102CRUZ3       010SOUZA CRUZ  ON  EJ       R$  000000000271900000000028010000000002716000000000276500000000028010000000002782000000000280104856000000000001389600000000003843532000000000000000009999123100000010000000000000BRCRUZACNOR0246
012013070196CRUZ3F      020SOUZA CRUZ  ON  EJ       R$  000000000276500000000027980000000002721000000000277200000000027950000000002760000000000279500152000000000000004113000000000011406102000000000000009999123100000010000000000000BRCRUZACNOR0246
012013070162CRUZ3T      030SOUZA CRUZ  ON  EJ    016R$  000000000275800000000027590000000002758000000000275800000000027590000000000000000000000000000002000000000000001000000000000002758992000000000000009999123100000010000000000000BRCRUZACNOR0246
012013070162CRUZ3T      030SOUZA CRUZ  ON  EJ    030R$  000000000276200000000027630000000002762000000000276200000000027630000000000000000000000000000002000000000000000400000000000001104807000000000000009999123100000010000000000000BRCRUZACNOR0246
012013070102CSAB4       010SEG AL BAHIAPN           R$  000000000300100000000030010000000003000000000000300000000000030000000000002800000000000000000002000000000000000400000000000001200100000000000000009999123100000010000000000000BRCSABACNPR8051
012013070102CSAN3       010COSAN       ON      NM   R$  000000000431900000000043740000000004270000000000433400000000043400000000004322000000000434003713000000000000817900000000003545065700000000000000009999123100000010000000000000BRCSANACNOR6107
012013070196CSAN3F      020COSAN       ON      NM   R$  000000000432600000000043830000000004282000000000432500000000043800000000004270000000000432500039000000000000001049000000000004537117000000000000009999123100000010000000000000BRCSANACNOR6107
012013070162CSAN3T      030COSAN       ON      NM016R$  000000000434600000000043470000000004346000000000434600000000043470000000000000000000000000000002000000000000001000000000000004346749000000000000009999123100000010000000000000BRCSANACNOR6107
012013070102CSCO11B     010CISCO       DRN ED  MB   R$  000000000552100000000055210000000005420000000000551500000000054200000000005189000000000547100099000000000000108900000000000600626800000000000000009999123100000010000000000000BRCSCOBDR004110
012013070102CSMG3       010COPASA      ON  EJ  NM   R$  000000000356100000000036940000000003561000000000363900000000036190000000003618000000000362002457000000000000502600000000001829295900000000000000009999123100000010000000000000BRCSMGACNOR5127
012013070196CSMG3F      020COPASA      ON  EJ  NM   R$  000000000363500000000036650000000003600000000000363400000000036000000000003500000000000360000020000000000000000535000000000001944032000000000000009999123100000010000000000000BRCSMGACNOR5127
012013070114CSMO11      010ISHARES CSMOCI           R$  000000000457300000000045730000000004525000000000455300000000045650000000004300000000000475000009000000000000001450000000000006603070000000000000009999123100000010000000000000BRCSMOCTF002100
012013070102CSNA3       010SID NACIONALON           R$  000000000060300000000006130000000000597000000000060500000000006050000000000603000000000060508876000000000004714700000000002852457800000000000000009999123100000010000000000000BRCSNAACNOR6242
012013070196CSNA3F      020SID NACIONALON           R$  000000000060000000000006190000000000593000000000060400000000006150000000000601000000000061500055000000000000001560000000000000942754000000000000009999123100000010000000000000BRCSNAACNOR6242
012013070162CSNA3T      030SID NACIONALON        016R$  000000000060500000000006060000000000605000000000060500000000006060000000000000000000000000000002000000000000005000000000000003028869000000000000009999123100000010000000000000BRCSNAACNOR6242
012013070162CSNA3T      030SID NACIONALON        030R$  000000000060900000000006130000000000609000000000060900000000006100000000000000000000000000000008000000000000013000000000000007924844000000000000009999123100000010000000000000BRCSNAACNOR6242
012013070162CSNA3T      030SID NACIONALON        060R$  000000000061100000000006120000000000611000000000061100000000006120000000000000000000000000000002000000000000005000000000000003058656000000000000009999123100000010000000000000BRCSNAACNOR6242
012013070162CSNA3T      030SID NACIONALON        091R$  000000000061800000000006190000000000618000000000061800000000006190000000000000000000000000000002000000000000000200000000000000123779000000000000009999123100000010000000000000BRCSNAACNOR6242
012013070162CSNA3T      030SID NACIONALON        450R$  000000000068500000000006860000000000685000000000068500000000006860000000000000000000000000000002000000000000001000000000000000685842000000000000009999123100000010000000000000BRCSNAACNOR6242
012013070178CSNAG58     070CSNA  FM    ON        000R$  000000000004000000000000400000000000035000000000003800000000000350000000000000000000000000000008000000000000019900000000000000759500000000000058002013071500000010000000000000BRCSNAACNOR6242
012013070178CSNAG6      070CSNA  FM    ON        000R$  000000000002600000000000260000000000022000000000002400000000000220000000000020000000000003000006000000000000010000000000000000241300000000000060002013071500000010000000000000BRCSNAACNOR6242
012013070178CSNAG62     070CSNA  FM    ON        000R$  000000000001300000000000170000000000013000000000001500000000000170000000000000000000000003500004000000000000005900000000000000092100000000000062002013071500000010000000000000BRCSNAACNOR6242
012013070178CSNAG64     070CSNA  FM    ON        000R$  000000000000700000000000070000000000007000000000000700000000000070000000000000000000000000000002000000000000005000000000000000035000000000000064002013071500000010000000000000BRCSNAACNOR6242
012013070178CSNAG66     070CSNA  FM    ON        000R$  000000000000500000000000050000000000005000000000000500000000000050000000000000000000000002000001000000000000003100000000000000015500000000000066002013071500000010000000000000BRCSNAACNOR6242
012013070178CSNAG7      070CSNA        ON        000R$  000000000000300000000000030000000000002000000000000200000000000020000000000002000000000000300015000000000000018800000000000000053800000000000070002013071500000010000000000000BRCSNAACNOR6242
012013070178CSNAG72     070CSNA        ON        000R$  000000000000200000000000020000000000002000000000000200000000000020000000000003000000000000200001000000000000010000000000000000020000000000000072002013071500000010000000000000BRCSNAACNOR6242
012013070178CSNAH58     070CSNA  FM    ON        000R$  000000000005500000000000570000000000055000000000005500000000000570000000000000000000000000000003000000000000007500000000000000417500000000000058002013081900000010000000000000BRCSNAACNOR6242
012013070178CSNAH6      070CSNA  FM    ON        000R$  000000000004400000000000440000000000042000000000004200000000000420000000000000000000000013800040000000000000035000000000000001501300000000000060002013081900000010000000000000BRCSNAACNOR6242
012013070178CSNAH62     070CSNA  FM    ON        000R$  000000000003300000000000360000000000033000000000003400000000000360000000000000000000000000000002000000000000007500000000000000259500000000000062002013081900000010000000000000BRCSNAACNOR6242
012013070178CSNAH64     070CSNA  FM    ON        000R$  000000000002400000000000240000000000024000000000002400000000000240000000000000000000000000000001000000000000001100000000000000026400000000000064002013081900000010000000000000BRCSNAACNOR6242
012013070178CSNAH68     070CSNA        ON        000R$  000000000001300000000000130000000000013000000000001300000000000130000000000000000000000000000001000000000000001000000000000000013000000000000068002013081900000010000000000000BRCSNAACNOR6242
012013070178CSNAH7      070CSNA        ON        000R$  000000000000900000000000090000000000009000000000000900000000000090000000000000000000000001000001000000000000005000000000000000045000000000000070002013081900000010000000000000BRCSNAACNOR6242
012013070178CSNAH8      070CSNA        ON        000R$  000000000000400000000000040000000000004000000000000400000000000040000000000000000000000000000001000000000000000500000000000000002000000000000080002013081900000010000000000000BRCSNAACNOR6242
012013070182CSNAS6      080CSNAE FM    ON        000R$  000000000001700000000000170000000000017000000000001700000000000170000000000000000000000001800001000000000000001000000000000000017000000000000060002013071500000010000000000000BRCSNAACNOR6242
012013070182CSNAS64     080CSNAE FM    ON        000R$  000000000004100000000000430000000000041000000000004100000000000430000000000000000000000000000003000000000000006500000000000000270500000000000064002013071500000010000000000000BRCSNAACNOR6242
012013070182CSNAS72     080CSNAE       ON        000R$  000000000011400000000001140000000000114000000000011400000000001140000000000000000000000000000002000000000000000500000000000000057000000000000072002013071500000010000000000000BRCSNAACNOR6242
012013070182CSNAT62     080CSNAE FM    ON        000R$  000000000004300000000000430000000000043000000000004300000000000430000000000000000000000011800002000000000000006000000000000000258000000000000062002013081900000010000000000000BRCSNAACNOR6242
012013070182CSNAT64     080CSNAE FM    ON        000R$  000000000005600000000000560000000000056000000000005600000000000560000000000000000000000000000001000000000000002000000000000000112000000000000064002013081900000010000000000000BRCSNAACNOR6242
012013070182CSNAT7      080CSNAE       ON        000R$  000000000009700000000000970000000000097000000000009700000000000970000000000060000000000010100001000000000000000100000000000000009700000000000070002013081900000010000000000000BRCSNAACNOR6242
012013070182CSNAU6      080CSNAE       ON        000R$  000000000003900000000000390000000000039000000000003900000000000390000000000000000000000000000001000000000000000100000000000000003900000000000060002013091600000010000000000000BRCSNAACNOR6242
012013070182CSNAU7      080CSNAE       ON        000R$  000000000010000000000001000000000000100000000000010000000000001000000000000000000000000010500002000000000000000200000000000000020000000000000070002013091600000010000000000000BRCSNAACNOR6242
012013070182CSNAU72     080CSNAE       ON        000R$  000000000011600000000001160000000000116000000000011600000000001160000000000000000000000000000001000000000000000100000000000000011600000000000072002013091600000010000000000000BRCSNAACNOR6242
012013070102CTAX11      010CONTAX      UNT     N2   R$  000000000204900000000020500000000001990000000000204700000000020500000000001975000000000205000022000000000000020700000000000042387600000000000000009999123100000010000000000000BRCTAXCDAM19100
012013070196CTAX11F     020CONTAX      UNT     N2   R$  000000000218000000000023540000000002180000000000225400000000023540000000002050000000000235400002000000000000000094000000000000211880000000000000009999123100000010000000000000BRCTAXCDAM19100
012013070102CTAX3       010CONTAX      ON      N2   R$  000000000051300000000005140000000000509000000000051200000000005090000000000451000000000050500006000000000000000600000000000000307700000000000000009999123100000010000000000000BRCTAXACNOR3113
012013070102CTAX4       010CONTAX      PN      N2   R$  000000000037900000000003950000000000365000000000037400000000003650000000000365000000000037300093000000000000068300000000000025566000000000000000009999123100000010000000000000BRCTAXACNPR0114
012013070196CTAX4F      020CONTAX      PN      N2   R$  000000000036000000000003770000000000345000000000035300000000003600000000000337000000000037700006000000000000000263000000000000093040000000000000009999123100000010000000000000BRCTAXACNPR0114
012013070102CTIP3       010CETIP       ON  EJ  NM   R$  000000000227000000000023550000000002256000000000231200000000023300000000002323000000000233006358000000000001228700000000002841970800000000000000009999123100000010000000000000BRCTIPACNOR2119
012013070196CTIP3F      020CETIP       ON  EJ  NM   R$  000000000229000000000023790000000002252000000000231100000000023740000000002300000000000237500039000000000000001405000000000003248604000000000000009999123100000010000000000000BRCTIPACNOR2119
012013070102CTNM4       010COTEMINAS   PN           R$  000000000025000000000002600000000000250000000000025000000000002500000000000246000000000025000050000000000000227000000000000056799000000000000000009999123100000010000000000000BRCTNMACNPR6128
012013070102CTSA3       010SANTANENSE  ON           R$  000000000059400000000005990000000000594000000000059700000000005990000000000561000000000059000002000000000000000300000000000000179200000000000000009999123100000010000000000000BRCTSAACNOR3051
012013070102CTSA4       010SANTANENSE  PN           R$  000000000058500000000005850000000000585000000000058500000000005850000000000585000000000059800002000000000000000200000000000000117000000000000000009999123100000010000000000000BRCTSAACNPR0051
012013070112CXTL11      010FII CX TRX  CI  ER       R$  000000008000000000000800000000000080000000000008000000000000800000000000078500000000008190000003000000000000000060000000000004800000000000000000009999123100000010000000000000BRCXTLCTF003120
012013070102CYRE3       010CYRELA REALTON      NM   R$  000000000152000000000015990000000001520000000000157700000000015990000000001590000000000159913859000000000004837500000000007629153500000000000000009999123100000010000000000000BRCYREACNOR7125
012013070196CYRE3F      020CYRELA REALTON      NM   R$  000000000153400000000016320000000001522000000000157500000000015800000000001580000000000160200038000000000000001215000000000001914796000000000000009999123100000010000000000000BRCYREACNOR7125
012013070178CYREG15     070CYRE  FM    ON      NM000R$  000000000007800000000001130000000000078000000000009800000000001080000000000000000000000000000006000000000000021000000000000002065000000000000150002013071500000010000000000000BRCYREACNOR7125
012013070178CYREG16     070CYRE  FM    ON      NM000R$  000000000002900000000000380000000000026000000000003000000000000370000000000000000000000000000010000000000000026600000000000000817700000000000160002013071500000010000000000000BRCYREACNOR7125
012013070178CYREG45     070CYRE  FM    ON      NM000R$  000000000004200000000000680000000000041000000000005200000000000680000000000000000000000000000005000000000000016000000000000000844600000000000155002013071500000010000000000000BRCYREACNOR7125
012013070178CYREG46     070CYRE  FM    ON      NM000R$  000000000001800000000000180000000000018000000000001800000000000180000000000000000000000000000001000000000000003400000000000000061200000000000165002013071500000010000000000000BRCYREACNOR7125
012013070178CYREH15     070CYRE  FM    ON      NM000R$  000000000012300000000001410000000000123000000000013200000000001410000000000000000000000000000003000000000000007300000000000000967900000000000150002013081900000010000000000000BRCYREACNOR7125
012013070178CYREH16     070CYRE  FM    ON      NM000R$  000000000005500000000000790000000000055000000000007000000000000780000000000000000000000000000039000000000000260800000000000018438300000000000160002013081900000010000000000000BRCYREACNOR7125
012013070178CYREH17     070CYRE  FM    ON      NM000R$  000000000003400000000000370000000000034000000000003600000000000370000000000000000000000000000002000000000000002700000000000000099600000000000170002013081900000010000000000000BRCYREACNOR7125
