00COTAHIST.2013BOVESPA 20130802                                                                                                                                                                                                                      
012013080202ABCB4       010ABC BRASIL  PN      N2   R$  000000000127200000000013210000000001270000000000129200000000013100000000001296000000000131001136000000000000598200000000000773367500000000000000009999123100000010000000000000BRABCBACNPR4120
012013080296ABCB4F      020ABC BRASIL  PN      N2   R$  000000000127100000000013120000000001271000000000128200000000013120000000001300000000000130900023000000000000000368000000000000472131000000000000009999123100000010000000000000BRABCBACNPR4120
012013080212ABCP11      010FII ABC IMOBCI  ER       R$  000000000090000000000009000000000000900000000000090000000000009000000000000900000000000093200001000000000000001000000000000000900000000000000000009999123100000010000000000000BRABCPCTF000214
012013080202ABRE11      010ABRIL EDUCA UNT     N2   R$  000000000350500000000035190000000003484000000000349500000000034960000000003496000000000350000439000000000000074300000000000259727100000000000000009999123100000010000000000000BRABRECDAM15102
012013080296ABRE11F     020ABRIL EDUCA UNT     N2   R$  000000000350000000000035000000000003416000000000347100000000034660000000003414000000000435000009000000000000000289000000000001003279000000000000009999123100000010000000000000BRABRECDAM15102
012013080202AEDU3       010ANHANGUERA  ON      NM   R$  000000000136600000000013770000000001342000000000135600000000013600000000001357000000000136002782000000000001086400000000001473913400000000000000009999123100000010000000000000BRAEDUACNOR9107
012013080296AEDU3F      020ANHANGUERA  ON      NM   R$  000000000136100000000013700000000001347000000000135500000000013500000000001350000000000138300010000000000000000312000000000000422839000000000000009999123100000010000000000000BRAEDUACNOR9107
012013080212AEFI11      010FII AESAPAR CI  ER       R$  000000001248500000000124850000000012300000000001234000000000124300000000012430000000001247500010000000000000000423000000000005219838000000000000009999123100000010000000000000BRAEFICTF002120
012013080296AELP3F      020AES ELPA    ON           R$  000000000080000000000008000000000000800000000000080000000000008000000000000624000000000000000001000000000000000008000000000000006400000000000000009999123100000010000000000000BRAELPACNOR2119
012013080212AGCX11      010FII AG CAIXACI  ER       R$  000000010000100000001000010000000099300000000009937800000001000000000000099300000000010000000029000000000000000279000000000027726537000000000000009999123100000010000000000000BRAGCXCTF003109
012013080202AGEN11      010AGRENCO     DR3          R$  000000000001800000000000190000000000017000000000001700000000000170000000000017000000000001800613000000000011413000000000000201560500000000000000009999123100000010000000000000BRAGENBDR001100
012013080296AGEN11F     020AGRENCO     DR3          R$  000000000002000000000000200000000000018000000000001800000000000180000000000018000000000002100005000000000000000120000000000000002240000000000000009999123100000010000000000000BRAGENBDR001100
012013080262AGEN11T     030AGRENCO     DR3       017R$  000000000001800000000000190000000000018000000000001800000000000190000000000000000000000000000002000000000000020000000000000000361368000000000000009999123100000010000000000000BRAGENBDR001100
012013080202AGRO3       010BRASILAGRO  ON      NM   R$  000000000102000000000010800000000001015000000000105200000000010710000000001020000000000107100046000000000000009600000000000010103700000000000000009999123100000010000000000000BRAGROACNOR7102
012013080262AGRO3T      030BRASILAGRO  ON      NM031R$  000000000104800000000010490000000001048000000000104800000000010490000000000000000000000000000002000000000000002300000000000002412178000000000000009999123100000010000000000000BRAGROACNOR7102
012013080202ALLL3       010ALL AMER LATON      NM   R$  000000000092700000000009350000000000907000000000092300000000009230000000000923000000000092405887000000000002405000000000002221227800000000000000009999123100000010000000000000BRALLLACNOR6118
012013080296ALLL3F      020ALL AMER LATON      NM   R$  000000000092400000000009500000000000911000000000092400000000009220000000000921000000000092500039000000000000001032000000000000954078000000000000009999123100000010000000000000BRALLLACNOR6118
012013080262ALLL3T      030ALL AMER LATON      NM017R$  000000000092600000000009270000000000926000000000092600000000009270000000000000000000000000000004000000000000060000000000000055584906000000000000009999123100000010000000000000BRALLLACNOR6118
012013080262ALLL3T      030ALL AMER LATON      NM031R$  000000000093700000000009380000000000937000000000093700000000009380000000000000000000000000000002000000000000020000000000000018744754000000000000009999123100000010000000000000BRALLLACNOR6118
012013080212ALMI11B     010FII TORRE ALCI  ER  MB   R$  000000031600000000003160000000000316000000000031600000000003160000000000314500000000031740000001000000000000000001000000000000316000000000000000009999123100000010000000000000BRALMICTF003204
012013080202ALPA3       010ALPARGATAS  ON      N1   R$  000000000113500000000011580000000001135000000000114600000000011460000000001105000000000114700009000000000000032200000000000036920100000000000000009999123100000010000000000000BRALPAACNOR0202
012013080202ALPA4       010ALPARGATAS  PN      N1   R$  000000000139400000000014000000000001361000000000138100000000013800000000001375000000000138001482000000000000358400000000000495289000000000000000009999123100000010000000000000BRALPAACNPR7202
012013080296ALPA4F      020ALPARGATAS  PN      N1   R$  000000000138500000000013950000000001371000000000138700000000013710000000001371000000000138100013000000000000000287000000000000398214000000000000009999123100000010000000000000BRALPAACNPR7202
012013080202ALSC3       010ALIANSCE    ON      NM   R$  000000000208100000000021090000000002061000000000208400000000020790000000002072000000000208401242000000000000666800000000001390181000000000000000009999123100000010000000000000BRALSCACNOR0104
012013080296ALSC3F      020ALIANSCE    ON      NM   R$  000000000208400000000020840000000002083000000000208300000000020830000000001902000000000208400003000000000000000088000000000000183348000000000000009999123100000010000000000000BRALSCACNOR0104
012013080262ALSC3T      030ALIANSCE    ON      NM017R$  000000000210700000000021080000000002107000000000210700000000021080000000000000000000000000000002000000000000002000000000000004215960000000000000009999123100000010000000000000BRALSCACNOR0104
012013080202ALUP11      010ALUPAR      UNT     N2   R$  000000000175500000000017590000000001740000000000174900000000017500000000001735000000000175000135000000000000056400000000000098671200000000000000009999123100000010000000000000BRALUPCDAM15100
012013080296ALUP11F     020ALUPAR      UNT     N2   R$  000000000175900000000017760000000001711000000000175600000000017330000000001700000000000185000025000000000000000469000000000000823962000000000000009999123100000010000000000000BRALUPCDAM15100
012013080262ALUP11T     030ALUPAR      UNT     N2360R$  000000000192100000000019220000000001921000000000192100000000019220000000000000000000000000000002000000000000001000000000000001921124000000000000009999123100000010000000000000BRALUPCDAM15100
012013080202AMAR3       010LOJAS MARISAON      NM   R$  000000000207100000000020930000000002029000000000205100000000020500000000002047000000000205001780000000000000279300000000000573073800000000000000009999123100000010000000000000BRAMARACNOR4109
012013080296AMAR3F      020LOJAS MARISAON      NM   R$  000000000206400000000020650000000002040000000000205200000000020490000000002035000000000206500010000000000000000185000000000000379789000000000000009999123100000010000000000000BRAMARACNOR4109
012013080202AMBV3       010AMBEV       ON           R$  000000000878100000000088480000000008650000000000873500000000087010000000008701000000000871101050000000000000244100000000002132457100000000000000009999123100000010000000000000BRAMBVACNOR4153
012013080296AMBV3F      020AMBEV       ON           R$  000000000880000000000088690000000008715000000000874700000000087210000000008700000000000876400031000000000000000746000000000006525192000000000000009999123100000010000000000000BRAMBVACNOR4153
012013080262AMBV3T      030AMBEV       ON        031R$  000000000877800000000087790000000008778000000000877800000000087790000000000000000000000000000002000000000000000400000000000003511477000000000000009999123100000010000000000000BRAMBVACNOR4153
012013080202AMBV4       010AMBEV       PN           R$  000000000875000000000088790000000008645000000000874700000000087390000000008714000000000873905681000000000001295200000000011328968900000000000000009999123100000010000000000000BRAMBVACNPR1153
012013080296AMBV4F      020AMBEV       PN           R$  000000000877500000000088500000000008650000000000875000000000086760000000008676000000000877000201000000000000005087000000000044509366000000000000009999123100000010000000000000BRAMBVACNPR1153
012013080278AMBVH87     070AMBV        PN        000R$  000000000012100000000001210000000000120000000000012000000000001200000000000000000000000000000002000000000000000200000000000000024100000000000870002013081900000010000000000000BRAMBVACNPR1153
012013080278AMBVI90     070AMBV        PN        000R$  000000000015000000000001700000000000150000000000015800000000001700000000000000000000000000000005000000000000001800000000000000286000000000000900002013091600000010000000000000BRAMBVACNPR1153
012013080202ARMT11B     010ARCELOR     DRN     MB   R$  000000000144500000000014450000000001445000000000144500000000014450000000001400000000000145000001000000000000003000000000000004335000000000000000009999123100000010000000000000BRARMTBDR008111
012013080202ARTR3       010ARTERIS     ON      NM   R$  000000000216100000000022060000000002152000000000218900000000021900000000002190000000000219202987000000000008614100000000018864440100000000000000009999123100000010000000000000BRARTRACNOR3101
012013080296ARTR3F      020ARTERIS     ON      NM   R$  000000000216200000000022090000000002150000000000218400000000021950000000002176000000000219100176000000000000005098000000000011139034000000000000009999123100000010000000000000BRARTRACNOR3101
012013080202ARZZ3       010AREZZO CO   ON  ED  NM   R$  000000000341400000000034310000000003370000000000338400000000033900000000003377000000000339001497000000000000287600000000000973418100000000000000009999123100000010000000000000BRARZZACNOR3109
012013080296ARZZ3F      020AREZZO CO   ON  ED  NM   R$  000000000341000000000034100000000003382000000000339400000000033840000000003301000000000348600007000000000000000313000000000001062494000000000000009999123100000010000000000000BRARZZACNOR3109
012013080202AUTM3       010AUTOMETAL   ON      NM   R$  000000000180600000000018650000000001806000000000184700000000018490000000001845000000000184900510000000000000093700000000000173103900000000000000009999123100000010000000000000BRAUTMACNOR8109
012013080296AUTM3F      020AUTOMETAL   ON      NM   R$  000000000183700000000018370000000001837000000000183700000000018370000000001501000000000190000001000000000000000031000000000000056947000000000000009999123100000010000000000000BRAUTMACNOR8109
012013080202BAHI3       010BAHEMA      ON           R$  000000000049500000000005150000000000495000000000050300000000005100000000000495000000000051000004000000000000001100000000000000554000000000000000009999123100000010000000000000BRBAHIACNOR1066
012013080296BAHI3F      020BAHEMA      ON           R$  000000000040800000000004080000000000408000000000040800000000004080000000000408000000000056000001000000000000000030000000000000012240000000000000009999123100000010000000000000BRBAHIACNOR1066
012013080202BAUH4       010EXCELSIOR   PN           R$  000000000099000000000009950000000000903000000000097600000000009700000000000903000000000097000005000000000000000700000000000000683200000000000000009999123100000010000000000000BRBAUHACNPR3108
012013080296BAUH4F      020EXCELSIOR   PN           R$  000000000091000000000009100000000000910000000000091000000000009100000000000000000000000105000001000000000000000040000000000000036400000000000000009999123100000010000000000000BRBAUHACNPR3108
012013080202BAZA3       010AMAZONIA    ON           R$  000000000003300000000000340000000000033000000000003300000000000340000000000033000000000003400008000000000000166000000000000005484000000000000000009999123100000010000000000000BRBAZAACNOR0163
012013080296BAZA3F      020AMAZONIA    ON           R$  000000000003300000000000330000000000033000000000003300000000000330000000000033000000000003400002000000000000000672000000000000022176000000000000009999123100000010000000000000BRBAZAACNOR0163
012013080202BBAS3       010BRASIL      ON      NM   R$  000000000231200000000023350000000002280000000000230000000000022810000000002281000000000229007264000000000002873700000000006609673600000000000000009999123100000010000000000000BRBBASACNOR3237
012013080296BBAS3F      020BRASIL      ON      NM   R$  000000000229500000000023300000000002260000000000230300000000022600000000002260000000000229500190000000000000005081000000000011700839000000000000009999123100000010000000000000BRBBASACNOR3237
012013080262BBAS3T      030BRASIL      ON      NM031R$  000000000233600000000023370000000002302000000000233000000000023030000000000000000000000000000006000000000000006000000000000013982647000000000000009999123100000010000000000000BRBBASACNOR3237
012013080262BBAS3T      030BRASIL      ON      NM060R$  000000000234800000000023490000000002312000000000232200000000023130000000000000000000000000000006000000000000007000000000000016259047000000000000009999123100000010000000000000BRBBASACNOR3237
012013080278BBASH20     070BBAS        ON      NM000R$  000000000031500000000003400000000000307000000000032100000000003080000000000000000000000034000004000000000000002000000000000000642500000000000200002013081900000010000000000000BRBBASACNOR3237
012013080278BBASH21     070BBAS        ON      NM000R$  000000000025500000000002550000000000227000000000024900000000002270000000000215000000000025000006000000000000007500000000000001871400000000000207602013081900000010000000000000BRBBASACNOR3236
012013080278BBASH22     070BBAS  FM    ON      NM000R$  000000000017100000000001990000000000133000000000015000000000001360000000000115000000000016700081000000000000081000000000000012184000000000000217602013081900000010000000000000BRBBASACNOR3236
012013080278BBASH23     070BBAS  FM    ON      NM000R$  000000000008700000000000870000000000065000000000008000000000000660000000000057000000000008600048000000000000066600000000000005386900000000000227602013081900000010000000000000BRBBASACNOR3236
012013080278BBASH24     070BBAS  FM    ON      NM000R$  000000000005900000000000610000000000040000000000005500000000000470000000000040000000000004700122000000000000229900000000000012836000000000000231702013081900000010000000000000BRBBASACNOR3233
012013080278BBASH25     070BBAS  FM    ON      NM000R$  000000000001500000000000200000000000012000000000001800000000000130000000000012000000000001700082000000000000107200000000000001953800000000000241702013081900000010000000000000BRBBASACNOR3233
012013080278BBASH26     070BBAS  FM    ON      NM000R$  000000000000200000000000030000000000002000000000000200000000000030000000000002000000000000300011000000000000018900000000000000043900000000000256602013081900000010000000000000BRBBASACNOR3235
012013080278BBASH28     070BBAS        ON      NM000R$  000000000000100000000000010000000000001000000000000100000000000010000000000000000000000000400003000000000000002500000000000000002500000000000276602013081900000010000000000000BRBBASACNOR3235
012013080278BBASI22     070BBAS  FM    ON      NM000R$  000000000019500000000001980000000000168000000000018300000000001680000000000155000000000000000025000000000000038400000000000007045600000000000217602013091600000010000000000000BRBBASACNOR3236
012013080278BBASI23     070BBAS  FM    ON      NM000R$  000000000012500000000001260000000000105000000000011800000000001050000000000016000000000013800013000000000000026000000000000003071500000000000227602013091600000010000000000000BRBBASACNOR3236
012013080278BBASI24     070BBAS  FM    ON      NM000R$  000000000007100000000000710000000000058000000000006600000000000580000000000045000000000010100015000000000000023500000000000001557400000000000237602013091600000010000000000000BRBBASACNOR3236
012013080278BBASI25     070BBAS  FM    ON      NM000R$  000000000003700000000000370000000000031000000000003300000000000310000000000016000000000003700011000000000000015200000000000000514000000000000246602013091600000010000000000000BRBBASACNOR3235
012013080278BBASI26     070BBAS  FM    ON      NM000R$  000000000001200000000000120000000000012000000000001200000000000120000000000011000000000002000001000000000000001200000000000000014400000000000256602013091600000010000000000000BRBBASACNOR3235
012013080278BBASI27     070BBAS        ON      NM000R$  000000000000700000000000070000000000007000000000000700000000000070000000000005000000000003900001000000000000000300000000000000002100000000000267602013091600000010000000000000BRBBASACNOR3236
012013080278BBASI28     070BBAS        ON      NM000R$  000000000000400000000000040000000000004000000000000400000000000040000000000003000000000001400001000000000000000300000000000000001200000000000276602013091600000010000000000000BRBBASACNOR3235
012013080278BBASJ20     070BBAS        ON      NM000R$  000000000035200000000003520000000000352000000000035200000000003520000000000000000000000000000001000000000000003000000000000001056000000000000200002013102100000010000000000000BRBBASACNOR3237
012013080278BBASJ25     070BBAS        ON      NM000R$  000000000005200000000000520000000000052000000000005200000000000520000000000000000000000000000001000000000000000500000000000000026000000000000250002013102100000010000000000000BRBBASACNOR3237
012013080278BBASJ28     070BBAS        ON      NM000R$  000000000001000000000000100000000000010000000000001000000000000100000000000005000000000001200002000000000000004900000000000000049000000000000280002013102100000010000000000000BRBBASACNOR3237
012013080278BBASL25     070BBAS        ON      NM000R$  000000000009900000000000990000000000097000000000009800000000000970000000000000000000000000000004000000000000010000000000000000980000000000000246602013121600000010000000000000BRBBASACNOR3235
012013080282BBASM25     080BBASE       ON      NM000R$  000000000021400000000002140000000000214000000000021400000000002140000000000000000000000000000001000000000000001200000000000000256800000000000250002014012000000010000000000000BRBBASACNOR3237
012013080282BBASN24     080BBASE       ON      NM000R$  000000000017100000000001710000000000171000000000017100000000001710000000000000000000000000000001000000000000001200000000000000205200000000000240002014021700000010000000000000BRBBASACNOR3237
012013080282BBAST20     080BBASE       ON      NM000R$  000000000000400000000000040000000000004000000000000400000000000040000000000002000000000000700002000000000000001000000000000000004000000000000200002013081900000010000000000000BRBBASACNOR3237
012013080282BBAST21     080BBASE FM    ON      NM000R$  000000000000800000000000080000000000008000000000000800000000000080000000000000000000000000900001000000000000000100000000000000000800000000000207602013081900000010000000000000BRBBASACNOR3236
012013080282BBAST22     080BBASE FM    ON      NM000R$  000000000001400000000000150000000000011000000000001300000000000140000000000005000000000003500009000000000000013100000000000000178300000000000217602013081900000010000000000000BRBBASACNOR3236
012013080282BBAST23     080BBASE FM    ON      NM000R$  000000000003300000000000460000000000032000000000003800000000000460000000000020000000000010000013000000000000021500000000000000832400000000000227602013081900000010000000000000BRBBASACNOR3236
012013080282BBAST24     080BBASE FM    ON      NM000R$  000000000004600000000000670000000000045000000000005000000000000640000000000026000000000000000032000000000000076000000000000003857200000000000231702013081900000010000000000000BRBBASACNOR3233
012013080282BBAST25     080BBASE       ON      NM000R$  000000000010500000000001260000000000105000000000012000000000001230000000000000000000000000000008000000000000024000000000000002883000000000000241702013081900000010000000000000BRBBASACNOR3233
012013080282BBASU23     080BBASE FM    ON      NM000R$  000000000005800000000000700000000000058000000000006100000000000700000000000000000000000000000012000000000000021400000000000001316700000000000227602013091600000010000000000000BRBBASACNOR3236
012013080282BBASU24     080BBASE FM    ON      NM000R$  000000000010200000000001240000000000102000000000010900000000001240000000000000000000000000000008000000000000016300000000000001784200000000000237602013091600000010000000000000BRBBASACNOR3236
012013080282BBASV20     080BBASE       ON      NM000R$  000000000002500000000000250000000000025000000000002500000000000250000000000000000000000012000001000000000000001200000000000000030000000000000200002013102100000010000000000000BRBBASACNOR3237
012013080282BBASV22     080BBASE       ON      NM000R$  000000000006200000000000680000000000062000000000006600000000000680000000000000000000000000000002000000000000003700000000000000247400000000000220002013102100000010000000000000BRBBASACNOR3237
012013080282BBASV23     080BBASE       ON      NM000R$  000000000009000000000000920000000000090000000000009100000000000920000000000000000000000000000002000000000000006000000000000000546000000000000226602013102100000010000000000000BRBBASACNOR3235
012013080282BBASV24     080BBASE       ON      NM000R$  000000000013000000000001420000000000130000000000013700000000001420000000000000000000000000000003000000000000009000000000000001236000000000000237602013102100000010000000000000BRBBASACNOR3236
012013080282BBASV25     080BBASE       ON      NM000R$  000000000021700000000002170000000000217000000000021700000000002170000000000000000000000000000001000000000000003000000000000000651000000000000250002013102100000010000000000000BRBBASACNOR3237
012013080282BBASV26     080BBASE       ON      NM000R$  000000000024600000000002660000000000246000000000025400000000002660000000000000000000000000000003000000000000009000000000000002289000000000000256602013102100000010000000000000BRBBASACNOR3235
012013080282BBASV27     080BBASE       ON      NM000R$  000000000032700000000003380000000000327000000000033200000000003380000000000000000000000000000003000000000000009000000000000002988000000000000266602013102100000010000000000000BRBBASACNOR3235
012013080282BBASV53     080BBASE       ON      NM000R$  000000000009900000000001130000000000099000000000010700000000001130000000000000000000000000000003000000000000009000000000000000969000000000000231602013102100000010000000000000BRBBASACNOR3235
012013080282BBASV56     080BBASE       ON      NM000R$  000000000029100000000003060000000000290000000000029600000000003050000000000000000000000000000005000000000000015000000000000004446000000000000261602013102100000010000000000000BRBBASACNOR3235
012013080282BBASW23     080BBASE       ON      NM000R$  000000000010300000000001030000000000103000000000010300000000001030000000000000000000000000000001000000000000000300000000000000030900000000000230002013111800000010000000000000BRBBASACNOR3237
012013080202BBDC3       010BRADESCO    ON  EJ  N1   R$  000000000312900000000031860000000003083000000000312700000000030940000000003094000000000309703527000000000000835700000000002613515000000000000000009999123100000010000000000000BRBBDCACNOR1605
012013080296BBDC3F      020BRADESCO    ON  EJ  N1   R$  000000000314500000000031990000000003055000000000312900000000030970000000002904000000000310000094000000000000001097000000000003432985000000000000009999123100000010000000000000BRBBDCACNOR1605
012013080202BBDC4       010BRADESCO    PN  EJ  N1   R$  000000000282500000000028830000000002802000000000284000000000028200000000002820000000000282116008000000000005384600000000015295454700000000000000009999123100000010000000000000BRBBDCACNPR8605
012013080296BBDC4F      020BRADESCO    PN  EJ  N1   R$  000000000284000000000028830000000002801000000000284300000000028350000000002809000000000283500266000000000000005155000000000014659863000000000000009999123100000010000000000000BRBBDCACNPR8605
012013080262BBDC4T      030BRADESCO    PN  EJ  N1031R$  000000000283000000000028310000000002830000000000283000000000028310000000000000000000000000000004000000000000001000000000000002830840000000000000009999123100000010000000000000BRBBDCACNPR8605
012013080262BBDC4T      030BRADESCO    PN  EJ  N1090R$  000000000293900000000029400000000002939000000000293900000000029400000000000000000000000000000002000000000000000200000000000000587813000000000000009999123100000010000000000000BRBBDCACNPR8605
012013080278BBDCA34     070BBDC    /EJ PN      N1000R$  000000000005000000000000550000000000050000000000005200000000000550000000000000000000000000000003000000000000001900000000000000099500000000000339802014012000000010000000000000BRBBDCACNPR8604
012013080278BBDCC6      070BBDC    /EJ PN      N1000R$  000000000011500000000001150000000000115000000000011500000000001150000000000000000000000000000001000000000000001000000000000000115000000000000324502014031700000010000000000000BRBBDCACNPR8598
012013080278BBDCH26     070BBDC    /EJ PN      N1000R$  000000000031000000000003100000000000310000000000031000000000003100000000000000000000000000000001000000000000000200000000000000062000000000000257802013081900000010000000000000BRBBDCACNPR8602
012013080278BBDCH27     070BBDC    /EJ PN      N1000R$  000000000020000000000002200000000000151000000000018200000000001660000000000142000000000021900173000000000000202700000000000037067100000000000267802013081900000010000000000000BRBBDCACNPR8602
012013080278BBDCH28     070BBDC    /EJ PN      N1000R$  000000000010300000000001330000000000077000000000010100000000000810000000000080000000000009400384000000000000312900000000000031659700000000000277802013081900000010000000000000BRBBDCACNPR8602
012013080278BBDCH29     070BBDC    /EJ PN      N1000R$  000000000004900000000000670000000000031000000000005500000000000350000000000035000000000003800362000000000000596500000000000033099800000000000287802013081900000010000000000000BRBBDCACNPR8602
012013080278BBDCH30     070BBDC    /EJ PN      N1000R$  000000000002200000000000240000000000011000000000001500000000000110000000000010000000000002300024000000000000033000000000000000513000000000000297802013081900000010000000000000BRBBDCACNPR8602
012013080278BBDCH31     070BBDC    /EJ PN      N1000R$  000000000000500000000000050000000000005000000000000500000000000050000000000004000000000000900001000000000000000200000000000000001000000000000307402013081900000010000000000000BRBBDCACNPR8600
012013080278BBDCH32     070BBDC    /EJ PN      N1000R$  000000000000300000000000030000000000002000000000000200000000000020000000000002000000000000000005000000000000012500000000000000027300000000000317802013081900000010000000000000BRBBDCACNPR8602
012013080278BBDCH34     070BBDC    /EJ PN      N1000R$  000000000000700000000000070000000000007000000000000700000000000070000000000005000000000001200001000000000000002000000000000000014000000000000305302013081900000010000000000000BRBBDCACNPR8595
012013080278BBDCI13     070BBDC    /EJ PN      N1000R$  000000000000700000000000070000000000007000000000000700000000000070000000000000000000000000000002000000000000008000000000000000056000000000000327802013091600000010000000000000BRBBDCACNPR8602
012013080278BBDCI27     070BBDC    /EJ PN      N1000R$  000000000023000000000002550000000000195000000000021900000000002060000000000000000000000000000110000000000000129800000000000028532600000000000267802013091600000010000000000000BRBBDCACNPR8602
012013080278BBDCI28     070BBDC    /EJ PN      N1000R$  000000000015700000000001750000000000133000000000014700000000001360000000000122000000000020000085000000000000096500000000000014256800000000000277802013091600000010000000000000BRBBDCACNPR8602
012013080278BBDCI29     070BBDC    /EJ PN      N1000R$  000000000009700000000001150000000000080000000000010300000000000820000000000072000000000000000031000000000000052400000000000005434300000000000287802013091600000010000000000000BRBBDCACNPR8602
012013080278BBDCI30     070BBDC    /EJ PN      N1000R$  000000000005400000000000660000000000040000000000005400000000000400000000000032000000000005900057000000000000087700000000000004787400000000000297802013091600000010000000000000BRBBDCACNPR8602
012013080278BBDCI32     070BBDC    /EJ PN      N1000R$  000000000001400000000000150000000000014000000000001400000000000150000000000008000000000000000003000000000000007100000000000000102500000000000317802013091600000010000000000000BRBBDCACNPR8602
012013080278BBDCI33     070BBDC    /EJ PN      N1000R$  000000000004800000000000490000000000048000000000004800000000000490000000000000000000000000000046000000000000102100000000000004901800000000000297202013091600000010000000000000BRBBDCACNPR8598
012013080278BBDCI37     070BBDC    /EJ PN      N1000R$  000000000000500000000000050000000000005000000000000500000000000050000000000000000000000000000001000000000000004000000000000000020000000000000333602013091600000010000000000000BRBBDCACNPR8598
012013080278BBDCI81     070BBDC    /EJ PN      N1000R$  000000000002700000000000340000000000020000000000002700000000000230000000000000000000000003400050000000000000080000000000000002204400000000000307802013091600000010000000000000BRBBDCACNPR8602
012013080278BBDCJ27     070BBDC    /EJ PN      N1000R$  000000000028600000000002860000000000286000000000028600000000002860000000000000000000000000000001000000000000003000000000000000858000000000000267802013102100000010000000000000BRBBDCACNPR8602
012013080278BBDCJ29     070BBDC    /EJ PN      N1000R$  000000000015600000000001610000000000133000000000014800000000001330000000000000000000000000000005000000000000008400000000000001246000000000000287802013102100000010000000000000BRBBDCACNPR8602
012013080278BBDCJ30     070BBDC    /EJ PN      N1000R$  000000000010700000000001070000000000079000000000008600000000000850000000000000000000000009000035000000000000014700000000000001278800000000000297802013102100000010000000000000BRBBDCACNPR8602
012013080278BBDCJ31     070BBDC    /EJ PN      N1000R$  000000000005000000000000500000000000048000000000004900000000000480000000000046000000000000000007000000000000020000000000000000980000000000000307802013102100000010000000000000BRBBDCACNPR8602
012013080278BBDCJ32     070BBDC    /EJ PN      N1000R$  000000000003900000000000390000000000039000000000003900000000000390000000000021000000000000000001000000000000001100000000000000042900000000000317802013102100000010000000000000BRBBDCACNPR8602
012013080278BBDCJ33     070BBDC    /EJ PN      N1000R$  000000000002600000000000260000000000026000000000002600000000000260000000000000000000000000000001000000000000003000000000000000078000000000000327802013102100000010000000000000BRBBDCACNPR8602
012013080278BBDCJ34     070BBDC    /EJ PN      N1000R$  000000000001600000000000160000000000016000000000001600000000000160000000000000000000000000000001000000000000003000000000000000048000000000000337402013102100000010000000000000BRBBDCACNPR8600
012013080278BBDCJ35     070BBDC    /EJ PN      N1000R$  000000000000900000000000090000000000009000000000000900000000000090000000000000000000000000000003000000000000005400000000000000048600000000000350002013102100000010000000000000BRBBDCACNPR8605
012013080278BBDCJ36     070BBDC    /EJ PN      N1000R$  000000000000600000000000060000000000006000000000000600000000000060000000000000000000000000000002000000000000006000000000000000036000000000000360002013102100000010000000000000BRBBDCACNPR8605
012013080278BBDCJ4      070BBDC    /EJ PN      N1000R$  000000000001100000000000110000000000011000000000001100000000000110000000000000000000000000000001000000000000003000000000000000033000000000000345002013102100000010000000000000BRBBDCACNPR8605
012013080282BBDCT24     080BBDCE   /EJ PN      N1000R$  000000000000100000000000010000000000001000000000000100000000000010000000000000000000000000000001000000000000007000000000000000007000000000000237802013081900000010000000000000BRBBDCACNPR8602
012013080282BBDCT26     080BBDCE   /EJ PN      N1000R$  000000000000500000000000050000000000005000000000000500000000000050000000000000000000000003600001000000000000000200000000000000001000000000000257802013081900000010000000000000BRBBDCACNPR8602
012013080282BBDCT27     080BBDCE   /EJ PN      N1000R$  000000000001100000000000170000000000009000000000001000000000000170000000000006000000000001800203000000000000035000000000000000359700000000000267802013081900000010000000000000BRBBDCACNPR8602
012013080282BBDCT28     080BBDCE   /EJ PN      N1000R$  000000000002300000000000420000000000022000000000003300000000000410000000000000000000000005700025000000000000030900000000000001031000000000000277802013081900000010000000000000BRBBDCACNPR8602
012013080282BBDCT29     080BBDCE   /EJ PN      N1000R$  000000000006800000000000890000000000051000000000007800000000000890000000000000000000000000000051000000000000086300000000000006746400000000000287802013081900000010000000000000BRBBDCACNPR8602
012013080282BBDCT30     080BBDCE   /EJ PN      N1000R$  000000000011300000000001690000000000112000000000013900000000001690000000000000000000000027000014000000000000023000000000000003217000000000000297802013081900000010000000000000BRBBDCACNPR8602
012013080282BBDCU26     080BBDCE   /EJ PN      N1000R$  000000000002100000000000270000000000018000000000002300000000000270000000000007000000000000000007000000000000012000000000000000279800000000000259802013091600000010000000000000BRBBDCACNPR8604
012013080282BBDCU27     080BBDCE   /EJ PN      N1000R$  000000000003400000000000390000000000029000000000003100000000000380000000000000000000000000000212000000000000045500000000000001444600000000000267802013091600000010000000000000BRBBDCACNPR8602
012013080282BBDCU28     080BBDCE   /EJ PN      N1000R$  000000000005600000000000780000000000051000000000006000000000000720000000000000000000000000000021000000000000025700000000000001561900000000000277802013091600000010000000000000BRBBDCACNPR8602
012013080282BBDCU29     080BBDCE   /EJ PN      N1000R$  000000000008600000000001220000000000086000000000010200000000001220000000000000000000000000000030000000000000041700000000000004268200000000000287802013091600000010000000000000BRBBDCACNPR8602
012013080282BBDCU30     080BBDCE   /EJ PN      N1000R$  000000000018300000000001830000000000179000000000018100000000001790000000000000000000000019000003000000000000000700000000000000127300000000000297802013091600000010000000000000BRBBDCACNPR8602
012013080282BBDCU33     080BBDCE   /EJ PN      N1000R$  000000000014000000000001400000000000140000000000014000000000001400000000000000000000000000000001000000000000000400000000000000056000000000000297202013091600000010000000000000BRBBDCACNPR8598
012013080282BBDCU81     080BBDCE   /EJ PN      N1000R$  000000000025100000000002510000000000251000000000025100000000002510000000000000000000000000000001000000000000002000000000000000502000000000000307802013091600000010000000000000BRBBDCACNPR8602
012013080282BBDCV1      080BBDCE   /EJ PN      N1000R$  000000000028300000000003120000000000276000000000029200000000003120000000000000000000000000000005000000000000007400000000000002166800000000000314602013102100000010000000000000BRBBDCACNPR8603
012013080282BBDCV2      080BBDCE   /EJ PN      N1000R$  000000000039500000000003950000000000395000000000039500000000003950000000000000000000000000000001000000000000002000000000000000790000000000000324602013102100000010000000000000BRBBDCACNPR8603
012013080282BBDCV25     080BBDCE   /EJ PN      N1000R$  000000000002600000000000310000000000026000000000003000000000000310000000000000000000000000000011000000000000013200000000000000403200000000000249602013102100000010000000000000BRBBDCACNPR8603
012013080282BBDCV26     080BBDCE   /EJ PN      N1000R$  000000000004700000000000490000000000047000000000004700000000000490000000000000000000000000000012000000000000015000000000000000713000000000000259802013102100000010000000000000BRBBDCACNPR8604
012013080282BBDCV27     080BBDCE   /EJ PN      N1000R$  000000000005400000000000720000000000054000000000006500000000000720000000000000000000000000000023000000000000029500000000000001937000000000000267802013102100000010000000000000BRBBDCACNPR8602
012013080282BBDCV28     080BBDCE   /EJ PN      N1000R$  000000000002700000000000270000000000027000000000002700000000000270000000000000000000000000000002000000000000004000000000000000108000000000000245802013102100000010000000000000BRBBDCACNPR8591
012013080282BBDCV29     080BBDCE   /EJ PN      N1000R$  000000000012500000000001510000000000122000000000014000000000001420000000000000000000000000000037000000000000048800000000000006853400000000000287802013102100000010000000000000BRBBDCACNPR8602
012013080282BBDCV30     080BBDCE   /EJ PN      N1000R$  000000000016500000000002060000000000165000000000019100000000001960000000000000000000000000000043000000000000126800000000000024251200000000000297802013102100000010000000000000BRBBDCACNPR8602
012013080282BBDCV31     080BBDCE   /EJ PN      N1000R$  000000000023500000000002610000000000229000000000024300000000002610000000000000000000000000000008000000000000009100000000000002217500000000000307802013102100000010000000000000BRBBDCACNPR8602
012013080282BBDCV32     080BBDCE   /EJ PN      N1000R$  000000000030100000000003380000000000301000000000031700000000003380000000000000000000000000000002000000000000002200000000000000699200000000000317802013102100000010000000000000BRBBDCACNPR8602
012013080282BBDCW27     080BBDCE   /EJ PN      N1000R$  000000000007400000000000860000000000074000000000008000000000000860000000000000000000000008600017000000000000028400000000000002282400000000000269602013111800000010000000000000BRBBDCACNPR8603
012013080212BBFI11B     010FII BB PROGRCI  ER  MB   R$  000000042110100000004240000000000420100000000042213900000004230000000000422000000000042400000012000000000000000025000000000010553498000000000000009999123100000010000000000000BRBBFICTF006197
012013080212BBPO11      010FII BB PRGIICI  ER       R$  000000001115900000000112980000000011060000000001116100000000112980000000011210000000001129800216000000000000026502000000000295804192000000000000009999123100000010000000000000BRBBPOCTF003109
012013080212BBRC11      010FII BB CORP CI  ER       R$  000000000915100000000092970000000009149000000000921000000000091600000000009160000000000923000011000000000000000354000000000003260441000000000000009999123100000010000000000000BRBBRCCTF004123
012013080202BBRK3       010BR BROKERS  ON      NM   R$  000000000058000000000005900000000000571000000000058100000000005750000000000575000000000057601805000000000001369700000000000796047800000000000000009999123100000010000000000000BRBBRKACNOR4108
012013080296BBRK3F      020BR BROKERS  ON      NM   R$  000000000058200000000005820000000000582000000000058200000000005820000000000558000000000064800001000000000000000012000000000000006984000000000000009999123100000010000000000000BRBBRKACNOR4108
012013080202BBSE3       010BBSEGURIDADEON      NM   R$  000000000185000000000019070000000001846000000000189200000000018990000000001895000000000189908099000000000005523200000000010451578700000000000000009999123100000010000000000000BRBBSEACNOR5100
012013080296BBSE3F      020BBSEGURIDADEON      NM   R$  000000000182000000000019090000000001820000000000188800000000018950000000001877000000000189501182000000000000033507000000000063270389000000000000009999123100000010000000000000BRBBSEACNOR5100
012013080262BBSE3T      030BBSEGURIDADEON      NM031R$  000000000186200000000018630000000001862000000000186200000000018630000000000000000000000000000002000000000000000500000000000000931012000000000000009999123100000010000000000000BRBBSEACNOR5100
012013080202BBTG11      010BTG PACTUAL UNT          R$  000000000284300000000028520000000002760000000000282300000000027700000000002770000000000277600817000000000000508500000000001435978900000000000000009999123100000010000000000000BRBBTGUNT007104
012013080296BBTG11F     020BTG PACTUAL UNT          R$  000000000281700000000028260000000002786000000000281000000000027860000000002750000000000292200006000000000000000254000000000000713748000000000000009999123100000010000000000000BRBBTGUNT007104
012013080262BBTG11T     030BTG PACTUAL UNT       059R$  000000000282700000000028280000000002827000000000282700000000028280000000000000000000000000000004000000000000010200000000000028844900000000000000009999123100000010000000000000BRBBTGUNT007104
012013080212BBVJ11      010FII C JARDIMCI  ER       R$  000000000800000000000080000000000007880000000000789600000000079500000000007890000000000792500021000000000000001669000000000013178618000000000000009999123100000010000000000000BRBBVJCTF001132
012013080212BCFF11B     010FII BC FFII CI      MB   R$  000000001024800000000102480000000010110000000001014100000000101620000000010162000000001021900038000000000000002173000000000022037339000000000000009999123100000010000000000000BRBCFFCTF000140
012013080202BDLL3       010BARDELLA    ON           R$  000000000500000000000050000000000005000000000000500000000000050000000000004500000000000550000001000000000000000100000000000000500000000000000000009999123100000010000000000000BRBDLLACNOR1149
012013080202BDLL4       010BARDELLA    PN           R$  000000000520000000000053000000000005200000000000525000000000053000000000004600000000000599000002000000000000000400000000000002100000000000000000009999123100000010000000000000BRBDLLACNPR8149
012013080262BDLL4T      030BARDELLA    PN        017R$  000000000532000000000053210000000005320000000000532000000000053210000000000000000000000000000002000000000000000200000000000001064028000000000000009999123100000010000000000000BRBDLLACNPR8149
012013080202BEEF3       010MINERVA     ON      NM   R$  000000000093700000000009790000000000932000000000095800000000009620000000000962000000000096902509000000000000747900000000000716648200000000000000009999123100000010000000000000BRBEEFACNOR6104
012013080296BEEF3F      020MINERVA     ON      NM   R$  000000000094600000000009690000000000946000000000095000000000009670000000000900000000000097900026000000000000000667000000000000634215000000000000009999123100000010000000000000BRBEEFACNOR6104
012013080262BEEF3T      030MINERVA     ON      NM031R$  000000000095600000000009670000000000956000000000096100000000009670000000000000000000000000000004000000000000010500000000000010095670000000000000009999123100000010000000000000BRBEEFACNOR6104
012013080202BEES3       010BANESTES    ON  EJ       R$  000000000004700000000000470000000000046000000000004600000000000460000000000046000000000004700014000000000000076900000000000003564300000000000000009999123100000010000000000000BRBEESACNOR9243
012013080202BEES4       010BANESTES    PN  EJ       R$  000000000004400000000000440000000000044000000000004400000000000440000000000043000000000004400001000000000000006000000000000000264000000000000000009999123100000010000000000000BRBEESACNPR6168
012013080202BEMA3       010BEMATECH    ON      NM   R$  000000000074900000000007510000000000737000000000074300000000007370000000000737000000000075000072000000000000029900000000000022225300000000000000009999123100000010000000000000BRBEMAACNOR0113
012013080296BEMA3F      020BEMATECH    ON      NM   R$  000000000075000000000008000000000000750000000000075200000000008000000000000745000000000080000003000000000000000065000000000000048900000000000000009999123100000010000000000000BRBEMAACNOR0113
012013080202BGIP4       010BANESE      PN           R$  000000000470100000000047010000000004700000000000470000000000047000000000004700000000000489900008000000000000000900000000000004230200000000000000009999123100000010000000000000BRBGIPACNPR8178
012013080202BHGR3       010BHG         ON      NM   R$  000000000165400000000016540000000001559000000000159200000000015900000000001575000000000159000338000000000000073700000000000117340300000000000000009999123100000010000000000000BRBHGRACNOR9101
012013080202BICB4       010BICBANCO    PN      N1   R$  000000000035100000000003620000000000351000000000035800000000003530000000000353000000000035500227000000000000089300000000000032008900000000000000009999123100000010000000000000BRBICBACNPR7131
012013080296BICB4F      020BICBANCO    PN      N1   R$  000000000035100000000003550000000000351000000000035100000000003550000000000355000000000038800002000000000000000031000000000000010889000000000000009999123100000010000000000000BRBICBACNPR7131
012013080202BIOM4       010BIOMM       PN           R$  000000000089000000000009050000000000890000000000089700000000009050000000000895000000000091000003000000000000004000000000000003589000000000000000009999123100000010000000000000BRBIOMACNPR9101
012013080296BIOM4F      020BIOMM       PN           R$  000000000087500000000008750000000000875000000000087500000000008750000000000790000000000090000001000000000000000058000000000000050750000000000000009999123100000010000000000000BRBIOMACNPR9101
012013080202BISA3       010BROOKFIELD  ON      NM   R$  000000000016400000000001760000000000163000000000016900000000001670000000000167000000000016804068000000000011982700000000002029581400000000000000009999123100000010000000000000BRBISAACNOR8109
012013080296BISA3F      020BROOKFIELD  ON      NM   R$  000000000016500000000001720000000000165000000000016800000000001650000000000167000000000017500024000000000000000643000000000000108429000000000000009999123100000010000000000000BRBISAACNOR8109
012013080262BISA3T      030BROOKFIELD  ON      NM031R$  000000000017100000000001720000000000171000000000017100000000001720000000000000000000000000000002000000000000005000000000000000855780000000000000009999123100000010000000000000BRBISAACNOR8109
012013080262BISA3T      030BROOKFIELD  ON      NM090R$  000000000016900000000001700000000000169000000000016900000000001700000000000000000000000000000002000000000000000500000000000000084743000000000000009999123100000010000000000000BRBISAACNOR8109
012013080212BJRC11      010FII JS RECIMCI  ER       R$  000000009000000000000900000000000090000000000009000000000000900000000000087200000000009000000001000000000000000024000000000002160000000000000000009999123100000010000000000000BRBJRCCTF007109
012013080202BMEB4       010MERC BRASIL PN           R$  000000000114300000000011430000000001139000000000114000000000011390000000001119000000000113900002000000000000000400000000000000456000000000000000009999123100000010000000000000BRBMEBACNPR5190
012013080202BMIN4       010MERC INVEST PN           R$  000000000002400000000000240000000000024000000000002400000000000240000000000023000000000002500003000000000000003000000000000000072000000000000000009999123100000010000000000000BRBMINACNPR1159
012013080202BMKS3       010BIC MONARK  ON           R$  000000003275600000000327560000000032756000000003275600000000327560000000032801000000003500000002000000000000000007000000000000229292000000000000009999123100000010000000000000BRBMKSACNOR9155
012013080212BMLC11B     010FII BMBRC LCCI      MB   R$  000000001180000000000118000000000011735000000001178600000000118000000000011750000000001180000013000000000000000679000000000008003065000000000000009999123100000010000000000000BRBMLCCTF004117
012013080202BMTO4       010BRASMOTOR   PN           R$  000000000008500000000000870000000000085000000000008600000000000870000000000086000000000008700005000000000000008000000000000000689000000000000000009999123100000010000000000000BRBMTOACNPR6065
012013080296BMTO4F      020BRASMOTOR   PN           R$  000000000008600000000000860000000000086000000000008600000000000860000000000086000000000008700002000000000000000272000000000000023392000000000000009999123100000010000000000000BRBMTOACNPR6065
012013080202BOBR4       010BOMBRIL     PN           R$  000000000066000000000007050000000000660000000000068500000000007050000000000661000000000070500003000000000000000700000000000000479900000000000000009999123100000010000000000000BRBOBRACNPR3127
012013080214BOVA11      010ISHARES BOVACI           R$  000000000480100000000048590000000004747000000000479600000000047470000000004747000000000475503599000000000001678020000000008049073690000000000000009999123100000010000000000000BRBOVACTF003101
012013080296BOVA11F     020ISHARES BOVACI           R$  000000000482300000000048720000000004758000000000480200000000047960000000004758000000000481600015000000000000000051000000000000244907000000000000009999123100000010000000000000BRBOVACTF003101
012013080212BPFF11      010FII ABSOLUTOCI  ER       R$  000000000900000000000091480000000008900000000000897600000000090000000000009000000000000913000019000000000000002293000000000020583583000000000000009999123100000010000000000000BRBPFFCTF002104
012013080202BPHA3       010BR PHARMA   ON      NM   R$  000000000100900000000010200000000000997000000000100200000000010000000000001000000000000101000979000000000000516700000000000517892200000000000000009999123100000010000000000000BRBPHAACNOR6102
012013080296BPHA3F      020BR PHARMA   ON      NM   R$  000000000100400000000010040000000001004000000000100400000000010040000000000996000000000101900002000000000000000075000000000000075300000000000000009999123100000010000000000000BRBPHAACNOR6102
012013080278BPHAH10     070BPHA        ON      NM000R$  000000000002100000000000220000000000021000000000002100000000000220000000000000000000000000000002000000000000064000000000000001367000000000000100002013081900000010000000000000BRBPHAACNOR6102
012013080202BPNM4       010PANAMERICANOPN      N1   R$  000000000060200000000006020000000000593000000000059900000000006000000000000596000000000060000110000000000000122500000000000073421500000000000000009999123100000010000000000000BRBPNMACNPR6111
012013080296BPNM4F      020PANAMERICANOPN      N1   R$  000000000059500000000005950000000000594000000000059400000000005940000000000595000000000060600005000000000000000216000000000000128482000000000000009999123100000010000000000000BRBPNMACNPR6111
012013080202BRAP3       010BRADESPAR   ON      N1   R$  000000000190000000000019140000000001852000000000187900000000019140000000001865000000000191400095000000000000025200000000000047364800000000000000009999123100000010000000000000BRBRAPACNOR5124
012013080296BRAP3F      020BRADESPAR   ON      N1   R$  000000000192400000000019240000000001850000000000186200000000018500000000001850000000000192400009000000000000000103000000000000191877000000000000009999123100000010000000000000BRBRAPACNOR5124
012013080202BRAP4       010BRADESPAR   PN      N1   R$  000000000226000000000022760000000002242000000000225900000000022550000000002251000000000225503610000000000001513600000000003419319800000000000000009999123100000010000000000000BRBRAPACNPR2124
012013080296BRAP4F      020BRADESPAR   PN      N1   R$  000000000226100000000022890000000002242000000000225900000000022430000000002243000000000225900037000000000000001084000000000002447854000000000000009999123100000010000000000000BRBRAPACNPR2124
012013080214BRAX11      010ISHARES BRAXCI           R$  000000000399900000000039990000000003999000000000399900000000039990000000000000000000000000000002000000000000000040000000000000159960000000000000009999123100000010000000000000BRBRAXCTF002100
012013080212BRCR11      010FII BC FUND CI           R$  000000001343900000000134900000000013401000000001344700000000134350000000013435000000001344000637000000000000020042000000000269519475000000000000009999123100000010000000000000BRBRCRCTF000131
012013080202BRFS3       010BRF SA      ON      NM   R$  000000000495500000000050830000000004932000000000504600000000050200000000005020000000000502507535000000000003569400000000018012786100000000000000009999123100000010000000000000BRBRFSACNOR8110
012013080296BRFS3F      020BRF SA      ON      NM   R$  000000000492300000000050900000000004923000000000504200000000050200000000005019000000000502000203000000000000006240000000000031465057000000000000009999123100000010000000000000BRBRFSACNOR8110
012013080262BRFS3T      030BRF SA      ON      NM031R$  000000000507000000000050710000000005070000000000507000000000050710000000000000000000000000000002000000000000001500000000000007606121000000000000009999123100000010000000000000BRBRFSACNOR8110
012013080262BRFS3T      030BRF SA      ON      NM060R$  000000000511300000000051140000000005113000000000511300000000051140000000000000000000000000000002000000000000000500000000000002556806000000000000009999123100000010000000000000BRBRFSACNOR8110
012013080262BRFS3T      030BRF SA      ON      NM090R$  000000000518400000000051870000000005156000000000517400000000051570000000000000000000000000000024000000000001200000000000006209067063000000000000009999123100000010000000000000BRBRFSACNOR8110
012013080278BRFSI54     070BRFS        ON      NM000R$  000000000003400000000000410000000000032000000000003600000000000350000000000000000000000000000017000000000000036500000000000001320700000000000540002013091600000010000000000000BRBRFSACNOR8110
012013080278BRFSJ2      070BRFSE       ON      NM000R$  000000000008100000000000810000000000081000000000008100000000000810000000000000000000000000000002000000000000500000000000000040500000000000000545002013102100000010000000000000BRBRFSACNOR8110
012013080282BRFSU46     080BRFSE       ON      NM000R$  000000000003000000000000300000000000030000000000003000000000000300000000000000000000000000000001000000000000017000000000000000510000000000000460002013091600000010000000000000BRBRFSACNOR8110
012013080282BRFSU51     080BRFSE       ON      NM000R$  000000000014300000000001430000000000143000000000014300000000001430000000000000000000000000000001000000000000017000000000000002431000000000000510002013091600000010000000000000BRBRFSACNOR8110
012013080282BRFSV45     080BRFSE       ON      NM000R$  000000000003800000000000390000000000038000000000003800000000000390000000000000000000000000000003000000000000500000000000000019250000000000000450002013102100000010000000000000BRBRFSACNOR8110
012013080282BRFSV49     080BRFSE       ON      NM000R$  000000000011500000000001150000000000115000000000011500000000001150000000000000000000000000000002000000000000500000000000000057500000000000000490002013102100000010000000000000BRBRFSACNOR8110
012013080202BRGE3       010ALFA CONSORCON           R$  000000000035600000000003560000000000356000000000035600000000003560000000000355000000000045000001000000000000000800000000000000284800000000000000009999123100000010000000000000BRBRGEACNOR6196
012013080296BRGE8F      020ALFA CONSORCPND          R$  000000000030000000000003000000000000300000000000030000000000003000000000000300000000000000000001000000000000000001000000000000000300000000000000009999123100000010000000000000BRBRGEACNPD3199
012013080202BRIN3       010BR INSURANCEON      NM   R$  000000000222800000000022620000000002205000000000222300000000022150000000002215000000000222000779000000000000224100000000000498386900000000000000009999123100000010000000000000BRBRINACNOR3105
012013080296BRIN3F      020BR INSURANCEON      NM   R$  000000000225000000000022640000000002212000000000222700000000022120000000002212000000000222500014000000000000000182000000000000405322000000000000009999123100000010000000000000BRBRINACNOR3105
012013080202BRIV3       010ALFA INVEST ON           R$  000000000063900000000006390000000000639000000000063900000000006390000000000000000000000065000001000000000000003600000000000002300400000000000000009999123100000010000000000000BRBRIVACNOR6196
012013080296BRIV3F      020ALFA INVEST ON           R$  000000000060000000000006000000000000600000000000060000000000006000000000000570000000000070000002000000000000000024000000000000014400000000000000009999123100000010000000000000BRBRIVACNOR6196
012013080202BRIV4       010ALFA INVEST PN           R$  000000000058100000000005990000000000570000000000057900000000005820000000000562000000000058200022000000000000011800000000000006835100000000000000009999123100000010000000000000BRBRIVACNPR3196
012013080296BRIV4F      020ALFA INVEST PN           R$  000000000052000000000005200000000000520000000000052000000000005200000000000525000000000060400001000000000000000054000000000000028080000000000000009999123100000010000000000000BRBRIVACNPR3196
012013080202BRKM3       010BRASKEM     ON      N1   R$  000000000111500000000011370000000001083000000000110000000000010870000000001087000000000109900078000000000000035100000000000038625900000000000000009999123100000010000000000000BRBRKMACNOR1110
012013080296BRKM3F      020BRASKEM     ON      N1   R$  000000000112500000000011250000000001054000000000110100000000010540000000001053000000000118000003000000000000000026000000000000028633000000000000009999123100000010000000000000BRBRKMACNOR1110
012013080202BRKM5       010BRASKEM     PNA     N1   R$  000000000172200000000017250000000001692000000000170500000000016970000000001697000000000170607006000000000001393100000000002376263600000000000000009999123100000010000000000000BRBRKMACNPA4110
012013080296BRKM5F      020BRASKEM     PNA     N1   R$  000000000172200000000017400000000001680000000000170600000000016830000000001685000000000170000049000000000000001403000000000002394425000000000000009999123100000010000000000000BRBRKMACNPA4110
012013080262BRKM5T      030BRASKEM     PNA     N1031R$  000000000170200000000017090000000001702000000000170400000000017090000000000000000000000000000006000000000000005800000000000009886045000000000000009999123100000010000000000000BRBRKMACNPA4110
012013080262BRKM5T      030BRASKEM     PNA     N1090R$  000000000175000000000017510000000001750000000000175000000000017510000000000000000000000000000002000000000000010000000000000017508573000000000000009999123100000010000000000000BRBRKMACNPA4110
012013080202BRML3       010BR MALLS PARON      NM   R$  000000000205000000000020700000000002013000000000205300000000020420000000002026000000000204209814000000000002889300000000005933658600000000000000009999123100000010000000000000BRBRMLACNOR9105
012013080296BRML3F      020BR MALLS PARON      NM   R$  000000000206300000000020680000000002012000000000205100000000020200000000002010000000000203000163000000000000004233000000000008683433000000000000009999123100000010000000000000BRBRMLACNOR9105
012013080262BRML3T      030BR MALLS PARON      NM031R$  000000000206700000000020680000000002067000000000206700000000020680000000000000000000000000000002000000000000005000000000000010336755000000000000009999123100000010000000000000BRBRMLACNOR9105
012013080202BRPR3       010BR PROPERT  ON      NM   R$  000000000191500000000019220000000001894000000000190700000000019000000000001900000000000190204635000000000000933600000000001780556100000000000000009999123100000010000000000000BRBRPRACNOR9112
012013080296BRPR3F      020BR PROPERT  ON      NM   R$  000000000189900000000019420000000001877000000000190700000000019120000000001877000000000191200034000000000000000746000000000001422697000000000000009999123100000010000000000000BRBRPRACNOR9112
012013080202BRSR3       010BANRISUL    ON      N1   R$  000000000134800000000013480000000001348000000000134800000000013480000000001220000000000134800001000000000000000500000000000000674000000000000000009999123100000010000000000000BRBRSRACNOR3130
012013080202BRSR6       010BANRISUL    PNB     N1   R$  000000000148200000000015030000000001458000000000148000000000014740000000001474000000000147701919000000000000399900000000000592163100000000000000009999123100000010000000000000BRBRSRACNPB4133
012013080296BRSR6F      020BANRISUL    PNB     N1   R$  000000000148000000000015440000000001452000000000148600000000014700000000001460000000000147000161000000000000004673000000000006948333000000000000009999123100000010000000000000BRBRSRACNPB4133
012013080202BSEV3       010BIOSEV      ON      NM   R$  000000000121400000000012140000000001180000000000119800000000011800000000000000000000000120300010000000000000005600000000000006710500000000000000009999123100000010000000000000BRBSEVACNOR3100
012013080282BSEVS99     080BSEVE       ON      NM000R$  000000000031500000000003150000000000315000000000031500000000003150000000000300000000000035000001000000000000000327000000000000103005000000000165702014072100000010000000000000BRBSEVACNOR3100
012013080202BTOW3       010B2W DIGITAL ON      NM   R$  000000000113000000000011890000000001118000000000116500000000011580000000001158000000000116401944000000000000668600000000000779231400000000000000009999123100000010000000000000BRBTOWACNOR8105
012013080296BTOW3F      020B2W DIGITAL ON      NM   R$  000000000115600000000011890000000001122000000000116500000000011620000000001155000000000119000039000000000000001047000000000001220513000000000000009999123100000010000000000000BRBTOWACNOR8105
012013080202BTTL3       010BATTISTELLA ON           R$  000000000008500000000000850000000000085000000000008500000000000850000000000079000000000008600001000000000000000500000000000000042500000000000000009999123100000010000000000000BRBTTLACNOR0105
012013080202BTTL4       010BATTISTELLA PN           R$  000000000010000000000001000000000000100000000000010000000000001000000000000098000000000010000002000000000000009100000000000000910000000000000000009999123100000010000000000000BRBTTLACNPR7105
012013080202BVMF3       010BMFBOVESPA  ON      NM   R$  000000000125400000000012540000000001213000000000123200000000012150000000001215000000000121814077000000000009975600000000012288471400000000000000009999123100000010000000000000BRBVMFACNOR3125
012013080296BVMF3F      020BMFBOVESPA  ON      NM   R$  000000000123500000000012540000000001214000000000123400000000012200000000001212000000000122600160000000000000004530000000000005593291000000000000009999123100000010000000000000BRBVMFACNOR3125
012013080262BVMF3T      030BMFBOVESPA  ON      NM017R$  000000000122700000000012290000000001227000000000122800000000012290000000000000000000000000000004000000000000080000000000000098251440000000000000009999123100000010000000000000BRBVMFACNOR3125
012013080262BVMF3T      030BMFBOVESPA  ON      NM030R$  000000000124000000000012410000000001240000000000124000000000012410000000000000000000000000000002000000000000010000000000000012400860000000000000009999123100000010000000000000BRBVMFACNOR3125
012013080262BVMF3T      030BMFBOVESPA  ON      NM031R$  000000000123000000000012310000000001230000000000123000000000012310000000000000000000000000000002000000000000010000000000000012300652000000000000009999123100000010000000000000BRBVMFACNOR3125
012013080278BVMFH11     070BVMF        ON      NM000R$  000000000015800000000001580000000000126000000000014100000000001260000000000127000000000013200009000000000000013700000000000001943600000000000110002013081900000010000000000000BRBVMFACNOR3125
012013080278BVMFH12     070BVMF  FM    ON      NM000R$  000000000006900000000000730000000000048000000000005500000000000500000000000048000000000005400126000000000000182000000000000010084000000000000120002013081900000010000000000000BRBVMFACNOR3125
012013080278BVMFH13     070BVMF  FM    ON      NM000R$  000000000001700000000000190000000000011000000000001200000000000110000000000010000000000001100163000000000000491200000000000006316400000000000128902013081900000010000000000000BRBVMFACNOR3124
012013080278BVMFH14     070BVMF  FM    ON      NM000R$  000000000000200000000000020000000000001000000000000100000000000020000000000001000000000000200011000000000000074800000000000000092800000000000138902013081900000010000000000000BRBVMFACNOR3124
012013080278BVMFH41     070BVMF        ON      NM000R$  000000000011100000000001110000000000085000000000009400000000000850000000000000000000000010100007000000000000015800000000000001493500000000000115002013081900000010000000000000BRBVMFACNOR3125
012013080278BVMFH42     070BVMF  FM    ON      NM000R$  000000000003800000000000380000000000022000000000002600000000000220000000000000000000000004800027000000000000073500000000000001969800000000000125002013081900000010000000000000BRBVMFACNOR3125
012013080278BVMFH43     070BVMF  FM    ON      NM000R$  000000000000400000000000040000000000004000000000000400000000000040000000000003000000000003000003000000000000004500000000000000018000000000000135002013081900000010000000000000BRBVMFACNOR3125
012013080278BVMFI11     070BVMF        ON      NM000R$  000000000014800000000001480000000000148000000000014800000000001480000000000000000000000014700002000000000000000500000000000000074000000000000110002013091600000010000000000000BRBVMFACNOR3125
012013080278BVMFI12     070BVMF  FM    ON      NM000R$  000000000008900000000000890000000000067000000000007600000000000690000000000065000000000007900028000000000000064000000000000004872000000000000120002013091600000010000000000000BRBVMFACNOR3125
012013080278BVMFI13     070BVMF  FM    ON      NM000R$  000000000003100000000000330000000000022000000000002500000000000240000000000022000000000002500059000000000000148200000000000003832600000000000130002013091600000010000000000000BRBVMFACNOR3125
012013080278BVMFI14     070BVMF  FM    ON      NM000R$  000000000000700000000000090000000000006000000000000800000000000060000000000005000000000000700017000000000000044400000000000000359100000000000140002013091600000010000000000000BRBVMFACNOR3125
012013080278BVMFI42     070BVMF  FM    ON      NM000R$  000000000006000000000000600000000000041000000000004800000000000430000000000000000000000000000016000000000000057500000000000002781200000000000125002013091600000010000000000000BRBVMFACNOR3125
012013080278BVMFI43     070BVMF  FM    ON      NM000R$  000000000001700000000000170000000000011000000000001400000000000110000000000006000000000002700034000000000000079100000000000001112100000000000135002013091600000010000000000000BRBVMFACNOR3125
012013080278BVMFJ11     070BVMF        ON      NM000R$  000000000016300000000001630000000000163000000000016300000000001630000000000000000000000000000001000000000000005000000000000000815000000000000110002013102100000010000000000000BRBVMFACNOR3125
012013080278BVMFJ12     070BVMF        ON      NM000R$  000000000010700000000001070000000000095000000000009900000000000950000000000000000000000000000004000000000000020000000000000001980000000000000120002013102100000010000000000000BRBVMFACNOR3125
012013080278BVMFJ13     070BVMF        ON      NM000R$  000000000004500000000000460000000000045000000000004500000000000460000000000000000000000000000003000000000000013000000000000000593000000000000130002013102100000010000000000000BRBVMFACNOR3125
012013080278BVMFJ15     070BVMF        ON      NM000R$  000000000000900000000000090000000000009000000000000900000000000090000000000000000000000001000001000000000000002000000000000000018000000000000150002013102100000010000000000000BRBVMFACNOR3125
012013080278BVMFJ41     070BVMF        ON      NM000R$  000000000012800000000001280000000000128000000000012800000000001280000000000000000000000000000001000000000000005000000000000000640000000000000115002013102100000010000000000000BRBVMFACNOR3125
012013080278BVMFJ42     070BVMF        ON      NM000R$  000000000007600000000000760000000000067000000000007100000000000670000000000000000000000000000003000000000000015000000000000001075000000000000125002013102100000010000000000000BRBVMFACNOR3125
012013080278BVMFK13     070BVMF        ON      NM000R$  000000000007900000000000790000000000079000000000007900000000000790000000000000000000000000000001000000000000000500000000000000039500000000000130002013111800000010000000000000BRBVMFACNOR3125
012013080278BVMFL13     070BVMF        ON      NM000R$  000000000008300000000000830000000000083000000000008300000000000830000000000000000000000011000001000000000000000500000000000000041500000000000130002013121600000010000000000000BRBVMFACNOR3125
012013080282BVMFQ73     080BVMFE       ON      NM000R$  000000000012400000000001240000000000124000000000012400000000001240000000000000000000000000000001000000000000018500000000000002294000000000000128902014051900000010000000000000BRBVMFACNOR3124
012013080282BVMFR63     080BVMFE       ON      NM000R$  000000000013000000000001300000000000130000000000013000000000001300000000000000000000000000000001000000000000028800000000000003744000000000000130002014061600000010000000000000BRBVMFACNOR3125
012013080282BVMFT11     080BVMFE       ON      NM000R$  000000000000600000000000080000000000006000000000000600000000000080000000000003000000000001400003000000000000020100000000000000120800000000000110002013081900000010000000000000BRBVMFACNOR3125
012013080282BVMFT12     080BVMFE FM    ON      NM000R$  000000000001800000000000290000000000018000000000002300000000000290000000000025000000000002900054000000000000114300000000000002676600000000000120002013081900000010000000000000BRBVMFACNOR3125
012013080282BVMFT13     080BVMFE FM    ON      NM000R$  000000000005500000000000810000000000055000000000007400000000000800000000000040000000000008500048000000000000097600000000000007258000000000000128902013081900000010000000000000BRBVMFACNOR3124
012013080282BVMFT41     080BVMFE FM    ON      NM000R$  000000000001300000000000140000000000013000000000001300000000000140000000000001000000000000000006000000000000020000000000000000260100000000000115002013081900000010000000000000BRBVMFACNOR3125
012013080282BVMFT42     080BVMFE FM    ON      NM000R$  000000000003400000000000540000000000034000000000004900000000000520000000000000000000000000000032000000000000082100000000000004039700000000000125002013081900000010000000000000BRBVMFACNOR3125
012013080282BVMFT43     080BVMFE       ON      NM000R$  000000000009900000000000990000000000099000000000009900000000000990000000000000000000000019100001000000000000001800000000000000178200000000000135002013081900000010000000000000BRBVMFACNOR3125
012013080282BVMFU12     080BVMFE FM    ON      NM000R$  000000000003300000000000390000000000030000000000003600000000000390000000000032000000000004600022000000000000012900000000000000467300000000000120002013091600000010000000000000BRBVMFACNOR3125
012013080282BVMFU13     080BVMFE FM    ON      NM000R$  000000000007200000000000920000000000072000000000007700000000000920000000000049000000000000000015000000000000033400000000000002577700000000000130002013091600000010000000000000BRBVMFACNOR3125
012013080282BVMFU41     080BVMFE FM    ON      NM000R$  000000000002000000000000250000000000020000000000002300000000000250000000000000000000000000000006000000000000006500000000000000155600000000000115002013091600000010000000000000BRBVMFACNOR3125
012013080282BVMFU42     080BVMFE FM    ON      NM000R$  000000000004900000000000650000000000049000000000005600000000000620000000000000000000000000000013000000000000040300000000000002265900000000000125002013091600000010000000000000BRBVMFACNOR3125
012013080282BVMFV13     080BVMFE       ON      NM000R$  000000000010300000000001050000000000103000000000010300000000001050000000000000000000000000000006000000000000024500000000000002547500000000000130002013102100000010000000000000BRBVMFACNOR3125
012013080282BVMFV42     080BVMFE       ON      NM000R$  000000000007600000000000800000000000076000000000007700000000000800000000000000000000000000000006000000000000025000000000000001935000000000000125002013102100000010000000000000BRBVMFACNOR3125
012013080282BVMFV43     080BVMFE       ON      NM000R$  000000000013500000000001410000000000134000000000013600000000001410000000000000000000000000000003000000000000015000000000000002050000000000000135002013102100000010000000000000BRBVMFACNOR3125
012013080282BVMFW11     080BVMFE       ON      NM000R$  000000000003200000000000320000000000032000000000003200000000000320000000000000000000000003500001000000000000000200000000000000006400000000000110002013111800000010000000000000BRBVMFACNOR3125
012013080282BVMFX11     080BVMFE       ON      NM000R$  000000000003700000000000370000000000037000000000003700000000000370000000000000000000000004000001000000000000000200000000000000007400000000000110002013121600000010000000000000BRBVMFACNOR3125
012013080202CAMB4       010CAMBUCI     PN           R$  000000000019500000000001950000000000181000000000018800000000001810000000000186000000000019400004000000000000000400000000000000075200000000000000009999123100000010000000000000BRCAMBACNPR1117
012013080296CAMB4F      020CAMBUCI     PN           R$  000000000019300000000001930000000000178000000000019100000000001780000000000110000000000025000003000000000000000026000000000000004990000000000000009999123100000010000000000000BRCAMBACNPR1117
012013080202CARD3       010CSU CARDSYSTON      NM   R$  000000000033400000000003400000000000326000000000033400000000003400000000000326000000000034000024000000000000014100000000000004711800000000000000009999123100000010000000000000BRCARDACNOR9105
012013080296CARD3F      020CSU CARDSYSTON      NM   R$  000000000030300000000003030000000000303000000000030300000000003030000000000304000000000033000001000000000000000024000000000000007272000000000000009999123100000010000000000000BRCARDACNOR9105
012013080296CBMA4F      020COBRASMA    PN           R$  000000000000400000000000040000000000004000000000000400000000000040000000000004000000000000500002000000000000005000000000000000020000000000000000009999123100000010000000000000BRCBMAACNPR1124
012013080208CCHI3       010CHIARELLI   ON           R$  000000000002900000000000330000000000029000000000003100000000000320000000000032000000000003300076000000000001380000000000000043060000000000000000009999123100000010000000000000BRCCHIACNOR5123
012013080296CCHI3F      020CHIARELLI   ON           R$  000000000003100000000000330000000000031000000000003100000000000320000000000032000000000003400017000000000000036300000000000001153200000000000000009999123100000010000000000000BRCCHIACNOR5123
012013080208CCHI4       010CHIARELLI   PN           R$  000000000002300000000000250000000000023000000000002400000000000240000000000022000000000002600012000000000000160000000000000003870000000000000000009999123100000010000000000000BRCCHIACNPR2122
012013080296CCHI4F      020CHIARELLI   PN           R$  000000000002400000000000240000000000023000000000002300000000000230000000000023000000000002500005000000000000011427000000000000269248000000000000009999123100000010000000000000BRCCHIACNPR2122
012013080202CCPR3       010CYRE COM-CCPON      NM   R$  000000000211200000000021890000000002102000000000216500000000021890000000002102000000000218900005000000000000000700000000000001515900000000000000009999123100000010000000000000BRCCPRACNOR9107
012013080202CCRO3       010CCR SA      ON      NM   R$  000000000179500000000018060000000001774000000000178700000000017840000000001784000000000178509181000000000003060300000000005470633900000000000000009999123100000010000000000000BRCCROACNOR2122
012013080296CCRO3F      020CCR SA      ON      NM   R$  000000000180000000000018090000000001771000000000178800000000018090000000001771000000000180900031000000000000000852000000000001523692000000000000009999123100000010000000000000BRCCROACNOR2122
012013080278CCROI48     070CCRO        ON      NM000R$  000000000003900000000000390000000000039000000000003900000000000390000000000000000000000000000001000000000000002500000000000000097500000000000185002013091600000010000000000000BRCCROACNOR2122
012013080202CCXC3       010CCX CARVAO  ON      NM   R$  000000000009600000000000960000000000085000000000009000000000000850000000000084000000000008500303000000000002379300000000000215721900000000000000009999123100000010000000000000BRCCXCACNOR5100
012013080296CCXC3F      020CCX CARVAO  ON      NM   R$  000000000009300000000000930000000000086000000000009000000000000860000000000086000000000009400018000000000000000719000000000000064545000000000000009999123100000010000000000000BRCCXCACNOR5100
012013080262CCXC3T      030CCX CARVAO  ON      NM045R$  000000000009300000000000940000000000092000000000009300000000000930000000000000000000000000000004000000000001000000000000000093480500000000000000009999123100000010000000000000BRCCXCACNOR5100
012013080296CEDO3F      020CEDRO       ON      N1   R$  000000000100100000000010010000000001001000000000100100000000010010000000000850000000000120000001000000000000000041000000000000041041000000000000009999123100000010000000000000BRCEDOACNOR8094
012013080208CELP3       010CELPA       ON           R$  000000000006800000000000680000000000068000000000006800000000000680000000000060000000000006900003000000000000001800000000000000122400000000000000009999123100000010000000000000BRCELPACNOR8112
012013080208CELP5       010CELPA       PNA          R$  000000000007000000000000700000000000070000000000007000000000000700000000000060000000000007000003000000000000003000000000000000210000000000000000009999123100000010000000000000BRCELPACNPA1114
012013080212CEOC11B     010FII CEO CCP CI      MB   R$  000000000910000000000091970000000009071000000000911000000000091970000000009150000000000919600012000000000000000593000000000005402481000000000000009999123100000010000000000000BRCEOCCTF003108
012013080202CESP3       010CESP        ON      N1   R$  000000000165000000000016500000000001650000000000165000000000016500000000001630000000000165000002000000000000000300000000000000495000000000000000009999123100000010000000000000BRCESPACNOR3159
012013080296CESP3F      020CESP        ON      N1   R$  000000000152800000000015280000000001528000000000152800000000015280000000001528000000000165000001000000000000000001000000000000001528000000000000009999123100000010000000000000BRCESPACNOR3159
012013080296CESP5F      020CESP        PNA     N1   R$  000000000207000000000020700000000002070000000000207000000000020700000000002070000000000220000001000000000000000014000000000000028980000000000000009999123100000010000000000000BRCESPACNPA6108
012013080202CESP6       010CESP        PNB     N1   R$  000000000199600000000020300000000001955000000000199600000000019650000000001964000000000196503696000000000000889900000000001776622100000000000000009999123100000010000000000000BRCESPACNPB4118
012013080296CESP6F      020CESP        PNB     N1   R$  000000000200900000000020860000000001960000000000199300000000019600000000001950000000000200000037000000000000001045000000000002082810000000000000009999123100000010000000000000BRCESPACNPB4118
012013080202CGAS3       010COMGAS      ON           R$  000000000514300000000051430000000005038000000000505400000000050510000000005050000000000513000003000000000000002400000000000012130300000000000000009999123100000010000000000000BRCGASACNOR0132
012013080202CGAS5       010COMGAS      PNA          R$  000000000549500000000055400000000005475000000000552600000000055300000000005486000000000554600093000000000000092800000000000512855500000000000000009999123100000010000000000000BRCGASACNPA3129
012013080296CGAS5F      020COMGAS      PNA          R$  000000000550000000000055000000000005500000000000550000000000055000000000005475000000000553400001000000000000000062000000000000341000000000000000009999123100000010000000000000BRCGASACNPA3129
012013080202CGRA3       010GRAZZIOTIN  ON           R$  000000000155000000000015910000000001507000000000153000000000015100000000001510000000000170000024000000000000004600000000000007040200000000000000009999123100000010000000000000BRCGRAACNOR2061
012013080262CGRA3T      030GRAZZIOTIN  ON        090R$  000000000154000000000015410000000001540000000000154000000000015410000000000000000000000000000002000000000000000700000000000001078140000000000000009999123100000010000000000000BRCGRAACNOR2061
012013080202CGRA4       010GRAZZIOTIN  PN           R$  000000000164000000000016510000000001600000000000162100000000016000000000001600000000000161900075000000000000017000000000000027569600000000000000009999123100000010000000000000BRCGRAACNPR9061
012013080296CGRA4F      020GRAZZIOTIN  PN           R$  000000000159000000000015900000000001590000000000159000000000015900000000001590000000000190000001000000000000000002000000000000003180000000000000009999123100000010000000000000BRCGRAACNPR9061
012013080202CIEL3       010CIELO       ON      NM   R$  000000000565000000000056750000000005586000000000563900000000056300000000005630000000000564504597000000000000762200000000004298665900000000000000009999123100000010000000000000BRCIELACNOR3111
012013080296CIEL3F      020CIELO       ON      NM   R$  000000000565400000000056690000000005600000000000563000000000056500000000005638000000000568000096000000000000002045000000000011515117000000000000009999123100000010000000000000BRCIELACNOR3111
012013080202CLSC4       010CELESC      PN      N2   R$  000000000192300000000019230000000001906000000000191600000000019200000000001915000000000192000017000000000000001700000000000003257200000000000000009999123100000010000000000000BRCLSCACNPR3107
012013080202CMIG3       010CEMIG       ON      N1   R$  000000000207000000000021100000000002063000000000209000000000020630000000002063000000000208000513000000000000206900000000000432570300000000000000009999123100000010000000000000BRCMIGACNOR6208
012013080296CMIG3F      020CEMIG       ON      N1   R$  000000000208500000000021100000000002065000000000208300000000020650000000002065000000000207700020000000000000000547000000000001139824000000000000009999123100000010000000000000BRCMIGACNOR6208
012013080202CMIG4       010CEMIG       PN      N1   R$  000000000207500000000021140000000002061000000000208800000000020610000000002061000000000207007602000000000002234600000000004666145700000000000000009999123100000010000000000000BRCMIGACNPR3208
012013080296CMIG4F      020CEMIG       PN      N1   R$  000000000207500000000021120000000002069000000000208900000000020700000000002070000000000209500257000000000000006214000000000012980014000000000000009999123100000010000000000000BRCMIGACNPR3208
012013080262CMIG4S      030CEMIG       PN      N1090R$  000000000213700000000021380000000002137000000000213700000000021380000000000000000000000000000002000000000000001500000000000003205537000000000000009999123100000010000000000000BRCMIGACNPR3208
012013080262CMIG4T      030CEMIG       PN      N1090R$  000000000213000000000021310000000002130000000000213000000000021310000000000000000000000000000002000000000000002500000000000005326654000000000000009999123100000010000000000000BRCMIGACNPR3208
012013080262CMIG4T      030CEMIG       PN      N1031R$  000000000212300000000021240000000002123000000000212300000000021240000000000000000000000000000002000000000000000100000000000000212329000000000000009999123100000010000000000000BRCMIGACNPR3208
012013080278CMIGH21     070CMIG        PN      N1000R$  000000000005000000000000500000000000050000000000005000000000000500000000000035000000000000000001000000000000002000000000000000100000000000000210002013081900000010000000000000BRCMIGACNPR3208
012013080212CNES11B     010FII CENESP  CI      MB   R$  000000001250000000000125700000000012415000000001253600000000125500000000012415000000001256500015000000000000000910000000000011408055000000000000009999123100000010000000000000BRCNESCTF001124
012013080202COCE3       010COELCE      ON           R$  000000000422600000000042980000000004152000000000425800000000042980000000004100000000000429800020000000000000004600000000000019588000000000000000009999123100000010000000000000BRCOCEACNOR0132
012013080202COCE5       010COELCE      PNA          R$  000000000415600000000041940000000004071000000000414800000000041500000000004128000000000415000225000000000000046000000000000190817600000000000000009999123100000010000000000000BRCOCEACNPA3133
012013080296COCE5F      020COELCE      PNA          R$  000000000414900000000042540000000004101000000000415000000000041540000000004100000000000437700016000000000000000494000000000002050166000000000000009999123100000010000000000000BRCOCEACNPA3133
012013080202CPFE3       010CPFL ENERGIAON      NM   R$  000000000216500000000021790000000002110000000000212900000000021100000000002110000000000211802837000000000000538500000000001146465600000000000000009999123100000010000000000000BRCPFEACNOR0121
012013080296CPFE3F      020CPFL ENERGIAON      NM   R$  000000000216000000000021890000000002115000000000212900000000021150000000002115000000000218900025000000000000000609000000000001296623000000000000009999123100000010000000000000BRCPFEACNOR0121
012013080202CPLE3       010COPEL       ON      N1   R$  000000000218200000000021980000000002149000000000217200000000021680000000002168000000000220100064000000000000040900000000000088870600000000000000009999123100000010000000000000BRCPLEACNOR8128
012013080296CPLE3F      020COPEL       ON      N1   R$  000000000218000000000024000000000002180000000000229000000000024000000000002106000000000240000003000000000000000020000000000000045800000000000000009999123100000010000000000000BRCPLEACNOR8128
012013080262CPLE3T      030COPEL       ON      N1031R$  000000000218800000000021890000000002188000000000218800000000021890000000000000000000000000000002000000000000022000000000000048138882000000000000009999123100000010000000000000BRCPLEACNOR8128
012013080202CPLE6       010COPEL       PNB     N1   R$  000000000281800000000028650000000002805000000000283800000000028050000000002805000000000281503161000000000000649600000000001844063000000000000000009999123100000010000000000000BRCPLEACNPB9125
012013080296CPLE6F      020COPEL       PNB     N1   R$  000000000284500000000029140000000002801000000000282700000000029140000000002801000000000291400014000000000000000478000000000001351609000000000000009999123100000010000000000000BRCPLEACNPB9125
012013080202CPRE3       010CPFL RENOVAVON      NM   R$  000000000118000000000011800000000001170000000000117800000000011700000000001170000000000118000034000000000000028400000000000033459300000000000000009999123100000010000000000000BRCPREACNOR5100
012013080296CPRE3F      020CPFL RENOVAVON      NM   R$  000000000118500000000011850000000001180000000000118200000000011800000000001160000000000118400002000000000000000002000000000000002365000000000000009999123100000010000000000000BRCPREACNOR5100
012013080262CPRE3T      030CPFL RENOVAVON      NM017R$  000000000118300000000011840000000001183000000000118300000000011840000000000000000000000000000002000000000000002400000000000002840352000000000000009999123100000010000000000000BRCPREACNOR5100
012013080262CPRE3T      030CPFL RENOVAVON      NM031R$  000000000118600000000011870000000001185000000000118600000000011860000000000000000000000000000050000000000000023100000000000027411525000000000000009999123100000010000000000000BRCPREACNOR5100
012013080202CRDE3       010CR2         ON      NM   R$  000000000041100000000004110000000000410000000000041000000000004100000000000400000000000041000002000000000000000600000000000000246300000000000000009999123100000010000000000000BRCRDEACNOR1108
012013080202CREM3       010CREMER      ON      NM   R$  000000000147000000000014900000000001469000000000147600000000014890000000001436000000000149000008000000000000004200000000000006201500000000000000009999123100000010000000000000BRCREMACNOR2166
012013080202CRIV3       010ALFA FINANC ON           R$  000000000055700000000005570000000000557000000000055700000000005570000000000515000000000056500001000000000000005600000000000003119200000000000000009999123100000010000000000000BRCRIVACNOR4189
012013080202CRIV4       010ALFA FINANC PN           R$  000000000048000000000004800000000000473000000000047900000000004730000000000473000000000048000007000000000000007900000000000003785700000000000000009999123100000010000000000000BRCRIVACNPR1189
012013080202CRUZ3       010SOUZA CRUZ  ON           R$  000000000269200000000026950000000002600000000000262200000000026010000000002601000000000260507671000000000001935900000000005076710200000000000000009999123100000010000000000000BRCRUZACNOR0246
012013080296CRUZ3F      020SOUZA CRUZ  ON           R$  000000000270000000000027000000000002586000000000262900000000026250000000002605000000000269300088000000000000002365000000000006218562000000000000009999123100000010000000000000BRCRUZACNOR0246
012013080262CRUZ3T      030SOUZA CRUZ  ON        030R$  000000000266300000000026640000000002646000000000265300000000026470000000000000000000000000000004000000000000005000000000000013266904000000000000009999123100000010000000000000BRCRUZACNOR0246
012013080262CRUZ3T      030SOUZA CRUZ  ON        031R$  000000000265100000000026530000000002630000000000264700000000026310000000000000000000000000000006000000000000000500000000000001323893000000000000009999123100000010000000000000BRCRUZACNOR0246
012013080262CRUZ3T      030SOUZA CRUZ  ON        045R$  000000000266100000000026620000000002661000000000266100000000026620000000000000000000000000000002000000000000000500000000000001330653000000000000009999123100000010000000000000BRCRUZACNOR0246
012013080278CRUZE82     070CRUZ        ON        000R$  000000000004100000000000410000000000041000000000004100000000000410000000000000000000000000000002000000000000003700000000000000151700000000000319902014051900000010000000000000BRCRUZACNOR0245
012013080278CRUZI24     070CRUZ        ON        000R$  000000000026700000000002670000000000267000000000026700000000002670000000000000000000000000000001000000000000000100000000000000026700000000000240002013091600000010000000000000BRCRUZACNOR0246
012013080278CRUZI28     070CRUZ        ON        000R$  000000000002000000000000200000000000020000000000002000000000000200000000000000000000000000000001000000000000006100000000000000122000000000000280002013091600000010000000000000BRCRUZACNOR0246
012013080202CSAN3       010COSAN       ON  ED  NM   R$  000000000433800000000044270000000004316000000000437500000000043300000000004329000000000433002963000000000001434800000000006278217400000000000000009999123100000010000000000000BRCSANACNOR6108
012013080296CSAN3F      020COSAN       ON  ED  NM   R$  000000000435000000000044180000000004240000000000437500000000042400000000004240000000000436500087000000000000002280000000000009977204000000000000009999123100000010000000000000BRCSANACNOR6108
012013080262CSAN3T      030COSAN       ON  ED  NM017R$  000000000435900000000043600000000004359000000000435900000000043600000000000000000000000000000002000000000000001000000000000004359666000000000000009999123100000010000000000000BRCSANACNOR6108
012013080262CSAN3T      030COSAN       ON  ED  NM031R$  000000000440200000000044030000000004402000000000440200000000044030000000000000000000000000000002000000000000001000000000000004402834000000000000009999123100000010000000000000BRCSANACNOR6108
012013080262CSAN3T      030COSAN       ON  ED  NM090R$  000000000447000000000044860000000004469000000000447300000000044710000000000000000000000000000024000000000000600000000000002684030210000000000000009999123100000010000000000000BRCSANACNOR6108
012013080278CSANH44     070CSAN    /ED ON      NM000R$  000000000007000000000000700000000000070000000000007000000000000700000000000000000000000000000001000000000000002400000000000000168000000000000440002013081900000010000000000000BRCSANACNOR6108
012013080202CSMG3       010COPASA      ON      NM   R$  000000000357000000000035940000000003452000000000349600000000034820000000003462000000000348201788000000000000285500000000000998368800000000000000009999123100000010000000000000BRCSMGACNOR5127
012013080296CSMG3F      020COPASA      ON      NM   R$  000000000352100000000035210000000003480000000000349400000000034880000000003140000000000350000013000000000000000407000000000001422279000000000000009999123100000010000000000000BRCSMGACNOR5127
012013080262CSMG3T      030COPASA      ON      NM017R$  000000000350700000000035080000000003507000000000350700000000035080000000000000000000000000000002000000000000000400000000000001403190000000000000009999123100000010000000000000BRCSMGACNOR5127
012013080214CSMO11      010ISHARES CSMOCI           R$  000000000466300000000046630000000004629000000000464800000000046290000000004600000000000467000005000000000000000310000000000001441030000000000000009999123100000010000000000000BRCSMOCTF002100
012013080296CSMO11F     020ISHARES CSMOCI           R$  000000000460000000000046000000000004600000000000460000000000046000000000004600000000000000000001000000000000000001000000000000004600000000000000009999123100000010000000000000BRCSMOCTF002100
012013080202CSNA3       010SID NACIONALON           R$  000000000066800000000006810000000000645000000000066200000000006450000000000645000000000064608629000000000005766000000000003816729500000000000000009999123100000010000000000000BRCSNAACNOR6242
012013080296CSNA3F      020SID NACIONALON           R$  000000000067000000000006760000000000647000000000065800000000006500000000000650000000000068000072000000000000001719000000000001132261000000000000009999123100000010000000000000BRCSNAACNOR6242
012013080262CSNA3T      030SID NACIONALON        017R$  000000000064700000000006480000000000647000000000064700000000006480000000000000000000000000000002000000000000003000000000000001942933000000000000009999123100000010000000000000BRCSNAACNOR6242
012013080262CSNA3T      030SID NACIONALON        031R$  000000000066300000000006640000000000663000000000066300000000006640000000000000000000000000000002000000000000010000000000000006638766000000000000009999123100000010000000000000BRCSNAACNOR6242
012013080262CSNA3T      030SID NACIONALON        060R$  000000000067700000000006790000000000677000000000067700000000006790000000000000000000000000000006000000000000040200000000000027248657000000000000009999123100000010000000000000BRCSNAACNOR6242
012013080262CSNA3T      030SID NACIONALON        090R$  000000000068800000000006890000000000657000000000067100000000006580000000000000000000000000000006000000000000017900000000000012020860000000000000009999123100000010000000000000BRCSNAACNOR6242
012013080262CSNA3T      030SID NACIONALON        122R$  000000000069600000000006970000000000696000000000069600000000006970000000000000000000000000000002000000000000030000000000000020899350000000000000009999123100000010000000000000BRCSNAACNOR6242
012013080278CSNAH6      070CSNA        ON        000R$  000000000008200000000000820000000000069000000000007700000000000690000000000063000000000008700002000000000000000300000000000000023300000000000060002013081900000010000000000000BRCSNAACNOR6242
012013080278CSNAH62     070CSNA        ON        000R$  000000000007300000000000730000000000073000000000007300000000000730000000000000000000000000000002000000000000005000000000000000365000000000000062002013081900000010000000000000BRCSNAACNOR6242
012013080278CSNAH64     070CSNA  FM    ON        000R$  000000000005200000000000550000000000050000000000005100000000000550000000000000000000000000000007000000000000026300000000000001363800000000000064002013081900000010000000000000BRCSNAACNOR6242
012013080278CSNAH66     070CSNA  FM    ON        000R$  000000000004000000000000440000000000039000000000004000000000000420000000000009000000000000000012000000000000029600000000000001210200000000000066002013081900000010000000000000BRCSNAACNOR6242
012013080278CSNAH68     070CSNA  FM    ON        000R$  000000000003000000000000310000000000023000000000002800000000000230000000000000000000000002200005000000000000014000000000000000398000000000000068002013081900000010000000000000BRCSNAACNOR6242
012013080278CSNAH7      070CSNA  FM    ON        000R$  000000000002100000000000240000000000010000000000001500000000000130000000000010000000000001300059000000000000103900000000000001651200000000000070002013081900000010000000000000BRCSNAACNOR6242
012013080278CSNAH72     070CSNA  FM    ON        000R$  000000000001200000000000120000000000012000000000001200000000000120000000000002000000000000000002000000000000008800000000000000105600000000000072002013081900000010000000000000BRCSNAACNOR6242
012013080278CSNAH74     070CSNA        ON        000R$  000000000001000000000000100000000000010000000000001000000000000100000000000000000000000001500001000000000000003000000000000000030000000000000074002013081900000010000000000000BRCSNAACNOR6242
012013080278CSNAI64     070CSNA  FM    ON        000R$  000000000006700000000000720000000000066000000000006800000000000720000000000000000000000000000004000000000000014000000000000000952000000000000064002013091600000010000000000000BRCSNAACNOR6242
012013080278CSNAI66     070CSNA  FM    ON        000R$  000000000005500000000000550000000000049000000000005200000000000490000000000000000000000000000003000000000000007500000000000000391500000000000066002013091600000010000000000000BRCSNAACNOR6242
012013080278CSNAI7      070CSNA  FM    ON        000R$  000000000003100000000000310000000000031000000000003100000000000310000000000022000000000003800001000000000000001000000000000000031000000000000070002013091600000010000000000000BRCSNAACNOR6242
012013080278CSNAI8      070CSNA        ON        000R$  000000000001000000000000100000000000010000000000001000000000000100000000000006000000000001000001000000000000000500000000000000005000000000000080002013091600000010000000000000BRCSNAACNOR6242
012013080278CSNAJ7      070CSNA        ON        000R$  000000000004000000000000400000000000039000000000003900000000000390000000000000000000000000000002000000000000002500000000000000098500000000000070002013102100000010000000000000BRCSNAACNOR6242
012013080282CSNAT6      080CSNAE       ON        000R$  000000000001100000000000110000000000011000000000001100000000000110000000000000000000000000000001000000000000001900000000000000020900000000000060002013081900000010000000000000BRCSNAACNOR6242
012013080282CSNAT65     080CSNAE       ON        000R$  000000000002600000000000260000000000026000000000002600000000000260000000000000000000000000000001000000000000001900000000000000049400000000000065002013081900000010000000000000BRCSNAACNOR6242
012013080282CSNAT66     080CSNAE FM    ON        000R$  000000000003300000000000330000000000033000000000003300000000000330000000000000000000000000000001000000000000001000000000000000033000000000000066002013081900000010000000000000BRCSNAACNOR6242
012013080282CSNAT68     080CSNAE FM    ON        000R$  000000000004500000000000450000000000045000000000004500000000000450000000000000000000000000000001000000000000001000000000000000045000000000000068002013081900000010000000000000BRCSNAACNOR6242
012013080282CSNAT7      080CSNAE FM    ON        000R$  000000000006000000000000600000000000060000000000006000000000000600000000000025000000000000000001000000000000002000000000000000120000000000000070002013081900000010000000000000BRCSNAACNOR6242
012013080282CSNAU64     080CSNAE FM    ON        000R$  000000000003500000000000350000000000035000000000003500000000000350000000000000000000000000000001000000000000002000000000000000070000000000000064002013091600000010000000000000BRCSNAACNOR6242
012013080282CSNAU66     080CSNAE FM    ON        000R$  000000000004300000000000470000000000043000000000004500000000000470000000000000000000000000000002000000000000004000000000000000180000000000000066002013091600000010000000000000BRCSNAACNOR6242
012013080282CSNAU68     080CSNAE FM    ON        000R$  000000000004700000000000530000000000046000000000004800000000000530000000000000000000000000000003000000000000006000000000000000292000000000000068002013091600000010000000000000BRCSNAACNOR6242
012013080282CSNAU7      080CSNAE FM    ON        000R$  000000000006000000000000670000000000056000000000005900000000000660000000000043000000000000000007000000000000013800000000000000822800000000000070002013091600000010000000000000BRCSNAACNOR6242
012013080282CSNAV64     080CSNAE       ON        000R$  000000000004800000000000480000000000048000000000004800000000000480000000000000000000000000000001000000000000002000000000000000096000000000000064002013102100000010000000000000BRCSNAACNOR6242
012013080202CTAX11      010CONTAX      UNT     N2   R$  000000000165100000000016730000000001632000000000164200000000016400000000001632000000000164000050000000000000082900000000000136197000000000000000009999123100000010000000000000BRCTAXCDAM19100
012013080296CTAX11F     020CONTAX      UNT     N2   R$  000000000165000000000016500000000001650000000000165000000000016500000000001600000000000188800001000000000000000030000000000000049500000000000000009999123100000010000000000000BRCTAXCDAM19100
012013080202CTAX4       010CONTAX      PN      N2   R$  000000000030100000000003180000000000300000000000030900000000003110000000000311000000000031400038000000000000065900000000000020365400000000000000009999123100000010000000000000BRCTAXACNPR0114
012013080296CTAX4F      020CONTAX      PN      N2   R$  000000000030200000000003020000000000301000000000030100000000003010000000000302000000000033700002000000000000000100000000000000030179000000000000009999123100000010000000000000BRCTAXACNPR0114
