00COTAHIST.2013BOVESPA 20130711                                                                                                                                                                                                                      
012013071102AAPL11B     010APPLE       DRN     MB   R$  000000000968900000000097150000000009635000000000968200000000097150000000009590000000000969500003000000000000004200000000000040665800000000000000009999123100000010000000000000BRAAPLBDR004104
012013071110ABCB2       010ABC BRASIL  DIR PRE N2   R$  000000000017000000000001800000000000169000000000017000000000001730000000000150000000000018000032000000000000067100000000000011417100000000000000009999123100000010000000000000BRABCBD03PR5119
012013071196ABCB2F      020ABC BRASIL  DIR PRE N2   R$  000000000014500000000001700000000000145000000000015100000000001550000000000155000000000020000012000000000000000413000000000000062708000000000000009999123100000010000000000000BRABCBD03PR5119
012013071102ABCB4       010ABC BRASIL  PN  EJS N2   R$  000000000125700000000012640000000001241000000000125400000000012550000000001248000000000125500451000000000001073200000000001346137500000000000000009999123100000010000000000000BRABCBACNPR4120
012013071196ABCB4F      020ABC BRASIL  PN  EJS N2   R$  000000000124200000000012920000000001225000000000123600000000012920000000001207000000000125500010000000000000000311000000000000384685000000000000009999123100000010000000000000BRABCBACNPR4120
012013071112ABCP11      010FII ABC IMOBCI  ER       R$  000000000095400000000009630000000000954000000000095600000000009630000000000890000000000096300004000000000000001222000000000001169307000000000000009999123100000010000000000000BRABCPCTF000213
012013071102ABRE11      010ABRIL EDUCA UNT     N2   R$  000000000393900000000040780000000003919000000000400300000000039190000000003919000000000396001284000000000000355000000000001421280400000000000000009999123100000010000000000000BRABRECDAM15102
012013071196ABRE11F     020ABRIL EDUCA UNT     N2   R$  000000000400000000000041630000000003959000000000400300000000039590000000003825000000000395900015000000000000000441000000000001765715000000000000009999123100000010000000000000BRABRECDAM15102
012013071102ABTT11B     010ABBOTT      DRN ED  MB   R$  000000000201400000000020140000000002014000000000201400000000020140000000001970000000000201000001000000000000004300000000000008660200000000000000009999123100000010000000000000BRABTTBDR007107
012013071102AEDU3       010ANHANGUERA  ON      NM   R$  000000000129400000000013200000000001270000000000128500000000012920000000001292000000000129307395000000000004363800000000005609983600000000000000009999123100000010000000000000BRAEDUACNOR9107
012013071196AEDU3F      020ANHANGUERA  ON      NM   R$  000000000127900000000013000000000001261000000000127800000000012750000000001275000000000131500027000000000000000906000000000001158591000000000000009999123100000010000000000000BRAEDUACNOR9107
012013071112AEFI11      010FII AESAPAR CI  ER       R$  000000001235100000000124960000000012351000000001241000000000124250000000012400000000001242500044000000000000002214000000000027476002000000000000009999123100000010000000000000BRAEFICTF002119
012013071102AELP3       010AES ELPA    ON           R$  000000000079900000000008240000000000799000000000081300000000008240000000000735000000000082200015000000000000001500000000000001219600000000000000009999123100000010000000000000BRAELPACNOR2119
012013071196AELP3F      020AES ELPA    ON           R$  000000000080800000000008280000000000800000000000081100000000008000000000000800000000000082800004000000000000000038000000000000030832000000000000009999123100000010000000000000BRAELPACNOR2119
012013071112AGCX11      010FII AG CAIXACI  ER       R$  000000010050000000001010000000000100000000000010045600000001009000000000100110000000010089900010000000000000000255000000000025616350000000000000009999123100000010000000000000BRAGCXCTF003108
012013071102AGEN11      010AGRENCO     DR3          R$  000000000004200000000000430000000000041000000000004100000000000410000000000041000000000004200171000000000001568000000000000065816500000000000000009999123100000010000000000000BRAGENBDR001100
012013071102AGRO3       010BRASILAGRO  ON      NM   R$  000000000103400000000010340000000001027000000000103300000000010340000000001000000000000103400007000000000000011100000000000011475400000000000000009999123100000010000000000000BRAGROACNOR7102
012013071162AGRO3T      030BRASILAGRO  ON      NM090R$  000000000105500000000010560000000001055000000000105500000000010560000000000000000000000000000002000000000000010000000000000010551970000000000000009999123100000010000000000000BRAGROACNOR7102
012013071102ALLL3       010ALL AMER LATON      NM   R$  000000000086900000000008800000000000852000000000086700000000008720000000000870000000000087204689000000000001727000000000001497490300000000000000009999123100000010000000000000BRALLLACNOR6118
012013071196ALLL3F      020ALL AMER LATON      NM   R$  000000000086300000000008740000000000852000000000086200000000008570000000000861000000000087900034000000000000001033000000000000891351000000000000009999123100000010000000000000BRALLLACNOR6118
012013071162ALLL3T      030ALL AMER LATON      NM032R$  000000000086300000000008640000000000863000000000086300000000008640000000000000000000000000000002000000000000000500000000000000431874000000000000009999123100000010000000000000BRALLLACNOR6118
012013071112ALMI11B     010FII TORRE ALCI  ER  MB   R$  000000031989000000003199000000000318000000000031903200000003180000000000310500000000031989900004000000000000000011000000000003509360000000000000009999123100000010000000000000BRALMICTF003203
012013071102ALPA3       010ALPARGATAS  ON      N1   R$  000000000107000000000010700000000000997000000000101500000000009970000000000997000000000102300363000000000000064700000000000065672400000000000000009999123100000010000000000000BRALPAACNOR0202
012013071196ALPA3F      020ALPARGATAS  ON      N1   R$  000000000110000000000011200000000001100000000000111000000000011200000000001064000000000112000002000000000000000008000000000000008880000000000000009999123100000010000000000000BRALPAACNOR0202
012013071102ALPA4       010ALPARGATAS  PN      N1   R$  000000000140200000000014020000000001372000000000138200000000013720000000001372000000000138501196000000000000281900000000000389649700000000000000009999123100000010000000000000BRALPAACNPR7202
012013071196ALPA4F      020ALPARGATAS  PN      N1   R$  000000000139300000000013930000000001370000000000138100000000013800000000001365000000000139200015000000000000000463000000000000639410000000000000009999123100000010000000000000BRALPAACNPR7202
012013071102ALSC3       010ALIANSCE    ON      NM   R$  000000000186000000000019070000000001853000000000187200000000019000000000001891000000000190002568000000000000583200000000001092153200000000000000009999123100000010000000000000BRALSCACNOR0104
012013071196ALSC3F      020ALIANSCE    ON      NM   R$  000000000178300000000018650000000001783000000000183200000000018650000000001890000000000190000006000000000000000222000000000000406865000000000000009999123100000010000000000000BRALSCACNOR0104
012013071102ALUP11      010ALUPAR      UNT     N2   R$  000000000182500000000018370000000001791000000000181500000000018310000000001830000000000183300818000000000000173000000000000314060200000000000000009999123100000010000000000000BRALUPCDAM15100
012013071196ALUP11F     020ALUPAR      UNT     N2   R$  000000000185000000000020710000000001795000000000182400000000018200000000001820000000000207100034000000000000000712000000000001299067000000000000009999123100000010000000000000BRALUPCDAM15100
012013071162ALUP11T     030ALUPAR      UNT     N2018R$  000000000182700000000018280000000001827000000000182700000000018280000000000000000000000000000002000000000000001400000000000002558447000000000000009999123100000010000000000000BRALUPCDAM15100
012013071102AMAR3       010LOJAS MARISAON      NM   R$  000000000221900000000022650000000002209000000000223600000000022330000000002233000000000223801378000000000000390700000000000873780700000000000000009999123100000010000000000000BRAMARACNOR4109
012013071196AMAR3F      020LOJAS MARISAON      NM   R$  000000000225500000000022570000000002151000000000222300000000022010000000002201000000000226000004000000000000000156000000000000346810000000000000009999123100000010000000000000BRAMARACNOR4109
012013071102AMBV3       010AMBEV       ON           R$  000000000820700000000083000000000008168000000000822400000000081750000000008175000000000819300777000000000000121400000000000998403800000000000000009999123100000010000000000000BRAMBVACNOR4153
012013071196AMBV3F      020AMBEV       ON           R$  000000000818000000000082980000000008113000000000820800000000081650000000008150000000000816500044000000000000000923000000000007573491000000000000009999123100000010000000000000BRAMBVACNOR4153
012013071102AMBV4       010AMBEV       PN           R$  000000000837000000000083850000000008241000000000829700000000082690000000008268000000000826905981000000000001255100000000010414277800000000000000009999123100000010000000000000BRAMBVACNPR1153
012013071196AMBV4F      020AMBEV       PN           R$  000000000828200000000084000000000008221000000000828500000000083350000000008290000000000833500118000000000000002682000000000022225349000000000000009999123100000010000000000000BRAMBVACNPR1153
012013071162AMBV4T      030AMBEV       PN        060R$  000000000844500000000084460000000008403000000000843500000000084040000000000000000000000000000004000000000000000800000000000006748025000000000000009999123100000010000000000000BRAMBVACNPR1153
012013071162AMBV4T      030AMBEV       PN        120R$  000000000848700000000084880000000008487000000000848700000000084880000000000000000000000000000002000000000000000300000000000002546190000000000000009999123100000010000000000000BRAMBVACNPR1153
012013071178AMBVG82     070AMBV        PN        000R$  000000000010100000000001010000000000101000000000010100000000001010000000000000000000000025000001000000000000000100000000000000010100000000000820002013071500000010000000000000BRAMBVACNPR1153
012013071178AMBVG84     070AMBV        PN        000R$  000000000004000000000000400000000000040000000000004000000000000400000000000010000000000000000001000000000000000800000000000000032000000000000840002013071500000010000000000000BRAMBVACNPR1153
012013071178AMBVH85     070AMBV        PN        000R$  000000000022500000000002350000000000180000000000021000000000002170000000000000000000000000000007000000000000002000000000000000420900000000000850002013081900000010000000000000BRAMBVACNPR1153
012013071178AMBVH86     070AMBV        PN        000R$  000000000016700000000001810000000000167000000000017400000000001810000000000000000000000000000002000000000000000200000000000000034800000000000860002013081900000010000000000000BRAMBVACNPR1153
012013071178AMBVH88     070AMBV        PN        000R$  000000000006000000000000850000000000060000000000006900000000000800000000000000000000000023500024000000000000059300000000000004136000000000000880002013081900000010000000000000BRAMBVACNPR1153
012013071178AMBVH89     070AMBV        PN        000R$  000000000004000000000000620000000000040000000000004900000000000600000000000000000000000000000012000000000000024000000000000001194500000000000890002013081900000010000000000000BRAMBVACNPR1153
012013071178AMBVH90     070AMBV        PN        000R$  000000000002500000000000450000000000025000000000003400000000000450000000000000000000000000000011000000000000023500000000000000810000000000000900002013081900000010000000000000BRAMBVACNPR1153
012013071102AMGN11B     010AMGEN       DRN     MB   R$  000000002419900000000241990000000023416000000002380700000000234160000000020500000000002550000004000000000000001400000000000033330500000000000000009999123100000010000000000000BRAMGNBDR004106
012013071102ARTR3       010ARTERIS     ON      NM   R$  000000000207300000000020900000000002047000000000207500000000020600000000002060000000000206903814000000000009318300000000019343874400000000000000009999123100000010000000000000BRARTRACNOR3101
012013071196ARTR3F      020ARTERIS     ON      NM   R$  000000000200300000000020940000000002003000000000207300000000020700000000002051000000000212500050000000000000001479000000000003066126000000000000009999123100000010000000000000BRARTRACNOR3101
012013071162ARTR3T      030ARTERIS     ON      NM090R$  000000000211200000000021130000000002112000000000211200000000021130000000000000000000000000000002000000000000000600000000000001267249000000000000009999123100000010000000000000BRARTRACNOR3101
012013071102ARZZ3       010AREZZO CO   ON  EJ  NM   R$  000000000343200000000035880000000003410000000000349700000000035060000000003506000000000352701637000000000000333100000000001164902600000000000000009999123100000010000000000000BRARZZACNOR3108
012013071196ARZZ3F      020AREZZO CO   ON  EJ  NM   R$  000000000350000000000036980000000003403000000000348400000000034030000000003402000000000370000017000000000000000509000000000001773593000000000000009999123100000010000000000000BRARZZACNOR3108
012013071102AUTM3       010AUTOMETAL   ON      NM   R$  000000000166400000000017080000000001636000000000166400000000016700000000001662000000000167000677000000000000133400000000000222101800000000000000009999123100000010000000000000BRAUTMACNOR8109
012013071196AUTM3F      020AUTOMETAL   ON      NM   R$  000000000164700000000016790000000001480000000000164200000000016790000000001600000000000175400007000000000000000072000000000000118280000000000000009999123100000010000000000000BRAUTMACNOR8109
012013071102BAHI3       010BAHEMA      ON           R$  000000000051000000000005100000000000510000000000051000000000005100000000000491000000000052000001000000000000000100000000000000051000000000000000009999123100000010000000000000BRBAHIACNOR1066
012013071102BAUH4       010EXCELSIOR   PN           R$  000000000101000000000010100000000001010000000000101000000000010100000000000923000000000101000001000000000000000200000000000000202000000000000000009999123100000010000000000000BRBAUHACNPR3108
012013071102BAZA3       010AMAZONIA    ON           R$  000000000003200000000000330000000000032000000000003200000000000330000000000032000000000003400006000000000000017000000000000000554000000000000000009999123100000010000000000000BRBAZAACNOR0163
012013071196BAZA3F      020AMAZONIA    ON           R$  000000000003200000000000320000000000032000000000003200000000000320000000000032000000000003400001000000000000000300000000000000009600000000000000009999123100000010000000000000BRBAZAACNOR0163
012013071102BBAS3       010BRASIL      ON      NM   R$  000000000207000000000021270000000002063000000000209700000000021150000000002110000000000211510383000000000005461900000000011456358300000000000000009999123100000010000000000000BRBBASACNOR3237
012013071196BBAS3F      020BRASIL      ON      NM   R$  000000000204700000000021250000000002047000000000209200000000021250000000002111000000000212500222000000000000006528000000000013659819000000000000009999123100000010000000000000BRBBASACNOR3237
012013071162BBAS3T      030BRASIL      ON      NM018R$  000000000210400000000021050000000002104000000000210400000000021050000000000000000000000000000002000000000000001000000000000002104384000000000000009999123100000010000000000000BRBBASACNOR3237
012013071162BBAS3T      030BRASIL      ON      NM060R$  000000000212300000000021340000000002123000000000212800000000021340000000000000000000000000000004000000000000000200000000000000425727000000000000009999123100000010000000000000BRBBASACNOR3237
012013071162BBAS3T      030BRASIL      ON      NM090R$  000000000210800000000021090000000002108000000000210800000000021090000000000000000000000000000002000000000000010000000000000021085179000000000000009999123100000010000000000000BRBBASACNOR3237
012013071162BBAS3T      030BRASIL      ON      NM120R$  000000000217000000000021710000000002170000000000217000000000021710000000000000000000000000000002000000000000001000000000000002170836000000000000009999123100000010000000000000BRBBASACNOR3237
012013071162BBAS3T      030BRASIL      ON      NM180R$  000000000219000000000021910000000002190000000000219000000000021910000000000000000000000000000002000000000000000400000000000000876127000000000000009999123100000010000000000000BRBBASACNOR3237
012013071178BBASG20     070BBAS        ON      NM000R$  000000000010500000000001460000000000105000000000012000000000001460000000000021000000000014500017000000000000009100000000000001100400000000000197602013071500000010000000000000BRBBASACNOR3236
012013071178BBASG21     070BBAS        ON      NM000R$  000000000008100000000001290000000000081000000000011100000000001190000000000049000000000000000023000000000000026900000000000002997800000000000199202013071500000010000000000000BRBBASACNOR3232
012013071178BBASG22     070BBAS        ON      NM000R$  000000000001900000000000300000000000011000000000002000000000000250000000000018000000000002500087000000000000207900000000000004347000000000000211702013071500000010000000000000BRBBASACNOR3233
012013071178BBASG23     070BBAS        ON      NM000R$  000000000000100000000000010000000000001000000000000100000000000010000000000000000000000000100003000000000000008000000000000000008000000000000226602013071500000010000000000000BRBBASACNOR3235
012013071178BBASG24     070BBAS        ON      NM000R$  000000000000100000000000010000000000001000000000000100000000000010000000000000000000000000100003000000000000004800000000000000004800000000000231702013071500000010000000000000BRBBASACNOR3233
012013071178BBASH19     070BBAS        ON      NM000R$  000000000018500000000002500000000000185000000000024100000000002500000000000000000000000000000008000000000000004600000000000001109800000000000190002013081900000010000000000000BRBBASACNOR3237
012013071178BBASH20     070BBAS  FM    ON      NM000R$  000000000016500000000001780000000000135000000000015600000000001720000000000000000000000027500120000000000000156500000000000024522200000000000200002013081900000010000000000000BRBBASACNOR3237
012013071178BBASH21     070BBAS  FM    ON      NM000R$  000000000011000000000001240000000000088000000000010600000000001170000000000101000000000016400084000000000000122600000000000013110400000000000207602013081900000010000000000000BRBBASACNOR3236
012013071178BBASH22     070BBAS  FM    ON      NM000R$  000000000005300000000000690000000000045000000000005700000000000640000000000046000000000006700050000000000000106700000000000006103300000000000217602013081900000010000000000000BRBBASACNOR3236
012013071178BBASH23     070BBAS  FM    ON      NM000R$  000000000002200000000000340000000000022000000000003200000000000320000000000027000000000003300075000000000000152500000000000004887200000000000227602013081900000010000000000000BRBBASACNOR3236
012013071178BBASH24     070BBAS  FM    ON      NM000R$  000000000001600000000000240000000000016000000000002100000000000220000000000011000000000002400009000000000000013100000000000000276200000000000231702013081900000010000000000000BRBBASACNOR3233
012013071178BBASH25     070BBAS        ON      NM000R$  000000000000900000000000120000000000009000000000001100000000000120000000000006000000000001600010000000000000028100000000000000318900000000000241702013081900000010000000000000BRBBASACNOR3233
012013071178BBASH26     070BBAS        ON      NM000R$  000000000000400000000000040000000000004000000000000400000000000040000000000003000000000000400001000000000000003000000000000000012000000000000256602013081900000010000000000000BRBBASACNOR3235
012013071178BBASI18     070BBAS        ON      NM000R$  000000000035800000000003580000000000358000000000035800000000003580000000000000000000000000000001000000000000002000000000000000716000000000000180002013091600000010000000000000BRBBASACNOR3237
012013071178BBASI19     070BBAS        ON      NM000R$  000000000027400000000002740000000000274000000000027400000000002740000000000000000000000000000001000000000000003000000000000000822000000000000190002013091600000010000000000000BRBBASACNOR3237
012013071178BBASI20     070BBAS  FM    ON      NM000R$  000000000017700000000001960000000000164000000000018000000000001940000000000000000000000000000043000000000000076800000000000013899900000000000200002013091600000010000000000000BRBBASACNOR3237
012013071178BBASI21     070BBAS  FM    ON      NM000R$  000000000011700000000001390000000000106000000000011800000000001300000000000000000000000000000034000000000000060500000000000007179400000000000210002013091600000010000000000000BRBBASACNOR3237
012013071178BBASI22     070BBAS  FM    ON      NM000R$  000000000008100000000000950000000000073000000000008500000000000950000000000007000000000000000025000000000000054300000000000004661700000000000217602013091600000010000000000000BRBBASACNOR3236
012013071178BBASI23     070BBAS  FM    ON      NM000R$  000000000004700000000000560000000000040000000000004700000000000560000000000016000000000000000170000000000000246200000000000011618900000000000227602013091600000010000000000000BRBBASACNOR3236
012013071178BBASI24     070BBAS        ON      NM000R$  000000000002800000000000300000000000027000000000002700000000000290000000000012000000000000000009000000000000006700000000000000187300000000000237602013091600000010000000000000BRBBASACNOR3236
012013071182BBASS20     080BBASE       ON      NM000R$  000000000000100000000000020000000000001000000000000100000000000020000000000000000000000001500003000000000000022100000000000000042100000000000197602013071500000010000000000000BRBBASACNOR3236
012013071182BBASS21     080BBASE       ON      NM000R$  000000000000400000000000040000000000002000000000000300000000000020000000000011000000000002500002000000000000002000000000000000006000000000000199202013071500000010000000000000BRBBASACNOR3232
012013071182BBASS22     080BBASE       ON      NM000R$  000000000005000000000000500000000000026000000000003500000000000260000000000042000000000000000018000000000000055200000000000001978900000000000211702013071500000010000000000000BRBBASACNOR3233
012013071182BBASS23     080BBASE       ON      NM000R$  000000000019000000000001900000000000163000000000017500000000001630000000000100000000000000000014000000000000027400000000000004795700000000000226602013071500000010000000000000BRBBASACNOR3235
012013071182BBASS24     080BBASE       ON      NM000R$  000000000023000000000002300000000000206000000000020800000000002060000000000024000000000027000302000000000000031300000000000006511700000000000231702013071500000010000000000000BRBBASACNOR3233
012013071182BBASS26     080BBASE       ON      NM000R$  000000000043100000000004310000000000431000000000043100000000004310000000000350000000000000000001000000000000000500000000000000215500000000000251702013071500000010000000000000BRBBASACNOR3233
012013071182BBAST19     080BBASE FM    ON      NM000R$  000000000002400000000000300000000000020000000000002700000000000220000000000020000000000002200047000000000000086900000000000002350900000000000190002013081900000010000000000000BRBBASACNOR3237
012013071182BBAST20     080BBASE FM    ON      NM000R$  000000000005200000000000520000000000040000000000004700000000000400000000000000000000000004200009000000000000021500000000000001015400000000000200002013081900000010000000000000BRBBASACNOR3237
012013071182BBAST21     080BBASE FM    ON      NM000R$  000000000008100000000000810000000000063000000000007200000000000640000000000067000000000012400013000000000000027700000000000002008100000000000207602013081900000010000000000000BRBBASACNOR3236
012013071182BBAST22     080BBASE FM    ON      NM000R$  000000000013500000000001370000000000106000000000012500000000001060000000000020000000000000000034000000000000064000000000000008015100000000000217602013081900000010000000000000BRBBASACNOR3236
012013071182BBAST23     080BBASE       ON      NM000R$  000000000019000000000001900000000000189000000000018900000000001890000000000000000000000000000002000000000000004100000000000000775000000000000227602013081900000010000000000000BRBBASACNOR3236
012013071182BBAST24     080BBASE       ON      NM000R$  000000000022600000000002260000000000206000000000020700000000002060000000000000000000000000000303000000000000035500000000000007376700000000000231702013081900000010000000000000BRBBASACNOR3233
012013071182BBASU19     080BBASE FM    ON      NM000R$  000000000004000000000000400000000000037000000000003900000000000370000000000000000000000000000009000000000000013500000000000000533700000000000190002013091600000010000000000000BRBBASACNOR3237
012013071182BBASU20     080BBASE FM    ON      NM000R$  000000000007100000000000710000000000054000000000006100000000000590000000000000000000000000000022000000000000044200000000000002738200000000000200002013091600000010000000000000BRBBASACNOR3237
012013071182BBASU21     080BBASE FM    ON      NM000R$  000000000010600000000001120000000000091000000000010100000000000950000000000000000000000000000031000000000000063200000000000006418400000000000210002013091600000010000000000000BRBBASACNOR3237
012013071182BBASU24     080BBASE       ON      NM000R$  000000000026000000000002600000000000260000000000026000000000002600000000000000000000000000000001000000000000003000000000000000780000000000000237602013091600000010000000000000BRBBASACNOR3236
012013071182BBASX25     080BBASE       ON      NM000R$  000000000036300000000003630000000000363000000000036300000000003630000000000000000000000000000001000000000000400000000000000145200000000000000246602013121600000010000000000000BRBBASACNOR3235
012013071102BBDC3       010BRADESCO    ON  EJ  N1   R$  000000000293000000000030460000000002930000000000300600000000030240000000003024000000000302504143000000000001910500000000005744133800000000000000009999123100000010000000000000BRBBDCACNOR1604
012013071196BBDC3F      020BRADESCO    ON  EJ  N1   R$  000000000295700000000030350000000002851000000000297100000000030300000000002960000000000302100048000000000000001605000000000004773415000000000000009999123100000010000000000000BRBBDCACNOR1604
012013071102BBDC4       010BRADESCO    PN  EJ  N1   R$  000000000265000000000027360000000002642000000000269300000000027360000000002736000000000273727692000000000010579700000000028493358500000000000000009999123100000010000000000000BRBBDCACNPR8604
012013071196BBDC4F      020BRADESCO    PN  EJ  N1   R$  000000000265000000000027400000000002640000000000268600000000027400000000002722000000000274000234000000000000005309000000000014265740000000000000009999123100000010000000000000BRBBDCACNPR8604
012013071162BBDC4T      030BRADESCO    PN  EJ  N1032R$  000000000266800000000026690000000002668000000000266800000000026690000000000000000000000000000002000000000000000500000000000001334142000000000000009999123100000010000000000000BRBBDCACNPR8604
012013071162BBDC4T      030BRADESCO    PN  EJ  N1060R$  000000000274300000000027440000000002743000000000274300000000027440000000000000000000000000000002000000000000003000000000000008229999000000000000009999123100000010000000000000BRBBDCACNPR8604
012013071162BBDC4T      030BRADESCO    PN  EJ  N1120R$  000000000279900000000028000000000002799000000000279900000000028000000000000000000000000000000002000000000000050000000000000139993425000000000000009999123100000010000000000000BRBBDCACNPR8604
012013071178BBDCC6      070BBDC    /EJ PN      N1000R$  000000000009100000000000910000000000091000000000009100000000000910000000000000000000000000000001000000000000000800000000000000072800000000000324702014031700000010000000000000BRBBDCACNPR8598
012013071178BBDCG14     070BBDC    /EJ PN      N1000R$  000000000000100000000000010000000000001000000000000100000000000010000000000000000000000000100001000000000000016000000000000000016000000000000337802013071500000010000000000000BRBBDCACNPR8601
012013071178BBDCG25     070BBDC    /EJ PN      N1000R$  000000000019800000000002260000000000195000000000021100000000002260000000000000000000000000000014000000000000033300000000000007057800000000000247802013071500000010000000000000BRBBDCACNPR8601
012013071178BBDCG26     070BBDC    /EJ PN      N1000R$  000000000010500000000001290000000000102000000000011900000000001290000000000000000000000000000009000000000000021000000000000002500000000000000257802013071500000010000000000000BRBBDCACNPR8601
012013071178BBDCG27     070BBDC    /EJ PN      N1000R$  000000000003000000000000650000000000021000000000003700000000000650000000000046000000000006800057000000000000086400000000000003253200000000000267802013071500000010000000000000BRBBDCACNPR8601
012013071178BBDCG28     070BBDC    /EJ PN      N1000R$  000000000000500000000000110000000000004000000000000600000000000110000000000007000000000001000031000000000000080600000000000000525200000000000278002013071500000010000000000000BRBBDCACNPR8602
012013071178BBDCG29     070BBDC    /EJ PN      N1000R$  000000000000100000000000010000000000001000000000000100000000000010000000000000000000000000100004000000000000004600000000000000004600000000000288002013071500000010000000000000BRBBDCACNPR8602
012013071178BBDCG30     070BBDC    /EJ PN      N1000R$  000000000000100000000000010000000000001000000000000100000000000010000000000000000000000000100002000000000000004400000000000000004400000000000297802013071500000010000000000000BRBBDCACNPR8601
012013071178BBDCG31     070BBDC    /EJ PN      N1000R$  000000000000100000000000010000000000001000000000000100000000000010000000000000000000000000000001000000000000006000000000000000006000000000000307802013071500000010000000000000BRBBDCACNPR8601
012013071178BBDCG32     070BBDC    /EJ PN      N1000R$  000000000000100000000000010000000000001000000000000100000000000010000000000000000000000000200002000000000000005500000000000000005500000000000317602013071500000010000000000000BRBBDCACNPR8600
012013071178BBDCG33     070BBDC    /EJ PN      N1000R$  000000000000100000000000010000000000001000000000000100000000000010000000000000000000000000100002000000000000000600000000000000000600000000000291902013071500000010000000000000BRBBDCACNPR8593
012013071178BBDCG35     070BBDC    /EJ PN      N1000R$  000000000000100000000000010000000000001000000000000100000000000010000000000000000000000000100003000000000000006000000000000000006000000000000347602013071500000010000000000000BRBBDCACNPR8600
012013071178BBDCG37     070BBDC    /EJ PN      N1000R$  000000000000100000000000010000000000001000000000000100000000000010000000000000000000000000000003000000000000001300000000000000001300000000000367802013071500000010000000000000BRBBDCACNPR8601
012013071178BBDCH23     070BBDC    /EJ PN      N1000R$  000000000043100000000004310000000000431000000000043100000000004310000000000000000000000000000002000000000000006000000000000002586000000000000229802013081900000010000000000000BRBBDCACNPR8603
012013071178BBDCH24     070BBDC    /EJ PN      N1000R$  000000000035700000000003570000000000357000000000035700000000003570000000000000000000000000000001000000000000003000000000000001071000000000000238002013081900000010000000000000BRBBDCACNPR8602
012013071178BBDCH25     070BBDC    /EJ PN      N1000R$  000000000025900000000002800000000000259000000000026900000000002800000000000000000000000000000004000000000000012000000000000003237000000000000248002013081900000010000000000000BRBBDCACNPR8602
012013071178BBDCH26     070BBDC    /EJ PN      N1000R$  000000000016300000000002120000000000152000000000017600000000002120000000000000000000000022800092000000000000180500000000000031768900000000000258002013081900000010000000000000BRBBDCACNPR8602
012013071178BBDCH27     070BBDC    /EJ PN      N1000R$  000000000012600000000001420000000000093000000000011400000000001420000000000093000000000013000186000000000000199400000000000022848400000000000268002013081900000010000000000000BRBBDCACNPR8602
012013071178BBDCH28     070BBDC    /EJ PN      N1000R$  000000000007800000000000890000000000052000000000006900000000000860000000000062000000000009800197000000000000175000000000000012111500000000000278002013081900000010000000000000BRBBDCACNPR8602
012013071178BBDCH29     070BBDC    /EJ PN      N1000R$  000000000003500000000000490000000000026000000000003500000000000490000000000038000000000006500088000000000000162400000000000005701800000000000288002013081900000010000000000000BRBBDCACNPR8602
012013071178BBDCH30     070BBDC    /EJ PN      N1000R$  000000000001600000000000240000000000015000000000001800000000000240000000000018000000000003000023000000000000057700000000000001065700000000000298002013081900000010000000000000BRBBDCACNPR8602
012013071178BBDCH31     070BBDC    /EJ PN      N1000R$  000000000000800000000000140000000000008000000000001100000000000140000000000012000000000000000004000000000000014000000000000000164000000000000307602013081900000010000000000000BRBBDCACNPR8600
012013071178BBDCH32     070BBDC    /EJ PN      N1000R$  000000000000400000000000040000000000004000000000000400000000000040000000000004000000000001800001000000000000004000000000000000016000000000000318002013081900000010000000000000BRBBDCACNPR8602
012013071178BBDCH34     070BBDC    /EJ PN      N1000R$  000000000001200000000000120000000000012000000000001200000000000120000000000010000000000002400002000000000000003500000000000000042000000000000305502013081900000010000000000000BRBBDCACNPR8595
012013071178BBDCI25     070BBDC    /EJ PN      N1000R$  000000000025000000000003090000000000245000000000027000000000003090000000000000000000000000000085000000000000149200000000000040411000000000000250002013091600000010000000000000BRBBDCACNPR8604
012013071178BBDCI26     070BBDC    /EJ PN      N1000R$  000000000019100000000002350000000000178000000000020000000000002350000000000100000000000000000057000000000000103200000000000020707300000000000260002013091600000010000000000000BRBBDCACNPR8604
012013071178BBDCI27     070BBDC    /EJ PN      N1000R$  000000000014500000000001820000000000133000000000014900000000001820000000000000000000000000000037000000000000071800000000000010735100000000000268002013091600000010000000000000BRBBDCACNPR8602
012013071178BBDCI28     070BBDC    /EJ PN      N1000R$  000000000009500000000001260000000000088000000000010100000000001260000000000000000000000000000087000000000000136600000000000013800000000000000278002013091600000010000000000000BRBBDCACNPR8602
012013071178BBDCI29     070BBDC    /EJ PN      N1000R$  000000000005000000000000800000000000050000000000006100000000000800000000000056000000000000000052000000000000070600000000000004368400000000000288002013091600000010000000000000BRBBDCACNPR8602
012013071178BBDCI30     070BBDC    /EJ PN      N1000R$  000000000004000000000000460000000000039000000000004200000000000460000000000000000000000013800004000000000000012000000000000000504000000000000298002013091600000010000000000000BRBBDCACNPR8602
012013071178BBDCI31     070BBDC    /EJ PN      N1000R$  000000000012500000000001410000000000125000000000012900000000001410000000000093000000000000000004000000000000009000000000000001163500000000000273102013091600000010000000000000BRBBDCACNPR8590
012013071178BBDCI32     070BBDC    /EJ PN      N1000R$  000000000001400000000000170000000000014000000000001500000000000140000000000015000000000000000005000000000000012500000000000000193000000000000318002013091600000010000000000000BRBBDCACNPR8602
012013071178BBDCI33     070BBDC    /EJ PN      N1000R$  000000000004100000000000450000000000041000000000004300000000000450000000000000000000000000000003000000000000009000000000000000390000000000000297402013091600000010000000000000BRBBDCACNPR8598
012013071178BBDCI81     070BBDC    /EJ PN      N1000R$  000000000002100000000000290000000000021000000000002500000000000290000000000000000000000000000006000000000000018000000000000000456000000000000308002013091600000010000000000000BRBBDCACNPR8602
012013071178BBDCJ30     070BBDC    /EJ PN      N1000R$  000000000008000000000000800000000000080000000000008000000000000800000000000000000000000000000001000000000000008000000000000000640000000000000298002013102100000010000000000000BRBBDCACNPR8602
012013071178BBDCJ31     070BBDC    /EJ PN      N1000R$  000000000004400000000000440000000000044000000000004400000000000440000000000000000000000000000001000000000000001200000000000000052800000000000308002013102100000010000000000000BRBBDCACNPR8602
012013071182BBDCS27     080BBDCE   /EJ PN      N1000R$  000000000005100000000000540000000000020000000000004400000000000200000000000010000000000016700004000000000000009600000000000000428400000000000267802013071500000010000000000000BRBBDCACNPR8601
012013071182BBDCS28     080BBDCE   /EJ PN      N1000R$  000000000010000000000001050000000000060000000000008700000000000600000000000040000000000009000014000000000000025400000000000002220800000000000278002013071500000010000000000000BRBBDCACNPR8602
012013071182BBDCS29     080BBDCE   /EJ PN      N1000R$  000000000022700000000002270000000000227000000000022700000000002270000000000000000000000034700002000000000000003000000000000000681000000000000288002013071500000010000000000000BRBBDCACNPR8602
012013071182BBDCS3      080BBDCE   /EJ PN      N1000R$  000000000060500000000006050000000000605000000000060500000000006050000000000000000000000000000001000000000000000500000000000000302500000000000327602013071500000010000000000000BRBBDCACNPR8600
012013071182BBDCS30     080BBDCE   /EJ PN      N1000R$  000000000032500000000003250000000000325000000000032500000000003250000000000000000000000000000001000000000000002000000000000000650000000000000297802013071500000010000000000000BRBBDCACNPR8601
012013071182BBDCS31     080BBDCE   /EJ PN      N1000R$  000000000042500000000004250000000000425000000000042500000000004250000000000000000000000000000001000000000000001000000000000000425000000000000307802013071500000010000000000000BRBBDCACNPR8601
012013071182BBDCS32     080BBDCE   /EJ PN      N1000R$  000000000049900000000004990000000000480000000000049500000000004800000000000000000000000000000003000000000000005700000000000002825300000000000317602013071500000010000000000000BRBBDCACNPR8600
012013071182BBDCT24     080BBDCE   /EJ PN      N1000R$  000000000002300000000000230000000000018000000000002000000000000180000000000038000000000002400005000000000000045000000000000000930000000000000238002013081900000010000000000000BRBBDCACNPR8602
012013071182BBDCT25     080BBDCE   /EJ PN      N1000R$  000000000003300000000000410000000000027000000000003600000000000290000000000060000000000003800134000000000000138800000000000005076000000000000248002013081900000010000000000000BRBBDCACNPR8602
012013071182BBDCT26     080BBDCE   /EJ PN      N1000R$  000000000006500000000000710000000000044000000000005800000000000450000000000000000000000000000130000000000000152800000000000008936500000000000258002013081900000010000000000000BRBBDCACNPR8602
012013071182BBDCT27     080BBDCE   /EJ PN      N1000R$  000000000010900000000001120000000000074000000000009500000000000750000000000000000000000016100082000000000000140100000000000013400200000000000268002013081900000010000000000000BRBBDCACNPR8602
012013071182BBDCT28     080BBDCE   /EJ PN      N1000R$  000000000016200000000001710000000000126000000000015300000000001270000000000000000000000013000547000000000000288600000000000044368000000000000278002013081900000010000000000000BRBBDCACNPR8602
012013071182BBDCT29     080BBDCE   /EJ PN      N1000R$  000000000024300000000002430000000000182000000000020900000000001830000000000000000000000000000196000000000000106800000000000022377600000000000288002013081900000010000000000000BRBBDCACNPR8602
012013071182BBDCT30     080BBDCE   /EJ PN      N1000R$  000000000026000000000002600000000000258000000000025900000000002580000000000000000000000000000021000000000000020000000000000005181900000000000298002013081900000010000000000000BRBBDCACNPR8602
012013071182BBDCU25     080BBDCE   /EJ PN      N1000R$  000000000006400000000000670000000000050000000000006100000000000500000000000000000000000000000041000000000000070500000000000004330900000000000250002013091600000010000000000000BRBBDCACNPR8604
012013071182BBDCU26     080BBDCE   /EJ PN      N1000R$  000000000009200000000000990000000000075000000000009000000000000760000000000000000000000000000062000000000000086800000000000007829100000000000260002013091600000010000000000000BRBBDCACNPR8604
012013071182BBDCU27     080BBDCE   /EJ PN      N1000R$  000000000012300000000001320000000000102000000000012200000000001020000000000000000000000000000047000000000000079900000000000009780500000000000268002013091600000010000000000000BRBBDCACNPR8602
012013071182BBDCU28     080BBDCE   /EJ PN      N1000R$  000000000016100000000001620000000000143000000000014700000000001440000000000000000000000000000253000000000000030000000000000004427000000000000278002013091600000010000000000000BRBBDCACNPR8602
012013071182BBDCU29     080BBDCE   /EJ PN      N1000R$  000000000022200000000002220000000000204000000000021600000000002040000000000000000000000000000004000000000000007000000000000001514000000000000288002013091600000010000000000000BRBBDCACNPR8602
012013071182BBDCU30     080BBDCE   /EJ PN      N1000R$  000000000029300000000002940000000000293000000000029300000000002940000000000000000000000000000002000000000000002300000000000000674900000000000298002013091600000010000000000000BRBBDCACNPR8602
012013071182BBDCU31     080BBDCE   /EJ PN      N1000R$  000000000013700000000001370000000000137000000000013700000000001370000000000000000000000000000002000000000000004000000000000000548000000000000273102013091600000010000000000000BRBBDCACNPR8590
012013071182BBDCU33     080BBDCE   /EJ PN      N1000R$  000000000028800000000002890000000000288000000000028800000000002880000000000000000000000000000003000000000000006000000000000001730000000000000297402013091600000010000000000000BRBBDCACNPR8598
012013071182BBDCV26     080BBDCE   /EJ PN      N1000R$  000000000010500000000001050000000000105000000000010500000000001050000000000000000000000000000001000000000000008000000000000000840000000000000260002013102100000010000000000000BRBBDCACNPR8604
012013071112BBFI11B     010FII BB PROGRCI  ER  MB   R$  000000042200000000004250000000000420000000000042286900000004249980000000421001000000042499900016000000000000000057000000000024103557000000000000009999123100000010000000000000BRBBFICTF006196
012013071112BBPO11      010FII BB PRGIICI  ER       R$  000000001093600000000109940000000010880000000001093100000000108800000000010863000000001088000228000000000000013613000000000148804175000000000000009999123100000010000000000000BRBBPOCTF003108
012013071112BBRC11      010FII BB CORP CI  ER       R$  000000000990000000000100000000000009800000000000992700000000100000000000009800000000001000000007000000000000000450000000000004467310000000000000009999123100000010000000000000BRBBRCCTF004122
012013071102BBRK3       010BR BROKERS  ON      NM   R$  000000000056100000000005710000000000549000000000056000000000005710000000000569000000000057103973000000000001396300000000000783217900000000000000009999123100000010000000000000BRBBRKACNOR4108
012013071196BBRK3F      020BR BROKERS  ON      NM   R$  000000000053900000000006450000000000539000000000057100000000005500000000000550000000000075000013000000000000000416000000000000237771000000000000009999123100000010000000000000BRBBRKACNOR4108
012013071102BBSE3       010BBSEGURIDADEON      NM   R$  000000000178000000000017950000000001763000000000177800000000017900000000001783000000000179010952000000000004249400000000007556753200000000000000009999123100000010000000000000BRBBSEACNOR5100
012013071196BBSE3F      020BBSEGURIDADEON      NM   R$  000000000176500000000017930000000001751000000000177600000000017890000000001770000000000178900275000000000000007491000000000013306768000000000000009999123100000010000000000000BRBBSEACNOR5100
012013071102BBTG11      010BTG PACTUAL UNT          R$  000000000285000000000028570000000002811000000000283100000000028300000000002827000000000283001694000000000001604600000000004543218500000000000000009999123100000010000000000000BRBBTGUNT007104
012013071196BBTG11F     020BTG PACTUAL UNT          R$  000000000283000000000028320000000002820000000000282900000000028320000000002832000000000284000009000000000000000204000000000000577268000000000000009999123100000010000000000000BRBBTGUNT007104
012013071162BBTG11T     030BTG PACTUAL UNT       090R$  000000000288900000000028940000000002889000000000288900000000028930000000000000000000000000000006000000000001075400000000003107354931000000000000009999123100000010000000000000BRBBTGUNT007104
012013071112BBVJ11      010FII C JARDIMCI  ER       R$  000000000805000000000080820000000008025000000000805000000000080250000000008016000000000802500022000000000000001830000000000014732359000000000000009999123100000010000000000000BRBBVJCTF001131
012013071112BCFF11B     010FII BC FFII CI  ER  MB   R$  000000000999900000000099990000000009855000000000994600000000099990000000009913000000000999900067000000000000002089000000000020778975000000000000009999123100000010000000000000BRBCFFCTF000140
012013071102BDLL4       010BARDELLA    PN           R$  000000000439400000000045000000000004394000000000444100000000045000000000004244000000000450000004000000000000000400000000000001776500000000000000009999123100000010000000000000BRBDLLACNPR8149
012013071102BEEF3       010MINERVA     ON      NM   R$  000000000090300000000009120000000000881000000000089400000000008950000000000893000000000089502453000000000000838700000000000750096200000000000000009999123100000010000000000000BRBEEFACNOR6104
012013071196BEEF3F      020MINERVA     ON      NM   R$  000000000083100000000009090000000000831000000000086800000000009090000000000900000000000090900006000000000000000199000000000000173057000000000000009999123100000010000000000000BRBEEFACNOR6104
012013071102BEES3       010BANESTES    ON  EJ       R$  000000000004800000000000480000000000048000000000004800000000000480000000000047000000000004800003000000000000020000000000000000960000000000000000009999123100000010000000000000BRBEESACNOR9241
012013071102BEMA3       010BEMATECH    ON      NM   R$  000000000068600000000006940000000000667000000000068300000000006770000000000676000000000067700485000000000000396300000000000270753800000000000000009999123100000010000000000000BRBEMAACNOR0113
012013071102BGIP4       010BANESE      PN  EJ       R$  000000000483000000000048300000000004830000000000483000000000048300000000004830000000000488600001000000000000000100000000000000483000000000000000009999123100000010000000000000BRBGIPACNPR8178
012013071196BGIP4F      020BANESE      PN  EJ       R$  000000000489700000000048970000000004897000000000489700000000048970000000004897000000000530000001000000000000000008000000000000039176000000000000009999123100000010000000000000BRBGIPACNPR8178
012013071102BHGR3       010BHG         ON      NM   R$  000000000144500000000014680000000001418000000000144100000000014400000000001431000000000144000069000000000000287100000000000413742000000000000000009999123100000010000000000000BRBHGRACNOR9101
012013071196BHGR3F      020BHG         ON      NM   R$  000000000145000000000014500000000001446000000000144800000000014460000000001403000000000149900004000000000000000121000000000000175310000000000000009999123100000010000000000000BRBHGRACNOR9101
012013071102BICB4       010BICBANCO    PN      N1   R$  000000000040000000000004050000000000390000000000039700000000004000000000000397000000000040000491000000000000225300000000000089525600000000000000009999123100000010000000000000BRBICBACNPR7131
012013071196BICB4F      020BICBANCO    PN      N1   R$  000000000040000000000004000000000000391000000000039200000000003960000000000393000000000039600009000000000000000088000000000000034564000000000000009999123100000010000000000000BRBICBACNPR7131
012013071102BISA3       010BROOKFIELD  ON      NM   R$  000000000015300000000001560000000000151000000000015200000000001510000000000151000000000015204127000000000006596900000000001003913700000000000000009999123100000010000000000000BRBISAACNOR8109
012013071196BISA3F      020BROOKFIELD  ON      NM   R$  000000000015200000000001580000000000146000000000015000000000001580000000000146000000000015600018000000000000000510000000000000076910000000000000009999123100000010000000000000BRBISAACNOR8109
012013071162BISA3T      030BROOKFIELD  ON      NM060R$  000000000015300000000001540000000000152000000000015300000000001530000000000000000000000000000004000000000000019000000000000002910576000000000000009999123100000010000000000000BRBISAACNOR8109
012013071162BISA3T      030BROOKFIELD  ON      NM090R$  000000000015400000000001550000000000154000000000015400000000001550000000000000000000000000000002000000000001667500000000000258275740000000000000009999123100000010000000000000BRBISAACNOR8109
012013071102BMEB4       010MERC BRASIL PN           R$  000000000111800000000011400000000001118000000000113800000000011400000000001111000000000114000009000000000000011100000000000012635800000000000000009999123100000010000000000000BRBMEBACNPR5190
012013071112BMLC11B     010FII BMBRC LCCI  ER  MB   R$  000000001180000000000118000000000011700000000001178500000000118000000000011700000000001180000032000000000000007111000000000083809800000000000000009999123100000010000000000000BRBMLCCTF004117
012013071102BMTO4       010BRASMOTOR   PN           R$  000000000008700000000000880000000000086000000000008600000000000880000000000085000000000008800004000000000000006000000000000000521000000000000000009999123100000010000000000000BRBMTOACNPR6065
012013071196BMTO4F      020BRASMOTOR   PN           R$  000000000009300000000000930000000000085000000000008700000000000850000000000085000000000008800002000000000000000700000000000000061100000000000000009999123100000010000000000000BRBMTOACNPR6065
012013071102BOAC11B     010BANK AMERICADRN     MB   R$  000000000307500000000030750000000003075000000000307500000000030750000000003020000000000307500002000000000000008100000000000024907500000000000000009999123100000010000000000000BRBOACBDR004111
012013071102BOBR4       010BOMBRIL     PN           R$  000000000070000000000007000000000000700000000000070000000000007000000000000653000000000070000001000000000000000100000000000000070000000000000000009999123100000010000000000000BRBOBRACNPR3127
012013071102BOEI11B     010BOEING      DRN     MB   R$  000000002422900000000242390000000024229000000002423400000000242390000000021500000000002650000002000000000000003200000000000077548800000000000000009999123100000010000000000000BRBOEIBDR003105
012013071114BOVA11      010ISHARES BOVACI           R$  000000000454600000000045870000000004504000000000455400000000045780000000004571000000000457803026000000000002303470000000010491663210000000000000009999123100000010000000000000BRBOVACTF003101
012013071196BOVA11F     020ISHARES BOVACI           R$  000000000440000000000045870000000004305000000000450000000000043050000000004575000000000458700015000000000000000039000000000000175507000000000000009999123100000010000000000000BRBOVACTF003101
012013071182BOVAS41     080BOVAE       CI        000R$  000000000000100000000000010000000000001000000000000100000000000010000000000000000000000000000001000000000000350000000000000000350000000000000410002013071500000010000000000000BRBOVACTF003101
012013071182BOVAS43     080BOVAE       CI        000R$  000000000000300000000000030000000000003000000000000300000000000030000000000000000000000000000001000000000000350000000000000001050000000000000430002013071500000010000000000000BRBOVACTF003101
012013071182BOVAS45     080BOVAE       CI        000R$  000000000002700000000000270000000000027000000000002700000000000270000000000000000000000000000002000000000000350000000000000009450000000000000450002013071500000010000000000000BRBOVACTF003101
012013071182BOVAS47     080BOVAE       CI        000R$  000000000015900000000001590000000000159000000000015900000000001590000000000000000000000000000002000000000000350000000000000055650000000000000470002013071500000010000000000000BRBOVACTF003101
012013071182BOVAS53     080BOVAE       CI        000R$  000000000075500000000007550000000000755000000000075500000000007550000000000000000000000000000001000000000000002500000000000001887500000000000530002013071500000010000000000000BRBOVACTF003101
012013071182BOVAT53     080BOVAE       CI        000R$  000000000070000000000007000000000000700000000000070000000000007000000000000000000000000000000001000000000000002500000000000001750000000000000530002013081900000010000000000000BRBOVACTF003101
012013071112BPFF11      010FII ABSOLUTOCI  ER       R$  000000000850500000000087050000000008500000000000856300000000087050000000008500000000000865000019000000000000001836000000000015722616000000000000009999123100000010000000000000BRBPFFCTF002103
012013071102BPHA3       010BR PHARMA   ON      NM   R$  000000000100900000000010460000000000990000000000101600000000010300000000001028000000000103001711000000000000847200000000000860950500000000000000009999123100000010000000000000BRBPHAACNOR6102
012013071196BPHA3F      020BR PHARMA   ON      NM   R$  000000000100300000000010450000000000991000000000101500000000010450000000000991000000000104500015000000000000000751000000000000762339000000000000009999123100000010000000000000BRBPHAACNOR6102
012013071102BPNM4       010PANAMERICANOPN      N1   R$  000000000052400000000005270000000000513000000000051800000000005150000000000515000000000052000415000000000000255000000000000132118400000000000000009999123100000010000000000000BRBPNMACNPR6111
012013071196BPNM4F      020PANAMERICANOPN      N1   R$  000000000051100000000005110000000000510000000000051000000000005100000000000500000000000051900003000000000000000050000000000000025530000000000000009999123100000010000000000000BRBPNMACNPR6111
012013071102BRAP3       010BRADESPAR   ON      N1   R$  000000000167100000000017600000000001650000000000168000000000017500000000001732000000000175000088000000000001118600000000001879637700000000000000009999123100000010000000000000BRBRAPACNOR5124
012013071196BRAP3F      020BRADESPAR   ON      N1   R$  000000000165100000000016750000000001651000000000165800000000016740000000001674000000000177000008000000000000000187000000000000310083000000000000009999123100000010000000000000BRBRAPACNOR5124
012013071102BRAP4       010BRADESPAR   PN      N1   R$  000000000207200000000021380000000002072000000000210400000000021130000000002113000000000211905569000000000002705000000000005693892600000000000000009999123100000010000000000000BRBRAPACNPR2124
012013071196BRAP4F      020BRADESPAR   PN      N1   R$  000000000203400000000021340000000002032000000000209600000000021250000000002127000000000213300061000000000000001548000000000003248581000000000000009999123100000010000000000000BRBRAPACNPR2124
012013071162BRAP4T      030BRADESPAR   PN      N1060R$  000000000210500000000021060000000002105000000000210500000000021060000000000000000000000000000002000000000000001500000000000003158376000000000000009999123100000010000000000000BRBRAPACNPR2124
012013071182BRAPS50     080BRAPE       PN      N1000R$  000000000001500000000000150000000000015000000000001500000000000150000000000000000000000000000001000000000000010000000000000000150000000000000205002013071500000010000000000000BRBRAPACNPR2124
012013071112BRCR11      010FII BC FUND CI  ER       R$  000000001356000000000136980000000013552000000001359200000000135820000000013582000000001369801733000000000000020534000000000279111062000000000000009999123100000010000000000000BRBRCRCTF000131
012013071102BRFS3       010BRF SA      ON  EJ  NM   R$  000000000483100000000048670000000004783000000000482800000000048300000000004830000000000483906364000000000001955900000000009443613900000000000000009999123100000010000000000000BRBRFSACNOR8110
012013071196BRFS3F      020BRF SA      ON  EJ  NM   R$  000000000480000000000048710000000004674000000000481400000000048370000000004816000000000483700054000000000000001602000000000007714030000000000000009999123100000010000000000000BRBRFSACNOR8110
012013071178BRFSG47     070BRFS    /EJ ON      NM000R$  000000000021300000000002140000000000213000000000021300000000002140000000000000000000000000000002000000000000435000000000000092742000000000000466502013071500000010000000000000BRBRFSACNOR8109
012013071178BRFSH47     070BRFS    /EJ ON      NM000R$  000000000028000000000002800000000000280000000000028000000000002800000000000000000000000000000001000000000000435000000000000121800000000000000470002013081900000010000000000000BRBRFSACNOR8110
012013071178BRFSH50     070BRFS    /EJ ON      NM000R$  000000000007600000000001100000000000076000000000008900000000001080000000000000000000000012000008000000000000011900000000000001062300000000000500002013081900000010000000000000BRBRFSACNOR8110
012013071102BRIN3       010BR INSURANCEON      NM   R$  000000000214000000000021500000000002096000000000213200000000021400000000002125000000000214001329000000000000544700000000001161343800000000000000009999123100000010000000000000BRBRINACNOR3105
012013071196BRIN3F      020BR INSURANCEON      NM   R$  000000000215000000000021940000000002080000000000209300000000020800000000002090000000000228600003000000000000000014000000000000029304000000000000009999123100000010000000000000BRBRINACNOR3105
012013071102BRKM3       010BRASKEM     ON      N1   R$  000000000116400000000012390000000001120000000000116900000000011870000000001138000000000118800095000000000000036000000000000042088100000000000000009999123100000010000000000000BRBRKMACNOR1110
012013071162BRKM3T      030BRASKEM     ON      N1180R$  000000000129200000000012930000000001292000000000129200000000012930000000000000000000000000000002000000000000005000000000000006460972000000000000009999123100000010000000000000BRBRKMACNOR1110
012013071102BRKM5       010BRASKEM     PNA     N1   R$  000000000160800000000016270000000001573000000000160200000000016270000000001620000000000162707380000000000001535300000000002460300100000000000000009999123100000010000000000000BRBRKMACNPA4110
012013071196BRKM5F      020BRASKEM     PNA     N1   R$  000000000160000000000017050000000001560000000000159500000000015900000000001591000000000162400037000000000000001248000000000001991014000000000000009999123100000010000000000000BRBRKMACNPA4110
012013071162BRKM5T      030BRASKEM     PNA     N1032R$  000000000163000000000016340000000001630000000000163200000000016340000000000000000000000000000010000000000000010000000000000016324225000000000000009999123100000010000000000000BRBRKMACNPA4110
012013071162BRKM5T      030BRASKEM     PNA     N1090R$  000000000162900000000016300000000001610000000000162300000000016110000000000000000000000000000004000000000000001500000000000002434805000000000000009999123100000010000000000000BRBRKMACNPA4110
012013071102BRML3       010BR MALLS PARON      NM   R$  000000000191000000000019460000000001891000000000191700000000019320000000001921000000000193211863000000000004458600000000008547644900000000000000009999123100000010000000000000BRBRMLACNOR9105
012013071196BRML3F      020BR MALLS PARON      NM   R$  000000000188900000000019680000000001889000000000191700000000019180000000001923000000000196800081000000000000002765000000000005301867000000000000009999123100000010000000000000BRBRMLACNOR9105
012013071162BRML3T      030BR MALLS PARON      NM032R$  000000000194800000000019490000000001948000000000194800000000019490000000000000000000000000000002000000000000000600000000000001168895000000000000009999123100000010000000000000BRBRMLACNOR9105
012013071162BRML3T      030BR MALLS PARON      NM120R$  000000000198300000000019840000000001983000000000198300000000019840000000000000000000000000000002000000000000001000000000000001983005000000000000009999123100000010000000000000BRBRMLACNOR9105
012013071178BRMLG53     070BRML        ON      NM000R$  000000000000100000000000010000000000001000000000000100000000000010000000000000000000000000000001000000000000001700000000000000001700000000000235002013071500000010000000000000BRBRMLACNOR9105
012013071182BRMLS20     080BRMLE       ON      NM000R$  000000000007800000000000780000000000078000000000007800000000000780000000000000000000000000000001000000000000000600000000000000046800000000000200002013071500000010000000000000BRBRMLACNOR9105
012013071182BRMLS21     080BRMLE       ON      NM000R$  000000000017900000000001790000000000179000000000017900000000001790000000000000000000000000000001000000000000001900000000000000340100000000000210002013071500000010000000000000BRBRMLACNOR9105
012013071182BRMLS51     080BRMLE       ON      NM000R$  000000000022900000000002290000000000229000000000022900000000002290000000000000000000000000000001000000000000001700000000000000389300000000000215002013071500000010000000000000BRBRMLACNOR9105
012013071182BRMLS52     080BRMLE       ON      NM000R$  000000000032700000000003270000000000327000000000032700000000003270000000000000000000000000000001000000000000002100000000000000686700000000000225002013071500000010000000000000BRBRMLACNOR9105
012013071102BRPR3       010BR PROPERT  ON      NM   R$  000000000184100000000019290000000001841000000000189900000000019200000000001920000000000192105946000000000001415200000000002687762600000000000000009999123100000010000000000000BRBRPRACNOR9112
012013071196BRPR3F      020BR PROPERT  ON      NM   R$  000000000183300000000019240000000001832000000000190100000000019160000000001900000000000191600095000000000000002727000000000005184047000000000000009999123100000010000000000000BRBRPRACNOR9112
012013071102BRSR6       010BANRISUL    PNB     N1   R$  000000000137500000000014000000000001375000000000139100000000014000000000001394000000000140003622000000000001406800000000001957468300000000000000009999123100000010000000000000BRBRSRACNPB4133
012013071196BRSR6F      020BANRISUL    PNB     N1   R$  000000000139000000000014000000000001381000000000138600000000013820000000001382000000000147400024000000000000000909000000000001260728000000000000009999123100000010000000000000BRBRSRACNPB4133
012013071102BSEV3       010BIOSEV      ON      NM   R$  000000000126000000000012600000000001250000000000125600000000012500000000001220000000000126000003000000000000000500000000000000628000000000000000009999123100000010000000000000BRBSEVACNOR3100
012013071102BTOW3       010B2W DIGITAL ON      NM   R$  000000000089300000000009180000000000887000000000090300000000009150000000000912000000000091501736000000000000630300000000000569762700000000000000009999123100000010000000000000BRBTOWACNOR8105
012013071196BTOW3F      020B2W DIGITAL ON      NM   R$  000000000080100000000009200000000000801000000000089400000000009200000000000825000000000092000026000000000000000501000000000000448368000000000000009999123100000010000000000000BRBTOWACNOR8105
012013071162BTOW3T      030B2W DIGITAL ON      NM030R$  000000000091100000000009120000000000911000000000091100000000009120000000000000000000000000000002000000000000010000000000000009110736000000000000009999123100000010000000000000BRBTOWACNOR8105
012013071102BTTL4       010BATTISTELLA PN           R$  000000000009700000000000980000000000094000000000009600000000000980000000000094000000000009800010000000000000013200000000000001278700000000000000009999123100000010000000000000BRBTTLACNPR7105
012013071102BVMF3       010BMFBOVESPA  ON      NM   R$  000000000126500000000013040000000001265000000000129200000000012950000000001294000000000129530848000000000011546200000000014920286100000000000000009999123100000010000000000000BRBVMFACNOR3125
012013071196BVMF3F      020BMFBOVESPA  ON      NM   R$  000000000125000000000013030000000001250000000000128500000000012920000000001277000000000129200115000000000000004346000000000005583946000000000000009999123100000010000000000000BRBVMFACNOR3125
012013071162BVMF3T      030BMFBOVESPA  ON      NM120R$  000000000132200000000013230000000001322000000000132200000000013230000000000000000000000000000002000000000000002000000000000002645544000000000000009999123100000010000000000000BRBVMFACNOR3125
012013071138BVMFG10E    012BVMF        ON      NM000R$  000000000098900000000009890000000000989000000000098900000000009890000000000000000000000000000001000000000000002400000000000002373600000000000098902013071500000010000000000000BRBVMFACNOR3125
012013071178BVMFG11     070BVMF        ON      NM000R$  000000000019000000000002020000000000184000000000019100000000001960000000000115000000000019900009000000000000003100000000000000593700000000000110002013071500000010000000000000BRBVMFACNOR3125
012013071138BVMFG11E    012BVMF        ON      NM000R$  000000000110000000000011000000000001100000000000110000000000011000000000000000000000000000000001000000000000000500000000000000550000000000000110002013071500000010000000000000BRBVMFACNOR3125
012013071178BVMFG12     070BVMF        ON      NM000R$  000000000008900000000001180000000000089000000000011000000000001150000000000102000000000011700174000000000000178300000000000019760300000000000118902013071500000010000000000000BRBVMFACNOR3124
012013071178BVMFG13     070BVMF        ON      NM000R$  000000000001100000000000410000000000011000000000002800000000000320000000000032000000000004000479000000000000957300000000000027710000000000000126902013071500000010000000000000BRBVMFACNOR3123
012013071178BVMFG14     070BVMF        ON      NM000R$  000000000000100000000000010000000000001000000000000100000000000010000000000000000000000000100010000000000000064300000000000000064300000000000136902013071500000010000000000000BRBVMFACNOR3123
012013071178BVMFG15     070BVMF        ON      NM000R$  000000000000100000000000010000000000001000000000000100000000000010000000000000000000000000100002000000000000004200000000000000004200000000000148902013071500000010000000000000BRBVMFACNOR3124
012013071178BVMFG41     070BVMF        ON      NM000R$  000000000012900000000001520000000000129000000000013900000000001520000000000000000000000000000011000000000000004500000000000000627800000000000115002013071500000010000000000000BRBVMFACNOR3125
012013071178BVMFG42     070BVMF        ON      NM000R$  000000000007000000000000880000000000070000000000008200000000000790000000000000000000000000000145000000000000094400000000000007760200000000000121902013071500000010000000000000BRBVMFACNOR3123
012013071178BVMFG43     070BVMF        ON      NM000R$  000000000000300000000000030000000000003000000000000300000000000030000000000002000000000000000007000000000000019200000000000000057600000000000133902013071500000010000000000000BRBVMFACNOR3124
012013071178BVMFG45     070BVMF        ON      NM000R$  000000000000100000000000010000000000001000000000000100000000000010000000000000000000000000100002000000000000003200000000000000003200000000000153902013071500000010000000000000BRBVMFACNOR3124
012013071178BVMFG49     070BVMF        ON      NM000R$  000000000000100000000000010000000000001000000000000100000000000010000000000000000000000000000001000000000000001000000000000000001000000000000140002013071500000010000000000000BRBVMFACNOR3125
012013071178BVMFG50     070BVMF        ON      NM000R$  000000000001200000000000150000000000012000000000001300000000000140000000000000000000000000000008000000000000046700000000000000635400000000000130002013071500000010000000000000BRBVMFACNOR3125
012013071178BVMFH1      070BVMFE       ON      NM000R$  000000000004000000000000420000000000040000000000004000000000000410000000000003000000000000000010000000000000032600000000000001332800000000000132502013081900000010000000000000BRBVMFACNOR3125
012013071178BVMFH11     070BVMF        ON      NM000R$  000000000021500000000002150000000000215000000000021500000000002150000000000065000000000000000001000000000000000500000000000000107500000000000110002013081900000010000000000000BRBVMFACNOR3125
012013071178BVMFH12     070BVMF  FM    ON      NM000R$  000000000011400000000001330000000000107000000000011900000000001220000000000115000000000012900235000000000000470500000000000056345200000000000120002013081900000010000000000000BRBVMFACNOR3125
012013071178BVMFH13     070BVMF  FM    ON      NM000R$  000000000004900000000000650000000000045000000000005500000000000620000000000056000000000006300351000000000000596300000000000032884300000000000128902013081900000010000000000000BRBVMFACNOR3124
012013071178BVMFH14     070BVMF  FM    ON      NM000R$  000000000001300000000000170000000000009000000000001300000000000140000000000013000000000001400397000000000003404700000000000047134400000000000138902013081900000010000000000000BRBVMFACNOR3124
012013071178BVMFH15     070BVMF        ON      NM000R$  000000000000400000000000040000000000004000000000000400000000000040000000000003000000000000400004000000000000005800000000000000023200000000000150002013081900000010000000000000BRBVMFACNOR3125
012013071178BVMFH40     070BVMF        ON      NM000R$  000000000025500000000002600000000000251000000000025200000000002600000000000000000000000026900010000000000000004900000000000001237300000000000105002013081900000010000000000000BRBVMFACNOR3125
012013071178BVMFH41     070BVMF        ON      NM000R$  000000000017100000000001710000000000171000000000017100000000001710000000000000000000000000000001000000000000006000000000000001026000000000000115002013081900000010000000000000BRBVMFACNOR3125
012013071178BVMFH42     070BVMF  FM    ON      NM000R$  000000000007400000000000880000000000071000000000007800000000000880000000000000000000000000000026000000000000068600000000000005367900000000000125002013081900000010000000000000BRBVMFACNOR3125
012013071178BVMFH43     070BVMF  FM    ON      NM000R$  000000000002400000000000310000000000017000000000002600000000000280000000000005000000000135000297000000000000276300000000000007360500000000000135002013081900000010000000000000BRBVMFACNOR3125
012013071178BVMFI12     070BVMF  FM    ON      NM000R$  000000000013000000000001420000000000130000000000013500000000001410000000000000000000000000000008000000000000031500000000000004261500000000000120002013091600000010000000000000BRBVMFACNOR3125
012013071178BVMFI13     070BVMF  FM    ON      NM000R$  000000000006500000000000840000000000057000000000006700000000000840000000000024000000000008400209000000000000245500000000000016493900000000000130002013091600000010000000000000BRBVMFACNOR3125
012013071178BVMFI14     070BVMF        ON      NM000R$  000000000002600000000000310000000000026000000000002800000000000300000000000002000000000003200069000000000000207600000000000006008200000000000140002013091600000010000000000000BRBVMFACNOR3125
012013071178BVMFI15     070BVMF        ON      NM000R$  000000000001000000000000100000000000010000000000001000000000000100000000000000000000000001100001000000000000000200000000000000002000000000000150002013091600000010000000000000BRBVMFACNOR3125
012013071178BVMFI42     070BVMF  FM    ON      NM000R$  000000000009900000000000990000000000098000000000009800000000000980000000000000000000000000000002000000000000007500000000000000739000000000000125002013091600000010000000000000BRBVMFACNOR3125
012013071178BVMFI43     070BVMF  FM    ON      NM000R$  000000000004500000000000490000000000033000000000003900000000000480000000000000000000000000000055000000000000176700000000000007012300000000000135002013091600000010000000000000BRBVMFACNOR3125
012013071178BVMFI44     070BVMF        ON      NM000R$  000000000001200000000000120000000000011000000000001100000000000110000000000000000000000000000006000000000000024000000000000000282000000000000145002013091600000010000000000000BRBVMFACNOR3125
012013071178BVMFI45     070BVMF        ON      NM000R$  000000000000400000000000040000000000004000000000000400000000000040000000000000000000000000000005000000000000022000000000000000088000000000000155002013091600000010000000000000BRBVMFACNOR3125
012013071178BVMFJ15     070BVMF        ON      NM000R$  000000000001600000000000160000000000016000000000001600000000000160000000000015000000000002700001000000000000001000000000000000016000000000000150002013102100000010000000000000BRBVMFACNOR3125
012013071178BVMFK14     070BVMF        ON      NM000R$  000000000006000000000000600000000000060000000000006000000000000600000000000000000000000006200001000000000000000100000000000000006000000000000140002013111800000010000000000000BRBVMFACNOR3125
012013071178BVMFK15     070BVMF        ON      NM000R$  000000000002500000000000280000000000025000000000002500000000000280000000000000000000000003000003000000000000000600000000000000015300000000000150002013111800000010000000000000BRBVMFACNOR3125
012013071178BVMFL14     070BVMF        ON      NM000R$  000000000007300000000000730000000000073000000000007300000000000730000000000000000000000000000001000000000000001800000000000000131400000000000138902013121600000010000000000000BRBVMFACNOR3124
012013071182BVMFS11     080BVMFE       ON      NM000R$  000000000000100000000000010000000000001000000000000100000000000010000000000000000000000000100003000000000000002200000000000000002200000000000110002013071500000010000000000000BRBVMFACNOR3125
012013071182BVMFS12     080BVMFE       ON      NM000R$  000000000000100000000000010000000000001000000000000100000000000010000000000000000000000000500007000000000000004700000000000000004700000000000118902013071500000010000000000000BRBVMFACNOR3124
012013071182BVMFS13     080BVMFE       ON      NM000R$  000000000001500000000000150000000000005000000000000700000000000090000000000004000000000000900096000000000000116200000000000000897500000000000126902013071500000010000000000000BRBVMFACNOR3123
012013071182BVMFS14     080BVMFE       ON      NM000R$  000000000008000000000000800000000000075000000000007700000000000750000000000064000000000000000004000000000000006500000000000000504000000000000136902013071500000010000000000000BRBVMFACNOR3123
012013071182BVMFS15     080BVMFE       ON      NM000R$  000000000020900000000002090000000000209000000000020900000000002090000000000000000000000000000001000000000000000100000000000000020900000000000148902013071500000010000000000000BRBVMFACNOR3124
012013071182BVMFS3      080BVMFE       ON      NM000R$  000000000004900000000000490000000000049000000000004900000000000490000000000000000000000000000003000000000000010900000000000000534100000000000134902013071500000010000000000000BRBVMFACNOR3124
012013071182BVMFS43     080BVMFE       ON      NM000R$  000000000005400000000000540000000000040000000000004500000000000400000000000000000000000000000005000000000000019700000000000000900200000000000133902013071500000010000000000000BRBVMFACNOR3124
012013071182BVMFS50     080BVMFE       ON      NM000R$  000000000001800000000000180000000000013000000000001500000000000130000000000000000000000000000004000000000000012400000000000000197200000000000130002013071500000010000000000000BRBVMFACNOR3125
012013071182BVMFT11     080BVMFE       ON      NM000R$  000000000000800000000000080000000000008000000000000800000000000080000000000001000000000007500001000000000000001800000000000000014400000000000110002013081900000010000000000000BRBVMFACNOR3125
012013071182BVMFT12     080BVMFE FM    ON      NM000R$  000000000001900000000000220000000000018000000000002000000000000200000000000017000000000004900091000000000000264800000000000005432200000000000120002013081900000010000000000000BRBVMFACNOR3125
012013071182BVMFT13     080BVMFE FM    ON      NM000R$  000000000004400000000000490000000000040000000000004300000000000430000000000038000000000004300044000000000002667000000000000114862300000000000128902013081900000010000000000000BRBVMFACNOR3124
012013071182BVMFT14     080BVMFE       ON      NM000R$  000000000011400000000001140000000000092000000000010200000000000940000000000000000000000012400004000000000000012000000000000001233000000000000138902013081900000010000000000000BRBVMFACNOR3124
012013071182BVMFT41     080BVMFE FM    ON      NM000R$  000000000001100000000000160000000000011000000000001300000000000120000000000000000000000000000057000000000000177200000000000002350600000000000115002013081900000010000000000000BRBVMFACNOR3125
012013071182BVMFT42     080BVMFE FM    ON      NM000R$  000000000003100000000000350000000000030000000000003200000000000320000000000000000000000000000035000000000000111300000000000003569200000000000125002013081900000010000000000000BRBVMFACNOR3125
012013071182BVMFT62     080BVMFE       ON      NM000R$  000000000002300000000000230000000000023000000000002300000000000230000000000023000000000000000005000000000002555200000000000058769600000000000122502013081900000010000000000000BRBVMFACNOR3125
012013071182BVMFU11     080BVMFE       ON      NM000R$  000000000001200000000000120000000000012000000000001200000000000120000000000000000000000000000002000000000000012000000000000000144000000000000110002013091600000010000000000000BRBVMFACNOR3125
012013071182BVMFU12     080BVMFE FM    ON      NM000R$  000000000003600000000000360000000000026000000000002800000000000260000000000025000000000000000020000000000000026700000000000000754200000000000120002013091600000010000000000000BRBVMFACNOR3125
012013071182BVMFU13     080BVMFE FM    ON      NM000R$  000000000006300000000000630000000000055000000000006000000000000550000000000057000000000000000122000000000000113700000000000006917000000000000130002013091600000010000000000000BRBVMFACNOR3125
012013071182BVMFU14     080BVMFE       ON      NM000R$  000000000011000000000001100000000000110000000000011000000000001100000000000000000000000000000001000000000000004600000000000000506000000000000140002013091600000010000000000000BRBVMFACNOR3125
012013071182BVMFU40     080BVMFE       ON      NM000R$  000000000000800000000000080000000000008000000000000800000000000080000000000000000000000000000001000000000000005000000000000000040000000000000105002013091600000010000000000000BRBVMFACNOR3125
012013071182BVMFU41     080BVMFE FM    ON      NM000R$  000000000001900000000000190000000000017000000000001700000000000170000000000000000000000000000006000000000000017500000000000000311500000000000115002013091600000010000000000000BRBVMFACNOR3125
012013071182BVMFU42     080BVMFE FM    ON      NM000R$  000000000004500000000000450000000000041000000000004200000000000420000000000000000000000000000030000000000000099700000000000004260500000000000125002013091600000010000000000000BRBVMFACNOR3125
012013071196CALI4F      020CONST A LINDPN           R$  000000000990000000000099000000000009900000000000990000000000099000000000009900000000002499900002000000000000000004000000000000039600000000000000009999123100000010000000000000BRCALIACNPR8131
012013071102CARD3       010CSU CARDSYSTON      NM   R$  000000000029200000000003000000000000292000000000029700000000003000000000000284000000000030000023000000000000033500000000000009955400000000000000009999123100000010000000000000BRCARDACNOR9105
012013071102CBMA3       010COBRASMA    ON           R$  000000000000500000000000050000000000005000000000000500000000000050000000000005000000000000600002000000000000020000000000000000100000000000000000009999123100000010000000000000BRCBMAACNOR4124
012013071196CBMA3F      020COBRASMA    ON           R$  000000000000400000000000040000000000004000000000000400000000000040000000000004000000000000500003000000000000003665000000000000014660000000000000009999123100000010000000000000BRCBMAACNOR4124
012013071102CBMA4       010COBRASMA    PN           R$  000000000000400000000000040000000000004000000000000400000000000040000000000003000000000000400002000000000000020000000000000000080000000000000000009999123100000010000000000000BRCBMAACNPR1124
012013071108CCHI3       010CHIARELLI   ON           R$  000000000002600000000000270000000000025000000000002600000000000260000000000025000000000002600020000000000000260000000000000006850000000000000000009999123100000010000000000000BRCCHIACNOR5123
012013071196CCHI3F      020CHIARELLI   ON           R$  000000000002600000000000260000000000022000000000002400000000000220000000000022000000000002600014000000000000009698000000000000233255000000000000009999123100000010000000000000BRCCHIACNOR5123
012013071108CCHI4       010CHIARELLI   PN           R$  000000000002000000000000210000000000018000000000001900000000000210000000000018000000000002200003000000000000030000000000000000590000000000000000009999123100000010000000000000BRCCHIACNPR2122
012013071196CCHI4F      020CHIARELLI   PN           R$  000000000001900000000000190000000000019000000000001900000000000190000000000017000000000001900003000000000000001910000000000000036290000000000000009999123100000010000000000000BRCCHIACNPR2122
012013071102CCPR3       010CYRE COM-CCPON      NM   R$  000000000202000000000021190000000002020000000000209300000000020260000000002026000000000210000024000000000000004600000000000009628400000000000000009999123100000010000000000000BRCCPRACNOR9107
012013071196CCPR3F      020CYRE COM-CCPON      NM   R$  000000000206000000000020600000000001935000000000204400000000019350000000001937000000000208000002000000000000000089000000000000181965000000000000009999123100000010000000000000BRCCPRACNOR9107
012013071102CCRO3       010CCR SA      ON      NM   R$  000000000170800000000017210000000001677000000000170200000000017190000000001714000000000171912804000000000005975400000000010176054700000000000000009999123100000010000000000000BRCCROACNOR2122
012013071196CCRO3F      020CCR SA      ON      NM   R$  000000000166400000000017490000000001664000000000169500000000017490000000001692000000000174900071000000000000001843000000000003125509000000000000009999123100000010000000000000BRCCROACNOR2122
012013071178CCROG47     070CCRO        ON      NM000R$  000000000000200000000000020000000000002000000000000200000000000020000000000000000000000000000001000000000000003200000000000000006400000000000175002013071500000010000000000000BRCCROACNOR2122
012013071178CCROG49     070CCRO        ON      NM000R$  000000000000100000000000010000000000001000000000000100000000000010000000000000000000000000000001000000000000002000000000000000002000000000000195002013071500000010000000000000BRCCROACNOR2122
012013071182CCROS47     080CCROE       ON      NM000R$  000000000005700000000000570000000000057000000000005700000000000570000000000000000000000000000001000000000000002100000000000000119700000000000175002013071500000010000000000000BRCCROACNOR2122
012013071182CCROS48     080CCROE       ON      NM000R$  000000000015600000000001560000000000156000000000015600000000001560000000000000000000000000000001000000000000002000000000000000312000000000000185002013071500000010000000000000BRCCROACNOR2122
012013071102CCXC3       010CCX CARVAO  ON      NM   R$  000000000008000000000000820000000000078000000000007900000000000800000000000080000000000008100197000000000001409700000000000112448000000000000000009999123100000010000000000000BRCCXCACNOR5100
012013071196CCXC3F      020CCX CARVAO  ON      NM   R$  000000000007800000000000810000000000072000000000007900000000000770000000000077000000000008100006000000000000000164000000000000012975000000000000009999123100000010000000000000BRCCXCACNOR5100
012013071102CEDO4       010CEDRO       PN      N1   R$  000000000093000000000009390000000000930000000000093400000000009390000000000700000000000093800002000000000000000200000000000000186900000000000000009999123100000010000000000000BRCEDOACNPR5126
012013071108CELP3       010CELPA       ON           R$  000000000005900000000000600000000000059000000000005900000000000600000000000056000000000006000008000000000000022900000000000001354900000000000000009999123100000010000000000000BRCELPACNOR8112
012013071112CEOC11B     010FII CEO CCP CI  ER  MB   R$  000000000882000000000089000000000008819000000000888400000000088900000000008851000000000889000014000000000000001317000000000011701214000000000000009999123100000010000000000000BRCEOCCTF003108
012013071102CESP3       010CESP        ON      N1   R$  000000000164000000000016500000000001625000000000163100000000016290000000001570000000000162900015000000000000002200000000000003590200000000000000009999123100000010000000000000BRCESPACNOR3159
012013071102CESP6       010CESP        PNB     N1   R$  000000000193900000000019700000000001897000000000193600000000019550000000001948000000000196002800000000000000581800000000001126904100000000000000009999123100000010000000000000BRCESPACNPB4118
012013071196CESP6F      020CESP        PNB     N1   R$  000000000195000000000019610000000001866000000000192700000000019500000000001930000000000197700027000000000000000808000000000001557769000000000000009999123100000010000000000000BRCESPACNPB4118
012013071162CESP6T      030CESP        PNB     N1090R$  000000000196400000000019650000000001958000000000196300000000019590000000000000000000000000000004000000000000007000000000000013741544000000000000009999123100000010000000000000BRCESPACNPB4118
012013071102CGAS3       010COMGAS      ON           R$  000000000456000000000046000000000004560000000000459100000000045900000000004200000000000459000004000000000000000600000000000002755000000000000000009999123100000010000000000000BRCGASACNOR0132
012013071102CGAS5       010COMGAS      PNA          R$  000000000498300000000050000000000004949000000000499000000000050000000000004953000000000500000078000000000000029100000000000145226500000000000000009999123100000010000000000000BRCGASACNPA3129
012013071196CGAS5F      020COMGAS      PNA          R$  000000000499000000000051460000000004900000000000499800000000049000000000004803000000000490000004000000000000000166000000000000829768000000000000009999123100000010000000000000BRCGASACNPA3129
012013071102CGRA3       010GRAZZIOTIN  ON           R$  000000000151000000000015640000000001484000000000150800000000014940000000001494000000000150500037000000000000006800000000000010258800000000000000009999123100000010000000000000BRCGRAACNOR2061
012013071102CGRA4       010GRAZZIOTIN  PN           R$  000000000155200000000016080000000001552000000000158800000000015810000000001581000000000158400083000000000000019500000000000030975300000000000000009999123100000010000000000000BRCGRAACNPR9061
012013071196CGRA4F      020GRAZZIOTIN  PN           R$  000000000159000000000015900000000001590000000000159000000000015900000000001432000000000159000001000000000000000027000000000000042930000000000000009999123100000010000000000000BRCGRAACNPR9061
012013071102CHVX11B     010CHEVRON     DRN     MB   R$  000000002796900000000279750000000027969000000002797200000000279750000000027695000000002880200002000000000000001600000000000044755200000000000000009999123100000010000000000000BRCHVXBDR008108
012013071102CIEL3       010CIELO       ON      NM   R$  000000000556500000000056450000000005524000000000558200000000056270000000005620000000000562707320000000000001874100000000010461772800000000000000009999123100000010000000000000BRCIELACNOR3111
012013071196CIEL3F      020CIELO       ON      NM   R$  000000000556000000000056330000000005500000000000558000000000056000000000005575000000000560000132000000000000003508000000000019576574000000000000009999123100000010000000000000BRCIELACNOR3111
012013071162CIEL3T      030CIELO       ON      NM032R$  000000000560400000000056190000000005604000000000560800000000056070000000000000000000000000000018000000000000150000000000000841311401000000000000009999123100000010000000000000BRCIELACNOR3111
012013071162CIEL3T      030CIELO       ON      NM120R$  000000000577500000000057760000000005775000000000577500000000057760000000000000000000000000000002000000000000000400000000000002310221000000000000009999123100000010000000000000BRCIELACNOR3111
012013071102CLSC3       010CELESC      ON      N2   R$  000000000400000000000040000000000004000000000000400000000000040000000000000000000000000450000002000000000000241000000000000964000000000000000000009999123100000010000000000000BRCLSCACNOR6128
012013071102CLSC4       010CELESC      PN      N2   R$  000000000191500000000019150000000001851000000000186800000000018510000000001851000000000188000144000000000000032800000000000061272700000000000000009999123100000010000000000000BRCLSCACNPR3107
012013071196CLSC4F      020CELESC      PN      N2   R$  000000000190000000000019000000000001802000000000186800000000018020000000001801000000000211800002000000000000000037000000000000069124000000000000009999123100000010000000000000BRCLSCACNPR3107
012013071102CMCS11B     010COMCAST     DRN ED  MB   R$  000000001006700000000100780000000010067000000001007200000000100780000000008800000000001080000002000000000000004600000000000046333500000000000000009999123100000010000000000000BRCMCSBDR008106
012013071102CMIG3       010CEMIG       ON      N1   R$  000000000201500000000020820000000002015000000000203800000000020270000000002027000000000203500638000000000000165300000000000336979700000000000000009999123100000010000000000000BRCMIGACNOR6208
012013071196CMIG3F      020CEMIG       ON      N1   R$  000000000205600000000020590000000001981000000000203600000000020500000000002025000000000205800021000000000000000493000000000001003864000000000000009999123100000010000000000000BRCMIGACNOR6208
012013071102CMIG4       010CEMIG       PN      N1   R$  000000000204900000000020820000000002028000000000205600000000020700000000002066000000000207008657000000000003103500000000006383792500000000000000009999123100000010000000000000BRCMIGACNPR3208
012013071196CMIG4F      020CEMIG       PN      N1   R$  000000000205100000000020750000000002030000000000205300000000020700000000002069000000000207000146000000000000004355000000000008944741000000000000009999123100000010000000000000BRCMIGACNPR3208
012013071162CMIG4T      030CEMIG       PN      N1090R$  000000000211900000000021200000000002119000000000211900000000021200000000000000000000000000000002000000000000002800000000000005935238000000000000009999123100000010000000000000BRCMIGACNPR3208
012013071162CMIG4T      030CEMIG       PN      N1120R$  000000000212400000000021250000000002124000000000212400000000021250000000000000000000000000000002000000000000001100000000000002337113000000000000009999123100000010000000000000BRCMIGACNPR3208
012013071162CMIG4T      030CEMIG       PN      N1180R$  000000000217300000000021740000000002173000000000217300000000021740000000000000000000000000000002000000000000001000000000000002173396000000000000009999123100000010000000000000BRCMIGACNPR3208
012013071178CMIGH22     070CMIG        PN      N1000R$  000000000003000000000000300000000000027000000000002900000000000270000000000005000000000005000002000000000000001500000000000000043500000000000220002013081900000010000000000000BRCMIGACNPR3208
012013071112CNES11B     010FII CENESP  CI      MB   R$  000000001220000000000122800000000012200000000001225300000000122800000000012050000000001228000014000000000000000414000000000005072870000000000000009999123100000010000000000000BRCNESCTF001123
012013071102COCA11B     010COCA COLA   DRN     MB   R$  000000000932300000000093230000000009318000000000932000000000093180000000009189000000000940000003000000000000002300000000000021436900000000000000009999123100000010000000000000BRCOCABDR002108
012013071102COCE3       010COELCE      ON           R$  000000000393800000000039960000000003850000000000392900000000039890000000003850000000000398900013000000000000002300000000000009036900000000000000009999123100000010000000000000BRCOCEACNOR0132
012013071102COCE5       010COELCE      PNA          R$  000000000373700000000038000000000003722000000000373000000000038000000000003782000000000380000306000000000000518200000000001933361000000000000000009999123100000010000000000000BRCOCEACNPA3133
012013071196COCE5F      020COELCE      PNA          R$  000000000378900000000040930000000003729000000000376200000000038090000000003781000000000409400025000000000000000490000000000001843745000000000000009999123100000010000000000000BRCOCEACNPA3133
012013071162COCE5T      030COELCE      PNA       032R$  000000000382500000000038260000000003824000000000382500000000038260000000000000000000000000000012000000000000004400000000000016831520000000000000009999123100000010000000000000BRCOCEACNPA3133
012013071102CPFE3       010CPFL ENERGIAON      NM   R$  000000000208200000000021120000000002062000000000207800000000020950000000002077000000000209505384000000000000983600000000002044177800000000000000009999123100000010000000000000BRCPFEACNOR0121
012013071196CPFE3F      020CPFL ENERGIAON      NM   R$  000000000210300000000021720000000001921000000000207300000000021280000000002080000000000217200029000000000000000692000000000001434932000000000000009999123100000010000000000000BRCPFEACNOR0121
012013071102CPLE3       010COPEL       ON      N1   R$  000000000234800000000023480000000002263000000000226900000000023140000000002293000000000231400055000000000000303500000000000688700300000000000000009999123100000010000000000000BRCPLEACNOR8128
012013071196CPLE3F      020COPEL       ON      N1   R$  000000000229100000000023000000000002291000000000229100000000023000000000002230000000000000000002000000000000000050000000000000114595000000000000009999123100000010000000000000BRCPLEACNOR8128
012013071102CPLE6       010COPEL       PNB     N1   R$  000000000300700000000030320000000002908000000000295300000000029700000000002967000000000297003026000000000000759300000000002242808000000000000000009999123100000010000000000000BRCPLEACNPB9125
012013071196CPLE6F      020COPEL       PNB     N1   R$  000000000300500000000030050000000002904000000000296200000000029730000000002912000000000299700036000000000000001238000000000003667948000000000000009999123100000010000000000000BRCPLEACNPB9125
012013071102CRDE3       010CR2         ON      NM   R$  000000000040800000000004100000000000406000000000040800000000004100000000000404000000000041300003000000000000009000000000000003672000000000000000009999123100000010000000000000BRCRDEACNOR1108
012013071102CREM3       010CREMER      ON      NM   R$  000000000139000000000014600000000001376000000000140100000000014020000000001402000000000146500024000000000000008300000000000011628700000000000000009999123100000010000000000000BRCREMACNOR2166
012013071196CREM3F      020CREMER      ON      NM   R$  000000000135000000000013590000000001284000000000132300000000012840000000001285000000000150000003000000000000000122000000000000161478000000000000009999123100000010000000000000BRCREMACNOR2166
012013071102CRIV4       010ALFA FINANC PN           R$  000000000049100000000004910000000000475000000000048800000000004900000000000481000000000049000010000000000000002400000000000001171200000000000000009999123100000010000000000000BRCRIVACNPR1189
012013071102CRUZ3       010SOUZA CRUZ  ON           R$  000000000277100000000028180000000002742000000000278000000000027950000000002795000000000279903600000000000001182100000000003286339800000000000000009999123100000010000000000000BRCRUZACNOR0246
012013071196CRUZ3F      020SOUZA CRUZ  ON           R$  000000000275100000000028140000000002721000000000276300000000028050000000002761000000000280500041000000000000000897000000000002481217000000000000009999123100000010000000000000BRCRUZACNOR0246
012013071178CRUZH30     070CRUZ        ON        000R$  000000000000600000000000060000000000005000000000000500000000000050000000000000000000000003500002000000000000700000000000000003850000000000000300002013081900000010000000000000BRCRUZACNOR0246
012013071178CRUZH58     070CRUZ        ON        000R$  000000000003700000000000370000000000037000000000003700000000000370000000000000000000000000000002000000000000700000000000000025900000000000000285002013081900000010000000000000BRCRUZACNOR0246
012013071102CSAB4       010SEG AL BAHIAPN           R$  000000000300000000000030000000000003000000000000300000000000030000000000003000000000000000000001000000000000000200000000000000600000000000000000009999123100000010000000000000BRCSABACNPR8051
012013071102CSAN3       010COSAN       ON      NM   R$  000000000422000000000043890000000004208000000000430600000000043800000000004375000000000438005349000000000001001400000000004312168200000000000000009999123100000010000000000000BRCSANACNOR6107
012013071196CSAN3F      020COSAN       ON      NM   R$  000000000421200000000043800000000004177000000000429300000000043490000000004315000000000439700043000000000000001164000000000005001118000000000000009999123100000010000000000000BRCSANACNOR6107
012013071102CSCO11B     010CISCO       DRN ED  MB   R$  000000000589700000000058970000000005897000000000589700000000058970000000005200000000000640000001000000000000002200000000000012973400000000000000009999123100000010000000000000BRCSCOBDR004110
012013071102CSMG3       010COPASA      ON      NM   R$  000000000343300000000035180000000003405000000000346400000000034280000000003428000000000344002574000000000000390500000000001352720000000000000000009999123100000010000000000000BRCSMGACNOR5127
012013071196CSMG3F      020COPASA      ON      NM   R$  000000000345400000000035000000000003351000000000346500000000034580000000003400000000000374000020000000000000000499000000000001729364000000000000009999123100000010000000000000BRCSMGACNOR5127
012013071102CSNA3       010SID NACIONALON           R$  000000000056200000000005950000000000561000000000058100000000005910000000000590000000000059112478000000000008609200000000005003667200000000000000009999123100000010000000000000BRCSNAACNOR6242
012013071196CSNA3F      020SID NACIONALON           R$  000000000055900000000005940000000000559000000000057900000000005830000000000583000000000059400077000000000000002400000000000001390433000000000000009999123100000010000000000000BRCSNAACNOR6242
012013071162CSNA3T      030SID NACIONALON        032R$  000000000059400000000005950000000000585000000000059200000000005860000000000000000000000000000006000000000000022000000000000013029121000000000000009999123100000010000000000000BRCSNAACNOR6242
012013071162CSNA3T      030SID NACIONALON        060R$  000000000059800000000005990000000000598000000000059800000000005990000000000000000000000000000002000000000000001000000000000000598565000000000000009999123100000010000000000000BRCSNAACNOR6242
012013071162CSNA3T      030SID NACIONALON        090R$  000000000058500000000006040000000000585000000000059700000000006040000000000000000000000000000010000000000000040700000000000024332914000000000000009999123100000010000000000000BRCSNAACNOR6242
012013071162CSNA3T      030SID NACIONALON        180R$  000000000060600000000006150000000000606000000000061200000000006150000000000000000000000000000004000000000000002500000000000001531641000000000000009999123100000010000000000000BRCSNAACNOR6242
012013071178CSNAG54     070CSNA        ON        000R$  000000000004900000000000490000000000049000000000004900000000000490000000000000000000000000000001000000000000000800000000000000039200000000000054002013071500000010000000000000BRCSNAACNOR6242
012013071178CSNAG58     070CSNA        ON        000R$  000000000000900000000000240000000000009000000000001400000000000240000000000013000000000002500029000000000000165200000000000002371500000000000058002013071500000010000000000000BRCSNAACNOR6242
012013071178CSNAG6      070CSNA        ON        000R$  000000000000200000000000050000000000002000000000000200000000000040000000000002000000000004900014000000000000088700000000000000216100000000000060002013071500000010000000000000BRCSNAACNOR6242
012013071178CSNAG64     070CSNA        ON        000R$  000000000000100000000000010000000000001000000000000100000000000010000000000000000000000000100001000000000000000100000000000000000100000000000064002013071500000010000000000000BRCSNAACNOR6242
012013071178CSNAG7      070CSNA        ON        000R$  000000000000100000000000010000000000001000000000000100000000000010000000000000000000000000100003000000000000021000000000000000021000000000000070002013071500000010000000000000BRCSNAACNOR6242
012013071178CSNAH54     070CSNA  FM    ON        000R$  000000000005300000000000530000000000051000000000005200000000000510000000000000000000000000000010000000000000020400000000000001064400000000000054002013081900000010000000000000BRCSNAACNOR6242
012013071178CSNAH56     070CSNA  FM    ON        000R$  000000000004000000000000400000000000040000000000004000000000000400000000000000000000000000000002000000000000004500000000000000180000000000000056002013081900000010000000000000BRCSNAACNOR6242
012013071178CSNAH58     070CSNA  FM    ON        000R$  000000000003800000000000380000000000038000000000003800000000000380000000000000000000000000000003000000000000006000000000000000228000000000000058002013081900000010000000000000BRCSNAACNOR6242
012013071178CSNAH6      070CSNA  FM    ON        000R$  000000000001600000000000280000000000016000000000002000000000000260000000000022000000000003500034000000000000043700000000000000916000000000000060002013081900000010000000000000BRCSNAACNOR6242
012013071178CSNAH62     070CSNA  FM    ON        000R$  000000000001400000000000200000000000013000000000001500000000000200000000000000000000000000000006000000000000019000000000000000285000000000000062002013081900000010000000000000BRCSNAACNOR6242
012013071178CSNAH64     070CSNA        ON        000R$  000000000001100000000000110000000000011000000000001100000000000110000000000000000000000000000001000000000000000100000000000000001100000000000064002013081900000010000000000000BRCSNAACNOR6242
