00COTAHIST.2013BOVESPA 20130805                                                                                                                                                                                                                      
012013080502ABCB4       010ABC BRASIL  PN      N2   R$  000000000130000000000013050000000001262000000000128100000000012690000000001269000000000128900987000000000000196500000000000251784200000000000000009999123100000010000000000000BRABCBACNPR4120
012013080596ABCB4F      020ABC BRASIL  PN      N2   R$  000000000129100000000012910000000001263000000000127200000000012640000000001257000000000130300006000000000000000148000000000000188373000000000000009999123100000010000000000000BRABCBACNPR4120
012013080562ABCB4T      030ABC BRASIL  PN      N2030R$  000000000128800000000012890000000001288000000000128800000000012890000000000000000000000000000002000000000000004000000000000005153407000000000000009999123100000010000000000000BRABCBACNPR4120
012013080512ABCP11      010FII ABC IMOBCI  ER       R$  000000000091000000000009100000000000910000000000091000000000009100000000000900000000000094800001000000000000000002000000000000001820000000000000009999123100000010000000000000BRABCPCTF000214
012013080502ABRE11      010ABRIL EDUCA UNT     N2   R$  000000000346900000000035600000000003433000000000349900000000034800000000003463000000000348001009000000000000221600000000000775513100000000000000009999123100000010000000000000BRABRECDAM15102
012013080596ABRE11F     020ABRIL EDUCA UNT     N2   R$  000000000350400000000035130000000003480000000000349300000000034850000000003416000000000355600007000000000000000155000000000000541549000000000000009999123100000010000000000000BRABRECDAM15102
012013080502ABTT11B     010ABBOTT      DRN     MB   R$  000000000211000000000021100000000002110000000000211000000000021100000000002070000000000211000002000000000000057800000000000121958000000000000000009999123100000010000000000000BRABTTBDR007107
012013080502AEDU3       010ANHANGUERA  ON      NM   R$  000000000136000000000013710000000001332000000000135400000000013500000000001349000000000135002000000000000003226800000000004371003400000000000000009999123100000010000000000000BRAEDUACNOR9107
012013080596AEDU3F      020ANHANGUERA  ON      NM   R$  000000000135900000000013600000000001336000000000134500000000013410000000001335000000000138000015000000000000000540000000000000726401000000000000009999123100000010000000000000BRAEDUACNOR9107
012013080512AEFI11      010FII AESAPAR CI  ER       R$  000000001240600000000125750000000012406000000001250000000000124510000000012420000000001245100032000000000000000953000000000011913216000000000000009999123100000010000000000000BRAEFICTF002120
012013080596AELP3F      020AES ELPA    ON           R$  000000000080800000000008080000000000808000000000080800000000008080000000000700000000000081800001000000000000000008000000000000006464000000000000009999123100000010000000000000BRAELPACNOR2119
012013080512AGCX11      010FII AG CAIXACI  ER       R$  000000010004000000001000400000000099300000000009966600000001000000000000099201000000010000000019000000000000000300000000000029899956000000000000009999123100000010000000000000BRAGCXCTF003109
012013080502AGEN11      010AGRENCO     DR3          R$  000000000001800000000000180000000000014000000000001500000000000160000000000015000000000001600818000000000013082700000000000204049900000000000000009999123100000010000000000000BRAGENBDR001100
012013080596AGEN11F     020AGRENCO     DR3          R$  000000000001800000000000180000000000018000000000001800000000000180000000000015000000000002100001000000000000000005000000000000000090000000000000009999123100000010000000000000BRAGENBDR001100
012013080502AGRO3       010BRASILAGRO  ON      NM   R$  000000000107100000000010900000000001071000000000107700000000010710000000001066000000000107500008000000000000004400000000000004742300000000000000009999123100000010000000000000BRAGROACNOR7102
012013080502ALLL3       010ALL AMER LATON      NM   R$  000000000092700000000009290000000000906000000000092400000000009130000000000911000000000091306629000000000004318800000000003991021800000000000000009999123100000010000000000000BRALLLACNOR6118
012013080596ALLL3F      020ALL AMER LATON      NM   R$  000000000095200000000009520000000000901000000000091800000000009010000000000901000000000092900038000000000000001111000000000001020206000000000000009999123100000010000000000000BRALLLACNOR6118
012013080562ALLL3T      030ALL AMER LATON      NM016R$  000000000091600000000009170000000000916000000000091600000000009170000000000000000000000000000002000000000000010000000000000009167433000000000000009999123100000010000000000000BRALLLACNOR6118
012013080562ALLL3T      030ALL AMER LATON      NM030R$  000000000092500000000009260000000000925000000000092500000000009260000000000000000000000000000002000000000000002900000000000002682965000000000000009999123100000010000000000000BRALLLACNOR6118
012013080562ALLL3T      030ALL AMER LATON      NM060R$  000000000092700000000009280000000000927000000000092700000000009280000000000000000000000000000002000000000000002000000000000001854705000000000000009999123100000010000000000000BRALLLACNOR6118
012013080512ALMI11B     010FII TORRE ALCI  ER  MB   R$  000000031610000000003161000000000316100000000031610000000003161000000000314600000000031739900002000000000000000013000000000004109300000000000000009999123100000010000000000000BRALMICTF003204
012013080596ALPA3F      020ALPARGATAS  ON      N1   R$  000000000114600000000011460000000001146000000000114600000000011460000000001010000000000114600001000000000000000023000000000000026358000000000000009999123100000010000000000000BRALPAACNOR0202
012013080502ALPA4       010ALPARGATAS  PN      N1   R$  000000000138000000000013970000000001357000000000137900000000013950000000001386000000000139601598000000000000309900000000000427634400000000000000009999123100000010000000000000BRALPAACNPR7202
012013080596ALPA4F      020ALPARGATAS  PN      N1   R$  000000000135800000000014000000000001357000000000138200000000013920000000001365000000000139200021000000000000000443000000000000612393000000000000009999123100000010000000000000BRALPAACNPR7202
012013080502ALSC3       010ALIANSCE    ON      NM   R$  000000000207000000000020810000000002041000000000205400000000020410000000002041000000000205201155000000000000272800000000000560481800000000000000009999123100000010000000000000BRALSCACNOR0104
012013080596ALSC3F      020ALIANSCE    ON      NM   R$  000000000205000000000020510000000002050000000000205000000000020510000000002020000000000210000002000000000000000012000000000000024601000000000000009999123100000010000000000000BRALSCACNOR0104
012013080562ALSC3T      030ALIANSCE    ON      NM016R$  000000000205900000000020600000000002059000000000205900000000020600000000000000000000000000000002000000000000003000000000000006178227000000000000009999123100000010000000000000BRALSCACNOR0104
012013080502ALUP11      010ALUPAR      UNT     N2   R$  000000000175000000000017580000000001740000000000174400000000017500000000001750000000000175800318000000000000066900000000000116702900000000000000009999123100000010000000000000BRALUPCDAM15100
012013080596ALUP11F     020ALUPAR      UNT     N2   R$  000000000177000000000018400000000001739000000000175800000000017400000000001711000000000175000022000000000000000656000000000001153454000000000000009999123100000010000000000000BRALUPCDAM15100
012013080502AMAR3       010LOJAS MARISAON      NM   R$  000000000205000000000021270000000002033000000000208800000000020800000000002074000000000208002068000000000000434600000000000907517800000000000000009999123100000010000000000000BRAMARACNOR4109
012013080596AMAR3F      020LOJAS MARISAON      NM   R$  000000000209000000000021080000000002090000000000210000000000021080000000002016000000000232700005000000000000000110000000000000231075000000000000009999123100000010000000000000BRAMARACNOR4109
012013080502AMBV3       010AMBEV       ON           R$  000000000870100000000087010000000008550000000000864500000000086400000000008590000000000864000517000000000000191000000000001651198700000000000000009999123100000010000000000000BRAMBVACNOR4153
012013080596AMBV3F      020AMBEV       ON           R$  000000000875000000000087500000000008560000000000861200000000085920000000008591000000000861000070000000000000001309000000000011273325000000000000009999123100000010000000000000BRAMBVACNOR4153
012013080562AMBV3T      030AMBEV       ON        060R$  000000000874300000000087440000000008743000000000874300000000087440000000000000000000000000000002000000000000001000000000000008743011000000000000009999123100000010000000000000BRAMBVACNOR4153
012013080502AMBV4       010AMBEV       PN           R$  000000000870000000000087150000000008550000000000862000000000086360000000008636000000000864004218000000000001188900000000010249496500000000000000009999123100000010000000000000BRAMBVACNPR1153
012013080596AMBV4F      020AMBEV       PN           R$  000000000870000000000087370000000008553000000000862200000000086110000000008611000000000864200167000000000000003994000000000034440408000000000000009999123100000010000000000000BRAMBVACNPR1153
012013080562AMBV4T      030AMBEV       PN        030R$  000000000867000000000086760000000008670000000000867400000000086760000000000000000000000000000010000000000000004000000000000034698702000000000000009999123100000010000000000000BRAMBVACNPR1153
012013080562AMBV4T      030AMBEV       PN        060R$  000000000872200000000087450000000008722000000000872800000000087450000000000000000000000000000006000000000000002100000000000018329092000000000000009999123100000010000000000000BRAMBVACNPR1153
012013080578AMBVH87     070AMBV        PN        000R$  000000000011700000000001170000000000117000000000011700000000001170000000000000000000000000000001000000000000099000000000000011583000000000000870002013081900000010000000000000BRAMBVACNPR1153
012013080578AMBVH88     070AMBV        PN        000R$  000000000006900000000000700000000000039000000000006900000000000390000000000000000000000007000004000000000000030600000000000002124400000000000880002013081900000010000000000000BRAMBVACNPR1153
012013080578AMBVH92     070AMBV        PN        000R$  000000000000600000000000070000000000006000000000000600000000000070000000000000000000000000000003000000000000030000000000000000180500000000000920002013081900000010000000000000BRAMBVACNPR1153
012013080578AMBVI89     070AMBV        PN        000R$  000000000011800000000001200000000000118000000000011900000000001190000000000000000000000000000004000000000000099200000000000011854100000000000890002013091600000010000000000000BRAMBVACNPR1153
012013080578AMBVI92     070AMBV        PN        000R$  000000000005600000000000570000000000055000000000005500000000000550000000000000000000000000000005000000000000060200000000000003311400000000000920002013091600000010000000000000BRAMBVACNPR1153
012013080578AMBVK89     070AMBV        PN        000R$  000000000032800000000003280000000000328000000000032800000000003280000000000000000000000000000001000000000000050000000000000016400000000000000890002013111800000010000000000000BRAMBVACNPR1153
012013080578AMBVL90     070AMBV        PN        000R$  000000000037000000000003700000000000370000000000037000000000003700000000000000000000000000000002000000000000050000000000000018500000000000000900002013121600000010000000000000BRAMBVACNPR1153
012013080502AMGN11B     010AMGEN       DRN     MB   R$  000000002479900000000247990000000024799000000002479900000000247990000000024556000000002493500002000000000000004800000000000119035200000000000000009999123100000010000000000000BRAMGNBDR004106
012013080502ARMT11B     010ARCELOR     DRN     MB   R$  000000000145500000000014550000000001455000000000145500000000014550000000001425000000000147500001000000000000000500000000000000727500000000000000009999123100000010000000000000BRARMTBDR008111
012013080502ARTR3       010ARTERIS     ON      NM   R$  000000000219000000000022380000000002190000000000222700000000022300000000002219000000000223004066000000000011109000000000024750365000000000000000009999123100000010000000000000BRARTRACNOR3101
012013080596ARTR3F      020ARTERIS     ON      NM   R$  000000000219500000000022440000000002186000000000221600000000021860000000002186000000000223900066000000000000002051000000000004546593000000000000009999123100000010000000000000BRARTRACNOR3101
012013080502ARZZ3       010AREZZO CO   ON  ED  NM   R$  000000000337300000000036240000000003339000000000346800000000035500000000003546000000000355001450000000000000423800000000001470078600000000000000009999123100000010000000000000BRARZZACNOR3109
012013080596ARZZ3F      020AREZZO CO   ON  ED  NM   R$  000000000353000000000037460000000003441000000000355200000000035600000000003580000000000369200023000000000000000793000000000002817509000000000000009999123100000010000000000000BRARZZACNOR3109
012013080502AUTM3       010AUTOMETAL   ON      NM   R$  000000000183100000000018350000000001819000000000182800000000018300000000001819000000000183000344000000000000060500000000000110632200000000000000009999123100000010000000000000BRAUTMACNOR8109
012013080502BAHI3       010BAHEMA      ON           R$  000000000049800000000005000000000000495000000000049600000000004950000000000490000000000049800008000000000000005000000000000002482900000000000000009999123100000010000000000000BRBAHIACNOR1066
012013080502BAZA3       010AMAZONIA    ON           R$  000000000003400000000000340000000000034000000000003400000000000340000000000033000000000003400001000000000000001000000000000000034000000000000000009999123100000010000000000000BRBAZAACNOR0163
012013080502BBAS3       010BRASIL      ON      NM   R$  000000000230000000000023090000000002221000000000224300000000022210000000002220000000000222408713000000000005326800000000011951454100000000000000009999123100000010000000000000BRBBASACNOR3237
012013080596BBAS3F      020BRASIL      ON      NM   R$  000000000228100000000023020000000002225000000000224800000000022250000000002225000000000225600226000000000000005204000000000011698815000000000000009999123100000010000000000000BRBBASACNOR3237
012013080562BBAS3T      030BRASIL      ON      NM018R$  000000000224500000000022460000000002245000000000224500000000022460000000000000000000000000000002000000000000014900000000000033453033000000000000009999123100000010000000000000BRBBASACNOR3237
012013080562BBAS3T      030BRASIL      ON      NM030R$  000000000225000000000022510000000002250000000000225000000000022510000000000000000000000000000002000000000000001000000000000002250198000000000000009999123100000010000000000000BRBBASACNOR3237
012013080562BBAS3T      030BRASIL      ON      NM042R$  000000000225600000000022570000000002242000000000225100000000022430000000000000000000000000000004000000000000003000000000000006755903000000000000009999123100000010000000000000BRBBASACNOR3237
012013080562BBAS3T      030BRASIL      ON      NM060R$  000000000227000000000022750000000002250000000000226500000000022510000000000000000000000000000016000000000000317500000000000719365881000000000000009999123100000010000000000000BRBBASACNOR3237
012013080578BBASH19     070BBAS        ON      NM000R$  000000000034300000000003500000000000343000000000034500000000003500000000000000000000000000000003000000000000000600000000000000207200000000000190002013081900000010000000000000BRBBASACNOR3237
012013080578BBASH21     070BBAS        ON      NM000R$  000000000020000000000002020000000000179000000000018800000000001790000000000080000000000018300008000000000000004600000000000000867700000000000207602013081900000010000000000000BRBBASACNOR3236
012013080578BBASH22     070BBAS  FM    ON      NM000R$  000000000013700000000001390000000000086000000000010500000000000890000000000074000000000009000132000000000000154300000000000016233900000000000217602013081900000010000000000000BRBBASACNOR3236
012013080578BBASH23     070BBAS  FM    ON      NM000R$  000000000005500000000000560000000000032000000000003900000000000320000000000030000000000003300164000000000000294800000000000011666400000000000227602013081900000010000000000000BRBBASACNOR3236
012013080578BBASH24     070BBAS  FM    ON      NM000R$  000000000004000000000000430000000000018000000000002600000000000180000000000017000000000004600311000000000000353100000000000009371300000000000231702013081900000010000000000000BRBBASACNOR3233
012013080578BBASH25     070BBAS  FM    ON      NM000R$  000000000001100000000000110000000000006000000000000600000000000060000000000005000000000001000074000000000000040300000000000000279100000000000241702013081900000010000000000000BRBBASACNOR3233
012013080578BBASH26     070BBAS  FM    ON      NM000R$  000000000000200000000000020000000000002000000000000200000000000020000000000001000000000000300002000000000000001300000000000000002600000000000256602013081900000010000000000000BRBBASACNOR3235
012013080578BBASI21     070BBAS        ON      NM000R$  000000000020400000000002040000000000180000000000019700000000001800000000000000000000000000000004000000000000011000000000000002170000000000000210002013091600000010000000000000BRBBASACNOR3237
012013080578BBASI22     070BBAS  FM    ON      NM000R$  000000000017000000000001740000000000130000000000015400000000001300000000000000000000000015300040000000000000044200000000000006818900000000000217602013091600000010000000000000BRBBASACNOR3236
012013080578BBASI23     070BBAS  FM    ON      NM000R$  000000000009800000000000980000000000076000000000008900000000000760000000000041000000000009000028000000000000051500000000000004595700000000000227602013091600000010000000000000BRBBASACNOR3236
012013080578BBASI24     070BBAS  FM    ON      NM000R$  000000000005100000000000520000000000036000000000004400000000000360000000000020000000000004000014000000000000025400000000000001139400000000000237602013091600000010000000000000BRBBASACNOR3236
012013080578BBASI25     070BBAS  FM    ON      NM000R$  000000000002400000000000240000000000019000000000002200000000000190000000000017000000000001900006000000000000010000000000000000229000000000000246602013091600000010000000000000BRBBASACNOR3235
012013080578BBASI26     070BBAS  FM    ON      NM000R$  000000000001200000000000130000000000011000000000001100000000000110000000000009000000000001200006000000000000006700000000000000079500000000000256602013091600000010000000000000BRBBASACNOR3235
012013080578BBASI27     070BBAS        ON      NM000R$  000000000000500000000000050000000000005000000000000500000000000050000000000003000000000003800001000000000000000500000000000000002500000000000267602013091600000010000000000000BRBBASACNOR3236
012013080578BBASI28     070BBAS        ON      NM000R$  000000000000300000000000030000000000003000000000000300000000000030000000000002000000000001400001000000000000000700000000000000002100000000000276602013091600000010000000000000BRBBASACNOR3235
012013080578BBASJ23     070BBAS        ON      NM000R$  000000000013400000000001340000000000134000000000013400000000001340000000000000000000000000000001000000000000000400000000000000053600000000000226602013102100000010000000000000BRBBASACNOR3235
012013080578BBASJ24     070BBAS        ON      NM000R$  000000000006700000000000670000000000067000000000006700000000000670000000000017000000000000000001000000000000000100000000000000006700000000000237602013102100000010000000000000BRBBASACNOR3236
012013080578BBASJ25     070BBAS        ON      NM000R$  000000000003600000000000360000000000036000000000003600000000000360000000000017000000000000000001000000000000001000000000000000036000000000000250002013102100000010000000000000BRBBASACNOR3237
012013080578BBASJ26     070BBAS        ON      NM000R$  000000000003200000000000320000000000032000000000003200000000000320000000000024000000000000000001000000000000000100000000000000003200000000000256602013102100000010000000000000BRBBASACNOR3235
012013080582BBAST21     080BBASE FM    ON      NM000R$  000000000001000000000000110000000000009000000000001000000000000110000000000000000000000001100006000000000000002500000000000000025900000000000207602013081900000010000000000000BRBBASACNOR3236
012013080582BBAST23     080BBASE FM    ON      NM000R$  000000000004500000000000720000000000045000000000006000000000000720000000000035000000000010700037000000000000077000000000000004677300000000000227602013081900000010000000000000BRBBASACNOR3236
012013080582BBAST24     080BBASE FM    ON      NM000R$  000000000007300000000000970000000000070000000000008300000000000970000000000026000000000000000031000000000000061500000000000005122000000000000231702013081900000010000000000000BRBBASACNOR3233
012013080582BBAST25     080BBASE       ON      NM000R$  000000000014800000000001500000000000144000000000014700000000001500000000000000000000000000000003000000000000009000000000000001326000000000000241702013081900000010000000000000BRBBASACNOR3233
012013080582BBASU21     080BBASE FM    ON      NM000R$  000000000003000000000000370000000000030000000000003100000000000370000000000000000000000007000008000000000000014600000000000000464300000000000210002013091600000010000000000000BRBBASACNOR3237
012013080582BBASU22     080BBASE FM    ON      NM000R$  000000000004700000000000580000000000047000000000005300000000000580000000000032000000000000000007000000000000004600000000000000246300000000000217602013091600000010000000000000BRBBASACNOR3236
012013080582BBASU23     080BBASE FM    ON      NM000R$  000000000007300000000001010000000000073000000000008500000000001010000000000000000000000000000011000000000000022700000000000001934300000000000227602013091600000010000000000000BRBBASACNOR3236
012013080582BBASU24     080BBASE FM    ON      NM000R$  000000000012400000000001640000000000123000000000014400000000001640000000000000000000000000000031000000000000064000000000000009238500000000000237602013091600000010000000000000BRBBASACNOR3236
012013080582BBASU25     080BBASE       ON      NM000R$  000000000022900000000002290000000000229000000000022900000000002290000000000000000000000000000001000000000000002000000000000000458000000000000246602013091600000010000000000000BRBBASACNOR3235
012013080582BBASU26     080BBASE       ON      NM000R$  000000000028000000000002800000000000280000000000028000000000002800000000000000000000000000000001000000000000003000000000000000840000000000000256602013091600000010000000000000BRBBASACNOR3235
012013080582BBASV23     080BBASE       ON      NM000R$  000000000010500000000001050000000000105000000000010500000000001050000000000000000000000000000001000000000000000100000000000000010500000000000226602013102100000010000000000000BRBBASACNOR3235
012013080502BBDC3       010BRADESCO    ON  EJ  N1   R$  000000000309100000000031130000000003009000000000306000000000030380000000003038000000000303903460000000000001480800000000004531299800000000000000009999123100000010000000000000BRBBDCACNOR1605
012013080596BBDC3F      020BRADESCO    ON  EJ  N1   R$  000000000318900000000031890000000003011000000000307000000000030230000000003010000000000310000059000000000000001413000000000004337426000000000000009999123100000010000000000000BRBBDCACNOR1605
012013080502BBDC4       010BRADESCO    PN  EJ  N1   R$  000000000282300000000028280000000002751000000000277500000000027620000000002760000000000276216959000000000005715600000000015864321400000000000000009999123100000010000000000000BRBBDCACNPR8605
012013080596BBDC4F      020BRADESCO    PN  EJ  N1   R$  000000000282000000000028380000000002751000000000278400000000027600000000002756000000000279900241000000000000005284000000000014710154000000000000009999123100000010000000000000BRBBDCACNPR8605
012013080562BBDC4T      030BRADESCO    PN  EJ  N1016R$  000000000282200000000028230000000002817000000000282100000000028180000000000000000000000000000004000000000000006000000000000016928516000000000000009999123100000010000000000000BRBBDCACNPR8605
012013080562BBDC4T      030BRADESCO    PN  EJ  N1030R$  000000000278700000000027880000000002773000000000278200000000027810000000000000000000000000000010000000000000005600000000000015581430000000000000009999123100000010000000000000BRBBDCACNPR8605
012013080562BBDC4T      030BRADESCO    PN  EJ  N1060R$  000000000283200000000028330000000002832000000000283200000000028330000000000000000000000000000002000000000000002000000000000005665465000000000000009999123100000010000000000000BRBBDCACNPR8605
012013080578BBDCH27     070BBDC    /EJ PN      N1000R$  000000000015600000000001560000000000107000000000013000000000001180000000000000000000000018700144000000000000124600000000000016302500000000000267802013081900000010000000000000BRBBDCACNPR8602
012013080578BBDCH28     070BBDC    /EJ PN      N1000R$  000000000008000000000000810000000000046000000000006000000000000500000000000047000000000005100285000000000000229000000000000013815200000000000277802013081900000010000000000000BRBBDCACNPR8602
012013080578BBDCH29     070BBDC    /EJ PN      N1000R$  000000000003500000000000350000000000015000000000002100000000000170000000000015000000000002100181000000000000464400000000000009976300000000000287802013081900000010000000000000BRBBDCACNPR8602
012013080578BBDCH30     070BBDC    /EJ PN      N1000R$  000000000000900000000000090000000000004000000000000500000000000040000000000003000000000001400035000000000000076800000000000000400700000000000297802013081900000010000000000000BRBBDCACNPR8602
012013080578BBDCH31     070BBDC    /EJ PN      N1000R$  000000000000500000000000050000000000005000000000000500000000000050000000000000000000000000900001000000000000000200000000000000001000000000000307402013081900000010000000000000BRBBDCACNPR8600
012013080578BBDCH32     070BBDC    /EJ PN      N1000R$  000000000000200000000000020000000000002000000000000200000000000020000000000001000000000000000002000000000000007800000000000000015600000000000317802013081900000010000000000000BRBBDCACNPR8602
012013080578BBDCH33     070BBDC    /EJ PN      N1000R$  000000000000100000000000010000000000001000000000000100000000000010000000000000000000000000300001000000000000000100000000000000000100000000000327602013081900000010000000000000BRBBDCACNPR8601
012013080578BBDCH34     070BBDC    /EJ PN      N1000R$  000000000000500000000000050000000000004000000000000400000000000040000000000000000000000000600004000000000000008000000000000000036500000000000305302013081900000010000000000000BRBBDCACNPR8595
012013080578BBDCI26     070BBDC    /EJ PN      N1000R$  000000000026000000000002600000000000260000000000026000000000002600000000000000000000000030000001000000000000002000000000000000520000000000000259802013091600000010000000000000BRBBDCACNPR8604
012013080578BBDCI27     070BBDC    /EJ PN      N1000R$  000000000019800000000002070000000000155000000000017400000000001640000000000000000000000000000150000000000000112000000000000019528800000000000267802013091600000010000000000000BRBBDCACNPR8602
012013080578BBDCI28     070BBDC    /EJ PN      N1000R$  000000000012200000000001380000000000095000000000011200000000001020000000000086000000000012500126000000000000099400000000000011215500000000000277802013091600000010000000000000BRBBDCACNPR8602
012013080578BBDCI29     070BBDC    /EJ PN      N1000R$  000000000007400000000000830000000000054000000000006400000000000570000000000054000000000008900027000000000000031900000000000002072000000000000287802013091600000010000000000000BRBBDCACNPR8602
012013080578BBDCI30     070BBDC    /EJ PN      N1000R$  000000000004000000000000410000000000028000000000003800000000000290000000000011000000000004000096000000000000287600000000000010953100000000000297802013091600000010000000000000BRBBDCACNPR8602
012013080578BBDCI31     070BBDC    /EJ PN      N1000R$  000000000015100000000001510000000000151000000000015100000000001510000000000000000000000000000001000000000000000200000000000000030200000000000272902013091600000010000000000000BRBBDCACNPR8590
012013080578BBDCI32     070BBDC    /EJ PN      N1000R$  000000000000800000000000090000000000006000000000000800000000000060000000000000000000000000000007000000000000007100000000000000059000000000000317802013091600000010000000000000BRBBDCACNPR8602
012013080578BBDCI75     070BBDCE   /EJ PN      N1000R$  000000000009600000000000960000000000075000000000008900000000000750000000000000000000000000000008000000000000008000000000000000712500000000000282302013091600000010000000000000BRBBDCACNPR8604
012013080578BBDCI81     070BBDC    /EJ PN      N1000R$  000000000002000000000000200000000000013000000000001400000000000130000000000000000000000000000047000000000000091400000000000001356700000000000307802013091600000010000000000000BRBBDCACNPR8602
012013080578BBDCJ29     070BBDC    /EJ PN      N1000R$  000000000012200000000001220000000000095000000000011200000000000950000000000000000000000000000007000000000000015800000000000001779200000000000287802013102100000010000000000000BRBBDCACNPR8602
012013080578BBDCJ30     070BBDC    /EJ PN      N1000R$  000000000008000000000000800000000000062000000000006800000000000620000000000000000000000000000222000000000000035500000000000002444000000000000297802013102100000010000000000000BRBBDCACNPR8602
012013080578BBDCJ31     070BBDC    /EJ PN      N1000R$  000000000005100000000000510000000000046000000000004900000000000460000000000010000000000004300007000000000000016100000000000000789600000000000307802013102100000010000000000000BRBBDCACNPR8602
012013080578BBDCJ33     070BBDC    /EJ PN      N1000R$  000000000001800000000000180000000000016000000000001700000000000160000000000000000000000000000002000000000000004000000000000000070000000000000327802013102100000010000000000000BRBBDCACNPR8602
012013080578BBDCK30     070BBDC    /EJ PN      N1000R$  000000000007800000000000780000000000073000000000007400000000000750000000000000000000000000000210000000000000021000000000000001560000000000000300002013111800000010000000000000BRBBDCACNPR8605
012013080582BBDCT24     080BBDCE   /EJ PN      N1000R$  000000000000200000000000020000000000002000000000000200000000000020000000000000000000000000000001000000000000000100000000000000000200000000000237802013081900000010000000000000BRBBDCACNPR8602
012013080582BBDCT27     080BBDCE   /EJ PN      N1000R$  000000000001800000000000250000000000016000000000002100000000000250000000000018000000000002600033000000000000030200000000000000662900000000000267802013081900000010000000000000BRBBDCACNPR8602
012013080582BBDCT28     080BBDCE   /EJ PN      N1000R$  000000000003900000000000630000000000039000000000004800000000000580000000000058000000000000000044000000000000066100000000000003215400000000000277802013081900000010000000000000BRBBDCACNPR8602
012013080582BBDCT29     080BBDCE   /EJ PN      N1000R$  000000000009700000000001320000000000088000000000011000000000001230000000000000000000000000000066000000000000106900000000000011779500000000000287802013081900000010000000000000BRBBDCACNPR8602
012013080582BBDCT30     080BBDCE   /EJ PN      N1000R$  000000000018400000000002180000000000172000000000019200000000002140000000000000000000000000000015000000000000032600000000000006267400000000000297802013081900000010000000000000BRBBDCACNPR8602
012013080582BBDCU26     080BBDCE   /EJ PN      N1000R$  000000000003000000000000360000000000030000000000003300000000000360000000000007000000000000000002000000000000004000000000000000132000000000000259802013091600000010000000000000BRBBDCACNPR8604
012013080582BBDCU27     080BBDCE   /EJ PN      N1000R$  000000000004600000000000560000000000041000000000004600000000000560000000000000000000000000000027000000000000028900000000000001347400000000000267802013091600000010000000000000BRBBDCACNPR8602
012013080582BBDCU28     080BBDCE   /EJ PN      N1000R$  000000000007900000000000970000000000070000000000008000000000000970000000000000000000000000000024000000000000042300000000000003417200000000000277802013091600000010000000000000BRBBDCACNPR8602
012013080582BBDCU29     080BBDCE   /EJ PN      N1000R$  000000000012700000000001550000000000115000000000013300000000001500000000000000000000000000000024000000000000040800000000000005443500000000000287802013091600000010000000000000BRBBDCACNPR8602
012013080582BBDCU30     080BBDCE   /EJ PN      N1000R$  000000000019700000000002160000000000197000000000020300000000002160000000000000000000000000000002000000000000001500000000000000305000000000000297802013091600000010000000000000BRBBDCACNPR8602
012013080582BBDCU75     080BBDCE   /EJ PN      N1000R$  000000000010100000000001100000000000101000000000010500000000001100000000000000000000000000000002000000000000004000000000000000422000000000000282302013091600000010000000000000BRBBDCACNPR8604
012013080582BBDCV2      080BBDCE   /EJ PN      N1000R$  000000000042500000000004250000000000425000000000042500000000004250000000000000000000000000000001000000000000002000000000000000850000000000000324602013102100000010000000000000BRBBDCACNPR8603
012013080582BBDCV29     080BBDCE   /EJ PN      N1000R$  000000000015300000000001670000000000153000000000015700000000001670000000000000000000000000000004000000000000007900000000000001247300000000000287802013102100000010000000000000BRBBDCACNPR8602
012013080582BBDCV30     080BBDCE   /EJ PN      N1000R$  000000000020900000000002340000000000209000000000021900000000002340000000000000000000000000000011000000000000005100000000000001121100000000000297802013102100000010000000000000BRBBDCACNPR8602
012013080582BBDCW27     080BBDCE   /EJ PN      N1000R$  000000000009000000000001010000000000090000000000009500000000001010000000000000000000000000000017000000000000031600000000000003006100000000000269602013111800000010000000000000BRBBDCACNPR8603
012013080512BBFI11B     010FII BB PROGRCI  ER  MB   R$  000000042400000000004298640000000415001000000042172900000004290000000000416116000000042899900008000000000000000031000000000013073600000000000000009999123100000010000000000000BRBBFICTF006197
012013080512BBPO11      010FII BB PRGIICI  ER       R$  000000001128900000000112890000000011103000000001118300000000112100000000011174000000001121000470000000000000012797000000000143110182000000000000009999123100000010000000000000BRBBPOCTF003109
012013080512BBRC11      010FII BB CORP CI  ER       R$  000000000925000000000092500000000009174000000000918200000000091820000000009102000000000918200011000000000000000426000000000003911856000000000000009999123100000010000000000000BRBBRCCTF004123
012013080502BBRK3       010BR BROKERS  ON      NM   R$  000000000057400000000005800000000000572000000000057500000000005740000000000574000000000057601859000000000001209100000000000696321900000000000000009999123100000010000000000000BRBBRKACNOR4108
012013080596BBRK3F      020BR BROKERS  ON      NM   R$  000000000057500000000005750000000000574000000000057400000000005740000000000560000000000064800002000000000000000070000000000000040224000000000000009999123100000010000000000000BRBBRKACNOR4108
012013080502BBSE3       010BBSEGURIDADEON      NM   R$  000000000189100000000019500000000001882000000000193200000000019400000000001926000000000194012499000000000006374100000000012315155200000000000000009999123100000010000000000000BRBBSEACNOR5100
012013080596BBSE3F      020BBSEGURIDADEON      NM   R$  000000000188200000000019500000000001868000000000192200000000019400000000001916000000000194001178000000000000035719000000000068678252000000000000009999123100000010000000000000BRBBSEACNOR5100
012013080578BBSEK20     070BBSE        ON      NM000R$  000000000004700000000000470000000000047000000000004700000000000470000000000000000000000000000002000000000000102000000000000004794000000000000200002013111800000010000000000000BRBBSEACNOR5100
012013080502BBTG11      010BTG PACTUAL UNT          R$  000000000276900000000028370000000002728000000000277900000000027490000000002727000000000275000509000000000000080100000000000222672600000000000000009999123100000010000000000000BRBBTGUNT007104
012013080596BBTG11F     020BTG PACTUAL UNT          R$  000000000282700000000029840000000002729000000000279300000000029840000000002700000000000298400010000000000000000316000000000000882875000000000000009999123100000010000000000000BRBBTGUNT007104
012013080512BBVJ11      010FII C JARDIMCI  ER       R$  000000000786000000000080000000000007820000000000791400000000079160000000007916000000000800000029000000000000002501000000000019793953000000000000009999123100000010000000000000BRBBVJCTF001132
012013080512BCFF11B     010FII BC FFII CI      MB   R$  000000001019900000000102880000000010150000000001016400000000102000000000010162000000001020000058000000000000003628000000000036877823000000000000009999123100000010000000000000BRBCFFCTF000140
012013080502BDLL4       010BARDELLA    PN           R$  000000000592400000000059900000000005924000000000594600000000059900000000004600000000000606500003000000000000000300000000000001783800000000000000009999123100000010000000000000BRBDLLACNPR8149
012013080502BEEF3       010MINERVA     ON      NM   R$  000000000096500000000009710000000000949000000000096100000000009620000000000962000000000096401409000000000000288000000000000276949600000000000000009999123100000010000000000000BRBEEFACNOR6104
012013080596BEEF3F      020MINERVA     ON      NM   R$  000000000096700000000009700000000000955000000000096400000000009550000000000930000000000095600008000000000000000161000000000000155320000000000000009999123100000010000000000000BRBEEFACNOR6104
012013080502BEES3       010BANESTES    ON  EJ       R$  000000000004600000000000470000000000046000000000004600000000000460000000000046000000000004700012000000000000047800000000000002209800000000000000009999123100000010000000000000BRBEESACNOR9243
012013080596BEES3F      020BANESTES    ON  EJ       R$  000000000004600000000000500000000000046000000000004800000000000500000000000000000000000005000002000000000000000032000000000000001536000000000000009999123100000010000000000000BRBEESACNOR9243
012013080502BEES4       010BANESTES    PN  EJ       R$  000000000004400000000000450000000000044000000000004400000000000440000000000043000000000004400004000000000000003400000000000000150600000000000000009999123100000010000000000000BRBEESACNPR6168
012013080502BEMA3       010BEMATECH    ON      NM   R$  000000000074000000000007590000000000736000000000074600000000007590000000000736000000000075900124000000000000019800000000000014780100000000000000009999123100000010000000000000BRBEMAACNOR0113
012013080502BGIP4       010BANESE      PN           R$  000000000479800000000047980000000004798000000000479800000000047980000000004730000000000479800001000000000000000100000000000000479800000000000000009999123100000010000000000000BRBGIPACNPR8178
012013080502BHGR3       010BHG         ON      NM   R$  000000000159600000000015990000000001593000000000159700000000015930000000001590000000000160000007000000000000002300000000000003673100000000000000009999123100000010000000000000BRBHGRACNOR9101
012013080502BICB4       010BICBANCO    PN      N1   R$  000000000035500000000003550000000000330000000000034200000000003400000000000340000000000034200134000000000000096900000000000033150500000000000000009999123100000010000000000000BRBICBACNPR7131
012013080596BICB4F      020BICBANCO    PN      N1   R$  000000000035100000000003890000000000340000000000034900000000003440000000000344000000000036000009000000000000000198000000000000069253000000000000009999123100000010000000000000BRBICBACNPR7131
012013080502BIOM4       010BIOMM       PN           R$  000000000089000000000008900000000000890000000000089000000000008900000000000851000000000090000001000000000000001000000000000000890000000000000000009999123100000010000000000000BRBIOMACNPR9101
012013080596BIOM4F      020BIOMM       PN           R$  000000000089000000000008900000000000800000000000082000000000008700000000000791000000000088900004000000000000000132000000000000108240000000000000009999123100000010000000000000BRBIOMACNPR9101
012013080502BISA3       010BROOKFIELD  ON      NM   R$  000000000016700000000001730000000000164000000000016600000000001650000000000165000000000016602539000000000003667700000000000611070800000000000000009999123100000010000000000000BRBISAACNOR8109
012013080596BISA3F      020BROOKFIELD  ON      NM   R$  000000000016800000000001680000000000164000000000016600000000001650000000000165000000000016900012000000000000000375000000000000062322000000000000009999123100000010000000000000BRBISAACNOR8109
012013080562BISA3T      030BROOKFIELD  ON      NM018R$  000000000016600000000001670000000000166000000000016600000000001670000000000000000000000000000002000000000000160000000000000026692800000000000000009999123100000010000000000000BRBISAACNOR8109
012013080512BJRC11      010FII JS RECIMCI  ER       R$  000000008998000000000900000000000089980000000008998900000000900000000000087200000000009000000004000000000000000036000000000003239620000000000000009999123100000010000000000000BRBJRCCTF007109
012013080512BMLC11B     010FII BMBRC LCCI      MB   R$  000000001180000000000125000000000011800000000001183700000000122000000000011800000000001200000019000000000000004300000000000050900441000000000000009999123100000010000000000000BRBMLCCTF004117
012013080502BMTO4       010BRASMOTOR   PN           R$  000000000008600000000000880000000000086000000000008600000000000880000000000086000000000008800003000000000000024000000000000002066000000000000000009999123100000010000000000000BRBMTOACNPR6065
012013080596BMTO4F      020BRASMOTOR   PN           R$  000000000008700000000000870000000000087000000000008700000000000870000000000086000000000008700001000000000000000040000000000000003480000000000000009999123100000010000000000000BRBMTOACNPR6065
012013080512BNFS11      010FII BANRISULCI  ER       R$  000000000980200000000098020000000009800000000000980000000000098000000000009801000000001000000004000000000000000282000000000002763682000000000000009999123100000010000000000000BRBNFSCTF000111
012013080502BOAC11B     010BANK AMERICADRN     MB   R$  000000000342700000000034270000000003427000000000342700000000034270000000003375000000000343500001000000000000000200000000000000685400000000000000009999123100000010000000000000BRBOACBDR004111
012013080502BOBR4       010BOMBRIL     PN           R$  000000000070800000000007080000000000708000000000070800000000007080000000000656000000000070600001000000000000000100000000000000070800000000000000009999123100000010000000000000BRBOBRACNPR3127
012013080514BOVA11      010ISHARES BOVACI           R$  000000000474900000000047800000000004735000000000475200000000047550000000004750000000000475503079000000000000960590000000004565467070000000000000009999123100000010000000000000BRBOVACTF003101
012013080596BOVA11F     020ISHARES BOVACI           R$  000000000474700000000048060000000004706000000000475800000000047500000000004706000000000474500009000000000000000016000000000000076142000000000000009999123100000010000000000000BRBOVACTF003101
012013080512BPFF11      010FII ABSOLUTOCI  ER       R$  000000000900200000000090020000000008950000000000897000000000089900000000008990000000000910100017000000000000000490000000000004395385000000000000009999123100000010000000000000BRBPFFCTF002104
012013080502BPHA3       010BR PHARMA   ON      NM   R$  000000000100000000000010200000000000990000000000099700000000010000000000001000000000000100400899000000000000874900000000000872467400000000000000009999123100000010000000000000BRBPHAACNOR6102
012013080596BPHA3F      020BR PHARMA   ON      NM   R$  000000000100000000000010250000000000991000000000099800000000010250000000000991000000000109500012000000000000000304000000000000303599000000000000009999123100000010000000000000BRBPHAACNOR6102
012013080502BPNM4       010PANAMERICANOPN      N1   R$  000000000060100000000006010000000000592000000000059600000000005990000000000592000000000059900196000000000000097300000000000058032200000000000000009999123100000010000000000000BRBPNMACNPR6111
012013080596BPNM4F      020PANAMERICANOPN      N1   R$  000000000059400000000006000000000000581000000000059300000000005810000000000558000000000059900007000000000000000238000000000000141172000000000000009999123100000010000000000000BRBPNMACNPR6111
012013080502BRAP3       010BRADESPAR   ON      N1   R$  000000000192000000000019200000000001871000000000189000000000019200000000001900000000000192000061000000000000032900000000000062196400000000000000009999123100000010000000000000BRBRAPACNOR5124
012013080596BRAP3F      020BRADESPAR   ON      N1   R$  000000000187900000000019230000000001870000000000188500000000019230000000001861000000000192300007000000000000000139000000000000262049000000000000009999123100000010000000000000BRBRAPACNOR5124
012013080502BRAP4       010BRADESPAR   PN      N1   R$  000000000225500000000022830000000002241000000000226000000000022650000000002259000000000226503696000000000000984800000000002225989800000000000000009999123100000010000000000000BRBRAPACNPR2124
012013080596BRAP4F      020BRADESPAR   PN      N1   R$  000000000225500000000022890000000002242000000000225800000000022420000000002241000000000226000026000000000000000715000000000001615003000000000000009999123100000010000000000000BRBRAPACNPR2124
012013080562BRAP4S      030BRADESPAR   PN      N1090R$  000000000232000000000023210000000002320000000000232000000000023210000000000000000000000000000002000000000000008600000000000019960257000000000000009999123100000010000000000000BRBRAPACNPR2124
012013080562BRAP4T      030BRADESPAR   PN      N1045R$  000000000227100000000022720000000002271000000000227100000000022720000000000000000000000000000002000000000000001000000000000002271154000000000000009999123100000010000000000000BRBRAPACNPR2124
012013080578BRAPI24     070BRAP        PN      N1000R$  000000000001500000000000280000000000015000000000001600000000000280000000000000000000000003500023000000000000078300000000000001325200000000000240002013091600000010000000000000BRBRAPACNPR2124
012013080578BRAPI75     070BRAPE       PN      N1000R$  000000000004000000000000400000000000040000000000004000000000000400000000000000000000000000000002000000000000001000000000000000040000000000000237502013091600000010000000000000BRBRAPACNPR2124
012013080512BRCR11      010FII BC FUND CI           R$  000000001346500000000134650000000013401000000001342600000000134010000000013401000000001342500292000000000000018993000000000255016714000000000000009999123100000010000000000000BRBRCRCTF000131
012013080502BRFS3       010BRF SA      ON      NM   R$  000000000503000000000050390000000004962000000000498600000000049890000000004973000000000499104824000000000001576100000000007859106600000000000000009999123100000010000000000000BRBRFSACNOR8110
012013080596BRFS3F      020BRF SA      ON      NM   R$  000000000500000000000050480000000004958000000000499200000000050060000000004935000000000500600074000000000000001964000000000009805281000000000000009999123100000010000000000000BRBRFSACNOR8110
012013080562BRFS3T      030BRF SA      ON      NM016R$  000000000499600000000049970000000004996000000000499600000000049970000000000000000000000000000002000000000000001200000000000005995682000000000000009999123100000010000000000000BRBRFSACNOR8110
012013080562BRFS3T      030BRF SA      ON      NM030R$  000000000501400000000050170000000005009000000000501300000000050100000000000000000000000000000006000000000000002500000000000012533832000000000000009999123100000010000000000000BRBRFSACNOR8110
012013080562BRFS3T      030BRF SA      ON      NM060R$  000000000505600000000050570000000005056000000000505600000000050570000000000000000000000000000002000000000000001000000000000005056784000000000000009999123100000010000000000000BRBRFSACNOR8110
012013080578BRFSH50     070BRFS        ON      NM000R$  000000000005900000000000800000000000059000000000006200000000000800000000000000000000000000000013000000000000008800000000000000549200000000000500002013081900000010000000000000BRBRFSACNOR8110
012013080578BRFSH51     070BRFS        ON      NM000R$  000000000004400000000000440000000000044000000000004400000000000440000000000000000000000000000001000000000000002000000000000000088000000000000510002013081900000010000000000000BRBRFSACNOR8110
012013080502BRIN3       010BR INSURANCEON      NM   R$  000000000221900000000022390000000002198000000000221700000000022390000000002239000000000224001271000000000000186600000000000413735800000000000000009999123100000010000000000000BRBRINACNOR3105
012013080596BRIN3F      020BR INSURANCEON      NM   R$  000000000222200000000022290000000002205000000000221700000000022170000000002219000000000222500023000000000000000559000000000001239481000000000000009999123100000010000000000000BRBRINACNOR3105
012013080502BRIV4       010ALFA INVEST PN           R$  000000000057600000000005970000000000576000000000058000000000005850000000000578000000000059500006000000000000001700000000000000986700000000000000009999123100000010000000000000BRBRIVACNPR3196
012013080502BRKM3       010BRASKEM     ON      N1   R$  000000000110000000000011330000000001100000000000112800000000011330000000001089000000000113400009000000000000001700000000000001917600000000000000009999123100000010000000000000BRBRKMACNOR1110
012013080596BRKM3F      020BRASKEM     ON      N1   R$  000000000109900000000010990000000001099000000000109900000000010990000000001080000000000109900001000000000000000010000000000000010990000000000000009999123100000010000000000000BRBRKMACNOR1110
012013080502BRKM5       010BRASKEM     PNA     N1   R$  000000000169700000000017190000000001684000000000170400000000017070000000001698000000000170704514000000000000872500000000001487216700000000000000009999123100000010000000000000BRBRKMACNPA4110
012013080596BRKM5F      020BRASKEM     PNA     N1   R$  000000000169500000000017150000000001680000000000169100000000016960000000001696000000000171500073000000000000002361000000000003993744000000000000009999123100000010000000000000BRBRKMACNPA4110
012013080502BRML3       010BR MALLS PARON      NM   R$  000000000203900000000020450000000001968000000000199400000000019680000000001968000000000197506647000000000002766300000000005516001600000000000000009999123100000010000000000000BRBRMLACNOR9105
012013080596BRML3F      020BR MALLS PARON      NM   R$  000000000203900000000020410000000001971000000000200600000000019850000000001960000000000198500091000000000000002191000000000004395495000000000000009999123100000010000000000000BRBRMLACNOR9105
012013080578BRMLH50     070BRML        ON      NM000R$  000000000002400000000000240000000000024000000000002400000000000240000000000000000000000000000001000000000000003900000000000000093600000000000205002013081900000010000000000000BRBRMLACNOR9105
012013080582BRMLT48     080BRMLE       ON      NM000R$  000000000001000000000000100000000000010000000000001000000000000100000000000000000000000000000001000000000000003900000000000000039000000000000185002013081900000010000000000000BRBRMLACNOR9105
012013080582BRMLT49     080BRMLE       ON      NM000R$  000000000003400000000000340000000000034000000000003400000000000340000000000000000000000000000001000000000000003900000000000000132600000000000195002013081900000010000000000000BRBRMLACNOR9105
012013080502BRPR3       010BR PROPERT  ON      NM   R$  000000000188500000000019100000000001879000000000190000000000019090000000001901000000000190903898000000000000891200000000001693582100000000000000009999123100000010000000000000BRBRPRACNOR9112
012013080596BRPR3F      020BR PROPERT  ON      NM   R$  000000000190200000000019120000000001882000000000189500000000018820000000001882000000000191100022000000000000000745000000000001412029000000000000009999123100000010000000000000BRBRPRACNOR9112
012013080502BRSR6       010BANRISUL    PNB     N1   R$  000000000147600000000014980000000001463000000000148600000000014950000000001482000000000149501697000000000000462700000000000687656000000000000000009999123100000010000000000000BRBRSRACNPB4133
012013080596BRSR6F      020BANRISUL    PNB     N1   R$  000000000145100000000015740000000001450000000000148000000000014500000000001450000000000149300040000000000000001055000000000001561500000000000000009999123100000010000000000000BRBRSRACNPB4133
012013080502BSEV3       010BIOSEV      ON      NM   R$  000000000118500000000012120000000001184000000000119600000000011900000000001185000000000121900011000000000000008100000000000009695400000000000000009999123100000010000000000000BRBSEVACNOR3100
012013080582BSEVS99     080BSEVE       ON      NM000R$  000000000035000000000003500000000000350000000000035000000000003500000000000300000000000034900001000000000000010000000000000003500000000000000165702014072100000010000000000000BRBSEVACNOR3100
012013080502BTOW3       010B2W DIGITAL ON      NM   R$  000000000115800000000011580000000001108000000000112700000000011210000000001120000000000112101190000000000000370300000000000417449300000000000000009999123100000010000000000000BRBTOWACNOR8105
012013080596BTOW3F      020B2W DIGITAL ON      NM   R$  000000000115800000000011900000000001106000000000113900000000011060000000001105000000000111500016000000000000000382000000000000435296000000000000009999123100000010000000000000BRBTOWACNOR8105
012013080502BTTL3       010BATTISTELLA ON           R$  000000000008300000000000850000000000083000000000008300000000000850000000000079000000000008500003000000000000000600000000000000050200000000000000009999123100000010000000000000BRBTTLACNOR0105
012013080502BTTL4       010BATTISTELLA PN           R$  000000000010000000000001010000000000100000000000010000000000001010000000000100000000000010200008000000000000272600000000000027279700000000000000009999123100000010000000000000BRBTTLACNPR7105
012013080502BVMF3       010BMFBOVESPA  ON      NM   R$  000000000121500000000012280000000001180000000000119900000000011900000000001186000000000119014765000000000009962100000000011949109500000000000000009999123100000010000000000000BRBVMFACNOR3125
012013080596BVMF3F      020BMFBOVESPA  ON      NM   R$  000000000122800000000012280000000001181000000000119900000000011850000000001183000000000118500143000000000000004188000000000005019825000000000000009999123100000010000000000000BRBVMFACNOR3125
012013080562BVMF3T      030BMFBOVESPA  ON      NM030R$  000000000119500000000011990000000001191000000000119600000000011990000000000000000000000000000012000000000000070100000000000083900104000000000000009999123100000010000000000000BRBVMFACNOR3125
012013080562BVMF3T      030BMFBOVESPA  ON      NM045R$  000000000119800000000011990000000001198000000000119800000000011990000000000000000000000000000002000000000000000200000000000000239798000000000000009999123100000010000000000000BRBVMFACNOR3125
012013080562BVMF3T      030BMFBOVESPA  ON      NM120R$  000000000121200000000012130000000001212000000000121200000000012130000000000000000000000000000002000000000000005000000000000006062664000000000000009999123100000010000000000000BRBVMFACNOR3125
012013080578BVMFH1      070BVMFE       ON      NM000R$  000000000000300000000000030000000000003000000000000300000000000030000000000002000000000000600006000000000000016000000000000000048000000000000132502013081900000010000000000000BRBVMFACNOR3125
012013080578BVMFH11     070BVMF        ON      NM000R$  000000000012500000000001310000000000095000000000011300000000000960000000000096000000000013000043000000000000028200000000000003189500000000000110002013081900000010000000000000BRBVMFACNOR3125
012013080578BVMFH12     070BVMF  FM    ON      NM000R$  000000000005000000000000540000000000029000000000003800000000000320000000000029000000000003200167000000000000256500000000000009753600000000000120002013081900000010000000000000BRBVMFACNOR3125
012013080578BVMFH13     070BVMF  FM    ON      NM000R$  000000000001000000000000130000000000004000000000000800000000000070000000000006000000000000800341000000000001041400000000000008462800000000000128902013081900000010000000000000BRBVMFACNOR3124
012013080578BVMFH14     070BVMF  FM    ON      NM000R$  000000000000200000000000020000000000001000000000000100000000000010000000000000000000000000100011000000000000021700000000000000022700000000000138902013081900000010000000000000BRBVMFACNOR3124
012013080578BVMFH15     070BVMF        ON      NM000R$  000000000000100000000000010000000000001000000000000100000000000010000000000000000000000000100001000000000000001000000000000000001000000000000150002013081900000010000000000000BRBVMFACNOR3125
012013080578BVMFH40     070BVMF        ON      NM000R$  000000000015200000000001520000000000137000000000014100000000001390000000000000000000000000000005000000000000000900000000000000127100000000000105002013081900000010000000000000BRBVMFACNOR3125
012013080578BVMFH41     070BVMF        ON      NM000R$  000000000008400000000000840000000000040000000000006700000000000400000000000000000000000000000028000000000000115700000000000007792300000000000115002013081900000010000000000000BRBVMFACNOR3125
012013080578BVMFH42     070BVMF  FM    ON      NM000R$  000000000002600000000000260000000000012000000000001500000000000130000000000000000000000000000030000000000000078000000000000001223100000000000125002013081900000010000000000000BRBVMFACNOR3125
012013080578BVMFH43     070BVMF  FM    ON      NM000R$  000000000000300000000000040000000000002000000000000200000000000020000000000001000000000000500038000000000000098200000000000000285200000000000135002013081900000010000000000000BRBVMFACNOR3125
012013080578BVMFH61     070BVMFE       ON      NM000R$  000000000004900000000000490000000000049000000000004900000000000490000000000000000000000000000001000000000000000100000000000000004900000000000117502013081900000010000000000000BRBVMFACNOR3125
012013080578BVMFH62     070BVMFE       ON      NM000R$  000000000002000000000000200000000000020000000000002000000000000200000000000000000000000002100001000000000000002100000000000000042000000000000122502013081900000010000000000000BRBVMFACNOR3125
012013080578BVMFI11     070BVMF        ON      NM000R$  000000000015100000000001510000000000123000000000013600000000001230000000000110000000000012900006000000000000002300000000000000312800000000000110002013091600000010000000000000BRBVMFACNOR3125
012013080578BVMFI12     070BVMF  FM    ON      NM000R$  000000000007100000000000730000000000049000000000006000000000000520000000000049000000000007200091000000000000160200000000000009722800000000000120002013091600000010000000000000BRBVMFACNOR3125
012013080578BVMFI13     070BVMF  FM    ON      NM000R$  000000000002300000000000230000000000014000000000001800000000000160000000000016000000000001800036000000000000089900000000000001636500000000000130002013091600000010000000000000BRBVMFACNOR3125
012013080578BVMFI14     070BVMF  FM    ON      NM000R$  000000000000600000000000060000000000004000000000000400000000000040000000000004000000000000600017000000000000033600000000000000166500000000000140002013091600000010000000000000BRBVMFACNOR3125
012013080578BVMFI42     070BVMF  FM    ON      NM000R$  000000000004300000000000430000000000028000000000003100000000000280000000000000000000000004100006000000000000011700000000000000368700000000000125002013091600000010000000000000BRBVMFACNOR3125
012013080578BVMFI43     070BVMF  FM    ON      NM000R$  000000000001000000000000100000000000008000000000000900000000000080000000000007000000000002500013000000000000020700000000000000189600000000000135002013091600000010000000000000BRBVMFACNOR3125
012013080578BVMFJ12     070BVMF        ON      NM000R$  000000000009100000000000910000000000091000000000009100000000000910000000000000000000000000000001000000000000005000000000000000455000000000000120002013102100000010000000000000BRBVMFACNOR3125
012013080578BVMFJ15     070BVMF        ON      NM000R$  000000000000800000000000080000000000007000000000000700000000000070000000000000000000000000900002000000000000004800000000000000035400000000000150002013102100000010000000000000BRBVMFACNOR3125
012013080582BVMFT1      080BVMFE       ON      NM000R$  000000000012500000000001250000000000125000000000012500000000001250000000000000000000000000000001000000000000000200000000000000025000000000000132502013081900000010000000000000BRBVMFACNOR3125
012013080582BVMFT11     080BVMFE       ON      NM000R$  000000000000600000000000110000000000006000000000000800000000000110000000000008000000000001100019000000000000374700000000000003252700000000000110002013081900000010000000000000BRBVMFACNOR3125
012013080582BVMFT12     080BVMFE FM    ON      NM000R$  000000000003000000000000430000000000024000000000003300000000000430000000000001000000000004300044000000000000391900000000000013225100000000000120002013081900000010000000000000BRBVMFACNOR3125
012013080582BVMFT13     080BVMFE FM    ON      NM000R$  000000000008500000000001110000000000073000000000009200000000001070000000000000000000000000000129000000000000162100000000000014946800000000000128902013081900000010000000000000BRBVMFACNOR3124
012013080582BVMFT14     080BVMFE       ON      NM000R$  000000000016900000000002030000000000169000000000019500000000002030000000000000000000000000000006000000000000018000000000000003518000000000000138902013081900000010000000000000BRBVMFACNOR3124
012013080582BVMFT3      080BVMFE       ON      NM000R$  000000000012900000000001300000000000129000000000012900000000001300000000000000000000000000000003000000000003150000000000000407925000000000000130002014081800000010000000000000BRBVMFACNOR3125
012013080582BVMFT40     080BVMFE       ON      NM000R$  000000000000500000000000050000000000005000000000000500000000000050000000000000000000000000000001000000000000000100000000000000000500000000000105002013081900000010000000000000BRBVMFACNOR3125
012013080582BVMFT41     080BVMFE FM    ON      NM000R$  000000000001500000000000210000000000014000000000001800000000000210000000000001000000000002800062000000000000133900000000000002465700000000000115002013081900000010000000000000BRBVMFACNOR3125
012013080582BVMFT42     080BVMFE FM    ON      NM000R$  000000000005200000000000780000000000050000000000006600000000000760000000000000000000000000000019000000000000049900000000000003305700000000000125002013081900000010000000000000BRBVMFACNOR3125
012013080582BVMFT43     080BVMFE       ON      NM000R$  000000000013200000000001650000000000132000000000014700000000001650000000000000000000000000000004000000000000007500000000000001102500000000000135002013081900000010000000000000BRBVMFACNOR3125
012013080582BVMFT61     080BVMFE       ON      NM000R$  000000000002500000000000260000000000025000000000002500000000000260000000000000000000000000000003000000000000001500000000000000038000000000000117502013081900000010000000000000BRBVMFACNOR3125
012013080582BVMFT62     080BVMFE       ON      NM000R$  000000000003500000000000350000000000035000000000003500000000000350000000000000000000000000000001000000000000003200000000000000112000000000000122502013081900000010000000000000BRBVMFACNOR3125
012013080582BVMFU10     080BVMFE       ON      NM000R$  000000000000800000000000080000000000008000000000000800000000000080000000000000000000000005500002000000000000020000000000000000160000000000000100002013091600000010000000000000BRBVMFACNOR3125
012013080582BVMFU11     080BVMFE       ON      NM000R$  000000000002300000000000230000000000023000000000002300000000000230000000000000000000000002300001000000000000000800000000000000018400000000000110002013091600000010000000000000BRBVMFACNOR3125
012013080582BVMFU12     080BVMFE FM    ON      NM000R$  000000000004600000000000570000000000040000000000004900000000000570000000000033000000000006000076000000000000075800000000000003751600000000000120002013091600000010000000000000BRBVMFACNOR3125
012013080582BVMFU13     080BVMFE FM    ON      NM000R$  000000000009900000000001220000000000099000000000011500000000001200000000000050000000000000000006000000000000019800000000000002284800000000000130002013091600000010000000000000BRBVMFACNOR3125
012013080582BVMFU41     080BVMFE FM    ON      NM000R$  000000000002400000000000370000000000024000000000003200000000000370000000000000000000000000000045000000000000106500000000000003464700000000000115002013091600000010000000000000BRBVMFACNOR3125
012013080582BVMFU42     080BVMFE FM    ON      NM000R$  000000000006300000000000860000000000058000000000006800000000000860000000000000000000000000000011000000000000029000000000000001989600000000000125002013091600000010000000000000BRBVMFACNOR3125
012013080582BVMFV42     080BVMFE       ON      NM000R$  000000000008000000000000800000000000080000000000008000000000000800000000000000000000000000000007000000000000020000000000000001600000000000000125002013102100000010000000000000BRBVMFACNOR3125
012013080582BVMFW10     080BVMFE       ON      NM000R$  000000000001800000000000180000000000018000000000001800000000000180000000000000000000000002000001000000000000000200000000000000003600000000000100002013111800000010000000000000BRBVMFACNOR3125
012013080582BVMFW11     080BVMFE       ON      NM000R$  000000000003600000000000400000000000036000000000003800000000000400000000000000000000000000000002000000000000000400000000000000015200000000000110002013111800000010000000000000BRBVMFACNOR3125
012013080582BVMFX11     080BVMFE       ON      NM000R$  000000000004500000000000470000000000045000000000004500000000000470000000000000000000000005000002000000000000000300000000000000013700000000000110002013121600000010000000000000BRBVMFACNOR3125
012013080502CAMB4       010CAMBUCI     PN           R$  000000000017600000000001940000000000176000000000018900000000001940000000000173000000000019500008000000000000010700000000000002029800000000000000009999123100000010000000000000BRCAMBACNPR1117
012013080502CARD3       010CSU CARDSYSTON      NM   R$  000000000034000000000003400000000000331000000000033300000000003310000000000326000000000033100013000000000000018900000000000006310800000000000000009999123100000010000000000000BRCARDACNOR9105
012013080596CARD3F      020CSU CARDSYSTON      NM   R$  000000000033000000000003300000000000330000000000033000000000003300000000000330000000000033400001000000000000000009000000000000002970000000000000009999123100000010000000000000BRCARDACNOR9105
012013080502CBMA3       010COBRASMA    ON           R$  000000000000600000000000070000000000006000000000000600000000000070000000000006000000000000800005000000000000060000000000000000370000000000000000009999123100000010000000000000BRCBMAACNOR4124
012013080596CBMA3F      020COBRASMA    ON           R$  000000000000500000000000060000000000005000000000000500000000000060000000000005000000000000600002000000000000003000000000000000015001000000000000009999123100000010000000000000BRCBMAACNOR4124
012013080502CBMA4       010COBRASMA    PN           R$  000000000000500000000000080000000000005000000000000600000000000070000000000007000000000000800071000000000003900000000000000023920000000000000000009999123100000010000000000000BRCBMAACNPR1124
012013080596CBMA4F      020COBRASMA    PN           R$  000000000000500000000000080000000000004000000000000500000000000080000000000006000000000000700027000000000000058561000000000000349640000000000000009999123100000010000000000000BRCBMAACNPR1124
012013080508CCHI3       010CHIARELLI   ON           R$  000000000003300000000000340000000000030000000000003100000000000300000000000030000000000003100061000000000000880000000000000027690000000000000000009999123100000010000000000000BRCCHIACNOR5123
012013080596CCHI3F      020CHIARELLI   ON           R$  000000000003300000000000330000000000030000000000003100000000000300000000000030000000000003300011000000000000024100000000000000766200000000000000009999123100000010000000000000BRCCHIACNOR5123
012013080502CCPR3       010CYRE COM-CCPON      NM   R$  000000000218500000000021850000000002157000000000216100000000021570000000002157000000000222000009000000000000001800000000000003889900000000000000009999123100000010000000000000BRCCPRACNOR9107
012013080596CCPR3F      020CYRE COM-CCPON      NM   R$  000000000211100000000023950000000002111000000000214600000000023950000000002123000000000239500004000000000000000044000000000000094442000000000000009999123100000010000000000000BRCCPRACNOR9107
012013080502CCRO3       010CCR SA      ON      NM   R$  000000000177500000000018000000000001765000000000178000000000017750000000001775000000000177807882000000000003326100000000005921314900000000000000009999123100000010000000000000BRCCROACNOR2122
012013080596CCRO3F      020CCR SA      ON      NM   R$  000000000177500000000017980000000001766000000000178000000000017660000000001765000000000179000061000000000000001767000000000003145769000000000000009999123100000010000000000000BRCCROACNOR2122
012013080562CCRO3T      030CCR SA      ON      NM060R$  000000000180700000000018080000000001807000000000180700000000018080000000000000000000000000000002000000000000003800000000000006866868000000000000009999123100000010000000000000BRCCROACNOR2122
012013080502CCXC3       010CCX CARVAO  ON      NM   R$  000000000008700000000000880000000000082000000000008500000000000840000000000083000000000008400200000000000000569200000000000048409600000000000000009999123100000010000000000000BRCCXCACNOR5100
012013080596CCXC3F      020CCX CARVAO  ON      NM   R$  000000000008600000000000900000000000084000000000008400000000000840000000000084000000000008800004000000000000000101000000000000008570000000000000009999123100000010000000000000BRCCXCACNOR5100
012013080502CEDO3       010CEDRO       ON      N1   R$  000000000100000000000010000000000001000000000000100000000000010000000000000960000000000100000001000000000000000100000000000000100000000000000000009999123100000010000000000000BRCEDOACNOR8094
012013080508CELP3       010CELPA       ON           R$  000000000006000000000000600000000000060000000000006000000000000600000000000056000000000006000006000000000000037700000000000002262000000000000000009999123100000010000000000000BRCELPACNOR8112
012013080512CEOC11B     010FII CEO CCP CI      MB   R$  000000000911000000000091200000000009100000000000910800000000091200000000009110000000000912000016000000000000001460000000000013297768000000000000009999123100000010000000000000BRCEOCCTF003108
012013080596CEPE5F      020CELPE       PNA          R$  000000000180000000000018000000000001800000000000180000000000018000000000001800000000000439300002000000000000000022000000000000039600000000000000009999123100000010000000000000BRCEPEACNPA6151
012013080502CESP3       010CESP        ON      N1   R$  000000000168000000000016800000000001612000000000161900000000016120000000001611000000000168000008000000000000002000000000000003238200000000000000009999123100000010000000000000BRCESPACNOR3159
012013080502CESP6       010CESP        PNB     N1   R$  000000000195000000000020060000000001950000000000198600000000019910000000001977000000000199102670000000000000627300000000001246223100000000000000009999123100000010000000000000BRCESPACNPB4118
012013080596CESP6F      020CESP        PNB     N1   R$  000000000196600000000020000000000001951000000000198000000000019510000000001951000000000200000030000000000000000873000000000001729304000000000000009999123100000010000000000000BRCESPACNPB4118
012013080502CGAS3       010COMGAS      ON           R$  000000000500000000000050500000000005000000000000502800000000050500000000005049000000000514300005000000000000002100000000000010560000000000000000009999123100000010000000000000BRCGASACNOR0132
012013080596CGAS3F      020COMGAS      ON           R$  000000000505000000000050500000000005050000000000505000000000050500000000004100000000000510000001000000000000000012000000000000060600000000000000009999123100000010000000000000BRCGASACNOR0132
012013080502CGAS5       010COMGAS      PNA          R$  000000000556000000000055990000000005531000000000557000000000055830000000005565000000000558400050000000000000008200000000000045675300000000000000009999123100000010000000000000BRCGASACNPA3129
012013080596CGAS5F      020COMGAS      PNA          R$  000000000555700000000056000000000005540000000000554500000000056000000000005520000000000558000005000000000000000071000000000000393711000000000000009999123100000010000000000000BRCGASACNPA3129
012013080502CGRA4       010GRAZZIOTIN  PN           R$  000000000162000000000016260000000001600000000000161100000000016060000000001606000000000163900033000000000000034500000000000055586700000000000000009999123100000010000000000000BRCGRAACNPR9061
012013080596CGRA4F      020GRAZZIOTIN  PN           R$  000000000170000000000017000000000001700000000000170000000000017000000000001609000000000190000002000000000000000017000000000000028900000000000000009999123100000010000000000000BRCGRAACNPR9061
012013080562CGRA4T      030GRAZZIOTIN  PN        091R$  000000000165200000000016530000000001652000000000165200000000016530000000000000000000000000000002000000000000002100000000000003471061000000000000009999123100000010000000000000BRCGRAACNPR9061
012013080502CHVX11B     010CHEVRON     DRN     MB   R$  000000002851000000000285100000000028510000000002851000000000285100000000025500000000003100000002000000000000008400000000000239484000000000000000009999123100000010000000000000BRCHVXBDR008108
012013080502CIEL3       010CIELO       ON      NM   R$  000000000564000000000056530000000005590000000000561900000000056200000000005620000000000562103861000000000000851100000000004782689700000000000000009999123100000010000000000000BRCIELACNOR3111
012013080596CIEL3F      020CIELO       ON      NM   R$  000000000564900000000056500000000005592000000000561900000000056300000000005607000000000563000132000000000000002932000000000016478273000000000000009999123100000010000000000000BRCIELACNOR3111
012013080578CIELH57     070CIEL        ON      NM000R$  000000000004500000000000610000000000045000000000004700000000000610000000000030000000000000000008000000000000001700000000000000080600000000000570002013081900000010000000000000BRCIELACNOR3111
012013080578CIELL55     070CIEL        ON      NM000R$  000000000040900000000004100000000000409000000000040900000000004100000000000000000000000000000002000000000000015000000000000006144000000000000550002013121600000010000000000000BRCIELACNOR3111
012013080582CIELX50     080CIELE       ON      NM000R$  000000000006500000000000650000000000065000000000006500000000000650000000000000000000000000000001000000000000050000000000000003250000000000000500002013121600000010000000000000BRCIELACNOR3111
012013080502CLSC4       010CELESC      PN      N2   R$  000000000192000000000019200000000001880000000000188800000000019000000000001870000000000190000019000000000000006100000000000011519600000000000000009999123100000010000000000000BRCLSCACNPR3107
012013080596CLSC4F      020CELESC      PN      N2   R$  000000000192500000000019250000000001925000000000192500000000019250000000001805000000000195000001000000000000000071000000000000136675000000000000009999123100000010000000000000BRCLSCACNPR3107
012013080502CMIG3       010CEMIG       ON      N1   R$  000000000206000000000020810000000002030000000000205900000000020300000000002030000000000205000368000000000000112400000000000231493800000000000000009999123100000010000000000000BRCMIGACNOR6208
012013080596CMIG3F      020CEMIG       ON      N1   R$  000000000206800000000020700000000002039000000000205500000000020420000000002042000000000205500031000000000000000637000000000001309617000000000000009999123100000010000000000000BRCMIGACNOR6208
012013080502CMIG4       010CEMIG       PN      N1   R$  000000000206000000000020940000000002030000000000207100000000020640000000002063000000000206404791000000000002093100000000004335147100000000000000009999123100000010000000000000BRCMIGACNPR3208
012013080596CMIG4F      020CEMIG       PN      N1   R$  000000000209900000000021100000000002030000000000207000000000020830000000002073000000000208300220000000000000005267000000000010907522000000000000009999123100000010000000000000BRCMIGACNPR3208
012013080562CMIG4T      030CEMIG       PN      N1060R$  000000000211800000000021190000000002118000000000211800000000021190000000000000000000000000000002000000000000000200000000000000423643000000000000009999123100000010000000000000BRCMIGACNPR3208
012013080578CMIGH22     070CMIG        PN      N1000R$  000000000000800000000000080000000000008000000000000800000000000080000000000006000000000002300001000000000000000300000000000000002400000000000220002013081900000010000000000000BRCMIGACNPR3208
012013080512CNES11B     010FII CENESP  CI      MB   R$  000000001241500000000125010000000012100000000001225700000000121000000000012051000000001210000031000000000000001000000000000012257200000000000000009999123100000010000000000000BRCNESCTF001124
012013080502COCE3       010COELCE      ON           R$  000000000425200000000042570000000004180000000000420900000000042180000000004160000000000421900023000000000000003700000000000015573600000000000000009999123100000010000000000000BRCOCEACNOR0132
012013080502COCE5       010COELCE      PNA          R$  000000000414000000000041500000000004065000000000409000000000040760000000004076000000000408900103000000000000038100000000000155849700000000000000009999123100000010000000000000BRCOCEACNPA3133
012013080596COCE5F      020COELCE      PNA          R$  000000000417800000000041880000000004080000000000413700000000041880000000004080000000000418800015000000000000000256000000000001059220000000000000009999123100000010000000000000BRCOCEACNPA3133
012013080562COCE5T      030COELCE      PNA       091R$  000000000422400000000042250000000004224000000000422400000000042250000000000000000000000000000002000000000000000800000000000003379234000000000000009999123100000010000000000000BRCOCEACNPA3133
012013080502CPFE3       010CPFL ENERGIAON      NM   R$  000000000210900000000021390000000002086000000000211800000000021190000000002116000000000211902194000000000000483500000000001024324900000000000000009999123100000010000000000000BRCPFEACNOR0121
012013080596CPFE3F      020CPFL ENERGIAON      NM   R$  000000000210000000000021350000000002100000000000211700000000021250000000002115000000000216200026000000000000000768000000000001626154000000000000009999123100000010000000000000BRCPFEACNOR0121
012013080502CPLE3       010COPEL       ON      N1   R$  000000000218000000000022010000000002153000000000218800000000021920000000002151000000000219200024000000000000006600000000000014444000000000000000009999123100000010000000000000BRCPLEACNOR8128
012013080502CPLE6       010COPEL       PNB     N1   R$  000000000280500000000028370000000002772000000000280100000000027930000000002790000000000279300971000000000000222900000000000624364300000000000000009999123100000010000000000000BRCPLEACNPB9125
012013080596CPLE6F      020COPEL       PNB     N1   R$  000000000286400000000029500000000002717000000000283600000000028000000000002800000000000289100030000000000000000745000000000002113052000000000000009999123100000010000000000000BRCPLEACNPB9125
012013080502CPRE3       010CPFL RENOVAVON      NM   R$  000000000119500000000011950000000001195000000000119500000000011950000000001171000000000119000002000000000000003800000000000004541000000000000000009999123100000010000000000000BRCPREACNOR5100
012013080596CPRE3F      020CPFL RENOVAVON      NM   R$  000000000118500000000012000000000001166000000000117800000000011660000000001130000000000118100006000000000000000090000000000000106062000000000000009999123100000010000000000000BRCPREACNOR5100
012013080596CPTP3BF     020CAPITALPART ON      MB   R$  000000000000500000000000050000000000005000000000000500000000000050000000000005000000000000000001000000000000000011000000000000000055000000000000009999123100000010000000000000BRCPTPACNOR7104
012013080502CRDE3       010CR2         ON      NM   R$  000000000040100000000004050000000000400000000000040100000000004050000000000405000000000041000005000000000000001200000000000000481400000000000000009999123100000010000000000000BRCRDEACNOR1108
012013080502CREM3       010CREMER      ON      NM   R$  000000000149300000000015000000000001480000000000148900000000014800000000001480000000000149000006000000000000001200000000000001787700000000000000009999123100000010000000000000BRCREMACNOR2166
012013080596CREM3F      020CREMER      ON      NM   R$  000000000145000000000014500000000001450000000000145000000000014500000000001356000000000153000001000000000000000007000000000000010150000000000000009999123100000010000000000000BRCREMACNOR2166
012013080502CRIV4       010ALFA FINANC PN           R$  000000000048500000000004870000000000485000000000048600000000004870000000000473000000000048700002000000000000000300000000000000145900000000000000009999123100000010000000000000BRCRIVACNPR1189
012013080596CRIV4F      020ALFA FINANC PN           R$  000000000048600000000004860000000000486000000000048600000000004860000000000452000000000049000001000000000000000020000000000000009720000000000000009999123100000010000000000000BRCRIVACNPR1189
012013080502CRUZ3       010SOUZA CRUZ  ON           R$  000000000258200000000026200000000002570000000000259200000000026010000000002600000000000260103793000000000001080700000000002801483400000000000000009999123100000010000000000000BRCRUZACNOR0246
012013080596CRUZ3F      020SOUZA CRUZ  ON           R$  000000000260000000000027700000000002572000000000259800000000026210000000002610000000000262100237000000000000005240000000000013615477000000000000009999123100000010000000000000BRCRUZACNOR0246
012013080562CRUZ3T      030SOUZA CRUZ  ON        016R$  000000000258900000000025900000000002589000000000258900000000025900000000000000000000000000000002000000000000004000000000000010356650000000000000009999123100000010000000000000BRCRUZACNOR0246
012013080562CRUZ3T      030SOUZA CRUZ  ON        030R$  000000000259800000000026130000000002598000000000261200000000026130000000000000000000000000000004000000000000003700000000000009665193000000000000009999123100000010000000000000BRCRUZACNOR0246
012013080562CRUZ3T      030SOUZA CRUZ  ON        037R$  000000000259300000000025940000000002593000000000259300000000025940000000000000000000000000000002000000000000000500000000000001296802000000000000009999123100000010000000000000BRCRUZACNOR0246
012013080562CRUZ3T      030SOUZA CRUZ  ON        060R$  000000000261600000000026340000000002613000000000262300000000026340000000000000000000000000000006000000000000096000000000000251826423000000000000009999123100000010000000000000BRCRUZACNOR0246
012013080502CSAB4       010SEG AL BAHIAPN           R$  000000000300000000000030000000000003000000000000300000000000030000000000003000000000000000000002000000000000000200000000000000600000000000000000009999123100000010000000000000BRCSABACNPR8051
012013080502CSAN3       010COSAN       ON  ED  NM   R$  000000000432000000000043370000000004262000000000429300000000042750000000004274000000000427502029000000000000539700000000002317209600000000000000009999123100000010000000000000BRCSANACNOR6108
012013080596CSAN3F      020COSAN       ON  ED  NM   R$  000000000430000000000043360000000004253000000000429800000000043170000000004264000000000431700063000000000000001757000000000007550800000000000000009999123100000010000000000000BRCSANACNOR6108
012013080562CSAN3T      030COSAN       ON  ED  NM091R$  000000000440400000000044110000000004395000000000440500000000044090000000000000000000000000000022000000000000100000000000000440560312000000000000009999123100000010000000000000BRCSANACNOR6108
012013080502CSMG3       010COPASA      ON      NM   R$  000000000349900000000035520000000003411000000000346700000000034720000000003472000000000347401573000000000000252400000000000875133100000000000000009999123100000010000000000000BRCSMGACNOR5127
012013080596CSMG3F      020COPASA      ON      NM   R$  000000000350000000000036230000000003430000000000348400000000034300000000003333000000000359700018000000000000000522000000000001818940000000000000009999123100000010000000000000BRCSMGACNOR5127
012013080514CSMO11      010ISHARES CSMOCI           R$  000000000461500000000046170000000004600000000000461300000000046000000000003800000000000465000005000000000000000370000000000001706950000000000000009999123100000010000000000000BRCSMOCTF002100
012013080502CSNA3       010SID NACIONALON           R$  000000000064800000000006650000000000644000000000065600000000006560000000000656000000000065709872000000000004795000000000003147888200000000000000009999123100000010000000000000BRCSNAACNOR6242
012013080596CSNA3F      020SID NACIONALON           R$  000000000064600000000006630000000000646000000000065500000000006610000000000650000000000066100054000000000000001700000000000001113584000000000000009999123100000010000000000000BRCSNAACNOR6242
012013080562CSNA3T      030SID NACIONALON        016R$  000000000065800000000006590000000000658000000000065800000000006590000000000000000000000000000002000000000000001500000000000000988231000000000000009999123100000010000000000000BRCSNAACNOR6242
012013080562CSNA3T      030SID NACIONALON        030R$  000000000066200000000006630000000000662000000000066200000000006630000000000000000000000000000004000000000000013600000000000009012337000000000000009999123100000010000000000000BRCSNAACNOR6242
012013080562CSNA3T      030SID NACIONALON        091R$  000000000067000000000006710000000000670000000000067000000000006710000000000000000000000000000002000000000000010000000000000006702057000000000000009999123100000010000000000000BRCSNAACNOR6242
012013080578CSNAH6      070CSNA        ON        000R$  000000000007300000000000730000000000073000000000007300000000000730000000000000000000000007500001000000000000000100000000000000007300000000000060002013081900000010000000000000BRCSNAACNOR6242
012013080578CSNAH64     070CSNA  FM    ON        000R$  000000000003600000000000420000000000036000000000003900000000000390000000000000000000000000000004000000000000014500000000000000571500000000000064002013081900000010000000000000BRCSNAACNOR6242
012013080578CSNAH68     070CSNA  FM    ON        000R$  000000000002300000000000230000000000023000000000002300000000000230000000000000000000000000000002000000000000002000000000000000046000000000000068002013081900000010000000000000BRCSNAACNOR6242
012013080578CSNAH7      070CSNA  FM    ON        000R$  000000000001400000000000190000000000011000000000001200000000000140000000000013000000000001700041000000000000136000000000000001765700000000000070002013081900000010000000000000BRCSNAACNOR6242
012013080578CSNAH78     070CSNA        ON        000R$  000000000000200000000000020000000000002000000000000200000000000020000000000002000000000000000001000000000000000100000000000000000200000000000078002013081900000010000000000000BRCSNAACNOR6242
012013080578CSNAI64     070CSNA  FM    ON        000R$  000000000005300000000000600000000000051000000000005400000000000600000000000000000000000000000006000000000000020000000000000001093500000000000064002013091600000010000000000000BRCSNAACNOR6242
012013080578CSNAI66     070CSNA  FM    ON        000R$  000000000004200000000000470000000000041000000000004300000000000470000000000000000000000000000005000000000000016500000000000000710500000000000066002013091600000010000000000000BRCSNAACNOR6242
012013080578CSNAI68     070CSNA  FM    ON        000R$  000000000003400000000000380000000000033000000000003400000000000380000000000000000000000000000007000000000000016500000000000000575500000000000068002013091600000010000000000000BRCSNAACNOR6242
012013080578CSNAI7      070CSNA  FM    ON        000R$  000000000002700000000000300000000000027000000000002700000000000280000000000022000000000003300005000000000000003400000000000000094700000000000070002013091600000010000000000000BRCSNAACNOR6242
012013080578CSNAJ7      070CSNA        ON        000R$  000000000003700000000000370000000000037000000000003700000000000370000000000000000000000000000001000000000000001000000000000000037000000000000070002013102100000010000000000000BRCSNAACNOR6242
012013080582CSNAU66     080CSNAE FM    ON        000R$  000000000004500000000000450000000000045000000000004500000000000450000000000000000000000000000001000000000000002000000000000000090000000000000066002013091600000010000000000000BRCSNAACNOR6242
012013080582CSNAU68     080CSNAE FM    ON        000R$  000000000005900000000000590000000000055000000000005600000000000560000000000000000000000000000005000000000000010000000000000000564000000000000068002013091600000010000000000000BRCSNAACNOR6242
012013080582CSNAU7      080CSNAE       ON        000R$  000000000008200000000000820000000000067000000000007800000000000670000000000061000000000008200003000000000000000900000000000000071000000000000070002013091600000010000000000000BRCSNAACNOR6242
012013080502CTAX11      010CONTAX      UNT     N2   R$  000000000165000000000016640000000001640000000000164800000000016400000000001638000000000164000033000000000000019900000000000032795800000000000000009999123100000010000000000000BRCTAXCDAM19100
012013080596CTAX11F     020CONTAX      UNT     N2   R$  000000000163000000000016500000000001630000000000163200000000016500000000001555000000000164000005000000000000000074000000000000120800000000000000009999123100000010000000000000BRCTAXCDAM19100
012013080502CTAX3       010CONTAX      ON      N2   R$  000000000044000000000004400000000000422000000000042800000000004220000000000383000000000039600004000000000000000800000000000000343000000000000000009999123100000010000000000000BRCTAXACNOR3113
012013080502CTAX4       010CONTAX      PN      N2   R$  000000000031400000000003180000000000307000000000031300000000003150000000000315000000000032000067000000000000058200000000000018273500000000000000009999123100000010000000000000BRCTAXACNPR0114
012013080596CTAX4F      020CONTAX      PN      N2   R$  000000000031000000000003140000000000310000000000031200000000003140000000000303000000000033800003000000000000000090000000000000028100000000000000009999123100000010000000000000BRCTAXACNPR0114
012013080502CTGP11B     010CITIGROUP   DRN ED  MB   R$  000000001224000000000122400000000012240000000001224000000000122400000000012120000000001224000001000000000000000100000000000001224000000000000000009999123100000010000000000000BRCTGPBDR000111
012013080502CTIP3       010CETIP       ON      NM   R$  000000000239500000000023950000000002327000000000236000000000023490000000002335000000000234904192000000000001163600000000002746677800000000000000009999123100000010000000000000BRCTIPACNOR2119
012013080596CTIP3F      020CETIP       ON      NM   R$  000000000239100000000024390000000002301000000000235300000000023060000000002306000000000236000036000000000000001060000000000002493028000000000000009999123100000010000000000000BRCTIPACNOR2119
012013080562CTIP3T      030CETIP       ON      NM016R$  000000000237900000000023810000000002379000000000238000000000023810000000000000000000000000000004000000000000016800000000000039987780000000000000009999123100000010000000000000BRCTIPACNOR2119
012013080562CTIP3T      030CETIP       ON      NM060R$  000000000236900000000023700000000002369000000000236900000000023700000000000000000000000000000002000000000000003000000000000007107290000000000000009999123100000010000000000000BRCTIPACNOR2119
012013080502CTNM4       010COTEMINAS   PN           R$  000000000022900000000002330000000000229000000000023200000000002330000000000231000000000023400007000000000000022400000000000005200400000000000000009999123100000010000000000000BRCTNMACNPR6128
012013080502CTSA3       010SANTANENSE  ON           R$  000000000059700000000005970000000000597000000000059700000000005970000000000540000000000059800001000000000000000100000000000000059700000000000000009999123100000010000000000000BRCTSAACNOR3051
012013080512CXCE11B     010FII CX CEDAECI  ER  MB   R$  000000019300000000001930000000000193000000000019300000000001930000000000193100000000019500000001000000000000000010000000000001930000000000000000009999123100000010000000000000BRCXCECTF004137
012013080502CYRE3       010CYRELA REALTON      NM   R$  000000000163200000000016560000000001614000000000163900000000016400000000001635000000000164009467000000000002178700000000003571442500000000000000009999123100000010000000000000BRCYREACNOR7125
012013080596CYRE3F      020CYRELA REALTON      NM   R$  000000000164400000000016990000000001616000000000164600000000016990000000001615000000000169900026000000000000000978000000000001610715000000000000009999123100000010000000000000BRCYREACNOR7125
012013080578CYREH16     070CYRE  FM    ON      NM000R$  000000000005100000000000710000000000050000000000005800000000000660000000000000000000000000000010000000000000032600000000000001919100000000000160002013081900000010000000000000BRCYREACNOR7125
012013080578CYREH17     070CYRE  FM    ON      NM000R$  000000000001400000000000140000000000014000000000001400000000000140000000000011000000000000000001000000000000003500000000000000049000000000000170002013081900000010000000000000BRCYREACNOR7125
012013080578CYREH18     070CYRE  FM    ON      NM000R$  000000000000200000000000020000000000002000000000000200000000000020000000000000000000000000000003000000000000010500000000000000021000000000000180002013081900000010000000000000BRCYREACNOR7125
012013080578CYREH46     070CYRE  FM    ON      NM000R$  000000000002900000000000340000000000029000000000003100000000000290000000000000000000000000000004000000000000013700000000000000427900000000000165002013081900000010000000000000BRCYREACNOR7125
012013080578CYREH47     070CYRE  FM    ON      NM000R$  000000000000600000000000060000000000006000000000000600000000000060000000000000000000000000000003000000000000010500000000000000063000000000000175002013081900000010000000000000BRCYREACNOR7125
012013080578CYREI16     070CYRE  FM    ON      NM000R$  000000000009300000000000990000000000093000000000009600000000000980000000000000000000000000000006000000000000018800000000000001819700000000000160002013091600000010000000000000BRCYREACNOR7125
012013080578CYREI46     070CYRE  FM    ON      NM000R$  000000000006800000000000680000000000068000000000006800000000000680000000000000000000000000000001000000000000003500000000000000238000000000000165002013091600000010000000000000BRCYREACNOR7125
012013080578CYREJ16     070CYRE        ON      NM000R$  000000000012400000000001290000000000124000000000012600000000001290000000000000000000000000000002000000000000006000000000000000759000000000000160002013102100000010000000000000BRCYREACNOR7125
012013080582CYRET16     080CYREE FM    ON      NM000R$  000000000002200000000000220000000000022000000000002200000000000220000000000000000000000000000001000000000000000700000000000000015400000000000160002013081900000010000000000000BRCYREACNOR7125
012013080582CYRET17     080CYREE FM    ON      NM000R$  000000000007800000000000780000000000067000000000007100000000000670000000000000000000000000000007000000000000021400000000000001526400000000000170002013081900000010000000000000BRCYREACNOR7125
012013080582CYRET46     080CYREE FM    ON      NM000R$  000000000004200000000000420000000000042000000000004200000000000420000000000000000000000000000001000000000000003500000000000000147000000000000165002013081900000010000000000000BRCYREACNOR7125
012013080582CYRET65     080CYREE       ON      NM000R$  000000000000800000000000080000000000008000000000000800000000000080000000000000000000000000000001000000000000000700000000000000005600000000000152502013081900000010000000000000BRCYREACNOR7125
012013080582CYREU17     080CYREE FM    ON      NM000R$  000000000008500000000000880000000000085000000000008600000000000880000000000000000000000000000004000000000000013200000000000001139500000000000170002013091600000010000000000000BRCYREACNOR7125
012013080582CYREU45     080CYREE FM    ON      NM000R$  000000000003200000000000320000000000032000000000003200000000000320000000000000000000000000000001000000000000003500000000000000112000000000000155002013091600000010000000000000BRCYREACNOR7125
012013080582CYREU46     080CYREE FM    ON      NM000R$  000000000005900000000000590000000000059000000000005900000000000590000000000000000000000000000001000000000000003300000000000000194700000000000165002013091600000010000000000000BRCYREACNOR7125
012013080502CZLT11      010COSAN LTD   DR3          R$  000000000361900000000036410000000003608000000000362700000000036300000000003630000000000365700353000000000000079700000000000289148200000000000000009999123100000010000000000000BRCZLTBDR009104
012013080502DAGB11      010DUFRY AG    DR3          R$  000000002936000000000297640000000029251000000002946300000000296000000000029550000000002960000820000000000000010418000000000306951491000000000000009999123100000010000000000000BRDAGBBDR008100
012013080502DASA3       010DASA        ON      NM   R$  000000000120700000000012180000000001193000000000120300000000012150000000001215000000000121704106000000000000874300000000001051838700000000000000009999123100000010000000000000BRDASAACNOR1108
012013080596DASA3F      020DASA        ON      NM   R$  000000000119200000000012400000000001191000000000120000000000012120000000001212000000000129900012000000000000000343000000000000411947000000000000009999123100000010000000000000BRDASAACNOR1108
012013080502DAYC4       010DAYCOVAL    PN      N2   R$  000000000082400000000008240000000000811000000000081700000000008230000000000816000000000082300102000000000000022600000000000018484300000000000000009999123100000010000000000000BRDAYCACNPR2128
012013080502DIRR3       010DIRECIONAL  ON      NM   R$  000000000131900000000013270000000001267000000000128500000000012850000000001285000000000129301885000000000000418800000000000538530900000000000000009999123100000010000000000000BRDIRRACNOR0104
012013080596DIRR3F      020DIRECIONAL  ON      NM   R$  000000000133000000000013530000000001270000000000130000000000012760000000001275000000000148000043000000000000001421000000000001847319000000000000009999123100000010000000000000BRDIRRACNOR0104
012013080562DIRR3T      030DIRECIONAL  ON      NM360R$  000000000141700000000014180000000001417000000000141700000000014180000000000000000000000000000002000000000000001000000000000001417502000000000000009999123100000010000000000000BRDIRRACNOR0104
012013080514DIVO11      010IT NOW IDIV CI           R$  000000000313800000000031560000000003133000000000314300000000031370000000003136000000000330000022000000000000001300000000000004086930000000000000009999123100000010000000000000BRDIVOCTF002100
012013080596DIVO11F     020IT NOW IDIV CI           R$  000000000310000000000031570000000002900000000000306800000000031000000000002900000000000314500010000000000000000031000000000000095126000000000000009999123100000010000000000000BRDIVOCTF002100
012013080502DTEX3       010DURATEX     ON      NM   R$  000000000129900000000013190000000001286000000000130000000000013130000000001300000000000131303127000000000000744800000000000968917100000000000000009999123100000010000000000000BRDTEXACNOR3115
012013080596DTEX3F      020DURATEX     ON      NM   R$  000000000133900000000013390000000001283000000000129900000000013090000000001297000000000130900048000000000000001428000000000001856693000000000000009999123100000010000000000000BRDTEXACNOR3115
012013080562DTEX3T      030DURATEX     ON      NM091R$  000000000131500000000013160000000001315000000000131500000000013160000000000000000000000000000002000000000000003000000000000003947787000000000000009999123100000010000000000000BRDTEXACNOR3115
012013080502EALT4       010ACO ALTONA  PN           R$  000000000237800000000023780000000002300000000000232400000000023780000000002200000000000237800007000000000000001600000000000003719100000000000000009999123100000010000000000000BREALTACNPR1123
012013080502EBTP3       010EMBRATEL PARON *         R$  000000000090000000000009000000000000900000000000090000000000009000000000000852000000000099000002000000000001200000000000000001080000000000000000009999123100010000000000000000BREBTPACNOR3115
012013080596EBTP3F      020EMBRATEL PARON *         R$  000000000085100000000008510000000000851000000000085100000000008510000000000851000000000095000002000000000000006641000000000000005650000000000000009999123100010000000000000000BREBTPACNOR3115
012013080502EBTP4       010EMBRATEL PARPN *         R$  000000000090000000000009000000000000900000000000090000000000009000000000000890000000000099900007000000000002500000000000000002250000000000000000009999123100010000000000000000BREBTPACNPR0120
012013080596EBTP4F      020EMBRATEL PARPN *         R$  000000000090000000000010000000000000900000000000091800000000010000000000000905000000000100000004000000000000025057000000000000023002000000000000009999123100010000000000000000BREBTPACNPR0120
012013080514ECOO11      010ISHARES ECOOCI           R$  000000000516400000000051850000000005133000000000515500000000051440000000005050000000000518000014000000000000004910000000000025311450000000000000009999123100000010000000000000BRECOOCTF008100
012013080502ECOR3       010ECORODOVIAS ON      NM   R$  000000000161400000000016160000000001600000000000161000000000016100000000001608000000000161001861000000000000853400000000001374608300000000000000009999123100000010000000000000BRECORACNOR8106
012013080596ECOR3F      020ECORODOVIAS ON      NM   R$  000000000161200000000016120000000001604000000000160800000000016050000000001580000000000161700007000000000000000115000000000000184947000000000000009999123100000010000000000000BRECORACNOR8106
