00COTAHIST.2013BOVESPA 20130703                                                                                                                                                                                                                      
012013070302AAPL11B     010APPLE       DRN     MB   R$  000000000958100000000095810000000009550000000000957500000000095500000000009455000000000955000002000000000000001200000000000011491000000000000000009999123100000010000000000000BRAAPLBDR004104
012013070302ABCB4       010ABC BRASIL  PN  EJS N2   R$  000000000130400000000013040000000001248000000000127200000000012750000000001275000000000128900763000000000000181100000000000230440700000000000000009999123100000010000000000000BRABCBACNPR4120
012013070396ABCB4F      020ABC BRASIL  PN  EJS N2   R$  000000000127100000000013300000000001271000000000128600000000012790000000001279000000000134000006000000000000000258000000000000331800000000000000009999123100000010000000000000BRABCBACNPR4120
012013070302ABRE11      010ABRIL EDUCA UNT     N2   R$  000000000380000000000038000000000003625000000000367400000000036650000000003665000000000368301263000000000000231700000000000851325000000000000000009999123100000010000000000000BRABRECDAM15102
012013070396ABRE11F     020ABRIL EDUCA UNT     N2   R$  000000000366300000000037550000000003621000000000369800000000036650000000003641000000000368000015000000000000000460000000000001701412000000000000009999123100000010000000000000BRABRECDAM15102
012013070302ABTT11B     010ABBOTT      DRN     MB   R$  000000000196000000000019600000000001960000000000196000000000019600000000001900000000000196000001000000000000000100000000000000196000000000000000009999123100000010000000000000BRABTTBDR007106
012013070302AEDU3       010ANHANGUERA  ON      NM   R$  000000000124900000000012520000000001194000000000122400000000012250000000001225000000000122805447000000000002396900000000002935657700000000000000009999123100000010000000000000BRAEDUACNOR9107
012013070396AEDU3F      020ANHANGUERA  ON      NM   R$  000000000126200000000012620000000001200000000000122000000000012220000000001223000000000124900028000000000000001027000000000001252996000000000000009999123100000010000000000000BRAEDUACNOR9107
012013070312AEFI11      010FII AESAPAR CI  ER       R$  000000001220000000000123550000000012190000000001225000000000123550000000012300000000001238900069000000000000001593000000000019514293000000000000009999123100000010000000000000BRAEFICTF002119
012013070302AELP3       010AES ELPA    ON           R$  000000000075600000000007560000000000756000000000075600000000007560000000000684000000000075500001000000000000000100000000000000075600000000000000009999123100000010000000000000BRAELPACNOR2119
012013070396AELP3F      020AES ELPA    ON           R$  000000000064800000000007480000000000648000000000067600000000007480000000000648000000000199900002000000000000000028000000000000018944000000000000009999123100000010000000000000BRAELPACNOR2119
012013070312AGCX11      010FII AG CAIXACI  ER       R$  000000010100000000001010000000000100500000000010095500000001010000000000100500000000010200000012000000000000000686000000000069255450000000000000009999123100000010000000000000BRAGCXCTF003108
012013070302AGEN11      010AGRENCO     DR3          R$  000000000004200000000000430000000000041000000000004100000000000410000000000041000000000004200225000000000001717300000000000071266600000000000000009999123100000010000000000000BRAGENBDR001100
012013070396AGEN11F     020AGRENCO     DR3          R$  000000000004100000000000410000000000041000000000004100000000000410000000000044000000000005400001000000000000000090000000000000003690000000000000009999123100000010000000000000BRAGENBDR001100
012013070362AGEN11T     030AGRENCO     DR3       016R$  000000000004200000000000430000000000042000000000004200000000000430000000000000000000000000000002000000000000150000000000000006326460000000000000009999123100000010000000000000BRAGENBDR001100
012013070302AGRO3       010BRASILAGRO  ON      NM   R$  000000000108700000000011100000000001027000000000105800000000010680000000001034000000000110000091000000000000046600000000000049303400000000000000009999123100000010000000000000BRAGROACNOR7102
012013070396AGRO3F      020BRASILAGRO  ON      NM   R$  000000000114500000000011450000000001145000000000114500000000011450000000001085000000000114500001000000000000000005000000000000005725000000000000009999123100000010000000000000BRAGROACNOR7102
012013070302ALLL3       010ALL AMER LATON      NM   R$  000000000090700000000009360000000000891000000000091200000000008950000000000894000000000089505876000000000002328700000000002124975000000000000000009999123100000010000000000000BRALLLACNOR6118
012013070396ALLL3F      020ALL AMER LATON      NM   R$  000000000092000000000009390000000000891000000000091500000000008990000000000900000000000092000043000000000000001192000000000001091682000000000000009999123100000010000000000000BRALLLACNOR6118
012013070378ALLLH10     070ALLL        ON      NM000R$  000000000001100000000000110000000000011000000000001100000000000110000000000000000000000000000001000000000000265000000000000002915000000000000100002013081900000010000000000000BRALLLACNOR6118
012013070382ALLLT38     080ALLLE       ON      NM000R$  000000000001400000000000140000000000014000000000001400000000000140000000000000000000000000000001000000000000265000000000000003710000000000000085002013081900000010000000000000BRALLLACNOR6118
012013070382ALLLT9      080ALLLE       ON      NM000R$  000000000003200000000000320000000000032000000000003200000000000320000000000000000000000000000001000000000000265000000000000008480000000000000090002013081900000010000000000000BRALLLACNOR6118
012013070312ALMI11B     010FII TORRE ALCI  ER  MB   R$  000000032000000000003280000000000320000000000032068000000003200000000000317501000000032798700007000000000000000025000000000008017002000000000000009999123100000010000000000000BRALMICTF003203
012013070302ALPA3       010ALPARGATAS  ON      N1   R$  000000000112600000000011270000000001080000000000111800000000011190000000001081000000000112000013000000000000048800000000000054564300000000000000009999123100000010000000000000BRALPAACNOR0202
012013070396ALPA3F      020ALPARGATAS  ON      N1   R$  000000000109800000000010990000000001030000000000105200000000010310000000001031000000000108900008000000000000000102000000000000107381000000000000009999123100000010000000000000BRALPAACNOR0202
012013070302ALPA4       010ALPARGATAS  PN      N1   R$  000000000139200000000013970000000001323000000000137200000000013800000000001362000000000138001269000000000001880100000000002580282200000000000000009999123100000010000000000000BRALPAACNPR7202
012013070396ALPA4F      020ALPARGATAS  PN      N1   R$  000000000137000000000013950000000001317000000000136400000000013950000000001370000000000139500033000000000000000891000000000001215922000000000000009999123100000010000000000000BRALPAACNPR7202
012013070302ALSC3       010ALIANSCE    ON      NM   R$  000000000184500000000018710000000001791000000000180800000000018060000000001806000000000182001958000000000000455600000000000823999000000000000000009999123100000010000000000000BRALSCACNOR0104
012013070396ALSC3F      020ALIANSCE    ON      NM   R$  000000000184000000000018400000000001790000000000181600000000018000000000001732000000000186000010000000000000000243000000000000441442000000000000009999123100000010000000000000BRALSCACNOR0104
012013070302ALUP11      010ALUPAR      UNT     N2   R$  000000000185200000000018610000000001825000000000184300000000018500000000001845000000000185000443000000000000157700000000000290700300000000000000009999123100000010000000000000BRALUPCDAM15100
012013070396ALUP11F     020ALUPAR      UNT     N2   R$  000000000185500000000019000000000001801000000000184200000000018550000000001855000000000205500031000000000000001053000000000001940125000000000000009999123100000010000000000000BRALUPCDAM15100
012013070302AMAR3       010LOJAS MARISAON      NM   R$  000000000223600000000023110000000002160000000000223500000000022170000000002213000000000221701717000000000000611900000000001368068900000000000000009999123100000010000000000000BRAMARACNOR4109
012013070396AMAR3F      020LOJAS MARISAON      NM   R$  000000000223900000000022910000000002171000000000223000000000021850000000002195000000000249300014000000000000000275000000000000613316000000000000009999123100000010000000000000BRAMARACNOR4109
012013070302AMBV3       010AMBEV       ON           R$  000000000810900000000082190000000008035000000000811200000000080350000000008035000000000809000880000000000000159100000000001290480100000000000000009999123100000010000000000000BRAMBVACNOR4153
012013070396AMBV3F      020AMBEV       ON           R$  000000000810000000000081700000000008054000000000810200000000080540000000008054000000000820000026000000000000000754000000000006108371000000000000009999123100000010000000000000BRAMBVACNOR4153
012013070362AMBV3S      030AMBEV       ON        090R$  000000000827700000000083600000000008277000000000831800000000083600000000000000000000000000000016000000000000020000000000000166365320000000000000009999123100000010000000000000BRAMBVACNOR4153
012013070362AMBV3T      030AMBEV       ON        061R$  000000000822900000000082300000000008229000000000822900000000082300000000000000000000000000000002000000000000001000000000000008229418000000000000009999123100000010000000000000BRAMBVACNOR4153
012013070302AMBV4       010AMBEV       PN           R$  000000000812200000000082710000000008100000000000815300000000081000000000008100000000000812005255000000000001362900000000011111654300000000000000009999123100000010000000000000BRAMBVACNPR1153
012013070396AMBV4F      020AMBEV       PN           R$  000000000810000000000082710000000008100000000000816800000000081000000000008100000000000824900141000000000000003646000000000029776246000000000000009999123100000010000000000000BRAMBVACNPR1153
012013070362AMBV4T      030AMBEV       PN        030R$  000000000824000000000082410000000008240000000000824000000000082410000000000000000000000000000002000000000000000500000000000004120076000000000000009999123100000010000000000000BRAMBVACNPR1153
012013070362AMBV4T      030AMBEV       PN        061R$  000000000831000000000083110000000008292000000000830800000000082930000000000000000000000000000004000000000000002300000000000019109082000000000000009999123100000010000000000000BRAMBVACNPR1153
012013070362AMBV4T      030AMBEV       PN        090R$  000000000833000000000083310000000008330000000000833000000000083310000000000000000000000000000002000000000000001300000000000010829423000000000000009999123100000010000000000000BRAMBVACNPR1153
012013070362AMBV4T      030AMBEV       PN        152R$  000000000842800000000084290000000008428000000000842800000000084290000000000000000000000000000002000000000000000500000000000004214100000000000000009999123100000010000000000000BRAMBVACNPR1153
012013070378AMBVG84     070AMBV        PN        000R$  000000000005000000000000500000000000050000000000005000000000000500000000000010000000000000000002000000000000001000000000000000050000000000000840002013071500000010000000000000BRAMBVACNPR1153
012013070378AMBVH85     070AMBV        PN        000R$  000000000006000000000000600000000000060000000000006000000000000600000000000000000000000000000004000000000000002100000000000000126000000000000850002013081900000010000000000000BRAMBVACNPR1153
012013070378AMBVI90     070AMBV        PN        000R$  000000000010300000000001040000000000103000000000010300000000001040000000000000000000000000000003000000000000023500000000000002441600000000000900002013091600000010000000000000BRAMBVACNPR1153
012013070382AMBVS75     080AMBVE       PN        000R$  000000000001800000000000180000000000018000000000001800000000000180000000000000000000000000000003000000000000025000000000000000450000000000000750002013071500000010000000000000BRAMBVACNPR1153
012013070382AMBVU11     080AMBVE       PN        000R$  000000000011000000000001100000000000110000000000011000000000001100000000000000000000000000000002000000000000023500000000000002585000000000000735002013091600000010000000000000BRAMBVACNPR1153
012013070302ARTR3       010ARTERIS     ON      NM   R$  000000000195000000000020020000000001950000000000198300000000019810000000001981000000000198204870000000000001633200000000003240191300000000000000009999123100000010000000000000BRARTRACNOR3101
012013070396ARTR3F      020ARTERIS     ON      NM   R$  000000000190000000000020000000000001900000000000198000000000019710000000001950000000000200000083000000000000002020000000000004001478000000000000009999123100000010000000000000BRARTRACNOR3101
012013070302ARZZ3       010AREZZO CO   ON  EJ  NM   R$  000000000317200000000032000000000003072000000000312800000000031750000000003134000000000317501755000000000000415100000000001298642000000000000000009999123100000010000000000000BRARZZACNOR3108
012013070396ARZZ3F      020AREZZO CO   ON  EJ  NM   R$  000000000310000000000032000000000003092000000000313600000000031690000000003090000000000329900008000000000000000314000000000000984733000000000000009999123100000010000000000000BRARZZACNOR3108
012013070302ATTB11B     010ATT INC     DRN     MB   R$  000000000790900000000079090000000007909000000000790900000000079090000000007909000000000783900003000000000000003000000000000023727000000000000000009999123100000010000000000000BRATTBBDR007103
012013070302AUTM3       010AUTOMETAL   ON      NM   R$  000000000170900000000017350000000001641000000000168600000000016800000000001680000000000169001288000000000000283000000000000477310800000000000000009999123100000010000000000000BRAUTMACNOR8109
012013070396AUTM3F      020AUTOMETAL   ON      NM   R$  000000000173000000000017300000000001601000000000169700000000016820000000001710000000000191200011000000000000000288000000000000488753000000000000009999123100000010000000000000BRAUTMACNOR8109
012013070302AXPB11B     010AMERICAN EXPDRN ED  MB   R$  000000001664400000000166440000000016644000000001664400000000166440000000015921000000001639700003000000000000003000000000000049932000000000000000009999123100000010000000000000BRAXPBBDR007105
012013070302BAHI3       010BAHEMA      ON           R$  000000000050000000000005100000000000500000000000050000000000005100000000000490000000000052000004000000000000007800000000000003902000000000000000009999123100000010000000000000BRBAHIACNOR1066
012013070362BAHI3T      030BAHEMA      ON        061R$  000000000050700000000005080000000000507000000000050700000000005080000000000000000000000000000002000000000000007200000000000003655440000000000000009999123100000010000000000000BRBAHIACNOR1066
012013070302BALM4       010BAUMER      PN           R$  000000000750000000000075000000000007500000000000750000000000075000000000005500000000000000000001000000000000000100000000000000750000000000000000009999123100000010000000000000BRBALMACNPR2043
012013070302BAUH4       010EXCELSIOR   PN           R$  000000000095000000000010390000000000950000000000098800000000010390000000000910000000000103900012000000000000001200000000000001185600000000000000009999123100000010000000000000BRBAUHACNPR3108
012013070302BAZA3       010AMAZONIA    ON           R$  000000000003200000000000330000000000032000000000003200000000000330000000000032000000000003300003000000000000052000000000000001715000000000000000009999123100000010000000000000BRBAZAACNOR0163
012013070396BAZA3F      020AMAZONIA    ON           R$  000000000003200000000000320000000000032000000000003200000000000320000000000032000000000003500001000000000000000060000000000000001920000000000000009999123100000010000000000000BRBAZAACNOR0163
012013070362BAZA3T      030AMAZONIA    ON        090R$  000000000003300000000000340000000000033000000000003300000000000340000000000000000000000000000002000000000000050000000000000001681350000000000000009999123100000010000000000000BRBAZAACNOR0163
012013070302BBAS3       010BRASIL      ON      NM   R$  000000000207100000000020870000000002020000000000204600000000020300000000002030000000000203417703000000000010206200000000020885655500000000000000009999123100000010000000000000BRBBASACNOR3237
012013070396BBAS3F      020BRASIL      ON      NM   R$  000000000208800000000020880000000002020000000000204800000000020650000000002045000000000206500421000000000000011096000000000022732107000000000000009999123100000010000000000000BRBBASACNOR3237
012013070362BBAS3T      030BRASIL      ON      NM016R$  000000000205800000000020590000000002058000000000205800000000020590000000000000000000000000000002000000000000000100000000000000205820000000000000009999123100000010000000000000BRBBASACNOR3237
012013070362BBAS3T      030BRASIL      ON      NM030R$  000000000206300000000020640000000002043000000000204800000000020440000000000000000000000000000014000000000000016300000000000033394796000000000000009999123100000010000000000000BRBBASACNOR3237
012013070362BBAS3T      030BRASIL      ON      NM047R$  000000000205800000000020590000000002058000000000205800000000020590000000000000000000000000000002000000000000001000000000000002058380000000000000009999123100000010000000000000BRBBASACNOR3237
012013070362BBAS3T      030BRASIL      ON      NM061R$  000000000207500000000021040000000002073000000000207500000000020740000000000000000000000000000006000000000000032200000000000066827465000000000000009999123100000010000000000000BRBBASACNOR3237
012013070362BBAS3T      030BRASIL      ON      NM090R$  000000000208600000000020870000000002082000000000208500000000020830000000000000000000000000000004000000000000001500000000000003127729000000000000009999123100000010000000000000BRBBASACNOR3237
012013070362BBAS3T      030BRASIL      ON      NM180R$  000000000216200000000021630000000002162000000000216200000000021630000000000000000000000000000002000000000000000100000000000000216202000000000000009999123100000010000000000000BRBBASACNOR3237
012013070362BBAS3T      030BRASIL      ON      NM362R$  000000000224200000000022430000000002220000000000223100000000022210000000000000000000000000000004000000000000002000000000000004463970000000000000009999123100000010000000000000BRBBASACNOR3237
012013070378BBASG19     070BBAS        ON      NM000R$  000000000017200000000001810000000000165000000000017100000000001650000000000000000000000000000019000000000000056900000000000009768200000000000190002013071500000010000000000000BRBBASACNOR3237
012013070378BBASG20     070BBAS  FM    ON      NM000R$  000000000011900000000001290000000000091000000000010700000000001010000000000090000000000000000121000000000000192100000000000020657200000000000197602013071500000010000000000000BRBBASACNOR3236
012013070378BBASG21     070BBAS  FM    ON      NM000R$  000000000011200000000001160000000000080000000000009600000000000890000000000078000000000009100209000000000000258900000000000024952200000000000199202013071500000010000000000000BRBBASACNOR3232
012013070378BBASG22     070BBAS  FM    ON      NM000R$  000000000003800000000000410000000000024000000000003000000000000250000000000025000000000002900235000000000000396500000000000012152100000000000211702013071500000010000000000000BRBBASACNOR3233
012013070378BBASG23     070BBAS  FM    ON      NM000R$  000000000000900000000000090000000000004000000000000500000000000050000000000004000000000000500086000000000000261300000000000001523700000000000226602013071500000010000000000000BRBBASACNOR3235
012013070378BBASG24     070BBAS  FM    ON      NM000R$  000000000000500000000000060000000000002000000000000400000000000050000000000001000000000000500032000000000000082200000000000000352000000000000231702013071500000010000000000000BRBBASACNOR3233
012013070378BBASG25     070BBAS        ON      NM000R$  000000000000100000000000010000000000001000000000000100000000000010000000000000000000000000100004000000000000004500000000000000004500000000000246602013071500000010000000000000BRBBASACNOR3235
012013070378BBASH18     070BBAS        ON      NM000R$  000000000026700000000002760000000000267000000000027000000000002760000000000000000000000000000005000000000000009000000000000002434000000000000180002013081900000010000000000000BRBBASACNOR3237
012013070378BBASH19     070BBAS        ON      NM000R$  000000000022100000000002210000000000221000000000022100000000002210000000000000000000000000000002000000000000004100000000000000906100000000000190002013081900000010000000000000BRBBASACNOR3237
012013070378BBASH20     070BBAS  FM    ON      NM000R$  000000000014500000000001570000000000124000000000014300000000001330000000000000000000000021000095000000000000155000000000000022219200000000000200002013081900000010000000000000BRBBASACNOR3237
012013070378BBASH21     070BBAS  FM    ON      NM000R$  000000000010400000000001110000000000085000000000009900000000000910000000000000000000000040000281000000000000269000000000000026848200000000000207602013081900000010000000000000BRBBASACNOR3236
012013070378BBASH22     070BBAS  FM    ON      NM000R$  000000000005500000000000650000000000048000000000005300000000000510000000000045000000000009000065000000000000434000000000000023102900000000000217602013081900000010000000000000BRBBASACNOR3236
012013070378BBASH23     070BBAS  FM    ON      NM000R$  000000000003300000000000360000000000026000000000003200000000000270000000000025000000000003200026000000000000048100000000000001541300000000000227602013081900000010000000000000BRBBASACNOR3236
012013070378BBASH24     070BBAS  FM    ON      NM000R$  000000000003000000000000300000000000019000000000002300000000000200000000000018000000000002300047000000000000063700000000000001520800000000000231702013081900000010000000000000BRBBASACNOR3233
012013070378BBASH25     070BBAS        ON      NM000R$  000000000001400000000000140000000000012000000000001200000000000120000000000010000000000001200004000000000000002700000000000000032800000000000241702013081900000010000000000000BRBBASACNOR3233
012013070378BBASH26     070BBAS        ON      NM000R$  000000000000500000000000050000000000005000000000000500000000000050000000000005000000000000800001000000000000000500000000000000002500000000000256602013081900000010000000000000BRBBASACNOR3235
012013070378BBASI19     070BBAS        ON      NM000R$  000000000024000000000002490000000000240000000000024600000000002490000000000000000000000000000002000000000000004200000000000001035000000000000190002013091600000010000000000000BRBBASACNOR3237
012013070378BBASI20     070BBAS        ON      NM000R$  000000000017500000000001810000000000175000000000017700000000001810000000000000000000000000000006000000000000018000000000000003195000000000000200002013091600000010000000000000BRBBASACNOR3237
012013070378BBASI21     070BBAS        ON      NM000R$  000000000011100000000001110000000000106000000000010800000000001060000000000000000000000000000002000000000000002200000000000000239200000000000210002013091600000010000000000000BRBBASACNOR3237
012013070378BBASI22     070BBAS        ON      NM000R$  000000000007800000000000820000000000078000000000008000000000000780000000000075000000000014900003000000000000005200000000000000417600000000000217602013091600000010000000000000BRBBASACNOR3236
012013070378BBASI25     070BBAS        ON      NM000R$  000000000002000000000000200000000000018000000000001900000000000180000000000011000000000000000002000000000000002000000000000000038000000000000246602013091600000010000000000000BRBBASACNOR3235
012013070378BBASL60     070BBAS        ON      NM000R$  000000000001800000000000180000000000018000000000001800000000000180000000000000000000000000000001000000000000190000000000000003420000000000000296702013121600000010000000000000BRBBASACNOR3233
012013070382BBASS19     080BBASE FM    ON      NM000R$  000000000001800000000000190000000000010000000000001500000000000190000000000000000000000002400066000000000000055200000000000000870700000000000190002013071500000010000000000000BRBBASACNOR3237
012013070382BBASS20     080BBASE FM    ON      NM000R$  000000000003000000000000400000000000025000000000003300000000000340000000000000000000000004300106000000000000192800000000000006536900000000000197602013071500000010000000000000BRBBASACNOR3236
012013070382BBASS21     080BBASE FM    ON      NM000R$  000000000003600000000000410000000000030000000000003400000000000410000000000011000000000002500062000000000000095100000000000003263400000000000199202013071500000010000000000000BRBBASACNOR3232
012013070382BBASS22     080BBASE FM    ON      NM000R$  000000000009600000000001090000000000084000000000009400000000001090000000000042000000000015500263000000000000606800000000000057304200000000000211702013071500000010000000000000BRBBASACNOR3233
012013070382BBASS24     080BBASE       ON      NM000R$  000000000025500000000002550000000000255000000000025500000000002550000000000024000000000030000001000000000000000300000000000000076500000000000231702013071500000010000000000000BRBBASACNOR3233
012013070382BBAST18     080BBASE       ON      NM000R$  000000000002600000000000260000000000026000000000002600000000000260000000000003000000000000000001000000000000001000000000000000026000000000000180002013081900000010000000000000BRBBASACNOR3237
012013070382BBAST19     080BBASE FM    ON      NM000R$  000000000004800000000000490000000000041000000000004500000000000460000000000000000000000000000168000000000000358800000000000016443900000000000190002013081900000010000000000000BRBBASACNOR3237
012013070382BBAST20     080BBASE FM    ON      NM000R$  000000000007800000000000820000000000068000000000007500000000000770000000000000000000000013500092000000000000101900000000000007738400000000000200002013081900000010000000000000BRBBASACNOR3237
012013070382BBAST21     080BBASE FM    ON      NM000R$  000000000011000000000001210000000000102000000000011100000000001100000000000067000000000016500087000000000000102900000000000011502600000000000207602013081900000010000000000000BRBBASACNOR3236
012013070382BBAST22     080BBASE FM    ON      NM000R$  000000000016800000000001820000000000156000000000016800000000001720000000000020000000000000000285000000000000163200000000000027428100000000000217602013081900000010000000000000BRBBASACNOR3236
012013070382BBAST24     080BBASE       ON      NM000R$  000000000026900000000002730000000000269000000000026900000000002730000000000000000000000000000002000000000000002200000000000000592600000000000231702013081900000010000000000000BRBBASACNOR3233
012013070382BBAST25     080BBASE       ON      NM000R$  000000000035900000000003600000000000342000000000035400000000003420000000000000000000000000000004000000000000014200000000000005035000000000000241702013081900000010000000000000BRBBASACNOR3233
012013070382BBAST55     080BBASE       ON      NM000R$  000000000045100000000004510000000000434000000000044300000000004340000000000000000000000000000002000000000000006400000000000002838800000000000251602013081900000010000000000000BRBBASACNOR3235
012013070382BBASU20     080BBASE       ON      NM000R$  000000000009700000000000970000000000096000000000009600000000000960000000000000000000000000000004000000000000007000000000000000676000000000000200002013091600000010000000000000BRBBASACNOR3237
012013070382BBASU25     080BBASE       ON      NM000R$  000000000039800000000003980000000000398000000000039800000000003980000000000000000000000000000001000000000000003000000000000001194000000000000246602013091600000010000000000000BRBBASACNOR3235
012013070382BBASU26     080BBASE       ON      NM000R$  000000000048900000000004890000000000489000000000048900000000004890000000000000000000000000000001000000000000002400000000000001173600000000000256602013091600000010000000000000BRBBASACNOR3235
012013070382BBASX52     080BBASE       ON      NM000R$  000000000021600000000002160000000000216000000000021600000000002160000000000000000000000000000001000000000000190000000000000041040000000000000219702013121600000010000000000000BRBBASACNOR3233
012013070382BBASX55     080BBASE       ON      NM000R$  000000000037400000000003740000000000374000000000037400000000003740000000000000000000000000000001000000000000190000000000000071060000000000000245702013121600000010000000000000BRBBASACNOR3233
012013070382BBASX68     080BBASE       ON      NM000R$  000000000007800000000000780000000000063000000000006400000000000630000000000000000000000009000002000000000000190000000000000012255000000000000187502013121600000010000000000000BRBBASACNOR3237
012013070382BBASX69     080BBASE       ON      NM000R$  000000000011400000000001330000000000114000000000013000000000001330000000000000000000000000000003000000000000190000000000000024795000000000000197502013121600000010000000000000BRBBASACNOR3237
012013070302BBDC3       010BRADESCO    ON  EJ  N1   R$  000000000295000000000030420000000002930000000000299100000000029710000000002971000000000298408781000000000003304700000000009884404600000000000000009999123100000010000000000000BRBBDCACNOR1604
012013070396BBDC3F      020BRADESCO    ON  EJ  N1   R$  000000000290600000000030400000000002906000000000299000000000030390000000002950000000000304000059000000000000001570000000000004695757000000000000009999123100000010000000000000BRBBDCACNOR1604
012013070302BBDC4       010BRADESCO    PN  EJ  N1   R$  000000000272900000000027840000000002685000000000272700000000027100000000002710000000000271224055000000000010466100000000028543824500000000000000009999123100000010000000000000BRBBDCACNPR8604
012013070396BBDC4F      020BRADESCO    PN  EJ  N1   R$  000000000274900000000027990000000002686000000000272800000000027140000000002714000000000275000329000000000000008027000000000021903593000000000000009999123100000010000000000000BRBBDCACNPR8604
012013070362BBDC4T      030BRADESCO    PN  EJ  N1016R$  000000000273600000000027370000000002701000000000270600000000027020000000000000000000000000000004000000000000001200000000000003248318000000000000009999123100000010000000000000BRBBDCACNPR8604
012013070362BBDC4T      030BRADESCO    PN  EJ  N1030R$  000000000271400000000027170000000002714000000000271500000000027170000000000000000000000000000004000000000000003000000000000008145012000000000000009999123100000010000000000000BRBBDCACNPR8604
012013070362BBDC4T      030BRADESCO    PN  EJ  N1061R$  000000000280000000000028010000000002727000000000276600000000027440000000000000000000000000000008000000000000004600000000000012724694000000000000009999123100000010000000000000BRBBDCACNPR8604
012013070362BBDC4T      030BRADESCO    PN  EJ  N1078R$  000000000276500000000027660000000002764000000000276400000000027650000000000000000000000000000004000000000000005000000000000013822251000000000000009999123100000010000000000000BRBBDCACNPR8604
012013070362BBDC4T      030BRADESCO    PN  EJ  N1090R$  000000000278600000000027870000000002786000000000278600000000027870000000000000000000000000000002000000000000001000000000000002786176000000000000009999123100000010000000000000BRBBDCACNPR8604
012013070362BBDC4T      030BRADESCO    PN  EJ  N1180R$  000000000283300000000028540000000002833000000000285100000000028540000000000000000000000000000004000000000000000549000000000001565691000000000000009999123100000010000000000000BRBBDCACNPR8604
012013070378BBDCG26     070BBDC    /EJ PN      N1000R$  000000000020000000000002000000000000157000000000016600000000001590000000000000000000000017000014000000000000031200000000000005180000000000000257802013071500000010000000000000BRBBDCACNPR8601
012013070378BBDCG27     070BBDC    /EJ PN      N1000R$  000000000012000000000001390000000000076000000000010400000000000920000000000000000000000011300261000000000000368400000000000038667300000000000267802013071500000010000000000000BRBBDCACNPR8601
012013070378BBDCG28     070BBDC    /EJ PN      N1000R$  000000000004800000000000720000000000033000000000004600000000000380000000000032000000000005700156000000000000219200000000000010133200000000000278002013071500000010000000000000BRBBDCACNPR8602
012013070378BBDCG29     070BBDC    /EJ PN      N1000R$  000000000002000000000000300000000000012000000000001800000000000140000000000014000000000002000109000000000000205100000000000003737300000000000288002013071500000010000000000000BRBBDCACNPR8602
012013070378BBDCG3      070BBDC    /EJ PN      N1000R$  000000000000100000000000010000000000001000000000000100000000000010000000000000000000000000500002000000000000007200000000000000007200000000000327602013071500000010000000000000BRBBDCACNPR8600
012013070378BBDCG30     070BBDC    /EJ PN      N1000R$  000000000000700000000000110000000000006000000000000700000000000060000000000005000000000000600025000000000000044900000000000000340500000000000297802013071500000010000000000000BRBBDCACNPR8601
012013070378BBDCG31     070BBDC    /EJ PN      N1000R$  000000000000300000000000060000000000003000000000000300000000000030000000000002000000000000400062000000000000100200000000000000322200000000000307802013071500000010000000000000BRBBDCACNPR8601
012013070378BBDCG33     070BBDC    /EJ PN      N1000R$  000000000002100000000000210000000000011000000000001600000000000110000000000027000000000002600002000000000000002400000000000000038400000000000291902013071500000010000000000000BRBBDCACNPR8593
012013070378BBDCG34     070BBDC    /EJ PN      N1000R$  000000000000500000000000050000000000005000000000000500000000000050000000000000000000000003000001000000000000000300000000000000001500000000000300602013071500000010000000000000BRBBDCACNPR8591
012013070378BBDCH26     070BBDC    /EJ PN      N1000R$  000000000022400000000002240000000000214000000000021900000000002140000000000000000000000000000006000000000000010000000000000002190000000000000258002013081900000010000000000000BRBBDCACNPR8602
012013070378BBDCH27     070BBDC    /EJ PN      N1000R$  000000000017500000000002060000000000143000000000017500000000001540000000000140000000000000000260000000000000305700000000000053498700000000000268002013081900000010000000000000BRBBDCACNPR8602
012013070378BBDCH28     070BBDC    /EJ PN      N1000R$  000000000011000000000001460000000000094000000000011800000000001050000000000088000000000014800162000000000000177700000000000021068600000000000278002013081900000010000000000000BRBBDCACNPR8602
012013070378BBDCH29     070BBDC    /EJ PN      N1000R$  000000000007000000000000980000000000058000000000007200000000000650000000000000000000000000000122000000000000333700000000000024138100000000000288002013081900000010000000000000BRBBDCACNPR8602
012013070378BBDCH30     070BBDC    /EJ PN      N1000R$  000000000004400000000000580000000000035000000000004400000000000370000000000030000000000006800081000000000000091800000000000004069200000000000298002013081900000010000000000000BRBBDCACNPR8602
012013070378BBDCH31     070BBDC    /EJ PN      N1000R$  000000000002500000000000370000000000018000000000002600000000000200000000000011000000000002300112000000000000162300000000000004276300000000000307602013081900000010000000000000BRBBDCACNPR8600
012013070378BBDCH32     070BBDC    /EJ PN      N1000R$  000000000001900000000000190000000000019000000000001900000000000190000000000009000000000002000002000000000000003300000000000000062700000000000318002013081900000010000000000000BRBBDCACNPR8602
012013070378BBDCH35     070BBDC    /EJ PN      N1000R$  000000000000300000000000030000000000003000000000000300000000000030000000000000000000000000000001000000000000000300000000000000000900000000000347802013081900000010000000000000BRBBDCACNPR8601
012013070378BBDCI13     070BBDC    /EJ PN      N1000R$  000000000002700000000000270000000000027000000000002700000000000270000000000000000000000000000001000000000000000100000000000000002700000000000328002013091600000010000000000000BRBBDCACNPR8602
012013070378BBDCI30     070BBDC    /EJ PN      N1000R$  000000000007500000000000880000000000075000000000007500000000000880000000000000000000000013800002000000000000020500000000000001538800000000000298002013091600000010000000000000BRBBDCACNPR8602
012013070378BBDCI31     070BBDC    /EJ PN      N1000R$  000000000016700000000001670000000000167000000000016700000000001670000000000000000000000000000054000000000000100000000000000016700000000000000273102013091600000010000000000000BRBBDCACNPR8590
012013070378BBDCI81     070BBDC    /EJ PN      N1000R$  000000000004100000000000620000000000041000000000005700000000000620000000000000000000000000000005000000000000026500000000000001524200000000000308002013091600000010000000000000BRBBDCACNPR8602
012013070378BBDCJ29     070BBDC    /EJ PN      N1000R$  000000000013100000000001330000000000130000000000013100000000001310000000000000000000000000000008000000000000900000000000000118320000000000000288002013102100000010000000000000BRBBDCACNPR8602
012013070378BBDCK32     070BBDC    /EJ PN      N1000R$  000000000005700000000000600000000000053000000000005700000000000570000000000000000000000000000005000000000000003400000000000000195200000000000317802013111800000010000000000000BRBBDCACNPR8601
012013070378BBDCL27     070BBDC    /EJ PN      N1000R$  000000000026700000000002670000000000267000000000026700000000002670000000000000000000000000000001000000000000001200000000000000320400000000000270002013121600000010000000000000BRBBDCACNPR8604
012013070378BBDCL35     070BBDC    /EJ PN      N1000R$  000000000003500000000000350000000000035000000000003500000000000350000000000000000000000000000001000000000000470000000000000016450000000000000347602013121600000010000000000000BRBBDCACNPR8600
012013070378BBDCL57     070BBDCE   /EJ PN      N1000R$  000000000026600000000002660000000000266000000000026600000000002660000000000000000000000000000001000000000000001200000000000000319200000000000275602013121600000010000000000000BRBBDCACNPR8600
012013070382BBDCS26     080BBDCE   /EJ PN      N1000R$  000000000002500000000000260000000000018000000000002100000000000260000000000000000000000000000010000000000000018900000000000000406800000000000257802013071500000010000000000000BRBBDCACNPR8601
012013070382BBDCS27     080BBDCE   /EJ PN      N1000R$  000000000004200000000000630000000000031000000000004500000000000560000000000000000000000000000084000000000000185200000000000008382200000000000267802013071500000010000000000000BRBBDCACNPR8601
012013070382BBDCS28     080BBDCE   /EJ PN      N1000R$  000000000009300000000001220000000000066000000000009000000000001110000000000040000000000009900192000000000000296800000000000026929100000000000278002013071500000010000000000000BRBBDCACNPR8602
012013070382BBDCS29     080BBDCE   /EJ PN      N1000R$  000000000016100000000002020000000000124000000000016600000000001780000000000000000000000020500374000000000000626900000000000104194700000000000288002013071500000010000000000000BRBBDCACNPR8602
012013070382BBDCS31     080BBDCE   /EJ PN      N1000R$  000000000037400000000003740000000000374000000000037400000000003740000000000000000000000000000001000000000000002000000000000000748000000000000307802013071500000010000000000000BRBBDCACNPR8601
012013070382BBDCT24     080BBDCE   /EJ PN      N1000R$  000000000003100000000000310000000000031000000000003100000000000310000000000000000000000000000008000000000000013000000000000000403000000000000238002013081900000010000000000000BRBBDCACNPR8602
012013070382BBDCT25     080BBDCE   /EJ PN      N1000R$  000000000004800000000000480000000000035000000000004200000000000350000000000000000000000000000006000000000000011500000000000000488500000000000248002013081900000010000000000000BRBBDCACNPR8602
012013070382BBDCT26     080BBDCE   /EJ PN      N1000R$  000000000006700000000000770000000000054000000000006000000000000650000000000050000000000000000072000000000000118900000000000007246100000000000258002013081900000010000000000000BRBBDCACNPR8602
012013070382BBDCT27     080BBDCE   /EJ PN      N1000R$  000000000009900000000001150000000000083000000000010100000000001000000000000000000000000000000066000000000000094900000000000009596000000000000268002013081900000010000000000000BRBBDCACNPR8602
012013070382BBDCT28     080BBDCE   /EJ PN      N1000R$  000000000013300000000001650000000000121000000000014500000000001460000000000000000000000000000101000000000000141200000000000020612200000000000278002013081900000010000000000000BRBBDCACNPR8602
012013070382BBDCT29     080BBDCE   /EJ PN      N1000R$  000000000019800000000002290000000000171000000000020100000000002070000000000080000000000000000171000000000000287900000000000058126900000000000288002013081900000010000000000000BRBBDCACNPR8602
012013070382BBDCT32     080BBDCE   /EJ PN      N1000R$  000000000045500000000004570000000000391000000000043600000000003910000000000000000000000000000004000000000000007000000000000003057000000000000318002013081900000010000000000000BRBBDCACNPR8602
012013070382BBDCT33     080BBDCE   /EJ PN      N1000R$  000000000054500000000005450000000000545000000000054500000000005450000000000000000000000000000001000000000000002000000000000001090000000000000327802013081900000010000000000000BRBBDCACNPR8601
012013070382BBDCT34     080BBDCE   /EJ PN      N1000R$  000000000034400000000003480000000000344000000000034600000000003480000000000000000000000000000002000000000000003000000000000001040000000000000305502013081900000010000000000000BRBBDCACNPR8595
012013070382BBDCU13     080BBDCE   /EJ PN      N1000R$  000000000053600000000005360000000000533000000000053400000000005330000000000000000000000000000002000000000000003000000000000001602000000000000328002013091600000010000000000000BRBBDCACNPR8602
012013070382BBDCU27     080BBDCE   /EJ PN      N1000R$  000000000013000000000001360000000000125000000000012600000000001360000000000000000000000000000006000000000000001700000000000000215200000000000268002013091600000010000000000000BRBBDCACNPR8602
012013070382BBDCU29     080BBDCE   /EJ PN      N1000R$  000000000022800000000002280000000000228000000000022800000000002280000000000000000000000000000003000000000000003600000000000000820800000000000288002013091600000010000000000000BRBBDCACNPR8602
012013070382BBDCU31     080BBDCE   /EJ PN      N1000R$  000000000014900000000001490000000000144000000000014600000000001440000000000000000000000000000002000000000000002400000000000000351600000000000273102013091600000010000000000000BRBBDCACNPR8590
012013070382BBDCU32     080BBDCE   /EJ PN      N1000R$  000000000044600000000004500000000000391000000000043500000000003910000000000000000000000000000005000000000000010000000000000004352000000000000318002013091600000010000000000000BRBBDCACNPR8602
012013070382BBDCU33     080BBDCE   /EJ PN      N1000R$  000000000029600000000002960000000000296000000000029600000000002960000000000000000000000000000001000000000000001200000000000000355200000000000297402013091600000010000000000000BRBBDCACNPR8598
012013070382BBDCU34     080BBDCE   /EJ PN      N1000R$  000000000062900000000006290000000000629000000000062900000000006290000000000000000000000000000001000000000000001400000000000000880600000000000338002013091600000010000000000000BRBBDCACNPR8602
012013070382BBDCU37     080BBDCE   /EJ PN      N1000R$  000000000058700000000005870000000000586000000000058600000000005860000000000000000000000000000002000000000000002000000000000001173000000000000333802013091600000010000000000000BRBBDCACNPR8598
012013070382BBDCW8      080BBDCE   /EJ PN      N1000R$  000000000006300000000000630000000000063000000000006300000000000630000000000000000000000000000002000000000000850000000000000053550000000000000246202013111800000010000000000000BRBBDCACNPR8592
012013070382BBDCX1      080BBDCE   /EJ PN      N1000R$  000000000033000000000003300000000000330000000000033000000000003300000000000000000000000000000001000000000000470000000000000155100000000000000307602013121600000010000000000000BRBBDCACNPR8600
012013070382BBDCX24     080BBDCE   /EJ PN      N1000R$  000000000006500000000000650000000000031000000000006400000000000310000000000000000000000000000005000000000000321300000000000020664400000000000240002013121600000010000000000000BRBBDCACNPR8604
012013070382BBDCX28     080BBDCE   /EJ PN      N1000R$  000000000018000000000002050000000000180000000000019000000000002050000000000000000000000022000005000000000000000500000000000000095000000000000280002013121600000010000000000000BRBBDCACNPR8604
012013070382BBDCX30     080BBDCE   /EJ PN      N1000R$  000000000014300000000001430000000000143000000000014300000000001430000000000000000000000000000001000000000000001200000000000000171600000000000269902013121600000010000000000000BRBBDCACNPR8597
012013070382BBDCX54     080BBDCE       PN      N1000R$  000000000003500000000000350000000000035000000000003500000000000350000000000000000000000000000002000000000000470000000000000016450000000000000245002013121600000010000000000000BRBBDCACNPR8604
012013070382BBDCX57     080BBDCE   /EJ PN      N1000R$  000000000016500000000001650000000000165000000000016500000000001650000000000000000000000000000001000000000000470000000000000077550000000000000275602013121600000010000000000000BRBBDCACNPR8600
012013070382BBDCX66     080BBDCE       PN      N1000R$  000000000014300000000001430000000000143000000000014300000000001430000000000000000000000000000002000000000000470000000000000067210000000000000260002013121600000010000000000000BRBBDCACNPR8604
012013070312BBFI11B     010FII BB PROGRCI  ER  MB   R$  000000042000000000004329740000000420000000000043062100000004300000000000425000000000043000000011000000000000000039000000000016794232000000000000009999123100000010000000000000BRBBFICTF006196
012013070312BBPO11      010FII BB PRGIICI  ER       R$  000000001093100000000110290000000010861000000001092100000000109940000000010994000000001100000252000000000000016636000000000181685443000000000000009999123100000010000000000000BRBBPOCTF003108
012013070312BBRC11      010FII BB CORP CI  ER       R$  000000001009500000000100950000000009605000000000991200000000100950000000009605000000001009500009000000000000001793000000000017772410000000000000009999123100000010000000000000BRBBRCCTF004122
012013070302BBRK3       010BR BROKERS  ON      NM   R$  000000000060500000000006100000000000565000000000058600000000005700000000000567000000000057004039000000000001086000000000000636914600000000000000009999123100000010000000000000BRBBRKACNOR4108
012013070396BBRK3F      020BR BROKERS  ON      NM   R$  000000000060000000000006000000000000551000000000055800000000005520000000000552000000000064500006000000000000000183000000000000102241000000000000009999123100000010000000000000BRBBRKACNOR4108
012013070302BBSE3       010BBSEGURIDADEON      NM   R$  000000000171500000000017550000000001690000000000172400000000017250000000001719000000000172510152000000000004602900000000007939015400000000000000009999123100000010000000000000BRBBSEACNOR5100
012013070396BBSE3F      020BBSEGURIDADEON      NM   R$  000000000170000000000017500000000001690000000000172000000000017210000000001721000000000172500247000000000000007902000000000013594070000000000000009999123100000010000000000000BRBBSEACNOR5100
012013070362BBSE3T      030BBSEGURIDADEON      NM016R$  000000000172900000000017300000000001729000000000172900000000017300000000000000000000000000000002000000000000000500000000000000864616000000000000009999123100000010000000000000BRBBSEACNOR5100
012013070362BBSE3T      030BBSEGURIDADEON      NM061R$  000000000174400000000017450000000001744000000000174400000000017450000000000000000000000000000002000000000000001000000000000001744424000000000000009999123100000010000000000000BRBBSEACNOR5100
012013070302BBTG11      010BTG PACTUAL UNT          R$  000000000243500000000025610000000002430000000000246900000000025610000000002560000000000256102896000000000002704500000000006678402000000000000000009999123100000010000000000000BRBBTGUNT007104
012013070396BBTG11F     020BTG PACTUAL UNT          R$  000000000245000000000025450000000002450000000000246800000000025150000000002459000000000251500036000000000000000648000000000001599547000000000000009999123100000010000000000000BRBBTGUNT007104
012013070362BBTG11T     030BTG PACTUAL UNT       030R$  000000000251500000000025160000000002515000000000251500000000025160000000000000000000000000000004000000000000020000000000000050306071000000000000009999123100000010000000000000BRBBTGUNT007104
012013070362BBTG11T     030BTG PACTUAL UNT       090R$  000000000251000000000026170000000002509000000000252900000000026170000000000000000000000000000006000000000000373200000000000944133707000000000000009999123100000010000000000000BRBBTGUNT007104
012013070362BBTG11T     030BTG PACTUAL UNT       120R$  000000000253200000000025330000000002532000000000253200000000025330000000000000000000000000000002000000000000000200000000000000506532000000000000009999123100000010000000000000BRBBTGUNT007104
012013070312BBVJ11      010FII C JARDIMCI  ER       R$  000000000811000000000081100000000008105000000000810700000000081100000000008105000000000811000015000000000000000714000000000005788827000000000000009999123100000010000000000000BRBBVJCTF001131
012013070312BCFF11B     010FII BC FFII CI      MB   R$  000000001016300000000102980000000010163000000001021800000000102000000000010200000000001025000049000000000000005137000000000052494716000000000000009999123100000010000000000000BRBCFFCTF000139
012013070302BDLL3       010BARDELLA    ON           R$  000000000400000000000040000000000004000000000000400000000000040000000000004000000000000420000001000000000000000100000000000000400000000000000000009999123100000010000000000000BRBDLLACNOR1149
012013070302BDLL4       010BARDELLA    PN           R$  000000000429000000000042990000000004290000000000429600000000042990000000004251000000000429900004000000000000000700000000000003007800000000000000009999123100000010000000000000BRBDLLACNPR8149
012013070362BDLL4T      030BARDELLA    PN        120R$  000000000441900000000044200000000004419000000000441900000000044200000000000000000000000000000002000000000000000100000000000000441956000000000000009999123100000010000000000000BRBDLLACNPR8149
012013070302BEEF3       010MINERVA     ON      NM   R$  000000000099200000000009970000000000949000000000097000000000009640000000000964000000000097302821000000000000872300000000000846175600000000000000009999123100000010000000000000BRBEEFACNOR6104
012013070396BEEF3F      020MINERVA     ON      NM   R$  000000000099000000000009900000000000900000000000095100000000009610000000000990000000000104800007000000000000000260000000000000247278000000000000009999123100000010000000000000BRBEEFACNOR6104
012013070378BEEFG11     070BEEF        ON      NM000R$  000000000001400000000000140000000000014000000000001400000000000140000000000000000000000000000002000000000000013000000000000000182000000000000110002013071500000010000000000000BRBEEFACNOR6104
012013070378BEEFH11     070BEEF        ON      NM000R$  000000000001400000000000140000000000014000000000001400000000000140000000000000000000000000000001000000000000130000000000000001820000000000000110002013081900000010000000000000BRBEEFACNOR6104
012013070302BEES3       010BANESTES    ON  EJ       R$  000000000004700000000000480000000000046000000000004600000000000480000000000047000000000004800009000000000000145000000000000006807300000000000000009999123100000010000000000000BRBEESACNOR9241
012013070362BEES3T      030BANESTES    ON  EJ    120R$  000000000004800000000000490000000000048000000000004800000000000490000000000000000000000000000002000000000000100000000000000004823610000000000000009999123100000010000000000000BRBEESACNOR9241
012013070302BEMA3       010BEMATECH    ON      NM   R$  000000000070700000000007070000000000680000000000069000000000006950000000000683000000000069500184000000000000069600000000000048067300000000000000009999123100000010000000000000BRBEMAACNOR0113
012013070396BEMA3F      020BEMATECH    ON      NM   R$  000000000070000000000007000000000000700000000000070000000000007000000000000690000000000072400001000000000000000070000000000000049000000000000000009999123100000010000000000000BRBEMAACNOR0113
012013070302BGIP4       010BANESE      PN           R$  000000000480500000000049990000000004800000000000483100000000049990000000004803000000000504400011000000000000002200000000000010629900000000000000009999123100000010000000000000BRBGIPACNPR8177
012013070302BHGR3       010BHG         ON      NM   R$  000000000157400000000016100000000001500000000000156100000000015800000000001530000000000158000067000000000000033900000000000052930500000000000000009999123100000010000000000000BRBHGRACNOR9101
012013070302BICB4       010BICBANCO    PN      N1   R$  000000000040300000000004110000000000389000000000040000000000004050000000000395000000000040500199000000000000116000000000000046412200000000000000009999123100000010000000000000BRBICBACNPR7131
012013070396BICB4F      020BICBANCO    PN      N1   R$  000000000040000000000004100000000000389000000000039900000000003890000000000390000000000042800008000000000000000155000000000000061944000000000000009999123100000010000000000000BRBICBACNPR7131
012013070362BICB4T      030BICBANCO    PN      N1120R$  000000000040900000000004100000000000409000000000040900000000004100000000000000000000000000000002000000000000001000000000000000409506000000000000009999123100000010000000000000BRBICBACNPR7131
012013070302BISA3       010BROOKFIELD  ON      NM   R$  000000000013900000000001410000000000131000000000013500000000001340000000000132000000000013409298000000000013647400000000001852066200000000000000009999123100000010000000000000BRBISAACNOR8109
012013070396BISA3F      020BROOKFIELD  ON      NM   R$  000000000014000000000001400000000000131000000000013400000000001330000000000131000000000013400017000000000000000415000000000000055836000000000000009999123100000010000000000000BRBISAACNOR8109
012013070362BISA3T      030BROOKFIELD  ON      NM030R$  000000000013700000000001380000000000134000000000013500000000001350000000000000000000000000000006000000000000072000000000000009765582000000000000009999123100000010000000000000BRBISAACNOR8109
012013070362BISA3T      030BROOKFIELD  ON      NM061R$  000000000013800000000001390000000000136000000000013700000000001370000000000000000000000000000004000000000000013500000000000001857431000000000000009999123100000010000000000000BRBISAACNOR8109
012013070362BISA3T      030BROOKFIELD  ON      NM063R$  000000000013600000000001370000000000136000000000013600000000001370000000000000000000000000000002000000000000046000000000000006300666000000000000009999123100000010000000000000BRBISAACNOR8109
012013070312BJRC11      010FII JS RECIMCI  ER       R$  000000009500000000000998000000000090000000000009213300000000998000000000000000000000009980000007000000000000000201000000000018518805000000000000009999123100000010000000000000BRBJRCCTF007108
012013070310BMEB2       010MERC BRASIL DIR PRE      R$  000000000001500000000000150000000000015000000000001500000000000150000000000004000000000001500001000000000000000100000000000000001500000000000000009999123100000010000000000000BRBMEBD02PR8189
012013070302BMEB4       010MERC BRASIL PN           R$  000000000111600000000011400000000001100000000000112200000000011400000000001100000000000114500036000000000000026200000000000029402400000000000000009999123100000010000000000000BRBMEBACNPR5190
012013070302BMIN4       010MERC INVEST PN           R$  000000000002200000000000220000000000021000000000002100000000000220000000000021000000000002200006000000000000017000000000000000361000000000000000009999123100000010000000000000BRBMINACNPR1159
012013070396BMIN4F      020MERC INVEST PN           R$  000000000002200000000000220000000000022000000000002200000000000220000000000022000000000000000001000000000000000250000000000000005500000000000000009999123100000010000000000000BRBMINACNPR1159
012013070312BMLC11B     010FII BMBRC LCCI      MB   R$  000000001210000000000121000000000012100000000001210000000000121000000000012100000000001220000002000000000000000150000000000001815000000000000000009999123100000010000000000000BRBMLCCTF004116
012013070302BMTO4       010BRASMOTOR   PN           R$  000000000008400000000000880000000000084000000000008400000000000880000000000084000000000008600006000000000000014000000000000001189000000000000000009999123100000010000000000000BRBMTOACNPR6065
012013070396BMTO4F      020BRASMOTOR   PN           R$  000000000008300000000000830000000000083000000000008300000000000830000000000083000000000009300001000000000000000500000000000000041500000000000000009999123100000010000000000000BRBMTOACNPR6065
012013070302BMYB11B     010BRISTOLMYERSDRN     MB   R$  000000000999500000000099950000000009995000000000999500000000099950000000010012000000001031000003000000000000003000000000000029985000000000000000009999123100000010000000000000BRBMYBBDR000100
012013070302BOAC11B     010BANK AMERICADRN     MB   R$  000000000295500000000029550000000002955000000000295500000000029550000000002855000000000295500001000000000000000200000000000000591000000000000000009999123100000010000000000000BRBOACBDR004111
012013070302BOBR4       010BOMBRIL     PN           R$  000000000070000000000007090000000000700000000000070400000000007090000000000676000000000071000002000000000000000200000000000000140900000000000000009999123100000010000000000000BRBOBRACNPR3127
012013070302BOEI11B     010BOEING      DRN     MB   R$  000000002285700000000228570000000022857000000002285700000000228570000000021706000000002235400003000000000000003000000000000068571000000000000000009999123100000010000000000000BRBOEIBDR003105
012013070314BOVA11      010ISHARES BOVACI           R$  000000000440000000000044950000000004365000000000442600000000043970000000004397000000000439904813000000000002145140000000009495100800000000000000009999123100000010000000000000BRBOVACTF003101
012013070396BOVA11F     020ISHARES BOVACI           R$  000000000430000000000044900000000004300000000000440200000000043850000000004321000000000438500027000000000000000064000000000000281766000000000000009999123100000010000000000000BRBOVACTF003101
012013070362BOVA11T     030ISHARES BOVACI        061R$  000000000447700000000044780000000004477000000000447700000000044780000000000000000000000000000002000000000000000500000000000002238637000000000000009999123100000010000000000000BRBOVACTF003101
012013070382BOVAU42     080BOVAE       CI        000R$  000000000004600000000000460000000000046000000000004600000000000460000000000000000000000000000002000000000000100000000000000004600000000000000420002013091600000010000000000000BRBOVACTF003101
012013070382BOVAU43     080BOVAE       CI        000R$  000000000009100000000000910000000000091000000000009100000000000910000000000000000000000000000001000000000000100000000000000009100000000000000430002013091600000010000000000000BRBOVACTF003101
012013070312BPFF11      010FII ABSOLUTOCI  ER       R$  000000000850000000000087970000000008500000000000853900000000087970000000008440000000000879700003000000000000000075000000000000640470000000000000009999123100000010000000000000BRBPFFCTF002103
012013070302BPHA3       010BR PHARMA   ON      NM   R$  000000000100200000000010250000000000963000000000098900000000009770000000000969000000000097702150000000000000626400000000000619716500000000000000009999123100000010000000000000BRBPHAACNOR6102
012013070396BPHA3F      020BR PHARMA   ON      NM   R$  000000000099900000000009990000000000970000000000097700000000009770000000000970000000000098900004000000000000000135000000000000132028000000000000009999123100000010000000000000BRBPHAACNOR6102
012013070302BPNM4       010PANAMERICANOPN      N1   R$  000000000051000000000005210000000000504000000000051000000000005150000000000508000000000051500186000000000000203900000000000104016600000000000000009999123100000010000000000000BRBPNMACNPR6111
012013070396BPNM4F      020PANAMERICANOPN      N1   R$  000000000050800000000005080000000000504000000000050500000000005040000000000503000000000051500006000000000000000200000000000000101084000000000000009999123100000010000000000000BRBPNMACNPR6111
012013070302BRAP3       010BRADESPAR   ON      N1   R$  000000000160800000000016990000000001565000000000160500000000015990000000001598000000000160000222000000000000177300000000000284624400000000000000009999123100000010000000000000BRBRAPACNOR5124
012013070396BRAP3F      020BRADESPAR   ON      N1   R$  000000000162000000000016750000000001565000000000158900000000016000000000001571000000000165000013000000000000000294000000000000467184000000000000009999123100000010000000000000BRBRAPACNOR5124
012013070302BRAP4       010BRADESPAR   PN      N1   R$  000000000197100000000020030000000001937000000000196400000000019370000000001937000000000195105513000000000001191700000000002341422600000000000000009999123100000010000000000000BRBRAPACNPR2124
012013070396BRAP4F      020BRADESPAR   PN      N1   R$  000000000198900000000020100000000001891000000000195500000000020100000000001900000000000200000049000000000000000946000000000001850324000000000000009999123100000010000000000000BRBRAPACNPR2124
012013070362BRAP4T      030BRADESPAR   PN      N1030R$  000000000197900000000019800000000001979000000000197900000000019800000000000000000000000000000002000000000000000500000000000000989869000000000000009999123100000010000000000000BRBRAPACNPR2124
012013070362BRAP4T      030BRADESPAR   PN      N1061R$  000000000199100000000019920000000001991000000000199100000000019920000000000000000000000000000002000000000000005000000000000009957938000000000000009999123100000010000000000000BRBRAPACNPR2124
012013070362BRAP4T      030BRADESPAR   PN      N1090R$  000000000203500000000020360000000002035000000000203500000000020360000000000000000000000000000002000000000000021500000000000043757368000000000000009999123100000010000000000000BRBRAPACNPR2124
012013070362BRAP4T      030BRADESPAR   PN      N1180R$  000000000205900000000020600000000002059000000000205900000000020600000000000000000000000000000002000000000000000800000000000001647547000000000000009999123100000010000000000000BRBRAPACNPR2124
012013070314BRAX11      010ISHARES BRAXCI           R$  000000000373300000000037330000000003733000000000373300000000037330000000000000000000000000000001000000000000000900000000000003359700000000000000009999123100000010000000000000BRBRAXCTF002100
012013070312BRCR11      010FII BC FUND CI           R$  000000001380000000000138000000000013610000000001370600000000137500000000013701000000001375000426000000000000026904000000000368767535000000000000009999123100000010000000000000BRBRCRCTF000130
012013070302BRFS3       010BRF SA      ON  EJ  NM   R$  000000000470000000000048360000000004671000000000473600000000046710000000004670000000000468506571000000000001646600000000007798510500000000000000009999123100000010000000000000BRBRFSACNOR8110
012013070396BRFS3F      020BRF SA      ON  EJ  NM   R$  000000000479900000000048490000000004650000000000475000000000046500000000004650000000000484900097000000000000002531000000000012023269000000000000009999123100000010000000000000BRBRFSACNOR8110
012013070362BRFS3T      030BRF SA      ON  EJ  NM016R$  000000000483700000000048380000000004837000000000483700000000048380000000000000000000000000000002000000000000000300000000000001451169000000000000009999123100000010000000000000BRBRFSACNOR8110
012013070362BRFS3T      030BRF SA      ON  EJ  NM180R$  000000000494200000000049430000000004939000000000494000000000049400000000000000000000000000000004000000000000004200000000000020749728000000000000009999123100000010000000000000BRBRFSACNOR8110
012013070378BRFSH50     070BRFS    /EJ ON      NM000R$  000000000003700000000000370000000000037000000000003700000000000370000000000000000000000000000002000000000000005000000000000000185000000000000500002013081900000010000000000000BRBRFSACNOR8110
012013070302BRIN3       010BR INSURANCEON      NM   R$  000000000213400000000021900000000002086000000000215100000000021860000000002177000000000218601844000000000001099900000000002366969500000000000000009999123100000010000000000000BRBRINACNOR3105
012013070396BRIN3F      020BR INSURANCEON      NM   R$  000000000214100000000022380000000001915000000000207200000000021620000000002100000000000216500026000000000000000625000000000001295041000000000000009999123100000010000000000000BRBRINACNOR3105
012013070302BRIV3       010ALFA INVEST ON           R$  000000000064400000000006450000000000644000000000064400000000006450000000000644000000000067500006000000000000017600000000000011343500000000000000009999123100000010000000000000BRBRIVACNOR6196
012013070302BRIV4       010ALFA INVEST PN           R$  000000000056100000000005700000000000555000000000055800000000005550000000000555000000000058200010000000000000004900000000000002736000000000000000009999123100000010000000000000BRBRIVACNPR3196
012013070396BRIV4F      020ALFA INVEST PN           R$  000000000050100000000005550000000000501000000000051900000000005550000000000510000000000058300003000000000000000015000000000000007785000000000000009999123100000010000000000000BRBRIVACNPR3196
012013070302BRKM3       010BRASKEM     ON      N1   R$  000000000120500000000012450000000001201000000000124000000000012440000000001225000000000124400010000000000000023600000000000029279200000000000000009999123100000010000000000000BRBRKMACNOR1110
012013070302BRKM5       010BRASKEM     PNA     N1   R$  000000000164100000000017290000000001641000000000170300000000017000000000001692000000000170010338000000000002679500000000004564777100000000000000009999123100000010000000000000BRBRKMACNPA4110
012013070396BRKM5F      020BRASKEM     PNA     N1   R$  000000000167000000000017290000000001670000000000169400000000017170000000001672000000000171700044000000000000001426000000000002416456000000000000009999123100000010000000000000BRBRKMACNPA4110
012013070302BRML3       010BR MALLS PARON      NM   R$  000000000183400000000018840000000001812000000000184900000000018640000000001850000000000186413469000000000005374500000000009939132600000000000000009999123100000010000000000000BRBRMLACNOR9105
012013070396BRML3F      020BR MALLS PARON      NM   R$  000000000183000000000018930000000001790000000000184500000000018400000000001840000000000190000070000000000000002039000000000003763736000000000000009999123100000010000000000000BRBRMLACNOR9105
012013070362BRML3T      030BR MALLS PARON      NM061R$  000000000187400000000018750000000001874000000000187400000000018750000000000000000000000000000002000000000000000300000000000000562241000000000000009999123100000010000000000000BRBRMLACNOR9105
012013070302BRPR3       010BR PROPERT  ON      NM   R$  000000000178600000000018110000000001768000000000179600000000018000000000001800000000000180306548000000000001485500000000002668513600000000000000009999123100000010000000000000BRBRPRACNOR9112
012013070396BRPR3F      020BR PROPERT  ON      NM   R$  000000000181000000000018100000000001776000000000179400000000017930000000001782000000000179500046000000000000001403000000000002517669000000000000009999123100000010000000000000BRBRPRACNOR9112
012013070302BRSR3       010BANRISUL    ON      N1   R$  000000000130400000000013040000000001304000000000130400000000013040000000001209000000000130500001000000000000000100000000000000130400000000000000009999123100000010000000000000BRBRSRACNOR3130
012013070396BRSR5F      020BANRISUL    PNA     N1   R$  000000000142000000000014200000000001420000000000142000000000014200000000001208000000000142000003000000000000000031000000000000044020000000000000009999123100000010000000000000BRBRSRACNPA6134
012013070302BRSR6       010BANRISUL    PNB     N1   R$  000000000142200000000014590000000001384000000000143100000000014070000000001407000000000141804271000000000001594500000000002282185600000000000000009999123100000010000000000000BRBRSRACNPB4133
012013070396BRSR6F      020BANRISUL    PNB     N1   R$  000000000143000000000015000000000001390000000000143000000000014200000000001380000000000143000046000000000000001333000000000001906629000000000000009999123100000010000000000000BRBRSRACNPB4133
012013070362BRSR6T      030BANRISUL    PNB     N1090R$  000000000141300000000014140000000001413000000000141300000000014140000000000000000000000000000002000000000000000200000000000000282678000000000000009999123100000010000000000000BRBRSRACNPB4133
012013070302BSEV3       010BIOSEV      ON      NM   R$  000000000126000000000012700000000001254000000000126400000000012700000000001270000000000128000005000000000000000600000000000000758400000000000000009999123100000010000000000000BRBSEVACNOR3100
012013070302BTOW3       010B2W DIGITAL ON      NM   R$  000000000067700000000008630000000000670000000000078500000000008630000000000859000000000086308482000000000003827600000000003011355100000000000000009999123100000010000000000000BRBTOWACNOR8105
012013070396BTOW3F      020B2W DIGITAL ON      NM   R$  000000000065300000000008200000000000653000000000078000000000008010000000000760000000000085500049000000000000001411000000000001102350000000000000009999123100000010000000000000BRBTOWACNOR8105
012013070362BTOW3T      030B2W DIGITAL ON      NM061R$  000000000087400000000008750000000000874000000000087400000000008750000000000000000000000000000002000000000000001000000000000000874219000000000000009999123100000010000000000000BRBTOWACNOR8105
012013070362BTOW3T      030B2W DIGITAL ON      NM090R$  000000000073400000000007350000000000734000000000073400000000007350000000000000000000000000000002000000000000008000000000000005876352000000000000009999123100000010000000000000BRBTOWACNOR8105
012013070302BTTL4       010BATTISTELLA PN           R$  000000000009300000000000950000000000093000000000009300000000000950000000000094000000000009800003000000000000010000000000000000934000000000000000009999123100000010000000000000BRBTTLACNPR7105
012013070362BTTL4T      030BATTISTELLA PN        090R$  000000000009500000000000960000000000095000000000009500000000000960000000000000000000000000000002000000000000005000000000000000475091000000000000009999123100000010000000000000BRBTTLACNPR7105
012013070302BVMF3       010BMFBOVESPA  ON      NM   R$  000000000119900000000012290000000001175000000000120400000000012090000000001209000000000121016234000000000012507100000000015070936100000000000000009999123100000010000000000000BRBVMFACNOR3125
012013070396BVMF3F      020BMFBOVESPA  ON      NM   R$  000000000119900000000012290000000001177000000000120300000000012100000000001210000000000121900151000000000000004154000000000004997912000000000000009999123100000010000000000000BRBVMFACNOR3125
012013070362BVMF3T      030BMFBOVESPA  ON      NM090R$  000000000123000000000012310000000001228000000000122800000000012290000000000000000000000000000004000000000000001700000000000002088603000000000000009999123100000010000000000000BRBVMFACNOR3125
012013070378BVMFG11     070BVMF        ON      NM000R$  000000000012100000000001260000000000099000000000010900000000001260000000000095000000000000000006000000000000012900000000000001412100000000000110002013071500000010000000000000BRBVMFACNOR3125
012013070378BVMFG12     070BVMF  FM    ON      NM000R$  000000000007000000000000700000000000039000000000005000000000000520000000000045000000000005200223000000000000448200000000000022573100000000000118902013071500000010000000000000BRBVMFACNOR3124
012013070378BVMFG13     070BVMF  FM    ON      NM000R$  000000000001400000000000200000000000012000000000001500000000000140000000000012000000000001500154000000000000277600000000000004320300000000000126902013071500000010000000000000BRBVMFACNOR3123
012013070378BVMFG14     070BVMF  FM    ON      NM000R$  000000000000100000000000020000000000001000000000000100000000000020000000000001000000000000200007000000000000017800000000000000033200000000000136902013071500000010000000000000BRBVMFACNOR3123
012013070378BVMFG40     070BVMF        ON      NM000R$  000000000015200000000001520000000000152000000000015200000000001520000000000000000000000022100001000000000000003000000000000000456000000000000105002013071500000010000000000000BRBVMFACNOR3125
012013070378BVMFG41     070BVMF        ON      NM000R$  000000000007900000000000800000000000078000000000007800000000000780000000000000000000000000000004000000000000012000000000000000945000000000000115002013071500000010000000000000BRBVMFACNOR3125
012013070378BVMFG42     070BVMF  FM    ON      NM000R$  000000000003700000000000410000000000028000000000003600000000000280000000000026000000000000000074000000000000238600000000000008626500000000000121902013071500000010000000000000BRBVMFACNOR3123
012013070378BVMFG43     070BVMF  FM    ON      NM000R$  000000000000300000000000030000000000003000000000000300000000000030000000000001000000000001200003000000000000007100000000000000021300000000000133902013071500000010000000000000BRBVMFACNOR3124
012013070378BVMFH11     070BVMF        ON      NM000R$  000000000014000000000001400000000000139000000000013900000000001400000000000000000000000000000003000000000000002300000000000000321000000000000110002013081900000010000000000000BRBVMFACNOR3125
012013070378BVMFH12     070BVMF  FM    ON      NM000R$  000000000007600000000000810000000000069000000000007400000000000750000000000020000000000000000072000000000000178900000000000013383500000000000120002013081900000010000000000000BRBVMFACNOR3125
012013070378BVMFH13     070BVMF  FM    ON      NM000R$  000000000003200000000000360000000000027000000000003100000000000310000000000031000000000003400068000000000000178100000000000005645900000000000128902013081900000010000000000000BRBVMFACNOR3124
012013070378BVMFH14     070BVMF  FM    ON      NM000R$  000000000000900000000000100000000000007000000000000800000000000090000000000005000000000000900032000000000000098200000000000000836900000000000138902013081900000010000000000000BRBVMFACNOR3124
012013070378BVMFH41     070BVMF        ON      NM000R$  000000000010600000000001070000000000102000000000010300000000001070000000000000000000000000000004000000000000015000000000000001557000000000000115002013081900000010000000000000BRBVMFACNOR3125
012013070378BVMFH42     070BVMF  FM    ON      NM000R$  000000000004900000000000550000000000042000000000004900000000000460000000000000000000000000000022000000000000074900000000000003686600000000000125002013081900000010000000000000BRBVMFACNOR3125
012013070378BVMFH43     070BVMF  FM    ON      NM000R$  000000000001300000000000170000000000013000000000001400000000000150000000000006000000000001700005000000000000013800000000000000201400000000000135002013081900000010000000000000BRBVMFACNOR3125
012013070378BVMFH61     070BVMFE       ON      NM000R$  000000000008900000000000890000000000089000000000008900000000000890000000000000000000000000000001000000000000006000000000000000534000000000000117502013081900000010000000000000BRBVMFACNOR3125
012013070378BVMFH62     070BVMFE       ON      NM000R$  000000000005900000000000590000000000059000000000005900000000000590000000000000000000000000000001000000000000006000000000000000354000000000000122502013081900000010000000000000BRBVMFACNOR3125
012013070378BVMFI12     070BVMF        ON      NM000R$  000000000009200000000000920000000000077000000000008400000000000770000000000000000000000000000002000000000000006000000000000000507000000000000120002013091600000010000000000000BRBVMFACNOR3125
012013070378BVMFI13     070BVMF        ON      NM000R$  000000000004600000000000460000000000040000000000004200000000000400000000000000000000000000000002000000000000007000000000000000298000000000000130002013091600000010000000000000BRBVMFACNOR3125
012013070378BVMFI42     070BVMF        ON      NM000R$  000000000006900000000000690000000000068000000000006800000000000680000000000000000000000000000002000000000000006000000000000000411000000000000125002013091600000010000000000000BRBVMFACNOR3125
012013070378BVMFJ15     070BVMF        ON      NM000R$  000000000001100000000000150000000000011000000000001100000000000150000000000011000000000000000003000000000000011400000000000000131400000000000150002013102100000010000000000000BRBVMFACNOR3125
012013070378BVMFL2      070BVMF        ON      NM000R$  000000000013900000000001390000000000139000000000013900000000001390000000000000000000000000000001000000000000000100000000000000013900000000000118902013121600000010000000000000BRBVMFACNOR3124
012013070382BVMFQ73     080BVMFE       ON      NM000R$  000000000013100000000001310000000000131000000000013100000000001310000000000000000000000000000001000000000000045300000000000005934300000000000128902014051900000010000000000000BRBVMFACNOR3124
012013070382BVMFR63     080BVMFE       ON      NM000R$  000000000013800000000001380000000000138000000000013800000000001380000000000000000000000000000001000000000000071000000000000009798000000000000130002014061600000010000000000000BRBVMFACNOR3125
012013070382BVMFS11     080BVMFE       ON      NM000R$  000000000001400000000000140000000000008000000000001300000000000120000000000007000000000001200019000000000000062400000000000000822800000000000110002013071500000010000000000000BRBVMFACNOR3125
012013070382BVMFS12     080BVMFE FM    ON      NM000R$  000000000003300000000000440000000000023000000000003400000000000370000000000020000000000003500068000000000000178900000000000006090800000000000118902013071500000010000000000000BRBVMFACNOR3124
012013070382BVMFS13     080BVMFE FM    ON      NM000R$  000000000007500000000000990000000000059000000000007700000000000840000000000005000000000000000083000000000000175100000000000013551200000000000126902013071500000010000000000000BRBVMFACNOR3123
012013070382BVMFS14     080BVMFE       ON      NM000R$  000000000016800000000001790000000000150000000000016500000000001500000000000000000000000000000004000000000000015100000000000002500500000000000136902013071500000010000000000000BRBVMFACNOR3123
012013070382BVMFS41     080BVMFE FM    ON      NM000R$  000000000002700000000000280000000000014000000000002000000000000210000000000005000000000000000023000000000000076000000000000001568000000000000115002013071500000010000000000000BRBVMFACNOR3125
012013070382BVMFS42     080BVMFE FM    ON      NM000R$  000000000004500000000000520000000000034000000000004300000000000520000000000000000000000000000025000000000000087200000000000003752500000000000121902013071500000010000000000000BRBVMFACNOR3123
012013070382BVMFS43     080BVMFE       ON      NM000R$  000000000012000000000001380000000000120000000000013500000000001350000000000119000000000000000008000000000000015700000000000002126200000000000133902013071500000010000000000000BRBVMFACNOR3124
012013070382BVMFT10     080BVMFE       ON      NM000R$  000000000001500000000000150000000000011000000000001400000000000110000000000000000000000001500013000000000000040200000000000000601000000000000100002013081900000010000000000000BRBVMFACNOR3125
012013070382BVMFT11     080BVMFE       ON      NM000R$  000000000003500000000000350000000000029000000000003100000000000290000000000015000000000004000002000000000000000300000000000000009300000000000110002013081900000010000000000000BRBVMFACNOR3125
012013070382BVMFT12     080BVMFE FM    ON      NM000R$  000000000006000000000000740000000000048000000000006400000000000620000000000038000000000006800050000000000000088400000000000005702700000000000120002013081900000010000000000000BRBVMFACNOR3125
012013070382BVMFT13     080BVMFE FM    ON      NM000R$  000000000011500000000001170000000000090000000000010300000000001080000000000060000000000000000019000000000000073900000000000007619500000000000128902013081900000010000000000000BRBVMFACNOR3124
012013070382BVMFT14     080BVMFE       ON      NM000R$  000000000016300000000001630000000000163000000000016300000000001630000000000000000000000000000001000000000000000500000000000000081500000000000138902013081900000010000000000000BRBVMFACNOR3124
012013070382BVMFT41     080BVMFE FM    ON      NM000R$  000000000004100000000000490000000000041000000000004300000000000440000000000000000000000000000005000000000000020800000000000000910700000000000115002013081900000010000000000000BRBVMFACNOR3125
012013070382BVMFT42     080BVMFE FM    ON      NM000R$  000000000009000000000000910000000000070000000000007800000000000880000000000000000000000000000015000000000000040900000000000003196200000000000125002013081900000010000000000000BRBVMFACNOR3125
012013070382BVMFW12     080BVMFE       ON      NM000R$  000000000007900000000000790000000000079000000000007900000000000790000000000000000000000000000002000000000000002000000000000000158000000000000120002013111800000010000000000000BRBVMFACNOR3125
012013070382BVMFX14     080BVMFE       ON      NM000R$  000000000016900000000001690000000000169000000000016900000000001690000000000000000000000000000001000000000000001800000000000000304200000000000138902013121600000010000000000000BRBVMFACNOR3124
012013070302CAMB4       010CAMBUCI     PN           R$  000000000020300000000002030000000000203000000000020300000000002030000000000197000000000020300001000000000000003000000000000000609000000000000000009999123100000010000000000000BRCAMBACNPR1117
012013070302CARD3       010CSU CARDSYSTON      NM   R$  000000000028000000000002890000000000277000000000028000000000002800000000000280000000000028400030000000000000023300000000000006531800000000000000009999123100000010000000000000BRCARDACNOR9105
012013070302CBEE3       010AMPLA ENERG ON *         R$  000000000012600000000001260000000000126000000000012600000000001260000000000126000000000014000001000000000002000000000000000000252000000000000000009999123100010000000000000000BRCBEEACNOR3149
012013070362CBEE3T      030AMPLA ENERG ON *      090R$  000000000012800000000001290000000000128000000000012800000000001290000000000000000000000000000002000000000002000000000000000000256788000000000000009999123100010000000000000000BRCBEEACNOR3149
012013070396CBMA3F      020COBRASMA    ON           R$  000000000000400000000000050000000000004000000000000400000000000050000000000004000000000000500004000000000000008001000000000000032005000000000000009999123100000010000000000000BRCBMAACNOR4124
012013070302CBMA4       010COBRASMA    PN           R$  000000000000300000000000040000000000003000000000000300000000000030000000000003000000000000400012000000000000210000000000000000670000000000000000009999123100000010000000000000BRCBMAACNPR1124
012013070396CBMA4F      020COBRASMA    PN           R$  000000000000400000000000040000000000003000000000000300000000000030000000000003000000000000400002000000000000000751000000000000002254000000000000009999123100000010000000000000BRCBMAACNPR1124
012013070308CCHI3       010CHIARELLI   ON           R$  000000000001900000000000190000000000014000000000001500000000000190000000000019000000000002000094000000000001540000000000000024210000000000000000009999123100000010000000000000BRCCHIACNOR5123
012013070396CCHI3F      020CHIARELLI   ON           R$  000000000001600000000000170000000000015000000000001500000000000170000000000017000000000002500005000000000000008000000000000000126000000000000000009999123100000010000000000000BRCCHIACNOR5123
012013070308CCHI4       010CHIARELLI   PN           R$  000000000001500000000000180000000000014000000000001400000000000180000000000013000000000001800007000000000000090000000000000001330000000000000000009999123100000010000000000000BRCCHIACNPR2122
012013070396CCHI4F      020CHIARELLI   PN           R$  000000000001500000000000150000000000013000000000001300000000000130000000000013000000000001600006000000000000013315000000000000185295000000000000009999123100000010000000000000BRCCHIACNPR2122
012013070302CCPR3       010CYRE COM-CCPON      NM   R$  000000000211600000000021350000000002082000000000209300000000020820000000002082000000000212500054000000000000267000000000000558861100000000000000009999123100000010000000000000BRCCPRACNOR9107
012013070396CCPR3F      020CYRE COM-CCPON      NM   R$  000000000211500000000021150000000002115000000000211500000000021150000000002115000000000236900001000000000000000021000000000000044415000000000000009999123100000010000000000000BRCCPRACNOR9107
012013070362CCPR3T      030CYRE COM-CCPON      NM180R$  000000000221700000000022180000000002217000000000221700000000022180000000000000000000000000000002000000000000002300000000000005100475000000000000009999123100000010000000000000BRCCPRACNOR9107
012013070302CCRO3       010CCR SA      ON      NM   R$  000000000164500000000016840000000001633000000000165700000000016590000000001656000000000165913084000000000005017300000000008317318500000000000000009999123100000010000000000000BRCCROACNOR2122
012013070396CCRO3F      020CCR SA      ON      NM   R$  000000000165000000000016830000000001631000000000165500000000016330000000001633000000000168300080000000000000002400000000000003970633000000000000009999123100000010000000000000BRCCROACNOR2122
012013070362CCRO3T      030CCR SA      ON      NM061R$  000000000168100000000016820000000001681000000000168100000000016820000000000000000000000000000002000000000000000400000000000000672676000000000000009999123100000010000000000000BRCCROACNOR2122
012013070362CCRO3T      030CCR SA      ON      NM362R$  000000000181400000000018150000000001814000000000181400000000018150000000000000000000000000000002000000000000001000000000000001814175000000000000009999123100000010000000000000BRCCROACNOR2122
012013070302CCXC3       010CCX CARVAO  ON      NM   R$  000000000006900000000000710000000000063000000000006600000000000660000000000064000000000006600732000000000004266200000000000284149200000000000000009999123100000010000000000000BRCCXCACNOR5100
012013070396CCXC3F      020CCX CARVAO  ON      NM   R$  000000000006700000000000700000000000063000000000006600000000000660000000000063000000000006600033000000000000001099000000000000073502000000000000009999123100000010000000000000BRCCXCACNOR5100
012013070302CEBR5       010CEB         PNA          R$  000000000251700000000025170000000002517000000000251700000000025170000000000000000000000251800001000000000000000100000000000000251700000000000000009999123100000010000000000000BRCEBRACNPA8113
012013070396CEBR5F      020CEB         PNA          R$  000000000251900000000025190000000002519000000000251900000000025190000000001863000000000000000001000000000000000055000000000000138545000000000000009999123100000010000000000000BRCEBRACNPA8113
012013070302CEDO3       010CEDRO       ON      N1   R$  000000000100100000000010010000000001001000000000100100000000010010000000001000000000000125000001000000000000000100000000000000100100000000000000009999123100000010000000000000BRCEDOACNOR8094
012013070302CEDO4       010CEDRO       PN      N1   R$  000000000087000000000009000000000000870000000000088600000000009000000000000801000000000092000003000000000000000300000000000000265900000000000000009999123100000010000000000000BRCEDOACNPR5126
012013070312CEOC11B     010FII CEO CCP CI      MB   R$  000000000900000000000090000000000008500000000000880400000000088600000000008860000000000900000046000000000000003812000000000033561900000000000000009999123100000010000000000000BRCEOCCTF003107
012013070302CESP3       010CESP        ON      N1   R$  000000000158100000000015810000000001529000000000155100000000015300000000001525000000000155700025000000000000003700000000000005740500000000000000009999123100000010000000000000BRCESPACNOR3159
012013070302CESP6       010CESP        PNB     N1   R$  000000000189000000000019400000000001822000000000188000000000018690000000001848000000000186903169000000000000849800000000001598320600000000000000009999123100000010000000000000BRCESPACNPB4118
012013070396CESP6F      020CESP        PNB     N1   R$  000000000190100000000019580000000001821000000000187400000000018220000000001823000000000193000019000000000000000603000000000001129358000000000000009999123100000010000000000000BRCESPACNPB4118
012013070378CESPH21     070CESP        PNB     N1000R$  000000000003100000000000600000000000031000000000005300000000000600000000000000000000000000000005000000000000001600000000000000085200000000000210002013081900000010000000000000BRCESPACNPB4118
012013070302CGAS3       010COMGAS      ON           R$  000000000422000000000043980000000004101000000000438000000000043890000000004300000000000444600016000000000000015500000000000067891500000000000000009999123100000010000000000000BRCGASACNOR0132
012013070302CGAS5       010COMGAS      PNA          R$  000000000477000000000048770000000004705000000000478600000000047760000000004776000000000481100151000000000000088500000000000423584100000000000000009999123100000010000000000000BRCGASACNPA3129
012013070396CGAS5F      020COMGAS      PNA          R$  000000000478000000000048300000000004769000000000478800000000048110000000004701000000000480000009000000000000000197000000000000943320000000000000009999123100000010000000000000BRCGASACNPA3129
012013070302CGRA3       010GRAZZIOTIN  ON           R$  000000000151200000000015120000000001512000000000151200000000015120000000001489000000000153000001000000000000006300000000000009525600000000000000009999123100000010000000000000BRCGRAACNOR2061
012013070302CGRA4       010GRAZZIOTIN  PN           R$  000000000158500000000016500000000001585000000000160700000000016080000000001592000000000160800024000000000000019200000000000030860200000000000000009999123100000010000000000000BRCGRAACNPR9061
012013070396CGRA4F      020GRAZZIOTIN  PN           R$  000000000160200000000016020000000001602000000000160200000000016020000000001602000000000163500001000000000000000039000000000000062478000000000000009999123100000010000000000000BRCGRAACNPR9061
012013070302CIEL3       010CIELO       ON      NM   R$  000000000544000000000056480000000005439000000000558600000000055700000000005569000000000557006410000000000002650400000000014806269500000000000000009999123100000010000000000000BRCIELACNOR3111
012013070396CIEL3F      020CIELO       ON      NM   R$  000000000550000000000056700000000005497000000000557900000000055750000000005560000000000557500101000000000000002690000000000015008253000000000000009999123100000010000000000000BRCIELACNOR3111
012013070362CIEL3T      030CIELO       ON      NM061R$  000000000566600000000056740000000005666000000000567300000000056740000000000000000000000000000004000000000000101500000000000575832036000000000000009999123100000010000000000000BRCIELACNOR3111
012013070302CLSC4       010CELESC      PN      N2   R$  000000000203000000000020300000000001950000000000198300000000019900000000001961000000000199000052000000000000010600000000000021024300000000000000009999123100000010000000000000BRCLSCACNPR3107
012013070396CLSC4F      020CELESC      PN      N2   R$  000000000195900000000019590000000001958000000000195800000000019580000000001902000000000205000002000000000000000100000000000000195899000000000000009999123100000010000000000000BRCLSCACNPR3107
012013070362CLSC4T      030CELESC      PN      N2061R$  000000000205600000000020570000000002056000000000205600000000020570000000000000000000000000000002000000000000001000000000000002056797000000000000009999123100000010000000000000BRCLSCACNPR3107
012013070302CMIG3       010CEMIG       ON      N1   R$  000000000195900000000019650000000001914000000000194000000000019210000000001921000000000198500336000000000000081800000000000158734400000000000000009999123100000010000000000000BRCMIGACNOR6208
012013070396CMIG3F      020CEMIG       ON      N1   R$  000000000195000000000019790000000001900000000000194300000000019420000000001928000000000198000041000000000000001165000000000002264428000000000000009999123100000010000000000000BRCMIGACNOR6208
012013070302CMIG4       010CEMIG       PN      N1   R$  000000000194000000000019650000000001918000000000194200000000019600000000001955000000000196011408000000000002990600000000005808912800000000000000009999123100000010000000000000BRCMIGACNPR3208
012013070396CMIG4F      020CEMIG       PN      N1   R$  000000000194000000000019640000000001920000000000194000000000019500000000001940000000000195000194000000000000005318000000000010322197000000000000009999123100000010000000000000BRCMIGACNPR3208
012013070362CMIG4T      030CEMIG       PN      N1030R$  000000000195600000000019570000000001952000000000195600000000019530000000000000000000000000000004000000000000001046000000000002046465000000000000009999123100000010000000000000BRCMIGACNPR3208
012013070312CNES11B     010FII CENESP  CI  ER  MB   R$  000000001225700000000123490000000012257000000001233000000000123490000000012301000000001235000004000000000000000129000000000001590675000000000000009999123100000010000000000000BRCNESCTF001123
012013070302COCA11B     010COCA COLA   DRN     MB   R$  000000000951000000000095100000000009510000000000951000000000095100000000009144000000000951000001000000000000000100000000000000951000000000000000009999123100000010000000000000BRCOCABDR002108
012013070302COCE3       010COELCE      ON           R$  000000000408400000000041000000000004000000000000404900000000040500000000003960000000000405000012000000000000002500000000000010123900000000000000009999123100000010000000000000BRCOCEACNOR0132
012013070302COCE5       010COELCE      PNA          R$  000000000391100000000039770000000003878000000000392200000000038900000000003890000000000392900238000000000000055900000000000219246500000000000000009999123100000010000000000000BRCOCEACNPA3133
012013070396COCE5F      020COELCE      PNA          R$  000000000387000000000039890000000003870000000000393300000000039280000000003882000000000392900020000000000000000252000000000000991201000000000000009999123100000010000000000000BRCOCEACNPA3133
012013070362COCE5T      030COELCE      PNA       016R$  000000000395900000000039600000000003959000000000395900000000039600000000000000000000000000000002000000000000000300000000000001187868000000000000009999123100000010000000000000BRCOCEACNPA3133
012013070302CPFE3       010CPFL ENERGIAON      NM   R$  000000000201100000000020530000000001999000000000201800000000020080000000002006000000000200806844000000000002047800000000004132963400000000000000009999123100000010000000000000BRCPFEACNOR0121
012013070396CPFE3F      020CPFL ENERGIAON      NM   R$  000000000197000000000021190000000001970000000000202100000000020440000000002030000000000210000041000000000000001164000000000002352751000000000000009999123100000010000000000000BRCPFEACNOR0121
012013070302CPLE3       010COPEL       ON      N1   R$  000000000220000000000022200000000002171000000000219600000000022050000000002000000000000220500025000000000000004900000000000010762500000000000000009999123100000010000000000000BRCPLEACNOR8128
012013070302CPLE6       010COPEL       PNB     N1   R$  000000000276800000000028170000000002707000000000277300000000027550000000002745000000000275502817000000000000524100000000001453814700000000000000009999123100000010000000000000BRCPLEACNPB9125
012013070396CPLE6F      020COPEL       PNB     N1   R$  000000000279900000000028240000000002701000000000277300000000027810000000002702000000000277500025000000000000000920000000000002551841000000000000009999123100000010000000000000BRCPLEACNPB9125
012013070302CRDE3       010CR2         ON      NM   R$  000000000040900000000004090000000000400000000000040400000000004040000000000400000000000040400005000000000000006300000000000002545300000000000000009999123100000010000000000000BRCRDEACNOR1108
012013070302CREM3       010CREMER      ON      NM   R$  000000000141400000000014170000000001385000000000140000000000013850000000001385000000000141700057000000000000169000000000000236633900000000000000009999123100000010000000000000BRCREMACNOR2166
012013070396CREM3F      020CREMER      ON      NM   R$  000000000140000000000014000000000001381000000000138100000000013810000000001266000000000141000003000000000000000093000000000000128452000000000000009999123100000010000000000000BRCREMACNOR2166
012013070362CREM3T      030CREMER      ON      NM061R$  000000000143600000000014370000000001436000000000143600000000014370000000000000000000000000000002000000000000001700000000000002441661000000000000009999123100000010000000000000BRCREMACNOR2166
012013070302CRIV3       010ALFA FINANC ON           R$  000000000049900000000005000000000000499000000000049900000000005000000000000440000000000051500008000000000000079100000000000039549900000000000000009999123100000010000000000000BRCRIVACNOR4189
012013070362CRIV3T      030ALFA FINANC ON        120R$  000000000051200000000005150000000000512000000000051400000000005150000000000000000000000000000006000000000000065000000000000033466427000000000000009999123100000010000000000000BRCRIVACNOR4189
012013070302CRUZ3       010SOUZA CRUZ  ON  EJ       R$  000000000273500000000027860000000002720000000000275100000000027230000000002723000000000273006025000000000001540500000000004238936900000000000000009999123100000010000000000000BRCRUZACNOR0246
012013070396CRUZ3F      020SOUZA CRUZ  ON  EJ       R$  000000000274000000000028160000000002713000000000276400000000028070000000002740000000000280600067000000000000001796000000000004964188000000000000009999123100000010000000000000BRCRUZACNOR0246
012013070362CRUZ3T      030SOUZA CRUZ  ON  EJ    030R$  000000000276400000000027650000000002764000000000276400000000027650000000000000000000000000000002000000000000001000000000000002764855000000000000009999123100000010000000000000BRCRUZACNOR0246
012013070378CRUZE82     070CRUZ    /EJ ON        000R$  000000000013500000000001350000000000135000000000013500000000001350000000000000000000000000000001000000000000009000000000000001215000000000000319902014051900000010000000000000BRCRUZACNOR0245
012013070302CSAN3       010COSAN       ON      NM   R$  000000000419700000000042920000000004180000000000422600000000042170000000004215000000000421702747000000000000499400000000002110559300000000000000009999123100000010000000000000BRCSANACNOR6107
012013070396CSAN3F      020COSAN       ON      NM   R$  000000000420000000000042700000000004195000000000422500000000042670000000004200000000000427000020000000000000000359000000000001517000000000000000009999123100000010000000000000BRCSANACNOR6107
012013070362CSAN3T      030COSAN       ON      NM016R$  000000000421100000000042120000000004211000000000421100000000042120000000000000000000000000000002000000000000000200000000000000842239000000000000009999123100000010000000000000BRCSANACNOR6107
012013070302CSCO11B     010CISCO       DRN ED  MB   R$  000000000558500000000055850000000005585000000000558500000000055850000000005594000000000574400001000000000000005500000000000030717500000000000000009999123100000010000000000000BRCSCOBDR004110
012013070302CSMG3       010COPASA      ON  EJ  NM   R$  000000000338600000000033860000000003202000000000326500000000032080000000003208000000000321703818000000000000720200000000002351897800000000000000009999123100000010000000000000BRCSMGACNOR5127
012013070396CSMG3F      020COPASA      ON  EJ  NM   R$  000000000343000000000034300000000003201000000000326100000000032010000000003201000000000334000037000000000000001273000000000004151379000000000000009999123100000010000000000000BRCSMGACNOR5127
012013070362CSMG3T      030COPASA      ON  EJ  NM047R$  000000000327700000000032780000000003277000000000327700000000032780000000000000000000000000000002000000000000001000000000000003277450000000000000009999123100000010000000000000BRCSMGACNOR5127
012013070314CSMO11      010ISHARES CSMOCI           R$  000000000443900000000044440000000004438000000000443900000000044440000000004300000000000444500004000000000000000270000000000001198780000000000000009999123100000010000000000000BRCSMOCTF002100
012013070302CSNA3       010SID NACIONALON           R$  000000000056400000000005800000000000555000000000056500000000005550000000000555000000000055808863000000000004811100000000002721014000000000000000009999123100000010000000000000BRCSNAACNOR6242
012013070396CSNA3F      020SID NACIONALON           R$  000000000057000000000005810000000000555000000000056700000000005700000000000560000000000057000092000000000000002337000000000001325885000000000000009999123100000010000000000000BRCSNAACNOR6242
012013070362CSNA3T      030SID NACIONALON        030R$  000000000056900000000005710000000000562000000000056700000000005630000000000000000000000000000012000000000000010500000000000005956241000000000000009999123100000010000000000000BRCSNAACNOR6242
012013070362CSNA3T      030SID NACIONALON        061R$  000000000057700000000005870000000000577000000000058400000000005870000000000000000000000000000004000000000000007700000000000004502154000000000000009999123100000010000000000000BRCSNAACNOR6242
012013070362CSNA3T      030SID NACIONALON        090R$  000000000057100000000005720000000000571000000000057100000000005720000000000000000000000000000002000000000000000500000000000000285845000000000000009999123100000010000000000000BRCSNAACNOR6242
012013070362CSNA3T      030SID NACIONALON        120R$  000000000058800000000005890000000000588000000000058800000000005890000000000000000000000000000002000000000000003000000000000001764210000000000000009999123100000010000000000000BRCSNAACNOR6242
012013070378CSNAG54     070CSNA        ON        000R$  000000000003900000000000390000000000037000000000003800000000000390000000000000000000000000000006000000000000017700000000000000684900000000000054002013071500000010000000000000BRCSNAACNOR6242
012013070378CSNAG56     070CSNA  FM    ON        000R$  000000000002700000000000320000000000020000000000003000000000000200000000000000000000000000000028000000000000060000000000000001809500000000000056002013071500000010000000000000BRCSNAACNOR6242
