00COTAHIST.2013BOVESPA 20130827                                                                                                                                                                                                                      
012013082702AAPL11B     010APPLE       DRN     MB   R$  000000001150100000000115010000000011501000000001150100000000115010000000011490000000001163000001000000000000001200000000000013801200000000000000009999123100000010000000000000BRAAPLBDR004105
012013082702ABCB4       010ABC BRASIL  PN      N2   R$  000000000120000000000012010000000001170000000000118700000000011700000000001170000000000118800558000000000000111000000000000131758200000000000000009999123100000010000000000000BRABCBACNPR4120
012013082796ABCB4F      020ABC BRASIL  PN      N2   R$  000000000120000000000012000000000001151000000000116700000000011750000000001167000000000120900003000000000000000155000000000000180897000000000000009999123100000010000000000000BRABCBACNPR4120
012013082712ABCP11      010FII ABC IMOBCI           R$  000000000090500000000009050000000000905000000000090500000000009050000000000905000000000094700001000000000000000081000000000000073305000000000000009999123100000010000000000000BRABCPCTF000214
012013082702ABRE11      010ABRIL EDUCA UNT     N2   R$  000000000322000000000032210000000003117000000000316600000000031920000000003180000000000319200540000000000000190900000000000604464900000000000000009999123100000010000000000000BRABRECDAM15102
012013082796ABRE11F     020ABRIL EDUCA UNT     N2   R$  000000000317200000000031720000000003120000000000313500000000031500000000003081000000000322900008000000000000000018000000000000056444000000000000009999123100000010000000000000BRABRECDAM15102
012013082702ABTT11B     010ABBOTT      DRN     MB   R$  000000000206000000000020600000000002060000000000206000000000020600000000001990000000000203000001000000000000001100000000000002266000000000000000009999123100000010000000000000BRABTTBDR007107
012013082702AEDU3       010ANHANGUERA  ON      NM   R$  000000000128900000000013500000000001277000000000132800000000013500000000001350000000000135208215000000000002960700000000003934663600000000000000009999123100000010000000000000BRAEDUACNOR9107
012013082796AEDU3F      020ANHANGUERA  ON      NM   R$  000000000127000000000013480000000001264000000000132300000000013420000000001335000000000134200044000000000000001262000000000001670480000000000000009999123100000010000000000000BRAEDUACNOR9107
012013082762AEDU3T      030ANHANGUERA  ON      NM016R$  000000000133800000000013390000000001338000000000133800000000013390000000000000000000000000000002000000000000052000000000000069607127000000000000009999123100000010000000000000BRAEDUACNOR9107
012013082762AEDU3T      030ANHANGUERA  ON      NM030R$  000000000134800000000013490000000001348000000000134800000000013490000000000000000000000000000002000000000000003200000000000004314794000000000000009999123100000010000000000000BRAEDUACNOR9107
012013082778AEDUI43     070AEDU        ON      NM000R$  000000000002000000000000200000000000020000000000002000000000000200000000000000000000000000000001000000000000006000000000000000120000000000000135002013091600000010000000000000BRAEDUACNOR9107
012013082712AEFI11      010FII AESAPAR CI           R$  000000001239900000000125660000000012350000000001243600000000123500000000012310000000001245000030000000000000001453000000000018069515000000000000009999123100000010000000000000BRAEFICTF002120
012013082702AELP3       010AES ELPA    ON           R$  000000000082000000000008200000000000790000000000081200000000007900000000000790000000000082000010000000000000002000000000000001625000000000000000009999123100000010000000000000BRAELPACNOR2119
012013082712AGCX11      010FII AG CAIXACI           R$  000000009939300000000993930000000099298000000009933700000000992980000000099250000000009930000006000000000000000030000000000002980110000000000000009999123100000010000000000000BRAGCXCTF003109
012013082702AGRO3       010BRASILAGRO  ON      NM   R$  000000000093600000000009360000000000927000000000093100000000009320000000000926000000000093200056000000000000058000000000000054006100000000000000009999123100000010000000000000BRAGROACNOR7102
012013082762AGRO3T      030BRASILAGRO  ON      NM181R$  000000000097600000000009770000000000976000000000097600000000009770000000000000000000000000000002000000000000005000000000000004883680000000000000009999123100000010000000000000BRAGROACNOR7102
012013082702ALLL3       010ALL AMER LATON      NM   R$  000000000087600000000008780000000000853000000000086200000000008590000000000858000000000085905245000000000001903500000000001640882800000000000000009999123100000010000000000000BRALLLACNOR6118
012013082796ALLL3F      020ALL AMER LATON      NM   R$  000000000088600000000008860000000000852000000000086100000000008520000000000852000000000086900020000000000000000502000000000000432113000000000000009999123100000010000000000000BRALLLACNOR6118
012013082762ALLL3T      030ALL AMER LATON      NM016R$  000000000086400000000008650000000000864000000000086400000000008650000000000000000000000000000002000000000000003000000000000002594451000000000000009999123100000010000000000000BRALLLACNOR6118
012013082762ALLL3T      030ALL AMER LATON      NM045R$  000000000087200000000008730000000000872000000000087200000000008730000000000000000000000000000002000000000000005000000000000004361069000000000000009999123100000010000000000000BRALLLACNOR6118
012013082712ALMI11B     010FII TORRE ALCI      MB   R$  000000031400000000003140000000000309003000000031211900000003090030000000309000000000031590000006000000000000000017000000000005306038000000000000009999123100000010000000000000BRALMICTF003204
012013082702ALPA3       010ALPARGATAS  ON  EJ  N1   R$  000000000110300000000011300000000001078000000000109600000000010780000000001078000000000119500019000000000000002100000000000002301800000000000000009999123100000010000000000000BRALPAACNOR0203
012013082702ALPA4       010ALPARGATAS  PN  EJ  N1   R$  000000000123000000000012300000000001177000000000119900000000012050000000001205000000000120702801000000000000684100000000000820357900000000000000009999123100000010000000000000BRALPAACNPR7203
012013082796ALPA4F      020ALPARGATAS  PN  EJ  N1   R$  000000000125000000000012500000000001182000000000120900000000011990000000001190000000000131600062000000000000000974000000000001177929000000000000009999123100000010000000000000BRALPAACNPR7203
012013082702ALSC3       010ALIANSCE    ON      NM   R$  000000000181200000000018470000000001800000000000182000000000018200000000001820000000000182302783000000000000810700000000001475881900000000000000009999123100000010000000000000BRALSCACNOR0104
012013082796ALSC3F      020ALIANSCE    ON      NM   R$  000000000180800000000018300000000001808000000000182300000000018300000000001803000000000190000003000000000000000138000000000000251594000000000000009999123100000010000000000000BRALSCACNOR0104
012013082702ALUP11      010ALUPAR      UNT     N2   R$  000000000170800000000017200000000001659000000000166800000000016610000000001661000000000167600519000000000000217100000000000362319300000000000000009999123100000010000000000000BRALUPCDAM15100
012013082796ALUP11F     020ALUPAR      UNT     N2   R$  000000000171500000000017150000000001655000000000167500000000016670000000001650000000000167500010000000000000000290000000000000485828000000000000009999123100000010000000000000BRALUPCDAM15100
012013082762ALUP11T     030ALUPAR      UNT     N2030R$  000000000168600000000016870000000001686000000000168600000000016870000000000000000000000000000002000000000000002000000000000003373785000000000000009999123100000010000000000000BRALUPCDAM15100
012013082762ALUP11T     030ALUPAR      UNT     N2090R$  000000000170400000000017360000000001704000000000171700000000017360000000000000000000000000000016000000000000002000000000000003435749000000000000009999123100000010000000000000BRALUPCDAM15100
012013082702AMAR3       010LOJAS MARISAON      NM   R$  000000000191700000000019430000000001865000000000189600000000018900000000001881000000000189002935000000000000511000000000000969114300000000000000009999123100000010000000000000BRAMARACNOR4109
012013082796AMAR3F      020LOJAS MARISAON      NM   R$  000000000189000000000018900000000001865000000000187400000000018750000000001870000000000188000007000000000000000087000000000000163075000000000000009999123100000010000000000000BRAMARACNOR4109
012013082702AMBV3       010AMBEV       ON           R$  000000000805600000000081000000000007982000000000804900000000081000000000008058000000000810001345000000000000616900000000004965594200000000000000009999123100000010000000000000BRAMBVACNOR4153
012013082796AMBV3F      020AMBEV       ON           R$  000000000819900000000082690000000007990000000000803300000000080640000000008010000000000806400056000000000000001115000000000008958623000000000000009999123100000010000000000000BRAMBVACNOR4153
012013082762AMBV3T      030AMBEV       ON        030R$  000000000812000000000081210000000008064000000000807000000000080650000000000000000000000000000008000000000000030100000000000242928956000000000000009999123100000010000000000000BRAMBVACNOR4153
012013082702AMBV4       010AMBEV       PN           R$  000000000810100000000081470000000007980000000000804500000000081040000000008094000000000810412163000000000002170000000000017458333200000000000000009999123100000010000000000000BRAMBVACNPR1153
012013082796AMBV4F      020AMBEV       PN           R$  000000000816000000000081600000000007982000000000803300000000080700000000008046000000000813100188000000000000004376000000000035156873000000000000009999123100000010000000000000BRAMBVACNPR1153
012013082762AMBV4T      030AMBEV       PN        016R$  000000000806800000000080690000000008053000000000806200000000080540000000000000000000000000000004000000000000000800000000000006450278000000000000009999123100000010000000000000BRAMBVACNPR1153
012013082762AMBV4T      030AMBEV       PN        029R$  000000000804600000000080470000000008046000000000804600000000080470000000000000000000000000000002000000000000000200000000000001609387000000000000009999123100000010000000000000BRAMBVACNPR1153
012013082762AMBV4T      030AMBEV       PN        030R$  000000000808700000000081420000000008043000000000809600000000081420000000000000000000000000000018000000000000005100000000000041293531000000000000009999123100000010000000000000BRAMBVACNPR1153
012013082762AMBV4T      030AMBEV       PN        045R$  000000000810000000000081010000000008100000000000810000000000081010000000000000000000000000000002000000000000000100000000000000810093000000000000009999123100000010000000000000BRAMBVACNPR1153
012013082762AMBV4T      030AMBEV       PN        062R$  000000000811500000000082180000000008108000000000812800000000082180000000000000000000000000000006000000000000001800000000000014631303000000000000009999123100000010000000000000BRAMBVACNPR1153
012013082762AMBV4T      030AMBEV       PN        090R$  000000000814800000000081490000000008146000000000814600000000081470000000000000000000000000000004000000000000003000000000000024440931000000000000009999123100000010000000000000BRAMBVACNPR1153
012013082762AMBV4T      030AMBEV       PN        121R$  000000000820800000000082090000000008208000000000820800000000082090000000000000000000000000000002000000000000001000000000000008208809000000000000009999123100000010000000000000BRAMBVACNPR1153
012013082702ARTR3       010ARTERIS     ON      NM   R$  000000000224000000000022430000000002160000000000219100000000021700000000002170000000000218101838000000000002624100000000005751167800000000000000009999123100000010000000000000BRARTRACNOR3101
012013082796ARTR3F      020ARTERIS     ON      NM   R$  000000000222000000000022200000000002156000000000219700000000021770000000002071000000000217900025000000000000000684000000000001502821000000000000009999123100000010000000000000BRARTRACNOR3101
012013082702ARZZ3       010AREZZO CO   ON      NM   R$  000000000350500000000035050000000003378000000000342200000000033850000000003385000000000341000781000000000000260600000000000891793800000000000000009999123100000010000000000000BRARZZACNOR3109
012013082796ARZZ3F      020AREZZO CO   ON      NM   R$  000000000342100000000034250000000003400000000000340900000000034250000000003380000000000341800005000000000000000101000000000000344381000000000000009999123100000010000000000000BRARZZACNOR3109
012013082702ATTB11B     010ATT INC     DRN     MB   R$  000000000821000000000082100000000008210000000000821000000000082100000000007100000000000880000001000000000000000200000000000001642000000000000000009999123100000010000000000000BRATTBBDR007104
012013082702AUTM3       010AUTOMETAL   ON      NM   R$  000000000184300000000018430000000001825000000000183900000000018300000000001827000000000183000118000000000000070700000000000130074300000000000000009999123100000010000000000000BRAUTMACNOR8109
012013082796AUTM3F      020AUTOMETAL   ON      NM   R$  000000000184000000000018500000000001836000000000183800000000018500000000001733000000000185000005000000000000000183000000000000336514000000000000009999123100000010000000000000BRAUTMACNOR8109
012013082702AXPB11B     010AMERICAN EXPDRN     MB   R$  000000001753000000000175300000000016989000000001709600000000169890000000000000000000000000000004000000000000001500000000000025644600000000000000009999123100000010000000000000BRAXPBBDR007105
012013082702AZEV4       010AZEVEDO     PN           R$  000000000016400000000001640000000000164000000000016400000000001640000000000164000000000016600001000000000000000600000000000000098400000000000000009999123100000010000000000000BRAZEVACNPR7113
012013082702BAHI3       010BAHEMA      ON           R$  000000000047300000000004730000000000473000000000047300000000004730000000000472000000000048000001000000000000000100000000000000047300000000000000009999123100000010000000000000BRBAHIACNOR1066
012013082702BAZA3       010AMAZONIA    ON           R$  000000000003300000000000330000000000032000000000003200000000000320000000000031000000000003300012000000000000171000000000000005492000000000000000009999123100000010000000000000BRBAZAACNOR0163
012013082702BBAS3       010BRASIL      ON  ED  NM   R$  000000000216000000000021800000000002150000000000216500000000021800000000002179000000000218012243000000000010373200000000022463874100000000000000009999123100000010000000000000BRBBASACNOR3238
012013082796BBAS3F      020BRASIL      ON  ED  NM   R$  000000000217500000000021770000000002152000000000216600000000021620000000002162000000000217200238000000000000006550000000000014189472000000000000009999123100000010000000000000BRBBASACNOR3238
012013082762BBAS3T      030BRASIL      ON  ED  NM041R$  000000000218500000000021860000000002185000000000218500000000021860000000000000000000000000000002000000000000020000000000000043711350000000000000009999123100000010000000000000BRBBASACNOR3238
012013082762BBAS3T      030BRASIL      ON  ED  NM060R$  000000000221200000000022130000000002212000000000221200000000022130000000000000000000000000000002000000000000002000000000000004424092000000000000009999123100000010000000000000BRBBASACNOR3238
012013082762BBAS3T      030BRASIL      ON  ED  NM062R$  000000000220400000000022060000000002198000000000220300000000021990000000000000000000000000000010000000000000221500000000000488065794000000000000009999123100000010000000000000BRBBASACNOR3238
012013082762BBAS3T      030BRASIL      ON  ED  NM090R$  000000000220300000000022040000000002203000000000220300000000022040000000000000000000000000000002000000000000050000000000000110181600000000000000009999123100000010000000000000BRBBASACNOR3238
012013082762BBAS3T      030BRASIL      ON  ED  NM150R$  000000000225300000000022540000000002253000000000225300000000022540000000000000000000000000000002000000000000002000000000000004506493000000000000009999123100000010000000000000BRBBASACNOR3238
012013082778BBASA25     070BBAS    /EDRON      NM000R$  000000000007800000000000780000000000078000000000007800000000000780000000000000000000000000000002000000000000006600000000000000514800000000000242202014012000000010000000000000BRBBASACNOR3237
012013082778BBASB23     070BBAS    /EDRON      NM000R$  000000000018000000000001800000000000180000000000018000000000001800000000000000000000000000000001000000000000000400000000000000072000000000000222202014021700000010000000000000BRBBASACNOR3237
012013082778BBASI21     070BBAS  FM/EDRON      NM000R$  000000000014000000000001810000000000140000000000017000000000001640000000000164000000000019500039000000000000049200000000000008406500000000000202202013091600000010000000000000BRBBASACNOR3237
012013082778BBASI22     070BBAS  FM/EDRON      NM000R$  000000000010800000000001220000000000107000000000011200000000001200000000000120000000000013000131000000000000128500000000000014498400000000000209802013091600000010000000000000BRBBASACNOR3236
012013082778BBASI23     070BBAS  FM/EDRON      NM000R$  000000000005500000000000560000000000046000000000005100000000000550000000000050000000000005500049000000000000079700000000000004099300000000000219802013091600000010000000000000BRBBASACNOR3236
012013082778BBASI24     070BBAS  FM/EDRON      NM000R$  000000000002000000000000230000000000017000000000001900000000000230000000000017000000000002300095000000000000153600000000000002995500000000000229802013091600000010000000000000BRBBASACNOR3236
012013082778BBASI25     070BBAS  FM/EDRON      NM000R$  000000000000900000000000100000000000007000000000000800000000000100000000000007000000000001100043000000000000055000000000000000487900000000000238802013091600000010000000000000BRBBASACNOR3235
012013082778BBASI26     070BBAS    /EDRON      NM000R$  000000000000300000000000040000000000003000000000000300000000000040000000000002000000000000600013000000000000012400000000000000039600000000000248802013091600000010000000000000BRBBASACNOR3235
012013082778BBASI27     070BBAS    /EDRON      NM000R$  000000000000200000000000020000000000002000000000000200000000000020000000000002000000000000500002000000000000010000000000000000020000000000000259802013091600000010000000000000BRBBASACNOR3236
012013082778BBASI28     070BBAS    /EDRON      NM000R$  000000000000100000000000010000000000001000000000000100000000000010000000000000000000000000200001000000000000004400000000000000004400000000000268802013091600000010000000000000BRBBASACNOR3235
012013082778BBASJ21     070BBAS  FM/EDRON      NM000R$  000000000021300000000002180000000000208000000000021200000000002180000000000000000000000000000021000000000000040300000000000008577200000000000202202013102100000010000000000000BRBBASACNOR3237
012013082778BBASJ22     070BBAS  FM/EDRON      NM000R$  000000000013900000000001530000000000138000000000014500000000001510000000000000000000000000000113000000000000129600000000000018852300000000000212202013102100000010000000000000BRBBASACNOR3237
012013082778BBASJ23     070BBAS  FM/EDRON      NM000R$  000000000010700000000001120000000000097000000000010000000000001110000000000096000000000000000073000000000000182400000000000018259700000000000218802013102100000010000000000000BRBBASACNOR3235
012013082778BBASJ24     070BBAS  FM/EDRON      NM000R$  000000000005800000000000620000000000054000000000005700000000000610000000000040000000000006500030000000000000062100000000000003580400000000000229802013102100000010000000000000BRBBASACNOR3236
012013082778BBASJ25     070BBAS  FM/EDRON      NM000R$  000000000002600000000000280000000000024000000000002500000000000280000000000017000000000004000023000000000000028000000000000000724000000000000242202013102100000010000000000000BRBBASACNOR3237
012013082778BBASJ27     070BBAS    /EDRON      NM000R$  000000000000800000000000080000000000008000000000000800000000000080000000000008000000000003800001000000000000006500000000000000052000000000000258802013102100000010000000000000BRBBASACNOR3235
012013082778BBASJ28     070BBAS    /EDRON      NM000R$  000000000000400000000000040000000000004000000000000400000000000040000000000003000000000000800001000000000000001200000000000000004800000000000272202013102100000010000000000000BRBBASACNOR3237
012013082778BBASK25     070BBAS    /EDRON      NM000R$  000000000004800000000000520000000000048000000000004900000000000520000000000016000000000005300004000000000000008100000000000000399200000000000239802013111800000010000000000000BRBBASACNOR3236
012013082778BBASK26     070BBAS    /EDRON      NM000R$  000000000003200000000000320000000000032000000000003200000000000320000000000016000000000000000001000000000000003000000000000000096000000000000249802013111800000010000000000000BRBBASACNOR3236
012013082778BBASL23     070BBAS    /EDRON      NM000R$  000000000012700000000001270000000000127000000000012700000000001270000000000000000000000000000001000000000000100000000000000012700000000000000222202013121600000010000000000000BRBBASACNOR3237
012013082778BBASL24     070BBAS    /EDRON      NM000R$  000000000009800000000001000000000000098000000000009900000000001000000000000000000000000013100003000000000000004000000000000000397000000000000232202013121600000010000000000000BRBBASACNOR3237
012013082782BBASM19     080BBASE   /EDRON      NM000R$  000000000004700000000000470000000000047000000000004700000000000470000000000000000000000000000001000000000000001200000000000000056400000000000190002014012000000010000000000000BRBBASACNOR3238
012013082782BBASU18     080BBASE   /EDRON      NM000R$  000000000000300000000000030000000000003000000000000300000000000030000000000000000000000000000001000000000000000100000000000000000300000000000172202013091600000010000000000000BRBBASACNOR3237
012013082782BBASU20     080BBASE FM/EDRON      NM000R$  000000000000900000000000110000000000008000000000000900000000000110000000000008000000000000000059000000000000106400000000000000998900000000000192202013091600000010000000000000BRBBASACNOR3237
012013082782BBASU21     080BBASE FM/EDRON      NM000R$  000000000001800000000000200000000000017000000000001900000000000200000000000000000000000000000052000000000000146800000000000002850700000000000202202013091600000010000000000000BRBBASACNOR3237
012013082782BBASU22     080BBASE FM/EDRON      NM000R$  000000000003300000000000350000000000030000000000003300000000000340000000000001000000000005000117000000000000237700000000000007844400000000000209802013091600000010000000000000BRBBASACNOR3236
012013082782BBASU23     080BBASE FM/EDRON      NM000R$  000000000007300000000000750000000000069000000000007200000000000740000000000000000000000000000019000000000000029000000000000002095800000000000219802013091600000010000000000000BRBBASACNOR3236
012013082782BBASU61     080BBASE   /EDRON      NM000R$  000000000005100000000000510000000000050000000000005000000000000500000000000000000000000000000002000000000000008000000000000000404000000000000214702013091600000010000000000000BRBBASACNOR3237
012013082782BBASV20     080BBASE FM/EDRON      NM000R$  000000000002600000000000280000000000024000000000002600000000000280000000000000000000000000000040000000000000093900000000000002486200000000000192202013102100000010000000000000BRBBASACNOR3237
012013082782BBASV21     080BBASE FM/EDRON      NM000R$  000000000004300000000000460000000000043000000000004400000000000460000000000000000000000000000011000000000000021000000000000000929700000000000202202013102100000010000000000000BRBBASACNOR3237
012013082782BBASV22     080BBASE FM/EDRON      NM000R$  000000000007100000000000750000000000071000000000007300000000000750000000000000000000000024700012000000000000024800000000000001811000000000000212202013102100000010000000000000BRBBASACNOR3237
012013082782BBASV23     080BBASE FM/EDRON      NM000R$  000000000009800000000001030000000000096000000000010000000000001020000000000000000000000000000074000000000000085200000000000008520800000000000218802013102100000010000000000000BRBBASACNOR3235
012013082782BBASV25     080BBASE   /EDRON      NM000R$  000000000025100000000002520000000000248000000000025000000000002500000000000000000000000000000006000000000000017100000000000004278900000000000242202013102100000010000000000000BRBBASACNOR3237
012013082782BBASW21     080BBASE   /EDRON      NM000R$  000000000005200000000000520000000000052000000000005200000000000520000000000000000000000045900001000000000000001500000000000000078000000000000199802013111800000010000000000000BRBBASACNOR3236
012013082782BBASW22     080BBASE   /EDRON      NM000R$  000000000008700000000000890000000000087000000000008700000000000870000000000000000000000000000004000000000000007500000000000000657000000000000212202013111800000010000000000000BRBBASACNOR3237
012013082702BBDC3       010BRADESCO    ON      N1   R$  000000000307800000000030990000000003029000000000305700000000030360000000003036000000000305003632000000000001073500000000003281864700000000000000009999123100000010000000000000BRBBDCACNOR1605
012013082796BBDC3F      020BRADESCO    ON      N1   R$  000000000310900000000031090000000003011000000000305300000000030360000000003010000000000307500036000000000000001116000000000003407934000000000000009999123100000010000000000000BRBBDCACNOR1605
012013082762BBDC3T      030BRADESCO    ON      N1062R$  000000000312300000000031280000000003116000000000312000000000031170000000000000000000000000000006000000000000230000000000000717732563000000000000009999123100000010000000000000BRBBDCACNOR1605
012013082702BBDC4       010BRADESCO    PN      N1   R$  000000000274900000000027490000000002683000000000270800000000026900000000002690000000000269520033000000000009084100000000024607020200000000000000009999123100000010000000000000BRBBDCACNPR8605
012013082796BBDC4F      020BRADESCO    PN      N1   R$  000000000276000000000027660000000002683000000000271500000000027160000000002700000000000271600349000000000000008550000000000023213502000000000000009999123100000010000000000000BRBBDCACNPR8605
012013082762BBDC4T      030BRADESCO    PN      N1016R$  000000000272200000000027250000000002703000000000270900000000027060000000000000000000000000000016000000000000013400000000000036313929000000000000009999123100000010000000000000BRBBDCACNPR8605
012013082762BBDC4T      030BRADESCO    PN      N1023R$  000000000275100000000027520000000002710000000000273100000000027110000000000000000000000000000004000000000000001000000000000002731062000000000000009999123100000010000000000000BRBBDCACNPR8605
012013082762BBDC4T      030BRADESCO    PN      N1030R$  000000000278000000000027810000000002708000000000271600000000027150000000000000000000000000000028000000000000081658000000000221860944000000000000009999123100000010000000000000BRBBDCACNPR8605
012013082762BBDC4T      030BRADESCO    PN      N1045R$  000000000274100000000027420000000002728000000000274000000000027290000000000000000000000000000006000000000000013000000000000035623314000000000000009999123100000010000000000000BRBBDCACNPR8605
012013082762BBDC4T      030BRADESCO    PN      N1062R$  000000000274200000000027430000000002742000000000274200000000027430000000000000000000000000000002000000000000005000000000000013714350000000000000009999123100000010000000000000BRBBDCACNPR8605
012013082762BBDC4T      030BRADESCO    PN      N1090R$  000000000276300000000027650000000002753000000000276200000000027540000000000000000000000000000024000000000000055000000000000151912881000000000000009999123100000010000000000000BRBBDCACNPR8605
012013082762BBDC4T      030BRADESCO    PN      N1150R$  000000000281500000000028160000000002815000000000281500000000028160000000000000000000000000000002000000000000005000000000000014078892000000000000009999123100000010000000000000BRBBDCACNPR8605
012013082762BBDC4T      030BRADESCO    PN      N1181R$  000000000282600000000028270000000002826000000000282600000000028270000000000000000000000000000002000000000000000200000000000000565249000000000000009999123100000010000000000000BRBBDCACNPR8605
012013082778BBDCI26     070BBDC        PN      N1000R$  000000000017000000000001700000000000141000000000015600000000001410000000000000000000000016000005000000000000012200000000000001907700000000000259802013091600000010000000000000BRBBDCACNPR8604
012013082778BBDCI27     070BBDC        PN      N1000R$  000000000011500000000001180000000000081000000000009500000000000830000000000083000000000009100277000000000000374800000000000035734400000000000267802013091600000010000000000000BRBBDCACNPR8602
012013082778BBDCI28     070BBDC        PN      N1000R$  000000000005600000000000600000000000035000000000004300000000000400000000000040000000000004500259000000000000569300000000000024810600000000000277802013091600000010000000000000BRBBDCACNPR8602
012013082778BBDCI29     070BBDC        PN      N1000R$  000000000002600000000000280000000000012000000000001700000000000120000000000013000000000001900314000000000000483200000000000008402100000000000287802013091600000010000000000000BRBBDCACNPR8602
012013082778BBDCI30     070BBDC        PN      N1000R$  000000000001500000000000150000000000006000000000000800000000000090000000000006000000000001500032000000000000048100000000000000404800000000000297802013091600000010000000000000BRBBDCACNPR8602
012013082778BBDCI31     070BBDC        PN      N1000R$  000000000006200000000000650000000000055000000000005800000000000650000000000050000000000000000010000000000000066700000000000003903300000000000272902013091600000010000000000000BRBBDCACNPR8590
012013082778BBDCI32     070BBDC        PN      N1000R$  000000000000200000000000020000000000002000000000000200000000000020000000000001000000000000000002000000000000012000000000000000024000000000000317802013091600000010000000000000BRBBDCACNPR8602
012013082778BBDCI33     070BBDC        PN      N1000R$  000000000000900000000000090000000000009000000000000900000000000090000000000005000000000000000006000000000000006000000000000000054000000000000297202013091600000010000000000000BRBBDCACNPR8598
012013082778BBDCI58     070BBDC        PN      N1000R$  000000000003400000000000340000000000026000000000002700000000000260000000000000000000000006100003000000000000003300000000000000091400000000000285002013091600000010000000000000BRBBDCACNPR8605
012013082778BBDCI81     070BBDC        PN      N1000R$  000000000000300000000000050000000000003000000000000400000000000050000000000003000000000001200028000000000000053500000000000000214100000000000307802013091600000010000000000000BRBBDCACNPR8602
012013082778BBDCJ26     070BBDC        PN      N1000R$  000000000021700000000002180000000000203000000000021100000000002030000000000000000000000000000012000000000000013400000000000002839800000000000259802013102100000010000000000000BRBBDCACNPR8604
012013082778BBDCJ27     070BBDC        PN      N1000R$  000000000017600000000001760000000000147000000000015500000000001570000000000000000000000019900116000000000000138500000000000021489700000000000267802013102100000010000000000000BRBBDCACNPR8602
012013082778BBDCJ29     070BBDC        PN      N1000R$  000000000007100000000000760000000000057000000000006400000000000630000000000055000000000007100110000000000000272400000000000017466900000000000287802013102100000010000000000000BRBBDCACNPR8602
012013082778BBDCJ30     070BBDC        PN      N1000R$  000000000005100000000000510000000000033000000000004500000000000350000000000020000000000006900026000000000000065000000000000002925900000000000297802013102100000010000000000000BRBBDCACNPR8602
012013082778BBDCJ31     070BBDC        PN      N1000R$  000000000002600000000000260000000000020000000000002200000000000200000000000020000000000004800004000000000000002400000000000000053200000000000307802013102100000010000000000000BRBBDCACNPR8602
012013082778BBDCJ32     070BBDC        PN      N1000R$  000000000001200000000000120000000000010000000000001000000000000100000000000011000000000002900004000000000000007000000000000000072000000000000317802013102100000010000000000000BRBBDCACNPR8602
012013082778BBDCJ58     070BBDC        PN      N1000R$  000000000010900000000001090000000000086000000000009700000000000920000000000000000000000000000043000000000000085500000000000008316300000000000280002013102100000010000000000000BRBBDCACNPR8605
012013082778BBDCK26     070BBDC        PN      N1000R$  000000000025200000000002520000000000228000000000024000000000002280000000000000000000000000000002000000000000006000000000000001440000000000000259802013111800000010000000000000BRBBDCACNPR8604
012013082778BBDCK27     070BBDC        PN      N1000R$  000000000020000000000002000000000000168000000000017900000000001710000000000000000000000000000014000000000000039900000000000007157400000000000269602013111800000010000000000000BRBBDCACNPR8603
012013082778BBDCK28     070BBDC        PN      N1000R$  000000000015700000000001570000000000122000000000013600000000001350000000000000000000000000000021000000000000153100000000000020833300000000000277802013111800000010000000000000BRBBDCACNPR8602
012013082778BBDCK30     070BBDC        PN      N1000R$  000000000005200000000000540000000000052000000000005300000000000520000000000000000000000000000004000000000000009700000000000000515400000000000300002013111800000010000000000000BRBBDCACNPR8605
012013082778BBDCK9      070BBDC        PN      N1000R$  000000000010200000000001020000000000102000000000010200000000001020000000000000000000000000000001000000000000001500000000000000153000000000000290002013111800000010000000000000BRBBDCACNPR8605
012013082778BBDCL27     070BBDC        PN      N1000R$  000000000020300000000002030000000000201000000000020200000000002010000000000000000000000000000003000000000000005000000000000001011000000000000269802013121600000010000000000000BRBBDCACNPR8604
012013082778BBDCL28     070BBDC        PN      N1000R$  000000000015300000000001530000000000153000000000015300000000001530000000000000000000000000000001000000000000100000000000000015300000000000000279802013121600000010000000000000BRBBDCACNPR8604
012013082778BBDCL29     070BBDC        PN      N1000R$  000000000012600000000001260000000000126000000000012600000000001260000000000000000000000023100008000000000000004000000000000000504000000000000287802013121600000010000000000000BRBBDCACNPR8602
012013082782BBDCN26     080BBDCE       PN      N1000R$  000000000011400000000001140000000000114000000000011400000000001140000000000000000000000000000001000000000000001200000000000000136800000000000260002014021700000010000000000000BRBBDCACNPR8605
012013082782BBDCU24     080BBDCE       PN      N1000R$  000000000001000000000000100000000000010000000000001000000000000100000000000000000000000000000001000000000000001000000000000000010000000000000239802013091600000010000000000000BRBBDCACNPR8604
012013082782BBDCU25     080BBDCE       PN      N1000R$  000000000001500000000000150000000000015000000000001500000000000150000000000000000000000000000001000000000000001000000000000000015000000000000249802013091600000010000000000000BRBBDCACNPR8604
012013082782BBDCU26     080BBDCE       PN      N1000R$  000000000002700000000000350000000000025000000000003200000000000330000000000000000000000000000035000000000000068200000000000002198800000000000259802013091600000010000000000000BRBBDCACNPR8604
012013082782BBDCU27     080BBDCE       PN      N1000R$  000000000003600000000000610000000000036000000000005100000000000590000000000045000000000006200063000000000000113700000000000005887300000000000267802013091600000010000000000000BRBBDCACNPR8602
012013082782BBDCU28     080BBDCE       PN      N1000R$  000000000008500000000001150000000000085000000000009800000000001080000000000000000000000000000050000000000000083900000000000008288200000000000277802013091600000010000000000000BRBBDCACNPR8602
012013082782BBDCU29     080BBDCE       PN      N1000R$  000000000015900000000001940000000000152000000000017700000000001890000000000000000000000000000049000000000000088800000000000015727600000000000287802013091600000010000000000000BRBBDCACNPR8602
012013082782BBDCU31     080BBDCE       PN      N1000R$  000000000006000000000000600000000000060000000000006000000000000600000000000000000000000000000001000000000000001200000000000000072000000000000272902013091600000010000000000000BRBBDCACNPR8590
012013082782BBDCV25     080BBDCE       PN      N1000R$  000000000004000000000000400000000000040000000000004000000000000400000000000000000000000000000001000000000000001200000000000000048000000000000249602013102100000010000000000000BRBBDCACNPR8603
012013082782BBDCV26     080BBDCE       PN      N1000R$  000000000007100000000000730000000000071000000000007100000000000730000000000000000000000000000003000000000000006300000000000000451500000000000259802013102100000010000000000000BRBBDCACNPR8604
012013082782BBDCV27     080BBDCE       PN      N1000R$  000000000009000000000001010000000000084000000000009000000000001010000000000000000000000000000018000000000000031900000000000002888100000000000267802013102100000010000000000000BRBBDCACNPR8602
012013082782BBDCV29     080BBDCE       PN      N1000R$  000000000018700000000002080000000000181000000000019300000000002070000000000000000000000000000014000000000000025700000000000004971600000000000287802013102100000010000000000000BRBBDCACNPR8602
012013082782BBDCV58     080BBDCE       PN      N1000R$  000000000014000000000001590000000000140000000000015000000000001570000000000000000000000000000019000000000000031400000000000004729900000000000280002013102100000010000000000000BRBBDCACNPR8605
012013082782BBDCW23     080BBDCE       PN      N1000R$  000000000002600000000000260000000000026000000000002600000000000260000000000000000000000000000003000000000000004000000000000000104000000000000230002013111800000010000000000000BRBBDCACNPR8605
012013082782BBDCW24     080BBDCE       PN      N1000R$  000000000004000000000000420000000000038000000000003800000000000420000000000000000000000000000038000000000000039300000000000001530400000000000240002013111800000010000000000000BRBBDCACNPR8605
012013082782BBDCW25     080BBDCE       PN      N1000R$  000000000005300000000000620000000000053000000000005400000000000620000000000000000000000000000074000000000000183100000000000009986800000000000249802013111800000010000000000000BRBBDCACNPR8604
012013082782BBDCW26     080BBDCE       PN      N1000R$  000000000008200000000000830000000000080000000000008100000000000830000000000000000000000000000003000000000000005500000000000000449000000000000259802013111800000010000000000000BRBBDCACNPR8604
012013082782BBDCW27     080BBDCE       PN      N1000R$  000000000011300000000001130000000000111000000000011200000000001110000000000000000000000000000002000000000000002400000000000000268800000000000269602013111800000010000000000000BRBBDCACNPR8603
012013082782BBDCW8      080BBDCE       PN      N1000R$  000000000004900000000000530000000000048000000000004800000000000530000000000000000000000000000012000000000000015100000000000000735300000000000246002013111800000010000000000000BRBBDCACNPR8592
012013082712BBFI11B     010FII BB PROGRCI      MB   R$  000000042200100000004240000000000422001000000042268300000004240000000000422601000000042699900004000000000000000006000000000002536102000000000000009999123100000010000000000000BRBBFICTF006197
012013082712BBPO11      010FII BB PRGIICI           R$  000000001092800000000110300000000010922000000001097600000000109300000000010928000000001093000219000000000000017793000000000195304729000000000000009999123100000010000000000000BRBBPOCTF003109
012013082702BBRK3       010BR BROKERS  ON      NM   R$  000000000053100000000005380000000000520000000000052900000000005280000000000527000000000052803201000000000000611700000000000323601400000000000000009999123100000010000000000000BRBBRKACNOR4108
012013082796BBRK3F      020BR BROKERS  ON      NM   R$  000000000053000000000005300000000000529000000000052900000000005290000000000508000000000053000002000000000000000086000000000000045521000000000000009999123100000010000000000000BRBBRKACNOR4108
012013082702BBSE3       010BBSEGURIDADEON  ED  NM   R$  000000000187000000000018960000000001861000000000188200000000018960000000001887000000000189710239000000000003484000000000006560177900000000000000009999123100000010000000000000BRBBSEACNOR5101
012013082796BBSE3F      020BBSEGURIDADEON  ED  NM   R$  000000000186800000000018930000000001850000000000188000000000018930000000001875000000000189301952000000000000067605000000000127136751000000000000009999123100000010000000000000BRBBSEACNOR5101
012013082702BBTG11      010BTG PACTUAL UNT          R$  000000000276000000000027600000000002688000000000271000000000027150000000002715000000000272000663000000000004240800000000011492769900000000000000009999123100000010000000000000BRBBTGUNT007105
012013082796BBTG11F     020BTG PACTUAL UNT          R$  000000000272300000000027230000000002700000000000271300000000027030000000002600000000000280000004000000000000000126000000000000341885000000000000009999123100000010000000000000BRBBTGUNT007105
012013082762BBTG11T     030BTG PACTUAL UNT       181R$  000000000284000000000028410000000002840000000000284000000000028410000000000000000000000000000002000000000000213600000000000606732231000000000000009999123100000010000000000000BRBBTGUNT007105
012013082762BBTG11T     030BTG PACTUAL UNT       360R$  000000000299800000000029990000000002998000000000299800000000029990000000000000000000000000000004000000000003912600000000011733441364000000000000009999123100000010000000000000BRBBTGUNT007105
012013082712BBVJ11      010FII C JARDIMCI           R$  000000000782100000000078390000000007602000000000773900000000077100000000007710000000000782000023000000000000000924000000000007151335000000000000009999123100000010000000000000BRBBVJCTF001132
012013082712BCFF11B     010FII BC FFII CI      MB   R$  000000000966000000000096600000000009400000000000947500000000094050000000009405000000000943000092000000000000005223000000000049492169000000000000009999123100000010000000000000BRBCFFCTF000141
012013082702BDLL4       010BARDELLA    PN           R$  000000000577000000000057700000000005770000000000577000000000057700000000004701000000000577900002000000000000000700000000000004039000000000000000009999123100000010000000000000BRBDLLACNPR8149
012013082762BDLL4T      030BARDELLA    PN        062R$  000000000585100000000058520000000005851000000000585100000000058520000000000000000000000000000002000000000000000700000000000004096354000000000000009999123100000010000000000000BRBDLLACNPR8149
012013082702BEEF3       010MINERVA     ON      NM   R$  000000000108300000000010890000000001059000000000107600000000010820000000001079000000000108203658000000000001132800000000001219763200000000000000009999123100000010000000000000BRBEEFACNOR6104
012013082796BEEF3F      020MINERVA     ON      NM   R$  000000000106800000000010840000000001051000000000106300000000010510000000001050000000000108300007000000000000000223000000000000237184000000000000009999123100000010000000000000BRBEEFACNOR6104
012013082702BEES3       010BANESTES    ON           R$  000000000004700000000000480000000000047000000000004700000000000470000000000047000000000004800015000000000000636000000000000029901100000000000000009999123100000010000000000000BRBEESACNOR9243
012013082762BEES3T      030BANESTES    ON        181R$  000000000005000000000000510000000000050000000000005000000000000510000000000000000000000000000002000000000000007000000000000000352363000000000000009999123100000010000000000000BRBEESACNOR9243
012013082702BEMA3       010BEMATECH    ON      NM   R$  000000000068100000000006860000000000680000000000068200000000006800000000000680000000000068300092000000000000031800000000000021704800000000000000009999123100000010000000000000BRBEMAACNOR0114
012013082796BEMA3F      020BEMATECH    ON      NM   R$  000000000069000000000006900000000000690000000000069000000000006900000000000663000000000069800002000000000000000080000000000000055200000000000000009999123100000010000000000000BRBEMAACNOR0114
012013082702BGIP4       010BANESE      PN  ED       R$  000000000467000000000047900000000004551000000000463800000000045510000000004200000000000477400008000000000000001900000000000008813700000000000000009999123100000010000000000000BRBGIPACNPR8179
012013082702BHGR3       010BHG         ON      NM   R$  000000000142700000000014420000000001411000000000141800000000014300000000001417000000000143000130000000000000066400000000000094187500000000000000009999123100000010000000000000BRBHGRACNOR9101
012013082796BHGR3F      020BHG         ON      NM   R$  000000000143000000000014980000000001430000000000145800000000014800000000001215000000000149900003000000000000000058000000000000084592000000000000009999123100000010000000000000BRBHGRACNOR9101
012013082702BICB4       010BICBANCO    PN      N1   R$  000000000039700000000004000000000000390000000000039200000000003910000000000391000000000039500104000000000000015200000000000005968200000000000000009999123100000010000000000000BRBICBACNPR7131
012013082796BICB4F      020BICBANCO    PN      N1   R$  000000000040000000000004000000000000399000000000039900000000003990000000000395000000000040700002000000000000000081000000000000032399000000000000009999123100000010000000000000BRBICBACNPR7131
012013082796BIOM4F      020BIOMM       PN           R$  000000000075000000000008100000000000740000000000076100000000007900000000000785000000000080000008000000000000000946000000000000720339000000000000009999123100000010000000000000BRBIOMACNPR9101
012013082702BISA3       010BROOKFIELD  ON      NM   R$  000000000017700000000001790000000000169000000000017300000000001700000000000170000000000017103625000000000007679600000000001329591800000000000000009999123100000010000000000000BRBISAACNOR8109
012013082796BISA3F      020BROOKFIELD  ON      NM   R$  000000000018000000000001800000000000170000000000017500000000001700000000000170000000000017400021000000000000000452000000000000079175000000000000009999123100000010000000000000BRBISAACNOR8109
012013082762BISA3T      030BROOKFIELD  ON      NM090R$  000000000017900000000001800000000000173000000000017500000000001740000000000000000000000000000010000000000000628400000000000110403383000000000000009999123100000010000000000000BRBISAACNOR8109
012013082712BJRC11      010FII JS RECIMCI           R$  000000008940000000000894000000000089400000000008940000000000894000000000085000000000008940000001000000000000000001000000000000089400000000000000009999123100000010000000000000BRBJRCCTF007109
012013082702BMEB4       010MERC BRASIL PN           R$  000000000110000000000011000000000001100000000000110000000000011000000000001100000000000112000001000000000000000100000000000000110000000000000000009999123100000010000000000000BRBMEBACNPR5191
012013082702BMIN4       010MERC INVEST PN  EJ       R$  000000000002600000000000270000000000025000000000002600000000000250000000000025000000000002700005000000000000011000000000000000288000000000000000009999123100000010000000000000BRBMINACNPR1160
012013082702BMKS3       010BIC MONARK  ON           R$  000000003200000000000320000000000032000000000003200000000000320000000000031000000000003490000001000000000000000001000000000000032000000000000000009999123100000010000000000000BRBMKSACNOR9155
012013082712BMLC11B     010FII BMBRC LCCI      MB   R$  000000001145100000000114510000000011451000000001145100000000114510000000011420000000001145100005000000000000000646000000000007397346000000000000009999123100000010000000000000BRBMLCCTF004118
012013082702BMTO4       010BRASMOTOR   PN           R$  000000000008600000000000860000000000084000000000008500000000000860000000000084000000000008600004000000000000006000000000000000511000000000000000009999123100000010000000000000BRBMTOACNPR6065
012013082712BNFS11      010FII BANRISULCI           R$  000000001003800000000104990000000010038000000001013000000000104990000000009600000000001049900009000000000000000415000000000004204019000000000000009999123100000010000000000000BRBNFSCTF000111
012013082702BOBR4       010BOMBRIL     PN           R$  000000000068700000000006900000000000666000000000067500000000006660000000000665000000000069000004000000000000000900000000000000608100000000000000009999123100000010000000000000BRBOBRACNPR3127
012013082714BOVA11      010ISHARES BOVACI           R$  000000000498400000000050160000000004916000000000495200000000049230000000004923000000000494008737000000000002815450000000013942213990000000000000009999123100000010000000000000BRBOVACTF003101
012013082796BOVA11F     020ISHARES BOVACI           R$  000000000511500000000051150000000004916000000000499200000000049160000000004909000000000509600017000000000000000044000000000000219690000000000000009999123100000010000000000000BRBOVACTF003101
012013082762BOVA11T     030ISHARES BOVACI        045R$  000000000502100000000050220000000005021000000000502100000000050220000000000000000000000000000002000000000000001000000000000005021158000000000000009999123100000010000000000000BRBOVACTF003101
012013082712BPFF11      010FII ABSOLUTOCI           R$  000000000860000000000086800000000008514000000000860000000000085140000000008514000000000867000015000000000000000613000000000005272245000000000000009999123100000010000000000000BRBPFFCTF002104
012013082702BPHA3       010BR PHARMA   ON      NM   R$  000000000093200000000009430000000000880000000000093500000000008990000000000897000000000089901065000000000002521400000000002357575000000000000000009999123100000010000000000000BRBPHAACNOR6102
012013082796BPHA3F      020BR PHARMA   ON      NM   R$  000000000094200000000009450000000000890000000000091800000000009090000000000880000000000107000015000000000000000420000000000000385878000000000000009999123100000010000000000000BRBPHAACNOR6102
012013082762BPHA3T      030BR PHARMA   ON      NM030R$  000000000094700000000009480000000000947000000000094700000000009480000000000000000000000000000002000000000000001300000000000001231898000000000000009999123100000010000000000000BRBPHAACNOR6102
012013082702BPNM4       010PANAMERICANOPN      N1   R$  000000000050100000000005220000000000501000000000051000000000005100000000000506000000000051000251000000000000555800000000000283748400000000000000009999123100000010000000000000BRBPNMACNPR6111
012013082796BPNM4F      020PANAMERICANOPN      N1   R$  000000000050700000000005070000000000472000000000048700000000004720000000000472000000000051900006000000000000000142000000000000069166000000000000009999123100000010000000000000BRBPNMACNPR6111
012013082762BPNM4T      030PANAMERICANOPN      N1094R$  000000000052200000000005230000000000522000000000052200000000005230000000000000000000000000000002000000000000407000000000000212510166000000000000009999123100000010000000000000BRBPNMACNPR6111
012013082702BRAP3       010BRADESPAR   ON      N1   R$  000000000204800000000020840000000002025000000000205500000000020250000000002025000000000205500029000000000000015500000000000031853400000000000000009999123100000010000000000000BRBRAPACNOR5124
012013082796BRAP3F      020BRADESPAR   ON      N1   R$  000000000204700000000020990000000002047000000000204800000000020650000000002057000000000209900006000000000000000123000000000000252013000000000000009999123100000010000000000000BRBRAPACNOR5124
012013082702BRAP4       010BRADESPAR   PN      N1   R$  000000000251700000000025550000000002483000000000250600000000024830000000002483000000000249005192000000000001415800000000003548798300000000000000009999123100000010000000000000BRBRAPACNPR2124
012013082796BRAP4F      020BRADESPAR   PN      N1   R$  000000000252000000000025500000000002486000000000252400000000025350000000002485000000000253500021000000000000000441000000000001113169000000000000009999123100000010000000000000BRBRAPACNPR2124
012013082762BRAP4T      030BRADESPAR   PN      N1090R$  000000000258500000000025860000000002585000000000258500000000025860000000000000000000000000000002000000000000010000000000000025853856000000000000009999123100000010000000000000BRBRAPACNPR2124
012013082778BRAPJ28     070BRAP        PN      N1000R$  000000000007000000000000700000000000070000000000007000000000000700000000000000000000000000000002000000000000136500000000000009555000000000000280002013102100000010000000000000BRBRAPACNPR2124
012013082714BRAX11      010ISHARES BRAXCI           R$  000000000398500000000039850000000003985000000000398500000000039850000000000000000000000000000002000000000000005500000000000021917500000000000000009999123100000010000000000000BRBRAXCTF002100
012013082712BRCR11      010FII BC FUND CI           R$  000000001258000000000126000000000012500000000001253900000000125490000000012511000000001254900414000000000000034147000000000428176137000000000000009999123100000010000000000000BRBRCRCTF000132
012013082702BRFS3       010BRF SA      ON      NM   R$  000000000534000000000053880000000005273000000000531200000000052970000000005296000000000529708191000000000002418600000000012849699100000000000000009999123100000010000000000000BRBRFSACNOR8110
012013082796BRFS3F      020BRF SA      ON      NM   R$  000000000537500000000053750000000005267000000000532300000000052670000000005267000000000535000105000000000000003460000000000018418672000000000000009999123100000010000000000000BRBRFSACNOR8110
012013082762BRFS3T      030BRF SA      ON      NM030R$  000000000539500000000053960000000005335000000000537500000000053360000000000000000000000000000006000000000000000300000000000001612529000000000000009999123100000010000000000000BRBRFSACNOR8110
012013082762BRFS3T      030BRF SA      ON      NM062R$  000000000539300000000053940000000005374000000000538300000000053750000000000000000000000000000006000000000000001060000000000005706792000000000000009999123100000010000000000000BRBRFSACNOR8110
012013082762BRFS3T      030BRF SA      ON      NM121R$  000000000545300000000054690000000005453000000000546000000000054690000000000000000000000000000004000000000000002000000000000010921437000000000000009999123100000010000000000000BRBRFSACNOR8110
012013082782BRFSV52     080BRFSE       ON      NM000R$  000000000012400000000001240000000000123000000000012300000000001230000000000000000000000000000002000000000000150000000000000018510000000000000520002013102100000010000000000000BRBRFSACNOR8110
012013082782BRFSW52     080BRFSE       ON      NM000R$  000000000018000000000001800000000000179000000000017900000000001790000000000000000000000000000003000000000000150000000000000026910000000000000520002013111800000010000000000000BRBRFSACNOR8110
012013082702BRIN3       010BR INSURANCEON      NM   R$  000000000185000000000018640000000001805000000000182300000000018400000000001832000000000184001188000000000000451100000000000822576100000000000000009999123100000010000000000000BRBRINACNOR3106
012013082796BRIN3F      020BR INSURANCEON      NM   R$  000000000180800000000019190000000001807000000000183800000000019190000000001828000000000191900021000000000000000273000000000000501808000000000000009999123100000010000000000000BRBRINACNOR3106
012013082702BRIV4       010ALFA INVEST PN           R$  000000000056000000000005990000000000560000000000058000000000005990000000000563000000000059900012000000000000003700000000000002149000000000000000009999123100000010000000000000BRBRIVACNPR3197
012013082702BRKM3       010BRASKEM     ON      N1   R$  000000000122200000000012220000000001195000000000120400000000012180000000001200000000000121800012000000000000007400000000000008909600000000000000009999123100000010000000000000BRBRKMACNOR1110
012013082702BRKM5       010BRASKEM     PNA     N1   R$  000000000175500000000017620000000001700000000000172200000000017090000000001709000000000171009249000000000002346400000000004041063400000000000000009999123100000010000000000000BRBRKMACNPA4110
012013082796BRKM5F      020BRASKEM     PNA     N1   R$  000000000177100000000017770000000001701000000000172000000000017010000000001700000000000172300042000000000000001095000000000001882523000000000000009999123100000010000000000000BRBRKMACNPA4110
012013082762BRKM5T      030BRASKEM     PNA     N1030R$  000000000173800000000017710000000001738000000000176400000000017710000000000000000000000000000004000000000000002400000000000004235398000000000000009999123100000010000000000000BRBRKMACNPA4110
012013082762BRKM5T      030BRASKEM     PNA     N1121R$  000000000180300000000018040000000001803000000000180300000000018040000000000000000000000000000002000000000000018400000000000033192947000000000000009999123100000010000000000000BRBRKMACNPA4110
012013082778BRKMJ19     070BRKM        PNA     N1000R$  000000000003900000000000400000000000039000000000003900000000000400000000000000000000000000000002000000000000363300000000000014350400000000000190002013102100000010000000000000BRBRKMACNPA4110
012013082702BRML3       010BR MALLS PARON      NM   R$  000000000180100000000018280000000001772000000000179200000000018120000000001812000000000181912152000000000004471500000000008016526800000000000000009999123100000010000000000000BRBRMLACNOR9105
012013082796BRML3F      020BR MALLS PARON      NM   R$  000000000181100000000018200000000001772000000000179100000000018200000000001781000000000181800059000000000000001644000000000002945944000000000000009999123100000010000000000000BRBRMLACNOR9105
012013082702BRPR3       010BR PROPERT  ON      NM   R$  000000000176600000000017790000000001757000000000176500000000017690000000001769000000000177005587000000000002233900000000003943984800000000000000009999123100000010000000000000BRBRPRACNOR9112
012013082796BRPR3F      020BR PROPERT  ON      NM   R$  000000000177900000000018590000000001754000000000177000000000018590000000001772000000000185900034000000000000000885000000000001568045000000000000009999123100000010000000000000BRBRPRACNOR9112
012013082702BRSR3       010BANRISUL    ON      N1   R$  000000000126000000000012600000000001260000000000126000000000012600000000001212000000000137000002000000000000000600000000000000756000000000000000009999123100000010000000000000BRBRSRACNOR3130
012013082702BRSR6       010BANRISUL    PNB     N1   R$  000000000135500000000013790000000001351000000000136900000000013750000000001366000000000137501520000000000000349900000000000479153900000000000000009999123100000010000000000000BRBRSRACNPB4133
012013082796BRSR6F      020BANRISUL    PNB     N1   R$  000000000136400000000013800000000001354000000000136300000000013550000000001354000000000138000025000000000000000627000000000000854615000000000000009999123100000010000000000000BRBRSRACNPB4133
012013082702BSEV3       010BIOSEV      ON      NM   R$  000000000086300000000008850000000000863000000000088300000000008850000000000876000000000088500015000000000000020200000000000017837600000000000000009999123100000010000000000000BRBSEVACNOR3100
012013082702BTOW3       010B2W DIGITAL ON      NM   R$  000000000126000000000012780000000001227000000000125100000000012500000000001250000000000125701866000000000000496500000000000621382400000000000000009999123100000010000000000000BRBTOWACNOR8105
012013082796BTOW3F      020B2W DIGITAL ON      NM   R$  000000000126900000000012720000000001210000000000124500000000012500000000001208000000000132500019000000000000000418000000000000520531000000000000009999123100000010000000000000BRBTOWACNOR8105
012013082762BTOW3T      030B2W DIGITAL ON      NM030R$  000000000123600000000012370000000001236000000000123600000000012370000000000000000000000000000002000000000000004000000000000004946875000000000000009999123100000010000000000000BRBTOWACNOR8105
012013082702BTTL3       010BATTISTELLA ON           R$  000000000008900000000000890000000000089000000000008900000000000890000000000084000000000009100001000000000000010000000000000000890000000000000000009999123100000010000000000000BRBTTLACNOR0105
012013082702BTTL4       010BATTISTELLA PN           R$  000000000010000000000001000000000000098000000000009900000000001000000000000098000000000010000008000000000000022900000000000002274000000000000000009999123100000010000000000000BRBTTLACNPR7105
012013082702BVMF3       010BMFBOVESPA  ON  ED  NM   R$  000000000116900000000011690000000001129000000000114700000000011290000000001129000000000113028589000000000016828400000000019315610600000000000000009999123100000010000000000000BRBVMFACNOR3126
012013082796BVMF3F      020BMFBOVESPA  ON  ED  NM   R$  000000000117000000000011700000000001134000000000114800000000011350000000001135000000000115000116000000000000003184000000000003653736000000000000009999123100000010000000000000BRBVMFACNOR3126
012013082762BVMF3T      030BMFBOVESPA  ON  ED  NM016R$  000000000116900000000011700000000001166000000000116800000000011670000000000000000000000000000004000000000000099000000000000115682774000000000000009999123100000010000000000000BRBVMFACNOR3126
012013082762BVMF3T      030BMFBOVESPA  ON  ED  NM030R$  000000000114400000000011450000000001137000000000113700000000011380000000000000000000000000000004000000000000050500000000000057423055000000000000009999123100000010000000000000BRBVMFACNOR3126
012013082762BVMF3T      030BMFBOVESPA  ON  ED  NM062R$  000000000116900000000011700000000001169000000000116900000000011700000000000000000000000000000002000000000000003000000000000003507080000000000000009999123100000010000000000000BRBVMFACNOR3126
012013082778BVMFI10     070BVMF    /ED ON      NM000R$  000000000018400000000001840000000000162000000000017300000000001620000000000150000000000019400007000000000000001600000000000000276900000000000098502013091600000010000000000000BRBVMFACNOR3125
012013082778BVMFI11     070BVMF  FM/ED ON      NM000R$  000000000009600000000000960000000000072000000000008000000000000800000000000070000000000008200158000000000000163900000000000013184800000000000108502013091600000010000000000000BRBVMFACNOR3125
012013082778BVMFI12     070BVMF  FM/ED ON      NM000R$  000000000003200000000000330000000000020000000000002400000000000200000000000020000000000002300420000000000000825600000000000020360100000000000118502013091600000010000000000000BRBVMFACNOR3125
012013082778BVMFI13     070BVMF  FM/ED ON      NM000R$  000000000000900000000000090000000000005000000000000600000000000070000000000006000000000000700155000000000000427900000000000002811400000000000128502013091600000010000000000000BRBVMFACNOR3125
012013082778BVMFI14     070BVMF    /ED ON      NM000R$  000000000000300000000000030000000000002000000000000200000000000020000000000001000000000000300018000000000000131300000000000000267600000000000138502013091600000010000000000000BRBVMFACNOR3125
012013082778BVMFI41     070BVMF  FM/ED ON      NM000R$  000000000005700000000000570000000000041000000000004500000000000460000000000000000000000000000036000000000000108200000000000004934600000000000113502013091600000010000000000000BRBVMFACNOR3125
012013082778BVMFI42     070BVMF  FM/ED ON      NM000R$  000000000001400000000000140000000000009000000000001000000000000110000000000000000000000001300038000000000000092900000000000001002500000000000123502013091600000010000000000000BRBVMFACNOR3125
012013082778BVMFJ11     070BVMF  FM/ED ON      NM000R$  000000000011600000000001160000000000099000000000010300000000001000000000000077000000000010700073000000000000186800000000000019332200000000000108502013102100000010000000000000BRBVMFACNOR3125
012013082778BVMFJ12     070BVMF  FM/ED ON      NM000R$  000000000005300000000000530000000000043000000000004800000000000430000000000042000000000000000051000000000000245300000000000011950900000000000118502013102100000010000000000000BRBVMFACNOR3125
012013082778BVMFJ13     070BVMF  FM/ED ON      NM000R$  000000000001900000000000190000000000013000000000001400000000000130000000000013000000000001400097000000000000458700000000000006595100000000000128502013102100000010000000000000BRBVMFACNOR3125
012013082778BVMFJ40     070BVMF    /ED ON      NM000R$  000000000013900000000001390000000000139000000000013900000000001390000000000000000000000000000002000000000000014000000000000001946000000000000103502013102100000010000000000000BRBVMFACNOR3125
012013082778BVMFJ41     070BVMF  FM/ED ON      NM000R$  000000000008000000000000800000000000070000000000007100000000000710000000000000000000000000000046000000000000126600000000000009027100000000000113502013102100000010000000000000BRBVMFACNOR3125
012013082778BVMFJ42     070BVMF  FM/ED ON      NM000R$  000000000003000000000000300000000000026000000000002700000000000270000000000000000000000000000012000000000000026800000000000000738900000000000123502013102100000010000000000000BRBVMFACNOR3125
012013082778BVMFK12     070BVMF    /ED ON      NM000R$  000000000006100000000000610000000000061000000000006100000000000610000000000000000000000012700001000000000000001200000000000000073200000000000118502013111800000010000000000000BRBVMFACNOR3125
012013082778BVMFL13     070BVMF    /ED ON      NM000R$  000000000004100000000000410000000000041000000000004100000000000410000000000021000000000000000003000000000000005000000000000000205000000000000128502013121600000010000000000000BRBVMFACNOR3125
012013082778BVMFL14     070BVMF    /ED ON      NM000R$  000000000002700000000000280000000000027000000000002700000000000280000000000000000000000000000002000000000000276600000000000007606500000000000137402013121600000010000000000000BRBVMFACNOR3124
012013082782BVMFU11     080BVMFE FM/ED ON      NM000R$  000000000001100000000000200000000000011000000000001500000000000200000000000011000000000002200089000000000000155500000000000002459000000000000108502013091600000010000000000000BRBVMFACNOR3125
012013082782BVMFU12     080BVMFE FM/ED ON      NM000R$  000000000004500000000000650000000000044000000000005400000000000650000000000055000000000000000096000000000000152400000000000008248700000000000118502013091600000010000000000000BRBVMFACNOR3125
012013082782BVMFU13     080BVMFE   /ED ON      NM000R$  000000000012000000000001200000000000120000000000012000000000001200000000000000000000000000000004000000000000002000000000000000240000000000000128502013091600000010000000000000BRBVMFACNOR3125
012013082782BVMFU41     080BVMFE FM/ED ON      NM000R$  000000000002600000000000370000000000026000000000003100000000000360000000000000000000000000000031000000000000127500000000000004075500000000000113502013091600000010000000000000BRBVMFACNOR3125
012013082782BVMFU42     080BVMFE FM/ED ON      NM000R$  000000000009000000000001050000000000090000000000010000000000001020000000000000000000000000000041000000000000090000000000000009060800000000000123502013091600000010000000000000BRBVMFACNOR3125
012013082782BVMFV11     080BVMFE FM/ED ON      NM000R$  000000000003300000000000370000000000033000000000003500000000000370000000000000000000000000000027000000000000077600000000000002716000000000000108502013102100000010000000000000BRBVMFACNOR3125
012013082782BVMFV12     080BVMFE FM/ED ON      NM000R$  000000000006900000000000790000000000067000000000007700000000000790000000000050000000000010000052000000000000043200000000000003366200000000000118502013102100000010000000000000BRBVMFACNOR3125
012013082782BVMFV40     080BVMFE   /ED ON      NM000R$  000000000001900000000000240000000000018000000000001900000000000240000000000000000000000000000004000000000000031100000000000000602000000000000103502013102100000010000000000000BRBVMFACNOR3125
012013082782BVMFV41     080BVMFE FM/ED ON      NM000R$  000000000004300000000000550000000000041000000000004800000000000540000000000000000000000008000014000000000000069700000000000003384700000000000113502013102100000010000000000000BRBVMFACNOR3125
012013082782BVMFV42     080BVMFE FM/ED ON      NM000R$  000000000009100000000001110000000000091000000000010400000000001100000000000000000000000000000138000000000000356100000000000037286000000000000123502013102100000010000000000000BRBVMFACNOR3125
012013082782BVMFW10     080BVMFE   /ED ON      NM000R$  000000000002000000000000200000000000020000000000002000000000000200000000000000000000000000000001000000000000000200000000000000004000000000000098502013111800000010000000000000BRBVMFACNOR3125
012013082782BVMFW12     080BVMFE   /ED ON      NM000R$  000000000007500000000000750000000000075000000000007500000000000750000000000000000000000000000001000000000000001800000000000000135000000000000118502013111800000010000000000000BRBVMFACNOR3125
012013082782BVMFX12     080BVMFE   /ED ON      NM000R$  000000000007400000000000740000000000074000000000007400000000000740000000000000000000000000000001000000000000002000000000000000148000000000000115402013121600000010000000000000BRBVMFACNOR3123
012013082782BVMFX39     080BVMFE   /ED ON      NM000R$  000000000001400000000000140000000000014000000000001400000000000140000000000000000000000000000001000000000000407600000000000005706400000000000095002013121600000010000000000000BRBVMFACNOR3126
012013082702CAMB4       010CAMBUCI     PN           R$  000000000018100000000001880000000000175000000000018000000000001810000000000181000000000018800012000000000000006300000000000001137700000000000000009999123100000010000000000000BRCAMBACNPR1117
012013082796CAMB4F      020CAMBUCI     PN           R$  000000000016600000000001660000000000166000000000016600000000001660000000000100000000000024500001000000000000000001000000000000000166000000000000009999123100000010000000000000BRCAMBACNPR1117
012013082702CARD3       010CSU CARDSYSTON      NM   R$  000000000032500000000003280000000000306000000000031700000000003230000000000307000000000032900101000000000000076700000000000024358400000000000000009999123100000010000000000000BRCARDACNOR9105
012013082796CARD3F      020CSU CARDSYSTON      NM   R$  000000000030400000000003040000000000304000000000030400000000003040000000000304000000000032100001000000000000000024000000000000007296000000000000009999123100000010000000000000BRCARDACNOR9105
012013082796CBMA3F      020COBRASMA    ON           R$  000000000000600000000000060000000000006000000000000600000000000060000000000005000000000000600001000000000000000001000000000000000006000000000000009999123100000010000000000000BRCBMAACNOR4124
012013082702CBMA4       010COBRASMA    PN           R$  000000000000500000000000050000000000004000000000000400000000000040000000000004000000000000500003000000000000030000000000000000140000000000000000009999123100000010000000000000BRCBMAACNPR1124
012013082796CBMA4F      020COBRASMA    PN           R$  000000000000500000000000050000000000005000000000000500000000000050000000000004000000000000500001000000000000000001000000000000000005000000000000009999123100000010000000000000BRCBMAACNPR1124
012013082708CCHI3       010CHIARELLI   ON           R$  000000000003200000000000370000000000023000000000002900000000000230000000000023000000000002400141000000000001720000000000000050570000000000000000009999123100000010000000000000BRCCHIACNOR5123
012013082796CCHI3F      020CHIARELLI   ON           R$  000000000002800000000000340000000000024000000000002800000000000250000000000022000000000002900038000000000000069883000000000001980578000000000000009999123100000010000000000000BRCCHIACNOR5123
012013082708CCHI4       010CHIARELLI   PN           R$  000000000002500000000000270000000000022000000000002300000000000220000000000016000000000002300011000000000000140000000000000003220000000000000000009999123100000010000000000000BRCCHIACNPR2122
012013082796CCHI4F      020CHIARELLI   PN           R$  000000000002500000000000250000000000022000000000002300000000000220000000000022000000000002500011000000000000011816000000000000282567000000000000009999123100000010000000000000BRCCHIACNPR2122
012013082702CCPR3       010CYRE COM-CCPON      NM   R$  000000000209800000000021100000000002081000000000210700000000020810000000002081000000000218800014000000000000006700000000000014122100000000000000009999123100000010000000000000BRCCPRACNOR9107
012013082796CCPR3F      020CYRE COM-CCPON      NM   R$  000000000210000000000021000000000002100000000000210000000000021000000000002008000000000219000001000000000000000010000000000000021000000000000000009999123100000010000000000000BRCCPRACNOR9107
012013082702CCRO3       010CCR SA      ON      NM   R$  000000000171500000000017240000000001685000000000170300000000016990000000001699000000000170208674000000000003516800000000005990372300000000000000009999123100000010000000000000BRCCROACNOR2122
012013082796CCRO3F      020CCR SA      ON      NM   R$  000000000174400000000017440000000001668000000000170300000000017150000000001650000000000171500075000000000000001987000000000003385018000000000000009999123100000010000000000000BRCCROACNOR2122
012013082762CCRO3T      030CCR SA      ON      NM090R$  000000000174900000000017500000000001749000000000174900000000017500000000000000000000000000000002000000000000100000000000000174949750000000000000009999123100000010000000000000BRCCROACNOR2122
012013082778CCROI17     070CCRO        ON      NM000R$  000000000003500000000000350000000000019000000000001900000000000190000000000017000000000000000003000000000000004000000000000000079200000000000170002013091600000010000000000000BRCCROACNOR2122
012013082778CCROL20     070CCRO        ON      NM000R$  000000000001500000000000160000000000015000000000001500000000000160000000000000000000000000000002000000000000193600000000000003000800000000000200002013121600000010000000000000BRCCROACNOR2122
012013082782CCROX15     080CCROE       ON      NM000R$  000000000001700000000000180000000000017000000000001700000000000180000000000000000000000000000002000000000000258200000000000004518500000000000150002013121600000010000000000000BRCCROACNOR2122
012013082702CCXC3       010CCX CARVAO  ON      NM   R$  000000000013600000000001380000000000132000000000013500000000001360000000000136000000000013700624000000000003224800000000000436074800000000000000009999123100000010000000000000BRCCXCACNOR5100
012013082796CCXC3F      020CCX CARVAO  ON      NM   R$  000000000013500000000001390000000000135000000000013500000000001360000000000130000000000013600006000000000000000129000000000000017514000000000000009999123100000010000000000000BRCCXCACNOR5100
012013082702CEBR3       010CEB         ON           R$  000000000155600000000015560000000001500000000000152100000000015000000000001404000000000160000005000000000000000600000000000000912900000000000000009999123100000010000000000000BRCEBRACNOR5114
012013082702CEBR5       010CEB         PNA          R$  000000000180000000000018000000000001800000000000180000000000018000000000001690000000000195000008000000000000002200000000000003960000000000000000009999123100000010000000000000BRCEBRACNPA8113
012013082796CEBR5F      020CEB         PNA          R$  000000000180800000000018080000000001500000000000180400000000015000000000001501000000000000000002000000000000000100000000000000180492000000000000009999123100000010000000000000BRCEBRACNPA8113
012013082712CEOC11B     010FII CEO CCP CI      MB   R$  000000000900000000000090000000000008780000000000882700000000088100000000008810000000000885000033000000000000001228000000000010839710000000000000009999123100000010000000000000BRCEOCCTF003109
012013082702CESP3       010CESP        ON  EJ  N1   R$  000000000171900000000017190000000001719000000000171900000000017190000000000001000000000172000002000000000000004500000000000007735500000000000000009999123100000010000000000000BRCESPACNOR3160
012013082702CESP6       010CESP        PNB EJ  N1   R$  000000000204000000000020840000000002034000000000206500000000020660000000002065000000000206603169000000000000604900000000001249712900000000000000009999123100000010000000000000BRCESPACNPB4119
012013082796CESP6F      020CESP        PNB EJ  N1   R$  000000000205000000000020970000000002040000000000206400000000020400000000002040000000000209000033000000000000000873000000000001801944000000000000009999123100000010000000000000BRCESPACNPB4119
012013082702CGAS3       010COMGAS      ON           R$  000000000514900000000051500000000005130000000000514700000000051300000000005000000000000513000003000000000000000700000000000003602900000000000000009999123100000010000000000000BRCGASACNOR0132
012013082702CGAS5       010COMGAS      PNA          R$  000000000554200000000055440000000005500000000000551700000000055170000000005517000000000552000086000000000000028800000000000158912900000000000000009999123100000010000000000000BRCGASACNPA3129
012013082796CGAS5F      020COMGAS      PNA          R$  000000000553000000000055300000000005404000000000548100000000055170000000005405000000000590000006000000000000000200000000000001096366000000000000009999123100000010000000000000BRCGASACNPA3129
012013082702CGRA3       010GRAZZIOTIN  ON           R$  000000000155600000000015900000000001555000000000158500000000015900000000001560000000000170000015000000000000009100000000000014424500000000000000009999123100000010000000000000BRCGRAACNOR2061
012013082702CGRA4       010GRAZZIOTIN  PN           R$  000000000170000000000017000000000001675000000000168000000000016790000000001651000000000168000041000000000000009200000000000015465000000000000000009999123100000010000000000000BRCGRAACNPR9061
012013082796CGRA4F      020GRAZZIOTIN  PN           R$  000000000171200000000017120000000001712000000000171200000000017120000000001610000000000171200001000000000000000004000000000000006848000000000000009999123100000010000000000000BRCGRAACNPR9061
012013082702CIEL3       010CIELO       ON      NM   R$  000000000583500000000058870000000005806000000000584700000000058350000000005835000000000583709124000000000002399000000000014027844300000000000000009999123100000010000000000000BRCIELACNOR3111
012013082796CIEL3F      020CIELO       ON      NM   R$  000000000580100000000058810000000005781000000000584300000000058180000000005818000000000583900082000000000000001970000000000011510555000000000000009999123100000010000000000000BRCIELACNOR3111
012013082762CIEL3T      030CIELO       ON      NM045R$  000000000592700000000059280000000005927000000000592700000000059280000000000000000000000000000002000000000000001200000000000007112603000000000000009999123100000010000000000000BRCIELACNOR3111
012013082778CIELI60     070CIEL        ON      NM000R$  000000000006700000000000670000000000050000000000006500000000000500000000000000000000000000000004000000000000014600000000000000961200000000000600002013091600000010000000000000BRCIELACNOR3111
012013082702CLSC4       010CELESC      PN      N2   R$  000000000180900000000018090000000001751000000000179000000000017850000000001760000000000178500041000000000000008800000000000015752600000000000000009999123100000010000000000000BRCLSCACNPR3107
012013082796CLSC4F      020CELESC      PN      N2   R$  000000000180200000000018020000000001802000000000180200000000018020000000001802000000000190000002000000000000000026000000000000046852000000000000009999123100000010000000000000BRCLSCACNPR3107
012013082702CMCS11B     010COMCAST     DRN     MB   R$  000000001016500000000101650000000010165000000001016500000000101650000000009817000000000997800001000000000000000300000000000003049500000000000000009999123100000010000000000000BRCMCSBDR008106
012013082702CMIG3       010CEMIG       ON      N1   R$  000000000189000000000019000000000001878000000000188800000000018930000000001891000000000189300360000000000000396200000000000748172400000000000000009999123100000010000000000000BRCMIGACNOR6208
012013082796CMIG3F      020CEMIG       ON      N1   R$  000000000189000000000019040000000001884000000000188800000000018860000000001891000000000195000019000000000000000589000000000001112299000000000000009999123100000010000000000000BRCMIGACNOR6208
012013082702CMIG4       010CEMIG       PN      N1   R$  000000000189500000000019130000000001881000000000189400000000018830000000001883000000000188808244000000000002695100000000005106410400000000000000009999123100000010000000000000BRCMIGACNPR3208
012013082796CMIG4F      020CEMIG       PN      N1   R$  000000000190600000000019100000000001878000000000189500000000018930000000001878000000000190800143000000000000003628000000000006877535000000000000009999123100000010000000000000BRCMIGACNPR3208
012013082762CMIG4T      030CEMIG       PN      N1016R$  000000000191200000000019130000000001912000000000191200000000019130000000000000000000000000000002000000000000001000000000000001912841000000000000009999123100000010000000000000BRCMIGACNPR3208
012013082762CMIG4T      030CEMIG       PN      N1030R$  000000000191300000000019140000000001896000000000190500000000018970000000000000000000000000000008000000000000002050000000000003905427000000000000009999123100000010000000000000BRCMIGACNPR3208
012013082762CMIG4T      030CEMIG       PN      N1062R$  000000000191600000000019170000000001916000000000191600000000019170000000000000000000000000000002000000000000004500000000000008624921000000000000009999123100000010000000000000BRCMIGACNPR3208
012013082762CMIG4T      030CEMIG       PN      N1121R$  000000000195400000000019550000000001954000000000195400000000019550000000000000000000000000000002000000000000010000000000000019540379000000000000009999123100000010000000000000BRCMIGACNPR3208
012013082778CMIGI20     070CMIG        PN      N1000R$  000000000002000000000000200000000000018000000000001900000000000180000000000015000000000002500002000000000000001000000000000000019000000000000200002013091600000010000000000000BRCMIGACNPR3208
012013082778CMIGK18     070CMIG        PN      N1000R$  000000000019800000000001980000000000198000000000019800000000001980000000000000000000000000000001000000000000072300000000000014315400000000000180002013111800000010000000000000BRCMIGACNPR3208
012013082712CNES11B     010FII CENESP  CI  ER  MB   R$  000000001235000000000125000000000012121000000001242400000000121210000000012151000000001269900017000000000000001335000000000016586382000000000000009999123100000010000000000000BRCNESCTF001125
012013082702COCA11B     010COCA COLA   DRN     MB   R$  000000000917700000000091770000000009177000000000917700000000091770000000008949000000000930700001000000000000000200000000000001835400000000000000009999123100000010000000000000BRCOCABDR002108
012013082702COCE3       010COELCE      ON           R$  000000000405000000000040780000000003951000000000402800000000040780000000003850000000000415000018000000000000002300000000000009265100000000000000009999123100000010000000000000BRCOCEACNOR0132
012013082702COCE5       010COELCE      PNA          R$  000000000401000000000040340000000003918000000000399100000000039180000000003918000000000398800418000000000000115300000000000460236000000000000000009999123100000010000000000000BRCOCEACNPA3133
012013082796COCE5F      020COELCE      PNA          R$  000000000390000000000040870000000003900000000000398500000000040150000000003980000000000401500009000000000000000132000000000000526119000000000000009999123100000010000000000000BRCOCEACNPA3133
012013082702CPFE3       010CPFL ENERGIAON  ED  NM   R$  000000000192400000000019630000000001921000000000194500000000019490000000001937000000000194904776000000000001107300000000002154665700000000000000009999123100000010000000000000BRCPFEACNOR0122
012013082796CPFE3F      020CPFL ENERGIAON  ED  NM   R$  000000000193900000000019650000000001922000000000194300000000019220000000001922000000000196000021000000000000000563000000000001093144000000000000009999123100000010000000000000BRCPFEACNOR0122
012013082762CPFE3T      030CPFL ENERGIAON  ED  NM150R$  000000000202500000000020260000000002025000000000202500000000020260000000000000000000000000000002000000000000002000000000000004051061000000000000009999123100000010000000000000BRCPFEACNOR0122
012013082702CPLE3       010COPEL       ON      N1   R$  000000000219900000000022480000000001997000000000200200000000020020000000002002000000000201500767000000000001930500000000003865347000000000000000009999123100000010000000000000BRCPLEACNOR8128
012013082796CPLE3F      020COPEL       ON      N1   R$  000000000219200000000021920000000002000000000000205700000000020070000000002010000000000219900011000000000000000200000000000000411471000000000000009999123100000010000000000000BRCPLEACNOR8128
012013082762CPLE3T      030COPEL       ON      N1016R$  000000000200800000000020080000000002008000000000200800000000020080000000000000000000000000000001000000000000005000000000000010040000000000000000009999123100000010000000000000BRCPLEACNOR8128
012013082762CPLE3T      030COPEL       ON      N1030R$  000000000201800000000020190000000002010000000000201400000000020110000000000000000000000000000004000000000000006000000000000012089226000000000000009999123100000010000000000000BRCPLEACNOR8128
012013082762CPLE3T      030COPEL       ON      N1062R$  000000000202800000000020310000000002028000000000203000000000020310000000000000000000000000000004000000000000100400000000000203891520000000000000009999123100000010000000000000BRCPLEACNOR8128
012013082702CPLE6       010COPEL       PNB     N1   R$  000000000290200000000029610000000002801000000000287800000000028450000000002826000000000284603283000000000001183700000000003406136800000000000000009999123100000010000000000000BRCPLEACNPB9125
012013082796CPLE6F      020COPEL       PNB     N1   R$  000000000300700000000030090000000002781000000000287400000000028990000000002810000000000290000027000000000000000783000000000002250721000000000000009999123100000010000000000000BRCPLEACNPB9125
012013082702CPRE3       010CPFL RENOVAVON      NM   R$  000000000120000000000012000000000001170000000000118400000000011840000000001184000000000118500009000000000000001800000000000002132800000000000000009999123100000010000000000000BRCPREACNOR5100
012013082796CPRE3F      020CPFL RENOVAVON      NM   R$  000000000119300000000011930000000001193000000000119300000000011930000000001166000000000118000001000000000000000004000000000000004772000000000000009999123100000010000000000000BRCPREACNOR5100
012013082702CRDE3       010CR2         ON      NM   R$  000000000041800000000004200000000000415000000000041900000000004150000000000415000000000042300003000000000000003600000000000001509900000000000000009999123100000010000000000000BRCRDEACNOR1108
012013082702CREM3       010CREMER      ON      NM   R$  000000000140200000000014490000000001400000000000143300000000014330000000001407000000000143300059000000000000267200000000000382914200000000000000009999123100000010000000000000BRCREMACNOR2166
012013082796CREM3F      020CREMER      ON      NM   R$  000000000144800000000014480000000001447000000000144700000000014470000000001411000000000149400002000000000000000080000000000000115800000000000000009999123100000010000000000000BRCREMACNOR2166
012013082702CRIV4       010ALFA FINANC PN           R$  000000000046400000000004640000000000464000000000046400000000004640000000000430000000000045900001000000000000000100000000000000046400000000000000009999123100000010000000000000BRCRIVACNPR1190
012013082702CRUZ3       010SOUZA CRUZ  ON           R$  000000000262200000000026400000000002570000000000259100000000025760000000002575000000000258005101000000000001114400000000002887519600000000000000009999123100000010000000000000BRCRUZACNOR0246
012013082796CRUZ3F      020SOUZA CRUZ  ON           R$  000000000262900000000026750000000002566000000000260000000000025890000000002565000000000259900044000000000000001326000000000003444578000000000000009999123100000010000000000000BRCRUZACNOR0246
012013082762CRUZ3T      030SOUZA CRUZ  ON        030R$  000000000261400000000026180000000002606000000000260900000000026180000000000000000000000000000008000000000000006600000000000017224515000000000000009999123100000010000000000000BRCRUZACNOR0246
012013082762CRUZ3T      030SOUZA CRUZ  ON        062R$  000000000263100000000026320000000002631000000000263100000000026320000000000000000000000000000002000000000000000700000000000001841931000000000000009999123100000010000000000000BRCRUZACNOR0246
012013082762CRUZ3T      030SOUZA CRUZ  ON        090R$  000000000264900000000026500000000002649000000000264900000000026500000000000000000000000000000002000000000000000200000000000000529892000000000000009999123100000010000000000000BRCRUZACNOR0246
012013082778CRUZI27     070CRUZ        ON        000R$  000000000002700000000000270000000000027000000000002700000000000270000000000000000000000000000001000000000000000100000000000000002700000000000270002013091600000010000000000000BRCRUZACNOR0246
012013082778CRUZJ28     070CRUZ        ON        000R$  000000000002400000000000240000000000024000000000002400000000000240000000000015000000000000000002000000000000000300000000000000007200000000000280002013102100000010000000000000BRCRUZACNOR0246
012013082702CSAB3       010SEG AL BAHIAON           R$  000000000300100000000030010000000003001000000000300100000000030010000000003000000000000000000001000000000000008800000000000026408800000000000000009999123100000010000000000000BRCSABACNOR1051
012013082796CSAB3F      020SEG AL BAHIAON           R$  000000000310100000000031010000000003101000000000310100000000031010000000003000000000000526900001000000000000000037000000000000114737000000000000009999123100000010000000000000BRCSABACNOR1051
012013082702CSAB4       010SEG AL BAHIAPN           R$  000000000300100000000030010000000003001000000000300100000000030010000000003000000000000000000001000000000000008000000000000024008000000000000000009999123100000010000000000000BRCSABACNPR8051
012013082796CSAB4F      020SEG AL BAHIAPN           R$  000000000300000000000030000000000003000000000000300000000000030000000000002907000000000500000001000000000000000023000000000000069000000000000000009999123100000010000000000000BRCSABACNPR8051
012013082702CSAN3       010COSAN       ON      NM   R$  000000000411100000000041400000000003995000000000403800000000040450000000004045000000000404603837000000000001698200000000006857348900000000000000009999123100000010000000000000BRCSANACNOR6108
012013082796CSAN3F      020COSAN       ON      NM   R$  000000000412000000000041320000000004000000000000404900000000040000000000004001000000000417500027000000000000000721000000000002914468000000000000009999123100000010000000000000BRCSANACNOR6108
012013082762CSAN3T      030COSAN       ON      NM016R$  000000000414600000000041470000000004146000000000414600000000041470000000000000000000000000000002000000000000002000000000000008293509000000000000009999123100000010000000000000BRCSANACNOR6108
012013082702CSCO11B     010CISCO       DRN     MB   R$  000000000570800000000057080000000005538000000000556400000000055380000000005512000000000560900002000000000000002600000000000014466800000000000000009999123100000010000000000000BRCSCOBDR004110
012013082702CSMG3       010COPASA      ON      NM   R$  000000000280200000000028520000000002766000000000281900000000028290000000002811000000000282902194000000000000344500000000000971474000000000000000009999123100000010000000000000BRCSMGACNOR5127
012013082796CSMG3F      020COPASA      ON      NM   R$  000000000281900000000028940000000002778000000000282900000000027780000000002814000000000295900021000000000000000404000000000001142944000000000000009999123100000010000000000000BRCSMGACNOR5127
012013082762CSMG3T      030COPASA      ON      NM030R$  000000000282500000000028260000000002825000000000282500000000028260000000000000000000000000000002000000000000001000000000000002825843000000000000009999123100000010000000000000BRCSMGACNOR5127
012013082762CSMG3T      030COPASA      ON      NM045R$  000000000282100000000028220000000002821000000000282100000000028220000000000000000000000000000002000000000000001000000000000002821874000000000000009999123100000010000000000000BRCSMGACNOR5127
012013082714CSMO11      010ISHARES CSMOCI           R$  000000000453000000000045300000000004475000000000452300000000044760000000004400000000000451000006000000000000001200000000000005428430000000000000009999123100000010000000000000BRCSMOCTF002100
012013082762CSMO11T     030ISHARES CSMOCI        030R$  000000000456200000000045630000000004562000000000456200000000045630000000000000000000000000000002000000000000001000000000000004562616000000000000009999123100000010000000000000BRCSMOCTF002100
012013082702CSNA3       010SID NACIONALON           R$  000000000086700000000008870000000000856000000000086800000000008570000000000857000000000085913880000000000007643000000000006638252900000000000000009999123100000010000000000000BRCSNAACNOR6243
012013082796CSNA3F      020SID NACIONALON           R$  000000000086900000000008840000000000857000000000087100000000008620000000000863000000000086700089000000000000002629000000000002291585000000000000009999123100000010000000000000BRCSNAACNOR6243
012013082762CSNA3T      030SID NACIONALON        030R$  000000000088000000000008810000000000867000000000087200000000008680000000000000000000000000000004000000000000005000000000000004362515000000000000009999123100000010000000000000BRCSNAACNOR6243
012013082762CSNA3T      030SID NACIONALON        062R$  000000000088100000000008820000000000872000000000087700000000008730000000000000000000000000000004000000000000002000000000000001754213000000000000009999123100000010000000000000BRCSNAACNOR6243
012013082762CSNA3T      030SID NACIONALON        181R$  000000000090200000000009030000000000902000000000090200000000009030000000000000000000000000000002000000000000001600000000000001444689000000000000009999123100000010000000000000BRCSNAACNOR6243
012013082778CSNAI10     070CSNA        ON        000R$  000000000000800000000000080000000000008000000000000800000000000080000000000000000000000003000001000000000000001000000000000000008000000000000100002013091600000010000000000000BRCSNAACNOR6243
012013082778CSNAI76     070CSNA        ON        000R$  000000000013400000000001340000000000134000000000013400000000001340000000000000000000000000000001000000000000000200000000000000026800000000000074002013091600000010000000000000BRCSNAACNOR6242
012013082778CSNAI8      070CSNA        ON        000R$  000000000011200000000001150000000000100000000000010700000000001020000000000050000000000014300005000000000000002200000000000000236400000000000078002013091600000010000000000000BRCSNAACNOR6242
012013082778CSNAI80     070CSNA  FM    ON        000R$  000000000004800000000000480000000000048000000000004800000000000480000000000000000000000000000005000000000000011000000000000000528000000000000086002013091600000010000000000000BRCSNAACNOR6243
012013082778CSNAI84     070CSNA        ON        000R$  000000000006400000000000640000000000064000000000006400000000000640000000000020000000000000000001000000000000008000000000000000512000000000000084002013091600000010000000000000BRCSNAACNOR6243
012013082778CSNAI88     070CSNA  FM    ON        000R$  000000000003700000000000430000000000031000000000004100000000000310000000000000000000000004000004000000000000009600000000000000396600000000000088002013091600000010000000000000BRCSNAACNOR6243
012013082778CSNAI9      070CSNA  FM    ON        000R$  000000000003100000000000310000000000021000000000002600000000000210000000000020000000000002800014000000000000032300000000000000841400000000000090002013091600000010000000000000BRCSNAACNOR6243
012013082778CSNAI92     070CSNA  FM    ON        000R$  000000000002300000000000230000000000016000000000001800000000000160000000000000000000000000000004000000000000005300000000000000095700000000000092002013091600000010000000000000BRCSNAACNOR6243
012013082778CSNAI94     070CSNA  FM    ON        000R$  000000000001700000000000170000000000014000000000001600000000000140000000000011000000000002000009000000000000018500000000000000302500000000000094002013091600000010000000000000BRCSNAACNOR6243
012013082778CSNAI98     070CSNA        ON        000R$  000000000000800000000000080000000000008000000000000800000000000080000000000000000000000000000001000000000000001300000000000000010400000000000098002013091600000010000000000000BRCSNAACNOR6243
012013082778CSNAJ10     070CSNA        ON        000R$  000000000002300000000000230000000000021000000000002200000000000210000000000000000000000000000004000000000000015100000000000000336200000000000100002013102100000010000000000000BRCSNAACNOR6243
012013082778CSNAJ20     070CSNA        ON        000R$  000000000001900000000000190000000000017000000000001800000000000180000000000000000000000000000003000000000000012000000000000000216000000000000102002013102100000010000000000000BRCSNAACNOR6243
012013082778CSNAJ40     070CSNA        ON        000R$  000000000001500000000000150000000000014000000000001400000000000140000000000000000000000000000005000000000000018000000000000000266000000000000104002013102100000010000000000000BRCSNAACNOR6243
012013082778CSNAJ60     070CSNA        ON        000R$  000000000001300000000000130000000000012000000000001200000000000120000000000000000000000000000004000000000000012000000000000000152000000000000106002013102100000010000000000000BRCSNAACNOR6243
012013082778CSNAJ7      070CSNA        ON        000R$  000000000019800000000001980000000000198000000000019800000000001980000000000000000000000000000002000000000000005000000000000000990000000000000068002013102100000010000000000000BRCSNAACNOR6242
012013082778CSNAJ8      070CSNA        ON        000R$  000000000012500000000001250000000000125000000000012500000000001250000000000000000000000000000001000000000000001000000000000000125000000000000078002013102100000010000000000000BRCSNAACNOR6242
012013082778CSNAJ86     070CSNA  FM    ON        000R$  000000000008700000000000880000000000083000000000008600000000000830000000000000000000000000000005000000000000016500000000000001421500000000000084002013102100000010000000000000BRCSNAACNOR6242
012013082778CSNAJ9      070CSNA  FM    ON        000R$  000000000006300000000000670000000000063000000000006300000000000630000000000000000000000000000011000000000000022900000000000001450700000000000088002013102100000010000000000000BRCSNAACNOR6242
012013082778CSNAJ92     070CSNA  FM    ON        000R$  000000000004300000000000490000000000037000000000004200000000000390000000000000000000000000000203000000000000130700000000000005599700000000000092002013102100000010000000000000BRCSNAACNOR6243
012013082778CSNAJ94     070CSNA  FM    ON        000R$  000000000003600000000000410000000000032000000000003700000000000320000000000000000000000000000005000000000000013200000000000000497400000000000094002013102100000010000000000000BRCSNAACNOR6243
012013082778CSNAJ98     070CSNA        ON        000R$  000000000002800000000000280000000000028000000000002800000000000280000000000003000000000000000001000000000000004000000000000000112000000000000098002013102100000010000000000000BRCSNAACNOR6243
012013082778CSNAK10     070CSNA        ON        000R$  000000000004000000000000400000000000040000000000004000000000000400000000000000000000000000000001000000000000001000000000000000040000000000000098002013111800000010000000000000BRCSNAACNOR6242
012013082782CSNAU8      080CSNAE       ON        000R$  000000000001100000000000120000000000009000000000001000000000000110000000000009000000000002000006000000000000011200000000000000114400000000000078002013091600000010000000000000BRCSNAACNOR6242
012013082782CSNAU80     080CSNAE FM    ON        000R$  000000000003500000000000350000000000034000000000003400000000000350000000000000000000000000000004000000000000008000000000000000279000000000000086002013091600000010000000000000BRCSNAACNOR6243
012013082782CSNAU84     080CSNAE       ON        000R$  000000000002500000000000250000000000025000000000002500000000000250000000000012000000000010000001000000000000000200000000000000005000000000000084002013091600000010000000000000BRCSNAACNOR6243
012013082782CSNAU88     080CSNAE FM    ON        000R$  000000000004100000000000500000000000041000000000004100000000000500000000000000000000000005000005000000000000008300000000000000346700000000000088002013091600000010000000000000BRCSNAACNOR6243
012013082782CSNAU9      080CSNAE FM    ON        000R$  000000000005500000000000610000000000048000000000005000000000000570000000000045000000000006200038000000000000078900000000000004018100000000000090002013091600000010000000000000BRCSNAACNOR6243
012013082782CSNAU92     080CSNAE FM    ON        000R$  000000000005700000000000720000000000057000000000006400000000000720000000000000000000000000000003000000000000010500000000000000679000000000000092002013091600000010000000000000BRCSNAACNOR6243
012013082782CSNAV6      080CSNAE       ON        000R$  000000000000500000000000060000000000005000000000000500000000000060000000000000000000000001200047000000000000004700000000000000023600000000000058002013102100000010000000000000BRCSNAACNOR6242
012013082782CSNAV7      080CSNAE       ON        000R$  000000000001100000000000110000000000009000000000000900000000000090000000000010000000000003200053000000000000012900000000000000119600000000000068002013102100000010000000000000BRCSNAACNOR6242
012013082782CSNAV8      080CSNAE       ON        000R$  000000000002900000000000290000000000023000000000002700000000000290000000000027000000000003600154000000000000037200000000000001007500000000000078002013102100000010000000000000BRCSNAACNOR6242
012013082782CSNAV9      080CSNAE FM    ON        000R$  000000000005500000000000550000000000055000000000005500000000000550000000000054000000000008600001000000000000000100000000000000005500000000000088002013102100000010000000000000BRCSNAACNOR6242
012013082782CSNAV92     080CSNAE FM    ON        000R$  000000000008200000000000880000000000080000000000008200000000000880000000000000000000000000000009000000000000016500000000000001368500000000000092002013102100000010000000000000BRCSNAACNOR6243
