00COTAHIST.2013BOVESPA 20130904                                                                                                                                                                                                                      
012013090402ABCB4       010ABC BRASIL  PN      N2   R$  000000000122500000000012340000000001206000000000122300000000012060000000001206000000000121100941000000000000516400000000000631581000000000000000009999123100000010000000000000BRABCBACNPR4120
012013090496ABCB4F      020ABC BRASIL  PN      N2   R$  000000000120800000000012490000000001204000000000122400000000012040000000001203000000000125000035000000000000000652000000000000798234000000000000009999123100000010000000000000BRABCBACNPR4120
012013090462ABCB4T      030ABC BRASIL  PN      N2061R$  000000000124300000000012440000000001243000000000124300000000012440000000000000000000000000000002000000000000028800000000000035826840000000000000009999123100000010000000000000BRABCBACNPR4120
012013090412ABCP11      010FII ABC IMOBCI  ER       R$  000000000096600000000009660000000000966000000000096600000000009660000000000910000000000096600001000000000000000010000000000000009660000000000000009999123100000010000000000000BRABCPCTF000215
012013090402ABRE11      010ABRIL EDUCA UNT     N2   R$  000000000342600000000034710000000003335000000000340600000000033730000000003373000000000337401370000000000000325500000000001108957400000000000000009999123100000010000000000000BRABRECDAM15102
012013090496ABRE11F     020ABRIL EDUCA UNT     N2   R$  000000000342000000000034300000000003351000000000339900000000034000000000003251000000000347600004000000000000000111000000000000377380000000000000009999123100000010000000000000BRABRECDAM15102
012013090462ABRE11T     030ABRIL EDUCA UNT     N2030R$  000000000343400000000034350000000003434000000000343400000000034350000000000000000000000000000002000000000000001000000000000003434815000000000000009999123100000010000000000000BRABRECDAM15102
012013090402AEDU3       010ANHANGUERA  ON      NM   R$  000000000134000000000013690000000001316000000000135300000000013600000000001360000000000136305132000000000001993200000000002697381400000000000000009999123100000010000000000000BRAEDUACNOR9107
012013090496AEDU3F      020ANHANGUERA  ON      NM   R$  000000000134200000000014170000000001321000000000135200000000013510000000001350000000000139900042000000000000001743000000000002356522000000000000009999123100000010000000000000BRAEDUACNOR9107
012013090412AEFI11      010FII AESAPAR CI  ER       R$  000000001205000000000121800000000012050000000001205500000000120510000000012055000000001218000014000000000000000342000000000004122871000000000000009999123100000010000000000000BRAEFICTF002121
012013090402AELP3       010AES ELPA    ON           R$  000000000082000000000008500000000000818000000000082900000000008500000000000715000000000085000005000000000000001100000000000000912600000000000000009999123100000010000000000000BRAELPACNOR2119
012013090412AGCX11      010FII AG CAIXACI  ER       R$  000000009900000000000991000000000099000000000009900600000000990000000000098501000000009890000005000000000000000029000000000002871199000000000000009999123100000010000000000000BRAGCXCTF003110
012013090402AGRO3       010BRASILAGRO  ON      NM   R$  000000000097900000000009990000000000970000000000098300000000009700000000000970000000000098000154000000000000137900000000000135558600000000000000009999123100000010000000000000BRAGROACNOR7102
012013090462AGRO3T      030BRASILAGRO  ON      NM090R$  000000000099800000000009990000000000998000000000099800000000009990000000000000000000000000000002000000000000005000000000000004994858000000000000009999123100000010000000000000BRAGROACNOR7102
012013090402ALLL3       010ALL AMER LATON      NM   R$  000000000093700000000009430000000000909000000000092200000000009300000000000930000000000093108906000000000003573900000000003296316300000000000000009999123100000010000000000000BRALLLACNOR6118
012013090496ALLL3F      020ALL AMER LATON      NM   R$  000000000093000000000009410000000000912000000000092100000000009240000000000924000000000093000042000000000000001289000000000001187556000000000000009999123100000010000000000000BRALLLACNOR6118
012013090412ALMI11B     010FII TORRE ALCI  ER  MB   R$  000000031070000000003205000000000310700000000031606200000003205000000000308000000000032050000013000000000000000043000000000013590699000000000000009999123100000010000000000000BRALMICTF003205
012013090402ALPA3       010ALPARGATAS  ON      N1   R$  000000000109500000000010950000000001095000000000109500000000010950000000001095000000000110500002000000000000000500000000000000547500000000000000009999123100000010000000000000BRALPAACNOR0203
012013090496ALPA3F      020ALPARGATAS  ON      N1   R$  000000000108000000000010800000000001080000000000108000000000010800000000001081000000000123600001000000000000000010000000000000010800000000000000009999123100000010000000000000BRALPAACNOR0203
012013090402ALPA4       010ALPARGATAS  PN      N1   R$  000000000127800000000012920000000001261000000000127600000000012780000000001266000000000127801759000000000000582200000000000742945600000000000000009999123100000010000000000000BRALPAACNPR7203
012013090496ALPA4F      020ALPARGATAS  PN      N1   R$  000000000127000000000012960000000001170000000000126700000000012410000000001241000000000129000038000000000000000812000000000001029218000000000000009999123100000010000000000000BRALPAACNPR7203
012013090402ALSC3       010ALIANSCE    ON      NM   R$  000000000186800000000018790000000001799000000000182900000000018250000000001825000000000183002914000000000000840600000000001537982000000000000000009999123100000010000000000000BRALSCACNOR0104
012013090496ALSC3F      020ALIANSCE    ON      NM   R$  000000000181200000000018400000000001803000000000183000000000018370000000001713000000000185300007000000000000000121000000000000221459000000000000009999123100000010000000000000BRALSCACNOR0104
012013090402ALUP11      010ALUPAR      UNT     N2   R$  000000000173500000000017400000000001717000000000173400000000017390000000001736000000000173900168000000000000050800000000000088092600000000000000009999123100000010000000000000BRALUPCDAM15100
012013090496ALUP11F     020ALUPAR      UNT     N2   R$  000000000173000000000017450000000001695000000000173100000000017110000000001712000000000172000070000000000000001842000000000003189650000000000000009999123100000010000000000000BRALUPCDAM15100
012013090462ALUP11T     030ALUPAR      UNT     N2030R$  000000000174900000000017500000000001749000000000174900000000017500000000000000000000000000000004000000000000005000000000000008748738000000000000009999123100000010000000000000BRALUPCDAM15100
012013090402AMAR3       010LOJAS MARISAON      NM   R$  000000000197500000000019770000000001941000000000195700000000019600000000001952000000000196001122000000000000363200000000000710790900000000000000009999123100000010000000000000BRAMARACNOR4109
012013090496AMAR3F      020LOJAS MARISAON      NM   R$  000000000197500000000019750000000001878000000000196700000000019610000000001950000000000197100012000000000000000422000000000000830148000000000000009999123100000010000000000000BRAMARACNOR4109
012013090402AMBV3       010AMBEV       ON           R$  000000000811100000000081340000000008008000000000807400000000081200000000008100000000000812000706000000000000115400000000000931786100000000000000009999123100000010000000000000BRAMBVACNOR4153
012013090496AMBV3F      020AMBEV       ON           R$  000000000810000000000081490000000008008000000000808300000000081490000000008084000000000814000044000000000000001077000000000008706297000000000000009999123100000010000000000000BRAMBVACNOR4153
012013090462AMBV3T      030AMBEV       ON        061R$  000000000819100000000081920000000008191000000000819100000000081920000000000000000000000000000006000000000000005400000000000044231897000000000000009999123100000010000000000000BRAMBVACNOR4153
012013090462AMBV3T      030AMBEV       ON        120R$  000000000827800000000082790000000008278000000000827800000000082790000000000000000000000000000002000000000000000100000000000000827857000000000000009999123100000010000000000000BRAMBVACNOR4153
012013090402AMBV4       010AMBEV       PN           R$  000000000812900000000081290000000008019000000000808100000000081150000000008100000000000811507444000000000001562800000000012629719300000000000000009999123100000010000000000000BRAMBVACNPR1153
012013090496AMBV4F      020AMBEV       PN           R$  000000000813800000000081380000000008023000000000807700000000080980000000008076000000000810000176000000000000003896000000000031472071000000000000009999123100000010000000000000BRAMBVACNPR1153
012013090462AMBV4S      030AMBEV       PN        090R$  000000000827700000000082780000000008277000000000827700000000082780000000000000000000000000000002000000000000000600000000000004966613000000000000009999123100000010000000000000BRAMBVACNPR1153
012013090462AMBV4T      030AMBEV       PN        016R$  000000000806900000000080700000000008069000000000806900000000080700000000000000000000000000000002000000000000001000000000000008069751000000000000009999123100000010000000000000BRAMBVACNPR1153
012013090462AMBV4T      030AMBEV       PN        030R$  000000000810900000000081730000000008107000000000814100000000081730000000000000000000000000000012000000000000003500000000000028496972000000000000009999123100000010000000000000BRAMBVACNPR1153
012013090462AMBV4T      030AMBEV       PN        061R$  000000000820100000000082150000000008198000000000820100000000081990000000000000000000000000000006000000000000001400000000000011482623000000000000009999123100000010000000000000BRAMBVACNPR1153
012013090478AMBVI83     070AMBV        PN        000R$  000000000003000000000000300000000000030000000000003000000000000300000000000000000000000000000001000000000000000200000000000000006000000000000830002013091600000010000000000000BRAMBVACNPR1153
012013090478AMBVI89     070AMBV        PN        000R$  000000000000500000000000050000000000004000000000000400000000000040000000000000000000000000000002000000000000099000000000000000400000000000000890002013091600000010000000000000BRAMBVACNPR1153
012013090478AMBVL1      070AMBVE       PN        000R$  000000000010000000000001000000000000100000000000010000000000001000000000000000000000000000000002000000000000005000000000000000500000000000000905002013121600000010000000000000BRAMBVACNPR1153
012013090482AMBVV74     080AMBVE       PN        000R$  000000000002800000000000280000000000028000000000002800000000000280000000000000000000000000000002000000000000050000000000000001400000000000000740002013102100000010000000000000BRAMBVACNPR1153
012013090482AMBVW72     080AMBVE       PN        000R$  000000000003400000000000350000000000034000000000003400000000000350000000000000000000000000000003000000000000030000000000000001041000000000000720002013111800000010000000000000BRAMBVACNPR1153
012013090482AMBVW74     080AMBVE       PN        000R$  000000000004800000000000480000000000048000000000004800000000000480000000000000000000000000000002000000000000020000000000000000960000000000000740002013111800000010000000000000BRAMBVACNPR1153
012013090482AMBVX2      080AMBVE       PN        000R$  000000000020000000000002000000000000200000000000020000000000002000000000000000000000000000000002000000000000005000000000000001000000000000000785002013121600000010000000000000BRAMBVACNPR1153
012013090402AORE3       010ALL ORE     ON           R$  000000000015000000000001500000000000150000000000015000000000001500000000000126000000000015000002000000000000000600000000000000090000000000000000009999123100000010000000000000BRAOREACNOR2100
012013090402ARTR3       010ARTERIS     ON      NM   R$  000000000196000000000019740000000001829000000000190900000000018290000000001825000000000182902808000000000001457900000000002783728400000000000000009999123100000010000000000000BRARTRACNOR3101
012013090496ARTR3F      020ARTERIS     ON      NM   R$  000000000194100000000019590000000001848000000000190400000000018800000000001860000000000189900054000000000000001332000000000002537437000000000000009999123100000010000000000000BRARTRACNOR3101
012013090462ARTR3T      030ARTERIS     ON      NM061R$  000000000196900000000019700000000001969000000000196900000000019700000000000000000000000000000002000000000000020000000000000039387644000000000000009999123100000010000000000000BRARTRACNOR3101
012013090402ARZZ3       010AREZZO CO   ON      NM   R$  000000000347500000000034940000000003412000000000345700000000034770000000003460000000000347700564000000000000145200000000000502078400000000000000009999123100000010000000000000BRARZZACNOR3109
012013090496ARZZ3F      020AREZZO CO   ON      NM   R$  000000000347400000000034740000000003470000000000347000000000034700000000003400000000000359900006000000000000000153000000000000530990000000000000009999123100000010000000000000BRARZZACNOR3109
012013090402AUTM3       010AUTOMETAL   ON      NM   R$  000000000185000000000019450000000001848000000000188500000000019000000000001900000000000192500218000000000000172300000000000324814200000000000000009999123100000010000000000000BRAUTMACNOR8109
012013090496AUTM3F      020AUTOMETAL   ON      NM   R$  000000000188000000000019050000000001880000000000189900000000019050000000001750000000000194900005000000000000000081000000000000153848000000000000009999123100000010000000000000BRAUTMACNOR8109
012013090402AZEV4       010AZEVEDO     PN           R$  000000000014500000000001450000000000145000000000014500000000001450000000000126000000000015000001000000000000000600000000000000087000000000000000009999123100000010000000000000BRAZEVACNPR7113
012013090402BAHI3       010BAHEMA      ON           R$  000000000049200000000005100000000000492000000000049300000000005100000000000492000000000051900003000000000000003400000000000001679000000000000000009999123100000010000000000000BRBAHIACNOR1066
012013090402BAUH4       010EXCELSIOR   PN           R$  000000000094000000000009400000000000940000000000094000000000009400000000000900000000000094800001000000000000000500000000000000470000000000000000009999123100000010000000000000BRBAUHACNPR3108
012013090402BAZA3       010AMAZONIA    ON           R$  000000000003200000000000330000000000032000000000003200000000000320000000000032000000000003300005000000000000068000000000000002214000000000000000009999123100000010000000000000BRBAZAACNOR0163
012013090402BBAS3       010BRASIL      ON      NM   R$  000000000230000000000023270000000002279000000000230400000000023210000000002319000000000232110128000000000004684300000000010797117100000000000000009999123100000010000000000000BRBBASACNOR3238
012013090496BBAS3F      020BRASIL      ON      NM   R$  000000000228800000000023300000000002281000000000230200000000023300000000002310000000000233000274000000000000007674000000000017674479000000000000009999123100000010000000000000BRBBASACNOR3238
012013090462BBAS3T      030BRASIL      ON      NM030R$  000000000232200000000023230000000002322000000000232200000000023230000000000000000000000000000002000000000000003000000000000006967810000000000000009999123100000010000000000000BRBBASACNOR3238
012013090462BBAS3T      030BRASIL      ON      NM061R$  000000000234700000000023480000000002347000000000234700000000023480000000000000000000000000000002000000000000000400000000000000938949000000000000009999123100000010000000000000BRBBASACNOR3238
012013090462BBAS3T      030BRASIL      ON      NM090R$  000000000233800000000023670000000002331000000000234300000000023580000000000000000000000000000012000000000000003850000000000009023787000000000000009999123100000010000000000000BRBBASACNOR3238
012013090478BBASI21     070BBAS        ON      NM000R$  000000000030000000000003000000000000300000000000030000000000003000000000000250000000000000000002000000000000001000000000000000300000000000000202202013091600000010000000000000BRBBASACNOR3237
012013090478BBASI22     070BBAS  FM    ON      NM000R$  000000000020500000000002310000000000194000000000021300000000002290000000000192000000000027900086000000000000116700000000000024879800000000000209802013091600000010000000000000BRBBASACNOR3236
012013090478BBASI23     070BBAS  FM    ON      NM000R$  000000000011600000000001370000000000106000000000011800000000001370000000000104000000000013700068000000000000090300000000000010704100000000000219802013091600000010000000000000BRBBASACNOR3236
012013090478BBASI24     070BBAS  FM    ON      NM000R$  000000000005400000000000600000000000043000000000005000000000000540000000000048000000000006000112000000000000176700000000000009010300000000000229802013091600000010000000000000BRBBASACNOR3236
012013090478BBASI25     070BBAS  FM    ON      NM000R$  000000000001400000000000170000000000012000000000001300000000000170000000000013000000000001600063000000000000127500000000000001667800000000000238802013091600000010000000000000BRBBASACNOR3235
012013090478BBASI26     070BBAS  FM    ON      NM000R$  000000000000400000000000050000000000002000000000000200000000000030000000000002000000000000500027000000000000032200000000000000088000000000000248802013091600000010000000000000BRBBASACNOR3235
012013090478BBASJ22     070BBAS  FM    ON      NM000R$  000000000021800000000002450000000000217000000000023000000000002450000000000150000000000000000024000000000000037300000000000008588600000000000212202013102100000010000000000000BRBBASACNOR3237
012013090478BBASJ23     070BBAS  FM    ON      NM000R$  000000000016800000000001870000000000168000000000017600000000001870000000000140000000000000000017000000000000028500000000000005026900000000000218802013102100000010000000000000BRBBASACNOR3235
012013090478BBASJ24     070BBAS  FM    ON      NM000R$  000000000009800000000001150000000000096000000000010300000000001150000000000088000000000014200036000000000000067900000000000007004500000000000229802013102100000010000000000000BRBBASACNOR3236
012013090478BBASJ25     070BBAS  FM    ON      NM000R$  000000000004900000000000500000000000045000000000004700000000000490000000000041000000000005500020000000000000024200000000000001153700000000000242202013102100000010000000000000BRBBASACNOR3237
012013090478BBASJ26     070BBAS  FM    ON      NM000R$  000000000003000000000000300000000000027000000000002900000000000300000000000028000000000004300043000000000000021500000000000000627900000000000248802013102100000010000000000000BRBBASACNOR3235
012013090478BBASJ27     070BBAS        ON      NM000R$  000000000001300000000000130000000000013000000000001300000000000130000000000010000000000004800001000000000000000200000000000000002600000000000258802013102100000010000000000000BRBBASACNOR3235
012013090478BBASJ28     070BBAS        ON      NM000R$  000000000000500000000000060000000000005000000000000500000000000060000000000003000000000000800002000000000000002500000000000000014400000000000272202013102100000010000000000000BRBBASACNOR3237
012013090478BBASK22     070BBAS        ON      NM000R$  000000000025800000000002580000000000258000000000025800000000002580000000000100000000000000000001000000000000000100000000000000025800000000000212202013111800000010000000000000BRBBASACNOR3237
012013090478BBASK24     070BBAS        ON      NM000R$  000000000012200000000001220000000000122000000000012200000000001220000000000109000000000000000001000000000000003000000000000000366000000000000232202013111800000010000000000000BRBBASACNOR3237
012013090478BBASK25     070BBAS        ON      NM000R$  000000000008600000000000860000000000086000000000008600000000000860000000000016000000000000000001000000000000003000000000000000258000000000000239802013111800000010000000000000BRBBASACNOR3236
012013090478BBASK27     070BBAS        ON      NM000R$  000000000002700000000000300000000000027000000000002700000000000300000000000010000000000000000005000000000000001100000000000000030700000000000259802013111800000010000000000000BRBBASACNOR3236
012013090478BBASL25     070BBAS        ON      NM000R$  000000000011500000000001150000000000115000000000011500000000001150000000000000000000000000000001000000000000000200000000000000023000000000000238802013121600000010000000000000BRBBASACNOR3235
012013090482BBASU12     080BBASE       ON      NM000R$  000000000001700000000000170000000000017000000000001700000000000170000000000000000000000000000001000000000000002000000000000000034000000000000120002013091600000010000000000000BRBBASACNOR3238
012013090482BBASU22     080BBASE FM    ON      NM000R$  000000000000400000000000040000000000004000000000000400000000000040000000000001000000000000500001000000000000002000000000000000008000000000000209802013091600000010000000000000BRBBASACNOR3236
012013090482BBASU23     080BBASE FM    ON      NM000R$  000000000001700000000000170000000000011000000000001300000000000110000000000009000000000002000013000000000000030700000000000000405900000000000219802013091600000010000000000000BRBBASACNOR3236
012013090482BBASU24     080BBASE FM    ON      NM000R$  000000000005100000000000540000000000031000000000004100000000000360000000000012000000000003600249000000000000353200000000000014719200000000000229802013091600000010000000000000BRBBASACNOR3236
012013090482BBASU25     080BBASE       ON      NM000R$  000000000010000000000001110000000000082000000000009500000000000820000000000016000000000014900016000000000000010700000000000001021700000000000238802013091600000010000000000000BRBBASACNOR3235
012013090482BBASV22     080BBASE FM    ON      NM000R$  000000000003400000000000350000000000033000000000003300000000000330000000000000000000000024700006000000000000014100000000000000477500000000000212202013102100000010000000000000BRBBASACNOR3237
012013090482BBASV23     080BBASE FM    ON      NM000R$  000000000004800000000000510000000000042000000000004800000000000420000000000000000000000007000011000000000000022000000000000001058100000000000218802013102100000010000000000000BRBBASACNOR3235
012013090482BBASV24     080BBASE FM    ON      NM000R$  000000000008700000000000920000000000075000000000008600000000000750000000000054000000000000000018000000000000039900000000000003438300000000000229802013102100000010000000000000BRBBASACNOR3236
012013090482BBASV25     080BBASE       ON      NM000R$  000000000015200000000001520000000000149000000000014900000000001490000000000120000000000000000005000000000000010800000000000001615200000000000242202013102100000010000000000000BRBBASACNOR3237
012013090482BBASV26     080BBASE       ON      NM000R$  000000000019900000000001990000000000192000000000019400000000001920000000000000000000000000000007000000000000021000000000000004080000000000000248802013102100000010000000000000BRBBASACNOR3235
012013090482BBASV53     080BBASE       ON      NM000R$  000000000006200000000000620000000000061000000000006100000000000610000000000000000000000000000002000000000000005000000000000000309000000000000223802013102100000010000000000000BRBBASACNOR3235
012013090482BBASW16     080BBASE       ON      NM000R$  000000000000500000000000050000000000005000000000000500000000000050000000000000000000000000000001000000000000000200000000000000001000000000000160002013111800000010000000000000BRBBASACNOR3238
012013090482BBASW22     080BBASE       ON      NM000R$  000000000004900000000000490000000000049000000000004900000000000490000000000000000000000000000001000000000000001200000000000000058800000000000212202013111800000010000000000000BRBBASACNOR3237
012013090482BBASW23     080BBASE       ON      NM000R$  000000000007100000000000710000000000071000000000007100000000000710000000000000000000000000000001000000000000003000000000000000213000000000000222202013111800000010000000000000BRBBASACNOR3237
012013090482BBASW24     080BBASE       ON      NM000R$  000000000010900000000001090000000000109000000000010900000000001090000000000000000000000000000001000000000000003000000000000000327000000000000232202013111800000010000000000000BRBBASACNOR3237
012013090482BBASW26     080BBASE       ON      NM000R$  000000000021600000000002160000000000216000000000021600000000002160000000000000000000000000000001000000000000003000000000000000648000000000000249802013111800000010000000000000BRBBASACNOR3236
012013090402BBDC3       010BRADESCO    ON  EJ  N1   R$  000000000309800000000031660000000003090000000000314000000000031650000000003155000000000316504810000000000001562100000000004905562400000000000000009999123100000010000000000000BRBBDCACNOR1606
012013090496BBDC3F      020BRADESCO    ON  EJ  N1   R$  000000000309900000000032190000000003099000000000313100000000032190000000003115000000000321900057000000000000001297000000000004062169000000000000009999123100000010000000000000BRBBDCACNOR1606
012013090402BBDC4       010BRADESCO    PN  EJ  N1   R$  000000000275400000000027890000000002741000000000277000000000027790000000002779000000000278015298000000000006165700000000017080778900000000000000009999123100000010000000000000BRBBDCACNPR8606
012013090496BBDC4F      020BRADESCO    PN  EJ  N1   R$  000000000275700000000027970000000002745000000000276800000000027710000000002771000000000277900209000000000000005867000000000016246398000000000000009999123100000010000000000000BRBBDCACNPR8606
012013090462BBDC4S      030BRADESCO    PN  EJ  N1090R$  000000000282000000000028210000000002820000000000282000000000028210000000000000000000000000000002000000000000010000000000000028206867000000000000009999123100000010000000000000BRBBDCACNPR8606
012013090462BBDC4T      030BRADESCO    PN  EJ  N1090R$  000000000281100000000028290000000002811000000000281800000000028290000000000000000000000000000004000000000000001600000000000004509130000000000000009999123100000010000000000000BRBBDCACNPR8606
012013090462BBDC4T      030BRADESCO    PN  EJ  N1120R$  000000000283100000000028320000000002831000000000283100000000028320000000000000000000000000000002000000000000036000000000000101924765000000000000009999123100000010000000000000BRBBDCACNPR8606
012013090462BBDC4T      030BRADESCO    PN  EJ  N1016R$  000000000278900000000027900000000002785000000000278800000000027860000000000000000000000000000004000000000000006000000000000016732275000000000000009999123100000010000000000000BRBBDCACNPR8606
012013090462BBDC4T      030BRADESCO    PN  EJ  N1030R$  000000000276800000000027990000000002768000000000279500000000027990000000000000000000000000000004000000000000001300000000000003634550000000000000009999123100000010000000000000BRBBDCACNPR8606
012013090462BBDC4T      030BRADESCO    PN  EJ  N1061R$  000000000279300000000028140000000002793000000000281100000000028140000000000000000000000000000004000000000000001889000000000005310081000000000000009999123100000010000000000000BRBBDCACNPR8606
012013090478BBDCI27     070BBDC    /EJ PN      N1000R$  000000000010500000000001340000000000104000000000011800000000001160000000000105000000000014800071000000000000105400000000000012472200000000000267602013091600000010000000000000BRBBDCACNPR8602
012013090478BBDCI28     070BBDC    /EJ PN      N1000R$  000000000004300000000000620000000000041000000000005000000000000520000000000048000000000006200087000000000000136000000000000006837800000000000277602013091600000010000000000000BRBBDCACNPR8602
012013090478BBDCI29     070BBDC    /EJ PN      N1000R$  000000000001500000000000180000000000013000000000001500000000000180000000000016000000000001800067000000000000129900000000000002032600000000000287602013091600000010000000000000BRBBDCACNPR8602
012013090478BBDCI30     070BBDC    /EJ PN      N1000R$  000000000000400000000000050000000000004000000000000400000000000050000000000003000000000001000013000000000000029300000000000000137200000000000297602013091600000010000000000000BRBBDCACNPR8602
012013090478BBDCI31     070BBDC    /EJ PN      N1000R$  000000000007500000000000840000000000070000000000007600000000000840000000000050000000000000000003000000000000007300000000000000560400000000000272702013091600000010000000000000BRBBDCACNPR8590
012013090478BBDCI32     070BBDC    /EJ PN      N1000R$  000000000000200000000000020000000000002000000000000200000000000020000000000001000000000000500001000000000000006400000000000000012800000000000317602013091600000010000000000000BRBBDCACNPR8602
012013090478BBDCI33     070BBDC    /EJ PN      N1000R$  000000000000500000000000050000000000005000000000000500000000000050000000000000000000000000600007000000000000012400000000000000062000000000000297002013091600000010000000000000BRBBDCACNPR8598
012013090478BBDCI58     070BBDC    /EJ PN      N1000R$  000000000001900000000000190000000000019000000000001900000000000190000000000000000000000000000001000000000000000200000000000000003800000000000284802013091600000010000000000000BRBBDCACNPR8605
012013090478BBDCI81     070BBDC    /EJ PN      N1000R$  000000000000200000000000030000000000002000000000000200000000000030000000000000000000000001600008000000000000014500000000000000033000000000000307602013091600000010000000000000BRBBDCACNPR8602
012013090478BBDCJ26     070BBDC    /EJ PN      N1000R$  000000000022500000000002520000000000221000000000023900000000002440000000000000000000000000000076000000000000113900000000000027223200000000000259602013102100000010000000000000BRBBDCACNPR8604
012013090478BBDCJ27     070BBDC    /EJ PN      N1000R$  000000000016900000000001950000000000168000000000018300000000001950000000000165000000000019900038000000000000064200000000000011765900000000000267602013102100000010000000000000BRBBDCACNPR8602
012013090478BBDCJ29     070BBDC    /EJ PN      N1000R$  000000000006500000000000760000000000063000000000007100000000000700000000000056000000000007600035000000000000048500000000000003471100000000000287602013102100000010000000000000BRBBDCACNPR8602
012013090478BBDCJ30     070BBDC    /EJ PN      N1000R$  000000000003600000000000420000000000035000000000003900000000000390000000000035000000000006800036000000000000050400000000000001984400000000000297602013102100000010000000000000BRBBDCACNPR8602
012013090478BBDCJ31     070BBDC    /EJ PN      N1000R$  000000000002200000000000230000000000018000000000002000000000000230000000000012000000000003800045000000000000088500000000000001776000000000000307602013102100000010000000000000BRBBDCACNPR8602
012013090478BBDCJ32     070BBDC    /EJ PN      N1000R$  000000000001200000000000130000000000011000000000001100000000000130000000000007000000000002200003000000000000002500000000000000028400000000000317602013102100000010000000000000BRBBDCACNPR8602
012013090478BBDCJ34     070BBDC    /EJ PN      N1000R$  000000000000200000000000020000000000002000000000000200000000000020000000000000000000000000000001000000000000001900000000000000003800000000000337202013102100000010000000000000BRBBDCACNPR8600
012013090478BBDCJ58     070BBDC    /EJ PN      N1000R$  000000000010900000000001150000000000098000000000010900000000001110000000000092000000000014900087000000000000198100000000000021712600000000000279802013102100000010000000000000BRBBDCACNPR8605
012013090478BBDCK31     070BBDC    /EJ PN      N1000R$  000000000003900000000000390000000000039000000000003900000000000390000000000000000000000000000001000000000000000500000000000000019500000000000309802013111800000010000000000000BRBBDCACNPR8605
012013090478BBDCL33     070BBDC    /EJ PN      N1000R$  000000000009800000000001040000000000098000000000010000000000001040000000000000000000000000000003000000000000200100000000000020161800000000000297002013121600000010000000000000BRBBDCACNPR8598
012013090482BBDCU26     080BBDCE   /EJ PN      N1000R$  000000000001100000000000110000000000007000000000000900000000000070000000000000000000000001100005000000000000013100000000000000122200000000000259602013091600000010000000000000BRBBDCACNPR8604
012013090482BBDCU27     080BBDCE   /EJ PN      N1000R$  000000000002200000000000220000000000018000000000002100000000000190000000000000000000000007100016000000000000028900000000000000628900000000000267602013091600000010000000000000BRBBDCACNPR8602
012013090482BBDCU28     080BBDCE   /EJ PN      N1000R$  000000000006200000000000620000000000044000000000004900000000000450000000000045000000000000000040000000000000080000000000000003993000000000000277602013091600000010000000000000BRBBDCACNPR8602
012013090482BBDCU29     080BBDCE   /EJ PN      N1000R$  000000000012900000000001340000000000104000000000011700000000001090000000000000000000000000000035000000000000070200000000000008264900000000000287602013091600000010000000000000BRBBDCACNPR8602
012013090482BBDCU31     080BBDCE   /EJ PN      N1000R$  000000000003800000000000380000000000034000000000003500000000000350000000000000000000000000000004000000000000004400000000000000156600000000000272702013091600000010000000000000BRBBDCACNPR8590
012013090482BBDCU75     080BBDCE   /EJ PN      N1000R$  000000000008200000000000820000000000068000000000007600000000000680000000000000000000000000000002000000000000003200000000000000245600000000000282102013091600000010000000000000BRBBDCACNPR8604
012013090482BBDCV25     080BBDCE   /EJ PN      N1000R$  000000000002500000000000260000000000020000000000002100000000000230000000000000000000000000000041000000000000114500000000000002486600000000000249402013102100000010000000000000BRBBDCACNPR8603
012013090482BBDCV26     080BBDCE   /EJ PN      N1000R$  000000000004200000000000420000000000037000000000003900000000000370000000000000000000000000000004000000000000007400000000000000291900000000000259602013102100000010000000000000BRBBDCACNPR8604
012013090482BBDCV27     080BBDCE   /EJ PN      N1000R$  000000000006400000000000640000000000058000000000005900000000000590000000000000000000000000000009000000000000012200000000000000723800000000000267602013102100000010000000000000BRBBDCACNPR8602
012013090482BBDCV29     080BBDCE   /EJ PN      N1000R$  000000000014300000000001430000000000143000000000014300000000001430000000000000000000000000000001000000000000001200000000000000171600000000000287602013102100000010000000000000BRBBDCACNPR8602
012013090482BBDCV58     080BBDCE   /EJ PN      N1000R$  000000000011200000000001120000000000100000000000010400000000001040000000000000000000000000000007000000000000014500000000000001512700000000000279802013102100000010000000000000BRBBDCACNPR8605
012013090482BBDCW26     080BBDCE   /EJ PN      N1000R$  000000000006100000000000610000000000061000000000006100000000000610000000000000000000000000000001000000000000002000000000000000122000000000000259602013111800000010000000000000BRBBDCACNPR8604
012013090482BBDCW27     080BBDCE   /EJ PN      N1000R$  000000000009000000000000900000000000090000000000009000000000000900000000000000000000000000000001000000000000002000000000000000180000000000000269402013111800000010000000000000BRBBDCACNPR8603
012013090482BBDCW28     080BBDCE   /EJ PN      N1000R$  000000000012200000000001220000000000122000000000012200000000001220000000000000000000000000000001000000000000002000000000000000244000000000000277602013111800000010000000000000BRBBDCACNPR8602
012013090482BBDCW9      080BBDCE   /EJ PN      N1000R$  000000000018400000000001840000000000184000000000018400000000001840000000000000000000000000000001000000000000001400000000000000257600000000000289802013111800000010000000000000BRBBDCACNPR8605
012013090482BBDCX66     080BBDCE   /EJ PN      N1000R$  000000000007000000000000700000000000070000000000007000000000000700000000000000000000000000000001000000000000200000000000000014000000000000000259602013121600000010000000000000BRBBDCACNPR8604
012013090412BBFI11B     010FII BB PROGRCI  ER  MB   R$  000000043000000000004300000000000423500000000042526100000004235000000000423500000000042650000008000000000000000046000000000019562007000000000000009999123100000010000000000000BRBBFICTF006198
012013090412BBPO11      010FII BB PRGIICI  ER       R$  000000001105000000000110500000000010981000000001099900000000109900000000010983000000001099000259000000000000020543000000000225953295000000000000009999123100000010000000000000BRBBPOCTF003110
012013090412BBRC11      010FII BB CORP CI  ER       R$  000000000900000000000092200000000008940000000000900200000000089400000000008940000000000915000010000000000000000380000000000003421038000000000000009999123100000010000000000000BRBBRCCTF004124
012013090402BBRK3       010BR BROKERS  ON      NM   R$  000000000054000000000005640000000000540000000000055700000000005610000000000560000000000056101818000000000000702600000000000391826200000000000000009999123100000010000000000000BRBBRKACNOR4108
012013090496BBRK3F      020BR BROKERS  ON      NM   R$  000000000056100000000005610000000000547000000000055600000000005600000000000511000000000056000013000000000000000424000000000000235744000000000000009999123100000010000000000000BRBBRKACNOR4108
012013090402BBSE3       010BBSEGURIDADEON      NM   R$  000000000191000000000019300000000001905000000000192000000000019180000000001918000000000192007497000000000001877100000000003605180500000000000000009999123100000010000000000000BRBBSEACNOR5101
012013090496BBSE3F      020BBSEGURIDADEON      NM   R$  000000000191000000000019290000000001905000000000191900000000019140000000001914000000000192001208000000000000039319000000000075482915000000000000009999123100000010000000000000BRBBSEACNOR5101
012013090462BBSE3T      030BBSEGURIDADEON      NM061R$  000000000194200000000019430000000001936000000000194100000000019370000000000000000000000000000006000000000000081000000000000157280932000000000000009999123100000010000000000000BRBBSEACNOR5101
012013090478BBSEJ21     070BBSE        ON      NM000R$  000000000001600000000000170000000000016000000000001600000000000170000000000000000000000000000002000000000000800000000000000012816000000000000205902013102100000010000000000000BRBBSEACNOR5100
012013090482BBSEU49     080BBSEE       ON      NM000R$  000000000002600000000000260000000000026000000000002600000000000260000000000000000000000000000001000000000000800000000000000020800000000000000190902013091600000010000000000000BRBBSEACNOR5100
012013090482BBSEU68     080BBSEE       ON      NM000R$  000000000000500000000000050000000000005000000000000500000000000050000000000000000000000000000001000000000000800000000000000004000000000000000182502013091600000010000000000000BRBBSEACNOR5101
012013090402BBTG11      010BTG PACTUAL UNT          R$  000000000275900000000027980000000002731000000000276400000000027700000000002770000000000277900521000000000002287700000000006323574900000000000000009999123100000010000000000000BRBBTGUNT007105
012013090496BBTG11F     020BTG PACTUAL UNT          R$  000000000276200000000028490000000002762000000000277100000000028490000000002695000000000280000007000000000000000183000000000000507257000000000000009999123100000010000000000000BRBBTGUNT007105
012013090462BBTG11T     030BTG PACTUAL UNT       182R$  000000000290400000000029050000000002904000000000290400000000029050000000000000000000000000000002000000000000940000000000002730605060000000000000009999123100000010000000000000BRBBTGUNT007105
012013090412BBVJ11      010FII C JARDIMCI  ER       R$  000000000738600000000074990000000007351000000000743400000000073850000000007360000000000749000026000000000000000677000000000005032846000000000000009999123100000010000000000000BRBBVJCTF001133
012013090412BCFF11B     010FII BC FFII CI      MB   R$  000000000889300000000089300000000008860000000000891000000000089200000000008905000000000892000062000000000000006002000000000053480367000000000000009999123100000010000000000000BRBCFFCTF000141
012013090402BEEF3       010MINERVA     ON      NM   R$  000000000111400000000011250000000001091000000000110600000000011200000000001110000000000112002486000000000000654200000000000724041300000000000000009999123100000010000000000000BRBEEFACNOR6104
012013090496BEEF3F      020MINERVA     ON      NM   R$  000000000111400000000011150000000001094000000000110300000000011150000000001090000000000111900008000000000000000305000000000000336678000000000000009999123100000010000000000000BRBEEFACNOR6104
012013090462BEEF3T      030MINERVA     ON      NM030R$  000000000112100000000011220000000001121000000000112100000000011220000000000000000000000000000002000000000000000900000000000001009113000000000000009999123100000010000000000000BRBEEFACNOR6104
012013090462BEEF3T      030MINERVA     ON      NM090R$  000000000113300000000011340000000001133000000000113300000000011340000000000000000000000000000002000000000000000100000000000000113366000000000000009999123100000010000000000000BRBEEFACNOR6104
012013090402BEES3       010BANESTES    ON  EJ       R$  000000000004900000000000500000000000049000000000004900000000000490000000000049000000000005000015000000000000042000000000000002078000000000000000009999123100000010000000000000BRBEESACNOR9244
012013090402BEES4       010BANESTES    PN  EJ       R$  000000000004400000000000450000000000044000000000004400000000000450000000000044000000000004500017000000000000114700000000000005047200000000000000009999123100000010000000000000BRBEESACNPR6169
012013090402BEMA3       010BEMATECH    ON      NM   R$  000000000072100000000007370000000000718000000000073100000000007360000000000733000000000073600259000000000000071200000000000052091600000000000000009999123100000010000000000000BRBEMAACNOR0114
012013090496BEMA3F      020BEMATECH    ON      NM   R$  000000000072500000000007340000000000718000000000072800000000007180000000000718000000000079000008000000000000000183000000000000133275000000000000009999123100000010000000000000BRBEMAACNOR0114
012013090402BGIP4       010BANESE      PN           R$  000000000450000000000045990000000004500000000000455500000000045910000000004591000000000468900005000000000000001400000000000006377600000000000000009999123100000010000000000000BRBGIPACNPR8179
012013090496BGIP4F      020BANESE      PN           R$  000000000480000000000048000000000004800000000000480000000000048000000000004355000000000490000001000000000000000010000000000000048000000000000000009999123100000010000000000000BRBGIPACNPR8179
012013090402BHGR3       010BHG         ON      NM   R$  000000000144100000000015310000000001412000000000145100000000014600000000001455000000000146000319000000000000255600000000000370992300000000000000009999123100000010000000000000BRBHGRACNOR9101
012013090496BHGR3F      020BHG         ON      NM   R$  000000000144000000000014400000000001440000000000144000000000014400000000001214000000000158000001000000000000000002000000000000002880000000000000009999123100000010000000000000BRBHGRACNOR9101
012013090402BICB4       010BICBANCO    PN      N1   R$  000000000042000000000004320000000000415000000000042100000000004200000000000420000000000042200386000000000000141600000000000059734700000000000000009999123100000010000000000000BRBICBACNPR7131
012013090462BICB4T      030BICBANCO    PN      N1030R$  000000000043200000000004330000000000432000000000043200000000004330000000000000000000000000000002000000000000020000000000000008653205000000000000009999123100000010000000000000BRBICBACNPR7131
012013090402BIOM3       010BIOMM       ON           R$  000000000090000000000009000000000000900000000000090000000000009000000000000900000000000095000001000000000000001000000000000000900000000000000000009999123100000010000000000000BRBIOMACNOR2101
012013090496BIOM3F      020BIOMM       ON           R$  000000000080000000000008000000000000800000000000080000000000008000000000000850000000000090100002000000000000000200000000000000160000000000000000009999123100000010000000000000BRBIOMACNOR2101
012013090402BISA3       010BROOKFIELD  ON      NM   R$  000000000018900000000001900000000000184000000000018700000000001870000000000186000000000018706324000000000007679900000000001437803700000000000000009999123100000010000000000000BRBISAACNOR8109
012013090496BISA3F      020BROOKFIELD  ON      NM   R$  000000000018700000000001890000000000172000000000018400000000001810000000000181000000000018800015000000000000000483000000000000089052000000000000009999123100000010000000000000BRBISAACNOR8109
012013090402BMEB4       010MERC BRASIL PN           R$  000000000110000000000011000000000001100000000000110000000000011000000000000000000000000112000001000000000000001700000000000001870000000000000000009999123100000010000000000000BRBMEBACNPR5191
012013090402BMIN4       010MERC INVEST PN           R$  000000000002400000000000240000000000024000000000002400000000000240000000000024000000000002500004000000000000007000000000000000168000000000000000009999123100000010000000000000BRBMINACNPR1160
012013090412BMLC11B     010FII BMBRC LCCI      MB   R$  000000001129000000000113000000000011250000000001129500000000113000000000011251000000001130000008000000000000000343000000000003874240000000000000009999123100000010000000000000BRBMLCCTF004118
012013090496BMTO3F      020BRASMOTOR   ON           R$  000000000007900000000000790000000000078000000000007800000000000780000000000078000000000009700002000000000000000174000000000000013596000000000000009999123100000010000000000000BRBMTOACNOR9180
012013090412BNFS11      010FII BANRISULCI  ER       R$  000000000999900000000099990000000009999000000000999900000000099990000000009900000000000999900001000000000000000007000000000000069993000000000000009999123100000010000000000000BRBNFSCTF000112
012013090414BOVA11      010ISHARES BOVACI           R$  000000000504700000000050670000000004992000000000503100000000050510000000005032000000000505103938000000000001512610000000007611346340000000000000009999123100000010000000000000BRBOVACTF003101
012013090496BOVA11F     020ISHARES BOVACI           R$  000000000507000000000050900000000004975000000000500900000000049750000000004975000000000503800008000000000000000034000000000000170329000000000000009999123100000010000000000000BRBOVACTF003101
012013090412BPFF11      010FII ABSOLUTOCI  ER       R$  000000000844800000000085000000000008430000000000847000000000085000000000008475000000000850000008000000000000000347000000000002939150000000000000009999123100000010000000000000BRBPFFCTF002105
012013090402BPHA3       010BR PHARMA   ON      NM   R$  000000000084300000000008780000000000843000000000086700000000008670000000000867000000000086902347000000000001312600000000001138992400000000000000009999123100000010000000000000BRBPHAACNOR6102
012013090496BPHA3F      020BR PHARMA   ON      NM   R$  000000000083700000000008700000000000837000000000086700000000008690000000000851000000000097600007000000000000000177000000000000153575000000000000009999123100000010000000000000BRBPHAACNOR6102
012013090462BPHA3T      030BR PHARMA   ON      NM030R$  000000000085800000000008750000000000858000000000086600000000008750000000000000000000000000000024000000000000010000000000000008664308000000000000009999123100000010000000000000BRBPHAACNOR6102
012013090402BPNM4       010PANAMERICANOPN      N1   R$  000000000051100000000005130000000000486000000000049900000000005100000000000505000000000051000637000000000002545200000000001271976900000000000000009999123100000010000000000000BRBPNMACNPR6111
012013090496BPNM4F      020PANAMERICANOPN      N1   R$  000000000051000000000005100000000000498000000000050200000000005000000000000495000000000054900007000000000000000237000000000000119100000000000000009999123100000010000000000000BRBPNMACNPR6111
012013090462BPNM4S      030PANAMERICANOPN      N1061R$  000000000050600000000005070000000000506000000000050600000000005070000000000000000000000000000002000000000000004900000000000002483244000000000000009999123100000010000000000000BRBPNMACNPR6111
012013090462BPNM4T      030PANAMERICANOPN      N1061R$  000000000050700000000005080000000000507000000000050700000000005080000000000000000000000000000002000000000001500000000000000760650000000000000000009999123100000010000000000000BRBPNMACNPR6111
012013090402BRAP3       010BRADESPAR   ON      N1   R$  000000000204000000000020900000000002040000000000208400000000020800000000002060000000000208000008000000000000012500000000000026053000000000000000009999123100000010000000000000BRBRAPACNOR5124
012013090496BRAP3F      020BRADESPAR   ON      N1   R$  000000000204000000000020750000000002040000000000206300000000020750000000002050000000000207000005000000000000000025000000000000051585000000000000009999123100000010000000000000BRBRAPACNOR5124
012013090462BRAP3T      030BRADESPAR   ON      N1030R$  000000000209800000000020990000000002098000000000209800000000020990000000000000000000000000000002000000000000004000000000000008393216000000000000009999123100000010000000000000BRBRAPACNOR5124
012013090462BRAP3T      030BRADESPAR   ON      N1043R$  000000000211100000000021120000000002111000000000211100000000021120000000000000000000000000000002000000000000004800000000000010133129000000000000009999123100000010000000000000BRBRAPACNOR5124
012013090402BRAP4       010BRADESPAR   PN      N1   R$  000000000253200000000025550000000002506000000000253300000000025500000000002550000000000255107515000000000001437700000000003643134900000000000000009999123100000010000000000000BRBRAPACNPR2124
012013090496BRAP4F      020BRADESPAR   PN      N1   R$  000000000251400000000026000000000002505000000000253600000000025200000000002520000000000261500031000000000000000804000000000002039092000000000000009999123100000010000000000000BRBRAPACNPR2124
012013090414BRAX11      010ISHARES BRAXCI           R$  000000000400100000000040010000000004001000000000400100000000040010000000000000000000000405000001000000000000001000000000000004001000000000000000009999123100000010000000000000BRBRAXCTF002100
012013090412BRCR11      010FII BC FUND CI           R$  000000001265000000000127500000000012551000000001267000000000126100000000012610000000001265000445000000000000023976000000000303791125000000000000009999123100000010000000000000BRBRCRCTF000132
012013090402BRFS3       010BRF SA      ON      NM   R$  000000000541900000000055890000000005377000000000553600000000055680000000005568000000000557607969000000000002084400000000011540471400000000000000009999123100000010000000000000BRBRFSACNOR8110
012013090496BRFS3F      020BRF SA      ON      NM   R$  000000000540100000000056000000000005395000000000553600000000054410000000005441000000000567000178000000000000004847000000000026835067000000000000009999123100000010000000000000BRBRFSACNOR8110
012013090462BRFS3T      030BRF SA      ON      NM030R$  000000000562400000000056250000000005624000000000562400000000056250000000000000000000000000000002000000000000000200000000000001124928000000000000009999123100000010000000000000BRBRFSACNOR8110
012013090478BRFSJ58     070BRFS        ON      NM000R$  000000000010500000000001050000000000105000000000010500000000001050000000000000000000000000000001000000000000000300000000000000031500000000000580002013102100000010000000000000BRBRFSACNOR8110
012013090402BRIN3       010BR INSURANCEON      NM   R$  000000000189900000000019350000000001878000000000189800000000018970000000001892000000000189701594000000000000391800000000000743757500000000000000009999123100000010000000000000BRBRINACNOR3106
012013090496BRIN3F      020BR INSURANCEON      NM   R$  000000000186000000000019090000000001860000000000189900000000018970000000001896000000000193200016000000000000000328000000000000623178000000000000009999123100000010000000000000BRBRINACNOR3106
012013090402BRKM3       010BRASKEM     ON      N1   R$  000000000121000000000012690000000001210000000000124800000000012690000000001250000000000126900012000000000000007900000000000009864900000000000000009999123100000010000000000000BRBRKMACNOR1110
012013090496BRKM3F      020BRASKEM     ON      N1   R$  000000000120500000000012050000000001200000000000120400000000012000000000001172000000000125000002000000000000000043000000000000051790000000000000009999123100000010000000000000BRBRKMACNOR1110
012013090462BRKM3T      030BRASKEM     ON      N1043R$  000000000126000000000012610000000001260000000000126000000000012610000000000000000000000000000002000000000000004500000000000005670290000000000000009999123100000010000000000000BRBRKMACNOR1110
012013090402BRKM5       010BRASKEM     PNA     N1   R$  000000000178500000000018240000000001775000000000180900000000018240000000001807000000000182406039000000000001503700000000002720825500000000000000009999123100000010000000000000BRBRKMACNPA4110
012013090496BRKM5F      020BRASKEM     PNA     N1   R$  000000000179000000000018200000000001790000000000180700000000018150000000001793000000000181900041000000000000000999000000000001805915000000000000009999123100000010000000000000BRBRKMACNPA4110
012013090462BRKM5T      030BRASKEM     PNA     N1030R$  000000000182200000000018230000000001822000000000182200000000018230000000000000000000000000000002000000000000000600000000000001093478000000000000009999123100000010000000000000BRBRKMACNPA4110
012013090402BRML3       010BR MALLS PARON      NM   R$  000000000185500000000018600000000001835000000000184400000000018370000000001836000000000183904348000000000002500800000000004611569000000000000000009999123100000010000000000000BRBRMLACNOR9105
012013090496BRML3F      020BR MALLS PARON      NM   R$  000000000185000000000018530000000001815000000000184300000000018150000000001806000000000181500063000000000000001580000000000002912197000000000000009999123100000010000000000000BRBRMLACNOR9105
012013090462BRML3T      030BR MALLS PARON      NM030R$  000000000186400000000018650000000001857000000000186100000000018580000000000000000000000000000004000000000000008200000000000015268356000000000000009999123100000010000000000000BRBRMLACNOR9105
012013090462BRML3T      030BR MALLS PARON      NM061R$  000000000187500000000018760000000001875000000000187500000000018760000000000000000000000000000002000000000000020000000000000037512570000000000000009999123100000010000000000000BRBRMLACNOR9105
012013090402BRPR3       010BR PROPERT  ON      NM   R$  000000000182800000000018280000000001790000000000180100000000018160000000001815000000000181610251000000000004699000000000008464975600000000000000009999123100000010000000000000BRBRPRACNOR9112
012013090496BRPR3F      020BR PROPERT  ON      NM   R$  000000000183000000000018300000000001782000000000180200000000018300000000001790000000000183000028000000000000000815000000000001469252000000000000009999123100000010000000000000BRBRPRACNOR9112
012013090402BRSR6       010BANRISUL    PNB EJ  N1   R$  000000000141700000000014480000000001402000000000142300000000014390000000001434000000000144002892000000000000463600000000000660097500000000000000009999123100000010000000000000BRBRSRACNPB4134
012013090496BRSR6F      020BANRISUL    PNB EJ  N1   R$  000000000142000000000015240000000001351000000000142500000000014300000000001401000000000145000100000000000000003045000000000004342183000000000000009999123100000010000000000000BRBRSRACNPB4134
012013090402BTOW3       010B2W DIGITAL ON      NM   R$  000000000146000000000014980000000001442000000000147800000000014900000000001482000000000149002341000000000000692400000000001023693900000000000000009999123100000010000000000000BRBTOWACNOR8105
012013090496BTOW3F      020B2W DIGITAL ON      NM   R$  000000000140600000000014990000000001404000000000146100000000014120000000001405000000000149900033000000000000001313000000000001916906000000000000009999123100000010000000000000BRBTOWACNOR8105
012013090402BTTL4       010BATTISTELLA PN           R$  000000000010100000000001010000000000100000000000010000000000001010000000000098000000000010100003000000000000026100000000000002626100000000000000009999123100000010000000000000BRBTTLACNPR7105
012013090402BVMF3       010BMFBOVESPA  ON      NM   R$  000000000118600000000012150000000001185000000000120000000000012020000000001202000000000120324785000000000011647000000000013981646800000000000000009999123100000010000000000000BRBVMFACNOR3126
012013090496BVMF3F      020BMFBOVESPA  ON      NM   R$  000000000118900000000012100000000001183000000000119800000000011980000000001185000000000120000130000000000000004341000000000005202765000000000000009999123100000010000000000000BRBVMFACNOR3126
012013090462BVMF3T      030BMFBOVESPA  ON      NM026R$  000000000119900000000012000000000001199000000000119900000000012000000000000000000000000000000002000000000000001670000000000002002783000000000000009999123100000010000000000000BRBVMFACNOR3126
012013090462BVMF3T      030BMFBOVESPA  ON      NM030R$  000000000121100000000012160000000001209000000000121100000000012120000000000000000000000000000012000000000000776100000000000940368735000000000000009999123100000010000000000000BRBVMFACNOR3126
012013090478BVMFB12     070BVMF        ON      NM000R$  000000000014000000000001400000000000140000000000014000000000001400000000000000000000000000000001000000000000005000000000000000700000000000000120002014021700000010000000000000BRBVMFACNOR3126
012013090478BVMFB16     070BVMF        ON      NM000R$  000000000000800000000000080000000000008000000000000800000000000080000000000000000000000000000001000000000000005000000000000000040000000000000160002014021700000010000000000000BRBVMFACNOR3126
012013090478BVMFI11     070BVMF  FM    ON      NM000R$  000000000011300000000001350000000000113000000000012100000000001210000000000115000000000012400291000000000000280000000000000034140500000000000108502013091600000010000000000000BRBVMFACNOR3125
012013090478BVMFI12     070BVMF  FM    ON      NM000R$  000000000003000000000000440000000000030000000000003700000000000370000000000035000000000003800418000000000000413000000000000015504600000000000118502013091600000010000000000000BRBVMFACNOR3125
012013090478BVMFI13     070BVMF  FM    ON      NM000R$  000000000000300000000000060000000000003000000000000300000000000050000000000003000000000000500248000000000000536600000000000002112200000000000128502013091600000010000000000000BRBVMFACNOR3125
012013090478BVMFI40     070BVMF        ON      NM000R$  000000000017500000000001750000000000175000000000017500000000001750000000000100000000000000000001000000000000000800000000000000140000000000000103502013091600000010000000000000BRBVMFACNOR3125
012013090478BVMFI41     070BVMF  FM    ON      NM000R$  000000000007000000000000870000000000070000000000007700000000000760000000000000000000000008500022000000000000071600000000000005560400000000000113502013091600000010000000000000BRBVMFACNOR3125
012013090478BVMFI42     070BVMF  FM    ON      NM000R$  000000000001100000000000160000000000011000000000001200000000000130000000000005000000000001500047000000000000142500000000000001736100000000000123502013091600000010000000000000BRBVMFACNOR3125
012013090478BVMFJ11     070BVMF  FM    ON      NM000R$  000000000013400000000001470000000000134000000000013900000000001440000000000000000000000016000031000000000000032500000000000004525000000000000108502013102100000010000000000000BRBVMFACNOR3125
012013090478BVMFJ12     070BVMF  FM    ON      NM000R$  000000000005900000000000720000000000059000000000006700000000000660000000000051000000000007100158000000000000066300000000000004466900000000000118502013102100000010000000000000BRBVMFACNOR3125
012013090478BVMFJ13     070BVMF  FM    ON      NM000R$  000000000001800000000000230000000000017000000000002000000000000200000000000016000000000002400219000000000001043700000000000021111400000000000128502013102100000010000000000000BRBVMFACNOR3125
012013090478BVMFJ41     070BVMF  FM    ON      NM000R$  000000000010200000000001090000000000102000000000010600000000001050000000000000000000000000000009000000000000021300000000000002261000000000000113502013102100000010000000000000BRBVMFACNOR3125
012013090478BVMFJ42     070BVMF  FM    ON      NM000R$  000000000003700000000000440000000000037000000000003900000000000390000000000000000000000123500010000000000000024000000000000000953700000000000123502013102100000010000000000000BRBVMFACNOR3125
012013090478BVMFK13     070BVMF        ON      NM000R$  000000000003600000000000360000000000036000000000003600000000000360000000000000000000000000000001000000000000001800000000000000064800000000000128502013111800000010000000000000BRBVMFACNOR3125
012013090478BVMFK14     070BVMF        ON      NM000R$  000000000001400000000000140000000000013000000000001300000000000130000000000005000000000001300027000000000000071000000000000000963000000000000138502013111800000010000000000000BRBVMFACNOR3125
012013090482BVMFU11     080BVMFE FM    ON      NM000R$  000000000000700000000000070000000000003000000000000400000000000050000000000004000000000000600022000000000000063900000000000000315900000000000108502013091600000010000000000000BRBVMFACNOR3125
012013090482BVMFU12     080BVMFE FM    ON      NM000R$  000000000002400000000000250000000000015000000000001900000000000190000000000017000000000002100039000000000000132700000000000002565000000000000118502013091600000010000000000000BRBVMFACNOR3125
012013090482BVMFU13     080BVMFE       ON      NM000R$  000000000009200000000000920000000000092000000000009200000000000920000000000000000000000000000001000000000000002000000000000000184000000000000128502013091600000010000000000000BRBVMFACNOR3125
012013090482BVMFU40     080BVMFE FM    ON      NM000R$  000000000000200000000000020000000000001000000000000100000000000010000000000001000000000000000015000000000000036000000000000000055700000000000103502013091600000010000000000000BRBVMFACNOR3125
012013090482BVMFU41     080BVMFE FM    ON      NM000R$  000000000000800000000000080000000000008000000000000800000000000080000000000001000000000000000005000000000000007500000000000000060000000000000113502013091600000010000000000000BRBVMFACNOR3125
012013090482BVMFV11     080BVMFE FM    ON      NM000R$  000000000001400000000000140000000000014000000000001400000000000140000000000000000000000000000003000000000000003700000000000000051800000000000108502013102100000010000000000000BRBVMFACNOR3125
012013090482BVMFV12     080BVMFE FM    ON      NM000R$  000000000004800000000000480000000000036000000000004000000000000410000000000037000000000010000039000000000000111600000000000004487900000000000118502013102100000010000000000000BRBVMFACNOR3125
012013090482BVMFV13     080BVMFE       ON      NM000R$  000000000010600000000001060000000000096000000000010100000000000960000000000000000000000000000002000000000000000600000000000000060600000000000128502013102100000010000000000000BRBVMFACNOR3125
012013090482BVMFV14     080BVMFE       ON      NM000R$  000000000020000000000002000000000000200000000000020000000000002000000000000000000000000000000001000000000000001000000000000000200000000000000138502013102100000010000000000000BRBVMFACNOR3125
012013090482BVMFV41     080BVMFE FM    ON      NM000R$  000000000002400000000000240000000000022000000000002300000000000230000000000000000000000008000010000000000000023500000000000000547000000000000113502013102100000010000000000000BRBVMFACNOR3125
012013090482BVMFW42     080BVMFE       ON      NM000R$  000000000007700000000000770000000000077000000000007700000000000770000000000000000000000000000001000000000000001800000000000000138600000000000125002013111800000010000000000000BRBVMFACNOR3126
012013090402CAMB4       010CAMBUCI     PN           R$  000000000018200000000001820000000000176000000000018100000000001760000000000181000000000019000002000000000000001100000000000000199600000000000000009999123100000010000000000000BRCAMBACNPR1117
012013090402CARD3       010CSU CARDSYSTON      NM   R$  000000000032800000000003280000000000323000000000032500000000003250000000000321000000000032400005000000000000003600000000000001170700000000000000009999123100000010000000000000BRCARDACNOR9105
012013090496CARD3F      020CSU CARDSYSTON      NM   R$  000000000032400000000003240000000000324000000000032400000000003240000000000316000000000032400001000000000000000005000000000000001620000000000000009999123100000010000000000000BRCARDACNOR9105
012013090462CARD3T      030CSU CARDSYSTON      NM090R$  000000000033300000000003340000000000333000000000033300000000003340000000000000000000000000000002000000000000002400000000000000799613000000000000009999123100000010000000000000BRCARDACNOR9105
012013090496CBMA3F      020COBRASMA    ON           R$  000000000000600000000000060000000000006000000000000600000000000060000000000004000000000000600001000000000000000001000000000000000006000000000000009999123100000010000000000000BRCBMAACNOR4124
012013090408CCHI3       010CHIARELLI   ON           R$  000000000002400000000000240000000000022000000000002200000000000220000000000021000000000002300087000000000001220000000000000027720000000000000000009999123100000010000000000000BRCCHIACNOR5123
012013090496CCHI3F      020CHIARELLI   ON           R$  000000000002400000000000240000000000023000000000002300000000000230000000000018000000000002300004000000000000012500000000000000291500000000000000009999123100000010000000000000BRCCHIACNOR5123
012013090462CCHI3T      030CHIARELLI   ON        047R$  000000000002400000000000250000000000024000000000002400000000000250000000000000000000000000000002000000000000030000000000000000727704000000000000009999123100000010000000000000BRCCHIACNOR5123
012013090408CCHI4       010CHIARELLI   PN           R$  000000000001900000000000200000000000019000000000001900000000000200000000000018000000000002200005000000000000050000000000000000980000000000000000009999123100000010000000000000BRCCHIACNPR2122
012013090402CCPR3       010CYRE COM-CCPON      NM   R$  000000000209900000000021480000000002099000000000213000000000021480000000002131000000000229900015000000000000002500000000000005326800000000000000009999123100000010000000000000BRCCPRACNOR9107
012013090496CCPR3F      020CYRE COM-CCPON      NM   R$  000000000208500000000021270000000002057000000000209600000000020570000000002057000000000228800003000000000000000028000000000000058702000000000000009999123100000010000000000000BRCCPRACNOR9107
012013090402CCRO3       010CCR SA      ON      NM   R$  000000000172000000000017400000000001720000000000173100000000017390000000001733000000000173911412000000000004680200000000008103271100000000000000009999123100000010000000000000BRCCROACNOR2122
012013090496CCRO3F      020CCR SA      ON      NM   R$  000000000172200000000017500000000001714000000000173100000000017350000000001735000000000178000057000000000000001703000000000002949693000000000000009999123100000010000000000000BRCCROACNOR2122
012013090402CCXC3       010CCX CARVAO  ON      NM   R$  000000000014800000000001610000000000140000000000015200000000001430000000000142000000000014302049000000000011616000000000001766756600000000000000009999123100000010000000000000BRCCXCACNOR5100
012013090496CCXC3F      020CCX CARVAO  ON      NM   R$  000000000015000000000001590000000000136000000000014900000000001460000000000136000000000014600036000000000000001355000000000000202234000000000000009999123100000010000000000000BRCCXCACNOR5100
012013090462CCXC3T      030CCX CARVAO  ON      NM061R$  000000000015500000000001560000000000154000000000015400000000001550000000000000000000000000000004000000000000200000000000000030917850000000000000009999123100000010000000000000BRCCXCACNOR5100
012013090402CEBR5       010CEB         PNA          R$  000000000185000000000018500000000001850000000000185000000000018500000000001850000000000270000002000000000000004200000000000007770000000000000000009999123100000010000000000000BRCEBRACNPA8113
012013090402CEBR6       010CEB         PNB          R$  000000000157700000000015770000000001550000000000156300000000015500000000001500000000000157800002000000000000000200000000000000312700000000000000009999123100000010000000000000BRCEBRACNPB6113
012013090402CEDO3       010CEDRO       ON      N1   R$  000000000097000000000009700000000000970000000000097000000000009700000000000960000000000101000001000000000000000300000000000000291000000000000000009999123100000010000000000000BRCEDOACNOR8094
012013090412CEOC11B     010FII CEO CCP CI      MB   R$  000000000875000000000087500000000008650000000000868900000000086800000000008670000000000868000028000000000000001893000000000016450125000000000000009999123100000010000000000000BRCEOCCTF003109
012013090402CEPE5       010CELPE       PNA          R$  000000000185000000000018500000000001850000000000185000000000018500000000001851000000000200000001000000000000000300000000000000555000000000000000009999123100000010000000000000BRCEPEACNPA6151
012013090402CESP3       010CESP        ON      N1   R$  000000000173500000000017400000000001735000000000173500000000017400000000001690000000000174000004000000000000003000000000000005206600000000000000009999123100000010000000000000BRCESPACNOR3160
012013090462CESP3T      030CESP        ON      N1061R$  000000000176300000000017640000000001763000000000176300000000017640000000000000000000000000000002000000000000002300000000000004055146000000000000009999123100000010000000000000BRCESPACNOR3160
012013090402CESP6       010CESP        PNB     N1   R$  000000000219900000000022150000000002173000000000219200000000022020000000002200000000000220702965000000000001270400000000002785900100000000000000009999123100000010000000000000BRCESPACNPB4119
012013090496CESP6F      020CESP        PNB     N1   R$  000000000214100000000022150000000002141000000000219300000000021810000000002181000000000221900026000000000000000724000000000001587531000000000000009999123100000010000000000000BRCESPACNPB4119
012013090462CESP6T      030CESP        PNB     N1030R$  000000000220200000000022030000000002202000000000220200000000022030000000000000000000000000000002000000000000007000000000000015415235000000000000009999123100000010000000000000BRCESPACNPB4119
012013090482CESPV17     080CESPE       PNB     N1000R$  000000000000300000000000030000000000003000000000000300000000000030000000000000000000000000000001000000000000400000000000000001200000000000000170002013102100000010000000000000BRCESPACNPB4119
012013090482CESPV20     080CESPE       PNB     N1000R$  000000000002400000000000240000000000024000000000002400000000000240000000000000000000000000000001000000000000400000000000000009600000000000000200002013102100000010000000000000BRCESPACNPB4119
012013090402CGAS3       010COMGAS      ON           R$  000000000519700000000051970000000005100000000000511200000000051000000000005100000000000519800008000000000000000800000000000004089900000000000000009999123100000010000000000000BRCGASACNOR0132
012013090402CGAS5       010COMGAS      PNA          R$  000000000550200000000056990000000005502000000000565200000000056300000000005608000000000563000268000000000000041300000000000233428200000000000000009999123100000010000000000000BRCGASACNPA3129
012013090496CGAS5F      020COMGAS      PNA          R$  000000000557900000000056700000000005579000000000564700000000056350000000005700000000000589900011000000000000000277000000000001564479000000000000009999123100000010000000000000BRCGASACNPA3129
012013090402CGRA4       010GRAZZIOTIN  PN           R$  000000000170200000000017040000000001681000000000169900000000017000000000001674000000000170100008000000000000001200000000000002038900000000000000009999123100000010000000000000BRCGRAACNPR9061
012013090496CGRA4F      020GRAZZIOTIN  PN           R$  000000000168100000000016810000000001681000000000168100000000016810000000001680000000000180000001000000000000000006000000000000010086000000000000009999123100000010000000000000BRCGRAACNPR9061
012013090402CIEL3       010CIELO       ON      NM   R$  000000000576900000000057800000000005724000000000574600000000057350000000005735000000000573706907000000000001532700000000008807272500000000000000009999123100000010000000000000BRCIELACNOR3111
012013090496CIEL3F      020CIELO       ON      NM   R$  000000000577500000000057750000000005725000000000574500000000057460000000005710000000000575000174000000000000004135000000000023759659000000000000009999123100000010000000000000BRCIELACNOR3111
012013090482CIELU56     080CIELE       ON      NM000R$  000000000004700000000000470000000000047000000000004700000000000470000000000000000000000000000002000000000000010000000000000000470000000000000560002013091600000010000000000000BRCIELACNOR3111
012013090402CLSC4       010CELESC      PN      N2   R$  000000000178500000000017850000000001755000000000176000000000017560000000001756000000000176000014000000000000002200000000000003872100000000000000009999123100000010000000000000BRCLSCACNPR3107
012013090402CMIG3       010CEMIG       ON      N1   R$  000000000182800000000018330000000001823000000000182600000000018260000000001826000000000183000274000000000000327500000000000598023500000000000000009999123100000010000000000000BRCMIGACNOR6208
012013090496CMIG3F      020CEMIG       ON      N1   R$  000000000187500000000018760000000001823000000000183500000000018230000000001830000000000187600049000000000000001246000000000002287453000000000000009999123100000010000000000000BRCMIGACNOR6208
012013090462CMIG3T      030CEMIG       ON      N1061R$  000000000185000000000018510000000001850000000000185000000000018510000000000000000000000000000002000000000000001000000000000001850630000000000000009999123100000010000000000000BRCMIGACNOR6208
012013090462CMIG3T      030CEMIG       ON      N1090R$  000000000186800000000018690000000001868000000000186800000000018690000000000000000000000000000002000000000000001000000000000001868352000000000000009999123100000010000000000000BRCMIGACNOR6208
012013090402CMIG4       010CEMIG       PN      N1   R$  000000000186200000000018660000000001833000000000184400000000018330000000001833000000000183908417000000000003072500000000005667081500000000000000009999123100000010000000000000BRCMIGACNPR3208
012013090496CMIG4F      020CEMIG       PN      N1   R$  000000000187400000000018790000000001830000000000185000000000018300000000001830000000000187900281000000000000007194000000000013312062000000000000009999123100000010000000000000BRCMIGACNPR3208
012013090462CMIG4T      030CEMIG       PN      N1030R$  000000000185300000000018540000000001845000000000184600000000018460000000000000000000000000000004000000000000020500000000000037843244000000000000009999123100000010000000000000BRCMIGACNPR3208
012013090462CMIG4T      030CEMIG       PN      N1050R$  000000000186200000000018630000000001862000000000186200000000018630000000000000000000000000000002000000000000010000000000000018628160000000000000009999123100000010000000000000BRCMIGACNPR3208
012013090462CMIG4T      030CEMIG       PN      N1061R$  000000000188700000000018880000000001864000000000187100000000018650000000000000000000000000000006000000000000004400000000000008234701000000000000009999123100000010000000000000BRCMIGACNPR3208
012013090462CMIG4T      030CEMIG       PN      N1090R$  000000000189300000000018940000000001893000000000189300000000018940000000000000000000000000000004000000000000001128000000000002136277000000000000009999123100000010000000000000BRCMIGACNPR3208
012013090462CMIG4T      030CEMIG       PN      N1120R$  000000000189700000000018980000000001897000000000189700000000018980000000000000000000000000000002000000000000000300000000000000569338000000000000009999123100000010000000000000BRCMIGACNPR3208
012013090478CMIGJ19     070CMIG        PN      N1000R$  000000000005100000000000600000000000050000000000005300000000000500000000000043000000000007900038000000000000093300000000000004950800000000000190002013102100000010000000000000BRCMIGACNPR3208
012013090412CNES11B     010FII CENESP  CI      MB   R$  000000001249300000000124940000000012400000000001246700000000124000000000012400000000001249400005000000000000000051000000000000635863000000000000009999123100000010000000000000BRCNESCTF001125
012013090402COCE3       010COELCE      ON           R$  000000000415000000000041930000000004102000000000414400000000041490000000004010000000000414900028000000000000007200000000000029841100000000000000009999123100000010000000000000BRCOCEACNOR0132
012013090402COCE5       010COELCE      PNA          R$  000000000409000000000041190000000004012000000000407300000000040210000000004021000000000407200225000000000000044600000000000181700200000000000000009999123100000010000000000000BRCOCEACNPA3133
012013090496COCE5F      020COELCE      PNA          R$  000000000410000000000041090000000004065000000000409000000000040650000000004020000000000419800014000000000000000140000000000000572657000000000000009999123100000010000000000000BRCOCEACNPA3133
012013090402CPFE3       010CPFL ENERGIAON      NM   R$  000000000193400000000019520000000001919000000000193900000000019500000000001939000000000195003168000000000000743000000000001441288900000000000000009999123100000010000000000000BRCPFEACNOR0122
012013090496CPFE3F      020CPFL ENERGIAON      NM   R$  000000000194800000000019500000000001920000000000193800000000019450000000001960000000000200000073000000000000002536000000000004916623000000000000009999123100000010000000000000BRCPFEACNOR0122
012013090402CPLE3       010COPEL       ON      N1   R$  000000000211000000000021500000000002110000000000212700000000021380000000002136000000000213800034000000000000008200000000000017445400000000000000009999123100000010000000000000BRCPLEACNOR8128
012013090496CPLE3F      020COPEL       ON      N1   R$  000000000212500000000021250000000002125000000000212500000000021250000000002090000000000212000003000000000000000014000000000000029750000000000000009999123100000010000000000000BRCPLEACNOR8128
012013090402CPLE6       010COPEL       PNB     N1   R$  000000000292300000000029800000000002905000000000295900000000029700000000002959000000000297002467000000000000446400000000001320962600000000000000009999123100000010000000000000BRCPLEACNPB9125
012013090496CPLE6F      020COPEL       PNB     N1   R$  000000000292000000000029730000000002901000000000293900000000029450000000002900000000000305000015000000000000000521000000000001531779000000000000009999123100000010000000000000BRCPLEACNPB9125
012013090402CPRE3       010CPFL RENOVAVON      NM   R$  000000000119900000000011990000000001170000000000118000000000011700000000001170000000000120400008000000000000001200000000000001416000000000000000009999123100000010000000000000BRCPREACNOR5100
012013090496CPRE3F      020CPFL RENOVAVON      NM   R$  000000000119100000000011910000000001191000000000119100000000011910000000001073000000000119100002000000000000000032000000000000038112000000000000009999123100000010000000000000BRCPREACNOR5100
012013090402CRDE3       010CR2         ON      NM   R$  000000000041600000000004180000000000415000000000041500000000004150000000000415000000000042400008000000000000011200000000000004658000000000000000009999123100000010000000000000BRCRDEACNOR1108
012013090402CREM3       010CREMER      ON  EJ  NM   R$  000000000141100000000014110000000001385000000000139400000000013850000000001385000000000141000032000000000000006600000000000009202200000000000000009999123100000010000000000000BRCREMACNOR2167
012013090496CREM3F      020CREMER      ON  EJ  NM   R$  000000000149000000000014900000000001359000000000141600000000013590000000001359000000000149800003000000000000000108000000000000153012000000000000009999123100000010000000000000BRCREMACNOR2167
012013090402CRIV4       010ALFA FINANC PN           R$  000000000045000000000004500000000000450000000000045000000000004500000000000442000000000045000006000000000000002200000000000000990000000000000000009999123100000010000000000000BRCRIVACNPR1190
012013090496CRIV4F      020ALFA FINANC PN           R$  000000000049000000000004900000000000490000000000049000000000004900000000000442000000000049000001000000000000000018000000000000008820000000000000009999123100000010000000000000BRCRIVACNPR1190
012013090402CRUZ3       010SOUZA CRUZ  ON           R$  000000000248700000000025200000000002434000000000246100000000024520000000002451000000000245206750000000000002112000000000005199087000000000000000009999123100000010000000000000BRCRUZACNOR0246
012013090496CRUZ3F      020SOUZA CRUZ  ON           R$  000000000249500000000025150000000002439000000000246900000000024390000000002434000000000243900107000000000000002179000000000005379576000000000000009999123100000010000000000000BRCRUZACNOR0246
012013090462CRUZ3T      030SOUZA CRUZ  ON        030R$  000000000252100000000025220000000002472000000000251800000000024730000000000000000000000000000004000000000000008500000000000021408393000000000000009999123100000010000000000000BRCRUZACNOR0246
012013090462CRUZ3T      030SOUZA CRUZ  ON        061R$  000000000249400000000024950000000002477000000000248400000000024780000000000000000000000000000004000000000000000500000000000001242210000000000000009999123100000010000000000000BRCRUZACNOR0246
012013090462CRUZ3T      030SOUZA CRUZ  ON        065R$  000000000254300000000025440000000002543000000000254300000000025440000000000000000000000000000002000000000000000500000000000001271789000000000000009999123100000010000000000000BRCRUZACNOR0246
012013090462CRUZ3T      030SOUZA CRUZ  ON        152R$  000000000255900000000025600000000002559000000000255900000000025600000000000000000000000000000004000000000000002000000000000005118654000000000000009999123100000010000000000000BRCRUZACNOR0246
012013090462CRUZ3T      030SOUZA CRUZ  ON        182R$  000000000258000000000025810000000002580000000000258000000000025810000000000000000000000000000004000000000000002000000000000005161440000000000000009999123100000010000000000000BRCRUZACNOR0246
012013090402CSAN3       010COSAN       ON      NM   R$  000000000408400000000041990000000004045000000000413800000000041700000000004170000000000417105304000000000001449400000000005998189100000000000000009999123100000010000000000000BRCSANACNOR6108
012013090496CSAN3F      020COSAN       ON      NM   R$  000000000410000000000042240000000004051000000000412500000000041250000000004125000000000413000034000000000000000802000000000003308351000000000000009999123100000010000000000000BRCSANACNOR6108
012013090462CSAN3T      030COSAN       ON      NM016R$  000000000410000000000041010000000004100000000000410000000000041010000000000000000000000000000002000000000000000300000000000001230045000000000000009999123100000010000000000000BRCSANACNOR6108
012013090462CSAN3T      030COSAN       ON      NM090R$  000000000418700000000041880000000004187000000000418700000000041880000000000000000000000000000002000000000000002100000000000008792992000000000000009999123100000010000000000000BRCSANACNOR6108
012013090402CSMG3       010COPASA      ON      NM   R$  000000000293200000000029870000000002927000000000296800000000029750000000002975000000000297901390000000000000211200000000000626928200000000000000009999123100000010000000000000BRCSMGACNOR5127
012013090496CSMG3F      020COPASA      ON      NM   R$  000000000294500000000029800000000002927000000000294900000000029740000000002887000000000301000011000000000000000322000000000000949861000000000000009999123100000010000000000000BRCSMGACNOR5127
012013090462CSMG3T      030COPASA      ON      NM030R$  000000000299800000000029990000000002998000000000299800000000029990000000000000000000000000000020000000000000010000000000000029981370000000000000009999123100000010000000000000BRCSMGACNOR5127
012013090462CSMG3T      030COPASA      ON      NM061R$  000000000298800000000029890000000002988000000000298800000000029890000000000000000000000000000002000000000000000100000000000000298803000000000000009999123100000010000000000000BRCSMGACNOR5127
012013090414CSMO11      010ISHARES CSMOCI           R$  000000000460000000000046000000000004600000000000460000000000046000000000003800000000000470000001000000000000000060000000000000276000000000000000009999123100000010000000000000BRCSMOCTF002100
012013090402CSNA3       010SID NACIONALON           R$  000000000088400000000009120000000000875000000000089700000000009080000000000908000000000090915094000000000009145000000000008209666200000000000000009999123100000010000000000000BRCSNAACNOR6243
012013090496CSNA3F      020SID NACIONALON           R$  000000000088200000000009100000000000875000000000089400000000009000000000000895000000000090800090000000000000002876000000000002572616000000000000009999123100000010000000000000BRCSNAACNOR6243
012013090462CSNA3T      030SID NACIONALON        016R$  000000000089100000000008920000000000891000000000089100000000008920000000000000000000000000000002000000000000010000000000000008917296000000000000009999123100000010000000000000BRCSNAACNOR6243
012013090462CSNA3T      030SID NACIONALON        030R$  000000000091400000000009160000000000909000000000091400000000009100000000000000000000000000000006000000000000023000000000000021036435000000000000009999123100000010000000000000BRCSNAACNOR6243
012013090462CSNA3T      030SID NACIONALON        061R$  000000000089600000000008970000000000896000000000089600000000008970000000000000000000000000000002000000000000003000000000000002688598000000000000009999123100000010000000000000BRCSNAACNOR6243
012013090462CSNA3T      030SID NACIONALON        090R$  000000000090200000000009030000000000902000000000090200000000009030000000000000000000000000000002000000000000024000000000000021648806000000000000009999123100000010000000000000BRCSNAACNOR6243
012013090462CSNA3T      030SID NACIONALON        182R$  000000000094200000000009430000000000942000000000094200000000009430000000000000000000000000000002000000000000011800000000000011124819000000000000009999123100000010000000000000BRCSNAACNOR6243
012013090478CSNAI10     070CSNA        ON        000R$  000000000000300000000000060000000000003000000000000300000000000050000000000003000000000000600004000000000000031000000000000000116000000000000100002013091600000010000000000000BRCSNAACNOR6243
012013090478CSNAI6      070CSNA        ON        000R$  000000000031500000000003150000000000315000000000031500000000003150000000000000000000000000000001000000000000000600000000000000189000000000000058002013091600000010000000000000BRCSNAACNOR6242
012013090478CSNAI8      070CSNA        ON        000R$  000000000010500000000001260000000000105000000000011900000000001260000000000050000000000000000011000000000000006900000000000000826100000000000078002013091600000010000000000000BRCSNAACNOR6242
012013090478CSNAI80     070CSNA  FM    ON        000R$  000000000005000000000000640000000000050000000000006100000000000610000000000000000000000000000005000000000000009000000000000000552000000000000086002013091600000010000000000000BRCSNAACNOR6243
012013090478CSNAI84     070CSNA        ON        000R$  000000000006100000000000840000000000061000000000007700000000000800000000000011000000000000000009000000000000018000000000000001389000000000000084002013091600000010000000000000BRCSNAACNOR6243
012013090478CSNAI88     070CSNA  FM    ON        000R$  000000000003900000000000490000000000037000000000004000000000000480000000000033000000000000000046000000000000108700000000000004439600000000000088002013091600000010000000000000BRCSNAACNOR6243
012013090478CSNAI9      070CSNA  FM    ON        000R$  000000000002600000000000360000000000025000000000003100000000000360000000000025000000000003700025000000000000047200000000000001508000000000000090002013091600000010000000000000BRCSNAACNOR6243
012013090478CSNAI92     070CSNA  FM    ON        000R$  000000000001800000000000270000000000018000000000002500000000000260000000000018000000000000000022000000000000076500000000000001913200000000000092002013091600000010000000000000BRCSNAACNOR6243
012013090478CSNAI94     070CSNA  FM    ON        000R$  000000000001500000000000170000000000015000000000001500000000000170000000000011000000000004000002000000000000009500000000000000149500000000000094002013091600000010000000000000BRCSNAACNOR6243
012013090478CSNAI96     070CSNA        ON        000R$  000000000000900000000000100000000000009000000000000900000000000100000000000001000000000000000002000000000000002100000000000000019000000000000096002013091600000010000000000000BRCSNAACNOR6243
012013090478CSNAI98     070CSNA        ON        000R$  000000000000800000000000080000000000008000000000000800000000000080000000000000000000000000000002000000000000000400000000000000003200000000000098002013091600000010000000000000BRCSNAACNOR6243
012013090478CSNAJ10     070CSNA        ON        000R$  000000000002300000000000240000000000023000000000002300000000000240000000000000000000000002600002000000000000008000000000000000188000000000000100002013102100000010000000000000BRCSNAACNOR6243
012013090478CSNAJ20     070CSNA        ON        000R$  000000000001900000000000190000000000019000000000001900000000000190000000000000000000000000000001000000000000004000000000000000076000000000000102002013102100000010000000000000BRCSNAACNOR6243
012013090478CSNAJ40     070CSNA        ON        000R$  000000000001500000000000150000000000015000000000001500000000000150000000000000000000000000000001000000000000002000000000000000030000000000000104002013102100000010000000000000BRCSNAACNOR6243
012013090478CSNAJ60     070CSNA        ON        000R$  000000000001200000000000130000000000012000000000001200000000000130000000000000000000000000000003000000000000009000000000000000112000000000000106002013102100000010000000000000BRCSNAACNOR6243
012013090478CSNAJ8      070CSNA        ON        000R$  000000000012500000000001480000000000125000000000014000000000001480000000000000000000000000000009000000000000003400000000000000476600000000000078002013102100000010000000000000BRCSNAACNOR6242
012013090478CSNAJ86     070CSNA  FM    ON        000R$  000000000009200000000000960000000000092000000000009300000000000960000000000000000000000000000007000000000000029300000000000002752800000000000084002013102100000010000000000000BRCSNAACNOR6242
012013090478CSNAJ9      070CSNA  FM    ON        000R$  000000000006500000000000770000000000064000000000007100000000000750000000000000000000000000000055000000000000110900000000000007983900000000000088002013102100000010000000000000BRCSNAACNOR6242
012013090478CSNAJ92     070CSNA  FM    ON        000R$  000000000004700000000000530000000000046000000000004800000000000530000000000000000000000000000058000000000000066200000000000003243700000000000092002013102100000010000000000000BRCSNAACNOR6243
012013090478CSNAJ93     070CSNAE       ON        000R$  000000000001000000000000400000000000010000000000001000000000000400000000000000000000000000000008000000000000025800000000000000272900000000000093002013102100000010000000000000BRCSNAACNOR6243
012013090478CSNAJ94     070CSNA  FM    ON        000R$  000000000004300000000000470000000000040000000000004400000000000440000000000000000000000004400022000000000000044900000000000001981500000000000094002013102100000010000000000000BRCSNAACNOR6243
012013090478CSNAJ98     070CSNA        ON        000R$  000000000002900000000000290000000000029000000000002900000000000290000000000003000000000000000001000000000000004000000000000000116000000000000098002013102100000010000000000000BRCSNAACNOR6243
012013090478CSNAK96     070CSNA        ON        000R$  000000000004700000000000510000000000047000000000004800000000000510000000000000000000000000000008000000000000000800000000000000038800000000000096002013111800000010000000000000BRCSNAACNOR6243
012013090482CSNAU62     080CSNAE       ON        000R$  000000000000100000000000010000000000001000000000000100000000000010000000000000000000000000000001000000000000000500000000000000000500000000000060002013091600000010000000000000BRCSNAACNOR6242
012013090482CSNAU74     080CSNAE       ON        000R$  000000000000200000000000020000000000002000000000000200000000000020000000000000000000000000000002000000000000002100000000000000004200000000000072002013091600000010000000000000BRCSNAACNOR6242
012013090482CSNAU76     080CSNAE       ON        000R$  000000000000300000000000030000000000003000000000000300000000000030000000000000000000000000000001000000000000001200000000000000003600000000000074002013091600000010000000000000BRCSNAACNOR6242
012013090482CSNAU78     080CSNAE       ON        000R$  000000000000400000000000040000000000004000000000000400000000000040000000000000000000000000000006000000000000005100000000000000020400000000000076002013091600000010000000000000BRCSNAACNOR6242
012013090482CSNAU8      080CSNAE       ON        000R$  000000000000500000000000060000000000002000000000000500000000000020000000000001000000000001800027000000000000086100000000000000487200000000000078002013091600000010000000000000BRCSNAACNOR6242
012013090482CSNAU80     080CSNAE FM    ON        000R$  000000000001500000000000150000000000015000000000001500000000000150000000000000000000000000000001000000000000001000000000000000015000000000000086002013091600000010000000000000BRCSNAACNOR6243
012013090482CSNAU82     080CSNAE       ON        000R$  000000000000600000000000080000000000005000000000000600000000000050000000000000000000000000000013000000000000006400000000000000040200000000000080002013091600000010000000000000BRCSNAACNOR6242
012013090482CSNAU84     080CSNAE FM    ON        000R$  000000000001100000000000110000000000009000000000001000000000000110000000000008000000000003000006000000000000012500000000000000127500000000000084002013091600000010000000000000BRCSNAACNOR6243
012013090482CSNAU88     080CSNAE FM    ON        000R$  000000000003500000000000350000000000019000000000002400000000000190000000000000000000000003000046000000000000085000000000000002044000000000000088002013091600000010000000000000BRCSNAACNOR6243
012013090482CSNAU9      080CSNAE FM    ON        000R$  000000000004400000000000440000000000025000000000003100000000000280000000000023000000000003000035000000000000079800000000000002539100000000000090002013091600000010000000000000BRCSNAACNOR6243
012013090482CSNAU94     080CSNAE       ON        000R$  000000000005600000000000560000000000056000000000005600000000000560000000000000000000000000000001000000000000002000000000000000112000000000000094002013091600000010000000000000BRCSNAACNOR6243
012013090482CSNAV6      080CSNAE       ON        000R$  000000000000700000000000070000000000005000000000000500000000000060000000000000000000000001000340000000000000034000000000000000183900000000000058002013102100000010000000000000BRCSNAACNOR6242
012013090482CSNAV7      080CSNAE       ON        000R$  000000000000700000000000070000000000003000000000000400000000000030000000000000000000000002100340000000000000068000000000000000288800000000000068002013102100000010000000000000BRCSNAACNOR6242
012013090482CSNAV8      080CSNAE       ON        000R$  000000000002800000000000280000000000018000000000002000000000000210000000000019000000000003400368000000000000054000000000000001089300000000000078002013102100000010000000000000BRCSNAACNOR6242
012013090482CSNAV86     080CSNAE FM    ON        000R$  000000000003300000000000330000000000033000000000003300000000000330000000000000000000000000000001000000000000000800000000000000026400000000000084002013102100000010000000000000BRCSNAACNOR6242
012013090482CSNAV9      080CSNAE FM    ON        000R$  000000000005200000000000520000000000040000000000004400000000000400000000000036000000000000000055000000000000107500000000000004817500000000000088002013102100000010000000000000BRCSNAACNOR6242
012013090402CTAX11      010CONTAX      UNT     N2   R$  000000000184500000000018450000000001784000000000180800000000018300000000001824000000000183000136000000000000067100000000000121330400000000000000009999123100000010000000000000BRCTAXCDAM19100
012013090496CTAX11F     020CONTAX      UNT     N2   R$  000000000167000000000017960000000001670000000000177100000000017700000000001669000000000180000007000000000000000218000000000000386144000000000000009999123100000010000000000000BRCTAXCDAM19100
012013090402CTAX3       010CONTAX      ON      N2   R$  000000000034900000000003690000000000349000000000035700000000003590000000000359000000000040000018000000000000004000000000000001429600000000000000009999123100000010000000000000BRCTAXACNOR3113
012013090496CTAX3F      020CONTAX      ON      N2   R$  000000000036500000000003650000000000365000000000036500000000003650000000000355000000000036900003000000000000000100000000000000036500000000000000009999123100000010000000000000BRCTAXACNOR3113
012013090402CTAX4       010CONTAX      PN      N2   R$  000000000037200000000003720000000000349000000000035800000000003570000000000357000000000036100076000000000000059100000000000021209700000000000000009999123100000010000000000000BRCTAXACNPR0114
012013090496CTAX4F      020CONTAX      PN      N2   R$  000000000035500000000004070000000000355000000000036100000000004060000000000346000000000040600007000000000000000268000000000000096968000000000000009999123100000010000000000000BRCTAXACNPR0114
012013090402CTIP3       010CETIP       ON      NM   R$  000000000234900000000023580000000002330000000000234100000000023400000000002336000000000234105502000000000001619300000000003791641500000000000000009999123100000010000000000000BRCTIPACNOR2119
012013090496CTIP3F      020CETIP       ON      NM   R$  000000000234400000000023680000000002283000000000233400000000023420000000002282000000000234200030000000000000000966000000000002255558000000000000009999123100000010000000000000BRCTIPACNOR2119
012013090478CTIPJ24     070CTIP        ON      NM000R$  000000000005900000000000700000000000059000000000006200000000000700000000000000000000000000000003000000000000012300000000000000769900000000000240002013102100000010000000000000BRCTIPACNOR2119
012013090402CTKA4       010KARSTEN     PN           R$  000000000008300000000000890000000000083000000000008300000000000890000000000084000000000008900004000000000000002600000000000000216400000000000000009999123100000010000000000000BRCTKAACNPR7041
012013090402CTNM4       010COTEMINAS   PN           R$  000000000022000000000002200000000000210000000000021300000000002200000000000215000000000022000027000000000000042700000000000009131700000000000000009999123100000010000000000000BRCTNMACNPR6128
012013090402CTSA4       010SANTANENSE  PN           R$  000000000057000000000005700000000000560000000000056900000000005600000000000540000000000058000005000000000000001100000000000000626000000000000000009999123100000010000000000000BRCTSAACNPR0051
012013090496CTSA4F      020SANTANENSE  PN           R$  000000000057000000000005700000000000570000000000057000000000005700000000000550000000000057000002000000000000000060000000000000034200000000000000009999123100000010000000000000BRCTSAACNPR0051
012013090412CXTL11      010FII CX TRX  CI  ER       R$  000000007500100000000750010000000075001000000007500100000000750010000000075000000000007790000006000000000000000160000000000012000160000000000000009999123100000010000000000000BRCXTLCTF003122
012013090402CYRE3       010CYRELA REALTON      NM   R$  000000000158100000000015970000000001571000000000158300000000015800000000001579000000000158006217000000000002299700000000003642074700000000000000009999123100000010000000000000BRCYREACNOR7125
012013090496CYRE3F      020CYRELA REALTON      NM   R$  000000000157000000000015990000000001560000000000158200000000015600000000001560000000000159800025000000000000000742000000000001174487000000000000009999123100000010000000000000BRCYREACNOR7125
012013090478CYREI16     070CYRE  FM    ON      NM000R$  000000000003400000000000340000000000024000000000003100000000000270000000000000000000000000000022000000000000060700000000000001936300000000000160002013091600000010000000000000BRCYREACNOR7125
012013090478CYREI17     070CYRE  FM    ON      NM000R$  000000000000600000000000060000000000006000000000000600000000000060000000000000000000000001700001000000000000003500000000000000021000000000000170002013091600000010000000000000BRCYREACNOR7125
012013090478CYREI45     070CYRE  FM    ON      NM000R$  000000000006300000000000650000000000051000000000005700000000000510000000000000000000000000000006000000000000016700000000000000960800000000000155002013091600000010000000000000BRCYREACNOR7125
012013090478CYREI46     070CYRE  FM    ON      NM000R$  000000000001000000000000100000000000010000000000001000000000000100000000000000000000000000000003000000000000010500000000000000105000000000000165002013091600000010000000000000BRCYREACNOR7125
012013090478CYREJ16     070CYRE  FM    ON      NM000R$  000000000007500000000000760000000000066000000000007300000000000660000000000000000000000000000045000000000000059300000000000004337900000000000160002013102100000010000000000000BRCYREACNOR7125
012013090478CYREJ17     070CYRE  FM    ON      NM000R$  000000000003800000000000380000000000029000000000003500000000000290000000000000000000000000000002000000000000002700000000000000096300000000000170002013102100000010000000000000BRCYREACNOR7125
012013090478CYREJ45     070CYRE  FM    ON      NM000R$  000000000010100000000001010000000000092000000000009600000000000920000000000000000000000000000003000000000000004500000000000000432000000000000155002013102100000010000000000000BRCYREACNOR7125
012013090478CYREJ46     070CYRE  FM    ON      NM000R$  000000000005100000000000510000000000042000000000004800000000000420000000000000000000000000000003000000000000010200000000000000491400000000000165002013102100000010000000000000BRCYREACNOR7125
012013090478CYREJ48     070CYRE        ON      NM000R$  000000000000900000000000090000000000009000000000000900000000000090000000000000000000000000000001000000000000004500000000000000040500000000000185002013102100000010000000000000BRCYREACNOR7125
012013090478CYREJ57     070CYREE       ON      NM000R$  000000000002500000000000250000000000025000000000002500000000000250000000000000000000000000000002000000000000004500000000000000112500000000000172502013102100000010000000000000BRCYREACNOR7125
