00COTAHIST.2013BOVESPA 20131024                                                                                                                                                                                                                      
012013102402AAPL34      010APPLE       DRN          R$  000000001175000000000117500000000011645000000001166600000000116450000000011645000000001178000002000000000000000500000000000005833000000000000000009999123100000010000000000000BRAAPLBDR004105
012013102402ABCB4       010ABC BRASIL  PN      N2   R$  000000000132100000000013730000000001314000000000132800000000013500000000001345000000000135001099000000000000175700000000000233409900000000000000009999123100000010000000000000BRABCBACNPR4120
012013102496ABCB4F      020ABC BRASIL  PN      N2   R$  000000000132500000000013480000000001303000000000133300000000013480000000001304000000000135000020000000000000000234000000000000311972000000000000009999123100000010000000000000BRABCBACNPR4120
012013102402ABRE11      010ABRIL EDUCA UNT     N2   R$  000000000314000000000031560000000003093000000000312200000000031450000000003118000000000314500287000000000000054800000000000171116400000000000000009999123100000010000000000000BRABRECDAM15102
012013102496ABRE11F     020ABRIL EDUCA UNT     N2   R$  000000000312000000000031890000000003108000000000311200000000031240000000003100000000000314000007000000000000000146000000000000454374000000000000009999123100000010000000000000BRABRECDAM15102
012013102402ABTT34      010ABBOTT      DRN          R$  000000000207000000000020700000000002070000000000207000000000020700000000002030000000000207000001000000000000000400000000000000828000000000000000009999123100000010000000000000BRABTTBDR007108
012013102402AEDU3       010ANHANGUERA  ON      NM   R$  000000000130800000000013260000000001294000000000130700000000013070000000001306000000000130706096000000000003660900000000004785947900000000000000009999123100000010000000000000BRAEDUACNOR9107
012013102496AEDU3F      020ANHANGUERA  ON      NM   R$  000000000131700000000013170000000001298000000000130600000000013170000000001290000000000131800009000000000000000229000000000000299088000000000000009999123100000010000000000000BRAEDUACNOR9107
012013102462AEDU3T      030ANHANGUERA  ON      NM120R$  000000000133800000000013460000000001334000000000134000000000013430000000000000000000000000000018000000000000440100000000000590063281000000000000009999123100000010000000000000BRAEDUACNOR9107
012013102412AEFI11      010FII AESAPAR CI           R$  000000001215000000000122350000000012150000000001215500000000121850000000012160000000001216500019000000000000000934000000000011353700000000000000009999123100000010000000000000BRAEFICTF002122
012013102402AELP3       010AES ELPA    ON           R$  000000000099400000000009940000000000951000000000097100000000009790000000000941000000000098700013000000000000003500000000000003399100000000000000009999123100000010000000000000BRAELPACNOR2119
012013102412AGCX11      010FII AG CAIXACI           R$  000000009450000000000948000000000094500000000009470700000000948000000000094500000000009480000010000000000000000120000000000011364900000000000000009999123100000010000000000000BRAGCXCTF003111
012013102402AGRO3       010BRASILAGRO  ON      NM   R$  000000000101000000000010130000000000999000000000100300000000010130000000001008000000000101300063000000000000084700000000000085004800000000000000009999123100000010000000000000BRAGROACNOR7102
012013102402ALLL3       010ALL AMER LATON      NM   R$  000000000084300000000008520000000000823000000000082900000000008230000000000823000000000082705200000000000002706200000000002245773600000000000000009999123100000010000000000000BRALLLACNOR6118
012013102496ALLL3F      020ALL AMER LATON      NM   R$  000000000084000000000008670000000000823000000000083100000000008230000000000822000000000086800036000000000000001022000000000000848979000000000000009999123100000010000000000000BRALLLACNOR6118
012013102462ALLL3T      030ALL AMER LATON      NM032R$  000000000083100000000008320000000000831000000000083100000000008320000000000000000000000000000002000000000000010000000000000008315175000000000000009999123100000010000000000000BRALLLACNOR6118
012013102402ALPA3       010ALPARGATAS  ON      N1   R$  000000000130100000000013180000000001295000000000131500000000012950000000001295000000000131900005000000000000001400000000000001841200000000000000009999123100000010000000000000BRALPAACNOR0203
012013102462ALPA3T      030ALPARGATAS  ON      N1029R$  000000000132700000000013280000000001327000000000132700000000013280000000000000000000000000000002000000000000001000000000000001327226000000000000009999123100000010000000000000BRALPAACNOR0203
012013102402ALPA4       010ALPARGATAS  PN      N1   R$  000000000149600000000015350000000001496000000000151900000000015150000000001515000000000152500447000000000000354500000000000538595400000000000000009999123100000010000000000000BRALPAACNPR7203
012013102496ALPA4F      020ALPARGATAS  PN      N1   R$  000000000154400000000015490000000001500000000000151600000000015490000000001481000000000154900012000000000000000287000000000000435287000000000000009999123100000010000000000000BRALPAACNPR7203
012013102402ALSC3       010ALIANSCE    ON      NM   R$  000000000217900000000021890000000002133000000000215300000000021450000000002144000000000214500825000000000000174700000000000376287700000000000000009999123100000010000000000000BRALSCACNOR0104
012013102496ALSC3F      020ALIANSCE    ON      NM   R$  000000000215700000000021600000000002150000000000215500000000021600000000001900000000000222000004000000000000000140000000000000301770000000000000009999123100000010000000000000BRALSCACNOR0104
012013102402ALUP11      010ALUPAR      UNT     N2   R$  000000000172600000000017260000000001700000000000170700000000017000000000001700000000000170500836000000000000230200000000000392983600000000000000009999123100000010000000000000BRALUPCDAM15100
012013102496ALUP11F     020ALUPAR      UNT     N2   R$  000000000171300000000017490000000001699000000000170900000000016990000000001698000000000175000029000000000000000716000000000001223955000000000000009999123100000010000000000000BRALUPCDAM15100
012013102402AMAR3       010LOJAS MARISAON      NM   R$  000000000203600000000020650000000002036000000000205000000000020490000000002049000000000205001636000000000000333000000000000682899700000000000000009999123100000010000000000000BRAMARACNOR4109
012013102496AMAR3F      020LOJAS MARISAON      NM   R$  000000000204000000000020580000000002040000000000204400000000020520000000002020000000000210000003000000000000000077000000000000157410000000000000009999123100000010000000000000BRAMARACNOR4109
012013102462AMAR3T      030LOJAS MARISAON      NM060R$  000000000208200000000020830000000002082000000000208200000000020830000000000000000000000000000002000000000000000500000000000001041076000000000000009999123100000010000000000000BRAMARACNOR4109
012013102402AMBV3       010AMBEV       ON           R$  000000000847800000000085250000000008408000000000846700000000085000000000008475000000000850001062000000000000179700000000001521785500000000000000009999123100000010000000000000BRAMBVACNOR4154
012013102496AMBV3F      020AMBEV       ON           R$  000000000851800000000085190000000008405000000000844900000000084980000000008405000000000851000020000000000000000378000000000003194987000000000000009999123100000010000000000000BRAMBVACNOR4154
012013102462AMBV3T      030AMBEV       ON        090R$  000000000862700000000086280000000008627000000000862700000000086280000000000000000000000000000002000000000000002000000000000017254900000000000000009999123100000010000000000000BRAMBVACNOR4154
012013102402AMBV4       010AMBEV       PN           R$  000000000850000000000085370000000008415000000000847600000000085000000000008490000000000850004832000000000000926400000000007852954800000000000000009999123100000010000000000000BRAMBVACNPR1154
012013102496AMBV4F      020AMBEV       PN           R$  000000000851100000000085840000000008417000000000847800000000085200000000008520000000000855700135000000000000004273000000000036237219000000000000009999123100000010000000000000BRAMBVACNPR1154
012013102462AMBV4T      030AMBEV       PN        018R$  000000000848800000000084890000000008488000000000848800000000084890000000000000000000000000000002000000000000001000000000000008488025000000000000009999123100000010000000000000BRAMBVACNPR1154
012013102462AMBV4T      030AMBEV       PN        032R$  000000000856500000000085660000000008536000000000856000000000085370000000000000000000000000000006000000000000001200000000000010272571000000000000009999123100000010000000000000BRAMBVACNPR1154
012013102462AMBV4T      030AMBEV       PN        060R$  000000000861900000000086200000000008544000000000859800000000085450000000000000000000000000000010000000000000003800000000000032673760000000000000009999123100000010000000000000BRAMBVACNPR1154
012013102462AMBV4T      030AMBEV       PN        180R$  000000000893400000000089350000000008934000000000893400000000089350000000000000000000000000000002000000000000002400000000000021443969000000000000009999123100000010000000000000BRAMBVACNPR1154
012013102478AMBVK85     070AMBV        PN        000R$  000000000013400000000001650000000000133000000000013300000000001330000000000000000000000000000003000000000000030100000000000004006600000000000850002013111800000010000000000000BRAMBVACNPR1154
012013102478AMBVL58     070AMBV        PN        000R$  000000000010100000000001010000000000100000000000010000000000001000000000000100000000000000000002000000000000001000000000000000100100000000000880002013121600000010000000000000BRAMBVACNPR1154
012013102478AMBVL89     070AMBV        PN        000R$  000000000010800000000001080000000000108000000000010800000000001080000000000000000000000000000001000000000000000100000000000000010800000000000890002013121600000010000000000000BRAMBVACNPR1154
012013102482AMBVX82     080AMBVE       PN        000R$  000000000008100000000000810000000000081000000000008100000000000810000000000000000000000000000001000000000000001000000000000000081000000000000820002013121600000010000000000000BRAMBVACNPR1154
012013102402AORE3       010ALL ORE     ON           R$  000000000010000000000001000000000000100000000000010000000000001000000000000095000000000009900003000000000000003400000000000000340000000000000000009999123100000010000000000000BRAOREACNOR2100
012013102402ARMT34      010ARCELOR     DRN          R$  000000000179000000000017900000000001790000000000179000000000017900000000001760000000000179000001000000000000000900000000000001611000000000000000009999123100000010000000000000BRARMTBDR008111
012013102402ARTR3       010ARTERIS     ON      NM   R$  000000000208000000000020800000000002006000000000203900000000020200000000002020000000000203702588000000000000379900000000000774705900000000000000009999123100000010000000000000BRARTRACNOR3101
012013102496ARTR3F      020ARTERIS     ON      NM   R$  000000000206300000000020630000000002006000000000202100000000020060000000002025000000000209800023000000000000000623000000000001259231000000000000009999123100000010000000000000BRARTRACNOR3101
012013102402ARZZ3       010AREZZO CO   ON      NM   R$  000000000345500000000035000000000003430000000000345600000000034500000000003432000000000345000481000000000000245900000000000849953500000000000000009999123100000010000000000000BRARZZACNOR3109
012013102496ARZZ3F      020AREZZO CO   ON      NM   R$  000000000346000000000034600000000003460000000000346000000000034600000000003434000000000359500001000000000000000050000000000000173000000000000000009999123100000010000000000000BRARZZACNOR3109
012013102402ATTB34      010ATT INC     DRN          R$  000000000766700000000076670000000007667000000000766700000000076670000000006800000000000840000002000000000000000200000000000001533400000000000000009999123100000010000000000000BRATTBBDR007105
012013102402AUTM3       010AUTOMETAL   ON      NM   R$  000000000180900000000018090000000001749000000000177900000000017800000000001774000000000178000314000000000000061900000000000110160000000000000000009999123100000010000000000000BRAUTMACNOR8109
012013102496AUTM3F      020AUTOMETAL   ON      NM   R$  000000000178000000000017840000000001780000000000178000000000017840000000001750000000000179900002000000000000000044000000000000078344000000000000009999123100000010000000000000BRAUTMACNOR8109
012013102402AZEV4       010AZEVEDO     PN           R$  000000000015800000000001580000000000140000000000015600000000001400000000000140000000000017400003000000000000002100000000000000329000000000000000009999123100000010000000000000BRAZEVACNPR7113
012013102402BAHI3       010BAHEMA      ON           R$  000000000051000000000005150000000000510000000000051200000000005150000000000473000000000052800002000000000000004900000000000002513500000000000000009999123100000010000000000000BRBAHIACNOR1066
012013102496BAHI3F      020BAHEMA      ON           R$  000000000060000000000006000000000000600000000000060000000000006000000000000467000000000125000001000000000000000012000000000000007200000000000000009999123100000010000000000000BRBAHIACNOR1066
012013102462BAHI3T      030BAHEMA      ON        060R$  000000000052500000000005260000000000519000000000052200000000005200000000000000000000000000000004000000000000004900000000000002562513000000000000009999123100000010000000000000BRBAHIACNOR1066
012013102402BAUH4       010EXCELSIOR   PN           R$  000000000103500000000010500000000001035000000000103700000000010500000000001000000000000106900006000000000000001200000000000001245200000000000000009999123100000010000000000000BRBAUHACNPR3108
012013102496BAZA3F      020AMAZONIA    ON           R$  000000000003300000000000350000000000032000000000003200000000000350000000000032000000000003500004000000000000000102000000000000003318000000000000009999123100000010000000000000BRBAZAACNOR0163
012013102402BBAS3       010BRASIL      ON      NM   R$  000000000280100000000028520000000002797000000000282200000000028340000000002825000000000283416036000000000006589500000000018599314800000000000000009999123100000010000000000000BRBBASACNOR3239
012013102496BBAS3F      020BRASIL      ON      NM   R$  000000000279100000000028480000000002791000000000281800000000028310000000002825000000000283100307000000000000009762000000000027516668000000000000009999123100000010000000000000BRBBASACNOR3239
012013102462BBAS3T      030BRASIL      ON      NM032R$  000000000283900000000028400000000002839000000000283900000000028400000000000000000000000000000002000000000000001500000000000004258945000000000000009999123100000010000000000000BRBBASACNOR3239
012013102478BBASA28     070BBAS        ON      NM000R$  000000000015400000000001540000000000154000000000015400000000001540000000000034000000000000000001000000000000000800000000000000123200000000000280002014012000000010000000000000BRBBASACNOR3239
012013102478BBASA31     070BBAS        ON      NM000R$  000000000004100000000000440000000000041000000000004200000000000440000000000010000000000000000002000000000000002400000000000000102000000000000310002014012000000010000000000000BRBBASACNOR3239
012013102478BBASK1      070BBAS  FM    ON      NM000R$  000000000000400000000000040000000000004000000000000400000000000040000000000000000000000000000005000000000000010500000000000000042000000000000310002013111800000010000000000000BRBBASACNOR3239
012013102478BBASK24     070BBAS        ON      NM000R$  000000000052000000000005570000000000520000000000055100000000005570000000000010000000000057700003000000000000001200000000000000661500000000000229502013111800000010000000000000BRBBASACNOR3237
012013102478BBASK25     070BBAS        ON      NM000R$  000000000045500000000004600000000000455000000000045800000000004600000000000088000000000000000002000000000000002500000000000001145000000000000237102013111800000010000000000000BRBBASACNOR3236
012013102478BBASK26     070BBAS        ON      NM000R$  000000000035800000000003580000000000358000000000035800000000003580000000000360000000000049500001000000000000001000000000000000358000000000000247102013111800000010000000000000BRBBASACNOR3236
012013102478BBASK27     070BBAS        ON      NM000R$  000000000026500000000002890000000000254000000000027000000000002740000000000266000000000000000017000000000000014200000000000003843500000000000257102013111800000010000000000000BRBBASACNOR3236
012013102478BBASK28     070BBAS  FM    ON      NM000R$  000000000017000000000002010000000000161000000000017900000000001820000000000179000000000018900109000000000000108300000000000019483700000000000267102013111800000010000000000000BRBBASACNOR3236
012013102478BBASK29     070BBAS  FM    ON      NM000R$  000000000008000000000001040000000000072000000000008700000000000900000000000085000000000009200106000000000000159300000000000013955700000000000279502013111800000010000000000000BRBBASACNOR3237
012013102478BBASK30     070BBAS  FM    ON      NM000R$  000000000003100000000000450000000000029000000000003800000000000350000000000035000000000005000104000000000000173300000000000006596800000000000289502013111800000010000000000000BRBBASACNOR3237
012013102478BBASK31     070BBAS  FM    ON      NM000R$  000000000001500000000000180000000000012000000000001500000000000150000000000012000000000001800031000000000000084400000000000001297700000000000299502013111800000010000000000000BRBBASACNOR3237
012013102478BBASK56     070BBAS        ON      NM000R$  000000000020400000000002050000000000202000000000020300000000002020000000000000000000000000000003000000000000003200000000000000651100000000000262302013111800000010000000000000BRBBASACNOR3238
012013102478BBASK57     070BBAS        ON      NM000R$  000000000010300000000001030000000000103000000000010300000000001030000000000000000000000000000001000000000000001500000000000000154500000000000275002013111800000010000000000000BRBBASACNOR3239
012013102478BBASK58     070BBAS        ON      NM000R$  000000000006500000000000650000000000057000000000006000000000000570000000000000000000000007800004000000000000009100000000000000547900000000000285002013111800000010000000000000BRBBASACNOR3239
012013102478BBASL27     070BBAS        ON      NM000R$  000000000029000000000002900000000000267000000000027800000000002670000000000208000000000000000002000000000000000400000000000000111400000000000259502013121600000010000000000000BRBBASACNOR3237
012013102478BBASL28     070BBAS  FM    ON      NM000R$  000000000019100000000002160000000000182000000000019900000000002010000000000034000000000000000093000000000000117200000000000023333800000000000269502013121600000010000000000000BRBBASACNOR3237
012013102478BBASL29     070BBAS  FM    ON      NM000R$  000000000014500000000001670000000000137000000000015100000000001550000000000130000000000018000065000000000000084700000000000012844300000000000276102013121600000010000000000000BRBBASACNOR3235
012013102478BBASL30     070BBAS  FM    ON      NM000R$  000000000003400000000000460000000000031000000000003600000000000360000000000032000000000004000177000000000000374400000000000013535100000000000300002013121600000010000000000000BRBBASACNOR3239
012013102478BBASL31     070BBAS  FM    ON      NM000R$  000000000001900000000000200000000000019000000000001900000000000200000000000015000000000000000002000000000000004000000000000000078000000000000310002013121600000010000000000000BRBBASACNOR3239
012013102478BBASL32     070BBAS        ON      NM000R$  000000000001000000000000100000000000009000000000000900000000000090000000000006000000000002500003000000000000016000000000000000157000000000000320002013121600000010000000000000BRBBASACNOR3239
012013102478BBASL33     070BBAS        ON      NM000R$  000000000000400000000000040000000000004000000000000400000000000040000000000001000000000000000001000000000000003000000000000000012000000000000330002013121600000010000000000000BRBBASACNOR3239
012013102478BBASL59     070BBAS        ON      NM000R$  000000000005000000000000620000000000047000000000005300000000000550000000000000000000000000000006000000000000005600000000000000301300000000000295002013121600000010000000000000BRBBASACNOR3239
012013102478BBASL60     070BBAS        ON      NM000R$  000000000008200000000001040000000000082000000000009900000000000960000000000080000000000000000169000000000000136500000000000013537600000000000286202013121600000010000000000000BRBBASACNOR3233
012013102478BBASL79     070BBAS  FM    ON      NM000R$  000000000006800000000000840000000000065000000000007300000000000750000000000000000000000000000018000000000000025600000000000001889100000000000290002013121600000010000000000000BRBBASACNOR3239
012013102482BBASM27     080BBASE       ON      NM000R$  000000000003600000000000360000000000036000000000003600000000000360000000000000000000000000000003000000000000006200000000000000223200000000000259502014012000000010000000000000BRBBASACNOR3237
012013102482BBASW26     080BBASE       ON      NM000R$  000000000000300000000000030000000000003000000000000300000000000030000000000000000000000002300001000000000000000900000000000000002700000000000247102013111800000010000000000000BRBBASACNOR3236
012013102482BBASW27     080BBASE FM    ON      NM000R$  000000000000700000000000070000000000007000000000000700000000000070000000000000000000000000700004000000000000017000000000000000119000000000000257102013111800000010000000000000BRBBASACNOR3236
012013102482BBASW28     080BBASE FM    ON      NM000R$  000000000001800000000000200000000000014000000000001700000000000150000000000015000000000001900093000000000000102200000000000001765400000000000267102013111800000010000000000000BRBBASACNOR3236
012013102482BBASW29     080BBASE FM    ON      NM000R$  000000000005100000000000550000000000041000000000004800000000000480000000000042000000000005800017000000000000030100000000000001473700000000000279502013111800000010000000000000BRBBASACNOR3237
012013102482BBASW30     080BBASE FM    ON      NM000R$  000000000010200000000001090000000000081000000000009800000000000930000000000075000000000012500053000000000000073800000000000007244400000000000289502013111800000010000000000000BRBBASACNOR3237
012013102482BBASW56     080BBASE       ON      NM000R$  000000000001200000000000130000000000011000000000001200000000000110000000000000000000000001400063000000000000085800000000000001040600000000000262302013111800000010000000000000BRBBASACNOR3238
012013102482BBASW57     080BBASE       ON      NM000R$  000000000003600000000000390000000000031000000000003500000000000310000000000000000000000000000036000000000000127900000000000004507800000000000275002013111800000010000000000000BRBBASACNOR3239
012013102482BBASW58     080BBASE       ON      NM000R$  000000000007000000000000700000000000070000000000007000000000000700000000000000000000000000000001000000000000005000000000000000350000000000000285002013111800000010000000000000BRBBASACNOR3239
012013102482BBASX26     080BBASE       ON      NM000R$  000000000001300000000000130000000000011000000000001100000000000110000000000011000000000001400005000000000000003000000000000000035200000000000246102013121600000010000000000000BRBBASACNOR3235
012013102482BBASX27     080BBASE FM    ON      NM000R$  000000000002200000000000220000000000022000000000002200000000000220000000000022000000000002900001000000000000000200000000000000004400000000000259502013121600000010000000000000BRBBASACNOR3237
012013102482BBASX28     080BBASE FM    ON      NM000R$  000000000004500000000000490000000000038000000000004000000000000410000000000038000000000004400043000000000000455700000000000018434400000000000269502013121600000010000000000000BRBBASACNOR3237
012013102482BBASX29     080BBASE FM    ON      NM000R$  000000000006500000000000660000000000058000000000006200000000000580000000000000000000000000000026000000000000053800000000000003386900000000000276102013121600000010000000000000BRBBASACNOR3235
012013102482BBASX56     080BBASE       ON      NM000R$  000000000002000000000000200000000000019000000000001900000000000190000000000000000000000000000011000000000000038500000000000000767600000000000255002013121600000010000000000000BRBBASACNOR3239
012013102482BBASX59     080BBASE       ON      NM000R$  000000000014300000000001440000000000143000000000014300000000001430000000000000000000000000000003000000000000400000000000000057260000000000000295002013121600000010000000000000BRBBASACNOR3239
012013102482BBASX79     080BBASE FM    ON      NM000R$  000000000012700000000001320000000000114000000000012100000000001180000000000000000000000000000021000000000000038700000000000004693000000000000290002013121600000010000000000000BRBBASACNOR3239
012013102402BBDC3       010BRADESCO    ON      N1   R$  000000000363000000000036300000000003544000000000356600000000035610000000003561000000000357704450000000000001039100000000003706164500000000000000009999123100000010000000000000BRBBDCACNOR1607
012013102496BBDC3F      020BRADESCO    ON      N1   R$  000000000361300000000036130000000003550000000000357000000000035700000000003581000000000360000031000000000000000699000000000002496148000000000000009999123100000010000000000000BRBBDCACNOR1607
012013102402BBDC4       010BRADESCO    PN      N1   R$  000000000325000000000032590000000003196000000000322100000000032370000000003237000000000323915824000000000005819400000000018745740100000000000000009999123100000010000000000000BRBBDCACNPR8607
012013102496BBDC4F      020BRADESCO    PN      N1   R$  000000000324000000000032590000000003191000000000322000000000032360000000003236000000000324200191000000000000004616000000000014865591000000000000009999123100000010000000000000BRBBDCACNPR8607
012013102462BBDC4T      030BRADESCO    PN      N1032R$  000000000323700000000032780000000003237000000000325700000000032780000000000000000000000000000006000000000000002000000000000006515213000000000000009999123100000010000000000000BRBBDCACNPR8607
012013102462BBDC4T      030BRADESCO    PN      N1083R$  000000000326100000000032620000000003261000000000326100000000032620000000000000000000000000000002000000000000002000000000000006522880000000000000009999123100000010000000000000BRBBDCACNPR8607
012013102478BBDCA32     070BBDC        PN      N1000R$  000000000018400000000001840000000000184000000000018400000000001840000000000000000000000000000001000000000000000200000000000000036800000000000319802014012000000010000000000000BRBBDCACNPR8606
012013102478BBDCA33     070BBDC        PN      N1000R$  000000000012300000000001230000000000123000000000012300000000001230000000000102000000000000000001000000000000003700000000000000455100000000000329802014012000000010000000000000BRBBDCACNPR8606
012013102478BBDCA35     070BBDC        PN      N1000R$  000000000006100000000000610000000000061000000000006100000000000610000000000048000000000000000001000000000000003000000000000000183000000000000350002014012000000010000000000000BRBBDCACNPR8607
012013102478BBDCK29     070BBDC        ON      N1000R$  000000000072700000000007270000000000670000000000070600000000006700000000000000000000000000000003000000000000000900000000000000635700000000000290002013111800000010000000000000BRBBDCACNOR1607
012013102478BBDCK31     070BBDC        PN      N1000R$  000000000016100000000001610000000000152000000000015600000000001570000000000142000000000019800005000000000000002600000000000000407700000000000309602013111800000010000000000000BRBBDCACNPR8605
012013102478BBDCK32     070BBDC  FM    PN      N1000R$  000000000012000000000001260000000000095000000000010800000000001140000000000114000000000012700298000000000000208500000000000022680200000000000317202013111800000010000000000000BRBBDCACNPR8601
012013102478BBDCK33     070BBDC  FM    PN      N1000R$  000000000006900000000000690000000000045000000000005300000000000620000000000054000000000006300207000000000000259000000000000013815700000000000327402013111800000010000000000000BRBBDCACNPR8602
012013102478BBDCK34     070BBDC  FM    PN      N1000R$  000000000002200000000000230000000000015000000000002000000000000180000000000017000000000002300039000000000000056200000000000001124000000000000339402013111800000010000000000000BRBBDCACNPR8604
012013102478BBDCK35     070BBDC  FM    PN      N1000R$  000000000001000000000000130000000000007000000000001000000000000130000000000010000000000001300012000000000000018500000000000000201900000000000347402013111800000010000000000000BRBBDCACNPR8602
012013102478BBDCK70     070BBDCE       PN      N1000R$  000000000013800000000001380000000000138000000000013800000000001380000000000000000000000000000002000000000000006000000000000000828000000000000402502014111700000010000000000000BRBBDCACNPR8607
012013102478BBDCL3      070BBDC  FM    PN      N1000R$  000000000011800000000001180000000000090000000000010000000000001060000000000000000000000019900019000000000000026700000000000002676400000000000327002013121600000010000000000000BRBBDCACNPR8601
012013102478BBDCL32     070BBDC  FM    PN      N1000R$  000000000017400000000001740000000000138000000000015100000000001660000000000140000000000022000215000000000000152900000000000023231600000000000317002013121600000010000000000000BRBBDCACNPR8600
012013102478BBDCL34     070BBDC  FM    PN      N1000R$  000000000006200000000000620000000000050000000000005700000000000610000000000049000000000008300050000000000000097800000000000005635000000000000337002013121600000010000000000000BRBBDCACNPR8600
012013102478BBDCL35     070BBDC        PN      N1000R$  000000000003600000000000360000000000026000000000003300000000000350000000000026000000000003800030000000000000078600000000000002594300000000000347002013121600000010000000000000BRBBDCACNPR8600
012013102478BBDCL36     070BBDC        PN      N1000R$  000000000012400000000001240000000000107000000000010900000000001070000000000000000000000014500004000000000000011200000000000001230600000000000323902013121600000010000000000000BRBBDCACNPR8597
012013102478BBDCL5      070BBDC  FM    PN      N1000R$  000000000003100000000000310000000000031000000000003100000000000310000000000000000000000000000005000000000000000500000000000000015500000000000349802013121600000010000000000000BRBBDCACNPR8606
012013102478BBDCL6      070BBDC  FM    PN      N1000R$  000000000001900000000000200000000000015000000000001700000000000150000000000012000000000000000034000000000000045800000000000000791600000000000357202013121600000010000000000000BRBBDCACNPR8601
012013102482BBDCM30     080BBDCE       PN      N1000R$  000000000004400000000000440000000000044000000000004400000000000440000000000000000000000000000015000000000000050000000000000002200000000000000299802014012000000010000000000000BRBBDCACNPR8606
012013102482BBDCW30     080BBDCE       PN      N1000R$  000000000001300000000000130000000000013000000000001300000000000130000000000000000000000001300001000000000000001100000000000000014300000000000299602013111800000010000000000000BRBBDCACNPR8605
012013102482BBDCW31     080BBDCE FM    PN      N1000R$  000000000002100000000000310000000000021000000000002700000000000260000000000000000000000000000023000000000000032900000000000000903200000000000309602013111800000010000000000000BRBBDCACNPR8605
012013102482BBDCW32     080BBDCE FM    PN      N1000R$  000000000003800000000000550000000000038000000000004700000000000380000000000030000000000004500055000000000000065400000000000003136900000000000317202013111800000010000000000000BRBBDCACNPR8601
012013102482BBDCW33     080BBDCE FM    PN      N1000R$  000000000008200000000001050000000000080000000000009500000000000800000000000000000000000010100022000000000000026800000000000002551200000000000327402013111800000010000000000000BRBBDCACNPR8602
012013102482BBDCW34     080BBDCE FM    PN      N1000R$  000000000015500000000001930000000000155000000000017300000000001600000000000000000000000000000043000000000000061500000000000010670600000000000339402013111800000010000000000000BRBBDCACNPR8604
012013102482BBDCW35     080BBDCE       PN      N1000R$  000000000024500000000002450000000000245000000000024500000000002450000000000000000000000000000001000000000000002000000000000000490000000000000347402013111800000010000000000000BRBBDCACNPR8602
012013102482BBDCW59     080BBDCE       PN      N1000R$  000000000007100000000000710000000000071000000000007100000000000710000000000000000000000000000002000000000000006000000000000000426000000000000290002014111700000010000000000000BRBBDCACNPR8607
012013102482BBDCW62     080BBDCE       PN      N1000R$  000000000020900000000002090000000000209000000000020900000000002090000000000000000000000000000002000000000000006000000000000001254000000000000325002014111700000010000000000000BRBBDCACNPR8607
012013102482BBDCX1      080BBDCE FM    PN      N1000R$  000000000004000000000000400000000000038000000000003800000000000380000000000000000000000000000009000000000000016500000000000000638100000000000307002013121600000010000000000000BRBBDCACNPR8600
012013102482BBDCX3      080BBDCE FM    PN      N1000R$  000000000011400000000001260000000000105000000000011900000000001050000000000000000000000000000004000000000000006900000000000000824100000000000327002013121600000010000000000000BRBBDCACNPR8601
012013102482BBDCX32     080BBDCE FM    PN      N1000R$  000000000006700000000000800000000000067000000000007300000000000800000000000000000000000000000002000000000000004500000000000000328800000000000317002013121600000010000000000000BRBBDCACNPR8600
012013102482BBDCX34     080BBDCE FM    PN      N1000R$  000000000016200000000001870000000000162000000000017800000000001740000000000000000000000000000006000000000000010400000000000001857800000000000337002013121600000010000000000000BRBBDCACNPR8600
012013102412BBFI11B     010FII BB PROGRCI      MB   R$  000000042130000000004214000000000420500000000042119600000004205000000000418056000000042150000008000000000000000028000000000011793500000000000000009999123100000010000000000000BRBBFICTF006199
012013102412BBPO11      010FII BB PRGIICI           R$  000000001118300000000112620000000011152000000001117900000000112620000000011200000000001126200145000000000000014873000000000166273678000000000000009999123100000010000000000000BRBBPOCTF003111
012013102412BBRC11      010FII BB CORP CI           R$  000000000879900000000088000000000008610000000000867500000000086990000000008640000000000869900014000000000000001756000000000015234907000000000000009999123100000010000000000000BRBBRCCTF004125
012013102402BBRK3       010BR BROKERS  ON      NM   R$  000000000058300000000005910000000000575000000000058000000000005800000000000578000000000058001485000000000001012100000000000587343200000000000000009999123100000010000000000000BRBBRKACNOR4108
012013102496BBRK3F      020BR BROKERS  ON      NM   R$  000000000058000000000006000000000000567000000000058100000000006000000000000566000000000065000005000000000000000108000000000000062792000000000000009999123100000010000000000000BRBBRKACNOR4108
012013102402BBSE3       010BBSEGURIDADEON      NM   R$  000000000236600000000023990000000002341000000000236600000000023990000000002380000000000239908666000000000002918500000000006906659500000000000000009999123100000010000000000000BRBBSEACNOR5101
012013102496BBSE3F      020BBSEGURIDADEON      NM   R$  000000000235400000000023850000000002325000000000235900000000023850000000002385000000000238700356000000000000011153000000000026310665000000000000009999123100000010000000000000BRBBSEACNOR5101
012013102462BBSE3T      030BBSEGURIDADEON      NM032R$  000000000238300000000023840000000002383000000000238300000000023840000000000000000000000000000002000000000000000400000000000000953284000000000000009999123100000010000000000000BRBBSEACNOR5101
012013102478BBSEA23     070BBSE        ON      NM000R$  000000000029200000000002920000000000292000000000029200000000002920000000000000000000000000000001000000000000000100000000000000029200000000000230002014012000000010000000000000BRBBSEACNOR5101
012013102478BBSEA26     070BBSE        ON      NM000R$  000000000008100000000000810000000000081000000000008100000000000810000000000000000000000000000001000000000000000100000000000000008100000000000260002014012000000010000000000000BRBBSEACNOR5101
012013102478BBSEA54     070BBSE        ON      NM000R$  000000000016300000000001630000000000163000000000016300000000001630000000000000000000000000000001000000000000000100000000000000016300000000000245002014012000000010000000000000BRBBSEACNOR5101
012013102402BBTG11      010BTG PACTUAL UNT          R$  000000000304500000000030480000000002953000000000297700000000029800000000002960000000000298400707000000000000241500000000000719145500000000000000009999123100000010000000000000BRBBTGUNT007105
012013102496BBTG11F     020BTG PACTUAL UNT          R$  000000000302100000000030260000000002973000000000301400000000029730000000002802000000000310000004000000000000000122000000000000367726000000000000009999123100000010000000000000BRBBTGUNT007105
012013102412BBVJ11      010FII C JARDIMCI           R$  000000000783300000000078500000000007703000000000780400000000078020000000007802000000000785000014000000000000001075000000000008389379000000000000009999123100000010000000000000BRBBVJCTF001134
012013102412BCFF11B     010FII BC FFII CI      MB   R$  000000000894000000000090330000000008902000000000893800000000089500000000008950000000000902400074000000000000006090000000000054436669000000000000009999123100000010000000000000BRBCFFCTF000143
012013102402BDLL4       010BARDELLA    PN           R$  000000000510000000000051000000000004900000000000508500000000049000000000004918000000000509900007000000000000006100000000000031021000000000000000009999123100000010000000000000BRBDLLACNPR8149
012013102496BDLL4F      020BARDELLA    PN           R$  000000000510000000000051000000000004850000000000493300000000048500000000004851000000000570000011000000000000000131000000000000646350000000000000009999123100000010000000000000BRBDLLACNPR8149
012013102462BDLL4T      030BARDELLA    PN        180R$  000000000535500000000053550000000005355000000000535500000000053550000000000000000000000000000001000000000000005000000000000026775000000000000000009999123100000010000000000000BRBDLLACNPR8149
012013102402BEEF3       010MINERVA     ON      NM   R$  000000000095000000000009520000000000942000000000094600000000009520000000000952000000000095301041000000000000244000000000000230863000000000000000009999123100000010000000000000BRBEEFACNOR6104
012013102496BEEF3F      020MINERVA     ON      NM   R$  000000000094400000000009440000000000944000000000094400000000009440000000000930000000000097800002000000000000000099000000000000093456000000000000009999123100000010000000000000BRBEEFACNOR6104
012013102402BEES3       010BANESTES    ON           R$  000000000005100000000000520000000000050000000000005000000000000510000000000050000000000005100012000000000000062800000000000003193200000000000000009999123100000010000000000000BRBEESACNOR9245
012013102402BEES4       010BANESTES    PN           R$  000000000004600000000000460000000000046000000000004600000000000460000000000046000000000004700001000000000000002300000000000000105800000000000000009999123100000010000000000000BRBEESACNPR6170
012013102402BEMA3       010BEMATECH    ON      NM   R$  000000000077600000000007760000000000758000000000076500000000007690000000000764000000000076900236000000000000118700000000000090880500000000000000009999123100000010000000000000BRBEMAACNOR0114
012013102496BEMA3F      020BEMATECH    ON      NM   R$  000000000077300000000007960000000000761000000000077600000000007610000000000761000000000078000005000000000000000252000000000000195617000000000000009999123100000010000000000000BRBEMAACNOR0114
012013102402BGIP4       010BANESE      PN           R$  000000000493900000000049390000000004939000000000493900000000049390000000004801000000000494000001000000000000001000000000000004939000000000000000009999123100000010000000000000BRBGIPACNPR8179
012013102462BGIP4T      030BANESE      PN        090R$  000000000505400000000050550000000005054000000000505400000000050550000000000000000000000000000002000000000000001000000000000005054079000000000000009999123100000010000000000000BRBGIPACNPR8179
012013102402BHGR3       010BHG         ON      NM   R$  000000000159000000000016890000000001590000000000162100000000016490000000001649000000000165000225000000000000131200000000000212770900000000000000009999123100000010000000000000BRBHGRACNOR9101
012013102496BHGR3F      020BHG         ON      NM   R$  000000000159800000000016800000000001598000000000165200000000016340000000001620000000000164900012000000000000000252000000000000416328000000000000009999123100000010000000000000BRBHGRACNOR9101
012013102402BICB4       010BICBANCO    PN      N1   R$  000000000063300000000006450000000000626000000000063400000000006430000000000640000000000064400147000000000000075100000000000047688400000000000000009999123100000010000000000000BRBICBACNPR7131
012013102496BICB4F      020BICBANCO    PN      N1   R$  000000000064000000000006440000000000640000000000064200000000006440000000000595000000000064400002000000000000000028000000000000017976000000000000009999123100000010000000000000BRBICBACNPR7131
012013102402BISA3       010BROOKFIELD  ON      NM   R$  000000000015700000000001580000000000148000000000015100000000001490000000000149000000000015005102000000000010817100000000001635800100000000000000009999123100000010000000000000BRBISAACNOR8109
012013102496BISA3F      020BROOKFIELD  ON      NM   R$  000000000015600000000001560000000000148000000000015000000000001480000000000149000000000015800021000000000000000496000000000000074596000000000000009999123100000010000000000000BRBISAACNOR8109
012013102462BISA3T      030BROOKFIELD  ON      NM032R$  000000000015100000000001520000000000150000000000015000000000001510000000000000000000000000000004000000000000021000000000000003164551000000000000009999123100000010000000000000BRBISAACNOR8109
012013102462BISA3T      030BROOKFIELD  ON      NM060R$  000000000015900000000001600000000000159000000000015900000000001600000000000000000000000000000002000000000000050000000000000007972460000000000000009999123100000010000000000000BRBISAACNOR8109
012013102462BISA3T      030BROOKFIELD  ON      NM090R$  000000000015400000000001550000000000154000000000015400000000001550000000000000000000000000000002000000000000070000000000000010784550000000000000009999123100000010000000000000BRBISAACNOR8109
012013102412BJRC11      010FII JS RECIMCI           R$  000000008399900000000845000000000081600000000008414000000000840000000000081600000000008400000010000000000000000335000000000028187196000000000000009999123100000010000000000000BRBJRCCTF007111
012013102402BMEB4       010MERC BRASIL PN           R$  000000000109400000000011000000000001094000000000109800000000010940000000001078000000000109400006000000000000005300000000000005822200000000000000009999123100000010000000000000BRBMEBACNPR5191
012013102496BMEB4F      020MERC BRASIL PN           R$  000000000111900000000011190000000001119000000000111900000000011190000000001048000000000112000001000000000000000001000000000000001119000000000000009999123100000010000000000000BRBMEBACNPR5191
012013102402BMIN4       010MERC INVEST PN           R$  000000000002800000000000280000000000028000000000002800000000000280000000000027000000000002800001000000000000002000000000000000056000000000000000009999123100000010000000000000BRBMINACNPR1160
012013102496BMIN4F      020MERC INVEST PN           R$  000000000003000000000000300000000000030000000000003000000000000300000000000027000000000003000001000000000000000001000000000000000030000000000000009999123100000010000000000000BRBMINACNPR1160
012013102402BMKS3       010BIC MONARK  ON           R$  000000003330000000000340000000000033300000000003388300000000340000000000033100000000003400000002000000000000000006000000000000203300000000000000009999123100000010000000000000BRBMKSACNOR9155
012013102412BMLC11B     010FII BMBRC LCCI      MB   R$  000000001174000000000117500000000011740000000001174900000000117500000000011721000000001175000007000000000000000110000000000001292400000000000000009999123100000010000000000000BRBMLCCTF004120
012013102496BMTO3F      020BRASMOTOR   ON           R$  000000000010000000000001000000000000100000000000010000000000001000000000000083000000000000000001000000000000000004000000000000000400000000000000009999123100000010000000000000BRBMTOACNOR9180
012013102402BMTO4       010BRASMOTOR   PN           R$  000000000008900000000000920000000000088000000000008800000000000900000000000090000000000009100062000000000000645000000000000057179000000000000000009999123100000010000000000000BRBMTOACNPR6065
012013102496BMTO4F      020BRASMOTOR   PN           R$  000000000008800000000000930000000000088000000000008800000000000930000000000090000000000009300003000000000000000986000000000000086788000000000000009999123100000010000000000000BRBMTOACNPR6065
012013102402BMYB34      010BRISTOLMYERSDRN          R$  000000001083000000000108300000000010820000000001082500000000108200000000009600000000001190000002000000000000001000000000000010825000000000000000009999123100000010000000000000BRBMYBBDR000101
012013102402BOAC34      010BANK AMERICADRN          R$  000000000312100000000031210000000003121000000000312100000000031210000000003090000000000315000001000000000000000300000000000000936300000000000000009999123100000010000000000000BRBOACBDR004112
012013102496BOBR4F      020BOMBRIL     PN           R$  000000000055000000000005500000000000550000000000055000000000005500000000000321000000000064900003000000000000000015000000000000008250000000000000009999123100000010000000000000BRBOBRACNPR3127
012013102402BOEI34      010BOEING      DRN          R$  000000002835500000000283550000000028355000000002835500000000283550000000025000000000003100000001000000000000000100000000000002835500000000000000009999123100000010000000000000BRBOEIBDR003106
012013102451BOQA5L      017BOQUEIRAO AGPNA*         R$  000000009900000000000990000000000099000000000009900000000000990000000000000000000000000000000001000000000000003847000000000000380853000000000000009999123100010000000000000000BRBOQAACNPA3103
012013102451BORB4L      017BOREASA     PN *         R$  000000000369600000000036960000000003696000000000369600000000036960000000000000000000000369600001000000000001000000000000000003696000000000000000009999123100010000000000000000BRBORBACNPR3103
012013102414BOVA11      010ISHARES BOVACI           R$  000000000546600000000054660000000005313000000000535400000000053570000000005333000000000535704358000000000001906240000000010207853910000000000000009999123100000010000000000000BRBOVACTF003101
012013102496BOVA11F     020ISHARES BOVACI           R$  000000000542800000000054280000000005326000000000536300000000053420000000005300000000000543500012000000000000000046000000000000246714000000000000009999123100000010000000000000BRBOVACTF003101
012013102462BOVA11T     030ISHARES BOVACI        029R$  000000000538100000000053840000000005381000000000538200000000053840000000000000000000000000000008000000000000005000000000000026911477000000000000009999123100000010000000000000BRBOVACTF003101
012013102412BPFF11      010FII ABSOLUTOCI           R$  000000000840000000000084000000000008325000000000836500000000083960000000008325000000000839600022000000000000001533000000000012824582000000000000009999123100000010000000000000BRBPFFCTF002106
012013102402BPHA3       010BR PHARMA   ON      NM   R$  000000000084800000000008510000000000831000000000083900000000008430000000000836000000000084300604000000000000134900000000000113301300000000000000009999123100000010000000000000BRBPHAACNOR6102
012013102402BPNM4       010PANAMERICANOPN      N1   R$  000000000051800000000005210000000000516000000000051800000000005190000000000517000000000051900097000000000000126700000000000065723600000000000000009999123100000010000000000000BRBPNMACNPR6111
012013102496BPNM4F      020PANAMERICANOPN      N1   R$  000000000052100000000005210000000000518000000000051800000000005180000000000517000000000051800007000000000000000042000000000000021786000000000000009999123100000010000000000000BRBPNMACNPR6111
012013102402BRAP3       010BRADESPAR   ON      N1   R$  000000000214000000000021460000000002103000000000212100000000021050000000002105000000000213900021000000000000002900000000000006153700000000000000009999123100000010000000000000BRBRAPACNOR5124
012013102496BRAP3F      020BRADESPAR   ON      N1   R$  000000000210100000000021200000000002096000000000210000000000020960000000002101000000000219900007000000000000000116000000000000243714000000000000009999123100000010000000000000BRBRAPACNOR5124
012013102402BRAP4       010BRADESPAR   PN      N1   R$  000000000263000000000026400000000002569000000000259900000000026130000000002610000000000261304722000000000001577800000000004102045400000000000000009999123100000010000000000000BRBRAPACNPR2124
012013102496BRAP4F      020BRADESPAR   PN      N1   R$  000000000263000000000026440000000002521000000000259600000000026000000000002600000000000264000071000000000000002136000000000005547526000000000000009999123100000010000000000000BRBRAPACNPR2124
012013102462BRAP4T      030BRADESPAR   PN      N1018R$  000000000262400000000026250000000002624000000000262400000000026250000000000000000000000000000002000000000000000500000000000001312249000000000000009999123100000010000000000000BRBRAPACNPR2124
012013102462BRAP4T      030BRADESPAR   PN      N1032R$  000000000259900000000026000000000002599000000000259900000000026000000000000000000000000000000002000000000000000800000000000002079667000000000000009999123100000010000000000000BRBRAPACNPR2124
012013102462BRAP4T      030BRADESPAR   PN      N1060R$  000000000260700000000026080000000002607000000000260700000000026080000000000000000000000000000002000000000000002000000000000005215915000000000000009999123100000010000000000000BRBRAPACNPR2124
012013102478BRAPK27     070BRAP        PN      N1000R$  000000000006000000000000600000000000060000000000006000000000000600000000000000000000000000000001000000000000000100000000000000006000000000000270002013111800000010000000000000BRBRAPACNPR2124
012013102412BRCR11      010FII BC FUND CI           R$  000000001365000000000137150000000013555000000001364100000000136500000000013650000000001367501591000000000000018721000000000255385802000000000000009999123100000010000000000000BRBRCRCTF000134
012013102402BRFS3       010BRF SA      ON      NM   R$  000000000554200000000056030000000005475000000000552400000000055450000000005540000000000555004820000000000001453600000000008030499200000000000000009999123100000010000000000000BRBRFSACNOR8110
012013102496BRFS3F      020BRF SA      ON      NM   R$  000000000554300000000056400000000005480000000000552900000000056400000000005535000000000565000072000000000000002081000000000011506260000000000000009999123100000010000000000000BRBRFSACNOR8110
012013102462BRFS3S      030BRF SA      ON      NM090R$  000000000569600000000056970000000005696000000000569600000000056970000000000000000000000000000002000000000000000400000000000002278756000000000000009999123100000010000000000000BRBRFSACNOR8110
012013102462BRFS3T      030BRF SA      ON      NM016R$  000000000552700000000055280000000005527000000000552700000000055280000000000000000000000000000002000000000000003000000000000016581640000000000000009999123100000010000000000000BRBRFSACNOR8110
012013102462BRFS3T      030BRF SA      ON      NM018R$  000000000560800000000056090000000005608000000000560800000000056090000000000000000000000000000002000000000000001800000000000010095425000000000000009999123100000010000000000000BRBRFSACNOR8110
012013102462BRFS3T      030BRF SA      ON      NM032R$  000000000555500000000055570000000005555000000000555600000000055570000000000000000000000000000006000000000000001100000000000006112093000000000000009999123100000010000000000000BRBRFSACNOR8110
012013102478BRFSA57     070BRFS        ON      NM000R$  000000000021400000000002150000000000214000000000021400000000002150000000000000000000000000000002000000000000500000000000000107100000000000000570002014012000000010000000000000BRBRFSACNOR8110
012013102478BRFSK56     070BRFS        ON      NM000R$  000000000010700000000001070000000000107000000000010700000000001070000000000000000000000000000005000000000000012100000000000001294700000000000560002013111800000010000000000000BRBRFSACNOR8110
012013102478BRFSK57     070BRFS        ON      NM000R$  000000000005800000000000580000000000058000000000005800000000000580000000000000000000000000000001000000000000000100000000000000005800000000000570002013111800000010000000000000BRBRFSACNOR8110
012013102478BRFSL60     070BRFS        ON      NM000R$  000000000002700000000000270000000000027000000000002700000000000270000000000000000000000000000002000000000000060000000000000001620000000000000600002013121600000010000000000000BRBRFSACNOR8110
012013102402BRIN3       010BR INSURANCEON      NM   R$  000000000202600000000020270000000001979000000000198900000000019800000000001980000000000200500728000000000000170000000000000338282900000000000000009999123100000010000000000000BRBRINACNOR3106
012013102496BRIN3F      020BR INSURANCEON      NM   R$  000000000201600000000020160000000001980000000000200800000000019880000000001958000000000204100010000000000000000470000000000000943981000000000000009999123100000010000000000000BRBRINACNOR3106
012013102402BRIV3       010ALFA INVEST ON           R$  000000000065400000000006540000000000654000000000065400000000006540000000000654000000000068000001000000000000000200000000000000130800000000000000009999123100000010000000000000BRBRIVACNOR6197
012013102496BRIV4F      020ALFA INVEST PN           R$  000000000059600000000005960000000000596000000000059600000000005960000000000546000000000070000001000000000000000001000000000000000596000000000000009999123100000010000000000000BRBRIVACNPR3197
012013102402BRKM3       010BRASKEM     ON      N1   R$  000000000141500000000014150000000001390000000000139200000000013900000000001390000000000145000006000000000000002900000000000004039500000000000000009999123100000010000000000000BRBRKMACNOR1110
012013102402BRKM5       010BRASKEM     PNA     N1   R$  000000000200800000000020160000000001957000000000198000000000019830000000001975000000000198306954000000000001354200000000002681206800000000000000009999123100000010000000000000BRBRKMACNPA4110
012013102496BRKM5F      020BRASKEM     PNA     N1   R$  000000000200000000000020000000000001951000000000197200000000019790000000001965000000000197900039000000000000000815000000000001607831000000000000009999123100000010000000000000BRBRKMACNPA4110
012013102462BRKM5T      030BRASKEM     PNA     N1032R$  000000000200400000000020050000000001974000000000199000000000019750000000000000000000000000000006000000000000006000000000000011941720000000000000009999123100000010000000000000BRBRKMACNPA4110
012013102462BRKM5T      030BRASKEM     PNA     N1180R$  000000000211000000000021110000000002110000000000211000000000021110000000000000000000000000000002000000000000003500000000000007386202000000000000009999123100000010000000000000BRBRKMACNPA4110
012013102402BRML3       010BR MALLS PARON      NM   R$  000000000223600000000022620000000002184000000000220100000000022060000000002206000000000220907149000000000001870900000000004119080700000000000000009999123100000010000000000000BRBRMLACNOR9105
012013102496BRML3F      020BR MALLS PARON      NM   R$  000000000225300000000022530000000002180000000000220900000000021800000000002180000000000222400070000000000000001708000000000003773266000000000000009999123100000010000000000000BRBRMLACNOR9105
012013102402BRPR3       010BR PROPERT  ON      NM   R$  000000000190600000000019060000000001845000000000186000000000018690000000001869000000000187304945000000000001279300000000002380098200000000000000009999123100000010000000000000BRBRPRACNOR9112
012013102496BRPR3F      020BR PROPERT  ON      NM   R$  000000000189400000000019330000000001841000000000186600000000018410000000001840000000000193500037000000000000000979000000000001827338000000000000009999123100000010000000000000BRBRPRACNOR9112
012013102402BRSR6       010BANRISUL    PNB     N1   R$  000000000158700000000015920000000001547000000000156600000000015670000000001566000000000156701603000000000002484500000000003892446200000000000000009999123100000010000000000000BRBRSRACNPB4134
012013102496BRSR6F      020BANRISUL    PNB     N1   R$  000000000158000000000016440000000001541000000000157200000000015410000000001540000000000163500019000000000000000509000000000000799580000000000000009999123100000010000000000000BRBRSRACNPB4134
012013102462BRSR6T      030BANRISUL    PNB     N1090R$  000000000160300000000016040000000001603000000000160300000000016040000000000000000000000000000002000000000000000800000000000001282809000000000000009999123100000010000000000000BRBRSRACNPB4134
012013102402BSEV3       010BIOSEV      ON      NM   R$  000000000090300000000009360000000000903000000000092400000000009360000000000910000000000093600012000000000000009400000000000008691600000000000000009999123100000010000000000000BRBSEVACNOR3100
012013102496BSLI4F      020BRB BANCO   PN           R$  000000000280000000000028000000000002800000000000280000000000028000000000002201000000000280000001000000000000000001000000000000002800000000000000009999123100000010000000000000BRBSLIACNPR2147
012013102402BTOW3       010B2W DIGITAL ON      NM   R$  000000000168900000000017140000000001618000000000166200000000016240000000001624000000000162602052000000000000485300000000000806756400000000000000009999123100000010000000000000BRBTOWACNOR8105
012013102496BTOW3F      020B2W DIGITAL ON      NM   R$  000000000170000000000017190000000001620000000000166600000000016250000000001624000000000167000046000000000000001382000000000002300319000000000000009999123100000010000000000000BRBTOWACNOR8105
012013102462BTOW3T      030B2W DIGITAL ON      NM090R$  000000000167200000000016750000000001672000000000167300000000016750000000000000000000000000000004000000000000010000000000000016731995000000000000009999123100000010000000000000BRBTOWACNOR8105
012013102402BTTL3       010BATTISTELLA ON           R$  000000000009300000000000930000000000093000000000009300000000000930000000000085000000000009500001000000000000005000000000000000465000000000000000009999123100000010000000000000BRBTTLACNOR0105
012013102496BTTL3F      020BATTISTELLA ON           R$  000000000010000000000001000000000000100000000000010000000000001000000000000085000000000010000001000000000000000004000000000000000400000000000000009999123100000010000000000000BRBTTLACNOR0105
012013102402BTTL4       010BATTISTELLA PN           R$  000000000010000000000001000000000000098000000000009800000000001000000000000094000000000010000004000000000000003200000000000000314000000000000000009999123100000010000000000000BRBTTLACNPR7105
012013102496BTTL4F      020BATTISTELLA PN           R$  000000000010400000000001040000000000104000000000010400000000001040000000000104000000000010700001000000000000000070000000000000007280000000000000009999123100000010000000000000BRBTTLACNPR7105
012013102402BVMF3       010BMFBOVESPA  ON      NM   R$  000000000129000000000013000000000001272000000000128500000000012850000000001284000000000128515439000000000006128200000000007876005300000000000000009999123100000010000000000000BRBVMFACNOR3126
012013102496BVMF3F      020BMFBOVESPA  ON      NM   R$  000000000128800000000013000000000001274000000000128500000000012780000000001278000000000128300071000000000000002341000000000003008817000000000000009999123100000010000000000000BRBVMFACNOR3126
012013102462BVMF3T      030BMFBOVESPA  ON      NM060R$  000000000129800000000012990000000001298000000000129800000000012990000000000000000000000000000002000000000000001000000000000001298934000000000000009999123100000010000000000000BRBVMFACNOR3126
012013102462BVMF3T      030BMFBOVESPA  ON      NM120R$  000000000133600000000013370000000001336000000000133600000000013370000000000000000000000000000002000000000000003000000000000004010403000000000000009999123100000010000000000000BRBVMFACNOR3126
012013102478BVMFK11     070BVMF        ON      NM000R$  000000000020400000000002040000000000204000000000020400000000002040000000000146000000000020700001000000000000000100000000000000020400000000000108502013111800000010000000000000BRBVMFACNOR3125
012013102478BVMFK12     070BVMF        ON      NM000R$  000000000012400000000001240000000000105000000000011100000000001090000000000111000000000014000052000000000000033500000000000003722200000000000118502013111800000010000000000000BRBVMFACNOR3125
012013102478BVMFK13     070BVMF  FM    ON      NM000R$  000000000005200000000000530000000000034000000000003700000000000360000000000035000000000003700221000000000000490900000000000018614300000000000128502013111800000010000000000000BRBVMFACNOR3125
012013102478BVMFK14     070BVMF  FM    ON      NM000R$  000000000000700000000000080000000000005000000000000600000000000060000000000006000000000000700046000000000000127500000000000000816900000000000138502013111800000010000000000000BRBVMFACNOR3125
012013102478BVMFK42     070BVMF  FM    ON      NM000R$  000000000007000000000000710000000000058000000000006000000000000590000000000000000000000005600022000000000000041500000000000002493000000000000125002013111800000010000000000000BRBVMFACNOR3126
012013102478BVMFK43     070BVMF  FM    ON      NM000R$  000000000001500000000000150000000000011000000000001200000000000110000000000008000000000001400022000000000000046900000000000000566700000000000135002013111800000010000000000000BRBVMFACNOR3126
012013102478BVMFK44     070BVMF  FM    ON      NM000R$  000000000000200000000000020000000000002000000000000200000000000020000000000000000000000000000003000000000000004400000000000000008800000000000145002013111800000010000000000000BRBVMFACNOR3126
012013102478BVMFL13     070BVMF  FM    ON      NM000R$  000000000006700000000000670000000000056000000000006000000000000580000000000000000000000006300033000000000000065500000000000003951000000000000128502013121600000010000000000000BRBVMFACNOR3125
012013102478BVMFL14     070BVMF  FM    ON      NM000R$  000000000002600000000000260000000000020000000000002100000000000200000000000019000000000002300032000000000000076700000000000001634600000000000137402013121600000010000000000000BRBVMFACNOR3124
012013102478BVMFL15     070BVMF        ON      NM000R$  000000000000500000000000050000000000005000000000000500000000000050000000000001000000000000000005000000000000021000000000000000105000000000000148502013121600000010000000000000BRBVMFACNOR3125
012013102478BVMFL42     070BVMF  FM    ON      NM000R$  000000000009000000000000900000000000075000000000007900000000000780000000000000000000000000000009000000000000019500000000000001559300000000000125002013121600000010000000000000BRBVMFACNOR3126
012013102478BVMFL44     070BVMF  FM    ON      NM000R$  000000000000700000000000070000000000007000000000000700000000000070000000000000000000000000000002000000000000007400000000000000051800000000000145002013121600000010000000000000BRBVMFACNOR3126
012013102478BVMFL64     070BVMF  FM    ON      NM000R$  000000000001500000000000150000000000014000000000001400000000000140000000000000000000000000000009000000000000019500000000000000276700000000000140002013121600000010000000000000BRBVMFACNOR3126
012013102482BVMFM13     080BVMFE       ON      NM000R$  000000000006200000000000620000000000062000000000006200000000000620000000000000000000000000000001000000000000000100000000000000006200000000000130002014012000000010000000000000BRBVMFACNOR3126
012013102482BVMFW12     080BVMFE FM    ON      NM000R$  000000000000600000000000110000000000006000000000000900000000000100000000000008000000000001100022000000000000025400000000000000232500000000000118502013111800000010000000000000BRBVMFACNOR3125
012013102482BVMFW13     080BVMFE FM    ON      NM000R$  000000000003700000000000390000000000026000000000003300000000000350000000000026000000000003400040000000000000070300000000000002366700000000000128502013111800000010000000000000BRBVMFACNOR3125
012013102482BVMFW14     080BVMFE       ON      NM000R$  000000000009900000000000990000000000099000000000009900000000000990000000000000000000000011400001000000000000001000000000000000099000000000000138502013111800000010000000000000BRBVMFACNOR3125
012013102482BVMFW42     080BVMFE FM    ON      NM000R$  000000000001800000000000240000000000018000000000002100000000000240000000000000000000000000000030000000000000089100000000000001889300000000000125002013111800000010000000000000BRBVMFACNOR3126
012013102482BVMFW43     080BVMFE FM    ON      NM000R$  000000000006000000000000770000000000060000000000007000000000000770000000000000000000000000000023000000000000057800000000000004084700000000000135002013111800000010000000000000BRBVMFACNOR3126
012013102482BVMFX13     080BVMFE FM    ON      NM000R$  000000000003900000000000490000000000039000000000004400000000000490000000000032000000000005100027000000000000012200000000000000537500000000000128502013121600000010000000000000BRBVMFACNOR3125
012013102482BVMFX14     080BVMFE FM    ON      NM000R$  000000000008600000000000970000000000086000000000009100000000000970000000000000000000000000000020000000000000046000000000000004223200000000000137402013121600000010000000000000BRBVMFACNOR3124
012013102482BVMFX42     080BVMFE FM    ON      NM000R$  000000000003000000000000320000000000030000000000003100000000000320000000000000000000000000000002000000000000000300000000000000009400000000000125002013121600000010000000000000BRBVMFACNOR3126
012013102482BVMFX43     080BVMFE       ON      NM000R$  000000000005600000000000660000000000056000000000005900000000000660000000000000000000000000000004000000000000000600000000000000035900000000000131902013121600000010000000000000BRBVMFACNOR3126
012013102402CAMB4       010CAMBUCI     PN           R$  000000000018800000000001880000000000181000000000018700000000001810000000000181000000000018700010000000000000007200000000000001349100000000000000009999123100000010000000000000BRCAMBACNPR1117
012013102402CARD3       010CSU CARDSYSTON      NM   R$  000000000030000000000003000000000000297000000000029900000000003000000000000296000000000030000017000000000000023200000000000006948900000000000000009999123100000010000000000000BRCARDACNOR9105
012013102496CBMA3F      020COBRASMA    ON           R$  000000000000500000000000050000000000005000000000000500000000000050000000000004000000000000500002000000000000000030000000000000000150000000000000009999123100000010000000000000BRCBMAACNOR4124
012013102496CBMA4F      020COBRASMA    PN           R$  000000000000400000000000050000000000004000000000000400000000000050000000000004000000000000500003000000000000000240000000000000001000000000000000009999123100000010000000000000BRCBMAACNPR1124
012013102408CCHI3       010CHIARELLI   ON           R$  000000000001600000000000160000000000013000000000001400000000000140000000000013000000000001500045000000000000840000000000000012300000000000000000009999123100000010000000000000BRCCHIACNOR5123
012013102496CCHI3F      020CHIARELLI   ON           R$  000000000001600000000000160000000000014000000000001400000000000140000000000011000000000001300008000000000000013298000000000000196470000000000000009999123100000010000000000000BRCCHIACNOR5123
012013102408CCHI4       010CHIARELLI   PN           R$  000000000001100000000000110000000000009000000000001000000000000090000000000009000000000001200003000000000000030000000000000000300000000000000000009999123100000010000000000000BRCCHIACNPR2122
012013102496CCHI4F      020CHIARELLI   PN           R$  000000000001100000000000110000000000010000000000001000000000000100000000000009000000000001100002000000000000010000000000000000105000000000000000009999123100000010000000000000BRCCHIACNPR2122
012013102402CCPR3       010CYRE COM-CCPON      NM   R$  000000000207800000000020780000000002026000000000207600000000020260000000002025000000000207800010000000000000017600000000000036542200000000000000009999123100000010000000000000BRCCPRACNOR9107
012013102496CCPR3F      020CYRE COM-CCPON      NM   R$  000000000206700000000020670000000002067000000000206700000000020670000000002067000000000219000001000000000000000049000000000000101283000000000000009999123100000010000000000000BRCCPRACNOR9107
012013102402CCRO3       010CCR SA      ON      NM   R$  000000000184700000000018740000000001831000000000185400000000018540000000001854000000000185515537000000000004624500000000008574154200000000000000009999123100000010000000000000BRCCROACNOR2123
012013102496CCRO3F      020CCR SA      ON      NM   R$  000000000184600000000018780000000001801000000000185600000000018780000000001859000000000187800173000000000000005915000000000010981630000000000000009999123100000010000000000000BRCCROACNOR2123
012013102462CCRO3T      030CCR SA      ON      NM018R$  000000000186700000000018700000000001867000000000186800000000018700000000000000000000000000000004000000000000001800000000000003363334000000000000009999123100000010000000000000BRCCROACNOR2123
012013102462CCRO3T      030CCR SA      ON      NM032R$  000000000187200000000018730000000001846000000000186100000000018470000000000000000000000000000006000000000000003400000000000006330343000000000000009999123100000010000000000000BRCCROACNOR2123
012013102462CCRO3T      030CCR SA      ON      NM180R$  000000000193500000000019360000000001935000000000193500000000019360000000000000000000000000000008000000000000008000000000000015486192000000000000009999123100000010000000000000BRCCROACNOR2123
012013102402CCXC3       010CCX CARVAO  ON      NM   R$  000000000014400000000001450000000000134000000000013800000000001350000000000135000000000013601170000000000004778400000000000661460100000000000000009999123100000010000000000000BRCCXCACNOR5100
012013102496CCXC3F      020CCX CARVAO  ON      NM   R$  000000000014400000000001440000000000138000000000013800000000001380000000000135000000000013800005000000000000000166000000000000023071000000000000009999123100000010000000000000BRCCXCACNOR5100
012013102402CEEB3       010COELBA      ON           R$  000000000324000000000033000000000003240000000000328000000000033000000000003210000000000335000003000000000000000400000000000001312000000000000000009999123100000010000000000000BRCEEBACNOR3163
012013102412CEOC11B     010FII CEO CCP CI      MB   R$  000000000868900000000086890000000008560000000000863400000000086500000000008610000000000865000017000000000000000599000000000005172041000000000000009999123100000010000000000000BRCEOCCTF003111
012013102496CEPE5F      020CELPE       PNA          R$  000000000215000000000021500000000002150000000000215000000000021500000000002150000000000256300001000000000000000006000000000000012900000000000000009999123100000010000000000000BRCEPEACNPA6151
012013102402CESP3       010CESP        ON      N1   R$  000000000195900000000019590000000001955000000000195800000000019590000000001913000000000195900008000000000000006100000000000011947900000000000000009999123100000010000000000000BRCESPACNOR3160
012013102402CESP5       010CESP        PNA     N1   R$  000000000224000000000022400000000002113000000000221800000000021130000000002113000000000227000005000000000000000600000000000001331300000000000000009999123100000010000000000000BRCESPACNPA6108
012013102402CESP6       010CESP        PNB     N1   R$  000000000224000000000022420000000002200000000000221400000000022300000000002222000000000223002444000000000000410400000000000908975800000000000000009999123100000010000000000000BRCESPACNPB4119
012013102496CESP6F      020CESP        PNB     N1   R$  000000000223100000000022340000000002203000000000221600000000022220000000002202000000000222200018000000000000000509000000000001128349000000000000009999123100000010000000000000BRCESPACNPB4119
012013102402CGAS3       010COMGAS      ON           R$  000000000520100000000054000000000005200000000000529100000000054000000000005190000000000550000006000000000000001100000000000005820200000000000000009999123100000010000000000000BRCGASACNOR0132
012013102496CGAS3F      020COMGAS      ON           R$  000000000549900000000054990000000005499000000000549900000000054990000000004511000000000550000001000000000000000001000000000000005499000000000000009999123100000010000000000000BRCGASACNOR0132
012013102402CGAS5       010COMGAS      PNA          R$  000000000589900000000059570000000005884000000000590700000000059200000000005900000000000592000067000000000000011300000000000066754400000000000000009999123100000010000000000000BRCGASACNPA3129
012013102496CGAS5F      020COMGAS      PNA          R$  000000000589700000000060000000000005811000000000591700000000060000000000005915000000000600000010000000000000000214000000000001266414000000000000009999123100000010000000000000BRCGASACNPA3129
012013102402CGRA3       010GRAZZIOTIN  ON           R$  000000000167000000000016700000000001654000000000165500000000016540000000001653000000000167000002000000000000001600000000000002648000000000000000009999123100000010000000000000BRCGRAACNOR2061
012013102402CGRA4       010GRAZZIOTIN  PN           R$  000000000175100000000017600000000001751000000000175700000000017600000000001755000000000176000006000000000000000700000000000001230000000000000000009999123100000010000000000000BRCGRAACNPR9061
012013102496CGRA4F      020GRAZZIOTIN  PN           R$  000000000190000000000019000000000001752000000000183400000000017520000000001752000000000179900004000000000000000108000000000000198124000000000000009999123100000010000000000000BRCGRAACNPR9061
012013102402CIEL3       010CIELO       ON      NM   R$  000000000658100000000066440000000006450000000000655800000000065250000000006521000000000652504582000000000000957900000000006282211900000000000000009999123100000010000000000000BRCIELACNOR3112
012013102496CIEL3F      020CIELO       ON      NM   R$  000000000658500000000066400000000006445000000000654600000000065400000000006515000000000654000139000000000000003105000000000020327650000000000000009999123100000010000000000000BRCIELACNOR3112
012013102462CIEL3T      030CIELO       ON      NM018R$  000000000655000000000065510000000006550000000000655000000000065510000000000000000000000000000002000000000000000400000000000002620138000000000000009999123100000010000000000000BRCIELACNOR3112
012013102478CIELA66     070CIEL        ON      NM000R$  000000000032500000000003260000000000325000000000032500000000003260000000000000000000000000000002000000000000040000000000000013010000000000000660002014012000000010000000000000BRCIELACNOR3112
012013102496CIQU4F      020CACIQUE     PN           R$  000000000090000000000009000000000000900000000000090000000000009000000000000700000000000090000001000000000000000001000000000000000900000000000000009999123100000010000000000000BRCIQUACNPR5157
012013102402CLSC4       010CELESC      PN      N2   R$  000000000183300000000018450000000001810000000000182500000000018250000000001807000000000182500037000000000000013100000000000023917600000000000000009999123100000010000000000000BRCLSCACNPR3107
012013102496CLSC4F      020CELESC      PN      N2   R$  000000000180000000000018500000000001800000000000180300000000018500000000001801000000000189800003000000000000000013000000000000023450000000000000009999123100000010000000000000BRCLSCACNPR3107
012013102462CLSC4T      030CELESC      PN      N2090R$  000000000188200000000018840000000001882000000000188300000000018840000000000000000000000000000004000000000000001000000000000001883132000000000000009999123100000010000000000000BRCLSCACNPR3107
012013102402CMCS34      010COMCAST     DRN          R$  000000001049000000000104900000000010490000000001049000000000104900000000010425000000001060000001000000000000000100000000000001049000000000000000009999123100000010000000000000BRCMCSBDR008107
012013102402CMIG3       010CEMIG       ON      N1   R$  000000000198100000000020030000000001952000000000196000000000019600000000001960000000000196600267000000000000122800000000000240741800000000000000009999123100000010000000000000BRCMIGACNOR6208
012013102496CMIG3F      020CEMIG       ON      N1   R$  000000000198700000000019870000000001950000000000196700000000019860000000001959000000000203500016000000000000000341000000000000670977000000000000009999123100000010000000000000BRCMIGACNOR6208
012013102402CMIG4       010CEMIG       PN      N1   R$  000000000200000000000020070000000001950000000000196800000000019650000000001964000000000196508334000000000002699500000000005313445700000000000000009999123100000010000000000000BRCMIGACNPR3208
012013102496CMIG4F      020CEMIG       PN      N1   R$  000000000201400000000020140000000001951000000000197200000000019900000000001963000000000199000141000000000000003458000000000006822628000000000000009999123100000010000000000000BRCMIGACNPR3208
012013102462CMIG4T      030CEMIG       PN      N1032R$  000000000198400000000019850000000001984000000000198400000000019850000000000000000000000000000004000000000000000600000000000001190746000000000000009999123100000010000000000000BRCMIGACNPR3208
012013102462CMIG4T      030CEMIG       PN      N1060R$  000000000202500000000020260000000002025000000000202500000000020260000000000000000000000000000002000000000000001500000000000003038958000000000000009999123100000010000000000000BRCMIGACNPR3208
012013102462CMIG4T      030CEMIG       PN      N1090R$  000000000201000000000020110000000002010000000000201000000000020110000000000000000000000000000002000000000000005000000000000010052940000000000000009999123100000010000000000000BRCMIGACNPR3208
012013102412CNES11B     010FII CENESP  CI  ER  MB   R$  000000001280000000000128000000000012800000000001280000000000128000000000012801000000001293000001000000000000000010000000000000128000000000000000009999123100000010000000000000BRCNESCTF001127
012013102402COCA34      010COCA COLA   DRN          R$  000000000862700000000086270000000008627000000000862700000000086270000000008477000000000881600001000000000000000100000000000000862700000000000000009999123100000010000000000000BRCOCABDR002109
012013102402COCE3       010COELCE      ON           R$  000000000400000000000040480000000004000000000000401500000000040290000000004000000000000403000018000000000000004300000000000017265400000000000000009999123100000010000000000000BRCOCEACNOR0132
012013102402COCE5       010COELCE      PNA          R$  000000000388200000000039350000000003862000000000390300000000039150000000003915000000000393300274000000000000373900000000001459339500000000000000009999123100000010000000000000BRCOCEACNPA3133
012013102496COCE5F      020COELCE      PNA          R$  000000000390000000000039330000000003868000000000389400000000039330000000003882000000000393300013000000000000000137000000000000533499000000000000009999123100000010000000000000BRCOCEACNPA3133
012013102462COCE5T      030COELCE      PNA       090R$  000000000396100000000039620000000003961000000000396100000000039620000000000000000000000000000002000000000000000100000000000000396109000000000000009999123100000010000000000000BRCOCEACNPA3133
012013102402CPFE3       010CPFL ENERGIAON      NM   R$  000000000200500000000020180000000001940000000000196300000000019700000000001955000000000197004237000000000001028900000000002019799600000000000000009999123100000010000000000000BRCPFEACNOR0122
012013102496CPFE3F      020CPFL ENERGIAON      NM   R$  000000000201400000000020140000000001946000000000196300000000019600000000001950000000000201900034000000000000000826000000000001622798000000000000009999123100000010000000000000BRCPFEACNOR0122
012013102462CPFE3S      030CPFL ENERGIAON      NM090R$  000000000205700000000020580000000002057000000000205700000000020580000000000000000000000000000002000000000000001000000000000002057637000000000000009999123100000010000000000000BRCPFEACNOR0122
012013102462CPFE3T      030CPFL ENERGIAON      NM120R$  000000000202300000000020240000000002023000000000202300000000020240000000000000000000000000000002000000000000005000000000000010115950000000000000009999123100000010000000000000BRCPFEACNOR0122
012013102402CPLE3       010COPEL       ON      N1   R$  000000000222500000000022460000000002179000000000219600000000021920000000002185000000000219300254000000000000089200000000000195926500000000000000009999123100000010000000000000BRCPLEACNOR8128
012013102496CPLE3F      020COPEL       ON      N1   R$  000000000239000000000023900000000002148000000000222700000000021480000000002101000000000214800007000000000000000134000000000000298447000000000000009999123100000010000000000000BRCPLEACNOR8128
012013102402CPLE6       010COPEL       PNB     N1   R$  000000000312600000000031260000000003026000000000304900000000030570000000003057000000000305804821000000000000795000000000002423887800000000000000009999123100000010000000000000BRCPLEACNPB9125
012013102496CPLE6F      020COPEL       PNB     N1   R$  000000000310100000000031010000000002961000000000306400000000029610000000002961000000000300500026000000000000000652000000000001992529000000000000009999123100000010000000000000BRCPLEACNPB9125
012013102462CPLE6T      030COPEL       PNB     N1018R$  000000000304800000000030490000000003048000000000304800000000030490000000000000000000000000000002000000000000003000000000000009144495000000000000009999123100000010000000000000BRCPLEACNPB9125
012013102402CPRE3       010CPFL RENOVAVON      NM   R$  000000000135900000000013590000000001335000000000133500000000013500000000001336000000000135000010000000000000037400000000000049950300000000000000009999123100000010000000000000BRCPREACNOR5100
012013102496CPRE3F      020CPFL RENOVAVON      NM   R$  000000000133500000000013640000000001335000000000136200000000013640000000001209000000000136400003000000000000000043000000000000058594000000000000009999123100000010000000000000BRCPREACNOR5100
012013102402CRDE3       010CR2         ON      NM   R$  000000000039100000000003910000000000391000000000039100000000003910000000000385000000000039500001000000000000000100000000000000039100000000000000009999123100000010000000000000BRCRDEACNOR1108
012013102402CREM3       010CREMER      ON      NM   R$  000000000155800000000015620000000001526000000000155400000000015400000000001530000000000154000019000000000000005500000000000008548000000000000000009999123100000010000000000000BRCREMACNOR2167
012013102402CRIV3       010ALFA FINANC ON           R$  000000000054300000000005430000000000543000000000054300000000005430000000000000000000000054200001000000000000000100000000000000054300000000000000009999123100000010000000000000BRCRIVACNOR4190
012013102402CRIV4       010ALFA FINANC PN           R$  000000000043600000000004390000000000436000000000043800000000004390000000000435000000000043900003000000000000006800000000000002979800000000000000009999123100000010000000000000BRCRIVACNPR1190
012013102402CRUZ3       010SOUZA CRUZ  ON           R$  000000000246400000000025190000000002450000000000247000000000024780000000002478000000000248006241000000000001468100000000003627319100000000000000009999123100000010000000000000BRCRUZACNOR0248
012013102496CRUZ3F      020SOUZA CRUZ  ON           R$  000000000248900000000025100000000002452000000000247200000000024620000000002461000000000248000048000000000000001166000000000002883315000000000000009999123100000010000000000000BRCRUZACNOR0248
012013102462CRUZ3T      030SOUZA CRUZ  ON        032R$  000000000249200000000024930000000002492000000000249200000000024930000000000000000000000000000002000000000000000500000000000001246410000000000000009999123100000010000000000000BRCRUZACNOR0248
012013102462CRUZ3T      030SOUZA CRUZ  ON        090R$  000000000252900000000025300000000002529000000000252900000000025300000000000000000000000000000002000000000000000300000000000000758937000000000000009999123100000010000000000000BRCRUZACNOR0248
012013102402CSAN3       010COSAN       ON      NM   R$  000000000440000000000044480000000004311000000000436300000000043400000000004340000000000434204396000000000001085300000000004735650700000000000000009999123100000010000000000000BRCSANACNOR6108
012013102496CSAN3F      020COSAN       ON      NM   R$  000000000439900000000044440000000004311000000000436500000000043450000000004311000000000444300068000000000000002110000000000009208787000000000000009999123100000010000000000000BRCSANACNOR6108
012013102462CSAN3T      030COSAN       ON      NM018R$  000000000439400000000043950000000004350000000000437200000000043510000000000000000000000000000004000000000000002000000000000008745177000000000000009999123100000010000000000000BRCSANACNOR6108
012013102462CSAN3T      030COSAN       ON      NM090R$  000000000452400000000045290000000004437000000000450400000000044500000000000000000000000000000024000000000000163300000000000735512402000000000000009999123100000010000000000000BRCSANACNOR6108
012013102402CSCO34      010CISCO       DRN          R$  000000000491500000000049150000000004915000000000491500000000049150000000004890000000000497500001000000000000000100000000000000491500000000000000009999123100000010000000000000BRCSCOBDR004111
012013102402CSMG3       010COPASA      ON      NM   R$  000000000377500000000038010000000003729000000000376300000000037900000000003750000000000379001039000000000000173000000000000651162200000000000000009999123100000010000000000000BRCSMGACNOR5128
012013102496CSMG3F      020COPASA      ON      NM   R$  000000000381000000000038100000000003739000000000377900000000037650000000003700000000000375000007000000000000000150000000000000566635000000000000009999123100000010000000000000BRCSMGACNOR5128
012013102414CSMO11      010ISHARES CSMOCI           R$  000000000480000000000048000000000004800000000000480000000000048000000000004700000000000491000001000000000000000050000000000000240000000000000000009999123100000010000000000000BRCSMOCTF002100
012013102402CSNA3       010SID NACIONALON           R$  000000000122500000000012330000000001181000000000120000000000011880000000001188000000000119013172000000000008850300000000010622130300000000000000009999123100000010000000000000BRCSNAACNOR6243
012013102496CSNA3F      020SID NACIONALON           R$  000000000122500000000012250000000001184000000000120100000000011910000000001187000000000119200057000000000000001469000000000001764089000000000000009999123100000010000000000000BRCSNAACNOR6243
012013102462CSNA3T      030SID NACIONALON        060R$  000000000120400000000012050000000001204000000000120400000000012050000000000000000000000000000002000000000000000300000000000000361461000000000000009999123100000010000000000000BRCSNAACNOR6243
012013102478CSNAA14     070CSNA        ON        000R$  000000000005100000000000520000000000050000000000005100000000000500000000000000000000000000000004000000000000054700000000000002796900000000000140002014012000000010000000000000BRCSNAACNOR6243
012013102478CSNAB6      070CSNA        ON        000R$  000000000002300000000000230000000000022000000000002200000000000230000000000023000000000000000006000000000000700200000000000015839100000000000154702014021700000010000000000000BRCSNAACNOR6241
012013102478CSNAK1      070CSNA        ON        000R$  000000000020900000000002100000000000209000000000020900000000002100000000000000000000000000000003000000000001000000000000000209400000000000000100002013111800000010000000000000BRCSNAACNOR6243
012013102478CSNAK10     070CSNA        ON        000R$  000000000021700000000002170000000000217000000000021700000000002170000000000000000000000027000001000000000000000300000000000000065100000000000098002013111800000010000000000000BRCSNAACNOR6242
012013102478CSNAK11     070CSNA        ON        000R$  000000000012500000000001250000000000110000000000012400000000001130000000000100000000000000000077000000000001059400000000000131791900000000000110002013111800000010000000000000BRCSNAACNOR6243
012013102478CSNAK12     070CSNA  FM    ON        000R$  000000000006700000000000670000000000050000000000005400000000000530000000000047000000000005400028000000000000053400000000000002933200000000000120002013111800000010000000000000BRCSNAACNOR6243
012013102478CSNAK13     070CSNA  FM    ON        000R$  000000000002100000000000220000000000016000000000001800000000000180000000000010000000000001800026000000000000063600000000000001202800000000000130002013111800000010000000000000BRCSNAACNOR6243
012013102478CSNAK40     070CSNA        ON        000R$  000000000019000000000001900000000000165000000000017500000000001650000000000000000000000000000005000000000000002400000000000000422000000000000104002013111800000010000000000000BRCSNAACNOR6243
012013102478CSNAK41     070CSNA  FM    ON        000R$  000000000009100000000000910000000000078000000000008600000000000780000000000000000000000000000003000000000000007400000000000000642200000000000115002013111800000010000000000000BRCSNAACNOR6243
012013102478CSNAK42     070CSNA  FM    ON        000R$  000000000003200000000000350000000000027000000000003100000000000320000000000000000000000000000020000000000000050000000000000001573000000000000125002013111800000010000000000000BRCSNAACNOR6243
012013102478CSNAK43     070CSNA  FM    ON        000R$  000000000001000000000000100000000000010000000000001000000000000100000000000000000000000000000004000000000000014000000000000000140000000000000135002013111800000010000000000000BRCSNAACNOR6243
012013102478CSNAL11     070CSNA        ON        000R$  000000000019500000000001950000000000180000000000019100000000001800000000000000000000000000000003000000000000006400000000000001227000000000000104702013121600000010000000000000BRCSNAACNOR6241
012013102478CSNAL12     070CSNA  FM    ON        000R$  000000000012700000000001270000000000106000000000011300000000001060000000000065000000000000000007000000000000013400000000000001517800000000000114702013121600000010000000000000BRCSNAACNOR6241
012013102478CSNAL13     070CSNA  FM    ON        000R$  000000000005000000000000500000000000038000000000004200000000000420000000000000000000000000000024000000000000065900000000000002786500000000000130002013121600000010000000000000BRCSNAACNOR6243
012013102478CSNAL2      070CSNA  FM    ON        000R$  000000000007000000000000700000000000055000000000005800000000000600000000000000000000000000000018000000000000042200000000000002482400000000000125002013121600000010000000000000BRCSNAACNOR6243
012013102478CSNAL20     070CSNA        ON        000R$  000000000019600000000001960000000000190000000000019300000000001920000000000000000000000019200025000000000000054600000000000010567200000000000102002013121600000010000000000000BRCSNAACNOR6243
012013102478CSNAL42     070CSNA  FM    ON        000R$  000000000009700000000000970000000000080000000000008600000000000800000000000010000000000000000006000000000000015000000000000001292000000000000119702013121600000010000000000000BRCSNAACNOR6241
012013102478CSNAL43     070CSNA  FM    ON        000R$  000000000003600000000000360000000000027000000000003000000000000270000000000000000000000000000032000000000000082300000000000002519300000000000135002013121600000010000000000000BRCSNAACNOR6243
012013102482CSNAM12     080CSNAE       ON        000R$  000000000008000000000000800000000000080000000000008000000000000800000000000079000000000009500001000000000000000100000000000000008000000000000120002014012000000010000000000000BRCSNAACNOR6243
012013102482CSNAN10     080CSNAE       ON        000R$  000000000003600000000000360000000000036000000000003600000000000360000000000000000000000000000002000000000006000000000000000216000000000000000100002014021700000010000000000000BRCSNAACNOR6243
012013102482CSNAN41     080CSNAE       ON        000R$  000000000008200000000000830000000000082000000000008200000000000830000000000000000000000000000003000000000006000000000000000495000000000000000115002014021700000010000000000000BRCSNAACNOR6243
012013102482CSNAW1      080CSNAE       ON        000R$  000000000001000000000000100000000000008000000000000900000000000080000000000000000000000000000002000000000000800000000000000007400000000000000100002013111800000010000000000000BRCSNAACNOR6243
012013102482CSNAW11     080CSNAE FM    ON        000R$  000000000001600000000000230000000000016000000000002100000000000220000000000015000000000002200043000000000000046600000000000000981700000000000110002013111800000010000000000000BRCSNAACNOR6243
012013102482CSNAW12     080CSNAE FM    ON        000R$  000000000003800000000000610000000000037000000000005200000000000610000000000050000000000006200109000000000000136000000000000007204400000000000120002013111800000010000000000000BRCSNAACNOR6243
012013102482CSNAW41     080CSNAE FM    ON        000R$  000000000003300000000000380000000000033000000000003700000000000360000000000000000000000000000036000000000000890000000000000033105000000000000115002013111800000010000000000000BRCSNAACNOR6243
012013102482CSNAW42     080CSNAE FM    ON        000R$  000000000007200000000000880000000000072000000000008500000000000860000000000000000000000000000010000000000000017400000000000001487800000000000125002013111800000010000000000000BRCSNAACNOR6243
012013102482CSNAX10     080CSNAE       ON        000R$  000000000001700000000000170000000000017000000000001700000000000170000000000011000000000002700001000000000000005000000000000000085000000000000100002013121600000010000000000000BRCSNAACNOR6243
012013102482CSNAX11     080CSNAE       ON        000R$  000000000001800000000000260000000000018000000000002000000000000250000000000015000000000002500015000000000000004100000000000000082100000000000104702013121600000010000000000000BRCSNAACNOR6241
012013102482CSNAX12     080CSNAE FM    ON        000R$  000000000003800000000000560000000000038000000000005300000000000550000000000045000000000005500038000000000000023700000000000001264900000000000114702013121600000010000000000000BRCSNAACNOR6241
012013102482CSNAX2      080CSNAE FM    ON        000R$  000000000008200000000001070000000000082000000000009700000000001060000000000000000000000000000029000000000000046700000000000004557200000000000125002013121600000010000000000000BRCSNAACNOR6243
012013102482CSNAX41     080CSNAE FM    ON        000R$  000000000002900000000000390000000000029000000000003200000000000390000000000000000000000000000006000000000000008600000000000000283400000000000110002013121600000010000000000000BRCSNAACNOR6243
012013102482CSNAX42     080CSNAE FM    ON        000R$  000000000006100000000000780000000000061000000000007300000000000770000000000000000000000000000014000000000000026000000000000001922000000000000119702013121600000010000000000000BRCSNAACNOR6241
012013102402CTAX11      010CONTAX      UNT     N2   R$  000000000187900000000018800000000001845000000000186000000000018800000000001844000000000188000052000000000000028600000000000053198900000000000000009999123100000010000000000000BRCTAXCDAM19100
012013102462CTAX11T     030CONTAX      UNT     N2090R$  000000000190800000000019090000000001908000000000190800000000019090000000000000000000000000000002000000000000001500000000000002863318000000000000009999123100000010000000000000BRCTAXCDAM19100
012013102402CTAX3       010CONTAX      ON      N2   R$  000000000035600000000003760000000000356000000000036400000000003760000000000355000000000038600006000000000000000600000000000000218400000000000000009999123100000010000000000000BRCTAXACNOR3113
012013102402CTAX4       010CONTAX      PN      N2   R$  000000000036600000000003680000000000365000000000036600000000003650000000000365000000000037000015000000000000002500000000000000916500000000000000009999123100000010000000000000BRCTAXACNPR0114
012013102496CTAX4F      020CONTAX      PN      N2   R$  000000000038500000000003850000000000385000000000038500000000003850000000000344000000000043200001000000000000000001000000000000000385000000000000009999123100000010000000000000BRCTAXACNPR0114
012013102402CTGP34      010CITIGROUP   DRN          R$  000000001102300000000110230000000011023000000001102300000000110230000000010995000000001112500001000000000000000100000000000001102300000000000000009999123100000010000000000000BRCTGPBDR000111
012013102402CTIP3       010CETIP       ON      NM   R$  000000000243900000000024740000000002428000000000244300000000024580000000002454000000000246004239000000000001180400000000002884100300000000000000009999123100000010000000000000BRCTIPACNOR2120
012013102496CTIP3F      020CETIP       ON      NM   R$  000000000243000000000024850000000002420000000000244000000000024700000000002421000000000249900014000000000000000436000000000001063994000000000000009999123100000010000000000000BRCTIPACNOR2120
012013102402CTKA4       010KARSTEN     PN           R$  000000000009600000000000960000000000096000000000009600000000000960000000000095000000000009600011000000000000001700000000000000163200000000000000009999123100000010000000000000BRCTKAACNPR7041
012013102402CTNM4       010COTEMINAS   PN           R$  000000000023000000000002370000000000230000000000023100000000002370000000000230000000000023700034000000000000033300000000000007717900000000000000009999123100000010000000000000BRCTNMACNPR6128
012013102496CTSA4F      020SANTANENSE  PN           R$  000000000061000000000006100000000000610000000000061000000000006100000000000555000000000061000001000000000000000012000000000000007320000000000000009999123100000010000000000000BRCTSAACNPR0051
012013102412CXCE11B     010FII CX CEDAECI      MB   R$  000000019200000000001930110000000192000000000019218900000001930000000000191600000000019387900004000000000000000037000000000007111022000000000000009999123100000010000000000000BRCXCECTF004139
012013102412CXTL11      010FII CX TRX  CI           R$  000000007180000000000718000000000070900000000007135800000000715020000000071100000000007250000004000000000000000012000000000000856304000000000000009999123100000010000000000000BRCXTLCTF003123
012013102402CYRE3       010CYRELA REALTON      NM   R$  000000000169700000000016990000000001651000000000166500000000016730000000001670000000000167306736000000000001908200000000003178043600000000000000009999123100000010000000000000BRCYREACNOR7125
012013102496CYRE3F      020CYRELA REALTON      NM   R$  000000000168700000000017010000000001656000000000166700000000016860000000001651000000000168600035000000000000000690000000000001150490000000000000009999123100000010000000000000BRCYREACNOR7125
012013102462CYRE3T      030CYRELA REALTON      NM025R$  000000000168500000000016860000000001685000000000168500000000016860000000000000000000000000000002000000000000000100000000000000168589000000000000009999123100000010000000000000BRCYREACNOR7125
012013102478CYREK16     070CYRE        ON      NM000R$  000000000009700000000000970000000000097000000000009700000000000970000000000000000000000000000001000000000000000100000000000000009700000000000160002013111800000010000000000000BRCYREACNOR7125
012013102478CYREK17     070CYRE  FM    ON      NM000R$  000000000004500000000000450000000000031000000000003300000000000360000000000000000000000000000004000000000000011400000000000000379000000000000170002013111800000010000000000000BRCYREACNOR7125
012013102478CYREK18     070CYRE  FM    ON      NM000R$  000000000001200000000000140000000000012000000000001300000000000140000000000000000000000000000008000000000000019500000000000000270000000000000180002013111800000010000000000000BRCYREACNOR7125
012013102478CYREK45     070CYRE        ON      NM000R$  000000000013700000000001370000000000137000000000013700000000001370000000000000000000000000000003000000000000002700000000000000369900000000000155002013111800000010000000000000BRCYREACNOR7125
012013102478CYREK46     070CYRE  FM    ON      NM000R$  000000000007900000000000790000000000055000000000005800000000000630000000000000000000000000000011000000000000015700000000000000924300000000000165002013111800000010000000000000BRCYREACNOR7125
012013102478CYREK47     070CYRE  FM    ON      NM000R$  000000000002400000000000260000000000024000000000002500000000000250000000000000000000000000000007000000000000015000000000000000384500000000000175002013111800000010000000000000BRCYREACNOR7125
012013102478CYREK48     070CYRE  FM    ON      NM000R$  000000000000700000000000070000000000007000000000000700000000000070000000000000000000000000000004000000000000010500000000000000073500000000000185002013111800000010000000000000BRCYREACNOR7125
012013102478CYREL17     070CYRE  FM    ON      NM000R$  000000000010200000000001020000000000090000000000009600000000000900000000000000000000000000000010000000000000017500000000000001682000000000000165002013121600000010000000000000BRCYREACNOR7124
012013102478CYREL19     070CYRE        ON      NM000R$  000000000001300000000000130000000000013000000000001300000000000130000000000000000000000000000002000000000000002000000000000000026000000000000190002013121600000010000000000000BRCYREACNOR7125
012013102478CYREL47     070CYRE  FM    ON      NM000R$  000000000005000000000000510000000000041000000000004600000000000420000000000000000000000000000017000000000000018800000000000000877800000000000175002013121600000010000000000000BRCYREACNOR7125
012013102478CYREL48     070CYRE  FM    ON      NM000R$  000000000002100000000000210000000000021000000000002100000000000210000000000000000000000000000006000000000000006000000000000000126000000000000185002013121600000010000000000000BRCYREACNOR7125
