00COTAHIST.2013BOVESPA 20130821                                                                                                                                                                                                                      
012013082102AAPL11B     010APPLE       DRN     MB   R$  000000001227000000000123000000000012225000000001224300000000123000000000012230000000001237500004000000000000005300000000000064892000000000000000009999123100000010000000000000BRAAPLBDR004105
012013082150ABCB10L     017ABC BRASIL  PN  REC N2   R$  000000000114100000000011410000000001141000000000114100000000011410000000001141000000000000000003000000000000010493000000000011972513000000000000009999123100000010000000000000BRABCBR04PR3119
012013082102ABCB4       010ABC BRASIL  PN      N2   R$  000000000119100000000011940000000001177000000000118800000000011850000000001185000000000119200668000000000000187200000000000222448200000000000000009999123100000010000000000000BRABCBACNPR4120
012013082196ABCB4F      020ABC BRASIL  PN      N2   R$  000000000119200000000011920000000001190000000000119100000000011900000000001176000000000119900004000000000000000155000000000000184630000000000000009999123100000010000000000000BRABCBACNPR4120
012013082162ABCB4T      030ABC BRASIL  PN      N2030R$  000000000119500000000011960000000001195000000000119500000000011960000000000000000000000000000002000000000000042700000000000051037209000000000000009999123100000010000000000000BRABCBACNPR4120
012013082112ABCP11      010FII ABC IMOBCI           R$  000000000094900000000009490000000000949000000000094900000000009490000000000906000000000094900001000000000000000065000000000000061685000000000000009999123100000010000000000000BRABCPCTF000214
012013082102ABRE11      010ABRIL EDUCA UNT     N2   R$  000000000321100000000033410000000003175000000000324300000000033000000000003279000000000330001297000000000000440800000000001429730600000000000000009999123100000010000000000000BRABRECDAM15102
012013082196ABRE11F     020ABRIL EDUCA UNT     N2   R$  000000000315100000000033350000000003151000000000324000000000033200000000003165000000000332000021000000000000000588000000000001905478000000000000009999123100000010000000000000BRABRECDAM15102
012013082102ABTT11B     010ABBOTT      DRN     MB   R$  000000000210000000000021000000000002100000000000210000000000021000000000002100000000000214000001000000000000012300000000000025830000000000000000009999123100000010000000000000BRABTTBDR007107
012013082102AEDU3       010ANHANGUERA  ON      NM   R$  000000000128000000000012950000000001244000000000127100000000012550000000001255000000000125905899000000000003635100000000004621739900000000000000009999123100000010000000000000BRAEDUACNOR9107
012013082196AEDU3F      020ANHANGUERA  ON      NM   R$  000000000128000000000012990000000001241000000000126000000000012500000000001240000000000125000024000000000000000734000000000000924463000000000000009999123100000010000000000000BRAEDUACNOR9107
012013082162AEDU3T      030ANHANGUERA  ON      NM030R$  000000000127800000000012790000000001265000000000126700000000012660000000000000000000000000000004000000000000017700000000000022430824000000000000009999123100000010000000000000BRAEDUACNOR9107
012013082178AEDUI13     070AEDU        ON      NM000R$  000000000002900000000000290000000000029000000000002900000000000290000000000000000000000000000001000000000000001500000000000000043500000000000130002013091600000010000000000000BRAEDUACNOR9107
012013082112AEFI11      010FII AESAPAR CI           R$  000000001254900000000125490000000012375000000001239000000000124000000000012376000000001249900015000000000000000550000000000006814629000000000000009999123100000010000000000000BRAEFICTF002120
012013082102AELP3       010AES ELPA    ON           R$  000000000082200000000008220000000000822000000000082200000000008220000000000755000000000081200003000000000000000300000000000000246600000000000000009999123100000010000000000000BRAELPACNOR2119
012013082112AGCX11      010FII AG CAIXACI           R$  000000009930000000000995000000000099101000000009918000000000994000000000099125000000009939900010000000000000000049000000000004859841000000000000009999123100000010000000000000BRAGCXCTF003109
012013082102AGRO3       010BRASILAGRO  ON      NM   R$  000000000093000000000009450000000000910000000000092000000000009290000000000920000000000093500037000000000000027200000000000025032000000000000000009999123100000010000000000000BRAGROACNOR7102
012013082162AGRO3T      030BRASILAGRO  ON      NM061R$  000000000093300000000009340000000000927000000000092700000000009280000000000000000000000000000004000000000000014500000000000013449559000000000000009999123100000010000000000000BRAGROACNOR7102
012013082102ALLL3       010ALL AMER LATON      NM   R$  000000000084800000000008690000000000841000000000085500000000008550000000000854000000000085810961000000000003190600000000002728698800000000000000009999123100000010000000000000BRALLLACNOR6118
012013082196ALLL3F      020ALL AMER LATON      NM   R$  000000000083000000000008940000000000830000000000085100000000008600000000000845000000000086900043000000000000001163000000000000990296000000000000009999123100000010000000000000BRALLLACNOR6118
012013082162ALLL3T      030ALL AMER LATON      NM030R$  000000000086000000000008670000000000858000000000085800000000008670000000000000000000000000000006000000000000080000000000000068719949000000000000009999123100000010000000000000BRALLLACNOR6118
012013082162ALLL3T      030ALL AMER LATON      NM061R$  000000000086600000000008670000000000866000000000086600000000008670000000000000000000000000000002000000000000004700000000000004071946000000000000009999123100000010000000000000BRALLLACNOR6118
012013082162ALLL3T      030ALL AMER LATON      NM090R$  000000000086200000000008630000000000860000000000086200000000008610000000000000000000000000000004000000000000004500000000000003880107000000000000009999123100000010000000000000BRALLLACNOR6118
012013082178ALLLI82     070ALLL        ON      NM000R$  000000000004900000000000500000000000049000000000004900000000000500000000000000000000000000000002000000000000078400000000000003865100000000000082002013091600000010000000000000BRALLLACNOR6118
012013082178ALLLI88     070ALLL        ON      NM000R$  000000000001800000000000190000000000018000000000001800000000000190000000000000000000000000000002000000000000087500000000000001627500000000000088002013091600000010000000000000BRALLLACNOR6118
012013082112ALMI11B     010FII TORRE ALCI      MB   R$  000000031000000000003140800000000310000000000031305900000003140800000000308201000000031428500004000000000000000004000000000001252239000000000000009999123100000010000000000000BRALMICTF003204
012013082102ALPA3       010ALPARGATAS  ON  EJ  N1   R$  000000000117800000000011780000000001152000000000115500000000011520000000001152000000000117800009000000000000001800000000000002080500000000000000009999123100000010000000000000BRALPAACNOR0203
012013082102ALPA4       010ALPARGATAS  PN  EJ  N1   R$  000000000127900000000012900000000001240000000000127100000000012690000000001265000000000126901752000000000000420600000000000534600200000000000000009999123100000010000000000000BRALPAACNPR7203
012013082196ALPA4F      020ALPARGATAS  PN  EJ  N1   R$  000000000131500000000013150000000001251000000000128400000000012510000000001250000000000133000037000000000000000383000000000000492064000000000000009999123100000010000000000000BRALPAACNPR7203
012013082162ALPA4T      030ALPARGATAS  PN  EJ  N1090R$  000000000130500000000013060000000001305000000000130500000000013060000000000000000000000000000002000000000000001000000000000001305472000000000000009999123100000010000000000000BRALPAACNPR7203
012013082178ALPAI13     070ALPA    /EJ PN      N1000R$  000000000003100000000000310000000000028000000000002800000000000280000000000000000000000000000002000000000000017800000000000000508300000000000130002013091600000010000000000000BRALPAACNPR7203
012013082102ALSC3       010ALIANSCE    ON      NM   R$  000000000186500000000018780000000001819000000000184100000000018400000000001837000000000184203295000000000000735800000000001354657000000000000000009999123100000010000000000000BRALSCACNOR0104
012013082196ALSC3F      020ALIANSCE    ON      NM   R$  000000000187500000000018750000000001836000000000183900000000018390000000001860000000000227700005000000000000000056000000000000103002000000000000009999123100000010000000000000BRALSCACNOR0104
012013082102ALUP11      010ALUPAR      UNT     N2   R$  000000000169700000000016970000000001645000000000166900000000016710000000001660000000000167100203000000000000179200000000000299200900000000000000009999123100000010000000000000BRALUPCDAM15100
012013082196ALUP11F     020ALUPAR      UNT     N2   R$  000000000167800000000016780000000001641000000000166100000000016550000000001640000000000168000012000000000000000311000000000000516660000000000000009999123100000010000000000000BRALUPCDAM15100
012013082102AMAR3       010LOJAS MARISAON      NM   R$  000000000190000000000019450000000001887000000000192100000000019200000000001920000000000192401023000000000000364100000000000699441000000000000000009999123100000010000000000000BRAMARACNOR4109
012013082196AMAR3F      020LOJAS MARISAON      NM   R$  000000000193000000000019300000000001900000000000191600000000019090000000001909000000000217000006000000000000000133000000000000254860000000000000009999123100000010000000000000BRAMARACNOR4109
012013082102AMBV3       010AMBEV       ON           R$  000000000830000000000084000000000008159000000000826500000000082350000000008235000000000829301263000000000000202800000000001676318900000000000000009999123100000010000000000000BRAMBVACNOR4153
012013082196AMBV3F      020AMBEV       ON           R$  000000000832000000000084000000000008171000000000826500000000082000000000008200000000000823000052000000000000001312000000000010843935000000000000009999123100000010000000000000BRAMBVACNOR4153
012013082102AMBV4       010AMBEV       PN           R$  000000000832100000000084170000000008171000000000825700000000082460000000008246000000000824909955000000000001989000000000016424169600000000000000009999123100000010000000000000BRAMBVACNPR1153
012013082196AMBV4F      020AMBEV       PN           R$  000000000844900000000084490000000008167000000000826400000000082800000000008216000000000835000206000000000000005375000000000044423471000000000000009999123100000010000000000000BRAMBVACNPR1153
012013082162AMBV4T      030AMBEV       PN        016R$  000000000841400000000084150000000008219000000000824100000000082200000000000000000000000000000004000000000000000900000000000007416988000000000000009999123100000010000000000000BRAMBVACNPR1153
012013082162AMBV4T      030AMBEV       PN        030R$  000000000830900000000084190000000008287000000000833900000000084190000000000000000000000000000008000000000000001100000000000009173084000000000000009999123100000010000000000000BRAMBVACNPR1153
012013082162AMBV4T      030AMBEV       PN        061R$  000000000831400000000083850000000008314000000000833800000000083850000000000000000000000000000004000000000000000300000000000002501420000000000000009999123100000010000000000000BRAMBVACNPR1153
012013082162AMBV4T      030AMBEV       PN        180R$  000000000861000000000086110000000008610000000000861000000000086110000000000000000000000000000002000000000000000500000000000004305225000000000000009999123100000010000000000000BRAMBVACNPR1153
012013082178AMBVI84     070AMBV        PN        000R$  000000000009500000000001050000000000080000000000009200000000001040000000000000000000000000000023000000000000016200000000000001505200000000000840002013091600000010000000000000BRAMBVACNPR1153
012013082178AMBVI86     070AMBV        PN        000R$  000000000004000000000001000000000000040000000000009400000000001000000000000000000000000010000009000000000000001100000000000000103500000000000860002013091600000010000000000000BRAMBVACNPR1153
012013082178AMBVI94     070AMBV        PN        000R$  000000000000400000000000040000000000004000000000000400000000000040000000000000000000000000000002000000000000050000000000000000200000000000000940002013091600000010000000000000BRAMBVACNPR1153
012013082178AMBVJ82     070AMBV        PN        000R$  000000000036900000000003780000000000369000000000037200000000003780000000000000000000000000000004000000000000150000000000000055813000000000000820002013102100000010000000000000BRAMBVACNPR1153
012013082182AMBVU1      080AMBVE       PN        000R$  000000000262000000000026200000000002620000000000262000000000026200000000000000000000000000000002000000000000080000000000000209600000000000001100002013091600000010000000000000BRAMBVACNPR1153
012013082182AMBVU90     080AMBVE       PN        000R$  000000000068900000000006890000000000688000000000068800000000006880000000000000000000000000000003000000000000080000000000000055080000000000000900002013091600000010000000000000BRAMBVACNPR1153
012013082102AMGN11B     010AMGEN       DRN ED  MB   R$  000000002549000000000254900000000025490000000002549000000000254900000000022500000000002800000001000000000000001400000000000035686000000000000000009999123100000010000000000000BRAMGNBDR004107
012013082102ARMT11B     010ARCELOR     DRN     MB   R$  000000000161200000000016120000000001612000000000161200000000016120000000001590000000000162000001000000000000001200000000000001934400000000000000009999123100000010000000000000BRARMTBDR008111
012013082102ARTR3       010ARTERIS     ON      NM   R$  000000000228500000000023020000000002260000000000226700000000022670000000002267000000000227502439000000000002371400000000005377052500000000000000009999123100000010000000000000BRARTRACNOR3101
012013082196ARTR3F      020ARTERIS     ON      NM   R$  000000000227500000000022920000000002259000000000226700000000022590000000002259000000000228700030000000000000000880000000000001995385000000000000009999123100000010000000000000BRARTRACNOR3101
012013082102ARZZ3       010AREZZO CO   ON      NM   R$  000000000346600000000034860000000003303000000000337000000000033500000000003350000000000336501579000000000000261100000000000879989600000000000000009999123100000010000000000000BRARZZACNOR3109
012013082196ARZZ3F      020AREZZO CO   ON      NM   R$  000000000336100000000036780000000003332000000000337300000000034000000000003331000000000378000018000000000000000584000000000001970199000000000000009999123100000010000000000000BRARZZACNOR3109
012013082102AUTM3       010AUTOMETAL   ON      NM   R$  000000000193100000000019400000000001850000000000188500000000018900000000001883000000000189001286000000000000393900000000000742817100000000000000009999123100000010000000000000BRAUTMACNOR8109
012013082196AUTM3F      020AUTOMETAL   ON      NM   R$  000000000187000000000018800000000001760000000000181500000000018800000000001761000000000188400003000000000000000154000000000000279580000000000000009999123100000010000000000000BRAUTMACNOR8109
012013082102AZEV4       010AZEVEDO     PN           R$  000000000016600000000001660000000000166000000000016600000000001660000000000120000000000017400001000000000000001600000000000000265600000000000000009999123100000010000000000000BRAZEVACNPR7113
012013082102BAHI3       010BAHEMA      ON           R$  000000000047500000000004750000000000475000000000047500000000004750000000000471000000000056700001000000000000000300000000000000142500000000000000009999123100000010000000000000BRBAHIACNOR1066
012013082102BAUH4       010EXCELSIOR   PN           R$  000000000094600000000009480000000000946000000000094600000000009480000000000800000000000094700002000000000000000700000000000000662600000000000000009999123100000010000000000000BRBAUHACNPR3108
012013082102BAZA3       010AMAZONIA    ON           R$  000000000003300000000000330000000000033000000000003300000000000330000000000033000000000003400002000000000000031000000000000001023000000000000000009999123100000010000000000000BRBAZAACNOR0163
012013082102BBAS3       010BRASIL      ON      NM   R$  000000000223200000000022570000000002182000000000221400000000021980000000002196000000000219816710000000000007804100000000017282346800000000000000009999123100000010000000000000BRBBASACNOR3237
012013082196BBAS3F      020BRASIL      ON      NM   R$  000000000223600000000022550000000002182000000000221800000000022240000000002210000000000222400512000000000000014436000000000032015681000000000000009999123100000010000000000000BRBBASACNOR3237
012013082162BBAS3T      030BRASIL      ON      NM016R$  000000000224900000000022500000000002203000000000222500000000022040000000000000000000000000000008000000000000080000000000000178054848000000000000009999123100000010000000000000BRBBASACNOR3237
012013082162BBAS3T      030BRASIL      ON      NM029R$  000000000222200000000022230000000002222000000000222200000000022230000000000000000000000000000004000000000000003400000000000007556327000000000000009999123100000010000000000000BRBBASACNOR3237
012013082162BBAS3T      030BRASIL      ON      NM030R$  000000000222900000000022340000000002201000000000221700000000022140000000000000000000000000000016000000000000012000000000000026615923000000000000009999123100000010000000000000BRBBASACNOR3237
012013082162BBAS3T      030BRASIL      ON      NM047R$  000000000224900000000022500000000002215000000000222700000000022170000000000000000000000000000006000000000000011000000000000024506993000000000000009999123100000010000000000000BRBBASACNOR3237
012013082162BBAS3T      030BRASIL      ON      NM061R$  000000000228000000000022840000000002222000000000224000000000022480000000000000000000000000000024000000000000024800000000000055556613000000000000009999123100000010000000000000BRBBASACNOR3237
012013082162BBAS3T      030BRASIL      ON      NM064R$  000000000224800000000022490000000002248000000000224800000000022490000000000000000000000000000002000000000000000500000000000001124249000000000000009999123100000010000000000000BRBBASACNOR3237
012013082162BBAS3T      030BRASIL      ON      NM090R$  000000000223900000000022700000000002233000000000223900000000022620000000000000000000000000000008000000000000003780000000000008464922000000000000009999123100000010000000000000BRBBASACNOR3237
012013082162BBAS3T      030BRASIL      ON      NM093R$  000000000228500000000022860000000002285000000000228500000000022860000000000000000000000000000002000000000000030000000000000068566432000000000000009999123100000010000000000000BRBBASACNOR3237
012013082162BBAS3T      030BRASIL      ON      NM152R$  000000000234100000000023420000000002341000000000234100000000023420000000000000000000000000000002000000000000000100000000000000234109000000000000009999123100000010000000000000BRBBASACNOR3237
012013082162BBAS3T      030BRASIL      ON      NM180R$  000000000235900000000023600000000002359000000000235900000000023600000000000000000000000000000002000000000000000200000000000000471958000000000000009999123100000010000000000000BRBBASACNOR3237
012013082178BBASA24     070BBAS        ON      NM000R$  000000000011800000000001180000000000118000000000011800000000001180000000000000000000000000000001000000000000350000000000000041300000000000000240002014012000000010000000000000BRBBASACNOR3237
012013082178BBASA25     070BBAS        ON      NM000R$  000000000008000000000000800000000000080000000000008000000000000800000000000000000000000000000001000000000000350000000000000028000000000000000250002014012000000010000000000000BRBBASACNOR3237
012013082178BBASA26     070BBAS        ON      NM000R$  000000000005400000000000540000000000053000000000005300000000000530000000000000000000000000000002000000000000350000000000000018883200000000000260002014012000000010000000000000BRBBASACNOR3237
012013082178BBASA27     070BBAS        ON      NM000R$  000000000004000000000000400000000000040000000000004000000000000400000000000000000000000000000001000000000000350000000000000014000000000000000270002014012000000010000000000000BRBBASACNOR3237
012013082178BBASA30     070BBAS        ON      NM000R$  000000000000600000000000060000000000006000000000000600000000000060000000000000000000000000000001000000000000350000000000000002100000000000000300002014012000000010000000000000BRBBASACNOR3237
012013082178BBASB26     070BBAS        ON      NM000R$  000000000006800000000000680000000000068000000000006800000000000680000000000000000000000000000001000000000000001200000000000000081600000000000260002014021700000010000000000000BRBBASACNOR3237
012013082178BBASI18     070BBAS        ON      NM000R$  000000000043100000000004310000000000420000000000042400000000004230000000000358000000000000000023000000000000004000000000000001698200000000000180002013091600000010000000000000BRBBASACNOR3237
012013082178BBASI21     070BBAS        ON      NM000R$  000000000013400000000001760000000000134000000000014000000000001340000000000085000000000020000018000000000000011200000000000001573200000000000210002013091600000010000000000000BRBBASACNOR3237
012013082178BBASI22     070BBAS  FM    ON      NM000R$  000000000011000000000001220000000000081000000000009500000000000940000000000090000000000009400213000000000000415200000000000039599800000000000217602013091600000010000000000000BRBBASACNOR3236
012013082178BBASI23     070BBAS  FM    ON      NM000R$  000000000005900000000000650000000000036000000000004200000000000420000000000042000000000004300284000000000000661400000000000027949600000000000227602013091600000010000000000000BRBBASACNOR3236
012013082178BBASI24     070BBAS  FM    ON      NM000R$  000000000003000000000000300000000000017000000000002100000000000180000000000017000000000001800180000000000000313100000000000006625600000000000237602013091600000010000000000000BRBBASACNOR3236
012013082178BBASI25     070BBAS  FM    ON      NM000R$  000000000001300000000000130000000000007000000000000900000000000090000000000008000000000001200075000000000000207500000000000001899100000000000246602013091600000010000000000000BRBBASACNOR3235
012013082178BBASI26     070BBAS  FM    ON      NM000R$  000000000000400000000000050000000000004000000000000400000000000040000000000004000000000000500007000000000000011200000000000000045000000000000256602013091600000010000000000000BRBBASACNOR3235
012013082178BBASI52     070BBAS        ON      NM000R$  000000000007200000000000720000000000072000000000007200000000000720000000000000000000000000000001000000000000001500000000000000108000000000000225002013091600000010000000000000BRBBASACNOR3237
012013082178BBASI61     070BBASE       ON      NM000R$  000000000008400000000000840000000000065000000000007100000000000650000000000000000000000000000010000000000000027600000000000001978600000000000222502013091600000010000000000000BRBBASACNOR3237
012013082178BBASJ22     070BBAS  FM    ON      NM000R$  000000000015300000000001530000000000115000000000012300000000001150000000000000000000000000000021000000000000035800000000000004408300000000000220002013102100000010000000000000BRBBASACNOR3237
012013082178BBASJ23     070BBAS  FM    ON      NM000R$  000000000011100000000001110000000000083000000000009100000000000830000000000000000000000000000017000000000000031500000000000002890300000000000226602013102100000010000000000000BRBBASACNOR3235
012013082178BBASJ24     070BBAS  FM    ON      NM000R$  000000000006200000000000620000000000045000000000005000000000000470000000000017000000000000000012000000000000015200000000000000771700000000000237602013102100000010000000000000BRBBASACNOR3236
012013082178BBASJ25     070BBAS  FM    ON      NM000R$  000000000002400000000000240000000000021000000000002200000000000210000000000020000000000002900004000000000000002600000000000000058300000000000250002013102100000010000000000000BRBBASACNOR3237
012013082178BBASJ26     070BBAS  FM    ON      NM000R$  000000000002200000000000220000000000018000000000001900000000000180000000000014000000000001600003000000000000003300000000000000064000000000000256602013102100000010000000000000BRBBASACNOR3235
012013082178BBASK26     070BBAS        ON      NM000R$  000000000002700000000000270000000000027000000000002700000000000270000000000016000000000003700001000000000000000100000000000000002700000000000257602013111800000010000000000000BRBBASACNOR3236
012013082178BBASK29     070BBAS        ON      NM000R$  000000000000600000000000060000000000006000000000000600000000000060000000000002000000000000000002000000000000002100000000000000012600000000000290002013111800000010000000000000BRBBASACNOR3237
012013082182BBASM20     080BBASE       ON      NM000R$  000000000004900000000000490000000000049000000000004900000000000490000000000000000000000000000001000000000000350000000000000017150000000000000200002014012000000010000000000000BRBBASACNOR3237
012013082182BBASM22     080BBASE       ON      NM000R$  000000000010500000000001050000000000105000000000010500000000001050000000000000000000000000000001000000000000002000000000000000210000000000000220002014012000000010000000000000BRBBASACNOR3237
012013082182BBASU19     080BBASE       ON      NM000R$  000000000000900000000000110000000000009000000000000900000000000100000000000002000000000000000006000000000000020200000000000000196900000000000190002013091600000010000000000000BRBBASACNOR3237
012013082182BBASU20     080BBASE       ON      NM000R$  000000000001100000000000200000000000011000000000001400000000000200000000000004000000000000000040000000000000275000000000000003876600000000000200002013091600000010000000000000BRBBASACNOR3237
012013082182BBASU21     080BBASE FM    ON      NM000R$  000000000001900000000000350000000000019000000000002900000000000300000000000000000000000000000176000000000000367500000000000010779300000000000210002013091600000010000000000000BRBBASACNOR3237
012013082182BBASU22     080BBASE FM    ON      NM000R$  000000000003900000000000590000000000037000000000005200000000000530000000000001000000000000000079000000000000123800000000000006448300000000000217602013091600000010000000000000BRBBASACNOR3236
012013082182BBASU23     080BBASE FM    ON      NM000R$  000000000007900000000001120000000000079000000000010000000000001110000000000040000000000000000062000000000000119400000000000012037300000000000227602013091600000010000000000000BRBBASACNOR3236
012013082182BBASU24     080BBASE FM    ON      NM000R$  000000000014200000000001920000000000142000000000017300000000001880000000000000000000000028000111000000000000202300000000000035158200000000000237602013091600000010000000000000BRBBASACNOR3236
012013082182BBASU25     080BBASE       ON      NM000R$  000000000022300000000002540000000000223000000000023100000000002540000000000000000000000000000004000000000000012000000000000002772000000000000246602013091600000010000000000000BRBBASACNOR3235
012013082182BBASU52     080BBASE       ON      NM000R$  000000000008600000000000860000000000083000000000008400000000000830000000000000000000000000000002000000000000004000000000000000338000000000000225002013091600000010000000000000BRBBASACNOR3237
012013082182BBASU61     080BBASE       ON      NM000R$  000000000006900000000000730000000000069000000000007100000000000700000000000000000000000000000009000000000000020500000000000001457000000000000222502013091600000010000000000000BRBBASACNOR3237
012013082182BBASV18     080BBASE       ON      NM000R$  000000000001200000000000120000000000012000000000001200000000000120000000000000000000000000000001000000000000000100000000000000001200000000000180002013102100000010000000000000BRBBASACNOR3237
012013082182BBASV20     080BBASE       ON      NM000R$  000000000003000000000000310000000000030000000000003000000000000300000000000000000000000000000003000000000000000400000000000000012100000000000200002013102100000010000000000000BRBBASACNOR3237
012013082182BBASV21     080BBASE FM    ON      NM000R$  000000000004900000000000600000000000049000000000005200000000000540000000000000000000000000000009000000000000016500000000000000864100000000000210002013102100000010000000000000BRBBASACNOR3237
012013082182BBASV22     080BBASE FM    ON      NM000R$  000000000007400000000000980000000000074000000000007900000000000880000000000050000000000000000023000000000000059400000000000004746300000000000220002013102100000010000000000000BRBBASACNOR3237
012013082182BBASV23     080BBASE FM    ON      NM000R$  000000000010100000000001310000000000101000000000011800000000001300000000000000000000000000000027000000000000047300000000000005609100000000000226602013102100000010000000000000BRBBASACNOR3235
012013082182BBASV24     080BBASE FM    ON      NM000R$  000000000016200000000002030000000000162000000000018900000000001970000000000000000000000000000062000000000000126200000000000023889300000000000237602013102100000010000000000000BRBBASACNOR3236
012013082182BBASV25     080BBASE       ON      NM000R$  000000000028200000000002820000000000282000000000028200000000002820000000000000000000000000000001000000000000003000000000000000846000000000000250002013102100000010000000000000BRBBASACNOR3237
012013082182BBASV26     080BBASE       ON      NM000R$  000000000029900000000003400000000000299000000000033900000000003400000000000000000000000000000003000000000000006100000000000002069900000000000256602013102100000010000000000000BRBBASACNOR3235
012013082182BBASV53     080BBASE       ON      NM000R$  000000000014700000000001470000000000147000000000014700000000001470000000000000000000000000000001000000000000002000000000000000294000000000000231602013102100000010000000000000BRBBASACNOR3235
012013082182BBASW18     080BBASE       ON      NM000R$  000000000001700000000000180000000000017000000000001700000000000180000000000000000000000000000003000000000000009000000000000000159000000000000180002013111800000010000000000000BRBBASACNOR3237
012013082182BBASW19     080BBASE       ON      NM000R$  000000000002600000000000280000000000026000000000002700000000000280000000000000000000000000000003000000000000009000000000000000246000000000000190002013111800000010000000000000BRBBASACNOR3237
012013082182BBASW20     080BBASE       ON      NM000R$  000000000004000000000000480000000000039000000000004300000000000480000000000000000000000000000006000000000000017500000000000000760000000000000200002013111800000010000000000000BRBBASACNOR3237
012013082182BBASW21     080BBASE       ON      NM000R$  000000000005700000000000650000000000057000000000006200000000000650000000000000000000000045900004000000000000012000000000000000747000000000000207602013111800000010000000000000BRBBASACNOR3236
012013082182BBASW22     080BBASE       ON      NM000R$  000000000010800000000001100000000000108000000000010800000000001100000000000000000000000000000003000000000000009000000000000000978000000000000220002013111800000010000000000000BRBBASACNOR3237
012013082182BBASW23     080BBASE       ON      NM000R$  000000000013700000000001370000000000130000000000013400000000001350000000000000000000000000000004000000000000010200000000000001374000000000000230002013111800000010000000000000BRBBASACNOR3237
012013082182BBASW25     080BBASE       ON      NM000R$  000000000026800000000002680000000000268000000000026800000000002680000000000000000000000000000001000000000000003000000000000000804000000000000247602013111800000010000000000000BRBBASACNOR3236
012013082182BBASW26     080BBASE       ON      NM000R$  000000000034800000000003480000000000348000000000034800000000003480000000000000000000000000000001000000000000003000000000000001044000000000000257602013111800000010000000000000BRBBASACNOR3236
012013082182BBASW53     080BBASE       ON      NM000R$  000000000012700000000001270000000000127000000000012700000000001270000000000000000000000000000001000000000000003000000000000000381000000000000224202013111800000010000000000000BRBBASACNOR3232
012013082182BBASX23     080BBASE       ON      NM000R$  000000000013400000000001340000000000134000000000013400000000001340000000000000000000000000000002000000000000002000000000000000268000000000000230002013121600000010000000000000BRBBASACNOR3237
012013082102BBDC3       010BRADESCO    ON      N1   R$  000000000309400000000031240000000003057000000000308600000000030670000000003067000000000307005094000000000001434700000000004428187300000000000000009999123100000010000000000000BRBBDCACNOR1605
012013082196BBDC3F      020BRADESCO    ON      N1   R$  000000000312000000000031980000000003031000000000307100000000030430000000003039000000000315900056000000000000001461000000000004486896000000000000009999123100000010000000000000BRBBDCACNOR1605
012013082162BBDC3T      030BRADESCO    ON      N1030R$  000000000309700000000030980000000003097000000000309700000000030980000000000000000000000000000002000000000000005000000000000015486383000000000000009999123100000010000000000000BRBBDCACNOR1605
012013082102BBDC4       010BRADESCO    PN      N1   R$  000000000279000000000028120000000002751000000000277300000000027600000000002758000000000276020330000000000009437500000000026170102200000000000000009999123100000010000000000000BRBBDCACNPR8605
012013082196BBDC4F      020BRADESCO    PN      N1   R$  000000000280600000000028250000000002750000000000277400000000027740000000002762000000000277400280000000000000007925000000000021987424000000000000009999123100000010000000000000BRBBDCACNPR8605
012013082162BBDC4T      030BRADESCO    PN      N1016R$  000000000278500000000027870000000002775000000000278300000000027860000000000000000000000000000012000000000000007000000000000019481547000000000000009999123100000010000000000000BRBBDCACNPR8605
012013082162BBDC4T      030BRADESCO    PN      N1029R$  000000000279200000000027930000000002792000000000279200000000027930000000000000000000000000000002000000000000002000000000000005584267000000000000009999123100000010000000000000BRBBDCACNPR8605
012013082162BBDC4T      030BRADESCO    PN      N1030R$  000000000278700000000027930000000002775000000000277600000000027780000000000000000000000000000014000000000000025500000000000070803910000000000000009999123100000010000000000000BRBBDCACNPR8605
012013082162BBDC4T      030BRADESCO    PN      N1061R$  000000000280500000000028380000000002801000000000280800000000028230000000000000000000000000000010000000000000006500000000000018252122000000000000009999123100000010000000000000BRBBDCACNPR8605
012013082162BBDC4T      030BRADESCO    PN      N1090R$  000000000282300000000028240000000002820000000000282200000000028210000000000000000000000000000006000000000000002200000000000006208830000000000000009999123100000010000000000000BRBBDCACNPR8605
012013082178BBDCB58     070BBDC        PN      N1000R$  000000000023700000000002370000000000237000000000023700000000002370000000000000000000000000000004000000000000002400000000000000568800000000000285002014021700000010000000000000BRBBDCACNPR8605
012013082178BBDCC6      070BBDC        PN      N1000R$  000000000010200000000001020000000000102000000000010200000000001020000000000000000000000000000002000000000000005000000000000000510000000000000324502014031700000010000000000000BRBBDCACNPR8598
012013082178BBDCC97     070BBDC        ON      N1000R$  000000000009000000000000900000000000090000000000009000000000000900000000000000000000000000000002000000000000245000000000000022050000000000000370002014031700000010000000000000BRBBDCACNOR1605
012013082178BBDCI26     070BBDC        PN      N1000R$  000000000019500000000001950000000000195000000000019500000000001950000000000185000000000034000001000000000000000600000000000000117000000000000259802013091600000010000000000000BRBBDCACNPR8604
012013082178BBDCI27     070BBDC        PN      N1000R$  000000000015800000000001620000000000135000000000014400000000001620000000000130000000000017900065000000000000040900000000000005896000000000000267802013091600000010000000000000BRBBDCACNPR8602
012013082178BBDCI28     070BBDC        PN      N1000R$  000000000010100000000001060000000000074000000000008700000000000780000000000076000000000008500514000000000000565700000000000049238900000000000277802013091600000010000000000000BRBBDCACNPR8602
012013082178BBDCI29     070BBDC        PN      N1000R$  000000000005100000000000570000000000034000000000004000000000000350000000000033000000000004000274000000000000347500000000000014223000000000000287802013091600000010000000000000BRBBDCACNPR8602
012013082178BBDCI30     070BBDC        PN      N1000R$  000000000002400000000000240000000000015000000000001800000000000160000000000015000000000002500349000000000000226300000000000004134300000000000297802013091600000010000000000000BRBBDCACNPR8602
012013082178BBDCI31     070BBDC        PN      N1000R$  000000000012600000000001260000000000105000000000011100000000001250000000000000000000000000000045000000000000052900000000000005917200000000000272902013091600000010000000000000BRBBDCACNPR8590
012013082178BBDCI32     070BBDC        PN      N1000R$  000000000000400000000000040000000000002000000000000300000000000040000000000003000000000000400016000000000000039900000000000000126000000000000317802013091600000010000000000000BRBBDCACNPR8602
012013082178BBDCI33     070BBDC        PN      N1000R$  000000000001900000000000190000000000019000000000001900000000000190000000000000000000000000000001000000000000000400000000000000007600000000000297202013091600000010000000000000BRBBDCACNPR8598
012013082178BBDCI58     070BBDC        PN      N1000R$  000000000005000000000000580000000000047000000000005100000000000480000000000000000000000006900015000000000000030200000000000001555900000000000285002013091600000010000000000000BRBBDCACNPR8605
012013082178BBDCI75     070BBDCE       PN      N1000R$  000000000005800000000000580000000000058000000000005800000000000580000000000000000000000000000001000000000000000400000000000000023200000000000282302013091600000010000000000000BRBBDCACNPR8604
012013082178BBDCI81     070BBDC        PN      N1000R$  000000000000700000000000080000000000007000000000000700000000000070000000000007000000000001400050000000000000190200000000000001341400000000000307802013091600000010000000000000BRBBDCACNPR8602
012013082178BBDCI85     070BBDC        ON      N1000R$  000000000000500000000000050000000000004000000000000400000000000040000000000000000000000000000003000000000000100000000000000000440000000000000349802013091600000010000000000000BRBBDCACNOR1604
012013082178BBDCI86     070BBDC        ON      N1000R$  000000000006000000000000600000000000060000000000006000000000000600000000000000000000000000000003000000000000040000000000000002400000000000000305002013091600000010000000000000BRBBDCACNOR1605
012013082178BBDCJ27     070BBDC        PN      N1000R$  000000000020000000000002020000000000197000000000019900000000002020000000000000000000000000000026000000000000024000000000000004790800000000000267802013102100000010000000000000BRBBDCACNPR8602
012013082178BBDCJ29     070BBDC        PN      N1000R$  000000000010500000000001050000000000084000000000009300000000000900000000000000000000000000000048000000000000081800000000000007678200000000000287802013102100000010000000000000BRBBDCACNPR8602
012013082178BBDCJ30     070BBDC        PN      N1000R$  000000000006900000000000690000000000052000000000005800000000000520000000000051000000000006700024000000000000032300000000000001877400000000000297802013102100000010000000000000BRBBDCACNPR8602
012013082178BBDCJ31     070BBDC        PN      N1000R$  000000000003700000000000370000000000031000000000003400000000000320000000000011000000000006900006000000000000010400000000000000358100000000000307802013102100000010000000000000BRBBDCACNPR8602
012013082178BBDCJ32     070BBDC        PN      N1000R$  000000000001900000000000200000000000019000000000001900000000000200000000000012000000000000000005000000000000505000000000000009765000000000000317802013102100000010000000000000BRBBDCACNPR8602
012013082178BBDCJ58     070BBDC        PN      N1000R$  000000000014500000000001460000000000120000000000012900000000001250000000000000000000000000000042000000000000084600000000000010991100000000000280002013102100000010000000000000BRBBDCACNPR8605
012013082178BBDCK27     070BBDC        PN      N1000R$  000000000022400000000002240000000000224000000000022400000000002240000000000000000000000000000001000000000000003000000000000000672000000000000269602013111800000010000000000000BRBBDCACNPR8603
012013082178BBDCK28     070BBDC        PN      N1000R$  000000000017500000000001750000000000175000000000017500000000001750000000000000000000000000000001000000000000002000000000000000350000000000000277802013111800000010000000000000BRBBDCACNPR8602
012013082178BBDCK30     070BBDC        PN      N1000R$  000000000008600000000000910000000000079000000000008500000000000800000000000000000000000000000009000000000000036500000000000003102700000000000300002013111800000010000000000000BRBBDCACNPR8605
012013082178BBDCK32     070BBDC        PN      N1000R$  000000000004500000000000450000000000045000000000004500000000000450000000000000000000000000000001000000000000003000000000000000135000000000000317602013111800000010000000000000BRBBDCACNPR8601
012013082178BBDCK9      070BBDC        PN      N1000R$  000000000011500000000001180000000000112000000000011300000000001180000000000000000000000000000004000000000000029500000000000003346000000000000290002013111800000010000000000000BRBBDCACNPR8605
012013082178BBDCL29     070BBDC        PN      N1000R$  000000000015000000000001500000000000150000000000015000000000001500000000000000000000000024200005000000000000004000000000000000600000000000000287802013121600000010000000000000BRBBDCACNPR8602
012013082182BBDCN58     080BBDCE       PN      N1000R$  000000000021400000000002140000000000214000000000021400000000002140000000000000000000000000000004000000000000008000000000000001712000000000000285002014021700000010000000000000BRBBDCACNPR8605
012013082182BBDCO89     080BBDCE       ON      N1000R$  000000000013200000000001320000000000132000000000013200000000001320000000000000000000000000000001000000000000245000000000000032340000000000000290002014031700000010000000000000BRBBDCACNOR1605
012013082182BBDCO92     080BBDCE       ON      N1000R$  000000000023700000000002370000000000237000000000023700000000002370000000000000000000000000000001000000000000245000000000000058065000000000000320002014031700000010000000000000BRBBDCACNOR1605
012013082182BBDCU23     080BBDCE       PN      N1000R$  000000000000400000000000040000000000004000000000000400000000000040000000000000000000000000000001000000000000000100000000000000000400000000000229802013091600000010000000000000BRBBDCACNPR8604
012013082182BBDCU25     080BBDCE       PN      N1000R$  000000000001200000000000120000000000012000000000001200000000000120000000000000000000000000000002000000000000002100000000000000025200000000000249802013091600000010000000000000BRBBDCACNPR8604
012013082182BBDCU26     080BBDCE       PN      N1000R$  000000000002200000000000220000000000019000000000002100000000000190000000000000000000000000000005000000000000003800000000000000080000000000000259802013091600000010000000000000BRBBDCACNPR8604
012013082182BBDCU27     080BBDCE       PN      N1000R$  000000000003000000000000430000000000030000000000003700000000000320000000000000000000000000000019000000000000021700000000000000808600000000000267802013091600000010000000000000BRBBDCACNPR8602
012013082182BBDCU28     080BBDCE       PN      N1000R$  000000000006400000000000830000000000064000000000007200000000000770000000000060000000000000000043000000000000084500000000000006131000000000000277802013091600000010000000000000BRBBDCACNPR8602
012013082182BBDCU29     080BBDCE       PN      N1000R$  000000000010800000000001430000000000108000000000012700000000001350000000000000000000000000000051000000000000086100000000000010940800000000000287802013091600000010000000000000BRBBDCACNPR8602
012013082182BBDCU30     080BBDCE       PN      N1000R$  000000000017700000000002240000000000177000000000020800000000002150000000000000000000000000000130000000000000238800000000000049675300000000000297802013091600000010000000000000BRBBDCACNPR8602
012013082182BBDCU31     080BBDCE       PN      N1000R$  000000000004900000000000550000000000049000000000005300000000000500000000000000000000000000000007000000000000013600000000000000728100000000000272902013091600000010000000000000BRBBDCACNPR8590
012013082182BBDCU33     080BBDCE       PN      N1000R$  000000000018500000000001850000000000185000000000018500000000001850000000000000000000000000000001000000000000002000000000000000370000000000000297202013091600000010000000000000BRBBDCACNPR8598
012013082182BBDCU75     080BBDCE       PN      N1000R$  000000000008700000000000970000000000087000000000009400000000000890000000000000000000000000000013000000000000033000000000000003119400000000000282302013091600000010000000000000BRBBDCACNPR8604
012013082182BBDCV1      080BBDCE       PN      N1000R$  000000000033900000000003390000000000339000000000033900000000003390000000000000000000000000000001000000000000002000000000000000678000000000000314602013102100000010000000000000BRBBDCACNPR8603
012013082182BBDCV24     080BBDCE       PN      N1000R$  000000000002000000000000200000000000020000000000002000000000000200000000000000000000000000000001000000000000500000000000000010000000000000000239802013102100000010000000000000BRBBDCACNPR8604
012013082182BBDCV25     080BBDCE       PN      N1000R$  000000000003200000000000340000000000031000000000003200000000000320000000000000000000000000000028000000000000122000000000000003909200000000000249602013102100000010000000000000BRBBDCACNPR8603
012013082182BBDCV26     080BBDCE       PN      N1000R$  000000000005200000000000520000000000052000000000005200000000000520000000000000000000000000000002000000000000500100000000000026005200000000000259802013102100000010000000000000BRBBDCACNPR8604
012013082182BBDCV27     080BBDCE       PN      N1000R$  000000000006600000000000770000000000066000000000007000000000000730000000000000000000000000000007000000000000009600000000000000679100000000000267802013102100000010000000000000BRBBDCACNPR8602
012013082182BBDCV28     080BBDCE       PN      N1000R$  000000000002700000000000270000000000027000000000002700000000000270000000000000000000000000000002000000000000003200000000000000086400000000000245802013102100000010000000000000BRBBDCACNPR8591
012013082182BBDCV29     080BBDCE       PN      N1000R$  000000000015000000000001700000000000150000000000016000000000001670000000000000000000000000000027000000000000045400000000000007284400000000000287802013102100000010000000000000BRBBDCACNPR8602
012013082182BBDCV30     080BBDCE       PN      N1000R$  000000000021000000000002390000000000210000000000022600000000002290000000000000000000000000000046000000000000086900000000000019713200000000000297802013102100000010000000000000BRBBDCACNPR8602
012013082182BBDCV58     080BBDCE       PN      N1000R$  000000000011300000000001290000000000112000000000011900000000001240000000000000000000000000000011000000000000019000000000000002262400000000000280002013102100000010000000000000BRBBDCACNPR8605
012013082182BBDCW24     080BBDCE       PN      N1000R$  000000000003300000000000330000000000033000000000003300000000000330000000000000000000000000000001000000000000001200000000000000039600000000000240002013111800000010000000000000BRBBDCACNPR8605
012013082182BBDCW26     080BBDCE       PN      N1000R$  000000000006800000000000680000000000068000000000006800000000000680000000000000000000000000000001000000000000002000000000000000136000000000000259802013111800000010000000000000BRBBDCACNPR8604
012013082182BBDCW27     080BBDCE       PN      N1000R$  000000000009500000000001020000000000095000000000009700000000000980000000000000000000000000000009000000000000605200000000000059171400000000000269602013111800000010000000000000BRBBDCACNPR8603
012013082182BBDCW30     080BBDCE       PN      N1000R$  000000000023900000000002390000000000239000000000023900000000002390000000000000000000000000000002000000000000003000000000000000717000000000000300002013111800000010000000000000BRBBDCACNPR8605
012013082182BBDCW31     080BBDCE       PN      N1000R$  000000000030800000000003080000000000308000000000030800000000003080000000000000000000000000000001000000000000002000000000000000616000000000000310002013111800000010000000000000BRBBDCACNPR8605
012013082182BBDCW8      080BBDCE       PN      N1000R$  000000000004200000000000420000000000041000000000004100000000000410000000000000000000000000000003000000000000003600000000000000150000000000000246002013111800000010000000000000BRBBDCACNPR8592
012013082182BBDCW9      080BBDCE       PN      N1000R$  000000000018000000000001800000000000180000000000018000000000001800000000000000000000000000000003000000000000004000000000000000720000000000000290002013111800000010000000000000BRBBDCACNPR8605
012013082112BBFI11B     010FII BB PROGRCI      MB   R$  000000042600000000004260000000000420000000000042180600000004200000000000420000000000042799900015000000000000000031000000000013076000000000000000009999123100000010000000000000BRBBFICTF006197
012013082112BBPO11      010FII BB PRGIICI           R$  000000001090100000000109990000000010900000000001092100000000109500000000010950000000001099000176000000000000027705000000000302586891000000000000009999123100000010000000000000BRBBPOCTF003109
012013082112BBRC11      010FII BB CORP CI           R$  000000000920000000000092290000000009200000000000920100000000092000000000009200000000000922900015000000000000001719000000000015817086000000000000009999123100000010000000000000BRBBRCCTF004123
012013082102BBRK3       010BR BROKERS  ON      NM   R$  000000000054800000000005510000000000530000000000053700000000005300000000000530000000000053103384000000000001521300000000000817811300000000000000009999123100000010000000000000BRBBRKACNOR4108
012013082196BBRK3F      020BR BROKERS  ON      NM   R$  000000000053200000000005320000000000532000000000053200000000005320000000000512000000000060800003000000000000000097000000000000051604000000000000009999123100000010000000000000BRBBRKACNOR4108
012013082162BBRK3T      030BR BROKERS  ON      NM016R$  000000000053400000000005350000000000534000000000053400000000005350000000000000000000000000000002000000000000003000000000000001603022000000000000009999123100000010000000000000BRBBRKACNOR4108
012013082162BBRK3T      030BR BROKERS  ON      NM030R$  000000000053500000000005360000000000535000000000053500000000005360000000000000000000000000000002000000000000003000000000000001607491000000000000009999123100000010000000000000BRBBRKACNOR4108
012013082102BBSE3       010BBSEGURIDADEON  ED  NM   R$  000000000180700000000018600000000001786000000000182100000000018470000000001847000000000184809853000000000004048100000000007374163100000000000000009999123100000010000000000000BRBBSEACNOR5101
012013082196BBSE3F      020BBSEGURIDADEON  ED  NM   R$  000000000180100000000018600000000001750000000000181800000000018580000000001805000000000185800275000000000000007873000000000014317718000000000000009999123100000010000000000000BRBBSEACNOR5101
012013082162BBSE3T      030BBSEGURIDADEON  ED  NM090R$  000000000188500000000018980000000001884000000000188800000000018850000000000000000000000000000015000000000000132000000000000249319416000000000000009999123100000010000000000000BRBBSEACNOR5101
012013082102BBTG11      010BTG PACTUAL UNT EDJ      R$  000000000279000000000028030000000002760000000000279900000000027710000000002771000000000278000271000000000001508600000000004222920000000000000000009999123100000010000000000000BRBBTGUNT007105
012013082196BBTG11F     020BTG PACTUAL UNT EDJ      R$  000000000285000000000028500000000002756000000000277500000000027680000000002768000000000278700008000000000000000088000000000000244226000000000000009999123100000010000000000000BRBBTGUNT007105
012013082162BBTG11T     030BTG PACTUAL UNT EDJ   061R$  000000000283000000000028310000000002830000000000283000000000028310000000000000000000000000000002000000000000000300000000000000849243000000000000009999123100000010000000000000BRBBTGUNT007105
012013082162BBTG11T     030BTG PACTUAL UNT EDJ   090R$  000000000283500000000028360000000002835000000000283500000000028360000000000000000000000000000002000000000000000600000000000001701360000000000000009999123100000010000000000000BRBBTGUNT007105
012013082112BBVJ11      010FII C JARDIMCI           R$  000000000801900000000080190000000007900000000000794900000000079500000000007900000000000795000011000000000000000513000000000004078305000000000000009999123100000010000000000000BRBBVJCTF001132
012013082112BCFF11B     010FII BC FFII CI      MB   R$  000000000969000000000096900000000009451000000000959200000000095000000000009505000000000964700080000000000000002638000000000025304873000000000000009999123100000010000000000000BRBCFFCTF000141
012013082102BEEF3       010MINERVA     ON      NM   R$  000000000111400000000011140000000001085000000000109500000000010990000000001095000000000110503361000000000001089800000000001193539200000000000000009999123100000010000000000000BRBEEFACNOR6104
012013082196BEEF3F      020MINERVA     ON      NM   R$  000000000108200000000011020000000001082000000000109000000000011020000000001077000000000111000010000000000000000314000000000000342278000000000000009999123100000010000000000000BRBEEFACNOR6104
012013082162BEEF3T      030MINERVA     ON      NM061R$  000000000110700000000011080000000001107000000000110700000000011080000000000000000000000000000002000000000000000100000000000000110715000000000000009999123100000010000000000000BRBEEFACNOR6104
012013082178BEEFA43     070BEEF        ON      NM000R$  000000000003600000000000360000000000036000000000003600000000000360000000000000000000000000000001000000000000005000000000000000180000000000000135002014012000000010000000000000BRBEEFACNOR6104
012013082102BEES3       010BANESTES    ON           R$  000000000004800000000000480000000000046000000000004600000000000470000000000046000000000004700014000000000000127400000000000005891800000000000000009999123100000010000000000000BRBEESACNOR9243
012013082102BEES4       010BANESTES    PN           R$  000000000004400000000000440000000000044000000000004400000000000440000000000043000000000004400001000000000000001000000000000000044000000000000000009999123100000010000000000000BRBEESACNPR6168
012013082102BEMA3       010BEMATECH    ON      NM   R$  000000000068500000000007050000000000682000000000069700000000006990000000000699000000000070100219000000000000089700000000000062562900000000000000009999123100000010000000000000BRBEMAACNOR0114
012013082162BEMA3T      030BEMATECH    ON      NM061R$  000000000071000000000007110000000000708000000000070900000000007090000000000000000000000000000006000000000000028100000000000019939479000000000000009999123100000010000000000000BRBEMAACNOR0114
012013082102BGIP4       010BANESE      PN  ED       R$  000000000440400000000045190000000004404000000000445000000000045190000000004180000000000452000003000000000000000400000000000001780300000000000000009999123100000010000000000000BRBGIPACNPR8179
012013082196BGIP4F      020BANESE      PN  ED       R$  000000000478000000000047800000000004780000000000478000000000047800000000004300000000000000000001000000000000000016000000000000076480000000000000009999123100000010000000000000BRBGIPACNPR8179
012013082102BHGR3       010BHG         ON      NM   R$  000000000133500000000013680000000001323000000000134000000000013380000000001328000000000133800792000000000000212900000000000285368100000000000000009999123100000010000000000000BRBHGRACNOR9101
012013082196BHGR3F      020BHG         ON      NM   R$  000000000134900000000013500000000001349000000000134900000000013500000000001214000000000135000002000000000000000015000000000000020242000000000000009999123100000010000000000000BRBHGRACNOR9101
012013082102BICB4       010BICBANCO    PN      N1   R$  000000000039500000000003990000000000390000000000039300000000003950000000000390000000000039500090000000000000072400000000000028523700000000000000009999123100000010000000000000BRBICBACNPR7131
012013082196BICB4F      020BICBANCO    PN      N1   R$  000000000039300000000004050000000000393000000000039900000000004050000000000391000000000041600004000000000000000060000000000000023975000000000000009999123100000010000000000000BRBICBACNPR7131
012013082102BIOM4       010BIOMM       PN           R$  000000000081000000000008100000000000810000000000081000000000008100000000000780000000000083000003000000000000012000000000000009720000000000000000009999123100000010000000000000BRBIOMACNPR9101
012013082196BIOM4F      020BIOMM       PN           R$  000000000082000000000008250000000000820000000000082100000000008250000000000820000000000087000002000000000000000031000000000000025470000000000000009999123100000010000000000000BRBIOMACNPR9101
012013082102BISA3       010BROOKFIELD  ON      NM   R$  000000000018100000000001830000000000175000000000017900000000001760000000000175000000000017804511000000000010316400000000001851254700000000000000009999123100000010000000000000BRBISAACNOR8109
012013082196BISA3F      020BROOKFIELD  ON      NM   R$  000000000017800000000001890000000000172000000000017700000000001730000000000175000000000017700031000000000000000768000000000000136233000000000000009999123100000010000000000000BRBISAACNOR8109
012013082162BISA3T      030BROOKFIELD  ON      NM030R$  000000000018300000000001850000000000183000000000018400000000001850000000000000000000000000000004000000000000400000000000000073763622000000000000009999123100000010000000000000BRBISAACNOR8109
012013082162BISA3T      030BROOKFIELD  ON      NM090R$  000000000018100000000001840000000000179000000000018200000000001800000000000000000000000000000012000000000001726200000000000314752563000000000000009999123100000010000000000000BRBISAACNOR8109
012013082112BJRC11      010FII JS RECIMCI           R$  000000008500000000000880000000000085000000000008565200000000870000000000086001000000008980000012000000000000000072000000000006166996000000000000009999123100000010000000000000BRBJRCCTF007109
012013082196BMEB4F      020MERC BRASIL PN           R$  000000000104000000000010400000000001040000000000104000000000010400000000001040000000000114000001000000000000000001000000000000001040000000000000009999123100000010000000000000BRBMEBACNPR5191
012013082102BMIN4       010MERC INVEST PN           R$  000000000002300000000000230000000000023000000000002300000000000230000000000023000000000002400005000000000000019000000000000000437000000000000000009999123100000010000000000000BRBMINACNPR1159
012013082112BMLC11B     010FII BMBRC LCCI      MB   R$  000000001151000000000115900000000011510000000001152800000000115900000000011520000000001159000003000000000000000039000000000000449610000000000000009999123100000010000000000000BRBMLCCTF004118
012013082102BMTO3       010BRASMOTOR   ON           R$  000000000009400000000000940000000000094000000000009400000000000940000000000070000000000009500001000000000000001000000000000000094000000000000000009999123100000010000000000000BRBMTOACNOR9180
012013082102BMTO4       010BRASMOTOR   PN           R$  000000000008700000000000870000000000087000000000008700000000000870000000000084000000000008700001000000000000001000000000000000087000000000000000009999123100000010000000000000BRBMTOACNPR6065
012013082196BMTO4F      020BRASMOTOR   PN           R$  000000000008700000000000870000000000087000000000008700000000000870000000000080000000000008700001000000000000000100000000000000008700000000000000009999123100000010000000000000BRBMTOACNPR6065
012013082102BNBR4       010NORD BRASIL PN           R$  000000000220000000000022000000000002200000000000220000000000022000000000002201000000000249900001000000000000000100000000000000220000000000000000009999123100000010000000000000BRBNBRACNPR5187
012013082112BNFS11      010FII BANRISULCI           R$  000000001009900000000100990000000009600000000000963800000000100180000000009600000000001001800010000000000000000102000000000000983173000000000000009999123100000010000000000000BRBNFSCTF000111
012013082102BOAC11B     010BANK AMERICADRN     MB   R$  000000000347700000000034770000000003477000000000347700000000034770000000003480000000000354000001000000000000013600000000000047287200000000000000009999123100000010000000000000BRBOACBDR004111
012013082102BOBR4       010BOMBRIL     PN           R$  000000000067500000000006750000000000675000000000067500000000006750000000000655000000000067500001000000000000000500000000000000337500000000000000009999123100000010000000000000BRBOBRACNPR3127
012013082102BOEI11B     010BOEING      DRN     MB   R$  000000002532000000000253350000000025320000000002532000000000253350000000025091000000002584500002000000000000002800000000000070897500000000000000009999123100000010000000000000BRBOEIBDR003106
012013082114BOVA11      010ISHARES BOVACI           R$  000000000495400000000050200000000004910000000000496600000000049460000000004945000000000494604866000000000001971120000000009789250090000000000000009999123100000010000000000000BRBOVACTF003101
012013082196BOVA11F     020ISHARES BOVACI           R$  000000000504200000000050430000000004909000000000499200000000050430000000004976000000000504400012000000000000000026000000000000129812000000000000009999123100000010000000000000BRBOVACTF003101
012013082162BOVA11T     030ISHARES BOVACI        030R$  000000000500100000000050020000000005001000000000500100000000050020000000000000000000000000000002000000000000000200000000000001000252000000000000009999123100000010000000000000BRBOVACTF003101
012013082112BPFF11      010FII ABSOLUTOCI           R$  000000000880000000000088000000000008600000000000865600000000086200000000008600000000000862000013000000000000001483000000000012838105000000000000009999123100000010000000000000BRBPFFCTF002104
012013082102BPHA3       010BR PHARMA   ON      NM   R$  000000000100000000000010060000000000965000000000098200000000009700000000000970000000000097401423000000000007564300000000007431824700000000000000009999123100000010000000000000BRBPHAACNOR6102
012013082196BPHA3F      020BR PHARMA   ON      NM   R$  000000000095500000000009980000000000955000000000097500000000009750000000000962000000000099900005000000000000000054000000000000052663000000000000009999123100000010000000000000BRBPHAACNOR6102
012013082102BPNM4       010PANAMERICANOPN      N1   R$  000000000053700000000005450000000000524000000000053400000000005280000000000527000000000052800282000000000002834800000000001514130000000000000000009999123100000010000000000000BRBPNMACNPR6111
012013082196BPNM4F      020PANAMERICANOPN      N1   R$  000000000054000000000005400000000000521000000000053000000000005390000000000521000000000053900014000000000000000396000000000000210222000000000000009999123100000010000000000000BRBPNMACNPR6111
012013082162BPNM4T      030PANAMERICANOPN      N1030R$  000000000053800000000005390000000000538000000000053800000000005390000000000000000000000000000004000000000000001000000000000000538248000000000000009999123100000010000000000000BRBPNMACNPR6111
012013082162BPNM4T      030PANAMERICANOPN      N1061R$  000000000053700000000005380000000000537000000000053700000000005380000000000000000000000000000002000000000000004000000000000002148003000000000000009999123100000010000000000000BRBPNMACNPR6111
012013082162BPNM4T      030PANAMERICANOPN      N1090R$  000000000054600000000005540000000000546000000000054900000000005540000000000000000000000000000004000000000000174000000000000095609865000000000000009999123100000010000000000000BRBPNMACNPR6111
012013082102BRAP3       010BRADESPAR   ON      N1   R$  000000000207100000000021000000000002020000000000205100000000020200000000002020000000000208500031000000000000010400000000000021337800000000000000009999123100000010000000000000BRBRAPACNOR5124
012013082196BRAP3F      020BRADESPAR   ON      N1   R$  000000000206000000000020600000000002060000000000206000000000020600000000002011000000000219700002000000000000000032000000000000065920000000000000009999123100000010000000000000BRBRAPACNOR5124
012013082162BRAP3T      030BRADESPAR   ON      N1030R$  000000000206800000000020690000000002068000000000206800000000020690000000000000000000000000000002000000000000001100000000000002275295000000000000009999123100000010000000000000BRBRAPACNOR5124
012013082102BRAP4       010BRADESPAR   PN      N1   R$  000000000252600000000025640000000002482000000000252400000000025140000000002510000000000251406454000000000001632100000000004120805300000000000000009999123100000010000000000000BRBRAPACNPR2124
012013082196BRAP4F      020BRADESPAR   PN      N1   R$  000000000261400000000026140000000002484000000000251900000000024930000000002493000000000255500054000000000000001647000000000004147439000000000000009999123100000010000000000000BRBRAPACNPR2124
012013082114BRAX11      010ISHARES BRAXCI           R$  000000000400000000000040140000000003975000000000399800000000039750000000000000000000000000000007000000000000007430000000000029706160000000000000009999123100000010000000000000BRBRAXCTF002100
012013082112BRCR11      010FII BC FUND CI           R$  000000001250100000000126490000000012501000000001257200000000125550000000012555000000001259300536000000000000030435000000000382642782000000000000009999123100000010000000000000BRBRCRCTF000132
012013082102BRFS3       010BRF SA      ON      NM   R$  000000000556000000000055760000000005388000000000544800000000054340000000005434000000000544009793000000000002952900000000016088816000000000000000009999123100000010000000000000BRBRFSACNOR8110
012013082196BRFS3F      020BRF SA      ON      NM   R$  000000000559000000000055980000000005379000000000546200000000054350000000005250000000000544700230000000000000008471000000000046271183000000000000009999123100000010000000000000BRBRFSACNOR8110
012013082162BRFS3T      030BRF SA      ON      NM060R$  000000000550600000000055070000000005506000000000550600000000055070000000000000000000000000000002000000000000001500000000000008260442000000000000009999123100000010000000000000BRBRFSACNOR8110
012013082162BRFS3T      030BRF SA      ON      NM090R$  000000000557500000000055780000000005536000000000556300000000055410000000000000000000000000000034000000000000297000000000001652482633000000000000009999123100000010000000000000BRBRFSACNOR8110
012013082162BRFS3T      030BRF SA      ON      NM120R$  000000000564600000000056470000000005598000000000562100000000055990000000000000000000000000000008000000000000004000000000000022485809000000000000009999123100000010000000000000BRBRFSACNOR8110
012013082178BRFSI53     070BRFS        ON      NM000R$  000000000026100000000002610000000000261000000000026100000000002610000000000000000000000000000001000000000000039500000000000010309500000000000530002013091600000010000000000000BRBRFSACNOR8110
012013082102BRIN3       010BR INSURANCEON  ED  NM   R$  000000000197800000000019810000000001882000000000192700000000018900000000001890000000000190001514000000000000345000000000000665081200000000000000009999123100000010000000000000BRBRINACNOR3106
012013082196BRIN3F      020BR INSURANCEON  ED  NM   R$  000000000197700000000020000000000001904000000000194600000000019040000000001823000000000214800023000000000000000631000000000001228345000000000000009999123100000010000000000000BRBRINACNOR3106
012013082102BRKM3       010BRASKEM     ON      N1   R$  000000000120500000000012250000000001201000000000121200000000012010000000001200000000000122300011000000000000004400000000000005336400000000000000009999123100000010000000000000BRBRKMACNOR1110
012013082196BRKM3F      020BRASKEM     ON      N1   R$  000000000120000000000012000000000001200000000000120000000000012000000000001152000000000120000002000000000000000023000000000000027600000000000000009999123100000010000000000000BRBRKMACNOR1110
012013082102BRKM5       010BRASKEM     PNA     N1   R$  000000000176100000000017800000000001735000000000176000000000017550000000001755000000000175906679000000000002016600000000003549635700000000000000009999123100000010000000000000BRBRKMACNPA4110
012013082196BRKM5F      020BRASKEM     PNA     N1   R$  000000000178000000000018000000000001731000000000175500000000017500000000001741000000000177000059000000000000001969000000000003457141000000000000009999123100000010000000000000BRBRKMACNPA4110
012013082162BRKM5T      030BRASKEM     PNA     N1016R$  000000000176300000000017640000000001763000000000176300000000017640000000000000000000000000000002000000000000000500000000000000881600000000000000009999123100000010000000000000BRBRKMACNPA4110
012013082178BRKMI47     070BRKM        PNA     N1000R$  000000000004800000000000480000000000048000000000004800000000000480000000000000000000000000000003000000000000050000000000000002400000000000000175002013091600000010000000000000BRBRKMACNPA4110
012013082178BRKMJ53     070BRKME       PNA     N1000R$  000000000046400000000004640000000000464000000000046400000000004640000000000000000000000000000001000000000001907000000000000884848000000000000132502013102100000010000000000000BRBRKMACNPA4110
012013082178BRKMJ59     070BRKME       PNA     N1000R$  000000000004400000000000440000000000044000000000004400000000000440000000000000000000000000000001000000000001907000000000000083908000000000000192502013102100000010000000000000BRBRKMACNPA4110
012013082182BRKMV53     080BRKME       PNA     N1000R$  000000000000100000000000010000000000001000000000000100000000000010000000000000000000000000000001000000000001907000000000000001907000000000000132502013102100000010000000000000BRBRKMACNPA4110
012013082182BRKMV59     080BRKME       PNA     N1000R$  000000000017100000000001710000000000171000000000017100000000001710000000000000000000000000000001000000000001907000000000000326097000000000000192502013102100000010000000000000BRBRKMACNPA4110
012013082102BRML3       010BR MALLS PARON      NM   R$  000000000183900000000018620000000001813000000000183900000000018390000000001834000000000183908850000000000003337600000000006138295800000000000000009999123100000010000000000000BRBRMLACNOR9105
012013082196BRML3F      020BR MALLS PARON      NM   R$  000000000196000000000019630000000001812000000000184600000000018550000000001822000000000185500062000000000000001831000000000003381436000000000000009999123100000010000000000000BRBRMLACNOR9105
012013082162BRML3T      030BR MALLS PARON      NM030R$  000000000185000000000018510000000001842000000000184700000000018430000000000000000000000000000006000000000000006000000000000011087070000000000000009999123100000010000000000000BRBRMLACNOR9105
012013082178BRMLA21     070BRML        ON      NM000R$  000000000005600000000000560000000000056000000000005600000000000560000000000000000000000000000002000000000000043000000000000002408000000000000210002014012000000010000000000000BRBRMLACNOR9105
012013082178BRMLI49     070BRML        ON      NM000R$  000000000002300000000000230000000000023000000000002300000000000230000000000000000000000000000001000000000000000200000000000000004600000000000195002013091600000010000000000000BRBRMLACNOR9105
012013082102BRPR3       010BR PROPERT  ON      NM   R$  000000000178600000000018120000000001752000000000178300000000017900000000001776000000000179006959000000000002299100000000004101196200000000000000009999123100000010000000000000BRBRPRACNOR9112
012013082196BRPR3F      020BR PROPERT  ON      NM   R$  000000000179000000000018120000000001751000000000176500000000017700000000001751000000000177000048000000000000001301000000000002296540000000000000009999123100000010000000000000BRBRPRACNOR9112
012013082162BRPR3T      030BR PROPERT  ON      NM016R$  000000000178500000000017860000000001785000000000178500000000017860000000000000000000000000000002000000000000000500000000000000892645000000000000009999123100000010000000000000BRBRPRACNOR9112
012013082162BRPR3T      030BR PROPERT  ON      NM120R$  000000000185000000000018510000000001850000000000185000000000018510000000000000000000000000000002000000000000004000000000000007402110000000000000009999123100000010000000000000BRBRPRACNOR9112
012013082178BRPRI19     070BRPR        ON      NM000R$  000000000001800000000000180000000000018000000000001800000000000180000000000000000000000000000001000000000000000500000000000000009000000000000190002013091600000010000000000000BRBRPRACNOR9112
012013082102BRSR3       010BANRISUL    ON      N1   R$  000000000137900000000013790000000001378000000000137800000000013780000000001220000000000137900007000000000000001200000000000001654600000000000000009999123100000010000000000000BRBRSRACNOR3130
012013082196BRSR3F      020BANRISUL    ON      N1   R$  000000000135000000000013500000000001350000000000135000000000013500000000001208000000000000000002000000000000000080000000000000108000000000000000009999123100000010000000000000BRBRSRACNOR3130
012013082102BRSR6       010BANRISUL    PNB     N1   R$  000000000138300000000014050000000001350000000000135900000000013500000000001350000000000135602866000000000000851700000000001157471400000000000000009999123100000010000000000000BRBRSRACNPB4133
012013082196BRSR6F      020BANRISUL    PNB     N1   R$  000000000138000000000014200000000001352000000000137000000000013610000000001356000000000140000035000000000000001082000000000001479914000000000000009999123100000010000000000000BRBRSRACNPB4133
012013082162BRSR6T      030BANRISUL    PNB     N1016R$  000000000137000000000013710000000001370000000000137000000000013710000000000000000000000000000002000000000000001000000000000001370597000000000000009999123100000010000000000000BRBRSRACNPB4133
012013082162BRSR6T      030BANRISUL    PNB     N1061R$  000000000139100000000013920000000001369000000000138400000000013700000000000000000000000000000004000000000000003000000000000004152310000000000000009999123100000010000000000000BRBRSRACNPB4133
012013082102BSEV3       010BIOSEV      ON      NM   R$  000000000083500000000008700000000000835000000000085200000000008680000000000860000000000086900021000000000000043700000000000037265400000000000000009999123100000010000000000000BRBSEVACNOR3100
012013082102BTOW3       010B2W DIGITAL ON      NM   R$  000000000129000000000013000000000001205000000000124600000000012210000000001221000000000122303391000000000001064300000000001326466300000000000000009999123100000010000000000000BRBTOWACNOR8105
012013082196BTOW3F      020B2W DIGITAL ON      NM   R$  000000000129600000000012960000000001201000000000125900000000012150000000001217000000000122000071000000000000002025000000000002551175000000000000009999123100000010000000000000BRBTOWACNOR8105
012013082162BTOW3T      030B2W DIGITAL ON      NM030R$  000000000128300000000012840000000001278000000000128300000000012790000000000000000000000000000008000000000000010400000000000013350806000000000000009999123100000010000000000000BRBTOWACNOR8105
012013082102BTTL4       010BATTISTELLA PN           R$  000000000010000000000001000000000000100000000000010000000000001000000000000098000000000010000001000000000000005900000000000000590000000000000000009999123100000010000000000000BRBTTLACNPR7105
012013082102BVMF3       010BMFBOVESPA  ON      NM   R$  000000000112200000000011560000000001122000000000114900000000011560000000001150000000000115622290000000000013888200000000015960273000000000000000009999123100000010000000000000BRBVMFACNOR3125
012013082196BVMF3F      020BMFBOVESPA  ON      NM   R$  000000000112800000000011550000000001128000000000114800000000011490000000001136000000000116000113000000000000003442000000000003952183000000000000009999123100000010000000000000BRBVMFACNOR3125
012013082162BVMF3T      030BMFBOVESPA  ON      NM030R$  000000000116400000000011650000000001164000000000116400000000011650000000000000000000000000000002000000000000050000000000000058204600000000000000009999123100000010000000000000BRBVMFACNOR3125
012013082162BVMF3T      030BMFBOVESPA  ON      NM090R$  000000000117300000000011730000000001173000000000117300000000011730000000000000000000000000000001000000000000001500000000000001759500000000000000009999123100000010000000000000BRBVMFACNOR3125
012013082178BVMFI10     070BVMF        ON      NM000R$  000000000016000000000001600000000000160000000000016000000000001600000000000000000000000000000001000000000000000200000000000000032000000000000100002013091600000010000000000000BRBVMFACNOR3125
012013082178BVMFI11     070BVMF  FM    ON      NM000R$  000000000007300000000000770000000000068000000000007200000000000750000000000072000000000007500091000000000000165000000000000011952900000000000110002013091600000010000000000000BRBVMFACNOR3125
012013082178BVMFI12     070BVMF  FM    ON      NM000R$  000000000001700000000000250000000000017000000000002100000000000210000000000020000000000002100201000000000000511100000000000011132400000000000120002013091600000010000000000000BRBVMFACNOR3125
012013082178BVMFI13     070BVMF  FM    ON      NM000R$  000000000000500000000000070000000000005000000000000500000000000050000000000005000000000000700057000000000000189600000000000001117500000000000130002013091600000010000000000000BRBVMFACNOR3125
012013082178BVMFI14     070BVMF        ON      NM000R$  000000000000200000000000020000000000002000000000000200000000000020000000000001000000000000300008000000000000055900000000000000111800000000000140002013091600000010000000000000BRBVMFACNOR3125
012013082178BVMFI40     070BVMF        ON      NM000R$  000000000011500000000001150000000000115000000000011500000000001150000000000000000000000000000001000000000000001200000000000000138000000000000105002013091600000010000000000000BRBVMFACNOR3125
012013082178BVMFI41     070BVMF  FM    ON      NM000R$  000000000004000000000000450000000000040000000000004300000000000450000000000033000000000004600009000000000000016000000000000000691200000000000115002013091600000010000000000000BRBVMFACNOR3125
012013082178BVMFI42     070BVMF  FM    ON      NM000R$  000000000000900000000000130000000000009000000000001100000000000120000000000000000000000001500135000000000000491600000000000005827800000000000125002013091600000010000000000000BRBVMFACNOR3125
012013082178BVMFJ11     070BVMF  FM    ON      NM000R$  000000000009400000000000980000000000094000000000009500000000000960000000000000000000000009700034000000000000089700000000000008545100000000000110002013102100000010000000000000BRBVMFACNOR3125
012013082178BVMFJ12     070BVMF  FM    ON      NM000R$  000000000004200000000000430000000000038000000000004000000000000410000000000031000000000004600070000000000000163200000000000006561800000000000120002013102100000010000000000000BRBVMFACNOR3125
012013082178BVMFJ13     070BVMF  FM    ON      NM000R$  000000000001200000000000140000000000012000000000001200000000000140000000000012000000000001500019000000000000054900000000000000708000000000000130002013102100000010000000000000BRBVMFACNOR3125
012013082178BVMFJ41     070BVMF  FM    ON      NM000R$  000000000006300000000000660000000000063000000000006400000000000650000000000000000000000000000020000000000000063600000000000004126500000000000115002013102100000010000000000000BRBVMFACNOR3125
012013082178BVMFJ42     070BVMF  FM    ON      NM000R$  000000000002500000000000250000000000023000000000002300000000000230000000000000000000000000000007000000000000893200000000000020559100000000000125002013102100000010000000000000BRBVMFACNOR3125
012013082178BVMFK11     070BVMF        ON      NM000R$  000000000010900000000001090000000000109000000000010900000000001090000000000000000000000000000004000000000000004500000000000000490500000000000110002013111800000010000000000000BRBVMFACNOR3125
012013082178BVMFK12     070BVMF        ON      NM000R$  000000000005400000000000540000000000054000000000005400000000000540000000000000000000000000000002000000000000000900000000000000048600000000000120002013111800000010000000000000BRBVMFACNOR3125
012013082182BVMFU10     080BVMFE       ON      NM000R$  000000000000400000000000040000000000003000000000000300000000000040000000000003000000000001000011000000000000053300000000000000208200000000000100002013091600000010000000000000BRBVMFACNOR3125
012013082182BVMFU11     080BVMFE FM    ON      NM000R$  000000000001800000000000200000000000017000000000001800000000000190000000000000000000000002000036000000000000075800000000000001411800000000000110002013091600000010000000000000BRBVMFACNOR3125
012013082182BVMFU12     080BVMFE FM    ON      NM000R$  000000000006700000000000720000000000062000000000006400000000000630000000000000000000000000000035000000000000088800000000000005718600000000000120002013091600000010000000000000BRBVMFACNOR3125
012013082182BVMFU40     080BVMFE FM    ON      NM000R$  000000000000800000000000090000000000008000000000000800000000000090000000000007000000000001800007000000000000018500000000000000159100000000000105002013091600000010000000000000BRBVMFACNOR3125
012013082182BVMFU41     080BVMFE FM    ON      NM000R$  000000000003900000000000390000000000034000000000003700000000000380000000000000000000000006900014000000000000034300000000000001284600000000000115002013091600000010000000000000BRBVMFACNOR3125
012013082182BVMFV10     080BVMFE       ON      NM000R$  000000000001300000000000130000000000011000000000001100000000000110000000000000000000000000000003000000000000881800000000000009853000000000000100002013102100000010000000000000BRBVMFACNOR3125
012013082182BVMFV11     080BVMFE FM    ON      NM000R$  000000000003500000000000350000000000032000000000003200000000000320000000000000000000000000000005000000000000887300000000000028406200000000000110002013102100000010000000000000BRBVMFACNOR3125
012013082182BVMFV12     080BVMFE FM    ON      NM000R$  000000000007800000000000800000000000074000000000007600000000000740000000000072000000000008900024000000000000064100000000000004924200000000000120002013102100000010000000000000BRBVMFACNOR3125
012013082182BVMFV40     080BVMFE FM    ON      NM000R$  000000000002100000000000210000000000019000000000002000000000000190000000000000000000000000000003000000000000005400000000000000109800000000000105002013102100000010000000000000BRBVMFACNOR3125
012013082182BVMFV41     080BVMFE FM    ON      NM000R$  000000000005400000000000550000000000050000000000005300000000000500000000000000000000000008000013000000000000041000000000000002190400000000000115002013102100000010000000000000BRBVMFACNOR3125
012013082182BVMFV51     080BVMFE       ON      NM000R$  000000000006600000000000660000000000066000000000006600000000000660000000000000000000000000000001000000000000005000000000000000330000000000000117502013102100000010000000000000BRBVMFACNOR3125
012013082182BVMFX2      080BVMFE       ON      NM000R$  000000000008400000000000840000000000084000000000008400000000000840000000000000000000000000000001000000000000001800000000000000151200000000000118902013121600000010000000000000BRBVMFACNOR3124
012013082102CAMB4       010CAMBUCI     PN           R$  000000000017600000000001820000000000176000000000018100000000001820000000000182000000000018400003000000000000002900000000000000527200000000000000009999123100000010000000000000BRCAMBACNPR1117
012013082196CAMB4F      020CAMBUCI     PN           R$  000000000017000000000001700000000000165000000000016700000000001650000000000100000000000025000002000000000000000002000000000000000335000000000000009999123100000010000000000000BRCAMBACNPR1117
012013082102CARD3       010CSU CARDSYSTON      NM   R$  000000000032000000000003290000000000312000000000032200000000003280000000000318000000000032800067000000000000048800000000000015737300000000000000009999123100000010000000000000BRCARDACNOR9105
012013082102CBEE3       010AMPLA ENERG ON *         R$  000000000013800000000001380000000000138000000000013800000000001380000000000130000000000013900002000000000001300000000000000000179400000000000000009999123100010000000000000000BRCBEEACNOR3149
012013082102CBMA4       010COBRASMA    PN           R$  000000000000400000000000050000000000004000000000000400000000000050000000000004000000000000500007000000000000190000000000000000780000000000000000009999123100000010000000000000BRCBMAACNPR1124
012013082196CBMA4F      020COBRASMA    PN           R$  000000000000400000000000040000000000004000000000000400000000000040000000000004000000000000500002000000000000004900000000000000019600000000000000009999123100000010000000000000BRCBMAACNPR1124
012013082162CBMA4T      030COBRASMA    PN        090R$  000000000000500000000000060000000000005000000000000500000000000060000000000000000000000000000002000000000000020000000000000000102050000000000000009999123100000010000000000000BRCBMAACNPR1124
012013082108CCHI3       010CHIARELLI   ON           R$  000000000002900000000000300000000000029000000000002900000000000300000000000029000000000003000005000000000000090000000000000002650000000000000000009999123100000010000000000000BRCCHIACNOR5123
012013082196CCHI3F      020CHIARELLI   ON           R$  000000000002900000000000290000000000029000000000002900000000000290000000000028000000000003300001000000000000003810000000000000110490000000000000009999123100000010000000000000BRCCHIACNOR5123
012013082102CCPR3       010CYRE COM-CCPON      NM   R$  000000000219900000000022990000000002168000000000222600000000021680000000002168000000000228500017000000000000004300000000000009571900000000000000009999123100000010000000000000BRCCPRACNOR9107
012013082102CCRO3       010CCR SA      ON      NM   R$  000000000169600000000017390000000001677000000000170400000000016900000000001690000000000169713091000000000005665900000000009655460000000000000000009999123100000010000000000000BRCCROACNOR2122
012013082196CCRO3F      020CCR SA      ON      NM   R$  000000000173000000000017310000000001679000000000170300000000016930000000001693000000000171800059000000000000001489000000000002535961000000000000009999123100000010000000000000BRCCROACNOR2122
012013082162CCRO3T      030CCR SA      ON      NM061R$  000000000172700000000017300000000001727000000000172700000000017300000000000000000000000000000004000000000000002500000000000004319089000000000000009999123100000010000000000000BRCCROACNOR2122
012013082162CCRO3T      030CCR SA      ON      NM180R$  000000000179100000000017920000000001791000000000179100000000017920000000000000000000000000000002000000000000010000000000000017912250000000000000009999123100000010000000000000BRCCROACNOR2122
012013082102CCXC3       010CCX CARVAO  ON      NM   R$  000000000013600000000001640000000000135000000000015100000000001600000000000159000000000016004370000000000027607300000000004200508100000000000000009999123100000010000000000000BRCCXCACNOR5100
012013082196CCXC3F      020CCX CARVAO  ON      NM   R$  000000000013400000000001560000000000134000000000014800000000001560000000000153000000000016100047000000000000001459000000000000216770000000000000009999123100000010000000000000BRCCXCACNOR5100
012013082102CEBR3       010CEB         ON           R$  000000000169900000000016990000000001699000000000169900000000016990000000001508000000000170000001000000000000001200000000000002038800000000000000009999123100000010000000000000BRCEBRACNOR5114
012013082162CEBR3T      030CEB         ON        180R$  000000000178300000000017840000000001783000000000178300000000017840000000000000000000000000000002000000000000001200000000000002140740000000000000009999123100000010000000000000BRCEBRACNOR5114
012013082102CEBR5       010CEB         PNA          R$  000000000195000000000019500000000001950000000000195000000000019500000000001800000000000210000001000000000000001500000000000002925000000000000000009999123100000010000000000000BRCEBRACNPA8113
012013082162CEBR5T      030CEB         PNA       180R$  000000000204700000000020480000000002047000000000204700000000020480000000000000000000000000000002000000000000001500000000000003071250000000000000009999123100000010000000000000BRCEBRACNPA8113
012013082102CEBR6       010CEB         PNB          R$  000000000151100000000016000000000001511000000000155300000000015800000000001500000000000158000006000000000000000900000000000001398300000000000000009999123100000010000000000000BRCEBRACNPB6113
012013082108CELP3       010CELPA       ON           R$  000000000006100000000000630000000000061000000000006100000000000610000000000061000000000006400010000000000000024000000000000001477000000000000000009999123100000010000000000000BRCELPACNOR8112
012013082112CEOC11B     010FII CEO CCP CI      MB   R$  000000000895000000000090400000000008870000000000893100000000090000000000009000000000000909800019000000000000001537000000000013727830000000000000009999123100000010000000000000BRCEOCCTF003109
012013082102CESP3       010CESP        ON  EJ  N1   R$  000000000168000000000017200000000001680000000000170000000000017200000000001655000000000172000008000000000000004300000000000007314200000000000000009999123100000010000000000000BRCESPACNOR3160
012013082196CESP3F      020CESP        ON  EJ  N1   R$  000000000165800000000016580000000001658000000000165800000000016580000000001658000000000170000001000000000000000025000000000000041450000000000000009999123100000010000000000000BRCESPACNOR3160
012013082162CESP3T      030CESP        ON  EJ  N1030R$  000000000171500000000017160000000001715000000000171500000000017160000000000000000000000000000002000000000000003100000000000005317430000000000000009999123100000010000000000000BRCESPACNOR3160
012013082102CESP6       010CESP        PNB EJ  N1   R$  000000000200600000000020740000000002003000000000204600000000020550000000002054000000000205502642000000000000751300000000001537171100000000000000009999123100000010000000000000BRCESPACNPB4119
012013082196CESP6F      020CESP        PNB EJ  N1   R$  000000000201500000000020750000000001958000000000203400000000020750000000001957000000000207500050000000000000001533000000000003119105000000000000009999123100000010000000000000BRCESPACNPB4119
012013082162CESP6T      030CESP        PNB EJ  N1030R$  000000000207900000000020800000000002079000000000207900000000020800000000000000000000000000000002000000000000120000000000000249490968000000000000009999123100000010000000000000BRCESPACNPB4119
012013082162CESP6T      030CESP        PNB EJ  N1180R$  000000000215100000000021520000000002151000000000215100000000021520000000000000000000000000000002000000000000001000000000000002151089000000000000009999123100000010000000000000BRCESPACNPB4119
012013082178CESPJ22     070CESP    /EJ PNB     N1000R$  000000000002500000000000250000000000025000000000002500000000000250000000000000000000000000000001000000000000070000000000000001750000000000000220002013102100000010000000000000BRCESPACNPB4119
012013082178CESPK22     070CESP    /EJ PNB     N1000R$  000000000004500000000000450000000000045000000000004500000000000450000000000000000000000000000001000000000000265000000000000011925000000000000220002013111800000010000000000000BRCESPACNPB4119
012013082182CESPV49     080CESPE   /EJ PNB     N1000R$  000000000004100000000000410000000000041000000000004100000000000410000000000000000000000000000001000000000000070000000000000002870000000000000195002013102100000010000000000000BRCESPACNPB4119
012013082182CESPV50     080CESPE   /EJ PNB     N1000R$  000000000007600000000000760000000000076000000000007600000000000760000000000000000000000000000001000000000000070000000000000005320000000000000205002013102100000010000000000000BRCESPACNPB4119
012013082182CESPW49     080CESPE   /EJ PNB     N1000R$  000000000004200000000000420000000000042000000000004200000000000420000000000000000000000000000001000000000000265000000000000011130000000000000195002013111800000010000000000000BRCESPACNPB4119
012013082182CESPW50     080CESPE   /EJ PNB     N1000R$  000000000008200000000000820000000000082000000000008200000000000820000000000000000000000000000001000000000000265000000000000021730000000000000205002013111800000010000000000000BRCESPACNPB4119
012013082102CGAS3       010COMGAS      ON           R$  000000000507900000000051500000000005079000000000514100000000051500000000004807000000000515000010000000000000001600000000000008225600000000000000009999123100000010000000000000BRCGASACNOR0132
012013082102CGAS5       010COMGAS      PNA          R$  000000000552800000000055330000000005500000000000551000000000055100000000005510000000000553000168000000000000046900000000000258427800000000000000009999123100000010000000000000BRCGASACNPA3129
012013082196CGAS5F      020COMGAS      PNA          R$  000000000550000000000055000000000005500000000000550000000000055000000000005500000000000590000001000000000000000043000000000000236500000000000000009999123100000010000000000000BRCGASACNPA3129
012013082102CGRA3       010GRAZZIOTIN  ON           R$  000000000164000000000016400000000001640000000000164000000000016400000000001560000000000166500001000000000000000100000000000000164000000000000000009999123100000010000000000000BRCGRAACNOR2061
012013082102CGRA4       010GRAZZIOTIN  PN           R$  000000000166900000000016710000000001647000000000165500000000016540000000001649000000000165500219000000000000051400000000000085116600000000000000009999123100000010000000000000BRCGRAACNPR9061
012013082196CGRA4F      020GRAZZIOTIN  PN           R$  000000000164800000000016480000000001648000000000164800000000016480000000001640000000000180000001000000000000000008000000000000013184000000000000009999123100000010000000000000BRCGRAACNPR9061
012013082102CHVX11B     010CHEVRON     DRN ED  MB   R$  000000002859300000000285930000000028593000000002859300000000285930000000028558000000002970000001000000000000000900000000000025733700000000000000009999123100000010000000000000BRCHVXBDR008109
012013082102CIEL3       010CIELO       ON      NM   R$  000000000557300000000057550000000005564000000000563400000000056530000000005653000000000565607774000000000002741700000000015446989700000000000000009999123100000010000000000000BRCIELACNOR3111
012013082196CIEL3F      020CIELO       ON      NM   R$  000000000558000000000057500000000005563000000000566300000000056500000000005645000000000565000157000000000000004140000000000023447731000000000000009999123100000010000000000000BRCIELACNOR3111
012013082178CIELI57     070CIEL        ON      NM000R$  000000000007500000000001000000000000075000000000008700000000001000000000000000000000000000000002000000000000000600000000000000052500000000000570002013091600000010000000000000BRCIELACNOR3111
012013082178CIELI58     070CIEL        ON      NM000R$  000000000007000000000000700000000000070000000000007000000000000700000000000000000000000000000001000000000000002000000000000000140000000000000580002013091600000010000000000000BRCIELACNOR3111
012013082178CIELI59     070CIEL        ON      NM000R$  000000000003800000000000380000000000038000000000003800000000000380000000000000000000000000000001000000000000000100000000000000003800000000000590002013091600000010000000000000BRCIELACNOR3111
012013082178CIELJ59     070CIEL        ON      NM000R$  000000000008000000000000800000000000080000000000008000000000000800000000000000000000000000000003000000000000016100000000000001288000000000000590002013102100000010000000000000BRCIELACNOR3111
012013082102CLSC4       010CELESC      PN      N2   R$  000000000183000000000018300000000001810000000000181700000000018190000000001810000000000182000029000000000000004100000000000007451200000000000000009999123100000010000000000000BRCLSCACNPR3107
012013082162CLSC4T      030CELESC      PN      N2120R$  000000000188000000000018810000000001880000000000188000000000018810000000000000000000000000000004000000000000000700000000000001316099000000000000009999123100000010000000000000BRCLSCACNPR3107
012013082102CMCS11B     010COMCAST     DRN     MB   R$  000000001018800000000101880000000010188000000001018800000000101880000000009200000000001120000001000000000000003900000000000039733200000000000000009999123100000010000000000000BRCMCSBDR008106
012013082102CMIG3       010CEMIG       ON      N1   R$  000000000192000000000019200000000001891000000000190300000000018950000000001895000000000191000438000000000000129100000000000245769700000000000000009999123100000010000000000000BRCMIGACNOR6208
012013082196CMIG3F      020CEMIG       ON      N1   R$  000000000191100000000019310000000001892000000000191100000000019100000000001892000000000194000032000000000000000859000000000001641572000000000000009999123100000010000000000000BRCMIGACNOR6208
012013082102CMIG4       010CEMIG       PN      N1   R$  000000000191500000000019520000000001913000000000193000000000019130000000001913000000000192408257000000000002240800000000004324801800000000000000009999123100000010000000000000BRCMIGACNPR3208
012013082196CMIG4F      020CEMIG       PN      N1   R$  000000000193300000000019740000000001914000000000192900000000019150000000001916000000000196900114000000000000003110000000000006000671000000000000009999123100000010000000000000BRCMIGACNPR3208
012013082162CMIG4S      030CEMIG       PN      N1061R$  000000000196100000000019620000000001961000000000196100000000019620000000000000000000000000000002000000000000008000000000000015694022000000000000009999123100000010000000000000BRCMIGACNPR3208
012013082162CMIG4T      030CEMIG       PN      N1061R$  000000000195700000000019580000000001957000000000195700000000019580000000000000000000000000000002000000000000002000000000000003915778000000000000009999123100000010000000000000BRCMIGACNPR3208
012013082162CMIG4T      030CEMIG       PN      N1090R$  000000000196900000000019700000000001969000000000196900000000019700000000000000000000000000000002000000000000001000000000000001969427000000000000009999123100000010000000000000BRCMIGACNPR3208
012013082178CMIGI20     070CMIG        PN      N1000R$  000000000002600000000000320000000000026000000000002900000000000320000000000027000000000004900004000000000000001300000000000000038800000000000200002013091600000010000000000000BRCMIGACNPR3208
012013082178CMIGI21     070CMIG        PN      N1000R$  000000000000800000000000150000000000008000000000000800000000000150000000000000000000000002500002000000000000120300000000000000964500000000000210002013091600000010000000000000BRCMIGACNPR3208
012013082112CNES11B     010FII CENESP  CI      MB   R$  000000001265000000000126500000000012650000000001265000000000126500000000012563000000001279800003000000000000000050000000000000632500000000000000009999123100000010000000000000BRCNESCTF001124
012013082102COCA11B     010COCA COLA   DRN     MB   R$  000000000933900000000094000000000009339000000000934200000000094000000000009286000000000965700002000000000000001900000000000017750200000000000000009999123100000010000000000000BRCOCABDR002108
012013082102COCE3       010COELCE      ON           R$  000000000406500000000040650000000004065000000000406500000000040650000000003901000000000407000004000000000000000600000000000002439000000000000000009999123100000010000000000000BRCOCEACNOR0132
012013082102COCE5       010COELCE      PNA          R$  000000000394000000000039560000000003815000000000389400000000039050000000003905000000000390600256000000000000058400000000000227464200000000000000009999123100000010000000000000BRCOCEACNPA3133
012013082196COCE5F      020COELCE      PNA          R$  000000000392000000000039250000000003809000000000388500000000038250000000003825000000000398500025000000000000000651000000000002529510000000000000009999123100000010000000000000BRCOCEACNPA3133
012013082102CPFE3       010CPFL ENERGIAON      NM   R$  000000000200300000000020350000000001967000000000199400000000019800000000001980000000000199004415000000000000925000000000001844671100000000000000009999123100000010000000000000BRCPFEACNOR0121
012013082196CPFE3F      020CPFL ENERGIAON      NM   R$  000000000202500000000020490000000001960000000000198700000000019920000000001960000000000200000050000000000000001182000000000002348892000000000000009999123100000010000000000000BRCPFEACNOR0121
012013082102CPLE3       010COPEL       ON      N1   R$  000000000224000000000022990000000002220000000000228200000000022990000000002202000000000229900022000000000000003900000000000008902000000000000000009999123100000010000000000000BRCPLEACNOR8128
012013082196CPLE3F      020COPEL       ON      N1   R$  000000000223500000000022350000000002235000000000223500000000022350000000002234000000000223500001000000000000000002000000000000004470000000000000009999123100000010000000000000BRCPLEACNOR8128
012013082102CPLE6       010COPEL       PNB     N1   R$  000000000294200000000029860000000002935000000000295900000000029620000000002955000000000296201551000000000000283300000000000838420400000000000000009999123100000010000000000000BRCPLEACNPB9125
012013082196CPLE6F      020COPEL       PNB     N1   R$  000000000294200000000029620000000002931000000000293900000000029310000000002931000000000299700018000000000000000800000000000002351210000000000000009999123100000010000000000000BRCPLEACNPB9125
012013082102CRDE3       010CR2         ON      NM   R$  000000000041700000000004200000000000417000000000041900000000004200000000000420000000000043000004000000000000003600000000000001511100000000000000009999123100000010000000000000BRCRDEACNOR1108
012013082102CREM3       010CREMER      ON      NM   R$  000000000144200000000014890000000001439000000000144200000000014890000000001440000000000149100013000000000000008000000000000011543900000000000000009999123100000010000000000000BRCREMACNOR2166
012013082102CRIV4       010ALFA FINANC PN  EJ       R$  000000000045000000000004500000000000441000000000044600000000004410000000000441000000000046800007000000000000002700000000000001205100000000000000009999123100000010000000000000BRCRIVACNPR1190
