00COTAHIST.2013BOVESPA 20130920                                                                                                                                                                                                                      
012013092002AAPL34      010APPLE       DRN          R$  000000001048500000000104850000000010485000000001048500000000104850000000010285000000001042500001000000000000000400000000000004194000000000000000009999123100000010000000000000BRAAPLBDR004105
012013092002ABCB4       010ABC BRASIL  PN      N2   R$  000000000121200000000012210000000001202000000000120900000000012050000000001205000000000121601216000000000000638200000000000772088700000000000000009999123100000010000000000000BRABCBACNPR4120
012013092096ABCB4F      020ABC BRASIL  PN      N2   R$  000000000120300000000012260000000001201000000000120900000000012180000000001208000000000121800012000000000000000251000000000000303630000000000000009999123100000010000000000000BRABCBACNPR4120
012013092062ABCB4T      030ABC BRASIL  PN      N2017R$  000000000122100000000012220000000001221000000000122100000000012220000000000000000000000000000002000000000000001200000000000001466019000000000000009999123100000010000000000000BRABCBACNPR4120
012013092012ABCP11      010FII ABC IMOBCI           R$  000000000097200000000009720000000000972000000000097200000000009720000000000974000000000102400001000000000000000058000000000000056376000000000000009999123100000010000000000000BRABCPCTF000215
012013092002ABRE11      010ABRIL EDUCA UNT     N2   R$  000000000339600000000033980000000003263000000000330900000000033000000000003296000000000330000475000000000000137900000000000456390300000000000000009999123100000010000000000000BRABRECDAM15102
012013092096ABRE11F     020ABRIL EDUCA UNT     N2   R$  000000000336000000000033600000000003280000000000329300000000032800000000003233000000000330000008000000000000000204000000000000671789000000000000009999123100000010000000000000BRABRECDAM15102
012013092062ABRE11T     030ABRIL EDUCA UNT     N2060R$  000000000335700000000033580000000003357000000000335700000000033580000000000000000000000000000002000000000000001000000000000003357063000000000000009999123100000010000000000000BRABRECDAM15102
012013092002AEDU3       010ANHANGUERA  ON      NM   R$  000000000133500000000013430000000001301000000000131300000000013010000000001301000000000130803962000000000001409400000000001850739600000000000000009999123100000010000000000000BRAEDUACNOR9107
012013092096AEDU3F      020ANHANGUERA  ON      NM   R$  000000000133000000000013520000000001304000000000131700000000013040000000001302000000000136500022000000000000000851000000000001120517000000000000009999123100000010000000000000BRAEDUACNOR9107
012013092012AEFI11      010FII AESAPAR CI           R$  000000001195100000000119510000000011855000000001188100000000119000000000011865000000001195900028000000000000000673000000000007995965000000000000009999123100000010000000000000BRAEFICTF002121
012013092002AELP3       010AES ELPA    ON           R$  000000000100000000000010000000000000990000000000099800000000009900000000000950000000000099900007000000000000018000000000000017975400000000000000009999123100000010000000000000BRAELPACNOR2119
012013092062AELP3T      030AES ELPA    ON        060R$  000000000101300000000010140000000001013000000000101300000000010140000000000000000000000000000004000000000000016000000000000016222162000000000000009999123100000010000000000000BRAELPACNOR2119
012013092012AGCX11      010FII AG CAIXACI           R$  000000009400000000000940000000000094000000000009400000000000940000000000093900000000009639900014000000000000000229000000000021526000000000000000009999123100000010000000000000BRAGCXCTF003110
012013092002AGRO3       010BRASILAGRO  ON      NM   R$  000000000099200000000009920000000000960000000000097400000000009800000000000980000000000098400045000000000000011200000000000010910700000000000000009999123100000010000000000000BRAGROACNOR7102
012013092062AGRO3T      030BRASILAGRO  ON      NM031R$  000000000098600000000009870000000000986000000000098600000000009870000000000000000000000000000002000000000000001100000000000001085438000000000000009999123100000010000000000000BRAGROACNOR7102
012013092002ALLL3       010ALL AMER LATON      NM   R$  000000000092800000000009340000000000913000000000092100000000009190000000000917000000000091904899000000000001475400000000001359285400000000000000009999123100000010000000000000BRALLLACNOR6118
012013092096ALLL3F      020ALL AMER LATON      NM   R$  000000000092900000000009320000000000913000000000092100000000009130000000000913000000000092900029000000000000000875000000000000806639000000000000009999123100000010000000000000BRALLLACNOR6118
012013092062ALLL3T      030ALL AMER LATON      NM017R$  000000000092400000000009250000000000922000000000092300000000009230000000000000000000000000000004000000000000023000000000000021245212000000000000009999123100000010000000000000BRALLLACNOR6118
012013092062ALLL3T      030ALL AMER LATON      NM031R$  000000000092500000000009260000000000925000000000092500000000009260000000000000000000000000000002000000000000001000000000000000925341000000000000009999123100000010000000000000BRALLLACNOR6118
012013092062ALLL3T      030ALL AMER LATON      NM045R$  000000000093700000000009380000000000937000000000093700000000009380000000000000000000000000000002000000000000003000000000000002812675000000000000009999123100000010000000000000BRALLLACNOR6118
012013092062ALLL3T      030ALL AMER LATON      NM060R$  000000000093900000000009400000000000939000000000093900000000009400000000000000000000000000000002000000000000001200000000000001127417000000000000009999123100000010000000000000BRALLLACNOR6118
012013092062ALLL3T      030ALL AMER LATON      NM090R$  000000000094700000000009480000000000947000000000094700000000009480000000000000000000000000000002000000000000005000000000000004737904000000000000009999123100000010000000000000BRALLLACNOR6118
012013092012ALMI11B     010FII TORRE ALCI      MB   R$  000000030600000000003120000000000305000000000030591600000003051000000000305002000000030950000015000000000000000132000000000040381008000000000000009999123100000010000000000000BRALMICTF003205
012013092002ALPA4       010ALPARGATAS  PN      N1   R$  000000000139100000000014070000000001378000000000138800000000013780000000001378000000000139700708000000000000245500000000000340952700000000000000009999123100000010000000000000BRALPAACNPR7203
012013092096ALPA4F      020ALPARGATAS  PN      N1   R$  000000000140700000000014100000000001391000000000139800000000014100000000001388000000000141000021000000000000000648000000000000906430000000000000009999123100000010000000000000BRALPAACNPR7203
012013092002ALSC3       010ALIANSCE    ON      NM   R$  000000000208200000000020820000000002021000000000205400000000020380000000002038000000000204401347000000000000470100000000000966031900000000000000009999123100000010000000000000BRALSCACNOR0104
012013092096ALSC3F      020ALIANSCE    ON      NM   R$  000000000204100000000020410000000002041000000000204100000000020410000000001905000000000209100001000000000000000067000000000000136747000000000000009999123100000010000000000000BRALSCACNOR0104
012013092062ALSC3T      030ALIANSCE    ON      NM017R$  000000000204700000000020480000000002039000000000204400000000020400000000000000000000000000000004000000000000015000000000000030667180000000000000009999123100000010000000000000BRALSCACNOR0104
012013092002ALUP11      010ALUPAR      UNT     N2   R$  000000000176400000000017800000000001756000000000176600000000017600000000001750000000000176001127000000000000420900000000000743726400000000000000009999123100000010000000000000BRALUPCDAM15100
012013092096ALUP11F     020ALUPAR      UNT     N2   R$  000000000176700000000017990000000001761000000000176900000000017610000000001700000000000179900008000000000000000160000000000000283041000000000000009999123100000010000000000000BRALUPCDAM15100
012013092002AMAR3       010LOJAS MARISAON      NM   R$  000000000227300000000022910000000002233000000000225400000000022750000000002275000000000227701085000000000000247300000000000557554100000000000000009999123100000010000000000000BRAMARACNOR4109
012013092096AMAR3F      020LOJAS MARISAON      NM   R$  000000000249200000000024920000000002239000000000230900000000022410000000002230000000000249500010000000000000000368000000000000849796000000000000009999123100000010000000000000BRAMARACNOR4109
012013092062AMAR3T      030LOJAS MARISAON      NM031R$  000000000226700000000022680000000002255000000000226300000000022560000000000000000000000000000004000000000000007400000000000016748675000000000000009999123100000010000000000000BRAMARACNOR4109
012013092002AMBV3       010AMBEV       ON  ED       R$  000000000867900000000087960000000008571000000000870400000000086710000000008671000000000870401499000000000000296000000000002576470100000000000000009999123100000010000000000000BRAMBVACNOR4154
012013092096AMBV3F      020AMBEV       ON  ED       R$  000000000870000000000088000000000008500000000000868700000000087100000000008700000000000871000080000000000000001719000000000014934425000000000000009999123100000010000000000000BRAMBVACNOR4154
012013092062AMBV3T      030AMBEV       ON  ED    090R$  000000000885100000000088520000000008851000000000885100000000088520000000000000000000000000000004000000000000004000000000000035405428000000000000009999123100000010000000000000BRAMBVACNOR4154
012013092002AMBV4       010AMBEV       PN  ED       R$  000000000864900000000088050000000008563000000000870400000000086900000000008689000000000869009174000000000002351700000000020470521900000000000000009999123100000010000000000000BRAMBVACNPR1154
012013092096AMBV4F      020AMBEV       PN  ED       R$  000000000869500000000088000000000008575000000000870100000000087600000000008700000000000876000250000000000000005959000000000051852844000000000000009999123100000010000000000000BRAMBVACNPR1154
012013092062AMBV4T      030AMBEV       PN  ED    060R$  000000000875800000000087590000000008758000000000875800000000087590000000000000000000000000000002000000000000000500000000000004379293000000000000009999123100000010000000000000BRAMBVACNPR1154
012013092062AMBV4T      030AMBEV       PN  ED    090R$  000000000878700000000087880000000008787000000000878700000000087880000000000000000000000000000002000000000000000300000000000002636114000000000000009999123100000010000000000000BRAMBVACNPR1154
012013092062AMBV4T      030AMBEV       PN  ED    122R$  000000000895200000000089530000000008952000000000895200000000089530000000000000000000000000000002000000000000002500000000000022380737000000000000009999123100000010000000000000BRAMBVACNPR1154
012013092078AMBVC95     070AMBV        PN        000R$  000000000027000000000002700000000000270000000000027000000000002700000000000000000000000000000001000000000000015700000000000004239000000000000950002014031700000010000000000000BRAMBVACNPR1154
012013092078AMBVJ88     070AMBV    /ED PN        000R$  000000000015000000000001500000000000130000000000014000000000001300000000000000000000000022000003000000000000001800000000000000252400000000000873502013102100000010000000000000BRAMBVACNPR1153
012013092078AMBVJ89     070AMBV    /ED PN        000R$  000000000010000000000001000000000000081000000000009600000000000810000000000030000000000000000003000000000000002500000000000000240500000000000883502013102100000010000000000000BRAMBVACNPR1153
012013092078AMBVJ90     070AMBV    /ED PN        000R$  000000000006200000000000940000000000058000000000006100000000000940000000000000000000000000000005000000000000003100000000000000191000000000000893502013102100000010000000000000BRAMBVACNPR1153
012013092078AMBVJ91     070AMBV    /ED PN        000R$  000000000012000000000001210000000000119000000000011900000000001210000000000000000000000012100004000000000000050300000000000005986100000000000903502013102100000010000000000000BRAMBVACNPR1153
012013092078AMBVJ92     070AMBV    /ED PN        000R$  000000000005000000000000500000000000050000000000005000000000000500000000000000000000000008000002000000000000005000000000000000250000000000000913502013102100000010000000000000BRAMBVACNPR1153
012013092082AMBVO1      080AMBVE       PN        000R$  000000000010000000000001000000000000100000000000010000000000001000000000000000000000000000000001000000000000015700000000000001570000000000000775002014031700000010000000000000BRAMBVACNPR1154
012013092082AMBVO86     080AMBVE       PN        000R$  000000000037000000000003700000000000370000000000037000000000003700000000000000000000000000000001000000000000015700000000000005809000000000000860002014031700000010000000000000BRAMBVACNPR1154
012013092002ARTR3       010ARTERIS     ON      NM   R$  000000000190200000000019200000000001873000000000190300000000019110000000001911000000000191303467000000000003136100000000005968684100000000000000009999123100000010000000000000BRARTRACNOR3101
012013092096ARTR3F      020ARTERIS     ON      NM   R$  000000000189200000000019430000000001872000000000190600000000019000000000001900000000000198500029000000000000000838000000000001597614000000000000009999123100000010000000000000BRARTRACNOR3101
012013092002ARZZ3       010AREZZO CO   ON      NM   R$  000000000376100000000037610000000003683000000000372400000000037350000000003727000000000373500489000000000000192100000000000715433100000000000000009999123100000010000000000000BRARZZACNOR3109
012013092096ARZZ3F      020AREZZO CO   ON      NM   R$  000000000370100000000037990000000003601000000000368900000000037990000000003601000000000379900008000000000000000229000000000000844864000000000000009999123100000010000000000000BRARZZACNOR3109
012013092002AUTM3       010AUTOMETAL   ON      NM   R$  000000000185700000000018570000000001838000000000184500000000018500000000001842000000000185000051000000000000027300000000000050384000000000000000009999123100000010000000000000BRAUTMACNOR8109
012013092096AUTM3F      020AUTOMETAL   ON      NM   R$  000000000185000000000018500000000001850000000000185000000000018500000000001800000000000200000001000000000000000006000000000000011100000000000000009999123100000010000000000000BRAUTMACNOR8109
012013092002AXPB34      010AMERICAN EXPDRN          R$  000000001723600000000172360000000017236000000001723600000000172360000000016907000000001740800001000000000000000100000000000001723600000000000000009999123100000010000000000000BRAXPBBDR007105
012013092002AZEV4       010AZEVEDO     PN           R$  000000000014000000000001400000000000140000000000014000000000001400000000000130000000000014000001000000000000000500000000000000070000000000000000009999123100000010000000000000BRAZEVACNPR7113
012013092002BAHI3       010BAHEMA      ON           R$  000000000049500000000004950000000000495000000000049500000000004950000000000485000000000049500002000000000000003900000000000001930500000000000000009999123100000010000000000000BRBAHIACNOR1066
012013092002BAUH4       010EXCELSIOR   PN           R$  000000000089500000000008950000000000859000000000087600000000008940000000000859000000000089000003000000000000000600000000000000526100000000000000009999123100000010000000000000BRBAUHACNPR3108
012013092096BAUH4F      020EXCELSIOR   PN           R$  000000000089400000000008940000000000894000000000089400000000008940000000000894000000000100000001000000000000000062000000000000055428000000000000009999123100000010000000000000BRBAUHACNPR3108
012013092002BAZA3       010AMAZONIA    ON           R$  000000000003200000000000320000000000032000000000003200000000000320000000000032000000000003300003000000000000006000000000000000192000000000000000009999123100000010000000000000BRBAZAACNOR0163
012013092002BBAS3       010BRASIL      ON  EJ  NM   R$  000000000254800000000025600000000002516000000000253400000000025500000000002549000000000255018769000000000007400500000000018758411700000000000000009999123100000010000000000000BRBBASACNOR3239
012013092096BBAS3F      020BRASIL      ON  EJ  NM   R$  000000000252600000000025580000000002513000000000253000000000025580000000002543000000000255800293000000000000008791000000000022249319000000000000009999123100000010000000000000BRBBASACNOR3239
012013092062BBAS3T      030BRASIL      ON  EJ  NM017R$  000000000253500000000025440000000002535000000000253500000000025440000000000000000000000000000004000000000000002100000000000005324539000000000000009999123100000010000000000000BRBBASACNOR3239
012013092062BBAS3T      030BRASIL      ON  EJ  NM031R$  000000000254300000000025440000000002543000000000254300000000025440000000000000000000000000000002000000000000005000000000000012717147000000000000009999123100000010000000000000BRBBASACNOR3239
012013092062BBAS3T      030BRASIL      ON  EJ  NM090R$  000000000257900000000025800000000002579000000000257900000000025800000000000000000000000000000002000000000000000300000000000000773793000000000000009999123100000010000000000000BRBBASACNOR3239
012013092062BBAS3T      030BRASIL      ON  EJ  NM122R$  000000000260300000000026040000000002603000000000260300000000026040000000000000000000000000000002000000000000002000000000000005206328000000000000009999123100000010000000000000BRBBASACNOR3239
012013092078BBASB26     070BBAS    /EJ ON      NM000R$  000000000020600000000002100000000000206000000000020800000000002100000000000180000000000000000032000000000000036900000000000007682600000000000249502014021700000010000000000000BRBBASACNOR3237
012013092078BBASJ22     070BBAS    /EJ ON      NM000R$  000000000042500000000004520000000000425000000000043900000000004520000000000111000000000000000003000000000000000300000000000000131700000000000209502013102100000010000000000000BRBBASACNOR3237
012013092078BBASJ23     070BBAS    /EJ ON      NM000R$  000000000040100000000004010000000000376000000000038500000000003930000000000346000000000000000032000000000000018200000000000007018300000000000216102013102100000010000000000000BRBBASACNOR3235
012013092078BBASJ24     070BBAS  FM/EJ ON      NM000R$  000000000030300000000003030000000000270000000000028000000000002970000000000272000000000000000136000000000000199900000000000056108600000000000227102013102100000010000000000000BRBBASACNOR3236
012013092078BBASJ25     070BBAS  FM/EJ ON      NM000R$  000000000017900000000001930000000000162000000000017300000000001880000000000035000000000031500104000000000000161900000000000028098300000000000239502013102100000010000000000000BRBBASACNOR3237
012013092078BBASJ26     070BBAS  FM/EJ ON      NM000R$  000000000014000000000001400000000000114000000000012400000000001310000000000131000000000000000192000000000000165400000000000020578300000000000246102013102100000010000000000000BRBBASACNOR3235
012013092078BBASJ27     070BBAS  FM/EJ ON      NM000R$  000000000007200000000000750000000000058000000000006500000000000690000000000065000000000007400235000000000000221700000000000014427400000000000256102013102100000010000000000000BRBBASACNOR3235
012013092078BBASJ28     070BBAS  FM/EJ ON      NM000R$  000000000002300000000000230000000000016000000000001800000000000220000000000020000000000002200049000000000000084400000000000001573100000000000269502013102100000010000000000000BRBBASACNOR3237
012013092078BBASJ29     070BBAS    /EJ ON      NM000R$  000000000000800000000000120000000000008000000000000900000000000120000000000007000000000001200025000000000000011300000000000000111600000000000276102013102100000010000000000000BRBBASACNOR3235
012013092078BBASJ30     070BBAS    /EJ ON      NM000R$  000000000000400000000000040000000000004000000000000400000000000040000000000002000000000000500001000000000000001000000000000000004000000000000286102013102100000010000000000000BRBBASACNOR3235
012013092078BBASJ31     070BBAS    /EJ ON      NM000R$  000000000000200000000000020000000000002000000000000200000000000020000000000000000000000000200001000000000000000100000000000000000200000000000307302013102100000010000000000000BRBBASACNOR3238
012013092078BBASJ56     070BBAS    /EJ ON      NM000R$  000000000008600000000000980000000000080000000000008900000000000980000000000000000000000000000030000000000000032700000000000002922800000000000251102013102100000010000000000000BRBBASACNOR3235
012013092078BBASK23     070BBAS    /EJ ON      NM000R$  000000000038200000000003820000000000382000000000038200000000003820000000000190000000000000000001000000000000000300000000000000114600000000000219502013111800000010000000000000BRBBASACNOR3237
012013092078BBASK24     070BBAS  FM/EJ ON      NM000R$  000000000030100000000003110000000000279000000000029200000000003000000000000245000000000000000055000000000000084100000000000024610800000000000229502013111800000010000000000000BRBBASACNOR3237
012013092078BBASK25     070BBAS  FM/EJ ON      NM000R$  000000000024000000000002400000000000218000000000022600000000002370000000000000000000000000000050000000000000069900000000000015840900000000000237102013111800000010000000000000BRBBASACNOR3236
012013092078BBASK26     070BBAS  FM/EJ ON      NM000R$  000000000015300000000001590000000000149000000000015300000000001590000000000100000000000000000019000000000000027400000000000004210300000000000247102013111800000010000000000000BRBBASACNOR3236
012013092078BBASK27     070BBAS  FM/EJ ON      NM000R$  000000000010800000000001080000000000092000000000010200000000001000000000000025000000000000000012000000000000019300000000000001976900000000000257102013111800000010000000000000BRBBASACNOR3236
012013092078BBASK28     070BBAS  FM/EJ ON      NM000R$  000000000005500000000000580000000000050000000000005400000000000560000000000047000000000006600017000000000000015100000000000000819800000000000267102013111800000010000000000000BRBBASACNOR3236
012013092078BBASK29     070BBAS    /EJ ON      NM000R$  000000000002200000000000240000000000020000000000002100000000000240000000000022000000000000000005000000000000004500000000000000098900000000000279502013111800000010000000000000BRBBASACNOR3237
012013092078BBASL23     070BBAS    /EJ ON      NM000R$  000000000039400000000003960000000000394000000000039400000000003960000000000000000000000000000002000000000000005000000000000001974000000000000219502013121600000010000000000000BRBBASACNOR3237
012013092078BBASL24     070BBAS    /EJ ON      NM000R$  000000000031200000000003120000000000309000000000031000000000003090000000000250000000000000000002000000000000000700000000000000217500000000000229502013121600000010000000000000BRBBASACNOR3237
012013092082BBASV23     080BBASE FM/EJ ON      NM000R$  000000000000500000000000050000000000005000000000000500000000000050000000000003000000000001200001000000000000012500000000000000062500000000000216102013102100000010000000000000BRBBASACNOR3235
012013092082BBASV24     080BBASE FM/EJ ON      NM000R$  000000000000800000000000090000000000008000000000000800000000000090000000000003000000000000000011000000000000030300000000000000269700000000000227102013102100000010000000000000BRBBASACNOR3236
012013092082BBASV25     080BBASE FM/EJ ON      NM000R$  000000000002500000000000260000000000021000000000002300000000000220000000000001000000000002700024000000000000041200000000000000954700000000000239502013102100000010000000000000BRBBASACNOR3237
012013092082BBASV26     080BBASE FM/EJ ON      NM000R$  000000000003400000000000430000000000034000000000003800000000000370000000000000000000000005500016000000000000038700000000000001494000000000000246102013102100000010000000000000BRBBASACNOR3235
012013092082BBASV27     080BBASE   /EJ ON      NM000R$  000000000007800000000000780000000000074000000000007700000000000740000000000047000000000014500002000000000000001200000000000000092800000000000256102013102100000010000000000000BRBBASACNOR3235
012013092082BBASV56     080BBASE   /EJ ON      NM000R$  000000000005300000000000530000000000053000000000005300000000000530000000000000000000000000000001000000000000005000000000000000265000000000000251102013102100000010000000000000BRBBASACNOR3235
012013092082BBASW23     080BBASE FM/EJ ON      NM000R$  000000000001300000000000130000000000013000000000001300000000000130000000000000000000000000000002000000000000002400000000000000031200000000000219502013111800000010000000000000BRBBASACNOR3237
012013092082BBASW25     080BBASE FM/EJ ON      NM000R$  000000000004100000000000410000000000037000000000003800000000000370000000000000000000000000000019000000000000016500000000000000633900000000000237102013111800000010000000000000BRBBASACNOR3236
012013092082BBASW26     080BBASE FM/EJ ON      NM000R$  000000000006500000000000690000000000065000000000006600000000000650000000000000000000000000000003000000000000004100000000000000274500000000000247102013111800000010000000000000BRBBASACNOR3236
012013092002BBDC3       010BRADESCO    ON      N1   R$  000000000356200000000036050000000003513000000000353400000000035130000000003513000000000353705065000000000001718200000000006072472600000000000000009999123100000010000000000000BRBBDCACNOR1606
012013092096BBDC3F      020BRADESCO    ON      N1   R$  000000000359900000000036010000000003510000000000354400000000035350000000003510000000000359700042000000000000001173000000000004157234000000000000009999123100000010000000000000BRBBDCACNOR1606
012013092002BBDC4       010BRADESCO    PN      N1   R$  000000000311500000000031390000000003060000000000307400000000030600000000003058000000000306013882000000000006834000000000021008821600000000000000009999123100000010000000000000BRBBDCACNPR8606
012013092096BBDC4F      020BRADESCO    PN      N1   R$  000000000312000000000031370000000003051000000000308300000000030510000000003051000000000309000238000000000000005886000000000018146553000000000000009999123100000010000000000000BRBBDCACNPR8606
012013092062BBDC4T      030BRADESCO    PN      N1034R$  000000000310000000000031010000000003100000000000310000000000031010000000000000000000000000000002000000000000001000000000000003100608000000000000009999123100000010000000000000BRBBDCACNPR8606
012013092062BBDC4T      030BRADESCO    PN      N1060R$  000000000311000000000031130000000003110000000000311100000000031130000000000000000000000000000004000000000000001200000000000003733808000000000000009999123100000010000000000000BRBBDCACNPR8606
012013092078BBDCJ1      070BBDC        PN      N1000R$  000000000006300000000000630000000000056000000000005800000000000600000000000000000000000000000107000000000000209400000000000012322500000000000314402013102100000010000000000000BRBBDCACNPR8603
012013092078BBDCJ2      070BBDC        PN      N1000R$  000000000004500000000000450000000000045000000000004500000000000450000000000000000000000000000001000000000000001500000000000000067500000000000324402013102100000010000000000000BRBBDCACNPR8603
012013092078BBDCJ29     070BBDC        PN      N1000R$  000000000027000000000002700000000000230000000000024400000000002300000000000221000000000000000025000000000000035300000000000008628700000000000287602013102100000010000000000000BRBBDCACNPR8602
012013092078BBDCJ30     070BBDC        PN      N1000R$  000000000016600000000002060000000000150000000000016700000000001580000000000152000000000018600174000000000000159300000000000026721900000000000297602013102100000010000000000000BRBBDCACNPR8602
012013092078BBDCJ31     070BBDC        PN      N1000R$  000000000012800000000001320000000000088000000000010200000000000940000000000090000000000009400179000000000000124400000000000012717300000000000307602013102100000010000000000000BRBBDCACNPR8602
012013092078BBDCJ32     070BBDC        PN      N1000R$  000000000007500000000000770000000000046000000000006300000000000470000000000048000000000006900058000000000000110900000000000007024400000000000317602013102100000010000000000000BRBBDCACNPR8602
012013092078BBDCJ33     070BBDC        PN      N1000R$  000000000004100000000000410000000000023000000000003000000000000240000000000021000000000003700059000000000000179300000000000005462800000000000327602013102100000010000000000000BRBBDCACNPR8602
012013092078BBDCJ34     070BBDC        PN      N1000R$  000000000001800000000000200000000000013000000000001700000000000130000000000000000000000002500009000000000000011500000000000000202600000000000337202013102100000010000000000000BRBBDCACNPR8600
012013092078BBDCJ58     070BBDC        PN      N1000R$  000000000030700000000003210000000000290000000000031100000000002900000000000000000000000000000024000000000000007500000000000002337900000000000279802013102100000010000000000000BRBBDCACNPR8605
012013092078BBDCK30     070BBDC        PN      N1000R$  000000000021500000000002300000000000183000000000020900000000001830000000000000000000000019500086000000000000102700000000000021511300000000000299802013111800000010000000000000BRBBDCACNPR8605
012013092078BBDCK31     070BBDC        PN      N1000R$  000000000016100000000001640000000000121000000000014500000000001220000000000119000000000000000189000000000000141300000000000020576100000000000309802013111800000010000000000000BRBBDCACNPR8605
012013092078BBDCK32     070BBDC        PN      N1000R$  000000000012000000000001210000000000091000000000009700000000000910000000000013000000000000000014000000000000028800000000000002794400000000000317402013111800000010000000000000BRBBDCACNPR8601
012013092078BBDCK33     070BBDC        PN      N1000R$  000000000007700000000000770000000000051000000000006500000000000510000000000012000000000000000167000000000000132500000000000008632800000000000327602013111800000010000000000000BRBBDCACNPR8602
012013092078BBDCK34     070BBDC        PN      N1000R$  000000000003800000000000420000000000029000000000003300000000000290000000000008000000000004000026000000000000047400000000000001566300000000000339602013111800000010000000000000BRBBDCACNPR8604
012013092078BBDCK9      070BBDC        PN      N1000R$  000000000025200000000002520000000000248000000000024900000000002500000000000000000000000000000036000000000000025000000000000006245700000000000289802013111800000010000000000000BRBBDCACNPR8605
012013092078BBDCL29     070BBDC        PN      N1000R$  000000000030600000000003060000000000306000000000030600000000003060000000000220000000000000000001000000000000000100000000000000030600000000000287602013121600000010000000000000BRBBDCACNPR8602
012013092078BBDCL32     070BBDC        PN      N1000R$  000000000012500000000001260000000000125000000000012500000000001260000000000000000000000016400002000000000000300000000000000037695000000000000317202013121600000010000000000000BRBBDCACNPR8600
012013092078BBDCL34     070BBDC        PN      N1000R$  000000000005900000000000590000000000058000000000005800000000000580000000000000000000000000000004000000000000007000000000000000408300000000000337202013121600000010000000000000BRBBDCACNPR8600
012013092078BBDCL6      070BBDC        PN      N1000R$  000000000002600000000000260000000000026000000000002600000000000260000000000000000000000000000001000000000000003000000000000000078000000000000357402013121600000010000000000000BRBBDCACNPR8601
012013092082BBDCV27     080BBDCE       PN      N1000R$  000000000000600000000000060000000000005000000000000500000000000060000000000000000000000001500044000000000000400000000000000002190200000000000267602013102100000010000000000000BRBBDCACNPR8602
012013092082BBDCV28     080BBDCE       PN      N1000R$  000000000000300000000000030000000000003000000000000300000000000030000000000001000000000000000001000000000000000100000000000000000300000000000245602013102100000010000000000000BRBBDCACNPR8591
012013092082BBDCV29     080BBDCE       PN      N1000R$  000000000001600000000000250000000000015000000000002200000000000240000000000000000000000000000119000000000000162700000000000003671300000000000287602013102100000010000000000000BRBBDCACNPR8602
012013092082BBDCV30     080BBDCE       PN      N1000R$  000000000003700000000000460000000000030000000000004200000000000460000000000000000000000011800067000000000000069500000000000002978800000000000297602013102100000010000000000000BRBBDCACNPR8602
012013092082BBDCV31     080BBDCE       PN      N1000R$  000000000006500000000000840000000000056000000000007300000000000820000000000000000000000000000025000000000000042500000000000003122200000000000307602013102100000010000000000000BRBBDCACNPR8602
012013092082BBDCV32     080BBDCE       PN      N1000R$  000000000009800000000001390000000000098000000000012900000000001390000000000000000000000000000019000000000000019900000000000002575100000000000317602013102100000010000000000000BRBBDCACNPR8602
012013092082BBDCV58     080BBDCE       PN      N1000R$  000000000000800000000000160000000000008000000000001200000000000140000000000000000000000000000118000000000000043500000000000000523800000000000279802013102100000010000000000000BRBBDCACNPR8605
012013092082BBDCW30     080BBDCE       PN      N1000R$  000000000005800000000000770000000000058000000000006800000000000770000000000000000000000000000022000000000000006200000000000000422600000000000299802013111800000010000000000000BRBBDCACNPR8605
012013092082BBDCW31     080BBDCE       PN      N1000R$  000000000010600000000001170000000000106000000000011100000000001170000000000000000000000000000006000000000000010400000000000001157600000000000309802013111800000010000000000000BRBBDCACNPR8605
012013092082BBDCW32     080BBDCE       PN      N1000R$  000000000012500000000001560000000000125000000000014700000000001530000000000000000000000000000011000000000000019200000000000002841300000000000317402013111800000010000000000000BRBBDCACNPR8601
012013092082BBDCW9      080BBDCE       PN      N1000R$  000000000003700000000000490000000000036000000000004000000000000490000000000000000000000000000024000000000000008400000000000000337900000000000289802013111800000010000000000000BRBBDCACNPR8605
012013092082BBDCX54     080BBDCE       PN      N1000R$  000000000001100000000000110000000000011000000000001100000000000110000000000000000000000000000002000000000000003000000000000000033000000000000244602013121600000010000000000000BRBBDCACNPR8604
012013092012BBFI11B     010FII BB PROGRCI      MB   R$  000000042000100000004270000000000420001000000042454500000004270000000000420000000000042700000008000000000000000011000000000004670003000000000000009999123100000010000000000000BRBBFICTF006198
012013092012BBPO11      010FII BB PRGIICI           R$  000000001105000000000111450000000011000000000001104300000000111450000000011032000000001114500151000000000000017447000000000192683142000000000000009999123100000010000000000000BRBBPOCTF003110
012013092012BBRC11      010FII BB CORP CI           R$  000000000919800000000091990000000009198000000000919800000000091990000000009151000000000919900007000000000000000234000000000002152449000000000000009999123100000010000000000000BRBBRCCTF004124
012013092002BBRK3       010BR BROKERS  ON      NM   R$  000000000060000000000006060000000000569000000000059100000000005760000000000576000000000057703149000000000001993500000000001179630800000000000000009999123100000010000000000000BRBBRKACNOR4108
012013092096BBRK3F      020BR BROKERS  ON      NM   R$  000000000060000000000006050000000000580000000000058800000000005800000000000569000000000057500017000000000000000631000000000000371220000000000000009999123100000010000000000000BRBBRKACNOR4108
012013092002BBSE3       010BBSEGURIDADEON      NM   R$  000000000216000000000021750000000002144000000000215500000000021500000000002149000000000215006341000000000002971200000000006405494700000000000000009999123100000010000000000000BRBBSEACNOR5101
012013092096BBSE3F      020BBSEGURIDADEON      NM   R$  000000000215500000000021700000000002142000000000215500000000021500000000002145000000000215000323000000000000010631000000000022911658000000000000009999123100000010000000000000BRBBSEACNOR5101
012013092078BBSEK23     070BBSE        ON      NM000R$  000000000002800000000000290000000000028000000000002800000000000290000000000000000000000000000002000000000000300000000000000008545000000000000230002013111800000010000000000000BRBBSEACNOR5101
012013092082BBSEW49     080BBSEE       ON      NM000R$  000000000001200000000000120000000000012000000000001200000000000120000000000000000000000000000001000000000000300000000000000003600000000000000192502013111800000010000000000000BRBBSEACNOR5101
012013092082BBSEW60     080BBSEE       ON      NM000R$  000000000004000000000000400000000000040000000000004000000000000400000000000000000000000000000001000000000000300000000000000012000000000000000207502013111800000010000000000000BRBBSEACNOR5101
012013092002BBTG11      010BTG PACTUAL UNT          R$  000000000299900000000029990000000002881000000000294500000000029400000000002923000000000294000557000000000002202100000000006487285900000000000000009999123100000010000000000000BRBBTGUNT007105
012013092096BBTG11F     020BTG PACTUAL UNT          R$  000000000289500000000030690000000002895000000000296000000000029360000000002900000000000307000008000000000000000385000000000001139801000000000000009999123100000010000000000000BRBBTGUNT007105
012013092062BBTG11T     030BTG PACTUAL UNT       180R$  000000000307400000000030750000000003074000000000307400000000030750000000000000000000000000000004000000000001270000000000003904876620000000000000009999123100000010000000000000BRBBTGUNT007105
012013092078BBTGK32     070BBTG        UNT       000R$  000000000004000000000000400000000000040000000000004000000000000400000000000000000000000000000002000000000000020000000000000000800000000000000320002013111800000010000000000000BRBBTGUNT007105
012013092012BBVJ11      010FII C JARDIMCI           R$  000000000775500000000078000000000007700000000000773700000000078000000000007705000000000780000025000000000000002231000000000017262692000000000000009999123100000010000000000000BRBBVJCTF001133
012013092012BCFF11B     010FII BC FFII CI      MB   R$  000000000871200000000087800000000008700000000000873500000000087800000000008760000000000878000065000000000000002834000000000024756486000000000000009999123100000010000000000000BRBCFFCTF000142
012013092002BEEF3       010MINERVA     ON      NM   R$  000000000104900000000010640000000001036000000000104400000000010400000000001040000000000104201628000000000000481300000000000502834800000000000000009999123100000010000000000000BRBEEFACNOR6104
012013092096BEEF3F      020MINERVA     ON      NM   R$  000000000106100000000010610000000001037000000000104500000000010590000000001035000000000105900014000000000000000184000000000000192372000000000000009999123100000010000000000000BRBEEFACNOR6104
012013092002BEES3       010BANESTES    ON           R$  000000000004900000000000490000000000049000000000004900000000000490000000000048000000000004900001000000000000005300000000000000259700000000000000009999123100000010000000000000BRBEESACNOR9244
012013092002BEES4       010BANESTES    PN           R$  000000000004500000000000450000000000044000000000004400000000000440000000000044000000000004500004000000000000002300000000000000102500000000000000009999123100000010000000000000BRBEESACNPR6169
012013092002BEMA3       010BEMATECH    ON      NM   R$  000000000079000000000007900000000000773000000000077900000000007730000000000773000000000078000051000000000000052000000000000040527900000000000000009999123100000010000000000000BRBEMAACNOR0114
012013092096BEMA3F      020BEMATECH    ON      NM   R$  000000000076100000000007710000000000761000000000076300000000007630000000000763000000000077900003000000000000000042000000000000032082000000000000009999123100000010000000000000BRBEMAACNOR0114
012013092002BGIP4       010BANESE      PN           R$  000000000475000000000047500000000004750000000000475000000000047500000000004750000000000478700001000000000000000100000000000000475000000000000000009999123100000010000000000000BRBGIPACNPR8179
012013092002BHGR3       010BHG         ON      NM   R$  000000000144800000000014630000000001433000000000144000000000014330000000001433000000000146200423000000000000072000000000000103684200000000000000009999123100000010000000000000BRBHGRACNOR9101
012013092096BHGR3F      020BHG         ON      NM   R$  000000000145000000000014520000000001450000000000145000000000014520000000001425000000000145200002000000000000000064000000000000092830000000000000009999123100000010000000000000BRBHGRACNOR9101
012013092002BICB4       010BICBANCO    PN      N1   R$  000000000044000000000004600000000000436000000000044600000000004460000000000446000000000045000445000000000000550900000000000245933900000000000000009999123100000010000000000000BRBICBACNPR7131
012013092096BICB4F      020BICBANCO    PN      N1   R$  000000000044500000000004450000000000420000000000043900000000004200000000000420000000000046000016000000000000000162000000000000071243000000000000009999123100000010000000000000BRBICBACNPR7131
012013092002BISA3       010BROOKFIELD  ON      NM   R$  000000000017400000000001750000000000165000000000016900000000001680000000000167000000000016803931000000000014274100000000002418725200000000000000009999123100000010000000000000BRBISAACNOR8109
012013092096BISA3F      020BROOKFIELD  ON      NM   R$  000000000017300000000001750000000000163000000000016900000000001680000000000165000000000016800043000000000000001094000000000000185323000000000000009999123100000010000000000000BRBISAACNOR8109
012013092062BISA3T      030BROOKFIELD  ON      NM031R$  000000000017300000000001740000000000167000000000016800000000001690000000000000000000000000000010000000000000132000000000000022229716000000000000009999123100000010000000000000BRBISAACNOR8109
012013092062BISA3T      030BROOKFIELD  ON      NM060R$  000000000017200000000001740000000000169000000000016900000000001740000000000000000000000000000014000000000000088000000000000014931821000000000000009999123100000010000000000000BRBISAACNOR8109
012013092062BISA3T      030BROOKFIELD  ON      NM090R$  000000000017100000000001720000000000170000000000017100000000001710000000000000000000000000000004000000000000001200000000000000205297000000000000009999123100000010000000000000BRBISAACNOR8109
012013092012BJRC11      010FII JS RECIMCI           R$  000000009190000000000920000000000090000000000009138100000000920000000000090000000000009200000006000000000000000143000000000013067500000000000000009999123100000010000000000000BRBJRCCTF007110
012013092002BMEB3       010MERC BRASIL ON           R$  000000000164700000000016470000000001647000000000164700000000016470000000001550000000000180000001000000000000000100000000000000164700000000000000009999123100000010000000000000BRBMEBACNOR8190
012013092002BMIN4       010MERC INVEST PN           R$  000000000002400000000000240000000000024000000000002400000000000240000000000023000000000002500004000000000000004000000000000000096000000000000000009999123100000010000000000000BRBMINACNPR1160
012013092012BMLC11B     010FII BMBRC LCCI      MB   R$  000000001142900000000114300000000011429000000001142900000000114290000000011100000000001142900003000000000000000208000000000002377399000000000000009999123100000010000000000000BRBMLCCTF004119
012013092002BMTO4       010BRASMOTOR   PN           R$  000000000008700000000000870000000000085000000000008500000000000870000000000086000000000008700005000000000000036000000000000003088000000000000000009999123100000010000000000000BRBMTOACNPR6065
012013092014BOVA11      010ISHARES BOVACI           R$  000000000539000000000053940000000005278000000000531500000000053000000000005300000000000530403897000000000001826600000000009708518660000000000000009999123100000010000000000000BRBOVACTF003101
012013092096BOVA11F     020ISHARES BOVACI           R$  000000000535200000000053520000000005162000000000529800000000053060000000005257000000000538500011000000000000000039000000000000206660000000000000009999123100000010000000000000BRBOVACTF003101
012013092012BPFF11      010FII ABSOLUTOCI           R$  000000000830000000000083500000000008200000000000822800000000082600000000008260000000000830000037000000000000006032000000000049632377000000000000009999123100000010000000000000BRBPFFCTF002105
012013092002BPHA3       010BR PHARMA   ON      NM   R$  000000000080100000000008150000000000798000000000080300000000008050000000000800000000000080500652000000000000471500000000000378935900000000000000009999123100000010000000000000BRBPHAACNOR6102
012013092096BPHA3F      020BR PHARMA   ON      NM   R$  000000000080100000000008010000000000801000000000080100000000008010000000000803000000000084400001000000000000000010000000000000008010000000000000009999123100000010000000000000BRBPHAACNOR6102
012013092062BPHA3T      030BR PHARMA   ON      NM031R$  000000000081700000000008180000000000808000000000081200000000008090000000000000000000000000000004000000000000005400000000000004387674000000000000009999123100000010000000000000BRBPHAACNOR6102
012013092002BPNM4       010PANAMERICANOPN      N1   R$  000000000052400000000005270000000000508000000000052600000000005250000000000524000000000052500179000000000001058500000000000557233700000000000000009999123100000010000000000000BRBPNMACNPR6111
012013092062BPNM4T      030PANAMERICANOPN      N1031R$  000000000053000000000005310000000000530000000000053000000000005310000000000000000000000000000002000000000000950000000000000504104485000000000000009999123100000010000000000000BRBPNMACNPR6111
012013092002BRAP3       010BRADESPAR   ON      N1   R$  000000000208200000000020820000000002041000000000206000000000020410000000002040000000000208000037000000000000016900000000000034829500000000000000009999123100000010000000000000BRBRAPACNOR5124
012013092096BRAP3F      020BRADESPAR   ON      N1   R$  000000000207500000000021000000000002052000000000206700000000020520000000002062000000000218900009000000000000000053000000000000109599000000000000009999123100000010000000000000BRBRAPACNOR5124
012013092062BRAP3T      030BRADESPAR   ON      N1090R$  000000000210900000000021100000000002109000000000210900000000021100000000000000000000000000000002000000000000000800000000000001687227000000000000009999123100000010000000000000BRBRAPACNOR5124
012013092002BRAP4       010BRADESPAR   PN      N1   R$  000000000255000000000025500000000002507000000000253200000000025450000000002545000000000254603979000000000001737400000000004400347600000000000000009999123100000010000000000000BRBRAPACNPR2124
012013092096BRAP4F      020BRADESPAR   PN      N1   R$  000000000254300000000025800000000002508000000000253200000000025270000000002527000000000258000053000000000000001469000000000003720640000000000000009999123100000010000000000000BRBRAPACNPR2124
012013092014BRAX11      010ISHARES BRAXCI           R$  000000000427200000000042720000000004272000000000427200000000042720000000004251000000000000000001000000000000000010000000000000042720000000000000009999123100000010000000000000BRBRAXCTF002100
012013092012BRCR11      010FII BC FUND CI           R$  000000001284700000000129950000000012802000000001289000000000128800000000012830000000001288000467000000000000032459000000000418416426000000000000009999123100000010000000000000BRBRCRCTF000133
012013092002BRFS3       010BRF SA      ON      NM   R$  000000000576600000000057980000000005644000000000567300000000056500000000005650000000000566005805000000000001822100000000010338372700000000000000009999123100000010000000000000BRBRFSACNOR8110
012013092096BRFS3F      020BRF SA      ON      NM   R$  000000000581900000000058190000000005644000000000569900000000057980000000005658000000000579800132000000000000003829000000000021824200000000000000009999123100000010000000000000BRBRFSACNOR8110
012013092062BRFS3T      030BRF SA      ON      NM017R$  000000000574800000000057490000000005698000000000573700000000056990000000000000000000000000000006000000000000003000000000000017212658000000000000009999123100000010000000000000BRBRFSACNOR8110
012013092062BRFS3T      030BRF SA      ON      NM090R$  000000000583100000000058380000000005809000000000581700000000058100000000000000000000000000000008000000000000163000000000000948233513000000000000009999123100000010000000000000BRBRFSACNOR8110
012013092002BRIN3       010BR INSURANCEON      NM   R$  000000000208100000000021000000000002060000000000207700000000020800000000002080000000000208500737000000000000367300000000000762972600000000000000009999123100000010000000000000BRBRINACNOR3106
012013092096BRIN3F      020BR INSURANCEON      NM   R$  000000000209600000000021000000000001961000000000205200000000020800000000001961000000000208000008000000000000000164000000000000336678000000000000009999123100000010000000000000BRBRINACNOR3106
012013092002BRIV4       010ALFA INVEST PN           R$  000000000060000000000006050000000000600000000000060400000000006050000000000574000000000060500007000000000000018800000000000011357500000000000000009999123100000010000000000000BRBRIVACNPR3197
012013092096BRIV4F      020ALFA INVEST PN           R$  000000000060400000000006040000000000604000000000060400000000006040000000000536000000000060400001000000000000000050000000000000030200000000000000009999123100000010000000000000BRBRIVACNPR3197
012013092002BRKM3       010BRASKEM     ON      N1   R$  000000000124000000000012400000000001239000000000123900000000012390000000001220000000000124000003000000000000000500000000000000619600000000000000009999123100000010000000000000BRBRKMACNOR1110
012013092096BRKM3F      020BRASKEM     ON      N1   R$  000000000122000000000012200000000001220000000000122000000000012200000000001200000000000122000001000000000000000005000000000000006100000000000000009999123100000010000000000000BRBRKMACNOR1110
012013092002BRKM5       010BRASKEM     PNA     N1   R$  000000000179900000000018070000000001737000000000176500000000017570000000001757000000000175806389000000000001657700000000002927361200000000000000009999123100000010000000000000BRBRKMACNPA4110
012013092096BRKM5F      020BRASKEM     PNA     N1   R$  000000000180200000000018330000000001682000000000177600000000017420000000001743000000000179300046000000000000001518000000000002696403000000000000009999123100000010000000000000BRBRKMACNPA4110
012013092002BRML3       010BR MALLS PARON      NM   R$  000000000217900000000021870000000002102000000000213400000000021100000000002105000000000211007000000000000002239600000000004780320100000000000000009999123100000010000000000000BRBRMLACNOR9105
012013092096BRML3F      020BR MALLS PARON      NM   R$  000000000218500000000021860000000002101000000000216900000000021100000000002100000000000220000093000000000000003200000000000006942392000000000000009999123100000010000000000000BRBRMLACNOR9105
012013092002BRPR3       010BR PROPERT  ON      NM   R$  000000000204600000000020600000000001978000000000199400000000019810000000001981000000000198305875000000000001489200000000002970593900000000000000009999123100000010000000000000BRBRPRACNOR9112
012013092096BRPR3F      020BR PROPERT  ON      NM   R$  000000000205000000000020830000000001937000000000199900000000019830000000001936000000000201000052000000000000001556000000000003111299000000000000009999123100000010000000000000BRBRPRACNOR9112
012013092002BRSR6       010BANRISUL    PNB     N1   R$  000000000158000000000016100000000001544000000000156200000000015620000000001561000000000156203110000000000000723800000000001131149200000000000000009999123100000010000000000000BRBRSRACNPB4134
012013092096BRSR6F      020BANRISUL    PNB     N1   R$  000000000157500000000016150000000001530000000000156700000000015580000000001558000000000158500031000000000000000815000000000001277271000000000000009999123100000010000000000000BRBRSRACNPB4134
012013092062BRSR6T      030BANRISUL    PNB     N1017R$  000000000155600000000015570000000001556000000000155600000000015570000000000000000000000000000002000000000000000100000000000000155636000000000000009999123100000010000000000000BRBRSRACNPB4134
012013092002BSEV3       010BIOSEV      ON      NM   R$  000000000087800000000008780000000000770000000000081000000000007700000000000770000000000082000161000000000000039000000000000031603600000000000000009999123100000010000000000000BRBSEVACNOR3100
012013092096BSEV3F      020BIOSEV      ON      NM   R$  000000000088900000000008890000000000700000000000082600000000007000000000000705000000000080000010000000000000000121000000000000100006000000000000009999123100000010000000000000BRBSEVACNOR3100
012013092096BSLI4F      020BRB BANCO   PN           R$  000000000220100000000022010000000002201000000000220100000000022010000000002201000000000290000001000000000000000010000000000000022010000000000000009999123100000010000000000000BRBSLIACNPR2147
012013092002BTOW3       010B2W DIGITAL ON      NM   R$  000000000157700000000015930000000001520000000000153900000000015200000000001519000000000152001034000000000000351800000000000541654200000000000000009999123100000010000000000000BRBTOWACNOR8105
012013092096BTOW3F      020B2W DIGITAL ON      NM   R$  000000000158900000000015890000000001511000000000153800000000015260000000001526000000000153500024000000000000000693000000000001065745000000000000009999123100000010000000000000BRBTOWACNOR8105
012013092062BTOW3T      030B2W DIGITAL ON      NM090R$  000000000156300000000015640000000001563000000000156300000000015640000000000000000000000000000002000000000000004000000000000006254850000000000000009999123100000010000000000000BRBTOWACNOR8105
012013092078BTOWJ15     070BTOW        ON      NM000R$  000000000007000000000000700000000000070000000000007000000000000700000000000000000000000000000002000000000000015500000000000001085000000000000150002013102100000010000000000000BRBTOWACNOR8105
012013092002BTTL3       010BATTISTELLA ON           R$  000000000009200000000000920000000000086000000000009000000000000860000000000085000000000009100003000000000000000300000000000000027000000000000000009999123100000010000000000000BRBTTLACNOR0105
012013092002BVMF3       010BMFBOVESPA  ON      NM   R$  000000000130000000000013010000000001267000000000127300000000012700000000001269000000000127028272000000000009761100000000012433688500000000000000009999123100000010000000000000BRBVMFACNOR3126
012013092096BVMF3F      020BMFBOVESPA  ON      NM   R$  000000000129700000000013000000000001268000000000127700000000012890000000001267000000000128900104000000000000003495000000000004463116000000000000009999123100000010000000000000BRBVMFACNOR3126
012013092062BVMF3T      030BMFBOVESPA  ON      NM031R$  000000000127800000000012790000000001278000000000127800000000012790000000000000000000000000000002000000000000050000000000000063938150000000000000009999123100000010000000000000BRBVMFACNOR3126
012013092062BVMF3T      030BMFBOVESPA  ON      NM090R$  000000000129900000000013000000000001299000000000129900000000013000000000000000000000000000000002000000000000000500000000000000649612000000000000009999123100000010000000000000BRBVMFACNOR3126
012013092078BVMFA12     070BVMF        ON      NM000R$  000000000014200000000001420000000000142000000000014200000000001420000000000000000000000000000001000000000000000700000000000000099400000000000120002014012000000010000000000000BRBVMFACNOR3126
012013092078BVMFA42     070BVMF        ON      NM000R$  000000000011000000000001100000000000110000000000011000000000001100000000000000000000000000000002000000000000010000000000000001100000000000000125002014012000000010000000000000BRBVMFACNOR3126
012013092078BVMFJ12     070BVMF        ON      NM000R$  000000000013200000000001320000000000104000000000010900000000001100000000000110000000000011500033000000000000028500000000000003111700000000000118502013102100000010000000000000BRBVMFACNOR3125
012013092078BVMFJ13     070BVMF  FM    ON      NM000R$  000000000005100000000000520000000000038000000000004000000000000390000000000039000000000004900110000000000000474600000000000019445600000000000128502013102100000010000000000000BRBVMFACNOR3125
012013092078BVMFJ14     070BVMF  FM    ON      NM000R$  000000000001200000000000120000000000008000000000000900000000000090000000000008000000000000900050000000000000222000000000000002036600000000000138502013102100000010000000000000BRBVMFACNOR3125
012013092078BVMFJ42     070BVMF  FM    ON      NM000R$  000000000007800000000000780000000000065000000000006900000000000650000000000000000000000123500089000000000000327600000000000022611000000000000123502013102100000010000000000000BRBVMFACNOR3125
012013092078BVMFJ43     070BVMF  FM    ON      NM000R$  000000000002600000000000260000000000018000000000002000000000000210000000000017000000000002500031000000000000081600000000000001684900000000000133502013102100000010000000000000BRBVMFACNOR3125
012013092078BVMFJ44     070BVMF  FM    ON      NM000R$  000000000000200000000000040000000000002000000000000200000000000030000000000001000000000000000017000000000000037400000000000000081500000000000145002013102100000010000000000000BRBVMFACNOR3126
012013092078BVMFK12     070BVMF        ON      NM000R$  000000000012700000000001270000000000127000000000012700000000001270000000000113000000000000000001000000000000002000000000000000254000000000000118502013111800000010000000000000BRBVMFACNOR3125
012013092078BVMFK13     070BVMF  FM    ON      NM000R$  000000000006900000000000690000000000054000000000005600000000000550000000000000000000000008000038000000000000071800000000000004053500000000000128502013111800000010000000000000BRBVMFACNOR3125
012013092078BVMFK14     070BVMF  FM    ON      NM000R$  000000000002100000000000210000000000015000000000001700000000000150000000000014000000000003000051000000000000511600000000000008881700000000000138502013111800000010000000000000BRBVMFACNOR3125
012013092078BVMFK42     070BVMF  FM    ON      NM000R$  000000000009200000000000920000000000075000000000007800000000000750000000000000000000000000000015000000000000045200000000000003569200000000000125002013111800000010000000000000BRBVMFACNOR3126
012013092078BVMFK43     070BVMF  FM    ON      NM000R$  000000000003500000000000350000000000027000000000002700000000000270000000000000000000000000000019000000000000044000000000000001215400000000000135002013111800000010000000000000BRBVMFACNOR3126
012013092078BVMFK44     070BVMF  FM    ON      NM000R$  000000000000900000000000090000000000007000000000000700000000000070000000000005000000000000000013000000000000038900000000000000279900000000000145002013111800000010000000000000BRBVMFACNOR3126
012013092078BVMFK54     070BVMFE       ON      NM000R$  000000000001500000000000150000000000015000000000001500000000000150000000000000000000000000000002000000000001350000000000000020250000000000000142502013111800000010000000000000BRBVMFACNOR3126
012013092078BVMFL14     070BVMF        ON      NM000R$  000000000003500000000000350000000000035000000000003500000000000350000000000015000000000000000002000000000000002500000000000000087500000000000137402013121600000010000000000000BRBVMFACNOR3124
012013092078BVMFL2      070BVMF        ON      NM000R$  000000000015000000000001500000000000150000000000015000000000001500000000000000000000000000000001000000000000000700000000000000105000000000000117402013121600000010000000000000BRBVMFACNOR3124
012013092082BVMFM13     080BVMFE       ON      NM000R$  000000000007300000000000730000000000073000000000007300000000000730000000000000000000000000000002000000000000010000000000000000730000000000000130002014012000000010000000000000BRBVMFACNOR3126
012013092082BVMFV12     080BVMFE FM    ON      NM000R$  000000000001000000000000180000000000010000000000001300000000000180000000000011000000000001800044000000000000122300000000000001631900000000000118502013102100000010000000000000BRBVMFACNOR3125
012013092082BVMFV13     080BVMFE FM    ON      NM000R$  000000000003700000000000470000000000037000000000004500000000000460000000000031000000000004800046000000000000084200000000000003794100000000000128502013102100000010000000000000BRBVMFACNOR3125
012013092082BVMFV41     080BVMFE       ON      NM000R$  000000000000700000000000080000000000007000000000000700000000000070000000000000000000000001000004000000000000019500000000000000145000000000000113502013102100000010000000000000BRBVMFACNOR3125
012013092082BVMFV42     080BVMFE FM    ON      NM000R$  000000000002500000000000290000000000024000000000002500000000000290000000000020000000000002900028000000000000078900000000000002019100000000000123502013102100000010000000000000BRBVMFACNOR3125
012013092082BVMFV43     080BVMFE FM    ON      NM000R$  000000000006200000000000770000000000062000000000007300000000000750000000000000000000000000000013000000000000040900000000000003000500000000000133502013102100000010000000000000BRBVMFACNOR3125
012013092082BVMFV51     080BVMFE       ON      NM000R$  000000000001100000000000110000000000010000000000001000000000000100000000000000000000000000000002000000000000010000000000000000105000000000000116002013102100000010000000000000BRBVMFACNOR3125
012013092082BVMFW12     080BVMFE FM    ON      NM000R$  000000000001900000000000240000000000019000000000002200000000000230000000000000000000000002700061000000000000575200000000000012939300000000000118502013111800000010000000000000BRBVMFACNOR3125
012013092082BVMFW13     080BVMFE FM    ON      NM000R$  000000000005100000000000560000000000051000000000005200000000000560000000000000000000000000000277000000000001367800000000000071796300000000000128502013111800000010000000000000BRBVMFACNOR3125
012013092082BVMFW14     080BVMFE       ON      NM000R$  000000000011500000000001150000000000115000000000011500000000001150000000000000000000000000000002000000000000002000000000000000230000000000000138502013111800000010000000000000BRBVMFACNOR3125
012013092082BVMFW41     080BVMFE       ON      NM000R$  000000000001700000000000170000000000017000000000001700000000000170000000000000000000000000000001000000000000001800000000000000030600000000000115002013111800000010000000000000BRBVMFACNOR3126
012013092082BVMFW42     080BVMFE FM    ON      NM000R$  000000000004200000000000420000000000039000000000004000000000000420000000000000000000000000000009000000000000022200000000000000890800000000000125002013111800000010000000000000BRBVMFACNOR3126
012013092082BVMFW43     080BVMFE FM    ON      NM000R$  000000000008700000000000910000000000087000000000008700000000000910000000000000000000000000000022000000000000051300000000000004510700000000000135002013111800000010000000000000BRBVMFACNOR3126
012013092082BVMFW52     080BVMFE       ON      NM000R$  000000000002900000000000290000000000029000000000002900000000000290000000000000000000000000000002000000000001350000000000000039150000000000000122502013111800000010000000000000BRBVMFACNOR3126
012013092096CAMB4F      020CAMBUCI     PN           R$  000000000017600000000001760000000000176000000000017600000000001760000000000175000000000025000001000000000000000001000000000000000176000000000000009999123100000010000000000000BRCAMBACNPR1117
012013092002CARD3       010CSU CARDSYSTON      NM   R$  000000000031200000000003170000000000310000000000031300000000003140000000000310000000000031600025000000000000017700000000000005546900000000000000009999123100000010000000000000BRCARDACNOR9105
012013092096CARD3F      020CSU CARDSYSTON      NM   R$  000000000030500000000003070000000000305000000000030600000000003070000000000307000000000032300002000000000000000079000000000000024205000000000000009999123100000010000000000000BRCARDACNOR9105
012013092002CBEE3       010AMPLA ENERG ON *         R$  000000000012900000000001300000000000129000000000012900000000001300000000000129000000000013000003000000000000700000000000000000090900000000000000009999123100010000000000000000BRCBEEACNOR3149
012013092096CBMA4F      020COBRASMA    PN           R$  000000000000400000000000040000000000004000000000000400000000000040000000000003000000000000400001000000000000000001000000000000000004000000000000009999123100000010000000000000BRCBMAACNPR1124
012013092008CCHI3       010CHIARELLI   ON           R$  000000000001600000000000160000000000015000000000001500000000000150000000000015000000000001600024000000000000370000000000000005800000000000000000009999123100000010000000000000BRCCHIACNOR5123
012013092096CCHI3F      020CHIARELLI   ON           R$  000000000001600000000000160000000000016000000000001600000000000160000000000016000000000001800002000000000000003698000000000000059168000000000000009999123100000010000000000000BRCCHIACNOR5123
012013092008CCHI4       010CHIARELLI   PN           R$  000000000001100000000000110000000000011000000000001100000000000110000000000011000000000001300003000000000000050000000000000000550000000000000000009999123100000010000000000000BRCCHIACNPR2122
012013092096CCHI4F      020CHIARELLI   PN           R$  000000000001200000000000120000000000012000000000001200000000000120000000000010000000000001200001000000000000002000000000000000024000000000000000009999123100000010000000000000BRCCHIACNPR2122
012013092002CCPR3       010CYRE COM-CCPON      NM   R$  000000000210300000000021190000000002088000000000210100000000021190000000002082000000000212000011000000000000006200000000000013028100000000000000009999123100000010000000000000BRCCPRACNOR9107
012013092096CCPR3F      020CYRE COM-CCPON      NM   R$  000000000210000000000021000000000002088000000000208900000000020880000000002088000000000228700002000000000000000049000000000000102384000000000000009999123100000010000000000000BRCCPRACNOR9107
012013092002CCRO3       010CCR SA      ON      NM   R$  000000000188900000000018930000000001814000000000184100000000018270000000001825000000000182811129000000000004904800000000009034319800000000000000009999123100000010000000000000BRCCROACNOR2122
012013092096CCRO3F      020CCR SA      ON      NM   R$  000000000188800000000018980000000001811000000000184000000000018700000000001815000000000187000058000000000000001874000000000003448669000000000000009999123100000010000000000000BRCCROACNOR2122
012013092062CCRO3T      030CCR SA      ON      NM031R$  000000000185300000000018540000000001829000000000183700000000018300000000000000000000000000000004000000000000001500000000000002756388000000000000009999123100000010000000000000BRCCROACNOR2122
012013092062CCRO3T      030CCR SA      ON      NM045R$  000000000186200000000018630000000001862000000000186200000000018630000000000000000000000000000002000000000000001000000000000001862993000000000000009999123100000010000000000000BRCCROACNOR2122
012013092062CCRO3T      030CCR SA      ON      NM120R$  000000000191600000000019170000000001916000000000191600000000019170000000000000000000000000000002000000000000000500000000000000958237000000000000009999123100000010000000000000BRCCROACNOR2122
012013092078CCROK19     070CCRO        ON      NM000R$  000000000004000000000000410000000000040000000000004000000000000410000000000000000000000000000002000000000000000600000000000000024500000000000190002013111800000010000000000000BRCCROACNOR2122
012013092002CCXC3       010CCX CARVAO  ON      NM   R$  000000000015700000000001580000000000143000000000015200000000001530000000000152000000000015301015000000000003615300000000000551440400000000000000009999123100000010000000000000BRCCXCACNOR5100
012013092096CCXC3F      020CCX CARVAO  ON      NM   R$  000000000014600000000001520000000000145000000000014700000000001450000000000145000000000015200012000000000000000353000000000000051983000000000000009999123100000010000000000000BRCCXCACNOR5100
012013092002CEDO4       010CEDRO       PN      N1   R$  000000000092500000000009250000000000925000000000092500000000009250000000000881000000000092500001000000000000000200000000000000185000000000000000009999123100000010000000000000BRCEDOACNPR5126
012013092008CELP7       010CELPA       PNC          R$  000000000005500000000000550000000000055000000000005500000000000550000000000050000000000006000005000000000000005600000000000000308000000000000000009999123100000010000000000000BRCELPACNPC7114
012013092012CEOC11B     010FII CEO CCP CI      MB   R$  000000000850000000000087840000000008500000000000856600000000085680000000008570000000000875900060000000000000003032000000000025974371000000000000009999123100000010000000000000BRCEOCCTF003110
012013092096CESP3F      020CESP        ON      N1   R$  000000000174000000000017400000000001740000000000174000000000017400000000001707000000000178000002000000000000000046000000000000080040000000000000009999123100000010000000000000BRCESPACNOR3160
012013092002CESP6       010CESP        PNB     N1   R$  000000000234900000000023850000000002315000000000235300000000023550000000002345000000000235502176000000000000651100000000001532536700000000000000009999123100000010000000000000BRCESPACNPB4119
012013092096CESP6F      020CESP        PNB     N1   R$  000000000239900000000023990000000002317000000000236700000000023170000000002317000000000237900023000000000000000817000000000001934254000000000000009999123100000010000000000000BRCESPACNPB4119
012013092002CGAS5       010COMGAS      PNA          R$  000000000589100000000059080000000005800000000000584300000000058000000000005800000000000585200162000000000000030500000000000178216700000000000000009999123100000010000000000000BRCGASACNPA3129
012013092096CGAS5F      020COMGAS      PNA          R$  000000000585000000000060160000000005700000000000586200000000057000000000005600000000000570000009000000000000000154000000000000902802000000000000009999123100000010000000000000BRCGASACNPA3129
012013092002CGRA3       010GRAZZIOTIN  ON           R$  000000000162000000000016200000000001620000000000162000000000016200000000001611000000000163000001000000000000000600000000000000972000000000000000009999123100000010000000000000BRCGRAACNOR2061
012013092002CGRA4       010GRAZZIOTIN  PN           R$  000000000179800000000017980000000001784000000000178700000000017860000000001755000000000178600008000000000000002400000000000004289900000000000000009999123100000010000000000000BRCGRAACNPR9061
012013092002CIEL3       010CIELO       ON  EDJ NM   R$  000000000584600000000058530000000005680000000000574900000000057040000000005701000000000570407434000000000002392600000000013755799700000000000000009999123100000010000000000000BRCIELACNOR3112
012013092096CIEL3F      020CIELO       ON  EDJ NM   R$  000000000587000000000058700000000005690000000000575900000000057240000000005698000000000572400135000000000000003794000000000021846663000000000000009999123100000010000000000000BRCIELACNOR3112
012013092062CIEL3T      030CIELO       ON  EDJ NM055R$  000000000589500000000058960000000005895000000000589500000000058960000000000000000000000000000002000000000000001800000000000010611916000000000000009999123100000010000000000000BRCIELACNOR3112
012013092062CIEL3T      030CIELO       ON  EDJ NM090R$  000000000588700000000058900000000005887000000000588800000000058900000000000000000000000000000004000000000000600000000000003533099640000000000000009999123100000010000000000000BRCIELACNOR3112
012013092078CIELL62     070CIEL    /EDJON      NM000R$  000000000006200000000000710000000000061000000000006300000000000700000000000000000000000000000005000000000000279000000000000017662500000000000620002013121600000010000000000000BRCIELACNOR3112
012013092082CIELX53     080CIELE   /EDJON      NM000R$  000000000004700000000000500000000000047000000000004700000000000500000000000000000000000000000003000000000000279000000000000013275000000000000530002013121600000010000000000000BRCIELACNOR3112
012013092082CIELX56     080CIELE   /EDJON      NM000R$  000000000010700000000001070000000000105000000000010600000000001050000000000000000000000000000003000000000000279000000000000029745000000000000560002013121600000010000000000000BRCIELACNOR3112
012013092002CLSC4       010CELESC      PN      N2   R$  000000000177800000000017800000000001765000000000177100000000017650000000001765000000000178000036000000000000013900000000000024623000000000000000009999123100000010000000000000BRCLSCACNPR3107
012013092002CMIG3       010CEMIG       ON      N1   R$  000000000186400000000018650000000001837000000000184600000000018650000000001864000000000186500412000000000000118800000000000219423500000000000000009999123100000010000000000000BRCMIGACNOR6208
012013092096CMIG3F      020CEMIG       ON      N1   R$  000000000188100000000018810000000001835000000000184600000000018350000000001835000000000186500042000000000000000902000000000001665651000000000000009999123100000010000000000000BRCMIGACNOR6208
012013092062CMIG3T      030CEMIG       ON      N1090R$  000000000189100000000018920000000001891000000000189100000000018920000000000000000000000000000002000000000000002000000000000003782714000000000000009999123100000010000000000000BRCMIGACNOR6208
012013092002CMIG4       010CEMIG       PN      N1   R$  000000000186000000000018790000000001845000000000185800000000018600000000001853000000000186005920000000000002366400000000004398099200000000000000009999123100000010000000000000BRCMIGACNPR3208
012013092096CMIG4F      020CEMIG       PN      N1   R$  000000000186500000000018830000000001846000000000186100000000018580000000001856000000000188000136000000000000003897000000000007252562000000000000009999123100000010000000000000BRCMIGACNPR3208
012013092062CMIG4T      030CEMIG       PN      N1017R$  000000000188400000000018850000000001884000000000188400000000018850000000000000000000000000000002000000000000001000000000000001884750000000000000009999123100000010000000000000BRCMIGACNPR3208
012013092062CMIG4T      030CEMIG       PN      N1031R$  000000000186500000000018920000000001863000000000188300000000018920000000000000000000000000000034000000000000016429000000000030940394000000000000009999123100000010000000000000BRCMIGACNPR3208
012013092062CMIG4T      030CEMIG       PN      N1060R$  000000000188400000000018920000000001884000000000188700000000018920000000000000000000000000000004000000000000001000000000000001887561000000000000009999123100000010000000000000BRCMIGACNPR3208
012013092062CMIG4T      030CEMIG       PN      N1180R$  000000000195500000000019560000000001955000000000195500000000019560000000000000000000000000000002000000000000000500000000000000977504000000000000009999123100000010000000000000BRCMIGACNPR3208
012013092078CMIGJ18     070CMIG        PN      N1000R$  000000000010100000000001010000000000101000000000010100000000001010000000000000000000000000000001000000000000000200000000000000020200000000000180002013102100000010000000000000BRCMIGACNPR3208
012013092078CMIGJ19     070CMIG        PN      N1000R$  000000000003500000000000450000000000035000000000003800000000000450000000000013000000000000000023000000000000005800000000000000225600000000000190002013102100000010000000000000BRCMIGACNPR3208
012013092078CMIGJ48     070CMIG        PN      N1000R$  000000000005200000000000520000000000052000000000005200000000000520000000000000000000000000000001000000000000003000000000000000156000000000000185002013102100000010000000000000BRCMIGACNPR3208
012013092078CMIGL22     070CMIG        PN      N1000R$  000000000001000000000000150000000000010000000000001100000000000150000000000000000000000000000004000000000000008900000000000000103500000000000220002013121600000010000000000000BRCMIGACNPR3208
012013092012CNES11B     010FII CENESP  CI      MB   R$  000000001249400000000126490000000012250000000001237600000000122520000000012252000000001249500012000000000000000350000000000004331610000000000000009999123100000010000000000000BRCNESCTF001125
012013092002COCA34      010COCA COLA   DRN ED       R$  000000000868100000000086810000000008681000000000868100000000086810000000008563000000000868100001000000000000000100000000000000868100000000000000009999123100000010000000000000BRCOCABDR002109
012013092002COCE3       010COELCE      ON           R$  000000000403100000000040750000000004020000000000403200000000040370000000003850000000000403800016000000000000003000000000000012097300000000000000009999123100000010000000000000BRCOCEACNOR0132
012013092002COCE5       010COELCE      PNA          R$  000000000391800000000039610000000003730000000000390400000000038000000000003800000000000380400375000000000000220100000000000859396600000000000000009999123100000010000000000000BRCOCEACNPA3133
012013092096COCE5F      020COELCE      PNA          R$  000000000392200000000039350000000003825000000000389500000000038250000000003825000000000419900025000000000000000299000000000001164682000000000000009999123100000010000000000000BRCOCEACNPA3133
012013092002CPFE3       010CPFL ENERGIAON      NM   R$  000000000197100000000019710000000001920000000000193000000000019200000000001920000000000192503124000000000000698900000000001349458800000000000000009999123100000010000000000000BRCPFEACNOR0122
012013092096CPFE3F      020CPFL ENERGIAON      NM   R$  000000000198000000000019830000000001902000000000193800000000019020000000001902000000000198000036000000000000000982000000000001903369000000000000009999123100000010000000000000BRCPFEACNOR0122
012013092002CPLE3       010COPEL       ON      N1   R$  000000000216000000000021740000000002105000000000213800000000021190000000002107000000000212000151000000000000050100000000000107158100000000000000009999123100000010000000000000BRCPLEACNOR8128
012013092096CPLE3F      020COPEL       ON      N1   R$  000000000220000000000022000000000002121000000000215300000000021210000000002130000000000234800007000000000000000135000000000000290784000000000000009999123100000010000000000000BRCPLEACNOR8128
012013092062CPLE3T      030COPEL       ON      N1017R$  000000000212900000000021300000000002129000000000212900000000021300000000000000000000000000000002000000000000000100000000000000212970000000000000009999123100000010000000000000BRCPLEACNOR8128
012013092002CPLE6       010COPEL       PNB     N1   R$  000000000303500000000030490000000002941000000000296500000000029530000000002949000000000295302195000000000000534900000000001586140700000000000000009999123100000010000000000000BRCPLEACNPB9125
012013092096CPLE6F      020COPEL       PNB     N1   R$  000000000309200000000030920000000002936000000000298400000000029360000000002936000000000300000028000000000000001057000000000003153201000000000000009999123100000010000000000000BRCPLEACNPB9125
012013092002CPRE3       010CPFL RENOVAVON      NM   R$  000000000123900000000012800000000001221000000000126900000000012800000000001270000000000128000190000000000000062100000000000078821200000000000000009999123100000010000000000000BRCPREACNOR5100
012013092096CPRE3F      020CPFL RENOVAVON      NM   R$  000000000123700000000012750000000001208000000000125800000000012750000000001201000000000127500018000000000000000461000000000000580356000000000000009999123100000010000000000000BRCPREACNOR5100
012013092002CRDE3       010CR2         ON      NM   R$  000000000040200000000004190000000000402000000000041400000000004150000000000412000000000042000003000000000000003200000000000001327100000000000000009999123100000010000000000000BRCRDEACNOR1108
012013092002CREM3       010CREMER      ON      NM   R$  000000000145600000000014900000000001456000000000147400000000014710000000001433000000000148500064000000000000014100000000000020796400000000000000009999123100000010000000000000BRCREMACNOR2167
012013092096CREM3F      020CREMER      ON      NM   R$  000000000147700000000014770000000001477000000000147700000000014770000000001451000000000159300001000000000000000013000000000000019201000000000000009999123100000010000000000000BRCREMACNOR2167
012013092002CRIV4       010ALFA FINANC PN           R$  000000000045000000000004500000000000438000000000044100000000004380000000000435000000000043800007000000000000001300000000000000573800000000000000009999123100000010000000000000BRCRIVACNPR1190
012013092002CRUZ3       010SOUZA CRUZ  ON           R$  000000000280400000000028130000000002705000000000272800000000027050000000002705000000000272304758000000000001281300000000003495651800000000000000009999123100000010000000000000BRCRUZACNOR0246
012013092096CRUZ3F      020SOUZA CRUZ  ON           R$  000000000277500000000028130000000002702000000000274600000000027020000000002702000000000277200053000000000000001777000000000004876537000000000000009999123100000010000000000000BRCRUZACNOR0246
012013092062CRUZ3T      030SOUZA CRUZ  ON        034R$  000000000273900000000027400000000002739000000000273900000000027400000000000000000000000000000002000000000000032700000000000089581718000000000000009999123100000010000000000000BRCRUZACNOR0246
012013092082CRUZV30     080CRUZE       ON        000R$  000000000029300000000002940000000000293000000000029300000000002940000000000000000000000000000002000000000000032700000000000009613700000000000300002013102100000010000000000000BRCRUZACNOR0246
012013092002CSAN3       010COSAN       ON      NM   R$  000000000419900000000042430000000004118000000000418100000000041820000000004170000000000418206558000000000001619400000000006771953000000000000000009999123100000010000000000000BRCSANACNOR6108
012013092096CSAN3F      020COSAN       ON      NM   R$  000000000431000000000043170000000004119000000000418700000000041190000000004121000000000428900065000000000000002227000000000009325167000000000000009999123100000010000000000000BRCSANACNOR6108
012013092062CSAN3T      030COSAN       ON      NM017R$  000000000424000000000042410000000004240000000000424000000000042410000000000000000000000000000002000000000000002000000000000008481792000000000000009999123100000010000000000000BRCSANACNOR6108
012013092062CSAN3T      030COSAN       ON      NM060R$  000000000420600000000042070000000004189000000000419500000000041900000000000000000000000000000008000000000000002000000000000008391273000000000000009999123100000010000000000000BRCSANACNOR6108
012013092062CSAN3T      030COSAN       ON      NM090R$  000000000430100000000043020000000004285000000000429100000000042860000000000000000000000000000006000000000000200000000000000858370160000000000000009999123100000010000000000000BRCSANACNOR6108
012013092078CSANK1      070CSANE       ON      NM000R$  000000000007000000000000700000000000070000000000007000000000000700000000000000000000000000000001000000000000012100000000000000847000000000000412502013111800000010000000000000BRCSANACNOR6108
012013092078CSANK42     070CSAN        ON      NM000R$  000000000018000000000001800000000000180000000000018000000000001800000000000000000000000000000001000000000000012100000000000002178000000000000420002013111800000010000000000000BRCSANACNOR6108
012013092078CSANK44     070CSAN        ON      NM000R$  000000000011000000000001100000000000110000000000011000000000001100000000000000000000000000000001000000000000012100000000000001331000000000000440002013111800000010000000000000BRCSANACNOR6108
012013092002CSCO34      010CISCO       DRN          R$  000000000545800000000054580000000005458000000000545800000000054580000000004800000000000545800001000000000000000600000000000003274800000000000000009999123100000010000000000000BRCSCOBDR004110
012013092002CSMG3       010COPASA      ON      NM   R$  000000000343200000000034350000000003320000000000341000000000034350000000003400000000000343501581000000000000442000000000001507501600000000000000009999123100000010000000000000BRCSMGACNOR5127
012013092096CSMG3F      020COPASA      ON      NM   R$  000000000349000000000034900000000003336000000000339800000000033910000000003361000000000349400026000000000000000510000000000001733437000000000000009999123100000010000000000000BRCSMGACNOR5127
012013092014CSMO11      010ISHARES CSMOCI           R$  000000000486000000000048610000000004847000000000484900000000048610000000004673000000000610000004000000000000000360000000000001745750000000000000009999123100000010000000000000BRCSMOCTF002100
012013092002CSNA3       010SID NACIONALON           R$  000000000094300000000009470000000000924000000000093000000000009290000000000928000000000092907661000000000005304900000000004937764300000000000000009999123100000010000000000000BRCSNAACNOR6243
012013092096CSNA3F      020SID NACIONALON           R$  000000000094400000000009440000000000925000000000093100000000009250000000000925000000000093600055000000000000001413000000000001316208000000000000009999123100000010000000000000BRCSNAACNOR6243
012013092062CSNA3T      030SID NACIONALON        060R$  000000000094000000000009420000000000937000000000094000000000009420000000000000000000000000000006000000000000005000000000000004702639000000000000009999123100000010000000000000BRCSNAACNOR6243
012013092062CSNA3T      030SID NACIONALON        090R$  000000000094700000000009480000000000947000000000094700000000009480000000000000000000000000000002000000000000003800000000000003599396000000000000009999123100000010000000000000BRCSNAACNOR6243
012013092078CSNAA40     070CSNA        ON        000R$  000000000006200000000000620000000000062000000000006200000000000620000000000000000000000000000001000000000000001000000000000000062000000000000103002014012000000010000000000000BRCSNAACNOR6242
012013092078CSNAJ10     070CSNA  FM    ON        000R$  000000000002400000000000240000000000020000000000002100000000000200000000000000000000000002000012000000000000003500000000000000074200000000000100002013102100000010000000000000BRCSNAACNOR6243
012013092078CSNAJ60     070CSNA        ON        000R$  000000000000800000000000080000000000008000000000000800000000000080000000000000000000000001900002000000000000003600000000000000028800000000000106002013102100000010000000000000BRCSNAACNOR6243
012013092078CSNAJ7      070CSNA        ON        000R$  000000000026500000000002650000000000250000000000025800000000002500000000000245000000000000000004000000000000001000000000000000258000000000000068002013102100000010000000000000BRCSNAACNOR6242
012013092078CSNAJ74     070CSNA        ON        000R$  000000000019600000000001960000000000196000000000019600000000001960000000000000000000000000000002000000000000010000000000000001960000000000000074002013102100000010000000000000BRCSNAACNOR6243
012013092078CSNAJ8      070CSNA        ON        000R$  000000000017500000000001750000000000155000000000016500000000001550000000000000000000000019500009000000000000008800000000000001452500000000000078002013102100000010000000000000BRCSNAACNOR6242
012013092078CSNAJ86     070CSNA        ON        000R$  000000000010700000000001110000000000103000000000010800000000001110000000000000000000000000000010000000000000017900000000000001946900000000000084002013102100000010000000000000BRCSNAACNOR6242
012013092078CSNAJ9      070CSNA        ON        000R$  000000000008200000000000820000000000077000000000007900000000000770000000000000000000000010500012000000000000019400000000000001547400000000000088002013102100000010000000000000BRCSNAACNOR6242
012013092078CSNAJ92     070CSNA  FM    ON        000R$  000000000005900000000000590000000000053000000000005500000000000530000000000000000000000000000010000000000000025200000000000001406300000000000092002013102100000010000000000000BRCSNAACNOR6243
012013092078CSNAJ94     070CSNA  FM    ON        000R$  000000000004100000000000450000000000041000000000004300000000000430000000000000000000000005200022000000000000021800000000000000942300000000000094002013102100000010000000000000BRCSNAACNOR6243
012013092078CSNAJ96     070CSNA  FM    ON        000R$  000000000003300000000000340000000000033000000000003300000000000340000000000000000000000000000002000000000000002500000000000000083000000000000096002013102100000010000000000000BRCSNAACNOR6243
012013092078CSNAK10     070CSNA  FM    ON        000R$  000000000005200000000000560000000000046000000000005200000000000460000000000000000000000000000007000000000000016900000000000000891200000000000098002013111800000010000000000000BRCSNAACNOR6242
012013092078CSNAK9      070CSNA        ON        000R$  000000000009000000000000900000000000088000000000008900000000000880000000000000000000000009900019000000000000051200000000000004583800000000000090002013111800000010000000000000BRCSNAACNOR6243
012013092078CSNAK92     070CSNA  FM    ON        000R$  000000000007300000000000740000000000072000000000007300000000000720000000000000000000000000000005000000000000005000000000000000367000000000000092002013111800000010000000000000BRCSNAACNOR6243
012013092078CSNAK94     070CSNA  FM    ON        000R$  000000000006600000000000660000000000065000000000006500000000000650000000000000000000000000000030000000000000079700000000000005195800000000000094002013111800000010000000000000BRCSNAACNOR6243
012013092078CSNAK96     070CSNA  FM    ON        000R$  000000000006600000000000660000000000063000000000006300000000000630000000000000000000000000000002000000000000004500000000000000286500000000000096002013111800000010000000000000BRCSNAACNOR6243
012013092078CSNAL16     070CSNA        ON        000R$  000000000004000000000000400000000000040000000000004000000000000400000000000000000000000003900001000000000000001000000000000000040000000000000154702013121600000010000000000000BRCSNAACNOR6241
012013092078CSNAL20     070CSNA        ON        000R$  000000000005400000000000540000000000054000000000005400000000000540000000000000000000000000000001000000000000001000000000000000054000000000000102002013121600000010000000000000BRCSNAACNOR6243
012013092082CSNAV10     080CSNAE       ON        000R$  000000000007700000000000890000000000077000000000008500000000000890000000000080000000000009200006000000000000000600000000000000051000000000000100002013102100000010000000000000BRCSNAACNOR6243
012013092082CSNAV8      080CSNAE       ON        000R$  000000000000600000000000070000000000006000000000000600000000000070000000000004000000000001700006000000000000005100000000000000030700000000000078002013102100000010000000000000BRCSNAACNOR6242
012013092082CSNAV86     080CSNAE       ON        000R$  000000000001700000000000170000000000017000000000001700000000000170000000000000000000000000000002000000000000010400000000000000176800000000000084002013102100000010000000000000BRCSNAACNOR6242
012013092082CSNAV9      080CSNAE FM    ON        000R$  000000000002400000000000280000000000024000000000002600000000000280000000000025000000000003200018000000000000059800000000000001608500000000000088002013102100000010000000000000BRCSNAACNOR6242
012013092082CSNAV92     080CSNAE FM    ON        000R$  000000000004200000000000420000000000042000000000004200000000000420000000000000000000000000000006000000000000023300000000000000978600000000000092002013102100000010000000000000BRCSNAACNOR6243
012013092082CSNAV94     080CSNAE FM    ON        000R$  000000000005100000000000510000000000051000000000005100000000000510000000000000000000000000000001000000000000003500000000000000178500000000000094002013102100000010000000000000BRCSNAACNOR6243
012013092082CSNAW9      080CSNAE FM    ON        000R$  000000000004600000000000470000000000046000000000004600000000000470000000000000000000000000000005000000000000009200000000000000430400000000000090002013111800000010000000000000BRCSNAACNOR6243
012013092082CSNAW92     080CSNAE FM    ON        000R$  000000000005400000000000550000000000054000000000005400000000000550000000000000000000000000000002000000000000004000000000000000218000000000000092002013111800000010000000000000BRCSNAACNOR6243
012013092082CSNAW94     080CSNAE FM    ON        000R$  000000000006600000000000660000000000065000000000006500000000000650000000000000000000000000000022000000000000079700000000000005182900000000000094002013111800000010000000000000BRCSNAACNOR6243
012013092082CSNAW96     080CSNAE FM    ON        000R$  000000000007500000000000750000000000075000000000007500000000000750000000000000000000000000000004000000000000005900000000000000442500000000000096002013111800000010000000000000BRCSNAACNOR6243
012013092002CTAX11      010CONTAX      UNT     N2   R$  000000000191500000000019490000000001850000000000189900000000019000000000001900000000000199000186000000000000069300000000000131668600000000000000009999123100000010000000000000BRCTAXCDAM19100
012013092096CTAX11F     020CONTAX      UNT     N2   R$  000000000185000000000018500000000001850000000000185000000000018500000000001615000000000198800001000000000000000050000000000000092500000000000000009999123100000010000000000000BRCTAXCDAM19100
012013092062CTAX11T     030CONTAX      UNT     N2090R$  000000000194800000000019710000000001930000000000194800000000019310000000000000000000000000000020000000000000004200000000000008185693000000000000009999123100000010000000000000BRCTAXCDAM19100
012013092002CTAX3       010CONTAX      ON      N2   R$  000000000038900000000003920000000000354000000000037100000000003540000000000354000000000039100045000000000000017800000000000006604700000000000000009999123100000010000000000000BRCTAXACNOR3113
012013092096CTAX3F      020CONTAX      ON      N2   R$  000000000038900000000003890000000000389000000000038900000000003890000000000356000000000039900001000000000000000050000000000000019450000000000000009999123100000010000000000000BRCTAXACNOR3113
012013092002CTAX4       010CONTAX      PN      N2   R$  000000000038000000000003830000000000365000000000036700000000003650000000000365000000000037500353000000000000490300000000000180299900000000000000009999123100000010000000000000BRCTAXACNPR0114
012013092096CTAX4F      020CONTAX      PN      N2   R$  000000000039500000000004220000000000343000000000037200000000003430000000000343000000000043400008000000000000000164000000000000061143000000000000009999123100000010000000000000BRCTAXACNPR0114
012013092002CTIP3       010CETIP       ON      NM   R$  000000000237200000000024020000000002325000000000235300000000023520000000002352000000000235407737000000000002701200000000006357622600000000000000009999123100000010000000000000BRCTIPACNOR2119
012013092096CTIP3F      020CETIP       ON      NM   R$  000000000236500000000023940000000002326000000000234700000000023940000000002327000000000239400043000000000000001258000000000002953091000000000000009999123100000010000000000000BRCTIPACNOR2119
012013092062CTIP3T      030CETIP       ON      NM060R$  000000000235600000000023570000000002356000000000235600000000023570000000000000000000000000000002000000000000001000000000000002356387000000000000009999123100000010000000000000BRCTIPACNOR2119
012013092078CTIPJ23     070CTIP        ON      NM000R$  000000000010700000000001110000000000107000000000010900000000001110000000000000000000000000000006000000000000350000000000000038295000000000000230002013102100000010000000000000BRCTIPACNOR2119
012013092078CTIPJ54     070CTIP        ON      NM000R$  000000000002500000000000250000000000025000000000002500000000000250000000000000000000000000000001000000000000025100000000000000627500000000000245002013102100000010000000000000BRCTIPACNOR2119
012013092078CTIPK23     070CTIP        ON      NM000R$  000000000014000000000001400000000000140000000000014000000000001400000000000000000000000000000002000000000000520000000000000072800000000000000229402013111800000010000000000000BRCTIPACNOR2118
012013092002CTKA3       010KARSTEN     ON           R$  000000000022000000000002200000000000220000000000022000000000002200000000000150000000000022000002000000000000001000000000000000220000000000000000009999123100000010000000000000BRCTKAACNOR0041
012013092096CTKA3F      020KARSTEN     ON           R$  000000000015400000000001540000000000154000000000015400000000001540000000000070000000000039500001000000000000000052000000000000008008000000000000009999123100000010000000000000BRCTKAACNOR0041
012013092002CTKA4       010KARSTEN     PN           R$  000000000010600000000001140000000000098000000000010400000000001100000000000107000000000011000028000000000000009100000000000000948400000000000000009999123100000010000000000000BRCTKAACNPR7041
012013092096CTKA4F      020KARSTEN     PN           R$  000000000007600000000000760000000000076000000000007600000000000760000000000076000000000013600002000000000000000059000000000000004484000000000000009999123100000010000000000000BRCTKAACNPR7041
012013092002CTNM4       010COTEMINAS   PN           R$  000000000022500000000002340000000000225000000000022700000000002340000000000225000000000023400011000000000000003400000000000000773600000000000000009999123100000010000000000000BRCTNMACNPR6128
012013092096CTNM4F      020COTEMINAS   PN           R$  000000000021400000000002140000000000213000000000021300000000002130000000000213000000000025400002000000000000000033000000000000007060000000000000009999123100000010000000000000BRCTNMACNPR6128
012013092002CTSA4       010SANTANENSE  PN           R$  000000000056000000000005600000000000560000000000056000000000005600000000000535000000000056100001000000000000000100000000000000056000000000000000009999123100000010000000000000BRCTSAACNPR0051
012013092012CXTL11      010FII CX TRX  CI           R$  000000007120100000000712010000000071201000000007120100000000712010000000071165000000007699800001000000000000000020000000000001424020000000000000009999123100000010000000000000BRCXTLCTF003122
012013092002CYRE3       010CYRELA REALTON      NM   R$  000000000174100000000017460000000001681000000000170200000000017040000000001703000000000170408912000000000002819000000000004798375000000000000000009999123100000010000000000000BRCYREACNOR7125
012013092096CYRE3F      020CYRELA REALTON      NM   R$  000000000173700000000017660000000001680000000000171100000000016820000000001682000000000174000056000000000000001910000000000003269321000000000000009999123100000010000000000000BRCYREACNOR7125
012013092062CYRE3T      030CYRELA REALTON      NM017R$  000000000170400000000017050000000001704000000000170400000000017050000000000000000000000000000002000000000000005000000000000008524809000000000000009999123100000010000000000000BRCYREACNOR7125
012013092078CYREJ16     070CYRE        ON      NM000R$  000000000012200000000001280000000000122000000000012400000000001280000000000000000000000000000003000000000000009000000000000001116000000000000160002013102100000010000000000000BRCYREACNOR7125
012013092078CYREJ17     070CYRE  FM    ON      NM000R$  000000000008100000000000810000000000054000000000006500000000000620000000000000000000000000000009000000000000015400000000000001004500000000000170002013102100000010000000000000BRCYREACNOR7125
012013092078CYREJ18     070CYRE  FM    ON      NM000R$  000000000003100000000000310000000000022000000000002600000000000220000000000000000000000000000002000000000000005700000000000000148800000000000180002013102100000010000000000000BRCYREACNOR7125
012013092078CYREJ19     070CYRE  FM    ON      NM000R$  000000000001000000000000100000000000010000000000001000000000000100000000000000000000000000000004000000000000010500000000000000105000000000000190002013102100000010000000000000BRCYREACNOR7125
012013092078CYREJ47     070CYRE  FM    ON      NM000R$  000000000005200000000000520000000000038000000000004500000000000380000000000000000000000000000003000000000000007000000000000000315000000000000175002013102100000010000000000000BRCYREACNOR7125
012013092078CYREK17     070CYRE  FM    ON      NM000R$  000000000011100000000001110000000000091000000000009900000000000910000000000000000000000000000003000000000000008000000000000000798000000000000170002013111800000010000000000000BRCYREACNOR7125
012013092078CYREK18     070CYRE  FM    ON      NM000R$  000000000004600000000000460000000000046000000000004600000000000460000000000000000000000000000001000000000000003500000000000000161000000000000180002013111800000010000000000000BRCYREACNOR7125
012013092078CYREK47     070CYRE  FM    ON      NM000R$  000000000006600000000000660000000000066000000000006600000000000660000000000000000000000000000001000000000000003500000000000000231000000000000175002013111800000010000000000000BRCYREACNOR7125
012013092082CYREV16     080CYREE       ON      NM000R$  000000000002100000000000220000000000021000000000002100000000000220000000000000000000000000000015000000000000052000000000000001143000000000000160002013102100000010000000000000BRCYREACNOR7125
012013092082CYREV17     080CYREE FM    ON      NM000R$  000000000005200000000000520000000000052000000000005200000000000520000000000000000000000000000002000000000000003900000000000000202800000000000170002013102100000010000000000000BRCYREACNOR7125
012013092082CYREV18     080CYREE FM    ON      NM000R$  000000000008700000000001110000000000087000000000009500000000001110000000000000000000000000000003000000000000009600000000000000919200000000000180002013102100000010000000000000BRCYREACNOR7125
012013092082CYREV46     080CYREE FM    ON      NM000R$  000000000003400000000000340000000000034000000000003400000000000340000000000000000000000000000002000000000000003500000000000000119000000000000165002013102100000010000000000000BRCYREACNOR7125
012013092082CYREV47     080CYREE FM    ON      NM000R$  000000000005900000000000780000000000059000000000007100000000000780000000000000000000000000000004000000000000010500000000000000752500000000000175002013102100000010000000000000BRCYREACNOR7125
012013092082CYREW18     080CYREE FM    ON      NM000R$  000000000010400000000001240000000000104000000000011000000000001240000000000000000000000000000003000000000000010500000000000001162000000000000180002013111800000010000000000000BRCYREACNOR7125
012013092082CYREW46     080CYREE FM    ON      NM000R$  000000000005100000000000510000000000051000000000005100000000000510000000000000000000000000000001000000000000001000000000000000051000000000000165002013111800000010000000000000BRCYREACNOR7125
012013092082CYREW47     080CYREE FM    ON      NM000R$  000000000007800000000000950000000000078000000000009100000000000950000000000000000000000000000002000000000000004500000000000000410500000000000175002013111800000010000000000000BRCYREACNOR7125
