00COTAHIST.2013BOVESPA 20131028                                                                                                                                                                                                                      
012013102802AAPL34      010APPLE       DRN          R$  000000001154600000000115460000000011546000000001154600000000115460000000011545000000001163500001000000000000000400000000000004618400000000000000009999123100000010000000000000BRAAPLBDR004105
012013102802ABCB4       010ABC BRASIL  PN      N2   R$  000000000134500000000013600000000001331000000000133900000000013310000000001331000000000134300902000000000000151000000000000202240700000000000000009999123100000010000000000000BRABCBACNPR4120
012013102896ABCB4F      020ABC BRASIL  PN      N2   R$  000000000135000000000013500000000001337000000000134000000000013390000000001316000000000134500008000000000000000132000000000000176890000000000000009999123100000010000000000000BRABCBACNPR4120
012013102812ABCP11      010FII ABC IMOBCI           R$  000000000099000000000009900000000000990000000000099000000000009900000000000986000000000099000001000000000000000060000000000000059400000000000000009999123100000010000000000000BRABCPCTF000216
012013102802ABRE11      010ABRIL EDUCA UNT     N2   R$  000000000323900000000032390000000003130000000000317500000000031750000000003134000000000317500483000000000000118700000000000376896500000000000000009999123100000010000000000000BRABRECDAM15102
012013102896ABRE11F     020ABRIL EDUCA UNT     N2   R$  000000000319100000000032000000000003104000000000318300000000031040000000003104000000000323900010000000000000000225000000000000716296000000000000009999123100000010000000000000BRABRECDAM15102
012013102862ABRE11T     030ABRIL EDUCA UNT     N2030R$  000000000321800000000032190000000003218000000000321800000000032190000000000000000000000000000002000000000000001000000000000003218004000000000000009999123100000010000000000000BRABRECDAM15102
012013102802AEDU3       010ANHANGUERA  ON      NM   R$  000000000132500000000013360000000001295000000000130600000000013000000000001300000000000130206764000000000003019300000000003943193400000000000000009999123100000010000000000000BRAEDUACNOR9107
012013102896AEDU3F      020ANHANGUERA  ON      NM   R$  000000000132000000000013200000000001295000000000130600000000012950000000001281000000000130000015000000000000000438000000000000572309000000000000009999123100000010000000000000BRAEDUACNOR9107
012013102862AEDU3T      030ANHANGUERA  ON      NM025R$  000000000130600000000013070000000001306000000000130600000000013070000000000000000000000000000002000000000000002000000000000002612355000000000000009999123100000010000000000000BRAEDUACNOR9107
012013102862AEDU3T      030ANHANGUERA  ON      NM030R$  000000000130700000000013080000000001305000000000130600000000013060000000000000000000000000000004000000000000008000000000000010448045000000000000009999123100000010000000000000BRAEDUACNOR9107
012013102878AEDUK13     070AEDU        ON      NM000R$  000000000003900000000000400000000000039000000000003900000000000400000000000000000000000012900002000000000000024000000000000000948000000000000130002013111800000010000000000000BRAEDUACNOR9107
012013102812AEFI11      010FII AESAPAR CI           R$  000000001224900000000122980000000012163000000001218500000000121650000000012166000000001226900014000000000000001055000000000012856081000000000000009999123100000010000000000000BRAEFICTF002122
012013102802AELP3       010AES ELPA    ON           R$  000000000097900000000009790000000000979000000000097900000000009790000000000948000000000097800001000000000000000100000000000000097900000000000000009999123100000010000000000000BRAELPACNOR2119
012013102896AELP3F      020AES ELPA    ON           R$  000000000097500000000009750000000000975000000000097500000000009750000000000928000000000000000001000000000000000010000000000000009750000000000000009999123100000010000000000000BRAELPACNOR2119
012013102812AGCX11      010FII AG CAIXACI           R$  000000009480000000000948000000000094300000000009468100000000948000000000094301000000009480000004000000000000000011000000000001041500000000000000009999123100000010000000000000BRAGCXCTF003111
012013102802AGRO3       010BRASILAGRO  ON      NM   R$  000000000101400000000010180000000001011000000000101600000000010110000000001011000000000101800014000000000000006300000000000006405500000000000000009999123100000010000000000000BRAGROACNOR7102
012013102896AGRO3F      020BRASILAGRO  ON      NM   R$  000000000097800000000009780000000000978000000000097800000000009780000000000985000000000105000001000000000000000001000000000000000978000000000000009999123100000010000000000000BRAGROACNOR7102
012013102802ALLL3       010ALL AMER LATON      NM   R$  000000000082400000000008370000000000823000000000082900000000008230000000000823000000000082604585000000000003267700000000002709405900000000000000009999123100000010000000000000BRALLLACNOR6118
012013102896ALLL3F      020ALL AMER LATON      NM   R$  000000000082200000000008350000000000822000000000082800000000008300000000000825000000000083000026000000000000000745000000000000617530000000000000009999123100000010000000000000BRALLLACNOR6118
012013102862ALLL3T      030ALL AMER LATON      NM030R$  000000000083400000000008350000000000834000000000083400000000008350000000000000000000000000000002000000000000020000000000000016682544000000000000009999123100000010000000000000BRALLLACNOR6118
012013102802ALPA3       010ALPARGATAS  ON      N1   R$  000000000128500000000012850000000001285000000000128500000000012850000000001284000000000134300001000000000000000100000000000000128500000000000000009999123100000010000000000000BRALPAACNOR0203
012013102802ALPA4       010ALPARGATAS  PN      N1   R$  000000000152000000000015480000000001513000000000153400000000015350000000001535000000000154600800000000000001520600000000002333177400000000000000009999123100000010000000000000BRALPAACNPR7203
012013102896ALPA4F      020ALPARGATAS  PN      N1   R$  000000000153000000000015490000000001520000000000152600000000015490000000001520000000000154900014000000000000000258000000000000393792000000000000009999123100000010000000000000BRALPAACNPR7203
012013102802ALSC3       010ALIANSCE    ON      NM   R$  000000000213500000000021800000000002125000000000215000000000021500000000002140000000000215000938000000000000161700000000000347706500000000000000009999123100000010000000000000BRALSCACNOR0104
012013102896ALSC3F      020ALIANSCE    ON      NM   R$  000000000214000000000021400000000002140000000000214000000000021400000000002061000000000215000002000000000000000030000000000000064200000000000000009999123100000010000000000000BRALSCACNOR0104
012013102802ALUP11      010ALUPAR      UNT     N2   R$  000000000172400000000017240000000001704000000000171300000000017100000000001706000000000171400219000000000000058000000000000099373400000000000000009999123100000010000000000000BRALUPCDAM15100
012013102896ALUP11F     020ALUPAR      UNT     N2   R$  000000000171900000000017280000000001710000000000171600000000017170000000001700000000000171700028000000000000000242000000000000415307000000000000009999123100000010000000000000BRALUPCDAM15100
012013102862ALUP11T     030ALUPAR      UNT     N2030R$  000000000172700000000017280000000001727000000000172700000000017280000000000000000000000000000002000000000000006000000000000010364448000000000000009999123100000010000000000000BRALUPCDAM15100
012013102802AMAR3       010LOJAS MARISAON      NM   R$  000000000200000000000020150000000001976000000000198600000000019960000000001985000000000199600974000000000000274300000000000544916200000000000000009999123100000010000000000000BRAMARACNOR4109
012013102896AMAR3F      020LOJAS MARISAON      NM   R$  000000000199000000000021120000000001980000000000198600000000021120000000001980000000000211200014000000000000000329000000000000653680000000000000009999123100000010000000000000BRAMARACNOR4109
012013102862AMAR3T      030LOJAS MARISAON      NM028R$  000000000200100000000020020000000001993000000000200000000000019940000000000000000000000000000004000000000000012000000000000024006880000000000000009999123100000010000000000000BRAMARACNOR4109
012013102862AMAR3T      030LOJAS MARISAON      NM060R$  000000000200400000000020050000000002004000000000200400000000020050000000000000000000000000000002000000000000000500000000000001002128000000000000009999123100000010000000000000BRAMARACNOR4109
012013102802AMBV3       010AMBEV       ON           R$  000000000856100000000085640000000008430000000000849500000000085630000000008523000000000856302225000000000000468200000000003977656400000000000000009999123100000010000000000000BRAMBVACNOR4154
012013102896AMBV3F      020AMBEV       ON           R$  000000000858900000000085890000000008450000000000850400000000085200000000008480000000000858800048000000000000001196000000000010176153000000000000009999123100000010000000000000BRAMBVACNOR4154
012013102862AMBV3T      030AMBEV       ON        031R$  000000000854300000000085440000000008543000000000854300000000085440000000000000000000000000000002000000000000001000000000000008543546000000000000009999123100000010000000000000BRAMBVACNOR4154
012013102802AMBV4       010AMBEV       PN           R$  000000000859000000000085900000000008435000000000849600000000085500000000008538000000000855408191000000000002020300000000017166286300000000000000009999123100000010000000000000BRAMBVACNPR1154
012013102896AMBV4F      020AMBEV       PN           R$  000000000859000000000085900000000008440000000000850700000000085480000000008503000000000854800204000000000000005452000000000046384819000000000000009999123100000010000000000000BRAMBVACNPR1154
012013102862AMBV4T      030AMBEV       PN        016R$  000000000848100000000084820000000008481000000000848100000000084820000000000000000000000000000002000000000000001000000000000008481697000000000000009999123100000010000000000000BRAMBVACNPR1154
012013102862AMBV4T      030AMBEV       PN        030R$  000000000857100000000085770000000008571000000000857100000000085770000000000000000000000000000004000000000000000230000000000001971543000000000000009999123100000010000000000000BRAMBVACNPR1154
012013102878AMBVK85     070AMBV        PN        000R$  000000000013600000000001400000000000136000000000013700000000001400000000000000000000000000000002000000000000007000000000000000964000000000000850002013111800000010000000000000BRAMBVACNPR1154
012013102878AMBVK86     070AMBV        PN        000R$  000000000011200000000001120000000000112000000000011200000000001120000000000000000000000000000001000000000000000600000000000000067200000000000860002013111800000010000000000000BRAMBVACNPR1154
012013102878AMBVK89     070AMBV        PN        000R$  000000000002400000000000240000000000024000000000002400000000000240000000000000000000000000000001000000000000002000000000000000048000000000000883502013111800000010000000000000BRAMBVACNPR1153
012013102878AMBVL58     070AMBV        PN        000R$  000000000015000000000001500000000000110000000000011700000000001500000000000100000000000000000004000000000000003200000000000000374500000000000880002013121600000010000000000000BRAMBVACNPR1154
012013102878AMBVL88     070AMBV        PN        000R$  000000000013200000000001320000000000126000000000012600000000001260000000000000000000000000000002000000000000009800000000000001235400000000000873502013121600000010000000000000BRAMBVACNPR1153
012013102878AMBVL89     070AMBV        PN        000R$  000000000013900000000001390000000000139000000000013900000000001390000000000000000000000000000001000000000000000100000000000000013900000000000890002013121600000010000000000000BRAMBVACNPR1154
012013102882AMBVX82     080AMBVE       PN        000R$  000000000006100000000000610000000000045000000000005300000000000450000000000000000000000000000002000000000000006000000000000000318000000000000820002013121600000010000000000000BRAMBVACNPR1154
012013102802ANIM3       010ANIMA       ON      NM   R$  000000000195000000000019500000000001906000000000193200000000019210000000001921000000000192403072000000000004219600000000008155427800000000000000009999123100000010000000000000BRANIMACNOR6100
012013102896ANIM3F      020ANIMA       ON      NM   R$  000000000194700000000019500000000001908000000000192700000000019100000000001904000000000191001611000000000000053079000000000102313219000000000000009999123100000010000000000000BRANIMACNOR6100
012013102802AORE3       010ALL ORE     ON           R$  000000000010000000000001000000000000091000000000009500000000000910000000000091000000000010000002000000000000000200000000000000019100000000000000009999123100000010000000000000BRAOREACNOR2100
012013102802ARTR3       010ARTERIS     ON      NM   R$  000000000205000000000020650000000002002000000000204000000000020500000000002030000000000205001044000000000000332700000000000678982600000000000000009999123100000010000000000000BRARTRACNOR3101
012013102896ARTR3F      020ARTERIS     ON      NM   R$  000000000202400000000020800000000002024000000000205300000000020300000000002010000000000205000016000000000000000540000000000001108804000000000000009999123100000010000000000000BRARTRACNOR3101
012013102802ARZZ3       010AREZZO CO   ON      NM   R$  000000000353600000000035380000000003387000000000344700000000034480000000003448000000000346600678000000000000162300000000000559570100000000000000009999123100000010000000000000BRARZZACNOR3109
012013102896ARZZ3F      020AREZZO CO   ON      NM   R$  000000000348100000000035120000000003398000000000346500000000034790000000003313000000000347800021000000000000000547000000000001895399000000000000009999123100000010000000000000BRARZZACNOR3109
012013102802AUTM3       010AUTOMETAL   ON      NM   R$  000000000172300000000017300000000001709000000000171600000000017150000000001715000000000171800271000000000000066000000000000113300600000000000000009999123100000010000000000000BRAUTMACNOR8109
012013102802AXPB34      010AMERICAN EXPDRN          R$  000000001801800000000180180000000018018000000001801800000000180180000000015500000000001950000001000000000000000100000000000001801800000000000000009999123100000010000000000000BRAXPBBDR007106
012013102802AZEV4       010AZEVEDO     PN           R$  000000000015000000000001600000000000150000000000015700000000001600000000000136000000000016500003000000000000054000000000000008500000000000000000009999123100000010000000000000BRAZEVACNPR7113
012013102802BAUH4       010EXCELSIOR   PN           R$  000000000105000000000010500000000001050000000000105000000000010500000000001020000000000105000001000000000000000400000000000000420000000000000000009999123100000010000000000000BRBAUHACNPR3108
012013102802BAZA3       010AMAZONIA    ON           R$  000000000003200000000000330000000000032000000000003200000000000330000000000032000000000003400003000000000000021000000000000000682000000000000000009999123100000010000000000000BRBAZAACNOR0163
012013102802BBAS3       010BRASIL      ON      NM   R$  000000000288400000000028950000000002842000000000286300000000028560000000002856000000000285707929000000000003371200000000009654118800000000000000009999123100000010000000000000BRBBASACNOR3239
012013102896BBAS3F      020BRASIL      ON      NM   R$  000000000288000000000028930000000002802000000000286500000000028500000000002850000000000285500280000000000000009021000000000025845786000000000000009999123100000010000000000000BRBBASACNOR3239
012013102862BBAS3S      030BRASIL      ON      NM090R$  000000000294100000000029420000000002941000000000294100000000029420000000000000000000000000000002000000000000003000000000000008824507000000000000009999123100000010000000000000BRBBASACNOR3239
012013102862BBAS3T      030BRASIL      ON      NM091R$  000000000294800000000029490000000002948000000000294800000000029490000000000000000000000000000002000000000000001000000000000002948782000000000000009999123100000010000000000000BRBBASACNOR3239
012013102862BBAS3T      030BRASIL      ON      NM120R$  000000000296800000000029690000000002968000000000296800000000029690000000000000000000000000000002000000000000010000000000000029686650000000000000009999123100000010000000000000BRBBASACNOR3239
012013102862BBAS3T      030BRASIL      ON      NM030R$  000000000290700000000029080000000002880000000000289400000000028810000000000000000000000000000008000000000000006700000000000019392043000000000000009999123100000010000000000000BRBBASACNOR3239
012013102878BBASA28     070BBAS        ON      NM000R$  000000000019800000000002010000000000198000000000019800000000002010000000000034000000000021000002000000000000007000000000000001392000000000000280002014012000000010000000000000BRBBASACNOR3239
012013102878BBASA29     070BBAS        ON      NM000R$  000000000012000000000001200000000000120000000000012000000000001200000000000016000000000000000001000000000000001000000000000000120000000000000290002014012000000010000000000000BRBBASACNOR3239
012013102878BBASA30     070BBAS        ON      NM000R$  000000000013500000000001370000000000125000000000013400000000001250000000000010000000000015100035000000000000046400000000000006222000000000000289502014012000000010000000000000BRBBASACNOR3237
012013102878BBASB27     070BBAS        ON      NM000R$  000000000030000000000003010000000000284000000000029700000000002840000000000000000000000000000004000000000000002000000000000000594300000000000270002014021700000010000000000000BRBBASACNOR3239
012013102878BBASB28     070BBAS        ON      NM000R$  000000000024100000000002430000000000241000000000024200000000002430000000000000000000000000000003000000000000007000000000000001695000000000000280002014021700000010000000000000BRBBASACNOR3239
012013102878BBASK1      070BBAS  FM    ON      NM000R$  000000000000700000000000070000000000006000000000000600000000000060000000000000000000000000000004000000000000008000000000000000054000000000000310002013111800000010000000000000BRBBASACNOR3239
012013102878BBASK23     070BBAS        ON      NM000R$  000000000066000000000006600000000000660000000000066000000000006600000000000000000000000000000001000000000000000200000000000000132000000000000219502013111800000010000000000000BRBBASACNOR3237
012013102878BBASK25     070BBAS        ON      NM000R$  000000000050500000000005050000000000505000000000050500000000005050000000000090000000000000000001000000000000000900000000000000454500000000000237102013111800000010000000000000BRBBASACNOR3236
012013102878BBASK26     070BBAS        ON      NM000R$  000000000047900000000004790000000000400000000000042300000000004000000000000361000000000049500010000000000000005200000000000002202200000000000247102013111800000010000000000000BRBBASACNOR3236
012013102878BBASK27     070BBAS        ON      NM000R$  000000000032000000000003200000000000300000000000030700000000003000000000000210000000000000000004000000000000001400000000000000430000000000000257102013111800000010000000000000BRBBASACNOR3236
012013102878BBASK28     070BBAS  FM    ON      NM000R$  000000000022100000000002310000000000196000000000021600000000002060000000000034000000000021200065000000000000084000000000000018188800000000000267102013111800000010000000000000BRBBASACNOR3236
012013102878BBASK29     070BBAS  FM    ON      NM000R$  000000000011400000000001290000000000097000000000011100000000001080000000000105000000000015500053000000000000061900000000000006888100000000000279502013111800000010000000000000BRBBASACNOR3237
012013102878BBASK30     070BBAS  FM    ON      NM000R$  000000000006200000000000650000000000044000000000005300000000000540000000000044000000000005800072000000000000105300000000000005672700000000000289502013111800000010000000000000BRBBASACNOR3237
012013102878BBASK31     070BBAS  FM    ON      NM000R$  000000000002500000000000260000000000016000000000002000000000000250000000000015000000000002500050000000000000111300000000000002301200000000000299502013111800000010000000000000BRBBASACNOR3237
012013102878BBASK32     070BBAS        ON      NM000R$  000000000000500000000000060000000000004000000000000500000000000050000000000003000000000001000008000000000000036000000000000000186400000000000320002013111800000010000000000000BRBBASACNOR3239
012013102878BBASK57     070BBAS        ON      NM000R$  000000000016900000000001690000000000131000000000014600000000001410000000000000000000000000000011000000000000020600000000000003017700000000000275002013111800000010000000000000BRBBASACNOR3239
012013102878BBASK58     070BBAS        ON      NM000R$  000000000008400000000000860000000000074000000000008000000000000740000000000070000000000000000012000000000000024300000000000001956500000000000285002013111800000010000000000000BRBBASACNOR3239
012013102878BBASL28     070BBAS  FM    ON      NM000R$  000000000024200000000002440000000000212000000000022900000000002240000000000034000000000023000049000000000000061500000000000014124500000000000269502013121600000010000000000000BRBBASACNOR3237
012013102878BBASL29     070BBAS  FM    ON      NM000R$  000000000018600000000001960000000000164000000000018200000000001740000000000034000000000000000087000000000000154600000000000028260700000000000276102013121600000010000000000000BRBBASACNOR3235
012013102878BBASL30     070BBAS  FM    ON      NM000R$  000000000006100000000000610000000000042000000000005000000000000480000000000048000000000005000063000000000000147500000000000007420800000000000300002013121600000010000000000000BRBBASACNOR3239
012013102878BBASL31     070BBAS  FM    ON      NM000R$  000000000002700000000000280000000000024000000000002600000000000240000000000019000000000002600006000000000000006500000000000000173000000000000310002013121600000010000000000000BRBBASACNOR3239
012013102878BBASL33     070BBAS        ON      NM000R$  000000000000600000000000060000000000005000000000000500000000000050000000000003000000000000000002000000000000012000000000000000062000000000000330002013121600000010000000000000BRBBASACNOR3239
012013102878BBASL59     070BBAS        ON      NM000R$  000000000007500000000000750000000000064000000000006900000000000640000000000000000000000000000003000000000000002000000000000000138900000000000295002013121600000010000000000000BRBBASACNOR3239
012013102878BBASL60     070BBAS        ON      NM000R$  000000000012100000000001230000000000106000000000012100000000001060000000000014000000000000000004000000000000010100000000000001228900000000000286202013121600000010000000000000BRBBASACNOR3233
012013102878BBASL65     070BBAS        ON      NM000R$  000000000003700000000000370000000000034000000000003500000000000340000000000000000000000000000006000000000000010000000000000000355000000000000305002013121600000010000000000000BRBBASACNOR3239
012013102878BBASL79     070BBAS  FM    ON      NM000R$  000000000009900000000001020000000000083000000000009700000000000830000000000000000000000000000008000000000000015900000000000001552600000000000290002013121600000010000000000000BRBBASACNOR3239
012013102882BBASW27     080BBASE FM    ON      NM000R$  000000000000300000000000040000000000003000000000000300000000000040000000000003000000000000400002000000000000011000000000000000043000000000000257102013111800000010000000000000BRBBASACNOR3236
012013102882BBASW28     080BBASE FM    ON      NM000R$  000000000001100000000000110000000000009000000000001000000000000100000000000001000000000001100051000000000000135200000000000001361100000000000267102013111800000010000000000000BRBBASACNOR3236
012013102882BBASW29     080BBASE FM    ON      NM000R$  000000000003300000000000390000000000031000000000003500000000000340000000000028000000000003900094000000000000174600000000000006211200000000000279502013111800000010000000000000BRBBASACNOR3237
012013102882BBASW30     080BBASE FM    ON      NM000R$  000000000006600000000000790000000000066000000000007300000000000780000000000048000000000000000036000000000000077100000000000005640700000000000289502013111800000010000000000000BRBBASACNOR3237
012013102882BBASW56     080BBASE       ON      NM000R$  000000000000600000000000060000000000006000000000000600000000000060000000000000000000000002000001000000000000005000000000000000030000000000000262302013111800000010000000000000BRBBASACNOR3238
012013102882BBASW57     080BBASE       ON      NM000R$  000000000002300000000000250000000000023000000000002300000000000240000000000000000000000000000068000000000000155000000000000003640000000000000275002013111800000010000000000000BRBBASACNOR3239
012013102882BBASW58     080BBASE       ON      NM000R$  000000000005000000000000560000000000050000000000005200000000000560000000000000000000000000000008000000000000021900000000000001139700000000000285002013111800000010000000000000BRBBASACNOR3239
012013102882BBASX26     080BBASE       ON      NM000R$  000000000000900000000000090000000000009000000000000900000000000090000000000000000000000001200001000000000000002000000000000000018000000000000246102013121600000010000000000000BRBBASACNOR3235
012013102882BBASX27     080BBASE FM    ON      NM000R$  000000000001700000000000170000000000017000000000001700000000000170000000000015000000000001900001000000000000002100000000000000035700000000000259502013121600000010000000000000BRBBASACNOR3237
012013102882BBASX28     080BBASE FM    ON      NM000R$  000000000003600000000000370000000000033000000000003500000000000330000000000020000000000003600146000000000000153500000000000005381800000000000269502013121600000010000000000000BRBBASACNOR3237
012013102882BBASX29     080BBASE FM    ON      NM000R$  000000000004600000000000540000000000046000000000004900000000000480000000000039000000000000000012000000000000032000000000000001595200000000000276102013121600000010000000000000BRBBASACNOR3235
012013102882BBASX30     080BBASE       ON      NM000R$  000000000014800000000001510000000000147000000000014800000000001510000000000025000000000000000005000000000000002000000000000000296900000000000300002013121600000010000000000000BRBBASACNOR3239
012013102882BBASX56     080BBASE       ON      NM000R$  000000000001400000000000140000000000013000000000001300000000000130000000000000000000000000000006000000000000039100000000000000533300000000000255002013121600000010000000000000BRBBASACNOR3239
012013102882BBASX60     080BBASE       ON      NM000R$  000000000009000000000000900000000000090000000000009000000000000900000000000000000000000000000021000000000000075000000000000006750000000000000286202013121600000010000000000000BRBBASACNOR3233
012013102882BBASX79     080BBASE FM    ON      NM000R$  000000000010000000000001090000000000094000000000010300000000001090000000000000000000000000000006000000000000009400000000000000971100000000000290002013121600000010000000000000BRBBASACNOR3239
012013102802BBDC3       010BRADESCO    ON      N1   R$  000000000355900000000035930000000003539000000000355900000000035560000000003555000000000357003282000000000000975800000000003473750000000000000000009999123100000010000000000000BRBBDCACNOR1607
012013102896BBDC3F      020BRADESCO    ON      N1   R$  000000000356100000000035930000000003521000000000357000000000035650000000003560000000000357400045000000000000001253000000000004473481000000000000009999123100000010000000000000BRBBDCACNOR1607
012013102802BBDC4       010BRADESCO    PN      N1   R$  000000000321300000000032420000000003202000000000321800000000032140000000003214000000000322014243000000000006123900000000019709875400000000000000009999123100000010000000000000BRBBDCACNPR8607
012013102896BBDC4F      020BRADESCO    PN      N1   R$  000000000323900000000032450000000003201000000000322000000000032120000000003212000000000322500151000000000000003574000000000011509114000000000000009999123100000010000000000000BRBBDCACNPR8607
012013102862BBDC4T      030BRADESCO    PN      N1016R$  000000000324000000000032410000000003221000000000323100000000032350000000000000000000000000000010000000000000010200000000000032962400000000000000009999123100000010000000000000BRBBDCACNPR8607
012013102862BBDC4T      030BRADESCO    PN      N1030R$  000000000323800000000032430000000003238000000000324000000000032430000000000000000000000000000004000000000000002200000000000007129360000000000000009999123100000010000000000000BRBBDCACNPR8607
012013102878BBDCA31     070BBDC        PN      N1000R$  000000000025200000000002520000000000226000000000023400000000002260000000000000000000000000000211000000000000059900000000000014037000000000000309602014012000000010000000000000BRBBDCACNPR8605
012013102878BBDCA33     070BBDC        PN      N1000R$  000000000011800000000001240000000000118000000000012100000000001220000000000114000000000000000003000000000000009200000000000001117400000000000329802014012000000010000000000000BRBBDCACNPR8606
012013102878BBDCA34     070BBDC        PN      N1000R$  000000000008800000000000890000000000078000000000008300000000000830000000000000000000000000000120000000000000058500000000000004859900000000000339402014012000000010000000000000BRBBDCACNPR8604
012013102878BBDCA35     070BBDC        PN      N1000R$  000000000005500000000000550000000000055000000000005500000000000550000000000000000000000000000001000000000000002300000000000000126500000000000350002014012000000010000000000000BRBBDCACNPR8607
012013102878BBDCK30     070BBDC        PN      N1000R$  000000000024400000000002440000000000232000000000024000000000002410000000000218000000000025000040000000000000023500000000000005648500000000000299602013111800000010000000000000BRBBDCACNPR8605
012013102878BBDCK31     070BBDC        PN      N1000R$  000000000016800000000001680000000000149000000000015400000000001590000000000142000000000018800148000000000000045200000000000006987300000000000309602013111800000010000000000000BRBBDCACNPR8605
012013102878BBDCK32     070BBDC  FM    PN      N1000R$  000000000011300000000001150000000000090000000000009900000000001010000000000101000000000011000102000000000000128600000000000012809800000000000317202013111800000010000000000000BRBBDCACNPR8601
012013102878BBDCK33     070BBDC  FM    PN      N1000R$  000000000005900000000000590000000000039000000000004400000000000450000000000040000000000005100042000000000000058700000000000002628500000000000327402013111800000010000000000000BRBBDCACNPR8602
012013102878BBDCK34     070BBDC  FM    PN      N1000R$  000000000001500000000000150000000000012000000000001400000000000120000000000011000000000001400012000000000000028900000000000000419500000000000339402013111800000010000000000000BRBBDCACNPR8604
012013102878BBDCK35     070BBDC  FM    PN      N1000R$  000000000000700000000000080000000000006000000000000600000000000060000000000004000000000000800011000000000000017200000000000000116700000000000347402013111800000010000000000000BRBBDCACNPR8602
012013102878BBDCK36     070BBDC  FM    PN      N1000R$  000000000000300000000000040000000000003000000000000300000000000040000000000000000000000000400009000000000000015400000000000000048500000000000357202013111800000010000000000000BRBBDCACNPR8601
012013102878BBDCL3      070BBDC  FM    PN      N1000R$  000000000010100000000001010000000000082000000000009100000000000930000000000000000000000019900018000000000000029800000000000002733000000000000327002013121600000010000000000000BRBBDCACNPR8601
012013102878BBDCL32     070BBDC  FM    PN      N1000R$  000000000016000000000001600000000000135000000000014600000000001500000000000068000000000000000093000000000000085200000000000012517500000000000317002013121600000010000000000000BRBBDCACNPR8600
012013102878BBDCL34     070BBDC  FM    PN      N1000R$  000000000005700000000000570000000000047000000000005100000000000530000000000044000000000006000027000000000000043300000000000002247000000000000337002013121600000010000000000000BRBBDCACNPR8600
012013102878BBDCL35     070BBDC        PN      N1000R$  000000000002600000000000280000000000026000000000002700000000000280000000000021000000000003300002000000000000003900000000000000107400000000000347002013121600000010000000000000BRBBDCACNPR8600
012013102878BBDCL36     070BBDC        PN      N1000R$  000000000010300000000001050000000000103000000000010400000000001050000000000000000000000014900002000000000000001500000000000000156500000000000323902013121600000010000000000000BRBBDCACNPR8597
012013102878BBDCL5      070BBDC  FM    PN      N1000R$  000000000002600000000000260000000000021000000000002200000000000210000000000013000000000000000034000000000000068200000000000001511400000000000349802013121600000010000000000000BRBBDCACNPR8606
012013102878BBDCL6      070BBDC  FM    PN      N1000R$  000000000001700000000000170000000000013000000000001300000000000140000000000012000000000000000013000000000000007300000000000000100600000000000357202013121600000010000000000000BRBBDCACNPR8601
012013102882BBDCM30     080BBDCE       PN      N1000R$  000000000004100000000000440000000000041000000000004200000000000440000000000013000000000000000019000000000000051000000000000002154000000000000299802014012000000010000000000000BRBBDCACNPR8606
012013102882BBDCW31     080BBDCE FM    PN      N1000R$  000000000002000000000000230000000000020000000000002000000000000200000000000000000000000000000456000000000000055000000000000001112400000000000309602013111800000010000000000000BRBBDCACNPR8605
012013102882BBDCW32     080BBDCE FM    PN      N1000R$  000000000003500000000000430000000000035000000000003800000000000360000000000031000000000006900005000000000000007800000000000000302900000000000317202013111800000010000000000000BRBBDCACNPR8601
012013102882BBDCW33     080BBDCE FM    PN      N1000R$  000000000007700000000000950000000000077000000000008800000000000800000000000000000000000009500048000000000000041600000000000003666200000000000327402013111800000010000000000000BRBBDCACNPR8602
012013102882BBDCW34     080BBDCE FM    PN      N1000R$  000000000016100000000001870000000000157000000000017300000000001720000000000000000000000000000125000000000000196000000000000033998100000000000339402013111800000010000000000000BRBBDCACNPR8604
012013102882BBDCX1      080BBDCE FM    PN      N1000R$  000000000003500000000000410000000000034000000000003700000000000380000000000000000000000000000523000000000000156500000000000005862400000000000307002013121600000010000000000000BRBBDCACNPR8600
012013102882BBDCX3      080BBDCE FM    PN      N1000R$  000000000010300000000001190000000000102000000000010800000000001070000000000000000000000000000028000000000000034900000000000003803300000000000327002013121600000010000000000000BRBBDCACNPR8601
012013102882BBDCX32     080BBDCE FM    PN      N1000R$  000000000006400000000000730000000000063000000000006500000000000660000000000000000000000000000048000000000000061800000000000004045000000000000317002013121600000010000000000000BRBBDCACNPR8600
012013102882BBDCX33     080BBDCE       PN      N1000R$  000000000002100000000000230000000000021000000000002200000000000230000000000000000000000000000015000000000000045000000000000000990100000000000296802013121600000010000000000000BRBBDCACNPR8598
012013102882BBDCX34     080BBDCE FM    PN      N1000R$  000000000015800000000001810000000000157000000000016700000000001660000000000000000000000000000043000000000000060900000000000010210200000000000337002013121600000010000000000000BRBBDCACNPR8600
012013102882BBDCX66     080BBDCE       PN      N1000R$  000000000000300000000000030000000000003000000000000300000000000030000000000000000000000000000003000000000000017400000000000000052200000000000259402013121600000010000000000000BRBBDCACNPR8604
012013102812BBFI11B     010FII BB PROGRCI      MB   R$  000000041550500000004163010000000415500000000041614300000004162000000000416203000000042000000009000000000000000040000000000016645725000000000000009999123100000010000000000000BRBBFICTF006199
012013102812BBPO11      010FII BB PRGIICI           R$  000000001120000000000113000000000011170000000001121000000000112500000000011200000000001125000246000000000000026028000000000291789378000000000000009999123100000010000000000000BRBBPOCTF003111
012013102812BBRC11      010FII BB CORP CI           R$  000000000865000000000086500000000008590000000000860300000000086000000000008575000000000860000015000000000000001740000000000014970022000000000000009999123100000010000000000000BRBBRCCTF004125
012013102802BBRK3       010BR BROKERS  ON      NM   R$  000000000057000000000005880000000000561000000000057800000000005840000000000583000000000058402615000000000000790000000000000456729900000000000000009999123100000010000000000000BRBBRKACNOR4108
012013102896BBRK3F      020BR BROKERS  ON      NM   R$  000000000057600000000005760000000000550000000000055600000000005500000000000551000000000060900003000000000000000063000000000000035076000000000000009999123100000010000000000000BRBBRKACNOR4108
012013102802BBSE3       010BBSEGURIDADEON      NM   R$  000000000238500000000023870000000002361000000000237700000000023850000000002380000000000238505005000000000001836800000000004367839300000000000000009999123100000010000000000000BRBBSEACNOR5101
012013102896BBSE3F      020BBSEGURIDADEON      NM   R$  000000000238500000000023850000000002350000000000237300000000023800000000002352000000000238000231000000000000006628000000000015732990000000000000009999123100000010000000000000BRBBSEACNOR5101
012013102862BBSE3T      030BBSEGURIDADEON      NM091R$  000000000243100000000024370000000002429000000000243100000000024370000000000000000000000000000020000000000000250000000000000607783174000000000000009999123100000010000000000000BRBBSEACNOR5101
012013102882BBSEM55     080BBSEE       ON      NM000R$  000000000016600000000001660000000000166000000000016600000000001660000000000000000000000000000001000000000000005700000000000000946200000000000255002014012000000010000000000000BRBBSEACNOR5101
012013102802BBTG11      010BTG PACTUAL UNT          R$  000000000296900000000029870000000002944000000000296200000000029720000000002950000000000297200216000000000000047400000000000140416500000000000000009999123100000010000000000000BRBBTGUNT007105
012013102896BBTG11F     020BTG PACTUAL UNT          R$  000000000295500000000029690000000002955000000000296100000000029690000000002965000000000305000002000000000000000090000000000000266510000000000000009999123100000010000000000000BRBBTGUNT007105
012013102812BBVJ11      010FII C JARDIMCI           R$  000000000788900000000080000000000007851000000000792500000000080000000000007881000000000800000030000000000000003610000000000028611522000000000000009999123100000010000000000000BRBBVJCTF001134
012013102812BCFF11B     010FII BC FFII CI      MB   R$  000000000889900000000088990000000008852000000000887800000000088900000000008854000000000889000085000000000000005909000000000052460964000000000000009999123100000010000000000000BRBCFFCTF000143
012013102802BDLL4       010BARDELLA    PN           R$  000000000509700000000050980000000005097000000000509700000000050980000000004922000000000525000002000000000000000200000000000001019500000000000000009999123100000010000000000000BRBDLLACNPR8149
012013102802BEEF3       010MINERVA     ON      NM   R$  000000000096900000000009690000000000942000000000094700000000009490000000000945000000000094901461000000000000354500000000000335877500000000000000009999123100000010000000000000BRBEEFACNOR6104
012013102896BEEF3F      020MINERVA     ON      NM   R$  000000000097000000000009740000000000946000000000095700000000009740000000000945000000000097300007000000000000000154000000000000147408000000000000009999123100000010000000000000BRBEEFACNOR6104
012013102802BEES3       010BANESTES    ON           R$  000000000005100000000000510000000000050000000000005000000000000510000000000050000000000005100014000000000000170400000000000008626500000000000000009999123100000010000000000000BRBEESACNOR9245
012013102896BEES3F      020BANESTES    ON           R$  000000000005900000000000590000000000059000000000005900000000000590000000000045000000000005000001000000000000000007000000000000000413000000000000009999123100000010000000000000BRBEESACNOR9245
012013102862BEES3T      030BANESTES    ON        120R$  000000000005200000000000530000000000052000000000005200000000000530000000000000000000000000000002000000000000100000000000000005248920000000000000009999123100000010000000000000BRBEESACNOR9245
012013102802BEES4       010BANESTES    PN           R$  000000000004700000000000470000000000047000000000004700000000000470000000000046000000000004700003000000000000002100000000000000098700000000000000009999123100000010000000000000BRBEESACNPR6170
012013102802BEMA3       010BEMATECH    ON      NM   R$  000000000076700000000007810000000000764000000000077300000000007800000000000780000000000078100322000000000000094300000000000072945500000000000000009999123100000010000000000000BRBEMAACNOR0114
012013102802BERK34      010BERKSHIRE   DRN          R$  000000002549000000000259000000000025490000000002566800000000256000000000025200000000002577500009000000000000035200000000000903533000000000000000009999123100000010000000000000BRBERKBDR002100
012013102896BGIP3F      020BANESE      ON           R$  000000000490000000000049000000000004900000000000490000000000049000000000004500000000000490000002000000000000000010000000000000049000000000000000009999123100000010000000000000BRBGIPACNOR1179
012013102896BGIP4F      020BANESE      PN           R$  000000000495000000000049500000000004950000000000495000000000049500000000004800000000000490000001000000000000000001000000000000004950000000000000009999123100000010000000000000BRBGIPACNPR8179
012013102802BHGR3       010BHG         ON      NM   R$  000000000169800000000017350000000001680000000000169200000000016900000000001688000000000169000060000000000000018400000000000031149600000000000000009999123100000010000000000000BRBHGRACNOR9101
012013102896BHGR3F      020BHG         ON      NM   R$  000000000169500000000016950000000001695000000000169500000000016950000000001625000000000179500001000000000000000005000000000000008475000000000000009999123100000010000000000000BRBHGRACNOR9101
012013102802BICB4       010BICBANCO    PN      N1   R$  000000000064000000000006700000000000640000000000065400000000006660000000000665000000000066600178000000000000252700000000000165341900000000000000009999123100000010000000000000BRBICBACNPR7131
012013102896BICB4F      020BICBANCO    PN      N1   R$  000000000056100000000006840000000000561000000000066500000000006840000000000581000000000068400006000000000000000077000000000000051256000000000000009999123100000010000000000000BRBICBACNPR7131
012013102862BICB4T      030BICBANCO    PN      N1030R$  000000000064700000000006560000000000645000000000065300000000006510000000000000000000000000000012000000000000090000000000000058781985000000000000009999123100000010000000000000BRBICBACNPR7131
012013102862BICB4T      030BICBANCO    PN      N1091R$  000000000068400000000006850000000000684000000000068400000000006850000000000000000000000000000002000000000000010000000000000006843201000000000000009999123100000010000000000000BRBICBACNPR7131
012013102802BIOM3       010BIOMM       ON           R$  000000000099900000000010800000000000950000000000103500000000009500000000000950000000000100000006000000000000013000000000000013459000000000000000009999123100000010000000000000BRBIOMACNOR2101
012013102802BISA3       010BROOKFIELD  ON      NM   R$  000000000014700000000001490000000000147000000000014700000000001480000000000147000000000014802377000000000003465600000000000512525000000000000000009999123100000010000000000000BRBISAACNOR8109
012013102896BISA3F      020BROOKFIELD  ON      NM   R$  000000000014700000000001500000000000146000000000014600000000001490000000000146000000000015200209000000000000000474000000000000069641000000000000009999123100000010000000000000BRBISAACNOR8109
012013102862BISA3T      030BROOKFIELD  ON      NM030R$  000000000014900000000001500000000000149000000000014900000000001500000000000000000000000000000006000000000000043800000000000006530198000000000000009999123100000010000000000000BRBISAACNOR8109
012013102862BISA3T      030BROOKFIELD  ON      NM091R$  000000000015100000000001520000000000151000000000015100000000001520000000000000000000000000000002000000000000000400000000000000060556000000000000009999123100000010000000000000BRBISAACNOR8109
012013102812BJRC11      010FII JS RECIMCI           R$  000000009000000000000900010000000088001000000008994300000000899000000000088001000000008989900009000000000000000146000000000013131709000000000000009999123100000010000000000000BRBJRCCTF007111
012013102802BMKS3       010BIC MONARK  ON           R$  000000003400000000000340000000000033002000000003394100000000330020000000033001000000003400000004000000000000000017000000000000577002000000000000009999123100000010000000000000BRBMKSACNOR9155
012013102812BMLC11B     010FII BMBRC LCCI      MB   R$  000000001175000000000117500000000011721000000001174900000000117210000000011710000000001175000015000000000000000580000000000006814971000000000000009999123100000010000000000000BRBMLCCTF004120
012013102896BNBR3F      020NORD BRASIL ON           R$  000000000250000000000025000000000002260000000000229400000000022600000000002160000000000250000003000000000000000007000000000000016060000000000000009999123100000010000000000000BRBNBRACNOR8187
012013102802BOBR4       010BOMBRIL     PN           R$  000000000064900000000006490000000000649000000000064900000000006490000000000610000000000065000001000000000000000100000000000000064900000000000000009999123100000010000000000000BRBOBRACNPR3127
012013102814BOVA11      010ISHARES BOVACI           R$  000000000545000000000054510000000005280000000000534200000000054000000000005381000000000540002110000000000001006850000000005379054590000000000000009999123100000010000000000000BRBOVACTF003101
012013102896BOVA11F     020ISHARES BOVACI           R$  000000000528500000000053600000000005285000000000532000000000053600000000005320000000000537500011000000000000000040000000000000212805000000000000009999123100000010000000000000BRBOVACTF003101
012013102812BPFF11      010FII ABSOLUTOCI           R$  000000000844000000000084800000000008400000000000843900000000084800000000008420000000000848000048000000000000018433000000000155572140000000000000009999123100000010000000000000BRBPFFCTF002106
012013102802BPHA3       010BR PHARMA   ON      NM   R$  000000000082600000000008450000000000824000000000084000000000008450000000000841000000000084500553000000000000318000000000000267301700000000000000009999123100000010000000000000BRBPHAACNOR6102
012013102896BPHA3F      020BR PHARMA   ON      NM   R$  000000000083400000000008340000000000831000000000083200000000008310000000000830000000000089900002000000000000000070000000000000058260000000000000009999123100000010000000000000BRBPHAACNOR6102
012013102802BPNM4       010PANAMERICANOPN      N1   R$  000000000051300000000005180000000000512000000000051500000000005160000000000513000000000051600305000000000001203200000000000619739100000000000000009999123100000010000000000000BRBPNMACNPR6111
012013102896BPNM4F      020PANAMERICANOPN      N1   R$  000000000051500000000005150000000000502000000000051000000000005020000000000502000000000054600017000000000000000176000000000000089878000000000000009999123100000010000000000000BRBPNMACNPR6111
012013102862BPNM4T      030PANAMERICANOPN      N1030R$  000000000051800000000005190000000000518000000000051800000000005190000000000000000000000000000040000000000001000000000000000518708000000000000000009999123100000010000000000000BRBPNMACNPR6111
012013102862BPNM4T      030PANAMERICANOPN      N1045R$  000000000052400000000005250000000000524000000000052400000000005250000000000000000000000000000002000000000000015000000000000007864794000000000000009999123100000010000000000000BRBPNMACNPR6111
012013102802BRAP3       010BRADESPAR   ON      N1   R$  000000000212900000000021480000000002125000000000212800000000021250000000002125000000000214800007000000000000000900000000000001915600000000000000009999123100000010000000000000BRBRAPACNOR5124
012013102896BRAP3F      020BRADESPAR   ON      N1   R$  000000000218000000000021800000000002126000000000214000000000021260000000002125000000000219500005000000000000000026000000000000055640000000000000009999123100000010000000000000BRBRAPACNOR5124
012013102802BRAP4       010BRADESPAR   PN      N1   R$  000000000258900000000026110000000002581000000000260000000000026100000000002610000000000261204405000000000001369700000000003562168300000000000000009999123100000010000000000000BRBRAPACNPR2124
012013102896BRAP4F      020BRADESPAR   PN      N1   R$  000000000260000000000026290000000002587000000000259900000000026060000000002588000000000262800056000000000000001888000000000004907335000000000000009999123100000010000000000000BRBRAPACNPR2124
012013102862BRAP4T      030BRADESPAR   PN      N1016R$  000000000261000000000026110000000002610000000000261000000000026110000000000000000000000000000002000000000000002000000000000005221980000000000000009999123100000010000000000000BRBRAPACNPR2124
012013102862BRAP4T      030BRADESPAR   PN      N1060R$  000000000263700000000026450000000002637000000000263900000000026440000000000000000000000000000008000000000000005300000000000013988388000000000000009999123100000010000000000000BRBRAPACNPR2124
012013102878BRAPA26     070BRAP        PN      N1000R$  000000000014500000000001450000000000144000000000014400000000001440000000000000000000000000000002000000000000150000000000000021690000000000000260002014012000000010000000000000BRBRAPACNPR2124
012013102814BRAX11      010ISHARES BRAXCI           R$  000000000436800000000043800000000004368000000000437900000000043800000000003000000000000453500002000000000000000230000000000001007280000000000000009999123100000010000000000000BRBRAXCTF002100
012013102812BRCR11      010FII BC FUND CI           R$  000000001371500000000137510000000013650000000001368300000000137000000000013700000000001370100421000000000000045262000000000619345343000000000000009999123100000010000000000000BRBRCRCTF000134
012013102802BRFS3       010BRF SA      ON      NM   R$  000000000548700000000054900000000005270000000000532200000000053010000000005300000000000530414818000000000004862300000000025880366200000000000000009999123100000010000000000000BRBRFSACNOR8110
012013102896BRFS3F      020BRF SA      ON      NM   R$  000000000552300000000055230000000005269000000000534100000000053790000000005317000000000537900240000000000000006489000000000034652439000000000000009999123100000010000000000000BRBRFSACNOR8110
012013102862BRFS3S      030BRF SA      ON      NM090R$  000000000553500000000055360000000005535000000000553500000000055360000000000000000000000000000002000000000000018500000000000102412319000000000000009999123100000010000000000000BRBRFSACNOR8110
012013102862BRFS3T      030BRF SA      ON      NM091R$  000000000549900000000055000000000005401000000000541300000000054020000000000000000000000000000004000000000000002300000000000012452091000000000000009999123100000010000000000000BRBRFSACNOR8110
012013102862BRFS3T      030BRF SA      ON      NM120R$  000000000557800000000055880000000005505000000000556000000000055060000000000000000000000000000010000000000000005000000000000027801780000000000000009999123100000010000000000000BRBRFSACNOR8110
012013102862BRFS3T      030BRF SA      ON      NM016R$  000000000531600000000053270000000005315000000000532000000000053250000000000000000000000000000016000000000000504100000000002682150783000000000000009999123100000010000000000000BRBRFSACNOR8110
012013102862BRFS3T      030BRF SA      ON      NM030R$  000000000542800000000054290000000005326000000000539900000000053350000000000000000000000000000010000000000000001700000000000009178401000000000000009999123100000010000000000000BRBRFSACNOR8110
012013102862BRFS3T      030BRF SA      ON      NM045R$  000000000535800000000053590000000005358000000000535800000000053590000000000000000000000000000002000000000000000200000000000001071650000000000000009999123100000010000000000000BRBRFSACNOR8110
012013102862BRFS3T      030BRF SA      ON      NM056R$  000000000537100000000053720000000005371000000000537100000000053720000000000000000000000000000002000000000000001000000000000005371020000000000000009999123100000010000000000000BRBRFSACNOR8110
012013102862BRFS3T      030BRF SA      ON      NM060R$  000000000536900000000053700000000005365000000000536600000000053660000000000000000000000000000004000000000000001860000000000009982330000000000000009999123100000010000000000000BRBRFSACNOR8110
012013102862BRFS3T      030BRF SA      ON      NM087R$  000000000541800000000054190000000005418000000000541800000000054190000000000000000000000000000002000000000000010000000000000054184876000000000000009999123100000010000000000000BRBRFSACNOR8110
012013102882BRFSM50     080BRFSE       ON      NM000R$  000000000010000000000001010000000000093000000000009600000000000930000000000000000000000000000003000000000000300000000000000029025000000000000500002014012000000010000000000000BRBRFSACNOR8110
012013102882BRFSM51     080BRFSE       ON      NM000R$  000000000012100000000001220000000000114000000000011700000000001140000000000000000000000000000003000000000000300000000000000035310000000000000510002014012000000010000000000000BRBRFSACNOR8110
012013102802BRGE3       010ALFA CONSORCON           R$  000000000050000000000005000000000000500000000000050000000000005000000000000378000000000060000001000000000000000700000000000000350000000000000000009999123100000010000000000000BRBRGEACNOR6197
012013102896BRGE8F      020ALFA CONSORCPND          R$  000000000030100000000003010000000000301000000000030100000000003010000000000301000000000000000001000000000000000006000000000000001806000000000000009999123100000010000000000000BRBRGEACNPD3200
012013102802BRIN3       010BR INSURANCEON      NM   R$  000000000199000000000019940000000001964000000000198800000000019900000000001985000000000199000554000000000000155700000000000309606600000000000000009999123100000010000000000000BRBRINACNOR3106
012013102896BRIN3F      020BR INSURANCEON      NM   R$  000000000199000000000020000000000001980000000000198500000000020000000000001985000000000203900005000000000000000101000000000000200500000000000000009999123100000010000000000000BRBRINACNOR3106
012013102896BRIV4F      020ALFA INVEST PN           R$  000000000059800000000005980000000000598000000000059800000000005980000000000551000000000059800001000000000000000003000000000000001794000000000000009999123100000010000000000000BRBRIVACNPR3197
012013102802BRKM3       010BRASKEM     ON      N1   R$  000000000145200000000014520000000001452000000000145200000000014520000000001405000000000145100001000000000000000200000000000000290400000000000000009999123100000010000000000000BRBRKMACNOR1110
012013102802BRKM5       010BRASKEM     PNA     N1   R$  000000000194500000000019830000000001935000000000195800000000019660000000001961000000000196604441000000000000792100000000001551308800000000000000009999123100000010000000000000BRBRKMACNPA4110
012013102896BRKM5F      020BRASKEM     PNA     N1   R$  000000000195700000000019800000000001939000000000195400000000019610000000001952000000000196300092000000000000002544000000000004972352000000000000009999123100000010000000000000BRBRKMACNPA4110
012013102862BRKM5T      030BRASKEM     PNA     N1180R$  000000000206000000000020610000000002060000000000206000000000020610000000000000000000000000000002000000000000005000000000000010300843000000000000009999123100000010000000000000BRBRKMACNPA4110
012013102802BRML3       010BR MALLS PARON      NM   R$  000000000221000000000022240000000002193000000000220400000000022040000000002204000000000221204860000000000001230800000000002713049200000000000000009999123100000010000000000000BRBRMLACNOR9105
012013102896BRML3F      020BR MALLS PARON      NM   R$  000000000220000000000022150000000002196000000000220500000000022150000000002195000000000221500033000000000000000945000000000002084769000000000000009999123100000010000000000000BRBRMLACNOR9105
012013102862BRML3T      030BR MALLS PARON      NM115R$  000000000226200000000022660000000002262000000000226400000000022660000000000000000000000000000004000000000000010000000000000022644079000000000000009999123100000010000000000000BRBRMLACNOR9105
012013102878BRMLB24     070BRML        ON      NM000R$  000000000006500000000000650000000000065000000000006500000000000650000000000000000000000000000001000000000000010000000000000000650000000000000240002014021700000010000000000000BRBRMLACNOR9105
012013102878BRMLK52     070BRML        ON      NM000R$  000000000003400000000000340000000000034000000000003400000000000340000000000000000000000000000002000000000000001300000000000000044200000000000225002013111800000010000000000000BRBRMLACNOR9105
012013102802BRPR3       010BR PROPERT  ON      NM   R$  000000000185100000000018820000000001841000000000185800000000018790000000001874000000000187904267000000000000903600000000001679134600000000000000009999123100000010000000000000BRBRPRACNOR9112
012013102896BRPR3F      020BR PROPERT  ON      NM   R$  000000000184200000000018790000000001842000000000185700000000018720000000001850000000000187100022000000000000000543000000000001009110000000000000009999123100000010000000000000BRBRPRACNOR9112
012013102802BRSR6       010BANRISUL    PNB     N1   R$  000000000155000000000015610000000001520000000000152900000000015200000000001519000000000152703220000000000000818400000000001251936800000000000000009999123100000010000000000000BRBRSRACNPB4134
012013102896BRSR6F      020BANRISUL    PNB     N1   R$  000000000154200000000015710000000001500000000000154000000000015290000000001527000000000159500018000000000000000484000000000000744854000000000000009999123100000010000000000000BRBRSRACNPB4134
012013102802BSEV3       010BIOSEV      ON      NM   R$  000000000090200000000009510000000000902000000000093200000000009400000000000899000000000095800015000000000000028900000000000026935700000000000000009999123100000010000000000000BRBSEVACNOR3100
012013102802BTOW3       010B2W DIGITAL ON      NM   R$  000000000162900000000017440000000001629000000000170900000000017140000000001713000000000171401757000000000000458900000000000784438300000000000000009999123100000010000000000000BRBTOWACNOR8105
012013102896BTOW3F      020B2W DIGITAL ON      NM   R$  000000000166400000000017400000000001658000000000170300000000017400000000001690000000000171000032000000000000001122000000000001910903000000000000009999123100000010000000000000BRBTOWACNOR8105
012013102862BTOW3T      030B2W DIGITAL ON      NM091R$  000000000172300000000017240000000001723000000000172300000000017240000000000000000000000000000002000000000000010000000000000017231018000000000000009999123100000010000000000000BRBTOWACNOR8105
012013102802BVMF3       010BMFBOVESPA  ON      NM   R$  000000000126000000000012960000000001253000000000127800000000012830000000001283000000000128413935000000000008685400000000011102459700000000000000009999123100000010000000000000BRBVMFACNOR3126
012013102896BVMF3F      020BMFBOVESPA  ON      NM   R$  000000000125500000000012980000000001255000000000127900000000012980000000001293000000000129800985000000000000012425000000000015898041000000000000009999123100000010000000000000BRBVMFACNOR3126
012013102862BVMF3T      030BMFBOVESPA  ON      NM016R$  000000000129200000000012930000000001292000000000129200000000012930000000000000000000000000000002000000000000004700000000000006075515000000000000009999123100000010000000000000BRBVMFACNOR3126
012013102862BVMF3T      030BMFBOVESPA  ON      NM030R$  000000000130100000000013020000000001301000000000130100000000013020000000000000000000000000000002000000000000025000000000000032532560000000000000009999123100000010000000000000BRBVMFACNOR3126
012013102862BVMF3T      030BMFBOVESPA  ON      NM059R$  000000000131100000000013120000000001311000000000131100000000013120000000000000000000000000000002000000000000100000000000000131126870000000000000009999123100000010000000000000BRBVMFACNOR3126
012013102878BVMFA13     070BVMF        ON      NM000R$  000000000006400000000000640000000000064000000000006400000000000640000000000065000000000000000001000000000000001800000000000000115200000000000130002014012000000010000000000000BRBVMFACNOR3126
012013102878BVMFA14     070BVMF        ON      NM000R$  000000000003000000000000300000000000030000000000003000000000000300000000000000000000000000000001000000000000000200000000000000006000000000000140002014012000000010000000000000BRBVMFACNOR3126
012013102878BVMFB15     070BVMF        ON      NM000R$  000000000002200000000000220000000000022000000000002200000000000220000000000000000000000004500001000000000000150000000000000003300000000000000148502014021700000010000000000000BRBVMFACNOR3125
012013102878BVMFK11     070BVMF        ON      NM000R$  000000000020900000000002120000000000209000000000020900000000002120000000000146000000000000000011000000000000001900000000000000397400000000000108502013111800000010000000000000BRBVMFACNOR3125
012013102878BVMFK12     070BVMF        ON      NM000R$  000000000009000000000001190000000000090000000000011300000000001130000000000114000000000012000045000000000000025600000000000002894400000000000118502013111800000010000000000000BRBVMFACNOR3125
012013102878BVMFK13     070BVMF  FM    ON      NM000R$  000000000002700000000000410000000000025000000000003100000000000390000000000035000000000003900427000000000000757400000000000024071100000000000128502013111800000010000000000000BRBVMFACNOR3125
012013102878BVMFK14     070BVMF  FM    ON      NM000R$  000000000000600000000000070000000000003000000000000500000000000060000000000005000000000000700274000000000000369500000000000002068400000000000138502013111800000010000000000000BRBVMFACNOR3125
012013102878BVMFK15     070BVMF        ON      NM000R$  000000000000100000000000010000000000001000000000000100000000000010000000000000000000000000100001000000000000002000000000000000002000000000000148502013111800000010000000000000BRBVMFACNOR3125
012013102878BVMFK16     070BVMF        ON      NM000R$  000000000000100000000000010000000000001000000000000100000000000010000000000000000000000000000003000000000000032100000000000000032100000000000160002013111800000010000000000000BRBVMFACNOR3126
012013102878BVMFK42     070BVMF  FM    ON      NM000R$  000000000004200000000000650000000000042000000000005400000000000620000000000000000000000008500051000000000000081500000000000004427300000000000125002013111800000010000000000000BRBVMFACNOR3126
012013102878BVMFK43     070BVMF  FM    ON      NM000R$  000000000000700000000000120000000000006000000000000700000000000120000000000007000000000001300057000000000000042200000000000000332800000000000135002013111800000010000000000000BRBVMFACNOR3126
012013102878BVMFK44     070BVMF  FM    ON      NM000R$  000000000000200000000000020000000000002000000000000200000000000020000000000000000000000000000044000000000000029500000000000000059000000000000145002013111800000010000000000000BRBVMFACNOR3126
012013102878BVMFK52     070BVMFE       ON      NM000R$  000000000005800000000000830000000000058000000000006100000000000830000000000000000000000000000009000000000000009000000000000000549000000000000122502013111800000010000000000000BRBVMFACNOR3126
012013102878BVMFL13     070BVMF  FM    ON      NM000R$  000000000005000000000000630000000000049000000000005400000000000620000000000062000000000006400127000000000000069500000000000003796500000000000128502013121600000010000000000000BRBVMFACNOR3125
012013102878BVMFL14     070BVMF  FM    ON      NM000R$  000000000001700000000000210000000000017000000000002000000000000210000000000005000000000002500018000000000000067100000000000001343900000000000137402013121600000010000000000000BRBVMFACNOR3124
012013102878BVMFL42     070BVMF  FM    ON      NM000R$  000000000006700000000000850000000000067000000000007900000000000850000000000000000000000000000013000000000000026200000000000002072200000000000125002013121600000010000000000000BRBVMFACNOR3126
012013102878BVMFL43     070BVMF        ON      NM000R$  000000000003500000000000450000000000035000000000003600000000000450000000000000000000000131900015000000000001033100000000000037247100000000000131902013121600000010000000000000BRBVMFACNOR3126
012013102878BVMFL44     070BVMF  FM    ON      NM000R$  000000000000700000000000090000000000007000000000000800000000000090000000000000000000000000000048000000000000083700000000000000752300000000000145002013121600000010000000000000BRBVMFACNOR3126
012013102882BVMFM13     080BVMFE       ON      NM000R$  000000000005500000000000550000000000055000000000005500000000000550000000000000000000000000000002000000000000002400000000000000132000000000000130002014012000000010000000000000BRBVMFACNOR3126
012013102882BVMFN13     080BVMFE       ON      NM000R$  000000000005300000000000530000000000053000000000005300000000000530000000000000000000000000000001000000000000150000000000000007950000000000000128502014021700000010000000000000BRBVMFACNOR3125
012013102882BVMFN41     080BVMFE       ON      NM000R$  000000000002100000000000210000000000021000000000002100000000000210000000000000000000000000000001000000000000150000000000000003150000000000000113502014021700000010000000000000BRBVMFACNOR3125
012013102882BVMFW10     080BVMFE       ON      NM000R$  000000000000200000000000020000000000002000000000000200000000000020000000000000000000000000000001000000000000001000000000000000002000000000000098502013111800000010000000000000BRBVMFACNOR3125
012013102882BVMFW12     080BVMFE FM    ON      NM000R$  000000000001400000000000140000000000006000000000000800000000000070000000000006000000000000700101000000000000123500000000000001045300000000000118502013111800000010000000000000BRBVMFACNOR3125
012013102882BVMFW13     080BVMFE FM    ON      NM000R$  000000000004800000000000480000000000028000000000004100000000000280000000000013000000000003400202000000000000107100000000000004420100000000000128502013111800000010000000000000BRBVMFACNOR3125
012013102882BVMFW42     080BVMFE FM    ON      NM000R$  000000000002900000000000290000000000016000000000002200000000000160000000000000000000000003600021000000000000055600000000000001233100000000000125002013111800000010000000000000BRBVMFACNOR3126
012013102882BVMFW43     080BVMFE FM    ON      NM000R$  000000000009200000000000950000000000079000000000008600000000000790000000000000000000000000000012000000000000031400000000000002710100000000000135002013111800000010000000000000BRBVMFACNOR3126
012013102882BVMFX13     080BVMFE FM    ON      NM000R$  000000000005500000000000550000000000050000000000005200000000000500000000000000000000000000000007000000000000012800000000000000667400000000000128502013121600000010000000000000BRBVMFACNOR3125
012013102882BVMFX14     080BVMFE FM    ON      NM000R$  000000000011600000000001160000000000091000000000010300000000000910000000000000000000000000000016000000000000039700000000000004112900000000000137402013121600000010000000000000BRBVMFACNOR3124
012013102882BVMFX42     080BVMFE FM    ON      NM000R$  000000000003100000000000310000000000031000000000003100000000000310000000000000000000000000000001000000000000003500000000000000108500000000000125002013121600000010000000000000BRBVMFACNOR3126
012013102882BVMFX43     080BVMFE       ON      NM000R$  000000000007900000000000790000000000069000000000007100000000000690000000000000000000000000000003000000000000003600000000000000258700000000000131902013121600000010000000000000BRBVMFACNOR3126
012013102882BVMFX62     080BVMFE FM    ON      NM000R$  000000000002600000000000260000000000021000000000002400000000000210000000000000000000000000000072000000000000078500000000000001891400000000000120002013121600000010000000000000BRBVMFACNOR3126
012013102802CAMB4       010CAMBUCI     PN           R$  000000000018100000000001810000000000175000000000017800000000001750000000000177000000000019500008000000000000011500000000000002052500000000000000009999123100000010000000000000BRCAMBACNPR1117
012013102802CARD3       010CSU CARDSYSTON      NM   R$  000000000029900000000003000000000000288000000000029300000000003000000000000297000000000030000044000000000000078600000000000023063700000000000000009999123100000010000000000000BRCARDACNOR9105
012013102896CARD3F      020CSU CARDSYSTON      NM   R$  000000000029700000000002970000000000287000000000029100000000002870000000000288000000000030900006000000000000000200000000000000058355000000000000009999123100000010000000000000BRCARDACNOR9105
012013102802CBMA4       010COBRASMA    PN           R$  000000000000500000000000050000000000005000000000000500000000000050000000000004000000000000500002000000000000020000000000000000100000000000000000009999123100000010000000000000BRCBMAACNPR1124
012013102808CCHI3       010CHIARELLI   ON           R$  000000000001400000000000140000000000013000000000001300000000000130000000000013000000000001400016000000000000260000000000000003420000000000000000009999123100000010000000000000BRCCHIACNOR5123
012013102896CCHI3F      020CHIARELLI   ON           R$  000000000001400000000000140000000000013000000000001300000000000130000000000012000000000001600005000000000000010000000000000000132964000000000000009999123100000010000000000000BRCCHIACNOR5123
012013102808CCHI4       010CHIARELLI   PN           R$  000000000000900000000000090000000000009000000000000900000000000090000000000009000000000001000002000000000000030000000000000000270000000000000000009999123100000010000000000000BRCCHIACNPR2122
012013102802CCPR3       010CYRE COM-CCPON      NM   R$  000000000202900000000020550000000002000000000000200600000000020010000000002001000000000209000020000000000000012200000000000024480400000000000000009999123100000010000000000000BRCCPRACNOR9107
012013102896CCPR3F      020CYRE COM-CCPON      NM   R$  000000000192100000000020200000000001921000000000199200000000020200000000001928000000000224900005000000000000000153000000000000304783000000000000009999123100000010000000000000BRCCPRACNOR9107
012013102802CCRO3       010CCR SA      ON      NM   R$  000000000187100000000018790000000001849000000000186800000000018750000000001871000000000187506384000000000002453100000000004582510400000000000000009999123100000010000000000000BRCCROACNOR2123
012013102896CCRO3F      020CCR SA      ON      NM   R$  000000000187800000000018950000000001846000000000186900000000018750000000001850000000000189000145000000000000003204000000000005988434000000000000009999123100000010000000000000BRCCROACNOR2123
012013102878CCROK50     070CCRO        ON      NM000R$  000000000000200000000000020000000000002000000000000200000000000020000000000000000000000000000001000000000000000100000000000000000200000000000198202013111800000010000000000000BRCCROACNOR2122
012013102878CCROL59     070CCRO        ON      NM000R$  000000000005000000000000500000000000050000000000005000000000000500000000000000000000000011900001000000000000080000000000000004000000000000000190002013121600000010000000000000BRCCROACNOR2123
012013102802CCXC3       010CCX CARVAO  ON      NM   R$  000000000013400000000001340000000000109000000000011900000000001130000000000113000000000011503251000000000010753600000000001281775600000000000000009999123100000010000000000000BRCCXCACNOR5100
012013102896CCXC3F      020CCX CARVAO  ON      NM   R$  000000000013200000000001320000000000112000000000012100000000001120000000000116000000000012100046000000000000001646000000000000199788000000000000009999123100000010000000000000BRCCXCACNOR5100
012013102862CCXC3T      030CCX CARVAO  ON      NM016R$  000000000011500000000001160000000000115000000000011500000000001160000000000000000000000000000002000000000000200000000000000023181552000000000000009999123100000010000000000000BRCCXCACNOR5100
012013102802CEBR3       010CEB         ON           R$  000000000149400000000014940000000001494000000000149400000000014940000000001300000000000147900004000000000000000600000000000000896400000000000000009999123100000010000000000000BRCEBRACNOR5114
012013102802CEED3       010CEEE-D      ON      N1   R$  000000000015000000000001500000000000150000000000015000000000001500000000000100000000000016000001000000000000002000000000000000300000000000000000009999123100000010000000000000BRCEEDACNOR9101
012013102808CELP3       010CELPA       ON           R$  000000000008400000000000900000000000084000000000008400000000000900000000000070000000000009100004000000000000032700000000000002767100000000000000009999123100000010000000000000BRCELPACNOR8112
012013102808CELP7       010CELPA       PNC          R$  000000000005000000000000500000000000050000000000005000000000000500000000000046000000000006900003000000000000020000000000000001000000000000000000009999123100000010000000000000BRCELPACNPC7114
012013102812CEOC11B     010FII CEO CCP CI      MB   R$  000000000865000000000086500000000008515000000000861400000000086490000000008515000000000864900038000000000000003582000000000030858203000000000000009999123100000010000000000000BRCEOCCTF003111
012013102802CEPE5       010CELPE       PNA          R$  000000000214900000000021490000000002149000000000214900000000021490000000001800000000000215000001000000000000002000000000000004298000000000000000009999123100000010000000000000BRCEPEACNPA6151
012013102802CESP3       010CESP        ON      N1   R$  000000000190900000000019090000000001860000000000188600000000018860000000001886000000000193600013000000000000003700000000000006979800000000000000009999123100000010000000000000BRCESPACNOR3160
012013102896CESP3F      020CESP        ON      N1   R$  000000000193000000000019300000000001900000000000190900000000019000000000001900000000000210000003000000000000000048000000000000091650000000000000009999123100000010000000000000BRCESPACNOR3160
012013102802CESP6       010CESP        PNB     N1   R$  000000000222300000000022800000000002223000000000224900000000022400000000002240000000000226301488000000000000282800000000000636273100000000000000009999123100000010000000000000BRCESPACNPB4119
012013102896CESP6F      020CESP        PNB     N1   R$  000000000223900000000022880000000002230000000000225500000000022300000000002225000000000228800018000000000000000320000000000000721633000000000000009999123100000010000000000000BRCESPACNPB4119
012013102862CESP6T      030CESP        PNB     N1030R$  000000000225400000000022550000000002254000000000225400000000022550000000000000000000000000000002000000000000007000000000000015780362000000000000009999123100000010000000000000BRCESPACNPB4119
012013102802CGAS5       010COMGAS      PNA          R$  000000000590000000000059340000000005891000000000590700000000059000000000005893000000000591000065000000000000022000000000000129954000000000000000009999123100000010000000000000BRCGASACNPA3129
012013102896CGAS5F      020COMGAS      PNA          R$  000000000591000000000059500000000005904000000000591500000000059040000000005904000000000600000005000000000000000131000000000000774970000000000000009999123100000010000000000000BRCGASACNPA3129
012013102862CGAS5T      030COMGAS      PNA       030R$  000000000594200000000059430000000005942000000000594200000000059430000000000000000000000000000038000000000000004300000000000025551672000000000000009999123100000010000000000000BRCGASACNPA3129
012013102802CGRA4       010GRAZZIOTIN  PN           R$  000000000177000000000017700000000001750000000000175500000000017500000000001750000000000176600014000000000000008000000000000014046900000000000000009999123100000010000000000000BRCGRAACNPR9061
012013102862CGRA4T      030GRAZZIOTIN  PN        091R$  000000000180800000000018090000000001808000000000180800000000018090000000000000000000000000000002000000000000002100000000000003797287000000000000009999123100000010000000000000BRCGRAACNPR9061
012013102802CIEL3       010CIELO       ON      NM   R$  000000000665200000000066900000000006577000000000660900000000066150000000006613000000000661504584000000000001062800000000007024453200000000000000009999123100000010000000000000BRCIELACNOR3112
012013102896CIEL3F      020CIELO       ON      NM   R$  000000000667200000000066920000000006550000000000659500000000066020000000006601000000000666000829000000000000012737000000000084004924000000000000009999123100000010000000000000BRCIELACNOR3112
012013102882CIELM71     080CIELE       ON      NM000R$  000000000048500000000004850000000000485000000000048500000000004850000000000000000000000000000001000000000000001400000000000000679000000000000710002014012000000010000000000000BRCIELACNOR3112
012013102802CLSC4       010CELESC      PN      N2   R$  000000000180000000000018000000000001770000000000178600000000017800000000001771000000000179000064000000000000009500000000000016971500000000000000009999123100000010000000000000BRCLSCACNPR3107
012013102896CLSC4F      020CELESC      PN      N2   R$  000000000179000000000017900000000001790000000000179000000000017900000000001786000000000180900001000000000000000001000000000000001790000000000000009999123100000010000000000000BRCLSCACNPR3107
012013102858CMGR3       010CEMAT       ON           R$  000000000045000000000004500000000000450000000000045000000000004500000000000352000000000044500001000000000000000100000000000000045000000000000000009999123100000010000000000000BRCMGRACNOR7114
012013102802CMIG3       010CEMIG       ON      N1   R$  000000000193700000000019700000000001937000000000196000000000019550000000001955000000000196700123000000000000045800000000000089806000000000000000009999123100000010000000000000BRCMIGACNOR6208
012013102896CMIG3F      020CEMIG       ON      N1   R$  000000000194000000000019740000000001940000000000196200000000019740000000001964000000000197400012000000000000000179000000000000351291000000000000009999123100000010000000000000BRCMIGACNOR6208
012013102802CMIG4       010CEMIG       PN      N1   R$  000000000195300000000019970000000001953000000000198500000000019900000000001985000000000199007828000000000002751200000000005462212200000000000000009999123100000010000000000000BRCMIGACNPR3208
012013102896CMIG4F      020CEMIG       PN      N1   R$  000000000195800000000019990000000001955000000000197800000000019850000000001985000000000199100802000000000000010976000000000021719750000000000000009999123100000010000000000000BRCMIGACNPR3208
012013102862CMIG4T      030CEMIG       PN      N1030R$  000000000200100000000020020000000002001000000000200100000000020020000000000000000000000000000002000000000000020100000000000040234246000000000000009999123100000010000000000000BRCMIGACNPR3208
012013102862CMIG4T      030CEMIG       PN      N1043R$  000000000201000000000020110000000002010000000000201000000000020110000000000000000000000000000002000000000000045000000000000090479844000000000000009999123100000010000000000000BRCMIGACNPR3208
012013102862CMIG4T      030CEMIG       PN      N1060R$  000000000201600000000020170000000002016000000000201600000000020170000000000000000000000000000002000000000000002500000000000005040026000000000000009999123100000010000000000000BRCMIGACNPR3208
012013102862CMIG4T      030CEMIG       PN      N1120R$  000000000204800000000020490000000002048000000000204800000000020490000000000000000000000000000002000000000000001500000000000003072162000000000000009999123100000010000000000000BRCMIGACNPR3208
012013102878CMIGK20     070CMIG        PN      N1000R$  000000000002500000000000400000000000025000000000003700000000000400000000000030000000000005000011000000000000009900000000000000369000000000000200002013111800000010000000000000BRCMIGACNPR3208
012013102812CNES11B     010FII CENESP  CI  ER  MB   R$  000000001290000000000129300000000012900000000001290000000000129000000000012850000000001309900010000000000000000912000000000011764890000000000000009999123100000010000000000000BRCNESCTF001127
012013102802COCA34      010COCA COLA   DRN          R$  000000000862900000000086290000000008629000000000862900000000086290000000008562000000000890500001000000000000000100000000000000862900000000000000009999123100000010000000000000BRCOCABDR002109
012013102802COCE3       010COELCE      ON           R$  000000000400200000000040300000000003990000000000401200000000040300000000000001000000000403000023000000000000002700000000000010834600000000000000009999123100000010000000000000BRCOCEACNOR0132
012013102802COCE5       010COELCE      PNA          R$  000000000388000000000039430000000003880000000000390900000000038910000000003883000000000390800285000000000000065100000000000254489300000000000000009999123100000010000000000000BRCOCEACNPA3133
012013102896COCE5F      020COELCE      PNA          R$  000000000391700000000039340000000003881000000000390900000000039000000000003880000000000390000019000000000000000390000000000001524763000000000000009999123100000010000000000000BRCOCEACNPA3133
012013102862COCE5T      030COELCE      PNA       091R$  000000000399300000000039940000000003993000000000399300000000039940000000000000000000000000000002000000000000000800000000000003194939000000000000009999123100000010000000000000BRCOCEACNPA3133
012013102896CORR4F      020COR RIBEIRO PN           R$  000000001880000000000188000000000018800000000001880000000000188000000000016000000000001880000001000000000000000002000000000000037600000000000000009999123100000010000000000000BRCORRACNPR7015
012013102802CPFE3       010CPFL ENERGIAON      NM   R$  000000000195600000000019740000000001942000000000195800000000019580000000001957000000000195803022000000000000712200000000001395136100000000000000009999123100000010000000000000BRCPFEACNOR0122
012013102896CPFE3F      020CPFL ENERGIAON      NM   R$  000000000198000000000020200000000001941000000000195800000000019410000000001941000000000197900039000000000000001032000000000002020108000000000000009999123100000010000000000000BRCPFEACNOR0122
012013102862CPFE3T      030CPFL ENERGIAON      NM016R$  000000000197800000000019790000000001978000000000197800000000019790000000000000000000000000000002000000000000007600000000000015037877000000000000009999123100000010000000000000BRCPFEACNOR0122
012013102862CPFE3T      030CPFL ENERGIAON      NM030R$  000000000197100000000019720000000001971000000000197100000000019720000000000000000000000000000002000000000000000600000000000001182654000000000000009999123100000010000000000000BRCPFEACNOR0122
012013102802CPLE3       010COPEL       ON      N1   R$  000000000219000000000022290000000002181000000000219800000000022290000000002201000000000222900125000000000000224700000000000494077700000000000000009999123100000010000000000000BRCPLEACNOR8128
012013102896CPLE3F      020COPEL       ON      N1   R$  000000000215000000000021900000000002149000000000216000000000021900000000002150000000000219000005000000000000000131000000000000283049000000000000009999123100000010000000000000BRCPLEACNOR8128
012013102896CPLE5F      020COPEL       PNA     N1   R$  000000000300100000000030010000000003001000000000300100000000030010000000003000000000000344000001000000000000000009000000000000027009000000000000009999123100000010000000000000BRCPLEACNPA1126
012013102802CPLE6       010COPEL       PNB     N1   R$  000000000304300000000031050000000003043000000000309400000000031000000000003091000000000310001582000000000000563700000000001744577300000000000000009999123100000010000000000000BRCPLEACNPB9125
012013102896CPLE6F      020COPEL       PNB     N1   R$  000000000307500000000031000000000003014000000000307700000000030140000000003037000000000309800008000000000000000136000000000000418501000000000000009999123100000010000000000000BRCPLEACNPB9125
012013102802CPRE3       010CPFL RENOVAVON      NM   R$  000000000137500000000013750000000001344000000000134600000000013440000000001317000000000134300006000000000000007100000000000009562200000000000000009999123100000010000000000000BRCPREACNOR5100
012013102896CPRE3F      020CPFL RENOVAVON      NM   R$  000000000135000000000013650000000001350000000000135600000000013550000000001210000000000136400003000000000000000043000000000000058320000000000000009999123100000010000000000000BRCPREACNOR5100
012013102802CRDE3       010CR2         ON      NM   R$  000000000039300000000004150000000000391000000000040200000000004150000000000407000000000041500035000000000000078500000000000031602400000000000000009999123100000010000000000000BRCRDEACNOR1108
012013102802CREM3       010CREMER      ON      NM   R$  000000000150400000000015340000000001502000000000151500000000015190000000001511000000000156500007000000000000000900000000000001364100000000000000009999123100000010000000000000BRCREMACNOR2167
012013102802CRIV3       010ALFA FINANC ON           R$  000000000053000000000005300000000000500000000000052700000000005000000000000485000000000050000013000000000000114000000000000060160000000000000000009999123100000010000000000000BRCRIVACNOR4190
012013102862CRIV3T      030ALFA FINANC ON        120R$  000000000054600000000005470000000000546000000000054600000000005470000000000000000000000000000004000000000000065000000000000035552400000000000000009999123100000010000000000000BRCRIVACNOR4190
012013102802CRIV4       010ALFA FINANC PN           R$  000000000043400000000004500000000000434000000000044200000000004500000000000435000000000044900002000000000000010000000000000004420000000000000000009999123100000010000000000000BRCRIVACNPR1190
012013102802CRUZ3       010SOUZA CRUZ  ON           R$  000000000249800000000025190000000002489000000000250300000000025120000000002512000000000251503758000000000001137100000000002846306200000000000000009999123100000010000000000000BRCRUZACNOR0248
012013102896CRUZ3F      020SOUZA CRUZ  ON           R$  000000000252600000000025460000000002491000000000250600000000025150000000002490000000000253000041000000000000000965000000000002419243000000000000009999123100000010000000000000BRCRUZACNOR0248
012013102862CRUZ3T      030SOUZA CRUZ  ON        030R$  000000000252100000000025220000000002521000000000252100000000025220000000000000000000000000000002000000000000008000000000000020168122000000000000009999123100000010000000000000BRCRUZACNOR0248
012013102862CRUZ3T      030SOUZA CRUZ  ON        052R$  000000000253800000000025390000000002538000000000253800000000025390000000000000000000000000000002000000000000002000000000000005077176000000000000009999123100000010000000000000BRCRUZACNOR0248
012013102802CSAN3       010COSAN       ON      NM   R$  000000000435500000000044600000000004342000000000442900000000044420000000004442000000000444405050000000000001675000000000007418795100000000000000009999123100000010000000000000BRCSANACNOR6108
012013102896CSAN3F      020COSAN       ON      NM   R$  000000000435000000000044750000000004336000000000443800000000044400000000004440000000000444900043000000000000001503000000000006670048000000000000009999123100000010000000000000BRCSANACNOR6108
012013102862CSAN3T      030COSAN       ON      NM091R$  000000000453900000000045490000000004522000000000453500000000045330000000000000000000000000000030000000000000600000000000002721246552000000000000009999123100000010000000000000BRCSANACNOR6108
012013102878CSAND4      070CSAN        ON      NM000R$  000000000035300000000003530000000000353000000000035300000000003530000000000000000000000000000002000000000000005500000000000001941500000000000445002014042200000010000000000000BRCSANACNOR6108
012013102802CSCO34      010CISCO       DRN          R$  000000000488500000000048850000000004885000000000488500000000048850000000004855000000000493500001000000000000000600000000000002931000000000000000009999123100000010000000000000BRCSCOBDR004111
012013102802CSMG3       010COPASA      ON      NM   R$  000000000362700000000036810000000003614000000000364900000000036610000000003661000000000367101081000000000000192500000000000702491300000000000000009999123100000010000000000000BRCSMGACNOR5128
012013102896CSMG3F      020COPASA      ON      NM   R$  000000000365000000000036990000000003630000000000366300000000036600000000003589000000000369900030000000000000000260000000000000952393000000000000009999123100000010000000000000BRCSMGACNOR5128
012013102814CSMO11      010ISHARES CSMOCI           R$  000000000480300000000048030000000004803000000000480300000000048030000000004700000000000491000001000000000000000010000000000000048030000000000000009999123100000010000000000000BRCSMOCTF002100
012013102802CSNA3       010SID NACIONALON           R$  000000000117200000000012070000000001169000000000119100000000011940000000001194000000000119512900000000000005781400000000006890608800000000000000009999123100000010000000000000BRCSNAACNOR6243
012013102896CSNA3F      020SID NACIONALON           R$  000000000117500000000012040000000001172000000000119000000000011970000000001191000000000120000080000000000000002761000000000003286034000000000000009999123100000010000000000000BRCSNAACNOR6243
012013102862CSNA3T      030SID NACIONALON        060R$  000000000121000000000012110000000001210000000000121000000000012110000000000000000000000000000002000000000000010000000000000012104178000000000000009999123100000010000000000000BRCSNAACNOR6243
012013102862CSNA3T      030SID NACIONALON        091R$  000000000121100000000012120000000001211000000000121100000000012120000000000000000000000000000002000000000000001300000000000001574795000000000000009999123100000010000000000000BRCSNAACNOR6243
012013102878CSNAA39     070CSNAE       ON        000R$  000000000028800000000002900000000000288000000000028900000000002900000000000000000000000000000007000000000000016700000000000004836400000000000093002014012000000010000000000000BRCSNAACNOR6242
012013102878CSNAA96     070CSNA        ON        000R$  000000000026200000000002620000000000262000000000026200000000002620000000000000000000000000000001000000000000002000000000000000524000000000000096002014012000000010000000000000BRCSNAACNOR6243
012013102878CSNAK11     070CSNA        ON        000R$  000000000011600000000001250000000000111000000000011600000000001200000000000052000000000000000014000000000000005000000000000000582000000000000110002013111800000010000000000000BRCSNAACNOR6243
012013102878CSNAK12     070CSNA  FM    ON        000R$  000000000004800000000000560000000000047000000000005100000000000500000000000046000000000005300019000000000000029400000000000001513500000000000120002013111800000010000000000000BRCSNAACNOR6243
012013102878CSNAK13     070CSNA  FM    ON        000R$  000000000001500000000000200000000000015000000000001700000000000160000000000014000000000008900016000000000000034200000000000000612100000000000130002013111800000010000000000000BRCSNAACNOR6243
012013102878CSNAK14     070CSNA        ON        000R$  000000000000300000000000050000000000003000000000000400000000000050000000000004000000000000000002000000000000005000000000000000020000000000000140002013111800000010000000000000BRCSNAACNOR6243
012013102878CSNAK41     070CSNA  FM    ON        000R$  000000000007900000000000860000000000076000000000008000000000000790000000000000000000000000000005000000000000009900000000000000801300000000000115002013111800000010000000000000BRCSNAACNOR6243
012013102878CSNAK42     070CSNA  FM    ON        000R$  000000000002400000000000280000000000024000000000002400000000000280000000000000000000000000000004000000000000012000000000000000296000000000000125002013111800000010000000000000BRCSNAACNOR6243
012013102878CSNAK43     070CSNA  FM    ON        000R$  000000000001000000000000100000000000008000000000000900000000000080000000000000000000000000000007000000000000019500000000000000185500000000000135002013111800000010000000000000BRCSNAACNOR6243
012013102878CSNAK92     070CSNA        ON        000R$  000000000028000000000002800000000000280000000000028000000000002800000000000000000000000000000007000000000000016700000000000004676000000000000092002013111800000010000000000000BRCSNAACNOR6243
012013102878CSNAK96     070CSNA        ON        000R$  000000000024200000000002420000000000242000000000024200000000002420000000000000000000000000000001000000000000002000000000000000484000000000000096002013111800000010000000000000BRCSNAACNOR6243
012013102878CSNAL10     070CSNA        ON        000R$  000000000023000000000002300000000000230000000000023000000000002300000000000000000000000000000001000000000000001000000000000000230000000000000100002013121600000010000000000000BRCSNAACNOR6243
012013102878CSNAL12     070CSNA  FM    ON        000R$  000000000010700000000001160000000000103000000000011000000000001030000000000065000000000000000013000000000000023300000000000002571700000000000114702013121600000010000000000000BRCSNAACNOR6241
012013102878CSNAL13     070CSNA  FM    ON        000R$  000000000004300000000000430000000000035000000000003800000000000350000000000000000000000004500003000000000000003300000000000000127900000000000130002013121600000010000000000000BRCSNAACNOR6243
012013102878CSNAL43     070CSNA  FM    ON        000R$  000000000002700000000000270000000000027000000000002700000000000270000000000008000000000000000002000000000000007000000000000000189000000000000135002013121600000010000000000000BRCSNAACNOR6243
012013102882CSNAM11     080CSNAE       ON        000R$  000000000006500000000000650000000000065000000000006500000000000650000000000025000000000000000001000000000000016000000000000001040000000000000110002014012000000010000000000000BRCSNAACNOR6243
012013102882CSNAW11     080CSNAE FM    ON        000R$  000000000001700000000000200000000000017000000000001700000000000180000000000015000000000001800020000000000000060400000000000001077600000000000110002013111800000010000000000000BRCSNAACNOR6243
012013102882CSNAW12     080CSNAE FM    ON        000R$  000000000005500000000000550000000000050000000000005100000000000550000000000000000000000006000005000000000000004900000000000000250500000000000120002013111800000010000000000000BRCSNAACNOR6243
012013102882CSNAW41     080CSNAE FM    ON        000R$  000000000003300000000000330000000000033000000000003300000000000330000000000000000000000000000001000000000000000800000000000000026400000000000115002013111800000010000000000000BRCSNAACNOR6243
012013102882CSNAW42     080CSNAE FM    ON        000R$  000000000007700000000000870000000000077000000000008200000000000820000000000000000000000000000009000000000000024900000000000002051500000000000125002013111800000010000000000000BRCSNAACNOR6243
012013102882CSNAX11     080CSNAE       ON        000R$  000000000002200000000000250000000000019000000000002100000000000250000000000017000000000002500031000000000000046600000000000000997000000000000104702013121600000010000000000000BRCSNAACNOR6241
012013102882CSNAX12     080CSNAE FM    ON        000R$  000000000005100000000000540000000000049000000000005100000000000540000000000047000000000006300016000000000000035700000000000001846600000000000114702013121600000010000000000000BRCSNAACNOR6241
012013102882CSNAX2      080CSNAE FM    ON        000R$  000000000010300000000001060000000000103000000000010400000000001060000000000000000000000000000006000000000000014400000000000001504800000000000125002013121600000010000000000000BRCSNAACNOR6243
012013102882CSNAX41     080CSNAE FM    ON        000R$  000000000003700000000000370000000000037000000000003700000000000370000000000000000000000000000002000000000000002800000000000000103600000000000110002013121600000010000000000000BRCSNAACNOR6243
012013102882CSNAX42     080CSNAE FM    ON        000R$  000000000007200000000000770000000000072000000000007300000000000770000000000000000000000000000004000000000000014800000000000001082400000000000119702013121600000010000000000000BRCSNAACNOR6241
012013102802CTAX11      010CONTAX      UNT     N2   R$  000000000187900000000018870000000001847000000000185400000000018870000000001841000000000188700048000000000000095600000000000177324300000000000000009999123100000010000000000000BRCTAXCDAM19100
012013102802CTAX3       010CONTAX      ON      N2   R$  000000000038300000000003950000000000383000000000038800000000003940000000000321000000000039400009000000000000002000000000000000776300000000000000009999123100000010000000000000BRCTAXACNOR3113
012013102802CTAX4       010CONTAX      PN      N2   R$  000000000036000000000003720000000000357000000000036300000000003700000000000369000000000037000043000000000000011800000000000004289900000000000000009999123100000010000000000000BRCTAXACNPR0114
012013102802CTIP3       010CETIP       ON      NM   R$  000000000244800000000024770000000002437000000000246200000000024740000000002468000000000247604154000000000001562500000000003847040400000000000000009999123100000010000000000000BRCTIPACNOR2120
012013102896CTIP3F      020CETIP       ON      NM   R$  000000000246100000000025500000000002431000000000246400000000024720000000002453000000000247200027000000000000000521000000000001283950000000000000009999123100000010000000000000BRCTIPACNOR2120
012013102862CTIP3T      030CETIP       ON      NM030R$  000000000247000000000024710000000002470000000000247000000000024710000000000000000000000000000002000000000000004000000000000009882646000000000000009999123100000010000000000000BRCTIPACNOR2120
012013102802CTKA4       010KARSTEN     PN           R$  000000000009600000000000960000000000096000000000009600000000000960000000000095000000000009700001000000000000150000000000000014400000000000000000009999123100000010000000000000BRCTKAACNPR7041
012013102862CTKA4T      030KARSTEN     PN        091R$  000000000009800000000000990000000000098000000000009800000000000990000000000000000000000000000002000000000000150000000000000014708160000000000000009999123100000010000000000000BRCTKAACNPR7041
012013102896CTSA3F      020SANTANENSE  ON           R$  000000000054700000000005470000000000547000000000054700000000005470000000000522000000000054700001000000000000000030000000000000016410000000000000009999123100000010000000000000BRCTSAACNOR3051
012013102802CTSA4       010SANTANENSE  PN           R$  000000000056500000000005650000000000565000000000056500000000005650000000000550000000000056500003000000000000000400000000000000226000000000000000009999123100000010000000000000BRCTSAACNPR0051
012013102812CXCE11B     010FII CX CEDAECI      MB   R$  000000019340000000001934000000000193000000000019314200000001930000000000192300000000019345000002000000000000000014000000000002704000000000000000009999123100000010000000000000BRCXCECTF004139
012013102812CXTL11      010FII CX TRX  CI           R$  000000007250000000000728000000000072500000000007278100000000728000000000072100000000007280000003000000000000000032000000000002329000000000000000009999123100000010000000000000BRCXTLCTF003123
012013102802CYRE3       010CYRELA REALTON      NM   R$  000000000167600000000016970000000001675000000000168200000000016750000000001675000000000167908122000000000002144400000000003608642300000000000000009999123100000010000000000000BRCYREACNOR7125
012013102896CYRE3F      020CYRELA REALTON      NM   R$  000000000169000000000016990000000001671000000000168400000000016820000000001670000000000168800022000000000000000511000000000000860908000000000000009999123100000010000000000000BRCYREACNOR7125
012013102878CYREK17     070CYRE  FM    ON      NM000R$  000000000004300000000000430000000000037000000000004100000000000370000000000000000000000000000004000000000000008900000000000000369500000000000170002013111800000010000000000000BRCYREACNOR7125
012013102878CYREK18     070CYRE  FM    ON      NM000R$  000000000000800000000000080000000000008000000000000800000000000080000000000000000000000000000008000000000000009000000000000000072000000000000180002013111800000010000000000000BRCYREACNOR7125
012013102878CYREK46     070CYRE  FM    ON      NM000R$  000000000007000000000000770000000000070000000000007400000000000770000000000000000000000000000005000000000000004600000000000000341700000000000165002013111800000010000000000000BRCYREACNOR7125
012013102878CYREK48     070CYRE  FM    ON      NM000R$  000000000000300000000000030000000000003000000000000300000000000030000000000000000000000000000001000000000000003000000000000000009000000000000185002013111800000010000000000000BRCYREACNOR7125
012013102878CYREL17     070CYRE  FM    ON      NM000R$  000000000010400000000001050000000000102000000000010300000000001050000000000000000000000000000004000000000000011800000000000001227000000000000165002013121600000010000000000000BRCYREACNOR7124
012013102878CYREL18     070CYRE  FM    ON      NM000R$  000000000003100000000000310000000000030000000000003000000000000300000000000000000000000003600002000000000000004000000000000000123000000000000180002013121600000010000000000000BRCYREACNOR7125
012013102878CYREL58     070CYREE       ON      NM000R$  000000000002300000000000230000000000023000000000002300000000000230000000000000000000000000000002000000000000055000000000000001265000000000000182502013121600000010000000000000BRCYREACNOR7125
012013102882CYREW46     080CYREE FM    ON      NM000R$  000000000003000000000000300000000000030000000000003000000000000300000000000000000000000000000002000000000000001800000000000000054000000000000165002013111800000010000000000000BRCYREACNOR7125
012013102882CYREX16     080CYREE FM    ON      NM000R$  000000000003200000000000320000000000032000000000003200000000000320000000000000000000000000000001000000000000055000000000000001760000000000000160002013121600000010000000000000BRCYREACNOR7125
012013102882CYREX47     080CYREE FM    ON      NM000R$  000000000009200000000000920000000000091000000000009100000000000910000000000000000000000000000002000000000000006000000000000000549000000000000175002013121600000010000000000000BRCYREACNOR7125
