00COTAHIST.2013BOVESPA 20131001                                                                                                                                                                                                                      
012013100102AAPL34      010APPLE       DRN          R$  000000001080000000000108000000000010800000000001080000000000108000000000010800000000001094500001000000000000000700000000000007560000000000000000009999123100000010000000000000BRAAPLBDR004105
012013100102ABCB4       010ABC BRASIL  PN      N2   R$  000000000130300000000013030000000001286000000000129400000000012960000000001295000000000130000615000000000000193500000000000250491200000000000000009999123100000010000000000000BRABCBACNPR4120
012013100196ABCB4F      020ABC BRASIL  PN      N2   R$  000000000131600000000013400000000001292000000000129700000000012990000000001299000000000130000027000000000000000608000000000000789048000000000000009999123100000010000000000000BRABCBACNPR4120
012013100112ABCP11      010FII ABC IMOBCI  ER       R$  000000000100000000000010000000000001000000000000100000000000010000000000000950000000000099600001000000000000003000000000000003000000000000000000009999123100000010000000000000BRABCPCTF000216
012013100102ABRE11      010ABRIL EDUCA UNT     N2   R$  000000000336700000000033670000000003242000000000327000000000032700000000003270000000000328600563000000000000206800000000000676384900000000000000009999123100000010000000000000BRABRECDAM15102
012013100196ABRE11F     020ABRIL EDUCA UNT     N2   R$  000000000328000000000032800000000003200000000000324100000000032000000000003200000000000349600006000000000000000057000000000000184761000000000000009999123100000010000000000000BRABRECDAM15102
012013100162ABRE11T     030ABRIL EDUCA UNT     N2030R$  000000000328400000000032850000000003284000000000328400000000032850000000000000000000000000000002000000000000001000000000000003284124000000000000009999123100000010000000000000BRABRECDAM15102
012013100102AEDU3       010ANHANGUERA  ON      NM   R$  000000000132700000000013300000000001304000000000131100000000013150000000001315000000000131704755000000000002760100000000003618736200000000000000009999123100000010000000000000BRAEDUACNOR9107
012013100196AEDU3F      020ANHANGUERA  ON      NM   R$  000000000132600000000013500000000001293000000000131800000000012980000000001298000000000131000038000000000000001108000000000001460788000000000000009999123100000010000000000000BRAEDUACNOR9107
012013100162AEDU3T      030ANHANGUERA  ON      NM030R$  000000000132500000000013260000000001325000000000132500000000013260000000000000000000000000000002000000000000002000000000000002651477000000000000009999123100000010000000000000BRAEDUACNOR9107
012013100162AEDU3T      030ANHANGUERA  ON      NM181R$  000000000137800000000013790000000001378000000000137800000000013790000000000000000000000000000002000000000000001600000000000002206254000000000000009999123100000010000000000000BRAEDUACNOR9107
012013100112AEFI11      010FII AESAPAR CI  ER       R$  000000001197000000000120780000000011920000000001196900000000119500000000011950000000001207800022000000000000000856000000000010246244000000000000009999123100000010000000000000BRAEFICTF002122
012013100102AELP3       010AES ELPA    ON           R$  000000000106900000000010690000000000950000000000105700000000009540000000000932000000000095400012000000000000015800000000000016707200000000000000009999123100000010000000000000BRAELPACNOR2119
012013100196AELP3F      020AES ELPA    ON           R$  000000000092500000000009250000000000920000000000092400000000009200000000000920000000000110000002000000000000000011000000000000010170000000000000009999123100000010000000000000BRAELPACNOR2119
012013100162AELP3T      030AES ELPA    ON        062R$  000000000108500000000010860000000001085000000000108500000000010860000000000000000000000000000002000000000000013500000000000014656631000000000000009999123100000010000000000000BRAELPACNOR2119
012013100102AFLU3       010AFLUENTE    ON           R$  000000000049000000000004900000000000490000000000049000000000004900000000000000000000000000000001000000000000000300000000000000147000000000000000009999123100000010000000000000BRAFLUACNOR9117
012013100196AFLU3F      020AFLUENTE    ON           R$  000000000045000000000004500000000000450000000000045000000000004500000000000450000000000000000002000000000000000050000000000000022500000000000000009999123100000010000000000000BRAFLUACNOR9117
012013100112AGCX11      010FII AG CAIXACI  ER       R$  000000009599500000000959950000000095800000000009590600000000958000000000094200000000009580000003000000000000000011000000000001054970000000000000009999123100000010000000000000BRAGCXCTF003111
012013100102AGRO3       010BRASILAGRO  ON      NM   R$  000000000098200000000010170000000000980000000000099000000000010090000000001000000000000101600095000000000000014100000000000013964500000000000000009999123100000010000000000000BRAGROACNOR7102
012013100102ALLL3       010ALL AMER LATON      NM   R$  000000000088800000000009040000000000881000000000089300000000008960000000000892000000000089604818000000000001596000000000001425426400000000000000009999123100000010000000000000BRALLLACNOR6118
012013100196ALLL3F      020ALL AMER LATON      NM   R$  000000000088100000000009060000000000881000000000089400000000008990000000000899000000000090700157000000000000004282000000000003830751000000000000009999123100000010000000000000BRALLLACNOR6118
012013100112ALMI11B     010FII TORRE ALCI  ER  MB   R$  000000031000000000003100040000000310000000000031000000000003100030000000310003000000031190000005000000000000000053000000000016430007000000000000009999123100000010000000000000BRALMICTF003206
012013100102ALPA4       010ALPARGATAS  PN      N1   R$  000000000144000000000014490000000001422000000000143600000000014490000000001435000000000144901018000000000000310900000000000446708300000000000000009999123100000010000000000000BRALPAACNPR7203
012013100196ALPA4F      020ALPARGATAS  PN      N1   R$  000000000143000000000014400000000001428000000000143100000000014300000000001428000000000144000021000000000000000476000000000000681377000000000000009999123100000010000000000000BRALPAACNPR7203
012013100178ALPAK54     070ALPAE       PN      N1000R$  000000000002500000000000250000000000025000000000002500000000000250000000000000000000000000000001000000000000019400000000000000485000000000000147502013111800000010000000000000BRALPAACNPR7203
012013100102ALSC3       010ALIANSCE    ON      NM   R$  000000000198700000000020070000000001975000000000199700000000019990000000001993000000000199900938000000000000289500000000000578140100000000000000009999123100000010000000000000BRALSCACNOR0104
012013100196ALSC3F      020ALIANSCE    ON      NM   R$  000000000208300000000020830000000001901000000000198700000000020050000000002000000000000211500007000000000000000283000000000000562519000000000000009999123100000010000000000000BRALSCACNOR0104
012013100102ALUP11      010ALUPAR      UNT     N2   R$  000000000175900000000017590000000001716000000000173300000000017210000000001721000000000172300352000000000000193400000000000335229600000000000000009999123100000010000000000000BRALUPCDAM15100
012013100196ALUP11F     020ALUPAR      UNT     N2   R$  000000000173000000000017970000000001715000000000174600000000017150000000001715000000000179900041000000000000001029000000000001796792000000000000009999123100000010000000000000BRALUPCDAM15100
012013100162ALUP11T     030ALUPAR      UNT     N2030R$  000000000173500000000017360000000001735000000000173500000000017360000000000000000000000000000002000000000000006000000000000010413771000000000000009999123100000010000000000000BRALUPCDAM15100
012013100102AMAR3       010LOJAS MARISAON      NM   R$  000000000210000000000021420000000002081000000000210700000000021000000000002099000000000210001885000000000000474400000000000999884700000000000000009999123100000010000000000000BRAMARACNOR4109
012013100196AMAR3F      020LOJAS MARISAON      NM   R$  000000000210500000000021050000000002105000000000210500000000021050000000002080000000000229000002000000000000000055000000000000115775000000000000009999123100000010000000000000BRAMARACNOR4109
012013100102AMBV3       010AMBEV       ON           R$  000000000856100000000085640000000008367000000000848900000000085320000000008532000000000855900982000000000000155000000000001315901100000000000000009999123100000010000000000000BRAMBVACNOR4154
012013100196AMBV3F      020AMBEV       ON           R$  000000000846800000000085890000000008384000000000846200000000085850000000008533000000000859000090000000000000002033000000000017203845000000000000009999123100000010000000000000BRAMBVACNOR4154
012013100162AMBV3T      030AMBEV       ON        016R$  000000000858700000000085880000000008587000000000858700000000085880000000000000000000000000000002000000000000001000000000000008587620000000000000009999123100000010000000000000BRAMBVACNOR4154
012013100102AMBV4       010AMBEV       PN           R$  000000000860000000000086000000000008390000000000847900000000085620000000008557000000000856206476000000000001266200000000010736972700000000000000009999123100000010000000000000BRAMBVACNPR1154
012013100196AMBV4F      020AMBEV       PN           R$  000000000856000000000085600000000008393000000000847000000000085300000000008490000000000853000215000000000000005008000000000042422884000000000000009999123100000010000000000000BRAMBVACNPR1154
012013100162AMBV4S      030AMBEV       PN        090R$  000000000869000000000086910000000008690000000000869000000000086910000000000000000000000000000002000000000000000200000000000001738143000000000000009999123100000010000000000000BRAMBVACNPR1154
012013100162AMBV4T      030AMBEV       PN        090R$  000000000865700000000086580000000008657000000000865700000000086580000000000000000000000000000006000000000000006000000000000051943392000000000000009999123100000010000000000000BRAMBVACNPR1154
012013100162AMBV4T      030AMBEV       PN        016R$  000000000858300000000085840000000008583000000000858300000000085840000000000000000000000000000002000000000000002800000000000024034506000000000000009999123100000010000000000000BRAMBVACNPR1154
012013100162AMBV4T      030AMBEV       PN        030R$  000000000848700000000084880000000008465000000000848300000000084660000000000000000000000000000004000000000000001200000000000010180516000000000000009999123100000010000000000000BRAMBVACNPR1154
012013100162AMBV4T      030AMBEV       PN        062R$  000000000855000000000085510000000008517000000000853000000000085390000000000000000000000000000008000000000000005000000000000042652402000000000000009999123100000010000000000000BRAMBVACNPR1154
012013100162AMBV4T      030AMBEV       PN        065R$  000000000870600000000087070000000008706000000000870600000000087070000000000000000000000000000002000000000000010000000000000087066978000000000000009999123100000010000000000000BRAMBVACNPR1154
012013100178AMBVJ89     070AMBV        PN        000R$  000000000003600000000000360000000000036000000000003600000000000360000000000030000000000000000002000000000000000700000000000000025200000000000883502013102100000010000000000000BRAMBVACNPR1153
012013100178AMBVJ90     070AMBV        PN        000R$  000000000004200000000000420000000000040000000000004000000000000400000000000000000000000009900002000000000000000700000000000000028200000000000893502013102100000010000000000000BRAMBVACNPR1153
012013100178AMBVK88     070AMBV        PN        000R$  000000000010500000000001400000000000105000000000012800000000001330000000000000000000000000000006000000000000019900000000000002562000000000000880002013111800000010000000000000BRAMBVACNPR1154
012013100178AMBVK89     070AMBV        PN        000R$  000000000010000000000001400000000000100000000000012000000000001400000000000000000000000000000002000000000000000200000000000000024000000000000883502013111800000010000000000000BRAMBVACNPR1153
012013100182AMBVW81     080AMBVE       PN        000R$  000000000009600000000000960000000000069000000000008300000000000690000000000000000000000000000005000000000000012500000000000001039200000000000810002013111800000010000000000000BRAMBVACNPR1154
012013100102ARTR3       010ARTERIS     ON      NM   R$  000000000197000000000019880000000001922000000000195200000000019750000000001970000000000197501431000000000000382500000000000746724100000000000000009999123100000010000000000000BRARTRACNOR3101
012013100196ARTR3F      020ARTERIS     ON      NM   R$  000000000197900000000019850000000001920000000000195700000000019850000000001961000000000198900078000000000000002114000000000004137775000000000000009999123100000010000000000000BRARTRACNOR3101
012013100162ARTR3T      030ARTERIS     ON      NM030R$  000000000194800000000019500000000001948000000000194900000000019500000000000000000000000000000004000000000000005200000000000010136257000000000000009999123100000010000000000000BRARTRACNOR3101
012013100102ARZZ3       010AREZZO CO   ON      NM   R$  000000000389700000000039020000000003807000000000386600000000038500000000003850000000000385500956000000000000180200000000000696780300000000000000009999123100000010000000000000BRARZZACNOR3109
012013100196ARZZ3F      020AREZZO CO   ON      NM   R$  000000000391900000000039190000000003811000000000386000000000039000000000003850000000000390000021000000000000000532000000000002053835000000000000009999123100000010000000000000BRARZZACNOR3109
012013100102AUTM3       010AUTOMETAL   ON      NM   R$  000000000186400000000018640000000001834000000000185000000000018550000000001855000000000185600271000000000000054200000000000100322300000000000000009999123100000010000000000000BRAUTMACNOR8109
012013100196AUTM3F      020AUTOMETAL   ON      NM   R$  000000000189900000000018990000000001847000000000188000000000018470000000001770000000000189800002000000000000000086000000000000161754000000000000009999123100000010000000000000BRAUTMACNOR8109
012013100102AXPB34      010AMERICAN EXPDRN          R$  000000001672500000000168070000000016725000000001672800000000168070000000000000000000000000000002000000000000007500000000000125462100000000000000009999123100000010000000000000BRAXPBBDR007105
012013100102AZEV4       010AZEVEDO     PN           R$  000000000012600000000001260000000000125000000000012500000000001250000000000120000000000012500002000000000000003400000000000000426500000000000000009999123100000010000000000000BRAZEVACNPR7113
012013100102BAHI3       010BAHEMA      ON           R$  000000000050000000000005000000000000490000000000049100000000004900000000000486000000000049500004000000000000001700000000000000835000000000000000009999123100000010000000000000BRBAHIACNOR1066
012013100102BALM4       010BAUMER      PN           R$  000000000950000000000095000000000009500000000000950000000000095000000000009200000000000960000002000000000000000200000000000001900000000000000000009999123100000010000000000000BRBALMACNPR2043
012013100102BAUH4       010EXCELSIOR   PN           R$  000000000090000000000009000000000000900000000000090000000000009000000000000830000000000090000001000000000000000900000000000000810000000000000000009999123100000010000000000000BRBAUHACNPR3108
012013100102BAZA3       010AMAZONIA    ON           R$  000000000003300000000000330000000000033000000000003300000000000330000000000032000000000003300003000000000000022000000000000000726000000000000000009999123100000010000000000000BRBAZAACNOR0163
012013100196BAZA3F      020AMAZONIA    ON           R$  000000000003100000000000310000000000031000000000003100000000000310000000000031000000000003500001000000000000000060000000000000001860000000000000009999123100000010000000000000BRBAZAACNOR0163
012013100102BBAS3       010BRASIL      ON      NM   R$  000000000261000000000026120000000002556000000000259000000000026090000000002608000000000260909045000000000003821000000000009899337600000000000000009999123100000010000000000000BRBBASACNOR3239
012013100196BBAS3F      020BRASIL      ON      NM   R$  000000000256400000000026100000000002560000000000258500000000026000000000002591000000000260000284000000000000009413000000000024340574000000000000009999123100000010000000000000BRBBASACNOR3239
012013100162BBAS3T      030BRASIL      ON      NM030R$  000000000260500000000026120000000002605000000000260800000000026120000000000000000000000000000006000000000000002000000000000005216836000000000000009999123100000010000000000000BRBBASACNOR3239
012013100178BBASJ22     070BBAS        ON      NM000R$  000000000058000000000005800000000000580000000000058000000000005800000000000111000000000000000001000000000000000400000000000000232000000000000209502013102100000010000000000000BRBBASACNOR3237
012013100178BBASJ23     070BBAS        ON      NM000R$  000000000042000000000004200000000000420000000000042000000000004200000000000406000000000000000001000000000000005000000000000002100000000000000216102013102100000010000000000000BRBBASACNOR3235
012013100178BBASJ24     070BBAS        ON      NM000R$  000000000033300000000003500000000000333000000000034400000000003500000000000305000000000038000002000000000000003000000000000001033000000000000227102013102100000010000000000000BRBBASACNOR3236
012013100178BBASJ25     070BBAS  FM    ON      NM000R$  000000000021500000000002340000000000188000000000021400000000002340000000000215000000000030200168000000000000293700000000000062897500000000000239502013102100000010000000000000BRBBASACNOR3237
012013100178BBASJ26     070BBAS  FM    ON      NM000R$  000000000013800000000001780000000000132000000000015100000000001780000000000178000000000018200074000000000000100700000000000015296800000000000246102013102100000010000000000000BRBBASACNOR3235
012013100178BBASJ27     070BBAS  FM    ON      NM000R$  000000000006900000000000930000000000065000000000007700000000000930000000000061000000000009500066000000000000076300000000000005916000000000000256102013102100000010000000000000BRBBASACNOR3235
012013100178BBASJ28     070BBAS  FM    ON      NM000R$  000000000002700000000000280000000000016000000000002100000000000260000000000020000000000002600095000000000000159600000000000003474600000000000269502013102100000010000000000000BRBBASACNOR3237
012013100178BBASJ29     070BBAS  FM    ON      NM000R$  000000000000900000000000090000000000008000000000000800000000000090000000000012000000000001400007000000000000011200000000000000099600000000000276102013102100000010000000000000BRBBASACNOR3235
012013100178BBASJ30     070BBAS        ON      NM000R$  000000000000300000000000040000000000002000000000000200000000000040000000000002000000000000600007000000000000052700000000000000128100000000000286102013102100000010000000000000BRBBASACNOR3235
012013100178BBASJ56     070BBAS        ON      NM000R$  000000000009800000000001250000000000098000000000010700000000001250000000000000000000000000000007000000000000004100000000000000440600000000000251102013102100000010000000000000BRBBASACNOR3235
012013100178BBASJ65     070BBAS        ON      NM000R$  000000000003400000000000340000000000034000000000003400000000000340000000000000000000000000000001000000000000003300000000000000112200000000000265002013102100000010000000000000BRBBASACNOR3239
012013100178BBASK24     070BBAS        ON      NM000R$  000000000033000000000003400000000000325000000000033200000000003310000000000280000000000000000020000000000000017000000000000005647000000000000229502013111800000010000000000000BRBBASACNOR3237
012013100178BBASK25     070BBAS  FM    ON      NM000R$  000000000024600000000002810000000000246000000000026000000000002810000000000000000000000000000079000000000000119200000000000030998500000000000237102013111800000010000000000000BRBBASACNOR3236
012013100178BBASK26     070BBAS  FM    ON      NM000R$  000000000016900000000001990000000000169000000000018100000000001990000000000100000000000021500030000000000000056400000000000010255200000000000247102013111800000010000000000000BRBBASACNOR3236
012013100178BBASK27     070BBAS  FM    ON      NM000R$  000000000010800000000001230000000000108000000000011900000000001220000000000045000000000000000031000000000000017200000000000002046900000000000257102013111800000010000000000000BRBBASACNOR3236
012013100178BBASK28     070BBAS  FM    ON      NM000R$  000000000005500000000000750000000000055000000000006700000000000750000000000069000000000008000018000000000000028600000000000001934800000000000267102013111800000010000000000000BRBBASACNOR3236
012013100178BBASK29     070BBAS  FM    ON      NM000R$  000000000002200000000000310000000000022000000000002600000000000310000000000025000000000004000025000000000000024300000000000000647300000000000279502013111800000010000000000000BRBBASACNOR3237
012013100178BBASK56     070BBAS        ON      NM000R$  000000000009200000000000920000000000090000000000009000000000000900000000000000000000000000000005000000000000008300000000000000749400000000000262302013111800000010000000000000BRBBASACNOR3238
012013100178BBASL25     070BBAS        ON      NM000R$  000000000029500000000002950000000000295000000000029500000000002950000000000000000000000000000001000000000000000400000000000000118000000000000236102013121600000010000000000000BRBBASACNOR3235
012013100178BBASL26     070BBAS        ON      NM000R$  000000000022000000000002210000000000220000000000022000000000002210000000000016000000000000000002000000000000000200000000000000044100000000000246102013121600000010000000000000BRBBASACNOR3235
012013100178BBASL27     070BBAS        ON      NM000R$  000000000012800000000001330000000000128000000000013000000000001290000000000016000000000000000011000000000000008000000000000001040500000000000259502013121600000010000000000000BRBBASACNOR3237
012013100178BBASL28     070BBAS        ON      NM000R$  000000000007900000000000910000000000079000000000008600000000000870000000000016000000000000000016000000000000007200000000000000625700000000000269502013121600000010000000000000BRBBASACNOR3237
012013100178BBASL29     070BBAS        ON      NM000R$  000000000005800000000000650000000000058000000000006200000000000620000000000054000000000000000021000000000000011500000000000000720600000000000276102013121600000010000000000000BRBBASACNOR3235
012013100178BBASL30     070BBAS        ON      NM000R$  000000000001600000000000170000000000016000000000001600000000000170000000000012000000000000000003000000000000007000000000000000116000000000000300002013121600000010000000000000BRBBASACNOR3239
012013100178BBASL59     070BBAS        ON      NM000R$  000000000002100000000000240000000000021000000000002200000000000240000000000000000000000000000006000000000000018000000000000000405000000000000295002013121600000010000000000000BRBBASACNOR3239
012013100178BBASL60     070BBAS        ON      NM000R$  000000000003100000000000330000000000031000000000003100000000000330000000000014000000000000000077000000000000601600000000000019054600000000000286202013121600000010000000000000BRBBASACNOR3233
012013100182BBASV25     080BBASE FM    ON      NM000R$  000000000001400000000000140000000000006000000000000900000000000080000000000000000000000000900021000000000000031100000000000000300300000000000239502013102100000010000000000000BRBBASACNOR3237
012013100182BBASV26     080BBASE FM    ON      NM000R$  000000000002000000000000220000000000013000000000001600000000000130000000000001000000000001300021000000000000070900000000000001148800000000000246102013102100000010000000000000BRBBASACNOR3235
012013100182BBASV27     080BBASE FM    ON      NM000R$  000000000005600000000000570000000000036000000000004500000000000370000000000012000000000005000065000000000000058800000000000002653400000000000256102013102100000010000000000000BRBBASACNOR3235
012013100182BBASV28     080BBASE       ON      NM000R$  000000000013000000000001310000000000107000000000012500000000001070000000000000000000000000000003000000000000001300000000000000162600000000000269502013102100000010000000000000BRBBASACNOR3237
012013100182BBASV29     080BBASE       ON      NM000R$  000000000018500000000001850000000000185000000000018500000000001850000000000000000000000000000001000000000000000500000000000000092500000000000276102013102100000010000000000000BRBBASACNOR3235
012013100182BBASW24     080BBASE FM    ON      NM000R$  000000000001400000000000140000000000014000000000001400000000000140000000000006000000000002000004000000000000006300000000000000088200000000000229502013111800000010000000000000BRBBASACNOR3237
012013100182BBASW25     080BBASE FM    ON      NM000R$  000000000002300000000000230000000000023000000000002300000000000230000000000000000000000000000011000000000000017600000000000000404800000000000237102013111800000010000000000000BRBBASACNOR3236
012013100182BBASW26     080BBASE FM    ON      NM000R$  000000000005200000000000520000000000043000000000004500000000000430000000000037000000000000000004000000000000007100000000000000324200000000000247102013111800000010000000000000BRBBASACNOR3236
012013100182BBASW27     080BBASE FM    ON      NM000R$  000000000008900000000000890000000000074000000000008200000000000740000000000000000000000000000005000000000000009600000000000000792600000000000257102013111800000010000000000000BRBBASACNOR3236
012013100182BBASW28     080BBASE       ON      NM000R$  000000000013400000000001340000000000116000000000012400000000001160000000000000000000000012800009000000000000011000000000000001364000000000000267102013111800000010000000000000BRBBASACNOR3236
012013100102BBDC3       010BRADESCO    ON      N1   R$  000000000351400000000035240000000003430000000000349600000000035000000000003499000000000350003792000000000000936400000000003274081500000000000000009999123100000010000000000000BRBBDCACNOR1606
012013100196BBDC3F      020BRADESCO    ON      N1   R$  000000000348000000000035540000000003409000000000348400000000034630000000003463000000000351000132000000000000003125000000000010889493000000000000009999123100000010000000000000BRBBDCACNOR1606
012013100102BBDC4       010BRADESCO    PN      N1   R$  000000000306000000000030910000000003011000000000306900000000030860000000003086000000000308712196000000000005302900000000016279868300000000000000009999123100000010000000000000BRBBDCACNPR8606
012013100196BBDC4F      020BRADESCO    PN      N1   R$  000000000304200000000030890000000003022000000000306500000000030830000000003072000000000308300421000000000000007185000000000022030530000000000000009999123100000010000000000000BRBBDCACNPR8606
012013100162BBDC4T      030BRADESCO    PN      N1016R$  000000000305500000000031000000000003055000000000309600000000031000000000000000000000000000000004000000000000008300000000000025701844000000000000009999123100000010000000000000BRBBDCACNPR8606
012013100162BBDC4T      030BRADESCO    PN      N1030R$  000000000305700000000031120000000003057000000000307300000000031120000000000000000000000000000006000000000000004700000000000014447187000000000000009999123100000010000000000000BRBBDCACNPR8606
012013100162BBDC4T      030BRADESCO    PN      N1090R$  000000000315600000000031570000000003156000000000315600000000031570000000000000000000000000000002000000000000002200000000000006943315000000000000009999123100000010000000000000BRBBDCACNPR8606
012013100178BBDCC6      070BBDC        PN      N1000R$  000000000017600000000001760000000000176000000000017600000000001760000000000000000000000000000001000000000000001200000000000000211200000000000324302014031700000010000000000000BRBBDCACNPR8598
012013100178BBDCJ1      070BBDC        PN      N1000R$  000000000004100000000000500000000000041000000000004500000000000500000000000000000000000000000002000000000000001000000000000000045500000000000314402013102100000010000000000000BRBBDCACNPR8603
012013100178BBDCJ2      070BBDC        PN      N1000R$  000000000001100000000000120000000000011000000000001100000000000120000000000000000000000000000005000000000000016100000000000000178600000000000324402013102100000010000000000000BRBBDCACNPR8603
012013100178BBDCJ29     070BBDC        PN      N1000R$  000000000023500000000002350000000000221000000000022900000000002210000000000185000000000026000033000000000000026200000000000006006600000000000287602013102100000010000000000000BRBBDCACNPR8602
012013100178BBDCJ30     070BBDC        PN      N1000R$  000000000011100000000001550000000000109000000000014200000000001550000000000145000000000017000127000000000000145600000000000020723000000000000297602013102100000010000000000000BRBBDCACNPR8602
012013100178BBDCJ31     070BBDC        PN      N1000R$  000000000007500000000000910000000000052000000000007600000000000910000000000051000000000009100248000000000000317900000000000024336300000000000307602013102100000010000000000000BRBBDCACNPR8602
012013100178BBDCJ32     070BBDC        PN      N1000R$  000000000003400000000000450000000000022000000000003000000000000390000000000036000000000005000078000000000000077700000000000002356000000000000317602013102100000010000000000000BRBBDCACNPR8602
012013100178BBDCJ33     070BBDC        PN      N1000R$  000000000001200000000000150000000000011000000000001100000000000110000000000011000000000002300025000000000000045400000000000000544500000000000327602013102100000010000000000000BRBBDCACNPR8602
012013100178BBDCJ34     070BBDC        PN      N1000R$  000000000000300000000000050000000000003000000000000300000000000050000000000000000000000000000004000000000000004700000000000000014500000000000337202013102100000010000000000000BRBBDCACNPR8600
012013100178BBDCK30     070BBDC        PN      N1000R$  000000000014200000000001820000000000141000000000016400000000001820000000000132000000000000000050000000000000077500000000000012711800000000000299802013111800000010000000000000BRBBDCACNPR8605
012013100178BBDCK31     070BBDC        PN      N1000R$  000000000009300000000001210000000000093000000000011300000000001210000000000000000000000012500065000000000000046000000000000005205900000000000309802013111800000010000000000000BRBBDCACNPR8605
012013100178BBDCK32     070BBDC        PN      N1000R$  000000000007200000000000820000000000061000000000007700000000000820000000000013000000000009800068000000000000070400000000000005442400000000000317402013111800000010000000000000BRBBDCACNPR8601
012013100178BBDCK33     070BBDC        PN      N1000R$  000000000003500000000000460000000000035000000000004000000000000460000000000031000000000007800040000000000000058700000000000002394500000000000327602013111800000010000000000000BRBBDCACNPR8602
012013100178BBDCK34     070BBDC        PN      N1000R$  000000000001600000000000230000000000016000000000002000000000000230000000000011000000000000000029000000000000057300000000000001182700000000000339602013111800000010000000000000BRBBDCACNPR8604
012013100178BBDCL1      070BBDC        PN      N1000R$  000000000016200000000001750000000000162000000000017000000000001740000000000000000000000000000005000000000000002000000000000000340000000000000307202013121600000010000000000000BRBBDCACNPR8600
012013100178BBDCL29     070BBDC        PN      N1000R$  000000000028000000000002800000000000280000000000028000000000002800000000000166000000000000000001000000000000000300000000000000084000000000000287602013121600000010000000000000BRBBDCACNPR8602
012013100178BBDCL32     070BBDC        PN      N1000R$  000000000009000000000001230000000000090000000000011200000000001230000000000085000000000000000038000000000000021000000000000002371100000000000317202013121600000010000000000000BRBBDCACNPR8600
012013100178BBDCL33     070BBDC        PN      N1000R$  000000000022200000000002220000000000222000000000022200000000002220000000000000000000000000000002000000000000000500000000000000111000000000000297002013121600000010000000000000BRBBDCACNPR8598
012013100178BBDCL34     070BBDC        PN      N1000R$  000000000004700000000000530000000000047000000000005000000000000530000000000000000000000000000016000000000000009500000000000000476700000000000337202013121600000010000000000000BRBBDCACNPR8600
012013100178BBDCL35     070BBDC        PN      N1000R$  000000000002400000000000300000000000023000000000002600000000000290000000000013000000000009000019000000000000023700000000000000636100000000000347202013121600000010000000000000BRBBDCACNPR8600
012013100178BBDCL36     070BBDC        PN      N1000R$  000000000008600000000000930000000000084000000000008400000000000920000000000066000000000000000019000000000001159400000000000097685800000000000324102013121600000010000000000000BRBBDCACNPR8597
012013100182BBDCM27     080BBDCE       PN      N1000R$  000000000003500000000000350000000000035000000000003500000000000350000000000000000000000000000001000000000000001200000000000000042000000000000270002014012000000010000000000000BRBBDCACNPR8606
012013100182BBDCM57     080BBDCE       PN      N1000R$  000000000004200000000000420000000000042000000000004200000000000420000000000000000000000000000001000000000000001200000000000000050400000000000275002014012000000010000000000000BRBBDCACNPR8606
012013100182BBDCO61     080BBDCE       PN      N1000R$  000000000006600000000000660000000000066000000000006600000000000660000000000000000000000000000001000000000000001200000000000000079200000000000278802014031700000010000000000000BRBBDCACNPR8598
012013100182BBDCV1      080BBDCE       PN      N1000R$  000000000013300000000001330000000000095000000000010500000000000950000000000000000000000000000007000000000000003200000000000000336500000000000314402013102100000010000000000000BRBBDCACNPR8603
012013100182BBDCV25     080BBDCE       PN      N1000R$  000000000000300000000000030000000000002000000000000200000000000020000000000002000000000000000016000000000000116100000000000000307200000000000249402013102100000010000000000000BRBBDCACNPR8603
012013100182BBDCV26     080BBDCE       PN      N1000R$  000000000000300000000000030000000000003000000000000300000000000030000000000000000000000000000001000000000000010000000000000000030000000000000259602013102100000010000000000000BRBBDCACNPR8604
012013100182BBDCV27     080BBDCE       PN      N1000R$  000000000000500000000000050000000000003000000000000300000000000030000000000000000000000001100021000000000000062700000000000000250300000000000267602013102100000010000000000000BRBBDCACNPR8602
012013100182BBDCV29     080BBDCE       PN      N1000R$  000000000001600000000000160000000000016000000000001600000000000160000000000000000000000000000001000000000000000100000000000000001600000000000287602013102100000010000000000000BRBBDCACNPR8602
012013100182BBDCV30     080BBDCE       PN      N1000R$  000000000005000000000000500000000000030000000000003500000000000310000000000000000000000003100077000000000000109400000000000003912200000000000297602013102100000010000000000000BRBBDCACNPR8602
012013100182BBDCV31     080BBDCE       PN      N1000R$  000000000009200000000001010000000000062000000000007400000000000620000000000060000000000000000045000000000000066300000000000004937200000000000307602013102100000010000000000000BRBBDCACNPR8602
012013100182BBDCV32     080BBDCE       PN      N1000R$  000000000016200000000001620000000000116000000000012800000000001160000000000000000000000000000054000000000000071700000000000009204300000000000317602013102100000010000000000000BRBBDCACNPR8602
012013100182BBDCW28     080BBDCE       PN      N1000R$  000000000002000000000000200000000000018000000000001900000000000180000000000011000000000001900010000000000000013500000000000000264000000000000277602013111800000010000000000000BRBBDCACNPR8602
012013100182BBDCW30     080BBDCE       PN      N1000R$  000000000009200000000000920000000000066000000000006800000000000660000000000000000000000000000071000000000000045100000000000003086200000000000299802013111800000010000000000000BRBBDCACNPR8605
012013100182BBDCW31     080BBDCE       PN      N1000R$  000000000013200000000001320000000000110000000000011800000000001100000000000000000000000000000009000000000000013900000000000001645000000000000309802013111800000010000000000000BRBBDCACNPR8605
012013100182BBDCW32     080BBDCE       PN      N1000R$  000000000017800000000001780000000000139000000000015700000000001390000000000000000000000000000020000000000000036000000000000005659700000000000317402013111800000010000000000000BRBBDCACNPR8601
012013100182BBDCW9      080BBDCE       PN      N1000R$  000000000005700000000000570000000000037000000000004400000000000370000000000000000000000000000002000000000000003400000000000000149800000000000289802013111800000010000000000000BRBBDCACNPR8605
012013100182BBDCX1      080BBDCE       PN      N1000R$  000000000011100000000001110000000000111000000000011100000000001110000000000000000000000000000001000000000001150000000000000127650000000000000307202013121600000010000000000000BRBBDCACNPR8600
012013100182BBDCX27     080BBDCE       PN      N1000R$  000000000002300000000000230000000000023000000000002300000000000230000000000000000000000000000001000000000001150000000000000026450000000000000269602013121600000010000000000000BRBBDCACNPR8604
012013100112BBFI11B     010FII BB PROGRCI  ER  MB   R$  000000042000000000004201010000000420000000000042008000000004201000000000420100000000042449900003000000000000000005000000000002100402000000000000009999123100000010000000000000BRBBFICTF006199
012013100112BBPO11      010FII BB PRGIICI  ER       R$  000000001103000000000110950000000011030000000001107200000000110950000000011080000000001109500189000000000000021786000000000241236244000000000000009999123100000010000000000000BRBBPOCTF003111
012013100112BBRC11      010FII BB CORP CI  ER       R$  000000000910000000000091000000000009100000000000910000000000091000000000009150000000000919000001000000000000000050000000000000455000000000000000009999123100000010000000000000BRBBRCCTF004125
012013100102BBRK3       010BR BROKERS  ON      NM   R$  000000000057500000000006050000000000572000000000058200000000005950000000000593000000000059503169000000000003440100000000002003195000000000000000009999123100000010000000000000BRBBRKACNOR4108
012013100196BBRK3F      020BR BROKERS  ON      NM   R$  000000000056500000000006480000000000565000000000061400000000006480000000000590000000000060000005000000000000000076000000000000046707000000000000009999123100000010000000000000BRBBRKACNOR4108
012013100102BBSE3       010BBSEGURIDADEON      NM   R$  000000000217500000000022460000000002163000000000222200000000022460000000002246000000000224707760000000000002853100000000006340493100000000000000009999123100000010000000000000BRBBSEACNOR5101
012013100196BBSE3F      020BBSEGURIDADEON      NM   R$  000000000217000000000022400000000002160000000000220700000000022400000000002238000000000224001068000000000000035344000000000078012282000000000000009999123100000010000000000000BRBBSEACNOR5101
012013100102BBTG11      010BTG PACTUAL UNT          R$  000000000274100000000027990000000002704000000000277700000000027750000000002775000000000279001025000000000001337100000000003714462800000000000000009999123100000010000000000000BRBBTGUNT007105
012013100196BBTG11F     020BTG PACTUAL UNT          R$  000000000277000000000028000000000002715000000000275100000000027200000000002720000000000299700015000000000000000467000000000001284833000000000000009999123100000010000000000000BRBBTGUNT007105
012013100162BBTG11T     030BTG PACTUAL UNT       181R$  000000000292000000000029210000000002894000000000291400000000028950000000000000000000000000000004000000000001209400000000003524956464000000000000009999123100000010000000000000BRBBTGUNT007105
012013100182BBTGX28     080BBTGE       UNT       000R$  000000000008100000000000810000000000081000000000008100000000000810000000000000000000000000000002000000000000100000000000000008100000000000000280002013121600000010000000000000BRBBTGUNT007105
012013100112BBVJ11      010FII C JARDIMCI  ER       R$  000000000770000000000077130000000007500000000000770300000000077130000000007650000000000771300016000000000000000378000000000002911761000000000000009999123100000010000000000000BRBBVJCTF001134
012013100112BCFF11B     010FII BC FFII CI      MB   R$  000000000910000000000092000000000009001000000000913900000000091490000000009115000000000915000061000000000000003404000000000031110559000000000000009999123100000010000000000000BRBCFFCTF000142
012013100102BDLL4       010BARDELLA    PN           R$  000000000501000000000054000000000005000000000000530300000000054000000000005000000000000553000007000000000000000900000000000004772900000000000000009999123100000010000000000000BRBDLLACNPR8149
012013100196BDLL4F      020BARDELLA    PN           R$  000000000538000000000053800000000005200000000000522600000000052000000000005200000000000570000004000000000000000021000000000000109762000000000000009999123100000010000000000000BRBDLLACNPR8149
012013100102BEEF3       010MINERVA     ON      NM   R$  000000000100300000000010090000000000998000000000100200000000010000000000001000000000000100302427000000000000806700000000000808731100000000000000009999123100000010000000000000BRBEEFACNOR6104
012013100196BEEF3F      020MINERVA     ON      NM   R$  000000000100300000000010170000000000996000000000100400000000010070000000000995000000000100000015000000000000000550000000000000552599000000000000009999123100000010000000000000BRBEEFACNOR6104
012013100162BEEF3T      030MINERVA     ON      NM030R$  000000000100800000000010090000000001008000000000100800000000010090000000000000000000000000000002000000000000001500000000000001512611000000000000009999123100000010000000000000BRBEEFACNOR6104
012013100162BEEF3T      030MINERVA     ON      NM062R$  000000000102100000000010220000000001021000000000102100000000010220000000000000000000000000000002000000000000000900000000000000919532000000000000009999123100000010000000000000BRBEEFACNOR6104
012013100102BEES3       010BANESTES    ON  EJ       R$  000000000004900000000000520000000000049000000000005000000000000500000000000049000000000005000032000000000000188500000000000009429900000000000000009999123100000010000000000000BRBEESACNOR9245
012013100102BEMA3       010BEMATECH    ON      NM   R$  000000000077600000000007850000000000768000000000077700000000007750000000000775000000000077700268000000000000091700000000000071319700000000000000009999123100000010000000000000BRBEMAACNOR0114
012013100196BEMA3F      020BEMATECH    ON      NM   R$  000000000077700000000007850000000000777000000000078300000000007850000000000770000000000077600003000000000000000038000000000000029757000000000000009999123100000010000000000000BRBEMAACNOR0114
012013100102BGIP4       010BANESE      PN           R$  000000000480000000000049800000000004800000000000483000000000049800000000004800000000000497900003000000000000000600000000000002898100000000000000009999123100000010000000000000BRBGIPACNPR8179
012013100102BHGR3       010BHG         ON      NM   R$  000000000147800000000014780000000001458000000000145900000000014660000000001446000000000146000022000000000000005100000000000007445100000000000000009999123100000010000000000000BRBHGRACNOR9101
012013100196BHGR3F      020BHG         ON      NM   R$  000000000149800000000014980000000001458000000000148400000000014980000000001420000000000149800003000000000000000122000000000000181156000000000000009999123100000010000000000000BRBHGRACNOR9101
012013100102BICB4       010BICBANCO    PN      N1   R$  000000000044600000000004540000000000446000000000045100000000004520000000000452000000000045300046000000000000056700000000000025574400000000000000009999123100000010000000000000BRBICBACNPR7131
012013100196BICB4F      020BICBANCO    PN      N1   R$  000000000045400000000004920000000000454000000000048300000000004920000000000446000000000049100002000000000000000060000000000000028988000000000000009999123100000010000000000000BRBICBACNPR7131
012013100162BICB4T      030BICBANCO    PN      N1030R$  000000000045400000000004550000000000454000000000045400000000004550000000000000000000000000000002000000000000020000000000000009086748000000000000009999123100000010000000000000BRBICBACNPR7131
012013100102BISA3       010BROOKFIELD  ON      NM   R$  000000000016300000000001660000000000161000000000016300000000001650000000000165000000000016603365000000000008356300000000001365322000000000000000009999123100000010000000000000BRBISAACNOR8109
012013100196BISA3F      020BROOKFIELD  ON      NM   R$  000000000015800000000001660000000000158000000000016300000000001660000000000161000000000016600024000000000000000545000000000000088933000000000000009999123100000010000000000000BRBISAACNOR8109
012013100162BISA3T      030BROOKFIELD  ON      NM030R$  000000000016300000000001670000000000162000000000016400000000001670000000000000000000000000000008000000000000027400000000000004497118000000000000009999123100000010000000000000BRBISAACNOR8109
012013100102BMEB3       010MERC BRASIL ON           R$  000000000154000000000016690000000001540000000000160400000000016690000000000500000000000167900002000000000000000200000000000000320900000000000000009999123100000010000000000000BRBMEBACNOR8190
012013100102BMIN4       010MERC INVEST PN           R$  000000000002400000000000250000000000024000000000002400000000000250000000000024000000000002500002000000000000006000000000000000145000000000000000009999123100000010000000000000BRBMINACNPR1160
012013100102BMKS3       010BIC MONARK  ON           R$  000000003400000000000340000000000034000000000003400000000000340000000000032000000000003400000001000000000000000009000000000000306000000000000000009999123100000010000000000000BRBMKSACNOR9155
012013100112BMLC11B     010FII BMBRC LCCI      MB   R$  000000001150000000000115000000000011500000000001150000000000115000000000011400000000001150000002000000000000000031000000000000356500000000000000009999123100000010000000000000BRBMLCCTF004119
012013100102BMTO4       010BRASMOTOR   PN           R$  000000000008700000000000870000000000087000000000008700000000000870000000000085000000000008700002000000000000015000000000000001305000000000000000009999123100000010000000000000BRBMTOACNPR6065
012013100102BNBR4       010NORD BRASIL PN           R$  000000000240000000000024000000000002400000000000240000000000024000000000002400000000000260000002000000000000000200000000000000480000000000000000009999123100000010000000000000BRBNBRACNPR5187
012013100112BNFS11      010FII BANRISULCI  ER       R$  000000001000000000000100000000000010000000000001000000000000100000000000010000000000001035000001000000000000000100000000000001000000000000000000009999123100000010000000000000BRBNFSCTF000113
012013100114BOVA11      010ISHARES BOVACI           R$  000000000513300000000051960000000005098000000000516300000000051960000000005196000000000519903807000000000000974990000000005034829360000000000000009999123100000010000000000000BRBOVACTF003101
012013100196BOVA11F     020ISHARES BOVACI           R$  000000000510100000000051850000000005101000000000514300000000051010000000005103000000000520600015000000000000000045000000000000231477000000000000009999123100000010000000000000BRBOVACTF003101
012013100112BPFF11      010FII ABSOLUTOCI  ER       R$  000000000832000000000083200000000008069000000000816300000000083000000000008150000000000830000014000000000000000659000000000005379777000000000000009999123100000010000000000000BRBPFFCTF002106
012013100102BPHA3       010BR PHARMA   ON      NM   R$  000000000078900000000007890000000000768000000000077700000000007780000000000778000000000077901690000000000000740800000000000575788300000000000000009999123100000010000000000000BRBPHAACNOR6102
012013100196BPHA3F      020BR PHARMA   ON      NM   R$  000000000078000000000007830000000000770000000000077100000000007830000000000770000000000078900007000000000000000224000000000000172925000000000000009999123100000010000000000000BRBPHAACNOR6102
012013100102BPNM4       010PANAMERICANOPN      N1   R$  000000000051700000000005230000000000512000000000051600000000005150000000000512000000000051500229000000000000194000000000000100104600000000000000009999123100000010000000000000BRBPNMACNPR6111
012013100196BPNM4F      020PANAMERICANOPN      N1   R$  000000000051500000000005270000000000515000000000052000000000005270000000000512000000000052700008000000000000000335000000000000174293000000000000009999123100000010000000000000BRBPNMACNPR6111
012013100102BRAP3       010BRADESPAR   ON      N1   R$  000000000200400000000020130000000001979000000000199900000000020000000000001985000000000200000038000000000000011500000000000022992200000000000000009999123100000010000000000000BRBRAPACNOR5124
012013100196BRAP3F      020BRADESPAR   ON      N1   R$  000000000199000000000019920000000001980000000000198500000000019920000000001984000000000219900013000000000000000215000000000000426938000000000000009999123100000010000000000000BRBRAPACNOR5124
012013100102BRAP4       010BRADESPAR   PN      N1   R$  000000000246000000000024700000000002424000000000245000000000024700000000002469000000000247005281000000000001234500000000003025213800000000000000009999123100000010000000000000BRBRAPACNPR2124
012013100196BRAP4F      020BRADESPAR   PN      N1   R$  000000000246200000000025590000000002421000000000244300000000024460000000002421000000000246000088000000000000001794000000000004386913000000000000009999123100000010000000000000BRBRAPACNPR2124
012013100162BRAP4T      030BRADESPAR   PN      N1016R$  000000000246100000000024610000000002461000000000246100000000024610000000000000000000000000000001000000000000005000000000000012305000000000000000009999123100000010000000000000BRBRAPACNPR2124
012013100162BRAP4T      030BRADESPAR   PN      N1090R$  000000000249700000000024980000000002497000000000249700000000024980000000000000000000000000000002000000000000001000000000000002497433000000000000009999123100000010000000000000BRBRAPACNPR2124
012013100114BRAX11      010ISHARES BRAXCI           R$  000000000424000000000042400000000004240000000000424000000000042400000000003000000000000000000001000000000000000010000000000000042400000000000000009999123100000010000000000000BRBRAXCTF002100
012013100112BRCR11      010FII BC FUND CI           R$  000000001328000000000135000000000013200000000001336100000000133800000000013370000000001338000457000000000000036558000000000488482898000000000000009999123100000010000000000000BRBRCRCTF000133
012013100102BRFS3       010BRF SA      ON      NM   R$  000000000544000000000055100000000005409000000000547100000000055100000000005500000000000551008782000000000001946400000000010649919000000000000000009999123100000010000000000000BRBRFSACNOR8110
012013100196BRFS3F      020BRF SA      ON      NM   R$  000000000539800000000056100000000005398000000000545800000000055200000000005520000000000557600221000000000000006761000000000036906027000000000000009999123100000010000000000000BRBRFSACNOR8110
012013100162BRFS3T      030BRF SA      ON      NM016R$  000000000553300000000055340000000005533000000000553300000000055340000000000000000000000000000002000000000000004200000000000023241511000000000000009999123100000010000000000000BRBRFSACNOR8110
012013100162BRFS3T      030BRF SA      ON      NM030R$  000000000550200000000055030000000005502000000000550200000000055030000000000000000000000000000004000000000000000200000000000001100500000000000000009999123100000010000000000000BRBRFSACNOR8110
012013100162BRFS3T      030BRF SA      ON      NM062R$  000000000549400000000054950000000005494000000000549400000000054950000000000000000000000000000002000000000000000200000000000001098987000000000000009999123100000010000000000000BRBRFSACNOR8110
012013100162BRFS3T      030BRF SA      ON      NM090R$  000000000555200000000055530000000005552000000000555200000000055530000000000000000000000000000002000000000000003700000000000020544650000000000000009999123100000010000000000000BRBRFSACNOR8110
012013100162BRFS3T      030BRF SA      ON      NM181R$  000000000573900000000057400000000005739000000000573900000000057400000000000000000000000000000002000000000000004000000000000022958468000000000000009999123100000010000000000000BRBRFSACNOR8110
012013100102BRIN3       010BR INSURANCEON      NM   R$  000000000199000000000020310000000001955000000000201000000000020140000000002005000000000202001212000000000000366000000000000735689500000000000000009999123100000010000000000000BRBRINACNOR3106
012013100196BRIN3F      020BR INSURANCEON      NM   R$  000000000207800000000020780000000001960000000000199800000000020200000000002011000000000203500055000000000000001592000000000003181855000000000000009999123100000010000000000000BRBRINACNOR3106
012013100102BRIV4       010ALFA INVEST PN           R$  000000000057900000000005800000000000579000000000057900000000005800000000000572000000000058000002000000000000003200000000000001855700000000000000009999123100000010000000000000BRBRIVACNPR3197
012013100102BRKM3       010BRASKEM     ON      N1   R$  000000000125000000000012700000000001250000000000125200000000012580000000001225000000000125900011000000000000001900000000000002380500000000000000009999123100000010000000000000BRBRKMACNOR1110
012013100102BRKM5       010BRASKEM     PNA     N1   R$  000000000178700000000018020000000001761000000000178700000000017990000000001795000000000179907037000000000001600000000000002860543600000000000000009999123100000010000000000000BRBRKMACNPA4110
012013100196BRKM5F      020BRASKEM     PNA     N1   R$  000000000178400000000018150000000001751000000000179400000000018100000000001810000000000182000027000000000000000828000000000001486140000000000000009999123100000010000000000000BRBRKMACNPA4110
012013100162BRKM5T      030BRASKEM     PNA     N1016R$  000000000180300000000018040000000001803000000000180300000000018040000000000000000000000000000002000000000000002000000000000003607805000000000000009999123100000010000000000000BRBRKMACNPA4110
012013100162BRKM5T      030BRASKEM     PNA     N1030R$  000000000179200000000017930000000001792000000000179200000000017930000000000000000000000000000002000000000000001500000000000002689491000000000000009999123100000010000000000000BRBRKMACNPA4110
012013100102BRML3       010BR MALLS PARON      NM   R$  000000000202600000000020700000000001992000000000203100000000020700000000002060000000000207007339000000000002000400000000004063459100000000000000009999123100000010000000000000BRBRMLACNOR9105
012013100196BRML3F      020BR MALLS PARON      NM   R$  000000000207200000000020720000000002000000000000202300000000020550000000002052000000000206000065000000000000002489000000000005037569000000000000009999123100000010000000000000BRBRMLACNOR9105
012013100162BRML3T      030BR MALLS PARON      NM030R$  000000000202200000000020250000000002022000000000202300000000020250000000000000000000000000000004000000000000001500000000000003035095000000000000009999123100000010000000000000BRBRMLACNOR9105
012013100102BRPR3       010BR PROPERT  ON      NM   R$  000000000200200000000020020000000001953000000000197200000000019800000000001975000000000198005785000000000001306500000000002577544100000000000000009999123100000010000000000000BRBRPRACNOR9112
012013100196BRPR3F      020BR PROPERT  ON      NM   R$  000000000203900000000020390000000001951000000000199000000000019660000000001961000000000202800038000000000000000957000000000001904416000000000000009999123100000010000000000000BRBRPRACNOR9112
012013100102BRSR6       010BANRISUL    PNB     N1   R$  000000000153800000000015650000000001528000000000154800000000015650000000001555000000000156504390000000000000724500000000001121685600000000000000009999123100000010000000000000BRBRSRACNPB4134
012013100196BRSR6F      020BANRISUL    PNB     N1   R$  000000000160000000000016790000000001515000000000155500000000015900000000001537000000000163300038000000000000001217000000000001892648000000000000009999123100000010000000000000BRBRSRACNPB4134
012013100162BRSR6T      030BANRISUL    PNB     N1062R$  000000000157700000000015780000000001574000000000157400000000015750000000000000000000000000000004000000000000001100000000000001731777000000000000009999123100000010000000000000BRBRSRACNPB4134
012013100102BSEV3       010BIOSEV      ON      NM   R$  000000000084500000000009090000000000845000000000090700000000009090000000000817000000000090900011000000000000003900000000000003538700000000000000009999123100000010000000000000BRBSEVACNOR3100
012013100102BTOW3       010B2W DIGITAL ON      NM   R$  000000000143000000000014580000000001410000000000144000000000014580000000001443000000000145801080000000000000250200000000000360519800000000000000009999123100000010000000000000BRBTOWACNOR8105
012013100196BTOW3F      020B2W DIGITAL ON      NM   R$  000000000142600000000014970000000001410000000000144100000000014930000000001434000000000149200016000000000000000552000000000000795757000000000000009999123100000010000000000000BRBTOWACNOR8105
012013100162BTOW3T      030B2W DIGITAL ON      NM030R$  000000000145200000000014530000000001452000000000145200000000014530000000000000000000000000000002000000000000001700000000000002469540000000000000009999123100000010000000000000BRBTOWACNOR8105
012013100102BTTL3       010BATTISTELLA ON           R$  000000000008600000000000940000000000085000000000008700000000000940000000000082000000000009400010000000000000014700000000000001282100000000000000009999123100000010000000000000BRBTTLACNOR0105
012013100102BTTL4       010BATTISTELLA PN           R$  000000000009900000000000990000000000094000000000009400000000000940000000000094000000000009600064000000000001011100000000000095158500000000000000009999123100000010000000000000BRBTTLACNPR7105
012013100162BTTL4T      030BATTISTELLA PN        062R$  000000000009600000000000970000000000096000000000009600000000000970000000000000000000000000000002000000000000005000000000000000481650000000000000009999123100000010000000000000BRBTTLACNPR7105
012013100102BVMF3       010BMFBOVESPA  ON      NM   R$  000000000125700000000012800000000001239000000000126700000000012790000000001279000000000128016721000000000006168200000000007816662600000000000000009999123100000010000000000000BRBVMFACNOR3126
012013100196BVMF3F      020BMFBOVESPA  ON      NM   R$  000000000123500000000012980000000001235000000000126200000000012980000000001286000000000130000234000000000000004812000000000006076853000000000000009999123100000010000000000000BRBVMFACNOR3126
012013100162BVMF3T      030BMFBOVESPA  ON      NM030R$  000000000127700000000012780000000001277000000000127700000000012780000000000000000000000000000002000000000000025000000000000031934580000000000000009999123100000010000000000000BRBVMFACNOR3126
012013100162BVMF3T      030BMFBOVESPA  ON      NM062R$  000000000129000000000012910000000001290000000000129000000000012910000000000000000000000000000002000000000000250000000000000322580000000000000000009999123100000010000000000000BRBVMFACNOR3126
012013100178BVMFA13     070BVMF        ON      NM000R$  000000000006800000000000680000000000068000000000006800000000000680000000000000000000000008300001000000000000000800000000000000054400000000000130002014012000000010000000000000BRBVMFACNOR3126
012013100178BVMFJ11     070BVMF        ON      NM000R$  000000000016300000000001900000000000163000000000018600000000001870000000000164000000000020500016000000000000111900000000000020896500000000000108502013102100000010000000000000BRBVMFACNOR3125
012013100178BVMFJ12     070BVMF  FM    ON      NM000R$  000000000008400000000001060000000000077000000000009800000000001060000000000099000000000010600043000000000000050500000000000004980500000000000118502013102100000010000000000000BRBVMFACNOR3125
012013100178BVMFJ13     070BVMF  FM    ON      NM000R$  000000000002500000000000340000000000020000000000003000000000000330000000000025000000000003300184000000000000234400000000000007092600000000000128502013102100000010000000000000BRBVMFACNOR3125
012013100178BVMFJ14     070BVMF  FM    ON      NM000R$  000000000000400000000000050000000000004000000000000400000000000050000000000005000000000000600058000000000000149900000000000000670500000000000138502013102100000010000000000000BRBVMFACNOR3125
012013100178BVMFJ42     070BVMF  FM    ON      NM000R$  000000000005200000000000590000000000050000000000005400000000000590000000000025000000000123500005000000000000011400000000000000620700000000000123502013102100000010000000000000BRBVMFACNOR3125
012013100178BVMFJ43     070BVMF  FM    ON      NM000R$  000000000001100000000000140000000000011000000000001300000000000140000000000007000000000001600010000000000000018000000000000000241000000000000133502013102100000010000000000000BRBVMFACNOR3125
012013100178BVMFK12     070BVMF  FM    ON      NM000R$  000000000009900000000001220000000000099000000000011800000000001200000000000000000000000013500046000000000000079000000000000009376300000000000118502013111800000010000000000000BRBVMFACNOR3125
012013100178BVMFK13     070BVMF  FM    ON      NM000R$  000000000004600000000000540000000000045000000000005100000000000540000000000047000000000005200134000000000000148100000000000007560100000000000128502013111800000010000000000000BRBVMFACNOR3125
012013100178BVMFK14     070BVMF  FM    ON      NM000R$  000000000001000000000000140000000000010000000000001300000000000140000000000012000000000001600058000000000000129800000000000001693900000000000138502013111800000010000000000000BRBVMFACNOR3125
012013100178BVMFK42     070BVMF  FM    ON      NM000R$  000000000006600000000000770000000000066000000000007300000000000760000000000000000000000000000015000000000000040400000000000002949700000000000125002013111800000010000000000000BRBVMFACNOR3126
012013100178BVMFK43     070BVMF  FM    ON      NM000R$  000000000002000000000000250000000000020000000000002300000000000240000000000000000000000000000023000000000000057000000000000001355500000000000135002013111800000010000000000000BRBVMFACNOR3126
012013100178BVMFL13     070BVMF        ON      NM000R$  000000000006000000000000710000000000060000000000007000000000000710000000000000000000000000000004000000000000005100000000000000361000000000000128502013121600000010000000000000BRBVMFACNOR3125
012013100178BVMFL14     070BVMF        ON      NM000R$  000000000003100000000000320000000000031000000000003100000000000320000000000015000000000003400003000000000000007100000000000000220200000000000137402013121600000010000000000000BRBVMFACNOR3124
012013100182BVMFV12     080BVMFE FM    ON      NM000R$  000000000001100000000000170000000000007000000000001000000000000080000000000007000000000001000019000000000000016300000000000000171900000000000118502013102100000010000000000000BRBVMFACNOR3125
012013100182BVMFV13     080BVMFE FM    ON      NM000R$  000000000006100000000000610000000000036000000000004200000000000360000000000035000000000004000025000000000000054000000000000002282900000000000128502013102100000010000000000000BRBVMFACNOR3125
012013100182BVMFV14     080BVMFE       ON      NM000R$  000000000011800000000001180000000000113000000000011500000000001130000000000000000000000000000002000000000000004000000000000000462000000000000138502013102100000010000000000000BRBVMFACNOR3125
012013100182BVMFV42     080BVMFE FM    ON      NM000R$  000000000002900000000000290000000000022000000000002700000000000220000000000001000000000002700002000000000000002400000000000000066800000000000123502013102100000010000000000000BRBVMFACNOR3125
012013100182BVMFV43     080BVMFE       ON      NM000R$  000000000007200000000000720000000000067000000000007000000000000670000000000000000000000000000003000000000000010700000000000000749200000000000133502013102100000010000000000000BRBVMFACNOR3125
012013100182BVMFW12     080BVMFE FM    ON      NM000R$  000000000002000000000000220000000000020000000000002000000000000210000000000000000000000000000007000000000000015400000000000000323000000000000118502013111800000010000000000000BRBVMFACNOR3125
012013100182BVMFW13     080BVMFE FM    ON      NM000R$  000000000006500000000000650000000000059000000000006200000000000590000000000000000000000025000002000000000000003600000000000000223200000000000128502013111800000010000000000000BRBVMFACNOR3125
012013100182BVMFW41     080BVMFE FM    ON      NM000R$  000000000001900000000000190000000000014000000000001500000000000150000000000000000000000000000021000000000000053000000000000000825200000000000115002013111800000010000000000000BRBVMFACNOR3126
012013100102CARD3       010CSU CARDSYSTON      NM   R$  000000000031700000000003170000000000310000000000031000000000003100000000000310000000000031300052000000000000031600000000000009824500000000000000009999123100000010000000000000BRCARDACNOR9105
012013100196CARD3F      020CSU CARDSYSTON      NM   R$  000000000031500000000003150000000000308000000000031000000000003110000000000308000000000031500003000000000000000039000000000000012126000000000000009999123100000010000000000000BRCARDACNOR9105
012013100102CBEE3       010AMPLA ENERG ON *         R$  000000000013000000000001300000000000130000000000013000000000001300000000000126000000000013000001000000000000500000000000000000065000000000000000009999123100010000000000000000BRCBEEACNOR3149
012013100102CBMA3       010COBRASMA    ON           R$  000000000000500000000000050000000000005000000000000500000000000050000000000004000000000000500002000000000000020000000000000000100000000000000000009999123100000010000000000000BRCBMAACNOR4124
012013100196CBMA4F      020COBRASMA    PN           R$  000000000000400000000000040000000000004000000000000400000000000040000000000004000000000000500001000000000000000500000000000000002000000000000000009999123100000010000000000000BRCBMAACNPR1124
012013100108CCHI3       010CHIARELLI   ON           R$  000000000001800000000000210000000000018000000000001900000000000200000000000019000000000002000050000000000000820000000000000015920000000000000000009999123100000010000000000000BRCCHIACNOR5123
012013100196CCHI3F      020CHIARELLI   ON           R$  000000000001800000000000210000000000018000000000001900000000000210000000000019000000000002100009000000000000029402000000000000573040000000000000009999123100000010000000000000BRCCHIACNOR5123
012013100108CCHI4       010CHIARELLI   PN           R$  000000000001300000000000140000000000013000000000001300000000000140000000000013000000000001400003000000000000040000000000000000540000000000000000009999123100000010000000000000BRCCHIACNPR2122
012013100102CCPR3       010CYRE COM-CCPON      NM   R$  000000000212500000000021250000000002066000000000211500000000020660000000002065000000000212800003000000000000000600000000000001269100000000000000009999123100000010000000000000BRCCPRACNOR9107
012013100102CCRO3       010CCR SA      ON  ED  NM   R$  000000000175900000000017940000000001735000000000176500000000017940000000001789000000000179408055000000000003059700000000005401312000000000000000009999123100000010000000000000BRCCROACNOR2123
012013100196CCRO3F      020CCR SA      ON  ED  NM   R$  000000000174700000000018090000000001736000000000176300000000017510000000001789000000000180000071000000000000002272000000000004006676000000000000009999123100000010000000000000BRCCROACNOR2123
012013100162CCRO3T      030CCR SA      ON  ED  NM016R$  000000000174700000000017930000000001747000000000175900000000017930000000000000000000000000000004000000000000011000000000000019359274000000000000009999123100000010000000000000BRCCROACNOR2123
012013100162CCRO3T      030CCR SA      ON  ED  NM062R$  000000000175900000000017600000000001759000000000175900000000017600000000000000000000000000000002000000000000003500000000000006158729000000000000009999123100000010000000000000BRCCROACNOR2123
012013100178CCROK19     070CCRO    /ED ON      NM000R$  000000000002000000000000200000000000020000000000002000000000000200000000000000000000000000000001000000000000017700000000000000354000000000000183202013111800000010000000000000BRCCROACNOR2122
012013100102CCXC3       010CCX CARVAO  ON      NM   R$  000000000013500000000001500000000000133000000000014100000000001490000000000148000000000014901813000000000005220500000000000737810500000000000000009999123100000010000000000000BRCCXCACNOR5100
012013100196CCXC3F      020CCX CARVAO  ON      NM   R$  000000000014100000000001450000000000136000000000014100000000001360000000000136000000000014600012000000000000000381000000000000054069000000000000009999123100000010000000000000BRCCXCACNOR5100
012013100162CCXC3T      030CCX CARVAO  ON      NM016R$  000000000014900000000001500000000000149000000000014900000000001500000000000000000000000000000002000000000000200000000000000029928140000000000000009999123100000010000000000000BRCCXCACNOR5100
012013100162CCXC3T      030CCX CARVAO  ON      NM030R$  000000000013600000000001370000000000136000000000013600000000001370000000000000000000000000000002000000000000010000000000000001360125000000000000009999123100000010000000000000BRCCXCACNOR5100
012013100112CEOC11B     010FII CEO CCP CI      MB   R$  000000000864900000000086500000000008600000000000862600000000086490000000008600000000000864000018000000000000001494000000000012888520000000000000009999123100000010000000000000BRCEOCCTF003110
012013100102CESP3       010CESP        ON      N1   R$  000000000204800000000020480000000002021000000000203700000000020300000000002020000000000204500005000000000000000500000000000001018900000000000000009999123100000010000000000000BRCESPACNOR3160
012013100196CESP3F      020CESP        ON      N1   R$  000000000204900000000020490000000002049000000000204900000000020490000000001702000000000204900001000000000000000035000000000000071715000000000000009999123100000010000000000000BRCESPACNOR3160
012013100102CESP6       010CESP        PNB     N1   R$  000000000236500000000023650000000002319000000000233800000000023420000000002334000000000234202153000000000000591900000000001384206900000000000000009999123100000010000000000000BRCESPACNPB4119
012013100196CESP6F      020CESP        PNB     N1   R$  000000000236500000000024000000000002311000000000234300000000023370000000002328000000000233700022000000000000000755000000000001769446000000000000009999123100000010000000000000BRCESPACNPB4119
012013100162CESP6T      030CESP        PNB     N1030R$  000000000235600000000023570000000002356000000000235600000000023570000000000000000000000000000002000000000000007000000000000016497435000000000000009999123100000010000000000000BRCESPACNPB4119
012013100102CGAS3       010COMGAS      ON           R$  000000000535000000000054000000000005350000000000539500000000054000000000004871000000000600000006000000000000001100000000000005935000000000000000009999123100000010000000000000BRCGASACNOR0132
012013100196CGAS3F      020COMGAS      ON           R$  000000000540000000000054000000000005400000000000540000000000054000000000005400000000000550000001000000000000000032000000000000172800000000000000009999123100000010000000000000BRCGASACNOR0132
012013100102CGAS5       010COMGAS      PNA          R$  000000000579300000000058500000000005793000000000583800000000058500000000005820000000000589300014000000000000001900000000000011092600000000000000009999123100000010000000000000BRCGASACNPA3129
012013100196CGAS5F      020COMGAS      PNA          R$  000000000581000000000058550000000005810000000000583200000000058550000000005800000000000583400002000000000000000002000000000000011665000000000000009999123100000010000000000000BRCGASACNPA3129
012013100102CGRA3       010GRAZZIOTIN  ON           R$  000000000165000000000016500000000001649000000000164900000000016490000000001625000000000164900004000000000000001400000000000002309800000000000000009999123100000010000000000000BRCGRAACNOR2061
012013100102CGRA4       010GRAZZIOTIN  PN           R$  000000000179000000000017930000000001775000000000178100000000017780000000001777000000000179300032000000000000006100000000000010867300000000000000009999123100000010000000000000BRCGRAACNPR9061
012013100196CGRA4F      020GRAZZIOTIN  PN           R$  000000000177000000000017800000000001760000000000177600000000017800000000001770000000000178000010000000000000000075000000000000133220000000000000009999123100000010000000000000BRCGRAACNPR9061
012013100102CIEL3       010CIELO       ON      NM   R$  000000000611000000000061200000000005972000000000605700000000061100000000006100000000000611005890000000000001272000000000007705376900000000000000009999123100000010000000000000BRCIELACNOR3112
012013100196CIEL3F      020CIELO       ON      NM   R$  000000000605500000000061150000000005973000000000604400000000061150000000006115000000000611900446000000000000011493000000000069468703000000000000009999123100000010000000000000BRCIELACNOR3112
012013100178CIELA63     070CIEL        ON      NM000R$  000000000027200000000002730000000000272000000000027200000000002730000000000000000000000000000003000000000000067700000000000018449100000000000630002014012000000010000000000000BRCIELACNOR3112
012013100178CIELJ61     070CIEL        ON      NM000R$  000000000010000000000001000000000000100000000000010000000000001000000000000000000000000000000001000000000000000300000000000000030000000000000610002013102100000010000000000000BRCIELACNOR3112
012013100178CIELJ63     070CIEL        ON      NM000R$  000000000003900000000000390000000000039000000000003900000000000390000000000000000000000000000002000000000000000900000000000000035100000000000630002013102100000010000000000000BRCIELACNOR3112
012013100182CIELV55     080CIELE       ON      NM000R$  000000000001200000000000120000000000012000000000001200000000000120000000000000000000000000000001000000000000001000000000000000012000000000000539402013102100000010000000000000BRCIELACNOR3111
012013100102CLSC4       010CELESC      PN      N2   R$  000000000178200000000017900000000001775000000000178200000000017820000000001775000000000178300063000000000000012000000000000021391100000000000000009999123100000010000000000000BRCLSCACNPR3107
012013100196CLSC4F      020CELESC      PN      N2   R$  000000000176500000000017650000000001750000000000175200000000017500000000001751000000000178900002000000000000000066000000000000115680000000000000009999123100000010000000000000BRCLSCACNPR3107
012013100102CMIG3       010CEMIG       ON      N1   R$  000000000185300000000019100000000001853000000000189300000000018880000000001888000000000190600331000000000000086900000000000164506800000000000000009999123100000010000000000000BRCMIGACNOR6208
012013100196CMIG3F      020CEMIG       ON      N1   R$  000000000190000000000019080000000001894000000000190000000000019000000000001900000000000191000018000000000000000393000000000000746954000000000000009999123100000010000000000000BRCMIGACNOR6208
012013100162CMIG3T      030CEMIG       ON      N1090R$  000000000194200000000019430000000001942000000000194200000000019430000000000000000000000000000002000000000000001551000000000003012208000000000000009999123100000010000000000000BRCMIGACNOR6208
012013100102CMIG4       010CEMIG       PN      N1   R$  000000000194300000000019450000000001909000000000192700000000019440000000001930000000000194408614000000000002025000000000003903833300000000000000009999123100000010000000000000BRCMIGACNPR3208
012013100196CMIG4F      020CEMIG       PN      N1   R$  000000000191600000000019450000000001910000000000192800000000019220000000001922000000000193800255000000000000005918000000000011411661000000000000009999123100000010000000000000BRCMIGACNPR3208
012013100162CMIG4T      030CEMIG       PN      N1016R$  000000000192500000000019260000000001925000000000192500000000019260000000000000000000000000000002000000000000005000000000000009626942000000000000009999123100000010000000000000BRCMIGACNPR3208
012013100162CMIG4T      030CEMIG       PN      N1030R$  000000000194000000000019410000000001940000000000194000000000019410000000000000000000000000000002000000000000000600000000000001164151000000000000009999123100000010000000000000BRCMIGACNPR3208
012013100162CMIG4T      030CEMIG       PN      N1090R$  000000000197500000000019760000000001975000000000197500000000019760000000000000000000000000000002000000000000000200000000000000395011000000000000009999123100000010000000000000BRCMIGACNPR3208
012013100178CMIGJ19     070CMIG        PN      N1000R$  000000000006000000000000600000000000060000000000006000000000000600000000000000000000000000000002000000000000000200000000000000012000000000000190002013102100000010000000000000BRCMIGACNPR3208
012013100112CNES11B     010FII CENESP  CI  ER  MB   R$  000000001269900000000127000000000012699000000001269900000000127000000000012500000000001274000002000000000000000058000000000000736590000000000000009999123100000010000000000000BRCNESCTF001126
012013100102COCA34      010COCA COLA   DRN          R$  000000000839100000000083910000000008391000000000839100000000083910000000008360000000000869400001000000000000000500000000000004195500000000000000009999123100000010000000000000BRCOCABDR002109
012013100102COCE3       010COELCE      ON           R$  000000000409900000000040990000000004010000000000404000000000040490000000004020000000000404900023000000000000004700000000000018988300000000000000009999123100000010000000000000BRCOCEACNOR0132
012013100102COCE5       010COELCE      PNA          R$  000000000381500000000038750000000003809000000000383600000000038450000000003845000000000385700135000000000000130900000000000502257000000000000000009999123100000010000000000000BRCOCEACNPA3133
012013100196COCE5F      020COELCE      PNA          R$  000000000387000000000038700000000003800000000000383300000000038300000000003825000000000389700023000000000000000523000000000002004819000000000000009999123100000010000000000000BRCOCEACNPA3133
012013100102CPFE3       010CPFL ENERGIAON      NM   R$  000000000193600000000019370000000001912000000000192400000000019250000000001923000000000192503995000000000000748300000000001440139000000000000000009999123100000010000000000000BRCPFEACNOR0122
012013100196CPFE3F      020CPFL ENERGIAON      NM   R$  000000000203400000000020340000000001902000000000192600000000019450000000001910000000000194000046000000000000001207000000000002325543000000000000009999123100000010000000000000BRCPFEACNOR0122
012013100162CPFE3T      030CPFL ENERGIAON      NM062R$  000000000194400000000019450000000001944000000000194400000000019450000000000000000000000000000002000000000000001000000000000001944221000000000000009999123100000010000000000000BRCPFEACNOR0122
012013100102CPLE3       010COPEL       ON      N1   R$  000000000225500000000023090000000002243000000000226700000000022500000000002248000000000225000116000000000000059000000000000133789000000000000000009999123100000010000000000000BRCPLEACNOR8128
012013100102CPLE6       010COPEL       PNB     N1   R$  000000000313000000000031670000000003105000000000313800000000031300000000003130000000000313802172000000000000346800000000001088436100000000000000009999123100000010000000000000BRCPLEACNPB9125
012013100196CPLE6F      020COPEL       PNB     N1   R$  000000000312100000000031990000000003039000000000314400000000031310000000003130000000000313100047000000000000001406000000000004420463000000000000009999123100000010000000000000BRCPLEACNPB9125
012013100102CPRE3       010CPFL RENOVAVON      NM   R$  000000000137700000000013770000000001351000000000136100000000013690000000001351000000000136900039000000000000032600000000000044388600000000000000009999123100000010000000000000BRCPREACNOR5100
012013100196CPRE3F      020CPFL RENOVAVON      NM   R$  000000000132000000000013670000000001320000000000135200000000013600000000001351000000000137000018000000000000000722000000000000976769000000000000009999123100000010000000000000BRCPREACNOR5100
012013100102CRDE3       010CR2         ON      NM   R$  000000000041000000000004100000000000395000000000040300000000003950000000000395000000000040500011000000000000007800000000000003143800000000000000009999123100000010000000000000BRCRDEACNOR1108
012013100196CRDE3F      020CR2         ON      NM   R$  000000000040200000000004020000000000400000000000040000000000004000000000000400000000000044800003000000000000000100000000000000040084000000000000009999123100000010000000000000BRCRDEACNOR1108
012013100102CREM3       010CREMER      ON      NM   R$  000000000148300000000015410000000001483000000000152300000000015220000000001495000000000152200057000000000000007500000000000011423200000000000000009999123100000010000000000000BRCREMACNOR2167
012013100196CREM3F      020CREMER      ON      NM   R$  000000000159400000000018000000000001594000000000173500000000018000000000001480000000000160000005000000000000000084000000000000145768000000000000009999123100000010000000000000BRCREMACNOR2167
012013100102CRIV4       010ALFA FINANC PN           R$  000000000044700000000004470000000000440000000000044200000000004450000000000435000000000044600010000000000000003000000000000001326800000000000000009999123100000010000000000000BRCRIVACNPR1190
012013100102CRUZ3       010SOUZA CRUZ  ON  EDJ      R$  000000000264100000000026480000000002585000000000261300000000026000000000002600000000000260504760000000000001324200000000003461085300000000000000009999123100000010000000000000BRCRUZACNOR0248
012013100196CRUZ3F      020SOUZA CRUZ  ON  EDJ      R$  000000000267900000000027110000000002588000000000262000000000026500000000002608000000000265000199000000000000002241000000000005872286000000000000009999123100000010000000000000BRCRUZACNOR0248
012013100162CRUZ3T      030SOUZA CRUZ  ON  EDJ   016R$  000000000264000000000026410000000002640000000000264000000000026410000000000000000000000000000002000000000000001500000000000003960457000000000000009999123100000010000000000000BRCRUZACNOR0248
012013100162CRUZ3T      030SOUZA CRUZ  ON  EDJ   030R$  000000000261200000000026130000000002612000000000261200000000026130000000000000000000000000000002000000000000008000000000000020901654000000000000009999123100000010000000000000BRCRUZACNOR0248
012013100162CRUZ3T      030SOUZA CRUZ  ON  EDJ   062R$  000000000263600000000026380000000002636000000000263700000000026380000000000000000000000000000004000000000000001300000000000003428516000000000000009999123100000010000000000000BRCRUZACNOR0248
012013100102CSAN3       010COSAN       ON      NM   R$  000000000431700000000044140000000004273000000000433900000000044140000000004402000000000441405118000000000001327500000000005760399300000000000000009999123100000010000000000000BRCSANACNOR6108
012013100196CSAN3F      020COSAN       ON      NM   R$  000000000429900000000044300000000004282000000000435200000000044290000000004315000000000442900094000000000000002774000000000012073504000000000000009999123100000010000000000000BRCSANACNOR6108
012013100162CSAN3T      030COSAN       ON      NM090R$  000000000449100000000044920000000004491000000000449100000000044920000000000000000000000000000002000000000000001000000000000004491698000000000000009999123100000010000000000000BRCSANACNOR6108
012013100102CSCO34      010CISCO       DRN ED       R$  000000000516500000000052130000000005135000000000516400000000051350000000005135000000000521500007000000000000023500000000000121363100000000000000009999123100000010000000000000BRCSCOBDR004111
012013100102CSMG3       010COPASA      ON  EJ  NM   R$  000000000347900000000035120000000003400000000000343800000000034500000000003450000000000346002100000000000000323000000000001110629100000000000000009999123100000010000000000000BRCSMGACNOR5128
012013100196CSMG3F      020COPASA      ON  EJ  NM   R$  000000000354800000000035530000000003411000000000345600000000034550000000003410000000000356000022000000000000000631000000000002181151000000000000009999123100000010000000000000BRCSMGACNOR5128
012013100114CSMO11      010ISHARES CSMOCI           R$  000000000475000000000047600000000004750000000000475300000000047600000000004770000000000485000004000000000000000370000000000001758920000000000000009999123100000010000000000000BRCSMOCTF002100
012013100102CSNA3       010SID NACIONALON           R$  000000000095000000000009530000000000924000000000093700000000009400000000000938000000000094016464000000000007365200000000006903123900000000000000009999123100000010000000000000BRCSNAACNOR6243
012013100196CSNA3F      020SID NACIONALON           R$  000000000093800000000009470000000000929000000000093700000000009350000000000935000000000093800059000000000000001552000000000001454767000000000000009999123100000010000000000000BRCSNAACNOR6243
012013100162CSNA3T      030SID NACIONALON        020R$  000000000094000000000009410000000000940000000000094000000000009410000000000000000000000000000002000000000000010000000000000009408672000000000000009999123100000010000000000000BRCSNAACNOR6243
012013100162CSNA3T      030SID NACIONALON        090R$  000000000095700000000009590000000000954000000000095800000000009590000000000000000000000000000006000000000000011600000000000011113403000000000000009999123100000010000000000000BRCSNAACNOR6243
012013100178CSNAJ10     070CSNA  FM    ON        000R$  000000000001400000000000150000000000011000000000001300000000000110000000000009000000000004500005000000000000013000000000000000172000000000000100002013102100000010000000000000BRCSNAACNOR6243
012013100178CSNAJ60     070CSNA        ON        000R$  000000000000500000000000050000000000005000000000000500000000000050000000000000000000000001000001000000000000000600000000000000003000000000000106002013102100000010000000000000BRCSNAACNOR6243
012013100178CSNAJ72     070CSNA        ON        000R$  000000000024000000000002400000000000240000000000024000000000002400000000000000000000000000000001000000000000001000000000000000240000000000000070002013102100000010000000000000BRCSNAACNOR6242
012013100178CSNAJ8      070CSNA        ON        000R$  000000000017000000000001700000000000160000000000016000000000001600000000000160000000000019700003000000000000002000000000000000321000000000000078002013102100000010000000000000BRCSNAACNOR6242
012013100178CSNAJ82     070CSNA        ON        000R$  000000000015100000000001510000000000151000000000015100000000001510000000000000000000000000000001000000000000000400000000000000060400000000000080002013102100000010000000000000BRCSNAACNOR6242
012013100178CSNAJ9      070CSNA        ON        000R$  000000000007000000000000700000000000070000000000007000000000000700000000000069000000000015700004000000000000007200000000000000504000000000000088002013102100000010000000000000BRCSNAACNOR6242
012013100178CSNAJ94     070CSNA  FM    ON        000R$  000000000003800000000000410000000000034000000000003700000000000340000000000000000000000000000005000000000000010700000000000000404900000000000094002013102100000010000000000000BRCSNAACNOR6243
012013100178CSNAJ96     070CSNA  FM    ON        000R$  000000000002800000000000280000000000025000000000002700000000000250000000000000000000000003000003000000000000003600000000000000100500000000000096002013102100000010000000000000BRCSNAACNOR6243
012013100178CSNAJ98     070CSNA  FM    ON        000R$  000000000002100000000000210000000000017000000000001900000000000170000000000003000000000001900003000000000000009900000000000000195100000000000098002013102100000010000000000000BRCSNAACNOR6243
012013100178CSNAK10     070CSNA  FM    ON        000R$  000000000004200000000000420000000000037000000000003900000000000370000000000000000000000003900007000000000000008800000000000000351100000000000098002013111800000010000000000000BRCSNAACNOR6242
012013100178CSNAK40     070CSNA        ON        000R$  000000000002300000000000230000000000023000000000002300000000000230000000000000000000000002300002000000000000007000000000000000161000000000000104002013111800000010000000000000BRCSNAACNOR6243
012013100178CSNAK8      070CSNA        ON        000R$  000000000018000000000001800000000000168000000000017100000000001680000000000000000000000000000003000000000000002000000000000000343000000000000078002013111800000010000000000000BRCSNAACNOR6242
012013100178CSNAK88     070CSNA        ON        000R$  000000000008500000000000850000000000085000000000008500000000000850000000000000000000000000000001000000000000001000000000000000085000000000000088002013111800000010000000000000BRCSNAACNOR6243
012013100178CSNAK92     070CSNA        ON        000R$  000000000006500000000000650000000000065000000000006500000000000650000000000000000000000000000002000000000000002000000000000000130000000000000092002013111800000010000000000000BRCSNAACNOR6243
012013100178CSNAK94     070CSNA  FM    ON        000R$  000000000006600000000000660000000000056000000000006200000000000560000000000000000000000000000006000000000000015400000000000000957700000000000094002013111800000010000000000000BRCSNAACNOR6243
012013100178CSNAK96     070CSNA  FM    ON        000R$  000000000005200000000000520000000000050000000000005100000000000510000000000000000000000000000006000000000000010700000000000000548000000000000096002013111800000010000000000000BRCSNAACNOR6243
012013100178CSNAL16     070CSNA        ON        000R$  000000000002100000000000210000000000021000000000002100000000000210000000000000000000000003000001000000000000001000000000000000021000000000000154702013121600000010000000000000BRCSNAACNOR6241
012013100182CSNAV10     080CSNAE       ON        000R$  000000000006500000000000810000000000063000000000006800000000000810000000000066000000000007800010000000000000001100000000000000075600000000000100002013102100000010000000000000BRCSNAACNOR6243
012013100182CSNAV8      080CSNAE       ON        000R$  000000000000300000000000030000000000003000000000000300000000000030000000000000000000000000300002000000000000002000000000000000006000000000000078002013102100000010000000000000BRCSNAACNOR6242
012013100182CSNAV9      080CSNAE       ON        000R$  000000000001400000000000160000000000014000000000001500000000000150000000000009000000000001800009000000000000004800000000000000073300000000000088002013102100000010000000000000BRCSNAACNOR6242
012013100182CSNAV92     080CSNAE FM    ON        000R$  000000000003000000000000300000000000030000000000003000000000000300000000000000000000000004000001000000000000002000000000000000060000000000000092002013102100000010000000000000BRCSNAACNOR6243
012013100182CSNAV98     080CSNAE FM    ON        000R$  000000000005400000000000610000000000054000000000005500000000000610000000000000000000000000000004000000000000003900000000000000215900000000000098002013102100000010000000000000BRCSNAACNOR6243
012013100182CSNAW10     080CSNAE       ON        000R$  000000000007600000000000760000000000076000000000007600000000000760000000000064000000000000000001000000000000001400000000000000106400000000000098002013111800000010000000000000BRCSNAACNOR6242
012013100182CSNAW92     080CSNAE FM    ON        000R$  000000000004300000000000450000000000043000000000004300000000000450000000000000000000000000000003000000000000005600000000000000245000000000000092002013111800000010000000000000BRCSNAACNOR6243
012013100182CSNAW94     080CSNAE FM    ON        000R$  000000000005200000000000520000000000051000000000005100000000000510000000000000000000000000000002000000000000004200000000000000216700000000000094002013111800000010000000000000BRCSNAACNOR6243
012013100182CSNAW96     080CSNAE FM    ON        000R$  000000000006100000000000670000000000061000000000006300000000000640000000000000000000000000000018000000000000028800000000000001829900000000000096002013111800000010000000000000BRCSNAACNOR6243
012013100196CSRN3F      020COSERN      ON           R$  000000000095000000000009500000000000950000000000095000000000009500000000000900000000000110000001000000000000000006000000000000005700000000000000009999123100000010000000000000BRCSRNACNOR0148
012013100102CTAX11      010CONTAX      UNT     N2   R$  000000000190000000000019190000000001870000000000188600000000019000000000001900000000000195800245000000000000186700000000000352263700000000000000009999123100000010000000000000BRCTAXCDAM19100
012013100102CTAX3       010CONTAX      ON      N2   R$  000000000039000000000003900000000000375000000000038400000000003750000000000370000000000039900005000000000000001500000000000000577000000000000000009999123100000010000000000000BRCTAXACNOR3113
012013100102CTAX4       010CONTAX      PN      N2   R$  000000000037000000000003780000000000364000000000037000000000003730000000000370000000000037300072000000000000034700000000000012867500000000000000009999123100000010000000000000BRCTAXACNPR0114
012013100196CTAX4F      020CONTAX      PN      N2   R$  000000000038100000000003810000000000366000000000036900000000003660000000000342000000000037900002000000000000000027000000000000009987000000000000009999123100000010000000000000BRCTAXACNPR0114
012013100102CTIP3       010CETIP       ON  EJ  NM   R$  000000000236300000000023630000000002318000000000233600000000023600000000002353000000000236008849000000000002119500000000004953129200000000000000009999123100000010000000000000BRCTIPACNOR2120
012013100196CTIP3F      020CETIP       ON  EJ  NM   R$  000000000234800000000024150000000002320000000000233700000000023470000000002325000000000235000042000000000000001258000000000002940763000000000000009999123100000010000000000000BRCTIPACNOR2120
012013100178CTIPA22     070CTIP    /EJ ON      NM000R$  000000000025200000000002530000000000252000000000025200000000002530000000000000000000000000000002000000000000073800000000000018636400000000000220002014012000000010000000000000BRCTIPACNOR2120
012013100102CTNM4       010COTEMINAS   PN           R$  000000000022500000000002270000000000224000000000022400000000002240000000000220000000000022700010000000000000003000000000000000673100000000000000009999123100000010000000000000BRCTNMACNPR6128
012013100196CTNM4F      020COTEMINAS   PN           R$  000000000022100000000002210000000000220000000000022000000000002200000000000221000000000024300002000000000000000020000000000000004410000000000000009999123100000010000000000000BRCTNMACNPR6128
012013100112CXTL11      010FII CX TRX  CI  ER       R$  000000007100000000000710000000000071000000000007100000000000710000000000071100000000007250000001000000000000000001000000000000071000000000000000009999123100000010000000000000BRCXTLCTF003123
012013100102CYRE3       010CYRELA REALTON      NM   R$  000000000169700000000017120000000001677000000000169900000000016980000000001695000000000169807853000000000003041600000000005168686800000000000000009999123100000010000000000000BRCYREACNOR7125
012013100196CYRE3F      020CYRELA REALTON      NM   R$  000000000166200000000017980000000001662000000000171100000000017800000000001690000000000178000060000000000000001565000000000002678307000000000000009999123100000010000000000000BRCYREACNOR7125
012013100162CYRE3T      030CYRELA REALTON      NM016R$  000000000170200000000017030000000001702000000000170200000000017030000000000000000000000000000002000000000000000100000000000000170229000000000000009999123100000010000000000000BRCYREACNOR7125
012013100178CYREJ17     070CYRE  FM    ON      NM000R$  000000000004700000000000510000000000043000000000004900000000000430000000000000000000000005100006000000000000009500000000000000472200000000000170002013102100000010000000000000BRCYREACNOR7125
012013100178CYREJ18     070CYRE  FM    ON      NM000R$  000000000000900000000000120000000000009000000000001000000000000120000000000000000000000001800007000000000000018700000000000000189300000000000180002013102100000010000000000000BRCYREACNOR7125
012013100178CYREJ46     070CYRE  FM    ON      NM000R$  000000000007600000000000820000000000076000000000008000000000000770000000000000000000000000000014000000000000299200000000000024109000000000000165002013102100000010000000000000BRCYREACNOR7125
012013100178CYREJ47     070CYRE  FM    ON      NM000R$  000000000002800000000000280000000000028000000000002800000000000280000000000000000000000000000001000000000000003500000000000000098000000000000175002013102100000010000000000000BRCYREACNOR7125
012013100178CYREK17     070CYRE  FM    ON      NM000R$  000000000008500000000000900000000000081000000000008600000000000820000000000000000000000000000006000000000000010000000000000000863500000000000170002013111800000010000000000000BRCYREACNOR7125
012013100178CYREK18     070CYRE  FM    ON      NM000R$  000000000004300000000000430000000000043000000000004300000000000430000000000000000000000004500003000000000000010000000000000000430000000000000180002013111800000010000000000000BRCYREACNOR7125
012013100178CYREK46     070CYRE  FM    ON      NM000R$  000000000011600000000001210000000000116000000000011800000000001210000000000000000000000000000002000000000000007000000000000000829500000000000165002013111800000010000000000000BRCYREACNOR7125
012013100178CYREK47     070CYRE  FM    ON      NM000R$  000000000006000000000000600000000000060000000000006000000000000600000000000000000000000000000001000000000000003500000000000000210000000000000175002013111800000010000000000000BRCYREACNOR7125
012013100182CYREV17     080CYREE FM    ON      NM000R$  000000000004200000000000420000000000039000000000004100000000000390000000000036000000000000000004000000000000014000000000000000577500000000000170002013102100000010000000000000BRCYREACNOR7125
012013100182CYREV47     080CYREE FM    ON      NM000R$  000000000006900000000000690000000000062000000000006200000000000620000000000000000000000000000003000000000000006900000000000000434100000000000175002013102100000010000000000000BRCYREACNOR7125
012013100182CYREV57     080CYREE       ON      NM000R$  000000000004900000000000520000000000048000000000004900000000000520000000000000000000000000000003000000000000010500000000000000521500000000000172502013102100000010000000000000BRCYREACNOR7125
012013100182CYREW16     080CYREE FM    ON      NM000R$  000000000003500000000000350000000000035000000000003500000000000350000000000000000000000000000001000000000000001000000000000000035000000000000160002013111800000010000000000000BRCYREACNOR7125
012013100182CYREW17     080CYREE FM    ON      NM000R$  000000000006800000000000680000000000065000000000006600000000000650000000000000000000000000000006000000000000015000000000000000990000000000000170002013111800000010000000000000BRCYREACNOR7125
012013100182CYREW47     080CYREE FM    ON      NM000R$  000000000009200000000000930000000000089000000000009100000000000930000000000000000000000000000004000000000000011500000000000001048500000000000175002013111800000010000000000000BRCYREACNOR7125
012013100102CZLT33      010COSAN LTD   DR3          R$  000000000343700000000036000000000003380000000000346400000000036000000000003517000000000360000772000000000000321200000000001112707200000000000000009999123100000010000000000000BRCZLTBDR009105
012013100196CZLT33F     020COSAN LTD   DR3          R$  000000000344500000000034600000000003445000000000345200000000034600000000003460000000000360000003000000000000000096000000000000331450000000000000009999123100000010000000000000BRCZLTBDR009105
012013100102DAGB33      010DUFRY AG    DR3          R$  000000003343900000000344990000000033260000000003379600000000340000000000033701000000003400000295000000000000008046000000000271923772000000000000009999123100000010000000000000BRDAGBBDR008100
012013100102DASA3       010DASA        ON      NM   R$  000000000116200000000012020000000001159000000000118800000000011890000000001188000000000118902806000000000001124100000000001336021400000000000000009999123100000010000000000000BRDASAACNOR1108
012013100196DASA3F      020DASA        ON      NM   R$  000000000119900000000012000000000001162000000000118800000000011900000000001176000000000125200017000000000000000452000000000000537163000000000000009999123100000010000000000000BRDASAACNOR1108
012013100102DAYC4       010DAYCOVAL    PN  EJ  N2   R$  000000000086500000000008860000000000854000000000087600000000008750000000000875000000000088300095000000000000036500000000000031977200000000000000009999123100000010000000000000BRDAYCACNPR2129
012013100196DAYC4F      020DAYCOVAL    PN  EJ  N2   R$  000000000099800000000009980000000000856000000000087400000000008560000000000856000000000092900006000000000000000170000000000000148716000000000000009999123100000010000000000000BRDAYCACNPR2129
012013100102DIRR3       010DIRECIONAL  ON      NM   R$  000000000120600000000012140000000001187000000000119900000000011950000000001195000000000119802498000000000001001500000000001201129300000000000000009999123100000010000000000000BRDIRRACNOR0104
012013100196DIRR3F      020DIRECIONAL  ON      NM   R$  000000000120300000000013000000000001189000000000120300000000011910000000001188000000000120000072000000000000001570000000000001889796000000000000009999123100000010000000000000BRDIRRACNOR0104
012013100162DIRR3T      030DIRECIONAL  ON      NM030R$  000000000120800000000012090000000001198000000000120300000000011990000000000000000000000000000004000000000000010000000000000012037235000000000000009999123100000010000000000000BRDIRRACNOR0104
012013100178DIRRJ12     070DIRR        ON      NM000R$  000000000003000000000000300000000000030000000000003000000000000300000000000030000000000000000002000000000000076300000000000002289000000000000120002013102100000010000000000000BRDIRRACNOR0104
012013100102DISB34      010WALT DISNEY DRN          R$  000000001436400000000143640000000014364000000001436400000000143640000000014364000000000000000001000000000000000500000000000007182000000000000000009999123100000010000000000000BRDISBBDR006102
012013100114DIVO11      010IT NOW IDIV CI           R$  000000000339200000000034260000000003380000000000340900000000034260000000003426000000000347500034000000000000016020000000000054617930000000000000009999123100000010000000000000BRDIVOCTF002100
