00COTAHIST.2013BOVESPA 20130812                                                                                                                                                                                                                      
012013081202AAPL11B     010APPLE       DRN ED  MB   R$  000000001061900000000106190000000010619000000001061900000000106190000000010610000000001075500001000000000000000400000000000004247600000000000000009999123100000010000000000000BRAAPLBDR004105
012013081296ABCB10F     020ABC BRASIL  PN  REC N2   R$  000000000120000000000012000000000001200000000000120000000000012000000000001100000000000120000001000000000000000001000000000000001200000000000000009999123100000010000000000000BRABCBR04PR3119
012013081202ABCB4       010ABC BRASIL  PN      N2   R$  000000000125000000000012690000000001247000000000125100000000012500000000001250000000000126200248000000000000119300000000000149343800000000000000009999123100000010000000000000BRABCBACNPR4120
012013081296ABCB4F      020ABC BRASIL  PN      N2   R$  000000000125700000000012570000000001241000000000125000000000012410000000001250000000000125100005000000000000000095000000000000118828000000000000009999123100000010000000000000BRABCBACNPR4120
012013081212ABCP11      010FII ABC IMOBCI  ER       R$  000000000096700000000009670000000000967000000000096700000000009670000000000902000000000096700001000000000000000010000000000000009670000000000000009999123100000010000000000000BRABCPCTF000214
012013081202ABRE11      010ABRIL EDUCA UNT     N2   R$  000000000347000000000035160000000003420000000000347600000000034700000000003470000000000347300463000000000000126800000000000440881900000000000000009999123100000010000000000000BRABRECDAM15102
012013081296ABRE11F     020ABRIL EDUCA UNT     N2   R$  000000000345000000000035000000000003351000000000348700000000034500000000003450000000000350000013000000000000000199000000000000694043000000000000009999123100000010000000000000BRABRECDAM15102
012013081202AEDU3       010ANHANGUERA  ON      NM   R$  000000000139500000000014050000000001383000000000139700000000014000000000001394000000000140005530000000000001218500000000001703038800000000000000009999123100000010000000000000BRAEDUACNOR9107
012013081296AEDU3F      020ANHANGUERA  ON      NM   R$  000000000139700000000014000000000001355000000000139100000000014000000000001390000000000140000011000000000000000415000000000000577644000000000000009999123100000010000000000000BRAEDUACNOR9107
012013081278AEDUI44     070AEDU        ON      NM000R$  000000000001100000000000110000000000011000000000001100000000000110000000000000000000000000000003000000000000000600000000000000006600000000000145002013091600000010000000000000BRAEDUACNOR9107
012013081212AEFI11      010FII AESAPAR CI  ER       R$  000000001250000000000125390000000012450000000001248500000000124500000000012448000000001250000025000000000000001114000000000013908300000000000000009999123100000010000000000000BRAEFICTF002120
012013081202AELP3       010AES ELPA    ON           R$  000000000077700000000007770000000000777000000000077700000000007770000000000720000000000077700005000000000000000500000000000000388500000000000000009999123100000010000000000000BRAELPACNOR2119
012013081212AGCX11      010FII AG CAIXACI  ER       R$  000000009970000000000997500000000099010000000009959600000000990100000000099010000000009950000013000000000000000116000000000011553211000000000000009999123100000010000000000000BRAGCXCTF003109
012013081202AGRO3       010BRASILAGRO  ON      NM   R$  000000000112700000000011280000000001020000000000102000000000010200000000001020000000000110000070000000000000388000000000000396082000000000000000009999123100000010000000000000BRAGROACNOR7102
012013081262AGRO3T      030BRASILAGRO  ON      NM016R$  000000000102400000000010250000000001024000000000102400000000010250000000000000000000000000000004000000000000004000000000000004097646000000000000009999123100000010000000000000BRAGROACNOR7102
012013081262AGRO3T      030BRASILAGRO  ON      NM060R$  000000000103400000000010350000000001034000000000103400000000010350000000000000000000000000000002000000000000000500000000000000517038000000000000009999123100000010000000000000BRAGROACNOR7102
012013081202ALLL3       010ALL AMER LATON      NM   R$  000000000090800000000009180000000000878000000000089400000000008790000000000879000000000088008578000000000002451700000000002192849600000000000000009999123100000010000000000000BRALLLACNOR6118
012013081296ALLL3F      020ALL AMER LATON      NM   R$  000000000090500000000009190000000000866000000000088900000000008660000000000871000000000089000024000000000000000628000000000000557202000000000000009999123100000010000000000000BRALLLACNOR6118
012013081262ALLL3T      030ALL AMER LATON      NM030R$  000000000088500000000008860000000000885000000000088500000000008860000000000000000000000000000002000000000000000500000000000000442533000000000000009999123100000010000000000000BRALLLACNOR6118
012013081262ALLL3T      030ALL AMER LATON      NM091R$  000000000093300000000009340000000000933000000000093300000000009340000000000000000000000000000002000000000000002500000000000002333708000000000000009999123100000010000000000000BRALLLACNOR6118
012013081212ALMI11B     010FII TORRE ALCI  ER  MB   R$  000000031200000000003149990000000305200000000030836400000003149990000000310100000000031739900015000000000000000110000000000033920081000000000000009999123100000010000000000000BRALMICTF003204
012013081202ALPA3       010ALPARGATAS  ON      N1   R$  000000000118400000000012680000000001180000000000126000000000012600000000001186000000000126000028000000000000051900000000000065417500000000000000009999123100000010000000000000BRALPAACNOR0202
012013081296ALPA3F      020ALPARGATAS  ON      N1   R$  000000000118000000000012980000000001180000000000127000000000012980000000001118000000000000000006000000000000000086000000000000109268000000000000009999123100000010000000000000BRALPAACNOR0202
012013081202ALPA4       010ALPARGATAS  PN      N1   R$  000000000138000000000014140000000001374000000000139300000000014050000000001400000000000140503581000000000000742500000000001034775600000000000000009999123100000010000000000000BRALPAACNPR7202
012013081296ALPA4F      020ALPARGATAS  PN      N1   R$  000000000140200000000014320000000001380000000000140300000000014320000000001394000000000143200228000000000000003623000000000005086486000000000000009999123100000010000000000000BRALPAACNPR7202
012013081262ALPA4T      030ALPARGATAS  PN      N1120R$  000000000143400000000014340000000001434000000000143400000000014340000000000000000000000000000001000000000000000001000000000000001434000000000000009999123100000010000000000000BRALPAACNPR7202
012013081202ALSC3       010ALIANSCE    ON      NM   R$  000000000209400000000020940000000002025000000000205300000000020300000000002028000000000203302336000000000000394900000000000810744800000000000000009999123100000010000000000000BRALSCACNOR0104
012013081296ALSC3F      020ALIANSCE    ON      NM   R$  000000000210000000000021000000000002045000000000209400000000020450000000002020000000000206000003000000000000000020000000000000041895000000000000009999123100000010000000000000BRALSCACNOR0104
012013081202ALUP11      010ALUPAR      UNT     N2   R$  000000000168900000000016900000000001661000000000168100000000016700000000001670000000000167500232000000000000129400000000000217602800000000000000009999123100000010000000000000BRALUPCDAM15100
012013081296ALUP11F     020ALUPAR      UNT     N2   R$  000000000168000000000017890000000001673000000000169200000000016730000000001651000000000168000019000000000000000587000000000000993501000000000000009999123100000010000000000000BRALUPCDAM15100
012013081262ALUP11T     030ALUPAR      UNT     N2197R$  000000000176900000000017700000000001769000000000176900000000017700000000000000000000000000000002000000000000000200000000000000353808000000000000009999123100000010000000000000BRALUPCDAM15100
012013081202AMAR3       010LOJAS MARISAON      NM   R$  000000000211000000000021530000000002093000000000212200000000021380000000002125000000000213801318000000000000273900000000000581481100000000000000009999123100000010000000000000BRAMARACNOR4109
012013081296AMAR3F      020LOJAS MARISAON      NM   R$  000000000211000000000021340000000002100000000000211100000000021180000000002118000000000242400010000000000000000233000000000000491895000000000000009999123100000010000000000000BRAMARACNOR4109
012013081202AMBV3       010AMBEV       ON           R$  000000000851700000000085770000000008387000000000846700000000084850000000008466000000000848501517000000000000250300000000002119524000000000000000009999123100000010000000000000BRAMBVACNOR4153
012013081296AMBV3F      020AMBEV       ON           R$  000000000855000000000086870000000008390000000000845800000000084310000000008255000000000845000023000000000000000518000000000004381488000000000000009999123100000010000000000000BRAMBVACNOR4153
012013081262AMBV3T      030AMBEV       ON        030R$  000000000847900000000084800000000008479000000000847900000000084800000000000000000000000000000002000000000000002000000000000016959838000000000000009999123100000010000000000000BRAMBVACNOR4153
012013081262AMBV3T      030AMBEV       ON        060R$  000000000859500000000085960000000008595000000000859500000000085960000000000000000000000000000002000000000000000200000000000001719099000000000000009999123100000010000000000000BRAMBVACNOR4153
012013081202AMBV4       010AMBEV       PN           R$  000000000852200000000085900000000008396000000000846500000000084860000000008485000000000848607786000000000001370900000000011605794200000000000000009999123100000010000000000000BRAMBVACNPR1153
012013081296AMBV4F      020AMBEV       PN           R$  000000000848900000000085800000000008398000000000847500000000084980000000008431000000000849800147000000000000003120000000000026444608000000000000009999123100000010000000000000BRAMBVACNPR1153
012013081262AMBV4T      030AMBEV       PN        030R$  000000000862600000000086270000000008626000000000862600000000086270000000000000000000000000000002000000000000001000000000000008626768000000000000009999123100000010000000000000BRAMBVACNPR1153
012013081262AMBV4T      030AMBEV       PN        060R$  000000000852600000000085270000000008526000000000852600000000085270000000000000000000000000000002000000000000000300000000000002558070000000000000009999123100000010000000000000BRAMBVACNPR1153
012013081262AMBV4T      030AMBEV       PN        120R$  000000000869600000000086970000000008696000000000869600000000086970000000000000000000000000000002000000000000000028000000000000243502000000000000009999123100000010000000000000BRAMBVACNPR1153
012013081278AMBVH84     070AMBV        PN        000R$  000000000009000000000000900000000000090000000000009000000000000900000000000029000000000000000006000000000000002100000000000000189000000000000840002013081900000010000000000000BRAMBVACNPR1153
012013081278AMBVH85     070AMBV        PN        000R$  000000000013000000000001300000000000130000000000013000000000001300000000000000000000000000000007000000000000001400000000000000182000000000000850002013081900000010000000000000BRAMBVACNPR1153
012013081278AMBVH86     070AMBV        PN        000R$  000000000003500000000000360000000000023000000000003200000000000230000000000000000000000020000042000000000000017700000000000000571000000000000860002013081900000010000000000000BRAMBVACNPR1153
012013081278AMBVH87     070AMBV        PN        000R$  000000000004000000000000400000000000040000000000004000000000000400000000000000000000000012000006000000000000007000000000000000280000000000000870002013081900000010000000000000BRAMBVACNPR1153
012013081278AMBVH90     070AMBV        PN        000R$  000000000002500000000000250000000000025000000000002500000000000250000000000000000000000000000001000000000000000100000000000000002500000000000900002013081900000010000000000000BRAMBVACNPR1153
012013081278AMBVI86     070AMBV        PN        000R$  000000000021000000000002100000000000210000000000021000000000002100000000000000000000000021000002000000000000000800000000000000168000000000000860002013091600000010000000000000BRAMBVACNPR1153
012013081278AMBVI88     070AMBV        PN        000R$  000000000004200000000000450000000000042000000000004400000000000450000000000000000000000000000004000000000000004000000000000000176800000000000880002013091600000010000000000000BRAMBVACNPR1153
012013081278AMBVI90     070AMBV        PN        000R$  000000000004000000000000400000000000040000000000004000000000000400000000000040000000000000000001000000000000000400000000000000016000000000000900002013091600000010000000000000BRAMBVACNPR1153
012013081202ARTR3       010ARTERIS     ON      NM   R$  000000000224700000000022510000000002194000000000221800000000022470000000002207000000000224706860000000000003641200000000008077093200000000000000009999123100000010000000000000BRARTRACNOR3101
012013081296ARTR3F      020ARTERIS     ON      NM   R$  000000000224000000000022510000000002202000000000222800000000022050000000002216000000000221900023000000000000000833000000000001856488000000000000009999123100000010000000000000BRARTRACNOR3101
012013081202ARZZ3       010AREZZO CO   ON      NM   R$  000000000377500000000038980000000003775000000000385900000000038000000000003800000000000383001104000000000000256000000000000988088200000000000000009999123100000010000000000000BRARZZACNOR3109
012013081296ARZZ3F      020AREZZO CO   ON      NM   R$  000000000383000000000039000000000003800000000000384600000000039000000000003771000000000390000014000000000000000421000000000001619574000000000000009999123100000010000000000000BRARZZACNOR3109
012013081202AUTM3       010AUTOMETAL   ON      NM   R$  000000000182000000000018250000000001760000000000178900000000018250000000001810000000000182601240000000000000200000000000000357804300000000000000009999123100000010000000000000BRAUTMACNOR8109
012013081296AUTM3F      020AUTOMETAL   ON      NM   R$  000000000176600000000017660000000001686000000000169300000000016860000000001705000000000179000002000000000000000088000000000000149008000000000000009999123100000010000000000000BRAUTMACNOR8109
012013081202BAHI3       010BAHEMA      ON           R$  000000000048200000000004820000000000482000000000048200000000004820000000000482000000000049400001000000000000006100000000000002940200000000000000009999123100000010000000000000BRBAHIACNOR1066
012013081202BAUH4       010EXCELSIOR   PN           R$  000000000093800000000009380000000000905000000000093300000000009050000000000800000000000090500005000000000000000700000000000000653100000000000000009999123100000010000000000000BRBAUHACNPR3108
012013081202BAZA3       010AMAZONIA    ON           R$  000000000003300000000000340000000000033000000000003300000000000340000000000033000000000003400004000000000000106000000000000003599000000000000000009999123100000010000000000000BRBAZAACNOR0163
012013081296BAZA3F      020AMAZONIA    ON           R$  000000000003400000000000340000000000034000000000003400000000000340000000000033000000000003500001000000000000000500000000000000017000000000000000009999123100000010000000000000BRBAZAACNOR0163
012013081262BAZA3T      030AMAZONIA    ON        091R$  000000000003400000000000350000000000034000000000003400000000000350000000000000000000000000000002000000000000100000000000000003474120000000000000009999123100000010000000000000BRBAZAACNOR0163
012013081202BBAS3       010BRASIL      ON      NM   R$  000000000226700000000023450000000002265000000000231000000000022950000000002295000000000230021622000000000008003900000000018496214400000000000000009999123100000010000000000000BRBBASACNOR3237
012013081296BBAS3F      020BRASIL      ON      NM   R$  000000000225800000000023450000000002258000000000230800000000022900000000002290000000000231000366000000000000010798000000000024925027000000000000009999123100000010000000000000BRBBASACNOR3237
012013081262BBAS3T      030BRASIL      ON      NM030R$  000000000229100000000023260000000002291000000000230700000000023260000000000000000000000000000006000000000000002700000000000006229690000000000000009999123100000010000000000000BRBBASACNOR3237
012013081262BBAS3T      030BRASIL      ON      NM045R$  000000000233100000000023320000000002331000000000233100000000023320000000000000000000000000000002000000000000001500000000000003497527000000000000009999123100000010000000000000BRBBASACNOR3237
012013081262BBAS3T      030BRASIL      ON      NM060R$  000000000233800000000023390000000002338000000000233800000000023390000000000000000000000000000002000000000000000500000000000001169072000000000000009999123100000010000000000000BRBBASACNOR3237
012013081262BBAS3T      030BRASIL      ON      NM120R$  000000000237900000000023800000000002379000000000237900000000023800000000000000000000000000000002000000000000000032000000000000076146000000000000009999123100000010000000000000BRBBASACNOR3237
012013081278BBASH18     070BBAS        ON      NM000R$  000000000053800000000005380000000000502000000000051800000000005020000000000000000000000000000006000000000000003800000000000001968800000000000180002013081900000010000000000000BRBBASACNOR3237
012013081278BBASH19     070BBAS        ON      NM000R$  000000000044700000000004470000000000441000000000044200000000004410000000000000000000000000000002000000000000001000000000000000442800000000000190002013081900000010000000000000BRBBASACNOR3237
012013081278BBASH20     070BBAS        ON      NM000R$  000000000034000000000003470000000000304000000000032700000000003140000000000000000000000000000018000000000000007800000000000002555500000000000200002013081900000010000000000000BRBBASACNOR3237
012013081278BBASH21     070BBAS        ON      NM000R$  000000000022500000000002710000000000222000000000024600000000002240000000000130000000000000000043000000000000022100000000000005444800000000000207602013081900000010000000000000BRBBASACNOR3236
012013081278BBASH22     070BBAS        ON      NM000R$  000000000010500000000001740000000000105000000000014100000000001450000000000140000000000015900241000000000000207400000000000029422000000000000217602013081900000010000000000000BRBBASACNOR3236
012013081278BBASH23     070BBAS        ON      NM000R$  000000000003400000000000840000000000034000000000005800000000000570000000000035000000000005700249000000000000519100000000000030369300000000000227602013081900000010000000000000BRBBASACNOR3236
012013081278BBASH24     070BBAS        ON      NM000R$  000000000001500000000000520000000000015000000000003400000000000350000000000010000000000007300144000000000000325700000000000011190100000000000231702013081900000010000000000000BRBBASACNOR3233
012013081278BBASH25     070BBAS        ON      NM000R$  000000000000700000000000120000000000005000000000000800000000000070000000000008000000000001200075000000000000278700000000000002286800000000000241702013081900000010000000000000BRBBASACNOR3233
012013081278BBASH26     070BBAS        ON      NM000R$  000000000000100000000000020000000000001000000000000100000000000010000000000001000000000000200007000000000000051400000000000000096500000000000256602013081900000010000000000000BRBBASACNOR3235
012013081278BBASH27     070BBAS        ON      NM000R$  000000000000100000000000010000000000001000000000000100000000000010000000000000000000000000100002000000000000001800000000000000001800000000000266602013081900000010000000000000BRBBASACNOR3235
012013081278BBASH55     070BBAS        ON      NM000R$  000000000000400000000000040000000000004000000000000400000000000040000000000000000000000000000001000000000000001000000000000000004000000000000251602013081900000010000000000000BRBBASACNOR3235
012013081278BBASI21     070BBAS  FM    ON      NM000R$  000000000025200000000002720000000000214000000000024200000000002420000000000000000000000027000294000000000000338500000000000082179000000000000210002013091600000010000000000000BRBBASACNOR3237
012013081278BBASI22     070BBAS  FM    ON      NM000R$  000000000015800000000002070000000000154000000000017900000000001760000000000125000000000018500102000000000000172800000000000030952400000000000217602013091600000010000000000000BRBBASACNOR3236
012013081278BBASI23     070BBAS  FM    ON      NM000R$  000000000008800000000001290000000000088000000000010800000000001070000000000038000000000013000060000000000000090600000000000009792500000000000227602013091600000010000000000000BRBBASACNOR3236
012013081278BBASI24     070BBAS  FM    ON      NM000R$  000000000004500000000000720000000000044000000000005700000000000550000000000052000000000005900092000000000000144900000000000008304700000000000237602013091600000010000000000000BRBBASACNOR3236
012013081278BBASI25     070BBAS  FM    ON      NM000R$  000000000002000000000000360000000000020000000000002800000000000260000000000019000000000003600049000000000000064600000000000001818100000000000246602013091600000010000000000000BRBBASACNOR3235
012013081278BBASI26     070BBAS        ON      NM000R$  000000000001400000000000150000000000010000000000001300000000000100000000000007000000000002000004000000000000007900000000000000105300000000000256602013091600000010000000000000BRBBASACNOR3235
012013081278BBASI27     070BBAS        ON      NM000R$  000000000000400000000000040000000000004000000000000400000000000040000000000004000000000003800017000000000000004900000000000000019600000000000267602013091600000010000000000000BRBBASACNOR3236
012013081278BBASJ22     070BBAS  FM    ON      NM000R$  000000000019100000000002250000000000177000000000020100000000001910000000000000000000000000000078000000000000141400000000000028487100000000000220002013102100000010000000000000BRBBASACNOR3237
012013081278BBASJ23     070BBAS  FM    ON      NM000R$  000000000014800000000001800000000000142000000000015700000000001460000000000000000000000000000050000000000000085500000000000013494800000000000226602013102100000010000000000000BRBBASACNOR3235
012013081278BBASJ24     070BBAS  FM    ON      NM000R$  000000000010300000000001150000000000087000000000010400000000000900000000000017000000000000000020000000000000029100000000000003045600000000000237602013102100000010000000000000BRBBASACNOR3236
012013081278BBASJ25     070BBAS  FM    ON      NM000R$  000000000005600000000000630000000000045000000000005900000000000450000000000017000000000000000022000000000000041900000000000002484700000000000250002013102100000010000000000000BRBBASACNOR3237
012013081278BBASJ26     070BBAS        ON      NM000R$  000000000003800000000000380000000000034000000000003400000000000340000000000017000000000004100002000000000000001100000000000000037800000000000256602013102100000010000000000000BRBBASACNOR3235
012013081278BBASJ28     070BBAS        ON      NM000R$  000000000000800000000000090000000000008000000000000800000000000090000000000008000000000001200002000000000000010200000000000000081800000000000280002013102100000010000000000000BRBBASACNOR3237
012013081278BBASL24     070BBAS        ON      NM000R$  000000000012700000000001270000000000124000000000012500000000001240000000000000000000000000000018000000000000020800000000000002600200000000000240002013121600000010000000000000BRBBASACNOR3237
012013081278BBASL25     070BBAS        ON      NM000R$  000000000010100000000001070000000000084000000000008600000000000840000000000000000000000000000028000000000000572100000000000049560900000000000246602013121600000010000000000000BRBBASACNOR3235
012013081278BBASL26     070BBAS        ON      NM000R$  000000000005400000000000540000000000054000000000005400000000000540000000000000000000000000000001000000000000500000000000000027000000000000000256602013121600000010000000000000BRBBASACNOR3235
012013081278BBASL27     070BBAS        ON      NM000R$  000000000002800000000000280000000000028000000000002800000000000280000000000000000000000000000001000000000000500000000000000014000000000000000270002013121600000010000000000000BRBBASACNOR3237
012013081278BBASL28     070BBAS        ON      NM000R$  000000000001700000000000170000000000017000000000001700000000000170000000000000000000000000000001000000000000500000000000000008500000000000000280002013121600000010000000000000BRBBASACNOR3237
012013081278BBASL55     070BBASE       ON      NM000R$  000000000010400000000001040000000000104000000000010400000000001040000000000000000000000000000001000000000000001200000000000000124800000000000245702013121600000010000000000000BRBBASACNOR3233
012013081278BBASL60     070BBAS        ON      NM000R$  000000000000800000000000080000000000008000000000000800000000000080000000000000000000000000000001000000000000500000000000000004000000000000000296702013121600000010000000000000BRBBASACNOR3233
012013081282BBAST20     080BBASE       ON      NM000R$  000000000000100000000000010000000000001000000000000100000000000010000000000001000000000000000001000000000000000100000000000000000100000000000200002013081900000010000000000000BRBBASACNOR3237
012013081282BBAST21     080BBASE       ON      NM000R$  000000000000300000000000030000000000002000000000000200000000000020000000000001000000000004000002000000000000000600000000000000001700000000000207602013081900000010000000000000BRBBASACNOR3236
012013081282BBAST22     080BBASE       ON      NM000R$  000000000000400000000000080000000000002000000000000600000000000070000000000001000000000001000014000000000000024900000000000000155100000000000217602013081900000010000000000000BRBBASACNOR3236
012013081282BBAST23     080BBASE       ON      NM000R$  000000000002300000000000250000000000016000000000002200000000000250000000000000000000000000000048000000000000182100000000000004046400000000000227602013081900000010000000000000BRBBASACNOR3236
012013081282BBAST24     080BBASE       ON      NM000R$  000000000003400000000000480000000000026000000000003900000000000430000000000038000000000007300009000000000000022600000000000000898900000000000231702013081900000010000000000000BRBBASACNOR3233
012013081282BBASU20     080BBASE FM    ON      NM000R$  000000000000800000000000100000000000008000000000000800000000000090000000000007000000000000000009000000000000013200000000000000116100000000000200002013091600000010000000000000BRBBASACNOR3237
012013081282BBASU21     080BBASE FM    ON      NM000R$  000000000001700000000000170000000000017000000000001700000000000170000000000000000000000007000001000000000000001000000000000000017000000000000210002013091600000010000000000000BRBBASACNOR3237
012013081282BBASU22     080BBASE FM    ON      NM000R$  000000000004000000000000400000000000025000000000002900000000000360000000000020000000000003700026000000000000011100000000000000329400000000000217602013091600000010000000000000BRBBASACNOR3236
012013081282BBASU23     080BBASE FM    ON      NM000R$  000000000005800000000000680000000000048000000000005800000000000600000000000000000000000000000020000000000000034000000000000001998900000000000227602013091600000010000000000000BRBBASACNOR3236
012013081282BBASU24     080BBASE       ON      NM000R$  000000000009700000000001110000000000091000000000010600000000001110000000000000000000000000000009000000000000013100000000000001392000000000000237602013091600000010000000000000BRBBASACNOR3236
012013081282BBASV21     080BBASE FM    ON      NM000R$  000000000003600000000000380000000000034000000000003500000000000370000000000000000000000000000014000000000000019900000000000000702800000000000210002013102100000010000000000000BRBBASACNOR3237
012013081282BBASV22     080BBASE FM    ON      NM000R$  000000000006300000000000630000000000052000000000005500000000000630000000000054000000000000000033000000000000055800000000000003114800000000000220002013102100000010000000000000BRBBASACNOR3237
012013081282BBASV23     080BBASE FM    ON      NM000R$  000000000008500000000000890000000000072000000000007900000000000880000000000000000000000000000043000000000000074100000000000005862400000000000226602013102100000010000000000000BRBBASACNOR3235
012013081282BBASW20     080BBASE       ON      NM000R$  000000000003000000000000300000000000030000000000003000000000000300000000000000000000000000000001000000000000001200000000000000036000000000000200002013111800000010000000000000BRBBASACNOR3237
012013081282BBASW21     080BBASE       ON      NM000R$  000000000003800000000000380000000000038000000000003800000000000380000000000000000000000045900001000000000000001200000000000000045600000000000207602013111800000010000000000000BRBBASACNOR3236
012013081282BBASX21     080BBASE       ON      NM000R$  000000000005100000000000570000000000051000000000005100000000000570000000000000000000000000000002000000000000501200000000000025568400000000000210002013121600000010000000000000BRBBASACNOR3237
012013081282BBASX22     080BBASE       ON      NM000R$  000000000006500000000000660000000000065000000000006500000000000650000000000000000000000000000004000000000000004400000000000000287200000000000216602013121600000010000000000000BRBBASACNOR3235
012013081282BBASX23     080BBASE       ON      NM000R$  000000000010600000000001060000000000104000000000010500000000001040000000000000000000000000000003000000000000003600000000000000379200000000000230002013121600000010000000000000BRBBASACNOR3237
012013081282BBASX24     080BBASE       ON      NM000R$  000000000016100000000001610000000000161000000000016100000000001610000000000000000000000000000001000000000000001200000000000000193200000000000240002013121600000010000000000000BRBBASACNOR3237
012013081282BBASX52     080BBASE       ON      NM000R$  000000000007300000000000840000000000071000000000007500000000000840000000000000000000000000000004000000000000005100000000000000386700000000000219702013121600000010000000000000BRBBASACNOR3233
012013081202BBDC3       010BRADESCO    ON  EJ  N1   R$  000000000311000000000031950000000003094000000000316700000000031380000000003137000000000313806563000000000001216100000000003851753500000000000000009999123100000010000000000000BRBBDCACNOR1605
012013081296BBDC3F      020BRADESCO    ON  EJ  N1   R$  000000000312000000000031930000000003110000000000317000000000031300000000003002000000000318800040000000000000000992000000000003144978000000000000009999123100000010000000000000BRBBDCACNOR1605
012013081202BBDC4       010BRADESCO    PN  EJ  N1   R$  000000000284500000000029150000000002824000000000288900000000028760000000002876000000000288024652000000000008353200000000024132147400000000000000009999123100000010000000000000BRBBDCACNPR8605
012013081296BBDC4F      020BRADESCO    PN  EJ  N1   R$  000000000282800000000029140000000002828000000000288400000000028710000000002871000000000289400287000000000000008776000000000025312571000000000000009999123100000010000000000000BRBBDCACNPR8605
012013081262BBDC4T      030BRADESCO    PN  EJ  N1060R$  000000000292900000000029300000000002929000000000292900000000029300000000000000000000000000000002000000000000000100000000000000292916000000000000009999123100000010000000000000BRBBDCACNPR8605
012013081278BBDCH27     070BBDC    /EJ PN      N1000R$  000000000018800000000002270000000000188000000000020900000000001970000000000182000000000000000049000000000000026800000000000005603000000000000267802013081900000010000000000000BRBBDCACNPR8602
012013081278BBDCH28     070BBDC    /EJ PN      N1000R$  000000000008500000000001440000000000085000000000012500000000001170000000000104000000000012900084000000000000041400000000000005202800000000000277802013081900000010000000000000BRBBDCACNPR8602
012013081278BBDCH29     070BBDC    /EJ PN      N1000R$  000000000002600000000000580000000000026000000000004100000000000360000000000012000000000003600180000000000000288000000000000011886800000000000287802013081900000010000000000000BRBBDCACNPR8602
012013081278BBDCH30     070BBDC    /EJ PN      N1000R$  000000000000500000000000130000000000005000000000000900000000000080000000000008000000000000900041000000000000103200000000000000993300000000000297802013081900000010000000000000BRBBDCACNPR8602
012013081278BBDCH33     070BBDC    /EJ PN      N1000R$  000000000000100000000000010000000000001000000000000100000000000010000000000001000000000000500001000000000000000100000000000000000100000000000327602013081900000010000000000000BRBBDCACNPR8601
012013081278BBDCI27     070BBDC    /EJ PN      N1000R$  000000000025000000000002750000000000237000000000025500000000002480000000000232000000000027500113000000000000151900000000000038775800000000000267802013091600000010000000000000BRBBDCACNPR8602
012013081278BBDCI28     070BBDC    /EJ PN      N1000R$  000000000015000000000001920000000000150000000000017700000000001730000000000152000000000000000101000000000000217500000000000038567200000000000277802013091600000010000000000000BRBBDCACNPR8602
012013081278BBDCI29     070BBDC    /EJ PN      N1000R$  000000000008700000000001240000000000087000000000010900000000001050000000000082000000000012100057000000000000088100000000000009617600000000000287802013091600000010000000000000BRBBDCACNPR8602
012013081278BBDCI30     070BBDC    /EJ PN      N1000R$  000000000004400000000000700000000000044000000000005700000000000580000000000042000000000006500076000000000000157800000000000009103800000000000297802013091600000010000000000000BRBBDCACNPR8602
012013081278BBDCI31     070BBDC    /EJ PN      N1000R$  000000000022600000000002260000000000226000000000022600000000002260000000000000000000000000000001000000000000000500000000000000113000000000000272902013091600000010000000000000BRBBDCACNPR8590
012013081278BBDCI32     070BBDC    /EJ PN      N1000R$  000000000001200000000000120000000000012000000000001200000000000120000000000011000000000000000001000000000000005000000000000000060000000000000317802013091600000010000000000000BRBBDCACNPR8602
012013081278BBDCI33     070BBDC    /EJ PN      N1000R$  000000000005800000000000690000000000058000000000006300000000000690000000000017000000000007000003000000000000004100000000000000259800000000000297202013091600000010000000000000BRBBDCACNPR8598
012013081278BBDCI81     070BBDC    /EJ PN      N1000R$  000000000002500000000000350000000000025000000000002900000000000280000000000000000000000004000054000000000000118000000000000003503700000000000307802013091600000010000000000000BRBBDCACNPR8602
012013081278BBDCJ27     070BBDC    /EJ PN      N1000R$  000000000027800000000003200000000000277000000000030100000000002900000000000000000000000000000068000000000000118100000000000035609800000000000267802013102100000010000000000000BRBBDCACNPR8602
012013081278BBDCJ29     070BBDC    /EJ PN      N1000R$  000000000016200000000001800000000000157000000000016600000000001570000000000000000000000000000019000000000000035700000000000005949800000000000287802013102100000010000000000000BRBBDCACNPR8602
012013081278BBDCJ30     070BBDC    /EJ PN      N1000R$  000000000011100000000001260000000000110000000000011600000000001170000000000000000000000000000015000000000000023700000000000002772000000000000297802013102100000010000000000000BRBBDCACNPR8602
012013081278BBDCJ31     070BBDC    /EJ PN      N1000R$  000000000007900000000000850000000000069000000000008100000000000690000000000010000000000008300011000000000000021200000000000001719000000000000307802013102100000010000000000000BRBBDCACNPR8602
012013081278BBDCJ32     070BBDC    /EJ PN      N1000R$  000000000004800000000000480000000000048000000000004800000000000480000000000000000000000000000011000000000000025000000000000001200000000000000317802013102100000010000000000000BRBBDCACNPR8602
012013081278BBDCL29     070BBDC    /EJ PN      N1000R$  000000000021700000000002170000000000216000000000021600000000002160000000000000000000000000000002000000000000100000000000000021660000000000000287802013121600000010000000000000BRBBDCACNPR8602
012013081282BBDCT26     080BBDCE   /EJ PN      N1000R$  000000000000100000000000010000000000001000000000000100000000000010000000000000000000000000100005000000000000041000000000000000041000000000000257802013081900000010000000000000BRBBDCACNPR8602
012013081282BBDCT27     080BBDCE   /EJ PN      N1000R$  000000000000200000000000020000000000001000000000000100000000000010000000000001000000000011600003000000000000021600000000000000021900000000000267802013081900000010000000000000BRBBDCACNPR8602
012013081282BBDCT28     080BBDCE   /EJ PN      N1000R$  000000000000700000000000100000000000005000000000000600000000000050000000000000000000000000500013000000000000035000000000000000213900000000000277802013081900000010000000000000BRBBDCACNPR8602
012013081282BBDCT29     080BBDCE   /EJ PN      N1000R$  000000000002500000000000390000000000023000000000003000000000000330000000000025000000000000000057000000000000089700000000000002747200000000000287802013081900000010000000000000BRBBDCACNPR8602
012013081282BBDCT32     080BBDCE   /EJ PN      N1000R$  000000000027000000000002900000000000265000000000027200000000002900000000000000000000000000000010000000000000020000000000000005445000000000000317802013081900000010000000000000BRBBDCACNPR8602
012013081282BBDCT39     080BBDCE   /EJ PN      N1000R$  000000000063600000000006360000000000636000000000063600000000006360000000000000000000000000000002000000000000140000000000000089040000000000000351902013081900000010000000000000BRBBDCACNPR8601
012013081282BBDCU26     080BBDCE   /EJ PN      N1000R$  000000000001300000000000160000000000013000000000001300000000000140000000000007000000000000000007000000000000007300000000000000101600000000000259802013091600000010000000000000BRBBDCACNPR8604
012013081282BBDCU27     080BBDCE   /EJ PN      N1000R$  000000000002400000000000250000000000021000000000002300000000000230000000000000000000000003000011000000000000050800000000000001173200000000000267802013091600000010000000000000BRBBDCACNPR8602
012013081282BBDCU28     080BBDCE   /EJ PN      N1000R$  000000000005000000000000500000000000040000000000004400000000000440000000000038000000000000000054000000000000173300000000000007685900000000000277802013091600000010000000000000BRBBDCACNPR8602
012013081282BBDCU29     080BBDCE   /EJ PN      N1000R$  000000000006700000000000820000000000067000000000007300000000000800000000000000000000000000000036000000000000099000000000000007243300000000000287802013091600000010000000000000BRBBDCACNPR8602
012013081282BBDCU30     080BBDCE   /EJ PN      N1000R$  000000000011800000000001340000000000118000000000012300000000001340000000000000000000000000000010000000000000018000000000000002216700000000000297802013091600000010000000000000BRBBDCACNPR8602
012013081282BBDCU31     080BBDCE   /EJ PN      N1000R$  000000000003000000000000330000000000030000000000003100000000000330000000000000000000000000000004000000000000008000000000000000252000000000000272902013091600000010000000000000BRBBDCACNPR8590
012013081282BBDCU33     080BBDCE   /EJ PN      N1000R$  000000000011400000000001310000000000114000000000011900000000001250000000000000000000000000000010000000000000018600000000000002226500000000000297202013091600000010000000000000BRBBDCACNPR8598
012013081282BBDCU75     080BBDCE   /EJ PN      N1000R$  000000000005100000000000580000000000051000000000005300000000000530000000000000000000000000000011000000000000017100000000000000908100000000000282302013091600000010000000000000BRBBDCACNPR8604
012013081282BBDCV1      080BBDCE   /EJ PN      N1000R$  000000000026200000000002620000000000262000000000026200000000002620000000000000000000000000000001000000000000002000000000000000524000000000000314602013102100000010000000000000BRBBDCACNPR8603
012013081282BBDCV22     080BBDCE   /EJ PN      N1000R$  000000000000700000000000070000000000007000000000000700000000000070000000000000000000000000000001000000000000002000000000000000014000000000000220002013102100000010000000000000BRBBDCACNPR8605
012013081282BBDCV23     080BBDCE   /EJ PN      N1000R$  000000000001100000000000120000000000011000000000001100000000000120000000000000000000000000000004000000000000007900000000000000088900000000000230002013102100000010000000000000BRBBDCACNPR8605
012013081282BBDCV24     080BBDCE   /EJ PN      N1000R$  000000000001500000000000160000000000015000000000001500000000000160000000000000000000000000000002000000000000004000000000000000062000000000000239802013102100000010000000000000BRBBDCACNPR8604
012013081282BBDCV25     080BBDCE   /EJ PN      N1000R$  000000000002300000000000230000000000023000000000002300000000000230000000000000000000000000000002000000000000004000000000000000092000000000000249602013102100000010000000000000BRBBDCACNPR8603
012013081282BBDCV26     080BBDCE   /EJ PN      N1000R$  000000000003400000000000370000000000034000000000003500000000000350000000000000000000000000000014000000000000021000000000000000739000000000000259802013102100000010000000000000BRBBDCACNPR8604
012013081282BBDCV27     080BBDCE   /EJ PN      N1000R$  000000000005400000000000540000000000047000000000005000000000000500000000000000000000000000000021000000000000034600000000000001747500000000000267802013102100000010000000000000BRBBDCACNPR8602
012013081282BBDCV28     080BBDCE   /EJ PN      N1000R$  000000000002000000000000210000000000020000000000002000000000000210000000000000000000000000000003000000000000006000000000000000122000000000000245802013102100000010000000000000BRBBDCACNPR8591
012013081282BBDCV29     080BBDCE   /EJ PN      N1000R$  000000000012200000000001220000000000104000000000011200000000001100000000000000000000000000000037000000000000063900000000000007187200000000000287802013102100000010000000000000BRBBDCACNPR8602
012013081282BBDCV30     080BBDCE   /EJ PN      N1000R$  000000000015200000000001580000000000152000000000015400000000001540000000000000000000000000000009000000000000016000000000000002470000000000000297802013102100000010000000000000BRBBDCACNPR8602
012013081282BBDCV31     080BBDCE   /EJ PN      N1000R$  000000000021000000000002200000000000210000000000021500000000002130000000000000000000000000000005000000000000008000000000000001720000000000000307802013102100000010000000000000BRBBDCACNPR8602
012013081282BBDCV32     080BBDCE   /EJ PN      N1000R$  000000000028100000000002900000000000270000000000027600000000002900000000000000000000000000000011000000000000020000000000000005532000000000000317802013102100000010000000000000BRBBDCACNPR8602
012013081282BBDCW31     080BBDCE   /EJ PN      N1000R$  000000000024000000000002400000000000240000000000024000000000002400000000000000000000000000000001000000000000001200000000000000288000000000000310002013111800000010000000000000BRBBDCACNPR8605
012013081282BBDCX27     080BBDCE   /EJ PN      N1000R$  000000000008100000000000810000000000081000000000008100000000000810000000000000000000000000000001000000000000001000000000000000081000000000000269802013121600000010000000000000BRBBDCACNPR8604
012013081212BBFI11B     010FII BB PROGRCI  ER  MB   R$  000000042500000000004250000000000425000000000042500000000004250000000000421000000000042500000001000000000000000001000000000000425000000000000000009999123100000010000000000000BRBBFICTF006197
012013081212BBPO11      010FII BB PRGIICI  ER       R$  000000001110100000000111750000000011055000000001109300000000111000000000011090000000001110000128000000000000012800000000000142000308000000000000009999123100000010000000000000BRBBPOCTF003109
012013081212BBRC11      010FII BB CORP CI  ER       R$  000000000940100000000096000000000009400000000000942000000000094000000000009400000000000950000018000000000000000857000000000008073343000000000000009999123100000010000000000000BRBBRCCTF004123
012013081202BBRK3       010BR BROKERS  ON      NM   R$  000000000056700000000005750000000000552000000000056200000000005550000000000555000000000055604391000000000000981600000000000551796100000000000000009999123100000010000000000000BRBBRKACNOR4108
012013081296BBRK3F      020BR BROKERS  ON      NM   R$  000000000057200000000005720000000000551000000000055500000000005540000000000552000000000059000007000000000000000190000000000000105479000000000000009999123100000010000000000000BRBBRKACNOR4108
012013081202BBSE3       010BBSEGURIDADEON      NM   R$  000000000200000000000020100000000001943000000000196700000000019510000000001951000000000195912690000000000005182100000000010196623000000000000000009999123100000010000000000000BRBBSEACNOR5100
012013081296BBSE3F      020BBSEGURIDADEON      NM   R$  000000000198500000000020060000000001944000000000198000000000019560000000001950000000000195600705000000000000021517000000000042617701000000000000009999123100000010000000000000BRBBSEACNOR5100
012013081262BBSE3T      030BBSEGURIDADEON      NM091R$  000000000201200000000020130000000001987000000000200100000000019880000000000000000000000000000016000000000000400000000000000800687239000000000000009999123100000010000000000000BRBBSEACNOR5100
012013081262BBSE3T      030BBSEGURIDADEON      NM120R$  000000000201800000000020190000000002018000000000201800000000020190000000000000000000000000000002000000000000002000000000000004036984000000000000009999123100000010000000000000BRBBSEACNOR5100
012013081202BBTG11      010BTG PACTUAL UNT EDJ      R$  000000000287200000000028820000000002797000000000284900000000028550000000002844000000000285501685000000000000416000000000001185445500000000000000009999123100000010000000000000BRBBTGUNT007105
012013081296BBTG11F     020BTG PACTUAL UNT EDJ      R$  000000000289900000000028990000000002825000000000284400000000028550000000002800000000000289800011000000000000000231000000000000657072000000000000009999123100000010000000000000BRBBTGUNT007105
012013081212BBVJ11      010FII C JARDIMCI  ER       R$  000000000804800000000080480000000008000000000000800700000000080000000000008000000000000804700022000000000000001676000000000013419823000000000000009999123100000010000000000000BRBBVJCTF001132
012013081212BCFF11B     010FII BC FFII CI  ER  MB   R$  000000001001000000000101000000000009961000000001001400000000099610000000009901000000001005000043000000000000002058000000000020610470000000000000009999123100000010000000000000BRBCFFCTF000141
012013081202BEEF3       010MINERVA     ON      NM   R$  000000000101500000000010280000000000997000000000100800000000010100000000001006000000000101002518000000000000574000000000000578609700000000000000009999123100000010000000000000BRBEEFACNOR6104
012013081296BEEF3F      020MINERVA     ON      NM   R$  000000000100000000000010350000000000999000000000101500000000010350000000000995000000000103400007000000000000000217000000000000220455000000000000009999123100000010000000000000BRBEEFACNOR6104
012013081262BEEF3T      030MINERVA     ON      NM030R$  000000000102200000000010230000000001022000000000102200000000010230000000000000000000000000000002000000000000002500000000000002556024000000000000009999123100000010000000000000BRBEEFACNOR6104
012013081202BEES3       010BANESTES    ON  EJ       R$  000000000004700000000000470000000000046000000000004600000000000470000000000046000000000004700009000000000000026300000000000001229100000000000000009999123100000010000000000000BRBEESACNOR9243
012013081202BEES4       010BANESTES    PN  EJ       R$  000000000004400000000000440000000000044000000000004400000000000440000000000043000000000004500005000000000000000800000000000000035200000000000000009999123100000010000000000000BRBEESACNPR6168
012013081202BEMA3       010BEMATECH    ON  ED  NM   R$  000000000072400000000007400000000000708000000000071900000000007110000000000711000000000071500366000000000000128400000000000092411200000000000000009999123100000010000000000000BRBEMAACNOR0114
012013081262BEMA3T      030BEMATECH    ON  ED  NM030R$  000000000074400000000007450000000000744000000000074400000000007450000000000000000000000000000002000000000000020000000000000014880504000000000000009999123100000010000000000000BRBEMAACNOR0114
012013081202BGIP4       010BANESE      PN           R$  000000000479900000000047990000000004799000000000479900000000047990000000004701000000000488900001000000000000000100000000000000479900000000000000009999123100000010000000000000BRBGIPACNPR8178
012013081296BGIP4F      020BANESE      PN           R$  000000000500000000000050000000000005000000000000500000000000050000000000004705000000000570000001000000000000000010000000000000050000000000000000009999123100000010000000000000BRBGIPACNPR8178
012013081202BHGR3       010BHG         ON      NM   R$  000000000154500000000015740000000001522000000000154900000000015480000000001540000000000154800127000000000000022600000000000035025600000000000000009999123100000010000000000000BRBHGRACNOR9101
012013081296BHGR3F      020BHG         ON      NM   R$  000000000152900000000015550000000001529000000000153500000000015550000000001400000000000175000003000000000000000007000000000000010750000000000000009999123100000010000000000000BRBHGRACNOR9101
012013081202BICB4       010BICBANCO    PN      N1   R$  000000000034200000000003540000000000338000000000034300000000003380000000000338000000000034000171000000000000171400000000000058958500000000000000009999123100000010000000000000BRBICBACNPR7131
012013081296BICB4F      020BICBANCO    PN      N1   R$  000000000034500000000003500000000000340000000000034500000000003500000000000338000000000035000005000000000000000013000000000000004490000000000000009999123100000010000000000000BRBICBACNPR7131
012013081262BICB4T      030BICBANCO    PN      N1030R$  000000000034700000000003480000000000347000000000034700000000003480000000000000000000000000000002000000000000010000000000000003474840000000000000009999123100000010000000000000BRBICBACNPR7131
012013081262BICB4T      030BICBANCO    PN      N1360R$  000000000038100000000003820000000000381000000000038100000000003820000000000000000000000000000002000000000000004000000000000001526939000000000000009999123100000010000000000000BRBICBACNPR7131
012013081202BISA3       010BROOKFIELD  ON      NM   R$  000000000017900000000001900000000000178000000000018600000000001860000000000185000000000018605594000000000011464800000000002136604600000000000000009999123100000010000000000000BRBISAACNOR8109
012013081296BISA3F      020BROOKFIELD  ON      NM   R$  000000000017900000000001900000000000179000000000018500000000001870000000000179000000000018700050000000000000001283000000000000237432000000000000009999123100000010000000000000BRBISAACNOR8109
012013081262BISA3T      030BROOKFIELD  ON      NM120R$  000000000019000000000001910000000000190000000000019000000000001910000000000000000000000000000002000000000000075000000000000014322465000000000000009999123100000010000000000000BRBISAACNOR8109
012013081212BJRC11      010FII JS RECIMCI  ER       R$  000000008005400000000850000000000080054000000008472500000000850000000000084300000000008899900007000000000000000018000000000001525054000000000000009999123100000010000000000000BRBJRCCTF007109
012013081202BMEB4       010MERC BRASIL PN  EJ       R$  000000000110500000000011050000000001100000000000110000000000011000000000001050000000000112900011000000000000006000000000000006601000000000000000009999123100000010000000000000BRBMEBACNPR5191
012013081296BMEB4F      020MERC BRASIL PN  EJ       R$  000000000107900000000011480000000001079000000000108300000000011480000000001078000000000114800002000000000000000100000000000000108383000000000000009999123100000010000000000000BRBMEBACNPR5191
012013081296BMIN4F      020MERC INVEST PN           R$  000000000002300000000000230000000000023000000000002300000000000230000000000023000000000000000001000000000000000085000000000000001955000000000000009999123100000010000000000000BRBMINACNPR1159
012013081202BMTO4       010BRASMOTOR   PN           R$  000000000008500000000000860000000000085000000000008500000000000860000000000085000000000008600002000000000000004000000000000000341000000000000000009999123100000010000000000000BRBMTOACNPR6065
012013081202BNBR4       010NORD BRASIL PN  EDJ      R$  000000000209900000000020990000000002099000000000209900000000020990000000002000000000000210000001000000000000000500000000000001049500000000000000009999123100000010000000000000BRBNBRACNPR5187
012013081202BOAC11B     010BANK AMERICADRN     MB   R$  000000000331000000000033100000000003310000000000331000000000033100000000003260000000000332500001000000000000000500000000000001655000000000000000009999123100000010000000000000BRBOACBDR004111
012013081202BOBR4       010BOMBRIL     PN           R$  000000000071200000000007120000000000691000000000070100000000006910000000000691000000000071200003000000000000000600000000000000420900000000000000009999123100000010000000000000BRBOBRACNPR3127
012013081214BOVA11      010ISHARES BOVACI           R$  000000000494800000000050430000000004920000000000498100000000049410000000004926000000000494106707000000000002019470000000010059874640000000000000009999123100000010000000000000BRBOVACTF003101
012013081296BOVA11F     020ISHARES BOVACI           R$  000000000497800000000050390000000004893000000000497000000000048930000000004893000000000501500026000000000000000079000000000000392668000000000000009999123100000010000000000000BRBOVACTF003101
012013081262BOVA11T     030ISHARES BOVACI        030R$  000000000502500000000050740000000004999000000000503500000000050080000000000000000000000000000064000000000000420000000000002114709552000000000000009999123100000010000000000000BRBOVACTF003101
012013081262BOVA11T     030ISHARES BOVACI        091R$  000000000509800000000050990000000005098000000000509800000000050990000000000000000000000000000002000000000000000100000000000000509878000000000000009999123100000010000000000000BRBOVACTF003101
012013081278BOVAI50     070BOVA        CI        000R$  000000000012200000000001220000000000097000000000010700000000000970000000000000000000000000000005000000000000010900000000000001173800000000000500002013091600000010000000000000BRBOVACTF003101
012013081282BOVAV46     080BOVAE       CI        000R$  000000000001400000000000140000000000014000000000001400000000000140000000000000000000000000000002000000000000040000000000000000560000000000000460002013102100000010000000000000BRBOVACTF003101
012013081282BOVAV49     080BOVAE       CI        000R$  000000000018000000000001800000000000180000000000018000000000001800000000000000000000000000000002000000000000040000000000000007200000000000000490002013102100000010000000000000BRBOVACTF003101
012013081212BPFF11      010FII ABSOLUTOCI  ER       R$  000000000899000000000091000000000008900000000000901800000000089000000000008862000000000890000037000000000000004575000000000041258496000000000000009999123100000010000000000000BRBPFFCTF002104
012013081202BPHA3       010BR PHARMA   ON      NM   R$  000000000099100000000009930000000000960000000000098000000000009790000000000978000000000098502260000000000000545500000000000534930900000000000000009999123100000010000000000000BRBPHAACNOR6102
012013081296BPHA3F      020BR PHARMA   ON      NM   R$  000000000099500000000009950000000000968000000000097600000000009790000000000951000000000099400008000000000000000221000000000000215850000000000000009999123100000010000000000000BRBPHAACNOR6102
012013081202BPNM4       010PANAMERICANOPN      N1   R$  000000000059200000000006000000000000577000000000058500000000005790000000000578000000000057900304000000000000101700000000000059538300000000000000009999123100000010000000000000BRBPNMACNPR6111
012013081296BPNM4F      020PANAMERICANOPN      N1   R$  000000000058600000000005930000000000582000000000058600000000005930000000000574000000000059300007000000000000000106000000000000062139000000000000009999123100000010000000000000BRBPNMACNPR6111
012013081262BPNM4T      030PANAMERICANOPN      N1091R$  000000000061100000000006120000000000611000000000061100000000006120000000000000000000000000000002000000000000005000000000000003057873000000000000009999123100000010000000000000BRBPNMACNPR6111
012013081202BRAP3       010BRADESPAR   ON      N1   R$  000000000208000000000020990000000002080000000000208500000000020830000000002081000000000208300012000000000000004900000000000010219100000000000000009999123100000010000000000000BRBRAPACNOR5124
012013081296BRAP3F      020BRADESPAR   ON      N1   R$  000000000205800000000020850000000002058000000000205900000000020850000000002066000000000208500003000000000000000059000000000000121499000000000000009999123100000010000000000000BRBRAPACNOR5124
012013081202BRAP4       010BRADESPAR   PN      N1   R$  000000000251000000000025670000000002503000000000254000000000025440000000002528000000000254408968000000000001692900000000004300116500000000000000009999123100000010000000000000BRBRAPACNPR2124
012013081296BRAP4F      020BRADESPAR   PN      N1   R$  000000000250000000000025570000000002401000000000253400000000025400000000002520000000000253500052000000000000001667000000000004224221000000000000009999123100000010000000000000BRBRAPACNPR2124
012013081214BRAX11      010ISHARES BRAXCI           R$  000000000410200000000041020000000004025000000000405300000000040250000000000000000000000000000563000000000000005720000000000023186830000000000000009999123100000010000000000000BRBRAXCTF002100
012013081212BRCR11      010FII BC FUND CI  ER       R$  000000001324900000000132490000000013051000000001312500000000130980000000013065000000001310001522000000000000027035000000000354848150000000000000009999123100000010000000000000BRBRCRCTF000132
012013081202BRFS3       010BRF SA      ON      NM   R$  000000000512900000000051990000000005072000000000513600000000051160000000005116000000000511713722000000000003265900000000016775357500000000000000009999123100000010000000000000BRBRFSACNOR8110
012013081296BRFS3F      020BRF SA      ON      NM   R$  000000000503000000000052000000000005030000000000513800000000051350000000005113000000000513500265000000000000007948000000000040833955000000000000009999123100000010000000000000BRBRFSACNOR8110
012013081262BRFS3T      030BRF SA      ON      NM030R$  000000000522700000000052280000000005227000000000522700000000052280000000000000000000000000000002000000000000000500000000000002613912000000000000009999123100000010000000000000BRBRFSACNOR8110
012013081262BRFS3T      030BRF SA      ON      NM120R$  000000000527400000000052750000000005274000000000527400000000052750000000000000000000000000000002000000000000000003000000000000015824000000000000009999123100000010000000000000BRBRFSACNOR8110
012013081278BRFSI52     070BRFS        ON      NM000R$  000000000007600000000000760000000000076000000000007600000000000760000000000000000000000000000001000000000000000100000000000000007600000000000520002013091600000010000000000000BRBRFSACNOR8110
012013081278BRFSI54     070BRFS        ON      NM000R$  000000000004200000000000420000000000042000000000004200000000000420000000000000000000000000000001000000000000000200000000000000008400000000000540002013091600000010000000000000BRBRFSACNOR8110
012013081278BRFSJ55     070BRFS        ON      NM000R$  000000000008500000000000850000000000085000000000008500000000000850000000000000000000000000000005000000000000032100000000000002728500000000000550002013102100000010000000000000BRBRFSACNOR8110
012013081278BRFSJ75     070BRFS        ON      NM000R$  000000000008000000000000800000000000080000000000008000000000000800000000000000000000000000000001000000000000002700000000000000216000000000000515002013102100000010000000000000BRBRFSACNOR8110
012013081282BRFSU48     080BRFSE       ON      NM000R$  000000000003400000000000340000000000033000000000003300000000000330000000000000000000000011700003000000000000001500000000000000050500000000000480002013091600000010000000000000BRBRFSACNOR8110
012013081282BRFSV45     080BRFSE       ON      NM000R$  000000000003900000000000390000000000039000000000003900000000000390000000000000000000000000000001000000000000002700000000000000105300000000000450002013102100000010000000000000BRBRFSACNOR8110
012013081282BRFSV46     080BRFSE       ON      NM000R$  000000000004600000000000470000000000046000000000004600000000000470000000000000000000000000000002000000000000031600000000000001463100000000000460002013102100000010000000000000BRBRFSACNOR8110
012013081282BRFSV48     080BRFSE       ON      NM000R$  000000000015300000000001530000000000153000000000015300000000001530000000000000000000000000000001000000000000002700000000000000413100000000000480002013102100000010000000000000BRBRFSACNOR8110
012013081282BRFSV51     080BRFSE       ON      NM000R$  000000000019500000000001950000000000195000000000019500000000001950000000000000000000000000000001000000000000031600000000000006162000000000000510002013102100000010000000000000BRBRFSACNOR8110
012013081202BRGE8       010ALFA CONSORCPND          R$  000000000031600000000003160000000000316000000000031600000000003160000000000316000000000034900001000000000000000100000000000000031600000000000000009999123100000010000000000000BRBRGEACNPD3199
012013081202BRIN3       010BR INSURANCEON      NM   R$  000000000238100000000024170000000002317000000000236500000000023630000000002363000000000237002487000000000000401200000000000949008200000000000000009999123100000010000000000000BRBRINACNOR3105
012013081296BRIN3F      020BR INSURANCEON      NM   R$  000000000239200000000025070000000002206000000000236400000000025070000000002330000000000240000021000000000000000433000000000001023689000000000000009999123100000010000000000000BRBRINACNOR3105
012013081202BRIV4       010ALFA INVEST PN           R$  000000000057800000000005780000000000578000000000057800000000005780000000000577000000000060300001000000000000000100000000000000057800000000000000009999123100000010000000000000BRBRIVACNPR3196
012013081296BRIV4F      020ALFA INVEST PN           R$  000000000052900000000005290000000000529000000000052900000000005290000000000537000000000060400001000000000000000012000000000000006348000000000000009999123100000010000000000000BRBRIVACNPR3196
012013081202BRKM3       010BRASKEM     ON      N1   R$  000000000126000000000012600000000001245000000000125400000000012450000000001245000000000126500005000000000000002500000000000003136500000000000000009999123100000010000000000000BRBRKMACNOR1110
012013081296BRKM3F      020BRASKEM     ON      N1   R$  000000000125000000000012500000000001250000000000125000000000012500000000001219000000000125300002000000000000000057000000000000071250000000000000009999123100000010000000000000BRBRKMACNOR1110
012013081202BRKM5       010BRASKEM     PNA     N1   R$  000000000177000000000018130000000001770000000000179200000000017850000000001782000000000178509472000000000002529400000000004533944700000000000000009999123100000010000000000000BRBRKMACNPA4110
012013081296BRKM5F      020BRASKEM     PNA     N1   R$  000000000176700000000018100000000001767000000000179500000000018090000000001778000000000180900105000000000000003008000000000005401229000000000000009999123100000010000000000000BRBRKMACNPA4110
012013081262BRKM5T      030BRASKEM     PNA     N1016R$  000000000180200000000018030000000001797000000000180000000000017980000000000000000000000000000004000000000000002500000000000004501415000000000000009999123100000010000000000000BRBRKMACNPA4110
012013081262BRKM5T      030BRASKEM     PNA     N1030R$  000000000180700000000018100000000001806000000000180700000000018090000000000000000000000000000032000000000000005400000000000009762438000000000000009999123100000010000000000000BRBRKMACNPA4110
012013081202BRML3       010BR MALLS PARON      NM   R$  000000000194600000000019500000000001908000000000193800000000019500000000001941000000000195012773000000000004681200000000009072309000000000000000009999123100000010000000000000BRBRMLACNOR9105
012013081296BRML3F      020BR MALLS PARON      NM   R$  000000000190000000000019470000000001900000000000193600000000019350000000001900000000000194800078000000000000002407000000000004660727000000000000009999123100000010000000000000BRBRMLACNOR9105
012013081262BRML3T      030BR MALLS PARON      NM030R$  000000000195900000000019600000000001950000000000195800000000019510000000000000000000000000000006000000000000003100000000000006070935000000000000009999123100000010000000000000BRBRMLACNOR9105
012013081278BRMLH20     070BRML        ON      NM000R$  000000000001600000000000160000000000016000000000001600000000000160000000000000000000000000000001000000000000002000000000000000032000000000000200002013081900000010000000000000BRBRMLACNOR9105
012013081202BRPR3       010BR PROPERT  ON      NM   R$  000000000191900000000019360000000001890000000000191400000000019000000000001899000000000190008006000000000001859300000000003560182500000000000000009999123100000010000000000000BRBRPRACNOR9112
012013081296BRPR3F      020BR PROPERT  ON      NM   R$  000000000190900000000019410000000001829000000000190900000000018290000000001827000000000194300021000000000000000546000000000001042651000000000000009999123100000010000000000000BRBRPRACNOR9112
012013081262BRPR3T      030BR PROPERT  ON      NM120R$  000000000200100000000020020000000002001000000000200100000000020020000000000000000000000000000002000000000000000003000000000000006004000000000000009999123100000010000000000000BRBRPRACNOR9112
012013081282BRPRW19     080BRPRE       ON      NM000R$  000000000007100000000000720000000000070000000000007000000000000700000000000000000000000010000004000000000000100000000000000007075000000000000190002013111800000010000000000000BRBRPRACNOR9112
012013081202BRSR6       010BANRISUL    PNB     N1   R$  000000000144500000000014780000000001427000000000144800000000014540000000001445000000000145402655000000000000606400000000000878593700000000000000009999123100000010000000000000BRBRSRACNPB4133
012013081296BRSR6F      020BANRISUL    PNB     N1   R$  000000000144000000000014590000000001439000000000144700000000014450000000001394000000000146000021000000000000000655000000000000948397000000000000009999123100000010000000000000BRBRSRACNPB4133
012013081202BSEV3       010BIOSEV      ON      NM   R$  000000000113200000000011430000000001100000000000113300000000011000000000001080000000000113900017000000000000012600000000000014281100000000000000009999123100000010000000000000BRBSEVACNOR3100
012013081296BSEV3F      020BIOSEV      ON      NM   R$  000000000115000000000011500000000001125000000000113600000000011250000000001105000000000112500002000000000000000033000000000000037500000000000000009999123100000010000000000000BRBSEVACNOR3100
012013081282BSEVS99     080BSEVE       ON      NM000R$  000000000040000000000004000000000000400000000000040000000000004000000000000320000000000042500010000000000000010000000000000004000000000000000165702014072100000010000000000000BRBSEVACNOR3100
012013081296BSLI4F      020BRB BANCO   PN           R$  000000000260000000000026000000000002600000000000260000000000026000000000000000000000000260000001000000000000000004000000000000010400000000000000009999123100000010000000000000BRBSLIACNPR2146
012013081202BTOW3       010B2W DIGITAL ON      NM   R$  000000000146500000000015520000000001405000000000148600000000014220000000001422000000000143004309000000000001164400000000001730758000000000000000009999123100000010000000000000BRBTOWACNOR8105
012013081296BTOW3F      020B2W DIGITAL ON      NM   R$  000000000145300000000015740000000001416000000000149800000000014400000000001420000000000144000081000000000000002321000000000003475078000000000000009999123100000010000000000000BRBTOWACNOR8105
012013081202BTTL3       010BATTISTELLA ON           R$  000000000008600000000000860000000000086000000000008600000000000860000000000080000000000008600001000000000000000500000000000000043000000000000000009999123100000010000000000000BRBTTLACNOR0105
012013081202BTTL4       010BATTISTELLA PN           R$  000000000010100000000001010000000000099000000000009900000000001010000000000098000000000010100004000000000000008900000000000000884300000000000000009999123100000010000000000000BRBTTLACNPR7105
012013081202BVMF3       010BMFBOVESPA  ON      NM   R$  000000000117600000000012010000000001158000000000117900000000011850000000001185000000000118646529000000000019374600000000022857556900000000000000009999123100000010000000000000BRBVMFACNOR3125
012013081296BVMF3F      020BMFBOVESPA  ON      NM   R$  000000000118500000000012000000000001160000000000117700000000011710000000001171000000000120000142000000000000004446000000000005233407000000000000009999123100000010000000000000BRBVMFACNOR3125
012013081262BVMF3T      030BMFBOVESPA  ON      NM030R$  000000000118700000000011880000000001187000000000118700000000011880000000000000000000000000000002000000000000000100000000000000118725000000000000009999123100000010000000000000BRBVMFACNOR3125
012013081262BVMF3T      030BMFBOVESPA  ON      NM038R$  000000000117500000000011760000000001175000000000117500000000011760000000000000000000000000000002000000000000002000000000000002350349000000000000009999123100000010000000000000BRBVMFACNOR3125
012013081262BVMF3T      030BMFBOVESPA  ON      NM091R$  000000000119800000000012080000000001198000000000119900000000012080000000000000000000000000000004000000000000005500000000000006597301000000000000009999123100000010000000000000BRBVMFACNOR3125
012013081262BVMF3T      030BMFBOVESPA  ON      NM120R$  000000000119300000000011940000000001193000000000119300000000011940000000000000000000000000000002000000000000005000000000000005965127000000000000009999123100000010000000000000BRBVMFACNOR3125
012013081278BVMFH11     070BVMF        ON      NM000R$  000000000008000000000001040000000000074000000000008800000000000940000000000080000000000009500121000000000000114900000000000010174900000000000110002013081900000010000000000000BRBVMFACNOR3125
012013081278BVMFH12     070BVMF        ON      NM000R$  000000000001200000000000260000000000012000000000001600000000000170000000000017000000000001800262000000000000578800000000000009744000000000000120002013081900000010000000000000BRBVMFACNOR3125
012013081278BVMFH13     070BVMF        ON      NM000R$  000000000000200000000000030000000000001000000000000100000000000020000000000001000000000000200203000000000000506800000000000001000400000000000128902013081900000010000000000000BRBVMFACNOR3124
012013081278BVMFH15     070BVMF        ON      NM000R$  000000000000100000000000010000000000001000000000000100000000000010000000000000000000000000100002000000000000002000000000000000002000000000000150002013081900000010000000000000BRBVMFACNOR3125
012013081278BVMFH40     070BVMF        ON      NM000R$  000000000013200000000001320000000000131000000000013100000000001310000000000000000000000000000002000000000000037500000000000004942500000000000105002013081900000010000000000000BRBVMFACNOR3125
012013081278BVMFH41     070BVMF        ON      NM000R$  000000000004000000000000550000000000040000000000004300000000000480000000000023000000000000000007000000000000014200000000000000620000000000000115002013081900000010000000000000BRBVMFACNOR3125
012013081278BVMFH42     070BVMF        ON      NM000R$  000000000000500000000000050000000000005000000000000500000000000050000000000001000000000001500003000000000000008000000000000000040000000000000125002013081900000010000000000000BRBVMFACNOR3125
012013081278BVMFH43     070BVMF        ON      NM000R$  000000000000100000000000020000000000001000000000000100000000000010000000000000000000000000100036000000000000085100000000000000092100000000000135002013081900000010000000000000BRBVMFACNOR3125
012013081278BVMFI11     070BVMF        ON      NM000R$  000000000010000000000001210000000000092000000000010900000000001000000000000092000000000011500013000000000000020000000000000002188300000000000110002013091600000010000000000000BRBVMFACNOR3125
012013081278BVMFI12     070BVMF  FM    ON      NM000R$  000000000004600000000000550000000000034000000000004600000000000490000000000036000000000005000094000000000000205400000000000009455000000000000120002013091600000010000000000000BRBVMFACNOR3125
012013081278BVMFI13     070BVMF  FM    ON      NM000R$  000000000001200000000000190000000000012000000000001500000000000160000000000014000000000001800295000000000000391400000000000006165000000000000130002013091600000010000000000000BRBVMFACNOR3125
012013081278BVMFI14     070BVMF        ON      NM000R$  000000000000400000000000060000000000004000000000000400000000000040000000000003000000000000500022000000000000140400000000000000615600000000000140002013091600000010000000000000BRBVMFACNOR3125
012013081278BVMFI41     070BVMF  FM    ON      NM000R$  000000000008200000000000820000000000065000000000007300000000000740000000000000000000000000000012000000000000035100000000000002567400000000000115002013091600000010000000000000BRBVMFACNOR3125
012013081278BVMFI42     070BVMF  FM    ON      NM000R$  000000000002500000000000300000000000022000000000002400000000000220000000000025000000000000000015000000000000049900000000000001219600000000000125002013091600000010000000000000BRBVMFACNOR3125
012013081278BVMFJ12     070BVMF  FM    ON      NM000R$  000000000006200000000000740000000000062000000000006900000000000700000000000000000000000000000010000000000000011700000000000000813000000000000120002013102100000010000000000000BRBVMFACNOR3125
012013081278BVMFJ13     070BVMF  FM    ON      NM000R$  000000000002600000000000330000000000022000000000003000000000000290000000000000000000000003700078000000000000118700000000000003582400000000000130002013102100000010000000000000BRBVMFACNOR3125
012013081278BVMFJ41     070BVMF  FM    ON      NM000R$  000000000009000000000001080000000000090000000000010000000000000910000000000000000000000000000009000000000000022000000000000002208800000000000115002013102100000010000000000000BRBVMFACNOR3125
012013081278BVMFJ42     070BVMF  FM    ON      NM000R$  000000000005200000000000520000000000052000000000005200000000000520000000000000000000000000000009000000000000013500000000000000702000000000000125002013102100000010000000000000BRBVMFACNOR3125
012013081278BVMFK12     070BVMF        ON      NM000R$  000000000008000000000000800000000000080000000000008000000000000800000000000000000000000008500001000000000000000300000000000000024000000000000120002013111800000010000000000000BRBVMFACNOR3125
012013081278BVMFL12     070BVMF        ON      NM000R$  000000000010000000000001050000000000100000000000010100000000001050000000000000000000000000000002000000000000000700000000000000071000000000000116902013121600000010000000000000BRBVMFACNOR3123
012013081282BVMFT10     080BVMFE       ON      NM000R$  000000000000200000000000030000000000002000000000000200000000000030000000000000000000000000200027000000000000010700000000000000021900000000000100002013081900000010000000000000BRBVMFACNOR3125
012013081282BVMFT11     080BVMFE       ON      NM000R$  000000000001100000000000110000000000004000000000000500000000000040000000000002000000000004500076000000000000042300000000000000252100000000000110002013081900000010000000000000BRBVMFACNOR3125
012013081282BVMFT12     080BVMFE       ON      NM000R$  000000000005000000000000500000000000027000000000003400000000000280000000000001000000000004900075000000000000083500000000000002848000000000000120002013081900000010000000000000BRBVMFACNOR3125
012013081282BVMFT13     080BVMFE       ON      NM000R$  000000000009500000000001100000000000095000000000010100000000001100000000000100000000000000000009000000000000007000000000000000710000000000000128902013081900000010000000000000BRBVMFACNOR3124
012013081282BVMFT40     080BVMFE       ON      NM000R$  000000000000200000000000020000000000002000000000000200000000000020000000000000000000000000000001000000000000001000000000000000002000000000000105002013081900000010000000000000BRBVMFACNOR3125
012013081282BVMFT43     080BVMFE       ON      NM000R$  000000000016300000000001630000000000163000000000016300000000001630000000000000000000000000000001000000000000000300000000000000048900000000000135002013081900000010000000000000BRBVMFACNOR3125
012013081282BVMFT61     080BVMFE       ON      NM000R$  000000000002400000000000240000000000024000000000002400000000000240000000000000000000000000000004000000000000010000000000000000240000000000000117502013081900000010000000000000BRBVMFACNOR3125
012013081282BVMFU11     080BVMFE FM    ON      NM000R$  000000000002200000000000250000000000018000000000001900000000000180000000000000000000000000000007000000000000019400000000000000383300000000000110002013091600000010000000000000BRBVMFACNOR3125
012013081282BVMFU12     080BVMFE FM    ON      NM000R$  000000000006700000000000690000000000051000000000005900000000000610000000000040000000000006800021000000000000032400000000000001932300000000000120002013091600000010000000000000BRBVMFACNOR3125
012013081282BVMFU13     080BVMFE       ON      NM000R$  000000000012400000000001240000000000124000000000012400000000001240000000000000000000000016400001000000000000001000000000000000124000000000000130002013091600000010000000000000BRBVMFACNOR3125
012013081282BVMFU41     080BVMFE FM    ON      NM000R$  000000000003000000000000430000000000030000000000003700000000000400000000000000000000000000000005000000000000013300000000000000499300000000000115002013091600000010000000000000BRBVMFACNOR3125
012013081282BVMFU42     080BVMFE FM    ON      NM000R$  000000000009400000000000940000000000078000000000008900000000000800000000000000000000000000000018000000000000037400000000000003329500000000000125002013091600000010000000000000BRBVMFACNOR3125
012013081282BVMFV11     080BVMFE FM    ON      NM000R$  000000000003200000000000370000000000030000000000003300000000000300000000000020000000000000000007000000000000011900000000000000403100000000000110002013102100000010000000000000BRBVMFACNOR3125
012013081282BVMFV12     080BVMFE FM    ON      NM000R$  000000000007600000000000760000000000063000000000006800000000000670000000000000000000000010000006000000000000016800000000000001142900000000000120002013102100000010000000000000BRBVMFACNOR3125
012013081282BVMFV41     080BVMFE FM    ON      NM000R$  000000000005300000000000550000000000044000000000004900000000000490000000000000000000000000000011000000000000024300000000000001192300000000000115002013102100000010000000000000BRBVMFACNOR3125
012013081282BVMFX11     080BVMFE       ON      NM000R$  000000000004600000000000500000000000046000000000004700000000000470000000000000000000000005500003000000000000002300000000000000109200000000000110002013121600000010000000000000BRBVMFACNOR3125
012013081202CAMB4       010CAMBUCI     PN           R$  000000000018100000000001810000000000181000000000018100000000001810000000000182000000000019400001000000000000000100000000000000018100000000000000009999123100000010000000000000BRCAMBACNPR1117
012013081202CARD3       010CSU CARDSYSTON      NM   R$  000000000032900000000003330000000000317000000000032000000000003210000000000320000000000032100150000000000000048100000000000015437600000000000000009999123100000010000000000000BRCARDACNOR9105
012013081296CBMA3F      020COBRASMA    ON           R$  000000000000500000000000050000000000005000000000000500000000000050000000000005000000000000700001000000000000000001000000000000000005000000000000009999123100000010000000000000BRCBMAACNOR4124
012013081202CBMA4       010COBRASMA    PN           R$  000000000000500000000000050000000000004000000000000400000000000040000000000004000000000000500015000000000000910000000000000003790000000000000000009999123100000010000000000000BRCBMAACNPR1124
012013081296CBMA4F      020COBRASMA    PN           R$  000000000000400000000000050000000000004000000000000400000000000040000000000004000000000000500006000000000000002815000000000000013261000000000000009999123100000010000000000000BRCBMAACNPR1124
012013081208CCHI3       010CHIARELLI   ON           R$  000000000003000000000000300000000000029000000000002900000000000300000000000030000000000003100012000000000000170000000000000005090000000000000000009999123100000010000000000000BRCCHIACNOR5123
012013081296CCHI3F      020CHIARELLI   ON           R$  000000000002700000000000270000000000025000000000002500000000000250000000000017000000000002800002000000000000001700000000000000043900000000000000009999123100000010000000000000BRCCHIACNOR5123
012013081208CCHI4       010CHIARELLI   PN           R$  000000000002400000000000240000000000024000000000002400000000000240000000000022000000000002500001000000000000010000000000000000240000000000000000009999123100000010000000000000BRCCHIACNPR2122
012013081202CCPR3       010CYRE COM-CCPON      NM   R$  000000000221100000000022110000000002202000000000220900000000022020000000002200000000000229500004000000000000002600000000000005745300000000000000009999123100000010000000000000BRCCPRACNOR9107
012013081202CCRO3       010CCR SA      ON      NM   R$  000000000177800000000017820000000001726000000000175700000000017300000000001728000000000173014464000000000005542400000000009741177400000000000000009999123100000010000000000000BRCCROACNOR2122
012013081296CCRO3F      020CCR SA      ON      NM   R$  000000000179900000000017990000000001719000000000174600000000017200000000001735000000000175500046000000000000001420000000000002479243000000000000009999123100000010000000000000BRCCROACNOR2122
012013081262CCRO3T      030CCR SA      ON      NM030R$  000000000178100000000017840000000001781000000000178200000000017840000000000000000000000000000004000000000000005600000000000009979402000000000000009999123100000010000000000000BRCCROACNOR2122
012013081202CCXC3       010CCX CARVAO  ON      NM   R$  000000000008500000000000870000000000083000000000008500000000000840000000000083000000000008400828000000000001544500000000000131491300000000000000009999123100000010000000000000BRCCXCACNOR5100
012013081296CCXC3F      020CCX CARVAO  ON      NM   R$  000000000008400000000000860000000000083000000000008400000000000850000000000084000000000008600011000000000000000298000000000000025256000000000000009999123100000010000000000000BRCCXCACNOR5100
012013081262CCXC3T      030CCX CARVAO  ON      NM091R$  000000000008700000000000880000000000086000000000008700000000000870000000000000000000000000000006000000000000350000000000000030606000000000000000009999123100000010000000000000BRCCXCACNOR5100
012013081202CEDO4       010CEDRO       PN      N1   R$  000000000089000000000008900000000000879000000000088000000000008790000000000824000000000087900006000000000000000600000000000000528500000000000000009999123100000010000000000000BRCEDOACNPR5126
012013081296CEEB3F      020COELBA      ON           R$  000000000320000000000032000000000003200000000000320000000000032000000000003009000000000350000002000000000000000071000000000000227200000000000000009999123100000010000000000000BRCEEBACNOR3163
012013081212CEOC11B     010FII CEO CCP CI  ER  MB   R$  000000000902200000000091800000000009022000000000909500000000090400000000009042000000000918000014000000000000000755000000000006867216000000000000009999123100000010000000000000BRCEOCCTF003109
012013081202CESP3       010CESP        ON      N1   R$  000000000172900000000017300000000001660000000000170900000000017090000000001675000000000170900006000000000000001600000000000002734800000000000000009999123100000010000000000000BRCESPACNOR3159
012013081202CESP6       010CESP        PNB     N1   R$  000000000216700000000021980000000002132000000000216100000000021450000000002139000000000214505667000000000001622200000000003506521800000000000000009999123100000010000000000000BRCESPACNPB4118
012013081296CESP6F      020CESP        PNB     N1   R$  000000000218000000000021900000000002131000000000216400000000021310000000002131000000000218500016000000000000000503000000000001088332000000000000009999123100000010000000000000BRCESPACNPB4118
012013081262CESP6T      030CESP        PNB     N1030R$  000000000220000000000022010000000002200000000000220000000000022010000000000000000000000000000002000000000000004000000000000008803934000000000000009999123100000010000000000000BRCESPACNPB4118
012013081202CGAS3       010COMGAS      ON           R$  000000000513100000000051500000000005131000000000514000000000051500000000004801000000000519700002000000000000000200000000000001028100000000000000009999123100000010000000000000BRCGASACNOR0132
012013081202CGAS5       010COMGAS      PNA          R$  000000000557000000000055930000000005526000000000555100000000055930000000005560000000000559300053000000000000377900000000002097786200000000000000009999123100000010000000000000BRCGASACNPA3129
012013081296CGAS5F      020COMGAS      PNA          R$  000000000555000000000055640000000005501000000000555600000000055010000000005503000000000554000003000000000000000088000000000000488960000000000000009999123100000010000000000000BRCGASACNPA3129
012013081202CGRA3       010GRAZZIOTIN  ON           R$  000000000166500000000016650000000001665000000000166500000000016650000000001571000000000166500003000000000000000300000000000000499500000000000000009999123100000010000000000000BRCGRAACNOR2061
012013081296CGRA3F      020GRAZZIOTIN  ON           R$  000000000170000000000017000000000001700000000000170000000000017000000000001532000000000170000001000000000000000004000000000000006800000000000000009999123100000010000000000000BRCGRAACNOR2061
012013081202CGRA4       010GRAZZIOTIN  PN           R$  000000000168000000000017110000000001659000000000168600000000016590000000001652000000000165900026000000000000007300000000000012309000000000000000009999123100000010000000000000BRCGRAACNPR9061
012013081296CGRA4F      020GRAZZIOTIN  PN           R$  000000000170000000000017000000000001700000000000170000000000017000000000001508000000000180000001000000000000000014000000000000023800000000000000009999123100000010000000000000BRCGRAACNPR9061
012013081202CIEL3       010CIELO       ON      NM   R$  000000000566500000000056800000000005573000000000561100000000056010000000005601000000000561107404000000000001532500000000008599974000000000000000009999123100000010000000000000BRCIELACNOR3111
012013081296CIEL3F      020CIELO       ON      NM   R$  000000000565300000000056800000000005571000000000562300000000056230000000005615000000000562300144000000000000003981000000000022388123000000000000009999123100000010000000000000BRCIELACNOR3111
012013081262CIEL3T      030CIELO       ON      NM120R$  000000000575200000000057530000000005752000000000575200000000057530000000000000000000000000000002000000000000000035000000000000201354000000000000009999123100000010000000000000BRCIELACNOR3111
012013081202CLSC4       010CELESC      PN      N2   R$  000000000188200000000018820000000001860000000000186900000000018740000000001861000000000187500020000000000000003200000000000005981600000000000000009999123100000010000000000000BRCLSCACNPR3107
012013081202CMIG3       010CEMIG       ON      N1   R$  000000000205000000000020910000000002020000000000207000000000020200000000002020000000000204500260000000000000087100000000000180363900000000000000009999123100000010000000000000BRCMIGACNOR6208
012013081296CMIG3F      020CEMIG       ON      N1   R$  000000000209900000000020990000000002031000000000204700000000020310000000002013000000000204100013000000000000000298000000000000610208000000000000009999123100000010000000000000BRCMIGACNOR6208
012013081202CMIG4       010CEMIG       PN      N1   R$  000000000206600000000021270000000002043000000000208000000000020600000000002058000000000206010305000000000003492300000000007264249700000000000000009999123100000010000000000000BRCMIGACNPR3208
012013081296CMIG4F      020CEMIG       PN      N1   R$  000000000205000000000021250000000002044000000000207900000000020590000000002059000000000207900141000000000000004269000000000008875297000000000000009999123100000010000000000000BRCMIGACNPR3208
012013081262CMIG4T      030CEMIG       PN      N1030R$  000000000211400000000021150000000002071000000000211000000000020720000000000000000000000000000004000000000000004400000000000009287598000000000000009999123100000010000000000000BRCMIGACNPR3208
012013081262CMIG4T      030CEMIG       PN      N1040R$  000000000212800000000021290000000002091000000000211700000000020920000000000000000000000000000006000000000000028600000000000060551181000000000000009999123100000010000000000000BRCMIGACNPR3208
012013081262CMIG4T      030CEMIG       PN      N1120R$  000000000214600000000021470000000002146000000000214600000000021470000000000000000000000000000002000000000000000034000000000000072982000000000000009999123100000010000000000000BRCMIGACNPR3208
012013081278CMIGI21     070CMIG        PN      N1000R$  000000000007000000000000700000000000070000000000007000000000000700000000000000000000000000000001000000000000000100000000000000007000000000000210002013091600000010000000000000BRCMIGACNPR3208
012013081278CMIGI22     070CMIG        PN      N1000R$  000000000005000000000000500000000000050000000000005000000000000500000000000000000000000000000001000000000000000300000000000000015000000000000220002013091600000010000000000000BRCMIGACNPR3208
012013081202COCA11B     010COCA COLA   DRN     MB   R$  000000000906700000000090670000000009067000000000906700000000090670000000008987000000000934700001000000000000000100000000000000906700000000000000009999123100000010000000000000BRCOCABDR002108
012013081202COCE3       010COELCE      ON           R$  000000000410100000000041550000000004035000000000408300000000040990000000003927000000000409900012000000000000002000000000000008166600000000000000009999123100000010000000000000BRCOCEACNOR0132
012013081202COCE5       010COELCE      PNA          R$  000000000393000000000040000000000003880000000000394600000000039000000000003900000000000394000270000000000000082200000000000324439600000000000000009999123100000010000000000000BRCOCEACNPA3133
012013081296COCE5F      020COELCE      PNA          R$  000000000392500000000039790000000003900000000000394100000000039110000000003911000000000400000035000000000000000436000000000001718440000000000000009999123100000010000000000000BRCOCEACNPA3133
012013081202CPFE3       010CPFL ENERGIAON      NM   R$  000000000215000000000021880000000002137000000000215900000000021510000000002151000000000216405231000000000001009200000000002179065100000000000000009999123100000010000000000000BRCPFEACNOR0121
012013081296CPFE3F      020CPFL ENERGIAON      NM   R$  000000000214000000000021800000000002136000000000216200000000021360000000002160000000000219700032000000000000000980000000000002118881000000000000009999123100000010000000000000BRCPFEACNOR0121
012013081262CPFE3T      030CPFL ENERGIAON      NM120R$  000000000222300000000022230000000002223000000000222300000000022230000000000000000000000000000001000000000000000001000000000000002223000000000000009999123100000010000000000000BRCPFEACNOR0121
012013081202CPLE3       010COPEL       ON      N1   R$  000000000237800000000024170000000002360000000000238000000000023850000000002151000000000238500048000000000000019700000000000046898100000000000000009999123100000010000000000000BRCPLEACNOR8128
012013081202CPLE6       010COPEL       PNB     N1   R$  000000000307500000000031860000000003064000000000310500000000030800000000003080000000000309604929000000000000813700000000002527102400000000000000009999123100000010000000000000BRCPLEACNPB9125
012013081296CPLE6F      020COPEL       PNB     N1   R$  000000000310500000000031810000000003011000000000310300000000030650000000003017000000000306500024000000000000000506000000000001568573000000000000009999123100000010000000000000BRCPLEACNPB9125
012013081202CPRE3       010CPFL RENOVAVON      NM   R$  000000000119500000000012150000000001180000000000120100000000012150000000001180000000000121500031000000000000031700000000000038073400000000000000009999123100000010000000000000BRCPREACNOR5100
012013081296CPRE3F      020CPFL RENOVAVON      NM   R$  000000000120500000000012050000000001180000000000119600000000012050000000001131000000000120500024000000000000000872000000000001043058000000000000009999123100000010000000000000BRCPREACNOR5100
012013081202CRDE3       010CR2         ON      NM   R$  000000000041000000000004100000000000410000000000041000000000004100000000000410000000000042000004000000000000003700000000000001517000000000000000009999123100000010000000000000BRCRDEACNOR1108
012013081202CREM3       010CREMER      ON      NM   R$  000000000147000000000014880000000001453000000000147900000000014700000000001400000000000147000014000000000000005200000000000007695700000000000000009999123100000010000000000000BRCREMACNOR2166
012013081296CREM3F      020CREMER      ON      NM   R$  000000000145400000000014540000000001450000000000145300000000014500000000001435000000000149400002000000000000000016000000000000023260000000000000009999123100000010000000000000BRCREMACNOR2166
012013081202CRUZ3       010SOUZA CRUZ  ON           R$  000000000260500000000026620000000002592000000000263200000000026250000000002623000000000262606674000000000001373000000000003615017800000000000000009999123100000010000000000000BRCRUZACNOR0246
012013081296CRUZ3F      020SOUZA CRUZ  ON           R$  000000000259900000000026600000000002599000000000263700000000026400000000002625000000000264000080000000000000002119000000000005589779000000000000009999123100000010000000000000BRCRUZACNOR0246
012013081262CRUZ3T      030SOUZA CRUZ  ON        016R$  000000000262600000000026270000000002626000000000262600000000026270000000000000000000000000000002000000000000000800000000000002101205000000000000009999123100000010000000000000BRCRUZACNOR0246
012013081262CRUZ3T      030SOUZA CRUZ  ON        030R$  000000000267300000000026740000000002673000000000267300000000026740000000000000000000000000000002000000000000000400000000000001069222000000000000009999123100000010000000000000BRCRUZACNOR0246
012013081262CRUZ3T      030SOUZA CRUZ  ON        060R$  000000000267700000000026780000000002677000000000267700000000026780000000000000000000000000000002000000000000000500000000000001338834000000000000009999123100000010000000000000BRCRUZACNOR0246
012013081262CRUZ3T      030SOUZA CRUZ  ON        120R$  000000000271800000000027190000000002718000000000271800000000027190000000000000000000000000000002000000000000000026000000000000070687000000000000009999123100000010000000000000BRCRUZACNOR0246
012013081278CRUZL34     070CRUZ        ON        000R$  000000000001000000000000100000000000010000000000001000000000000100000000000000000000000000000001000000000000005000000000000000050000000000000340002013121600000010000000000000BRCRUZACNOR0246
012013081278CRUZL57     070CRUZ        ON        000R$  000000000015700000000001570000000000157000000000015700000000001570000000000000000000000000000002000000000000005000000000000000785000000000000275002013121600000010000000000000BRCRUZACNOR0246
012013081202CSAB4       010SEG AL BAHIAPN           R$  000000000300000000000030000000000003000000000000300000000000030000000000003000000000000000000004000000000000000600000000000001800000000000000000009999123100000010000000000000BRCSABACNPR8051
012013081202CSAN3       010COSAN       ON  ED  NM   R$  000000000423500000000043000000000004116000000000419500000000041400000000004140000000000414805429000000000001222400000000005128415000000000000000009999123100000010000000000000BRCSANACNOR6108
012013081296CSAN3F      020COSAN       ON  ED  NM   R$  000000000421800000000042960000000004121000000000418600000000041250000000004125000000000424500043000000000000000961000000000004022771000000000000009999123100000010000000000000BRCSANACNOR6108
012013081262CSAN3T      030COSAN       ON  ED  NM016R$  000000000421500000000042160000000004215000000000421500000000042160000000000000000000000000000002000000000000000100000000000000421521000000000000009999123100000010000000000000BRCSANACNOR6108
012013081262CSAN3T      030COSAN       ON  ED  NM091R$  000000000437700000000043780000000004227000000000430500000000042280000000000000000000000000000020000000000000161200000000000694090483000000000000009999123100000010000000000000BRCSANACNOR6108
012013081202CSCO11B     010CISCO       DRN     MB   R$  000000000594300000000060050000000005943000000000596600000000059990000000000000000000000000000003000000000000030500000000000181969100000000000000009999123100000010000000000000BRCSCOBDR004110
012013081202CSMG3       010COPASA      ON      NM   R$  000000000321500000000032740000000003150000000000321500000000031730000000003173000000000319803245000000000000553500000000001779656100000000000000009999123100000010000000000000BRCSMGACNOR5127
012013081296CSMG3F      020COPASA      ON      NM   R$  000000000321000000000032600000000003160000000000319600000000031740000000003160000000000321000035000000000000001033000000000003301753000000000000009999123100000010000000000000BRCSMGACNOR5127
012013081262CSMG3T      030COPASA      ON      NM016R$  000000000320900000000032100000000003209000000000320900000000032100000000000000000000000000000002000000000000000500000000000001604671000000000000009999123100000010000000000000BRCSMGACNOR5127
012013081214CSMO11      010ISHARES CSMOCI           R$  000000000467000000000046920000000004667000000000467400000000046670000000003800000000000490000005000000000000000280000000000001308760000000000000009999123100000010000000000000BRCSMOCTF002100
012013081202CSNA3       010SID NACIONALON  EDJ      R$  000000000071000000000007480000000000708000000000072700000000007250000000000725000000000072617429000000000011037900000000008028048300000000000000009999123100000010000000000000BRCSNAACNOR6243
012013081296CSNA3F      020SID NACIONALON  EDJ      R$  000000000070700000000007450000000000690000000000072500000000007320000000000710000000000073200159000000000000004649000000000003373230000000000000009999123100000010000000000000BRCSNAACNOR6243
012013081262CSNA3T      030SID NACIONALON  EDJ   030R$  000000000073400000000007350000000000734000000000073400000000007350000000000000000000000000000002000000000000003000000000000002204892000000000000009999123100000010000000000000BRCSNAACNOR6243
012013081262CSNA3T      030SID NACIONALON  EDJ   040R$  000000000073400000000007350000000000734000000000073400000000007350000000000000000000000000000002000000000000010000000000000007346335000000000000009999123100000010000000000000BRCSNAACNOR6243
012013081262CSNA3T      030SID NACIONALON  EDJ   091R$  000000000074700000000007480000000000738000000000074200000000007430000000000000000000000000000006000000000000005100000000000003787522000000000000009999123100000010000000000000BRCSNAACNOR6243
012013081278CSNAH6      070CSNA    /EDJON        000R$  000000000015300000000001620000000000140000000000014800000000001400000000000140000000000000000004000000000000002700000000000000401900000000000058002013081900000010000000000000BRCSNAACNOR6242
012013081278CSNAH64     070CSNA    /EDJON        000R$  000000000012600000000001270000000000121000000000012200000000001210000000000000000000000000000009000000000000018000000000000002211000000000000062002013081900000010000000000000BRCSNAACNOR6242
012013081278CSNAH68     070CSNA    /EDJON        000R$  000000000007200000000000730000000000071000000000007100000000000710000000000000000000000000000084000000000000041800000000000003008800000000000066002013081900000010000000000000BRCSNAACNOR6242
012013081278CSNAH7      070CSNA    /EDJON        000R$  000000000004600000000000750000000000045000000000005400000000000540000000000015000000000000000030000000000000087500000000000004748800000000000068002013081900000010000000000000BRCSNAACNOR6242
012013081278CSNAH72     070CSNA    /EDJON        000R$  000000000003300000000000550000000000033000000000004100000000000400000000000000000000000005500014000000000000007800000000000000322400000000000070002013081900000010000000000000BRCSNAACNOR6242
012013081278CSNAH78     070CSNA    /EDJON        000R$  000000000001000000000000130000000000008000000000000900000000000080000000000005000000000000000004000000000000015500000000000000153000000000000076002013081900000010000000000000BRCSNAACNOR6242
012013081278CSNAH8      070CSNA    /EDJON        000R$  000000000000200000000000040000000000002000000000000300000000000040000000000000000000000000400007000000000000038200000000000000123800000000000078002013081900000010000000000000BRCSNAACNOR6242
012013081278CSNAI66     070CSNA    /EDJON        000R$  000000000009000000000000900000000000090000000000009000000000000900000000000000000000000000000001000000000000002000000000000000180000000000000064002013091600000010000000000000BRCSNAACNOR6242
012013081278CSNAI68     070CSNA  FM/EDJON        000R$  000000000007900000000001000000000000079000000000009100000000000860000000000000000000000000000010000000000000019000000000000001733700000000000066002013091600000010000000000000BRCSNAACNOR6242
012013081278CSNAI7      070CSNA  FM/EDJON        000R$  000000000007000000000000900000000000065000000000007800000000000650000000000065000000000008000043000000000000059800000000000004665800000000000068002013091600000010000000000000BRCSNAACNOR6242
012013081278CSNAI72     070CSNA  FM/EDJON        000R$  000000000006600000000000730000000000055000000000006400000000000550000000000000000000000000000010000000000000014200000000000000910400000000000070002013091600000010000000000000BRCSNAACNOR6242
012013081278CSNAI74     070CSNA  FM/EDJON        000R$  000000000005300000000000610000000000052000000000005700000000000520000000000000000000000000000006000000000000010300000000000000589400000000000072002013091600000010000000000000BRCSNAACNOR6242
012013081278CSNAI76     070CSNA  FM/EDJON        000R$  000000000004000000000000470000000000039000000000004200000000000390000000000000000000000000000006000000000000007200000000000000302800000000000074002013091600000010000000000000BRCSNAACNOR6242
