00COTAHIST.2013BOVESPA 20131007                                                                                                                                                                                                                      
012013100702ABCB4       010ABC BRASIL  PN      N2   R$  000000000127000000000013000000000001257000000000127700000000013000000000001291000000000130000710000000000000170100000000000217275000000000000000009999123100000010000000000000BRABCBACNPR4120
012013100796ABCB4F      020ABC BRASIL  PN      N2   R$  000000000126000000000012850000000001255000000000126600000000012810000000001291000000000130000012000000000000000067000000000000084843000000000000009999123100000010000000000000BRABCBACNPR4120
012013100712ABCP11      010FII ABC IMOBCI  ER       R$  000000000098800000000009890000000000988000000000098800000000009890000000000975000000000098900002000000000000000196000000000000193694000000000000009999123100000010000000000000BRABCPCTF000216
012013100702ABRE11      010ABRIL EDUCA UNT     N2   R$  000000000332500000000033650000000003296000000000331500000000033000000000003298000000000330000483000000000000143200000000000474747100000000000000009999123100000010000000000000BRABRECDAM15102
012013100796ABRE11F     020ABRIL EDUCA UNT     N2   R$  000000000334100000000033690000000003300000000000334600000000033690000000003281000000000336900004000000000000000123000000000000411603000000000000009999123100000010000000000000BRABRECDAM15102
012013100702AEDU3       010ANHANGUERA  ON      NM   R$  000000000131700000000013300000000001302000000000131500000000013200000000001320000000000132104254000000000001219400000000001604407900000000000000009999123100000010000000000000BRAEDUACNOR9107
012013100796AEDU3F      020ANHANGUERA  ON      NM   R$  000000000131500000000013490000000001310000000000131800000000013290000000001310000000000133000013000000000000000350000000000000461486000000000000009999123100000010000000000000BRAEDUACNOR9107
012013100712AEFI11      010FII AESAPAR CI  ER       R$  000000001194200000000120500000000011942000000001197900000000120500000000011950000000001205000008000000000000000161000000000001928740000000000000009999123100000010000000000000BRAEFICTF002122
012013100702AELP3       010AES ELPA    ON           R$  000000000094700000000009470000000000946000000000094600000000009460000000000910000000000094600004000000000000000600000000000000567700000000000000009999123100000010000000000000BRAELPACNOR2119
012013100796AELP3F      020AES ELPA    ON           R$  000000000100000000000010000000000000980000000000099900000000009800000000000975000000000098000002000000000000000021000000000000020980000000000000009999123100000010000000000000BRAELPACNOR2119
012013100712AGCX11      010FII AG CAIXACI  ER       R$  000000009555000000000955500000000095000000000009504700000000951000000000095000000000009509900004000000000000000049000000000004657350000000000000009999123100000010000000000000BRAGCXCTF003111
012013100702AGRO3       010BRASILAGRO  ON      NM   R$  000000000098500000000009850000000000971000000000097200000000009800000000000967000000000098000032000000000000019300000000000018764500000000000000009999123100000010000000000000BRAGROACNOR7102
012013100702ALLL3       010ALL AMER LATON      NM   R$  000000000089900000000009040000000000890000000000089600000000009000000000000899000000000090005421000000000001598100000000001432807300000000000000009999123100000010000000000000BRALLLACNOR6118
012013100796ALLL3F      020ALL AMER LATON      NM   R$  000000000090000000000009100000000000890000000000089800000000009090000000000902000000000090900035000000000000000731000000000000656963000000000000009999123100000010000000000000BRALLLACNOR6118
012013100762ALLL3T      030ALL AMER LATON      NM030R$  000000000090000000000009010000000000900000000000090000000000009010000000000000000000000000000004000000000000020000000000000018015888000000000000009999123100000010000000000000BRALLLACNOR6118
012013100762ALLL3T      030ALL AMER LATON      NM060R$  000000000091200000000009130000000000912000000000091200000000009130000000000000000000000000000002000000000000000600000000000000547475000000000000009999123100000010000000000000BRALLLACNOR6118
012013100712ALMI11B     010FII TORRE ALCI  ER  MB   R$  000000031400000000003140000000000314000000000031400000000003140000000000314000000000031890000001000000000000000009000000000002826000000000000000009999123100000010000000000000BRALMICTF003206
012013100702ALPA3       010ALPARGATAS  ON      N1   R$  000000000127200000000012720000000001270000000000127000000000012700000000001253000000000129300006000000000000005000000000000006350400000000000000009999123100000010000000000000BRALPAACNOR0203
012013100702ALPA4       010ALPARGATAS  PN      N1   R$  000000000145900000000014600000000001424000000000144200000000014310000000001431000000000145000406000000000000246500000000000355698300000000000000009999123100000010000000000000BRALPAACNPR7203
012013100796ALPA4F      020ALPARGATAS  PN      N1   R$  000000000145000000000014500000000001431000000000144300000000014450000000001430000000000146000011000000000000000259000000000000373890000000000000009999123100000010000000000000BRALPAACNPR7203
012013100778ALPAK15     070ALPA        PN      N1000R$  000000000001400000000000140000000000014000000000001400000000000140000000000000000000000000000001000000000000002700000000000000037800000000000150002013111800000010000000000000BRALPAACNPR7203
012013100702ALSC3       010ALIANSCE    ON      NM   R$  000000000204900000000020490000000002013000000000202800000000020200000000002018000000000202000709000000000000328200000000000665765000000000000000009999123100000010000000000000BRALSCACNOR0104
012013100796ALSC3F      020ALIANSCE    ON      NM   R$  000000000203100000000020500000000002031000000000203900000000020500000000002000000000000205000003000000000000000120000000000000244704000000000000009999123100000010000000000000BRALSCACNOR0104
012013100702ALUP11      010ALUPAR      UNT     N2   R$  000000000173900000000017390000000001695000000000171800000000017240000000001695000000000172400192000000000000058000000000000099656300000000000000009999123100000010000000000000BRALUPCDAM15100
012013100796ALUP11F     020ALUPAR      UNT     N2   R$  000000000172000000000017920000000001700000000000172700000000017000000000001650000000000171000038000000000000000592000000000001022739000000000000009999123100000010000000000000BRALUPCDAM15100
012013100702AMAR3       010LOJAS MARISAON      NM   R$  000000000204400000000020560000000002022000000000203800000000020450000000002030000000000204500972000000000000186400000000000379920200000000000000009999123100000010000000000000BRAMARACNOR4109
012013100796AMAR3F      020LOJAS MARISAON      NM   R$  000000000204600000000020460000000002013000000000203200000000020130000000002002000000000204500012000000000000000459000000000000933101000000000000009999123100000010000000000000BRAMARACNOR4109
012013100702AMBV3       010AMBEV       ON           R$  000000000854900000000085490000000008429000000000847800000000084800000000008478000000000848001012000000000000149400000000001266744600000000000000009999123100000010000000000000BRAMBVACNOR4154
012013100796AMBV3F      020AMBEV       ON           R$  000000000854000000000085980000000008451000000000850500000000084520000000008421000000000848900030000000000000000482000000000004099058000000000000009999123100000010000000000000BRAMBVACNOR4154
012013100702AMBV4       010AMBEV       PN           R$  000000000856100000000085610000000008447000000000848600000000084900000000008477000000000849104346000000000001382000000000011727722900000000000000009999123100000010000000000000BRAMBVACNPR1154
012013100796AMBV4F      020AMBEV       PN           R$  000000000852000000000085740000000008434000000000849400000000084670000000008450000000000846700129000000000000002642000000000022440661000000000000009999123100000010000000000000BRAMBVACNPR1154
012013100762AMBV4S      030AMBEV       PN        090R$  000000000873900000000087400000000008739000000000873900000000087400000000000000000000000000000002000000000000005900000000000051564999000000000000009999123100000010000000000000BRAMBVACNPR1154
012013100762AMBV4T      030AMBEV       PN        108R$  000000000874700000000087480000000008747000000000874700000000087480000000000000000000000000000002000000000000003000000000000026243347000000000000009999123100000010000000000000BRAMBVACNPR1154
012013100762AMBV4T      030AMBEV       PN        120R$  000000000872300000000087240000000008723000000000872300000000087240000000000000000000000000000002000000000000002000000000000017446498000000000000009999123100000010000000000000BRAMBVACNPR1154
012013100762AMBV4T      030AMBEV       PN        182R$  000000000891800000000089190000000008877000000000889300000000088780000000000000000000000000000004000000000000000800000000000007114415000000000000009999123100000010000000000000BRAMBVACNPR1154
012013100762AMBV4T      030AMBEV       PN        045R$  000000000858900000000085900000000008589000000000858900000000085900000000000000000000000000000002000000000000030600000000000262834767000000000000009999123100000010000000000000BRAMBVACNPR1154
012013100762AMBV4T      030AMBEV       PN        060R$  000000000863600000000086360000000008636000000000863600000000086360000000000000000000000000000001000000000000050000000000000431800000000000000000009999123100000010000000000000BRAMBVACNPR1154
012013100702ARTR3       010ARTERIS     ON      NM   R$  000000000191300000000019660000000001895000000000194700000000019490000000001938000000000194901102000000000000188800000000000367598500000000000000009999123100000010000000000000BRARTRACNOR3101
012013100796ARTR3F      020ARTERIS     ON      NM   R$  000000000197300000000019750000000001940000000000195600000000019750000000001930000000000197500027000000000000000729000000000001426113000000000000009999123100000010000000000000BRARTRACNOR3101
012013100702ARZZ3       010AREZZO CO   ON      NM   R$  000000000367700000000037590000000003652000000000370200000000037000000000003674000000000370000941000000000000160500000000000594237700000000000000009999123100000010000000000000BRARZZACNOR3109
012013100796ARZZ3F      020AREZZO CO   ON      NM   R$  000000000370000000000038990000000003676000000000369700000000036980000000003603000000000379900019000000000000000145000000000000536141000000000000009999123100000010000000000000BRARZZACNOR3109
012013100702AUTM3       010AUTOMETAL   ON      NM   R$  000000000184000000000018610000000001839000000000185000000000018500000000001849000000000185000110000000000000589300000000001090209100000000000000009999123100000010000000000000BRAUTMACNOR8109
012013100796AUTM3F      020AUTOMETAL   ON      NM   R$  000000000176900000000017690000000001768000000000176800000000017680000000001768000000000186800002000000000000000027000000000000047762000000000000009999123100000010000000000000BRAUTMACNOR8109
012013100702AZEV4       010AZEVEDO     PN           R$  000000000012500000000001250000000000115000000000012000000000001150000000000115000000000012500002000000000000000200000000000000024000000000000000009999123100000010000000000000BRAZEVACNPR7113
012013100702BAHI3       010BAHEMA      ON           R$  000000000050000000000005000000000000480000000000049000000000005000000000000474000000000050000004000000000000004100000000000002012000000000000000009999123100000010000000000000BRBAHIACNOR1066
012013100796BAHI3F      020BAHEMA      ON           R$  000000000051500000000005150000000000500000000000051300000000005000000000000500000000000060000003000000000000000100000000000000051350000000000000009999123100000010000000000000BRBAHIACNOR1066
012013100702BALM4       010BAUMER      PN           R$  000000000960000000000096000000000009550000000000957500000000095500000000009550000000001000000002000000000000000200000000000001915000000000000000009999123100000010000000000000BRBALMACNPR2043
012013100702BAZA3       010AMAZONIA    ON           R$  000000000003300000000000330000000000033000000000003300000000000330000000000032000000000003300006000000000000012000000000000000396000000000000000009999123100000010000000000000BRBAZAACNOR0163
012013100702BBAS3       010BRASIL      ON      NM   R$  000000000262700000000026320000000002598000000000261400000000026320000000002631000000000263211373000000000003971300000000010382299100000000000000009999123100000010000000000000BRBBASACNOR3239
012013100796BBAS3F      020BRASIL      ON      NM   R$  000000000262500000000026360000000002599000000000261300000000026270000000002601000000000262700273000000000000006703000000000017519421000000000000009999123100000010000000000000BRBBASACNOR3239
012013100762BBAS3T      030BRASIL      ON      NM016R$  000000000261800000000026190000000002618000000000261800000000026190000000000000000000000000000002000000000000003000000000000007855412000000000000009999123100000010000000000000BRBBASACNOR3239
012013100762BBAS3T      030BRASIL      ON      NM030R$  000000000264600000000026470000000002628000000000262900000000026290000000000000000000000000000006000000000000001100000000000002892726000000000000009999123100000010000000000000BRBBASACNOR3239
012013100762BBAS3T      030BRASIL      ON      NM091R$  000000000267000000000026710000000002670000000000267000000000026710000000000000000000000000000002000000000000005000000000000013354680000000000000009999123100000010000000000000BRBBASACNOR3239
012013100778BBASC26     070BBAS        ON      NM000R$  000000000023100000000002310000000000231000000000023100000000002310000000000000000000000060000001000000000000000200000000000000046200000000000260002014031700000010000000000000BRBBASACNOR3239
012013100778BBASJ24     070BBAS        ON      NM000R$  000000000036000000000003600000000000360000000000036000000000003600000000000215000000000000000001000000000000000300000000000000108000000000000227102013102100000010000000000000BRBBASACNOR3236
012013100778BBASJ25     070BBAS        ON      NM000R$  000000000022000000000002500000000000200000000000023100000000002500000000000200000000000025000012000000000000025700000000000005941700000000000239502013102100000010000000000000BRBBASACNOR3237
012013100778BBASJ26     070BBAS  FM    ON      NM000R$  000000000020000000000002000000000000156000000000016700000000001710000000000034000000000019500193000000000000263000000000000043990500000000000246102013102100000010000000000000BRBBASACNOR3235
012013100778BBASJ27     070BBAS  FM    ON      NM000R$  000000000008500000000000980000000000077000000000008500000000000890000000000085000000000010000215000000000000211500000000000018007400000000000256102013102100000010000000000000BRBBASACNOR3235
012013100778BBASJ28     070BBAS  FM    ON      NM000R$  000000000002000000000000240000000000015000000000002000000000000210000000000017000000000002100112000000000000118700000000000002423400000000000269502013102100000010000000000000BRBBASACNOR3237
012013100778BBASJ29     070BBAS  FM    ON      NM000R$  000000000000900000000000100000000000007000000000000800000000000070000000000007000000000003000020000000000000032100000000000000264000000000000276102013102100000010000000000000BRBBASACNOR3235
012013100778BBASJ30     070BBAS  FM    ON      NM000R$  000000000000300000000000040000000000003000000000000300000000000030000000000001000000000000300005000000000000005800000000000000019500000000000286102013102100000010000000000000BRBBASACNOR3235
012013100778BBASJ56     070BBAS        ON      NM000R$  000000000012100000000001240000000000121000000000012200000000001240000000000113000000000000000002000000000000001000000000000000122500000000000251102013102100000010000000000000BRBBASACNOR3235
012013100778BBASJ65     070BBAS        ON      NM000R$  000000000003300000000000370000000000032000000000003300000000000320000000000000000000000000000009000000000000023300000000000000790500000000000265002013102100000010000000000000BRBBASACNOR3239
012013100778BBASJ82     070BBAS        ON      NM000R$  000000000011800000000001180000000000118000000000011800000000001180000000000000000000000000000002000000000000080000000000000009440000000000000320002014102000000010000000000000BRBBASACNOR3239
012013100778BBASK25     070BBAS        ON      NM000R$  000000000024300000000002710000000000243000000000025600000000002710000000000235000000000000000009000000000000002000000000000000513700000000000237102013111800000010000000000000BRBBASACNOR3236
012013100778BBASK26     070BBAS  FM    ON      NM000R$  000000000019200000000002090000000000189000000000019500000000001970000000000191000000000000000097000000000000121400000000000023734100000000000247102013111800000010000000000000BRBBASACNOR3236
012013100778BBASK27     070BBAS  FM    ON      NM000R$  000000000013300000000001330000000000119000000000012300000000001250000000000045000000000000000021000000000000040400000000000004985400000000000257102013111800000010000000000000BRBBASACNOR3236
012013100778BBASK28     070BBAS  FM    ON      NM000R$  000000000006700000000000750000000000064000000000006700000000000740000000000069000000000000000084000000000000101700000000000006893100000000000267102013111800000010000000000000BRBBASACNOR3236
012013100778BBASK29     070BBAS  FM    ON      NM000R$  000000000003200000000000320000000000025000000000002700000000000270000000000021000000000003200107000000000000112600000000000003045800000000000279502013111800000010000000000000BRBBASACNOR3237
012013100778BBASK30     070BBAS  FM    ON      NM000R$  000000000001300000000000140000000000013000000000001300000000000140000000000010000000000001600003000000000000006300000000000000086100000000000289502013111800000010000000000000BRBBASACNOR3237
012013100778BBASL26     070BBAS        ON      NM000R$  000000000023600000000002360000000000236000000000023600000000002360000000000016000000000000000001000000000000000400000000000000094400000000000246102013121600000010000000000000BRBBASACNOR3235
012013100778BBASL27     070BBAS        ON      NM000R$  000000000014100000000001450000000000140000000000014200000000001400000000000016000000000000000004000000000000000900000000000000128600000000000259502013121600000010000000000000BRBBASACNOR3237
012013100778BBASL28     070BBAS        ON      NM000R$  000000000009300000000000930000000000093000000000009300000000000930000000000016000000000000000003000000000000001500000000000000139500000000000269502013121600000010000000000000BRBBASACNOR3237
012013100778BBASL60     070BBAS        ON      NM000R$  000000000003400000000000340000000000034000000000003400000000000340000000000014000000000000000001000000000000001200000000000000040800000000000286202013121600000010000000000000BRBBASACNOR3233
012013100778BBASL79     070BBAS        ON      NM000R$  000000000003000000000000300000000000030000000000003000000000000300000000000000000000000000000006000000000000020000000000000000600000000000000290002013121600000010000000000000BRBBASACNOR3239
012013100782BBASV24     080BBASE       ON      NM000R$  000000000000200000000000020000000000002000000000000200000000000020000000000000000000000000300001000000000000003000000000000000006000000000000227102013102100000010000000000000BRBBASACNOR3236
012013100782BBASV25     080BBASE FM    ON      NM000R$  000000000000500000000000060000000000005000000000000500000000000050000000000004000000000000800009000000000000032600000000000000192500000000000239502013102100000010000000000000BRBBASACNOR3237
012013100782BBASV26     080BBASE FM    ON      NM000R$  000000000000900000000000100000000000008000000000000900000000000080000000000005000000000001400004000000000000010000000000000000091000000000000246102013102100000010000000000000BRBBASACNOR3235
012013100782BBASV27     080BBASE FM    ON      NM000R$  000000000002300000000000300000000000022000000000002600000000000240000000000022000000000002800067000000000000073600000000000001941000000000000256102013102100000010000000000000BRBBASACNOR3235
012013100782BBASV28     080BBASE FM    ON      NM000R$  000000000009200000000001050000000000080000000000009400000000000800000000000000000000000000000247000000000000278100000000000026401200000000000269502013102100000010000000000000BRBBASACNOR3237
012013100782BBASV65     080BBASE       ON      NM000R$  000000000006800000000000710000000000068000000000006900000000000710000000000000000000000000000002000000000000008000000000000000556000000000000265002013102100000010000000000000BRBBASACNOR3239
012013100782BBASV66     080BBASE       ON      NM000R$  000000000019000000000001900000000000190000000000019000000000001900000000000000000000000000000001000000000000080000000000000015200000000000000260002014102000000010000000000000BRBBASACNOR3239
012013100782BBASV73     080BBASE       ON      NM000R$  000000000007200000000000720000000000072000000000007200000000000720000000000000000000000000000001000000000000080000000000000005760000000000000235002014102000000010000000000000BRBBASACNOR3239
012013100782BBASW24     080BBASE       ON      NM000R$  000000000001100000000000110000000000011000000000001100000000000110000000000000000000000000000001000000000000004000000000000000044000000000000229502013111800000010000000000000BRBBASACNOR3237
012013100782BBASW25     080BBASE FM    ON      NM000R$  000000000001800000000000190000000000018000000000001800000000000190000000000000000000000000000002000000000000004000000000000000073900000000000237102013111800000010000000000000BRBBASACNOR3236
012013100782BBASW26     080BBASE FM    ON      NM000R$  000000000003300000000000330000000000033000000000003300000000000330000000000028000000000004200001000000000000002000000000000000066000000000000247102013111800000010000000000000BRBBASACNOR3236
012013100782BBASW27     080BBASE FM    ON      NM000R$  000000000005400000000000620000000000054000000000005900000000000600000000000000000000000000000006000000000000012900000000000000766200000000000257102013111800000010000000000000BRBBASACNOR3236
012013100782BBASW28     080BBASE FM    ON      NM000R$  000000000010800000000001100000000000094000000000010400000000000950000000000085000000000000000030000000000000053000000000000005549600000000000267102013111800000010000000000000BRBBASACNOR3236
012013100782BBASX25     080BBASE       ON      NM000R$  000000000002700000000000270000000000027000000000002700000000000270000000000026000000000004000002000000000000001600000000000000043200000000000236102013121600000010000000000000BRBBASACNOR3235
012013100782BBASX26     080BBASE       ON      NM000R$  000000000004900000000000490000000000048000000000004800000000000490000000000000000000000000000007000000000000020000000000000000977000000000000246102013121600000010000000000000BRBBASACNOR3235
012013100782BBASX27     080BBASE       ON      NM000R$  000000000009000000000000900000000000090000000000009000000000000900000000000000000000000000000003000000000000009000000000000000810000000000000259502013121600000010000000000000BRBBASACNOR3237
012013100702BBDC3       010BRADESCO    ON  EJ  N1   R$  000000000353000000000035650000000003501000000000353600000000035350000000003534000000000353502346000000000000512500000000001812327700000000000000009999123100000010000000000000BRBBDCACNOR1607
012013100796BBDC3F      020BRADESCO    ON  EJ  N1   R$  000000000355000000000035990000000003452000000000352700000000035990000000003506000000000359900025000000000000000639000000000002255792000000000000009999123100000010000000000000BRBBDCACNOR1607
012013100702BBDC4       010BRADESCO    PN  EJ  N1   R$  000000000304200000000030920000000003042000000000306600000000030750000000003073000000000307511775000000000006212400000000019049750500000000000000009999123100000010000000000000BRBBDCACNPR8607
012013100796BBDC4F      020BRADESCO    PN  EJ  N1   R$  000000000305000000000030910000000003041000000000306600000000030900000000003066000000000309000121000000000000003380000000000010364001000000000000009999123100000010000000000000BRBBDCACNPR8607
012013100762BBDC4T      030BRADESCO    PN  EJ  N1017R$  000000000306900000000030700000000003069000000000306900000000030700000000000000000000000000000002000000000000004000000000000012278656000000000000009999123100000010000000000000BRBBDCACNPR8607
012013100762BBDC4T      030BRADESCO    PN  EJ  N1030R$  000000000308000000000030810000000003080000000000308000000000030810000000000000000000000000000002000000000000005000000000000015404675000000000000009999123100000010000000000000BRBBDCACNPR8607
012013100778BBDCJ1      070BBDC    /EJ PN      N1000R$  000000000003300000000000410000000000033000000000003900000000000340000000000000000000000000000006000000000000006200000000000000242000000000000314202013102100000010000000000000BRBBDCACNPR8603
012013100778BBDCJ2      070BBDC    /EJ PN      N1000R$  000000000000900000000000130000000000009000000000000900000000000130000000000000000000000002400027000000000000024300000000000000226700000000000324202013102100000010000000000000BRBBDCACNPR8603
012013100778BBDCJ29     070BBDC    /EJ PN      N1000R$  000000000020200000000002370000000000202000000000023000000000002370000000000182000000000024800072000000000000010200000000000002353100000000000287402013102100000010000000000000BRBBDCACNPR8602
012013100778BBDCJ30     070BBDC  FM/EJ PN      N1000R$  000000000012000000000001440000000000111000000000012700000000001330000000000102000000000014800270000000000000230300000000000029390000000000000297402013102100000010000000000000BRBBDCACNPR8602
012013100778BBDCJ31     070BBDC  FM/EJ PN      N1000R$  000000000005300000000000730000000000051000000000006000000000000630000000000056000000000006300076000000000000099000000000000005999400000000000307402013102100000010000000000000BRBBDCACNPR8602
012013100778BBDCJ32     070BBDC  FM/EJ PN      N1000R$  000000000001800000000000280000000000018000000000002100000000000280000000000020000000000003000156000000000000169600000000000003712000000000000317402013102100000010000000000000BRBBDCACNPR8602
012013100778BBDCJ33     070BBDC  FM/EJ PN      N1000R$  000000000000700000000000100000000000006000000000000700000000000090000000000007000000000001100032000000000000069200000000000000537800000000000327402013102100000010000000000000BRBBDCACNPR8602
012013100778BBDCJ34     070BBDC  FM/EJ PN      N1000R$  000000000000400000000000070000000000003000000000000300000000000070000000000007000000000000000026000000000000071300000000000000278400000000000337002013102100000010000000000000BRBBDCACNPR8600
012013100778BBDCK30     070BBDC  FM/EJ PN      N1000R$  000000000014600000000001740000000000143000000000016200000000001430000000000143000000000019000071000000000000107300000000000017431500000000000299602013111800000010000000000000BRBBDCACNPR8605
012013100778BBDCK31     070BBDC  FM/EJ PN      N1000R$  000000000009100000000001100000000000090000000000010100000000001100000000000090000000000014800105000000000000110700000000000011229000000000000309602013111800000010000000000000BRBBDCACNPR8605
012013100778BBDCK32     070BBDC  FM/EJ PN      N1000R$  000000000006000000000000760000000000060000000000006900000000000720000000000055000000000008000145000000000000112600000000000007824400000000000317202013111800000010000000000000BRBBDCACNPR8601
012013100778BBDCK33     070BBDC  FM/EJ PN      N1000R$  000000000003100000000000400000000000031000000000003500000000000400000000000026000000000004900008000000000000012400000000000000444300000000000327402013111800000010000000000000BRBBDCACNPR8602
012013100778BBDCK34     070BBDC  FM/EJ PN      N1000R$  000000000001600000000000190000000000016000000000001600000000000190000000000014000000000000000003000000000000006500000000000000108500000000000339402013111800000010000000000000BRBBDCACNPR8604
012013100778BBDCK9      070BBDC    /EJ PN      N1000R$  000000000024700000000002470000000000247000000000024700000000002470000000000000000000000000000068000000000000006800000000000001679600000000000289602013111800000010000000000000BRBBDCACNPR8605
012013100778BBDCL1      070BBDC    /EJ PN      N1000R$  000000000015100000000001650000000000151000000000015600000000001650000000000000000000000000000005000000000000002000000000000000313400000000000307002013121600000010000000000000BRBBDCACNPR8600
012013100778BBDCL32     070BBDC    /EJ PN      N1000R$  000000000010300000000001030000000000103000000000010300000000001030000000000089000000000012400014000000000000001400000000000000144200000000000317002013121600000010000000000000BRBBDCACNPR8600
012013100778BBDCL35     070BBDC    /EJ PN      N1000R$  000000000002300000000000260000000000023000000000002500000000000260000000000026000000000009000027000000000000017900000000000000455800000000000347002013121600000010000000000000BRBBDCACNPR8600
012013100778BBDCL36     070BBDC    /EJ PN      N1000R$  000000000008400000000000840000000000084000000000008400000000000840000000000000000000000000000001000000000000000300000000000000025200000000000323902013121600000010000000000000BRBBDCACNPR8597
012013100782BBDCV1      080BBDCE   /EJ PN      N1000R$  000000000009600000000001010000000000084000000000009300000000000940000000000000000000000000000010000000000000013000000000000001213800000000000314202013102100000010000000000000BRBBDCACNPR8603
012013100782BBDCV28     080BBDCE   /EJ PN      N1000R$  000000000000100000000000010000000000001000000000000100000000000010000000000000000000000001000001000000000000000200000000000000000200000000000245402013102100000010000000000000BRBBDCACNPR8591
012013100782BBDCV29     080BBDCE FM/EJ PN      N1000R$  000000000001300000000000130000000000010000000000001100000000000110000000000000000000000001800011000000000000015400000000000000170700000000000287402013102100000010000000000000BRBBDCACNPR8602
012013100782BBDCV30     080BBDCE FM/EJ PN      N1000R$  000000000003200000000000320000000000021000000000002500000000000240000000000000000000000000000026000000000000058100000000000001480500000000000297402013102100000010000000000000BRBBDCACNPR8602
012013100782BBDCV31     080BBDCE FM/EJ PN      N1000R$  000000000006800000000000700000000000050000000000006100000000000540000000000000000000000010000029000000000000043600000000000002671100000000000307402013102100000010000000000000BRBBDCACNPR8602
012013100782BBDCV32     080BBDCE FM/EJ PN      N1000R$  000000000013500000000001370000000000105000000000012000000000001160000000000000000000000000000075000000000000118700000000000014331500000000000317402013102100000010000000000000BRBBDCACNPR8602
012013100782BBDCV58     080BBDCE   /EJ PN      N1000R$  000000000000600000000000060000000000006000000000000600000000000060000000000000000000000000000001000000000000002000000000000000012000000000000279602013102100000010000000000000BRBBDCACNPR8605
012013100782BBDCW30     080BBDCE FM/EJ PN      N1000R$  000000000007000000000000700000000000057000000000006400000000000570000000000000000000000000000011000000000000021100000000000001350600000000000299602013111800000010000000000000BRBBDCACNPR8605
012013100782BBDCW31     080BBDCE FM/EJ PN      N1000R$  000000000011300000000001130000000000094000000000010200000000000950000000000000000000000000000017000000000000028200000000000002892500000000000309602013111800000010000000000000BRBBDCACNPR8605
012013100782BBDCW32     080BBDCE FM/EJ PN      N1000R$  000000000015700000000001570000000000133000000000014700000000001330000000000000000000000000000013000000000000022500000000000003328000000000000317202013111800000010000000000000BRBBDCACNPR8601
012013100782BBDCW9      080BBDCE FM/EJ PN      N1000R$  000000000004100000000000410000000000033000000000003600000000000330000000000000000000000000000010000000000000020900000000000000758100000000000289602013111800000010000000000000BRBBDCACNPR8605
012013100712BBFI11B     010FII BB PROGRCI  ER  MB   R$  000000042200000000004245000000000415350000000042236700000004238950000000415504000000042389500011000000000000000048000000000020273625000000000000009999123100000010000000000000BRBBFICTF006199
012013100712BBPO11      010FII BB PRGIICI  ER       R$  000000001110000000000111970000000011073000000001114400000000111970000000011160000000001119700223000000000000020243000000000225607523000000000000009999123100000010000000000000BRBBPOCTF003111
012013100712BBRC11      010FII BB CORP CI  ER       R$  000000000890000000000090000000000008880000000000889100000000088900000000008880000000000889000021000000000000000723000000000006428703000000000000009999123100000010000000000000BRBBRCCTF004125
012013100702BBRK3       010BR BROKERS  ON      NM   R$  000000000058800000000005940000000000585000000000058800000000005900000000000586000000000059000807000000000000139100000000000081915300000000000000009999123100000010000000000000BRBBRKACNOR4108
012013100796BBRK3F      020BR BROKERS  ON      NM   R$  000000000056700000000006500000000000567000000000063700000000006500000000000569000000000065000004000000000000000088000000000000056060000000000000009999123100000010000000000000BRBBRKACNOR4108
012013100702BBSE3       010BBSEGURIDADEON      NM   R$  000000000215000000000022010000000002142000000000216800000000021990000000002197000000000219908491000000000005017800000000010879377500000000000000009999123100000010000000000000BRBBSEACNOR5101
012013100796BBSE3F      020BBSEGURIDADEON      NM   R$  000000000216000000000022000000000002142000000000217300000000022000000000002185000000000220000419000000000000013101000000000028480425000000000000009999123100000010000000000000BRBBSEACNOR5101
012013100762BBSE3T      030BBSEGURIDADEON      NM030R$  000000000220600000000022070000000002205000000000220600000000022070000000000000000000000000000014000000000000019000000000000041919254000000000000009999123100000010000000000000BRBBSEACNOR5101
012013100762BBSE3T      030BBSEGURIDADEON      NM091R$  000000000221100000000022480000000002202000000000223300000000022480000000000000000000000000000082000000000000750000000000001675310340000000000000009999123100000010000000000000BRBBSEACNOR5101
012013100778BBSEK22     070BBSE        ON      NM000R$  000000000005000000000000500000000000050000000000005000000000000500000000000060000000000000000001000000000000022000000000000001100000000000000220002013111800000010000000000000BRBBSEACNOR5101
012013100702BBTG11      010BTG PACTUAL UNT          R$  000000000275400000000027910000000002754000000000277000000000027800000000002780000000000278100690000000000000675200000000001870875900000000000000009999123100000010000000000000BRBBTGUNT007105
012013100796BBTG11F     020BTG PACTUAL UNT          R$  000000000278000000000029990000000002716000000000277500000000029000000000002750000000000299500010000000000000000295000000000000818702000000000000009999123100000010000000000000BRBBTGUNT007105
012013100762BBTG11T     030BTG PACTUAL UNT       182R$  000000000290600000000029070000000002906000000000290600000000029070000000000000000000000000000002000000000000425900000000001237856042000000000000009999123100000010000000000000BRBBTGUNT007105
012013100712BBVJ11      010FII C JARDIMCI  ER       R$  000000000777600000000077800000000007775000000000777600000000077750000000007775000000000786000009000000000000000370000000000002877280000000000000009999123100000010000000000000BRBBVJCTF001134
012013100712BCFF11B     010FII BC FFII CI      MB   R$  000000000908100000000090900000000009025000000000905200000000090800000000009038000000000908000194000000000000005673000000000051353038000000000000009999123100000010000000000000BRBCFFCTF000142
012013100796BDLL4F      020BARDELLA    PN           R$  000000000521500000000052260000000005200000000000521600000000052000000000005101000000000520000014000000000000000089000000000000464229000000000000009999123100000010000000000000BRBDLLACNPR8149
012013100702BEEF3       010MINERVA     ON      NM   R$  000000000099700000000009970000000000977000000000098100000000009800000000000978000000000098002034000000000000756400000000000742604700000000000000009999123100000010000000000000BRBEEFACNOR6104
012013100796BEEF3F      020MINERVA     ON      NM   R$  000000000099600000000010400000000000979000000000100800000000009790000000000975000000000103500010000000000000000348000000000000350915000000000000009999123100000010000000000000BRBEEFACNOR6104
012013100702BEES3       010BANESTES    ON  EJ       R$  000000000004900000000000500000000000049000000000004900000000000490000000000049000000000005000011000000000000035900000000000001763000000000000000009999123100000010000000000000BRBEESACNOR9245
012013100702BEMA3       010BEMATECH    ON      NM   R$  000000000076300000000007640000000000755000000000075800000000007610000000000758000000000076100134000000000000063500000000000048181400000000000000009999123100000010000000000000BRBEMAACNOR0114
012013100796BEMA3F      020BEMATECH    ON      NM   R$  000000000076600000000007800000000000760000000000076500000000007620000000000756000000000076200008000000000000000189000000000000144594000000000000009999123100000010000000000000BRBEMAACNOR0114
012013100702BGIP4       010BANESE      PN           R$  000000000498000000000049800000000004980000000000498000000000049800000000004900000000000499000001000000000000000100000000000000498000000000000000009999123100000010000000000000BRBGIPACNPR8179
012013100702BHGR3       010BHG         ON      NM   R$  000000000150000000000015000000000001455000000000145900000000014700000000001470000000000147100039000000000000017800000000000025972100000000000000009999123100000010000000000000BRBHGRACNOR9101
012013100702BICB4       010BICBANCO    PN      N1   R$  000000000050000000000005450000000000500000000000053100000000005210000000000521000000000052200138000000000000151600000000000080634200000000000000009999123100000010000000000000BRBICBACNPR7131
012013100796BICB4F      020BICBANCO    PN      N1   R$  000000000050000000000005330000000000490000000000051500000000004900000000000456000000000052100011000000000000000323000000000000166456000000000000009999123100000010000000000000BRBICBACNPR7131
012013100796BIOM3F      020BIOMM       ON           R$  000000000094500000000009450000000000945000000000094500000000009450000000000925000000000094500001000000000000000002000000000000001890000000000000009999123100000010000000000000BRBIOMACNOR2101
012013100702BISA3       010BROOKFIELD  ON      NM   R$  000000000015700000000001590000000000155000000000015600000000001550000000000155000000000015602800000000000006843400000000001071432800000000000000009999123100000010000000000000BRBISAACNOR8109
012013100796BISA3F      020BROOKFIELD  ON      NM   R$  000000000015800000000001700000000000155000000000015700000000001700000000000155000000000017000017000000000000000437000000000000068783000000000000009999123100000010000000000000BRBISAACNOR8109
012013100762BISA3T      030BROOKFIELD  ON      NM030R$  000000000015900000000001600000000000156000000000015700000000001570000000000000000000000000000006000000000000013000000000000002053573000000000000009999123100000010000000000000BRBISAACNOR8109
012013100762BISA3T      030BROOKFIELD  ON      NM091R$  000000000016000000000001610000000000160000000000016000000000001610000000000000000000000000000002000000000000032000000000000005138045000000000000009999123100000010000000000000BRBISAACNOR8109
012013100712BJRC11      010FII JS RECIMCI  ER       R$  000000009000000000000900000000000090000000000009000000000000900000000000084100000000009200000003000000000000000530000000000047700000000000000000009999123100000010000000000000BRBJRCCTF007111
012013100702BMIN3       010MERC INVEST ON           R$  000000000009900000000000990000000000099000000000009900000000000990000000000050000000000009900001000000000000001000000000000000099000000000000000009999123100000010000000000000BRBMINACNOR4159
012013100702BMIN4       010MERC INVEST PN           R$  000000000002600000000000270000000000026000000000002600000000000270000000000026000000000002700007000000000000031000000000000000827000000000000000009999123100000010000000000000BRBMINACNPR1160
012013100712BMLC11B     010FII BMBRC LCCI      MB   R$  000000001160000000000116000000000011600000000001160000000000116000000000011420000000001160000001000000000000000003000000000000034800000000000000009999123100000010000000000000BRBMLCCTF004119
012013100702BMTO4       010BRASMOTOR   PN           R$  000000000008600000000000880000000000086000000000008600000000000870000000000086000000000008700012000000000000113000000000000009821000000000000000009999123100000010000000000000BRBMTOACNPR6065
012013100796BMTO4F      020BRASMOTOR   PN           R$  000000000008900000000000890000000000089000000000008900000000000890000000000086000000000008900001000000000000000005000000000000000445000000000000009999123100000010000000000000BRBMTOACNPR6065
012013100712BNFS11      010FII BANRISULCI  ER       R$  000000001000000000000100000000000010000000000001000000000000100000000000010000000000001033900001000000000000000150000000000001500000000000000000009999123100000010000000000000BRBNFSCTF000113
012013100714BOVA11      010ISHARES BOVACI           R$  000000000509600000000051630000000005096000000000512600000000051100000000005110000000000511901935000000000000718330000000003682352060000000000000009999123100000010000000000000BRBOVACTF003101
012013100796BOVA11F     020ISHARES BOVACI           R$  000000000515000000000052370000000005114000000000515400000000051140000000005105000000000515600013000000000000000037000000000000190711000000000000009999123100000010000000000000BRBOVACTF003101
012013100712BPFF11      010FII ABSOLUTOCI  ER       R$  000000000829000000000082900000000008213000000000824900000000082130000000008213000000000828000025000000000000001066000000000008794020000000000000009999123100000010000000000000BRBPFFCTF002106
012013100702BPHA3       010BR PHARMA   ON      NM   R$  000000000079900000000008180000000000792000000000080800000000008180000000000816000000000081800796000000000000350100000000000283109200000000000000009999123100000010000000000000BRBPHAACNOR6102
012013100796BPHA3F      020BR PHARMA   ON      NM   R$  000000000079700000000008060000000000788000000000079600000000008060000000000806000000000084400005000000000000000152000000000000121128000000000000009999123100000010000000000000BRBPHAACNOR6102
012013100762BPHA3T      030BR PHARMA   ON      NM030R$  000000000081600000000008170000000000816000000000081600000000008170000000000000000000000000000002000000000000001000000000000000816156000000000000009999123100000010000000000000BRBPHAACNOR6102
012013100702BPNM4       010PANAMERICANOPN      N1   R$  000000000051500000000005210000000000515000000000051700000000005200000000000517000000000052000097000000000000827500000000000427957900000000000000009999123100000010000000000000BRBPNMACNPR6111
012013100796BPNM4F      020PANAMERICANOPN      N1   R$  000000000050100000000005180000000000501000000000050300000000005180000000000510000000000051800002000000000000000100000000000000050338000000000000009999123100000010000000000000BRBPNMACNPR6111
012013100702BRAP3       010BRADESPAR   ON      N1   R$  000000000200500000000020150000000001975000000000199100000000020120000000001970000000000201200040000000000000010100000000000020113500000000000000009999123100000010000000000000BRBRAPACNOR5124
012013100762BRAP3T      030BRADESPAR   ON      N1060R$  000000000204900000000020500000000002049000000000204900000000020500000000000000000000000000000002000000000000001700000000000003483391000000000000009999123100000010000000000000BRBRAPACNOR5124
012013100762BRAP3T      030BRADESPAR   ON      N1091R$  000000000205500000000020560000000002055000000000205500000000020560000000000000000000000000000002000000000000000700000000000001438550000000000000009999123100000010000000000000BRBRAPACNOR5124
012013100702BRAP4       010BRADESPAR   PN      N1   R$  000000000245300000000024540000000002400000000000241700000000024000000000002400000000000240306354000000000001400600000000003386586100000000000000009999123100000010000000000000BRBRAPACNPR2124
012013100796BRAP4F      020BRADESPAR   PN      N1   R$  000000000243500000000024500000000002405000000000242600000000024500000000002402000000000245000072000000000000002270000000000005509276000000000000009999123100000010000000000000BRBRAPACNPR2124
012013100714BRAX11      010ISHARES BRAXCI           R$  000000000423000000000042300000000004230000000000423000000000042300000000003000000000000000000001000000000000000020000000000000084600000000000000009999123100000010000000000000BRBRAXCTF002100
012013100712BRCR11      010FII BC FUND CI           R$  000000001370000000000138300000000013620000000001371100000000136200000000013620000000001363000763000000000000043613000000000598020682000000000000009999123100000010000000000000BRBRCRCTF000133
012013100702BRFS3       010BRF SA      ON      NM   R$  000000000544900000000054920000000005379000000000545800000000054920000000005470000000000549205859000000000001692400000000009237792800000000000000009999123100000010000000000000BRBRFSACNOR8110
012013100796BRFS3F      020BRF SA      ON      NM   R$  000000000543100000000055500000000005375000000000544700000000054700000000005462000000000550000100000000000000003308000000000018019975000000000000009999123100000010000000000000BRBRFSACNOR8110
012013100762BRFS3T      030BRF SA      ON      NM016R$  000000000548500000000054860000000005484000000000548500000000054850000000000000000000000000000004000000000000300000000000001645500605000000000000009999123100000010000000000000BRBRFSACNOR8110
012013100762BRFS3T      030BRF SA      ON      NM030R$  000000000547800000000055120000000005478000000000550000000000055120000000000000000000000000000006000000000000001400000000000007700027000000000000009999123100000010000000000000BRBRFSACNOR8110
012013100782BRFSM50     080BRFSE       ON      NM000R$  000000000009300000000000930000000000093000000000009300000000000930000000000000000000000000000001000000000000100000000000000009300000000000000500002014012000000010000000000000BRBRFSACNOR8110
012013100782BRFSV52     080BRFSE       ON      NM000R$  000000000002200000000000220000000000021000000000002100000000000210000000000000000000000000000002000000000000150000000000000003255000000000000520002013102100000010000000000000BRBRFSACNOR8110
012013100702BRGE3       010ALFA CONSORCON           R$  000000000036800000000003720000000000368000000000036800000000003720000000000371000000000045000003000000000000000500000000000000184400000000000000009999123100000010000000000000BRBRGEACNOR6197
012013100796BRGE3F      020ALFA CONSORCON           R$  000000000036900000000003690000000000369000000000036900000000003690000000000330000000000000000001000000000000000092000000000000033948000000000000009999123100000010000000000000BRBRGEACNOR6197
012013100702BRIN3       010BR INSURANCEON      NM   R$  000000000197800000000019870000000001962000000000197400000000019800000000001973000000000199000319000000000000060700000000000119880400000000000000009999123100000010000000000000BRBRINACNOR3106
012013100796BRIN3F      020BR INSURANCEON      NM   R$  000000000190000000000019770000000001806000000000191300000000019700000000001908000000000198000007000000000000000198000000000000378775000000000000009999123100000010000000000000BRBRINACNOR3106
012013100702BRIV4       010ALFA INVEST PN           R$  000000000057000000000005700000000000565000000000056700000000005700000000000555000000000056900003000000000000000500000000000000283500000000000000009999123100000010000000000000BRBRIVACNPR3197
012013100796BRIV4F      020ALFA INVEST PN           R$  000000000057000000000006040000000000570000000000059200000000006040000000000542000000000060400004000000000000000037000000000000021906000000000000009999123100000010000000000000BRBRIVACNPR3197
012013100702BRKM3       010BRASKEM     ON      N1   R$  000000000123000000000012710000000001230000000000125000000000012710000000001230000000000127100008000000000000002400000000000003002300000000000000009999123100000010000000000000BRBRKMACNOR1110
012013100702BRKM5       010BRASKEM     PNA     N1   R$  000000000179300000000018120000000001781000000000179700000000018120000000001801000000000181204895000000000001237900000000002224971700000000000000009999123100000010000000000000BRBRKMACNPA4110
012013100796BRKM5F      020BRASKEM     PNA     N1   R$  000000000179900000000018090000000001782000000000179700000000018090000000001782000000000180000019000000000000000611000000000001100448000000000000009999123100000010000000000000BRBRKMACNPA4110
012013100702BRML3       010BR MALLS PARON      NM   R$  000000000199500000000019970000000001941000000000197900000000019900000000001989000000000199007098000000000003002500000000005944019600000000000000009999123100000010000000000000BRBRMLACNOR9105
012013100796BRML3F      020BR MALLS PARON      NM   R$  000000000199100000000020990000000001947000000000197700000000020990000000001960000000000209900060000000000000001878000000000003713434000000000000009999123100000010000000000000BRBRMLACNOR9105
012013100762BRML3T      030BR MALLS PARON      NM016R$  000000000199300000000019940000000001993000000000199300000000019940000000000000000000000000000002000000000000002400000000000004784009000000000000009999123100000010000000000000BRBRMLACNOR9105
012013100762BRML3T      030BR MALLS PARON      NM030R$  000000000199000000000019910000000001990000000000199000000000019910000000000000000000000000000002000000000000000500000000000000995410000000000000009999123100000010000000000000BRBRMLACNOR9105
012013100778BRMLJ50     070BRML        ON      NM000R$  000000000002000000000000200000000000020000000000002000000000000200000000000000000000000004800002000000000000003900000000000000078000000000000205002013102100000010000000000000BRBRMLACNOR9105
012013100702BRPR3       010BR PROPERT  ON      NM   R$  000000000194400000000019530000000001896000000000191100000000019160000000001911000000000191606185000000000001144500000000002188201000000000000000009999123100000010000000000000BRBRPRACNOR9112
012013100796BRPR3F      020BR PROPERT  ON      NM   R$  000000000191500000000019840000000001895000000000191000000000018950000000001895000000000198500050000000000000001528000000000002918246000000000000009999123100000010000000000000BRBRPRACNOR9112
012013100778BRPRJ49     070BRPR        ON      NM000R$  000000000001500000000000150000000000015000000000001500000000000150000000000000000000000008900001000000000000002400000000000000036000000000000195002013102100000010000000000000BRBRPRACNOR9112
012013100702BRSR6       010BANRISUL    PNB     N1   R$  000000000152800000000015470000000001510000000000152400000000015390000000001530000000000153902136000000000000658700000000001003969200000000000000009999123100000010000000000000BRBRSRACNPB4134
012013100796BRSR6F      020BANRISUL    PNB     N1   R$  000000000152000000000015620000000001520000000000154400000000015380000000001520000000000155900011000000000000000411000000000000633806000000000000009999123100000010000000000000BRBRSRACNPB4134
012013100702BSEV3       010BIOSEV      ON      NM   R$  000000000090000000000009000000000000900000000000090000000000009000000000000817000000000091000001000000000000000100000000000000090000000000000000009999123100000010000000000000BRBSEVACNOR3100
012013100796BSLI4F      020BRB BANCO   PN           R$  000000000280000000000028000000000002800000000000280000000000028000000000002500000000000280000003000000000000000070000000000000196000000000000000009999123100000010000000000000BRBSLIACNPR2147
012013100702BTOW3       010B2W DIGITAL ON      NM   R$  000000000145100000000014670000000001418000000000143700000000014220000000001422000000000142801321000000000000563600000000000810380000000000000000009999123100000010000000000000BRBTOWACNOR8105
012013100796BTOW3F      020B2W DIGITAL ON      NM   R$  000000000144900000000014640000000001422000000000144600000000014450000000001422000000000146000021000000000000000661000000000000955364000000000000009999123100000010000000000000BRBTOWACNOR8105
012013100702BTTL3       010BATTISTELLA ON           R$  000000000009700000000000970000000000097000000000009700000000000970000000000078000000000009700001000000000000000200000000000000019400000000000000009999123100000010000000000000BRBTTLACNOR0105
012013100702BTTL4       010BATTISTELLA PN           R$  000000000009600000000000960000000000096000000000009600000000000960000000000090000000000009600001000000000000000100000000000000009600000000000000009999123100000010000000000000BRBTTLACNPR7105
012013100702BVMF3       010BMFBOVESPA  ON      NM   R$  000000000126000000000012730000000001253000000000126200000000012650000000001260000000000126513214000000000003963800000000005002617800000000000000009999123100000010000000000000BRBVMFACNOR3126
012013100796BVMF3F      020BMFBOVESPA  ON      NM   R$  000000000126900000000012700000000001254000000000126100000000012670000000001255000000000126700097000000000000003184000000000004016768000000000000009999123100000010000000000000BRBVMFACNOR3126
012013100762BVMF3T      030BMFBOVESPA  ON      NM030R$  000000000127000000000012710000000001270000000000127000000000012710000000000000000000000000000002000000000000000600000000000000762275000000000000009999123100000010000000000000BRBVMFACNOR3126
012013100778BVMFA13     070BVMF        ON      NM000R$  000000000007000000000000700000000000069000000000006900000000000690000000000066000000000000000002000000000000100000000000000006998000000000000130002014012000000010000000000000BRBVMFACNOR3126
012013100778BVMFJ12     070BVMF  FM    ON      NM000R$  000000000008800000000000970000000000082000000000008800000000000880000000000080000000000009300193000000000000102100000000000009058900000000000118502013102100000010000000000000BRBVMFACNOR3125
012013100778BVMFJ13     070BVMF  FM    ON      NM000R$  000000000001900000000000250000000000019000000000002100000000000210000000000019000000000002200078000000000000136400000000000002904800000000000128502013102100000010000000000000BRBVMFACNOR3125
012013100778BVMFJ14     070BVMF  FM    ON      NM000R$  000000000000300000000000040000000000002000000000000300000000000030000000000003000000000000400046000000000000191600000000000000576200000000000138502013102100000010000000000000BRBVMFACNOR3125
012013100778BVMFJ42     070BVMF  FM    ON      NM000R$  000000000004700000000000560000000000047000000000005200000000000500000000000000000000000123500006000000000000012300000000000000645400000000000123502013102100000010000000000000BRBVMFACNOR3125
012013100778BVMFJ43     070BVMF  FM    ON      NM000R$  000000000000700000000000080000000000007000000000000700000000000080000000000006000000000000800007000000000000010600000000000000076000000000000133502013102100000010000000000000BRBVMFACNOR3125
012013100778BVMFJ44     070BVMF        ON      NM000R$  000000000000100000000000010000000000001000000000000100000000000010000000000001000000000000200002000000000000017500000000000000017500000000000145002013102100000010000000000000BRBVMFACNOR3126
012013100778BVMFK12     070BVMF  FM    ON      NM000R$  000000000010900000000001090000000000107000000000010700000000001080000000000101000000000012500003000000000000007100000000000000763400000000000118502013111800000010000000000000BRBVMFACNOR3125
012013100778BVMFK13     070BVMF  FM    ON      NM000R$  000000000004600000000000460000000000042000000000004200000000000420000000000041000000000005500013000000000000025500000000000001093200000000000128502013111800000010000000000000BRBVMFACNOR3125
012013100778BVMFK14     070BVMF  FM    ON      NM000R$  000000000001200000000000120000000000011000000000001100000000000110000000000010000000000001400133000000000000116000000000000001312000000000000138502013111800000010000000000000BRBVMFACNOR3125
012013100778BVMFK42     070BVMF  FM    ON      NM000R$  000000000006400000000000640000000000063000000000006300000000000630000000000000000000000000000005000000000000010800000000000000680500000000000125002013111800000010000000000000BRBVMFACNOR3126
012013100778BVMFK43     070BVMF  FM    ON      NM000R$  000000000001900000000000190000000000018000000000001800000000000190000000000006000000000000000004000000000000011000000000000000208900000000000135002013111800000010000000000000BRBVMFACNOR3126
012013100778BVMFL43     070BVMF        ON      NM000R$  000000000004300000000000430000000000043000000000004300000000000430000000000000000000000000000001000000000000001000000000000000043000000000000131902013121600000010000000000000BRBVMFACNOR3126
012013100782BVMFV12     080BVMFE FM    ON      NM000R$  000000000000900000000000090000000000009000000000000900000000000090000000000008000000000001100009000000000000016100000000000000144900000000000118502013102100000010000000000000BRBVMFACNOR3125
012013100782BVMFV13     080BVMFE FM    ON      NM000R$  000000000003700000000000460000000000037000000000004400000000000460000000000001000000000004600005000000000000009400000000000000415300000000000128502013102100000010000000000000BRBVMFACNOR3125
012013100782BVMFV42     080BVMFE FM    ON      NM000R$  000000000002200000000000280000000000022000000000002200000000000280000000000013000000000002800004000000000000004900000000000000108600000000000123502013102100000010000000000000BRBVMFACNOR3125
012013100782BVMFW42     080BVMFE FM    ON      NM000R$  000000000004000000000000440000000000040000000000004200000000000420000000000000000000000005000004000000000000002200000000000000092400000000000125002013111800000010000000000000BRBVMFACNOR3126
012013100796CALI4F      020CONST A LINDPN           R$  000000001500200000000150020000000015002000000001500200000000150020000000015001000000002500000001000000000000000002000000000000030004000000000000009999123100000010000000000000BRCALIACNPR8131
012013100702CARD3       010CSU CARDSYSTON      NM   R$  000000000031300000000003140000000000306000000000030600000000003140000000000308000000000031500005000000000000090700000000000027759400000000000000009999123100000010000000000000BRCARDACNOR9105
012013100708CCHI3       010CHIARELLI   ON           R$  000000000002100000000000210000000000020000000000002000000000000200000000000019000000000002000008000000000000110000000000000002240000000000000000009999123100000010000000000000BRCCHIACNOR5123
012013100796CCHI3F      020CHIARELLI   ON           R$  000000000002000000000000200000000000020000000000002000000000000200000000000019000000000002000001000000000000001000000000000000020000000000000000009999123100000010000000000000BRCCHIACNOR5123
012013100702CCRO3       010CCR SA      ON  ED  NM   R$  000000000178800000000018040000000001762000000000179200000000017850000000001784000000000178505315000000000003967700000000007113369700000000000000009999123100000010000000000000BRCCROACNOR2123
012013100796CCRO3F      020CCR SA      ON  ED  NM   R$  000000000179000000000018020000000001762000000000178200000000017650000000001765000000000179700051000000000000001265000000000002255208000000000000009999123100000010000000000000BRCCROACNOR2123
012013100762CCRO3T      030CCR SA      ON  ED  NM060R$  000000000181000000000018110000000001810000000000181000000000018110000000000000000000000000000002000000000000003000000000000005431041000000000000009999123100000010000000000000BRCCROACNOR2123
012013100778CCROK20     070CCRO    /ED ON      NM000R$  000000000003600000000000360000000000036000000000003600000000000360000000000000000000000000000002000000000000013000000000000000468000000000000193202013111800000010000000000000BRCCROACNOR2122
012013100778CCROL78     070CCROE       ON      NM000R$  000000000003000000000000300000000000030000000000003000000000000300000000000000000000000000000001000000000000004300000000000000129000000000000187502013121600000010000000000000BRCCROACNOR2123
012013100702CCXC3       010CCX CARVAO  ON      NM   R$  000000000016100000000001630000000000124000000000014100000000001290000000000128000000000012903429000000000022011200000000003116287200000000000000009999123100000010000000000000BRCCXCACNOR5100
012013100796CCXC3F      020CCX CARVAO  ON      NM   R$  000000000016000000000001600000000000131000000000014100000000001350000000000132000000000013500043000000000000001067000000000000151253000000000000009999123100000010000000000000BRCCXCACNOR5100
012013100702CEBR3       010CEB         ON           R$  000000000140000000000014000000000001307000000000134300000000013070000000001307000000000138000019000000000000004600000000000006180600000000000000009999123100000010000000000000BRCEBRACNOR5114
012013100702CEBR5       010CEB         PNA          R$  000000000180000000000018000000000001800000000000180000000000018000000000001800000000000270000001000000000000000300000000000000540000000000000000009999123100000010000000000000BRCEBRACNPA8113
012013100708CELP3       010CELPA       ON           R$  000000000008400000000000840000000000083000000000008300000000000830000000000072000000000008400006000000000000002900000000000000243500000000000000009999123100000010000000000000BRCELPACNOR8112
012013100712CEOC11B     010FII CEO CCP CI      MB   R$  000000000885000000000089000000000008800000000000883100000000088340000000008802000000000883400029000000000000002619000000000023129156000000000000009999123100000010000000000000BRCEOCCTF003110
012013100702CESP3       010CESP        ON      N1   R$  000000000198000000000020390000000001980000000000202100000000020390000000001950000000000203500004000000000000000800000000000001617500000000000000009999123100000010000000000000BRCESPACNOR3160
012013100702CESP5       010CESP        PNA     N1   R$  000000000218600000000021860000000002186000000000218600000000021860000000002110000000000233800001000000000000000100000000000000218600000000000000009999123100000010000000000000BRCESPACNPA6108
012013100702CESP6       010CESP        PNB     N1   R$  000000000220600000000022200000000002153000000000217600000000021770000000002177000000000218103653000000000001541500000000003354466800000000000000009999123100000010000000000000BRCESPACNPB4119
012013100796CESP6F      020CESP        PNB     N1   R$  000000000220400000000022500000000002164000000000218300000000022500000000002182000000000220000014000000000000000261000000000000569779000000000000009999123100000010000000000000BRCESPACNPB4119
012013100702CGAS5       010COMGAS      PNA          R$  000000000584400000000058800000000005821000000000583900000000058240000000005824000000000585000030000000000000004900000000000028614600000000000000009999123100000010000000000000BRCGASACNPA3129
012013100796CGAS5F      020COMGAS      PNA          R$  000000000584000000000058450000000005840000000000584200000000058450000000005751000000000589800002000000000000000074000000000000432360000000000000009999123100000010000000000000BRCGASACNPA3129
012013100702CGRA3       010GRAZZIOTIN  ON           R$  000000000167000000000016700000000001670000000000167000000000016700000000001644000000000167000001000000000000000200000000000000334000000000000000009999123100000010000000000000BRCGRAACNOR2061
012013100702CGRA4       010GRAZZIOTIN  PN           R$  000000000179000000000017940000000001767000000000178800000000017870000000001766000000000178700011000000000000002700000000000004827900000000000000009999123100000010000000000000BRCGRAACNPR9061
012013100796CGRA4F      020GRAZZIOTIN  PN           R$  000000000178000000000017800000000001780000000000178000000000017800000000001760000000000180800008000000000000000061000000000000108580000000000000009999123100000010000000000000BRCGRAACNPR9061
012013100702CIEL3       010CIELO       ON      NM   R$  000000000627500000000064180000000006243000000000635300000000063800000000006377000000000638006722000000000002052300000000013038819000000000000000009999123100000010000000000000BRCIELACNOR3112
012013100796CIEL3F      020CIELO       ON      NM   R$  000000000627400000000064150000000006260000000000634800000000064150000000006298000000000641500223000000000000004829000000000030658721000000000000009999123100000010000000000000BRCIELACNOR3112
012013100778CIELA62     070CIEL        ON      NM000R$  000000000050400000000005050000000000504000000000050400000000005050000000000000000000000000000003000000000000085000000000000042895000000000000620002014012000000010000000000000BRCIELACNOR3112
012013100702CLSC4       010CELESC      PN      N2   R$  000000000178400000000018780000000001782000000000181500000000018300000000001829000000000183000042000000000000010500000000000019063200000000000000009999123100000010000000000000BRCLSCACNPR3107
012013100796CLSC4F      020CELESC      PN      N2   R$  000000000180000000000018300000000001800000000000180800000000018290000000001702000000000182900005000000000000000033000000000000059668000000000000009999123100000010000000000000BRCLSCACNPR3107
012013100762CLSC4T      030CELESC      PN      N2030R$  000000000184800000000018490000000001848000000000184800000000018490000000000000000000000000000002000000000000001100000000000002033437000000000000009999123100000010000000000000BRCLSCACNPR3107
012013100702CMIG3       010CEMIG       ON      N1   R$  000000000193200000000019380000000001920000000000192900000000019300000000001930000000000193700775000000000000298900000000000576802500000000000000009999123100000010000000000000BRCMIGACNOR6208
012013100796CMIG3F      020CEMIG       ON      N1   R$  000000000194000000000019500000000001925000000000193100000000019310000000001924000000000197800033000000000000000765000000000001477576000000000000009999123100000010000000000000BRCMIGACNOR6208
012013100762CMIG3T      030CEMIG       ON      N1030R$  000000000195000000000019510000000001950000000000195000000000019510000000000000000000000000000002000000000000001000000000000001950326000000000000009999123100000010000000000000BRCMIGACNOR6208
012013100702CMIG4       010CEMIG       PN      N1   R$  000000000197800000000019890000000001950000000000196700000000019500000000001950000000000195107448000000000002092700000000004116466200000000000000009999123100000010000000000000BRCMIGACNPR3208
012013100796CMIG4F      020CEMIG       PN      N1   R$  000000000198600000000019900000000001951000000000197400000000019700000000001951000000000197000221000000000000005482000000000010816921000000000000009999123100000010000000000000BRCMIGACNPR3208
012013100762CMIG4T      030CEMIG       PN      N1030R$  000000000199900000000020000000000001999000000000199900000000020000000000000000000000000000000002000000000000001000000000000001999689000000000000009999123100000010000000000000BRCMIGACNPR3208
012013100762CMIG4T      030CEMIG       PN      N1060R$  000000000198100000000019820000000001981000000000198100000000019820000000000000000000000000000002000000000000003000000000000005943370000000000000009999123100000010000000000000BRCMIGACNPR3208
012013100712CNES11B     010FII CENESP  CI      MB   R$  000000001240100000000127490000000012400000000001241500000000124000000000012400000000001274900010000000000000000399000000000004953678000000000000009999123100000010000000000000BRCNESCTF001126
012013100702COCA34      010COCA COLA   DRN          R$  000000000826600000000082660000000008266000000000826600000000082660000000008112000000000843600001000000000000008000000000000066128000000000000000009999123100000010000000000000BRCOCABDR002109
012013100702COCE3       010COELCE      ON           R$  000000000400300000000040390000000004001000000000402000000000040380000000003990000000000403900021000000000000004500000000000018093700000000000000009999123100000010000000000000BRCOCEACNOR0132
012013100796COCE3F      020COELCE      ON           R$  000000000400200000000040020000000004002000000000400200000000040020000000004002000000000420000001000000000000000001000000000000004002000000000000009999123100000010000000000000BRCOCEACNOR0132
012013100702COCE5       010COELCE      PNA          R$  000000000383600000000038790000000003782000000000384500000000038510000000003850000000000387000207000000000000227800000000000875895700000000000000009999123100000010000000000000BRCOCEACNPA3133
012013100796COCE5F      020COELCE      PNA          R$  000000000382000000000038790000000003820000000000385400000000038420000000003820000000000388000011000000000000000274000000000001056090000000000000009999123100000010000000000000BRCOCEACNPA3133
012013100762COCE5T      030COELCE      PNA       060R$  000000000391700000000039180000000003916000000000391700000000039170000000000000000000000000000008000000000000100000000000000391763145000000000000009999123100000010000000000000BRCOCEACNPA3133
012013100762COCE5T      030COELCE      PNA       120R$  000000000399800000000039990000000003998000000000399800000000039990000000000000000000000000000002000000000000000002000000000000007997000000000000009999123100000010000000000000BRCOCEACNPA3133
012013100762COCE5T      030COELCE      PNA       182R$  000000000404400000000040450000000004044000000000404400000000040450000000000000000000000000000002000000000000000500000000000002022140000000000000009999123100000010000000000000BRCOCEACNPA3133
012013100702CPFE3       010CPFL ENERGIAON      NM   R$  000000000193400000000019370000000001897000000000191300000000019140000000001912000000000191403180000000000000799300000000001529794200000000000000009999123100000010000000000000BRCPFEACNOR0122
012013100796CPFE3F      020CPFL ENERGIAON      NM   R$  000000000193000000000019300000000001900000000000190900000000019240000000001910000000000192500052000000000000000909000000000001735906000000000000009999123100000010000000000000BRCPFEACNOR0122
012013100762CPFE3T      030CPFL ENERGIAON      NM060R$  000000000192700000000019280000000001927000000000192700000000019280000000000000000000000000000002000000000000001000000000000001927170000000000000009999123100000010000000000000BRCPFEACNOR0122
012013100702CPLE3       010COPEL       ON      N1   R$  000000000227500000000022890000000002258000000000228000000000022890000000002256000000000228900028000000000000007700000000000017562200000000000000009999123100000010000000000000BRCPLEACNOR8128
012013100702CPLE6       010COPEL       PNB     N1   R$  000000000308200000000031020000000003064000000000307800000000030750000000003075000000000309001321000000000000371100000000001142576500000000000000009999123100000010000000000000BRCPLEACNPB9125
012013100796CPLE6F      020COPEL       PNB     N1   R$  000000000307400000000031000000000003069000000000308200000000031000000000003100000000000318600018000000000000000215000000000000662773000000000000009999123100000010000000000000BRCPLEACNPB9125
012013100702CPRE3       010CPFL RENOVAVON      NM   R$  000000000136900000000013750000000001350000000000135600000000013680000000001368000000000137000019000000000000006100000000000008273100000000000000009999123100000010000000000000BRCPREACNOR5100
012013100796CPRE3F      020CPFL RENOVAVON      NM   R$  000000000137900000000013790000000001340000000000137300000000013790000000001220000000000137900006000000000000000071000000000000097519000000000000009999123100000010000000000000BRCPREACNOR5100
012013100702CRDE3       010CR2         ON      NM   R$  000000000039900000000003990000000000393000000000039400000000003930000000000388000000000039900008000000000000009500000000000003747200000000000000009999123100000010000000000000BRCRDEACNOR1108
012013100796CRDE3F      020CR2         ON      NM   R$  000000000040000000000004000000000000400000000000040000000000004000000000000400000000000042400001000000000000000024000000000000009600000000000000009999123100000010000000000000BRCRDEACNOR1108
012013100702CREM3       010CREMER      ON      NM   R$  000000000146200000000014770000000001426000000000143100000000014590000000001434000000000145900050000000000000203400000000000291255400000000000000009999123100000010000000000000BRCREMACNOR2167
012013100796CREM3F      020CREMER      ON      NM   R$  000000000145400000000014540000000001454000000000145400000000014540000000001450000000000146600002000000000000000032000000000000046528000000000000009999123100000010000000000000BRCREMACNOR2167
012013100702CRIV4       010ALFA FINANC PN           R$  000000000044500000000004450000000000445000000000044500000000004450000000000431000000000044400003000000000000000400000000000000178000000000000000009999123100000010000000000000BRCRIVACNPR1190
012013100702CRUZ3       010SOUZA CRUZ  ON           R$  000000000252300000000025380000000002490000000000251200000000025020000000002502000000000250904631000000000001023900000000002572860300000000000000009999123100000010000000000000BRCRUZACNOR0248
012013100796CRUZ3F      020SOUZA CRUZ  ON           R$  000000000253000000000025710000000002493000000000251800000000025220000000002501000000000252200064000000000000001732000000000004361630000000000000009999123100000010000000000000BRCRUZACNOR0248
012013100762CRUZ3T      030SOUZA CRUZ  ON        030R$  000000000253100000000025320000000002531000000000253100000000025320000000000000000000000000000004000000000000003200000000000008100296000000000000009999123100000010000000000000BRCRUZACNOR0248
012013100762CRUZ3T      030SOUZA CRUZ  ON        091R$  000000000255900000000025600000000002559000000000255900000000025600000000000000000000000000000002000000000000000200000000000000511840000000000000009999123100000010000000000000BRCRUZACNOR0248
012013100702CSAB4       010SEG AL BAHIAPN           R$  000000000300000000000030000000000003000000000000300000000000030000000000000000000000000000000002000000000000000300000000000000900000000000000000009999123100000010000000000000BRCSABACNPR8051
012013100702CSAN3       010COSAN       ON      NM   R$  000000000432900000000044500000000004328000000000440700000000043600000000004360000000000436305516000000000001443400000000006361160400000000000000009999123100000010000000000000BRCSANACNOR6108
012013100796CSAN3F      020COSAN       ON      NM   R$  000000000433500000000044500000000004258000000000440700000000044480000000004400000000000444800196000000000000006466000000000028495782000000000000009999123100000010000000000000BRCSANACNOR6108
012013100762CSAN3T      030COSAN       ON      NM030R$  000000000441500000000044160000000004415000000000441500000000044160000000000000000000000000000002000000000000000500000000000002207936000000000000009999123100000010000000000000BRCSANACNOR6108
012013100702CSMG3       010COPASA      ON      NM   R$  000000000345200000000035090000000003436000000000346400000000035000000000003450000000000350000873000000000000708100000000002452921200000000000000009999123100000010000000000000BRCSMGACNOR5128
012013100796CSMG3F      020COPASA      ON      NM   R$  000000000345700000000035280000000003450000000000349800000000034500000000003430000000000345000016000000000000000141000000000000491154000000000000009999123100000010000000000000BRCSMGACNOR5128
012013100702CSNA3       010SID NACIONALON           R$  000000000097100000000009990000000000971000000000098800000000009860000000000986000000000098714365000000000006687700000000006613168400000000000000009999123100000010000000000000BRCSNAACNOR6243
012013100796CSNA3F      020SID NACIONALON           R$  000000000097600000000010000000000000975000000000098900000000010000000000000975000000000100000086000000000000002545000000000002518417000000000000009999123100000010000000000000BRCSNAACNOR6243
012013100762CSNA3T      030SID NACIONALON        060R$  000000000099000000000009930000000000990000000000099100000000009930000000000000000000000000000004000000000000005000000000000004958739000000000000009999123100000010000000000000BRCSNAACNOR6243
012013100762CSNA3T      030SID NACIONALON        091R$  000000000100500000000010060000000001001000000000100500000000010020000000000000000000000000000004000000000000006000000000000006031405000000000000009999123100000010000000000000BRCSNAACNOR6243
012013100778CSNAJ10     070CSNA  FM    ON        000R$  000000000001900000000000300000000000019000000000002300000000000280000000000000000000000003600015000000000000041100000000000000970300000000000100002013102100000010000000000000BRCSNAACNOR6243
012013100778CSNAJ11     070CSNA        ON        000R$  000000000000400000000000050000000000004000000000000400000000000040000000000001000000000000400003000000000000011600000000000000051000000000000110002013102100000010000000000000BRCSNAACNOR6243
012013100778CSNAJ20     070CSNA  FM    ON        000R$  000000000001400000000000140000000000014000000000001400000000000140000000000000000000000002100001000000000000000300000000000000004200000000000102002013102100000010000000000000BRCSNAACNOR6243
012013100778CSNAJ60     070CSNA        ON        000R$  000000000000700000000000090000000000007000000000000800000000000080000000000007000000000000000012000000000000033100000000000000273800000000000106002013102100000010000000000000BRCSNAACNOR6243
012013100778CSNAJ8      070CSNA        ON        000R$  000000000019900000000002100000000000199000000000020800000000002100000000000200000000000000000010000000000000011900000000000002484000000000000078002013102100000010000000000000BRCSNAACNOR6242
012013100778CSNAJ86     070CSNA        ON        000R$  000000000014200000000001420000000000142000000000014200000000001420000000000000000000000000000001000000000000000600000000000000085200000000000084002013102100000010000000000000BRCSNAACNOR6242
012013100778CSNAJ92     070CSNA        ON        000R$  000000000008400000000000840000000000084000000000008400000000000840000000000000000000000000000001000000000000000200000000000000016800000000000092002013102100000010000000000000BRCSNAACNOR6243
012013100778CSNAJ94     070CSNA  FM    ON        000R$  000000000006800000000000680000000000068000000000006800000000000680000000000030000000000000000002000000000000002000000000000000136000000000000094002013102100000010000000000000BRCSNAACNOR6243
012013100778CSNAJ96     070CSNA  FM    ON        000R$  000000000005100000000000510000000000051000000000005100000000000510000000000000000000000000000003000000000000009500000000000000484500000000000096002013102100000010000000000000BRCSNAACNOR6243
012013100778CSNAJ98     070CSNA  FM    ON        000R$  000000000004000000000000400000000000040000000000004000000000000400000000000003000000000000000002000000000000001300000000000000052000000000000098002013102100000010000000000000BRCSNAACNOR6243
012013100778CSNAK10     070CSNA  FM    ON        000R$  000000000006600000000000660000000000061000000000006300000000000630000000000000000000000007000005000000000000010700000000000000677100000000000098002013111800000010000000000000BRCSNAACNOR6242
012013100778CSNAK20     070CSNA  FM    ON        000R$  000000000004300000000000430000000000041000000000004100000000000410000000000000000000000000000003000000000000006300000000000000260900000000000102002013111800000010000000000000BRCSNAACNOR6243
012013100778CSNAK8      070CSNA        ON        000R$  000000000020500000000002050000000000205000000000020500000000002050000000000000000000000000000001000000000000001400000000000000287000000000000078002013111800000010000000000000BRCSNAACNOR6242
012013100778CSNAK84     070CSNA        ON        000R$  000000000015200000000001520000000000152000000000015200000000001520000000000000000000000000000001000000000000000600000000000000091200000000000084002013111800000010000000000000BRCSNAACNOR6243
012013100778CSNAK9      070CSNA        ON        000R$  000000000010900000000001090000000000109000000000010900000000001090000000000109000000000000000001000000000000001000000000000000109000000000000090002013111800000010000000000000BRCSNAACNOR6243
012013100778CSNAK94     070CSNA  FM    ON        000R$  000000000007800000000000880000000000078000000000008200000000000880000000000000000000000000000003000000000000008500000000000000698000000000000094002013111800000010000000000000BRCSNAACNOR6243
012013100778CSNAK96     070CSNA  FM    ON        000R$  000000000007700000000000770000000000071000000000007400000000000710000000000000000000000000000002000000000000001700000000000000126700000000000096002013111800000010000000000000BRCSNAACNOR6243
012013100778CSNAL10     070CSNA        ON        000R$  000000000006900000000000700000000000069000000000006900000000000700000000000000000000000000000002000000000000002600000000000000181900000000000100002013121600000010000000000000BRCSNAACNOR6243
012013100778CSNAL16     070CSNA        ON        000R$  000000000000600000000000060000000000006000000000000600000000000060000000000000000000000003400001000000000000004000000000000000024000000000000154702013121600000010000000000000BRCSNAACNOR6241
012013100782CSNAV10     080CSNAE       ON        000R$  000000000004000000000000400000000000031000000000003300000000000330000000000026000000000007600022000000000000015700000000000000527800000000000100002013102100000010000000000000BRCSNAACNOR6243
012013100782CSNAV9      080CSNAE       ON        000R$  000000000000400000000000040000000000003000000000000300000000000030000000000001000000000000300005000000000000015200000000000000051100000000000088002013102100000010000000000000BRCSNAACNOR6242
012013100782CSNAV94     080CSNAE FM    ON        000R$  000000000001100000000000110000000000011000000000001100000000000110000000000000000000000000000002000000000000002000000000000000022000000000000094002013102100000010000000000000BRCSNAACNOR6243
012013100782CSNAV96     080CSNAE FM    ON        000R$  000000000001800000000000180000000000018000000000001800000000000180000000000000000000000000000007000000000000003000000000000000054000000000000096002013102100000010000000000000BRCSNAACNOR6243
012013100782CSNAV98     080CSNAE FM    ON        000R$  000000000002100000000000210000000000021000000000002100000000000210000000000000000000000000000001000000000000003000000000000000063000000000000098002013102100000010000000000000BRCSNAACNOR6243
012013100782CSNAW10     080CSNAE FM    ON        000R$  000000000005100000000000510000000000042000000000004800000000000440000000000042000000000005700013000000000000017400000000000000849900000000000098002013111800000010000000000000BRCSNAACNOR6242
012013100782CSNAW8      080CSNAE       ON        000R$  000000000000600000000000060000000000006000000000000600000000000060000000000005000000000000000004000000000000002000000000000000012000000000000078002013111800000010000000000000BRCSNAACNOR6242
012013100782CSNAW9      080CSNAE       ON        000R$  000000000002300000000000230000000000019000000000002000000000000190000000000019000000000003000011000000000000005900000000000000119300000000000090002013111800000010000000000000BRCSNAACNOR6243
012013100782CSNAW94     080CSNAE FM    ON        000R$  000000000003000000000000300000000000029000000000002900000000000290000000000000000000000000000004000000000000010900000000000000322000000000000094002013111800000010000000000000BRCSNAACNOR6243
012013100782CSNAW96     080CSNAE FM    ON        000R$  000000000004000000000000400000000000036000000000003900000000000390000000000000000000000000000004000000000000006200000000000000243800000000000096002013111800000010000000000000BRCSNAACNOR6243
012013100782CSNAX10     080CSNAE       ON        000R$  000000000006400000000000640000000000064000000000006400000000000640000000000056000000000007900001000000000000000100000000000000006400000000000100002013121600000010000000000000BRCSNAACNOR6243
012013100702CTAX11      010CONTAX      UNT     N2   R$  000000000188300000000018900000000001863000000000187500000000018900000000001871000000000189000056000000000000086600000000000162396100000000000000009999123100000010000000000000BRCTAXCDAM19100
012013100796CTAX11F     020CONTAX      UNT     N2   R$  000000000180000000000018000000000001800000000000180000000000018000000000001652000000000197500001000000000000000003000000000000005400000000000000009999123100000010000000000000BRCTAXCDAM19100
012013100702CTAX4       010CONTAX      PN      N2   R$  000000000036100000000003800000000000361000000000036900000000003690000000000362000000000036900085000000000000022500000000000008320800000000000000009999123100000010000000000000BRCTAXACNPR0114
012013100796CTAX4F      020CONTAX      PN      N2   R$  000000000037200000000003800000000000372000000000037600000000003800000000000347000000000036000002000000000000000075000000000000028268000000000000009999123100000010000000000000BRCTAXACNPR0114
012013100702CTIP3       010CETIP       ON      NM   R$  000000000233800000000023380000000002293000000000230300000000023220000000002320000000000232204768000000000003060400000000007049740600000000000000009999123100000010000000000000BRCTIPACNOR2120
012013100796CTIP3F      020CETIP       ON      NM   R$  000000000231700000000023540000000002295000000000230600000000023180000000002294000000000231800078000000000000002162000000000004986616000000000000009999123100000010000000000000BRCTIPACNOR2120
012013100778CTIPA21     070CTIP        ON      NM000R$  000000000030500000000003050000000000305000000000030500000000003050000000000000000000000000000001000000000000075000000000000022875000000000000210002014012000000010000000000000BRCTIPACNOR2120
012013100778CTIPJ53     070CTIP        ON      NM000R$  000000000002700000000000300000000000027000000000002700000000000300000000000000000000000000000003000000000000300000000000000008350000000000000234402013102100000010000000000000BRCTIPACNOR2120
012013100702CTKA4       010KARSTEN     PN           R$  000000000010000000000001120000000000100000000000010600000000001120000000000104000000000011200024000000000000013100000000000001396600000000000000009999123100000010000000000000BRCTKAACNPR7041
012013100702CTNM4       010COTEMINAS   PN           R$  000000000022600000000002350000000000226000000000022800000000002350000000000230000000000023400007000000000000004100000000000000937400000000000000009999123100000010000000000000BRCTNMACNPR6128
012013100796CTSA3F      020SANTANENSE  ON           R$  000000000052500000000005250000000000525000000000052500000000005250000000000525000000000055000001000000000000000023000000000000012075000000000000009999123100000010000000000000BRCTSAACNOR3051
012013100712CXCE11B     010FII CX CEDAECI  ER  MB   R$  000000019000000000001900000000000190000000000019000000000001900000000000190000000000019400000001000000000000000012000000000002280000000000000000009999123100000010000000000000BRCXCECTF004139
012013100702CYRE3       010CYRELA REALTON      NM   R$  000000000163400000000016730000000001625000000000165400000000016610000000001660000000000166110984000000000003616300000000005984303600000000000000009999123100000010000000000000BRCYREACNOR7125
012013100796CYRE3F      020CYRELA REALTON      NM   R$  000000000162000000000016820000000001620000000000164900000000016820000000001640000000000168200030000000000000001001000000000001651403000000000000009999123100000010000000000000BRCYREACNOR7125
012013100778CYREJ16     070CYRE  FM    ON      NM000R$  000000000006600000000000880000000000066000000000007900000000000820000000000000000000000000000010000000000000022700000000000001806100000000000160002013102100000010000000000000BRCYREACNOR7125
012013100778CYREJ17     070CYRE  FM    ON      NM000R$  000000000001500000000000220000000000015000000000001900000000000210000000000000000000000005000011000000000000024700000000000000469900000000000170002013102100000010000000000000BRCYREACNOR7125
012013100778CYREJ18     070CYRE  FM    ON      NM000R$  000000000000300000000000030000000000003000000000000300000000000030000000000000000000000000000002000000000000007000000000000000021000000000000180002013102100000010000000000000BRCYREACNOR7125
012013100778CYREJ46     070CYRE  FM    ON      NM000R$  000000000003300000000000460000000000033000000000003900000000000460000000000000000000000000000010000000000000023900000000000000942200000000000165002013102100000010000000000000BRCYREACNOR7125
012013100778CYREJ47     070CYRE  FM    ON      NM000R$  000000000000500000000000080000000000005000000000000600000000000080000000000005000000000000000002000000000000005700000000000000036600000000000175002013102100000010000000000000BRCYREACNOR7125
012013100778CYREK16     070CYRE  FM    ON      NM000R$  000000000010000000000001200000000000100000000000010800000000001190000000000000000000000000000007000000000000016000000000000001738700000000000160002013111800000010000000000000BRCYREACNOR7125
012013100778CYREK17     070CYRE  FM    ON      NM000R$  000000000004700000000000620000000000047000000000005600000000000620000000000000000000000010000008000000000000015000000000000000852000000000000170002013111800000010000000000000BRCYREACNOR7125
012013100778CYREK46     070CYRE  FM    ON      NM000R$  000000000007100000000000860000000000071000000000007700000000000860000000000000000000000000000005000000000000010700000000000000833700000000000165002013111800000010000000000000BRCYREACNOR7125
012013100782CYREV17     080CYREE FM    ON      NM000R$  000000000006600000000000660000000000054000000000005600000000000540000000000000000000000000000008000000000000019500000000000001103500000000000170002013102100000010000000000000BRCYREACNOR7125
012013100782CYREV46     080CYREE FM    ON      NM000R$  000000000004600000000000460000000000029000000000003400000000000290000000000000000000000000000008000000000000012900000000000000446900000000000165002013102100000010000000000000BRCYREACNOR7125
012013100782CYREW17     080CYREE FM    ON      NM000R$  000000000009400000000000940000000000080000000000008500000000000810000000000000000000000000000005000000000000014000000000000001202100000000000170002013111800000010000000000000BRCYREACNOR7125
012013100782CYREW45     080CYREE FM    ON      NM000R$  000000000003500000000000370000000000032000000000003400000000000340000000000000000000000000000006000000000000011000000000000000381500000000000155002013111800000010000000000000BRCYREACNOR7125
012013100782CYREW46     080CYREE FM    ON      NM000R$  000000000005900000000000590000000000059000000000005900000000000590000000000000000000000000000002000000000000002200000000000000129800000000000165002013111800000010000000000000BRCYREACNOR7125
012013100702CZLT33      010COSAN LTD   DR3          R$  000000000343800000000034800000000003428000000000345100000000034450000000003440000000000344500510000000000000331100000000001142693700000000000000009999123100000010000000000000BRCZLTBDR009105
012013100702DAGB33      010DUFRY AG    DR3          R$  000000003349900000000334990000000032808000000003300700000000330000000000032950000000003300000429000000000000013308000000000439262233000000000000009999123100000010000000000000BRDAGBBDR008100
012013100762DAGB33T     030DUFRY AG    DR3       182R$  000000003470300000000347040000000034703000000003470300000000347040000000000000000000000000000002000000000000000050000000000001735198000000000000009999123100000010000000000000BRDAGBBDR008100
012013100702DASA3       010DASA        ON      NM   R$  000000000120500000000012110000000001181000000000120000000000012000000000001200000000000120203713000000000000848100000000001018213100000000000000009999123100000010000000000000BRDASAACNOR1108
012013100796DASA3F      020DASA        ON      NM   R$  000000000120600000000012450000000001108000000000119000000000012450000000001181000000000124600026000000000000000653000000000000777538000000000000009999123100000010000000000000BRDASAACNOR1108
012013100702DAYC4       010DAYCOVAL    PN  EJ  N2   R$  000000000090000000000009200000000000887000000000089800000000009200000000000911000000000092000614000000000000334200000000000300230700000000000000009999123100000010000000000000BRDAYCACNPR2129
012013100796DAYC4F      020DAYCOVAL    PN  EJ  N2   R$  000000000087000000000009100000000000845000000000087300000000008450000000000846000000000094100007000000000000000161000000000000140664000000000000009999123100000010000000000000BRDAYCACNPR2129
012013100702DIRR3       010DIRECIONAL  ON      NM   R$  000000000116800000000011990000000001165000000000117900000000011850000000001173000000000118502022000000000000418400000000000493375100000000000000009999123100000010000000000000BRDIRRACNOR0104
012013100796DIRR3F      020DIRECIONAL  ON      NM   R$  000000000119200000000012980000000001168000000000119900000000011710000000001170000000000129600018000000000000000408000000000000489567000000000000009999123100000010000000000000BRDIRRACNOR0104
012013100714DIVO11      010IT NOW IDIV CI           R$  000000000341300000000034130000000003400000000000340400000000034050000000003404000000000345000024000000000000001920000000000006536230000000000000009999123100000010000000000000BRDIVOCTF002100
012013100796DIVO11F     020IT NOW IDIV CI           R$  000000000341300000000034130000000003342000000000337900000000033500000000003342000000000340000006000000000000000017000000000000057446000000000000009999123100000010000000000000BRDIVOCTF002100
012013100702DOHL4       010DOHLER      PN           R$  000000000048900000000005020000000000489000000000049800000000005020000000000480000000000050200003000000000000000400000000000000199500000000000000009999123100000010000000000000BRDOHLACNPR9054
012013100702DOWB34      010DOW CHEMICALDRN          R$  000000000879300000000088010000000008793000000000880000000000088010000000000000000000000000000002000000000000068000000000000598467200000000000000009999123100000010000000000000BRDOWBBDR006100
012013100702DTEX3       010DURATEX     ON      NM   R$  000000000129700000000012980000000001275000000000128300000000012820000000001282000000000128303047000000000000738400000000000947962500000000000000009999123100000010000000000000BRDTEXACNOR3115
012013100796DTEX3F      020DURATEX     ON      NM   R$  000000000128700000000013140000000001260000000000128400000000012600000000001260000000000127900030000000000000000746000000000000957884000000000000009999123100000010000000000000BRDTEXACNOR3115
012013100762DTEX3T      030DURATEX     ON      NM016R$  000000000128900000000012900000000001289000000000128900000000012900000000000000000000000000000002000000000000000300000000000000386895000000000000009999123100000010000000000000BRDTEXACNOR3115
012013100778DTEXK14     070DTEX        ON      NM000R$  000000000001700000000000170000000000017000000000001700000000000170000000000000000000000000000001000000000000017000000000000000289000000000000140002013111800000010000000000000BRDTEXACNOR3115
012013100782DTEXW13     080DTEXE       ON      NM000R$  000000000005700000000000570000000000057000000000005700000000000570000000000000000000000000000001000000000000017000000000000000969000000000000130002013111800000010000000000000BRDTEXACNOR3115
012013100782DTEXW41     080DTEXE       ON      NM000R$  000000000000800000000000080000000000008000000000000800000000000080000000000000000000000000000001000000000000017000000000000000136000000000000115002013111800000010000000000000BRDTEXACNOR3115
012013100702EBTP3       010EMBRATEL PARON *         R$  000000000075600000000007560000000000720000000000074400000000007200000000000720000000000081000003000000000000500000000000000000372000000000000000009999123100010000000000000000BREBTPACNOR3115
012013100796EBTP3F      020EMBRATEL PARON *         R$  000000000074200000000007490000000000742000000000074200000000007490000000000749000000000080000002000000000000043524000000000000032316000000000000009999123100010000000000000000BREBTPACNOR3115
012013100702EBTP4       010EMBRATEL PARPN *         R$  000000000078000000000007800000000000710000000000075000000000007200000000000720000000000078000014000000000002900000000000000002176400000000000000009999123100010000000000000000BREBTPACNPR0120
012013100796EBTP4F      020EMBRATEL PARPN *         R$  000000000078500000000007850000000000700000000000075700000000007330000000000735000000000078000015000000000000215821000000000000163457000000000000009999123100010000000000000000BREBTPACNPR0120
012013100714ECOO11      010ISHARES ECOOCI           R$  000000000549000000000055130000000005251000000000549100000000055010000000005301000000000555000029000000000000009320000000000051176950000000000000009999123100000010000000000000BRECOOCTF008100
012013100702ECOR3       010ECORODOVIAS ON      NM   R$  000000000155500000000015600000000001535000000000155600000000015600000000001556000000000156002323000000000000929000000000001445774400000000000000009999123100000010000000000000BRECORACNOR8106
012013100796ECOR3F      020ECORODOVIAS ON      NM   R$  000000000155100000000015580000000001551000000000155200000000015580000000001551000000000155800002000000000000000035000000000000054320000000000000009999123100000010000000000000BRECORACNOR8106
012013100796ECPR4F      020ENCORPAR    PN           R$  000000000499900000000049990000000004999000000000499900000000049990000000004400000000000499900003000000000000000055000000000000274945000000000000009999123100000010000000000000BRECPRACNPR2107
012013100712EDFO11B     010FII OURINVESCI  ER  MB   R$  000000002200500000000220050000000022000000000002200100000000220000000000021850000000002370000003000000000000000100000000000002200150000000000000009999123100000010000000000000BREDFOCTF004194
012013100712EDGA11B     010FII GALERIA CI      MB   R$  000000000781000000000078100000000007750000000000776100000000077600000000007761000000000780000013000000000000002825000000000021925747000000000000009999123100000010000000000000BREDGACTF001112
012013100702ELET3       010ELETROBRAS  ON      N1   R$  000000000066500000000006720000000000658000000000066800000000006720000000000670000000000067205059000000000001653100000000001104606000000000000000009999123100000010000000000000BRELETACNOR6151
012013100796ELET3F      020ELETROBRAS  ON      N1   R$  000000000066400000000006790000000000661000000000066600000000006720000000000668000000000067200036000000000000000964000000000000643150000000000000009999123100000010000000000000BRELETACNOR6151
012013100762ELET3T      030ELETROBRAS  ON      N1030R$  000000000067200000000006730000000000672000000000067200000000006730000000000000000000000000000002000000000000040000000000000026917728000000000000009999123100000010000000000000BRELETACNOR6151
012013100762ELET3T      030ELETROBRAS  ON      N1091R$  000000000067900000000006800000000000679000000000067900000000006800000000000000000000000000000002000000000000003000000000000002039958000000000000009999123100000010000000000000BRELETACNOR6151
012013100702ELET6       010ELETROBRAS  PNB     N1   R$  000000000108600000000010970000000001083000000000109200000000010950000000001095000000000109605947000000000001698100000000001854651400000000000000009999123100000010000000000000BRELETACNPB7066
012013100796ELET6F      020ELETROBRAS  PNB     N1   R$  000000000108500000000011480000000001083000000000110000000000011480000000001083000000000115000032000000000000000672000000000000739291000000000000009999123100000010000000000000BRELETACNPB7066
012013100778ELETJ10     070ELET        PNB     N1000R$  000000000009000000000000900000000000087000000000008800000000000870000000000086000000000000000003000000000000009000000000000000798000000000000100002013102100000010000000000000BRELETACNPB7066
012013100738ELETJ10E    012ELET        PNB     N1000R$  000000000100000000000010000000000001000000000000100000000000010000000000000000000000000000000001000000000000000200000000000000200000000000000100002013102100000010000000000000BRELETACNPB7066
012013100702ELPL4       010ELETROPAULO PN      N2   R$  000000000087500000000008800000000000863000000000086900000000008650000000000864000000000086503210000000000001171200000000001017909100000000000000009999123100000010000000000000BRELPLACNPR6118
012013100796ELPL4F      020ELETROPAULO PN      N2   R$  000000000087500000000008870000000000863000000000087100000000008750000000000864000000000087600044000000000000001074000000000000935602000000000000009999123100000010000000000000BRELPLACNPR6118
012013100762ELPL4T      030ELETROPAULO PN      N2030R$  000000000088500000000008860000000000879000000000088200000000008800000000000000000000000000000006000000000000004000000000000003530546000000000000009999123100000010000000000000BRELPLACNPR6118
012013100762ELPL4T      030ELETROPAULO PN      N2091R$  000000000088500000000008860000000000885000000000088500000000008860000000000000000000000000000002000000000000005000000000000004425601000000000000009999123100000010000000000000BRELPLACNPR6118
012013100762ELPL4T      030ELETROPAULO PN      N2095R$  000000000089400000000008950000000000894000000000089400000000008950000000000000000000000000000002000000000000010000000000000008946580000000000000009999123100000010000000000000BRELPLACNPR6118
012013100702EMAE4       010EMAE        PN           R$  000000000057000000000005700000000000570000000000057000000000005700000000000565000000000060800001000000000000000500000000000000285000000000000000009999123100000010000000000000BREMAEACNPR1106
012013100702EMBR3       010EMBRAER     ON      NM   R$  000000000185900000000018950000000001840000000000187400000000018750000000001867000000000187505825000000000001678300000000003146247000000000000000009999123100000010000000000000BREMBRACNOR4165
012013100796EMBR3F      020EMBRAER     ON      NM   R$  000000000184700000000018900000000001837000000000186800000000018740000000001861000000000187600045000000000000001296000000000002421654000000000000009999123100000010000000000000BREMBRACNOR4165
012013100762EMBR3T      030EMBRAER     ON      NM030R$  000000000186400000000018910000000001864000000000188700000000018880000000000000000000000000000010000000000000014500000000000027365279000000000000009999123100000010000000000000BREMBRACNOR4165
