00COTAHIST.2013BOVESPA 20130910                                                                                                                                                                                                                      
012013091002AAPL34      010APPLE       DRN          R$  000000001140000000000114000000000011305000000001131500000000113050000000011215000000001136000003000000000000013400000000000151621900000000000000009999123100000010000000000000BRAAPLBDR004105
012013091002ABCB4       010ABC BRASIL  PN      N2   R$  000000000122000000000012280000000001216000000000121800000000012180000000001217000000000121800307000000000000501900000000000611344100000000000000009999123100000010000000000000BRABCBACNPR4120
012013091096ABCB4F      020ABC BRASIL  PN      N2   R$  000000000126000000000012600000000001212000000000122000000000012120000000001211000000000122900008000000000000000090000000000000109837000000000000009999123100000010000000000000BRABCBACNPR4120
012013091012ABCP11      010FII ABC IMOBCI  ER       R$  000000000095000000000009500000000000950000000000095000000000009500000000000950000000000096400003000000000000000226000000000000214700000000000000009999123100000010000000000000BRABCPCTF000215
012013091002ABRE11      010ABRIL EDUCA UNT     N2   R$  000000000342400000000034890000000003379000000000342800000000034000000000003400000000000346301403000000000000239000000000000819462500000000000000009999123100000010000000000000BRABRECDAM15102
012013091096ABRE11F     020ABRIL EDUCA UNT     N2   R$  000000000333000000000034780000000003330000000000344400000000034310000000003310000000000340000009000000000000000161000000000000554520000000000000009999123100000010000000000000BRABRECDAM15102
012013091002ABTT34      010ABBOTT      DRN          R$  000000000193500000000019350000000001934000000000193400000000019340000000001920000000000196000003000000000000004500000000000008703700000000000000009999123100000010000000000000BRABTTBDR007107
012013091002AEDU3       010ANHANGUERA  ON      NM   R$  000000000138400000000014030000000001363000000000138000000000013760000000001364000000000137707437000000000002433100000000003359271300000000000000009999123100000010000000000000BRAEDUACNOR9107
012013091096AEDU3F      020ANHANGUERA  ON      NM   R$  000000000139700000000014180000000001362000000000138200000000013620000000001362000000000138900025000000000000000807000000000001115430000000000000009999123100000010000000000000BRAEDUACNOR9107
012013091012AEFI11      010FII AESAPAR CI  ER       R$  000000001188000000000118870000000011815000000001186100000000118150000000011817000000001184700019000000000000000762000000000009038825000000000000009999123100000010000000000000BRAEFICTF002121
012013091002AELP3       010AES ELPA    ON           R$  000000000098000000000009950000000000980000000000098900000000009920000000000822000000000099200004000000000000000800000000000000791900000000000000009999123100000010000000000000BRAELPACNOR2119
012013091012AGCX11      010FII AG CAIXACI  ER       R$  000000009800000000000980000000000098000000000009800000000000980000000000097550000000009890000001000000000000000010000000000000980000000000000000009999123100000010000000000000BRAGCXCTF003110
012013091002AGRO3       010BRASILAGRO  ON      NM   R$  000000000095000000000009800000000000950000000000096000000000009600000000000960000000000096900026000000000000018700000000000017967000000000000000009999123100000010000000000000BRAGROACNOR7102
012013091096AGRO3F      020BRASILAGRO  ON      NM   R$  000000000090000000000009630000000000900000000000092800000000009000000000000963000000000109000003000000000000000183000000000000169929000000000000009999123100000010000000000000BRAGROACNOR7102
012013091002ALLL3       010ALL AMER LATON      NM   R$  000000000094200000000009440000000000924000000000093300000000009350000000000934000000000093508521000000000003369600000000003147176600000000000000009999123100000010000000000000BRALLLACNOR6118
012013091096ALLL3F      020ALL AMER LATON      NM   R$  000000000094500000000009450000000000925000000000093200000000009250000000000925000000000094500041000000000000001194000000000001113600000000000000009999123100000010000000000000BRALLLACNOR6118
012013091062ALLL3T      030ALL AMER LATON      NM030R$  000000000094100000000009420000000000941000000000094100000000009420000000000000000000000000000002000000000000003000000000000002825196000000000000009999123100000010000000000000BRALLLACNOR6118
012013091012ALMI11B     010FII TORRE ALCI  ER  MB   R$  000000030803100000003082000000000308000000000030802300000003081000000000308100000000030999900004000000000000000033000000000010164762000000000000009999123100000010000000000000BRALMICTF003205
012013091002ALPA4       010ALPARGATAS  PN      N1   R$  000000000133400000000013360000000001311000000000131800000000013200000000001320000000000132301426000000000000471100000000000621033000000000000000009999123100000010000000000000BRALPAACNPR7203
012013091096ALPA4F      020ALPARGATAS  PN      N1   R$  000000000133500000000013350000000001317000000000132100000000013200000000001311000000000132000019000000000000000351000000000000463901000000000000009999123100000010000000000000BRALPAACNPR7203
012013091002ALSC3       010ALIANSCE    ON      NM   R$  000000000190400000000019460000000001904000000000192200000000019200000000001912000000000192001533000000000000408400000000000785132200000000000000009999123100000010000000000000BRALSCACNOR0104
012013091096ALSC3F      020ALIANSCE    ON      NM   R$  000000000182200000000020000000000001822000000000193700000000018320000000001832000000000194700006000000000000000252000000000000488209000000000000009999123100000010000000000000BRALSCACNOR0104
012013091002ALUP11      010ALUPAR      UNT     N2   R$  000000000175900000000017650000000001731000000000174800000000017620000000001741000000000176200653000000000000172900000000000302264000000000000000009999123100000010000000000000BRALUPCDAM15100
012013091096ALUP11F     020ALUPAR      UNT     N2   R$  000000000175000000000017650000000001715000000000174600000000017400000000001705000000000173000027000000000000000673000000000001175092000000000000009999123100000010000000000000BRALUPCDAM15100
012013091002AMAR3       010LOJAS MARISAON      NM   R$  000000000208200000000021650000000002082000000000212900000000021300000000002119000000000213102316000000000000992800000000002113677900000000000000009999123100000010000000000000BRAMARACNOR4109
012013091096AMAR3F      020LOJAS MARISAON      NM   R$  000000000212300000000021690000000002064000000000212500000000021000000000002099000000000217000018000000000000000352000000000000748003000000000000009999123100000010000000000000BRAMARACNOR4109
012013091002AMBV3       010AMBEV       ON           R$  000000000827400000000084250000000008239000000000836200000000084250000000008377000000000842502080000000000000369200000000003087682100000000000000009999123100000010000000000000BRAMBVACNOR4153
012013091096AMBV3F      020AMBEV       ON           R$  000000000820000000000084000000000008200000000000835000000000083000000000008287000000000840000060000000000000001317000000000010999464000000000000009999123100000010000000000000BRAMBVACNOR4153
012013091062AMBV3T      030AMBEV       ON        062R$  000000000847600000000084770000000008476000000000847600000000084770000000000000000000000000000002000000000000002000000000000016952170000000000000009999123100000010000000000000BRAMBVACNOR4153
012013091002AMBV4       010AMBEV       PN           R$  000000000824300000000084000000000008240000000000835900000000084000000000008350000000000840010068000000000002916700000000024383489200000000000000009999123100000010000000000000BRAMBVACNPR1153
012013091096AMBV4F      020AMBEV       PN           R$  000000000824000000000084000000000008240000000000833900000000083770000000008360000000000837700257000000000000006392000000000053321691000000000000009999123100000010000000000000BRAMBVACNPR1153
012013091062AMBV4T      030AMBEV       PN        030R$  000000000836100000000083620000000008361000000000836100000000083620000000000000000000000000000002000000000000000300000000000002508585000000000000009999123100000010000000000000BRAMBVACNPR1153
012013091062AMBV4T      030AMBEV       PN        062R$  000000000844600000000084470000000008446000000000844600000000084470000000000000000000000000000002000000000000001300000000000010980050000000000000009999123100000010000000000000BRAMBVACNPR1153
012013091062AMBV4T      030AMBEV       PN        120R$  000000000853400000000085350000000008534000000000853400000000085350000000000000000000000000000002000000000000000300000000000002560265000000000000009999123100000010000000000000BRAMBVACNPR1153
012013091078AMBVB1      070AMBV        PN        000R$  000000000012100000000001210000000000121000000000012100000000001210000000000000000000000000000002000000000000037500000000000004537500000000001000002014021700000010000000000000BRAMBVACNPR1153
012013091078AMBVB5      070AMBV        PN        000R$  000000000006300000000000630000000000062000000000006200000000000620000000000000000000000000000003000000000000037500000000000002358700000000001050002014021700000010000000000000BRAMBVACNPR1153
012013091078AMBVI84     070AMBV        PN        000R$  000000000005000000000000500000000000050000000000005000000000000500000000000001000000000000000003000000000000002400000000000000120000000000000840002013091600000010000000000000BRAMBVACNPR1153
012013091078AMBVJ85     070AMBV        PN        000R$  000000000016800000000001680000000000168000000000016800000000001680000000000000000000000000000002000000000000000700000000000000117600000000000850002013102100000010000000000000BRAMBVACNPR1153
012013091078AMBVJ88     070AMBV        PN        000R$  000000000004000000000000550000000000040000000000005300000000000550000000000000000000000000000006000000000000005200000000000000279000000000000880002013102100000010000000000000BRAMBVACNPR1153
012013091078AMBVL91     070AMBV        PN        000R$  000000000014200000000001420000000000142000000000014200000000001420000000000000000000000000000002000000000000012000000000000001704000000000000910002013121600000010000000000000BRAMBVACNPR1153
012013091082AMBVX2      080AMBVE       PN        000R$  000000000011000000000001100000000000110000000000011000000000001100000000000000000000000000000002000000000000012000000000000001320000000000000785002013121600000010000000000000BRAMBVACNPR1153
012013091002AMGN34      010AMGEN       DRN          R$  000000002539500000000254130000000025395000000002541100000000254130000000025175000000002556300002000000000000000900000000000022869900000000000000009999123100000010000000000000BRAMGNBDR004107
012013091002ARMT34      010ARCELOR     DRN          R$  000000000159900000000015990000000001599000000000159900000000015990000000001590000000000162500001000000000000002500000000000003997500000000000000009999123100000010000000000000BRARMTBDR008111
012013091002ARTR3       010ARTERIS     ON      NM   R$  000000000194300000000019460000000001860000000000189600000000018800000000001880000000000188205182000000000003238600000000006142647200000000000000009999123100000010000000000000BRARTRACNOR3101
012013091096ARTR3F      020ARTERIS     ON      NM   R$  000000000193900000000019440000000001890000000000192000000000018900000000001892000000000194400086000000000000002707000000000005198550000000000000009999123100000010000000000000BRARTRACNOR3101
012013091002ARZZ3       010AREZZO CO   ON      NM   R$  000000000362000000000036570000000003575000000000361300000000035750000000003573000000000360700954000000000000300900000000001087377000000000000000009999123100000010000000000000BRARZZACNOR3109
012013091096ARZZ3F      020AREZZO CO   ON      NM   R$  000000000340600000000036500000000003401000000000357700000000036000000000003600000000000369000009000000000000000243000000000000869371000000000000009999123100000010000000000000BRARZZACNOR3109
012013091002ATTB34      010ATT INC     DRN          R$  000000000770700000000077070000000007707000000000770700000000077070000000007638000000000786700001000000000000000200000000000001541400000000000000009999123100000010000000000000BRATTBBDR007104
012013091002AUTM3       010AUTOMETAL   ON      NM   R$  000000000185500000000018600000000001834000000000184500000000018500000000001850000000000185100667000000000000557200000000001028471900000000000000009999123100000010000000000000BRAUTMACNOR8109
012013091062AUTM3T      030AUTOMETAL   ON      NM360R$  000000000202800000000020290000000002028000000000202800000000020290000000000000000000000000000002000000000000000500000000000001014390000000000000009999123100000010000000000000BRAUTMACNOR8109
012013091002AXPB34      010AMERICAN EXPDRN          R$  000000001693700000000169370000000016937000000001693700000000169370000000016771000000001727500001000000000000000200000000000003387400000000000000009999123100000010000000000000BRAXPBBDR007105
012013091002AZEV4       010AZEVEDO     PN           R$  000000000014000000000001400000000000140000000000014000000000001400000000000129000000000014000001000000000000001600000000000000224000000000000000009999123100000010000000000000BRAZEVACNPR7113
012013091002BAHI3       010BAHEMA      ON           R$  000000000050500000000005100000000000496000000000050200000000004960000000000490000000000051000004000000000000007100000000000003567600000000000000009999123100000010000000000000BRBAHIACNOR1066
012013091062BAHI3T      030BAHEMA      ON        062R$  000000000051600000000005170000000000516000000000051600000000005170000000000000000000000000000002000000000000004000000000000002064510000000000000009999123100000010000000000000BRBAHIACNOR1066
012013091002BALM4       010BAUMER      PN           R$  000000000950000000000095000000000009500000000000950000000000095000000000009000000000000980000002000000000000000200000000000001900000000000000000009999123100000010000000000000BRBALMACNPR2043
012013091002BAUH4       010EXCELSIOR   PN           R$  000000000090500000000009050000000000901000000000090300000000009010000000000802000000000091900002000000000000000600000000000000541800000000000000009999123100000010000000000000BRBAUHACNPR3108
012013091002BAZA3       010AMAZONIA    ON           R$  000000000003300000000000330000000000033000000000003300000000000330000000000032000000000003300001000000000000001000000000000000033000000000000000009999123100000010000000000000BRBAZAACNOR0163
012013091096BAZA3F      020AMAZONIA    ON           R$  000000000003400000000000340000000000034000000000003400000000000340000000000033000000000003400001000000000000000020000000000000000680000000000000009999123100000010000000000000BRBAZAACNOR0163
012013091002BBAS3       010BRASIL      ON      NM   R$  000000000243000000000024890000000002430000000000246600000000024650000000002465000000000246617545000000000008090200000000019956356300000000000000009999123100000010000000000000BRBBASACNOR3238
012013091096BBAS3F      020BRASIL      ON      NM   R$  000000000242500000000024870000000002425000000000246100000000024580000000002458000000000246300355000000000000011562000000000028457766000000000000009999123100000010000000000000BRBBASACNOR3238
012013091062BBAS3T      030BRASIL      ON      NM030R$  000000000248200000000024830000000002482000000000248200000000024830000000000000000000000000000004000000000000001100000000000002730751000000000000009999123100000010000000000000BRBBASACNOR3238
012013091062BBAS3T      030BRASIL      ON      NM062R$  000000000248200000000025180000000002482000000000250400000000025180000000000000000000000000000004000000000000001600000000000004006901000000000000009999123100000010000000000000BRBBASACNOR3238
012013091062BBAS3T      030BRASIL      ON      NM090R$  000000000252500000000025260000000002525000000000252500000000025260000000000000000000000000000002000000000000005000000000000012627450000000000000009999123100000010000000000000BRBBASACNOR3238
012013091078BBASB25     070BBAS        ON      NM000R$  000000000022600000000002260000000000226000000000022600000000002260000000000000000000000000000001000000000000001000000000000000226000000000000242202014021700000010000000000000BRBBASACNOR3237
012013091078BBASI21     070BBAS        ON      NM000R$  000000000044100000000004580000000000418000000000044500000000004180000000000100000000000000000022000000000000004200000000000001873000000000000202202013091600000010000000000000BRBBASACNOR3237
012013091078BBASI22     070BBAS        ON      NM000R$  000000000035000000000003950000000000350000000000036800000000003670000000000061000000000000000048000000000000018300000000000006734900000000000209802013091600000010000000000000BRBBASACNOR3236
012013091078BBASI23     070BBAS        ON      NM000R$  000000000025000000000002880000000000250000000000027400000000002830000000000258000000000000000023000000000000022700000000000006220800000000000219802013091600000010000000000000BRBBASACNOR3236
012013091078BBASI24     070BBAS        ON      NM000R$  000000000015300000000001850000000000150000000000016300000000001650000000000145000000000018900193000000000000084100000000000013779800000000000229802013091600000010000000000000BRBBASACNOR3236
012013091078BBASI25     070BBAS        ON      NM000R$  000000000006500000000001020000000000061000000000007800000000000840000000000071000000000008500120000000000000109400000000000008604700000000000238802013091600000010000000000000BRBBASACNOR3235
012013091078BBASI26     070BBAS        ON      NM000R$  000000000001100000000000230000000000010000000000001800000000000140000000000010000000000001800074000000000000165300000000000003017900000000000248802013091600000010000000000000BRBBASACNOR3235
012013091078BBASI27     070BBAS        ON      NM000R$  000000000000200000000000030000000000002000000000000200000000000020000000000000000000000000200003000000000000002100000000000000005200000000000259802013091600000010000000000000BRBBASACNOR3236
012013091078BBASI28     070BBAS        ON      NM000R$  000000000000100000000000010000000000001000000000000100000000000010000000000000000000000000100002000000000000005200000000000000005200000000000268802013091600000010000000000000BRBBASACNOR3235
012013091078BBASJ22     070BBAS        ON      NM000R$  000000000034900000000003840000000000345000000000036100000000003450000000000330000000000000000031000000000000008500000000000003069400000000000212202013102100000010000000000000BRBBASACNOR3237
012013091078BBASJ23     070BBAS  FM    ON      NM000R$  000000000028000000000003250000000000280000000000030600000000002900000000000000000000000000000519000000000000284500000000000087216200000000000218802013102100000010000000000000BRBBASACNOR3235
012013091078BBASJ24     070BBAS  FM    ON      NM000R$  000000000018900000000002250000000000184000000000020800000000002070000000000100000000000000000253000000000000150200000000000031291400000000000229802013102100000010000000000000BRBBASACNOR3236
012013091078BBASJ25     070BBAS  FM    ON      NM000R$  000000000010600000000001300000000000105000000000012100000000001130000000000025000000000000000056000000000000091900000000000011162300000000000242202013102100000010000000000000BRBBASACNOR3237
012013091078BBASJ26     070BBAS  FM    ON      NM000R$  000000000006400000000000880000000000064000000000007400000000000750000000000067000000000008500131000000000000147600000000000011041200000000000248802013102100000010000000000000BRBBASACNOR3235
012013091078BBASJ27     070BBAS  FM    ON      NM000R$  000000000003200000000000440000000000028000000000003900000000000350000000000020000000000004500288000000000000342500000000000013357800000000000258802013102100000010000000000000BRBBASACNOR3235
012013091078BBASJ28     070BBAS        ON      NM000R$  000000000001200000000000140000000000010000000000001200000000000100000000000007000000000001900013000000000000062800000000000000773600000000000272202013102100000010000000000000BRBBASACNOR3237
012013091078BBASJ29     070BBAS        ON      NM000R$  000000000000600000000000080000000000005000000000000600000000000080000000000006000000000000700004000000000000020300000000000000131800000000000278802013102100000010000000000000BRBBASACNOR3235
012013091078BBASJ30     070BBAS        ON      NM000R$  000000000000300000000000030000000000003000000000000300000000000030000000000003000000000000400002000000000000001000000000000000003000000000000288802013102100000010000000000000BRBBASACNOR3235
012013091078BBASJ56     070BBAS        ON      NM000R$  000000000004400000000000640000000000044000000000005000000000000620000000000000000000000000000108000000000000162500000000000008280000000000000253802013102100000010000000000000BRBBASACNOR3235
012013091078BBASK23     070BBAS  FM    ON      NM000R$  000000000028300000000003170000000000279000000000029500000000002960000000000000000000000000000046000000000000075000000000000022140500000000000222202013111800000010000000000000BRBBASACNOR3237
012013091078BBASK24     070BBAS  FM    ON      NM000R$  000000000020200000000002380000000000202000000000022200000000002200000000000146000000000000000032000000000000054000000000000011993400000000000232202013111800000010000000000000BRBBASACNOR3237
012013091078BBASK25     070BBAS  FM    ON      NM000R$  000000000015200000000001810000000000152000000000016800000000001660000000000016000000000000000012000000000000019000000000000003208800000000000239802013111800000010000000000000BRBBASACNOR3236
012013091078BBASK26     070BBAS  FM    ON      NM000R$  000000000010100000000001180000000000101000000000010600000000001070000000000016000000000011600019000000000000029800000000000003177300000000000249802013111800000010000000000000BRBBASACNOR3236
012013091078BBASK27     070BBAS  FM    ON      NM000R$  000000000005500000000000720000000000055000000000006200000000000620000000000040000000000000000019000000000000032200000000000002001500000000000259802013111800000010000000000000BRBBASACNOR3236
012013091078BBASK28     070BBAS        ON      NM000R$  000000000003200000000000400000000000032000000000003300000000000380000000000010000000000000000142000000000000306600000000000010155800000000000269802013111800000010000000000000BRBBASACNOR3236
012013091078BBASK29     070BBAS        ON      NM000R$  000000000001300000000000130000000000013000000000001300000000000130000000000006000000000000000019000000000000040000000000000000520000000000000282202013111800000010000000000000BRBBASACNOR3237
012013091078BBASK30     070BBAS        ON      NM000R$  000000000000800000000000080000000000008000000000000800000000000080000000000007000000000000000001000000000000000200000000000000001600000000000292202013111800000010000000000000BRBBASACNOR3237
012013091078BBASL24     070BBAS        ON      NM000R$  000000000023500000000002350000000000235000000000023500000000002350000000000124000000000000000001000000000000000700000000000000164500000000000232202013121600000010000000000000BRBBASACNOR3237
012013091078BBASL25     070BBAS        ON      NM000R$  000000000019700000000001970000000000197000000000019700000000001970000000000120000000000000000001000000000000000200000000000000039400000000000238802013121600000010000000000000BRBBASACNOR3235
012013091078BBASL26     070BBAS        ON      NM000R$  000000000015400000000001550000000000150000000000015300000000001510000000000005000000000000000004000000000002500000000000000384465000000000000248802013121600000010000000000000BRBBASACNOR3235
012013091078BBASL27     070BBAS        ON      NM000R$  000000000008900000000000910000000000078000000000008700000000000780000000000005000000000000000004000000000000005000000000000000438000000000000262202013121600000010000000000000BRBBASACNOR3237
012013091078BBASL28     070BBAS        ON      NM000R$  000000000005200000000000540000000000052000000000005300000000000530000000000003000000000000000003000000000001250100000000000067255200000000000272202013121600000010000000000000BRBBASACNOR3237
012013091078BBASL55     070BBASE       ON      NM000R$  000000000020300000000002040000000000201000000000020200000000002030000000000000000000000000000006000000000000014100000000000002859300000000000237902013121600000010000000000000BRBBASACNOR3233
012013091082BBASM26     080BBASE       ON      NM000R$  000000000015100000000001510000000000151000000000015100000000001510000000000000000000000000000001000000000000001200000000000000181200000000000252202014012000000010000000000000BRBBASACNOR3237
012013091082BBASU22     080BBASE       ON      NM000R$  000000000000200000000000020000000000002000000000000200000000000020000000000000000000000000200001000000000000002600000000000000005200000000000209802013091600000010000000000000BRBBASACNOR3236
012013091082BBASU23     080BBASE       ON      NM000R$  000000000000100000000000010000000000001000000000000100000000000010000000000001000000000000000002000000000000010000000000000000010000000000000219802013091600000010000000000000BRBBASACNOR3236
012013091082BBASU24     080BBASE       ON      NM000R$  000000000000300000000000030000000000003000000000000300000000000030000000000000000000000000300001000000000000001000000000000000003000000000000229802013091600000010000000000000BRBBASACNOR3236
012013091082BBASU25     080BBASE       ON      NM000R$  000000000001000000000000110000000000007000000000000800000000000070000000000000000000000001300029000000000000071500000000000000624500000000000238802013091600000010000000000000BRBBASACNOR3235
012013091082BBASU26     080BBASE       ON      NM000R$  000000000003200000000000400000000000031000000000003300000000000400000000000000000000000000000041000000000000032400000000000001090900000000000248802013091600000010000000000000BRBBASACNOR3235
012013091082BBASV22     080BBASE FM    ON      NM000R$  000000000000900000000000090000000000008000000000000800000000000080000000000000000000000000000015000000000000043200000000000000355800000000000212202013102100000010000000000000BRBBASACNOR3237
012013091082BBASV23     080BBASE FM    ON      NM000R$  000000000001600000000000160000000000012000000000001400000000000150000000000013000000000003800103000000000000331500000000000004952500000000000218802013102100000010000000000000BRBBASACNOR3235
012013091082BBASV24     080BBASE FM    ON      NM000R$  000000000003000000000000300000000000023000000000002500000000000280000000000000000000000005000045000000000000153200000000000003902600000000000229802013102100000010000000000000BRBBASACNOR3236
012013091082BBASV25     080BBASE FM    ON      NM000R$  000000000006400000000000640000000000051000000000005800000000000590000000000000000000000000000022000000000000052700000000000003072500000000000242202013102100000010000000000000BRBBASACNOR3237
012013091082BBASV26     080BBASE       ON      NM000R$  000000000008800000000000880000000000078000000000008200000000000840000000000000000000000000000012000000000000010000000000000000824000000000000248802013102100000010000000000000BRBBASACNOR3235
012013091082BBASV27     080BBASE       ON      NM000R$  000000000015200000000001520000000000152000000000015200000000001520000000000070000000000023000001000000000000001000000000000000152000000000000258802013102100000010000000000000BRBBASACNOR3235
012013091082BBASW21     080BBASE       ON      NM000R$  000000000001000000000000100000000000010000000000001000000000000100000000000000000000000000000001000000000000001200000000000000012000000000000199802013111800000010000000000000BRBBASACNOR3236
012013091082BBASW23     080BBASE FM    ON      NM000R$  000000000002900000000000290000000000029000000000002900000000000290000000000000000000000000000003000000000000003600000000000000104400000000000222202013111800000010000000000000BRBBASACNOR3237
012013091082BBASW24     080BBASE FM    ON      NM000R$  000000000005500000000000550000000000044000000000005000000000000470000000000000000000000000000032000000000000025800000000000001296600000000000232202013111800000010000000000000BRBBASACNOR3237
012013091082BBASW25     080BBASE FM    ON      NM000R$  000000000007700000000000790000000000065000000000007400000000000710000000000000000000000000000017000000000000027900000000000002089800000000000239802013111800000010000000000000BRBBASACNOR3236
012013091082BBASX24     080BBASE       ON      NM000R$  000000000006100000000000610000000000061000000000006100000000000610000000000000000000000000000001000000000000003000000000000000183000000000000232202013121600000010000000000000BRBBASACNOR3237
012013091082BBASX25     080BBASE       ON      NM000R$  000000000007900000000000790000000000079000000000007900000000000790000000000000000000000000000001000000000000001200000000000000094800000000000238802013121600000010000000000000BRBBASACNOR3235
012013091082BBASX27     080BBASE       ON      NM000R$  000000000018300000000001830000000000183000000000018300000000001830000000000000000000000000000001000000000000001200000000000000219600000000000262202013121600000010000000000000BRBBASACNOR3237
012013091082BBASX55     080BBASE       ON      NM000R$  000000000007700000000000830000000000077000000000007900000000000830000000000000000000000000000003000000000000007200000000000000574800000000000237902013121600000010000000000000BRBBASACNOR3233
012013091002BBDC3       010BRADESCO    ON  EJ  N1   R$  000000000341100000000034780000000003403000000000344200000000034500000000003448000000000345009703000000000004354500000000014988229800000000000000009999123100000010000000000000BRBBDCACNOR1606
012013091096BBDC3F      020BRADESCO    ON  EJ  N1   R$  000000000340000000000035000000000003400000000000344100000000034390000000003414000000000343000069000000000000001756000000000006043862000000000000009999123100000010000000000000BRBBDCACNOR1606
012013091002BBDC4       010BRADESCO    PN  EJ  N1   R$  000000000294900000000030000000000002938000000000297700000000029850000000002983000000000298520559000000000008445500000000025149879800000000000000009999123100000010000000000000BRBBDCACNPR8606
012013091096BBDC4F      020BRADESCO    PN  EJ  N1   R$  000000000295400000000029990000000002938000000000297500000000029800000000002970000000000298000320000000000000008539000000000025410601000000000000009999123100000010000000000000BRBBDCACNPR8606
012013091062BBDC4T      030BRADESCO    PN  EJ  N1016R$  000000000296900000000029840000000002969000000000297800000000029840000000000000000000000000000004000000000000003000000000000008935555000000000000009999123100000010000000000000BRBBDCACNPR8606
012013091062BBDC4T      030BRADESCO    PN  EJ  N1090R$  000000000305600000000030570000000003056000000000305600000000030570000000000000000000000000000002000000000000000800000000000002444922000000000000009999123100000010000000000000BRBBDCACNPR8606
012013091078BBDCA31     070BBDC    /EJ PN      N1000R$  000000000015400000000001580000000000154000000000015500000000001550000000000000000000000000000015000000000000027800000000000004320800000000000309802014012000000010000000000000BRBBDCACNPR8605
012013091078BBDCI27     070BBDC    /EJ PN      N1000R$  000000000033000000000003300000000000300000000000030700000000003000000000000033000000000000000003000000000000007900000000000002430000000000000267602013091600000010000000000000BRBBDCACNPR8602
012013091078BBDCI28     070BBDC    /EJ PN      N1000R$  000000000017200000000001990000000000172000000000018900000000001990000000000195000000000000000004000000000000009700000000000001834000000000000277602013091600000010000000000000BRBBDCACNPR8602
012013091078BBDCI29     070BBDC    /EJ PN      N1000R$  000000000009100000000001290000000000078000000000010800000000001140000000000079000000000000000302000000000000161300000000000017534100000000000287602013091600000010000000000000BRBBDCACNPR8602
012013091078BBDCI30     070BBDC    /EJ PN      N1000R$  000000000002900000000000460000000000022000000000003200000000000340000000000022000000000006000127000000000000236500000000000007654500000000000297602013091600000010000000000000BRBBDCACNPR8602
012013091078BBDCI32     070BBDC    /EJ PN      N1000R$  000000000000100000000000010000000000001000000000000100000000000010000000000001000000000000200001000000000000001600000000000000001600000000000317602013091600000010000000000000BRBBDCACNPR8602
012013091078BBDCI33     070BBDC    /EJ PN      N1000R$  000000000003100000000000510000000000031000000000003900000000000360000000000014000000000000000020000000000000042500000000000001698000000000000297002013091600000010000000000000BRBBDCACNPR8598
012013091078BBDCI75     070BBDCE   /EJ PN      N1000R$  000000000017300000000001730000000000173000000000017300000000001730000000000000000000000000000001000000000000000400000000000000069200000000000282102013091600000010000000000000BRBBDCACNPR8604
012013091078BBDCI81     070BBDC    /EJ PN      N1000R$  000000000000300000000000070000000000003000000000000300000000000040000000000001000000000000700010000000000000060400000000000000212700000000000307602013091600000010000000000000BRBBDCACNPR8602
012013091078BBDCJ1      070BBDC    /EJ PN      N1000R$  000000000004000000000000440000000000040000000000004300000000000440000000000000000000000000000005000000000000006800000000000000296000000000000314402013102100000010000000000000BRBBDCACNPR8603
012013091078BBDCJ26     070BBDC    /EJ PN      N1000R$  000000000039900000000003990000000000399000000000039900000000003990000000000000000000000042900001000000000000000100000000000000039900000000000259602013102100000010000000000000BRBBDCACNPR8604
012013091078BBDCJ27     070BBDC    /EJ PN      N1000R$  000000000032800000000003450000000000328000000000033200000000003420000000000000000000000034500060000000000000034200000000000011388500000000000267602013102100000010000000000000BRBBDCACNPR8602
012013091078BBDCJ29     070BBDC    /EJ PN      N1000R$  000000000015500000000001850000000000146000000000016700000000001700000000000152000000000000000116000000000000166300000000000027866100000000000287602013102100000010000000000000BRBBDCACNPR8602
012013091078BBDCJ30     070BBDC    /EJ PN      N1000R$  000000000009900000000001200000000000094000000000010800000000001070000000000101000000000011500322000000000000304900000000000033017100000000000297602013102100000010000000000000BRBBDCACNPR8602
012013091078BBDCJ31     070BBDC    /EJ PN      N1000R$  000000000005200000000000710000000000052000000000006100000000000610000000000042000000000007500284000000000000351500000000000021467500000000000307602013102100000010000000000000BRBBDCACNPR8602
012013091078BBDCJ32     070BBDC    /EJ PN      N1000R$  000000000002800000000000370000000000026000000000003100000000000350000000000020000000000003500149000000000000238700000000000007478900000000000317602013102100000010000000000000BRBBDCACNPR8602
012013091078BBDCJ33     070BBDC    /EJ PN      N1000R$  000000000001700000000000170000000000017000000000001700000000000170000000000000000000000001700001000000000000003100000000000000052700000000000327602013102100000010000000000000BRBBDCACNPR8602
012013091078BBDCJ34     070BBDC    /EJ PN      N1000R$  000000000000800000000000080000000000008000000000000800000000000080000000000000000000000000000001000000000000000700000000000000005600000000000337202013102100000010000000000000BRBBDCACNPR8600
012013091078BBDCJ58     070BBDC    /EJ PN      N1000R$  000000000021500000000002490000000000208000000000022800000000002330000000000092000000000000000273000000000000282200000000000064398600000000000279802013102100000010000000000000BRBBDCACNPR8605
012013091078BBDCK28     070BBDC    /EJ PN      N1000R$  000000000026900000000002990000000000261000000000028000000000002840000000000000000000000000000051000000000000096600000000000027131500000000000277602013111800000010000000000000BRBBDCACNPR8602
012013091078BBDCK30     070BBDC    /EJ PN      N1000R$  000000000012000000000001460000000000120000000000013700000000001260000000000000000000000000000023000000000000048800000000000006703800000000000299802013111800000010000000000000BRBBDCACNPR8605
012013091078BBDCK31     070BBDC    /EJ PN      N1000R$  000000000008400000000000960000000000083000000000009200000000000830000000000000000000000000000006000000000000010600000000000000981600000000000309802013111800000010000000000000BRBBDCACNPR8605
012013091078BBDCK32     070BBDC    /EJ PN      N1000R$  000000000005900000000000690000000000059000000000006600000000000690000000000013000000000000000047000000000000050000000000000003340900000000000317402013111800000010000000000000BRBBDCACNPR8601
012013091078BBDCK33     070BBDC    /EJ PN      N1000R$  000000000003700000000000380000000000037000000000003700000000000380000000000000000000000000000024000000000000042000000000000001593000000000000327602013111800000010000000000000BRBBDCACNPR8602
012013091078BBDCK9      070BBDC    /EJ PN      N1000R$  000000000018000000000002080000000000176000000000019900000000001920000000000000000000000000000038000000000000082600000000000016504500000000000289802013111800000010000000000000BRBBDCACNPR8605
012013091078BBDCL27     070BBDC    /EJ PN      N1000R$  000000000038500000000003860000000000385000000000038500000000003860000000000000000000000000000002000000000000010000000000000003855000000000000269602013121600000010000000000000BRBBDCACNPR8604
012013091078BBDCL32     070BBDC    /EJ PN      N1000R$  000000000008500000000000980000000000084000000000009300000000000980000000000000000000000000000007000000000000006100000000000000567900000000000317202013121600000010000000000000BRBBDCACNPR8600
012013091078BBDCL33     070BBDC    /EJ PN      N1000R$  000000000019300000000001930000000000192000000000019200000000001920000000000000000000000000000002000000000000005000000000000000963000000000000297002013121600000010000000000000BRBBDCACNPR8598
012013091082BBDCU28     080BBDCE   /EJ PN      N1000R$  000000000000600000000000060000000000006000000000000600000000000060000000000000000000000000000001000000000000001000000000000000006000000000000277602013091600000010000000000000BRBBDCACNPR8602
012013091082BBDCU29     080BBDCE   /EJ PN      N1000R$  000000000001000000000000100000000000005000000000000600000000000070000000000000000000000000000006000000000000010400000000000000069800000000000287602013091600000010000000000000BRBBDCACNPR8602
012013091082BBDCU30     080BBDCE   /EJ PN      N1000R$  000000000003000000000000330000000000018000000000002600000000000320000000000000000000000000000007000000000000013400000000000000358800000000000297602013091600000010000000000000BRBBDCACNPR8602
012013091082BBDCU33     080BBDCE   /EJ PN      N1000R$  000000000001800000000000370000000000018000000000002900000000000320000000000000000000000000000013000000000000008200000000000000244200000000000297002013091600000010000000000000BRBBDCACNPR8598
012013091082BBDCV25     080BBDCE   /EJ PN      N1000R$  000000000000500000000000050000000000004000000000000400000000000040000000000003000000000000000002000000000000007000000000000000030000000000000249402013102100000010000000000000BRBBDCACNPR8603
012013091082BBDCV26     080BBDCE   /EJ PN      N1000R$  000000000000700000000000070000000000007000000000000700000000000070000000000000000000000000000002000000000000010000000000000000070000000000000259602013102100000010000000000000BRBBDCACNPR8604
012013091082BBDCV27     080BBDCE   /EJ PN      N1000R$  000000000001400000000000140000000000010000000000001200000000000130000000000000000000000000000008000000000000012900000000000000164300000000000267602013102100000010000000000000BRBBDCACNPR8602
012013091082BBDCV28     080BBDCE   /EJ PN      N1000R$  000000000000400000000000040000000000003000000000000300000000000030000000000000000000000000000002000000000000000200000000000000000700000000000245602013102100000010000000000000BRBBDCACNPR8591
012013091082BBDCV29     080BBDCE   /EJ PN      N1000R$  000000000005200000000000520000000000040000000000004500000000000480000000000000000000000000000088000000000000088300000000000004051700000000000287602013102100000010000000000000BRBBDCACNPR8602
012013091082BBDCV30     080BBDCE   /EJ PN      N1000R$  000000000009100000000000950000000000074000000000008100000000000910000000000000000000000008200049000000000000102800000000000008415700000000000297602013102100000010000000000000BRBBDCACNPR8602
012013091082BBDCV58     080BBDCE   /EJ PN      N1000R$  000000000003300000000000330000000000024000000000002600000000000240000000000000000000000000000008000000000000013300000000000000358100000000000279802013102100000010000000000000BRBBDCACNPR8605
012013091082BBDCW27     080BBDCE   /EJ PN      N1000R$  000000000003200000000000330000000000027000000000003000000000000330000000000000000000000000000028000000000000073100000000000002211700000000000269402013111800000010000000000000BRBBDCACNPR8603
012013091082BBDCW28     080BBDCE   /EJ PN      N1000R$  000000000004800000000000480000000000043000000000004500000000000430000000000000000000000000000002000000000000004200000000000000191100000000000277602013111800000010000000000000BRBBDCACNPR8602
012013091082BBDCW30     080BBDCE   /EJ PN      N1000R$  000000000012600000000001260000000000113000000000011900000000001220000000000000000000000000000058000000000000086500000000000010365700000000000299802013111800000010000000000000BRBBDCACNPR8605
012013091082BBDCW31     080BBDCE   /EJ PN      N1000R$  000000000016800000000001680000000000168000000000016800000000001680000000000000000000000000000001000000000000001000000000000000168000000000000309802013111800000010000000000000BRBBDCACNPR8605
012013091082BBDCW9      080BBDCE   /EJ PN      N1000R$  000000000008600000000000860000000000074000000000007900000000000760000000000000000000000000000008000000000000015600000000000001239700000000000289802013111800000010000000000000BRBBDCACNPR8605
012013091082BBDCX27     080BBDCE   /EJ PN      N1000R$  000000000004400000000000440000000000044000000000004400000000000440000000000000000000000000000002000000000000002200000000000000096800000000000269602013121600000010000000000000BRBBDCACNPR8604
012013091012BBFI11B     010FII BB PROGRCI  ER  MB   R$  000000042500000000004250000000000425000000000042500000000004250000000000428000000000043390000001000000000000000008000000000003400000000000000000009999123100000010000000000000BRBBFICTF006198
012013091012BBPO11      010FII BB PRGIICI  ER       R$  000000001105500000000110970000000011041000000001107000000000110700000000011048000000001107000129000000000000016646000000000184274866000000000000009999123100000010000000000000BRBBPOCTF003110
012013091002BBRK3       010BR BROKERS  ON      NM   R$  000000000060000000000006000000000000575000000000058400000000005850000000000580000000000058502866000000000001681600000000000983354400000000000000009999123100000010000000000000BRBBRKACNOR4108
012013091096BBRK3F      020BR BROKERS  ON      NM   R$  000000000059100000000006000000000000576000000000058700000000005760000000000568000000000000000008000000000000000311000000000000182590000000000000009999123100000010000000000000BRBBRKACNOR4108
012013091002BBSE3       010BBSEGURIDADEON      NM   R$  000000000203500000000020710000000002026000000000205200000000020710000000002066000000000207114374000000000005235600000000010744450500000000000000009999123100000010000000000000BRBBSEACNOR5101
012013091096BBSE3F      020BBSEGURIDADEON      NM   R$  000000000202800000000020700000000002005000000000204600000000020490000000002048000000000204901221000000000000042392000000000086760480000000000000009999123100000010000000000000BRBBSEACNOR5101
012013091002BBTG11      010BTG PACTUAL UNT          R$  000000000306500000000031480000000002947000000000298500000000029650000000002965000000000297901114000000000000577700000000001724557600000000000000009999123100000010000000000000BRBBTGUNT007105
012013091096BBTG11F     020BTG PACTUAL UNT          R$  000000000310000000000031000000000002945000000000301400000000029780000000002941000000000329900006000000000000000143000000000000431019000000000000009999123100000010000000000000BRBBTGUNT007105
012013091012BBVJ11      010FII C JARDIMCI  ER       R$  000000000750600000000077600000000007506000000000769800000000077500000000007700000000000775000011000000000000000161000000000001239476000000000000009999123100000010000000000000BRBBVJCTF001133
012013091012BCFF11B     010FII BC FFII CI  ER  MB   R$  000000000869900000000087490000000008652000000000869500000000086520000000008652000000000866900083000000000000004930000000000042870112000000000000009999123100000010000000000000BRBCFFCTF000142
012013091002BDLL4       010BARDELLA    PN           R$  000000000560000000000056000000000005600000000000560000000000056000000000005201000000000559900002000000000000003100000000000017360000000000000000009999123100000010000000000000BRBDLLACNPR8149
012013091096BDLL4F      020BARDELLA    PN           R$  000000000570000000000057000000000005200000000000540400000000052800000000005002000000000560000008000000000000000023000000000000124300000000000000009999123100000010000000000000BRBDLLACNPR8149
012013091062BDLL4T      030BARDELLA    PN        062R$  000000000567800000000056790000000005678000000000567800000000056790000000000000000000000000000002000000000000003100000000000017604776000000000000009999123100000010000000000000BRBDLLACNPR8149
012013091002BEEF3       010MINERVA     ON      NM   R$  000000000109000000000011060000000001083000000000109100000000011000000000001098000000000110003170000000000005684500000000006204652900000000000000009999123100000010000000000000BRBEEFACNOR6104
012013091096BEEF3F      020MINERVA     ON      NM   R$  000000000108700000000011500000000001080000000000108900000000011500000000001097000000000115000008000000000000000125000000000000136172000000000000009999123100000010000000000000BRBEEFACNOR6104
012013091002BEES3       010BANESTES    ON  EJ       R$  000000000005000000000000500000000000048000000000004800000000000480000000000048000000000004900009000000000000034200000000000001657600000000000000009999123100000010000000000000BRBEESACNOR9244
012013091002BEES4       010BANESTES    PN  EJ       R$  000000000004500000000000450000000000045000000000004500000000000450000000000044000000000004500003000000000000010900000000000000490500000000000000009999123100000010000000000000BRBEESACNPR6169
012013091002BEMA3       010BEMATECH    ON      NM   R$  000000000075100000000007610000000000743000000000075100000000007450000000000745000000000075300116000000000000037300000000000028039600000000000000009999123100000010000000000000BRBEMAACNOR0114
012013091002BHGR3       010BHG         ON      NM   R$  000000000144500000000014620000000001441000000000144800000000014500000000001450000000000146000241000000000000144000000000000208627600000000000000009999123100000010000000000000BRBHGRACNOR9101
012013091096BHGR3F      020BHG         ON      NM   R$  000000000144400000000014440000000001400000000000141100000000014000000000001216000000000157800002000000000000000076000000000000107280000000000000009999123100000010000000000000BRBHGRACNOR9101
012013091002BICB4       010BICBANCO    PN      N1   R$  000000000042900000000004470000000000429000000000043900000000004400000000000434000000000044000186000000000000318300000000000139831600000000000000009999123100000010000000000000BRBICBACNPR7131
012013091096BICB4F      020BICBANCO    PN      N1   R$  000000000044300000000004490000000000438000000000044300000000004380000000000433000000000044900016000000000000000315000000000000139730000000000000009999123100000010000000000000BRBICBACNPR7131
012013091062BICB4T      030BICBANCO    PN      N1181R$  000000000045300000000004610000000000453000000000045700000000004610000000000000000000000000000004000000000000025000000000000011440431000000000000009999123100000010000000000000BRBICBACNPR7131
012013091002BIOM3       010BIOMM       ON           R$  000000000090000000000009200000000000900000000000090200000000009200000000000900000000000094000006000000000000007000000000000006320000000000000000009999123100000010000000000000BRBIOMACNOR2101
012013091002BISA3       010BROOKFIELD  ON      NM   R$  000000000019600000000001970000000000188000000000019100000000001900000000000190000000000019103886000000000008458400000000001621866500000000000000009999123100000010000000000000BRBISAACNOR8109
012013091096BISA3F      020BROOKFIELD  ON      NM   R$  000000000019400000000001990000000000189000000000019200000000001920000000000189000000000019200022000000000000000646000000000000124450000000000000009999123100000010000000000000BRBISAACNOR8109
012013091062BISA3T      030BROOKFIELD  ON      NM030R$  000000000019100000000001990000000000191000000000019800000000001990000000000000000000000000000004000000000000082000000000000016251838000000000000009999123100000010000000000000BRBISAACNOR8109
012013091012BJRC11      010FII JS RECIMCI  ER       R$  000000009499900000000949990000000090000000000009016600000000900000000000090000000000009500000003000000000000000030000000000002704999000000000000009999123100000010000000000000BRBJRCCTF007110
012013091002BMEB4       010MERC BRASIL PN           R$  000000000110500000000011050000000001105000000000110500000000011050000000001090000000000111500001000000000000000200000000000000221000000000000000009999123100000010000000000000BRBMEBACNPR5191
012013091002BMIN4       010MERC INVEST PN           R$  000000000002400000000000240000000000024000000000002400000000000240000000000023000000000002400007000000000000029000000000000000696000000000000000009999123100000010000000000000BRBMINACNPR1160
012013091002BMKS3       010BIC MONARK  ON           R$  000000003250000000000325000000000032500000000003250000000000325000000000032500000000003350000007000000000000000044000000000001430000000000000000009999123100000010000000000000BRBMKSACNOR9155
012013091002BMTO4       010BRASMOTOR   PN           R$  000000000008700000000000870000000000085000000000008600000000000870000000000085000000000008600004000000000000006000000000000000520000000000000000009999123100000010000000000000BRBMTOACNPR6065
012013091096BMTO4F      020BRASMOTOR   PN           R$  000000000008700000000000870000000000087000000000008700000000000870000000000087000000000008900001000000000000000166000000000000014442000000000000009999123100000010000000000000BRBMTOACNPR6065
012013091012BNFS11      010FII BANRISULCI  ER       R$  000000000999500000000099950000000009995000000000999500000000099950000000009753000000000999500002000000000000000012000000000000119940000000000000009999123100000010000000000000BRBNFSCTF000112
012013091002BOAC34      010BANK AMERICADRN ED       R$  000000000333400000000033340000000003331000000000333300000000033340000000003300000000000336500003000000000000007200000000000024004500000000000000009999123100000010000000000000BRBOACBDR004112
012013091002BOBR4       010BOMBRIL     PN           R$  000000000063200000000006680000000000632000000000064800000000006680000000000650000000000066800005000000000000000600000000000000388900000000000000009999123100000010000000000000BRBOBRACNPR3127
012013091002BOEI34      010BOEING      DRN          R$  000000002467200000000246720000000024631000000002463100000000246310000000024319000000002505000003000000000000011900000000000293117100000000000000009999123100000010000000000000BRBOEIBDR003106
012013091014BOVA11      010ISHARES BOVACI           R$  000000000531700000000053480000000005251000000000529700000000052850000000005275000000000528505830000000000001499320000000007942278190000000000000009999123100000010000000000000BRBOVACTF003101
012013091096BOVA11F     020ISHARES BOVACI           R$  000000000529500000000053450000000005238000000000529600000000053440000000005238000000000534500014000000000000000031000000000000164193000000000000009999123100000010000000000000BRBOVACTF003101
012013091062BOVA11T     030ISHARES BOVACI        030R$  000000000535900000000053600000000005359000000000535900000000053600000000000000000000000000000002000000000000000300000000000001607793000000000000009999123100000010000000000000BRBOVACTF003101
012013091012BPFF11      010FII ABSOLUTOCI  ER       R$  000000000845000000000084500000000008377000000000841100000000084500000000008375000000000842500016000000000000000893000000000007511892000000000000009999123100000010000000000000BRBPFFCTF002105
012013091002BPHA3       010BR PHARMA   ON      NM   R$  000000000084200000000008540000000000823000000000083600000000008350000000000832000000000083502849000000000001535600000000001284091500000000000000009999123100000010000000000000BRBPHAACNOR6102
012013091096BPHA3F      020BR PHARMA   ON      NM   R$  000000000083600000000008360000000000829000000000083100000000008290000000000827000000000090600010000000000000000316000000000000262889000000000000009999123100000010000000000000BRBPHAACNOR6102
012013091062BPHA3T      030BR PHARMA   ON      NM030R$  000000000083900000000008400000000000839000000000083900000000008400000000000000000000000000000002000000000000001000000000000000839081000000000000009999123100000010000000000000BRBPHAACNOR6102
012013091062BPHA3T      030BR PHARMA   ON      NM045R$  000000000083300000000008340000000000833000000000083300000000008340000000000000000000000000000002000000000000003000000000000002501730000000000000009999123100000010000000000000BRBPHAACNOR6102
012013091002BPNM4       010PANAMERICANOPN      N1   R$  000000000052500000000005300000000000520000000000052300000000005250000000000524000000000052500216000000000000143200000000000075014300000000000000009999123100000010000000000000BRBPNMACNPR6111
012013091096BPNM4F      020PANAMERICANOPN      N1   R$  000000000051500000000005230000000000515000000000052000000000005200000000000518000000000052800006000000000000000192000000000000099852000000000000009999123100000010000000000000BRBPNMACNPR6111
012013091062BPNM4T      030PANAMERICANOPN      N1090R$  000000000053500000000005360000000000535000000000053500000000005360000000000000000000000000000002000000000000010000000000000005354756000000000000009999123100000010000000000000BRBPNMACNPR6111
012013091002BRAP3       010BRADESPAR   ON      N1   R$  000000000210000000000021660000000002100000000000213600000000021300000000002063000000000213000154000000000000049400000000000105551700000000000000009999123100000010000000000000BRBRAPACNOR5124
012013091096BRAP3F      020BRADESPAR   ON      N1   R$  000000000212000000000022130000000002120000000000212100000000022130000000002075000000000221000002000000000000000051000000000000108213000000000000009999123100000010000000000000BRBRAPACNOR5124
012013091062BRAP3T      030BRADESPAR   ON      N1030R$  000000000215900000000021600000000002159000000000215900000000021600000000000000000000000000000002000000000000013300000000000028720870000000000000009999123100000010000000000000BRBRAPACNOR5124
012013091062BRAP3T      030BRADESPAR   ON      N1062R$  000000000218600000000021870000000002186000000000218600000000021870000000000000000000000000000002000000000000000500000000000001093072000000000000009999123100000010000000000000BRBRAPACNOR5124
012013091002BRAP4       010BRADESPAR   PN      N1   R$  000000000259200000000026400000000002592000000000261700000000026270000000002627000000000262809019000000000002486900000000006509537800000000000000009999123100000010000000000000BRBRAPACNPR2124
012013091096BRAP4F      020BRADESPAR   PN      N1   R$  000000000259800000000026340000000002598000000000261600000000026340000000002604000000000261800036000000000000000884000000000002313105000000000000009999123100000010000000000000BRBRAPACNPR2124
012013091082BRAPU26     080BRAPE       PN      N1000R$  000000000004200000000000420000000000042000000000004200000000000420000000000000000000000000000001000000000000000500000000000000021000000000000260002013091600000010000000000000BRBRAPACNPR2124
012013091014BRAX11      010ISHARES BRAXCI           R$  000000000424000000000042730000000004240000000000426700000000042730000000004100000000000000000002000000000000000640000000000002731420000000000000009999123100000010000000000000BRBRAXCTF002100
012013091012BRCR11      010FII BC FUND CI  ER       R$  000000001260000000000126130000000012500000000001256100000000125500000000012550000000001259001410000000000000024735000000000310720348000000000000009999123100000010000000000000BRBRCRCTF000133
012013091002BRFS3       010BRF SA      ON      NM   R$  000000000584600000000059320000000005764000000000583300000000058150000000005799000000000581509461000000000002792100000000016287188700000000000000009999123100000010000000000000BRBRFSACNOR8110
012013091096BRFS3F      020BRF SA      ON      NM   R$  000000000584000000000059100000000005758000000000584300000000058120000000005761000000000581300134000000000000004491000000000026241874000000000000009999123100000010000000000000BRBRFSACNOR8110
012013091062BRFS3T      030BRF SA      ON      NM030R$  000000000583900000000058400000000005839000000000583900000000058400000000000000000000000000000002000000000000000100000000000000583917000000000000009999123100000010000000000000BRBRFSACNOR8110
012013091078BRFSI47     070BRFS        ON      NM000R$  000000000109000000000010900000000001090000000000109000000000010900000000000000000000000000000001000000000000435000000000000474150000000000000470002013091600000010000000000000BRBRFSACNOR8110
012013091078BRFSK53     070BRFS        ON      NM000R$  000000000061000000000006100000000000610000000000061000000000006100000000000000000000000000000001000000000000435000000000000265350000000000000530002013111800000010000000000000BRBRFSACNOR8110
012013091078BRFSK60     070BRFS        ON      NM000R$  000000000016000000000001600000000000160000000000016000000000001600000000000000000000000000000002000000000000000600000000000000096000000000000600002013111800000010000000000000BRBRFSACNOR8110
012013091002BRIN3       010BR INSURANCEON      NM   R$  000000000191000000000019100000000001870000000000188400000000019000000000001895000000000190000987000000000000453500000000000854752500000000000000009999123100000010000000000000BRBRINACNOR3106
012013091096BRIN3F      020BR INSURANCEON      NM   R$  000000000189800000000018990000000001871000000000187800000000018750000000001871000000000189900022000000000000000765000000000001437352000000000000009999123100000010000000000000BRBRINACNOR3106
012013091062BRIN3T      030BR INSURANCEON      NM360R$  000000000207500000000020760000000002075000000000207500000000020760000000000000000000000000000002000000000000000700000000000001452633000000000000009999123100000010000000000000BRBRINACNOR3106
012013091002BRKM3       010BRASKEM     ON      N1   R$  000000000126500000000012670000000001265000000000126600000000012650000000001250000000000126500007000000000000006500000000000008232300000000000000009999123100000010000000000000BRBRKMACNOR1110
012013091002BRKM5       010BRASKEM     PNA     N1   R$  000000000184800000000018740000000001834000000000185500000000018550000000001843000000000185507950000000000002321400000000004307116900000000000000009999123100000010000000000000BRBRKMACNPA4110
012013091096BRKM5F      020BRASKEM     PNA     N1   R$  000000000186000000000018790000000001834000000000185600000000018530000000001833000000000185300057000000000000001203000000000002233143000000000000009999123100000010000000000000BRBRKMACNPA4110
012013091078BRKMK50     070BRKM        PNA     N1000R$  000000000003200000000000330000000000026000000000003100000000000330000000000000000000000000000005000000000000600000000000000018725000000000000205002013111800000010000000000000BRBRKMACNPA4110
012013091002BRML3       010BR MALLS PARON      NM   R$  000000000198300000000020000000000001940000000000197500000000019870000000001960000000000198709965000000000003037000000000006000010900000000000000009999123100000010000000000000BRBRMLACNOR9105
012013091096BRML3F      020BR MALLS PARON      NM   R$  000000000199000000000019980000000001949000000000197300000000019640000000001964000000000196800078000000000000002514000000000004961701000000000000009999123100000010000000000000BRBRMLACNOR9105
012013091062BRML3T      030BR MALLS PARON      NM030R$  000000000200800000000020090000000001974000000000199100000000019750000000000000000000000000000004000000000000001000000000000001991234000000000000009999123100000010000000000000BRBRMLACNOR9105
012013091002BRPR3       010BR PROPERT  ON      NM   R$  000000000188000000000019400000000001880000000000191200000000018880000000001887000000000188809190000000000005419600000000010366319000000000000000009999123100000010000000000000BRBRPRACNOR9112
012013091096BRPR3F      020BR PROPERT  ON      NM   R$  000000000188900000000019350000000001860000000000190100000000018600000000001820000000000187000029000000000000000792000000000001506177000000000000009999123100000010000000000000BRBRPRACNOR9112
012013091062BRPR3T      030BR PROPERT  ON      NM030R$  000000000192600000000019270000000001926000000000192600000000019270000000000000000000000000000002000000000000003000000000000005780321000000000000009999123100000010000000000000BRBRPRACNOR9112
012013091002BRSR6       010BANRISUL    PNB EJ  N1   R$  000000000151400000000015550000000001492000000000151500000000015000000000001497000000000150003165000000000001139600000000001727231500000000000000009999123100000010000000000000BRBRSRACNPB4134
012013091096BRSR6F      020BANRISUL    PNB EJ  N1   R$  000000000151000000000015510000000001471000000000151800000000014710000000001471000000000154500020000000000000000253000000000000383649000000000000009999123100000010000000000000BRBRSRACNPB4134
012013091002BSEV3       010BIOSEV      ON      NM   R$  000000000093500000000009400000000000935000000000093700000000009400000000000940000000000095000006000000000000004800000000000004499600000000000000009999123100000010000000000000BRBSEVACNOR3100
012013091082BSEVS99     080BSEVE       ON      NM000R$  000000000059100000000005910000000000591000000000059100000000005910000000000501000000000000000002000000000000001600000000000000945600000000000165702014072100000010000000000000BRBSEVACNOR3100
012013091002BTOW3       010B2W DIGITAL ON      NM   R$  000000000159800000000016300000000001575000000000160100000000015750000000001575000000000157601646000000000000478300000000000765880100000000000000009999123100000010000000000000BRBTOWACNOR8105
012013091096BTOW3F      020B2W DIGITAL ON      NM   R$  000000000156700000000016250000000001505000000000158800000000015940000000001504000000000159400030000000000000000750000000000001191478000000000000009999123100000010000000000000BRBTOWACNOR8105
012013091002BTTL4       010BATTISTELLA PN           R$  000000000009900000000001000000000000099000000000009900000000001000000000000100000000000010400002000000000000004800000000000000478000000000000000009999123100000010000000000000BRBTTLACNPR7105
012013091002BVMF3       010BMFBOVESPA  ON      NM   R$  000000000127400000000012790000000001257000000000126500000000012570000000001257000000000125827788000000000010366400000000013123193400000000000000009999123100000010000000000000BRBVMFACNOR3126
012013091096BVMF3F      020BMFBOVESPA  ON      NM   R$  000000000127000000000012760000000001256000000000126800000000012700000000001255000000000127000084000000000000002695000000000003417386000000000000009999123100000010000000000000BRBVMFACNOR3126
012013091062BVMF3T      030BMFBOVESPA  ON      NM030R$  000000000127900000000012810000000001276000000000127600000000012770000000000000000000000000000008000000000000051600000000000065853914000000000000009999123100000010000000000000BRBVMFACNOR3126
012013091078BVMFA12     070BVMF        ON      NM000R$  000000000014400000000001440000000000144000000000014400000000001440000000000000000000000000000001000000000000000800000000000000115200000000000120002014012000000010000000000000BRBVMFACNOR3126
012013091078BVMFB15     070BVMF        ON      NM000R$  000000000003700000000000370000000000037000000000003700000000000370000000000000000000000000000001000000000000150000000000000005550000000000000148502014021700000010000000000000BRBVMFACNOR3125
012013091078BVMFI11     070BVMF        ON      NM000R$  000000000018700000000001890000000000179000000000018600000000001790000000000000000000000019800004000000000000003800000000000000710000000000000108502013091600000010000000000000BRBVMFACNOR3125
012013091078BVMFI12     070BVMF        ON      NM000R$  000000000009100000000000940000000000080000000000008700000000000800000000000068000000000000000070000000000000071500000000000006265700000000000118502013091600000010000000000000BRBVMFACNOR3125
012013091078BVMFI13     070BVMF        ON      NM000R$  000000000001400000000000170000000000010000000000001500000000000100000000000009000000000001000117000000000000486500000000000007394600000000000128502013091600000010000000000000BRBVMFACNOR3125
012013091078BVMFI14     070BVMF        ON      NM000R$  000000000000100000000000010000000000001000000000000100000000000010000000000000000000000000100014000000000000121000000000000000121000000000000138502013091600000010000000000000BRBVMFACNOR3125
012013091078BVMFI35     070BVMFE       ON      NM000R$  000000000000800000000000080000000000005000000000000600000000000050000000000000000000000000000002000000000000002000000000000000013000000000000131002013091600000010000000000000BRBVMFACNOR3125
012013091078BVMFI42     070BVMF        ON      NM000R$  000000000004500000000000450000000000038000000000004300000000000380000000000005000000000006000011000000000000045200000000000001965600000000000123502013091600000010000000000000BRBVMFACNOR3125
012013091078BVMFI43     070BVMF        ON      NM000R$  000000000000200000000000020000000000002000000000000200000000000020000000000001000000000000300001000000000000005000000000000000010000000000000133502013091600000010000000000000BRBVMFACNOR3125
012013091078BVMFJ11     070BVMF        ON      NM000R$  000000000019300000000001960000000000193000000000019300000000001960000000000181000000000020100002000000000000002600000000000000503600000000000108502013102100000010000000000000BRBVMFACNOR3125
012013091078BVMFJ12     070BVMF  FM    ON      NM000R$  000000000011000000000001160000000000103000000000010800000000001090000000000101000000000010900089000000000000071400000000000007763800000000000118502013102100000010000000000000BRBVMFACNOR3125
012013091078BVMFJ13     070BVMF  FM    ON      NM000R$  000000000004300000000000490000000000040000000000004400000000000400000000000040000000000004400079000000000000181300000000000008151400000000000128502013102100000010000000000000BRBVMFACNOR3125
012013091078BVMFJ14     070BVMF  FM    ON      NM000R$  000000000001000000000000110000000000010000000000001000000000000100000000000007000000000001200023000000000000138200000000000001399500000000000138502013102100000010000000000000BRBVMFACNOR3125
012013091078BVMFJ15     070BVMF        ON      NM000R$  000000000000100000000000020000000000001000000000000100000000000020000000000000000000000000000003000000000000020000000000000000022100000000000148502013102100000010000000000000BRBVMFACNOR3125
012013091078BVMFJ42     070BVMF  FM    ON      NM000R$  000000000007700000000000770000000000068000000000007400000000000680000000000000000000000123500015000000000000039400000000000002922400000000000123502013102100000010000000000000BRBVMFACNOR3125
012013091078BVMFJ43     070BVMF  FM    ON      NM000R$  000000000002600000000000260000000000022000000000002400000000000240000000000000000000000000000028000000000000087300000000000002182200000000000133502013102100000010000000000000BRBVMFACNOR3125
012013091078BVMFK12     070BVMF        ON      NM000R$  000000000013100000000001310000000000123000000000012300000000001230000000000000000000000000000003000000000000007800000000000000965800000000000118502013111800000010000000000000BRBVMFACNOR3125
012013091078BVMFK13     070BVMF  FM    ON      NM000R$  000000000006300000000000650000000000059000000000006100000000000600000000000000000000000000000009000000000000025100000000000001550300000000000128502013111800000010000000000000BRBVMFACNOR3125
012013091078BVMFK14     070BVMF  FM    ON      NM000R$  000000000002000000000000210000000000018000000000001900000000000190000000000005000000000001900103000000000000327900000000000006443300000000000138502013111800000010000000000000BRBVMFACNOR3125
012013091078BVMFK42     070BVMF  FM    ON      NM000R$  000000000008100000000000810000000000077000000000007900000000000790000000000000000000000000000009000000000000028000000000000002221800000000000125002013111800000010000000000000BRBVMFACNOR3126
012013091078BVMFK43     070BVMF  FM    ON      NM000R$  000000000003200000000000340000000000029000000000003100000000000310000000000000000000000000000014000000000000039200000000000001228500000000000135002013111800000010000000000000BRBVMFACNOR3126
012013091078BVMFL13     070BVMF        ON      NM000R$  000000000007500000000000770000000000075000000000007600000000000770000000000000000000000008000003000000000000007100000000000000546500000000000128502013121600000010000000000000BRBVMFACNOR3125
012013091078BVMFL15     070BVMF        ON      NM000R$  000000000001500000000000150000000000013000000000001400000000000130000000000000000000000000000003000000000000009000000000000000129000000000000148502013121600000010000000000000BRBVMFACNOR3125
012013091082BVMFN13     080BVMFE       ON      NM000R$  000000000008700000000000870000000000087000000000008700000000000870000000000000000000000000000001000000000000150000000000000013050000000000000128502014021700000010000000000000BRBVMFACNOR3125
012013091082BVMFN41     080BVMFE       ON      NM000R$  000000000003400000000000340000000000034000000000003400000000000340000000000000000000000000000001000000000000150000000000000005100000000000000113502014021700000010000000000000BRBVMFACNOR3125
012013091082BVMFU11     080BVMFE       ON      NM000R$  000000000000100000000000010000000000001000000000000100000000000010000000000000000000000000100001000000000000004600000000000000004600000000000108502013091600000010000000000000BRBVMFACNOR3125
012013091082BVMFU12     080BVMFE       ON      NM000R$  000000000000400000000000050000000000003000000000000400000000000040000000000003000000000000500036000000000000051600000000000000228000000000000118502013091600000010000000000000BRBVMFACNOR3125
012013091082BVMFU13     080BVMFE       ON      NM000R$  000000000002600000000000320000000000026000000000002800000000000320000000000024000000000007000004000000000000010800000000000000310800000000000128502013091600000010000000000000BRBVMFACNOR3125
012013091082BVMFU41     080BVMFE       ON      NM000R$  000000000000100000000000010000000000001000000000000100000000000010000000000000000000000000000002000000000000004000000000000000004000000000000113502013091600000010000000000000BRBVMFACNOR3125
012013091082BVMFU42     080BVMFE       ON      NM000R$  000000000001000000000000100000000000008000000000000800000000000090000000000007000000000001600014000000000000102200000000000000906400000000000123502013091600000010000000000000BRBVMFACNOR3125
012013091082BVMFV11     080BVMFE       ON      NM000R$  000000000000500000000000050000000000005000000000000500000000000050000000000005000000000000000001000000000000001800000000000000009000000000000108502013102100000010000000000000BRBVMFACNOR3125
012013091082BVMFV12     080BVMFE FM    ON      NM000R$  000000000002000000000000250000000000018000000000001800000000000250000000000016000000000002500041000000000000130100000000000002396500000000000118502013102100000010000000000000BRBVMFACNOR3125
012013091082BVMFV13     080BVMFE FM    ON      NM000R$  000000000005000000000000540000000000050000000000005100000000000510000000000049000000000007200009000000000000021400000000000001111500000000000128502013102100000010000000000000BRBVMFACNOR3125
012013091082BVMFV41     080BVMFE FM    ON      NM000R$  000000000001000000000000110000000000010000000000001000000000000110000000000000000000000000000006000000000000018500000000000000193000000000000113502013102100000010000000000000BRBVMFACNOR3125
012013091082BVMFV42     080BVMFE FM    ON      NM000R$  000000000003500000000000350000000000030000000000003200000000000320000000000025000000000000000047000000000000167700000000000005401500000000000123502013102100000010000000000000BRBVMFACNOR3125
012013091082BVMFV43     080BVMFE       ON      NM000R$  000000000008100000000000850000000000080000000000008100000000000850000000000000000000000000000003000000000000007000000000000000573500000000000133502013102100000010000000000000BRBVMFACNOR3125
012013091082BVMFW11     080BVMFE       ON      NM000R$  000000000001300000000000130000000000013000000000001300000000000130000000000000000000000000000001000000000000001800000000000000023400000000000108502013111800000010000000000000BRBVMFACNOR3125
012013091082BVMFW12     080BVMFE FM    ON      NM000R$  000000000003100000000000310000000000029000000000003000000000000290000000000025000000000000000013000000000000047000000000000001426500000000000118502013111800000010000000000000BRBVMFACNOR3125
012013091082BVMFW13     080BVMFE FM    ON      NM000R$  000000000006000000000000670000000000060000000000006300000000000670000000000000000000000000000005000000000000015500000000000000988100000000000128502013111800000010000000000000BRBVMFACNOR3125
012013091082BVMFW41     080BVMFE       ON      NM000R$  000000000002200000000000220000000000022000000000002200000000000220000000000000000000000000000004000000000000005400000000000000118800000000000115002013111800000010000000000000BRBVMFACNOR3126
012013091082BVMFW42     080BVMFE FM    ON      NM000R$  000000000004700000000000490000000000047000000000004700000000000490000000000000000000000000000003000000000000007100000000000000339100000000000125002013111800000010000000000000BRBVMFACNOR3126
012013091002CAMB4       010CAMBUCI     PN           R$  000000000018600000000001900000000000185000000000018600000000001850000000000185000000000018900010000000000000006100000000000001137400000000000000009999123100000010000000000000BRCAMBACNPR1117
012013091096CAMB4F      020CAMBUCI     PN           R$  000000000016700000000001670000000000167000000000016700000000001670000000000100000000000025000001000000000000000001000000000000000167000000000000009999123100000010000000000000BRCAMBACNPR1117
012013091002CARD3       010CSU CARDSYSTON      NM   R$  000000000031700000000003190000000000312000000000031500000000003180000000000312000000000032100029000000000000028200000000000008908800000000000000009999123100000010000000000000BRCARDACNOR9105
012013091096CARD3F      020CSU CARDSYSTON      NM   R$  000000000031300000000003130000000000313000000000031300000000003130000000000301000000000032400002000000000000000022000000000000006886000000000000009999123100000010000000000000BRCARDACNOR9105
012013091002CBEE3       010AMPLA ENERG ON *         R$  000000000013400000000001340000000000133000000000013300000000001330000000000120000000000013400005000000000001600000000000000000213200000000000000009999123100010000000000000000BRCBEEACNOR3149
012013091002CBMA3       010COBRASMA    ON           R$  000000000000500000000000050000000000005000000000000500000000000050000000000004000000000000600001000000000000010000000000000000050000000000000000009999123100000010000000000000BRCBMAACNOR4124
012013091096CBMA3F      020COBRASMA    ON           R$  000000000000600000000000060000000000006000000000000600000000000060000000000004000000000000500001000000000000000001000000000000000006000000000000009999123100000010000000000000BRCBMAACNOR4124
012013091002CBMA4       010COBRASMA    PN           R$  000000000000400000000000040000000000004000000000000400000000000040000000000004000000000000500004000000000000080000000000000000320000000000000000009999123100000010000000000000BRCBMAACNPR1124
012013091096CBMA4F      020COBRASMA    PN           R$  000000000000400000000000050000000000004000000000000400000000000040000000000003000000000000400004000000000000003401000000000000013605000000000000009999123100000010000000000000BRCBMAACNPR1124
012013091008CCHI3       010CHIARELLI   ON           R$  000000000001900000000000190000000000017000000000001700000000000180000000000016000000000001800047000000000000600000000000000010660000000000000000009999123100000010000000000000BRCCHIACNOR5123
012013091008CCHI4       010CHIARELLI   PN           R$  000000000001700000000000170000000000016000000000001600000000000160000000000015000000000001700002000000000000020000000000000000330000000000000000009999123100000010000000000000BRCCHIACNPR2122
012013091002CCPR3       010CYRE COM-CCPON      NM   R$  000000000218900000000021890000000002156000000000218200000000021560000000002122000000000218500003000000000000000500000000000001091200000000000000009999123100000010000000000000BRCCPRACNOR9107
012013091002CCRO3       010CCR SA      ON      NM   R$  000000000179000000000018060000000001782000000000179500000000018040000000001790000000000180414324000000000005506800000000009889083400000000000000009999123100000010000000000000BRCCROACNOR2122
012013091096CCRO3F      020CCR SA      ON      NM   R$  000000000181000000000018100000000001761000000000179300000000017860000000001790000000000180000091000000000000002449000000000004392741000000000000009999123100000010000000000000BRCCROACNOR2122
012013091062CCRO3T      030CCR SA      ON      NM030R$  000000000181000000000018110000000001810000000000181000000000018110000000000000000000000000000002000000000000005000000000000009053286000000000000009999123100000010000000000000BRCCROACNOR2122
012013091062CCRO3T      030CCR SA      ON      NM062R$  000000000182200000000018230000000001822000000000182200000000018230000000000000000000000000000002000000000000006200000000000011299608000000000000009999123100000010000000000000BRCCROACNOR2122
012013091078CCROK19     070CCRO        ON      NM000R$  000000000002400000000000240000000000024000000000002400000000000240000000000000000000000000000002000000000000002000000000000000048000000000000190002013111800000010000000000000BRCCROACNOR2122
012013091002CCXC3       010CCX CARVAO  ON      NM   R$  000000000013900000000001490000000000133000000000014000000000001470000000000146000000000014700853000000000004700700000000000658490300000000000000009999123100000010000000000000BRCCXCACNOR5100
012013091096CCXC3F      020CCX CARVAO  ON      NM   R$  000000000013500000000001450000000000135000000000013500000000001450000000000130000000000014500006000000000000000205000000000000027765000000000000009999123100000010000000000000BRCCXCACNOR5100
012013091002CEEB3       010COELBA      ON           R$  000000000335000000000033500000000003350000000000335000000000033500000000003000000000000335000003000000000000000700000000000002345000000000000000009999123100000010000000000000BRCEEBACNOR3163
012013091012CEOC11B     010FII CEO CCP CI  ER  MB   R$  000000000849000000000085000000000008430000000000846800000000084300000000008430000000000846000025000000000000001098000000000009298140000000000000009999123100000010000000000000BRCEOCCTF003110
012013091002CEPE5       010CELPE       PNA          R$  000000000200000000000020000000000002000000000000200000000000020000000000001900000000000200000002000000000000000400000000000000800000000000000000009999123100000010000000000000BRCEPEACNPA6151
012013091002CESP3       010CESP        ON      N1   R$  000000000175000000000017500000000001748000000000174800000000017480000000001716000000000174800002000000000000000800000000000001399000000000000000009999123100000010000000000000BRCESPACNOR3160
012013091096CESP5F      020CESP        PNA     N1   R$  000000000230000000000023000000000002300000000000230000000000023000000000002101000000000239000001000000000000000004000000000000009200000000000000009999123100000010000000000000BRCESPACNPA6108
012013091002CESP6       010CESP        PNB     N1   R$  000000000230700000000023580000000002276000000000231800000000023110000000002297000000000231203683000000000000760800000000001763971200000000000000009999123100000010000000000000BRCESPACNPB4119
012013091096CESP6F      020CESP        PNB     N1   R$  000000000232500000000023600000000002280000000000231900000000022800000000002269000000000237900027000000000000000590000000000001368668000000000000009999123100000010000000000000BRCESPACNPB4119
012013091002CGAS3       010COMGAS      ON           R$  000000000546000000000054600000000005251000000000530700000000052850000000005285000000000546100023000000000000009400000000000049890400000000000000009999123100000010000000000000BRCGASACNOR0132
012013091002CGAS5       010COMGAS      PNA          R$  000000000580000000000058500000000005800000000000583700000000058400000000005831000000000584800072000000000000018100000000000105666400000000000000009999123100000010000000000000BRCGASACNPA3129
012013091096CGAS5F      020COMGAS      PNA          R$  000000000575000000000057800000000005750000000000577900000000057800000000005800000000000589900003000000000000000053000000000000306310000000000000009999123100000010000000000000BRCGASACNPA3129
012013091002CGRA3       010GRAZZIOTIN  ON           R$  000000000160700000000016070000000001607000000000160700000000016070000000001585000000000160700002000000000000000300000000000000482100000000000000009999123100000010000000000000BRCGRAACNOR2061
012013091002CGRA4       010GRAZZIOTIN  PN           R$  000000000176600000000017660000000001750000000000175700000000017650000000001745000000000176500013000000000000002400000000000004217300000000000000009999123100000010000000000000BRCGRAACNPR9061
012013091096CGRA4F      020GRAZZIOTIN  PN           R$  000000000175000000000017590000000001750000000000175400000000017590000000001751000000000175400002000000000000000058000000000000101761000000000000009999123100000010000000000000BRCGRAACNPR9061
012013091002CHVX34      010CHEVRON     DRN          R$  000000002794100000000279410000000027912000000002791500000000279120000000027772000000002889400002000000000000000900000000000025123700000000000000009999123100000010000000000000BRCHVXBDR008109
012013091002CIEL3       010CIELO       ON      NM   R$  000000000576200000000058000000000005701000000000574900000000057300000000005730000000000573308220000000000001983100000000011401744000000000000000009999123100000010000000000000BRCIELACNOR3111
012013091096CIEL3F      020CIELO       ON      NM   R$  000000000578000000000057990000000005711000000000575700000000057130000000005713000000000573500212000000000000005817000000000033493221000000000000009999123100000010000000000000BRCIELACNOR3111
012013091062CIEL3T      030CIELO       ON      NM030R$  000000000579100000000057920000000005791000000000579100000000057920000000000000000000000000000002000000000000000100000000000000579183000000000000009999123100000010000000000000BRCIELACNOR3111
012013091002CLSC4       010CELESC      PN      N2   R$  000000000176900000000017800000000001755000000000176300000000017800000000001760000000000178000046000000000000010200000000000017989300000000000000009999123100000010000000000000BRCLSCACNPR3107
012013091002CMCS34      010COMCAST     DRN          R$  000000000973700000000097440000000009737000000000974300000000097440000000009699000000000985900003000000000000003200000000000031179100000000000000009999123100000010000000000000BRCMCSBDR008106
012013091058CMGR3       010CEMAT       ON           R$  000000000048800000000005200000000000488000000000049900000000005000000000000450000000000057900007000000000000001800000000000000898700000000000000009999123100000010000000000000BRCMGRACNOR7114
012013091058CMGR4       010CEMAT       PN           R$  000000000050100000000005010000000000501000000000050100000000005010000000000500000000000060000002000000000000001000000000000000501000000000000000009999123100000010000000000000BRCMGRACNPR4114
012013091096CMGR4F      020CEMAT       PN           R$  000000000045100000000004510000000000451000000000045100000000004510000000000400000000000000000001000000000000000046000000000000020746000000000000009999123100000010000000000000BRCMGRACNPR4114
012013091002CMIG3       010CEMIG       ON      N1   R$  000000000190000000000019240000000001899000000000191300000000018990000000001896000000000189900592000000000000174100000000000333095800000000000000009999123100000010000000000000BRCMIGACNOR6208
012013091096CMIG3F      020CEMIG       ON      N1   R$  000000000197300000000019730000000001905000000000192200000000019050000000001905000000000197100030000000000000000756000000000001453128000000000000009999123100000010000000000000BRCMIGACNOR6208
012013091002CMIG4       010CEMIG       PN      N1   R$  000000000193500000000019490000000001896000000000192600000000019120000000001912000000000191411657000000000004191100000000008072840600000000000000009999123100000010000000000000BRCMIGACNPR3208
012013091096CMIG4F      020CEMIG       PN      N1   R$  000000000193200000000019480000000001895000000000192800000000019110000000001911000000000192600217000000000000005971000000000011513572000000000000009999123100000010000000000000BRCMIGACNPR3208
012013091062CMIG4T      030CEMIG       PN      N1030R$  000000000194300000000019620000000001931000000000195000000000019340000000000000000000000000000022000000000000049000000000000095560985000000000000009999123100000010000000000000BRCMIGACNPR3208
012013091062CMIG4T      030CEMIG       PN      N1062R$  000000000195700000000019580000000001939000000000194200000000019400000000000000000000000000000008000000000000013300000000000025836873000000000000009999123100000010000000000000BRCMIGACNPR3208
012013091062CMIG4T      030CEMIG       PN      N1120R$  000000000198200000000019830000000001982000000000198200000000019830000000000000000000000000000002000000000000001000000000000001982240000000000000009999123100000010000000000000BRCMIGACNPR3208
012013091062CMIG4T      030CEMIG       PN      N1360R$  000000000211200000000021130000000002112000000000211200000000021130000000000000000000000000000002000000000000000500000000000001056380000000000000009999123100000010000000000000BRCMIGACNPR3208
012013091078CMIGI20     070CMIG        PN      N1000R$  000000000002500000000000250000000000025000000000002500000000000250000000000000000000000001500002000000000000002000000000000000050000000000000200002013091600000010000000000000BRCMIGACNPR3208
012013091078CMIGJ20     070CMIG        PN      N1000R$  000000000005100000000000510000000000051000000000005100000000000510000000000000000000000005000003000000000000010500000000000000535500000000000200002013102100000010000000000000BRCMIGACNPR3208
012013091078CMIGJ21     070CMIG        PN      N1000R$  000000000001500000000000150000000000015000000000001500000000000150000000000000000000000009900003000000000000021000000000000000315000000000000210002013102100000010000000000000BRCMIGACNPR3208
012013091078CMIGJ22     070CMIG        PN      N1000R$  000000000001400000000000140000000000014000000000001400000000000140000000000011000000000005500004000000000000011000000000000000154000000000000220002013102100000010000000000000BRCMIGACNPR3208
012013091012CNES11B     010FII CENESP  CI      MB   R$  000000001225700000000122570000000012100000000001220100000000121000000000012100000000001219900018000000000000000486000000000005929993000000000000009999123100000010000000000000BRCNESCTF001125
012013091002COCA34      010COCA COLA   DRN          R$  000000000877700000000088000000000008777000000000879400000000088000000000008728000000000908100003000000000000000800000000000007035400000000000000009999123100000010000000000000BRCOCABDR002108
012013091002COCE3       010COELCE      ON           R$  000000000424600000000042880000000004199000000000421200000000041990000000003850000000000419900019000000000000004500000000000018958200000000000000009999123100000010000000000000BRCOCEACNOR0132
012013091002COCE5       010COELCE      PNA          R$  000000000411900000000041430000000004043000000000409000000000040700000000004055000000000407000149000000000000046300000000000189384800000000000000009999123100000010000000000000BRCOCEACNPA3133
012013091096COCE5F      020COELCE      PNA          R$  000000000410000000000041010000000004080000000000409800000000041010000000004101000000000423800008000000000000000139000000000000569654000000000000009999123100000010000000000000BRCOCEACNPA3133
012013091002CPFE3       010CPFL ENERGIAON      NM   R$  000000000201900000000020190000000001968000000000198600000000019790000000001978000000000197904146000000000000893800000000001775359800000000000000009999123100000010000000000000BRCPFEACNOR0122
012013091096CPFE3F      020CPFL ENERGIAON      NM   R$  000000000200000000000020190000000001947000000000198600000000019470000000001947000000000200700044000000000000000937000000000001861082000000000000009999123100000010000000000000BRCPFEACNOR0122
012013091062CPFE3T      030CPFL ENERGIAON      NM030R$  000000000202000000000020210000000002001000000000201100000000020020000000000000000000000000000012000000000000002000000000000004022250000000000000009999123100000010000000000000BRCPFEACNOR0122
012013091062CPFE3T      030CPFL ENERGIAON      NM062R$  000000000202200000000020230000000002022000000000202200000000020230000000000000000000000000000002000000000000001000000000000002022315000000000000009999123100000010000000000000BRCPFEACNOR0122
012013091002CPLE3       010COPEL       ON      N1   R$  000000000223000000000022300000000002192000000000220000000000022000000000002170000000000223000077000000000000037900000000000083414700000000000000009999123100000010000000000000BRCPLEACNOR8128
012013091096CPLE3F      020COPEL       ON      N1   R$  000000000222200000000022220000000002210000000000221900000000022100000000002210000000000224000005000000000000000152000000000000337360000000000000009999123100000010000000000000BRCPLEACNOR8128
012013091096CPLE5F      020COPEL       PNA     N1   R$  000000000300000000000031000000000003000000000000303300000000031000000000003000000000000349900005000000000000000024000000000000072800000000000000009999123100000010000000000000BRCPLEACNPA1126
012013091002CPLE6       010COPEL       PNB     N1   R$  000000000314500000000031490000000003098000000000312400000000031300000000003106000000000313003812000000000000899600000000002810675600000000000000009999123100000010000000000000BRCPLEACNPB9125
012013091096CPLE6F      020COPEL       PNB     N1   R$  000000000313000000000031410000000003090000000000312000000000030900000000002946000000000319000021000000000000000578000000000001802387000000000000009999123100000010000000000000BRCPLEACNPB9125
012013091002CPRE3       010CPFL RENOVAVON      NM   R$  000000000119800000000011980000000001190000000000119600000000011970000000001175000000000119700012000000000000007800000000000009330000000000000000009999123100000010000000000000BRCPREACNOR5100
012013091062CPRE3T      030CPFL RENOVAVON      NM030R$  000000000120600000000012070000000001206000000000120600000000012070000000000000000000000000000002000000000000001600000000000001930522000000000000009999123100000010000000000000BRCPREACNOR5100
012013091002CRDE3       010CR2         ON      NM   R$  000000000040600000000004250000000000406000000000042000000000004200000000000412000000000042200005000000000000008100000000000003410000000000000000009999123100000010000000000000BRCRDEACNOR1108
012013091002CREM3       010CREMER      ON      NM   R$  000000000145200000000014590000000001424000000000144100000000014490000000001424000000000145000051000000000000061100000000000088053700000000000000009999123100000010000000000000BRCREMACNOR2167
012013091096CREM3F      020CREMER      ON      NM   R$  000000000141000000000014430000000001410000000000141200000000014400000000001439000000000146300006000000000000000075000000000000105908000000000000009999123100000010000000000000BRCREMACNOR2167
012013091002CRIV3       010ALFA FINANC ON           R$  000000000050600000000005060000000000506000000000050600000000005060000000000486000000000050700001000000000000000100000000000000050600000000000000009999123100000010000000000000BRCRIVACNOR4190
012013091002CRIV4       010ALFA FINANC PN           R$  000000000047700000000004770000000000477000000000047700000000004770000000000449000000000047500001000000000000000300000000000000143100000000000000009999123100000010000000000000BRCRIVACNPR1190
012013091002CRUZ3       010SOUZA CRUZ  ON           R$  000000000263700000000026640000000002617000000000264200000000026550000000002652000000000265508725000000000003001200000000007932132700000000000000009999123100000010000000000000BRCRUZACNOR0246
012013091096CRUZ3F      020SOUZA CRUZ  ON           R$  000000000261700000000026600000000002601000000000264100000000026600000000002631000000000266000063000000000000001878000000000004961830000000000000009999123100000010000000000000BRCRUZACNOR0246
012013091062CRUZ3T      030SOUZA CRUZ  ON        030R$  000000000267400000000026750000000002674000000000267400000000026750000000000000000000000000000004000000000000003200000000000008558021000000000000009999123100000010000000000000BRCRUZACNOR0246
012013091062CRUZ3T      030SOUZA CRUZ  ON        062R$  000000000267100000000026720000000002671000000000267100000000026720000000000000000000000000000002000000000000003400000000000009084561000000000000009999123100000010000000000000BRCRUZACNOR0246
012013091062CRUZ3T      030SOUZA CRUZ  ON        090R$  000000000268700000000026880000000002687000000000268700000000026880000000000000000000000000000002000000000000000500000000000001343504000000000000009999123100000010000000000000BRCRUZACNOR0246
012013091002CSAN3       010COSAN       ON      NM   R$  000000000429800000000043400000000004246000000000430100000000043160000000004308000000000431605764000000000001248000000000005368750400000000000000009999123100000010000000000000BRCSANACNOR6108
012013091096CSAN3F      020COSAN       ON      NM   R$  000000000430000000000043350000000004189000000000429900000000043000000000004265000000000433600057000000000000001539000000000006617419000000000000009999123100000010000000000000BRCSANACNOR6108
012013091062CSAN3T      030COSAN       ON      NM062R$  000000000435900000000043600000000004359000000000435900000000043600000000000000000000000000000002000000000000000500000000000002179516000000000000009999123100000010000000000000BRCSANACNOR6108
012013091078CSANJ43     070CSAN        ON      NM000R$  000000000017000000000001700000000000170000000000017000000000001700000000000000000000000000000001000000000000002400000000000000408000000000000430002013102100000010000000000000BRCSANACNOR6108
012013091002CSCO34      010CISCO       DRN          R$  000000000551300000000055150000000005501000000000551300000000055150000000005466000000000556300003000000000000001100000000000006064500000000000000009999123100000010000000000000BRCSCOBDR004110
012013091002CSMG3       010COPASA      ON      NM   R$  000000000318600000000031860000000003053000000000311500000000031000000000003093000000000310301241000000000000236500000000000736721700000000000000009999123100000010000000000000BRCSMGACNOR5127
012013091096CSMG3F      020COPASA      ON      NM   R$  000000000316900000000032260000000003100000000000312700000000031060000000003085000000000309000020000000000000000574000000000001794521000000000000009999123100000010000000000000BRCSMGACNOR5127
012013091062CSMG3T      030COPASA      ON      NM062R$  000000000318000000000031810000000003180000000000318000000000031810000000000000000000000000000002000000000000000100000000000000318047000000000000009999123100000010000000000000BRCSMGACNOR5127
012013091014CSMO11      010ISHARES CSMOCI           R$  000000000477500000000048140000000004775000000000479200000000048140000000004300000000000490000003000000000000000400000000000001916900000000000000009999123100000010000000000000BRCSMOCTF002100
012013091002CSNA3       010SID NACIONALON           R$  000000000094500000000009620000000000938000000000094900000000009450000000000943000000000094516814000000000009796400000000009299673700000000000000009999123100000010000000000000BRCSNAACNOR6243
012013091096CSNA3F      020SID NACIONALON           R$  000000000093100000000009610000000000931000000000094900000000009440000000000940000000000095000086000000000000002448000000000002324188000000000000009999123100000010000000000000BRCSNAACNOR6243
012013091062CSNA3T      030SID NACIONALON        030R$  000000000095100000000009520000000000951000000000095100000000009520000000000000000000000000000002000000000000002000000000000001903482000000000000009999123100000010000000000000BRCSNAACNOR6243
012013091062CSNA3T      030SID NACIONALON        062R$  000000000096700000000009680000000000967000000000096700000000009680000000000000000000000000000002000000000000002000000000000001934587000000000000009999123100000010000000000000BRCSNAACNOR6243
012013091062CSNA3T      030SID NACIONALON        120R$  000000000097100000000009820000000000971000000000098000000000009820000000000000000000000000000006000000000000356000000000000349185569000000000000009999123100000010000000000000BRCSNAACNOR6243
012013091078CSNAI10     070CSNA        ON        000R$  000000000000600000000000060000000000005000000000000500000000000060000000000000000000000000800020000000000000100100000000000000585600000000000100002013091600000010000000000000BRCSNAACNOR6243
012013091078CSNAI6      070CSNA        ON        000R$  000000000037700000000003770000000000377000000000037700000000003770000000000000000000000000000001000000000000000100000000000000037700000000000058002013091600000010000000000000BRCSNAACNOR6242
012013091078CSNAI7      070CSNA        ON        000R$  000000000027600000000002760000000000275000000000027500000000002750000000000235000000000000000061000000000000006100000000000001683500000000000068002013091600000010000000000000BRCSNAACNOR6242
012013091078CSNAI72     070CSNA        ON        000R$  000000000025200000000002520000000000252000000000025200000000002520000000000000000000000000000001000000000000001000000000000000252000000000000070002013091600000010000000000000BRCSNAACNOR6242
012013091078CSNAI74     070CSNA        ON        000R$  000000000023200000000002320000000000232000000000023200000000002320000000000000000000000000000002000000000000010000000000000002320000000000000072002013091600000010000000000000BRCSNAACNOR6242
012013091078CSNAI78     070CSNA        ON        000R$  000000000019500000000001950000000000195000000000019500000000001950000000000000000000000000000001000000000000000500000000000000097500000000000076002013091600000010000000000000BRCSNAACNOR6242
012013091038CSNAI7E     012CSNA        ON        000R$  000000000068000000000006800000000000680000000000068000000000006800000000000000000000000000000001000000000000002000000000000001360000000000000068002013091600000010000000000000BRCSNAACNOR6243
012013091078CSNAI8      070CSNA        ON        000R$  000000000017900000000001850000000000162000000000017600000000001650000000000165000000000000000021000000000000024400000000000004298100000000000078002013091600000010000000000000BRCSNAACNOR6242
012013091078CSNAI82     070CSNA        ON        000R$  000000000015600000000001560000000000156000000000015600000000001560000000000000000000000000000001000000000000000500000000000000078000000000000080002013091600000010000000000000BRCSNAACNOR6242
012013091078CSNAI84     070CSNA        ON        000R$  000000000011800000000001220000000000116000000000011600000000001170000000000011000000000000000005000000000000011900000000000001384400000000000084002013091600000010000000000000BRCSNAACNOR6243
012013091078CSNAI9      070CSNA        ON        000R$  000000000006000000000000620000000000059000000000006000000000000590000000000040000000000006000014000000000000038800000000000002352800000000000090002013091600000010000000000000BRCSNAACNOR6243
012013091078CSNAI92     070CSNA        ON        000R$  000000000004300000000000440000000000043000000000004300000000000440000000000000000000000000000003000000000000010500000000000000461500000000000092002013091600000010000000000000BRCSNAACNOR6243
012013091078CSNAI94     070CSNA        ON        000R$  000000000002700000000000270000000000026000000000002600000000000260000000000000000000000002500003000000000000004500000000000000119500000000000094002013091600000010000000000000BRCSNAACNOR6243
012013091078CSNAI96     070CSNA        ON        000R$  000000000001500000000000150000000000015000000000001500000000000150000000000001000000000000000002000000000000003000000000000000045000000000000096002013091600000010000000000000BRCSNAACNOR6243
012013091078CSNAI98     070CSNA        ON        000R$  000000000001000000000000110000000000009000000000000900000000000090000000000008000000000002300006000000000000025400000000000000249400000000000098002013091600000010000000000000BRCSNAACNOR6243
012013091078CSNAJ10     070CSNA        ON        000R$  000000000003500000000000390000000000034000000000003400000000000350000000000000000000000003700049000000000000552000000000000019075200000000000100002013102100000010000000000000BRCSNAACNOR6243
012013091078CSNAJ60     070CSNA        ON        000R$  000000000001600000000000160000000000016000000000001600000000000160000000000000000000000000000001000000000000001000000000000000016000000000000106002013102100000010000000000000BRCSNAACNOR6243
012013091078CSNAJ64     070CSNA        ON        000R$  000000000033500000000003350000000000335000000000033500000000003350000000000000000000000000000001000000000000001000000000000000335000000000000062002013102100000010000000000000BRCSNAACNOR6242
