00COTAHIST.2013BOVESPA 20130909                                                                                                                                                                                                                      
012013090902ABCB4       010ABC BRASIL  PN      N2   R$  000000000119500000000012260000000001195000000000121900000000012160000000001216000000000122200541000000000000234700000000000286157300000000000000009999123100000010000000000000BRABCBACNPR4120
012013090996ABCB4F      020ABC BRASIL  PN      N2   R$  000000000118100000000012300000000001163000000000119600000000011630000000001163000000000139500014000000000000000294000000000000351815000000000000009999123100000010000000000000BRABCBACNPR4120
012013090912ABCP11      010FII ABC IMOBCI  ER       R$  000000000096500000000009650000000000965000000000096500000000009650000000000905000000000096500001000000000000000008000000000000007720000000000000009999123100000010000000000000BRABCPCTF000215
012013090902ABRE11      010ABRIL EDUCA UNT     N2   R$  000000000336300000000034240000000003363000000000340100000000034240000000003424000000000342800335000000000000080700000000000274519500000000000000009999123100000010000000000000BRABRECDAM15102
012013090902AEDU3       010ANHANGUERA  ON      NM   R$  000000000139700000000014170000000001381000000000139200000000013950000000001392000000000139509445000000000003298000000000004591403700000000000000009999123100000010000000000000BRAEDUACNOR9107
012013090996AEDU3F      020ANHANGUERA  ON      NM   R$  000000000140300000000014180000000001380000000000139200000000014180000000001389000000000139400026000000000000000934000000000001300237000000000000009999123100000010000000000000BRAEDUACNOR9107
012013090912AEFI11      010FII AESAPAR CI  ER       R$  000000001206000000000120600000000011800000000001189100000000118790000000011820000000001188000042000000000000000711000000000008454990000000000000009999123100000010000000000000BRAEFICTF002121
012013090902AELP3       010AES ELPA    ON           R$  000000000092000000000009600000000000920000000000093300000000009600000000000835000000000095200002000000000000000300000000000000280000000000000000009999123100000010000000000000BRAELPACNOR2119
012013090996AELP3F      020AES ELPA    ON           R$  000000000090000000000009000000000000808000000000087000000000008280000000000828000000000100000003000000000000000088000000000000076644000000000000009999123100000010000000000000BRAELPACNOR2119
012013090912AGCX11      010FII AG CAIXACI  ER       R$  000000009939900000000993990000000098000000000009883400000000980000000000098100000000009895000012000000000000000053000000000005238248000000000000009999123100000010000000000000BRAGCXCTF003110
012013090902AGRO3       010BRASILAGRO  ON      NM   R$  000000000095000000000009590000000000947000000000095000000000009500000000000946000000000095500057000000000000027800000000000026423100000000000000009999123100000010000000000000BRAGROACNOR7102
012013090962AGRO3T      030BRASILAGRO  ON      NM060R$  000000000096300000000009640000000000963000000000096300000000009640000000000000000000000000000002000000000000003300000000000003179517000000000000009999123100000010000000000000BRAGROACNOR7102
012013090902ALLL3       010ALL AMER LATON      NM   R$  000000000093000000000009430000000000928000000000093500000000009390000000000935000000000093909881000000000004493700000000004205590000000000000000009999123100000010000000000000BRALLLACNOR6118
012013090996ALLL3F      020ALL AMER LATON      NM   R$  000000000093000000000009430000000000902000000000093500000000009430000000000905000000000094500049000000000000001492000000000001396288000000000000009999123100000010000000000000BRALLLACNOR6118
012013090962ALLL3T      030ALL AMER LATON      NM016R$  000000000093800000000009390000000000938000000000093800000000009390000000000000000000000000000002000000000000003000000000000002814609000000000000009999123100000010000000000000BRALLLACNOR6118
012013090962ALLL3T      030ALL AMER LATON      NM060R$  000000000094900000000009500000000000949000000000094900000000009500000000000000000000000000000002000000000000000600000000000000569631000000000000009999123100000010000000000000BRALLLACNOR6118
012013090978ALLLK92     070ALLL        ON      NM000R$  000000000004600000000000460000000000044000000000004500000000000440000000000000000000000000000002000000000000000200000000000000009000000000000092002013111800000010000000000000BRALLLACNOR6118
012013090978ALLLL11     070ALLL        ON      NM000R$  000000000001200000000000120000000000012000000000001200000000000120000000000000000000000000000001000000000000000200000000000000002400000000000110002013121600000010000000000000BRALLLACNOR6118
012013090982ALLLW86     080ALLLE       ON      NM000R$  000000000002500000000000250000000000025000000000002500000000000250000000000000000000000000000001000000000000065000000000000001625000000000000086002013111800000010000000000000BRALLLACNOR6118
012013090982ALLLW92     080ALLLE       ON      NM000R$  000000000004400000000000440000000000044000000000004400000000000440000000000000000000000000000001000000000000065000000000000002860000000000000092002013111800000010000000000000BRALLLACNOR6118
012013090912ALMI11B     010FII TORRE ALCI  ER  MB   R$  000000031000000000003100000000000308041000000030899000000003081000000000308100000000031808000012000000000000000064000000000019775382000000000000009999123100000010000000000000BRALMICTF003205
012013090902ALPA3       010ALPARGATAS  ON      N1   R$  000000000110300000000011240000000001089000000000110600000000011210000000001121000000000114200013000000000000003200000000000003539200000000000000009999123100000010000000000000BRALPAACNOR0203
012013090996ALPA3F      020ALPARGATAS  ON      N1   R$  000000000105800000000011030000000001058000000000106900000000011030000000001091000000000110300003000000000000000189000000000000202122000000000000009999123100000010000000000000BRALPAACNOR0203
012013090902ALPA4       010ALPARGATAS  PN      N1   R$  000000000128600000000013470000000001286000000000131100000000013300000000001330000000000133701024000000000000843200000000001105703000000000000000009999123100000010000000000000BRALPAACNPR7203
012013090996ALPA4F      020ALPARGATAS  PN      N1   R$  000000000135400000000013540000000001300000000000131600000000013180000000001318000000000135500016000000000000000370000000000000487107000000000000009999123100000010000000000000BRALPAACNPR7203
012013090962ALPA4T      030ALPARGATAS  PN      N1120R$  000000000134100000000013420000000001341000000000134100000000013420000000000000000000000000000002000000000000000700000000000000938713000000000000009999123100000010000000000000BRALPAACNPR7203
012013090902ALSC3       010ALIANSCE    ON      NM   R$  000000000189000000000019530000000001890000000000193000000000019270000000001927000000000193501666000000000000484600000000000935416100000000000000009999123100000010000000000000BRALSCACNOR0104
012013090996ALSC3F      020ALIANSCE    ON      NM   R$  000000000194500000000020000000000001821000000000196000000000018210000000001821000000000243800010000000000000000229000000000000449023000000000000009999123100000010000000000000BRALSCACNOR0104
012013090902ALUP11      010ALUPAR      UNT     N2   R$  000000000173300000000017650000000001709000000000173100000000017470000000001727000000000174700586000000000000131200000000000227228200000000000000009999123100000010000000000000BRALUPCDAM15100
012013090996ALUP11F     020ALUPAR      UNT     N2   R$  000000000173300000000017980000000001710000000000174800000000017540000000001701000000000175400017000000000000000582000000000001017509000000000000009999123100000010000000000000BRALUPCDAM15100
012013090902AMAR3       010LOJAS MARISAON      NM   R$  000000000198700000000020840000000001950000000000203200000000020750000000002075000000000207602114000000000000423900000000000861663500000000000000009999123100000010000000000000BRAMARACNOR4109
012013090996AMAR3F      020LOJAS MARISAON      NM   R$  000000000201800000000020800000000002016000000000202100000000020800000000002046000000000207800014000000000000000459000000000000927830000000000000009999123100000010000000000000BRAMARACNOR4109
012013090962AMAR3T      030LOJAS MARISAON      NM016R$  000000000204600000000020670000000002046000000000205500000000020570000000000000000000000000000008000000000000004400000000000009044226000000000000009999123100000010000000000000BRAMARACNOR4109
012013090962AMAR3T      030LOJAS MARISAON      NM030R$  000000000203000000000020350000000002028000000000203000000000020350000000000000000000000000000016000000000000010000000000000020305353000000000000009999123100000010000000000000BRAMARACNOR4109
012013090902AMBV3       010AMBEV       ON           R$  000000000815400000000082740000000008100000000000819200000000082740000000008240000000000827401855000000000000273500000000002240783600000000000000009999123100000010000000000000BRAMBVACNOR4153
012013090996AMBV3F      020AMBEV       ON           R$  000000000820000000000083140000000008100000000000818700000000083120000000008240000000000831200084000000000000001703000000000013949074000000000000009999123100000010000000000000BRAMBVACNOR4153
012013090962AMBV3T      030AMBEV       ON        060R$  000000000824900000000082500000000008249000000000824900000000082500000000000000000000000000000002000000000000000700000000000005774511000000000000009999123100000010000000000000BRAMBVACNOR4153
012013090902AMBV4       010AMBEV       PN           R$  000000000815000000000082450000000008110000000000818800000000082400000000008237000000000824015692000000000003276400000000026828183100000000000000009999123100000010000000000000BRAMBVACNPR1153
012013090996AMBV4F      020AMBEV       PN           R$  000000000811000000000082480000000008102000000000818200000000082480000000008240000000000824800270000000000000007243000000000059271953000000000000009999123100000010000000000000BRAMBVACNPR1153
012013090962AMBV4T      030AMBEV       PN        016R$  000000000817500000000081760000000008175000000000817500000000081760000000000000000000000000000002000000000000000500000000000004087501000000000000009999123100000010000000000000BRAMBVACNPR1153
012013090962AMBV4T      030AMBEV       PN        030R$  000000000825900000000082600000000008244000000000824900000000082450000000000000000000000000000004000000000000000300000000000002474892000000000000009999123100000010000000000000BRAMBVACNPR1153
012013090962AMBV4T      030AMBEV       PN        060R$  000000000826400000000083260000000008264000000000831500000000083260000000000000000000000000000004000000000000002500000000000020789499000000000000009999123100000010000000000000BRAMBVACNPR1153
012013090978AMBVJ80     070AMBV        PN        000R$  000000000040500000000004050000000000405000000000040500000000004050000000000000000000000000000002000000000000006500000000000002632500000000000800002013102100000010000000000000BRAMBVACNPR1153
012013090978AMBVL90     070AMBV        PN        000R$  000000000016800000000001680000000000167000000000016700000000001670000000000000000000000000000003000000000000115000000000000019308500000000000900002013121600000010000000000000BRAMBVACNPR1153
012013090982AMBVW90     080AMBVE       PN        000R$  000000000070300000000007040000000000661000000000068900000000006610000000000000000000000000000004000000000000150000000000000103381000000000000883102013111800000010000000000000BRAMBVACNPR1150
012013090902ARTR3       010ARTERIS     ON      NM   R$  000000000190000000000019550000000001900000000000193300000000019400000000001938000000000195003884000000000001129400000000002184220800000000000000009999123100000010000000000000BRARTRACNOR3101
012013090996ARTR3F      020ARTERIS     ON      NM   R$  000000000188500000000020200000000001885000000000193400000000020200000000001960000000000202000108000000000000003286000000000006357464000000000000009999123100000010000000000000BRARTRACNOR3101
012013090902ARZZ3       010AREZZO CO   ON      NM   R$  000000000346300000000036770000000003455000000000351500000000036210000000003621000000000366300771000000000000347200000000001220745600000000000000009999123100000010000000000000BRARZZACNOR3109
012013090996ARZZ3F      020AREZZO CO   ON      NM   R$  000000000347900000000037000000000003479000000000358000000000036900000000003500000000000377900027000000000000000786000000000002814068000000000000009999123100000010000000000000BRARZZACNOR3109
012013090902AUTM3       010AUTOMETAL   ON      NM   R$  000000000189900000000018990000000001837000000000185900000000018550000000001855000000000186000378000000000000097400000000000181101700000000000000009999123100000010000000000000BRAUTMACNOR8109
012013090996AUTM3F      020AUTOMETAL   ON      NM   R$  000000000185900000000018600000000001859000000000185900000000018600000000001860000000000186200003000000000000000020000000000000037189000000000000009999123100000010000000000000BRAUTMACNOR8109
012013090902AZEV4       010AZEVEDO     PN           R$  000000000014000000000001400000000000140000000000014000000000001400000000000125000000000014000001000000000000001000000000000000140000000000000000009999123100000010000000000000BRAZEVACNPR7113
012013090902BAHI3       010BAHEMA      ON           R$  000000000049500000000004960000000000495000000000049500000000004950000000000492000000000051900003000000000000001200000000000000594200000000000000009999123100000010000000000000BRBAHIACNOR1066
012013090996BAHI3F      020BAHEMA      ON           R$  000000000052000000000005200000000000520000000000052000000000005200000000000450000000000052000001000000000000000006000000000000003120000000000000009999123100000010000000000000BRBAHIACNOR1066
012013090902BAUH4       010EXCELSIOR   PN           R$  000000000093000000000009300000000000930000000000093000000000009300000000000901000000000092800001000000000000000200000000000000186000000000000000009999123100000010000000000000BRBAUHACNPR3108
012013090902BAZA3       010AMAZONIA    ON           R$  000000000003300000000000330000000000033000000000003300000000000330000000000032000000000003300001000000000000001000000000000000033000000000000000009999123100000010000000000000BRBAZAACNOR0163
012013090996BAZA3F      020AMAZONIA    ON           R$  000000000003200000000000320000000000032000000000003200000000000320000000000032000000000003500001000000000000000680000000000000021760000000000000009999123100000010000000000000BRBAZAACNOR0163
012013090902BBAS3       010BRASIL      ON      NM   R$  000000000238200000000024340000000002382000000000240800000000024240000000002424000000000242516009000000000007576400000000018246702200000000000000009999123100000010000000000000BRBBASACNOR3238
012013090996BBAS3F      020BRASIL      ON      NM   R$  000000000237100000000024330000000002371000000000240600000000024230000000002421000000000242300373000000000000011535000000000027764117000000000000009999123100000010000000000000BRBBASACNOR3238
012013090962BBAS3T      030BRASIL      ON      NM016R$  000000000241000000000024110000000002410000000000241000000000024110000000000000000000000000000002000000000000020000000000000048206400000000000000009999123100000010000000000000BRBBASACNOR3238
012013090962BBAS3T      030BRASIL      ON      NM030R$  000000000243600000000024370000000002422000000000243500000000024230000000000000000000000000000004000000000000018000000000000043845754000000000000009999123100000010000000000000BRBBASACNOR3238
012013090962BBAS3T      030BRASIL      ON      NM031R$  000000000241700000000024180000000002417000000000241700000000024180000000000000000000000000000002000000000000060000000000000145064043000000000000009999123100000010000000000000BRBBASACNOR3238
012013090962BBAS3T      030BRASIL      ON      NM091R$  000000000247800000000024790000000002454000000000246700000000024550000000000000000000000000000004000000000000004600000000000011352744000000000000009999123100000010000000000000BRBBASACNOR3238
012013090978BBASI22     070BBAS        ON      NM000R$  000000000031600000000003260000000000306000000000031900000000003060000000000065000000000000000004000000000000003900000000000001247400000000000209802013091600000010000000000000BRBBASACNOR3236
012013090978BBASI23     070BBAS        ON      NM000R$  000000000020700000000002300000000000207000000000021700000000002290000000000170000000000026800034000000000000021200000000000004606200000000000219802013091600000010000000000000BRBBASACNOR3236
012013090978BBASI24     070BBAS        ON      NM000R$  000000000010100000000001230000000000101000000000011500000000001230000000000120000000000021000027000000000000029600000000000003432600000000000229802013091600000010000000000000BRBBASACNOR3236
012013090978BBASI25     070BBAS        ON      NM000R$  000000000004000000000000580000000000035000000000004500000000000500000000000035000000000006500113000000000000222800000000000010111400000000000238802013091600000010000000000000BRBBASACNOR3235
012013090978BBASI26     070BBAS        ON      NM000R$  000000000000900000000000090000000000005000000000000600000000000080000000000008000000000001100025000000000000066200000000000000461200000000000248802013091600000010000000000000BRBBASACNOR3235
012013090978BBASI27     070BBAS        ON      NM000R$  000000000000200000000000020000000000001000000000000100000000000010000000000000000000000000100005000000000000010100000000000000018100000000000259802013091600000010000000000000BRBBASACNOR3236
012013090978BBASI52     070BBAS        ON      NM000R$  000000000025500000000002550000000000254000000000025400000000002540000000000000000000000000000004000000000000000400000000000000101800000000000217202013091600000010000000000000BRBBASACNOR3237
012013090978BBASJ22     070BBAS  FM    ON      NM000R$  000000000030500000000003330000000000301000000000031600000000003330000000000298000000000035700044000000000000057100000000000018079900000000000212202013102100000010000000000000BRBBASACNOR3237
012013090978BBASJ23     070BBAS  FM    ON      NM000R$  000000000025200000000002730000000000241000000000025500000000002720000000000000000000000000000047000000000000065900000000000016849900000000000218802013102100000010000000000000BRBBASACNOR3235
012013090978BBASJ24     070BBAS  FM    ON      NM000R$  000000000016100000000001800000000000154000000000016700000000001780000000000100000000000020300035000000000000029800000000000004985300000000000229802013102100000010000000000000BRBBASACNOR3236
012013090978BBASJ25     070BBAS  FM    ON      NM000R$  000000000008200000000000930000000000077000000000008200000000000850000000000025000000000009700052000000000000072600000000000005999900000000000242202013102100000010000000000000BRBBASACNOR3237
012013090978BBASJ26     070BBAS  FM    ON      NM000R$  000000000004200000000000610000000000042000000000005200000000000610000000000057000000000006000030000000000000037200000000000001967500000000000248802013102100000010000000000000BRBBASACNOR3235
012013090978BBASJ27     070BBAS        ON      NM000R$  000000000002500000000000280000000000020000000000002400000000000260000000000026000000000002800020000000000000017800000000000000443900000000000258802013102100000010000000000000BRBBASACNOR3235
012013090978BBASJ28     070BBAS        ON      NM000R$  000000000000900000000000090000000000007000000000000800000000000070000000000007000000000001000003000000000000008300000000000000072100000000000272202013102100000010000000000000BRBBASACNOR3237
012013090978BBASJ29     070BBAS        ON      NM000R$  000000000000500000000000050000000000005000000000000500000000000050000000000004000000000000500001000000000000002000000000000000010000000000000278802013102100000010000000000000BRBBASACNOR3235
012013090978BBASJ56     070BBAS        ON      NM000R$  000000000004200000000000420000000000042000000000004200000000000420000000000000000000000000000001000000000000002000000000000000084000000000000253802013102100000010000000000000BRBBASACNOR3235
012013090978BBASK23     070BBAS  FM    ON      NM000R$  000000000026100000000002690000000000244000000000025900000000002690000000000000000000000000000042000000000000066500000000000017280200000000000222202013111800000010000000000000BRBBASACNOR3237
012013090978BBASK24     070BBAS  FM    ON      NM000R$  000000000017700000000001940000000000174000000000018100000000001940000000000097000000000000000029000000000000043000000000000007807400000000000232202013111800000010000000000000BRBBASACNOR3237
012013090978BBASK25     070BBAS  FM    ON      NM000R$  000000000013800000000001420000000000137000000000013800000000001370000000000016000000000000000007000000000000009300000000000001289400000000000239802013111800000010000000000000BRBBASACNOR3236
012013090978BBASK26     070BBAS  FM    ON      NM000R$  000000000008300000000000900000000000079000000000008600000000000860000000000016000000000020000015000000000000017800000000000001533800000000000249802013111800000010000000000000BRBBASACNOR3236
012013090978BBASK27     070BBAS        ON      NM000R$  000000000004800000000000480000000000048000000000004800000000000480000000000016000000000000000005000000000000006600000000000000316800000000000259802013111800000010000000000000BRBBASACNOR3236
012013090978BBASK56     070BBAS        ON      NM000R$  000000000003600000000000370000000000036000000000003600000000000370000000000000000000000000000003000000000000200000000000000007244000000000000265002013111800000010000000000000BRBBASACNOR3238
012013090978BBASL55     070BBASE       ON      NM000R$  000000000017000000000001940000000000170000000000018000000000001940000000000000000000000000000053000000000000150800000000000027169600000000000237902013121600000010000000000000BRBBASACNOR3233
012013090982BBASN24     080BBASE       ON      NM000R$  000000000009200000000000920000000000092000000000009200000000000920000000000000000000000000000001000000000000001200000000000000110400000000000232202014021700000010000000000000BRBBASACNOR3237
012013090982BBASU23     080BBASE       ON      NM000R$  000000000000100000000000010000000000001000000000000100000000000010000000000000000000000000200001000000000000005000000000000000005000000000000219802013091600000010000000000000BRBBASACNOR3236
012013090982BBASU24     080BBASE       ON      NM000R$  000000000000900000000000090000000000005000000000000500000000000050000000000001000000000000900017000000000000051700000000000000286400000000000229802013091600000010000000000000BRBBASACNOR3236
012013090982BBASU25     080BBASE       ON      NM000R$  000000000002600000000000320000000000015000000000002300000000000180000000000001000000000006800073000000000000131200000000000003105200000000000238802013091600000010000000000000BRBBASACNOR3235
012013090982BBASV22     080BBASE FM    ON      NM000R$  000000000001300000000000130000000000011000000000001100000000000110000000000000000000000003500002000000000000005500000000000000061900000000000212202013102100000010000000000000BRBBASACNOR3237
012013090982BBASV23     080BBASE FM    ON      NM000R$  000000000001900000000000190000000000018000000000001800000000000180000000000016000000000003800006000000000000009700000000000000177300000000000218802013102100000010000000000000BRBBASACNOR3235
012013090982BBASV24     080BBASE FM    ON      NM000R$  000000000003600000000000420000000000033000000000003300000000000330000000000031000000000000000008000000000000018500000000000000628500000000000229802013102100000010000000000000BRBBASACNOR3236
012013090982BBASV25     080BBASE       ON      NM000R$  000000000009400000000000940000000000069000000000007700000000000700000000000000000000000000000039000000000000071400000000000005525800000000000242202013102100000010000000000000BRBBASACNOR3237
012013090982BBASV26     080BBASE       ON      NM000R$  000000000011000000000001130000000000107000000000010900000000001130000000000000000000000013700004000000000000006500000000000000713500000000000248802013102100000010000000000000BRBBASACNOR3235
012013090982BBASV53     080BBASE       ON      NM000R$  000000000002600000000000260000000000026000000000002600000000000260000000000000000000000000000002000000000000002400000000000000062400000000000223802013102100000010000000000000BRBBASACNOR3235
012013090982BBASV56     080BBASE       ON      NM000R$  000000000014200000000001420000000000142000000000014200000000001420000000000000000000000000000001000000000000003000000000000000426000000000000253802013102100000010000000000000BRBBASACNOR3235
012013090982BBASW23     080BBASE FM    ON      NM000R$  000000000004100000000000410000000000036000000000003600000000000360000000000000000000000000000011000000000000013300000000000000489300000000000222202013111800000010000000000000BRBBASACNOR3237
012013090982BBASW24     080BBASE FM    ON      NM000R$  000000000006300000000000690000000000059000000000006200000000000590000000000000000000000000000023000000000000046200000000000002888200000000000232202013111800000010000000000000BRBBASACNOR3237
012013090982BBASW25     080BBASE       ON      NM000R$  000000000009700000000000970000000000097000000000009700000000000970000000000000000000000000000001000000000000001500000000000000145500000000000239802013111800000010000000000000BRBBASACNOR3236
012013090982BBASW27     080BBASE       ON      NM000R$  000000000019900000000001990000000000199000000000019900000000001990000000000000000000000000000001000000000000003000000000000000597000000000000259802013111800000010000000000000BRBBASACNOR3236
012013090982BBASX26     080BBASE       ON      NM000R$  000000000014300000000001430000000000143000000000014300000000001430000000000000000000000000000001000000000000001100000000000000157300000000000248802013121600000010000000000000BRBBASACNOR3235
012013090982BBASX27     080BBASE       ON      NM000R$  000000000022100000000002210000000000221000000000022100000000002210000000000000000000000000000001000000000000001200000000000000265200000000000262202013121600000010000000000000BRBBASACNOR3237
012013090982BBASX55     080BBASE       ON      NM000R$  000000000009600000000000960000000000096000000000009600000000000960000000000000000000000000000001000000000000001200000000000000115200000000000237902013121600000010000000000000BRBBASACNOR3233
012013090902BBDC3       010BRADESCO    ON  EJ  N1   R$  000000000328000000000034090000000003271000000000337300000000034040000000003385000000000340410631000000000002884900000000009731063300000000000000009999123100000010000000000000BRBBDCACNOR1606
012013090996BBDC3F      020BRADESCO    ON  EJ  N1   R$  000000000325800000000034000000000003258000000000335700000000033910000000003263000000000340000077000000000000002287000000000007679667000000000000009999123100000010000000000000BRBBDCACNOR1606
012013090962BBDC3T      030BRADESCO    ON  EJ  N1091R$  000000000338500000000034170000000003385000000000339200000000034170000000000000000000000000000007000000000000000609000000000002065878000000000000009999123100000010000000000000BRBBDCACNOR1606
012013090902BBDC4       010BRADESCO    PN  EJ  N1   R$  000000000287100000000029620000000002867000000000293200000000029490000000002949000000000295027571000000000010034000000000029421801900000000000000009999123100000010000000000000BRBBDCACNPR8606
012013090996BBDC4F      020BRADESCO    PN  EJ  N1   R$  000000000288300000000029620000000002870000000000292400000000029420000000002942000000000294700455000000000000013314000000000038942229000000000000009999123100000010000000000000BRBBDCACNPR8606
012013090962BBDC4T      030BRADESCO    PN  EJ  N1016R$  000000000295300000000029540000000002953000000000295300000000029540000000000000000000000000000002000000000000010000000000000029532518000000000000009999123100000010000000000000BRBBDCACNPR8606
012013090962BBDC4T      030BRADESCO    PN  EJ  N1030R$  000000000292500000000029320000000002925000000000292900000000029320000000000000000000000000000004000000000000021800000000000063865347000000000000009999123100000010000000000000BRBBDCACNPR8606
012013090962BBDC4T      030BRADESCO    PN  EJ  N1060R$  000000000294100000000029470000000002941000000000294300000000029470000000000000000000000000000006000000000000001500000000000004415827000000000000009999123100000010000000000000BRBBDCACNPR8606
012013090962BBDC4T      030BRADESCO    PN  EJ  N1120R$  000000000298700000000029880000000002987000000000298700000000029880000000000000000000000000000002000000000000004000000000000011951258000000000000009999123100000010000000000000BRBBDCACNPR8606
012013090978BBDCI26     070BBDC    /EJ PN      N1000R$  000000000034000000000003400000000000332000000000033700000000003400000000000000000000000000000005000000000000015100000000000005093200000000000259602013091600000010000000000000BRBBDCACNPR8604
012013090978BBDCI27     070BBDC    /EJ PN      N1000R$  000000000027100000000002710000000000267000000000026900000000002690000000000210000000000000000008000000000000002500000000000000672800000000000267602013091600000010000000000000BRBBDCACNPR8602
012013090978BBDCI28     070BBDC    /EJ PN      N1000R$  000000000013700000000001820000000000137000000000015500000000001820000000000140000000000000000020000000000000016500000000000002563300000000000277602013091600000010000000000000BRBBDCACNPR8602
012013090978BBDCI29     070BBDC    /EJ PN      N1000R$  000000000005000000000000910000000000050000000000006800000000000910000000000035000000000012900280000000000000203800000000000013957300000000000287602013091600000010000000000000BRBBDCACNPR8602
012013090978BBDCI30     070BBDC    /EJ PN      N1000R$  000000000000900000000000270000000000009000000000001600000000000210000000000012000000000002100340000000000000295800000000000004773900000000000297602013091600000010000000000000BRBBDCACNPR8602
012013090978BBDCI32     070BBDC    /EJ PN      N1000R$  000000000000100000000000010000000000001000000000000100000000000010000000000001000000000000800002000000000000008000000000000000008000000000000317602013091600000010000000000000BRBBDCACNPR8602
012013090978BBDCI33     070BBDC    /EJ PN      N1000R$  000000000001300000000000290000000000013000000000002600000000000230000000000011000000000000000020000000000000036600000000000000955300000000000297002013091600000010000000000000BRBBDCACNPR8598
012013090978BBDCI75     070BBDCE   /EJ PN      N1000R$  000000000013500000000001350000000000133000000000013400000000001350000000000000000000000000000005000000000000006900000000000000929900000000000282102013091600000010000000000000BRBBDCACNPR8604
012013090978BBDCI81     070BBDC    /EJ PN      N1000R$  000000000000300000000000040000000000003000000000000300000000000040000000000000000000000001000003000000000000014500000000000000052000000000000307602013091600000010000000000000BRBBDCACNPR8602
012013090978BBDCJ27     070BBDC    /EJ PN      N1000R$  000000000027500000000003210000000000272000000000029700000000003160000000000000000000000000000404000000000000364100000000000108436100000000000267602013102100000010000000000000BRBBDCACNPR8602
012013090978BBDCJ29     070BBDC    /EJ PN      N1000R$  000000000012600000000001600000000000123000000000013900000000001540000000000000000000000000000064000000000000107300000000000014999800000000000287602013102100000010000000000000BRBBDCACNPR8602
012013090978BBDCJ30     070BBDC    /EJ PN      N1000R$  000000000007500000000001010000000000071000000000008700000000001000000000000051000000000009800425000000000000343800000000000029942600000000000297602013102100000010000000000000BRBBDCACNPR8602
012013090978BBDCJ31     070BBDC    /EJ PN      N1000R$  000000000003500000000000570000000000035000000000004800000000000520000000000051000000000005700110000000000000212500000000000010204700000000000307602013102100000010000000000000BRBBDCACNPR8602
012013090978BBDCJ32     070BBDC    /EJ PN      N1000R$  000000000001900000000000300000000000019000000000002600000000000300000000000025000000000003100070000000000000423100000000000011013400000000000317602013102100000010000000000000BRBBDCACNPR8602
012013090978BBDCJ33     070BBDC    /EJ PN      N1000R$  000000000001200000000000120000000000012000000000001200000000000120000000000000000000000000000001000000000000002400000000000000028800000000000327602013102100000010000000000000BRBBDCACNPR8602
012013090978BBDCJ58     070BBDC    /EJ PN      N1000R$  000000000017900000000002200000000000176000000000019900000000002100000000000092000000000023000176000000000000213700000000000042569400000000000279802013102100000010000000000000BRBBDCACNPR8605
012013090978BBDCK28     070BBDC    /EJ PN      N1000R$  000000000023000000000002710000000000228000000000024700000000002690000000000000000000000000000069000000000000135600000000000033591300000000000277602013111800000010000000000000BRBBDCACNPR8602
012013090978BBDCK30     070BBDC    /EJ PN      N1000R$  000000000010000000000001220000000000100000000000010900000000001180000000000000000000000000000016000000000000023300000000000002545500000000000299802013111800000010000000000000BRBBDCACNPR8605
012013090978BBDCK31     070BBDC    /EJ PN      N1000R$  000000000006400000000000770000000000063000000000006900000000000770000000000000000000000000000004000000000000004900000000000000341700000000000309802013111800000010000000000000BRBBDCACNPR8605
012013090978BBDCK32     070BBDC    /EJ PN      N1000R$  000000000004300000000000600000000000043000000000005600000000000590000000000000000000000000000071000000000000036400000000000002044700000000000317402013111800000010000000000000BRBBDCACNPR8601
012013090978BBDCK33     070BBDC    /EJ PN      N1000R$  000000000003000000000000300000000000030000000000003000000000000300000000000000000000000000000041000000000000073000000000000002190000000000000327602013111800000010000000000000BRBBDCACNPR8602
012013090978BBDCK9      070BBDC    /EJ PN      N1000R$  000000000015100000000001870000000000150000000000016600000000001850000000000000000000000000000038000000000000043500000000000007251800000000000289802013111800000010000000000000BRBBDCACNPR8605
012013090978BBDCL29     070BBDC    /EJ PN      N1000R$  000000000019900000000002310000000000199000000000020500000000002310000000000110000000000000000003000000000000002600000000000000534600000000000287602013121600000010000000000000BRBBDCACNPR8602
012013090978BBDCL3      070BBDC    /EJ PN      N1000R$  000000000004300000000000530000000000043000000000004800000000000530000000000000000000000000000002000000000000002400000000000000115200000000000327202013121600000010000000000000BRBBDCACNPR8601
012013090978BBDCL31     070BBDC    /EJ PN      N1000R$  000000000026100000000002620000000000261000000000026100000000002620000000000000000000000000000002000000000000550000000000000143714400000000000278602013121600000010000000000000BRBBDCACNPR8597
012013090978BBDCL32     070BBDC    /EJ PN      N1000R$  000000000006300000000000680000000000063000000000006600000000000680000000000000000000000000000003000000000000003900000000000000259200000000000317202013121600000010000000000000BRBBDCACNPR8600
012013090978BBDCL33     070BBDC    /EJ PN      N1000R$  000000000014600000000001470000000000146000000000014600000000001470000000000000000000000000000002000000000000002400000000000000351600000000000297002013121600000010000000000000BRBBDCACNPR8598
012013090978BBDCL34     070BBDC    /EJ PN      N1000R$  000000000003000000000000360000000000030000000000003200000000000350000000000002000000000000000049000000000000056500000000000001838400000000000337202013121600000010000000000000BRBBDCACNPR8600
012013090978BBDCL35     070BBDC    /EJ PN      N1000R$  000000000002000000000000260000000000020000000000002200000000000250000000000000000000000000000016000000000000017800000000000000397500000000000347202013121600000010000000000000BRBBDCACNPR8600
012013090978BBDCL36     070BBDC    /EJ PN      N1000R$  000000000004800000000000640000000000048000000000005600000000000640000000000000000000000000000002000000000000002400000000000000134400000000000324102013121600000010000000000000BRBBDCACNPR8597
012013090978BBDCL5      070BBDC    /EJ PN      N1000R$  000000000001700000000000170000000000017000000000001700000000000170000000000000000000000000000001000000000000003000000000000000051000000000000350002013121600000010000000000000BRBBDCACNPR8606
012013090978BBDCL6      070BBDC    /EJ PN      N1000R$  000000000001300000000000130000000000013000000000001300000000000130000000000000000000000000000002000000000000006000000000000000078000000000000357402013121600000010000000000000BRBBDCACNPR8601
012013090982BBDCM30     080BBDCE   /EJ PN      N1000R$  000000000016900000000001690000000000169000000000016900000000001690000000000000000000000000000001000000000000001200000000000000202800000000000300002014012000000010000000000000BRBBDCACNPR8606
012013090982BBDCM59     080BBDCE   /EJ PN      N1000R$  000000000014100000000001410000000000141000000000014100000000001410000000000000000000000000000001000000000000001200000000000000169200000000000294802014012000000010000000000000BRBBDCACNPR8605
012013090982BBDCU27     080BBDCE   /EJ PN      N1000R$  000000000000200000000000020000000000002000000000000200000000000020000000000000000000000007100001000000000000000600000000000000001200000000000267602013091600000010000000000000BRBBDCACNPR8602
012013090982BBDCU28     080BBDCE   /EJ PN      N1000R$  000000000000500000000000050000000000005000000000000500000000000050000000000000000000000000000001000000000000001000000000000000005000000000000277602013091600000010000000000000BRBBDCACNPR8602
012013090982BBDCU29     080BBDCE   /EJ PN      N1000R$  000000000002400000000000240000000000009000000000001500000000000120000000000000000000000004000018000000000000045200000000000000699400000000000287602013091600000010000000000000BRBBDCACNPR8602
012013090982BBDCU33     080BBDCE   /EJ PN      N1000R$  000000000004100000000000410000000000040000000000004000000000000400000000000033000000000000000004000000000000000700000000000000028400000000000297002013091600000010000000000000BRBBDCACNPR8598
012013090982BBDCV25     080BBDCE   /EJ PN      N1000R$  000000000000600000000000060000000000005000000000000500000000000050000000000005000000000000000004000000000000008000000000000000041000000000000249402013102100000010000000000000BRBBDCACNPR8603
012013090982BBDCV26     080BBDCE   /EJ PN      N1000R$  000000000001400000000000140000000000008000000000001000000000000080000000000000000000000000000013000000000000022700000000000000246300000000000259602013102100000010000000000000BRBBDCACNPR8604
012013090982BBDCV27     080BBDCE   /EJ PN      N1000R$  000000000002100000000000210000000000017000000000001800000000000170000000000000000000000000000005000000000000009600000000000000177300000000000267602013102100000010000000000000BRBBDCACNPR8602
012013090982BBDCV28     080BBDCE   /EJ PN      N1000R$  000000000000800000000000080000000000008000000000000800000000000080000000000000000000000000000002000000000000000800000000000000006400000000000245602013102100000010000000000000BRBBDCACNPR8591
012013090982BBDCV29     080BBDCE   /EJ PN      N1000R$  000000000007000000000000700000000000053000000000006100000000000620000000000050000000000000000029000000000000111300000000000006842100000000000287602013102100000010000000000000BRBBDCACNPR8602
012013090982BBDCV30     080BBDCE   /EJ PN      N1000R$  000000000011100000000001170000000000093000000000010900000000000930000000000000000000000012300007000000000000007000000000000000765000000000000297602013102100000010000000000000BRBBDCACNPR8602
012013090982BBDCV31     080BBDCE   /EJ PN      N1000R$  000000000017700000000001770000000000177000000000017700000000001770000000000000000000000000000001000000000000002000000000000000354000000000000307602013102100000010000000000000BRBBDCACNPR8602
012013090982BBDCV58     080BBDCE   /EJ PN      N1000R$  000000000004400000000000450000000000033000000000004100000000000330000000000000000000000000000024000000000000071400000000000002985300000000000279802013102100000010000000000000BRBBDCACNPR8605
012013090982BBDCW27     080BBDCE   /EJ PN      N1000R$  000000000004400000000000450000000000032000000000003900000000000320000000000000000000000000000025000000000000022500000000000000881900000000000269402013111800000010000000000000BRBBDCACNPR8603
012013090982BBDCW28     080BBDCE   /EJ PN      N1000R$  000000000006100000000000630000000000047000000000005500000000000470000000000000000000000000000025000000000000022200000000000001237100000000000277602013111800000010000000000000BRBBDCACNPR8602
012013090982BBDCW30     080BBDCE   /EJ PN      N1000R$  000000000012400000000001270000000000124000000000012400000000001270000000000000000000000000000003000000000000002500000000000000311500000000000299802013111800000010000000000000BRBBDCACNPR8605
012013090982BBDCW31     080BBDCE   /EJ PN      N1000R$  000000000018900000000001900000000000178000000000018500000000001850000000000000000000000000000004000000000000007800000000000001446000000000000309802013111800000010000000000000BRBBDCACNPR8605
012013090982BBDCW32     080BBDCE   /EJ PN      N1000R$  000000000025500000000002550000000000242000000000024800000000002420000000000000000000000000000003000000000000006000000000000001490000000000000317402013111800000010000000000000BRBBDCACNPR8601
012013090982BBDCW9      080BBDCE   /EJ PN      N1000R$  000000000010200000000001050000000000080000000000009400000000000800000000000000000000000000000035000000000000049300000000000004647100000000000289802013111800000010000000000000BRBBDCACNPR8605
012013090982BBDCX1      080BBDCE   /EJ PN      N1000R$  000000000020300000000002030000000000195000000000019800000000001950000000000000000000000000000010000000000000016000000000000003168000000000000307202013121600000010000000000000BRBBDCACNPR8600
012013090982BBDCX27     080BBDCE   /EJ PN      N1000R$  000000000005600000000000560000000000051000000000005500000000000560000000000000000000000000000004000000000000005400000000000000297400000000000269602013121600000010000000000000BRBBDCACNPR8604
012013090982BBDCX28     080BBDCE   /EJ PN      N1000R$  000000000008100000000000810000000000075000000000007800000000000750000000000000000000000000000002000000000000001700000000000000133500000000000279602013121600000010000000000000BRBBDCACNPR8604
012013090982BBDCX29     080BBDCE   /EJ PN      N1000R$  000000000010800000000001080000000000108000000000010800000000001080000000000000000000000000000001000000000000002000000000000000216000000000000287602013121600000010000000000000BRBBDCACNPR8602
012013090982BBDCX30     080BBDCE   /EJ PN      N1000R$  000000000005400000000000540000000000045000000000004900000000000450000000000000000000000000000003000000000000003600000000000000178800000000000269502013121600000010000000000000BRBBDCACNPR8597
012013090982BBDCX31     080BBDCE   /EJ PN      N1000R$  000000000006800000000000680000000000068000000000006800000000000680000000000000000000000000000001000000000000001200000000000000081600000000000278602013121600000010000000000000BRBBDCACNPR8597
012013090982BBDCX32     080BBDCE   /EJ PN      N1000R$  000000000026800000000002680000000000238000000000025900000000002380000000000000000000000000000014000000000000021600000000000005610400000000000317202013121600000010000000000000BRBBDCACNPR8600
012013090982BBDCX33     080BBDCE   /EJ PN      N1000R$  000000000014900000000001490000000000131000000000014300000000001310000000000000000000000000000004000000000000005900000000000000847500000000000297002013121600000010000000000000BRBBDCACNPR8598
012013090982BBDCX57     080BBDCE   /EJ PN      N1000R$  000000000006900000000000690000000000069000000000006900000000000690000000000000000000000000000001000000000000002000000000000000138000000000000275202013121600000010000000000000BRBBDCACNPR8600
012013090982BBDCX66     080BBDCE   /EJ PN      N1000R$  000000000003300000000000360000000000033000000000003500000000000340000000000000000000000000000005000000000000006600000000000000231600000000000259602013121600000010000000000000BRBBDCACNPR8604
012013090912BBFI11B     010FII BB PROGRCI  ER  MB   R$  000000042550000000004339000000000425500000000043110000000004339000000000425500000000043350000002000000000000000003000000000001293300000000000000009999123100000010000000000000BRBBFICTF006198
012013090912BBPO11      010FII BB PRGIICI  ER       R$  000000001100000000000111000000000010990000000001105600000000110550000000011055000000001109000269000000000000031150000000000344408001000000000000009999123100000010000000000000BRBBPOCTF003110
012013090912BBRC11      010FII BB CORP CI  ER       R$  000000000895100000000091930000000008951000000000913300000000091000000000009050000000000910000011000000000000000473000000000004320191000000000000009999123100000010000000000000BRBBRCCTF004124
012013090902BBRK3       010BR BROKERS  ON      NM   R$  000000000058700000000005960000000000577000000000058800000000005930000000000592000000000059301985000000000000439000000000000258360700000000000000009999123100000010000000000000BRBBRKACNOR4108
012013090996BBRK3F      020BR BROKERS  ON      NM   R$  000000000059200000000006080000000000571000000000059100000000006080000000000571000000000000000006000000000000000172000000000000101656000000000000009999123100000010000000000000BRBBRKACNOR4108
012013090902BBSE3       010BBSEGURIDADEON      NM   R$  000000000198100000000020570000000001971000000000201900000000020460000000002043000000000204617569000000000006199300000000012518062900000000000000009999123100000010000000000000BRBBSEACNOR5101
012013090996BBSE3F      020BBSEGURIDADEON      NM   R$  000000000197700000000020550000000001973000000000201100000000020500000000002027000000000205002965000000000000094530000000000190121532000000000000009999123100000010000000000000BRBBSEACNOR5101
012013090962BBSE3T      030BBSEGURIDADEON      NM016R$  000000000199500000000019960000000001995000000000199500000000019960000000000000000000000000000002000000000000001000000000000001995544000000000000009999123100000010000000000000BRBBSEACNOR5101
012013090962BBSE3T      030BBSEGURIDADEON      NM021R$  000000000200700000000020080000000002007000000000200700000000020080000000000000000000000000000002000000000000000300000000000000602395000000000000009999123100000010000000000000BRBBSEACNOR5101
012013090902BBTG11      010BTG PACTUAL UNT          R$  000000000293000000000030300000000002918000000000300100000000030230000000003013000000000303700870000000000000266500000000000799786900000000000000009999123100000010000000000000BRBBTGUNT007105
012013090996BBTG11F     020BTG PACTUAL UNT          R$  000000000299700000000030010000000002806000000000298800000000030000000000002971000000000329900017000000000000000552000000000001649657000000000000009999123100000010000000000000BRBBTGUNT007105
012013090912BBVJ11      010FII C JARDIMCI  ER       R$  000000000743500000000077680000000007435000000000746800000000075300000000007530000000000776100050000000000000004927000000000036796839000000000000009999123100000010000000000000BRBBVJCTF001133
012013090912BCFF11B     010FII BC FFII CI  ER  MB   R$  000000000883200000000088800000000008651000000000879100000000086750000000008675000000000869000095000000000000002994000000000026322129000000000000009999123100000010000000000000BRBCFFCTF000142
012013090902BEEF3       010MINERVA     ON      NM   R$  000000000110500000000011140000000001088000000000109800000000011000000000001098000000000110003359000000000001218300000000001338046200000000000000009999123100000010000000000000BRBEEFACNOR6104
012013090996BEEF3F      020MINERVA     ON      NM   R$  000000000109800000000011680000000001094000000000110000000000011680000000001080000000000116800011000000000000000150000000000000165131000000000000009999123100000010000000000000BRBEEFACNOR6104
012013090902BEES3       010BANESTES    ON  EJ       R$  000000000004900000000000490000000000048000000000004800000000000490000000000048000000000005000008000000000000039000000000000001904000000000000000009999123100000010000000000000BRBEESACNOR9244
012013090902BEES4       010BANESTES    PN  EJ       R$  000000000004500000000000450000000000045000000000004500000000000450000000000044000000000004500006000000000000002200000000000000099000000000000000009999123100000010000000000000BRBEESACNPR6169
012013090902BEMA3       010BEMATECH    ON      NM   R$  000000000075600000000007670000000000746000000000075600000000007520000000000752000000000075500159000000000000037800000000000028603000000000000000009999123100000010000000000000BRBEMAACNOR0114
012013090996BEMA3F      020BEMATECH    ON      NM   R$  000000000075000000000007500000000000750000000000075000000000007500000000000755000000000081000002000000000000000026000000000000019500000000000000009999123100000010000000000000BRBEMAACNOR0114
012013090902BGIP4       010BANESE      PN           R$  000000000450000000000045000000000004401000000000446700000000044200000000004420000000000450000005000000000000000800000000000003574100000000000000009999123100000010000000000000BRBGIPACNPR8179
012013090902BHGR3       010BHG         ON      NM   R$  000000000145800000000014590000000001445000000000145000000000014500000000001450000000000145900052000000000000053900000000000078159100000000000000009999123100000010000000000000BRBHGRACNOR9101
012013090996BHGR3F      020BHG         ON      NM   R$  000000000140000000000014600000000001400000000000142600000000014510000000001447000000000158000004000000000000000063000000000000089865000000000000009999123100000010000000000000BRBHGRACNOR9101
012013090902BICB3       010BICBANCO    ON      N1   R$  000000000045500000000004550000000000455000000000045500000000004550000000000453000000000058100001000000000000000100000000000000045500000000000000009999123100000010000000000000BRBICBACNOR0131
012013090902BICB4       010BICBANCO    PN      N1   R$  000000000041500000000004270000000000400000000000041500000000004270000000000427000000000042801028000000000000900500000000000374149500000000000000009999123100000010000000000000BRBICBACNPR7131
012013090996BICB4F      020BICBANCO    PN      N1   R$  000000000040000000000004200000000000400000000000041000000000004200000000000415000000000042500006000000000000000079000000000000032440000000000000009999123100000010000000000000BRBICBACNPR7131
012013090962BICB4T      030BICBANCO    PN      N1030R$  000000000042600000000004270000000000404000000000042400000000004050000000000000000000000000000004000000000000010900000000000004632257000000000000009999123100000010000000000000BRBICBACNPR7131
012013090902BISA3       010BROOKFIELD  ON      NM   R$  000000000019900000000002010000000000192000000000019600000000001940000000000194000000000019507813000000000013442600000000002647676200000000000000009999123100000010000000000000BRBISAACNOR8109
012013090996BISA3F      020BROOKFIELD  ON      NM   R$  000000000019800000000002000000000000184000000000019600000000001940000000000192000000000019900046000000000000000980000000000000192851000000000000009999123100000010000000000000BRBISAACNOR8109
012013090962BISA3T      030BROOKFIELD  ON      NM016R$  000000000020000000000002010000000000194000000000019800000000001950000000000000000000000000000006000000000000015000000000000002982474000000000000009999123100000010000000000000BRBISAACNOR8109
012013090962BISA3T      030BROOKFIELD  ON      NM030R$  000000000019700000000002020000000000195000000000019900000000002020000000000000000000000000000008000000000000211000000000000042003861000000000000009999123100000010000000000000BRBISAACNOR8109
012013090962BISA3T      030BROOKFIELD  ON      NM060R$  000000000019900000000002000000000000199000000000019900000000002000000000000000000000000000000002000000000000010000000000000001999156000000000000009999123100000010000000000000BRBISAACNOR8109
012013090902BMIN4       010MERC INVEST PN           R$  000000000002400000000000240000000000023000000000002300000000000240000000000023000000000002500004000000000000031000000000000000743000000000000000009999123100000010000000000000BRBMINACNPR1160
012013090912BMLC11B     010FII BMBRC LCCI  ER  MB   R$  000000001130000000000116000000000011110000000001129600000000116000000000011110000000001160000016000000000000002074000000000023428400000000000000009999123100000010000000000000BRBMLCCTF004119
012013090902BMTO4       010BRASMOTOR   PN           R$  000000000008700000000000870000000000086000000000008600000000000870000000000085000000000008700007000000000000022000000000000001895000000000000000009999123100000010000000000000BRBMTOACNPR6065
012013090902BOBR4       010BOMBRIL     PN           R$  000000000065500000000006600000000000630000000000064300000000006600000000000635000000000066000003000000000000000400000000000000257500000000000000009999123100000010000000000000BRBOBRACNPR3127
012013090996BOBR4F      020BOMBRIL     PN           R$  000000000060000000000006310000000000600000000000061200000000006310000000000000000000000061000003000000000000000077000000000000047192000000000000009999123100000010000000000000BRBOBRACNPR3127
012013090914BOVA11      010ISHARES BOVACI           R$  000000000524500000000053380000000005195000000000529300000000053010000000005301000000000532005394000000000001154700000000006112820320000000000000009999123100000010000000000000BRBOVACTF003101
012013090996BOVA11F     020ISHARES BOVACI           R$  000000000520200000000053500000000005150000000000527300000000053500000000005156000000000535000014000000000000000040000000000000210959000000000000009999123100000010000000000000BRBOVACTF003101
012013090962BOVA11T     030ISHARES BOVACI        016R$  000000000532800000000053290000000005328000000000532800000000053290000000000000000000000000000002000000000000160000000000000852507958000000000000009999123100000010000000000000BRBOVACTF003101
012013090962BOVA11T     030ISHARES BOVACI        120R$  000000000531400000000053150000000005314000000000531400000000053150000000000000000000000000000002000000000000000005000000000000026571000000000000009999123100000010000000000000BRBOVACTF003101
012013090912BPFF11      010FII ABSOLUTOCI  ER       R$  000000000849900000000085000000000008404000000000847900000000084950000000008475000000000849500039000000000000003089000000000026193151000000000000009999123100000010000000000000BRBPFFCTF002105
012013090902BPHA3       010BR PHARMA   ON      NM   R$  000000000086300000000008680000000000838000000000085500000000008490000000000848000000000084901169000000000001431200000000001223832100000000000000009999123100000010000000000000BRBPHAACNOR6102
012013090996BPHA3F      020BR PHARMA   ON      NM   R$  000000000086300000000008700000000000840000000000084900000000008700000000000847000000000093900008000000000000000225000000000000191091000000000000009999123100000010000000000000BRBPHAACNOR6102
012013090962BPHA3T      030BR PHARMA   ON      NM030R$  000000000085700000000008580000000000857000000000085700000000008580000000000000000000000000000002000000000000005000000000000004286061000000000000009999123100000010000000000000BRBPHAACNOR6102
012013090902BPNM4       010PANAMERICANOPN      N1   R$  000000000051500000000005310000000000515000000000052500000000005200000000000520000000000052800315000000000000320300000000000168238300000000000000009999123100000010000000000000BRBPNMACNPR6111
012013090902BRAP3       010BRADESPAR   ON      N1   R$  000000000202700000000021190000000002027000000000209500000000021000000000002036000000000211000023000000000000010000000000000020956700000000000000009999123100000010000000000000BRBRAPACNOR5124
012013090996BRAP3F      020BRADESPAR   ON      N1   R$  000000000209000000000021000000000002060000000000209500000000020600000000002060000000000220900009000000000000000180000000000000377218000000000000009999123100000010000000000000BRBRAPACNOR5124
012013090902BRAP4       010BRADESPAR   PN      N1   R$  000000000253200000000026130000000002520000000000257800000000025900000000002581000000000259009767000000000002500700000000006448448600000000000000009999123100000010000000000000BRBRAPACNPR2124
012013090996BRAP4F      020BRADESPAR   PN      N1   R$  000000000252000000000026000000000002520000000000257000000000025410000000002542000000000259700196000000000000005721000000000014703375000000000000009999123100000010000000000000BRBRAPACNPR2124
012013090962BRAP4T      030BRADESPAR   PN      N1120R$  000000000262300000000026240000000002623000000000262300000000026240000000000000000000000000000002000000000000001000000000000002623463000000000000009999123100000010000000000000BRBRAPACNPR2124
012013090978BRAPL30     070BRAP        PN      N1000R$  000000000008300000000000830000000000082000000000008200000000000820000000000000000000000000000002000000000000367300000000000030265500000000000300002013121600000010000000000000BRBRAPACNPR2124
012013090982BRAPX22     080BRAPE       PN      N1000R$  000000000004500000000000450000000000045000000000004500000000000450000000000000000000000000000001000000000000367300000000000016528500000000000220002013121600000010000000000000BRBRAPACNPR2124
012013090982BRAPX24     080BRAPE       PN      N1000R$  000000000013500000000001350000000000135000000000013500000000001350000000000000000000000000000001000000000000367300000000000049585500000000000240002013121600000010000000000000BRBRAPACNPR2124
012013090914BRAX11      010ISHARES BRAXCI           R$  000000000415000000000042350000000004150000000000416500000000042350000000000000000000000423500006000000000000002990000000000012454410000000000000009999123100000010000000000000BRBRAXCTF002100
012013090912BRCR11      010FII BC FUND CI  ER       R$  000000001255000000000126000000000012430000000001254400000000125200000000012510000000001252000850000000000000023740000000000297815541000000000000009999123100000010000000000000BRBRCRCTF000133
012013090902BRFS3       010BRF SA      ON      NM   R$  000000000564900000000058800000000005649000000000580800000000058460000000005846000000000584910899000000000002762300000000016045103300000000000000009999123100000010000000000000BRBRFSACNOR8110
012013090996BRFS3F      020BRF SA      ON      NM   R$  000000000566000000000058790000000005655000000000578800000000058700000000005846000000000588200139000000000000004237000000000024532033000000000000009999123100000010000000000000BRBRFSACNOR8110
012013090962BRFS3T      030BRF SA      ON      NM016R$  000000000575900000000058850000000005751000000000580300000000058850000000000000000000000000000006000000000000003200000000000018571071000000000000009999123100000010000000000000BRBRFSACNOR8110
012013090962BRFS3T      030BRF SA      ON      NM030R$  000000000586200000000058630000000005862000000000586200000000058630000000000000000000000000000002000000000000000700000000000004103740000000000000009999123100000010000000000000BRBRFSACNOR8110
012013090962BRFS3T      030BRF SA      ON      NM120R$  000000000594800000000059480000000005948000000000594800000000059480000000000000000000000000000001000000000000000001000000000000005948000000000000009999123100000010000000000000BRBRFSACNOR8110
012013090902BRIN3       010BR INSURANCEON      NM   R$  000000000190600000000019380000000001866000000000188500000000018950000000001894000000000189501685000000000000418100000000000788508100000000000000009999123100000010000000000000BRBRINACNOR3106
012013090996BRIN3F      020BR INSURANCEON      NM   R$  000000000190500000000019590000000001875000000000190000000000018990000000001881000000000190000012000000000000000303000000000000575990000000000000009999123100000010000000000000BRBRINACNOR3106
012013090902BRKM3       010BRASKEM     ON      N1   R$  000000000126600000000012660000000001253000000000126100000000012650000000001252000000000126500005000000000000000700000000000000883300000000000000009999123100000010000000000000BRBRKMACNOR1110
012013090902BRKM5       010BRASKEM     PNA     N1   R$  000000000184200000000018780000000001835000000000185600000000018560000000001855000000000185608765000000000002264500000000004203581700000000000000009999123100000010000000000000BRBRKMACNPA4110
012013090996BRKM5F      020BRASKEM     PNA     N1   R$  000000000184000000000018700000000001840000000000185100000000018430000000001843000000000186200026000000000000000695000000000001287113000000000000009999123100000010000000000000BRBRKMACNPA4110
012013090962BRKM5T      030BRASKEM     PNA     N1030R$  000000000185400000000018550000000001854000000000185400000000018550000000000000000000000000000002000000000000054000000000000100139722000000000000009999123100000010000000000000BRBRKMACNPA4110
012013090978BRKMK50     070BRKM        PNA     N1000R$  000000000003700000000000380000000000035000000000003600000000000350000000000000000000000000000004000000000000500000000000000018438000000000000205002013111800000010000000000000BRBRKMACNPA4110
012013090902BRML3       010BR MALLS PARON      NM   R$  000000000189700000000019840000000001886000000000195100000000019810000000001972000000000198112709000000000004240500000000008276975200000000000000009999123100000010000000000000BRBRMLACNOR9105
012013090996BRML3F      020BR MALLS PARON      NM   R$  000000000188900000000019810000000001889000000000194800000000019700000000001944000000000196600072000000000000002331000000000004545742000000000000009999123100000010000000000000BRBRMLACNOR9105
012013090962BRML3T      030BR MALLS PARON      NM030R$  000000000192400000000019510000000001924000000000193000000000019510000000000000000000000000000004000000000000002900000000000005599386000000000000009999123100000010000000000000BRBRMLACNOR9105
012013090962BRML3T      030BR MALLS PARON      NM060R$  000000000193500000000019360000000001935000000000193500000000019360000000000000000000000000000002000000000000000500000000000000967958000000000000009999123100000010000000000000BRBRMLACNOR9105
012013090978BRMLI20     070BRML        ON      NM000R$  000000000000700000000000070000000000007000000000000700000000000070000000000000000000000000000002000000000000000200000000000000001400000000000200002013091600000010000000000000BRBRMLACNOR9105
012013090978BRMLJ21     070BRML        ON      NM000R$  000000000001200000000000200000000000012000000000001700000000000200000000000010000000000000000005000000000000017600000000000000305200000000000210002013102100000010000000000000BRBRMLACNOR9105
012013090902BRPR3       010BR PROPERT  ON      NM   R$  000000000181200000000018810000000001812000000000185300000000018700000000001868000000000187009024000000000002924100000000005420497000000000000000009999123100000010000000000000BRBRPRACNOR9112
012013090996BRPR3F      020BR PROPERT  ON      NM   R$  000000000183000000000018780000000001816000000000183900000000018780000000001817000000000187800025000000000000000505000000000000929136000000000000009999123100000010000000000000BRBRPRACNOR9112
012013090962BRPR3T      030BR PROPERT  ON      NM016R$  000000000186700000000018760000000001867000000000187300000000018760000000000000000000000000000004000000000000003000000000000005619503000000000000009999123100000010000000000000BRBRPRACNOR9112
012013090962BRPR3T      030BR PROPERT  ON      NM182R$  000000000194600000000019470000000001946000000000194600000000019470000000000000000000000000000002000000000000005400000000000010508486000000000000009999123100000010000000000000BRBRPRACNOR9112
012013090996BRSR3F      020BANRISUL    ON  EJ  N1   R$  000000000141800000000014390000000001418000000000142800000000014390000000001291000000000000000002000000000000000036000000000000051426000000000000009999123100000010000000000000BRBRSRACNOR3131
012013090902BRSR6       010BANRISUL    PNB EJ  N1   R$  000000000150000000000015380000000001489000000000151400000000015160000000001516000000000152904521000000000001142000000000001729304700000000000000009999123100000010000000000000BRBRSRACNPB4134
012013090996BRSR6F      020BANRISUL    PNB EJ  N1   R$  000000000149800000000015300000000001461000000000150900000000015300000000001480000000000153000041000000000000001116000000000001684794000000000000009999123100000010000000000000BRBRSRACNPB4134
012013090902BSEV3       010BIOSEV      ON      NM   R$  000000000093700000000009570000000000936000000000095000000000009360000000000936000000000095300011000000000000008500000000000008076500000000000000009999123100000010000000000000BRBSEVACNOR3100
012013090996BSEV3F      020BIOSEV      ON      NM   R$  000000000093400000000009450000000000934000000000093600000000009450000000000900000000000096900002000000000000000044000000000000041206000000000000009999123100000010000000000000BRBSEVACNOR3100
012013090902BTOW3       010B2W DIGITAL ON      NM   R$  000000000151700000000016000000000001512000000000157600000000015880000000001587000000000158801868000000000000467800000000000737453700000000000000009999123100000010000000000000BRBTOWACNOR8105
012013090996BTOW3F      020B2W DIGITAL ON      NM   R$  000000000152400000000016000000000001523000000000157100000000015980000000001585000000000159600043000000000000001025000000000001611654000000000000009999123100000010000000000000BRBTOWACNOR8105
012013090902BTTL4       010BATTISTELLA PN           R$  000000000010000000000001000000000000098000000000009800000000001000000000000097000000000010000011000000000000039800000000000003925000000000000000009999123100000010000000000000BRBTTLACNPR7105
012013090902BVMF3       010BMFBOVESPA  ON      NM   R$  000000000125500000000012750000000001241000000000126500000000012750000000001271000000000127530430000000000013624400000000017235427100000000000000009999123100000010000000000000BRBVMFACNOR3126
012013090996BVMF3F      020BMFBOVESPA  ON      NM   R$  000000000125500000000012760000000001240000000000126300000000012600000000001260000000000127000185000000000000006898000000000008715265000000000000009999123100000010000000000000BRBVMFACNOR3126
012013090962BVMF3T      030BMFBOVESPA  ON      NM060R$  000000000128100000000012820000000001281000000000128100000000012820000000000000000000000000000002000000000000100000000000000128168720000000000000009999123100000010000000000000BRBVMFACNOR3126
012013090962BVMF3T      030BMFBOVESPA  ON      NM074R$  000000000128900000000012900000000001289000000000128900000000012900000000000000000000000000000002000000000000003000000000000003868643000000000000009999123100000010000000000000BRBVMFACNOR3126
012013090978BVMFI10     070BVMF        ON      NM000R$  000000000026400000000002800000000000264000000000027500000000002800000000000160000000000000000004000000000000002300000000000000632800000000000098502013091600000010000000000000BRBVMFACNOR3125
012013090978BVMFI11     070BVMF        ON      NM000R$  000000000018600000000001860000000000165000000000017600000000001780000000000000000000000000000022000000000000011900000000000002106100000000000108502013091600000010000000000000BRBVMFACNOR3125
012013090978BVMFI12     070BVMF        ON      NM000R$  000000000007800000000000930000000000068000000000008100000000000900000000000089000000000000000070000000000000117400000000000009600900000000000118502013091600000010000000000000BRBVMFACNOR3125
012013090978BVMFI13     070BVMF        ON      NM000R$  000000000001000000000000150000000000010000000000001200000000000130000000000013000000000001400219000000000000569900000000000007173200000000000128502013091600000010000000000000BRBVMFACNOR3125
012013090978BVMFI14     070BVMF        ON      NM000R$  000000000000200000000000020000000000001000000000000100000000000010000000000000000000000000200015000000000000244500000000000000274000000000000138502013091600000010000000000000BRBVMFACNOR3125
012013090978BVMFI40     070BVMF        ON      NM000R$  000000000023500000000002350000000000226000000000023000000000002300000000000000000000000000000006000000000000003800000000000000877600000000000103502013091600000010000000000000BRBVMFACNOR3125
012013090978BVMFI41     070BVMF        ON      NM000R$  000000000012600000000001260000000000126000000000012600000000001260000000000000000000000000000001000000000000003500000000000000441000000000000113502013091600000010000000000000BRBVMFACNOR3125
012013090978BVMFI42     070BVMF        ON      NM000R$  000000000004100000000000490000000000036000000000004400000000000460000000000005000000000000000058000000000000151000000000000006735600000000000123502013091600000010000000000000BRBVMFACNOR3125
012013090978BVMFI43     070BVMF        ON      NM000R$  000000000000200000000000020000000000002000000000000200000000000020000000000001000000000000300020000000000000031200000000000000062400000000000133502013091600000010000000000000BRBVMFACNOR3125
012013090978BVMFJ11     070BVMF        ON      NM000R$  000000000019700000000002000000000000175000000000019100000000001900000000000186000000000000000145000000000000033600000000000006444600000000000108502013102100000010000000000000BRBVMFACNOR3125
012013090978BVMFJ12     070BVMF  FM    ON      NM000R$  000000000010400000000001160000000000094000000000010800000000001050000000000010000000000000000064000000000000148100000000000016127100000000000118502013102100000010000000000000BRBVMFACNOR3125
012013090978BVMFJ13     070BVMF  FM    ON      NM000R$  000000000004200000000000480000000000041000000000004300000000000450000000000040000000000004500404000000000000521500000000000022943100000000000128502013102100000010000000000000BRBVMFACNOR3125
012013090978BVMFJ14     070BVMF  FM    ON      NM000R$  000000000001000000000000120000000000007000000000000900000000000120000000000006000000000001500072000000000000120500000000000001168400000000000138502013102100000010000000000000BRBVMFACNOR3125
012013090978BVMFJ15     070BVMF        ON      NM000R$  000000000000100000000000010000000000001000000000000100000000000010000000000000000000000000200001000000000000000200000000000000000200000000000148502013102100000010000000000000BRBVMFACNOR3125
012013090978BVMFJ41     070BVMF        ON      NM000R$  000000000015300000000001550000000000131000000000014600000000001510000000000000000000000000000019000000000000050500000000000007391000000000000113502013102100000010000000000000BRBVMFACNOR3125
012013090978BVMFJ42     070BVMF  FM    ON      NM000R$  000000000006900000000000790000000000061000000000007600000000000790000000000000000000000008200113000000000001021800000000000077676900000000000123502013102100000010000000000000BRBVMFACNOR3125
012013090978BVMFJ43     070BVMF  FM    ON      NM000R$  000000000002200000000000250000000000020000000000002200000000000250000000000019000000000002600029000000000000063000000000000001445400000000000133502013102100000010000000000000BRBVMFACNOR3125
012013090978BVMFK12     070BVMF        ON      NM000R$  000000000012800000000001280000000000128000000000012800000000001280000000000000000000000000000001000000000000000100000000000000012800000000000118502013111800000010000000000000BRBVMFACNOR3125
012013090978BVMFK13     070BVMF  FM    ON      NM000R$  000000000006000000000000650000000000057000000000006100000000000570000000000000000000000000000012000000000000031800000000000001953000000000000128502013111800000010000000000000BRBVMFACNOR3125
012013090978BVMFK14     070BVMF  FM    ON      NM000R$  000000000002000000000000210000000000016000000000001800000000000190000000000005000000000002000277000000000000417200000000000007823200000000000138502013111800000010000000000000BRBVMFACNOR3125
012013090978BVMFK42     070BVMF  FM    ON      NM000R$  000000000008300000000000860000000000069000000000008000000000000760000000000000000000000000000009000000000000022200000000000001786900000000000125002013111800000010000000000000BRBVMFACNOR3126
012013090978BVMFK43     070BVMF  FM    ON      NM000R$  000000000003200000000000340000000000029000000000003100000000000310000000000006000000000000000018000000000000047200000000000001503400000000000135002013111800000010000000000000BRBVMFACNOR3126
012013090978BVMFK44     070BVMF        ON      NM000R$  000000000000900000000000100000000000009000000000000900000000000090000000000000000000000000000008000000000000024000000000000000222000000000000145002013111800000010000000000000BRBVMFACNOR3126
012013090978BVMFL13     070BVMF        ON      NM000R$  000000000007500000000000830000000000075000000000008100000000000780000000000000000000000000000011000000000000312300000000000025464300000000000128502013121600000010000000000000BRBVMFACNOR3125
012013090982BVMFU11     080BVMFE       ON      NM000R$  000000000000100000000000010000000000001000000000000100000000000010000000000000000000000000100013000000000000005000000000000000005000000000000108502013091600000010000000000000BRBVMFACNOR3125
012013090982BVMFU12     080BVMFE       ON      NM000R$  000000000000400000000000080000000000004000000000000500000000000050000000000004000000000000700026000000000000088300000000000000497200000000000118502013091600000010000000000000BRBVMFACNOR3125
012013090982BVMFU13     080BVMFE       ON      NM000R$  000000000003200000000000380000000000026000000000003200000000000300000000000020000000000007000029000000000000051900000000000001681900000000000128502013091600000010000000000000BRBVMFACNOR3125
012013090982BVMFU41     080BVMFE       ON      NM000R$  000000000000200000000000020000000000002000000000000200000000000020000000000001000000000000000001000000000000000100000000000000000200000000000113502013091600000010000000000000BRBVMFACNOR3125
012013090982BVMFU42     080BVMFE       ON      NM000R$  000000000001200000000000190000000000010000000000001200000000000130000000000010000000000001800039000000000000116600000000000001490400000000000123502013091600000010000000000000BRBVMFACNOR3125
012013090982BVMFV11     080BVMFE       ON      NM000R$  000000000000600000000000080000000000004000000000000600000000000060000000000000000000000001800012000000000000021000000000000000138200000000000108502013102100000010000000000000BRBVMFACNOR3125
012013090982BVMFV12     080BVMFE FM    ON      NM000R$  000000000002200000000000260000000000020000000000002200000000000210000000000019000000000002400046000000000000100000000000000002255900000000000118502013102100000010000000000000BRBVMFACNOR3125
012013090982BVMFV13     080BVMFE FM    ON      NM000R$  000000000005500000000000660000000000051000000000005500000000000560000000000050000000000007700045000000000000071500000000000003942900000000000128502013102100000010000000000000BRBVMFACNOR3125
012013090982BVMFV14     080BVMFE       ON      NM000R$  000000000012400000000001240000000000124000000000012400000000001240000000000000000000000000000001000000000000003000000000000000372000000000000138502013102100000010000000000000BRBVMFACNOR3125
012013090982BVMFV41     080BVMFE FM    ON      NM000R$  000000000001200000000000160000000000011000000000001300000000000120000000000000000000000000000014000000000000031500000000000000428500000000000113502013102100000010000000000000BRBVMFACNOR3125
012013090982BVMFV42     080BVMFE FM    ON      NM000R$  000000000003600000000000430000000000034000000000003600000000000420000000000000000000000000000032000000000000092800000000000003350800000000000123502013102100000010000000000000BRBVMFACNOR3125
012013090982BVMFV43     080BVMFE       ON      NM000R$  000000000008300000000000880000000000080000000000008300000000000840000000000000000000000000000007000000000000018400000000000001539100000000000133502013102100000010000000000000BRBVMFACNOR3125
012013090982BVMFW11     080BVMFE       ON      NM000R$  000000000001600000000000160000000000015000000000001500000000000150000000000000000000000000000002000000000000003600000000000000055800000000000108502013111800000010000000000000BRBVMFACNOR3125
012013090982BVMFW12     080BVMFE FM    ON      NM000R$  000000000003100000000000310000000000031000000000003100000000000310000000000000000000000000000001000000000000003700000000000000114700000000000118502013111800000010000000000000BRBVMFACNOR3125
012013090982BVMFW13     080BVMFE FM    ON      NM000R$  000000000006200000000000750000000000061000000000006300000000000660000000000000000000000000000016000000000000034000000000000002144100000000000128502013111800000010000000000000BRBVMFACNOR3125
012013090982BVMFW40     080BVMFE       ON      NM000R$  000000000001200000000000120000000000012000000000001200000000000120000000000000000000000000000001000000000000001800000000000000021600000000000105002013111800000010000000000000BRBVMFACNOR3126
012013090982BVMFW42     080BVMFE FM    ON      NM000R$  000000000004800000000000530000000000048000000000004800000000000530000000000000000000000000000002000000000000003800000000000000182900000000000125002013111800000010000000000000BRBVMFACNOR3126
012013090902CAMB4       010CAMBUCI     PN           R$  000000000018400000000001840000000000184000000000018400000000001840000000000185000000000018800002000000000000006100000000000001122400000000000000009999123100000010000000000000BRCAMBACNPR1117
012013090902CARD3       010CSU CARDSYSTON      NM   R$  000000000032300000000003230000000000312000000000031600000000003200000000000314000000000032100035000000000000029200000000000009250600000000000000009999123100000010000000000000BRCARDACNOR9105
012013090996CARD3F      020CSU CARDSYSTON      NM   R$  000000000031500000000003150000000000315000000000031500000000003150000000000311000000000031500001000000000000000015000000000000004725000000000000009999123100000010000000000000BRCARDACNOR9105
012013090996CBMA3F      020COBRASMA    ON           R$  000000000000600000000000060000000000006000000000000600000000000060000000000004000000000000600001000000000000000001000000000000000006000000000000009999123100000010000000000000BRCBMAACNOR4124
012013090902CBMA4       010COBRASMA    PN           R$  000000000000500000000000050000000000004000000000000400000000000040000000000004000000000000500004000000000000050000000000000000220000000000000000009999123100000010000000000000BRCBMAACNPR1124
012013090996CBMA4F      020COBRASMA    PN           R$  000000000000500000000000050000000000004000000000000400000000000040000000000003000000000000400002000000000000000501000000000000002005000000000000009999123100000010000000000000BRCBMAACNPR1124
012013090908CCHI3       010CHIARELLI   ON           R$  000000000001900000000000200000000000018000000000001800000000000190000000000018000000000001900053000000000000940000000000000017790000000000000000009999123100000010000000000000BRCCHIACNOR5123
012013090996CCHI3F      020CHIARELLI   ON           R$  000000000002000000000000200000000000018000000000001800000000000180000000000018000000000002000007000000000000023025000000000000428450000000000000009999123100000010000000000000BRCCHIACNOR5123
012013090908CCHI4       010CHIARELLI   PN           R$  000000000001600000000000170000000000016000000000001600000000000170000000000015000000000002000005000000000000050000000000000000820000000000000000009999123100000010000000000000BRCCHIACNPR2122
012013090902CCPR3       010CYRE COM-CCPON      NM   R$  000000000219600000000022300000000002151000000000215500000000021510000000002151000000000230000018000000000000030900000000000066618000000000000000009999123100000010000000000000BRCCPRACNOR9107
012013090996CCPR3F      020CYRE COM-CCPON      NM   R$  000000000219900000000021990000000002199000000000219900000000021990000000002136000000000228900001000000000000000060000000000000131940000000000000009999123100000010000000000000BRCCPRACNOR9107
012013090902CCRO3       010CCR SA      ON      NM   R$  000000000177200000000018250000000001766000000000180700000000018190000000001810000000000182014831000000000005379400000000009721934600000000000000009999123100000010000000000000BRCCROACNOR2122
012013090996CCRO3F      020CCR SA      ON      NM   R$  000000000178200000000018220000000001770000000000180200000000018050000000001773000000000181500102000000000000002932000000000005285349000000000000009999123100000010000000000000BRCCROACNOR2122
012013090978CCROJ19     070CCRO        ON      NM000R$  000000000003000000000000300000000000030000000000003000000000000300000000000000000000000000000001000000000000300000000000000009000000000000000190002013102100000010000000000000BRCCROACNOR2122
012013090982CCROV17     080CCROE       ON      NM000R$  000000000001300000000000130000000000013000000000001300000000000130000000000000000000000000000001000000000000300000000000000003900000000000000170002013102100000010000000000000BRCCROACNOR2122
012013090982CCROV18     080CCROE       ON      NM000R$  000000000004300000000000430000000000043000000000004300000000000430000000000000000000000000000001000000000000300000000000000012900000000000000180002013102100000010000000000000BRCCROACNOR2122
012013090902CCXC3       010CCX CARVAO  ON      NM   R$  000000000013700000000001420000000000132000000000013700000000001390000000000137000000000013900364000000000001800100000000000247961400000000000000009999123100000010000000000000BRCCXCACNOR5100
012013090996CCXC3F      020CCX CARVAO  ON      NM   R$  000000000015500000000001550000000000135000000000013900000000001500000000000137000000000015000007000000000000000150000000000000020890000000000000009999123100000010000000000000BRCCXCACNOR5100
012013090912CEOC11B     010FII CEO CCP CI  ER  MB   R$  000000000850000000000087850000000008450000000000850400000000084500000000008450000000000849000037000000000000001612000000000013709808000000000000009999123100000010000000000000BRCEOCCTF003110
012013090902CEPE5       010CELPE       PNA          R$  000000000200000000000020000000000002000000000000200000000000020000000000001855000000000200000001000000000000000400000000000000800000000000000000009999123100000010000000000000BRCEPEACNPA6151
012013090996CEPE5F      020CELPE       PNA          R$  000000000200000000000020000000000002000000000000200000000000020000000000002000000000000256300001000000000000000005000000000000010000000000000000009999123100000010000000000000BRCEPEACNPA6151
012013090902CESP3       010CESP        ON      N1   R$  000000000174000000000017450000000001714000000000174000000000017450000000001730000000000175000010000000000000020300000000000035327500000000000000009999123100000010000000000000BRCESPACNOR3160
012013090962CESP3T      030CESP        ON      N1030R$  000000000175500000000017560000000001755000000000175500000000017560000000000000000000000000000002000000000000010000000000000017558340000000000000009999123100000010000000000000BRCESPACNOR3160
012013090962CESP3T      030CESP        ON      N1060R$  000000000176900000000017700000000001769000000000176900000000017700000000000000000000000000000002000000000000008400000000000014861549000000000000009999123100000010000000000000BRCESPACNOR3160
012013090902CESP5       010CESP        PNA     N1   R$  000000000230000000000023000000000002300000000000230000000000023000000000002282000000000235000004000000000000000800000000000001840000000000000000009999123100000010000000000000BRCESPACNPA6108
012013090996CESP5F      020CESP        PNA     N1   R$  000000000205700000000022850000000002057000000000226500000000022850000000002200000000000230000003000000000000000078000000000000176742000000000000009999123100000010000000000000BRCESPACNPA6108
012013090902CESP6       010CESP        PNB     N1   R$  000000000228000000000023380000000002278000000000231400000000023080000000002307000000000233205703000000000001018200000000002356527100000000000000009999123100000010000000000000BRCESPACNPB4119
012013090996CESP6F      020CESP        PNB     N1   R$  000000000225100000000023350000000002251000000000229400000000023270000000002311000000000236900030000000000000000636000000000001459546000000000000009999123100000010000000000000BRCESPACNPB4119
012013090902CGAS5       010COMGAS      PNA          R$  000000000577200000000059290000000005750000000000578400000000057800000000005753000000000578000082000000000000013600000000000078672200000000000000009999123100000010000000000000BRCGASACNPA3129
012013090996CGAS5F      020COMGAS      PNA          R$  000000000601800000000060180000000005651000000000572700000000057890000000005650000000000578900023000000000000000158000000000000904966000000000000009999123100000010000000000000BRCGASACNPA3129
012013090902CGRA3       010GRAZZIOTIN  ON           R$  000000000160000000000016000000000001600000000000160000000000016000000000001600000000000162700003000000000000002000000000000003200000000000000000009999123100000010000000000000BRCGRAACNOR2061
012013090962CGRA3T      030GRAZZIOTIN  ON        360R$  000000000176800000000017680000000001768000000000176800000000017680000000000000000000000000000001000000000000000500000000000000884000000000000000009999123100000010000000000000BRCGRAACNOR2061
012013090902CGRA4       010GRAZZIOTIN  PN           R$  000000000171000000000017640000000001710000000000171600000000017640000000001730000000000176500061000000000000009800000000000016825400000000000000009999123100000010000000000000BRCGRAACNPR9061
012013090902CIEL3       010CIELO       ON      NM   R$  000000000575400000000057790000000005716000000000575300000000057610000000005761000000000576410694000000000002836800000000016320414600000000000000009999123100000010000000000000BRCIELACNOR3111
012013090996CIEL3F      020CIELO       ON      NM   R$  000000000571200000000058000000000005701000000000575600000000057010000000005700000000000580000150000000000000004294000000000024719817000000000000009999123100000010000000000000BRCIELACNOR3111
012013090962CIEL3T      030CIELO       ON      NM030R$  000000000579100000000058090000000005791000000000580300000000058030000000000000000000000000000036000000000000300200000000001742139591000000000000009999123100000010000000000000BRCIELACNOR3111
012013090962CIEL3T      030CIELO       ON      NM091R$  000000000585900000000059050000000005854000000000586700000000059050000000000000000000000000000012000000000000100000000000000586734427000000000000009999123100000010000000000000BRCIELACNOR3111
012013090978CIELK59     070CIEL        ON      NM000R$  000000000013200000000001320000000000132000000000013200000000001320000000000000000000000000000001000000000000020000000000000002640000000000000590002013111800000010000000000000BRCIELACNOR3111
012013090902CLSC4       010CELESC      PN      N2   R$  000000000176000000000017940000000001755000000000176400000000017700000000001756000000000177000062000000000000010900000000000019234000000000000000009999123100000010000000000000BRCLSCACNPR3107
012013090958CMGR3       010CEMAT       ON           R$  000000000042000000000004200000000000420000000000042000000000004200000000000401000000000048900001000000000000000300000000000000126000000000000000009999123100000010000000000000BRCMGRACNOR7114
012013090902CMIG3       010CEMIG       ON      N1   R$  000000000189900000000019080000000001885000000000189200000000018850000000001885000000000190200458000000000000130100000000000246182000000000000000009999123100000010000000000000BRCMIGACNOR6208
012013090996CMIG3F      020CEMIG       ON      N1   R$  000000000188000000000019700000000001880000000000189400000000019020000000001902000000000197000041000000000000000920000000000001742711000000000000009999123100000010000000000000BRCMIGACNOR6208
012013090902CMIG4       010CEMIG       PN      N1   R$  000000000189900000000019250000000001895000000000191500000000019250000000001923000000000192512789000000000004699700000000009003255400000000000000009999123100000010000000000000BRCMIGACNPR3208
012013090996CMIG4F      020CEMIG       PN      N1   R$  000000000190000000000019300000000001897000000000191300000000019270000000001914000000000192700166000000000000004057000000000007764986000000000000009999123100000010000000000000BRCMIGACNPR3208
012013090962CMIG4T      030CEMIG       PN      N1016R$  000000000191000000000019110000000001910000000000191000000000019110000000000000000000000000000002000000000000001000000000000001910830000000000000009999123100000010000000000000BRCMIGACNPR3208
012013090962CMIG4T      030CEMIG       PN      N1030R$  000000000192800000000019370000000001926000000000192800000000019270000000000000000000000000000008000000000000014300000000000027584460000000000000009999123100000010000000000000BRCMIGACNPR3208
012013090962CMIG4T      030CEMIG       PN      N1060R$  000000000192600000000019490000000001926000000000194300000000019490000000000000000000000000000006000000000000005500000000000010687039000000000000009999123100000010000000000000BRCMIGACNPR3208
012013090962CMIG4T      030CEMIG       PN      N1091R$  000000000193900000000019550000000001939000000000195200000000019540000000000000000000000000000008000000000000009700000000000018939511000000000000009999123100000010000000000000BRCMIGACNPR3208
012013090978CMIGI20     070CMIG        PN      N1000R$  000000000001000000000000120000000000010000000000001000000000000100000000000000000000000001000005000000000000004300000000000000045200000000000200002013091600000010000000000000BRCMIGACNPR3208
012013090982CMIGU19     080CMIGE       PN      N1000R$  000000000001500000000000150000000000015000000000001500000000000150000000000000000000000000000003000000000000003000000000000000045000000000000190002013091600000010000000000000BRCMIGACNPR3208
012013090912CNES11B     010FII CENESP  CI      MB   R$  000000001240000000000124000000000012200000000001222500000000122000000000012190000000001220000013000000000000000511000000000006247106000000000000009999123100000010000000000000BRCNESCTF001125
012013090902COCE3       010COELCE      ON           R$  000000000427400000000043680000000004274000000000430400000000043530000000003850000000000435800005000000000000000900000000000003874400000000000000009999123100000010000000000000BRCOCEACNOR0132
012013090902COCE5       010COELCE      PNA          R$  000000000410000000000041900000000004091000000000413400000000040990000000004099000000000411100089000000000000029300000000000121128700000000000000009999123100000010000000000000BRCOCEACNPA3133
012013090996COCE5F      020COELCE      PNA          R$  000000000415000000000041660000000003940000000000410300000000039400000000003948000000000419800019000000000000000178000000000000730477000000000000009999123100000010000000000000BRCOCEACNPA3133
012013090902CPFE3       010CPFL ENERGIAON      NM   R$  000000000197200000000020200000000001968000000000200300000000020080000000002008000000000201006209000000000001313900000000002632597400000000000000009999123100000010000000000000BRCPFEACNOR0122
012013090996CPFE3F      020CPFL ENERGIAON      NM   R$  000000000197200000000020480000000001972000000000200300000000020020000000002002000000000204800094000000000000002187000000000004382509000000000000009999123100000010000000000000BRCPFEACNOR0122
012013090962CPFE3T      030CPFL ENERGIAON      NM030R$  000000000200800000000020250000000002006000000000201300000000020250000000000000000000000000000006000000000000005500000000000011075172000000000000009999123100000010000000000000BRCPFEACNOR0122
012013090962CPFE3T      030CPFL ENERGIAON      NM060R$  000000000201200000000020130000000002012000000000201200000000020130000000000000000000000000000002000000000000001000000000000002012376000000000000009999123100000010000000000000BRCPFEACNOR0122
012013090978CPFEJ20     070CPFE        ON      NM000R$  000000000008000000000000800000000000080000000000008000000000000800000000000000000000000008000001000000000000020000000000000001600000000000000200002013102100000010000000000000BRCPFEACNOR0122
012013090902CPLE3       010COPEL       ON      N1   R$  000000000219000000000022350000000002190000000000219800000000021990000000002197000000000219900102000000000000027800000000000061119400000000000000009999123100000010000000000000BRCPLEACNOR8128
012013090962CPLE3T      030COPEL       ON      N1120R$  000000000224500000000022460000000002245000000000224500000000022460000000000000000000000000000002000000000000000500000000000001122743000000000000009999123100000010000000000000BRCPLEACNOR8128
012013090902CPLE6       010COPEL       PNB     N1   R$  000000000302600000000031260000000003026000000000310900000000031140000000003114000000000312003502000000000000601100000000001869211400000000000000009999123100000010000000000000BRCPLEACNPB9125
012013090996CPLE6F      020COPEL       PNB     N1   R$  000000000306600000000031300000000003066000000000309600000000031300000000003091000000000313000025000000000000000996000000000003085779000000000000009999123100000010000000000000BRCPLEACNPB9125
012013090902CPRE3       010CPFL RENOVAVON      NM   R$  000000000119000000000011980000000001189000000000119400000000011970000000001175000000000119700013000000000000005700000000000006810700000000000000009999123100000010000000000000BRCPREACNOR5100
012013090996CPRE3F      020CPFL RENOVAVON      NM   R$  000000000117800000000011900000000001178000000000118600000000011900000000001178000000000119000004000000000000000143000000000000169645000000000000009999123100000010000000000000BRCPREACNOR5100
012013090902CRDE3       010CR2         ON      NM   R$  000000000042000000000004200000000000410000000000041300000000004100000000000410000000000042000007000000000000012100000000000005002000000000000000009999123100000010000000000000BRCRDEACNOR1108
012013090902CREM3       010CREMER      ON      NM   R$  000000000144000000000014410000000001420000000000143000000000014360000000001423000000000144700051000000000000137600000000000196864000000000000000009999123100000010000000000000BRCREMACNOR2167
012013090902CRIV3       010ALFA FINANC ON           R$  000000000050800000000005080000000000508000000000050800000000005080000000000485000000000051800001000000000000000200000000000000101600000000000000009999123100000010000000000000BRCRIVACNOR4190
012013090902CRUZ3       010SOUZA CRUZ  ON           R$  000000000250600000000026170000000002506000000000258700000000026170000000002608000000000261708988000000000002437400000000006305756900000000000000009999123100000010000000000000BRCRUZACNOR0246
012013090996CRUZ3F      020SOUZA CRUZ  ON           R$  000000000252900000000026100000000002529000000000258100000000026030000000002621000000000264400082000000000000002623000000000006775766000000000000009999123100000010000000000000BRCRUZACNOR0246
012013090962CRUZ3S      030SOUZA CRUZ  ON        090R$  000000000261700000000026180000000002617000000000261700000000026180000000000000000000000000000002000000000000001200000000000003140814000000000000009999123100000010000000000000BRCRUZACNOR0246
012013090962CRUZ3T      030SOUZA CRUZ  ON        060R$  000000000261700000000026260000000002617000000000262100000000026260000000000000000000000000000004000000000000002000000000000005242938000000000000009999123100000010000000000000BRCRUZACNOR0246
012013090962CRUZ3T      030SOUZA CRUZ  ON        066R$  000000000265400000000026550000000002654000000000265400000000026550000000000000000000000000000002000000000000000500000000000001327143000000000000009999123100000010000000000000BRCRUZACNOR0246
012013090902CSAN3       010COSAN       ON      NM   R$  000000000418100000000043300000000004156000000000426700000000043000000000004298000000000430006803000000000002033900000000008680169700000000000000009999123100000010000000000000BRCSANACNOR6108
012013090996CSAN3F      020COSAN       ON      NM   R$  000000000417000000000043030000000004135000000000424500000000042850000000004200000000000428500044000000000000001180000000000005011924000000000000009999123100000010000000000000BRCSANACNOR6108
012013090962CSAN3T      030COSAN       ON      NM016R$  000000000420900000000042100000000004209000000000420900000000042100000000000000000000000000000002000000000000002000000000000008419213000000000000009999123100000010000000000000BRCSANACNOR6108
012013090902CSMG3       010COPASA      ON      NM   R$  000000000313500000000031840000000003115000000000315900000000031680000000003168000000000317501829000000000000283900000000000897067700000000000000009999123100000010000000000000BRCSMGACNOR5127
012013090996CSMG3F      020COPASA      ON      NM   R$  000000000312000000000032780000000003115000000000313300000000031600000000003116000000000328000007000000000000000222000000000000695626000000000000009999123100000010000000000000BRCSMGACNOR5127
012013090962CSMG3T      030COPASA      ON      NM030R$  000000000314600000000031470000000003146000000000314600000000031470000000000000000000000000000002000000000000000200000000000000629399000000000000009999123100000010000000000000BRCSMGACNOR5127
012013090962CSMG3T      030COPASA      ON      NM120R$  000000000337800000000033780000000003378000000000337800000000033780000000000000000000000000000001000000000000000003000000000000010134000000000000009999123100000010000000000000BRCSMGACNOR5127
012013090914CSMO11      010ISHARES CSMOCI           R$  000000000470000000000047730000000004700000000000475600000000047730000000004749000000000490000005000000000000000250000000000001189030000000000000009999123100000010000000000000BRCSMOCTF002100
012013090902CSNA3       010SID NACIONALON           R$  000000000091800000000009460000000000917000000000093500000000009370000000000936000000000093717730000000000010178600000000009520802800000000000000009999123100000010000000000000BRCSNAACNOR6243
012013090996CSNA3F      020SID NACIONALON           R$  000000000091000000000009420000000000904000000000093300000000009400000000000919000000000094000081000000000000002320000000000002165658000000000000009999123100000010000000000000BRCSNAACNOR6243
012013090962CSNA3T      030SID NACIONALON        030R$  000000000094700000000009480000000000945000000000094700000000009460000000000000000000000000000004000000000000152000000000000143947758000000000000009999123100000010000000000000BRCSNAACNOR6243
012013090962CSNA3T      030SID NACIONALON        045R$  000000000093900000000009400000000000939000000000093900000000009400000000000000000000000000000002000000000000001000000000000000939033000000000000009999123100000010000000000000BRCSNAACNOR6243
012013090962CSNA3T      030SID NACIONALON        060R$  000000000094900000000009520000000000949000000000095000000000009520000000000000000000000000000004000000000000005400000000000005132258000000000000009999123100000010000000000000BRCSNAACNOR6243
012013090962CSNA3T      030SID NACIONALON        091R$  000000000095600000000009570000000000956000000000095600000000009570000000000000000000000000000002000000000000002000000000000001912810000000000000009999123100000010000000000000BRCSNAACNOR6243
012013090962CSNA3T      030SID NACIONALON        120R$  000000000096500000000009660000000000965000000000096500000000009660000000000000000000000000000002000000000000100000000000000096594400000000000000009999123100000010000000000000BRCSNAACNOR6243
012013090978CSNAA9      070CSNA        ON        000R$  000000000013100000000001310000000000131000000000013100000000001310000000000000000000000000000001000000000000000300000000000000039300000000000088002014012000000010000000000000BRCSNAACNOR6242
012013090978CSNAI10     070CSNA        ON        000R$  000000000000600000000000060000000000006000000000000600000000000060000000000002000000000002000001000000000000000500000000000000003000000000000100002013091600000010000000000000BRCSNAACNOR6243
012013090978CSNAI7      070CSNA        ON        000R$  000000000025100000000002580000000000251000000000025400000000002580000000000235000000000000000004000000000000006000000000000001524000000000000068002013091600000010000000000000BRCSNAACNOR6242
012013090978CSNAI8      070CSNA        ON        000R$  000000000016500000000001650000000000157000000000016400000000001570000000000000000000000000000007000000000000020300000000000003341500000000000078002013091600000010000000000000BRCSNAACNOR6242
012013090978CSNAI82     070CSNA        ON        000R$  000000000014500000000001450000000000136000000000014200000000001360000000000000000000000000000002000000000000003000000000000000426000000000000080002013091600000010000000000000BRCSNAACNOR6242
012013090978CSNAI84     070CSNA        ON        000R$  000000000010000000000001000000000000096000000000009800000000000960000000000011000000000000000005000000000000006000000000000000590000000000000084002013091600000010000000000000BRCSNAACNOR6243
012013090978CSNAI88     070CSNA        ON        000R$  000000000006300000000000680000000000063000000000006400000000000680000000000000000000000000000003000000000000007000000000000000451000000000000088002013091600000010000000000000BRCSNAACNOR6243
012013090978CSNAI9      070CSNA        ON        000R$  000000000004500000000000520000000000041000000000004500000000000440000000000040000000000005400014000000000000027900000000000001276400000000000090002013091600000010000000000000BRCSNAACNOR6243
012013090978CSNAI92     070CSNA        ON        000R$  000000000003400000000000340000000000033000000000003300000000000330000000000000000000000000000010000000000000022000000000000000734000000000000092002013091600000010000000000000BRCSNAACNOR6243
012013090978CSNAI94     070CSNA        ON        000R$  000000000001900000000000230000000000019000000000002100000000000190000000000000000000000005000010000000000000036000000000000000757000000000000094002013091600000010000000000000BRCSNAACNOR6243
012013090978CSNAJ10     070CSNA        ON        000R$  000000000003200000000000330000000000026000000000003100000000000330000000000029000000000004500008000000000000009000000000000000287100000000000100002013102100000010000000000000BRCSNAACNOR6243
012013090978CSNAJ40     070CSNA        ON        000R$  000000000001800000000000180000000000018000000000001800000000000180000000000000000000000000000001000000000000006000000000000000108000000000000104002013102100000010000000000000BRCSNAACNOR6243
