00COTAHIST.2013BOVESPA 20130716                                                                                                                                                                                                                      
012013071610ABCB2       010ABC BRASIL  DIR PRE N2   R$  000000000018400000000001840000000000159000000000016800000000001630000000000000000000000021000003000000000000000300000000000000050600000000000000009999123100000010000000000000BRABCBD03PR5119
012013071696ABCB2F      020ABC BRASIL  DIR PRE N2   R$  000000000018000000000002100000000000180000000000020500000000002100000000000000000000000021000002000000000000000085000000000000017430000000000000009999123100000010000000000000BRABCBD03PR5119
012013071602ABCB4       010ABC BRASIL  PN      N2   R$  000000000127400000000012800000000001228000000000125500000000012580000000001258000000000126300827000000000000405000000000000508618900000000000000009999123100000010000000000000BRABCBACNPR4120
012013071696ABCB4F      020ABC BRASIL  PN      N2   R$  000000000127100000000012710000000001225000000000125100000000012250000000001226000000000126000028000000000000000280000000000000350432000000000000009999123100000010000000000000BRABCBACNPR4120
012013071602ABRE11      010ABRIL EDUCA UNT     N2   R$  000000000407000000000040700000000003972000000000400300000000040380000000004038000000000403900500000000000000227700000000000911693500000000000000009999123100000010000000000000BRABRECDAM15102
012013071696ABRE11F     020ABRIL EDUCA UNT     N2   R$  000000000399100000000040440000000003991000000000401100000000040440000000003992000000000404400006000000000000000145000000000000581655000000000000009999123100000010000000000000BRABRECDAM15102
012013071602AEDU3       010ANHANGUERA  ON      NM   R$  000000000129000000000013150000000001281000000000129600000000013150000000001297000000000131502915000000000001352000000000001753040100000000000000009999123100000010000000000000BRAEDUACNOR9107
012013071696AEDU3F      020ANHANGUERA  ON      NM   R$  000000000128700000000013200000000001280000000000130100000000013200000000001270000000000130100010000000000000000375000000000000488206000000000000009999123100000010000000000000BRAEDUACNOR9107
012013071612AEFI11      010FII AESAPAR CI           R$  000000001230000000000123190000000012200000000001227800000000123150000000012199000000001231500028000000000000002475000000000030390141000000000000009999123100000010000000000000BRAEFICTF002119
012013071602AELP3       010AES ELPA    ON           R$  000000000082500000000008250000000000824000000000082400000000008240000000000745000000000081700002000000000000010100000000000008322500000000000000009999123100000010000000000000BRAELPACNOR2119
012013071696AELP3F      020AES ELPA    ON           R$  000000000083200000000008320000000000832000000000083200000000008320000000000618000000000084800001000000000000000012000000000000009984000000000000009999123100000010000000000000BRAELPACNOR2119
012013071662AELP3T      030AES ELPA    ON        030R$  000000000083000000000008310000000000830000000000083000000000008310000000000000000000000000000002000000000000010000000000000008303448000000000000009999123100000010000000000000BRAELPACNOR2119
012013071612AGCX11      010FII AG CAIXACI           R$  000000010080000000001010000000000100600000000010090100000001010000000000100600000000010100000012000000000000000488000000000049240003000000000000009999123100000010000000000000BRAGCXCTF003108
012013071602AGEN11      010AGRENCO     DR3          R$  000000000004000000000000420000000000039000000000004000000000000420000000000041000000000004200347000000000002416900000000000098954600000000000000009999123100000010000000000000BRAGENBDR001100
012013071696AGEN11F     020AGRENCO     DR3          R$  000000000004000000000000400000000000040000000000004000000000000400000000000042000000000004400001000000000000000034000000000000001360000000000000009999123100000010000000000000BRAGENBDR001100
012013071602AGRO3       010BRASILAGRO  ON      NM   R$  000000000104500000000010680000000001044000000000105000000000010500000000001050000000000114900031000000000000044100000000000046314900000000000000009999123100000010000000000000BRAGROACNOR7102
012013071696AGRO3F      020BRASILAGRO  ON      NM   R$  000000000105000000000010530000000001050000000000105000000000010530000000000000000000000105300002000000000000000066000000000000069348000000000000009999123100000010000000000000BRAGROACNOR7102
012013071662AGRO3T      030BRASILAGRO  ON      NM181R$  000000000109500000000010960000000001095000000000109500000000010960000000000000000000000000000002000000000000005000000000000005479976000000000000009999123100000010000000000000BRAGROACNOR7102
012013071602ALLL3       010ALL AMER LATON      NM   R$  000000000087200000000008780000000000857000000000086400000000008630000000000861000000000086303378000000000001551400000000001341128600000000000000009999123100000010000000000000BRALLLACNOR6118
012013071696ALLL3F      020ALL AMER LATON      NM   R$  000000000085500000000008730000000000850000000000086300000000008620000000000863000000000087100026000000000000000693000000000000598333000000000000009999123100000010000000000000BRALLLACNOR6118
012013071678ALLLL11     070ALLL        ON      NM000R$  000000000000700000000000070000000000007000000000000700000000000070000000000000000000000000000001000000000000012000000000000000084000000000000110002013121600000010000000000000BRALLLACNOR6118
012013071682ALLLX75     080ALLLE       ON      NM000R$  000000000001600000000000160000000000016000000000001600000000000160000000000000000000000000000001000000000000012000000000000000192000000000000075002013121600000010000000000000BRALLLACNOR6118
012013071682ALLLX9      080ALLLE       ON      NM000R$  000000000006600000000000660000000000066000000000006600000000000660000000000000000000000000000001000000000000012000000000000000792000000000000090002013121600000010000000000000BRALLLACNOR6118
012013071602ALPA3       010ALPARGATAS  ON      N1   R$  000000000103400000000010360000000001028000000000103500000000010300000000001029000000000107400011000000000000079400000000000082253100000000000000009999123100000010000000000000BRALPAACNOR0202
012013071696ALPA3F      020ALPARGATAS  ON      N1   R$  000000000101000000000010100000000001010000000000101000000000010100000000000970000000000119900001000000000000000010000000000000010100000000000000009999123100000010000000000000BRALPAACNOR0202
012013071602ALPA4       010ALPARGATAS  PN      N1   R$  000000000134200000000013500000000001310000000000132600000000013300000000001330000000000133401772000000000000590100000000000783035900000000000000009999123100000010000000000000BRALPAACNPR7202
012013071696ALPA4F      020ALPARGATAS  PN      N1   R$  000000000134200000000013420000000001315000000000132800000000013150000000001315000000000136000043000000000000001153000000000001532046000000000000009999123100000010000000000000BRALPAACNPR7202
012013071602ALSC3       010ALIANSCE    ON      NM   R$  000000000195400000000020010000000001947000000000196600000000019660000000001966000000000198002175000000000000657100000000001292163500000000000000009999123100000010000000000000BRALSCACNOR0104
012013071696ALSC3F      020ALIANSCE    ON      NM   R$  000000000179200000000019960000000001792000000000194400000000019730000000001903000000000211600007000000000000000237000000000000460787000000000000009999123100000010000000000000BRALSCACNOR0104
012013071602ALUP11      010ALUPAR      UNT     N2   R$  000000000180900000000018090000000001780000000000179600000000017980000000001790000000000179800189000000000000081800000000000146948500000000000000009999123100000010000000000000BRALUPCDAM15100
012013071696ALUP11F     020ALUPAR      UNT     N2   R$  000000000180000000000018100000000001785000000000179500000000017850000000001795000000000198900015000000000000000273000000000000490270000000000000009999123100000010000000000000BRALUPCDAM15100
012013071602AMAR3       010LOJAS MARISAON      NM   R$  000000000224800000000023170000000002232000000000227900000000022850000000002285000000000228800540000000000000110100000000000250964200000000000000009999123100000010000000000000BRAMARACNOR4109
012013071696AMAR3F      020LOJAS MARISAON      NM   R$  000000000225700000000022570000000002257000000000225700000000022570000000002250000000000229500001000000000000000096000000000000216672000000000000009999123100000010000000000000BRAMARACNOR4109
012013071678AMARL56     070AMAR        ON      NM000R$  000000000007800000000000780000000000078000000000007800000000000780000000000000000000000000000001000000000000004800000000000000374400000000000265002013121600000010000000000000BRAMARACNOR4109
012013071682AMARX20     080AMARE       ON      NM000R$  000000000004400000000000440000000000044000000000004400000000000440000000000000000000000000000001000000000000004800000000000000211200000000000200002013121600000010000000000000BRAMARACNOR4109
012013071682AMARX22     080AMARE       ON      NM000R$  000000000011200000000001120000000000112000000000011200000000001120000000000000000000000000000001000000000000004800000000000000537600000000000220002013121600000010000000000000BRAMARACNOR4109
012013071602AMBV3       010AMBEV       ON           R$  000000000831100000000083290000000008111000000000818000000000081810000000008181000000000819100993000000000000144100000000001178862800000000000000009999123100000010000000000000BRAMBVACNOR4153
012013071696AMBV3F      020AMBEV       ON           R$  000000000830000000000083190000000008130000000000820300000000082800000000008172000000000828000040000000000000001018000000000008351040000000000000009999123100000010000000000000BRAMBVACNOR4153
012013071662AMBV3T      030AMBEV       ON        030R$  000000000825900000000082600000000008259000000000825900000000082600000000000000000000000000000002000000000000001000000000000008259040000000000000009999123100000010000000000000BRAMBVACNOR4153
012013071602AMBV4       010AMBEV       PN           R$  000000000835300000000083870000000008171000000000824100000000082500000000008250000000000825103923000000000000796800000000006566603500000000000000009999123100000010000000000000BRAMBVACNPR1153
012013071696AMBV4F      020AMBEV       PN           R$  000000000835000000000083850000000008173000000000823700000000082550000000008217000000000830000188000000000000004369000000000035991719000000000000009999123100000010000000000000BRAMBVACNPR1153
012013071662AMBV4T      030AMBEV       PN        030R$  000000000832100000000083220000000008270000000000830400000000082710000000000000000000000000000004000000000000001500000000000012456607000000000000009999123100000010000000000000BRAMBVACNPR1153
012013071662AMBV4T      030AMBEV       PN        062R$  000000000837800000000083790000000008345000000000836100000000083460000000000000000000000000000004000000000000002000000000000016723523000000000000009999123100000010000000000000BRAMBVACNPR1153
012013071662AMBV4T      030AMBEV       PN        090R$  000000000853500000000085360000000008535000000000853500000000085360000000000000000000000000000002000000000000001000000000000008535726000000000000009999123100000010000000000000BRAMBVACNPR1153
012013071678AMBVH83     070AMBV        PN        000R$  000000000021300000000002200000000000213000000000021600000000002200000000000000000000000000000012000000000000006900000000000001494700000000000830002013081900000010000000000000BRAMBVACNPR1153
012013071678AMBVH84     070AMBV        PN        000R$  000000000016000000000001600000000000160000000000016000000000001600000000000059000000000020000001000000000000002000000000000000320000000000000840002013081900000010000000000000BRAMBVACNPR1153
012013071678AMBVH85     070AMBV        PN        000R$  000000000008100000000001170000000000081000000000010000000000001130000000000000000000000013800028000000000000031600000000000003173800000000000850002013081900000010000000000000BRAMBVACNPR1153
012013071678AMBVH86     070AMBV        PN        000R$  000000000013500000000001350000000000080000000000010000000000000820000000000000000000000000000025000000000000019600000000000001962700000000000860002013081900000010000000000000BRAMBVACNPR1153
012013071678AMBVH89     070AMBV        PN        000R$  000000000004000000000000400000000000039000000000003900000000000390000000000000000000000000000004000000000000002500000000000000099500000000000890002013081900000010000000000000BRAMBVACNPR1153
012013071602ARTR3       010ARTERIS     ON      NM   R$  000000000206800000000020790000000002034000000000205800000000020530000000002053000000000205502642000000000001435000000000002953920500000000000000009999123100000010000000000000BRARTRACNOR3101
012013071696ARTR3F      020ARTERIS     ON      NM   R$  000000000206100000000020720000000002001000000000204500000000020510000000002044000000000211300009000000000000000236000000000000482800000000000000009999123100000010000000000000BRARTRACNOR3101
012013071602ARZZ3       010AREZZO CO   ON      NM   R$  000000000359100000000037280000000003579000000000364200000000037050000000003693000000000370500956000000000000256300000000000933491900000000000000009999123100000010000000000000BRARZZACNOR3108
012013071696ARZZ3F      020AREZZO CO   ON      NM   R$  000000000354500000000037000000000003545000000000364800000000037000000000003582000000000370900008000000000000000154000000000000561936000000000000009999123100000010000000000000BRARZZACNOR3108
012013071602AUTM3       010AUTOMETAL   ON      NM   R$  000000000179400000000018340000000001733000000000179200000000018000000000001794000000000180900714000000000000223600000000000400875600000000000000009999123100000010000000000000BRAUTMACNOR8109
012013071696AUTM3F      020AUTOMETAL   ON      NM   R$  000000000180000000000018000000000001800000000000180000000000018000000000001700000000000192200001000000000000000006000000000000010800000000000000009999123100000010000000000000BRAUTMACNOR8109
012013071602BAHI3       010BAHEMA      ON           R$  000000000052000000000005200000000000520000000000052000000000005200000000000500000000000052000001000000000000000600000000000000312000000000000000009999123100000010000000000000BRBAHIACNOR1066
012013071602BALM4       010BAUMER      PN           R$  000000000755000000000075600000000007550000000000755300000000075600000000007500000000000760000003000000000000000300000000000002266000000000000000009999123100000010000000000000BRBALMACNPR2043
012013071602BAUH4       010EXCELSIOR   PN           R$  000000000102400000000010500000000001024000000000103600000000010500000000000970000000000105000003000000000000000500000000000000518400000000000000009999123100000010000000000000BRBAUHACNPR3108
012013071696BAUH4F      020EXCELSIOR   PN           R$  000000000101500000000010150000000001015000000000101500000000010150000000000000000000000110000001000000000000000060000000000000060900000000000000009999123100000010000000000000BRBAUHACNPR3108
012013071602BAZA3       010AMAZONIA    ON           R$  000000000003300000000000330000000000033000000000003300000000000330000000000033000000000003400003000000000000008000000000000000264000000000000000009999123100000010000000000000BRBAZAACNOR0163
012013071696BAZA3F      020AMAZONIA    ON           R$  000000000003300000000000330000000000033000000000003300000000000330000000000033000000000003400001000000000000000192000000000000006336000000000000009999123100000010000000000000BRBAZAACNOR0163
012013071602BBAS3       010BRASIL      ON      NM   R$  000000000219000000000022250000000002164000000000219400000000022200000000002214000000000222013905000000000007644000000000016773335900000000000000009999123100000010000000000000BRBBASACNOR3237
012013071696BBAS3F      020BRASIL      ON      NM   R$  000000000215200000000022230000000002152000000000219600000000022160000000002191000000000221600486000000000000012241000000000026905414000000000000009999123100000010000000000000BRBBASACNOR3237
012013071662BBAS3T      030BRASIL      ON      NM030R$  000000000219200000000021960000000002192000000000219500000000021960000000000000000000000000000006000000000000016200000000000035560616000000000000009999123100000010000000000000BRBBASACNOR3237
012013071662BBAS3T      030BRASIL      ON      NM090R$  000000000225900000000022600000000002259000000000225900000000022600000000000000000000000000000002000000000000000700000000000001581669000000000000009999123100000010000000000000BRBBASACNOR3237
012013071678BBASC24     070BBAS        ON      NM000R$  000000000015900000000001590000000000159000000000015900000000001590000000000000000000000000000001000000000001000000000000000159000000000000000240002014031700000010000000000000BRBBASACNOR3237
012013071678BBASH19     070BBAS        ON      NM000R$  000000000029700000000003400000000000295000000000030000000000003400000000000000000000000000000009000000000000013600000000000004091600000000000190002013081900000010000000000000BRBBASACNOR3237
012013071678BBASH20     070BBAS  FM    ON      NM000R$  000000000023100000000002520000000000202000000000022400000000002510000000000000000000000027500096000000000000161500000000000036284800000000000200002013081900000010000000000000BRBBASACNOR3237
012013071678BBASH21     070BBAS  FM    ON      NM000R$  000000000016400000000001870000000000145000000000016700000000001870000000000130000000000020000104000000000000150900000000000025256100000000000207602013081900000010000000000000BRBBASACNOR3236
012013071678BBASH22     070BBAS  FM    ON      NM000R$  000000000008600000000001140000000000080000000000010200000000001100000000000090000000000012500246000000000000445900000000000045660500000000000217602013081900000010000000000000BRBBASACNOR3236
012013071678BBASH23     070BBAS  FM    ON      NM000R$  000000000004300000000000590000000000039000000000005200000000000550000000000032000000000005700183000000000000154000000000000008145300000000000227602013081900000010000000000000BRBBASACNOR3236
012013071678BBASH24     070BBAS  FM    ON      NM000R$  000000000003000000000000450000000000027000000000003800000000000400000000000022000000000004900193000000000000256600000000000009862000000000000231702013081900000010000000000000BRBBASACNOR3233
012013071678BBASH25     070BBAS        ON      NM000R$  000000000001400000000000190000000000012000000000001400000000000180000000000011000000000002000035000000000000057100000000000000825900000000000241702013081900000010000000000000BRBBASACNOR3233
012013071678BBASH26     070BBAS        ON      NM000R$  000000000000400000000000060000000000004000000000000500000000000050000000000002000000000000700010000000000000035100000000000000188700000000000256602013081900000010000000000000BRBBASACNOR3235
012013071678BBASH27     070BBAS        ON      NM000R$  000000000000200000000000020000000000002000000000000200000000000020000000000002000000000002800001000000000000002300000000000000004600000000000266602013081900000010000000000000BRBBASACNOR3235
012013071678BBASH28     070BBAS        ON      NM000R$  000000000000100000000000010000000000001000000000000100000000000010000000000000000000000000400002000000000000002100000000000000002100000000000276602013081900000010000000000000BRBBASACNOR3235
012013071678BBASH55     070BBAS        ON      NM000R$  000000000000800000000000080000000000006000000000000600000000000060000000000000000000000000000014000000000000142700000000000000871400000000000251602013081900000010000000000000BRBBASACNOR3235
012013071678BBASI20     070BBAS  FM    ON      NM000R$  000000000024400000000002750000000000232000000000025100000000002710000000000000000000000000000046000000000000088100000000000022148200000000000200002013091600000010000000000000BRBBASACNOR3237
012013071678BBASI21     070BBAS  FM    ON      NM000R$  000000000016000000000001980000000000160000000000017700000000001930000000000000000000000000000046000000000000096600000000000017169300000000000210002013091600000010000000000000BRBBASACNOR3237
012013071678BBASI22     070BBAS  FM    ON      NM000R$  000000000011500000000001460000000000115000000000014200000000001450000000000010000000000000000042000000000000395700000000000056323700000000000217602013091600000010000000000000BRBBASACNOR3236
012013071678BBASI23     070BBAS  FM    ON      NM000R$  000000000007300000000000910000000000073000000000008500000000000900000000000031000000000000000015000000000000031600000000000002690300000000000227602013091600000010000000000000BRBBASACNOR3236
012013071678BBASI24     070BBAS  FM    ON      NM000R$  000000000003600000000000520000000000036000000000004400000000000510000000000026000000000000000012000000000000012400000000000000556100000000000237602013091600000010000000000000BRBBASACNOR3236
012013071678BBASI25     070BBAS        ON      NM000R$  000000000002400000000000290000000000024000000000002500000000000290000000000016000000000004000013000000000000016000000000000000400300000000000246602013091600000010000000000000BRBBASACNOR3235
012013071678BBASI26     070BBAS        ON      NM000R$  000000000001300000000000160000000000013000000000001400000000000160000000000010000000000009800016000000000000053300000000000000768600000000000256602013091600000010000000000000BRBBASACNOR3235
012013071678BBASI27     070BBAS        ON      NM000R$  000000000000800000000000080000000000008000000000000800000000000080000000000007000000000001500001000000000000004000000000000000032000000000000267602013091600000010000000000000BRBBASACNOR3236
012013071678BBASJ22     070BBAS        ON      NM000R$  000000000014500000000001450000000000145000000000014500000000001450000000000000000000000000000001000000000000000400000000000000058000000000000220002013102100000010000000000000BRBBASACNOR3237
012013071678BBASJ23     070BBAS        ON      NM000R$  000000000012400000000001250000000000124000000000012400000000001250000000000000000000000000000002000000000000001500000000000000186300000000000226602013102100000010000000000000BRBBASACNOR3235
012013071678BBASJ24     070BBAS        ON      NM000R$  000000000007900000000000790000000000079000000000007900000000000790000000000000000000000000000001000000000000001400000000000000110600000000000237602013102100000010000000000000BRBBASACNOR3236
012013071682BBASO18     080BBASE       ON      NM000R$  000000000004500000000000450000000000045000000000004500000000000450000000000000000000000000000001000000000001000000000000000045000000000000000180002014031700000010000000000000BRBBASACNOR3237
012013071682BBASO22     080BBASE       ON      NM000R$  000000000015900000000001590000000000159000000000015900000000001590000000000000000000000000000001000000000001000000000000000159000000000000000220002014031700000010000000000000BRBBASACNOR3237
012013071682BBAST17     080BBASE       ON      NM000R$  000000000000300000000000030000000000003000000000000300000000000030000000000000000000000000000001000000000000000100000000000000000300000000000170002013081900000010000000000000BRBBASACNOR3237
012013071682BBAST18     080BBASE       ON      NM000R$  000000000000400000000000040000000000004000000000000400000000000040000000000003000000000000000001000000000000006000000000000000024000000000000180002013081900000010000000000000BRBBASACNOR3237
012013071682BBAST19     080BBASE FM    ON      NM000R$  000000000001100000000000110000000000008000000000001000000000000080000000000000000000000000000004000000000000003700000000000000039800000000000190002013081900000010000000000000BRBBASACNOR3237
012013071682BBAST20     080BBASE FM    ON      NM000R$  000000000002600000000000260000000000020000000000002200000000000200000000000012000000000003000003000000000000002100000000000000048000000000000200002013081900000010000000000000BRBBASACNOR3237
012013071682BBAST21     080BBASE FM    ON      NM000R$  000000000003900000000000390000000000026000000000003100000000000260000000000011000000000012500012000000000000017000000000000000530000000000000207602013081900000010000000000000BRBBASACNOR3236
012013071682BBAST22     080BBASE FM    ON      NM000R$  000000000006900000000000750000000000052000000000005600000000000530000000000020000000000007300215000000000000566700000000000031984400000000000217602013081900000010000000000000BRBBASACNOR3236
012013071682BBAST23     080BBASE       ON      NM000R$  000000000013200000000001320000000000107000000000012200000000001070000000000000000000000000000006000000000000020000000000000002458000000000000227602013081900000010000000000000BRBBASACNOR3236
012013071682BBAST24     080BBASE       ON      NM000R$  000000000014100000000001410000000000128000000000013100000000001280000000000000000000000000000002000000000000003600000000000000473800000000000231702013081900000010000000000000BRBBASACNOR3233
012013071682BBASU19     080BBASE FM    ON      NM000R$  000000000002100000000000210000000000017000000000001900000000000170000000000000000000000000000004000000000000004300000000000000082300000000000190002013091600000010000000000000BRBBASACNOR3237
012013071682BBASU20     080BBASE FM    ON      NM000R$  000000000003900000000000390000000000029000000000003400000000000290000000000000000000000000000017000000000000036100000000000001240800000000000200002013091600000010000000000000BRBBASACNOR3237
012013071682BBASU21     080BBASE FM    ON      NM000R$  000000000006600000000000660000000000049000000000006000000000000490000000000000000000000000000014000000000000027000000000000001628700000000000210002013091600000010000000000000BRBBASACNOR3237
012013071682BBASU22     080BBASE FM    ON      NM000R$  000000000009300000000000960000000000073000000000007500000000000730000000000000000000000000000031000000000000355300000000000026760000000000000217602013091600000010000000000000BRBBASACNOR3236
012013071682BBASU23     080BBASE       ON      NM000R$  000000000014800000000001480000000000139000000000014200000000001420000000000000000000000000000014000000000000037800000000000005368900000000000227602013091600000010000000000000BRBBASACNOR3236
012013071682BBASU24     080BBASE       ON      NM000R$  000000000020900000000002090000000000178000000000019900000000001780000000000000000000000000000011000000000000038600000000000007709800000000000237602013091600000010000000000000BRBBASACNOR3236
012013071682BBASU25     080BBASE       ON      NM000R$  000000000028700000000002870000000000280000000000028200000000002810000000000000000000000000000005000000000000012000000000000003387000000000000246602013091600000010000000000000BRBBASACNOR3235
012013071602BBDC3       010BRADESCO    ON      N1   R$  000000000321600000000032350000000003159000000000318200000000032000000000003200000000000320207744000000000002531600000000008057499400000000000000009999123100000010000000000000BRBBDCACNOR1604
012013071696BBDC3F      020BRADESCO    ON      N1   R$  000000000321600000000032980000000003080000000000317800000000032980000000003113000000000329800047000000000000001421000000000004521017000000000000009999123100000010000000000000BRBBDCACNOR1604
012013071602BBDC4       010BRADESCO    PN      N1   R$  000000000282000000000028350000000002755000000000278300000000027930000000002793000000000279818813000000000006568000000000018280268500000000000000009999123100000010000000000000BRBBDCACNPR8604
012013071696BBDC4F      020BRADESCO    PN      N1   R$  000000000282400000000028290000000002756000000000278300000000028000000000002800000000000280200152000000000000004763000000000013260039000000000000009999123100000010000000000000BRBBDCACNPR8604
012013071662BBDC4T      030BRADESCO    PN      N1016R$  000000000278600000000027870000000002786000000000278600000000027870000000000000000000000000000002000000000000100000000000000278665500000000000000009999123100000010000000000000BRBBDCACNPR8604
012013071662BBDC4T      030BRADESCO    PN      N1030R$  000000000280600000000028080000000002790000000000279500000000028080000000000000000000000000000012000000000000114100000000000318952297000000000000009999123100000010000000000000BRBBDCACNPR8604
012013071662BBDC4T      030BRADESCO    PN      N1045R$  000000000280500000000028060000000002805000000000280500000000028060000000000000000000000000000002000000000000100000000000000280524750000000000000009999123100000010000000000000BRBBDCACNPR8604
012013071662BBDC4T      030BRADESCO    PN      N1062R$  000000000281500000000028160000000002815000000000281500000000028160000000000000000000000000000002000000000000100000000000000281551500000000000000009999123100000010000000000000BRBBDCACNPR8604
012013071662BBDC4T      030BRADESCO    PN      N1120R$  000000000284800000000028490000000002848000000000284800000000028490000000000000000000000000000002000000000000016000000000000045573330000000000000009999123100000010000000000000BRBBDCACNPR8604
012013071678BBDCH25     070BBDC        PN      N1000R$  000000000033600000000003480000000000336000000000034300000000003480000000000000000000000000000002000000000000005000000000000001716000000000000248002013081900000010000000000000BRBBDCACNPR8602
012013071678BBDCH26     070BBDC        PN      N1000R$  000000000025900000000002710000000000228000000000024500000000002710000000000210000000000028800098000000000000062500000000000015343500000000000258002013081900000010000000000000BRBBDCACNPR8602
012013071678BBDCH27     070BBDC        PN      N1000R$  000000000019800000000001980000000000160000000000017500000000001910000000000165000000000019900183000000000000226600000000000039795800000000000268002013081900000010000000000000BRBBDCACNPR8602
012013071678BBDCH28     070BBDC        PN      N1000R$  000000000013000000000001300000000000106000000000011600000000001270000000000092000000000000000122000000000000137800000000000016020800000000000278002013081900000010000000000000BRBBDCACNPR8602
012013071678BBDCH29     070BBDC        PN      N1000R$  000000000008500000000000860000000000061000000000006800000000000760000000000062000000000008000211000000000000291500000000000019869700000000000288002013081900000010000000000000BRBBDCACNPR8602
012013071678BBDCH30     070BBDC        PN      N1000R$  000000000004600000000000480000000000031000000000003600000000000410000000000033000000000004800063000000000000096500000000000003545100000000000298002013081900000010000000000000BRBBDCACNPR8602
012013071678BBDCH31     070BBDC        PN      N1000R$  000000000001800000000000220000000000016000000000001800000000000210000000000016000000000002500072000000000000096000000000000001783700000000000307602013081900000010000000000000BRBBDCACNPR8600
012013071678BBDCH32     070BBDC        PN      N1000R$  000000000001100000000000110000000000007000000000000900000000000110000000000002000000000001100007000000000000013800000000000000127300000000000318002013081900000010000000000000BRBBDCACNPR8602
012013071678BBDCH33     070BBDC        PN      N1000R$  000000000000300000000000030000000000003000000000000300000000000030000000000000000000000001900001000000000000001100000000000000003300000000000327802013081900000010000000000000BRBBDCACNPR8601
012013071678BBDCH34     070BBDC        PN      N1000R$  000000000002800000000000290000000000019000000000002500000000000240000000000016000000000002800006000000000000003700000000000000095500000000000305502013081900000010000000000000BRBBDCACNPR8595
012013071678BBDCI27     070BBDC        PN      N1000R$  000000000022300000000002320000000000200000000000021500000000002290000000000000000000000000000085000000000000129900000000000028031500000000000268002013091600000010000000000000BRBBDCACNPR8602
012013071678BBDCI28     070BBDC        PN      N1000R$  000000000016000000000001690000000000143000000000015400000000001650000000000000000000000000000058000000000000093600000000000014452200000000000278002013091600000010000000000000BRBBDCACNPR8602
012013071678BBDCI29     070BBDC        PN      N1000R$  000000000010900000000001120000000000096000000000010300000000001110000000000092000000000011900028000000000000040800000000000004238000000000000288002013091600000010000000000000BRBBDCACNPR8602
012013071678BBDCI30     070BBDC        PN      N1000R$  000000000007500000000000750000000000060000000000006500000000000710000000000052000000000007800014000000000000020500000000000001333600000000000298002013091600000010000000000000BRBBDCACNPR8602
012013071678BBDCI31     070BBDC        PN      N1000R$  000000000019100000000001910000000000174000000000018200000000001810000000000000000000000000000004000000000000006300000000000001146600000000000273102013091600000010000000000000BRBBDCACNPR8590
012013071678BBDCI33     070BBDC        PN      N1000R$  000000000006700000000000670000000000067000000000006700000000000670000000000000000000000000000001000000000000002000000000000000134000000000000297402013091600000010000000000000BRBBDCACNPR8598
012013071678BBDCI34     070BBDC        PN      N1000R$  000000000000900000000000090000000000009000000000000900000000000090000000000000000000000000000001000000000000003000000000000000027000000000000338002013091600000010000000000000BRBBDCACNPR8602
012013071678BBDCI37     070BBDC        PN      N1000R$  000000000001100000000000110000000000011000000000001100000000000110000000000000000000000000000001000000000000003000000000000000033000000000000333802013091600000010000000000000BRBBDCACNPR8598
012013071678BBDCI81     070BBDC        PN      N1000R$  000000000004300000000000440000000000039000000000004200000000000430000000000000000000000000000018000000000000029000000000000001241000000000000308002013091600000010000000000000BRBBDCACNPR8602
012013071678BBDCJ33     070BBDC        PN      N1000R$  000000000003000000000000300000000000030000000000003000000000000300000000000000000000000000000001000000000000000300000000000000009000000000000328002013102100000010000000000000BRBBDCACNPR8602
012013071682BBDCT25     080BBDCE       PN      N1000R$  000000000001800000000000190000000000016000000000001700000000000160000000000000000000000000000099000000000000076700000000000001336200000000000248002013081900000010000000000000BRBBDCACNPR8602
012013071682BBDCT26     080BBDCE       PN      N1000R$  000000000003600000000000360000000000026000000000003000000000000260000000000000000000000000000131000000000000146700000000000004485300000000000258002013081900000010000000000000BRBBDCACNPR8602
012013071682BBDCT27     080BBDCE       PN      N1000R$  000000000006200000000000620000000000048000000000005500000000000480000000000050000000000000000128000000000000117200000000000006472400000000000268002013081900000010000000000000BRBBDCACNPR8602
012013071682BBDCT28     080BBDCE       PN      N1000R$  000000000008200000000001030000000000082000000000009400000000000890000000000000000000000010000026000000000000049000000000000004639900000000000278002013081900000010000000000000BRBBDCACNPR8602
012013071682BBDCT29     080BBDCE       PN      N1000R$  000000000015900000000001590000000000129000000000014900000000001290000000000080000000000000000060000000000000104200000000000015572800000000000288002013081900000010000000000000BRBBDCACNPR8602
012013071682BBDCT30     080BBDCE       PN      N1000R$  000000000021800000000002180000000000218000000000021800000000002180000000000120000000000000000001000000000000000300000000000000065400000000000298002013081900000010000000000000BRBBDCACNPR8602
012013071682BBDCT34     080BBDCE       PN      N1000R$  000000000028800000000002880000000000261000000000027700000000002610000000000000000000000000000007000000000000012800000000000003558300000000000305502013081900000010000000000000BRBBDCACNPR8595
012013071682BBDCU26     080BBDCE       PN      N1000R$  000000000006000000000000600000000000060000000000006000000000000600000000000000000000000000000001000000000000001200000000000000072000000000000260002013091600000010000000000000BRBBDCACNPR8604
012013071682BBDCU27     080BBDCE       PN      N1000R$  000000000008300000000000840000000000069000000000007800000000000690000000000000000000000000000007000000000000013700000000000001069300000000000268002013091600000010000000000000BRBBDCACNPR8602
012013071682BBDCU28     080BBDCE       PN      N1000R$  000000000012600000000001260000000000105000000000011700000000001050000000000000000000000000000064000000000000085500000000000010028900000000000278002013091600000010000000000000BRBBDCACNPR8602
012013071682BBDCU29     080BBDCE       PN      N1000R$  000000000017300000000001770000000000147000000000016500000000001470000000000000000000000000000065000000000000095800000000000015823800000000000288002013091600000010000000000000BRBBDCACNPR8602
012013071682BBDCU30     080BBDCE       PN      N1000R$  000000000021900000000002240000000000219000000000022100000000002240000000000000000000000000000002000000000000004000000000000000886000000000000298002013091600000010000000000000BRBBDCACNPR8602
012013071682BBDCU31     080BBDCE       PN      N1000R$  000000000010000000000001000000000000100000000000010000000000001000000000000000000000000000000001000000000000002000000000000000200000000000000273102013091600000010000000000000BRBBDCACNPR8590
012013071682BBDCU33     080BBDCE       PN      N1000R$  000000000021500000000002280000000000215000000000022200000000002260000000000000000000000000000005000000000000008200000000000001821200000000000297402013091600000010000000000000BRBBDCACNPR8598
012013071682BBDCV27     080BBDCE       PN      N1000R$  000000000010400000000001040000000000099000000000010100000000000990000000000000000000000000000002000000000000002400000000000000243600000000000268002013102100000010000000000000BRBBDCACNPR8602
012013071612BBFI11B     010FII BB PROGRCI      MB   R$  000000042400000000004240000000000423500000000042388400000004240000000000423500000000042450000007000000000000000013000000000005510500000000000000009999123100000010000000000000BRBBFICTF006196
012013071612BBPO11      010FII BB PRGIICI           R$  000000001090000000000109400000000010825000000001088400000000108900000000010890000000001092000255000000000000028593000000000311211615000000000000009999123100000010000000000000BRBBPOCTF003108
012013071612BBRC11      010FII BB CORP CI           R$  000000000950000000000095990000000009500000000000954900000000095990000000009300000000000950000004000000000000000202000000000001929098000000000000009999123100000010000000000000BRBBRCCTF004122
012013071602BBRK3       010BR BROKERS  ON      NM   R$  000000000057000000000005740000000000555000000000056100000000005680000000000561000000000056803108000000000001010600000000000567938600000000000000009999123100000010000000000000BRBBRKACNOR4108
012013071696BBRK3F      020BR BROKERS  ON      NM   R$  000000000056200000000006950000000000561000000000060500000000006950000000000545000000000069500007000000000000000176000000000000106526000000000000009999123100000010000000000000BRBBRKACNOR4108
012013071602BBSE3       010BBSEGURIDADEON      NM   R$  000000000175000000000017600000000001715000000000173400000000017410000000001735000000000174111039000000000003055600000000005300427500000000000000009999123100000010000000000000BRBBSEACNOR5100
012013071696BBSE3F      020BBSEGURIDADEON      NM   R$  000000000175000000000017600000000001709000000000173400000000017300000000001722000000000173000170000000000000005519000000000009573352000000000000009999123100000010000000000000BRBBSEACNOR5100
012013071662BBSE3T      030BBSEGURIDADEON      NM016R$  000000000174000000000017410000000001733000000000173700000000017340000000000000000000000000000004000000000000007500000000000013033218000000000000009999123100000010000000000000BRBBSEACNOR5100
012013071602BBTG11      010BTG PACTUAL UNT          R$  000000000281000000000028100000000002762000000000279300000000027800000000002780000000000278400374000000000000363900000000001016709300000000000000009999123100000010000000000000BRBBTGUNT007104
012013071696BBTG11F     020BTG PACTUAL UNT          R$  000000000280300000000028050000000002800000000000280000000000028000000000002755000000000281200009000000000000000213000000000000596491000000000000009999123100000010000000000000BRBBTGUNT007104
012013071612BBVJ11      010FII C JARDIMCI           R$  000000000769900000000077000000000007452000000000757900000000076490000000007601000000000764900079000000000000006502000000000049284905000000000000009999123100000010000000000000BRBBVJCTF001131
012013071612BCFF11B     010FII BC FFII CI  ER  MB   R$  000000000960100000000097000000000009520000000000964400000000096500000000009650000000000966500096000000000000005330000000000051402715000000000000009999123100000010000000000000BRBCFFCTF000140
012013071602BEEF3       010MINERVA     ON      NM   R$  000000000090500000000009250000000000891000000000091000000000009120000000000910000000000091303105000000000001366400000000001244394900000000000000009999123100000010000000000000BRBEEFACNOR6104
012013071696BEEF3F      020MINERVA     ON      NM   R$  000000000091000000000009200000000000905000000000091100000000009050000000000906000000000092000014000000000000000343000000000000312640000000000000009999123100000010000000000000BRBEEFACNOR6104
012013071662BEEF3T      030MINERVA     ON      NM030R$  000000000091800000000009190000000000918000000000091800000000009190000000000000000000000000000002000000000000002500000000000002295960000000000000009999123100000010000000000000BRBEEFACNOR6104
012013071610BEES1       010BANESTES    DIR ORD      R$  000000000000300000000000030000000000002000000000000200000000000020000000000001000000000000300008000000000000070000000000000000205000000000000000009999123100000010000000000000BRBEESD03OR0241
012013071602BEES3       010BANESTES    ON  ES       R$  000000000004700000000000480000000000047000000000004700000000000480000000000047000000000004800011000000000000032500000000000001529800000000000000009999123100000010000000000000BRBEESACNOR9242
012013071602BEES4       010BANESTES    PN  ES       R$  000000000004500000000000450000000000045000000000004500000000000450000000000042000000000004500001000000000000000100000000000000004500000000000000009999123100000010000000000000BRBEESACNPR6167
012013071602BEMA3       010BEMATECH    ON      NM   R$  000000000070300000000007140000000000690000000000070000000000007050000000000704000000000071200205000000000000054900000000000038433200000000000000009999123100000010000000000000BRBEMAACNOR0113
012013071696BEMA3F      020BEMATECH    ON      NM   R$  000000000071100000000007130000000000709000000000071100000000007090000000000692000000000071100004000000000000000190000000000000135120000000000000009999123100000010000000000000BRBEMAACNOR0113
012013071602BHGR3       010BHG         ON      NM   R$  000000000151200000000015700000000001490000000000152000000000015700000000001570000000000157400123000000000000039800000000000060528700000000000000009999123100000010000000000000BRBHGRACNOR9101
012013071696BHGR3F      020BHG         ON      NM   R$  000000000150000000000015090000000001500000000000150500000000015090000000001255000000000169900003000000000000000071000000000000106874000000000000009999123100000010000000000000BRBHGRACNOR9101
012013071602BICB4       010BICBANCO    PN      N1   R$  000000000040000000000004000000000000393000000000039600000000004000000000000398000000000040000091000000000000087500000000000034710400000000000000009999123100000010000000000000BRBICBACNPR7131
012013071696BICB4F      020BICBANCO    PN      N1   R$  000000000040000000000004000000000000391000000000039500000000003910000000000393000000000040900004000000000000000156000000000000061748000000000000009999123100000010000000000000BRBICBACNPR7131
012013071602BIOM4       010BIOMM       PN           R$  000000000083400000000008500000000000834000000000084200000000008500000000000825000000000089700002000000000000002000000000000001684000000000000000009999123100000010000000000000BRBIOMACNPR9101
012013071602BISA3       010BROOKFIELD  ON      NM   R$  000000000015800000000001650000000000154000000000015900000000001620000000000161000000000016202438000000000005976600000000000951439600000000000000009999123100000010000000000000BRBISAACNOR8109
012013071696BISA3F      020BROOKFIELD  ON      NM   R$  000000000015900000000001640000000000154000000000015800000000001540000000000154000000000016400022000000000000000525000000000000083322000000000000009999123100000010000000000000BRBISAACNOR8109
012013071662BISA3T      030BROOKFIELD  ON      NM062R$  000000000016000000000001610000000000160000000000016000000000001610000000000000000000000000000002000000000000420000000000000067375308000000000000009999123100000010000000000000BRBISAACNOR8109
012013071662BISA3T      030BROOKFIELD  ON      NM063R$  000000000016000000000001610000000000160000000000016000000000001610000000000000000000000000000002000000000000318000000000000051027806000000000000009999123100000010000000000000BRBISAACNOR8109
012013071662BISA3T      030BROOKFIELD  ON      NM120R$  000000000016200000000001630000000000162000000000016200000000001630000000000000000000000000000002000000000000004000000000000000649570000000000000009999123100000010000000000000BRBISAACNOR8109
012013071602BMEB3       010MERC BRASIL ON           R$  000000000170000000000017000000000001700000000000170000000000017000000000001530000000000200000002000000000000000200000000000000340000000000000000009999123100000010000000000000BRBMEBACNOR8189
012013071602BMEB4       010MERC BRASIL PN           R$  000000000113200000000011320000000001132000000000113200000000011320000000000000000000000113300005000000000000012300000000000013923600000000000000009999123100000010000000000000BRBMEBACNPR5190
012013071612BMLC11B     010FII BMBRC LCCI  ER  MB   R$  000000001170000000000117000000000011700000000001170000000000117000000000011502000000001170000006000000000000000413000000000004832100000000000000009999123100000010000000000000BRBMLCCTF004117
012013071602BMTO4       010BRASMOTOR   PN           R$  000000000008400000000000870000000000084000000000008400000000000870000000000084000000000008700002000000000000006000000000000000507000000000000000009999123100000010000000000000BRBMTOACNPR6065
012013071614BOVA11      010ISHARES BOVACI           R$  000000000461700000000046590000000004553000000000459600000000046120000000004590000000000461203086000000000002930680000000013470887500000000000000009999123100000010000000000000BRBOVACTF003101
012013071696BOVA11F     020ISHARES BOVACI           R$  000000000459400000000045940000000004510000000000457200000000045800000000004570000000000461800010000000000000000025000000000000114317000000000000009999123100000010000000000000BRBOVACTF003101
012013071678BOVAH48     070BOVA        CI        000R$  000000000005800000000000580000000000058000000000005800000000000580000000000000000000000000000002000000000000011600000000000000672800000000000480002013081900000010000000000000BRBOVACTF003101
012013071696BPAT11F     020PATAGONIA   DR3          R$  000000000220000000000022000000000002200000000000220000000000022000000000002000000000000220000001000000000000000001000000000000002200000000000000009999123100000010000000000000BRBPATBDR005104
012013071612BPFF11      010FII ABSOLUTOCI           R$  000000000870000000000087970000000008600000000000866400000000087000000000008600000000000870000027000000000000001874000000000016237597000000000000009999123100000010000000000000BRBPFFCTF002103
012013071602BPHA3       010BR PHARMA   ON      NM   R$  000000000106500000000010670000000001038000000000104800000000010500000000001048000000000105801268000000000001218700000000001277545800000000000000009999123100000010000000000000BRBPHAACNOR6102
012013071696BPHA3F      020BR PHARMA   ON      NM   R$  000000000106100000000010610000000001001000000000103000000000010600000000001053000000000109300008000000000000000345000000000000355586000000000000009999123100000010000000000000BRBPHAACNOR6102
012013071602BPNM4       010PANAMERICANOPN      N1   R$  000000000052900000000005300000000000525000000000052800000000005300000000000524000000000053000083000000000000029200000000000015434100000000000000009999123100000010000000000000BRBPNMACNPR6111
012013071696BPNM4F      020PANAMERICANOPN      N1   R$  000000000050000000000005200000000000500000000000050300000000005200000000000503000000000053000004000000000000000034000000000000017120000000000000009999123100000010000000000000BRBPNMACNPR6111
012013071602BRAP3       010BRADESPAR   ON      N1   R$  000000000176200000000018390000000001751000000000178300000000018250000000001781000000000182500033000000000000012600000000000022478100000000000000009999123100000010000000000000BRBRAPACNOR5124
012013071696BRAP3F      020BRADESPAR   ON      N1   R$  000000000174200000000017980000000001740000000000175200000000017670000000001771000000000179900008000000000000000188000000000000329442000000000000009999123100000010000000000000BRBRAPACNOR5124
012013071662BRAP3T      030BRADESPAR   ON      N1062R$  000000000180800000000018090000000001808000000000180800000000018090000000000000000000000000000002000000000000007500000000000013563600000000000000009999123100000010000000000000BRBRAPACNOR5124
012013071602BRAP4       010BRADESPAR   PN      N1   R$  000000000214900000000021770000000002136000000000215500000000021730000000002172000000000217303859000000000001186600000000002557285600000000000000009999123100000010000000000000BRBRAPACNPR2124
012013071696BRAP4F      020BRADESPAR   PN      N1   R$  000000000212800000000022140000000002128000000000215700000000021520000000002152000000000216900051000000000000001629000000000003514070000000000000009999123100000010000000000000BRBRAPACNPR2124
012013071612BRCR11      010FII BC FUND CI  ER       R$  000000001359900000000137000000000013570000000001362200000000135800000000013580000000001359000186000000000000009192000000000125221264000000000000009999123100000010000000000000BRBRCRCTF000131
012013071602BRFS3       010BRF SA      ON      NM   R$  000000000482700000000048270000000004745000000000477900000000048050000000004803000000000480504880000000000001017800000000004864385800000000000000009999123100000010000000000000BRBRFSACNOR8110
012013071696BRFS3F      020BRF SA      ON      NM   R$  000000000476000000000048150000000004750000000000478000000000047980000000004785000000000479800143000000000000003909000000000018687343000000000000009999123100000010000000000000BRBRFSACNOR8110
012013071662BRFS3T      030BRF SA      ON      NM030R$  000000000481500000000048350000000004815000000000481700000000048350000000000000000000000000000006000000000000001300000000000006263367000000000000009999123100000010000000000000BRBRFSACNOR8110
012013071662BRFS3T      030BRF SA      ON      NM120R$  000000000487400000000048810000000004874000000000487700000000048810000000000000000000000000000004000000000000002000000000000009754982000000000000009999123100000010000000000000BRBRFSACNOR8110
012013071678BRFSH47     070BRFS        ON      NM000R$  000000000018200000000001870000000000181000000000018300000000001870000000000000000000000000000005000000000000004300000000000000787700000000000470002013081900000010000000000000BRBRFSACNOR8110
012013071678BRFSI51     070BRFS        ON      NM000R$  000000000008500000000000850000000000085000000000008500000000000850000000000000000000000000000002000000000000021300000000000001810500000000000510002013091600000010000000000000BRBRFSACNOR8110
012013071682BRFSU46     080BRFSE       ON      NM000R$  000000000017000000000001700000000000170000000000017000000000001700000000000000000000000000000001000000000000021300000000000003621000000000000460002013091600000010000000000000BRBRFSACNOR8110
012013071682BRFSU48     080BRFSE       ON      NM000R$  000000000026000000000002600000000000260000000000026000000000002600000000000000000000000000000001000000000000021300000000000005538000000000000480002013091600000010000000000000BRBRFSACNOR8110
012013071602BRIN3       010BR INSURANCEON      NM   R$  000000000213400000000021470000000002110000000000212400000000021100000000002107000000000211000965000000000000320700000000000681368400000000000000009999123100000010000000000000BRBRINACNOR3105
012013071696BRIN3F      020BR INSURANCEON      NM   R$  000000000215000000000021500000000002147000000000214700000000021470000000002120000000000214700002000000000000000006000000000000012885000000000000009999123100000010000000000000BRBRINACNOR3105
012013071602BRIV4       010ALFA INVEST PN           R$  000000000060000000000006000000000000580000000000059300000000006000000000000581000000000060200003000000000000000300000000000000178000000000000000009999123100000010000000000000BRBRIVACNPR3196
012013071602BRKM3       010BRASKEM     ON      N1   R$  000000000113900000000011540000000001139000000000114700000000011390000000001119000000000114000006000000000000001000000000000001147100000000000000009999123100000010000000000000BRBRKMACNOR1110
012013071602BRKM5       010BRASKEM     PNA     N1   R$  000000000171700000000017290000000001645000000000166800000000016720000000001672000000000168005574000000000001281100000000002137638500000000000000009999123100000010000000000000BRBRKMACNPA4110
012013071696BRKM5F      020BRASKEM     PNA     N1   R$  000000000171600000000017180000000001659000000000168100000000017000000000001671000000000170500043000000000000001169000000000001966334000000000000009999123100000010000000000000BRBRKMACNPA4110
012013071662BRKM5T      030BRASKEM     PNA     N1030R$  000000000166900000000016700000000001661000000000166200000000016620000000000000000000000000000004000000000000002400000000000003991073000000000000009999123100000010000000000000BRBRKMACNPA4110
012013071602BRML3       010BR MALLS PARON      NM   R$  000000000199900000000019990000000001938000000000195900000000019640000000001964000000000196808916000000000002658900000000005209054900000000000000009999123100000010000000000000BRBRMLACNOR9105
012013071696BRML3F      020BR MALLS PARON      NM   R$  000000000199000000000019900000000001937000000000195500000000019640000000001964000000000199200044000000000000001420000000000002776284000000000000009999123100000010000000000000BRBRMLACNOR9105
012013071662BRML3T      030BR MALLS PARON      NM030R$  000000000196400000000019650000000001964000000000196400000000019650000000000000000000000000000002000000000000001000000000000001964072000000000000009999123100000010000000000000BRBRMLACNOR9105
012013071678BRMLH21     070BRML        ON      NM000R$  000000000001400000000000200000000000014000000000001900000000000200000000000005000000000000000004000000000000001800000000000000034800000000000210002013081900000010000000000000BRBRMLACNOR9105
012013071678BRMLH50     070BRML        ON      NM000R$  000000000002600000000000270000000000026000000000002600000000000270000000000000000000000000000002000000000000400000000000000010600000000000000205002013081900000010000000000000BRBRMLACNOR9105
012013071682BRMLT48     080BRMLE       ON      NM000R$  000000000001500000000000150000000000015000000000001500000000000150000000000000000000000000000001000000000000400000000000000006000000000000000185002013081900000010000000000000BRBRMLACNOR9105
012013071682BRMLT49     080BRMLE       ON      NM000R$  000000000004000000000000400000000000040000000000004000000000000400000000000000000000000000000001000000000000400000000000000016000000000000000195002013081900000010000000000000BRBRMLACNOR9105
012013071602BRPR3       010BR PROPERT  ON      NM   R$  000000000201500000000020190000000001944000000000196500000000019600000000001958000000000196005593000000000001637100000000003217812200000000000000009999123100000010000000000000BRBRPRACNOR9112
012013071696BRPR3F      020BR PROPERT  ON      NM   R$  000000000200000000000020080000000001935000000000197800000000020080000000001956000000000200800036000000000000001067000000000002111486000000000000009999123100000010000000000000BRBRPRACNOR9112
012013071678BRPRL22     070BRPR        ON      NM000R$  000000000011800000000001180000000000118000000000011800000000001180000000000000000000000000000001000000000000012000000000000001416000000000000220002013121600000010000000000000BRBRPRACNOR9112
012013071682BRPRX18     080BRPRE       ON      NM000R$  000000000007100000000000710000000000071000000000007100000000000710000000000000000000000000000001000000000000012000000000000000852000000000000180002013121600000010000000000000BRBRPRACNOR9112
012013071682BRPRX46     080BRPRE       ON      NM000R$  000000000003700000000000370000000000037000000000003700000000000370000000000000000000000000000001000000000000012000000000000000444000000000000165002013121600000010000000000000BRBRPRACNOR9112
012013071602BRSR3       010BANRISUL    ON      N1   R$  000000000127100000000012710000000001271000000000127100000000012710000000001271000000000135400002000000000000000200000000000000254200000000000000009999123100000010000000000000BRBRSRACNOR3130
012013071696BRSR3F      020BANRISUL    ON      N1   R$  000000000121800000000012180000000001218000000000121800000000012180000000001218000000000140000001000000000000000002000000000000002436000000000000009999123100000010000000000000BRBRSRACNOR3130
012013071696BRSR5F      020BANRISUL    PNA     N1   R$  000000000135000000000013500000000001350000000000135000000000013500000000001358000000000150000003000000000000000031000000000000041850000000000000009999123100000010000000000000BRBRSRACNPA6134
012013071602BRSR6       010BANRISUL    PNB     N1   R$  000000000139600000000014150000000001388000000000140000000000014030000000001401000000000140302973000000000001152600000000001614035200000000000000009999123100000010000000000000BRBRSRACNPB4133
012013071696BRSR6F      020BANRISUL    PNB     N1   R$  000000000140000000000014700000000001393000000000140000000000014700000000001403000000000147000212000000000000005146000000000007208928000000000000009999123100000010000000000000BRBRSRACNPB4133
012013071602BSEV3       010BIOSEV      ON      NM   R$  000000000124900000000012490000000001249000000000124900000000012490000000001239000000000124900001000000000000000100000000000000124900000000000000009999123100000010000000000000BRBSEVACNOR3100
012013071602BTOW3       010B2W DIGITAL ON      NM   R$  000000000095400000000009920000000000911000000000094700000000009110000000000911000000000091601892000000000000787200000000000744960500000000000000009999123100000010000000000000BRBTOWACNOR8105
012013071696BTOW3F      020B2W DIGITAL ON      NM   R$  000000000096800000000010000000000000880000000000095400000000010000000000000881000000000100000038000000000000000901000000000000859864000000000000009999123100000010000000000000BRBTOWACNOR8105
012013071662BTOW3T      030B2W DIGITAL ON      NM090R$  000000000099700000000009980000000000997000000000099700000000009980000000000000000000000000000002000000000000005000000000000004986384000000000000009999123100000010000000000000BRBTOWACNOR8105
012013071602BTTL3       010BATTISTELLA ON           R$  000000000007500000000000790000000000075000000000007700000000000790000000000075000000000007900008000000000000008400000000000000646800000000000000009999123100000010000000000000BRBTTLACNOR0105
012013071602BTTL4       010BATTISTELLA PN           R$  000000000009700000000000990000000000095000000000009700000000000990000000000097000000000009900013000000000000034400000000000003363300000000000000009999123100000010000000000000BRBTTLACNPR7105
012013071602BVMF3       010BMFBOVESPA  ON      NM   R$  000000000127900000000012830000000001224000000000123200000000012270000000001226000000000122715925000000000017510500000000021579668600000000000000009999123100000010000000000000BRBVMFACNOR3125
012013071696BVMF3F      020BMFBOVESPA  ON      NM   R$  000000000127300000000012860000000001225000000000124100000000012320000000001229000000000127500100000000000000002775000000000003445144000000000000009999123100000010000000000000BRBVMFACNOR3125
012013071662BVMF3T      030BMFBOVESPA  ON      NM030R$  000000000123600000000012400000000001236000000000123700000000012400000000000000000000000000000004000000000000050000000000000061899701000000000000009999123100000010000000000000BRBVMFACNOR3125
012013071662BVMF3T      030BMFBOVESPA  ON      NM037R$  000000000128300000000012840000000001238000000000128000000000012390000000000000000000000000000006000000000000019000000000000024338280000000000000009999123100000010000000000000BRBVMFACNOR3125
012013071678BVMFH1      070BVMFE       ON      NM000R$  000000000003000000000000300000000000022000000000002400000000000220000000000003000000000000000003000000000000001900000000000000046200000000000132502013081900000010000000000000BRBVMFACNOR3125
012013071678BVMFH11     070BVMF        ON      NM000R$  000000000017300000000001730000000000150000000000015700000000001500000000000140000000000000000030000000000000037900000000000005971500000000000110002013081900000010000000000000BRBVMFACNOR3125
012013071678BVMFH12     070BVMF  FM    ON      NM000R$  000000000011900000000001190000000000081000000000009000000000000820000000000080000000000008200480000000000000385100000000000034782400000000000120002013081900000010000000000000BRBVMFACNOR3125
012013071678BVMFH13     070BVMF  FM    ON      NM000R$  000000000005600000000000590000000000032000000000003900000000000340000000000032000000000003400267000000000000592200000000000023209700000000000128902013081900000010000000000000BRBVMFACNOR3124
012013071678BVMFH14     070BVMF  FM    ON      NM000R$  000000000001500000000000150000000000008000000000001000000000000090000000000008000000000000900107000000000000789500000000000008033300000000000138902013081900000010000000000000BRBVMFACNOR3124
012013071678BVMFH15     070BVMF        ON      NM000R$  000000000000300000000000030000000000003000000000000300000000000030000000000002000000000000300009000000000000048000000000000000144000000000000150002013081900000010000000000000BRBVMFACNOR3125
012013071678BVMFH40     070BVMF        ON      NM000R$  000000000021700000000002170000000000195000000000020100000000002010000000000000000000000020700017000000000000020000000000000004029100000000000105002013081900000010000000000000BRBVMFACNOR3125
012013071678BVMFH41     070BVMF        ON      NM000R$  000000000013900000000001390000000000122000000000013200000000001220000000000000000000000000000002000000000000003200000000000000424400000000000115002013081900000010000000000000BRBVMFACNOR3125
012013071678BVMFH42     070BVMF  FM    ON      NM000R$  000000000007600000000000760000000000053000000000005900000000000530000000000044000000000000000036000000000000046300000000000002773900000000000125002013081900000010000000000000BRBVMFACNOR3125
012013071678BVMFH43     070BVMF  FM    ON      NM000R$  000000000002800000000000280000000000013000000000001800000000000130000000000012000000000002200201000000000000253800000000000004638500000000000135002013081900000010000000000000BRBVMFACNOR3125
012013071678BVMFH61     070BVMFE       ON      NM000R$  000000000011700000000001170000000000117000000000011700000000001170000000000000000000000000000001000000000000000400000000000000046800000000000117502013081900000010000000000000BRBVMFACNOR3125
012013071678BVMFI11     070BVMF        ON      NM000R$  000000000018800000000001880000000000175000000000018500000000001750000000000000000000000000000005000000000000012500000000000002323500000000000110002013091600000010000000000000BRBVMFACNOR3125
012013071678BVMFI12     070BVMF  FM    ON      NM000R$  000000000013500000000001390000000000095000000000010400000000000950000000000080000000000009500420000000000000803800000000000083599600000000000120002013091600000010000000000000BRBVMFACNOR3125
012013071678BVMFI13     070BVMF  FM    ON      NM000R$  000000000005900000000000590000000000044000000000004800000000000440000000000000000000000000000024000000000000064200000000000003116500000000000130002013091600000010000000000000BRBVMFACNOR3125
012013071678BVMFI14     070BVMF  FM    ON      NM000R$  000000000002600000000000260000000000012000000000001400000000000130000000000010000000000001300383000000000000906900000000000013239600000000000140002013091600000010000000000000BRBVMFACNOR3125
012013071678BVMFI40     070BVMF        ON      NM000R$  000000000022700000000002270000000000227000000000022700000000002270000000000000000000000000000002000000000000009600000000000002179200000000000105002013091600000010000000000000BRBVMFACNOR3125
012013071678BVMFI42     070BVMF  FM    ON      NM000R$  000000000008700000000000870000000000066000000000007300000000000660000000000000000000000000000018000000000000064800000000000004789900000000000125002013091600000010000000000000BRBVMFACNOR3125
012013071678BVMFI43     070BVMF  FM    ON      NM000R$  000000000003600000000000360000000000026000000000002900000000000260000000000000000000000000000021000000000000046900000000000001379000000000000135002013091600000010000000000000BRBVMFACNOR3125
012013071678BVMFJ13     070BVMF        ON      NM000R$  000000000007400000000000740000000000074000000000007400000000000740000000000057000000000007800004000000000000007000000000000000518000000000000130002013102100000010000000000000BRBVMFACNOR3125
012013071678BVMFL1      070BVMFE       ON      NM000R$  000000000000700000000000070000000000007000000000000700000000000070000000000000000000000000000001000000000000010000000000000000070000000000000158902013121600000010000000000000BRBVMFACNOR3123
012013071678BVMFL14     070BVMF        ON      NM000R$  000000000005900000000000590000000000059000000000005900000000000590000000000000000000000000000001000000000000000100000000000000005900000000000138902013121600000010000000000000BRBVMFACNOR3124
012013071678BVMFL46     070BVMF        ON      NM000R$  000000000000300000000000030000000000003000000000000300000000000030000000000000000000000000000001000000000000017000000000000000051000000000000165002013121600000010000000000000BRBVMFACNOR3125
012013071682BVMFT1      080BVMFE       ON      NM000R$  000000000009300000000000930000000000093000000000009300000000000930000000000000000000000000000001000000000000000100000000000000009300000000000132502013081900000010000000000000BRBVMFACNOR3125
012013071682BVMFT10     080BVMFE       ON      NM000R$  000000000000600000000000070000000000006000000000000600000000000070000000000000000000000010000019000000000000055500000000000000338000000000000100002013081900000010000000000000BRBVMFACNOR3125
012013071682BVMFT11     080BVMFE       ON      NM000R$  000000000001600000000000180000000000016000000000001600000000000180000000000000000000000004400004000000000000002600000000000000044100000000000110002013081900000010000000000000BRBVMFACNOR3125
012013071682BVMFT12     080BVMFE FM    ON      NM000R$  000000000003300000000000490000000000033000000000004200000000000450000000000023000000000004700597000000000000461100000000000019791100000000000120002013081900000010000000000000BRBVMFACNOR3125
012013071682BVMFT13     080BVMFE FM    ON      NM000R$  000000000006400000000000850000000000060000000000007800000000000850000000000040000000000000000027000000000000044300000000000003472600000000000128902013081900000010000000000000BRBVMFACNOR3124
012013071682BVMFT14     080BVMFE       ON      NM000R$  000000000013800000000001550000000000138000000000014500000000001540000000000000000000000000000004000000000000017800000000000002582600000000000138902013081900000010000000000000BRBVMFACNOR3124
012013071682BVMFT41     080BVMFE       ON      NM000R$  000000000002200000000000320000000000022000000000003000000000000320000000000000000000000000000008000000000000027800000000000000856600000000000115002013081900000010000000000000BRBVMFACNOR3125
012013071682BVMFT42     080BVMFE FM    ON      NM000R$  000000000005800000000000660000000000058000000000006200000000000660000000000000000000000000000012000000000000020300000000000001277000000000000125002013081900000010000000000000BRBVMFACNOR3125
012013071682BVMFT43     080BVMFE FM    ON      NM000R$  000000000011000000000001300000000000110000000000012000000000001290000000000000000000000000000017000000000000034200000000000004123400000000000135002013081900000010000000000000BRBVMFACNOR3125
012013071682BVMFT61     080BVMFE       ON      NM000R$  000000000003100000000000400000000000031000000000003600000000000380000000000000000000000000000007000000000000040200000000000001458000000000000117502013081900000010000000000000BRBVMFACNOR3125
012013071682BVMFT62     080BVMFE       ON      NM000R$  000000000005600000000000560000000000056000000000005600000000000560000000000000000000000000000001000000000000000200000000000000011200000000000122502013081900000010000000000000BRBVMFACNOR3125
012013071682BVMFU10     080BVMFE       ON      NM000R$  000000000001000000000000120000000000010000000000001000000000000120000000000000000000000001400007000000000000019300000000000000196600000000000100002013091600000010000000000000BRBVMFACNOR3125
012013071682BVMFU11     080BVMFE       ON      NM000R$  000000000002300000000000280000000000023000000000002400000000000280000000000000000000000003000004000000000000000500000000000000012400000000000110002013091600000010000000000000BRBVMFACNOR3125
012013071682BVMFU12     080BVMFE FM    ON      NM000R$  000000000004300000000000550000000000043000000000005200000000000540000000000025000000000006000027000000000000051300000000000002694800000000000120002013091600000010000000000000BRBVMFACNOR3125
012013071682BVMFU13     080BVMFE FM    ON      NM000R$  000000000008300000000000990000000000083000000000009200000000000990000000000057000000000010700020000000000000037000000000000003410700000000000130002013091600000010000000000000BRBVMFACNOR3125
012013071682BVMFU41     080BVMFE       ON      NM000R$  000000000003500000000000360000000000035000000000003500000000000360000000000000000000000000000002000000000000009700000000000000343200000000000115002013091600000010000000000000BRBVMFACNOR3125
012013071682BVMFU42     080BVMFE FM    ON      NM000R$  000000000006700000000000750000000000067000000000007200000000000740000000000000000000000000000015000000000000045000000000000003265600000000000125002013091600000010000000000000BRBVMFACNOR3125
012013071682BVMFU43     080BVMFE FM    ON      NM000R$  000000000010000000000001350000000000100000000000012600000000001320000000000000000000000000000027000000000000075100000000000009486100000000000135002013091600000010000000000000BRBVMFACNOR3125
012013071682BVMFX14     080BVMFE       ON      NM000R$  000000000015800000000001580000000000158000000000015800000000001580000000000000000000000000000002000000000000027000000000000004266000000000000138902013121600000010000000000000BRBVMFACNOR3124
012013071682BVMFX2      080BVMFE       ON      NM000R$  000000000005600000000000670000000000056000000000005600000000000670000000000000000000000007400004000000000000027300000000000001531600000000000118902013121600000010000000000000BRBVMFACNOR3124
012013071602CARD3       010CSU CARDSYSTON      NM   R$  000000000030000000000003280000000000300000000000030700000000003250000000000315000000000032500044000000000000027100000000000008345700000000000000009999123100000010000000000000BRCARDACNOR9105
012013071696CARD3F      020CSU CARDSYSTON      NM   R$  000000000029900000000003240000000000299000000000031200000000003180000000000271000000000031800005000000000000000080000000000000025002000000000000009999123100000010000000000000BRCARDACNOR9105
012013071602CBEE3       010AMPLA ENERG ON *         R$  000000000010600000000001120000000000106000000000010600000000001100000000000110000000000011500012000000000031700000000000000003366600000000000000009999123100010000000000000000BRCBEEACNOR3149
012013071608CCHI3       010CHIARELLI   ON           R$  000000000003000000000000320000000000029000000000003000000000000300000000000030000000000003100045000000000000750000000000000022610000000000000000009999123100000010000000000000BRCCHIACNOR5123
012013071696CCHI3F      020CHIARELLI   ON           R$  000000000003100000000000310000000000030000000000003000000000000300000000000029000000000003000012000000000000025500000000000000772000000000000000009999123100000010000000000000BRCCHIACNOR5123
012013071608CCHI4       010CHIARELLI   PN           R$  000000000002500000000000250000000000025000000000002500000000000250000000000022000000000002500001000000000000040000000000000001000000000000000000009999123100000010000000000000BRCCHIACNPR2122
012013071602CCPR3       010CYRE COM-CCPON      NM   R$  000000000206000000000020710000000001961000000000198000000000019610000000001961000000000211800022000000000000007400000000000014658500000000000000009999123100000010000000000000BRCCPRACNOR9107
012013071696CCPR3F      020CYRE COM-CCPON      NM   R$  000000000200000000000020000000000002000000000000200000000000020000000000001918000000000219900001000000000000000070000000000000140000000000000000009999123100000010000000000000BRCCPRACNOR9107
012013071602CCRO3       010CCR SA      ON      NM   R$  000000000170000000000017000000000001671000000000168500000000016860000000001684000000000168607712000000000001990800000000003354525300000000000000009999123100000010000000000000BRCCROACNOR2122
012013071696CCRO3F      020CCR SA      ON      NM   R$  000000000170000000000017000000000001654000000000169000000000016960000000001665000000000169700041000000000000001160000000000001960286000000000000009999123100000010000000000000BRCCROACNOR2122
012013071602CCXC3       010CCX CARVAO  ON      NM   R$  000000000008000000000000840000000000076000000000007800000000000790000000000079000000000008000196000000000000638400000000000050093400000000000000009999123100000010000000000000BRCCXCACNOR5100
012013071696CCXC3F      020CCX CARVAO  ON      NM   R$  000000000007500000000000830000000000075000000000007900000000000770000000000077000000000008300024000000000000000884000000000000070157000000000000009999123100000010000000000000BRCCXCACNOR5100
012013071662CCXC3T      030CCX CARVAO  ON      NM062R$  000000000008000000000000810000000000080000000000008000000000000810000000000000000000000000000002000000000000009000000000000000720243000000000000009999123100000010000000000000BRCCXCACNOR5100
012013071612CEOC11B     010FII CEO CCP CI  ER  MB   R$  000000000878800000000088750000000008788000000000885100000000088750000000008811000000000887500020000000000000001717000000000015198529000000000000009999123100000010000000000000BRCEOCCTF003108
012013071602CEPE5       010CELPE       PNA          R$  000000000184900000000018490000000001849000000000184900000000018490000000001740000000000185000001000000000000146000000000000269954000000000000000009999123100000010000000000000BRCEPEACNPA6151
012013071602CESP3       010CESP        ON      N1   R$  000000000163500000000016350000000001610000000000163200000000016100000000001600000000000162500006000000000000007400000000000012082100000000000000009999123100000010000000000000BRCESPACNOR3159
012013071662CESP3T      030CESP        ON      N1062R$  000000000166000000000016610000000001660000000000166000000000016610000000000000000000000000000002000000000000006900000000000011454994000000000000009999123100000010000000000000BRCESPACNOR3159
012013071696CESP5F      020CESP        PNA     N1   R$  000000000200100000000020010000000002000000000000200000000000020000000000002000000000000227500002000000000000000005000000000000010003000000000000009999123100000010000000000000BRCESPACNPA6108
012013071602CESP6       010CESP        PNB     N1   R$  000000000199600000000020140000000001958000000000197100000000019600000000001960000000000196401612000000000000529300000000001043413500000000000000009999123100000010000000000000BRCESPACNPB4118
012013071696CESP6F      020CESP        PNB     N1   R$  000000000199500000000020100000000001946000000000197600000000019660000000001950000000000203000018000000000000000431000000000000851878000000000000009999123100000010000000000000BRCESPACNPB4118
012013071662CESP6T      030CESP        PNB     N1030R$  000000000199500000000019960000000001995000000000199500000000019960000000000000000000000000000002000000000000004000000000000007980834000000000000009999123100000010000000000000BRCESPACNPB4118
012013071678CESPH50     070CESP        PNB     N1000R$  000000000002000000000000200000000000020000000000002000000000000200000000000000000000000000000002000000000000003000000000000000060000000000000205002013081900000010000000000000BRCESPACNPB4118
012013071678CESPI21     070CESP        PNB     N1000R$  000000000005300000000000530000000000053000000000005300000000000530000000000000000000000000000002000000000000060000000000000003180000000000000210002013091600000010000000000000BRCESPACNPB4118
012013071682CESPU19     080CESPE       PNB     N1000R$  000000000005600000000000560000000000056000000000005600000000000560000000000000000000000000000002000000000000060000000000000003360000000000000190002013091600000010000000000000BRCESPACNPB4118
012013071682CESPU20     080CESPE       PNB     N1000R$  000000000011000000000001150000000000108000000000010900000000001150000000000100000000000012000006000000000000060600000000000006607300000000000200002013091600000010000000000000BRCESPACNPB4118
012013071602CGAS3       010COMGAS      ON           R$  000000000474900000000047500000000004585000000000469400000000045850000000004585000000000470000003000000000000000300000000000001408400000000000000009999123100000010000000000000BRCGASACNOR0132
012013071602CGAS5       010COMGAS      PNA          R$  000000000510000000000051990000000005047000000000509500000000051000000000005090000000000510000068000000000000019900000000000101407100000000000000009999123100000010000000000000BRCGASACNPA3129
012013071696CGAS5F      020COMGAS      PNA          R$  000000000502400000000050980000000005016000000000506700000000050160000000005016000000000514900008000000000000000280000000000001418994000000000000009999123100000010000000000000BRCGASACNPA3129
012013071696CGRA3F      020GRAZZIOTIN  ON           R$  000000000150000000000015000000000001500000000000150000000000015000000000001495000000000160000001000000000000000025000000000000037500000000000000009999123100000010000000000000BRCGRAACNOR2061
012013071602CGRA4       010GRAZZIOTIN  PN           R$  000000000152100000000015630000000001521000000000154100000000015350000000001535000000000160000113000000000000012300000000000018954600000000000000009999123100000010000000000000BRCGRAACNPR9061
012013071696CGRA4F      020GRAZZIOTIN  PN           R$  000000000150000000000015000000000001500000000000150000000000015000000000001535000000000157100001000000000000000025000000000000037500000000000000009999123100000010000000000000BRCGRAACNPR9061
012013071602CIEL3       010CIELO       ON      NM   R$  000000000566400000000057000000000005605000000000566100000000057000000000005693000000000570003890000000000000716600000000004057124300000000000000009999123100000010000000000000BRCIELACNOR3111
012013071696CIEL3F      020CIELO       ON      NM   R$  000000000566400000000056980000000005611000000000565600000000056980000000005679000000000569800088000000000000002609000000000014752663000000000000009999123100000010000000000000BRCIELACNOR3111
012013071678CIELH60     070CIEL        ON      NM000R$  000000000003700000000000370000000000037000000000003700000000000370000000000000000000000000000001000000000000000100000000000000003700000000000600002013081900000010000000000000BRCIELACNOR3111
012013071602CIQU4       010CACIQUE     PN           R$  000000000061500000000006150000000000615000000000061500000000006150000000000615000000000100000001000000000000000300000000000000184500000000000000009999123100000010000000000000BRCIQUACNPR5157
012013071602CLSC4       010CELESC      PN      N2   R$  000000000181400000000018200000000001800000000000181000000000018200000000001800000000000182000011000000000000001100000000000001991500000000000000009999123100000010000000000000BRCLSCACNPR3107
012013071696CLSC4F      020CELESC      PN      N2   R$  000000000181000000000018100000000001790000000000179800000000017900000000001613000000000211700003000000000000000017000000000000030582000000000000009999123100000010000000000000BRCLSCACNPR3107
012013071602CMIG3       010CEMIG       ON      N1   R$  000000000201900000000020480000000001980000000000202800000000020240000000002014000000000202400438000000000000273400000000000554629800000000000000009999123100000010000000000000BRCMIGACNOR6208
012013071696CMIG3F      020CEMIG       ON      N1   R$  000000000202000000000020490000000001860000000000200100000000020240000000002027000000000203000039000000000000000970000000000001941794000000000000009999123100000010000000000000BRCMIGACNOR6208
012013071602CMIG4       010CEMIG       PN      N1   R$  000000000201700000000020380000000001980000000000200600000000020000000000001999000000000200007378000000000002266600000000004547668600000000000000009999123100000010000000000000BRCMIGACNPR3208
012013071696CMIG4F      020CEMIG       PN      N1   R$  000000000201400000000020470000000001974000000000200600000000020130000000001993000000000201300110000000000000003347000000000006715581000000000000009999123100000010000000000000BRCMIGACNPR3208
012013071662CMIG4S      030CEMIG       PN      N1062R$  000000000206200000000020630000000002062000000000206200000000020630000000000000000000000000000002000000000000008000000000000016499840000000000000009999123100000010000000000000BRCMIGACNPR3208
012013071662CMIG4T      030CEMIG       PN      N1062R$  000000000202800000000020290000000002028000000000202800000000020290000000000000000000000000000002000000000000000600000000000001217262000000000000009999123100000010000000000000BRCMIGACNPR3208
012013071662CMIG4T      030CEMIG       PN      N1030R$  000000000202700000000020280000000002013000000000201500000000020140000000000000000000000000000004000000000000003300000000000006649651000000000000009999123100000010000000000000BRCMIGACNPR3208
012013071678CMIGH20     070CMIG        PN      N1000R$  000000000007100000000000710000000000071000000000007100000000000710000000000020000000000000000001000000000000000100000000000000007100000000000200002013081900000010000000000000BRCMIGACNPR3208
012013071678CMIGH21     070CMIG        PN      N1000R$  000000000004900000000000490000000000048000000000004800000000000480000000000000000000000000000002000000000000000400000000000000019500000000000210002013081900000010000000000000BRCMIGACNPR3208
012013071678CMIGH22     070CMIG        PN      N1000R$  000000000001500000000000210000000000015000000000001700000000000200000000000005000000000015000013000000000000034100000000000000611300000000000220002013081900000010000000000000BRCMIGACNPR3208
012013071678CMIGL24     070CMIG        PN      N1000R$  000000000005800000000000580000000000058000000000005800000000000580000000000000000000000000000001000000000000012000000000000000696000000000000240002013121600000010000000000000BRCMIGACNPR3208
012013071682CMIGX19     080CMIGE       PN      N1000R$  000000000006500000000000650000000000065000000000006500000000000650000000000000000000000000000001000000000000012000000000000000780000000000000190002013121600000010000000000000BRCMIGACNPR3208
012013071682CMIGX46     080CMIGE       PN      N1000R$  000000000002200000000000220000000000022000000000002200000000000220000000000000000000000000000001000000000000012000000000000000264000000000000165002013121600000010000000000000BRCMIGACNPR3208
012013071612CNES11B     010FII CENESP  CI      MB   R$  000000001234900000000123490000000012000000000001218800000000122500000000012050000000001225000019000000000000001064000000000012968590000000000000009999123100000010000000000000BRCNESCTF001123
012013071602COCE3       010COELCE      ON           R$  000000000404000000000040400000000003920000000000397200000000039500000000003860000000000395000011000000000000002200000000000008740100000000000000009999123100000010000000000000BRCOCEACNOR0132
012013071602COCE5       010COELCE      PNA          R$  000000000378000000000040000000000003780000000000390100000000038800000000003880000000000389000400000000000000108300000000000422565400000000000000009999123100000010000000000000BRCOCEACNPA3133
012013071696COCE5F      020COELCE      PNA          R$  000000000386000000000040880000000003860000000000392100000000040880000000003872000000000408800019000000000000000509000000000001995799000000000000009999123100000010000000000000BRCOCEACNPA3133
012013071602CPFE3       010CPFL ENERGIAON      NM   R$  000000000209900000000021090000000002063000000000207700000000020800000000002079000000000208004169000000000000851400000000001768621300000000000000009999123100000010000000000000BRCPFEACNOR0121
012013071696CPFE3F      020CPFL ENERGIAON      NM   R$  000000000208500000000022490000000002065000000000211100000000022490000000002085000000000224900017000000000000000501000000000001066221000000000000009999123100000010000000000000BRCPFEACNOR0121
012013071602CPLE3       010COPEL       ON      N1   R$  000000000230100000000023010000000002194000000000224600000000022650000000002233000000000226500054000000000000020000000000000044929800000000000000009999123100000010000000000000BRCPLEACNOR8128
012013071602CPLE6       010COPEL       PNB     N1   R$  000000000285900000000028590000000002791000000000282100000000028230000000002823000000000283703960000000000000808500000000002281389400000000000000009999123100000010000000000000BRCPLEACNPB9125
012013071696CPLE6F      020COPEL       PNB     N1   R$  000000000283900000000028500000000002800000000000282400000000028390000000002801000000000284000019000000000000000446000000000001259547000000000000009999123100000010000000000000BRCPLEACNPB9125
012013071602CRDE3       010CR2         ON      NM   R$  000000000040100000000004100000000000401000000000040700000000004050000000000405000000000041400009000000000000004300000000000001752800000000000000009999123100000010000000000000BRCRDEACNOR1108
012013071602CREM3       010CREMER      ON      NM   R$  000000000139900000000013990000000001390000000000139700000000013900000000001390000000000142000004000000000000004400000000000006151100000000000000009999123100000010000000000000BRCREMACNOR2166
012013071696CREM3F      020CREMER      ON      NM   R$  000000000139900000000013990000000001399000000000139900000000013990000000001324000000000152800001000000000000000043000000000000060157000000000000009999123100000010000000000000BRCREMACNOR2166
012013071602CRUZ3       010SOUZA CRUZ  ON           R$  000000000276500000000027850000000002734000000000275700000000027700000000002770000000000277603246000000000000646800000000001783623100000000000000009999123100000010000000000000BRCRUZACNOR0246
012013071696CRUZ3F      020SOUZA CRUZ  ON           R$  000000000276500000000027960000000002740000000000275300000000027500000000002750000000000279500043000000000000001264000000000003479912000000000000009999123100000010000000000000BRCRUZACNOR0246
012013071602CSAN3       010COSAN       ON      NM   R$  000000000437500000000043890000000004292000000000434500000000043290000000004322000000000432903598000000000000610500000000002652900700000000000000009999123100000010000000000000BRCSANACNOR6107
012013071696CSAN3F      020COSAN       ON      NM   R$  000000000436000000000043950000000004291000000000433800000000043670000000004308000000000436700039000000000000001338000000000005807027000000000000009999123100000010000000000000BRCSANACNOR6107
012013071602CSMG3       010COPASA      ON      NM   R$  000000000352700000000035270000000003406000000000344200000000034300000000003416000000000343002379000000000000347800000000001197269800000000000000009999123100000010000000000000BRCSMGACNOR5127
012013071696CSMG3F      020COPASA      ON      NM   R$  000000000345000000000034690000000003449000000000345000000000034520000000003401000000000349900007000000000000000264000000000000910944000000000000009999123100000010000000000000BRCSMGACNOR5127
012013071614CSMO11      010ISHARES CSMOCI           R$  000000000455000000000045500000000004519000000000454100000000045360000000003800000000000490000004000000000000000780000000000003542320000000000000009999123100000010000000000000BRCSMOCTF002100
012013071602CSNA3       010SID NACIONALON           R$  000000000060800000000006130000000000576000000000058700000000005880000000000587000000000058813281000000000007965700000000004677372900000000000000009999123100000010000000000000BRCSNAACNOR6242
012013071696CSNA3F      020SID NACIONALON           R$  000000000060900000000006120000000000578000000000058500000000005850000000000585000000000059600097000000000000003131000000000001834175000000000000009999123100000010000000000000BRCSNAACNOR6242
012013071662CSNA3T      030SID NACIONALON        020R$  000000000058900000000005900000000000589000000000058900000000005900000000000000000000000000000002000000000000015000000000000008847135000000000000009999123100000010000000000000BRCSNAACNOR6242
012013071662CSNA3T      030SID NACIONALON        030R$  000000000059400000000005950000000000594000000000059400000000005950000000000000000000000000000002000000000000005000000000000002974798000000000000009999123100000010000000000000BRCSNAACNOR6242
012013071678CSNAF85     070CSNAE       ON        000R$  000000000003200000000000320000000000032000000000003200000000000320000000000000000000000000000002000000000001000000000000000032000000000000000085002014061600000010000000000000BRCSNAACNOR6242
012013071678CSNAH52     070CSNA        ON        000R$  000000000008000000000000800000000000080000000000008000000000000800000000000000000000000000000001000000000000004000000000000000320000000000000052002013081900000010000000000000BRCSNAACNOR6242
012013071678CSNAH54     070CSNA        ON        000R$  000000000006800000000000680000000000065000000000006600000000000650000000000000000000000000000006000000000000028000000000000001856000000000000054002013081900000010000000000000BRCSNAACNOR6242
012013071678CSNAH55     070CSNAE       ON        000R$  000000000005900000000000590000000000058000000000005800000000000580000000000000000000000000000005000000000000009000000000000000526000000000000055002013081900000010000000000000BRCSNAACNOR6242
012013071678CSNAH56     070CSNA        ON        000R$  000000000005300000000000560000000000051000000000005300000000000510000000000000000000000000000014000000000000059500000000000003181000000000000056002013081900000010000000000000BRCSNAACNOR6242
012013071678CSNAH58     070CSNA  FM    ON        000R$  000000000003600000000000440000000000036000000000004000000000000400000000000035000000000000000096000000000000261500000000000010585500000000000058002013081900000010000000000000BRCSNAACNOR6242
012013071678CSNAH6      070CSNA  FM    ON        000R$  000000000003000000000000340000000000022000000000003000000000000300000000000027000000000003500066000000000000208300000000000006438800000000000060002013081900000010000000000000BRCSNAACNOR6242
012013071678CSNAH62     070CSNA  FM    ON        000R$  000000000001700000000000230000000000017000000000002100000000000220000000000000000000000000000010000000000000038400000000000000819300000000000062002013081900000010000000000000BRCSNAACNOR6242
012013071678CSNAH64     070CSNA  FM    ON        000R$  000000000001200000000000160000000000011000000000001300000000000150000000000000000000000001600012000000000000042600000000000000577600000000000064002013081900000010000000000000BRCSNAACNOR6242
012013071678CSNAH7      070CSNA        ON        000R$  000000000000500000000000050000000000005000000000000500000000000050000000000004000000000000500007000000000000016300000000000000081500000000000070002013081900000010000000000000BRCSNAACNOR6242
012013071678CSNAH74     070CSNA        ON        000R$  000000000000200000000000020000000000002000000000000200000000000020000000000000000000000000000001000000000000000800000000000000001600000000000074002013081900000010000000000000BRCSNAACNOR6242
012013071678CSNAI58     070CSNA  FM    ON        000R$  000000000004700000000000500000000000047000000000004900000000000500000000000000000000000000000007000000000000027500000000000001364500000000000058002013091600000010000000000000BRCSNAACNOR6242
012013071678CSNAI6      070CSNA  FM    ON        000R$  000000000003800000000000400000000000038000000000003900000000000400000000000000000000000000000010000000000000028600000000000001127800000000000060002013091600000010000000000000BRCSNAACNOR6242
012013071678CSNAI64     070CSNA  FM    ON        000R$  000000000002400000000000240000000000024000000000002400000000000240000000000000000000000000000001000000000000004000000000000000096000000000000064002013091600000010000000000000BRCSNAACNOR6242
012013071678CSNAJ62     070CSNA        ON        000R$  000000000003500000000000350000000000035000000000003500000000000350000000000000000000000000000001000000000000005000000000000000175000000000000062002013102100000010000000000000BRCSNAACNOR6242
012013071678CSNAJ66     070CSNA        ON        000R$  000000000002100000000000210000000000021000000000002100000000000210000000000000000000000000000001000000000000005000000000000000105000000000000066002013102100000010000000000000BRCSNAACNOR6242
012013071678CSNAJ7      070CSNA        ON        000R$  000000000001400000000000140000000000014000000000001400000000000140000000000000000000000002000001000000000000005000000000000000070000000000000070002013102100000010000000000000BRCSNAACNOR6242
012013071682CSNAR5      080CSNAE       ON        000R$  000000000003100000000000320000000000031000000000003100000000000320000000000000000000000000000003000000000001000000000000000031400000000000000050002014061600000010000000000000BRCSNAACNOR6242
012013071682CSNAT54     080CSNAE       ON        000R$  000000000001500000000000150000000000015000000000001500000000000150000000000000000000000000000001000000000000001000000000000000015000000000000054002013081900000010000000000000BRCSNAACNOR6242
012013071682CSNAT55     080CSNAE       ON        000R$  000000000001700000000000170000000000017000000000001700000000000170000000000000000000000000000001000000000000005000000000000000085000000000000055002013081900000010000000000000BRCSNAACNOR6242
012013071682CSNAT56     080CSNAE FM    ON        000R$  000000000001900000000000240000000000019000000000002200000000000240000000000000000000000000000011000000000000053500000000000001190500000000000056002013081900000010000000000000BRCSNAACNOR6242
012013071682CSNAT58     080CSNAE FM    ON        000R$  000000000003000000000000340000000000027000000000003000000000000320000000000000000000000000000031000000000000120000000000000003657000000000000058002013081900000010000000000000BRCSNAACNOR6242
012013071682CSNAT6      080CSNAE FM    ON        000R$  000000000003200000000000440000000000031000000000003900000000000380000000000000000000000005000085000000000000237500000000000009364000000000000060002013081900000010000000000000BRCSNAACNOR6242
012013071682CSNAT62     080CSNAE FM    ON        000R$  000000000004700000000000530000000000047000000000005000000000000500000000000000000000000000000066000000000000165000000000000008378500000000000062002013081900000010000000000000BRCSNAACNOR6242
012013071682CSNAT64     080CSNAE       ON        000R$  000000000006200000000000650000000000062000000000006300000000000650000000000000000000000000000008000000000000014100000000000000894500000000000064002013081900000010000000000000BRCSNAACNOR6242
012013071682CSNAT65     080CSNAE       ON        000R$  000000000007100000000000710000000000071000000000007100000000000710000000000000000000000000000006000000000000008000000000000000568000000000000065002013081900000010000000000000BRCSNAACNOR6242
012013071682CSNAT66     080CSNAE       ON        000R$  000000000007900000000000790000000000079000000000007900000000000790000000000000000000000000000005000000000000007000000000000000553000000000000066002013081900000010000000000000BRCSNAACNOR6242
012013071682CSNAU54     080CSNAE       ON        000R$  000000000002300000000000230000000000023000000000002300000000000230000000000000000000000000000002000000000000010500000000000000241500000000000054002013091600000010000000000000BRCSNAACNOR6242
012013071682CSNAU56     080CSNAE FM    ON        000R$  000000000002800000000000280000000000028000000000002800000000000280000000000000000000000000000004000000000000008000000000000000224000000000000056002013091600000010000000000000BRCSNAACNOR6242
012013071682CSNAU58     080CSNAE FM    ON        000R$  000000000003800000000000380000000000036000000000003600000000000360000000000000000000000000000007000000000000013000000000000000472000000000000058002013091600000010000000000000BRCSNAACNOR6242
012013071682CSNAU6      080CSNAE FM    ON        000R$  000000000004800000000000480000000000045000000000004600000000000450000000000000000000000000000006000000000000010000000000000000461000000000000060002013091600000010000000000000BRCSNAACNOR6242
012013071682CSNAU62     080CSNAE FM    ON        000R$  000000000005800000000000580000000000056000000000005600000000000560000000000000000000000000000006000000000000012000000000000000682000000000000062002013091600000010000000000000BRCSNAACNOR6242
012013071602CTAX11      010CONTAX      UNT     N2   R$  000000000182100000000018240000000001800000000000181000000000018200000000001750000000000182000044000000000000015000000000000027152600000000000000009999123100000010000000000000BRCTAXCDAM19100
012013071696CTAX11F     020CONTAX      UNT     N2   R$  000000000184500000000018450000000001825000000000183300000000018250000000001785000000000214800003000000000000000040000000000000073320000000000000009999123100000010000000000000BRCTAXCDAM19100
012013071602CTAX3       010CONTAX      ON      N2   R$  000000000044500000000004460000000000445000000000044500000000004460000000000446000000000049000006000000000000001400000000000000623800000000000000009999123100000010000000000000BRCTAXACNOR3113
012013071602CTAX4       010CONTAX      PN      N2   R$  000000000034800000000003480000000000331000000000033700000000003310000000000331000000000033900108000000000000084500000000000028508400000000000000009999123100000010000000000000BRCTAXACNPR0114
012013071696CTAX4F      020CONTAX      PN      N2   R$  000000000033600000000003960000000000335000000000033800000000003960000000000333000000000039600005000000000000000133000000000000045052000000000000009999123100000010000000000000BRCTAXACNPR0114
012013071602CTIP3       010CETIP       ON      NM   R$  000000000224100000000022500000000002204000000000222700000000022450000000002244000000000224504867000000000001211200000000002697522100000000000000009999123100000010000000000000BRCTIPACNOR2119
012013071696CTIP3F      020CETIP       ON      NM   R$  000000000212300000000022790000000002123000000000222400000000022790000000002236000000000227900070000000000000002225000000000004958182000000000000009999123100000010000000000000BRCTIPACNOR2119
012013071678CTIPH51     070CTIP        ON      NM000R$  000000000011000000000001100000000000110000000000011000000000001100000000000000000000000000000001000000000000006800000000000000748000000000000215002013081900000010000000000000BRCTIPACNOR2119
012013071682CTIPT20     080CTIPE       ON      NM000R$  000000000001700000000000180000000000017000000000001700000000000180000000000000000000000000000003000000000000425000000000000007437500000000000199402013081900000010000000000000BRCTIPACNOR2118
012013071682CTIPT22     080CTIPE       ON      NM000R$  000000000006100000000000610000000000061000000000006100000000000610000000000000000000000000000002000000000000425000000000000025925000000000000219402013081900000010000000000000BRCTIPACNOR2118
012013071602CTNM3       010COTEMINAS   ON           R$  000000000031000000000003100000000000310000000000031000000000003100000000000205000000000049500003000000000000000600000000000000186000000000000000009999123100000010000000000000BRCTNMACNOR9129
012013071696CTNM3F      020COTEMINAS   ON           R$  000000000031000000000003100000000000310000000000031000000000003100000000000310000000000000000001000000000000000002000000000000000620000000000000009999123100000010000000000000BRCTNMACNOR9129
012013071602CTNM4       010COTEMINAS   PN           R$  000000000022800000000002300000000000228000000000022800000000002280000000000228000000000023000038000000000000252600000000000057594000000000000000009999123100000010000000000000BRCTNMACNPR6128
012013071602CTSA3       010SANTANENSE  ON           R$  000000000055000000000005500000000000550000000000055000000000005500000000000550000000000056000001000000000000000100000000000000055000000000000000009999123100000010000000000000BRCTSAACNOR3051
012013071602CTSA4       010SANTANENSE  PN           R$  000000000056100000000005610000000000561000000000056100000000005610000000000560000000000059500001000000000000000100000000000000056100000000000000009999123100000010000000000000BRCTSAACNPR0051
012013071612CXTL11      010FII CX TRX  CI           R$  000000007521100000000752110000000075210000000007521000000000752100000000075500000000007990000003000000000000000095000000000007144952000000000000009999123100000010000000000000BRCXTLCTF003120
012013071602CYRE3       010CYRELA REALTON      NM   R$  000000000164000000000016800000000001627000000000165000000000016500000000001650000000000165311622000000000004190000000000006913939100000000000000009999123100000010000000000000BRCYREACNOR7125
012013071696CYRE3F      020CYRELA REALTON      NM   R$  000000000164500000000016850000000001565000000000165700000000016450000000001645000000000166500043000000000000001433000000000002375002000000000000009999123100000010000000000000BRCYREACNOR7125
