00COTAHIST.2013BOVESPA 20130807                                                                                                                                                                                                                      
012013080702ABCB4       010ABC BRASIL  PN      N2   R$  000000000122400000000012540000000001192000000000122300000000012350000000001226000000000123500924000000000000513800000000000628383900000000000000009999123100000010000000000000BRABCBACNPR4120
012013080796ABCB4F      020ABC BRASIL  PN      N2   R$  000000000120200000000012890000000001191000000000120000000000012890000000001226000000000129000017000000000000000571000000000000685472000000000000009999123100000010000000000000BRABCBACNPR4120
012013080712ABCP11      010FII ABC IMOBCI  ER       R$  000000000090000000000009400000000000900000000000090000000000009400000000000893000000000094000009000000000000004001000000000003600940000000000000009999123100000010000000000000BRABCPCTF000214
012013080702ABRE11      010ABRIL EDUCA UNT     N2   R$  000000000337500000000034140000000003301000000000336100000000033640000000003364000000000337200732000000000000317000000000001065658600000000000000009999123100000010000000000000BRABRECDAM15102
012013080796ABRE11F     020ABRIL EDUCA UNT     N2   R$  000000000337400000000034030000000003374000000000339200000000034030000000003331000000000340400007000000000000000142000000000000481780000000000000009999123100000010000000000000BRABRECDAM15102
012013080702AEDU3       010ANHANGUERA  ON      NM   R$  000000000133300000000013400000000001295000000000130800000000013140000000001302000000000131403417000000000000973200000000001273670000000000000000009999123100000010000000000000BRAEDUACNOR9107
012013080796AEDU3F      020ANHANGUERA  ON      NM   R$  000000000132100000000013340000000001297000000000131800000000012970000000001290000000000131400015000000000000000362000000000000476951000000000000009999123100000010000000000000BRAEDUACNOR9107
012013080762AEDU3T      030ANHANGUERA  ON      NM030R$  000000000131200000000013130000000001308000000000131000000000013090000000000000000000000000000004000000000000004500000000000005898069000000000000009999123100000010000000000000BRAEDUACNOR9107
012013080762AEDU3T      030ANHANGUERA  ON      NM061R$  000000000135700000000013580000000001357000000000135700000000013580000000000000000000000000000002000000000000001000000000000001357456000000000000009999123100000010000000000000BRAEDUACNOR9107
012013080712AEFI11      010FII AESAPAR CI  ER       R$  000000001250000000000125300000000012420000000001247400000000125300000000012450000000001253000015000000000000000590000000000007359680000000000000009999123100000010000000000000BRAEFICTF002120
012013080702AELP3       010AES ELPA    ON           R$  000000000068500000000006900000000000662000000000067000000000006690000000000658000000000067000009000000000000002300000000000001541600000000000000009999123100000010000000000000BRAELPACNOR2119
012013080796AELP3F      020AES ELPA    ON           R$  000000000078800000000007880000000000788000000000078800000000007880000000000688000000000078800003000000000000000024000000000000018912000000000000009999123100000010000000000000BRAELPACNOR2119
012013080712AGCX11      010FII AG CAIXACI  ER       R$  000000009950000000000999990000000099500000000009950300000000995010000000099501000000009999900007000000000000000137000000000013632019000000000000009999123100000010000000000000BRAGCXCTF003109
012013080702AGRO3       010BRASILAGRO  ON      NM   R$  000000000107200000000010730000000001058000000000106400000000010650000000001023000000000107400008000000000000001000000000000001064500000000000000009999123100000010000000000000BRAGROACNOR7102
012013080702ALLL3       010ALL AMER LATON      NM   R$  000000000086300000000008810000000000846000000000086000000000008560000000000856000000000085808557000000000002528900000000002176729000000000000000009999123100000010000000000000BRALLLACNOR6118
012013080796ALLL3F      020ALL AMER LATON      NM   R$  000000000087300000000008760000000000835000000000085900000000008350000000000835000000000086000051000000000000001411000000000001211802000000000000009999123100000010000000000000BRALLLACNOR6118
012013080762ALLL3T      030ALL AMER LATON      NM016R$  000000000087800000000008790000000000859000000000085900000000008600000000000000000000000000000006000000000000061000000000000052449338000000000000009999123100000010000000000000BRALLLACNOR6118
012013080762ALLL3T      030ALL AMER LATON      NM030R$  000000000086900000000008700000000000869000000000086900000000008700000000000000000000000000000002000000000000003800000000000003304323000000000000009999123100000010000000000000BRALLLACNOR6118
012013080762ALLL3T      030ALL AMER LATON      NM061R$  000000000089100000000008920000000000874000000000087600000000008750000000000000000000000000000004000000000000021900000000000019186733000000000000009999123100000010000000000000BRALLLACNOR6118
012013080712ALMI11B     010FII TORRE ALCI  ER  MB   R$  000000031455100000003145510000000314400000000031446200000003144000000000310700000000031739000003000000000000000004000000000001257851000000000000009999123100000010000000000000BRALMICTF003204
012013080702ALPA3       010ALPARGATAS  ON      N1   R$  000000000116300000000011630000000001130000000000114200000000011330000000001132000000000118100003000000000000000300000000000000342600000000000000009999123100000010000000000000BRALPAACNOR0202
012013080702ALPA4       010ALPARGATAS  PN      N1   R$  000000000138100000000013810000000001346000000000135800000000013640000000001353000000000136400836000000000000209000000000000284014000000000000000009999123100000010000000000000BRALPAACNPR7202
012013080796ALPA4F      020ALPARGATAS  PN      N1   R$  000000000136100000000013620000000001340000000000135200000000013400000000001340000000000139900021000000000000000490000000000000662556000000000000009999123100000010000000000000BRALPAACNPR7202
012013080762ALPA4T      030ALPARGATAS  PN      N1030R$  000000000137700000000013780000000001377000000000137700000000013780000000000000000000000000000002000000000000001000000000000001377770000000000000009999123100000010000000000000BRALPAACNPR7202
012013080702ALSC3       010ALIANSCE    ON      NM   R$  000000000202000000000020260000000001990000000000200100000000020110000000001998000000000201101050000000000000227100000000000454635200000000000000009999123100000010000000000000BRALSCACNOR0104
012013080796ALSC3F      020ALIANSCE    ON      NM   R$  000000000199000000000020060000000001990000000000199600000000020000000000001883000000000200000008000000000000000240000000000000479170000000000000009999123100000010000000000000BRALSCACNOR0104
012013080702ALUP11      010ALUPAR      UNT     N2   R$  000000000169900000000017070000000001691000000000170000000000017000000000001690000000000170000269000000000000392000000000000666425100000000000000009999123100000010000000000000BRALUPCDAM15100
012013080796ALUP11F     020ALUPAR      UNT     N2   R$  000000000168000000000017100000000001680000000000169300000000016800000000001680000000000179900017000000000000000384000000000000650457000000000000009999123100000010000000000000BRALUPCDAM15100
012013080762ALUP11T     030ALUPAR      UNT     N2030R$  000000000171000000000017130000000001710000000000171100000000017130000000000000000000000000000004000000000000004600000000000007874629000000000000009999123100000010000000000000BRALUPCDAM15100
012013080702AMAR3       010LOJAS MARISAON      NM   R$  000000000202700000000020670000000002026000000000204600000000020600000000002060000000000206400608000000000000431400000000000882835500000000000000009999123100000010000000000000BRAMARACNOR4109
012013080796AMAR3F      020LOJAS MARISAON      NM   R$  000000000228500000000022850000000002045000000000205600000000020550000000002040000000000240000010000000000000000227000000000000466822000000000000009999123100000010000000000000BRAMARACNOR4109
012013080702AMBV3       010AMBEV       ON           R$  000000000850100000000085710000000008491000000000853300000000085160000000008516000000000855900556000000000000151800000000001295455000000000000000009999123100000010000000000000BRAMBVACNOR4153
012013080796AMBV3F      020AMBEV       ON           R$  000000000860000000000086000000000008500000000000852200000000085310000000008531000000000864000030000000000000000487000000000004151096000000000000009999123100000010000000000000BRAMBVACNOR4153
012013080702AMBV4       010AMBEV       PN           R$  000000000852000000000085990000000008501000000000853900000000085310000000008531000000000854008874000000000001947100000000016627240000000000000000009999123100000010000000000000BRAMBVACNPR1153
012013080796AMBV4F      020AMBEV       PN           R$  000000000854000000000085800000000008455000000000853500000000085330000000008533000000000855800147000000000000003059000000000026110463000000000000009999123100000010000000000000BRAMBVACNPR1153
012013080762AMBV4T      030AMBEV       PN        030R$  000000000860600000000086070000000008606000000000860600000000086070000000000000000000000000000002000000000000000500000000000004303383000000000000009999123100000010000000000000BRAMBVACNPR1153
012013080762AMBV4T      030AMBEV       PN        061R$  000000000868300000000086840000000008681000000000868200000000086820000000000000000000000000000004000000000000002900000000000025178890000000000000009999123100000010000000000000BRAMBVACNPR1153
012013080778AMBVH88     070AMBV        PN        000R$  000000000002000000000000200000000000020000000000002000000000000200000000000000000000000000000002000000000000000400000000000000008000000000000880002013081900000010000000000000BRAMBVACNPR1153
012013080702ARMT11B     010ARCELOR     DRN     MB   R$  000000000142700000000014270000000001427000000000142700000000014270000000001405000000000143500001000000000000001800000000000002568600000000000000009999123100000010000000000000BRARMTBDR008111
012013080702ARTR3       010ARTERIS     ON      NM   R$  000000000223100000000022850000000002231000000000227000000000022550000000002255000000000226703263000000000002424600000000005503937900000000000000009999123100000010000000000000BRARTRACNOR3101
012013080796ARTR3F      020ARTERIS     ON      NM   R$  000000000220100000000022820000000002201000000000225500000000022350000000002225000000000227900051000000000000001521000000000003430145000000000000009999123100000010000000000000BRARTRACNOR3101
012013080702ARZZ3       010AREZZO CO   ON  ED  NM   R$  000000000352300000000036580000000003523000000000359000000000036460000000003623000000000364600616000000000000257200000000000923536000000000000000009999123100000010000000000000BRARZZACNOR3109
012013080796ARZZ3F      020AREZZO CO   ON  ED  NM   R$  000000000355000000000036990000000003461000000000358000000000036300000000003462000000000369900015000000000000000591000000000002116311000000000000009999123100000010000000000000BRARZZACNOR3109
012013080702AUTM3       010AUTOMETAL   ON      NM   R$  000000000183200000000018550000000001810000000000183000000000018470000000001836000000000184700968000000000000235900000000000431712500000000000000009999123100000010000000000000BRAUTMACNOR8109
012013080796AUTM3F      020AUTOMETAL   ON      NM   R$  000000000183500000000018350000000001835000000000183500000000018350000000001800000000000186000001000000000000000020000000000000036700000000000000009999123100000010000000000000BRAUTMACNOR8109
012013080702BAHI3       010BAHEMA      ON           R$  000000000049800000000004980000000000494000000000049600000000004950000000000490000000000049900004000000000000002200000000000001091500000000000000009999123100000010000000000000BRBAHIACNOR1066
012013080702BALM4       010BAUMER      PN           R$  000000000753000000000075300000000007530000000000753000000000075300000000000000000000000000000001000000000000000100000000000000753000000000000000009999123100000010000000000000BRBALMACNPR2043
012013080702BAUH4       010EXCELSIOR   PN           R$  000000000096000000000009600000000000960000000000096000000000009600000000000903000000000097000001000000000000000100000000000000096000000000000000009999123100000010000000000000BRBAUHACNPR3108
012013080702BAZA3       010AMAZONIA    ON           R$  000000000003400000000000340000000000034000000000003400000000000340000000000033000000000003400001000000000000001000000000000000034000000000000000009999123100000010000000000000BRBAZAACNOR0163
012013080702BBAS3       010BRASIL      ON      NM   R$  000000000214000000000021620000000002124000000000213800000000021320000000002132000000000213613436000000000005122800000000010953391300000000000000009999123100000010000000000000BRBBASACNOR3237
012013080796BBAS3F      020BRASIL      ON      NM   R$  000000000214000000000021630000000002126000000000213900000000021400000000002139000000000214000275000000000000007083000000000015153992000000000000009999123100000010000000000000BRBBASACNOR3237
012013080762BBAS3T      030BRASIL      ON      NM016R$  000000000214300000000021440000000002138000000000214000000000021390000000000000000000000000000006000000000000004000000000000008562173000000000000009999123100000010000000000000BRBBASACNOR3237
012013080762BBAS3T      030BRASIL      ON      NM030R$  000000000214700000000021720000000002147000000000215400000000021480000000000000000000000000000010000000000000036500000000000078635003000000000000009999123100000010000000000000BRBBASACNOR3237
012013080762BBAS3T      030BRASIL      ON      NM047R$  000000000216400000000021650000000002164000000000216400000000021650000000000000000000000000000002000000000000003000000000000006492188000000000000009999123100000010000000000000BRBBASACNOR3237
012013080762BBAS3T      030BRASIL      ON      NM060R$  000000000216200000000021630000000002162000000000216200000000021630000000000000000000000000000002000000000000003000000000000006486184000000000000009999123100000010000000000000BRBBASACNOR3237
012013080762BBAS3T      030BRASIL      ON      NM061R$  000000000216900000000021930000000002157000000000216900000000021610000000000000000000000000000020000000000000074900000000000162459012000000000000009999123100000010000000000000BRBBASACNOR3237
012013080762BBAS3T      030BRASIL      ON      NM090R$  000000000217900000000021800000000002169000000000217800000000021700000000000000000000000000000004000000000000005500000000000011981120000000000000009999123100000010000000000000BRBBASACNOR3237
012013080762BBAS3T      030BRASIL      ON      NM120R$  000000000219000000000021910000000002188000000000218900000000021890000000000000000000000000000004000000000000006300000000000013793976000000000000009999123100000010000000000000BRBBASACNOR3237
012013080762BBAS3T      030BRASIL      ON      NM152R$  000000000222300000000022240000000002223000000000222300000000022240000000000000000000000000000002000000000000001000000000000002223182000000000000009999123100000010000000000000BRBBASACNOR3237
012013080778BBASH18     070BBAS        ON      NM000R$  000000000035700000000003570000000000357000000000035700000000003570000000000270000000000000000001000000000000001400000000000000499800000000000180002013081900000010000000000000BRBBASACNOR3237
012013080778BBASH21     070BBAS  FM    ON      NM000R$  000000000009000000000001070000000000084000000000009400000000000950000000000095000000000010600078000000000000102100000000000009611300000000000207602013081900000010000000000000BRBBASACNOR3236
012013080778BBASH22     070BBAS  FM    ON      NM000R$  000000000003200000000000440000000000030000000000003400000000000330000000000033000000000003400279000000000000575600000000000020046400000000000217602013081900000010000000000000BRBBASACNOR3236
012013080778BBASH23     070BBAS  FM    ON      NM000R$  000000000001100000000000140000000000009000000000001100000000000100000000000010000000000001300043000000000000078300000000000000913400000000000227602013081900000010000000000000BRBBASACNOR3236
012013080778BBASH24     070BBAS  FM    ON      NM000R$  000000000000800000000000100000000000007000000000000700000000000080000000000007000000000001000009000000000000035100000000000000270800000000000231702013081900000010000000000000BRBBASACNOR3233
012013080778BBASH25     070BBAS  FM    ON      NM000R$  000000000000300000000000050000000000003000000000000300000000000050000000000003000000000001000012000000000000027700000000000000109800000000000241702013081900000010000000000000BRBBASACNOR3233
012013080778BBASH26     070BBAS        ON      NM000R$  000000000000100000000000030000000000001000000000000100000000000030000000000000000000000000300005000000000000023000000000000000028500000000000256602013081900000010000000000000BRBBASACNOR3235
012013080778BBASI21     070BBAS  FM    ON      NM000R$  000000000011600000000001270000000000111000000000011700000000001140000000000000000000000000000023000000000000045000000000000005285100000000000210002013091600000010000000000000BRBBASACNOR3237
012013080778BBASI22     070BBAS  FM    ON      NM000R$  000000000007500000000000870000000000070000000000007600000000000720000000000072000000000009900060000000000000067500000000000005141000000000000217602013091600000010000000000000BRBBASACNOR3236
012013080778BBASI23     070BBAS  FM    ON      NM000R$  000000000003500000000000430000000000034000000000003800000000000360000000000035000000000006000025000000000000032600000000000001240300000000000227602013091600000010000000000000BRBBASACNOR3236
012013080778BBASI24     070BBAS  FM    ON      NM000R$  000000000001800000000000200000000000017000000000001800000000000180000000000017000000000002500008000000000000008700000000000000165100000000000237602013091600000010000000000000BRBBASACNOR3236
012013080778BBASI25     070BBAS  FM    ON      NM000R$  000000000001000000000000110000000000009000000000000900000000000090000000000009000000000002300015000000000000019000000000000000182000000000000246602013091600000010000000000000BRBBASACNOR3235
012013080778BBASJ20     070BBAS        ON      NM000R$  000000000022300000000002230000000000223000000000022300000000002230000000000000000000000000000001000000000000003000000000000000669000000000000200002013102100000010000000000000BRBBASACNOR3237
012013080778BBASJ24     070BBAS        ON      NM000R$  000000000003900000000000440000000000039000000000004100000000000410000000000017000000000004700074000000000000054000000000000002218600000000000237602013102100000010000000000000BRBBASACNOR3236
012013080778BBASJ25     070BBAS        ON      NM000R$  000000000002200000000000220000000000022000000000002200000000000220000000000017000000000002400001000000000000000300000000000000006600000000000250002013102100000010000000000000BRBBASACNOR3237
012013080778BBASJ53     070BBAS        ON      NM000R$  000000000005400000000000540000000000054000000000005400000000000540000000000000000000000000000002000000000000005500000000000000297000000000000231602013102100000010000000000000BRBBASACNOR3235
012013080778BBASK22     070BBAS        ON      NM000R$  000000000012400000000001350000000000124000000000012900000000001350000000000120000000000000000002000000000000001200000000000000155400000000000220002013111800000010000000000000BRBBASACNOR3237
012013080778BBASK25     070BBAS        ON      NM000R$  000000000003600000000000360000000000036000000000003600000000000360000000000000000000000000000001000000000000001200000000000000043200000000000247602013111800000010000000000000BRBBASACNOR3236
012013080782BBAST19     080BBASE       ON      NM000R$  000000000000500000000000050000000000005000000000000500000000000050000000000001000000000000600001000000000000000100000000000000000500000000000190002013081900000010000000000000BRBBASACNOR3237
012013080782BBAST20     080BBASE FM    ON      NM000R$  000000000001400000000000140000000000010000000000001200000000000100000000000002000000000000000016000000000000034000000000000000418000000000000200002013081900000010000000000000BRBBASACNOR3237
012013080782BBAST21     080BBASE FM    ON      NM000R$  000000000002700000000000300000000000019000000000002400000000000260000000000000000000000004000040000000000000071800000000000001778800000000000207602013081900000010000000000000BRBBASACNOR3236
012013080782BBAST22     080BBASE FM    ON      NM000R$  000000000006900000000000740000000000055000000000006500000000000680000000000005000000000010400064000000000000115600000000000007614000000000000217602013081900000010000000000000BRBBASACNOR3236
012013080782BBAST23     080BBASE FM    ON      NM000R$  000000000015400000000001540000000000128000000000014200000000001410000000000000000000000000000050000000000000111500000000000015834700000000000227602013081900000010000000000000BRBBASACNOR3236
012013080782BBAST24     080BBASE       ON      NM000R$  000000000018100000000001850000000000170000000000017700000000001850000000000026000000000000000016000000000000048300000000000008584900000000000231702013081900000010000000000000BRBBASACNOR3233
012013080782BBAST25     080BBASE       ON      NM000R$  000000000027100000000002710000000000271000000000027100000000002710000000000000000000000000000001000000000000002000000000000000542000000000000241702013081900000010000000000000BRBBASACNOR3233
012013080782BBASU20     080BBASE FM    ON      NM000R$  000000000003500000000000350000000000033000000000003300000000000330000000000000000000000000000039000000000000092300000000000003072400000000000200002013091600000010000000000000BRBBASACNOR3237
012013080782BBASU21     080BBASE FM    ON      NM000R$  000000000006400000000000650000000000060000000000006300000000000630000000000000000000000007000072000000000000035200000000000002217800000000000210002013091600000010000000000000BRBBASACNOR3237
012013080782BBASU22     080BBASE FM    ON      NM000R$  000000000009700000000001010000000000088000000000009400000000000950000000000000000000000000000016000000000000033600000000000003179400000000000217602013091600000010000000000000BRBBASACNOR3236
012013080782BBASU23     080BBASE FM    ON      NM000R$  000000000016400000000001660000000000146000000000015800000000001570000000000000000000000000000029000000000000053200000000000008410000000000000227602013091600000010000000000000BRBBASACNOR3236
012013080782BBASU24     080BBASE       ON      NM000R$  000000000023600000000002370000000000232000000000023400000000002370000000000000000000000035900007000000000000022600000000000005310200000000000237602013091600000010000000000000BRBBASACNOR3236
012013080782BBASU51     080BBASE       ON      NM000R$  000000000004600000000000460000000000046000000000004600000000000460000000000000000000000000000001000000000000001200000000000000055200000000000205002013091600000010000000000000BRBBASACNOR3237
012013080782BBASU61     080BBASE       ON      NM000R$  000000000012100000000001210000000000121000000000012100000000001210000000000000000000000000000001000000000000003200000000000000387200000000000222502013091600000010000000000000BRBBASACNOR3237
012013080782BBASV20     080BBASE       ON      NM000R$  000000000005300000000000530000000000053000000000005300000000000530000000000000000000000006000002000000000000004700000000000000249100000000000200002013102100000010000000000000BRBBASACNOR3237
012013080782BBASV21     080BBASE       ON      NM000R$  000000000008400000000000890000000000084000000000008600000000000890000000000000000000000000000004000000000000014000000000000001204000000000000210002013102100000010000000000000BRBBASACNOR3237
012013080782BBASV22     080BBASE       ON      NM000R$  000000000012500000000001350000000000125000000000013000000000001350000000000000000000000000000007000000000000019200000000000002497500000000000220002013102100000010000000000000BRBBASACNOR3237
012013080782BBASV23     080BBASE       ON      NM000R$  000000000016400000000001670000000000164000000000016500000000001670000000000000000000000000000004000000000000014000000000000002321000000000000226602013102100000010000000000000BRBBASACNOR3235
012013080782BBASV24     080BBASE       ON      NM000R$  000000000023900000000002390000000000239000000000023900000000002390000000000000000000000000000001000000000000004000000000000000956000000000000237602013102100000010000000000000BRBBASACNOR3236
012013080782BBASV53     080BBASE       ON      NM000R$  000000000019500000000001990000000000195000000000019700000000001990000000000000000000000000000003000000000000006900000000000001361100000000000231602013102100000010000000000000BRBBASACNOR3235
012013080702BBDC3       010BRADESCO    ON  EJ  N1   R$  000000000293300000000030040000000002930000000000296400000000029610000000002961000000000298403701000000000000843900000000002501874200000000000000009999123100000010000000000000BRBBDCACNOR1605
012013080796BBDC3F      020BRADESCO    ON  EJ  N1   R$  000000000290200000000030010000000002901000000000296800000000029880000000002901000000000298800054000000000000001410000000000004188354000000000000009999123100000010000000000000BRBBDCACNOR1605
012013080702BBDC4       010BRADESCO    PN  EJ  N1   R$  000000000269400000000027380000000002675000000000271500000000027140000000002714000000000272017706000000000005860900000000015916212300000000000000009999123100000010000000000000BRBBDCACNPR8605
012013080796BBDC4F      020BRADESCO    PN  EJ  N1   R$  000000000270000000000027360000000002678000000000271000000000027170000000002717000000000272600210000000000000005817000000000015769684000000000000009999123100000010000000000000BRBBDCACNPR8605
012013080762BBDC4T      030BRADESCO    PN  EJ  N1030R$  000000000272400000000027380000000002724000000000272500000000027380000000000000000000000000000004000000000000037400000000000101918878000000000000009999123100000010000000000000BRBBDCACNPR8605
012013080762BBDC4T      030BRADESCO    PN  EJ  N1061R$  000000000275100000000027520000000002751000000000275100000000027520000000000000000000000000000002000000000000002500000000000006879312000000000000009999123100000010000000000000BRBBDCACNPR8605
012013080762BBDC4T      030BRADESCO    PN  EJ  N1090R$  000000000273900000000027740000000002739000000000274800000000027740000000000000000000000000000006000000000000006200000000000017037846000000000000009999123100000010000000000000BRBBDCACNPR8605
012013080778BBDCA34     070BBDC    /EJ PN      N1000R$  000000000003000000000000300000000000030000000000003000000000000300000000000000000000000000000002000000000000001900000000000000057000000000000339802014012000000010000000000000BRBBDCACNPR8604
012013080778BBDCH26     070BBDC    /EJ PN      N1000R$  000000000012500000000001250000000000125000000000012500000000001250000000000130000000000000000001000000000000001000000000000000125000000000000257802013081900000010000000000000BRBBDCACNPR8602
012013080778BBDCH27     070BBDC    /EJ PN      N1000R$  000000000006200000000000910000000000062000000000007800000000000840000000000062000000000009800067000000000000146700000000000011579400000000000267802013081900000010000000000000BRBBDCACNPR8602
012013080778BBDCH28     070BBDC    /EJ PN      N1000R$  000000000002200000000000360000000000019000000000002800000000000280000000000024000000000003500075000000000000153400000000000004363200000000000277802013081900000010000000000000BRBBDCACNPR8602
012013080778BBDCH29     070BBDC    /EJ PN      N1000R$  000000000000400000000000090000000000004000000000000700000000000080000000000005000000000000900013000000000000037000000000000000273700000000000287802013081900000010000000000000BRBBDCACNPR8602
012013080778BBDCH30     070BBDC    /EJ PN      N1000R$  000000000000300000000000030000000000003000000000000300000000000030000000000001000000000000800008000000000000031700000000000000095100000000000297802013081900000010000000000000BRBBDCACNPR8602
012013080778BBDCH31     070BBDC    /EJ PN      N1000R$  000000000000100000000000010000000000001000000000000100000000000010000000000001000000000000300006000000000000020500000000000000020500000000000307402013081900000010000000000000BRBBDCACNPR8600
012013080778BBDCH32     070BBDC    /EJ PN      N1000R$  000000000000100000000000010000000000001000000000000100000000000010000000000000000000000000100002000000000000012200000000000000012200000000000317802013081900000010000000000000BRBBDCACNPR8602
012013080778BBDCI20     070BBDC    /EJ PN      N1000R$  000000000073600000000007390000000000736000000000073700000000007390000000000000000000000000000005000000000000002000000000000001474900000000000200002013091600000010000000000000BRBBDCACNPR8605
012013080778BBDCI26     070BBDC    /EJ PN      N1000R$  000000000019500000000001950000000000187000000000019200000000001870000000000000000000000030000002000000000000005500000000000001056500000000000259802013091600000010000000000000BRBBDCACNPR8604
012013080778BBDCI27     070BBDC    /EJ PN      N1000R$  000000000011100000000001420000000000111000000000013000000000001300000000000126000000000000000036000000000000037300000000000004866200000000000267802013091600000010000000000000BRBBDCACNPR8602
012013080778BBDCI28     070BBDC    /EJ PN      N1000R$  000000000007200000000000850000000000066000000000007500000000000790000000000070000000000009900039000000000000060200000000000004527600000000000277802013091600000010000000000000BRBBDCACNPR8602
012013080778BBDCI29     070BBDC    /EJ PN      N1000R$  000000000004100000000000450000000000037000000000004000000000000440000000000037000000000004500036000000000000046700000000000001908300000000000287802013091600000010000000000000BRBBDCACNPR8602
012013080778BBDCI30     070BBDC    /EJ PN      N1000R$  000000000001900000000000240000000000018000000000002000000000000190000000000011000000000002100075000000000000132500000000000002740700000000000297802013091600000010000000000000BRBBDCACNPR8602
012013080778BBDCI32     070BBDC    /EJ PN      N1000R$  000000000000600000000000060000000000005000000000000500000000000050000000000000000000000000000003000000000000016000000000000000095000000000000317802013091600000010000000000000BRBBDCACNPR8602
012013080778BBDCJ27     070BBDC    /EJ PN      N1000R$  000000000017900000000001790000000000179000000000017900000000001790000000000000000000000000000001000000000000001000000000000000179000000000000267802013102100000010000000000000BRBBDCACNPR8602
012013080778BBDCJ29     070BBDC    /EJ PN      N1000R$  000000000008000000000000800000000000080000000000008000000000000800000000000000000000000000000001000000000000001500000000000000120000000000000287802013102100000010000000000000BRBBDCACNPR8602
012013080778BBDCJ30     070BBDC    /EJ PN      N1000R$  000000000005100000000000510000000000051000000000005100000000000510000000000000000000000005300004000000000000007000000000000000357000000000000297802013102100000010000000000000BRBBDCACNPR8602
012013080778BBDCJ31     070BBDC    /EJ PN      N1000R$  000000000003000000000000300000000000030000000000003000000000000300000000000010000000000000000001000000000000001000000000000000030000000000000307802013102100000010000000000000BRBBDCACNPR8602
012013080782BBDCT25     080BBDCE   /EJ PN      N1000R$  000000000000500000000000050000000000005000000000000500000000000050000000000001000000000000000001000000000000003000000000000000015000000000000247802013081900000010000000000000BRBBDCACNPR8602
012013080782BBDCT26     080BBDCE   /EJ PN      N1000R$  000000000002500000000000250000000000010000000000001000000000000100000000000000000000000003600004000000000000015200000000000000153900000000000257802013081900000010000000000000BRBBDCACNPR8602
012013080782BBDCT27     080BBDCE   /EJ PN      N1000R$  000000000005000000000000510000000000027000000000004200000000000290000000000000000000000011600711000000000000091500000000000003886100000000000267802013081900000010000000000000BRBBDCACNPR8602
012013080782BBDCT28     080BBDCE   /EJ PN      N1000R$  000000000010500000000001080000000000072000000000008500000000000800000000000000000000000000000041000000000000074500000000000006356200000000000277802013081900000010000000000000BRBBDCACNPR8602
012013080782BBDCT29     080BBDCE   /EJ PN      N1000R$  000000000018700000000001980000000000149000000000016400000000001580000000000000000000000000000105000000000000178600000000000029336500000000000287802013081900000010000000000000BRBBDCACNPR8602
012013080782BBDCT30     080BBDCE   /EJ PN      N1000R$  000000000025300000000002530000000000241000000000024400000000002440000000000000000000000000000005000000000000006600000000000001616500000000000297802013081900000010000000000000BRBBDCACNPR8602
012013080782BBDCU26     080BBDCE   /EJ PN      N1000R$  000000000005500000000000550000000000040000000000004700000000000420000000000007000000000000000717000000000000104700000000000005008500000000000259802013091600000010000000000000BRBBDCACNPR8604
012013080782BBDCU27     080BBDCE   /EJ PN      N1000R$  000000000008600000000000860000000000065000000000007100000000000670000000000000000000000010000016000000000000027100000000000001939600000000000267802013091600000010000000000000BRBBDCACNPR8602
012013080782BBDCU28     080BBDCE   /EJ PN      N1000R$  000000000011900000000001230000000000110000000000011700000000001100000000000000000000000000000016000000000000027900000000000003266300000000000277802013091600000010000000000000BRBBDCACNPR8602
012013080782BBDCU29     080BBDCE   /EJ PN      N1000R$  000000000018300000000001900000000000167000000000018000000000001830000000000000000000000000000047000000000000084600000000000015297700000000000287802013091600000010000000000000BRBBDCACNPR8602
012013080782BBDCU30     080BBDCE   /EJ PN      N1000R$  000000000029000000000002900000000000290000000000029000000000002900000000000000000000000000000001000000000000000500000000000000145000000000000297802013091600000010000000000000BRBBDCACNPR8602
012013080782BBDCU31     080BBDCE   /EJ PN      N1000R$  000000000009000000000000900000000000090000000000009000000000000900000000000000000000000000000001000000000000002000000000000000180000000000000272902013091600000010000000000000BRBBDCACNPR8590
012013080782BBDCU75     080BBDCE   /EJ PN      N1000R$  000000000014100000000001410000000000141000000000014100000000001410000000000000000000000000000001000000000000002000000000000000282000000000000282302013091600000010000000000000BRBBDCACNPR8604
012013080782BBDCV24     080BBDCE   /EJ PN      N1000R$  000000000003200000000000320000000000028000000000003000000000000280000000000000000000000000000003000000000000003600000000000000109200000000000239802013102100000010000000000000BRBBDCACNPR8604
012013080782BBDCV29     080BBDCE   /EJ PN      N1000R$  000000000020300000000002050000000000201000000000020200000000002050000000000000000000000000000005000000000000009300000000000001887300000000000287802013102100000010000000000000BRBBDCACNPR8602
012013080782BBDCV30     080BBDCE   /EJ PN      N1000R$  000000000026600000000002710000000000258000000000026500000000002580000000000000000000000000000003000000000000006000000000000001590000000000000297802013102100000010000000000000BRBBDCACNPR8602
012013080782BBDCV31     080BBDCE   /EJ PN      N1000R$  000000000035200000000003520000000000352000000000035200000000003520000000000000000000000000000001000000000000002000000000000000704000000000000307802013102100000010000000000000BRBBDCACNPR8602
012013080782BBDCX29     080BBDCE   /EJ PN      N1000R$  000000000023500000000002350000000000235000000000023500000000002350000000000000000000000000000001000000000000000200000000000000047000000000000287802013121600000010000000000000BRBBDCACNPR8602
012013080712BBFI11B     010FII BB PROGRCI  ER  MB   R$  000000042450000000004249000000000424500000000042484200000004249000000000420001000000042499900003000000000000000007000000000002973900000000000000009999123100000010000000000000BRBBFICTF006197
012013080712BBPO11      010FII BB PRGIICI  ER       R$  000000001117000000000112140000000011127000000001117200000000111300000000011127000000001113000219000000000000017222000000000192413016000000000000009999123100000010000000000000BRBBPOCTF003109
012013080712BBRC11      010FII BB CORP CI  ER       R$  000000000915000000000091800000000009130000000000915200000000091300000000009135000000000917500017000000000000000989000000000009051702000000000000009999123100000010000000000000BRBBRCCTF004123
012013080702BBRK3       010BR BROKERS  ON      NM   R$  000000000055000000000005530000000000534000000000054000000000005380000000000537000000000053802020000000000000675400000000000365036400000000000000009999123100000010000000000000BRBBRKACNOR4108
012013080796BBRK3F      020BR BROKERS  ON      NM   R$  000000000054800000000006480000000000535000000000054600000000006480000000000502000000000064800010000000000000000209000000000000114154000000000000009999123100000010000000000000BRBBRKACNOR4108
012013080702BBSE3       010BBSEGURIDADEON      NM   R$  000000000192100000000019850000000001894000000000196200000000019600000000001960000000000196713706000000000006741200000000013228723000000000000000009999123100000010000000000000BRBBSEACNOR5100
012013080796BBSE3F      020BBSEGURIDADEON      NM   R$  000000000192000000000019840000000001910000000000195800000000019690000000001969000000000197001179000000000000039031000000000076461054000000000000009999123100000010000000000000BRBBSEACNOR5100
012013080778BBSEH19     070BBSE        ON      NM000R$  000000000004500000000000450000000000045000000000004500000000000450000000000000000000000000000001000000000000100000000000000004500000000000000190002013081900000010000000000000BRBBSEACNOR5100
012013080778BBSEI20     070BBSE        ON      NM000R$  000000000002900000000000290000000000029000000000002900000000000290000000000000000000000000000002000000000000100000000000000002900000000000000200002013091600000010000000000000BRBBSEACNOR5100
012013080702BBTG11      010BTG PACTUAL UNT          R$  000000000267000000000027600000000002650000000000270400000000027440000000002721000000000274401693000000000001422000000000003846210000000000000000009999123100000010000000000000BRBBTGUNT007104
012013080796BBTG11F     020BTG PACTUAL UNT          R$  000000000271800000000027300000000002666000000000269500000000026660000000002666000000000273000008000000000000000222000000000000598421000000000000009999123100000010000000000000BRBBTGUNT007104
012013080762BBTG11T     030BTG PACTUAL UNT       090R$  000000000276200000000027630000000002761000000000276200000000027620000000000000000000000000000004000000000000410000000000001132456914000000000000009999123100000010000000000000BRBBTGUNT007104
012013080712BBVJ11      010FII C JARDIMCI  ER       R$  000000000791300000000080980000000007913000000000804300000000080300000000008001000000000803000064000000000000004933000000000039678860000000000000009999123100000010000000000000BRBBVJCTF001132
012013080712BCFF11B     010FII BC FFII CI      MB   R$  000000001013000000000101580000000010110000000001013500000000101580000000010110000000001015800037000000000000002308000000000023393689000000000000009999123100000010000000000000BRBCFFCTF000140
012013080702BDLL4       010BARDELLA    PN           R$  000000000599000000000059900000000005990000000000599000000000059900000000004600000000000595000002000000000000000200000000000001198000000000000000009999123100000010000000000000BRBDLLACNPR8149
012013080762BDLL4T      030BARDELLA    PN        120R$  000000000617000000000061710000000006170000000000617000000000061710000000000000000000000000000002000000000000000100000000000000617090000000000000009999123100000010000000000000BRBDLLACNPR8149
012013080702BEEF3       010MINERVA     ON      NM   R$  000000000095500000000009550000000000926000000000093500000000009280000000000928000000000093001346000000000000337400000000000315693400000000000000009999123100000010000000000000BRBEEFACNOR6104
012013080796BEEF3F      020MINERVA     ON      NM   R$  000000000094600000000009460000000000925000000000093500000000009250000000000925000000000096000005000000000000000070000000000000065503000000000000009999123100000010000000000000BRBEEFACNOR6104
012013080702BEES3       010BANESTES    ON  EJ       R$  000000000004600000000000470000000000046000000000004600000000000470000000000046000000000004700009000000000000121900000000000005615100000000000000009999123100000010000000000000BRBEESACNOR9243
012013080702BEMA3       010BEMATECH    ON  ED  NM   R$  000000000075300000000007530000000000706000000000073500000000007340000000000734000000000074000386000000000000225200000000000165541700000000000000009999123100000010000000000000BRBEMAACNOR0114
012013080702BGIP4       010BANESE      PN           R$  000000000465000000000046500000000004650000000000465000000000046500000000004655000000000478400001000000000000000300000000000001395000000000000000009999123100000010000000000000BRBGIPACNPR8178
012013080702BHGR3       010BHG         ON      NM   R$  000000000158900000000015940000000001506000000000154500000000015060000000001420000000000153000094000000000001046200000000001617164600000000000000009999123100000010000000000000BRBHGRACNOR9101
012013080796BHGR3F      020BHG         ON      NM   R$  000000000155700000000016000000000001557000000000156200000000016000000000001400000000000160000003000000000000000100000000000000156223000000000000009999123100000010000000000000BRBHGRACNOR9101
012013080702BICB4       010BICBANCO    PN      N1   R$  000000000034000000000003540000000000339000000000034700000000003420000000000338000000000034200132000000000000369500000000000128272800000000000000009999123100000010000000000000BRBICBACNPR7131
012013080796BICB4F      020BICBANCO    PN      N1   R$  000000000035000000000003500000000000340000000000034000000000003400000000000340000000000035300008000000000000000109000000000000037123000000000000009999123100000010000000000000BRBICBACNPR7131
012013080762BICB4T      030BICBANCO    PN      N1061R$  000000000035100000000003520000000000345000000000035100000000003460000000000000000000000000000004000000000000102000000000000035815192000000000000009999123100000010000000000000BRBICBACNPR7131
012013080702BIOM4       010BIOMM       PN           R$  000000000083000000000008820000000000826000000000085500000000008820000000000821000000000088300004000000000000004000000000000003420000000000000000009999123100000010000000000000BRBIOMACNPR9101
012013080702BISA3       010BROOKFIELD  ON      NM   R$  000000000015900000000001600000000000152000000000015400000000001530000000000153000000000015404275000000000008727900000000001351393800000000000000009999123100000010000000000000BRBISAACNOR8109
012013080796BISA3F      020BROOKFIELD  ON      NM   R$  000000000015700000000001680000000000152000000000015600000000001520000000000152000000000016500022000000000000000720000000000000112894000000000000009999123100000010000000000000BRBISAACNOR8109
012013080762BISA3T      030BROOKFIELD  ON      NM016R$  000000000015300000000001540000000000153000000000015300000000001540000000000000000000000000000002000000000000001900000000000000291979000000000000009999123100000010000000000000BRBISAACNOR8109
012013080762BISA3T      030BROOKFIELD  ON      NM090R$  000000000015900000000001600000000000157000000000015700000000001580000000000000000000000000000006000000000000405000000000000063615124000000000000009999123100000010000000000000BRBISAACNOR8109
012013080762BISA3T      030BROOKFIELD  ON      NM091R$  000000000016200000000001630000000000162000000000016200000000001630000000000000000000000000000004000000000000015000000000000002432223000000000000009999123100000010000000000000BRBISAACNOR8109
012013080762BISA3T      030BROOKFIELD  ON      NM120R$  000000000016000000000001610000000000160000000000016000000000001610000000000000000000000000000002000000000000006000000000000000960991000000000000009999123100000010000000000000BRBISAACNOR8109
012013080712BJRC11      010FII JS RECIMCI  ER       R$  000000008401500000000899990000000084015000000008558100000000899990000000080000000000008999800006000000000000000191000000000016346065000000000000009999123100000010000000000000BRBJRCCTF007109
012013080702BMIN4       010MERC INVEST PN           R$  000000000002300000000000230000000000023000000000002300000000000230000000000023000000000002400001000000000000001000000000000000023000000000000000009999123100000010000000000000BRBMINACNPR1159
012013080796BMIN4F      020MERC INVEST PN           R$  000000000002300000000000230000000000023000000000002300000000000230000000000022000000000002300002000000000000000600000000000000013800000000000000009999123100000010000000000000BRBMINACNPR1159
012013080702BMTO4       010BRASMOTOR   PN           R$  000000000008500000000000880000000000085000000000008500000000000870000000000084000000000008700010000000000000086000000000000007317000000000000000009999123100000010000000000000BRBMTOACNPR6065
012013080712BNFS11      010FII BANRISULCI  ER       R$  000000000980100000000098010000000009800000000000980000000000098000000000009801000000001000000003000000000000000030000000000000294010000000000000009999123100000010000000000000BRBNFSCTF000111
012013080702BOBR4       010BOMBRIL     PN           R$  000000000069300000000006930000000000670000000000068100000000006700000000000670000000000069000002000000000000000600000000000000408900000000000000009999123100000010000000000000BRBOBRACNPR3127
012013080714BOVA11      010ISHARES BOVACI           R$  000000000462500000000046810000000004623000000000465800000000046580000000004658000000000467403279000000000002301730000000010721549160000000000000009999123100000010000000000000BRBOVACTF003101
012013080796BOVA11F     020ISHARES BOVACI           R$  000000000465000000000046800000000004624000000000465000000000046800000000004624000000000473500013000000000000000048000000000000223232000000000000009999123100000010000000000000BRBOVACTF003101
012013080762BOVA11T     030ISHARES BOVACI        030R$  000000000469400000000046950000000004692000000000469300000000046930000000000000000000000000000006000000000000300000000000001408132026000000000000009999123100000010000000000000BRBOVACTF003101
012013080762BOVA11T     030ISHARES BOVACI        061R$  000000000471800000000047190000000004718000000000471800000000047190000000000000000000000000000002000000000000000600000000000002831083000000000000009999123100000010000000000000BRBOVACTF003101
012013080762BOVA11T     030ISHARES BOVACI        090R$  000000000475800000000047590000000004758000000000475800000000047590000000000000000000000000000002000000000000000100000000000000475839000000000000009999123100000010000000000000BRBOVACTF003101
012013080712BPFF11      010FII ABSOLUTOCI  ER       R$  000000000891100000000091000000000008861000000000892100000000090000000000009000000000000910000010000000000000000800000000000007137400000000000000009999123100000010000000000000BRBPFFCTF002104
012013080702BPHA3       010BR PHARMA   ON      NM   R$  000000000098600000000010100000000000986000000000100000000000010020000000000999000000000101002221000000000000411700000000000411764500000000000000009999123100000010000000000000BRBPHAACNOR6102
012013080796BPHA3F      020BR PHARMA   ON      NM   R$  000000000099000000000010190000000000990000000000099600000000010190000000000990000000000101900005000000000000000155000000000000154526000000000000009999123100000010000000000000BRBPHAACNOR6102
012013080762BPHA3T      030BR PHARMA   ON      NM061R$  000000000101400000000010150000000001014000000000101400000000010150000000000000000000000000000002000000000000000500000000000000507142000000000000009999123100000010000000000000BRBPHAACNOR6102
012013080702BPNM4       010PANAMERICANOPN      N1   R$  000000000058600000000005870000000000578000000000058200000000005860000000000579000000000058600113000000000000087600000000000051029000000000000000009999123100000010000000000000BRBPNMACNPR6111
012013080796BPNM4F      020PANAMERICANOPN      N1   R$  000000000058300000000005900000000000583000000000058700000000005900000000000573000000000058500003000000000000000117000000000000068757000000000000009999123100000010000000000000BRBPNMACNPR6111
012013080762BPNM4T      030PANAMERICANOPN      N1061R$  000000000058800000000005890000000000588000000000058800000000005890000000000000000000000000000002000000000000015000000000000008832652000000000000009999123100000010000000000000BRBPNMACNPR6111
012013080702BRAP3       010BRADESPAR   ON      N1   R$  000000000185000000000019100000000001820000000000184400000000019100000000001880000000000191000052000000000000038900000000000071747200000000000000009999123100000010000000000000BRBRAPACNOR5124
012013080796BRAP3F      020BRADESPAR   ON      N1   R$  000000000184000000000018400000000001830000000000183500000000018300000000001838000000000192300004000000000000000042000000000000077070000000000000009999123100000010000000000000BRBRAPACNOR5124
012013080762BRAP3T      030BRADESPAR   ON      N1030R$  000000000185600000000018570000000001856000000000185600000000018570000000000000000000000000000002000000000000013200000000000024499306000000000000009999123100000010000000000000BRBRAPACNOR5124
012013080702BRAP4       010BRADESPAR   PN      N1   R$  000000000221700000000022990000000002216000000000227900000000022990000000002294000000000229904479000000000001744900000000003976869200000000000000009999123100000010000000000000BRBRAPACNPR2124
012013080796BRAP4F      020BRADESPAR   PN      N1   R$  000000000211400000000023000000000002114000000000227800000000023000000000002285000000000230000029000000000000000909000000000002071077000000000000009999123100000010000000000000BRBRAPACNPR2124
012013080762BRAP4T      030BRADESPAR   PN      N1030R$  000000000230100000000023020000000002301000000000230100000000023020000000000000000000000000000002000000000000000800000000000001841236000000000000009999123100000010000000000000BRBRAPACNPR2124
012013080762BRAP4T      030BRADESPAR   PN      N1090R$  000000000230000000000023010000000002300000000000230000000000023010000000000000000000000000000002000000000000001000000000000002300400000000000000009999123100000010000000000000BRBRAPACNPR2124
012013080714BRAX11      010ISHARES BRAXCI           R$  000000000388100000000038890000000003881000000000388800000000038890000000000000000000000400000002000000000000000170000000000000661050000000000000009999123100000010000000000000BRBRAXCTF002100
012013080712BRCR11      010FII BC FUND CI           R$  000000001343000000000134700000000013354000000001340500000000134000000000013382000000001341500797000000000000043499000000000583127187000000000000009999123100000010000000000000BRBRCRCTF000131
012013080702BRFS3       010BRF SA      ON      NM   R$  000000000485000000000048920000000004817000000000483900000000048480000000004848000000000484905552000000000001549600000000007499850200000000000000009999123100000010000000000000BRBRFSACNOR8110
012013080796BRFS3F      020BRF SA      ON      NM   R$  000000000487000000000048720000000004825000000000483900000000048720000000004805000000000487200039000000000000000875000000000004234682000000000000009999123100000010000000000000BRBRFSACNOR8110
012013080762BRFS3T      030BRF SA      ON      NM030R$  000000000487200000000048730000000004872000000000487200000000048730000000000000000000000000000002000000000000000400000000000001949165000000000000009999123100000010000000000000BRBRFSACNOR8110
012013080762BRFS3T      030BRF SA      ON      NM061R$  000000000489800000000048990000000004898000000000489800000000048990000000000000000000000000000002000000000000005000000000000024493408000000000000009999123100000010000000000000BRBRFSACNOR8110
012013080762BRFS3T      030BRF SA      ON      NM090R$  000000000494700000000049480000000004930000000000494100000000049420000000000000000000000000000010000000000000100000000000000494184114000000000000009999123100000010000000000000BRBRFSACNOR8110
012013080762BRFS3T      030BRF SA      ON      NM120R$  000000000495900000000049600000000004959000000000495900000000049600000000000000000000000000000002000000000000002000000000000009919009000000000000009999123100000010000000000000BRBRFSACNOR8110
012013080778BRFSH44     070BRFS        ON      NM000R$  000000000048600000000004860000000000486000000000048600000000004860000000000000000000000000000001000000000000004000000000000001944000000000000436502013081900000010000000000000BRBRFSACNOR8109
012013080778BRFSI44     070BRFS        ON      NM000R$  000000000049100000000004910000000000491000000000049100000000004910000000000000000000000000000001000000000000004000000000000001964000000000000440002013091600000010000000000000BRBRFSACNOR8110
012013080782BRFSU48     080BRFSE       ON      NM000R$  000000000011000000000001100000000000110000000000011000000000001100000000000000000000000012100001000000000000000500000000000000055000000000000480002013091600000010000000000000BRBRFSACNOR8110
012013080702BRGE3       010ALFA CONSORCON           R$  000000000034000000000003400000000000339000000000033900000000003390000000000339000000000040000002000000000000000200000000000000067900000000000000009999123100000010000000000000BRBRGEACNOR6196
012013080796BRGE3F      020ALFA CONSORCON           R$  000000000032700000000003270000000000327000000000032700000000003270000000000325000000000040000002000000000000000020000000000000006540000000000000009999123100000010000000000000BRBRGEACNOR6196
012013080702BRIN3       010BR INSURANCEON      NM   R$  000000000222400000000023010000000002217000000000224200000000023000000000002300000000000230101392000000000000567400000000001272546800000000000000009999123100000010000000000000BRBRINACNOR3105
012013080796BRIN3F      020BR INSURANCEON      NM   R$  000000000221500000000022840000000002215000000000224600000000022840000000002230000000000229700015000000000000000403000000000000905219000000000000009999123100000010000000000000BRBRINACNOR3105
012013080702BRIV4       010ALFA INVEST PN           R$  000000000057300000000005730000000000573000000000057300000000005730000000000572000000000058500001000000000000000100000000000000057300000000000000009999123100000010000000000000BRBRIVACNPR3196
012013080796BRIV4F      020ALFA INVEST PN           R$  000000000052500000000005250000000000525000000000052500000000005250000000000538000000000060400001000000000000000010000000000000005250000000000000009999123100000010000000000000BRBRIVACNPR3196
012013080702BRKM3       010BRASKEM     ON      N1   R$  000000000115700000000011570000000001157000000000115700000000011570000000001107000000000115600002000000000000000200000000000000231400000000000000009999123100000010000000000000BRBRKMACNOR1110
012013080796BRKM3F      020BRASKEM     ON      N1   R$  000000000112500000000011590000000001099000000000111800000000011590000000001099000000000116100006000000000000000083000000000000092862000000000000009999123100000010000000000000BRBRKMACNOR1110
012013080702BRKM5       010BRASKEM     PNA     N1   R$  000000000164800000000016760000000001632000000000165000000000016600000000001660000000000166505615000000000001279200000000002111609400000000000000009999123100000010000000000000BRBRKMACNPA4110
012013080796BRKM5F      020BRASKEM     PNA     N1   R$  000000000165100000000016850000000001629000000000164900000000016840000000001635000000000168500041000000000000001465000000000002416464000000000000009999123100000010000000000000BRBRKMACNPA4110
012013080762BRKM5T      030BRASKEM     PNA     N1030R$  000000000164900000000016510000000001649000000000164900000000016510000000000000000000000000000010000000000000010000000000000016496418000000000000009999123100000010000000000000BRBRKMACNPA4110
012013080762BRKM5T      030BRASKEM     PNA     N1061R$  000000000166600000000016670000000001666000000000166600000000016670000000000000000000000000000002000000000000003000000000000004998905000000000000009999123100000010000000000000BRBRKMACNPA4110
012013080762BRKM5T      030BRASKEM     PNA     N1090R$  000000000170600000000017070000000001670000000000169200000000016710000000000000000000000000000004000000000000007900000000000013371311000000000000009999123100000010000000000000BRBRKMACNPA4110
012013080702BRML3       010BR MALLS PARON      NM   R$  000000000193500000000019470000000001911000000000192500000000019120000000001912000000000191805616000000000001909600000000003675884300000000000000009999123100000010000000000000BRBRMLACNOR9105
012013080796BRML3F      020BR MALLS PARON      NM   R$  000000000194000000000019400000000001902000000000192400000000019020000000001902000000000195100053000000000000001269000000000002442756000000000000009999123100000010000000000000BRBRMLACNOR9105
012013080762BRML3T      030BR MALLS PARON      NM030R$  000000000192700000000019280000000001927000000000192700000000019280000000000000000000000000000002000000000000001000000000000001927015000000000000009999123100000010000000000000BRBRMLACNOR9105
012013080702BRPR3       010BR PROPERT  ON      NM   R$  000000000183600000000018690000000001826000000000184400000000018520000000001852000000000185306824000000000001471800000000002714794600000000000000009999123100000010000000000000BRBRPRACNOR9112
012013080796BRPR3F      020BR PROPERT  ON      NM   R$  000000000193500000000019350000000001820000000000183900000000018200000000001820000000000191800031000000000000000924000000000001699366000000000000009999123100000010000000000000BRBRPRACNOR9112
012013080762BRPR3T      030BR PROPERT  ON      NM030R$  000000000187600000000018770000000001876000000000187600000000018770000000000000000000000000000002000000000000001000000000000001876489000000000000009999123100000010000000000000BRBRPRACNOR9112
012013080762BRPR3T      030BR PROPERT  ON      NM061R$  000000000186300000000018640000000001863000000000186300000000018640000000000000000000000000000002000000000000001400000000000002608306000000000000009999123100000010000000000000BRBRPRACNOR9112
012013080702BRSR6       010BANRISUL    PNB     N1   R$  000000000144900000000014590000000001415000000000143100000000014310000000001431000000000143201146000000000000339000000000000485214700000000000000009999123100000010000000000000BRBRSRACNPB4133
012013080796BRSR6F      020BANRISUL    PNB     N1   R$  000000000144000000000014480000000001401000000000142800000000014010000000001401000000000150700035000000000000001020000000000001456582000000000000009999123100000010000000000000BRBRSRACNPB4133
012013080762BRSR6T      030BANRISUL    PNB     N1090R$  000000000147200000000014730000000001472000000000147200000000014730000000000000000000000000000004000000000000000434000000000000638959000000000000009999123100000010000000000000BRBRSRACNPB4133
012013080702BSEV3       010BIOSEV      ON      NM   R$  000000000118600000000011900000000001186000000000118900000000011900000000001187000000000121900003000000000000008000000000000009519300000000000000009999123100000010000000000000BRBSEVACNOR3100
012013080782BSEVS99     080BSEVE       ON      NM000R$  000000000035200000000003520000000000352000000000035200000000003520000000000100000000000036500001000000000000007800000000000002745600000000000165702014072100000010000000000000BRBSEVACNOR3100
012013080702BTOW3       010B2W DIGITAL ON      NM   R$  000000000112500000000012600000000001106000000000120000000000012160000000001216000000000122802687000000000000895900000000001075176000000000000000009999123100000010000000000000BRBTOWACNOR8105
012013080796BTOW3F      020B2W DIGITAL ON      NM   R$  000000000114200000000012500000000001111000000000120500000000011650000000001230000000000125000056000000000000001518000000000001830161000000000000009999123100000010000000000000BRBTOWACNOR8105
012013080702BTTL3       010BATTISTELLA ON           R$  000000000008000000000000800000000000080000000000008000000000000800000000000076000000000008600001000000000000002000000000000000160000000000000000009999123100000010000000000000BRBTTLACNOR0105
012013080702BTTL4       010BATTISTELLA PN           R$  000000000010000000000001000000000000100000000000010000000000001000000000000098000000000010000001000000000000003500000000000000350000000000000000009999123100000010000000000000BRBTTLACNPR7105
012013080702BVMF3       010BMFBOVESPA  ON      NM   R$  000000000115000000000011750000000001118000000000114700000000011620000000001161000000000116523338000000000018066900000000020731797800000000000000009999123100000010000000000000BRBVMFACNOR3125
012013080796BVMF3F      020BMFBOVESPA  ON      NM   R$  000000000115100000000011740000000001120000000000114600000000011500000000001145000000000115000122000000000000003616000000000004147298000000000000009999123100000010000000000000BRBVMFACNOR3125
012013080762BVMF3T      030BMFBOVESPA  ON      NM016R$  000000000115100000000011520000000001151000000000115100000000011520000000000000000000000000000002000000000000000400000000000000460681000000000000009999123100000010000000000000BRBVMFACNOR3125
012013080762BVMF3T      030BMFBOVESPA  ON      NM030R$  000000000115700000000011660000000001154000000000115600000000011550000000000000000000000000000006000000000000016000000000000018511303000000000000009999123100000010000000000000BRBVMFACNOR3125
012013080762BVMF3T      030BMFBOVESPA  ON      NM043R$  000000000115400000000011550000000001154000000000115400000000011550000000000000000000000000000002000000000000000200000000000000230974000000000000009999123100000010000000000000BRBVMFACNOR3125
012013080762BVMF3T      030BMFBOVESPA  ON      NM061R$  000000000115500000000011560000000001152000000000115200000000011530000000000000000000000000000006000000000000002100000000000002419555000000000000009999123100000010000000000000BRBVMFACNOR3125
012013080762BVMF3T      030BMFBOVESPA  ON      NM090R$  000000000116000000000011620000000001159000000000116000000000011610000000000000000000000000000016000000000000135000000000000156672932000000000000009999123100000010000000000000BRBVMFACNOR3125
012013080762BVMF3T      030BMFBOVESPA  ON      NM120R$  000000000120300000000012040000000001203000000000120300000000012040000000000000000000000000000002000000000000005000000000000006016462000000000000009999123100000010000000000000BRBVMFACNOR3125
012013080778BVMFH1      070BVMFE       ON      NM000R$  000000000000200000000000020000000000002000000000000200000000000020000000000000000000000000000040000000000000098000000000000000196000000000000132502013081900000010000000000000BRBVMFACNOR3125
012013080778BVMFH10     070BVMF        ON      NM000R$  000000000016100000000001610000000000160000000000016000000000001600000000000000000000000023600002000000000000000200000000000000032100000000000100002013081900000010000000000000BRBVMFACNOR3125
012013080778BVMFH11     070BVMF        ON      NM000R$  000000000008100000000000840000000000048000000000006500000000000820000000000067000000000008400460000000000000706100000000000046415500000000000110002013081900000010000000000000BRBVMFACNOR3125
012013080778BVMFH12     070BVMF  FM    ON      NM000R$  000000000002000000000000230000000000010000000000001300000000000180000000000017000000000001800470000000000001041400000000000014499900000000000120002013081900000010000000000000BRBVMFACNOR3125
012013080778BVMFH13     070BVMF  FM    ON      NM000R$  000000000000300000000000040000000000002000000000000300000000000030000000000003000000000000400154000000000000427600000000000001454900000000000128902013081900000010000000000000BRBVMFACNOR3124
012013080778BVMFH15     070BVMF        ON      NM000R$  000000000000100000000000010000000000001000000000000100000000000010000000000000000000000000100001000000000000001800000000000000001800000000000150002013081900000010000000000000BRBVMFACNOR3125
012013080778BVMFH40     070BVMF        ON      NM000R$  000000000011000000000001100000000000110000000000011000000000001100000000000000000000000000000001000000000000000100000000000000011000000000000105002013081900000010000000000000BRBVMFACNOR3125
012013080778BVMFH41     070BVMF  FM    ON      NM000R$  000000000003000000000000490000000000023000000000003100000000000480000000000000000000000005000151000000000000522900000000000016512800000000000115002013081900000010000000000000BRBVMFACNOR3125
012013080778BVMFH42     070BVMF  FM    ON      NM000R$  000000000000700000000000070000000000004000000000000500000000000060000000000000000000000000900089000000000000256700000000000001401100000000000125002013081900000010000000000000BRBVMFACNOR3125
012013080778BVMFH43     070BVMF  FM    ON      NM000R$  000000000000200000000000020000000000001000000000000100000000000010000000000000000000000000200015000000000000027200000000000000043400000000000135002013081900000010000000000000BRBVMFACNOR3125
012013080778BVMFH61     070BVMFE       ON      NM000R$  000000000002100000000000230000000000021000000000002200000000000220000000000000000000000000000004000000000000001600000000000000035200000000000117502013081900000010000000000000BRBVMFACNOR3125
012013080778BVMFI10     070BVMF        ON      NM000R$  000000000017700000000001770000000000145000000000015300000000001470000000000145000000000000000007000000000000013500000000000002074400000000000100002013091600000010000000000000BRBVMFACNOR3125
012013080778BVMFI11     070BVMF        ON      NM000R$  000000000008800000000001030000000000074000000000008400000000001030000000000065000000000010600011000000000000015100000000000001275100000000000110002013091600000010000000000000BRBVMFACNOR3125
012013080778BVMFI12     070BVMF  FM    ON      NM000R$  000000000004000000000000430000000000027000000000003300000000000420000000000031000000000004300163000000000000318200000000000010762800000000000120002013091600000010000000000000BRBVMFACNOR3125
012013080778BVMFI13     070BVMF  FM    ON      NM000R$  000000000001200000000000120000000000009000000000001000000000000120000000000010000000000001200112000000000000349700000000000003652000000000000130002013091600000010000000000000BRBVMFACNOR3125
012013080778BVMFI14     070BVMF        ON      NM000R$  000000000000500000000000050000000000003000000000000400000000000050000000000004000000000000500029000000000000098100000000000000401400000000000140002013091600000010000000000000BRBVMFACNOR3125
012013080778BVMFI40     070BVMF        ON      NM000R$  000000000011600000000001160000000000109000000000011200000000001090000000000000000000000000000002000000000000010000000000000001125000000000000105002013091600000010000000000000BRBVMFACNOR3125
012013080778BVMFI41     070BVMF  FM    ON      NM000R$  000000000006600000000000670000000000046000000000005300000000000670000000000000000000000000000126000000000000362400000000000019416800000000000115002013091600000010000000000000BRBVMFACNOR3125
012013080778BVMFI42     070BVMF  FM    ON      NM000R$  000000000002600000000000260000000000015000000000001800000000000210000000000000000000000000000063000000000000154400000000000002888000000000000125002013091600000010000000000000BRBVMFACNOR3125
012013080778BVMFJ11     070BVMF        ON      NM000R$  000000000009900000000000990000000000097000000000009800000000000970000000000000000000000000000002000000000000005000000000000000493200000000000110002013102100000010000000000000BRBVMFACNOR3125
012013080778BVMFJ12     070BVMF        ON      NM000R$  000000000005500000000000590000000000055000000000005500000000000590000000000000000000000000000002000000000000006000000000000000334000000000000120002013102100000010000000000000BRBVMFACNOR3125
012013080778BVMFJ42     070BVMF        ON      NM000R$  000000000003800000000000380000000000036000000000003700000000000360000000000000000000000000000002000000000000001900000000000000072000000000000125002013102100000010000000000000BRBVMFACNOR3125
012013080778BVMFK12     070BVMF        ON      NM000R$  000000000006900000000000740000000000069000000000007200000000000740000000000000000000000000000002000000000000001400000000000000101600000000000120002013111800000010000000000000BRBVMFACNOR3125
012013080778BVMFK15     070BVMF        ON      NM000R$  000000000000700000000000070000000000007000000000000700000000000070000000000000000000000001100003000000000000003000000000000000021000000000000150002013111800000010000000000000BRBVMFACNOR3125
012013080778BVMFL14     070BVMF        ON      NM000R$  000000000002500000000000250000000000025000000000002500000000000250000000000000000000000000000003000000000000002900000000000000072500000000000138902013121600000010000000000000BRBVMFACNOR3124
012013080778BVMFL15     070BVMF        ON      NM000R$  000000000001100000000000110000000000011000000000001100000000000110000000000000000000000001200003000000000000010000000000000000110000000000000150002013121600000010000000000000BRBVMFACNOR3125
012013080782BVMFT10     080BVMFE       ON      NM000R$  000000000000400000000000040000000000003000000000000300000000000030000000000000000000000010000002000000000000000200000000000000000700000000000100002013081900000010000000000000BRBVMFACNOR3125
012013080782BVMFT11     080BVMFE FM    ON      NM000R$  000000000001600000000000250000000000008000000000001600000000000220000000000009000000000002300200000000000000186300000000000003072700000000000110002013081900000010000000000000BRBVMFACNOR3125
012013080782BVMFT12     080BVMFE FM    ON      NM000R$  000000000004900000000000860000000000047000000000007100000000000470000000000001000000000000000085000000000000170800000000000012221500000000000120002013081900000010000000000000BRBVMFACNOR3125
012013080782BVMFT13     080BVMFE       ON      NM000R$  000000000014700000000001510000000000126000000000014400000000001510000000000000000000000012400019000000000000008300000000000001201600000000000128902013081900000010000000000000BRBVMFACNOR3124
012013080782BVMFT14     080BVMFE       ON      NM000R$  000000000025300000000002530000000000218000000000024000000000002180000000000000000000000000000003000000000000007000000000000001685700000000000138902013081900000010000000000000BRBVMFACNOR3124
012013080782BVMFT40     080BVMFE       ON      NM000R$  000000000001100000000000110000000000004000000000000500000000000060000000000000000000000000000042000000000000267000000000000001432400000000000105002013081900000010000000000000BRBVMFACNOR3125
012013080782BVMFT41     080BVMFE FM    ON      NM000R$  000000000002900000000000500000000000022000000000003300000000000220000000000001000000000004300173000000000000599500000000000020351900000000000115002013081900000010000000000000BRBVMFACNOR3125
012013080782BVMFT42     080BVMFE FM    ON      NM000R$  000000000009000000000001320000000000085000000000011500000000000850000000000000000000000000000104000000000000263700000000000030397900000000000125002013081900000010000000000000BRBVMFACNOR3125
012013080782BVMFT43     080BVMFE       ON      NM000R$  000000000021500000000002150000000000176000000000019700000000001760000000000000000000000000000006000000000000018200000000000003591700000000000135002013081900000010000000000000BRBVMFACNOR3125
012013080782BVMFT62     080BVMFE       ON      NM000R$  000000000007700000000000770000000000077000000000007700000000000770000000000000000000000000000001000000000000000500000000000000038500000000000122502013081900000010000000000000BRBVMFACNOR3125
012013080782BVMFU10     080BVMFE       ON      NM000R$  000000000001100000000000110000000000011000000000001100000000000110000000000000000000000005500001000000000000003200000000000000035200000000000100002013091600000010000000000000BRBVMFACNOR3125
012013080782BVMFU11     080BVMFE FM    ON      NM000R$  000000000002600000000000360000000000026000000000003200000000000360000000000000000000000000000011000000000000029200000000000000948700000000000110002013091600000010000000000000BRBVMFACNOR3125
012013080782BVMFU12     080BVMFE FM    ON      NM000R$  000000000007200000000000900000000000060000000000007800000000000610000000000061000000000008400044000000000000054500000000000004282300000000000120002013091600000010000000000000BRBVMFACNOR3125
012013080782BVMFU13     080BVMFE       ON      NM000R$  000000000016500000000001650000000000165000000000016500000000001650000000000000000000000000000001000000000000003600000000000000594000000000000130002013091600000010000000000000BRBVMFACNOR3125
012013080782BVMFU41     080BVMFE FM    ON      NM000R$  000000000005200000000000600000000000040000000000005000000000000400000000000000000000000000000014000000000000046800000000000002347100000000000115002013091600000010000000000000BRBVMFACNOR3125
012013080782BVMFU42     080BVMFE FM    ON      NM000R$  000000000011500000000001290000000000094000000000011200000000000940000000000092000000000000000047000000000000157400000000000017701600000000000125002013091600000010000000000000BRBVMFACNOR3125
012013080782BVMFV10     080BVMFE       ON      NM000R$  000000000001800000000000180000000000018000000000001800000000000180000000000000000000000002500001000000000000000200000000000000003600000000000100002013102100000010000000000000BRBVMFACNOR3125
012013080782BVMFV12     080BVMFE       ON      NM000R$  000000000009000000000000900000000000090000000000009000000000000900000000000000000000000014000001000000000000005000000000000000450000000000000120002013102100000010000000000000BRBVMFACNOR3125
012013080782BVMFV41     080BVMFE       ON      NM000R$  000000000006100000000000610000000000061000000000006100000000000610000000000000000000000008000001000000000000005000000000000000305000000000000115002013102100000010000000000000BRBVMFACNOR3125
012013080782BVMFW10     080BVMFE       ON      NM000R$  000000000002300000000000270000000000023000000000002500000000000270000000000000000000000003200002000000000000000400000000000000010000000000000100002013111800000010000000000000BRBVMFACNOR3125
012013080782BVMFW11     080BVMFE       ON      NM000R$  000000000005200000000000570000000000052000000000005500000000000570000000000000000000000000000002000000000000000300000000000000016600000000000110002013111800000010000000000000BRBVMFACNOR3125
012013080782BVMFX11     080BVMFE       ON      NM000R$  000000000005800000000000600000000000058000000000005900000000000600000000000000000000000000000003000000000000000300000000000000017700000000000110002013121600000010000000000000BRBVMFACNOR3125
012013080782BVMFX2      080BVMFE       ON      NM000R$  000000000009000000000000900000000000090000000000009000000000000900000000000000000000000009200001000000000000000100000000000000009000000000000118902013121600000010000000000000BRBVMFACNOR3124
012013080702CAMB4       010CAMBUCI     PN           R$  000000000018200000000001880000000000179000000000018300000000001830000000000183000000000019000025000000000000010600000000000001944900000000000000009999123100000010000000000000BRCAMBACNPR1117
012013080702CARD3       010CSU CARDSYSTON      NM   R$  000000000033000000000003300000000000322000000000032700000000003280000000000325000000000033000011000000000000003800000000000001243500000000000000009999123100000010000000000000BRCARDACNOR9105
012013080796CARD3F      020CSU CARDSYSTON      NM   R$  000000000028900000000002890000000000289000000000028900000000002890000000000299000000000033300002000000000000000008000000000000002312000000000000009999123100000010000000000000BRCARDACNOR9105
012013080702CBMA3       010COBRASMA    ON           R$  000000000000600000000000060000000000006000000000000600000000000060000000000005000000000000700001000000000000010000000000000000060000000000000000009999123100000010000000000000BRCBMAACNOR4124
012013080796CBMA3F      020COBRASMA    ON           R$  000000000000700000000000070000000000006000000000000600000000000060000000000006000000000000700005000000000000006002000000000000042013000000000000009999123100000010000000000000BRCBMAACNOR4124
012013080702CBMA4       010COBRASMA    PN           R$  000000000000600000000000070000000000005000000000000500000000000050000000000005000000000000600034000000000001320000000000000007600000000000000000009999123100000010000000000000BRCBMAACNPR1124
012013080796CBMA4F      020COBRASMA    PN           R$  000000000000800000000000080000000000005000000000000600000000000050000000000005000000000000600004000000000000000814000000000000005697000000000000009999123100000010000000000000BRCBMAACNPR1124
012013080708CCHI3       010CHIARELLI   ON           R$  000000000002900000000000300000000000028000000000002900000000000290000000000029000000000003000029000000000000490000000000000014230000000000000000009999123100000010000000000000BRCCHIACNOR5123
012013080796CCHI3F      020CHIARELLI   ON           R$  000000000002800000000000280000000000027000000000002700000000000270000000000027000000000002800003000000000000003184000000000000086452000000000000009999123100000010000000000000BRCCHIACNOR5123
012013080702CCPR3       010CYRE COM-CCPON      NM   R$  000000000205700000000022300000000002057000000000209800000000020750000000002075000000000215400010000000000000001200000000000002518700000000000000009999123100000010000000000000BRCCPRACNOR9107
012013080702CCRO3       010CCR SA      ON      NM   R$  000000000174900000000017580000000001720000000000173200000000017220000000001722000000000172310172000000000003485500000000006037241200000000000000009999123100000010000000000000BRCCROACNOR2122
012013080796CCRO3F      020CCR SA      ON      NM   R$  000000000174000000000017510000000001715000000000173100000000017260000000001721000000000172600062000000000000001729000000000002993597000000000000009999123100000010000000000000BRCCROACNOR2122
012013080778CCROI47     070CCRO        ON      NM000R$  000000000004300000000000430000000000043000000000004300000000000430000000000000000000000000000001000000000000003000000000000000129000000000000175002013091600000010000000000000BRCCROACNOR2122
012013080702CCXC3       010CCX CARVAO  ON      NM   R$  000000000008300000000000840000000000080000000000008100000000000820000000000081000000000008200196000000000000574400000000000046880200000000000000009999123100000010000000000000BRCCXCACNOR5100
012013080796CCXC3F      020CCX CARVAO  ON      NM   R$  000000000008500000000000850000000000085000000000008500000000000850000000000081000000000008500001000000000000000008000000000000000680000000000000009999123100000010000000000000BRCCXCACNOR5100
012013080702CEBR5       010CEB         PNA          R$  000000000210000000000021000000000002100000000000210000000000021000000000002000000000000230000004000000000000000600000000000001260000000000000000009999123100000010000000000000BRCEBRACNPA8113
012013080702CEBR6       010CEB         PNB          R$  000000000160200000000017390000000001602000000000164900000000017000000000001650000000000170000004000000000000000500000000000000824500000000000000009999123100000010000000000000BRCEBRACNPB6113
012013080702CEDO3       010CEDRO       ON      N1   R$  000000000100000000000010000000000001000000000000100000000000010000000000000960000000000178500001000000000000000100000000000000100000000000000000009999123100000010000000000000BRCEDOACNOR8094
012013080702CEDO4       010CEDRO       PN      N1   R$  000000000082300000000008600000000000823000000000084700000000008600000000000800000000000086300004000000000000000400000000000000338900000000000000009999123100000010000000000000BRCEDOACNPR5126
012013080796CEEB3F      020COELBA      ON           R$  000000000320000000000032000000000003200000000000320000000000032000000000003200000000000350000002000000000000000021000000000000067200000000000000009999123100000010000000000000BRCEEBACNOR3163
012013080708CELP3       010CELPA       ON           R$  000000000006300000000000630000000000063000000000006300000000000630000000000056000000000006300003000000000000000300000000000000018900000000000000009999123100000010000000000000BRCELPACNOR8112
012013080712CEOC11B     010FII CEO CCP CI      MB   R$  000000000919700000000092500000000009160000000000918300000000091600000000009131000000000916000020000000000000001524000000000013996072000000000000009999123100000010000000000000BRCEOCCTF003108
012013080702CEPE5       010CELPE       PNA          R$  000000000174000000000017500000000001740000000000174000000000017500000000001740000000000180000002000000000000404200000000000703309000000000000000009999123100000010000000000000BRCEPEACNPA6151
012013080796CEPE5F      020CELPE       PNA          R$  000000000180000000000018000000000001800000000000180000000000018000000000001700000000000439300001000000000000000097000000000000174600000000000000009999123100000010000000000000BRCEPEACNPA6151
012013080702CESP3       010CESP        ON      N1   R$  000000000167300000000016960000000001673000000000168700000000016960000000001465000000000169700007000000000000001100000000000001855800000000000000009999123100000010000000000000BRCESPACNOR3159
012013080796CESP3F      020CESP        ON      N1   R$  000000000167200000000016720000000001672000000000167200000000016720000000001508000000000200100001000000000000000010000000000000016720000000000000009999123100000010000000000000BRCESPACNOR3159
012013080702CESP6       010CESP        PNB     N1   R$  000000000198500000000021200000000001980000000000204500000000020650000000002050000000000206503293000000000001250700000000002558309000000000000000009999123100000010000000000000BRCESPACNPB4118
012013080796CESP6F      020CESP        PNB     N1   R$  000000000199500000000021160000000001975000000000207200000000020800000000002029000000000208000040000000000000001396000000000002892653000000000000009999123100000010000000000000BRCESPACNPB4118
012013080762CESP6T      030CESP        PNB     N1061R$  000000000210800000000021090000000002108000000000210800000000021090000000000000000000000000000004000000000000010000000000000021080800000000000000009999123100000010000000000000BRCESPACNPB4118
012013080702CGAS3       010COMGAS      ON           R$  000000000510000000000051490000000005099000000000512000000000051490000000005148000000000514900006000000000000000700000000000003584300000000000000009999123100000010000000000000BRCGASACNOR0132
012013080702CGAS5       010COMGAS      PNA          R$  000000000561000000000056340000000005565000000000560400000000056000000000005600000000000562200104000000000000023100000000000129454200000000000000009999123100000010000000000000BRCGASACNPA3129
012013080796CGAS5F      020COMGAS      PNA          R$  000000000560000000000056890000000005600000000000564700000000056510000000005412000000000575500005000000000000000097000000000000547791000000000000009999123100000010000000000000BRCGASACNPA3129
012013080702CGRA3       010GRAZZIOTIN  ON           R$  000000000160000000000016000000000001600000000000160000000000016000000000001560000000000160000001000000000000000700000000000001120000000000000000009999123100000010000000000000BRCGRAACNOR2061
012013080796CGRA3F      020GRAZZIOTIN  ON           R$  000000000160000000000016000000000001600000000000160000000000016000000000001600000000000162000001000000000000000016000000000000025600000000000000009999123100000010000000000000BRCGRAACNOR2061
012013080702CGRA4       010GRAZZIOTIN  PN           R$  000000000160800000000016250000000001607000000000162000000000016220000000001622000000000162400027000000000000006200000000000010049800000000000000009999123100000010000000000000BRCGRAACNPR9061
012013080796CGRA4F      020GRAZZIOTIN  PN           R$  000000000158000000000016400000000001560000000000163300000000015600000000001560000000000161500003000000000000000092000000000000150320000000000000009999123100000010000000000000BRCGRAACNPR9061
012013080762CGRA4T      030GRAZZIOTIN  PN        061R$  000000000164500000000016460000000001645000000000164500000000016460000000000000000000000000000002000000000000000400000000000000658321000000000000009999123100000010000000000000BRCGRAACNPR9061
012013080762CGRA4T      030GRAZZIOTIN  PN        090R$  000000000165400000000016550000000001654000000000165400000000016550000000000000000000000000000002000000000000001900000000000003142820000000000000009999123100000010000000000000BRCGRAACNPR9061
012013080702CIEL3       010CIELO       ON      NM   R$  000000000550600000000055350000000005450000000000547700000000054800000000005480000000000548105859000000000001506700000000008253372000000000000000009999123100000010000000000000BRCIELACNOR3111
012013080796CIEL3F      020CIELO       ON      NM   R$  000000000550000000000055180000000005452000000000548100000000054660000000005466000000000548100107000000000000003324000000000018220002000000000000009999123100000010000000000000BRCIELACNOR3111
012013080762CIEL3T      030CIELO       ON      NM090R$  000000000558000000000056010000000005579000000000559200000000055980000000000000000000000000000024000000000000150000000000000838891247000000000000009999123100000010000000000000BRCIELACNOR3111
012013080702CLSC4       010CELESC      PN      N2   R$  000000000184900000000018500000000001840000000000184800000000018500000000001850000000000186000015000000000000001500000000000002773400000000000000009999123100000010000000000000BRCLSCACNPR3107
012013080702CMIG3       010CEMIG       ON      N1   R$  000000000200000000000020760000000001996000000000204200000000020750000000002063000000000207500298000000000000121000000000000247140000000000000000009999123100000010000000000000BRCMIGACNOR6208
012013080796CMIG3F      020CEMIG       ON      N1   R$  000000000201800000000020990000000002018000000000204700000000020500000000002050000000000210000021000000000000000534000000000001093450000000000000009999123100000010000000000000BRCMIGACNOR6208
012013080702CMIG4       010CEMIG       PN      N1   R$  000000000200500000000020980000000002000000000000206500000000020690000000002069000000000207008468000000000003248700000000006710494500000000000000009999123100000010000000000000BRCMIGACNPR3208
012013080796CMIG4F      020CEMIG       PN      N1   R$  000000000200000000000020970000000002000000000000205500000000020880000000002061000000000208800180000000000000005360000000000011015632000000000000009999123100000010000000000000BRCMIGACNPR3208
012013080762CMIG4T      030CEMIG       PN      N1016R$  000000000205600000000020570000000002056000000000205600000000020570000000000000000000000000000002000000000000001600000000000003289907000000000000009999123100000010000000000000BRCMIGACNPR3208
012013080762CMIG4T      030CEMIG       PN      N1061R$  000000000205500000000020900000000002055000000000208400000000020900000000000000000000000000000006000000000000010900000000000022725494000000000000009999123100000010000000000000BRCMIGACNPR3208
012013080712CNES11B     010FII CENESP  CI      MB   R$  000000001240000000000125700000000012400000000001251100000000125000000000012420000000001257000006000000000000000488000000000006105850000000000000009999123100000010000000000000BRCNESCTF001124
012013080702COCE3       010COELCE      ON           R$  000000000413400000000042200000000004134000000000417600000000042000000000003600000000000420000007000000000000000700000000000002923200000000000000009999123100000010000000000000BRCOCEACNOR0132
012013080702COCE5       010COELCE      PNA          R$  000000000401000000000040280000000003960000000000400000000000040000000000003976000000000400000034000000000000014800000000000059213500000000000000009999123100000010000000000000BRCOCEACNPA3133
012013080796COCE5F      020COELCE      PNA          R$  000000000405000000000040500000000003950000000000399500000000039500000000003930000000000400600015000000000000000289000000000001154816000000000000009999123100000010000000000000BRCOCEACNPA3133
012013080762COCE5T      030COELCE      PNA       061R$  000000000408900000000040900000000004089000000000408900000000040900000000000000000000000000000002000000000000000200000000000000817926000000000000009999123100000010000000000000BRCOCEACNPA3133
012013080702CPFE3       010CPFL ENERGIAON      NM   R$  000000000206500000000021000000000002062000000000208800000000021000000000002088000000000210002988000000000000537900000000001123343000000000000000009999123100000010000000000000BRCPFEACNOR0121
012013080796CPFE3F      020CPFL ENERGIAON      NM   R$  000000000206500000000020980000000002065000000000208000000000020760000000002076000000000211700030000000000000001051000000000002186412000000000000009999123100000010000000000000BRCPFEACNOR0121
012013080762CPFE3T      030CPFL ENERGIAON      NM180R$  000000000216800000000021690000000002168000000000216800000000021690000000000000000000000000000004000000000000002000000000000004336696000000000000009999123100000010000000000000BRCPFEACNOR0121
012013080702CPLE3       010COPEL       ON      N1   R$  000000000219000000000022960000000002190000000000228300000000022890000000002165000000000229000060000000000000034900000000000079691200000000000000009999123100000010000000000000BRCPLEACNOR8128
012013080702CPLE6       010COPEL       PNB     N1   R$  000000000284900000000029900000000002814000000000291600000000029170000000002917000000000292104193000000000000830100000000002421358300000000000000009999123100000010000000000000BRCPLEACNPB9125
012013080796CPLE6F      020COPEL       PNB     N1   R$  000000000285000000000029700000000002848000000000290000000000028600000000002851000000000304000029000000000000000782000000000002267952000000000000009999123100000010000000000000BRCPLEACNPB9125
012013080702CPRE3       010CPFL RENOVAVON      NM   R$  000000000119500000000011950000000001189000000000119400000000011890000000001175000000000118900017000000000002517200000000003008029500000000000000009999123100000010000000000000BRCPREACNOR5100
012013080796CPRE3F      020CPFL RENOVAVON      NM   R$  000000000119200000000012040000000001175000000000118800000000012040000000001175000000000120500003000000000000000120000000000000142610000000000000009999123100000010000000000000BRCPREACNOR5100
012013080762CPRE3T      030CPFL RENOVAVON      NM030R$  000000000120100000000012020000000001201000000000120100000000012020000000000000000000000000000002000000000000007993000000000009601972000000000000009999123100000010000000000000BRCPREACNOR5100
012013080702CRDE3       010CR2         ON      NM   R$  000000000041100000000004150000000000411000000000041400000000004150000000000408000000000041500004000000000000001200000000000000496800000000000000009999123100000010000000000000BRCRDEACNOR1108
012013080796CRDE3F      020CR2         ON      NM   R$  000000000042900000000004290000000000429000000000042900000000004290000000000384000000000000000001000000000000000020000000000000008580000000000000009999123100000010000000000000BRCRDEACNOR1108
012013080796CREM3F      020CREMER      ON      NM   R$  000000000152800000000015280000000001528000000000152800000000015280000000001373000000000152900001000000000000000050000000000000076400000000000000009999123100000010000000000000BRCREMACNOR2166
012013080702CRIV4       010ALFA FINANC PN           R$  000000000047400000000004790000000000471000000000047500000000004790000000000468000000000047900008000000000000003300000000000001569000000000000000009999123100000010000000000000BRCRIVACNPR1189
012013080702CRUZ3       010SOUZA CRUZ  ON           R$  000000000252600000000025820000000002521000000000255300000000025500000000002546000000000255003868000000000001022500000000002611158300000000000000009999123100000010000000000000BRCRUZACNOR0246
012013080796CRUZ3F      020SOUZA CRUZ  ON           R$  000000000254000000000025980000000002529000000000255300000000025640000000002529000000000260000090000000000000002411000000000006156579000000000000009999123100000010000000000000BRCRUZACNOR0246
012013080762CRUZ3T      030SOUZA CRUZ  ON        030R$  000000000256800000000025690000000002568000000000256800000000025690000000000000000000000000000002000000000000001000000000000002568347000000000000009999123100000010000000000000BRCRUZACNOR0246
012013080762CRUZ3T      030SOUZA CRUZ  ON        061R$  000000000257200000000025730000000002572000000000257200000000025730000000000000000000000000000002000000000000004800000000000012345651000000000000009999123100000010000000000000BRCRUZACNOR0246
012013080778CRUZL34     070CRUZ        ON        000R$  000000000000800000000000080000000000008000000000000800000000000080000000000000000000000000000002000000000000001400000000000000011200000000000340002013121600000010000000000000BRCRUZACNOR0246
012013080778CRUZL57     070CRUZ        ON        000R$  000000000015800000000001580000000000158000000000015800000000001580000000000000000000000000000001000000000000001000000000000000158000000000000275002013121600000010000000000000BRCRUZACNOR0246
012013080782CRUZX57     080CRUZE       ON        000R$  000000000032000000000003200000000000320000000000032000000000003200000000000000000000000032000002000000000000000400000000000000128000000000000275002013121600000010000000000000BRCRUZACNOR0246
012013080702CSAB4       010SEG AL BAHIAPN           R$  000000000300000000000030000000000003000000000000300000000000030000000000003001000000000000000002000000000000000300000000000000900000000000000000009999123100000010000000000000BRCSABACNPR8051
012013080702CSAN3       010COSAN       ON  ED  NM   R$  000000000420000000000042260000000004120000000000416100000000041700000000004162000000000418504174000000000001029900000000004285704100000000000000009999123100000010000000000000BRCSANACNOR6108
012013080796CSAN3F      020COSAN       ON  ED  NM   R$  000000000429700000000042970000000004075000000000416100000000041010000000004101000000000420900043000000000000001252000000000005205235000000000000009999123100000010000000000000BRCSANACNOR6108
012013080762CSAN3T      030COSAN       ON  ED  NM016R$  000000000423900000000042400000000004186000000000423000000000041870000000000000000000000000000004000000000000001200000000000005076529000000000000009999123100000010000000000000BRCSANACNOR6108
012013080762CSAN3T      030COSAN       ON  ED  NM090R$  000000000426300000000042640000000004219000000000423400000000042540000000000000000000000000000032000000000000101200000000000428570395000000000000009999123100000010000000000000BRCSANACNOR6108
012013080702CSMG3       010COPASA      ON      NM   R$  000000000341200000000034310000000003251000000000333500000000033250000000003325000000000333302588000000000000521100000000001738002300000000000000009999123100000010000000000000BRCSMGACNOR5127
012013080796CSMG3F      020COPASA      ON      NM   R$  000000000339800000000033980000000003290000000000332300000000032990000000003251000000000329900025000000000000000604000000000002008002000000000000009999123100000010000000000000BRCSMGACNOR5127
012013080762CSMG3T      030COPASA      ON      NM061R$  000000000339400000000033950000000003394000000000339400000000033950000000000000000000000000000002000000000000002000000000000006788423000000000000009999123100000010000000000000BRCSMGACNOR5127
012013080702CSNA3       010SID NACIONALON           R$  000000000068000000000006920000000000666000000000067700000000006700000000000670000000000067215475000000000014172700000000009596711900000000000000009999123100000010000000000000BRCSNAACNOR6242
012013080796CSNA3F      020SID NACIONALON           R$  000000000067200000000006910000000000667000000000067600000000006760000000000674000000000068000115000000000000003672000000000002484706000000000000009999123100000010000000000000BRCSNAACNOR6242
012013080762CSNA3T      030SID NACIONALON        030R$  000000000067500000000006790000000000674000000000067700000000006750000000000000000000000000000006000000000000021000000000000014231528000000000000009999123100000010000000000000BRCSNAACNOR6242
012013080762CSNA3T      030SID NACIONALON        061R$  000000000068800000000006990000000000688000000000069300000000006900000000000000000000000000000012000000000000026000000000000018019229000000000000009999123100000010000000000000BRCSNAACNOR6242
012013080762CSNA3T      030SID NACIONALON        090R$  000000000070300000000007040000000000686000000000069700000000006930000000000000000000000000000008000000000000023200000000000016179992000000000000009999123100000010000000000000BRCSNAACNOR6242
012013080762CSNA3T      030SID NACIONALON        180R$  000000000070200000000007120000000000702000000000070400000000007120000000000000000000000000000004000000000000001200000000000000844889000000000000009999123100000010000000000000BRCSNAACNOR6242
012013080778CSNAH6      070CSNA        ON        000R$  000000000008200000000000910000000000077000000000008200000000000800000000000073000000000008200011000000000000006500000000000000536000000000000060002013081900000010000000000000BRCSNAACNOR6242
012013080778CSNAH64     070CSNA  FM    ON        000R$  000000000005000000000000500000000000050000000000005000000000000500000000000000000000000000000001000000000000002000000000000000100000000000000064002013081900000010000000000000BRCSNAACNOR6242
012013080778CSNAH68     070CSNA  FM    ON        000R$  000000000002400000000000250000000000024000000000002400000000000250000000000000000000000000000003000000000000002800000000000000068000000000000068002013081900000010000000000000BRCSNAACNOR6242
012013080778CSNAH7      070CSNA  FM    ON        000R$  000000000002300000000000230000000000014000000000001700000000000170000000000009000000000002000075000000000000187700000000000003325400000000000070002013081900000010000000000000BRCSNAACNOR6242
012013080778CSNAH8      070CSNA        ON        000R$  000000000000400000000000040000000000002000000000000300000000000020000000000000000000000000400004000000000000005500000000000000018000000000000080002013081900000010000000000000BRCSNAACNOR6242
012013080778CSNAI64     070CSNA  FM    ON        000R$  000000000006900000000000770000000000065000000000006900000000000650000000000000000000000000000018000000000000046100000000000003219800000000000064002013091600000010000000000000BRCSNAACNOR6242
012013080778CSNAI66     070CSNA  FM    ON        000R$  000000000005600000000000580000000000054000000000005600000000000580000000000000000000000000000005000000000000016500000000000000924000000000000066002013091600000010000000000000BRCSNAACNOR6242
012013080778CSNAI68     070CSNA  FM    ON        000R$  000000000004900000000000490000000000047000000000004800000000000470000000000000000000000000000003000000000000005300000000000000256100000000000068002013091600000010000000000000BRCSNAACNOR6242
012013080778CSNAI7      070CSNA  FM    ON        000R$  000000000003800000000000440000000000033000000000003700000000000330000000000027000000000004300033000000000000076700000000000002837900000000000070002013091600000010000000000000BRCSNAACNOR6242
012013080778CSNAI8      070CSNA        ON        000R$  000000000001200000000000120000000000012000000000001200000000000120000000000006000000000000000001000000000000001000000000000000012000000000000080002013091600000010000000000000BRCSNAACNOR6242
012013080778CSNAJ7      070CSNA        ON        000R$  000000000004500000000000480000000000045000000000004600000000000480000000000000000000000000000003000000000000010000000000000000465000000000000070002013102100000010000000000000BRCSNAACNOR6242
012013080782CSNAT6      080CSNAE       ON        000R$  000000000000400000000000040000000000004000000000000400000000000040000000000000000000000000500001000000000000000500000000000000002000000000000060002013081900000010000000000000BRCSNAACNOR6242
012013080782CSNAT65     080CSNAE       ON        000R$  000000000001400000000000140000000000014000000000001400000000000140000000000000000000000000000005000000000000005500000000000000077000000000000065002013081900000010000000000000BRCSNAACNOR6242
012013080782CSNAT7      080CSNAE       ON        000R$  000000000003100000000000310000000000031000000000003100000000000310000000000037000000000000000001000000000000001000000000000000031000000000000070002013081900000010000000000000BRCSNAACNOR6242
012013080782CSNAU66     080CSNAE FM    ON        000R$  000000000003600000000000390000000000036000000000003700000000000390000000000000000000000000000004000000000000007000000000000000259000000000000066002013091600000010000000000000BRCSNAACNOR6242
012013080782CSNAU68     080CSNAE FM    ON        000R$  000000000004200000000000450000000000042000000000004300000000000440000000000000000000000000000013000000000000025600000000000001119200000000000068002013091600000010000000000000BRCSNAACNOR6242
012013080782CSNAU7      080CSNAE       ON        000R$  000000000005900000000000600000000000047000000000005700000000000580000000000050000000000007400016000000000000025200000000000001439400000000000070002013091600000010000000000000BRCSNAACNOR6242
012013080782CSNAV55     080CSNAE       ON        000R$  000000000001700000000000170000000000017000000000001700000000000170000000000000000000000000000001000000000000002000000000000000034000000000000055002013102100000010000000000000BRCSNAACNOR6242
012013080782CSNAV6      080CSNAE       ON        000R$  000000000002700000000000270000000000026000000000002600000000000270000000000025000000000003200003000000000000000600000000000000016000000000000060002013102100000010000000000000BRCSNAACNOR6242
012013080782CSNAV62     080CSNAE       ON        000R$  000000000003300000000000330000000000033000000000003300000000000330000000000000000000000000000001000000000000002000000000000000066000000000000062002013102100000010000000000000BRCSNAACNOR6242
012013080782CSNAV64     080CSNAE       ON        000R$  000000000004000000000000420000000000040000000000004000000000000420000000000000000000000000000004000000000000008000000000000000326000000000000064002013102100000010000000000000BRCSNAACNOR6242
012013080782CSNAV66     080CSNAE       ON        000R$  000000000004900000000000500000000000048000000000004900000000000480000000000000000000000000000003000000000000006000000000000000294000000000000066002013102100000010000000000000BRCSNAACNOR6242
