00COTAHIST.2013BOVESPA 20130627                                                                                                                                                                                                                      
012013062702ABCB4       010ABC BRASIL  PN      N2   R$  000000000131400000000013140000000001262000000000129200000000012990000000001268000000000129900735000000000000183700000000000237374700000000000000009999123100000010000000000000BRABCBACNPR4119
012013062796ABCB4F      020ABC BRASIL  PN      N2   R$  000000000129200000000012920000000001262000000000126900000000012620000000001261000000000130000005000000000000000100000000000000126960000000000000009999123100000010000000000000BRABCBACNPR4119
012013062702ABRE11      010ABRIL EDUCA UNT     N2   R$  000000000386000000000039860000000003859000000000393300000000039400000000003935000000000394001047000000000000265700000000001045033100000000000000009999123100000010000000000000BRABRECDAM15102
012013062796ABRE11F     020ABRIL EDUCA UNT     N2   R$  000000000391900000000039340000000003801000000000389500000000039070000000003907000000000399900019000000000000000564000000000002196941000000000000009999123100000010000000000000BRABRECDAM15102
012013062702ABTT11B     010ABBOTT      DRN     MB   R$  000000000196000000000019600000000001960000000000196000000000019600000000001900000000000196000001000000000000000100000000000000196000000000000000009999123100000010000000000000BRABTTBDR007106
012013062702AEDU3       010ANHANGUERA  ON      NM   R$  000000000129200000000013300000000001292000000000130900000000013110000000001302000000000131111230000000000006171300000000008081660300000000000000009999123100000010000000000000BRAEDUACNOR9107
012013062796AEDU3F      020ANHANGUERA  ON      NM   R$  000000000131800000000013300000000001301000000000131400000000013020000000001300000000000131500028000000000000000850000000000001116974000000000000009999123100000010000000000000BRAEDUACNOR9107
012013062762AEDU3T      030ANHANGUERA  ON      NM032R$  000000000132800000000013300000000001328000000000132800000000013300000000000000000000000000000004000000000000001500000000000001993273000000000000009999123100000010000000000000BRAEDUACNOR9107
012013062712AEFI11      010FII AESAPAR CI           R$  000000001185000000000120000000000011850000000001189900000000120000000000011865000000001200000045000000000000003139000000000037353079000000000000009999123100000010000000000000BRAEFICTF002118
012013062702AELP3       010AES ELPA    ON           R$  000000000081300000000008130000000000781000000000080000000000008000000000000710000000000080500008000000000000000800000000000000640600000000000000009999123100000010000000000000BRAELPACNOR2119
012013062796AELP3F      020AES ELPA    ON           R$  000000000084800000000008480000000000848000000000084800000000008480000000000700000000000084800004000000000000000032000000000000027136000000000000009999123100000010000000000000BRAELPACNOR2119
012013062712AGCX11      010FII AG CAIXACI           R$  000000010230000000001040000000000102300000000010242900000001039000000000102600000000010390000008000000000000000038000000000003892310000000000000009999123100000010000000000000BRAGCXCTF003107
012013062702AGEN11      010AGRENCO     DR3          R$  000000000004700000000000480000000000044000000000004600000000000440000000000044000000000004500378000000000005900300000000000271906500000000000000009999123100000010000000000000BRAGENBDR001100
012013062796AGEN11F     020AGRENCO     DR3          R$  000000000004800000000000480000000000045000000000004600000000000450000000000045000000000005300003000000000000000166000000000000007767000000000000009999123100000010000000000000BRAGENBDR001100
012013062702AGRO3       010BRASILAGRO  ON      NM   R$  000000000112500000000011250000000001102000000000111000000000011090000000001103000000000110900033000000000000149500000000000166048100000000000000009999123100000010000000000000BRAGROACNOR7102
012013062796AGRO3F      020BRASILAGRO  ON      NM   R$  000000000109900000000010990000000001099000000000109900000000010990000000001100000000000119900001000000000000000014000000000000015386000000000000009999123100000010000000000000BRAGROACNOR7102
012013062702ALLL3       010ALL AMER LATON      NM   R$  000000000096700000000009670000000000945000000000095800000000009580000000000958000000000095904015000000000003913300000000003751814600000000000000009999123100000010000000000000BRALLLACNOR6118
012013062796ALLL3F      020ALL AMER LATON      NM   R$  000000000096700000000009760000000000944000000000095400000000009690000000000953000000000096900034000000000000000915000000000000873442000000000000009999123100000010000000000000BRALLLACNOR6118
012013062762ALLL3T      030ALL AMER LATON      NM090R$  000000000098500000000009860000000000985000000000098500000000009860000000000000000000000000000002000000000000003000000000000002956119000000000000009999123100000010000000000000BRALLLACNOR6118
012013062712ALMI11B     010FII TORRE ALCI      MB   R$  000000032200000000003270000000000322000000000032296900000003270000000000320001000000032990000005000000000000000033000000000010658000000000000000009999123100000010000000000000BRALMICTF003202
012013062702ALPA3       010ALPARGATAS  ON      N1   R$  000000000111300000000011130000000001090000000000109300000000010900000000001070000000000109000005000000000000001000000000000001093500000000000000009999123100000010000000000000BRALPAACNOR0202
012013062702ALPA4       010ALPARGATAS  PN      N1   R$  000000000140700000000014230000000001385000000000140500000000014230000000001416000000000142301740000000000000549900000000000772639200000000000000009999123100000010000000000000BRALPAACNPR7202
012013062796ALPA4F      020ALPARGATAS  PN      N1   R$  000000000139500000000014400000000001392000000000140400000000014110000000001420000000000150800023000000000000000576000000000000808964000000000000009999123100000010000000000000BRALPAACNPR7202
012013062762ALPA4T      030ALPARGATAS  PN      N1032R$  000000000142500000000014260000000001425000000000142500000000014260000000000000000000000000000002000000000000002000000000000002850874000000000000009999123100000010000000000000BRALPAACNPR7202
012013062702ALSC3       010ALIANSCE    ON      NM   R$  000000000202700000000020270000000001947000000000197100000000019600000000001960000000000197102168000000000000506700000000000998819100000000000000009999123100000010000000000000BRALSCACNOR0104
012013062796ALSC3F      020ALIANSCE    ON      NM   R$  000000000198700000000021150000000001936000000000196800000000021150000000001805000000000211700013000000000000000254000000000000499976000000000000009999123100000010000000000000BRALSCACNOR0104
012013062702ALUP11      010ALUPAR      UNT     N2   R$  000000000182800000000018690000000001801000000000183900000000018690000000001810000000000186900485000000000000153700000000000282727800000000000000009999123100000010000000000000BRALUPCDAM15100
012013062796ALUP11F     020ALUPAR      UNT     N2   R$  000000000186400000000018640000000001789000000000181000000000018000000000001750000000000195000007000000000000000218000000000000394753000000000000009999123100000010000000000000BRALUPCDAM15100
012013062702AMAR3       010LOJAS MARISAON      NM   R$  000000000230900000000024190000000002277000000000236300000000023200000000002310000000000232002400000000000000545800000000001289754400000000000000009999123100000010000000000000BRAMARACNOR4109
012013062796AMAR3F      020LOJAS MARISAON      NM   R$  000000000230100000000023640000000002301000000000234300000000023620000000002305000000000244900005000000000000000181000000000000424220000000000000009999123100000010000000000000BRAMARACNOR4109
012013062702AMBV3       010AMBEV       ON           R$  000000000779600000000080690000000007796000000000795100000000079300000000007930000000000793600791000000000000130300000000001036054400000000000000009999123100000010000000000000BRAMBVACNOR4153
012013062796AMBV3F      020AMBEV       ON           R$  000000000782000000000080500000000007820000000000793800000000079060000000007920000000000810900045000000000000001287000000000010215518000000000000009999123100000010000000000000BRAMBVACNOR4153
012013062762AMBV3T      030AMBEV       ON        018R$  000000000803200000000080320000000008032000000000803200000000080320000000000000000000000000000001000000000000000300000000000002409600000000000000009999123100000010000000000000BRAMBVACNOR4153
012013062702AMBV4       010AMBEV       PN           R$  000000000792500000000081730000000007925000000000805200000000080700000000008070000000000808307296000000000001521100000000012249330400000000000000009999123100000010000000000000BRAMBVACNPR1153
012013062796AMBV4F      020AMBEV       PN           R$  000000000793100000000082000000000007901000000000804000000000081820000000007969000000000818200222000000000000005604000000000045060808000000000000009999123100000010000000000000BRAMBVACNPR1153
012013062762AMBV4T      030AMBEV       PN        029R$  000000000819100000000081920000000008191000000000819100000000081920000000000000000000000000000002000000000000040000000000000327661244000000000000009999123100000010000000000000BRAMBVACNPR1153
012013062762AMBV4T      030AMBEV       PN        090R$  000000000828500000000082860000000008285000000000828500000000082860000000000000000000000000000002000000000000000300000000000002485643000000000000009999123100000010000000000000BRAMBVACNPR1153
012013062778AMBVG81     070AMBV        PN        000R$  000000000006500000000001200000000000065000000000008200000000001050000000000000000000000000000006000000000000003200000000000000262500000000000810002013071500000010000000000000BRAMBVACNPR1153
012013062778AMBVG82     070AMBV        PN        000R$  000000000005500000000001200000000000055000000000007900000000001200000000000000000000000012800026000000000000032100000000000002551600000000000820002013071500000010000000000000BRAMBVACNPR1153
012013062778AMBVG84     070AMBV        PN        000R$  000000000003000000000000300000000000024000000000002500000000000240000000000026000000000000000003000000000000007900000000000000198000000000000840002013071500000010000000000000BRAMBVACNPR1153
012013062778AMBVG86     070AMBV        PN        000R$  000000000002000000000000290000000000020000000000002800000000000290000000000010000000000000000004000000000000009900000000000000286200000000000843102013071500000010000000000000BRAMBVACNPR1150
012013062778AMBVG89     070AMBV        PN        000R$  000000000000300000000000030000000000003000000000000300000000000030000000000002000000000002000001000000000000000100000000000000000300000000000890002013071500000010000000000000BRAMBVACNPR1153
012013062782AMBVS83     080AMBVE       PN        000R$  000000000031000000000003100000000000260000000000030700000000002600000000000000000000000000000005000000000000060800000000000018682400000000000830002013071500000010000000000000BRAMBVACNPR1153
012013062782AMBVU81     080AMBVE       PN        000R$  000000000031000000000003100000000000305000000000030900000000003050000000000000000000000000000004000000000000060700000000000018763500000000000810002013091600000010000000000000BRAMBVACNPR1153
012013062702ARTR3       010ARTERIS     ON      NM   R$  000000000190000000000019330000000001873000000000190000000000019250000000001909000000000192503041000000000001538400000000002923233700000000000000009999123100000010000000000000BRARTRACNOR3101
012013062796ARTR3F      020ARTERIS     ON      NM   R$  000000000190900000000019240000000001890000000000190900000000019200000000001900000000000192900028000000000000000535000000000001021499000000000000009999123100000010000000000000BRARTRACNOR3101
012013062702ARZZ3       010AREZZO CO   ON      NM   R$  000000000344600000000035480000000003411000000000347500000000034700000000003459000000000348801788000000000000365900000000001271643900000000000000009999123100000010000000000000BRARZZACNOR3107
012013062796ARZZ3F      020AREZZO CO   ON      NM   R$  000000000348000000000034910000000003428000000000347300000000034720000000003423000000000347000008000000000000000127000000000000441087000000000000009999123100000010000000000000BRARZZACNOR3107
012013062702AUTM3       010AUTOMETAL   ON      NM   R$  000000000185600000000018700000000001852000000000186000000000018600000000001860000000000186900558000000000000396200000000000737140100000000000000009999123100000010000000000000BRAUTMACNOR8109
012013062796AUTM3F      020AUTOMETAL   ON      NM   R$  000000000184700000000018990000000001831000000000185800000000018310000000001412000000000190000004000000000000000118000000000000219253000000000000009999123100000010000000000000BRAUTMACNOR8109
012013062702BAUH4       010EXCELSIOR   PN           R$  000000000103800000000010380000000001038000000000103800000000010380000000000902000000000103000001000000000000000100000000000000103800000000000000009999123100000010000000000000BRBAUHACNPR3108
012013062702BAZA3       010AMAZONIA    ON           R$  000000000003300000000000340000000000033000000000003300000000000340000000000033000000000003400012000000000000059000000000000001949000000000000000009999123100000010000000000000BRBAZAACNOR0163
012013062796BAZA3F      020AMAZONIA    ON           R$  000000000003200000000000340000000000032000000000003300000000000340000000000032000000000003600002000000000000000161000000000000005334000000000000009999123100000010000000000000BRBAZAACNOR0163
012013062702BBAS3       010BRASIL      ON      NM   R$  000000000214000000000021860000000002132000000000216400000000021520000000002152000000000215812715000000000005248100000000011360123300000000000000009999123100000010000000000000BRBBASACNOR3237
012013062796BBAS3F      020BRASIL      ON      NM   R$  000000000213200000000021840000000002132000000000216400000000021640000000002160000000000217500186000000000000005025000000000010873512000000000000009999123100000010000000000000BRBBASACNOR3237
012013062762BBAS3T      030BRASIL      ON      NM018R$  000000000218000000000021810000000002180000000000218000000000021810000000000000000000000000000002000000000000001800000000000003924604000000000000009999123100000010000000000000BRBBASACNOR3237
012013062762BBAS3T      030BRASIL      ON      NM032R$  000000000219700000000021980000000002197000000000219700000000021980000000000000000000000000000004000000000000010000000000000021978444000000000000009999123100000010000000000000BRBBASACNOR3237
012013062778BBASG20     070BBAS        ON      NM000R$  000000000019900000000002190000000000199000000000021100000000002100000000000185000000000000000005000000000000003200000000000000677000000000000197602013071500000010000000000000BRBBASACNOR3236
012013062778BBASG21     070BBAS  FM    ON      NM000R$  000000000017600000000002030000000000169000000000019000000000001840000000000174000000000021000472000000000000343700000000000065415700000000000199202013071500000010000000000000BRBBASACNOR3232
012013062778BBASG22     070BBAS  FM    ON      NM000R$  000000000008000000000001050000000000076000000000009100000000000930000000000011000000000011000453000000000000401800000000000036627700000000000211702013071500000010000000000000BRBBASACNOR3233
012013062778BBASG23     070BBAS  FM    ON      NM000R$  000000000001700000000000250000000000016000000000002100000000000200000000000016000000000002300257000000000000314200000000000006690200000000000226602013071500000010000000000000BRBBASACNOR3235
012013062778BBASG24     070BBAS  FM    ON      NM000R$  000000000001000000000000140000000000009000000000001000000000000120000000000008000000000001200224000000000000324400000000000003444500000000000231702013071500000010000000000000BRBBASACNOR3233
012013062778BBASG25     070BBAS  FM    ON      NM000R$  000000000000500000000000050000000000003000000000000300000000000040000000000002000000000000400065000000000000068500000000000000252200000000000246602013071500000010000000000000BRBBASACNOR3235
012013062778BBASG26     070BBAS        ON      NM000R$  000000000000200000000000020000000000002000000000000200000000000020000000000002000000000000400002000000000000005000000000000000010000000000000251702013071500000010000000000000BRBBASACNOR3233
012013062778BBASG27     070BBAS        ON      NM000R$  000000000000100000000000010000000000001000000000000100000000000010000000000000000000000000100002000000000000001800000000000000001800000000000266602013071500000010000000000000BRBBASACNOR3235
012013062778BBASG29     070BBAS        ON      NM000R$  000000000000100000000000020000000000001000000000000100000000000020000000000000000000000000200003000000000000005400000000000000005800000000000286602013071500000010000000000000BRBBASACNOR3235
012013062778BBASH21     070BBAS  FM    ON      NM000R$  000000000015500000000001760000000000154000000000017100000000001690000000000000000000000000000178000000000000575800000000000098814000000000000207602013081900000010000000000000BRBBASACNOR3236
012013062778BBASH22     070BBAS  FM    ON      NM000R$  000000000009700000000001130000000000096000000000010300000000000980000000000090000000000012500091000000000000072700000000000007529000000000000217602013081900000010000000000000BRBBASACNOR3236
012013062778BBASH23     070BBAS  FM    ON      NM000R$  000000000005600000000000630000000000055000000000005900000000000620000000000011000000000005900034000000000000048600000000000002877200000000000227602013081900000010000000000000BRBBASACNOR3236
012013062778BBASH24     070BBAS  FM    ON      NM000R$  000000000004300000000000490000000000043000000000004600000000000450000000000034000000000004600113000000000000144400000000000006648400000000000231702013081900000010000000000000BRBBASACNOR3233
012013062778BBASH25     070BBAS  FM    ON      NM000R$  000000000002500000000000250000000000022000000000002300000000000230000000000016000000000002900036000000000000255600000000000005948000000000000241702013081900000010000000000000BRBBASACNOR3233
012013062778BBASH26     070BBAS        ON      NM000R$  000000000001000000000000100000000000009000000000000900000000000090000000000008000000000001000008000000000000015500000000000000152700000000000256602013081900000010000000000000BRBBASACNOR3235
012013062778BBASH27     070BBAS        ON      NM000R$  000000000000600000000000060000000000006000000000000600000000000060000000000005000000000006800001000000000000000100000000000000000600000000000266602013081900000010000000000000BRBBASACNOR3235
012013062778BBASH28     070BBAS        ON      NM000R$  000000000000300000000000030000000000003000000000000300000000000030000000000003000000000000400002000000000000000800000000000000002400000000000276602013081900000010000000000000BRBBASACNOR3235
012013062778BBASI22     070BBAS        ON      NM000R$  000000000012900000000001290000000000127000000000012800000000001270000000000000000000000000000003000000000000009000000000000001152000000000000217602013091600000010000000000000BRBBASACNOR3236
012013062778BBASI23     070BBAS        ON      NM000R$  000000000008300000000000830000000000082000000000008200000000000820000000000000000000000000000004000000000000011000000000000000910000000000000227602013091600000010000000000000BRBBASACNOR3236
012013062778BBASI24     070BBAS        ON      NM000R$  000000000005200000000000520000000000052000000000005200000000000520000000000000000000000000000001000000000000003000000000000000156000000000000237602013091600000010000000000000BRBBASACNOR3236
012013062778BBASI25     070BBAS        ON      NM000R$  000000000003300000000000330000000000029000000000003200000000000330000000000018000000000003700006000000000000011100000000000000357100000000000246602013091600000010000000000000BRBBASACNOR3235
012013062778BBASI26     070BBAS        ON      NM000R$  000000000002000000000000200000000000019000000000001900000000000200000000000012000000000009800003000000000000008400000000000000165000000000000256602013091600000010000000000000BRBBASACNOR3235
012013062782BBASS19     080BBASE       ON      NM000R$  000000000000600000000000060000000000006000000000000600000000000060000000000000000000000001200001000000000000002000000000000000012000000000000190002013071500000010000000000000BRBBASACNOR3237
012013062782BBASS20     080BBASE FM    ON      NM000R$  000000000001000000000000110000000000007000000000000900000000000080000000000000000000000001100082000000000000023100000000000000217600000000000197602013071500000010000000000000BRBBASACNOR3236
012013062782BBASS21     080BBASE FM    ON      NM000R$  000000000001100000000000130000000000008000000000001100000000000100000000000000000000000001200189000000000000056100000000000000623700000000000199202013071500000010000000000000BRBBASACNOR3232
012013062782BBASS22     080BBASE FM    ON      NM000R$  000000000003900000000000430000000000028000000000003800000000000340000000000042000000000000000115000000000000060400000000000002354200000000000211702013071500000010000000000000BRBBASACNOR3233
012013062782BBASS23     080BBASE FM    ON      NM000R$  000000000012700000000001300000000000097000000000011300000000001110000000000070000000000000000128000000000000231900000000000026208500000000000226602013071500000010000000000000BRBBASACNOR3235
012013062782BBASS24     080BBASE       ON      NM000R$  000000000015800000000001580000000000148000000000015300000000001480000000000100000000000000000005000000000000012800000000000001962400000000000231702013071500000010000000000000BRBBASACNOR3233
012013062782BBASS27     080BBASE       ON      NM000R$  000000000048000000000004800000000000480000000000048000000000004800000000000000000000000000000001000000000000000100000000000000048000000000000266602013071500000010000000000000BRBBASACNOR3235
012013062782BBAST17     080BBASE       ON      NM000R$  000000000000800000000000080000000000008000000000000800000000000080000000000000000000000000000005000000000000020000000000000000160000000000000170002013081900000010000000000000BRBBASACNOR3237
012013062782BBAST18     080BBASE       ON      NM000R$  000000000001400000000000140000000000014000000000001400000000000140000000000003000000000000000001000000000000004000000000000000056000000000000180002013081900000010000000000000BRBBASACNOR3237
012013062782BBAST19     080BBASE       ON      NM000R$  000000000002500000000000250000000000020000000000002000000000000200000000000000000000000000000006000000000000046300000000000000966000000000000190002013081900000010000000000000BRBBASACNOR3237
012013062782BBAST20     080BBASE FM    ON      NM000R$  000000000004000000000000430000000000034000000000003800000000000340000000000028000000000000000089000000000000073900000000000002844500000000000200002013081900000010000000000000BRBBASACNOR3237
012013062782BBAST21     080BBASE FM    ON      NM000R$  000000000006200000000000660000000000053000000000005900000000000580000000000067000000000000000128000000000000081700000000000004855000000000000207602013081900000010000000000000BRBBASACNOR3236
012013062782BBAST22     080BBASE FM    ON      NM000R$  000000000010200000000001060000000000085000000000009700000000000930000000000020000000000000000292000000000000162300000000000015772600000000000217602013081900000010000000000000BRBBASACNOR3236
012013062782BBAST23     080BBASE FM    ON      NM000R$  000000000016000000000001630000000000136000000000014800000000001500000000000000000000000000000175000000000000142700000000000021120500000000000227602013081900000010000000000000BRBBASACNOR3236
012013062782BBAST24     080BBASE       ON      NM000R$  000000000019100000000001910000000000170000000000018200000000001710000000000000000000000000000007000000000000020600000000000003753800000000000231702013081900000010000000000000BRBBASACNOR3233
012013062782BBASU19     080BBASE       ON      NM000R$  000000000003700000000000370000000000037000000000003700000000000370000000000000000000000000000002000000000000004000000000000000148000000000000190002013091600000010000000000000BRBBASACNOR3237
012013062782BBASU20     080BBASE       ON      NM000R$  000000000005800000000000580000000000058000000000005800000000000580000000000000000000000000000001000000000000003000000000000000174000000000000200002013091600000010000000000000BRBBASACNOR3237
012013062782BBASU21     080BBASE       ON      NM000R$  000000000009000000000000900000000000074000000000008000000000000740000000000000000000000000000004000000000000011500000000000000929000000000000210002013091600000010000000000000BRBBASACNOR3237
012013062782BBASU22     080BBASE       ON      NM000R$  000000000012200000000001220000000000103000000000010900000000001080000000000000000000000000000005000000000000014000000000000001531000000000000217602013091600000010000000000000BRBBASACNOR3236
012013062782BBASU23     080BBASE       ON      NM000R$  000000000015900000000001590000000000152000000000015600000000001520000000000000000000000000000003000000000000008800000000000001378200000000000227602013091600000010000000000000BRBBASACNOR3236
012013062782BBASV23     080BBASE       ON      NM000R$  000000000016200000000001620000000000162000000000016200000000001620000000000000000000000000000001000000000000001000000000000000162000000000000226602013102100000010000000000000BRBBASACNOR3235
012013062782BBASV53     080BBASE       ON      NM000R$  000000000019000000000001900000000000190000000000019000000000001900000000000000000000000000000001000000000000000700000000000000133000000000000231602013102100000010000000000000BRBBASACNOR3235
012013062702BBDC3       010BRADESCO    ON      N1   R$  000000000302300000000030840000000003018000000000305200000000030330000000003033000000000303404501000000000001282500000000003914794200000000000000009999123100000010000000000000BRBBDCACNOR1602
012013062796BBDC3F      020BRADESCO    ON      N1   R$  000000000307900000000030920000000003010000000000305400000000030310000000003031000000000308900055000000000000001519000000000004639198000000000000009999123100000010000000000000BRBBDCACNOR1602
012013062702BBDC4       010BRADESCO    PN      N1   R$  000000000282900000000028870000000002821000000000286500000000028550000000002855000000000285617070000000000006725300000000019274017700000000000000009999123100000010000000000000BRBBDCACNPR8602
012013062796BBDC4F      020BRADESCO    PN      N1   R$  000000000284000000000028880000000002828000000000286800000000028500000000002850000000000286000224000000000000005564000000000015962561000000000000009999123100000010000000000000BRBBDCACNPR8602
012013062762BBDC4T      030BRADESCO    PN      N1018R$  000000000285300000000028540000000002853000000000285300000000028540000000000000000000000000000002000000000000001000000000000002853652000000000000009999123100000010000000000000BRBBDCACNPR8602
012013062762BBDC4T      030BRADESCO    PN      N1032R$  000000000287300000000028740000000002873000000000287300000000028740000000000000000000000000000002000000000000001000000000000002873558000000000000009999123100000010000000000000BRBBDCACNPR8602
012013062762BBDC4T      030BRADESCO    PN      N1060R$  000000000286400000000029180000000002864000000000286700000000029180000000000000000000000000000004000000000000010700000000000030687272000000000000009999123100000010000000000000BRBBDCACNPR8602
012013062762BBDC4T      030BRADESCO    PN      N1090R$  000000000293200000000029330000000002932000000000293200000000029330000000000000000000000000000002000000000000001000000000000002932682000000000000009999123100000010000000000000BRBBDCACNPR8602
012013062778BBDCB32     070BBDC        PN      N1000R$  000000000029500000000002950000000000295000000000029500000000002950000000000000000000000000000001000000000000500000000000000147500000000000000290302014021700000010000000000000BRBBDCACNPR8598
012013062778BBDCB36     070BBDC        PN      N1000R$  000000000004600000000000460000000000046000000000004600000000000460000000000000000000000000000001000000000000500000000000000023000000000000000360002014021700000010000000000000BRBBDCACNPR8602
012013062778BBDCG26     070BBDC        PN      N1000R$  000000000029200000000002920000000000292000000000029200000000002920000000000000000000000000000001000000000000001200000000000000350400000000000259802013071500000010000000000000BRBBDCACNPR8601
012013062778BBDCG27     070BBDC        PN      N1000R$  000000000017100000000002100000000000168000000000019400000000001810000000000155000000000021000166000000000000273400000000000053281300000000000269802013071500000010000000000000BRBBDCACNPR8601
012013062778BBDCG28     070BBDC        PN      N1000R$  000000000009700000000001270000000000092000000000011500000000001050000000000102000000000012800133000000000000208400000000000024125300000000000280002013071500000010000000000000BRBBDCACNPR8602
012013062778BBDCG29     070BBDC        PN      N1000R$  000000000004900000000000670000000000044000000000005800000000000510000000000051000000000006800186000000000000259900000000000015311300000000000290002013071500000010000000000000BRBBDCACNPR8602
012013062778BBDCG30     070BBDC        PN      N1000R$  000000000002300000000000270000000000020000000000002300000000000200000000000016000000000002500082000000000000140600000000000003350600000000000299802013071500000010000000000000BRBBDCACNPR8601
012013062778BBDCG31     070BBDC        PN      N1000R$  000000000000800000000000120000000000007000000000000900000000000110000000000002000000000001500046000000000000275800000000000002516400000000000309802013071500000010000000000000BRBBDCACNPR8601
012013062778BBDCG32     070BBDC        PN      N1000R$  000000000000400000000000040000000000004000000000000400000000000040000000000003000000000000600001000000000000005000000000000000020000000000000319602013071500000010000000000000BRBBDCACNPR8600
012013062778BBDCG33     070BBDC        PN      N1000R$  000000000003700000000000460000000000034000000000004300000000000340000000000032000000000004200062000000000000083800000000000003607700000000000293902013071500000010000000000000BRBBDCACNPR8593
012013062778BBDCG34     070BBDC        PN      N1000R$  000000000001600000000000200000000000015000000000001600000000000170000000000015000000000003000073000000000000173300000000000002834400000000000302602013071500000010000000000000BRBBDCACNPR8591
012013062778BBDCG35     070BBDC        PN      N1000R$  000000000000100000000000010000000000001000000000000100000000000010000000000001000000000000200001000000000000000100000000000000000100000000000349602013071500000010000000000000BRBBDCACNPR8600
012013062778BBDCG37     070BBDC        PN      N1000R$  000000000000100000000000010000000000001000000000000100000000000010000000000000000000000000100001000000000000000200000000000000000200000000000369802013071500000010000000000000BRBBDCACNPR8601
012013062778BBDCH26     070BBDC        PN      N1000R$  000000000031500000000003400000000000314000000000032900000000003390000000000000000000000035000080000000000000060000000000000019749500000000000260002013081900000010000000000000BRBBDCACNPR8602
012013062778BBDCH27     070BBDC        PN      N1000R$  000000000022500000000002630000000000225000000000025100000000002480000000000000000000000026800128000000000000188900000000000047552400000000000270002013081900000010000000000000BRBBDCACNPR8602
012013062778BBDCH28     070BBDC        PN      N1000R$  000000000016500000000001910000000000165000000000018200000000001810000000000162000000000000000046000000000000095100000000000017394700000000000280002013081900000010000000000000BRBBDCACNPR8602
012013062778BBDCH29     070BBDC        PN      N1000R$  000000000011000000000001330000000000110000000000012300000000001140000000000000000000000017300261000000000000357000000000000044260800000000000290002013081900000010000000000000BRBBDCACNPR8602
012013062778BBDCH30     070BBDC        PN      N1000R$  000000000006800000000000850000000000068000000000007700000000000710000000000068000000000008800107000000000000135700000000000010495400000000000300002013081900000010000000000000BRBBDCACNPR8602
012013062778BBDCH31     070BBDC        PN      N1000R$  000000000004300000000000520000000000042000000000004700000000000510000000000035000000000000000020000000000000039900000000000001895800000000000309602013081900000010000000000000BRBBDCACNPR8600
012013062778BBDCH32     070BBDC        PN      N1000R$  000000000002200000000000290000000000022000000000002800000000000290000000000021000000000002800011000000000000027700000000000000796400000000000320002013081900000010000000000000BRBBDCACNPR8602
012013062778BBDCH33     070BBDC        PN      N1000R$  000000000001400000000000140000000000014000000000001400000000000140000000000011000000000008600001000000000000001000000000000000014000000000000329802013081900000010000000000000BRBBDCACNPR8601
012013062778BBDCH34     070BBDC        PN      N1000R$  000000000004600000000000560000000000046000000000005000000000000520000000000000000000000006800004000000000000006300000000000000315800000000000307502013081900000010000000000000BRBBDCACNPR8595
012013062778BBDCH36     070BBDC        PN      N1000R$  000000000000400000000000040000000000004000000000000400000000000040000000000000000000000003000001000000000000000100000000000000000400000000000359602013081900000010000000000000BRBBDCACNPR8600
012013062778BBDCI28     070BBDC        PN      N1000R$  000000000019600000000002120000000000196000000000020200000000002120000000000000000000000000000003000000000000007200000000000001456800000000000280002013091600000010000000000000BRBBDCACNPR8602
012013062778BBDCI29     070BBDC        PN      N1000R$  000000000014200000000001450000000000142000000000014300000000001450000000000000000000000000000002000000000000005100000000000000733200000000000290002013091600000010000000000000BRBBDCACNPR8602
012013062778BBDCI31     070BBDC        PN      N1000R$  000000000024300000000002430000000000243000000000024300000000002430000000000000000000000000000001000000000000002700000000000000656100000000000275102013091600000010000000000000BRBBDCACNPR8590
012013062778BBDCI33     070BBDC        PN      N1000R$  000000000010100000000001030000000000101000000000010100000000001030000000000000000000000000000003000000000000006300000000000000640900000000000299402013091600000010000000000000BRBBDCACNPR8598
012013062778BBDCJ32     070BBDC        PN      N1000R$  000000000007300000000000730000000000073000000000007300000000000730000000000000000000000000000002000000000000001900000000000000138700000000000320002013102100000010000000000000BRBBDCACNPR8602
012013062778BBDCJ34     070BBDC        PN      N1000R$  000000000003700000000000370000000000037000000000003700000000000370000000000000000000000000000002000000000000001900000000000000070300000000000339602013102100000010000000000000BRBBDCACNPR8600
012013062778BBDCL33     070BBDC        PN      N1000R$  000000000019500000000001970000000000195000000000019600000000001960000000000000000000000000000008000000000000601000000000000117835000000000000299402013121600000010000000000000BRBBDCACNPR8598
012013062782BBDCS14     080BBDCE       PN      N1000R$  000000000052500000000005250000000000525000000000052500000000005250000000000000000000000000000001000000000001000000000000000525000000000000000339802013071500000010000000000000BRBBDCACNPR8601
012013062782BBDCS26     080BBDCE       PN      N1000R$  000000000001200000000000120000000000009000000000000900000000000100000000000000000000000000000021000000000000035000000000000000340700000000000259802013071500000010000000000000BRBBDCACNPR8601
012013062782BBDCS27     080BBDCE       PN      N1000R$  000000000001900000000000200000000000015000000000001600000000000170000000000000000000000000000023000000000000042700000000000000720100000000000269802013071500000010000000000000BRBBDCACNPR8601
012013062782BBDCS28     080BBDCE       PN      N1000R$  000000000005500000000000550000000000035000000000003800000000000470000000000040000000000008500074000000000000091400000000000003529100000000000280002013071500000010000000000000BRBBDCACNPR8602
012013062782BBDCS29     080BBDCE       PN      N1000R$  000000000010300000000001030000000000072000000000008200000000000870000000000000000000000000000126000000000000230600000000000019004600000000000290002013071500000010000000000000BRBBDCACNPR8602
012013062782BBDCS30     080BBDCE       PN      N1000R$  000000000015400000000001610000000000138000000000015300000000001380000000000132000000000000000258000000000000035000000000000005364600000000000299802013071500000010000000000000BRBBDCACNPR8601
012013062782BBDCS31     080BBDCE       PN      N1000R$  000000000023800000000002460000000000214000000000022500000000002210000000000000000000000000000013000000000000023100000000000005204200000000000309802013071500000010000000000000BRBBDCACNPR8601
012013062782BBDCS32     080BBDCE       PN      N1000R$  000000000033500000000003420000000000329000000000033400000000003340000000000000000000000000000047000000000001010000000000000337349500000000000319602013071500000010000000000000BRBBDCACNPR8600
012013062782BBDCS33     080BBDCE       PN      N1000R$  000000000010100000000001040000000000096000000000009800000000001040000000000000000000000000000007000000000000017900000000000001757600000000000293902013071500000010000000000000BRBBDCACNPR8593
012013062782BBDCS34     080BBDCE       PN      N1000R$  000000000018200000000001820000000000155000000000016500000000001590000000000000000000000000000003000000000000004800000000000000796600000000000302602013071500000010000000000000BRBBDCACNPR8591
012013062782BBDCS5      080BBDCE       PN      N1000R$  000000000031000000000003100000000000277000000000028300000000002850000000000000000000000000000012000000000000019800000000000005622600000000000316602013071500000010000000000000BRBBDCACNPR8593
012013062782BBDCT24     080BBDCE       PN      N1000R$  000000000001700000000000170000000000015000000000001500000000000150000000000000000000000000000011000000000000021900000000000000344300000000000240002013081900000010000000000000BRBBDCACNPR8602
012013062782BBDCT26     080BBDCE       PN      N1000R$  000000000003900000000000390000000000033000000000003700000000000340000000000000000000000000000013000000000000034200000000000001273600000000000260002013081900000010000000000000BRBBDCACNPR8602
012013062782BBDCT27     080BBDCE       PN      N1000R$  000000000006000000000000600000000000051000000000005600000000000520000000000050000000000000000024000000000000048900000000000002768000000000000270002013081900000010000000000000BRBBDCACNPR8602
012013062782BBDCT28     080BBDCE       PN      N1000R$  000000000008900000000000920000000000080000000000008200000000000840000000000075000000000000000051000000000000087500000000000007229400000000000280002013081900000010000000000000BRBBDCACNPR8602
012013062782BBDCT29     080BBDCE       PN      N1000R$  000000000014700000000001470000000000117000000000012800000000001310000000000080000000000000000402000000000000287500000000000036879400000000000290002013081900000010000000000000BRBBDCACNPR8602
012013062782BBDCT30     080BBDCE       PN      N1000R$  000000000018400000000001840000000000184000000000018400000000001840000000000000000000000000000001000000000000002000000000000000368000000000000300002013081900000010000000000000BRBBDCACNPR8602
012013062782BBDCT34     080BBDCE       PN      N1000R$  000000000023400000000002340000000000234000000000023400000000002340000000000000000000000000000001000000000000001000000000000000234000000000000307502013081900000010000000000000BRBBDCACNPR8595
012013062782BBDCU27     080BBDCE       PN      N1000R$  000000000008200000000000820000000000069000000000007700000000000690000000000000000000000000000005000000000000009000000000000000695800000000000270002013091600000010000000000000BRBBDCACNPR8602
012013062782BBDCU28     080BBDCE       PN      N1000R$  000000000011600000000001160000000000107000000000011000000000001100000000000000000000000000000005000000000000007100000000000000785600000000000280002013091600000010000000000000BRBBDCACNPR8602
012013062782BBDCU29     080BBDCE       PN      N1000R$  000000000015500000000001550000000000155000000000015500000000001550000000000000000000000000000001000000000000001000000000000000155000000000000290002013091600000010000000000000BRBBDCACNPR8602
012013062782BBDCU30     080BBDCE       PN      N1000R$  000000000020700000000002070000000000207000000000020700000000002070000000000000000000000000000001000000000000002000000000000000414000000000000300002013091600000010000000000000BRBBDCACNPR8602
012013062782BBDCU31     080BBDCE       PN      N1000R$  000000000009800000000000980000000000090000000000009300000000000930000000000000000000000000000005000000000000007000000000000000654000000000000275102013091600000010000000000000BRBBDCACNPR8590
012013062782BBDCV27     080BBDCE       PN      N1000R$  000000000009200000000000920000000000092000000000009200000000000920000000000000000000000000000001000000000000001200000000000000110400000000000270002013102100000010000000000000BRBBDCACNPR8602
012013062712BBFI11B     010FII BB PROGRCI      MB   R$  000000042600000000004297830000000426000000000042836400000004297830000000426000000000042980000004000000000000000016000000000006853830000000000000009999123100000010000000000000BRBBFICTF006195
012013062712BBPO11      010FII BB PRGIICI           R$  000000001106100000000113000000000011040000000001110000000000111000000000011071000000001119900574000000000000027068000000000300460002000000000000009999123100000010000000000000BRBBPOCTF003107
012013062712BBRC11      010FII BB CORP CI           R$  000000000950000000000097000000000009500000000000954600000000097000000000009570000000000990000004000000000000000650000000000006205000000000000000009999123100000010000000000000BRBBRCCTF004121
012013062702BBRK3       010BR BROKERS  ON      NM   R$  000000000065300000000006770000000000652000000000066300000000006630000000000662000000000066303116000000000000994000000000000659162400000000000000009999123100000010000000000000BRBBRKACNOR4108
012013062796BBRK3F      020BR BROKERS  ON      NM   R$  000000000066900000000006780000000000669000000000067200000000006720000000000606000000000075000003000000000000000105000000000000070626000000000000009999123100000010000000000000BRBBRKACNOR4108
012013062778BBRKG7      070BBRK        ON      NM000R$  000000000000400000000000040000000000004000000000000400000000000040000000000000000000000000000001000000000000100000000000000000400000000000000070002013071500000010000000000000BRBBRKACNOR4108
012013062702BBSE3       010BBSEGURIDADEON      NM   R$  000000000167200000000017500000000001672000000000171700000000017290000000001728000000000172912039000000000006301100000000010819670200000000000000009999123100000010000000000000BRBBSEACNOR5100
012013062796BBSE3F      020BBSEGURIDADEON      NM   R$  000000000168000000000017500000000001671000000000171800000000017290000000001701000000000172900397000000000000011735000000000020167750000000000000009999123100000010000000000000BRBBSEACNOR5100
012013062702BBTG11      010BTG PACTUAL UNT          R$  000000000276900000000028140000000002745000000000278000000000027750000000002774000000000277501249000000000001411600000000003925483100000000000000009999123100000010000000000000BRBBTGUNT007104
012013062796BBTG11F     020BTG PACTUAL UNT          R$  000000000279000000000033000000000002790000000000281800000000033000000000002740000000000330000006000000000000000044000000000000124028000000000000009999123100000010000000000000BRBBTGUNT007104
012013062762BBTG11T     030BTG PACTUAL UNT       032R$  000000000281300000000028140000000002813000000000281300000000028140000000000000000000000000000002000000000000000200000000000000562712000000000000009999123100000010000000000000BRBBTGUNT007104
012013062762BBTG11T     030BTG PACTUAL UNT       090R$  000000000282700000000028280000000002827000000000282700000000028280000000000000000000000000000002000000000000500000000000001413756000000000000000009999123100000010000000000000BRBBTGUNT007104
012013062712BBVJ11      010FII C JARDIMCI           R$  000000000844900000000084500000000008200000000000832900000000083000000000008206000000000830000028000000000000002255000000000018782739000000000000009999123100000010000000000000BRBBVJCTF001130
012013062712BCFF11B     010FII BC FFII CI      MB   R$  000000001006500000000102020000000010000000000001010000000000101400000000010095000000001014000055000000000000003663000000000036996474000000000000009999123100000010000000000000BRBCFFCTF000139
012013062702BDLL3       010BARDELLA    ON           R$  000000000390000000000042000000000003900000000000398100000000040000000000003950000000000450000020000000000000004300000000000017120000000000000000009999123100000010000000000000BRBDLLACNOR1149
012013062796BDLL3F      020BARDELLA    ON           R$  000000000400000000000040020000000004000000000000400000000000040020000000004002000000000500000010000000000000000122000000000000488042000000000000009999123100000010000000000000BRBDLLACNOR1149
012013062702BDLL4       010BARDELLA    PN           R$  000000000440000000000044000000000004290000000000430700000000043100000000004310000000000439900046000000000000019000000000000081838900000000000000009999123100000010000000000000BRBDLLACNPR8149
012013062796BDLL4F      020BARDELLA    PN           R$  000000000445200000000044520000000004300000000000440000000000044000000000004350000000000440000018000000000000000134000000000000589707000000000000009999123100000010000000000000BRBDLLACNPR8149
012013062762BDLL4T      030BARDELLA    PN        032R$  000000000432700000000043280000000004327000000000432700000000043280000000000000000000000000000002000000000000000200000000000000865590000000000000009999123100000010000000000000BRBDLLACNPR8149
012013062762BDLL4T      030BARDELLA    PN        090R$  000000000438100000000043820000000004381000000000438100000000043820000000000000000000000000000002000000000000000300000000000001314510000000000000009999123100000010000000000000BRBDLLACNPR8149
012013062702BEEF3       010MINERVA     ON      NM   R$  000000000100900000000010520000000001009000000000103800000000010400000000001039000000000104002098000000000000594300000000000617415100000000000000009999123100000010000000000000BRBEEFACNOR6104
012013062796BEEF3F      020MINERVA     ON      NM   R$  000000000102100000000010500000000001021000000000102900000000010500000000001005000000000104900012000000000000000349000000000000360199000000000000009999123100000010000000000000BRBEEFACNOR6104
012013062702BEES3       010BANESTES    ON           R$  000000000005000000000000500000000000049000000000004900000000000490000000000049000000000005000009000000000000263400000000000012926600000000000000009999123100000010000000000000BRBEESACNOR9240
012013062702BEES4       010BANESTES    PN           R$  000000000004300000000000440000000000043000000000004300000000000440000000000043000000000004400004000000000000021200000000000000912800000000000000009999123100000010000000000000BRBEESACNPR6165
012013062702BEMA3       010BEMATECH    ON      NM   R$  000000000070600000000007410000000000706000000000073100000000007410000000000730000000000074100133000000000000040200000000000029403600000000000000009999123100000010000000000000BRBEMAACNOR0113
012013062796BEMA3F      020BEMATECH    ON      NM   R$  000000000073900000000007390000000000739000000000073900000000007390000000000682000000000075700001000000000000000055000000000000040645000000000000009999123100000010000000000000BRBEMAACNOR0113
012013062762BEMA3T      030BEMATECH    ON      NM060R$  000000000074800000000007490000000000748000000000074800000000007490000000000000000000000000000002000000000000019000000000000014215504000000000000009999123100000010000000000000BRBEMAACNOR0113
012013062702BGIP4       010BANESE      PN           R$  000000000504800000000051900000000005048000000000508100000000051900000000004950000000000510000013000000000000004300000000000021852200000000000000009999123100000010000000000000BRBGIPACNPR8177
012013062796BGIP4F      020BANESE      PN           R$  000000000490000000000049000000000004900000000000490000000000049000000000004721000000000521000002000000000000000030000000000000147000000000000000009999123100000010000000000000BRBGIPACNPR8177
012013062702BHGR3       010BHG         ON      NM   R$  000000000159800000000016000000000001574000000000158200000000015800000000001564000000000158000168000000000000053800000000000085147400000000000000009999123100000010000000000000BRBHGRACNOR9101
012013062796BHGR3F      020BHG         ON      NM   R$  000000000142200000000014220000000001422000000000142200000000014220000000001402000000000170000001000000000000000001000000000000001422000000000000009999123100000010000000000000BRBHGRACNOR9101
012013062702BICB3       010BICBANCO    ON      N1   R$  000000000055100000000005510000000000551000000000055100000000005510000000000550000000000060000001000000000000024000000000000013224000000000000000009999123100000010000000000000BRBICBACNOR0131
012013062702BICB4       010BICBANCO    PN      N1   R$  000000000043600000000004390000000000423000000000042800000000004320000000000432000000000043500269000000000000101700000000000043620100000000000000009999123100000010000000000000BRBICBACNPR7131
012013062796BICB4F      020BICBANCO    PN      N1   R$  000000000042300000000004370000000000421000000000042600000000004210000000000421000000000043900006000000000000000150000000000000064040000000000000009999123100000010000000000000BRBICBACNPR7131
012013062702BIOM4       010BIOMM       PN           R$  000000000088000000000008800000000000880000000000088000000000008800000000000811000000000088200002000000000000002000000000000001760000000000000000009999123100000010000000000000BRBIOMACNPR9101
012013062702BISA3       010BROOKFIELD  ON      NM   R$  000000000015200000000001610000000000151000000000015600000000001590000000000159000000000016005874000000000007931800000000001244564800000000000000009999123100000010000000000000BRBISAACNOR8109
012013062796BISA3F      020BROOKFIELD  ON      NM   R$  000000000015000000000001590000000000142000000000015300000000001580000000000145000000000015800019000000000000000728000000000000111632000000000000009999123100000010000000000000BRBISAACNOR8109
012013062762BISA3T      030BROOKFIELD  ON      NM060R$  000000000016200000000001630000000000162000000000016200000000001630000000000000000000000000000002000000000000220000000000000035710400000000000000009999123100000010000000000000BRBISAACNOR8109
012013062702BMEB3       010MERC BRASIL ON           R$  000000000152100000000015210000000001520000000000152000000000015210000000001520000000000160000003000000000000001300000000000001976400000000000000009999123100000010000000000000BRBMEBACNOR8189
012013062702BMEB4       010MERC BRASIL PN           R$  000000000111900000000011280000000001100000000000110300000000011100000000001010000000000113400022000000000000027900000000000030774500000000000000009999123100000010000000000000BRBMEBACNPR5190
012013062712BMLC11B     010FII BMBRC LCCI      MB   R$  000000001200000000000120200000000012000000000001201800000000120200000000012030000000001225000002000000000000001951000000000023449020000000000000009999123100000010000000000000BRBMLCCTF004116
012013062712BNFS11      010FII BANRISULCI           R$  000000001024900000000102500000000010249000000001024900000000102500000000009995000000001025000002000000000000000051000000000000522700000000000000009999123100000010000000000000BRBNFSCTF000109
012013062702BOBR4       010BOMBRIL     PN           R$  000000000070000000000007000000000000700000000000070000000000007000000000000690000000000072000002000000000000000400000000000000280000000000000000009999123100000010000000000000BRBOBRACNPR3127
012013062796BOBR4F      020BOMBRIL     PN           R$  000000000070000000000007000000000000700000000000070000000000007000000000000700000000000000000001000000000000000015000000000000010500000000000000009999123100000010000000000000BRBOBRACNPR3127
012013062714BOVA11      010ISHARES BOVACI           R$  000000000464000000000047140000000004639000000000467700000000046740000000004660000000000467406371000000000002216710000000010369158760000000000000009999123100000010000000000000BRBOVACTF003101
012013062796BOVA11F     020ISHARES BOVACI           R$  000000000462800000000047560000000004628000000000468400000000046850000000004623000000000466000009000000000000000025000000000000117112000000000000009999123100000010000000000000BRBOVACTF003101
012013062762BOVA11T     030ISHARES BOVACI        060R$  000000000474700000000047480000000004747000000000474700000000047480000000000000000000000000000002000000000000000850000000000004035135000000000000009999123100000010000000000000BRBOVACTF003101
012013062782BOVAS41     080BOVAE       CI        000R$  000000000001100000000000110000000000011000000000001100000000000110000000000000000000000000000002000000000000350000000000000003850000000000000410002013071500000010000000000000BRBOVACTF003101
012013062782BOVAS43     080BOVAE       CI        000R$  000000000002300000000000230000000000023000000000002300000000000230000000000000000000000000000002000000000000350000000000000008050000000000000430002013071500000010000000000000BRBOVACTF003101
012013062782BOVAS45     080BOVAE       CI        000R$  000000000005300000000000530000000000053000000000005300000000000530000000000000000000000000000002000000000000350000000000000018550000000000000450002013071500000010000000000000BRBOVACTF003101
012013062782BOVAS47     080BOVAE       CI        000R$  000000000012300000000001240000000000123000000000012300000000001240000000000000000000000000000003000000000000350000000000000043319500000000000470002013071500000010000000000000BRBOVACTF003101
012013062712BPFF11      010FII ABSOLUTOCI           R$  000000000860000000000086000000000008400000000000852000000000085800000000008336000000000858000008000000000000000318000000000002709565000000000000009999123100000010000000000000BRBPFFCTF002102
012013062702BPHA3       010BR PHARMA   ON      NM   R$  000000000102100000000011140000000001019000000000105500000000010460000000001044000000000104601616000000000000817800000000000863460800000000000000009999123100000010000000000000BRBPHAACNOR6102
012013062796BPHA3F      020BR PHARMA   ON      NM   R$  000000000103600000000011180000000001036000000000105400000000010420000000001041000000000107400016000000000000000372000000000000392410000000000000009999123100000010000000000000BRBPHAACNOR6102
012013062762BPHA3T      030BR PHARMA   ON      NM182R$  000000000109100000000010920000000001091000000000109100000000010920000000000000000000000000000002000000000000004000000000000004364756000000000000009999123100000010000000000000BRBPHAACNOR6102
012013062702BPNM4       010PANAMERICANOPN      N1   R$  000000000052000000000005370000000000518000000000052700000000005250000000000524000000000053000322000000000000411200000000000217075700000000000000009999123100000010000000000000BRBPNMACNPR6111
012013062796BPNM4F      020PANAMERICANOPN      N1   R$  000000000051800000000005180000000000518000000000051800000000005180000000000506000000000055800002000000000000000068000000000000035224000000000000009999123100000010000000000000BRBPNMACNPR6111
012013062702BRAP3       010BRADESPAR   ON      N1   R$  000000000173300000000017850000000001630000000000163900000000016300000000001580000000000163000032000000000000039100000000000064107800000000000000009999123100000010000000000000BRBRAPACNOR5124
012013062796BRAP3F      020BRADESPAR   ON      N1   R$  000000000172000000000020990000000001710000000000172600000000017100000000001705000000000209000008000000000000000120000000000000207126000000000000009999123100000010000000000000BRBRAPACNOR5124
012013062762BRAP3T      030BRADESPAR   ON      N1060R$  000000000165400000000016550000000001654000000000165400000000016550000000000000000000000000000002000000000000004900000000000008106805000000000000009999123100000010000000000000BRBRAPACNOR5124
012013062702BRAP4       010BRADESPAR   PN      N1   R$  000000000202000000000020490000000001998000000000202100000000020120000000002010000000000201206841000000000001458200000000002948169500000000000000009999123100000010000000000000BRBRAPACNPR2124
012013062796BRAP4F      020BRADESPAR   PN      N1   R$  000000000202000000000020810000000002001000000000202800000000020680000000002001000000000202000034000000000000000731000000000001482568000000000000009999123100000010000000000000BRBRAPACNPR2124
012013062762BRAP4T      030BRADESPAR   PN      N1056R$  000000000206100000000020620000000002061000000000206100000000020620000000000000000000000000000002000000000000006300000000000012985419000000000000009999123100000010000000000000BRBRAPACNPR2124
012013062714BRAX11      010ISHARES BRAXCI           R$  000000000381800000000038290000000003811000000000382600000000038280000000000000000000000000000004000000000000000250000000000000956740000000000000009999123100000010000000000000BRBRAXCTF002100
012013062712BRCR11      010FII BC FUND CI           R$  000000001390000000000140000000000013860000000001396800000000139000000000013860000000001390000646000000000000036557000000000510640705000000000000009999123100000010000000000000BRBRCRCTF000130
012013062702BRFS3       010BRF SA      ON      NM   R$  000000000478300000000048980000000004783000000000484800000000048020000000004802000000000481406989000000000002406100000000011666179900000000000000009999123100000010000000000000BRBRFSACNOR8109
012013062796BRFS3F      020BRF SA      ON      NM   R$  000000000480000000000048980000000004800000000000485400000000048250000000004805000000000487900113000000000000003473000000000016860718000000000000009999123100000010000000000000BRBRFSACNOR8109
012013062762BRFS3T      030BRF SA      ON      NM032R$  000000000488100000000048820000000004881000000000488100000000048820000000000000000000000000000002000000000000002000000000000009763050000000000000009999123100000010000000000000BRBRFSACNOR8109
012013062762BRFS3T      030BRF SA      ON      NM090R$  000000000498300000000049860000000004950000000000495700000000049560000000000000000000000000000008000000000000183000000000000907225916000000000000009999123100000010000000000000BRBRFSACNOR8109
012013062782BRFST45     080BRFSE       ON      NM000R$  000000000006300000000000630000000000063000000000006300000000000630000000000000000000000000000002000000000000120000000000000007560000000000000450002013081900000010000000000000BRBRFSACNOR8109
012013062702BRIN3       010BR INSURANCEON      NM   R$  000000000216500000000022430000000002145000000000217200000000022190000000002219000000000222001520000000000000726500000000001578605400000000000000009999123100000010000000000000BRBRINACNOR3105
012013062796BRIN3F      020BR INSURANCEON      NM   R$  000000000215900000000022500000000002137000000000217500000000022500000000002200000000000228000010000000000000000247000000000000537290000000000000009999123100000010000000000000BRBRINACNOR3105
012013062796BRIV3F      020ALFA INVEST ON           R$  000000000065000000000006500000000000650000000000065000000000006500000000000608000000000065000001000000000000000002000000000000001300000000000000009999123100000010000000000000BRBRIVACNOR6196
012013062702BRIV4       010ALFA INVEST PN           R$  000000000056000000000005750000000000560000000000056700000000005750000000000574000000000057500016000000000000012400000000000007041800000000000000009999123100000010000000000000BRBRIVACNPR3196
012013062702BRKM3       010BRASKEM     ON      N1   R$  000000000125000000000012500000000001250000000000125000000000012500000000001101000000000123100001000000000000000100000000000000125000000000000000009999123100000010000000000000BRBRKMACNOR1110
012013062702BRKM5       010BRASKEM     PNA     N1   R$  000000000165000000000016920000000001623000000000165400000000016670000000001653000000000166705724000000000001286400000000002128528300000000000000009999123100000010000000000000BRBRKMACNPA4110
012013062796BRKM5F      020BRASKEM     PNA     N1   R$  000000000165500000000016890000000001611000000000165100000000016890000000001612000000000168900025000000000000000908000000000001502371000000000000009999123100000010000000000000BRBRKMACNPA4110
012013062702BRML3       010BR MALLS PARON      NM   R$  000000000198300000000020270000000001964000000000200100000000019970000000001990000000000199711131000000000004861600000000009732585600000000000000009999123100000010000000000000BRBRMLACNOR9105
012013062796BRML3F      020BR MALLS PARON      NM   R$  000000000200800000000020380000000001966000000000200000000000019930000000001988000000000199300042000000000000001129000000000002258015000000000000009999123100000010000000000000BRBRMLACNOR9105
012013062762BRML3T      030BR MALLS PARON      NM032R$  000000000201000000000020110000000002010000000000201000000000020110000000000000000000000000000002000000000000000500000000000001005186000000000000009999123100000010000000000000BRBRMLACNOR9105
012013062702BRPR3       010BR PROPERT  ON      NM   R$  000000000187500000000019300000000001869000000000191200000000019100000000001903000000000191308952000000000002121600000000004057401300000000000000009999123100000010000000000000BRBRPRACNOR9112
012013062796BRPR3F      020BR PROPERT  ON      NM   R$  000000000187100000000019940000000001871000000000191100000000019080000000001908000000000193000064000000000000001886000000000003605652000000000000009999123100000010000000000000BRBRPRACNOR9112
012013062796BRSR3F      020BANRISUL    ON      N1   R$  000000000129900000000012990000000001299000000000129900000000012990000000001299000000000000000001000000000000000049000000000000063651000000000000009999123100000010000000000000BRBRSRACNOR3130
012013062702BRSR6       010BANRISUL    PNB     N1   R$  000000000146800000000015060000000001444000000000148400000000014890000000001489000000000149003214000000000000875300000000001299076200000000000000009999123100000010000000000000BRBRSRACNPB4133
012013062796BRSR6F      020BANRISUL    PNB     N1   R$  000000000154000000000015400000000001458000000000148300000000014620000000001460000000000158800028000000000000000850000000000001260976000000000000009999123100000010000000000000BRBRSRACNPB4133
012013062762BRSR6T      030BANRISUL    PNB     N1090R$  000000000148900000000014900000000001489000000000148900000000014900000000000000000000000000000002000000000000000050000000000000074489000000000000009999123100000010000000000000BRBRSRACNPB4133
012013062762BRSR6T      030BANRISUL    PNB     N1120R$  000000000150000000000015010000000001500000000000150000000000015010000000000000000000000000000002000000000000000050000000000000075037000000000000009999123100000010000000000000BRBRSRACNPB4133
012013062762BRSR6T      030BANRISUL    PNB     N1151R$  000000000151200000000015130000000001512000000000151200000000015130000000000000000000000000000002000000000000000050000000000000075629000000000000009999123100000010000000000000BRBRSRACNPB4133
012013062762BRSR6T      030BANRISUL    PNB     N1182R$  000000000152600000000015270000000001526000000000152600000000015270000000000000000000000000000002000000000000000050000000000000076331000000000000009999123100000010000000000000BRBRSRACNPB4133
012013062702BSEV3       010BIOSEV      ON      NM   R$  000000000129000000000013000000000001285000000000129900000000013000000000001285000000000131000028000000000000106800000000000138806300000000000000009999123100000010000000000000BRBSEVACNOR3100
012013062796BSEV3F      020BIOSEV      ON      NM   R$  000000000128600000000013000000000001286000000000129400000000013000000000001286000000000132900003000000000000000090000000000000116538000000000000009999123100000010000000000000BRBSEVACNOR3100
012013062702BTOW3       010B2W DIGITAL ON      NM   R$  000000000069000000000007200000000000688000000000070400000000007100000000000706000000000071002475000000000000990700000000000698343500000000000000009999123100000010000000000000BRBTOWACNOR8105
012013062796BTOW3F      020B2W DIGITAL ON      NM   R$  000000000069800000000007340000000000693000000000070400000000007070000000000691000000000079900025000000000000000617000000000000434745000000000000009999123100000010000000000000BRBTOWACNOR8105
012013062762BTOW3T      030B2W DIGITAL ON      NM032R$  000000000070200000000007030000000000702000000000070200000000007030000000000000000000000000000002000000000000002600000000000001826596000000000000009999123100000010000000000000BRBTOWACNOR8105
012013062762BTOW3T      030B2W DIGITAL ON      NM090R$  000000000072300000000007240000000000723000000000072300000000007240000000000000000000000000000002000000000000004000000000000002893960000000000000009999123100000010000000000000BRBTOWACNOR8105
012013062702BTTL3       010BATTISTELLA ON           R$  000000000007600000000000760000000000074000000000007500000000000740000000000074000000000007800009000000000000007000000000000000529500000000000000009999123100000010000000000000BRBTTLACNOR0105
012013062702BVMF3       010BMFBOVESPA  ON      NM   R$  000000000121700000000012500000000001217000000000123500000000012320000000001231000000000123221129000000000009409500000000011620710500000000000000009999123100000010000000000000BRBVMFACNOR3125
012013062796BVMF3F      020BMFBOVESPA  ON      NM   R$  000000000122500000000012490000000001211000000000123400000000012250000000001225000000000124300110000000000000002840000000000003504979000000000000009999123100000010000000000000BRBVMFACNOR3125
012013062778BVMFG11     070BVMF        ON      NM000R$  000000000014500000000001560000000000143000000000014900000000001460000000000131000000000000000033000000000000142000000000000021279600000000000110002013071500000010000000000000BRBVMFACNOR3125
012013062778BVMFG12     070BVMF  FM    ON      NM000R$  000000000006600000000000820000000000065000000000007200000000000690000000000066000000000008500247000000000000470500000000000034260300000000000118902013071500000010000000000000BRBVMFACNOR3124
012013062778BVMFG13     070BVMF  FM    ON      NM000R$  000000000002100000000000290000000000020000000000002500000000000200000000000018000000000002000183000000000000313900000000000007848400000000000126902013071500000010000000000000BRBVMFACNOR3123
012013062778BVMFG14     070BVMF        ON      NM000R$  000000000000300000000000030000000000001000000000000200000000000020000000000002000000000000300035000000000000136300000000000000285500000000000136902013071500000010000000000000BRBVMFACNOR3123
012013062778BVMFG15     070BVMF        ON      NM000R$  000000000000100000000000010000000000001000000000000100000000000010000000000000000000000000100002000000000000003500000000000000003500000000000148902013071500000010000000000000BRBVMFACNOR3124
012013062778BVMFG40     070BVMF        ON      NM000R$  000000000018400000000001840000000000184000000000018400000000001840000000000000000000000022000001000000000000000700000000000000128800000000000105002013071500000010000000000000BRBVMFACNOR3125
012013062778BVMFG41     070BVMF  FM    ON      NM000R$  000000000009700000000001090000000000094000000000010100000000000990000000000000000000000000000033000000000000097500000000000009918200000000000115002013071500000010000000000000BRBVMFACNOR3125
012013062778BVMFG42     070BVMF  FM    ON      NM000R$  000000000004700000000000560000000000045000000000005000000000000490000000000000000000000000000045000000000000128100000000000006506400000000000121902013071500000010000000000000BRBVMFACNOR3123
012013062778BVMFG43     070BVMF  FM    ON      NM000R$  000000000000600000000000070000000000005000000000000500000000000050000000000000000000000000500048000000000000153100000000000000882600000000000133902013071500000010000000000000BRBVMFACNOR3124
012013062778BVMFG50     070BVMF        ON      NM000R$  000000000001300000000000130000000000013000000000001300000000000130000000000000000000000000000001000000000000001900000000000000024700000000000130002013071500000010000000000000BRBVMFACNOR3125
012013062778BVMFH11     070BVMF        ON      NM000R$  000000000016200000000001720000000000162000000000016700000000001720000000000000000000000000000002000000000000002000000000000000334000000000000110002013081900000010000000000000BRBVMFACNOR3125
012013062778BVMFH12     070BVMF  FM    ON      NM000R$  000000000008500000000000980000000000084000000000008800000000000890000000000020000000000009500051000000000000076000000000000006722500000000000120002013081900000010000000000000BRBVMFACNOR3125
012013062778BVMFH13     070BVMF  FM    ON      NM000R$  000000000003700000000000450000000000035000000000003800000000000380000000000036000000000003900176000000000000209100000000000008070800000000000128902013081900000010000000000000BRBVMFACNOR3124
012013062778BVMFH14     070BVMF        ON      NM000R$  000000000001000000000000130000000000010000000000001100000000000110000000000005000000000001100057000000000000317500000000000003739600000000000138902013081900000010000000000000BRBVMFACNOR3124
012013062778BVMFH15     070BVMF        ON      NM000R$  000000000000200000000000020000000000002000000000000200000000000020000000000002000000000000300001000000000000006700000000000000013400000000000150002013081900000010000000000000BRBVMFACNOR3125
012013062778BVMFH40     070BVMF        ON      NM000R$  000000000021100000000002120000000000211000000000021100000000002120000000000000000000000000000002000000000000003000000000000000634200000000000105002013081900000010000000000000BRBVMFACNOR3125
012013062778BVMFH41     070BVMF  FM    ON      NM000R$  000000000012300000000001350000000000122000000000012600000000001250000000000000000000000000000049000000000000102500000000000012971700000000000115002013081900000010000000000000BRBVMFACNOR3125
012013062778BVMFH42     070BVMF  FM    ON      NM000R$  000000000005400000000000640000000000054000000000005700000000000560000000000000000000000000000032000000000000083500000000000004810100000000000125002013081900000010000000000000BRBVMFACNOR3125
012013062778BVMFH43     070BVMF  FM    ON      NM000R$  000000000001700000000000190000000000017000000000001800000000000190000000000005000000000135000033000000000000057500000000000001061800000000000135002013081900000010000000000000BRBVMFACNOR3125
012013062778BVMFI12     070BVMF        ON      NM000R$  000000000010700000000001070000000000106000000000010600000000001060000000000000000000000000000035000000000000023000000000000002454100000000000120002013091600000010000000000000BRBVMFACNOR3125
012013062778BVMFI13     070BVMF        ON      NM000R$  000000000005200000000000520000000000052000000000005200000000000520000000000000000000000000000007000000000000007000000000000000364000000000000130002013091600000010000000000000BRBVMFACNOR3125
012013062778BVMFI15     070BVMF        ON      NM000R$  000000000000700000000000070000000000007000000000000700000000000070000000000004000000000010000002000000000000006000000000000000042000000000000150002013091600000010000000000000BRBVMFACNOR3125
012013062778BVMFI45     070BVMF        ON      NM000R$  000000000000400000000000040000000000004000000000000400000000000040000000000000000000000000000001000000000000003000000000000000012000000000000155002013091600000010000000000000BRBVMFACNOR3125
012013062778BVMFK14     070BVMF        ON      NM000R$  000000000004000000000000400000000000040000000000004000000000000400000000000000000000000004700001000000000000001500000000000000060000000000000140002013111800000010000000000000BRBVMFACNOR3125
012013062782BVMFS10     080BVMFE       ON      NM000R$  000000000000200000000000020000000000001000000000000100000000000010000000000000000000000000200006000000000000050300000000000000050600000000000098902013071500000010000000000000BRBVMFACNOR3124
012013062782BVMFS11     080BVMFE FM    ON      NM000R$  000000000000600000000000060000000000006000000000000600000000000060000000000000000000000000000010000000000000010200000000000000061200000000000110002013071500000010000000000000BRBVMFACNOR3125
012013062782BVMFS12     080BVMFE FM    ON      NM000R$  000000000002300000000000240000000000017000000000002000000000000240000000000017000000000002500045000000000000065700000000000001331100000000000118902013071500000010000000000000BRBVMFACNOR3124
012013062782BVMFS13     080BVMFE       ON      NM000R$  000000000005200000000000590000000000045000000000004800000000000590000000000040000000000028700017000000000000084900000000000004157100000000000126902013071500000010000000000000BRBVMFACNOR3123
012013062782BVMFS14     080BVMFE       ON      NM000R$  000000000012200000000001220000000000122000000000012200000000001220000000000000000000000000000001000000000000000800000000000000097600000000000136902013071500000010000000000000BRBVMFACNOR3123
012013062782BVMFS41     080BVMFE FM    ON      NM000R$  000000000001400000000000140000000000010000000000001200000000000120000000000000000000000000000008000000000000028200000000000000347900000000000115002013071500000010000000000000BRBVMFACNOR3125
012013062782BVMFS42     080BVMFE FM    ON      NM000R$  000000000003200000000000350000000000025000000000002800000000000350000000000000000000000000000028000000000000088200000000000002518800000000000121902013071500000010000000000000BRBVMFACNOR3123
012013062782BVMFS43     080BVMFE       ON      NM000R$  000000000010800000000001080000000000100000000000010400000000001000000000000000000000000000000005000000000000020000000000000002080000000000000133902013071500000010000000000000BRBVMFACNOR3124
012013062782BVMFT10     080BVMFE       ON      NM000R$  000000000000600000000000080000000000006000000000000600000000000080000000000000000000000000800013000000000000070000000000000000460000000000000100002013081900000010000000000000BRBVMFACNOR3125
012013062782BVMFT11     080BVMFE FM    ON      NM000R$  000000000001700000000000170000000000017000000000001700000000000170000000000012000000000000000003000000000000008000000000000000136000000000000110002013081900000010000000000000BRBVMFACNOR3125
012013062782BVMFT12     080BVMFE FM    ON      NM000R$  000000000004500000000000470000000000038000000000004000000000000470000000000038000000000004800106000000000000049600000000000002027800000000000120002013081900000010000000000000BRBVMFACNOR3125
012013062782BVMFT41     080BVMFE FM    ON      NM000R$  000000000002900000000000290000000000029000000000002900000000000290000000000000000000000000000001000000000000000200000000000000005800000000000115002013081900000010000000000000BRBVMFACNOR3125
012013062782BVMFT42     080BVMFE FM    ON      NM000R$  000000000006000000000000680000000000055000000000005700000000000680000000000000000000000000000041000000000000143500000000000008295100000000000125002013081900000010000000000000BRBVMFACNOR3125
012013062782BVMFU12     080BVMFE       ON      NM000R$  000000000005100000000000510000000000051000000000005100000000000510000000000000000000000000000001000000000000003500000000000000178500000000000120002013091600000010000000000000BRBVMFACNOR3125
012013062702CARD3       010CSU CARDSYSTON      NM   R$  000000000029100000000002910000000000277000000000028200000000002850000000000282000000000028500052000000000000047300000000000013352100000000000000009999123100000010000000000000BRCARDACNOR9105
012013062796CARD3F      020CSU CARDSYSTON      NM   R$  000000000027900000000002790000000000279000000000027900000000002790000000000276000000000029800001000000000000000062000000000000017298000000000000009999123100000010000000000000BRCARDACNOR9105
012013062702CBMA4       010COBRASMA    PN           R$  000000000000400000000000040000000000004000000000000400000000000040000000000003000000000000400001000000000000010000000000000000040000000000000000009999123100000010000000000000BRCBMAACNPR1124
012013062708CCHI3       010CHIARELLI   ON           R$  000000000002000000000000230000000000020000000000002100000000000220000000000022000000000002300068000000000001210000000000000025690000000000000000009999123100000010000000000000BRCCHIACNOR5123
012013062796CCHI3F      020CHIARELLI   ON           R$  000000000002000000000000240000000000019000000000002100000000000230000000000022000000000002300017000000000000028051000000000000607947000000000000009999123100000010000000000000BRCCHIACNOR5123
012013062708CCHI4       010CHIARELLI   PN           R$  000000000001400000000000160000000000014000000000001500000000000160000000000015000000000001700013000000000000200000000000000003020000000000000000009999123100000010000000000000BRCCHIACNPR2122
012013062796CCHI4F      020CHIARELLI   PN           R$  000000000001300000000000150000000000013000000000001400000000000150000000000015000000000001700002000000000000001500000000000000022300000000000000009999123100000010000000000000BRCCHIACNPR2122
012013062702CCPR3       010CYRE COM-CCPON      NM   R$  000000000216100000000022550000000002100000000000218500000000021000000000002100000000000240000019000000000000002400000000000005244000000000000000009999123100000010000000000000BRCCPRACNOR9107
012013062702CCRO3       010CCR SA      ON      NM   R$  000000000171200000000017670000000001711000000000173900000000017670000000001756000000000176714794000000000007894700000000013730016000000000000000009999123100000010000000000000BRCCROACNOR2122
012013062796CCRO3F      020CCR SA      ON      NM   R$  000000000169000000000017860000000001683000000000173100000000017860000000001758000000000178700136000000000000003951000000000006840832000000000000009999123100000010000000000000BRCCROACNOR2122
012013062702CCXC3       010CCX CARVAO  ON      NM   R$  000000000011500000000001200000000000097000000000010800000000001050000000000104000000000010600880000000000004004600000000000432368600000000000000009999123100000010000000000000BRCCXCACNOR5100
012013062796CCXC3F      020CCX CARVAO  ON      NM   R$  000000000011400000000001180000000000095000000000010600000000000950000000000095000000000010900055000000000000001467000000000000156038000000000000009999123100000010000000000000BRCCXCACNOR5100
012013062702CEBR6       010CEB         PNB          R$  000000000175600000000017560000000001756000000000175600000000017560000000000000000000000175700001000000000000000100000000000000175600000000000000009999123100000010000000000000BRCEBRACNPB6113
012013062796CEEB3F      020COELBA      ON           R$  000000000360000000000036000000000003600000000000360000000000036000000000003008000000000399000003000000000000000049000000000000176400000000000000009999123100000010000000000000BRCEEBACNOR3163
012013062708CELP3       010CELPA       ON           R$  000000000005600000000000560000000000056000000000005600000000000560000000000056000000000006000002000000000000034000000000000001904000000000000000009999123100000010000000000000BRCELPACNOR8112
012013062712CEOC11B     010FII CEO CCP CI      MB   R$  000000000890200000000090900000000008900000000000900400000000090300000000009010000000000903000041000000000000002625000000000023635554000000000000009999123100000010000000000000BRCEOCCTF003107
012013062702CEPE5       010CELPE       PNA          R$  000000000180100000000018010000000001801000000000180100000000018010000000001801000000000200000001000000000000000100000000000000180100000000000000009999123100000010000000000000BRCEPEACNPA6151
012013062702CESP3       010CESP        ON      N1   R$  000000000168800000000016890000000001688000000000168800000000016890000000001601000000000168900002000000000000000200000000000000337700000000000000009999123100000010000000000000BRCESPACNOR3159
012013062702CESP5       010CESP        PNA     N1   R$  000000000210500000000021500000000002100000000000210900000000021000000000002000000000000219900008000000000000000800000000000001687500000000000000009999123100000010000000000000BRCESPACNPA6108
012013062796CESP5F      020CESP        PNA     N1   R$  000000000200000000000020000000000002000000000000200000000000020000000000002051000000000000000001000000000000000010000000000000020000000000000000009999123100000010000000000000BRCESPACNPA6108
012013062702CESP6       010CESP        PNB     N1   R$  000000000192200000000019750000000001911000000000195300000000019550000000001951000000000195503305000000000000829900000000001621059000000000000000009999123100000010000000000000BRCESPACNPB4118
012013062796CESP6F      020CESP        PNB     N1   R$  000000000191800000000019970000000001918000000000195100000000019200000000001920000000000193800029000000000000000695000000000001355876000000000000009999123100000010000000000000BRCESPACNPB4118
012013062762CESP6T      030CESP        PNB     N1053R$  000000000198400000000019940000000001984000000000198600000000019940000000000000000000000000000004000000000000050000000000000099306037000000000000009999123100000010000000000000BRCESPACNPB4118
012013062702CGAS3       010COMGAS      ON           R$  000000000446000000000045890000000004460000000000453500000000045700000000004570000000000459900009000000000000000900000000000004081800000000000000009999123100000010000000000000BRCGASACNOR0132
012013062702CGAS5       010COMGAS      PNA          R$  000000000501300000000050190000000004960000000000498700000000049830000000004983000000000499000122000000000000042600000000000212450500000000000000009999123100000010000000000000BRCGASACNPA3129
012013062796CGAS5F      020COMGAS      PNA          R$  000000000499000000000050000000000004967000000000498600000000049670000000004960000000000519700004000000000000000116000000000000578407000000000000009999123100000010000000000000BRCGASACNPA3129
012013062702CGRA3       010GRAZZIOTIN  ON           R$  000000000154100000000015800000000001541000000000154400000000015500000000001541000000000155000031000000000000014900000000000023020300000000000000009999123100000010000000000000BRCGRAACNOR2061
012013062796CGRA3F      020GRAZZIOTIN  ON           R$  000000000160500000000016050000000001605000000000160500000000016050000000001500000000000160500001000000000000000013000000000000020865000000000000009999123100000010000000000000BRCGRAACNOR2061
012013062702CGRA4       010GRAZZIOTIN  PN           R$  000000000167300000000016980000000001600000000000161700000000016000000000001600000000000171000142000000000000059500000000000096211900000000000000009999123100000010000000000000BRCGRAACNPR9061
012013062796CGRA4F      020GRAZZIOTIN  PN           R$  000000000165600000000016560000000001656000000000165600000000016560000000001616000000000165600001000000000000000015000000000000024840000000000000009999123100000010000000000000BRCGRAACNPR9061
012013062702CIEL3       010CIELO       ON      NM   R$  000000000529100000000055250000000005291000000000547200000000054900000000005480000000000549309482000000000002198300000000012030229500000000000000009999123100000010000000000000BRCIELACNOR3111
012013062796CIEL3F      020CIELO       ON      NM   R$  000000000532000000000055250000000005320000000000546200000000055090000000005422000000000550900135000000000000004063000000000022194636000000000000009999123100000010000000000000BRCIELACNOR3111
012013062762CIEL3T      030CIELO       ON      NM090R$  000000000539100000000053920000000005391000000000539100000000053920000000000000000000000000000002000000000000001800000000000009704752000000000000009999123100000010000000000000BRCIELACNOR3111
012013062778CIELH57     070CIEL        ON      NM000R$  000000000011000000000001100000000000110000000000011000000000001100000000000000000000000000000002000000000000018000000000000001980000000000000570002013081900000010000000000000BRCIELACNOR3111
012013062702CLSC4       010CELESC      PN      N2   R$  000000000200900000000020090000000001985000000000199800000000020000000000001961000000000200000014000000000000004100000000000008192200000000000000009999123100000010000000000000BRCLSCACNPR3107
012013062702CMCS11B     010COMCAST     DRN     MB   R$  000000000909000000000090900000000009090000000000909000000000090900000000008544000000000909000001000000000000000100000000000000909000000000000000009999123100000010000000000000BRCMCSBDR008105
012013062702CMIG3       010CEMIG       ON      N1   R$  000000000187600000000019830000000001876000000000194000000000019550000000001955000000000198200821000000000000169900000000000329670000000000000000009999123100000010000000000000BRCMIGACNOR6208
012013062796CMIG3F      020CEMIG       ON      N1   R$  000000000190100000000019980000000001890000000000194000000000019700000000001950000000000199000056000000000000001438000000000002789740000000000000009999123100000010000000000000BRCMIGACNOR6208
012013062702CMIG4       010CEMIG       PN      N1   R$  000000000191000000000019880000000001895000000000196600000000019640000000001964000000000196512141000000000003430200000000006743836800000000000000009999123100000010000000000000BRCMIGACNPR3208
012013062796CMIG4F      020CEMIG       PN      N1   R$  000000000190900000000019890000000001895000000000196200000000019700000000001970000000000198700180000000000000004714000000000009256140000000000000009999123100000010000000000000BRCMIGACNPR3208
012013062762CMIG4T      030CEMIG       PN      N1090R$  000000000200300000000020040000000002003000000000200300000000020040000000000000000000000000000002000000000000003000000000000006010062000000000000009999123100000010000000000000BRCMIGACNPR3208
012013062762CMIG4T      030CEMIG       PN      N1120R$  000000000201300000000020140000000002013000000000201300000000020140000000000000000000000000000004000000000000016300000000000032821690000000000000009999123100000010000000000000BRCMIGACNPR3208
012013062712CNES11B     010FII CENESP  CI  ER  MB   R$  000000001250000000000127400000000012305000000001244500000000127400000000012451000000001274000016000000000000000922000000000011474960000000000000009999123100000010000000000000BRCNESCTF001123
012013062702COCE3       010COELCE      ON           R$  000000000424200000000043190000000004241000000000426100000000042580000000004010000000000425900017000000000000002900000000000012357600000000000000009999123100000010000000000000BRCOCEACNOR0132
012013062796COCE3F      020COELCE      ON           R$  000000000415000000000041500000000004150000000000415000000000041500000000004008000000000000000001000000000000000043000000000000178450000000000000009999123100000010000000000000BRCOCEACNOR0132
012013062702COCE5       010COELCE      PNA          R$  000000000415000000000043000000000004140000000000418000000000041400000000004140000000000419900184000000000000074900000000000313131000000000000000009999123100000010000000000000BRCOCEACNPA3133
012013062796COCE5F      020COELCE      PNA          R$  000000000421900000000042570000000004170000000000421300000000041910000000004171000000000421900013000000000000000221000000000000931170000000000000009999123100000010000000000000BRCOCEACNPA3133
012013062702CPFE3       010CPFL ENERGIAON      NM   R$  000000000200600000000020640000000002001000000000204200000000020500000000002041000000000205005099000000000001185000000000002420201000000000000000009999123100000010000000000000BRCPFEACNOR0121
012013062796CPFE3F      020CPFL ENERGIAON      NM   R$  000000000203800000000020710000000002015000000000203800000000020410000000002016000000000207100014000000000000000458000000000000933696000000000000009999123100000010000000000000BRCPFEACNOR0121
012013062702CPLE3       010COPEL       ON      N1   R$  000000000220200000000022670000000002094000000000216200000000020940000000002090000000000209400263000000000000093400000000000201940700000000000000009999123100000010000000000000BRCPLEACNOR8128
012013062796CPLE3F      020COPEL       ON      N1   R$  000000000224100000000022690000000002101000000000224800000000021010000000002101000000000000000005000000000000000151000000000000339546000000000000009999123100000010000000000000BRCPLEACNOR8128
012013062702CPLE6       010COPEL       PNB     N1   R$  000000000271500000000028430000000002672000000000276900000000026950000000002695000000000270002938000000000000804300000000002227193800000000000000009999123100000010000000000000BRCPLEACNPB9125
012013062796CPLE6F      020COPEL       PNB     N1   R$  000000000270000000000028080000000002627000000000275800000000027980000000002626000000000279800026000000000000000694000000000001914133000000000000009999123100000010000000000000BRCPLEACNPB9125
012013062702CRDE3       010CR2         ON      NM   R$  000000000045000000000004500000000000420000000000043000000000004200000000000420000000000042500011000000000000018100000000000007787300000000000000009999123100000010000000000000BRCRDEACNOR1108
012013062702CREM3       010CREMER      ON      NM   R$  000000000138000000000013990000000001380000000000139000000000013950000000001395000000000140300016000000000000108400000000000150716600000000000000009999123100000010000000000000BRCREMACNOR2166
012013062796CREM3F      020CREMER      ON      NM   R$  000000000139000000000013900000000001390000000000139000000000013900000000001242000000000139900001000000000000000040000000000000055600000000000000009999123100000010000000000000BRCREMACNOR2166
012013062702CRUZ3       010SOUZA CRUZ  ON  EJ       R$  000000000268000000000027180000000002668000000000269500000000026910000000002690000000000269104945000000000001412100000000003805869600000000000000009999123100000010000000000000BRCRUZACNOR0246
012013062796CRUZ3F      020SOUZA CRUZ  ON  EJ       R$  000000000267100000000027410000000002671000000000269600000000027010000000002671000000000271600051000000000000001419000000000003826743000000000000009999123100000010000000000000BRCRUZACNOR0246
012013062762CRUZ3T      030SOUZA CRUZ  ON  EJ    045R$  000000000273000000000027310000000002730000000000273000000000027310000000000000000000000000000002000000000000000300000000000000819009000000000000009999123100000010000000000000BRCRUZACNOR0246
012013062778CRUZH27     070CRUZ    /EJ ON        000R$  000000000010400000000001040000000000104000000000010400000000001040000000000000000000000000000001000000000000100000000000000010400000000000000270002013081900000010000000000000BRCRUZACNOR0246
012013062778CRUZH29     070CRUZ    /EJ ON        000R$  000000000001300000000000130000000000013000000000001300000000000130000000000000000000000000000002000000000000006600000000000000085800000000000290002013081900000010000000000000BRCRUZACNOR0246
012013062702CSAN3       010COSAN       ON      NM   R$  000000000417600000000043630000000004176000000000432000000000043520000000004352000000000435605189000000000001310900000000005664149500000000000000009999123100000010000000000000BRCSANACNOR6107
012013062796CSAN3F      020COSAN       ON      NM   R$  000000000423000000000043600000000004151000000000431700000000043520000000004282000000000435200045000000000000001319000000000005696955000000000000009999123100000010000000000000BRCSANACNOR6107
012013062762CSAN3T      030COSAN       ON      NM018R$  000000000435600000000043570000000004356000000000435600000000043570000000000000000000000000000002000000000000001000000000000004356758000000000000009999123100000010000000000000BRCSANACNOR6107
012013062762CSAN3T      030COSAN       ON      NM090R$  000000000441000000000044240000000004410000000000441300000000044140000000000000000000000000000018000000000000200000000000000882777339000000000000009999123100000010000000000000BRCSANACNOR6107
012013062778CSANG44     070CSAN        ON      NM000R$  000000000002000000000000200000000000020000000000002000000000000200000000000000000000000000000002000000000000001200000000000000024000000000000440002013071500000010000000000000BRCSANACNOR6107
012013062778CSANG45     070CSAN        ON      NM000R$  000000000003800000000000380000000000038000000000003800000000000380000000000000000000000000000001000000000000100000000000000003800000000000000450002013071500000010000000000000BRCSANACNOR6107
012013062782CSANS40     080CSANE       ON      NM000R$  000000000001000000000000100000000000010000000000001000000000000100000000000000000000000000000001000000000000100000000000000001000000000000000400002013071500000010000000000000BRCSANACNOR6107
012013062782CSANS42     080CSANE       ON      NM000R$  000000000005000000000000500000000000050000000000005000000000000500000000000000000000000000000001000000000000100000000000000005000000000000000420002013071500000010000000000000BRCSANACNOR6107
012013062702CSMG3       010COPASA      ON  EJ  NM   R$  000000000360900000000036290000000003542000000000358100000000035750000000003570000000000357502213000000000000536900000000001922851700000000000000009999123100000010000000000000BRCSMGACNOR5127
012013062796CSMG3F      020COPASA      ON  EJ  NM   R$  000000000366800000000036680000000003543000000000358200000000035850000000003541000000000369800015000000000000000451000000000001615572000000000000009999123100000010000000000000BRCSMGACNOR5127
012013062714CSMO11      010ISHARES CSMOCI           R$  000000000449300000000045040000000004493000000000449800000000045040000000004300000000000459500002000000000000000020000000000000089970000000000000009999123100000010000000000000BRCSMOCTF002100
012013062702CSNA3       010SID NACIONALON           R$  000000000062000000000006320000000000615000000000062200000000006180000000000617000000000061808816000000000005188800000000003228248300000000000000009999123100000010000000000000BRCSNAACNOR6242
012013062796CSNA3F      020SID NACIONALON           R$  000000000062400000000006320000000000617000000000062200000000006240000000000616000000000062500063000000000000001603000000000000998079000000000000009999123100000010000000000000BRCSNAACNOR6242
012013062762CSNA3T      030SID NACIONALON        032R$  000000000063200000000006330000000000630000000000063100000000006310000000000000000000000000000004000000000000008600000000000005434781000000000000009999123100000010000000000000BRCSNAACNOR6242
012013062762CSNA3T      030SID NACIONALON        060R$  000000000063700000000006380000000000632000000000063300000000006340000000000000000000000000000006000000000000023000000000000014572542000000000000009999123100000010000000000000BRCSNAACNOR6242
012013062762CSNA3T      030SID NACIONALON        090R$  000000000063200000000006330000000000629000000000063100000000006300000000000000000000000000000004000000000000008300000000000005237425000000000000009999123100000010000000000000BRCSNAACNOR6242
012013062762CSNA3T      030SID NACIONALON        120R$  000000000063900000000006400000000000638000000000063900000000006390000000000000000000000000000004000000000000043200000000000027618144000000000000009999123100000010000000000000BRCSNAACNOR6242
012013062778CSNAG6      070CSNA  FM    ON        000R$  000000000004100000000000430000000000036000000000003800000000000370000000000000000000000013500017000000000000055900000000000002133600000000000060002013071500000010000000000000BRCSNAACNOR6242
012013062778CSNAG64     070CSNA  FM    ON        000R$  000000000002100000000000210000000000015000000000001600000000000150000000000000000000000000000014000000000000104500000000000001673500000000000064002013071500000010000000000000BRCSNAACNOR6242
012013062778CSNAG68     070CSNA  FM    ON        000R$  000000000000700000000000070000000000007000000000000700000000000070000000000000000000000000700001000000000000001000000000000000007000000000000068002013071500000010000000000000BRCSNAACNOR6242
012013062778CSNAG7      070CSNA        ON        000R$  000000000000400000000000040000000000003000000000000300000000000030000000000003000000000000500003000000000000006000000000000000020000000000000070002013071500000010000000000000BRCSNAACNOR6242
012013062778CSNAH6      070CSNA  FM    ON        000R$  000000000006000000000000620000000000055000000000005700000000000550000000000000000000000013800015000000000000040100000000000002324600000000000060002013081900000010000000000000BRCSNAACNOR6242
012013062778CSNAH62     070CSNA  FM    ON        000R$  000000000004600000000000460000000000046000000000004600000000000460000000000000000000000000000002000000000000004500000000000000207000000000000062002013081900000010000000000000BRCSNAACNOR6242
012013062778CSNAH64     070CSNA  FM    ON        000R$  000000000003800000000000380000000000038000000000003800000000000380000000000000000000000003900001000000000000004000000000000000152000000000000064002013081900000010000000000000BRCSNAACNOR6242
012013062778CSNAH68     070CSNA  FM    ON        000R$  000000000002200000000000220000000000022000000000002200000000000220000000000000000000000000000009000000000000021000000000000000462000000000000068002013081900000010000000000000BRCSNAACNOR6242
012013062782CSNAS6      080CSNAE FM    ON        000R$  000000000001500000000000150000000000015000000000001500000000000150000000000000000000000000000001000000000000000200000000000000003000000000000060002013071500000010000000000000BRCSNAACNOR6242
012013062782CSNAS64     080CSNAE FM    ON        000R$  000000000003400000000000340000000000033000000000003300000000000330000000000000000000000000000002000000000000004000000000000000134000000000000064002013071500000010000000000000BRCSNAACNOR6242
012013062782CSNAS66     080CSNAE FM    ON        000R$  000000000004600000000000460000000000045000000000004500000000000450000000000000000000000000000003000000000000006000000000000000272000000000000066002013071500000010000000000000BRCSNAACNOR6242
012013062782CSNAS7      080CSNAE       ON        000R$  000000000007700000000000810000000000077000000000007800000000000810000000000000000000000000000003000000000000001000000000000000078200000000000070002013071500000010000000000000BRCSNAACNOR6242
012013062782CSNAT6      080CSNAE FM    ON        000R$  000000000003000000000000300000000000030000000000003000000000000300000000000000000000000000000002000000000000000300000000000000009000000000000060002013081900000010000000000000BRCSNAACNOR6242
012013062782CSNAT62     080CSNAE FM    ON        000R$  000000000003800000000000380000000000038000000000003800000000000380000000000000000000000000000005000000000000010000000000000000380000000000000062002013081900000010000000000000BRCSNAACNOR6242
012013062782CSNAT66     080CSNAE FM    ON        000R$  000000000006000000000000600000000000060000000000006000000000000600000000000000000000000000000005000000000000011000000000000000660000000000000066002013081900000010000000000000BRCSNAACNOR6242
012013062782CSNAT7      080CSNAE       ON        000R$  000000000008200000000000850000000000082000000000008300000000000850000000000060000000000009000003000000000000000800000000000000066500000000000070002013081900000010000000000000BRCSNAACNOR6242
012013062702CTAX11      010CONTAX      UNT     N2   R$  000000000226800000000022750000000002175000000000222300000000021750000000000000000000000217500048000000000000023200000000000051592700000000000000009999123100000010000000000000BRCTAXCDAM19100
012013062702CTAX4       010CONTAX      PN      N2   R$  000000000045700000000004570000000000435000000000044400000000004440000000000434000000000044400145000000000000058100000000000025834300000000000000009999123100000010000000000000BRCTAXACNPR0114
012013062796CTAX4F      020CONTAX      PN      N2   R$  000000000040000000000004600000000000400000000000041700000000004350000000000400000000000046000006000000000000000155000000000000064767000000000000009999123100000010000000000000BRCTAXACNPR0114
012013062702CTIP3       010CETIP       ON  EJ  NM   R$  000000000226600000000023080000000002241000000000227200000000022900000000002289000000000229005035000000000001441700000000003276047800000000000000009999123100000010000000000000BRCTIPACNOR2119
012013062796CTIP3F      020CETIP       ON  EJ  NM   R$  000000000230000000000023380000000002236000000000226400000000022990000000002242000000000229900033000000000000001198000000000002715407000000000000009999123100000010000000000000BRCTIPACNOR2119
012013062762CTIP3T      030CETIP       ON  EJ  NM060R$  000000000231000000000023130000000002310000000000231000000000023130000000000000000000000000000006000000000000003000000000000006932450000000000000009999123100000010000000000000BRCTIPACNOR2119
012013062782CTIPS22     080CTIPE   /EJ ON      NM000R$  000000000001500000000000220000000000015000000000001700000000000210000000000000000000000000000004000000000000350000000000000006255000000000000219402013071500000010000000000000BRCTIPACNOR2118
012013062702CTNM3       010COTEMINAS   ON           R$  000000000031000000000003100000000000310000000000031000000000003100000000000267000000000030900001000000000000000300000000000000093000000000000000009999123100000010000000000000BRCTNMACNOR9129
012013062702CTNM4       010COTEMINAS   PN           R$  000000000030200000000003040000000000280000000000028300000000002800000000000277000000000028000013000000000000009300000000000002632800000000000000009999123100000010000000000000BRCTNMACNPR6128
012013062702CTSA3       010SANTANENSE  ON           R$  000000000057000000000005700000000000570000000000057000000000005700000000000560000000000057000001000000000000000100000000000000057000000000000000009999123100000010000000000000BRCTSAACNOR3051
012013062702CTSA4       010SANTANENSE  PN           R$  000000000058500000000005850000000000585000000000058500000000005850000000000550000000000059800002000000000000000200000000000000117000000000000000009999123100000010000000000000BRCTSAACNPR0051
012013062702CYRE3       010CYRELA REALTON      NM   R$  000000000155400000000016020000000001535000000000155600000000015540000000001551000000000155408976000000000003459100000000005382981000000000000000009999123100000010000000000000BRCYREACNOR7125
