00COTAHIST.2013BOVESPA 20130729                                                                                                                                                                                                                      
012013072902AAPL11B     010APPLE       DRN     MB   R$  000000001006700000000101160000000010067000000001007200000000101160000000010110000000001021500002000000000000009700000000000097698900000000000000009999123100000010000000000000BRAAPLBDR004104
012013072902ABCB4       010ABC BRASIL  PN      N2   R$  000000000125000000000012610000000001223000000000124200000000012230000000001223000000000123300615000000000000432100000000000536687500000000000000009999123100000010000000000000BRABCBACNPR4120
012013072996ABCB4F      020ABC BRASIL  PN      N2   R$  000000000124500000000012470000000001240000000000124400000000012470000000001237000000000125500003000000000000000055000000000000068457000000000000009999123100000010000000000000BRABCBACNPR4120
012013072912ABCP11      010FII ABC IMOBCI           R$  000000000093100000000009350000000000900000000000090300000000009000000000000911000000000095000007000000000000001213000000000001095484000000000000009999123100000010000000000000BRABCPCTF000213
012013072902ABRE11      010ABRIL EDUCA UNT     N2   R$  000000000360000000000036010000000003542000000000357300000000035420000000003542000000000356000694000000000000120100000000000429205300000000000000009999123100000010000000000000BRABRECDAM15102
012013072996ABRE11F     020ABRIL EDUCA UNT     N2   R$  000000000341100000000035800000000003411000000000356400000000035800000000003500000000000360000004000000000000000047000000000000167545000000000000009999123100000010000000000000BRABRECDAM15102
012013072902AEDU3       010ANHANGUERA  ON      NM   R$  000000000135000000000013540000000001329000000000134400000000013500000000001350000000000135105416000000000002773800000000003728777500000000000000009999123100000010000000000000BRAEDUACNOR9107
012013072996AEDU3F      020ANHANGUERA  ON      NM   R$  000000000130800000000013540000000001308000000000133700000000013500000000001325000000000135000011000000000000000380000000000000508320000000000000009999123100000010000000000000BRAEDUACNOR9107
012013072912AEFI11      010FII AESAPAR CI           R$  000000001240000000000125450000000012350000000001242500000000125450000000012401000000001254500024000000000000001397000000000017358763000000000000009999123100000010000000000000BRAEFICTF002119
012013072912AGCX11      010FII AG CAIXACI           R$  000000010070000000001008500000000100650000000010072000000001006500000000100500000000010070000006000000000000000024000000000002417300000000000000009999123100000010000000000000BRAGCXCTF003108
012013072902AGEN11      010AGRENCO     DR3          R$  000000000002100000000000270000000000021000000000002300000000000220000000000022000000000002302749000000000037814800000000000879016000000000000000009999123100000010000000000000BRAGENBDR001100
012013072996AGEN11F     020AGRENCO     DR3          R$  000000000002200000000000240000000000022000000000002200000000000230000000000023000000000002400024000000000000000514000000000000011785000000000000009999123100000010000000000000BRAGENBDR001100
012013072962AGEN11T     030AGRENCO     DR3       091R$  000000000002100000000000220000000000021000000000002100000000000220000000000000000000000000000008000000000000175000000000000003747765000000000000009999123100000010000000000000BRAGENBDR001100
012013072902AGRO3       010BRASILAGRO  ON      NM   R$  000000000105100000000010510000000001030000000000103800000000010300000000001030000000000104000107000000000000015800000000000016409200000000000000009999123100000010000000000000BRAGROACNOR7102
012013072902ALLL3       010ALL AMER LATON      NM   R$  000000000088600000000008890000000000874000000000087900000000008790000000000879000000000088003729000000000001583500000000001393256300000000000000009999123100000010000000000000BRALLLACNOR6118
012013072996ALLL3F      020ALL AMER LATON      NM   R$  000000000088600000000008860000000000870000000000087900000000008750000000000874000000000088500067000000000000002062000000000001812618000000000000009999123100000010000000000000BRALLLACNOR6118
012013072962ALLL3T      030ALL AMER LATON      NM120R$  000000000090400000000009050000000000904000000000090400000000009050000000000000000000000000000002000000000000000500000000000000452393000000000000009999123100000010000000000000BRALLLACNOR6118
012013072912ALMI11B     010FII TORRE ALCI      MB   R$  000000031600000000003160000000000315000000000031529300000003160000000000315000000000031950000006000000000000000075000000000023647000000000000000009999123100000010000000000000BRALMICTF003203
012013072902ALPA3       010ALPARGATAS  ON      N1   R$  000000000107000000000011380000000001062000000000107100000000010620000000001062000000000107000028000000000000031500000000000033750000000000000000009999123100000010000000000000BRALPAACNOR0202
012013072962ALPA3T      030ALPARGATAS  ON      N1091R$  000000000109100000000010920000000001091000000000109100000000010920000000000000000000000000000002000000000000004000000000000004365600000000000000009999123100000010000000000000BRALPAACNOR0202
012013072962ALPA3T      030ALPARGATAS  ON      N1360R$  000000000116600000000011670000000001166000000000116600000000011670000000000000000000000000000002000000000000001000000000000001166926000000000000009999123100000010000000000000BRALPAACNOR0202
012013072902ALPA4       010ALPARGATAS  PN      N1   R$  000000000132000000000013870000000001316000000000134100000000013730000000001370000000000137400821000000000001089600000000001461441200000000000000009999123100000010000000000000BRALPAACNPR7202
012013072996ALPA4F      020ALPARGATAS  PN      N1   R$  000000000132000000000013700000000001317000000000135000000000013700000000001323000000000140000015000000000000000440000000000000594078000000000000009999123100000010000000000000BRALPAACNPR7202
012013072902ALSC3       010ALIANSCE    ON      NM   R$  000000000208300000000020830000000002010000000000203400000000020100000000002010000000000202401259000000000000710400000000001445157900000000000000009999123100000010000000000000BRALSCACNOR0104
012013072996ALSC3F      020ALIANSCE    ON      NM   R$  000000000206900000000020700000000002018000000000205500000000020180000000001905000000000219900011000000000000000442000000000000908616000000000000009999123100000010000000000000BRALSCACNOR0104
012013072902ALUP11      010ALUPAR      UNT     N2   R$  000000000176000000000017840000000001750000000000176800000000017500000000001742000000000175000406000000000000170900000000000302295400000000000000009999123100000010000000000000BRALUPCDAM15100
012013072996ALUP11F     020ALUPAR      UNT     N2   R$  000000000176500000000017720000000001721000000000176300000000017710000000001741000000000177000019000000000000000536000000000000945314000000000000009999123100000010000000000000BRALUPCDAM15100
012013072962ALUP11T     030ALUPAR      UNT     N2360R$  000000000193800000000019390000000001938000000000193800000000019390000000000000000000000000000002000000000000001000000000000001938283000000000000009999123100000010000000000000BRALUPCDAM15100
012013072902AMAR3       010LOJAS MARISAON      NM   R$  000000000217900000000022060000000002146000000000218300000000021850000000002185000000000218600994000000000000202000000000000441079800000000000000009999123100000010000000000000BRAMARACNOR4109
012013072996AMAR3F      020LOJAS MARISAON      NM   R$  000000000218900000000021930000000002189000000000219000000000021930000000002170000000000222000003000000000000000106000000000000232244000000000000009999123100000010000000000000BRAMARACNOR4109
012013072978AMARL25     070AMAR        ON      NM000R$  000000000006500000000000650000000000065000000000006500000000000650000000000000000000000000000002000000000000102300000000000006649500000000000250002013121600000010000000000000BRAMARACNOR4109
012013072982AMARX19     080AMARE       ON      NM000R$  000000000003800000000000380000000000038000000000003800000000000380000000000000000000000000000002000000000000102300000000000003887400000000000190002013121600000010000000000000BRAMARACNOR4109
012013072982AMARX21     080AMARE       ON      NM000R$  000000000011300000000001130000000000112000000000011200000000001120000000000000000000000000000003000000000000102300000000000011508900000000000210002013121600000010000000000000BRAMARACNOR4109
012013072902AMBV3       010AMBEV       ON           R$  000000000811100000000082020000000008053000000000812100000000081130000000008101000000000811400742000000000000120900000000000981937800000000000000009999123100000010000000000000BRAMBVACNOR4153
012013072996AMBV3F      020AMBEV       ON           R$  000000000820000000000082000000000008057000000000811900000000081200000000008113000000000812000047000000000000001152000000000009354026000000000000009999123100000010000000000000BRAMBVACNOR4153
012013072902AMBV4       010AMBEV       PN           R$  000000000813000000000082350000000008075000000000815100000000081340000000008134000000000815003463000000000000995200000000008112645300000000000000009999123100000010000000000000BRAMBVACNPR1153
012013072996AMBV4F      020AMBEV       PN           R$  000000000806400000000082490000000008064000000000816600000000081950000000008125000000000819500086000000000000002123000000000017337998000000000000009999123100000010000000000000BRAMBVACNPR1153
012013072962AMBV4T      030AMBEV       PN        030R$  000000000828700000000082880000000008203000000000825200000000082040000000000000000000000000000008000000000000001400000000000011552937000000000000009999123100000010000000000000BRAMBVACNPR1153
012013072902ARTR3       010ARTERIS     ON      NM   R$  000000000212400000000021800000000002114000000000215500000000021400000000002139000000000214003292000000000007309000000000015757598300000000000000009999123100000010000000000000BRARTRACNOR3101
012013072996ARTR3F      020ARTERIS     ON      NM   R$  000000000212200000000021760000000002120000000000216200000000021640000000002160000000000218000029000000000000001041000000000002250734000000000000009999123100000010000000000000BRARTRACNOR3101
012013072902ARZZ3       010AREZZO CO   ON      NM   R$  000000000363800000000037500000000003621000000000368300000000037500000000003724000000000375001171000000000000240800000000000887060900000000000000009999123100000010000000000000BRARZZACNOR3108
012013072996ARZZ3F      020AREZZO CO   ON      NM   R$  000000000361300000000036780000000003613000000000365500000000036390000000003540000000000365000007000000000000000244000000000000891857000000000000009999123100000010000000000000BRARZZACNOR3108
012013072902AUTM3       010AUTOMETAL   ON      NM   R$  000000000182200000000018610000000001804000000000182200000000018200000000001818000000000182000203000000000000035200000000000064140000000000000000009999123100000010000000000000BRAUTMACNOR8109
012013072996AUTM3F      020AUTOMETAL   ON      NM   R$  000000000180000000000018250000000001700000000000180700000000018200000000001825000000000190000016000000000000000606000000000001095257000000000000009999123100000010000000000000BRAUTMACNOR8109
012013072902BAHI3       010BAHEMA      ON           R$  000000000050900000000005090000000000491000000000050200000000004910000000000491000000000050000003000000000000000400000000000000200900000000000000009999123100000010000000000000BRBAHIACNOR1066
012013072902BALM4       010BAUMER      PN           R$  000000000755000000000075500000000007550000000000755000000000075500000000007510000000000000000001000000000000000100000000000000755000000000000000009999123100000010000000000000BRBALMACNPR2043
012013072902BAZA3       010AMAZONIA    ON           R$  000000000003300000000000340000000000033000000000003300000000000340000000000033000000000003500004000000000000012000000000000000407000000000000000009999123100000010000000000000BRBAZAACNOR0163
012013072902BBAS3       010BRASIL      ON      NM   R$  000000000224100000000022820000000002231000000000226200000000022690000000002269000000000227010709000000000003940800000000008917346400000000000000009999123100000010000000000000BRBBASACNOR3237
012013072996BBAS3F      020BRASIL      ON      NM   R$  000000000225000000000022800000000002228000000000226100000000022750000000002250000000000227500152000000000000004765000000000010775354000000000000009999123100000010000000000000BRBBASACNOR3237
012013072962BBAS3T      030BRASIL      ON      NM016R$  000000000228300000000022840000000002283000000000228300000000022840000000000000000000000000000002000000000000002000000000000004567366000000000000009999123100000010000000000000BRBBASACNOR3237
012013072962BBAS3T      030BRASIL      ON      NM030R$  000000000226100000000022940000000002261000000000228200000000022940000000000000000000000000000004000000000000015000000000000034237327000000000000009999123100000010000000000000BRBBASACNOR3237
012013072962BBAS3T      030BRASIL      ON      NM091R$  000000000231600000000023170000000002310000000000231300000000023110000000000000000000000000000004000000000000008000000000000018511186000000000000009999123100000010000000000000BRBBASACNOR3237
012013072978BBASB25     070BBAS        ON      NM000R$  000000000012200000000001220000000000122000000000012200000000001220000000000000000000000000000001000000000000001200000000000000146400000000000250002014021700000010000000000000BRBBASACNOR3237
012013072978BBASH21     070BBAS  FM    ON      NM000R$  000000000020100000000002220000000000185000000000020600000000002220000000000188000000000022300100000000000000160000000000000033048000000000000207602013081900000010000000000000BRBBASACNOR3236
012013072978BBASH22     070BBAS  FM    ON      NM000R$  000000000011700000000001370000000000107000000000012200000000001350000000000094000000000018000056000000000000100400000000000012271800000000000217602013081900000010000000000000BRBBASACNOR3236
012013072978BBASH23     070BBAS  FM    ON      NM000R$  000000000005300000000000690000000000053000000000006200000000000670000000000050000000000007400158000000000000236800000000000014814200000000000227602013081900000010000000000000BRBBASACNOR3236
012013072978BBASH24     070BBAS  FM    ON      NM000R$  000000000004100000000000480000000000033000000000004300000000000440000000000040000000000004600122000000000000140500000000000006065200000000000231702013081900000010000000000000BRBBASACNOR3233
012013072978BBASH25     070BBAS  FM    ON      NM000R$  000000000001100000000000170000000000011000000000001400000000000160000000000014000000000001800043000000000000045600000000000000676800000000000241702013081900000010000000000000BRBBASACNOR3233
012013072978BBASH26     070BBAS        ON      NM000R$  000000000000400000000000040000000000003000000000000300000000000030000000000003000000000000400002000000000000012600000000000000038800000000000256602013081900000010000000000000BRBBASACNOR3235
012013072978BBASH27     070BBAS        ON      NM000R$  000000000000300000000000030000000000002000000000000200000000000020000000000001000000000000400002000000000000008000000000000000019000000000000266602013081900000010000000000000BRBBASACNOR3235
012013072978BBASH28     070BBAS        ON      NM000R$  000000000000200000000000020000000000002000000000000200000000000020000000000000000000000000200002000000000000001600000000000000003200000000000276602013081900000010000000000000BRBBASACNOR3235
012013072978BBASI21     070BBAS  FM    ON      NM000R$  000000000020600000000002270000000000198000000000021300000000002260000000000000000000000000000051000000000000095600000000000020373800000000000210002013091600000010000000000000BRBBASACNOR3237
012013072978BBASI22     070BBAS  FM    ON      NM000R$  000000000015200000000001710000000000146000000000015700000000001680000000000120000000000018500030000000000000051200000000000008047900000000000217602013091600000010000000000000BRBBASACNOR3236
012013072978BBASI23     070BBAS  FM    ON      NM000R$  000000000009200000000001060000000000086000000000009800000000001030000000000078000000000023400014000000000000022100000000000002169900000000000227602013091600000010000000000000BRBBASACNOR3236
012013072978BBASI24     070BBAS  FM    ON      NM000R$  000000000005000000000000580000000000050000000000005600000000000580000000000055000000000006000020000000000000055700000000000003123800000000000237602013091600000010000000000000BRBBASACNOR3236
012013072978BBASI25     070BBAS  FM    ON      NM000R$  000000000002900000000000330000000000026000000000003000000000000310000000000028000000000003400026000000000000026800000000000000818300000000000246602013091600000010000000000000BRBBASACNOR3235
012013072978BBASI26     070BBAS        ON      NM000R$  000000000001300000000000150000000000013000000000001400000000000150000000000013000000000002400003000000000000002200000000000000032600000000000256602013091600000010000000000000BRBBASACNOR3235
012013072978BBASJ23     070BBAS        ON      NM000R$  000000000014400000000001440000000000144000000000014400000000001440000000000000000000000000000001000000000000000100000000000000014400000000000226602013102100000010000000000000BRBBASACNOR3235
012013072978BBASJ24     070BBAS        ON      NM000R$  000000000008600000000000910000000000086000000000008900000000000900000000000012000000000000000320000000000000037800000000000003398900000000000237602013102100000010000000000000BRBBASACNOR3236
012013072978BBASJ25     070BBAS        ON      NM000R$  000000000004600000000000540000000000046000000000005000000000000500000000000000000000000000000007000000000000019900000000000000999000000000000250002013102100000010000000000000BRBBASACNOR3237
012013072978BBASJ26     070BBAS        ON      NM000R$  000000000003700000000000370000000000033000000000003500000000000350000000000022000000000004000004000000000000009500000000000000340500000000000256602013102100000010000000000000BRBBASACNOR3235
012013072978BBASJ27     070BBAS        ON      NM000R$  000000000002300000000000230000000000021000000000002200000000000210000000000007000000000000000002000000000000006000000000000000132000000000000266602013102100000010000000000000BRBBASACNOR3235
012013072978BBASJ53     070BBAS        ON      NM000R$  000000000011800000000001180000000000118000000000011800000000001180000000000000000000000000000003000000000000008300000000000000979400000000000231602013102100000010000000000000BRBBASACNOR3235
012013072978BBASJ56     070BBAS        ON      NM000R$  000000000002800000000000280000000000028000000000002800000000000280000000000000000000000000000001000000000000003000000000000000084000000000000261602013102100000010000000000000BRBBASACNOR3235
012013072982BBAST20     080BBASE       ON      NM000R$  000000000000700000000000070000000000006000000000000600000000000060000000000005000000000000000002000000000000000200000000000000001300000000000200002013081900000010000000000000BRBBASACNOR3237
012013072982BBAST21     080BBASE FM    ON      NM000R$  000000000001400000000000140000000000011000000000001200000000000110000000000000000000000001300010000000000000025300000000000000308300000000000207602013081900000010000000000000BRBBASACNOR3236
012013072982BBAST22     080BBASE FM    ON      NM000R$  000000000003200000000000340000000000023000000000002700000000000230000000000020000000000004000056000000000000078600000000000002157700000000000217602013081900000010000000000000BRBBASACNOR3236
012013072982BBAST23     080BBASE FM    ON      NM000R$  000000000008500000000000850000000000055000000000005900000000000550000000000000000000000005900138000000000000246000000000000014682600000000000227602013081900000010000000000000BRBBASACNOR3236
012013072982BBAST24     080BBASE FM    ON      NM000R$  000000000009400000000001020000000000075000000000008900000000000760000000000055000000000008900067000000000000118300000000000010606200000000000231702013081900000010000000000000BRBBASACNOR3233
012013072982BBASU21     080BBASE FM    ON      NM000R$  000000000003300000000000330000000000033000000000003300000000000330000000000000000000000007000001000000000000000900000000000000029700000000000210002013091600000010000000000000BRBBASACNOR3237
012013072982BBASU22     080BBASE FM    ON      NM000R$  000000000005700000000000570000000000046000000000004900000000000460000000000040000000000000000006000000000000018100000000000000901700000000000217602013091600000010000000000000BRBBASACNOR3236
012013072982BBASU23     080BBASE FM    ON      NM000R$  000000000009600000000000990000000000082000000000008900000000000820000000000000000000000000000333000000000000061800000000000005521200000000000227602013091600000010000000000000BRBBASACNOR3236
012013072982BBASU24     080BBASE FM    ON      NM000R$  000000000015300000000001560000000000133000000000014400000000001350000000000000000000000000000034000000000000074500000000000010739900000000000237602013091600000010000000000000BRBBASACNOR3236
012013072982BBASU52     080BBASE       ON      NM000R$  000000000008600000000000860000000000086000000000008600000000000860000000000000000000000000000001000000000000002200000000000000189200000000000225002013091600000010000000000000BRBBASACNOR3237
012013072982BBASV23     080BBASE       ON      NM000R$  000000000010000000000001000000000000100000000000010000000000001000000000000000000000000000000001000000000000003000000000000000300000000000000226602013102100000010000000000000BRBBASACNOR3235
012013072982BBASV24     080BBASE       ON      NM000R$  000000000017200000000001720000000000153000000000015900000000001530000000000000000000000000000006000000000000018000000000000002862000000000000237602013102100000010000000000000BRBBASACNOR3236
012013072982BBASV53     080BBASE       ON      NM000R$  000000000014000000000001400000000000128000000000013200000000001300000000000000000000000000000003000000000000008700000000000001152000000000000231602013102100000010000000000000BRBBASACNOR3235
012013072902BBDC3       010BRADESCO    ON      N1   R$  000000000309500000000031530000000003092000000000313300000000031350000000003126000000000313504084000000000000989700000000003100988600000000000000009999123100000010000000000000BRBBDCACNOR1604
012013072996BBDC3F      020BRADESCO    ON      N1   R$  000000000314500000000031790000000003110000000000313300000000031790000000003113000000000318000059000000000000000957000000000002999123000000000000009999123100000010000000000000BRBBDCACNOR1604
012013072902BBDC4       010BRADESCO    PN      N1   R$  000000000283500000000028550000000002788000000000281600000000028260000000002824000000000282613242000000000004321000000000012169291800000000000000009999123100000010000000000000BRBBDCACNPR8604
012013072996BBDC4F      020BRADESCO    PN      N1   R$  000000000282000000000028520000000002791000000000281300000000028370000000002825000000000283700202000000000000005566000000000015664926000000000000009999123100000010000000000000BRBBDCACNPR8604
012013072962BBDC4T      030BRADESCO    PN      N1016R$  000000000282400000000028260000000002824000000000282400000000028260000000000000000000000000000004000000000000003000000000000008474544000000000000009999123100000010000000000000BRBBDCACNPR8604
012013072962BBDC4T      030BRADESCO    PN      N1030R$  000000000285400000000028550000000002841000000000284600000000028470000000000000000000000000000008000000000000038000000000000108151075000000000000009999123100000010000000000000BRBBDCACNPR8604
012013072962BBDC4T      030BRADESCO    PN      N1091R$  000000000288700000000028880000000002887000000000288700000000028880000000000000000000000000000002000000000000002000000000000005774108000000000000009999123100000010000000000000BRBBDCACNPR8604
012013072978BBDCH26     070BBDC        PN      N1000R$  000000000026700000000002700000000000260000000000026400000000002700000000000000000000000000000009000000000000020000000000000005295000000000000258002013081900000010000000000000BRBBDCACNPR8602
012013072978BBDCH27     070BBDC        PN      N1000R$  000000000018000000000001860000000000157000000000016700000000001860000000000000000000000022800021000000000000036900000000000006162600000000000268002013081900000010000000000000BRBBDCACNPR8602
012013072978BBDCH28     070BBDC        PN      N1000R$  000000000012000000000001290000000000087000000000010100000000001120000000000102000000000011400317000000000000406800000000000041426900000000000278002013081900000010000000000000BRBBDCACNPR8602
012013072978BBDCH29     070BBDC        PN      N1000R$  000000000006200000000000660000000000038000000000004400000000000550000000000046000000000005600359000000000000664000000000000029357800000000000288002013081900000010000000000000BRBBDCACNPR8602
012013072978BBDCH30     070BBDC        PN      N1000R$  000000000002600000000000260000000000015000000000001800000000000220000000000020000000000002300062000000000000182400000000000003344600000000000298002013081900000010000000000000BRBBDCACNPR8602
012013072978BBDCH31     070BBDC        PN      N1000R$  000000000000800000000000080000000000006000000000000600000000000070000000000006000000000000800004000000000000007600000000000000051600000000000307602013081900000010000000000000BRBBDCACNPR8600
012013072978BBDCH34     070BBDC        PN      N1000R$  000000000000800000000000080000000000008000000000000800000000000080000000000004000000000001400002000000000000002000000000000000016000000000000305502013081900000010000000000000BRBBDCACNPR8595
012013072978BBDCI27     070BBDC        PN      N1000R$  000000000021400000000002230000000000202000000000020800000000002230000000000000000000000000000005000000000000001000000000000000208300000000000268002013091600000010000000000000BRBBDCACNPR8602
012013072978BBDCI28     070BBDC        PN      N1000R$  000000000015600000000001580000000000132000000000014200000000001500000000000120000000000016000053000000000000118400000000000016912600000000000278002013091600000010000000000000BRBBDCACNPR8602
012013072978BBDCI29     070BBDC        PN      N1000R$  000000000010700000000001120000000000083000000000009500000000001000000000000079000000000010000028000000000000052000000000000004941900000000000288002013091600000010000000000000BRBBDCACNPR8602
012013072978BBDCI30     070BBDC        PN      N1000R$  000000000006600000000000660000000000048000000000005400000000000590000000000043000000000006600018000000000000033700000000000001846300000000000298002013091600000010000000000000BRBBDCACNPR8602
012013072978BBDCI31     070BBDC        PN      N1000R$  000000000017000000000001700000000000169000000000016900000000001690000000000000000000000000000006000000000000012400000000000002105900000000000273102013091600000010000000000000BRBBDCACNPR8590
012013072978BBDCI32     070BBDC        PN      N1000R$  000000000001200000000000120000000000011000000000001100000000000110000000000012000000000003900027000000000000034000000000000000397500000000000318002013091600000010000000000000BRBBDCACNPR8602
012013072978BBDCI33     070BBDC        PN      N1000R$  000000000005000000000000600000000000050000000000005500000000000600000000000000000000000000000003000000000000003400000000000000190000000000000297402013091600000010000000000000BRBBDCACNPR8598
012013072978BBDCI68     070BBDC        ON      N1000R$  000000000035500000000003550000000000355000000000035500000000003550000000000000000000000000000001000000000000034000000000000012070000000000000280002013091600000010000000000000BRBBDCACNOR1604
012013072978BBDCI72     070BBDC        ON      N1000R$  000000000013100000000001310000000000131000000000013100000000001310000000000000000000000000000001000000000000034000000000000004454000000000000320002013091600000010000000000000BRBBDCACNOR1604
012013072978BBDCI75     070BBDCE       PN      N1000R$  000000000011300000000001130000000000113000000000011300000000001130000000000000000000000000000001000000000000002000000000000000226000000000000282502013091600000010000000000000BRBBDCACNPR8604
012013072978BBDCI81     070BBDC        PN      N1000R$  000000000002500000000000260000000000025000000000002500000000000260000000000000000000000000000012000000000000013000000000000000336000000000000308002013091600000010000000000000BRBBDCACNPR8602
012013072978BBDCJ29     070BBDC        PN      N1000R$  000000000013600000000001430000000000136000000000014000000000001430000000000000000000000000000002000000000000002900000000000000408400000000000288002013102100000010000000000000BRBBDCACNPR8602
012013072978BBDCJ30     070BBDC        PN      N1000R$  000000000009200000000000920000000000092000000000009200000000000920000000000000000000000000000001000000000000000500000000000000046000000000000298002013102100000010000000000000BRBBDCACNPR8602
012013072978BBDCJ31     070BBDC        PN      N1000R$  000000000006300000000000630000000000063000000000006300000000000630000000000010000000000000000001000000000000001000000000000000063000000000000308002013102100000010000000000000BRBBDCACNPR8602
012013072978BBDCJ32     070BBDC        PN      N1000R$  000000000003900000000000390000000000039000000000003900000000000390000000000000000000000000000001000000000000000100000000000000003900000000000318002013102100000010000000000000BRBBDCACNPR8602
012013072978BBDCJ34     070BBDC        PN      N1000R$  000000000001700000000000170000000000017000000000001700000000000170000000000000000000000000000001000000000000000100000000000000001700000000000337602013102100000010000000000000BRBBDCACNPR8600
012013072982BBDCT25     080BBDCE       PN      N1000R$  000000000000800000000000080000000000008000000000000800000000000080000000000000000000000000000001000000000000000100000000000000000800000000000248002013081900000010000000000000BRBBDCACNPR8602
012013072982BBDCT26     080BBDCE       PN      N1000R$  000000000001400000000000140000000000014000000000001400000000000140000000000000000000000003600001000000000000007000000000000000098000000000000258002013081900000010000000000000BRBBDCACNPR8602
012013072982BBDCT27     080BBDCE       PN      N1000R$  000000000002600000000000320000000000026000000000002800000000000280000000000000000000000019300666000000000000100000000000000002864200000000000268002013081900000010000000000000BRBBDCACNPR8602
012013072982BBDCT28     080BBDCE       PN      N1000R$  000000000004300000000000640000000000043000000000005600000000000500000000000000000000000000000031000000000000048600000000000002766500000000000278002013081900000010000000000000BRBBDCACNPR8602
012013072982BBDCT29     080BBDCE       PN      N1000R$  000000000008300000000001180000000000083000000000010400000000000950000000000068000000000000000050000000000000091600000000000009549700000000000288002013081900000010000000000000BRBBDCACNPR8602
012013072982BBDCT30     080BBDCE       PN      N1000R$  000000000015900000000001930000000000159000000000017600000000001660000000000000000000000000000053000000000000104600000000000018496900000000000298002013081900000010000000000000BRBBDCACNPR8602
012013072982BBDCT31     080BBDCE       PN      N1000R$  000000000027300000000002730000000000239000000000025600000000002390000000000000000000000000000003000000000000006000000000000001540000000000000307602013081900000010000000000000BRBBDCACNPR8600
012013072982BBDCT34     080BBDCE       PN      N1000R$  000000000024800000000002540000000000221000000000024100000000002210000000000000000000000000000004000000000000008000000000000001928000000000000305502013081900000010000000000000BRBBDCACNPR8595
012013072982BBDCU27     080BBDCE       PN      N1000R$  000000000005100000000000560000000000050000000000005200000000000540000000000000000000000005900019000000000000036600000000000001923800000000000268002013091600000010000000000000BRBBDCACNPR8602
012013072982BBDCU28     080BBDCE       PN      N1000R$  000000000008300000000000920000000000080000000000008700000000000820000000000000000000000000000674000000000000105400000000000009249200000000000278002013091600000010000000000000BRBBDCACNPR8602
012013072982BBDCU29     080BBDCE       PN      N1000R$  000000000012700000000001400000000000121000000000012900000000001210000000000000000000000000000020000000000000038900000000000005053100000000000288002013091600000010000000000000BRBBDCACNPR8602
012013072982BBDCU30     080BBDCE       PN      N1000R$  000000000018000000000002040000000000178000000000019000000000001790000000000000000000000000000050000000000000095900000000000018309800000000000298002013091600000010000000000000BRBBDCACNPR8602
012013072982BBDCU31     080BBDCE       PN      N1000R$  000000000007100000000000710000000000071000000000007100000000000710000000000000000000000000000001000000000000002100000000000000149100000000000273102013091600000010000000000000BRBBDCACNPR8590
012013072982BBDCU75     080BBDCE       PN      N1000R$  000000000010800000000001080000000000108000000000010800000000001080000000000000000000000000000001000000000000001400000000000000151200000000000282502013091600000010000000000000BRBBDCACNPR8604
012013072982BBDCV29     080BBDCE       PN      N1000R$  000000000016200000000001620000000000162000000000016200000000001620000000000000000000000000000001000000000000002000000000000000324000000000000288002013102100000010000000000000BRBBDCACNPR8602
012013072982BBDCV30     080BBDCE       PN      N1000R$  000000000021800000000002180000000000218000000000021800000000002180000000000000000000000000000001000000000000002000000000000000436000000000000298002013102100000010000000000000BRBBDCACNPR8602
012013072982BBDCW27     080BBDCE       PN      N1000R$  000000000009600000000000960000000000096000000000009600000000000960000000000000000000000009800070000000000000030000000000000002880000000000000269802013111800000010000000000000BRBBDCACNPR8603
012013072982BBDCX25     080BBDCE       PN      N1000R$  000000000006000000000000630000000000060000000000006200000000000630000000000000000000000000000002000000000000001300000000000000081600000000000250002013121600000010000000000000BRBBDCACNPR8604
012013072982BBDCX66     080BBDCE       PN      N1000R$  000000000008100000000000810000000000081000000000008100000000000810000000000000000000000000000001000000000000001200000000000000097200000000000260002013121600000010000000000000BRBBDCACNPR8604
012013072912BBFI11B     010FII BB PROGRCI      MB   R$  000000042100000000004210000000000420077000000042018700000004200770000000421002000000042500000004000000000000000015000000000006302814000000000000009999123100000010000000000000BRBBFICTF006196
012013072912BBPO11      010FII BB PRGIICI           R$  000000001117800000000113990000000011112000000001115900000000111600000000011160000000001130000133000000000000052702000000000588143633000000000000009999123100000010000000000000BRBBPOCTF003108
012013072912BBRC11      010FII BB CORP CI           R$  000000000930000000000093900000000009280000000000932400000000093000000000009206000000000934900039000000000000001019000000000009501425000000000000009999123100000010000000000000BRBBRCCTF004122
012013072902BBRK3       010BR BROKERS  ON      NM   R$  000000000058500000000005960000000000580000000000058400000000005830000000000582000000000058502009000000000001105000000000000645428800000000000000009999123100000010000000000000BRBBRKACNOR4108
012013072996BBRK3F      020BR BROKERS  ON      NM   R$  000000000058600000000005870000000000584000000000058500000000005870000000000563000000000058800005000000000000000293000000000000171625000000000000009999123100000010000000000000BRBBRKACNOR4108
012013072902BBSE3       010BBSEGURIDADEON      NM   R$  000000000180500000000018430000000001795000000000181800000000018150000000001810000000000182306075000000000002801100000000005095021400000000000000009999123100000010000000000000BRBBSEACNOR5100
012013072996BBSE3F      020BBSEGURIDADEON      NM   R$  000000000180000000000018400000000001797000000000182000000000018100000000001800000000000181000522000000000000015827000000000028805923000000000000009999123100000010000000000000BRBBSEACNOR5100
012013072902BBTG11      010BTG PACTUAL UNT          R$  000000000280100000000028200000000002763000000000277800000000027750000000002766000000000277700497000000000000257600000000000715782900000000000000009999123100000010000000000000BRBBTGUNT007104
012013072996BBTG11F     020BTG PACTUAL UNT          R$  000000000280600000000028060000000002775000000000278400000000027800000000002775000000000299200009000000000000000215000000000000598752000000000000009999123100000010000000000000BRBBTGUNT007104
012013072912BBVJ11      010FII C JARDIMCI           R$  000000000802600000000080690000000008000000000000801800000000080650000000008000000000000806500029000000000000001335000000000010705203000000000000009999123100000010000000000000BRBBVJCTF001131
012013072912BCFF11B     010FII BC FFII CI      MB   R$  000000000998000000000101500000000009800000000000997900000000101500000000010100000000001015000077000000000000005549000000000055377549000000000000009999123100000010000000000000BRBCFFCTF000140
012013072902BDLL4       010BARDELLA    PN           R$  000000000498900000000049990000000004989000000000499200000000049990000000004600000000000500000003000000000000000300000000000001497700000000000000009999123100000010000000000000BRBDLLACNPR8149
012013072902BEEF3       010MINERVA     ON      NM   R$  000000000090300000000009250000000000896000000000091300000000009150000000000915000000000092401496000000000000532200000000000486065100000000000000009999123100000010000000000000BRBEEFACNOR6104
012013072996BEEF3F      020MINERVA     ON      NM   R$  000000000091600000000009190000000000916000000000091700000000009190000000000890000000000092500002000000000000000126000000000000115644000000000000009999123100000010000000000000BRBEEFACNOR6104
012013072902BEES3       010BANESTES    ON           R$  000000000004800000000000480000000000048000000000004800000000000480000000000047000000000004800006000000000000023100000000000001108800000000000000009999123100000010000000000000BRBEESACNOR9242
012013072996BEES3F      020BANESTES    ON           R$  000000000005000000000000500000000000050000000000005000000000000500000000000000000000000005000001000000000000000006000000000000000300000000000000009999123100000010000000000000BRBEESACNOR9242
012013072902BEMA3       010BEMATECH    ON      NM   R$  000000000075600000000007770000000000756000000000077000000000007760000000000772000000000077700132000000000000057800000000000044536900000000000000009999123100000010000000000000BRBEMAACNOR0113
012013072996BEMA3F      020BEMATECH    ON      NM   R$  000000000077000000000007760000000000765000000000077200000000007650000000000765000000000079000007000000000000000235000000000000181654000000000000009999123100000010000000000000BRBEMAACNOR0113
012013072902BHGR3       010BHG         ON      NM   R$  000000000174500000000017450000000001681000000000168900000000016900000000000100000000000169000048000000000000014100000000000023820800000000000000009999123100000010000000000000BRBHGRACNOR9101
012013072996BHGR3F      020BHG         ON      NM   R$  000000000168600000000016860000000001686000000000168600000000016860000000001402000000000178700001000000000000000015000000000000025290000000000000009999123100000010000000000000BRBHGRACNOR9101
012013072902BICB4       010BICBANCO    PN      N1   R$  000000000038600000000003900000000000380000000000038400000000003800000000000379000000000038000311000000000000116000000000000044548400000000000000009999123100000010000000000000BRBICBACNPR7131
012013072996BICB4F      020BICBANCO    PN      N1   R$  000000000039000000000003900000000000382000000000038500000000003820000000000383000000000042400018000000000000000128000000000000049294000000000000009999123100000010000000000000BRBICBACNPR7131
012013072902BISA3       010BROOKFIELD  ON      NM   R$  000000000017700000000001790000000000174000000000017500000000001750000000000175000000000017602296000000000002792300000000000490558700000000000000009999123100000010000000000000BRBISAACNOR8109
012013072996BISA3F      020BROOKFIELD  ON      NM   R$  000000000017600000000001840000000000173000000000017600000000001760000000000176000000000018300014000000000000000406000000000000071847000000000000009999123100000010000000000000BRBISAACNOR8109
012013072962BISA3T      030BROOKFIELD  ON      NM030R$  000000000017600000000001770000000000176000000000017600000000001770000000000000000000000000000006000000000000013200000000000002325869000000000000009999123100000010000000000000BRBISAACNOR8109
012013072962BISA3T      030BROOKFIELD  ON      NM091R$  000000000017800000000001790000000000178000000000017800000000001790000000000000000000000000000002000000000000052300000000000009333720000000000000009999123100000010000000000000BRBISAACNOR8109
012013072912BJRC11      010FII JS RECIMCI           R$  000000008500000000000920000000000085000000000008507600000000860010000000081000000000009299900003000000000000000156000000000013272005000000000000009999123100000010000000000000BRBJRCCTF007108
012013072902BMEB3       010MERC BRASIL ON           R$  000000000170000000000017000000000001700000000000170000000000017000000000001700000000000200000001000000000000000200000000000000340000000000000000009999123100000010000000000000BRBMEBACNOR8189
012013072902BMIN4       010MERC INVEST PN           R$  000000000002300000000000230000000000023000000000002300000000000230000000000022000000000002400001000000000000001000000000000000023000000000000000009999123100000010000000000000BRBMINACNPR1159
012013072902BMKS3       010BIC MONARK  ON           R$  000000003275100000000327510000000032751000000003275100000000327510000000032750000000003500000002000000000000000002000000000000065502000000000000009999123100000010000000000000BRBMKSACNOR9155
012013072912BMLC11B     010FII BMBRC LCCI      MB   R$  000000001160100000000117000000000011601000000001167200000000117000000000011700000000001179000023000000000000003654000000000042652800000000000000009999123100000010000000000000BRBMLCCTF004117
012013072902BMTO4       010BRASMOTOR   PN           R$  000000000008800000000000880000000000088000000000008800000000000880000000000087000000000008800001000000000000002000000000000000176000000000000000009999123100000010000000000000BRBMTOACNPR6065
012013072996BMTO4F      020BRASMOTOR   PN           R$  000000000008900000000000890000000000088000000000008800000000000880000000000088000000000009000002000000000000000089000000000000007852000000000000009999123100000010000000000000BRBMTOACNPR6065
012013072914BOVA11      010ISHARES BOVACI           R$  000000000483400000000048470000000004805000000000482500000000048260000000004815000000000482601796000000000001294500000000006246273230000000000000009999123100000010000000000000BRBOVACTF003101
012013072996BOVA11F     020ISHARES BOVACI           R$  000000000483000000000048320000000004815000000000482700000000048320000000004815000000000484000008000000000000000021000000000000101378000000000000009999123100000010000000000000BRBOVACTF003101
012013072912BPFF11      010FII ABSOLUTOCI           R$  000000000893500000000089350000000008706000000000883400000000087060000000008706000000000890000007000000000000000548000000000004841518000000000000009999123100000010000000000000BRBPFFCTF002103
012013072902BPHA3       010BR PHARMA   ON      NM   R$  000000000100300000000010030000000000970000000000097900000000009850000000000981000000000098801649000000000000958800000000000939514600000000000000009999123100000010000000000000BRBPHAACNOR6102
012013072996BPHA3F      020BR PHARMA   ON      NM   R$  000000000098400000000009840000000000973000000000097700000000009730000000000970000000000102000005000000000000000213000000000000208212000000000000009999123100000010000000000000BRBPHAACNOR6102
012013072978BPHAH12     070BPHA        ON      NM000R$  000000000000200000000000020000000000002000000000000200000000000020000000000000000000000000000001000000000000100000000000000000200000000000000120002013081900000010000000000000BRBPHAACNOR6102
012013072978BPHAH41     070BPHA        ON      NM000R$  000000000000200000000000020000000000002000000000000200000000000020000000000000000000000000000001000000000000100000000000000000200000000000000115002013081900000010000000000000BRBPHAACNOR6102
012013072982BPHAT10     080BPHAE       ON      NM000R$  000000000004400000000000440000000000044000000000004400000000000440000000000000000000000000000001000000000000100000000000000004400000000000000100002013081900000010000000000000BRBPHAACNOR6102
012013072982BPHAT40     080BPHAE       ON      NM000R$  000000000007700000000000770000000000077000000000007700000000000770000000000000000000000000000001000000000000100000000000000007700000000000000105002013081900000010000000000000BRBPHAACNOR6102
012013072982BPHAT9      080BPHAE       ON      NM000R$  000000000001200000000000120000000000012000000000001200000000000120000000000000000000000000000001000000000000100000000000000001200000000000000090002013081900000010000000000000BRBPHAACNOR6102
012013072982BPHAT95     080BPHAE       ON      NM000R$  000000000002200000000000220000000000022000000000002200000000000220000000000000000000000000000001000000000000100000000000000002200000000000000095002013081900000010000000000000BRBPHAACNOR6102
012013072902BPNM4       010PANAMERICANOPN      N1   R$  000000000058000000000005910000000000579000000000058700000000005900000000000585000000000059000690000000000002236800000000001315023200000000000000009999123100000010000000000000BRBPNMACNPR6111
012013072996BPNM4F      020PANAMERICANOPN      N1   R$  000000000058700000000005900000000000587000000000058700000000005870000000000580000000000071200004000000000000000120000000000000070497000000000000009999123100000010000000000000BRBPNMACNPR6111
012013072902BRAP3       010BRADESPAR   ON      N1   R$  000000000189900000000018990000000001852000000000187000000000018580000000001858000000000189200069000000000000017700000000000033099500000000000000009999123100000010000000000000BRBRAPACNOR5124
012013072996BRAP3F      020BRADESPAR   ON      N1   R$  000000000185000000000021140000000001850000000000188700000000021140000000001860000000000209800011000000000000000110000000000000207590000000000000009999123100000010000000000000BRBRAPACNOR5124
012013072902BRAP4       010BRADESPAR   PN      N1   R$  000000000229800000000023070000000002265000000000228500000000022990000000002289000000000229903381000000000001478000000000003378055900000000000000009999123100000010000000000000BRBRAPACNPR2124
012013072996BRAP4F      020BRADESPAR   PN      N1   R$  000000000230000000000023000000000002261000000000228000000000022800000000002280000000000229700027000000000000000628000000000001432237000000000000009999123100000010000000000000BRBRAPACNPR2124
012013072962BRAP4T      030BRADESPAR   PN      N1120R$  000000000233400000000023350000000002329000000000233400000000023300000000000000000000000000000008000000000000050000000000000116724486000000000000009999123100000010000000000000BRBRAPACNPR2124
012013072912BRCR11      010FII BC FUND CI           R$  000000001345000000000134810000000013380000000001341500000000134000000000013400000000001347000270000000000000047172000000000632830131000000000000009999123100000010000000000000BRBRCRCTF000131
012013072902BRFS3       010BRF SA      ON      NM   R$  000000000480800000000049010000000004757000000000485100000000048550000000004855000000000488006244000000000002150300000000010431963700000000000000009999123100000010000000000000BRBRFSACNOR8110
012013072996BRFS3F      020BRF SA      ON      NM   R$  000000000481000000000048900000000004775000000000484800000000048900000000004850000000000489000092000000000000002690000000000013044422000000000000009999123100000010000000000000BRBRFSACNOR8110
012013072978BRFSH49     070BRFS        ON      NM000R$  000000000009600000000001400000000000096000000000011800000000001400000000000091000000000013500009000000000000004200000000000000496400000000000490002013081900000010000000000000BRBRFSACNOR8110
012013072902BRGE3       010ALFA CONSORCON           R$  000000000037700000000003770000000000377000000000037700000000003770000000000376000000000050000001000000000000000600000000000000226200000000000000009999123100000010000000000000BRBRGEACNOR6196
012013072902BRIN3       010BR INSURANCEON      NM   R$  000000000214000000000021930000000002130000000000216600000000021900000000002182000000000219001303000000000000344800000000000746982900000000000000009999123100000010000000000000BRBRINACNOR3105
012013072996BRIN3F      020BR INSURANCEON      NM   R$  000000000214700000000021890000000002147000000000215300000000021890000000002157000000000219800010000000000000000245000000000000527696000000000000009999123100000010000000000000BRBRINACNOR3105
012013072902BRIV3       010ALFA INVEST ON           R$  000000000064800000000006480000000000648000000000064800000000006480000000000646000000000069900001000000000000002900000000000001879200000000000000009999123100000010000000000000BRBRIVACNOR6196
012013072902BRKM3       010BRASKEM     ON      N1   R$  000000000115900000000011590000000001122000000000113100000000011300000000001130000000000114500042000000000000012900000000000014591900000000000000009999123100000010000000000000BRBRKMACNOR1110
012013072902BRKM5       010BRASKEM     PNA     N1   R$  000000000169600000000017420000000001690000000000172400000000017400000000001740000000000174103620000000000000860100000000001483406800000000000000009999123100000010000000000000BRBRKMACNPA4110
012013072996BRKM5F      020BRASKEM     PNA     N1   R$  000000000169700000000017450000000001682000000000171500000000017450000000001695000000000174000022000000000000000669000000000001147721000000000000009999123100000010000000000000BRBRKMACNPA4110
012013072902BRML3       010BR MALLS PARON      NM   R$  000000000209700000000020970000000002052000000000206400000000020520000000002052000000000205509225000000000002025800000000004181571200000000000000009999123100000010000000000000BRBRMLACNOR9105
012013072996BRML3F      020BR MALLS PARON      NM   R$  000000000211800000000021180000000002034000000000206400000000020340000000002034000000000206700036000000000000001217000000000002512320000000000000009999123100000010000000000000BRBRMLACNOR9105
012013072962BRML3T      030BR MALLS PARON      NM024R$  000000000207500000000020760000000002075000000000207500000000020760000000000000000000000000000002000000000000000800000000000001660157000000000000009999123100000010000000000000BRBRMLACNOR9105
012013072902BRPR3       010BR PROPERT  ON      NM   R$  000000000195000000000019610000000001907000000000192200000000019230000000001920000000000192804999000000000002240300000000004307057300000000000000009999123100000010000000000000BRBRPRACNOR9112
012013072996BRPR3F      020BR PROPERT  ON      NM   R$  000000000194100000000020080000000001909000000000192500000000019300000000001910000000000191800036000000000000001129000000000002173443000000000000009999123100000010000000000000BRBRPRACNOR9112
012013072962BRPR3T      030BR PROPERT  ON      NM016R$  000000000192100000000019220000000001921000000000192100000000019220000000000000000000000000000002000000000000004500000000000008644851000000000000009999123100000010000000000000BRBRPRACNOR9112
012013072902BRSR3       010BANRISUL    ON      N1   R$  000000000124000000000012400000000001240000000000124000000000012400000000001240000000000142000001000000000000000100000000000000124000000000000000009999123100000010000000000000BRBRSRACNOR3130
012013072902BRSR6       010BANRISUL    PNB     N1   R$  000000000149400000000015160000000001474000000000150200000000015160000000001506000000000151601557000000000000864900000000001299576200000000000000009999123100000010000000000000BRBRSRACNPB4133
012013072996BRSR6F      020BANRISUL    PNB     N1   R$  000000000149100000000015100000000001466000000000148100000000015100000000001470000000000157000019000000000000000566000000000000838699000000000000009999123100000010000000000000BRBRSRACNPB4133
012013072962BRSR6T      030BANRISUL    PNB     N1091R$  000000000153200000000015330000000001532000000000153200000000015330000000000000000000000000000002000000000000003000000000000004598729000000000000009999123100000010000000000000BRBRSRACNPB4133
012013072902BSEV3       010BIOSEV      ON      NM   R$  000000000121700000000012280000000001201000000000121000000000012280000000001201000000000128900010000000000000004200000000000005084800000000000000009999123100000010000000000000BRBSEVACNOR3100
012013072996BSEV3F      020BIOSEV      ON      NM   R$  000000000121500000000012150000000001215000000000121500000000012150000000001126000000000122700001000000000000000033000000000000040095000000000000009999123100000010000000000000BRBSEVACNOR3100
012013072982BSEVS99     080BSEVE       ON      NM000R$  000000000032000000000003200000000000320000000000032000000000003200000000000250000000000032000002000000000000001100000000000000352000000000000165702014072100000010000000000000BRBSEVACNOR3100
012013072902BTOW3       010B2W DIGITAL ON      NM   R$  000000000120500000000012150000000001178000000000119600000000011960000000001196000000000120001141000000000000432000000000000517021800000000000000009999123100000010000000000000BRBTOWACNOR8105
012013072996BTOW3F      020B2W DIGITAL ON      NM   R$  000000000121800000000012230000000001181000000000119700000000012130000000001180000000000121300030000000000000000916000000000001097361000000000000009999123100000010000000000000BRBTOWACNOR8105
012013072902BTTL4       010BATTISTELLA PN           R$  000000000009900000000001000000000000099000000000009900000000001000000000000097000000000010000002000000000000006000000000000000595000000000000000009999123100000010000000000000BRBTTLACNPR7105
012013072902BVMF3       010BMFBOVESPA  ON      NM   R$  000000000127500000000012760000000001231000000000125000000000012430000000001243000000000124414595000000000009061700000000011332059400000000000000009999123100000010000000000000BRBVMFACNOR3125
012013072996BVMF3F      020BMFBOVESPA  ON      NM   R$  000000000127500000000012750000000001235000000000125000000000012350000000001240000000000124500079000000000000002673000000000003341342000000000000009999123100000010000000000000BRBVMFACNOR3125
012013072962BVMF3T      030BMFBOVESPA  ON      NM045R$  000000000125000000000012510000000001250000000000125000000000012510000000000000000000000000000002000000000000002000000000000002501255000000000000009999123100000010000000000000BRBVMFACNOR3125
012013072978BVMFH1      070BVMFE       ON      NM000R$  000000000001400000000000140000000000012000000000001200000000000120000000000008000000000000000019000000000000035100000000000000428900000000000132502013081900000010000000000000BRBVMFACNOR3125
012013072978BVMFH11     070BVMF        ON      NM000R$  000000000017400000000001740000000000149000000000015900000000001500000000000141000000000015700016000000000000007500000000000001193800000000000110002013081900000010000000000000BRBVMFACNOR3125
012013072978BVMFH12     070BVMF  FM    ON      NM000R$  000000000008600000000000900000000000069000000000007700000000000720000000000071000000000007200132000000000000358300000000000027868600000000000120002013081900000010000000000000BRBVMFACNOR3125
012013072978BVMFH13     070BVMF  FM    ON      NM000R$  000000000002600000000000310000000000022000000000002400000000000230000000000022000000000002400316000000000000679200000000000016961600000000000128902013081900000010000000000000BRBVMFACNOR3124
012013072978BVMFH14     070BVMF  FM    ON      NM000R$  000000000000300000000000030000000000002000000000000200000000000020000000000002000000000000300019000000000000083000000000000000247900000000000138902013081900000010000000000000BRBVMFACNOR3124
012013072978BVMFH41     070BVMF        ON      NM000R$  000000000012900000000001290000000000108000000000011200000000001080000000000000000000000000000006000000000000020500000000000002315500000000000115002013081900000010000000000000BRBVMFACNOR3125
012013072978BVMFH42     070BVMF  FM    ON      NM000R$  000000000004900000000000530000000000038000000000004200000000000390000000000032000000000005000056000000000000181600000000000007803900000000000125002013081900000010000000000000BRBVMFACNOR3125
012013072978BVMFH43     070BVMF  FM    ON      NM000R$  000000000000800000000000090000000000007000000000000700000000000070000000000006000000000001100012000000000000038500000000000000302400000000000135002013081900000010000000000000BRBVMFACNOR3125
012013072978BVMFI11     070BVMF        ON      NM000R$  000000000017900000000001790000000000167000000000016900000000001670000000000000000000000000000005000000000000001100000000000000186900000000000110002013091600000010000000000000BRBVMFACNOR3125
012013072978BVMFI12     070BVMF  FM    ON      NM000R$  000000000010600000000001060000000000090000000000010000000000000900000000000065000000000000000004000000000000010500000000000001059500000000000120002013091600000010000000000000BRBVMFACNOR3125
012013072978BVMFI13     070BVMF  FM    ON      NM000R$  000000000004500000000000460000000000033000000000004100000000000350000000000000000000000004600058000000000000156600000000000006432000000000000130002013091600000010000000000000BRBVMFACNOR3125
012013072978BVMFI14     070BVMF  FM    ON      NM000R$  000000000001600000000000210000000000011000000000001700000000000110000000000011000000000001600022000000000000042500000000000000759100000000000140002013091600000010000000000000BRBVMFACNOR3125
012013072978BVMFI42     070BVMF  FM    ON      NM000R$  000000000007200000000000740000000000056000000000006900000000000580000000000000000000000000000011000000000000027200000000000001878400000000000125002013091600000010000000000000BRBVMFACNOR3125
012013072978BVMFI43     070BVMF  FM    ON      NM000R$  000000000002400000000000240000000000019000000000002200000000000190000000000019000000000003000009000000000000023400000000000000529400000000000135002013091600000010000000000000BRBVMFACNOR3125
012013072978BVMFJ13     070BVMF        ON      NM000R$  000000000006400000000000640000000000064000000000006400000000000640000000000000000000000000000001000000000000200000000000000012800000000000000130002013102100000010000000000000BRBVMFACNOR3125
012013072978BVMFL13     070BVMF        ON      NM000R$  000000000009300000000000930000000000092000000000009200000000000920000000000000000000000000000003000000000001300000000000000119800000000000000130002013121600000010000000000000BRBVMFACNOR3125
012013072982BVMFQ73     080BVMFE       ON      NM000R$  000000000011500000000001150000000000115000000000011500000000001150000000000000000000000000000001000000000000014400000000000001656000000000000128902014051900000010000000000000BRBVMFACNOR3124
012013072982BVMFR63     080BVMFE       ON      NM000R$  000000000012200000000001220000000000122000000000012200000000001220000000000000000000000000000001000000000000022600000000000002757200000000000130002014061600000010000000000000BRBVMFACNOR3125
012013072982BVMFT10     080BVMFE       ON      NM000R$  000000000000300000000000030000000000003000000000000300000000000030000000000000000000000010000029000000000000049700000000000000149100000000000100002013081900000010000000000000BRBVMFACNOR3125
012013072982BVMFT11     080BVMFE       ON      NM000R$  000000000000600000000000110000000000006000000000000800000000000110000000000006000000000003300009000000000000019700000000000000159700000000000110002013081900000010000000000000BRBVMFACNOR3125
012013072982BVMFT12     080BVMFE FM    ON      NM000R$  000000000002200000000000300000000000022000000000002600000000000290000000000011000000000003000038000000000000044700000000000001179900000000000120002013081900000010000000000000BRBVMFACNOR3125
012013072982BVMFT13     080BVMFE FM    ON      NM000R$  000000000005100000000000700000000000050000000000005600000000000700000000000000000000000000000022000000000000060000000000000003412200000000000128902013081900000010000000000000BRBVMFACNOR3124
012013072982BVMFT14     080BVMFE       ON      NM000R$  000000000012500000000001250000000000125000000000012500000000001250000000000000000000000000000001000000000000003500000000000000437500000000000138902013081900000010000000000000BRBVMFACNOR3124
012013072982BVMFT40     080BVMFE       ON      NM000R$  000000000000600000000000060000000000006000000000000600000000000060000000000000000000000000000001000000000000001900000000000000011400000000000105002013081900000010000000000000BRBVMFACNOR3125
012013072982BVMFT41     080BVMFE FM    ON      NM000R$  000000000001100000000000190000000000011000000000001500000000000190000000000000000000000005500015000000000000036800000000000000576200000000000115002013081900000010000000000000BRBVMFACNOR3125
012013072982BVMFT42     080BVMFE FM    ON      NM000R$  000000000003300000000000490000000000032000000000003900000000000490000000000000000000000000000036000000000000108500000000000004281500000000000125002013081900000010000000000000BRBVMFACNOR3125
012013072982BVMFT43     080BVMFE       ON      NM000R$  000000000009100000000000910000000000091000000000009100000000000910000000000000000000000016700001000000000000003500000000000000318500000000000135002013081900000010000000000000BRBVMFACNOR3125
012013072982BVMFU12     080BVMFE FM    ON      NM000R$  000000000003300000000000400000000000033000000000003700000000000400000000000029000000000004000025000000000000003400000000000000127300000000000120002013091600000010000000000000BRBVMFACNOR3125
012013072982BVMFU13     080BVMFE FM    ON      NM000R$  000000000007300000000000780000000000071000000000007300000000000780000000000052000000000000000007000000000000012600000000000000928500000000000130002013091600000010000000000000BRBVMFACNOR3125
012013072982BVMFU42     080BVMFE FM    ON      NM000R$  000000000004900000000000530000000000049000000000005100000000000530000000000000000000000000000002000000000000007000000000000000357000000000000125002013091600000010000000000000BRBVMFACNOR3125
012013072982BVMFV10     080BVMFE       ON      NM000R$  000000000000900000000000100000000000009000000000000900000000000100000000000000000000000001400002000000000000000500000000000000004700000000000100002013102100000010000000000000BRBVMFACNOR3125
012013072982BVMFW10     080BVMFE       ON      NM000R$  000000000001300000000000130000000000013000000000001300000000000130000000000000000000000001500001000000000000000200000000000000002600000000000100002013111800000010000000000000BRBVMFACNOR3125
012013072982BVMFX11     080BVMFE       ON      NM000R$  000000000003600000000000360000000000036000000000003600000000000360000000000000000000000003900001000000000000000500000000000000018000000000000110002013121600000010000000000000BRBVMFACNOR3125
012013072902CAMB4       010CAMBUCI     PN           R$  000000000019400000000001950000000000194000000000019400000000001940000000000187000000000019400007000000000000011400000000000002212700000000000000009999123100000010000000000000BRCAMBACNPR1117
012013072902CARD3       010CSU CARDSYSTON      NM   R$  000000000033400000000003340000000000322000000000032200000000003220000000000320000000000032200015000000000000065400000000000021067800000000000000009999123100000010000000000000BRCARDACNOR9105
012013072996CBMA3F      020COBRASMA    ON           R$  000000000000500000000000050000000000005000000000000500000000000050000000000004000000000000500001000000000000000001000000000000000005000000000000009999123100000010000000000000BRCBMAACNOR4124
012013072902CBMA4       010COBRASMA    PN           R$  000000000000500000000000050000000000005000000000000500000000000050000000000004000000000000500002000000000000100000000000000000500000000000000000009999123100000010000000000000BRCBMAACNPR1124
012013072996CBMA4F      020COBRASMA    PN           R$  000000000000600000000000060000000000006000000000000600000000000060000000000004000000000000600001000000000000000001000000000000000006000000000000009999123100000010000000000000BRCBMAACNPR1124
012013072908CCHI3       010CHIARELLI   ON           R$  000000000003000000000000310000000000029000000000002900000000000290000000000029000000000003000011000000000000190000000000000005560000000000000000009999123100000010000000000000BRCCHIACNOR5123
012013072996CCHI3F      020CHIARELLI   ON           R$  000000000003000000000000300000000000030000000000003000000000000300000000000030000000000003100003000000000000002800000000000000084000000000000000009999123100000010000000000000BRCCHIACNOR5123
012013072996CCHI4F      020CHIARELLI   PN           R$  000000000002200000000000220000000000022000000000002200000000000220000000000022000000000002500001000000000000001450000000000000031900000000000000009999123100000010000000000000BRCCHIACNPR2122
012013072902CCPR3       010CYRE COM-CCPON      NM   R$  000000000202800000000021290000000002028000000000211800000000021190000000002119000000000215000010000000000000012600000000000026686900000000000000009999123100000010000000000000BRCCPRACNOR9107
012013072996CCPR3F      020CYRE COM-CCPON      NM   R$  000000000209000000000020900000000002090000000000209000000000020900000000002080000000000219900001000000000000000040000000000000083600000000000000009999123100000010000000000000BRCCPRACNOR9107
012013072902CCRO3       010CCR SA      ON      NM   R$  000000000177000000000018300000000001755000000000179400000000017870000000001787000000000180008650000000000004244100000000007614213200000000000000009999123100000010000000000000BRCCROACNOR2122
012013072996CCRO3F      020CCR SA      ON      NM   R$  000000000177000000000018300000000001755000000000179700000000018300000000001788000000000183000065000000000000001636000000000002940106000000000000009999123100000010000000000000BRCCROACNOR2122
012013072978CCROK20     070CCRO        ON      NM000R$  000000000004900000000000490000000000048000000000004800000000000480000000000000000000000000000002000000000000050000000000000002420000000000000200002013111800000010000000000000BRCCROACNOR2122
012013072978CCROL19     070CCRO        ON      NM000R$  000000000010600000000001060000000000106000000000010600000000001060000000000000000000000000000001000000000000004000000000000000424000000000000190002013121600000010000000000000BRCCROACNOR2122
012013072902CCXC3       010CCX CARVAO  ON      NM   R$  000000000010300000000001060000000000099000000000010200000000001030000000000102000000000010300236000000000001262400000000000129728300000000000000009999123100000010000000000000BRCCXCACNOR5100
012013072996CEDO3F      020CEDRO       ON      N1   R$  000000000100100000000010010000000001001000000000100100000000010010000000000000000000000120000001000000000000000032000000000000032032000000000000009999123100000010000000000000BRCEDOACNOR8094
012013072902CEEB3       010COELBA      ON           R$  000000000320000000000032000000000003200000000000320000000000032000000000000000000000000350000001000000000000000600000000000001920000000000000000009999123100000010000000000000BRCEEBACNOR3163
012013072908CELP3       010CELPA       ON           R$  000000000006900000000000690000000000069000000000006900000000000690000000000055000000000006900002000000000000000300000000000000020700000000000000009999123100000010000000000000BRCELPACNOR8112
012013072912CEOC11B     010FII CEO CCP CI      MB   R$  000000000910000000000091200000000009000000000000908700000000091200000000009010000000000912000051000000000000002908000000000026425993000000000000009999123100000010000000000000BRCEOCCTF003108
012013072902CESP3       010CESP        ON      N1   R$  000000000169100000000016980000000001691000000000169300000000016980000000001560000000000169500002000000000000000300000000000000508000000000000000009999123100000010000000000000BRCESPACNOR3159
012013072902CESP6       010CESP        PNB     N1   R$  000000000207000000000020700000000002035000000000204400000000020400000000002040000000000204501372000000000000334500000000000683889600000000000000009999123100000010000000000000BRCESPACNPB4118
012013072996CESP6F      020CESP        PNB     N1   R$  000000000205000000000020610000000002039000000000204800000000020540000000002030000000000203500009000000000000000242000000000000495683000000000000009999123100000010000000000000BRCESPACNPB4118
012013072962CESP6T      030CESP        PNB     N1091R$  000000000208400000000020850000000002084000000000208400000000020850000000000000000000000000000002000000000000005000000000000010423378000000000000009999123100000010000000000000BRCESPACNPB4118
012013072902CGAS3       010COMGAS      ON           R$  000000000510000000000051000000000005100000000000510000000000051000000000004711000000000515000003000000000000002000000000000010200000000000000000009999123100000010000000000000BRCGASACNOR0132
012013072902CGAS5       010COMGAS      PNA          R$  000000000556900000000056150000000005515000000000557700000000056150000000005560000000000561500092000000000000027300000000000152255500000000000000009999123100000010000000000000BRCGASACNPA3129
012013072996CGAS5F      020COMGAS      PNA          R$  000000000554100000000055760000000005541000000000556900000000055600000000005530000000000557000003000000000000000057000000000000317477000000000000009999123100000010000000000000BRCGASACNPA3129
012013072902CGRA3       010GRAZZIOTIN  ON           R$  000000000142100000000014590000000001420000000000144500000000014300000000001426000000000144300020000000000000016600000000000024000900000000000000009999123100000010000000000000BRCGRAACNOR2061
012013072902CGRA4       010GRAZZIOTIN  PN           R$  000000000155500000000015990000000001555000000000158200000000015860000000001586000000000161000029000000000000010100000000000015987500000000000000009999123100000010000000000000BRCGRAACNPR9061
012013072996CGRA4F      020GRAZZIOTIN  PN           R$  000000000155900000000015590000000001550000000000155600000000015500000000001585000000000171500002000000000000000045000000000000070038000000000000009999123100000010000000000000BRCGRAACNPR9061
012013072902CIEL3       010CIELO       ON      NM   R$  000000000553100000000055680000000005451000000000548000000000054680000000005468000000000548503266000000000000827000000000004532101900000000000000009999123100000010000000000000BRCIELACNOR3111
012013072996CIEL3F      020CIELO       ON      NM   R$  000000000554000000000055510000000005460000000000549300000000054670000000005467000000000549500107000000000000002906000000000015963741000000000000009999123100000010000000000000BRCIELACNOR3111
012013072982CIELV54     080CIELE       ON      NM000R$  000000000016400000000001640000000000164000000000016400000000001640000000000000000000000000000001000000000000150000000000000024600000000000000540002013102100000010000000000000BRCIELACNOR3111
012013072902CIQU3       010CACIQUE     ON           R$  000000000065000000000006500000000000650000000000065000000000006500000000000601000000000000000001000000000000000100000000000000065000000000000000009999123100000010000000000000BRCIQUACNOR8157
012013072902CLSC4       010CELESC      PN      N2   R$  000000000193000000000019300000000001890000000000190300000000019000000000001900000000000190500184000000000000021700000000000041300700000000000000009999123100000010000000000000BRCLSCACNPR3107
012013072996CLSC4F      020CELESC      PN      N2   R$  000000000190000000000019050000000001864000000000189000000000018640000000001863000000000198500005000000000000000164000000000000309984000000000000009999123100000010000000000000BRCLSCACNPR3107
012013072902CMIG3       010CEMIG       ON      N1   R$  000000000220700000000022340000000002170000000000219300000000021700000000002168000000000218400460000000000000168000000000000368575200000000000000009999123100000010000000000000BRCMIGACNOR6208
012013072996CMIG3F      020CEMIG       ON      N1   R$  000000000224900000000022500000000002175000000000219200000000021840000000002175000000000218400032000000000000000795000000000001743001000000000000009999123100000010000000000000BRCMIGACNOR6208
012013072902CMIG4       010CEMIG       PN      N1   R$  000000000216500000000021950000000002132000000000217900000000021840000000002180000000000218504410000000000002187200000000004767235100000000000000009999123100000010000000000000BRCMIGACNPR3208
012013072996CMIG4F      020CEMIG       PN      N1   R$  000000000216100000000021940000000002126000000000217200000000021850000000002185000000000219400097000000000000002176000000000004729275000000000000009999123100000010000000000000BRCMIGACNPR3208
012013072962CMIG4T      030CEMIG       PN      N1030R$  000000000215800000000021590000000002158000000000215800000000021590000000000000000000000000000002000000000000001000000000000002158365000000000000009999123100000010000000000000BRCMIGACNPR3208
012013072978CMIGH23     070CMIG        PN      N1000R$  000000000001400000000000230000000000014000000000001900000000000230000000000000000000000002300006000000000000019000000000000000363000000000000230002013081900000010000000000000BRCMIGACNPR3208
012013072912CNES11B     010FII CENESP  CI  ER  MB   R$  000000001260000000000126500000000012600000000001261000000000126480000000012600000000001264800018000000000000000601000000000007579119000000000000009999123100000010000000000000BRCNESCTF001124
012013072902COCA11B     010COCA COLA   DRN     MB   R$  000000000913600000000091360000000009136000000000913600000000091360000000009053000000000940000002000000000000013800000000000126076800000000000000009999123100000010000000000000BRCOCABDR002108
012013072902COCE3       010COELCE      ON           R$  000000000425000000000042500000000004249000000000424900000000042490000000003600000000000424900016000000000000002400000000000010198800000000000000009999123100000010000000000000BRCOCEACNOR0132
012013072902COCE5       010COELCE      PNA          R$  000000000419300000000041930000000004100000000000414200000000041000000000004097000000000410000061000000000000038600000000000159898900000000000000009999123100000010000000000000BRCOCEACNPA3133
012013072996COCE5F      020COELCE      PNA          R$  000000000415300000000042000000000004130000000000416500000000041300000000004100000000000431800013000000000000000310000000000001291166000000000000009999123100000010000000000000BRCOCEACNPA3133
012013072902CPFE3       010CPFL ENERGIAON      NM   R$  000000000213700000000021750000000002123000000000215600000000021650000000002164000000000216902716000000000000639400000000001379003600000000000000009999123100000010000000000000BRCPFEACNOR0121
012013072996CPFE3F      020CPFL ENERGIAON      NM   R$  000000000214000000000022190000000002057000000000215700000000022160000000002130000000000221600034000000000000000815000000000001760039000000000000009999123100000010000000000000BRCPFEACNOR0121
012013072902CPLE3       010COPEL       ON      N1   R$  000000000219100000000022040000000002165000000000217900000000022040000000002170000000000220400047000000000000017800000000000038798900000000000000009999123100000010000000000000BRCPLEACNOR8128
012013072902CPLE6       010COPEL       PNB     N1   R$  000000000284700000000028640000000002793000000000282700000000028300000000002825000000000284000964000000000000227800000000000644156600000000000000009999123100000010000000000000BRCPLEACNPB9125
012013072996CPLE6F      020COPEL       PNB     N1   R$  000000000285500000000028600000000002807000000000282800000000028450000000002811000000000284500016000000000000000377000000000001066577000000000000009999123100000010000000000000BRCPLEACNPB9125
012013072902CPRE3       010CPFL RENOVAVON      NM   R$  000000000115000000000011850000000001150000000000117500000000011750000000001175000000000118500032000000000000023600000000000027740900000000000000009999123100000010000000000000BRCPREACNOR5100
012013072996CPRE3F      020CPFL RENOVAVON      NM   R$  000000000115000000000012090000000001140000000000116700000000012090000000001185000000000121000033000000000000001063000000000001240953000000000000009999123100000010000000000000BRCPREACNOR5100
012013072902CRDE3       010CR2         ON      NM   R$  000000000040500000000004050000000000405000000000040500000000004050000000000404000000000041000001000000000000000100000000000000040500000000000000009999123100000010000000000000BRCRDEACNOR1108
012013072902CREM3       010CREMER      ON      NM   R$  000000000143000000000014300000000001413000000000142900000000014270000000001427000000000144800021000000000000008500000000000012148400000000000000009999123100000010000000000000BRCREMACNOR2166
012013072902CRIV3       010ALFA FINANC ON           R$  000000000055800000000005580000000000558000000000055800000000005580000000000516000000000055900001000000000000004300000000000002399400000000000000009999123100000010000000000000BRCRIVACNOR4189
012013072902CRIV4       010ALFA FINANC PN           R$  000000000048600000000004860000000000471000000000047700000000004860000000000471000000000048600016000000000000005700000000000002724500000000000000009999123100000010000000000000BRCRIVACNPR1189
012013072996CRIV4F      020ALFA FINANC PN           R$  000000000048000000000004800000000000480000000000048000000000004800000000000480000000000049000001000000000000000001000000000000000480000000000000009999123100000010000000000000BRCRIVACNPR1189
012013072902CRUZ3       010SOUZA CRUZ  ON           R$  000000000282300000000028340000000002793000000000281600000000028150000000002813000000000281502009000000000000476700000000001342676700000000000000009999123100000010000000000000BRCRUZACNOR0246
012013072996CRUZ3F      020SOUZA CRUZ  ON           R$  000000000282200000000028440000000002790000000000281600000000028380000000002821000000000283700027000000000000000786000000000002213478000000000000009999123100000010000000000000BRCRUZACNOR0246
012013072962CRUZ3T      030SOUZA CRUZ  ON        030R$  000000000282800000000028370000000002828000000000283100000000028370000000000000000000000000000004000000000000002800000000000007928564000000000000009999123100000010000000000000BRCRUZACNOR0246
012013072978CRUZE82     070CRUZ        ON        000R$  000000000011800000000001180000000000118000000000011800000000001180000000000000000000000000000001000000000000002900000000000000342200000000000319902014051900000010000000000000BRCRUZACNOR0245
012013072902CSAN3       010COSAN       ON      NM   R$  000000000429500000000043100000000004251000000000428500000000043000000000004287000000000430003390000000000000798700000000003423112100000000000000009999123100000010000000000000BRCSANACNOR6107
012013072996CSAN3F      020COSAN       ON      NM   R$  000000000430300000000043160000000004203000000000428300000000042850000000004282000000000434000065000000000000001777000000000007614425000000000000009999123100000010000000000000BRCSANACNOR6107
012013072962CSAN3T      030COSAN       ON      NM016R$  000000000429700000000042980000000004297000000000429700000000042980000000000000000000000000000002000000000000001000000000000004297548000000000000009999123100000010000000000000BRCSANACNOR6107
012013072962CSAN3T      030COSAN       ON      NM030R$  000000000432000000000043210000000004320000000000432000000000043210000000000000000000000000000002000000000000001100000000000004752832000000000000009999123100000010000000000000BRCSANACNOR6107
012013072902CSMG3       010COPASA      ON      NM   R$  000000000361800000000036470000000003540000000000359600000000036300000000003570000000000363000845000000000000146100000000000525402900000000000000009999123100000010000000000000BRCSMGACNOR5127
012013072996CSMG3F      020COPASA      ON      NM   R$  000000000361600000000036160000000003550000000000357800000000035600000000003530000000000356700010000000000000000270000000000000966105000000000000009999123100000010000000000000BRCSMGACNOR5127
012013072914CSMO11      010ISHARES CSMOCI           R$  000000000456100000000045610000000004561000000000456100000000045610000000003800000000000461000001000000000000000800000000000003648800000000000000009999123100000010000000000000BRCSMOCTF002100
012013072902CSNA3       010SID NACIONALON           R$  000000000069500000000007430000000000687000000000071300000000007090000000000709000000000071118548000000000010647200000000007597532100000000000000009999123100000010000000000000BRCSNAACNOR6242
012013072996CSNA3F      020SID NACIONALON           R$  000000000070000000000007400000000000693000000000071000000000007020000000000702000000000071500129000000000000003960000000000002812685000000000000009999123100000010000000000000BRCSNAACNOR6242
012013072962CSNA3T      030SID NACIONALON        030R$  000000000074600000000007470000000000718000000000072600000000007220000000000000000000000000000006000000000000015000000000000010895069000000000000009999123100000010000000000000BRCSNAACNOR6242
012013072962CSNA3T      030SID NACIONALON        060R$  000000000073100000000007320000000000727000000000073100000000007280000000000000000000000000000004000000000000078000000000000057045324000000000000009999123100000010000000000000BRCSNAACNOR6242
012013072962CSNA3T      030SID NACIONALON        091R$  000000000072100000000007300000000000721000000000072400000000007290000000000000000000000000000006000000000000031500000000000022812604000000000000009999123100000010000000000000BRCSNAACNOR6242
012013072962CSNA3T      030SID NACIONALON        120R$  000000000073900000000007400000000000739000000000073900000000007400000000000000000000000000000002000000000000002000000000000001479925000000000000009999123100000010000000000000BRCSNAACNOR6242
012013072962CSNA3T      030SID NACIONALON        182R$  000000000074500000000007460000000000745000000000074500000000007460000000000000000000000000000002000000000000005000000000000003727207000000000000009999123100000010000000000000BRCSNAACNOR6242
012013072978CSNAH6      070CSNA        ON        000R$  000000000010000000000001390000000000094000000000011900000000001200000000000091000000000013000016000000000000013600000000000001618400000000000060002013081900000010000000000000BRCSNAACNOR6242
012013072978CSNAH62     070CSNA        ON        000R$  000000000010000000000001000000000000100000000000010000000000001000000000000000000000000000000001000000000000002900000000000000290000000000000062002013081900000010000000000000BRCSNAACNOR6242
012013072978CSNAH66     070CSNA  FM    ON        000R$  000000000005900000000000720000000000059000000000006800000000000600000000000000000000000000000005000000000000013200000000000000905800000000000066002013081900000010000000000000BRCSNAACNOR6242
012013072978CSNAH68     070CSNA  FM    ON        000R$  000000000006000000000000600000000000047000000000005400000000000550000000000000000000000000000004000000000000011500000000000000627000000000000068002013081900000010000000000000BRCSNAACNOR6242
012013072978CSNAH7      070CSNA  FM    ON        000R$  000000000003000000000000560000000000030000000000004300000000000440000000000035000000000004400049000000000000109700000000000004734600000000000070002013081900000010000000000000BRCSNAACNOR6242
012013072978CSNAH72     070CSNA  FM    ON        000R$  000000000003500000000000350000000000025000000000003000000000000300000000000010000000000000000005000000000000010400000000000000316500000000000072002013081900000010000000000000BRCSNAACNOR6242
012013072978CSNAH74     070CSNA  FM    ON        000R$  000000000002600000000000260000000000019000000000002100000000000220000000000000000000000000000006000000000000014500000000000000315500000000000074002013081900000010000000000000BRCSNAACNOR6242
012013072978CSNAH76     070CSNA        ON        000R$  000000000001300000000000180000000000013000000000001500000000000180000000000000000000000000000007000000000000027900000000000000438500000000000076002013081900000010000000000000BRCSNAACNOR6242
012013072978CSNAH78     070CSNA        ON        000R$  000000000001400000000000140000000000010000000000001200000000000110000000000000000000000001600013000000000000039200000000000000485200000000000078002013081900000010000000000000BRCSNAACNOR6242
012013072978CSNAH8      070CSNA        ON        000R$  000000000000900000000000100000000000009000000000000900000000000100000000000008000000000001400009000000000000018200000000000000174300000000000080002013081900000010000000000000BRCSNAACNOR6242
012013072978CSNAH84     070CSNA        ON        000R$  000000000000300000000000030000000000003000000000000300000000000030000000000000000000000000000001000000000000000300000000000000000900000000000084002013081900000010000000000000BRCSNAACNOR6242
012013072978CSNAH9      070CSNA        ON        000R$  000000000000300000000000030000000000002000000000000200000000000020000000000000000000000000300002000000000000002000000000000000005000000000000086702013081900000010000000000000BRCSNAACNOR6241
012013072978CSNAI64     070CSNA        ON        000R$  000000000009300000000000930000000000093000000000009300000000000930000000000000000000000000000001000000000000002900000000000000269700000000000064002013091600000010000000000000BRCSNAACNOR6242
012013072978CSNAI66     070CSNA  FM    ON        000R$  000000000010300000000001030000000000071000000000008600000000000710000000000000000000000000000013000000000000036000000000000003131000000000000066002013091600000010000000000000BRCSNAACNOR6242
012013072978CSNAI68     070CSNA  FM    ON        000R$  000000000008900000000000890000000000069000000000007600000000000700000000000000000000000000000011000000000000027400000000000002098600000000000068002013091600000010000000000000BRCSNAACNOR6242
012013072978CSNAI7      070CSNA  FM    ON        000R$  000000000007600000000000760000000000054000000000006000000000000550000000000000000000000000000034000000000000074000000000000004463300000000000070002013091600000010000000000000BRCSNAACNOR6242
012013072978CSNAI72     070CSNA  FM    ON        000R$  000000000005300000000000530000000000039000000000004800000000000390000000000048000000000000000009000000000000025900000000000001265200000000000072002013091600000010000000000000BRCSNAACNOR6242
012013072978CSNAI74     070CSNA  FM    ON        000R$  000000000004400000000000440000000000032000000000003800000000000320000000000004000000000000000009000000000000025000000000000000966000000000000074002013091600000010000000000000BRCSNAACNOR6242
012013072978CSNAI8      070CSNA        ON        000R$  000000000002200000000000220000000000019000000000002100000000000200000000000009000000000002800007000000000000022000000000000000474000000000000080002013091600000010000000000000BRCSNAACNOR6242
012013072978CSNAJ6      070CSNA        ON        000R$  000000000013500000000001350000000000135000000000013500000000001350000000000000000000000000000002000000000000000600000000000000081000000000000060002013102100000010000000000000BRCSNAACNOR6242
012013072978CSNAJ7      070CSNA        ON        000R$  000000000006100000000000610000000000061000000000006100000000000610000000000000000000000000000001000000000000000500000000000000030500000000000070002013102100000010000000000000BRCSNAACNOR6242
012013072978CSNAJ8      070CSNA        ON        000R$  000000000003000000000000300000000000030000000000003000000000000300000000000000000000000000000001000000000000002500000000000000075000000000000080002013102100000010000000000000BRCSNAACNOR6242
012013072978CSNAL9      070CSNA        ON        000R$  000000000002400000000000240000000000024000000000002400000000000240000000000023000000000000000001000000000000500000000000000012000000000000000086702013121600000010000000000000BRCSNAACNOR6241
012013072982CSNAT6      080CSNAE       ON        000R$  000000000000500000000000050000000000005000000000000500000000000050000000000000000000000000000001000000000000000500000000000000002500000000000060002013081900000010000000000000BRCSNAACNOR6242
012013072982CSNAT65     080CSNAE       ON        000R$  000000000001100000000000110000000000011000000000001100000000000110000000000000000000000000000007000000000000050000000000000000550000000000000065002013081900000010000000000000BRCSNAACNOR6242
012013072982CSNAT66     080CSNAE FM    ON        000R$  000000000001100000000000110000000000011000000000001100000000000110000000000014000000000000000001000000000000002000000000000000022000000000000066002013081900000010000000000000BRCSNAACNOR6242
012013072982CSNAT68     080CSNAE FM    ON        000R$  000000000002000000000000230000000000020000000000002100000000000230000000000000000000000000000002000000000000004000000000000000086000000000000068002013081900000010000000000000BRCSNAACNOR6242
012013072982CSNAT7      080CSNAE FM    ON        000R$  000000000001800000000000260000000000018000000000002000000000000220000000000000000000000002700011000000000000026000000000000000545500000000000070002013081900000010000000000000BRCSNAACNOR6242
012013072982CSNAT72     080CSNAE FM    ON        000R$  000000000003000000000000420000000000030000000000003600000000000340000000000000000000000005000009000000000000013200000000000000476800000000000072002013081900000010000000000000BRCSNAACNOR6242
012013072982CSNAU66     080CSNAE FM    ON        000R$  000000000002300000000000280000000000023000000000002600000000000280000000000000000000000000000004000000000000010400000000000000273700000000000066002013091600000010000000000000BRCSNAACNOR6242
012013072982CSNAU68     080CSNAE FM    ON        000R$  000000000003100000000000310000000000031000000000003100000000000310000000000000000000000000000001000000000000003500000000000000108500000000000068002013091600000010000000000000BRCSNAACNOR6242
012013072982CSNAU7      080CSNAE FM    ON        000R$  000000000004200000000000460000000000031000000000003800000000000370000000000036000000000004700047000000000000024800000000000000960500000000000070002013091600000010000000000000BRCSNAACNOR6242
012013072982CSNAU72     080CSNAE FM    ON        000R$  000000000004500000000000550000000000045000000000004700000000000550000000000000000000000000000011000000000000026900000000000001285200000000000072002013091600000010000000000000BRCSNAACNOR6242
012013072982CSNAW65     080CSNAE       ON        000R$  000000000003000000000000300000000000030000000000003000000000000300000000000000000000000000000001000000000000002000000000000000060000000000000065002013111800000010000000000000BRCSNAACNOR6242
012013072982CSNAX64     080CSNAE       ON        000R$  000000000003300000000000330000000000033000000000003300000000000330000000000033000000000000000003000000000000505000000000000016665000000000000064002013121600000010000000000000BRCSNAACNOR6242
012013072902CTAX11      010CONTAX      UNT     N2   R$  000000000175000000000017500000000001656000000000167300000000017000000000001679000000000170000061000000000000073100000000000122368000000000000000009999123100000010000000000000BRCTAXCDAM19100
012013072902CTAX3       010CONTAX      ON      N2   R$  000000000038000000000003800000000000360000000000037100000000003650000000000365000000000045000012000000000000002800000000000001039000000000000000009999123100000010000000000000BRCTAXACNOR3113
012013072996CTAX3F      020CONTAX      ON      N2   R$  000000000040500000000004050000000000405000000000040500000000004050000000000360000000000040500001000000000000000045000000000000018225000000000000009999123100000010000000000000BRCTAXACNOR3113
012013072902CTAX4       010CONTAX      PN      N2   R$  000000000033100000000003440000000000331000000000033300000000003340000000000331000000000033400086000000000000084700000000000028263500000000000000009999123100000010000000000000BRCTAXACNPR0114
012013072902CTIP3       010CETIP       ON      NM   R$  000000000236300000000023780000000002303000000000232400000000023300000000002316000000000233003467000000000000899800000000002091877300000000000000009999123100000010000000000000BRCTIPACNOR2119
012013072996CTIP3F      020CETIP       ON      NM   R$  000000000236300000000023900000000002282000000000232700000000022890000000002289000000000232000031000000000000000910000000000002117941000000000000009999123100000010000000000000BRCTIPACNOR2119
012013072902CTNM4       010COTEMINAS   PN           R$  000000000023400000000002390000000000233000000000023300000000002350000000000235000000000023800167000000000000093300000000000021791900000000000000009999123100000010000000000000BRCTNMACNPR6128
012013072902CYRE3       010CYRELA REALTON      NM   R$  000000000166400000000016880000000001650000000000166700000000016760000000001676000000000167903658000000000001115200000000001859531900000000000000009999123100000010000000000000BRCYREACNOR7125
012013072996CYRE3F      020CYRELA REALTON      NM   R$  000000000166900000000016870000000001650000000000166000000000016600000000001651000000000168700023000000000000000606000000000001006313000000000000009999123100000010000000000000BRCYREACNOR7125
012013072978CYREH16     070CYRE  FM    ON      NM000R$  000000000008900000000000890000000000087000000000008800000000000870000000000000000000000000000002000000000000004500000000000000398500000000000160002013081900000010000000000000BRCYREACNOR7125
012013072978CYREH18     070CYRE  FM    ON      NM000R$  000000000001000000000000100000000000010000000000001000000000000100000000000000000000000000000001000000000000000200000000000000002000000000000180002013081900000010000000000000BRCYREACNOR7125
012013072978CYREH19     070CYRE        ON      NM000R$  000000000000300000000000030000000000003000000000000300000000000030000000000000000000000000000001000000000000000500000000000000001500000000000190002013081900000010000000000000BRCYREACNOR7125
012013072978CYREH46     070CYRE  FM    ON      NM000R$  000000000005800000000000630000000000057000000000005800000000000630000000000000000000000000000003000000000000009400000000000000553700000000000165002013081900000010000000000000BRCYREACNOR7125
012013072978CYREI18     070CYRE  FM    ON      NM000R$  000000000003400000000000340000000000034000000000003400000000000340000000000000000000000000000001000000000000001000000000000000034000000000000180002013091600000010000000000000BRCYREACNOR7125
012013072978CYREI46     070CYRE  FM    ON      NM000R$  000000000008300000000000830000000000083000000000008300000000000830000000000000000000000000000001000000000000003000000000000000249000000000000165002013091600000010000000000000BRCYREACNOR7125
012013072982CYRET16     080CYREE FM    ON      NM000R$  000000000002600000000000260000000000019000000000002300000000000190000000000000000000000002800006000000000000024000000000000000572500000000000160002013081900000010000000000000BRCYREACNOR7125
012013072982CYRET17     080CYREE FM    ON      NM000R$  000000000006900000000000690000000000069000000000006900000000000690000000000000000000000000000002000000000000004000000000000000276000000000000170002013081900000010000000000000BRCYREACNOR7125
012013072982CYRET47     080CYREE FM    ON      NM000R$  000000000010600000000001080000000000106000000000010600000000001080000000000000000000000000000004000000000000013200000000000001406200000000000175002013081900000010000000000000BRCYREACNOR7125
012013072982CYREU46     080CYREE FM    ON      NM000R$  000000000006300000000000630000000000063000000000006300000000000630000000000000000000000000000001000000000000003000000000000000189000000000000165002013091600000010000000000000BRCYREACNOR7125
012013072982CYREU47     080CYREE FM    ON      NM000R$  000000000010500000000001080000000000100000000000010400000000001000000000000000000000000000000003000000000000010500000000000001095500000000000175002013091600000010000000000000BRCYREACNOR7125
012013072902CZLT11      010COSAN LTD   DR3          R$  000000000361000000000036420000000003590000000000360800000000036000000000003600000000000361600285000000000000090900000000000328030300000000000000009999123100000010000000000000BRCZLTBDR009104
012013072996CZLT11F     020COSAN LTD   DR3          R$  000000000321000000000037990000000003210000000000378900000000037990000000003200000000000379900005000000000000000062000000000000234949000000000000009999123100000010000000000000BRCZLTBDR009104
012013072902DAGB11      010DUFRY AG    DR3          R$  000000003035300000000305890000000030101000000003028100000000303010000000030301000000003049900212000000000000008067000000000244277079000000000000009999123100000010000000000000BRDAGBBDR008100
012013072902DASA3       010DASA        ON      NM   R$  000000000120700000000012280000000001192000000000121200000000012210000000001219000000000122103687000000000000791300000000000959378200000000000000009999123100000010000000000000BRDASAACNOR1108
012013072996DASA3F      020DASA        ON      NM   R$  000000000120700000000012940000000001198000000000121000000000012940000000001195000000000129000008000000000000000377000000000000456512000000000000009999123100000010000000000000BRDASAACNOR1108
012013072978DASAH49     070DASAE       ON      NM000R$  000000000005700000000000590000000000057000000000005800000000000590000000000000000000000000000003000000000000107500000000000006259500000000000117502013081900000010000000000000BRDASAACNOR1108
012013072902DAYC4       010DAYCOVAL    PN      N2   R$  000000000088400000000008840000000000854000000000086000000000008540000000000854000000000086700089000000000000034000000000000029255000000000000000009999123100000010000000000000BRDAYCACNPR2128
012013072996DAYC4F      020DAYCOVAL    PN      N2   R$  000000000090000000000009000000000000860000000000087000000000008600000000000826000000000097200004000000000000000146000000000000127080000000000000009999123100000010000000000000BRDAYCACNPR2128
012013072902DIRR3       010DIRECIONAL  ON      NM   R$  000000000127800000000013150000000001278000000000129800000000013000000000001295000000000130301573000000000000503100000000000653273900000000000000009999123100000010000000000000BRDIRRACNOR0104
012013072996DIRR3F      020DIRECIONAL  ON      NM   R$  000000000129100000000013040000000001290000000000129400000000012900000000001280000000000129000007000000000000000228000000000000295134000000000000009999123100000010000000000000BRDIRRACNOR0104
012013072978DIRRH42     070DIRR        ON      NM000R$  000000000007700000000000770000000000077000000000007700000000000770000000000000000000000000000001000000000000038500000000000002964500000000000125002013081900000010000000000000BRDIRRACNOR0104
012013072914DIVO11      010IT NOW IDIV CI           R$  000000000317100000000032090000000003171000000000320200000000031960000000003193000000000319700018000000000000015430000000000049407970000000000000009999123100000010000000000000BRDIVOCTF002100
012013072996DIVO11F     020IT NOW IDIV CI           R$  000000000300000000000030000000000003000000000000300000000000030000000000000000000000000300000001000000000000000002000000000000006000000000000000009999123100000010000000000000BRDIVOCTF002100
012013072902DTEX3       010DURATEX     ON  EJ  NM   R$  000000000135500000000013600000000001321000000000133300000000013300000000001328000000000133004002000000000001291900000000001722726600000000000000009999123100000010000000000000BRDTEXACNOR3115
012013072996DTEX3F      020DURATEX     ON  EJ  NM   R$  000000000135500000000013550000000001322000000000133400000000013510000000001321000000000133500029000000000000000884000000000001179842000000000000009999123100000010000000000000BRDTEXACNOR3115
012013072962DTEX3T      030DURATEX     ON  EJ  NM016R$  000000000133500000000013380000000001335000000000133500000000013380000000000000000000000000000004000000000000007000000000000009351747000000000000009999123100000010000000000000BRDTEXACNOR3115
012013072962DTEX3T      030DURATEX     ON  EJ  NM030R$  000000000135800000000013590000000001334000000000135300000000013350000000000000000000000000000004000000000000005000000000000006768189000000000000009999123100000010000000000000BRDTEXACNOR3115
012013072962DTEX3T      030DURATEX     ON  EJ  NM360R$  000000000145300000000014540000000001453000000000145300000000014540000000000000000000000000000002000000000000000500000000000000726856000000000000009999123100000010000000000000BRDTEXACNOR3115
012013072902EALT4       010ACO ALTONA  PN           R$  000000000220000000000022800000000002200000000000221300000000022800000000002150000000000230900016000000000000003600000000000007970100000000000000009999123100000010000000000000BREALTACNPR1123
012013072996EBTP3F      020EMBRATEL PARON *         R$  000000000085100000000008510000000000851000000000085100000000008510000000000851000000000095000003000000000000037283000000000000031726000000000000009999123100010000000000000000BREBTPACNOR3115
012013072996EBTP4F      020EMBRATEL PARPN *         R$  000000000091300000000009130000000000913000000000091300000000009130000000000913000000000100000002000000000000005548000000000000005065000000000000009999123100010000000000000000BREBTPACNPR0120
012013072914ECOO11      010ISHARES ECOOCI           R$  000000000516000000000051690000000005144000000000515000000000051690000000005100000000000520000018000000000000007190000000000037030540000000000000009999123100000010000000000000BRECOOCTF008100
012013072996ECOO11F     020ISHARES ECOOCI           R$  000000000505000000000050500000000004958000000000499400000000049580000000005050000000000547000002000000000000000005000000000000024974000000000000009999123100000010000000000000BRECOOCTF008100
012013072902ECOR3       010ECORODOVIAS ON      NM   R$  000000000159300000000016150000000001574000000000160100000000016060000000001605000000000160903517000000000001122400000000001796988500000000000000009999123100000010000000000000BRECORACNOR8106
