00COTAHIST.2013BOVESPA 20131009                                                                                                                                                                                                                      
012013100902ABCB4       010ABC BRASIL  PN      N2   R$  000000000130600000000013410000000001290000000000130800000000013410000000001341000000000134401006000000000000733900000000000960656900000000000000009999123100000010000000000000BRABCBACNPR4120
012013100996ABCB4F      020ABC BRASIL  PN      N2   R$  000000000129800000000013400000000001298000000000131200000000013400000000001322000000000134000021000000000000000587000000000000770434000000000000009999123100000010000000000000BRABCBACNPR4120
012013100962ABCB4T      030ABC BRASIL  PN      N2016R$  000000000130300000000013190000000001303000000000131400000000013190000000000000000000000000000004000000000000202700000000000266431959000000000000009999123100000010000000000000BRABCBACNPR4120
012013100962ABCB4T      030ABC BRASIL  PN      N2030R$  000000000132200000000013230000000001322000000000132200000000013230000000000000000000000000000002000000000000140000000000000185204544000000000000009999123100000010000000000000BRABCBACNPR4120
012013100962ABCB4T      030ABC BRASIL  PN      N2047R$  000000000131300000000013140000000001313000000000131300000000013140000000000000000000000000000002000000000000055300000000000072640753000000000000009999123100000010000000000000BRABCBACNPR4120
012013100902ABRE11      010ABRIL EDUCA UNT     N2   R$  000000000325000000000032950000000003181000000000325700000000032900000000003276000000000329000750000000000000188200000000000613012800000000000000009999123100000010000000000000BRABRECDAM15102
012013100996ABRE11F     020ABRIL EDUCA UNT     N2   R$  000000000325000000000032700000000003250000000000325100000000032700000000003171000000000329900002000000000000000070000000000000227620000000000000009999123100000010000000000000BRABRECDAM15102
012013100902AEDU3       010ANHANGUERA  ON      NM   R$  000000000131000000000013400000000001296000000000131800000000013400000000001331000000000134006889000000000002940600000000003877508700000000000000009999123100000010000000000000BRAEDUACNOR9107
012013100996AEDU3F      020ANHANGUERA  ON      NM   R$  000000000131000000000013300000000001281000000000131200000000013250000000001301000000000133400024000000000000000743000000000000974344000000000000009999123100000010000000000000BRAEDUACNOR9107
012013100912AEFI11      010FII AESAPAR CI  ER       R$  000000001205000000000120500000000011999000000001201300000000120500000000012000000000001205000029000000000000001634000000000019629610000000000000009999123100000010000000000000BRAEFICTF002122
012013100902AELP3       010AES ELPA    ON           R$  000000000091100000000009250000000000911000000000091200000000009130000000000913000000000091500006000000000000001200000000000001095000000000000000009999123100000010000000000000BRAELPACNOR2119
012013100912AGCX11      010FII AG CAIXACI  ER       R$  000000009499500000000949950000000094995000000009499500000000949950000000094501000000009499500001000000000000000001000000000000094995000000000000009999123100000010000000000000BRAGCXCTF003111
012013100902AGRO3       010BRASILAGRO  ON      NM   R$  000000000099500000000010010000000000990000000000099700000000009960000000000990000000000099700025000000000000044300000000000044204300000000000000009999123100000010000000000000BRAGROACNOR7102
012013100996AGRO3F      020BRASILAGRO  ON      NM   R$  000000000099600000000009960000000000996000000000099600000000009960000000000998000000000105000001000000000000000011000000000000010956000000000000009999123100000010000000000000BRAGROACNOR7102
012013100962AGRO3T      030BRASILAGRO  ON      NM030R$  000000000100300000000010040000000001003000000000100300000000010040000000000000000000000000000002000000000000014900000000000014951703000000000000009999123100000010000000000000BRAGROACNOR7102
012013100962AGRO3T      030BRASILAGRO  ON      NM061R$  000000000101500000000010160000000001015000000000101500000000010160000000000000000000000000000002000000000000020000000000000020304000000000000000009999123100000010000000000000BRAGROACNOR7102
012013100962AGRO3T      030BRASILAGRO  ON      NM362R$  000000000109800000000010990000000001098000000000109800000000010990000000000000000000000000000002000000000000000200000000000000219674000000000000009999123100000010000000000000BRAGROACNOR7102
012013100902AHEB5       010SPTURIS     PNA          R$  000000000199900000000019990000000001999000000000199900000000019990000000000000000000000400000002000000000000000200000000000000399800000000000000009999123100000010000000000000BRAHEBACNPA3102
012013100902ALLL3       010ALL AMER LATON      NM   R$  000000000090000000000009050000000000890000000000089800000000008990000000000896000000000089904922000000000001519000000000001364856600000000000000009999123100000010000000000000BRALLLACNOR6118
012013100996ALLL3F      020ALL AMER LATON      NM   R$  000000000090000000000009040000000000881000000000089800000000009040000000000894000000000090400024000000000000000689000000000000619499000000000000009999123100000010000000000000BRALLLACNOR6118
012013100962ALLL3T      030ALL AMER LATON      NM061R$  000000000091400000000009150000000000914000000000091400000000009150000000000000000000000000000002000000000000000300000000000000274266000000000000009999123100000010000000000000BRALLLACNOR6118
012013100912ALMI11B     010FII TORRE ALCI  ER  MB   R$  000000031500000000003155000000000315000000000031515900000003155000000000315500000000031800000004000000000000000022000000000006933500000000000000009999123100000010000000000000BRALMICTF003206
012013100902ALPA3       010ALPARGATAS  ON      N1   R$  000000000126000000000012800000000001260000000000127000000000012800000000001252000000000129600002000000000000000200000000000000254000000000000000009999123100000010000000000000BRALPAACNOR0203
012013100996ALPA3F      020ALPARGATAS  ON      N1   R$  000000000123600000000012450000000001236000000000123700000000012450000000001245000000000129200007000000000000000110000000000000136113000000000000009999123100000010000000000000BRALPAACNOR0203
012013100962ALPA3T      030ALPARGATAS  ON      N1061R$  000000000129700000000012980000000001297000000000129700000000012980000000000000000000000000000002000000000000000100000000000000129779000000000000009999123100000010000000000000BRALPAACNOR0203
012013100902ALPA4       010ALPARGATAS  PN      N1   R$  000000000144100000000014690000000001441000000000145500000000014570000000001453000000000145700617000000000000337900000000000491950800000000000000009999123100000010000000000000BRALPAACNPR7203
012013100996ALPA4F      020ALPARGATAS  PN      N1   R$  000000000144900000000014690000000001449000000000145700000000014690000000001460000000000147600009000000000000000225000000000000327839000000000000009999123100000010000000000000BRALPAACNPR7203
012013100902ALSC3       010ALIANSCE    ON      NM   R$  000000000204900000000021090000000002040000000000208600000000020960000000002096000000000209901337000000000000405400000000000845709900000000000000009999123100000010000000000000BRALSCACNOR0104
012013100996ALSC3F      020ALIANSCE    ON      NM   R$  000000000205000000000021140000000002050000000000209000000000021140000000002050000000000206500004000000000000000108000000000000225743000000000000009999123100000010000000000000BRALSCACNOR0104
012013100902ALUP11      010ALUPAR      UNT     N2   R$  000000000172200000000017400000000001720000000000172500000000017230000000001723000000000173200124000000000000303100000000000522934200000000000000009999123100000010000000000000BRALUPCDAM15100
012013100996ALUP11F     020ALUPAR      UNT     N2   R$  000000000172800000000017490000000001725000000000173200000000017250000000001716000000000174500013000000000000000357000000000000618326000000000000009999123100000010000000000000BRALUPCDAM15100
012013100902AMAR3       010LOJAS MARISAON      NM   R$  000000000199800000000020360000000001993000000000201000000000020000000000002000000000000200502456000000000000528900000000001063135800000000000000009999123100000010000000000000BRAMARACNOR4109
012013100996AMAR3F      020LOJAS MARISAON      NM   R$  000000000200000000000020230000000002000000000000201200000000020230000000002017000000000209900004000000000000000161000000000000323963000000000000009999123100000010000000000000BRAMARACNOR4109
012013100962AMAR3T      030LOJAS MARISAON      NM016R$  000000000203600000000020370000000002036000000000203600000000020370000000000000000000000000000002000000000000005000000000000010184661000000000000009999123100000010000000000000BRAMARACNOR4109
012013100962AMAR3T      030LOJAS MARISAON      NM030R$  000000000204700000000020480000000002045000000000204600000000020460000000000000000000000000000010000000000000008500000000000017395697000000000000009999123100000010000000000000BRAMARACNOR4109
012013100962AMAR3T      030LOJAS MARISAON      NM061R$  000000000204500000000020460000000002045000000000204500000000020460000000000000000000000000000002000000000000000500000000000001022821000000000000009999123100000010000000000000BRAMARACNOR4109
012013100962AMAR3T      030LOJAS MARISAON      NM120R$  000000000206900000000020700000000002060000000000206600000000020610000000000000000000000000000004000000000000030400000000000062819136000000000000009999123100000010000000000000BRAMARACNOR4109
012013100902AMBV3       010AMBEV       ON           R$  000000000836400000000084020000000008302000000000833100000000083460000000008331000000000834601469000000000000224500000000001870385800000000000000009999123100000010000000000000BRAMBVACNOR4154
012013100996AMBV3F      020AMBEV       ON           R$  000000000834000000000083790000000008305000000000832600000000083390000000008324000000000839800043000000000000000749000000000006236635000000000000009999123100000010000000000000BRAMBVACNOR4154
012013100962AMBV3T      030AMBEV       ON        016R$  000000000837300000000083740000000008373000000000837300000000083740000000000000000000000000000002000000000000010000000000000083736828000000000000009999123100000010000000000000BRAMBVACNOR4154
012013100902AMBV4       010AMBEV       PN           R$  000000000838700000000083900000000008294000000000833000000000083710000000008344000000000837106179000000000001225900000000010212934000000000000000009999123100000010000000000000BRAMBVACNPR1154
012013100996AMBV4F      020AMBEV       PN           R$  000000000839000000000084000000000008297000000000833400000000083450000000008336000000000838000175000000000000004479000000000037331564000000000000009999123100000010000000000000BRAMBVACNPR1154
012013100962AMBV4T      030AMBEV       PN        030R$  000000000839000000000083940000000008362000000000837500000000083680000000000000000000000000000022000000000000002370000000000019850747000000000000009999123100000010000000000000BRAMBVACNPR1154
012013100962AMBV4T      030AMBEV       PN        047R$  000000000838500000000083860000000008385000000000838500000000083860000000000000000000000000000002000000000000001000000000000008385415000000000000009999123100000010000000000000BRAMBVACNPR1154
012013100962AMBV4T      030AMBEV       PN        061R$  000000000841600000000084300000000008416000000000841700000000084300000000000000000000000000000004000000000000001000000000000008417482000000000000009999123100000010000000000000BRAMBVACNPR1154
012013100962AMBV4T      030AMBEV       PN        180R$  000000000875000000000087510000000008750000000000875000000000087510000000000000000000000000000002000000000000000100000000000000875099000000000000009999123100000010000000000000BRAMBVACNPR1154
012013100978AMBVL81     070AMBV        PN        000R$  000000000046800000000004680000000000468000000000046800000000004680000000000000000000000000000001000000000000006000000000000002808000000000000810002013121600000010000000000000BRAMBVACNPR1154
012013100982AMBVW79     080AMBVE       PN        000R$  000000000004500000000000450000000000045000000000004500000000000450000000000000000000000000000002000000000000003000000000000000135000000000000790002013111800000010000000000000BRAMBVACNPR1154
012013100902ARTR3       010ARTERIS     ON      NM   R$  000000000194200000000019850000000001928000000000196700000000019850000000001940000000000198501507000000000000282900000000000556596900000000000000009999123100000010000000000000BRARTRACNOR3101
012013100996ARTR3F      020ARTERIS     ON      NM   R$  000000000195500000000019790000000001911000000000196300000000019310000000001931000000000194400055000000000000001432000000000002810861000000000000009999123100000010000000000000BRARTRACNOR3101
012013100902ARZZ3       010AREZZO CO   ON      NM   R$  000000000371800000000037300000000003662000000000368500000000036820000000003675000000000369400950000000000000226300000000000833962900000000000000009999123100000010000000000000BRARZZACNOR3109
012013100996ARZZ3F      020AREZZO CO   ON      NM   R$  000000000370200000000037990000000003680000000000369300000000037990000000003611000000000380000012000000000000000206000000000000760820000000000000009999123100000010000000000000BRARZZACNOR3109
012013100902AUTM3       010AUTOMETAL   ON      NM   R$  000000000186500000000018650000000001813000000000184300000000018540000000001844000000000185400269000000000000046800000000000086265800000000000000009999123100000010000000000000BRAUTMACNOR8109
012013100996AUTM3F      020AUTOMETAL   ON      NM   R$  000000000184200000000018680000000001842000000000184400000000018680000000001700000000000186800003000000000000000065000000000000119860000000000000009999123100000010000000000000BRAUTMACNOR8109
012013100902AZEV4       010AZEVEDO     PN           R$  000000000012500000000001400000000000117000000000012300000000001170000000000117000000000012400009000000000000002000000000000000246700000000000000009999123100000010000000000000BRAZEVACNPR7113
012013100902BAZA3       010AMAZONIA    ON           R$  000000000003200000000000330000000000032000000000003200000000000320000000000032000000000003300018000000000000257000000000000008250000000000000000009999123100000010000000000000BRBAZAACNOR0163
012013100902BBAS3       010BRASIL      ON      NM   R$  000000000261400000000026680000000002604000000000263400000000026480000000002647000000000264916875000000000005992500000000015789891100000000000000009999123100000010000000000000BRBBASACNOR3239
012013100996BBAS3F      020BRASIL      ON      NM   R$  000000000260500000000026660000000002605000000000263300000000026540000000002634000000000265400236000000000000007137000000000018794722000000000000009999123100000010000000000000BRBBASACNOR3239
012013100962BBAS3T      030BRASIL      ON      NM016R$  000000000267600000000026770000000002676000000000267600000000026770000000000000000000000000000002000000000000010000000000000026767260000000000000009999123100000010000000000000BRBBASACNOR3239
012013100962BBAS3T      030BRASIL      ON      NM061R$  000000000268200000000026830000000002682000000000268200000000026830000000000000000000000000000002000000000000004300000000000011535004000000000000009999123100000010000000000000BRBBASACNOR3239
012013100962BBAS3T      030BRASIL      ON      NM090R$  000000000268400000000026850000000002684000000000268400000000026850000000000000000000000000000002000000000000002000000000000005369871000000000000009999123100000010000000000000BRBBASACNOR3239
012013100962BBAS3T      030BRASIL      ON      NM120R$  000000000270900000000027100000000002709000000000270900000000027100000000000000000000000000000002000000000000001000000000000002709571000000000000009999123100000010000000000000BRBBASACNOR3239
012013100978BBASA26     070BBAS        ON      NM000R$  000000000024800000000002480000000000234000000000023700000000002340000000000000000000000000000060000000000000030000000000000007117400000000000249502014012000000010000000000000BRBBASACNOR3237
012013100978BBASA27     070BBAS        ON      NM000R$  000000000018000000000001800000000000180000000000018000000000001800000000000000000000000000000002000000000000002000000000000000360000000000000259502014012000000010000000000000BRBBASACNOR3237
012013100978BBASJ22     070BBAS        ON      NM000R$  000000000053000000000005300000000000530000000000053000000000005300000000000000000000000000000001000000000000000500000000000000265000000000000209502013102100000010000000000000BRBBASACNOR3237
012013100978BBASJ23     070BBAS        ON      NM000R$  000000000047000000000004700000000000470000000000047000000000004700000000000400000000000000000001000000000000002200000000000001034000000000000216102013102100000010000000000000BRBBASACNOR3235
012013100978BBASJ24     070BBAS        ON      NM000R$  000000000035000000000004100000000000350000000000038400000000003930000000000393000000000000000009000000000000001500000000000000576700000000000227102013102100000010000000000000BRBBASACNOR3236
012013100978BBASJ25     070BBAS        ON      NM000R$  000000000023300000000002710000000000220000000000024500000000002700000000000231000000000000000020000000000000070000000000000017170800000000000239502013102100000010000000000000BRBBASACNOR3237
012013100978BBASJ26     070BBAS  FM    ON      NM000R$  000000000016500000000002120000000000160000000000018400000000001990000000000191000000000020600378000000000000264400000000000048650600000000000246102013102100000010000000000000BRBBASACNOR3235
012013100978BBASJ27     070BBAS  FM    ON      NM000R$  000000000008300000000001200000000000075000000000009400000000001080000000000060000000000011900587000000000000270800000000000025636200000000000256102013102100000010000000000000BRBBASACNOR3235
012013100978BBASJ28     070BBAS  FM    ON      NM000R$  000000000001500000000000280000000000013000000000002100000000000250000000000021000000000002600245000000000000229200000000000004885800000000000269502013102100000010000000000000BRBBASACNOR3237
012013100978BBASJ29     070BBAS  FM    ON      NM000R$  000000000000600000000000100000000000004000000000000800000000000100000000000008000000000001000156000000000000161700000000000001304500000000000276102013102100000010000000000000BRBBASACNOR3235
012013100978BBASJ30     070BBAS  FM    ON      NM000R$  000000000000200000000000020000000000001000000000000100000000000010000000000001000000000000300009000000000000011400000000000000016500000000000286102013102100000010000000000000BRBBASACNOR3235
012013100978BBASJ55     070BBAS        ON      NM000R$  000000000004800000000000640000000000047000000000005000000000000480000000000000000000000000000010000000000000063000000000000003200000000000000260002013102100000010000000000000BRBBASACNOR3239
012013100978BBASJ56     070BBAS        ON      NM000R$  000000000012100000000001630000000000115000000000013500000000001510000000000010000000000000000087000000000000013000000000000001757100000000000251102013102100000010000000000000BRBBASACNOR3235
012013100978BBASK24     070BBAS        ON      NM000R$  000000000043200000000004320000000000390000000000041200000000003900000000000000000000000000000008000000000000001000000000000000412000000000000229502013111800000010000000000000BRBBASACNOR3237
012013100978BBASK25     070BBAS        ON      NM000R$  000000000030000000000003000000000000300000000000030000000000003000000000000295000000000000000002000000000000002800000000000000840000000000000237102013111800000010000000000000BRBBASACNOR3236
012013100978BBASK26     070BBAS  FM    ON      NM000R$  000000000019400000000002340000000000189000000000021100000000002240000000000100000000000000000159000000000000113800000000000024083300000000000247102013111800000010000000000000BRBBASACNOR3236
012013100978BBASK27     070BBAS  FM    ON      NM000R$  000000000013600000000001550000000000117000000000013500000000001460000000000045000000000000000128000000000000087900000000000011882300000000000257102013111800000010000000000000BRBBASACNOR3236
012013100978BBASK28     070BBAS  FM    ON      NM000R$  000000000005000000000000890000000000050000000000007100000000000800000000000076000000000008900119000000000000102400000000000007365700000000000267102013111800000010000000000000BRBBASACNOR3236
012013100978BBASK29     070BBAS  FM    ON      NM000R$  000000000002300000000000370000000000023000000000002800000000000330000000000023000000000003800028000000000000043600000000000001246900000000000279502013111800000010000000000000BRBBASACNOR3237
012013100978BBASK30     070BBAS  FM    ON      NM000R$  000000000001500000000000160000000000015000000000001500000000000160000000000010000000000002000004000000000000003200000000000000048600000000000289502013111800000010000000000000BRBBASACNOR3237
012013100978BBASK31     070BBAS        ON      NM000R$  000000000000500000000000050000000000005000000000000500000000000050000000000005000000000000000001000000000000002400000000000000012000000000000299502013111800000010000000000000BRBBASACNOR3237
012013100978BBASK32     070BBAS        ON      NM000R$  000000000000200000000000020000000000002000000000000200000000000020000000000001000000000001800001000000000000000500000000000000001000000000000320002013111800000010000000000000BRBBASACNOR3239
012013100978BBASK57     070BBAS        ON      NM000R$  000000000003800000000000380000000000038000000000003800000000000380000000000000000000000000000001000000000000000200000000000000007600000000000275002013111800000010000000000000BRBBASACNOR3239
012013100978BBASL24     070BBAS        ON      NM000R$  000000000038000000000003800000000000375000000000037600000000003750000000000000000000000000000013000000000000032000000000000012056000000000000229502013121600000010000000000000BRBBASACNOR3237
012013100978BBASL26     070BBAS        ON      NM000R$  000000000023400000000002340000000000230000000000023000000000002300000000000016000000000000000049000000000000006100000000000001404100000000000246102013121600000010000000000000BRBBASACNOR3235
012013100978BBASL27     070BBAS        ON      NM000R$  000000000014600000000001740000000000138000000000015300000000001630000000000016000000000000000098000000000001032000000000000158361200000000000259502013121600000010000000000000BRBBASACNOR3237
012013100978BBASL28     070BBAS        ON      NM000R$  000000000009300000000001070000000000087000000000009900000000001070000000000016000000000000000032000000000001005700000000000100052200000000000269502013121600000010000000000000BRBBASACNOR3237
012013100978BBASL29     070BBAS        ON      NM000R$  000000000006600000000000750000000000064000000000007100000000000750000000000016000000000000000037000000000000009700000000000000697200000000000276102013121600000010000000000000BRBBASACNOR3235
012013100978BBASL59     070BBAS        ON      NM000R$  000000000002200000000000220000000000022000000000002200000000000220000000000000000000000000000001000000000000003000000000000000066000000000000295002013121600000010000000000000BRBBASACNOR3239
012013100978BBASL60     070BBAS        ON      NM000R$  000000000004000000000000400000000000039000000000003900000000000390000000000014000000000000000003000000000000000600000000000000023500000000000286202013121600000010000000000000BRBBASACNOR3233
012013100978BBASL79     070BBAS        ON      NM000R$  000000000003000000000000330000000000030000000000003000000000000330000000000000000000000000000121000000000000250100000000000007722400000000000290002013121600000010000000000000BRBBASACNOR3239
012013100982BBASM21     080BBASE       ON      NM000R$  000000000001300000000000130000000000013000000000001300000000000130000000000000000000000000000001000000000000002500000000000000032500000000000210002014012000000010000000000000BRBBASACNOR3239
012013100982BBASM22     080BBASE       ON      NM000R$  000000000001300000000000130000000000013000000000001300000000000130000000000000000000000000000002000000000000006000000000000000078000000000000209502014012000000010000000000000BRBBASACNOR3237
012013100982BBASM24     080BBASE       ON      NM000R$  000000000002700000000000270000000000027000000000002700000000000270000000000000000000000000000001000000000000003000000000000000081000000000000229502014012000000010000000000000BRBBASACNOR3237
012013100982BBASM25     080BBASE       ON      NM000R$  000000000004200000000000420000000000042000000000004200000000000420000000000000000000000000000001000000000000003000000000000000126000000000000239502014012000000010000000000000BRBBASACNOR3237
012013100982BBASM26     080BBASE       ON      NM000R$  000000000006900000000000700000000000063000000000006700000000000630000000000000000000000000000003000000000000009000000000000000606000000000000249502014012000000010000000000000BRBBASACNOR3237
012013100982BBASM27     080BBASE       ON      NM000R$  000000000010300000000001030000000000094000000000009800000000000940000000000000000000000000000002000000000000006000000000000000591000000000000259502014012000000010000000000000BRBBASACNOR3237
012013100982BBASM28     080BBASE       ON      NM000R$  000000000019100000000001910000000000191000000000019100000000001910000000000000000000000000000001000000000000003000000000000000573000000000000280002014012000000010000000000000BRBBASACNOR3239
012013100982BBASM29     080BBASE       ON      NM000R$  000000000025700000000002570000000000257000000000025700000000002570000000000000000000000000000001000000000000003000000000000000771000000000000290002014012000000010000000000000BRBBASACNOR3239
012013100982BBASM30     080BBASE       ON      NM000R$  000000000025300000000002530000000000253000000000025300000000002530000000000000000000000000000001000000000000003000000000000000759000000000000289502014012000000010000000000000BRBBASACNOR3237
012013100982BBASV25     080BBASE FM    ON      NM000R$  000000000000600000000000060000000000002000000000000300000000000040000000000001000000000000600041000000000000149500000000000000456900000000000239502013102100000010000000000000BRBBASACNOR3237
012013100982BBASV26     080BBASE FM    ON      NM000R$  000000000000600000000000080000000000005000000000000500000000000050000000000004000000000001200020000000000000055400000000000000316200000000000246102013102100000010000000000000BRBBASACNOR3235
012013100982BBASV27     080BBASE FM    ON      NM000R$  000000000002400000000000240000000000010000000000001700000000000120000000000010000000000001600196000000000000246800000000000004248400000000000256102013102100000010000000000000BRBBASACNOR3235
012013100982BBASV28     080BBASE FM    ON      NM000R$  000000000008700000000000950000000000053000000000007200000000000640000000000000000000000000000783000000000000208500000000000015061300000000000269502013102100000010000000000000BRBBASACNOR3237
012013100982BBASV29     080BBASE       ON      NM000R$  000000000011100000000001290000000000111000000000011800000000001290000000000000000000000000000011000000000000001700000000000000201900000000000276102013102100000010000000000000BRBBASACNOR3235
012013100982BBASW23     080BBASE       ON      NM000R$  000000000000500000000000050000000000005000000000000500000000000050000000000000000000000000000001000000000000003000000000000000015000000000000219502013111800000010000000000000BRBBASACNOR3237
012013100982BBASW24     080BBASE       ON      NM000R$  000000000000900000000000090000000000009000000000000900000000000090000000000000000000000000000001000000000000001000000000000000009000000000000229502013111800000010000000000000BRBBASACNOR3237
012013100982BBASW25     080BBASE FM    ON      NM000R$  000000000001300000000000160000000000013000000000001400000000000160000000000000000000000000000004000000000000007200000000000000100800000000000237102013111800000010000000000000BRBBASACNOR3236
012013100982BBASW26     080BBASE FM    ON      NM000R$  000000000002700000000000290000000000020000000000002600000000000200000000000019000000000003300012000000000000002300000000000000060800000000000247102013111800000010000000000000BRBBASACNOR3236
012013100982BBASW27     080BBASE FM    ON      NM000R$  000000000004900000000000590000000000040000000000004800000000000400000000000000000000000000000005000000000000010000000000000000488000000000000257102013111800000010000000000000BRBBASACNOR3236
012013100982BBASW28     080BBASE FM    ON      NM000R$  000000000008800000000001030000000000073000000000008200000000000800000000000000000000000000000021000000000000037900000000000003140700000000000267102013111800000010000000000000BRBBASACNOR3236
012013100982BBASW29     080BBASE       ON      NM000R$  000000000017100000000001710000000000171000000000017100000000001710000000000000000000000019400001000000000000003000000000000000513000000000000279502013111800000010000000000000BRBBASACNOR3237
012013100982BBASX25     080BBASE       ON      NM000R$  000000000002600000000000320000000000021000000000003100000000000210000000000020000000000003900005000000000000004400000000000000137600000000000236102013121600000010000000000000BRBBASACNOR3235
012013100982BBASX27     080BBASE       ON      NM000R$  000000000007900000000000790000000000079000000000007900000000000790000000000000000000000000000001000000000000003000000000000000237000000000000259502013121600000010000000000000BRBBASACNOR3237
012013100982BBASX55     080BBASE       ON      NM000R$  000000000002300000000000230000000000023000000000002300000000000230000000000000000000000000000001000000000000500000000000000011500000000000000235202013121600000010000000000000BRBBASACNOR3233
012013100982BBASX56     080BBASE       ON      NM000R$  000000000006500000000000650000000000065000000000006500000000000650000000000000000000000000000002000000000000500000000000000032500000000000000255002013121600000010000000000000BRBBASACNOR3239
012013100902BBDC3       010BRADESCO    ON  EJ  N1   R$  000000000353700000000036200000000003525000000000358500000000035790000000003579000000000360003159000000000000932500000000003343878500000000000000009999123100000010000000000000BRBBDCACNOR1607
012013100996BBDC3F      020BRADESCO    ON  EJ  N1   R$  000000000351500000000036160000000003515000000000357600000000036000000000003589000000000361000053000000000000001426000000000005099907000000000000009999123100000010000000000000BRBBDCACNOR1607
012013100902BBDC4       010BRADESCO    PN  EJ  N1   R$  000000000307200000000031460000000003071000000000311900000000031220000000003122000000000312518568000000000006673400000000020815614900000000000000009999123100000010000000000000BRBBDCACNPR8607
012013100996BBDC4F      020BRADESCO    PN  EJ  N1   R$  000000000308000000000031450000000003076000000000311600000000031200000000003120000000000314000176000000000000004648000000000014486257000000000000009999123100000010000000000000BRBBDCACNPR8607
012013100962BBDC4T      030BRADESCO    PN  EJ  N1061R$  000000000312400000000031250000000003124000000000312400000000031250000000000000000000000000000002000000000000000100000000000000312484000000000000009999123100000010000000000000BRBBDCACNPR8607
012013100962BBDC4T      030BRADESCO    PN  EJ  N1090R$  000000000316600000000031840000000003166000000000317000000000031840000000000000000000000000000004000000000000005100000000000016168802000000000000009999123100000010000000000000BRBBDCACNPR8607
012013100978BBDCA33     070BBDC    /EJ PN      N1000R$  000000000011000000000001100000000000110000000000011000000000001100000000000000000000000000000001000000000000003000000000000000330000000000000329802014012000000010000000000000BRBBDCACNPR8606
012013100978BBDCA34     070BBDC    /EJ PN      N1000R$  000000000007700000000000800000000000076000000000007800000000000800000000000000000000000008400004000000000000013200000000000001035000000000000339402014012000000010000000000000BRBBDCACNPR8604
012013100978BBDCA35     070BBDC    /EJ PN      N1000R$  000000000005100000000000510000000000050000000000005000000000000500000000000000000000000000000002000000000000005400000000000000272400000000000350002014012000000010000000000000BRBBDCACNPR8607
012013100978BBDCA37     070BBDC    /EJ PN      N1000R$  000000000002500000000000250000000000025000000000002500000000000250000000000000000000000000000002000000000000006000000000000000150000000000000367402014012000000010000000000000BRBBDCACNPR8602
012013100978BBDCA40     070BBDC    /EJ PN      N1000R$  000000000003300000000000330000000000033000000000003300000000000330000000000000000000000000000001000000000000002700000000000000089100000000000360402014012000000010000000000000BRBBDCACNPR8598
012013100978BBDCJ1      070BBDC    /EJ PN      N1000R$  000000000004000000000000400000000000040000000000004000000000000400000000000000000000000000000001000000000000004000000000000000160000000000000314202013102100000010000000000000BRBBDCACNPR8603
012013100978BBDCJ29     070BBDC    /EJ PN      N1000R$  000000000024500000000002740000000000232000000000025700000000002740000000000202000000000030300108000000000000039000000000000010052500000000000287402013102100000010000000000000BRBBDCACNPR8602
012013100978BBDCJ30     070BBDC  FM/EJ PN      N1000R$  000000000014500000000001850000000000142000000000016600000000001770000000000131000000000017700276000000000000309000000000000051499600000000000297402013102100000010000000000000BRBBDCACNPR8602
012013100978BBDCJ31     070BBDC  FM/EJ PN      N1000R$  000000000006200000000001000000000000062000000000008300000000000950000000000080000000000010300114000000000000184400000000000015352900000000000307402013102100000010000000000000BRBBDCACNPR8602
012013100978BBDCJ32     070BBDC  FM/EJ PN      N1000R$  000000000003000000000000410000000000026000000000003300000000000410000000000019000000000004800128000000000000198200000000000006720700000000000317402013102100000010000000000000BRBBDCACNPR8602
012013100978BBDCJ33     070BBDC  FM/EJ PN      N1000R$  000000000000900000000000130000000000007000000000000900000000000130000000000008000000000001400052000000000000088800000000000000843200000000000327402013102100000010000000000000BRBBDCACNPR8602
012013100978BBDCJ34     070BBDC  FM/EJ PN      N1000R$  000000000000300000000000050000000000002000000000000300000000000050000000000001000000000000700040000000000000101900000000000000406500000000000337002013102100000010000000000000BRBBDCACNPR8600
012013100978BBDCK30     070BBDC  FM/EJ PN      N1000R$  000000000017100000000002100000000000171000000000018900000000002000000000000141000000000000000360000000000000228800000000000043450300000000000299602013111800000010000000000000BRBBDCACNPR8605
012013100978BBDCK31     070BBDC  FM/EJ PN      N1000R$  000000000010300000000001390000000000103000000000012100000000001330000000000102000000000014800117000000000000174600000000000021186600000000000309602013111800000010000000000000BRBBDCACNPR8605
012013100978BBDCK32     070BBDC  FM/EJ PN      N1000R$  000000000007800000000000960000000000073000000000008600000000000900000000000061000000000009800244000000000000245200000000000021238200000000000317202013111800000010000000000000BRBBDCACNPR8601
012013100978BBDCK33     070BBDC  FM/EJ PN      N1000R$  000000000004200000000000530000000000041000000000004500000000000500000000000031000000000005100233000000000000195400000000000008837600000000000327402013111800000010000000000000BRBBDCACNPR8602
012013100978BBDCK34     070BBDC  FM/EJ PN      N1000R$  000000000002100000000000250000000000018000000000002000000000000250000000000011000000000000000098000000000000160400000000000003304800000000000339402013111800000010000000000000BRBBDCACNPR8604
012013100978BBDCL29     070BBDC    /EJ PN      N1000R$  000000000033100000000003310000000000331000000000033100000000003310000000000000000000000000000001000000000000000100000000000000033100000000000287402013121600000010000000000000BRBBDCACNPR8602
012013100978BBDCL3      070BBDC    /EJ PN      N1000R$  000000000008000000000000860000000000080000000000008500000000000860000000000000000000000000000008000000000000006000000000000000510000000000000327002013121600000010000000000000BRBBDCACNPR8601
012013100978BBDCL34     070BBDC    /EJ PN      N1000R$  000000000005100000000000560000000000051000000000005300000000000560000000000000000000000000000025000000000000035000000000000001860000000000000337002013121600000010000000000000BRBBDCACNPR8600
012013100978BBDCL36     070BBDC    /EJ PN      N1000R$  000000000008600000000000860000000000086000000000008600000000000860000000000000000000000000000001000000000000000200000000000000017200000000000323902013121600000010000000000000BRBBDCACNPR8597
012013100982BBDCM29     080BBDCE   /EJ PN      N1000R$  000000000005500000000000550000000000055000000000005500000000000550000000000000000000000000000001000000000000002000000000000000110000000000000287202014012000000010000000000000BRBBDCACNPR8601
012013100982BBDCM30     080BBDCE   /EJ PN      N1000R$  000000000008900000000000920000000000084000000000008700000000000840000000000000000000000000000007000000000000011000000000000000961000000000000299802014012000000010000000000000BRBBDCACNPR8606
012013100982BBDCM31     080BBDCE   /EJ PN      N1000R$  000000000012600000000001260000000000117000000000011900000000001170000000000000000000000000000005000000000000007600000000000000907600000000000309602014012000000010000000000000BRBBDCACNPR8605
012013100982BBDCM32     080BBDCE   /EJ PN      N1000R$  000000000017200000000001720000000000172000000000017200000000001720000000000000000000000000000001000000000000002000000000000000344000000000000319802014012000000010000000000000BRBBDCACNPR8606
012013100982BBDCM59     080BBDCE   /EJ PN      N1000R$  000000000007500000000000780000000000070000000000007300000000000700000000000000000000000000000009000000000000013500000000000000998500000000000294602014012000000010000000000000BRBBDCACNPR8605
012013100982BBDCV1      080BBDCE   /EJ PN      N1000R$  000000000006500000000000720000000000055000000000006400000000000550000000000000000000000000000009000000000000014100000000000000912500000000000314202013102100000010000000000000BRBBDCACNPR8603
012013100982BBDCV28     080BBDCE   /EJ PN      N1000R$  000000000000100000000000010000000000001000000000000100000000000010000000000000000000000000100001000000000000000200000000000000000200000000000245402013102100000010000000000000BRBBDCACNPR8591
012013100982BBDCV29     080BBDCE FM/EJ PN      N1000R$  000000000000400000000000040000000000003000000000000300000000000030000000000000000000000000000049000000000000077600000000000000277400000000000287402013102100000010000000000000BRBBDCACNPR8602
012013100982BBDCV30     080BBDCE FM/EJ PN      N1000R$  000000000001300000000000170000000000008000000000001100000000000100000000000008000000000000000028000000000000056300000000000000655500000000000297402013102100000010000000000000BRBBDCACNPR8602
012013100982BBDCV31     080BBDCE FM/EJ PN      N1000R$  000000000003600000000000420000000000025000000000003300000000000260000000000000000000000010000032000000000000078200000000000002635800000000000307402013102100000010000000000000BRBBDCACNPR8602
012013100982BBDCV32     080BBDCE FM/EJ PN      N1000R$  000000000010900000000001090000000000064000000000008100000000000660000000000000000000000009200039000000000000066000000000000005410400000000000317402013102100000010000000000000BRBBDCACNPR8602
012013100982BBDCW27     080BBDCE   /EJ PN      N1000R$  000000000000600000000000060000000000006000000000000600000000000060000000000006000000000000000001000000000000005000000000000000030000000000000269202013111800000010000000000000BRBBDCACNPR8603
012013100982BBDCW28     080BBDCE   /EJ PN      N1000R$  000000000001100000000000110000000000011000000000001100000000000110000000000000000000000001300001000000000000003000000000000000033000000000000277402013111800000010000000000000BRBBDCACNPR8602
012013100982BBDCW30     080BBDCE FM/EJ PN      N1000R$  000000000004700000000000490000000000040000000000004600000000000400000000000000000000000000000030000000000000036800000000000001723800000000000299602013111800000010000000000000BRBBDCACNPR8605
012013100982BBDCW31     080BBDCE FM/EJ PN      N1000R$  000000000009400000000000940000000000068000000000007800000000000680000000000000000000000009300026000000000000068900000000000005380300000000000309602013111800000010000000000000BRBBDCACNPR8605
012013100982BBDCW32     080BBDCE FM/EJ PN      N1000R$  000000000011600000000001210000000000099000000000010600000000000990000000000000000000000000000040000000000000077100000000000008179200000000000317202013111800000010000000000000BRBBDCACNPR8601
012013100982BBDCW9      080BBDCE FM/EJ PN      N1000R$  000000000002500000000000290000000000019000000000002300000000000210000000000000000000000002200059000000000000090800000000000002110100000000000289602013111800000010000000000000BRBBDCACNPR8605
012013100912BBFI11B     010FII BB PROGRCI  ER  MB   R$  000000042000000000004215000000000420000000000042112500000004215000000000420050000000042150000004000000000000000012000000000005053500000000000000009999123100000010000000000000BRBBFICTF006199
012013100912BBPO11      010FII BB PRGIICI  ER       R$  000000001124900000000113200000000011180000000001123800000000112390000000011201000000001123900380000000000000013798000000000155073597000000000000009999123100000010000000000000BRBBPOCTF003111
012013100912BBRC11      010FII BB CORP CI  ER       R$  000000000890000000000089010000000008900000000000890000000000089000000000008900000000000904500006000000000000000320000000000002848005000000000000009999123100000010000000000000BRBBRCCTF004125
012013100902BBRK3       010BR BROKERS  ON      NM   R$  000000000059400000000006040000000000590000000000059600000000005990000000000597000000000060001900000000000001444500000000000861757100000000000000009999123100000010000000000000BRBBRKACNOR4108
012013100996BBRK3F      020BR BROKERS  ON      NM   R$  000000000059000000000006030000000000565000000000059200000000006000000000000568000000000064000015000000000000000401000000000000237517000000000000009999123100000010000000000000BRBBRKACNOR4108
012013100902BBSE3       010BBSEGURIDADEON      NM   R$  000000000222900000000022850000000002220000000000226100000000022840000000002277000000000228407512000000000004020200000000009090481500000000000000009999123100000010000000000000BRBBSEACNOR5101
012013100996BBSE3F      020BBSEGURIDADEON      NM   R$  000000000223000000000022830000000002212000000000225200000000022760000000002270000000000227600765000000000000024941000000000056176414000000000000009999123100000010000000000000BRBBSEACNOR5101
012013100962BBSE3T      030BBSEGURIDADEON      NM030R$  000000000224000000000022410000000002240000000000224000000000022410000000000000000000000000000002000000000000005000000000000011203400000000000000009999123100000010000000000000BRBBSEACNOR5101
012013100962BBSE3T      030BBSEGURIDADEON      NM061R$  000000000230900000000023100000000002309000000000230900000000023100000000000000000000000000000002000000000000002000000000000004619328000000000000009999123100000010000000000000BRBBSEACNOR5101
012013100962BBSE3T      030BBSEGURIDADEON      NM090R$  000000000227600000000023210000000002269000000000229500000000023210000000000000000000000000000050000000000000600200000000001377914511000000000000009999123100000010000000000000BRBBSEACNOR5101
012013100982BBSEX20     080BBSEE       ON      NM000R$  000000000001500000000000150000000000015000000000001500000000000150000000000000000000000000000001000000000000170000000000000002550000000000000200002013121600000010000000000000BRBBSEACNOR5101
012013100982BBSEX22     080BBSEE       ON      NM000R$  000000000006900000000000690000000000069000000000006900000000000690000000000000000000000000000001000000000000170000000000000011730000000000000220002013121600000010000000000000BRBBSEACNOR5101
012013100902BBTG11      010BTG PACTUAL UNT          R$  000000000280000000000028390000000002784000000000281300000000028010000000002801000000000283000572000000000000136300000000000383489800000000000000009999123100000010000000000000BRBBTGUNT007105
012013100996BBTG11F     020BTG PACTUAL UNT          R$  000000000281000000000028210000000002800000000000280900000000028200000000002772000000000284900008000000000000000206000000000000578753000000000000009999123100000010000000000000BRBBTGUNT007105
012013100962BBTG11T     030BTG PACTUAL UNT       016R$  000000000283900000000028400000000002839000000000283900000000028400000000000000000000000000000002000000000000004000000000000011357755000000000000009999123100000010000000000000BRBBTGUNT007105
012013100912BBVJ11      010FII C JARDIMCI  ER       R$  000000000799900000000079990000000007780000000000794500000000078000000000007800000000000798800013000000000000000705000000000005601879000000000000009999123100000010000000000000BRBBVJCTF001134
012013100912BCFF11B     010FII BC FFII CI  ER  MB   R$  000000000904000000000090400000000008900000000000894100000000089000000000008900000000000899400038000000000000002461000000000022005054000000000000009999123100000010000000000000BRBCFFCTF000143
012013100902BDLL4       010BARDELLA    PN           R$  000000000520000000000052000000000005105000000000518400000000051050000000005102000000000535000004000000000000000600000000000003110500000000000000009999123100000010000000000000BRBDLLACNPR8149
012013100902BEEF3       010MINERVA     ON      NM   R$  000000000097000000000009770000000000954000000000096200000000009700000000000968000000000097002626000000000000574800000000000553538900000000000000009999123100000010000000000000BRBEEFACNOR6104
012013100996BEEF3F      020MINERVA     ON      NM   R$  000000000096800000000009700000000000958000000000096500000000009700000000000950000000000096800009000000000000000224000000000000216330000000000000009999123100000010000000000000BRBEEFACNOR6104
012013100962BEEF3T      030MINERVA     ON      NM030R$  000000000096900000000009700000000000968000000000096900000000009690000000000000000000000000000004000000000000031000000000000030044657000000000000009999123100000010000000000000BRBEEFACNOR6104
012013100902BEES3       010BANESTES    ON  EJ       R$  000000000004900000000000490000000000049000000000004900000000000490000000000049000000000005000003000000000000009000000000000000441000000000000000009999123100000010000000000000BRBEESACNOR9245
012013100996BEES3F      020BANESTES    ON  EJ       R$  000000000005000000000000500000000000050000000000005000000000000500000000000000000000000005000001000000000000000004000000000000000200000000000000009999123100000010000000000000BRBEESACNOR9245
012013100902BEES4       010BANESTES    PN  EJ       R$  000000000004600000000000460000000000046000000000004600000000000460000000000045000000000004600002000000000000000200000000000000009200000000000000009999123100000010000000000000BRBEESACNPR6170
012013100902BEMA3       010BEMATECH    ON      NM   R$  000000000076500000000007850000000000760000000000077500000000007790000000000777000000000077900460000000000000186100000000000144383000000000000000009999123100000010000000000000BRBEMAACNOR0114
012013100996BEMA3F      020BEMATECH    ON      NM   R$  000000000077700000000007940000000000777000000000077700000000007940000000000736000000000079400002000000000000000100000000000000077768000000000000009999123100000010000000000000BRBEMAACNOR0114
012013100902BHGR3       010BHG         ON      NM   R$  000000000147400000000014800000000001460000000000146300000000014730000000001466000000000147300060000000000000034300000000000050200800000000000000009999123100000010000000000000BRBHGRACNOR9101
012013100902BICB4       010BICBANCO    PN      N1   R$  000000000053200000000005400000000000515000000000053100000000005300000000000530000000000053500154000000000000071900000000000038203300000000000000009999123100000010000000000000BRBICBACNPR7131
012013100902BISA3       010BROOKFIELD  ON      NM   R$  000000000015600000000001590000000000153000000000015500000000001580000000000157000000000015802392000000000009580500000000001494333700000000000000009999123100000010000000000000BRBISAACNOR8109
012013100996BISA3F      020BROOKFIELD  ON      NM   R$  000000000015400000000001560000000000154000000000015500000000001550000000000156000000000015900013000000000000000391000000000000060634000000000000009999123100000010000000000000BRBISAACNOR8109
012013100962BISA3T      030BROOKFIELD  ON      NM030R$  000000000015500000000001580000000000155000000000015500000000001570000000000000000000000000000010000000000000047500000000000007406218000000000000009999123100000010000000000000BRBISAACNOR8109
012013100962BISA3T      030BROOKFIELD  ON      NM061R$  000000000015700000000001620000000000157000000000015800000000001610000000000000000000000000000008000000000000064700000000000010231429000000000000009999123100000010000000000000BRBISAACNOR8109
012013100962BISA3T      030BROOKFIELD  ON      NM090R$  000000000015800000000001590000000000158000000000015800000000001590000000000000000000000000000002000000000000025000000000000003959475000000000000009999123100000010000000000000BRBISAACNOR8109
012013100912BJRC11      010FII JS RECIMCI  ER       R$  000000008799900000000899000000000087999000000008800400000000880000000000088000000000008900000013000000000000001881000000000165536794000000000000009999123100000010000000000000BRBJRCCTF007111
012013100902BMIN3       010MERC INVEST ON           R$  000000000010000000000001000000000000100000000000010000000000001000000000000100000000000014500002000000000000002000000000000000200000000000000000009999123100000010000000000000BRBMINACNOR4159
012013100902BMIN4       010MERC INVEST PN           R$  000000000002700000000000280000000000027000000000002700000000000280000000000026000000000002800005000000000000022000000000000000608000000000000000009999123100000010000000000000BRBMINACNPR1160
012013100912BMLC11B     010FII BMBRC LCCI  ER  MB   R$  000000001160000000000116000000000011560000000001159100000000116000000000011561000000001160000004000000000000000140000000000001622800000000000000009999123100000010000000000000BRBMLCCTF004120
012013100902BMTO4       010BRASMOTOR   PN           R$  000000000008800000000000880000000000088000000000008800000000000880000000000085000000000008700002000000000000002000000000000000176000000000000000009999123100000010000000000000BRBMTOACNPR6065
012013100914BOVA11      010ISHARES BOVACI           R$  000000000514600000000051610000000005075000000000512600000000051490000000005124000000000514905130000000000001677640000000008601214570000000000000009999123100000010000000000000BRBOVACTF003101
012013100996BOVA11F     020ISHARES BOVACI           R$  000000000511700000000051170000000005104000000000510900000000051040000000005101000000000517600007000000000000000021000000000000107291000000000000009999123100000010000000000000BRBOVACTF003101
012013100912BPFF11      010FII ABSOLUTOCI  ER       R$  000000000820000000000083200000000008150000000000821200000000083200000000008235000000000830000027000000000000003733000000000030657551000000000000009999123100000010000000000000BRBPFFCTF002106
012013100902BPHA3       010BR PHARMA   ON      NM   R$  000000000082900000000008400000000000822000000000083100000000008350000000000835000000000083601078000000000000415300000000000345263900000000000000009999123100000010000000000000BRBPHAACNOR6102
012013100996BPHA3F      020BR PHARMA   ON      NM   R$  000000000082900000000008430000000000829000000000083300000000008430000000000821000000000084300004000000000000000200000000000000166667000000000000009999123100000010000000000000BRBPHAACNOR6102
012013100962BPHA3T      030BR PHARMA   ON      NM016R$  000000000083900000000008400000000000839000000000083900000000008400000000000000000000000000000002000000000000001900000000000001594115000000000000009999123100000010000000000000BRBPHAACNOR6102
012013100962BPHA3T      030BR PHARMA   ON      NM030R$  000000000083800000000008390000000000838000000000083800000000008390000000000000000000000000000002000000000000005000000000000004192448000000000000009999123100000010000000000000BRBPHAACNOR6102
012013100962BPHA3T      030BR PHARMA   ON      NM090R$  000000000085500000000008560000000000855000000000085500000000008560000000000000000000000000000002000000000000001000000000000000855040000000000000009999123100000010000000000000BRBPHAACNOR6102
012013100902BPNM4       010PANAMERICANOPN      N1   R$  000000000051200000000005300000000000504000000000052100000000005200000000000519000000000052700464000000000001210100000000000631070900000000000000009999123100000010000000000000BRBPNMACNPR6111
012013100996BPNM4F      020PANAMERICANOPN      N1   R$  000000000054600000000005460000000000502000000000052800000000005020000000000504000000000054400002000000000000000070000000000000036988000000000000009999123100000010000000000000BRBPNMACNPR6111
012013100962BPNM4T      030PANAMERICANOPN      N1090R$  000000000053600000000005370000000000530000000000053400000000005310000000000000000000000000000004000000000000796300000000000425569974000000000000009999123100000010000000000000BRBPNMACNPR6111
012013100902BRAP3       010BRADESPAR   ON      N1   R$  000000000197300000000019790000000001910000000000193600000000019400000000001934000000000194700043000000000000013400000000000025955700000000000000009999123100000010000000000000BRBRAPACNOR5124
012013100996BRAP3F      020BRADESPAR   ON      N1   R$  000000000193800000000019400000000001935000000000193800000000019370000000001941000000000196900005000000000000000200000000000000387785000000000000009999123100000010000000000000BRBRAPACNOR5124
012013100962BRAP3T      030BRADESPAR   ON      N1016R$  000000000192900000000019300000000001929000000000192900000000019300000000000000000000000000000002000000000000000900000000000001736944000000000000009999123100000010000000000000BRBRAPACNOR5124
012013100962BRAP3T      030BRADESPAR   ON      N1090R$  000000000197900000000019800000000001979000000000197900000000019800000000000000000000000000000002000000000000000600000000000001187470000000000000009999123100000010000000000000BRBRAPACNOR5124
012013100902BRAP4       010BRADESPAR   PN      N1   R$  000000000240300000000024140000000002329000000000236000000000023480000000002348000000000234904619000000000001349000000000003184634100000000000000009999123100000010000000000000BRBRAPACNPR2124
012013100996BRAP4F      020BRADESPAR   PN      N1   R$  000000000240000000000024000000000002336000000000235700000000023370000000002330000000000233700049000000000000001295000000000003052253000000000000009999123100000010000000000000BRBRAPACNPR2124
012013100962BRAP4S      030BRADESPAR   PN      N1090R$  000000000240200000000024030000000002402000000000240200000000024030000000000000000000000000000002000000000000005000000000000012013542000000000000009999123100000010000000000000BRBRAPACNPR2124
012013100962BRAP4T      030BRADESPAR   PN      N1090R$  000000000239800000000023990000000002398000000000239800000000023990000000000000000000000000000002000000000000000200000000000000479774000000000000009999123100000010000000000000BRBRAPACNPR2124
012013100962BRAP4T      030BRADESPAR   PN      N1362R$  000000000260300000000026040000000002575000000000259800000000025760000000000000000000000000000004000000000000000600000000000001559265000000000000009999123100000010000000000000BRBRAPACNPR2124
012013100978BRAPK26     070BRAP        PN      N1000R$  000000000000500000000000050000000000005000000000000500000000000050000000000000000000000000000001000000000000002000000000000000010000000000000260002013111800000010000000000000BRBRAPACNPR2124
012013100914BRAX11      010ISHARES BRAXCI           R$  000000000422900000000042290000000004224000000000422600000000042240000000003000000000000000000002000000000000000020000000000000084530000000000000009999123100000010000000000000BRBRAXCTF002100
012013100912BRCR11      010FII BC FUND CI  ER       R$  000000001344900000000135160000000013291000000001336800000000132910000000013291000000001337002341000000000000042924000000000573829521000000000000009999123100000010000000000000BRBRCRCTF000134
012013100902BRFS3       010BRF SA      ON      NM   R$  000000000546800000000054820000000005380000000000541300000000054440000000005425000000000544404512000000000001594900000000008633322900000000000000009999123100000010000000000000BRBRFSACNOR8110
012013100996BRFS3F      020BRF SA      ON      NM   R$  000000000545900000000054620000000005385000000000541200000000054050000000005405000000000542300073000000000000002001000000000010831208000000000000009999123100000010000000000000BRBRFSACNOR8110
012013100962BRFS3T      030BRF SA      ON      NM016R$  000000000543400000000054350000000005434000000000543400000000054350000000000000000000000000000002000000000000000500000000000002717173000000000000009999123100000010000000000000BRBRFSACNOR8110
012013100962BRFS3T      030BRF SA      ON      NM061R$  000000000546600000000054670000000005466000000000546600000000054670000000000000000000000000000002000000000000000500000000000002733237000000000000009999123100000010000000000000BRBRFSACNOR8110
012013100962BRFS3T      030BRF SA      ON      NM120R$  000000000559700000000055980000000005597000000000559700000000055980000000000000000000000000000006000000000000015000000000000083956455000000000000009999123100000010000000000000BRBRFSACNOR8110
012013100978BRFSK52     070BRFS        ON      NM000R$  000000000029500000000002950000000000295000000000029500000000002950000000000000000000000000000001000000000000001900000000000000560500000000000520002013111800000010000000000000BRBRFSACNOR8110
012013100978BRFSL52     070BRFS        ON      NM000R$  000000000035200000000003520000000000352000000000035200000000003520000000000000000000000000000001000000000000010000000000000003520000000000000520002013121600000010000000000000BRBRFSACNOR8110
012013100982BRFSX52     080BRFSE       ON      NM000R$  000000000008600000000000860000000000080000000000008000000000000800000000000000000000000000000003000000000000040100000000000003209100000000000520002013121600000010000000000000BRBRFSACNOR8110
012013100902BRIN3       010BR INSURANCEON      NM   R$  000000000196100000000019700000000001922000000000194400000000019700000000001947000000000197000884000000000000252600000000000491165600000000000000009999123100000010000000000000BRBRINACNOR3106
012013100996BRIN3F      020BR INSURANCEON      NM   R$  000000000195500000000019600000000001930000000000194500000000019300000000001916000000000196700014000000000000000278000000000000540884000000000000009999123100000010000000000000BRBRINACNOR3106
012013100902BRIV4       010ALFA INVEST PN           R$  000000000056900000000005690000000000569000000000056900000000005690000000000550000000000056900001000000000000000300000000000000170700000000000000009999123100000010000000000000BRBRIVACNPR3197
012013100902BRKM3       010BRASKEM     ON      N1   R$  000000000127400000000013000000000001274000000000127900000000013000000000001194000000000130000012000000000000007800000000000009979500000000000000009999123100000010000000000000BRBRKMACNOR1110
012013100902BRKM5       010BRASKEM     PNA     N1   R$  000000000180000000000018380000000001776000000000181100000000018280000000001824000000000182806354000000000001404100000000002542959100000000000000009999123100000010000000000000BRBRKMACNPA4110
012013100996BRKM5F      020BRASKEM     PNA     N1   R$  000000000179000000000018370000000001789000000000181700000000018240000000001789000000000184000018000000000000000535000000000000972372000000000000009999123100000010000000000000BRBRKMACNPA4110
012013100902BRML3       010BR MALLS PARON      NM   R$  000000000199500000000020190000000001981000000000200100000000020190000000002008000000000201907110000000000003211300000000006427121700000000000000009999123100000010000000000000BRBRMLACNOR9105
012013100996BRML3F      020BR MALLS PARON      NM   R$  000000000198000000000020120000000001980000000000199900000000020120000000002000000000000204900040000000000000001167000000000002333550000000000000009999123100000010000000000000BRBRMLACNOR9105
012013100962BRML3T      030BR MALLS PARON      NM030R$  000000000201400000000020150000000002014000000000201400000000020150000000000000000000000000000002000000000000100000000000000201458340000000000000009999123100000010000000000000BRBRMLACNOR9105
012013100962BRML3T      030BR MALLS PARON      NM061R$  000000000202600000000020270000000002026000000000202600000000020270000000000000000000000000000002000000000000005000000000000010133856000000000000009999123100000010000000000000BRBRMLACNOR9105
012013100902BRPR3       010BR PROPERT  ON      NM   R$  000000000191900000000019240000000001874000000000189100000000019000000000001898000000000190009907000000000002182800000000004128918400000000000000009999123100000010000000000000BRBRPRACNOR9112
012013100996BRPR3F      020BR PROPERT  ON      NM   R$  000000000190100000000019400000000001826000000000189000000000019100000000001890000000000198800034000000000000001066000000000002015177000000000000009999123100000010000000000000BRBRPRACNOR9112
012013100902BRSR6       010BANRISUL    PNB     N1   R$  000000000154000000000015480000000001514000000000153200000000015360000000001536000000000154303720000000000001032300000000001581484200000000000000009999123100000010000000000000BRBRSRACNPB4134
012013100996BRSR6F      020BANRISUL    PNB     N1   R$  000000000154000000000015460000000001520000000000153200000000015460000000001536000000000155000020000000000000000649000000000000994718000000000000009999123100000010000000000000BRBRSRACNPB4134
012013100902BSEV3       010BIOSEV      ON      NM   R$  000000000090000000000009000000000000850000000000088600000000008500000000000850000000000088000007000000000000003100000000000002748800000000000000009999123100000010000000000000BRBSEVACNOR3100
012013100996BSEV3F      020BIOSEV      ON      NM   R$  000000000085100000000008510000000000851000000000085100000000008510000000000851000000000089200001000000000000000066000000000000056166000000000000009999123100000010000000000000BRBSEVACNOR3100
012013100902BTOW3       010B2W DIGITAL ON      NM   R$  000000000144600000000014990000000001422000000000145500000000014830000000001482000000000148401585000000000000346800000000000504922900000000000000009999123100000010000000000000BRBTOWACNOR8105
012013100996BTOW3F      020B2W DIGITAL ON      NM   R$  000000000146000000000014850000000001401000000000144700000000014850000000001470000000000150000018000000000000000474000000000000686184000000000000009999123100000010000000000000BRBTOWACNOR8105
012013100902BTTL4       010BATTISTELLA PN           R$  000000000009700000000000970000000000094000000000009500000000000950000000000095000000000009700008000000000000005500000000000000524700000000000000009999123100000010000000000000BRBTTLACNPR7105
012013100902BVMF3       010BMFBOVESPA  ON      NM   R$  000000000126500000000012680000000001242000000000125400000000012590000000001258000000000125911111000000000004534900000000005689012600000000000000009999123100000010000000000000BRBVMFACNOR3126
012013100996BVMF3F      020BMFBOVESPA  ON      NM   R$  000000000126400000000012660000000001246000000000125600000000012550000000001248000000000126300070000000000000002615000000000003285328000000000000009999123100000010000000000000BRBVMFACNOR3126
012013100962BVMF3T      030BMFBOVESPA  ON      NM016R$  000000000126000000000012610000000001260000000000126000000000012610000000000000000000000000000002000000000000105000000000000132331087000000000000009999123100000010000000000000BRBVMFACNOR3126
012013100962BVMF3T      030BMFBOVESPA  ON      NM030R$  000000000125500000000012610000000001255000000000126000000000012610000000000000000000000000000004000000000000020800000000000026211917000000000000009999123100000010000000000000BRBVMFACNOR3126
012013100962BVMF3T      030BMFBOVESPA  ON      NM061R$  000000000127100000000012720000000001271000000000127100000000012720000000000000000000000000000002000000000000001590000000000002021375000000000000009999123100000010000000000000BRBVMFACNOR3126
012013100962BVMF3T      030BMFBOVESPA  ON      NM090R$  000000000129000000000012910000000001290000000000129000000000012910000000000000000000000000000002000000000000001000000000000001290038000000000000009999123100000010000000000000BRBVMFACNOR3126
012013100978BVMFA14     070BVMF        ON      NM000R$  000000000003200000000000320000000000032000000000003200000000000320000000000000000000000000000001000000000000005000000000000000160000000000000140002014012000000010000000000000BRBVMFACNOR3126
012013100978BVMFA43     070BVMF        ON      NM000R$  000000000004500000000000450000000000045000000000004500000000000450000000000000000000000000000001000000000000005000000000000000225000000000000135002014012000000010000000000000BRBVMFACNOR3126
012013100978BVMFA44     070BVMF        ON      NM000R$  000000000002000000000000210000000000020000000000002000000000000210000000000006000000000000000002000000000000007600000000000000155700000000000145002014012000000010000000000000BRBVMFACNOR3126
012013100978BVMFJ11     070BVMF        ON      NM000R$  000000000016400000000001640000000000164000000000016400000000001640000000000174000000000000000001000000000000000100000000000000016400000000000108502013102100000010000000000000BRBVMFACNOR3125
012013100978BVMFJ12     070BVMF  FM    ON      NM000R$  000000000008500000000000890000000000071000000000008100000000000810000000000081000000000008700611000000000000246300000000000020004000000000000118502013102100000010000000000000BRBVMFACNOR3125
012013100978BVMFJ13     070BVMF  FM    ON      NM000R$  000000000001900000000000190000000000013000000000001500000000000170000000000017000000000002000070000000000000187000000000000002940600000000000128502013102100000010000000000000BRBVMFACNOR3125
012013100978BVMFJ14     070BVMF  FM    ON      NM000R$  000000000000200000000000020000000000002000000000000200000000000020000000000001000000000000200003000000000000022500000000000000045000000000000138502013102100000010000000000000BRBVMFACNOR3125
012013100978BVMFJ42     070BVMF  FM    ON      NM000R$  000000000003600000000000420000000000036000000000003900000000000400000000000025000000000123500016000000000000014400000000000000562800000000000123502013102100000010000000000000BRBVMFACNOR3125
012013100978BVMFJ43     070BVMF  FM    ON      NM000R$  000000000000500000000000050000000000005000000000000500000000000050000000000006000000000000700019000000000000053500000000000000267500000000000133502013102100000010000000000000BRBVMFACNOR3125
012013100978BVMFK12     070BVMF  FM    ON      NM000R$  000000000009500000000001010000000000095000000000009900000000001010000000000000000000000011100008000000000000013200000000000001309000000000000118502013111800000010000000000000BRBVMFACNOR3125
012013100978BVMFK13     070BVMF  FM    ON      NM000R$  000000000005000000000000500000000000033000000000003700000000000390000000000000000000000004000030000000000000045000000000000001698900000000000128502013111800000010000000000000BRBVMFACNOR3125
012013100978BVMFK14     070BVMF  FM    ON      NM000R$  000000000001000000000000150000000000007000000000000800000000000090000000000009000000000001500572000000000000242200000000000002078500000000000138502013111800000010000000000000BRBVMFACNOR3125
012013100978BVMFK42     070BVMF  FM    ON      NM000R$  000000000005100000000000590000000000051000000000005600000000000590000000000000000000000007000007000000000000016200000000000000920000000000000125002013111800000010000000000000BRBVMFACNOR3126
012013100978BVMFK43     070BVMF  FM    ON      NM000R$  000000000001600000000000160000000000016000000000001600000000000160000000000006000000000000000007000000000000014600000000000000233600000000000135002013111800000010000000000000BRBVMFACNOR3126
012013100978BVMFL12     070BVMF        ON      NM000R$  000000000013900000000001390000000000139000000000013900000000001390000000000000000000000020900001000000000000000100000000000000013900000000000115402013121600000010000000000000BRBVMFACNOR3123
012013100978BVMFL13     070BVMF        ON      NM000R$  000000000005500000000000550000000000055000000000005500000000000550000000000000000000000000000003000000000000021200000000000001166000000000000128502013121600000010000000000000BRBVMFACNOR3125
012013100978BVMFL14     070BVMF        ON      NM000R$  000000000002100000000000210000000000021000000000002100000000000210000000000000000000000000000001000000000000000600000000000000012600000000000137402013121600000010000000000000BRBVMFACNOR3124
012013100982BVMFV12     080BVMFE FM    ON      NM000R$  000000000000700000000000120000000000007000000000000800000000000070000000000005000000000000900014000000000000024600000000000000200700000000000118502013102100000010000000000000BRBVMFACNOR3125
012013100982BVMFV13     080BVMFE FM    ON      NM000R$  000000000004200000000000480000000000042000000000004300000000000420000000000028000000000004800021000000000000063300000000000002764400000000000128502013102100000010000000000000BRBVMFACNOR3125
012013100982BVMFV41     080BVMFE FM    ON      NM000R$  000000000000400000000000040000000000003000000000000300000000000030000000000000000000000000000014000000000000045700000000000000175600000000000113502013102100000010000000000000BRBVMFACNOR3125
012013100982BVMFV42     080BVMFE FM    ON      NM000R$  000000000002600000000000260000000000024000000000002400000000000240000000000001000000000002900002000000000000004700000000000000116800000000000123502013102100000010000000000000BRBVMFACNOR3125
012013100982BVMFV43     080BVMFE       ON      NM000R$  000000000008200000000000830000000000081000000000008200000000000830000000000000000000000010500003000000000000007000000000000000574300000000000133502013102100000010000000000000BRBVMFACNOR3125
012013100982BVMFW12     080BVMFE FM    ON      NM000R$  000000000002200000000000220000000000022000000000002200000000000220000000000000000000000002800001000000000000001800000000000000039600000000000118502013111800000010000000000000BRBVMFACNOR3125
012013100982BVMFW13     080BVMFE FM    ON      NM000R$  000000000005900000000000650000000000059000000000006300000000000600000000000000000000000025000013000000000000029600000000000001875300000000000128502013111800000010000000000000BRBVMFACNOR3125
012013100982BVMFW41     080BVMFE FM    ON      NM000R$  000000000001600000000000160000000000016000000000001600000000000160000000000000000000000000000001000000000000001800000000000000028800000000000115002013111800000010000000000000BRBVMFACNOR3126
012013100982BVMFW42     080BVMFE FM    ON      NM000R$  000000000004300000000000480000000000043000000000004500000000000430000000000000000000000000000009000000000000021400000000000000983400000000000125002013111800000010000000000000BRBVMFACNOR3126
012013100982BVMFX41     080BVMFE       ON      NM000R$  000000000002300000000000230000000000023000000000002300000000000230000000000000000000000000000001000000000000001800000000000000041400000000000115002013121600000010000000000000BRBVMFACNOR3126
012013100982BVMFX42     080BVMFE       ON      NM000R$  000000000005200000000000520000000000052000000000005200000000000520000000000000000000000000000001000000000000001800000000000000093600000000000125002013121600000010000000000000BRBVMFACNOR3126
012013100902CARD3       010CSU CARDSYSTON      NM   R$  000000000031300000000003130000000000304000000000030700000000003090000000000305000000000030900041000000000000036600000000000011266700000000000000009999123100000010000000000000BRCARDACNOR9105
012013100996CARD3F      020CSU CARDSYSTON      NM   R$  000000000030200000000003020000000000302000000000030200000000003020000000000303000000000034000002000000000000000073000000000000022046000000000000009999123100000010000000000000BRCARDACNOR9105
012013100902CBEE3       010AMPLA ENERG ON *         R$  000000000012800000000001290000000000128000000000012800000000001290000000000120000000000013000002000000000005100000000000000000653900000000000000009999123100010000000000000000BRCBEEACNOR3149
012013100962CBEE3T      030AMPLA ENERG ON *      090R$  000000000013000000000001310000000000130000000000013000000000001310000000000000000000000000000002000000000004000000000000000000522547000000000000009999123100010000000000000000BRCBEEACNOR3149
012013100902CBMA3       010COBRASMA    ON           R$  000000000000500000000000050000000000005000000000000500000000000050000000000005000000000000600001000000000000010000000000000000050000000000000000009999123100000010000000000000BRCBMAACNOR4124
012013100996CBMA3F      020COBRASMA    ON           R$  000000000000500000000000050000000000005000000000000500000000000050000000000005000000000000700002000000000000003059000000000000015295000000000000009999123100000010000000000000BRCBMAACNOR4124
012013100902CBMA4       010COBRASMA    PN           R$  000000000000400000000000050000000000004000000000000400000000000050000000000004000000000000500014000000000000380000000000000001700000000000000000009999123100000010000000000000BRCBMAACNPR1124
012013100996CBMA4F      020COBRASMA    PN           R$  000000000000400000000000050000000000004000000000000400000000000050000000000004000000000000500002000000000000004001000000000000020004000000000000009999123100000010000000000000BRCBMAACNPR1124
012013100908CCHI3       010CHIARELLI   ON           R$  000000000001900000000000270000000000019000000000002300000000000240000000000023000000000002400186000000000002870000000000000068190000000000000000009999123100000010000000000000BRCCHIACNOR5123
012013100996CCHI3F      020CHIARELLI   ON           R$  000000000002100000000000250000000000021000000000002300000000000230000000000022000000000002300015000000000000025705000000000000595145000000000000009999123100000010000000000000BRCCHIACNOR5123
012013100908CCHI4       010CHIARELLI   PN           R$  000000000001300000000000170000000000013000000000001500000000000160000000000015000000000001600019000000000000240000000000000003780000000000000000009999123100000010000000000000BRCCHIACNPR2122
012013100996CCHI4F      020CHIARELLI   PN           R$  000000000001500000000000160000000000015000000000001500000000000160000000000014000000000001700007000000000000009391000000000000142365000000000000009999123100000010000000000000BRCCHIACNPR2122
012013100902CCPR3       010CYRE COM-CCPON      NM   R$  000000000206500000000020970000000002065000000000208600000000020760000000002075000000000209800005000000000000000500000000000001043200000000000000009999123100000010000000000000BRCCPRACNOR9107
012013100996CCPR3F      020CYRE COM-CCPON      NM   R$  000000000205600000000020560000000002056000000000205600000000020560000000001913000000000228700001000000000000000008000000000000016448000000000000009999123100000010000000000000BRCCPRACNOR9107
012013100902CCRO3       010CCR SA      ON      NM   R$  000000000180300000000018030000000001762000000000178500000000018030000000001802000000000180308255000000000004966700000000008869228600000000000000009999123100000010000000000000BRCCROACNOR2123
012013100996CCRO3F      020CCR SA      ON      NM   R$  000000000178900000000018000000000001766000000000178400000000018000000000001780000000000180000063000000000000001798000000000003209349000000000000009999123100000010000000000000BRCCROACNOR2123
012013100962CCRO3T      030CCR SA      ON      NM016R$  000000000180600000000018070000000001806000000000180600000000018070000000000000000000000000000002000000000000005900000000000010660802000000000000009999123100000010000000000000BRCCROACNOR2123
012013100962CCRO3T      030CCR SA      ON      NM061R$  000000000180200000000018030000000001802000000000180200000000018030000000000000000000000000000002000000000000000500000000000000901206000000000000009999123100000010000000000000BRCCROACNOR2123
012013100962CCRO3T      030CCR SA      ON      NM090R$  000000000182700000000018280000000001827000000000182700000000018280000000000000000000000000000002000000000000003000000000000005482233000000000000009999123100000010000000000000BRCCROACNOR2123
012013100902CCXC3       010CCX CARVAO  ON      NM   R$  000000000012700000000001380000000000122000000000012800000000001230000000000123000000000012401008000000000004541200000000000581572900000000000000009999123100000010000000000000BRCCXCACNOR5100
012013100996CCXC3F      020CCX CARVAO  ON      NM   R$  000000000013000000000001300000000000125000000000012700000000001290000000000125000000000013400010000000000000000398000000000000050771000000000000009999123100000010000000000000BRCCXCACNOR5100
012013100962CCXC3T      030CCX CARVAO  ON      NM016R$  000000000012600000000001270000000000125000000000012600000000001260000000000000000000000000000004000000000000330000000000000041682600000000000000009999123100000010000000000000BRCCXCACNOR5100
012013100902CEBR3       010CEB         ON           R$  000000000134000000000013400000000001340000000000134000000000013400000000001340000000000142000002000000000000000200000000000000268000000000000000009999123100000010000000000000BRCEBRACNOR5114
012013100902CEBR5       010CEB         PNA          R$  000000000180000000000018000000000001800000000000180000000000018000000000001700000000000270000003000000000000001000000000000001800000000000000000009999123100000010000000000000BRCEBRACNPA8113
012013100912CEOC11B     010FII CEO CCP CI  ER  MB   R$  000000000880000000000088400000000008700000000000874500000000087500000000008750000000000884000018000000000000001274000000000011141675000000000000009999123100000010000000000000BRCEOCCTF003111
012013100902CESP3       010CESP        ON      N1   R$  000000000198000000000019800000000001950000000000196200000000019800000000001940000000000199800004000000000000001000000000000001962000000000000000009999123100000010000000000000BRCESPACNOR3160
012013100902CESP5       010CESP        PNA     N1   R$  000000000222000000000022200000000002220000000000222000000000022200000000002100000000000230000001000000000000000100000000000000222000000000000000009999123100000010000000000000BRCESPACNPA6108
012013100902CESP6       010CESP        PNB     N1   R$  000000000216600000000022330000000002166000000000221400000000022150000000002215000000000222203681000000000000619800000000001372417900000000000000009999123100000010000000000000BRCESPACNPB4119
012013100996CESP6F      020CESP        PNB     N1   R$  000000000219000000000022490000000002190000000000221000000000022250000000002190000000000224900011000000000000000256000000000000565956000000000000009999123100000010000000000000BRCESPACNPB4119
012013100962CESP6T      030CESP        PNB     N1030R$  000000000218200000000022020000000002182000000000219900000000022020000000000000000000000000000006000000000000003300000000000007259684000000000000009999123100000010000000000000BRCESPACNPB4119
012013100902CGAS5       010COMGAS      PNA          R$  000000000584900000000058490000000005763000000000584500000000058050000000005800000000000580500038000000000000097600000000000570501800000000000000009999123100000010000000000000BRCGASACNPA3129
012013100996CGAS5F      020COMGAS      PNA          R$  000000000572100000000058100000000005721000000000578200000000058100000000005502000000000610000003000000000000000078000000000000451039000000000000009999123100000010000000000000BRCGASACNPA3129
012013100962CGAS5T      030COMGAS      PNA       061R$  000000000593800000000059390000000005938000000000593800000000059390000000000000000000000000000002000000000000090000000000000534464073000000000000009999123100000010000000000000BRCGASACNPA3129
012013100902CGRA3       010GRAZZIOTIN  ON           R$  000000000166900000000016690000000001669000000000166900000000016690000000001642000000000166900001000000000000000400000000000000667600000000000000009999123100000010000000000000BRCGRAACNOR2061
012013100902CGRA4       010GRAZZIOTIN  PN           R$  000000000176000000000017650000000001750000000000176300000000017650000000001753000000000176500006000000000000001600000000000002821000000000000000009999123100000010000000000000BRCGRAACNPR9061
012013100996CGRA4F      020GRAZZIOTIN  PN           R$  000000000177000000000017700000000001760000000000176500000000017600000000001790000000000180000002000000000000000055000000000000097100000000000000009999123100000010000000000000BRCGRAACNPR9061
012013100902CIEL3       010CIELO       ON      NM   R$  000000000627300000000063370000000006200000000000627800000000063000000000006297000000000630006535000000000001475200000000009261720800000000000000009999123100000010000000000000BRCIELACNOR3112
012013100996CIEL3F      020CIELO       ON      NM   R$  000000000628000000000063390000000006199000000000627700000000063390000000006310000000000633900112000000000000003095000000000019434784000000000000009999123100000010000000000000BRCIELACNOR3112
012013100978CIELK67     070CIEL        ON      NM000R$  000000000003100000000000310000000000031000000000003100000000000310000000000000000000000000000001000000000000002300000000000000071300000000000670002013111800000010000000000000BRCIELACNOR3112
012013100978CIELL68     070CIEL        ON      NM000R$  000000000005200000000000520000000000052000000000005200000000000520000000000000000000000000000002000000000000002300000000000000119600000000000680002013121600000010000000000000BRCIELACNOR3112
012013100902CLSC4       010CELESC      PN      N2   R$  000000000187000000000018910000000001860000000000187500000000018800000000001880000000000189000068000000000000013000000000000024383400000000000000009999123100000010000000000000BRCLSCACNPR3107
012013100996CLSC4F      020CELESC      PN      N2   R$  000000000185000000000018650000000001850000000000185800000000018650000000001850000000000190000004000000000000000027000000000000050175000000000000009999123100000010000000000000BRCLSCACNPR3107
012013100902CMIG3       010CEMIG       ON      N1   R$  000000000192000000000019240000000001907000000000191900000000019200000000001920000000000192700193000000000000255600000000000490724300000000000000009999123100000010000000000000BRCMIGACNOR6208
012013100996CMIG3F      020CEMIG       ON      N1   R$  000000000193000000000019300000000001908000000000192100000000019250000000001916000000000198000016000000000000000406000000000000780170000000000000009999123100000010000000000000BRCMIGACNOR6208
012013100962CMIG3T      030CEMIG       ON      N1180R$  000000000200400000000020050000000002004000000000200400000000020050000000000000000000000000000002000000000000000800000000000001603633000000000000009999123100000010000000000000BRCMIGACNOR6208
012013100902CMIG4       010CEMIG       PN      N1   R$  000000000196500000000019650000000001938000000000195200000000019500000000001950000000000195206894000000000003227600000000006301065000000000000000009999123100000010000000000000BRCMIGACNPR3208
012013100996CMIG4F      020CEMIG       PN      N1   R$  000000000195200000000019750000000001943000000000195500000000019460000000001946000000000196000107000000000000002765000000000005407245000000000000009999123100000010000000000000BRCMIGACNPR3208
012013100962CMIG4T      030CEMIG       PN      N1016R$  000000000195900000000019600000000001959000000000195900000000019600000000000000000000000000000002000000000000003000000000000005878665000000000000009999123100000010000000000000BRCMIGACNPR3208
012013100962CMIG4T      030CEMIG       PN      N1030R$  000000000197000000000019710000000001970000000000197000000000019710000000000000000000000000000002000000000000000800000000000001576043000000000000009999123100000010000000000000BRCMIGACNPR3208
012013100962CMIG4T      030CEMIG       PN      N1090R$  000000000199700000000019980000000001997000000000199700000000019980000000000000000000000000000002000000000000028000000000000055935757000000000000009999123100000010000000000000BRCMIGACNPR3208
012013100962CMIG4T      030CEMIG       PN      N1180R$  000000000205000000000020510000000002034000000000203500000000020350000000000000000000000000000008000000000000015000000000000030531328000000000000009999123100000010000000000000BRCMIGACNPR3208
012013100978CMIGK20     070CMIG        PN      N1000R$  000000000004000000000000540000000000040000000000004500000000000540000000000000000000000000000003000000000000010000000000000000458000000000000200002013111800000010000000000000BRCMIGACNPR3208
012013100912CNES11B     010FII CENESP  CI      MB   R$  000000001260000000000127400000000012600000000001269500000000127400000000012511000000001274000009000000000000000551000000000006995442000000000000009999123100000010000000000000BRCNESCTF001126
012013100902COCA34      010COCA COLA   DRN          R$  000000000820800000000082080000000008208000000000820800000000082080000000008101000000000842500001000000000000011600000000000095212800000000000000009999123100000010000000000000BRCOCABDR002109
012013100902COCE3       010COELCE      ON           R$  000000000400100000000040300000000004000000000000401400000000040280000000004000000000000402900020000000000000005500000000000022079200000000000000009999123100000010000000000000BRCOCEACNOR0132
012013100902COCE5       010COELCE      PNA          R$  000000000387000000000038840000000003817000000000386100000000038730000000003872000000000387300114000000000000149200000000000576104500000000000000009999123100000010000000000000BRCOCEACNPA3133
012013100996COCE5F      020COELCE      PNA          R$  000000000387300000000039350000000003842000000000387100000000038650000000003852000000000393600013000000000000000178000000000000689186000000000000009999123100000010000000000000BRCOCEACNPA3133
012013100962COCE5T      030COELCE      PNA       061R$  000000000392100000000039220000000003921000000000392100000000039220000000000000000000000000000002000000000000126000000000000494057164000000000000009999123100000010000000000000BRCOCEACNPA3133
012013100902CPFE3       010CPFL ENERGIAON      NM   R$  000000000191000000000019970000000001907000000000193300000000019350000000001932000000000193504620000000000001593500000000003081233800000000000000009999123100000010000000000000BRCPFEACNOR0122
012013100996CPFE3F      020CPFL ENERGIAON      NM   R$  000000000192000000000019510000000001920000000000193800000000019340000000001927000000000195100038000000000000000987000000000001912215000000000000009999123100000010000000000000BRCPFEACNOR0122
012013100962CPFE3T      030CPFL ENERGIAON      NM016R$  000000000193800000000019470000000001938000000000194500000000019470000000000000000000000000000004000000000000007100000000000013812694000000000000009999123100000010000000000000BRCPFEACNOR0122
012013100902CPLE3       010COPEL       ON      N1   R$  000000000223500000000022630000000002221000000000223200000000022520000000002232000000000225300090000000000000023000000000000051344100000000000000009999123100000010000000000000BRCPLEACNOR8128
012013100996CPLE3F      020COPEL       ON      N1   R$  000000000223500000000022350000000002235000000000223500000000022350000000002244000000000239000002000000000000000040000000000000089400000000000000009999123100000010000000000000BRCPLEACNOR8128
012013100902CPLE6       010COPEL       PNB     N1   R$  000000000298500000000030120000000002972000000000298900000000029930000000002990000000000299302487000000000000751000000000002245216700000000000000009999123100000010000000000000BRCPLEACNPB9125
012013100996CPLE6F      020COPEL       PNB     N1   R$  000000000299100000000031850000000002976000000000301300000000030100000000002975000000000302000033000000000000001298000000000003911790000000000000009999123100000010000000000000BRCPLEACNPB9125
012013100902CPRE3       010CPFL RENOVAVON      NM   R$  000000000136500000000013670000000001350000000000135700000000013670000000001367000000000136800005000000000000000700000000000000950500000000000000009999123100000010000000000000BRCPREACNOR5100
012013100996CPRE3F      020CPFL RENOVAVON      NM   R$  000000000136000000000013600000000001350000000000135800000000013500000000001321000000000135000002000000000000000068000000000000092380000000000000009999123100000010000000000000BRCPREACNOR5100
012013100902CPTP3B      010CAPITALPART ON      MB   R$  000000000000800000000000080000000000008000000000000800000000000080000000000008000000000009000001000000000000001000000000000000008000000000000000009999123100000010000000000000BRCPTPACNOR7104
012013100902CRDE3       010CR2         ON      NM   R$  000000000039900000000003990000000000390000000000039100000000003900000000000390000000000039200009000000000000007400000000000002897900000000000000009999123100000010000000000000BRCRDEACNOR1108
012013100996CRDE3F      020CR2         ON      NM   R$  000000000038400000000003840000000000384000000000038400000000003840000000000384000000000042400001000000000000000001000000000000000384000000000000009999123100000010000000000000BRCRDEACNOR1108
012013100902CREM3       010CREMER      ON      NM   R$  000000000145100000000014510000000001445000000000144700000000014450000000001445000000000147500009000000000000001600000000000002316600000000000000009999123100000010000000000000BRCREMACNOR2167
012013100996CREM3F      020CREMER      ON      NM   R$  000000000143500000000014350000000001435000000000143500000000014350000000001401000000000150000002000000000000000058000000000000083230000000000000009999123100000010000000000000BRCREMACNOR2167
012013100902CRIV4       010ALFA FINANC PN           R$  000000000044000000000004400000000000438000000000043900000000004380000000000426000000000043800005000000000000003300000000000001449600000000000000009999123100000010000000000000BRCRIVACNPR1190
012013100902CRUZ3       010SOUZA CRUZ  ON           R$  000000000254000000000025830000000002524000000000255200000000025630000000002563000000000256605304000000000001672700000000004270377800000000000000009999123100000010000000000000BRCRUZACNOR0248
012013100996CRUZ3F      020SOUZA CRUZ  ON           R$  000000000255400000000025800000000002530000000000255500000000025800000000002571000000000259800043000000000000001499000000000003833688000000000000009999123100000010000000000000BRCRUZACNOR0248
012013100962CRUZ3S      030SOUZA CRUZ  ON        090R$  000000000262900000000026300000000002629000000000262900000000026300000000000000000000000000000002000000000000000600000000000001577929000000000000009999123100000010000000000000BRCRUZACNOR0248
012013100962CRUZ3T      030SOUZA CRUZ  ON        120R$  000000000264100000000026420000000002641000000000264100000000026420000000000000000000000000000002000000000000070000000000000184918244000000000000009999123100000010000000000000BRCRUZACNOR0248
012013100962CRUZ3T      030SOUZA CRUZ  ON        030R$  000000000257500000000025760000000002575000000000257500000000025760000000000000000000000000000002000000000000000500000000000001287976000000000000009999123100000010000000000000BRCRUZACNOR0248
012013100962CRUZ3T      030SOUZA CRUZ  ON        061R$  000000000258900000000025900000000002589000000000258900000000025900000000000000000000000000000002000000000000006900000000000017867554000000000000009999123100000010000000000000BRCRUZACNOR0248
012013100902CSAN3       010COSAN       ON      NM   R$  000000000441900000000044670000000004379000000000441500000000044670000000004455000000000446704760000000000001314400000000005804960400000000000000009999123100000010000000000000BRCSANACNOR6108
012013100996CSAN3F      020COSAN       ON      NM   R$  000000000442300000000044780000000004381000000000442300000000044770000000004436000000000447700075000000000000002246000000000009939235000000000000009999123100000010000000000000BRCSANACNOR6108
012013100962CSAN3T      030COSAN       ON      NM016R$  000000000445700000000044580000000004457000000000445700000000044580000000000000000000000000000002000000000000005600000000000024962152000000000000009999123100000010000000000000BRCSANACNOR6108
012013100962CSAN3T      030COSAN       ON      NM030R$  000000000443300000000044340000000004433000000000443300000000044340000000000000000000000000000004000000000000006800000000000030147392000000000000009999123100000010000000000000BRCSANACNOR6108
012013100962CSAN3T      030COSAN       ON      NM090R$  000000000450000000000045710000000004492000000000451300000000045710000000000000000000000000000010000000000000120000000000000541638612000000000000009999123100000010000000000000BRCSANACNOR6108
012013100962CSAN3T      030COSAN       ON      NM180R$  000000000462700000000046280000000004627000000000462700000000046280000000000000000000000000000002000000000000000200000000000000925528000000000000009999123100000010000000000000BRCSANACNOR6108
012013100978CSANK1      070CSANE       ON      NM000R$  000000000024000000000002400000000000240000000000024000000000002400000000000000000000000000000002000000000000012100000000000002904000000000000412502013111800000010000000000000BRCSANACNOR6108
012013100978CSANK42     070CSAN        ON      NM000R$  000000000040000000000004000000000000400000000000040000000000004000000000000000000000000000000002000000000000012100000000000004840000000000000420002013111800000010000000000000BRCSANACNOR6108
012013100978CSANK44     070CSAN        ON      NM000R$  000000000010000000000001000000000000100000000000010000000000001000000000000000000000000000000002000000000000012100000000000001210000000000000440002013111800000010000000000000BRCSANACNOR6108
012013100902CSCO34      010CISCO       DRN ED       R$  000000000499500000000049950000000004995000000000499500000000049950000000004920000000000500000001000000000000012700000000000063436500000000000000009999123100000010000000000000BRCSCOBDR004111
012013100902CSMG3       010COPASA      ON      NM   R$  000000000350400000000035300000000003467000000000350500000000034980000000003497000000000349801176000000000000174300000000000610919600000000000000009999123100000010000000000000BRCSMGACNOR5128
012013100996CSMG3F      020COPASA      ON      NM   R$  000000000355400000000035540000000003460000000000351900000000035540000000003460000000000355400014000000000000000413000000000001454160000000000000009999123100000010000000000000BRCSMGACNOR5128
012013100914CSMO11      010ISHARES CSMOCI           R$  000000000474400000000047440000000004732000000000473900000000047400000000004700000000000484700003000000000000000180000000000000853040000000000000009999123100000010000000000000BRCSMOCTF002100
012013100902CSNA3       010SID NACIONALON           R$  000000000100100000000010070000000000990000000000099800000000009920000000000992000000000099412054000000000006764900000000006751876800000000000000009999123100000010000000000000BRCSNAACNOR6243
012013100996CSNA3F      020SID NACIONALON           R$  000000000100500000000010050000000000990000000000099900000000009920000000000992000000000099500039000000000000001356000000000001355443000000000000009999123100000010000000000000BRCSNAACNOR6243
012013100962CSNA3T      030SID NACIONALON        061R$  000000000101200000000010130000000001012000000000101200000000010130000000000000000000000000000002000000000000002500000000000002532215000000000000009999123100000010000000000000BRCSNAACNOR6243
012013100962CSNA3T      030SID NACIONALON        120R$  000000000102900000000010300000000001020000000000102700000000010210000000000000000000000000000004000000000000001700000000000001747142000000000000009999123100000010000000000000BRCSNAACNOR6243
012013100978CSNAJ10     070CSNA  FM    ON        000R$  000000000002900000000000300000000000028000000000002900000000000290000000000018000000000003200007000000000000009200000000000000267600000000000100002013102100000010000000000000BRCSNAACNOR6243
012013100978CSNAJ11     070CSNA        ON        000R$  000000000000300000000000030000000000003000000000000300000000000030000000000000000000000000300002000000000000005000000000000000015000000000000110002013102100000010000000000000BRCSNAACNOR6243
012013100978CSNAJ20     070CSNA  FM    ON        000R$  000000000001600000000000180000000000016000000000001700000000000180000000000000000000000002100006000000000000021000000000000000357000000000000102002013102100000010000000000000BRCSNAACNOR6243
012013100978CSNAJ40     070CSNA  FM    ON        000R$  000000000001300000000000130000000000008000000000001000000000000110000000000000000000000000000034000000000000092400000000000001007800000000000104002013102100000010000000000000BRCSNAACNOR6243
012013100978CSNAJ60     070CSNA        ON        000R$  000000000000800000000000080000000000008000000000000800000000000080000000000000000000000000000009000000000000025400000000000000203200000000000106002013102100000010000000000000BRCSNAACNOR6243
012013100978CSNAJ8      070CSNA        ON        000R$  000000000022400000000002240000000000224000000000022400000000002240000000000000000000000000000001000000000000000100000000000000022400000000000078002013102100000010000000000000BRCSNAACNOR6242
012013100978CSNAJ86     070CSNA        ON        000R$  000000000016600000000001660000000000166000000000016600000000001660000000000000000000000000000003000000000000018000000000000002988000000000000084002013102100000010000000000000BRCSNAACNOR6242
012013100978CSNAJ9      070CSNA        ON        000R$  000000000012900000000001300000000000129000000000012900000000001300000000000000000000000017600003000000000000001000000000000000129500000000000088002013102100000010000000000000BRCSNAACNOR6242
012013100978CSNAJ94     070CSNA        ON        000R$  000000000006900000000000690000000000069000000000006900000000000690000000000030000000000000000001000000000000000400000000000000027600000000000094002013102100000010000000000000BRCSNAACNOR6243
012013100978CSNAJ96     070CSNA  FM    ON        000R$  000000000005400000000000570000000000048000000000005500000000000570000000000000000000000000000003000000000000003900000000000000214800000000000096002013102100000010000000000000BRCSNAACNOR6243
012013100978CSNAJ98     070CSNA  FM    ON        000R$  000000000004300000000000430000000000039000000000004100000000000410000000000003000000000000000016000000000000055500000000000002330100000000000098002013102100000010000000000000BRCSNAACNOR6243
012013100978CSNAK1      070CSNA  FM    ON        000R$  000000000005300000000000560000000000053000000000005400000000000560000000000000000000000000000002000000000000000200000000000000010900000000000100002013111800000010000000000000BRCSNAACNOR6243
012013100978CSNAK10     070CSNA  FM    ON        000R$  000000000006600000000000690000000000061000000000006500000000000690000000000000000000000007000007000000000000008900000000000000584700000000000098002013111800000010000000000000BRCSNAACNOR6242
012013100978CSNAK20     070CSNA  FM    ON        000R$  000000000004500000000000450000000000044000000000004400000000000450000000000000000000000000000004000000000000013400000000000000600600000000000102002013111800000010000000000000BRCSNAACNOR6243
012013100978CSNAK40     070CSNA  FM    ON        000R$  000000000003700000000000380000000000032000000000003600000000000360000000000000000000000000000014000000000000023000000000000000828600000000000104002013111800000010000000000000BRCSNAACNOR6243
012013100978CSNAK60     070CSNA        ON        000R$  000000000002900000000000290000000000029000000000002900000000000290000000000000000000000000000002000000000000000200000000000000005800000000000106002013111800000010000000000000BRCSNAACNOR6243
012013100978CSNAK9      070CSNA        ON        000R$  000000000012200000000001220000000000122000000000012200000000001220000000000000000000000000000001000000000000000500000000000000061000000000000090002013111800000010000000000000BRCSNAACNOR6243
012013100978CSNAK96     070CSNA  FM    ON        000R$  000000000008200000000000820000000000080000000000008100000000000800000000000000000000000000000002000000000000006900000000000000559000000000000096002013111800000010000000000000BRCSNAACNOR6243
012013100978CSNAL20     070CSNA        ON        000R$  000000000006000000000000600000000000060000000000006000000000000600000000000000000000000000000001000000000000004000000000000000240000000000000102002013121600000010000000000000BRCSNAACNOR6243
012013100978CSNAL9      070CSNA        ON        000R$  000000000015700000000001790000000000157000000000017100000000001770000000000000000000000000000014000000000000023000000000000003952000000000000084702013121600000010000000000000BRCSNAACNOR6241
012013100982CSNAV10     080CSNAE FM    ON        000R$  000000000002900000000000290000000000026000000000002800000000000260000000000025000000000006800003000000000000001000000000000000028000000000000100002013102100000010000000000000BRCSNAACNOR6243
012013100982CSNAV8      080CSNAE       ON        000R$  000000000000100000000000010000000000001000000000000100000000000010000000000000000000000000100002000000000000045000000000000000045000000000000078002013102100000010000000000000BRCSNAACNOR6242
012013100982CSNAV9      080CSNAE       ON        000R$  000000000000100000000000030000000000001000000000000200000000000030000000000003000000000002400037000000000000220700000000000000606400000000000088002013102100000010000000000000BRCSNAACNOR6242
012013100982CSNAV94     080CSNAE FM    ON        000R$  000000000000900000000000090000000000008000000000000800000000000080000000000000000000000000000023000000000000043800000000000000389200000000000094002013102100000010000000000000BRCSNAACNOR6243
012013100982CSNAV96     080CSNAE FM    ON        000R$  000000000001400000000000140000000000011000000000001300000000000110000000000000000000000000000003000000000000004800000000000000065100000000000096002013102100000010000000000000BRCSNAACNOR6243
