00COTAHIST.2013BOVESPA 20130718                                                                                                                                                                                                                      
012013071802AAPL11B     010APPLE       DRN     MB   R$  000000000964800000000096480000000009648000000000964800000000096480000000009550000000000965500001000000000000000300000000000002894400000000000000009999123100000010000000000000BRAAPLBDR004104
012013071810ABCB2       010ABC BRASIL  DIR PRE N2   R$  000000000015500000000001550000000000109000000000013900000000001090000000000080000000000000000035000000000000010100000000000001405900000000000000009999123100000010000000000000BRABCBD03PR5119
012013071896ABCB2F      020ABC BRASIL  DIR PRE N2   R$  000000000015100000000001980000000000132000000000016200000000001980000000000000000000000010900011000000000000000209000000000000033986000000000000009999123100000010000000000000BRABCBD03PR5119
012013071802ABCB4       010ABC BRASIL  PN      N2   R$  000000000121500000000012370000000001169000000000120600000000011820000000001180000000000118201720000000000000491900000000000593464000000000000000009999123100000010000000000000BRABCBACNPR4120
012013071896ABCB4F      020ABC BRASIL  PN      N2   R$  000000000123200000000012320000000001160000000000120700000000011600000000001172000000000122200017000000000000000376000000000000454150000000000000009999123100000010000000000000BRABCBACNPR4120
012013071812ABCP11      010FII ABC IMOBCI           R$  000000000088200000000009000000000000882000000000088700000000009000000000000900000000000096100005000000000000000248000000000000220067000000000000009999123100000010000000000000BRABCPCTF000213
012013071802ABRE11      010ABRIL EDUCA UNT     N2   R$  000000000398600000000040220000000003888000000000392500000000039000000000003897000000000390000573000000000000102800000000000403514300000000000000009999123100000010000000000000BRABRECDAM15102
012013071896ABRE11F     020ABRIL EDUCA UNT     N2   R$  000000000400900000000040090000000003900000000000393500000000039150000000003801000000000405400008000000000000000306000000000001204393000000000000009999123100000010000000000000BRABRECDAM15102
012013071802AEDU3       010ANHANGUERA  ON      NM   R$  000000000132400000000013240000000001291000000000130600000000013080000000001308000000000130903793000000000001434900000000001874443100000000000000009999123100000010000000000000BRAEDUACNOR9107
012013071896AEDU3F      020ANHANGUERA  ON      NM   R$  000000000133500000000013570000000001285000000000132100000000013570000000001290000000000135000008000000000000000366000000000000483809000000000000009999123100000010000000000000BRAEDUACNOR9107
012013071812AEFI11      010FII AESAPAR CI           R$  000000001237800000000123780000000012200000000001229500000000123250000000012200000000001236500087000000000000004634000000000056978227000000000000009999123100000010000000000000BRAEFICTF002119
012013071802AELP3       010AES ELPA    ON           R$  000000000073800000000007740000000000738000000000075500000000007430000000000743000000000076500010000000000000001200000000000000907000000000000000009999123100000010000000000000BRAELPACNOR2119
012013071896AELP3F      020AES ELPA    ON           R$  000000000075200000000007520000000000752000000000075200000000007520000000000700000000000000000001000000000000000022000000000000016544000000000000009999123100000010000000000000BRAELPACNOR2119
012013071812AGCX11      010FII AG CAIXACI           R$  000000010099900000001009990000000100500000000010067000000001007990000000100610000000010079900005000000000000000044000000000004429493000000000000009999123100000010000000000000BRAGCXCTF003108
012013071802AGEN11      010AGRENCO     DR3          R$  000000000005600000000000670000000000049000000000005700000000000500000000000050000000000005104950000000000053210200000000003057576000000000000000009999123100000010000000000000BRAGENBDR001100
012013071896AGEN11F     020AGRENCO     DR3          R$  000000000005200000000000670000000000046000000000006000000000000500000000000046000000000005200029000000000000000842000000000000050775000000000000009999123100000010000000000000BRAGENBDR001100
012013071802AGRO3       010BRASILAGRO  ON      NM   R$  000000000105600000000010560000000001043000000000105300000000010490000000001040000000000105000009000000000000024800000000000026133000000000000000009999123100000010000000000000BRAGROACNOR7102
012013071862AGRO3T      030BRASILAGRO  ON      NM032R$  000000000106400000000010650000000001064000000000106400000000010650000000000000000000000000000002000000000000020000000000000021284736000000000000009999123100000010000000000000BRAGROACNOR7102
012013071802ALLL3       010ALL AMER LATON      NM   R$  000000000086800000000008730000000000852000000000086000000000008650000000000864000000000086506040000000000003279700000000002823227900000000000000009999123100000010000000000000BRALLLACNOR6118
012013071896ALLL3F      020ALL AMER LATON      NM   R$  000000000088000000000008800000000000853000000000086000000000008640000000000861000000000089100027000000000000001076000000000000925527000000000000009999123100000010000000000000BRALLLACNOR6118
012013071862ALLL3T      030ALL AMER LATON      NM032R$  000000000086600000000008670000000000866000000000086600000000008670000000000000000000000000000002000000000000002000000000000001733537000000000000009999123100000010000000000000BRALLLACNOR6118
012013071862ALLL3T      030ALL AMER LATON      NM151R$  000000000089100000000008920000000000891000000000089100000000008920000000000000000000000000000002000000000000004000000000000003567968000000000000009999123100000010000000000000BRALLLACNOR6118
012013071812ALMI11B     010FII TORRE ALCI      MB   R$  000000031300100000003169000000000313000000000031549200000003150000000000312000000000031600000006000000000000000014000000000004416901000000000000009999123100000010000000000000BRALMICTF003203
012013071802ALPA3       010ALPARGATAS  ON      N1   R$  000000000103700000000010370000000001037000000000103700000000010370000000001036000000000107400001000000000000000100000000000000103700000000000000009999123100000010000000000000BRALPAACNOR0202
012013071802ALPA4       010ALPARGATAS  PN      N1   R$  000000000134300000000013550000000001327000000000134100000000013400000000001335000000000134401138000000000000290900000000000390119900000000000000009999123100000010000000000000BRALPAACNPR7202
012013071896ALPA4F      020ALPARGATAS  PN      N1   R$  000000000132500000000013500000000001325000000000133500000000013380000000001335000000000135000008000000000000000247000000000000329930000000000000009999123100000010000000000000BRALPAACNPR7202
012013071802ALSC3       010ALIANSCE    ON      NM   R$  000000000201000000000020350000000001980000000000201300000000020250000000002015000000000202501626000000000000374400000000000753762800000000000000009999123100000010000000000000BRALSCACNOR0104
012013071896ALSC3F      020ALIANSCE    ON      NM   R$  000000000200200000000020260000000002002000000000202200000000020260000000001805000000000211700005000000000000000114000000000000230554000000000000009999123100000010000000000000BRALSCACNOR0104
012013071802ALUP11      010ALUPAR      UNT     N2   R$  000000000181400000000018140000000001778000000000178500000000017800000000001775000000000178000311000000000000122700000000000219102400000000000000009999123100000010000000000000BRALUPCDAM15100
012013071896ALUP11F     020ALUPAR      UNT     N2   R$  000000000178000000000017850000000001780000000000178400000000017840000000001656000000000180000009000000000000000247000000000000440766000000000000009999123100000010000000000000BRALUPCDAM15100
012013071802AMAR3       010LOJAS MARISAON      NM   R$  000000000220100000000022340000000002160000000000220600000000022200000000002204000000000222000703000000000000462900000000001021388000000000000000009999123100000010000000000000BRAMARACNOR4109
012013071896AMAR3F      020LOJAS MARISAON      NM   R$  000000000221200000000022120000000002192000000000220000000000022110000000002190000000000220400005000000000000000077000000000000169414000000000000009999123100000010000000000000BRAMARACNOR4109
012013071802AMBV3       010AMBEV       ON           R$  000000000810000000000081490000000007970000000000803800000000080200000000008012000000000802001263000000000000257200000000002067389000000000000000009999123100000010000000000000BRAMBVACNOR4153
012013071896AMBV3F      020AMBEV       ON           R$  000000000811500000000082980000000008000000000000807700000000080010000000008001000000000828800051000000000000001355000000000010940236000000000000009999123100000010000000000000BRAMBVACNOR4153
012013071862AMBV3T      030AMBEV       ON        018R$  000000000808800000000080890000000008088000000000808800000000080890000000000000000000000000000002000000000000000500000000000004044013000000000000009999123100000010000000000000BRAMBVACNOR4153
012013071802AMBV4       010AMBEV       PN           R$  000000000818800000000082250000000008026000000000807700000000080660000000008060000000000806604903000000000001565700000000012647192700000000000000009999123100000010000000000000BRAMBVACNPR1153
012013071896AMBV4F      020AMBEV       PN           R$  000000000820000000000082290000000008006000000000809800000000080920000000008035000000000809200181000000000000003713000000000030068593000000000000009999123100000010000000000000BRAMBVACNPR1153
012013071862AMBV4T      030AMBEV       PN        018R$  000000000810900000000081100000000008109000000000810900000000081100000000000000000000000000000002000000000000000400000000000003243889000000000000009999123100000010000000000000BRAMBVACNPR1153
012013071862AMBV4T      030AMBEV       PN        032R$  000000000812500000000081340000000008125000000000812500000000081340000000000000000000000000000004000000000000017100000000000138940743000000000000009999123100000010000000000000BRAMBVACNPR1153
012013071862AMBV4T      030AMBEV       PN        046R$  000000000815000000000081510000000008150000000000815000000000081510000000000000000000000000000002000000000000000100000000000000815050000000000000009999123100000010000000000000BRAMBVACNPR1153
012013071862AMBV4T      030AMBEV       PN        060R$  000000000816800000000081690000000008168000000000816800000000081690000000000000000000000000000002000000000000011500000000000093937221000000000000009999123100000010000000000000BRAMBVACNPR1153
012013071878AMBVH84     070AMBV        PN        000R$  000000000009100000000000920000000000090000000000009000000000000900000000000059000000000016000003000000000000004300000000000000387300000000000840002013081900000010000000000000BRAMBVACNPR1153
012013071878AMBVH85     070AMBV        PN        000R$  000000000006700000000000670000000000067000000000006700000000000670000000000000000000000015000002000000000000000200000000000000013400000000000850002013081900000010000000000000BRAMBVACNPR1153
012013071802AORE3       010ALL ORE     ON           R$  000000000014000000000001400000000000140000000000014000000000001400000000000120000000000014000001000000000000000100000000000000014000000000000000009999123100000010000000000000BRAOREACNOR2100
012013071802ARTR3       010ARTERIS     ON      NM   R$  000000000205500000000020550000000002025000000000203900000000020400000000002039000000000204003989000000000004815000000000009819772600000000000000009999123100000010000000000000BRARTRACNOR3101
012013071896ARTR3F      020ARTERIS     ON      NM   R$  000000000203900000000021080000000002023000000000203900000000020450000000002033000000000204800031000000000000000796000000000001623719000000000000009999123100000010000000000000BRARTRACNOR3101
012013071802ARZZ3       010AREZZO CO   ON      NM   R$  000000000366700000000037400000000003541000000000362000000000035660000000003566000000000358801279000000000000309900000000001122139600000000000000009999123100000010000000000000BRARZZACNOR3108
012013071896ARZZ3F      020AREZZO CO   ON      NM   R$  000000000361000000000036300000000003500000000000357200000000035510000000003552000000000360800015000000000000000522000000000001864759000000000000009999123100000010000000000000BRARZZACNOR3108
012013071802AUTM3       010AUTOMETAL   ON      NM   R$  000000000180000000000018000000000001764000000000178900000000017980000000001782000000000180000099000000000000032000000000000057264800000000000000009999123100000010000000000000BRAUTMACNOR8109
012013071802AXPB11B     010AMERICAN EXPDRN     MB   R$  000000001652000000000165200000000016520000000001652000000000165200000000016055000000001686800001000000000000000100000000000001652000000000000000009999123100000010000000000000BRAXPBBDR007105
012013071802AZEV4       010AZEVEDO     PN           R$  000000000015000000000001570000000000150000000000015300000000001500000000000135000000000015000006000000000000004000000000000000614300000000000000009999123100000010000000000000BRAZEVACNPR7113
012013071802BAHI3       010BAHEMA      ON           R$  000000000052000000000005200000000000500000000000050800000000005000000000000491000000000051500003000000000000001000000000000000508000000000000000009999123100000010000000000000BRBAHIACNOR1066
012013071802BALM4       010BAUMER      PN           R$  000000000750000000000075000000000007500000000000750000000000075000000000005500000000000000000001000000000000000100000000000000750000000000000000009999123100000010000000000000BRBALMACNPR2043
012013071802BAUH4       010EXCELSIOR   PN           R$  000000000098000000000010000000000000945000000000095100000000009450000000000945000000000100000005000000000000002400000000000002284000000000000000009999123100000010000000000000BRBAUHACNPR3108
012013071802BAZA3       010AMAZONIA    ON           R$  000000000003400000000000340000000000034000000000003400000000000340000000000033000000000003400007000000000000049000000000000001666000000000000000009999123100000010000000000000BRBAZAACNOR0163
012013071896BAZA3F      020AMAZONIA    ON           R$  000000000003400000000000350000000000034000000000003400000000000350000000000033000000000003500002000000000000000500000000000000017182000000000000009999123100000010000000000000BRBAZAACNOR0163
012013071802BBAS3       010BRASIL      ON      NM   R$  000000000223000000000022870000000002223000000000225400000000022590000000002256000000000225908357000000000003478300000000007843356200000000000000009999123100000010000000000000BRBBASACNOR3237
012013071896BBAS3F      020BRASIL      ON      NM   R$  000000000221000000000022850000000002210000000000225500000000022490000000002249000000000226000186000000000000005195000000000011714770000000000000009999123100000010000000000000BRBBASACNOR3237
012013071862BBAS3T      030BRASIL      ON      NM018R$  000000000224400000000022450000000002243000000000224300000000022440000000000000000000000000000004000000000000002000000000000004487323000000000000009999123100000010000000000000BRBBASACNOR3237
012013071862BBAS3T      030BRASIL      ON      NM025R$  000000000226800000000022690000000002268000000000226800000000022690000000000000000000000000000002000000000000046000000000000104362753000000000000009999123100000010000000000000BRBBASACNOR3237
012013071862BBAS3T      030BRASIL      ON      NM123R$  000000000230900000000023100000000002309000000000230900000000023100000000000000000000000000000002000000000000001000000000000002309175000000000000009999123100000010000000000000BRBBASACNOR3237
012013071862BBAS3T      030BRASIL      ON      NM180R$  000000000234000000000023410000000002340000000000234000000000023410000000000000000000000000000002000000000000000200000000000000468070000000000000009999123100000010000000000000BRBBASACNOR3237
012013071878BBASH20     070BBAS        ON      NM000R$  000000000025900000000002960000000000259000000000029400000000002940000000000000000000000032200003000000000000004300000000000001266700000000000200002013081900000010000000000000BRBBASACNOR3237
012013071878BBASH21     070BBAS  FM    ON      NM000R$  000000000019800000000002370000000000186000000000021300000000002130000000000072000000000026700182000000000000290900000000000062240400000000000207602013081900000010000000000000BRBBASACNOR3236
012013071878BBASH22     070BBAS  FM    ON      NM000R$  000000000012100000000001540000000000111000000000013400000000001290000000000117000000000013300131000000000000195800000000000026255800000000000217602013081900000010000000000000BRBBASACNOR3236
012013071878BBASH23     070BBAS  FM    ON      NM000R$  000000000006600000000000850000000000057000000000007700000000000600000000000060000000000008400160000000000000319100000000000024798500000000000227602013081900000010000000000000BRBBASACNOR3236
012013071878BBASH24     070BBAS  FM    ON      NM000R$  000000000004500000000000650000000000041000000000004900000000000520000000000045000000000005500112000000000000159900000000000007864200000000000231702013081900000010000000000000BRBBASACNOR3233
012013071878BBASH25     070BBAS  FM    ON      NM000R$  000000000001700000000000290000000000016000000000002300000000000210000000000015000000000002200074000000000000065800000000000001544500000000000241702013081900000010000000000000BRBBASACNOR3233
012013071878BBASH26     070BBAS        ON      NM000R$  000000000000500000000000050000000000005000000000000500000000000050000000000002000000000000600002000000000000003400000000000000017000000000000256602013081900000010000000000000BRBBASACNOR3235
012013071878BBASH27     070BBAS        ON      NM000R$  000000000000300000000000040000000000003000000000000300000000000040000000000002000000000000400002000000000000003300000000000000010200000000000266602013081900000010000000000000BRBBASACNOR3235
012013071878BBASH28     070BBAS        ON      NM000R$  000000000000200000000000020000000000002000000000000200000000000020000000000000000000000000400001000000000000010000000000000000020000000000000276602013081900000010000000000000BRBBASACNOR3235
012013071878BBASI21     070BBAS  FM    ON      NM000R$  000000000020700000000002440000000000197000000000022000000000002210000000000000000000000000000075000000000000137000000000000030267200000000000210002013091600000010000000000000BRBBASACNOR3237
012013071878BBASI22     070BBAS  FM    ON      NM000R$  000000000015400000000001860000000000145000000000016600000000001660000000000010000000000017600063000000000000392000000000000065194200000000000217602013091600000010000000000000BRBBASACNOR3236
012013071878BBASI23     070BBAS  FM    ON      NM000R$  000000000009200000000001200000000000092000000000010600000000001070000000000090000000000000000033000000000000037100000000000003959600000000000227602013091600000010000000000000BRBBASACNOR3236
012013071878BBASI24     070BBAS  FM    ON      NM000R$  000000000005400000000000660000000000052000000000006000000000000620000000000051000000000006100007000000000000010300000000000000623300000000000237602013091600000010000000000000BRBBASACNOR3236
012013071878BBASI25     070BBAS  FM    ON      NM000R$  000000000003500000000000400000000000034000000000003700000000000340000000000030000000000004400008000000000000005500000000000000206500000000000246602013091600000010000000000000BRBBASACNOR3235
012013071878BBASI26     070BBAS        ON      NM000R$  000000000002100000000000210000000000021000000000002100000000000210000000000011000000000002200001000000000000002500000000000000052500000000000256602013091600000010000000000000BRBBASACNOR3235
012013071878BBASJ23     070BBAS        ON      NM000R$  000000000014200000000001420000000000140000000000014100000000001400000000000000000000000000000002000000000000000500000000000000070800000000000226602013102100000010000000000000BRBBASACNOR3235
012013071878BBASJ25     070BBAS        ON      NM000R$  000000000005800000000000580000000000058000000000005800000000000580000000000000000000000000000002000000000000002500000000000000145000000000000250002013102100000010000000000000BRBBASACNOR3237
012013071878BBASJ27     070BBAS        ON      NM000R$  000000000002500000000000260000000000025000000000002500000000000260000000000004000000000000000002000000000000006000000000000000153000000000000266602013102100000010000000000000BRBBASACNOR3235
012013071878BBASJ28     070BBAS        ON      NM000R$  000000000001200000000000140000000000012000000000001300000000000140000000000003000000000000000007000000000000019000000000000000252000000000000280002013102100000010000000000000BRBBASACNOR3237
012013071878BBASJ29     070BBAS        ON      NM000R$  000000000000900000000000110000000000009000000000001000000000000110000000000002000000000000000003000000000000009000000000000000090000000000000286602013102100000010000000000000BRBBASACNOR3235
012013071878BBASJ30     070BBAS        ON      NM000R$  000000000000600000000000070000000000006000000000000600000000000070000000000000000000000000000002000000000000006000000000000000039000000000000296602013102100000010000000000000BRBBASACNOR3235
012013071878BBASJ56     070BBAS        ON      NM000R$  000000000003200000000000320000000000032000000000003200000000000320000000000000000000000000000001000000000000003000000000000000096000000000000261602013102100000010000000000000BRBBASACNOR3235
012013071878BBASK22     070BBAS        ON      NM000R$  000000000020000000000002000000000000200000000000020000000000002000000000000000000000000000000001000000000000000300000000000000060000000000000220002013111800000010000000000000BRBBASACNOR3237
012013071878BBASK23     070BBAS        ON      NM000R$  000000000014400000000001440000000000144000000000014400000000001440000000000000000000000000000001000000000000000300000000000000043200000000000230002013111800000010000000000000BRBBASACNOR3237
012013071878BBASK27     070BBAS        ON      NM000R$  000000000003200000000000320000000000032000000000003200000000000320000000000000000000000000000001000000000000000200000000000000006400000000000267602013111800000010000000000000BRBBASACNOR3236
012013071878BBASK30     070BBAS        ON      NM000R$  000000000000900000000000090000000000009000000000000900000000000090000000000000000000000000000001000000000000000200000000000000001800000000000300002013111800000010000000000000BRBBASACNOR3237
012013071882BBAST18     080BBASE       ON      NM000R$  000000000000400000000000040000000000004000000000000400000000000040000000000001000000000000000001000000000000000100000000000000000400000000000180002013081900000010000000000000BRBBASACNOR3237
012013071882BBAST19     080BBASE       ON      NM000R$  000000000000400000000000060000000000004000000000000500000000000060000000000001000000000000000002000000000000000800000000000000004200000000000190002013081900000010000000000000BRBBASACNOR3237
012013071882BBAST21     080BBASE FM    ON      NM000R$  000000000002000000000000210000000000017000000000001900000000000190000000000010000000000004000012000000000000019200000000000000365600000000000207602013081900000010000000000000BRBBASACNOR3236
012013071882BBAST22     080BBASE FM    ON      NM000R$  000000000004700000000000470000000000033000000000003900000000000400000000000033000000000006200018000000000000033000000000000001293100000000000217602013081900000010000000000000BRBBASACNOR3236
012013071882BBAST23     080BBASE FM    ON      NM000R$  000000000008700000000000880000000000066000000000007700000000000760000000000000000000000000000042000000000000092600000000000007197700000000000227602013081900000010000000000000BRBBASACNOR3236
012013071882BBAST24     080BBASE       ON      NM000R$  000000000011200000000001120000000000102000000000010500000000001020000000000000000000000000000003000000000000008000000000000000844000000000000231702013081900000010000000000000BRBBASACNOR3233
012013071882BBASU20     080BBASE FM    ON      NM000R$  000000000002600000000000260000000000023000000000002500000000000230000000000000000000000000000002000000000000005000000000000000127000000000000200002013091600000010000000000000BRBBASACNOR3237
012013071882BBASU21     080BBASE FM    ON      NM000R$  000000000004400000000000450000000000039000000000004200000000000390000000000000000000000000000004000000000000006200000000000000264300000000000210002013091600000010000000000000BRBBASACNOR3237
012013071882BBASU22     080BBASE FM    ON      NM000R$  000000000006700000000000670000000000052000000000006000000000000610000000000000000000000000000010000000000000320400000000000019459100000000000217602013091600000010000000000000BRBBASACNOR3236
012013071882BBASU23     080BBASE FM    ON      NM000R$  000000000010800000000001090000000000089000000000009800000000001010000000000000000000000000000015000000000000029600000000000002924000000000000227602013091600000010000000000000BRBBASACNOR3236
012013071882BBASV19     080BBASE       ON      NM000R$  000000000002500000000000250000000000025000000000002500000000000250000000000000000000000000000001000000000000003000000000000000075000000000000190002013102100000010000000000000BRBBASACNOR3237
012013071882BBASV20     080BBASE       ON      NM000R$  000000000004200000000000420000000000042000000000004200000000000420000000000000000000000012000001000000000000003000000000000000126000000000000200002013102100000010000000000000BRBBASACNOR3237
012013071882BBASV23     080BBASE       ON      NM000R$  000000000010600000000001060000000000106000000000010600000000001060000000000000000000000000000001000000000000001200000000000000127200000000000226602013102100000010000000000000BRBBASACNOR3235
012013071882BBASV26     080BBASE       ON      NM000R$  000000000029100000000002910000000000291000000000029100000000002910000000000000000000000000000001000000000000002600000000000000756600000000000256602013102100000010000000000000BRBBASACNOR3235
012013071882BBASV53     080BBASE       ON      NM000R$  000000000013200000000001320000000000132000000000013200000000001320000000000000000000000000000001000000000000001200000000000000158400000000000231602013102100000010000000000000BRBBASACNOR3235
012013071882BBASV56     080BBASE       ON      NM000R$  000000000033000000000003350000000000330000000000033200000000003350000000000000000000000000000002000000000000005600000000000001861000000000000261602013102100000010000000000000BRBBASACNOR3235
012013071802BBDC3       010BRADESCO    ON      N1   R$  000000000326100000000033620000000003186000000000323100000000031860000000003186000000000319809075000000000004708200000000015215431900000000000000009999123100000010000000000000BRBBDCACNOR1604
012013071896BBDC3F      020BRADESCO    ON      N1   R$  000000000320200000000032950000000003150000000000322600000000032060000000003190000000000322800073000000000000002238000000000007221169000000000000009999123100000010000000000000BRBBDCACNOR1604
012013071802BBDC4       010BRADESCO    PN      N1   R$  000000000285500000000028880000000002821000000000284000000000028220000000002822000000000282519514000000000008957400000000025445745700000000000000009999123100000010000000000000BRBBDCACNPR8604
012013071896BBDC4F      020BRADESCO    PN      N1   R$  000000000286400000000028840000000002822000000000284400000000028390000000002835000000000283900186000000000000004986000000000014179219000000000000009999123100000010000000000000BRBBDCACNPR8604
012013071862BBDC4T      030BRADESCO    PN      N1018R$  000000000285100000000028550000000002851000000000285200000000028550000000000000000000000000000004000000000000003000000000000008558995000000000000009999123100000010000000000000BRBBDCACNPR8604
012013071862BBDC4T      030BRADESCO    PN      N1032R$  000000000284900000000028500000000002849000000000284900000000028500000000000000000000000000000004000000000000000400000000000001139924000000000000009999123100000010000000000000BRBBDCACNPR8604
012013071862BBDC4T      030BRADESCO    PN      N1060R$  000000000291400000000029150000000002914000000000291400000000029150000000000000000000000000000002000000000000140000000000000408086291000000000000009999123100000010000000000000BRBBDCACNPR8604
012013071862BBDC4T      030BRADESCO    PN      N1123R$  000000000294400000000029450000000002944000000000294400000000029450000000000000000000000000000002000000000000005000000000000014723100000000000000009999123100000010000000000000BRBBDCACNPR8604
012013071878BBDCH25     070BBDC        PN      N1000R$  000000000037600000000004020000000000376000000000039300000000003970000000000000000000000000000007000000000000018000000000000007080000000000000248002013081900000010000000000000BRBBDCACNPR8602
012013071878BBDCH26     070BBDC        PN      N1000R$  000000000028500000000003310000000000285000000000029500000000002930000000000257000000000000000018000000000000031500000000000009301000000000000258002013081900000010000000000000BRBBDCACNPR8602
012013071878BBDCH27     070BBDC        PN      N1000R$  000000000021600000000002530000000000203000000000022600000000002120000000000181000000000024800174000000000000273200000000000061861900000000000268002013081900000010000000000000BRBBDCACNPR8602
012013071878BBDCH28     070BBDC        PN      N1000R$  000000000014700000000001760000000000133000000000014900000000001420000000000130000000000016500293000000000000344600000000000051431700000000000278002013081900000010000000000000BRBBDCACNPR8602
012013071878BBDCH29     070BBDC        PN      N1000R$  000000000008500000000001140000000000080000000000009200000000000860000000000082000000000011100391000000000000368300000000000034166700000000000288002013081900000010000000000000BRBBDCACNPR8602
012013071878BBDCH30     070BBDC        PN      N1000R$  000000000004100000000000620000000000041000000000005200000000000480000000000042000000000005000290000000000000391000000000000020669100000000000298002013081900000010000000000000BRBBDCACNPR8602
012013071878BBDCH31     070BBDC        PN      N1000R$  000000000002200000000000320000000000022000000000002900000000000240000000000015000000000002500020000000000000031500000000000000923700000000000307602013081900000010000000000000BRBBDCACNPR8600
012013071878BBDCH32     070BBDC        PN      N1000R$  000000000001200000000000140000000000012000000000001200000000000140000000000006000000000001300005000000000000008200000000000000100800000000000318002013081900000010000000000000BRBBDCACNPR8602
012013071878BBDCH34     070BBDC        PN      N1000R$  000000000002800000000000380000000000028000000000003400000000000350000000000026000000000003800015000000000000031400000000000001088500000000000305502013081900000010000000000000BRBBDCACNPR8595
012013071878BBDCI26     070BBDC        PN      N1000R$  000000000030200000000003020000000000302000000000030200000000003020000000000000000000000000000001000000000000004000000000000001208000000000000260002013091600000010000000000000BRBBDCACNPR8604
012013071878BBDCI27     070BBDC        PN      N1000R$  000000000024800000000002870000000000240000000000025800000000002490000000000242000000000000000115000000000000225900000000000058332600000000000268002013091600000010000000000000BRBBDCACNPR8602
012013071878BBDCI28     070BBDC        PN      N1000R$  000000000017900000000002130000000000172000000000019200000000001780000000000000000000000000000085000000000000108000000000000020824600000000000278002013091600000010000000000000BRBBDCACNPR8602
012013071878BBDCI29     070BBDC        PN      N1000R$  000000000011700000000001510000000000117000000000013300000000001250000000000101000000000000000047000000000000054200000000000007226000000000000288002013091600000010000000000000BRBBDCACNPR8602
012013071878BBDCI30     070BBDC        PN      N1000R$  000000000008100000000000980000000000079000000000008500000000000790000000000062000000000008500082000000000000171800000000000014772800000000000298002013091600000010000000000000BRBBDCACNPR8602
012013071878BBDCI32     070BBDC        PN      N1000R$  000000000003400000000000350000000000032000000000003400000000000350000000000021000000000000000012000000000000022100000000000000751800000000000318002013091600000010000000000000BRBBDCACNPR8602
012013071878BBDCI81     070BBDC        PN      N1000R$  000000000004900000000000610000000000044000000000005100000000000490000000000000000000000000000066000000000000159500000000000008158000000000000308002013091600000010000000000000BRBBDCACNPR8602
012013071878BBDCI85     070BBDC        ON      N1000R$  000000000010800000000001080000000000086000000000009700000000000860000000000000000000000000000005000000000000200000000000000019490000000000000350002013091600000010000000000000BRBBDCACNOR1604
012013071878BBDCJ25     070BBDC        PN      N1000R$  000000000044100000000004430000000000427000000000044000000000004270000000000000000000000000000003000000000000006800000000000002993600000000000249802013102100000010000000000000BRBBDCACNPR8603
012013071878BBDCJ26     070BBDC        PN      N1000R$  000000000035600000000003630000000000349000000000035600000000003490000000000000000000000000000003000000000000008000000000000002855000000000000260002013102100000010000000000000BRBBDCACNPR8604
012013071878BBDCJ27     070BBDC        PN      N1000R$  000000000030500000000003050000000000290000000000029700000000002900000000000000000000000000000002000000000000005800000000000001727000000000000268002013102100000010000000000000BRBBDCACNPR8602
012013071878BBDCJ29     070BBDC        PN      N1000R$  000000000016900000000001690000000000169000000000016900000000001690000000000000000000000000000001000000000000003000000000000000507000000000000288002013102100000010000000000000BRBBDCACNPR8602
012013071878BBDCJ30     070BBDC        PN      N1000R$  000000000011800000000001320000000000118000000000012400000000001230000000000000000000000000000003000000000000009000000000000001119000000000000298002013102100000010000000000000BRBBDCACNPR8602
012013071882BBDCO2      080BBDCE       PN      N1000R$  000000000021500000000002360000000000215000000000022500000000002360000000000000000000000000000002000000000000002400000000000000541200000000000294902014031700000010000000000000BRBBDCACNPR8604
012013071882BBDCT24     080BBDCE       PN      N1000R$  000000000000500000000000110000000000005000000000000900000000000080000000000000000000000001000018000000000000235000000000000002130000000000000238002013081900000010000000000000BRBBDCACNPR8602
012013071882BBDCT25     080BBDCE       PN      N1000R$  000000000001100000000000170000000000011000000000001300000000000160000000000000000000000001600004000000000000016100000000000000218100000000000248002013081900000010000000000000BRBBDCACNPR8602
012013071882BBDCT26     080BBDCE       PN      N1000R$  000000000002100000000000240000000000019000000000002000000000000240000000000000000000000002500015000000000000032300000000000000666900000000000258002013081900000010000000000000BRBBDCACNPR8602
012013071882BBDCT27     080BBDCE       PN      N1000R$  000000000003500000000000450000000000032000000000003800000000000430000000000022000000000000000106000000000000232400000000000008907400000000000268002013081900000010000000000000BRBBDCACNPR8602
012013071882BBDCT28     080BBDCE       PN      N1000R$  000000000006900000000000780000000000056000000000006600000000000760000000000000000000000000000097000000000000142100000000000009436300000000000278002013081900000010000000000000BRBBDCACNPR8602
012013071882BBDCT29     080BBDCE       PN      N1000R$  000000000010400000000001230000000000089000000000010800000000001220000000000000000000000000000283000000000000341300000000000037164700000000000288002013081900000010000000000000BRBBDCACNPR8602
012013071882BBDCT30     080BBDCE       PN      N1000R$  000000000014800000000001680000000000145000000000015400000000001650000000000000000000000000000023000000000000042900000000000006623900000000000298002013081900000010000000000000BRBBDCACNPR8602
012013071882BBDCT34     080BBDCE       PN      N1000R$  000000000023000000000002300000000000195000000000021700000000002190000000000000000000000000000021000000000000040600000000000008813800000000000305502013081900000010000000000000BRBBDCACNPR8595
012013071882BBDCU25     080BBDCE       PN      N1000R$  000000000002800000000000280000000000028000000000002800000000000280000000000000000000000000000003000000000000012000000000000000336000000000000250002013091600000010000000000000BRBBDCACNPR8604
012013071882BBDCU26     080BBDCE       PN      N1000R$  000000000004200000000000450000000000039000000000004200000000000450000000000000000000000000000011000000000000023100000000000000985300000000000260002013091600000010000000000000BRBBDCACNPR8604
012013071882BBDCU27     080BBDCE       PN      N1000R$  000000000006100000000000640000000000050000000000006000000000000640000000000000000000000000000021000000000000037400000000000002265700000000000268002013091600000010000000000000BRBBDCACNPR8602
012013071882BBDCU28     080BBDCE       PN      N1000R$  000000000009000000000000950000000000081000000000009000000000000920000000000000000000000000000026000000000000038800000000000003509300000000000278002013091600000010000000000000BRBBDCACNPR8602
012013071882BBDCU29     080BBDCE       PN      N1000R$  000000000013300000000001410000000000115000000000013000000000001400000000000000000000000000000053000000000000092500000000000012029300000000000288002013091600000010000000000000BRBBDCACNPR8602
012013071882BBDCU30     080BBDCE       PN      N1000R$  000000000018300000000001830000000000171000000000017900000000001710000000000000000000000000000002000000000000003000000000000000537000000000000298002013091600000010000000000000BRBBDCACNPR8602
012013071882BBDCU31     080BBDCE       PN      N1000R$  000000000007500000000000750000000000075000000000007500000000000750000000000000000000000000000001000000000000005000000000000000375000000000000273102013091600000010000000000000BRBBDCACNPR8590
012013071882BBDCU33     080BBDCE       PN      N1000R$  000000000018500000000001850000000000161000000000017400000000001610000000000000000000000000000004000000000000006900000000000001204900000000000297402013091600000010000000000000BRBBDCACNPR8598
012013071882BBDCU68     080BBDCE       ON      N1000R$  000000000001400000000000150000000000014000000000001400000000000150000000000000000000000000000004000000000000500000000000000007250000000000000280002013091600000010000000000000BRBBDCACNOR1604
012013071882BBDCU72     080BBDCE       ON      N1000R$  000000000009000000000001180000000000090000000000009800000000001180000000000000000000000000000007000000000000350000000000000034370000000000000320002013091600000010000000000000BRBBDCACNOR1604
012013071882BBDCV31     080BBDCE       PN      N1000R$  000000000027400000000002740000000000274000000000027400000000002740000000000000000000000000000001000000000000002000000000000000548000000000000308002013102100000010000000000000BRBBDCACNPR8602
012013071812BBFI11B     010FII BB PROGRCI      MB   R$  000000042060300000004220000000000415599000000041909300000004220000000000420000000000042400000020000000000000000084000000000035203836000000000000009999123100000010000000000000BRBBFICTF006196
012013071812BBPO11      010FII BB PRGIICI           R$  000000001089900000000109000000000010826000000001084700000000108900000000010890000000001089800863000000000000052527000000000569800528000000000000009999123100000010000000000000BRBBPOCTF003108
012013071812BBRC11      010FII BB CORP CI           R$  000000000974900000000097490000000009502000000000969200000000096010000000009501000000000960000008000000000000000400000000000003877101000000000000009999123100000010000000000000BRBBRCCTF004122
012013071802BBRK3       010BR BROKERS  ON      NM   R$  000000000055700000000005810000000000557000000000057000000000005690000000000566000000000056902606000000000001596300000000000911254000000000000000009999123100000010000000000000BRBBRKACNOR4108
012013071896BBRK3F      020BR BROKERS  ON      NM   R$  000000000057300000000005730000000000548000000000056400000000005480000000000548000000000069500003000000000000000201000000000000113408000000000000009999123100000010000000000000BRBBRKACNOR4108
012013071802BBSE3       010BBSEGURIDADEON      NM   R$  000000000178000000000018380000000001777000000000180300000000018050000000001800000000000180507722000000000003402100000000006134997700000000000000009999123100000010000000000000BRBBSEACNOR5100
012013071896BBSE3F      020BBSEGURIDADEON      NM   R$  000000000176300000000018380000000001761000000000180300000000017810000000001781000000000179401182000000000000035413000000000063879385000000000000009999123100000010000000000000BRBBSEACNOR5100
012013071862BBSE3T      030BBSEGURIDADEON      NM018R$  000000000180200000000018030000000001802000000000180200000000018030000000000000000000000000000004000000000000003000000000000005407078000000000000009999123100000010000000000000BRBBSEACNOR5100
012013071802BBTG11      010BTG PACTUAL UNT          R$  000000000278000000000028730000000002762000000000282800000000028500000000002850000000000285500569000000000000601100000000001700423500000000000000009999123100000010000000000000BRBBTGUNT007104
012013071896BBTG11F     020BTG PACTUAL UNT          R$  000000000281000000000029930000000002800000000000283700000000028650000000002800000000000286500013000000000000000469000000000001330652000000000000009999123100000010000000000000BRBBTGUNT007104
012013071862BBTG11T     030BTG PACTUAL UNT       032R$  000000000280800000000028090000000002808000000000280800000000028090000000000000000000000000000002000000000000001700000000000004774778000000000000009999123100000010000000000000BRBBTGUNT007104
012013071812BBVJ11      010FII C JARDIMCI           R$  000000000799900000000080460000000007800000000000797500000000080390000000007815000000000803900049000000000000008088000000000064508550000000000000009999123100000010000000000000BRBBVJCTF001131
012013071812BCFF11B     010FII BC FFII CI  ER  MB   R$  000000000966400000000098480000000009630000000000970300000000097000000000009670000000000970000066000000000000005158000000000050048820000000000000009999123100000010000000000000BRBCFFCTF000140
012013071802BEEF3       010MINERVA     ON      NM   R$  000000000092500000000009600000000000919000000000094300000000009550000000000955000000000095601670000000000000526500000000000497248800000000000000009999123100000010000000000000BRBEEFACNOR6104
012013071896BEEF3F      020MINERVA     ON      NM   R$  000000000094000000000009530000000000930000000000094300000000009530000000000930000000000095500013000000000000000257000000000000242411000000000000009999123100000010000000000000BRBEEFACNOR6104
012013071810BEES1       010BANESTES    DIR ORD      R$  000000000000100000000000010000000000001000000000000100000000000010000000000000000000000000100009000000000000010000000000000000010000000000000000009999123100000010000000000000BRBEESD03OR0241
012013071896BEES1F      020BANESTES    DIR ORD      R$  000000000000200000000000020000000000002000000000000200000000000020000000000000000000000000100002000000000000000078000000000000000156000000000000009999123100000010000000000000BRBEESD03OR0241
012013071802BEES3       010BANESTES    ON  ES       R$  000000000004800000000000480000000000046000000000004600000000000480000000000047000000000004800017000000000000129500000000000006062600000000000000009999123100000010000000000000BRBEESACNOR9242
012013071896BEES3F      020BANESTES    ON  ES       R$  000000000005000000000000500000000000050000000000005000000000000500000000000050000000000000000001000000000000000010000000000000000500000000000000009999123100000010000000000000BRBEESACNOR9242
012013071802BEMA3       010BEMATECH    ON      NM   R$  000000000069300000000007090000000000686000000000069500000000007090000000000702000000000070900069000000000000039300000000000027339900000000000000009999123100000010000000000000BRBEMAACNOR0113
012013071896BEMA3F      020BEMATECH    ON      NM   R$  000000000069500000000006950000000000694000000000069400000000006940000000000682000000000070000002000000000000000120000000000000083350000000000000009999123100000010000000000000BRBEMAACNOR0113
012013071802BGIP4       010BANESE      PN           R$  000000000519000000000051900000000005190000000000519000000000051900000000004950000000000518900001000000000000000100000000000000519000000000000000009999123100000010000000000000BRBGIPACNPR8178
012013071802BHGR3       010BHG         ON      NM   R$  000000000164000000000016940000000001608000000000165000000000016750000000001675000000000167900129000000000000230900000000000381157700000000000000009999123100000010000000000000BRBHGRACNOR9101
012013071896BHGR3F      020BHG         ON      NM   R$  000000000160900000000016600000000001609000000000165000000000016600000000001542000000000169800003000000000000000106000000000000174904000000000000009999123100000010000000000000BRBHGRACNOR9101
012013071802BICB4       010BICBANCO    PN      N1   R$  000000000040000000000004000000000000387000000000039600000000004000000000000392000000000040000142000000000000106600000000000042256800000000000000009999123100000010000000000000BRBICBACNPR7131
012013071896BICB4F      020BICBANCO    PN      N1   R$  000000000040000000000004180000000000391000000000039400000000004180000000000393000000000041800008000000000000000102000000000000040252000000000000009999123100000010000000000000BRBICBACNPR7131
012013071896BIOM4F      020BIOMM       PN           R$  000000000081000000000008100000000000810000000000081000000000008100000000000820000000000090000001000000000000000500000000000000405000000000000000009999123100000010000000000000BRBIOMACNPR9101
012013071802BISA3       010BROOKFIELD  ON      NM   R$  000000000016200000000001740000000000162000000000017000000000001740000000000174000000000017504940000000000008907700000000001517821700000000000000009999123100000010000000000000BRBISAACNOR8109
012013071896BISA3F      020BROOKFIELD  ON      NM   R$  000000000016000000000001720000000000160000000000016900000000001720000000000171000000000017200019000000000000000431000000000000073206000000000000009999123100000010000000000000BRBISAACNOR8109
012013071862BISA3T      030BROOKFIELD  ON      NM090R$  000000000017300000000001740000000000173000000000017300000000001740000000000000000000000000000002000000000000015000000000000002602020000000000000009999123100000010000000000000BRBISAACNOR8109
012013071862BISA3T      030BROOKFIELD  ON      NM102R$  000000000017400000000001750000000000174000000000017400000000001750000000000000000000000000000002000000000000003000000000000000524902000000000000009999123100000010000000000000BRBISAACNOR8109
012013071812BJRC11      010FII JS RECIMCI           R$  000000009600100000000968000000000093000000000009386000000000965000000000000000000000009650000011000000000000000706000000000066265500000000000000009999123100000010000000000000BRBJRCCTF007108
012013071802BMEB4       010MERC BRASIL PN           R$  000000000111700000000011310000000001117000000000113000000000011300000000001120000000000113100005000000000000017400000000000019669400000000000000009999123100000010000000000000BRBMEBACNPR5190
012013071802BMIN4       010MERC INVEST PN           R$  000000000002200000000000220000000000022000000000002200000000000220000000000022000000000002300001000000000000001000000000000000022000000000000000009999123100000010000000000000BRBMINACNPR1159
012013071896BMIN4F      020MERC INVEST PN           R$  000000000002200000000000220000000000022000000000002200000000000220000000000022000000000000000002000000000000000125000000000000002750000000000000009999123100000010000000000000BRBMINACNPR1159
012013071812BMLC11B     010FII BMBRC LCCI  ER  MB   R$  000000001170000000000117000000000011700000000001170000000000117000000000011650000000001172000001000000000000000150000000000001755000000000000000009999123100000010000000000000BRBMLCCTF004117
012013071802BMTO4       010BRASMOTOR   PN           R$  000000000008700000000000870000000000087000000000008700000000000870000000000085000000000008600002000000000000002000000000000000174000000000000000009999123100000010000000000000BRBMTOACNPR6065
012013071802BOBR4       010BOMBRIL     PN           R$  000000000071800000000007200000000000718000000000071900000000007200000000000660000000000072000002000000000000000200000000000000143800000000000000009999123100000010000000000000BRBOBRACNPR3127
012013071802BOEI11B     010BOEING      DRN     MB   R$  000000002449900000000244990000000024499000000002449900000000244990000000021000000000002600000001000000000000000200000000000004899800000000000000009999123100000010000000000000BRBOEIBDR003105
012013071814BOVA11      010ISHARES BOVACI           R$  000000000464400000000047200000000004616000000000467800000000046650000000004665000000000466604948000000000002186660000000010229370280000000000000009999123100000010000000000000BRBOVACTF003101
012013071896BOVA11F     020ISHARES BOVACI           R$  000000000471600000000048520000000004675000000000473600000000048520000000004651000000000487400013000000000000000025000000000000118404000000000000009999123100000010000000000000BRBOVACTF003101
012013071862BOVA11T     030ISHARES BOVACI        032R$  000000000470100000000047020000000004701000000000470100000000047020000000000000000000000000000002000000000000000400000000000001880516000000000000009999123100000010000000000000BRBOVACTF003101
012013071882BOVAT54     080BOVAE       CI        000R$  000000000071500000000007150000000000715000000000071500000000007150000000000000000000000000000002000000000000080000000000000057200000000000000540002013081900000010000000000000BRBOVACTF003101
012013071882BOVAT56     080BOVAE       CI        000R$  000000000089500000000008950000000000895000000000089500000000008950000000000000000000000000000001000000000000040000000000000035800000000000000560002013081900000010000000000000BRBOVACTF003101
012013071882BOVAU50     080BOVAE       CI        000R$  000000000034000000000003400000000000340000000000034000000000003400000000000000000000000000000001000000000000040000000000000013600000000000000500002013091600000010000000000000BRBOVACTF003101
012013071812BPFF11      010FII ABSOLUTOCI           R$  000000000890000000000090500000000008899000000000894400000000090390000000008920000000000903900012000000000000001145000000000010241099000000000000009999123100000010000000000000BRBPFFCTF002103
012013071802BPHA3       010BR PHARMA   ON      NM   R$  000000000100000000000010180000000000961000000000099300000000010000000000000998000000000100001282000000000001514100000000001504897400000000000000009999123100000010000000000000BRBPHAACNOR6102
012013071896BPHA3F      020BR PHARMA   ON      NM   R$  000000000099000000000010030000000000965000000000098400000000009800000000000955000000000100500011000000000000000154000000000000151662000000000000009999123100000010000000000000BRBPHAACNOR6102
012013071862BPHA3T      030BR PHARMA   ON      NM090R$  000000000100800000000010110000000001008000000000100900000000010110000000000000000000000000000004000000000000006000000000000006054939000000000000009999123100000010000000000000BRBPHAACNOR6102
012013071802BPNM4       010PANAMERICANOPN      N1   R$  000000000052900000000005330000000000528000000000053000000000005300000000000530000000000053500079000000000000113400000000000060108600000000000000009999123100000010000000000000BRBPNMACNPR6111
012013071896BPNM4F      020PANAMERICANOPN      N1   R$  000000000053400000000005370000000000531000000000053400000000005370000000000526000000000053700006000000000000000131000000000000070040000000000000009999123100000010000000000000BRBPNMACNPR6111
012013071802BRAP3       010BRADESPAR   ON      N1   R$  000000000183500000000018700000000001832000000000183500000000018350000000001835000000000184200352000000000000200600000000000368270100000000000000009999123100000010000000000000BRBRAPACNOR5124
012013071802BRAP4       010BRADESPAR   PN      N1   R$  000000000216200000000022390000000002160000000000221000000000022200000000002205000000000222006406000000000001718800000000003798817700000000000000009999123100000010000000000000BRBRAPACNPR2124
012013071896BRAP4F      020BRADESPAR   PN      N1   R$  000000000216000000000022380000000002160000000000221000000000022380000000002200000000000223900028000000000000000854000000000001887182000000000000009999123100000010000000000000BRBRAPACNPR2124
012013071862BRAP4T      030BRADESPAR   PN      N1020R$  000000000221000000000022110000000002210000000000221000000000022110000000000000000000000000000002000000000000004500000000000009949234000000000000009999123100000010000000000000BRBRAPACNPR2124
012013071862BRAP4T      030BRADESPAR   PN      N1032R$  000000000222500000000022260000000002225000000000222500000000022260000000000000000000000000000002000000000000000300000000000000667744000000000000009999123100000010000000000000BRBRAPACNPR2124
012013071862BRAP4T      030BRADESPAR   PN      N1053R$  000000000222500000000022260000000002225000000000222500000000022260000000000000000000000000000002000000000000004500000000000010013588000000000000009999123100000010000000000000BRBRAPACNPR2124
012013071862BRAP4T      030BRADESPAR   PN      N1083R$  000000000224000000000022410000000002240000000000224000000000022410000000000000000000000000000002000000000000004500000000000010081903000000000000009999123100000010000000000000BRBRAPACNPR2124
012013071862BRAP4T      030BRADESPAR   PN      N1112R$  000000000225500000000022560000000002255000000000225500000000022560000000000000000000000000000002000000000000054500000000000122906438000000000000009999123100000010000000000000BRBRAPACNPR2124
012013071814BRAX11      010ISHARES BRAXCI           R$  000000000390300000000039100000000003880000000000390000000000038800000000003880000000000389500028000000000000099600000000000388446800000000000000009999123100000010000000000000BRBRAXCTF002100
012013071812BRCR11      010FII BC FUND CI  ER       R$  000000001358000000000136300000000013520000000001358100000000135350000000013521000000001353501017000000000000020745000000000281753934000000000000009999123100000010000000000000BRBRCRCTF000131
012013071802BRFS3       010BRF SA      ON      NM   R$  000000000478000000000048300000000004767000000000479600000000047980000000004787000000000479804058000000000001344400000000006448071000000000000000009999123100000010000000000000BRBRFSACNOR8110
012013071896BRFS3F      020BRF SA      ON      NM   R$  000000000481900000000048300000000004775000000000479800000000048300000000004774000000000483000102000000000000002882000000000013830988000000000000009999123100000010000000000000BRBRFSACNOR8110
012013071862BRFS3T      030BRF SA      ON      NM089R$  000000000488200000000048830000000004882000000000488200000000048830000000000000000000000000000002000000000000040000000000000195291680000000000000009999123100000010000000000000BRBRFSACNOR8110
012013071878BRFSH50     070BRFS        ON      NM000R$  000000000007200000000000800000000000050000000000006900000000000730000000000000000000000000000010000000000000005600000000000000391700000000000500002013081900000010000000000000BRBRFSACNOR8110
012013071878BRFSI51     070BRFS        ON      NM000R$  000000000015000000000001500000000000150000000000015000000000001500000000000150000000000015100001000000000000265000000000000039750000000000000510002013091600000010000000000000BRBRFSACNOR8110
012013071882BRFSU44     080BRFSE       ON      NM000R$  000000000006100000000000610000000000061000000000006100000000000610000000000060000000000000000003000000000000266000000000000016226000000000000440002013091600000010000000000000BRBRFSACNOR8110
012013071882BRFSU47     080BRFSE       ON      NM000R$  000000000021700000000002170000000000217000000000021700000000002170000000000217000000000000000001000000000000265000000000000057505000000000000470002013091600000010000000000000BRBRFSACNOR8110
012013071802BRIN3       010BR INSURANCEON      NM   R$  000000000207900000000021160000000002074000000000210500000000021050000000002100000000000210501347000000000000667800000000001405790900000000000000009999123100000010000000000000BRBRINACNOR3105
012013071896BRIN3F      020BR INSURANCEON      NM   R$  000000000211000000000021100000000002109000000000210900000000021090000000002100000000000214700004000000000000000110000000000000231995000000000000009999123100000010000000000000BRBRINACNOR3105
012013071802BRIV4       010ALFA INVEST PN           R$  000000000060000000000006000000000000600000000000060000000000006000000000000542000000000060000001000000000000000200000000000000120000000000000000009999123100000010000000000000BRBRIVACNPR3196
012013071802BRKM3       010BRASKEM     ON      N1   R$  000000000116000000000011840000000001157000000000116300000000011570000000001154000000000118300006000000000000001500000000000001745800000000000000009999123100000010000000000000BRBRKMACNOR1110
012013071802BRKM5       010BRASKEM     PNA     N1   R$  000000000169300000000017210000000001671000000000169500000000016930000000001687000000000169303994000000000001150300000000001950342200000000000000009999123100000010000000000000BRBRKMACNPA4110
012013071896BRKM5F      020BRASKEM     PNA     N1   R$  000000000169500000000017190000000001661000000000168800000000016610000000001661000000000171900031000000000000001010000000000001703468000000000000009999123100000010000000000000BRBRKMACNPA4110
012013071878BRKMH17     070BRKM        PNA     N1000R$  000000000002000000000000200000000000020000000000002000000000000200000000000000000000000000000003000000000000040000000000000000800000000000000170002013081900000010000000000000BRBRKMACNPA4110
012013071802BRML3       010BR MALLS PARON      NM   R$  000000000194600000000020190000000001932000000000198300000000020180000000002018000000000201910736000000000005140700000000010197566600000000000000009999123100000010000000000000BRBRMLACNOR9105
012013071896BRML3F      020BR MALLS PARON      NM   R$  000000000195600000000020180000000001956000000000198600000000020180000000002010000000000202000062000000000000002080000000000004134047000000000000009999123100000010000000000000BRBRMLACNOR9105
012013071878BRMLH23     070BRML        ON      NM000R$  000000000000100000000000010000000000001000000000000100000000000010000000000000000000000000000001000000000000028500000000000000028500000000000230002013081900000010000000000000BRBRMLACNOR9105
012013071882BRMLT18     080BRMLE       ON      NM000R$  000000000001300000000000130000000000013000000000001300000000000130000000000000000000000000000001000000000000028500000000000000370500000000000180002013081900000010000000000000BRBRMLACNOR9105
012013071882BRMLT20     080BRMLE       ON      NM000R$  000000000006500000000000650000000000065000000000006500000000000650000000000000000000000000000001000000000000028500000000000001852500000000000200002013081900000010000000000000BRBRMLACNOR9105
012013071802BRPR3       010BR PROPERT  ON      NM   R$  000000000194600000000019880000000001935000000000196100000000019650000000001965000000000196606466000000000001939400000000003803734700000000000000009999123100000010000000000000BRBRPRACNOR9112
012013071896BRPR3F      020BR PROPERT  ON      NM   R$  000000000195000000000019970000000001911000000000196100000000019510000000001924000000000199000047000000000000001529000000000002998693000000000000009999123100000010000000000000BRBRPRACNOR9112
012013071802BRSR6       010BANRISUL    PNB     N1   R$  000000000142500000000014410000000001407000000000142500000000014250000000001425000000000143303059000000000001865600000000002659490000000000000000009999123100000010000000000000BRBRSRACNPB4133
012013071896BRSR6F      020BANRISUL    PNB     N1   R$  000000000144600000000014690000000001416000000000143000000000014300000000001423000000000143500021000000000000000726000000000001037820000000000000009999123100000010000000000000BRBRSRACNPB4133
012013071862BRSR6T      030BANRISUL    PNB     N1032R$  000000000143100000000014320000000001431000000000143100000000014320000000000000000000000000000002000000000000001000000000000001431527000000000000009999123100000010000000000000BRBRSRACNPB4133
012013071802BSEV3       010BIOSEV      ON      NM   R$  000000000124000000000012400000000001230000000000123700000000012300000000001230000000000124400005000000000000000700000000000000865900000000000000009999123100000010000000000000BRBSEVACNOR3100
012013071896BSEV3F      020BIOSEV      ON      NM   R$  000000000123900000000012390000000001239000000000123900000000012390000000001115000000000125000001000000000000000040000000000000049560000000000000009999123100000010000000000000BRBSEVACNOR3100
012013071802BTOW3       010B2W DIGITAL ON      NM   R$  000000000089500000000009490000000000876000000000092200000000009460000000000940000000000094602018000000000000791500000000000730099000000000000000009999123100000010000000000000BRBTOWACNOR8105
012013071896BTOW3F      020B2W DIGITAL ON      NM   R$  000000000089200000000009400000000000880000000000090300000000009400000000000911000000000095000018000000000000000508000000000000458945000000000000009999123100000010000000000000BRBTOWACNOR8105
012013071862BTOW3T      030B2W DIGITAL ON      NM180R$  000000000098100000000009820000000000981000000000098100000000009820000000000000000000000000000002000000000000003000000000000002945114000000000000009999123100000010000000000000BRBTOWACNOR8105
012013071802BTTL3       010BATTISTELLA ON           R$  000000000008000000000000800000000000079000000000007900000000000790000000000075000000000008000004000000000000012800000000000001011300000000000000009999123100000010000000000000BRBTTLACNOR0105
012013071802BTTL4       010BATTISTELLA PN           R$  000000000009800000000001000000000000096000000000009800000000000990000000000099000000000010000019000000000000023600000000000002316600000000000000009999123100000010000000000000BRBTTLACNPR7105
012013071802BVMF3       010BMFBOVESPA  ON      NM   R$  000000000124400000000012680000000001238000000000126000000000012650000000001259000000000126516300000000000009501900000000011974906600000000000000009999123100000010000000000000BRBVMFACNOR3125
012013071896BVMF3F      020BMFBOVESPA  ON      NM   R$  000000000124200000000012660000000001240000000000125500000000012560000000001243000000000126500074000000000000002865000000000003596168000000000000009999123100000010000000000000BRBVMFACNOR3125
012013071878BVMFH1      070BVMFE       ON      NM000R$  000000000002600000000000260000000000026000000000002600000000000260000000000003000000000000000001000000000000028100000000000000730600000000000132502013081900000010000000000000BRBVMFACNOR3125
012013071878BVMFH10     070BVMF        ON      NM000R$  000000000026500000000002690000000000265000000000026500000000002690000000000000000000000000000004000000000000008200000000000002173400000000000100002013081900000010000000000000BRBVMFACNOR3125
012013071878BVMFH11     070BVMF        ON      NM000R$  000000000016800000000001680000000000168000000000016800000000001680000000000140000000000021800001000000000000000200000000000000033600000000000110002013081900000010000000000000BRBVMFACNOR3125
012013071878BVMFH12     070BVMF  FM    ON      NM000R$  000000000008600000000001020000000000086000000000009500000000000960000000000087000000000010000342000000000000421000000000000040303700000000000120002013081900000010000000000000BRBVMFACNOR3125
012013071878BVMFH13     070BVMF  FM    ON      NM000R$  000000000003000000000000440000000000030000000000003700000000000420000000000038000000000004200349000000000000594900000000000022594300000000000128902013081900000010000000000000BRBVMFACNOR3124
012013071878BVMFH14     070BVMF  FM    ON      NM000R$  000000000000900000000000100000000000008000000000000900000000000090000000000008000000000001000039000000000000130800000000000001214000000000000138902013081900000010000000000000BRBVMFACNOR3124
012013071878BVMFH15     070BVMF        ON      NM000R$  000000000000300000000000030000000000002000000000000200000000000020000000000001000000000000300006000000000000041300000000000000102900000000000150002013081900000010000000000000BRBVMFACNOR3125
012013071878BVMFH42     070BVMF  FM    ON      NM000R$  000000000005400000000000630000000000054000000000005900000000000600000000000054000000000006300008000000000000020900000000000001252200000000000125002013081900000010000000000000BRBVMFACNOR3125
012013071878BVMFH43     070BVMF  FM    ON      NM000R$  000000000001600000000000180000000000014000000000001600000000000160000000000012000000000001700010000000000000014600000000000000238100000000000135002013081900000010000000000000BRBVMFACNOR3125
012013071878BVMFI12     070BVMF  FM    ON      NM000R$  000000000010600000000001180000000000106000000000011300000000001150000000000080000000000014000014000000000000025300000000000002861000000000000120002013091600000010000000000000BRBVMFACNOR3125
012013071878BVMFI13     070BVMF  FM    ON      NM000R$  000000000004700000000000560000000000046000000000005200000000000540000000000050000000000000000158000000000000208000000000000010874800000000000130002013091600000010000000000000BRBVMFACNOR3125
012013071878BVMFI14     070BVMF  FM    ON      NM000R$  000000000001700000000000200000000000017000000000001800000000000190000000000011000000000003000462000000000000456800000000000008633900000000000140002013091600000010000000000000BRBVMFACNOR3125
012013071878BVMFI35     070BVMFE       ON      NM000R$  000000000004100000000000430000000000039000000000004100000000000430000000000000000000000000000026000000000000027500000000000001148600000000000132502013091600000010000000000000BRBVMFACNOR3125
012013071878BVMFI42     070BVMF  FM    ON      NM000R$  000000000007400000000000790000000000074000000000007600000000000790000000000000000000000000000007000000000000022400000000000001721800000000000125002013091600000010000000000000BRBVMFACNOR3125
012013071878BVMFI43     070BVMF  FM    ON      NM000R$  000000000003200000000000320000000000031000000000003100000000000310000000000000000000000003500006000000000000019300000000000000612300000000000135002013091600000010000000000000BRBVMFACNOR3125
012013071878BVMFJ13     070BVMF        ON      NM000R$  000000000007500000000000750000000000075000000000007500000000000750000000000000000000000000000002000000000000006000000000000000450000000000000130002013102100000010000000000000BRBVMFACNOR3125
012013071882BVMFT10     080BVMFE       ON      NM000R$  000000000000400000000000050000000000004000000000000400000000000050000000000001000000000000400002000000000000028100000000000000128500000000000100002013081900000010000000000000BRBVMFACNOR3125
012013071882BVMFT11     080BVMFE       ON      NM000R$  000000000001000000000000130000000000010000000000001100000000000110000000000010000000000001100004000000000000028500000000000000313600000000000110002013081900000010000000000000BRBVMFACNOR3125
012013071882BVMFT12     080BVMFE FM    ON      NM000R$  000000000003200000000000320000000000027000000000002900000000000280000000000021000000000004000069000000000000041000000000000001195600000000000120002013081900000010000000000000BRBVMFACNOR3125
012013071882BVMFT13     080BVMFE FM    ON      NM000R$  000000000007000000000000700000000000059000000000006400000000000600000000000055000000000007400021000000000000038100000000000002471000000000000128902013081900000010000000000000BRBVMFACNOR3124
012013071882BVMFT41     080BVMFE FM    ON      NM000R$  000000000001800000000000180000000000018000000000001800000000000180000000000000000000000005500001000000000000028000000000000000504000000000000115002013081900000010000000000000BRBVMFACNOR3125
012013071882BVMFT42     080BVMFE FM    ON      NM000R$  000000000005100000000000510000000000043000000000004300000000000430000000000000000000000000000003000000000000031300000000000001364800000000000125002013081900000010000000000000BRBVMFACNOR3125
012013071882BVMFT62     080BVMFE       ON      NM000R$  000000000004400000000000440000000000037000000000004000000000000370000000000000000000000000000003000000000000010600000000000000434200000000000122502013081900000010000000000000BRBVMFACNOR3125
012013071882BVMFU10     080BVMFE       ON      NM000R$  000000000000700000000000070000000000007000000000000700000000000070000000000000000000000001000001000000000000001800000000000000012600000000000100002013091600000010000000000000BRBVMFACNOR3125
012013071882BVMFU12     080BVMFE FM    ON      NM000R$  000000000004400000000000440000000000037000000000004100000000000370000000000037000000000005000041000000000000030400000000000001256900000000000120002013091600000010000000000000BRBVMFACNOR3125
012013071882BVMFU13     080BVMFE FM    ON      NM000R$  000000000008500000000000850000000000081000000000008400000000000850000000000057000000000000000004000000000000005100000000000000429500000000000130002013091600000010000000000000BRBVMFACNOR3125
012013071882BVMFU42     080BVMFE FM    ON      NM000R$  000000000005900000000000590000000000057000000000005800000000000590000000000000000000000000000004000000000000012300000000000000718600000000000125002013091600000010000000000000BRBVMFACNOR3125
012013071882BVMFX11     080BVMFE       ON      NM000R$  000000000003600000000000360000000000036000000000003600000000000360000000000000000000000000000001000000000000002100000000000000075600000000000110002013121600000010000000000000BRBVMFACNOR3125
012013071802CARD3       010CSU CARDSYSTON      NM   R$  000000000033000000000003330000000000315000000000032300000000003260000000000319000000000033000030000000000000030200000000000009764700000000000000009999123100000010000000000000BRCARDACNOR9105
012013071802CBEE3       010AMPLA ENERG ON *         R$  000000000011800000000001200000000000110000000000011600000000001200000000000111000000000012200010000000000003300000000000000000385300000000000000009999123100010000000000000000BRCBEEACNOR3149
012013071896CBEE3F      020AMPLA ENERG ON *         R$  000000000015000000000001500000000000150000000000015000000000001500000000000125000000000015000001000000000000010000000000000000001500000000000000009999123100010000000000000000BRCBEEACNOR3149
012013071802CBMA3       010COBRASMA    ON           R$  000000000000400000000000040000000000004000000000000400000000000040000000000004000000000000500001000000000000010000000000000000040000000000000000009999123100000010000000000000BRCBMAACNOR4124
012013071896CBMA3F      020COBRASMA    ON           R$  000000000000500000000000050000000000005000000000000500000000000050000000000004000000000000500001000000000000002000000000000000010000000000000000009999123100000010000000000000BRCBMAACNOR4124
012013071896CBMA4F      020COBRASMA    PN           R$  000000000000300000000000030000000000003000000000000300000000000030000000000003000000000000400003000000000000005800000000000000017400000000000000009999123100000010000000000000BRCBMAACNPR1124
012013071808CCHI3       010CHIARELLI   ON           R$  000000000002700000000000290000000000026000000000002700000000000280000000000027000000000002900042000000000000630000000000000017620000000000000000009999123100000010000000000000BRCCHIACNOR5123
012013071896CCHI3F      020CHIARELLI   ON           R$  000000000002700000000000270000000000027000000000002700000000000270000000000027000000000002800005000000000000012018000000000000324486000000000000009999123100000010000000000000BRCCHIACNOR5123
012013071808CCHI4       010CHIARELLI   PN           R$  000000000002200000000000230000000000022000000000002200000000000230000000000023000000000002400005000000000000060000000000000001340000000000000000009999123100000010000000000000BRCCHIACNPR2122
012013071802CCPR3       010CYRE COM-CCPON      NM   R$  000000000202900000000020290000000001989000000000199800000000019970000000001991000000000199700026000000000000006400000000000012789500000000000000009999123100000010000000000000BRCCPRACNOR9107
012013071896CCPR3F      020CYRE COM-CCPON      NM   R$  000000000218000000000021800000000002180000000000218000000000021800000000001906000000000217500002000000000000000028000000000000061040000000000000009999123100000010000000000000BRCCPRACNOR9107
012013071802CCRO3       010CCR SA      ON      NM   R$  000000000169200000000017350000000001691000000000172100000000017300000000001725000000000173009516000000000003598800000000006193841400000000000000009999123100000010000000000000BRCCROACNOR2122
012013071896CCRO3F      020CCR SA      ON      NM   R$  000000000171800000000017370000000001682000000000171800000000017280000000001728000000000173200091000000000000002521000000000004332922000000000000009999123100000010000000000000BRCCROACNOR2122
012013071878CCROH18     070CCRO        ON      NM000R$  000000000002500000000000250000000000025000000000002500000000000250000000000000000000000000000001000000000000400000000000000010000000000000000180002013081900000010000000000000BRCCROACNOR2122
012013071882CCROT16     080CCROE       ON      NM000R$  000000000001200000000000120000000000012000000000001200000000000120000000000000000000000000000001000000000000400000000000000004800000000000000160002013081900000010000000000000BRCCROACNOR2122
012013071882CCROT17     080CCROE       ON      NM000R$  000000000003500000000000350000000000035000000000003500000000000350000000000000000000000000000001000000000000400000000000000014000000000000000170002013081900000010000000000000BRCCROACNOR2122
012013071802CCXC3       010CCX CARVAO  ON      NM   R$  000000000008000000000000820000000000079000000000008000000000000800000000000079000000000008000122000000000000424400000000000034216800000000000000009999123100000010000000000000BRCCXCACNOR5100
012013071896CCXC3F      020CCX CARVAO  ON      NM   R$  000000000008100000000000810000000000080000000000008000000000000800000000000080000000000008100007000000000000000283000000000000022725000000000000009999123100000010000000000000BRCCXCACNOR5100
012013071802CEDO4       010CEDRO       PN      N1   R$  000000000085000000000009000000000000850000000000085700000000008990000000000860000000000090000014000000000000003100000000000002659700000000000000009999123100000010000000000000BRCEDOACNPR5126
012013071808CELP3       010CELPA       ON           R$  000000000006700000000000680000000000067000000000006700000000000680000000000056000000000006800002000000000000000200000000000000013500000000000000009999123100000010000000000000BRCELPACNOR8112
012013071808CELP5       010CELPA       PNA          R$  000000000007700000000000770000000000077000000000007700000000000770000000000066000000000007800001000000000000000100000000000000007700000000000000009999123100000010000000000000BRCELPACNPA1114
012013071812CEOC11B     010FII CEO CCP CI  ER  MB   R$  000000000887500000000088750000000008790000000000881200000000088000000000008790000000000880000026000000000000003564000000000031407523000000000000009999123100000010000000000000BRCEOCCTF003108
012013071802CEPE5       010CELPE       PNA          R$  000000000185000000000018500000000001850000000000185000000000018500000000001740000000000200000001000000000000001900000000000003515000000000000000009999123100000010000000000000BRCEPEACNPA6151
012013071802CESP3       010CESP        ON      N1   R$  000000000162300000000016230000000001623000000000162300000000016230000000001576000000000162500001000000000000000100000000000000162300000000000000009999123100000010000000000000BRCESPACNOR3159
012013071896CESP5F      020CESP        PNA     N1   R$  000000000227000000000022700000000002270000000000227000000000022700000000002000000000000227000001000000000000000010000000000000022700000000000000009999123100000010000000000000BRCESPACNPA6108
012013071802CESP6       010CESP        PNB     N1   R$  000000000195100000000020060000000001950000000000198800000000019880000000001988000000000199801920000000000000502400000000000999172500000000000000009999123100000010000000000000BRCESPACNPB4118
012013071896CESP6F      020CESP        PNB     N1   R$  000000000196500000000020190000000001956000000000198600000000019970000000001982000000000202000019000000000000000503000000000000999094000000000000009999123100000010000000000000BRCESPACNPB4118
012013071878CESPI21     070CESP        PNB     N1000R$  000000000005800000000000580000000000058000000000005800000000000580000000000000000000000000000001000000000000078000000000000004524000000000000210002013091600000010000000000000BRCESPACNPB4118
012013071882CESPU19     080CESPE       PNB     N1000R$  000000000006000000000000950000000000059000000000006100000000000950000000000000000000000000000006000000000000084600000000000005182800000000000190002013091600000010000000000000BRCESPACNPB4118
012013071882CESPU20     080CESPE       PNB     N1000R$  000000000010900000000001400000000000109000000000010900000000001400000000000070000000000015000003000000000000078200000000000008529000000000000200002013091600000010000000000000BRCESPACNPB4118
012013071802CGAS3       010COMGAS      ON           R$  000000000469900000000046990000000004699000000000469900000000046990000000004403000000000475000001000000000000000100000000000000469900000000000000009999123100000010000000000000BRCGASACNOR0132
012013071802CGAS5       010COMGAS      PNA          R$  000000000524900000000052490000000005175000000000520100000000052470000000005200000000000524800036000000000000025100000000000130566400000000000000009999123100000010000000000000BRCGASACNPA3129
012013071896CGAS5F      020COMGAS      PNA          R$  000000000524900000000052490000000005199000000000521400000000052280000000005199000000000522800008000000000000000360000000000001877064000000000000009999123100000010000000000000BRCGASACNPA3129
012013071862CGAS5T      030COMGAS      PNA       089R$  000000000531000000000053110000000005310000000000531000000000053110000000000000000000000000000002000000000000021000000000000111515431000000000000009999123100000010000000000000BRCGASACNPA3129
012013071802CGRA3       010GRAZZIOTIN  ON           R$  000000000154400000000015450000000001494000000000153100000000014940000000001494000000000154400005000000000000000700000000000001071800000000000000009999123100000010000000000000BRCGRAACNOR2061
012013071802CGRA4       010GRAZZIOTIN  PN           R$  000000000152100000000016400000000001521000000000157800000000016400000000001620000000000164500025000000000000006900000000000010889900000000000000009999123100000010000000000000BRCGRAACNPR9061
012013071896CGRA4F      020GRAZZIOTIN  PN           R$  000000000157100000000016080000000001560000000000158300000000016080000000001400000000000163500008000000000000000283000000000000448043000000000000009999123100000010000000000000BRCGRAACNPR9061
012013071802CIEL3       010CIELO       ON      NM   R$  000000000552000000000055810000000005501000000000555100000000055490000000005545000000000554903574000000000001195600000000006637554000000000000000009999123100000010000000000000BRCIELACNOR3111
012013071896CIEL3F      020CIELO       ON      NM   R$  000000000558000000000055820000000005507000000000555200000000055760000000005550000000000557600079000000000000002201000000000012221158000000000000009999123100000010000000000000BRCIELACNOR3111
012013071878CIELI60     070CIEL        ON      NM000R$  000000000009100000000000910000000000091000000000009100000000000910000000000000000000000000000002000000000000420000000000000038220000000000000600002013091600000010000000000000BRCIELACNOR3111
012013071882CIELU10     080CIELE       ON      NM000R$  000000000016000000000001600000000000160000000000016000000000001600000000000000000000000000000001000000000000420000000000000067200000000000000545002013091600000010000000000000BRCIELACNOR3111
012013071882CIELU52     080CIELE       ON      NM000R$  000000000009400000000000940000000000094000000000009400000000000940000000000000000000000000000002000000000000420000000000000039480000000000000520002013091600000010000000000000BRCIELACNOR3111
012013071802CLSC4       010CELESC      PN      N2   R$  000000000175800000000017900000000001751000000000176100000000017900000000001755000000000179500028000000000000008400000000000014794600000000000000009999123100000010000000000000BRCLSCACNPR3107
012013071896CLSC4F      020CELESC      PN      N2   R$  000000000160200000000016020000000001602000000000160200000000016020000000001602000000000198500002000000000000000018000000000000028836000000000000009999123100000010000000000000BRCLSCACNPR3107
012013071802CMIG3       010CEMIG       ON      N1   R$  000000000204500000000021230000000002026000000000207500000000020970000000002097000000000211600670000000000000160800000000000333750800000000000000009999123100000010000000000000BRCMIGACNOR6208
012013071896CMIG3F      020CEMIG       ON      N1   R$  000000000203000000000021220000000002030000000000207500000000020800000000002111000000000219700037000000000000000856000000000001776613000000000000009999123100000010000000000000BRCMIGACNOR6208
012013071802CMIG4       010CEMIG       PN      N1   R$  000000000201500000000020920000000002015000000000206300000000020750000000002074000000000207508823000000000002926400000000006038424900000000000000009999123100000010000000000000BRCMIGACNPR3208
012013071896CMIG4F      020CEMIG       PN      N1   R$  000000000203000000000020990000000002022000000000206000000000020800000000002066000000000208000137000000000000003783000000000007796538000000000000009999123100000010000000000000BRCMIGACNPR3208
012013071862CMIG4T      030CEMIG       PN      N1018R$  000000000207300000000020740000000002073000000000207300000000020740000000000000000000000000000002000000000000002000000000000004146933000000000000009999123100000010000000000000BRCMIGACNPR3208
012013071878CMIGH21     070CMIG        PN      N1000R$  000000000005500000000000750000000000055000000000006700000000000750000000000062000000000010000003000000000000000500000000000000033500000000000210002013081900000010000000000000BRCMIGACNPR3208
012013071878CMIGH22     070CMIG        PN      N1000R$  000000000003000000000000300000000000020000000000002600000000000300000000000005000000000004000005000000000000008000000000000000210000000000000220002013081900000010000000000000BRCMIGACNPR3208
012013071812CNES11B     010FII CENESP  CI      MB   R$  000000001225100000000122510000000012202000000001223700000000122020000000012212000000001225000011000000000000000346000000000004234065000000000000009999123100000010000000000000BRCNESCTF001123
012013071802COCA11B     010COCA COLA   DRN     MB   R$  000000000910900000000091090000000009109000000000910900000000091090000000008978000000000933700001000000000000000200000000000001821800000000000000009999123100000010000000000000BRCOCABDR002108
012013071802COCE3       010COELCE      ON           R$  000000000408900000000040890000000004069000000000407100000000040690000000003920000000000407000007000000000000000800000000000003257200000000000000009999123100000010000000000000BRCOCEACNOR0132
012013071802COCE5       010COELCE      PNA          R$  000000000385800000000040460000000003858000000000394100000000039210000000003921000000000393700183000000000000047000000000000185269800000000000000009999123100000010000000000000BRCOCEACNPA3133
012013071896COCE5F      020COELCE      PNA          R$  000000000390500000000040940000000003905000000000394400000000039550000000003850000000000395500017000000000000000267000000000001053298000000000000009999123100000010000000000000BRCOCEACNPA3133
012013071802CPFE3       010CPFL ENERGIAON      NM   R$  000000000211400000000021440000000002106000000000213200000000021390000000002139000000000214003467000000000000656800000000001400540400000000000000009999123100000010000000000000BRCPFEACNOR0121
012013071896CPFE3F      020CPFL ENERGIAON      NM   R$  000000000212800000000021640000000002115000000000213600000000021480000000002116000000000213000021000000000000000719000000000001535510000000000000009999123100000010000000000000BRCPFEACNOR0121
012013071802CPLE3       010COPEL       ON      N1   R$  000000000220000000000023100000000002200000000000224400000000023100000000002244000000000231000024000000000000005200000000000011671600000000000000009999123100000010000000000000BRCPLEACNOR8128
012013071802CPLE6       010COPEL       PNB     N1   R$  000000000280000000000029170000000002777000000000288000000000028800000000002880000000000289902201000000000000485000000000001397167400000000000000009999123100000010000000000000BRCPLEACNPB9125
012013071896CPLE6F      020COPEL       PNB     N1   R$  000000000281000000000029620000000002776000000000287200000000029200000000002840000000000300000033000000000000000967000000000002777755000000000000009999123100000010000000000000BRCPLEACNPB9125
012013071802CRDE3       010CR2         ON      NM   R$  000000000040500000000004110000000000405000000000040800000000004110000000000400000000000045000004000000000000003300000000000001349300000000000000009999123100000010000000000000BRCRDEACNOR1108
012013071802CREM3       010CREMER      ON      NM   R$  000000000143900000000014600000000001430000000000144400000000014300000000001410000000000146000006000000000000000700000000000001011200000000000000009999123100000010000000000000BRCREMACNOR2166
012013071802CRIV4       010ALFA FINANC PN           R$  000000000048000000000004890000000000480000000000048200000000004890000000000480000000000048900011000000000000005000000000000002412600000000000000009999123100000010000000000000BRCRIVACNPR1189
012013071802CRUZ3       010SOUZA CRUZ  ON           R$  000000000272200000000027780000000002719000000000273900000000027360000000002727000000000273604151000000000000930600000000002549050600000000000000009999123100000010000000000000BRCRUZACNOR0246
012013071896CRUZ3F      020SOUZA CRUZ  ON           R$  000000000275000000000028480000000002722000000000275800000000027220000000002722000000000276000034000000000000001003000000000002766762000000000000009999123100000010000000000000BRCRUZACNOR0246
012013071802CSAN3       010COSAN       ON      NM   R$  000000000438500000000044190000000004348000000000438500000000043810000000004381000000000438302930000000000001061800000000004656639900000000000000009999123100000010000000000000BRCSANACNOR6107
012013071896CSAN3F      020COSAN       ON      NM   R$  000000000440200000000044290000000004368000000000439700000000043900000000004324000000000439900051000000000000001491000000000006556321000000000000009999123100000010000000000000BRCSANACNOR6107
012013071862CSAN3T      030COSAN       ON      NM032R$  000000000441200000000044130000000004412000000000441200000000044130000000000000000000000000000002000000000000000220000000000000970721000000000000009999123100000010000000000000BRCSANACNOR6107
012013071862CSAN3T      030COSAN       ON      NM060R$  000000000445500000000044600000000004455000000000445600000000044600000000000000000000000000000004000000000000001000000000000004456523000000000000009999123100000010000000000000BRCSANACNOR6107
012013071862CSAN3T      030COSAN       ON      NM090R$  000000000448300000000044840000000004468000000000447400000000044710000000000000000000000000000022000000000000180000000000000805468580000000000000009999123100000010000000000000BRCSANACNOR6107
012013071878CSANH45     070CSAN        ON      NM000R$  000000000006800000000000680000000000068000000000006800000000000680000000000000000000000000000003000000000000000700000000000000047600000000000450002013081900000010000000000000BRCSANACNOR6107
012013071802CSCO11B     010CISCO       DRN     MB   R$  000000000578900000000057890000000005789000000000578900000000057890000000005100000000000630000001000000000000000700000000000004052300000000000000009999123100000010000000000000BRCSCOBDR004110
012013071802CSMG3       010COPASA      ON      NM   R$  000000000356700000000036280000000003523000000000357500000000035850000000003557000000000358501515000000000000203900000000000729139900000000000000009999123100000010000000000000BRCSMGACNOR5127
012013071896CSMG3F      020COPASA      ON      NM   R$  000000000354900000000036050000000003549000000000356800000000035800000000003511000000000373900008000000000000000270000000000000963554000000000000009999123100000010000000000000BRCSMGACNOR5127
012013071814CSMO11      010ISHARES CSMOCI           R$  000000000453500000000045350000000004512000000000453300000000045120000000003800000000000461000002000000000000000560000000000002538680000000000000009999123100000010000000000000BRCSMOCTF002100
012013071802CSNA3       010SID NACIONALON           R$  000000000058800000000006050000000000585000000000059700000000005990000000000598000000000059906915000000000005528200000000003302372100000000000000009999123100000010000000000000BRCSNAACNOR6242
012013071896CSNA3F      020SID NACIONALON           R$  000000000059200000000006030000000000587000000000059700000000006000000000000600000000000060300052000000000000001634000000000000975747000000000000009999123100000010000000000000BRCSNAACNOR6242
012013071862CSNA3T      030SID NACIONALON        032R$  000000000060200000000006030000000000602000000000060200000000006030000000000000000000000000000002000000000000001000000000000000602007000000000000009999123100000010000000000000BRCSNAACNOR6242
012013071862CSNA3T      030SID NACIONALON        063R$  000000000059900000000006000000000000599000000000059900000000006000000000000000000000000000000002000000000000005000000000000002999960000000000000009999123100000010000000000000BRCSNAACNOR6242
012013071862CSNA3T      030SID NACIONALON        090R$  000000000061000000000006110000000000610000000000061000000000006110000000000000000000000000000002000000000000003000000000000001832760000000000000009999123100000010000000000000BRCSNAACNOR6242
012013071878CSNAH58     070CSNA  FM    ON        000R$  000000000004000000000000450000000000040000000000004200000000000430000000000000000000000000000004000000000000008000000000000000336000000000000058002013081900000010000000000000BRCSNAACNOR6242
012013071878CSNAH6      070CSNA  FM    ON        000R$  000000000002800000000000380000000000028000000000003100000000000380000000000033000000000003800024000000000000024300000000000000755600000000000060002013081900000010000000000000BRCSNAACNOR6242
012013071878CSNAH64     070CSNA  FM    ON        000R$  000000000001300000000000150000000000013000000000001400000000000150000000000000000000000000000003000000000000006000000000000000084000000000000064002013081900000010000000000000BRCSNAACNOR6242
012013071878CSNAH65     070CSNAE       ON        000R$  000000000001100000000000110000000000011000000000001100000000000110000000000000000000000000000001000000000000000500000000000000005500000000000065002013081900000010000000000000BRCSNAACNOR6242
012013071878CSNAI58     070CSNA  FM    ON        000R$  000000000005600000000000560000000000053000000000005400000000000530000000000000000000000005600007000000000000023500000000000001272000000000000058002013091600000010000000000000BRCSNAACNOR6242
012013071878CSNAI6      070CSNA  FM    ON        000R$  000000000004100000000000440000000000041000000000004300000000000430000000000000000000000000000007000000000000025000000000000001078500000000000060002013091600000010000000000000BRCSNAACNOR6242
012013071878CSNAJ66     070CSNA        ON        000R$  000000000003000000000000300000000000030000000000003000000000000300000000000000000000000000000002000000000000005000000000000000150000000000000066002013102100000010000000000000BRCSNAACNOR6242
012013071878CSNAK59     070CSNAE       ON        000R$  000000000007000000000000700000000000070000000000007000000000000700000000000000000000000000000001000000000000006000000000000000420000000000000059002013111800000010000000000000BRCSNAACNOR6242
012013071882CSNAT5      080CSNAE       ON        000R$  000000000000700000000000070000000000007000000000000700000000000070000000000000000000000000000001000000000000036300000000000000254100000000000050002013081900000010000000000000BRCSNAACNOR6242
012013071882CSNAT56     080CSNAE FM    ON        000R$  000000000001700000000000170000000000017000000000001700000000000170000000000000000000000000000001000000000000036300000000000000617100000000000056002013081900000010000000000000BRCSNAACNOR6242
012013071882CSNAT6      080CSNAE FM    ON        000R$  000000000003100000000000310000000000031000000000003100000000000310000000000000000000000003500001000000000000002000000000000000062000000000000060002013081900000010000000000000BRCSNAACNOR6242
012013071882CSNAT62     080CSNAE FM    ON        000R$  000000000004400000000000440000000000044000000000004400000000000440000000000000000000000000000001000000000000002000000000000000088000000000000062002013081900000010000000000000BRCSNAACNOR6242
012013071802CTAX11      010CONTAX      UNT     N2   R$  000000000179400000000017940000000001770000000000178000000000017920000000001750000000000179200010000000000000002000000000000003561700000000000000009999123100000010000000000000BRCTAXCDAM19100
012013071802CTAX4       010CONTAX      PN      N2   R$  000000000032500000000003440000000000321000000000033100000000003430000000000321000000000034300049000000000000062500000000000020730300000000000000009999123100000010000000000000BRCTAXACNPR0114
012013071802CTIP3       010CETIP       ON      NM   R$  000000000221500000000022880000000002215000000000225400000000022770000000002277000000000227806536000000000002032400000000004581471200000000000000009999123100000010000000000000BRCTIPACNOR2119
012013071896CTIP3F      020CETIP       ON      NM   R$  000000000222600000000022810000000002217000000000225600000000022750000000002260000000000227000084000000000000003042000000000006862538000000000000009999123100000010000000000000BRCTIPACNOR2119
012013071878CTIPA65     070CTIPE       ON      NM000R$  000000000005300000000000580000000000053000000000005500000000000580000000000000000000000000000003000000000000500000000000000027750000000000000257502014012000000010000000000000BRCTIPACNOR2119
012013071878CTIPL65     070CTIPE       ON      NM000R$  000000000005400000000000560000000000054000000000005500000000000560000000000000000000000000000003000000000000500000000000000027500000000000000252502013121600000010000000000000BRCTIPACNOR2119
012013071802CTKA4       010KARSTEN     PN           R$  000000000010200000000001020000000000102000000000010200000000001020000000000101000000000010200007000000000000002900000000000000295800000000000000009999123100000010000000000000BRCTKAACNPR7041
012013071802CTNM4       010COTEMINAS   PN           R$  000000000024000000000002400000000000240000000000024000000000002400000000000237000000000024100001000000000000000100000000000000024000000000000000009999123100000010000000000000BRCTNMACNPR6128
012013071812CXCE11B     010FII CX CEDAECI      MB   R$  000000018900000000001900000000000189000000000018998800000001900000000000190000000000020110000007000000000000000178000000000033818000000000000000009999123100000010000000000000BRCXCECTF004136
012013071802CYRE3       010CYRELA REALTON      NM   R$  000000000165100000000016990000000001641000000000167900000000016780000000001677000000000167807121000000000002533100000000004254964500000000000000009999123100000010000000000000BRCYREACNOR7125
012013071896CYRE3F      020CYRELA REALTON      NM   R$  000000000164900000000016900000000001643000000000167500000000016900000000001680000000000169000020000000000000000743000000000001245152000000000000009999123100000010000000000000BRCYREACNOR7125
012013071862CYRE3T      030CYRELA REALTON      NM090R$  000000000171800000000017190000000001718000000000171800000000017190000000000000000000000000000002000000000000000300000000000000515511000000000000009999123100000010000000000000BRCYREACNOR7125
012013071878CYREH16     070CYRE  FM    ON      NM000R$  000000000012400000000001240000000000124000000000012400000000001240000000000000000000000000000001000000000000002900000000000000359600000000000160002013081900000010000000000000BRCYREACNOR7125
012013071878CYREH17     070CYRE  FM    ON      NM000R$  000000000006400000000000640000000000063000000000006300000000000630000000000000000000000000000002000000000000004100000000000000261800000000000170002013081900000010000000000000BRCYREACNOR7125
012013071878CYREH18     070CYRE  FM    ON      NM000R$  000000000002900000000000290000000000029000000000002900000000000290000000000000000000000000000001000000000000001000000000000000029000000000000180002013081900000010000000000000BRCYREACNOR7125
012013071878CYREH46     070CYRE  FM    ON      NM000R$  000000000009100000000000910000000000091000000000009100000000000910000000000000000000000000000001000000000000003500000000000000318500000000000165002013081900000010000000000000BRCYREACNOR7125
012013071878CYREH47     070CYRE  FM    ON      NM000R$  000000000004000000000000400000000000038000000000003800000000000380000000000000000000000000000002000000000000039400000000000001511200000000000175002013081900000010000000000000BRCYREACNOR7125
012013071878CYREI16     070CYRE  FM    ON      NM000R$  000000000014900000000001490000000000149000000000014900000000001490000000000000000000000000000001000000000000002700000000000000402300000000000160002013091600000010000000000000BRCYREACNOR7125
012013071878CYREI17     070CYRE  FM    ON      NM000R$  000000000008100000000000860000000000081000000000008400000000000860000000000000000000000000000002000000000000000800000000000000067300000000000170002013091600000010000000000000BRCYREACNOR7125
012013071878CYREI47     070CYRE  FM    ON      NM000R$  000000000006100000000000610000000000061000000000006100000000000610000000000000000000000000000001000000000000002200000000000000134200000000000175002013091600000010000000000000BRCYREACNOR7125
012013071878CYREI49     070CYRE        ON      NM000R$  000000000001600000000000160000000000016000000000001600000000000160000000000000000000000000000001000000000000004000000000000000064000000000000195002013091600000010000000000000BRCYREACNOR7125
012013071878CYREJ19     070CYRE        ON      NM000R$  000000000004300000000000430000000000043000000000004300000000000430000000000000000000000000000001000000000000003000000000000000129000000000000190002013102100000010000000000000BRCYREACNOR7125
012013071882CYRET15     080CYREE       ON      NM000R$  000000000001600000000000160000000000016000000000001600000000000160000000000000000000000000000001000000000000000100000000000000001600000000000150002013081900000010000000000000BRCYREACNOR7125
012013071882CYRET16     080CYREE FM    ON      NM000R$  000000000003500000000000350000000000029000000000003200000000000320000000000000000000000005000009000000000000034500000000000001107000000000000160002013081900000010000000000000BRCYREACNOR7125
012013071882CYRET17     080CYREE FM    ON      NM000R$  000000000008300000000000830000000000064000000000007700000000000640000000000000000000000000000003000000000000009900000000000000763100000000000170002013081900000010000000000000BRCYREACNOR7125
012013071882CYRET46     080CYREE FM    ON      NM000R$  000000000004500000000000450000000000045000000000004500000000000450000000000000000000000000000001000000000000002700000000000000121500000000000165002013081900000010000000000000BRCYREACNOR7125
012013071882CYREU16     080CYREE FM    ON      NM000R$  000000000005400000000000540000000000054000000000005400000000000540000000000000000000000000000003000000000000010500000000000000567000000000000160002013091600000010000000000000BRCYREACNOR7125
012013071882CYREU17     080CYREE FM    ON      NM000R$  000000000008100000000000810000000000081000000000008100000000000810000000000000000000000000000001000000000000003400000000000000275400000000000170002013091600000010000000000000BRCYREACNOR7125
012013071882CYREU45     080CYREE FM    ON      NM000R$  000000000003800000000000380000000000038000000000003800000000000380000000000000000000000000000001000000000000003200000000000000121600000000000155002013091600000010000000000000BRCYREACNOR7125
012013071802CZLT11      010COSAN LTD   DR3          R$  000000000358200000000036710000000003582000000000363900000000036440000000003633000000000364401186000000000000257200000000000936100000000000000000009999123100000010000000000000BRCZLTBDR009104
012013071896CZLT11F     020COSAN LTD   DR3          R$  000000000380000000000043000000000003800000000000426200000000043000000000003210000000000440000002000000000000000053000000000000225900000000000000009999123100000010000000000000BRCZLTBDR009104
012013071802DAGB11      010DUFRY AG    DR3          R$  000000002910000000000294990000000027000000000002925000000000294990000000028850000000002949900499000000000000018873000000000552050746000000000000009999123100000010000000000000BRDAGBBDR008100
012013071802DASA3       010DASA        ON      NM   R$  000000000119100000000012350000000001191000000000122100000000012270000000001225000000000122704963000000000001661800000000002029541000000000000000009999123100000010000000000000BRDASAACNOR1108
012013071896DASA3F      020DASA        ON      NM   R$  000000000122900000000012300000000001201000000000121700000000012210000000001220000000000125100007000000000000000182000000000000221686000000000000009999123100000010000000000000BRDASAACNOR1108
012013071802DAYC4       010DAYCOVAL    PN      N2   R$  000000000086100000000008810000000000857000000000087000000000008770000000000873000000000087700443000000000000120700000000000105041900000000000000009999123100000010000000000000BRDAYCACNPR2128
012013071896DAYC4F      020DAYCOVAL    PN      N2   R$  000000000086300000000008650000000000863000000000086400000000008650000000000874000000000088200005000000000000000126000000000000108888000000000000009999123100000010000000000000BRDAYCACNPR2128
