00COTAHIST.2013BOVESPA 20130823                                                                                                                                                                                                                      
012013082302AAPL11B     010APPLE       DRN     MB   R$  000000001194000000000119400000000011835000000001188700000000118350000000011710000000001185500002000000000000000400000000000004755000000000000000009999123100000010000000000000BRAAPLBDR004105
012013082302ABCB4       010ABC BRASIL  PN      N2   R$  000000000117000000000012400000000001170000000000118700000000012400000000001240000000000124800382000000000000171500000000000203590200000000000000009999123100000010000000000000BRABCBACNPR4120
012013082396ABCB4F      020ABC BRASIL  PN      N2   R$  000000000120200000000012110000000001196000000000120100000000012110000000001185000000000121100005000000000000000140000000000000168242000000000000009999123100000010000000000000BRABCBACNPR4120
012013082312ABCP11      010FII ABC IMOBCI           R$  000000000094800000000009480000000000906000000000093300000000009060000000000902000000000094700002000000000000000014000000000000013062000000000000009999123100000010000000000000BRABCPCTF000214
012013082302ABRE11      010ABRIL EDUCA UNT     N2   R$  000000000326000000000032920000000003168000000000321600000000032100000000003210000000000326000667000000000000135500000000000435825400000000000000009999123100000010000000000000BRABRECDAM15102
012013082302AEDU3       010ANHANGUERA  ON      NM   R$  000000000123700000000013090000000001227000000000127700000000012960000000001296000000000130006921000000000005689400000000007269403700000000000000009999123100000010000000000000BRAEDUACNOR9107
012013082396AEDU3F      020ANHANGUERA  ON      NM   R$  000000000122000000000013500000000001220000000000128100000000013500000000001297000000000135000033000000000000000971000000000001244389000000000000009999123100000010000000000000BRAEDUACNOR9107
012013082378AEDUI38     070AEDU        ON      NM000R$  000000000001800000000000180000000000018000000000001800000000000180000000000000000000000000000002000000000000000300000000000000005400000000000126602013091600000010000000000000BRAEDUACNOR9106
012013082312AEFI11      010FII AESAPAR CI           R$  000000001242900000000124290000000012400000000001241300000000124000000000012400000000001245000008000000000000000262000000000003252338000000000000009999123100000010000000000000BRAEFICTF002120
012013082396AELP3F      020AES ELPA    ON           R$  000000000075200000000007520000000000752000000000075200000000007520000000000752000000000095000001000000000000000001000000000000000752000000000000009999123100000010000000000000BRAELPACNOR2119
012013082312AGCX11      010FII AG CAIXACI           R$  000000009950000000000995000000000099125000000009917300000000992000000000099125000000009920000010000000000000000222000000000022016616000000000000009999123100000010000000000000BRAGCXCTF003109
012013082302AGRO3       010BRASILAGRO  ON      NM   R$  000000000093000000000009300000000000927000000000092800000000009270000000000927000000000094400020000000000000016600000000000015419700000000000000009999123100000010000000000000BRAGROACNOR7102
012013082362AGRO3T      030BRASILAGRO  ON      NM031R$  000000000093700000000009380000000000933000000000093400000000009340000000000000000000000000000004000000000000008700000000000008133676000000000000009999123100000010000000000000BRAGROACNOR7102
012013082302ALLL3       010ALL AMER LATON      NM   R$  000000000088500000000009090000000000879000000000089800000000009050000000000905000000000090606511000000000001992700000000001790630300000000000000009999123100000010000000000000BRALLLACNOR6118
012013082396ALLL3F      020ALL AMER LATON      NM   R$  000000000089000000000009080000000000877000000000089600000000009080000000000890000000000091200028000000000000000702000000000000629490000000000000009999123100000010000000000000BRALLLACNOR6118
012013082378ALLLI9      070ALLL        ON      NM000R$  000000000002500000000000250000000000025000000000002500000000000250000000000000000000000000000002000000000000068500000000000001712500000000000090002013091600000010000000000000BRALLLACNOR6118
012013082378ALLLJ9      070ALLL        ON      NM000R$  000000000004500000000000450000000000045000000000004500000000000450000000000000000000000000000001000000000000081500000000000003667500000000000090002013102100000010000000000000BRALLLACNOR6118
012013082312ALMI11B     010FII TORRE ALCI      MB   R$  000000031789800000003180000000000317898000000031794900000003180000000000310001000000031800000006000000000000000008000000000002543598000000000000009999123100000010000000000000BRALMICTF003204
012013082302ALPA3       010ALPARGATAS  ON  EJ  N1   R$  000000000109200000000011500000000001092000000000114400000000011500000000001095000000000114800038000000000000013900000000000015910300000000000000009999123100000010000000000000BRALPAACNOR0203
012013082302ALPA4       010ALPARGATAS  PN  EJ  N1   R$  000000000125900000000012750000000001247000000000126000000000012640000000001258000000000126501270000000000002430400000000003063015300000000000000009999123100000010000000000000BRALPAACNPR7203
012013082396ALPA4F      020ALPARGATAS  PN  EJ  N1   R$  000000000126000000000012750000000001240000000000125700000000012400000000001230000000000127400033000000000000000589000000000000740495000000000000009999123100000010000000000000BRALPAACNPR7203
012013082302ALSC3       010ALIANSCE    ON      NM   R$  000000000185800000000018950000000001845000000000186800000000018880000000001877000000000188801029000000000000313500000000000585785500000000000000009999123100000010000000000000BRALSCACNOR0104
012013082396ALSC3F      020ALIANSCE    ON      NM   R$  000000000185500000000018600000000001808000000000183600000000018600000000001808000000000227700004000000000000000180000000000000330578000000000000009999123100000010000000000000BRALSCACNOR0104
012013082302ALUP11      010ALUPAR      UNT     N2   R$  000000000169400000000017480000000001694000000000172800000000017200000000001720000000000174400356000000000000101900000000000176104000000000000000009999123100000010000000000000BRALUPCDAM15100
012013082396ALUP11F     020ALUPAR      UNT     N2   R$  000000000167000000000017440000000001670000000000172200000000017440000000001735000000000179900006000000000000000174000000000000299798000000000000009999123100000010000000000000BRALUPCDAM15100
012013082302AMAR3       010LOJAS MARISAON      NM   R$  000000000190000000000019760000000001883000000000193500000000019550000000001945000000000195901931000000000000384500000000000744067200000000000000009999123100000010000000000000BRAMARACNOR4109
012013082396AMAR3F      020LOJAS MARISAON      NM   R$  000000000190000000000019580000000001883000000000190400000000019580000000001944000000000197900017000000000000000575000000000001095028000000000000009999123100000010000000000000BRAMARACNOR4109
012013082302AMBV3       010AMBEV       ON           R$  000000000830300000000083590000000008134000000000823100000000082270000000008227000000000824800703000000000000118200000000000972918300000000000000009999123100000010000000000000BRAMBVACNOR4153
012013082396AMBV3F      020AMBEV       ON           R$  000000000830000000000084290000000008150000000000823000000000082750000000008200000000000827500043000000000000001153000000000009489821000000000000009999123100000010000000000000BRAMBVACNOR4153
012013082362AMBV3T      030AMBEV       ON        031R$  000000000828900000000082900000000008289000000000828900000000082900000000000000000000000000000002000000000000001000000000000008289760000000000000009999123100000010000000000000BRAMBVACNOR4153
012013082302AMBV4       010AMBEV       PN           R$  000000000830000000000083610000000008142000000000824100000000082780000000008270000000000827810613000000000002289400000000018867538500000000000000009999123100000010000000000000BRAMBVACNPR1153
012013082396AMBV4F      020AMBEV       PN           R$  000000000829000000000083620000000008121000000000823800000000082150000000008215000000000836000171000000000000004487000000000036964363000000000000009999123100000010000000000000BRAMBVACNPR1153
012013082362AMBV4T      030AMBEV       PN        031R$  000000000831000000000083110000000008237000000000826400000000082410000000000000000000000000000014000000000000001400000000000011569839000000000000009999123100000010000000000000BRAMBVACNPR1153
012013082362AMBV4T      030AMBEV       PN        060R$  000000000829000000000083890000000008290000000000830600000000083890000000000000000000000000000004000000000000001200000000000009968237000000000000009999123100000010000000000000BRAMBVACNPR1153
012013082378AMBVB23     070AMBV        ON        000R$  000000000019500000000001950000000000195000000000019500000000001950000000000000000000000000000002000000000000300000000000000058500000000000000930002014021700000010000000000000BRAMBVACNOR4153
012013082378AMBVI84     070AMBV        PN        000R$  000000000010000000000001000000000000066000000000008900000000000680000000000030000000000020000011000000000000002300000000000000206100000000000840002013091600000010000000000000BRAMBVACNPR1153
012013082378AMBVI90     070AMBV        PN        000R$  000000000002700000000000270000000000027000000000002700000000000270000000000000000000000000000002000000000000010700000000000000288900000000000900002013091600000010000000000000BRAMBVACNPR1153
012013082378AMBVI92     070AMBV        PN        000R$  000000000001200000000000120000000000012000000000001200000000000120000000000000000000000000000001000000000000060000000000000000720000000000000920002013091600000010000000000000BRAMBVACNPR1153
012013082378AMBVJ19     070AMBVE       ON        000R$  000000000011600000000001160000000000116000000000011600000000001160000000000000000000000000000001000000000000300000000000000034800000000000000895002013102100000010000000000000BRAMBVACNOR4153
012013082382AMBVN13     080AMBVE       ON        000R$  000000000030600000000003060000000000306000000000030600000000003060000000000000000000000000000002000000000000300000000000000091800000000000000830002014021700000010000000000000BRAMBVACNOR4153
012013082382AMBVN4      080AMBVE       ON        000R$  000000000007200000000000720000000000072000000000007200000000000720000000000000000000000000000002000000000000300000000000000021600000000000000740002014021700000010000000000000BRAMBVACNOR4153
012013082382AMBVU11     080AMBVE       PN        000R$  000000000001300000000000130000000000013000000000001300000000000130000000000000000000000000000002000000000000010700000000000000139100000000000735002013091600000010000000000000BRAMBVACNPR1153
012013082382AMBVV11     080AMBVE       ON        000R$  000000000017700000000001770000000000177000000000017700000000001770000000000000000000000000000001000000000000300000000000000053100000000000000810002013102100000010000000000000BRAMBVACNOR4153
012013082382AMBVV2      080AMBVE       ON        000R$  000000000002200000000000220000000000022000000000002200000000000220000000000000000000000000000001000000000000300000000000000006600000000000000720002013102100000010000000000000BRAMBVACNOR4153
012013082302AORE3       010ALL ORE     ON           R$  000000000015000000000001500000000000150000000000015000000000001500000000000126000000000085000001000000000000000500000000000000075000000000000000009999123100000010000000000000BRAOREACNOR2100
012013082302ARTR3       010ARTERIS     ON      NM   R$  000000000228900000000022890000000002249000000000226200000000022630000000002263000000000227201740000000000005715400000000012928872700000000000000009999123100000010000000000000BRARTRACNOR3101
012013082396ARTR3F      020ARTERIS     ON      NM   R$  000000000223500000000022690000000002235000000000225400000000022610000000002258000000000226300016000000000000000527000000000001188636000000000000009999123100000010000000000000BRARTRACNOR3101
012013082302ARZZ3       010AREZZO CO   ON      NM   R$  000000000340300000000035490000000003401000000000348700000000035490000000003540000000000354900705000000000000196500000000000685339300000000000000009999123100000010000000000000BRARZZACNOR3109
012013082396ARZZ3F      020AREZZO CO   ON      NM   R$  000000000341500000000036000000000003378000000000346200000000035980000000003377000000000408500020000000000000000554000000000001918291000000000000009999123100000010000000000000BRARZZACNOR3109
012013082302AUTM3       010AUTOMETAL   ON      NM   R$  000000000187100000000018710000000001833000000000184500000000018580000000001857000000000186500276000000000000089800000000000165736600000000000000009999123100000010000000000000BRAUTMACNOR8109
012013082396AUTM3F      020AUTOMETAL   ON      NM   R$  000000000187300000000018730000000001790000000000181700000000018300000000001751000000000187800008000000000000000197000000000000358074000000000000009999123100000010000000000000BRAUTMACNOR8109
012013082302AZEV4       010AZEVEDO     PN           R$  000000000016400000000001640000000000164000000000016400000000001640000000000120000000000016600002000000000000002400000000000000393600000000000000009999123100000010000000000000BRAZEVACNPR7113
012013082302BALM4       010BAUMER      PN           R$  000000000880000000000088000000000008800000000000880000000000088000000000008100000000000880000001000000000000000100000000000000880000000000000000009999123100000010000000000000BRBALMACNPR2043
012013082302BAUH4       010EXCELSIOR   PN           R$  000000000094000000000009400000000000940000000000094000000000009400000000000802000000000094000001000000000000000200000000000000188000000000000000009999123100000010000000000000BRBAUHACNPR3108
012013082302BAZA3       010AMAZONIA    ON           R$  000000000003200000000000330000000000032000000000003200000000000330000000000032000000000003300005000000000000016000000000000000527000000000000000009999123100000010000000000000BRBAZAACNOR0163
012013082396BAZA3F      020AMAZONIA    ON           R$  000000000003200000000000350000000000032000000000003200000000000350000000000033000000000003500004000000000000000419000000000000013462000000000000009999123100000010000000000000BRBAZAACNOR0163
012013082302BBAS3       010BRASIL      ON  ED  NM   R$  000000000220100000000022280000000002170000000000220300000000022240000000002224000000000222513239000000000006603800000000014554460000000000000000009999123100000010000000000000BRBBASACNOR3238
012013082396BBAS3F      020BRASIL      ON  ED  NM   R$  000000000220600000000022270000000002172000000000219900000000022260000000002219000000000222600286000000000000008943000000000019676361000000000000009999123100000010000000000000BRBBASACNOR3238
012013082362BBAS3T      030BRASIL      ON  ED  NM031R$  000000000221700000000022390000000002194000000000221100000000022390000000000000000000000000000008000000000000027600000000000061030768000000000000009999123100000010000000000000BRBBASACNOR3238
012013082362BBAS3T      030BRASIL      ON  ED  NM090R$  000000000222100000000022550000000002221000000000223700000000022550000000000000000000000000000004000000000000001000000000000002237919000000000000009999123100000010000000000000BRBBASACNOR3238
012013082378BBASI21     070BBAS  FM/EDRON      NM000R$  000000000020700000000002210000000000179000000000019900000000002200000000000045000000000023600061000000000000110700000000000022125100000000000202202013091600000010000000000000BRBBASACNOR3237
012013082378BBASI22     070BBAS  FM/EDRON      NM000R$  000000000012900000000001560000000000110000000000014800000000001400000000000139000000000016000206000000000000430100000000000064010400000000000209802013091600000010000000000000BRBBASACNOR3236
012013082378BBASI23     070BBAS  FM/EDRON      NM000R$  000000000006000000000000810000000000053000000000006800000000000720000000000071000000000008500269000000000000618400000000000042251700000000000219802013091600000010000000000000BRBBASACNOR3236
012013082378BBASI24     070BBAS  FM/EDRON      NM000R$  000000000002500000000000330000000000020000000000002700000000000320000000000023000000000003200281000000000000304200000000000008272400000000000229802013091600000010000000000000BRBBASACNOR3236
012013082378BBASI25     070BBAS  FM/EDRON      NM000R$  000000000001300000000000140000000000009000000000001000000000000110000000000009000000000001400077000000000000222200000000000002360500000000000238802013091600000010000000000000BRBBASACNOR3235
012013082378BBASI26     070BBAS    /EDRON      NM000R$  000000000000500000000000050000000000005000000000000500000000000050000000000004000000000000700002000000000001008000000000000005040000000000000248802013091600000010000000000000BRBBASACNOR3235
012013082378BBASI61     070BBASE   /EDRON      NM000R$  000000000009100000000000990000000000091000000000009600000000000990000000000000000000000000000003000000000000012000000000000001152000000000000214702013091600000010000000000000BRBBASACNOR3237
012013082378BBASJ21     070BBAS  FM/EDRON      NM000R$  000000000024500000000002540000000000219000000000023800000000002540000000000000000000000000000030000000000000059900000000000014269400000000000202202013102100000010000000000000BRBBASACNOR3237
012013082378BBASJ22     070BBAS  FM/EDRON      NM000R$  000000000016500000000001770000000000142000000000016100000000001770000000000000000000000000000032000000000000036100000000000005840400000000000212202013102100000010000000000000BRBBASACNOR3237
012013082378BBASJ23     070BBAS  FM/EDRON      NM000R$  000000000012400000000001360000000000104000000000011700000000001330000000000095000000000000000020000000000000036300000000000004274900000000000218802013102100000010000000000000BRBBASACNOR3235
012013082378BBASJ24     070BBAS  FM/EDRON      NM000R$  000000000007100000000000780000000000060000000000006900000000000770000000000070000000000020300118000000000000039500000000000002759900000000000229802013102100000010000000000000BRBBASACNOR3236
012013082378BBASJ25     070BBAS  FM/EDRON      NM000R$  000000000002800000000000350000000000028000000000003100000000000350000000000031000000000004100011000000000000015900000000000000493300000000000242202013102100000010000000000000BRBBASACNOR3237
012013082378BBASJ27     070BBAS    /EDRON      NM000R$  000000000001000000000000100000000000010000000000001000000000000100000000000007000000000003800001000000000000000500000000000000005000000000000258802013102100000010000000000000BRBBASACNOR3235
012013082378BBASK24     070BBAS    /EDRON      NM000R$  000000000007400000000000790000000000074000000000007600000000000790000000000057000000000010600024000000000000030900000000000002351100000000000232202013111800000010000000000000BRBBASACNOR3237
012013082378BBASK25     070BBAS    /EDRON      NM000R$  000000000005500000000000550000000000055000000000005500000000000550000000000016000000000006800001000000000000001600000000000000088000000000000239802013111800000010000000000000BRBBASACNOR3236
012013082378BBASK26     070BBAS    /EDRON      NM000R$  000000000003500000000000360000000000035000000000003500000000000360000000000016000000000003900005000000000000004500000000000000158000000000000249802013111800000010000000000000BRBBASACNOR3236
012013082378BBASL24     070BBAS    /EDRON      NM000R$  000000000009400000000001040000000000094000000000010100000000001040000000000080000000000013800012000000000000025800000000000002626800000000000232202013121600000010000000000000BRBBASACNOR3237
012013082382BBASU21     080BBASE FM/EDRON      NM000R$  000000000001300000000000160000000000010000000000001300000000000100000000000000000000000000000079000000000000176500000000000002371800000000000202202013091600000010000000000000BRBBASACNOR3237
012013082382BBASU22     080BBASE FM/EDRON      NM000R$  000000000002600000000000330000000000019000000000002600000000000210000000000001000000000003500041000000000000089900000000000002378100000000000209802013091600000010000000000000BRBBASACNOR3236
012013082382BBASU23     080BBASE FM/EDRON      NM000R$  000000000005800000000000620000000000044000000000005100000000000460000000000044000000000000000019000000000000039000000000000002010400000000000219802013091600000010000000000000BRBBASACNOR3236
012013082382BBASU24     080BBASE FM/EDRON      NM000R$  000000000011200000000001350000000000097000000000011400000000000970000000000000000000000025500035000000000000067100000000000007653200000000000229802013091600000010000000000000BRBBASACNOR3236
012013082382BBASU61     080BBASE   /EDRON      NM000R$  000000000003900000000000390000000000039000000000003900000000000390000000000000000000000000000001000000000000001200000000000000046800000000000214702013091600000010000000000000BRBBASACNOR3237
012013082382BBASV21     080BBASE FM/EDRON      NM000R$  000000000003300000000000380000000000030000000000003400000000000300000000000000000000000000000013000000000000027400000000000000935000000000000202202013102100000010000000000000BRBBASACNOR3237
012013082382BBASV22     080BBASE FM/EDRON      NM000R$  000000000005600000000000680000000000053000000000006100000000000530000000000048000000000024700017000000000000042700000000000002646600000000000212202013102100000010000000000000BRBBASACNOR3237
012013082382BBASV23     080BBASE FM/EDRON      NM000R$  000000000008000000000000940000000000075000000000008400000000000750000000000000000000000000000021000000000000053700000000000004560700000000000218802013102100000010000000000000BRBBASACNOR3235
012013082382BBASV24     080BBASE FM/EDRON      NM000R$  000000000013600000000001560000000000125000000000014000000000001250000000000000000000000000000025000000000000051400000000000007225900000000000229802013102100000010000000000000BRBBASACNOR3236
012013082382BBASW21     080BBASE   /EDRON      NM000R$  000000000003700000000000370000000000037000000000003700000000000370000000000000000000000045900001000000000000000600000000000000022200000000000199802013111800000010000000000000BRBBASACNOR3236
012013082382BBASX19     080BBASE   /EDRON      NM000R$  000000000003400000000000340000000000034000000000003400000000000340000000000000000000000000000001000000000000001200000000000000040800000000000190002013121600000010000000000000BRBBASACNOR3238
012013082382BBASX23     080BBASE   /EDRON      NM000R$  000000000013400000000001340000000000134000000000013400000000001340000000000000000000000000000001000000000000001200000000000000160800000000000222202013121600000010000000000000BRBBASACNOR3237
012013082302BBDC3       010BRADESCO    ON      N1   R$  000000000306900000000031700000000003069000000000313800000000031600000000003155000000000316002798000000000000734600000000002305828100000000000000009999123100000010000000000000BRBBDCACNOR1605
012013082396BBDC3F      020BRADESCO    ON      N1   R$  000000000309200000000032200000000003040000000000313100000000032200000000003073000000000322000035000000000000000586000000000001835143000000000000009999123100000010000000000000BRBBDCACNOR1605
012013082302BBDC4       010BRADESCO    PN      N1   R$  000000000275400000000028240000000002752000000000279000000000028050000000002805000000000280817393000000000008438000000000023546472500000000000000009999123100000010000000000000BRBBDCACNPR8605
012013082396BBDC4F      020BRADESCO    PN      N1   R$  000000000274900000000028250000000002745000000000278300000000028200000000002817000000000282500229000000000000005529000000000015388822000000000000009999123100000010000000000000BRBBDCACNPR8605
012013082362BBDC4T      030BRADESCO    PN      N1031R$  000000000279700000000028370000000002797000000000281700000000028370000000000000000000000000000010000000000000062000000000000174679316000000000000009999123100000010000000000000BRBBDCACNPR8605
012013082362BBDC4T      030BRADESCO    PN      N1040R$  000000000280200000000028040000000002802000000000280300000000028040000000000000000000000000000004000000000000003000000000000008411102000000000000009999123100000010000000000000BRBBDCACNPR8605
012013082362BBDC4T      030BRADESCO    PN      N1060R$  000000000279200000000028430000000002792000000000281600000000028430000000000000000000000000000012000000000000006000000000000016898508000000000000009999123100000010000000000000BRBBDCACNPR8605
012013082378BBDCB6      070BBDC        PN      N1000R$  000000000002000000000000210000000000020000000000002000000000000210000000000000000000000000000003000000000000200000000000000004080000000000000365002014021700000010000000000000BRBBDCACNPR8605
012013082378BBDCB63     070BBDC        PN      N1000R$  000000000005600000000000560000000000056000000000005600000000000560000000000000000000000000000001000000000000020000000000000001120000000000000335002014021700000010000000000000BRBBDCACNPR8605
012013082378BBDCI27     070BBDC        PN      N1000R$  000000000014600000000001760000000000130000000000015500000000001700000000000170000000000018800285000000000000346700000000000053813200000000000267802013091600000010000000000000BRBBDCACNPR8602
012013082378BBDCI28     070BBDC        PN      N1000R$  000000000007600000000001010000000000068000000000008200000000001000000000000086000000000010000165000000000000280700000000000023274500000000000277802013091600000010000000000000BRBBDCACNPR8602
012013082378BBDCI29     070BBDC        PN      N1000R$  000000000004000000000000520000000000030000000000004400000000000500000000000033000000000005300259000000000000295500000000000013030400000000000287802013091600000010000000000000BRBBDCACNPR8602
012013082378BBDCI30     070BBDC        PN      N1000R$  000000000001600000000000210000000000015000000000001700000000000200000000000018000000000002400018000000000000018700000000000000332600000000000297802013091600000010000000000000BRBBDCACNPR8602
012013082378BBDCI31     070BBDC        PN      N1000R$  000000000010700000000001170000000000104000000000010900000000001100000000000000000000000000000021000000000000047300000000000005156700000000000272902013091600000010000000000000BRBBDCACNPR8590
012013082378BBDCI32     070BBDC        PN      N1000R$  000000000000400000000000040000000000004000000000000400000000000040000000000002000000000000400005000000000000029800000000000000119200000000000317802013091600000010000000000000BRBBDCACNPR8602
012013082378BBDCI33     070BBDC        PN      N1000R$  000000000002300000000000230000000000023000000000002300000000000230000000000000000000000002600002000000000000007100000000000000163300000000000297202013091600000010000000000000BRBBDCACNPR8598
012013082378BBDCI58     070BBDC        PN      N1000R$  000000000004600000000000630000000000043000000000005500000000000630000000000000000000000000000005000000000000020100000000000001111200000000000285002013091600000010000000000000BRBBDCACNPR8605
012013082378BBDCI75     070BBDCE       PN      N1000R$  000000000006100000000000610000000000061000000000006100000000000610000000000000000000000000000002000000000000004000000000000000244000000000000282302013091600000010000000000000BRBBDCACNPR8604
012013082378BBDCI81     070BBDC        PN      N1000R$  000000000000600000000000060000000000006000000000000600000000000060000000000000000000000001000001000000000000000100000000000000000600000000000307802013091600000010000000000000BRBBDCACNPR8602
012013082378BBDCJ26     070BBDC        PN      N1000R$  000000000026000000000002700000000000260000000000026500000000002700000000000000000000000000000002000000000000008000000000000002120000000000000259802013102100000010000000000000BRBBDCACNPR8604
012013082378BBDCJ27     070BBDC        PN      N1000R$  000000000020500000000002300000000000198000000000020700000000002250000000000000000000000000000017000000000000029500000000000006132200000000000267802013102100000010000000000000BRBBDCACNPR8602
012013082378BBDCJ29     070BBDC        PN      N1000R$  000000000008800000000001090000000000083000000000009700000000001060000000000100000000000012000061000000000000060100000000000005857600000000000287802013102100000010000000000000BRBBDCACNPR8602
012013082378BBDCJ30     070BBDC        PN      N1000R$  000000000005800000000000690000000000051000000000006300000000000690000000000063000000000000000031000000000000032800000000000002078900000000000297802013102100000010000000000000BRBBDCACNPR8602
012013082378BBDCJ31     070BBDC        PN      N1000R$  000000000003400000000000400000000000034000000000003800000000000400000000000011000000000004800020000000000000023700000000000000905000000000000307802013102100000010000000000000BRBBDCACNPR8602
012013082378BBDCJ32     070BBDC        PN      N1000R$  000000000002200000000000240000000000022000000000002200000000000230000000000012000000000002900071000000000000355800000000000007985000000000000317802013102100000010000000000000BRBBDCACNPR8602
012013082378BBDCJ58     070BBDC        PN      N1000R$  000000000012800000000001520000000000127000000000013400000000001520000000000000000000000000000012000000000000026200000000000003531700000000000280002013102100000010000000000000BRBBDCACNPR8605
012013082378BBDCK26     070BBDC        PN      N1000R$  000000000030100000000003010000000000301000000000030100000000003010000000000000000000000000000001000000000000003000000000000000903000000000000259802013111800000010000000000000BRBBDCACNPR8604
012013082378BBDCK27     070BBDC        PN      N1000R$  000000000023300000000002330000000000233000000000023300000000002330000000000000000000000000000001000000000000002000000000000000466000000000000269602013111800000010000000000000BRBBDCACNPR8603
012013082378BBDCK28     070BBDC        PN      N1000R$  000000000017600000000001830000000000176000000000017900000000001830000000000000000000000000000002000000000000006000000000000001077000000000000277802013111800000010000000000000BRBBDCACNPR8602
012013082378BBDCK30     070BBDC        PN      N1000R$  000000000008000000000000800000000000074000000000007700000000000790000000000000000000000000000005000000000000015000000000000001158000000000000300002013111800000010000000000000BRBBDCACNPR8605
012013082378BBDCK31     070BBDC        PN      N1000R$  000000000005300000000000530000000000050000000000005100000000000510000000000000000000000000000003000000000000009000000000000000462000000000000310002013111800000010000000000000BRBBDCACNPR8605
012013082378BBDCK32     070BBDC        PN      N1000R$  000000000003900000000000390000000000039000000000003900000000000390000000000000000000000004500001000000000000003000000000000000117000000000000317602013111800000010000000000000BRBBDCACNPR8601
012013082378BBDCK9      070BBDC        PN      N1000R$  000000000011400000000001160000000000114000000000011500000000001160000000000000000000000000000002000000000000005800000000000000667200000000000290002013111800000010000000000000BRBBDCACNPR8605
012013082378BBDCL29     070BBDC        PN      N1000R$  000000000015900000000001590000000000159000000000015900000000001590000000000130000000000023100001000000000000100000000000000015900000000000000287802013121600000010000000000000BRBBDCACNPR8602
012013082382BBDCU25     080BBDCE       PN      N1000R$  000000000000600000000000060000000000006000000000000600000000000060000000000000000000000000000001000000000000000400000000000000002400000000000249802013091600000010000000000000BRBBDCACNPR8604
012013082382BBDCU26     080BBDCE       PN      N1000R$  000000000001900000000000190000000000012000000000001700000000000120000000000000000000000000000029000000000000052000000000000000900000000000000259802013091600000010000000000000BRBBDCACNPR8604
012013082382BBDCU27     080BBDCE       PN      N1000R$  000000000003500000000000350000000000026000000000003000000000000260000000000000000000000000000009000000000000021700000000000000659200000000000267802013091600000010000000000000BRBBDCACNPR8602
012013082382BBDCU28     080BBDCE       PN      N1000R$  000000000006600000000000740000000000050000000000005800000000000500000000000000000000000000000028000000000000055500000000000003251300000000000277802013091600000010000000000000BRBBDCACNPR8602
012013082382BBDCU29     080BBDCE       PN      N1000R$  000000000012100000000001340000000000095000000000012000000000000950000000000000000000000000000067000000000000120800000000000014586200000000000287802013091600000010000000000000BRBBDCACNPR8602
012013082382BBDCU30     080BBDCE       PN      N1000R$  000000000022200000000002220000000000187000000000020300000000001880000000000000000000000000000014000000000000026700000000000005446300000000000297802013091600000010000000000000BRBBDCACNPR8602
012013082382BBDCU31     080BBDCE       PN      N1000R$  000000000004100000000000410000000000039000000000003900000000000390000000000000000000000000000005000000000000016200000000000000635800000000000272902013091600000010000000000000BRBBDCACNPR8590
012013082382BBDCU33     080BBDCE       PN      N1000R$  000000000019800000000001980000000000181000000000018900000000001860000000000000000000000000000003000000000000004800000000000000911800000000000297202013091600000010000000000000BRBBDCACNPR8598
012013082382BBDCU58     080BBDCE       PN      N1000R$  000000000010500000000001090000000000088000000000010000000000000880000000000000000000000000000010000000000000019000000000000001903000000000000285002013091600000010000000000000BRBBDCACNPR8605
012013082382BBDCU75     080BBDCE       PN      N1000R$  000000000009100000000000930000000000074000000000008500000000000740000000000000000000000000000012000000000000025300000000000002161400000000000282302013091600000010000000000000BRBBDCACNPR8604
012013082382BBDCV27     080BBDCE       PN      N1000R$  000000000007200000000000730000000000065000000000007000000000000650000000000000000000000000000014000000000000025600000000000001805600000000000267802013102100000010000000000000BRBBDCACNPR8602
012013082382BBDCV29     080BBDCE       PN      N1000R$  000000000015700000000001700000000000131000000000015200000000001310000000000000000000000000000043000000000000079300000000000012131600000000000287802013102100000010000000000000BRBBDCACNPR8602
012013082382BBDCV30     080BBDCE       PN      N1000R$  000000000021800000000002350000000000205000000000022100000000002050000000000000000000000000000031000000000000055700000000000012363400000000000297802013102100000010000000000000BRBBDCACNPR8602
012013082382BBDCV31     080BBDCE       PN      N1000R$  000000000031000000000003100000000000285000000000029600000000002860000000000000000000000000000005000000000000009400000000000002786400000000000307802013102100000010000000000000BRBBDCACNPR8602
012013082382BBDCV58     080BBDCE       PN      N1000R$  000000000011600000000001230000000000099000000000011500000000000990000000000000000000000000000026000000000000046000000000000005319600000000000280002013102100000010000000000000BRBBDCACNPR8605
012013082382BBDCW24     080BBDCE       PN      N1000R$  000000000002800000000000280000000000028000000000002800000000000280000000000000000000000000000001000000000000001200000000000000033600000000000240002013111800000010000000000000BRBBDCACNPR8605
012013082382BBDCW27     080BBDCE       PN      N1000R$  000000000009500000000000950000000000095000000000009500000000000950000000000000000000000000000001000000000000001000000000000000095000000000000269602013111800000010000000000000BRBBDCACNPR8603
012013082382BBDCW28     080BBDCE       PN      N1000R$  000000000013200000000001320000000000122000000000012500000000001220000000000000000000000000000003000000000000006000000000000000752000000000000277802013111800000010000000000000BRBBDCACNPR8602
012013082382BBDCW30     080BBDCE       PN      N1000R$  000000000025500000000002550000000000238000000000024400000000002380000000000000000000000000000012000000000000016600000000000004064600000000000300002013111800000010000000000000BRBBDCACNPR8605
012013082382BBDCW31     080BBDCE       PN      N1000R$  000000000031600000000003180000000000307000000000031200000000003090000000000000000000000000000007000000000000009500000000000002970000000000000310002013111800000010000000000000BRBBDCACNPR8605
012013082382BBDCW8      080BBDCE       PN      N1000R$  000000000003700000000000370000000000037000000000003700000000000370000000000000000000000000000001000000000000001200000000000000044400000000000246002013111800000010000000000000BRBBDCACNPR8592
012013082382BBDCW9      080BBDCE       PN      N1000R$  000000000019100000000001930000000000179000000000018300000000001790000000000000000000000000000007000000000000009500000000000001744500000000000290002013111800000010000000000000BRBBDCACNPR8605
012013082312BBFI11B     010FII BB PROGRCI      MB   R$  000000042879800000004299000000000420500000000042478700000004205030000000421001000000042869900013000000000000000056000000000023788101000000000000009999123100000010000000000000BRBBFICTF006197
012013082312BBPO11      010FII BB PRGIICI           R$  000000001104000000000110980000000011000000000001103200000000110700000000011050000000001107000132000000000000010883000000000120066204000000000000009999123100000010000000000000BRBBPOCTF003109
012013082312BBRC11      010FII BB CORP CI           R$  000000000923900000000092390000000009200000000000920100000000092000000000009200000000000923900010000000000000001015000000000009339948000000000000009999123100000010000000000000BRBBRCCTF004123
012013082302BBRK3       010BR BROKERS  ON      NM   R$  000000000053400000000005400000000000525000000000053500000000005400000000000537000000000054001281000000000000446100000000000238769800000000000000009999123100000010000000000000BRBBRKACNOR4108
012013082396BBRK3F      020BR BROKERS  ON      NM   R$  000000000050700000000005300000000000507000000000051800000000005080000000000508000000000060600006000000000000000287000000000000148721000000000000009999123100000010000000000000BRBBRKACNOR4108
012013082302BBSE3       010BBSEGURIDADEON  ED  NM   R$  000000000185400000000019450000000001854000000000191900000000019310000000001931000000000193308861000000000004077600000000007828797500000000000000009999123100000010000000000000BRBBSEACNOR5101
012013082396BBSE3F      020BBSEGURIDADEON  ED  NM   R$  000000000185000000000019430000000001822000000000190900000000019390000000001915000000000193900567000000000000017123000000000032688499000000000000009999123100000010000000000000BRBBSEACNOR5101
012013082362BBSE3T      030BBSEGURIDADEON  ED  NM020R$  000000000192100000000019220000000001921000000000192100000000019220000000000000000000000000000002000000000000000300000000000000576525000000000000009999123100000010000000000000BRBBSEACNOR5101
012013082302BBTG11      010BTG PACTUAL UNT          R$  000000000280700000000028170000000002790000000000280800000000027900000000002787000000000279000487000000000000152100000000000427169400000000000000009999123100000010000000000000BRBBTGUNT007105
012013082396BBTG11F     020BTG PACTUAL UNT          R$  000000000280900000000028120000000002808000000000281000000000028100000000001538000000000299700010000000000000000371000000000001042680000000000000009999123100000010000000000000BRBBTGUNT007105
012013082312BBVJ11      010FII C JARDIMCI           R$  000000000789000000000079640000000007820000000000785000000000078200000000007820000000000788000021000000000000005785000000000045416862000000000000009999123100000010000000000000BRBBVJCTF001132
012013082312BCFF11B     010FII BC FFII CI      MB   R$  000000000957000000000095750000000009451000000000953800000000095750000000009554000000000957400055000000000000002823000000000026926205000000000000009999123100000010000000000000BRBCFFCTF000141
012013082302BEEF3       010MINERVA     ON      NM   R$  000000000110000000000011030000000001066000000000108200000000010850000000001082000000000108502967000000000000845800000000000915674900000000000000009999123100000010000000000000BRBEEFACNOR6104
012013082396BEEF3F      020MINERVA     ON      NM   R$  000000000108800000000010880000000001075000000000107800000000010770000000001052000000000108400005000000000000000126000000000000135898000000000000009999123100000010000000000000BRBEEFACNOR6104
012013082302BEES3       010BANESTES    ON           R$  000000000004600000000000470000000000046000000000004600000000000470000000000046000000000004700007000000000000042000000000000001934000000000000000009999123100000010000000000000BRBEESACNOR9243
012013082302BEES4       010BANESTES    PN           R$  000000000004400000000000450000000000044000000000004400000000000450000000000042000000000004500002000000000000001300000000000000057500000000000000009999123100000010000000000000BRBEESACNPR6168
012013082310BEES9       010BANESTES    ON  REC      R$  000000000004300000000000430000000000043000000000004300000000000430000000000044000000000000000002000000000000004000000000000000172000000000000000009999123100000010000000000000BRBEESR03OR0241
012013082302BEMA3       010BEMATECH    ON      NM   R$  000000000070000000000007020000000000690000000000069800000000007000000000000700000000000070100146000000000000043500000000000030372600000000000000009999123100000010000000000000BRBEMAACNOR0114
012013082396BEMA3F      020BEMATECH    ON      NM   R$  000000000069500000000006950000000000695000000000069500000000006950000000000695000000000080000001000000000000000004000000000000002780000000000000009999123100000010000000000000BRBEMAACNOR0114
012013082362BEMA3T      030BEMATECH    ON      NM090R$  000000000071400000000007150000000000714000000000071400000000007150000000000000000000000000000002000000000000000500000000000000357350000000000000009999123100000010000000000000BRBEMAACNOR0114
012013082302BHGR3       010BHG         ON      NM   R$  000000000137600000000014110000000001363000000000137500000000013990000000001399000000000144500251000000000000028600000000000039342000000000000000009999123100000010000000000000BRBHGRACNOR9101
012013082396BHGR3F      020BHG         ON      NM   R$  000000000136800000000013750000000001368000000000137000000000013750000000001340000000000149900002000000000000000121000000000000165878000000000000009999123100000010000000000000BRBHGRACNOR9101
012013082302BICB4       010BICBANCO    PN      N1   R$  000000000039200000000003950000000000389000000000039100000000003930000000000391000000000039300080000000000000043600000000000017081700000000000000009999123100000010000000000000BRBICBACNPR7131
012013082396BICB4F      020BICBANCO    PN      N1   R$  000000000039200000000003920000000000389000000000039100000000003890000000000389000000000040600002000000000000000003000000000000001173000000000000009999123100000010000000000000BRBICBACNPR7131
012013082302BIOM4       010BIOMM       PN           R$  000000000081000000000008110000000000810000000000081000000000008100000000000801000000000085500006000000000000021000000000000017011000000000000000009999123100000010000000000000BRBIOMACNPR9101
012013082396BIOM4F      020BIOMM       PN           R$  000000000083000000000008300000000000830000000000083000000000008300000000000830000000000087500001000000000000000110000000000000091300000000000000009999123100000010000000000000BRBIOMACNPR9101
012013082302BISA3       010BROOKFIELD  ON      NM   R$  000000000017700000000001890000000000175000000000018200000000001880000000000187000000000018802109000000000006467000000000001181731000000000000000009999123100000010000000000000BRBISAACNOR8109
012013082396BISA3F      020BROOKFIELD  ON      NM   R$  000000000017700000000001970000000000176000000000018200000000001800000000000181000000000019600012000000000000000421000000000000076842000000000000009999123100000010000000000000BRBISAACNOR8109
012013082362BISA3S      030BROOKFIELD  ON      NM090R$  000000000018100000000001820000000000181000000000018100000000001820000000000000000000000000000002000000000000010000000000000001811595000000000000009999123100000010000000000000BRBISAACNOR8109
012013082362BISA3T      030BROOKFIELD  ON      NM017R$  000000000018400000000001850000000000184000000000018400000000001850000000000000000000000000000016000000000000200000000000000036943520000000000000009999123100000010000000000000BRBISAACNOR8109
012013082362BISA3T      030BROOKFIELD  ON      NM031R$  000000000018900000000001900000000000189000000000018900000000001900000000000000000000000000000002000000000000020000000000000003785192000000000000009999123100000010000000000000BRBISAACNOR8109
012013082312BJRC11      010FII JS RECIMCI           R$  000000008230000000000898000000000082002000000008589600000000898000000000087000000000008980000023000000000000000300000000000025768811000000000000009999123100000010000000000000BRBJRCCTF007109
012013082396BMEB4F      020MERC BRASIL PN           R$  000000000108000000000010800000000001080000000000108000000000010800000000001051000000000114000001000000000000000047000000000000050760000000000000009999123100000010000000000000BRBMEBACNPR5191
012013082302BMIN4       010MERC INVEST PN  EJ       R$  000000000002500000000000290000000000025000000000002500000000000270000000000025000000000002800016000000000000041000000000000001056000000000000000009999123100000010000000000000BRBMINACNPR1160
012013082396BMIN4F      020MERC INVEST PN  EJ       R$  000000000002500000000000250000000000025000000000002500000000000250000000000025000000000002700001000000000000000400000000000000010000000000000000009999123100000010000000000000BRBMINACNPR1160
012013082312BMLC11B     010FII BMBRC LCCI      MB   R$  000000001160000000000116500000000011510000000001159800000000116500000000011510000000001165000004000000000000000718000000000008327370000000000000009999123100000010000000000000BRBMLCCTF004118
012013082396BMTO3F      020BRASMOTOR   ON           R$  000000000008000000000000800000000000080000000000008000000000000800000000000061000000000008000001000000000000000100000000000000008000000000000000009999123100000010000000000000BRBMTOACNOR9180
012013082396BMTO4F      020BRASMOTOR   PN           R$  000000000008700000000000870000000000087000000000008700000000000870000000000084000000000008700001000000000000000200000000000000017400000000000000009999123100000010000000000000BRBMTOACNPR6065
012013082396BOBR4F      020BOMBRIL     PN           R$  000000000065000000000006500000000000650000000000065000000000006500000000000600000000000065300004000000000000000099000000000000064350000000000000009999123100000010000000000000BRBOBRACNPR3127
012013082314BOVA11      010ISHARES BOVACI           R$  000000000500600000000051240000000005006000000000507200000000051150000000005115000000000512302284000000000000855830000000004341066030000000000000009999123100000010000000000000BRBOVACTF003101
012013082396BOVA11F     020ISHARES BOVACI           R$  000000000502000000000050830000000005020000000000505300000000050830000000005100000000000511200008000000000000000022000000000000111166000000000000009999123100000010000000000000BRBOVACTF003101
012013082312BPFF11      010FII ABSOLUTOCI           R$  000000000862000000000087100000000008605000000000861800000000086200000000008620000000000868900012000000000000001352000000000011652073000000000000009999123100000010000000000000BRBPFFCTF002104
012013082302BPHA3       010BR PHARMA   ON      NM   R$  000000000096100000000009660000000000947000000000095600000000009550000000000954000000000095501450000000000000600900000000000574568500000000000000009999123100000010000000000000BRBPHAACNOR6102
012013082396BPHA3F      020BR PHARMA   ON      NM   R$  000000000096000000000009600000000000943000000000095800000000009580000000000956000000000096400005000000000000000165000000000000158120000000000000009999123100000010000000000000BRBPHAACNOR6102
012013082302BPNM4       010PANAMERICANOPN      N1   R$  000000000053900000000005390000000000522000000000053000000000005220000000000522000000000052800302000000000000200800000000000106564700000000000000009999123100000010000000000000BRBPNMACNPR6111
012013082396BPNM4F      020PANAMERICANOPN      N1   R$  000000000051000000000005320000000000510000000000052700000000005320000000000527000000000053500006000000000000000256000000000000135029000000000000009999123100000010000000000000BRBPNMACNPR6111
012013082362BPNM4T      030PANAMERICANOPN      N1090R$  000000000054500000000005460000000000545000000000054500000000005460000000000000000000000000000002000000000000100000000000000054521400000000000000009999123100000010000000000000BRBPNMACNPR6111
012013082302BRAP3       010BRADESPAR   ON      N1   R$  000000000206700000000020950000000002060000000000207900000000020900000000002068000000000209000014000000000000007500000000000015594600000000000000009999123100000010000000000000BRBRAPACNOR5124
012013082396BRAP3F      020BRADESPAR   ON      N1   R$  000000000209100000000021460000000002040000000000206000000000021460000000002020000000000214600012000000000000000164000000000000337911000000000000009999123100000010000000000000BRBRAPACNOR5124
012013082302BRAP4       010BRADESPAR   PN      N1   R$  000000000258900000000025990000000002518000000000255800000000025870000000002564000000000258705933000000000001406900000000003600066900000000000000009999123100000010000000000000BRBRAPACNPR2124
012013082396BRAP4F      020BRADESPAR   PN      N1   R$  000000000259000000000026120000000002512000000000255200000000026120000000002530000000000261200059000000000000001863000000000004754439000000000000009999123100000010000000000000BRBRAPACNPR2124
012013082362BRAP4T      030BRADESPAR   PN      N1017R$  000000000255600000000025570000000002556000000000255600000000025570000000000000000000000000000002000000000000004000000000000010224792000000000000009999123100000010000000000000BRBRAPACNPR2124
012013082314BRAX11      010ISHARES BRAXCI           R$  000000000405000000000040570000000004050000000000405100000000040500000000000000000000000000000004000000000000000410000000000001661300000000000000009999123100000010000000000000BRBRAXCTF002100
012013082312BRCR11      010FII BC FUND CI           R$  000000001264900000000126490000000012555000000001259500000000126270000000012601000000001262700316000000000000016248000000000204647448000000000000009999123100000010000000000000BRBRCRCTF000132
012013082302BRFS3       010BRF SA      ON      NM   R$  000000000537000000000054350000000005316000000000537700000000054020000000005396000000000540204929000000000001318500000000007089828000000000000000009999123100000010000000000000BRBRFSACNOR8110
012013082396BRFS3F      020BRF SA      ON      NM   R$  000000000537000000000054160000000005321000000000536600000000053810000000005381000000000539800088000000000000003437000000000018446407000000000000009999123100000010000000000000BRBRFSACNOR8110
012013082362BRFS3T      030BRF SA      ON      NM031R$  000000000539900000000054020000000005399000000000540000000000054020000000000000000000000000000006000000000000000300000000000001620142000000000000009999123100000010000000000000BRBRFSACNOR8110
012013082302BRIN3       010BR INSURANCEON  ED  NM   R$  000000000180800000000019090000000001771000000000184000000000018900000000001881000000000189001629000000000000337300000000000620896100000000000000009999123100000010000000000000BRBRINACNOR3106
012013082396BRIN3F      020BR INSURANCEON  ED  NM   R$  000000000183900000000018850000000001780000000000181800000000018850000000001861000000000192300032000000000000000733000000000001332766000000000000009999123100000010000000000000BRBRINACNOR3106
012013082362BRIN3T      030BR INSURANCEON  ED  NM360R$  000000000199400000000019950000000001994000000000199400000000019950000000000000000000000000000002000000000000000300000000000000598398000000000000009999123100000010000000000000BRBRINACNOR3106
012013082396BRIV3F      020ALFA INVEST ON  EJ       R$  000000000055000000000005500000000000550000000000055000000000005500000000000508000000000070000001000000000000000054000000000000029700000000000000009999123100000010000000000000BRBRIVACNOR6197
012013082302BRIV4       010ALFA INVEST PN  EJ       R$  000000000055000000000005880000000000550000000000057900000000005880000000000559000000000058800010000000000000002700000000000001564900000000000000009999123100000010000000000000BRBRIVACNPR3197
012013082396BRIV4F      020ALFA INVEST PN  EJ       R$  000000000051000000000005100000000000510000000000051000000000005100000000000521000000000059600001000000000000000020000000000000010200000000000000009999123100000010000000000000BRBRIVACNPR3197
012013082302BRKM3       010BRASKEM     ON      N1   R$  000000000120100000000012190000000001200000000000120100000000012170000000001192000000000122400006000000000000002900000000000003485400000000000000009999123100000010000000000000BRBRKMACNOR1110
012013082396BRKM3F      020BRASKEM     ON      N1   R$  000000000120000000000012000000000001200000000000120000000000012000000000001200000000000124900001000000000000000005000000000000006000000000000000009999123100000010000000000000BRBRKMACNOR1110
012013082302BRKM5       010BRASKEM     PNA     N1   R$  000000000178500000000017870000000001748000000000176500000000017800000000001780000000000178109760000000000002204500000000003892972500000000000000009999123100000010000000000000BRBRKMACNPA4110
012013082396BRKM5F      020BRASKEM     PNA     N1   R$  000000000178900000000017990000000001745000000000176500000000017990000000001746000000000179900062000000000000001745000000000003081610000000000000009999123100000010000000000000BRBRKMACNPA4110
012013082362BRKM5T      030BRASKEM     PNA     N1031R$  000000000176600000000017670000000001766000000000176600000000017670000000000000000000000000000002000000000000000500000000000000883379000000000000009999123100000010000000000000BRBRKMACNPA4110
012013082362BRKM5T      030BRASKEM     PNA     N1122R$  000000000180500000000018290000000001805000000000181600000000018290000000000000000000000000000004000000000000013300000000000024157835000000000000009999123100000010000000000000BRBRKMACNPA4110
012013082362BRKM5T      030BRASKEM     PNA     N1180R$  000000000185300000000018540000000001853000000000185300000000018540000000000000000000000000000002000000000000001000000000000001853053000000000000009999123100000010000000000000BRBRKMACNPA4110
012013082378BRKMJ19     070BRKM        PNA     N1000R$  000000000005300000000000530000000000053000000000005300000000000530000000000000000000000000000001000000000000350000000000000018550000000000000190002013102100000010000000000000BRBRKMACNPA4110
012013082302BRML3       010BR MALLS PARON      NM   R$  000000000181600000000018440000000001795000000000181600000000018440000000001830000000000184411240000000000005025400000000009129209500000000000000009999123100000010000000000000BRBRMLACNOR9105
012013082396BRML3F      020BR MALLS PARON      NM   R$  000000000181900000000018290000000001799000000000181000000000018240000000001827000000000183400060000000000000002168000000000003924480000000000000009999123100000010000000000000BRBRMLACNOR9105
012013082362BRML3T      030BR MALLS PARON      NM060R$  000000000184400000000018560000000001844000000000185300000000018560000000000000000000000000000004000000000000006000000000000011123197000000000000009999123100000010000000000000BRBRMLACNOR9105
012013082378BRMLI19     070BRML        ON      NM000R$  000000000001200000000000120000000000012000000000001200000000000120000000000000000000000000000002000000000000001100000000000000013200000000000190002013091600000010000000000000BRBRMLACNOR9105
012013082302BRPR3       010BR PROPERT  ON      NM   R$  000000000178600000000018220000000001781000000000180100000000018060000000001806000000000180704626000000000003903900000000007032149500000000000000009999123100000010000000000000BRBRPRACNOR9112
012013082396BRPR3F      020BR PROPERT  ON      NM   R$  000000000178800000000018350000000001752000000000179500000000017520000000001752000000000186300023000000000000000703000000000001262529000000000000009999123100000010000000000000BRBRPRACNOR9112
012013082302BRSR3       010BANRISUL    ON      N1   R$  000000000125100000000012600000000001251000000000125200000000012600000000001259000000000134900006000000000000000700000000000000876600000000000000009999123100000010000000000000BRBRSRACNOR3130
012013082302BRSR6       010BANRISUL    PNB     N1   R$  000000000135600000000014170000000001356000000000138600000000014150000000001402000000000141502249000000000000550100000000000762506200000000000000009999123100000010000000000000BRBRSRACNPB4133
012013082396BRSR6F      020BANRISUL    PNB     N1   R$  000000000137000000000014300000000001353000000000138800000000014070000000001407000000000141300031000000000000001000000000000001389036000000000000009999123100000010000000000000BRBRSRACNPB4133
012013082302BSEV3       010BIOSEV      ON      NM   R$  000000000088500000000008850000000000884000000000088400000000008850000000000875000000000088500006000000000000002200000000000001946900000000000000009999123100000010000000000000BRBSEVACNOR3100
012013082396BSEV3F      020BIOSEV      ON      NM   R$  000000000087000000000008700000000000870000000000087000000000008700000000000806000000000094400001000000000000000049000000000000042630000000000000009999123100000010000000000000BRBSEVACNOR3100
012013082302BTOW3       010B2W DIGITAL ON      NM   R$  000000000125500000000013540000000001246000000000131500000000013510000000001351000000000135201838000000000000759800000000000999563800000000000000009999123100000010000000000000BRBTOWACNOR8105
012013082396BTOW3F      020B2W DIGITAL ON      NM   R$  000000000127800000000013520000000001278000000000131700000000013450000000001261000000000134500042000000000000000987000000000001303735000000000000009999123100000010000000000000BRBTOWACNOR8105
012013082362BTOW3T      030B2W DIGITAL ON      NM031R$  000000000129800000000012990000000001298000000000129800000000012990000000000000000000000000000002000000000000002500000000000003246930000000000000009999123100000010000000000000BRBTOWACNOR8105
012013082302BTTL3       010BATTISTELLA ON           R$  000000000008600000000000860000000000082000000000008200000000000860000000000081000000000008600005000000000000016100000000000001325000000000000000009999123100000010000000000000BRBTTLACNOR0105
012013082302BTTL4       010BATTISTELLA PN           R$  000000000010000000000001000000000000099000000000009900000000001000000000000099000000000010000007000000000000028400000000000002839800000000000000009999123100000010000000000000BRBTTLACNPR7105
012013082302BVMF3       010BMFBOVESPA  ON  ED  NM   R$  000000000114500000000011980000000001138000000000117700000000011970000000001195000000000119726249000000000015221400000000017917538900000000000000009999123100000010000000000000BRBVMFACNOR3126
012013082396BVMF3F      020BMFBOVESPA  ON  ED  NM   R$  000000000114000000000011960000000001139000000000117000000000011890000000001181000000000118900147000000000000005400000000000006328145000000000000009999123100000010000000000000BRBVMFACNOR3126
012013082362BVMF3T      030BMFBOVESPA  ON  ED  NM062R$  000000000116700000000011680000000001167000000000116700000000011680000000000000000000000000000002000000000000001000000000000001167114000000000000009999123100000010000000000000BRBVMFACNOR3126
012013082378BVMFB14     070BVMF    /ED ON      NM000R$  000000000003800000000000380000000000037000000000003700000000000370000000000000000000000000000002000000000000637600000000000023910000000000000140002014021700000010000000000000BRBVMFACNOR3126
012013082378BVMFI10     070BVMF    /ED ON      NM000R$  000000000016800000000002120000000000168000000000019600000000002070000000000201000000000000000017000000000000011600000000000002283400000000000098502013091600000010000000000000BRBVMFACNOR3125
012013082378BVMFI11     070BVMF  FM/ED ON      NM000R$  000000000007800000000001220000000000075000000000009600000000001220000000000122000000000000000109000000000000256300000000000024724900000000000108502013091600000010000000000000BRBVMFACNOR3125
012013082378BVMFI12     070BVMF  FM/ED ON      NM000R$  000000000002400000000000470000000000022000000000003500000000000460000000000042000000000004600799000000000001604400000000000056577700000000000118502013091600000010000000000000BRBVMFACNOR3125
012013082378BVMFI13     070BVMF  FM/ED ON      NM000R$  000000000000700000000000130000000000005000000000000900000000000120000000000011000000000001200167000000000000685200000000000006205100000000000128502013091600000010000000000000BRBVMFACNOR3125
012013082378BVMFI14     070BVMF    /ED ON      NM000R$  000000000000200000000000040000000000002000000000000200000000000030000000000002000000000000300049000000000000352800000000000000973500000000000138502013091600000010000000000000BRBVMFACNOR3125
012013082378BVMFI40     070BVMF    /ED ON      NM000R$  000000000015700000000001620000000000157000000000016000000000001620000000000000000000000000000003000000000000002000000000000000320000000000000103502013091600000010000000000000BRBVMFACNOR3125
012013082378BVMFI41     070BVMF  FM/ED ON      NM000R$  000000000004700000000000780000000000047000000000007100000000000770000000000000000000000000000048000000000000112000000000000008015800000000000113502013091600000010000000000000BRBVMFACNOR3125
012013082378BVMFI42     070BVMF  FM/ED ON      NM000R$  000000000001200000000000240000000000012000000000001700000000000220000000000000000000000000000140000000000000442700000000000007706800000000000123502013091600000010000000000000BRBVMFACNOR3125
012013082378BVMFJ11     070BVMF  FM/ED ON      NM000R$  000000000010600000000001410000000000105000000000013300000000001390000000000065000000000018000057000000000000151300000000000020250100000000000108502013102100000010000000000000BRBVMFACNOR3125
012013082378BVMFJ12     070BVMF  FM/ED ON      NM000R$  000000000004700000000000710000000000044000000000006000000000000710000000000040000000000011000051000000000000138600000000000008333000000000000118502013102100000010000000000000BRBVMFACNOR3125
012013082378BVMFJ13     070BVMF  FM/ED ON      NM000R$  000000000001700000000000290000000000015000000000002500000000000280000000000027000000000002800307000000000000884600000000000022644000000000000128502013102100000010000000000000BRBVMFACNOR3125
012013082378BVMFJ14     070BVMF    /ED ON      NM000R$  000000000000800000000000080000000000008000000000000800000000000080000000000003000000000000000003000000000000004000000000000000032000000000000138502013102100000010000000000000BRBVMFACNOR3125
012013082378BVMFJ15     070BVMF    /ED ON      NM000R$  000000000000100000000000010000000000001000000000000100000000000010000000000001000000000000700002000000000000008000000000000000008000000000000148502013102100000010000000000000BRBVMFACNOR3125
012013082378BVMFJ41     070BVMF  FM/ED ON      NM000R$  000000000007300000000001030000000000070000000000009300000000001020000000000000000000000000000031000000000000086700000000000008104300000000000113502013102100000010000000000000BRBVMFACNOR3125
012013082378BVMFJ42     070BVMF  FM/ED ON      NM000R$  000000000003000000000000490000000000030000000000004600000000000470000000000000000000000000000180000000000000663000000000000030838600000000000123502013102100000010000000000000BRBVMFACNOR3125
012013082378BVMFJ51     070BVMFE   /ED ON      NM000R$  000000000005700000000000570000000000057000000000005700000000000570000000000000000000000000000001000000000000001000000000000000057000000000000116002013102100000010000000000000BRBVMFACNOR3125
012013082378BVMFK11     070BVMF    /ED ON      NM000R$  000000000012600000000001260000000000126000000000012600000000001260000000000000000000000000000002000000000000004000000000000000504000000000000108502013111800000010000000000000BRBVMFACNOR3125
012013082378BVMFK13     070BVMF    /ED ON      NM000R$  000000000002500000000000330000000000025000000000003100000000000330000000000000000000000000000003000000000000007000000000000000223000000000000128502013111800000010000000000000BRBVMFACNOR3125
012013082378BVMFL42     070BVMF    /ED ON      NM000R$  000000000007000000000000700000000000070000000000007000000000000700000000000000000000000000000001000000000000700000000000000049000000000000000125002013121600000010000000000000BRBVMFACNOR3126
012013082382BVMFN11     080BVMFE   /ED ON      NM000R$  000000000006500000000000650000000000065000000000006500000000000650000000000000000000000000000001000000000000637600000000000041444000000000000110002014021700000010000000000000BRBVMFACNOR3126
012013082382BVMFN9      080BVMFE   /ED ON      NM000R$  000000000001000000000000100000000000010000000000001000000000000100000000000000000000000000000001000000000000637600000000000006376000000000000090002014021700000010000000000000BRBVMFACNOR3126
012013082382BVMFU10     080BVMFE   /ED ON      NM000R$  000000000000200000000000020000000000001000000000000100000000000010000000000001000000000001000005000000000000029900000000000000030900000000000098502013091600000010000000000000BRBVMFACNOR3125
012013082382BVMFU11     080BVMFE FM/ED ON      NM000R$  000000000001100000000000130000000000005000000000000800000000000080000000000007000000000000900043000000000000098700000000000000860800000000000108502013091600000010000000000000BRBVMFACNOR3125
012013082382BVMFU12     080BVMFE FM/ED ON      NM000R$  000000000005600000000000560000000000030000000000003500000000000340000000000024000000000003500102000000000000310900000000000011063600000000000118502013091600000010000000000000BRBVMFACNOR3125
012013082382BVMFU13     080BVMFE   /ED ON      NM000R$  000000000012700000000001270000000000123000000000012600000000001230000000000090000000000000000007000000000000011000000000000001392000000000000128502013091600000010000000000000BRBVMFACNOR3125
012013082382BVMFU40     080BVMFE FM/ED ON      NM000R$  000000000000500000000000060000000000001000000000000300000000000050000000000000000000000001800107000000000000222600000000000000754800000000000103502013091600000010000000000000BRBVMFACNOR3125
012013082382BVMFU41     080BVMFE FM/ED ON      NM000R$  000000000002900000000000300000000000014000000000002100000000000190000000000000000000000000000027000000000000090400000000000001938600000000000113502013091600000010000000000000BRBVMFACNOR3125
012013082382BVMFV11     080BVMFE FM/ED ON      NM000R$  000000000002900000000000290000000000020000000000002300000000000240000000000000000000000000000042000000000000087500000000000002047900000000000108502013102100000010000000000000BRBVMFACNOR3125
012013082382BVMFV12     080BVMFE FM/ED ON      NM000R$  000000000006600000000000660000000000049000000000005300000000000550000000000048000000000007800049000000000000060200000000000003214000000000000118502013102100000010000000000000BRBVMFACNOR3125
012013082382BVMFV40     080BVMFE FM/ED ON      NM000R$  000000000001700000000000170000000000012000000000001300000000000160000000000000000000000000000013000000000000026600000000000000372000000000000103502013102100000010000000000000BRBVMFACNOR3125
012013082382BVMFV41     080BVMFE FM/ED ON      NM000R$  000000000004600000000000460000000000032000000000003500000000000360000000000000000000000008000047000000000000107600000000000003813300000000000113502013102100000010000000000000BRBVMFACNOR3125
012013082302CAMB4       010CAMBUCI     PN           R$  000000000018500000000001850000000000183000000000018400000000001830000000000182000000000018900002000000000000003100000000000000573300000000000000009999123100000010000000000000BRCAMBACNPR1117
012013082302CARD3       010CSU CARDSYSTON      NM   R$  000000000032800000000003290000000000320000000000032600000000003290000000000312000000000032900023000000000000028800000000000009417300000000000000009999123100000010000000000000BRCARDACNOR9105
012013082396CARD3F      020CSU CARDSYSTON      NM   R$  000000000032400000000003240000000000324000000000032400000000003240000000000287000000000032400003000000000000000100000000000000032400000000000000009999123100000010000000000000BRCARDACNOR9105
012013082396CBMA3F      020COBRASMA    ON           R$  000000000000600000000000060000000000006000000000000600000000000060000000000005000000000000600001000000000000000001000000000000000006000000000000009999123100000010000000000000BRCBMAACNOR4124
012013082302CBMA4       010COBRASMA    PN           R$  000000000000500000000000050000000000004000000000000400000000000050000000000004000000000000500007000000000000200000000000000000980000000000000000009999123100000010000000000000BRCBMAACNPR1124
012013082396CBMA4F      020COBRASMA    PN           R$  000000000000400000000000050000000000004000000000000400000000000050000000000003000000000000500004000000000000005430000000000000025721000000000000009999123100000010000000000000BRCBMAACNPR1124
012013082308CCHI3       010CHIARELLI   ON           R$  000000000004100000000000430000000000037000000000003800000000000370000000000036000000000003900100000000000001380000000000000053380000000000000000009999123100000010000000000000BRCCHIACNOR5123
012013082396CCHI3F      020CHIARELLI   ON           R$  000000000004300000000000440000000000034000000000003900000000000380000000000037000000000004000042000000000000088042000000000003481218000000000000009999123100000010000000000000BRCCHIACNOR5123
012013082308CCHI4       010CHIARELLI   PN           R$  000000000002900000000000330000000000029000000000003100000000000320000000000031000000000003200022000000000000310000000000000009660000000000000000009999123100000010000000000000BRCCHIACNPR2122
012013082396CCHI4F      020CHIARELLI   PN           R$  000000000002700000000000320000000000027000000000003000000000000320000000000023000000000003200007000000000000013208000000000000398584000000000000009999123100000010000000000000BRCCHIACNPR2122
012013082302CCPR3       010CYRE COM-CCPON      NM   R$  000000000220000000000022000000000002100000000000213500000000021340000000002131000000000213500038000000000000113500000000000242426400000000000000009999123100000010000000000000BRCCPRACNOR9107
012013082396CCPR3F      020CYRE COM-CCPON      NM   R$  000000000220000000000022000000000002200000000000220000000000022000000000002103000000000218800001000000000000000010000000000000022000000000000000009999123100000010000000000000BRCCPRACNOR9107
012013082302CCRO3       010CCR SA      ON      NM   R$  000000000170300000000017350000000001698000000000172300000000017190000000001719000000000172307926000000000003310000000000005703576600000000000000009999123100000010000000000000BRCCROACNOR2122
012013082396CCRO3F      020CCR SA      ON      NM   R$  000000000168800000000017350000000001684000000000172100000000017300000000001720000000000173000036000000000000000939000000000001616914000000000000009999123100000010000000000000BRCCROACNOR2122
012013082302CCXC3       010CCX CARVAO  ON      NM   R$  000000000014800000000001560000000000143000000000014700000000001450000000000145000000000014601520000000000006918100000000001022342400000000000000009999123100000010000000000000BRCCXCACNOR5100
012013082396CCXC3F      020CCX CARVAO  ON      NM   R$  000000000015000000000001500000000000144000000000014700000000001480000000000143000000000014800008000000000000000197000000000000029094000000000000009999123100000010000000000000BRCCXCACNOR5100
012013082362CCXC3T      030CCX CARVAO  ON      NM017R$  000000000014500000000001460000000000145000000000014500000000001460000000000000000000000000000002000000000000001500000000000000218348000000000000009999123100000010000000000000BRCCXCACNOR5100
012013082302CEDO4       010CEDRO       PN      N1   R$  000000000093500000000009350000000000935000000000093500000000009350000000000850000000000093500001000000000000000100000000000000093500000000000000009999123100000010000000000000BRCEDOACNPR5126
012013082396CEEB3F      020COELBA      ON           R$  000000000350000000000035000000000003500000000000350000000000035000000000003250000000000350000001000000000000000040000000000000140000000000000000009999123100000010000000000000BRCEEBACNOR3163
012013082308CELP3       010CELPA       ON           R$  000000000006700000000000680000000000067000000000006700000000000680000000000067000000000006800003000000000000001000000000000000067700000000000000009999123100000010000000000000BRCELPACNOR8112
012013082308CELP5       010CELPA       PNA          R$  000000000006600000000000660000000000066000000000006600000000000660000000000070000000000007800001000000000000000100000000000000006600000000000000009999123100000010000000000000BRCELPACNPA1114
012013082312CEOC11B     010FII CEO CCP CI      MB   R$  000000000890000000000090000000000008900000000000897800000000089800000000008961000000000898000027000000000000001760000000000015801485000000000000009999123100000010000000000000BRCEOCCTF003109
012013082302CESP3       010CESP        ON  EJ  N1   R$  000000000172000000000017200000000001719000000000171900000000017200000000001673000000000172000003000000000000001800000000000003094500000000000000009999123100000010000000000000BRCESPACNOR3160
012013082396CESP3F      020CESP        ON  EJ  N1   R$  000000000172000000000017200000000001720000000000172000000000017200000000001508000000000200100001000000000000000010000000000000017200000000000000009999123100000010000000000000BRCESPACNOR3160
012013082302CESP6       010CESP        PNB EJ  N1   R$  000000000205900000000020920000000002026000000000206800000000020790000000002078000000000207901811000000000000616400000000001274756300000000000000009999123100000010000000000000BRCESPACNPB4119
012013082396CESP6F      020CESP        PNB EJ  N1   R$  000000000206000000000020990000000002030000000000206700000000020990000000002025000000000210000025000000000000000725000000000001498846000000000000009999123100000010000000000000BRCESPACNPB4119
012013082302CGAS3       010COMGAS      ON           R$  000000000515000000000051500000000005150000000000515000000000051500000000004807000000000515000001000000000000000200000000000001030000000000000000009999123100000010000000000000BRCGASACNOR0132
012013082302CGAS5       010COMGAS      PNA          R$  000000000558000000000056440000000005520000000000559300000000056000000000005577000000000560000057000000000000026700000000000149356900000000000000009999123100000010000000000000BRCGASACNPA3129
012013082396CGRA3F      020GRAZZIOTIN  ON           R$  000000000171700000000017170000000001717000000000171700000000017170000000001522000000000171700001000000000000000002000000000000003434000000000000009999123100000010000000000000BRCGRAACNOR2061
012013082302CGRA4       010GRAZZIOTIN  PN           R$  000000000168900000000017150000000001689000000000170000000000017150000000001680000000000171500046000000000000032600000000000055431300000000000000009999123100000010000000000000BRCGRAACNPR9061
012013082302CIEL3       010CIELO       ON      NM   R$  000000000567900000000058300000000005674000000000578400000000058300000000005823000000000583206362000000000002653600000000015350369500000000000000009999123100000010000000000000BRCIELACNOR3111
012013082396CIEL3F      020CIELO       ON      NM   R$  000000000568000000000058200000000005650000000000575900000000058200000000005818000000000582000164000000000000004238000000000024417408000000000000009999123100000010000000000000BRCIELACNOR3111
012013082362CIEL3T      030CIELO       ON      NM017R$  000000000585400000000058550000000005822000000000582500000000058230000000000000000000000000000008000000000000002000000000000011651398000000000000009999123100000010000000000000BRCIELACNOR3111
012013082362CIEL3T      030CIELO       ON      NM027R$  000000000577700000000057780000000005777000000000577700000000057780000000000000000000000000000002000000000000000400000000000002310924000000000000009999123100000010000000000000BRCIELACNOR3111
012013082362CIEL3T      030CIELO       ON      NM031R$  000000000578000000000058590000000005780000000000583900000000058590000000000000000000000000000009000000000000600900000000003508818998000000000000009999123100000010000000000000BRCIELACNOR3111
012013082302CIQU4       010CACIQUE     PN           R$  000000000090000000000009000000000000900000000000090000000000009000000000000680000000000120000002000000000000001400000000000001260000000000000000009999123100000010000000000000BRCIQUACNPR5157
012013082396CIQU4F      020CACIQUE     PN           R$  000000000080000000000009000000000000670000000000075000000000009000000000000608000000000090000008000000000000000105000000000000078786000000000000009999123100000010000000000000BRCIQUACNPR5157
012013082302CLSC4       010CELESC      PN      N2   R$  000000000181800000000018290000000001802000000000182000000000018290000000001820000000000183000045000000000000008400000000000015293100000000000000009999123100000010000000000000BRCLSCACNPR3107
012013082302CMIG3       010CEMIG       ON      N1   R$  000000000191000000000019220000000001893000000000189900000000019000000000001900000000000191000179000000000000452400000000000859548800000000000000009999123100000010000000000000BRCMIGACNOR6208
012013082396CMIG3F      020CEMIG       ON      N1   R$  000000000192000000000019200000000001897000000000190900000000019190000000001919000000000192000011000000000000000309000000000000589944000000000000009999123100000010000000000000BRCMIGACNOR6208
012013082302CMIG4       010CEMIG       PN      N1   R$  000000000193000000000019470000000001913000000000192900000000019440000000001941000000000194407021000000000002147100000000004142368100000000000000009999123100000010000000000000BRCMIGACNPR3208
012013082396CMIG4F      020CEMIG       PN      N1   R$  000000000194000000000019580000000001915000000000192500000000019500000000001940000000000195000095000000000000002605000000000005015756000000000000009999123100000010000000000000BRCMIGACNPR3208
012013082362CMIG4T      030CEMIG       PN      N1031R$  000000000195400000000019580000000001937000000000195500000000019580000000000000000000000000000006000000000000002600000000000005084480000000000000009999123100000010000000000000BRCMIGACNPR3208
012013082362CMIG4T      030CEMIG       PN      N1042R$  000000000195800000000019590000000001958000000000195800000000019590000000000000000000000000000002000000000000000600000000000001175058000000000000009999123100000010000000000000BRCMIGACNPR3208
012013082362CMIG4T      030CEMIG       PN      N1060R$  000000000195500000000019560000000001955000000000195500000000019560000000000000000000000000000002000000000000000700000000000001368968000000000000009999123100000010000000000000BRCMIGACNPR3208
012013082378CMIGI20     070CMIG        PN      N1000R$  000000000003800000000000380000000000038000000000003800000000000380000000000038000000000004800003000000000000002000000000000000076000000000000200002013091600000010000000000000BRCMIGACNPR3208
012013082378CMIGI22     070CMIG        PN      N1000R$  000000000000500000000000050000000000005000000000000500000000000050000000000005000000000002500001000000000000000300000000000000001500000000000220002013091600000010000000000000BRCMIGACNPR3208
012013082312CNES11B     010FII CENESP  CI  ER  MB   R$  000000001265000000000128390000000012650000000001269200000000126500000000012650000000001280000010000000000000000334000000000004239285000000000000009999123100000010000000000000BRCNESCTF001125
012013082302COCE3       010COELCE      ON           R$  000000000400000000000041480000000004000000000000411500000000041480000000004090000000000414900010000000000000002400000000000009876300000000000000009999123100000010000000000000BRCOCEACNOR0132
012013082302COCE5       010COELCE      PNA          R$  000000000393600000000041520000000003915000000000401600000000040200000000004020000000000405500210000000000000057600000000000231327600000000000000009999123100000010000000000000BRCOCEACNPA3133
012013082396COCE5F      020COELCE      PNA          R$  000000000393600000000043010000000003936000000000404300000000040200000000003961000000000402000037000000000000000931000000000003764698000000000000009999123100000010000000000000BRCOCEACNPA3133
012013082302CPFE3       010CPFL ENERGIAON  ED  NM   R$  000000000197300000000019730000000001923000000000195000000000019630000000001958000000000196304118000000000000982500000000001916259900000000000000009999123100000010000000000000BRCPFEACNOR0122
012013082396CPFE3F      020CPFL ENERGIAON  ED  NM   R$  000000000195000000000019580000000001926000000000193600000000019400000000001940000000000195900026000000000000000507000000000000981628000000000000009999123100000010000000000000BRCPFEACNOR0122
012013082302CPLE3       010COPEL       ON      N1   R$  000000000224800000000022480000000002195000000000221900000000022400000000002240000000000224400047000000000000007900000000000017531000000000000000009999123100000010000000000000BRCPLEACNOR8128
012013082396CPLE3F      020COPEL       ON      N1   R$  000000000223400000000022340000000002200000000000221200000000022000000000002203000000000000000005000000000000000100000000000000221256000000000000009999123100000010000000000000BRCPLEACNOR8128
012013082302CPLE6       010COPEL       PNB     N1   R$  000000000296300000000029910000000002935000000000295200000000029500000000002947000000000295002007000000000000535600000000001581145400000000000000009999123100000010000000000000BRCPLEACNPB9125
012013082396CPLE6F      020COPEL       PNB     N1   R$  000000000296000000000030490000000002944000000000296500000000029440000000002956000000000304700009000000000000000270000000000000800594000000000000009999123100000010000000000000BRCPLEACNPB9125
012013082302CRDE3       010CR2         ON      NM   R$  000000000041000000000004400000000000410000000000042500000000004200000000000420000000000042800008000000000000016200000000000006893000000000000000009999123100000010000000000000BRCRDEACNOR1108
012013082396CRDE3F      020CR2         ON      NM   R$  000000000042000000000004200000000000420000000000042000000000004200000000000400000000000042000002000000000000000036000000000000015120000000000000009999123100000010000000000000BRCRDEACNOR1108
012013082302CREM3       010CREMER      ON      NM   R$  000000000144000000000014420000000001411000000000142500000000014200000000001411000000000145000025000000000000010000000000000014259600000000000000009999123100000010000000000000BRCREMACNOR2166
012013082302CRIV3       010ALFA FINANC ON  EJ       R$  000000000050600000000005060000000000506000000000050600000000005060000000000480000000000050700002000000000000000200000000000000101200000000000000009999123100000010000000000000BRCRIVACNOR4190
012013082302CRIV4       010ALFA FINANC PN  EJ       R$  000000000044000000000004540000000000440000000000044600000000004540000000000440000000000045400008000000000000004500000000000002010200000000000000009999123100000010000000000000BRCRIVACNPR1190
012013082302CRUZ3       010SOUZA CRUZ  ON           R$  000000000261500000000026680000000002579000000000262900000000026620000000002662000000000266503681000000000001267900000000003334729800000000000000009999123100000010000000000000BRCRUZACNOR0246
012013082396CRUZ3F      020SOUZA CRUZ  ON           R$  000000000260700000000026740000000002580000000000261600000000026060000000002606000000000267500061000000000000001853000000000004848174000000000000009999123100000010000000000000BRCRUZACNOR0246
012013082362CRUZ3T      030SOUZA CRUZ  ON        017R$  000000000261400000000026150000000002614000000000261400000000026150000000000000000000000000000002000000000000000500000000000001307150000000000000009999123100000010000000000000BRCRUZACNOR0246
012013082362CRUZ3T      030SOUZA CRUZ  ON        031R$  000000000261900000000026880000000002619000000000265200000000026880000000000000000000000000000006000000000000003600000000000009548684000000000000009999123100000010000000000000BRCRUZACNOR0246
012013082382CRUZU28     080CRUZE       ON        000R$  000000000020000000000002000000000000200000000000020000000000002000000000000000000000000000000001000000000000001600000000000000320000000000000280002013091600000010000000000000BRCRUZACNOR0246
012013082302CSAN3       010COSAN       ON      NM   R$  000000000406100000000042500000000004050000000000414200000000042290000000004206000000000422905384000000000001480700000000006133289900000000000000009999123100000010000000000000BRCSANACNOR6108
012013082396CSAN3F      020COSAN       ON      NM   R$  000000000410000000000042390000000003979000000000415700000000042050000000004150000000000423900060000000000000001837000000000007637565000000000000009999123100000010000000000000BRCSANACNOR6108
012013082362CSAN3T      030COSAN       ON      NM017R$  000000000408700000000040890000000004087000000000408800000000040890000000000000000000000000000004000000000000000300000000000001226464000000000000009999123100000010000000000000BRCSANACNOR6108
012013082362CSAN3T      030COSAN       ON      NM031R$  000000000410200000000042100000000004102000000000417500000000042100000000000000000000000000000004000000000000001600000000000006681365000000000000009999123100000010000000000000BRCSANACNOR6108
012013082362CSAN3T      030COSAN       ON      NM060R$  000000000412800000000041290000000004128000000000412800000000041290000000000000000000000000000002000000000000001000000000000004128790000000000000009999123100000010000000000000BRCSANACNOR6108
012013082378CSANI42     070CSAN        ON      NM000R$  000000000004200000000000500000000000042000000000004300000000000500000000000000000000000000000006000000000000008400000000000000361600000000000420002013091600000010000000000000BRCSANACNOR6108
012013082302CSMG3       010COPASA      ON      NM   R$  000000000286800000000029250000000002844000000000288900000000029000000000002895000000000291201712000000000000345000000000000996937600000000000000009999123100000010000000000000BRCSMGACNOR5127
012013082396CSMG3F      020COPASA      ON      NM   R$  000000000287100000000029370000000002862000000000289000000000028620000000002861000000000339600017000000000000000485000000000001401674000000000000009999123100000010000000000000BRCSMGACNOR5127
012013082362CSMG3T      030COPASA      ON      NM017R$  000000000291100000000029120000000002911000000000291100000000029120000000000000000000000000000020000000000000010000000000000029117920000000000000009999123100000010000000000000BRCSMGACNOR5127
012013082314CSMO11      010ISHARES CSMOCI           R$  000000000453200000000045320000000004532000000000453200000000045320000000003800000000000482500001000000000000000020000000000000090640000000000000009999123100000010000000000000BRCSMOCTF002100
012013082302CSNA3       010SID NACIONALON           R$  000000000089400000000009060000000000875000000000088300000000008810000000000880000000000088119049000000000009965000000000008807408400000000000000009999123100000010000000000000BRCSNAACNOR6243
012013082396CSNA3F      020SID NACIONALON           R$  000000000090000000000009040000000000876000000000088600000000008980000000000881000000000090300089000000000000002507000000000002223656000000000000009999123100000010000000000000BRCSNAACNOR6243
012013082362CSNA3T      030SID NACIONALON        017R$  000000000088300000000008840000000000883000000000088300000000008840000000000000000000000000000002000000000000001500000000000001325412000000000000009999123100000010000000000000BRCSNAACNOR6243
012013082362CSNA3T      030SID NACIONALON        060R$  000000000089000000000008960000000000890000000000089000000000008930000000000000000000000000000008000000000000063000000000000056120431000000000000009999123100000010000000000000BRCSNAACNOR6243
012013082362CSNA3T      030SID NACIONALON        122R$  000000000090500000000009060000000000905000000000090500000000009060000000000000000000000000000002000000000000003000000000000002716740000000000000009999123100000010000000000000BRCSNAACNOR6243
012013082378CSNAI10     070CSNA        ON        000R$  000000000001000000000000100000000000008000000000000900000000000080000000000000000000000000000006000000000000007300000000000000071300000000000100002013091600000010000000000000BRCSNAACNOR6243
012013082378CSNAI6      070CSNA        ON        000R$  000000000031800000000003210000000000318000000000032000000000003210000000000000000000000000000002000000000000000900000000000000288000000000000058002013091600000010000000000000BRCSNAACNOR6242
012013082378CSNAI7      070CSNA        ON        000R$  000000000021100000000002110000000000205000000000021000000000002050000000000000000000000000000003000000000000004500000000000000945500000000000068002013091600000010000000000000BRCSNAACNOR6242
012013082378CSNAI8      070CSNA        ON        000R$  000000000013200000000001320000000000112000000000012100000000001180000000000115000000000014300048000000000000012400000000000001507100000000000078002013091600000010000000000000BRCSNAACNOR6242
012013082378CSNAI82     070CSNA        ON        000R$  000000000011000000000001100000000000100000000000010200000000001000000000000000000000000000000005000000000000007300000000000000750000000000000080002013091600000010000000000000BRCSNAACNOR6242
012013082378CSNAI84     070CSNA        ON        000R$  000000000006900000000000690000000000069000000000006900000000000690000000000011000000000000000004000000000000005300000000000000365700000000000084002013091600000010000000000000BRCSNAACNOR6243
012013082378CSNAI88     070CSNA  FM    ON        000R$  000000000004400000000000440000000000044000000000004400000000000440000000000000000000000000000001000000000000000100000000000000004400000000000088002013091600000010000000000000BRCSNAACNOR6243
012013082378CSNAI9      070CSNA  FM    ON        000R$  000000000004300000000000430000000000034000000000003900000000000340000000000030000000000004100056000000000000041500000000000001624300000000000090002013091600000010000000000000BRCSNAACNOR6243
012013082378CSNAI92     070CSNA  FM    ON        000R$  000000000003600000000000360000000000028000000000003100000000000280000000000000000000000000000010000000000000019100000000000000592100000000000092002013091600000010000000000000BRCSNAACNOR6243
012013082378CSNAI94     070CSNA  FM    ON        000R$  000000000002500000000000250000000000021000000000002200000000000210000000000019000000000000000010000000000000018800000000000000420500000000000094002013091600000010000000000000BRCSNAACNOR6243
012013082378CSNAI96     070CSNA        ON        000R$  000000000002000000000000200000000000020000000000002000000000000200000000000000000000000000000001000000000000004000000000000000080000000000000096002013091600000010000000000000BRCSNAACNOR6243
012013082378CSNAI98     070CSNA        ON        000R$  000000000001400000000000160000000000010000000000001400000000000100000000000000000000000000000009000000000000044000000000000000628000000000000098002013091600000010000000000000BRCSNAACNOR6243
012013082378CSNAJ10     070CSNA        ON        000R$  000000000002500000000000250000000000025000000000002500000000000250000000000000000000000000000001000000000000002000000000000000050000000000000100002013102100000010000000000000BRCSNAACNOR6243
012013082378CSNAJ7      070CSNA        ON        000R$  000000000021800000000002180000000000218000000000021800000000002180000000000000000000000000000005000000000000005000000000000001090000000000000068002013102100000010000000000000BRCSNAACNOR6242
012013082378CSNAJ8      070CSNA        ON        000R$  000000000013800000000001380000000000138000000000013800000000001380000000000000000000000000000001000000000000002000000000000000276000000000000078002013102100000010000000000000BRCSNAACNOR6242
012013082378CSNAJ9      070CSNA  FM    ON        000R$  000000000007900000000000790000000000070000000000007500000000000760000000000000000000000008000012000000000000025900000000000001947500000000000088002013102100000010000000000000BRCSNAACNOR6242
012013082378CSNAK10     070CSNA        ON        000R$  000000000004500000000000450000000000045000000000004500000000000450000000000000000000000000000003000000000000008000000000000000360000000000000098002013111800000010000000000000BRCSNAACNOR6242
012013082378CSNAK9      070CSNA        ON        000R$  000000000007300000000000730000000000073000000000007300000000000730000000000000000000000000000002000000000000010000000000000000730000000000000090002013111800000010000000000000BRCSNAACNOR6243
012013082382CSNAU8      080CSNAE       ON        000R$  000000000001300000000000130000000000013000000000001300000000000130000000000009000000000002000001000000000000003000000000000000039000000000000078002013091600000010000000000000BRCSNAACNOR6242
012013082382CSNAU84     080CSNAE       ON        000R$  000000000002400000000000240000000000024000000000002400000000000240000000000024000000000010000001000000000000001100000000000000026400000000000084002013091600000010000000000000BRCSNAACNOR6243
012013082382CSNAU88     080CSNAE FM    ON        000R$  000000000003800000000000460000000000038000000000003800000000000460000000000000000000000004500002000000000000001200000000000000046400000000000088002013091600000010000000000000BRCSNAACNOR6243
012013082382CSNAU9      080CSNAE FM    ON        000R$  000000000005200000000000550000000000052000000000005300000000000540000000000044000000000005400003000000000000004500000000000000239000000000000090002013091600000010000000000000BRCSNAACNOR6243
012013082382CSNAV8      080CSNAE       ON        000R$  000000000002800000000000290000000000027000000000002800000000000280000000000027000000000003600019000000000000005500000000000000155100000000000078002013102100000010000000000000BRCSNAACNOR6242
012013082382CSNAV9      080CSNAE FM    ON        000R$  000000000006100000000000610000000000059000000000006000000000000590000000000059000000000007300004000000000000000400000000000000024100000000000088002013102100000010000000000000BRCSNAACNOR6242
012013082382CSNAV92     080CSNAE FM    ON        000R$  000000000008100000000000810000000000081000000000008100000000000810000000000000000000000000000002000000000000005000000000000000405000000000000092002013102100000010000000000000BRCSNAACNOR6243
012013082302CTAX11      010CONTAX      UNT     N2   R$  000000000186900000000019180000000001860000000000189700000000019180000000001711000000000191800019000000000000017100000000000032441800000000000000009999123100000010000000000000BRCTAXCDAM19100
012013082396CTAX11F     020CONTAX      UNT     N2   R$  000000000180000000000018000000000001800000000000180000000000018000000000001800000000000198800001000000000000000007000000000000012600000000000000009999123100000010000000000000BRCTAXCDAM19100
012013082302CTAX4       010CONTAX      PN      N2   R$  000000000037000000000003700000000000351000000000035800000000003510000000000351000000000036300034000000000000013200000000000004736900000000000000009999123100000010000000000000BRCTAXACNPR0114
012013082302CTIP3       010CETIP       ON      NM   R$  000000000223600000000023920000000002224000000000232500000000023820000000002375000000000238207014000000000002004200000000004661731700000000000000009999123100000010000000000000BRCTIPACNOR2119
012013082396CTIP3F      020CETIP       ON      NM   R$  000000000225400000000024400000000002254000000000233000000000024400000000002266000000000238000046000000000000001513000000000003526180000000000000009999123100000010000000000000BRCTIPACNOR2119
012013082378CTIPI62     070CTIP        ON      NM000R$  000000000016000000000001600000000000160000000000016000000000001600000000000000000000000000000001000000000000000300000000000000048000000000000220002013091600000010000000000000BRCTIPACNOR2119
012013082302CTKA4       010KARSTEN     PN           R$  000000000007500000000000800000000000075000000000007900000000000800000000000078000000000008200007000000000000015100000000000001207500000000000000009999123100000010000000000000BRCTKAACNPR7041
012013082302CTNM4       010COTEMINAS   PN           R$  000000000023800000000002380000000000237000000000023700000000002370000000000229000000000023700002000000000000080200000000000019087400000000000000009999123100000010000000000000BRCTNMACNPR6128
012013082362CTNM4T      030COTEMINAS   PN        028R$  000000000023900000000002400000000000239000000000023900000000002400000000000000000000000000000002000000000000080000000000000019163760000000000000009999123100000010000000000000BRCTNMACNPR6128
012013082312CXTL11      010FII CX TRX  CI           R$  000000008099000000000809900000000080990000000008099000000000809900000000078301000000008000000004000000000000000005000000000000404950000000000000009999123100000010000000000000BRCXTLCTF003121
012013082302CYRE3       010CYRELA REALTON      NM   R$  000000000155700000000016160000000001524000000000158300000000016050000000001604000000000160506534000000000002623800000000004155399800000000000000009999123100000010000000000000BRCYREACNOR7125
012013082396CYRE3F      020CYRELA REALTON      NM   R$  000000000152500000000016480000000001525000000000158500000000016380000000001581000000000163800025000000000000000714000000000001133022000000000000009999123100000010000000000000BRCYREACNOR7125
012013082362CYRE3T      030CYRELA REALTON      NM060R$  000000000161200000000016130000000001612000000000161200000000016130000000000000000000000000000002000000000000000800000000000001289728000000000000009999123100000010000000000000BRCYREACNOR7125
012013082378CYREI15     070CYRE  FM    ON      NM000R$  000000000007300000000001340000000000073000000000011800000000001340000000000000000000000000000009000000000000026100000000000003098300000000000150002013091600000010000000000000BRCYREACNOR7125
012013082378CYREI16     070CYRE  FM    ON      NM000R$  000000000003600000000000620000000000036000000000005500000000000620000000000000000000000000000006000000000000015700000000000000863500000000000160002013091600000010000000000000BRCYREACNOR7125
012013082378CYREI17     070CYRE  FM    ON      NM000R$  000000000001000000000000200000000000010000000000001600000000000200000000000000000000000000000002000000000000001500000000000000025000000000000170002013091600000010000000000000BRCYREACNOR7125
012013082378CYREI45     070CYRE  FM    ON      NM000R$  000000000006400000000000950000000000064000000000008500000000000950000000000000000000000000000011000000000000017700000000000001517600000000000155002013091600000010000000000000BRCYREACNOR7125
012013082378CYREI46     070CYRE  FM    ON      NM000R$  000000000003100000000000370000000000031000000000003500000000000370000000000000000000000000000004000000000000011900000000000000416900000000000165002013091600000010000000000000BRCYREACNOR7125
012013082378CYREJ15     070CYRE  FM    ON      NM000R$  000000000010900000000001670000000000109000000000014800000000001670000000000000000000000000000007000000000000024500000000000003643500000000000150002013102100000010000000000000BRCYREACNOR7125
012013082378CYREJ16     070CYRE  FM    ON      NM000R$  000000000006100000000000990000000000061000000000008900000000000990000000000000000000000000000036000000000000106400000000000009537200000000000160002013102100000010000000000000BRCYREACNOR7125
012013082378CYREJ17     070CYRE  FM    ON      NM000R$  000000000004600000000000500000000000046000000000004700000000000490000000000000000000000000000005000000000000013200000000000000626800000000000170002013102100000010000000000000BRCYREACNOR7125
012013082378CYREJ44     070CYRE        ON      NM000R$  000000000020200000000002020000000000202000000000020200000000002020000000000000000000000000000001000000000000001000000000000000202000000000000145002013102100000010000000000000BRCYREACNOR7125
012013082378CYREJ45     070CYRE  FM    ON      NM000R$  000000000008100000000001250000000000081000000000010600000000001250000000000000000000000000000004000000000000014000000000000001491000000000000155002013102100000010000000000000BRCYREACNOR7125
012013082378CYREJ46     070CYRE  FM    ON      NM000R$  000000000006600000000000690000000000064000000000006600000000000690000000000000000000000000000007000000000000019000000000000001256000000000000165002013102100000010000000000000BRCYREACNOR7125
012013082378CYREK18     070CYRE        ON      NM000R$  000000000004000000000000400000000000040000000000004000000000000400000000000000000000000000000001000000000000000200000000000000008000000000000180002013111800000010000000000000BRCYREACNOR7125
012013082382CYREU14     080CYREE       ON      NM000R$  000000000000800000000000080000000000008000000000000800000000000080000000000000000000000000000001000000000000001000000000000000008000000000000140002013091600000010000000000000BRCYREACNOR7125
012013082382CYREU15     080CYREE FM    ON      NM000R$  000000000002800000000000280000000000018000000000002500000000000180000000000000000000000000000045000000000000153500000000000003841000000000000150002013091600000010000000000000BRCYREACNOR7125
012013082382CYREU16     080CYREE FM    ON      NM000R$  000000000009100000000000910000000000045000000000006600000000000450000000000000000000000000000007000000000000022900000000000001527800000000000160002013091600000010000000000000BRCYREACNOR7125
012013082382CYREU45     080CYREE FM    ON      NM000R$  000000000006000000000000600000000000038000000000004400000000000380000000000000000000000000000011000000000000037000000000000001649000000000000155002013091600000010000000000000BRCYREACNOR7125
012013082382CYREU46     080CYREE FM    ON      NM000R$  000000000012800000000001280000000000071000000000009200000000000710000000000000000000000000000005000000000000015000000000000001381500000000000165002013091600000010000000000000BRCYREACNOR7125
012013082382CYREV15     080CYREE FM    ON      NM000R$  000000000005100000000000510000000000051000000000005100000000000510000000000000000000000000000001000000000000003500000000000000178500000000000150002013102100000010000000000000BRCYREACNOR7125
