00COTAHIST.2013BOVESPA 20130828                                                                                                                                                                                                                      
012013082802ABCB4       010ABC BRASIL  PN      N2   R$  000000000116700000000011890000000001157000000000116900000000011600000000001156000000000116700326000000000000063300000000000074050400000000000000009999123100000010000000000000BRABCBACNPR4120
012013082896ABCB4F      020ABC BRASIL  PN      N2   R$  000000000117000000000012200000000001151000000000117800000000012200000000001154000000000122000019000000000000000377000000000000444193000000000000009999123100000010000000000000BRABCBACNPR4120
012013082812ABCP11      010FII ABC IMOBCI           R$  000000000090200000000009020000000000902000000000090200000000009020000000000885000000000094800004000000000000000300000000000000270600000000000000009999123100000010000000000000BRABCPCTF000214
012013082802ABRE11      010ABRIL EDUCA UNT     N2   R$  000000000320000000000032250000000003140000000000319300000000032250000000003188000000000322500405000000000000089700000000000286501600000000000000009999123100000010000000000000BRABRECDAM15102
012013082896ABRE11F     020ABRIL EDUCA UNT     N2   R$  000000000313900000000032000000000003139000000000318400000000031700000000003143000000000320900006000000000000000121000000000000385301000000000000009999123100000010000000000000BRABRECDAM15102
012013082802AEDU3       010ANHANGUERA  ON      NM   R$  000000000134200000000013570000000001330000000000134100000000013350000000001335000000000133905965000000000001612100000000002162868400000000000000009999123100000010000000000000BRAEDUACNOR9107
012013082896AEDU3F      020ANHANGUERA  ON      NM   R$  000000000134900000000013600000000001281000000000133500000000013600000000001301000000000136500044000000000000001502000000000002006088000000000000009999123100000010000000000000BRAEDUACNOR9107
012013082878AEDUJ14     070AEDU        ON      NM000R$  000000000002500000000000250000000000025000000000002500000000000250000000000000000000000000000002000000000000002900000000000000072500000000000140002013102100000010000000000000BRAEDUACNOR9107
012013082812AEFI11      010FII AESAPAR CI           R$  000000001235000000000123500000000012100000000001221500000000121120000000012112000000001230000037000000000000001860000000000022721208000000000000009999123100000010000000000000BRAEFICTF002120
012013082802AELP3       010AES ELPA    ON           R$  000000000081900000000008190000000000819000000000081900000000008190000000000790000000000081700002000000000000001000000000000000819000000000000000009999123100000010000000000000BRAELPACNOR2119
012013082896AELP3F      020AES ELPA    ON           R$  000000000084000000000008400000000000840000000000084000000000008400000000000752000000000090900001000000000000000024000000000000020160000000000000009999123100000010000000000000BRAELPACNOR2119
012013082812AGCX11      010FII AG CAIXACI           R$  000000009920000000000993930000000099200000000009928800000000993930000000099300000000009939300007000000000000000050000000000004964438000000000000009999123100000010000000000000BRAGCXCTF003109
012013082802AGRO3       010BRASILAGRO  ON      NM   R$  000000000091800000000009500000000000918000000000093600000000009400000000000940000000000094600050000000000000028300000000000026498200000000000000009999123100000010000000000000BRAGROACNOR7102
012013082802ALLL3       010ALL AMER LATON      NM   R$  000000000086600000000008920000000000855000000000088100000000008880000000000885000000000088805838000000000001527400000000001346004300000000000000009999123100000010000000000000BRALLLACNOR6118
012013082896ALLL3F      020ALL AMER LATON      NM   R$  000000000086900000000008910000000000859000000000087600000000008710000000000872000000000090200023000000000000000823000000000000721180000000000000009999123100000010000000000000BRALLLACNOR6118
012013082878ALLLI86     070ALLL        ON      NM000R$  000000000003700000000000370000000000036000000000003600000000000360000000000000000000000000000002000000000000015000000000000000551200000000000086002013091600000010000000000000BRALLLACNOR6118
012013082878ALLLI88     070ALLL        ON      NM000R$  000000000002500000000000250000000000025000000000002500000000000250000000000000000000000000000001000000000000007300000000000000182500000000000088002013091600000010000000000000BRALLLACNOR6118
012013082812ALMI11B     010FII TORRE ALCI      MB   R$  000000030900100000003090010000000308300000000030847500000003083000000000308000000000031000000006000000000000000012000000000003701706000000000000009999123100000010000000000000BRALMICTF003204
012013082802ALPA3       010ALPARGATAS  ON  EJ  N1   R$  000000000105500000000010870000000001055000000000108300000000010870000000001075000000000109900004000000000000002600000000000002818200000000000000009999123100000010000000000000BRALPAACNOR0203
012013082802ALPA4       010ALPARGATAS  PN  EJ  N1   R$  000000000119700000000012270000000001197000000000121100000000011980000000001198000000000120001234000000000000391300000000000474007200000000000000009999123100000010000000000000BRALPAACNPR7203
012013082896ALPA4F      020ALPARGATAS  PN  EJ  N1   R$  000000000120000000000012390000000001170000000000120900000000012200000000001168000000000131000020000000000000000233000000000000281821000000000000009999123100000010000000000000BRALPAACNPR7203
012013082862ALPA4T      030ALPARGATAS  PN  EJ  N1061R$  000000000121500000000012160000000001215000000000121500000000012160000000000000000000000000000002000000000000001000000000000001215306000000000000009999123100000010000000000000BRALPAACNPR7203
012013082802ALSC3       010ALIANSCE    ON      NM   R$  000000000182000000000018700000000001817000000000183700000000018370000000001837000000000184901666000000000000375600000000000690145300000000000000009999123100000010000000000000BRALSCACNOR0104
012013082896ALSC3F      020ALIANSCE    ON      NM   R$  000000000185000000000018600000000001831000000000184000000000018600000000001803000000000185000006000000000000000255000000000000469443000000000000009999123100000010000000000000BRALSCACNOR0104
012013082802ALUP11      010ALUPAR      UNT     N2   R$  000000000166100000000017090000000001651000000000166500000000016680000000001666000000000166800248000000000000091500000000000152354800000000000000009999123100000010000000000000BRALUPCDAM15100
012013082896ALUP11F     020ALUPAR      UNT     N2   R$  000000000165000000000016650000000001615000000000164200000000016150000000001615000000000179900005000000000000000126000000000000206951000000000000009999123100000010000000000000BRALUPCDAM15100
012013082802AMAR3       010LOJAS MARISAON      NM   R$  000000000186600000000018900000000001814000000000183700000000018350000000001835000000000183603129000000000000745300000000001369697600000000000000009999123100000010000000000000BRAMARACNOR4109
012013082896AMAR3F      020LOJAS MARISAON      NM   R$  000000000183900000000018500000000001810000000000183900000000018350000000001811000000000216900008000000000000000180000000000000331179000000000000009999123100000010000000000000BRAMARACNOR4109
012013082862AMAR3T      030LOJAS MARISAON      NM030R$  000000000185200000000018530000000001852000000000185200000000018530000000000000000000000000000002000000000000010000000000000018525202000000000000009999123100000010000000000000BRAMARACNOR4109
012013082802AMBV3       010AMBEV       ON           R$  000000000807300000000081470000000007985000000000803400000000080350000000008035000000000804900701000000000000108000000000000867752900000000000000009999123100000010000000000000BRAMBVACNOR4153
012013082896AMBV3F      020AMBEV       ON           R$  000000000813400000000081340000000008010000000000804400000000080250000000007920000000000812900031000000000000000876000000000007044840000000000000009999123100000010000000000000BRAMBVACNOR4153
012013082862AMBV3T      030AMBEV       ON        061R$  000000000810900000000081100000000008109000000000810900000000081100000000000000000000000000000002000000000000000200000000000001621920000000000000009999123100000010000000000000BRAMBVACNOR4153
012013082802AMBV4       010AMBEV       PN           R$  000000000811000000000081670000000007983000000000804200000000080520000000008052000000000805407902000000000002024900000000016285613000000000000000009999123100000010000000000000BRAMBVACNPR1153
012013082896AMBV4F      020AMBEV       PN           R$  000000000805000000000081490000000007995000000000804500000000080690000000008000000000000806900118000000000000003152000000000025364033000000000000009999123100000010000000000000BRAMBVACNPR1153
012013082862AMBV4T      030AMBEV       PN        030R$  000000000808800000000080900000000008086000000000808900000000080870000000000000000000000000000006000000000000002100000000000016987090000000000000009999123100000010000000000000BRAMBVACNPR1153
012013082862AMBV4T      030AMBEV       PN        061R$  000000000813100000000081320000000008131000000000813100000000081320000000000000000000000000000002000000000000000300000000000002439360000000000000009999123100000010000000000000BRAMBVACNPR1153
012013082862AMBV4T      030AMBEV       PN        090R$  000000000822200000000082230000000008222000000000822200000000082230000000000000000000000000000002000000000000000100000000000000822281000000000000009999123100000010000000000000BRAMBVACNPR1153
012013082878AMBVI84     070AMBV        PN        000R$  000000000002000000000000200000000000020000000000002000000000000200000000000000000000000000000001000000000000000200000000000000004000000000000840002013091600000010000000000000BRAMBVACNPR1153
012013082878AMBVJ65     070AMBV        PN        000R$  000000000160300000000016160000000001603000000000161500000000016150000000000000000000000000000003000000000000450100000000000727081300000000000650002013102100000010000000000000BRAMBVACNPR1153
012013082878AMBVL30     070AMBV        ON        000R$  000000000015400000000001540000000000154000000000015400000000001540000000000000000000000000000002000000000000043000000000000006622000000000000900002013121600000010000000000000BRAMBVACNOR4153
012013082882AMBVX22     080AMBVE       ON        000R$  000000000007800000000000780000000000077000000000007700000000000770000000000000000000000000000002000000000000053800000000000004169500000000000720002013121600000010000000000000BRAMBVACNOR4153
012013082802ARTR3       010ARTERIS     ON      NM   R$  000000000220000000000022220000000002126000000000219600000000021600000000002155000000000216004734000000000035667700000000078336687800000000000000009999123100000010000000000000BRARTRACNOR3101
012013082896ARTR3F      020ARTERIS     ON      NM   R$  000000000214000000000022090000000002123000000000215600000000021230000000002123000000000216500046000000000000001123000000000002422039000000000000009999123100000010000000000000BRARTRACNOR3101
012013082802ARZZ3       010AREZZO CO   ON      NM   R$  000000000340300000000034030000000003280000000000332200000000033000000000003300000000000331700796000000000000153100000000000508667500000000000000009999123100000010000000000000BRARZZACNOR3109
012013082896ARZZ3F      020AREZZO CO   ON      NM   R$  000000000340000000000034000000000003300000000000335300000000033090000000003300000000000349900008000000000000000130000000000000435907000000000000009999123100000010000000000000BRARZZACNOR3109
012013082802AUTM3       010AUTOMETAL   ON      NM   R$  000000000182500000000018540000000001807000000000183600000000018400000000001837000000000184000111000000000000036500000000000067038700000000000000009999123100000010000000000000BRAUTMACNOR8109
012013082896AUTM3F      020AUTOMETAL   ON      NM   R$  000000000178100000000018400000000001780000000000179900000000018400000000001900000000000200000008000000000000000183000000000000329340000000000000009999123100000010000000000000BRAUTMACNOR8109
012013082802AZEV4       010AZEVEDO     PN           R$  000000000016400000000001640000000000164000000000016400000000001640000000000120000000000016400002000000000000003000000000000000492000000000000000009999123100000010000000000000BRAZEVACNPR7113
012013082802BAHI3       010BAHEMA      ON           R$  000000000047800000000004950000000000478000000000049300000000004950000000000471000000000049000003000000000000007600000000000003749200000000000000009999123100000010000000000000BRBAHIACNOR1066
012013082862BAHI3T      030BAHEMA      ON        030R$  000000000049900000000005000000000000482000000000049700000000004950000000000000000000000000000006000000000000007600000000000003782568000000000000009999123100000010000000000000BRBAHIACNOR1066
012013082802BALM4       010BAUMER      PN           R$  000000000880000000000088000000000008800000000000880000000000088000000000008300000000000000000005000000000000000900000000000007920000000000000000009999123100000010000000000000BRBALMACNPR2043
012013082896BALM4F      020BAUMER      PN           R$  000000000800000000000080000000000008000000000000800000000000080000000000008010000000000880000002000000000000000050000000000000400000000000000000009999123100000010000000000000BRBALMACNPR2043
012013082802BAUH4       010EXCELSIOR   PN           R$  000000000094000000000009400000000000940000000000094000000000009400000000000810000000000094800003000000000000000500000000000000470000000000000000009999123100000010000000000000BRBAUHACNPR3108
012013082802BAZA3       010AMAZONIA    ON           R$  000000000003200000000000330000000000032000000000003200000000000320000000000031000000000003300007000000000000114000000000000003651000000000000000009999123100000010000000000000BRBAZAACNOR0163
012013082896BAZA3F      020AMAZONIA    ON           R$  000000000003300000000000330000000000033000000000003300000000000330000000000033000000000003500002000000000000000530000000000000017490000000000000009999123100000010000000000000BRBAZAACNOR0163
012013082802BBAS3       010BRASIL      ON  ED  NM   R$  000000000219000000000022250000000002163000000000220300000000022100000000002206000000000221013591000000000005415100000000011930936700000000000000009999123100000010000000000000BRBBASACNOR3238
012013082896BBAS3F      020BRASIL      ON  ED  NM   R$  000000000217600000000022220000000002164000000000220000000000021910000000002191000000000221200377000000000000011311000000000024889367000000000000009999123100000010000000000000BRBBASACNOR3238
012013082862BBAS3T      030BRASIL      ON  ED  NM022R$  000000000222900000000022300000000002229000000000222900000000022300000000000000000000000000000002000000000000002000000000000004458795000000000000009999123100000010000000000000BRBBASACNOR3238
012013082862BBAS3T      030BRASIL      ON  ED  NM030R$  000000000220200000000022030000000002182000000000219900000000021830000000000000000000000000000006000000000000012000000000000026393606000000000000009999123100000010000000000000BRBBASACNOR3238
012013082862BBAS3T      030BRASIL      ON  ED  NM034R$  000000000219400000000021950000000002194000000000219400000000021950000000000000000000000000000002000000000000007800000000000017118533000000000000009999123100000010000000000000BRBBASACNOR3238
012013082862BBAS3T      030BRASIL      ON  ED  NM061R$  000000000220800000000022530000000002197000000000221400000000022390000000000000000000000000000026000000000000037200000000000082364160000000000000009999123100000010000000000000BRBBASACNOR3238
012013082862BBAS3T      030BRASIL      ON  ED  NM090R$  000000000223400000000022670000000002234000000000223700000000022670000000000000000000000000000006000000000000055000000000000123074633000000000000009999123100000010000000000000BRBBASACNOR3238
012013082862BBAS3T      030BRASIL      ON  ED  NM120R$  000000000227500000000022760000000002275000000000227500000000022760000000000000000000000000000002000000000000002000000000000004551825000000000000009999123100000010000000000000BRBBASACNOR3238
012013082878BBASA26     070BBAS    /EDRON      NM000R$  000000000005400000000000540000000000054000000000005400000000000540000000000000000000000000000001000000000000001200000000000000064800000000000252202014012000000010000000000000BRBBASACNOR3237
012013082878BBASB26     070BBAS    /EDRON      NM000R$  000000000007300000000000730000000000073000000000007300000000000730000000000000000000000000000001000000000000000500000000000000036500000000000252202014021700000010000000000000BRBBASACNOR3237
012013082878BBASI20     070BBAS    /EDRON      NM000R$  000000000026200000000002900000000000262000000000027400000000002900000000000270000000000034000004000000000000001500000000000000411000000000000192202013091600000010000000000000BRBBASACNOR3237
012013082878BBASI21     070BBAS  FM/EDRON      NM000R$  000000000019500000000002160000000000167000000000019100000000002020000000000181000000000000000214000000000000215300000000000041252000000000000202202013091600000010000000000000BRBBASACNOR3237
012013082878BBASI22     070BBAS  FM/EDRON      NM000R$  000000000012000000000001490000000000107000000000012900000000001360000000000135000000000020000156000000000000163900000000000021230200000000000209802013091600000010000000000000BRBBASACNOR3236
012013082878BBASI23     070BBAS  FM/EDRON      NM000R$  000000000005700000000000750000000000050000000000006400000000000660000000000054000000000007900107000000000000184400000000000011954500000000000219802013091600000010000000000000BRBBASACNOR3236
012013082878BBASI24     070BBAS  FM/EDRON      NM000R$  000000000002300000000000280000000000019000000000002400000000000260000000000020000000000002800176000000000000169400000000000004222700000000000229802013091600000010000000000000BRBBASACNOR3236
012013082878BBASI25     070BBAS  FM/EDRON      NM000R$  000000000000900000000000110000000000007000000000001000000000000100000000000007000000000001200028000000000000059800000000000000606200000000000238802013091600000010000000000000BRBBASACNOR3235
012013082878BBASI26     070BBAS    /EDRON      NM000R$  000000000000400000000000050000000000004000000000000400000000000050000000000002000000000000300002000000000000010000000000000000049300000000000248802013091600000010000000000000BRBBASACNOR3235
012013082878BBASI27     070BBAS    /EDRON      NM000R$  000000000000200000000000020000000000002000000000000200000000000020000000000001000000000000300001000000000000002500000000000000005000000000000259802013091600000010000000000000BRBBASACNOR3236
012013082878BBASI28     070BBAS    /EDRON      NM000R$  000000000000100000000000010000000000001000000000000100000000000010000000000000000000000000400001000000000000001700000000000000001700000000000268802013091600000010000000000000BRBBASACNOR3235
012013082878BBASJ21     070BBAS  FM/EDRON      NM000R$  000000000023400000000002470000000000211000000000023300000000002370000000000000000000000000000022000000000000049000000000000011449200000000000202202013102100000010000000000000BRBBASACNOR3237
012013082878BBASJ22     070BBAS  FM/EDRON      NM000R$  000000000015100000000001760000000000141000000000016000000000001640000000000000000000000000000126000000000000099900000000000016047800000000000212202013102100000010000000000000BRBBASACNOR3237
012013082878BBASJ23     070BBAS  FM/EDRON      NM000R$  000000000011400000000001320000000000105000000000012000000000001220000000000000000000000000000101000000000000112800000000000013604200000000000218802013102100000010000000000000BRBBASACNOR3235
012013082878BBASJ24     070BBAS  FM/EDRON      NM000R$  000000000006600000000000750000000000059000000000006800000000000670000000000040000000000020300085000000000000027000000000000001853400000000000229802013102100000010000000000000BRBBASACNOR3236
012013082878BBASJ25     070BBAS  FM/EDRON      NM000R$  000000000003000000000000330000000000027000000000003100000000000270000000000025000000000004000137000000000000207100000000000006546100000000000242202013102100000010000000000000BRBBASACNOR3237
012013082878BBASK23     070BBAS    /EDRON      NM000R$  000000000013300000000001330000000000133000000000013300000000001330000000000000000000000000000001000000000000000400000000000000053200000000000222202013111800000010000000000000BRBBASACNOR3237
012013082878BBASK25     070BBAS    /EDRON      NM000R$  000000000005200000000000580000000000052000000000005300000000000580000000000016000000000005900004000000000000001800000000000000096700000000000239802013111800000010000000000000BRBBASACNOR3236
012013082878BBASK26     070BBAS    /EDRON      NM000R$  000000000002900000000000350000000000029000000000003300000000000350000000000016000000000003600002000000000000002400000000000000081000000000000249802013111800000010000000000000BRBBASACNOR3236
012013082882BBASU20     080BBASE FM/EDRON      NM000R$  000000000000500000000000060000000000005000000000000500000000000050000000000004000000000001000009000000000000040100000000000000204500000000000192202013091600000010000000000000BRBBASACNOR3237
012013082882BBASU21     080BBASE FM/EDRON      NM000R$  000000000001700000000000170000000000011000000000001100000000000120000000000000000000000000000018000000000000064100000000000000733500000000000202202013091600000010000000000000BRBBASACNOR3237
012013082882BBASU22     080BBASE FM/EDRON      NM000R$  000000000003200000000000320000000000018000000000002500000000000200000000000001000000000002300037000000000000072000000000000001859500000000000209802013091600000010000000000000BRBBASACNOR3236
012013082882BBASU23     080BBASE FM/EDRON      NM000R$  000000000006400000000000750000000000046000000000005800000000000480000000000000000000000005800039000000000000067500000000000003970700000000000219802013091600000010000000000000BRBBASACNOR3236
012013082882BBASU24     080BBASE   /EDRON      NM000R$  000000000010300000000001040000000000103000000000010300000000001040000000000000000000000020500002000000000000010000000000000001035000000000000229802013091600000010000000000000BRBBASACNOR3236
012013082882BBASV20     080BBASE FM/EDRON      NM000R$  000000000002500000000000250000000000019000000000002100000000000210000000000000000000000000000026000000000000072800000000000001532400000000000192202013102100000010000000000000BRBBASACNOR3237
012013082882BBASV21     080BBASE FM/EDRON      NM000R$  000000000004100000000000420000000000033000000000003900000000000330000000000000000000000000000005000000000000010500000000000000417900000000000202202013102100000010000000000000BRBBASACNOR3237
012013082882BBASV22     080BBASE FM/EDRON      NM000R$  000000000006900000000000730000000000061000000000006800000000000610000000000045000000000024700007000000000000011700000000000000800600000000000212202013102100000010000000000000BRBBASACNOR3237
012013082882BBASV23     080BBASE FM/EDRON      NM000R$  000000000009900000000001030000000000076000000000008800000000000790000000000000000000000000000083000000000000104000000000000009241900000000000218802013102100000010000000000000BRBBASACNOR3235
012013082882BBASV25     080BBASE   /EDRON      NM000R$  000000000024100000000002410000000000213000000000022900000000002130000000000000000000000000000003000000000000013000000000000002989000000000000242202013102100000010000000000000BRBBASACNOR3237
012013082882BBASW22     080BBASE   /EDRON      NM000R$  000000000007200000000000730000000000071000000000007100000000000720000000000000000000000000000013000000000000036000000000000002580000000000000212202013111800000010000000000000BRBBASACNOR3237
012013082882BBASW53     080BBASE   /EDRON      NM000R$  000000000008500000000000850000000000085000000000008500000000000850000000000000000000000000000002000000000000006000000000000000510000000000000216402013111800000010000000000000BRBBASACNOR3232
012013082802BBDC3       010BRADESCO    ON      N1   R$  000000000306400000000030700000000003001000000000302400000000030060000000003006000000000302702761000000000000663000000000002005168000000000000000009999123100000010000000000000BRBBDCACNOR1605
012013082896BBDC3F      020BRADESCO    ON      N1   R$  000000000307500000000030750000000003001000000000302800000000030010000000003001000000000319800058000000000000001115000000000003376735000000000000009999123100000010000000000000BRBBDCACNOR1605
012013082802BBDC4       010BRADESCO    PN      N1   R$  000000000270200000000027190000000002662000000000268300000000026750000000002675000000000268219095000000000005925000000000015897190900000000000000009999123100000010000000000000BRBBDCACNPR8605
012013082896BBDC4F      020BRADESCO    PN      N1   R$  000000000270000000000027600000000002665000000000268400000000026730000000002673000000000270500285000000000000007410000000000019890746000000000000009999123100000010000000000000BRBBDCACNPR8605
012013082862BBDC4T      030BRADESCO    PN      N1016R$  000000000269300000000027070000000002673000000000269800000000026740000000000000000000000000000016000000000000014700000000000039674931000000000000009999123100000010000000000000BRBBDCACNPR8605
012013082862BBDC4T      030BRADESCO    PN      N1030R$  000000000269900000000027000000000002699000000000269900000000027000000000000000000000000000000002000000000000010000000000000026990280000000000000009999123100000010000000000000BRBBDCACNPR8605
012013082862BBDC4T      030BRADESCO    PN      N1035R$  000000000269600000000026970000000002696000000000269600000000026970000000000000000000000000000002000000000000008000000000000021571200000000000000009999123100000010000000000000BRBBDCACNPR8605
012013082862BBDC4T      030BRADESCO    PN      N1040R$  000000000270800000000027090000000002708000000000270800000000027090000000000000000000000000000002000000000000002500000000000006771775000000000000009999123100000010000000000000BRBBDCACNPR8605
012013082862BBDC4T      030BRADESCO    PN      N1041R$  000000000272500000000027260000000002725000000000272500000000027260000000000000000000000000000002000000000000002600000000000007085286000000000000009999123100000010000000000000BRBBDCACNPR8605
012013082862BBDC4T      030BRADESCO    PN      N1047R$  000000000270100000000027020000000002701000000000270100000000027020000000000000000000000000000010000000000000016000000000000043225617000000000000009999123100000010000000000000BRBBDCACNPR8605
012013082862BBDC4T      030BRADESCO    PN      N1061R$  000000000271500000000027360000000002705000000000271600000000027120000000000000000000000000000020000000000000063850000000000173470211000000000000009999123100000010000000000000BRBBDCACNPR8605
012013082862BBDC4T      030BRADESCO    PN      N1090R$  000000000274500000000027460000000002731000000000274100000000027360000000000000000000000000000010000000000000006300000000000017273486000000000000009999123100000010000000000000BRBBDCACNPR8605
012013082878BBDCI26     070BBDC        PN      N1000R$  000000000013400000000001350000000000131000000000013200000000001320000000000100000000000012500022000000000000010000000000000001327300000000000259802013091600000010000000000000BRBBDCACNPR8604
012013082878BBDCI27     070BBDC        PN      N1000R$  000000000009100000000000910000000000068000000000007700000000000750000000000062000000000009900126000000000000264100000000000020477100000000000267802013091600000010000000000000BRBBDCACNPR8602
012013082878BBDCI28     070BBDC        PN      N1000R$  000000000003400000000000400000000000030000000000003200000000000330000000000027000000000004700083000000000000166900000000000005473400000000000277802013091600000010000000000000BRBBDCACNPR8602
012013082878BBDCI29     070BBDC        PN      N1000R$  000000000001200000000000170000000000012000000000001300000000000120000000000012000000000001600026000000000000071900000000000000983200000000000287802013091600000010000000000000BRBBDCACNPR8602
012013082878BBDCI30     070BBDC        PN      N1000R$  000000000000800000000000080000000000005000000000000600000000000050000000000005000000000000600007000000000000015500000000000000106200000000000297802013091600000010000000000000BRBBDCACNPR8602
012013082878BBDCI31     070BBDC        PN      N1000R$  000000000005500000000000550000000000042000000000004500000000000490000000000000000000000000000009000000000000018900000000000000864500000000000272902013091600000010000000000000BRBBDCACNPR8590
012013082878BBDCI33     070BBDC        PN      N1000R$  000000000000800000000000080000000000006000000000000600000000000070000000000004000000000000000003000000000000003900000000000000024100000000000297202013091600000010000000000000BRBBDCACNPR8598
012013082878BBDCI58     070BBDC        PN      N1000R$  000000000001700000000000170000000000017000000000001700000000000170000000000000000000000006100001000000000000002600000000000000044200000000000285002013091600000010000000000000BRBBDCACNPR8605
012013082878BBDCJ26     070BBDC        PN      N1000R$  000000000019400000000001940000000000172000000000018300000000001900000000000000000000000000000144000000000000047900000000000008806100000000000259802013102100000010000000000000BRBBDCACNPR8604
012013082878BBDCJ27     070BBDC        PN      N1000R$  000000000014100000000001500000000000126000000000013700000000001400000000000000000000000019900135000000000000596600000000000082158600000000000267802013102100000010000000000000BRBBDCACNPR8602
012013082878BBDCJ29     070BBDC        PN      N1000R$  000000000005400000000000590000000000049000000000005400000000000520000000000048000000000005200034000000000000068300000000000003737700000000000287802013102100000010000000000000BRBBDCACNPR8602
012013082878BBDCJ30     070BBDC        PN      N1000R$  000000000003300000000000340000000000033000000000003300000000000330000000000021000000000005900079000000000000158000000000000005220000000000000297802013102100000010000000000000BRBBDCACNPR8602
012013082878BBDCJ31     070BBDC        PN      N1000R$  000000000001600000000000160000000000016000000000001600000000000160000000000012000000000004800002000000000000005000000000000000080000000000000307802013102100000010000000000000BRBBDCACNPR8602
012013082878BBDCJ32     070BBDC        PN      N1000R$  000000000001000000000000100000000000010000000000001000000000000100000000000010000000000000000005000000000000024000000000000000240000000000000317802013102100000010000000000000BRBBDCACNPR8602
012013082878BBDCJ58     070BBDC        PN      N1000R$  000000000008200000000000880000000000073000000000008000000000000730000000000000000000000012800010000000000000014700000000000001183300000000000280002013102100000010000000000000BRBBDCACNPR8605
012013082878BBDCK26     070BBDC        PN      N1000R$  000000000022100000000002300000000000211000000000022200000000002150000000000000000000000000000042000000000000051400000000000011448300000000000259802013111800000010000000000000BRBBDCACNPR8604
012013082878BBDCK27     070BBDC        PN      N1000R$  000000000016900000000001700000000000169000000000016900000000001700000000000000000000000000000005000000000000015000000000000002538000000000000269602013111800000010000000000000BRBBDCACNPR8603
012013082878BBDCK28     070BBDC        PN      N1000R$  000000000012100000000001280000000000121000000000012600000000001230000000000000000000000013500006000000000000011000000000000001390000000000000277802013111800000010000000000000BRBBDCACNPR8602
012013082882BBDCU25     080BBDCE       PN      N1000R$  000000000001700000000000190000000000017000000000001700000000000190000000000000000000000000000003000000000000003600000000000000063600000000000249802013091600000010000000000000BRBBDCACNPR8604
012013082882BBDCU26     080BBDCE       PN      N1000R$  000000000003700000000000400000000000034000000000003600000000000350000000000000000000000004500022000000000000036100000000000001331700000000000259802013091600000010000000000000BRBBDCACNPR8604
012013082882BBDCU27     080BBDCE       PN      N1000R$  000000000006500000000000680000000000054000000000006300000000000630000000000045000000000000000036000000000000081700000000000005147100000000000267802013091600000010000000000000BRBBDCACNPR8602
012013082882BBDCU28     080BBDCE       PN      N1000R$  000000000012500000000001250000000000102000000000011200000000001160000000000114000000000000000171000000000000059100000000000006634600000000000277802013091600000010000000000000BRBBDCACNPR8602
012013082882BBDCU29     080BBDCE       PN      N1000R$  000000000020600000000002060000000000177000000000019400000000001980000000000000000000000000000062000000000000112600000000000021866500000000000287802013091600000010000000000000BRBBDCACNPR8602
012013082882BBDCU31     080BBDCE       PN      N1000R$  000000000008800000000000880000000000088000000000008800000000000880000000000000000000000000000001000000000000001200000000000000105600000000000272902013091600000010000000000000BRBBDCACNPR8590
012013082882BBDCV25     080BBDCE       PN      N1000R$  000000000004800000000000480000000000048000000000004800000000000480000000000000000000000000000001000000000000001200000000000000057600000000000249602013102100000010000000000000BRBBDCACNPR8603
012013082882BBDCV26     080BBDCE       PN      N1000R$  000000000007700000000000770000000000070000000000007400000000000700000000000000000000000000000010000000000000016600000000000001236300000000000259802013102100000010000000000000BRBBDCACNPR8604
012013082882BBDCV27     080BBDCE       PN      N1000R$  000000000010700000000001070000000000101000000000010300000000001010000000000000000000000000000012000000000000018000000000000001871100000000000267802013102100000010000000000000BRBBDCACNPR8602
012013082882BBDCV29     080BBDCE       PN      N1000R$  000000000021900000000002200000000000200000000000021000000000002130000000000000000000000000000014000000000000025600000000000005388800000000000287802013102100000010000000000000BRBBDCACNPR8602
012013082882BBDCV58     080BBDCE       PN      N1000R$  000000000016900000000001690000000000155000000000016400000000001650000000000000000000000000000005000000000000008700000000000001426800000000000280002013102100000010000000000000BRBBDCACNPR8605
012013082882BBDCW27     080BBDCE       PN      N1000R$  000000000012500000000001250000000000122000000000012300000000001220000000000000000000000000000138000000000000013800000000000001703100000000000269602013111800000010000000000000BRBBDCACNPR8603
012013082812BBFI11B     010FII BB PROGRCI      MB   R$  000000042500000000004298880000000425000000000042802500000004280000000000424500000000042800000012000000000000000038000000000016264964000000000000009999123100000010000000000000BRBBFICTF006197
012013082812BBPO11      010FII BB PRGIICI           R$  000000001093000000000109700000000010930000000001096200000000109650000000010935000000001096500408000000000000019095000000000209336038000000000000009999123100000010000000000000BRBBPOCTF003109
012013082812BBRC11      010FII BB CORP CI           R$  000000000910100000000092400000000009050000000000908700000000090500000000009050000000000910100026000000000000001342000000000012195461000000000000009999123100000010000000000000BRBBRCCTF004123
012013082802BBRK3       010BR BROKERS  ON      NM   R$  000000000052300000000005350000000000523000000000052900000000005290000000000528000000000052902014000000000006409600000000003391465800000000000000009999123100000010000000000000BRBBRKACNOR4108
012013082896BBRK3F      020BR BROKERS  ON      NM   R$  000000000052200000000005350000000000507000000000052700000000005290000000000507000000000060600008000000000000000276000000000000145583000000000000009999123100000010000000000000BRBBRKACNOR4108
012013082802BBSE3       010BBSEGURIDADEON  ED  NM   R$  000000000188000000000018950000000001862000000000188600000000018870000000001887000000000188906261000000000003386300000000006387862300000000000000009999123100000010000000000000BRBBSEACNOR5101
012013082896BBSE3F      020BBSEGURIDADEON  ED  NM   R$  000000000187700000000018940000000001861000000000188400000000018790000000001876000000000187901587000000000000054151000000000102021243000000000000009999123100000010000000000000BRBBSEACNOR5101
012013082802BBTG11      010BTG PACTUAL UNT          R$  000000000273000000000027410000000002688000000000270100000000026950000000002689000000000269500477000000000000155400000000000419842500000000000000009999123100000010000000000000BRBBTGUNT007105
012013082896BBTG11F     020BTG PACTUAL UNT          R$  000000000276000000000029890000000002645000000000269200000000027000000000002601000000000299800008000000000000000171000000000000460468000000000000009999123100000010000000000000BRBBTGUNT007105
012013082862BBTG11T     030BTG PACTUAL UNT       180R$  000000000283200000000028330000000002832000000000283200000000028330000000000000000000000000000002000000000000060000000000000169933829000000000000009999123100000010000000000000BRBBTGUNT007105
012013082812BBVJ11      010FII C JARDIMCI           R$  000000000766200000000076810000000007662000000000767900000000076800000000007680000000000779700007000000000000000384000000000002948832000000000000009999123100000010000000000000BRBBVJCTF001132
012013082812BCFF11B     010FII BC FFII CI      MB   R$  000000000943000000000094500000000009300000000000936500000000093000000000009300000000000934500058000000000000002417000000000022636677000000000000009999123100000010000000000000BRBCFFCTF000141
012013082802BEEF3       010MINERVA     ON      NM   R$  000000000109700000000010970000000001044000000000106000000000010510000000001051000000000105302945000000000000860300000000000912720500000000000000009999123100000010000000000000BRBEEFACNOR6104
012013082896BEEF3F      020MINERVA     ON      NM   R$  000000000108200000000010820000000001050000000000105900000000010500000000001021000000000104000004000000000000000067000000000000070996000000000000009999123100000010000000000000BRBEEFACNOR6104
012013082862BEEF3T      030MINERVA     ON      NM030R$  000000000106400000000010650000000001064000000000106400000000010650000000000000000000000000000002000000000000001000000000000001064399000000000000009999123100000010000000000000BRBEEFACNOR6104
012013082802BEES3       010BANESTES    ON           R$  000000000004700000000000480000000000047000000000004700000000000470000000000047000000000004800011000000000000142600000000000006703800000000000000009999123100000010000000000000BRBEESACNOR9243
012013082802BEES4       010BANESTES    PN           R$  000000000004200000000000450000000000041000000000004100000000000450000000000042000000000004500005000000000000007100000000000000295100000000000000009999123100000010000000000000BRBEESACNPR6168
012013082802BEMA3       010BEMATECH    ON      NM   R$  000000000068000000000006870000000000678000000000068400000000006870000000000685000000000068700036000000000000010900000000000007459000000000000000009999123100000010000000000000BRBEMAACNOR0114
012013082896BEMA3F      020BEMATECH    ON      NM   R$  000000000065600000000006800000000000656000000000065800000000006800000000000681000000000073000002000000000000000056000000000000036880000000000000009999123100000010000000000000BRBEMAACNOR0114
012013082862BEMA3T      030BEMATECH    ON      NM090R$  000000000069900000000007000000000000699000000000069900000000007000000000000000000000000000000002000000000000004400000000000003079341000000000000009999123100000010000000000000BRBEMAACNOR0114
012013082802BGIP4       010BANESE      PN  ED       R$  000000000474900000000047490000000004749000000000474900000000047490000000004356000000000475000001000000000000000100000000000000474900000000000000009999123100000010000000000000BRBGIPACNPR8179
012013082802BHGR3       010BHG         ON      NM   R$  000000000140800000000014530000000001405000000000141200000000014190000000001419000000000142000083000000000000120200000000000169731400000000000000009999123100000010000000000000BRBHGRACNOR9101
012013082802BICB4       010BICBANCO    PN      N1   R$  000000000038500000000003980000000000368000000000038400000000003930000000000391000000000039300087000000000000139400000000000053593300000000000000009999123100000010000000000000BRBICBACNPR7131
012013082896BICB4F      020BICBANCO    PN      N1   R$  000000000039400000000004070000000000392000000000040200000000004070000000000386000000000040700004000000000000000012000000000000004828000000000000009999123100000010000000000000BRBICBACNPR7131
012013082802BIOM3       010BIOMM       ON           R$  000000000080000000000008000000000000800000000000080000000000008000000000000750000000000080000005000000000000057000000000000045600000000000000000009999123100000010000000000000BRBIOMACNOR2101
012013082896BIOM3F      020BIOMM       ON           R$  000000000074500000000007450000000000745000000000074500000000007450000000000700000000000099700003000000000000000512000000000000381440000000000000009999123100000010000000000000BRBIOMACNOR2101
012013082802BIOM4       010BIOMM       PN           R$  000000000080000000000008240000000000800000000000080000000000008000000000000790000000000085000011000000000000370000000000000296024000000000000000009999123100000010000000000000BRBIOMACNPR9101
012013082896BIOM4F      020BIOMM       PN           R$  000000000079500000000007950000000000795000000000079500000000007950000000000800000000000087300003000000000000000700000000000000556500000000000000009999123100000010000000000000BRBIOMACNPR9101
012013082802BISA3       010BROOKFIELD  ON      NM   R$  000000000017200000000001790000000000170000000000017500000000001780000000000177000000000017803763000000000006160500000000001082192100000000000000009999123100000010000000000000BRBISAACNOR8109
012013082896BISA3F      020BROOKFIELD  ON      NM   R$  000000000016500000000001790000000000165000000000017400000000001720000000000172000000000017500018000000000000000450000000000000078407000000000000009999123100000010000000000000BRBISAACNOR8109
012013082862BISA3T      030BROOKFIELD  ON      NM029R$  000000000017600000000001770000000000176000000000017600000000001770000000000000000000000000000002000000000000013500000000000002379746000000000000009999123100000010000000000000BRBISAACNOR8109
012013082862BISA3T      030BROOKFIELD  ON      NM030R$  000000000017900000000001800000000000179000000000017900000000001800000000000000000000000000000002000000000000005000000000000000896408000000000000009999123100000010000000000000BRBISAACNOR8109
012013082862BISA3T      030BROOKFIELD  ON      NM271R$  000000000019200000000001930000000000192000000000019200000000001930000000000000000000000000000002000000000000002000000000000000384480000000000000009999123100000010000000000000BRBISAACNOR8109
012013082802BMEB4       010MERC BRASIL PN           R$  000000000110000000000011000000000001100000000000110000000000011000000000000000000000000111500002000000000000000200000000000000220000000000000000009999123100000010000000000000BRBMEBACNPR5191
012013082812BMLC11B     010FII BMBRC LCCI      MB   R$  000000001145100000000114510000000011400000000001141300000000114510000000011401000000001145100016000000000000001427000000000016287118000000000000009999123100000010000000000000BRBMLCCTF004118
012013082896BMTO4F      020BRASMOTOR   PN           R$  000000000008400000000000840000000000084000000000008400000000000840000000000084000000000008700001000000000000000250000000000000021000000000000000009999123100000010000000000000BRBMTOACNPR6065
012013082802BNBR3       010NORD BRASIL ON           R$  000000000290000000000029000000000002879000000000288900000000028790000000002400000000000288000002000000000000000200000000000000577900000000000000009999123100000010000000000000BRBNBRACNOR8187
012013082802BOBR4       010BOMBRIL     PN           R$  000000000066500000000006870000000000665000000000066700000000006870000000000665000000000068800003000000000000000900000000000000600700000000000000009999123100000010000000000000BRBOBRACNPR3127
012013082814BOVA11      010ISHARES BOVACI           R$  000000000492300000000049740000000004866000000000491800000000049190000000004900000000000491905165000000000004336810000000021328777390000000000000009999123100000010000000000000BRBOVACTF003101
012013082896BOVA11F     020ISHARES BOVACI           R$  000000000492300000000049330000000004851000000000490000000000048520000000004851000000000494300009000000000000000038000000000000186234000000000000009999123100000010000000000000BRBOVACTF003101
012013082862BOVA11T     030ISHARES BOVACI        016R$  000000000493000000000049310000000004930000000000493000000000049310000000000000000000000000000002000000000000004000000000000019722398000000000000009999123100000010000000000000BRBOVACTF003101
012013082862BOVA11T     030ISHARES BOVACI        047R$  000000000495700000000049580000000004957000000000495700000000049580000000000000000000000000000002000000000000000500000000000002478742000000000000009999123100000010000000000000BRBOVACTF003101
012013082812BPFF11      010FII ABSOLUTOCI           R$  000000000855000000000086700000000008550000000000862900000000086700000000008575000000000867000008000000000000001294000000000011167128000000000000009999123100000010000000000000BRBPFFCTF002104
012013082802BPHA3       010BR PHARMA   ON      NM   R$  000000000090000000000009020000000000882000000000089600000000009000000000000900000000000090101182000000000001094700000000000981606500000000000000009999123100000010000000000000BRBPHAACNOR6102
012013082896BPHA3F      020BR PHARMA   ON      NM   R$  000000000090000000000009090000000000851000000000088200000000009090000000000881000000000090900007000000000000000251000000000000221630000000000000009999123100000010000000000000BRBPHAACNOR6102
012013082862BPHA3T      030BR PHARMA   ON      NM030R$  000000000090600000000009070000000000906000000000090600000000009070000000000000000000000000000002000000000000002000000000000001813500000000000000009999123100000010000000000000BRBPHAACNOR6102
012013082802BPNM4       010PANAMERICANOPN      N1   R$  000000000050700000000005190000000000507000000000051400000000005150000000000512000000000051500125000000000000043400000000000022350600000000000000009999123100000010000000000000BRBPNMACNPR6111
012013082896BPNM4F      020PANAMERICANOPN      N1   R$  000000000050000000000005010000000000500000000000050000000000005010000000000483000000000052000003000000000000000084000000000000042028000000000000009999123100000010000000000000BRBPNMACNPR6111
012013082802BRAP3       010BRADESPAR   ON      N1   R$  000000000202000000000020450000000001970000000000201900000000020290000000001959000000000202900024000000000000008000000000000016153500000000000000009999123100000010000000000000BRBRAPACNOR5124
012013082896BRAP3F      020BRADESPAR   ON      N1   R$  000000000202500000000021990000000001956000000000199000000000020800000000002080000000000217800010000000000000000160000000000000318547000000000000009999123100000010000000000000BRBRAPACNOR5124
012013082802BRAP4       010BRADESPAR   PN      N1   R$  000000000249000000000025100000000002425000000000246000000000024670000000002466000000000246704864000000000001235100000000003039438300000000000000009999123100000010000000000000BRBRAPACNPR2124
012013082896BRAP4F      020BRADESPAR   PN      N1   R$  000000000246100000000024800000000002405000000000246000000000024300000000002356000000000247900030000000000000000747000000000001837791000000000000009999123100000010000000000000BRBRAPACNPR2124
012013082862BRAP4T      030BRADESPAR   PN      N1061R$  000000000248100000000024820000000002481000000000248100000000024820000000000000000000000000000002000000000000005000000000000012407335000000000000009999123100000010000000000000BRBRAPACNPR2124
012013082862BRAP4T      030BRADESPAR   PN      N1090R$  000000000250000000000025010000000002500000000000250000000000025010000000000000000000000000000002000000000000001000000000000002500510000000000000009999123100000010000000000000BRBRAPACNPR2124
012013082814BRAX11      010ISHARES BRAXCI           R$  000000000393900000000039390000000003931000000000393600000000039310000000000000000000000410000003000000000000003750000000000014760000000000000000009999123100000010000000000000BRBRAXCTF002100
012013082812BRCR11      010FII BC FUND CI           R$  000000001253100000000125490000000012150000000001234800000000122510000000012251000000001230000671000000000000071207000000000879333348000000000000009999123100000010000000000000BRBRCRCTF000132
012013082802BRFS3       010BRF SA      ON      NM   R$  000000000527500000000053280000000005241000000000529500000000053120000000005307000000000531206497000000000001443300000000007643068700000000000000009999123100000010000000000000BRBRFSACNOR8110
012013082896BRFS3F      020BRF SA      ON      NM   R$  000000000526700000000053280000000005245000000000528400000000053040000000005254000000000531600126000000000000003886000000000020537402000000000000009999123100000010000000000000BRBRFSACNOR8110
012013082862BRFS3T      030BRF SA      ON      NM016R$  000000000533200000000053330000000005332000000000533200000000053330000000000000000000000000000002000000000000002000000000000010665666000000000000009999123100000010000000000000BRBRFSACNOR8110
012013082862BRFS3T      030BRF SA      ON      NM180R$  000000000554500000000055460000000005545000000000554500000000055460000000000000000000000000000002000000000000004000000000000022180331000000000000009999123100000010000000000000BRBRFSACNOR8110
012013082878BRFSK56     070BRFS        ON      NM000R$  000000000018900000000001890000000000189000000000018900000000001890000000000000000000000000000001000000000000048000000000000009072000000000000560002013111800000010000000000000BRBRFSACNOR8110
012013082882BRFSW48     080BRFSE       ON      NM000R$  000000000006500000000000650000000000065000000000006500000000000650000000000000000000000000000001000000000000048000000000000003120000000000000480002013111800000010000000000000BRBRFSACNOR8110
012013082882BRFSW53     080BRFSE       ON      NM000R$  000000000026800000000002680000000000268000000000026800000000002680000000000000000000000000000001000000000000048000000000000012864000000000000530002013111800000010000000000000BRBRFSACNOR8110
012013082802BRIN3       010BR INSURANCEON      NM   R$  000000000182300000000018260000000001771000000000180100000000018050000000001800000000000180501313000000000000904900000000001629848300000000000000009999123100000010000000000000BRBRINACNOR3106
012013082896BRIN3F      020BR INSURANCEON      NM   R$  000000000181100000000018190000000001701000000000179800000000018000000000001785000000000191500016000000000000000366000000000000658112000000000000009999123100000010000000000000BRBRINACNOR3106
012013082862BRIN3T      030BR INSURANCEON      NM030R$  000000000181800000000018190000000001818000000000181800000000018190000000000000000000000000000002000000000000010000000000000018185375000000000000009999123100000010000000000000BRBRINACNOR3106
012013082802BRKM3       010BRASKEM     ON      N1   R$  000000000121300000000012210000000001213000000000121800000000012210000000001207000000000122300003000000000000000300000000000000365500000000000000009999123100000010000000000000BRBRKMACNOR1110
012013082802BRKM5       010BRASKEM     PNA     N1   R$  000000000169100000000017340000000001679000000000170600000000016980000000001698000000000169907589000000000001793500000000003060717700000000000000009999123100000010000000000000BRBRKMACNPA4110
012013082896BRKM5F      020BRASKEM     PNA     N1   R$  000000000170000000000017300000000001690000000000171200000000016970000000001696000000000171400036000000000000000902000000000001543607000000000000009999123100000010000000000000BRBRKMACNPA4110
012013082862BRKM5T      030BRASKEM     PNA     N1090R$  000000000175700000000017580000000001757000000000175700000000017580000000000000000000000000000002000000000000006400000000000011249949000000000000009999123100000010000000000000BRBRKMACNPA4110
012013082802BRML3       010BR MALLS PARON      NM   R$  000000000180300000000018200000000001796000000000180900000000018100000000001810000000000181206333000000000002152400000000003894288100000000000000009999123100000010000000000000BRBRMLACNOR9105
012013082896BRML3F      020BR MALLS PARON      NM   R$  000000000180300000000018150000000001800000000000180800000000018060000000001801000000000190000041000000000000001131000000000002045201000000000000009999123100000010000000000000BRBRMLACNOR9105
012013082862BRML3T      030BR MALLS PARON      NM030R$  000000000182200000000018230000000001822000000000182200000000018230000000000000000000000000000002000000000000003000000000000005468553000000000000009999123100000010000000000000BRBRMLACNOR9105
012013082862BRML3T      030BR MALLS PARON      NM061R$  000000000183800000000018390000000001837000000000183700000000018380000000000000000000000000000004000000000000002000000000000003675388000000000000009999123100000010000000000000BRBRMLACNOR9105
012013082878BRMLI19     070BRML        ON      NM000R$  000000000001400000000000140000000000014000000000001400000000000140000000000000000000000000000001000000000000000200000000000000002800000000000190002013091600000010000000000000BRBRMLACNOR9105
012013082802BRPR3       010BR PROPERT  ON      NM   R$  000000000175700000000017880000000001755000000000177200000000017670000000001767000000000177504641000000000001402600000000002486121400000000000000009999123100000010000000000000BRBRPRACNOR9112
012013082896BRPR3F      020BR PROPERT  ON      NM   R$  000000000177900000000018880000000001721000000000177000000000017540000000001753000000000176500021000000000000000858000000000001518486000000000000009999123100000010000000000000BRBRPRACNOR9112
012013082878BRPRI18     070BRPR        ON      NM000R$  000000000004700000000000480000000000047000000000004700000000000480000000000000000000000000000002000000000000075000000000000003542200000000000180002013091600000010000000000000BRBRPRACNOR9112
012013082802BRSR6       010BANRISUL    PNB     N1   R$  000000000137000000000013770000000001352000000000136300000000013660000000001364000000000136801261000000000000319600000000000435661700000000000000009999123100000010000000000000BRBRSRACNPB4133
012013082896BRSR6F      020BANRISUL    PNB     N1   R$  000000000136100000000013790000000001352000000000135800000000013660000000001351000000000138000030000000000000001050000000000001426448000000000000009999123100000010000000000000BRBRSRACNPB4133
012013082802BSEV3       010BIOSEV      ON      NM   R$  000000000087600000000009120000000000876000000000090100000000009120000000000905000000000091200016000000000000051200000000000046142600000000000000009999123100000010000000000000BRBSEVACNOR3100
012013082802BTOW3       010B2W DIGITAL ON      NM   R$  000000000125600000000013290000000001251000000000130600000000013290000000001329000000000133001978000000000000616900000000000806451400000000000000009999123100000010000000000000BRBTOWACNOR8105
012013082896BTOW3F      020B2W DIGITAL ON      NM   R$  000000000120100000000013270000000001197000000000127800000000013260000000001277000000000132600036000000000000001097000000000001402025000000000000009999123100000010000000000000BRBTOWACNOR8105
012013082802BTTL4       010BATTISTELLA PN           R$  000000000010000000000001000000000000098000000000009900000000001000000000000098000000000010000007000000000000026600000000000002637000000000000000009999123100000010000000000000BRBTTLACNPR7105
012013082802BVMF3       010BMFBOVESPA  ON  ED  NM   R$  000000000113500000000011560000000001113000000000114200000000011520000000001151000000000115229750000000000012040400000000013751738200000000000000009999123100000010000000000000BRBVMFACNOR3126
012013082896BVMF3F      020BMFBOVESPA  ON  ED  NM   R$  000000000113000000000011550000000001115000000000113500000000011550000000001150000000000115500106000000000000003666000000000004161024000000000000009999123100000010000000000000BRBVMFACNOR3126
012013082862BVMF3T      030BMFBOVESPA  ON  ED  NM030R$  000000000113100000000011440000000001128000000000113300000000011440000000000000000000000000000006000000000000017500000000000019837418000000000000009999123100000010000000000000BRBVMFACNOR3126
012013082878BVMFI10     070BVMF    /ED ON      NM000R$  000000000015700000000001730000000000146000000000015900000000001730000000000140000000000000000007000000000000009200000000000001464300000000000098502013091600000010000000000000BRBVMFACNOR3125
012013082878BVMFI11     070BVMF  FM/ED ON      NM000R$  000000000007700000000000860000000000060000000000007400000000000750000000000066000000000008500096000000000000116100000000000008644400000000000108502013091600000010000000000000BRBVMFACNOR3125
012013082878BVMFI12     070BVMF  FM/ED ON      NM000R$  000000000002000000000000260000000000017000000000002100000000000230000000000022000000000002300326000000000000651300000000000013939800000000000118502013091600000010000000000000BRBVMFACNOR3125
012013082878BVMFI13     070BVMF  FM/ED ON      NM000R$  000000000000600000000000070000000000004000000000000500000000000050000000000005000000000000600091000000000000417500000000000002160700000000000128502013091600000010000000000000BRBVMFACNOR3125
012013082878BVMFI14     070BVMF    /ED ON      NM000R$  000000000000200000000000020000000000002000000000000200000000000020000000000001000000000000200004000000000000059200000000000000118400000000000138502013091600000010000000000000BRBVMFACNOR3125
012013082878BVMFI35     070BVMFE   /ED ON      NM000R$  000000000000200000000000020000000000002000000000000200000000000020000000000000000000000000000001000000000000000300000000000000000600000000000131002013091600000010000000000000BRBVMFACNOR3125
012013082878BVMFI41     070BVMF  FM/ED ON      NM000R$  000000000003600000000000460000000000036000000000003900000000000450000000000000000000000000000012000000000000035500000000000001394700000000000113502013091600000010000000000000BRBVMFACNOR3125
012013082878BVMFI42     070BVMF  FM/ED ON      NM000R$  000000000000800000000000120000000000008000000000000900000000000090000000000008000000000001300043000000000000106300000000000000997500000000000123502013091600000010000000000000BRBVMFACNOR3125
012013082878BVMFI43     070BVMF    /ED ON      NM000R$  000000000000300000000000030000000000003000000000000300000000000030000000000000000000000001000002000000000000000600000000000000001800000000000133502013091600000010000000000000BRBVMFACNOR3125
012013082878BVMFJ11     070BVMF  FM/ED ON      NM000R$  000000000009300000000001130000000000092000000000010100000000001050000000000055000000000000000021000000000000036500000000000003715300000000000108502013102100000010000000000000BRBVMFACNOR3125
012013082878BVMFJ12     070BVMF  FM/ED ON      NM000R$  000000000003900000000000510000000000039000000000004700000000000500000000000044000000000006500024000000000000057000000000000002679700000000000118502013102100000010000000000000BRBVMFACNOR3125
012013082878BVMFJ13     070BVMF  FM/ED ON      NM000R$  000000000001200000000000160000000000011000000000001300000000000160000000000012000000000002400040000000000000105200000000000001378700000000000128502013102100000010000000000000BRBVMFACNOR3125
012013082878BVMFJ14     070BVMF    /ED ON      NM000R$  000000000000400000000000040000000000004000000000000400000000000040000000000003000000000000000001000000000000002000000000000000008000000000000138502013102100000010000000000000BRBVMFACNOR3125
012013082878BVMFJ15     070BVMF    /ED ON      NM000R$  000000000000100000000000010000000000001000000000000100000000000010000000000001000000000000200003000000000000008600000000000000008600000000000148502013102100000010000000000000BRBVMFACNOR3125
012013082878BVMFJ41     070BVMF  FM/ED ON      NM000R$  000000000007600000000000760000000000076000000000007600000000000760000000000000000000000000000001000000000000003500000000000000266000000000000113502013102100000010000000000000BRBVMFACNOR3125
012013082878BVMFJ42     070BVMF  FM/ED ON      NM000R$  000000000002400000000000310000000000024000000000002700000000000310000000000000000000000000000010000000000000020900000000000000575200000000000123502013102100000010000000000000BRBVMFACNOR3125
012013082878BVMFK12     070BVMF    /ED ON      NM000R$  000000000006800000000000680000000000068000000000006800000000000680000000000000000000000012700001000000000000001200000000000000081600000000000118502013111800000010000000000000BRBVMFACNOR3125
012013082878BVMFL13     070BVMF    /ED ON      NM000R$  000000000004100000000000410000000000040000000000004000000000000410000000000000000000000004400004000000000000006700000000000000273400000000000128502013121600000010000000000000BRBVMFACNOR3125
012013082878BVMFL2      070BVMF    /ED ON      NM000R$  000000000007600000000000760000000000076000000000007600000000000760000000000000000000000000000001000000000000000500000000000000038000000000000117402013121600000010000000000000BRBVMFACNOR3124
012013082882BVMFU10     080BVMFE   /ED ON      NM000R$  000000000000700000000000070000000000007000000000000700000000000070000000000000000000000001000001000000000000005000000000000000035000000000000098502013091600000010000000000000BRBVMFACNOR3125
012013082882BVMFU11     080BVMFE FM/ED ON      NM000R$  000000000002100000000000210000000000014000000000001700000000000150000000000005000000000002100020000000000000086800000000000001515000000000000108502013091600000010000000000000BRBVMFACNOR3125
012013082882BVMFU12     080BVMFE FM/ED ON      NM000R$  000000000007500000000000800000000000051000000000005600000000000520000000000049000000000005600071000000000000101200000000000005729400000000000118502013091600000010000000000000BRBVMFACNOR3125
012013082882BVMFU40     080BVMFE FM/ED ON      NM000R$  000000000001100000000000120000000000009000000000001000000000000090000000000003000000000001900007000000000000006800000000000000073200000000000103502013091600000010000000000000BRBVMFACNOR3125
012013082882BVMFU41     080BVMFE FM/ED ON      NM000R$  000000000004600000000000490000000000027000000000003700000000000300000000000010000000000005000035000000000000099800000000000003692700000000000113502013091600000010000000000000BRBVMFACNOR3125
012013082882BVMFU42     080BVMFE   /ED ON      NM000R$  000000000009400000000000990000000000094000000000009600000000000980000000000000000000000000000006000000000000010000000000000000965600000000000123502013091600000010000000000000BRBVMFACNOR3125
012013082882BVMFV10     080BVMFE   /ED ON      NM000R$  000000000002000000000000200000000000020000000000002000000000000200000000000000000000000000000001000000000000000200000000000000004000000000000098502013102100000010000000000000BRBVMFACNOR3125
012013082882BVMFV11     080BVMFE FM/ED ON      NM000R$  000000000004100000000000450000000000036000000000003800000000000360000000000000000000000005400018000000000000048800000000000001890800000000000108502013102100000010000000000000BRBVMFACNOR3125
012013082882BVMFV12     080BVMFE FM/ED ON      NM000R$  000000000008700000000000870000000000072000000000008600000000000720000000000055000000000000000002000000000000003800000000000000329100000000000118502013102100000010000000000000BRBVMFACNOR3125
012013082882BVMFV40     080BVMFE FM/ED ON      NM000R$  000000000002600000000000260000000000025000000000002500000000000250000000000000000000000000000002000000000000001900000000000000049300000000000103502013102100000010000000000000BRBVMFACNOR3125
012013082882BVMFV41     080BVMFE FM/ED ON      NM000R$  000000000005800000000000600000000000050000000000005500000000000500000000000000000000000008000004000000000000011900000000000000663900000000000113502013102100000010000000000000BRBVMFACNOR3125
012013082802CAMB4       010CAMBUCI     PN           R$  000000000018100000000001900000000000178000000000018500000000001900000000000178000000000019100016000000000000011900000000000002209800000000000000009999123100000010000000000000BRCAMBACNPR1117
012013082896CAMB4F      020CAMBUCI     PN           R$  000000000017500000000001750000000000166000000000017000000000001660000000000100000000000025000002000000000000000002000000000000000341000000000000009999123100000010000000000000BRCAMBACNPR1117
012013082802CARD3       010CSU CARDSYSTON      NM   R$  000000000032400000000003250000000000314000000000031700000000003200000000000315000000000032000161000000000000049900000000000015859700000000000000009999123100000010000000000000BRCARDACNOR9105
012013082896CARD3F      020CSU CARDSYSTON      NM   R$  000000000031800000000003180000000000318000000000031800000000003180000000000296000000000032300001000000000000000067000000000000021306000000000000009999123100000010000000000000BRCARDACNOR9105
012013082896CBMA3F      020COBRASMA    ON           R$  000000000000600000000000060000000000006000000000000600000000000060000000000005000000000000600001000000000000000001000000000000000006000000000000009999123100000010000000000000BRCBMAACNOR4124
012013082802CBMA4       010COBRASMA    PN           R$  000000000000400000000000040000000000004000000000000400000000000040000000000004000000000000500004000000000000100000000000000000400000000000000000009999123100000010000000000000BRCBMAACNPR1124
012013082896CBMA4F      020COBRASMA    PN           R$  000000000000500000000000050000000000004000000000000400000000000050000000000004000000000000500003000000000000000021000000000000000095000000000000009999123100000010000000000000BRCBMAACNPR1124
012013082808CCHI3       010CHIARELLI   ON           R$  000000000002300000000000230000000000021000000000002100000000000210000000000021000000000002200040000000000000530000000000000011610000000000000000009999123100000010000000000000BRCCHIACNOR5123
012013082896CCHI3F      020CHIARELLI   ON           R$  000000000002300000000000230000000000020000000000002200000000000210000000000020000000000002100011000000000000011829000000000000268470000000000000009999123100000010000000000000BRCCHIACNOR5123
012013082808CCHI4       010CHIARELLI   PN           R$  000000000002000000000000210000000000018000000000001900000000000190000000000016000000000002000014000000000000150000000000000002900000000000000000009999123100000010000000000000BRCCHIACNPR2122
012013082802CCPR3       010CYRE COM-CCPON      NM   R$  000000000208600000000021490000000002082000000000210200000000020820000000002082000000000210000011000000000000001300000000000002733200000000000000009999123100000010000000000000BRCCPRACNOR9107
012013082896CCPR3F      020CYRE COM-CCPON      NM   R$  000000000206600000000021000000000002066000000000206900000000021000000000002042000000000210000003000000000000000100000000000000206974000000000000009999123100000010000000000000BRCCPRACNOR9107
012013082802CCRO3       010CCR SA      ON      NM   R$  000000000170200000000017380000000001696000000000171900000000017200000000001719000000000172911140000000000004351100000000007480642300000000000000009999123100000010000000000000BRCCROACNOR2122
012013082896CCRO3F      020CCR SA      ON      NM   R$  000000000171000000000017390000000001696000000000171600000000017130000000001713000000000173000053000000000000001639000000000002813677000000000000009999123100000010000000000000BRCCROACNOR2122
012013082862CCRO3T      030CCR SA      ON      NM016R$  000000000170900000000017100000000001709000000000170900000000017100000000000000000000000000000002000000000000000600000000000001025610000000000000009999123100000010000000000000BRCCROACNOR2122
012013082862CCRO3T      030CCR SA      ON      NM030R$  000000000173500000000017360000000001735000000000173500000000017360000000000000000000000000000002000000000000002000000000000003470467000000000000009999123100000010000000000000BRCCROACNOR2122
012013082862CCRO3T      030CCR SA      ON      NM090R$  000000000174300000000017440000000001743000000000174300000000017440000000000000000000000000000002000000000000000400000000000000697550000000000000009999123100000010000000000000BRCCROACNOR2122
012013082878CCROK47     070CCRO        ON      NM000R$  000000000009200000000000920000000000092000000000009200000000000920000000000000000000000000000001000000000000115800000000000010653600000000000175002013111800000010000000000000BRCCROACNOR2122
012013082878CCROK48     070CCRO        ON      NM000R$  000000000004000000000000400000000000040000000000004000000000000400000000000000000000000000000001000000000000231600000000000009264000000000000185002013111800000010000000000000BRCCROACNOR2122
012013082802CCXC3       010CCX CARVAO  ON      NM   R$  000000000013600000000001520000000000134000000000014300000000001390000000000138000000000013901548000000000004689700000000000671795200000000000000009999123100000010000000000000BRCCXCACNOR5100
012013082896CCXC3F      020CCX CARVAO  ON      NM   R$  000000000013300000000001470000000000131000000000014100000000001310000000000131000000000015400007000000000000000249000000000000035305000000000000009999123100000010000000000000BRCCXCACNOR5100
012013082862CCXC3T      030CCX CARVAO  ON      NM016R$  000000000013600000000001370000000000136000000000013600000000001370000000000000000000000000000002000000000000005000000000000000683060000000000000009999123100000010000000000000BRCCXCACNOR5100
012013082808CELP3       010CELPA       ON           R$  000000000006900000000000690000000000068000000000006800000000000680000000000061000000000006900004000000000000000600000000000000041300000000000000009999123100000010000000000000BRCELPACNOR8112
012013082812CEOC11B     010FII CEO CCP CI      MB   R$  000000000878000000000088900000000008700000000000875900000000087500000000008615000000000875000045000000000000002190000000000019182952000000000000009999123100000010000000000000BRCEOCCTF003109
012013082802CESP6       010CESP        PNB EJ  N1   R$  000000000205500000000020900000000002037000000000206000000000020550000000002055000000000205603020000000000000538600000000001109815500000000000000009999123100000010000000000000BRCESPACNPB4119
012013082896CESP6F      020CESP        PNB EJ  N1   R$  000000000205500000000020870000000002008000000000205600000000020580000000002011000000000208400029000000000000000844000000000001736095000000000000009999123100000010000000000000BRCESPACNPB4119
012013082802CGAS3       010COMGAS      ON           R$  000000000510000000000051300000000005100000000000511900000000051300000000004807000000000514900008000000000000001700000000000008703000000000000000009999123100000010000000000000BRCGASACNOR0132
012013082802CGAS5       010COMGAS      PNA          R$  000000000550600000000055500000000005500000000000550900000000055500000000005550000000000579900027000000000000013900000000000076578200000000000000009999123100000010000000000000BRCGASACNPA3129
012013082802CGRA3       010GRAZZIOTIN  ON           R$  000000000160000000000016000000000001600000000000160000000000016000000000001600000000000163000001000000000000000300000000000000480000000000000000009999123100000010000000000000BRCGRAACNOR2061
012013082802CGRA4       010GRAZZIOTIN  PN           R$  000000000166000000000016610000000001634000000000164400000000016400000000001640000000000169400072000000000000105500000000000173512000000000000000009999123100000010000000000000BRCGRAACNPR9061
012013082802CIEL3       010CIELO       ON      NM   R$  000000000581500000000058280000000005656000000000571300000000057450000000005745000000000574610165000000000002703600000000015447801100000000000000009999123100000010000000000000BRCIELACNOR3111
012013082896CIEL3F      020CIELO       ON      NM   R$  000000000581200000000058120000000005665000000000571900000000057450000000005739000000000575300133000000000000004135000000000023653571000000000000009999123100000010000000000000BRCIELACNOR3111
012013082862CIEL3T      030CIELO       ON      NM016R$  000000000577400000000057750000000005774000000000577400000000057750000000000000000000000000000002000000000000001000000000000005774296000000000000009999123100000010000000000000BRCIELACNOR3111
012013082862CIEL3T      030CIELO       ON      NM030R$  000000000572300000000057240000000005723000000000572300000000057240000000000000000000000000000002000000000000000200000000000001144670000000000000009999123100000010000000000000BRCIELACNOR3111
012013082862CIEL3T      030CIELO       ON      NM061R$  000000000583200000000058330000000005832000000000583200000000058330000000000000000000000000000002000000000000247000000000001440725929000000000000009999123100000010000000000000BRCIELACNOR3111
012013082878CIELL65     070CIEL        ON      NM000R$  000000000009300000000000940000000000093000000000009300000000000940000000000000000000000000000003000000000000059600000000000005578600000000000650002013121600000010000000000000BRCIELACNOR3111
012013082882CIELX2      080CIELE       ON      NM000R$  000000000005800000000000580000000000058000000000005800000000000580000000000000000000000000000001000000000000074500000000000004321000000000000520002013121600000010000000000000BRCIELACNOR3111
012013082802CLSC4       010CELESC      PN      N2   R$  000000000178500000000018210000000001765000000000177600000000017700000000001760000000000177000154000000000000034900000000000061989900000000000000009999123100000010000000000000BRCLSCACNPR3107
012013082862CLSC4T      030CELESC      PN      N2061R$  000000000180400000000018050000000001804000000000180400000000018050000000000000000000000000000002000000000000001000000000000001804618000000000000009999123100000010000000000000BRCLSCACNPR3107
012013082802CMIG3       010CEMIG       ON      N1   R$  000000000187800000000018970000000001860000000000188500000000018620000000001862000000000186700486000000000000193500000000000364772200000000000000009999123100000010000000000000BRCMIGACNOR6208
012013082896CMIG3F      020CEMIG       ON      N1   R$  000000000188500000000018990000000001857000000000187900000000018570000000001855000000000201800023000000000000000663000000000001246059000000000000009999123100000010000000000000BRCMIGACNOR6208
012013082802CMIG4       010CEMIG       PN      N1   R$  000000000189500000000019020000000001837000000000187300000000018450000000001845000000000184910587000000000003498200000000006554187700000000000000009999123100000010000000000000BRCMIGACNPR3208
012013082896CMIG4F      020CEMIG       PN      N1   R$  000000000189000000000019080000000001832000000000187200000000018520000000001855000000000187400163000000000000004665000000000008728878000000000000009999123100000010000000000000BRCMIGACNPR3208
012013082862CMIG4S      030CEMIG       PN      N1061R$  000000000192800000000019290000000001928000000000192800000000019290000000000000000000000000000002000000000000006500000000000012534824000000000000009999123100000010000000000000BRCMIGACNPR3208
012013082862CMIG4T      030CEMIG       PN      N1085R$  000000000189200000000018930000000001892000000000189200000000018930000000000000000000000000000002000000000000000500000000000000946226000000000000009999123100000010000000000000BRCMIGACNPR3208
012013082862CMIG4T      030CEMIG       PN      N1090R$  000000000191900000000019200000000001908000000000191600000000019090000000000000000000000000000004000000000000007000000000000013417072000000000000009999123100000010000000000000BRCMIGACNPR3208
012013082862CMIG4T      030CEMIG       PN      N1016R$  000000000185200000000018530000000001852000000000185200000000018530000000000000000000000000000002000000000000016000000000000029643984000000000000009999123100000010000000000000BRCMIGACNPR3208
012013082862CMIG4T      030CEMIG       PN      N1030R$  000000000189900000000019000000000001864000000000186900000000018650000000000000000000000000000008000000000000012100000000000022625297000000000000009999123100000010000000000000BRCMIGACNPR3208
012013082862CMIG4T      030CEMIG       PN      N1040R$  000000000187400000000018750000000001874000000000187400000000018750000000000000000000000000000002000000000000003000000000000005624237000000000000009999123100000010000000000000BRCMIGACNPR3208
012013082878CMIGI19     070CMIG        PN      N1000R$  000000000003900000000000390000000000039000000000003900000000000390000000000000000000000007000001000000000000000100000000000000003900000000000190002013091600000010000000000000BRCMIGACNPR3208
012013082878CMIGI20     070CMIG        PN      N1000R$  000000000001500000000000150000000000010000000000001400000000000100000000000000000000000002000004000000000000001500000000000000021500000000000200002013091600000010000000000000BRCMIGACNPR3208
012013082812CNES11B     010FII CENESP  CI  ER  MB   R$  000000001215100000000124940000000012050000000001223300000000124000000000012004000000001240000038000000000000001061000000000012979525000000000000009999123100000010000000000000BRCNESCTF001125
012013082802COCE3       010COELCE      ON           R$  000000000401600000000041260000000004016000000000408100000000041190000000003850000000000412000008000000000000000800000000000003265000000000000000009999123100000010000000000000BRCOCEACNOR0132
012013082802COCE5       010COELCE      PNA          R$  000000000392000000000040000000000003919000000000397900000000039760000000003976000000000400500243000000000000067200000000000267408200000000000000009999123100000010000000000000BRCOCEACNPA3133
012013082896COCE5F      020COELCE      PNA          R$  000000000398500000000041520000000003985000000000399300000000041520000000003992000000000415200006000000000000000119000000000000475196000000000000009999123100000010000000000000BRCOCEACNPA3133
012013082802CPFE3       010CPFL ENERGIAON  ED  NM   R$  000000000193900000000019640000000001909000000000194200000000019500000000001950000000000195403064000000000000566700000000001100978600000000000000009999123100000010000000000000BRCPFEACNOR0122
012013082896CPFE3F      020CPFL ENERGIAON  ED  NM   R$  000000000194900000000019640000000001905000000000194300000000019050000000001905000000000195400016000000000000000616000000000001193819000000000000009999123100000010000000000000BRCPFEACNOR0122
012013082802CPLE3       010COPEL       ON      N1   R$  000000000202100000000021290000000002019000000000208000000000021190000000002076000000000211900157000000000000047100000000000097971200000000000000009999123100000010000000000000BRCPLEACNOR8128
012013082862CPLE3T      030COPEL       ON      N1030R$  000000000208900000000020900000000002089000000000208900000000020900000000000000000000000000000002000000000000002000000000000004179050000000000000009999123100000010000000000000BRCPLEACNOR8128
012013082802CPLE6       010COPEL       PNB     N1   R$  000000000284500000000029490000000002839000000000290900000000028970000000002897000000000290002861000000000000497000000000001445933300000000000000009999123100000010000000000000BRCPLEACNPB9125
012013082896CPLE6F      020COPEL       PNB     N1   R$  000000000285000000000029360000000002834000000000289700000000028720000000002872000000000295000021000000000000000627000000000001816610000000000000009999123100000010000000000000BRCPLEACNPB9125
012013082802CPRE3       010CPFL RENOVAVON      NM   R$  000000000119900000000011990000000001171000000000117800000000011890000000001172000000000118900024000000000000008500000000000010018700000000000000009999123100000010000000000000BRCPREACNOR5100
012013082896CPRE3F      020CPFL RENOVAVON      NM   R$  000000000119000000000012000000000001190000000000119300000000012000000000001165000000000120000006000000000000000152000000000000181365000000000000009999123100000010000000000000BRCPREACNOR5100
012013082862CPRE3T      030CPFL RENOVAVON      NM016R$  000000000118200000000011830000000001182000000000118200000000011830000000000000000000000000000002000000000000001600000000000001892716000000000000009999123100000010000000000000BRCPREACNOR5100
012013082862CPRE3T      030CPFL RENOVAVON      NM030R$  000000000118600000000011870000000001186000000000118600000000011870000000000000000000000000000004000000000000001800000000000002135455000000000000009999123100000010000000000000BRCPREACNOR5100
012013082862CPRE3T      030CPFL RENOVAVON      NM090R$  000000000120100000000012020000000001201000000000120100000000012020000000000000000000000000000002000000000000000700000000000000841257000000000000009999123100000010000000000000BRCPREACNOR5100
012013082802CRDE3       010CR2         ON      NM   R$  000000000040800000000004200000000000408000000000041900000000004150000000000415000000000042500004000000000000008200000000000003442300000000000000009999123100000010000000000000BRCRDEACNOR1108
012013082802CREM3       010CREMER      ON  EJ  NM   R$  000000000142400000000014990000000001424000000000144700000000014260000000001424000000000144800021000000000000004400000000000006367000000000000000009999123100000010000000000000BRCREMACNOR2167
012013082862CREM3T      030CREMER      ON  EJ  NM061R$  000000000145800000000014590000000001458000000000145800000000014590000000000000000000000000000002000000000000001700000000000002480047000000000000009999123100000010000000000000BRCREMACNOR2167
012013082802CRIV4       010ALFA FINANC PN           R$  000000000045600000000004640000000000456000000000046300000000004640000000000464000000000047000012000000000000011000000000000005101600000000000000009999123100000010000000000000BRCRIVACNPR1190
012013082802CRUZ3       010SOUZA CRUZ  ON           R$  000000000258400000000026110000000002556000000000257800000000025660000000002566000000000258203347000000000000766400000000001975940600000000000000009999123100000010000000000000BRCRUZACNOR0246
012013082896CRUZ3F      020SOUZA CRUZ  ON           R$  000000000257000000000026800000000002551000000000258400000000025690000000002568000000000260000046000000000000001119000000000002891450000000000000009999123100000010000000000000BRCRUZACNOR0246
012013082878CRUZL34     070CRUZ        ON        000R$  000000000000300000000000030000000000003000000000000300000000000030000000000000000000000000000002000000000000002000000000000000006000000000000340002013121600000010000000000000BRCRUZACNOR0246
012013082882CRUZX57     080CRUZE       ON        000R$  000000000031300000000003130000000000311000000000031200000000003110000000000000000000000000000003000000000000002000000000000000624000000000000275002013121600000010000000000000BRCRUZACNOR0246
012013082802CSAN3       010COSAN       ON      NM   R$  000000000406000000000041080000000004016000000000407100000000040770000000004077000000000408903043000000000000868700000000003537204800000000000000009999123100000010000000000000BRCSANACNOR6108
012013082896CSAN3F      020COSAN       ON      NM   R$  000000000399800000000041830000000003911000000000404700000000039110000000003975000000000406000018000000000000000514000000000002080357000000000000009999123100000010000000000000BRCSANACNOR6108
012013082862CSAN3T      030COSAN       ON      NM030R$  000000000409500000000041300000000004095000000000410100000000041300000000000000000000000000000004000000000000006000000000000024606630000000000000009999123100000010000000000000BRCSANACNOR6108
012013082802CSMG3       010COPASA      ON      NM   R$  000000000280100000000028620000000002781000000000281300000000028000000000002786000000000280001889000000000000280100000000000788164700000000000000009999123100000010000000000000BRCSMGACNOR5127
012013082896CSMG3F      020COPASA      ON      NM   R$  000000000282900000000028540000000002800000000000283600000000028000000000002753000000000289800015000000000000000262000000000000743057000000000000009999123100000010000000000000BRCSMGACNOR5127
012013082862CSMG3T      030COPASA      ON      NM016R$  000000000280600000000028070000000002806000000000280600000000028070000000000000000000000000000002000000000000004000000000000011226956000000000000009999123100000010000000000000BRCSMGACNOR5127
012013082862CSMG3T      030COPASA      ON      NM030R$  000000000281700000000028180000000002817000000000281700000000028180000000000000000000000000000002000000000000001000000000000002817866000000000000009999123100000010000000000000BRCSMGACNOR5127
012013082814CSMO11      010ISHARES CSMOCI           R$  000000000447600000000044760000000004476000000000447600000000044760000000003800000000000475900001000000000000000050000000000000223800000000000000009999123100000010000000000000BRCSMOCTF002100
012013082802CSNA3       010SID NACIONALON           R$  000000000085800000000008840000000000843000000000086100000000008600000000000860000000000086114164000000000008258100000000007113372700000000000000009999123100000010000000000000BRCSNAACNOR6243
012013082896CSNA3F      020SID NACIONALON           R$  000000000086500000000008820000000000841000000000086200000000008620000000000841000000000088200090000000000000003544000000000003056261000000000000009999123100000010000000000000BRCSNAACNOR6243
012013082862CSNA3T      030SID NACIONALON        016R$  000000000085100000000008520000000000851000000000085100000000008520000000000000000000000000000002000000000000001300000000000001107030000000000000009999123100000010000000000000BRCSNAACNOR6243
012013082862CSNA3T      030SID NACIONALON        030R$  000000000086600000000008670000000000863000000000086500000000008650000000000000000000000000000006000000000000015500000000000013413061000000000000009999123100000010000000000000BRCSNAACNOR6243
012013082862CSNA3T      030SID NACIONALON        061R$  000000000088200000000008830000000000882000000000088200000000008830000000000000000000000000000002000000000000006200000000000005474183000000000000009999123100000010000000000000BRCSNAACNOR6243
012013082878CSNAI10     070CSNA        ON        000R$  000000000000300000000000050000000000003000000000000400000000000050000000000000000000000003000007000000000000050500000000000000251500000000000100002013091600000010000000000000BRCSNAACNOR6243
012013082878CSNAI78     070CSNA        ON        000R$  000000000010400000000001040000000000104000000000010400000000001040000000000000000000000000000001000000000000001000000000000000104000000000000076002013091600000010000000000000BRCSNAACNOR6242
012013082878CSNAI8      070CSNA        ON        000R$  000000000008800000000000980000000000088000000000009400000000000900000000000050000000000013400004000000000000001700000000000000160800000000000078002013091600000010000000000000BRCSNAACNOR6242
012013082878CSNAI80     070CSNA  FM    ON        000R$  000000000004600000000000460000000000046000000000004600000000000460000000000000000000000000000002000000000000004200000000000000193200000000000086002013091600000010000000000000BRCSNAACNOR6243
012013082878CSNAI82     070CSNA        ON        000R$  000000000008400000000000840000000000084000000000008400000000000840000000000065000000000000000001000000000000000300000000000000025200000000000080002013091600000010000000000000BRCSNAACNOR6242
012013082878CSNAI84     070CSNA  FM    ON        000R$  000000000005800000000000630000000000047000000000005400000000000470000000000025000000000000000005000000000000008400000000000000457200000000000084002013091600000010000000000000BRCSNAACNOR6243
012013082878CSNAI88     070CSNA  FM    ON        000R$  000000000002800000000000400000000000028000000000003700000000000280000000000025000000000000000014000000000000025200000000000000940100000000000088002013091600000010000000000000BRCSNAACNOR6243
012013082878CSNAI9      070CSNA  FM    ON        000R$  000000000002200000000000260000000000020000000000002200000000000230000000000018000000000002700012000000000000025000000000000000557300000000000090002013091600000010000000000000BRCSNAACNOR6243
012013082878CSNAI92     070CSNA  FM    ON        000R$  000000000001500000000000150000000000015000000000001500000000000150000000000000000000000000000002000000000000003500000000000000052500000000000092002013091600000010000000000000BRCSNAACNOR6243
012013082878CSNAI94     070CSNA        ON        000R$  000000000001100000000000130000000000011000000000001100000000000110000000000000000000000000000004000000000000007000000000000000079000000000000094002013091600000010000000000000BRCSNAACNOR6243
012013082878CSNAI96     070CSNA        ON        000R$  000000000000600000000000060000000000006000000000000600000000000060000000000000000000000000000004000000000000020000000000000000120000000000000096002013091600000010000000000000BRCSNAACNOR6243
012013082878CSNAJ10     070CSNA        ON        000R$  000000000001800000000000220000000000018000000000002000000000000220000000000000000000000000000002000000000000008000000000000000160000000000000100002013102100000010000000000000BRCSNAACNOR6243
012013082878CSNAJ20     070CSNA        ON        000R$  000000000001600000000000180000000000016000000000001700000000000170000000000000000000000000000004000000000000016000000000000000272000000000000102002013102100000010000000000000BRCSNAACNOR6243
012013082878CSNAJ8      070CSNA        ON        000R$  000000000010000000000001000000000000100000000000010000000000001000000000000000000000000000000001000000000000001000000000000000100000000000000078002013102100000010000000000000BRCSNAACNOR6242
012013082878CSNAJ86     070CSNA  FM    ON        000R$  000000000007600000000000760000000000076000000000007600000000000760000000000000000000000000000001000000000000003500000000000000266000000000000084002013102100000010000000000000BRCSNAACNOR6242
012013082878CSNAJ9      070CSNA  FM    ON        000R$  000000000005400000000000540000000000054000000000005400000000000540000000000000000000000000000001000000000000002500000000000000135000000000000088002013102100000010000000000000BRCSNAACNOR6242
012013082878CSNAJ92     070CSNA  FM    ON        000R$  000000000003900000000000390000000000037000000000003700000000000370000000000000000000000000000002000000000000006000000000000000227000000000000092002013102100000010000000000000BRCSNAACNOR6243
012013082878CSNAJ94     070CSNA        ON        000R$  000000000002700000000000310000000000027000000000002800000000000310000000000000000000000000000003000000000000002700000000000000076900000000000094002013102100000010000000000000BRCSNAACNOR6243
012013082878CSNAJ98     070CSNA        ON        000R$  000000000002200000000000220000000000022000000000002200000000000220000000000003000000000000000001000000000000003500000000000000077000000000000098002013102100000010000000000000BRCSNAACNOR6243
012013082878CSNAL20     070CSNA        ON        000R$  000000000003800000000000380000000000038000000000003800000000000380000000000000000000000000000001000000000000001000000000000000038000000000000102002013121600000010000000000000BRCSNAACNOR6243
012013082882CSNAU80     080CSNAE FM    ON        000R$  000000000004500000000000450000000000033000000000003900000000000390000000000000000000000000000003000000000000004000000000000000156000000000000086002013091600000010000000000000BRCSNAACNOR6243
012013082882CSNAU84     080CSNAE FM    ON        000R$  000000000002700000000000320000000000027000000000003000000000000320000000000000000000000004000002000000000000004600000000000000141700000000000084002013091600000010000000000000BRCSNAACNOR6243
012013082882CSNAU88     080CSNAE FM    ON        000R$  000000000005000000000000500000000000042000000000004800000000000500000000000000000000000000000014000000000000045100000000000002199700000000000088002013091600000010000000000000BRCSNAACNOR6243
012013082882CSNAU9      080CSNAE FM    ON        000R$  000000000006400000000000710000000000047000000000005800000000000620000000000045000000000006600036000000000000038700000000000002250600000000000090002013091600000010000000000000BRCSNAACNOR6243
012013082882CSNAV6      080CSNAE       ON        000R$  000000000000700000000000070000000000006000000000000600000000000060000000000000000000000001200213000000000000021300000000000000144100000000000058002013102100000010000000000000BRCSNAACNOR6242
012013082882CSNAV7      080CSNAE       ON        000R$  000000000001100000000000110000000000008000000000001000000000000090000000000009000000000002500217000000000000043400000000000000456200000000000068002013102100000010000000000000BRCSNAACNOR6242
012013082882CSNAV8      080CSNAE       ON        000R$  000000000003300000000000330000000000025000000000002800000000000300000000000025000000000003500273000000000000046500000000000001338400000000000078002013102100000010000000000000BRCSNAACNOR6242
012013082882CSNAV86     080CSNAE FM    ON        000R$  000000000004800000000000480000000000048000000000004800000000000480000000000000000000000000000001000000000000003500000000000000168000000000000084002013102100000010000000000000BRCSNAACNOR6242
012013082882CSNAV9      080CSNAE FM    ON        000R$  000000000006900000000000690000000000057000000000006400000000000620000000000056000000000007700007000000000000013000000000000000835500000000000088002013102100000010000000000000BRCSNAACNOR6242
012013082802CTAX11      010CONTAX      UNT     N2   R$  000000000181900000000018300000000001800000000000180500000000018000000000001800000000000191800044000000000000034400000000000062109100000000000000009999123100000010000000000000BRCTAXCDAM19100
012013082896CTAX11F     020CONTAX      UNT     N2   R$  000000000180000000000018000000000001700000000000171300000000017000000000001615000000000181900002000000000000000098000000000000167900000000000000009999123100000010000000000000BRCTAXCDAM19100
012013082802CTAX3       010CONTAX      ON      N2   R$  000000000037200000000003720000000000371000000000037100000000003710000000000345000000000037100009000000000000002400000000000000890700000000000000009999123100000010000000000000BRCTAXACNOR3113
012013082896CTAX3F      020CONTAX      ON      N2   R$  000000000040000000000004000000000000400000000000040000000000004000000000000366000000000040000001000000000000000006000000000000002400000000000000009999123100000010000000000000BRCTAXACNOR3113
012013082802CTAX4       010CONTAX      PN      N2   R$  000000000036500000000003660000000000355000000000036000000000003550000000000355000000000036100033000000000000009500000000000003423700000000000000009999123100000010000000000000BRCTAXACNPR0114
012013082896CTAX4F      020CONTAX      PN      N2   R$  000000000035500000000003550000000000355000000000035500000000003550000000000331000000000038100002000000000000000040000000000000014200000000000000009999123100000010000000000000BRCTAXACNPR0114
012013082802CTIP3       010CETIP       ON      NM   R$  000000000231400000000023290000000002295000000000231100000000023170000000002315000000000231704012000000000001012500000000002340125600000000000000009999123100000010000000000000BRCTIPACNOR2119
012013082896CTIP3F      020CETIP       ON      NM   R$  000000000232000000000024370000000002295000000000231500000000022960000000002309000000000243000020000000000000000966000000000002237047000000000000009999123100000010000000000000BRCTIPACNOR2119
012013082862CTIP3T      030CETIP       ON      NM061R$  000000000233800000000023420000000002338000000000234100000000023420000000000000000000000000000012000000000000216700000000000507349936000000000000009999123100000010000000000000BRCTIPACNOR2119
012013082862CTIP3T      030CETIP       ON      NM090R$  000000000236600000000023670000000002366000000000236600000000023670000000000000000000000000000002000000000000000100000000000000236686000000000000009999123100000010000000000000BRCTIPACNOR2119
012013082802CTNM4       010COTEMINAS   PN           R$  000000000023500000000002350000000000235000000000023500000000002350000000000221000000000023200001000000000000000100000000000000023500000000000000009999123100000010000000000000BRCTNMACNPR6128
012013082802CTSA4       010SANTANENSE  PN           R$  000000000059800000000005980000000000598000000000059800000000005980000000000560000000000059800001000000000000000100000000000000059800000000000000009999123100000010000000000000BRCTSAACNPR0051
012013082812CXCE11B     010FII CX CEDAECI      MB   R$  000000019490000000001949000000000190100000000019479500000001901000000000190100000000019450000004000000000000000046000000000008960600000000000000009999123100000010000000000000BRCXCECTF004137
012013082812CXTL11      010FII CX TRX  CI           R$  000000007800000000000780000000000075000000000007517100000000750000000000071200000000007500000009000000000000000385000000000028941000000000000000009999123100000010000000000000BRCXTLCTF003121
012013082802CYRE3       010CYRELA REALTON      NM   R$  000000000157700000000015770000000001533000000000155500000000015620000000001557000000000156206398000000000002234800000000003476749400000000000000009999123100000010000000000000BRCYREACNOR7125
012013082896CYRE3F      020CYRELA REALTON      NM   R$  000000000154800000000015660000000001529000000000155000000000015450000000001535000000000158900022000000000000000706000000000001094801000000000000009999123100000010000000000000BRCYREACNOR7125
012013082862CYRE3T      030CYRELA REALTON      NM016R$  000000000156800000000015690000000001568000000000156800000000015690000000000000000000000000000002000000000000000300000000000000470568000000000000009999123100000010000000000000BRCYREACNOR7125
012013082862CYRE3T      030CYRELA REALTON      NM061R$  000000000157400000000015790000000001574000000000157700000000015790000000000000000000000000000012000000000000321900000000000507725065000000000000009999123100000010000000000000BRCYREACNOR7125
012013082878CYREH18     070CYRE        ON      NM000R$  000000000012900000000001290000000000129000000000012900000000001290000000000000000000000000000001000000000000208000000000000026832000000000000180002014081800000010000000000000BRCYREACNOR7125
012013082878CYREI15     070CYRE        ON      NM000R$  000000000009500000000000950000000000095000000000009500000000000950000000000000000000000000000001000000000000001600000000000000152000000000000150002013091600000010000000000000BRCYREACNOR7125
012013082878CYREI45     070CYRE  FM    ON      NM000R$  000000000005900000000000590000000000058000000000005800000000000580000000000000000000000000000002000000000000001800000000000000106000000000000155002013091600000010000000000000BRCYREACNOR7125
012013082878CYREJ16     070CYRE  FM    ON      NM000R$  000000000007300000000000730000000000063000000000007000000000000730000000000000000000000000000003000000000000009200000000000000649600000000000160002013102100000010000000000000BRCYREACNOR7125
012013082878CYREJ17     070CYRE  FM    ON      NM000R$  000000000003300000000000330000000000033000000000003300000000000330000000000000000000000000000001000000000000002700000000000000089100000000000170002013102100000010000000000000BRCYREACNOR7125
012013082878CYREJ45     070CYRE  FM    ON      NM000R$  000000000010100000000001010000000000094000000000009700000000000940000000000000000000000000000002000000000000007000000000000000682500000000000155002013102100000010000000000000BRCYREACNOR7125
012013082878CYREJ46     070CYRE  FM    ON      NM000R$  000000000005400000000000540000000000051000000000005200000000000510000000000000000000000000000002000000000000007000000000000000367500000000000165002013102100000010000000000000BRCYREACNOR7125
012013082882CYREU46     080CYREE FM    ON      NM000R$  000000000010200000000001020000000000101000000000010100000000001010000000000000000000000000000002000000000000007000000000000000710500000000000165002013091600000010000000000000BRCYREACNOR7125
012013082882CYREV16     080CYREE FM    ON      NM000R$  000000000010100000000001010000000000101000000000010100000000001010000000000000000000000000000001000000000000003500000000000000353500000000000160002013102100000010000000000000BRCYREACNOR7125
012013082882CYREV46     080CYREE FM    ON      NM000R$  000000000012300000000001340000000000123000000000012800000000001340000000000000000000000000000003000000000000005900000000000000758000000000000165002013102100000010000000000000BRCYREACNOR7125
012013082802CZLT11      010COSAN LTD   DR3 ED       R$  000000000320100000000032150000000003150000000000317300000000031750000000003173000000000317500297000000000000279200000000000886178400000000000000009999123100000010000000000000BRCZLTBDR009105
012013082802DAGB11      010DUFRY AG    DR3          R$  000000003141000000000330000000000031201000000003172900000000320000000000031560000000003200000580000000000000014695000000000466270199000000000000009999123100000010000000000000BRDAGBBDR008100
012013082802DASA3       010DASA        ON      NM   R$  000000000106700000000010900000000001065000000000107600000000010690000000001069000000000107005783000000000002955500000000003180731100000000000000009999123100000010000000000000BRDASAACNOR1108
012013082896DASA3F      020DASA        ON      NM   R$  000000000107500000000010800000000001066000000000107200000000010660000000001065000000000109300012000000000000000322000000000000345411000000000000009999123100000010000000000000BRDASAACNOR1108
012013082862DASA3T      030DASA        ON      NM030R$  000000000108400000000010850000000001079000000000108000000000010800000000000000000000000000000004000000000000013500000000000014592375000000000000009999123100000010000000000000BRDASAACNOR1108
012013082878DASAI41     070DASA        ON      NM000R$  000000000000800000000000080000000000008000000000000800000000000080000000000000000000000000000001000000000000000100000000000000000800000000000115002013091600000010000000000000BRDASAACNOR1108
012013082802DAYC4       010DAYCOVAL    PN      N2   R$  000000000077000000000007860000000000770000000000078000000000007780000000000777000000000078900351000000000000079000000000000061648300000000000000009999123100000010000000000000BRDAYCACNPR2128
012013082896DAYC4F      020DAYCOVAL    PN      N2   R$  000000000076600000000007690000000000766000000000076800000000007690000000000770000000000081600002000000000000000085000000000000065281000000000000009999123100000010000000000000BRDAYCACNPR2128
