00COTAHIST.2013BOVESPA 20130726                                                                                                                                                                                                                      
012013072602AAPL11B     010APPLE       DRN     MB   R$  000000000986000000000098770000000009860000000000986100000000098770000000009890000000000999000002000000000000010500000000000103547000000000000000009999123100000010000000000000BRAAPLBDR004104
012013072602ABCB4       010ABC BRASIL  PN      N2   R$  000000000127000000000012700000000001241000000000125800000000012590000000001259000000000126200553000000000000230300000000000289921800000000000000009999123100000010000000000000BRABCBACNPR4120
012013072696ABCB4F      020ABC BRASIL  PN      N2   R$  000000000126500000000012690000000001252000000000125500000000012690000000001246000000000127000022000000000000000179000000000000224785000000000000009999123100000010000000000000BRABCBACNPR4120
012013072612ABCP11      010FII ABC IMOBCI           R$  000000000092200000000009310000000000922000000000092900000000009310000000000931000000000096000002000000000000000024000000000000022308000000000000009999123100000010000000000000BRABCPCTF000213
012013072602ABRE11      010ABRIL EDUCA UNT     N2   R$  000000000355000000000036100000000003550000000000358600000000035850000000003585000000000359000714000000000000208100000000000746445000000000000000009999123100000010000000000000BRABRECDAM15102
012013072696ABRE11F     020ABRIL EDUCA UNT     N2   R$  000000000358800000000037500000000003588000000000361100000000035930000000003581000000000372000008000000000000000213000000000000769155000000000000009999123100000010000000000000BRABRECDAM15102
012013072602AEDU3       010ANHANGUERA  ON      NM   R$  000000000130500000000013500000000001290000000000132800000000013500000000001350000000000135106569000000000002589600000000003439217400000000000000009999123100000010000000000000BRAEDUACNOR9107
012013072696AEDU3F      020ANHANGUERA  ON      NM   R$  000000000131400000000013450000000001295000000000131100000000013450000000001310000000000133600012000000000000000304000000000000399333000000000000009999123100000010000000000000BRAEDUACNOR9107
012013072612AEFI11      010FII AESAPAR CI           R$  000000001240100000000124750000000012315000000001239900000000123150000000012315000000001247000011000000000000000231000000000002864332000000000000009999123100000010000000000000BRAEFICTF002119
012013072602AELP3       010AES ELPA    ON           R$  000000000075900000000007590000000000759000000000075900000000007590000000000748000000000076000001000000000000000300000000000000227700000000000000009999123100000010000000000000BRAELPACNOR2119
012013072612AGCX11      010FII AG CAIXACI           R$  000000010100000000001010000000000100700000000010095700000001007000000000100700000000010100000004000000000000000035000000000003533495000000000000009999123100000010000000000000BRAGCXCTF003108
012013072602AGEN11      010AGRENCO     DR3          R$  000000000007000000000000730000000000013000000000003800000000000200000000000020000000000002107705000000000095348800000000003648688800000000000000009999123100000010000000000000BRAGENBDR001100
012013072696AGEN11F     020AGRENCO     DR3          R$  000000000006800000000000680000000000017000000000004900000000000240000000000018000000000002200051000000000000001511000000000000075036000000000000009999123100000010000000000000BRAGENBDR001100
012013072662AGEN11S     030AGRENCO     DR3       060R$  000000000002300000000000240000000000023000000000002300000000000240000000000000000000000000000002000000000000010000000000000000233312000000000000009999123100000010000000000000BRAGENBDR001100
012013072662AGEN11T     030AGRENCO     DR3       060R$  000000000006000000000000610000000000024000000000005000000000000250000000000000000000000000000004000000000000014000000000000000705502000000000000009999123100000010000000000000BRAGENBDR001100
012013072662AGEN11T     030AGRENCO     DR3       031R$  000000000002400000000000250000000000024000000000002400000000000250000000000000000000000000000002000000000000100000000000000002417760000000000000009999123100000010000000000000BRAGENBDR001100
012013072602AGRO3       010BRASILAGRO  ON      NM   R$  000000000106900000000010690000000001052000000000106000000000010580000000001040000000000105800013000000000000004300000000000004559500000000000000009999123100000010000000000000BRAGROACNOR7102
012013072602ALLL3       010ALL AMER LATON      NM   R$  000000000088200000000009000000000000870000000000088300000000008920000000000892000000000089404387000000000001420200000000001254778400000000000000009999123100000010000000000000BRALLLACNOR6118
012013072696ALLL3F      020ALL AMER LATON      NM   R$  000000000089200000000009100000000000871000000000088400000000008990000000000885000000000089900029000000000000000803000000000000710174000000000000009999123100000010000000000000BRALLLACNOR6118
012013072662ALLL3T      030ALL AMER LATON      NM031R$  000000000087900000000008800000000000879000000000087900000000008800000000000000000000000000000002000000000000001000000000000000879594000000000000009999123100000010000000000000BRALLLACNOR6118
012013072612ALMI11B     010FII TORRE ALCI      MB   R$  000000031200000000003120000000000311500000000031197300000003120000000000311601000000031590000004000000000000000019000000000005927500000000000000009999123100000010000000000000BRALMICTF003203
012013072602ALPA3       010ALPARGATAS  ON      N1   R$  000000000106900000000010690000000001069000000000106900000000010690000000001046000000000107000001000000000000017000000000000018173000000000000000009999123100000010000000000000BRALPAACNOR0202
012013072696ALPA3F      020ALPARGATAS  ON      N1   R$  000000000105300000000010530000000001022000000000103700000000010220000000000990000000000105300002000000000000000020000000000000020750000000000000009999123100000010000000000000BRALPAACNOR0202
012013072602ALPA4       010ALPARGATAS  PN      N1   R$  000000000132200000000013310000000001316000000000132000000000013200000000001318000000000132000521000000000000126900000000000167523800000000000000009999123100000010000000000000BRALPAACNPR7202
012013072696ALPA4F      020ALPARGATAS  PN      N1   R$  000000000130200000000013230000000001302000000000130600000000013100000000001304000000000133600009000000000000000155000000000000202571000000000000009999123100000010000000000000BRALPAACNPR7202
012013072602ALSC3       010ALIANSCE    ON      NM   R$  000000000205700000000020880000000002041000000000206500000000020800000000002060000000000208001446000000000000316800000000000654240200000000000000009999123100000010000000000000BRALSCACNOR0104
012013072696ALSC3F      020ALIANSCE    ON      NM   R$  000000000207400000000020740000000002049000000000206100000000020490000000002000000000000209000002000000000000000045000000000000092755000000000000009999123100000010000000000000BRALSCACNOR0104
012013072662ALSC3T      030ALIANSCE    ON      NM060R$  000000000210100000000021020000000002101000000000210100000000021020000000000000000000000000000002000000000000002000000000000004202139000000000000009999123100000010000000000000BRALSCACNOR0104
012013072602ALUP11      010ALUPAR      UNT     N2   R$  000000000176400000000017710000000001745000000000175900000000017600000000001751000000000177000210000000000000086300000000000151837100000000000000009999123100000010000000000000BRALUPCDAM15100
012013072696ALUP11F     020ALUPAR      UNT     N2   R$  000000000176000000000017710000000001753000000000176300000000017600000000001726000000000184900018000000000000000588000000000001036816000000000000009999123100000010000000000000BRALUPCDAM15100
012013072602AMAR3       010LOJAS MARISAON      NM   R$  000000000214400000000021780000000002123000000000214800000000021500000000002150000000000215300973000000000000211600000000000454650600000000000000009999123100000010000000000000BRAMARACNOR4109
012013072696AMAR3F      020LOJAS MARISAON      NM   R$  000000000215000000000021700000000002102000000000216000000000021020000000002102000000000235500018000000000000000321000000000000693668000000000000009999123100000010000000000000BRAMARACNOR4109
012013072602AMBV3       010AMBEV       ON           R$  000000000810500000000081970000000008042000000000813100000000081400000000008140000000000817200769000000000000135700000000001103519000000000000000009999123100000010000000000000BRAMBVACNOR4153
012013072696AMBV3F      020AMBEV       ON           R$  000000000800000000000081920000000007941000000000810500000000081510000000008102000000000815100032000000000000000880000000000007142299000000000000009999123100000010000000000000BRAMBVACNOR4153
012013072602AMBV4       010AMBEV       PN           R$  000000000810100000000082170000000008064000000000815700000000081880000000008183000000000818803459000000000000681300000000005557917700000000000000009999123100000010000000000000BRAMBVACNPR1153
012013072696AMBV4F      020AMBEV       PN           R$  000000000816400000000082100000000008060000000000814700000000081860000000008125000000000819500103000000000000002571000000000020947230000000000000009999123100000010000000000000BRAMBVACNPR1153
012013072678AMBVH83     070AMBV        PN        000R$  000000000013500000000001350000000000110000000000012500000000001300000000000000000000000000000003000000000000001600000000000000201000000000000830002013081900000010000000000000BRAMBVACNPR1153
012013072678AMBVH84     070AMBV        PN        000R$  000000000008000000000000800000000000080000000000008000000000000800000000000057000000000000000001000000000000000300000000000000024000000000000840002013081900000010000000000000BRAMBVACNPR1153
012013072602AORE3       010ALL ORE     ON           R$  000000000015000000000001500000000000150000000000015000000000001500000000000120000000000020000002000000000000001100000000000000165000000000000000009999123100000010000000000000BRAOREACNOR2100
012013072602ARTR3       010ARTERIS     ON      NM   R$  000000000210900000000021480000000002104000000000212500000000021350000000002135000000000213701733000000000001250900000000002658646200000000000000009999123100000010000000000000BRARTRACNOR3101
012013072696ARTR3F      020ARTERIS     ON      NM   R$  000000000211600000000021690000000002101000000000213900000000021340000000002139000000000217100021000000000000000433000000000000926402000000000000009999123100000010000000000000BRARTRACNOR3101
012013072662ARTR3T      030ARTERIS     ON      NM031R$  000000000212400000000021250000000002124000000000212400000000021250000000000000000000000000000002000000000000001000000000000002124137000000000000009999123100000010000000000000BRARTRACNOR3101
012013072602ARZZ3       010AREZZO CO   ON      NM   R$  000000000358600000000036330000000003575000000000360000000000036130000000003613000000000361400423000000000000136600000000000491804100000000000000009999123100000010000000000000BRARZZACNOR3108
012013072696ARZZ3F      020AREZZO CO   ON      NM   R$  000000000358000000000036200000000003578000000000358500000000036200000000003352000000000384700005000000000000000123000000000000440984000000000000009999123100000010000000000000BRARZZACNOR3108
012013072602AUTM3       010AUTOMETAL   ON      NM   R$  000000000181200000000018400000000001786000000000180500000000018400000000001840000000000184400359000000000000230500000000000416123600000000000000009999123100000010000000000000BRAUTMACNOR8109
012013072696AUTM3F      020AUTOMETAL   ON      NM   R$  000000000181300000000018130000000001799000000000180400000000017990000000001799000000000192500005000000000000000144000000000000259792000000000000009999123100000010000000000000BRAUTMACNOR8109
012013072602AXPB11B     010AMERICAN EXPDRN     MB   R$  000000001690300000000169030000000016903000000001690300000000169030000000015000000000001850000001000000000000000300000000000005070900000000000000009999123100000010000000000000BRAXPBBDR007105
012013072602BAHI3       010BAHEMA      ON           R$  000000000051000000000005100000000000500000000000050100000000005000000000000491000000000050000005000000000000000700000000000000351000000000000000009999123100000010000000000000BRBAHIACNOR1066
012013072602BAUH4       010EXCELSIOR   PN           R$  000000000090000000000009920000000000900000000000091800000000009920000000000703000000000099200002000000000000000500000000000000459200000000000000009999123100000010000000000000BRBAUHACNPR3108
012013072602BAZA3       010AMAZONIA    ON           R$  000000000003300000000000330000000000033000000000003300000000000330000000000033000000000003500001000000000000003000000000000000099000000000000000009999123100000010000000000000BRBAZAACNOR0163
012013072602BBAS3       010BRASIL      ON      NM   R$  000000000226300000000022750000000002233000000000225100000000022490000000002248000000000225009404000000000004541100000000010222975600000000000000009999123100000010000000000000BRBBASACNOR3237
012013072696BBAS3F      020BRASIL      ON      NM   R$  000000000225500000000022740000000002236000000000225100000000022600000000002260000000000226500165000000000000004160000000000009366739000000000000009999123100000010000000000000BRBBASACNOR3237
012013072662BBAS3T      030BRASIL      ON      NM027R$  000000000227700000000022780000000002277000000000227700000000022780000000000000000000000000000002000000000000001200000000000002732980000000000000009999123100000010000000000000BRBBASACNOR3237
012013072662BBAS3T      030BRASIL      ON      NM031R$  000000000226100000000022620000000002261000000000226100000000022620000000000000000000000000000002000000000000001000000000000002261947000000000000009999123100000010000000000000BRBBASACNOR3237
012013072662BBAS3T      030BRASIL      ON      NM055R$  000000000226200000000022630000000002262000000000226200000000022630000000000000000000000000000002000000000000010000000000000022625072000000000000009999123100000010000000000000BRBBASACNOR3237
012013072662BBAS3T      030BRASIL      ON      NM060R$  000000000227100000000022750000000002271000000000227300000000022740000000000000000000000000000006000000000000005000000000000011367962000000000000009999123100000010000000000000BRBBASACNOR3237
012013072662BBAS3T      030BRASIL      ON      NM090R$  000000000229000000000022910000000002288000000000229000000000022890000000000000000000000000000004000000000000002100000000000004809236000000000000009999123100000010000000000000BRBBASACNOR3237
012013072662BBAS3T      030BRASIL      ON      NM122R$  000000000233400000000023350000000002334000000000233400000000023350000000000000000000000000000004000000000000150000000000000350167860000000000000009999123100000010000000000000BRBBASACNOR3237
012013072662BBAS3T      030BRASIL      ON      NM180R$  000000000236900000000023700000000002369000000000236900000000023700000000000000000000000000000002000000000000000500000000000001184576000000000000009999123100000010000000000000BRBBASACNOR3237
012013072678BBASH21     070BBAS  FM    ON      NM000R$  000000000022200000000002220000000000185000000000020000000000002020000000000153000000000020300091000000000000091400000000000018351500000000000207602013081900000010000000000000BRBBASACNOR3236
012013072678BBASH22     070BBAS  FM    ON      NM000R$  000000000013200000000001330000000000107000000000011800000000001200000000000097000000000018000064000000000000110700000000000013079600000000000217602013081900000010000000000000BRBBASACNOR3236
012013072678BBASH23     070BBAS  FM    ON      NM000R$  000000000005200000000000670000000000049000000000005400000000000580000000000050000000000006600250000000000000294700000000000015932800000000000227602013081900000010000000000000BRBBASACNOR3236
012013072678BBASH24     070BBAS  FM    ON      NM000R$  000000000004700000000000470000000000033000000000003700000000000410000000000033000000000004600146000000000000222400000000000008295800000000000231702013081900000010000000000000BRBBASACNOR3233
012013072678BBASH25     070BBAS  FM    ON      NM000R$  000000000001400000000000180000000000011000000000001400000000000130000000000010000000000001400020000000000000015200000000000000218300000000000241702013081900000010000000000000BRBBASACNOR3233
012013072678BBASH26     070BBAS        ON      NM000R$  000000000000400000000000040000000000004000000000000400000000000040000000000002000000000000600001000000000000008000000000000000032000000000000256602013081900000010000000000000BRBBASACNOR3235
012013072678BBASH27     070BBAS        ON      NM000R$  000000000000100000000000010000000000001000000000000100000000000010000000000002000000000000400001000000000000000900000000000000000900000000000266602013081900000010000000000000BRBBASACNOR3235
012013072678BBASI21     070BBAS  FM    ON      NM000R$  000000000022300000000002230000000000195000000000020700000000002070000000000000000000000000000029000000000000059600000000000012391700000000000210002013091600000010000000000000BRBBASACNOR3237
012013072678BBASI22     070BBAS  FM    ON      NM000R$  000000000016600000000001660000000000142000000000015100000000001520000000000139000000000017500032000000000000064800000000000009811400000000000217602013091600000010000000000000BRBBASACNOR3236
012013072678BBASI23     070BBAS  FM    ON      NM000R$  000000000010200000000001030000000000088000000000009500000000000950000000000045000000000000000014000000000000029400000000000002807000000000000227602013091600000010000000000000BRBBASACNOR3236
012013072678BBASI24     070BBAS  FM    ON      NM000R$  000000000005900000000000590000000000048000000000004900000000000530000000000045000000000006600035000000000000023900000000000001188200000000000237602013091600000010000000000000BRBBASACNOR3236
012013072678BBASI25     070BBAS  FM    ON      NM000R$  000000000002900000000000290000000000025000000000002700000000000280000000000028000000000006900004000000000000012700000000000000346700000000000246602013091600000010000000000000BRBBASACNOR3235
012013072678BBASI26     070BBAS        ON      NM000R$  000000000001300000000000140000000000013000000000001300000000000140000000000011000000000001500003000000000000003000000000000000041000000000000256602013091600000010000000000000BRBBASACNOR3235
012013072678BBASI51     070BBAS        ON      NM000R$  000000000025000000000002500000000000250000000000025000000000002500000000000000000000000000000001000000000000004000000000000001000000000000000205002013091600000010000000000000BRBBASACNOR3237
012013072678BBASI52     070BBAS        ON      NM000R$  000000000010900000000001090000000000109000000000010900000000001090000000000000000000000000000001000000000000004000000000000000436000000000000225002013091600000010000000000000BRBBASACNOR3237
012013072678BBASI61     070BBASE       ON      NM000R$  000000000011200000000001230000000000112000000000011800000000001230000000000000000000000000000004000000000000018000000000000002126000000000000222502013091600000010000000000000BRBBASACNOR3237
012013072678BBASJ20     070BBAS        ON      NM000R$  000000000031000000000003220000000000310000000000032000000000003220000000000000000000000000000002000000000000003600000000000001152000000000000200002013102100000010000000000000BRBBASACNOR3237
012013072678BBASJ21     070BBAS        ON      NM000R$  000000000024400000000002440000000000244000000000024400000000002440000000000000000000000000000001000000000000003000000000000000732000000000000210002013102100000010000000000000BRBBASACNOR3237
012013072678BBASJ27     070BBAS        ON      NM000R$  000000000001700000000000170000000000017000000000001700000000000170000000000007000000000000000001000000000000000100000000000000001700000000000266602013102100000010000000000000BRBBASACNOR3235
012013072682BBAST18     080BBASE       ON      NM000R$  000000000000200000000000020000000000002000000000000200000000000020000000000001000000000000000001000000000000010000000000000000020000000000000180002013081900000010000000000000BRBBASACNOR3237
012013072682BBAST21     080BBASE FM    ON      NM000R$  000000000001500000000000160000000000015000000000001500000000000150000000000006000000000002400006000000000000008000000000000000124700000000000207602013081900000010000000000000BRBBASACNOR3236
012013072682BBAST22     080BBASE FM    ON      NM000R$  000000000002900000000000370000000000029000000000003300000000000330000000000020000000000004000035000000000000074100000000000002465000000000000217602013081900000010000000000000BRBBASACNOR3236
012013072682BBAST23     080BBASE FM    ON      NM000R$  000000000006100000000000800000000000061000000000007000000000000700000000000000000000000010000080000000000000137700000000000009708700000000000227602013081900000010000000000000BRBBASACNOR3236
012013072682BBAST24     080BBASE FM    ON      NM000R$  000000000008300000000001040000000000080000000000009400000000000920000000000026000000000000000087000000000000099100000000000009373200000000000231702013081900000010000000000000BRBBASACNOR3233
012013072682BBAST26     080BBASE       ON      NM000R$  000000000032500000000003250000000000325000000000032500000000003250000000000000000000000000000002000000000000000300000000000000097500000000000256602013081900000010000000000000BRBBASACNOR3235
012013072682BBASU21     080BBASE FM    ON      NM000R$  000000000003300000000000380000000000033000000000003500000000000340000000000000000000000000000009000000000000013700000000000000486400000000000210002013091600000010000000000000BRBBASACNOR3237
012013072682BBASU22     080BBASE FM    ON      NM000R$  000000000005600000000000600000000000054000000000005600000000000540000000000000000000000000000005000000000000008900000000000000503000000000000217602013091600000010000000000000BRBBASACNOR3236
012013072682BBASU23     080BBASE FM    ON      NM000R$  000000000008700000000001000000000000087000000000009500000000000940000000000056000000000000000063000000000000051400000000000004926300000000000227602013091600000010000000000000BRBBASACNOR3236
012013072682BBASU24     080BBASE FM    ON      NM000R$  000000000013900000000001590000000000139000000000015100000000001510000000000000000000000000000015000000000000023100000000000003498400000000000237602013091600000010000000000000BRBBASACNOR3236
012013072682BBASU25     080BBASE       ON      NM000R$  000000000021600000000002160000000000216000000000021600000000002160000000000000000000000000000001000000000000003000000000000000648000000000000246602013091600000010000000000000BRBBASACNOR3235
012013072682BBASU26     080BBASE       ON      NM000R$  000000000030000000000003000000000000300000000000030000000000003000000000000000000000000000000001000000000000000100000000000000030000000000000256602013091600000010000000000000BRBBASACNOR3235
012013072682BBASV23     080BBASE       ON      NM000R$  000000000010500000000001050000000000105000000000010500000000001050000000000000000000000000000001000000000000000200000000000000021000000000000226602013102100000010000000000000BRBBASACNOR3235
012013072682BBASV24     080BBASE       ON      NM000R$  000000000015900000000001610000000000159000000000016000000000001610000000000000000000000000000002000000000000006000000000000000960000000000000237602013102100000010000000000000BRBBASACNOR3236
012013072682BBASW26     080BBASE       ON      NM000R$  000000000031300000000003130000000000313000000000031300000000003130000000000000000000000000000001000000000000000300000000000000093900000000000257602013111800000010000000000000BRBBASACNOR3236
012013072602BBDC3       010BRADESCO    ON      N1   R$  000000000317500000000031960000000003093000000000312800000000031070000000003107000000000313804342000000000001116600000000003493703000000000000000009999123100000010000000000000BRBBDCACNOR1604
012013072696BBDC3F      020BRADESCO    ON      N1   R$  000000000315200000000032230000000003100000000000313000000000031200000000003110000000000314600078000000000000001744000000000005459006000000000000009999123100000010000000000000BRBBDCACNOR1604
012013072662BBDC3T      030BRADESCO    ON      N1031R$  000000000315300000000031540000000003148000000000315100000000031490000000000000000000000000000008000000000000018300000000000057676773000000000000009999123100000010000000000000BRBBDCACNOR1604
012013072602BBDC4       010BRADESCO    PN      N1   R$  000000000287000000000028780000000002782000000000281900000000028290000000002828000000000282924054000000000008372100000000023608594300000000000000009999123100000010000000000000BRBBDCACNPR8604
012013072696BBDC4F      020BRADESCO    PN      N1   R$  000000000288300000000028830000000002783000000000282000000000028310000000002831000000000284900257000000000000006238000000000017593558000000000000009999123100000010000000000000BRBBDCACNPR8604
012013072662BBDC4T      030BRADESCO    PN      N1031R$  000000000282700000000028500000000002827000000000283800000000028500000000000000000000000000000014000000000000007100000000000020156108000000000000009999123100000010000000000000BRBBDCACNPR8604
012013072662BBDC4T      030BRADESCO    PN      N1060R$  000000000286600000000028680000000002845000000000286000000000028680000000000000000000000000000012000000000000065000000000000185905551000000000000009999123100000010000000000000BRBBDCACNPR8604
012013072678BBDCH27     070BBDC        PN      N1000R$  000000000020200000000002020000000000159000000000017700000000001920000000000000000000000027800142000000000000094700000000000016798600000000000268002013081900000010000000000000BRBBDCACNPR8602
012013072678BBDCH28     070BBDC        PN      N1000R$  000000000015000000000001500000000000090000000000010900000000001170000000000117000000000011900363000000000000401100000000000043845300000000000278002013081900000010000000000000BRBBDCACNPR8602
012013072678BBDCH29     070BBDC        PN      N1000R$  000000000007000000000000710000000000042000000000005200000000000620000000000047000000000006400594000000000001024000000000000053580000000000000288002013081900000010000000000000BRBBDCACNPR8602
012013072678BBDCH30     070BBDC        PN      N1000R$  000000000003500000000000350000000000016000000000002200000000000240000000000020000000000002700480000000000000567000000000000012871600000000000298002013081900000010000000000000BRBBDCACNPR8602
012013072678BBDCH31     070BBDC        PN      N1000R$  000000000001000000000000100000000000007000000000000800000000000090000000000005000000000001500046000000000000114900000000000000974200000000000307602013081900000010000000000000BRBBDCACNPR8600
012013072678BBDCH32     070BBDC        PN      N1000R$  000000000000300000000000030000000000003000000000000300000000000030000000000002000000000000000001000000000000000200000000000000000600000000000318002013081900000010000000000000BRBBDCACNPR8602
012013072678BBDCH33     070BBDC        PN      N1000R$  000000000000300000000000030000000000003000000000000300000000000030000000000000000000000001600002000000000000006000000000000000018000000000000327802013081900000010000000000000BRBBDCACNPR8601
012013072678BBDCH34     070BBDC        PN      N1000R$  000000000001500000000000150000000000010000000000001300000000000100000000000007000000000002900002000000000000003900000000000000053500000000000305502013081900000010000000000000BRBBDCACNPR8595
012013072678BBDCH37     070BBDC        PN      N1000R$  000000000000100000000000020000000000001000000000000100000000000010000000000000000000000000000005000000000000027000000000000000034000000000000333602013081900000010000000000000BRBBDCACNPR8597
012013072678BBDCI1      070BBDC        ON      N1000R$  000000000006500000000000650000000000065000000000006500000000000650000000000000000000000000000003000000000000040000000000000002600000000000000315002013091600000010000000000000BRBBDCACNOR1604
012013072678BBDCI26     070BBDC        PN      N1000R$  000000000028100000000002930000000000281000000000028700000000002930000000000000000000000000000002000000000000008000000000000002296000000000000260002013091600000010000000000000BRBBDCACNPR8604
012013072678BBDCI27     070BBDC        PN      N1000R$  000000000021000000000002310000000000201000000000021600000000002310000000000000000000000000000005000000000000020000000000000004334000000000000268002013091600000010000000000000BRBBDCACNPR8602
012013072678BBDCI28     070BBDC        PN      N1000R$  000000000017500000000001750000000000133000000000015300000000001600000000000000000000000022800028000000000000068800000000000010589300000000000278002013091600000010000000000000BRBBDCACNPR8602
012013072678BBDCI29     070BBDC        PN      N1000R$  000000000010400000000001040000000000084000000000009100000000001040000000000000000000000015800050000000000000098000000000000008946500000000000288002013091600000010000000000000BRBBDCACNPR8602
012013072678BBDCI30     070BBDC        PN      N1000R$  000000000006200000000000620000000000047000000000005600000000000620000000000046000000000009900101000000000000127900000000000007213300000000000298002013091600000010000000000000BRBBDCACNPR8602
012013072678BBDCI31     070BBDC        PN      N1000R$  000000000018300000000001930000000000183000000000018800000000001930000000000000000000000000000003000000000000006100000000000001146800000000000273102013091600000010000000000000BRBBDCACNPR8590
012013072678BBDCI32     070BBDC        PN      N1000R$  000000000001800000000000180000000000015000000000001700000000000180000000000010000000000003900015000000000000047800000000000000817000000000000318002013091600000010000000000000BRBBDCACNPR8602
012013072678BBDCI33     070BBDC        PN      N1000R$  000000000006400000000000640000000000064000000000006400000000000640000000000000000000000000000001000000000000004000000000000000256000000000000297402013091600000010000000000000BRBBDCACNPR8598
012013072678BBDCI68     070BBDC        ON      N1000R$  000000000037000000000003700000000000370000000000037000000000003700000000000000000000000000000001000000000000015000000000000005550000000000000280002013091600000010000000000000BRBBDCACNOR1604
012013072678BBDCI72     070BBDC        ON      N1000R$  000000000012900000000001290000000000129000000000012900000000001290000000000000000000000000000001000000000000015000000000000001935000000000000320002013091600000010000000000000BRBBDCACNOR1604
012013072678BBDCI75     070BBDCE       PN      N1000R$  000000000013300000000001330000000000124000000000013000000000001330000000000000000000000000000017000000000000014600000000000001903100000000000282502013091600000010000000000000BRBBDCACNPR8604
012013072678BBDCI81     070BBDC        PN      N1000R$  000000000003900000000000390000000000030000000000003200000000000320000000000000000000000000000035000000000000062400000000000002020800000000000308002013091600000010000000000000BRBBDCACNPR8602
012013072678BBDCJ32     070BBDC        PN      N1000R$  000000000003900000000000390000000000039000000000003900000000000390000000000000000000000000000001000000000000000200000000000000007800000000000318002013102100000010000000000000BRBBDCACNPR8602
012013072682BBDCT25     080BBDCE       PN      N1000R$  000000000001000000000000100000000000010000000000001000000000000100000000000000000000000000000001000000000000000100000000000000001000000000000248002013081900000010000000000000BRBBDCACNPR8602
012013072682BBDCT26     080BBDCE       PN      N1000R$  000000000001800000000000180000000000018000000000001800000000000180000000000000000000000003600001000000000000000700000000000000012600000000000258002013081900000010000000000000BRBBDCACNPR8602
012013072682BBDCT27     080BBDCE       PN      N1000R$  000000000002700000000000370000000000024000000000002800000000000250000000000016000000000003000137000000000000177000000000000005124900000000000268002013081900000010000000000000BRBBDCACNPR8602
012013072682BBDCT28     080BBDCE       PN      N1000R$  000000000004600000000000690000000000046000000000005800000000000490000000000000000000000006900102000000000000111100000000000006495500000000000278002013081900000010000000000000BRBBDCACNPR8602
012013072682BBDCT29     080BBDCE       PN      N1000R$  000000000008300000000001230000000000083000000000010300000000000910000000000068000000000000000066000000000000098900000000000010228800000000000288002013081900000010000000000000BRBBDCACNPR8602
012013072682BBDCT30     080BBDCE       PN      N1000R$  000000000016600000000002000000000000160000000000017400000000001600000000000000000000000000000059000000000000090400000000000015799000000000000298002013081900000010000000000000BRBBDCACNPR8602
012013072682BBDCT31     080BBDCE       PN      N1000R$  000000000025500000000002700000000000236000000000025000000000002360000000000000000000000000000005000000000000010000000000000002504000000000000307602013081900000010000000000000BRBBDCACNPR8600
012013072682BBDCT34     080BBDCE       PN      N1000R$  000000000023200000000002320000000000217000000000022100000000002170000000000000000000000000000004000000000000006900000000000001529800000000000305502013081900000010000000000000BRBBDCACNPR8595
012013072682BBDCU26     080BBDCE       PN      N1000R$  000000000003600000000000360000000000036000000000003600000000000360000000000000000000000000000001000000000000000100000000000000003600000000000260002013091600000010000000000000BRBBDCACNPR8604
012013072682BBDCU27     080BBDCE       PN      N1000R$  000000000004500000000000610000000000045000000000005400000000000470000000000000000000000000000011000000000000017900000000000000967400000000000268002013091600000010000000000000BRBBDCACNPR8602
012013072682BBDCU28     080BBDCE       PN      N1000R$  000000000008400000000000970000000000077000000000008600000000000770000000000000000000000000000016000000000000030600000000000002650800000000000278002013091600000010000000000000BRBBDCACNPR8602
012013072682BBDCU29     080BBDCE       PN      N1000R$  000000000011300000000001440000000000113000000000013100000000001200000000000000000000000000000017000000000000031300000000000004104100000000000288002013091600000010000000000000BRBBDCACNPR8602
012013072682BBDCU30     080BBDCE       PN      N1000R$  000000000016600000000002120000000000166000000000018800000000001760000000000000000000000000000044000000000000081100000000000015304300000000000298002013091600000010000000000000BRBBDCACNPR8602
012013072682BBDCU31     080BBDCE       PN      N1000R$  000000000006700000000000670000000000060000000000006500000000000600000000000000000000000000000002000000000000002500000000000000164000000000000273102013091600000010000000000000BRBBDCACNPR8590
012013072682BBDCU32     080BBDCE       PN      N1000R$  000000000034400000000003440000000000330000000000033400000000003300000000000000000000000000000003000000000000004500000000000001507000000000000318002013091600000010000000000000BRBBDCACNPR8602
012013072682BBDCU33     080BBDCE       PN      N1000R$  000000000017200000000001720000000000172000000000017200000000001720000000000000000000000000000001000000000000001000000000000000172000000000000297402013091600000010000000000000BRBBDCACNPR8598
012013072682BBDCU75     080BBDCE       PN      N1000R$  000000000011200000000001120000000000094000000000010200000000000940000000000000000000000000000002000000000000003700000000000000378400000000000282502013091600000010000000000000BRBBDCACNPR8604
012013072682BBDCU81     080BBDCE       PN      N1000R$  000000000026100000000002610000000000247000000000025400000000002470000000000000000000000000000002000000000000004000000000000001016000000000000308002013091600000010000000000000BRBBDCACNPR8602
012013072682BBDCV24     080BBDCE       PN      N1000R$  000000000002300000000000270000000000023000000000002500000000000270000000000000000000000000000003000000000000006000000000000000152000000000000240002013102100000010000000000000BRBBDCACNPR8604
012013072682BBDCV25     080BBDCE       PN      N1000R$  000000000003400000000000420000000000034000000000003700000000000410000000000000000000000004200016000000000000021200000000000000803200000000000249802013102100000010000000000000BRBBDCACNPR8603
012013072682BBDCV26     080BBDCE       PN      N1000R$  000000000005600000000000600000000000056000000000005800000000000600000000000000000000000000000005000000000000007800000000000000456800000000000260002013102100000010000000000000BRBBDCACNPR8604
012013072682BBDCV27     080BBDCE       PN      N1000R$  000000000008400000000000840000000000079000000000008000000000000810000000000000000000000000000003000000000000004000000000000000323000000000000268002013102100000010000000000000BRBBDCACNPR8602
012013072682BBDCV28     080BBDCE       PN      N1000R$  000000000003000000000000350000000000030000000000003200000000000350000000000000000000000000000008000000000000011000000000000000359000000000000246002013102100000010000000000000BRBBDCACNPR8591
012013072682BBDCV29     080BBDCE       PN      N1000R$  000000000014900000000001650000000000149000000000015700000000001650000000000000000000000000000008000000000000011600000000000001829200000000000288002013102100000010000000000000BRBBDCACNPR8602
012013072682BBDCV30     080BBDCE       PN      N1000R$  000000000020900000000002270000000000209000000000021600000000002270000000000000000000000000000005000000000000009000000000000001947000000000000298002013102100000010000000000000BRBBDCACNPR8602
012013072682BBDCX27     080BBDCE       PN      N1000R$  000000000010000000000001000000000000100000000000010000000000001000000000000000000000000000000001000000000000260000000000000026000000000000000270002013121600000010000000000000BRBBDCACNPR8604
012013072682BBDCX29     080BBDCE       PN      N1000R$  000000000018300000000001830000000000183000000000018300000000001830000000000000000000000000000001000000000000000300000000000000054900000000000288002013121600000010000000000000BRBBDCACNPR8602
012013072682BBDCX66     080BBDCE       PN      N1000R$  000000000008600000000000860000000000080000000000008300000000000800000000000000000000000000000005000000000000002700000000000000224700000000000260002013121600000010000000000000BRBBDCACNPR8604
012013072612BBFI11B     010FII BB PROGRCI      MB   R$  000000042100000000004210000000000420150000000042062800000004201500000000420151000000042949900004000000000000000016000000000006730050000000000000009999123100000010000000000000BRBBFICTF006196
012013072612BBPO11      010FII BB PRGIICI           R$  000000001130000000000113000000000011111000000001119600000000111110000000011111000000001115000147000000000000013783000000000154322498000000000000009999123100000010000000000000BRBBPOCTF003108
012013072612BBRC11      010FII BB CORP CI           R$  000000000935000000000093680000000009050000000000918900000000093000000000009200000000000930000056000000000000002416000000000022202002000000000000009999123100000010000000000000BRBBRCCTF004122
012013072602BBRK3       010BR BROKERS  ON      NM   R$  000000000059400000000006010000000000581000000000058700000000005900000000000589000000000059002183000000000000467000000000000274187400000000000000009999123100000010000000000000BRBBRKACNOR4108
012013072696BBRK3F      020BR BROKERS  ON      NM   R$  000000000058500000000005950000000000585000000000059200000000005950000000000566000000000059500003000000000000000112000000000000066304000000000000009999123100000010000000000000BRBBRKACNOR4108
012013072602BBSE3       010BBSEGURIDADEON      NM   R$  000000000180000000000018300000000001785000000000180800000000018210000000001817000000000182205723000000000002166800000000003918422600000000000000009999123100000010000000000000BRBBSEACNOR5100
012013072696BBSE3F      020BBSEGURIDADEON      NM   R$  000000000180000000000018280000000001785000000000180900000000018270000000001809000000000182700480000000000000014715000000000026630155000000000000009999123100000010000000000000BRBBSEACNOR5100
012013072602BBTG11      010BTG PACTUAL UNT          R$  000000000282300000000028290000000002788000000000280300000000027950000000002794000000000282000400000000000000075300000000000211133900000000000000009999123100000010000000000000BRBBTGUNT007104
012013072696BBTG11F     020BTG PACTUAL UNT          R$  000000000279500000000028050000000002779000000000279200000000027790000000002779000000000280600005000000000000000133000000000000371430000000000000009999123100000010000000000000BRBBTGUNT007104
012013072612BBVJ11      010FII C JARDIMCI           R$  000000000806300000000080950000000008030000000000805800000000080650000000008037000000000806500038000000000000002519000000000020298791000000000000009999123100000010000000000000BRBBVJCTF001131
012013072612BCFF11B     010FII BC FFII CI      MB   R$  000000000974100000000099900000000009700000000000977700000000099800000000009915000000000997800080000000000000006181000000000060435548000000000000009999123100000010000000000000BRBCFFCTF000140
012013072696BDLL3F      020BARDELLA    ON           R$  000000000500000000000050000000000005000000000000500000000000050000000000004400000000000000000002000000000000000008000000000000040000000000000000009999123100000010000000000000BRBDLLACNOR1149
012013072602BEEF3       010MINERVA     ON      NM   R$  000000000092600000000009300000000000896000000000090500000000009000000000000899000000000090002557000000000000841500000000000761757500000000000000009999123100000010000000000000BRBEEFACNOR6104
012013072696BEEF3F      020MINERVA     ON      NM   R$  000000000092200000000009220000000000896000000000090500000000009100000000000881000000000102200015000000000000000339000000000000306966000000000000009999123100000010000000000000BRBEEFACNOR6104
012013072610BEES1       010BANESTES    DIR ORD      R$  000000000000100000000000010000000000001000000000000100000000000010000000000000000000000000100003000000000000009900000000000000009900000000000000009999123100000010000000000000BRBEESD03OR0241
012013072696BEES1F      020BANESTES    DIR ORD      R$  000000000000100000000000010000000000001000000000000100000000000010000000000000000000000000100002000000000000000055000000000000000055000000000000009999123100000010000000000000BRBEESD03OR0241
012013072602BEES3       010BANESTES    ON           R$  000000000004700000000000480000000000047000000000004700000000000480000000000047000000000004800008000000000000022100000000000001050300000000000000009999123100000010000000000000BRBEESACNOR9242
012013072602BEES4       010BANESTES    PN           R$  000000000004500000000000450000000000045000000000004500000000000450000000000044000000000004500002000000000000000400000000000000018000000000000000009999123100000010000000000000BRBEESACNPR6167
012013072602BEMA3       010BEMATECH    ON      NM   R$  000000000075700000000007640000000000739000000000075000000000007640000000000763000000000076400242000000000000084900000000000063735600000000000000009999123100000010000000000000BRBEMAACNOR0113
012013072696BEMA3F      020BEMATECH    ON      NM   R$  000000000075900000000007590000000000759000000000075900000000007590000000000742000000000075900002000000000000000060000000000000045540000000000000009999123100000010000000000000BRBEMAACNOR0113
012013072602BGIP4       010BANESE      PN           R$  000000000490000000000049000000000004900000000000490000000000049000000000004700000000000489900001000000000000000100000000000000490000000000000000009999123100000010000000000000BRBGIPACNPR8178
012013072602BHGR3       010BHG         ON      NM   R$  000000000171000000000017100000000001670000000000168700000000016950000000001670000000000169500020000000000000004800000000000008099500000000000000009999123100000010000000000000BRBHGRACNOR9101
012013072696BHGR3F      020BHG         ON      NM   R$  000000000167600000000016760000000001676000000000167600000000016760000000001401000000000170000001000000000000000059000000000000098884000000000000009999123100000010000000000000BRBHGRACNOR9101
012013072602BICB4       010BICBANCO    PN      N1   R$  000000000040700000000004110000000000386000000000039100000000003860000000000386000000000039000296000000000000228000000000000089205600000000000000009999123100000010000000000000BRBICBACNPR7131
012013072696BICB4F      020BICBANCO    PN      N1   R$  000000000040700000000004110000000000407000000000040900000000004110000000000390000000000041000002000000000000000004000000000000001636000000000000009999123100000010000000000000BRBICBACNPR7131
012013072662BICB4T      030BICBANCO    PN      N1045R$  000000000039500000000003960000000000395000000000039500000000003960000000000000000000000000000002000000000000000500000000000000197862000000000000009999123100000010000000000000BRBICBACNPR7131
012013072662BICB4T      030BICBANCO    PN      N1060R$  000000000039400000000003950000000000394000000000039400000000003950000000000000000000000000000002000000000000002000000000000000788036000000000000009999123100000010000000000000BRBICBACNPR7131
012013072602BIOM4       010BIOMM       PN           R$  000000000085000000000008750000000000850000000000085800000000008750000000000875000000000089000002000000000000003000000000000002575000000000000000009999123100000010000000000000BRBIOMACNPR9101
012013072602BISA3       010BROOKFIELD  ON      NM   R$  000000000018000000000001820000000000175000000000017800000000001790000000000178000000000017902747000000000005092900000000000911460300000000000000009999123100000010000000000000BRBISAACNOR8109
012013072696BISA3F      020BROOKFIELD  ON      NM   R$  000000000017100000000001810000000000171000000000017500000000001810000000000175000000000017900008000000000000000287000000000000050498000000000000009999123100000010000000000000BRBISAACNOR8109
012013072662BISA3T      030BROOKFIELD  ON      NM017R$  000000000018000000000001810000000000180000000000018000000000001810000000000000000000000000000002000000000000001900000000000000343402000000000000009999123100000010000000000000BRBISAACNOR8109
012013072662BISA3T      030BROOKFIELD  ON      NM031R$  000000000018200000000001830000000000182000000000018200000000001830000000000000000000000000000002000000000000375000000000000068380669000000000000009999123100000010000000000000BRBISAACNOR8109
012013072662BISA3T      030BROOKFIELD  ON      NM090R$  000000000018100000000001820000000000181000000000018100000000001820000000000000000000000000000002000000000000175000000000000031754310000000000000009999123100000010000000000000BRBISAACNOR8109
012013072662BISA3T      030BROOKFIELD  ON      NM180R$  000000000019000000000001910000000000190000000000019000000000001910000000000000000000000000000002000000000000000500000000000000095025000000000000009999123100000010000000000000BRBISAACNOR8109
012013072612BJRC11      010FII JS RECIMCI           R$  000000008110100000000899000000000080456000000008328600000000807010000000080701000000008500000034000000000000000436000000000036313037000000000000009999123100000010000000000000BRBJRCCTF007108
012013072602BMEB4       010MERC BRASIL PN           R$  000000000113000000000011300000000001130000000000113000000000011300000000001020000000000113000006000000000000001200000000000001356000000000000000009999123100000010000000000000BRBMEBACNPR5190
012013072602BMIN4       010MERC INVEST PN           R$  000000000002300000000000230000000000023000000000002300000000000230000000000022000000000002400002000000000000002000000000000000046000000000000000009999123100000010000000000000BRBMINACNPR1159
012013072612BMLC11B     010FII BMBRC LCCI      MB   R$  000000001170000000000117000000000011600000000001167600000000117000000000011629000000001172000016000000000000001292000000000015085694000000000000009999123100000010000000000000BRBMLCCTF004117
012013072602BMTO4       010BRASMOTOR   PN           R$  000000000008800000000000880000000000088000000000008800000000000880000000000085000000000008800009000000000000254000000000000022352000000000000000009999123100000010000000000000BRBMTOACNPR6065
012013072602BOBR4       010BOMBRIL     PN           R$  000000000069700000000006970000000000697000000000069700000000006970000000000657000000000069800001000000000000000100000000000000069700000000000000009999123100000010000000000000BRBOBRACNPR3127
012013072602BOEI11B     010BOEING      DRN     MB   R$  000000002412500000000241250000000024125000000002412500000000241250000000021000000000002600000001000000000000000200000000000004825000000000000000009999123100000010000000000000BRBOEIBDR003105
012013072614BOVA11      010ISHARES BOVACI           R$  000000000480000000000048490000000004768000000000481700000000048490000000004849000000000485005389000000000001830640000000008819932830000000000000009999123100000010000000000000BRBOVACTF003101
012013072696BOVA11F     020ISHARES BOVACI           R$  000000000481400000000048270000000004800000000000481200000000048150000000004824000000000485100007000000000000000010000000000000048129000000000000009999123100000010000000000000BRBOVACTF003101
012013072612BPFF11      010FII ABSOLUTOCI           R$  000000000903800000000090380000000008800000000000899600000000088000000000008800000000000899300011000000000000010808000000000097232833000000000000009999123100000010000000000000BRBPFFCTF002103
012013072602BPHA3       010BR PHARMA   ON      NM   R$  000000000100000000000010200000000000970000000000098600000000009850000000000985000000000098802554000000000002500300000000002467075200000000000000009999123100000010000000000000BRBPHAACNOR6102
012013072696BPHA3F      020BR PHARMA   ON      NM   R$  000000000099000000000009980000000000981000000000098300000000009980000000000981000000000102900003000000000000000120000000000000118031000000000000009999123100000010000000000000BRBPHAACNOR6102
012013072602BPNM4       010PANAMERICANOPN      N1   R$  000000000057200000000005890000000000569000000000058300000000005840000000000584000000000058500380000000000000260500000000000151879700000000000000009999123100000010000000000000BRBPNMACNPR6111
012013072696BPNM4F      020PANAMERICANOPN      N1   R$  000000000052500000000005840000000000525000000000056900000000005840000000000571000000000059900006000000000000000174000000000000099052000000000000009999123100000010000000000000BRBPNMACNPR6111
012013072602BRAP3       010BRADESPAR   ON      N1   R$  000000000192900000000019290000000001885000000000189400000000018950000000001895000000000191000070000000000000017200000000000032593200000000000000009999123100000010000000000000BRBRAPACNOR5124
012013072696BRAP3F      020BRADESPAR   ON      N1   R$  000000000192400000000019240000000001924000000000192400000000019240000000001895000000000192300005000000000000000012000000000000023088000000000000009999123100000010000000000000BRBRAPACNOR5124
012013072662BRAP3T      030BRADESPAR   ON      N1090R$  000000000192400000000019300000000001924000000000192700000000019300000000000000000000000000000004000000000000001200000000000002312792000000000000009999123100000010000000000000BRBRAPACNOR5124
012013072602BRAP4       010BRADESPAR   PN      N1   R$  000000000228800000000023210000000002254000000000229900000000023210000000002321000000000232303657000000000001175800000000002704094200000000000000009999123100000010000000000000BRBRAPACNPR2124
012013072696BRAP4F      020BRADESPAR   PN      N1   R$  000000000229000000000023300000000002260000000000229000000000023300000000002305000000000232500041000000000000000882000000000002020399000000000000009999123100000010000000000000BRBRAPACNPR2124
012013072662BRAP4T      030BRADESPAR   PN      N1090R$  000000000235200000000023630000000002352000000000235700000000023600000000000000000000000000000016000000000000352600000000000831354444000000000000009999123100000010000000000000BRBRAPACNPR2124
012013072614BRAX11      010ISHARES BRAXCI           R$  000000000397600000000039760000000003929000000000396000000000039750000000003950000000000400000065000000000000018790000000000074414460000000000000009999123100000010000000000000BRBRAXCTF002100
012013072612BRCR11      010FII BC FUND CI           R$  000000001330000000000135000000000013300000000001341500000000134030000000013403000000001344800520000000000000062223000000000834739527000000000000009999123100000010000000000000BRBRCRCTF000131
012013072602BRFS3       010BRF SA      ON      NM   R$  000000000482900000000048530000000004770000000000480100000000048090000000004808000000000480904481000000000001509600000000007248791300000000000000009999123100000010000000000000BRBRFSACNOR8110
012013072696BRFS3F      020BRF SA      ON      NM   R$  000000000484000000000048420000000004771000000000480500000000048050000000004775000000000480500060000000000000001557000000000007481812000000000000009999123100000010000000000000BRBRFSACNOR8110
012013072662BRFS3T      030BRF SA      ON      NM031R$  000000000481000000000048110000000004810000000000481000000000048110000000000000000000000000000004000000000000000400000000000001924196000000000000009999123100000010000000000000BRBRFSACNOR8110
012013072678BRFSH50     070BRFS        ON      NM000R$  000000000006000000000000660000000000060000000000006200000000000650000000000000000000000007400006000000000000004000000000000000251200000000000500002013081900000010000000000000BRBRFSACNOR8110
012013072678BRFSH78     070BRFS        ON      NM000R$  000000000008300000000000860000000000083000000000008300000000000860000000000000000000000012000005000000000000021200000000000001765200000000000480002013081900000010000000000000BRBRFSACNOR8110
012013072678BRFSJ75     070BRFS        ON      NM000R$  000000000008100000000000810000000000080000000000008000000000000800000000000000000000000000000002000000000000001200000000000000096100000000000515002013102100000010000000000000BRBRFSACNOR8110
012013072682BRFSV45     080BRFSE       ON      NM000R$  000000000003700000000000370000000000037000000000003700000000000370000000000000000000000000000001000000000000001200000000000000044400000000000450002013102100000010000000000000BRBRFSACNOR8110
012013072682BRFSV48     080BRFSE       ON      NM000R$  000000000015400000000001540000000000153000000000015300000000001530000000000000000000000000000002000000000000001200000000000000184300000000000480002013102100000010000000000000BRBRFSACNOR8110
012013072602BRGE12      010ALFA CONSORCPNF          R$  000000000033800000000003380000000000338000000000033800000000003380000000000338000000000049900003000000000000002000000000000000676000000000000000009999123100000010000000000000BRBRGEACNPF8090
012013072602BRGE3       010ALFA CONSORCON           R$  000000000037600000000003760000000000376000000000037600000000003760000000000376000000000050000005000000000000001300000000000000488800000000000000009999123100000010000000000000BRBRGEACNOR6196
012013072602BRIN3       010BR INSURANCEON      NM   R$  000000000211800000000021460000000002106000000000213600000000021400000000002140000000000214100645000000000000435400000000000930379900000000000000009999123100000010000000000000BRBRINACNOR3105
012013072696BRIN3F      020BR INSURANCEON      NM   R$  000000000211300000000021400000000002113000000000213600000000021400000000002111000000000214400005000000000000000031000000000000066234000000000000009999123100000010000000000000BRBRINACNOR3105
012013072602BRIV3       010ALFA INVEST ON           R$  000000000064800000000006480000000000648000000000064800000000006480000000000646000000000069900001000000000000003300000000000002138400000000000000009999123100000010000000000000BRBRIVACNOR6196
012013072602BRIV4       010ALFA INVEST PN           R$  000000000057500000000006040000000000575000000000058900000000006040000000000550000000000060500002000000000000000200000000000000117900000000000000009999123100000010000000000000BRBRIVACNPR3196
012013072602BRKM3       010BRASKEM     ON      N1   R$  000000000117000000000011700000000001120000000000114700000000011500000000001142000000000115900047000000000000013200000000000015143700000000000000009999123100000010000000000000BRBRKMACNOR1110
012013072602BRKM5       010BRASKEM     PNA     N1   R$  000000000173500000000017350000000001672000000000170100000000017080000000001708000000000171506460000000000001420600000000002418047300000000000000009999123100000010000000000000BRBRKMACNPA4110
012013072696BRKM5F      020BRASKEM     PNA     N1   R$  000000000171000000000017270000000001672000000000169300000000017130000000001672000000000170800028000000000000000872000000000001477123000000000000009999123100000010000000000000BRBRKMACNPA4110
012013072602BRML3       010BR MALLS PARON      NM   R$  000000000204500000000021140000000002041000000000206900000000021140000000002100000000000211405721000000000001747300000000003615493600000000000000009999123100000010000000000000BRBRMLACNOR9105
012013072696BRML3F      020BR MALLS PARON      NM   R$  000000000206000000000021000000000002045000000000207300000000021000000000002045000000000210000041000000000000001173000000000002434663000000000000009999123100000010000000000000BRBRMLACNOR9105
012013072602BRPR3       010BR PROPERT  ON      NM   R$  000000000191500000000019610000000001903000000000193900000000019610000000001945000000000196104979000000000000951100000000001844815600000000000000009999123100000010000000000000BRBRPRACNOR9112
012013072696BRPR3F      020BR PROPERT  ON      NM   R$  000000000191000000000019500000000001901000000000193100000000019020000000001901000000000195000036000000000000001125000000000002172427000000000000009999123100000010000000000000BRBRPRACNOR9112
012013072602BRSR6       010BANRISUL    PNB     N1   R$  000000000148700000000015000000000001463000000000148100000000014910000000001491000000000149602976000000000000619700000000000917827100000000000000009999123100000010000000000000BRBRSRACNPB4133
012013072696BRSR6F      020BANRISUL    PNB     N1   R$  000000000148200000000014850000000001466000000000148000000000014850000000001465000000000155400012000000000000000360000000000000532922000000000000009999123100000010000000000000BRBRSRACNPB4133
012013072602BSEV3       010BIOSEV      ON      NM   R$  000000000121100000000012170000000001203000000000120800000000012170000000001190000000000121600008000000000000001900000000000002295300000000000000009999123100000010000000000000BRBSEVACNOR3100
012013072602BTOW3       010B2W DIGITAL ON      NM   R$  000000000117500000000012170000000001146000000000118100000000012170000000001208000000000121701202000000000000532800000000000629668300000000000000009999123100000010000000000000BRBTOWACNOR8105
012013072696BTOW3F      020B2W DIGITAL ON      NM   R$  000000000116000000000012190000000001100000000000118000000000012190000000001160000000000121000036000000000000001156000000000001364438000000000000009999123100000010000000000000BRBTOWACNOR8105
012013072602BVMF3       010BMFBOVESPA  ON      NM   R$  000000000125000000000012790000000001240000000000126600000000012750000000001275000000000127618653000000000008690600000000011006021300000000000000009999123100000010000000000000BRBVMFACNOR3125
012013072696BVMF3F      020BMFBOVESPA  ON      NM   R$  000000000125200000000012780000000001242000000000126000000000012550000000001255000000000127200106000000000000003858000000000004866726000000000000009999123100000010000000000000BRBVMFACNOR3125
012013072662BVMF3T      030BMFBOVESPA  ON      NM017R$  000000000127800000000012790000000001278000000000127800000000012790000000000000000000000000000002000000000000000400000000000000511536000000000000009999123100000010000000000000BRBVMFACNOR3125
012013072662BVMF3T      030BMFBOVESPA  ON      NM090R$  000000000127800000000013010000000001278000000000129700000000013000000000000000000000000000000016000000000000218000000000000282771535000000000000009999123100000010000000000000BRBVMFACNOR3125
012013072662BVMF3T      030BMFBOVESPA  ON      NM122R$  000000000128100000000012820000000001281000000000128100000000012820000000000000000000000000000002000000000000002000000000000002563448000000000000009999123100000010000000000000BRBVMFACNOR3125
012013072678BVMFH1      070BVMFE       ON      NM000R$  000000000001000000000000170000000000010000000000001500000000000170000000000004000000000000000003000000000000011300000000000000179500000000000132502013081900000010000000000000BRBVMFACNOR3125
012013072678BVMFH11     070BVMF        ON      NM000R$  000000000016300000000001840000000000163000000000017100000000001840000000000131000000000018700034000000000000015400000000000002634000000000000110002013081900000010000000000000BRBVMFACNOR3125
012013072678BVMFH12     070BVMF  FM    ON      NM000R$  000000000008100000000000980000000000073000000000008700000000000880000000000020000000000009300365000000000000461900000000000040313800000000000120002013081900000010000000000000BRBVMFACNOR3125
012013072678BVMFH13     070BVMF  FM    ON      NM000R$  000000000002400000000000350000000000019000000000002900000000000300000000000030000000000003600262000000000000508900000000000015067600000000000128902013081900000010000000000000BRBVMFACNOR3124
012013072678BVMFH14     070BVMF  FM    ON      NM000R$  000000000000300000000000050000000000002000000000000300000000000040000000000003000000000000400064000000000002804000000000000011128900000000000138902013081900000010000000000000BRBVMFACNOR3124
012013072678BVMFH15     070BVMF        ON      NM000R$  000000000000100000000000010000000000001000000000000100000000000010000000000000000000000000100002000000000000016000000000000000016000000000000150002013081900000010000000000000BRBVMFACNOR3125
012013072678BVMFH40     070BVMF        ON      NM000R$  000000000022800000000002280000000000228000000000022800000000002280000000000000000000000000000001000000000000075000000000000017100000000000000105002013081900000010000000000000BRBVMFACNOR3125
012013072678BVMFH41     070BVMF        ON      NM000R$  000000000011900000000001380000000000119000000000012800000000001380000000000000000000000000000002000000000000007000000000000000899500000000000115002013081900000010000000000000BRBVMFACNOR3125
012013072678BVMFH42     070BVMF  FM    ON      NM000R$  000000000004600000000000570000000000043000000000005000000000000560000000000041000000000006100026000000000000066800000000000003361000000000000125002013081900000010000000000000BRBVMFACNOR3125
012013072678BVMFH43     070BVMF  FM    ON      NM000R$  000000000000600000000000120000000000006000000000001100000000000090000000000005000000000001300019000000000001646300000000000019578900000000000135002013081900000010000000000000BRBVMFACNOR3125
012013072678BVMFI11     070BVMF        ON      NM000R$  000000000019200000000001920000000000192000000000019200000000001920000000000000000000000000000002000000000000000200000000000000038400000000000110002013091600000010000000000000BRBVMFACNOR3125
012013072678BVMFI12     070BVMF  FM    ON      NM000R$  000000000009700000000001140000000000092000000000010300000000001120000000000070000000000000000041000000000000074300000000000007685000000000000120002013091600000010000000000000BRBVMFACNOR3125
012013072678BVMFI13     070BVMF  FM    ON      NM000R$  000000000004100000000000510000000000036000000000004400000000000460000000000037000000000000000036000000000000111600000000000004948600000000000130002013091600000010000000000000BRBVMFACNOR3125
012013072678BVMFI14     070BVMF  FM    ON      NM000R$  000000000001200000000000170000000000012000000000001400000000000150000000000004000000000001700022000000000000041900000000000000597000000000000140002013091600000010000000000000BRBVMFACNOR3125
012013072678BVMFI42     070BVMF  FM    ON      NM000R$  000000000006600000000000790000000000066000000000007400000000000780000000000000000000000000000014000000000000035800000000000002654800000000000125002013091600000010000000000000BRBVMFACNOR3125
012013072678BVMFI43     070BVMF  FM    ON      NM000R$  000000000002500000000000310000000000024000000000002600000000000310000000000005000000000000000013000000000000030400000000000000810300000000000135002013091600000010000000000000BRBVMFACNOR3125
012013072678BVMFJ13     070BVMF        ON      NM000R$  000000000007300000000000770000000000073000000000007500000000000770000000000000000000000000000004000000000000301800000000000022931400000000000130002013102100000010000000000000BRBVMFACNOR3125
012013072678BVMFJ15     070BVMF        ON      NM000R$  000000000001000000000000100000000000010000000000001000000000000100000000000010000000000001500001000000000000001500000000000000015000000000000150002013102100000010000000000000BRBVMFACNOR3125
012013072678BVMFJ41     070BVMF        ON      NM000R$  000000000017100000000001710000000000171000000000017100000000001710000000000000000000000000000001000000000000004200000000000000718200000000000115002013102100000010000000000000BRBVMFACNOR3125
012013072678BVMFJ42     070BVMF        ON      NM000R$  000000000008300000000001010000000000083000000000009300000000001010000000000000000000000000000006000000000000020800000000000001938800000000000125002013102100000010000000000000BRBVMFACNOR3125
012013072678BVMFK13     070BVMF        ON      NM000R$  000000000008000000000000800000000000080000000000008000000000000800000000000000000000000000000002000000000000003200000000000000256000000000000130002013111800000010000000000000BRBVMFACNOR3125
012013072678BVMFK14     070BVMF        ON      NM000R$  000000000004500000000000450000000000045000000000004500000000000450000000000000000000000000000001000000000000000800000000000000036000000000000140002013111800000010000000000000BRBVMFACNOR3125
012013072678BVMFL14     070BVMF        ON      NM000R$  000000000006200000000000620000000000062000000000006200000000000620000000000000000000000000000001000000000000001800000000000000111600000000000138902013121600000010000000000000BRBVMFACNOR3124
012013072678BVMFL2      070BVMF        ON      NM000R$  000000000016300000000001630000000000163000000000016300000000001630000000000000000000000000000001000000000000001000000000000000163000000000000118902013121600000010000000000000BRBVMFACNOR3124
012013072682BVMFQ73     080BVMFE       ON      NM000R$  000000000010100000000001010000000000101000000000010100000000001010000000000000000000000000000001000000000000016800000000000001696800000000000128902014051900000010000000000000BRBVMFACNOR3124
012013072682BVMFR63     080BVMFE       ON      NM000R$  000000000010800000000001080000000000108000000000010800000000001080000000000000000000000000000001000000000000026200000000000002829600000000000130002014061600000010000000000000BRBVMFACNOR3125
012013072682BVMFT11     080BVMFE       ON      NM000R$  000000000000600000000000070000000000006000000000000600000000000060000000000004000000000000600035000000000000021000000000000000127000000000000110002013081900000010000000000000BRBVMFACNOR3125
012013072682BVMFT12     080BVMFE FM    ON      NM000R$  000000000002000000000000240000000000015000000000001800000000000160000000000016000000000003000048000000000000043700000000000000813300000000000120002013081900000010000000000000BRBVMFACNOR3125
012013072682BVMFT13     080BVMFE FM    ON      NM000R$  000000000005300000000000560000000000041000000000004400000000000440000000000000000000000008900029000000000002592300000000000114213300000000000128902013081900000010000000000000BRBVMFACNOR3124
012013072682BVMFT14     080BVMFE       ON      NM000R$  000000000013300000000001330000000000110000000000011800000000001160000000000000000000000000000019000000000000022700000000000002698400000000000138902013081900000010000000000000BRBVMFACNOR3124
012013072682BVMFT42     080BVMFE FM    ON      NM000R$  000000000003600000000000360000000000028000000000003100000000000280000000000000000000000000000007000000000000016000000000000000498300000000000125002013081900000010000000000000BRBVMFACNOR3125
012013072682BVMFT43     080BVMFE       ON      NM000R$  000000000009800000000000980000000000078000000000008500000000000830000000000000000000000015000009000000000000026000000000000002233000000000000135002013081900000010000000000000BRBVMFACNOR3125
012013072682BVMFT61     080BVMFE       ON      NM000R$  000000000001400000000000140000000000014000000000001400000000000140000000000000000000000000000001000000000001600000000000000022400000000000000117502013081900000010000000000000BRBVMFACNOR3125
012013072682BVMFT62     080BVMFE       ON      NM000R$  000000000002000000000000220000000000020000000000002000000000000210000000000000000000000000000004000000000004155800000000000084717600000000000122502013081900000010000000000000BRBVMFACNOR3125
012013072682BVMFU12     080BVMFE FM    ON      NM000R$  000000000003300000000000340000000000028000000000003200000000000280000000000027000000000003900038000000000000039800000000000001296600000000000120002013091600000010000000000000BRBVMFACNOR3125
012013072682BVMFU13     080BVMFE FM    ON      NM000R$  000000000007600000000000820000000000066000000000007300000000000660000000000052000000000000000008000000000000019200000000000001419900000000000130002013091600000010000000000000BRBVMFACNOR3125
012013072682BVMFU41     080BVMFE FM    ON      NM000R$  000000000001800000000000180000000000018000000000001800000000000180000000000000000000000000000001000000000000002100000000000000037800000000000115002013091600000010000000000000BRBVMFACNOR3125
012013072682BVMFU42     080BVMFE FM    ON      NM000R$  000000000005600000000000560000000000043000000000004900000000000430000000000000000000000000000005000000000000016600000000000000816600000000000125002013091600000010000000000000BRBVMFACNOR3125
012013072682BVMFV12     080BVMFE       ON      NM000R$  000000000004400000000000440000000000044000000000004400000000000440000000000000000000000000000002000000000000005000000000000000220000000000000120002013102100000010000000000000BRBVMFACNOR3125
012013072682BVMFW12     080BVMFE       ON      NM000R$  000000000005000000000000500000000000050000000000005000000000000500000000000000000000000000000001000000000000001400000000000000070000000000000120002013111800000010000000000000BRBVMFACNOR3125
012013072682BVMFW13     080BVMFE       ON      NM000R$  000000000008300000000000830000000000083000000000008300000000000830000000000000000000000000000001000000000000001800000000000000149400000000000130002013111800000010000000000000BRBVMFACNOR3125
012013072602CARD3       010CSU CARDSYSTON      NM   R$  000000000033300000000003340000000000325000000000032900000000003300000000000327000000000033000019000000000000026700000000000008792400000000000000009999123100000010000000000000BRCARDACNOR9105
012013072662CARD3T      030CSU CARDSYSTON      NM090R$  000000000033800000000003390000000000338000000000033800000000003390000000000000000000000000000002000000000000005000000000000001692370000000000000009999123100000010000000000000BRCARDACNOR9105
012013072602CBEE3       010AMPLA ENERG ON *         R$  000000000012200000000001220000000000122000000000012200000000001220000000000114000000000012300002000000000005200000000000000000634400000000000000009999123100010000000000000000BRCBEEACNOR3149
012013072662CBEE3T      030AMPLA ENERG ON *      090R$  000000000012400000000001250000000000124000000000012400000000001250000000000000000000000000000002000000000005000000000000000000621895000000000000009999123100010000000000000000BRCBEEACNOR3149
012013072602CBMA4       010COBRASMA    PN           R$  000000000000600000000000060000000000005000000000000500000000000050000000000005000000000000600010000000000000190000000000000000970000000000000000009999123100000010000000000000BRCBMAACNPR1124
012013072696CBMA4F      020COBRASMA    PN           R$  000000000000500000000000050000000000005000000000000500000000000050000000000004000000000000600001000000000000003999000000000000019995000000000000009999123100000010000000000000BRCBMAACNPR1124
012013072608CCHI3       010CHIARELLI   ON           R$  000000000002900000000000300000000000029000000000002900000000000300000000000029000000000003000036000000000000620000000000000018150000000000000000009999123100000010000000000000BRCCHIACNOR5123
012013072696CCHI3F      020CHIARELLI   ON           R$  000000000002900000000000290000000000029000000000002900000000000290000000000028000000000003100001000000000000007000000000000000203000000000000000009999123100000010000000000000BRCCHIACNOR5123
012013072696CCHI4F      020CHIARELLI   PN           R$  000000000002300000000000230000000000021000000000002100000000000210000000000019000000000002500002000000000000002000000000000000042600000000000000009999123100000010000000000000BRCCHIACNPR2122
012013072602CCPR3       010CYRE COM-CCPON      NM   R$  000000000200100000000020180000000002000000000000200600000000020180000000002018000000000205000008000000000000000900000000000001805600000000000000009999123100000010000000000000BRCCPRACNOR9107
012013072602CCRO3       010CCR SA      ON      NM   R$  000000000177600000000017970000000001765000000000178100000000017850000000001785000000000178606061000000000002675100000000004765392400000000000000009999123100000010000000000000BRCCROACNOR2122
012013072696CCRO3F      020CCR SA      ON      NM   R$  000000000175200000000017990000000001752000000000177600000000017970000000001785000000000179800040000000000000001515000000000002692494000000000000009999123100000010000000000000BRCCROACNOR2122
012013072602CCXC3       010CCX CARVAO  ON      NM   R$  000000000010200000000001040000000000099000000000010100000000001010000000000100000000000010100266000000000001170200000000000118310900000000000000009999123100000010000000000000BRCCXCACNOR5100
012013072696CCXC3F      020CCX CARVAO  ON      NM   R$  000000000010500000000001080000000000098000000000010200000000001020000000000098000000000010200005000000000000000010000000000000001025000000000000009999123100000010000000000000BRCCXCACNOR5100
012013072662CCXC3T      030CCX CARVAO  ON      NM060R$  000000000010300000000001040000000000101000000000010300000000001020000000000000000000000000000008000000000000270000000000000027817425000000000000009999123100000010000000000000BRCCXCACNOR5100
012013072602CEBR5       010CEB         PNA          R$  000000000230000000000023020000000002300000000000230100000000023020000000000000000000000251700003000000000000007000000000000016112200000000000000009999123100000010000000000000BRCEBRACNPA8113
012013072662CEBR5T      030CEB         PNA       180R$  000000000241700000000024180000000002417000000000241700000000024180000000000000000000000000000002000000000000006100000000000014744310000000000000009999123100000010000000000000BRCEBRACNPA8113
012013072696CEDO3F      020CEDRO       ON      N1   R$  000000000090000000000010010000000000900000000000095100000000010010000000000000000000000120000002000000000000000074000000000000070438000000000000009999123100000010000000000000BRCEDOACNOR8094
012013072612CEOC11B     010FII CEO CCP CI      MB   R$  000000000910000000000091640000000008894000000000901900000000091000000000009000000000000910000045000000000000003764000000000033949787000000000000009999123100000010000000000000BRCEOCCTF003108
012013072602CESP3       010CESP        ON      N1   R$  000000000165100000000016840000000001651000000000167600000000016840000000001660000000000168500005000000000000000900000000000001508900000000000000009999123100000010000000000000BRCESPACNOR3159
012013072602CESP6       010CESP        PNB     N1   R$  000000000209300000000020930000000002065000000000206800000000020650000000002065000000000207102204000000000000416100000000000860899100000000000000009999123100000010000000000000BRCESPACNPB4118
012013072696CESP6F      020CESP        PNB     N1   R$  000000000212000000000021300000000002062000000000207200000000021300000000002061000000000212600010000000000000000211000000000000437727000000000000009999123100000010000000000000BRCESPACNPB4118
012013072662CESP6T      030CESP        PNB     N1017R$  000000000207900000000020800000000002079000000000207900000000020800000000000000000000000000000002000000000000001200000000000002495848000000000000009999123100000010000000000000BRCESPACNPB4118
012013072602CGAS3       010COMGAS      ON           R$  000000000505000000000050500000000005050000000000505000000000050500000000004900000000000515000002000000000000002600000000000013130000000000000000009999123100000010000000000000BRCGASACNOR0132
012013072602CGAS5       010COMGAS      PNA          R$  000000000551900000000055750000000005493000000000555300000000055690000000005569000000000557700059000000000000037600000000000208808500000000000000009999123100000010000000000000BRCGASACNPA3129
012013072696CGAS5F      020COMGAS      PNA          R$  000000000556900000000055700000000005540000000000555600000000055400000000005531000000000561400007000000000000000218000000000001211281000000000000009999123100000010000000000000BRCGASACNPA3129
012013072602CGRA3       010GRAZZIOTIN  ON           R$  000000000147700000000014980000000001439000000000146200000000014430000000001443000000000149500022000000000000004700000000000006871700000000000000009999123100000010000000000000BRCGRAACNOR2061
012013072602CGRA4       010GRAZZIOTIN  PN           R$  000000000156100000000016050000000001559000000000157900000000015590000000001559000000000158000048000000000000019600000000000030954200000000000000009999123100000010000000000000BRCGRAACNPR9061
012013072602CIEL3       010CIELO       ON      NM   R$  000000000552500000000056150000000005493000000000556800000000055640000000005564000000000558003337000000000000724600000000004034949700000000000000009999123100000010000000000000BRCIELACNOR3111
012013072696CIEL3F      020CIELO       ON      NM   R$  000000000557000000000056120000000005503000000000556400000000055990000000005569000000000559900115000000000000002940000000000016357839000000000000009999123100000010000000000000BRCIELACNOR3111
012013072602CIQU3       010CACIQUE     ON           R$  000000000065000000000006500000000000650000000000065000000000006500000000000601000000000000000001000000000000000100000000000000065000000000000000009999123100000010000000000000BRCIQUACNOR8157
012013072602CLSC4       010CELESC      PN      N2   R$  000000000192000000000019500000000001920000000000192900000000019450000000001930000000000194500029000000000000005600000000000010804300000000000000009999123100000010000000000000BRCLSCACNPR3107
012013072602CMIG3       010CEMIG       ON      N1   R$  000000000221800000000022260000000002181000000000220500000000022000000000002187000000000220000314000000000000111600000000000246092100000000000000009999123100000010000000000000BRCMIGACNOR6208
012013072696CMIG3F      020CEMIG       ON      N1   R$  000000000220000000000022300000000002156000000000219600000000021900000000002181000000000224700037000000000000000786000000000001726434000000000000009999123100000010000000000000BRCMIGACNOR6208
012013072602CMIG4       010CEMIG       PN      N1   R$  000000000217700000000021920000000002152000000000217000000000021640000000002162000000000216406365000000000002326500000000005049812600000000000000009999123100000010000000000000BRCMIGACNPR3208
012013072696CMIG4F      020CEMIG       PN      N1   R$  000000000217900000000021930000000002130000000000217500000000021560000000002156000000000218500098000000000000002810000000000006111351000000000000009999123100000010000000000000BRCMIGACNPR3208
012013072662CMIG4T      030CEMIG       PN      N1090R$  000000000220600000000022070000000002206000000000220600000000022070000000000000000000000000000002000000000000001000000000000002206198000000000000009999123100000010000000000000BRCMIGACNPR3208
012013072612CNES11B     010FII CENESP  CI  ER  MB   R$  000000001273000000000127500000000012600000000001262500000000126000000000012600000000001270000010000000000000000729000000000009204245000000000000009999123100000010000000000000BRCNESCTF001124
012013072602COCE3       010COELCE      ON           R$  000000000426000000000043390000000004260000000000427300000000043390000000003890000000000434000002000000000000000600000000000002563900000000000000009999123100000010000000000000BRCOCEACNOR0132
012013072602COCE5       010COELCE      PNA          R$  000000000425400000000043700000000004093000000000419600000000041790000000004142000000000418000132000000000000029700000000000124626800000000000000009999123100000010000000000000BRCOCEACNPA3133
012013072696COCE5F      020COELCE      PNA          R$  000000000422000000000042370000000004100000000000419400000000041000000000004101000000000432000009000000000000000159000000000000666963000000000000009999123100000010000000000000BRCOCEACNPA3133
012013072602CPFE3       010CPFL ENERGIAON      NM   R$  000000000214100000000021730000000002122000000000213800000000021480000000002128000000000214803241000000000000603500000000001290470500000000000000009999123100000010000000000000BRCPFEACNOR0121
012013072696CPFE3F      020CPFL ENERGIAON      NM   R$  000000000215000000000021500000000002100000000000213200000000021000000000002065000000000210000018000000000000000410000000000000874556000000000000009999123100000010000000000000BRCPFEACNOR0121
012013072662CPFE3T      030CPFL ENERGIAON      NM017R$  000000000217800000000021790000000002178000000000217800000000021790000000000000000000000000000002000000000000000400000000000000871307000000000000009999123100000010000000000000BRCPFEACNOR0121
012013072602CPLE3       010COPEL       ON      N1   R$  000000000220300000000022130000000002188000000000219900000000022050000000002190000000000220500043000000000000011700000000000025728800000000000000009999123100000010000000000000BRCPLEACNOR8128
012013072602CPLE6       010COPEL       PNB     N1   R$  000000000290100000000029180000000002831000000000285400000000028550000000002855000000000285901264000000000000232300000000000663187700000000000000009999123100000010000000000000BRCPLEACNPB9125
012013072696CPLE6F      020COPEL       PNB     N1   R$  000000000289000000000029000000000002825000000000285500000000028250000000002825000000000291000032000000000000000670000000000001913263000000000000009999123100000010000000000000BRCPLEACNPB9125
012013072602CPRE3       010CPFL RENOVAVON      NM   R$  000000000115100000000011600000000001150000000000115400000000011550000000001155000000000116000021000000000000036900000000000042585400000000000000009999123100000010000000000000BRCPREACNOR5100
012013072696CPRE3F      020CPFL RENOVAVON      NM   R$  000000000115100000000011690000000001131000000000115100000000011500000000001135000000000115800017000000000000000399000000000000459555000000000000009999123100000010000000000000BRCPREACNOR5100
012013072602CRDE3       010CR2         ON      NM   R$  000000000040000000000004100000000000400000000000040800000000004050000000000405000000000041500003000000000000001200000000000000490500000000000000009999123100000010000000000000BRCRDEACNOR1108
012013072602CREM3       010CREMER      ON      NM   R$  000000000141000000000014100000000001406000000000140800000000014070000000001406000000000143000008000000000000003500000000000004929600000000000000009999123100000010000000000000BRCREMACNOR2166
012013072602CRIV3       010ALFA FINANC ON           R$  000000000055800000000005580000000000558000000000055800000000005580000000000515000000000056900001000000000000005000000000000002790000000000000000009999123100000010000000000000BRCRIVACNOR4189
012013072602CRIV4       010ALFA FINANC PN           R$  000000000047900000000004880000000000479000000000048200000000004870000000000479000000000048800005000000000000001500000000000000724300000000000000009999123100000010000000000000BRCRIVACNPR1189
012013072696CRIV4F      020ALFA FINANC PN           R$  000000000048000000000004800000000000480000000000048000000000004800000000000455000000000048000001000000000000000005000000000000002400000000000000009999123100000010000000000000BRCRIVACNPR1189
012013072602CRUZ3       010SOUZA CRUZ  ON           R$  000000000278900000000028410000000002771000000000279900000000028220000000002822000000000282502554000000000000700800000000001961969500000000000000009999123100000010000000000000BRCRUZACNOR0246
012013072696CRUZ3F      020SOUZA CRUZ  ON           R$  000000000282000000000028480000000002769000000000280400000000028210000000002772000000000285000037000000000000001105000000000003098918000000000000009999123100000010000000000000BRCRUZACNOR0246
012013072678CRUZE82     070CRUZ        ON        000R$  000000000012700000000001270000000000127000000000012700000000001270000000000000000000000000000001000000000000003400000000000000431800000000000319902014051900000010000000000000BRCRUZACNOR0245
012013072602CSAN3       010COSAN       ON      NM   R$  000000000426300000000043290000000004182000000000423300000000043250000000004315000000000432505313000000000001564700000000006625178900000000000000009999123100000010000000000000BRCSANACNOR6107
012013072696CSAN3F      020COSAN       ON      NM   R$  000000000427500000000043220000000004161000000000423200000000043200000000004210000000000432000077000000000000001950000000000008265050000000000000009999123100000010000000000000BRCSANACNOR6107
012013072662CSAN3T      030COSAN       ON      NM060R$  000000000432400000000043250000000004324000000000432400000000043250000000000000000000000000000002000000000000000700000000000003026849000000000000009999123100000010000000000000BRCSANACNOR6107
012013072678CSANI46     070CSAN        ON      NM000R$  000000000005300000000000530000000000053000000000005300000000000530000000000000000000000000000001000000000000100000000000000005300000000000000460002013091600000010000000000000BRCSANACNOR6107
012013072602CSCO11B     010CISCO       DRN     MB   R$  000000000569600000000056960000000005696000000000569600000000056960000000005100000000000630000001000000000000002100000000000011961600000000000000009999123100000010000000000000BRCSCOBDR004110
012013072602CSMG3       010COPASA      ON      NM   R$  000000000361500000000036330000000003565000000000360600000000036110000000003611000000000362201375000000000000190000000000000685192400000000000000009999123100000010000000000000BRCSMGACNOR5127
012013072696CSMG3F      020COPASA      ON      NM   R$  000000000358000000000035860000000003580000000000358300000000035830000000003600000000000437000004000000000000000129000000000000462327000000000000009999123100000010000000000000BRCSMGACNOR5127
012013072614CSMO11      010ISHARES CSMOCI           R$  000000000454900000000045490000000004549000000000454900000000045490000000003800000000000461000001000000000000000010000000000000045490000000000000009999123100000010000000000000BRCSMOCTF002100
012013072602CSNA3       010SID NACIONALON           R$  000000000068000000000007000000000000669000000000068400000000006950000000000695000000000069614787000000000012603700000000008624056500000000000000009999123100000010000000000000BRCSNAACNOR6242
012013072696CSNA3F      020SID NACIONALON           R$  000000000064400000000006990000000000644000000000068100000000006990000000000688000000000070000141000000000000003922000000000002673067000000000000009999123100000010000000000000BRCSNAACNOR6242
012013072662CSNA3T      030SID NACIONALON        017R$  000000000068200000000006830000000000682000000000068200000000006830000000000000000000000000000002000000000000005000000000000003412920000000000000009999123100000010000000000000BRCSNAACNOR6242
012013072662CSNA3T      030SID NACIONALON        031R$  000000000068300000000006850000000000683000000000068400000000006850000000000000000000000000000004000000000000006000000000000004104094000000000000009999123100000010000000000000BRCSNAACNOR6242
012013072662CSNA3T      030SID NACIONALON        060R$  000000000068400000000007000000000000684000000000068400000000007000000000000000000000000000000004000000000000061000000000000041778944000000000000009999123100000010000000000000BRCSNAACNOR6242
012013072662CSNA3T      030SID NACIONALON        122R$  000000000069000000000006910000000000690000000000069000000000006910000000000000000000000000000002000000000000001000000000000000690633000000000000009999123100000010000000000000BRCSNAACNOR6242
012013072678CSNAH6      070CSNA        ON        000R$  000000000008500000000000850000000000085000000000008500000000000850000000000048000000000000000008000000000000014000000000000001190000000000000060002013081900000010000000000000BRCSNAACNOR6242
012013072678CSNAH62     070CSNA  FM    ON        000R$  000000000006900000000000840000000000066000000000007100000000000840000000000000000000000000000005000000000000009300000000000000666200000000000062002013081900000010000000000000BRCSNAACNOR6242
012013072678CSNAH64     070CSNA  FM    ON        000R$  000000000005000000000000680000000000050000000000005800000000000680000000000000000000000000000015000000000000038900000000000002256600000000000064002013081900000010000000000000BRCSNAACNOR6242
012013072678CSNAH65     070CSNAE       ON        000R$  000000000004500000000000610000000000045000000000004900000000000610000000000000000000000000000005000000000000002600000000000000128600000000000065002013081900000010000000000000BRCSNAACNOR6242
012013072678CSNAH66     070CSNA  FM    ON        000R$  000000000004300000000000530000000000043000000000004500000000000530000000000000000000000000000014000000000000038500000000000001766500000000000066002013081900000010000000000000BRCSNAACNOR6242
012013072678CSNAH68     070CSNA  FM    ON        000R$  000000000003200000000000440000000000029000000000003600000000000420000000000029000000000006000016000000000000040300000000000001451100000000000068002013081900000010000000000000BRCSNAACNOR6242
012013072678CSNAH7      070CSNA  FM    ON        000R$  000000000002200000000000310000000000020000000000002200000000000300000000000024000000000003300079000000000000207300000000000004602200000000000070002013081900000010000000000000BRCSNAACNOR6242
012013072678CSNAH72     070CSNA        ON        000R$  000000000001400000000000140000000000013000000000001300000000000130000000000013000000000000000002000000000000003500000000000000046500000000000072002013081900000010000000000000BRCSNAACNOR6242
012013072678CSNAH74     070CSNA        ON        000R$  000000000001100000000000110000000000010000000000001000000000000100000000000000000000000000000003000000000000010000000000000000108000000000000074002013081900000010000000000000BRCSNAACNOR6242
012013072678CSNAH78     070CSNA        ON        000R$  000000000000500000000000050000000000005000000000000500000000000050000000000000000000000000000006000000000000020100000000000000100500000000000078002013081900000010000000000000BRCSNAACNOR6242
012013072678CSNAH8      070CSNA        ON        000R$  000000000000300000000000070000000000003000000000000500000000000070000000000005000000000001000013000000000000056200000000000000297800000000000080002013081900000010000000000000BRCSNAACNOR6242
012013072678CSNAI6      070CSNA        ON        000R$  000000000011000000000001100000000000110000000000011000000000001100000000000102000000000000000003000000000000002000000000000000220000000000000060002013091600000010000000000000BRCSNAACNOR6242
012013072678CSNAI62     070CSNA  FM    ON        000R$  000000000008400000000000940000000000083000000000008400000000000930000000000000000000000000000010000000000000016600000000000001396400000000000062002013091600000010000000000000BRCSNAACNOR6242
012013072678CSNAI64     070CSNA  FM    ON        000R$  000000000007000000000000710000000000070000000000007000000000000710000000000000000000000000000009000000000000021600000000000001512100000000000064002013091600000010000000000000BRCSNAACNOR6242
012013072678CSNAI66     070CSNA  FM    ON        000R$  000000000005600000000000680000000000053000000000005800000000000680000000000000000000000000000026000000000000059000000000000003465300000000000066002013091600000010000000000000BRCSNAACNOR6242
012013072678CSNAI68     070CSNA  FM    ON        000R$  000000000004500000000000590000000000040000000000004900000000000570000000000000000000000000000365000000000000587600000000000029370900000000000068002013091600000010000000000000BRCSNAACNOR6242
012013072678CSNAI7      070CSNA  FM    ON        000R$  000000000003600000000000500000000000032000000000003900000000000450000000000000000000000005000065000000000000152300000000000005962300000000000070002013091600000010000000000000BRCSNAACNOR6242
012013072678CSNAI74     070CSNA        ON        000R$  000000000002400000000000270000000000022000000000002300000000000270000000000000000000000000000003000000000000004800000000000000113600000000000074002013091600000010000000000000BRCSNAACNOR6242
012013072678CSNAI76     070CSNA        ON        000R$  000000000001600000000000170000000000016000000000001600000000000170000000000000000000000000000004000000000000008500000000000000136500000000000076002013091600000010000000000000BRCSNAACNOR6242
012013072678CSNAI8      070CSNA        ON        000R$  000000000001200000000000120000000000012000000000001200000000000120000000000000000000000000000003000000000000003500000000000000042000000000000080002013091600000010000000000000BRCSNAACNOR6242
012013072678CSNAJ6      070CSNA        ON        000R$  000000000011000000000001210000000000110000000000011100000000001210000000000000000000000000000003000000000000000700000000000000078100000000000060002013102100000010000000000000BRCSNAACNOR6242
012013072678CSNAJ62     070CSNA        ON        000R$  000000000009000000000000900000000000090000000000009000000000000900000000000000000000000000000001000000000000000300000000000000027000000000000062002013102100000010000000000000BRCSNAACNOR6242
012013072678CSNAJ7      070CSNA        ON        000R$  000000000004700000000000470000000000047000000000004700000000000470000000000000000000000000000003000000000000003200000000000000150400000000000070002013102100000010000000000000BRCSNAACNOR6242
012013072678CSNAJ78     070CSNA        ON        000R$  000000000002100000000000210000000000021000000000002100000000000210000000000000000000000000000001000000000000004000000000000000084000000000000078002013102100000010000000000000BRCSNAACNOR6242
012013072678CSNAJ8      070CSNA        ON        000R$  000000000001700000000000200000000000017000000000001700000000000200000000000000000000000000000004000000000000008500000000000000146000000000000080002013102100000010000000000000BRCSNAACNOR6242
012013072678CSNAJ82     070CSNA        ON        000R$  000000000002000000000000200000000000020000000000002000000000000200000000000000000000000000000001000000000000004000000000000000080000000000000082002013102100000010000000000000BRCSNAACNOR6242
012013072682CSNAT6      080CSNAE FM    ON        000R$  000000000000800000000000080000000000005000000000000700000000000050000000000000000000000000000004000000000000009000000000000000064000000000000060002013081900000010000000000000BRCSNAACNOR6242
012013072682CSNAT62     080CSNAE FM    ON        000R$  000000000001000000000000110000000000007000000000000900000000000110000000000000000000000000000003000000000000006800000000000000061600000000000062002013081900000010000000000000BRCSNAACNOR6242
012013072682CSNAT64     080CSNAE FM    ON        000R$  000000000001400000000000150000000000014000000000001400000000000150000000000000000000000000000008000000000000015300000000000000215200000000000064002013081900000010000000000000BRCSNAACNOR6242
012013072682CSNAT65     080CSNAE       ON        000R$  000000000001800000000000180000000000018000000000001800000000000180000000000014000000000000000033000000000000100000000000000001800000000000000065002013081900000010000000000000BRCSNAACNOR6242
012013072682CSNAT66     080CSNAE FM    ON        000R$  000000000002100000000000230000000000017000000000002000000000000170000000000000000000000000000010000000000000015300000000000000320300000000000066002013081900000010000000000000BRCSNAACNOR6242
012013072682CSNAT68     080CSNAE       ON        000R$  000000000003000000000000300000000000030000000000003000000000000300000000000000000000000000000003000000000000013000000000000000390000000000000068002013081900000010000000000000BRCSNAACNOR6242
012013072682CSNAT7      080CSNAE       ON        000R$  000000000003600000000000360000000000036000000000003600000000000360000000000000000000000000000001000000000000001000000000000000036000000000000070002013081900000010000000000000BRCSNAACNOR6242
012013072682CSNAU54     080CSNAE       ON        000R$  000000000000500000000000050000000000005000000000000500000000000050000000000000000000000000000001000000000000003900000000000000019500000000000054002013091600000010000000000000BRCSNAACNOR6242
012013072682CSNAU6      080CSNAE FM    ON        000R$  000000000001400000000000150000000000012000000000001300000000000120000000000004000000000000000020000000000000030500000000000000426000000000000060002013091600000010000000000000BRCSNAACNOR6242
012013072682CSNAU62     080CSNAE FM    ON        000R$  000000000002000000000000210000000000016000000000001900000000000160000000000000000000000000000010000000000000014000000000000000270000000000000062002013091600000010000000000000BRCSNAACNOR6242
012013072682CSNAU64     080CSNAE FM    ON        000R$  000000000002400000000000270000000000024000000000002500000000000250000000000000000000000000000005000000000000010000000000000000252000000000000064002013091600000010000000000000BRCSNAACNOR6242
012013072682CSNAU66     080CSNAE FM    ON        000R$  000000000003100000000000350000000000030000000000003200000000000300000000000000000000000000000009000000000000022500000000000000723500000000000066002013091600000010000000000000BRCSNAACNOR6242
012013072682CSNAU7      080CSNAE       ON        000R$  000000000005800000000000580000000000044000000000004900000000000440000000000044000000000007200017000000000000001700000000000000084400000000000070002013091600000010000000000000BRCSNAACNOR6242
012013072602CTAX11      010CONTAX      UNT     N2   R$  000000000178500000000017850000000001673000000000169300000000017000000000001680000000000170000065000000000000060200000000000101937300000000000000009999123100000010000000000000BRCTAXCDAM19100
012013072602CTAX3       010CONTAX      ON      N2   R$  000000000039100000000003910000000000390000000000039000000000003900000000000390000000000045500007000000000000000900000000000000351100000000000000009999123100000010000000000000BRCTAXACNOR3113
012013072602CTAX4       010CONTAX      PN      N2   R$  000000000033000000000003370000000000330000000000033200000000003350000000000333000000000033500033000000000000033500000000000011124600000000000000009999123100000010000000000000BRCTAXACNPR0114
012013072602CTIP3       010CETIP       ON      NM   R$  000000000233000000000023780000000002312000000000233600000000023780000000002355000000000237803669000000000002406000000000005621307300000000000000009999123100000010000000000000BRCTIPACNOR2119
012013072696CTIP3F      020CETIP       ON      NM   R$  000000000231100000000023940000000002311000000000233300000000023150000000002315000000000244900031000000000000000984000000000002298436000000000000009999123100000010000000000000BRCTIPACNOR2119
012013072602CTKA4       010KARSTEN     PN           R$  000000000010000000000001000000000000100000000000010000000000001000000000000096000000000010000004000000000000002500000000000000250000000000000000009999123100000010000000000000BRCTKAACNPR7041
012013072602CTNM4       010COTEMINAS   PN           R$  000000000023300000000002390000000000233000000000023300000000002330000000000233000000000023800195000000000000061100000000000014249600000000000000009999123100000010000000000000BRCTNMACNPR6128
012013072602CTSA3       010SANTANENSE  ON           R$  000000000054600000000005460000000000530000000000053800000000005450000000000545000000000054800010000000000000001300000000000000700200000000000000009999123100000010000000000000BRCTSAACNOR3051
012013072612CXCE11B     010FII CX CEDAECI      MB   R$  000000019000000000001900000000000190000000000019000000000001900000000000189000000000019500000002000000000000000010000000000001900000000000000000009999123100000010000000000000BRCXCECTF004136
012013072612CXTL11      010FII CX TRX  CI           R$  000000008000000000000800000000000080000000000008000000000000800000000000077000000000008505500002000000000000000025000000000002000000000000000000009999123100000010000000000000BRCXTLCTF003120
012013072602CYRE3       010CYRELA REALTON      NM   R$  000000000167000000000016890000000001657000000000167500000000016800000000001678000000000168004562000000000000948400000000001589470600000000000000009999123100000010000000000000BRCYREACNOR7125
012013072696CYRE3F      020CYRELA REALTON      NM   R$  000000000167400000000017350000000001660000000000167400000000017350000000001683000000000173500013000000000000000404000000000000676478000000000000009999123100000010000000000000BRCYREACNOR7125
012013072678CYREH15     070CYRE        ON      NM000R$  000000000019400000000001940000000000194000000000019400000000001940000000000000000000000000000001000000000000004000000000000000776000000000000150002013081900000010000000000000BRCYREACNOR7125
012013072678CYREH16     070CYRE  FM    ON      NM000R$  000000000010700000000001070000000000107000000000010700000000001070000000000000000000000000000001000000000000002000000000000000214000000000000160002013081900000010000000000000BRCYREACNOR7125
012013072678CYREH17     070CYRE  FM    ON      NM000R$  000000000004600000000000460000000000046000000000004600000000000460000000000000000000000000000002000000000000002900000000000000133400000000000170002013081900000010000000000000BRCYREACNOR7125
012013072678CYREH18     070CYRE  FM    ON      NM000R$  000000000001600000000000160000000000016000000000001600000000000160000000000000000000000000000001000000000000000100000000000000001600000000000180002013081900000010000000000000BRCYREACNOR7125
