00COTAHIST.2013BOVESPA 20130926                                                                                                                                                                                                                      
012013092602AAPL34      010APPLE       DRN          R$  000000001082500000000108250000000010825000000001082500000000108250000000010850000000001099000001000000000000000400000000000004330000000000000000009999123100000010000000000000BRAAPLBDR004105
012013092602ABCB4       010ABC BRASIL  PN      N2   R$  000000000125700000000012570000000001237000000000124400000000012570000000001242000000000125701159000000000000170600000000000212278800000000000000009999123100000010000000000000BRABCBACNPR4120
012013092696ABCB4F      020ABC BRASIL  PN      N2   R$  000000000125000000000012560000000001245000000000124700000000012560000000001241000000000125600004000000000000000029000000000000036185000000000000009999123100000010000000000000BRABCBACNPR4120
012013092602ABRE11      010ABRIL EDUCA UNT     N2   R$  000000000342700000000034300000000003321000000000334900000000033350000000003335000000000335400499000000000000137300000000000459913700000000000000009999123100000010000000000000BRABRECDAM15102
012013092696ABRE11F     020ABRIL EDUCA UNT     N2   R$  000000000335000000000033500000000003340000000000334200000000033450000000003200000000000349400006000000000000000158000000000000528143000000000000009999123100000010000000000000BRABRECDAM15102
012013092602AEDU3       010ANHANGUERA  ON      NM   R$  000000000136400000000013640000000001325000000000134100000000013400000000001340000000000134206239000000000002958300000000003967201000000000000000009999123100000010000000000000BRAEDUACNOR9107
012013092696AEDU3F      020ANHANGUERA  ON      NM   R$  000000000135500000000013550000000001321000000000133400000000013210000000001320000000000136100016000000000000000563000000000000751334000000000000009999123100000010000000000000BRAEDUACNOR9107
012013092612AEFI11      010FII AESAPAR CI           R$  000000001195500000000119990000000011803000000001190500000000119990000000011803000000001199900016000000000000000779000000000009274452000000000000009999123100000010000000000000BRAEFICTF002121
012013092602AELP3       010AES ELPA    ON           R$  000000000093000000000009990000000000920000000000093100000000009310000000000920000000000093200012000000000000011700000000000010895200000000000000009999123100000010000000000000BRAELPACNOR2119
012013092612AGCX11      010FII AG CAIXACI           R$  000000009550000000000955000000000095500000000009550000000000955000000000095500000000009600000001000000000000000002000000000000191000000000000000009999123100000010000000000000BRAGCXCTF003110
012013092602AGRO3       010BRASILAGRO  ON      NM   R$  000000000101900000000010190000000001000000000000100300000000010140000000000999000000000101400023000000000000013000000000000013040400000000000000009999123100000010000000000000BRAGROACNOR7102
012013092602ALLL3       010ALL AMER LATON      NM   R$  000000000090800000000009150000000000893000000000089900000000008930000000000893000000000089604021000000000001481100000000001332232400000000000000009999123100000010000000000000BRALLLACNOR6118
012013092696ALLL3F      020ALL AMER LATON      NM   R$  000000000091000000000009120000000000892000000000090000000000008950000000000898000000000090800038000000000000000983000000000000885306000000000000009999123100000010000000000000BRALLLACNOR6118
012013092662ALLL3T      030ALL AMER LATON      NM032R$  000000000091700000000009180000000000917000000000091700000000009180000000000000000000000000000002000000000000055000000000000050438080000000000000009999123100000010000000000000BRALLLACNOR6118
012013092612ALMI11B     010FII TORRE ALCI      MB   R$  000000030620100000003114980000000306201000000030720500000003065000000000306500000000031100000017000000000000000088000000000027034073000000000000009999123100000010000000000000BRALMICTF003205
012013092602ALPA3       010ALPARGATAS  ON      N1   R$  000000000126200000000012890000000001251000000000127500000000012700000000001270000000000130400006000000000000002400000000000003060500000000000000009999123100000010000000000000BRALPAACNOR0203
012013092696ALPA3F      020ALPARGATAS  ON      N1   R$  000000000125500000000012550000000001255000000000125500000000012550000000001255000000000128900002000000000000000052000000000000065260000000000000009999123100000010000000000000BRALPAACNOR0203
012013092602ALPA4       010ALPARGATAS  PN      N1   R$  000000000144000000000014550000000001422000000000143800000000014550000000001451000000000145601271000000000000290500000000000417869400000000000000009999123100000010000000000000BRALPAACNPR7203
012013092696ALPA4F      020ALPARGATAS  PN      N1   R$  000000000143500000000014610000000001420000000000143400000000014610000000001430000000000146100022000000000000000471000000000000675436000000000000009999123100000010000000000000BRALPAACNPR7203
012013092678ALPAJ14     070ALPA        PN      N1000R$  000000000004700000000000470000000000047000000000004700000000000470000000000000000000000000000002000000000000020300000000000000954100000000000140002013102100000010000000000000BRALPAACNPR7203
012013092678ALPAK15     070ALPA        PN      N1000R$  000000000001700000000000170000000000016000000000001600000000000170000000000000000000000000000005000000000000189200000000000003179600000000000150002013111800000010000000000000BRALPAACNPR7203
012013092602ALSC3       010ALIANSCE    ON      NM   R$  000000000202600000000020360000000001978000000000200000000000019850000000001980000000000199501124000000000000403400000000000806864800000000000000009999123100000010000000000000BRALSCACNOR0104
012013092696ALSC3F      020ALIANSCE    ON      NM   R$  000000000200000000000020140000000001991000000000201100000000019910000000001990000000000210000005000000000000000157000000000000315860000000000000009999123100000010000000000000BRALSCACNOR0104
012013092602ALUP11      010ALUPAR      UNT     N2   R$  000000000177100000000017800000000001756000000000177000000000017700000000001760000000000177000237000000000000077000000000000136302700000000000000009999123100000010000000000000BRALUPCDAM15100
012013092696ALUP11F     020ALUPAR      UNT     N2   R$  000000000177100000000017990000000001771000000000177300000000017990000000001711000000000179900005000000000000000106000000000000188006000000000000009999123100000010000000000000BRALUPCDAM15100
012013092602AMAR3       010LOJAS MARISAON      NM   R$  000000000223100000000022320000000002159000000000219800000000021590000000002159000000000217902611000000000000697600000000001533739000000000000000009999123100000010000000000000BRAMARACNOR4109
012013092696AMAR3F      020LOJAS MARISAON      NM   R$  000000000217300000000022200000000002170000000000218600000000021810000000002170000000000230600020000000000000000457000000000000999390000000000000009999123100000010000000000000BRAMARACNOR4109
012013092678AMARJ23     070AMAR        ON      NM000R$  000000000003000000000000300000000000030000000000003000000000000300000000000000000000000000000001000000000000000100000000000000003000000000000230002013102100000010000000000000BRAMARACNOR4109
012013092602AMBV3       010AMBEV       ON           R$  000000000868600000000087900000000008682000000000875700000000087760000000008776000000000878902007000000000000324600000000002842683900000000000000009999123100000010000000000000BRAMBVACNOR4154
012013092696AMBV3F      020AMBEV       ON           R$  000000000863200000000087800000000008632000000000874200000000086910000000008690000000000878900046000000000000001329000000000011619446000000000000009999123100000010000000000000BRAMBVACNOR4154
012013092662AMBV3T      030AMBEV       ON        018R$  000000000875200000000087530000000008752000000000875200000000087530000000000000000000000000000002000000000000010000000000000087524745000000000000009999123100000010000000000000BRAMBVACNOR4154
012013092662AMBV3T      030AMBEV       ON        060R$  000000000890200000000089030000000008902000000000890200000000089030000000000000000000000000000002000000000000001600000000000014243361000000000000009999123100000010000000000000BRAMBVACNOR4154
012013092602AMBV4       010AMBEV       PN           R$  000000000870000000000087950000000008688000000000875400000000087510000000008750000000000875106759000000000001542100000000013500155900000000000000009999123100000010000000000000BRAMBVACNPR1154
012013092696AMBV4F      020AMBEV       PN           R$  000000000869100000000087970000000008690000000000875000000000087500000000008750000000000876000277000000000000007557000000000066123817000000000000009999123100000010000000000000BRAMBVACNPR1154
012013092662AMBV4T      030AMBEV       PN        032R$  000000000881500000000088160000000008815000000000881500000000088160000000000000000000000000000002000000000000001000000000000008815890000000000000009999123100000010000000000000BRAMBVACNPR1154
012013092662AMBV4T      030AMBEV       PN        046R$  000000000884500000000088460000000008845000000000884500000000088460000000000000000000000000000004000000000000001200000000000010614199000000000000009999123100000010000000000000BRAMBVACNPR1154
012013092662AMBV4T      030AMBEV       PN        120R$  000000000896200000000089630000000008962000000000896200000000089630000000000000000000000000000002000000000000001200000000000010754525000000000000009999123100000010000000000000BRAMBVACNPR1154
012013092662AMBV4T      030AMBEV       PN        180R$  000000000920200000000092030000000009202000000000920200000000092030000000000000000000000000000002000000000000000200000000000001840584000000000000009999123100000010000000000000BRAMBVACNPR1154
012013092678AMBVJ17     070AMBV        ON        000R$  000000000005800000000000600000000000058000000000005900000000000600000000000000000000000000000002000000000000010000000000000000599800000000000890002013102100000010000000000000BRAMBVACNOR4154
012013092678AMBVJ88     070AMBV        PN        000R$  000000000020000000000002000000000000200000000000020000000000002000000000000135000000000000000001000000000000000100000000000000020000000000000873502013102100000010000000000000BRAMBVACNPR1153
012013092678AMBVJ89     070AMBV        PN        000R$  000000000006200000000001310000000000062000000000006500000000001310000000000080000000000000000004000000000000010400000000000000682200000000000883502013102100000010000000000000BRAMBVACNPR1153
012013092678AMBVJ90     070AMBV        PN        000R$  000000000009000000000000980000000000090000000000009200000000000980000000000085000000000016600005000000000000002700000000000000249800000000000893502013102100000010000000000000BRAMBVACNPR1153
012013092678AMBVK52     070AMBV        PN        000R$  000000000010700000000001070000000000106000000000010600000000001060000000000000000000000000000005000000000000020100000000000002130900000000000920002013111800000010000000000000BRAMBVACNPR1154
012013092678AMBVK92     070AMBV        PN        000R$  000000000014000000000001400000000000140000000000014000000000001400000000000000000000000000000001000000000000000200000000000000028000000000000913502013111800000010000000000000BRAMBVACNPR1153
012013092678AMBVL55     070AMBV        PN        000R$  000000000012700000000001270000000000108000000000011700000000001080000000000000000000000000000003000000000000500000000000000058750000000000000950002013121600000010000000000000BRAMBVACNPR1154
012013092682AMBVX50     080AMBVE       PN        000R$  000000000007000000000000700000000000038000000000004400000000000390000000000000000000000000000005000000000000300000000000000013249900000000000800002013121600000010000000000000BRAMBVACNPR1154
012013092682AMBVX85     080AMBVE       PN        000R$  000000000015600000000001570000000000156000000000015600000000001570000000000000000000000000000002000000000000250000000000000039125000000000000850002013121600000010000000000000BRAMBVACNPR1154
012013092602ARTR3       010ARTERIS     ON      NM   R$  000000000192700000000019500000000001910000000000193200000000019500000000001940000000000195001476000000000000240800000000000465332700000000000000009999123100000010000000000000BRARTRACNOR3101
012013092696ARTR3F      020ARTERIS     ON      NM   R$  000000000192300000000019430000000001915000000000192700000000019350000000001931000000000194700029000000000000000891000000000001717793000000000000009999123100000010000000000000BRARTRACNOR3101
012013092602ARZZ3       010AREZZO CO   ON      NM   R$  000000000376500000000038750000000003655000000000377600000000038750000000003875000000000387701182000000000000183500000000000693002400000000000000009999123100000010000000000000BRARZZACNOR3109
012013092696ARZZ3F      020AREZZO CO   ON      NM   R$  000000000370100000000038980000000003680000000000380100000000038290000000003720000000000390000008000000000000000258000000000000980791000000000000009999123100000010000000000000BRARZZACNOR3109
012013092602AUTM3       010AUTOMETAL   ON      NM   R$  000000000180600000000018190000000001760000000000179600000000018000000000001798000000000181200379000000000000125900000000000226194700000000000000009999123100000010000000000000BRAUTMACNOR8109
012013092696AUTM3F      020AUTOMETAL   ON      NM   R$  000000000178500000000017950000000001775000000000178300000000017950000000001721000000000190000004000000000000000105000000000000187255000000000000009999123100000010000000000000BRAUTMACNOR8109
012013092662AUTM3T      030AUTOMETAL   ON      NM361R$  000000000199100000000019920000000001991000000000199100000000019920000000000000000000000000000002000000000000000500000000000000995638000000000000009999123100000010000000000000BRAUTMACNOR8109
012013092602AZEV4       010AZEVEDO     PN           R$  000000000013000000000001300000000000130000000000013000000000001300000000000135000000000014000003000000000000003000000000000000390000000000000000009999123100000010000000000000BRAZEVACNPR7113
012013092602BAHI3       010BAHEMA      ON           R$  000000000049500000000004950000000000486000000000049200000000004950000000000485000000000049500005000000000000001900000000000000936200000000000000009999123100000010000000000000BRBAHIACNOR1066
012013092602BAUH4       010EXCELSIOR   PN           R$  000000000082500000000008950000000000818000000000082100000000008950000000000850000000000089400006000000000000004000000000000003285500000000000000009999123100000010000000000000BRBAUHACNPR3108
012013092602BAZA3       010AMAZONIA    ON           R$  000000000003300000000000330000000000033000000000003300000000000330000000000032000000000003300003000000000000054000000000000001782000000000000000009999123100000010000000000000BRBAZAACNOR0163
012013092696BAZA3F      020AMAZONIA    ON           R$  000000000003200000000000330000000000032000000000003200000000000330000000000032000000000003300002000000000000000795000000000000025705000000000000009999123100000010000000000000BRBAZAACNOR0163
012013092662BAZA3T      030AMAZONIA    ON        091R$  000000000003300000000000340000000000033000000000003300000000000340000000000000000000000000000002000000000000050000000000000001684485000000000000009999123100000010000000000000BRBAZAACNOR0163
012013092602BBAS3       010BRASIL      ON      NM   R$  000000000258500000000025970000000002550000000000256600000000025700000000002569000000000257209185000000000004140700000000010628142500000000000000009999123100000010000000000000BRBBASACNOR3239
012013092696BBAS3F      020BRASIL      ON      NM   R$  000000000257500000000025950000000002550000000000256800000000025700000000002570000000000257400221000000000000006298000000000016177198000000000000009999123100000010000000000000BRBBASACNOR3239
012013092662BBAS3T      030BRASIL      ON      NM091R$  000000000261500000000026160000000002615000000000261500000000026160000000000000000000000000000002000000000000004000000000000010462183000000000000009999123100000010000000000000BRBBASACNOR3239
012013092678BBASA25     070BBAS        ON      NM000R$  000000000028000000000002840000000000280000000000028200000000002840000000000000000000000000000007000000000000010000000000000002820000000000000239502014012000000010000000000000BRBBASACNOR3237
012013092678BBASC30     070BBAS        ON      NM000R$  000000000007000000000000710000000000070000000000007000000000000710000000000000000000000000000002000000000000222600000000000015804500000000000300002014031700000010000000000000BRBBASACNOR3239
012013092678BBASJ21     070BBAS        ON      NM000R$  000000000059400000000005940000000000594000000000059400000000005940000000000402000000000000000001000000000000000100000000000000059400000000000199502013102100000010000000000000BRBBASACNOR3237
012013092678BBASJ24     070BBAS        ON      NM000R$  000000000031000000000003110000000000310000000000031000000000003110000000000200000000000035000002000000000000001200000000000000373000000000000227102013102100000010000000000000BRBBASACNOR3236
012013092678BBASJ25     070BBAS  FM    ON      NM000R$  000000000020900000000002130000000000186000000000019700000000001960000000000188000000000020600159000000000000108000000000000021374900000000000239502013102100000010000000000000BRBBASACNOR3237
012013092678BBASJ26     070BBAS  FM    ON      NM000R$  000000000016000000000001600000000000132000000000014100000000001410000000000138000000000016000241000000000000107600000000000015276800000000000246102013102100000010000000000000BRBBASACNOR3235
012013092678BBASJ27     070BBAS  FM    ON      NM000R$  000000000008000000000000840000000000065000000000007300000000000720000000000070000000000008000291000000000000082500000000000006058100000000000256102013102100000010000000000000BRBBASACNOR3235
012013092678BBASJ28     070BBAS  FM    ON      NM000R$  000000000002700000000000270000000000018000000000001900000000000180000000000018000000000002100127000000000000243300000000000004856900000000000269502013102100000010000000000000BRBBASACNOR3237
012013092678BBASJ29     070BBAS  FM    ON      NM000R$  000000000001200000000000120000000000012000000000001200000000000120000000000005000000000001200002000000000000005100000000000000061200000000000276102013102100000010000000000000BRBBASACNOR3235
012013092678BBASJ31     070BBAS        ON      NM000R$  000000000000100000000000010000000000001000000000000100000000000010000000000000000000000000200002000000000000006700000000000000006700000000000307302013102100000010000000000000BRBBASACNOR3238
012013092678BBASJ56     070BBAS        ON      NM000R$  000000000010500000000001170000000000097000000000010700000000001050000000000000000000000000000030000000000000003000000000000000322200000000000251102013102100000010000000000000BRBBASACNOR3235
012013092678BBASJ65     070BBAS        ON      NM000R$  000000000003200000000000330000000000032000000000003200000000000330000000000000000000000000000022000000000000045300000000000001464600000000000265002013102100000010000000000000BRBBASACNOR3239
012013092678BBASK12     070BBAS        ON      NM000R$  000000000138000000000013800000000001380000000000138000000000013800000000000000000000000000000001000000000000000100000000000000138000000000000120002013111800000010000000000000BRBBASACNOR3239
012013092678BBASK18     070BBAS        ON      NM000R$  000000000088000000000008800000000000880000000000088000000000008800000000000000000000000000000001000000000000000100000000000000088000000000000169502013111800000010000000000000BRBBASACNOR3237
012013092678BBASK25     070BBAS  FM    ON      NM000R$  000000000025900000000002640000000000239000000000025000000000002480000000000000000000000000000122000000000000065700000000000016471700000000000237102013111800000010000000000000BRBBASACNOR3236
012013092678BBASK26     070BBAS  FM    ON      NM000R$  000000000018100000000001850000000000163000000000017000000000001700000000000100000000000000000076000000000000024500000000000004171700000000000247102013111800000010000000000000BRBBASACNOR3236
012013092678BBASK27     070BBAS  FM    ON      NM000R$  000000000011500000000001170000000000099000000000011000000000001060000000000045000000000010800074000000000000021100000000000002321700000000000257102013111800000010000000000000BRBBASACNOR3236
012013092678BBASK28     070BBAS  FM    ON      NM000R$  000000000006600000000000660000000000056000000000006100000000000590000000000053000000000006300166000000000000080500000000000004910700000000000267102013111800000010000000000000BRBBASACNOR3236
012013092678BBASK29     070BBAS  FM    ON      NM000R$  000000000002800000000000280000000000021000000000002500000000000240000000000016000000000002500062000000000000031600000000000000808800000000000279502013111800000010000000000000BRBBASACNOR3237
012013092678BBASK30     070BBAS        ON      NM000R$  000000000001200000000000130000000000012000000000001200000000000130000000000007000000000000000003000000000000001500000000000000019000000000000289502013111800000010000000000000BRBBASACNOR3237
012013092678BBASK57     070BBAS        ON      NM000R$  000000000003500000000000350000000000030000000000003200000000000320000000000000000000000000000048000000000000117200000000000003796200000000000275002013111800000010000000000000BRBBASACNOR3239
012013092678BBASL25     070BBAS        ON      NM000R$  000000000027500000000002890000000000275000000000028200000000002890000000000000000000000000000002000000000000000200000000000000056400000000000236102013121600000010000000000000BRBBASACNOR3235
012013092678BBASL26     070BBAS        ON      NM000R$  000000000020800000000002080000000000208000000000020800000000002080000000000016000000000000000001000000000000000200000000000000041600000000000246102013121600000010000000000000BRBBASACNOR3235
012013092678BBASL28     070BBAS        ON      NM000R$  000000000008300000000000850000000000078000000000008100000000000820000000000005000000000010100008000000000000001600000000000000130400000000000269502013121600000010000000000000BRBBASACNOR3237
012013092678BBASL29     070BBAS        ON      NM000R$  000000000006000000000000610000000000058000000000005900000000000590000000000010000000000000000005000000000000001000000000000000059600000000000276102013121600000010000000000000BRBBASACNOR3235
012013092678BBASL30     070BBAS        ON      NM000R$  000000000001400000000000150000000000013000000000001300000000000150000000000005000000000000000040000000000000020000000000000000279500000000000300002013121600000010000000000000BRBBASACNOR3239
012013092678BBASL60     070BBAS        ON      NM000R$  000000000003300000000000330000000000033000000000003300000000000330000000000000000000000000000001000000000000000500000000000000016500000000000286202013121600000010000000000000BRBBASACNOR3233
012013092682BBASO25     080BBASE       ON      NM000R$  000000000012400000000001240000000000124000000000012400000000001240000000000000000000000000000002000000000000222500000000000027590000000000000250002014031700000010000000000000BRBBASACNOR3239
012013092682BBASO52     080BBASE       ON      NM000R$  000000000004300000000000440000000000043000000000004300000000000440000000000000000000000004400002000000000000222600000000000009794300000000000225002014031700000010000000000000BRBBASACNOR3239
012013092682BBASV23     080BBASE       ON      NM000R$  000000000000300000000000030000000000003000000000000300000000000030000000000000000000000001000018000000000000002000000000000000006000000000000216102013102100000010000000000000BRBBASACNOR3235
012013092682BBASV24     080BBASE FM    ON      NM000R$  000000000000500000000000050000000000003000000000000300000000000030000000000003000000000000600015000000000000006800000000000000026000000000000227102013102100000010000000000000BRBBASACNOR3236
012013092682BBASV25     080BBASE FM    ON      NM000R$  000000000001200000000000140000000000011000000000001200000000000120000000000000000000000003300040000000000000029400000000000000366500000000000239502013102100000010000000000000BRBBASACNOR3237
012013092682BBASV26     080BBASE FM    ON      NM000R$  000000000002000000000000250000000000019000000000002200000000000220000000000020000000000002700159000000000000084300000000000001903200000000000246102013102100000010000000000000BRBBASACNOR3235
012013092682BBASV27     080BBASE FM    ON      NM000R$  000000000005400000000000610000000000046000000000005300000000000530000000000000000000000007100178000000000000057600000000000003072000000000000256102013102100000010000000000000BRBBASACNOR3235
012013092682BBASV28     080BBASE       ON      NM000R$  000000000013400000000001440000000000120000000000013600000000001310000000000000000000000014100093000000000000017400000000000002377700000000000269502013102100000010000000000000BRBBASACNOR3237
012013092682BBASV29     080BBASE       ON      NM000R$  000000000018600000000001870000000000179000000000018300000000001830000000000000000000000000000006000000000000000600000000000000109800000000000276102013102100000010000000000000BRBBASACNOR3235
012013092682BBASW24     080BBASE FM    ON      NM000R$  000000000001800000000000180000000000018000000000001800000000000180000000000006000000000000000002000000000000002300000000000000041400000000000229502013111800000010000000000000BRBBASACNOR3237
012013092682BBASW26     080BBASE FM    ON      NM000R$  000000000005200000000000520000000000048000000000005000000000000480000000000000000000000000000002000000000000002100000000000000105600000000000247102013111800000010000000000000BRBBASACNOR3236
012013092682BBASW27     080BBASE FM    ON      NM000R$  000000000008400000000000880000000000079000000000008300000000000880000000000000000000000000000005000000000000008200000000000000685900000000000257102013111800000010000000000000BRBBASACNOR3236
012013092682BBASX23     080BBASE       ON      NM000R$  000000000001700000000000170000000000017000000000001700000000000170000000000000000000000002400001000000000000000500000000000000008500000000000219502013121600000010000000000000BRBBASACNOR3237
012013092682BBASX27     080BBASE       ON      NM000R$  000000000011600000000001160000000000116000000000011600000000001160000000000000000000000000000001000000000000000400000000000000046400000000000259502013121600000010000000000000BRBBASACNOR3237
012013092602BBDC3       010BRADESCO    ON      N1   R$  000000000352100000000035530000000003499000000000352400000000035210000000003521000000000353905371000000000001267000000000004465888500000000000000009999123100000010000000000000BRBBDCACNOR1606
012013092696BBDC3F      020BRADESCO    ON      N1   R$  000000000353000000000035480000000003501000000000352600000000035480000000003498000000000354800040000000000000001147000000000004045069000000000000009999123100000010000000000000BRBBDCACNOR1606
012013092602BBDC4       010BRADESCO    PN      N1   R$  000000000308800000000030990000000003069000000000308800000000030890000000003089000000000309008824000000000003105000000000009590546000000000000000009999123100000010000000000000BRBBDCACNPR8606
012013092696BBDC4F      020BRADESCO    PN      N1   R$  000000000309000000000031120000000003052000000000308700000000030800000000003080000000000309000181000000000000005784000000000017860510000000000000009999123100000010000000000000BRBBDCACNPR8606
012013092662BBDC4T      030BRADESCO    PN      N1032R$  000000000311200000000031130000000003112000000000311200000000031130000000000000000000000000000002000000000000000100000000000000311217000000000000009999123100000010000000000000BRBBDCACNPR8606
012013092662BBDC4T      030BRADESCO    PN      N1091R$  000000000315800000000031590000000003158000000000315800000000031590000000000000000000000000000002000000000000010000000000000031582623000000000000009999123100000010000000000000BRBBDCACNPR8606
012013092678BBDCA34     070BBDC        PN      N1000R$  000000000007300000000000730000000000073000000000007300000000000730000000000000000000000000000037000000000000005000000000000000365000000000000339602014012000000010000000000000BRBBDCACNPR8604
012013092678BBDCJ1      070BBDC        PN      N1000R$  000000000005500000000000600000000000051000000000005600000000000600000000000000000000000000000043000000000000006200000000000000350100000000000314402013102100000010000000000000BRBBDCACNPR8603
012013092678BBDCJ2      070BBDC        PN      N1000R$  000000000002400000000000270000000000023000000000002400000000000270000000000000000000000004500167000000000000055000000000000001343700000000000324402013102100000010000000000000BRBBDCACNPR8603
012013092678BBDCJ29     070BBDC        PN      N1000R$  000000000023400000000002470000000000233000000000024300000000002400000000000192000000000000000023000000000000006800000000000001656100000000000287602013102100000010000000000000BRBBDCACNPR8602
012013092678BBDCJ30     070BBDC        PN      N1000R$  000000000015400000000001650000000000149000000000015700000000001650000000000135000000000017800240000000000000098700000000000015534600000000000297602013102100000010000000000000BRBBDCACNPR8602
012013092678BBDCJ31     070BBDC        PN      N1000R$  000000000008800000000000970000000000081000000000009200000000000810000000000081000000000009800768000000000000167500000000000015541200000000000307602013102100000010000000000000BRBBDCACNPR8602
012013092678BBDCJ32     070BBDC        PN      N1000R$  000000000004300000000000470000000000040000000000004300000000000470000000000043000000000005100098000000000000042600000000000001849000000000000317602013102100000010000000000000BRBBDCACNPR8602
012013092678BBDCJ33     070BBDC        PN      N1000R$  000000000002000000000000220000000000018000000000002000000000000200000000000012000000000002300050000000000000088600000000000001775800000000000327602013102100000010000000000000BRBBDCACNPR8602
012013092678BBDCJ34     070BBDC        PN      N1000R$  000000000001000000000000100000000000008000000000000900000000000100000000000000000000000001000018000000000000050000000000000000465400000000000337202013102100000010000000000000BRBBDCACNPR8600
012013092678BBDCK30     070BBDC        PN      N1000R$  000000000018300000000001930000000000174000000000018400000000001930000000000000000000000019300113000000000000061200000000000011291600000000000299802013111800000010000000000000BRBBDCACNPR8605
012013092678BBDCK31     070BBDC        PN      N1000R$  000000000012200000000001300000000000117000000000012400000000001300000000000102000000000013000131000000000000022200000000000002761600000000000309802013111800000010000000000000BRBBDCACNPR8605
012013092678BBDCK32     070BBDC        PN      N1000R$  000000000008700000000000910000000000081000000000008700000000000880000000000052000000000009500698000000000000115600000000000010077100000000000317402013111800000010000000000000BRBBDCACNPR8601
012013092678BBDCK33     070BBDC        PN      N1000R$  000000000004800000000000540000000000044000000000005000000000000520000000000021000000000006800110000000000000047400000000000002383100000000000327602013111800000010000000000000BRBBDCACNPR8602
012013092678BBDCK34     070BBDC        PN      N1000R$  000000000002500000000000270000000000024000000000002500000000000240000000000011000000000003300044000000000000019800000000000000507700000000000339602013111800000010000000000000BRBBDCACNPR8604
012013092678BBDCL1      070BBDC        PN      N1000R$  000000000017600000000001820000000000174000000000017600000000001820000000000000000000000000000014000000000000001400000000000000247100000000000307202013121600000010000000000000BRBBDCACNPR8600
012013092678BBDCL32     070BBDC        PN      N1000R$  000000000012400000000001300000000000122000000000012300000000001300000000000000000000000013500030000000000000005700000000000000702600000000000317202013121600000010000000000000BRBBDCACNPR8600
012013092678BBDCL33     070BBDC        PN      N1000R$  000000000024000000000002400000000000240000000000024000000000002400000000000000000000000000000001000000000000000100000000000000024000000000000297002013121600000010000000000000BRBBDCACNPR8598
012013092678BBDCL34     070BBDC        PN      N1000R$  000000000005400000000000570000000000054000000000005500000000000570000000000000000000000000000016000000000000004800000000000000264300000000000337202013121600000010000000000000BRBBDCACNPR8600
012013092678BBDCL35     070BBDC        PN      N1000R$  000000000003300000000000350000000000033000000000003400000000000350000000000009000000000004500003000000000000000900000000000000030700000000000347202013121600000010000000000000BRBBDCACNPR8600
012013092678BBDCL36     070BBDC        PN      N1000R$  000000000009500000000001000000000000092000000000009500000000001000000000000000000000000000000044000000000000008600000000000000820200000000000324102013121600000010000000000000BRBBDCACNPR8597
012013092682BBDCV1      080BBDCE       PN      N1000R$  000000000010200000000001050000000000092000000000009600000000000940000000000000000000000000000046000000000000004600000000000000445700000000000314402013102100000010000000000000BRBBDCACNPR8603
012013092682BBDCV27     080BBDCE       PN      N1000R$  000000000000500000000000050000000000005000000000000500000000000050000000000000000000000001300001000000000000009300000000000000046500000000000267602013102100000010000000000000BRBBDCACNPR8602
012013092682BBDCV29     080BBDCE       PN      N1000R$  000000000001300000000000130000000000013000000000001300000000000130000000000000000000000000000002000000000000004400000000000000057200000000000287602013102100000010000000000000BRBBDCACNPR8602
012013092682BBDCV30     080BBDCE       PN      N1000R$  000000000003300000000000360000000000030000000000003300000000000300000000000000000000000011800133000000000000051000000000000001700000000000000297602013102100000010000000000000BRBBDCACNPR8602
012013092682BBDCV31     080BBDCE       PN      N1000R$  000000000006700000000000700000000000060000000000006300000000000610000000000000000000000000000035000000000000024400000000000001549000000000000307602013102100000010000000000000BRBBDCACNPR8602
012013092682BBDCV32     080BBDCE       PN      N1000R$  000000000012400000000001260000000000110000000000011600000000001120000000000000000000000000000091000000000000032500000000000003788400000000000317602013102100000010000000000000BRBBDCACNPR8602
012013092682BBDCW28     080BBDCE       PN      N1000R$  000000000001800000000000180000000000017000000000001700000000000170000000000011000000000000000012000000000000038200000000000000654600000000000277602013111800000010000000000000BRBBDCACNPR8602
012013092682BBDCW30     080BBDCE       PN      N1000R$  000000000006200000000000660000000000062000000000006300000000000660000000000000000000000000000002000000000000004200000000000000268400000000000299802013111800000010000000000000BRBBDCACNPR8605
012013092682BBDCW31     080BBDCE       PN      N1000R$  000000000010400000000001050000000000097000000000010300000000001010000000000000000000000000000044000000000000093200000000000009617000000000000309802013111800000010000000000000BRBBDCACNPR8605
012013092682BBDCW32     080BBDCE       PN      N1000R$  000000000014300000000001450000000000135000000000013900000000001430000000000000000000000000000010000000000000020100000000000002813700000000000317402013111800000010000000000000BRBBDCACNPR8601
012013092682BBDCW9      080BBDCE       PN      N1000R$  000000000003600000000000370000000000036000000000003600000000000370000000000000000000000000000006000000000000010500000000000000379200000000000289802013111800000010000000000000BRBBDCACNPR8605
012013092612BBFI11B     010FII BB PROGRCI      MB   R$  000000042100000000004240000000000415000000000041953800000004150000000000420000000000042599900019000000000000000152000000000063769790000000000000009999123100000010000000000000BRBBFICTF006198
012013092612BBPO11      010FII BB PRGIICI           R$  000000001106100000000110990000000011061000000001107800000000110900000000011089000000001109000102000000000000013752000000000152352006000000000000009999123100000010000000000000BRBBPOCTF003110
012013092612BBRC11      010FII BB CORP CI           R$  000000000924000000000092490000000009001000000000924200000000092490000000009050000000000924900010000000000000000794000000000007338207000000000000009999123100000010000000000000BRBBRCCTF004124
012013092602BBRK3       010BR BROKERS  ON      NM   R$  000000000059100000000005940000000000582000000000058900000000005900000000000582000000000059001317000000000000863200000000000508468800000000000000009999123100000010000000000000BRBBRKACNOR4108
012013092696BBRK3F      020BR BROKERS  ON      NM   R$  000000000059000000000005900000000000590000000000059000000000005900000000000565000000000059000003000000000000000048000000000000028320000000000000009999123100000010000000000000BRBBRKACNOR4108
012013092602BBSE3       010BBSEGURIDADEON      NM   R$  000000000217000000000022120000000002155000000000218900000000021900000000002190000000000220007225000000000003635100000000007958596300000000000000009999123100000010000000000000BRBBSEACNOR5101
012013092696BBSE3F      020BBSEGURIDADEON      NM   R$  000000000216600000000022100000000002151000000000219100000000022090000000002193000000000221000654000000000000022878000000000050132285000000000000009999123100000010000000000000BRBBSEACNOR5101
012013092662BBSE3T      030BBSEGURIDADEON      NM090R$  000000000224000000000022480000000002240000000000224100000000022480000000000000000000000000000004000000000000350000000000000784495222000000000000009999123100000010000000000000BRBBSEACNOR5101
012013092662BBSE3T      030BBSEGURIDADEON      NM091R$  000000000223000000000022410000000002230000000000223500000000022340000000000000000000000000000038000000000000250000000000000558857509000000000000009999123100000010000000000000BRBBSEACNOR5101
012013092662BBSE3T      030BBSEGURIDADEON      NM119R$  000000000224700000000022480000000002247000000000224700000000022480000000000000000000000000000008000000000000048400000000000108767989000000000000009999123100000010000000000000BRBBSEACNOR5101
012013092678BBSEK20     070BBSE        ON      NM000R$  000000000027400000000002740000000000274000000000027400000000002740000000000070000000000000000001000000000000100000000000000027400000000000000195902013111800000010000000000000BRBBSEACNOR5100
012013092678BBSEK23     070BBSE        ON      NM000R$  000000000002500000000000250000000000025000000000002500000000000250000000000024000000000000000001000000000000001000000000000000025000000000000230002013111800000010000000000000BRBBSEACNOR5101
012013092602BBTG11      010BTG PACTUAL UNT          R$  000000000280000000000028480000000002762000000000279900000000028000000000002800000000000281000756000000000001933800000000005413020600000000000000009999123100000010000000000000BRBBTGUNT007105
012013092696BBTG11F     020BTG PACTUAL UNT          R$  000000000280500000000028180000000002775000000000279600000000028030000000002698000000000300000017000000000000000554000000000001549102000000000000009999123100000010000000000000BRBBTGUNT007105
012013092662BBTG11T     030BTG PACTUAL UNT       180R$  000000000293300000000029340000000002933000000000293300000000029340000000000000000000000000000006000000000001740700000000005106935288000000000000009999123100000010000000000000BRBBTGUNT007105
012013092612BBVJ11      010FII C JARDIMCI           R$  000000000779700000000078000000000007715000000000776200000000077500000000007750000000000780000015000000000000001480000000000011488803000000000000009999123100000010000000000000BRBBVJCTF001133
012013092612BCFF11B     010FII BC FFII CI      MB   R$  000000000900000000000090900000000008912000000000899400000000090000000000008923000000000900000113000000000000009600000000000086348178000000000000009999123100000010000000000000BRBCFFCTF000142
012013092602BEEF3       010MINERVA     ON      NM   R$  000000000098000000000010170000000000979000000000100500000000010130000000001013000000000101502992000000000001208100000000001214255900000000000000009999123100000010000000000000BRBEEFACNOR6104
012013092696BEEF3F      020MINERVA     ON      NM   R$  000000000100000000000010180000000001000000000000101000000000010100000000000998000000000101800012000000000000000474000000000000479173000000000000009999123100000010000000000000BRBEEFACNOR6104
012013092602BEES3       010BANESTES    ON           R$  000000000004900000000000500000000000048000000000004800000000000480000000000048000000000005000003000000000000004000000000000000195000000000000000009999123100000010000000000000BRBEESACNOR9244
012013092602BEMA3       010BEMATECH    ON      NM   R$  000000000078900000000007940000000000778000000000078400000000007820000000000778000000000078200661000000000000221500000000000173783800000000000000009999123100000010000000000000BRBEMAACNOR0114
012013092696BEMA3F      020BEMATECH    ON      NM   R$  000000000077500000000007930000000000775000000000077700000000007930000000000768000000000084800002000000000000000059000000000000045887000000000000009999123100000010000000000000BRBEMAACNOR0114
012013092602BHGR3       010BHG         ON      NM   R$  000000000147500000000014750000000001442000000000145100000000014700000000001470000000000150000532000000000000123400000000000179084100000000000000009999123100000010000000000000BRBHGRACNOR9101
012013092696BHGR3F      020BHG         ON      NM   R$  000000000144200000000014420000000001442000000000144200000000014420000000001402000000000149900001000000000000000075000000000000108150000000000000009999123100000010000000000000BRBHGRACNOR9101
012013092602BICB4       010BICBANCO    PN      N1   R$  000000000045300000000004530000000000415000000000042800000000004230000000000423000000000042700206000000000000184500000000000079078500000000000000009999123100000010000000000000BRBICBACNPR7131
012013092696BICB4F      020BICBANCO    PN      N1   R$  000000000043500000000004930000000000424000000000045200000000004930000000000424000000000049300007000000000000000039000000000000017660000000000000009999123100000010000000000000BRBICBACNPR7131
012013092662BICB4T      030BICBANCO    PN      N1361R$  000000000047400000000004750000000000474000000000047400000000004750000000000000000000000000000002000000000000001000000000000000474376000000000000009999123100000010000000000000BRBICBACNPR7131
012013092602BIOM3       010BIOMM       ON           R$  000000000090000000000009280000000000900000000000090200000000009280000000000850000000000093000010000000000000028000000000000025256000000000000000009999123100000010000000000000BRBIOMACNOR2101
012013092696BIOM3F      020BIOMM       ON           R$  000000000090000000000009000000000000900000000000090000000000009000000000000880000000000093900004000000000000000537000000000000483300000000000000009999123100000010000000000000BRBIOMACNOR2101
012013092602BISA3       010BROOKFIELD  ON      NM   R$  000000000017100000000001740000000000166000000000016900000000001670000000000166000000000016702722000000000010973300000000001859879600000000000000009999123100000010000000000000BRBISAACNOR8109
012013092696BISA3F      020BROOKFIELD  ON      NM   R$  000000000017000000000001700000000000166000000000016800000000001660000000000166000000000017300020000000000000000606000000000000102318000000000000009999123100000010000000000000BRBISAACNOR8109
012013092662BISA3T      030BROOKFIELD  ON      NM180R$  000000000018000000000001810000000000180000000000018000000000001810000000000000000000000000000002000000000000012000000000000002163485000000000000009999123100000010000000000000BRBISAACNOR8109
012013092602BMEB3       010MERC BRASIL ON           R$  000000000166300000000016630000000001663000000000166300000000016630000000001500000000000166200001000000000000000300000000000000498900000000000000009999123100000010000000000000BRBMEBACNOR8190
012013092602BMIN4       010MERC INVEST PN           R$  000000000002500000000000250000000000024000000000002400000000000240000000000024000000000002500010000000000000061000000000000001522000000000000000009999123100000010000000000000BRBMINACNPR1160
012013092602BMKS3       010BIC MONARK  ON           R$  000000003360000000000336000000000033500000000003357500000000335000000000032000000000003350000002000000000000000004000000000000134300000000000000009999123100000010000000000000BRBMKSACNOR9155
012013092612BMLC11B     010FII BMBRC LCCI      MB   R$  000000001143000000000114300000000011430000000001143000000000114300000000011430000000001150000011000000000000001171000000000013384530000000000000009999123100000010000000000000BRBMLCCTF004119
012013092602BMTO4       010BRASMOTOR   PN           R$  000000000008700000000000870000000000086000000000008600000000000860000000000085000000000008800007000000000000016000000000000001380000000000000000009999123100000010000000000000BRBMTOACNPR6065
012013092602BOBR4       010BOMBRIL     PN           R$  000000000065500000000006550000000000655000000000065500000000006550000000000625000000000066600001000000000000000200000000000000131000000000000000009999123100000010000000000000BRBOBRACNPR3127
012013092614BOVA11      010ISHARES BOVACI           R$  000000000528500000000053040000000005223000000000525300000000052770000000005244000000000527702330000000000001599490000000008402184100000000000000009999123100000010000000000000BRBOVACTF003101
012013092696BOVA11F     020ISHARES BOVACI           R$  000000000529000000000052900000000005227000000000526000000000052700000000005266000000000531500012000000000000000025000000000000131508000000000000009999123100000010000000000000BRBOVACTF003101
012013092612BPFF11      010FII ABSOLUTOCI           R$  000000000830000000000083000000000008200000000000827700000000082120000000008211000000000825000026000000000000004476000000000037047966000000000000009999123100000010000000000000BRBPFFCTF002105
012013092602BPHA3       010BR PHARMA   ON      NM   R$  000000000077400000000007780000000000748000000000075600000000007750000000000772000000000077502356000000000002531600000000001914954100000000000000009999123100000010000000000000BRBPHAACNOR6102
012013092696BPHA3F      020BR PHARMA   ON      NM   R$  000000000077000000000007720000000000741000000000076400000000007510000000000741000000000079900007000000000000000235000000000000179703000000000000009999123100000010000000000000BRBPHAACNOR6102
012013092602BPNM4       010PANAMERICANOPN      N1   R$  000000000051200000000005180000000000508000000000051200000000005180000000000518000000000051900098000000000000086400000000000044240000000000000000009999123100000010000000000000BRBPNMACNPR6111
012013092696BPNM4F      020PANAMERICANOPN      N1   R$  000000000051000000000005200000000000510000000000051200000000005200000000000507000000000052000003000000000000000026000000000000013314000000000000009999123100000010000000000000BRBPNMACNPR6111
012013092662BPNM4T      030PANAMERICANOPN      N1361R$  000000000056200000000005630000000000562000000000056200000000005630000000000000000000000000000002000000000000001000000000000000562632000000000000009999123100000010000000000000BRBPNMACNPR6111
012013092602BRAP3       010BRADESPAR   ON      N1   R$  000000000206000000000021130000000002058000000000206800000000021130000000002042000000000210500016000000000000003400000000000007032400000000000000009999123100000010000000000000BRBRAPACNOR5124
012013092696BRAP3F      020BRADESPAR   ON      N1   R$  000000000204500000000020600000000002036000000000204100000000020600000000002051000000000219900011000000000000000188000000000000383891000000000000009999123100000010000000000000BRBRAPACNOR5124
012013092602BRAP4       010BRADESPAR   PN      N1   R$  000000000251800000000025600000000002518000000000254200000000025530000000002553000000000255603691000000000000967900000000002460604600000000000000009999123100000010000000000000BRBRAPACNPR2124
012013092696BRAP4F      020BRADESPAR   PN      N1   R$  000000000250100000000025790000000002501000000000253100000000025070000000002507000000000258000029000000000000000681000000000001724249000000000000009999123100000010000000000000BRBRAPACNPR2124
012013092614BRAX11      010ISHARES BRAXCI           R$  000000000427100000000042900000000004255000000000427400000000042820000000000000000000000000000147000000000000011700000000000050011530000000000000009999123100000010000000000000BRBRAXCTF002100
012013092612BRCR11      010FII BC FUND CI           R$  000000001288800000000129300000000012750000000001287700000000129300000000012851000000001293000638000000000000125999000000001622494869000000000000009999123100000010000000000000BRBRCRCTF000133
012013092602BRFS3       010BRF SA      ON      NM   R$  000000000559300000000056380000000005564000000000559200000000056040000000005588000000000560406909000000000001956600000000010942481100000000000000009999123100000010000000000000BRBRFSACNOR8110
012013092696BRFS3F      020BRF SA      ON      NM   R$  000000000559800000000056200000000005569000000000559200000000056000000000005572000000000560000102000000000000003340000000000018683091000000000000009999123100000010000000000000BRBRFSACNOR8110
012013092662BRFS3T      030BRF SA      ON      NM020R$  000000000564200000000056430000000005642000000000564200000000056430000000000000000000000000000002000000000000000300000000000001692656000000000000009999123100000010000000000000BRBRFSACNOR8110
012013092602BRGE3       010ALFA CONSORCON           R$  000000000036600000000003660000000000366000000000036600000000003660000000000366000000000050000001000000000000000400000000000000146400000000000000009999123100000010000000000000BRBRGEACNOR6197
012013092602BRIN3       010BR INSURANCEON      NM   R$  000000000199500000000020120000000001956000000000197500000000019700000000001970000000000198000721000000000000132000000000000260758800000000000000009999123100000010000000000000BRBRINACNOR3106
012013092696BRIN3F      020BR INSURANCEON      NM   R$  000000000198900000000020010000000001968000000000198400000000019680000000001957000000000198900013000000000000000336000000000000666789000000000000009999123100000010000000000000BRBRINACNOR3106
012013092602BRIV3       010ALFA INVEST ON           R$  000000000062800000000006280000000000628000000000062800000000006280000000000628000000000069900002000000000000000800000000000000502400000000000000009999123100000010000000000000BRBRIVACNOR6197
012013092696BRIV3F      020ALFA INVEST ON           R$  000000000065200000000006520000000000652000000000065200000000006520000000000652000000000070000002000000000000000082000000000000053464000000000000009999123100000010000000000000BRBRIVACNOR6197
012013092602BRIV4       010ALFA INVEST PN           R$  000000000059000000000006030000000000590000000000059600000000006030000000000573000000000060300002000000000000000200000000000000119300000000000000009999123100000010000000000000BRBRIVACNPR3197
012013092602BRKM3       010BRASKEM     ON      N1   R$  000000000122000000000012400000000001220000000000123700000000012380000000001201000000000123800004000000000000010100000000000012493800000000000000009999123100000010000000000000BRBRKMACNOR1110
012013092696BRKM3F      020BRASKEM     ON      N1   R$  000000000120100000000012010000000001201000000000120100000000012010000000001201000000000123800001000000000000000005000000000000006005000000000000009999123100000010000000000000BRBRKMACNOR1110
012013092662BRKM3T      030BRASKEM     ON      N1180R$  000000000129600000000012970000000001296000000000129600000000012970000000000000000000000000000002000000000000010000000000000012960049000000000000009999123100000010000000000000BRBRKMACNOR1110
012013092602BRKM5       010BRASKEM     PNA     N1   R$  000000000179200000000018080000000001771000000000178800000000017900000000001780000000000179003725000000000000920200000000001645836700000000000000009999123100000010000000000000BRBRKMACNPA4110
012013092696BRKM5F      020BRASKEM     PNA     N1   R$  000000000180500000000018090000000001771000000000178200000000018090000000001770000000000180900012000000000000000339000000000000604182000000000000009999123100000010000000000000BRBRKMACNPA4110
012013092602BRML3       010BR MALLS PARON      NM   R$  000000000206700000000021000000000002056000000000207800000000020620000000002061000000000206206621000000000002017500000000004193162100000000000000009999123100000010000000000000BRBRMLACNOR9105
012013092696BRML3F      020BR MALLS PARON      NM   R$  000000000206600000000020960000000002055000000000207500000000020590000000002041000000000210000037000000000000001227000000000002546724000000000000009999123100000010000000000000BRBRMLACNOR9105
012013092602BRPR3       010BR PROPERT  ON      NM   R$  000000000200600000000020250000000001977000000000200000000000019780000000001978000000000199806488000000000001706100000000003413822000000000000000009999123100000010000000000000BRBRPRACNOR9112
012013092696BRPR3F      020BR PROPERT  ON      NM   R$  000000000198000000000020180000000001961000000000199200000000019900000000001980000000000206500029000000000000000861000000000001715806000000000000009999123100000010000000000000BRBRPRACNOR9112
012013092602BRSR6       010BANRISUL    PNB     N1   R$  000000000156900000000015690000000001534000000000155300000000015580000000001558000000000156703197000000000000646100000000001004007400000000000000009999123100000010000000000000BRBRSRACNPB4134
012013092696BRSR6F      020BANRISUL    PNB     N1   R$  000000000156000000000016090000000001540000000000156200000000015490000000001550000000000161000032000000000000000609000000000000951282000000000000009999123100000010000000000000BRBRSRACNPB4134
012013092602BSEV3       010BIOSEV      ON      NM   R$  000000000082000000000008340000000000820000000000082500000000008340000000000821000000000083500005000000000000000800000000000000660200000000000000009999123100000010000000000000BRBSEVACNOR3100
012013092696BSEV3F      020BIOSEV      ON      NM   R$  000000000080000000000008000000000000800000000000080000000000008000000000000714000000000086800001000000000000000020000000000000016000000000000000009999123100000010000000000000BRBSEVACNOR3100
012013092682BSEVS99     080BSEVE       ON      NM000R$  000000000074000000000007400000000000740000000000074000000000007400000000000000000000000000000002000000000000002610000000000001931400000000000165702014072100000010000000000000BRBSEVACNOR3100
012013092602BTOW3       010B2W DIGITAL ON      NM   R$  000000000150300000000015390000000001475000000000150000000000014910000000001490000000000149101210000000000000435700000000000653743800000000000000009999123100000010000000000000BRBTOWACNOR8105
012013092696BTOW3F      020B2W DIGITAL ON      NM   R$  000000000150100000000015350000000001471000000000150300000000014710000000001471000000000149100015000000000000000490000000000000734369000000000000009999123100000010000000000000BRBTOWACNOR8105
012013092602BTTL4       010BATTISTELLA PN           R$  000000000010100000000001010000000000101000000000010100000000001010000000000100000000000010400002000000000000002000000000000000202000000000000000009999123100000010000000000000BRBTTLACNPR7105
012013092602BVMF3       010BMFBOVESPA  ON      NM   R$  000000000129000000000012980000000001258000000000126700000000012650000000001264000000000126518548000000000009954600000000012622226700000000000000009999123100000010000000000000BRBVMFACNOR3126
012013092696BVMF3F      020BMFBOVESPA  ON      NM   R$  000000000128000000000012970000000001259000000000128000000000012650000000001265000000000128000095000000000000002541000000000003252327000000000000009999123100000010000000000000BRBVMFACNOR3126
012013092662BVMF3T      030BMFBOVESPA  ON      NM032R$  000000000127400000000012750000000001274000000000127400000000012750000000000000000000000000000002000000000000040000000000000050969380000000000000009999123100000010000000000000BRBVMFACNOR3126
012013092662BVMF3T      030BMFBOVESPA  ON      NM091R$  000000000129600000000012970000000001296000000000129600000000012970000000000000000000000000000002000000000000001400000000000001814982000000000000009999123100000010000000000000BRBVMFACNOR3126
012013092678BVMFJ12     070BVMF        ON      NM000R$  000000000011500000000001190000000000091000000000010100000000001030000000000102000000000011000043000000000000056700000000000005744000000000000118502013102100000010000000000000BRBVMFACNOR3125
012013092678BVMFJ13     070BVMF  FM    ON      NM000R$  000000000003700000000000450000000000027000000000003200000000000310000000000031000000000003200151000000000000301000000000000009644300000000000128502013102100000010000000000000BRBVMFACNOR3125
012013092678BVMFJ14     070BVMF  FM    ON      NM000R$  000000000000900000000000100000000000006000000000000700000000000060000000000006000000000000700059000000000000241700000000000001839200000000000138502013102100000010000000000000BRBVMFACNOR3125
012013092678BVMFJ15     070BVMF        ON      NM000R$  000000000000100000000000010000000000001000000000000100000000000010000000000001000000000000200002000000000000004000000000000000004000000000000148502013102100000010000000000000BRBVMFACNOR3125
012013092678BVMFJ42     070BVMF  FM    ON      NM000R$  000000000007700000000000780000000000054000000000006500000000000620000000000045000000000123500011000000000000031800000000000002078600000000000123502013102100000010000000000000BRBVMFACNOR3125
012013092678BVMFJ43     070BVMF  FM    ON      NM000R$  000000000001500000000000150000000000012000000000001400000000000150000000000007000000000001600008000000000000016100000000000000228800000000000133502013102100000010000000000000BRBVMFACNOR3125
012013092678BVMFJ44     070BVMF  FM    ON      NM000R$  000000000000200000000000020000000000002000000000000200000000000020000000000002000000000000300020000000000000052300000000000000104600000000000145002013102100000010000000000000BRBVMFACNOR3126
012013092678BVMFK12     070BVMF        ON      NM000R$  000000000011000000000001100000000000110000000000011000000000001100000000000000000000000013000001000000000000001000000000000000110000000000000118502013111800000010000000000000BRBVMFACNOR3125
012013092678BVMFK13     070BVMF  FM    ON      NM000R$  000000000006500000000000650000000000046000000000005400000000000530000000000050000000000006400025000000000000051000000000000002786700000000000128502013111800000010000000000000BRBVMFACNOR3125
012013092678BVMFK14     070BVMF  FM    ON      NM000R$  000000000001900000000000190000000000012000000000001300000000000140000000000013000000000001400034000000000000085600000000000001193400000000000138502013111800000010000000000000BRBVMFACNOR3125
012013092678BVMFK16     070BVMF        ON      NM000R$  000000000000200000000000020000000000002000000000000200000000000020000000000000000000000000000001000000000000001000000000000000002000000000000160002013111800000010000000000000BRBVMFACNOR3126
012013092678BVMFK43     070BVMF  FM    ON      NM000R$  000000000003100000000000320000000000021000000000002400000000000240000000000000000000000000000011000000000000021900000000000000535500000000000135002013111800000010000000000000BRBVMFACNOR3126
012013092678BVMFK44     070BVMF  FM    ON      NM000R$  000000000000500000000000050000000000005000000000000500000000000050000000000000000000000000000001000000000000003500000000000000017500000000000145002013111800000010000000000000BRBVMFACNOR3126
012013092678BVMFL13     070BVMF        ON      NM000R$  000000000007700000000000770000000000065000000000006500000000000650000000000000000000000000000003000000000000005500000000000000362300000000000128502013121600000010000000000000BRBVMFACNOR3125
012013092678BVMFL14     070BVMF        ON      NM000R$  000000000003700000000000370000000000037000000000003700000000000370000000000015000000000004000001000000000000001000000000000000037000000000000137402013121600000010000000000000BRBVMFACNOR3124
012013092678BVMFL43     070BVMF        ON      NM000R$  000000000004900000000000490000000000049000000000004900000000000490000000000000000000000000000003000000000000007200000000000000352800000000000131902013121600000010000000000000BRBVMFACNOR3126
012013092682BVMFV11     080BVMFE       ON      NM000R$  000000000000100000000000010000000000001000000000000100000000000010000000000001000000000001100001000000000000000500000000000000000500000000000108502013102100000010000000000000BRBVMFACNOR3125
012013092682BVMFV12     080BVMFE FM    ON      NM000R$  000000000000900000000000110000000000008000000000000800000000000090000000000007000000000001000020000000000000027600000000000000244600000000000118502013102100000010000000000000BRBVMFACNOR3125
012013092682BVMFV13     080BVMFE FM    ON      NM000R$  000000000003200000000000470000000000029000000000003800000000000410000000000034000000000011000055000000000000101000000000000003856500000000000128502013102100000010000000000000BRBVMFACNOR3125
012013092682BVMFV42     080BVMFE FM    ON      NM000R$  000000000001700000000000230000000000017000000000002000000000000230000000000017000000000002500011000000000000021200000000000000435800000000000123502013102100000010000000000000BRBVMFACNOR3125
012013092682BVMFV43     080BVMFE FM    ON      NM000R$  000000000005700000000000800000000000056000000000007400000000000800000000000000000000000000000014000000000000047000000000000003495000000000000133502013102100000010000000000000BRBVMFACNOR3125
012013092682BVMFW12     080BVMFE FM    ON      NM000R$  000000000001600000000000230000000000016000000000002100000000000220000000000000000000000000000007000000000000012900000000000000273300000000000118502013111800000010000000000000BRBVMFACNOR3125
012013092682BVMFW13     080BVMFE FM    ON      NM000R$  000000000004600000000000550000000000046000000000004600000000000550000000000000000000000005800003000000000000002000000000000000093500000000000128502013111800000010000000000000BRBVMFACNOR3125
012013092682BVMFW42     080BVMFE FM    ON      NM000R$  000000000003900000000000430000000000039000000000004000000000000400000000000000000000000004200005000000000000007300000000000000299100000000000125002013111800000010000000000000BRBVMFACNOR3126
012013092682BVMFW43     080BVMFE FM    ON      NM000R$  000000000007300000000000880000000000073000000000008000000000000880000000000000000000000000000003000000000000007800000000000000624900000000000135002013111800000010000000000000BRBVMFACNOR3126
012013092602CAMB4       010CAMBUCI     PN           R$  000000000019000000000001900000000000185000000000018700000000001870000000000188000000000019500003000000000000000300000000000000056200000000000000009999123100000010000000000000BRCAMBACNPR1117
012013092602CARD3       010CSU CARDSYSTON      NM   R$  000000000031800000000003190000000000310000000000031400000000003180000000000312000000000031800024000000000000009000000000000002828800000000000000009999123100000010000000000000BRCARDACNOR9105
012013092696CARD3F      020CSU CARDSYSTON      NM   R$  000000000030900000000003090000000000303000000000030600000000003030000000000307000000000031500003000000000000000093000000000000028489000000000000009999123100000010000000000000BRCARDACNOR9105
012013092602CBEE3       010AMPLA ENERG ON *         R$  000000000013000000000001300000000000130000000000013000000000001300000000000127000000000013000002000000000000600000000000000000078000000000000000009999123100010000000000000000BRCBEEACNOR3149
012013092602CBMA4       010COBRASMA    PN           R$  000000000000500000000000050000000000005000000000000500000000000050000000000004000000000000500008000000000000670000000000000003350000000000000000009999123100000010000000000000BRCBMAACNPR1124
012013092696CBMA4F      020COBRASMA    PN           R$  000000000000500000000000050000000000005000000000000500000000000050000000000004000000000000500004000000000000004692000000000000023460000000000000009999123100000010000000000000BRCBMAACNPR1124
012013092608CCHI3       010CHIARELLI   ON           R$  000000000001800000000000190000000000017000000000001800000000000170000000000017000000000001800012000000000000230000000000000004180000000000000000009999123100000010000000000000BRCCHIACNOR5123
012013092696CCHI3F      020CHIARELLI   ON           R$  000000000001800000000000180000000000017000000000001700000000000170000000000017000000000002000005000000000000013600000000000000241200000000000000009999123100000010000000000000BRCCHIACNOR5123
012013092608CCHI4       010CHIARELLI   PN           R$  000000000001300000000000130000000000012000000000001200000000000120000000000011000000000001400002000000000000020000000000000000250000000000000000009999123100000010000000000000BRCCHIACNPR2122
012013092696CCHI4F      020CHIARELLI   PN           R$  000000000001200000000000120000000000012000000000001200000000000120000000000011000000000001200002000000000000002000000000000000024000000000000000009999123100000010000000000000BRCCHIACNPR2122
012013092602CCRO3       010CCR SA      ON      NM   R$  000000000182000000000018320000000001804000000000181600000000018110000000001811000000000182008833000000000002826700000000005134998100000000000000009999123100000010000000000000BRCCROACNOR2122
012013092696CCRO3F      020CCR SA      ON      NM   R$  000000000183000000000018450000000001801000000000181900000000018020000000001822000000000187000057000000000000001621000000000002949139000000000000009999123100000010000000000000BRCCROACNOR2122
012013092662CCRO3T      030CCR SA      ON      NM032R$  000000000184000000000018410000000001840000000000184000000000018410000000000000000000000000000002000000000000000200000000000000368031000000000000009999123100000010000000000000BRCCROACNOR2122
012013092602CCXC3       010CCX CARVAO  ON      NM   R$  000000000013400000000001380000000000128000000000013200000000001350000000000135000000000013601523000000000005174500000000000687855900000000000000009999123100000010000000000000BRCCXCACNOR5100
012013092696CCXC3F      020CCX CARVAO  ON      NM   R$  000000000013300000000001330000000000129000000000013000000000001300000000000129000000000013500016000000000000000473000000000000061827000000000000009999123100000010000000000000BRCCXCACNOR5100
012013092662CCXC3T      030CCX CARVAO  ON      NM018R$  000000000013300000000001340000000000133000000000013300000000001340000000000000000000000000000002000000000000020000000000000002671970000000000000009999123100000010000000000000BRCCXCACNOR5100
012013092608CELP7       010CELPA       PNC          R$  000000000006500000000000680000000000065000000000006700000000000680000000000062000000000007000004000000000000003100000000000000207800000000000000009999123100000010000000000000BRCELPACNPC7114
012013092612CEOC11B     010FII CEO CCP CI      MB   R$  000000000860000000000086000000000008460000000000853200000000085000000000008465000000000854800060000000000000002831000000000024156587000000000000009999123100000010000000000000BRCEOCCTF003110
012013092602CESP3       010CESP        ON      N1   R$  000000000194900000000019490000000001940000000000194400000000019400000000001850000000000194000002000000000000000200000000000000388900000000000000009999123100000010000000000000BRCESPACNOR3160
012013092602CESP5       010CESP        PNA     N1   R$  000000000235000000000023550000000002348000000000235300000000023480000000002300000000000234800015000000000000003200000000000007529600000000000000009999123100000010000000000000BRCESPACNPA6108
012013092602CESP6       010CESP        PNB     N1   R$  000000000241900000000024190000000002325000000000234900000000023250000000002325000000000233704010000000000001167200000000002742492500000000000000009999123100000010000000000000BRCESPACNPB4119
012013092696CESP6F      020CESP        PNB     N1   R$  000000000235800000000024080000000002331000000000235300000000023400000000002333000000000236400031000000000000000867000000000002039479000000000000009999123100000010000000000000BRCESPACNPB4119
012013092602CGAS3       010COMGAS      ON           R$  000000000540000000000054000000000005400000000000540000000000054000000000005242000000000540000002000000000000011800000000000063720000000000000000009999123100000010000000000000BRCGASACNOR0132
012013092602CGAS5       010COMGAS      PNA          R$  000000000589100000000059000000000005775000000000581000000000057750000000005775000000000589500067000000000000015600000000000090647400000000000000009999123100000010000000000000BRCGASACNPA3129
012013092696CGAS5F      020COMGAS      PNA          R$  000000000589000000000058900000000005890000000000589000000000058900000000005852000000000589000001000000000000000001000000000000005890000000000000009999123100000010000000000000BRCGASACNPA3129
012013092602CGRA4       010GRAZZIOTIN  PN           R$  000000000178000000000017800000000001776000000000177800000000017790000000001765000000000178000008000000000000005300000000000009428300000000000000009999123100000010000000000000BRCGRAACNPR9061
012013092696CGRA4F      020GRAZZIOTIN  PN           R$  000000000180000000000018000000000001800000000000180000000000018000000000001761000000000180000001000000000000000020000000000000036000000000000000009999123100000010000000000000BRCGRAACNPR9061
012013092602CIEL3       010CIELO       ON      NM   R$  000000000575900000000059000000000005718000000000584500000000058760000000005876000000000588005043000000000001699400000000009934392200000000000000009999123100000010000000000000BRCIELACNOR3112
012013092696CIEL3F      020CIELO       ON      NM   R$  000000000575000000000058820000000005729000000000582100000000058740000000005860000000000589900102000000000000003414000000000019876258000000000000009999123100000010000000000000BRCIELACNOR3112
012013092662CIEL3T      030CIELO       ON      NM020R$  000000000580100000000058020000000005801000000000580100000000058020000000000000000000000000000002000000000000000100000000000000580101000000000000009999123100000010000000000000BRCIELACNOR3112
012013092678CIELJ60     070CIEL        ON      NM000R$  000000000009900000000000990000000000099000000000009900000000000990000000000000000000000000000001000000000000000500000000000000049500000000000589402013102100000010000000000000BRCIELACNOR3111
012013092682CIELW55     080CIELE       ON      NM000R$  000000000001400000000000140000000000014000000000001400000000000140000000000000000000000000000001000000000000000100000000000000001400000000000550002013111800000010000000000000BRCIELACNOR3112
012013092682CIELX55     080CIELE       ON      NM000R$  000000000002400000000000240000000000024000000000002400000000000240000000000000000000000000000001000000000000000100000000000000002400000000000550002013121600000010000000000000BRCIELACNOR3112
012013092602CLSC4       010CELESC      PN      N2   R$  000000000180000000000018000000000001775000000000178500000000017800000000001771000000000178000069000000000000018100000000000032313800000000000000009999123100000010000000000000BRCLSCACNPR3107
012013092696CLSC4F      020CELESC      PN      N2   R$  000000000175100000000017510000000001750000000000175000000000017500000000001749000000000180000038000000000000000078000000000000136539000000000000009999123100000010000000000000BRCLSCACNPR3107
012013092602CMIG3       010CEMIG       ON      N1   R$  000000000190400000000019060000000001866000000000187900000000018660000000001866000000000188700129000000000000028800000000000054140300000000000000009999123100000010000000000000BRCMIGACNOR6208
012013092696CMIG3F      020CEMIG       ON      N1   R$  000000000185800000000019090000000001858000000000188400000000018830000000001881000000000194700033000000000000000747000000000001407984000000000000009999123100000010000000000000BRCMIGACNOR6208
012013092602CMIG4       010CEMIG       PN      N1   R$  000000000192300000000019300000000001897000000000191300000000019140000000001913000000000191408472000000000002914700000000005577711400000000000000009999123100000010000000000000BRCMIGACNPR3208
012013092696CMIG4F      020CEMIG       PN      N1   R$  000000000191900000000019280000000001897000000000191100000000019100000000001905000000000191900127000000000000003669000000000007011479000000000000009999123100000010000000000000BRCMIGACNPR3208
012013092662CMIG4T      030CEMIG       PN      N1120R$  000000000197500000000019760000000001975000000000197500000000019760000000000000000000000000000002000000000000001000000000000001975816000000000000009999123100000010000000000000BRCMIGACNPR3208
012013092678CMIGJ19     070CMIG        PN      N1000R$  000000000008000000000000800000000000080000000000008000000000000800000000000000000000000012000003000000000000010000000000000000800000000000000190002013102100000010000000000000BRCMIGACNPR3208
012013092682CMIGM48     080CMIGE       PN      N1000R$  000000000004700000000000470000000000047000000000004700000000000470000000000000000000000000000001000000000000000100000000000000004700000000000185002014012000000010000000000000BRCMIGACNPR3208
012013092682CMIGV48     080CMIGE       PN      N1000R$  000000000001900000000000190000000000019000000000001900000000000190000000000000000000000000000001000000000000000100000000000000001900000000000185002013102100000010000000000000BRCMIGACNPR3208
012013092682CMIGW48     080CMIGE       PN      N1000R$  000000000003200000000000320000000000032000000000003200000000000320000000000000000000000000000001000000000000000100000000000000003200000000000185002013111800000010000000000000BRCMIGACNPR3208
012013092682CMIGX48     080CMIGE       PN      N1000R$  000000000004100000000000410000000000041000000000004100000000000410000000000000000000000000000001000000000000000100000000000000004100000000000185002013121600000010000000000000BRCMIGACNPR3208
012013092612CNES11B     010FII CENESP  CI  ER  MB   R$  000000001221000000000124500000000012210000000001228900000000123000000000012300000000001245000007000000000000000169000000000002076960000000000000009999123100000010000000000000BRCNESCTF001126
012013092602COCE3       010COELCE      ON           R$  000000000410200000000041100000000004000000000000404600000000041100000000003850000000000412000028000000000000006900000000000027919300000000000000009999123100000010000000000000BRCOCEACNOR0132
012013092602COCE5       010COELCE      PNA          R$  000000000390000000000039290000000003851000000000388300000000038510000000003850000000000385100230000000000000136900000000000531692500000000000000009999123100000010000000000000BRCOCEACNPA3133
012013092696COCE5F      020COELCE      PNA          R$  000000000389000000000039560000000003850000000000389200000000038650000000003850000000000395700028000000000000000436000000000001696948000000000000009999123100000010000000000000BRCOCEACNPA3133
012013092602CPFE3       010CPFL ENERGIAON      NM   R$  000000000193300000000019510000000001925000000000193300000000019380000000001935000000000193804971000000000000836800000000001617816900000000000000009999123100000010000000000000BRCPFEACNOR0122
012013092696CPFE3F      020CPFL ENERGIAON      NM   R$  000000000193000000000019440000000001911000000000193100000000019210000000001920000000000196500018000000000000000303000000000000585158000000000000009999123100000010000000000000BRCPFEACNOR0122
012013092662CPFE3T      030CPFL ENERGIAON      NM032R$  000000000194700000000019510000000001947000000000195000000000019510000000000000000000000000000004000000000000010300000000000020085167000000000000009999123100000010000000000000BRCPFEACNOR0122
012013092602CPLE3       010COPEL       ON      N1   R$  000000000222500000000022420000000002200000000000220900000000022210000000002196000000000222100032000000000000013900000000000030705300000000000000009999123100000010000000000000BRCPLEACNOR8128
012013092696CPLE3F      020COPEL       ON      N1   R$  000000000229000000000022900000000002290000000000229000000000022900000000002140000000000228500001000000000000000058000000000000132820000000000000009999123100000010000000000000BRCPLEACNOR8128
012013092602CPLE6       010COPEL       PNB     N1   R$  000000000311700000000031170000000003069000000000309500000000030950000000003091000000000310502082000000000000412000000000001275225500000000000000009999123100000010000000000000BRCPLEACNPB9125
012013092696CPLE6F      020COPEL       PNB     N1   R$  000000000308700000000031540000000003051000000000309700000000030510000000003050000000000315200014000000000000000270000000000000836240000000000000009999123100000010000000000000BRCPLEACNPB9125
012013092602CPRE3       010CPFL RENOVAVON      NM   R$  000000000126500000000012990000000001257000000000128300000000012990000000001299000000000130000415000000000000080600000000000103438600000000000000009999123100000010000000000000BRCPREACNOR5100
012013092696CPRE3F      020CPFL RENOVAVON      NM   R$  000000000124600000000012870000000001246000000000127100000000012870000000001247000000000128700031000000000000000622000000000000791017000000000000009999123100000010000000000000BRCPREACNOR5100
012013092602CRDE3       010CR2         ON      NM   R$  000000000042000000000004200000000000420000000000042000000000004200000000000411000000000042000001000000000000000100000000000000042000000000000000009999123100000010000000000000BRCRDEACNOR1108
012013092602CREM3       010CREMER      ON      NM   R$  000000000149300000000015000000000001482000000000149000000000014820000000001477000000000150000021000000000000015400000000000022960800000000000000009999123100000010000000000000BRCREMACNOR2167
012013092696CREM3F      020CREMER      ON      NM   R$  000000000150300000000015210000000001503000000000150600000000015210000000001481000000000159400003000000000000000012000000000000018074000000000000009999123100000010000000000000BRCREMACNOR2167
012013092602CRIV4       010ALFA FINANC PN           R$  000000000044700000000004470000000000447000000000044700000000004470000000000438000000000044800001000000000000000600000000000000268200000000000000009999123100000010000000000000BRCRIVACNPR1190
012013092602CRUZ3       010SOUZA CRUZ  ON  EDJ      R$  000000000265000000000026760000000002642000000000265600000000026550000000002654000000000266302469000000000000672000000000001785427700000000000000009999123100000010000000000000BRCRUZACNOR0248
012013092696CRUZ3F      020SOUZA CRUZ  ON  EDJ      R$  000000000264100000000027650000000002639000000000266000000000026400000000002639000000000276300043000000000000000902000000000002400217000000000000009999123100000010000000000000BRCRUZACNOR0248
012013092662CRUZ3T      030SOUZA CRUZ  ON  EDJ   032R$  000000000267200000000026730000000002672000000000267200000000026730000000000000000000000000000002000000000000000700000000000001870694000000000000009999123100000010000000000000BRCRUZACNOR0248
012013092602CSAN3       010COSAN       ON      NM   R$  000000000436700000000043960000000004310000000000434900000000043200000000004320000000000433505415000000000001422600000000006187748600000000000000009999123100000010000000000000BRCSANACNOR6108
012013092696CSAN3F      020COSAN       ON      NM   R$  000000000439000000000043990000000004251000000000434500000000042510000000004251000000000443000051000000000000001859000000000008077827000000000000009999123100000010000000000000BRCSANACNOR6108
012013092662CSAN3T      030COSAN       ON      NM018R$  000000000432800000000043290000000004328000000000432800000000043290000000000000000000000000000002000000000000001000000000000004328964000000000000009999123100000010000000000000BRCSANACNOR6108
012013092678CSANJ45     070CSAN        ON      NM000R$  000000000005300000000000530000000000053000000000005300000000000530000000000000000000000000000002000000000000001000000000000000053000000000000450002013102100000010000000000000BRCSANACNOR6108
012013092602CSMG3       010COPASA      ON  EJ  NM   R$  000000000345800000000035130000000003435000000000345700000000034500000000003450000000000346901066000000000000175800000000000607813100000000000000009999123100000010000000000000BRCSMGACNOR5128
012013092696CSMG3F      020COPASA      ON  EJ  NM   R$  000000000350000000000035000000000003373000000000344800000000034550000000003372000000000349900010000000000000000417000000000001437970000000000000009999123100000010000000000000BRCSMGACNOR5128
012013092614CSMO11      010ISHARES CSMOCI           R$  000000000484100000000048560000000004841000000000484200000000048560000000004845000000000610000002000000000000000090000000000000435840000000000000009999123100000010000000000000BRCSMOCTF002100
012013092602CSNA3       010SID NACIONALON           R$  000000000094700000000009770000000000941000000000096100000000009740000000000974000000000097514411000000000009828800000000009450317400000000000000009999123100000010000000000000BRCSNAACNOR6243
012013092696CSNA3F      020SID NACIONALON           R$  000000000094500000000009750000000000941000000000096100000000009750000000000950000000000097500103000000000000003022000000000002905448000000000000009999123100000010000000000000BRCSNAACNOR6243
012013092662CSNA3T      030SID NACIONALON        032R$  000000000097800000000009790000000000978000000000097800000000009790000000000000000000000000000002000000000000005000000000000004890442000000000000009999123100000010000000000000BRCSNAACNOR6243
012013092662CSNA3T      030SID NACIONALON        060R$  000000000096500000000009880000000000965000000000097800000000009880000000000000000000000000000010000000000000083200000000000081443416000000000000009999123100000010000000000000BRCSNAACNOR6243
012013092662CSNA3T      030SID NACIONALON        180R$  000000000101800000000010190000000001018000000000101800000000010190000000000000000000000000000002000000000000002000000000000002036146000000000000009999123100000010000000000000BRCSNAACNOR6243
012013092678CSNAJ10     070CSNA  FM    ON        000R$  000000000002200000000000300000000000022000000000002600000000000280000000000027000000000003000040000000000000082500000000000002145900000000000100002013102100000010000000000000BRCSNAACNOR6243
012013092678CSNAJ40     070CSNA        ON        000R$  000000000001500000000000150000000000015000000000001500000000000150000000000004000000000000000002000000000000015000000000000000225000000000000104002013102100000010000000000000BRCSNAACNOR6243
012013092678CSNAJ60     070CSNA        ON        000R$  000000000000900000000000090000000000009000000000000900000000000090000000000000000000000000000001000000000000004200000000000000037800000000000106002013102100000010000000000000BRCSNAACNOR6243
012013092678CSNAJ8      070CSNA        ON        000R$  000000000019500000000001950000000000195000000000019500000000001950000000000000000000000000000001000000000000000500000000000000097500000000000078002013102100000010000000000000BRCSNAACNOR6242
012013092678CSNAJ9      070CSNA        ON        000R$  000000000008300000000001060000000000083000000000009500000000001060000000000092000000000015700014000000000000015200000000000001448800000000000088002013102100000010000000000000BRCSNAACNOR6242
012013092678CSNAJ92     070CSNA  FM    ON        000R$  000000000005800000000000740000000000058000000000006200000000000730000000000000000000000000000009000000000000020700000000000001302000000000000092002013102100000010000000000000BRCSNAACNOR6243
012013092678CSNAJ94     070CSNA  FM    ON        000R$  000000000004600000000000600000000000045000000000005300000000000590000000000000000000000000000084000000000000233700000000000012533600000000000094002013102100000010000000000000BRCSNAACNOR6243
012013092678CSNAJ96     070CSNA  FM    ON        000R$  000000000003700000000000440000000000036000000000003600000000000440000000000000000000000000000006000000000000019000000000000000691500000000000096002013102100000010000000000000BRCSNAACNOR6243
012013092678CSNAJ98     070CSNA  FM    ON        000R$  000000000002900000000000360000000000029000000000003400000000000360000000000003000000000000000011000000000000005100000000000000177400000000000098002013102100000010000000000000BRCSNAACNOR6243
012013092678CSNAK10     070CSNA  FM    ON        000R$  000000000005100000000000580000000000051000000000005600000000000550000000000000000000000000000006000000000000012500000000000000709300000000000098002013111800000010000000000000BRCSNAACNOR6242
012013092678CSNAK11     070CSNA        ON        000R$  000000000003000000000000300000000000025000000000002700000000000250000000000000000000000000000002000000000000004000000000000000110000000000000110002013111800000010000000000000BRCSNAACNOR6243
012013092678CSNAK60     070CSNA        ON        000R$  000000000002500000000000270000000000025000000000002500000000000250000000000000000000000000000028000000000000090000000000000002270000000000000106002013111800000010000000000000BRCSNAACNOR6243
012013092678CSNAK8      070CSNA        ON        000R$  000000000018500000000001850000000000185000000000018500000000001850000000000000000000000000000001000000000000001000000000000000185000000000000078002013111800000010000000000000BRCSNAACNOR6242
012013092678CSNAK92     070CSNA  FM    ON        000R$  000000000009300000000000950000000000093000000000009400000000000940000000000000000000000000000008000000000000023300000000000002193500000000000092002013111800000010000000000000BRCSNAACNOR6243
012013092678CSNAK94     070CSNA  FM    ON        000R$  000000000006800000000000820000000000067000000000007300000000000800000000000000000000000000000093000000000000182600000000000013331100000000000094002013111800000010000000000000BRCSNAACNOR6243
012013092678CSNAK96     070CSNA  FM    ON        000R$  000000000006000000000000700000000000060000000000006700000000000700000000000000000000000000000005000000000000011200000000000000758000000000000096002013111800000010000000000000BRCSNAACNOR6243
012013092678CSNAL42     070CSNA        ON        000R$  000000000000800000000000080000000000007000000000000700000000000070000000000000000000000000000002000000000000250000000000000001990000000000000119702013121600000010000000000000BRCSNAACNOR6241
012013092682CSNAV10     080CSNAE       ON        000R$  000000000007400000000000740000000000049000000000005900000000000490000000000048000000000009600126000000000000020700000000000001228800000000000100002013102100000010000000000000BRCSNAACNOR6243
012013092682CSNAV64     080CSNAE       ON        000R$  000000000000100000000000010000000000001000000000000100000000000010000000000000000000000000000007000000000000010000000000000000010000000000000062002013102100000010000000000000BRCSNAACNOR6242
012013092682CSNAV9      080CSNAE FM    ON        000R$  000000000001900000000000190000000000010000000000001400000000000100000000000009000000000001800013000000000000003800000000000000055000000000000088002013102100000010000000000000BRCSNAACNOR6242
012013092682CSNAV92     080CSNAE FM    ON        000R$  000000000001900000000000190000000000019000000000001900000000000190000000000000000000000000000001000000000000003500000000000000066500000000000092002013102100000010000000000000BRCSNAACNOR6243
012013092682CSNAV94     080CSNAE FM    ON        000R$  000000000003900000000000390000000000023000000000002800000000000230000000000000000000000000000089000000000000210800000000000006075000000000000094002013102100000010000000000000BRCSNAACNOR6243
012013092682CSNAV96     080CSNAE FM    ON        000R$  000000000004800000000000480000000000034000000000004300000000000340000000000000000000000000000006000000000000014000000000000000606000000000000096002013102100000010000000000000BRCSNAACNOR6243
012013092682CSNAW69     080CSNAE       ON        000R$  000000000000400000000000040000000000004000000000000400000000000040000000000000000000000000000001000000000000003300000000000000013200000000000069002013111800000010000000000000BRCSNAACNOR6243
012013092682CSNAW92     080CSNAE FM    ON        000R$  000000000004500000000000450000000000045000000000004500000000000450000000000000000000000000000001000000000000001000000000000000045000000000000092002013111800000010000000000000BRCSNAACNOR6243
012013092682CSNAW94     080CSNAE FM    ON        000R$  000000000005600000000000560000000000041000000000005000000000000410000000000000000000000000000083000000000000175300000000000008789100000000000094002013111800000010000000000000BRCSNAACNOR6243
012013092682CSNAW96     080CSNAE FM    ON        000R$  000000000005500000000000550000000000050000000000005100000000000520000000000000000000000000000005000000000000007000000000000000361000000000000096002013111800000010000000000000BRCSNAACNOR6243
012013092682CSNAX9      080CSNAE       ON        000R$  000000000003000000000000300000000000023000000000002300000000000230000000000023000000000000000002000000000000250000000000000005980300000000000084702013121600000010000000000000BRCSNAACNOR6241
012013092602CTAX11      010CONTAX      UNT     N2   R$  000000000189000000000019180000000001860000000000187500000000018700000000001870000000000191900105000000000000117100000000000219563100000000000000009999123100000010000000000000BRCTAXCDAM19100
012013092696CTAX11F     020CONTAX      UNT     N2   R$  000000000190800000000019080000000001902000000000190500000000019020000000001878000000000197500002000000000000000020000000000000038100000000000000009999123100000010000000000000BRCTAXCDAM19100
012013092602CTAX3       010CONTAX      ON      N2   R$  000000000037300000000003840000000000350000000000037000000000003790000000000351000000000038400017000000000000002600000000000000963200000000000000009999123100000010000000000000BRCTAXACNOR3113
012013092602CTAX4       010CONTAX      PN      N2   R$  000000000038500000000003850000000000368000000000037700000000003800000000000380000000000038200117000000000000034600000000000013076100000000000000009999123100000010000000000000BRCTAXACNPR0114
012013092696CTAX4F      020CONTAX      PN      N2   R$  000000000034200000000003420000000000342000000000034200000000003420000000000342000000000037900001000000000000000040000000000000013680000000000000009999123100000010000000000000BRCTAXACNPR0114
012013092602CTIP3       010CETIP       ON  EJ  NM   R$  000000000235700000000023570000000002325000000000234000000000023400000000002340000000000234405556000000000001344200000000003145537200000000000000009999123100000010000000000000BRCTIPACNOR2120
012013092696CTIP3F      020CETIP       ON  EJ  NM   R$  000000000234500000000023550000000002326000000000233600000000023260000000002325000000000235100018000000000000000623000000000001455430000000000000009999123100000010000000000000BRCTIPACNOR2120
012013092602CTKA4       010KARSTEN     PN           R$  000000000009900000000001000000000000099000000000009900000000001000000000000089000000000010000003000000000000000300000000000000029800000000000000009999123100000010000000000000BRCTKAACNPR7041
012013092602CTNM4       010COTEMINAS   PN           R$  000000000021700000000002230000000000211000000000021500000000002120000000000212000000000021400058000000000000028200000000000006069200000000000000009999123100000010000000000000BRCTNMACNPR6128
012013092662CTNM4T      030COTEMINAS   PN        361R$  000000000024200000000002430000000000233000000000023900000000002340000000000000000000000000000006000000000000004100000000000000980744000000000000009999123100000010000000000000BRCTNMACNPR6128
012013092602CTSA3       010SANTANENSE  ON           R$  000000000054900000000005600000000000510000000000052800000000005360000000000536000000000057400008000000000000004800000000000002535300000000000000009999123100000010000000000000BRCTSAACNOR3051
012013092602CTSA4       010SANTANENSE  PN           R$  000000000057700000000005770000000000577000000000057700000000005770000000000549000000000056000003000000000000003900000000000002250300000000000000009999123100000010000000000000BRCTSAACNPR0051
012013092662CTSA4T      030SANTANENSE  PN        074R$  000000000058600000000005870000000000586000000000058600000000005870000000000000000000000000000004000000000000003900000000000002288780000000000000009999123100000010000000000000BRCTSAACNPR0051
012013092612CXTL11      010FII CX TRX  CI           R$  000000007150000000000715000000000071500000000007150000000000715000000000071166000000007300000003000000000000000163000000000011654500000000000000009999123100000010000000000000BRCXTLCTF003122
012013092602CYRE3       010CYRELA REALTON      NM   R$  000000000168800000000017140000000001668000000000168500000000016790000000001678000000000167906398000000000001715800000000002892550800000000000000009999123100000010000000000000BRCYREACNOR7125
012013092696CYRE3F      020CYRELA REALTON      NM   R$  000000000170100000000017280000000001670000000000168500000000016710000000001670000000000170000038000000000000001213000000000002044682000000000000009999123100000010000000000000BRCYREACNOR7125
012013092678CYREJ17     070CYRE  FM    ON      NM000R$  000000000005400000000000540000000000044000000000005100000000000440000000000000000000000000000003000000000000007400000000000000378100000000000170002013102100000010000000000000BRCYREACNOR7125
012013092678CYREJ46     070CYRE  FM    ON      NM000R$  000000000008500000000000940000000000067000000000007600000000000730000000000067000000000000000010000000000000031000000000000002360700000000000165002013102100000010000000000000BRCYREACNOR7125
012013092678CYREK17     070CYRE  FM    ON      NM000R$  000000000008400000000000840000000000084000000000008400000000000840000000000000000000000000000001000000000000003500000000000000294000000000000170002013111800000010000000000000BRCYREACNOR7125
012013092678CYREK46     070CYRE  FM    ON      NM000R$  000000000011400000000001140000000000114000000000011400000000001140000000000000000000000000000001000000000000003500000000000000399000000000000165002013111800000010000000000000BRCYREACNOR7125
012013092678CYREK47     070CYRE  FM    ON      NM000R$  000000000005800000000000660000000000058000000000006200000000000660000000000000000000000000000003000000000000007000000000000000434000000000000175002013111800000010000000000000BRCYREACNOR7125
012013092682CYREV16     080CYREE FM    ON      NM000R$  000000000002000000000000220000000000020000000000002100000000000220000000000000000000000000000019000000000000100000000000000002100000000000000160002013102100000010000000000000BRCYREACNOR7125
012013092682CYREV17     080CYREE FM    ON      NM000R$  000000000004100000000000410000000000041000000000004100000000000410000000000000000000000000000001000000000000003500000000000000143500000000000170002013102100000010000000000000BRCYREACNOR7125
012013092682CYREV45     080CYREE       ON      NM000R$  000000000000900000000000090000000000009000000000000900000000000090000000000000000000000000000001000000000000001000000000000000009000000000000155002013102100000010000000000000BRCYREACNOR7125
012013092682CYREV47     080CYREE FM    ON      NM000R$  000000000007100000000000800000000000071000000000007300000000000800000000000000000000000000000002000000000000004500000000000000328500000000000175002013102100000010000000000000BRCYREACNOR7125
012013092682CYREW47     080CYREE FM    ON      NM000R$  000000000009400000000000940000000000094000000000009400000000000940000000000000000000000000000002000000000000007000000000000000658000000000000175002013111800000010000000000000BRCYREACNOR7125
012013092602CZLT33      010COSAN LTD   DR3          R$  000000000343500000000034830000000003422000000000346400000000034800000000003480000000000349001118000000000000492100000000001704670400000000000000009999123100000010000000000000BRCZLTBDR009105
012013092696CZLT33F     020COSAN LTD   DR3          R$  000000000340000000000034000000000003400000000000340000000000034000000000003100000000000399300001000000000000000008000000000000027200000000000000009999123100000010000000000000BRCZLTBDR009105
012013092602DAGB33      010DUFRY AG    DR3          R$  000000003300600000000337260000000033006000000003339800000000336300000000033400000000003363000287000000000000008107000000000270762871000000000000009999123100000010000000000000BRDAGBBDR008100
012013092602DASA3       010DASA        ON      NM   R$  000000000116300000000011730000000001145000000000115900000000011630000000001162000000000116403187000000000001142700000000001324656600000000000000009999123100000010000000000000BRDASAACNOR1108
012013092696DASA3F      020DASA        ON      NM   R$  000000000117100000000011710000000001130000000000115200000000011670000000001140000000000118800031000000000000000561000000000000646607000000000000009999123100000010000000000000BRDASAACNOR1108
012013092662DASA3T      030DASA        ON      NM032R$  000000000117400000000011760000000001174000000000117500000000011760000000000000000000000000000004000000000000110000000000000129281443000000000000009999123100000010000000000000BRDASAACNOR1108
012013092678DASAK12     070DASA        ON      NM000R$  000000000002500000000000250000000000025000000000002500000000000250000000000000000000000003400001000000000000016800000000000000420000000000000120002013111800000010000000000000BRDASAACNOR1108
012013092602DAYC4       010DAYCOVAL    PN      N2   R$  000000000088200000000008830000000000872000000000087500000000008750000000000873000000000088200065000000000000019500000000000017066700000000000000009999123100000010000000000000BRDAYCACNPR2128
012013092696DAYC4F      020DAYCOVAL    PN      N2   R$  000000000088000000000008800000000000880000000000088000000000008800000000000851000000000088000001000000000000000010000000000000008800000000000000009999123100000010000000000000BRDAYCACNPR2128
012013092696DHBI4F      020D H B       PN           R$  000000000060800000000006080000000000608000000000060800000000006080000000000608000000000141100001000000000000000006000000000000003648000000000000009999123100000010000000000000BRDHBIACNPR2114
012013092602DIRR3       010DIRECIONAL  ON      NM   R$  000000000123300000000012410000000001220000000000122800000000012350000000001235000000000123601371000000000000312700000000000384046000000000000000009999123100000010000000000000BRDIRRACNOR0104
012013092696DIRR3F      020DIRECIONAL  ON      NM   R$  000000000123100000000012310000000001212000000000121900000000012120000000001211000000000123000014000000000000000668000000000000814497000000000000009999123100000010000000000000BRDIRRACNOR0104
012013092614DIVO11      010IT NOW IDIV CI           R$  000000000341600000000034280000000003405000000000342100000000034180000000003400000000000341900058000000000000003060000000000010468670000000000000009999123100000010000000000000BRDIVOCTF002100
012013092696DIVO11F     020IT NOW IDIV CI           R$  000000000328800000000034000000000003288000000000334400000000034000000000003400000000000350000003000000000000000006000000000000020064000000000000009999123100000010000000000000BRDIVOCTF002100
012013092602DTEX3       010DURATEX     ON      NM   R$  000000000128100000000013080000000001279000000000129700000000013080000000001301000000000130803915000000000001030500000000001337616600000000000000009999123100000010000000000000BRDTEXACNOR3115
012013092696DTEX3F      020DURATEX     ON      NM   R$  000000000130000000000013180000000001284000000000129900000000012840000000001284000000000130900049000000000000001349000000000001752554000000000000009999123100000010000000000000BRDTEXACNOR3115
012013092662DTEX3T      030DURATEX     ON      NM032R$  000000000131000000000013110000000001310000000000131000000000013110000000000000000000000000000002000000000000001200000000000001572128000000000000009999123100000010000000000000BRDTEXACNOR3115
012013092602EALT4       010ACO ALTONA  PN           R$  000000000260000000000027490000000002600000000000264800000000027460000000002650000000000275000011000000000000003700000000000009798900000000000000009999123100000010000000000000BREALTACNPR1123
012013092602EBTP3       010EMBRATEL PARON *         R$  000000000085000000000008500000000000850000000000085000000000008500000000000813000000000090000002000000000000500000000000000000425000000000000000009999123100010000000000000000BREBTPACNOR3115
012013092696EBTP3F      020EMBRATEL PARON *         R$  000000000080100000000008010000000000801000000000080100000000008010000000000803000000000090000002000000000000085879000000000000068788000000000000009999123100010000000000000000BREBTPACNOR3115
012013092602EBTP4       010EMBRATEL PARPN *         R$  000000000085200000000008520000000000850000000000085000000000008500000000000850000000000089900005000000000000500000000000000000425200000000000000009999123100010000000000000000BREBTPACNPR0120
012013092696EBTP4F      020EMBRATEL PARPN *         R$  000000000087200000000008720000000000850000000000085700000000008500000000000818000000000091800011000000000000147359000000000000126385000000000000009999123100010000000000000000BREBTPACNPR0120
012013092614ECOO11      010ISHARES ECOOCI           R$  000000000552300000000055670000000005523000000000554500000000055570000000005500000000000555500019000000000000004460000000000024731260000000000000009999123100000010000000000000BRECOOCTF008100
012013092696ECOO11F     020ISHARES ECOOCI           R$  000000000546500000000055000000000005408000000000545100000000054080000000005408000000000575500003000000000000000012000000000000065413000000000000009999123100000010000000000000BRECOOCTF008100
012013092602ECOR3       010ECORODOVIAS ON      NM   R$  000000000156800000000015720000000001548000000000156000000000015610000000001561000000000156204665000000000001631200000000002545938100000000000000009999123100000010000000000000BRECORACNOR8106
012013092696ECOR3F      020ECORODOVIAS ON      NM   R$  000000000156000000000015630000000001551000000000155800000000015600000000001551000000000160900008000000000000000149000000000000232147000000000000009999123100000010000000000000BRECORACNOR8106
