00COTAHIST.2013BOVESPA 20130816                                                                                                                                                                                                                      
012013081602AAPL11B     010APPLE       DRN ED  MB   R$  000000001176000000000120000000000011760000000001190300000000120000000000011965000000001210500003000000000000003000000000000035710000000000000000009999123100000010000000000000BRAAPLBDR004105
012013081602ABCB4       010ABC BRASIL  PN      N2   R$  000000000120000000000012060000000001185000000000119300000000011930000000001193000000000120500432000000000000133200000000000158955000000000000000009999123100000010000000000000BRABCBACNPR4120
012013081696ABCB4F      020ABC BRASIL  PN      N2   R$  000000000119500000000011950000000001181000000000119400000000011810000000001192000000000121400002000000000000000100000000000000119430000000000000009999123100000010000000000000BRABCBACNPR4120
012013081612ABCP11      010FII ABC IMOBCI           R$  000000000095000000000009500000000000950000000000095000000000009500000000000920000000000096700002000000000000000240000000000000228000000000000000009999123100000010000000000000BRABCPCTF000214
012013081602ABRE11      010ABRIL EDUCA UNT     N2   R$  000000000300000000000030750000000002900000000000293400000000030150000000002990000000000301501261000000000000739800000000002171148700000000000000009999123100000010000000000000BRABRECDAM15102
012013081696ABRE11F     020ABRIL EDUCA UNT     N2   R$  000000000299300000000030260000000002917000000000294400000000030260000000002886000000000319900015000000000000000397000000000001169064000000000000009999123100000010000000000000BRABRECDAM15102
012013081662ABRE11T     030ABRIL EDUCA UNT     N2017R$  000000000292100000000029220000000002921000000000292100000000029220000000000000000000000000000002000000000000001000000000000002921058000000000000009999123100000010000000000000BRABRECDAM15102
012013081602ABTT11B     010ABBOTT      DRN     MB   R$  000000000204900000000020490000000002049000000000204900000000020490000000002070000000000211000001000000000000000100000000000000204900000000000000009999123100000010000000000000BRABTTBDR007107
012013081602AEDU3       010ANHANGUERA  ON      NM   R$  000000000136000000000013610000000001325000000000133200000000013250000000001325000000000132705328000000000001442600000000001922135500000000000000009999123100000010000000000000BRAEDUACNOR9107
012013081696AEDU3F      020ANHANGUERA  ON      NM   R$  000000000136000000000013940000000001328000000000133900000000013350000000001321000000000134500030000000000000000694000000000000929789000000000000009999123100000010000000000000BRAEDUACNOR9107
012013081662AEDU3T      030ANHANGUERA  ON      NM031R$  000000000134300000000013440000000001333000000000133900000000013340000000000000000000000000000004000000000000005000000000000006698960000000000000009999123100000010000000000000BRAEDUACNOR9107
012013081612AEFI11      010FII AESAPAR CI           R$  000000001243600000000124950000000012434000000001243800000000124360000000012436000000001247500019000000000000000581000000000007226710000000000000009999123100000010000000000000BRAEFICTF002120
012013081602AELP3       010AES ELPA    ON           R$  000000000078000000000007990000000000780000000000078900000000007990000000000770000000000079700002000000000000000200000000000000157900000000000000009999123100000010000000000000BRAELPACNOR2119
012013081696AELP3F      020AES ELPA    ON           R$  000000000075000000000007500000000000750000000000075000000000007500000000000752000000000090000002000000000000000044000000000000033000000000000000009999123100000010000000000000BRAELPACNOR2119
012013081696AFLU5F      020AFLUENTE    PNA          R$  000000000039000000000003900000000000390000000000039000000000003900000000000300000000000059900001000000000000000002000000000000000780000000000000009999123100000010000000000000BRAFLUACNPA2116
012013081612AGCX11      010FII AG CAIXACI           R$  000000009950000000000998000000000099500000000009977700000000997980000000099200000000009979800019000000000000000246000000000024545194000000000000009999123100000010000000000000BRAGCXCTF003109
012013081602AGRO3       010BRASILAGRO  ON      NM   R$  000000000100000000000010190000000000980000000000099500000000010000000000000983000000000100000118000000000000066900000000000066597500000000000000009999123100000010000000000000BRAGROACNOR7102
012013081662AGRO3T      030BRASILAGRO  ON      NM060R$  000000000101300000000010140000000001013000000000101300000000010140000000000000000000000000000002000000000000005000000000000005065500000000000000009999123100000010000000000000BRAGROACNOR7102
012013081602ALLL3       010ALL AMER LATON      NM   R$  000000000093500000000009400000000000905000000000092000000000009120000000000911000000000091207581000000000002691800000000002478759300000000000000009999123100000010000000000000BRALLLACNOR6118
012013081696ALLL3F      020ALL AMER LATON      NM   R$  000000000093200000000009440000000000911000000000092300000000009120000000000912000000000093900026000000000000000584000000000000539172000000000000009999123100000010000000000000BRALLLACNOR6118
012013081662ALLL3T      030ALL AMER LATON      NM031R$  000000000091800000000009190000000000918000000000091800000000009190000000000000000000000000000002000000000000002000000000000001836768000000000000009999123100000010000000000000BRALLLACNOR6118
012013081662ALLL3T      030ALL AMER LATON      NM060R$  000000000093000000000009310000000000926000000000092800000000009270000000000000000000000000000004000000000000020000000000000018576799000000000000009999123100000010000000000000BRALLLACNOR6118
012013081612ALMI11B     010FII TORRE ALCI      MB   R$  000000030900000000003130000000000308000000000030975000000003130000000000309000000000031490000005000000000000000008000000000002478000000000000000009999123100000010000000000000BRALMICTF003204
012013081602ALPA3       010ALPARGATAS  ON      N1   R$  000000000119300000000011930000000001193000000000119300000000011930000000001183000000000119300010000000000000001100000000000001312300000000000000009999123100000010000000000000BRALPAACNOR0202
012013081696ALPA3F      020ALPARGATAS  ON      N1   R$  000000000117000000000011700000000001170000000000117000000000011700000000001180000000000124900002000000000000000023000000000000026910000000000000009999123100000010000000000000BRALPAACNOR0202
012013081602ALPA4       010ALPARGATAS  PN      N1   R$  000000000134400000000013600000000001327000000000134800000000013350000000001335000000000134501598000000000000502800000000000677775100000000000000009999123100000010000000000000BRALPAACNPR7202
012013081696ALPA4F      020ALPARGATAS  PN      N1   R$  000000000134500000000013520000000001327000000000134000000000013480000000001326000000000134800011000000000000000260000000000000348467000000000000009999123100000010000000000000BRALPAACNPR7202
012013081602ALSC3       010ALIANSCE    ON      NM   R$  000000000194500000000019820000000001929000000000195400000000019400000000001940000000000194101332000000000000531100000000001038046700000000000000009999123100000010000000000000BRALSCACNOR0104
012013081696ALSC3F      020ALIANSCE    ON      NM   R$  000000000191200000000019550000000001912000000000193900000000019390000000001910000000000197000005000000000000000188000000000000364606000000000000009999123100000010000000000000BRALSCACNOR0104
012013081602ALUP11      010ALUPAR      UNT     N2   R$  000000000168100000000017090000000001681000000000170000000000017030000000001695000000000170300061000000000000145200000000000246846400000000000000009999123100000010000000000000BRALUPCDAM15100
012013081696ALUP11F     020ALUPAR      UNT     N2   R$  000000000168000000000017950000000001680000000000169700000000017950000000001681000000000170600007000000000000000191000000000000324178000000000000009999123100000010000000000000BRALUPCDAM15100
012013081602AMAR3       010LOJAS MARISAON      NM   R$  000000000202000000000020760000000002020000000000203900000000020630000000002063000000000206401604000000000000401400000000000818598500000000000000009999123100000010000000000000BRAMARACNOR4109
012013081696AMAR3F      020LOJAS MARISAON      NM   R$  000000000204400000000020440000000002001000000000203500000000020400000000002001000000000220000008000000000000000156000000000000317510000000000000009999123100000010000000000000BRAMARACNOR4109
012013081602AMBV3       010AMBEV       ON           R$  000000000860700000000087550000000008603000000000871000000000087200000000008720000000000874000932000000000000169500000000001476490100000000000000009999123100000010000000000000BRAMBVACNOR4153
012013081696AMBV3F      020AMBEV       ON           R$  000000000867700000000087540000000008601000000000870700000000087300000000008600000000000874000039000000000000001044000000000009091104000000000000009999123100000010000000000000BRAMBVACNOR4153
012013081662AMBV3S      030AMBEV       ON        031R$  000000000871900000000087200000000008719000000000871900000000087200000000000000000000000000000004000000000000010000000000000087190470000000000000009999123100000010000000000000BRAMBVACNOR4153
012013081602AMBV4       010AMBEV       PN           R$  000000000859100000000087660000000008591000000000873000000000087510000000008751000000000875706873000000000001659300000000014487163800000000000000009999123100000010000000000000BRAMBVACNPR1153
012013081696AMBV4F      020AMBEV       PN           R$  000000000861300000000087720000000008613000000000871900000000086520000000008652000000000876000142000000000000003396000000000029601923000000000000009999123100000010000000000000BRAMBVACNPR1153
012013081662AMBV4T      030AMBEV       PN        028R$  000000000876900000000087690000000008769000000000876900000000087690000000000000000000000000000001000000000000000001000000000000008769000000000000009999123100000010000000000000BRAMBVACNPR1153
012013081678AMBVH87     070AMBV        PN        000R$  000000000005500000000000590000000000050000000000005300000000000500000000000020000000000005000004000000000000004700000000000000253500000000000870002013081900000010000000000000BRAMBVACNPR1153
012013081678AMBVH89     070AMBV        PN        000R$  000000000000500000000000050000000000005000000000000500000000000050000000000000000000000000000001000000000000001000000000000000005000000000000890002013081900000010000000000000BRAMBVACNPR1153
012013081678AMBVI68     070AMBV        PN        000R$  000000000199600000000019960000000001996000000000199600000000019960000000000000000000000000000001000000000000004400000000000008782400000000000680002013091600000010000000000000BRAMBVACNPR1153
012013081678AMBVI88     070AMBV        PN        000R$  000000000015100000000001510000000000151000000000015100000000001510000000000000000000000000000001000000000000000100000000000000015100000000000880002013091600000010000000000000BRAMBVACNPR1153
012013081682AMBVT10     080AMBVE       PN        000R$  000000000124700000000012470000000001247000000000124700000000012470000000000000000000000000000001000000000000004400000000000005486800000000001000002013081900000010000000000000BRAMBVACNPR1153
012013081602ARMT11B     010ARCELOR     DRN     MB   R$  000000000163400000000016340000000001634000000000163400000000016340000000001655000000000168500001000000000000000700000000000001143800000000000000009999123100000010000000000000BRARMTBDR008111
012013081602ARTR3       010ARTERIS     ON      NM   R$  000000000227000000000022830000000002240000000000225900000000022590000000002254000000000225902019000000000002500400000000005649394500000000000000009999123100000010000000000000BRARTRACNOR3101
012013081696ARTR3F      020ARTERIS     ON      NM   R$  000000000223000000000023000000000002230000000000226800000000022510000000002251000000000226800018000000000000000534000000000001211142000000000000009999123100000010000000000000BRARTRACNOR3101
012013081602ARZZ3       010AREZZO CO   ON      NM   R$  000000000363500000000037950000000003632000000000368900000000036610000000003661000000000371300643000000000000152800000000000563808600000000000000009999123100000010000000000000BRARZZACNOR3109
012013081696ARZZ3F      020AREZZO CO   ON      NM   R$  000000000355500000000035550000000003555000000000355500000000035550000000003611000000000372000001000000000000000061000000000000216855000000000000009999123100000010000000000000BRARZZACNOR3109
012013081602AUTM3       010AUTOMETAL   ON      NM   R$  000000000182700000000019170000000001810000000000186200000000019130000000001910000000000191300977000000000000153700000000000286234500000000000000009999123100000010000000000000BRAUTMACNOR8109
012013081696AUTM3F      020AUTOMETAL   ON      NM   R$  000000000182500000000019000000000001825000000000183300000000019000000000001690000000000191000002000000000000000034000000000000062350000000000000009999123100000010000000000000BRAUTMACNOR8109
012013081602BAHI3       010BAHEMA      ON           R$  000000000049500000000004950000000000495000000000049500000000004950000000000476000000000048500001000000000000000100000000000000049500000000000000009999123100000010000000000000BRBAHIACNOR1066
012013081696BAUH4F      020EXCELSIOR   PN           R$  000000000089600000000008960000000000896000000000089600000000008960000000000750000000000100000001000000000000000056000000000000050176000000000000009999123100000010000000000000BRBAUHACNPR3108
012013081602BAZA3       010AMAZONIA    ON           R$  000000000003300000000000330000000000033000000000003300000000000330000000000033000000000003400016000000000000060000000000000001980000000000000000009999123100000010000000000000BRBAZAACNOR0163
012013081696BAZA3F      020AMAZONIA    ON           R$  000000000003100000000000340000000000031000000000003100000000000340000000000031000000000003400004000000000000000694000000000000021879000000000000009999123100000010000000000000BRBAZAACNOR0163
012013081602BBAS3       010BRASIL      ON      NM   R$  000000000232000000000023410000000002296000000000231400000000023150000000002315000000000231714955000000000007021100000000016246929200000000000000009999123100000010000000000000BRBBASACNOR3237
012013081696BBAS3F      020BRASIL      ON      NM   R$  000000000231100000000023390000000002297000000000231600000000023160000000002316000000000232500296000000000000008654000000000020046786000000000000009999123100000010000000000000BRBBASACNOR3237
012013081662BBAS3T      030BRASIL      ON      NM031R$  000000000234400000000023450000000002332000000000233600000000023330000000000000000000000000000004000000000000001200000000000002803615000000000000009999123100000010000000000000BRBBASACNOR3237
012013081662BBAS3T      030BRASIL      ON      NM060R$  000000000234000000000023410000000002340000000000234000000000023410000000000000000000000000000002000000000000001000000000000002340261000000000000009999123100000010000000000000BRBBASACNOR3237
012013081662BBAS3T      030BRASIL      ON      NM090R$  000000000235800000000023590000000002358000000000235800000000023590000000000000000000000000000002000000000000001000000000000002358471000000000000009999123100000010000000000000BRBBASACNOR3237
012013081662BBAS3T      030BRASIL      ON      NM180R$  000000000243100000000024320000000002431000000000243100000000024320000000000000000000000000000002000000000000000300000000000000729550000000000000009999123100000010000000000000BRBBASACNOR3237
012013081678BBASA24     070BBAS        ON      NM000R$  000000000015000000000001530000000000150000000000015100000000001530000000000000000000000000000003000000000000525000000000000079575000000000000240002014012000000010000000000000BRBBASACNOR3237
012013081678BBASB24     070BBAS        ON      NM000R$  000000000017700000000001770000000000177000000000017700000000001770000000000000000000000000000001000000000000000100000000000000017700000000000240002014021700000010000000000000BRBBASACNOR3237
012013081678BBASH20     070BBAS        ON      NM000R$  000000000030000000000003000000000000300000000000030000000000003000000000000000000000000032500003000000000000000300000000000000090000000000000200002013081900000010000000000000BRBBASACNOR3237
012013081678BBASH21     070BBAS        ON      NM000R$  000000000025000000000002500000000000250000000000025000000000002500000000000200000000000000000001000000000000001000000000000000250000000000000207602013081900000010000000000000BRBBASACNOR3236
012013081678BBASH22     070BBAS        ON      NM000R$  000000000016700000000001670000000000128000000000014300000000001480000000000132000000000000000018000000000000022500000000000003225100000000000217602013081900000010000000000000BRBBASACNOR3236
012013081678BBASH23     070BBAS        ON      NM000R$  000000000004900000000000600000000000036000000000004500000000000400000000000012000000000000000067000000000000232700000000000010557400000000000227602013081900000010000000000000BRBBASACNOR3236
012013081678BBASH24     070BBAS        ON      NM000R$  000000000002700000000000320000000000008000000000001400000000000090000000000009000000000000000091000000000000397000000000000005729000000000000231702013081900000010000000000000BRBBASACNOR3233
012013081678BBASH25     070BBAS        ON      NM000R$  000000000000100000000000010000000000001000000000000100000000000010000000000000000000000000100006000000000000016700000000000000016700000000000241702013081900000010000000000000BRBBASACNOR3233
012013081678BBASI21     070BBAS        ON      NM000R$  000000000024100000000002450000000000225000000000023800000000002250000000000225000000000035000007000000000000001600000000000000380800000000000210002013091600000010000000000000BRBBASACNOR3237
012013081678BBASI22     070BBAS  FM    ON      NM000R$  000000000018200000000001950000000000173000000000018000000000001810000000000173000000000024500045000000000000080600000000000014526500000000000217602013091600000010000000000000BRBBASACNOR3236
012013081678BBASI23     070BBAS  FM    ON      NM000R$  000000000011400000000001190000000000098000000000010700000000001090000000000040000000000012500043000000000000075100000000000008109800000000000227602013091600000010000000000000BRBBASACNOR3236
012013081678BBASI24     070BBAS  FM    ON      NM000R$  000000000005800000000000650000000000050000000000005600000000000580000000000054000000000005800305000000000000598800000000000033796800000000000237602013091600000010000000000000BRBBASACNOR3236
012013081678BBASI25     070BBAS  FM    ON      NM000R$  000000000003000000000000330000000000024000000000002900000000000300000000000032000000000003300106000000000000356400000000000010687300000000000246602013091600000010000000000000BRBBASACNOR3235
012013081678BBASI26     070BBAS  FM    ON      NM000R$  000000000001300000000000140000000000010000000000001200000000000100000000000007000000000001000012000000000000007500000000000000092600000000000256602013091600000010000000000000BRBBASACNOR3235
012013081678BBASI27     070BBAS        ON      NM000R$  000000000000600000000000060000000000006000000000000600000000000060000000000005000000000009800001000000000000000100000000000000000600000000000267602013091600000010000000000000BRBBASACNOR3236
012013081678BBASI28     070BBAS        ON      NM000R$  000000000000400000000000040000000000004000000000000400000000000040000000000003000000000001400002000000000000009200000000000000036800000000000276602013091600000010000000000000BRBBASACNOR3235
012013081678BBASI52     070BBAS        ON      NM000R$  000000000013000000000001320000000000126000000000012900000000001270000000000000000000000000000004000000000000013000000000000001689000000000000225002013091600000010000000000000BRBBASACNOR3237
012013081678BBASJ22     070BBAS  FM    ON      NM000R$  000000000020700000000002180000000000195000000000020300000000002000000000000000000000000000000035000000000000064800000000000013205900000000000220002013102100000010000000000000BRBBASACNOR3237
012013081678BBASJ23     070BBAS  FM    ON      NM000R$  000000000016300000000001660000000000152000000000015900000000001530000000000000000000000018500013000000000000023900000000000003820100000000000226602013102100000010000000000000BRBBASACNOR3235
012013081678BBASJ24     070BBAS  FM    ON      NM000R$  000000000010200000000001060000000000092000000000009200000000000940000000000017000000000000000099000000000000386400000000000035915500000000000237602013102100000010000000000000BRBBASACNOR3236
012013081678BBASJ25     070BBAS  FM    ON      NM000R$  000000000005300000000000580000000000049000000000005000000000000510000000000017000000000005300010000000000000010600000000000000540200000000000250002013102100000010000000000000BRBBASACNOR3237
012013081678BBASJ26     070BBAS  FM    ON      NM000R$  000000000003800000000000400000000000035000000000003600000000000350000000000035000000000004500009000000000000027800000000000001009000000000000256602013102100000010000000000000BRBBASACNOR3235
012013081678BBASJ27     070BBAS        ON      NM000R$  000000000002100000000000210000000000021000000000002100000000000210000000000018000000000002000001000000000000001000000000000000021000000000000266602013102100000010000000000000BRBBASACNOR3235
012013081678BBASJ53     070BBAS        ON      NM000R$  000000000013000000000001340000000000125000000000013000000000001300000000000000000000000000000005000000000000013000000000000001697000000000000231602013102100000010000000000000BRBBASACNOR3235
012013081678BBASJ56     070BBAS        ON      NM000R$  000000000002500000000000250000000000025000000000002500000000000250000000000000000000000000000003000000000000010800000000000000270000000000000261602013102100000010000000000000BRBBASACNOR3235
012013081678BBASK29     070BBAS        ON      NM000R$  000000000001100000000000110000000000011000000000001100000000000110000000000000000000000000000001000000000000000300000000000000003300000000000290002013111800000010000000000000BRBBASACNOR3237
012013081678BBASL20     070BBAS        ON      NM000R$  000000000040100000000004010000000000401000000000040100000000004010000000000000000000000000000001000000000000003000000000000001203000000000000200002013121600000010000000000000BRBBASACNOR3237
012013081678BBASL21     070BBAS        ON      NM000R$  000000000031700000000003170000000000317000000000031700000000003170000000000000000000000000000001000000000000003000000000000000951000000000000210002013121600000010000000000000BRBBASACNOR3237
012013081678BBASL22     070BBAS        ON      NM000R$  000000000026800000000002710000000000268000000000026900000000002710000000000000000000000000000002000000000000006000000000000001617000000000000216602013121600000010000000000000BRBBASACNOR3235
012013081678BBASL24     070BBAS        ON      NM000R$  000000000012800000000001330000000000119000000000012600000000001320000000000000000000000035000012000000000001610000000000000202879000000000000240002013121600000010000000000000BRBBASACNOR3237
012013081678BBASL25     070BBAS        ON      NM000R$  000000000009900000000001000000000000091000000000009600000000000980000000000000000000000000000006000000000001708400000000000165016600000000000246602013121600000010000000000000BRBBASACNOR3235
012013081678BBASL26     070BBAS        ON      NM000R$  000000000006500000000000650000000000063000000000006300000000000640000000000000000000000000000003000000000001703000000000000107795000000000000256602013121600000010000000000000BRBBASACNOR3235
012013081678BBASL27     070BBAS        ON      NM000R$  000000000003500000000000350000000000034000000000003400000000000350000000000000000000000000000003000000000001703000000000000058405000000000000270002013121600000010000000000000BRBBASACNOR3237
012013081678BBASL28     070BBAS        ON      NM000R$  000000000002300000000000230000000000021000000000002200000000000210000000000000000000000000000002000000000001700000000000000038100000000000000280002013121600000010000000000000BRBBASACNOR3237
012013081678BBASL60     070BBAS        ON      NM000R$  000000000000600000000000060000000000005000000000000500000000000050000000000000000000000000000002000000000001700000000000000009700000000000000296702013121600000010000000000000BRBBASACNOR3233
012013081682BBAST22     080BBASE       ON      NM000R$  000000000000100000000000010000000000001000000000000100000000000010000000000000000000000000100001000000000000000100000000000000000100000000000217602013081900000010000000000000BRBBASACNOR3236
012013081682BBAST24     080BBASE       ON      NM000R$  000000000001000000000000250000000000005000000000001500000000000210000000000005000000000000000118000000000000257300000000000004089300000000000231702013081900000010000000000000BRBBASACNOR3233
012013081682BBASU20     080BBASE       ON      NM000R$  000000000000900000000000090000000000009000000000000900000000000090000000000004000000000000900001000000000000000100000000000000000900000000000200002013091600000010000000000000BRBBASACNOR3237
012013081682BBASU21     080BBASE FM    ON      NM000R$  000000000001300000000000170000000000012000000000001200000000000170000000000000000000000000000004000000000000006500000000000000084400000000000210002013091600000010000000000000BRBBASACNOR3237
012013081682BBASU22     080BBASE FM    ON      NM000R$  000000000003100000000000310000000000025000000000002500000000000300000000000019000000000003400016000000000000022600000000000000586100000000000217602013091600000010000000000000BRBBASACNOR3236
012013081682BBASU23     080BBASE FM    ON      NM000R$  000000000005500000000000600000000000049000000000005600000000000600000000000040000000000008100012000000000000022800000000000001285800000000000227602013091600000010000000000000BRBBASACNOR3236
012013081682BBASU24     080BBASE FM    ON      NM000R$  000000000010300000000001100000000000096000000000010300000000001080000000000066000000000000000018000000000000036500000000000003789800000000000237602013091600000010000000000000BRBBASACNOR3236
012013081682BBASV21     080BBASE FM    ON      NM000R$  000000000003400000000000340000000000032000000000003200000000000320000000000000000000000000000008000000000000012400000000000000399200000000000210002013102100000010000000000000BRBBASACNOR3237
012013081682BBASV22     080BBASE FM    ON      NM000R$  000000000005900000000000600000000000053000000000005800000000000580000000000049000000000000000005000000000000007500000000000000441900000000000220002013102100000010000000000000BRBBASACNOR3237
012013081682BBASV23     080BBASE FM    ON      NM000R$  000000000007600000000000810000000000073000000000007800000000000800000000000000000000000000000011000000000000020000000000000001574800000000000226602013102100000010000000000000BRBBASACNOR3235
012013081682BBASV24     080BBASE FM    ON      NM000R$  000000000012500000000001320000000000120000000000012800000000001310000000000000000000000000000020000000000000037000000000000004737400000000000237602013102100000010000000000000BRBBASACNOR3236
012013081682BBASW23     080BBASE       ON      NM000R$  000000000010400000000001040000000000104000000000010400000000001040000000000000000000000000000001000000000000002000000000000000208000000000000230002013111800000010000000000000BRBBASACNOR3237
012013081682BBASX21     080BBASE       ON      NM000R$  000000000004900000000000490000000000047000000000004800000000000480000000000000000000000000000003000000000001700000000000000082536000000000000210002013121600000010000000000000BRBBASACNOR3237
012013081602BBDC3       010BRADESCO    ON      N1   R$  000000000313600000000031900000000003105000000000314500000000031560000000003135000000000315603750000000000000803300000000002526552300000000000000009999123100000010000000000000BRBBDCACNOR1605
012013081696BBDC3F      020BRADESCO    ON      N1   R$  000000000318100000000032270000000003105000000000313300000000031200000000003120000000000316000031000000000000000806000000000002525235000000000000009999123100000010000000000000BRBBDCACNOR1605
012013081602BBDC4       010BRADESCO    PN      N1   R$  000000000288200000000029060000000002823000000000285500000000028500000000002848000000000285023458000000000009534400000000027225800800000000000000009999123100000010000000000000BRBBDCACNPR8605
012013081696BBDC4F      020BRADESCO    PN      N1   R$  000000000287500000000029020000000002821000000000285200000000028680000000002856000000000286800296000000000000009035000000000025775995000000000000009999123100000010000000000000BRBBDCACNPR8605
012013081662BBDC4T      030BRADESCO    PN      N1017R$  000000000289200000000028950000000002890000000000289300000000028950000000000000000000000000000010000000000000002000000000000005786705000000000000009999123100000010000000000000BRBBDCACNPR8605
012013081662BBDC4T      030BRADESCO    PN      N1031R$  000000000290100000000029020000000002866000000000287200000000028700000000000000000000000000000008000000000000003400000000000009766729000000000000009999123100000010000000000000BRBBDCACNPR8605
012013081662BBDC4T      030BRADESCO    PN      N1045R$  000000000286700000000028680000000002867000000000286700000000028680000000000000000000000000000002000000000000001000000000000002867548000000000000009999123100000010000000000000BRBBDCACNPR8605
012013081662BBDC4T      030BRADESCO    PN      N1122R$  000000000296000000000029610000000002960000000000296000000000029610000000000000000000000000000002000000000000001100000000000003256112000000000000009999123100000010000000000000BRBBDCACNPR8605
012013081662BBDC4T      030BRADESCO    PN      N1150R$  000000000301400000000030150000000003014000000000301400000000030150000000000000000000000000000002000000000000005000000000000015071140000000000000009999123100000010000000000000BRBBDCACNPR8605
012013081678BBDCH26     070BBDC        PN      N1000R$  000000000027400000000002770000000000272000000000027300000000002740000000000000000000000000000020000000000000009300000000000002545600000000000257802013081900000010000000000000BRBBDCACNPR8602
012013081678BBDCH27     070BBDC        PN      N1000R$  000000000018000000000001840000000000180000000000018100000000001840000000000000000000000000000022000000000000020700000000000003754200000000000267802013081900000010000000000000BRBBDCACNPR8602
012013081678BBDCH28     070BBDC        PN      N1000R$  000000000009000000000001220000000000062000000000007700000000000850000000000048000000000000000040000000000000036600000000000002853300000000000277802013081900000010000000000000BRBBDCACNPR8602
012013081678BBDCH29     070BBDC        PN      N1000R$  000000000002300000000000390000000000010000000000001500000000000100000000000010000000000004400095000000000000150800000000000002359600000000000287802013081900000010000000000000BRBBDCACNPR8602
012013081678BBDCH30     070BBDC        PN      N1000R$  000000000000400000000000050000000000002000000000000200000000000020000000000001000000000000200010000000000000040700000000000000102300000000000297802013081900000010000000000000BRBBDCACNPR8602
012013081678BBDCH31     070BBDC        PN      N1000R$  000000000000200000000000020000000000002000000000000200000000000020000000000001000000000000200003000000000000004000000000000000008000000000000307402013081900000010000000000000BRBBDCACNPR8600
012013081678BBDCH34     070BBDC        PN      N1000R$  000000000000100000000000010000000000001000000000000100000000000010000000000000000000000000100001000000000000000700000000000000000700000000000305302013081900000010000000000000BRBBDCACNPR8595
012013081678BBDCI27     070BBDC        PN      N1000R$  000000000020200000000002080000000000200000000000020600000000002000000000000195000000000021900005000000000000006100000000000001260200000000000267802013091600000010000000000000BRBBDCACNPR8602
012013081678BBDCI28     070BBDC        PN      N1000R$  000000000016300000000001740000000000125000000000014000000000001250000000000119000000000019800153000000000000193900000000000027230300000000000277802013091600000010000000000000BRBBDCACNPR8602
012013081678BBDCI29     070BBDC        PN      N1000R$  000000000009000000000001070000000000070000000000008200000000000830000000000071000000000009000113000000000000152500000000000012583500000000000287802013091600000010000000000000BRBBDCACNPR8602
012013081678BBDCI30     070BBDC        PN      N1000R$  000000000004900000000000570000000000034000000000003900000000000450000000000037000000000004500099000000000000112100000000000004469600000000000297802013091600000010000000000000BRBBDCACNPR8602
012013081678BBDCI31     070BBDC        PN      N1000R$  000000000018300000000001830000000000160000000000017200000000001600000000000000000000000000000088000000000000040000000000000006889700000000000272902013091600000010000000000000BRBBDCACNPR8590
012013081678BBDCI32     070BBDC        PN      N1000R$  000000000000900000000000110000000000009000000000001000000000000100000000000006000000000000000012000000000000015200000000000000155000000000000317802013091600000010000000000000BRBBDCACNPR8602
012013081678BBDCI33     070BBDC        PN      N1000R$  000000000004100000000000420000000000041000000000004100000000000420000000000039000000000000000007000000000000019900000000000000828200000000000297202013091600000010000000000000BRBBDCACNPR8598
012013081678BBDCI75     070BBDCE       PN      N1000R$  000000000011200000000001120000000000112000000000011200000000001120000000000000000000000000000001000000000000002100000000000000235200000000000282302013091600000010000000000000BRBBDCACNPR8604
012013081678BBDCI81     070BBDC        PN      N1000R$  000000000002100000000000260000000000016000000000002300000000000200000000000006000000000002100098000000000000188500000000000004375800000000000307802013091600000010000000000000BRBBDCACNPR8602
012013081678BBDCJ29     070BBDC        PN      N1000R$  000000000015900000000001650000000000128000000000013300000000001430000000000000000000000000000092000000000000201300000000000026863900000000000287802013102100000010000000000000BRBBDCACNPR8602
012013081678BBDCJ30     070BBDC        PN      N1000R$  000000000008900000000001120000000000088000000000009800000000000970000000000000000000000000000014000000000000022900000000000002263700000000000297802013102100000010000000000000BRBBDCACNPR8602
012013081678BBDCJ31     070BBDC        PN      N1000R$  000000000005600000000000650000000000056000000000005600000000000580000000000010000000000007000010000000000000017100000000000000965400000000000307802013102100000010000000000000BRBBDCACNPR8602
012013081678BBDCJ32     070BBDC        PN      N1000R$  000000000003500000000000350000000000035000000000003500000000000350000000000037000000000005200001000000000000000300000000000000010500000000000317802013102100000010000000000000BRBBDCACNPR8602
012013081678BBDCJ58     070BBDC        PN      N1000R$  000000000020700000000002140000000000177000000000019100000000001920000000000000000000000000000025000000000000041300000000000007889300000000000280002013102100000010000000000000BRBBDCACNPR8605
012013081678BBDCK27     070BBDC        PN      N1000R$  000000000027900000000002790000000000279000000000027900000000002790000000000000000000000000000001000000000000003000000000000000837000000000000269602013111800000010000000000000BRBBDCACNPR8603
012013081678BBDCK30     070BBDC        PN      N1000R$  000000000012500000000001250000000000125000000000012500000000001250000000000000000000000000000005000000000000004000000000000000500000000000000300002013111800000010000000000000BRBBDCACNPR8605
012013081678BBDCK9      070BBDC        PN      N1000R$  000000000015400000000001540000000000154000000000015400000000001540000000000000000000000000000001000000000000003000000000000000462000000000000290002013111800000010000000000000BRBBDCACNPR8605
012013081678BBDCL28     070BBDC        PN      N1000R$  000000000024200000000002420000000000242000000000024200000000002420000000000000000000000000000001000000000000003000000000000000726000000000000279802013121600000010000000000000BRBBDCACNPR8604
012013081678BBDCL29     070BBDC        PN      N1000R$  000000000019600000000001960000000000192000000000019400000000001920000000000000000000000000000002000000000000004200000000000000818400000000000287802013121600000010000000000000BRBBDCACNPR8602
012013081678BBDCL31     070BBDC        PN      N1000R$  000000000024800000000002480000000000248000000000024800000000002480000000000000000000000000000001000000000000003000000000000000744000000000000278802013121600000010000000000000BRBBDCACNPR8597
012013081678BBDCL33     070BBDC        PN      N1000R$  000000000014300000000001430000000000143000000000014300000000001430000000000000000000000000000001000000000000001200000000000000171600000000000297202013121600000010000000000000BRBBDCACNPR8598
012013081682BBDCT27     080BBDCE       PN      N1000R$  000000000000100000000000030000000000001000000000000100000000000010000000000001000000000011600004000000000000010200000000000000010400000000000267802013081900000010000000000000BRBBDCACNPR8602
012013081682BBDCT28     080BBDCE       PN      N1000R$  000000000000600000000000090000000000003000000000000700000000000030000000000000000000000000000013000000000000025100000000000000181500000000000277802013081900000010000000000000BRBBDCACNPR8602
012013081682BBDCT29     080BBDCE       PN      N1000R$  000000000003900000000000470000000000037000000000004500000000000470000000000000000000000008800005000000000000011700000000000000535300000000000287802013081900000010000000000000BRBBDCACNPR8602
012013081682BBDCT30     080BBDCE       PN      N1000R$  000000000010500000000001430000000000104000000000013000000000001410000000000000000000000000000103000000000000010300000000000001346200000000000297802013081900000010000000000000BRBBDCACNPR8602
012013081682BBDCU24     080BBDCE       PN      N1000R$  000000000000500000000000050000000000005000000000000500000000000050000000000000000000000000000001000000000000000100000000000000000500000000000239802013091600000010000000000000BRBBDCACNPR8604
012013081682BBDCU25     080BBDCE       PN      N1000R$  000000000000900000000000090000000000009000000000000900000000000090000000000000000000000000000001000000000000000100000000000000000900000000000249802013091600000010000000000000BRBBDCACNPR8604
012013081682BBDCU26     080BBDCE       PN      N1000R$  000000000001300000000000170000000000013000000000001600000000000170000000000000000000000000000002000000000000000600000000000000009800000000000259802013091600000010000000000000BRBBDCACNPR8604
012013081682BBDCU27     080BBDCE       PN      N1000R$  000000000002100000000000300000000000018000000000002700000000000280000000000018000000000003400074000000000000116800000000000003168300000000000267802013091600000010000000000000BRBBDCACNPR8602
012013081682BBDCU28     080BBDCE       PN      N1000R$  000000000004900000000000560000000000039000000000004900000000000520000000000043000000000000000031000000000000068000000000000003338900000000000277802013091600000010000000000000BRBBDCACNPR8602
012013081682BBDCU29     080BBDCE       PN      N1000R$  000000000007600000000000990000000000068000000000008800000000000890000000000000000000000000000127000000000000052100000000000004611800000000000287802013091600000010000000000000BRBBDCACNPR8602
012013081682BBDCU30     080BBDCE       PN      N1000R$  000000000012800000000001660000000000123000000000015000000000001510000000000000000000000000000043000000000000067600000000000010148500000000000297802013091600000010000000000000BRBBDCACNPR8602
012013081682BBDCU31     080BBDCE       PN      N1000R$  000000000003400000000000400000000000034000000000003900000000000390000000000000000000000000000003000000000000005600000000000000222900000000000272902013091600000010000000000000BRBBDCACNPR8590
012013081682BBDCU33     080BBDCE       PN      N1000R$  000000000012700000000001540000000000127000000000014400000000001450000000000000000000000000000003000000000000004800000000000000693300000000000297202013091600000010000000000000BRBBDCACNPR8598
012013081682BBDCU75     080BBDCE       PN      N1000R$  000000000006900000000000690000000000069000000000006900000000000690000000000000000000000000000005000000000000019200000000000001324800000000000282302013091600000010000000000000BRBBDCACNPR8604
012013081682BBDCV25     080BBDCE       PN      N1000R$  000000000002800000000000280000000000028000000000002800000000000280000000000000000000000000000001000000000000000100000000000000002800000000000249602013102100000010000000000000BRBBDCACNPR8603
012013081682BBDCV27     080BBDCE       PN      N1000R$  000000000006000000000000610000000000060000000000006000000000000610000000000000000000000000000002000000000000002100000000000000128000000000000267802013102100000010000000000000BRBBDCACNPR8602
012013081682BBDCV29     080BBDCE       PN      N1000R$  000000000012000000000001270000000000113000000000012100000000001270000000000000000000000000000007000000000000014400000000000001747100000000000287802013102100000010000000000000BRBBDCACNPR8602
012013081682BBDCV30     080BBDCE       PN      N1000R$  000000000017500000000001890000000000163000000000017800000000001790000000000000000000000000000011000000000000019600000000000003502100000000000297802013102100000010000000000000BRBBDCACNPR8602
012013081682BBDCV58     080BBDCE       PN      N1000R$  000000000008400000000001000000000000084000000000009300000000001000000000000000000000000000000003000000000000006100000000000000570400000000000280002013102100000010000000000000BRBBDCACNPR8605
012013081682BBDCW28     080BBDCE       PN      N1000R$  000000000010600000000001060000000000106000000000010600000000001060000000000000000000000000000001000000000000003000000000000000318000000000000277802013111800000010000000000000BRBBDCACNPR8602
012013081682BBDCX27     080BBDCE       PN      N1000R$  000000000009300000000000930000000000093000000000009300000000000930000000000000000000000000000001000000000000001200000000000000111600000000000269802013121600000010000000000000BRBBDCACNPR8604
012013081682BBDCX30     080BBDCE       PN      N1000R$  000000000009200000000000920000000000092000000000009200000000000920000000000000000000000000000003000000000000001400000000000000128800000000000269702013121600000010000000000000BRBBDCACNPR8597
012013081682BBDCX31     080BBDCE       PN      N1000R$  000000000012200000000001220000000000122000000000012200000000001220000000000000000000000000000001000000000000001200000000000000146400000000000278802013121600000010000000000000BRBBDCACNPR8597
012013081682BBDCX57     080BBDCE       PN      N1000R$  000000000011100000000001110000000000111000000000011100000000001110000000000000000000000000000001000000000000001200000000000000133200000000000275402013121600000010000000000000BRBBDCACNPR8600
012013081612BBFI11B     010FII BB PROGRCI      MB   R$  000000042500000000004250000000000425000000000042500000000004250000000000422000000000042500000002000000000000000009000000000003825000000000000000009999123100000010000000000000BRBBFICTF006197
012013081612BBPO11      010FII BB PRGIICI           R$  000000001095100000000110900000000010900000000001097600000000110490000000010952000000001104900261000000000000023322000000000255998539000000000000009999123100000010000000000000BRBBPOCTF003109
012013081612BBRC11      010FII BB CORP CI           R$  000000000940000000000095000000000009400000000000946000000000094200000000009250000000000943000008000000000000000345000000000003263840000000000000009999123100000010000000000000BRBBRCCTF004123
012013081602BBRK3       010BR BROKERS  ON      NM   R$  000000000054600000000005490000000000536000000000054100000000005430000000000540000000000054303915000000000001040900000000000563599700000000000000009999123100000010000000000000BRBBRKACNOR4108
012013081696BBRK3F      020BR BROKERS  ON      NM   R$  000000000054100000000005410000000000541000000000054100000000005410000000000511000000000060800001000000000000000041000000000000022181000000000000009999123100000010000000000000BRBBRKACNOR4108
012013081602BBSE3       010BBSEGURIDADEON      NM   R$  000000000193700000000019740000000001895000000000192900000000019310000000001931000000000193214371000000000004835900000000009329470200000000000000009999123100000010000000000000BRBBSEACNOR5100
012013081696BBSE3F      020BBSEGURIDADEON      NM   R$  000000000193600000000019700000000001894000000000193500000000019200000000001917000000000192000362000000000000011805000000000022844409000000000000009999123100000010000000000000BRBBSEACNOR5100
012013081662BBSE3S      030BBSEGURIDADEON      NM090R$  000000000196900000000019700000000001969000000000196900000000019700000000000000000000000000000002000000000000001000000000000001969083000000000000009999123100000010000000000000BRBBSEACNOR5100
012013081662BBSE3T      030BBSEGURIDADEON      NM090R$  000000000197700000000019970000000001938000000000197000000000019650000000000000000000000000000100000000000000700500000000001380210357000000000000009999123100000010000000000000BRBBSEACNOR5100
012013081662BBSE3T      030BBSEGURIDADEON      NM017R$  000000000192800000000019290000000001928000000000192800000000019290000000000000000000000000000002000000000000003000000000000005786052000000000000009999123100000010000000000000BRBBSEACNOR5100
012013081662BBSE3T      030BBSEGURIDADEON      NM031R$  000000000193600000000019380000000001936000000000193600000000019380000000000000000000000000000004000000000000006800000000000013170354000000000000009999123100000010000000000000BRBBSEACNOR5100
012013081678BBSEH20     070BBSE        ON      NM000R$  000000000000500000000000060000000000005000000000000500000000000060000000000000000000000000000002000000000000250000000000000001320000000000000200002013081900000010000000000000BRBBSEACNOR5100
012013081678BBSEH49     070BBSE        ON      NM000R$  000000000000700000000000070000000000007000000000000700000000000070000000000000000000000000000001000000000000250000000000000001750000000000000195002013081900000010000000000000BRBBSEACNOR5100
012013081678BBSEI20     070BBSE        ON      NM000R$  000000000002000000000000200000000000020000000000002000000000000200000000000000000000000000000001000000000000002000000000000000040000000000000200002013091600000010000000000000BRBBSEACNOR5100
012013081682BBSEV78     080BBSEE       ON      NM000R$  000000000002700000000000270000000000027000000000002700000000000270000000000000000000000000000002000000000000462500000000000012487500000000000182502013102100000010000000000000BRBBSEACNOR5100
012013081602BBTG11      010BTG PACTUAL UNT EDJ      R$  000000000286900000000028690000000002763000000000283200000000028600000000002842000000000286001337000000000000308300000000000873410400000000000000009999123100000010000000000000BRBBTGUNT007105
012013081696BBTG11F     020BTG PACTUAL UNT EDJ      R$  000000000279500000000028550000000002780000000000281000000000028500000000002656000000000290000008000000000000000129000000000000362612000000000000009999123100000010000000000000BRBBTGUNT007105
012013081662BBTG11T     030BTG PACTUAL UNT EDJ   180R$  000000000292700000000029280000000002927000000000292700000000029280000000000000000000000000000002000000000000006400000000000018738228000000000000009999123100000010000000000000BRBBTGUNT007105
012013081612BBVJ11      010FII C JARDIMCI           R$  000000000803000000000080300000000007940000000000799400000000079400000000007920000000000799000014000000000000000351000000000002805940000000000000009999123100000010000000000000BRBBVJCTF001132
012013081612BCFF11B     010FII BC FFII CI  ER  MB   R$  000000000992000000000099900000000009800000000000986000000000098300000000009801000000000983000084000000000000008215000000000081003613000000000000009999123100000010000000000000BRBCFFCTF000141
012013081602BEEF3       010MINERVA     ON      NM   R$  000000000104400000000010760000000001026000000000105400000000010750000000001075000000000107605444000000000001824400000000001923537700000000000000009999123100000010000000000000BRBEEFACNOR6104
012013081696BEEF3F      020MINERVA     ON      NM   R$  000000000103500000000010680000000000951000000000104100000000010680000000001068000000000107500009000000000000000181000000000000188521000000000000009999123100000010000000000000BRBEEFACNOR6104
012013081602BEES3       010BANESTES    ON           R$  000000000004700000000000470000000000047000000000004700000000000470000000000046000000000004700009000000000000029600000000000001391200000000000000009999123100000010000000000000BRBEESACNOR9243
012013081696BEES3F      020BANESTES    ON           R$  000000000004700000000000470000000000047000000000004700000000000470000000000047000000000005100001000000000000000004000000000000000188000000000000009999123100000010000000000000BRBEESACNOR9243
012013081602BEES4       010BANESTES    PN           R$  000000000004300000000000440000000000042000000000004200000000000420000000000042000000000004500018000000000000128100000000000005495300000000000000009999123100000010000000000000BRBEESACNPR6168
012013081662BEES4T      030BANESTES    PN        025R$  000000000004300000000000440000000000043000000000004300000000000440000000000000000000000000000002000000000000002800000000000000121086000000000000009999123100000010000000000000BRBEESACNPR6168
012013081662BEES4T      030BANESTES    PN        180R$  000000000004500000000000460000000000045000000000004500000000000460000000000000000000000000000002000000000000110000000000000004950891000000000000009999123100000010000000000000BRBEESACNPR6168
012013081602BEMA3       010BEMATECH    ON  ED  NM   R$  000000000071800000000007260000000000695000000000070600000000007000000000000699000000000070000418000000000000155900000000000110081500000000000000009999123100000010000000000000BRBEMAACNOR0114
012013081696BEMA3F      020BEMATECH    ON  ED  NM   R$  000000000075000000000007500000000000701000000000071100000000007020000000000696000000000071500016000000000000000474000000000000337329000000000000009999123100000010000000000000BRBEMAACNOR0114
012013081602BGIP4       010BANESE      PN           R$  000000000465000000000046790000000004558000000000464100000000046790000000004557000000000468000005000000000000000800000000000003713500000000000000009999123100000010000000000000BRBGIPACNPR8178
012013081696BGIP4F      020BANESE      PN           R$  000000000472000000000047500000000004720000000000472000000000047200000000004780000000000570000003000000000000000071000000000000335180000000000000009999123100000010000000000000BRBGIPACNPR8178
012013081602BHGR3       010BHG         ON      NM   R$  000000000147600000000014890000000001400000000000142100000000014200000000001420000000000147500304000000000000194600000000000276710800000000000000009999123100000010000000000000BRBHGRACNOR9101
012013081662BHGR3T      030BHG         ON      NM060R$  000000000145000000000014510000000001450000000000145000000000014510000000000000000000000000000002000000000000001000000000000001450759000000000000009999123100000010000000000000BRBHGRACNOR9101
012013081602BICB4       010BICBANCO    PN      N1   R$  000000000037500000000003800000000000362000000000036800000000003750000000000375000000000037900274000000000000348400000000000128334800000000000000009999123100000010000000000000BRBICBACNPR7131
012013081696BICB4F      020BICBANCO    PN      N1   R$  000000000038000000000003800000000000380000000000038000000000003800000000000375000000000038000003000000000000000005000000000000001900000000000000009999123100000010000000000000BRBICBACNPR7131
012013081662BICB4T      030BICBANCO    PN      N1060R$  000000000037100000000003720000000000371000000000037100000000003720000000000000000000000000000002000000000000015000000000000005571949000000000000009999123100000010000000000000BRBICBACNPR7131
012013081696BIOM4F      020BIOMM       PN           R$  000000000077000000000007700000000000770000000000077000000000007700000000000770000000000087000002000000000000000004000000000000003080000000000000009999123100000010000000000000BRBIOMACNPR9101
012013081602BISA3       010BROOKFIELD  ON      NM   R$  000000000018300000000001890000000000181000000000018700000000001890000000000188000000000018907471000000000015702100000000002940009200000000000000009999123100000010000000000000BRBISAACNOR8109
012013081696BISA3F      020BROOKFIELD  ON      NM   R$  000000000018400000000001900000000000174000000000018500000000001890000000000175000000000019000020000000000000000663000000000000122755000000000000009999123100000010000000000000BRBISAACNOR8109
012013081662BISA3T      030BROOKFIELD  ON      NM031R$  000000000018400000000001910000000000184000000000018500000000001910000000000000000000000000000004000000000000174000000000000032250431000000000000009999123100000010000000000000BRBISAACNOR8109
012013081662BISA3T      030BROOKFIELD  ON      NM090R$  000000000019100000000001930000000000191000000000019200000000001930000000000000000000000000000004000000000005010000000000000963060205000000000000009999123100000010000000000000BRBISAACNOR8109
012013081612BJRC11      010FII JS RECIMCI           R$  000000008800000000000897000000000085000000000008712800000000870000000000085000000000008600000008000000000000000142000000000012372201000000000000009999123100000010000000000000BRBJRCCTF007109
012013081602BMEB3       010MERC BRASIL ON  EJ       R$  000000000168000000000016800000000001680000000000168000000000016800000000000000000000000180000002000000000000000200000000000000336000000000000000009999123100000010000000000000BRBMEBACNOR8190
012013081696BMEB3F      020MERC BRASIL ON  EJ       R$  000000000150800000000015080000000001508000000000150800000000015080000000001508000000000000000001000000000000000058000000000000087464000000000000009999123100000010000000000000BRBMEBACNOR8190
012013081602BMEB4       010MERC BRASIL PN  EJ       R$  000000000111500000000011150000000001105000000000111000000000011100000000001105000000000112200003000000000000000800000000000000888500000000000000009999123100000010000000000000BRBMEBACNPR5191
012013081696BMEB4F      020MERC BRASIL PN  EJ       R$  000000000104800000000010480000000001040000000000104400000000010400000000001048000000000114000003000000000000000123000000000000128504000000000000009999123100000010000000000000BRBMEBACNPR5191
012013081602BMIN4       010MERC INVEST PN           R$  000000000002300000000000230000000000023000000000002300000000000230000000000023000000000002400007000000000000034000000000000000782000000000000000009999123100000010000000000000BRBMINACNPR1159
012013081696BMIN4F      020MERC INVEST PN           R$  000000000002300000000000230000000000022000000000002200000000000230000000000023000000000000000004000000000000000954000000000000021620000000000000009999123100000010000000000000BRBMINACNPR1159
012013081612BMLC11B     010FII BMBRC LCCI  ER  MB   R$  000000001170000000000117900000000011700000000001174700000000117900000000011660000000001179000016000000000000001185000000000013921150000000000000009999123100000010000000000000BRBMLCCTF004118
012013081602BMTO4       010BRASMOTOR   PN           R$  000000000008400000000000870000000000084000000000008400000000000870000000000085000000000008700004000000000000010000000000000000849000000000000000009999123100000010000000000000BRBMTOACNPR6065
012013081696BMTO4F      020BRASMOTOR   PN           R$  000000000008400000000000840000000000080000000000008100000000000800000000000080000000000008600002000000000000000538000000000000043852000000000000009999123100000010000000000000BRBMTOACNPR6065
012013081602BNBR3       010NORD BRASIL ON           R$  000000000200100000000020010000000002001000000000200100000000020010000000002000000000000248900004000000000000000700000000000001400700000000000000009999123100000010000000000000BRBNBRACNOR8187
012013081696BNBR3F      020NORD BRASIL ON           R$  000000000190100000000019010000000001901000000000190100000000019010000000001650000000000220000001000000000000000001000000000000001901000000000000009999123100000010000000000000BRBNBRACNOR8187
012013081602BOAC11B     010BANK AMERICADRN     MB   R$  000000000339500000000033950000000003395000000000339500000000033950000000003420000000000348500001000000000000000300000000000001018500000000000000009999123100000010000000000000BRBOACBDR004111
012013081602BOBR4       010BOMBRIL     PN           R$  000000000069000000000006990000000000680000000000069200000000006800000000000680000000000069900009000000000000003000000000000002076900000000000000009999123100000010000000000000BRBOBRACNPR3127
012013081614BOVA11      010ISHARES BOVACI           R$  000000000500000000000050750000000004982000000000502500000000050570000000005045000000000505707946000000000003041710000000015285250160000000000000009999123100000010000000000000BRBOVACTF003101
012013081696BOVA11F     020ISHARES BOVACI           R$  000000000500000000000050590000000005000000000000503100000000050590000000005000000000000508400010000000000000000024000000000000120746000000000000009999123100000010000000000000BRBOVACTF003101
012013081682BOVAT64     080BOVAE       CI        000R$  000000000138800000000013880000000001388000000000138800000000013880000000000000000000000000000002000000000000012000000000000016656000000000000640002013081900000010000000000000BRBOVACTF003101
012013081682BOVAV64     080BOVAE       CI        000R$  000000000135900000000013590000000001359000000000135900000000013590000000000000000000000000000002000000000000012000000000000016308000000000000640002013102100000010000000000000BRBOVACTF003101
012013081696BPAT11F     020PATAGONIA   DR3          R$  000000000180000000000018000000000001800000000000180000000000018000000000000000000000000180000001000000000000000001000000000000001800000000000000009999123100000010000000000000BRBPATBDR005104
012013081612BPFF11      010FII ABSOLUTOCI           R$  000000000885000000000088500000000008550000000000860400000000088200000000008600000000000882000025000000000000001339000000000011520779000000000000009999123100000010000000000000BRBPFFCTF002104
012013081602BPHA3       010BR PHARMA   ON      NM   R$  000000000097400000000009990000000000974000000000099000000000009900000000000990000000000099601378000000000000450400000000000446037600000000000000009999123100000010000000000000BRBPHAACNOR6102
012013081602BPNM4       010PANAMERICANOPN      N1   R$  000000000054200000000005720000000000542000000000055400000000005650000000000564000000000056500351000000000000403400000000000223787300000000000000009999123100000010000000000000BRBPNMACNPR6111
012013081696BPNM4F      020PANAMERICANOPN      N1   R$  000000000056000000000005670000000000550000000000056100000000005640000000000551000000000056300005000000000000000128000000000000071877000000000000009999123100000010000000000000BRBPNMACNPR6111
012013081662BPNM4T      030PANAMERICANOPN      N1090R$  000000000056200000000005630000000000562000000000056200000000005630000000000000000000000000000002000000000000200000000000000112492160000000000000009999123100000010000000000000BRBPNMACNPR6111
012013081602BRAP3       010BRADESPAR   ON      N1   R$  000000000205700000000021100000000002057000000000209300000000021100000000002081000000000211000024000000000000003300000000000006908200000000000000009999123100000010000000000000BRBRAPACNOR5124
012013081696BRAP3F      020BRADESPAR   ON      N1   R$  000000000205000000000020700000000002050000000000205500000000020570000000002057000000000211300005000000000000000109000000000000224085000000000000009999123100000010000000000000BRBRAPACNOR5124
012013081602BRAP4       010BRADESPAR   PN      N1   R$  000000000257900000000026090000000002558000000000258500000000026090000000002608000000000260906632000000000001266400000000003274242300000000000000009999123100000010000000000000BRBRAPACNPR2124
012013081696BRAP4F      020BRADESPAR   PN      N1   R$  000000000256000000000026050000000002517000000000257800000000026050000000002600000000000260500030000000000000000594000000000001531826000000000000009999123100000010000000000000BRBRAPACNPR2124
012013081662BRAP4T      030BRADESPAR   PN      N1090R$  000000000266200000000026630000000002662000000000266200000000026630000000000000000000000000000002000000000000001000000000000002662224000000000000009999123100000010000000000000BRBRAPACNPR2124
012013081614BRAX11      010ISHARES BRAXCI           R$  000000000408100000000040970000000004081000000000409600000000040970000000000000000000000000000003000000000000101260000000000414862060000000000000009999123100000010000000000000BRBRAXCTF002100
012013081612BRCR11      010FII BC FUND CI  ER       R$  000000001299000000000129900000000012703000000001278600000000127030000000012703000000001280001880000000000000051375000000000656931327000000000000009999123100000010000000000000BRBRCRCTF000132
012013081602BRFS3       010BRF SA      ON      NM   R$  000000000557000000000056490000000005526000000000559200000000055960000000005596000000000560011800000000000003122000000000017459323300000000000000009999123100000010000000000000BRBRFSACNOR8110
012013081696BRFS3F      020BRF SA      ON      NM   R$  000000000556200000000056420000000005560000000000559800000000056160000000005561000000000561000153000000000000004594000000000025720713000000000000009999123100000010000000000000BRBRFSACNOR8110
012013081662BRFS3T      030BRF SA      ON      NM090R$  000000000570300000000057140000000005702000000000570600000000057140000000000000000000000000000008000000000000003000000000000017119614000000000000009999123100000010000000000000BRBRFSACNOR8110
012013081662BRFS3T      030BRF SA      ON      NM122R$  000000000572000000000057210000000005720000000000572000000000057210000000000000000000000000000002000000000000001000000000000005720947000000000000009999123100000010000000000000BRBRFSACNOR8110
012013081678BRFSJ61     070BRFS        ON      NM000R$  000000000005700000000000580000000000057000000000005700000000000580000000000000000000000000000003000000000000270000000000000015525000000000000610002013102100000010000000000000BRBRFSACNOR8110
012013081682BRFSV51     080BRFSE       ON      NM000R$  000000000007400000000000740000000000074000000000007400000000000740000000000000000000000000000002000000000000270000000000000019980000000000000510002013102100000010000000000000BRBRFSACNOR8110
012013081682BRFSV54     080BRFSE       ON      NM000R$  000000000014000000000001400000000000140000000000014000000000001400000000000000000000000000000002000000000000270000000000000037800000000000000540002013102100000010000000000000BRBRFSACNOR8110
012013081602BRGE12      010ALFA CONSORCPNF EDJ      R$  000000000033600000000003360000000000336000000000033600000000003360000000000336000000000000000001000000000000000100000000000000033600000000000000009999123100000010000000000000BRBRGEACNPF8091
012013081602BRGE3       010ALFA CONSORCON  EDJ      R$  000000000035100000000003510000000000351000000000035100000000003510000000000351000000000050000001000000000000001000000000000000351000000000000000009999123100000010000000000000BRBRGEACNOR6197
012013081696BRGE3F      020ALFA CONSORCON  EDJ      R$  000000000034600000000003510000000000346000000000034900000000003510000000000351000000000000000003000000000000000157000000000000054897000000000000009999123100000010000000000000BRBRGEACNOR6197
012013081602BRIN3       010BR INSURANCEON  ED  NM   R$  000000000207100000000021000000000001931000000000199900000000019950000000001995000000000199602818000000000003335700000000006668370500000000000000009999123100000010000000000000BRBRINACNOR3106
012013081696BRIN3F      020BR INSURANCEON  ED  NM   R$  000000000209200000000020920000000001900000000000199900000000019800000000001929000000000200900052000000000000001333000000000002664771000000000000009999123100000010000000000000BRBRINACNOR3106
012013081662BRIN3T      030BR INSURANCEON  ED  NM031R$  000000000200400000000020050000000002000000000000200300000000020010000000000000000000000000000004000000000000002300000000000004608829000000000000009999123100000010000000000000BRBRINACNOR3106
012013081678BRINA52     070BRINE   /ED ON      NM000R$  000000000007500000000000750000000000075000000000007500000000000750000000000000000000000000000001000000000000051000000000000003825000000000000227502014012000000010000000000000BRBRINACNOR3106
012013081678BRINA57     070BRINE   /ED ON      NM000R$  000000000001600000000000160000000000016000000000001600000000000160000000000000000000000000000001000000000000051000000000000000816000000000000272502014012000000010000000000000BRBRINACNOR3106
012013081682BRINM52     080BRINE   /ED ON      NM000R$  000000000029300000000002930000000000292000000000029200000000002920000000000000000000000000000002000000000000051000000000000014930500000000000227502014012000000010000000000000BRBRINACNOR3106
012013081602BRIV3       010ALFA INVEST ON  EJ       R$  000000000062400000000006240000000000624000000000062400000000006240000000000626000000000064900001000000000000000600000000000000374400000000000000009999123100000010000000000000BRBRIVACNOR6197
012013081696BRIV3F      020ALFA INVEST ON  EJ       R$  000000000058700000000005870000000000587000000000058700000000005870000000000587000000000070000001000000000000000007000000000000004109000000000000009999123100000010000000000000BRBRIVACNOR6197
012013081696BRIV4F      020ALFA INVEST PN  EJ       R$  000000000056000000000005600000000000530000000000055000000000005300000000000530000000000060400002000000000000000030000000000000016500000000000000009999123100000010000000000000BRBRIVACNPR3197
012013081602BRKM3       010BRASKEM     ON      N1   R$  000000000119200000000012250000000001192000000000120900000000012240000000001224000000000122500029000000000000010100000000000012211900000000000000009999123100000010000000000000BRBRKMACNOR1110
012013081696BRKM3F      020BRASKEM     ON      N1   R$  000000000115600000000011560000000001156000000000115600000000011560000000001130000000000120000002000000000000000020000000000000023120000000000000009999123100000010000000000000BRBRKMACNOR1110
012013081662BRKM3T      030BRASKEM     ON      N1031R$  000000000121000000000012110000000001210000000000121000000000012110000000000000000000000000000002000000000000005800000000000007018464000000000000009999123100000010000000000000BRBRKMACNOR1110
012013081602BRKM5       010BRASKEM     PNA     N1   R$  000000000177300000000018230000000001734000000000178800000000018210000000001815000000000182106343000000000001652000000000002954401500000000000000009999123100000010000000000000BRBRKMACNPA4110
012013081696BRKM5F      020BRASKEM     PNA     N1   R$  000000000177500000000018270000000001737000000000177900000000018270000000001767000000000182700050000000000000001365000000000002429460000000000000009999123100000010000000000000BRBRKMACNPA4110
012013081662BRKM5T      030BRASKEM     PNA     N1031R$  000000000175600000000017570000000001756000000000175600000000017570000000000000000000000000000002000000000000000300000000000000526955000000000000009999123100000010000000000000BRBRKMACNPA4110
012013081602BRML3       010BR MALLS PARON      NM   R$  000000000197500000000019870000000001895000000000194200000000019090000000001909000000000191011340000000000004279400000000008314034800000000000000009999123100000010000000000000BRBRMLACNOR9105
012013081696BRML3F      020BR MALLS PARON      NM   R$  000000000200000000000020000000000001900000000000195000000000019210000000001900000000000196600041000000000000001200000000000002337500000000000000009999123100000010000000000000BRBRMLACNOR9105
012013081682BRMLV22     080BRMLE       ON      NM000R$  000000000024300000000002520000000000242000000000024700000000002520000000000000000000000000000003000000000000010000000000000002474700000000000220002013102100000010000000000000BRBRMLACNOR9105
012013081682BRMLV52     080BRMLE       ON      NM000R$  000000000028400000000002840000000000283000000000028300000000002830000000000000000000000000000002000000000000005000000000000001416500000000000225002013102100000010000000000000BRBRMLACNOR9105
012013081682BRMLW22     080BRMLE       ON      NM000R$  000000000025200000000002520000000000252000000000025200000000002520000000000000000000000000000001000000000000005000000000000001260000000000000220002013111800000010000000000000BRBRMLACNOR9105
012013081682BRMLW52     080BRMLE       ON      NM000R$  000000000029000000000002900000000000289000000000028900000000002890000000000000000000000000000002000000000000005000000000000001449500000000000225002013111800000010000000000000BRBRMLACNOR9105
012013081602BRPR3       010BR PROPERT  ON      NM   R$  000000000187900000000018890000000001863000000000187700000000018800000000001880000000000188106279000000000003922700000000007365547000000000000000009999123100000010000000000000BRBRPRACNOR9112
012013081696BRPR3F      020BR PROPERT  ON      NM   R$  000000000192500000000019250000000001820000000000187500000000019090000000001831000000000191000035000000000000000962000000000001803885000000000000009999123100000010000000000000BRBRPRACNOR9112
012013081696BRSR3F      020BANRISUL    ON      N1   R$  000000000135000000000013500000000001350000000000135000000000013500000000001350000000000000000002000000000000000019000000000000025650000000000000009999123100000010000000000000BRBRSRACNOR3130
012013081696BRSR5F      020BANRISUL    PNA     N1   R$  000000000131000000000014840000000001310000000000133700000000014840000000001318000000000219900009000000000000000071000000000000094940000000000000009999123100000010000000000000BRBRSRACNPA6134
012013081602BRSR6       010BANRISUL    PNB     N1   R$  000000000145800000000014680000000001420000000000143900000000014600000000001455000000000146004473000000000001163600000000001675419700000000000000009999123100000010000000000000BRBRSRACNPB4133
012013081696BRSR6F      020BANRISUL    PNB     N1   R$  000000000145000000000014640000000001403000000000143600000000014600000000001405000000000154000031000000000000000708000000000001016707000000000000009999123100000010000000000000BRBRSRACNPB4133
012013081602BSEV3       010BIOSEV      ON      NM   R$  000000000092000000000009200000000000830000000000085500000000008500000000000850000000000085600078000000000000044200000000000037818700000000000000009999123100000010000000000000BRBSEVACNOR3100
012013081696BSEV3F      020BIOSEV      ON      NM   R$  000000000091100000000009110000000000842000000000086500000000009000000000000835000000000090000007000000000000000120000000000000103811000000000000009999123100000010000000000000BRBSEVACNOR3100
012013081602BTOW3       010B2W DIGITAL ON      NM   R$  000000000137300000000014170000000001373000000000140200000000014100000000001403000000000141001104000000000000784100000000001099719200000000000000009999123100000010000000000000BRBTOWACNOR8105
012013081696BTOW3F      020B2W DIGITAL ON      NM   R$  000000000141000000000014300000000001386000000000139600000000014300000000001361000000000142900021000000000000000846000000000001182878000000000000009999123100000010000000000000BRBTOWACNOR8105
012013081602BTTL4       010BATTISTELLA PN           R$  000000000009900000000001020000000000099000000000010100000000001010000000000099000000000010200007000000000000023900000000000002422300000000000000009999123100000010000000000000BRBTTLACNPR7105
012013081602BVMF3       010BMFBOVESPA  ON      NM   R$  000000000114200000000011700000000001135000000000115500000000011700000000001161000000000117026487000000000011676900000000013492635500000000000000009999123100000010000000000000BRBVMFACNOR3125
012013081696BVMF3F      020BMFBOVESPA  ON      NM   R$  000000000114000000000011630000000001137000000000115000000000011600000000001157000000000116000161000000000000004348000000000005001715000000000000009999123100000010000000000000BRBVMFACNOR3125
012013081662BVMF3T      030BMFBOVESPA  ON      NM031R$  000000000116800000000011780000000001168000000000117500000000011780000000000000000000000000000004000000000000009100000000000010698919000000000000009999123100000010000000000000BRBVMFACNOR3125
012013081662BVMF3T      030BMFBOVESPA  ON      NM060R$  000000000116800000000011690000000001168000000000116800000000011690000000000000000000000000000002000000000000010000000000000011681916000000000000009999123100000010000000000000BRBVMFACNOR3125
012013081678BVMFH10     070BVMF        ON      NM000R$  000000000015000000000001500000000000150000000000015000000000001500000000000000000000000025000001000000000000001000000000000000150000000000000100002013081900000010000000000000BRBVMFACNOR3125
012013081678BVMFH11     070BVMF        ON      NM000R$  000000000005100000000000630000000000043000000000004900000000000630000000000000000000000015000107000000000000141200000000000007029200000000000110002013081900000010000000000000BRBVMFACNOR3125
012013081678BVMFH12     070BVMF        ON      NM000R$  000000000000100000000000020000000000001000000000000100000000000010000000000000000000000000100099000000000000189300000000000000194800000000000120002013081900000010000000000000BRBVMFACNOR3125
012013081678BVMFH13     070BVMF        ON      NM000R$  000000000000100000000000010000000000001000000000000100000000000010000000000000000000000000100011000000000000034800000000000000034800000000000128902013081900000010000000000000BRBVMFACNOR3124
012013081678BVMFH14     070BVMF        ON      NM000R$  000000000000100000000000010000000000001000000000000100000000000010000000000000000000000000100001000000000000010400000000000000010400000000000138902013081900000010000000000000BRBVMFACNOR3124
012013081678BVMFH41     070BVMF        ON      NM000R$  000000000001100000000000130000000000008000000000001100000000000100000000000000000000000000000048000000000000180900000000000002161100000000000115002013081900000010000000000000BRBVMFACNOR3125
012013081678BVMFI10     070BVMF        ON      NM000R$  000000000015500000000001630000000000155000000000015500000000001630000000000157000000000000000002000000000000001900000000000000295300000000000100002013091600000010000000000000BRBVMFACNOR3125
012013081678BVMFI11     070BVMF  FM    ON      NM000R$  000000000007900000000000900000000000074000000000008200000000000900000000000075000000000009600048000000000000118200000000000009696100000000000110002013091600000010000000000000BRBVMFACNOR3125
012013081678BVMFI12     070BVMF  FM    ON      NM000R$  000000000002800000000000380000000000025000000000002800000000000380000000000030000000000003800130000000000000351100000000000010049300000000000120002013091600000010000000000000BRBVMFACNOR3125
012013081678BVMFI13     070BVMF  FM    ON      NM000R$  000000000000800000000000100000000000007000000000000700000000000100000000000008000000000001000045000000000000160900000000000001258700000000000130002013091600000010000000000000BRBVMFACNOR3125
012013081678BVMFI14     070BVMF        ON      NM000R$  000000000000200000000000020000000000002000000000000200000000000020000000000002000000000000300006000000000000050600000000000000101200000000000140002013091600000010000000000000BRBVMFACNOR3125
012013081678BVMFI15     070BVMF        ON      NM000R$  000000000000100000000000010000000000001000000000000100000000000010000000000000000000000000100001000000000000000500000000000000000500000000000150002013091600000010000000000000BRBVMFACNOR3125
012013081678BVMFI41     070BVMF  FM    ON      NM000R$  000000000004400000000000560000000000044000000000005200000000000560000000000000000000000000000023000000000000087000000000000004533200000000000115002013091600000010000000000000BRBVMFACNOR3125
012013081678BVMFI42     070BVMF  FM    ON      NM000R$  000000000001300000000000150000000000013000000000001300000000000140000000000000000000000000000004000000000000007800000000000000108800000000000125002013091600000010000000000000BRBVMFACNOR3125
012013081678BVMFJ11     070BVMF  FM    ON      NM000R$  000000000009100000000001010000000000090000000000009900000000000980000000000000000000000000000045000000000000092600000000000009194600000000000110002013102100000010000000000000BRBVMFACNOR3125
012013081678BVMFJ12     070BVMF  FM    ON      NM000R$  000000000004500000000000450000000000042000000000004400000000000420000000000031000000000011000008000000000000018100000000000000803500000000000120002013102100000010000000000000BRBVMFACNOR3125
012013081678BVMFJ13     070BVMF  FM    ON      NM000R$  000000000001400000000000160000000000014000000000001400000000000160000000000017000000000000000028000000000000062400000000000000889700000000000130002013102100000010000000000000BRBVMFACNOR3125
012013081678BVMFJ15     070BVMF        ON      NM000R$  000000000000300000000000030000000000003000000000000300000000000030000000000000000000000000700002000000000000004300000000000000012900000000000150002013102100000010000000000000BRBVMFACNOR3125
012013081678BVMFJ41     070BVMF  FM    ON      NM000R$  000000000007000000000000740000000000069000000000007200000000000740000000000000000000000000000013000000000000234200000000000016956700000000000115002013102100000010000000000000BRBVMFACNOR3125
012013081678BVMFJ42     070BVMF  FM    ON      NM000R$  000000000002600000000000270000000000026000000000002600000000000260000000000000000000000000000014000000000000034000000000000000900600000000000125002013102100000010000000000000BRBVMFACNOR3125
012013081678BVMFK12     070BVMF        ON      NM000R$  000000000006000000000000600000000000060000000000006000000000000600000000000000000000000000000002000000000000003700000000000000222000000000000120002013111800000010000000000000BRBVMFACNOR3125
012013081682BVMFT11     080BVMFE       ON      NM000R$  000000000000400000000000040000000000001000000000000200000000000010000000000000000000000000400086000000000000051500000000000000143100000000000110002013081900000010000000000000BRBVMFACNOR3125
012013081682BVMFT12     080BVMFE       ON      NM000R$  000000000005900000000000590000000000040000000000004500000000000420000000000001000000000000000052000000000000027100000000000001242600000000000120002013081900000010000000000000BRBVMFACNOR3125
012013081682BVMFT13     080BVMFE       ON      NM000R$  000000000014800000000001480000000000145000000000014600000000001450000000000000000000000000000003000000000000001900000000000000278200000000000128902013081900000010000000000000BRBVMFACNOR3124
012013081682BVMFT14     080BVMFE       ON      NM000R$  000000000024800000000002480000000000248000000000024800000000002480000000000000000000000000000001000000000000000300000000000000074400000000000138902013081900000010000000000000BRBVMFACNOR3124
012013081682BVMFT41     080BVMFE       ON      NM000R$  000000000001800000000000180000000000006000000000001100000000000060000000000001000000000001000010000000000000032800000000000000371400000000000115002013081900000010000000000000BRBVMFACNOR3125
012013081682BVMFT42     080BVMFE       ON      NM000R$  000000000010900000000001090000000000109000000000010900000000001090000000000000000000000000000001000000000000000300000000000000032700000000000125002013081900000010000000000000BRBVMFACNOR3125
012013081682BVMFT43     080BVMFE       ON      NM000R$  000000000021200000000002120000000000198000000000020500000000001980000000000000000000000000000004000000000000004800000000000000985400000000000135002013081900000010000000000000BRBVMFACNOR3125
012013081682BVMFT61     080BVMFE       ON      NM000R$  000000000002700000000000300000000000021000000000002500000000000210000000000000000000000000000143000000000000150000000000000003755700000000000117502013081900000010000000000000BRBVMFACNOR3125
012013081682BVMFU10     080BVMFE       ON      NM000R$  000000000000700000000000070000000000007000000000000700000000000070000000000000000000000005500001000000000000001000000000000000007000000000000100002013091600000010000000000000BRBVMFACNOR3125
012013081682BVMFU11     080BVMFE FM    ON      NM000R$  000000000002300000000000300000000000022000000000002500000000000220000000000000000000000003500022000000000000060700000000000001554500000000000110002013091600000010000000000000BRBVMFACNOR3125
012013081682BVMFU12     080BVMFE FM    ON      NM000R$  000000000007200000000000720000000000062000000000006900000000000620000000000000000000000010000012000000000000019900000000000001381300000000000120002013091600000010000000000000BRBVMFACNOR3125
012013081682BVMFU13     080BVMFE       ON      NM000R$  000000000015400000000001540000000000154000000000015400000000001540000000000000000000000000000001000000000000000500000000000000077000000000000130002013091600000010000000000000BRBVMFACNOR3125
012013081682BVMFU41     080BVMFE FM    ON      NM000R$  000000000004200000000000420000000000040000000000004000000000000420000000000000000000000000000016000000000000032400000000000001318800000000000115002013091600000010000000000000BRBVMFACNOR3125
012013081682BVMFU42     080BVMFE FM    ON      NM000R$  000000000011300000000001130000000000113000000000011300000000001130000000000000000000000000000001000000000000001000000000000000113000000000000125002013091600000010000000000000BRBVMFACNOR3125
012013081682BVMFV10     080BVMFE       ON      NM000R$  000000000001600000000000160000000000016000000000001600000000000160000000000000000000000000000001000000000000000200000000000000003200000000000100002013102100000010000000000000BRBVMFACNOR3125
012013081682BVMFV11     080BVMFE FM    ON      NM000R$  000000000003900000000000390000000000032000000000003200000000000320000000000000000000000000000007000000000000018100000000000000592800000000000110002013102100000010000000000000BRBVMFACNOR3125
012013081682BVMFV12     080BVMFE FM    ON      NM000R$  000000000008200000000000820000000000074000000000007400000000000740000000000000000000000000000004000000000000011500000000000000859000000000000120002013102100000010000000000000BRBVMFACNOR3125
012013081682BVMFV41     080BVMFE FM    ON      NM000R$  000000000005300000000000530000000000050000000000005000000000000500000000000000000000000008000009000000000000019400000000000000975400000000000115002013102100000010000000000000BRBVMFACNOR3125
012013081682BVMFW10     080BVMFE       ON      NM000R$  000000000002400000000000240000000000024000000000002400000000000240000000000000000000000000000001000000000000000100000000000000002400000000000100002013111800000010000000000000BRBVMFACNOR3125
012013081682BVMFW11     080BVMFE       ON      NM000R$  000000000004400000000000440000000000044000000000004400000000000440000000000000000000000000000001000000000000000100000000000000004400000000000110002013111800000010000000000000BRBVMFACNOR3125
012013081602CAMB4       010CAMBUCI     PN           R$  000000000017700000000001770000000000177000000000017700000000001770000000000179000000000019300001000000000000000100000000000000017700000000000000009999123100000010000000000000BRCAMBACNPR1117
012013081696CAMB4F      020CAMBUCI     PN           R$  000000000016600000000001660000000000166000000000016600000000001660000000000100000000000022000001000000000000000001000000000000000166000000000000009999123100000010000000000000BRCAMBACNPR1117
012013081602CARD3       010CSU CARDSYSTON      NM   R$  000000000033000000000003310000000000319000000000032800000000003300000000000319000000000033000018000000000000015700000000000005150600000000000000009999123100000010000000000000BRCARDACNOR9105
012013081696CARD3F      020CSU CARDSYSTON      NM   R$  000000000032600000000003290000000000326000000000032600000000003290000000000283000000000032900002000000000000000080000000000000026146000000000000009999123100000010000000000000BRCARDACNOR9105
012013081602CBEE3       010AMPLA ENERG ON *         R$  000000000013000000000001300000000000130000000000013000000000001300000000000130000000000013500004000000000014000000000000000001820000000000000000009999123100010000000000000000BRCBEEACNOR3149
012013081602CBMA4       010COBRASMA    PN           R$  000000000000400000000000040000000000004000000000000400000000000040000000000004000000000000500005000000000000170000000000000000680000000000000000009999123100000010000000000000BRCBMAACNPR1124
012013081696CBMA4F      020COBRASMA    PN           R$  000000000000400000000000040000000000004000000000000400000000000040000000000003000000000000500003000000000000004568000000000000018272000000000000009999123100000010000000000000BRCBMAACNPR1124
012013081608CCHI3       010CHIARELLI   ON           R$  000000000002900000000000300000000000028000000000002800000000000290000000000028000000000003000012000000000000250000000000000007110000000000000000009999123100000010000000000000BRCCHIACNOR5123
012013081696CCHI3F      020CHIARELLI   ON           R$  000000000002900000000000290000000000029000000000002900000000000290000000000029000000000003000002000000000000008000000000000000232000000000000000009999123100000010000000000000BRCCHIACNOR5123
012013081608CCHI4       010CHIARELLI   PN           R$  000000000002500000000000250000000000025000000000002500000000000250000000000022000000000002700001000000000000010000000000000000250000000000000000009999123100000010000000000000BRCCHIACNPR2122
012013081696CCHI4F      020CHIARELLI   PN           R$  000000000002100000000000210000000000021000000000002100000000000210000000000021000000000002300002000000000000001125000000000000023625000000000000009999123100000010000000000000BRCCHIACNPR2122
012013081602CCPR3       010CYRE COM-CCPON      NM   R$  000000000220200000000022590000000002200000000000225300000000022160000000002216000000000257800007000000000000003900000000000008788300000000000000009999123100000010000000000000BRCCPRACNOR9107
012013081602CCRO3       010CCR SA      ON      NM   R$  000000000170200000000017380000000001670000000000170600000000016940000000001691000000000169416956000000000006791400000000011589203800000000000000009999123100000010000000000000BRCCROACNOR2122
012013081696CCRO3F      020CCR SA      ON      NM   R$  000000000170900000000017490000000001677000000000171400000000016860000000001674000000000168600107000000000000003375000000000005784433000000000000009999123100000010000000000000BRCCROACNOR2122
012013081662CCRO3T      030CCR SA      ON      NM017R$  000000000168900000000016900000000001689000000000168900000000016900000000000000000000000000000002000000000000001000000000000001689240000000000000009999123100000010000000000000BRCCROACNOR2122
012013081662CCRO3T      030CCR SA      ON      NM031R$  000000000172100000000017220000000001721000000000172100000000017220000000000000000000000000000002000000000000001500000000000002581929000000000000009999123100000010000000000000BRCCROACNOR2122
012013081662CCRO3T      030CCR SA      ON      NM045R$  000000000173100000000017320000000001731000000000173100000000017320000000000000000000000000000002000000000000001800000000000003116635000000000000009999123100000010000000000000BRCCROACNOR2122
012013081662CCRO3T      030CCR SA      ON      NM060R$  000000000173400000000017410000000001734000000000173900000000017410000000000000000000000000000004000000000000004600000000000008000855000000000000009999123100000010000000000000BRCCROACNOR2122
012013081678CCROI19     070CCRO        ON      NM000R$  000000000000400000000000040000000000004000000000000400000000000040000000000000000000000000000001000000000000002000000000000000008000000000000190002013091600000010000000000000BRCCROACNOR2122
012013081602CCXC3       010CCX CARVAO  ON      NM   R$  000000000010400000000001060000000000095000000000010100000000000970000000000097000000000009801677000000000004502200000000000454340700000000000000009999123100000010000000000000BRCCXCACNOR5100
012013081696CCXC3F      020CCX CARVAO  ON      NM   R$  000000000010400000000001040000000000094000000000009800000000001010000000000098000000000010100017000000000000000517000000000000050878000000000000009999123100000010000000000000BRCCXCACNOR5100
012013081662CCXC3T      030CCX CARVAO  ON      NM090R$  000000000010300000000001040000000000103000000000010300000000001040000000000000000000000000000002000000000000010000000000000001030301000000000000009999123100000010000000000000BRCCXCACNOR5100
012013081602CEEB3       010COELBA      ON           R$  000000000335000000000033500000000003350000000000335000000000033500000000003250000000000350000001000000000000000100000000000000335000000000000000009999123100000010000000000000BRCEEBACNOR3163
012013081696CEEB3F      020COELBA      ON           R$  000000000325000000000032500000000003250000000000325000000000032500000000003250000000000350000001000000000000000005000000000000016250000000000000009999123100000010000000000000BRCEEBACNOR3163
012013081608CELP3       010CELPA       ON           R$  000000000006100000000000650000000000061000000000006100000000000610000000000061000000000006800005000000000000010900000000000000665700000000000000009999123100000010000000000000BRCELPACNOR8112
012013081612CEOC11B     010FII CEO CCP CI  ER  MB   R$  000000000910000000000091000000000009002000000000907000000000090020000000009070000000000909000014000000000000000608000000000005514646000000000000009999123100000010000000000000BRCEOCCTF003109
012013081602CESP3       010CESP        ON      N1   R$  000000000172000000000017200000000001702000000000170700000000017200000000001673000000000171000003000000000000000700000000000001195000000000000000009999123100000010000000000000BRCESPACNOR3159
012013081696CESP3F      020CESP        ON      N1   R$  000000000160800000000016080000000001608000000000160800000000016080000000001608000000000200100003000000000000000056000000000000090048000000000000009999123100000010000000000000BRCESPACNOR3159
012013081602CESP6       010CESP        PNB     N1   R$  000000000211400000000021320000000002065000000000210800000000021130000000002113000000000211402271000000000000560400000000001181506200000000000000009999123100000010000000000000BRCESPACNPB4118
012013081696CESP6F      020CESP        PNB     N1   R$  000000000210200000000021300000000002093000000000210900000000021300000000002085000000000213000015000000000000000313000000000000660357000000000000009999123100000010000000000000BRCESPACNPB4118
012013081662CESP6T      030CESP        PNB     N1031R$  000000000210800000000021090000000002108000000000210800000000021090000000000000000000000000000002000000000000000800000000000001686654000000000000009999123100000010000000000000BRCESPACNPB4118
012013081602CGAS5       010COMGAS      PNA          R$  000000000568000000000057200000000005680000000000570500000000057200000000005700000000000572000035000000000000204600000000001167254700000000000000009999123100000010000000000000BRCGASACNPA3129
012013081696CGAS5F      020COMGAS      PNA          R$  000000000569000000000057140000000005650000000000568400000000057000000000005651000000000589700006000000000000000265000000000001506384000000000000009999123100000010000000000000BRCGASACNPA3129
012013081662CGAS5T      030COMGAS      PNA       090R$  000000000583300000000058340000000005833000000000583300000000058340000000000000000000000000000002000000000000200000000000001166672500000000000000009999123100000010000000000000BRCGASACNPA3129
012013081662CGAS5T      030COMGAS      PNA       180R$  000000000596600000000059660000000005966000000000596600000000059660000000000000000000000000000001000000000000000001000000000000005966000000000000009999123100000010000000000000BRCGASACNPA3129
012013081602CGRA3       010GRAZZIOTIN  ON           R$  000000000166000000000016950000000001605000000000164900000000016050000000001605000000000176000007000000000000001300000000000002144800000000000000009999123100000010000000000000BRCGRAACNOR2061
012013081602CGRA4       010GRAZZIOTIN  PN           R$  000000000169900000000017590000000001699000000000172700000000017460000000001745000000000175700026000000000000007800000000000013471800000000000000009999123100000010000000000000BRCGRAACNPR9061
012013081696CGRA4F      020GRAZZIOTIN  PN           R$  000000000180000000000018000000000001800000000000180000000000018000000000001730000000000190000003000000000000000018000000000000032400000000000000009999123100000010000000000000BRCGRAACNPR9061
012013081602CIEL3       010CIELO       ON      NM   R$  000000000560900000000056830000000005576000000000563100000000056490000000005645000000000564905876000000000001168300000000006578940000000000000000009999123100000010000000000000BRCIELACNOR3111
012013081696CIEL3F      020CIELO       ON      NM   R$  000000000560500000000056800000000005550000000000563000000000056450000000005573000000000565100084000000000000001992000000000011217203000000000000009999123100000010000000000000BRCIELACNOR3111
012013081662CIEL3T      030CIELO       ON      NM031R$  000000000567900000000056800000000005679000000000567900000000056800000000000000000000000000000002000000000000001000000000000005679278000000000000009999123100000010000000000000BRCIELACNOR3111
012013081602CIQU4       010CACIQUE     PN           R$  000000000083000000000008300000000000830000000000083000000000008300000000000635000000000090000001000000000000000100000000000000083000000000000000009999123100000010000000000000BRCIQUACNPR5157
012013081696CIQU4F      020CACIQUE     PN           R$  000000000070000000000007000000000000700000000000070000000000007000000000000606000000000083000001000000000000000001000000000000000700000000000000009999123100000010000000000000BRCIQUACNPR5157
012013081602CLSC4       010CELESC      PN      N2   R$  000000000185000000000018500000000001835000000000184400000000018450000000001835000000000184500014000000000000002600000000000004795700000000000000009999123100000010000000000000BRCLSCACNPR3107
012013081696CLSC4F      020CELESC      PN      N2   R$  000000000180800000000018080000000001808000000000180800000000018080000000001807000000000189000001000000000000000001000000000000001808000000000000009999123100000010000000000000BRCLSCACNPR3107
012013081658CMGR3       010CEMAT       ON           R$  000000000045100000000005200000000000451000000000047700000000005200000000000488000000000052000007000000000000000800000000000000382100000000000000009999123100000010000000000000BRCMGRACNOR7114
012013081602CMIG3       010CEMIG       ON      N1   R$  000000000197700000000019820000000001925000000000194100000000019280000000001928000000000194200339000000000000055800000000000108309800000000000000009999123100000010000000000000BRCMIGACNOR6208
012013081696CMIG3F      020CEMIG       ON      N1   R$  000000000199500000000020070000000001929000000000194900000000020070000000001935000000000200700042000000000000000948000000000001847823000000000000009999123100000010000000000000BRCMIGACNOR6208
012013081662CMIG3T      030CEMIG       ON      N1090R$  000000000197900000000019800000000001979000000000197900000000019800000000000000000000000000000002000000000000000200000000000000395993000000000000009999123100000010000000000000BRCMIGACNOR6208
012013081602CMIG4       010CEMIG       PN      N1   R$  000000000198000000000019830000000001950000000000196200000000019500000000001950000000000195309395000000000002535600000000004975369100000000000000009999123100000010000000000000BRCMIGACNPR3208
012013081696CMIG4F      020CEMIG       PN      N1   R$  000000000199000000000019900000000001950000000000196500000000019500000000001950000000000198000148000000000000003763000000000007394955000000000000009999123100000010000000000000BRCMIGACNPR3208
012013081662CMIG4T      030CEMIG       PN      N1025R$  000000000197600000000019770000000001976000000000197600000000019770000000000000000000000000000002000000000000000100000000000000197620000000000000009999123100000010000000000000BRCMIGACNPR3208
012013081662CMIG4T      030CEMIG       PN      N1031R$  000000000197200000000019810000000001962000000000197000000000019630000000000000000000000000000012000000000000004800000000000009459339000000000000009999123100000010000000000000BRCMIGACNPR3208
012013081662CMIG4T      030CEMIG       PN      N1060R$  000000000199500000000019960000000001987000000000198900000000019880000000000000000000000000000004000000000000003000000000000005969903000000000000009999123100000010000000000000BRCMIGACNPR3208
012013081662CMIG4T      030CEMIG       PN      N1090R$  000000000201600000000020170000000002016000000000201600000000020170000000000000000000000000000002000000000000001000000000000002016738000000000000009999123100000010000000000000BRCMIGACNPR3208
012013081662CMIG4T      030CEMIG       PN      N1122R$  000000000202500000000020280000000002025000000000202500000000020260000000000000000000000000000006000000000000005281000000000010698738000000000000009999123100000010000000000000BRCMIGACNPR3208
012013081662CMIG4T      030CEMIG       PN      N1180R$  000000000205500000000020560000000002055000000000205500000000020560000000000000000000000000000002000000000000000500000000000001027859000000000000009999123100000010000000000000BRCMIGACNPR3208
012013081678CMIGI21     070CMIG        PN      N1000R$  000000000002100000000000210000000000021000000000002100000000000210000000000000000000000004700001000000000000000100000000000000002100000000000210002013091600000010000000000000BRCMIGACNPR3208
012013081612CNES11B     010FII CENESP  CI      MB   R$  000000001279000000000128000000000012300000000001246400000000126000000000012400000000001284900015000000000000000499000000000006219696000000000000009999123100000010000000000000BRCNESCTF001124
012013081696COCE3F      020COELCE      ON           R$  000000000410000000000041000000000004100000000000410000000000041000000000004000000000000000000001000000000000000030000000000000123000000000000000009999123100000010000000000000BRCOCEACNOR0132
012013081602COCE5       010COELCE      PNA          R$  000000000391400000000039540000000003850000000000392300000000039540000000003954000000000395600092000000000000065700000000000257746200000000000000009999123100000010000000000000BRCOCEACNPA3133
012013081696COCE5F      020COELCE      PNA          R$  000000000395000000000039500000000003850000000000389000000000039140000000003869000000000391900024000000000000000598000000000002326732000000000000009999123100000010000000000000BRCOCEACNPA3133
012013081602CPFE3       010CPFL ENERGIAON      NM   R$  000000000207200000000021000000000002048000000000207100000000021000000000002067000000000210002668000000000000826800000000001712714400000000000000009999123100000010000000000000BRCPFEACNOR0121
012013081696CPFE3F      020CPFL ENERGIAON      NM   R$  000000000208000000000020800000000002050000000000205500000000020700000000002050000000000208800045000000000000001169000000000002403157000000000000009999123100000010000000000000BRCPFEACNOR0121
012013081602CPLE3       010COPEL       ON      N1   R$  000000000236200000000023810000000002295000000000232500000000023300000000002330000000000237900044000000000000014400000000000033485100000000000000009999123100000010000000000000BRCPLEACNOR8128
012013081696CPLE3F      020COPEL       ON      N1   R$  000000000232000000000023200000000002320000000000232000000000023200000000002200000000000231000001000000000000000001000000000000002320000000000000009999123100000010000000000000BRCPLEACNOR8128
012013081602CPLE6       010COPEL       PNB     N1   R$  000000000312500000000031250000000003005000000000304900000000030600000000003050000000000306003240000000000001168500000000003563200400000000000000009999123100000010000000000000BRCPLEACNPB9125
012013081696CPLE6F      020COPEL       PNB     N1   R$  000000000310000000000031950000000003005000000000304600000000031950000000003001000000000319500018000000000000000599000000000001824890000000000000009999123100000010000000000000BRCPLEACNPB9125
012013081602CPRE3       010CPFL RENOVAVON      NM   R$  000000000120000000000012900000000001200000000000123500000000012500000000001221000000000125000030000000000000028600000000000035347800000000000000009999123100000010000000000000BRCPREACNOR5100
012013081696CPRE3F      020CPFL RENOVAVON      NM   R$  000000000123000000000012500000000001230000000000123500000000012360000000001210000000000125000052000000000000000539000000000000665686000000000000009999123100000010000000000000BRCPREACNOR5100
012013081662CPRE3T      030CPFL RENOVAVON      NM031R$  000000000126900000000012700000000001269000000000126900000000012700000000000000000000000000000002000000000000002000000000000002539151000000000000009999123100000010000000000000BRCPREACNOR5100
012013081602CRDE3       010CR2         ON      NM   R$  000000000040300000000004150000000000403000000000041200000000004100000000000410000000000041800004000000000000008200000000000003381300000000000000009999123100000010000000000000BRCRDEACNOR1108
012013081602CREM3       010CREMER      ON      NM   R$  000000000145000000000014850000000001439000000000145400000000014500000000001450000000000149400015000000000000007600000000000011055400000000000000009999123100000010000000000000BRCREMACNOR2166
012013081602CRIV3       010ALFA FINANC ON  EJ       R$  000000000051000000000005470000000000510000000000052600000000005470000000000471000000000054700020000000000000009400000000000004953600000000000000009999123100000010000000000000BRCRIVACNOR4190
012013081602CRIV4       010ALFA FINANC PN  EJ       R$  000000000046100000000004850000000000460000000000046700000000004740000000000454000000000047400022000000000000011800000000000005519800000000000000009999123100000010000000000000BRCRIVACNPR1190
012013081696CRIV4F      020ALFA FINANC PN  EJ       R$  000000000049000000000004900000000000490000000000049000000000004900000000000000000000000049000001000000000000000020000000000000009800000000000000009999123100000010000000000000BRCRIVACNPR1190
