00COTAHIST.2013BOVESPA 20130717                                                                                                                                                                                                                      
012013071710ABCB2       010ABC BRASIL  DIR PRE N2   R$  000000000017600000000001960000000000160000000000017200000000001600000000000000000000000000000023000000000000002700000000000000465000000000000000009999123100000010000000000000BRABCBD03PR5119
012013071796ABCB2F      020ABC BRASIL  DIR PRE N2   R$  000000000017000000000001960000000000150000000000016700000000001600000000000000000000000029000009000000000000000364000000000000060849000000000000009999123100000010000000000000BRABCBD03PR5119
012013071702ABCB4       010ABC BRASIL  PN      N2   R$  000000000125000000000012710000000001212000000000124800000000012250000000001223000000000123000741000000000000563700000000000703814000000000000000009999123100000010000000000000BRABCBACNPR4120
012013071796ABCB4F      020ABC BRASIL  PN      N2   R$  000000000126300000000012630000000001225000000000124800000000012350000000001220000000000123700018000000000000000315000000000000393384000000000000009999123100000010000000000000BRABCBACNPR4120
012013071762ABCB4T      030ABC BRASIL  PN      N2120R$  000000000128000000000012810000000001280000000000128000000000012810000000000000000000000000000002000000000000000008000000000000010245000000000000009999123100000010000000000000BRABCBACNPR4120
012013071702ABRE11      010ABRIL EDUCA UNT     N2   R$  000000000407300000000040730000000003971000000000399100000000039900000000003982000000000399000807000000000000104300000000000416310900000000000000009999123100000010000000000000BRABRECDAM15102
012013071796ABRE11F     020ABRIL EDUCA UNT     N2   R$  000000000407500000000040750000000003960000000000400200000000039700000000003970000000000414900008000000000000000124000000000000496365000000000000009999123100000010000000000000BRABRECDAM15102
012013071702AEDU3       010ANHANGUERA  ON      NM   R$  000000000132000000000013280000000001300000000000131500000000013230000000001311000000000132304536000000000000940100000000001236853800000000000000009999123100000010000000000000BRAEDUACNOR9107
012013071796AEDU3F      020ANHANGUERA  ON      NM   R$  000000000132000000000013250000000001305000000000131600000000013250000000001301000000000133500015000000000000000392000000000000516054000000000000009999123100000010000000000000BRAEDUACNOR9107
012013071712AEFI11      010FII AESAPAR CI           R$  000000001230000000000123300000000012155000000001225300000000121550000000012155000000001229900027000000000000003256000000000039895875000000000000009999123100000010000000000000BRAEFICTF002119
012013071702AELP3       010AES ELPA    ON           R$  000000000075100000000008080000000000751000000000079100000000007680000000000755000000000076900024000000000000016500000000000013051700000000000000009999123100000010000000000000BRAELPACNOR2119
012013071762AELP3T      030AES ELPA    ON        030R$  000000000075600000000008150000000000756000000000080100000000008150000000000000000000000000000004000000000000013500000000000010817422000000000000009999123100000010000000000000BRAELPACNOR2119
012013071712AGCX11      010FII AG CAIXACI           R$  000000010080000000001008000000000100400000000010060600000001008000000000100110000000010080000013000000000000000314000000000031590300000000000000009999123100000010000000000000BRAGCXCTF003108
012013071702AGEN11      010AGRENCO     DR3          R$  000000000004300000000000520000000000043000000000004700000000000520000000000051000000000005201814000000000013659500000000000651197700000000000000009999123100000010000000000000BRAGENBDR001100
012013071796AGEN11F     020AGRENCO     DR3          R$  000000000004300000000000510000000000043000000000004700000000000510000000000049000000000005100009000000000000000259000000000000012392000000000000009999123100000010000000000000BRAGENBDR001100
012013071762AGEN11T     030AGRENCO     DR3       030R$  000000000004700000000000480000000000047000000000004700000000000480000000000000000000000000000002000000000000030000000000000001420011000000000000009999123100000010000000000000BRAGENBDR001100
012013071762AGEN11T     030AGRENCO     DR3       061R$  000000000004600000000000470000000000046000000000004600000000000470000000000000000000000000000002000000000000010000000000000000466348000000000000009999123100000010000000000000BRAGENBDR001100
012013071702AGRO3       010BRASILAGRO  ON      NM   R$  000000000105200000000010520000000001040000000000104700000000010520000000001052000000000105900027000000000000002700000000000002828300000000000000009999123100000010000000000000BRAGROACNOR7102
012013071702ALLL3       010ALL AMER LATON      NM   R$  000000000086800000000008900000000000864000000000087700000000008700000000000869000000000087005185000000000001771800000000001554448600000000000000009999123100000010000000000000BRALLLACNOR6118
012013071796ALLL3F      020ALL AMER LATON      NM   R$  000000000087500000000008890000000000866000000000087500000000008820000000000870000000000088200042000000000000001427000000000001250428000000000000009999123100000010000000000000BRALLLACNOR6118
012013071762ALLL3T      030ALL AMER LATON      NM030R$  000000000089400000000008950000000000893000000000089400000000008940000000000000000000000000000004000000000000015000000000000013411020000000000000009999123100000010000000000000BRALLLACNOR6118
012013071712ALMI11B     010FII TORRE ALCI      MB   R$  000000031400000000003150000000000313103000000031399600000003150000000000313001000000031850000017000000000000000058000000000018211793000000000000009999123100000010000000000000BRALMICTF003203
012013071702ALPA3       010ALPARGATAS  ON      N1   R$  000000000103100000000010310000000001031000000000103100000000010310000000001022000000000107400006000000000000000900000000000000927900000000000000009999123100000010000000000000BRALPAACNOR0202
012013071702ALPA4       010ALPARGATAS  PN      N1   R$  000000000133300000000013490000000001322000000000133600000000013400000000001335000000000134301202000000000000315200000000000421268700000000000000009999123100000010000000000000BRALPAACNPR7202
012013071796ALPA4F      020ALPARGATAS  PN      N1   R$  000000000134000000000013440000000001314000000000133400000000013350000000001330000000000134900022000000000000000714000000000000952958000000000000009999123100000010000000000000BRALPAACNPR7202
012013071762ALPA4T      030ALPARGATAS  PN      N1030R$  000000000134200000000013430000000001342000000000134200000000013430000000000000000000000000000002000000000000000300000000000000402841000000000000009999123100000010000000000000BRALPAACNPR7202
012013071702ALSC3       010ALIANSCE    ON      NM   R$  000000000198400000000020030000000001962000000000197300000000019900000000001990000000000199102014000000000000713100000000001406984800000000000000009999123100000010000000000000BRALSCACNOR0104
012013071796ALSC3F      020ALIANSCE    ON      NM   R$  000000000198000000000019800000000001970000000000197200000000019700000000001900000000000211700004000000000000000128000000000000252504000000000000009999123100000010000000000000BRALSCACNOR0104
012013071778ALSCH50     070ALSC        ON      NM000R$  000000000001200000000000120000000000012000000000001200000000000120000000000000000000000000000002000000000000005000000000000000060000000000000205002013081900000010000000000000BRALSCACNOR0104
012013071702ALUP11      010ALUPAR      UNT     N2   R$  000000000179900000000018150000000001786000000000180000000000018150000000001781000000000181500188000000000000049900000000000089854100000000000000009999123100000010000000000000BRALUPCDAM15100
012013071796ALUP11F     020ALUPAR      UNT     N2   R$  000000000178100000000018200000000001780000000000180000000000017830000000001770000000000182000023000000000000000600000000000001080277000000000000009999123100000010000000000000BRALUPCDAM15100
012013071702AMAR3       010LOJAS MARISAON      NM   R$  000000000233900000000023390000000002205000000000223000000000022200000000002219000000000223901514000000000000400200000000000892677000000000000000009999123100000010000000000000BRAMARACNOR4109
012013071796AMAR3F      020LOJAS MARISAON      NM   R$  000000000230000000000023000000000002220000000000225800000000022880000000002212000000000229000005000000000000000131000000000000295885000000000000009999123100000010000000000000BRAMARACNOR4109
012013071702AMBV3       010AMBEV       ON           R$  000000000818200000000082480000000008094000000000815900000000081120000000008112000000000812001236000000000000203600000000001661174700000000000000009999123100000010000000000000BRAMBVACNOR4153
012013071796AMBV3F      020AMBEV       ON           R$  000000000821500000000082420000000008100000000000815800000000081270000000008111000000000829900035000000000000000743000000000006061571000000000000009999123100000010000000000000BRAMBVACNOR4153
012013071702AMBV4       010AMBEV       PN           R$  000000000828200000000083280000000008134000000000821100000000081990000000008183000000000819905443000000000000978600000000008035420000000000000000009999123100000010000000000000BRAMBVACNPR1153
012013071796AMBV4F      020AMBEV       PN           R$  000000000834400000000083920000000008137000000000821000000000081900000000008160000000000823000168000000000000004203000000000034507134000000000000009999123100000010000000000000BRAMBVACNPR1153
012013071762AMBV4T      030AMBEV       PN        016R$  000000000825300000000082540000000008203000000000822800000000082040000000000000000000000000000004000000000000002000000000000016457199000000000000009999123100000010000000000000BRAMBVACNPR1153
012013071762AMBV4T      030AMBEV       PN        030R$  000000000830300000000083050000000008197000000000828100000000081980000000000000000000000000000010000000000000002800000000000023187071000000000000009999123100000010000000000000BRAMBVACNPR1153
012013071762AMBV4T      030AMBEV       PN        061R$  000000000838200000000083890000000008295000000000836200000000082960000000000000000000000000000010000000000000004100000000000034284239000000000000009999123100000010000000000000BRAMBVACNPR1153
012013071762AMBV4T      030AMBEV       PN        065R$  000000000831700000000083180000000008317000000000831700000000083180000000000000000000000000000002000000000000006000000000000049902394000000000000009999123100000010000000000000BRAMBVACNPR1153
012013071778AMBVH85     070AMBV        PN        000R$  000000000010000000000001100000000000079000000000008400000000000810000000000000000000000015000004000000000000001700000000000000144200000000000850002013081900000010000000000000BRAMBVACNPR1153
012013071778AMBVH86     070AMBV        PN        000R$  000000000008000000000000800000000000080000000000008000000000000800000000000000000000000012000001000000000000001300000000000000104000000000000860002013081900000010000000000000BRAMBVACNPR1153
012013071702ARTR3       010ARTERIS     ON      NM   R$  000000000206100000000020860000000002027000000000204400000000020400000000002040000000000204902915000000000004499400000000009200876900000000000000009999123100000010000000000000BRARTRACNOR3101
012013071796ARTR3F      020ARTERIS     ON      NM   R$  000000000206900000000020690000000002020000000000204300000000020410000000002030000000000204200026000000000000000619000000000001265081000000000000009999123100000010000000000000BRARTRACNOR3101
012013071702ARZZ3       010AREZZO CO   ON      NM   R$  000000000373900000000037400000000003661000000000369300000000036900000000003690000000000371001123000000000000270700000000000999815900000000000000009999123100000010000000000000BRARZZACNOR3108
012013071796ARZZ3F      020AREZZO CO   ON      NM   R$  000000000368000000000038990000000003670000000000370600000000037100000000003641000000000371000018000000000000000582000000000002156958000000000000009999123100000010000000000000BRARZZACNOR3108
012013071702AUTM3       010AUTOMETAL   ON      NM   R$  000000000180000000000018000000000001755000000000178600000000018000000000001778000000000180000281000000000000055800000000000099671300000000000000009999123100000010000000000000BRAUTMACNOR8109
012013071796AUTM3F      020AUTOMETAL   ON      NM   R$  000000000179300000000017930000000001770000000000178500000000017700000000001422000000000192500004000000000000000094000000000000167852000000000000009999123100000010000000000000BRAUTMACNOR8109
012013071702BALM4       010BAUMER      PN           R$  000000000755300000000075540000000007553000000000755300000000075530000000007500000000000755300004000000000000000500000000000003776600000000000000009999123100000010000000000000BRBALMACNPR2043
012013071702BAUH4       010EXCELSIOR   PN           R$  000000000100000000000010000000000001000000000000100000000000010000000000000971000000000100000004000000000000002400000000000002400000000000000000009999123100000010000000000000BRBAUHACNPR3108
012013071702BAZA3       010AMAZONIA    ON           R$  000000000003300000000000340000000000033000000000003300000000000340000000000033000000000003400002000000000000005000000000000000168000000000000000009999123100000010000000000000BRBAZAACNOR0163
012013071702BBAS3       010BRASIL      ON      NM   R$  000000000222200000000022600000000002210000000000223700000000022400000000002238000000000224611589000000000006389100000000014293335800000000000000009999123100000010000000000000BRBBASACNOR3237
012013071796BBAS3F      020BRASIL      ON      NM   R$  000000000220500000000022600000000002205000000000223200000000022150000000002220000000000226000287000000000000008518000000000019019999000000000000009999123100000010000000000000BRBBASACNOR3237
012013071762BBAS3T      030BRASIL      ON      NM016R$  000000000223400000000022350000000002234000000000223400000000022350000000000000000000000000000004000000000000001100000000000002457580000000000000009999123100000010000000000000BRBBASACNOR3237
012013071762BBAS3T      030BRASIL      ON      NM030R$  000000000224800000000022490000000002248000000000224800000000022490000000000000000000000000000002000000000000040200000000000090399525000000000000009999123100000010000000000000BRBBASACNOR3237
012013071762BBAS3T      030BRASIL      ON      NM061R$  000000000227500000000022820000000002269000000000228000000000022700000000000000000000000000000010000000000000403000000000000918889072000000000000009999123100000010000000000000BRBBASACNOR3237
012013071762BBAS3T      030BRASIL      ON      NM090R$  000000000226900000000022700000000002269000000000226900000000022700000000000000000000000000000002000000000000002000000000000004539517000000000000009999123100000010000000000000BRBBASACNOR3237
012013071778BBASB23     070BBAS        ON      NM000R$  000000000019500000000001950000000000195000000000019500000000001950000000000000000000000000000001000000000000001200000000000000234000000000000230002014021700000010000000000000BRBBASACNOR3237
012013071778BBASB25     070BBAS        ON      NM000R$  000000000011600000000001160000000000116000000000011600000000001160000000000000000000000000000001000000000000001200000000000000139200000000000250002014021700000010000000000000BRBBASACNOR3237
012013071778BBASB26     070BBAS        ON      NM000R$  000000000009000000000000900000000000080000000000008800000000000800000000000000000000000000000002000000000000001400000000000000124000000000000260002014021700000010000000000000BRBBASACNOR3237
012013071778BBASH18     070BBAS        ON      NM000R$  000000000046000000000004600000000000460000000000046000000000004600000000000000000000000000000001000000000000000800000000000000368000000000000180002013081900000010000000000000BRBBASACNOR3237
012013071778BBASH20     070BBAS        ON      NM000R$  000000000026900000000002750000000000255000000000026300000000002570000000000000000000000029600008000000000000019700000000000005185800000000000200002013081900000010000000000000BRBBASACNOR3237
012013071778BBASH21     070BBAS  FM    ON      NM000R$  000000000019400000000002100000000000177000000000019300000000002050000000000100000000000026700150000000000000221200000000000042697300000000000207602013081900000010000000000000BRBBASACNOR3236
012013071778BBASH22     070BBAS  FM    ON      NM000R$  000000000012100000000001350000000000107000000000012400000000001290000000000091000000000000000103000000000000822100000000000102103900000000000217602013081900000010000000000000BRBBASACNOR3236
012013071778BBASH23     070BBAS  FM    ON      NM000R$  000000000005900000000000730000000000051000000000006000000000000690000000000045000000000010300106000000000000152700000000000009213800000000000227602013081900000010000000000000BRBBASACNOR3236
012013071778BBASH24     070BBAS  FM    ON      NM000R$  000000000004700000000000520000000000037000000000004400000000000510000000000038000000000005400102000000000000136400000000000006089100000000000231702013081900000010000000000000BRBBASACNOR3233
012013071778BBASH25     070BBAS  FM    ON      NM000R$  000000000002100000000000230000000000014000000000001800000000000230000000000015000000000002300054000000000000055800000000000001028700000000000241702013081900000010000000000000BRBBASACNOR3233
012013071778BBASH26     070BBAS        ON      NM000R$  000000000000500000000000050000000000005000000000000500000000000050000000000002000000000000600001000000000000003000000000000000015000000000000256602013081900000010000000000000BRBBASACNOR3235
012013071778BBASH27     070BBAS        ON      NM000R$  000000000000300000000000030000000000003000000000000300000000000030000000000001000000000002800001000000000000003000000000000000009000000000000266602013081900000010000000000000BRBBASACNOR3235
012013071778BBASH28     070BBAS        ON      NM000R$  000000000000200000000000020000000000002000000000000200000000000020000000000001000000000000400001000000000000000500000000000000001000000000000276602013081900000010000000000000BRBBASACNOR3235
012013071778BBASH55     070BBAS        ON      NM000R$  000000000000600000000000060000000000006000000000000600000000000060000000000000000000000000000020000000000000094000000000000000564000000000000251602013081900000010000000000000BRBBASACNOR3235
012013071778BBASI21     070BBAS  FM    ON      NM000R$  000000000021000000000002180000000000188000000000020300000000002180000000000000000000000000000044000000000000085800000000000017492900000000000210002013091600000010000000000000BRBBASACNOR3237
012013071778BBASI22     070BBAS  FM    ON      NM000R$  000000000015300000000001640000000000139000000000015000000000001610000000000010000000000020800339000000000000252900000000000038138800000000000217602013091600000010000000000000BRBBASACNOR3236
012013071778BBASI23     070BBAS  FM    ON      NM000R$  000000000009600000000001070000000000084000000000009500000000001070000000000081000000000000000041000000000000062200000000000005954900000000000227602013091600000010000000000000BRBBASACNOR3236
012013071778BBASI24     070BBAS  FM    ON      NM000R$  000000000005600000000000560000000000047000000000005200000000000480000000000040000000000000000023000000000000061200000000000003216100000000000237602013091600000010000000000000BRBBASACNOR3236
012013071778BBASI25     070BBAS  FM    ON      NM000R$  000000000003200000000000350000000000024000000000003000000000000350000000000011000000000003500015000000000000020400000000000000622000000000000246602013091600000010000000000000BRBBASACNOR3235
012013071778BBASI26     070BBAS        ON      NM000R$  000000000001700000000000170000000000017000000000001700000000000170000000000011000000000002400002000000000000014500000000000000246500000000000256602013091600000010000000000000BRBBASACNOR3235
012013071778BBASI29     070BBAS        ON      NM000R$  000000000000300000000000030000000000003000000000000300000000000030000000000000000000000000000001000000000000010000000000000000030000000000000290002013091600000010000000000000BRBBASACNOR3237
012013071778BBASI51     070BBAS        ON      NM000R$  000000000024000000000002400000000000240000000000024000000000002400000000000000000000000000000002000000000000130000000000000031200000000000000205002013091600000010000000000000BRBBASACNOR3237
012013071778BBASI61     070BBASE       ON      NM000R$  000000000012300000000001230000000000123000000000012300000000001230000000000000000000000000000002000000000000130000000000000015990000000000000222502013091600000010000000000000BRBBASACNOR3237
012013071778BBASJ22     070BBAS        ON      NM000R$  000000000017700000000001770000000000169000000000017300000000001690000000000000000000000000000002000000000000005000000000000000869000000000000220002013102100000010000000000000BRBBASACNOR3237
012013071778BBASJ23     070BBAS        ON      NM000R$  000000000013800000000001380000000000138000000000013800000000001380000000000000000000000000000002000000000000003300000000000000455400000000000226602013102100000010000000000000BRBBASACNOR3235
012013071778BBASJ25     070BBAS        ON      NM000R$  000000000004700000000000490000000000047000000000004800000000000490000000000000000000000000000002000000000000006000000000000000288000000000000250002013102100000010000000000000BRBBASACNOR3237
012013071778BBASJ26     070BBAS        ON      NM000R$  000000000003400000000000360000000000034000000000003400000000000360000000000000000000000000000003000000000000009000000000000000312000000000000256602013102100000010000000000000BRBBASACNOR3235
012013071778BBASJ27     070BBAS        ON      NM000R$  000000000002100000000000210000000000021000000000002100000000000210000000000004000000000000000002000000000000006000000000000000126000000000000266602013102100000010000000000000BRBBASACNOR3235
012013071778BBASJ28     070BBAS        ON      NM000R$  000000000001200000000000120000000000010000000000001100000000000110000000000003000000000000000007000000000000021200000000000000233200000000000280002013102100000010000000000000BRBBASACNOR3237
012013071778BBASJ29     070BBAS        ON      NM000R$  000000000000800000000000080000000000008000000000000800000000000080000000000002000000000000000001000000000000003000000000000000024000000000000286602013102100000010000000000000BRBBASACNOR3235
012013071778BBASJ53     070BBAS        ON      NM000R$  000000000011200000000001120000000000112000000000011200000000001120000000000000000000000000000001000000000000003000000000000000336000000000000231602013102100000010000000000000BRBBASACNOR3235
012013071778BBASJ56     070BBAS        ON      NM000R$  000000000002700000000000280000000000027000000000002700000000000280000000000000000000000000000002000000000000006000000000000000165000000000000261602013102100000010000000000000BRBBASACNOR3235
012013071778BBASK27     070BBAS        ON      NM000R$  000000000002400000000000240000000000024000000000002400000000000240000000000000000000000000000001000000000000002400000000000000057600000000000267602013111800000010000000000000BRBBASACNOR3236
012013071778BBASK31     070BBAS        ON      NM000R$  000000000000500000000000050000000000005000000000000500000000000050000000000000000000000000000001000000000000002400000000000000012000000000000310002013111800000010000000000000BRBBASACNOR3237
012013071778BBASL26     070BBAS        ON      NM000R$  000000000006000000000000640000000000060000000000006200000000000640000000000000000000000000000002000000000000000400000000000000024800000000000256602013121600000010000000000000BRBBASACNOR3235
012013071778BBASL29     070BBAS        ON      NM000R$  000000000002000000000000200000000000020000000000002000000000000200000000000000000000000000000001000000000000000200000000000000004000000000000286602013121600000010000000000000BRBBASACNOR3235
012013071782BBAST18     080BBASE       ON      NM000R$  000000000000300000000000030000000000003000000000000300000000000030000000000001000000000000000001000000000000001000000000000000003000000000000180002013081900000010000000000000BRBBASACNOR3237
012013071782BBAST19     080BBASE       ON      NM000R$  000000000000600000000000060000000000006000000000000600000000000060000000000005000000000000000001000000000000005000000000000000030000000000000190002013081900000010000000000000BRBBASACNOR3237
012013071782BBAST20     080BBASE FM    ON      NM000R$  000000000001100000000000150000000000011000000000001400000000000150000000000000000000000000000048000000000000209100000000000003089700000000000200002013081900000010000000000000BRBBASACNOR3237
012013071782BBAST21     080BBASE FM    ON      NM000R$  000000000002000000000000240000000000019000000000002100000000000230000000000012000000000002200017000000000000037400000000000000803400000000000207602013081900000010000000000000BRBBASACNOR3236
012013071782BBAST22     080BBASE FM    ON      NM000R$  000000000004000000000000500000000000040000000000004400000000000400000000000021000000000004600039000000000000056600000000000002521300000000000217602013081900000010000000000000BRBBASACNOR3236
012013071782BBAST23     080BBASE FM    ON      NM000R$  000000000008300000000000950000000000077000000000008300000000000780000000000075000000000009000079000000000000191500000000000015925000000000000227602013081900000010000000000000BRBBASACNOR3236
012013071782BBAST24     080BBASE       ON      NM000R$  000000000011000000000001110000000000108000000000010900000000001080000000000000000000000000000004000000000000008200000000000000898000000000000231702013081900000010000000000000BRBBASACNOR3233
012013071782BBASU19     080BBASE       ON      NM000R$  000000000001500000000000150000000000015000000000001500000000000150000000000000000000000000000001000000000000005000000000000000075000000000000190002013091600000010000000000000BRBBASACNOR3237
012013071782BBASU20     080BBASE FM    ON      NM000R$  000000000002400000000000270000000000024000000000002400000000000270000000000000000000000000000003000000000000006200000000000000154800000000000200002013091600000010000000000000BRBBASACNOR3237
012013071782BBASU21     080BBASE FM    ON      NM000R$  000000000004100000000000470000000000041000000000004500000000000470000000000000000000000000000005000000000000010000000000000000452000000000000210002013091600000010000000000000BRBBASACNOR3237
012013071782BBASU22     080BBASE FM    ON      NM000R$  000000000006400000000000740000000000061000000000006500000000000610000000000000000000000000000179000000000000083600000000000005481700000000000217602013091600000010000000000000BRBBASACNOR3236
012013071782BBASU23     080BBASE FM    ON      NM000R$  000000000010100000000001150000000000100000000000010700000000001000000000000000000000000000000033000000000000072100000000000007727000000000000227602013091600000010000000000000BRBBASACNOR3236
012013071782BBASV18     080BBASE       ON      NM000R$  000000000001400000000000140000000000014000000000001400000000000140000000000000000000000000000001000000000000003000000000000000042000000000000180002013102100000010000000000000BRBBASACNOR3237
012013071782BBASV19     080BBASE       ON      NM000R$  000000000002200000000000280000000000022000000000002400000000000280000000000000000000000000000004000000000000012000000000000000294000000000000190002013102100000010000000000000BRBBASACNOR3237
012013071782BBASV20     080BBASE       ON      NM000R$  000000000003600000000000440000000000036000000000004100000000000440000000000000000000000012000008000000000000024000000000000000984000000000000200002013102100000010000000000000BRBBASACNOR3237
012013071782BBASV21     080BBASE       ON      NM000R$  000000000005600000000000680000000000056000000000006300000000000680000000000000000000000000000005000000000000015000000000000000948000000000000210002013102100000010000000000000BRBBASACNOR3237
012013071782BBASV22     080BBASE       ON      NM000R$  000000000008600000000001020000000000086000000000009200000000001020000000000000000000000000000004000000000000010200000000000000939000000000000220002013102100000010000000000000BRBBASACNOR3237
012013071782BBASV23     080BBASE       ON      NM000R$  000000000011600000000001160000000000116000000000011600000000001160000000000000000000000000000001000000000000003000000000000000348000000000000226602013102100000010000000000000BRBBASACNOR3235
012013071782BBASV24     080BBASE       ON      NM000R$  000000000016900000000001740000000000169000000000017100000000001740000000000000000000000000000002000000000000006000000000000001029000000000000237602013102100000010000000000000BRBBASACNOR3236
012013071782BBASV25     080BBASE       ON      NM000R$  000000000025200000000002580000000000252000000000025500000000002580000000000000000000000000000002000000000000006000000000000001530000000000000250002013102100000010000000000000BRBBASACNOR3237
012013071782BBASV26     080BBASE       ON      NM000R$  000000000030500000000003090000000000305000000000030700000000003090000000000000000000000000000002000000000000006000000000000001842000000000000256602013102100000010000000000000BRBBASACNOR3235
012013071782BBASV53     080BBASE       ON      NM000R$  000000000013700000000001420000000000137000000000013800000000001370000000000000000000000000000004000000000000008400000000000001165800000000000231602013102100000010000000000000BRBBASACNOR3235
012013071782BBASV56     080BBASE       ON      NM000R$  000000000034700000000003680000000000347000000000035500000000003680000000000000000000000000000003000000000000009000000000000003201000000000000261602013102100000010000000000000BRBBASACNOR3235
012013071782BBASX20     080BBASE       ON      NM000R$  000000000005900000000000610000000000059000000000006000000000000610000000000000000000000000000002000000000000000200000000000000012000000000000200002013121600000010000000000000BRBBASACNOR3237
012013071702BBDC3       010BRADESCO    ON      N1   R$  000000000321500000000033650000000003214000000000329300000000032900000000003287000000000329011962000000000004303100000000014172455600000000000000009999123100000010000000000000BRBBDCACNOR1604
012013071796BBDC3F      020BRADESCO    ON      N1   R$  000000000320000000000034490000000003199000000000328800000000032870000000003201000000000343800069000000000000002256000000000007419055000000000000009999123100000010000000000000BRBBDCACNOR1604
012013071762BBDC3T      030BRADESCO    ON      N1061R$  000000000329000000000032910000000003290000000000329000000000032910000000000000000000000000000002000000000000011000000000000036197393000000000000009999123100000010000000000000BRBBDCACNOR1604
012013071702BBDC4       010BRADESCO    PN      N1   R$  000000000281800000000028800000000002804000000000284500000000028600000000002855000000000286130834000000000012999100000000036993334200000000000000009999123100000010000000000000BRBBDCACNPR8604
012013071796BBDC4F      020BRADESCO    PN      N1   R$  000000000277300000000028790000000002773000000000283500000000028250000000002825000000000286000231000000000000006619000000000018774384000000000000009999123100000010000000000000BRBBDCACNPR8604
012013071762BBDC4T      030BRADESCO    PN      N1016R$  000000000286100000000028620000000002861000000000286100000000028620000000000000000000000000000002000000000000001000000000000002861685000000000000009999123100000010000000000000BRBBDCACNPR8604
012013071762BBDC4T      030BRADESCO    PN      N1030R$  000000000283600000000028750000000002836000000000284800000000028750000000000000000000000000000008000000000000010100000000000028769217000000000000009999123100000010000000000000BRBBDCACNPR8604
012013071762BBDC4T      030BRADESCO    PN      N1036R$  000000000288300000000028840000000002883000000000288300000000028840000000000000000000000000000002000000000000020000000000000057677078000000000000009999123100000010000000000000BRBBDCACNPR8604
012013071762BBDC4T      030BRADESCO    PN      N1061R$  000000000285500000000028590000000002855000000000285800000000028590000000000000000000000000000004000000000000022100000000000063170566000000000000009999123100000010000000000000BRBBDCACNPR8604
012013071762BBDC4T      030BRADESCO    PN      N1090R$  000000000287200000000028760000000002872000000000287300000000028760000000000000000000000000000004000000000000001500000000000004309511000000000000009999123100000010000000000000BRBBDCACNPR8604
012013071762BBDC4T      030BRADESCO    PN      N1120R$  000000000295000000000029500000000002950000000000295000000000029500000000000000000000000000000001000000000000000020000000000000059000000000000000009999123100000010000000000000BRBBDCACNPR8604
012013071778BBDCA24     070BBDC        PN      N1000R$  000000000058200000000005820000000000582000000000058200000000005820000000000000000000000000000001000000000000003000000000000001746000000000000240002014012000000010000000000000BRBBDCACNPR8604
012013071778BBDCA29     070BBDC        PN      N1000R$  000000000025300000000002530000000000253000000000025300000000002530000000000000000000000000000001000000000000003000000000000000759000000000000287802014012000000010000000000000BRBBDCACNPR8601
012013071778BBDCA34     070BBDC        PN      N1000R$  000000000006500000000000650000000000065000000000006500000000000650000000000000000000000000000001000000000000003000000000000000195000000000000340002014012000000010000000000000BRBBDCACNPR8604
012013071778BBDCH16     070BBDCE       PN      N1000R$  000000000000400000000000040000000000004000000000000400000000000040000000000000000000000000000001000000000000002000000000000000008000000000000330302013081900000010000000000000BRBBDCACNPR8601
012013071778BBDCH24     070BBDC        PN      N1000R$  000000000038100000000003810000000000381000000000038100000000003810000000000000000000000000000001000000000000001000000000000000381000000000000238002013081900000010000000000000BRBBDCACNPR8602
012013071778BBDCH25     070BBDC        PN      N1000R$  000000000036500000000004160000000000363000000000037800000000004120000000000000000000000000000031000000000000027000000000000010207400000000000248002013081900000010000000000000BRBBDCACNPR8602
012013071778BBDCH26     070BBDC        PN      N1000R$  000000000028800000000003220000000000274000000000028400000000003220000000000290000000000000000033000000000000069200000000000019715000000000000258002013081900000010000000000000BRBBDCACNPR8602
012013071778BBDCH27     070BBDC        PN      N1000R$  000000000019900000000002420000000000193000000000021100000000002230000000000172000000000000000241000000000000642500000000000136195800000000000268002013081900000010000000000000BRBBDCACNPR8602
012013071778BBDCH28     070BBDC        PN      N1000R$  000000000012900000000001640000000000120000000000013800000000001500000000000109000000000016700345000000000002000400000000000277241200000000000278002013081900000010000000000000BRBBDCACNPR8602
012013071778BBDCH29     070BBDC        PN      N1000R$  000000000007900000000001030000000000075000000000008800000000000920000000000072000000000009900096000000000000156300000000000013904300000000000288002013081900000010000000000000BRBBDCACNPR8602
012013071778BBDCH30     070BBDC        PN      N1000R$  000000000004200000000000580000000000040000000000005000000000000510000000000031000000000006000107000000000000130400000000000006611100000000000298002013081900000010000000000000BRBBDCACNPR8602
012013071778BBDCH31     070BBDC        PN      N1000R$  000000000002100000000000290000000000019000000000002600000000000230000000000018000000000002700179000000000000329300000000000008664400000000000307602013081900000010000000000000BRBBDCACNPR8600
012013071778BBDCH32     070BBDC        PN      N1000R$  000000000000800000000000110000000000008000000000001000000000000100000000000008000000000001100070000000000000229500000000000002385500000000000318002013081900000010000000000000BRBBDCACNPR8602
012013071778BBDCH33     070BBDC        PN      N1000R$  000000000000500000000000050000000000005000000000000500000000000050000000000000000000000001900001000000000000002600000000000000013000000000000327802013081900000010000000000000BRBBDCACNPR8601
012013071778BBDCH34     070BBDC        PN      N1000R$  000000000002800000000000280000000000028000000000002800000000000280000000000022000000000003400002000000000000000400000000000000011200000000000305502013081900000010000000000000BRBBDCACNPR8595
012013071778BBDCH35     070BBDC        PN      N1000R$  000000000000100000000000010000000000001000000000000100000000000010000000000000000000000000100001000000000000001000000000000000001000000000000347802013081900000010000000000000BRBBDCACNPR8601
012013071778BBDCI26     070BBDC        PN      N1000R$  000000000033500000000003350000000000335000000000033500000000003350000000000000000000000000000001000000000000027300000000000009145500000000000260002013091600000010000000000000BRBBDCACNPR8604
012013071778BBDCI27     070BBDC        PN      N1000R$  000000000023600000000002780000000000235000000000025400000000002640000000000000000000000000000138000000000000205600000000000052252100000000000268002013091600000010000000000000BRBBDCACNPR8602
012013071778BBDCI28     070BBDC        PN      N1000R$  000000000017000000000002030000000000168000000000019000000000001960000000000000000000000000000095000000000000123700000000000023508700000000000278002013091600000010000000000000BRBBDCACNPR8602
012013071778BBDCI29     070BBDC        PN      N1000R$  000000000011900000000001430000000000115000000000013200000000001300000000000101000000000000000026000000000000042700000000000005671200000000000288002013091600000010000000000000BRBBDCACNPR8602
012013071778BBDCI30     070BBDC        PN      N1000R$  000000000007400000000000930000000000072000000000008600000000000860000000000062000000000009000037000000000000052300000000000004541500000000000298002013091600000010000000000000BRBBDCACNPR8602
012013071778BBDCI31     070BBDC        PN      N1000R$  000000000020400000000002040000000000204000000000020400000000002040000000000000000000000000000001000000000000000300000000000000061200000000000273102013091600000010000000000000BRBBDCACNPR8590
012013071778BBDCI32     070BBDC        PN      N1000R$  000000000002400000000000300000000000024000000000002700000000000300000000000021000000000003400003000000000000006400000000000000176600000000000318002013091600000010000000000000BRBBDCACNPR8602
012013071778BBDCI35     070BBDC        PN      N1000R$  000000000000600000000000060000000000006000000000000600000000000060000000000000000000000000000001000000000000003000000000000000018000000000000347802013091600000010000000000000BRBBDCACNPR8601
012013071778BBDCI37     070BBDC        PN      N1000R$  000000000001100000000000110000000000011000000000001100000000000110000000000000000000000000000001000000000000002900000000000000031900000000000333802013091600000010000000000000BRBBDCACNPR8598
012013071778BBDCI75     070BBDCE       PN      N1000R$  000000000019300000000001930000000000193000000000019300000000001930000000000000000000000000000003000000000000027300000000000005268900000000000282502013091600000010000000000000BRBBDCACNPR8604
012013071778BBDCI81     070BBDC        PN      N1000R$  000000000004400000000000550000000000043000000000004800000000000500000000000000000000000000000016000000000000024300000000000001186400000000000308002013091600000010000000000000BRBBDCACNPR8602
012013071778BBDCJ2      070BBDC        PN      N1000R$  000000000004000000000000400000000000040000000000004000000000000400000000000000000000000000000001000000000000001200000000000000048000000000000324802013102100000010000000000000BRBBDCACNPR8603
012013071778BBDCJ25     070BBDC        PN      N1000R$  000000000041800000000004180000000000413000000000041500000000004130000000000000000000000000000002000000000000005800000000000002410400000000000249802013102100000010000000000000BRBBDCACNPR8603
012013071778BBDCJ27     070BBDC        PN      N1000R$  000000000028700000000002880000000000276000000000028300000000002760000000000000000000000000000003000000000000009000000000000002553000000000000268002013102100000010000000000000BRBBDCACNPR8602
012013071778BBDCJ29     070BBDC        PN      N1000R$  000000000016500000000001650000000000156000000000015900000000001560000000000000000000000000000005000000000000014800000000000002355000000000000288002013102100000010000000000000BRBBDCACNPR8602
012013071778BBDCJ32     070BBDC        PN      N1000R$  000000000005300000000000530000000000053000000000005300000000000530000000000000000000000000000001000000000000001200000000000000063600000000000318002013102100000010000000000000BRBBDCACNPR8602
012013071778BBDCJ34     070BBDC        PN      N1000R$  000000000002200000000000250000000000021000000000002200000000000250000000000000000000000000000019000000000000053300000000000001204900000000000337602013102100000010000000000000BRBBDCACNPR8600
012013071778BBDCK33     070BBDC        PN      N1000R$  000000000005100000000000510000000000051000000000005100000000000510000000000000000000000000000001000000000000000100000000000000005100000000000328002013111800000010000000000000BRBBDCACNPR8602
012013071778BBDCL29     070BBDC        PN      N1000R$  000000000022600000000002260000000000226000000000022600000000002260000000000000000000000000000001000000000000400000000000000090400000000000000288002013121600000010000000000000BRBBDCACNPR8602
012013071778BBDCL57     070BBDCE       PN      N1000R$  000000000029500000000002950000000000295000000000029500000000002950000000000000000000000000000001000000000000003000000000000000885000000000000275602013121600000010000000000000BRBBDCACNPR8600
012013071782BBDCT25     080BBDCE       PN      N1000R$  000000000001200000000000120000000000009000000000001000000000000090000000000000000000000000000002000000000000008000000000000000081000000000000248002013081900000010000000000000BRBBDCACNPR8602
012013071782BBDCT26     080BBDCE       PN      N1000R$  000000000002000000000000210000000000013000000000001600000000000160000000000000000000000000000101000000000000099300000000000001653500000000000258002013081900000010000000000000BRBBDCACNPR8602
012013071782BBDCT27     080BBDCE       PN      N1000R$  000000000004500000000000450000000000027000000000003400000000000320000000000025000000000000000083000000000000132500000000000004631800000000000268002013081900000010000000000000BRBBDCACNPR8602
012013071782BBDCT28     080BBDCE       PN      N1000R$  000000000007800000000000790000000000049000000000006700000000000540000000000000000000000000000017000000000000027800000000000001880600000000000278002013081900000010000000000000BRBBDCACNPR8602
012013071782BBDCT29     080BBDCE       PN      N1000R$  000000000012600000000001260000000000087000000000010000000000000990000000000000000000000000000150000000000000157400000000000015800200000000000288002013081900000010000000000000BRBBDCACNPR8602
012013071782BBDCT30     080BBDCE       PN      N1000R$  000000000014400000000001560000000000139000000000014200000000001560000000000000000000000000000014000000000000011200000000000001600600000000000298002013081900000010000000000000BRBBDCACNPR8602
012013071782BBDCT32     080BBDCE       PN      N1000R$  000000000032600000000003260000000000326000000000032600000000003260000000000000000000000000000001000000000000000100000000000000032600000000000318002013081900000010000000000000BRBBDCACNPR8602
012013071782BBDCT34     080BBDCE       PN      N1000R$  000000000023600000000002420000000000196000000000020700000000002050000000000000000000000000000007000000000000013000000000000002692000000000000305502013081900000010000000000000BRBBDCACNPR8595
012013071782BBDCU24     080BBDCE       PN      N1000R$  000000000001600000000000160000000000016000000000001600000000000160000000000000000000000000000001000000000000001200000000000000019200000000000240002013091600000010000000000000BRBBDCACNPR8604
012013071782BBDCU26     080BBDCE       PN      N1000R$  000000000004600000000000460000000000034000000000003600000000000340000000000000000000000000000013000000000000008200000000000000302800000000000260002013091600000010000000000000BRBBDCACNPR8604
012013071782BBDCU27     080BBDCE       PN      N1000R$  000000000006300000000000640000000000049000000000005400000000000500000000000000000000000000000009000000000000013600000000000000743100000000000268002013091600000010000000000000BRBBDCACNPR8602
012013071782BBDCU28     080BBDCE       PN      N1000R$  000000000009600000000000970000000000074000000000008500000000000750000000000000000000000000000022000000000000031400000000000002676400000000000278002013091600000010000000000000BRBBDCACNPR8602
012013071782BBDCU29     080BBDCE       PN      N1000R$  000000000014000000000001400000000000111000000000012600000000001190000000000000000000000000000024000000000000039000000000000004940400000000000288002013091600000010000000000000BRBBDCACNPR8602
012013071782BBDCU30     080BBDCE       PN      N1000R$  000000000019400000000001940000000000161000000000017700000000001610000000000000000000000000000002000000000000004100000000000000729400000000000298002013091600000010000000000000BRBBDCACNPR8602
012013071782BBDCU31     080BBDCE       PN      N1000R$  000000000006200000000000620000000000062000000000006200000000000620000000000000000000000000000001000000000000002000000000000000124000000000000273102013091600000010000000000000BRBBDCACNPR8590
012013071782BBDCU33     080BBDCE       PN      N1000R$  000000000019100000000001910000000000187000000000018900000000001870000000000000000000000000000002000000000000004100000000000000775100000000000297402013091600000010000000000000BRBBDCACNPR8598
012013071782BBDCV2      080BBDCE       PN      N1000R$  000000000041400000000004140000000000362000000000038800000000003620000000000000000000000000000002000000000000004000000000000001552000000000000324802013102100000010000000000000BRBBDCACNPR8603
012013071782BBDCV25     080BBDCE       PN      N1000R$  000000000004300000000000430000000000043000000000004300000000000430000000000000000000000000000001000000000000001900000000000000081700000000000249802013102100000010000000000000BRBBDCACNPR8603
012013071782BBDCV26     080BBDCE       PN      N1000R$  000000000006200000000000620000000000062000000000006200000000000620000000000000000000000000000001000000000000002000000000000000124000000000000260002013102100000010000000000000BRBBDCACNPR8604
012013071782BBDCV27     080BBDCE       PN      N1000R$  000000000008600000000000860000000000086000000000008600000000000860000000000000000000000000000001000000000000001200000000000000103200000000000268002013102100000010000000000000BRBBDCACNPR8602
012013071782BBDCV28     080BBDCE       PN      N1000R$  000000000003800000000000380000000000038000000000003800000000000380000000000000000000000000000001000000000000002000000000000000076000000000000246002013102100000010000000000000BRBBDCACNPR8591
012013071782BBDCV32     080BBDCE       PN      N1000R$  000000000031000000000003100000000000310000000000031000000000003100000000000000000000000000000001000000000000001600000000000000496000000000000318002013102100000010000000000000BRBBDCACNPR8602
012013071782BBDCV33     080BBDCE       PN      N1000R$  000000000044000000000004400000000000384000000000041400000000003870000000000000000000000000000009000000000000013900000000000005764700000000000328002013102100000010000000000000BRBBDCACNPR8602
012013071782BBDCV34     080BBDCE       PN      N1000R$  000000000052200000000005240000000000463000000000049400000000004670000000000000000000000000000024000000000000040000000000000019760000000000000337602013102100000010000000000000BRBBDCACNPR8600
012013071712BBFI11B     010FII BB PROGRCI      MB   R$  000000042300000000004240000000000420500000000042218100000004220000000000420606000000042200000008000000000000000022000000000009288000000000000000009999123100000010000000000000BRBBFICTF006196
012013071712BBPO11      010FII BB PRGIICI           R$  000000001089600000000109200000000010810000000001089200000000109200000000010900000000001092000303000000000000027208000000000296364946000000000000009999123100000010000000000000BRBBPOCTF003108
012013071712BBRC11      010FII BB CORP CI           R$  000000000950000000000097740000000009500000000000953200000000097000000000009421000000000974900008000000000000000367000000000003498396000000000000009999123100000010000000000000BRBBRCCTF004122
012013071702BBRK3       010BR BROKERS  ON      NM   R$  000000000056600000000005800000000000549000000000056500000000005630000000000563000000000056504220000000000003097100000000001751333000000000000000009999123100000010000000000000BRBBRKACNOR4108
012013071796BBRK3F      020BR BROKERS  ON      NM   R$  000000000057000000000005780000000000547000000000056000000000005470000000000547000000000064900013000000000000000311000000000000174384000000000000009999123100000010000000000000BRBBRKACNOR4108
012013071702BBSE3       010BBSEGURIDADEON      NM   R$  000000000174000000000017980000000001735000000000176900000000017960000000001795000000000179616025000000000006742200000000011933283900000000000000009999123100000010000000000000BRBBSEACNOR5100
012013071796BBSE3F      020BBSEGURIDADEON      NM   R$  000000000174000000000017970000000001730000000000177300000000017800000000001775000000000178000666000000000000017866000000000031690930000000000000009999123100000010000000000000BRBBSEACNOR5100
012013071762BBSE3T      030BBSEGURIDADEON      NM016R$  000000000175600000000017570000000001756000000000175600000000017570000000000000000000000000000002000000000000006300000000000011063877000000000000009999123100000010000000000000BRBBSEACNOR5100
012013071762BBSE3T      030BBSEGURIDADEON      NM061R$  000000000177500000000017760000000001775000000000177500000000017760000000000000000000000000000002000000000000002000000000000003550750000000000000009999123100000010000000000000BRBBSEACNOR5100
012013071702BBTG11      010BTG PACTUAL UNT          R$  000000000278100000000028170000000002774000000000278700000000027800000000002780000000000278900202000000000000795000000000002216163200000000000000009999123100000010000000000000BRBBTGUNT007104
012013071796BBTG11F     020BTG PACTUAL UNT          R$  000000000279900000000028090000000002770000000000278100000000027800000000002603000000000281000007000000000000000153000000000000425549000000000000009999123100000010000000000000BRBBTGUNT007104
012013071712BBVJ11      010FII C JARDIMCI           R$  000000000777900000000079990000000007649000000000775000000000079990000000007900000000000799800036000000000000002026000000000015702535000000000000009999123100000010000000000000BRBBVJCTF001131
012013071712BCFF11B     010FII BC FFII CI  ER  MB   R$  000000000964900000000097400000000009635000000000966100000000096700000000009641000000000967000115000000000000007147000000000069050711000000000000009999123100000010000000000000BRBCFFCTF000140
012013071702BDLL4       010BARDELLA    PN           R$  000000000478900000000047890000000004789000000000478900000000047890000000004350000000000479000002000000000000000700000000000003352300000000000000009999123100000010000000000000BRBDLLACNPR8149
012013071762BDLL4T      030BARDELLA    PN        047R$  000000000483700000000048380000000004837000000000483700000000048380000000000000000000000000000002000000000000000600000000000002902421000000000000009999123100000010000000000000BRBDLLACNPR8149
012013071702BEEF3       010MINERVA     ON      NM   R$  000000000092100000000009500000000000909000000000093100000000009300000000000930000000000093204387000000000001101100000000001025492100000000000000009999123100000010000000000000BRBEEFACNOR6104
012013071796BEEF3F      020MINERVA     ON      NM   R$  000000000090600000000009530000000000906000000000092400000000009210000000000904000000000092100021000000000000000571000000000000527629000000000000009999123100000010000000000000BRBEEFACNOR6104
012013071762BEEF3T      030MINERVA     ON      NM030R$  000000000093400000000009350000000000934000000000093400000000009350000000000000000000000000000002000000000000003000000000000002802374000000000000009999123100000010000000000000BRBEEFACNOR6104
012013071710BEES1       010BANESTES    DIR ORD      R$  000000000000300000000000030000000000001000000000000100000000000010000000000001000000000000200027000000000000209100000000000000245400000000000000009999123100000010000000000000BRBEESD03OR0241
012013071796BEES1F      020BANESTES    DIR ORD      R$  000000000000100000000000010000000000001000000000000100000000000010000000000000000000000000100012000000000000000398000000000000000398000000000000009999123100000010000000000000BRBEESD03OR0241
012013071702BEES3       010BANESTES    ON  ES       R$  000000000004800000000000490000000000047000000000004700000000000490000000000048000000000004900016000000000000073100000000000003508000000000000000009999123100000010000000000000BRBEESACNOR9242
012013071702BEES4       010BANESTES    PN  ES       R$  000000000004500000000000450000000000042000000000004200000000000420000000000042000000000004600005000000000000003300000000000000139900000000000000009999123100000010000000000000BRBEESACNPR6167
012013071702BEMA3       010BEMATECH    ON      NM   R$  000000000070500000000007050000000000690000000000069500000000006900000000000690000000000069100098000000000000041800000000000029080900000000000000009999123100000010000000000000BRBEMAACNOR0113
012013071796BEMA3F      020BEMATECH    ON      NM   R$  000000000070000000000007000000000000695000000000069700000000006950000000000664000000000072400002000000000000000012000000000000008375000000000000009999123100000010000000000000BRBEMAACNOR0113
012013071796BGIP4F      020BANESE      PN           R$  000000000530000000000053000000000005300000000000530000000000053000000000004810000000000530000001000000000000000001000000000000005300000000000000009999123100000010000000000000BRBGIPACNPR8178
012013071702BHGR3       010BHG         ON      NM   R$  000000000158600000000016240000000001559000000000157400000000016240000000001562000000000162400157000000000000110800000000000174413400000000000000009999123100000010000000000000BRBHGRACNOR9101
012013071702BICB4       010BICBANCO    PN      N1   R$  000000000039800000000004000000000000396000000000039900000000004000000000000398000000000040000045000000000000017100000000000006834800000000000000009999123100000010000000000000BRBICBACNPR7131
012013071796BICB4F      020BICBANCO    PN      N1   R$  000000000040400000000004040000000000398000000000040200000000003980000000000398000000000040400002000000000000000034000000000000013688000000000000009999123100000010000000000000BRBICBACNPR7131
012013071796BIOM4F      020BIOMM       PN           R$  000000000082000000000008200000000000820000000000082000000000008200000000000766000000000090000002000000000000000157000000000000128740000000000000009999123100000010000000000000BRBIOMACNPR9101
012013071702BISA3       010BROOKFIELD  ON      NM   R$  000000000016200000000001650000000000160000000000016200000000001620000000000162000000000016302762000000000004577200000000000742760100000000000000009999123100000010000000000000BRBISAACNOR8109
012013071796BISA3F      020BROOKFIELD  ON      NM   R$  000000000016100000000001660000000000149000000000016100000000001640000000000157000000000016400027000000000000000829000000000000134286000000000000009999123100000010000000000000BRBISAACNOR8109
012013071762BISA3T      030BROOKFIELD  ON      NM047R$  000000000016300000000001640000000000163000000000016300000000001640000000000000000000000000000002000000000000070000000000000011456802000000000000009999123100000010000000000000BRBISAACNOR8109
012013071762BISA3T      030BROOKFIELD  ON      NM061R$  000000000016600000000001670000000000164000000000016500000000001650000000000000000000000000000004000000000000017000000000000002821700000000000000009999123100000010000000000000BRBISAACNOR8109
012013071762BISA3T      030BROOKFIELD  ON      NM120R$  000000000016300000000001640000000000163000000000016300000000001640000000000000000000000000000002000000000000000053000000000000008689000000000000009999123100000010000000000000BRBISAACNOR8109
012013071702BMEB4       010MERC BRASIL PN           R$  000000000113100000000011310000000001131000000000113100000000011310000000001101000000000113300001000000000000000500000000000000565500000000000000009999123100000010000000000000BRBMEBACNPR5190
012013071702BMTO4       010BRASMOTOR   PN           R$  000000000008500000000000870000000000085000000000008500000000000870000000000086000000000008700007000000000000011000000000000000943000000000000000009999123100000010000000000000BRBMTOACNPR6065
012013071702BOBR4       010BOMBRIL     PN           R$  000000000069500000000006950000000000651000000000067500000000006510000000000651000000000068000004000000000000000700000000000000473000000000000000009999123100000010000000000000BRBOBRACNPR3127
012013071714BOVA11      010ISHARES BOVACI           R$  000000000464900000000046850000000004566000000000465300000000046570000000004645000000000465705535000000000001670200000000007772677580000000000000009999123100000010000000000000BRBOVACTF003101
012013071796BOVA11F     020ISHARES BOVACI           R$  000000000457300000000046890000000004573000000000463100000000046500000000004650000000000468500010000000000000000026000000000000120425000000000000009999123100000010000000000000BRBOVACTF003101
012013071762BOVA11T     030ISHARES BOVACI        061R$  000000000471400000000047150000000004714000000000471400000000047150000000000000000000000000000002000000000000002000000000000009428237000000000000009999123100000010000000000000BRBOVACTF003101
012013071782BOVAT53     080BOVAE       CI        000R$  000000000065000000000006500000000000650000000000065000000000006500000000000000000000000000000001000000000000002500000000000001625000000000000530002013081900000010000000000000BRBOVACTF003101
012013071782BOVAT54     080BOVAE       CI        000R$  000000000075000000000007500000000000750000000000075000000000007500000000000000000000000000000001000000000000040000000000000030000000000000000540002013081900000010000000000000BRBOVACTF003101
012013071782BOVAV51     080BOVAE       CI        000R$  000000000053000000000005300000000000530000000000053000000000005300000000000000000000000000000001000000000000003000000000000001590000000000000510002013102100000010000000000000BRBOVACTF003101
012013071712BPFF11      010FII ABSOLUTOCI           R$  000000000865100000000090000000000008650000000000873000000000089740000000008700000000000897400015000000000000000647000000000005648350000000000000009999123100000010000000000000BRBPFFCTF002103
012013071702BPHA3       010BR PHARMA   ON      NM   R$  000000000104300000000010560000000000992000000000101300000000009950000000000994000000000099702376000000000001318400000000001335774000000000000000009999123100000010000000000000BRBPHAACNOR6102
012013071796BPHA3F      020BR PHARMA   ON      NM   R$  000000000100200000000010240000000000991000000000099700000000009910000000000990000000000102300003000000000000000014000000000000013962000000000000009999123100000010000000000000BRBPHAACNOR6102
012013071702BPNM4       010PANAMERICANOPN      N1   R$  000000000053500000000005370000000000530000000000053000000000005300000000000530000000000053300917000000000000581600000000000308598900000000000000009999123100000010000000000000BRBPNMACNPR6111
012013071702BRAP3       010BRADESPAR   ON      N1   R$  000000000183100000000018700000000001800000000000181200000000018350000000001835000000000183900084000000000000056800000000000102951700000000000000009999123100000010000000000000BRBRAPACNOR5124
012013071796BRAP3F      020BRADESPAR   ON      N1   R$  000000000179900000000017990000000001780000000000179100000000017850000000001781000000000185000007000000000000000141000000000000252597000000000000009999123100000010000000000000BRBRAPACNOR5124
012013071702BRAP4       010BRADESPAR   PN      N1   R$  000000000219100000000022270000000002174000000000219700000000021820000000002181000000000218208578000000000001809100000000003975919000000000000000009999123100000010000000000000BRBRAPACNPR2124
012013071796BRAP4F      020BRADESPAR   PN      N1   R$  000000000222900000000022290000000002172000000000219200000000021850000000002185000000000220000048000000000000001325000000000002904486000000000000009999123100000010000000000000BRBRAPACNPR2124
012013071762BRAP4T      030BRADESPAR   PN      N1016R$  000000000219600000000021970000000002196000000000219600000000021970000000000000000000000000000002000000000000000100000000000000219640000000000000009999123100000010000000000000BRBRAPACNPR2124
012013071762BRAP4T      030BRADESPAR   PN      N1061R$  000000000224200000000022430000000002242000000000224200000000022430000000000000000000000000000002000000000000002000000000000004484236000000000000009999123100000010000000000000BRBRAPACNPR2124
012013071762BRAP4T      030BRADESPAR   PN      N1120R$  000000000226200000000022630000000002262000000000226200000000022630000000000000000000000000000002000000000000000003000000000000006787000000000000009999123100000010000000000000BRBRAPACNPR2124
012013071714BRAX11      010ISHARES BRAXCI           R$  000000000390700000000039070000000003907000000000390700000000039070000000003700000000000000000016000000000000020000000000000078140000000000000000009999123100000010000000000000BRBRAXCTF002100
012013071712BRCR11      010FII BC FUND CI  ER       R$  000000001360000000000136700000000013551000000001360600000000135800000000013575000000001358000335000000000000025676000000000349368035000000000000009999123100000010000000000000BRBRCRCTF000131
012013071702BRFS3       010BRF SA      ON      NM   R$  000000000480700000000048490000000004761000000000480100000000048230000000004796000000000482305165000000000001389700000000006672065800000000000000009999123100000010000000000000BRBRFSACNOR8110
012013071796BRFS3F      020BRF SA      ON      NM   R$  000000000486000000000048600000000004759000000000479900000000048330000000004782000000000483300158000000000000004532000000000021752498000000000000009999123100000010000000000000BRBRFSACNOR8110
012013071762BRFS3T      030BRF SA      ON      NM030R$  000000000487400000000048760000000004874000000000487500000000048760000000000000000000000000000004000000000000002100000000000010238039000000000000009999123100000010000000000000BRBRFSACNOR8110
012013071762BRFS3T      030BRF SA      ON      NM090R$  000000000489900000000049070000000004889000000000489600000000048980000000000000000000000000000016000000000000201000000000000984133903000000000000009999123100000010000000000000BRBRFSACNOR8110
012013071778BRFSH49     070BRFS        ON      NM000R$  000000000009200000000001300000000000091000000000010900000000001100000000000000000000000000000018000000000000027600000000000003025800000000000490002013081900000010000000000000BRBRFSACNOR8110
012013071778BRFSH50     070BRFS        ON      NM000R$  000000000006600000000000720000000000066000000000006900000000000720000000000000000000000015000002000000000000000200000000000000013800000000000500002013081900000010000000000000BRBRFSACNOR8110
012013071796BRGE6F      020ALFA CONSORCPNB          R$  000000000040000000000004000000000000400000000000040000000000004000000000000000000000000000000001000000000000000006000000000000002400000000000000009999123100000010000000000000BRBRGEACNPB7197
012013071702BRIN3       010BR INSURANCEON      NM   R$  000000000210600000000021290000000002086000000000210200000000021000000000002093000000000210001352000000000000466000000000000979890400000000000000009999123100000010000000000000BRBRINACNOR3105
012013071796BRIN3F      020BR INSURANCEON      NM   R$  000000000212000000000021200000000002090000000000210100000000020900000000002080000000000210500009000000000000000175000000000000367804000000000000009999123100000010000000000000BRBRINACNOR3105
012013071702BRKM3       010BRASKEM     ON      N1   R$  000000000114200000000011830000000001142000000000114600000000011600000000001160000000000118300016000000000000025600000000000029356700000000000000009999123100000010000000000000BRBRKMACNOR1110
012013071762BRKM3T      030BRASKEM     ON      N1180R$  000000000119500000000011960000000001195000000000119500000000011960000000000000000000000000000002000000000000020000000000000023906988000000000000009999123100000010000000000000BRBRKMACNOR1110
012013071702BRKM5       010BRASKEM     PNA     N1   R$  000000000167100000000017200000000001671000000000170000000000016970000000001694000000000169705569000000000001035100000000001759886300000000000000009999123100000010000000000000BRBRKMACNPA4110
012013071796BRKM5F      020BRASKEM     PNA     N1   R$  000000000167000000000017130000000001660000000000169500000000017080000000001678000000000169900026000000000000000860000000000001458094000000000000009999123100000010000000000000BRBRKMACNPA4110
012013071762BRKM5T      030BRASKEM     PNA     N1030R$  000000000171700000000017180000000001717000000000171700000000017180000000000000000000000000000002000000000000059000000000000101318316000000000000009999123100000010000000000000BRBRKMACNPA4110
012013071778BRKMI53     070BRKME       PNA     N1000R$  000000000040300000000004030000000000403000000000040300000000004030000000000000000000000000000002000000000000778000000000000313534000000000000132502013091600000010000000000000BRBRKMACNPA4110
012013071778BRKMI59     070BRKME       PNA     N1000R$  000000000003800000000000380000000000038000000000003800000000000380000000000000000000000000000002000000000000778000000000000029564000000000000192502013091600000010000000000000BRBRKMACNPA4110
012013071782BRKMU53     080BRKME       PNA     N1000R$  000000000000400000000000040000000000004000000000000400000000000040000000000000000000000000000002000000000000778000000000000003112000000000000132502013091600000010000000000000BRBRKMACNPA4110
012013071782BRKMU59     080BRKME       PNA     N1000R$  000000000022900000000002290000000000229000000000022900000000002290000000000000000000000000000002000000000000778000000000000178162000000000000192502013091600000010000000000000BRBRKMACNPA4110
012013071702BRML3       010BR MALLS PARON      NM   R$  000000000197100000000019920000000001926000000000195100000000019590000000001952000000000195909387000000000003542900000000006915161000000000000000009999123100000010000000000000BRBRMLACNOR9105
012013071796BRML3F      020BR MALLS PARON      NM   R$  000000000196400000000019850000000001930000000000194900000000019400000000001937000000000197800054000000000000001526000000000002974313000000000000009999123100000010000000000000BRBRMLACNOR9105
012013071762BRML3T      030BR MALLS PARON      NM016R$  000000000196700000000019680000000001967000000000196700000000019680000000000000000000000000000002000000000000000500000000000000983516000000000000009999123100000010000000000000BRBRMLACNOR9105
012013071762BRML3T      030BR MALLS PARON      NM120R$  000000000199700000000019980000000001997000000000199700000000019980000000000000000000000000000002000000000000000019000000000000037948000000000000009999123100000010000000000000BRBRMLACNOR9105
012013071778BRMLH50     070BRML        ON      NM000R$  000000000003200000000000320000000000028000000000003100000000000280000000000000000000000000000006000000000000400600000000000012576800000000000205002013081900000010000000000000BRBRMLACNOR9105
012013071778BRMLI21     070BRML        ON      NM000R$  000000000002500000000000250000000000025000000000002500000000000250000000000000000000000000000002000000000000002000000000000000050000000000000210002013091600000010000000000000BRBRMLACNOR9105
012013071782BRMLT48     080BRMLE       ON      NM000R$  000000000002000000000000200000000000020000000000002000000000000200000000000000000000000000000003000000000000400000000000000008000000000000000185002013081900000010000000000000BRBRMLACNOR9105
012013071782BRMLT49     080BRMLE       ON      NM000R$  000000000004700000000000470000000000045000000000004600000000000450000000000000000000000000000003000000000000400000000000000018500000000000000195002013081900000010000000000000BRBRMLACNOR9105
012013071702BRPR3       010BR PROPERT  ON      NM   R$  000000000197700000000019930000000001950000000000196100000000019650000000001956000000000196506831000000000001779100000000003489938500000000000000009999123100000010000000000000BRBRPRACNOR9112
012013071796BRPR3F      020BR PROPERT  ON      NM   R$  000000000196500000000020090000000001852000000000194700000000018530000000001853000000000201000038000000000000001105000000000002145241000000000000009999123100000010000000000000BRBRPRACNOR9112
012013071762BRPR3T      030BR PROPERT  ON      NM020R$  000000000197000000000019710000000001970000000000197000000000019710000000000000000000000000000002000000000000004000000000000007883220000000000000009999123100000010000000000000BRBRPRACNOR9112
012013071762BRPR3T      030BR PROPERT  ON      NM030R$  000000000197100000000019720000000001971000000000197100000000019720000000000000000000000000000002000000000000001500000000000002957886000000000000009999123100000010000000000000BRBRPRACNOR9112
012013071762BRPR3T      030BR PROPERT  ON      NM090R$  000000000199400000000019950000000001994000000000199400000000019950000000000000000000000000000002000000000000001000000000000001994749000000000000009999123100000010000000000000BRBRPRACNOR9112
012013071702BRSR6       010BANRISUL    PNB     N1   R$  000000000140300000000014500000000001391000000000140600000000014280000000001428000000000143004149000000000001569600000000002208408100000000000000009999123100000010000000000000BRBRSRACNPB4133
012013071796BRSR6F      020BANRISUL    PNB     N1   R$  000000000143000000000014460000000001392000000000141000000000014460000000001395000000000147500039000000000000001192000000000001681906000000000000009999123100000010000000000000BRBRSRACNPB4133
012013071762BRSR6T      030BANRISUL    PNB     N1120R$  000000000147700000000014780000000001477000000000147700000000014780000000000000000000000000000002000000000000000008000000000000011821000000000000009999123100000010000000000000BRBRSRACNPB4133
012013071702BSEV3       010BIOSEV      ON      NM   R$  000000000124900000000012500000000001239000000000124000000000012390000000001239000000000125000011000000000000001900000000000002356800000000000000009999123100000010000000000000BRBSEVACNOR3100
012013071796BSEV3F      020BIOSEV      ON      NM   R$  000000000111600000000011160000000001116000000000111600000000011160000000001120000000000122900002000000000000000047000000000000052452000000000000009999123100000010000000000000BRBSEVACNOR3100
012013071782BSEVS99     080BSEVE       ON      NM000R$  000000000025200000000002520000000000252000000000025200000000002520000000000252000000000030000001000000000000000747000000000000188244000000000165702014072100000010000000000000BRBSEVACNOR3100
012013071702BTOW3       010B2W DIGITAL ON      NM   R$  000000000091400000000009430000000000884000000000090700000000008880000000000888000000000089001806000000000000667500000000000605576500000000000000009999123100000010000000000000BRBTOWACNOR8105
012013071796BTOW3F      020B2W DIGITAL ON      NM   R$  000000000099900000000009990000000000882000000000091100000000008940000000000886000000000096000016000000000000000357000000000000325309000000000000009999123100000010000000000000BRBTOWACNOR8105
012013071762BTOW3T      030B2W DIGITAL ON      NM061R$  000000000089900000000009000000000000899000000000089900000000009000000000000000000000000000000002000000000000001000000000000000899633000000000000009999123100000010000000000000BRBTOWACNOR8105
012013071762BTOW3T      030B2W DIGITAL ON      NM090R$  000000000094400000000009450000000000944000000000094400000000009450000000000000000000000000000002000000000000005000000000000004723992000000000000009999123100000010000000000000BRBTOWACNOR8105
012013071702BTTL3       010BATTISTELLA ON           R$  000000000007900000000000790000000000079000000000007900000000000790000000000075000000000007900004000000000000010000000000000000790000000000000000009999123100000010000000000000BRBTTLACNOR0105
012013071702BTTL4       010BATTISTELLA PN           R$  000000000009500000000000990000000000095000000000009600000000000990000000000097000000000009800009000000000000006000000000000000580000000000000000009999123100000010000000000000BRBTTLACNPR7105
012013071702BVMF3       010BMFBOVESPA  ON      NM   R$  000000000123100000000012600000000001216000000000123700000000012480000000001247000000000124821566000000000013095400000000016210546500000000000000009999123100000010000000000000BRBVMFACNOR3125
012013071796BVMF3F      020BMFBOVESPA  ON      NM   R$  000000000123500000000012590000000001218000000000123800000000012430000000001237000000000124700136000000000000004619000000000005721942000000000000009999123100000010000000000000BRBVMFACNOR3125
012013071762BVMF3T      030BMFBOVESPA  ON      NM061R$  000000000125900000000012600000000001259000000000125900000000012600000000000000000000000000000002000000000000107200000000000135059651000000000000009999123100000010000000000000BRBVMFACNOR3125
012013071778BVMFH1      070BVMFE       ON      NM000R$  000000000002000000000000260000000000020000000000002500000000000250000000000003000000000000000004000000000000012400000000000000314300000000000132502013081900000010000000000000BRBVMFACNOR3125
012013071778BVMFH10     070BVMF        ON      NM000R$  000000000026100000000002610000000000261000000000026100000000002610000000000000000000000000000002000000000000007000000000000001827000000000000100002013081900000010000000000000BRBVMFACNOR3125
012013071778BVMFH11     070BVMF        ON      NM000R$  000000000016000000000001630000000000160000000000016200000000001630000000000149000000000000000002000000000000003900000000000000632700000000000110002013081900000010000000000000BRBVMFACNOR3125
012013071778BVMFH12     070BVMF  FM    ON      NM000R$  000000000008600000000000990000000000072000000000008600000000000900000000000091000000000009800199000000000000438600000000000038134400000000000120002013081900000010000000000000BRBVMFACNOR3125
012013071778BVMFH13     070BVMF  FM    ON      NM000R$  000000000003700000000000410000000000030000000000003500000000000360000000000034000000000003700385000000000000846500000000000029683100000000000128902013081900000010000000000000BRBVMFACNOR3124
012013071778BVMFH14     070BVMF  FM    ON      NM000R$  000000000000900000000000100000000000007000000000000800000000000090000000000008000000000000900082000000000000212500000000000001863600000000000138902013081900000010000000000000BRBVMFACNOR3124
012013071778BVMFH15     070BVMF        ON      NM000R$  000000000000200000000000030000000000002000000000000200000000000030000000000002000000000000300006000000000000020200000000000000056600000000000150002013081900000010000000000000BRBVMFACNOR3125
012013071778BVMFH40     070BVMF        ON      NM000R$  000000000019800000000002100000000000198000000000020300000000002100000000000000000000000000000003000000000000005300000000000001077000000000000105002013081900000010000000000000BRBVMFACNOR3125
012013071778BVMFH42     070BVMF  FM    ON      NM000R$  000000000004900000000000640000000000048000000000005600000000000570000000000036000000000000000059000000000000152000000000000008571500000000000125002013081900000010000000000000BRBVMFACNOR3125
012013071778BVMFH43     070BVMF  FM    ON      NM000R$  000000000001300000000000160000000000012000000000001500000000000160000000000016000000000001700033000000000000061800000000000000963500000000000135002013081900000010000000000000BRBVMFACNOR3125
012013071778BVMFH62     070BVMFE       ON      NM000R$  000000000006300000000000630000000000063000000000006300000000000630000000000000000000000000000001000000000000006000000000000000378000000000000122502013081900000010000000000000BRBVMFACNOR3125
012013071778BVMFI11     070BVMF        ON      NM000R$  000000000017700000000001770000000000177000000000017700000000001770000000000000000000000000000001000000000000001000000000000000177000000000000110002013091600000010000000000000BRBVMFACNOR3125
012013071778BVMFI12     070BVMF  FM    ON      NM000R$  000000000009600000000001130000000000092000000000009800000000001080000000000080000000000014000015000000000000161300000000000015892900000000000120002013091600000010000000000000BRBVMFACNOR3125
012013071778BVMFI13     070BVMF  FM    ON      NM000R$  000000000004200000000000550000000000040000000000004800000000000540000000000039000000000005400024000000000000049300000000000002393900000000000130002013091600000010000000000000BRBVMFACNOR3125
012013071778BVMFI14     070BVMF  FM    ON      NM000R$  000000000001200000000000180000000000011000000000001300000000000170000000000010000000000001500048000000000000052300000000000000688400000000000140002013091600000010000000000000BRBVMFACNOR3125
012013071778BVMFI15     070BVMF        ON      NM000R$  000000000000600000000000060000000000006000000000000600000000000060000000000000000000000000600009000000000000020500000000000000123000000000000150002013091600000010000000000000BRBVMFACNOR3125
012013071778BVMFI42     070BVMF  FM    ON      NM000R$  000000000006800000000000830000000000066000000000007500000000000720000000000000000000000000000023000000000000058300000000000004408500000000000125002013091600000010000000000000BRBVMFACNOR3125
012013071778BVMFI43     070BVMF  FM    ON      NM000R$  000000000002600000000000330000000000026000000000003000000000000320000000000000000000000003500012000000000000018200000000000000548300000000000135002013091600000010000000000000BRBVMFACNOR3125
012013071778BVMFJ13     070BVMF        ON      NM000R$  000000000006300000000000630000000000063000000000006300000000000630000000000000000000000007400001000000000000006000000000000000378000000000000130002013102100000010000000000000BRBVMFACNOR3125
012013071778BVMFJ15     070BVMF        ON      NM000R$  000000000001800000000000180000000000018000000000001800000000000180000000000012000000000002000002000000000000002500000000000000045000000000000150002013102100000010000000000000BRBVMFACNOR3125
012013071778BVMFL13     070BVMF        ON      NM000R$  000000000009100000000000910000000000091000000000009100000000000910000000000000000000000000000001000000000000003000000000000000273000000000000130002013121600000010000000000000BRBVMFACNOR3125
012013071778BVMFL14     070BVMF        ON      NM000R$  000000000005200000000000520000000000052000000000005200000000000520000000000000000000000000000001000000000000001800000000000000093600000000000138902013121600000010000000000000BRBVMFACNOR3124
012013071782BVMFT1      080BVMFE       ON      NM000R$  000000000009000000000000900000000000090000000000009000000000000900000000000000000000000000000001000000000000000100000000000000009000000000000132502013081900000010000000000000BRBVMFACNOR3125
012013071782BVMFT11     080BVMFE       ON      NM000R$  000000000001500000000000150000000000015000000000001500000000000150000000000005000000000007500001000000000000001800000000000000027000000000000110002013081900000010000000000000BRBVMFACNOR3125
012013071782BVMFT12     080BVMFE FM    ON      NM000R$  000000000004500000000000490000000000033000000000004000000000000370000000000033000000000004500083000000000000072900000000000002925300000000000120002013081900000010000000000000BRBVMFACNOR3125
012013071782BVMFT13     080BVMFE FM    ON      NM000R$  000000000008400000000000840000000000063000000000007100000000000730000000000000000000000007500143000000000000123400000000000008812700000000000128902013081900000010000000000000BRBVMFACNOR3124
012013071782BVMFT14     080BVMFE       ON      NM000R$  000000000015700000000001570000000000157000000000015700000000001570000000000000000000000000000001000000000000003500000000000000549500000000000138902013081900000010000000000000BRBVMFACNOR3124
012013071782BVMFT40     080BVMFE       ON      NM000R$  000000000001400000000000140000000000014000000000001400000000000140000000000000000000000001600004000000000000009300000000000000130200000000000105002013081900000010000000000000BRBVMFACNOR3125
012013071782BVMFT41     080BVMFE FM    ON      NM000R$  000000000003200000000000340000000000023000000000003000000000000230000000000000000000000005500015000000000000042800000000000001318300000000000115002013081900000010000000000000BRBVMFACNOR3125
012013071782BVMFT42     080BVMFE FM    ON      NM000R$  000000000007100000000000710000000000048000000000005200000000000540000000000000000000000000000036000000000000064500000000000003416600000000000125002013081900000010000000000000BRBVMFACNOR3125
012013071782BVMFT62     080BVMFE       ON      NM000R$  000000000004100000000000410000000000041000000000004100000000000410000000000000000000000000000001000000000000005800000000000000237800000000000122502013081900000010000000000000BRBVMFACNOR3125
012013071782BVMFU10     080BVMFE       ON      NM000R$  000000000001100000000000110000000000009000000000000900000000000090000000000000000000000001000002000000000000002100000000000000019500000000000100002013091600000010000000000000BRBVMFACNOR3125
012013071782BVMFU12     080BVMFE FM    ON      NM000R$  000000000005700000000000570000000000044000000000005000000000000440000000000031000000000005800007000000000000004100000000000000209000000000000120002013091600000010000000000000BRBVMFACNOR3125
012013071782BVMFU13     080BVMFE FM    ON      NM000R$  000000000009700000000000970000000000088000000000009200000000000880000000000057000000000009000006000000000000010700000000000000990100000000000130002013091600000010000000000000BRBVMFACNOR3125
012013071782BVMFU14     080BVMFE       ON      NM000R$  000000000016600000000001660000000000150000000000015800000000001500000000000000000000000000000002000000000000001000000000000000158000000000000140002013091600000010000000000000BRBVMFACNOR3125
012013071782BVMFU41     080BVMFE FM    ON      NM000R$  000000000004100000000000410000000000030000000000003400000000000300000000000000000000000000000014000000000000016800000000000000581200000000000115002013091600000010000000000000BRBVMFACNOR3125
012013071782BVMFU42     080BVMFE FM    ON      NM000R$  000000000007200000000000720000000000060000000000006400000000000630000000000000000000000000000019000000000000040100000000000002591900000000000125002013091600000010000000000000BRBVMFACNOR3125
012013071782BVMFV42     080BVMFE       ON      NM000R$  000000000009000000000000900000000000090000000000009000000000000900000000000000000000000000000001000000000000005000000000000000450000000000000125002013102100000010000000000000BRBVMFACNOR3125
012013071782BVMFX2      080BVMFE       ON      NM000R$  000000000007000000000000700000000000070000000000007000000000000700000000000000000000000007000001000000000000000100000000000000007000000000000118902013121600000010000000000000BRBVMFACNOR3124
012013071702CARD3       010CSU CARDSYSTON      NM   R$  000000000033400000000003340000000000323000000000032500000000003250000000000312000000000032500011000000000000024700000000000008029800000000000000009999123100000010000000000000BRCARDACNOR9105
012013071796CARD3F      020CSU CARDSYSTON      NM   R$  000000000032400000000003300000000000324000000000032400000000003250000000000286000000000032300003000000000000000130000000000000042225000000000000009999123100000010000000000000BRCARDACNOR9105
012013071702CBEE3       010AMPLA ENERG ON *         R$  000000000011500000000001210000000000115000000000011700000000001210000000000112000000000012000010000000000007200000000000000000845500000000000000009999123100010000000000000000BRCBEEACNOR3149
012013071796CBEE3F      020AMPLA ENERG ON *         R$  000000000012000000000001200000000000112000000000011300000000001120000000000112000000000016000002000000000000019998000000000000002260000000000000009999123100010000000000000000BRCBEEACNOR3149
012013071762CBEE3T      030AMPLA ENERG ON *      090R$  000000000011700000000001230000000000117000000000011800000000001230000000000000000000000000000004000000000005000000000000000000591136000000000000009999123100010000000000000000BRCBEEACNOR3149
012013071702CBMA4       010COBRASMA    PN           R$  000000000000400000000000040000000000004000000000000400000000000040000000000003000000000000400002000000000000020000000000000000080000000000000000009999123100000010000000000000BRCBMAACNPR1124
012013071708CCHI3       010CHIARELLI   ON           R$  000000000003000000000000300000000000027000000000002700000000000270000000000027000000000002800082000000000001630000000000000045590000000000000000009999123100000010000000000000BRCCHIACNOR5123
012013071796CCHI3F      020CHIARELLI   ON           R$  000000000003000000000000300000000000027000000000002800000000000270000000000027000000000003000006000000000000007000000000000000202800000000000000009999123100000010000000000000BRCCHIACNOR5123
012013071708CCHI4       010CHIARELLI   PN           R$  000000000002200000000000240000000000022000000000002200000000000240000000000022000000000002400003000000000000030000000000000000680000000000000000009999123100000010000000000000BRCCHIACNPR2122
012013071702CCPR3       010CYRE COM-CCPON      NM   R$  000000000198000000000020090000000001966000000000199400000000020090000000002000000000000200900030000000000000005000000000000009973600000000000000009999123100000010000000000000BRCCPRACNOR9107
012013071796CCPR3F      020CYRE COM-CCPON      NM   R$  000000000191500000000019150000000001900000000000190100000000019000000000001861000000000209900002000000000000000008000000000000015215000000000000009999123100000010000000000000BRCCPRACNOR9107
012013071702CCRO3       010CCR SA      ON      NM   R$  000000000169200000000017080000000001679000000000169500000000017050000000001692000000000170511827000000000003713300000000006296698400000000000000009999123100000010000000000000BRCCROACNOR2122
012013071796CCRO3F      020CCR SA      ON      NM   R$  000000000170300000000017090000000001671000000000169300000000017050000000001682000000000170500065000000000000001849000000000003132879000000000000009999123100000010000000000000BRCCROACNOR2122
012013071762CCRO3T      030CCR SA      ON      NM090R$  000000000172400000000017250000000001724000000000172400000000017250000000000000000000000000000002000000000000003000000000000005173459000000000000009999123100000010000000000000BRCCROACNOR2122
012013071762CCRO3T      030CCR SA      ON      NM120R$  000000000176000000000017610000000001760000000000176000000000017610000000000000000000000000000002000000000000000025000000000000044002000000000000009999123100000010000000000000BRCCROACNOR2122
012013071778CCROH18     070CCRO        ON      NM000R$  000000000001000000000000100000000000010000000000001000000000000100000000000000000000000000000008000000000000008300000000000000083000000000000180002013081900000010000000000000BRCCROACNOR2122
012013071778CCROH47     070CCRO        ON      NM000R$  000000000001100000000000240000000000011000000000001900000000000240000000000000000000000000000004000000000000013800000000000000271800000000000175002013081900000010000000000000BRCCROACNOR2122
012013071702CCXC3       010CCX CARVAO  ON      NM   R$  000000000008200000000000850000000000080000000000008100000000000810000000000080000000000008100106000000000000345600000000000028288500000000000000009999123100000010000000000000BRCCXCACNOR5100
012013071796CCXC3F      020CCX CARVAO  ON      NM   R$  000000000008100000000000810000000000081000000000008100000000000810000000000080000000000008300001000000000000000055000000000000004455000000000000009999123100000010000000000000BRCCXCACNOR5100
012013071762CCXC3T      030CCX CARVAO  ON      NM120R$  000000000008300000000000840000000000083000000000008300000000000840000000000000000000000000000002000000000000000055000000000000004594000000000000009999123100000010000000000000BRCCXCACNOR5100
012013071702CEBR6       010CEB         PNB          R$  000000000175500000000017550000000001755000000000175500000000017550000000001280000000000188000004000000000000005000000000000008775000000000000000009999123100000010000000000000BRCEBRACNPB6113
012013071762CEBR6T      030CEB         PNB       120R$  000000000180100000000018020000000001801000000000180100000000018020000000000000000000000000000006000000000000005000000000000009005783000000000000009999123100000010000000000000BRCEBRACNPB6113
012013071712CEOC11B     010FII CEO CCP CI  ER  MB   R$  000000000881100000000088750000000008800000000000885700000000088010000000008801000000000884000029000000000000002001000000000017724847000000000000009999123100000010000000000000BRCEOCCTF003108
012013071702CEPE5       010CELPE       PNA          R$  000000000184900000000018490000000001849000000000184900000000018490000000001849000000000185000001000000000000000100000000000000184900000000000000009999123100000010000000000000BRCEPEACNPA6151
012013071702CESP3       010CESP        ON      N1   R$  000000000163200000000016320000000001601000000000162700000000016230000000001623000000000162400011000000000000019900000000000032388300000000000000009999123100000010000000000000BRCESPACNOR3159
012013071762CESP3T      030CESP        ON      N1030R$  000000000164100000000016420000000001641000000000164100000000016420000000000000000000000000000004000000000000018400000000000030209819000000000000009999123100000010000000000000BRCESPACNOR3159
012013071702CESP6       010CESP        PNB     N1   R$  000000000195600000000020070000000001951000000000197800000000019690000000001958000000000196903098000000000000866800000000001714789800000000000000009999123100000010000000000000BRCESPACNPB4118
012013071796CESP6F      020CESP        PNB     N1   R$  000000000203900000000020390000000001951000000000197600000000020310000000002030000000000203100027000000000000000588000000000001162409000000000000009999123100000010000000000000BRCESPACNPB4118
012013071762CESP6T      030CESP        PNB     N1030R$  000000000198500000000019860000000001976000000000197700000000019770000000000000000000000000000004000000000000004600000000000009097116000000000000009999123100000010000000000000BRCESPACNPB4118
012013071762CESP6T      030CESP        PNB     N1120R$  000000000202100000000020210000000002021000000000202100000000020210000000000000000000000000000001000000000000000006000000000000012126000000000000009999123100000010000000000000BRCESPACNPB4118
012013071778CESPH21     070CESP        PNB     N1000R$  000000000005000000000000600000000000050000000000005600000000000600000000000020000000000006500003000000000000000500000000000000028000000000000210002013081900000010000000000000BRCESPACNPB4118
012013071778CESPI21     070CESP        PNB     N1000R$  000000000005500000000000560000000000055000000000005500000000000560000000000000000000000000000002000000000000665000000000000037175000000000000210002013091600000010000000000000BRCESPACNPB4118
012013071782CESPT19     080CESPE       PNB     N1000R$  000000000007000000000000700000000000070000000000007000000000000700000000000000000000000008500001000000000000000200000000000000014000000000000190002013081900000010000000000000BRCESPACNPB4118
012013071782CESPT20     080CESPE       PNB     N1000R$  000000000010100000000001200000000000101000000000011500000000001200000000000000000000000012200005000000000000000700000000000000081100000000000200002013081900000010000000000000BRCESPACNPB4118
012013071782CESPU19     080CESPE       PNB     N1000R$  000000000008000000000001000000000000072000000000007300000000000850000000000085000000000011000010000000000000621000000000000045590600000000000190002013091600000010000000000000BRCESPACNPB4118
012013071782CESPU20     080CESPE       PNB     N1000R$  000000000011500000000001400000000000100000000000011600000000001180000000000100000000000014900013000000000000731400000000000085155200000000000200002013091600000010000000000000BRCESPACNPB4118
012013071702CGAS3       010COMGAS      ON           R$  000000000470000000000047000000000004550000000000455200000000045500000000004504000000000455000005000000000000006900000000000031410000000000000000009999123100000010000000000000BRCGASACNOR0132
012013071702CGAS5       010COMGAS      PNA          R$  000000000511400000000052000000000005103000000000515400000000052000000000005138000000000520000256000000000000037100000000000191214900000000000000009999123100000010000000000000BRCGASACNPA3129
012013071796CGAS5F      020COMGAS      PNA          R$  000000000515000000000051590000000005113000000000514200000000051130000000005112000000000534400007000000000000000125000000000000642811000000000000009999123100000010000000000000BRCGASACNPA3129
012013071702CGRA3       010GRAZZIOTIN  ON           R$  000000000153000000000015450000000001530000000000154000000000015440000000001483000000000154500005000000000000001000000000000001540300000000000000009999123100000010000000000000BRCGRAACNOR2061
012013071702CGRA4       010GRAZZIOTIN  PN           R$  000000000153600000000015670000000001520000000000154900000000015500000000001550000000000156000309000000000000031900000000000049436000000000000000009999123100000010000000000000BRCGRAACNPR9061
012013071796CGRA4F      020GRAZZIOTIN  PN           R$  000000000157100000000015710000000001571000000000157100000000015710000000001400000000000157100001000000000000000033000000000000051843000000000000009999123100000010000000000000BRCGRAACNPR9061
012013071702CIEL3       010CIELO       ON      NM   R$  000000000570000000000057000000000005468000000000552700000000055340000000005530000000000553408041000000000002904700000000016055141200000000000000009999123100000010000000000000BRCIELACNOR3111
012013071796CIEL3F      020CIELO       ON      NM   R$  000000000570000000000057440000000005470000000000552800000000055130000000005513000000000552100166000000000000004236000000000023418915000000000000009999123100000010000000000000BRCIELACNOR3111
012013071762CIEL3T      030CIELO       ON      NM016R$  000000000550200000000055030000000005502000000000550200000000055030000000000000000000000000000002000000000000002000000000000011004936000000000000009999123100000010000000000000BRCIELACNOR3111
012013071762CIEL3T      030CIELO       ON      NM030R$  000000000552700000000055280000000005516000000000552400000000055170000000000000000000000000000006000000000000000300000000000001657211000000000000009999123100000010000000000000BRCIELACNOR3111
012013071762CIEL3T      030CIELO       ON      NM061R$  000000000556400000000055650000000005564000000000556400000000055650000000000000000000000000000002000000000000075000000000000417339937000000000000009999123100000010000000000000BRCIELACNOR3111
012013071778CIELI60     070CIEL        ON      NM000R$  000000000007200000000000720000000000051000000000006000000000000510000000000000000000000000000003000000000001100000000000000066600000000000000600002013091600000010000000000000BRCIELACNOR3111
012013071782CIELU10     080CIELE       ON      NM000R$  000000000017300000000001730000000000173000000000017300000000001730000000000000000000000000000003000000000001100000000000000190300000000000000545002013091600000010000000000000BRCIELACNOR3111
012013071782CIELU52     080CIELE       ON      NM000R$  000000000008300000000000900000000000083000000000008600000000000900000000000000000000000000000002000000000001100000000000000095500000000000000520002013091600000010000000000000BRCIELACNOR3111
012013071702CIQU3       010CACIQUE     ON           R$  000000000065000000000006500000000000650000000000065000000000006500000000000601000000000065000002000000000000000300000000000000195000000000000000009999123100000010000000000000BRCIQUACNOR8157
012013071702CLSC4       010CELESC      PN      N2   R$  000000000182800000000018280000000001750000000000175700000000017500000000001750000000000175100067000000000000012500000000000021970000000000000000009999123100000010000000000000BRCLSCACNPR3107
012013071796CLSC4F      020CELESC      PN      N2   R$  000000000170000000000019790000000001700000000000174400000000019790000000001701000000000198000004000000000000000108000000000000188405000000000000009999123100000010000000000000BRCLSCACNPR3107
012013071702CMIG3       010CEMIG       ON      N1   R$  000000000204500000000020750000000002010000000000204600000000020300000000002030000000000205500892000000000000234600000000000480173300000000000000009999123100000010000000000000BRCMIGACNOR6208
012013071796CMIG3F      020CEMIG       ON      N1   R$  000000000204600000000020650000000002006000000000205000000000020500000000002015000000000205400017000000000000000404000000000000828396000000000000009999123100000010000000000000BRCMIGACNOR6208
012013071702CMIG4       010CEMIG       PN      N1   R$  000000000200600000000020490000000001994000000000202500000000020100000000002010000000000201507481000000000002294300000000004646902600000000000000009999123100000010000000000000BRCMIGACNPR3208
012013071796CMIG4F      020CEMIG       PN      N1   R$  000000000200000000000020470000000002000000000000203000000000020190000000002006000000000201900109000000000000003518000000000007142341000000000000009999123100000010000000000000BRCMIGACNPR3208
012013071762CMIG4T      030CEMIG       PN      N1016R$  000000000203800000000020390000000002032000000000203800000000020330000000000000000000000000000006000000000000012100000000000024663146000000000000009999123100000010000000000000BRCMIGACNPR3208
012013071762CMIG4T      030CEMIG       PN      N1030R$  000000000203600000000020370000000002036000000000203600000000020370000000000000000000000000000002000000000000000600000000000001221814000000000000009999123100000010000000000000BRCMIGACNPR3208
012013071762CMIG4T      030CEMIG       PN      N1061R$  000000000206500000000020660000000002065000000000206500000000020660000000000000000000000000000002000000000000001500000000000003097666000000000000009999123100000010000000000000BRCMIGACNPR3208
012013071762CMIG4T      030CEMIG       PN      N1090R$  000000000207100000000020720000000002071000000000207100000000020720000000000000000000000000000002000000000000003000000000000006214860000000000000009999123100000010000000000000BRCMIGACNPR3208
012013071778CMIGH20     070CMIG        PN      N1000R$  000000000010500000000001050000000000085000000000010200000000000950000000000020000000000000000003000000000000001100000000000000112500000000000200002013081900000010000000000000BRCMIGACNPR3208
012013071778CMIGH21     070CMIG        PN      N1000R$  000000000004500000000000450000000000040000000000004300000000000400000000000000000000000000000002000000000000002700000000000000117000000000000210002013081900000010000000000000BRCMIGACNPR3208
012013071778CMIGH22     070CMIG        PN      N1000R$  000000000002000000000000270000000000017000000000001700000000000180000000000005000000000002800019000000000000141500000000000002523000000000000220002013081900000010000000000000BRCMIGACNPR3208
012013071712CNES11B     010FII CENESP  CI      MB   R$  000000001225000000000122500000000012202000000001222700000000122500000000012202000000001225000005000000000000000171000000000002090910000000000000009999123100000010000000000000BRCNESCTF001123
012013071702COCE3       010COELCE      ON           R$  000000000401900000000040980000000003911000000000398200000000040000000000003920000000000404000020000000000000003900000000000015532400000000000000009999123100000010000000000000BRCOCEACNOR0132
012013071702COCE5       010COELCE      PNA          R$  000000000391900000000039560000000003850000000000391500000000038500000000003850000000000388000210000000000000077400000000000303059000000000000000009999123100000010000000000000BRCOCEACNPA3133
012013071796COCE5F      020COELCE      PNA          R$  000000000393500000000039520000000003894000000000391800000000038940000000003862000000000398000012000000000000000190000000000000744523000000000000009999123100000010000000000000BRCOCEACNPA3133
012013071702CPFE3       010CPFL ENERGIAON      NM   R$  000000000208900000000021300000000002081000000000210800000000021140000000002105000000000211404653000000000000839200000000001769564700000000000000009999123100000010000000000000BRCPFEACNOR0121
012013071796CPFE3F      020CPFL ENERGIAON      NM   R$  000000000224700000000022470000000002090000000000211000000000021490000000002091000000000214900023000000000000000586000000000001238006000000000000009999123100000010000000000000BRCPFEACNOR0121
012013071702CPLE3       010COPEL       ON      N1   R$  000000000225200000000022570000000002200000000000220700000000022000000000002195000000000220000039000000000000017300000000000038196100000000000000009999123100000010000000000000BRCPLEACNOR8128
012013071702CPLE6       010COPEL       PNB     N1   R$  000000000283600000000028780000000002805000000000283200000000028180000000002815000000000281802578000000000000478300000000001354555400000000000000009999123100000010000000000000BRCPLEACNPB9125
012013071796CPLE6F      020COPEL       PNB     N1   R$  000000000300000000000030000000000002811000000000283800000000028220000000002822000000000286000030000000000000000638000000000001810448000000000000009999123100000010000000000000BRCPLEACNPB9125
012013071762CPLE6T      030COPEL       PNB     N1016R$  000000000284200000000028430000000002842000000000284200000000028430000000000000000000000000000002000000000000000100000000000000284217000000000000009999123100000010000000000000BRCPLEACNPB9125
012013071762CPLE6T      030COPEL       PNB     N1120R$  000000000293200000000029330000000002932000000000293200000000029330000000000000000000000000000002000000000000000003000000000000008797000000000000009999123100000010000000000000BRCPLEACNPB9125
